CRFPREFIX                                                        22-AUG-1978 04:40:02   VAX-11 MACRO X0.3-11               Page   0
TABLE OF CONTENTS

   (2)      41  DECLARATIONS
   (2)     183  DECLARATIONS
CRFGBL                                                           22-AUG-1978 04:40:02   VAX-11 MACRO X0.3-11               Page   1
X01.01          DECLARATIONS                                                                                                     (1)

                                     0000     1 	.TITLE	CRFGBL
                                     0000     2 	.IDENT	/X01.01/
                                     0000     3
                                     0000     4 ;
                                     0000     5 ; COPYRIGHT (C) 1977,1978
                                     0000     6 ; DIGITAL EQUIPMENT CORPORATION, MAYNARD, MASSACHUSETTS 01754
                                     0000     7 ;
                                     0000     8 ; THIS SOFTWARE IS FURNISHED  UNDER A LICENSE FOR USE ONLY ON A SINGLE
                                     0000     9 ; COMPUTER  SYSTEM AND  MAY BE  COPIED ONLY WITH  THE INCLUSION OF THE
                                     0000    10 ; ABOVE COPYRIGHT NOTICE.  THIS SOFTWARE, OR ANY OTHER COPIES THEREOF,
                                     0000    11 ; MAY NOT BE PROVIDED OR  OTHERWISE MADE AVAILABLE TO ANY OTHER PERSON
                                     0000    12 ; EXCEPT FOR USE ON SUCH SYSTEM AND TO ONE WHO AGREES TO THESE LICENSE
                                     0000    13 ; TERMS.  TITLE TO AND  OWNERSHIP OF THE  SOFTWARE  SHALL AT ALL TIMES
                                     0000    14 ; REMAIN IN DEC.
                                     0000    15 ;
                                     0000    16 ; THE INFORMATION IN THIS SOFTWARE IS SUBJECT TO CHANGE WITHOUT NOTICE
                                     0000    17 ; AND SHOULD  NOT BE CONSTRUED  AS A COMMITMENT  BY DIGITAL  EQUIPMENT
                                     0000    18 ; CORPORATION.
                                     0000    19 ;
                                     0000    20 ; DEC ASSUMES  NO  RESPONSIBILITY  FOR  THE USE OR  RELIABILITY OF ITS
                                     0000    21 ; SOFTWARE ON EQUIPMENT WHICH IS NOT SUPPLIED BY DEC.
                                     0000    22 ;
                                     0000    23
                                     0000    24 ;++
                                     0000    25 ; FACILITY:  CROSS REFERENCE PROGRAM
                                     0000    26 ;
                                     0000    27 ; ABSTRACT:  THIS FILE DEFINES GLOBAL CRF DATA.
                                     0000    28 ;
                                     0000    29 ;
                                     0000    30 ; ENVIRONMENT:  IT IS PART OF A LINKABLE IMAGE.
                                     0000    31 ;
                                     0000    32 ; AUTHOR:  K.D. MORSE, CREATION DATE:  28-APR-77
                                     0000    33 ;
                                     0000    34 ; MODIFICATIONS:
                                     0000    35 ;
                                     0000    36 ;  NO	DATE		PROGRAMMER		PURPOSE
                                     0000    37 ;  --	----		----------		-------
                                     0000    38 ;
                                     0000    39 ;  01	06-JUL-78	K.D. MORSE		MOVE ERROR CODES TO CRFERRMSG.MDL.
                                     0000    40 ;
                                     0000    41 ;--
CRFGBL                                                           22-AUG-1978 04:40:02   VAX-11 MACRO X0.3-11               Page   2
X01.01          DECLARATIONS                                                                                                     (2)

                                     0000    43 	.SBTTL	DECLARATIONS
                                     0000    44 ;
                                     0000    45 ; INCLUDE FILES:
                                     0000    46 ;
                                     0000    47
                                     0000    48 ;
                                     0000    49 ; MACROS:
                                     0000    50 ;
                                     0000    51
                                     0000    52 ;
                                     0000    53 ; EQUATED SYMBOLS:
                                     0000    54 ;
                                     0000    55
                                     0000    56 ;
                                     0000    57 ; CRF GLOBAL SYMBOLS
                                     0000    58 ;
                                     0000    59
                                     0000    60 ;
                                     0000    61 ; INDICATOR VALUES FOR MODES OF OUTPUT LINE
                                     0000    62 ;
                                     0000    63
                           00000000  0000    64 CRF$K_VALUES == 0				; PRINT VALUE FIELDS
                           00000001  0000    65 CRF$K_VALS_REFS == 1				; PRINT VALUE AND REF FIELDS
                           00000002  0000    66 CRF$K_DEFS_REFS == 2				; PRINT VALUE, DEF, AND REF FIELDS
                                     0000    67
                                     0000    68 ;
                                     0000    69 ; TYPES OF KEYS
                                     0000    70 ;
                                     0000    71
                           00000000  0000    72 CRF$K_ASCIC == 0				; ASCIC KEY, MAX 15 CHARS
                           00000001  0000    73 CRF$K_BIN_U32 == 1				; UNSIGNED 32 BIT BINARY KEY
                                     0000    74
                                     0000    75 ;
                                     0000    76 ; SAVE/DELETE TREE INDICATOR VALUES
                                     0000    77 ;
                                     0000    78
                           00000001  0000    79 CRF$K_SAVE == 1					; SAVE TREE
                           00000000  0000    80 CRF$K_DELETE == 0				; DELETE TREE
                                     0000    81
                                     0000    82 ;
                                     0000    83 ; SIZES OF DATA STRUCTURES
                                     0000    84 ;
                                     0000    85
                           00000028  0000    86 CRF$K_ENTSIZE == KEY$K_SIZE			; SIZE OF ONE ENTRY
                           000001F0  0000    87 CRF$K_NODSIZE == NOD$K_SIZE			; SIZE OF A NODE
                                     0000    88
                                     0000    89 ;
                                     0000    90 ; INDICATORS FOR DEFINITIONS AND REFERENCES ON CRF$INSREF CALL
                                     0000    91 ;
                                     0000    92
                           00000000  0000    93 CRF$K_REF == 0					; REFERENCE TO SYMBOL
                           00000001  0000    94 CRF$K_DEF == 1					; DEFINITION OF SYMBOL
                                     0000    95
                                     0000    96 	.END
CRFGBL                                                           22-AUG-1978 04:40:02   VAX-11 MACRO X0.3-11               Page   3
SYMBOL TABLE                                                                                                                     (2)

CRF$K_ASCIC    = 00000000  G         REF$T_REFNAME  = 00000007
CRF$K_BIN_U32  = 00000001  G         REF$W_REFFLAG  = 00000004
CRF$K_DEF      = 00000001  G
CRF$K_DEFS_REFS= 00000002  G
CRF$K_DELETE   = 00000000  G
CRF$K_ENTSIZE  = 00000028  G
CRF$K_FACILCOD = 00000065
CRF$K_NODSIZE  = 000001F0  G
CRF$K_REF      = 00000000  G
CRF$K_SAVE     = 00000001  G
CRF$K_VALS_REFS= 00000001  G
CRF$K_VALUES   = 00000000  G
DMY$K_SIZE     = 00000010
DMY$L_KEYADDR  = 00000008
DMY$L_LINKUP   = 00000004
DMY$W_1STFREE  = 0000000E
DMY$W_FIRST    = 00000000
DMY$W_LAST     = 00000002
DMY$W_NUMFREE  = 0000000C
FLD$B_MAXLNG   = 00000003
FLD$B_SET_CLR  = 00000002
FLD$K_LENGTH   = 0000000C
FLD$L_FAODSC   = 00000004
FLD$W_MASK     = 00000000
HIS$K_ENTRYSIZE= 00000010
HIS$K_LISTSIZE = 00000070
HIS$L_FATHER   = FFFFFFF0
HIS$L_FATHROFF = FFFFFFF4
HIS$L_LEFTBRO  = FFFFFFF8
HIS$L_LEFTSON  = 00000008
HIS$L_LINKUP   = 00000008
HIS$L_LINKUPOFF= 0000000C
HIS$L_NODE     = 00000000
HIS$L_NTH      = 0000000C
HIS$L_OFFSET   = 00000004
HIS$L_RIGHTBRO = FFFFFFFC
HIS$L_RIGHTSON = 0000000C
HIS$L_TOP      = 00000004
KEY$B_DEFLNG   = 00000018
KEY$K_DATASIZE = 0000001C
KEY$K_SIZE     = 00000028
KEY$L_DATA     = 0000000C
KEY$L_KEYADDR  = 00000008
KEY$L_LINKUP   = 00000004
KEY$L_REFLIST  = 00000010
KEY$L_VALADDR  = 0000000C
KEY$T_DEFNAME  = 00000019
KEY$W_DEFFLAG  = 00000016
KEY$W_NEXT     = 00000000
KEY$W_PREV     = 00000002
KEY$W_VALFLAG  = 00000014
NOD$K_1STFREE  = 00000010
NOD$K_NUMFREE  = 0000000C
NOD$K_SIZE     = 000001F0
REF$B_REFLNG   = 00000006
REF$K_SIZE     = 00000016
REF$L_FLINK    = 00000000
CRFGBL                                                           22-AUG-1978 04:40:02   VAX-11 MACRO X0.3-11               Page   4
PROGRAM SECTION SYNOPSIS                                                                                                         (2)


PROGRAM SECTION SYNOPSIS

.  ABS  .        00000000      00     NOPIC   USR   CON   ABS   LCL NOSHR NOEXE NORD  NOWRT BYTE
. BLANK .        00000000      01     NOPIC   USR   CON   REL   LCL NOSHR   EXE   RD    WRT BYTE


THERE WERE NO ERRORS OR WARNINGS.
27258. BYTES LEFT IN FREE MEMORY POOL.
OBJ$:CRFGBL,LIS$:CRFGBL/-SP=SRC$:CRFPREFIX,CRFGBL
0 MLB DIR RDS - 0 GETS TO DEFINE 0 MACROS. 2 INTER. FILE WRITES.
