CRF_TRANSFER                                                     22-AUG-1978 04:40:06   VAX-11 MACRO X0.3-11               Page   0
TABLE OF CONTENTS

   (2)      40  DECLARATIONS
   (3)      60  TRANSFER_VECTORS
CRF_TRANSFER                                                     22-AUG-1978 04:40:06   VAX-11 MACRO X0.3-11               Page   1
X01.00                                                                                                                           (1)

                                     0000     1 	.TITLE	CRF_TRANSFER
                                     0000     2 	.IDENT	/X01.00/
                                     0000     3
                                     0000     4 ;
                                     0000     5 ; COPYRIGHT (C) 1978
                                     0000     6 ; DIGITAL EQUIPMENT CORPORATION, MAYNARD, MASSACHUSETTS 01754
                                     0000     7 ;
                                     0000     8 ; THIS SOFTWARE IS FURNISHED  UNDER A LICENSE FOR USE ONLY ON A SINGLE
                                     0000     9 ; COMPUTER  SYSTEM AND  MAY BE  COPIED ONLY WITH  THE INCLUSION OF THE
                                     0000    10 ; ABOVE COPYRIGHT NOTICE.  THIS SOFTWARE, OR ANY OTHER COPIES THEREOF,
                                     0000    11 ; MAY NOT BE PROVIDED OR  OTHERWISE MADE AVAILABLE TO ANY OTHER PERSON
                                     0000    12 ; EXCEPT FOR USE ON SUCH SYSTEM AND TO ONE WHO AGREES TO THESE LICENSE
                                     0000    13 ; TERMS.  TITLE TO AND  OWNERSHIP OF THE  SOFTWARE  SHALL AT ALL TIMES
                                     0000    14 ; REMAIN IN DEC.
                                     0000    15 ;
                                     0000    16 ; THE INFORMATION IN THIS SOFTWARE IS SUBJECT TO CHANGE WITHOUT NOTICE
                                     0000    17 ; AND SHOULD  NOT BE CONSTRUED  AS A COMMITMENT  BY DIGITAL  EQUIPMENT
                                     0000    18 ; CORPORATION.
                                     0000    19 ;
                                     0000    20 ; DEC ASSUMES  NO  RESPONSIBILITY  FOR  THE USE OR  RELIABILITY OF ITS
                                     0000    21 ; SOFTWARE ON EQUIPMENT WHICH IS NOT SUPPLIED BY DEC.
                                     0000    22 ;
                                     0000    23
                                     0000    24 ;++
                                     0000    25 ; FACILITY:  CROSS REFERENCE PROGRAM
                                     0000    26 ;
                                     0000    27 ; ABSTRACT:  DEFINE TRANSFER VECTOR FOR CRF ENTRY POINTS
                                     0000    28 ;
                                     0000    29 ;
                                     0000    30 ; ENVIRONMENT:  PART OF SHARABLE IMAGE
                                     0000    31 ;
                                     0000    32 ; AUTHOR:  K.D. MORSE, CREATION DATE:  20-JUN-78
                                     0000    33 ;
                                     0000    34 ; MODIFIED BY:
                                     0000    35 ;
                                     0000    36 ;	, : VERSION
                                     0000    37 ; 01	-
                                     0000    38 ;--
CRF_TRANSFER                                                     22-AUG-1978 04:40:06   VAX-11 MACRO X0.3-11               Page   2
X01.00          DECLARATIONS                                                                                                     (2)

                                     0000    40 	.SBTTL	DECLARATIONS
                                     0000    41 ;
                                     0000    42 ; INCLUDE FILES:
                                     0000    43 ;
                                     0000    44
                                     0000    45 ;
                                     0000    46 ; MACROS:
                                     0000    47 ;
                                     0000    48
                                     0000    49
                                     0000    50 ;
                                     0000    51 ; EQUATED SYMBOLS:
                                     0000    52 ;
                                     0000    53
                                     0000    54
                                     0000    55 ;
                                     0000    56 ; OWN STORAGE:
                                     0000    57 ;
                                     0000    58
CRF_TRANSFER                                                     22-AUG-1978 04:40:06   VAX-11 MACRO X0.3-11               Page   3
X01.00          TRANSFER_VECTORS                                                                                                 (3)

                                     0000    60 	.SBTTL	TRANSFER_VECTORS
                                     0000    61 ;++
                                     0000    62 ; FUNCTIONAL DESCRIPTION:
                                     0000    63 ;
                                     0000    64 ; THIS MODULE DEFINES THE TRANSFER VECTORS FOR THE ENTRY POINTS CALLED
                                     0000    65 ; BY A USER OF CRF.  THIS MODULE ENABLES CRF TO BE LINKED AS A SHARABLE IMAGE.
                                     0000    66 ;
                                     0000    67 ; CALLING SEQUENCE:
                                     0000    68 ;
                                     0000    69 ;	NONE
                                     0000    70 ;
                                     0000    71 ; INPUT PARAMETERS:
                                     0000    72 ;
                                     0000    73 ;	NONE
                                     0000    74 ;
                                     0000    75 ; IMPLICIT INPUTS:
                                     0000    76 ;
                                     0000    77 ;	NONE
                                     0000    78 ;
                                     0000    79 ; OUTPUT PARAMETERS:
                                     0000    80 ;
                                     0000    81 ;	NONE
                                     0000    82 ;
                                     0000    83 ; IMPLICIT OUTPUTS:
                                     0000    84 ;
                                     0000    85 ;	NONE
                                     0000    86 ;
                                     0000    87 ; COMPLETION CODES:
                                     0000    88 ;
                                     0000    89 ;	NONE
                                     0000    90 ;
                                     0000    91 ; SIDE EFFECTS:
                                     0000    92 ;
                                     0000    93 ;	NONE
                                     0000    94 ;
                                     0000    95 ;--
                                     0000    96
                                     0000    97
                                 00000000    98 	.PSECT	$$VECTOR_0_CRF,PIC,SHR,NOWRT,EXE
                                     0000    99
                                     0000   100 	.TRANSFER	CRF$INSRTKEY	; INSERTS A CROSS REFERENCE KEY
                               0000' 0000   101 	.MASK		CRF$INSRTKEY
                          FFFD'  31  0002   102 	BRW		CRF$INSRTKEY+2
                                     0005   103
                                     0005   104 	.TRANSFER	CRF$INSRTREF	; INSERTS A REFERENCE TO A KEY
                               0000' 0005   105 	.MASK		CRF$INSRTREF
                          FFF8'  31  0007   106 	BRW		CRF$INSRTREF+2
                                     000A   107
                                     000A   108 	.TRANSFER	CRF$OUT		; OUTPUTS CROSS REFERENCE SUMMARY
                               0000' 000A   109 	.MASK		CRF$OUT
                          FFF3'  31  000C   110 	BRW		CRF$OUT+2
                                     000F   111
                           00000200  000F   112 	.BLKB	497			; ROOM FOR FUTURE ENTRY POINTS
                                     0200   113 	.END
CRF_TRANSFER                                                     22-AUG-1978 04:40:06   VAX-11 MACRO X0.3-11               Page   4
SYMBOL TABLE                                                                                                                     (3)

CRF$INSRTKEY     ********   X   02
CRF$INSRTREF     ********   X   02
CRF$OUT          ********   X   02


PROGRAM SECTION SYNOPSIS

.  ABS  .        00000000      00     NOPIC   USR   CON   ABS   LCL NOSHR NOEXE NORD  NOWRT BYTE
. BLANK .        00000000      01     NOPIC   USR   CON   REL   LCL NOSHR   EXE   RD    WRT BYTE
$$VECTOR_0_CRF   00000200      02       PIC   USR   CON   REL   LCL   SHR   EXE   RD  NOWRT BYTE


THERE WERE NO ERRORS OR WARNINGS.
28522. BYTES LEFT IN FREE MEMORY POOL.
OBJ$:CRFTFRVEC,LIS$:CRFTFRVEC/-SP=SRC$:CRFTFRVEC
0 MLB DIR RDS - 0 GETS TO DEFINE 0 MACROS. 1 INTER. FILE WRITES.
