NETALLCTL       - ALLOCATION OF CONTROL MESSAGES                 22-AUG-1978 00:46:25   VAX-11 MACRO X0.3-11               Page   0
TABLE OF CONTENTS

   (1)    3400  HISTORY
   (1)    4200  DECLARATIONS
   (1)    6900  NSP CONTROL MESSAGE ALLOCATION
NETALLCTL       - ALLOCATION OF CONTROL MESSAGES                 22-AUG-1978 00:46:25   VAX-11 MACRO X0.3-11               Page   1
X01                                                                                                                              (1)

                                     0000   100
                                     0000   200 	.TITLE	NETALLCTL - ALLOCATION OF CONTROL MESSAGES
                                     0000   300 	.IDENT	/X01/
                                     0000   400
                                     0000   500 ;
                                     0000   600 ; COPYRIGHT (C) 1977, 1978
                                     0000   700 ; DIGITAL EQUIPMENT CORPORATION, MAYNARD, MASSACHUSETTS 01754
                                     0000   800 ;
                                     0000   900 ; THIS SOFTWARE IS FURNISHED  UNDER A LICENSE FOR USE ONLY ON A SINGLE
                                     0000  1000 ; COMPUTER  SYSTEM AND  MAY BE  COPIED ONLY WITH  THE INCLUSION OF THE
                                     0000  1100 ; ABOVE COPYRIGHT NOTICE.  THIS SOFTWARE, OR ANY OTHER COPIES THEREOF,
                                     0000  1200 ; MAY NOT BE PROVIDED OR  OTHERWISE MADE AVAILABLE TO ANY OTHER PERSON
                                     0000  1300 ; EXCEPT FOR USE ON SUCH SYSTEM AND TO ONE WHO AGREES TO THESE LICENSE
                                     0000  1400 ; TERMS.  TITLE TO AND  OWNERSHIP OF THE  SOFTWARE  SHALL AT ALL TIMES
                                     0000  1500 ; REMAIN IN DEC.
                                     0000  1600 ;
                                     0000  1700 ; THE INFORMATION IN THIS SOFTWARE IS SUBJECT TO CHANGE WITHOUT NOTICE
                                     0000  1800 ; AND SHOULD  NOT BE CONSTRUED  AS A COMMITMENT  BY DIGITAL  EQUIPMENT
                                     0000  1900 ; CORPORATION.
                                     0000  2000 ;
                                     0000  2100 ; DEC ASSUMES  NO  RESPONSIBILITY  FOR  THE USE OR  RELIABILITY OF ITS
                                     0000  2200 ; SOFTWARE ON EQUIPMENT WHICH IS NOT SUPPLIED BY DEC.
                                     0000  2300
                                     0000  2400 ;++
                                     0000  2500 ; FACILITY:	NETWORK ACP
                                     0000  2600 ;
                                     0000  2700 ; ABSTRACT:
                                     0000  2800 ;	THIS MODULE ALLOCATES MEMORY FOR CI, CC, DI, AND DC MESSAGES.
                                     0000  2900 ;
                                     0000  3000 ; ENVIRONMENT:
                                     0000  3100 ;	MODE = KERNEL
                                     0000  3200 ;--
NETALLCTL       - ALLOCATION OF CONTROL MESSAGES                 22-AUG-1978 00:46:25   VAX-11 MACRO X0.3-11               Page   2
X01             HISTORY                                                                                                          (1)

                                     0000  3400 	.SBTTL	HISTORY
                                     0000  3500 ; AUTHOR:	SCOTT G. DAVIS, CREATION DATE: 08-JUL-77
                                     0000  3600 ;
                                     0000  3700 ; MODIFIED BY:
                                     0000  3800 ;
                                     0000  3900 ;	, : VERSION
                                     0000  4000 ; 01	-
NETALLCTL       - ALLOCATION OF CONTROL MESSAGES                 22-AUG-1978 00:46:25   VAX-11 MACRO X0.3-11               Page   3
X01             DECLARATIONS                                                                                                     (1)

                                     0000  4200 	.SBTTL	DECLARATIONS
                                     0000  4300 ;
                                     0000  4400 ; INCLUDE FILES:
                                     0000  4500 ;
                                     0000  4600 	$CXBDEF
                                     0000  4700 	$NETMSGDEF
                                     0000  4800 	$SSBDEF
                                     0000  4900 	$UCBDEF
                                     0000  5000
                                     0000  5100 ;
                                     0000  5200 ; MACROS:
                                     0000  5300 ;
                                     0000  5400
                                     0000  5500 ;
                                     0000  5600 ; EQUATED SYMBOLS:
                                     0000  5700 ;
                                     0000  5800 	$EQULST	NET_,LOCAL,,,<-
                                     0000  5900 		<CONLTH,110>,-		; MAX LTH OF A CONNECT MSG
                                     0000  6000 		<DISLTH,26>,-		; MAX LTH OF A DISCONNECT MSG
                                     0000  6100 >
                                     0000  6200
                                     0000  6300 ;
                                     0000  6400 ; OWN STORAGE:
                                     0000  6500 ;
                                 00000000  6600 	.PSECT	NET_PURE,NOEXE,NOWRT
NETALLCTL       - ALLOCATION OF CONTROL MESSAGES                 22-AUG-1978 00:46:25   VAX-11 MACRO X0.3-11               Page   4
X01             DECLARATIONS                                                                                                     (1)

                                 00000000  6800 	.PSECT	NET_CONNECT,NOWRT
                                     0000  6900 	.SBTTL	NSP CONTROL MESSAGE ALLOCATION
                                     0000  7000 ;++
                                     0000  7100 ; FUNCTIONAL DESCRIPTION:
                                     0000  7200 ;
                                     0000  7300 ; NET$ALLOCCON - ALLOCATE CONNECT MESSAGE
                                     0000  7400 ;
                                     0000  7500 ; NET$ALLOCDI - ALLOCATE DISCONNECT INIT MESSAGE
                                     0000  7600 ;
                                     0000  7700 ; NET$ALLOCDC - ALLOCATE DISCONNECT CONFIRM MESSAGE
                                     0000  7800 ;
                                     0000  7900 ; CALLING SEQUENCE:
                                     0000  8000 ;
                                     0000  8100 ;	BSB	NET$ALLOC---
                                     0000  8200 ;
                                     0000  8300 ; INPUT PARAMETERS:
                                     0000  8400 ;
                                     0000  8500 ;	R5 - LOGICAL LINK UCB ADDRESS OR 0
                                     0000  8600 ;
                                     0000  8700 ; IMPLICIT INPUTS:
                                     0000  8800 ;
                                     0000  8900 ;	NONE
                                     0000  9000 ;
                                     0000  9100 ; OUTPUT PARAMETERS:
                                     0000  9200 ;
                                     0000  9300 ;	R0 - LBC=> ALLOCATION FAILURE
                                     0000  9400 ;	     LBS=> ALLOCATION SUCCESS
                                     0000  9500 ;	R1 - LENGTH OF BLOCK ALLOCATED
                                     0000  9600 ;	R3 - ADDRESS OF NEXT BYTE IN BUFFER ALLOCATED
                                     0000  9700 ;	R6 - ADDRESS OF BUFIO BLOCK ALLOCATED
                                     0000  9800 ;
                                     0000  9900 ; IMPLICIT OUTPUTS:
                                     0000 10000 ;
                                     0000 10100 ;	MSG PREAMBLE (UP TO MSGDATA) FILLED IN
                                     0000 10200 ;	R5 - PRESERVED ACROSS CALL
                                     0000 10300 ;
                                     0000 10400 ; COMPLETION CODES:
                                     0000 10500 ;
                                     0000 10600 ;	NONE
                                     0000 10700 ;
                                     0000 10800 ; SIDE EFFECTS:
                                     0000 10900 ;
                                     0000 11000 ;	NONE
                                     0000 11100 ;
                                     0000 11200 ;--
                                     0000 11300
                                     0000 11400 NET$ALLOCCON::
                          18     DD  0000 11500 	PUSHL	#<NET$C_MSGFLG@NET$V_MSGID>!- ; MSGID BYTE
                                     0002 11600 		 <NET$C_CTRLM@NET$V_MSGTYP>!- ; MSGTYP
                                     0002 11700 		 <NET$C_CI@NET$V_SUBTYP> ; ASSUME CI - SUBTYP
            51         7D 8F     9A  0002 11800 	MOVZBL	#NET_CONLTH+NET$C_RTHDROVH,R1 ; SET MSG LTH
                          0E     11  0006 11900 	BRB	ALLOC_CTLMSG		; FINISH IN COMMON CODE
                                     0008 12000
                                     0008 12100 NET$ALLOCDI::
                          38     DD  0008 12200 	PUSHL	#<NET$C_MSGFLG@NET$V_MSGID>!- ; MSGID BYTE
                                     000A 12300 		 <NET$C_CTRLM@NET$V_MSGTYP>!- ; MSGTYP
                                     000A 12400 		 <NET$C_DI@NET$V_SUBTYP> ; SUBTYP
NETALLCTL       - ALLOCATION OF CONTROL MESSAGES                 22-AUG-1978 00:46:25   VAX-11 MACRO X0.3-11               Page   5
X01             NSP CONTROL MESSAGE ALLOCATION                                                                                   (1)

            51            29     9A  000A 12500 	MOVZBL	#NET_DISLTH+NET$C_RTHDROVH,R1 ; SET MSG LTH
                          07     11  000D 12600 	BRB	ALLOC_CTLMSG		; FINISH IN COMMON CODE
                                     000F 12700 NET$ALLOCDC::
            7E         48 8F     98  000F 12800 	CVTBL	#<NET$C_MSGFLG@NET$V_MSGID>!- ; MSGID BYTE
                                     0013 12900 		 <NET$C_CTRLM@NET$V_MSGTYP>!- ; MSGTYP
                                     0013 13000 		 <NET$C_DC@NET$V_SUBTYP>,-(SP) ; SUBTYP
            51            29     9A  0013 13100 	MOVZBL	#NET_DISLTH+NET$C_RTHDROVH,R1 ; SET MSG LTH
                                     0016 13200
                                     0016 13300 ALLOC_CTLMSG:
                          FFE7'  30  0016 13400 	BSBW	NET$ALLOCBUF		; ALLOCATE BFR
                          55     D5  0019 13500 	TSTL	R5			; IS THERE A LOGICAL LINK?
                          04     12  001B 13600 	BNEQ	10$			; IF NEQ YES
                          83     D4  001D 13700 	CLRL	(R3)+			; NO - THERE IS NO SSB
                          04     11  001F 13800 	BRB	20$			; PROCEED
                                     0021 13900 10$:
            83         74 A5     D0  0021 14000 	MOVL	UCB$L_NT_DATSSB(R5),(R3)+ ; USE DATA SUBCHANNEL
                                     0025 14100 20$:
                          83     B4  0025 14200 	CLRW	(R3)+			; MAKE COMPATIBLE WITH DATA MSGS
                                     0027 14300 ;
                                     0027 14400 ; SET UP RTHDR
                                     0027 14500 ;
                                     0027 14600 ; PUT IN RTFLG
                                     0027 14700 ;
            83         46 8F     90  0027 14800 	MOVB	#<NET$C_RTHDR@NET$V_MSGID>!- ; THIS IS A RTHDR
                                     002B 14900 		 <NET$C_PRINRM@NET$V_MPRI>!- ; NORMAL PRIORITY
                                     002B 15000 		 <NET$C_NSPV3@NET$V_EFMT>!-  ; NSP VERSION
                                     002B 15100 		 <1@NET$V_RFMT>,(R3)+	     ; USES ASCII FOR DSTNODE
                                     002B 15200 ;
                                     002B 15300 ; PUT IN DSTNODE
                                     002B 15400 ;
            51       0000'CF     DE  002B 15500 	MOVAL	W^NET$GT_DSTNODE,R1	; PICK UP ADDRESS WHERE NAME IS
                          50     DD  0030 15600 	PUSHL	R0			; SAVE ALLOCATION STATUS
                          FFCB'  30  0032 15700 	BSBW	NET$MOVE_STRING		; MOVE IT IN TO MSG
                                     0035 15800 ;
                                     0035 15900 ; PUT IN SRCNODE
                                     0035 16000 ;
            51       0000'CF     DE  0035 16100 	MOVAL	W^NET$GT_MYNAME,R1	; SET UP FOR MY NAME
                          FFC3'  30  003A 16200 	BSBW	NET$MOVE_STRING		; MOVE IT IN
                          50   8ED0  003D 16300 	POPL	R0			; RESTORE ALLOCATION STATUS
            83            8E     F6  0040 16400 	CVTLB	(SP)+,(R3)+		; PICK UP MSGFLG BYTE
                                 05  0043 16500 	RSB				; DONE
                                     0044 16600
                                     0044 16700 	.END
NETALLCTL       - ALLOCATION OF CONTROL MESSAGES                 22-AUG-1978 00:46:25   VAX-11 MACRO X0.3-11               Page   6
SYMBOL TABLE                                                                                                                     (1)

ALLOC_CTLMSG     00000016 R     04   NET$S_EOM      = 00000001            UCB$B_CM1        0000004A
BIT...         = 00000000            NET$S_FCINT    = 00000002            UCB$B_CM2        0000004B
CXB$B_CODE       0000000B            NET$S_FCMOD    = 00000002            UCB$B_DEVCLASS   00000038
CXB$B_TYPE       0000000A            NET$S_FCOPT    = 00000002            UCB$B_DEVTYPE    00000039
CXB$C_DDCCON   = 00000001            NET$S_INTLS    = 00000001            UCB$B_DIPL       00000052
CXB$C_DDCDAT   = 00000002            NET$S_INTMSG   = 00000001            UCB$B_DX_SCTCNT  000000A6
CXB$C_DDCERR   = 00000004            NET$S_LTYPE    = 00000002            UCB$B_ERTCNT     00000070
CXB$C_DDCRCV   = 00000003            NET$S_MPRI     = 00000002            UCB$B_ERTMAX     00000071
CXB$C_LENGTH     00000018            NET$S_MSGFLG   = 00000005            UCB$B_ESCAPE     0000004B
CXB$C_NSPSTART   0000001A            NET$S_MSGID    = 00000002            UCB$B_FEX        00000076
CXB$K_LENGTH     00000018            NET$S_MSGTYP   = 00000002            UCB$B_FIPL       0000000B
CXB$K_NSPSTART   0000001A            NET$S_REMLFS   = 00000004            UCB$B_LOCSRV     0000003C
CXB$L_BL         00000004            NET$S_RFMT     = 00000001            UCB$B_OFFNDX     00000094
CXB$L_FL         00000000            NET$S_SUBTYP   = 00000003            UCB$B_OFFRTC     00000095
CXB$L_IRP        00000010            NET$V_ACKOPT   = 00000004            UCB$B_REMSRV     0000003D
CXB$L_LINK       00000010            NET$V_BOM      = 00000005            UCB$B_SECTORS    0000003C
CXB$L_SSB        00000014            NET$V_EFMT     = 00000004            UCB$B_SLAVE      00000074
CXB$W_CHANNEL    00000010            NET$V_EOM      = 00000006            UCB$B_SPR        00000075
CXB$W_LENGTH     0000000C            NET$V_FCINT    = 00000002            UCB$B_STATE      00000052
CXB$W_OFFSET     0000000E            NET$V_FCMOD    = 00000000            UCB$B_TRACKS     0000003D
CXB$W_SIZE       00000008            NET$V_FCOPT    = 00000002            UCB$B_TYPE       0000000A
GBL...         = 00000000            NET$V_INTLS    = 00000004            UCB$B_VERTSZ     0000003F
NET$ALLOCBUF     ********   X   04   NET$V_INTMSG   = 00000005            UCB$C_LENGTH     00000074
NET$ALLOCCON     00000000 RG    04   NET$V_LTYPE    = 00000000            UCB$C_LOGLNK   = 00000001
NET$ALLOCDC      0000000F RG    04   NET$V_MPRI     = 00000002            UCB$K_LENGTH     00000074
NET$ALLOCDI      00000008 RG    04   NET$V_MSGFLG   = 00000002            UCB$L_AMB        00000054
NET$C_ACKM     = 00000001            NET$V_MSGID    = 00000000            UCB$L_ASTQBL     00000010
NET$C_ACKOFF   = 00000005            NET$V_MSGTYP   = 00000002            UCB$L_ASTQFL     0000000C
NET$C_CC       = 00000002            NET$V_REMLFS   = 00000004            UCB$L_CPID       0000005C
NET$C_CI       = 00000001            NET$V_RFMT     = 00000006            UCB$L_CRB        00000020
NET$C_CTRLM    = 00000002            NET$V_SUBTYP   = 00000004            UCB$L_DDB        00000024
NET$C_DATAM    = 00000000            NET_CONLTH     = 0000006E            UCB$L_DEVCHAR    00000034
NET$C_DATREQ   = 00000000            NET_DISLTH     = 0000001A            UCB$L_DEVDEPEND  0000003C
NET$C_DC       = 00000004            SSB$B_FCVAL      00000021            UCB$L_DPC        00000080
NET$C_DI       = 00000003            SSB$B_PNDCNT     00000023            UCB$L_DUETIM     0000005C
NET$C_INTREQ   = 00000001            SSB$B_REQCNT     00000022            UCB$L_DX_BFPNT   0000009C
NET$C_LOGLNK   = 00000001            SSB$B_TIPC       00000020            UCB$L_DX_BUF     00000098
NET$C_MAXNSPOVH= 00000018            SSB$B_TYPE       0000000A            UCB$L_DX_RXDB    000000A0
NET$C_MSGFLG   = 00000000            SSB$C_LENGTH     00000024            UCB$L_EMB        00000078
NET$C_NODMSG   = 00000005            SSB$K_LENGTH     00000024            UCB$L_FIRST      00000014
NET$C_NOP      = 00000000            SSB$L_UCB        00000014            UCB$L_FPC        0000000C
NET$C_NSPOVH   = 0000000B            SSB$L_WACKQBL    00000010            UCB$L_FQBL       00000004
NET$C_NSPV3    = 00000000            SSB$L_WACKQFL    0000000C            UCB$L_FQFL       00000000
NET$C_PIGGYBACK= 00008000            SSB$L_XQBL       00000004            UCB$L_FR3        00000010
NET$C_PRINRM   = 00000001            SSB$L_XQFL       00000000            UCB$L_FR4        00000014
NET$C_RTHDR    = 00000002            SSB$M_ACKP     = 00008000            UCB$L_IOQBL      00000044
NET$C_RTHDROVH = 0000000F            SSB$M_NAKP     = 00007000            UCB$L_IOQFL      00000040
NET$GT_DSTNODE   ********   X   04   SSB$S_NAKP     = 00000003            UCB$L_IRP        0000004C
NET$GT_MYNAME    ********   X   04   SSB$V_ACKP     = 0000000F            UCB$L_LINK       0000002C
NET$MOVE_STRING  ********   X   04   SSB$V_NAKP     = 0000000C            UCB$L_LOGADR     00000064
NET$M_BOM      = 00000020            SSB$W_RCVSEGACK  0000001A            UCB$L_MAXBLOCK   00000084
NET$M_EOM      = 00000040            SSB$W_RCVSEGNUM  00000018            UCB$L_MEDIA      0000008C
NET$M_INTLS    = 00000010            SSB$W_SIZE       00000008            UCB$L_NT_DATSSB  00000074
NET$M_INTMSG   = 00000020            SSB$W_XMTSEGACK  0000001E            UCB$L_NT_INTSSB  00000078
NET$S_ACKOPT   = 00000001            SSB$W_XMTSEGNUM  0000001C            UCB$L_OPCNT      00000060
NET$S_BOM      = 00000001            UCB$B_AMOD       00000053            UCB$L_OWNUIC     0000001C
NET$S_EFMT     = 00000002            UCB$B_CEX        00000077            UCB$L_PID        00000028
NETALLCTL       - ALLOCATION OF CONTROL MESSAGES                 22-AUG-1978 00:46:25   VAX-11 MACRO X0.3-11               Page   7
SYMBOL TABLE                                                                                                                     (1)

UCB$L_RQBL       00000004            UCB$V_POWER    = 00000005
UCB$L_RQFL       00000000            UCB$V_PRMMBX   = 00000000
UCB$L_SVAPTE     00000068            UCB$V_SEGFLO   = 00000002
UCB$L_SVPN       00000064            UCB$V_TIM      = 00000000
UCB$L_TTCHAR     0000003C            UCB$V_TIMOUT   = 00000006
UCB$L_VCB        00000030            UCB$V_TT_NOTIF = 00000002
UCB$M_BACKP    = 00000020            UCB$V_TT_TIMO  = 00000001
UCB$M_BSY      = 00000100            UCB$V_UNLOAD   = 0000000C
UCB$M_CANCEL   = 00000008            UCB$V_VALID    = 0000000B
UCB$M_DEADMO   = 00000400            UCB$W_BCNT       0000006E
UCB$M_DELMBX   = 00000002            UCB$W_BCR        00000096
UCB$M_DIAGBUF  = 00000002            UCB$W_BOFF       0000006C
UCB$M_DX_WRITE = 00000008            UCB$W_BUFQUO     00000018
UCB$M_ECC      = 00000001            UCB$W_BYTESTOGO  0000003E
UCB$M_ERLOGIP  = 00000004            UCB$W_CHARGE     0000004A
UCB$M_INT      = 00000002            UCB$W_CYLINDERS  0000003E
UCB$M_INTTYPE  = 00000080            UCB$W_DA         0000008C
UCB$M_JOB      = 00000001            UCB$W_DC         0000008E
UCB$M_MOUNTING = 00000200            UCB$W_DEVBUFSIZ  0000003A
UCB$M_NOCNVRT  = 00000004            UCB$W_DEVSTS     0000005A
UCB$M_NT_BFROVF= 00000004            UCB$W_DIRSEQ     00000088
UCB$M_NT_BREAK = 00000020            UCB$W_DSTADDR    00000018
UCB$M_NT_NAME  = 00000010            UCB$W_DX_BCR     000000A4
UCB$M_ONLINE   = 00000010            UCB$W_EC1        00000090
UCB$M_POWER    = 00000020            UCB$W_EC2        00000092
UCB$M_PRMMBX   = 00000001            UCB$W_ERRCNT     00000072
UCB$M_TIM      = 00000001            UCB$W_FUNC       0000007E
UCB$M_TIMOUT   = 00000040            UCB$W_MB_SEED    FFFFFFFC
UCB$M_TT_NOTIF = 00000004            UCB$W_MSGCNT     00000016
UCB$M_TT_TIMO  = 00000002            UCB$W_MSGMAX     00000014
UCB$M_UNLOAD   = 00001000            UCB$W_NT_CHAN    0000007C
UCB$M_VALID    = 00000800            UCB$W_OFFSET     0000008A
UCB$S_LNKPRI   = 00000002            UCB$W_REFC       00000050
UCB$S_LTYPE    = 00000002            UCB$W_SIZE       00000008
UCB$T_PARTNER    0000000C            UCB$W_SRCADDR    0000001A
UCB$V_BACKP    = 00000005            UCB$W_STS        00000058
UCB$V_BSY      = 00000008            UCB$W_UNIT       00000048
UCB$V_CANCEL   = 00000003            UCB$W_VPROT      0000001A
UCB$V_DEADMO   = 0000000A
UCB$V_DELMBX   = 00000001
UCB$V_DIAGBUF  = 00000001
UCB$V_DX_WRITE = 00000003
UCB$V_ECC      = 00000000
UCB$V_ERLOGIP  = 00000002
UCB$V_INT      = 00000001
UCB$V_INTTYPE  = 00000007
UCB$V_JOB      = 00000000
UCB$V_LNKPRI   = 00000006
UCB$V_LTYPE    = 00000000
UCB$V_MOUNTING = 00000009
UCB$V_MSGACK   = 00000004
UCB$V_MSGFLO   = 00000003
UCB$V_NOCNVRT  = 00000002
UCB$V_NT_BFROVF= 00000002
UCB$V_NT_BREAK = 00000005
UCB$V_NT_NAME  = 00000004
UCB$V_ONLINE   = 00000004
NETALLCTL       - ALLOCATION OF CONTROL MESSAGES                 22-AUG-1978 00:46:25   VAX-11 MACRO X0.3-11               Page   8
PROGRAM SECTION SYNOPSIS                                                                                                         (1)


PROGRAM SECTION SYNOPSIS

.  ABS  .        00000000      00     NOPIC   USR   CON   ABS   LCL NOSHR NOEXE NORD  NOWRT BYTE
. BLANK .        00000000      01     NOPIC   USR   CON   REL   LCL NOSHR   EXE   RD    WRT BYTE
$ABS$            FFFFFFFE      02     NOPIC   USR   CON   ABS   LCL NOSHR   EXE   RD    WRT BYTE
NET_PURE         00000000      03     NOPIC   USR   CON   REL   LCL NOSHR NOEXE   RD  NOWRT BYTE
NET_CONNECT      00000044      04     NOPIC   USR   CON   REL   LCL NOSHR   EXE   RD  NOWRT BYTE


THERE WERE NO ERRORS OR WARNINGS.
17270. BYTES LEFT IN FREE MEMORY POOL.
3552. BYTES OF RECLAIMED MEMORY.
OBJ$:NETALLCTL,LIS$:NETALLCTL/-SP=EXECML$/ML,M1/ML,M2/ML,SRC$:NETALLCTL
42 MLB DIR RDS - 475 GETS TO DEFINE 14 MACROS. 30 INTER. FILE WRITES.
