NETACPDAT       - GLOBAL DATA STORAGE FOR NETACP                 22-AUG-1978 00:46:17   VAX-11 MACRO X0.3-11               Page   0
TABLE OF CONTENTS

   (1)    3400  HISTORY
   (1)    4200  DECLARATIONS
NETACPDAT       - GLOBAL DATA STORAGE FOR NETACP                 22-AUG-1978 00:46:17   VAX-11 MACRO X0.3-11               Page   1
X01                                                                                                                              (1)

                                     0000   100
                                     0000   200 	.TITLE	NETACPDAT - GLOBAL DATA STORAGE FOR NETACP
                                     0000   300 	.IDENT	/X01/
                                     0000   400
                                     0000   500 ;
                                     0000   600 ; COPYRIGHT (C) 1977, 1978
                                     0000   700 ; DIGITAL EQUIPMENT CORPORATION, MAYNARD, MASSACHUSETTS 01754
                                     0000   800 ;
                                     0000   900 ; THIS SOFTWARE IS FURNISHED  UNDER A LICENSE FOR USE ONLY ON A SINGLE
                                     0000  1000 ; COMPUTER  SYSTEM AND  MAY BE  COPIED ONLY WITH  THE INCLUSION OF THE
                                     0000  1100 ; ABOVE COPYRIGHT NOTICE.  THIS SOFTWARE, OR ANY OTHER COPIES THEREOF,
                                     0000  1200 ; MAY NOT BE PROVIDED OR  OTHERWISE MADE AVAILABLE TO ANY OTHER PERSON
                                     0000  1300 ; EXCEPT FOR USE ON SUCH SYSTEM AND TO ONE WHO AGREES TO THESE LICENSE
                                     0000  1400 ; TERMS.  TITLE TO AND  OWNERSHIP OF THE  SOFTWARE  SHALL AT ALL TIMES
                                     0000  1500 ; REMAIN IN DEC.
                                     0000  1600 ;
                                     0000  1700 ; THE INFORMATION IN THIS SOFTWARE IS SUBJECT TO CHANGE WITHOUT NOTICE
                                     0000  1800 ; AND SHOULD  NOT BE CONSTRUED  AS A COMMITMENT  BY DIGITAL  EQUIPMENT
                                     0000  1900 ; CORPORATION.
                                     0000  2000 ;
                                     0000  2100 ; DEC ASSUMES  NO  RESPONSIBILITY  FOR  THE USE OR  RELIABILITY OF ITS
                                     0000  2200 ; SOFTWARE ON EQUIPMENT WHICH IS NOT SUPPLIED BY DEC.
                                     0000  2300
                                     0000  2400 ;++
                                     0000  2500 ; FACILITY:	NETWORK ACP
                                     0000  2600 ;
                                     0000  2700 ; ABSTRACT:
                                     0000  2800 ;	THIS MODULE CONTAINS ALL DATA USED GLOBALLY BY NETACP.
                                     0000  2900 ;
                                     0000  3000 ; ENVIRONMENT:
                                     0000  3100 ;	MODE = KERNEL
                                     0000  3200 ;--
NETACPDAT       - GLOBAL DATA STORAGE FOR NETACP                 22-AUG-1978 00:46:17   VAX-11 MACRO X0.3-11               Page   2
X01             HISTORY                                                                                                          (1)

                                     0000  3400 	.SBTTL	HISTORY
                                     0000  3500 ; AUTHOR:	SCOTT G. DAVIS, CREATION DATE: 10-JUN-77
                                     0000  3600 ;
                                     0000  3700 ; MODIFIED BY:
                                     0000  3800 ;
                                     0000  3900 ;	, : VERSION
                                     0000  4000 ; 01	-
NETACPDAT       - GLOBAL DATA STORAGE FOR NETACP                 22-AUG-1978 00:46:17   VAX-11 MACRO X0.3-11               Page   3
X01             DECLARATIONS                                                                                                     (1)

                                     0000  4200 	.SBTTL	DECLARATIONS
                                     0000  4300
                                     0000  4400 ;
                                     0000  4500 ; INCLUDE FILES
                                     0000  4600 ;
                                     0000  4700
                                     0000  4800 ;
                                     0000  4900 ; MACROS:
                                     0000  5000 ;
                                     0000  5100 ; THE FOLLOWING MACRO DEFINES NETWORK GLOBAL VARIABLES (A LA $DEF)
                                     0000  5200 ;
                                     0000  5300 	.MACRO	DEFV	SYM,ALLOC,SIZ=1
                                     0000  5400 	.IF	NB,SYM
                                     0000  5500 NET$G'ALLOC'_'SYM::
                                     0000  5600 	.ENDC
                                     0000  5700 	.IF	NB,ALLOC
                                     0000  5800 	.BLK'ALLOC	SIZ
                                     0000  5900 	.ENDC
                                     0000  6000 	.ENDM	DEFV
                                     0000  6100
                                     0000  6200 ;
                                     0000  6300 ; EQUATED SYMBOLS:
                                     0000  6400 ;
                                     0000  6500 	$EQULST	NET$C_,GLOBAL,,,<-
                                     0000  6600 		<MAXCIR,8>,-		; MAX NO. OF CONNECT INIT RCVD (CIR) ITEMS
                                     0000  6700 		<CIRNAMLTH,64>,-	; LTH OF A CIR NAME TO BE SAVED
                                     0000  6800 		<LINE_CTRS,8>,-		; NO. OF PHYLK LINE ERROR COUNTERS
                                     0000  6900 >
                                     0000  7000
                                     0000  7100 ;
                                     0000  7200 ; OWN STORAGE:
                                     0000  7300 ;
                                 00000000  7400 	.PSECT	NET_IMPURE,NOEXE
                                     0000  7500 ;
                                     0000  7600 ; STORAGE FOR MESSAGE PROCESSING
                                     0000  7700 ;
                                     0000  7800 	DEFV	USR_STAT,Q		; I/O STATUS BLOCK TO BE RETURNED
                                     0008  7900 	DEFV	IMAGE,Q			; DESCRIPTOR FOR NAMBLK AND QNCP
                                     0010  8000 	DEFV	DEALLOC,L		; ADDRESS OF BUFFER TO BE DEALLOCATED
                                     0014  8100 	DEFV	FRONTEND,L		; NDB ADDRESS OF INTERCEPT NODE
                                     0018  8200 	DEFV	Q_HEAD,L		; ACP QUEUE HEAD (IN AQB)
                                     001C  8250 	DEFV	TMP_SEG,W		; HOLD DATA SEGMENT SIZE
                                     001E  8300 ;
                                     001E  8400 ; SRCADDR AND DSTADDR MUST BE TOGETHER IN ORDER, SO THAT XMTDC CAN USE A LONGWORD
                                     001E  8500 ;
                                     001E  8600 	DEFV	SRCADDR,W		; SOURCE LOGICAL LINK ADDRESS
                                     0020  8700 	DEFV	DSTADDR,W		; DESTINATION LOGICAL LINK ADDRESS
                                     0022  8800 	DEFV	CHANNEL,W		; ASSOCIATED PHYLK CHANNEL
                                     0024  8900 	DEFV	NULLST,B		; FOR TRANSITIONS WITH NO UCB OR NDB
                                     0025  9000
                                     0025  9100 ;
                                     0025  9200 ; STORAGE FOR PERFORMANCE/ERROR COUNTERS
                                     0025  9300 ;
                           0000002D  0025  9400 NET$GQ_ZTIMEN::	.BLKQ	1		; TIME NODE COUNTERS WERE LAST ZEROED
                                     002D  9410 ;
                                     002D  9420 ; COUNTERS MUST BE TOGETHER IN ORDER
                                     002D  9430 ;
NETACPDAT       - GLOBAL DATA STORAGE FOR NETACP                 22-AUG-1978 00:46:17   VAX-11 MACRO X0.3-11               Page   4
X01             DECLARATIONS                                                                                                     (1)

                                     002D  9500
                                     002D  9600 NET$AW_STARTNCT::			; REF LABEL - MUST PRECEDE NODE COUNTERS
                           0000002F  002D  9700 NET$GW_MSGXMT::	.BLKW	1		; NO. OF MSGS XMITTED
                           00000031  002F  9800 NET$GW_MSGRCV::	.BLKW	1		; NO. OF MSGS RCVD
                           00000033  0031  9900 NET$GW_DISCARD:: .BLKW	1		; NO. OF EXTRANEOUS MSGS
                           00000035  0033 10000 NET$GW_RFMTERRS::	.BLKW	1	; ROUTING FORMAT ERRORS
                           00000037  0035 10100 NET$GW_OFMTERRS::	.BLKW	1	; OTHER FORMAT ERRORS
                           00000039  0037 10200 NET$GW_RSRCERRS::	.BLKW	1	; RESOURCE ERRORS
                           0000003B  0039 10300 NET$GW_OKINITS::	.BLKW	1	; NO. OF SUCCESSFUL INITS
                           0000003D  003B 10400 NET$GW_NGINITS::	.BLKW	1	; NO. OF UNSUCCESSFUL INITS
                           0000003F  003D 10500 NET$GW_ACTLNKS::	.BLKW	1	; NO. OF ACTIVE LINKS
                           00000041  003F 10600 NET$GW_HIGHLNKS::	.BLKW	1	; HIGH WATER MARK OF LINKS
                           00000043  0041 10700 NET$GW_OUTCI::		.BLKW	1	; NO. OF OUTBOUND CI'S
                           00000045  0043 10800 NET$GW_INCI::	.BLKW	1		; NO. OF INBOUND CI'S
                                     0045 10900 NET$AW_ENDNCT::				; REFERENCE LABEL - MUST FOLLOW COUNTERS
                                     0045 11000
                                     0045 11100 NET$AW_STARTLCT::			; REF LABEL MUST PRECEDE LINE COUNTERS
                           00000055  0045 11200 		.BLKW	NET$C_LINE_CTRS	; RESERVE SPACE
                           00000059  0055 11300 		.BLKW	2		; SPACE FOR RCV AND XMT COUNTERS
                                     0059 11400 NET$AW_ENDLCT::				; REF LABEL - MUST FOLLOW LINE COUNTERS
                                     0059 11500
                                     0059 11600 ;
                                     0059 11700 ; MISCELLANEOUS STORAGE
                                     0059 11800 ;
                           00000000' 0059 11900 NET$GL_NODLST::	.LONG	NET$AB_LOCALNDB ; HEAD OF NDB LINKED LIST
                           00000065  005D 12000 NET$GT_DSTNODE:: .BLKB	8		; I-6 FIELD WITH SLOP
                           00000065' 0065 12100 NET$GL_NSPQFL::	.LONG	.		; QUEUE HEAD FOR PHYLK/NSP INTERFACE
                           00000065' 0069 12200 		.LONG	NET$GL_NSPQFL	; BACK LINK
                                 01  006D 12300 NET$GB_LINK_IDX::	.BYTE	1	; INDEX FOR LOGICAL LINK ASSIGNMENT
                                 00  006E 12400 NET$GB_AST_FLAG::	.BYTE	0	; 1=> NETTRN MUST DECLARE AST FOR LOCAL OPERATION
                           00000073  006F 12500 NET$GQ_UTLDESC::	.BLKL	1	; UTILITY BUFFER DESCRIPTOR
                           00000077' 0073 12600 		.LONG	NET$AB_UTLBUF	;
                           00000177  0077 12700 NET$AB_UTLBUF::	.BLKB	256		; UTILITY BUFFER
                           000000F7  0177 12800 NET$AB_ATTENBUF == NET$AB_UTLBUF+128	; ATTENTION BUFFER
                                     0177 12900
                                     0177 13000 ;
                                     0177 13100 ; THE FOLLOWING ARRAY OF ARRAYS CONTAIN DATA PERTAINING TO RECEPTION OF NSP
                                     0177 13200 ; CONNECT INITIATE MESSAGES (CIR INFO).  THEY ARE INDEXED BY A NUMBER PASSED
                                     0177 13300 ; TO A CONNECTEE WHEN ITS PROCESS IS CREATED.  AN INDEX OF ZERO (0) MEANS
                                     0177 13400 ; THAT A CONNECT INITIATE SEQUENCE IS REQUIRED: ANY OTHER NUMBER MEANS THAT
                                     0177 13500 ; A CONNECT CONFIRM OR REJECT SEQUENCE IS REQUIRED.
                                     0177 13600 ;
                           00000197  0177 13700 NET$AL_CIRPID::	.BLKL	NET$C_MAXCIR	; PIDS - 0=>INDEX IS FREE
                           000001A7  0197 13800 NET$AW_CIRDST::	.BLKW	NET$C_MAXCIR	; PARTNER LINK ADDRESSES
                           000001B7  01A7 13900 NET$AW_CIRCHN::	.BLKW	NET$C_MAXCIR	; LINK CHANNEL NUMBERS
                           000001C7  01B7 14000 NET$AW_CIRSEG::	.BLKW	NET$C_MAXCIR	; LINK SEGMENT SIZES
                           000001CF  01C7 14100 NET$AB_CIRSRV::	.BLKB	NET$C_MAXCIR	; LINK SERVICES
                           0000020F  01CF 14200 NET$AT_CIRNOD::	.BLKQ	NET$C_MAXCIR	; SEQ NO.(BYTE)+NODENAME(7 BYTES)
                           0000024F  020F 14300 NET$AQ_CIRNAMDS:: .BLKQ	NET$C_MAXCIR	; SYS$NET NAME DESCRIPTORS
                           0000044F  024F 14400 NET$AT_CIRNAM::	.BLKB	NET$C_MAXCIR*NET$C_CIRNAMLTH ; SYS$NET BUFFERS
                                     044F 14500
                                     044F 14600 	.END
NETACPDAT       - GLOBAL DATA STORAGE FOR NETACP                 22-AUG-1978 00:46:17   VAX-11 MACRO X0.3-11               Page   5
SYMBOL TABLE                                                                                                                     (1)

GBL...         = 00000001
NET$AB_ATTENBUF= 000000F7 RG    02
NET$AB_CIRSRV    000001C7 RG    02
NET$AB_LOCALNDB  ********   X   02
NET$AB_UTLBUF    00000077 RG    02
NET$AL_CIRPID    00000177 RG    02
NET$AQ_CIRNAMDS  0000020F RG    02
NET$AT_CIRNAM    0000024F RG    02
NET$AT_CIRNOD    000001CF RG    02
NET$AW_CIRCHN    000001A7 RG    02
NET$AW_CIRDST    00000197 RG    02
NET$AW_CIRSEG    000001B7 RG    02
NET$AW_ENDLCT    00000059 RG    02
NET$AW_ENDNCT    00000045 RG    02
NET$AW_STARTLCT  00000045 RG    02
NET$AW_STARTNCT  0000002D RG    02
NET$C_CIRNAMLTH= 00000040  G
NET$C_LINE_CTRS= 00000008  G
NET$C_MAXCIR   = 00000008  G
NET$GB_AST_FLAG  0000006E RG    02
NET$GB_LINK_IDX  0000006D RG    02
NET$GB_NULLST    00000024 RG    02
NET$GL_DEALLOC   00000010 RG    02
NET$GL_FRONTEND  00000014 RG    02
NET$GL_NODLST    00000059 RG    02
NET$GL_NSPQFL    00000065 RG    02
NET$GL_Q_HEAD    00000018 RG    02
NET$GQ_IMAGE     00000008 RG    02
NET$GQ_USR_STAT  00000000 RG    02
NET$GQ_UTLDESC   0000006F RG    02
NET$GQ_ZTIMEN    00000025 RG    02
NET$GT_DSTNODE   0000005D RG    02
NET$GW_ACTLNKS   0000003D RG    02
NET$GW_CHANNEL   00000022 RG    02
NET$GW_DISCARD   00000031 RG    02
NET$GW_DSTADDR   00000020 RG    02
NET$GW_HIGHLNKS  0000003F RG    02
NET$GW_INCI      00000043 RG    02
NET$GW_MSGRCV    0000002F RG    02
NET$GW_MSGXMT    0000002D RG    02
NET$GW_NGINITS   0000003B RG    02
NET$GW_OFMTERRS  00000035 RG    02
NET$GW_OKINITS   00000039 RG    02
NET$GW_OUTCI     00000041 RG    02
NET$GW_RFMTERRS  00000033 RG    02
NET$GW_RSRCERRS  00000037 RG    02
NET$GW_SRCADDR   0000001E RG    02
NET$GW_TMP_SEG   0000001C RG    02


PROGRAM SECTION SYNOPSIS

.  ABS  .        00000000      00     NOPIC   USR   CON   ABS   LCL NOSHR NOEXE NORD  NOWRT BYTE
. BLANK .        00000000      01     NOPIC   USR   CON   REL   LCL NOSHR   EXE   RD    WRT BYTE
NET_IMPURE       0000044F      02     NOPIC   USR   CON   REL   LCL NOSHR NOEXE   RD    WRT BYTE


NETACPDAT       - GLOBAL DATA STORAGE FOR NETACP                 22-AUG-1978 00:46:17   VAX-11 MACRO X0.3-11               Page   6
PROGRAM SECTION SYNOPSIS                                                                                                         (1)

THERE WERE NO ERRORS OR WARNINGS.
26550. BYTES LEFT IN FREE MEMORY POOL.
OBJ$:NETACPDAT,LIS$:NETACPDAT/-SP=EXECML$/ML,M1/ML,M2/ML,SRC$:NETACPDAT
15 MLB DIR RDS - 31 GETS TO DEFINE 4 MACROS. 2 INTER. FILE WRITES.
