NETCONFIG       - LOCAL CONFIGURATION                            22-AUG-1978 00:49:37   VAX-11 MACRO X0.3-11               Page   0
TABLE OF CONTENTS

   (1)    3400  HISTORY
   (1)    4200  DECLARATIONS
   (1)   10800  NODE DESCRIPTOR BLOCK
NETCONFIG       - LOCAL CONFIGURATION                            22-AUG-1978 00:49:37   VAX-11 MACRO X0.3-11               Page   1
X01                                                                                                                              (1)

                                     0000   100
                                     0000   200 	.TITLE	NETCONFIG - LOCAL CONFIGURATION
                                     0000   300 	.IDENT	/X01/
                                     0000   400
                                     0000   500 ;
                                     0000   600 ; COPYRIGHT (C) 1977, 1978
                                     0000   700 ; DIGITAL EQUIPMENT CORPORATION, MAYNARD, MASSACHUSETTS 01754
                                     0000   800 ;
                                     0000   900 ; THIS SOFTWARE IS FURNISHED  UNDER A LICENSE FOR USE ONLY ON A SINGLE
                                     0000  1000 ; COMPUTER  SYSTEM AND  MAY BE  COPIED ONLY WITH  THE INCLUSION OF THE
                                     0000  1100 ; ABOVE COPYRIGHT NOTICE.  THIS SOFTWARE, OR ANY OTHER COPIES THEREOF,
                                     0000  1200 ; MAY NOT BE PROVIDED OR  OTHERWISE MADE AVAILABLE TO ANY OTHER PERSON
                                     0000  1300 ; EXCEPT FOR USE ON SUCH SYSTEM AND TO ONE WHO AGREES TO THESE LICENSE
                                     0000  1400 ; TERMS.  TITLE TO AND  OWNERSHIP OF THE  SOFTWARE  SHALL AT ALL TIMES
                                     0000  1500 ; REMAIN IN DEC.
                                     0000  1600 ;
                                     0000  1700 ; THE INFORMATION IN THIS SOFTWARE IS SUBJECT TO CHANGE WITHOUT NOTICE
                                     0000  1800 ; AND SHOULD  NOT BE CONSTRUED  AS A COMMITMENT  BY DIGITAL  EQUIPMENT
                                     0000  1900 ; CORPORATION.
                                     0000  2000 ;
                                     0000  2100 ; DEC ASSUMES  NO  RESPONSIBILITY  FOR  THE USE OR  RELIABILITY OF ITS
                                     0000  2200 ; SOFTWARE ON EQUIPMENT WHICH IS NOT SUPPLIED BY DEC.
                                     0000  2300
                                     0000  2400 ;++
                                     0000  2500 ; FACILITY:	NETWORK ACP
                                     0000  2600 ;
                                     0000  2700 ; ABSTRACT:
                                     0000  2800 ;	THIS MODULE CONTAINS THE CONTROL BLOCKS FOR THE LOCAL NODE.
                                     0000  2900 ;
                                     0000  3000 ; ENVIRONMENT:
                                     0000  3100 ;	MODE = KERNEL
                                     0000  3200 ;--
NETCONFIG       - LOCAL CONFIGURATION                            22-AUG-1978 00:49:37   VAX-11 MACRO X0.3-11               Page   2
X01             HISTORY                                                                                                          (1)

                                     0000  3400 	.SBTTL	HISTORY
                                     0000  3500 ; AUTHOR:	SCOTT G. DAVIS, CREATION DATE: 24-APR-77
                                     0000  3600 ;
                                     0000  3700 ; MODIFIED BY:
                                     0000  3800 ;
                                     0000  3900 ;	, : VERSION
                                     0000  4000 ; 01	-
NETCONFIG       - LOCAL CONFIGURATION                            22-AUG-1978 00:49:37   VAX-11 MACRO X0.3-11               Page   3
X01             DECLARATIONS                                                                                                     (1)

                                     0000  4200 	.SBTTL	DECLARATIONS
                                     0000  4300 ;
                                     0000  4400 ; INCLUDE FILES:
                                     0000  4500 ;
                                     0000  4600 	$DYNDEF
                                     0000  4700 	$NDBDEF
                                     0000  4800 	$OBJDEF
                                     0000  4900 	$PRVDEF
                                     0000  5000 	$UCBDEF
                                     0000  5100
                                     0000  5200 ;
                                     0000  5300 ; MACROS:
                                     0000  5400 ;
                                     0000  5500
                                     0000  5600 	.MACRO CSTRNG	TEXT,MAXLTH
                                     0000  5700 	.NCHR	LTH...,<TEXT>
                                     0000  5800 	.BYTE	LTH...
                                     0000  5900 	.ASCII	%TEXT%			; STRING
                                     0000  6000 	.IF	NB MAXLTH
                                     0000  6100 	.IF	LT,MAXLTH-LTH...
                                     0000  6200 	.ERROR	;INVALID MAX LTH;
                                     0000  6300 	.ENDC
                                     0000  6400 	.BLKB	MAXLTH-LTH...
                                     0000  6500 	.ENDC
                                     0000  6600 	.ENDM	CSTRNG
                                     0000  6700
                                     0000  6800 ;
                                     0000  6900 ; THIS MACRO MAKES UP TABLE ENTRIES FOR OBJECTTYPE NAMES
                                     0000  7000 ; ENTRIES ARE OF THE FORM:
                                     0000  7100 ;	OBJTYPE (BINARY BYTE),OBJECTNAME (COUNTED STRING)
                                     0000  7200 ;
                                     0000  7300 	.MACRO	OBJVAL	NAME,VALUE,FILE,PRIV
                                     0000  7400 	CSTRNG	<NAME>,8		; OBJECT NAME, MAX LTH
                                     0000  7500 	.BYTE	VALUE
                                     0000  7600 	CSTRNG	<FILE>,13		; ASSOCIATED FILE NAME
                                     0000  7700 	X=PRIV
                                     0000  7800 	.QUAD	X			; PRIVILEGE MASK
                                     0000  7900
                                     0000  8000 	.ENDM	OBJVAL
                                     0000  8100
                                     0000  8200 ;
                                     0000  8300 ; EQUATED SYMBOLS:
                                     0000  8400 ;
                                     0000  8500 	$EQULST	NET$C_,GLOBAL,,,<-
                                     0000  8600 		<MAXNAME,6>,-		; MAX LTH OF A NODE NAME
                                     0000  8700 		<MAXSYSVER,32>,-	; MAX LTH OF SYSVER FIELD
                                     0000  8800 		<PASSWLTH,8>,-		; LTH OF A PASSWORD
                                     0000  8900 		<NAMBLKSIZ,16>,-	; SIZE OF NAME BLOCK FOR INBOUND CI'S
                                     0000  9000 		<MAXLNK,255>,-		; ABSOLUTE MAX LOGICAL LINKS
                                     0000  9100 >
                           00000020  0000  9200 NET_C_MAXNAM=32				; MAX NO. OF INBOUND CONNECT NAMES
                           000000C0  0000  9300 NET_C_NSPSIZE=192			; MAX NSP DATA SEG SIZE - TEMP UNTIL DATA BASE I/O
                           0000002B  0000  9400 NET_C_ACC_LTH=43			; LTH OF AN ACCESS FIELD
                                     0000  9500
                                     0000  9600 ;
                                     0000  9700 ; OWN STORAGE:
                                     0000  9800 ;
NETCONFIG       - LOCAL CONFIGURATION                            22-AUG-1978 00:49:37   VAX-11 MACRO X0.3-11               Page   4
X01             DECLARATIONS                                                                                                     (1)

                                 00000000  9900 	.PSECT	NET_PURE,NOWRT,NOEXE
                                     0000 10000
                                     0000 10100 OBJ_NAMES:				; LIST OF OBJECT NAME/VALUE PAIRS
                                     0000 10200 	OBJVAL	<TASK>,0,<>,0		; STANDARD TASK
                                     0020 10300 	OBJVAL	<NICE>,<^O23>,<NICE>,<<1@PRV$V_OPER>!<1@PRV$V_DIAGNOSE>> ; NICE
                                     0040 10400
                           00000002  0040 10500 NOBJ=<.-OBJ_NAMES>/OBJ$C_SIZE
                                 00000000 10600 	.PSECT	NET_IMPURE,WRT,NOEXE
                                     0000 10700
                                     0000 10800 .SBTTL	NODE DESCRIPTOR BLOCK
                                     0000 10900
                                     0000 11000 ;
                                     0000 11100 ; STARRED ITEMS ARE NETGENABLE
                                     0000 11200 ;
                                     0000 11300 LOCAL:
                                     0000 11400 NET$AB_LOCALNDB::			; REF LABEL
                           00000000  0000 11500 	.LONG	0			; LINK TO NEXT NDB
                           00000000  0004 11600 	.LONG	0			; LINE NAME
                               00BC' 0008 11700 	.WORD	LOCALEND-LOCAL		; SIZE OF THIS BLOCK (NDB$C_LENGTH)
                                 1C' 000A 11800 	.BYTE	DYN$C_NDB		; TYPE OF THIS CONTROL BLOCK
                                 00  000B 11900 	.BYTE	0			; * NO. OF PREALLOCATED BUFFERS
                                     000C 12000 NET$GQ_DUMMYAST::			; PHYLK AST SETUP
                               0000  000C 12100 	.WORD	0			; ENTRY MASK
                                 16  000E 12200 	.BYTE	^X16			; JSB
                                 9F  000F 12300 	.BYTE	^X9F			; ABSOLUTE (@#)
                           00000000' 0010 12400 	.LONG	NET$PHYLK_SERV		; SERVICE ROUTINE ADDRESS
                               0000  0014 12500 	.WORD	0			; PHYLK CHANNEL NUMBER
                                 00' 0016 12600 	.BYTE	NET$C_ST_ON		; STATE (NSP INIT)
                                 00  0017 12700 NET$GB_MYSTATUS::	.BYTE	0	; STATUS
                               0082  0018 12800 NET$GW_MYADDR::	.WORD	^O202		; *  NETWORK NODE ADDRESS - DUMMY
                                     001A 12900 NET$GT_MYNAME::	CSTRNG	<DUMMY>,6	; * NAME OF LOCAL NODE
                                 00  0021 13000 	.BYTE	0			; NO FUNCTIONS SUPPORTED
                               00C0  0022 13100 	.WORD	NET_C_NSPSIZE		; MAX LOCAL NSP MSG BLOCK SIZE
                               00C0  0024 13200 	.WORD	NET_C_NSPSIZE		; MAX NSP MSG SIZE
                               00FF  0026 13300 NET$GW_MAXLNK::	.WORD	NET$C_MAXLNK	; *  MAX NO. OF INBOUND LINKS
                           00 01 03  0028 13400 NET$GB_MYRTEVER::	.BYTE	3,1,0	; NSP ROUTING VERSION
                           00 01 03  002B 13500 NET$GB_MYCOMVER::	.BYTE	3,1,0	; COMM ROUTING VERSION
                                     002E 13600 NET$GT_MYSYSTEM::
                                 17' 002E 13700 	.BYTE	ENDSYS-STARTSYS
                           0000002F  002F 13800 STARTSYS=.
65 73 61 42 20 53 4D 56 2F 58 41 56  002F 13900 	.ASCII	'VAX/VMS Base Level '
               20 6C 65 76 65 4C 20  003B
                           00000000' 0042 14000 	.LONG	SYS$K_VERSION
                           00000046  0046 14100 ENDSYS=.
                           0000004F  0046 14200 	.BLKB	NET$C_MAXSYSVER-<ENDSYS-STARTSYS>
                                 00  004F 14300 	.BYTE	0			; INFINITE CONNECT TIMEOUT
                                 00  0050 14400 	.BYTE	0			; NO NON-PRIVILEGED ACCESS INFO
                           0000007C  0051 14500 	.BLKB	43			; PAD TO MAXIMUM
                                 03  007C 14600 	.BYTE	3			; NO PRIVILEGED ACCESS INFO
                           000000A8  007D 14700 	.BLKB	43			; PAD TO MAXIMUM
                               0000  00A8 14800 	.WORD	0			; * PREALLOCATED BUFFER SIZE
                               0000  00AA 14900 	.WORD	0			; * LINE CHARACTERISTICS
                           000000B4  00AC 15000 	.BLKQ	1			; TIME LINE COUNTERS ZEROED
                               0000  00B4 15100 	.WORD	0			; RCVBLKS
                               0000  00B6 15200 	.WORD	0			; XMTBLKS
                               00C0  00B8 15233 	.WORD	NET_C_NSPSIZE		; MAX REMOTE NSP MSG BLOCK SIZE
                               00C0  00BA 15266 	.WORD	NET_C_NSPSIZE		; MAX REMOTE NSP MSG SIZE
NETCONFIG       - LOCAL CONFIGURATION                            22-AUG-1978 00:49:37   VAX-11 MACRO X0.3-11               Page   5
X01             NODE DESCRIPTOR BLOCK                                                                                            (1)

                           000000BC  00BC 15300 LOCALEND=.
                                     00BC 15400
                                     00BC 15500 	ASSUME NDB$C_LENGTH-LOCALEND+LOCAL EQ 0
                                     00BC 15600
                           000004B8  00BC 15700 NET$AL_UCBVCT:: .BLKL	NET$C_MAXLNK	; VECTOR OF LINK STATUS BLOCK (UCB) ADDRESSES
                           000004B8  04B8 15800 NET$AL_UCBVEND==.
                                     04B8 15900
                           000005B7  04B8 16000 NET$AB_LNKSEQ::	.BLKB	NET$C_MAXLNK	; VECTOR OF HIGH ORDER LINK SEQ. NOS.
                                     05B7 16100
                                     05B7 16200 NET$AL_NAMBLKS::			; VECTOR OF NAME BLOCKS FOR INBOUND CI'S
                                     05B7 16300 ;
                                     05B7 16400 ;	STRUCTURE OF A NAME BLOCK:
                                     05B7 16500 ;
                                     05B7 16600 ;	UCB		L (0 => EMPTY SLOT)
                                     05B7 16700 ;	PID		L
                                     05B7 16800 ;	NAMLTH		W
                                     05B7 16900 ;	NAME		6
                                     05B7 17000 ;
                           000007B7  05B7 17100 	.BLKB	<NET_C_MAXNAM*NET$C_NAMBLKSIZ>
                           000007A7  07B7 17200 NET$AL_NAMBLKE==.-NET$C_NAMBLKSIZ	; ADDRESS OF LAST NAMBLK FOR ACBL INST
                                     07B7 17300 ;
                                     07B7 17400 ; THE FOLLOWING ITEMS ARE DEFINED AT "SET STATE LOCAL ON" TIME
                                     07B7 17500 ;
                                     07B7 17600 ; NOTE:	NET$GL_OBJNAMES AND NET$GL_REMOTES MUST BE TOGETHER AND IN THAT ORDER
                                     07B7 17700 ;	SO THAT THE $EXPREG SERVICE WILL WORK PROPERLY.
                                     07B7 17800 ;
                           00000000' 07B7 17900 NET$GL_OBJNAMES::	.LONG	OBJ_NAMES ; PTR TO OBJECT NAME LIST
                           00000000  07BB 18000 NET$GL_REMOTES::	.LONG	0	; NONE DEFINED YET
                           00000002  07BF 18100 NET$GL_OBJCOUNT::	.LONG	NOBJ	; NO. OF OBJECTS
                           00000000  07C3 18200 NET$GL_RMTCOUNT::	.LONG	0	; NO REMOTES YET
                           00000000  07C7 18300 NET$GL_PAGCNT::		.LONG	0	; PAGCNT FOR $CNTREG AND $EXPREG
                                     07CB 18400
                                     07CB 18500 	.END
NETCONFIG       - LOCAL CONFIGURATION                            22-AUG-1978 00:49:37   VAX-11 MACRO X0.3-11               Page   6
SYMBOL TABLE                                                                                                                     (1)

BIT...         = 00000000            NDB$C_MAINT    = 00000004            NET$GL_PAGCNT    000007C7 RG    04
DYN$C_ACB      = 00000002            NDB$C_MSG_DCHK = 00000009            NET$GL_REMOTES   000007BB RG    04
DYN$C_ADP      = 00000001            NDB$C_MSG_DOWN = 00000003            NET$GL_RMTCOUNT  000007C3 RG    04
DYN$C_AQB      = 00000003            NDB$C_MSG_DSRCH= 00000007            NET$GQ_DUMMYAST  0000000C RG    04
DYN$C_BRDCST   = 0000001A            NDB$C_MSG_LOOPB= 00000008            NET$GT_MYNAME    0000001A RG    04
DYN$C_BUFIO    = 00000013            NDB$C_MSG_MAINT= 00000002            NET$GT_MYSYSTEM  0000002E RG    04
DYN$C_CEB      = 00000004            NDB$C_MSG_NGINI= 00000004            NET$GW_MAXLNK    00000026 RG    04
DYN$C_CRB      = 00000005            NDB$C_MSG_OKINI= 00000005            NET$GW_MYADDR    00000018 RG    04
DYN$C_CXB      = 0000001B            NDB$C_MSG_SHUT = 00000006            NET$PHYLK_SERV   ********   X   04
DYN$C_DDB      = 00000006            NDB$C_MSG_START= 00000001            NET_C_ACC_LTH  = 0000002B
DYN$C_DPT      = 0000001E            NDB$C_OFF      = 00000001            NET_C_MAXNAM   = 00000020
DYN$C_FCB      = 00000007            NDB$C_ON       = 00000000            NET_C_NSPSIZE  = 000000C0
DYN$C_FRK      = 00000008            NDB$C_SHUT     = 00000002            NOBJ           = 00000002
DYN$C_GSD      = 00000015            NDB$K_LENGTH     000000BC            OBJ$B_FILE       0000000A
DYN$C_IDB      = 00000009            NDB$L_LINE_NAME  00000004            OBJ$B_NAME       00000000
DYN$C_IRP      = 0000000A            NDB$L_NEXT       00000000            OBJ$B_NUMBER     00000009
DYN$C_JPB      = 0000001F            NDB$M_CTL_LOOP = 00000008            OBJ$C_FILE     = 00000000
DYN$C_KFH      = 00000026            NDB$M_LOOPBACK = 00000001            OBJ$C_SIZE       00000020
DYN$C_KFI      = 00000018            NDB$M_OFF      = 00000002            OBJ$K_SIZE       00000020
DYN$C_LOG      = 0000000B            NDB$M_SHUT     = 00000004            OBJ$Q_PRIV       00000018
DYN$C_MTL      = 00000019            NDB$Q_AST        0000000C            OBJ$T_FILE       0000000B
DYN$C_MVL      = 00000016            NDB$Q_ZEROTIME   000000AC            OBJ$T_NAME       00000001
DYN$C_NDB      = 0000001C            NDB$T_NAME       0000001A            OBJ_NAMES        00000000 R     03
DYN$C_NET      = 00000017            NDB$T_SYSVER     0000002E            PRV$V_ALLSPOOL = 00000004
DYN$C_PBH      = 00000020            NDB$V_CTL_LOOP = 00000003            PRV$V_BUGCHK   = 00000017
DYN$C_PCB      = 0000000C            NDB$V_LOOPBACK = 00000000            PRV$V_CMEXEC   = 00000001
DYN$C_PDB      = 00000021            NDB$V_OFF      = 00000001            PRV$V_CMKRNL   = 00000000
DYN$C_PFL      = 00000023            NDB$V_SHUT     = 00000002            PRV$V_DETACH   = 00000005
DYN$C_PIB      = 00000022            NDB$W_BLKSIZE    00000022            PRV$V_DIAGNOSE = 00000006
DYN$C_PQB      = 0000000D            NDB$W_BUFSIZE    000000A8            PRV$V_EXQUOTA  = 00000013
DYN$C_PTR      = 00000025            NDB$W_CHANNEL    00000014            PRV$V_GROUP    = 00000008
DYN$C_RVT      = 0000000E            NDB$W_CHAR       000000AA            PRV$V_GRPNAM   = 00000003
DYN$C_SFT      = 00000024            NDB$W_HISBLKSIZ  000000B8            PRV$V_LOG_IO   = 00000007
DYN$C_SSB      = 0000001D            NDB$W_HISNSPSIZ  000000BA            PRV$V_MOUNT    = 00000011
DYN$C_TQE      = 0000000F            NDB$W_MAXLNK     00000026            PRV$V_NETMBX   = 00000014
DYN$C_TYPAHD   = 00000014            NDB$W_NODEADDR   00000018            PRV$V_NOACNT   = 00000009
DYN$C_UCB      = 00000010            NDB$W_NSPSIZE    00000024            PRV$V_OPER     = 00000012
DYN$C_VCB      = 00000011            NDB$W_RCVBLKS    000000B4            PRV$V_PHY_IO   = 00000016
DYN$C_WCB      = 00000012            NDB$W_SIZE       00000008            PRV$V_PRMCEB   = 0000000A
ENDSYS         = 00000046 R     04   NDB$W_XMTBLKS    000000B6            PRV$V_PRMGBL   = 00000018
GBL...         = 00000001            NET$AB_LNKSEQ    000004B8 RG    04   PRV$V_PRMMBX   = 0000000B
LOCAL            00000000 R     04   NET$AB_LOCALNDB  00000000 RG    04   PRV$V_PSWAPM   = 0000000C
LOCALEND       = 000000BC R     04   NET$AL_NAMBLKE = 000007A7 RG    04   PRV$V_SETPRI   = 0000000D
LTH...         = 00000005            NET$AL_NAMBLKS   000005B7 RG    04   PRV$V_SETPRV   = 0000000E
NDB$B_COMMVER    0000002B            NET$AL_UCBVCT    000000BC RG    04   PRV$V_SYSGBL   = 00000019
NDB$B_CONNTMO    0000004F            NET$AL_UCBVEND = 000004B8 RG    04   PRV$V_SYSNAM   = 00000002
NDB$B_FUNC       00000021            NET$C_MAXLNK   = 000000FF  G         PRV$V_TMPMBX   = 0000000F
NDB$B_NONPRVACC  00000050            NET$C_MAXNAME  = 00000006  G         PRV$V_VOLPRO   = 00000015
NDB$B_NUMBUF     0000000B            NET$C_MAXSYSVER= 00000020  G         PRV$V_WORLD    = 00000010
NDB$B_PRVACC     0000007C            NET$C_NAMBLKSIZ= 00000010  G         STARTSYS       = 0000002F R     04
NDB$B_RTEVER     00000028            NET$C_PASSWLTH = 00000008  G         SYS$K_VERSION    ********   X   04
NDB$B_STATE      00000016            NET$C_ST_ON      ********   X   04   UCB$B_AMOD       00000053
NDB$B_STATUS     00000017            NET$GB_MYCOMVER  0000002B RG    04   UCB$B_CEX        00000077
NDB$B_TYPE       0000000A            NET$GB_MYRTEVER  00000028 RG    04   UCB$B_CM1        0000004A
NDB$C_CTL_LOOP = 00000005            NET$GB_MYSTATUS  00000017 RG    04   UCB$B_CM2        0000004B
NDB$C_LENGTH     000000BC            NET$GL_OBJCOUNT  000007BF RG    04   UCB$B_DEVCLASS   00000038
NDB$C_LOOP     = 00000003            NET$GL_OBJNAMES  000007B7 RG    04   UCB$B_DEVTYPE    00000039
NETCONFIG       - LOCAL CONFIGURATION                            22-AUG-1978 00:49:37   VAX-11 MACRO X0.3-11               Page   7
SYMBOL TABLE                                                                                                                     (1)

UCB$B_DIPL       00000052            UCB$L_TTCHAR     0000003C            UCB$V_TIMOUT   = 00000006
UCB$B_DX_SCTCNT  000000A6            UCB$L_VCB        00000030            UCB$V_TT_NOTIF = 00000002
UCB$B_ERTCNT     00000070            UCB$M_BACKP    = 00000020            UCB$V_TT_TIMO  = 00000001
UCB$B_ERTMAX     00000071            UCB$M_BSY      = 00000100            UCB$V_UNLOAD   = 0000000C
UCB$B_ESCAPE     0000004B            UCB$M_CANCEL   = 00000008            UCB$V_VALID    = 0000000B
UCB$B_FEX        00000076            UCB$M_DEADMO   = 00000400            UCB$W_BCNT       0000006E
UCB$B_FIPL       0000000B            UCB$M_DELMBX   = 00000002            UCB$W_BCR        00000096
UCB$B_LOCSRV     0000003C            UCB$M_DIAGBUF  = 00000002            UCB$W_BOFF       0000006C
UCB$B_OFFNDX     00000094            UCB$M_DX_WRITE = 00000008            UCB$W_BUFQUO     00000018
UCB$B_OFFRTC     00000095            UCB$M_ECC      = 00000001            UCB$W_BYTESTOGO  0000003E
UCB$B_REMSRV     0000003D            UCB$M_ERLOGIP  = 00000004            UCB$W_CHARGE     0000004A
UCB$B_SECTORS    0000003C            UCB$M_INT      = 00000002            UCB$W_CYLINDERS  0000003E
UCB$B_SLAVE      00000074            UCB$M_INTTYPE  = 00000080            UCB$W_DA         0000008C
UCB$B_SPR        00000075            UCB$M_JOB      = 00000001            UCB$W_DC         0000008E
UCB$B_STATE      00000052            UCB$M_MOUNTING = 00000200            UCB$W_DEVBUFSIZ  0000003A
UCB$B_TRACKS     0000003D            UCB$M_NOCNVRT  = 00000004            UCB$W_DEVSTS     0000005A
UCB$B_TYPE       0000000A            UCB$M_NT_BFROVF= 00000004            UCB$W_DIRSEQ     00000088
UCB$B_VERTSZ     0000003F            UCB$M_NT_BREAK = 00000020            UCB$W_DSTADDR    00000018
UCB$C_LENGTH     00000074            UCB$M_NT_NAME  = 00000010            UCB$W_DX_BCR     000000A4
UCB$C_LOGLNK   = 00000001            UCB$M_ONLINE   = 00000010            UCB$W_EC1        00000090
UCB$K_LENGTH     00000074            UCB$M_POWER    = 00000020            UCB$W_EC2        00000092
UCB$L_AMB        00000054            UCB$M_PRMMBX   = 00000001            UCB$W_ERRCNT     00000072
UCB$L_ASTQBL     00000010            UCB$M_TIM      = 00000001            UCB$W_FUNC       0000007E
UCB$L_ASTQFL     0000000C            UCB$M_TIMOUT   = 00000040            UCB$W_MB_SEED    FFFFFFFC
UCB$L_CPID       0000005C            UCB$M_TT_NOTIF = 00000004            UCB$W_MSGCNT     00000016
UCB$L_CRB        00000020            UCB$M_TT_TIMO  = 00000002            UCB$W_MSGMAX     00000014
UCB$L_DDB        00000024            UCB$M_UNLOAD   = 00001000            UCB$W_NT_CHAN    0000007C
UCB$L_DEVCHAR    00000034            UCB$M_VALID    = 00000800            UCB$W_OFFSET     0000008A
UCB$L_DEVDEPEND  0000003C            UCB$S_LNKPRI   = 00000002            UCB$W_REFC       00000050
UCB$L_DPC        00000080            UCB$S_LTYPE    = 00000002            UCB$W_SIZE       00000008
UCB$L_DUETIM     0000005C            UCB$T_PARTNER    0000000C            UCB$W_SRCADDR    0000001A
UCB$L_DX_BFPNT   0000009C            UCB$V_BACKP    = 00000005            UCB$W_STS        00000058
UCB$L_DX_BUF     00000098            UCB$V_BSY      = 00000008            UCB$W_UNIT       00000048
UCB$L_DX_RXDB    000000A0            UCB$V_CANCEL   = 00000003            UCB$W_VPROT      0000001A
UCB$L_EMB        00000078            UCB$V_DEADMO   = 0000000A            X              = 00040040
UCB$L_FIRST      00000014            UCB$V_DELMBX   = 00000001
UCB$L_FPC        0000000C            UCB$V_DIAGBUF  = 00000001
UCB$L_FQBL       00000004            UCB$V_DX_WRITE = 00000003
UCB$L_FQFL       00000000            UCB$V_ECC      = 00000000
UCB$L_FR3        00000010            UCB$V_ERLOGIP  = 00000002
UCB$L_FR4        00000014            UCB$V_INT      = 00000001
UCB$L_IOQBL      00000044            UCB$V_INTTYPE  = 00000007
UCB$L_IOQFL      00000040            UCB$V_JOB      = 00000000
UCB$L_IRP        0000004C            UCB$V_LNKPRI   = 00000006
UCB$L_LINK       0000002C            UCB$V_LTYPE    = 00000000
UCB$L_LOGADR     00000064            UCB$V_MOUNTING = 00000009
UCB$L_MAXBLOCK   00000084            UCB$V_MSGACK   = 00000004
UCB$L_MEDIA      0000008C            UCB$V_MSGFLO   = 00000003
UCB$L_NT_DATSSB  00000074            UCB$V_NOCNVRT  = 00000002
UCB$L_NT_INTSSB  00000078            UCB$V_NT_BFROVF= 00000002
UCB$L_OPCNT      00000060            UCB$V_NT_BREAK = 00000005
UCB$L_OWNUIC     0000001C            UCB$V_NT_NAME  = 00000004
UCB$L_PID        00000028            UCB$V_ONLINE   = 00000004
UCB$L_RQBL       00000004            UCB$V_POWER    = 00000005
UCB$L_RQFL       00000000            UCB$V_PRMMBX   = 00000000
UCB$L_SVAPTE     00000068            UCB$V_SEGFLO   = 00000002
UCB$L_SVPN       00000064            UCB$V_TIM      = 00000000
NETCONFIG       - LOCAL CONFIGURATION                            22-AUG-1978 00:49:37   VAX-11 MACRO X0.3-11               Page   8
PROGRAM SECTION SYNOPSIS                                                                                                         (1)


PROGRAM SECTION SYNOPSIS

.  ABS  .        00000000      00     NOPIC   USR   CON   ABS   LCL NOSHR NOEXE NORD  NOWRT BYTE
. BLANK .        00000000      01     NOPIC   USR   CON   REL   LCL NOSHR   EXE   RD    WRT BYTE
$ABS$            FFFFFFFE      02     NOPIC   USR   CON   ABS   LCL NOSHR   EXE   RD    WRT BYTE
NET_PURE         00000040      03     NOPIC   USR   CON   REL   LCL NOSHR NOEXE   RD  NOWRT BYTE
NET_IMPURE       000007CB      04     NOPIC   USR   CON   REL   LCL NOSHR NOEXE   RD    WRT BYTE


THERE WERE NO ERRORS OR WARNINGS.
16132. BYTES LEFT IN FREE MEMORY POOL.
2934. BYTES OF RECLAIMED MEMORY.
OBJ$:NETCONFIG,LIS$:NETCONFIG/-SP=EXECML$/ML,M1/ML,M2/ML,SRC$:NETCONFIG
47 MLB DIR RDS - 515 GETS TO DEFINE 15 MACROS. 34 INTER. FILE WRITES.
