NETCTLMIS       - PROCESS MISCELLANEOUS CONTROL FUNCTIONS        22-AUG-1978 00:51:53   VAX-11 MACRO X0.3-11               Page   0
TABLE OF CONTENTS

   (1)    3400  HISTORY
   (1)    4200  DECLARATIONS
   (1)    6300  MISCELLANEOUS FUNCTIONS
NETCTLMIS       - PROCESS MISCELLANEOUS CONTROL FUNCTIONS        22-AUG-1978 00:51:53   VAX-11 MACRO X0.3-11               Page   1
X01                                                                                                                              (1)

                                     0000   100
                                     0000   200 	.TITLE	NETCTLMIS - PROCESS MISCELLANEOUS CONTROL FUNCTIONS
                                     0000   300 	.IDENT	/X01/
                                     0000   400
                                     0000   500 ;
                                     0000   600 ; COPYRIGHT (C) 1977, 1978
                                     0000   700 ; DIGITAL EQUIPMENT CORPORATION, MAYNARD, MASSACHUSETTS 01754
                                     0000   800 ;
                                     0000   900 ; THIS SOFTWARE IS FURNISHED  UNDER A LICENSE FOR USE ONLY ON A SINGLE
                                     0000  1000 ; COMPUTER  SYSTEM AND  MAY BE  COPIED ONLY WITH  THE INCLUSION OF THE
                                     0000  1100 ; ABOVE COPYRIGHT NOTICE.  THIS SOFTWARE, OR ANY OTHER COPIES THEREOF,
                                     0000  1200 ; MAY NOT BE PROVIDED OR  OTHERWISE MADE AVAILABLE TO ANY OTHER PERSON
                                     0000  1300 ; EXCEPT FOR USE ON SUCH SYSTEM AND TO ONE WHO AGREES TO THESE LICENSE
                                     0000  1400 ; TERMS.  TITLE TO AND  OWNERSHIP OF THE  SOFTWARE  SHALL AT ALL TIMES
                                     0000  1500 ; REMAIN IN DEC.
                                     0000  1600 ;
                                     0000  1700 ; THE INFORMATION IN THIS SOFTWARE IS SUBJECT TO CHANGE WITHOUT NOTICE
                                     0000  1800 ; AND SHOULD  NOT BE CONSTRUED  AS A COMMITMENT  BY DIGITAL  EQUIPMENT
                                     0000  1900 ; CORPORATION.
                                     0000  2000 ;
                                     0000  2100 ; DEC ASSUMES  NO  RESPONSIBILITY  FOR  THE USE OR  RELIABILITY OF ITS
                                     0000  2200 ; SOFTWARE ON EQUIPMENT WHICH IS NOT SUPPLIED BY DEC.
                                     0000  2300
                                     0000  2400 ;++
                                     0000  2500 ; FACILITY:	NETWORK ACP
                                     0000  2600 ;
                                     0000  2700 ; ABSTRACT:
                                     0000  2800 ;	THIS MODULE PROCESSES MISCELLANEOUS CONTROL QIO'S TO NETACP.
                                     0000  2900 ;
                                     0000  3000 ; ENVIRONMENT:
                                     0000  3100 ;	MODE = KERNEL
                                     0000  3200 ;--
NETCTLMIS       - PROCESS MISCELLANEOUS CONTROL FUNCTIONS        22-AUG-1978 00:51:53   VAX-11 MACRO X0.3-11               Page   2
X01             HISTORY                                                                                                          (1)

                                     0000  3400 	.SBTTL	HISTORY
                                     0000  3500 ; AUTHOR:	SCOTT G. DAVIS, CREATION DATE: 04-JAN-1978
                                     0000  3600 ;
                                     0000  3700 ; MODIFIED BY:
                                     0000  3800 ;
                                     0000  3900 ;	, : VERSION
                                     0000  4000 ; 01	-
NETCTLMIS       - PROCESS MISCELLANEOUS CONTROL FUNCTIONS        22-AUG-1978 00:51:53   VAX-11 MACRO X0.3-11               Page   3
X01             DECLARATIONS                                                                                                     (1)

                                     0000  4200 	.SBTTL	DECLARATIONS
                                     0000  4300 ;
                                     0000  4400 ; INCLUDE FILES:
                                     0000  4500 ;
                                     0000  4600 	$NDBDEF
                                     0000  4700 	$PRVDEF
                                     0000  4800 	$UCBDEF
                                     0000  4900
                                     0000  5000 ;
                                     0000  5100 ; MACROS:
                                     0000  5200 ;
                                     0000  5300
                                     0000  5400 ;
                                     0000  5500 ; EQUATED SYMBOLS:
                                     0000  5600 ;
                                     0000  5700
                                     0000  5800 ;
                                     0000  5900 ; OWN STORAGE:
                                     0000  6000 ;
NETCTLMIS       - PROCESS MISCELLANEOUS CONTROL FUNCTIONS        22-AUG-1978 00:51:53   VAX-11 MACRO X0.3-11               Page   4
X01             DECLARATIONS                                                                                                     (1)

                                 00000000  6200 	.PSECT	NET_CONTROL,NOWRT
                                     0000  6300 	.SBTTL	MISCELLANEOUS FUNCTIONS
                                     0000  6400 ;++
                                     0000  6500 ;
                                     0000  6600 ; FUNCTIONAL DESCRIPTIONS
                                     0000  6700 ;
                                     0000  6800 ; NET$GET_NAMENUM - GET NODE NAME, GIVEN THE NUMBER
                                     0000  6900 ; NET$GET_NUMNAME - GET NODE NUMBER, GIVEN THE NAME
                                     0000  7000 ; NET$GET_VERSION - GET ROUTING, COMM, AND SYSTEM VERSION
                                     0000  7100 ; NET$GET_NODBYLN - GIVEN THE LINE NAME (XMA0), GET THE NODE NAME
                                     0000  7200 ; NET$DECLARE_NAM - MAKES A PROCESS KNOWN AS ABLE TO RECEIVE INBOUND CONNECTS
                                     0000  7300 ;
                                     0000  7400 ;--
                                     0000  7500
                                     0000  7600 NET$GET_NAMENUM::
       0000'CF            6B     B0  0000  7700 	MOVW	(R11),W^NET$GW_CTLCOUNT	; PUT BACK THE PARAMETER
                     0000'CF     9F  0005  7800 	PUSHAB	W^NET$CTL_NEXTNDB	; INIT FOR COROUTINE CALL
            53       0000'CF     D0  0009  7900 	MOVL	W^NET$GL_RES_PTR,R3	; GET DESTINATION BFR ADDR
                                     000E  8000 10$:
                          9E     16  000E  8100 	JSB	@(SP)+			; GET ADDRESS OF NEXT NDB
                          02     12  0010  8200 	BNEQ	20$			; IF NEQ NODE FOUND
                          39     11  0012  8300 	BRB	NOSUCHNODE		; NODE NOT FOUND
                                     0014  8400 20$:
         18 A9            6B     B1  0014  8500 	CMPW	(R11),NDB$W_NODEADDR(R9) ; NUMBERS MATCH?
                          F4     12  0018  8600 	BNEQ	10$			; IF NEQ NO MATCH
                          FFE3'  30  001A  8700 	BSBW	NET$CTL_MOV_NAM		; MOVE IN THE NAME
                                 04  001D  8800 	RET				; DONE
                                     001E  8900
                                     001E  9000 NET$GET_NUMNAME::
                          FFDF'  30  001E  9100 	BSBW	NET$CTL_FNDNDB		; GET THE RIGHT NDB
                          2A     13  0021  9200 	BEQL	NOSUCHNODE		; IF EQL NO NODE
       0000'CF         18 A9     B0  0023  9300 	MOVW	NDB$W_NODEADDR(R9),W^NET$GW_CTLCOUNT ; STUFF THE NUMBER FOR RETURN
                                 04  0029  9400 	RET				; DONE
                                     002A  9500
                                     002A  9600 NET$GET_VERSION::
                          FFD3'  30  002A  9700 	BSBW	NET$CTL_FNDNDB		; GET THE NDB
                          1E     13  002D  9800 	BEQL	NOSUCHNODE		; IF EQL NO NODE
            51         28 A9     DE  002F  9900 	MOVAL	NDB$B_RTEVER(R9),R1	; POINT TO THE ROUTING VERSION
            53       0000'CF     D0  0033 10000 	MOVL	W^NET$GL_RES_PTR,R3	; GET POINTER TO RESULT BUFFER
            5A            06     3C  0038 10100 	MOVZWL	#6,R10			; NEED 6 BYTES FOR PROTOCOL VERSIONS
                          FFC2'  30  003B 10200 	BSBW	NET$CTL_UPD_CNT		; CHECK BUFFER
            83            81     D0  003E 10300 	MOVL	(R1)+,(R3)+		; STORE 6 BYTES OF VERSIONS
            83            81     B0  0041 10400 	MOVW	(R1)+,(R3)+		; THE OTHER 2 BYTES
                          FFB9'  30  0044 10500 	BSBW	NET$CTL_MOV_PTH		; MOVE IN THE SYSTEM VERSION STRING
                                 04  0047 10600 	RET				; DONE
                                     0048 10700
                                     0048 10800 	.ENABL	LSB
                                     0048 10900
                                     0048 11000 NET$GET_NODBYLN::
                          FFB5'  30  0048 11100 	BSBW	NET$CTL_NDBLINE		; FIND THE NDB
                          08     12  004B 11200 	BNEQ	20$			; IF NEQ OK
                                     004D 11300 NOSUCHNODE:
       0000'CF       0000'8F     3C  004D 11400 	MOVZWL	#SS$_NOSUCHNODE,W^NET$GQ_USR_STAT ; NO SUCH NODE
                                 04  0054 11500 	RET				; DONE
                                     0055 11600 20$:
            53       0000'CF     D0  0055 11700 	MOVL	W^NET$GL_RES_PTR,R3	; SET TO MOVE IN NAME
                          FFA3'  30  005A 11800 	BSBW	NET$CTL_MOV_NAM		; DO IT
NETCTLMIS       - PROCESS MISCELLANEOUS CONTROL FUNCTIONS        22-AUG-1978 00:51:53   VAX-11 MACRO X0.3-11               Page   5
X01             MISCELLANEOUS FUNCTIONS                                                                                          (1)

                                 04  005D 11900 	RET				; DONE
                                     005E 12000
                                     005E 12100 	.DSABL	LSB
                                     005E 12200
                                     005E 12300 NET$DECLARE_NAM::
         5A A5            04     E0  005E 12400 	BBS	#UCB$V_NT_NAME,UCB$W_DEVSTS(R5),5$ ; IF BS THERE IS ALREADY A NAME
                          27         0062
            50       0000'8F     3C  0063 12500 	MOVZWL	#SS$_NOMBX,R0		; ASSUME NO GOOD
                       54 A5     D5  0068 12600 	TSTL	UCB$L_AMB(R5)		; IS THERE AN ASSOCIATED MAILBOX?
                          2B     13  006B 12700 	BEQL	20$			; IF EQL NO
            F6'      0000'CF     B1  006D 12800 	CMPW	W^NET$GL_NAME_LTH,S^#NET$C_NAMBLKSIZ-10 ; NAME IN BOUNDS?
                          16     1A  0072 12900 	BGTRU	5$			; IF GTRU NO
            59       0004'CF     9E  0074 13000 	MOVAB	W^NET$GQ_IMAGE+4,R9	; SET UP NAME DESCRIPTOR
            69       0000'CF     D0  0079 13100 	MOVL	W^NET$GL_NAME_PTR,(R9)	; BUFFER ADDRESS
            79       0000'CF     D0  007E 13200 	MOVL	W^NET$GL_NAME_LTH,-(R9)	; BUFFER LENGTH
                          55     DD  0083 13300 	PUSHL	R5			; SAVE THE UCB ADDRESS
                          FF78'  30  0085 13400 	BSBW	NET$FIND_NAMBLK		; LOCATE A NAME BLOCK, IF YOU CAN
                          05     13  0088 13500 	BEQL	10$			; IF EQL NOT A DUPLICATE NAME
                                     008A 13600 5$:
            50            00'    3C  008A 13700 	MOVZWL	S^#SS$_BADPARAM,R0	; BAD PARAMETER
                          09     11  008D 13800 	BRB	20$			; GO TO COMMON CODE
                                     008F 13900 10$:
                          54     D5  008F 14000 	TSTL	R4			; WAS THERE SPACE?
                          0B     12  0091 14100 	BNEQ	30$			; IF NEQ YES
            50       0000'8F     3C  0093 14200 	MOVZWL	#SS$_DIRFULL,R0		; NO "DIRECTORY" SPACE
       0000'CF            50     D0  0098 14300 20$:	MOVL	R0,W^NET$GQ_USR_STAT	; STORE THE CODE
                                 04  009D 14400 	RET				; DONE
                                     009E 14500 30$:
            55            6E     D0  009E 14600 	MOVL	(SP),R5			; RESTORE THE UCB ADDRESS
         5A A5            10     A8  00A1 14700 	BISW	#UCB$M_NT_NAME,UCB$W_DEVSTS(R5) ; NAME DECLARED
            84            55     D0  00A5 14800 	MOVL	R5,(R4)+		; STUFF THE UCB ADDRESS
            84         28 A5     D0  00A8 14900 	MOVL	UCB$L_PID(R5),(R4)+	; STORE THE PID
            64            89     F7  00AC 15000 	CVTLW	(R9)+,(R4)		; STUFF THE NAME LENGTH
            99            84     28  00AF 15100 	MOVC3	(R4)+,@(R9)+,(R4)	; STUFF THE NAME
                          64         00B2
                                     00B3 15200 ;
                                     00B3 15300 ; SEE IF THERE IS ANY CONNECT INFO TO GO IN THE MAILBOX
                                     00B3 15400 ;
                          55   8ED0  00B3 15500 	POPL	R5			; GET THE UCB ADDRESS
            5B            FF'    D0  00B6 15600 	MOVL	S^#NET$C_MAXCIR-1,R11	; USE 1-ORIGIN INDEXING
                                     00B9 15700 40$:
       0000'CF4B       28 A5     D1  00B9 15800 	CMPL	UCB$L_PID(R5),W^NET$AL_CIRPID[R11] ; PID'S MATCH?
                          09     12  00C0 15900 	BNEQ	50$			; IF NEQ NO
            58       0000'CF4B   7D  00C2 16000 	MOVQ	W^NET$AQ_CIRNAMDS[R11],R8 ; STUFF THE DESCRIPTOR
                          FF35'  30  00C8 16100 	BSBW	NET$MAILBOX_CI		; POST THE CI INFO TO THE MAILBOX
                                     00CB 16200 50$:
            EB            5B     F4  00CB 16300 	SOBGEQ	R11,40$			; LOOP
                                 04  00CE 16400 	RET				; DONE!
                                     00CF 16500
                                     00CF 16600 	.END
NETCTLMIS       - PROCESS MISCELLANEOUS CONTROL FUNCTIONS        22-AUG-1978 00:51:53   VAX-11 MACRO X0.3-11               Page   6
SYMBOL TABLE                                                                                                                     (1)

BIT...         = 00000000            NET$CTL_FNDNDB   ********   X   03   UCB$B_DEVTYPE    00000039
GBL...         = 00000000            NET$CTL_MOV_NAM  ********   X   03   UCB$B_DIPL       00000052
NDB$B_COMMVER    0000002B            NET$CTL_MOV_PTH  ********   X   03   UCB$B_DX_SCTCNT  000000A6
NDB$B_CONNTMO    0000004F            NET$CTL_NDBLINE  ********   X   03   UCB$B_ERTCNT     00000070
NDB$B_FUNC       00000021            NET$CTL_NEXTNDB  ********   X   03   UCB$B_ERTMAX     00000071
NDB$B_NONPRVACC  00000050            NET$CTL_UPD_CNT  ********   X   03   UCB$B_ESCAPE     0000004B
NDB$B_NUMBUF     0000000B            NET$C_MAXCIR     ********   X   03   UCB$B_FEX        00000076
NDB$B_PRVACC     0000007C            NET$C_NAMBLKSIZ  ********   X   03   UCB$B_FIPL       0000000B
NDB$B_RTEVER     00000028            NET$DECLARE_NAM  0000005E RG    03   UCB$B_LOCSRV     0000003C
NDB$B_STATE      00000016            NET$FIND_NAMBLK  ********   X   03   UCB$B_OFFNDX     00000094
NDB$B_STATUS     00000017            NET$GET_NAMENUM  00000000 RG    03   UCB$B_OFFRTC     00000095
NDB$B_TYPE       0000000A            NET$GET_NODBYLN  00000048 RG    03   UCB$B_REMSRV     0000003D
NDB$C_CTL_LOOP = 00000005            NET$GET_NUMNAME  0000001E RG    03   UCB$B_SECTORS    0000003C
NDB$C_LENGTH     000000BC            NET$GET_VERSION  0000002A RG    03   UCB$B_SLAVE      00000074
NDB$C_LOOP     = 00000003            NET$GL_NAME_LTH  ********   X   03   UCB$B_SPR        00000075
NDB$C_MAINT    = 00000004            NET$GL_NAME_PTR  ********   X   03   UCB$B_STATE      00000052
NDB$C_MSG_DCHK = 00000009            NET$GL_RES_PTR   ********   X   03   UCB$B_TRACKS     0000003D
NDB$C_MSG_DOWN = 00000003            NET$GQ_IMAGE     ********   X   03   UCB$B_TYPE       0000000A
NDB$C_MSG_DSRCH= 00000007            NET$GQ_USR_STAT  ********   X   03   UCB$B_VERTSZ     0000003F
NDB$C_MSG_LOOPB= 00000008            NET$GW_CTLCOUNT  ********   X   03   UCB$C_LENGTH     00000074
NDB$C_MSG_MAINT= 00000002            NET$MAILBOX_CI   ********   X   03   UCB$C_LOGLNK   = 00000001
NDB$C_MSG_NGINI= 00000004            NOSUCHNODE       0000004D R     03   UCB$K_LENGTH     00000074
NDB$C_MSG_OKINI= 00000005            PRV$V_ALLSPOOL = 00000004            UCB$L_AMB        00000054
NDB$C_MSG_SHUT = 00000006            PRV$V_BUGCHK   = 00000017            UCB$L_ASTQBL     00000010
NDB$C_MSG_START= 00000001            PRV$V_CMEXEC   = 00000001            UCB$L_ASTQFL     0000000C
NDB$C_OFF      = 00000001            PRV$V_CMKRNL   = 00000000            UCB$L_CPID       0000005C
NDB$C_ON       = 00000000            PRV$V_DETACH   = 00000005            UCB$L_CRB        00000020
NDB$C_SHUT     = 00000002            PRV$V_DIAGNOSE = 00000006            UCB$L_DDB        00000024
NDB$K_LENGTH     000000BC            PRV$V_EXQUOTA  = 00000013            UCB$L_DEVCHAR    00000034
NDB$L_LINE_NAME  00000004            PRV$V_GROUP    = 00000008            UCB$L_DEVDEPEND  0000003C
NDB$L_NEXT       00000000            PRV$V_GRPNAM   = 00000003            UCB$L_DPC        00000080
NDB$M_CTL_LOOP = 00000008            PRV$V_LOG_IO   = 00000007            UCB$L_DUETIM     0000005C
NDB$M_LOOPBACK = 00000001            PRV$V_MOUNT    = 00000011            UCB$L_DX_BFPNT   0000009C
NDB$M_OFF      = 00000002            PRV$V_NETMBX   = 00000014            UCB$L_DX_BUF     00000098
NDB$M_SHUT     = 00000004            PRV$V_NOACNT   = 00000009            UCB$L_DX_RXDB    000000A0
NDB$Q_AST        0000000C            PRV$V_OPER     = 00000012            UCB$L_EMB        00000078
NDB$Q_ZEROTIME   000000AC            PRV$V_PHY_IO   = 00000016            UCB$L_FIRST      00000014
NDB$T_NAME       0000001A            PRV$V_PRMCEB   = 0000000A            UCB$L_FPC        0000000C
NDB$T_SYSVER     0000002E            PRV$V_PRMGBL   = 00000018            UCB$L_FQBL       00000004
NDB$V_CTL_LOOP = 00000003            PRV$V_PRMMBX   = 0000000B            UCB$L_FQFL       00000000
NDB$V_LOOPBACK = 00000000            PRV$V_PSWAPM   = 0000000C            UCB$L_FR3        00000010
NDB$V_OFF      = 00000001            PRV$V_SETPRI   = 0000000D            UCB$L_FR4        00000014
NDB$V_SHUT     = 00000002            PRV$V_SETPRV   = 0000000E            UCB$L_IOQBL      00000044
NDB$W_BLKSIZE    00000022            PRV$V_SYSGBL   = 00000019            UCB$L_IOQFL      00000040
NDB$W_BUFSIZE    000000A8            PRV$V_SYSNAM   = 00000002            UCB$L_IRP        0000004C
NDB$W_CHANNEL    00000014            PRV$V_TMPMBX   = 0000000F            UCB$L_LINK       0000002C
NDB$W_CHAR       000000AA            PRV$V_VOLPRO   = 00000015            UCB$L_LOGADR     00000064
NDB$W_HISBLKSIZ  000000B8            PRV$V_WORLD    = 00000010            UCB$L_MAXBLOCK   00000084
NDB$W_HISNSPSIZ  000000BA            SS$_BADPARAM     ********   X   03   UCB$L_MEDIA      0000008C
NDB$W_MAXLNK     00000026            SS$_DIRFULL      ********   X   03   UCB$L_NT_DATSSB  00000074
NDB$W_NODEADDR   00000018            SS$_NOMBX        ********   X   03   UCB$L_NT_INTSSB  00000078
NDB$W_NSPSIZE    00000024            SS$_NOSUCHNODE   ********   X   03   UCB$L_OPCNT      00000060
NDB$W_RCVBLKS    000000B4            UCB$B_AMOD       00000053            UCB$L_OWNUIC     0000001C
NDB$W_SIZE       00000008            UCB$B_CEX        00000077            UCB$L_PID        00000028
NDB$W_XMTBLKS    000000B6            UCB$B_CM1        0000004A            UCB$L_RQBL       00000004
NET$AL_CIRPID    ********   X   03   UCB$B_CM2        0000004B            UCB$L_RQFL       00000000
NET$AQ_CIRNAMDS  ********   X   03   UCB$B_DEVCLASS   00000038            UCB$L_SVAPTE     00000068
NETCTLMIS       - PROCESS MISCELLANEOUS CONTROL FUNCTIONS        22-AUG-1978 00:51:53   VAX-11 MACRO X0.3-11               Page   7
SYMBOL TABLE                                                                                                                     (1)

UCB$L_SVPN       00000064            UCB$V_TIM      = 00000000
UCB$L_TTCHAR     0000003C            UCB$V_TIMOUT   = 00000006
UCB$L_VCB        00000030            UCB$V_TT_NOTIF = 00000002
UCB$M_BACKP    = 00000020            UCB$V_TT_TIMO  = 00000001
UCB$M_BSY      = 00000100            UCB$V_UNLOAD   = 0000000C
UCB$M_CANCEL   = 00000008            UCB$V_VALID    = 0000000B
UCB$M_DEADMO   = 00000400            UCB$W_BCNT       0000006E
UCB$M_DELMBX   = 00000002            UCB$W_BCR        00000096
UCB$M_DIAGBUF  = 00000002            UCB$W_BOFF       0000006C
UCB$M_DX_WRITE = 00000008            UCB$W_BUFQUO     00000018
UCB$M_ECC      = 00000001            UCB$W_BYTESTOGO  0000003E
UCB$M_ERLOGIP  = 00000004            UCB$W_CHARGE     0000004A
UCB$M_INT      = 00000002            UCB$W_CYLINDERS  0000003E
UCB$M_INTTYPE  = 00000080            UCB$W_DA         0000008C
UCB$M_JOB      = 00000001            UCB$W_DC         0000008E
UCB$M_MOUNTING = 00000200            UCB$W_DEVBUFSIZ  0000003A
UCB$M_NOCNVRT  = 00000004            UCB$W_DEVSTS     0000005A
UCB$M_NT_BFROVF= 00000004            UCB$W_DIRSEQ     00000088
UCB$M_NT_BREAK = 00000020            UCB$W_DSTADDR    00000018
UCB$M_NT_NAME  = 00000010            UCB$W_DX_BCR     000000A4
UCB$M_ONLINE   = 00000010            UCB$W_EC1        00000090
UCB$M_POWER    = 00000020            UCB$W_EC2        00000092
UCB$M_PRMMBX   = 00000001            UCB$W_ERRCNT     00000072
UCB$M_TIM      = 00000001            UCB$W_FUNC       0000007E
UCB$M_TIMOUT   = 00000040            UCB$W_MB_SEED    FFFFFFFC
UCB$M_TT_NOTIF = 00000004            UCB$W_MSGCNT     00000016
UCB$M_TT_TIMO  = 00000002            UCB$W_MSGMAX     00000014
UCB$M_UNLOAD   = 00001000            UCB$W_NT_CHAN    0000007C
UCB$M_VALID    = 00000800            UCB$W_OFFSET     0000008A
UCB$S_LNKPRI   = 00000002            UCB$W_REFC       00000050
UCB$S_LTYPE    = 00000002            UCB$W_SIZE       00000008
UCB$T_PARTNER    0000000C            UCB$W_SRCADDR    0000001A
UCB$V_BACKP    = 00000005            UCB$W_STS        00000058
UCB$V_BSY      = 00000008            UCB$W_UNIT       00000048
UCB$V_CANCEL   = 00000003            UCB$W_VPROT      0000001A
UCB$V_DEADMO   = 0000000A
UCB$V_DELMBX   = 00000001
UCB$V_DIAGBUF  = 00000001
UCB$V_DX_WRITE = 00000003
UCB$V_ECC      = 00000000
UCB$V_ERLOGIP  = 00000002
UCB$V_INT      = 00000001
UCB$V_INTTYPE  = 00000007
UCB$V_JOB      = 00000000
UCB$V_LNKPRI   = 00000006
UCB$V_LTYPE    = 00000000
UCB$V_MOUNTING = 00000009
UCB$V_MSGACK   = 00000004
UCB$V_MSGFLO   = 00000003
UCB$V_NOCNVRT  = 00000002
UCB$V_NT_BFROVF= 00000002
UCB$V_NT_BREAK = 00000005
UCB$V_NT_NAME  = 00000004
UCB$V_ONLINE   = 00000004
UCB$V_POWER    = 00000005
UCB$V_PRMMBX   = 00000000
UCB$V_SEGFLO   = 00000002
NETCTLMIS       - PROCESS MISCELLANEOUS CONTROL FUNCTIONS        22-AUG-1978 00:51:53   VAX-11 MACRO X0.3-11               Page   8
PROGRAM SECTION SYNOPSIS                                                                                                         (1)


PROGRAM SECTION SYNOPSIS

.  ABS  .        00000000      00     NOPIC   USR   CON   ABS   LCL NOSHR NOEXE NORD  NOWRT BYTE
. BLANK .        00000000      01     NOPIC   USR   CON   REL   LCL NOSHR   EXE   RD    WRT BYTE
$ABS$            FFFFFFFE      02     NOPIC   USR   CON   ABS   LCL NOSHR   EXE   RD    WRT BYTE
NET_CONTROL      000000CF      03     NOPIC   USR   CON   REL   LCL NOSHR   EXE   RD  NOWRT BYTE


THERE WERE NO ERRORS OR WARNINGS.
17712. BYTES LEFT IN FREE MEMORY POOL.
3012. BYTES OF RECLAIMED MEMORY.
OBJ$:NETCTLMIS,LIS$:NETCTLMIS/-SP=EXECML$/ML,M1/ML,M2/ML,SRC$:NETCTLMIS
39 MLB DIR RDS - 439 GETS TO DEFINE 12 MACROS. 28 INTER. FILE WRITES.
