NETCONMES       - FABRICATE AND TRANSMIT CONNECT MESSAGE         22-AUG-1978 00:50:12   VAX-11 MACRO X0.3-11               Page   0
TABLE OF CONTENTS

   (1)    3500  HISTORY
   (1)    4300  DECLARATIONS
   (1)    9200  NET$CONMES
   (1)   23400  RECEIVE CONNECT INIT MSG
   (1)   29900  CONNECT CONFIRM MSG RCVD
   (1)   35200  PARSE FIELDS IN CONNECT MSG
NETCONMES       - FABRICATE AND TRANSMIT CONNECT MESSAGE         22-AUG-1978 00:50:12   VAX-11 MACRO X0.3-11               Page   1
X01                                                                                                                              (1)

                                     0000   100
                                     0000   200 	.TITLE	NETCONMES - FABRICATE AND TRANSMIT CONNECT MESSAGE
                                     0000   300 	.IDENT	/X01/
                                     0000   400
                                     0000   500 ;
                                     0000   600 ; COPYRIGHT (C) 1977, 1978
                                     0000   700 ; DIGITAL EQUIPMENT CORPORATION, MAYNARD, MASSACHUSETTS 01754
                                     0000   800 ;
                                     0000   900 ; THIS SOFTWARE IS FURNISHED  UNDER A LICENSE FOR USE ONLY ON A SINGLE
                                     0000  1000 ; COMPUTER  SYSTEM AND  MAY BE  COPIED ONLY WITH  THE INCLUSION OF THE
                                     0000  1100 ; ABOVE COPYRIGHT NOTICE.  THIS SOFTWARE, OR ANY OTHER COPIES THEREOF,
                                     0000  1200 ; MAY NOT BE PROVIDED OR  OTHERWISE MADE AVAILABLE TO ANY OTHER PERSON
                                     0000  1300 ; EXCEPT FOR USE ON SUCH SYSTEM AND TO ONE WHO AGREES TO THESE LICENSE
                                     0000  1400 ; TERMS.  TITLE TO AND  OWNERSHIP OF THE  SOFTWARE  SHALL AT ALL TIMES
                                     0000  1500 ; REMAIN IN DEC.
                                     0000  1600 ;
                                     0000  1700 ; THE INFORMATION IN THIS SOFTWARE IS SUBJECT TO CHANGE WITHOUT NOTICE
                                     0000  1800 ; AND SHOULD  NOT BE CONSTRUED  AS A COMMITMENT  BY DIGITAL  EQUIPMENT
                                     0000  1900 ; CORPORATION.
                                     0000  2000 ;
                                     0000  2100 ; DEC ASSUMES  NO  RESPONSIBILITY  FOR  THE USE OR  RELIABILITY OF ITS
                                     0000  2200 ; SOFTWARE ON EQUIPMENT WHICH IS NOT SUPPLIED BY DEC.
                                     0000  2300
                                     0000  2400 ;++
                                     0000  2500 ; FACILITY:	NETWORK ACP
                                     0000  2600 ;
                                     0000  2700 ; ABSTRACT:
                                     0000  2800 ;	THIS MODULE TAKES THE INFORMATION IN A CONNECT BLOCK
                                     0000  2900 ;	AND MAKES UP AND TRANSMITS A CONNECT MESSAGE.
                                     0000  3000 ;
                                     0000  3100 ; ENVIRONMENT:
                                     0000  3200 ;	MODE = KERNEL
                                     0000  3300 ;--
NETCONMES       - FABRICATE AND TRANSMIT CONNECT MESSAGE         22-AUG-1978 00:50:12   VAX-11 MACRO X0.3-11               Page   2
X01             HISTORY                                                                                                          (1)

                                     0000  3500 	.SBTTL	HISTORY
                                     0000  3600 ; AUTHOR:	SCOTT G. DAVIS, CREATION DATE: 10-JUN-77
                                     0000  3700 ;
                                     0000  3800 ; MODIFIED BY:
                                     0000  3900 ;
                                     0000  4000 ;	, : VERSION
                                     0000  4100 ; 01	-
NETCONMES       - FABRICATE AND TRANSMIT CONNECT MESSAGE         22-AUG-1978 00:50:12   VAX-11 MACRO X0.3-11               Page   3
X01             DECLARATIONS                                                                                                     (1)

                                     0000  4300 	.SBTTL	DECLARATIONS
                                     0000  4400 ;
                                     0000  4500 ; INCLUDE FILES:
                                     0000  4600 ;
                                     0000  4700 	$DRDEF
                                     0000  4800 	$MSGDEF
                                     0000  4900 	$NDBDEF
                                     0000  5000 	$NETMSGDEF
                                     0000  5100 	$OBJDEF
                                     0000  5200 	$UCBDEF
                                     0000  5300 ;
                                     0000  5400 ; EQUATED SYMBOLS:
                                     0000  5500 ;
                                     0000  5600
                                     0000  5700 	$EQULST	NET_,,,,<-
                                     0000  5800 		<MAXARG,16>,-		; MAX NO. OF OPTIONAL DATA BYTES
                                     0000  5900 		<MAXFMT,2>,-		; HIGHEST ACCEPTABLE FORMAT NUMBER
                                     0000  6000 		<MAXFMTLTH,16>,-	; MAX LTH OF A FORMAT DESCRIPTOR
                                     0000  6100 >
                                     0000  6200 	$EQULST	NET$C_,GLOBAL,,,<-
                                     0000  6300 		<RQSTRLTH,16>,-		; MAXIMUM RQSTRID LTH
                                     0000  6400 		<PSWRDLTH,8>,-		; MAXIMUM PASSWORD LTH
                                     0000  6500 		<ACCNTLTH,16>,-		; MAX LTH OF LNKACT FIELD
                                     0000  6600 >
                                     0000  6700 	_VIELD	NET,0,<-		; MENU FIELD BITS
                                     0000  6800 		<ACCNTRL,,M>,-		; ACCESS CONTROL FIELDS PRESENT
                                     0000  6900 		<USRDATA,,M>,-		; USRDATA FIELD PRESENT
                                     0000  7000 >
                                     0000  7100 ;
                                     0000  7200 ; OWN STORAGE:
                                     0000  7300 ;
                                 00000000  7400 	.PSECT	NET_IMPURE,WRT,NOEXE
                                     0000  7500 ;
                                     0000  7600 ; ACCESS CONTROL FIELDS FROM CONNECT INITIATE MESSAGE
                                     0000  7700 ;
                           00000008  0000  7800 NET$GQ_ACCESS::	.BLKQ	1		; DESCRIPTOR OF ACCESS CONTROL INFO
                                     0008  7900 NET$AB_ACC_BUF::			; ACCESS CONTROL BUFFER
                                     0008  8000 		.BLKB	NET$C_RQSTRLTH+1+- ; BUFFER FOR RQSTRID
                                     0008  8100 			NET$C_PSWRDLTH+1+- ; BUFFER FOR PASSWRD
                                     0008  8200 			NET$C_ACCNTLTH+1+- ; BUFFER FOR ACCOUNT
                           00000044  0008  8300 			NET_MAXFMTLTH+1	; BUFFER FOR IMAGE FILE NAME
                                 00  0044  8400 CONFIRM_FLAG:	.BYTE	0		; SET IF CONNECT CONFIRM
                                     0045  8500
                                 00000000  8600 	.PSECT	NET_PURE,NOEXE,NOWRT
                                     0000  8700
                                     0000  8800 CTRSTR:	DESCRIPTOR	<!XL>		; FAO DESCRIPTOR
3A 4D 45 54 53 59 53 24 53 59 53 00' 000B  8900 SYSTEM_STRING:	.ASCIC	/SYS$SYSTEM:/	; FOR PREFIXING TO KNOWN OBJ COM FILES
                                 0B  000B
NETCONMES       - FABRICATE AND TRANSMIT CONNECT MESSAGE         22-AUG-1978 00:50:12   VAX-11 MACRO X0.3-11               Page   4
X01             DECLARATIONS                                                                                                     (1)

                                 00000000  9100 	.PSECT	NET_CONNECT,NOWRT
                                     0000  9200 	.SBTTL	NET$CONMES
                                     0000  9300 ;++
                                     0000  9400 ; FUNCTIONAL DESCRIPTION:
                                     0000  9500 ;
                                     0000  9600 ; NET$CONMES - FABRICATE A CONNECT MESSAGE, GIVEN A CONNECT BLOCK.
                                     0000  9700 ;	EXTENSION OF NET$CONNECT
                                     0000  9800 ;
                                     0000  9900 ; INPUT PARAMETERS:
                                     0000 10000 ;
                                     0000 10100 ;	R5 - ADDRESS OF UCB
                                     0000 10200 ;	R8 - NDB ADDRESS
                                     0000 10300 ;	R10 - LTH OF USER DATA
                                     0000 10400 ;	R11 - ADDRESS OF USER DATA
                                     0000 10500 ;--
                                     0000 10600
                                     0000 10700 NET$CONMES::
                          FFFD'  30  0000 10800 	BSBW	NET$ALLOCCON		; INIT A CONNECT MSG
            0A            50     E8  0003 10900 	BLBS	R0,5$			; IF LBS OK
       0000'CF       0000'8F     3C  0006 11000 	MOVZWL	#SS$_INSFMEM,W^NET$GQ_USR_STAT ; ALLOCATION FAILURE
                          00E6   31  000D 11100 	BRW	200$			; TERMINATE THE ACCESS
                                     0010 11200 5$:
            83         18 A5     B0  0010 11300 	MOVW	UCB$W_DSTADDR(R5),(R3)+	; SET UP THE REMOTE CONNECT NO.
                          08     13  0014 11400 	BEQL	10$			; IF EQL CONNECT INITIATE
         FD A3            28     90  0016 11500 	MOVB	#<NET$C_MSGFLG@NET$V_MSGID>!- ; SET UP MSGFLG
                                     001A 11600 		 <NET$C_CTRLM@NET$V_MSGTYP>!- ; CONTROL MSG
                                     001A 11700 		 <NET$C_CC@NET$V_SUBTYP>-  ; CONNECT CONFIRM
                                     001A 11800 		,-3(R3)			; INTO BFR
         52 A5            00'    90  001A 11900 	MOVB	S^#NET$C_ST_RUN,UCB$B_STATE(R5) ; SET TO RUN STATE
                                     001E 12000 10$:
            83         1A A5     B0  001E 12100 	MOVW	UCB$W_SRCADDR(R5),(R3)+	; SET LOCAL CONNECT NO.
            63            09     90  0022 12200 	MOVB	#<UCB$C_LOGLNK@UCB$V_LTYPE>!- ; SET UP LINK SERVICES
                                     0025 12300 		 <1@UCB$V_MSGFLO>,(R3)	      ; LOGICAL LINK WITH MESSAGE COUNTS
            83         40 8F     89  0025 12400 	BISB3	#NET$C_PRINRM@UCB$V_LNKPRI,(R3)+,UCB$B_LOCSRV(R5) ; PUT IT INTO UCB, TOO
                       3C A5         0029
            83            01     90  002B 12500 	MOVB	#NET$C_PRINRM,(R3)+	; INFO BYTE - NORMAL PRIORITY
         24 A8            18     A3  002E 12600 	SUBW3	#NET$C_MAXNSPOVH,NDB$W_NSPSIZE(R8),(R3)+ ; SET SEGSIZE
                          83         0032
            7E         7C A5     3C  0033 12700 	MOVZWL	UCB$W_NT_CHAN(R5),-(SP)	; SAVE THE CHANNEL NO.
                                     0037 12800 ;
                                     0037 12900 ; SET UP DATA FIELD OF CONNECT MESSAGE
                                     0037 13000 ;
                       18 A5     B5  0037 13100 	TSTW	UCB$W_DSTADDR(R5)	; CONNECT INITIATE?
                          03     13  003A 13200 	BEQL	15$			; IF EQL CONNECT INIT
                          0091   31  003C 13300 	BRW	100$			; CONNECT CONFIRM
                                     003F 13400 15$:
                                     003F 13500 ;
                                     003F 13600 ; SENDING CONNECT INITIATE - PUT IN PROCESS ID GARBAGE
                                     003F 13700 ;
                                     003F 13800 	UPDATE	OUTCI			; ANOTHER OUTBOUND CONNECT
            50       0000'CF     9A  0047 13900 	MOVZBL	W^NET$GB_DSTFMT,R0	; FETCH DSTNAME FORMAT
            83            50     90  004C 14000 	MOVB	R0,(R3)+		; STORE IT
            83       0000'CF     90  004F 14100 	MOVB	W^NET$GB_DSTOBJ,(R3)+	; STORE THE OBJTYPE
                          50     95  0054 14200 	TSTB	R0			; OBJECT TYPE ONLY?
                          08     13  0056 14300 	BEQL	20$			; IF EQL YES
            51       0000'CF     DE  0058 14400 	MOVAL	W^NET$GT_DSTDSCR,R1	; PICK UP ADDR OF DESCRIPTOR
                          FFA0'  30  005D 14500 	BSBW	NET$MOVE_STRING		; MOVE IT IN
NETCONMES       - FABRICATE AND TRANSMIT CONNECT MESSAGE         22-AUG-1978 00:50:12   VAX-11 MACRO X0.3-11               Page   5
X01             NET$CONMES                                                                                                       (1)

                                     0060 14600 20$:
                                     0060 14700 ;
                                     0060 14800 ; STORE SRCNAME INFO IN BUFFER
                                     0060 14900 ;
                          55     DD  0060 15000 	PUSHL	R5			; SAVE UCB ADDRESS
            83            01     9B  0062 15100 	MOVZBW	#1,(R3)+		; FORMAT 1, OBJECT TYPE 0
       0000'CF            10     D0  0065 15200 	MOVL	#NET_MAXFMTLTH,W^NET$GQ_UTLDESC ; MAX LTH OF NAME
                                     006A 15300 	$FAO_S	CTRSTR=W^CTRSTR,OUTBUF=W^NET$GQ_UTLDESC,- ; CONVERT PID
                                     006A 15400 		P1=UCB$L_PID(R5)	; THIS IS THE PARAMETER
            83            08     90  007E 15500 	MOVB	#8,(R3)+		; COUNTED STRING LTH
       0000'CF            08     28  0081 15600 	MOVC3	#8,W^NET$AB_UTLBUF,(R3)	; STORE THE ASCII PID
                          63         0086
                                     0087 15700 ;
                                     0087 15800 ; PUT IN MENU BYTE
                                     0087 15900 ;
            83            02     90  0087 16000 	MOVB	#NET_M_USRDATA,(R3)+	; USRDATA (MAYBE)
            52         50 A8     9E  008A 16100 	MOVAB	NDB$B_NONPRVACC(R8),R2	; ASSUME DEFAULT NON-PRIVILEGED ACCESS
            50       0000'CF     7D  008E 16200 	MOVQ	W^NET$GQ_ACCESS,R0	; GET THE ACCESS DESCRIPTOR
                          0D     14  0093 16300 	BGTR	70$			; IF GTR THE USER SPECIFIED INFO
                          03     13  0095 16400 	BEQL	60$			; IF EQL USE DEFAULT NON-PRIV ACCESS INFO
                                     0097 16500 ;
                                     0097 16600 ; DEFAULT PRIVILEGED ACCESS
                                     0097 16700 ;
            52            2C     C0  0097 16800 	ADDL	#<NDB$B_PRVACC-NDB$B_NONPRVACC>,R2 ; POINT TO PRIVILEGED ACCESS INFO
                                     009A 16900 60$:
            50            82     9A  009A 17000 	MOVZBL	(R2)+,R0		; GET LENGTH OF ACCESS INFO
                          0A     13  009D 17100 	BEQL	80$			; IF EQL THERE IS NONE - FORGET IT
            51            52     D0  009F 17200 	MOVL	R2,R1			; GET THE ADDRESS
                                     00A2 17300 70$:
                                     00A2 17400
                                     00A2 17500 	ASSUME	NET_M_ACCNTRL EQ 1
                                     00A2 17600
                       FF A3     96  00A2 17700 	INCB	-1(R3)			; INDICATE ACCESS CONTROL IN MENU BYTE
            61            50     28  00A5 17800 	MOVC3	R0,(R1),(R3)		; STUFF THE ACCESS CONTROL INFO
                          63         00A8
                                     00A9 17900 80$:
                          20     BA  00A9 18000 	POPR	#^M<R5>			; RESTORE UCB ADDRESS
                                     00AB 18100 ;
                                     00AB 18200 ; START A CONNECT TIMEOUT
                                     00AB 18300 ;
            50         4F A8     9A  00AB 18400 	MOVZBL	NDB$B_CONNTMO(R8),R0	; GET NO. OF SECONDS
                          1F     13  00AF 18500 	BEQL	100$			; IF EQL NO TIMEOUT
            51       0000'CF     7E  00B1 18600 	MOVAQ	W^NET$AB_UTLBUF,R1	; GET ADDRESS OF QUADWORD BUFFER
            50   FF676980 8F     7A  00B6 18700 	EMUL	#-10000000.,R0,#0,(R1)	; GET DELTA TIME
            61            00         00BD
                                     00BF 18800 	$SETIMR_S	DAYTIM=(R1),-	; START THE TIME OUT
                                     00BF 18900 			ASTADR=W^NET$SET_TIM_AST,-
                                     00BF 19000 			REQIDT=R5	; USE THE UCB ADDRESS AS AN IDENTIFIER
                                     00D0 19100 ;
                                     00D0 19200 ; PICK UP USRDATA, IF ANY
                                     00D0 19300 ;
                                     00D0 19400 100$:
                          5A     95  00D0 19500 	TSTB	R10			; ANYTHING THERE?
                          04     14  00D2 19600 	BGTR	150$			; IF GTR THERE MAY BE DATA
                          83     94  00D4 19700 	CLRB	(R3)+			; COUNT BYTE OF 0
                          22     11  00D6 19800 	BRB	225$			; PROCEED
                                     00D8 19900 150$:
NETCONMES       - FABRICATE AND TRANSMIT CONNECT MESSAGE         22-AUG-1978 00:50:12   VAX-11 MACRO X0.3-11               Page   6
X01             NET$CONMES                                                                                                       (1)

                          5A     DD  00D8 20000 	PUSHL	R10			; NEED TO SET UP R10,R11 IN A FUNNY WAY
            5A            5B     D0  00DA 20100 	MOVL	R11,R10			; MAKE IT LOOK LIKE AN INBOUND MSG
            5A            8E     C1  00DD 20200 	ADDL3	(SP)+,R10,R11		; POINT BEYOND "MESSAGE"
                          5B         00E0
            7E            55     7D  00E1 20300 	MOVQ	R5,-(SP)		; SAVE REGS
            56            10     D0  00E4 20400 	MOVL	#NET_MAXARG,R6		; SET TO CHECK I-FIELD IN NCB
                          FF16'  30  00E7 20500 	BSBW	NET$MOVE_IFIELD		; MOVE IT FROM NCB TO REAL MSG
            55            8E     7D  00EA 20600 	MOVQ	(SP)+,R5		; RESTORE UCB AND MSG ADDRESS
            0A            50     E8  00ED 20700 	BLBS	R0,225$			; IF BS OK
            50            56     D0  00F0 20800 	MOVL	R6,R0			; MESSAGE NO GOOD - DEALLOCATE IT
                          FF0A'  30  00F3 20900 	BSBW	NET$DEANONPAGED		; BYE-BYE BUFFER
                                     00F6 21000 200$:
                          FF07'  30  00F6 21100 	BSBW	NET$BAD_ACCESS		; THE CONNECT WAS NO GOOD
                                 04  00F9 21200 	RET				; DONE
                                     00FA 21300 225$:
                       18 A5     B5  00FA 21400 	TSTW	UCB$W_DSTADDR(R5)	; CONNECT CONFIRM OR INITIATE?
                          07     13  00FD 21500 	BEQL	250$			; IF EQL CONNECT INIT
                                     00FF 21600 ;
                                     00FF 21700 ; SENDING A CONNECT CONFIRM - THIS USER'S ACCESS IS COMPLETE
                                     00FF 21800 ;
                          53     DD  00FF 21900 	PUSHL	R3			; SAVE MSG END ADDR
                          FEFC'  30  0101 22000 	BSBW	NET$GOOD_ACCESS		; POST THE SUCCESSFUL ACCESS
                          08     BA  0104 22100 	POPR	#^M<R3>			; RESTORE MSG END ADDR
                                     0106 22200 250$:
            57         1A A5     9A  0106 22300 	MOVZBL	UCB$W_SRCADDR(R5),R7	; GET VECTOR INDEX
       FFFC'CF47          55     D0  010A 22400 	MOVL	R5,W^NET$AL_UCBVCT-4[R7] ; STORE ADDRESS
            54            8E     F7  0110 22500 	CVTLW	(SP)+,R4		; GET THE CHANNEL NUMBER
                          FEEA'  30  0113 22600 	BSBW	NET$XMT_MSG		; SEND THE MSG
                                     0116 22700 	UPDATE	ACTLNKS			; ANOTHER ACTIVE LINK
       0000'CF       0000'CF     B1  011E 22800 	CMPW	W^NET$GW_ACTLNKS,W^NET$GW_HIGHLNKS ; SEE IF NEW MAX REACHED
                          07     1B  0125 22900 	BLEQU	300$			; IF LEQU NO
       0000'CF       0000'CF     B0  0127 23000 	MOVW	W^NET$GW_ACTLNKS,W^NET$GW_HIGHLNKS ; NEW HIGHWATER MARK
                                     012E 23100 300$:
                                 04  012E 23200 	RET				; DONE
NETCONMES       - FABRICATE AND TRANSMIT CONNECT MESSAGE         22-AUG-1978 00:50:12   VAX-11 MACRO X0.3-11               Page   7
X01             RECEIVE CONNECT INIT MSG                                                                                         (1)

                                     012F 23400 	.SBTTL	RECEIVE CONNECT INIT MSG
                                     012F 23500 ;++
                                     012F 23600 ; FUNCTIONAL DESCRIPTION:
                                     012F 23700 ;
                                     012F 23800 ; NET$MCI - NSP CONNECT INITIATE MSG RCVD
                                     012F 23900 ;
                                     012F 24000 ;	ENTERED VIA CASE IN NETTRN
                                     012F 24100 ;
                                     012F 24200 ; INPUT PARAMETERS:
                                     012F 24300 ;
                                     012F 24400 ;	R10 - PTR TO MSG BFR
                                     012F 24500 ;	R11 - ADDRESS BEYOND END OF MSG
                                     012F 24600 ;
                                     012F 24700 ; SIDE EFFECTS:
                                     012F 24800 ;
                                     012F 24900 ;	WILL SEND DISCONNECT CONFIRM MESSAGE IF CONNECT INIT NO GOOD OR
                                     012F 25000 ;	WILL FIRE UP TARGET IMAGE.
                                     012F 25100 ;
                                     012F 25200 ;--
                                     012F 25300 NET$MCI::
                                     012F 25400 ;
                                     012F 25500 ; CHECK FOR ALLOWABLE CONNECTS
                                     012F 25600 ;
            58            03     B0  012F 25700 	MOVW	#NET$C_DR_SHUT,R8	; ASSUME NODE OFF OR SHUT, OR LINE OFF
                          FECB'  30  0132 25800 	BSBW	NET$FND_NDB_CHN		; FIND THE NDB
                          5E     13  0135 25900 	BEQL	30$			; IF EQL THE LIN WENT AWAY
         17 A9            01     E0  0137 26000 	BBS	#NDB$V_OFF,NDB$B_STATUS(R9),5$ ; IF BS, LINE OFF
                          1B         013B
       0000'CF            01     E0  013C 26100 	BBS	#NDB$V_OFF,W^NET$GB_MYSTATUS,5$ ; IF BS I AM OFF
                          15         0141
                     0000'CF     B5  0142 26200 	TSTW	W^NET$GW_CHANNEL	; IS THIS A LOCAL CONNECT?
                          06     13  0146 26300 	BEQL	2$			; IF EQL YES - PROCEED
       0000'CF            02     E0  0148 26400 	BBS	#NDB$V_SHUT,W^NET$GB_MYSTATUS,5$ ; IF BS, NODE SHUT
                          09         014D
                                     014E 26500 2$:
                                     014E 26600 ;
                                     014E 26700 ; CHECK FOR VALID LINK ADDRESSES
                                     014E 26800 ;
            58            15     B0  014E 26900 	MOVW	#NET$C_DR_NONZ,R8	; ASSUME NON-ZERO DSTADDR
                     0000'CF     B5  0151 27000 	TSTW	W^NET$GW_DSTADDR	; IS IT?
                          02     13  0155 27100 	BEQL	7$			; IF EQL OK
                          7B     11  0157 27200 5$:	BRB	MCI_ERROR		; ERROR
                                     0159 27300 7$:
                                     0159 27400 ;
                                     0159 27500 ; SEE IF THERE WAS ALREADY A CI OF THIS DESCRIPTION
                                     0159 27600 ;
            58       0000'CF     9A  0159 27700 	MOVZBL	W^NET$GW_MAXLNK,R8	; SET TO SCAN UCB VECTOR
                                     015E 27800 10$:
            50       FFFC'CF48   D0  015E 27900 	MOVL	W^NET$AL_UCBVCT-4[R8],R0 ; FETCH NEXT UCB ADDRESS
                          16     13  0164 28000 	BEQL	20$			; IF EQL NOT THERE
       0000'CF         18 A0     B1  0166 28100 	CMPW	UCB$W_DSTADDR(R0),W^NET$GW_SRCADDR ; SRCADDR'S MATCH?
                          0E     12  016C 28200 	BNEQ	20$			; IF NEQ NO
            56       0000'CF     DE  016E 28300 	MOVAL	W^NET$GT_DSTNODE,R6	; SET TO COMPARE NODE NAMES
            57         0C A0     DE  0173 28400 	MOVAL	UCB$T_PARTNER(R0),R7	;
                          FE86'  30  0177 28500 	BSBW	NET$COMP_STRING		; COMPARE THE NAMES
                          19     13  017A 28600 	BEQL	30$			; IF EQL THIS CI IS SPURIOUS
            DF            58     F5  017C 28700 20$:	SOBGTR	R8,10$			; LOOP
NETCONMES       - FABRICATE AND TRANSMIT CONNECT MESSAGE         22-AUG-1978 00:50:12   VAX-11 MACRO X0.3-11               Page   8
X01             RECEIVE CONNECT INIT MSG                                                                                         (1)

                          5C     10  017F 28800 	BSBB	PARSE_CON		; PARSE THE REST OF THE CONNECT MSG
            50            50     E9  0181 28900 	BLBC	R0,MCI_ERROR		; IF LBC ERROR
                                     0184 29000 ;
                                     0184 29100 ; CONNECT INITIATE MESSAGE SUCCESSSFULLY PARSED -
                                     0184 29200 ; VALIDATE ACCESS AND START USER IF OK.
                                     0184 29300 ;
            53            59     C3  0184 29400 	SUBL3	R9,R3,W^NET$GQ_UTLDESC	; COMPUTE NCB LTH
                     0000'CF         0187
                          FE73'  30  018A 29500 	BSBW	NET$START_USER		; TRY TO START UP THE USER
                                     018D 29600 	UPDATE	INCI			; ANOTHER INBOUND CONNECT
                          FE68'  31  0195 29700 30$:	BRW	NET$AST_EXIT		; TERMINATE
NETCONMES       - FABRICATE AND TRANSMIT CONNECT MESSAGE         22-AUG-1978 00:50:12   VAX-11 MACRO X0.3-11               Page   9
X01             CONNECT CONFIRM MSG RCVD                                                                                         (1)

                                     0198 29900 	.SBTTL	CONNECT CONFIRM MSG RCVD
                                     0198 30000 ;++
                                     0198 30100 ; FUNCTIONAL DESCRIPTION:
                                     0198 30200 ;
                                     0198 30300 ; NET$MCC - PROCESS CONNECT CONFIRM - MUCH LIKE INIT
                                     0198 30400 ;
                                     0198 30500 ;	ENTERED VIA CASE IN NET$TRN
                                     0198 30600 ;
                                     0198 30700 ; INPUT PARAMETERS:
                                     0198 30800 ;
                                     0198 30900 ;	R5 - UCB ADDRESS
                                     0198 31000 ;	R10 - PTR TO CURRENT MSG BYTE
                                     0198 31100 ;	R11 - PTR BEYOND END OF MSG
                                     0198 31200 ;
                                     0198 31300 ;--
                                     0198 31400
                                     0198 31500 NET$MCC::
            58            17     B0  0198 31600 	MOVW	#NET$C_DR_ZERO,R8	; ASSUME HE FORGOT MY LINK ADDRESS
                          55     D5  019B 31700 	TSTL	R5			; IS THERE A UCB?
                          1E     13  019D 31800 	BEQL	MCC_ERROR		; IF EQL NO - ABORT THE CONNECT
                          55     DD  019F 31900 	PUSHL	R5			; SAVE UCB ADDRESS
                          3A     10  01A1 32000 	BSBB	PARSE_CON		; PARSE THE REST OF THE CONNECT
                          20     BA  01A3 32100 	POPR	#^M<R5>			; RESTORE UCB ADDRESS
            15            50     E9  01A5 32200 	BLBC	R0,MCC_ERROR		; IF LBC ERROR
                          59     D6  01A8 32300 	INCL	R9			; POINT PAST OPTDATA COUNT BYTE
            5A            89     9E  01AA 32400 	MOVAB	(R9)+,R10		; SET BFR ADDR AND ACCOUNT FOR ENDING "
            53            59     C3  01AD 32500 	SUBL3	R9,R3,R8		; COMPUTE NO. OF BYTES OF OPTIONAL DATA
                          58         01B0
            57            31     3C  01B1 32600 	MOVZWL	#MSG$_CONFIRM,R7	; THIS IS A CONFIRM
                          FE49'  30  01B4 32700 	BSBW	NET$ATTENTION		; POST THE ATTENTION
                          FE46'  30  01B7 32800 	BSBW	NET$GOOD_ACCESS		; COMPLETE THE USER'S I/O WITH SUCCESS
                          FE43'  31  01BA 32900 	BRW	NET$AST_EXIT		; DONE
                                     01BD 33000
                                     01BD 33100 ;
                                     01BD 33200 ; CONNECT CONFIRM WAS BAD - ABORT THE CONNECT AND SEND DISCONNECT CONFIRM
                                     01BD 33300 ;
                                     01BD 33400
                                     01BD 33500 MCC_ERROR:
                          58     DD  01BD 33600 	PUSHL	R8			; SAVE REASON CODE
                          FE3E'  30  01BF 33700 	BSBW	NET$SHUTDOWN		; CLEAN UP THE DATA BASE
       0000'CF       0000'8F     3C  01C2 33800 	MOVZWL	#SS$_REJECT,W^NET$GQ_USR_STAT ; SAY "REJECT"
       0004'CF            07     D0  01C9 33900 	MOVL	S^#NET$C_DR_PROTCL,W^NET$GQ_USR_STAT+4 ; AND THE REASON
                          FE2F'  30  01CE 34000 	BSBW	NET$BAD_ACCESS		; TERMINATE THE USER'S I/O WITH FAILURE
                          58   8ED0  01D1 34100 	POPL	R8			; RESTORE REASON CODE
                                     01D4 34200 					; FALL THROUGH TO COMMON CODE
                                     01D4 34300 ;
                                     01D4 34400 ; ERROR IN CONNECT INITIATE - SEND DISCONNECT CONFIRM W/REASON (IN R8).
                                     01D4 34500 ;
                                     01D4 34600 MCI_ERROR:
                          55     D4  01D4 34700 	CLRL	R5			; NO UCB
                          FE27'  30  01D6 34800 	BSBW	NET$XMT_DC		; SEND A DISCONNECT CONFIRM
                          FE24'  30  01D9 34900 	BSBW	NET$DEALLOC_BUF		; DEALLOCATE THE CONNECT MESSAGE
                                 04  01DC 35000 	RET				; DONE
NETCONMES       - FABRICATE AND TRANSMIT CONNECT MESSAGE         22-AUG-1978 00:50:12   VAX-11 MACRO X0.3-11               Page  10
X01             PARSE FIELDS IN CONNECT MSG                                                                                      (1)

                                     01DD 35200 	.SBTTL	PARSE FIELDS IN CONNECT MSG
                                     01DD 35300 ;++
                                     01DD 35400 ; FUNCTIONAL DESCRIPTION:
                                     01DD 35500 ;
                                     01DD 35600 ; PARSE_CON - PARSE NAME AND OPTDATA FIELDS IN CONNECT MSGS
                                     01DD 35700 ;		AND PUT CONNECT BLOCK IN USER'S MAILBOX
                                     01DD 35800 ;
                                     01DD 35900 ; CALLING SEQUENCE:
                                     01DD 36000 ;
                                     01DD 36100 ;	BSB	PARSE_CON
                                     01DD 36200 ;
                                     01DD 36300 ; INPUT PARAMETERS:
                                     01DD 36400 ;
                                     01DD 36500 ;	R2 - UCB ADDRESS
                                     01DD 36600 ;	R5 - UCB ADDRESS (CC) OR 0 (CI)
                                     01DD 36700 ;	R10 - PTR TO LINK SERVICES BYTE
                                     01DD 36800 ;	R11 - PTR BEYOND END OF MSG
                                     01DD 36900 ;
                                     01DD 37000 ; OUTPUT PARAMETERS:
                                     01DD 37100 ;
                                     01DD 37200 ;	R0 - LBS=>SUCCESS, LBC=>FAILURE
                                     01DD 37300 ;	R3 - ADDR+1 OF LAST BYTE OF NCB IF R0 LBS
                                     01DD 37400 ;	R5 - PHYSICAL UCB ADDRESS IF CONNECT INITIATE MESSAGE
                                     01DD 37500 ;	R8 - DISCONNECT ERROR CODE IF R0 LBC
                                     01DD 37600 ;	R9 - ADDR OF FIRST BYTE OF NCB
                                     01DD 37700 ;	R10 - UPDATED
                                     01DD 37800 ;
                                     01DD 37900 ; SIDE EFFECTS:
                                     01DD 38000 ;
                                     01DD 38100 ;	R1,R3,R5,R7 CLOBBERED
                                     01DD 38200 ;
                                     01DD 38300 ;--
                                     01DD 38400
                                     01DD 38500 PARSE_CON:
                          50     D4  01DD 38600 	CLRL	R0			; ASSUME ERROR
                     0044'CF     94  01DF 38700 	CLRB	W^CONFIRM_FLAG		; ASSUME CONNECT INITIATE
                                     01E3 38800 ;
                                     01E3 38900 ; PROCESS LINK SERVICES FIELD
                                     01E3 39000 ;
            58            23     B0  01E3 39100 	MOVW	#NET$C_DR_BADSRV,R8	; ASSUME LINK SERVICES PROBLEM
                                     01E6 39200 	BMSGOV	5$			; ERROR IF FIELD NOT THERE
                                     01EB 39300 	COMPARE	NET,LTYPE,(R10),#NET$C_LOGLNK ; IS THIS A LOGICAL LINK?
                          74     12  01F0 39400 	BNEQ	30$			; IF NEQ NO - ILLEGAL
            6A            04     E0  01F2 39500 	BBS	#NET$V_ACKOPT,(R10),30$	; IF BS ERROR - NO MSG ACK/NAK
                          70         01F5
       0000'CF            8A     90  01F6 39600 	MOVB	(R10)+,W^NET$GB_TMP_SRV	; STORE LINK SERVICES REQUESTED BY PARTNER
                                     01FB 39700 ;
                                     01FB 39800 ; PROCESS INFO FIELD
                                     01FB 39900 ;
            58            07     B0  01FB 40000 	MOVW	#NET$C_DR_PROTCL,R8	; ASSUME PROTOCOL ERROR (SHORT MSG)
                                     01FE 40100 5$:	BMSGOV	30$			; IF NO INFO - ERROR
                                     0203 40200 	INSERT	(R10),UCB,LNKPRI,W^NET$GB_TMP_SRV ; STORE PRIORITY
                          5A     D6  020A 40300 	INCL	R10			; BUMP MSG PTR
                                     020C 40400 ;
                                     020C 40500 ; STORE SEGSIZE
                                     020C 40600 ;
                                     020C 40700 	BMSGOV	30$,2			; NEED 2 BYTES
NETCONMES       - FABRICATE AND TRANSMIT CONNECT MESSAGE         22-AUG-1978 00:50:12   VAX-11 MACRO X0.3-11               Page  11
X01             PARSE FIELDS IN CONNECT MSG                                                                                      (1)

       0000'CF            8A     B0  0214 40800 	MOVW	(R10)+,W^NET$GW_TMP_SEG	; STORE SEGSIZE
                                     0219 40900
                                     0219 41000 ;
                                     0219 41100 ; PROCESS DATA FIELD
            59       0000'CF     9E  0219 41200 	MOVAB	W^NET$AB_UTLBUF,R9	; SAVE THE BASE ADDRESS
            53            59     D0  021E 41300 	MOVL	R9,R3			; SET UP FOR STRING MOVES
                          55     D5  0221 41400 	TSTL	R5			; CC?
                          19     13  0223 41500 	BEQL	20$			; IF EQL CI
         3D A5       0000'CF     90  0225 41600 	MOVB	W^NET$GB_TMP_SRV,UCB$B_REMSRV(R5) ; SET SERVICES
         3A A5       0000'CF     B0  022B 41700 	MOVW	W^NET$GW_TMP_SEG,UCB$W_DEVBUFSIZ(R5) ; SET SEGSIZE
         18 A5       0000'CF     B0  0231 41800 	MOVW	W^NET$GW_SRCADDR,UCB$W_DSTADDR(R5) ; GET PARTNER'S ID
                     0044'CF     96  0237 41900 	INCB	W^CONFIRM_FLAG		; MARK AS CONFIRM
                          011B   31  023B 42000 	BRW	150$			; CHECK FOR OPTIONAL DATA
                                     023E 42100 20$:
                                     023E 42200 ;
                                     023E 42300 ; PICK UP THE DESTINATION PROCESS NAME (MY GUY)
                                     023E 42400 ;
                          5A     DD  023E 42500 	PUSHL	R10			; SAVE POINTER TO DEST PROC DESC
                          0148   30  0240 42600 	BSBW	GET_FMT			; PICK UP THE FORMAT BYTE
            1E            50     E9  0243 42700 	BLBC	R0,25$			; IF LBC ERROR
       0000'CF            51     90  0246 42800 	MOVB	R1,W^NET$GB_DSTOBJ	; OBJTYP ONLY?
                          1A     13  024B 42900 	BEQL	40$			; IF EQL YES
                          0161   30  024D 43000 	BSBW	GET_DESC		; PICK UP THE DESCRIPTOR
            11            50     E9  0250 43100 	BLBC	R0,25$			; IF LBC ERROR
            53            5A     D0  0253 43200 	MOVL	R10,R3			; DUMMY DESTINATION
       0000'CF            5A     D0  0256 43300 	MOVL	R10,W^NET$GQ_ACCESS	; SAVE POINTER TO FILE
            56            10     D0  025B 43400 	MOVL	#NET_MAXFMTLTH,R6	; MAX FIELD LTH
                          FD9F'  30  025E 43500 	BSBW	NET$MOVE_IFIELD		; MOVE FIELD IN PLACE TO CHECK VALIDITY
            24            50     E8  0261 43600 	BLBS	R0,80$			; IF LBS PROCEED
                          8E     D5  0264 43700 25$:	TSTL	(SP)+			; CLEAN UP THE STACK
                                 05  0266 43800 30$:	RSB				; ERROR
                                     0267 43900
                                     0267 44000 40$:
            50       0000'CF     D0  0267 44100 	MOVL	W^NET$GL_OBJCOUNT,R0	; GET NO. OF OBJECTS
            51       0000'CF     D0  026C 44200 	MOVL	W^NET$GL_OBJNAMES,R1	; POINT TO LIST OF OBJECTS
            58            04     B0  0271 44300 	MOVW	#NET$C_DR_NOBJ,R8	; ASSUME UNKNOWN OBJECT TYPE
                                     0274 44400 50$:
            57         09 A1     91  0274 44500 	CMPB	OBJ$B_NUMBER(R1),R7	; OBJECT TYPES MATCH?
                          08     13  0278 44600 	BEQL	70$			; IF EQL YES
            51            20     C0  027A 44700 	ADDL	#OBJ$C_SIZE,R1		; UPDATE THE POINTER
            F4            50     F5  027D 44800 	SOBGTR	R0,50$			; LOOP
                          E2     11  0280 44900 	BRB	25$			; RETURN WITH FAILURE
                                     0282 45000 70$:
       0000'CF         0A A1     DE  0282 45100 	MOVAL	OBJ$B_FILE(R1),W^NET$GQ_ACCESS ; SAVE POINTER TO FILE NAME
                                     0288 45200 80$:
            53            59     D0  0288 45300 	MOVL	R9,R3			; RESTORE BASE ADDRESS
                                     028B 45400 ;
                                     028B 45500 ; STORE NODENAME::
                                     028B 45600 ;
            51       0000'CF     9E  028B 45700 	MOVAB	W^NET$GT_DSTNODE,R1	; POINT TO NODENAME STRING
            50            81     9A  0290 45800 	MOVZBL	(R1)+,R0		; PICK UP LTH
            61            50     28  0293 45900 	MOVC3	R0,(R1),(R3)		; MOVE IN NODENAME
                          63         0296
            83       3A3A 8F     B0  0297 46000 	MOVW	#^A/::/,(R3)+		; NODENAME DELIMITER
            83            22     90  029C 46100 	MOVB	#^A/"/,(R3)+		; STORE THE TASK DELIMITER
       0000'CF            6E     D0  029F 46200 	MOVL	(SP),W^NET$GL_RES_PTR	; SAVE PTR TO DEST DESCR
            5A            8E     C3  02A4 46300 	SUBL3	(SP)+,R10,W^NET$GL_RES_LTH ; GET NO. OF BYTES
NETCONMES       - FABRICATE AND TRANSMIT CONNECT MESSAGE         22-AUG-1978 00:50:12   VAX-11 MACRO X0.3-11               Page  12
X01             PARSE FIELDS IN CONNECT MSG                                                                                      (1)

                     0000'CF         02A7
                                     02AA 46400 ;
                                     02AA 46500 ; PROCESS SRCNAME FIELD
                                     02AA 46600 ;
                          00DE   30  02AA 46700 	BSBW	GET_FMT			; PICK UP THE FORMAT BYTE
            2F            50     E9  02AD 46800 95$:	BLBC	R0,110$			; IF LBC ERROR
            50            57     D0  02B0 46900 	MOVL	R7,R0			; SET TO CONVERT OBJTYPE
                          51     DD  02B3 47000 	PUSHL	R1			; SAVE FORMAT TYPE
                          FD48'  30  02B5 47100 	BSBW	NET$BIN2ASC		; CONVERT TO ASCII
            83            3D     90  02B8 47200 	MOVB	#^A/=/,(R3)+		; STORE DESCRIPTOR DELIMITER
                          51   8ED0  02BB 47300 	POPL	R1			; RESTORE FMT AND SET CONDITION CODES
                          0C     13  02BE 47400 	BEQL	100$			; IF EQL OBJTYPE ONLY
                          00EE   30  02C0 47500 	BSBW	GET_DESC		; VALIDATE THE DESCRIPTOR
            19            50     E9  02C3 47600 	BLBC	R0,110$			; IF LBC ERROR
                          FD37'  30  02C6 47700 	BSBW	NET$MOVE_FIELD		; MOVE IN AN UNCOUNTED STRING
            13            50     E9  02C9 47800 	BLBC	R0,110$			; IF LBC ERROR
                                     02CC 47900
                                     02CC 48000 100$:
            83            2F     90  02CC 48100 	MOVB	#^A?/?,(R3)+		; STORE TASK DESCRIPTOR DELIMITER
            58            17     B0  02CF 48200 	MOVW	#NET$C_DR_ZERO,R8	; ASSUME BAD SOURCE ADDRESS
       0000'CF            83     3E  02D2 48300 	MOVAW	(R3)+,W^NET$GL_NAME_PTR	; SAVE ADDRESS FOR CIR INDEX AND SEQUENCE
                     0000'CF     B5  02D7 48400 	TSTW	W^NET$GW_SRCADDR	; DID HE HAVE A LINK ADDRESS?
                          03     12  02DB 48500 	BNEQ	120$			; IF NEQ OK
                          50     D4  02DD 48600 105$:	CLRL	R0			; FLAG ERROR
                                 05  02DF 48700 110$:	RSB				; TERMINATE PARSE
                                     02E0 48800 ;
                                     02E0 48900 ; PICK UP ACCESS CONTROL INFO
                                     02E0 49000 ;
                                     02E0 49100 120$:
            58            22     B0  02E0 49200 	MOVW	#NET$C_DR_ACCESS,R8	; ASSUME PROBLEM WITH ACCESS CONTROL
                                     02E3 49300 	BMSGOV	105$			; NEED MENU BYTE
            57            8A     9A  02E8 49400 	MOVZBL	(R10)+,R7		; PICK UP THE MENU BYTE
                                     02EB 49500
                                     02EB 49600 	ASSUME	NET_V_ACCNTRL EQ 0
                                     02EB 49700
            03            57     E8  02EB 49800 	BLBS	R7,125$			; IF BS OK
                          0097   31  02EE 49900 	BRW	160$			; MESSAGE IS NO GOOD
                                     02F1 50000 125$:
                          53     DD  02F1 50100 	PUSHL	R3			; SAVE BUFFER ADDRESS
            58            2B     B0  02F3 50200 	MOVW	#NET$C_DR_IMLONG,R8	; ASSUME PROBLEM WITH IMAGE FIELDS
                                     02F6 50300 ;
                                     02F6 50400 ; GET RQSTRID FIELD
                                     02F6 50500 ;
            53       0008'CF     DE  02F6 50600 	MOVAL	W^NET$AB_ACC_BUF,R3	; INIT BFR PTR
            56            10     9A  02FB 50700 	MOVZBL	#NET$C_RQSTRLTH,R6	; MAX FIELD LTH
                          FCFF'  30  02FE 50800 	BSBW	NET$MOVE_IFIELD		; CHECK AND MOVE THE IMAGE FIELD
            12            50     E9  0301 50900 	BLBC	R0,130$			; IF LBC ERROR
                                     0304 51000 ;
                                     0304 51100 ; GET PASSWRD FIELD
                                     0304 51200 ;
            56            08     9A  0304 51300 	MOVZBL	#NET$C_PSWRDLTH,R6	; MAX FIELD LTH
                          FCF6'  30  0307 51400 	BSBW	NET$MOVE_IFIELD		; CHECK AND MOVE THE IMAGE FIELD
            09            50     E9  030A 51500 	BLBC	R0,130$			; IF LBC ERROR
                                     030D 51600 ;
                                     030D 51700 ; GET ACCOUNT FIELD
                                     030D 51800 ;
            56            10     9A  030D 51900 	MOVZBL	#NET$C_ACCNTLTH,R6	; MAX FIELD LTH
NETCONMES       - FABRICATE AND TRANSMIT CONNECT MESSAGE         22-AUG-1978 00:50:12   VAX-11 MACRO X0.3-11               Page  13
X01             PARSE FIELDS IN CONNECT MSG                                                                                      (1)

                          FCED'  30  0310 52000 	BSBW	NET$MOVE_IFIELD		; CHECK AND MOVE THE IMAGE FIELD
            03            50     E8  0313 52100 	BLBS	R0,140$			; IF LBS OK
                          8E     D5  0316 52200 130$:	TSTL	(SP)+			; POP THE STACK
                                 05  0318 52300 	RSB				; DONE
                                     0319 52400 ;
                                     0319 52500 ; SET UP THE ACCESS CONTROL STRING
                                     0319 52600 ;
                                     0319 52700 140$:
            58       0000'CF     DE  0319 52800 	MOVAL	W^NET$GQ_ACCESS,R8	; POINT TO FILE NAME POINTER
                     0000'CF     95  031E 52900 	TSTB	W^NET$GB_DSTOBJ		; WAS THAT AN OBJECT TYPE CONNECT?
                          19     12  0322 53000 	BNEQ	145$			; IF NEQ NO
                          53     DD  0324 53100 	PUSHL	R3			; SAVE POINTER TO COUNT BYTE
            51       000B'CF     DE  0326 53200 	MOVAL	W^SYSTEM_STRING,R1	; POINT TO FILE PREFIX
                          FCD2'  30  032B 53300 	BSBW	NET$MOVE_STRING		; MOVE IT IN TO THE BUFFER
            51            68     D0  032E 53400 	MOVL	(R8),R1			; GET ADDRESS OF COM FILE STRING
            50            81     9A  0331 53500 	MOVZBL	(R1)+,R0		; GET THE STRING LTH
            9E            50     80  0334 53600 	ADDB2	R0,@(SP)+		; UPDATE THE COUNTED STRING COUNT
            61            50     28  0337 53700 	MOVC3	R0,(R1),(R3)		; MOVE IN THE FILE NAME
                          63         033A
                          06     11  033B 53800 	BRB	147$			; PROCEED
                                     033D 53900 145$:
            51            68     D0  033D 54000 	MOVL	(R8),R1			; GET POINTER TO COUNTED STRING
                          FCBD'  30  0340 54100 	BSBW	NET$MOVE_STRING		; MOVE FILE NAME INTO BUFFER
                                     0343 54200 147$:
                     0008'CF     DF  0343 54300 	PUSHAL	W^NET$AB_ACC_BUF	; SET TO COMPUTE LTH
            53            6E     C3  0347 54400 	SUBL3	(SP),R3,(R8)+		; PUT LTH INTO DESCRIPTOR
                          88         034A
                          68   8ED0  034B 54500 	POPL	(R8)			; STORE THE ADDRESS
                                     034E 54600 ;
                                     034E 54700 ; CHECK FOR OPTIONAL DATA
                                     034E 54800 ;
            53            6E     D0  034E 54900 	MOVL	(SP),R3			; RETRIEVE NCB PTR
            57            01     E0  0351 55000 	BBS	#NET_V_USRDATA,R7,150$	; IF BS USRDATA
                          04         0354
                          83     94  0355 55100 	CLRB	(R3)+			; NO DATA
                          0C     11  0357 55200 	BRB	155$			; PUT IN DESCRIPTOR
                                     0359 55300 150$:
            56            10     9A  0359 55400 	MOVZBL	#NET_MAXARG,R6		; SET TO CHECK OPTIONAL ARGS
            58            2B     B0  035C 55500 	MOVW	#NET$C_DR_IMLONG,R8	; ASSUME IMAGE FIELD TOO LONG
                          FC9E'  30  035F 55600 	BSBW	NET$MOVE_IFIELD		; MOVE THE OPTIONAL ARGS
            25            50     E9  0362 55700 	BLBC	R0,PARSE_DONE		; IF LBC ERROR
                                     0365 55800 155$:
            58            07     B0  0365 55900 	MOVW	#NET$C_DR_PROTCL,R8	; ASSUME PROTOCOL ERROR
       0044'CF            00     E4  0368 56000 	BBSC	#0,W^CONFIRM_FLAG,157$	; IF CONFIRM, NO DST DESCR
                          15         036D
            8E            11     C1  036E 56100 	ADDL3	#NET_MAXARG+1,(SP)+,R3	; ADJUST PTR FOR DST DESCR
                          53         0371
       0000'DF       0000'CF     28  0372 56200 	MOVC3	W^NET$GL_RES_LTH,@W^NET$GL_RES_PTR,(R3) ; MOVE IT TO NCB
                          63         0379
            57         83 8F     8A  037A 56300 	BICB	#<<1@7>!NET_M_USRDATA!NET_M_ACCNTRL>,R7 ; SEE IF ANY BAD BITS SET
                          08     12  037E 56400 	BNEQ	160$			; IF NEQ YES
            50            01     D0  0380 56500 	MOVL	#1,R0			; ASSUME SUCCESS
                                     0383 56600 157$:
            83            22     90  0383 56700 	MOVB	#^A/"/,(R3)+		; STORE THE TASK DELIMITER
                          02     11  0386 56800 	BRB	PARSE_DONE		; DONE
                          50     D4  0388 56900 160$:	CLRL	R0			; INDICATE ERROR
                                     038A 57000 PARSE_DONE:
NETCONMES       - FABRICATE AND TRANSMIT CONNECT MESSAGE         22-AUG-1978 00:50:12   VAX-11 MACRO X0.3-11               Page  14
X01             PARSE FIELDS IN CONNECT MSG                                                                                      (1)

                                 05  038A 57100 	RSB				; DONE
NETCONMES       - FABRICATE AND TRANSMIT CONNECT MESSAGE         22-AUG-1978 00:50:12   VAX-11 MACRO X0.3-11               Page  15
X01             PARSE FIELDS IN CONNECT MSG                                                                                      (1)

                                     038B 57300 ; GET_FMT - THIS ROUTINE VALIDATES OBJECT TYPES AND FORMAT TYPES
                                     038B 57400 ;
                                     038B 57500 ; INPUT PARAMETERS:
                                     038B 57600 ;
                                     038B 57700 ;	R10 - MSG PTR
                                     038B 57800 ;
                                     038B 57900 ; OUTPUT PARAMETERS:
                                     038B 58000 ;
                                     038B 58100 ;	R0 - LBS=>SUCCESS, LBC=>FAILURE
                                     038B 58200 ;	R1 - FMT TYPE
                                     038B 58300 ;	R7 - OBJTYP
                                     038B 58400 ;	R8 - FORMAT ERROR CODE IF R0 LBC
                                     038B 58500 ;
                                     038B 58600
                                     038B 58700 GET_FMT:
            58            05     B0  038B 58800 	MOVW	#NET$C_DR_FMT,R8	; ASSUME FORMAT ERROR
                          50     D4  038E 58900 	CLRL	R0			; ASSUME FAILURE
                                     0390 59000 	BMSGOV	100$,2			; SEE IF FORMAT AND OBJECT TYPE PRESENT
            51            8A     9A  0398 59100 	MOVZBL	(R10)+,R1		; MOVE IN THE FORMAT TYPE
                          13     19  039B 59200 	BLSS	100$			; IF LSS ILLEGAL FORMAT
                          07     12  039D 59300 	BNEQ	20$			; IF NEQ NOT OBJTYPE ONLY
            57            8A     9A  039F 59400 	MOVZBL	(R10)+,R7		; GET THE OBJECT TYPE
                          0C     13  03A2 59500 	BEQL	100$			; IF EQL NG - 0 MUST HAVE DESCR
                          08     11  03A4 59600 	BRB	30$			; SUCCESS
                                     03A6 59700 20$:
            02            51     91  03A6 59800 	CMPB	R1,#NET_MAXFMT		; VALID FORMAT?
                          05     1A  03A9 59900 	BGTRU	100$			; IF GTRU NO
            57            8A     9A  03AB 60000 	MOVZBL	(R10)+,R7		; GET THE OBJECT TYPE BYTE
                                     03AE 60100 30$:
                          50     D6  03AE 60200 	INCL	R0			; INDICATE SUCCESS
                                     03B0 60300 100$:
                                 05  03B0 60400 	RSB				; DONE
                                     03B1 60500
                                     03B1 60600 ; GET_DESC - THIS ROUTINE VALIDATES A DESCRIPTOR FIELD
                                     03B1 60700 ;
                                     03B1 60800 ; INPUT PARAMETERS:
                                     03B1 60900 ;
                                     03B1 61000 ;	R1 - FMT TYPE
                                     03B1 61100 ;	R10 - MSG PTR
                                     03B1 61200 ;
                                     03B1 61300 ; OUTPUT PARAMETERS:
                                     03B1 61400 ;
                                     03B1 61500 ;	R0 - LBS=>SUCCESS
                                     03B1 61600 ;	R0 - LBC=>FAILURE
                                     03B1 61700 ;	R6 - NO. OF CHARS IN FIELD
                                     03B1 61800 ;	R10 - MAY BE UPDATED (PAST UIC FIELDS)
                                     03B1 61900 ;
                                     03B1 62000
                                     03B1 62100 GET_DESC:
                          50     D4  03B1 62200 	CLRL	R0			; ASSUME FAILURE
            56            10     9A  03B3 62300 	MOVZBL	#NET_MAXFMTLTH,R6	; SET MAX LTH OF A FORMAT DESCRIPTOR
                          51     97  03B6 62400 	DECB	R1			; FORMAT 1?
                          0D     13  03B8 62500 	BEQL	30$			; IF EQL YES
                                     03BA 62600 	BMSGOV	100$,4			; NEED 4 BYTES OF GROUP/USER
            56            04     C2  03C2 62700 	SUBL	#4,R6			; 4 FEWER CHARS TO GET
                          8A     D5  03C5 62800 	TSTL	(R10)+			; MOVE PTR BY 4
                                     03C7 62900 30$:
NETCONMES       - FABRICATE AND TRANSMIT CONNECT MESSAGE         22-AUG-1978 00:50:12   VAX-11 MACRO X0.3-11               Page  16
X01             PARSE FIELDS IN CONNECT MSG                                                                                      (1)

                          50     D6  03C7 63000 	INCL	R0			; INDICATE SUCCESS
                                     03C9 63100 100$:
                                 05  03C9 63200 	RSB				; DONE
                                     03CA 63300
                                     03CA 63400 	.END
NETCONMES       - FABRICATE AND TRANSMIT CONNECT MESSAGE         22-AUG-1978 00:50:12   VAX-11 MACRO X0.3-11               Page  17
SYMBOL TABLE                                                                                                                     (1)

$$T2           = 00000004            NDB$C_MAINT    = 00000004            NET$C_DATREQ   = 00000000
BIT...         = 00000002            NDB$C_MSG_DCHK = 00000009            NET$C_DC       = 00000004
CONFIRM_FLAG     00000044 R     03   NDB$C_MSG_DOWN = 00000003            NET$C_DI       = 00000003
CTRSTR           00000000 R     04   NDB$C_MSG_DSRCH= 00000007            NET$C_DR_ABORT = 00000009
GBL...         = 00000001            NDB$C_MSG_LOOPB= 00000008            NET$C_DR_ACCESS= 00000022
GET_DESC         000003B1 R     05   NDB$C_MSG_MAINT= 00000002            NET$C_DR_ACCNT = 00000024
GET_FMT          0000038B R     05   NDB$C_MSG_NGINI= 00000004            NET$C_DR_BADFC = 00000018
MCC_ERROR        000001BD R     05   NDB$C_MSG_OKINI= 00000005            NET$C_DR_BADLNK= 00000016
MCI_ERROR        000001D4 R     05   NDB$C_MSG_SHUT = 00000006            NET$C_DR_BADSRV= 00000023
MSG$_ABOOPR    = 00000011            NDB$C_MSG_START= 00000001            NET$C_DR_CONF  = 0000002A
MSG$_ABORT     = 00000030            NDB$C_OFF      = 00000001            NET$C_DR_EXIT  = 00000026
MSG$_ACCRSP    = 00000021            NDB$C_ON       = 00000000            NET$C_DR_FMT   = 00000005
MSG$_CONFIRM   = 00000031            NDB$C_SHUT     = 00000002            NET$C_DR_IMLONG= 0000002B
MSG$_CONNECT   = 00000032            NDB$K_LENGTH     000000BC            NET$C_DR_LOSS  = 00000028
MSG$_CRUNSOLIC = 00000002            NDB$L_LINE_NAME  00000004            NET$C_DR_NOBJ  = 00000004
MSG$_DELPROC   = 00000003            NDB$L_NEXT       00000000            NET$C_DR_NOCON = 00000020
MSG$_DELSMB    = 00000014            NDB$M_CTL_LOOP = 00000008            NET$C_DR_NOLINK= 00000029
MSG$_DEVOFFLIN = 00000005            NDB$M_LOOPBACK = 00000001            NET$C_DR_NONZ  = 00000015
MSG$_DEVONLIN  = 00000007            NDB$M_OFF      = 00000002            NET$C_DR_NOPATH= 00000027
MSG$_DISCON    = 00000033            NDB$M_SHUT     = 00000004            NET$C_DR_NORMAL= 00000000
MSG$_EXIT      = 00000034            NDB$Q_AST        0000000C            NET$C_DR_PROTCL= 00000007
MSG$_INIOPR    = 00000010            NDB$Q_ZEROTIME   000000AC            NET$C_DR_RSU   = 00000001
MSG$_INTMSG    = 00000035            NDB$T_NAME       0000001A            NET$C_DR_SEGSIZ= 00000025
MSG$_OPREPLY   = 00000009            NDB$T_SYSVER     0000002E            NET$C_DR_SHUT  = 00000003
MSG$_OPRQST    = 00000008            NDB$V_CTL_LOOP = 00000003            NET$C_DR_THIRD = 00000008
MSG$_PATHLOST  = 00000036            NDB$V_LOOPBACK = 00000000            NET$C_DR_ZERO  = 00000017
MSG$_PROTOCOL  = 00000037            NDB$V_OFF      = 00000001            NET$C_INTREQ   = 00000001
MSG$_REJECT    = 00000038            NDB$V_SHUT     = 00000002            NET$C_LOGLNK   = 00000001
MSG$_RESOPR    = 00000013            NDB$W_BLKSIZE    00000022            NET$C_MAXNSPOVH= 00000018
MSG$_SCANBAD   = 00000028            NDB$W_BUFSIZE    000000A8            NET$C_MSGFLG   = 00000000
MSG$_SCANRSP   = 00000029            NDB$W_CHANNEL    00000014            NET$C_NODMSG   = 00000005
MSG$_SMBDON    = 00000009            NDB$W_CHAR       000000AA            NET$C_NOP      = 00000000
MSG$_SMBINI    = 00000008            NDB$W_HISBLKSIZ  000000B8            NET$C_NSPOVH   = 0000000B
MSG$_SMBRSP    = 00000020            NDB$W_HISNSPSIZ  000000BA            NET$C_NSPV3    = 00000000
MSG$_SNDACC    = 0000000A            NDB$W_MAXLNK     00000026            NET$C_PIGGYBACK= 00008000
MSG$_SNDSMB    = 00000004            NDB$W_NODEADDR   00000018            NET$C_PRINRM   = 00000001
MSG$_SUSOPR    = 00000012            NDB$W_NSPSIZE    00000024            NET$C_PSWRDLTH = 00000008  G
MSG$_THIRDPARTY= 00000039            NDB$W_RCVBLKS    000000B4            NET$C_RQSTRLTH = 00000010  G
MSG$_TIMEOUT   = 0000003A            NDB$W_SIZE       00000008            NET$C_RTHDR    = 00000002
MSG$_TRMHANGUP = 00000006            NDB$W_XMTBLKS    000000B6            NET$C_RTHDROVH = 0000000F
MSG$_TRMUNSOLIC= 00000001            NET$AB_ACC_BUF   00000008 RG    03   NET$C_ST_RUN     ********   X   05
MSG$_XM_ATTN   = 0000000D            NET$AB_UTLBUF    ********   X   05   NET$DEALLOC_BUF  ********   X   05
MSG$_XM_DATAVL = 0000000B            NET$ALLOCCON     ********   X   05   NET$DEANONPAGED  ********   X   05
MSG$_XM_SHUTDN = 0000000C            NET$AL_UCBVCT    ********   X   05   NET$FND_NDB_CHN  ********   X   05
NDB$B_COMMVER    0000002B            NET$AST_EXIT     ********   X   05   NET$GB_DSTFMT    ********   X   05
NDB$B_CONNTMO    0000004F            NET$ATTENTION    ********   X   05   NET$GB_DSTOBJ    ********   X   05
NDB$B_FUNC       00000021            NET$BAD_ACCESS   ********   X   05   NET$GB_MYSTATUS  ********   X   05
NDB$B_NONPRVACC  00000050            NET$BIN2ASC      ********   X   05   NET$GB_TMP_SRV   ********   X   05
NDB$B_NUMBUF     0000000B            NET$COMP_STRING  ********   X   05   NET$GL_NAME_PTR  ********   X   05
NDB$B_PRVACC     0000007C            NET$CONMES       00000000 RG    05   NET$GL_OBJCOUNT  ********   X   05
NDB$B_RTEVER     00000028            NET$C_ACCNTLTH = 00000010  G         NET$GL_OBJNAMES  ********   X   05
NDB$B_STATE      00000016            NET$C_ACKM     = 00000001            NET$GL_RES_LTH   ********   X   05
NDB$B_STATUS     00000017            NET$C_ACKOFF   = 00000005            NET$GL_RES_PTR   ********   X   05
NDB$B_TYPE       0000000A            NET$C_CC       = 00000002            NET$GOOD_ACCESS  ********   X   05
NDB$C_CTL_LOOP = 00000005            NET$C_CI       = 00000001            NET$GQ_ACCESS    00000000 RG    03
NDB$C_LENGTH     000000BC            NET$C_CTRLM    = 00000002            NET$GQ_USR_STAT  ********   X   05
NDB$C_LOOP     = 00000003            NET$C_DATAM    = 00000000            NET$GQ_UTLDESC   ********   X   05
NETCONMES       - FABRICATE AND TRANSMIT CONNECT MESSAGE         22-AUG-1978 00:50:12   VAX-11 MACRO X0.3-11               Page  18
SYMBOL TABLE                                                                                                                     (1)

NET$GT_DSTDSCR   ********   X   05   NET$V_SUBTYP   = 00000004            UCB$L_CRB        00000020
NET$GT_DSTNODE   ********   X   05   NET$XMT_DC       ********   X   05   UCB$L_DDB        00000024
NET$GW_ACTLNKS   ********   X   05   NET$XMT_MSG      ********   X   05   UCB$L_DEVCHAR    00000034
NET$GW_CHANNEL   ********   X   05   NET_MAXARG     = 00000010            UCB$L_DEVDEPEND  0000003C
NET$GW_DSTADDR   ********   X   05   NET_MAXFMT     = 00000002            UCB$L_DPC        00000080
NET$GW_HIGHLNKS  ********   X   05   NET_MAXFMTLTH  = 00000010            UCB$L_DUETIM     0000005C
NET$GW_INCI      ********   X   05   NET_M_ACCNTRL  = 00000001  G         UCB$L_DX_BFPNT   0000009C
NET$GW_MAXLNK    ********   X   05   NET_M_USRDATA  = 00000002  G         UCB$L_DX_BUF     00000098
NET$GW_OUTCI     ********   X   05   NET_V_ACCNTRL  = 00000000  G         UCB$L_DX_RXDB    000000A0
NET$GW_SRCADDR   ********   X   05   NET_V_USRDATA  = 00000001  G         UCB$L_EMB        00000078
NET$GW_TMP_SEG   ********   X   05   OBJ$B_FILE       0000000A            UCB$L_FIRST      00000014
NET$MCC          00000198 RG    05   OBJ$B_NAME       00000000            UCB$L_FPC        0000000C
NET$MCI          0000012F RG    05   OBJ$B_NUMBER     00000009            UCB$L_FQBL       00000004
NET$MOVE_FIELD   ********   X   05   OBJ$C_FILE     = 00000000            UCB$L_FQFL       00000000
NET$MOVE_IFIELD  ********   X   05   OBJ$C_SIZE       00000020            UCB$L_FR3        00000010
NET$MOVE_STRING  ********   X   05   OBJ$K_SIZE       00000020            UCB$L_FR4        00000014
NET$M_BOM      = 00000020            OBJ$Q_PRIV       00000018            UCB$L_IOQBL      00000044
NET$M_EOM      = 00000040            OBJ$T_FILE       0000000B            UCB$L_IOQFL      00000040
NET$M_INTLS    = 00000010            OBJ$T_NAME       00000001            UCB$L_IRP        0000004C
NET$M_INTMSG   = 00000020            PARSE_CON        000001DD R     05   UCB$L_LINK       0000002C
NET$SET_TIM_AST  ********   X   05   PARSE_DONE       0000038A R     05   UCB$L_LOGADR     00000064
NET$SHUTDOWN     ********   X   05   SS$_INSFMEM      ********   X   05   UCB$L_MAXBLOCK   00000084
NET$START_USER   ********   X   05   SS$_REJECT       ********   X   05   UCB$L_MEDIA      0000008C
NET$S_ACKOPT   = 00000001            SYS$FAO          ********   X   05   UCB$L_NT_DATSSB  00000074
NET$S_BOM      = 00000001            SYS$SETIMR       ********   X   05   UCB$L_NT_INTSSB  00000078
NET$S_EFMT     = 00000002            SYSTEM_STRING    0000000B R     04   UCB$L_OPCNT      00000060
NET$S_EOM      = 00000001            UCB$B_AMOD       00000053            UCB$L_OWNUIC     0000001C
NET$S_FCINT    = 00000002            UCB$B_CEX        00000077            UCB$L_PID        00000028
NET$S_FCMOD    = 00000002            UCB$B_CM1        0000004A            UCB$L_RQBL       00000004
NET$S_FCOPT    = 00000002            UCB$B_CM2        0000004B            UCB$L_RQFL       00000000
NET$S_INTLS    = 00000001            UCB$B_DEVCLASS   00000038            UCB$L_SVAPTE     00000068
NET$S_INTMSG   = 00000001            UCB$B_DEVTYPE    00000039            UCB$L_SVPN       00000064
NET$S_LTYPE    = 00000002            UCB$B_DIPL       00000052            UCB$L_TTCHAR     0000003C
NET$S_MPRI     = 00000002            UCB$B_DX_SCTCNT  000000A6            UCB$L_VCB        00000030
NET$S_MSGFLG   = 00000005            UCB$B_ERTCNT     00000070            UCB$M_BACKP    = 00000020
NET$S_MSGID    = 00000002            UCB$B_ERTMAX     00000071            UCB$M_BSY      = 00000100
NET$S_MSGTYP   = 00000002            UCB$B_ESCAPE     0000004B            UCB$M_CANCEL   = 00000008
NET$S_REMLFS   = 00000004            UCB$B_FEX        00000076            UCB$M_DEADMO   = 00000400
NET$S_RFMT     = 00000001            UCB$B_FIPL       0000000B            UCB$M_DELMBX   = 00000002
NET$S_SUBTYP   = 00000003            UCB$B_LOCSRV     0000003C            UCB$M_DIAGBUF  = 00000002
NET$UP_COUNTER   ********   X   05   UCB$B_OFFNDX     00000094            UCB$M_DX_WRITE = 00000008
NET$V_ACKOPT   = 00000004            UCB$B_OFFRTC     00000095            UCB$M_ECC      = 00000001
NET$V_BOM      = 00000005            UCB$B_REMSRV     0000003D            UCB$M_ERLOGIP  = 00000004
NET$V_EFMT     = 00000004            UCB$B_SECTORS    0000003C            UCB$M_INT      = 00000002
NET$V_EOM      = 00000006            UCB$B_SLAVE      00000074            UCB$M_INTTYPE  = 00000080
NET$V_FCINT    = 00000002            UCB$B_SPR        00000075            UCB$M_JOB      = 00000001
NET$V_FCMOD    = 00000000            UCB$B_STATE      00000052            UCB$M_MOUNTING = 00000200
NET$V_FCOPT    = 00000002            UCB$B_TRACKS     0000003D            UCB$M_NOCNVRT  = 00000004
NET$V_INTLS    = 00000004            UCB$B_TYPE       0000000A            UCB$M_NT_BFROVF= 00000004
NET$V_INTMSG   = 00000005            UCB$B_VERTSZ     0000003F            UCB$M_NT_BREAK = 00000020
NET$V_LTYPE    = 00000000            UCB$C_LENGTH     00000074            UCB$M_NT_NAME  = 00000010
NET$V_MPRI     = 00000002            UCB$C_LOGLNK   = 00000001            UCB$M_ONLINE   = 00000010
NET$V_MSGFLG   = 00000002            UCB$K_LENGTH     00000074            UCB$M_POWER    = 00000020
NET$V_MSGID    = 00000000            UCB$L_AMB        00000054            UCB$M_PRMMBX   = 00000001
NET$V_MSGTYP   = 00000002            UCB$L_ASTQBL     00000010            UCB$M_TIM      = 00000001
NET$V_REMLFS   = 00000004            UCB$L_ASTQFL     0000000C            UCB$M_TIMOUT   = 00000040
NET$V_RFMT     = 00000006            UCB$L_CPID       0000005C            UCB$M_TT_NOTIF = 00000004
NETCONMES       - FABRICATE AND TRANSMIT CONNECT MESSAGE         22-AUG-1978 00:50:12   VAX-11 MACRO X0.3-11               Page  19
SYMBOL TABLE                                                                                                                     (1)

UCB$M_TT_TIMO  = 00000002            UCB$W_MSGMAX     00000014
UCB$M_UNLOAD   = 00001000            UCB$W_NT_CHAN    0000007C
UCB$M_VALID    = 00000800            UCB$W_OFFSET     0000008A
UCB$S_LNKPRI   = 00000002            UCB$W_REFC       00000050
UCB$S_LTYPE    = 00000002            UCB$W_SIZE       00000008
UCB$T_PARTNER    0000000C            UCB$W_SRCADDR    0000001A
UCB$V_BACKP    = 00000005            UCB$W_STS        00000058
UCB$V_BSY      = 00000008            UCB$W_UNIT       00000048
UCB$V_CANCEL   = 00000003            UCB$W_VPROT      0000001A
UCB$V_DEADMO   = 0000000A
UCB$V_DELMBX   = 00000001
UCB$V_DIAGBUF  = 00000001
UCB$V_DX_WRITE = 00000003
UCB$V_ECC      = 00000000
UCB$V_ERLOGIP  = 00000002
UCB$V_INT      = 00000001
UCB$V_INTTYPE  = 00000007
UCB$V_JOB      = 00000000
UCB$V_LNKPRI   = 00000006
UCB$V_LTYPE    = 00000000
UCB$V_MOUNTING = 00000009
UCB$V_MSGACK   = 00000004
UCB$V_MSGFLO   = 00000003
UCB$V_NOCNVRT  = 00000002
UCB$V_NT_BFROVF= 00000002
UCB$V_NT_BREAK = 00000005
UCB$V_NT_NAME  = 00000004
UCB$V_ONLINE   = 00000004
UCB$V_POWER    = 00000005
UCB$V_PRMMBX   = 00000000
UCB$V_SEGFLO   = 00000002
UCB$V_TIM      = 00000000
UCB$V_TIMOUT   = 00000006
UCB$V_TT_NOTIF = 00000002
UCB$V_TT_TIMO  = 00000001
UCB$V_UNLOAD   = 0000000C
UCB$V_VALID    = 0000000B
UCB$W_BCNT       0000006E
UCB$W_BCR        00000096
UCB$W_BOFF       0000006C
UCB$W_BUFQUO     00000018
UCB$W_BYTESTOGO  0000003E
UCB$W_CHARGE     0000004A
UCB$W_CYLINDERS  0000003E
UCB$W_DA         0000008C
UCB$W_DC         0000008E
UCB$W_DEVBUFSIZ  0000003A
UCB$W_DEVSTS     0000005A
UCB$W_DIRSEQ     00000088
UCB$W_DSTADDR    00000018
UCB$W_DX_BCR     000000A4
UCB$W_EC1        00000090
UCB$W_EC2        00000092
UCB$W_ERRCNT     00000072
UCB$W_FUNC       0000007E
UCB$W_MB_SEED    FFFFFFFC
UCB$W_MSGCNT     00000016
NETCONMES       - FABRICATE AND TRANSMIT CONNECT MESSAGE         22-AUG-1978 00:50:12   VAX-11 MACRO X0.3-11               Page  20
PROGRAM SECTION SYNOPSIS                                                                                                         (1)


PROGRAM SECTION SYNOPSIS

.  ABS  .        00000000      00     NOPIC   USR   CON   ABS   LCL NOSHR NOEXE NORD  NOWRT BYTE
. BLANK .        00000000      01     NOPIC   USR   CON   REL   LCL NOSHR   EXE   RD    WRT BYTE
$ABS$            FFFFFFFE      02     NOPIC   USR   CON   ABS   LCL NOSHR   EXE   RD    WRT BYTE
NET_IMPURE       00000045      03     NOPIC   USR   CON   REL   LCL NOSHR NOEXE   RD    WRT BYTE
NET_PURE         00000017      04     NOPIC   USR   CON   REL   LCL NOSHR NOEXE   RD  NOWRT BYTE
NET_CONNECT      000003CA      05     NOPIC   USR   CON   REL   LCL NOSHR   EXE   RD  NOWRT BYTE


THERE WERE NO ERRORS OR WARNINGS.
13524. BYTES LEFT IN FREE MEMORY POOL.
1428. BYTES OF RECLAIMED MEMORY.
OBJ$:NETCONMES,LIS$:NETCONMES/-SP=EXECML$/ML,M1/ML,M2/ML,SRC$:NETCONMES
65 MLB DIR RDS - 661 GETS TO DEFINE 27 MACROS. 47 INTER. FILE WRITES.
