NETOPCOM        - OPERATOR COMMUNICATIONS                        22-AUG-1978 00:58:24   VAX-11 MACRO X0.3-11               Page   0
TABLE OF CONTENTS

   (1)    3400  HISTORY
   (1)    4200  DECLARATIONS
   (1)   15500  NETWORK OPERATOR MESSAGE FORMATTING
NETOPCOM        - OPERATOR COMMUNICATIONS                        22-AUG-1978 00:58:24   VAX-11 MACRO X0.3-11               Page   1
X01                                                                                                                              (1)

                                     0000   100
                                     0000   200 	.TITLE	NETOPCOM - OPERATOR COMMUNICATIONS
                                     0000   300 	.IDENT	/X01/
                                     0000   400
                                     0000   500 ;
                                     0000   600 ; COPYRIGHT (C) 1978
                                     0000   700 ; DIGITAL EQUIPMENT CORPORATION, MAYNARD, MASSACHUSETTS 01754
                                     0000   800 ;
                                     0000   900 ; THIS SOFTWARE IS FURNISHED  UNDER A LICENSE FOR USE ONLY ON A SINGLE
                                     0000  1000 ; COMPUTER  SYSTEM AND  MAY BE  COPIED ONLY WITH  THE INCLUSION OF THE
                                     0000  1100 ; ABOVE COPYRIGHT NOTICE.  THIS SOFTWARE, OR ANY OTHER COPIES THEREOF,
                                     0000  1200 ; MAY NOT BE PROVIDED OR  OTHERWISE MADE AVAILABLE TO ANY OTHER PERSON
                                     0000  1300 ; EXCEPT FOR USE ON SUCH SYSTEM AND TO ONE WHO AGREES TO THESE LICENSE
                                     0000  1400 ; TERMS.  TITLE TO AND  OWNERSHIP OF THE  SOFTWARE  SHALL AT ALL TIMES
                                     0000  1500 ; REMAIN IN DEC.
                                     0000  1600 ;
                                     0000  1700 ; THE INFORMATION IN THIS SOFTWARE IS SUBJECT TO CHANGE WITHOUT NOTICE
                                     0000  1800 ; AND SHOULD  NOT BE CONSTRUED  AS A COMMITMENT  BY DIGITAL  EQUIPMENT
                                     0000  1900 ; CORPORATION.
                                     0000  2000 ;
                                     0000  2100 ; DEC ASSUMES  NO  RESPONSIBILITY  FOR  THE USE OR  RELIABILITY OF ITS
                                     0000  2200 ; SOFTWARE ON EQUIPMENT WHICH IS NOT SUPPLIED BY DEC.
                                     0000  2300
                                     0000  2400 ;++
                                     0000  2500 ; FACILITY:	NETWORK ACP
                                     0000  2600 ;
                                     0000  2700 ; ABSTRACT:
                                     0000  2800 ;	THIS MODULE IS USED TO SEND INFORMATIONAL MESSAGES TO THE NETWORK OPERATOR
                                     0000  2900 ;
                                     0000  3000 ; ENVIRONMENT:
                                     0000  3100 ;	MODE = EXEC
                                     0000  3200 ;--
NETOPCOM        - OPERATOR COMMUNICATIONS                        22-AUG-1978 00:58:24   VAX-11 MACRO X0.3-11               Page   2
X01             HISTORY                                                                                                          (1)

                                     0000  3400 	.SBTTL	HISTORY
                                     0000  3500 ; AUTHOR:	SCOTT G. DAVIS, CREATION DATE: 13-APR-1978
                                     0000  3600 ;
                                     0000  3700 ; MODIFIED BY:
                                     0000  3800 ;
                                     0000  3900 ;	, : VERSION
                                     0000  4000 ; 01	-
NETOPCOM        - OPERATOR COMMUNICATIONS                        22-AUG-1978 00:58:24   VAX-11 MACRO X0.3-11               Page   3
X01             DECLARATIONS                                                                                                     (1)

                                     0000  4200 	.SBTTL	DECLARATIONS
                                     0000  4300 ;
                                     0000  4400 ; INCLUDE FILES:
                                     0000  4500 ;
                                     0000  4600 	$MSGDEF
                                     0000  4700 	$NDBDEF
                                     0000  4800 	$OPCDEF
                                     0000  4900
                                     0000  5000 ;
                                     0000  5100 ; MACROS:
                                     0000  5200 ;
                                     0000  5300
                                     0000  5400 ;
                                     0000  5500 ; EQUATED SYMBOLS:
                                     0000  5600 ;
                           00000050  0000  5700 TEXT_LTH = 80
                                     0000  5800
                                     0000  5900 ;
                                     0000  6000 ; OWN STORAGE:
                                     0000  6100 ;
                                 00000000  6200 	.PSECT	NET_PURE,NOWRT,NOEXE
                                     0000  6300
                                     0000  6400 ;
                                     0000  6500 ; MESSAGES
                                     0000  6600 ;
         67 6E 69 74 72 61 74 73 00' 0000  6700 START_MSG:	.ASCIC	/starting/
                                 08  0000
69 61 6D 20 64 65 72 65 74 6E 65 00' 0009  6800 MAINT_MSG:	.ASCIC	/entered maintenance mode/
64 6F 6D 20 65 63 6E 61 6E 65 74 6E  0015
                                 65  0021
                                 18  0009
      6E 77 6F 64 20 74 6E 65 77 00' 0022  6900 DOWN_MSG:	.ASCIC	/went down/
                                 09  0022
6E 61 20 64 65 76 69 65 63 65 72 00' 002C  7000 NGINI_MSG:	.ASCIC	/received an invalid node init/
64 6F 6E 20 64 69 6C 61 76 6E 69 20  0038
                  74 69 6E 69 20 65  0044
                                 1D  002C
20 61 20 64 65 76 69 65 63 65 72 00' 004A  7100 OKINI_MSG:	.ASCIC	/received a valid node init/
69 20 65 64 6F 6E 20 64 69 6C 61 76  0056
                           74 69 6E  0062
                                 1A  004A
6F 64 20 67 6E 69 74 74 75 68 73 00' 0065  7200 SHUT_MSG:	.ASCIC	/shutting down/
                              6E 77  0071
                                 0D  0065
6F 20 52 53 44 20 61 20 64 61 68 00' 0073  7300 DSRCH_MSG:	.ASCIC	/had a DSR on-to-off transition/
61 72 74 20 66 66 6F 2D 6F 74 2D 6E  007F
               6E 6F 69 74 69 73 6E  008B
                                 1E  0073
79 6C 74 63 65 72 72 6F 63 6E 69 00' 0092  7400 LOOPB_MSG:	.ASCIC	/incorrectly looped back/
6B 63 61 62 20 64 65 70 6F 6F 6C 20  009E
                                 17  0092
72 65 20 64 65 64 65 65 63 78 65 00' 00AA  7500 DCHK_MSG:	.ASCIC	/exceeded error threshold/
6C 6F 68 73 65 72 68 74 20 72 6F 72  00B6
                                 64  00C2
                                 18  00AA
                                     00C3  7600
                                     00C3  7700 MSG_ARRAY:				; MESSAGE ADDRESSES
NETOPCOM        - OPERATOR COMMUNICATIONS                        22-AUG-1978 00:58:24   VAX-11 MACRO X0.3-11               Page   4
X01             DECLARATIONS                                                                                                     (1)

                           00000000' 00C3  7800 	.LONG	START_MSG
                           00000001  00C7  7900 MSGNUM=<.-MSG_ARRAY>/4
                                     00C7  8000 	ASSUME	MSGNUM EQ NDB$C_MSG_START
                                     00C7  8100
                           00000009' 00C7  8200 	.LONG	MAINT_MSG
                           00000002  00CB  8300 MSGNUM=<.-MSG_ARRAY>/4
                                     00CB  8400 	ASSUME	MSGNUM EQ NDB$C_MSG_MAINT
                                     00CB  8500
                           00000022' 00CB  8600 	.LONG	DOWN_MSG
                           00000003  00CF  8700 MSGNUM=<.-MSG_ARRAY>/4
                                     00CF  8800 	ASSUME	MSGNUM EQ NDB$C_MSG_DOWN
                                     00CF  8900
                           0000002C' 00CF  9000 	.LONG	NGINI_MSG
                           00000004  00D3  9100 MSGNUM=<.-MSG_ARRAY>/4
                                     00D3  9200 	ASSUME	MSGNUM EQ NDB$C_MSG_NGINI
                                     00D3  9300
                           0000004A' 00D3  9400 	.LONG	OKINI_MSG
                           00000005  00D7  9500 MSGNUM=<.-MSG_ARRAY>/4
                                     00D7  9600 	ASSUME	MSGNUM EQ NDB$C_MSG_OKINI
                                     00D7  9700
                           00000065' 00D7  9800 	.LONG	SHUT_MSG
                           00000006  00DB  9900 MSGNUM=<.-MSG_ARRAY>/4
                                     00DB 10000 	ASSUME	MSGNUM EQ NDB$C_MSG_SHUT
                                     00DB 10100
                           00000073' 00DB 10200 	.LONG	DSRCH_MSG
                           00000007  00DF 10300 MSGNUM=<.-MSG_ARRAY>/4
                                     00DF 10400 	ASSUME	MSGNUM EQ NDB$C_MSG_DSRCH
                                     00DF 10500
                           00000092' 00DF 10600 	.LONG	LOOPB_MSG
                           00000008  00E3 10700 MSGNUM=<.-MSG_ARRAY>/4
                                     00E3 10800 	ASSUME	MSGNUM EQ NDB$C_MSG_LOOPB
                                     00E3 10900
                                     00E3 11000
                           000000AA' 00E3 11100 	.LONG	DCHK_MSG
                           00000009  00E7 11200 MSGNUM=<.-MSG_ARRAY>/4
                                     00E7 11300 	ASSUME	MSGNUM EQ NDB$C_MSG_DCHK
                                     00E7 11400
                                 00000000 11500 	.PSECT	NET_IMPURE,WRT,NOEXE
                                     0000 11600
                           00000008  0000 11700 MSG_DESC:	.BLKQ	1		; MESSAGE DESCRIPTOR FOR ERROR LOGGER
                                     0008 11800 MSG_BUFFER:
                           00000008  0008 11900 	.LONG	MSG$_OPRQST		; MSG TYPE + MAILBOX CHANNEL
                           FFFFFFFF  000C 12000 	.LONG	-1			; PRIVILEGES
                           FFFFFFFF  0010 12100 	.LONG	-1			; MORE PRIVILEGES
                           00000000  0014 12200 	.LONG	0			; UIC
20 20 20 20 20 20 50 43 41 54 45 4E  0018 12300 	.ASCII	/NETACP      /		; MY NAME
            20 20 20 20 20 20 20 20  0024 12400 	.ASCII	/        /		; ACCOUNT - NULL
                               0000  002C 12500 	.WORD	0			; PRIORITY + FILL BYTE
                           00004103  002E 12600 	.LONG	OPC$_RQ_RQST!-		; SET UP BUFFER HEADER
                                     0032 12700 	<<OPC$M_NM_NTWORK!OPC$M_NM_CENTRL>@8>
                           00000000  0032 12800 	.LONG	0			; NO MESSAGE NO. FOR REPLY
                                     0036 12900
                                     0036 13000 TEXT:
                           00000086  0036 13100 	.BLKB	TEXT_LTH		; FOR REST OF TEXT
                           0000008A  0086 13200 TEXT_DESC:	.BLKL	1		; LTH OF TEXT BFR
                           00000036' 008A 13300 	.LONG	TEXT			; BFR ADDR
                                     008E 13400
NETOPCOM        - OPERATOR COMMUNICATIONS                        22-AUG-1978 00:58:24   VAX-11 MACRO X0.3-11               Page   5
X01             DECLARATIONS                                                                                                     (1)

                           00000015' 008E 13500 LINE_DESC:	.LONG	LINE_LTH	; LINE MESSAGE DESCRIPTOR
                           00000096' 0092 13600 		.LONG	LINE_CTRSTR	;
20 65 6E 69 6C 20 74 65 6E 43 45 44  0096 13700 LINE_CTRSTR:	.ASCII	/DECnet line /
                           000000A6  00A2 13800 LINE_NAME:	.BLKL	1		; FOR JAMMING LINE NAME
                     43 41 21 20 3A  00A6 13900 		.ASCII	/: !AC/		; REST OF CONTROL STRING
                           00000015  00AB 14000 LINE_LTH=.-LINE_CTRSTR
                                     00AB 14100
                           0000000A' 00AB 14200 NODE_DESC:	.LONG	NODE_LTH	; NODE MESSAGE DESCRIPTOR
                           000000B3' 00AF 14300 		.LONG	NODE_CTRSTR	;
      43 41 21 20 74 65 6E 43 45 44  00B3 14400 NODE_CTRSTR:	.ASCII	/DECnet !AC/	;
                           0000000A  00BD 14500 NODE_LTH=.-NODE_CTRSTR
                                     00BD 14600
                           00000032' 00BD 14700 ERROR_DESC:	.LONG	ERROR_LTH	; ERROR MESSAGE DESCRIPTOR
                           000000C5' 00C1 14800 		.LONG	ERROR_CTRSTR	;
20 65 6E 69 6C 20 74 65 6E 43 45 44  00C5 14900 ERROR_CTRSTR:	.ASCII	/DECnet line /
                           000000D5  00D1 15000 LINE_NAME1:	.BLKL	1		; FOR STUFFING LINE NAME
20 6F 74 20 64 65 6C 69 61 66 20 3A  00D5 15100 		.ASCII	/: failed to start due to error !XW/
6F 74 20 65 75 64 20 74 72 61 74 73  00E1
      57 58 21 20 72 6F 72 72 65 20  00ED
                           00000032  00F7 15200 ERROR_LTH=.-ERROR_CTRSTR
NETOPCOM        - OPERATOR COMMUNICATIONS                        22-AUG-1978 00:58:24   VAX-11 MACRO X0.3-11               Page   6
X01             DECLARATIONS                                                                                                     (1)

                                 00000000 15400 	.PSECT	NET_CONTROL,NOWRT,EXE
                                     0000 15500 	.SBTTL	NETWORK OPERATOR MESSAGE FORMATTING
                                     0000 15600 ;++
                                     0000 15700 ; FUNCTIONAL DESCRIPTION:
                                     0000 15800 ;
                                     0000 15900 ; NET$OPCOM_ERROR - ERROR STARTING LINE
                                     0000 16000 ; NET$OPCOM_NODE - MESSAGE IS FOR LOCAL NODE, NOT A LINE
                                     0000 16100 ; NET$OPCOM - FORMAT AND SEND OPERATOR MESSAGE ABOUT A LINE
                                     0000 16200 ;
                                     0000 16300 ; CALLING SEQUENCE:
                                     0000 16400 ;
                                     0000 16500 ;	BSB	NET$OPCOM, ETC.
                                     0000 16600 ;
                                     0000 16700 ; INPUT PARAMETERS:
                                     0000 16800 ;
                                     0000 16900 ;	R0 - ERROR CODE (NET$OPCOM_ERROR)
                                     0000 17000 ;	R6 - MESSAGE CODE
                                     0000 17100 ;	R9 - NDB ADDRESS
                                     0000 17200 ;
                                     0000 17300 ; SIDE EFFECTS:
                                     0000 17400 ;
                                     0000 17500 ;	MESSAGE SENT TO NETWORK OPERATOR
                                     0000 17600 ;
                                     0000 17700 ;--
                                     0000 17800
                                     0000 17900 NET$OPCOM_ERROR::
            51       00BD'CF     9E  0000 18000 	MOVAB	W^ERROR_DESC,R1		; GET ADDRESS OF CONTROL STRING
       00D1'CF         04 A9     D0  0005 18100 	MOVL	NDB$L_LINE_NAME(R9),W^LINE_NAME1 ; STUFF THE LINE NAME
                          18     11  000B 18200 	BRB	COMMON1			; GO TO COMMON CODE
                                     000D 18300
                                     000D 18400 NET$OPCOM_NODE::
            51       00AB'CF     9E  000D 18500 	MOVAB	W^NODE_DESC,R1		; GET ADDRESS OF CONTROL STRING
                          0B     11  0012 18600 	BRB	COMMON			; GO TO COMMON CODE
                                     0014 18700 NET$OPCOM::
       00A2'CF         04 A9     D0  0014 18800 	MOVL	NDB$L_LINE_NAME(R9),W^LINE_NAME ; STUFF THE LINE NAME
            51       008E'CF     9E  001A 18900 	MOVAB	W^LINE_DESC,R1		; GET ADDRESS OF CONTROL STRING
                                     001F 19000 COMMON:
            50       00BF'CF46   D0  001F 19100 	MOVL	W^MSG_ARRAY-4[R6],R0	; GET 1-ORIGIN ADDRESS OF TEXT STRING
                                     0025 19200 COMMON1:
                          3C     BB  0025 19300 	PUSHR	#^M<R2,R3,R4,R5>	; SAVE REGS
       0086'CF         50 8F     90  0027 19400 	MOVB	#TEXT_LTH,W^TEXT_DESC	; RESET THE OUTPUT BFR LTH
                                     002D 19500 	$FAO_S	CTRSTR=(R1),-		; FORMAT THE BUFFER
                                     002D 19600 		OUTLEN=W^TEXT_DESC,-	; STUFF THE BUFFER DESCRIPTOR
                                     002D 19700 		OUTBUF=W^TEXT_DESC,-	;
                                     002D 19800 		P1=R0			; THIS IS THE PARAMETER
                     0086'CF     DF  0040 19900 	PUSHAL	W^TEXT_DESC		; SET UP FOR CALL
   00000000'EF            01     FB  0044 20000 	CALLS	#1,EXE$NETSNDERL	; SEND THE MSG TO THE ERROR LOGGER
            55   00000000'EF     9E  004B 20100 	MOVAB	L^SYS$GL_OPRMBX,R5	; GET MAILBOX UCB ADDRESS
       0086'CF            2E'    C1  0052 20200 	ADDL3	S^#TEXT-MSG_BUFFER,W^TEXT_DESC,R3 ; LTH OF MBX MSG
                          53         0057
            54       0008'CF     9E  0058 20300 	MOVAB	W^MSG_BUFFER,R4		; BUFFER ADDRESS
                 00000000'EF     16  005D 20400 	JSB	L^EXE$WRTMAILBOX	; SEND THE MESSAGE
                          3C     BA  0063 20500 	POPR	#^M<R2,R3,R4,R5>	; RESTORE REGS
                                 05  0065 20600 	RSB				; DONE
                                     0066 20700
                                     0066 20800 	.END
NETOPCOM        - OPERATOR COMMUNICATIONS                        22-AUG-1978 00:58:24   VAX-11 MACRO X0.3-11               Page   7
SYMBOL TABLE                                                                                                                     (1)

$$T2           = 00000004            MSG_BUFFER       00000008 R     04   NET$OPCOM_NODE   0000000D RG    05
BIT...         = 00000000            MSG_DESC         00000000 R     04   NGINI_MSG        0000002C R     03
COMMON           0000001F R     05   NDB$B_COMMVER    0000002B            NODE_CTRSTR      000000B3 R     04
COMMON1          00000025 R     05   NDB$B_CONNTMO    0000004F            NODE_DESC        000000AB R     04
DCHK_MSG         000000AA R     03   NDB$B_FUNC       00000021            NODE_LTH       = 0000000A
DOWN_MSG         00000022 R     03   NDB$B_NONPRVACC  00000050            OKINI_MSG        0000004A R     03
DSRCH_MSG        00000073 R     03   NDB$B_NUMBUF     0000000B            OPC$B_MS_ENAB    00000001
ERROR_CTRSTR     000000C5 R     04   NDB$B_PRVACC     0000007C            OPC$B_MS_TARGET  00000001
ERROR_DESC       000000BD R     04   NDB$B_RTEVER     00000028            OPC$B_MS_TYPE    00000000
ERROR_LTH      = 00000032            NDB$B_STATE      00000016            OPC$L_MS_MASK    00000004
EXE$NETSNDERL    ********   X   05   NDB$B_STATUS     00000017            OPC$L_MS_MAXSZ   0000009A
EXE$WRTMAILBOX   ********   X   05   NDB$B_TYPE       0000000A            OPC$L_MS_OTEXT   0000001A
GBL...         = 00000000            NDB$C_CTL_LOOP = 00000005            OPC$L_MS_RPLYID  00000004
LINE_CTRSTR      00000096 R     04   NDB$C_LENGTH     000000BC            OPC$L_MS_RQSTID  00000004
LINE_DESC        0000008E R     04   NDB$C_LOOP     = 00000003            OPC$L_MS_TEXT    00000008
LINE_LTH       = 00000015            NDB$C_MAINT    = 00000004            OPC$M_NM_CARDS = 00000020
LINE_NAME        000000A2 R     04   NDB$C_MSG_DCHK = 00000009            OPC$M_NM_CENTRL= 00000001
LINE_NAME1       000000D1 R     04   NDB$C_MSG_DOWN = 00000003            OPC$M_NM_DEVICE= 00000010
LOOPB_MSG        00000092 R     03   NDB$C_MSG_DSRCH= 00000007            OPC$M_NM_DISKS = 00000008
MAINT_MSG        00000009 R     03   NDB$C_MSG_LOOPB= 00000008            OPC$M_NM_NTWORK= 00000040
MSG$_ABOOPR    = 00000011            NDB$C_MSG_MAINT= 00000002            OPC$M_NM_OPER1 = 00001000
MSG$_ABORT     = 00000030            NDB$C_MSG_NGINI= 00000004            OPC$M_NM_OPER10= 00200000
MSG$_ACCRSP    = 00000021            NDB$C_MSG_OKINI= 00000005            OPC$M_NM_OPER11= 00400000
MSG$_CONFIRM   = 00000031            NDB$C_MSG_SHUT = 00000006            OPC$M_NM_OPER12= 00800000
MSG$_CONNECT   = 00000032            NDB$C_MSG_START= 00000001            OPC$M_NM_OPER2 = 00002000
MSG$_CRUNSOLIC = 00000002            NDB$C_OFF      = 00000001            OPC$M_NM_OPER3 = 00004000
MSG$_DELPROC   = 00000003            NDB$C_ON       = 00000000            OPC$M_NM_OPER4 = 00008000
MSG$_DELSMB    = 00000014            NDB$C_SHUT     = 00000002            OPC$M_NM_OPER5 = 00010000
MSG$_DEVOFFLIN = 00000005            NDB$K_LENGTH     000000BC            OPC$M_NM_OPER6 = 00020000
MSG$_DEVONLIN  = 00000007            NDB$L_LINE_NAME  00000004            OPC$M_NM_OPER7 = 00040000
MSG$_DISCON    = 00000033            NDB$L_NEXT       00000000            OPC$M_NM_OPER8 = 00080000
MSG$_EXIT      = 00000034            NDB$M_CTL_LOOP = 00000008            OPC$M_NM_OPER9 = 00100000
MSG$_INIOPR    = 00000010            NDB$M_LOOPBACK = 00000001            OPC$M_NM_PRINT = 00000002
MSG$_INTMSG    = 00000035            NDB$M_OFF      = 00000002            OPC$M_NM_TAPES = 00000004
MSG$_OPREPLY   = 00000009            NDB$M_SHUT     = 00000004            OPC$T_MS_ONAME   0000000A
MSG$_OPRQST    = 00000008            NDB$Q_AST        0000000C            OPC$V_NM_CARDS = 00000005
MSG$_PATHLOST  = 00000036            NDB$Q_ZEROTIME   000000AC            OPC$V_NM_CENTRL= 00000000
MSG$_PROTOCOL  = 00000037            NDB$T_NAME       0000001A            OPC$V_NM_DEVICE= 00000004
MSG$_REJECT    = 00000038            NDB$T_SYSVER     0000002E            OPC$V_NM_DISKS = 00000003
MSG$_RESOPR    = 00000013            NDB$V_CTL_LOOP = 00000003            OPC$V_NM_NTWORK= 00000006
MSG$_SCANBAD   = 00000028            NDB$V_LOOPBACK = 00000000            OPC$V_NM_OPER1 = 0000000C
MSG$_SCANRSP   = 00000029            NDB$V_OFF      = 00000001            OPC$V_NM_OPER10= 00000015
MSG$_SMBDON    = 00000009            NDB$V_SHUT     = 00000002            OPC$V_NM_OPER11= 00000016
MSG$_SMBINI    = 00000008            NDB$W_BLKSIZE    00000022            OPC$V_NM_OPER12= 00000017
MSG$_SMBRSP    = 00000020            NDB$W_BUFSIZE    000000A8            OPC$V_NM_OPER2 = 0000000D
MSG$_SNDACC    = 0000000A            NDB$W_CHANNEL    00000014            OPC$V_NM_OPER3 = 0000000E
MSG$_SNDSMB    = 00000004            NDB$W_CHAR       000000AA            OPC$V_NM_OPER4 = 0000000F
MSG$_SUSOPR    = 00000012            NDB$W_HISBLKSIZ  000000B8            OPC$V_NM_OPER5 = 00000010
MSG$_THIRDPARTY= 00000039            NDB$W_HISNSPSIZ  000000BA            OPC$V_NM_OPER6 = 00000011
MSG$_TIMEOUT   = 0000003A            NDB$W_MAXLNK     00000026            OPC$V_NM_OPER7 = 00000012
MSG$_TRMHANGUP = 00000006            NDB$W_NODEADDR   00000018            OPC$V_NM_OPER8 = 00000013
MSG$_TRMUNSOLIC= 00000001            NDB$W_NSPSIZE    00000024            OPC$V_NM_OPER9 = 00000014
MSG$_XM_ATTN   = 0000000D            NDB$W_RCVBLKS    000000B4            OPC$V_NM_PRINT = 00000001
MSG$_XM_DATAVL = 0000000B            NDB$W_SIZE       00000008            OPC$V_NM_TAPES = 00000002
MSG$_XM_SHUTDN = 0000000C            NDB$W_XMTBLKS    000000B6            OPC$W_MS_OUNIT   00000008
MSGNUM         = 00000009            NET$OPCOM        00000014 RG    05   OPC$W_MS_STATUS  00000002
MSG_ARRAY        000000C3 R     03   NET$OPCOM_ERROR  00000000 RG    05   OPC$_DEVNOTERM = 00058074
NETOPCOM        - OPERATOR COMMUNICATIONS                        22-AUG-1978 00:58:24   VAX-11 MACRO X0.3-11               Page   8
SYMBOL TABLE                                                                                                                     (1)

OPC$_DEVOFFLINE= 0005804C
OPC$_DEVONLINE = 00058054
OPC$_ILLRQST   = 0005807C
OPC$_LOGCLOS   = 000580A4
OPC$_LOGFAIL   = 00058034
OPC$_LOGINIT   = 00058009
OPC$_LOGTIME   = 00058099
OPC$_NOCLI     = 0005805C
OPC$_NOPERATOR = 00058061
OPC$_NOSUCHRQST= 00058044
OPC$_OPREPLY   = 00058091
OPC$_OPRNOTIF  = 00058089
OPC$_RQSTABORT = 0005801C
OPC$_RQSTCAN   = 00058084
OPC$_RQSTCMPLTE= 00058029
OPC$_RQSTPEND  = 00058021
OPC$_RQ_CANCEL = 00000005
OPC$_RQ_LOGI   = 00000002
OPC$_RQ_REPLY  = 00000004
OPC$_RQ_RQST   = 00000003
OPC$_RQ_STATUS = 00000006
OPC$_RQ_TERME  = 00000001
OPC$_TERMDSBL  = 00058011
OPC$_TERMENAB  = 00058001
OPC$_TERMFAIL  = 0005803C
OPC$_UNKNOPR   = 0005806C
SHUT_MSG         00000065 R     03
START_MSG        00000000 R     03
SYS$FAO          ********   X   05
SYS$GL_OPRMBX    ********   X   05
TEXT             00000036 R     04
TEXT_DESC        00000086 R     04
TEXT_LTH       = 00000050


PROGRAM SECTION SYNOPSIS

.  ABS  .        00000000      00     NOPIC   USR   CON   ABS   LCL NOSHR NOEXE NORD  NOWRT BYTE
. BLANK .        00000000      01     NOPIC   USR   CON   REL   LCL NOSHR   EXE   RD    WRT BYTE
$ABS$            000000BC      02     NOPIC   USR   CON   ABS   LCL NOSHR   EXE   RD    WRT BYTE
NET_PURE         000000E7      03     NOPIC   USR   CON   REL   LCL NOSHR NOEXE   RD  NOWRT BYTE
NET_IMPURE       000000F7      04     NOPIC   USR   CON   REL   LCL NOSHR NOEXE   RD    WRT BYTE
NET_CONTROL      00000066      05     NOPIC   USR   CON   REL   LCL NOSHR   EXE   RD  NOWRT BYTE


THERE WERE NO ERRORS OR WARNINGS.
20480. BYTES LEFT IN FREE MEMORY POOL.
768. BYTES OF RECLAIMED MEMORY.
OBJ$:NETOPCOM,LIS$:NETOPCOM/-SP=EXECML$/ML,M1/ML,M2/ML,SRC$:NETOPCOM
48 MLB DIR RDS - 336 GETS TO DEFINE 15 MACROS. 23 INTER. FILE WRITES.
