
; Bliss-32 7.352	Saturday 22-AUG-1978 04:42:49	DBB3:[LINKER.SRC]LNKDATBAS.B32;4				Page 1
; Digital Equipment Corporation
;
;00100  0001	MODULE LNK_DATABASE (IDENT='X01.010') =
;00200  0002
;00300  0003	BEGIN
;00400  0004	!
;00500  0005	!
;00600  0006	! Copyright (C) 1976, 1977, 1978
;00700  0007	! Digital Equipment Corporation,  Maynard, Massachusetts  01754
;00800  0008	!
;00900  0009	! This software is furnished under a license for use only on  a
;01000  0010	! single computer system and may be copied only with the inclu-
;01100  0011	! sion of the above copyright notice.  This  software,  or  any
;01200  0012	! other  copies  thereof, may not be provided or otherwise made
;01300  0013	! available to any other person except for use on  such  system
;01400  0014	! and  to  one who agrees to these license terms.  Title to and
;01500  0015	! ownership of the software shall at all times remain in DEC.
;01600  0016	!
;01700  0017	! The information in this software is subject to change without
;01800  0018	! notice and should not be construed as a commitment by Digital
;01900  0019	! Equipment Corporation.
;02000  0020	!
;02100  0021	! DEC assumes no responsibility for the use or  reliability  of
;02200  0022	! its software on equipment which is not supplied by DEC.
;02300  0023	!
;02400  0024	!
;02500  0025	!
;02600  0026	!
;02700  0027	!
;02800  0028	!++
;02900  0029	!
;03000  0030	! MODULE: LNK_DATABASE
;03100  0031	!
;03200  0032	! FACILITY: LINKER
;03300  0033	!
;03400  0034	! ABSTRACT: GLOBAL DATA BASE OF THE LINKER
;03500  0035	!
;03600  0036	! HISTORY:
;03700  0037	!
;03800  0038	!	VERSION: X01.00
;03900  0039	!
;04000  0040	!	AUTHOR: T.J. PORTER 15-JAN-77
;04100  0041	!
;04200  0042	!	MODIFICATIONS:
;04300  0043	!
;04400  0044	! NO.	DATE		PROGRAMMER	PURPOSE
;04500  0045	! ---	----		----------	-------
;04600  0046	! 001	12-JUL-77	T.J. PORTER	ADD SYMBOL TABLE FILE DATA
;04700  0047	!					AND SUPPRESSION BITS.
;04800  0048	! 002	26-JUL-77	T.J. PORTER	ADD DEBUG DATA RECORD CURRENT FLAG
;04900  0049	! 003	11-OCT-77	T.J. PORTER	ADD IMAGE NAME AND IDENT
;05000  0050	! 004	28-DEC-77	T.J. PORTER	ENABLE DEFAULT SEARCHING OF SYSTEM
;05100  0051	!						LIBRARY.
;05200  0052	! 005	18-JAN-78	T.J. PORTER	TRACEBACK FLAG IN LNK$GL_CTLMSK
;05210  0053	! 006	20-APR-78	T.J. PORTER	REQUIRE FILE CLEAN UP
;05220  0054	! 007	02-MAY-78	T.J. PORTER	DEFINE VERIFY BIT
;05230  0055	! 008	07-MAY-78	T.J. PORTER	DEFINE CONTIGUOUS IMAGE BIT AND

; Bliss-32 7.352	Saturday 22-AUG-1978 04:42:49	DBB3:[LINKER.SRC]LNKDATBAS.B32;4				Page 1-1
; Digital Equipment Corporation
;
;05240  0056	!						THE MAXIMUM NUMBER OF I-SECTS PARAMETERS
;05250  0057	!						WITH EMPTY REGION THRESHOLD PARAMETERS
;05260  0058	! 009	15-MAY-78	T.J. PORTER	ADD CLUSTERING DEFINITIONS
;05270  0059	! 010	06-JUL-78	T.J. PORTER	ADD P0BUFS AND SYSSHR FLAGS
;05300  0060	!--

; Bliss-32 7.352	Saturday 22-AUG-1978 04:42:49	DBB3:[LINKER.SRC]LNKDATBAS.B32;4				Page 2
; Digital Equipment Corporation
;
;05400  0061
;05500  0062	!
;05600  0063	!++
;05700  0064	!
;05800  0065	! FUNCTIONAL DESCRIPTION:
;05900  0066	!		THIS MODULE CONTAINS THE DATA BASE REQUIRED THROUGHOUT THE WHOLE
;06000  0067	!	OF THE LINKER IN ADDITION TO SOME GLOBAL DEFINITIONS.
;06100  0068	!
;06200  0069	!--
;06300  0070	!
;06310  0071	LIBRARY
;06320  0072		'SYS$LIBRARY:STARLET.L32';
;06400  0073	REQUIRE
;06500  0074		'PREFIX';		! SOME GENERAL MACROS AND DEFINTIONS
;06505  0266	REQUIRE
;06507  0267		'DATBAS';
;06510  0499	GLOBAL LITERAL
;06520  0500		LNK$K_DZROMIN = 5,			! DEFAULT MINIMUM EMPTY PAGE SIZE BEFORE COMPRESSION
;06530  0501		LNK$K_ISDMAX  = 95;			! DEFAULT LIMIT ON ISECTIONS CREATED
;06600  0502	!
;06700  0503	GLOBAL
;06800  0504		LNK$GL_CTLMSK;			! CONTROL FLAGS FOR THIS LINK
;06900  0505	GLOBAL LITERAL				! DEFINE THE FLAG BITS
;07000  0506		LNK$S_IMAGE = 0,		! SET IF IMAGE TO BE PRODUCED
;07100  0507		LNK$S_EXE = 1,			! SET IF AN EXECUTABLE IMAGE
;07300  0508		LNK$S_SYS = 3,			! SET IF SYSTEM IMAGE **OR A STAND ALONE /-HD IMAGE**
;07400  0509		LNK$S_MAP = 4,			! SET IF MAP TO BE PRODUCED
;07500  0510		LNK$S_MAPOPN = 5,		! SET WHEN MAP FILE IS OPENED
;07600  0511		LNK$S_DBG = 6,			! SET IF DEBUGGER REQUESTED
;07700  0512		LNK$S_CROS = 7,			! SET FOR CROSS REFERENCED MAP
;07800  0513		LNK$S_LONG = 8,			! SET IF LONG MAP
;07900  0514		LNK$S_BRIEF = 9,		! SET IF BRIEF MAP
;08000  0515		LNK$S_SYSLIB = 10,		! SET IF SYSTEM LIBRARY TO BE
;08100  0516						! SEARCHED FOR UNDEFINED SYMBOLS
;08200  0517		LNK$S_INTFIL = 11,		! SET WHEN ABOUT TO OPEN AN INTERNALLY
;08300  0518						! MATERIALIZED FILE FOR FIRST TIME
;08310  0519		LNK$S_VERIFY = LNK$S_INTFIL,	! USE SAME BIT FOR OPTIONS FILE
;08320  0520						! VERIFICATION DURING COMMAND PROCESSING
;08400  0521		LNK$S_SYMTBL = 12,		! SET WHEN SYMBOL TABLE OUTPUT FILE REQUIRED
;08500  0522		LNK$S_SUPSYS = 13,		! SET WHEN SUPPRESSION OF SYSTEM LIBRARY SYMBOLS AND P-SECTIONS
;08600  0523		LNK$S_SUPDBG = 14,		! SET WHEN SUPPRESSION OF DEBUGGER SYMBOLS AND P-SECTIONS
;08700  0524		LNK$S_DBGREC = 15,		! SET IN PASS 2 WHEN CURRENT RECORD IS A DEBUG DATA RECORD
;08800  0525		LNK$S_PICIMG = 16,		! SET WHEN A POSITION INDEPENDENT IMAGE
;08900  0526		LNK$S_TRACE    = 17,		! SET WHEN TRACEBACK ENABLED
;08910  0527		LNK$S_CONTIG   = 18,		! IMAGE MUST BE MADE CONTIGUOUS
;08920  0528		LNK$S_SYSSHR   = 19,		! SYSTEM SHAREABLE IMAGE(S) ENABLED
;08930  0529		LNK$S_NOP0BUFS = 20,		! P0 SPACE NOT AVAILABLE FOR RMS BUFFERS
;09000  0530	!
;09100  0531	! DEFINE SOME OF THEM AS MASKS ALSO
;09200  0532	!
;09300  0533		LNK$M_IMAGE = 1 ^ LNK$S_IMAGE,
;09400  0534		LNK$M_EXE = 1 ^ LNK$S_EXE,
;09600  0535		LNK$M_SYS = 1 ^ LNK$S_SYS,
;09700  0536		LNK$M_MAP = 1 ^ LNK$S_MAP,
;09800  0537		LNK$M_MAPOPN = 1 ^ LNK$S_MAPOPN,

; Bliss-32 7.352	Saturday 22-AUG-1978 04:42:49	DBB3:[LINKER.SRC]LNKDATBAS.B32;4				Page 2-1
; Digital Equipment Corporation
;
;09900  0538		LNK$M_DBG = 1 ^ LNK$S_DBG,
;10000  0539		LNK$M_CROS = 1 ^ LNK$S_CROS,
;10100  0540		LNK$M_LONG = 1 ^ LNK$S_LONG,
;10200  0541		LNK$M_BRIEF = 1 ^ LNK$S_BRIEF,
;10300  0542		LNK$M_SYSLIB = 1 ^ LNK$S_SYSLIB,
;10400  0543		LNK$M_INTFIL = 1 ^ LNK$S_INTFIL,
;10500  0544		LNK$M_SYMTBL = 1 ^ LNK$S_SYMTBL,
;10600  0545		LNK$M_SUPSYS = 1 ^ LNK$S_SUPSYS,
;10700  0546		LNK$M_SUPDBG = 1 ^ LNK$S_SUPDBG,
;10800  0547		LNK$M_DBGREC = 1 ^ LNK$S_DBGREC,
;10810  0548		LNK$M_PICIMG = 1 ^ LNK$S_PICIMG,
;10900  0549		LNK$M_TRACE  = 1 ^ LNK$S_TRACE,
;10910  0550		LNK$M_CONTIG  = 1 ^ LNK$S_CONTIG,
;10920  0551		LNK$M_SYSSHR  = 1 ^ LNK$S_SYSSHR,
;10930  0552		LNK$M_NOP0BUFS= 1 ^ LNK$S_NOP0BUFS,
;11000  0553	!
;11100  0554		DEF$C_LNKCTL = LNK$M_IMAGE OR	! DEFAULT CONTROL FLAGS
;11200  0555				LNK$M_EXE OR	! -- PRODUCE AN EXECUTABLE
;11300  0556				LNK$M_MAP OR	! IMAGE AND MAP
;11400  0557				LNK$M_SUPSYS OR ! WITH SYSTEM AND DEBUGGER
;11500  0558				LNK$M_SUPDBG OR	! SYMBOLS SUPPRESSED
;11510  0559				LNK$M_PICIMG OR	! INITIALLY ASSUMED PIC
;11600  0560				LNK$M_SYSLIB OR	! BUT WITH SYSTEM LIBRARY SEARCH ENABLED
;11610  0561				LNK$M_SYSSHR;	! AS WELL AS SHAREABLE IMAGE
;11700  0562	!
;11800  0563	GLOBAL
;11900  0564		LNK$GL_CLULST : VECTOR[2]				! LIST OF CLUSTER DESCRIPTORS
;12000  0565				INITIAL(0,LNK$GL_CLULST),
;12010  0566		LNK$GL_DEFCLU : BLOCK[CLU$C_SIZE,BYTE] INITIAL(		! ESTABLISH THE DEFAULT CLUSTER
;12020  0567						0,				! NOT YET LINKED AND NO FDB'S YET
;12030  0568						0,LNK$GL_DEFCLU[CLU$L_FSTFDB],
;12035  0569						0,LNK$GL_DEFCLU[CLU$L_FSTPSC],	! SINGLY LINKED P-SECTION LIST
;12050  0570						0,LNK$GL_DEFCLU[CLU$L_FSTISD],	! SINGLY LINKED I-SECTION LIST
;12060  0571						0,0,				! ZERO BASE AND SIZE
;12062  0572						WORD(0),			! NO FLAGS SET
;12063  0573						BYTE(0),			! NO PFC
;12065  0574						COUNTEDSTRING('DEFAULT_CLUSTER')),
;12070  0575		LNK$GL_CURCLU : REF BLOCK[,BYTE] INITIAL(		! CURRENT CLUSTER INITIALLY THE DEFAULT
;12080  0576					LNK$GL_DEFCLU[CLU$L_NXTCLU]),
;12100  0577	!
;12110  0578		LNK$GL_FVMLST,						! INITIALLY EMPTY FREE VIRTUAL MEMORY LIST
;12200  0579		LNK$GL_IMGFIL : REF BLOCK[,BYTE],			! POINTER TO THE IMAGE FILE DESCRIPTOR
;12300  0580		LNK$GL_MAPFIL : REF BLOCK[,BYTE],			! POINTER TO MAP FILE DESCRIPTOR
;12400  0581		LNK$GL_SYMFIL : REF BLOCK[,BYTE],			! POINTER TO SYMBOL TABLE FILE DESCRIPTOR
;12500  0582	!
;12600  0583		LNK$GT_IMGNAM : VECTOR[SYM$C_MAXLNG + 1,BYTE],		! IMAGE NAME COUNTED STRING
;12700  0584		LNK$GT_IMGID  : VECTOR[SYM$C_MAXLNG + 1,BYTE],		! IMAGE IDENT COUNTED STRING
;12710  0585		LNK$GW_MISECTS : WORD INITIAL(LNK$K_ISDMAX),		! MAXIMUM NUMBER OF IMAGE SECTIONS
;12720  0586		LNK$GW_DZROMIN : WORD INITIAL(LNK$K_DZROMIN),		! THRESHOLD ON MINIMUM SIZE OF EMPTY REGIONS BEFORE COMPRESSING
;12800  0587	!
;12900  0588		LNK$GB_PASS : BYTE;					! CURRENT PASS
;12910  0589	!
;12920  0590	GLOBAL BIND
;12930  0591		LNK$GL_DEFBAS = LNK$GL_DEFCLU[CLU$L_BASE],
;12940  0592		LNK$GW_DEFLAGS = LNK$GL_DEFCLU[CLU$W_FLAGS];

; Bliss-32 7.352	Saturday 22-AUG-1978 04:42:49	DBB3:[LINKER.SRC]LNKDATBAS.B32;4				Page 2-2
; Digital Equipment Corporation
;
;13000  0593	END ELUDOM


							    .TITLE  LNK_DATABASE
							    .IDENT  \X01.010\

							    .PSECT  $GLOBAL$,NOEXE,2

					      00000 LNK$GL_CTLMSK::
							    .BLKB   4
					      00004 LNK$GL_CLULST::
							    .LONG   0							      ;
					      00008 	    .ADDRESS  LNK$GL_CLULST					      ;
					      0000C LNK$GL_DEFCLU::
							    .LONG   0, 0						      ;
					      00014 	    .ADDRESS  LNK$GL_DEFCLU+4					      ;
					      00018 	    .LONG   0							      ;
					      0001C 	    .ADDRESS  LNK$GL_DEFCLU+12					      ;
					      00020 	    .LONG   0							      ;
					      00024 	    .ADDRESS  LNK$GL_DEFCLU+20					      ;
					      00028 	    .LONG   0, 0						      ;
					      00030 	    .WORD   0							      ;
					      00032 	    .BYTE   0							      ;
					      00033 	    .BYTE   15							      ;
					      00034 	    .ASCII  \DEFAULT_CLUSTER\					      ;
					      00043	    .BLKB   1
					      00044 LNK$GL_CURCLU::
							    .ADDRESS  LNK$GL_DEFCLU					      ;
					      00048 LNK$GL_FVMLST::
							    .BLKB   4
					      0004C LNK$GL_IMGFIL::
							    .BLKB   4
					      00050 LNK$GL_MAPFIL::
							    .BLKB   4
					      00054 LNK$GL_SYMFIL::
							    .BLKB   4
					      00058 LNK$GT_IMGNAM::
							    .BLKB   16
					      00068 LNK$GT_IMGID::
							    .BLKB   16
					      00078 LNK$GW_MISECTS::
							    .WORD   95							      ;
					      0007A LNK$GW_DZROMIN::
							    .WORD   5							      ;
					      0007C LNK$GB_PASS::
							    .BLKB   1

						    SYM$C_MAXLNG==	15
						    FDB$C_SIZE==	75
						    LNK$S_NEWUDF==	0
						    LNK$S_LIBR==	1
						    LNK$S_SHR==		2
						    LNK$S_SELSER==	3
						    LNK$S_OPTION==	4
						    LNK$S_DEBUGER==	5

; Bliss-32 7.352	Saturday 22-AUG-1978 04:42:49	DBB3:[LINKER.SRC]LNKDATBAS.B32;4				Page 2-3
; Digital Equipment Corporation
;
						    LNK$S_LIBEXTR==	6
						    LNK$S_LIBSRCH==	7
						    LNK$M_NEWUDF==	1
						    LNK$M_LIBR==	2
						    LNK$M_SHR==		4
						    LNK$M_SELSER==	8
						    LNK$M_OPTION==	16
						    LNK$M_DEBUGER==	32
						    LNK$M_LIBEXTR==	64
						    LNK$M_LIBSRCH==	128
						    PMT$L_PSCDES==	0
						    PMT$L_MODCON==	1
						    PMT$L_SYMLST==	1
						    PMT$C_SIZE==	8
						    OMD$C_SIZE==	2080
						    OMD$M_NOPSCT==	1
						    OMD$S_NOPSCT==	0
						    OMD$M_NOBIN==	2
						    OMD$S_NOBIN==	1
						    OMD$M_SHRIMG==	4
						    OMD$S_SHRIMG==	2
						    OMD$M_SELSER==	8
						    OMD$S_SELSER==	3
						    OMD$M_MAPMOD==	16
						    OMD$S_MAPMOD==	4
						    OMD$M_DEBUGER==	32
						    OMD$S_DEBUGER==	5
						    PSC$C_SIZE==	43
						    MPC$C_SIZE==	17
						    LID$C_SIZE==	4
						    CLU$C_SIZE==	55
						    CLU$S_BASED==	0
						    CLU$S_SYMBAS==	1
						    CLU$S_SHRIMG==	2
						    CLU$S_PIC==		3
						    CLU$S_COPY==	4
						    CLU$S_OPEN==	5
						    CLU$S_PENDING==	6
						    FVM$C_SIZE==	12
						    LNK$K_DZROMIN==	5
						    LNK$K_ISDMAX==	95
						    LNK$S_IMAGE==	0
						    LNK$S_EXE==		1
						    LNK$S_SYS==		3
						    LNK$S_MAP==		4
						    LNK$S_MAPOPN==	5
						    LNK$S_DBG==		6
						    LNK$S_CROS==	7
						    LNK$S_LONG==	8
						    LNK$S_BRIEF==	9
						    LNK$S_SYSLIB==	10
						    LNK$S_INTFIL==	11
						    LNK$S_VERIFY==	11
						    LNK$S_SYMTBL==	12
						    LNK$S_SUPSYS==	13

; Bliss-32 7.352	Saturday 22-AUG-1978 04:42:49	DBB3:[LINKER.SRC]LNKDATBAS.B32;4				Page 2-4
; Digital Equipment Corporation
;
						    LNK$S_SUPDBG==	14
						    LNK$S_DBGREC==	15
						    LNK$S_PICIMG==	16
						    LNK$S_TRACE==	17
						    LNK$S_CONTIG==	18
						    LNK$S_SYSSHR==	19
						    LNK$S_NOP0BUFS==	20
						    LNK$M_IMAGE==	1
						    LNK$M_EXE==		2
						    LNK$M_SYS==		8
						    LNK$M_MAP==		16
						    LNK$M_MAPOPN==	32
						    LNK$M_DBG==		64
						    LNK$M_CROS==	128
						    LNK$M_LONG==	256
						    LNK$M_BRIEF==	512
						    LNK$M_SYSLIB==	1024
						    LNK$M_INTFIL==	2048
						    LNK$M_SYMTBL==	4096
						    LNK$M_SUPSYS==	8192
						    LNK$M_SUPDBG==	16384
						    LNK$M_DBGREC==	32768
						    LNK$M_PICIMG==	65536
						    LNK$M_TRACE==	131072
						    LNK$M_CONTIG==	262144
						    LNK$M_SYSSHR==	524288
						    LNK$M_NOP0BUFS==	1048576
						    DEF$C_LNKCTL==	615443
						    LNK$GL_DEFBAS==	LNK$GL_DEFCLU+28
						    LNK$GW_DEFLAGS==	LNK$GL_DEFCLU+36


;				       PSECT SUMMARY
;
;	Name		 Bytes			       Attributes
;
;  $GLOBAL$       	   125    WRT,  RD ,NOEXE,NOSHR,  LCL,  REL,  CON,NOPIC,ALIGN(2)
;  $CODE$         	     0  NOWRT,  RD ,  EXE,NOSHR,  LCL,  REL,  CON,NOPIC,ALIGN(2)


;				LIBRARY STATISTICS
;
;					     -------- Symbols --------    Blocks
;	File				     Total    Loaded   Percent      Read
;
;  DBA4:[SYSLIB]STARLET.L32;1		      2688         1         0       108


; Size:		0 code + 125 data bytes

; Bliss-32 7.352	Saturday 22-AUG-1978 04:42:49									Page 2-5
; Digital Equipment Corporation
;
; Run Time:	00:12.5
; Elapsed Time:	00:14.7
; Memory Used:	162 pages
; Compilation Complete
