
; Bliss-32 7.352	Saturday 22-AUG-1978 05:00:44	DBB3:[LINKER.SRC]LNKPSCTBL.B32;5				Page 1
; Digital Equipment Corporation
;
;00100  0001	MODULE LNK_PSCTSERINS (IDENT='X01.02') =
;00200  0002
;00300  0003	BEGIN
;00400  0004	!
;00500  0005	!
;00600  0006	! Copyright (C) 1976, 1977, 1978
;00700  0007	! Digital Equipment Corporation,  Maynard, Massachusetts  01754
;00800  0008	!
;00900  0009	! This software is furnished under a license for use only on  a
;01000  0010	! single computer system and may be copied only with the inclu-
;01100  0011	! sion of the above copyright notice.  This  software,  or  any
;01200  0012	! other  copies  thereof, may not be provided or otherwise made
;01300  0013	! available to any other person except for use on  such  system
;01400  0014	! and  to  one who agrees to these license terms.  Title to and
;01500  0015	! ownership of the software shall at all times remain in DEC.
;01600  0016	!
;01700  0017	! The information in this software is subject to change without
;01800  0018	! notice and should not be construed as a commitment by Digital
;01900  0019	! Equipment Corporation.
;02000  0020	!
;02100  0021	! DEC assumes no responsibility for the use or  reliability  of
;02200  0022	! its software on equipment which is not supplied by DEC.
;02300  0023	!
;02400  0024	!
;02500  0025	!
;02600  0026	!
;02700  0027	!
;02800  0028	!++
;02900  0029	!
;03000  0030	! MODULE: LNK_PSCTSERINS
;03100  0031	!
;03200  0032	! FACILITY: LINKER
;03300  0033	!
;03400  0034	! ABSTRACT: SEARCH AND INSERT ROUTINES FOR P-SECTIONS
;03500  0035	!
;03600  0036	! HISTORY:
;03700  0037	!
;03800  0038	!	VERSION: X01.00
;03900  0039	!
;04000  0040	!	AUTHOR: T.J. PORTER 16-MAR-77
;04100  0041	!
;04200  0042	!	MODIFICATIONS:
;04300  0043	!
;04400  0044	! NO.	DATE		PROGRAMMER	PURPOSE
;04500  0045	! ---	----		----------	-------
;04600  0046	! 001	21-APR-78	T.J. PORTER	REQUIRE FILE CLEAN UP
;04610  0047	! 002	12-JUN-78	T.J. PORTER	EXTENDED FOR MULTIPLE P-SECTION LISTS,
;04620  0048	!						ONE FOR EACH CLUSTER, AND MAKE
;04630  0049	!						THE SEARCH SCOPE CONTROLLABLE.
;04640  0050	!					ALSO MERGE THE INSERTIONWITH THE SEARCH
;04650  0051	!						ROUTINE.
;04700  0052	!--

; Bliss-32 7.352	Saturday 22-AUG-1978 05:00:44	DBB3:[LINKER.SRC]LNKPSCTBL.B32;5				Page 2
; Digital Equipment Corporation
;
;04800  0053
;04900  0054	!
;05000  0055	!++
;05100  0056	!
;05200  0057	! FUNCTIONAL DESCRIPTION:
;05300  0058	!
;05400  0059	! PROGRAM SECTIONS ARE REPRESENTED BY DESCRIPTORS (NAMES OF
;05500  0060	! FORM PSC$X_YY...) IN A SINGLY LINKED, LEXICALLY ORDERED
;05600  0061	! LIST. THE LIST HEAD IS IN THE CLUSTER DESCRIPTOR.
;05700  0062	!
;05800  0063	! THIS MODULE CONTAINS THE ROUTINES TO INSERT A P-SECTION
;05900  0064	! IN SUCH A LIST AS WELL AS TO FIND P-SECTIONS. AN INSERT
;06000  0065	! OF A P-SECTION IS PRECEEDED BY A SEARCH FOR A
;06100  0066	! P-SECTION OF THE SAME NAME. IF NOT FOUND, THEN THE DESCRIPTOR IS
;06110  0067	! ALLOCATED IN THE CORRECT PLACE IN THE CURRENT CLUSTER'S LIST.
;06200  0068	!
;06300  0069	! THERE ARE TWO WAYS OF SEARCHING FOR P-SECTION
;06400  0070	!		(1) BY NAME (LNK$FNDPSCNAM)
;06500  0071	!		(2) BY ATTRIBUTE MASK (LNK$FNDPSCMSK)
;06700  0072	!
;06800  0073	! THE CALLING SEQUENCES ARE AS FOLLOWS:
;06900  0074	!
;07000  0075	!		LNK$FNDPSCNAM (PSCTNAME,SCOPE,PSCTDESC)
;07100  0076	!		LNK$FNDPSCMSK (MASK,MATCH,PSCTDESC)
;07400  0077	!
;07500  0078	! WHERE:
;07600  0079	!	PSCTNAME	=	ADDRESS OF COUNTED ASCII STRING
;07700  0080	!				WHICH IS THE P-SECTION NAME
;07800  0081	!	PSCTDESC	=	ADDRESS OF LONGWORD TO RECEIVE
;07900  0082	!				THE P-SECTION DESCRIPTOR ADDRESS IF
;08000  0083	!				P-SECTION FOUND OR INSERTED.
;08010  0084	!	SCOPE		=	0 FOR SEARCH OF CURRENT CLUSTER ONLY
;08020  0085	!				ELSE ALL DOWN TO CURRENT.
;08100  0086	!	MASK		=	MASK OF FLAG BITS TO BE EXTRACTED
;08200  0087	!				(FOR PURPOSES OF COMPARISON) FROM
;08300  0088	!				THE P-SECTION DESCRIPTOR FLAGS.
;08400  0089	!	MATCH		=	THE PATTERN OF FLAGS TO BE MATCHED
;08500  0090	!				AFTER ADDING THE P-SECTION
;08600  0091	!				FLAGS WITH THE MASK.
;08700  0092	!			I.E., SEARCH BY MASK IS SUCCESSFUL IF (P-SECTION
;08800  0093	!			FLAGS) .AND. (MASK) = MATCH.
;08900  0094	!	ROUTINES HAVE THE VALUE TRUE IF P-SECTION IS
;09000  0095	!	FOUND TO EXIST BEFORE THE CALL, FALSE OTHERWISE.
;09400  0096	!
;09500  0097	!--
;09600  0098	!
;09700  0099	LIBRARY
;09800  0100		'SYS$LIBRARY:STARLET.L32';			! SYSTEM DATA STRUCTURES
;09900  0101	REQUIRE
;10000  0102		'PREFIX';			! MACROS ETC.
;10100  0294	REQUIRE
;10200  0295		'DATBAS';			! DATA BASE DEFINITIONS
;10300  0527	REQUIRE
;10400  0528		'SYMFMT';			! SYMBOL FORMATS
;10500  0613	!

; Bliss-32 7.352	Saturday 22-AUG-1978 05:00:44	DBB3:[LINKER.SRC]LNKPSCTBL.B32;5				Page 2-1
; Digital Equipment Corporation
;
;11400  0614	EXTERNAL ROUTINE
;11500  0615		LNK$ALLOBLK;					! DYNAMIC MEMORY ALLOCATOR
;11700  0616	!
;11710  0617	EXTERNAL
;11720  0618		LNK$GL_CLULST : VECTOR[2],			! CLUSTER DESCRIPTOR LISTHEAD
;11730  0619		LNK$GL_CURCLU;					! CURRENT CLUSTER DESCRIPTOR
;12400  0620	!
;12500  0621	GLOBAL ROUTINE LNK$FNDPSCNAM(PSCTNAME,SCOPE,PSCTDESC)=
;12600  0622	BEGIN
;12700  0623	!
;12800  0624	! FIND P-SECTION BY NAME. PSCTNAME IS THE ADDRESS OF THE ASCIC
;12900  0625	! STRING P-SECTION NAME. PSCTDESC IS THE PLACE TO  PUT THE
;13000  0626	! FOUND OR ALLOCATED DESCRIPTOR. IF SCOPE IS NON ZERO, ALL CLUSTERS
;13010  0627	! DOWN TO CURRENT ARE SEARCHED.
;13100  0628	!
;13300  0629	MAP
;13400  0630		PSCTNAME : REF VECTOR[,BYTE];			! FOR ASCIC STRING
;13500  0631	LOCAL
;13510  0632		CLUSTER : REF BLOCK[,BYTE],			! CLUSTER DESCRIPTOR
;13600  0633		NXTENTRY : REF BLOCK[,BYTE],			! ENTRIES FOR SEARCH/INSERT, NEXT AND
;13602  0634		PREVENTRY : REF BLOCK[,BYTE];			! PREVIOUS ENTRY DESCRIPTORS
;13700  0635	!
;13710  0636	IF .SCOPE NEQ 0						! IF GLOBAL SEARCH SCOPE
;13720  0637	THEN CLUSTER = LNK$GL_CLULST[0]				! START AT TOP OF CLUSTER LIST
;13730  0638	ELSE CLUSTER = LNK$GL_CURCLU;				! IF LOCAL START AT CURRENT CLUSTER
;13740  0639	WHILE (CLUSTER = .CLUSTER[CLU$L_NXTCLU]) NEQ 0		! MOVE ON TO NEXT CLUSTER IN LIST
;13750  0640	DO BEGIN
;13800  0641		PREVENTRY = CLUSTER[CLU$L_FSTPSC];		! START AT LISTHEAD
;13900  0642		WHILE(NXTENTRY = .PREVENTRY[PSC$L_NXTPSC]) NEQ 0		! GO DOWN THE LIST
;14100  0643		DO BEGIN							! OF P-SECTIONS IN THIS CLUSTER
;14400  0644			IF CH$EQL(.PSCTNAME[0],PSCTNAME[1],			! AND IF A MATCH IS FOUND
;14500  0645				.NXTENTRY[PSC$B_NAMLNG],NXTENTRY[PSC$T_NAME])
;14700  0646			THEN BEGIN
;14800  0647				.PSCTDESC = NXTENTRY[PSC$C_START];	 	! RETURN DESCRIPTOR
;15000  0648				RETURN TRUE;					! ADDRESS AND SUCCESSFUL FIND
;15100  0649			     END;
;15210  0650			IF CH$LEQ(.PSCTNAME[0],PSCTNAME[1],		! IF DESIRED P-SECTION GOES BEFORE
;15212  0651					.NXTENTRY[PSC$B_NAMLNG],NXTENTRY[PSC$T_NAME])	! NEXT IT IS NOT
;15214  0652			THEN EXITLOOP						! WORTH ANY MORE SEARCHING
;15216  0653			ELSE PREVENTRY = .NXTENTRY				! OTHERWISE CONTINUE
;15218  0654		   END;							! END OF P-SECTION LIST
;15220  0655		IF .CLUSTER EQL .LNK$GL_CURCLU				! NO MATCH SO IF THIS IS
;15226  0656		THEN BEGIN						! IS CURRENT CLUSTER
;15252  0657			LNK$ALLOBLK(PSC$C_SIZE,NXTENTRY);		! GO ALLOCATE DESCRIPTOR
;15259  0658			NXTENTRY [PSC$B_NAMLNG] = .PSCTNAME[0];		! INSERT NAME LENGTH
;15266  0659			CH$COPY(.PSCTNAME[0],PSCTNAME[1],0,		! COPY IN THE NAME
;15273  0660				SYM$C_MAXLNG,NXTENTRY[PSC$T_NAME]);	! WITH ZERO FILL
;15280  0661			NXTENTRY[PSC$L_NXTPSC] = .PREVENTRY[PSC$L_NXTPSC]; ! INSERT IN QUEUE
;15283  0662			PREVENTRY[PSC$L_NXTPSC] = .NXTENTRY;
;15287  0663			.PSCTDESC = .NXTENTRY;				! RETURN DESCRIPTOR
;15300  0664			RETURN FALSE;				! AND INDICATION THAT NEW P-SECTION INSERTED
;15350  0665		     END;
;15602  0666	   END;
;15800  0667	END;	! OF SEARCH AND INSERT ROUTINE


; Bliss-32 7.352	Saturday 22-AUG-1978 05:00:44	DBB3:[LINKER.SRC]LNKPSCTBL.B32;5				Page 2-2
; Digital Equipment Corporation
;

							    .TITLE  LNK_PSCTSERINS
							    .IDENT  \X01.02\

						    SYM$C_MAXLNG==	15
						    FDB$C_SIZE==	75
						    LNK$S_NEWUDF==	0
						    LNK$S_LIBR==	1
						    LNK$S_SHR==		2
						    LNK$S_SELSER==	3
						    LNK$S_OPTION==	4
						    LNK$S_DEBUGER==	5
						    LNK$S_LIBEXTR==	6
						    LNK$S_LIBSRCH==	7
						    LNK$M_NEWUDF==	1
						    LNK$M_LIBR==	2
						    LNK$M_SHR==		4
						    LNK$M_SELSER==	8
						    LNK$M_OPTION==	16
						    LNK$M_DEBUGER==	32
						    LNK$M_LIBEXTR==	64
						    LNK$M_LIBSRCH==	128
						    PMT$L_PSCDES==	0
						    PMT$L_MODCON==	1
						    PMT$L_SYMLST==	1
						    PMT$C_SIZE==	8
						    OMD$C_SIZE==	2080
						    OMD$M_NOPSCT==	1
						    OMD$S_NOPSCT==	0
						    OMD$M_NOBIN==	2
						    OMD$S_NOBIN==	1
						    OMD$M_SHRIMG==	4
						    OMD$S_SHRIMG==	2
						    OMD$M_SELSER==	8
						    OMD$S_SELSER==	3
						    OMD$M_MAPMOD==	16
						    OMD$S_MAPMOD==	4
						    OMD$M_DEBUGER==	32
						    OMD$S_DEBUGER==	5
						    PSC$C_SIZE==	43
						    MPC$C_SIZE==	17
						    LID$C_SIZE==	4
						    CLU$C_SIZE==	55
						    CLU$S_BASED==	0
						    CLU$S_SYMBAS==	1
						    CLU$S_SHRIMG==	2
						    CLU$S_PIC==		3
						    CLU$S_COPY==	4
						    CLU$S_OPEN==	5
						    CLU$S_PENDING==	6
						    FVM$C_SIZE==	12
						    SYM$C_TBLSIZ==	128
						    SYM$C_SIZE==	42
							    .GLOBL  LNK$ALLOBLK, LNK$GL_CLULST, LNK$GL_CURCLU


; Bliss-32 7.352	Saturday 22-AUG-1978 05:00:44	DBB3:[LINKER.SRC]LNKPSCTBL.B32;5				Page 2-3
; Digital Equipment Corporation
;
							    .PSECT  $CODE$,NOWRT,2

					 03FC 00000 	    .ENTRY  LNK$FNDPSCNAM, Save R2,R3,R4,R5,R6,R7,R8,R9		      ; 0621
		         5E	       04  C2 00002 	    SUBL2   #4, SP						      ;
				  08   AC  D5 00005 	    TSTL    SCOPE						      ; 0636
				       07  13 00008 	    BEQL    1$							      ;
		         58	0000G  CF  9E 0000A 	    MOVAB   LNK$GL_CLULST, CLUSTER				      ; 0637
				       05  11 0000F 	    BRB     2$							      ; 0636
		         58	0000G  CF  9E 00011 1$:     MOVAB   LNK$GL_CURCLU, CLUSTER				      ; 0638
		         57	  04   AC  D0 00016 2$:     MOVL    PSCTNAME, R7					      ; 0644
		         58	       68  D0 0001A 3$:     MOVL    (CLUSTER), CLUSTER					      ; 0639
				       67  13 0001D 	    BEQL    7$							      ;
	   59	         58	       0C  C1 0001F 	    ADDL3   #12, CLUSTER, PREVENTRY				      ; 0641
		         6E	       69  D0 00023 4$:     MOVL    (PREVENTRY), NXTENTRY				      ; 0642
				       32  13 00026 	    BEQL    6$							      ;
		         51	       67  9A 00028 	    MOVZBL  (R7), R1						      ; 0644
		         54	       6E  D0 0002B 	    MOVL    NXTENTRY, R4					      ; 0645
		         50	  1B   A4  9A 0002E 	    MOVZBL  27(R4), R0						      ;
	   00	    01   A7	       51  2D 00032 	    CMPC5   R1, 1(R7), #0, R0, 28(R4)				      ; 0644
		    1C   A4	       50     00037									      ;
				       08  12 0003A 	    BNEQ    5$							      ;
		    0C   BC	       54  D0 0003C 	    MOVL    R4, @PSCTDESC					      ; 0647
		         50	       01  D0 00040 	    MOVL    #1, R0						      ; 0648
					   04 00043 	    RET     							      ;
		         51	       67  9A 00044 5$:     MOVZBL  (R7), R1						      ; 0650
		         50	  1B   A4  9A 00047 	    MOVZBL  27(R4), R0						      ; 0651
	   00	    01   A7	       51  2D 0004B 	    CMPC5   R1, 1(R7), #0, R0, 28(R4)				      ; 0650
		    1C   A4	       50     00050									      ;
				       05  1B 00053 	    BLEQU   6$							      ;
		         59	       54  D0 00055 	    MOVL    R4, PREVENTRY					      ; 0653
				       C9  11 00058 	    BRB     4$							      ; 0642
		  0000G  CF	       58  D1 0005A 6$:     CMPL    CLUSTER, LNK$GL_CURCLU				      ; 0655
				       B9  12 0005F 	    BNEQ    3$							      ;
				       5E  DD 00061 	    PUSHL   SP							      ; 0657
				       2B  DD 00063 	    PUSHL   #43							      ;
		  0000G  CF	       02  FB 00065 	    CALLS   #2, LNK$ALLOBLK					      ;
		         56	       6E  D0 0006A 	    MOVL    NXTENTRY, R6					      ; 0658
		    1B   A6	       67  90 0006D 	    MOVB    (R7), 27(R6)					      ;
		         50	       67  9A 00071 	    MOVZBL  (R7), R0						      ; 0659
	   00	    01   A7	       50  2C 00074 	    MOVC5   R0, 1(R7), #0, #15, 28(R6)				      ;
		    1C   A6	       0F     00079									      ;
		         66	       69  D0 0007C 	    MOVL    (PREVENTRY), (R6)					      ; 0661
		         69	       56  D0 0007F 	    MOVL    R6, (PREVENTRY)					      ; 0662
		    0C   BC	       56  D0 00082 	    MOVL    R6, @PSCTDESC					      ; 0663
				       50  D4 00086 7$:     CLRL    R0							      ; 0621
					   04 00088 	    RET     							      ;

; Routine Size:  137 bytes


;18400  0668	GLOBAL ROUTINE LNK$FNDPSCMSK(MASK,MATCH,PSCTDESC) =
;18500  0669	BEGIN
;18600  0670	!
;18700  0671	! FIND NEXT P-SECTION (IN CURRENT CLUSTER) WHOSE ATTRIBUTES
;18800  0672	! HAVE A PARTICULAR VALUE (MATCH) AFTER EXTRACTING

; Bliss-32 7.352	Saturday 22-AUG-1978 05:00:44	DBB3:[LINKER.SRC]LNKPSCTBL.B32;5				Page 2-4
; Digital Equipment Corporation
;
;18900  0673	! WITH MASK.
;19000  0674	!
;19500  0675	OWN
;19600  0676		PREVENTRY : REF BLOCK[,BYTE],			! PREVIOUS ENTRY
;19700  0677		PREVMASK,					! MASK ON LAST CALL
;19800  0678		PREVMATCH;					! MATCH ON LAST CALL
;19900  0679	!
;19910  0680	MAP
;19920  0681		LNK$GL_CURCLU : REF BLOCK[,BYTE];		! CHANGE ATTRIBUTES
;19930  0682	!
;20000  0683	LOCAL
;20010  0684		CURENTRY : REF BLOCK[,BYTE];			! CURRENT ENTRY BEING EXAMINED
;20020  0685	!
;20200  0686	IF .PREVENTRY EQL 0					! IF FIRST TIME IN
;20300  0687	OR .MASK NEQ .PREVMASK					! OR A NEW SEARCH
;20400  0688	OR .MATCH NEQ .PREVMATCH				! PATTERN
;20500  0689	THEN BEGIN						! START AT THE
;20600  0690		PREVENTRY = LNK$GL_CURCLU[CLU$L_FSTPSC];	! LISTHEAD AND RE-
;20700  0691		PREVMASK  = .MASK;				! SET MASK AND
;20800  0692		PREVMATCH = .MATCH;				! MATCH VALUES.
;20900  0693		END;
;21000  0694	WHILE (CURENTRY = .PREVENTRY[PSC$L_NXTPSC]) NEQ 0	! GO DOWN LIST
;21100  0695	DO BEGIN
;21200  0696		IF (.CURENTRY[PSC$W_FLAGS] AND .PREVMASK) EQL	! MASK ATTRIBUTES
;21300  0697				.PREVMATCH			! AND COMPARE
;21400  0698		THEN BEGIN						! AND IF WE HAVE A MATCH
;21540  0699			.PSCTDESC = .CURENTRY;				! RETURN DESCRIPTOR ADDRESS
;21640  0700			PREVENTRY = .CURENTRY;				! SET TO CONTINUE ON NEXT CALL
;21800  0701			RETURN TRUE;					! AND THAT'S ALL
;21900  0702		     END;					! SUCCESS
;22000  0703		PREVENTRY = .CURENTRY;				!
;22100  0704	END;							! OTHERWISE LOOP
;22300  0705	RETURN FALSE;						! RETURN FAILURE TO MATCH
;22400  0706	END;


							    .PSECT  $OWN$,NOEXE,2

					      00000 PREVENTRY:
							    .BLKB   4
					      00004 PREVMASK:
							    .BLKB   4
					      00008 PREVMATCH:
							    .BLKB   4


							    .PSECT  $CODE$,NOWRT,2

					 0804 00089 	    .ENTRY  LNK$FNDPSCMSK, Save R2,R11				      ; 0668
		         5B	0000'  CF  9E 0008B 	    MOVAB   PREVENTRY, R11					      ;
				       6B  D5 00090 	    TSTL    PREVENTRY						      ; 0686
				       0E  13 00092 	    BEQL    1$							      ;
		    04   AB	  04   AC  D1 00094 	    CMPL    MASK, PREVMASK					      ; 0687

; Bliss-32 7.352	Saturday 22-AUG-1978 05:00:44	DBB3:[LINKER.SRC]LNKPSCTBL.B32;5				Page 2-5
; Digital Equipment Corporation
;
				       07  12 00099 	    BNEQ    1$							      ;
		    08   AB	  08   AC  D1 0009B 	    CMPL    MATCH, PREVMATCH					      ; 0688
				       0B  13 000A0 	    BEQL    2$							      ;
	   6B	  0000G  CF	       0C  C1 000A2 1$:     ADDL3   #12, LNK$GL_CURCLU, PREVENTRY			      ; 0690
		    04   AB	  04   AC  7D 000A8 	    MOVQ    MASK, PREVMASK					      ; 0691
		         50	  00   BB  D0 000AD 2$:     MOVL    @PREVENTRY, CURENTRY				      ; 0694
				       21  13 000B1 	    BEQL    4$							      ;
		         51	  19   A0  3C 000B3 	    MOVZWL  25(CURENTRY), R1					      ; 0696
		         52	  04   AB  D2 000B7 	    MCOML   PREVMASK, R2					      ;
		         51	       52  CA 000BB 	    BICL2   R2, R1						      ;
		    08   AB	       51  D1 000BE 	    CMPL    R1, PREVMATCH					      ;
				       0B  12 000C2 	    BNEQ    3$							      ;
		    0C   BC	       50  D0 000C4 	    MOVL    CURENTRY, @PSCTDESC					      ; 0699
		         6B	       50  D0 000C8 	    MOVL    CURENTRY, PREVENTRY					      ; 0700
		         50	       01  D0 000CB 	    MOVL    #1, R0						      ; 0701
					   04 000CE 	    RET     							      ;
		         6B	       50  D0 000CF 3$:     MOVL    CURENTRY, PREVENTRY					      ; 0703
				       D9  11 000D2 	    BRB     2$							      ; 0694
				       50  D4 000D4 4$:     CLRL    R0							      ; 0705
					   04 000D6 	    RET     							      ; 0668

; Routine Size:  78 bytes


;25100  0707	END ELUDOM


;				       PSECT SUMMARY
;
;	Name		 Bytes			       Attributes
;
;  $CODE$         	   215  NOWRT,  RD ,  EXE,NOSHR,  LCL,  REL,  CON,NOPIC,ALIGN(2)
;  $OWN$          	    12    WRT,  RD ,NOEXE,NOSHR,  LCL,  REL,  CON,NOPIC,ALIGN(2)


;				LIBRARY STATISTICS
;
;					     -------- Symbols --------    Blocks
;	File				     Total    Loaded   Percent      Read
;
;  DBA4:[SYSLIB]STARLET.L32;1		      2688         1         0       108


; Size:		215 code + 12 data bytes
; Run Time:	00:18.1
; Elapsed Time:	00:20.1

; Bliss-32 7.352	Saturday 22-AUG-1978 05:00:44									Page 2-6
; Digital Equipment Corporation
;
; Memory Used:	200 pages
; Compilation Complete
