DECIML	MACRO M1110  22-AUG-78 05:30  PAGE 2


    100						.TITLE	DECIML
    200						.IDENT	/0100/
    300	000000					OWN$	CNVD
    400		000000 				R0=%0
    500		000002 				R2=%2
    600		000001 				R1=%1
    700		000006 				SP=%6
    800	000000	000000 			SUM:	.WORD 0
    900	000002	   000 	   000 	   000 	DEC:	.BYTE 0,0,0,0,0,0,0
	000005	   000 	   000 	   000
	000010	   000
   1000						.EVEN
   1100	000012	000000 			VALUE:	.WORD 0
   1200	000014					CODE$	CNVD			;SAME PSECT AS THE CODE BELOW
   1250										;FOR REASONS OF LOCALITY
   1300	000000	165140 	141520 	116100 	TABL:	.WORD 60000.,50000.,40000.,30000.,20000.,10000.
	000006	072460 	047040 	023420
   1400	000014	021450 	017500 	015530 		.WORD 9000.,8000.,7000.,6000.,5000.,4000.,3000.,2000.,1000.
	000022	013560 	011610 	007640
	000030	005670 	003720 	001750
   1500	000036	001604 	001440 	001274 		.WORD 900.,800.,700.,600.,500.,400.,300.,200.,100.
	000044	001130 	000764 	000620
	000052	000454 	000310 	000144
   1600	000060	000132 	000120 	000106 		.WORD 90.,80.,70.,60.,50.,40.,30.,20.,10.
	000066	000074 	000062 	000050
	000074	000036 	000024 	000012
   1700	000102	000011 	000010 	000007 		.WORD 9.,8.,7,6,5,4,3,2,1
	000110	000006 	000005 	000004
	000116	000003 	000002 	000001
   1800
   1900						.GLOBL	CNVDEC
   2000	000124					CODE$	CNVD
   2100
   2200	000124	016667 	000002 	000002'	CNVDEC:	MOV 2(SP),DEC
   2300	000132	016667 	000004 	000012'		MOV 4(SP),VALUE
   2400	000140	010246 				MOV R2,-(SP)
   2500	000142	005000 				CLR R0
   2600	000144	012702 	000003'			MOV #DEC+1,R2
   2700	000150	012767 	177772 	000000'		MOV #14-22,SUM
   2800
   2900	000156	112712 	000066 		PLACE5:	MOVB #66,(R2)
   3000	000162	026067 	000000'	000012'	NEX5:	CMP TABL(R0),VALUE
   3100	000170	101406 				BLOS PLACE
   3200	000172	005720 				TST (R0)+
   3300	000174	105312 				DECB (R2)
   3400	000176	122712 	000060 			CMPB #60,(R2)
   3500	000202	001367 				BNE NEX5
   3600	000204	000406 				BR START
   3700
   3800	000206	020227 	000007'		PLACE:	CMP R2,#DEC+5
   3900	000212	001430 				BEQ DONE
   4000	000214	166067 	000000'	000012'		SUB TABL(R0),VALUE
   4100	000222	105722 			START:	TSTB (R2)+
   4200	000224	062767 	000022 	000000'		ADD #22,SUM
   4300	000232	016700 	000000'		FIRST:	MOV SUM,R0
   4400	000236	112712 	000071 			MOVB #71,(R2)
   4500	000242	026067 	000000'	000012'	NEX:	CMP TABL(R0),VALUE
DECIML	MACRO M1110  22-AUG-78 05:30  PAGE 2-1


   4600	000250	101756 				BLOS PLACE
   4700	000252	005720 				TST (R0)+
   4800	000254	105312 				DECB (R2)
   4900	000256	122712 	000060 			CMPB #60,(R2)
   5000	000262	001367 				BNE NEX
   5100	000264	022767 	000102 	000000'		CMP #102,SUM
   5200	000272	001353 				BNE START
   5300
   5400	000274	010146 			DONE:	MOV R1,-(SP)
   5500	000276	012700 	000003'			MOV #DEC+1,R0
   5600	000302	122720 	000060 		ZER:	CMPB #60,(R0)+
   5700	000306	001775 				BEQ ZER
   5800	000310	005300 				DEC	R0
   5900	000312	116701 	000002'			MOVB DEC,R1
   6000	000316	005401 				NEG R1
   6100	000320	062701 	000010'			ADD #DEC+6,R1
   6200	000324	020001 				CMP R0,R1
   6300	000326	003401 				BLE LAST
   6400	000330	010100 				MOV R1,R0
   6500
   6600	000332	012601 			LAST:	MOV (SP)+,R1
   6700	000334	012602 				MOV (SP)+,R2
   6800	000336	000207 				RTS PC
   6900
   7000		000001 				.END
DECIML	MACRO M1110  22-AUG-78 05:30  PAGE 2-2
SYMBOL TABLE

CNVDEC  000124RG    003	LAST    000332R     003	PLACE5  000156R     003	R$$SHR= 000001   	TABL    000000R     003
DEC     000002R     002	NEX     000242R     003	RONLY$= 000001   	START   000222R     003	VALUE   000012R     002
DONE    000274R     003	NEX5    000162R     003	R$$EIS= 000001   	SUM     000000R     002	ZER     000302R     003
FIRST   000232R     003	PLACE   000206R     003

. ABS.	000000	   000
      	000000	   001
CNVD.D	000014	   002
CODE  	000340	   003
ERRORS DETECTED:  0

VIRTUAL MEMORY USED:  710 WORDS  ( 3 PAGES)
DYNAMIC MEMORY:  2772 WORDS  ( 10 PAGES)
ELAPSED TIME:  00:00:04
OBJ$:DECIML,LIS$:DECIML/-SP/NL:TOC=SRC$:PREFIX,DECIML
