INIERR - INITIALIZATION ERROR M	MACRO M1110  22-AUG-78 05:30  PAGE 2


    100						.TITLE	INIERR - INITIALIZATION ERROR MESSAGES
    200						.IDENT	/020501/
    300					;
    400					; COPYRIGHT 1978, DIGITAL EQUIPMENT CORP., MAYNARD, MASS. 01754
    500					;
    600					; DEC ASSUMES NO RESPONSIBILITY FOR THE USE OR RELIABILITY OF ITS
    700					; SOFTWARE ON EQUIPMENT WHICH IS NOT SUPPLIED BY DEC.
    800					;
    900					; THIS SOFTWARE IS FURNISHED TO PURCHASER UNDER A LICENSE FOR USE
   1000					; ON A SINGLE COMPUTER SYSTEM AND CAN BE COPIED (WITH INCLUSION
   1100					; OF DEC'S COPYRIGHT NOTICE) ONLY FOR USE IN SUCH SYSTEM, EXCEPT
   1200					; AS MAY OTHERWISE BE PROVIDED IN WRITING BY DEC.
   1300					;
   1400					; THE INFORMATION IN THIS DOCUMENT IS SUBJECT TO CHANGE WITHOUT
   1500					; NOTICE AND SHOULD NOT BE CONSTRUED AS A COMMITMENT BY DIGITAL
   1600					; EQUIPMENT CORPORATION.
   1700					;
   1800
   1900	000000					PLIT$	INI
   2000
   2100	000000					GLOBAL	<ERMSG1,ERMSG2,ERMSG3,ERMSG4,ERMSG5,ERMSG6>
   2200	000000					GLOBAL	<ERMSG7,ERMSG8,ERMS10,ERMS11,ERMS12,ERMS14>
   2300
   2400						.IF	DF,R$$STS
   2500						GLOBAL	<ERMS13>
   2600
   2700						.IFF
   2800	000000					GLOBAL	<ERMSG9,ERMS15>
   2900						.ENDC
   3000
   3100	000000					PLIT	ERMSG1,</Illegal syntax of file specification/>
   3200	000046					PLIT	ERMSG2,</Illegal switch specified/>
   3300	000100					PLIT	ERMSG3,</Input file does not exist/>
   3400	000134					PLIT	ERMSG4,</Unable to open input file/>
   3500	000170					PLIT	ERMSG5,</Output file already exists/>
   3600	000224					PLIT	ERMSG6,</Unable to open output file/>
   3700	000260					PLIT	ERMSG7,</Illegal file specification/>
   3800	000314					PLIT	ERMSG8,</Directory does not exist/>
   3900
   4000						.IF	NDF,R$$STS
   4100	000346					PLIT	ERMSG9,</Device not allocated or not mounted/>
   4200						.ENDC
   4300
   4400	000414					PLIT	ERMS10,</Output device must be a random access device/>
   4600						.EVEN
   4700	000472	000073 				.WORD	MSG11L+1/2
   4800	000474	   123 	   145 	   161 	ERMS11:	.ASCII	/Sequential input file requires explicit random access /
	000477	   165 	   145 	   156
	000502	   164 	   151 	   141
	000505	   154 	   040 	   151
	000510	   156 	   160 	   165
	000513	   164 	   040 	   146
	000516	   151 	   154 	   145
	000521	   040 	   162 	   145
	000524	   161 	   165 	   151
	000527	   162 	   145 	   163
	000532	   040 	   145 	   170
INIERR - INITIALIZATION ERROR M	MACRO M1110  22-AUG-78 05:30  PAGE 2-1


	000535	   160 	   154 	   151
	000540	   143 	   151 	   164
	000543	   040 	   162 	   141
	000546	   156 	   144 	   157
	000551	   155 	   040 	   141
	000554	   143 	   143 	   145
	000557	   163 	   163 	   040
   4900	000562	   157 	   165 	   164 		.ASCII	/output file/<15><12>
	000565	   160 	   165 	   164
	000570	   040 	   146 	   151
	000573	   154 	   145 	   015
	000576	   012
   5000	000577	   040 	   040 	   145 		.ASCII	/  e.g. SOS PROG.MAC=MT:PROG.MAC   or  SOS CARDS=CR:/
	000602	   056 	   147 	   056
	000605	   040 	   123 	   117
	000610	   123 	   040 	   120
	000613	   122 	   117 	   107
	000616	   056 	   115 	   101
	000621	   103 	   075 	   115
	000624	   124 	   072 	   120
	000627	   122 	   117 	   107
	000632	   056 	   115 	   101
	000635	   103 	   040 	   040
	000640	   040 	   157 	   162
	000643	   040 	   040 	   123
	000646	   117 	   123 	   040
	000651	   103 	   101 	   122
	000654	   104 	   123 	   075
	000657	   103 	   122 	   072
   5100		000166 			MSG11L	=	.-ERMS11
   5200						.EVEN
   5300
   5400	000662	000044 				.WORD	MSG12L+1/2
   5500	000664	   105 	   144 	   151 	ERMS12:	.ASCII	$Editing BASIC file -- /BASIC assumed$<15><12>
	000667	   164 	   151 	   156
	000672	   147 	   040 	   102
	000675	   101 	   123 	   111
	000700	   103 	   040 	   146
	000703	   151 	   154 	   145
	000706	   040 	   055 	   055
	000711	   040 	   057 	   102
	000714	   101 	   123 	   111
	000717	   103 	   040 	   141
	000722	   163 	   163 	   165
	000725	   155 	   145 	   144
	000730	   015 	   012
   5600	000732	   040 	   050 	   115 		.ASCII	$ (May be overridden with /NOBASIC)$
	000735	   141 	   171 	   040
	000740	   142 	   145 	   040
	000743	   157 	   166 	   145
	000746	   162 	   162 	   151
	000751	   144 	   144 	   145
	000754	   156 	   040 	   167
	000757	   151 	   164 	   150
	000762	   040 	   057 	   116
	000765	   117 	   102 	   101
	000770	   123 	   111 	   103
INIERR - INITIALIZATION ERROR M	MACRO M1110  22-AUG-78 05:30  PAGE 2-2


	000773	   051
   5700		000110 			MSG12L	=	.-ERMS12
   5800						.EVEN
   5900
   6000						.IF	DF,R$$STS
   6100						PLIT	ERMS13,<$Cannot edit .BAK unless /NOBAK specified$>
   6200						.ENDC
   6300
   6400	000774					PLIT	ERMS14,</Cannot edit an SOS temporary file/>
   6500
   6600						.IF	NDF,R$$STS
   6700	001040					PLIT	ERMS15,</Open error, device or directory write protected/>
   6800						.ENDC
   6900
   7000	001122					CODE$	INI
   7100
   7200	000000	000207 			LDINER::RTS	PC			;ENTRY POINT TO LOAD ERROR STRING OVERLAY
   7300
   7400
   7500		000001 				.END
INIERR - INITIALIZATION ERROR M	MACRO M1110  22-AUG-78 05:30  PAGE 2-3
SYMBOL TABLE

ERMSG1  000002RG    002	ERMSG5  000172RG    002	ERMSG9  000350RG    002	ERMS14  000776RG    002	MSG12L= 000110
ERMSG2  000050RG    002	ERMSG6  000226RG    002	ERMS10  000416RG    002	ERMS15  001042RG    002	RONLY$= 000001
ERMSG3  000102RG    002	ERMSG7  000262RG    002	ERMS11  000474RG    002	LDINER  000000RG    003	R$$EIS= 000001
ERMSG4  000136RG    002	ERMSG8  000316RG    002	ERMS12  000664RG    002	MSG11L= 000166   	R$$SHR= 000001

. ABS.	000000	   000
      	000000	   001
PLIT  	001122	   002
CODE  	000002	   003
ERRORS DETECTED:  0

VIRTUAL MEMORY USED:  1090 WORDS  ( 5 PAGES)
DYNAMIC MEMORY:  2772 WORDS  ( 10 PAGES)
ELAPSED TIME:  00:00:04
OBJ$:INIERR,LIS$:INIERR/-SP/NL:TOC=SRC$:PREFIX,INIERR
