SOSCAT - CATALOGUE (RENAME) ROU	MACRO M1110  22-AUG-78 05:30  PAGE 2


    100						.TITLE	SOSCAT - CATALOGUE (RENAME) ROUTINE
    200						.IDENT	/6B0201/
    300					;
    400					; COPYRIGHT 1977, DIGITAL EQUIPMENT CORP., MAYNARD, MASS. 01754
    500					;
    600					; DEC ASSUMES NO RESPONSIBILITY FOR THE USE OR RELIABILITY OF ITS
    700					; SOFTWARE ON EQUIPMENT WHICH IS NOT SUPPLIED BY DEC.
    800					;
    900					; THIS SOFTWARE IS FURNISHED TO PURCHASER UNDER A LICENSE FOR USE
   1000					; ON A SINGLE COMPUTER SYSTEM AND CAN BE COPIED (WITH INCLUSION
   1100					; OF DEC'S COPYRIGHT NOTICE) ONLY FOR USE IN SUCH SYSTEM, EXCEPT
   1200					; AS MAY OTHERWISE BE PROVIDED IN WRITING BY DEC.
   1300					;
   1400					; THE INFORMATION IN THIS DOCUMENT IS SUBJECT TO CHANGE WITHOUT
   1500					; NOTICE AND SHOULD NOT BE CONSTRUED AS A COMMITMENT BY DIGITAL
   1600					; EQUIPMENT CORPORATION.
   1700					;
   1800					; PETER H. LIPMAN	22-AUG-77
   1900					;
   2000						.MCALL	FDOF$L,QIOSY$
   2100	000000					FDOF$L
   2300	000000					QIOSY$
   2350
   2400						.IF	DF,R$$STS
   2500
   2600						DATA$	CAT
   2700
   2800					BAKBAK::.RAD50	/BAK/			;BACKUP EXTENSION
   2900
   3200						.ENDC
SOSCAT - CATALOGUE (RENAME) ROU	MACRO M1110  22-AUG-78 05:30  PAGE 3
CAT - RENAME FILES

    100						.SBTTL	CAT - RENAME FILES
    120
    140	000000					CODE$	CAT
    200
    300	000000				ENTRY	CAT
    400
    500						.IF	DF,R$$STS
    600						MOV	R1,-(SP)		;SAVE SOME REGS FIRST
    700						MOV	6(SP),R0		;FIRST FILE POINTER
    800
    900						.IF	DF,R$$DBG
   1000						MOV	#4,-(SP)		;***** EVENT 4 IF NOT .BAK
   1100						CMP	#-1,6(SP)		;***** .BAK?
   1200						BNE	2$			;***** BRANCH IF NOT
   1300						INC	(SP)			;***** YES, EVENT 5 FOR .BAK
   1400					2$:	JSR	PC,RECEVT		;***** RECORD THE EVENT
   1500						TST	(SP)+			;***** CLEAN THE STACK
   1600						.ENDC
   1700
   1800						MOV	R5,-(SP)		;TEMP SAVE OF R5
   1900						JSR	PC,..IFQB		;SETUP FIRQB FROM FDB
   2000						MOV	(SP)+,R5		;RESTORE R5
   2100						MOV	4(SP),R1		;SECOND FILE POINTER
   2200						CMP	R1,#-1			;BACKUP IT?
   2300						BEQ	15$			;YES.  IT IS SPECIAL
   2400						MOV	N.DID+F.FNB(R0),N.DID+F.FNB(R1)
   2500						MOV	N.FNAM+F.FNB(R1),FIRQB+FQNAM2;SET UP NEW NAME
   2600						MOV	N.FNAM+2+F.FNB(R1),FIRQB+FQNAM2+2
   2700						MOV	N.FTYP+F.FNB(R1),FIRQB+FQNAM2+4;
   2800					3$:	CLR	FIRQB+FQPROT-1		;DO NOT CHANGE PROT
   2900						MOVB	#RENFQ,FIRQB+FQFUN	;SET FUNCTION CODE TO RENAME
   3000						CALFIP
   3100						TSTB	IOSTS			;ANY ERROR?
   3200						BEQ	5$			;NO.  RET 0
   3300						CMPB	IOSTS,#FIEXST		;NEW FILE EXISTS?
   3400						BEQ	7$
   3500						CMPB	IOSTS,#BADNAM		;INVALID FILENAME
   3600						BEQ	8$
   3700						JSR	PC,IOCHK		;ANYTHING ELSE ERROR
   3800					5$:	MOV	4(SP),R1		;SECOND FILE NAME
   3900						CMP	R1,#-1			;BACKUP FILE?
   4000						BEQ	6$
   4100						MOV	N.DID+F.FNB(R0),N.DID+F.FNB(R1)
   4200						MOV	N.DVNM+F.FNB(R0),N.DVNM+F.FNB(R1)
   4300						MOV	N.UNIT+F.FNB(R0),N.UNIT+F.FNB(R1)
   4400					6$:	CLR	R0
   4500						BR	10$
   4600					7$:	MOV	#1,R0			;FILE EXISTS RETURN
   4700						BR	10$
   4800					8$:	MOV	#-1,R0			;BAD NAME RETURN
   4900					10$:
   5000						MOV	(SP)+,R1
   5100						RTS	PC			;AND RETURN
   5200
   5300					15$:	MOV	#FIRQB,R1		;POINT INTO FIRQB
   5400						MOV	FQNAM1(R1),FQNAM2(R1)	;COPY INFO FOR .BAK
   5500						MOV	FQNAM1+2(R1),FQNAM2+2(R1)
SOSCAT - CATALOGUE (RENAME) ROU	MACRO M1110  22-AUG-78 05:30  PAGE 3-1
CAT - RENAME FILES

   5600						MOV	BAKBAK,FQNAM2+4(R1)
   5700						BR	3$
   5800
   5900						.IFF
   6000	000000	004167 	000000G			JSR	R1,$SAV2		;PUSHES 3 WORD, SAVE R1,R2
   6100	000004	005046 				CLR	-(SP)			;INITIALIZE RETURN VALUE
   6200	000006	016600 	000014 			MOV	14(SP),R0		;FDB OF EXISTING FILE
   6300	000012	016601 	000012 			MOV	12(SP),R1		;FDB OF NEW NAME
   6400
   6500						.IF	DF,R$$DBG
   6600						MOV	#4,-(SP)		;***** EVENT 4 IF NOT .BAK
   6700						CMP	#-1,R1			;***** .BAK?
   6800						BNE	2$			;***** BRANCH IF NOT
   6900						INC	(SP)			;***** YES, EVENT 5
   7000					2$:	JSR	PC,RECEVT		;***** RECORD THE EVENT
   7100						TST	(SP)+			;***** CLEAN THE STACK
   7200						.ENDC
   7300
   7400	000016	022701 	177777 			CMP	#-1,R1			;SUPPOSED TO RENAME TO .BAK?
   7500	000022	001003 				BNE	5$			;BRANCH IF NO
   7600					;
   7700					; -1 INSTEAD OF THE NEW NAME FDB MEANS THAT WE ARE SUPPOSED TO RENAME
   7800					; THE EXISTING FILE TO ITS ORIGINAL NAME WITH TYPE .BAK.
   7900					; SINCE THIS ISN'T NECESSARY WITH FILES-11 VERSION NUMBERS, THE RENAME
   8000					; REQUEST IS ESSENTIALLY IGNORED.  BUT THIS DOES TURN OUT
   8100					; TO BE THE RIGHT PLACE TO GUARANTEE THAT WHEN THE UPDATED FILE
   8200					; IS RENAMED TO ITS DESIRED NAME, A NEW VERSION IS FORCED.
   8300					; ZERO THE ORIGINAL FILE VERSION NUMBER HERE.  IT MUST BE THE
   8400					; ORIGINAL INPUT FILE BECAUSE IT'S SUPPOSED TO BE RENAMED TO
   8500					; .BAK.  IF A NEW NAME WAS GIVE ON THE "E" COMMAND OR
   8600					; ITS EQUIVALENTS, THEN FORCING A NEW VERSION IS NOT AN ISSUE
   8700					; AND IF THE ORIGINAL SOS COMMAND LINE SAID
   8800					;	OUTPUT FILE = INPUT FILE
   8900					; THEN SOS IS ALWAYS PRODUCING THE OUTPUT FILE UNDER ITS CORRECT
   9000					; NAME AND A RENAME DOESN'T OCCUR.
   9100					;
   9200	000024	005060 	000120 			CLR	F.FVER(R0)
   9300	000030	000460 				BR	20$
   9310	000032	026061 	000134 	000134 	5$:	CMP	F.DVNM(R0),F.DVNM(R1)	;MUST BE SAME DEVICE
   9330	000040	001035 				BNE	8$
   9340	000042	026061 	000136 	000136 		CMP	F.UNIT(R0),F.UNIT(R1)	;AND UNIT, ELSE ERROR
   9350	000050	001031 				BNE	8$
   9400	000052	004767 	000152 			JSR	PC,REMOVE		;REMOVE THE ORIGINAL FILE
   9500	000056	103437 				BCS	15$			;BRANCH IF ERROR
   9600	000060	016600 	000012 			MOV	12(SP),R0		;NEW FILE NAME FDB
   9650	000064	011160 	000102 			MOV	(R1),F.FNB(R0)		;COPY FILE ID JUST REMOVED
   9652										;FOR ENTERING WITH NEW NAME
   9655	000070	005021 				CLR	(R1)+			;AND ZERO IT
   9660	000072	012160 	000104 			MOV	(R1)+,F.FNB+2(R0)
   9670	000076	011160 	000106 			MOV	(R1),F.FNB+4(R0)
   9700	000102	004767 	000114 			JSR	PC,ENTER		;MAKE ENTRY FOR NEW FILE NAME
   9800	000106	103015 				BCC	10$			;BRANCH IF ALL OK
   9900					;
  10000					; FAILED TO ENTER NEW NAME, PUT OLD ONE BACK
  10100					;
  10200	000110	016016 	000052 			MOV	F.ERR(R0),(SP)		;SAVE ERROR CODE
  10300	000114	016600 	000014 			MOV	14(SP),R0		;RECOVER FDB ADDRESS
SOSCAT - CATALOGUE (RENAME) ROU	MACRO M1110  22-AUG-78 05:30  PAGE 3-2
CAT - RENAME FILES

  10320	000120	011160 	000102 			MOV	(R1),F.FNB(R0)		;PUT FILE ID BACK
  10340	000124	005011 				CLR	(R1)			;ZERO IT
  10400	000126	004767 	000070 			JSR	PC,ENTER		;RESTORE OLD NAME
  10500	000132	000413 				BR	16$			;AND REPORT ERROR
  10510	000134	012716 	000320 		8$:	MOV	#<IE.2DV&377>,(SP)	;2 DEVICE ERROR FROM RENAME
  10520	000140	000410 				BR	16$
  10600					;
  10700					; RENAME SUCCESSFUL, R1 = FNB ADDRESS OF NEW NAME
  10800					;
  10900	000142	004767 	000000G		10$:	JSR	PC,WRTFNM		;WRITE FILE NAME IN FILE HEADER
  11000	000146	103011 				BCC	20$			;BRANCH IF DONE SUCCESSFULLY
  11100	000150	016716 	000000G			MOV	IOSTS,(SP)		;SET ERROR CODE
  11200	000154	000406 				BR	20$			;AND EXIT
  11300	000156	016016 	000052 		15$:	MOV	F.ERR(R0),(SP)		;RETURN NEGATIVE FOR ERROR
  11400	000162	122716 	177707 		16$:	CMPB	#IE.DUP,(SP)		;UNLESS NEW NAME ALREADY EXISTS
  11500	000166	001001 				BNE	20$			;BRANCH IF NOT THAT ERROR
  11600	000170	105416 				NEGB	(SP)			;RETURN GTR 0
  11700	000172	111600 			20$:	MOVB	(SP),R0			;RETURN VALUE
  12000	000174	002010 				BGE	30$			;BRANCH IF OK OR IE.DUP
  12100	000176	022700 	177760 			CMP	#IE.PRI,R0		;PRIVILEGE VIOLATION FOR
  12200	000202	001405 				BEQ	30$			;UNWRITABLE DIRECTORY
  12300	000204	022700 	177720 			CMP	#IE.2DV,R0		;TWO DEVICES FOR ATTEMPT TO
  12400	000210	001402 				BEQ	30$			;RENAME ACROSS DEVICES
  12500	000212	000167 	000000G			JMP	CATERR			;GO PRINT THE ERROR INFO
  12900	000216	005726 			30$:	TST	(SP)+			;CLEAN ERROR CODE OFF STACK
  12950	000220	000207 				RTS	PC
  13000						.ENDC
SOSCAT - CATALOGUE (RENAME) ROU	MACRO M1110  22-AUG-78 05:30  PAGE 4
DIRECTORY ROUTINES FOR RENAMING

    100						.SBTTL	DIRECTORY ROUTINES FOR RENAMING
    200					;
    300					; ENTER, REMOVE
    400					;	PERFORM THE SPECIFIED DIRECTORY OPERATION
    420					; INPUTS:
    440					;	R0 = FDB ADDRESS
    460					;
    480					; OUTPUTS:
    490					;	C=0 IF SUCCESSFUL, C=1 IF ERROR, F.ERR(R0)=ERROR CODE
    500					;	R0 PRESERVED
    600					;	R1 = FILE NAME BLOCK ADDRESS FOR FDB IN R0
    700					;	R2 ALTERED
   1000					;
   1100						.IF	NDF,R$$STS		;RSX ONLY
   1200
   1300						.ENABL	LSB
   1400
   1500	000222	012702 	000000G		ENTER:	MOV	#.ENTER,R2		;ENTER ROUTINE
   1600	000226	000402 				BR	10$
   1700	000230	012702 	000000G		REMOVE:	MOV	#.REMOV,R2		;REMOVE ROUTINE
   1800	000234	010001 			10$:	MOV	R0,R1			;FORM ADDRESS
   1900	000236	062701 	000102 			ADD	#F.FNB,R1		;OF FILE NAME BLOCK
   2000	000242	004712 			15$:	JSR	PC,(R2)			;CALL THE DIRECTORY ROUTINE
   2100	000244	103010 				BCC	30$			;BRANCH IF SUCCESSFUL
   2200	000246	122760 	177751 	000052 		CMPB	#IE.NOD,F.ERR(R0)	;DYNAMIC POOL PROBLEMS?
   2300	000254	001003 				BNE	20$			;BRANCH IF NOT, REPORT ERROR
   2400	000256	004767 	000000G			JSR	PC,WAITND		;WAIT A BIT
   2500	000262	000767 				BR	15$			;AND RETRY
   2600	000264	000261 			20$:	SEC				;REPORT AN ERROR CONDITION
   2700	000266	000207 			30$:	RTS	PC			;RETURN WITH C SET IF ERROR
   2800
   2900						.DSABL	LSB
   3000
   3100						.ENDC
   3200
   3300
   3400		000001 				.END
SOSCAT - CATALOGUE (RENAME) ROU	MACRO M1110  22-AUG-78 05:30  PAGE 4-1
SYMBOL TABLE

CAT     000000RG    002	IE.AST= 177660   	IE.MAP= 177657   	IO.ACW= 007000   	IO.LEI= 007410
CATERR= ****** GX	IE.BAD= 177777   	IE.MOD= 177753   	IO.ADS= 014000   	IO.LKE= 012000
ENTER   000222R     002	IE.BBE= 177710   	IE.NBF= 177731   	IO.APC= 014000   	IO.LOD= 014000
F.ACTL= 000076   	IE.BCC= 177676   	IE.NBK= 177727   	IO.APV= 014010   	IO.LOV= 001010
F.ALOC= 000040   	IE.BDI= 177714   	IE.NDR= 177670   	IO.ATA= 001410   	IO.LSI= 011000
F.BBFS= 000062   	IE.BDR= 177716   	IE.NFI= 177704   	IO.ATT= 001400   	IO.LTI= 007400
F.BDB = 000070   	IE.BDV= 177711   	IE.NFW= 177673   	IO.CAS= 015420   	IO.LTK= 000050
F.BGBC= 000057   	IE.BHD= 177700   	IE.NLK= 177661   	IO.CBO= 015510   	IO.LTY= 010000
F.BKDN= 000026   	IE.BLB= 177672   	IE.NLN= 177733   	IO.CCI= 014000   	IO.MAO= 003410
F.BKDS= 000020   	IE.BLK= 177754   	IE.NNC= 177663   	IO.CCO= 000440   	IO.MCS= 013400
F.BKEF= 000050   	IE.BNM= 177712   	IE.NNL= 177662   	IO.CIN= 016500   	IO.MDA= 016000
F.BKP1= 000051   	IE.BTF= 177664   	IE.NNN= 177674   	IO.CLK= 015000   	IO.MDI= 014400
F.BKST= 000024   	IE.BTP= 177725   	IE.NOD= 177751   	IO.CLN= 003400   	IO.MDO= 015400
F.BKVB= 000064   	IE.BVR= 177701   	IE.NSF= 177746   	IO.CNT= 017000   	IO.MLO= 006000
F.CHR = 000075   	IE.BYT= 177755   	IE.NST= 177660   	IO.CON= 015400   	IO.MOD= 003000
F.CNTG= 000034   	IE.CKP= 177766   	IE.NSW= 177756   	IO.CPR= 015410   	IO.MSO= 005000
F.DFNB= 000046   	IE.CKS= 177742   	IE.NVR= 177652   	IO.CPW= 016520   	IO.NLB= 016530
F.DSPT= 000044   	IE.CLO= 177732   	IE.NVW= 177651   	IO.CRC= 001040   	IO.NLK= 011400
F.DVNM= 000134   	IE.CNR= 177667   	IE.OFL= 177677   	IO.CRE= 012000   	IO.ONL= 017400
F.EFBK= 000010   	IE.CON= 177752   	IE.ONP= 177773   	IO.CRJ= 015440   	IO.RAD= 010400
F.EFN = 000050   	IE.DAA= 177770   	IE.OVR= 177756   	IO.CSI= 013000   	IO.RAL= 001010
F.EOBB= 000032   	IE.DAO= 177763   	IE.PES= 177655   	IO.CSM= 016470   	IO.RAT= 013000
F.ERR = 000052   	IE.DFU= 177750   	IE.PNS= 177642   	IO.CTI= 015400   	IO.RBC= 003000
F.FACC= 000043   	IE.DNA= 177771   	IE.PRI= 177760   	IO.CTL= 016400   	IO.RCI= 015000
F.FFBY= 000014   	IE.DNR= 177775   	IE.PTS= 177775   	IO.CTR= 015610   	IO.RCV= 015000
F.FNAM= 000110   	IE.DUN= 177767   	IE.RAC= 177724   	IO.CTY= 003400   	IO.RDB= 001200
F.FNB = 000102   	IE.DUP= 177707   	IE.RAT= 177723   	IO.DAC= 010000   	IO.RDD= 010010
F.FTYP= 000116   	IE.EOF= 177766   	IE.RBG= 177730   	IO.DCI= 014400   	IO.RDN= 000022
F.FVER= 000120   	IE.EOT= 177702   	IE.RBS= 177761   	IO.DEL= 012400   	IO.REL= 013400
F.HIBK= 000004   	IE.EOV= 177765   	IE.RCN= 177722   	IO.DET= 002000   	IO.RHD= 001010
F.LUN = 000042   	IE.EXP= 177665   	IE.RER= 177740   	IO.DIS= 016000   	IO.RLB= 001000
F.MBCT= 000054   	IE.FEX= 177717   	IE.RNM= 177715   	IO.DLB= 016540   	IO.RLV= 001100
F.MBC1= 000055   	IE.FHE= 177705   	IE.RSU= 177757   	IO.DSI= 013400   	IO.RMT= 010020
F.MBFG= 000056   	IE.FIX= 177767   	IE.SDP= 177635   	IO.DTI= 016000   	IO.RNA= 005400
F.NRBD= 000024   	IE.FLN= 177657   	IE.SNC= 177735   	IO.DTY= 006400   	IO.RNC= 001040
F.NREC= 000030   	IE.FOP= 177713   	IE.SPC= 177772   	IO.ENA= 006000   	IO.RNE= 001020
F.OVBS= 000030   	IE.HFU= 177744   	IE.SQC= 177734   	IO.EOF= 003000   	IO.RNS= 001020
F.RACC= 000016   	IE.HWR= 177772   	IE.SRE= 177762   	IO.EXT= 011400   	IO.RPB= 001040
F.RATT= 000001   	IE.IBS= 177647   	IE.STK= 177706   	IO.FDX= 003020   	IO.RPR= 004400
F.RCNM= 000034   	IE.IDU= 177644   	IE.TCH= 177765   	IO.FLN= 012400   	IO.RST= 001001
F.RCTL= 000017   	IE.IEF= 177637   	IE.TMM= 177671   	IO.FNA= 004400   	IO.RTC= 003400
F.RSIZ= 000002   	IE.IES= 177656   	IE.TMO= 177666   	IO.GLC= 016430   	IO.RTI= 016400
F.RTYP= 000000   	IE.IFC= 177776   	IE.ULK= 177653   	IO.GLI= 016420   	IO.RTK= 000060
F.SEQN= 000100   	IE.IFU= 177747   	IE.ULN= 177773   	IO.GNI= 016410   	IO.RTM= 001200
F.SPDV= 000072   	IE.ILL= 177726   	IE.UNS= 177774   	IO.GRC= 016450   	IO.RVB= 010400
F.SPUN= 000074   	IE.ILU= 177640   	IE.UPN= 177777   	IO.GRI= 016440   	IO.RWD= 002400
F.STBK= 000036   	IE.ILV= 177755   	IE.VER= 177774   	IO.GRN= 016460   	IO.RWU= 002540
F.UNIT= 000136   	IE.INS= 177776   	IE.WAC= 177743   	IO.GTS= 002400   	IO.R1C= 002400
F.URBD= 000020   	IE.IOP= 177655   	IE.WAT= 177741   	IO.HDX= 003010   	IO.SAO= 004000
F.VBN = 000064   	IE.IPR= 177641   	IE.WCK= 177652   	IO.HIS= 015000   	IO.SCS= 013000
F.VBSZ= 000060   	IE.ISQ= 177703   	IE.WER= 177737   	IO.HNG= 003000   	IO.SDI= 013000
IE.ABO= 177761   	IE.ITI= 177643   	IE.WLK= 177764   	IO.INI= 014400   	IO.SDO= 012400
IE.ACT= 177771   	IE.ITP= 177650   	IE.WOV= 177653   	IO.INL= 002400   	IO.SEC= 002520
IE.ADP= 177636   	IE.ITS= 177770   	IE.2DV= 177720   	IO.ITI= 017000   	IO.SET= 000030
IE.ALC= 177654   	IE.IUI= 177645   	IOSTS = ****** GX	IO.KIL= 000012   	IO.SLO= 005400
IE.ALG= 177654   	IE.LCK= 177745   	IO.ACE= 007400   	IO.LDI= 007000   	IO.SMO= 002560
IE.ALN= 177736   	IE.LNL= 177646   	IO.ACR= 006400   	IO.LED= 012000   	IO.SPB= 002420
SOSCAT - CATALOGUE (RENAME) ROU	MACRO M1110  22-AUG-78 05:30  PAGE 4-2
SYMBOL TABLE

IO.SPF= 002440   	IO.WAL= 000410   	IQ.S  = 000004   	IS.TAB= 004401   	S.FDB = 000140
IO.SPW= 016510   	IO.WAT= 013400   	IQ.UMD= 000004   	IS.TMO= 000002   	S.FNAM= 000006
IO.SSO= 004400   	IO.WBT= 000500   	IQ.X  = 000001   	N.DID = 000024   	S.FNB = 000036
IO.STA= 015400   	IO.WDD= 000444   	IS.BV = 000005   	N.DVNM= 000032   	S.FNBW= 000017
IO.STC= 002500   	IO.WLB= 000400   	IS.CC = 001401   	N.FID = 000000   	S.FNTY= 000004
IO.STP= 016400   	IO.WLC= 000420   	IS.CLR= 000000   	N.FNAM= 000006   	S.FTYP= 000002
IO.SYN= 003040   	IO.WLS= 000410   	IS.CR = 006401   	N.FTYP= 000014   	S.NFEN= 000020
IO.TRM= 002410   	IO.WLT= 000410   	IS.EOT= 002001   	N.FVER= 000016   	WAITND= ****** GX
IO.UDI= 011410   	IO.WLV= 000500   	IS.ESC= 015401   	N.NEXT= 000022   	WRTFNM= ****** GX
IO.UEI= 011450   	IO.WMS= 000420   	IS.ESQ= 115401   	N.STAT= 000020   	$SAV2 = ****** GX
IO.UER= 011440   	IO.WNS= 000420   	IS.PES= 100001   	N.UNIT= 000034   	$$MSG = 000000
IO.ULK= 005000   	IO.WPB= 000440   	IS.PND= 000000   	REMOVE  000230R     002	.ENTER= ****** GX
IO.UNL= 000042   	IO.WVB= 011000   	IS.RDD= 000002   	RONLY$= 000001   	.REMOV= ****** GX
IO.USI= 011460   	IO.XMT= 014400   	IS.SET= 000002   	R$$EIS= 000001   	...GBL= 000000
IO.UTI= 011420   	IO.XNA= 014410   	IS.SPD= 000002   	R$$SHR= 000001   	...TPC= 000140
IO.UTY= 011430   	IQ.Q  = 000002   	IS.SUC= 000001   	S.FATT= 000016

. ABS.	000000	   000
      	000000	   001
CODE  	000270	   002
ERRORS DETECTED:  0

VIRTUAL MEMORY USED:  4729 WORDS  ( 19 PAGES)
DYNAMIC MEMORY:  5940 WORDS  ( 22 PAGES)
ELAPSED TIME:  00:00:18
OBJ$:SOSCAT,LIS$:SOSCAT/-SP/NL:TOC=SRC$:PREFIX,SOSCAT
