SOSDAT - DATA AREA	MACRO M1110  22-AUG-78 05:31  PAGE 2


    100						.TITLE	SOSDAT - DATA AREA
    200						.IDENT	/020501/
    250					;
    300					; COPYRIGHT 1978, DIGITAL EQUIPMENT CORP., MAYNARD, MASS. 01754
    400					;
    500					; DEC ASSUMES NO RESPONSIBILITY FOR THE USE OR RELIABILITY OF ITS
    600					; SOFTWARE ON EQUIPMENT WHICH IS NOT SUPPLIED BY DEC.
    700					;
    800					; THIS SOFTWARE IS FURNISHED TO PURCHASER UNDER A LICENSE FOR USE
    900					; ON A SINGLE COMPUTER SYSTEM AND CAN BE COPIED (WITH INCLUSION
   1000					; OF DEC'S COPYRIGHT NOTICE) ONLY FOR USE IN SUCH SYSTEM, EXCEPT
   1100					; AS MAY OTHERWISE BE PROVIDED IN WRITING BY DEC.
   1200					;
   1300					; THE INFORMATION IN THIS DOCUMENT IS SUBJECT TO CHANGE WITHOUT
   1400					; NOTICE AND SHOULD NOT BE CONSTRUED AS A COMMITMENT BY DIGITAL
   1500					; EQUIPMENT CORPORATION.
   1600					;
   1700					; PETER H. LIPMAN 20-FEB-76
   1800
   1900		000005 			HA.NAM	==	5			;ATTRIBUTE CODE FOR WRITE FILE NAME
   1920
   1940						.IF	DF,R$$STS
   2000					FD.PRN	==	4			;PRINT FILE CARRIAGE CONTROL BIT
   2020						.ENDC
   2040
   2100		000005 			TIOLUN	==	5			;LOGICAL UNIT FOR TERMINAL I/O
   2200		000004 			CMDLUN	==	4			;LOGICAL UNIT FOR COMMAND INPUT
   2400
   2500					;	SOSFLG BIT VALUES
   2600
   2700		100000 			BASIC	==	100000
   2800		040000 			NOBAK	==	40000
   2900		020000 			DECIDE	==	20000
   3000		010000 			DELETE	==	10000
   3100		004000 			EXPERT	==	4000
   3200		002000 			RMSFIL	==	2000
   3300		001000 			RONLY	==	1000
   3400		000400 			UNSEQ	==	400
   3500		000200 			EXACT	==	200
   3600		000100 			NOOPT	==	100
   3700		000040 			NOLINS	==	40
   3800		000020 			REQCPY	==	20
   3900		000010 			NOLOW	==	10
   4000		000004 			SEPARA	==	4
   4100
   4200					;	SOSFLG PARAMETER VALUE LOCATIONS
   4300
   4400		000001 			STEPN	==	1
   4500		000002 			ISAVE	==	2
   4600		000003 			MAXLN	==	3
   4700		000004 			PLINES	==	4
   4800		000005 			SAVEN	==	5
   4900		000006 			STARTN	==	6
   5000		000007 			LENN	==	7
   5100		000010 			LMAR	==	8.
   5200		000011 			PMAR	==	9.
   5300		000012 			ISTEP	==	10.
SOSDAT - DATA AREA	MACRO M1110  22-AUG-78 05:31  PAGE 2-1


   5400		000013 			SUBS	==	11.
   5500		000014 			FSFLG	==	12.		;FIND/SUBSTITUTE FLAGS
   5600		000002 				NOMATCH	==	2	;NEGATION OF SEARCH FINDINGS
   5700		000001 				EMATCH	==	1	;EXACT MATCH FOR ALPHA (SEARCH)
   5800		000015 			PRINTR	==	13.
   5900		000016 			BUFSZ	==	14.
   6000
   6100					;
   6200					; FLAGS FOR PUT ROUTINE
   6300					;
   6400		000002 			NOSEQF	==	2			;STRIP SEQUENCE NUMBERS
   6500		000010 			BASICF	==	10			;BASIC STYLE SEQUENCE NUMBERS
   6600		000020 			RMSF	==	20			;RSX STYLE FILE IN RSTS
   6700					;
   6800					; RSX SYSTEM CODES
   6900					;
   7000						.IF	NDF,R$$STS
   7100		000001 			SYS11D	==	1			;RSX11D
   7200		000002 			SYS11M	==	2			;RSX11M
   7300		000004 			SYS11S	==	4			;RSX11S
   7400		000010 			SYSIAS	==	10			;IAS
   7500		000020 			SYSRST	==	20			;RSTS
   7550		000040 			SYSCME	==	40			;CME
   7575		000100 			SYSMPL	==	100			;MPLUS
   7600						.ENDC
   7700
   7800						.MACRO	FDBX NAM,INC=1
   7900						NAM'FLX==CNT...
   8000						NAM'X2==CNT...*256.+2
   8100						CNT...=CNT...+INC
   8200						.ENDM	FDBX
SOSDAT - DATA AREA	MACRO M1110  22-AUG-78 05:31  PAGE 3


    100						.MCALL	QIOSY$,CSI$,FCSBT$
    200
    300	000000					QIOSY$
    400	000000					CSI$
    500	000000					FCSBT$
    600
    700						.MCALL	FDBDF$,FDOP$A,FDRC$A,FDAT$A
    800						.MCALL	NMBLK$,QIO$,FSRSZ$,GCMLB$
    900					;
   1000	000000					GLOBAL	<FILUSE>
   1100	000000					GLOBAL	<FILEIN,FILEOUT,FILETMP,FILELST>
   1200	000000					GLOBAL	<FILENEW,FILECOP,FILEBAK>
   1300	000000					GLOBAL	<TTOCTL,TTOBUF,TTOEND,TTIBUF>
   1400
   1500	000000					GLOBAL	<IOSTS>
   1600
   1700	000000					.PSECT	AAAAA,D,RW	;FIRST TO BE LOADED
   1800
   1900						.IF	DF,R$$STS
   2000					STAKSP:	.BLKB	500			;RESERVE STACK SPACE
   2100					STKINI::				;DEFAULT STACK POINTER
   2250					;
   2260					; ***** DO NOT REORDER TO FOLLOWING LINES
   2270					;
   2300					JOBNUM::.WORD	0			;CURRENT JOB NUMBER
   2310					SOSTNM::.WORD	0			;SOS TMP NAME FROM JOB NUMBER
   2350					;
   2360					; ***** DO NOT REORDER THE PRECEDING LINES
   2370					;
   2400					IOSTS	=	FIRQB
   2500
   2600						.IFTF
   2700	000000				TTOCTL:	.BLKB	4			;TTY OUTPUT BUFFER POINTER
   2800	000004				TTOBUF:	.BLKB	132.			;TTY OUTPUT BUFFER
   2900	000210				TTOEND:					;END OF TTOBUF
   3000	000210				TTIBUF:	.BLKB	82.			;COMMAND/TERMINAL INPUT BUFFER
   3100						.IFF
   3200	000332				IOSTS:					;QI/O STATUS BLOCK FOR QI/O
   3300						.IFTF
   3400	000332	000000 	000000 		.DYSIZ::.LIMIT				;TASK BUILD LIMITS
   3500		000334'				.TOPAD==.DYSIZ+2		;TOP ADDRESS
   3900						.ENDC
   4000
   4100		000210'			CMDBUF	==	TTIBUF			;COMMAND INPUT BUFFER
   4200
   4300	000000					.PSECT	AAAAB,D,RW,OVR
   4400	000000				BUFAR::					;START OF SOS BUFFER AREA
   4500	000000					.PSECT	AAAAC,D,RW,OVR
   4600	000000				BUF1::					;END OF SOS BUFFER AREA
SOSDAT - DATA AREA	MACRO M1110  22-AUG-78 05:31  PAGE 4


    100	000000					FSRSZ$	3,<3*512.+80.>		;3 FILES MAY BE OPEN
    200					;		SPACE FOR 2 'REAL' FILES (FILEIN AND FILEOUT)
    300					;		 + SPACE FOR KB: BUFFER (80.) -AND- 512. TEMP LINE BUF
    400					;		          OR
    500					;		   SPACE FOR ONE MORE FILE, SUCH AS FILELST OR INDIRECT CMD
    600					;			(IF TEMP LINE BUF IS NEEDED, INDIRECT CMD CLOSED)
    700
    800	000000					DATA$	DAT
    900
   1000	000000				CSIBLK::.BLKB	C.SIZE			;COMMAND SCANNER BLOCK
   1100
   1120		000001 				CNT...=1			;FDB COUNTER
   1140					;
   1160					; NOTE THAT FILEIN MUST BE THE FIRST FDB IN THE CHAIN OF FDB'S
   1180					;
   1200	000054					FDBX	IN			;FDB INDEX FOR "IN"
   1220
   1400	000054				FILEIN::FDBDF$				;INPUT FILE BLOCK
   1500	000214					FDAT$A	R.VAR,FD.CR
   1600	000214					FDOP$A	1
   1620
   1640		000140 			FDBSIZ	==	S.FDB			;SIZE IN BYTES OF AN FDB
   1660
   1700
   1720	000214					FDBX	OUT			;FDB INDEX FOR "OUT"
   1740
   1800	000214				FILEOUT::
   1900	000214					FDBDF$
   2000	000354					FDAT$A	R.VAR,FD.CR
   2100	000354					FDOP$A	2
   2200
   2220	000354					FDBX	TMP			;FDB INDEX FOR "TMP"
   2240
   2300	000354				FILETMP::				;TEMP OUTPUT FILE
   2400	000354					FDBDF$
   2500	000514					FDAT$A	R.VAR,FD.CR
   2600	000514					FDOP$A	3
   2700
   2720	000514					FDBX	LST			;FDB INDEX FOR "LST"
   2740
   2800	000514				FILELST::				;LIST FILE
   2900	000514					FDBDF$
   3000	000654					FDAT$A	R.VAR,FD.CR
   3100	000654					FDOP$A	6
   3110
   3120	000654					FDBX	NEW,0			;FDB INDEX FOR "NEW"
   3130	000654					FDBX	COP			;FDB INDEX FOR "COP"
   3140
   3200	000654				FILENEW::				;NEW OUTPUT IN E CMD
   3300	000654				FILECOP::				;COPY INPUT FILE C/T
   3400	000654					FDBDF$
   3500	001014					FDAT$A	R.VAR,FD.CR
   3600	001014					FDOP$A	8.
   3620
   3640	001014					FDBX	GCM			;FDB INDEX FOR "GCM"
   3700
   3720	001014				GCMLB::	GCMLB$	3,SOS,TTIBUF,CMDLUN	;GET COMMAND LINE BLOCK
SOSDAT - DATA AREA	MACRO M1110  22-AUG-78 05:31  PAGE 4-1


   3740
   3800	001342				SOSFLG::.BLKW	15.			;SOS FLAG WORDS
   3900		000017 				SOSFLL == <.-SOSFLG>/2		;NUMBER OF SOS FLAG WORDS
   4000
   4100	001400				SAVIFL::.BLKW	5			;SAVE AREA FOR FDB ADR AND
   4200										;POSIT INFO WHEN INPUT FILE IS
   4300										;CLOSED DURING COPY AND
   4400										;TRANSFER COMMANDS
   4410	001412				SVSTRM::.BLKW	4			;CONTEXT FOR STREAM TYPE GET FOR
   4430										;INTERNAL CARRIAGE CONTROL FILES
   4440	001422				STRMBF::.BLKW	1			;GET STREAM MODE BUFFER ADDRESS
   4500		177777 			FILEBAK	==	-1			;SPECIAL BACKUP CODE
   4600
   4610					;
   4620					; ***** THE FOLLOWING LINES MUST NOT BE REORDERED OR SEPARATED
   4630					;
   4640						.IF	NDF,R$$STS
   4660	001424				SOSTNM::.BLKW	1			;2ND RAD50 WORD OF TEMP FILE NAME
   4670	001426				DFDIR::	.BLKW	3			;DEFAULT DIRECTORY ID
   4680						.ENDC
   4690
   4700	001434				DFDEV::	.BLKW	1			;DEFAULT DEVICE
   4800	001436				DFUNIT::.BLKW	1			;DEFAULT UNIT
   4810					;
   4820					; ***** THE PRECEDING LINES MUST NOT BE REORDERED OR SEPARATED
   4830					;
   4900
   5000	001440				OPTNAM::.BLKB	8.			;OPTION NAME
   5100
   5200	001450	000000 			GIVWRD::.WORD	0
   5300	001452	000000 			GIVW2::	.WORD	0
   5400	001454	   014 	   000 		FFREC::	.BYTE	14,0
   5500
   5600	001456	000000 	000000 		TTICTL::.WORD	0,0			;TTY INPUT BUFFER CONTROL
   5700	001462	000000 			FILUSE::.WORD	0			;FILE STATUS WORD
   5900	001464	000000 	000000 		BUFPTR::.WORD	0,0			; TEMP BUFFER POINTER AND LEN
   5910	001470	000000 			NEWLNA::.WORD	0			; POINTER TO NEWLIN AREA
   5920										; INITIALIZED IN STARTUP LOGIC
   6000
   6100						.IF	NDF,R$$STS
   6150	001472	000000 			SYSTEM::.WORD	0			;RSX SYSTEM CODE, BIT DEFINITION ABOVE
   6200	001474	   000 			RAISLC::.BYTE	0			;IF BIT 1 = 1 RAISE LOWER
   6300										;CASE ALPHA TO UPPER CASE
   6500	001475	   044 			ALTECO::.BYTE	'$			;ALTMODE ECHO CHARACTER FOR 11M, 11S
   6520
   6540						.IFF	;RSTS ONLY
   6560					FFLAST::.BYTE	0			;FORM FEED ON LAST RCD
   6580
   6600						.IFTF
   6700	001476	   000 			SEQBAS::.BYTE	0			;FLAG FOR SEQUENCE # STYLE
   6800										;0 = NOT DECIDED
   6900										;BIT 0 SET = DECIDED
   7000										;NOSEQF SET FOR STRIP SEQUENCE #'S
   7100										;NOPAGF SET TO STRIP PAGE MARKS
   7200										;BASICF SET FOR BASIC STYLE #'S
   7300	001477	   000 			RSTFLG::.BYTE	0			;READ WITH SPECIAL TERMINATORS
   7400										;SET TO 10 (OCTAL) TO ENABLE
SOSDAT - DATA AREA	MACRO M1110  22-AUG-78 05:31  PAGE 4-2


   7500										;USED IN ALTER INSERT MODE
   7600	001500	   000 			NOECHO::.BYTE	0			;NON ZERO IF NO ECHO TO BE DONE
   7700										;FROM ALTER INSERT MODE
   7800	001501	   000 			ALTCHR::.BYTE	0			;ALTERNATE ALTMODE CHAR FOR INPUT
   7900	001502	   000 			MATCHR::.BYTE	0			;SPECIAL MATCH CHAR FOR SEARCH
   7950	001503	   000 			STRMIN::.BYTE	0			;0 IF NOT STREAM INPUT
   7960										;1 IF STREAM INPUT
   8000						.EVEN
   8300
   8400						.ENDC
   8500
   8600	001504	000001 				.WORD	1
   8700	001506	   015 	   012 		CRLF::	.BYTE	15,12
   8800
   8850						.IF	DF,R$$DBG
   8900					EVTADR::.WORD	EVTBEG			;***** EVENT BUFFER POINTER
   9000					EVTBEG::.BLKW	15.			;***** EVENT BUFFER (DEBUG)
   9100					EVTEND::				;***** LAST + 1 WORD OF EVENT BUFFER
   9150						.ENDC	;R$$DBG
   9200					;
   9300		000001 				.END
SOSDAT - DATA AREA	MACRO M1110  22-AUG-78 05:31  PAGE 4-3
SYMBOL TABLE

ALTCHR  001501RG    006	FA.WRT= 000002   	F.CNTG= 000034   	G.LPDL= 000100   	IE.ILV= 177755
ALTECO  001475RG    006	FDBSIZ= 000140 G 	F.DFNB= 000046   	G.MODE= 000141   	IE.INS= 177776
BASIC = 100000 G 	FD.BLK= 000010   	F.DSPT= 000044   	G.PSDS= 000142   	IE.IOP= 177655
BASICF= 000010 G 	FD.CCL= 000002   	F.DVNM= 000134   	G.SIZE= 000224   	IE.IPR= 177641
BUFAR   000000RG    003	FD.COM= 020000   	F.EFBK= 000010   	HA.NAM= 000005 G 	IE.ISQ= 177703
BUFPTR  001464RG    006	FD.CR = 000002   	F.EFN = 000050   	IE.ABO= 177761   	IE.ITI= 177643
BUFSZ = 000016 G 	FD.DIR= 000010   	F.EOBB= 000032   	IE.ACT= 177771   	IE.ITP= 177650
BUF1    000000RG    004	FD.FTN= 000001   	F.ERR = 000052   	IE.ADP= 177636   	IE.ITS= 177770
CH.AND= 000001   	FD.F11= 040000   	F.FACC= 000043   	IE.ALC= 177654   	IE.IUI= 177645
CMDBUF= 000210RG    002	FD.INS= 000010   	F.FFBY= 000014   	IE.ALG= 177654   	IE.LCK= 177745
CMDLUN= 000004 G 	FD.ISP= 002000   	F.FNAM= 000110   	IE.ALN= 177736   	IE.LNL= 177646
CNT...= 000007   	FD.MNT= 100000   	F.FNB = 000102   	IE.AST= 177660   	IE.MAP= 177657
COPFLX= 000005 G 	FD.OSP= 004000   	F.FTYP= 000116   	IE.BAD= 177777   	IE.MOD= 177753
COPX2 = 002402 G 	FD.PLC= 000004   	F.FVER= 000120   	IE.BBE= 177710   	IE.NBF= 177731
CRLF    001506RG    006	FD.PRN= 000004   	F.HIBK= 000004   	IE.BCC= 177676   	IE.NBK= 177727
CSIBLK  000000RG    006	FD.PSE= 010000   	F.LUN = 000042   	IE.BDI= 177714   	IE.NDR= 177670
CS.DIF= 000002   	FD.RAH= 000001   	F.MBCT= 000054   	IE.BDR= 177716   	IE.NFI= 177704
CS.DVF= 000004   	FD.RAN= 000002   	F.MBC1= 000055   	IE.BDV= 177711   	IE.NFW= 177673
CS.EQU= 000040   	FD.REC= 000001   	F.MBFG= 000056   	IE.BHD= 177700   	IE.NLK= 177661
CS.INP= 000001   	FD.RWM= 000001   	F.NRBD= 000024   	IE.BLB= 177672   	IE.NLN= 177733
CS.MOR= 000020   	FD.SDI= 000020   	F.NREC= 000030   	IE.BLK= 177754   	IE.NNC= 177663
CS.NMF= 000001   	FD.SQD= 000040   	F.OVBS= 000030   	IE.BNM= 177712   	IE.NNL= 177662
CS.OUT= 000002   	FD.TTY= 000004   	F.RACC= 000016   	IE.BTF= 177664   	IE.NNN= 177674
CS.WLD= 000010   	FD.WBH= 000002   	F.RATT= 000001   	IE.BTP= 177725   	IE.NOD= 177751
C.CMLD= 000002   	FFREC   001454RG    006	F.RCNM= 000034   	IE.BVR= 177701   	IE.NSF= 177746
C.DEVD= 000006   	FF.CHR= 000005   	F.RCTL= 000017   	IE.BYT= 177755   	IE.NST= 177660
C.DIRD= 000012   	FF.NV = 000003   	F.RSIZ= 000002   	IE.CKP= 177766   	IE.NSW= 177756
C.DSDS= 000006   	FF.POE= 000002   	F.RTYP= 000000   	IE.CKS= 177742   	IE.NVR= 177652
C.FILD= 000016   	FF.RWD= 000001   	F.SEQN= 000100   	IE.CLO= 177732   	IE.NVW= 177651
C.MKW1= 000024   	FF.RWF= 000006   	F.SPDV= 000072   	IE.CNR= 177667   	IE.OFL= 177677
C.MKW2= 000026   	FF.SPC= 000004   	F.SPUN= 000074   	IE.CON= 177752   	IE.ONP= 177773
C.SIZE= 000054   	FILEBA= 177777 G 	F.STBK= 000036   	IE.DAA= 177770   	IE.OVR= 177756
C.STAT= 000001   	FILECO  000654RG    006	F.UNIT= 000136   	IE.DAO= 177763   	IE.PES= 177655
C.SWAD= 000022   	FILEIN  000054RG    006	F.URBD= 000020   	IE.DFU= 177750   	IE.PNS= 177642
C.TYPR= 000000   	FILELS  000514RG    006	F.VBN = 000064   	IE.DNA= 177771   	IE.PRI= 177760
DECIDE= 020000 G 	FILENE  000654RG    006	F.VBSZ= 000060   	IE.DNR= 177775   	IE.PTS= 177775
DELETE= 010000 G 	FILEOU  000214RG    006	GCMFLX= 000006 G 	IE.DUN= 177767   	IE.RAC= 177724
DFDEV   001434RG    006	FILETM  000354RG    006	GCMLB   001014RG    006	IE.DUP= 177707   	IE.RAT= 177723
DFDIR   001426RG    006	FILUSE  001462RG    006	GCMX2 = 003002 G 	IE.EOF= 177766   	IE.RBG= 177730
DFUNIT  001436RG    006	FO.APD= 000106   	GE.BIF= 177775   	IE.EOT= 177702   	IE.RBS= 177761
EMATCH= 000001 G 	FO.MFY= 000002   	GE.CLO= 000004   	IE.EOV= 177765   	IE.RCN= 177722
EXACT = 000200 G 	FO.RD = 000001   	GE.COM= 000001   	IE.EXP= 177665   	IE.RER= 177740
EXPERT= 004000 G 	FO.UPD= 000006   	GE.CON= 000020   	IE.FEX= 177717   	IE.RNM= 177715
FA.APD= 000100   	FO.WRT= 000016   	GE.EOF= 177766   	IE.FHE= 177705   	IE.RSU= 177757
FA.CRE= 000010   	FSFLG = 000014 G 	GE.IND= 000002   	IE.FIX= 177767   	IE.SDP= 177635
FA.DLK= 001000   	F.ACTL= 000076   	GE.IOR= 177777   	IE.FLN= 177657   	IE.SNC= 177735
FA.ENB= 100000   	F.ALOC= 000040   	GE.LC = 000010   	IE.FOP= 177713   	IE.SPC= 177772
FA.EXC= 002000   	F.BBFS= 000062   	GE.MDE= 177774   	IE.HFU= 177744   	IE.SQC= 177734
FA.EXT= 000004   	F.BDB = 000070   	GE.OPR= 177776   	IE.HWR= 177772   	IE.SRE= 177762
FA.NSP= 000100   	F.BGBC= 000057   	GE.RBG= 177730   	IE.IBS= 177647   	IE.STK= 177706
FA.POS= 010000   	F.BKDN= 000026   	GE.SIZ= 000040   	IE.IDU= 177644   	IE.TCH= 177765
FA.RD = 000001   	F.BKDS= 000020   	GIVWRD  001450RG    006	IE.IEF= 177637   	IE.TMM= 177671
FA.RWD= 004000   	F.BKEF= 000050   	GIVW2   001452RG    006	IE.IES= 177656   	IE.TMO= 177666
FA.SEQ= 040000   	F.BKP1= 000051   	G.CMLD= 000146   	IE.IFC= 177776   	IE.ULK= 177653
FA.SHR= 000040   	F.BKST= 000024   	G.DPRM= 000160   	IE.IFU= 177747   	IE.ULN= 177773
FA.TMP= 000020   	F.BKVB= 000064   	G.ERR = 000140   	IE.ILL= 177726   	IE.UNS= 177774
FA.WCK= 020000   	F.CHR = 000075   	G.ISIZ= 000020   	IE.ILU= 177640   	IE.UPN= 177777
SOSDAT - DATA AREA	MACRO M1110  22-AUG-78 05:31  PAGE 4-4
SYMBOL TABLE

IE.VER= 177774   	IO.GRC= 016450   	IO.RTM= 001200   	IS.ESC= 015401   	RONLY$= 000001
IE.WAC= 177743   	IO.GRI= 016440   	IO.RVB= 010400   	IS.ESQ= 115401   	RSTFLG  001477RG    006
IE.WAT= 177741   	IO.GRN= 016460   	IO.RWD= 002400   	IS.PES= 100001   	R$$EIS= 000001
IE.WCK= 177652   	IO.GTS= 002400   	IO.RWU= 002540   	IS.PND= 000000   	R$$SHR= 000001
IE.WER= 177737   	IO.HDX= 003010   	IO.R1C= 002400   	IS.RDD= 000002   	R.FIX = 000001
IE.WLK= 177764   	IO.HIS= 015000   	IO.SAO= 004000   	IS.SET= 000002   	R.SEQ = 000003
IE.WOV= 177653   	IO.HNG= 003000   	IO.SCS= 013000   	IS.SPD= 000002   	R.VAR = 000002
IE.2DV= 177720   	IO.INI= 014400   	IO.SDI= 013000   	IS.SUC= 000001   	SAVEN = 000005 G
INFLX = 000001 G 	IO.INL= 002400   	IO.SDO= 012400   	IS.TAB= 004401   	SAVIFL  001400RG    006
INX2  = 000402 G 	IO.ITI= 017000   	IO.SEC= 002520   	IS.TMO= 000002   	SEPARA= 000004 G
IOSTS   000332RG    002	IO.KIL= 000012   	IO.SET= 000030   	LENN  = 000007 G 	SEQBAS  001476RG    006
IO.ACE= 007400   	IO.LDI= 007000   	IO.SLO= 005400   	LMAR  = 000010 G 	SOSFLG  001342RG    006
IO.ACR= 006400   	IO.LED= 012000   	IO.SMO= 002560   	LSTFLX= 000004 G 	SOSFLL= 000017 G
IO.ACW= 007000   	IO.LEI= 007410   	IO.SPB= 002420   	LSTX2 = 002002 G 	SOSTNM  001424RG    006
IO.ADS= 014000   	IO.LKE= 012000   	IO.SPF= 002440   	MATCHR  001502RG    006	STARTN= 000006 G
IO.APC= 014000   	IO.LOD= 014000   	IO.SPW= 016510   	MAXLN = 000003 G 	STEPN = 000001 G
IO.APV= 014010   	IO.LOV= 001010   	IO.SSO= 004400   	NB.DEV= 000200   	STRMBF  001422RG    006
IO.ATA= 001410   	IO.LSI= 011000   	IO.STA= 015400   	NB.DIR= 000100   	STRMIN  001503RG    006
IO.ATT= 001400   	IO.LTI= 007400   	IO.STC= 002500   	NB.NAM= 000004   	SUBS  = 000013 G
IO.CAS= 015420   	IO.LTK= 000050   	IO.STP= 016400   	NB.SD1= 000400   	SVSTRM  001412RG    006
IO.CBO= 015510   	IO.LTY= 010000   	IO.SYN= 003040   	NB.SD2= 001000   	SYSCME= 000040 G
IO.CCI= 014000   	IO.MAO= 003410   	IO.TRM= 002410   	NB.SNM= 000040   	SYSIAS= 000010 G
IO.CCO= 000440   	IO.MCS= 013400   	IO.UDI= 011410   	NB.STP= 000020   	SYSMPL= 000100 G
IO.CIN= 016500   	IO.MDA= 016000   	IO.UEI= 011450   	NB.SVR= 000010   	SYSRST= 000020 G
IO.CLK= 015000   	IO.MDI= 014400   	IO.UER= 011440   	NB.TYP= 000002   	SYSTEM  001472RG    006
IO.CLN= 003400   	IO.MDO= 015400   	IO.ULK= 005000   	NB.VER= 000001   	SYS11D= 000001 G
IO.CNT= 017000   	IO.MLO= 006000   	IO.UNL= 000042   	NEWFLX= 000005 G 	SYS11M= 000002 G
IO.CON= 015400   	IO.MOD= 003000   	IO.USI= 011460   	NEWLNA  001470RG    006	SYS11S= 000004 G
IO.CPR= 015410   	IO.MSO= 005000   	IO.UTI= 011420   	NEWX2 = 002402 G 	S.BFHD= 000020
IO.CPW= 016520   	IO.NLB= 016530   	IO.UTY= 011430   	NOBAK = 040000 G 	S.FATT= 000016
IO.CRC= 001040   	IO.NLK= 011400   	IO.WAL= 000410   	NOECHO  001500RG    006	S.FDB = 000140
IO.CRE= 012000   	IO.ONL= 017400   	IO.WAT= 013400   	NOLINS= 000040 G 	S.FNAM= 000006
IO.CRJ= 015440   	IO.RAD= 010400   	IO.WBT= 000500   	NOLOW = 000010 G 	S.FNB = 000036
IO.CSI= 013000   	IO.RAL= 001010   	IO.WDD= 000444   	NOMATC= 000002 G 	S.FNBW= 000017
IO.CSM= 016470   	IO.RAT= 013000   	IO.WLB= 000400   	NOOPT = 000100 G 	S.FNTY= 000004
IO.CTI= 015400   	IO.RBC= 003000   	IO.WLC= 000420   	NOSEQF= 000002 G 	S.FTYP= 000002
IO.CTL= 016400   	IO.RCI= 015000   	IO.WLS= 000410   	N.DID = 000024   	S.NFEN= 000020
IO.CTR= 015610   	IO.RCV= 015000   	IO.WLT= 000410   	N.DVNM= 000032   	TIOLUN= 000005 G
IO.CTY= 003400   	IO.RDB= 001200   	IO.WLV= 000500   	N.FID = 000000   	TMPFLX= 000003 G
IO.DAC= 010000   	IO.RDD= 010010   	IO.WMS= 000420   	N.FNAM= 000006   	TMPX2 = 001402 G
IO.DCI= 014400   	IO.RDN= 000022   	IO.WNS= 000420   	N.FTYP= 000014   	TTIBUF  000210RG    002
IO.DEL= 012400   	IO.REL= 013400   	IO.WPB= 000440   	N.FVER= 000016   	TTICTL  001456RG    006
IO.DET= 002000   	IO.RHD= 001010   	IO.WVB= 011000   	N.NEXT= 000022   	TTOBUF  000004RG    002
IO.DIS= 016000   	IO.RLB= 001000   	IO.XMT= 014400   	N.STAT= 000020   	TTOCTL  000000RG    002
IO.DLB= 016540   	IO.RLV= 001100   	IO.XNA= 014410   	N.UNIT= 000034   	TTOEND  000210RG    002
IO.DSI= 013400   	IO.RMT= 010020   	IQ.Q  = 000002   	OPTNAM  001440RG    006	UNSEQ = 000400 G
IO.DTI= 016000   	IO.RNA= 005400   	IQ.S  = 000004   	OUTFLX= 000002 G 	$$MSG = 000000
IO.DTY= 006400   	IO.RNC= 001040   	IQ.UMD= 000004   	OUTX2 = 001002 G 	$$$   = 001174R     006
IO.ENA= 006000   	IO.RNE= 001020   	IQ.X  = 000001   	PLINES= 000004 G 	.DYSIZ  000332RG    002
IO.EOF= 003000   	IO.RNS= 001020   	ISAVE = 000002 G 	PMAR  = 000011 G 	.FSRCB= ****** G
IO.EXT= 011400   	IO.RPB= 001040   	ISTEP = 000012 G 	PRINTR= 000015 G 	.TOPAD= 000334RG    002
IO.FDX= 003020   	IO.RPR= 004400   	IS.BV = 000005   	RAISLC  001474RG    006	...GBL= 000000
IO.FLN= 012400   	IO.RST= 001001   	IS.CC = 001401   	REQCPY= 000020 G 	...PC1= 001014R     006
IO.FNA= 004400   	IO.RTC= 003400   	IS.CLR= 000000   	RMSF  = 000020 G 	...PC2= 001216R     006
IO.GLC= 016430   	IO.RTI= 016400   	IS.CR = 006401   	RMSFIL= 002000 G 	...PC3= 001014R     006
IO.GLI= 016420   	IO.RTK= 000060   	IS.EOT= 002001   	RONLY = 001000 G 	...TPC= 000140
IO.GNI= 016410
SOSDAT - DATA AREA	MACRO M1110  22-AUG-78 05:31  PAGE 4-5
SYMBOL TABLE


. ABS.	000000	   000
      	000000	   001
AAAAA 	000336	   002
AAAAB 	000000	   003
AAAAC 	000000	   004
$$FSR1	003200	   005
DAT.D 	001510	   006
ERRORS DETECTED:  0

VIRTUAL MEMORY USED:  6751 WORDS  ( 27 PAGES)
DYNAMIC MEMORY:  8052 WORDS  ( 30 PAGES)
ELAPSED TIME:  00:00:32
OBJ$:SOSDAT,LIS$:SOSDAT/-SP/NL:TOC=SRC$:PREFIX,SOSDAT
