SOSDEF - DEFINITIONS OF BLISS G	MACRO M1110  22-AUG-78 05:32  PAGE 2


    100						.TITLE  SOSDEF - DEFINITIONS OF BLISS GLOBAL VARIABLES
    150						.IDENT	/020600/
    200
    210					;	06	31-JUL-78	PETER H. LIPMAN
    220					;
    230					;	ADDED CONTEXT FOR PRINT COMMAND
    240					;
    300	000000					DATA$	DEF
    400
    500	000000				FRANGE::.BLKW	5		;SAVED RANGE FOR F COMMAND
    600	000012				SRRET::	.BLKW	3		;SEARCH RETURN AREA
    700	000020				SRCON::	.BLKW	3		;LINE CONTENTS SEARCH
    800	000026	000000'				.WORD	SRCONS		;RETURN AREA AND INITIAL
    900	000030	000000 				.WORD	0		;PARAMETER VALUES
   1000
   1100	000032				RANGE::	.BLKW	5		;COMMON RANGE AREA
   1200	000044				ILIN::	.BLKW	3		;SAVED LINE FOR INSERTION
   1300
   1400	000052				CURPAG::	.BLKW	2		;CURRENT PAGE/LINE
   1700
   1800	000056	000000G			BUF::	.WORD	BUFAR		;BUFFER HEADER INFO
   1900	000060	000000C				.WORD	BUF1-BUFAR
   2000	000062					.BLKW	14.
   2100
   2200	000116				SRANGE::	.BLKW	5		;SAVED RANGE FOR S COMMAND
   2300
   2400	000130				FSTRLST::.BLKW	8.		;STRING LIST FOR F COMMAND
   2500
   2600	000150				S1STRLST::.BLKW	8.		;STRING LIST S<FIND>
   2700	000170				S2STRLST::.BLKW	8.		;STRING LIST S<SUBST>
   2800
   2900
   3000	000210	000000 			SPSAV1::	.WORD	0		;ERROR RECOVERY POINTERS
   3100	000212				SPSAVX::
   3200	000212	000000 			SPSAV2::	.WORD	0		;LEVEL 1 AND 2
   3300
   3400	000214	000000 			CMDCNT::	.WORD	0		;AUTOSAVE COUNTERS
   3500	000216	000000 			CMDICNT::.WORD	0		;ISAVE COUNTER
   3600
   3700	000220	000000 			SCTYP::	.WORD	0		;SCANNER RETURN AREA TYPE
   3800	000222	000000 			SCSTRT::	.WORD	0		;SCANNER SYMBOL START
   3900	000224	000000 			SCSYML::	.WORD	0		;SCANNER SYMBOLLEGTH
   4000
   4100	000226	000000 			PAGLOW::	.WORD	0		;LOWEST PAGE NUMBER
   4200	000230	000000 			PAGHIG::	.WORD	0		;HIGHEST PAGE NUMBER
   4300	000232	000000 			CURLPG::	.WORD	0		;CURRENT PRINT PAGE
   4400
   4500	000234	000000 			CTLCFL::	.WORD	0		;CONTROL C HIT FLAG
   4600
   4700	000236	000000 			COPERF::	.WORD	0		;ERROR RECOVERY FOR COPY FLAG
   4800
   4900	000240	000000 			ETBL::	.WORD	0		;ERROR TABLE POINTER
   5000	000242	177777 			ONUM::	.WORD	-1		;LAST ERROR NUMBER
   5100	000244	000000 			OFDB::	.WORD	0		;FDB ADDRESS ASSOCIATED WITH LAST ERROR
   5120	000246	000000 			CMDSQN::.WORD	0		;COMMAND SEQUENCE NUMBER
   5140	000250	177777 			PRTSQN::.WORD	-1		;PRINT SEQUENCE NUMBER
   5200
SOSDEF - DEFINITIONS OF BLISS G	MACRO M1110  22-AUG-78 05:32  PAGE 2-1


   5400
   5500					;  STRING AREAS
   5600
   5700
   5800	000252				SCSYM::	.BLKB	20.		;SCANNER SYMBOL RETURN
   5900
   6000
   6100
   6200	000000					.PSECT	AAFSTRNG
   6300	000000				FSTRNG::
   6400
   6500	000000					.PSECT	AAS1STRNG
   6600	000000				S1STRNG::
   6700
   6800	000000					.PSECT	AAS2STRNG
   6900	000000				S2STRNG::
   7000
   7100	000000					.PSECT	AASRCONS
   7200	000000				SRCONS::
   7300
   7400
   7500		000001 				.END
SOSDEF - DEFINITIONS OF BLISS G	MACRO M1110  22-AUG-78 05:32  PAGE 2-2
SYMBOL TABLE

BUF     000056RG    002	CURLPG  000232RG    002	ONUM    000242RG    002	SCSTRT  000222RG    002	SRCON   000020RG    002
BUFAR = ****** GX	CURPAG  000052RG    002	PAGHIG  000230RG    002	SCSYM   000252RG    002	SRCONS  000000RG    006
BUF1  = ****** GX	ETBL    000240RG    002	PAGLOW  000226RG    002	SCSYML  000224RG    002	SRRET   000012RG    002
CMDCNT  000214RG    002	FRANGE  000000RG    002	PRTSQN  000250RG    002	SCTYP   000220RG    002	S1STRL  000150RG    002
CMDICN  000216RG    002	FSTRLS  000130RG    002	RANGE   000032RG    002	SPSAVX  000212RG    002	S1STRN  000000RG    004
CMDSQN  000246RG    002	FSTRNG  000000RG    003	RONLY$= 000001   	SPSAV1  000210RG    002	S2STRL  000170RG    002
COPERF  000236RG    002	ILIN    000044RG    002	R$$EIS= 000001   	SPSAV2  000212RG    002	S2STRN  000000RG    005
CTLCFL  000234RG    002	OFDB    000244RG    002	R$$SHR= 000001   	SRANGE  000116RG    002

. ABS.	000000	   000
      	000000	   001
DEF.D 	000276	   002
AAFSTR	000000	   003
AAS1ST	000000	   004
AAS2ST	000000	   005
AASRCO	000000	   006
ERRORS DETECTED:  0

VIRTUAL MEMORY USED:  832 WORDS  ( 4 PAGES)
DYNAMIC MEMORY:  2772 WORDS  ( 10 PAGES)
ELAPSED TIME:  00:00:04
OBJ$:SOSDEF,LIS$:SOSDEF/-SP/NL:TOC=SRC$:PREFIX,SOSDEF
