SOSPER - PRINT ERROR MESSAGE	MACRO M1110  22-AUG-78 05:34  PAGE 2


    100						.TITLE	SOSPER - PRINT ERROR MESSAGE
    200						.IDENT	/020600/
    300					;
    400					; COPYRIGHT 1978, DIGITAL EQUIPMENT CORP., MAYNARD, MASS. 01754
    500					;
    600					; DEC ASSUMES NO RESPONSIBILITY FOR THE USE OR RELIABILITY OF ITS
    700					; SOFTWARE ON EQUIPMENT WHICH IS NOT SUPPLIED BY DEC.
    800					;
    900					; THIS SOFTWARE IS FURNISHED TO PURCHASER UNDER A LICENSE FOR USE
   1000					; ON A SINGLE COMPUTER SYSTEM AND CAN BE COPIED (WITH INCLUSION
   1100					; OF DEC'S COPYRIGHT NOTICE) ONLY FOR USE IN SUCH SYSTEM, EXCEPT
   1200					; AS MAY OTHERWISE BE PROVIDED IN WRITING BY DEC.
   1300					;
   1400					; THE INFORMATION IN THIS DOCUMENT IS SUBJECT TO CHANGE WITHOUT
   1500					; NOTICE AND SHOULD NOT BE CONSTRUED AS A COMMITMENT BY DIGITAL
   1600					; EQUIPMENT CORPORATION.
   1700					;
   1800					; PETER H. LIPMAN	19-JUN-77
   1810					;
   1820					;	06	28-JUL-78	P. H. LIPMAN
   1830					;
   1840					;	FIX ERROR MESSAGE TEXT
   1850					;
   1900
   2000						.MCALL	FDOF$L,QIOSY$,GCMLD$
   2100	000000					FDOF$L
   2200	000000					QIOSY$
   2300	000000					GCMLD$
   2400
   3200	000000					CODE$	PER
SOSPER - PRINT ERROR MESSAGE	MACRO M1110  22-AUG-78 05:34  PAGE 3


    100					;
    200					; CLOSE/DELETE ERROR
    225					;	R0 = FDB ADDRESS, 0(SP) = RETURN ADDRESS
    300					;
    400	000000	012746 	000614'		CLSERR::MOV	#CLSER1,-(SP)		;ADR OF CLOSE ERROR MESSAGE
    410	000004	000402 				BR	CLDLER
    420	000006	012746 	000642'		DELERR::MOV	#DELER1,-(SP)		;ADR OF DELETE ERROR MESSAGE
    500	000012	010046 			CLDLER:	MOV	R0,-(SP)		;FDB ADDRESS OF FILE
    600	000014	004767 	000132 			JSR	PC,FDBERR		;PRINT ERROR MESSAGE
    700	000020	012600 				MOV	(SP)+,R0		;RESTORE FDB ADDRESS
    750	000022	005726 				TST	(SP)+			;CLEAN OFF MESSAGE ADDRESS
    800	000024	000207 				RTS	PC			;AND RETURN
    900					;
   1000					; RENAME ERROR OTHER THAN IE.PRI, IE.DUP, IE.2DV, IE.FEX
   1100					;	 0(SP) = ERROR CODE
   1200					;	12(SP) = FDB OF NEW NAME
   1300					;	14(SP) = FDB OF EXISTING FILE
   1400					;
   1500	000026				CATERR::
   1600						.IF	DF,R$$DBG		;*****
   1700						JMP	CATBUG			;***** REPORT RENAME BUG
   1800						.ENDC	;R$$DBG			;*****
   1900
   2000	000026	004167 	000000G			JSR	R1,PRTINL		;PRINT ERROR MESSAGE
   2100	000032	000522'				.WORD	CATER1			;"ERROR RENAMING FILE"
   2200	000034	004767 	000204 			JSR	PC,FCSERP		;PRINT THE ERROR CODE
   2300	000040	012716 	000554'			MOV	#CATER2,(SP)		;"EXISTING FILE"
   2400	000044	016646 	000014 			MOV	14(SP),-(SP)		;FDB OF EXISTING FILE
   2500	000050	004767 	000076 			JSR	PC,FDBERR		;PRINT THE ERROR
   2600	000054	012716 	000574'			MOV	#CATER3,(SP)		;"NEW FILE NAME"
   2700	000060	016646 	000014 			MOV	14(SP),-(SP)		;FDB ADDRESS OF NEW NAME
   2800	000064	004767 	000062 			JSR	PC,FDBERR		;PRINT THE ERROR
   2900	000070	000414 				BR	FATX			;AND EXIT
   3000					;
   3100					; 0(SP) = MESSAGE ADDRESS, R0 = FDB ADDRESS
   3200					;
   3300	000072	010046 			FCFAT1::MOV	R0,-(SP)		;PUSH FDB ADDRESS
   3400	000074	004767 	000052 			JSR	PC,FDBERR		;REPORT THE ERROR
   3500	000100	000410 				BR	FATX			;AND EXIT
   3600
   3700					;
   3800					; IOSTS CONTAINS ERROR CODE
   3900					;
   4000	000102				IOFATL::
   4100						.IF	DF,R$$STS
   4200						MOVB	#ERRFQ,FIRQB+FQFUN	;SET FUNCTION CODE
   4300						MOVB	IOSTS,FIRQB+FQFUN+1	;AND ERROR CODE
   4400						CALFIP				;TRANSLATE TO MESSAGE
   4500						.TTRST				;RESET CTLO
   4600						JSR	R1,PRTINL		;MESSAGE HEADER
   4700						.WORD	FATALQ			;FATAL I/O ERROR
   4800
   4900						MOV	#FIRQB+FQERNO,-(SP)	;COPY MESSAGE POINTER
   5000						JSR	PC,PRINTZ		;PRINT ERROR
   5100						JSR	PC,TYPECR		;ADD CR, LF
   5200
   5300						.IFF
SOSPER - PRINT ERROR MESSAGE	MACRO M1110  22-AUG-78 05:34  PAGE 3-1


   5400	000102	005046 				CLR	-(SP)
   5500	000104	116716 	000000G			MOVB	IOSTS,(SP)		;SAVE IOSTS IN LOW BYTE, 0 HIGH BYTE
   5600	000110	004167 	000000G			JSR	R1,PRTINL		;MESSAGE HEADER
   5700	000114	000130'				.WORD	FATALQ			;FATAL I/O ERROR
   5800	000116	004767 	000122 			JSR	PC,FCSERP		;PRINT FCS ERROR CODE
   5900						.ENDC
   6000
   6100	000122	000167 	000000G		FATX:	JMP	EXIT			;EXIT SOS
   6200
   6300	000126					PLIT	FATALQ,<<15><12>/FATAL ERROR - /<15><12>>
   6400
   6500	000152				ENTRY	FDBERR				;FDBERR(MSG,FDBADR)
   6600	000152	016646 	000004 			MOV	4(SP),-(SP)		;COPY MESSAGE POINTER TO STACK
   6700	000156	001402 				BEQ	10$			;BRANCH IF NO MESSAGE SUPPLIED
   6800	000160	004767 	000000G			JSR	PC,PRINTC		;PRINT THE MESSAGE WITH CRLF
   6900	000164	016600 	000004 		10$:	MOV	4(SP),R0		;FDB ADDRESS
   7000	000170	016016 	000052 			MOV	F.ERR(R0),(SP)		;SAVE THE ERROR CODE
   7100	000174	010046 				MOV	R0,-(SP)		;FDB ADR
   7200	000176	016746 	000000G			MOV	TTOCTL,-(SP)		;ADDRESS OF NEXT BYTE IN OUTPUT BUFFER
   7300	000202	004767 	000000G			JSR	PC,NAMFIL		;FORM FILE NAME STRING
   7400	000206	022626 				CMP	(SP)+,(SP)+		;CLEAN UP THE STACK
   7500	000210	060067 	000000G			ADD	R0,TTOCTL		;UPDATE BUFFER POINTER
   7600	000214	060067 	000002G			ADD	R0,TTOCTL+2		;AND SIZE
   7700	000220	004167 	000000G			JSR	R1,PRTINL		;SEPARATE MSG FROM FILE NAME
   7800	000224	000240'				.WORD	FDBE1
   7900	000226	004767 	000012 			JSR	PC,FCSERP		;PRINT FCS ERROR CODE
   8000	000232	005726 				TST	(SP)+
   8100	000234	000207 				RTS	PC			;AND RETURN
   8200
   8300	000236					PLIT	FDBE1,</ - />
   8400
   8500	000244				ENTRY	FCSERP				;FCSERP(ERR CODE)
   8600	000244	004167 	000000G			JSR	R1,$SAV3		;SAVE R1,R2
   8700	000250	116602 	000012 			MOVB	10.(SP),R2		;SIGN EXTENDED ERROR CODE
   8800	000254	005402 				NEG	R2			;FORM POSITIVE VALUE
   8900	000256	105766 	000013 			TSTB	11.(SP)			;IF HIGH BYTE IS NEGATIVE
   9000	000262	002002 				BGE	10$
   9100	000264	062702 	000200 			ADD	#128.,R2		;IT IS A DIRECTIVE STATUS CODE
   9200	000270	012703 	000000G		10$:	MOV	#TTOCTL,R3		;ADDRESS OF OUTPUT BUF PTR AND SIZE
   9300	000274	011300 				MOV	(R3),R0			;POINTER TO NEXT BYTE TO STORE IN
   9400	000276	012701 	000000G			MOV	#QIOMSG,R1		;NAME OF MSG FILE
   9500	000302	000167 	000000G			JMP	GERRM1			;CALL THE GET ERROR MESSAGE ROUTINE
   9520	000306				GERRM2::
   9540	000306	006026 				ROR	(SP)+			;RECOVER CARRY BIT
   9600	000310	103403 				BCS	20$			;BRANCH IF STRING NOT FOUND
   9700	000312	010023 				MOV	R0,(R3)+		;UPDATED PTR TO NEXT BYTE
   9800	000314	060113 				ADD	R1,(R3)			;NUMBER OF BYTES JUST ADDED
   9900	000316	000431 				BR	50$			;FORCE MESSAGE OUT AND RETURN
  10000					;
  10100					; FAILED TO CONVERT ERROR CODE TO STRING
  10200					;
  10300	000320	012746 	000412'		20$:	MOV	#FC01,-(SP)		;"HANDLER ERROR"
  10400	000324	016602 	000014 			MOV	12.(SP),R2		;ORIGINAL ERROR PARAM
  10500	000330	002002 				BGE	30$			;BRANCH IF NOT QIO ERROR
  10600	000332	012716 	000440'			MOV	#FC02,(SP)		;"QI/O ERROR"
  10700	000336	110202 			30$:	MOVB	R2,R2			;SIGN EXTEND THE ERROR BYTE
  10800	000340	002403 				BLT	40$			;BRANCH IF IT IS AN ERROR STATUS
SOSPER - PRINT ERROR MESSAGE	MACRO M1110  22-AUG-78 05:34  PAGE 3-2


  10900	000342	005402 				NEG	R2			;EXTRA NEGATE ON SUCCESS STATUS
  11000	000344	012716 	000464'			MOV	#FC03,(SP)		;"SUCCESS STATUS"
  11100	000350	005402 			40$:	NEG	R2			;FORM POSITIVE NUMBER TO PRINT
  11200	000352	004767 	000000G			JSR	PC,PRINT		;PRINT THE ERROR MESSAGE
  11300	000356	010216 				MOV	R2,(SP)			;VALUE TO PRINT
  11400	000360	012746 	000001 			MOV	#1,-(SP)		;MINIMUM NUMBER OF PRINT POSITIONS
  11500	000364	004767 	000000G			JSR	PC,PRINTN		;PRINT THE ERROR CODE IN DECIMAL
  11600	000370	012716 	000056 			MOV	#'.,(SP)		;ADD A DECIMAL POINT
  11700	000374	004767 	000000G			JSR	PC,TYPE			;
  11800	000400	022626 				CMP	(SP)+,(SP)+		;CLEAN UP THE STACK
  11900	000402	004767 	000000G		50$:	JSR	PC,TYPECR		;FORCE THE LINE OUT
  12000	000406	000207 				RTS	PC			;AND RETURN
  12100					;
  12200					; READ ONLY DATA FOR FCSERP
  12300					;
  12400	000410					PLIT	FC01,<$Handler error code -$>
  12500	000436					PLIT	FC02,<$QI/O error code -$>
  12600	000462					PLIT	FC03,<$Successful completion code $>
  12700	000520					PLIT	CATER1,<<15><12>/Error renaming file - />
  12800	000552					PLIT	CATER2,</Existing file/>
  12900	000572					PLIT	CATER3,</New file name/>
  13000	000612					PLIT	CLSER1,<<15><12>/Error closing file/>
  13100	000640					PLIT	DELER1,<<15><12>/Error deleting file/>
SOSPER - PRINT ERROR MESSAGE	MACRO M1110  22-AUG-78 05:34  PAGE 4
GET COMMAND LINE ERROR

    100						.SBTTL	GET COMMAND LINE ERROR
    200					;
    300					; INPUTS:
    400					;
    500					;	NONE
    600					;
    700					; OUTPUTS:
    800					;
    900					;	R0 ALTERED, OTHERS PRESERVED
   1000					;
   1100	000670				GCMLER::
   1200	000670	004767 	000000G			JSR	PC,TYPECR	;START MESSAGE WITH CR, LF
   1300	000674	116700 	000140G			MOVB	GCMLB+G.ERR,R0	;SIGN EXTENDED ERROR CODE
   1400	000700	002003 				BGE	40$		;SHOULD BE NEGATIVE
   1500	000702	062700 	000004 			ADD	#4,R0		;-1 TO -4 NOW +3 TO 0
   1600	000706	002002 				BGE	50$		;BRANCH IF IN RANGE
   1700	000710	012700 	000003 		40$:	MOV	#3,R0		;CODE -1 FOR I/O ERROR
   1800	000714	006300 			50$:	ASL	R0		;FORM WORD INDEX
   1900	000716	016046 	000732'			MOV	GCERAD(R0),-(SP) ;ADDRESS OF COUNTED STRING
   2000	000722	004767 	000000G			JSR	PC,PRINTC	;OUTPUT THE MESSAGE AND CR, LF
   2100	000726	005726 				TST	(SP)+		;CLEAN OFF THE PARAMETER
   2200	000730	000207 				RTS	PC		;RETURN
   2300
   2400					;
   2500					; ERROR MESSAGES FOR GCML ERRORS
   2600					;
   2700	000732	001062'	001032'	000774'	GCERAD:	.WORD	40$,30$,20$,10$
	000740	000744'
   2800	000742	000013 				.WORD	15$-10$+1/2	;ERROR CODE -1
   2900	000744	   103 	   157 	   155 	10$:	.ASCII	^Command line I/O error^
	000747	   155 	   141 	   156
	000752	   144 	   040 	   154
	000755	   151 	   156 	   145
	000760	   040 	   111 	   057
	000763	   117 	   040 	   145
	000766	   162 	   162 	   157
	000771	   162
   3000	000772				15$:
   3100						.EVEN
   3200
   3300	000772	000016 				.WORD	25$-20$+1/2	;ERROR CODE -2
   3400	000774	   106 	   141 	   151 	20$:	.ASCII	^Failed to open command file^
	000777	   154 	   145 	   144
	001002	   040 	   164 	   157
	001005	   040 	   157 	   160
	001010	   145 	   156 	   040
	001013	   143 	   157 	   155
	001016	   155 	   141 	   156
	001021	   144 	   040 	   146
	001024	   151 	   154 	   145
   3500	001027				25$:
   3600						.EVEN
   3700
   3800	001030	000013 				.WORD	35$-30$+1/2	;ERROR CODE -3
   3900	001032	   102 	   141 	   144 	30$:	.ASCII	^Bad command file name^
	001035	   040 	   143 	   157
	001040	   155 	   155 	   141
SOSPER - PRINT ERROR MESSAGE	MACRO M1110  22-AUG-78 05:34  PAGE 4-1
GET COMMAND LINE ERROR

	001043	   156 	   144 	   040
	001046	   146 	   151 	   154
	001051	   145 	   040 	   156
	001054	   141 	   155 	   145
   4000	001057				35$:
   4100						.EVEN
   4200
   4300	001060	000022 				.WORD	45$-40$+1/2	;ERROR CODE -4
   4400	001062	   115 	   141 	   170 	40$:	.ASCII	^Maximum command file depth exceeded^
	001065	   151 	   155 	   165
	001070	   155 	   040 	   143
	001073	   157 	   155 	   155
	001076	   141 	   156 	   144
	001101	   040 	   146 	   151
	001104	   154 	   145 	   040
	001107	   144 	   145 	   160
	001112	   164 	   150 	   040
	001115	   145 	   170 	   143
	001120	   145 	   145 	   144
	001123	   145 	   144
   4500	001125				45$:
   4600						.EVEN
   4700
   4800
   4900		000001 				.END
SOSPER - PRINT ERROR MESSAGE	MACRO M1110  22-AUG-78 05:34  PAGE 4-2
SYMBOL TABLE

CATERR  000026RG    002	F.RSIZ= 000002   	IE.CLO= 177732   	IE.NVW= 177651   	IO.CPW= 016520
CATER1  000522R     002	F.RTYP= 000000   	IE.CNR= 177667   	IE.OFL= 177677   	IO.CRC= 001040
CATER2  000554R     002	F.SEQN= 000100   	IE.CON= 177752   	IE.ONP= 177773   	IO.CRE= 012000
CATER3  000574R     002	F.SPDV= 000072   	IE.DAA= 177770   	IE.OVR= 177756   	IO.CRJ= 015440
CLDLER  000012R     002	F.SPUN= 000074   	IE.DAO= 177763   	IE.PES= 177655   	IO.CSI= 013000
CLSERR  000000RG    002	F.STBK= 000036   	IE.DFU= 177750   	IE.PNS= 177642   	IO.CSM= 016470
CLSER1  000614R     002	F.UNIT= 000136   	IE.DNA= 177771   	IE.PRI= 177760   	IO.CTI= 015400
DELERR  000006RG    002	F.URBD= 000020   	IE.DNR= 177775   	IE.PTS= 177775   	IO.CTL= 016400
DELER1  000642R     002	F.VBN = 000064   	IE.DUN= 177767   	IE.RAC= 177724   	IO.CTR= 015610
EXIT  = ****** GX	F.VBSZ= 000060   	IE.DUP= 177707   	IE.RAT= 177723   	IO.CTY= 003400
FATALQ  000130R     002	GCERAD  000732R     002	IE.EOF= 177766   	IE.RBG= 177730   	IO.DAC= 010000
FATX    000122R     002	GCMLB = ****** GX	IE.EOT= 177702   	IE.RBS= 177761   	IO.DCI= 014400
FCFAT1  000072RG    002	GCMLER  000670RG    002	IE.EOV= 177765   	IE.RCN= 177722   	IO.DEL= 012400
FCSERP  000244RG    002	GERRM1= ****** GX	IE.EXP= 177665   	IE.RER= 177740   	IO.DET= 002000
FC01    000412R     002	GERRM2  000306RG    002	IE.FEX= 177717   	IE.RNM= 177715   	IO.DIS= 016000
FC02    000440R     002	GE.BIF= 177775   	IE.FHE= 177705   	IE.RSU= 177757   	IO.DLB= 016540
FC03    000464R     002	GE.CLO= 000004   	IE.FIX= 177767   	IE.SDP= 177635   	IO.DSI= 013400
FDBERR  000152RG    002	GE.COM= 000001   	IE.FLN= 177657   	IE.SNC= 177735   	IO.DTI= 016000
FDBE1   000240R     002	GE.CON= 000020   	IE.FOP= 177713   	IE.SPC= 177772   	IO.DTY= 006400
F.ACTL= 000076   	GE.EOF= 177766   	IE.HFU= 177744   	IE.SQC= 177734   	IO.ENA= 006000
F.ALOC= 000040   	GE.IND= 000002   	IE.HWR= 177772   	IE.SRE= 177762   	IO.EOF= 003000
F.BBFS= 000062   	GE.IOR= 177777   	IE.IBS= 177647   	IE.STK= 177706   	IO.EXT= 011400
F.BDB = 000070   	GE.LC = 000010   	IE.IDU= 177644   	IE.TCH= 177765   	IO.FDX= 003020
F.BGBC= 000057   	GE.MDE= 177774   	IE.IEF= 177637   	IE.TMM= 177671   	IO.FLN= 012400
F.BKDN= 000026   	GE.OPR= 177776   	IE.IES= 177656   	IE.TMO= 177666   	IO.FNA= 004400
F.BKDS= 000020   	GE.RBG= 177730   	IE.IFC= 177776   	IE.ULK= 177653   	IO.GLC= 016430
F.BKEF= 000050   	GE.SIZ= 000040   	IE.IFU= 177747   	IE.ULN= 177773   	IO.GLI= 016420
F.BKP1= 000051   	G.CMLD= 000146   	IE.ILL= 177726   	IE.UNS= 177774   	IO.GNI= 016410
F.BKST= 000024   	G.DPRM= 000160   	IE.ILU= 177640   	IE.UPN= 177777   	IO.GRC= 016450
F.BKVB= 000064   	G.ERR = 000140   	IE.ILV= 177755   	IE.VER= 177774   	IO.GRI= 016440
F.CHR = 000075   	G.ISIZ= 000020   	IE.INS= 177776   	IE.WAC= 177743   	IO.GRN= 016460
F.CNTG= 000034   	G.MODE= 000141   	IE.IOP= 177655   	IE.WAT= 177741   	IO.GTS= 002400
F.DFNB= 000046   	G.PSDS= 000142   	IE.IPR= 177641   	IE.WCK= 177652   	IO.HDX= 003010
F.DSPT= 000044   	G.SIZE= 000224   	IE.ISQ= 177703   	IE.WER= 177737   	IO.HIS= 015000
F.DVNM= 000134   	IE.ABO= 177761   	IE.ITI= 177643   	IE.WLK= 177764   	IO.HNG= 003000
F.EFBK= 000010   	IE.ACT= 177771   	IE.ITP= 177650   	IE.WOV= 177653   	IO.INI= 014400
F.EFN = 000050   	IE.ADP= 177636   	IE.ITS= 177770   	IE.2DV= 177720   	IO.INL= 002400
F.EOBB= 000032   	IE.ALC= 177654   	IE.IUI= 177645   	IOFATL  000102RG    002	IO.ITI= 017000
F.ERR = 000052   	IE.ALG= 177654   	IE.LCK= 177745   	IOSTS = ****** GX	IO.KIL= 000012
F.FACC= 000043   	IE.ALN= 177736   	IE.LNL= 177646   	IO.ACE= 007400   	IO.LDI= 007000
F.FFBY= 000014   	IE.AST= 177660   	IE.MAP= 177657   	IO.ACR= 006400   	IO.LED= 012000
F.FNAM= 000110   	IE.BAD= 177777   	IE.MOD= 177753   	IO.ACW= 007000   	IO.LEI= 007410
F.FNB = 000102   	IE.BBE= 177710   	IE.NBF= 177731   	IO.ADS= 014000   	IO.LKE= 012000
F.FTYP= 000116   	IE.BCC= 177676   	IE.NBK= 177727   	IO.APC= 014000   	IO.LOD= 014000
F.FVER= 000120   	IE.BDI= 177714   	IE.NDR= 177670   	IO.APV= 014010   	IO.LOV= 001010
F.HIBK= 000004   	IE.BDR= 177716   	IE.NFI= 177704   	IO.ATA= 001410   	IO.LSI= 011000
F.LUN = 000042   	IE.BDV= 177711   	IE.NFW= 177673   	IO.ATT= 001400   	IO.LTI= 007400
F.MBCT= 000054   	IE.BHD= 177700   	IE.NLK= 177661   	IO.CAS= 015420   	IO.LTK= 000050
F.MBC1= 000055   	IE.BLB= 177672   	IE.NLN= 177733   	IO.CBO= 015510   	IO.LTY= 010000
F.MBFG= 000056   	IE.BLK= 177754   	IE.NNC= 177663   	IO.CCI= 014000   	IO.MAO= 003410
F.NRBD= 000024   	IE.BNM= 177712   	IE.NNL= 177662   	IO.CCO= 000440   	IO.MCS= 013400
F.NREC= 000030   	IE.BTF= 177664   	IE.NNN= 177674   	IO.CIN= 016500   	IO.MDA= 016000
F.OVBS= 000030   	IE.BTP= 177725   	IE.NOD= 177751   	IO.CLK= 015000   	IO.MDI= 014400
F.RACC= 000016   	IE.BVR= 177701   	IE.NSF= 177746   	IO.CLN= 003400   	IO.MDO= 015400
F.RATT= 000001   	IE.BYT= 177755   	IE.NST= 177660   	IO.CNT= 017000   	IO.MLO= 006000
F.RCNM= 000034   	IE.CKP= 177766   	IE.NSW= 177756   	IO.CON= 015400   	IO.MOD= 003000
F.RCTL= 000017   	IE.CKS= 177742   	IE.NVR= 177652   	IO.CPR= 015410   	IO.MSO= 005000
SOSPER - PRINT ERROR MESSAGE	MACRO M1110  22-AUG-78 05:34  PAGE 4-3
SYMBOL TABLE

IO.NLB= 016530   	IO.RTI= 016400   	IO.UEI= 011450   	IQ.X  = 000001   	N.UNIT= 000034
IO.NLK= 011400   	IO.RTK= 000060   	IO.UER= 011440   	IS.BV = 000005   	PRINT = ****** GX
IO.ONL= 017400   	IO.RTM= 001200   	IO.ULK= 005000   	IS.CC = 001401   	PRINTC= ****** GX
IO.RAD= 010400   	IO.RVB= 010400   	IO.UNL= 000042   	IS.CLR= 000000   	PRINTN= ****** GX
IO.RAL= 001010   	IO.RWD= 002400   	IO.USI= 011460   	IS.CR = 006401   	PRTINL= ****** GX
IO.RAT= 013000   	IO.RWU= 002540   	IO.UTI= 011420   	IS.EOT= 002001   	QIOMSG= ****** GX
IO.RBC= 003000   	IO.R1C= 002400   	IO.UTY= 011430   	IS.ESC= 015401   	RONLY$= 000001
IO.RCI= 015000   	IO.SAO= 004000   	IO.WAL= 000410   	IS.ESQ= 115401   	R$$EIS= 000001
IO.RCV= 015000   	IO.SCS= 013000   	IO.WAT= 013400   	IS.PES= 100001   	R$$SHR= 000001
IO.RDB= 001200   	IO.SDI= 013000   	IO.WBT= 000500   	IS.PND= 000000   	S.FATT= 000016
IO.RDD= 010010   	IO.SDO= 012400   	IO.WDD= 000444   	IS.RDD= 000002   	S.FDB = 000140
IO.RDN= 000022   	IO.SEC= 002520   	IO.WLB= 000400   	IS.SET= 000002   	S.FNAM= 000006
IO.REL= 013400   	IO.SET= 000030   	IO.WLC= 000420   	IS.SPD= 000002   	S.FNB = 000036
IO.RHD= 001010   	IO.SLO= 005400   	IO.WLS= 000410   	IS.SUC= 000001   	S.FNBW= 000017
IO.RLB= 001000   	IO.SMO= 002560   	IO.WLT= 000410   	IS.TAB= 004401   	S.FNTY= 000004
IO.RLV= 001100   	IO.SPB= 002420   	IO.WLV= 000500   	IS.TMO= 000002   	S.FTYP= 000002
IO.RMT= 010020   	IO.SPF= 002440   	IO.WMS= 000420   	NAMFIL= ****** GX	S.NFEN= 000020
IO.RNA= 005400   	IO.SPW= 016510   	IO.WNS= 000420   	N.DID = 000024   	TTOCTL= ****** GX
IO.RNC= 001040   	IO.SSO= 004400   	IO.WPB= 000440   	N.DVNM= 000032   	TYPE  = ****** GX
IO.RNE= 001020   	IO.STA= 015400   	IO.WVB= 011000   	N.FID = 000000   	TYPECR= ****** GX
IO.RNS= 001020   	IO.STC= 002500   	IO.XMT= 014400   	N.FNAM= 000006   	$SAV3 = ****** GX
IO.RPB= 001040   	IO.STP= 016400   	IO.XNA= 014410   	N.FTYP= 000014   	$$MSG = 000000
IO.RPR= 004400   	IO.SYN= 003040   	IQ.Q  = 000002   	N.FVER= 000016   	...GBL= 000000
IO.RST= 001001   	IO.TRM= 002410   	IQ.S  = 000004   	N.NEXT= 000022   	...TPC= 000140
IO.RTC= 003400   	IO.UDI= 011410   	IQ.UMD= 000004   	N.STAT= 000020

. ABS.	000000	   000
      	000000	   001
CODE  	001126	   002
ERRORS DETECTED:  0

VIRTUAL MEMORY USED:  5255 WORDS  ( 21 PAGES)
DYNAMIC MEMORY:  5940 WORDS  ( 22 PAGES)
ELAPSED TIME:  00:00:20
OBJ$:SOSPER,LIS$:SOSPER/-SP/NL:TOC=SRC$:PREFIX,SOSPER
