DSCER	X0032 - DSC ERROR REPOR	MACRO M1110  21-AUG-78 20:31
TABLE OF CONTENTS

    23-   33	PURE AND IMPURE DATA
    24-   62	ERROR MESSAGE CODE
    25-  149	ERROR MESSAGE MACROS
    26-  202	ERROR MESSAGES
    26-  301	ERROR  MESSAGES
    26-  443	I/O ERROR TABLE MACROS
    27-  491	I/O ERROR MESSAGES
    28-  519	ERROR ACTION ROUTINES
    28-  800	CREATE MSG. IMAGE ROUTINE
DSCER	X0032 - DSC ERROR REPOR	MACRO M1110  21-AUG-78 20:31  PAGE 3


      1	000000					$BEGIN	DSCER,0032,<DSC ERROR REPORT MODULE>
						.TITLE	DSCER	X0032 - DSC ERROR REPORT MODULE
						.IDENT	"X0032"
      2
      3					; ALTERED:
      4					; GEORGE RITTENBURG    21-SEP-76  9:27
      5					;
      6					; COPYRIGHT (C) 1976 BY DIGITAL EQUIPMENT CORPORATION,
      7					; MAYNARD, MASSACHUSETTS
      8					;
      9					; THIS SOFTWARE IS FURNISHED UNDER A LICENSE FOR USE ONLY ON A
     10					; SINGLE  COMPUTER  SYSTEM AND MAY BE COPIED ONLY WITH THE IN-
     11					; CLUSION OF THE ABOVE COPYRIGHT NOTICE.   THIS  SOFTWARE,  OR
     12					; ANY  OTHER  COPIES THEREOF, MAY NOT BE PROVIDED OR OTHERWISE
     13					; MADE AVAILABLE TO ANY OTHER PERSON EXCEPT FOR  USE  ON  SUCH
     14					; SYSTEM  AND TO ONE WHO AGREES TO THESE LICENSE TERMS.  TITLE
     15					; TO AND OWNERSHIP OF THE SOFTWARE SHALL AT ALL  TIMES  REMAIN
     16					; IN DIGITAL.
     17					;
     18					; THE INFORMATION IN THIS SOFTWARE IS SUBJECT TO CHANGE  WITH-
     19					; OUT  NOTICE  AND  SHOULD NOT BE CONSTRUED AS A COMMITMENT BY
     20					; DIGITAL EQUIPMENT CORPORATION.
     21					;
     22					; DIGITAL EQUIPMENT CORPORATION ASSUMES NO RESPONSIBILITY  FOR
     23					; THE USE OR RELIABILITY OF ITS SOFTWARE ON EQUIPMENT WHICH IS
     24					; NOT SUPPLIED BY DIGITAL.
     25					;
     26					; ANDREW C. GOLDSTEIN  1-NOV-76  21:48
     27					; GEORGE RITTENBURG 6-APR-77 MODIFIED FOR VFY/CMP DISK TO/FROM TAPE
     28
     29
     30						.MCALL	QIOW$S,FHDL2$
     31	000000					FHDL2$			; DEFINE FILE HEADER FORMAT
DSCER	X0032 - DSC ERROR REPOR	MACRO M1110  21-AUG-78 20:31  PAGE 4
PURE AND IMPURE DATA

     33						.SBTTL	PURE AND IMPURE DATA
     34
     35					;
     36					; IMPURE DATA
     37					;
     38	000000				$CODE:	.BLKW	1			; SPACE FOR MESSAGE CODE
     39	000002				$PARAM:	.BLKW	12.			; MESSAGE PARAMETER BLOCK
     40	000032				$MBUF:	.BLKB	200.			; BUFFER FOR MESSAGE STRING FOR TYPING
     41	000342				COMMSG:   .BLKB   80.	;COMMON MESSAGE BUFFER FOR EDITING
     42	000462	   045 	   062 	   101 	FORM1:   .ASCII   \%2A%O:\
	000465	   045 	   117 	   072
     43	000470	   045 	   120 	   054 	FORM2:   .ASCIZ   \%P,%P,%P%N%VA%N\
	000473	   045 	   120 	   054
	000476	   045 	   120 	   045
	000501	   116 	   045 	   126
	000504	   101 	   045 	   116
	000507	   000
     44	000510	   111 	   057 	   117 	STDMSG:   .ASCII   \I/O ERROR   ON \
	000513	   040 	   105 	   122
	000516	   122 	   117 	   122
	000521	   040 	   040 	   040
	000524	   117 	   116 	   040
     45
     46
     47
     48					;
     49					; MESSAGE PREFIX STRINGS FOR THE VARIOUS MESSAGE TYPES.
     50					;
     51	000527	   104 	   123 	   103 	FATAL:	.ASCII	"DSC -- *FATAL* "	; FATAL ERROR
	000532	   040 	   055 	   055
	000535	   040 	   052 	   106
	000540	   101 	   124 	   101
	000543	   114 	   052 	   040
     52		000017 			FATLL = .-FATAL
     53
     54	000546	   104 	   123 	   103 	WARN:	.ASCII	"DSC -- *WARNING* "	; WARNING MESSAGE
	000551	   040 	   055 	   055
	000554	   040 	   052 	   127
	000557	   101 	   122 	   116
	000562	   111 	   116 	   107
	000565	   052 	   040
     55		000021 			WARNL = .-WARN
     56
     57	000567	   104 	   123 	   103 	RDPRE:	.ASCII	"DSC -- "		; READY MESSAGE PREFIX
	000572	   040 	   055 	   055
	000575	   040
     58		000007 			RDPRL = .-RDPRE
     59
     60						.EVEN
DSCER	X0032 - DSC ERROR REPOR	MACRO M1110  21-AUG-78 20:31  PAGE 5
ERROR MESSAGE CODE

     62						.SBTTL	ERROR MESSAGE CODE
     63
     64					;+
     65					;
     66					; *** - $DSCER	ERROR MESSAGE MODULE FOR DSC
     67					;
     68					; THIS ROUTINE IS ENTERED FROM THE TRAP VECTOR TO REPORT AN ERROR
     69					; CONDITION. THE TRAP CODE IS THE ERROR CODE; IF POSITIVE, THE
     70					; CURRENT COMMAND IS ABORTED; IF NEGATIVE, OPERATION IS RESUMED
     71					; AFTER PRINTING THE MESSAGE.
     72					;
     73					; INPUTS:
     74					;
     75					;	STACK:	ERROR CODE * 2
     76					;		PC
     77					;		PS
     78					;	ALL REGISTERS AT TIME OF TRAP
     79					;
     80					; OUTPUTS:
     81					;
     82					;	MESSAGE OUTPUT TO TERMINAL
     83					;	ALL REGISTERS PRESERVED
     84					;	CC - C	SET
     85					;	RETURNS TO DSC INIT POINT IF TRAP CODE IS NEGATIVE
     86					;
     87					;-
     88
     89	000576				$DSCER::
     90	000576					LET $CODE := (SP)+		; SAVE THE ERROR CODE
     91	000602					LET (SP) := (SP)+		; CLEAN PS OFF STACK
     92	000604					IF #400 OFF.IN $CODE		; IF ABORT REQUESTED
     93	000614					  LET SP := $STAK		; CLEAN THE ENTIRE STACK
     94	000620					  PUSH #$DSC			; SET RETURN TO INIT POINT
     95	000624					  LET $PARAM := #FATLL		; SET FATAL MESSAGE HEADER
     96	000632					  LET $PARAM+2 := #FATAL
     97	000640					  LET $ESTAT  :=  #2	;INDICATE FATAL ERROR OCCURRED
     98	000646					ELSE
     99	000650					  LET $CODE := - $CODE OFF.BY #^C377 ; MAKE CODE POSITIVE
    100	000662					  LET $PARAM := #WARNL		; SET WARNING MESSAGE HEADER
    101	000670					  LET $PARAM+2 := #WARN
    102	000676					   IF $ESTAT  LT  #0	;IF NO WARN. OR FATAL YET
    103	000704						LET $ESTAT  :=  #-2	; INDICATE WARNING MESSAGE SENT
    104	000712					   END
    105	000712					END
    106	000712					$CALL $SAVAL			; SAVE ALL REGISTERS
    107					;
    108					;NOW MOVE BASIC PART OF MSG TO COMMON MESSAGE BUFFER
    109					;
    110	000716					LET R4 := #0		;OFFSET IN CURRENT MESSAGE
    111	000720					LET R2 := $CODE		;ORIGINAL ERROR CODE
    112	000724					LET R3 :=  #COMMSG	;1ST BYTE COMMON BUFFER
    113	000730				TAG1:	LET R1 := R2		;GET ERROR CODE
    114	000732					IF R1 HI #MAXCOD
    115	000740						FATAL <GARBAGE MESSAGE CODE>
    116	000742					END
    117	000742					LET R1 := $MSG(R1) + R4	;CURRENT POSITION IN MESSAGE
    118	000750					LET R5 := R3		;CURRENT POS. IN COMMON BUFFER
DSCER	X0032 - DSC ERROR REPOR	MACRO M1110  21-AUG-78 20:31  PAGE 5-1
ERROR MESSAGE CODE

    119	000752					WHILEB (R1) NE #0	;UNTIL NULL CHAR
    120	000756						LET (R5)+ :B= (R1)+	;MOVE CHAR. TO COMMON BUFFER
    121	000760					END
    122	000762					LET R1 := R2		;RESET R1TO ERR.CODE--
    123								;R5 IS ADDRESS OF NEXT BYTE IN COMM.BUFFR
    124	000764					$CALL  @$MSV(R1)	;TO APPEND FORMAT CHARS.
    125					;
    126					; NOW CALL THE ACTION ROUTINE ASSOCIATED WITH THE ERROR
    127					;
    128	000770					LET R5 := #$PARAM+4		; POINT TO PARAMETER BLOCK
    129	000774					LET R1 := SP + #6		;RESTORE R2,R3,R4
    130	001002					LET R2 := (R1)+
    131	001004					LET R3 := (R1)+
    132	001006					LET R4 := (R1)+
    133	001010					LET R1 := $CODE			; GET CODE
    134	001014					$CALL @$ACT(R1)			; CALL THE ACTION ROUTINE
    135					;
    136					; NOW GENERATE THE MESSAGE FROM THE FORMAT STRING THE THE PARAMETER
    137					; BLOCK PREPARED BY THE ACTION ROUTINE.
    138					;
    139	001020					LET R1 := $CODE			; GET CODE AGAIN
    140	001024					LET R1 := #COMMSG		; GET ADDRESS OF COMMON BUFFER
    141	001030					$CALL $EDMSG <#$MBUF,R1,#$PARAM>
    142										; AND OUTPUT TO TERMINAL
    143	001044					QIOW$S #IO.WVB,#TTYLUN,#TTEFN,,,,<#$MBUF,R1,#0>
    144	001112					IF $ESTAT EQ #-2
    145	001122					   LET $ESTAT :=	#0  ;SET WARNING INDICATOR
    146	001126					END
    147	001126					RETURN ERROR
DSCER	X0032 - DSC ERROR REPOR	MACRO M1110  21-AUG-78 20:31  PAGE 6
ERROR MESSAGE MACROS

    149						.SBTTL	ERROR MESSAGE MACROS
    150
    151					;
    152					; MACRO TO GENERATE ERROR MESSAGE TABLES. THE MESSAGE FORMAT STRINGS
    153					; ARE ACCUMULATED, AND A POINTER TABLE IS BUILT, INDEXABLE BY MESSAGE
    154					; CODE. ALSO, A POINTER TABLE FOR THE ACTION ROUTINES IS CONSTRUCTED.
    155					;
    156						.MACRO	MSG	CODE,STRING
    157						ER.'CODE == $$CODE
    158						$$CODE = $$CODE + 1
    159						.PSECT	$$MSG
    160						...MSG = .
    161						.ASCIZ	\%N%VA'STRING\
    162						.PSECT	$$MST
    163						.WORD	...MSG
    164						.PSECT	$$ACT
    165						.WORD	AC.'CODE
    166						.PSECT  $$MSV
    167						.WORD  MV.'CODE
    168						.PSECT	$$MSG
    169						.ENDM	MSG
    170
    171						.MACRO	MSGC	CODE,STRING
    172						ER.'CODE == $$CODE
    173						$$CODE = $$CODE + 1
    174						.PSECT	$$MSG
    175						...MSG = .
    176						.ASCII	\%N%VA'STRING\
    177						.PSECT	$$MST
    178						.WORD	...MSG
    179						.PSECT	$$ACT
    180						.WORD	AC.'CODE
    181						.PSECT   $$MSV
    182						.WORD   MV.'CODE
    183						.PSECT	$$MSG
    184						.ENDM	MSGC
    185
    186
    187
    188					;
    189					; INITIALIZE ORIGINS OF THE TABLES
    190					;
    191	000000					.PSECT	$$MST
    192	000000				$MSG:
    193
    194	000000					.PSECT   $$MSV
    195	000000				$MSV:
    196
    197	000000					.PSECT	$$ACT
    198	000000				$ACT:
    199
    200		000000 				$$CODE = 0
DSCER	X0032 - DSC ERROR REPOR	MACRO M1110  21-AUG-78 20:31  PAGE 7
ERROR MESSAGES

    202						.SBTTL	ERROR MESSAGES
    203
    204						.NLIST	BEX
    205
    206					;
    207					; THE MESSAGES THEMSELVES
    208					;
    209							.IF NDF, R$$11S
    210					;
    211					; MESSAGES FOR ON-LINE DSC ONLY
    212					;
    213	000000				MSG	UDE, <1 UNDEFINED ERROR>
    214	000027				MSG	CDV, <2 CONFLICTING DEV. TYPES;>
    215	000066				MSG	MXT, <3 MIXED TAPE TYPES;>
    216	000117				MSG	ILS, <4 ILLEGAL SWITCH;>
    217	000146				MSG	LAB, <5 FILE LABEL TOO LONG;>
    218	000202				MSG	SYN, <6 SYNTAX ERROR;>
    219	000227				MSG	DUD, <7 DUP. DEV. NAME;>
    220	000256				MSG	TMD, <8 TOO MANY DEV'S;>
    221	000305				MSG	DEV, <9 DEV. %2A%O: NOT IN SYSTEM>
    222	000346				MSG	F11, <10 DEV. %2A%O: NOT FILES-11>
    223	000407				MSG	BSY, <11 BAD BLOCK SYNTAX ERROR>
    224	000446				MSG	BCT, <12 BAD BLOCK COUNT TOO LARGE>
    225	000510				MSG	BRG, <13 BAD BLOCK CLUSTER OUT OF RANGE>
    226	000557				MSG	OBO, <14 OUTPUT TAPE %2A%O: NOT AT BOT>
    227	000625				MSG	TFU, <15 OUTPUT TAPE %2A%O: FULL>
    228	000665				MSG	NLV, <16 OUTPUT TAPE %2A%O: NOT ONLY REEL IN SET>
    229	000745				MSG	IFM, <17 TAPE %2A%O: NOT ANSI FORMAT>
    230	001011				MSG	NDS, <18 OUTPUT TAPE %2A%O: NOT DSC TAPE>
    231	001061				MSG	NFI, <19 TAPE %2A%O: A CONTINUATION TAPE>
    232	001131				MSG	DNS, <20 CANNOT DETERMINE DENSITY OF TAPE >
    233	001203				MSG	NHO, <21 FAILED TO FIND HOME BLOCK >
    234	001246				MSG	LEV, <22 FILE STRUCTURE LEVEL ON %2A%O: NOT SUPPORTED%N>
    235	001335				MSG	IXB, <23 A>
    236	001347				MSG	IXH, <24 B>
    237	001361				MSG	SMH, <25 CODE A>
    238	001400				MSG	SMB, <26 C>
    239	001412				MSG	RHO, <27 D>
    240	001424				MSG	RVN, <28 RELATIVE VOLUME %D OF SET NOT MOUNTED>
    241	001502				MSG	TMI, <29 TOO MANY DISKS FOR SET>
    242	001541				MSG	TFI,	 <30 TOO FEW DISKS FOR SET>
    243	001577				MSG	RHD, <31 I/O ERROR E ON %2A%O:, FILE ID >
    244	001647				MSG	FNU, <32 INPUT DEVICE %2A%O: FILE ID %P,%P NOT PRESENT>
    245	001735				MSG	DEL, <33 INPUT DEVICE %2A%O: FILE ID %P,%P IS DELETED>
    246	002022				MSG	FLV, <34 INPUT DEVICE %2A%O: FILE ID %P,%P UNSUPPORTED STRUCTURE LEVEL>
    247	002130				MSG	FNO, <35 INPUT DEVICE %2A%O: FILE ID %P,%P FILE NUMBER CHECK>
    248	002224				MSG	HCK, <36 INPUT DEVICE %2A%O: FILE ID %P,%P FILE HEADER CHECKSUM ERROR>
    249	002331				MSG	ESQ, <37 INPUT DEVICE %2A%O: FILE ID %P,%P SEQUENCE NUMBER CHECK>
    250	002431				MSG	ESN, <38 INPUT DEVICE %2A%O: FILE ID %P,%P SEGMENT NUMBER CHECK>
    251	002530				MSG	DIR, <39 DIRECTIVE ERROR - %VA%N>
    252	002570				MSG	IIR, <40 F>
    253	002602				MSGC	RDA, <41 I/O ERROR I ON %2A%O:%NFILE ID %P,%P,%P,VBN %P,%P%>
    254	002674	   116 	   045 	   126 	.ASCIZ	"N%VA%N"
    255	002703				MSG	VER, <42 VERIFICATION ERROR ON %2A%O:%NFILE ID %P,%P,%P, VBN >
    256	003000				MSGC	BDA, <43 BAD DATA BLOCK ON %2A%O:%NFILE ID %P,%P,%P,VBN %P,%P%>
    257	003075	   116 	   045 	   126 	.ASCIZ	"N%VA%N"
    258	003104				MSG	RDY, <44 MOUNT REEL %D ON %2A%O: AND HIT RETURN>
DSCER	X0032 - DSC ERROR REPOR	MACRO M1110  21-AUG-78 20:31  PAGE 7-1
ERROR MESSAGES

    259	003163				MSG	VFY, <45 STARTING VERIFY PASS>
    260	003220				MSG	RSC, <46 RESUME COPYING>
    261	003247				MSG	WLK, <47 %2A%O: IS WRITE LOCKED. INSERT WRITE RING AND HIT RETURN>
    262	003350				MSG	FSY, <48 INPUT FILE ON %2A%O: WILL BE RESYNCHRONIZED>
    263	003434				MSG	DFU, <49 OUTPUT DEVICE %2A%O: FULL%N FILE ID >
    264	003511				MSG	HFU, <50 OUTPUT FILE HEADER FULL ON %2A%O:%N- FILE ID >
    265	003577				MSG	OFN, <51 OUTPUT FILE HEADER ON %2A%O: NOT MAPPED - FILE ID >
    266	003672				MSG	WXB, <52 G>
    267	003704				MSG	RXD, <53 FAILED TO READ FILE EXTENSION HEADER ON %2A%O: - FILE ID >
    268	004006				MSG	AHM, <54 FAILED TO ALLOCATE HOME BLOCK >
    269	004055				MSG	ALF, <55 INDEX FILE ALLOCATION FAILURE >
    270	004124				MSG	NBO, <56 OUTPUT DISK %2A%O: IS NOT BOOTABLE>
    271	004177				MSG	BBD, <57 INVALID BAD BLOCK DATA >
    272	004237				MSG	BFU, <58 BAD BLOCK FILE FULL >
    273	004274				MSG	NBD, <59 NO BAD BLOCK DATA FOUND >
    274	004335				MSG	DGP, <60 OUTPUT DEVICE %2A%O: IS A DIAGNOSTIC PACK. DO NOT USE IT!>
    275	004437				MSGC	VBN, <61 CODE B ON %2A%O:%NFILE ID %P,%P,%P%N - VBN %P,%P >
    276	004530	   105 	   130 	   120 	.ASCIZ	"EXPECTED, %P,%P FOUND%N"
    277	004560				MSG	NDA, <62 CODE C ON %2A%O:%NFILE ID %P,%P,%P%N - VBN %P,%P%N>
    278	004653				MSGC	FID, <63 CODE D ON %2A%O:%NFILE ID %P,%P,%P EXPECTED, %P,>
    279	004743	   045 	   120 	   054 	.ASCIZ	"%P,%P FOUND%N"
    280	004761				MSG	MPO, <64 FAILED TO MAP OUTPUT FILE ON %2A%O:%NFILE ID %P,%P,%P, VBN >
    281	005065				MSG	DEX, <65 OUTPUT DISK %2A%O: IS TOO SMALL - %P,%P BLOCKS NEEDED>
    282	005163				MSG	RSM, <66 C>
    283	005175				MSG	WSM, <67 H>
    284	005207				MSG	ILB, <68 J>
    285	005221				MSG	BOT, <69 INPUT TAPE ON %2A%O: MUST BE AT BOT>
    286	005275				MSG	WRV, <70 WRONG INPUT TAPE ON %2A%O:%N EXPECTING "%VA", FOUND "%VA">
    287	005377				MSG	PH1, <71  CODE E ON %2A%O: AFTER FILE ID >
    288	005450				MSG	RAT, <72 I/O ERROR K ON %2A%O:%NAFTER FILE ID >
    289	005526				MSG	RHT, <73 I/O ERROR L ON %2A%O:%NAFTER FILE ID >
    290	005604				MSG	RSY, <74 INPUT TAPE %2A%O: RESYNCHRONIZED AT FILE ID >
    291	005671				MSG	FNF, <75 TAPE FILE "%VA" NOT FOUND >
    292	005734				MSG	NNX, <76 EXPECTED EXTENSION HEADER NOT PRESENT ON %2A%O: - FILE ID >
    293	006037				MSG	NXT, <77  CODE F ON %2A%O: AFTER FILE ID >
    294	006110				MSG	RID, <78 M>
    295	006122				MSG	TID, <79 INDEX FILE DATA NOT PRESENT >
    296	006167				MSG	RSU, <80 N>
    297	006201				MSG	ITP, <81 VOLUME SUMMARY DATA NOT PRESENT >
    298	006252				MSG	WHD, <82 I/O ERROR O ON %2A%O: - FILE ID >
    299					;
    300
    301						.SBTTL	ERROR  MESSAGES
    302
    303						.NLIST	BEX
    304
    305					;
    306					; THE STAND-ALONE MESSAGES
    307					;
    308					.IFF
    309					;
    310					; STAND-ALONE DSC MESSAGES
    311					;
    312					MSG	UDE,  <1>
    313					MSG	CDV,  <2>
    314					MSG	MXT,  <3>
    315					MSG	ILS,  <4>
DSCER	X0032 - DSC ERROR REPOR	MACRO M1110  21-AUG-78 20:31  PAGE 7-2
ERROR  MESSAGES

    316					MSG	LAB,  <5>
    317					MSG	SYN,  <6>
    318					MSG	DUD,  <7>
    319					MSG	TMD,  <8>
    320					MSG	DEV,  <9-%2A%O:>
    321					MSG	F11,  <10-%2A%O:>
    322					MSG	BSY,  <11>
    323					MSG	BCT,  <12>
    324					MSG	BRG,  <13>
    325					MSG	OBO,  <14-%2A%O:>
    326					MSG	TFU,  <15-%2A%O:>
    327					MSG	NLV,  <16-%2A%O:>
    328					MSG	IFM,  <17-%2A%O:>
    329					MSG	NDS,  <18-%2A%O:>
    330					MSG	NFI,  <19-%2A%O:>
    331					MSG	DNS,  <20->
    332					MSG	NHO,  <21->
    333					MSG	LEV,  <22-%2A%O:>
    334					MSG	IXB,  <23 A>
    335					MSG	IXH,  <24 B>
    336					MSG	SMH,  <25 CODE A>
    337					MSG	SMB,  <26 C>
    338					MSG	RHO,  <27 D>
    339					MSG	RVN,  <28-%D>
    340					MSG	TMI,  <29>
    341					MSG	TFI,  <30>
    342					MSG	RHD,  <31-%2A%O:,>
    343					MSG	FNU,  <32-%2A%O:-%P,%P>
    344					MSG	DEL,  <33-%2A%O:-%P,%P>
    345					MSG	FLV,  <34-%2A%O:-%P,%P>
    346					MSG	FNO,  <35-%2A%O:-%P,%P>
    347					MSG	HCK,  <36-%2A%O:-%P,%P>
    348					MSG	ESQ,  <37-%2A%O:-%P,%P>
    349					MSG	ESN,  <38-%2A%O:-%P,%P>
    350					MSG	DIR,  <39-%VA%N>
    351					MSG	IIR,  <40 F>
    352					MSG	RDA,  <41-%2A%O:-%P,%P,%P-%P,%P%N%VA%N>
    353					MSG	VER,  <42-%2A%O:%N-%P,%P,%P, VBN >
    354					MSG	BDA,  <43-%2A%O:%N-%P,%P,%P-%P,%P%N-%VA%N>
    355					MSG	RDY,  <44 MOUNT REL %D ON %2A%O: AND HIT RETURN>
    356					MSG	VFY,  <45 START VFY PASS>
    357					MSG	RSC,  <46 RESUME COPY>
    358					MSG	WLK,  <47 %2A%O: WRITE LOCKED>
    359					MSG	FSY,  <48-%2A%O:>
    360					MSG	DFU,  <49-%2A%O:%N>
    361					MSG	HFU,  <50-%2A%O:%N>
    362					MSG	OFN,  <51-%2A%O:->
    363					MSG	WXB,  <52 G>
    364					MSG	RXD,  <53-%2A%O:->
    365					MSG	AHM,  <54->
    366					MSG	ALF,  <55->
    367					MSG	NBO,  <56-%2A%O:>
    368					MSG	BBD,  <57->
    369					MSG	BFU,  <58->
    370					MSG	NBD,  <59->
    371					MSG	DGP,  <60-%2A%O:>
    372					MSG	VBN,  <61-%2A%O:%N-%P,%P,%P%N-%P,%P-%P,%P%N>
DSCER	X0032 - DSC ERROR REPOR	MACRO M1110  21-AUG-78 20:31  PAGE 7-3
ERROR  MESSAGES

    373					MSG	NDA,  <62-%2A%O:%N-%P,%P,%P%N-%P,%P%N>
    374					MSG	FID,  <63-%2A%O:%N-%P,%P,%P-%P,%P,%P%N>
    375					MSG	MPO,  <64-%2A%O:%N-%P,%P,%P->
    376					MSG	DEX,  <65-%2A%O:-%P,%P>
    377					MSG	RSM,  <66 C>
    378					MSG	WSM,  <67 H>
    379					MSG	ILB,  <68 J>
    380					MSG	BOT,  <69-%2A%O: MUST BE AT BOT>
    381					MSG	WRV,  <70 WRONG TAPE-%2A%O:%N-%VA-%VA>
    382					MSG	PH1,  <71 -%2A%O:->
    383					MSG	RAT,  <72 -%2A%O:%N->
    384					MSG	RHT,  <73 -%2A%O:%N->
    385					MSG	RSY,  <74-%2A%O:->
    386					MSG	FNF,  <75-%VA NOT FOUND->
    387					MSG	NNX,  <76-%2A%O:->
    388					MSG	NXT,  <77-%2A%O:->
    389					MSG	RID,  <78 M>
    390					MSG	TID,  <79->
    391					MSG	RSU,  <80 N>
    392					MSG	ITP,  <81->
    393					MSG	WHD,  <82-%2A%O:->
    394
    395					MSG	ILU,<SPECIFIED UNIT NUMBER EXCEEDS MAX. OF 1 >
    396					MSG	VEC,<ILLEGAL VECTOR ADDRESS >
    397					MSG	CSR,<INVALID CSR ADDRESS >
    398					MSG	TM2,<INVALID TM02 ASSIGNMENT >
    399					.ENDC
    400
    401
    402		000242 				MAXCOD = $$CODE-1*2
    403					;
    404		000020 			ER.TFM == ER.IFM
    405		000022 			ER.NFV == ER.NFI
    406		000027 			ER.IXO == ER.IXH
    407		000034 			ER.TMO == ER.TMI
    408		000035 			ER.TFO == ER.TFI
    409		000050 			ER.RDO == ER.RDA
    410		000047 			ER.IOR == ER.IIR
    411					; THE PRECEDING ASSIGNMENTS SERVE TO ELIMINATE DUPLICATE ERROR MESSAGES
    412					;
    413					;			;CODED I/O MESSAGES
    414					;CODE A =READING INDEX FILE BIT MAP
    415					;CODE B + READING INDEX FILE HEADER
    416					;CODE C = READING STORAGE BIT MAP
    417					;CODE D = READING BOOT OR HOME BLOCK
    418					;CODE E = READING FILE HEADER
    419					;CODE F =INPUT DEVICE
    420					;CODE G = WRITING INDEX FILE BIT MAP
    421					;CODE H = WRITING STORAGE BIT MAP HEADER
    422					;CODE I =READING INPUT DEVICE
    423					;CODE J = IN INPUT TAPE LABELS
    424					;CODE K = READING FILE ATTRIBUTES
    425					;CODE L = READING FILE HEADER
    426					;CODE M = READING INDEX FILE DATA
    427					;CODE N = READING SUMMARY DATA
    428					;CODE O =WRITING FILE HEADER
    429					;
DSCER	X0032 - DSC ERROR REPOR	MACRO M1110  21-AUG-78 20:31  PAGE 7-4
ERROR  MESSAGES

    430					;
    431								;GENERAL ERROR MESSAGE CODES
    432					;
    433					;
    434					;CODE A = FAILED TO READ STORAGE MAP HEADER
    435					;CODE B = INPUT DATA OUT OF PHASE
    436					;CODE C = NON-DATA BLOCK ENCOUNTERED
    437					;CODE D = INPUT FILE OUT OF PHASE
    438					;CODE E = FILE ATTRIBUTES OUT OF PHASE
    439					;CODE F = FILE HEADER OUT OF PHASE
    440
    441
    442						.LIST	BEX
    443						.SBTTL	I/O ERROR TABLE MACROS
    444
    445					;
    446					; MACRO TO GENERATE I/O ERROR MESSAGE TABLE. IT GENERATES THE MESSAGE
    447					; STRINGS, AND 3 PARALLEL TABLES: THE ERROR CODES, THE STRING LENGTHS,
    448					; AND THE STRING ADDRESSES.
    449					;
    450						.MACRO	IOE	CODE,STRING	; I/O ERROR
    451						.PSECT	$$IOE
    452						.WORD	CODE&377
    453						.PSECT	$$MSG
    454						...MSG=.
    455						.ASCII	"STRING"
    456						...MSE=.
    457						.PSECT	$$IOSL
    458						.WORD	...MSE-...MSG
    459						.PSECT	$$IOS
    460						.WORD	...MSG
    461						.PSECT
    462						.ENDM	IOE
    463
    464						.MACRO	QIOE	CODE,STRING	; DIRECTIVE ERROR
    465						.PSECT	$$IOE
    466						.WORD	CODE
    467						.PSECT	$$MSG
    468						...MSG=.
    469						.ASCII	"STRING"
    470						...MSE=.
    471						.PSECT	$$IOSL
    472						.WORD	...MSE-...MSG
    473						.PSECT	$$IOS
    474						.WORD	...MSG
    475						.PSECT
    476						.ENDM	QIOE
    477
    478
    479					;
    480					; INITIALIZE TABLE ORIGINS
    481					;
    482	000000					.PSECT	$$IOE
    483	000000				$IOE:
    484
    485	000000					.PSECT	$$IOSL
    486	000000				$IOSL:
DSCER	X0032 - DSC ERROR REPOR	MACRO M1110  21-AUG-78 20:31  PAGE 7-5
I/O ERROR TABLE MACROS

    487
    488	000000					.PSECT	$$IOS
    489	000000				$IOS:
DSCER	X0032 - DSC ERROR REPOR	MACRO M1110  21-AUG-78 20:31  PAGE 8
I/O ERROR MESSAGES

    491						.SBTTL	I/O ERROR MESSAGES
    492
    493
    494					;
    495					; THE I/O ERROR MESSAGES
    496					;
    497	000000				IOE	IE.DNR, <DEVICE NOT READY>
    498	001132				IOE	IE.VER, <PARITY ERROR ON DEVICE>
    499	001132				IOE	IE.WLK, <DEVICE WRITE LOCKED>
    500	001132				IOE	IE.DAO, <DATA OVERRUN>
    501	001132				IOE	IE.PRI, <PRIVILEGE VIOLATION>
    502	001132				IOE	IE.BLK, <BAD BLOCK NUMBER>
    503	001132				IOE	IE.BBE, <BAD BLOCK ON DEVICE>
    504	001132				IOE	IE.FHE, <FATAL HARDWARE ERROR>
    505	001132				IOE	IE.EOF, <END OF FILE DETECTED>
    506	001132				IOE	IE.EOT, <END OF TAPE DETECTED>
    507	001132				IOE	IE.EOV, <END OF VOLUME DETECTED>
    508	001132				IOE	IE.OFL, <DEVICE OFF-LINE>
    509	001132				IOE	IE.BCC, <BLOCK CHECK OR CRC ERROR>
    510	001132				QIOE	IE.UPN, <INSUFFICIENT POOL SPACE>
    511	001132				QIOE	IE.HWR, <HANDLER NOT RESIDENT>
    512	001132				QIOE	0, <UNKNOWN SYSTEM ERROR>
    513
    514	000040					.PSECT	$$IOE
    515		000020 			$IOEL = <.-$IOE>/2			; NUMBER OF ENTRIES
    516
    517	001132					.PSECT
DSCER	X0032 - DSC ERROR REPOR	MACRO M1110  21-AUG-78 20:31  PAGE 9
ERROR ACTION ROUTINES

    519						.SBTTL	ERROR ACTION ROUTINES
    520
    521	001132					.PSECT
    522
    523					;
    524					; ACTION ROUTINES FOR THE VARIOUS ERROR CONDITIONS. EACH ACTION
    525					; ROUTINE'S LABEL CORRESPONDS TO THE NAME OF THE ERROR MESSAGE.
    526					; THE ACTION ROUTINE IS CALLED WITH R1 CONTAINING THE MESSAGE CODE
    527					; TIMES 2 AND R5 POINTING TO THE THIRD WORD OF THE PARAMETER
    528					; BLOCK. EACH ACTION ROUTINE FILLS IN THE PARAMETER BLOCK TO
    529					; CORRESPOND TO THE FORMAT STRING.
    530					;
    531
    532	001132				AC.UDE:					; UNDEFINED ERROR
    533	001132				AC.BSY:					; BAD BLOCK SYNTAX
    534	001132				AC.BCT:					; BAD BLOCK COUNT
    535	001132				AC.BRG:					; BAD BLOCKS OUT OF RANGE
    536	001132				AC.SMH:					; ERROR READING STORAGE MAP HEADER
    537	001132				AC.TFI:					; TOO FEW INPUT DISKS
    538	001132				AC.TMI:					; TOO MANY INPUT DISKS
    539	001132					RETURN				; NOOP ACTION
    540
    541	001134				AC.DEV:					; DEVICE NOT IN SYSTEM
    542	001134				AC.F11:					; DEVICE NOT FILES-11
    543	001134					LET R1 := R0
    544	001136				GETDEV:	LET (R5)+ := R1			; DEVICE NAME
    545	001140	005721 				TST (R1)+
    546	001142					LET (R5)+ := (R1)		; AND UNIT NUMBER
    547	001144					RETURN
    548
    549
    550					.IF  DF,R$$11S
    551					AC.ILU:
    552					AC.VEC:
    553					AC.CSR:
    554					AC.TM2:
    555
    556					.ENDC
    557
    558	001146				AC.CDV:					; CONFLICTING DEVICES
    559	001146				AC.MXT:					; MIXED TAPE TYPES
    560	001146				AC.ILS:					; ILLEGAL SWITCH
    561	001146				AC.LAB:					; LABEL TOO LONG
    562	001146				AC.SYN:					; SYNTAX ERROR
    563	001146				AC.DUD:					; DUPLICATE DEVICES
    564	001146				AC.TMD:					; TOO MANY DEVICES
    565	001146					LET R4 := R4 - CML		; LENGTH OF COMMAND PARSED
    566	001152					LET (R5)+ := R4
    567	001154					LET (R5)+ := CML		; ADDRESS OF COMMAND STRING
    568	001160					RETURN
    569
    570	001162				AC.RDY:					; TAPE READY
    571	001162					IF R3 LT #$OVNUM			;IF TAPE I.P.
    572	001170					   LET (R5)+ := $RELNI		; I.P.TAPE REEL NO.
    573	001174					ELSE
    574	001176					   LET (R5)+ := $RELNO		; O.P. TAPE REEL NO.
    575	001202					END
DSCER	X0032 - DSC ERROR REPOR	MACRO M1110  21-AUG-78 20:31  PAGE 9-1
ERROR ACTION ROUTINES

    576
    577	001202				AC.WLK:					; TAPE WRITE LOCKED
    578	001202					LET R1 := R3			; R3 POINTS TO DEVICE NAME
    579	001204					$CALL GETDEV
    580
    581	001210				AC.RSC:					;RESUME COPY MESSAGE
    582	001210				AC.VFY:					; VERIFY PASS MESSAGE
    583	001210					LET $PARAM := #RDPRL		; USE READY MESSAGE PREFIX
    584	001216					LET $PARAM+2 := #RDPRE
    585	001224					IF $ESTAT EQ #-2   ;IF ONLY THIS WARN. MSG. SO FAR
    586	001234					   LET $ESTAT := #-1   ; RESET $ESTAT =SUCCESS
    587	001242					END
    588	001242					RETURN
    589
    590	001244				AC.NDS:					; NOT A DSC TAPE
    591	001244				AC.OBO:					; TAPE NOT AT BOT
    592	001244				AC.TFU:					; TAPE FULL
    593	001244				AC.NLV:					; NOT LAST VOLUME
    594	001244				AC.DNS:					; CAN'T FIND DENSITY
    595	001244				AC.AHM:					; CAN'T ALLOCATE HOME BLOCK
    596	001244				AC.ALF:					; CAN'T ALLOCATE INDEX FILE
    597	001244				AC.NBO:					; VOLUME NOT BOOTABLE
    598	001244				AC.BBD:					; BAD BAD BLOCK DATA
    599	001244				AC.BFU:					; BAD BLOCK FILE FULL
    600	001244				AC.NBD:					; NO BAD BLOCK DATA
    601	001244				AC.DGP:					; DIAGNOSTIC PACK
    602	001244				GETDVO:	LET R1 := $OUDEV		; GET OUTPUT DEVICE NAME
    603	001250					GOTO GETDEV
    604
    605	001252				AC.NFI:					; NOT FIRST REEL
    606	001252				AC.IFM:					; NOT ANSI FORMAT
    607	001252				AC.FSY:					; TAPE WILL BE RESYNCED
    608	001252				AC.NHO:					; NO HOME BLOCK
    609	001252				AC.LEV:					; BAD STRUCTURE LEVEL
    610	001252				AC.BOT:					; TAPE NOT AT BOT
    611	001252				AC.TID:					; NO INDEX FILE DATA
    612	001252				AC.ITP:					; NO SUMMARY DATA
    613	001252				GETDVI:
    614	001252					IF #KY.NIP SET.IN $FLAG1
    615	001262						LET R1 := $OUDEV
    616	001266					ELSE
    617	001270						LET R1 := $INDEV
    618	001274					END
    619	001274					GOTO GETDEV
    620
    621	001276				AC.DEX:					; OUTPUT DEVICE TOO SMALL
    622	001276					$CALL GETDVO			; OUTPUT DEVICE NAME
    623	001302					LET (R5)+ := $B2DAT+S.USE+2	; SPACE NEEDED
    624	001306					LET (R5)+ := $B2DAT+S.USE
    625	001312					RETURN
    626
    627	001314				AC.WRV:					; WRONG INPUT TAPE
    628	001314					IF #KY.NIP SET.IN $FLAG1
    629	001324						$CALL GETDVO
    630	001330					ELSE
    631	001332						$CALL GETDVI			; INPUT DEVICE NAME
    632	001336					END
DSCER	X0032 - DSC ERROR REPOR	MACRO M1110  21-AUG-78 20:31  PAGE 9-2
ERROR ACTION ROUTINES

    633	001336					LET (R5)+ := #22.		; LABEL BYTE COUNT
    634	001342					LET (R5)+ := R0			; EXPECTED LABEL
    635	001344					LET (R5)+ := #22.		; LABEL BYTE COUNT
    636	001350					LET R4 := R4 + #B.SIZ		; POINT TO BUFFER
    637	001354					LET (R5)+ := R4			; LABEL READ
    638	001356					RETURN
    639
    640	001360				AC.FNF:					; TAPE FILE NOT FOUND
    641	001360					IF #KY.NIP SET.IN $FLAG1
    642	001370						LET R0 := #$OLAB
    643	001374					ELSE
    644	001376						LET R0 := #$ILAB		; SCAN INPUT LABEL STRING
    645	001402					END
    646	001402					LET R1 := R0
    647	001404					REPEAT
    648	001404					THRU R2 := #12.
    649	001410					  IFB (R1)+ EQ #40 LEAVE LOOP	; LOOK FOR SPACE
    650	001416					END LOOP
    651	001422					LET R1 := R1 - R0 - #1		; COMPUTE BYTE COUNT
    652	001426					LET (R5)+ := R1
    653	001430					LET (R5)+ := R0			; STORE STRING DESCRIPTOR
    654	001432					IF #KY.NIP SET.IN $FLAG1
    655	001442						GOTO GETDVO
    656	001444					ELSE
    657	001446						GOTO GETDVI
    658	001450					END
    659
    660	001450				AC.IXB:					; ERROR IN INDEX BITMAP
    661	001450				AC.IXH:					; ERROR ON INDEX HEADER
    662	001450				AC.SMB:					; ERROR ON STORAGE MAP
    663	001450				AC.RHO:					; ERROR READING HOME
    664	001450					IF #KY.NIP SET.IN $FLAG1
    665	001460						$CALL GETDVO
    666	001464					ELSE
    667	001466						$CALL GETDVI
    668	001472					END
    669	001472					GOTO GETIOR			; GENERAL I/O MESSAGE
    670
    671	001474				AC.RVN:					; CAN'T FIND RVN
    672	001474					LET (R5)+ := R0			; RVN
    673	001476					RETURN
    674
    675	001500				AC.ESQ:					; EXTENSION SEQUENCE CHECK
    676	001500				AC.ESN:					; EXTENSION SEGMENT CHECK
    677	001500				AC.HCK:					; HEADER CHECKSUM ERROR
    678	001500				AC.DEL:					; FILE IS DELETED
    679	001500				AC.FLV:					; FILE STRUCTURE LEVEL
    680	001500					IF #KY.NIP SET.IN $FLAG1
    681	001510						$CALL GETDVO
    682	001514					ELSE
    683	001516						$CALL GETDVI			; INPUT DEVICE NAME
    684	001522					END
    685	001522					LET (R5)+ := $FNU		; FILE NUMBER
    686	001526					LET (R5)+ := B.SIZ+H.FSEQ(R4)	; FILE SEQUENCE NUMBER
    687	001532					RETURN
    688
    689	001534				AC.FNU:					; FILE NUMBER NOT FOUND
DSCER	X0032 - DSC ERROR REPOR	MACRO M1110  21-AUG-78 20:31  PAGE 9-3
ERROR ACTION ROUTINES

    690	001534				AC.FNO:					; FILE NUMBER CHECK
    691	001534					$CALL AC.DEL			; GET ABOVE DATA
    692	001540					LET -2(R5) := #0		; BUT ZERO SEQUENCE NUMBER
    693	001544					RETURN
    694
    695	001546				AC.FID:					; FID MISMATCH ON TAPE
    696	001546					$CALL GETIFI			; INPUT DEVICE & FID
    697	001552					LET (R5)+ := B.SIZ+P.FID(R4)	; ALSO FOUND FID
    698	001556					LET (R5)+ := B.SIZ+P.FID+2(R4)
    699	001562					LET (R5)+ := B.SIZ+P.FID+4(R4)
    700	001566					RETURN
    701
    702	001570				AC.MPO:					; OUTPUT DATA NOT MAPPED
    703	001570					$CALL GETOFI			; OUTPUT DEVICE & FID
    704	001574					LET (R5)+ := $VBN+2		; AND VBN
    705	001600					LET (R5)+ := $VBN
    706	001604					RETURN
    707	001606				AC.OFN:					; OUTPUT FILE ID NOT MAPPED
    708	001606					$CALL GETDVO			; OUTPUT DEVICE NAME
    709	001612					LET (R5)+ := $FNU		; FILE NUMBER
    710	001616					LET (R5)+ := #0			; ZERO SEQ NUMBER
    711	001620					RETURN
    712
    713	001622				AC.DFU:					; DEVICE FULL
    714	001622				AC.HFU:					; HEADER FULL
    715	001622				GETOFI:	$CALL GETDVO			; OUTPUT DEVICE NAME
    716	001626					GOTO GETFID			; AND FILE ID
    717
    718	001630				AC.PH1:					; ATTRIBUTES OUT OF PHASE
    719	001630				AC.RSY:					; INITIATING RESYNC
    720	001630				AC.NNX:					; NO EXTENSION HEADER
    721	001630				AC.RXD:					; CAN'T READ OUTPUT EX. HEADER
    722	001630				AC.NXT:					; HEADER OUT OF PHASE
    723	001630				GETIFI:
    724	001630					IF #KY.NIP SET.IN $FLAG1
    725	001640						$CALL GETDVO
    726	001644					ELSE
    727	001646						$CALL GETDVI
    728	001652					END
    729	001652				GETFID:	LET (R5)+ := $FID		; FILE ID
    730	001656					LET (R5)+ := $FID+2
    731	001662					LET (R5)+ := $RVN
    732	001666					RETURN
    733
    734	001670				AC.NDA:					; NON DATA BLOCK
    735	001670					$CALL GETIFI			; INPUT DEVICE & FID
    736	001674					LET (R5)+ := $TVBN+2		; EXPECTED TAPE VBN
    737	001700					LET (R5)+ := $TVBN
    738	001704					RETURN
    739
    740	001706				AC.VBN:					; WRONG VBN FOM TAPE
    741	001706					$CALL AC.NDA
    742
    743	001712				GETVBF:	LET (R5)+ := B.SIZ+P.VBN+2(R4)	; GET VBN FROM BUFFER HEADER
    744	001716					LET (R5)+ := B.SIZ+P.VBN(R4)
    745	001722					RETURN
    746
DSCER	X0032 - DSC ERROR REPOR	MACRO M1110  21-AUG-78 20:31  PAGE 9-4
ERROR ACTION ROUTINES

    747	001724				AC.RAT:					; I/O ERROR READING ATTR.
    748	001724				AC.RHT:					; I/O READING HEADER FROM TAPE
    749	001724					$CALL GETIFI			; GET INPUT DEVICE & FID
    750	001730					GOTO GETIOR
    751
    752	001732				AC.WHD:					; I/O ERROR WRITING FILE HEADER
    753	001732					$CALL GETOFI			; OUTPUT DEVICE & FID
    754	001736					GOTO GETIOR
    755
    756	001740				AC.RHD:					; ERROR READING FILE HEADER
    757	001740					$CALL AC.FNU			; ABOVE DATA
    758	001744					GOTO GETIOR			; GENERAL I/O MESSAGE
    759	001746				AC.VER:					; VERIFICATION ERROR
    760	001746					$CALL GETOFI			; GET OUTPUT DEVICE AND FILE ID
    761	001752					GOTO GETVBF			; GET VBN
    762
    763	001754				AC.BDA:					; BAD DATA
    764	001754					$CALL GETIFI			; GET INPUT DEVICE & FID
    765	001760					GOTO GETVBF			; VBN
    766
    767	001762				AC.RDA:					; ERROR READING DATA
    768	001762					$CALL AC.BDA
    769	001766					GOTO GETIOR			; GENERAL I/O MESSAGE
    770
    771	001770				AC.ILB:					; I/O ERROR ON TAPE LABELS
    772	001770				AC.RID:					; I/O ERROR ON INDEX FILE DATA
    773	001770				AC.RSU:					; I/O ERROR ON SUMMARY
    774	001770				AC.IIR:					; I/O ERROR ON INPUT DEVICE
    775	001770					IF #KY.NIP SET.IN $FLAG1
    776	002000						$CALL GETDVO
    777	002004					ELSE
    778	002006						$CALL GETDVI			; INPUT DEVICE NAME
    779	002012					END
    780	002012					GOTO GETIOR
    781
    782	002014				AC.WXB:					; WRITING INDEX FILE BITMAP
    783	002014				AC.RSM:					; READING STORAGE MAP
    784	002014				AC.WSM:					; WRITING STORAGE MAP
    785	002014					$CALL GETDVO			; OUTPUT DEVICE NAME
    786
    787	002020				AC.DIR:					; DIRECTIVE ERROR
    788	002020				GETIOR:					; GENERAL I/O MESSAGE
    789	002020					IFB (R4) GE #0 THEN LET R4 := R0 ; FIND STATUS BLOCK AT FAULT
    790	002026					IFB 1(R4) GE #0 THEN LET 1(R4) :B= #0 ; CLEAN OUT FUNNY STATUS
    791	002040					LET R0 := #$IOE			; POINT TO ERROR CODE TABLE
    792	002044					THRU R1 := #$IOEL
    793	002050					  IF (R4) EQ (R0)+ LEAVE LOOP	; SEARCH THE TABLE
    794	002054					END LOOP			; IF NONE FOUND, USE LAST MESSAGE
    795	002060					LET (R5)+ := $IOSL-$IOE-2(R0)	; MESSAGE BYTE COUNT
    796	002064					LET (R5)+ := $IOS-$IOE-2(R0)	; MESSAGE ADDRESS
    797	002070					RETURN
    798
    799
    800						.SBTTL CREATE MSG. IMAGE ROUTINE
    801
    802					;
    803	002072				MV.UDE:
DSCER	X0032 - DSC ERROR REPOR	MACRO M1110  21-AUG-78 20:31  PAGE 9-5
CREATE MSG. IMAGE ROUTINE

    804	002072				MV.DEV:
    805	002072				MV.F11:
    806	002072				MV.BSY:
    807	002072				MV.BCT:
    808	002072				MV.BRG:
    809	002072				MV.OBO:
    810	002072				MV.TFU:
    811	002072				MV.NLV:
    812	002072				MV.IFM:
    813	002072				MV.NDS:
    814	002072				MV.NFI:
    815	002072				MV.LEV:
    816	002072				MV.RVN:
    817	002072				MV.TMI:
    818	002072				MV.TFI:
    819	002072				MV.FNU:
    820	002072				MV.DEL:
    821	002072				MV.FLV:
    822	002072				MV.FNO:
    823	002072				MV.HCK:
    824	002072				MV.ESQ:
    825	002072				MV.ESN:
    826	002072				MV.VFY:
    827	002072				MV.RSC:
    828	002072				MV.SMH:
    829	002072				MV.FSY:
    830	002072				MV.NBO:
    831	002072				MV.DGP:
    832	002072				MV.DEX:
    833	002072				MV.BOT:
    834	002072				MV.WRV:
    835	002072					LET (R5)+ :B= #'%
    836	002076					LET (R5)+ :B= #'N
    837	002102					LET (R5) :B= #0
    838	002104					RETURN
    839	002106				MV.VER:
    840	002106				MV.OFN:
    841	002106				MV.MPO:
    842	002106					LET R3 := #FORM2 + #3
    843	002116					THRU R4 := #7
    844	002122						LET (R5)+ :B= (R3)+
    845	002124					END LOOP
    846	002130					LET (R5) :B= #0
    847	002132					RETURN
    848	002134				MV.DFU:
    849	002134				MV.HFU:
    850	002134				MV.RXD:
    851	002134				MV.RSY:
    852	002134				MV.NNX:
    853	002134				MV.NXT:
    854	002134				MV.PH1:
    855	002134					LET R3 := #FORM2
    856	002140					THRU R4 := #10.
    857	002144						LET (R5)+ :B= (R3)+
    858	002146					END LOOP
    859	002152					LET (R5) :B= #0
    860	002154					RETURN
DSCER	X0032 - DSC ERROR REPOR	MACRO M1110  21-AUG-78 20:31  PAGE 9-6
CREATE MSG. IMAGE ROUTINE

    861	002156				MV.RAT:
    862	002156				MV.RHT:
    863	002156				MV.WHD:
    864	002156					LET R3 :=  #FORM2
    865	002162					THRU R4 := #16.
    866	002166						LET (R5)+ :B= (R3)+
    867	002170					END LOOP
    868	002174					RETURN
    869	002176				MV.RDY:
    870	002176				MV.WLK:
    871	002176				MV.DIR:
    872	002176				MV.RDA:
    873	002176				MV.BDA:
    874	002176				MV.VBN:
    875	002176				MV.NDA:
    876	002176				MV.FID:
    877	002176					LET (R5) :B= #0
    878	002200					RETURN
    879	002202				MV.CDV:
    880	002202				MV.MXT:
    881	002202				MV.ILS:
    882	002202				MV.LAB:
    883	002202				MV.SYN:
    884	002202				MV.DUD:
    885	002202				MV.TMD:
    886	002202				MV.ILU:
    887	002202				MV.VEC:
    888	002202				MV.CSR:
    889	002202				MV.TM2:
    890	002202					LET R3 := #FORM2 + #10
    891	002212					THRU R4 := #8.
    892	002216						LET (R5)+ :B= (R3)+
    893	002220					END LOOP
    894	002224					RETURN
    895
    896	002226				MV.NHO:
    897	002226				MV.AHM:
    898	002226				MV.ALF:
    899	002226				MV.DNS:
    900	002226				MV.BBD:
    901	002226				MV.BFU:
    902	002226				MV.NBD:
    903	002226				MV.FNF:
    904	002226				MV.TID:
    905	002226				MV.ITP:
    906	002226					LET R3 := #FORM1
    907	002232					THRU R4 := #6
    908	002236						LET (R5)+ :B= (R3)+
    909	002240					END LOOP
    910	002244					LET (R5)+ :B= #'%
    911	002250					LET (R5)+ :B= #'N
    912	002254					LET (R5) :B= #0
    913	002256					RETURN
    914	002260				MV.RHD:
    915	002260					LET R3 := #FORM2 + #3
    916	002270					THRU R4 := #13.
    917	002274						LET (R5)+ :B= (R3)+
DSCER	X0032 - DSC ERROR REPOR	MACRO M1110  21-AUG-78 20:31  PAGE 9-7
CREATE MSG. IMAGE ROUTINE

    918	002276					END LOOP
    919	002302					RETURN
    920	002304				MV.IXB:
    921	002304				MV.IXH:
    922	002304				MV.RHO:
    923	002304				MV.SMB:
    924	002304				MV.IIR:
    925	002304				MV.WXB:
    926	002304				MV.RSM:
    927	002304				MV.WSM:
    928	002304				MV.ILB:
    929	002304				MV.RID:
    930	002304				MV.RSU:
    931	002304					LET R3 := #STDMSG + #10.
    932	002314					LET (R3) :B= -(R5)
    933	002316					LET R3 := #STDMSG
    934	002322					THRU R4 := #15.
    935	002326						LET (R5)+ :B= (R3)+
    936	002330					END LOOP
    937	002334					LET R3 := #FORM1
    938	002340					THRU R4 := #6
    939	002344						LET (R5)+ :B= (R3)+
    940	002346					END LOOP
    941	002352					$CALL MV.CDV
    942	002356					RETURN
    943
    944		000001 			.END
DSCER	X0032 - DSC ERROR REPOR	MACRO M1110  21-AUG-78 20:31  PAGE 9-8
SYMBOL TABLE

AC.AHM  001244R  	AC.RHT  001724R  	ER.DNS= 000023 G 	ER.TFM= 000020 G 	H.MPOF= 000001
AC.ALF  001244R  	AC.RID  001770R  	ER.DUD= 000006 G 	ER.TFO= 000035 G 	H.PRIV= 000073
AC.BBD  001244R  	AC.RSC  001210R  	ER.ESN= 000045 G 	ER.TFU= 000016 G 	H.PROG= 000074
AC.BCT  001132R  	AC.RSM  002014R  	ER.ESQ= 000044 G 	ER.TID= 000116 G 	H.PROJ= 000076
AC.BDA  001754R  	AC.RSU  001770R  	ER.FID= 000076 G 	ER.TMD= 000007 G 	H.RPRO= 000102
AC.BFU  001244R  	AC.RSY  001630R  	ER.FLV= 000041 G 	ER.TMI= 000034 G 	H.RSOF= 000003
AC.BOT  001252R  	AC.RVN  001474R  	ER.FNF= 000112 G 	ER.TMO= 000034 G 	H.SCHA= 000065
AC.BRG  001132R  	AC.RXD  001630R  	ER.FNO= 000042 G 	ER.UDE= 000000 G 	H.SEMK= 000104
AC.BSY  001132R  	AC.SMB  001450R  	ER.FNU= 000037 G 	ER.VBN= 000074 G 	H.SMMX= 000110
AC.CDV  001146R  	AC.SMH  001132R  	ER.FSY= 000057 G 	ER.VER= 000051 G 	H.UCHA= 000064
AC.DEL  001500R  	AC.SYN  001146R  	ER.F11= 000011 G 	ER.VFY= 000054 G 	H.UFAT= 000024
AC.DEV  001134R  	AC.TFI  001132R  	ER.HCK= 000043 G 	ER.WHD= 000121 G 	H.USE = 000072
AC.DEX  001276R  	AC.TFU  001244R  	ER.HFU= 000061 G 	ER.WLK= 000056 G 	IE.BBE= ****** GX
AC.DFU  001622R  	AC.TID  001252R  	ER.IFM= 000020 G 	ER.WRV= 000105 G 	IE.BCC= ****** GX
AC.DGP  001244R  	AC.TMD  001146R  	ER.IIR= 000047 G 	ER.WSM= 000102 G 	IE.BLK= ****** GX
AC.DIR  002020R  	AC.TMI  001132R  	ER.ILB= 000103 G 	ER.WXB= 000063 G 	IE.DAO= ****** GX
AC.DNS  001244R  	AC.UDE  001132R  	ER.ILS= 000003 G 	E0      000762R  	IE.DNR= ****** GX
AC.DUD  001146R  	AC.VBN  001706R  	ER.IOR= 000047 G 	E10     002244R  	IE.EOF= ****** GX
AC.ESN  001500R  	AC.VER  001746R  	ER.ITP= 000120 G 	E11     002302R  	IE.EOT= ****** GX
AC.ESQ  001500R  	AC.VFY  001210R  	ER.IXB= 000026 G 	E12     002334R  	IE.EOV= ****** GX
AC.FID  001546R  	AC.WHD  001732R  	ER.IXH= 000027 G 	E13     002352R  	IE.FHE= ****** GX
AC.FLV  001500R  	AC.WLK  001202R  	ER.IXO= 000027 G 	E2      001422R  	IE.HWR= ****** GX
AC.FNF  001360R  	AC.WRV  001314R  	ER.LAB= 000004 G 	E3      002060R  	IE.OFL= ****** GX
AC.FNO  001534R  	AC.WSM  002014R  	ER.LEV= 000025 G 	E4      002130R  	IE.PRI= ****** GX
AC.FNU  001534R  	AC.WXB  002014R  	ER.MPO= 000077 G 	E5      002152R  	IE.UPN= ****** GX
AC.FSY  001252R  	A3    = 000004   	ER.MXT= 000002 G 	E6      002174R  	IE.VER= ****** GX
AC.F11  001134R  	B.SIZ = ****** GX	ER.NBD= 000072 G 	E7      002224R  	IE.WLK= ****** GX
AC.HCK  001500R  	B0      000752R  	ER.NBO= 000067 G 	FATAL   000527R  	IIII  = 000000
AC.HFU  001622R  	B1      001404R  	ER.NDA= 000075 G 	FATLL = 000017   	IO.WVB= ****** GX
AC.IFM  001252R  	B10     002236R  	ER.NDS= 000021 G 	FORM1   000462R  	I.BKDT= 000052
AC.IIR  001770R  	B11     002274R  	ER.NFI= 000022 G 	FORM2   000470R  	I.CRDT= 000022
AC.ILB  001770R  	B12     002326R  	ER.NFV= 000022 G 	FP.DEL= 000010   	I.EXDT= 000042
AC.ILS  001146R  	B13     002344R  	ER.NHO= 000024 G 	FP.EXE= 000004   	I.FNAM= 000000
AC.ITP  001252R  	B2      001410R  	ER.NLV= 000017 G 	FP.RDV= 000001   	I.RVDT= 000032
AC.IXB  001450R  	B3      002050R  	ER.NNX= 000113 G 	FP.WRV= 000002   	I.RVNO= 000020
AC.IXH  001450R  	B4      002122R  	ER.NXT= 000114 G 	GETDEV  001136R  	I.ULAB= 000062
AC.LAB  001146R  	B5      002144R  	ER.OBO= 000015 G 	GETDVI  001252R  	KY.NIP= ****** GX
AC.LEV  001252R  	B6      002166R  	ER.OFN= 000062 G 	GETDVO  001244R  	LBLS0 = 000001
AC.MPO  001570R  	B7      002216R  	ER.PH1= 000106 G 	GETFID  001652R  	LBLS1 = 000013
AC.MXT  001146R  	CML   = ****** GX	ER.RAT= 000107 G 	GETIFI  001630R  	LBLS2 = 000033
AC.NBD  001244R  	COMMSG  000342R  	ER.RDA= 000050 G 	GETIOR  002020R  	L0      000650R
AC.NBO  001244R  	ER.AHM= 000065 G 	ER.RDO= 000050 G 	GETOFI  001622R  	L1      000712R
AC.NDA  001670R  	ER.ALF= 000066 G 	ER.RDY= 000053 G 	GETVBF  001712R  	L10     001242R
AC.NDS  001244R  	ER.BBD= 000070 G 	ER.RHD= 000036 G 	H.ACOF= 000002   	L11     001270R
AC.NFI  001252R  	ER.BCT= 000013 G 	ER.RHO= 000032 G 	H.CKSM= 000776   	L12     001274R
AC.NHO  001252R  	ER.BDA= 000052 G 	ER.RHT= 000110 G 	H.EFNU= 000016   	L13     001332R
AC.NLV  001244R  	ER.BFU= 000071 G 	ER.RID= 000115 G 	H.EFSQ= 000020   	L14     001336R
AC.NNX  001630R  	ER.BOT= 000104 G 	ER.RSC= 000055 G 	H.ERVN= 000022   	L15     001376R
AC.NXT  001630R  	ER.BRG= 000014 G 	ER.RSM= 000101 G 	H.FCHA= 000064   	L16     001402R
AC.OBO  001244R  	ER.BSY= 000012 G 	ER.RSU= 000117 G 	H.FLEV= 000006   	L17     001446R
AC.OFN  001606R  	ER.CDV= 000001 G 	ER.RSY= 000111 G 	H.FNUM= 000010   	L2      000712R
AC.PH1  001630R  	ER.DEL= 000040 G 	ER.RVN= 000033 G 	H.FOWN= 000074   	L20     001450R
AC.RAT  001724R  	ER.DEV= 000010 G 	ER.RXD= 000064 G 	H.FPRO= 000100   	L21     001466R
AC.RDA  001762R  	ER.DEX= 000100 G 	ER.SMB= 000031 G 	H.FRVN= 000014   	L22     001472R
AC.RDY  001162R  	ER.DFU= 000060 G 	ER.SMH= 000030 G 	H.FSEG= 000004   	L23     001516R
AC.RHD  001740R  	ER.DGP= 000073 G 	ER.SYN= 000005 G 	H.FSEQ= 000012   	L24     001522R
AC.RHO  001450R  	ER.DIR= 000046 G 	ER.TFI= 000035 G 	H.IDOF= 000000   	L25     001646R
DSCER	X0032 - DSC ERROR REPOR	MACRO M1110  21-AUG-78 20:31  PAGE 9-9
SYMBOL TABLE

L26     001652R  	MV.FNU  002072R  	MV.RID  002304R  	S.IDHD= 000202   	$K$T  = 000006
L27     002006R  	MV.FSY  002072R  	MV.RSC  002072R  	S.MPHD= 000000   	$L    = 000014
L3      000742R  	MV.F11  002072R  	MV.RSM  002304R  	S.USE = ****** GX	$L$   = 000000
L30     002012R  	MV.HCK  002072R  	MV.RSU  002304R  	TAG1    000730R  	$MBUF   000032R
L31     002026R  	MV.HFU  002134R  	MV.RSY  002134R  	TTEFN = ****** GX	$MSG    000000R     002
L32     002040R  	MV.IFM  002072R  	MV.RVN  002072R  	TTYLUN= ****** GX	$MSV    000000R     003
L4      000762R  	MV.IIR  002304R  	MV.RXD  002134R  	TYPS0 = 000005   	$OLAB = ****** GX
L5      001126R  	MV.ILB  002304R  	MV.SMB  002304R  	TYPS1 = 000006   	$OUDEV= ****** GX
L6      001176R  	MV.ILS  002202R  	MV.SMH  002072R  	TYPS2 = 000000   	$OVNUM= ****** GX
L7      001202R  	MV.ILU  002202R  	MV.SYN  002202R  	UC.CON= 000200   	$O$   = 000000
MAXCOD= 000242   	MV.ITP  002226R  	MV.TFI  002072R  	UC.DLK= 000100   	$PARAM  000002R
MV.AHM  002226R  	MV.IXB  002304R  	MV.TFU  002072R  	WARN    000546R  	$R    = 177777
MV.ALF  002226R  	MV.IXH  002304R  	MV.TID  002226R  	WARNL = 000021   	$RELNI= ****** GX
MV.BBD  002226R  	MV.LAB  002202R  	MV.TMD  002202R  	$ACT    000000R     004	$RELNO= ****** GX
MV.BCT  002072R  	MV.LEV  002072R  	MV.TMI  002072R  	$B2DAT= ****** GX	$RVN  = ****** GX
MV.BDA  002176R  	MV.MPO  002106R  	MV.TM2  002202R  	$CODE   000000R  	$SAVAL= ****** GX
MV.BFU  002226R  	MV.MXT  002202R  	MV.UDE  002072R  	$DIDDO= 000000   	$STAK = ****** GX
MV.BOT  002072R  	MV.NBD  002226R  	MV.VBN  002176R  	$DSC  = ****** GX	$SUPMC= 000043
MV.BRG  002072R  	MV.NBO  002072R  	MV.VEC  002202R  	$DSCER  000576RG 	$T    = 000033
MV.BSY  002072R  	MV.NDA  002176R  	MV.VER  002106R  	$EDMSG= ****** GX	$TVBN = ****** GX
MV.CDV  002202R  	MV.NDS  002072R  	MV.VFY  002072R  	$EF$  = 000000   	$T1   = 000006
MV.CSR  002202R  	MV.NFI  002072R  	MV.WHD  002156R  	$ESTAT= ****** GX	$T2   = 000013
MV.DEL  002072R  	MV.NHO  002226R  	MV.WLK  002176R  	$E$   = 000001   	$VBN  = ****** GX
MV.DEV  002072R  	MV.NLV  002072R  	MV.WRV  002072R  	$FID  = ****** GX	$XXX$ = 000001
MV.DEX  002072R  	MV.NNX  002134R  	MV.WSM  002304R  	$FLAG1= ****** GX	$Y$   = 000000
MV.DFU  002134R  	MV.NXT  002134R  	MV.WXB  002304R  	$FNU  = ****** GX	$Z$   = 000000
MV.DGP  002072R  	MV.OBO  002072R  	P.FID = ****** GX	$ILAB = ****** GX	$$CODE= 000122
MV.DIR  002176R  	MV.OFN  002106R  	P.VBN = ****** GX	$INDEV= ****** GX	$$T   = 000032
MV.DNS  002226R  	MV.PH1  002134R  	RDPRE   000567R  	$IOE    000000R     006	$$TT  = 000033
MV.DUD  002202R  	MV.RAT  002156R  	RDPRL = 000007   	$IOEL = 000020   	$$$ARG= 000002
MV.ESN  002072R  	MV.RDA  002176R  	SC.BAD= 000100   	$IOS    000000R     010	.$T   = 000003
MV.ESQ  002072R  	MV.RDY  002176R  	SC.DIR= 000040   	$IOSL   000000R     007	...GBL= 000000
MV.FID  002176R  	MV.RHD  002260R  	SC.MDL= 000200   	$I$   = 000001   	...MSE= 007006R     005
MV.FLV  002072R  	MV.RHO  002304R  	STDMSG  000510R  	$K$   = 000003   	...MSG= 006762R     005
MV.FNF  002226R  	MV.RHT  002156R  	S.HDHD= 000114   	$K$L  = 000003   	...TPC= 000000
MV.FNO  002072R

. ABS.	000000	   000
      	002360	   001
$$MST 	000244	   002
$$MSV 	000244	   003
$$ACT 	000244	   004
$$MSG 	007006	   005
$$IOE 	000040	   006
$$IOSL	000040	   007
$$IOS 	000040	   010
ERRORS DETECTED:  0

VIRTUAL MEMORY USED:  15079 WORDS  ( 59 PAGES)
DYNAMIC MEMORY:  16500 WORDS  ( 63 PAGES)
ELAPSED TIME:  00:05:16
EXE$:DSCER,LIS$:DSCER/-SP=SRC$:SMAC/PA:1,DSCPRE,DSCER
