TINO	X0014 - INITIALIZE TAPE	MACRO M1110  21-AUG-78 21:12  PAGE 3


      1	000000					$BEGIN	TINO,0014,<INITIALIZE TAPE FOR OUTPUT>
						.TITLE	TINO	X0014 - INITIALIZE TAPE FOR OUTPUT
						.IDENT	"X0014"
      2
      3					;
      4					; COPYRIGHT (C) 1976 BY DIGITAL EQUIPMENT CORPORATION,
      5					; MAYNARD, MASSACHUSETTS
      6					;
      7					; THIS SOFTWARE IS FURNISHED UNDER A LICENSE FOR USE ONLY ON A
      8					; SINGLE  COMPUTER  SYSTEM AND MAY BE COPIED ONLY WITH THE IN-
      9					; CLUSION OF THE ABOVE COPYRIGHT NOTICE.   THIS  SOFTWARE,  OR
     10					; ANY  OTHER  COPIES THEREOF, MAY NOT BE PROVIDED OR OTHERWISE
     11					; MADE AVAILABLE TO ANY OTHER PERSON EXCEPT FOR  USE  ON  SUCH
     12					; SYSTEM  AND TO ONE WHO AGREES TO THESE LICENSE TERMS.  TITLE
     13					; TO AND OWNERSHIP OF THE SOFTWARE SHALL AT ALL  TIMES  REMAIN
     14					; IN DIGITAL.
     15					;
     16					; THE INFORMATION IN THIS SOFTWARE IS SUBJECT TO CHANGE  WITH-
     17					; OUT  NOTICE  AND  SHOULD NOT BE CONSTRUED AS A COMMITMENT BY
     18					; DIGITAL EQUIPMENT CORPORATION.
     19					;
     20					; DIGITAL EQUIPMENT CORPORATION ASSUMES NO RESPONSIBILITY  FOR
     21					; THE USE OR RELIABILITY OF ITS SOFTWARE ON EQUIPMENT WHICH IS
     22					; NOT SUPPLIED BY DIGITAL.
     23					;
     24					; ANDREW C. GOLDSTEIN  27-AUG-76  20:05
     25					;ALTERED DEC.22,1976 BY G.RITTENBURG
     26
     27
     28						.MCALL  QIOW$C
     29
     30
TINO	X0014 - INITIALIZE TAPE	MACRO M1110  21-AUG-78 21:12  PAGE 4


     32
     33					;
     34					; MAGTAPE CHARACTERISTICS BITS
     35					;
     36		004000 			CH.160 = 4000			; 1600 BPI DENSITY
     37
     38					;
     39					; PROTOTYPE HDR1 TAPE FILE HEADER LABEL
     40					;
     41
     42	000000	   110 	   104 	   122 	HDR1:	.ASCII	"HDR1                       0001000100010"
	000003	   061 	   040 	   040
	000006	   040 	   040 	   040
	000011	   040 	   040 	   040
	000014	   040 	   040 	   040
	000017	   040 	   040 	   040
	000022	   040 	   040 	   040
	000025	   040 	   040 	   040
	000030	   040 	   040 	   040
	000033	   060 	   060 	   060
	000036	   061 	   060 	   060
	000041	   060 	   061 	   060
	000044	   060 	   060 	   061
	000047	   060
     43	000050	   060 	   040 	   060 		.ASCII	"0 00000 00000 000000DECFILE11A          "
	000053	   060 	   060 	   060
	000056	   060 	   040 	   060
	000061	   060 	   060 	   060
	000064	   060 	   040 	   060
	000067	   060 	   060 	   060
	000072	   060 	   060 	   104
	000075	   105 	   103 	   106
	000100	   111 	   114 	   105
	000103	   061 	   061 	   101
	000106	   040 	   040 	   040
	000111	   040 	   040 	   040
	000114	   040 	   040 	   040
	000117	   040
     44
     45	000120	   110 	   104 	   122 	HDR2:	.ASCII	"HDR2U0206402064"	; BEGINNING OF HDR2
	000123	   062 	   125 	   060
	000126	   062 	   060 	   066
	000131	   064 	   060 	   062
	000134	   060 	   066 	   064
     46
     47	000137	   104 	   045 	   102 	DECID:	.ASCII	"D%B1111001001"		; VOLUME ID FOR DEC MAGTAPES
	000142	   061 	   061 	   061
	000145	   061 	   060 	   060
	000150	   061 	   060 	   060
	000153	   061
     48
     49						.EVEN
TINO	X0014 - INITIALIZE TAPE	MACRO M1110  21-AUG-78 21:12  PAGE 5


     51					;+
     52					;
     53					; *** - $TINO	INITIALIZE OUTPUT TAPE
     54					;
     55					; THIS ROUTINE DOES THE NECESSARY INITIALIZATION OF THE OUTPUT TAPE
     56					; AND WRITES OUT HEADER LABELS AS NECESSARY.
     57					;
     58					; INPUTS:
     59					;
     60					;	OUTLUN ASSIGNED TO DESIRED TAPE UNIT
     61					;	VOLUME SUMMARY BLOCK IN $BUF2
     62					;
     63					; OUTPUTS:
     64					;
     65					;	LABELS WRITTEN TO TAPE
     66					;	TAPE DENSITY SET CORRECTLY
     67					;
     68					;-
     69
     70	000154				$TINO::	LET $FLAG1 := $FLAG1 SET.BY #KY.NIP
     71	000162					LET $RELNO := #1		; INIT O.P. REEL NUMBER TO 1
     72	000170					$CALL $OTRDY			; VERIFY THAT TAPE IS READY FOR OUTPUT
     73	000174					PUSH R0				; SAVE BOT INDICATION
     74	000176					LET R2 := #0			; RETRY COUNTER
     75	000200					REPEAT				; RETRY UNTIL TAPE IS SET UP
     76	000200					  $CALL $BUFCK <,,,,#$OVHD>	; GET VOLUME HEADER BUFFER
     77	000210					  IF #KY.RWD SET.IN $OFLAG	; SEE IF REWIND REQUESTED
     78	000220					    $CALL $RWND  <,#OUTLUN,,,#$OVHD>	; REWIND THE TAPE
     79	000234					    $CALL $OUTCK <,,,,R4>		; CHECK FOR ERRORS
     80	000240					    LET (SP) := #0		; SET BOT FLAG
     81	000242					  ELSE				; IF NO REWIND AND TAPE IS
     82						    				; NOT AT BOT, FORCE APPEND
     83	000244					    IF (SP) NE #0 THEN LET $OFLAG := $OFLAG SET.BY #KY.APD
     84	000256					  END
     85						  				; IF NO APPEND, TAPE IS AT BOT AND READY
     86	000256					  IF #KY.APD OFF.IN $OFLAG
     87	000266						LET $OFLAG := $OFLAG SET.BY #KY.RWD
     88	000274						LEAVE LOOP
     89	000276					  END
     90	000276					  BEGIN SPACE			; NOW ATTEMPT TO SPACE TO EOV
     91	000276					    LET $FLAG1 := $FLAG1 SET.BY #KY.BSP
     92	000304					    IF (SP) EQ #0		; IF AT BOT (AND APPEND)
     93	000310					      IF R2 EQ #0		; ON FIRST TRY
     94	000314						$CALL $STO08		; SET 800 BPI
     95	000320					      ELSE
     96	000322						$CALL $STO16		; SET DENSITY TO 1600 BPI
     97	000326					      END
     98	000326					      $CALL $RDWLN <#OUTLUN,,,,#$OVHD> ; READ THE VOLUME HEADER LABEL
     99	000342					      ON.ERROR
    100	000344						LET R2 := R2 + #1	; BUMP RETRY COUNT
    101	000346						LEAVE SPACE		; RETRY FROM THE TOP
    102	000350					      END
    103	000350					      IF R1 NE #80. OR (R5) NE #"VO OR 2(R5) NE #"L1
    104	000374						ERROR ER.TFM		; NOT ANSI TAPE
    105	000376					      END
    106										; VOL LABEL MUST BE LIKE "XXXX01"
    107	000376					      IF 8.(R5) NE #"01 THEN ERROR ER.NDS
TINO	X0014 - INITIALIZE TAPE	MACRO M1110  21-AUG-78 21:12  PAGE 5-1


    108	000410					      LET R4 := #$OF1HD		; USE NEXT STATUS BLOCK
    109	000414						$CALL $SPACB  <,#OUTLUN,,,#$OF1HD,#1>
    110	000434					      $CALL $OUTCK <,,,,R4>
    111	000440					      IFB (R4) LT #0 THEN ERROR ER.IOR
    112	000446					      IFB 10.(R5) EQ #'A	; IF ALTERNATE DENSITY
    113	000456						$CALL $STO16		; SET IT
    114	000462					      END
    115	000462					    END
    116					;
    117					; NOW SPACE TO THE END OF THE TAPE
    118					;
    119	000462					    LET R4 := #$OF1HD		; USE NEXT STATUS BLOCK
    120	000466					    $CALL  $SPACF  <,#OUTLUN,,,#$OF1HD,#32767>
    121	000506					    ON.ERROR THEN ERROR ER.DIR
    122	000512					    LET (SP) := #1		; TAPE IS NO LONGER AT BOT
    123	000516					    IFB (R4) EQ #IE.EOV LEAVE LOOP ; THIS IS DESIRED RESULT
    124	000524					    IFB (R4) EQ #IE.BBE LEAVE SPACE ; IF DENSITY IS WRONG
    125	000532					    IFB (R4) EQ #IE.EOT THEN ERROR ER.TFU ; TAPE FULL IF EOT
    126	000542					    ERROR ER.IOR		; ANYTHING ELSE IS AN ERROR
    127	000544					  END SPACE
    128	000544					  IF R2 HI #1 THEN ERROR ER.IOR	; TWO TRIES IS ALL YOU GET
    129	000554					  LET $OFLAG := $OFLAG SET.BY #KY.RWD ; FORCE REWIND
    130	000562					  LET $OVHD+B.STAT := #0	; INVALIDATE VOL HEADER BUFFER
    131	000566					END LOOP			; TAPE IS NOW SUITABLY POSITIONED
    132					;
    133					; SET INTERNAL DENSITY FLAG ACCORDING TO PRESENT TAPE CHARACTERISTICS.
    134					;
    135	000570					LET R4 := #$OF1HD		; USE NEXT STATUS BLOCK
    136	000574					IF (SP) NE #0			; IF NOT AT BOT
    137	000600					  QIOW$C IO.SEC,OUTLUN,EFN,,$OF1HD ; GET TAPE CHARACTERISTICS
    138	000606					  $CALL $OUTCK <,,,,R4>
    139	000612					  IF #CH.160 SET.IN 2(R4)	; NOTE TAPE DENSITY
    140	000622					    LET $OFLAG := $OFLAG SET.BY #KY.160	; AND SAVE
    141	000630					  ELSE				; FOR FUTURE USE
    142	000632					    LET $OFLAG := $OFLAG OFF.BY #KY.160
    143	000640					  END
    144					;
    145					; READ THE FILE TRAILER LABEL OF THE PRECEDING FILE IF THERE IS ONE.
    146					;
    147	000640					  $CALL  $SPACF  <,#OUTLUN,,,#$OF1HD,#-1>  ; SPACE BACK OVER EOF
    148	000660					  $CALL $OUTCK <,,,,R4>
    149	000664					   $CALL $SPACB  <,#OUTLUN,,,#$OF1HD,#-2>  ; SPACE BACK OVER LABELS
    150	000704					  $CALL $OUTCK <,,,,R4>
    151	000710					  $CALL $RDWLN <#OUTLUN,,,,R4>	; READ EOF1
    152	000720					  ON.ERROR THEN ERROR  ER.IOR	;CORRECTED 12,20,76
    153	000724					  IF R1 NE #80. OR (R5) NE #"EO OR 2(R5) NE #"F1
    154						    				; IF WE READ "EOV1" THIS IS NOT
    155						    				; THE LAST REEL IN THE SET
    156	000750					    IF 2(R5) EQ #"V1 THEN ERROR ER.NLV
    157	000762					    ERROR ER.TFM		; ELSE BAD TAPE FORMAT
    158	000764					  END
    159	000764					  LET R0 := R5 + #27.		; POINT TO FILE SECTION NUMBER
    160	000772					  IFB (R0)+ NE #'0 ORB (R0)+ NE #'0 ORB (R0)+ NE #'0 ORB (R0)+ NE #'1
    161	001022					    ERROR ER.NFV		; CAN APPEND ONLY TO FIRST REEL
    162	001024					  END
    163	001024					  $CALL $RDWLN <#OUTLUN,,,,#$OF2HD> ; READ HDR2
    164	001040					  ON.ERROR THEN ERROR ER.IOR
TINO	X0014 - INITIALIZE TAPE	MACRO M1110  21-AUG-78 21:12  PAGE 5-2


    165	001044					  IF R1 NE #80. OR (R5) NE #"EO OR 2(R5) NE #"F2
    166	001070					    ERROR ER.TFM		; NON-ANSI FORMAT
    167	001072					  END
    168	001072					  LET R5 := R5 + #4		; POINT TO REST OF LABEL
    169	001076					  LET R0 := #HDR2+4		; POINT TO EXPECTED DATA
    170	001102					  THRU R1 := #11.		; COMPARE FOR CORRECT RECORD
    171	001106					    IFB (R0)+ NE (R5)+ THEN ERROR ER.NDS ; FORMAT, SIZE, AND
    172	001114					  END LOOP			; BLOCK SIZE
    173	001120					  $CALL $WEOF <,,,,R4>		; WRITE NEW EOF TO AVOID "CRAP IN THE GAP"
    174	001124					END
    175					;
    176					; IF WE HAVEN'T READ A VOLUME HEADER LABEL, CONSTRUCT ONE.
    177					; IF WE ARE AT BOT, THEN THIS LABEL WILL BE WRITTEN TO THE TAPE.
    178					; IF WE ARE NOT AT BOT, THEN WE NEVER READ THE VOLUME'S REAL LABEL
    179					; AND ARE CONSTRUCTING A (HOPEFULLY) LIFELIKE FACSIMILE FOR USE
    180					; IF THE FILE OVERFLOWS ONTO OTHER TAPES.
    181					;
    182	001124					LET R4 := #$OVHD		; POINT TO VOL HEADER BUFFER
    183	001130					IF B.STAT(R4) EQ #0
    184	001136					  LET R0 := #$OVBF
    185	001142					  LET (R0)+ := #"VO		; PUT IN "VOL1"
    186	001146					  LET (R0)+ := #"L1
    187	001152					  IF (SP) NE #0			; IF NOT AT BOT
    188	001156					    LET R1 := #$OF1BF+21.	; POINT TO FILE SET ID
    189	001162					    THRU R2 := #6		; FOR USE AS VOLUME LABEL
    190	001166					      LET (R0)+ :B= (R1)+
    191	001170					    END LOOP
    192	001174					  ELSE
    193	001176					    LET R1 := #$B2DAT+S.NAME	; VOL LABEL = FIRST 4 CHARACTERS
    194	001202					    THRU R2 := #4		; OF FILE NAME, WITH BLANKS
    195	001206					      LET (R0) :B= (R1)+	; REPLACED WITH "X"
    196	001210					      IFB (R0) EQ #40 THEN LET (R0) :B= #'X
    197	001222					      LET R0 := R0 + #1
    198	001224					    END LOOP
    199	001230					    LET (R0)+ := #"01		; FOLLOWED BY 01 REEL NUMBER
    200	001234					  END
    201	001234					  IF #KY.160 SET.IN $OFLAG AND #KY.16B OFF.IN $OFLAG
    202	001254					    LET (R0)+ :B= #'A		; SET ALTERNATE DENSITY INDICATOR
    203	001260					  ELSE
    204	001262					    LET (R0)+ :B= #40		; OR NORMAL INDICATION
    205	001266					  END
    206	001266					  THRU R1 := #26.
    207	001272					    LET (R0)+ :B= #40		; FILL WITH BLANKS
    208	001276					  END LOOP
    209	001302					  LET R1 := #DECID		; POINT TO STANDARD DEC IDENTIFIER
    210	001306					  THRU R2 := #13.		; AND COPY IT IN. INDICATES
    211	001312					    LET (R0)+ :B= (R1)+		; READ ONLY FOR ALL AND OWNED
    212	001314					  END LOOP			; BY [1,1]
    213	001320					  THRU R1 := #29.
    214	001324					    LET (R0)+ :B= #40		; FILL WITH BLANKS
    215	001330					  END LOOP
    216	001334					  LET (R0)+ :B= #'1		; ANSI LEVEL 1 INDICATOR
    217	001340					  LET B.STAT(R4) := #1		; MARK BUFFER BUSY
    218	001346					END
    219					;
    220					; WRITE THE VOLUME HEADER LABEL IF WE ARE AT BOT
    221					;
TINO	X0014 - INITIALIZE TAPE	MACRO M1110  21-AUG-78 21:12  PAGE 5-3


    222	001346					IF (SP) EQ #0
    223	001352					  IF #KY.16B SET.IN $OFLAG
    224	001362					    $CALL $STO16		; SET 1600 BPI
    225	001366					  ELSE
    226	001370					    $CALL $STO08		; SET 800 BPI
    227	001374					  END
    228	001374					  $CALL $WRITE <,#80.,,,R4>	; WRITE THE VOLUME HEADER LABEL
    229					;
    230					; WRITE OUT THE TAPE'S BOOTSTRAP BLOCK.
    231					;
    232	001404					  $CALL $WBOOT
    233	001410					  IF #KY.160 SET.IN $OFLAG
    234	001420					    $CALL $STO16		; SET DENSITY TO DATA DENSITY
    235	001424					  END
    236	001424					END
    237					;
    238					; NOW FORMAT HDR1 AND HDR2 OF THE FILE AND WRITE THEM
    239					;
    240	001424					LET R4 := #$OF1HD		; BUFFER CONTROL BLOCK
    241	001430					LET R0 := #$OF1BF		; AND BUFFER ADDRESS
    242	001434					IF (SP)+ NE #0			; IF NOT AT BOT, CONSTRUCT HEADER
    243	001440					  LET (R0)+ := #"HD		; FROM EOF1 THAT WE READ
    244	001444					  LET (R0)+ := #"R1
    245	001450					  LET R0 := #$OF1BF+35.		; FILE SEQUENCE NUMBER IS ONE
    246	001454					  THRU R1 := #4			; PLUS THAT OF PREVIOUS
    247	001460	105240 				    INCB -(R0)			; DO DECIMAL INCREMENT
    248	001462					    IFB (R0) LOS #'9 LEAVE LOOP
    249	001470					    LET (R0) :B= #'0		; DO THE CARRY
    250	001474					  END LOOP
    251	001500					  LET R0 := #$OF1BF+54.		; POINT TO BLOCK COUNT FIELD
    252	001504					  THRU R1 := #6
    253	001510					    LET (R0)+ :B= #'0		; INIT TO 0
    254	001514					  END LOOP
    255	001520					ELSE				; WE ARE AT BOT
    256	001522					  LET R1 := #HDR1		; PROTOTYPE HDR1
    257	001526					  THRU R2 := #80.
    258	001532					    LET (R0)+ :B= (R1)+		; COPY IN PROTOTYPE LABEL
    259	001534					  END LOOP
    260	001540					  LET R0 := #$OF1BF+21.		; POINT TO FILE SET IDENTIFIER
    261	001544					  LET R1 := #$OVBF+4
    262	001550					  THRU R2 := #6
    263	001554					    LET (R0)+ :B= (R1)+		; COPY FROM VOLUME HEADER LABEL
    264	001556					  END LOOP
    265	001562					  LET B.STAT(R4) := #1		; MARK BUFFER BUSY
    266	001570					END
    267	001570					LET R0 := #$OF1BF+4		; POINT TO FILE NAME
    268	001574					LET R1 := #$B2DAT+S.NAME
    269	001600					THRU R2 := #12.
    270	001604					  LET (R0)+ :B= (R1)+		; COPY FILE NAME FROM SUMMARY BLOCK
    271	001606					END LOOP
    272	001612					$CALL $WRITE <,#80.,,,R4>	; WRITE THE LABEL
    273
    274	001622					LET R4 := #$OF2HD		; CONTROL BLOCK FOR HDR2
    275	001626					LET R0 := #$OF2BF		; AND BUFFER ADDRESS
    276	001632					LET R1 := #HDR2			; POINT TO HDR2 PROTOTYPE
    277	001636					THRU R2 := #15.			; COPY INTO BUFFER
    278	001642					  LET (R0)+ :B= (R1)+
TINO	X0014 - INITIALIZE TAPE	MACRO M1110  21-AUG-78 21:12  PAGE 5-4


    279	001644					END LOOP
    280	001650					THRU R1 := #80.-15.
    281	001654					  LET (R0)+ :B= #40		; FILL REST WITH SPACES
    282	001660					END LOOP
    283	001664					LET $OF2BF+36. :B= #'M		; INTERNAL CARRIAGE CONTROL FLAG
    284	001672					LET $OF2BF+50. := #"00		; BUFFER OFFSET
    285	001700					$CALL $WRITE <,#80.,,,R4>	; WRITE HDR2
    286
    287	001710					$CALL $WEOF <,,,,#$OF3HD>	; AND WRITE THE EOF MARK
    288	001720					LET $BLCNT := #0		; INIT FILE BLOCK COUNT
    289	001724					LET $FLAG1 := $FLAG1 OFF.BY #KY.NIP
    290	001732					RETURN
    291
    292
    293
    294		000001 				.END
TINO	X0014 - INITIALIZE TAPE	MACRO M1110  21-AUG-78 21:12  PAGE 5-5
SYMBOL TABLE

A3    = 000001   	E15     001650R  	L16     000542R  	OUTLUN= ****** GX	$OF3HD= ****** GX
B.STAT= ****** GX	E16     001664R  	L17     000554R  	Q.IOAE= 000012   	$OTRDY= ****** GX
B0      000200R  	E2      001120R  	L2      000256R  	Q.IOEF= 000006   	$OUTCK= ****** GX
B1      000276R  	E3      001174R  	L20     001124R  	Q.IOFN= 000002   	$OVBF = ****** GX
B10     001460R  	E4      001230R  	L21     000632R  	Q.IOLU= 000004   	$OVHD = ****** GX
B11     001510R  	E5      001302R  	L22     000640R  	Q.IOPL= 000014   	$O$   = 000000
B12     001532R  	E6      001320R  	L23     000724R  	Q.IOPR= 000007   	$R    = 177777
B13     001554R  	E7      001334R  	L24     000750R  	Q.IOSB= 000010   	$RDWLN= ****** GX
B14     001604R  	HDR1    000000R  	L25     000764R  	SPACE = 000001   	$RELNO= ****** GX
B15     001642R  	HDR2    000120R  	L26     000762R  	S.NAME= ****** GX	$RWND = ****** GX
B16     001654R  	IE.BBE= ****** GX	L27     001022R  	TYPS0 = 000006   	$SPACB= ****** GX
B2      001106R  	IE.EOT= ****** GX	L3      000276R  	TYPS1 = 000006   	$SPACF= ****** GX
B3      001166R  	IE.EOV= ****** GX	L30     001024R  	TYPS2 = 000000   	$STO08= ****** GX
B4      001206R  	IIII  = 177777   	L31     001044R  	TYPS3 = 000000   	$STO16= ****** GX
B5      001272R  	IO.SEC= ****** GX	L32     001070R  	TYPS4 = 000000   	$SUPMC= 000043
B6      001312R  	KY.APD= ****** GX	L33     001072R  	$BLCNT= ****** GX	$SV$  = 000000
B7      001324R  	KY.BSP= ****** GX	L34     001114R  	$BUFCK= ****** GX	$T    = 000051
CH.160= 004000   	KY.NIP= ****** GX	L35     001346R  	$B2DAT= ****** GX	$TINO   000154RG
DECID   000137R  	KY.RWD= ****** GX	L36     001176R  	$DIDDO= 000000   	$T1   = 000006
EFN   = ****** GX	KY.16B= ****** GX	L37     001234R  	$EF$  = 000000   	$T2   = 000016
ER.DIR= ****** GX	KY.160= ****** GX	L4      000462R  	$E$   = 000001   	$WBOOT= ****** GX
ER.IOR= ****** GX	LBLS0 = 000016   	L40     001222R  	$FLAG1= ****** GX	$WEOF = ****** GX
ER.NDS= ****** GX	LBLS1 = 000013   	L41     001262R  	$I$   = 000001   	$WRITE= ****** GX
ER.NFV= ****** GX	LBLS2 = 000050   	L42     001266R  	$K$   = 000010   	$XXX$ = 000001
ER.NLV= ****** GX	LBLS3 = 000040   	L43     001424R  	$K$L  = 000010   	$Y$   = 000000
ER.TFM= ****** GX	LBLS4 = 000011   	L44     001370R  	$K$T  = 000006   	$Z$   = 000000
ER.TFU= ****** GX	L0      000244R  	L45     001374R  	$L    = 000017   	$$S   = 000000
E0      000570R  	L1      000256R  	L46     001424R  	$L$   = 000000   	$$T   = 000040
E1      000544R  	L10     000374R  	L47     001522R  	$OFLAG= ****** GX	$$TT  = 000050
E10     001500R  	L11     000376R  	L5      000322R  	$OF1BF= ****** GX	$$$   = 000000R     002
E11     001520R  	L12     000410R  	L50     001570R  	$OF1HD= ****** GX	$$$ARG= 000000
E12     001540R  	L13     000446R  	L6      000326R  	$OF2BF= ****** GX	$$$OST= 000014
E13     001562R  	L14     000462R  	L7      000350R  	$OF2HD= ****** GX	.$T   = 000005
E14     001612R  	L15     000512R

. ABS.	000000	   000
      	001734	   001
$DPB$$	000030	   002
ERRORS DETECTED:  0

VIRTUAL MEMORY USED:  13080 WORDS  ( 52 PAGES)
DYNAMIC MEMORY:  14388 WORDS  ( 55 PAGES)
ELAPSED TIME:  00:04:23
EXE$:TINO,LIS$:TINO/-SP=SRC$:SMAC/PA:1,DSCPRE,TINO
