ERROR	MACRO M1110  21-AUG-78 23:19
TABLE OF CONTENTS

     7-    2	ERROR MESSAGE TEXT
ERROR	MACRO M1110  21-AUG-78 23:19  PAGE 1


      1						.IDENT	\X03.11\
      2					;
      3					; COPYRIGHT (C) 1977, 1978
      4					; DIGITAL EQUIPMENT CORPORATION, MAYNARD MASSACHUSETTS 01754
      5					;
      6					; THIS SOFTWARE IS FURNISHED UNDER A LICENSE FOR USE ON A SINGLE
      7					; COMPUTER SYSTEM AND MAY BE COPIED ONLY WITH THE INCLUSION OF THE
      8					; ABOVE COPYRIGHT NOTICE.  THIS SOFTWARE, OR ANY OTHER COPIES THEREOF,
      9					; MAY NOT BE PROVIDED OR OTHERWISE MADE AVAILABLE TO ANY OTHER PERSON
     10					; EXCEPT FOR USE ON SUCH SYSTEM AND TO ONE WHO AGREES TO THESE LICENSE
     11					; TERMS.  TITLE TO AND OWNERSHIP OF THE SOFTWARE SHALL AT ALL TIMES
     12					; REMAIN IN DEC.
     13					;
     14					; THE INFORMATION IN THIS SOFTWARE IS SUBJECT TO CHANGE WITHOUT NOTICE
     15					; AND SHOULD NOT BE CONSTRUED AS A COMMITMENT BY DIGITAL EQUIPMENT
     16					; CORPORATION.
     17					;
     18					; DEC ASSUMES NO RESPONSIBILITY FOR THE USE OR RELIABILITY OF ITS
     19					; SOFTWARE ON EQUIPMENT WHICH IS NOT SUPPLIED BY DEC.
     20					;
     21
     22					;++
     23					; FACILITY:	VAX-11 MACRO OBJECT MODULE LIBRARY "MAR.OLB"
     24					;
     25					; ABSTRACT:	THIS MODULE IS PART OF THE VAX-11 MACRO ASSEMBLER, ITS DESCRIPTION
     26					;		IS ON THE FOLLOWING PAGE.
     27					;
     28					;
     29					; ENVIRNOMENT:	VAX-11 MACRO RUNS ON ANY VAX-11 WITH COMPATIBILITY MODE, UNDER
     30					;		THE CME (COMPATIBILITY MODE EMULATOR) OF VAX/VMS OR ON A PDP-11
     31					;		WITH EXTENDED INSTRUCTIONS UNDER RSX-11/M.
     32					;
     33					; AUTHOR:	STEVE POULSEN, CREATION DATE:  22-JUL-76
     34					;		DALE A. ROEDGER, 10-JAN-77 - 19-DEC-77
     35					;		DAVE N. CUTLER
     36					;		BENN L. SCHREIBER
     37					;
     38					; MODIFIED BY:
     39					;
     40					;--
     41					.IF NDF $DATA$
ERROR	MACRO M1110  21-AUG-78 23:19  PAGE 7


      1					.TITLE	ERROR
      2					.SBTTL		ERROR MESSAGE TEXT
      3	000000				.PSECT	ERRMSG,D,GBL
      4					;
      5					;
      6					; ERROR MESSAGE TEXTS
      7					;
      8						.NLIST BEX
      9
     10					;
     11					; MACRO USED TO CREATE ERROR TABLES
     12					;
     13
     14						.MACRO	ERR	NAME,MESAGE
     15						NAME == .-ERRTBL
     16						.ASCIZ	/MESAGE/
     17						.ENDM
     18
     19	000000	   105 	   122 	   122 	ERRMSG::	.ASCIZ	/ERROR  /
     20	000010	   127 	   101 	   122 	WRNMSG::	.ASCIZ	/WARNING/
     21	000020				ERRTBL::				; ERROR MESSAGE TABLE
     22	000020					.BLKB	1			; PREVENT ERRORS AT LOC #0
     23	000021					ERR	MRSERR,	<UNRECOGNIZED STATEMENT>
     24	000050					ERR	MSTERR,	<MACHINE INSTRUCTION SYNTAX>
     25	000103					ERR	BRFERR,	<REGISTER OPERAND SYNTAX>
     26	000133					ERR	REFERR,	<OPERAND SYNTAX>
     27	000152					ERR	ASNERR,	<ASSIGNMENT SYNTAX>
     28	000174					ERR	BLKERR,	<BLOCK DIRECTIVE SYNTAX>
     29	000223					ERR	DLSYNR,	<DATA LIST SYNTAX>
     30	000244					ERR	ADLISY,	<ADDRESS LIST SYNTAX>
     31	000270					ERR	ILGIIF,	<MISSING COMMA IN ".IIF" STATEMENT>
     32	000332					ERR	ILCHRG,	<ILLEGAL ASCII ARGUMENT>
     33	000361					ERR	DIRERR,	<DIRECTIVE SYNTAX>
     34	000402					ERR	EXPERR,	<ILLEGAL EXPRESSION>
     35
     36	000425					ERR	PACERR,	<NOT A DECIMAL STRING>
     37	000452					ERR	MULTDF,	<MULTIPLE DEFINITION OF LABEL>
     38	000507					ERR	TMNYRF,	<TOO MANY OPERANDS FOR INSTRUCTION>
     39	000551					ERR	ILLMOD,	<THIS ADDRESSING MODE NOT LEGAL HERE>
     40	000615					ERR	ILLBRN,	<ILLEGAL BRANCH DESTINATION>
     41	000650					ERR	ILGCHR,	<ILLEGAL CHARACTER>
     42	000672					ERR	ILASEX,	<COMPLEX EXPRESSION NOT LEGAL HERE>
     43	000734					ERR	NTENFO,	<NOT ENOUGH OPERANDS SUPPLIED>
     44	000771					ERR	MCRGER,	<ILLEGAL MACRO ARGUMENT NAME>
     45	001025					ERR	ILRPCT,	<REPEAT COUNT MUST BE ABSOLUTE EXPRESSION>
     46	001076					ERR	IFSYNX,	<'IF' DIRECTIVE SYNTAX>
     47	001124					ERR	ILCOND,	<ILLEGAL 'IF' CONDITION>
     48	001153					ERR	IFLVEX,	<IF NESTING LEVEL EXCEEDED>
     49	001205					ERR	NTINIF,	<STATEMENT OUTSIDE CONDITION BODY>
     50	001246					ERR	NTLDIR,	<NOT A LEGAL LISTING DIRECTIVE>
     51	001304					ERR	ILGMNM,	<ILLEGAL MACRO NAME>
     52	001327					ERR	MCWRNG,	<STATEMENT ENDS WRONG MACRO>
     53	001362					ERR	ILDXMD,	<THIS MODE MAY NOT BE INDEXED>
     54	001417					ERR	ILDXRG,	<INVALID INDEX REGISTER>
     55	001446					ERR	ILLREG,	<THIS REGISTER MAY NOT BE USED HERE>
     56	001511					ERR	UNDFTR,	<UNDEFINED TRANSFER ADDRESS>
     57	001544					ERR	NTLGEN,	<NOT A LEGAL ENABLE OPTION>
ERROR	MACRO M1110  21-AUG-78 23:19  PAGE 7-1
ERROR MESSAGE TEXT

     58	001576					ERR	ILGPSO,	<NOT A VALID PSECT OPTION>
     59	001627					ERR	PSOPCN,	<CONFLICTING PSECT OPTIONS>
     60	001661					ERR	PSTOOM,	<TOO MANY PSECTS DECLARED>
     61	001712					ERR	UNTERM,	<UNTERMINATED ARGUMENT>
     62	001740					ERR	INVALN,	<INVALID ALIGNMENT>
     63	001762					ERR	DIVERR,	<DIVISION BY ZERO>
     64	002003					ERR	EXPOVR,	<EXPRESSION OVERFLOWED 32-BITS>
     65	002041					ERR	MLIBER,	<MACRO LIBRARY FORMAT>
     66	002066					ERR	NTINMC,	<STATEMENT NOT IN MACRO BODY>
     67	002122					ERR	NOMAC,	<CAN'T LOCATE MACRO IN LIBRARY>
     68	002160					ERR	USRGEN,	<USER GENERATED>
     69	002177					ERR	ALNTBG,	<ALIGNMENT EXCEEDS PSECT ALIGNMENT>
     70	002241					ERR	LNTLNG,	<LINE TOO LONG>
     71	002257					ERR	DTATRU,	<DATA TRUNCATION>
     72	002277					ERR	SAVOVF,	<PSECT CONTEXT BUFFER OVERFLOW>
     73	002335					ERR	SAVUND,	<PSECT CONTEXT BUFFER UNDERFLOW>
     74	002374					ERR	UNDEFS,	<UNDEFINED SYMBOL>
     75	002415					ERR	BDSTER,	<BRANCH DESTINATION OUT OF RANGE>
     76	002455					ERR	PHASER,	<SYMBOL OUT OF PHASE>
     77	002501					ERR	SYSMOD,	<ILLEGAL MODE>
     78	002516					ERR	ILRGNM,	<ILLEGAL REGISTER NUMBER>
     79	002546					ERR	ILGFPT,	<FLOATING POINT SYNTAX>
     80	002574					ERR	RESMSK,	<RESERVED BITS SET IN ENTRY MASK>
     81	002634					ERR	ILSYLN,	<SYMBOL EXCEEDS 15 CHARACTERS>
     82	002671					ERR	PRSERR,	<PARSE OF FILENAME FAILED>
     83	002722					ERR	NOFILE,	<NO FILE NAME IN DIRECTIVE>
     84	002754					ERR	SYMDEF,	<SYMBOL IS DEFINED IN MODULE>
     85	003010					ERR	SYMEXT,	<SYMBOL DECLARED EXTERNAL>
     86	003041					ERR	SYMOVR,	<SYMBOL TABLE OVERFLOW>
     87	003067					ERR	UNTCND,	<UNTERMINATED CONDITIONAL>
     88	003120					ERR	MISEND,	<MISSING END STATEMENT>
     89
     90		000001 			.END
ERROR	MACRO M1110  21-AUG-78 23:19  PAGE 7-2
SYMBOL TABLE

ADLISY= 000224 G 	ILDXMD= 001342 G 	MRSERR= 000001 G 	PSECOP= 000016   	SYMVL2= 000006
ALNTBG= 002157 G 	ILDXRG= 001377 G 	MSTERR= 000030 G 	PSECV1= 000012   	SYSMOD= 002461 G
ASNERR= 000132 G 	ILGCHR= 000630 G 	MULTDF= 000432 G 	PSECV2= 000014   	S.ABS = 004000
BDSTER= 002375 G 	ILGFPT= 002526 G 	M.ARGC= 000014   	PSOPCN= 001607 G 	S.ASN = 000200
BLKERR= 000154 G 	ILGIIF= 000250 G 	M.ARGS= 000016   	PSTOOM= 001641 G 	S.DBG = 002000
BLNK  = 000040   	ILGMNM= 001264 G 	M.END = 000012   	REFERR= 000113 G 	S.DF  = 100000
BRFERR= 000063 G 	ILGPSO= 001556 G 	M.GETL= 000004   	RESMSK= 002554 G 	S.EPT = 000100
COMMA = 000054   	ILLBRN= 000575 G 	M.IFLV= 000006   	RGTANG= 000076   	S.EXTN= 010000
CR    = 000015   	ILLMOD= 000531 G 	M.IFVL= 000010   	SAVOVF= 002257 G 	S.GLOB= 020000
DIRERR= 000341 G 	ILLREG= 001426 G 	M.LINK= 000000   	SAVUND= 002315 G 	S.LOCL= 001000
DIVERR= 001742 G 	ILRGNM= 002476 G 	M.NXTL= 000002   	SEMI  = 000073   	S.ODBG= 000040
DLSYNR= 000203 G 	ILRPCT= 001005 G 	NOFILE= 002702 G 	SPACE = 000040   	S.REF = 000400
DTATRU= 002237 G 	ILSYLN= 002614 G 	NOMAC = 002102 G 	SYMCHR= 000012   	S.TKMS= 000377
ERRMSG  000000RG    002	INVALN= 001720 G 	NTENFO= 000714 G 	SYMDEF= 002734 G 	S.WEAK= 040000
ERRTBL  000020RG    002	LF    = 000012   	NTINIF= 001165 G 	SYMEXT= 002770 G 	TAB   = 000011
EXPERR= 000362 G 	LFTANG= 000074   	NTINMC= 002046 G 	SYMFLA= 000002   	TMNYRF= 000467 G
EXPOVR= 001763 G 	LNTLNG= 002221 G 	NTLDIR= 001226 G 	SYMLEN= 000011   	UNDEFS= 002354 G
FF    = 000014   	LOWCAS= 000140   	NTLGEN= 001524 G 	SYMLIN= 000000   	UNDFTR= 001471 G
IFLVEX= 001133 G 	LPTLEN= 000074   	PACERR= 000405 G 	SYMMAX= 000017   	UNTCND= 003047 G
IFSYNX= 001056 G 	MCRGER= 000751 G 	PHASER= 002435 G 	SYMOVR= 003021 G 	UNTERM= 001672 G
ILASEX= 000652 G 	MCWRNG= 001307 G 	PRSERR= 002651 G 	SYMSEG= 000010   	USRGEN= 002140 G
ILCHRG= 000312 G 	MISEND= 003100 G 	PSECCH= 000020   	SYMVL1= 000004   	WRNMSG  000010RG    002
ILCOND= 001104 G 	MLIBER= 002021 G

. ABS.	000000	   000
      	000000	   001
ERRMSG	003146	   002
ERRORS DETECTED:  0

VIRTUAL MEMORY USED:  1862 WORDS  ( 8 PAGES)
DYNAMIC MEMORY:  2772 WORDS  ( 10 PAGES)
ELAPSED TIME:  00:00:11
OBJ$:ERROR,LIS$:ERROR/-SP=SRC$:COMMON,ERROR
