LRPTAB	MACRO M1110  21-AUG-78 23:19
TABLE OF CONTENTS

     8-    6	********** PARSE TABLES **********
LRPTAB	MACRO M1110  21-AUG-78 23:19  PAGE 1


      1						.IDENT	\X03.11\
      2					;
      3					; COPYRIGHT (C) 1977, 1978
      4					; DIGITAL EQUIPMENT CORPORATION, MAYNARD MASSACHUSETTS 01754
      5					;
      6					; THIS SOFTWARE IS FURNISHED UNDER A LICENSE FOR USE ON A SINGLE
      7					; COMPUTER SYSTEM AND MAY BE COPIED ONLY WITH THE INCLUSION OF THE
      8					; ABOVE COPYRIGHT NOTICE.  THIS SOFTWARE, OR ANY OTHER COPIES THEREOF,
      9					; MAY NOT BE PROVIDED OR OTHERWISE MADE AVAILABLE TO ANY OTHER PERSON
     10					; EXCEPT FOR USE ON SUCH SYSTEM AND TO ONE WHO AGREES TO THESE LICENSE
     11					; TERMS.  TITLE TO AND OWNERSHIP OF THE SOFTWARE SHALL AT ALL TIMES
     12					; REMAIN IN DEC.
     13					;
     14					; THE INFORMATION IN THIS SOFTWARE IS SUBJECT TO CHANGE WITHOUT NOTICE
     15					; AND SHOULD NOT BE CONSTRUED AS A COMMITMENT BY DIGITAL EQUIPMENT
     16					; CORPORATION.
     17					;
     18					; DEC ASSUMES NO RESPONSIBILITY FOR THE USE OR RELIABILITY OF ITS
     19					; SOFTWARE ON EQUIPMENT WHICH IS NOT SUPPLIED BY DEC.
     20					;
     21
     22					;++
     23					; FACILITY:	VAX-11 MACRO OBJECT MODULE LIBRARY "MAR.OLB"
     24					;
     25					; ABSTRACT:	THIS MODULE IS PART OF THE VAX-11 MACRO ASSEMBLER, ITS DESCRIPTION
     26					;		IS ON THE FOLLOWING PAGE.
     27					;
     28					;
     29					; ENVIRNOMENT:	VAX-11 MACRO RUNS ON ANY VAX-11 WITH COMPATIBILITY MODE, UNDER
     30					;		THE CME (COMPATIBILITY MODE EMULATOR) OF VAX/VMS OR ON A PDP-11
     31					;		WITH EXTENDED INSTRUCTIONS UNDER RSX-11/M.
     32					;
     33					; AUTHOR:	STEVE POULSEN, CREATION DATE:  22-JUL-76
     34					;		DALE A. ROEDGER, 10-JAN-77 - 19-DEC-77
     35					;		DAVE N. CUTLER
     36					;		BENN L. SCHREIBER
     37					;
     38					; MODIFIED BY:
     39					;
     40					;--
     41					.IF NDF $DATA$
LRPTAB	MACRO M1110  21-AUG-78 23:19  PAGE 8


      2
      3
      4
      5					.TITLE LRPTAB
      6					.SBTTL ********** PARSE TABLES **********
      7		000012 			.RADIX 10
      8					.NLIST BEX
      9	000000				.CSECT TABLES
     10
     11					;****************************************
     12					;*					*
     13					;*					*
     14					;*      SEMANTIC ROUTINE NAMES		*
     15					;*					*
     16					;*					*
     17					;****************************************
     18
     19
     20					.GLOBL	GOAL,	MTXT1,	MTXT2,	MTXT3,	MTXT4,	ERRMRS,	STAT1,	STAT4,	ERRDOL,	ERRMST
     21					.GLOBL	MINST1,	OPRAND,	ERRREF,	LBL1,	LBL2,	ASSGN1,	ERRASN,	ASSHD1,	ASSHD2,	ASSHD3
     22					.GLOBL	IFSPL,	IF,	IFSYNT,	IFHD1,	IIF1,	IIF2,	ERRIIF,	IIF,	MACRO,	IFF
     23					.GLOBL	IFT,	IFTF,	IRP,	IRPC,	DSABL,	ENABL,	LIST,	NLIST,	PSECT,	CSAVE
     24					.GLOBL	CRESTO,	ENTRY1,	ENTRY2,	ALIGN1,	ALIGN2,	DELETE,	LIBRY,	MCALL,	MEXIT,	NARG
     25					.GLOBL	NCHR,	PAGE,	SBTTL,	TITLE,	IDENT,	XFER,	VECTR0,	VECTR1,	VECTR2,	ENDPRG
     26					.GLOBL	BDEND1,	BDEND2,	ENDC,	REPT,	NTYPE1,	NTYPE2,	ERROR1,	ERROR2,	DIRREF,	ODD
     27					.GLOBL	EVEN,	DEBUG,	GLOBAL,	EXTRN,	WEAK,	IDLIST,	RFHD1,	RFHD2,	RFHD4,	RFHD8
     28					.GLOBL	ALIGN,	REPTHD,	ERROR,	PRINT,	WARN,	NTHD1,	NTHD2,	BSTAT1,	BSTAT2,	ERRBLK
     29					.GLOBL	BLKLNG,	BLKBYT,	BLKQUD,	BLKWRD,	DATNUL,	PACKED,	FLOAT,	DOUBLE,	QUDSTR,	QUAD
     30					.GLOBL	BYTE,	LONG,	WORD,	DALST1,	DALST2,	ERRDAR,	DATARG,	CHARHD,	ASCII,	ASCIZ
     31					.GLOBL	ASCIC,	CHRARG,	CHRNUL,	ERRCHA,	ERRADR,	ADDRES,	STOADR,	EXPBIN,	OPCOM,	OPSAME
     32					.GLOBL	OPNEG,	OPPLUS,	OPMINU,	OPMUL,	OPDIV,	OPAND,	OPOR,	OPXOR,	OPASH,	PRMUN
     33					.GLOBL	ERREXP,	PRMSYM,	PRMPC,	PRMINT,	PRMRDX,	PRMBRK,	RDXHEX,	RDXDEC,	RDXBIN,	RDXOCT
     34					.GLOBL	NUMASC,	NUMFLT,	MASK,	MASKNL,	MASKX,	RGLST1,	REGLST,	REF1,	LITERL,	REF2
     35					.GLOBL	REF3,	RDEFER,	AUTOI,	AUTOII,	AUTOI3,	AUTODC,	DISP,	DISPI,	GENLDS,	ERRBRF
     36					.GLOBL	AINC1,	AINC2,	AINC3,	DISPL1,	DISPL2,	DISPL3,	DISPL4,	DISPL5,	DISPL6,	DISPL7
     37					.GLOBL	DISPL8,	INDEX,	NULL
LRPTAB	MACRO M1110  21-AUG-78 23:19  PAGE 9
********** PARSE TABLES **********

     39
     40
     41
     42
     43					;****************************************
     44					;*					*
     45					;*					*
     46					;*      SYMBOL LIST     ("SYMLST")      *
     47					;*					*
     48					;*					*
     49					;****************************************
     50
     51
     52	000000				SYMLST::
     53
     54
     55					;SYMBOL
     56
     57	000000	   174 	   175 	   013 	.BYTE	124,	125,	11,	1,	126,	127,	128,	13,	129,	130	;9
     58	000012	   203 	   204 	   014 	.BYTE	131,	132,	12,	135,	80,	72,	73,	74,	75,	76	;19
     59	000024	   214 	   215 	   126 	.BYTE	140,	141,	86,	87,	97,	98,	102,	104,	103,	88	;29
     60	000036	   216 	   124 	   140 	.BYTE	142,	84,	96,	81,	82,	99,	100,	101,	107,	105	;39
     61	000050	   152 	   167 	   131 	.BYTE	106,	119,	89,	143,	118,	83,	79,	78,	145,	146	;49
     62	000062	   223 	   224 	   134 	.BYTE	147,	148,	92,	91,	137,	138,	139,	14,	18,	150	;59
     63	000074	   230 	   231 	   066 	.BYTE	152,	153,	54,	59,	57,	154,	149,	90,	85,	94	;69
     64	000106	   135 	   154 	   115 	.BYTE	93,	108,	77,	116,	113,	114,	115,	109,	110,	111	;79
     65	000120	   160 	   106 	   107 	.BYTE	112,	70,	71,	56,	60,	62,	157,	159,	61,	63	;89
     66	000132	   100 	   101 	   102 	.BYTE	64,	65,	66,	67,	68,	69,	52,	53,	51,	55	;99
     67	000144	   375 	   012 	   175 	.BYTE	-3,	10,	125,	11,	-4,	11,	125,	-4,	11,	3	;109
     68	000156	   375 	   013 	   205 	.BYTE	-3,	11,	133,	4,	134,	169,	47,	49,	170,	2	;119
     69	000170	   027 	   253 	   040 	.BYTE	23,	171,	32,	26,	172,	44,	33,	45,	136,	43	;129
     70	000202	   056 	   060 	   241 	.BYTE	46,	48,	161,	155,	163,	12,	18,	34,	164,	165	;139
     71	000214	   025 	   045 	   031 	.BYTE	21,	37,	25,	42,	38,	36,	39,	35,	40,	166	;149
     72	000226	   051 	   375 	   013 	.BYTE	41,	-3,	11,	15,	3,	-3,	134,	3,	-4,	19	;159
     73	000240	   375 	   061 	   375 	.BYTE	-3,	49,	-3,	20,	-3,	33,	-3,	136,	161,	155	;169
     74	000252	   243 	   014 	   022 	.BYTE	163,	12,	18,	34,	164,	165,	21,	37,	25,	26	;179
     75	000264	   374 	   242 	   031 	.BYTE	-4,	162,	25,	26,	27,	28,	29,	30,	31,	32	;189
     76	000276	   375 	   241 	   374 	.BYTE	-3,	161,	-4,	155,	5,	12,	18,	34,	164,	165	;199
     77	000310	   025 	   374 	   233 	.BYTE	21,	-4,	155,	5,	12,	18,	34,	164,	165,	21	;209
     78	000322	   374 	   210 	   374 	.BYTE	-4,	136,	-4,	22,	5,	162,	25,	26,	27,	28	;219
     79	000334	   035 	   036 	   037 	.BYTE	29,	30,	31,	32,	-3,	21,	168,	49,	50,	-3	;229
     80	000346	   247 	   026 	   250 	.BYTE	167,	22,	168,	-4,	22,	15,	-3,	168,	-4,	49	;239
     81	000360	   001 	   375 	   030 	.BYTE	1,	-3,	24,	1,	-3,	25,	-3,	171,	23,	172	;249
     82	000372	   061 	   041 	   055 	.BYTE	49,	33,	45,	136,	43,	46,	48,	-4,	49,	-3	;259
     83	000404	   030 	   375 	   031 	.BYTE	24,	-3,	25,	-3,	136,	-4,	162,	25,	26,	27	;269
     84	000416	   034 	   035 	   036 	.BYTE	28,	29,	30,	31,	32,	-3,	33,	-3,	136,	-4	;279
     85	000430	   242 	   031 	   032 	.BYTE	162,	25,	26,	27,	28,	29,	30,	31,	32,	-3	;289
     86	000442	   027 	   242 	   031 	.BYTE	23,	162,	25,	26,	27,	28,	29,	30,	31,	32	;299
     87	000454	   375 	   061 	   375 	.BYTE	-3,	49,	-3,	24,	-3,	136,	-4,	23,	162,	25	;309
     88	000466	   032 	   033 	   034 	.BYTE	26,	27,	28,	29,	30,	31,	32,	-3,	49,	-3	;319
     89	000500	   030 	   375 	   210 	.BYTE	24,	-3,	136,	-4,	23,	162,	25,	26,	27,	28	;329
     90	000512	   035 	   036 	   037 	.BYTE	29,	30,	31,	32,	-3,	49,	-3,	24,	-3,	136	;339
     91	000524	   374 	   027 	   242 	.BYTE	-4,	23,	162,	25,	26,	27,	28,	29,	30,	31	;349
     92	000536	   040 	   375 	   061 	.BYTE	32,	-3,	49,	-3,	24,	-3,	23,	-3,	49,	-3	;359
     93	000550	   030 	   375 	   210 	.BYTE	24,	-3,	136,	-4,	162,	25,	26,	27,	28,	29	;369
     94	000562	   036 	   037 	   040 	.BYTE	30,	31,	32,	-3,	16,	17,	-3,	16,	-3,	17	;379
     95	000574	   375 	   210 	   002 	.BYTE	-3,	136,	2,	-4,	11,	-4,	12,	-3,	15,	136	;389
LRPTAB	MACRO M1110  21-AUG-78 23:19  PAGE 9-1
********** PARSE TABLES **********

     96	000606	   374 	   210 	   374 	.BYTE	-4,	136,	-4,	162,	25,	26,	27,	28,	29,	30	;399
     97	000620	   037 	   040 	   375 	.BYTE	31,	32,	-3,	162,	25,	26,	27,	28,	29,	30	;409
     98	000632	   037 	   040 	   375 	.BYTE	31,	32,	-3,	15,	136,	161,	155,	163,	12,	18	;419
     99	000644	   042 	   244 	   245 	.BYTE	34,	164,	165,	21,	37,	25,	26,	42,	38,	36	;429
    100	000656	   047 	   043 	   050 	.BYTE	39,	35,	40,	166,	41,	-3,	136,	-4,	162,	25	;439
    101	000670	   032 	   033 	   034 	.BYTE	26,	27,	28,	29,	30,	31,	32,	-3,	162,	25	;449
    102	000702	   032 	   033 	   034 	.BYTE	26,	27,	28,	29,	30,	31,	32,	-3,	12,	-3	;459
    103	000714	   014 	   375 	   014 	.BYTE	12,	-3,	12,	-3,	15,	136,	161,	155,	163,	12	;469
    104	000726	   022 	   042 	   244 	.BYTE	18,	34,	164,	165,	21,	37,	25,	26,	42,	38	;479
    105	000740	   044 	   047 	   043 	.BYTE	36,	39,	35,	40,	166,	41,	-3,	136,	-4,	162	;489
    106	000752	   031 	   032 	   033 	.BYTE	25,	26,	27,	28,	29,	30,	31,	32,	-3,	162	;499
    107	000764	   031 	   032 	   033 	.BYTE	25,	26,	27,	28,	29,	30,	31,	32,	-3,	144	;509
    108	000776	   014 	   375 	   017 	.BYTE	12,	-3,	15,	-3,	12,	-3,	136,	-4,	162,	25	;519
    109	001010	   032 	   033 	   034 	.BYTE	26,	27,	28,	29,	30,	31,	32,	-3,	134,	169	;529
    110	001022	   057 	   061 	   252 	.BYTE	47,	49,	170,	2,	23,	171,	32,	26,	172,	44	;539
    111	001034	   041 	   055 	   210 	.BYTE	33,	45,	136,	43,	46,	48,	161,	155,	163,	12	;549
    112	001046	   022 	   042 	   244 	.BYTE	18,	34,	164,	165,	21,	37,	25,	42,	38,	36	;559
    113	001060	   047 	   043 	   050 	.BYTE	39,	35,	40,	166,	41,	-3,	136,	161,	155,	163	;569
    114	001072	   014 	   022 	   042 	.BYTE	12,	18,	34,	164,	165,	21,	37,	25,	26,	42	;579
    115	001104	   046 	   044 	   047 	.BYTE	38,	36,	39,	35,	40,	166,	41,	-3,	162,	25	;589
    116	001116	   032 	   033 	   034 	.BYTE	26,	27,	28,	29,	30,	31,	32,	-3,	134,	-4	;599
    117	001130	   013 	   210 	   374 	.BYTE	11,	136,	-4,	162,	25,	26,	27,	28,	29,	30	;609
    118	001142	   037 	   040 	   375 	.BYTE	31,	32,	-3,	11,	2,	-3,	136,	15,	2,	-4	;619
    119	001154	   017 	   374 	   021 	.BYTE	15,	-4,	17,	-3,	151,	156,	136,	161,	155,	163	;629
    120	001166	   014 	   022 	   042 	.BYTE	12,	18,	34,	164,	165,	21,	37,	25,	26,	42	;639
    121	001200	   046 	   044 	   047 	.BYTE	38,	36,	39,	35,	40,	166,	41,	-3,	15,	4	;649
    122	001212	   375 	   210 	   004 	.BYTE	-3,	136,	4,	-4,	162,	25,	26,	27,	28,	29	;659
    123	001224	   036 	   037 	   040 	.BYTE	30,	31,	32,	-3,	19,	-3,	136,	-4,	20,	6	;669
    124	001236	   374 	   242 	   031 	.BYTE	-4,	162,	25,	26,	27,	28,	29,	30,	31,	32	;679
    125	001250	   375 	   233 	   014 	.BYTE	-3,	155,	12,	18,	34,	164,	165,	21,	42,	38	;689
    126	001262	   044 	   047 	   043 	.BYTE	36,	39,	35,	40,	166,	41,	-3,	136,	2,	161	;699
    127	001274	   233 	   243 	   014 	.BYTE	155,	163,	12,	18,	34,	164,	165,	21,	37,	25	;709
    128	001306	   032 	   052 	   046 	.BYTE	26,	42,	38,	36,	39,	35,	40,	166,	41,	-3	;719
    129	001320	   242 	   031 	   032 	.BYTE	162,	25,	26,	27,	28,	29,	30,	31,	32,	-3	;729
    130	001332	   014 	   375 	   017 	.BYTE	12,	-3,	15,	-3,	158,	21,	-3,	21,	6,	-3	;739
    131	001344	   210 	   026 	   374 	.BYTE	136,	22,	-4,	22,	6,	-4,	136,	22,	-4,	22	;749
    132	001356	   006 	   374 	   240 	.BYTE	6,	-4,	160,	136,	161,	155,	163,	12,	18,	34	;759
    133	001370	   244 	   245 	   025 	.BYTE	164,	165,	21,	37,	25,	26,	42,	38,	36,	39	;769
    134	001402	   043 	   050 	   246 	.BYTE	35,	40,	166,	41,	-3,	15,	4,	-3,	136,	4	;779
    135	001414	   374 	   242 	   031 	.BYTE	-4,	162,	25,	26,	27,	28,	29,	30,	31,	32	;789
    136	001426	   375 	   242 	   031 	.BYTE	-3,	162,	25,	26,	27,	28,	29,	30,	31,	32	;799
    137	001440	   375 	   000 		.BYTE	-3,
    138						.EVEN
    139
LRPTAB	MACRO M1110  21-AUG-78 23:19  PAGE 10
********** PARSE TABLES **********

    141
    142
    143
    144
    145					;****************************************
    146					;*					*
    147					;*					*
    148					;*      ACTION LIST     ("ACTION")      *
    149					;*					*
    150					;*					*
    151					;****************************************
    152
    153
    154	001442				ACTION::
    155
    156	001442	000145 	177776 	177774 	.WORD	101,	-2,	-4,	-6,	-7,	105,	-10,	-11,	108,	-14	;9
    157	001466	177761 	000157 	000566 	.WORD	-15,	111,	374,	381,	-40,	-41,	-42,	-43,	-44,	-45	;19
    158	001512	177722 	177721 	177720 	.WORD	-46,	-47,	-48,	-49,	-50,	-51,	-52,	-53,	-54,	386	;29
    159	001536	000635 	177704 	177703 	.WORD	413,	-60,	-61,	-62,	-63,	-64,	458,	-66,	-67,	-68	;39
    160	001562	177673 	000714 	000716 	.WORD	-69,	460,	462,	509,	-75,	-76,	-77,	-78,	516,	528	;49
    161	001606	001066 	001126 	177653 	.WORD	566,	598,	-85,	-86,	600,	613,	616,	-19,	622,	624	;59
    162	001632	177614 	177613 	177612 	.WORD	-116,	-117,	-118,	-119,	-120,	681,	697,	-97,	-87,	-88	;69
    163	001656	177647 	177646 	177636 	.WORD	-89,	-90,	-98,	730,	-99,	-100,	-101,	-93,	-94,	-95	;79
    164	001702	177640 	177735 	177731 	.WORD	-96,	-35,	-39,	-124,	-125,	-126,	734,	752,	-123,	-107	;89
    165	001726	177624 	177623 	177622 	.WORD	-108,	-109,	-110,	-111,	-112,	-113,	-136,	-137,	-138,	-148	;99
    166	001752	023417 	177777 	177775 	.WORD	9999,	-1,	-3,	-5,	4,	-8,	-9,	4,	-12,	-13	;109
    167	001776	023417 	177760 	000230 	.WORD	9999,	-16,	152,	-18,	-20,	159,	165,	-193,	-194,	-195	;119
    168	002022	000357 	177473 	000367 	.WORD	239,	-197,	247,	356,	-201,	362,	264,	276,	290,	305	;129
    169	002046	000502 	000523 	177547 	.WORD	322,	339,	-153,	-166,	193,	-169,	-170,	-171,	202,	-173	;139
    170	002072	000323 	177545 	177544 	.WORD	211,	-155,	-156,	-177,	-178,	-179,	-180,	-181,	-182,	-183	;149
    171	002116	000341 	023417 	177757 	.WORD	225,	9999,	-17,	156,	-23,	9999,	-21,	-22,	115,	161	;159
    172	002142	154063 	000243 	023417 	.WORD	-10189,	163,	9999,	-218,	9999,	167,	9999,	181,	-153,	-166	;169
    173	002166	000301 	177527 	177526 	.WORD	193,	-169,	-170,	-171,	202,	-173,	211,	-155,	-156,	-157	;179
    174	002212	000217 	000277 	177542 	.WORD	143,	191,	-158,	-159,	-160,	-161,	-162,	-163,	-164,	-165	;189
    175	002236	154062 	177546 	000251 	.WORD	-10190,	-154,	169,	-167,	-168,	-169,	-170,	-171,	202,	-173	;199
    176	002262	000323 	000217 	177524 	.WORD	211,	143,	-172,	-175,	-169,	-170,	-171,	202,	-173,	211	;209
    177	002306	000217 	000325 	000250 	.WORD	143,	213,	168,	-174,	-176,	191,	-158,	-159,	-160,	-161	;219
    178	002332	177536 	177535 	177534 	.WORD	-162,	-163,	-164,	-165,	9999,	230,	-186,	-189,	-190,	9999	;229
    179	002356	000352 	177507 	177505 	.WORD	234,	-185,	-187,	227,	-184,	237,	9999,	-188,	227,	242	;239
    180	002402	177464 	023417 	000365 	.WORD	-204,	9999,	245,	-205,	9999,	-207,	-10194,	-198,	258,	-202	;249
    181	002426	177462 	000410 	000424 	.WORD	-206,	264,	276,	290,	305,	322,	339,	168,	260,	9999	;259
    182	002452	000406 	023417 	177461 	.WORD	262,	9999,	-207,	-10197,	266,	168,	191,	-158,	-159,	-160	;269
    183	002476	177537 	177536 	177535 	.WORD	-161,	-162,	-163,	-164,	-165,	-10206,	278,	9999,	280,	168	;279
    184	002522	000277 	177542 	177541 	.WORD	191,	-158,	-159,	-160,	-161,	-162,	-163,	-164,	-165,	-10207	;289
    185	002546	000455 	000277 	177542 	.WORD	301,	191,	-158,	-159,	-160,	-161,	-162,	-163,	-164,	-165	;299
    186	002572	154037 	000457 	023417 	.WORD	-10209,	303,	9999,	-210,	9999,	307,	168,	318,	191,	-158	;309
    187	002616	177541 	177540 	177537 	.WORD	-159,	-160,	-161,	-162,	-163,	-164,	-165,	-10213,	320,	9999	;319
    188	002642	177454 	023417 	000504 	.WORD	-212,	9999,	324,	168,	335,	191,	-158,	-159,	-160,	-161	;329
    189	002666	177536 	177535 	177534 	.WORD	-162,	-163,	-164,	-165,	-10214,	337,	9999,	-213,	9999,	341	;339
    190	002712	000250 	000540 	000277 	.WORD	168,	352,	191,	-158,	-159,	-160,	-161,	-162,	-163,	-164	;349
    191	002736	177533 	154031 	000542 	.WORD	-165,	-10215,	354,	9999,	-214,	9999,	358,	-10155,	360,	9999	;359
    192	002762	177470 	023417 	000554 	.WORD	-200,	9999,	364,	168,	191,	-158,	-159,	-160,	-161,	-162	;369
    193	003006	177535 	177534 	177533 	.WORD	-163,	-164,	-165,	-10201,	377,	379,	9999,	-25,	-10022,	-29	;379
    194	003032	154326 	000600 	177745 	.WORD	-10026,	384,	-27,	168,	-26,	215,	388,	9999,	391,	403	;389
    195	003056	000250 	000611 	000250 	.WORD	168,	393,	168,	191,	-158,	-159,	-160,	-161,	-162,	-163	;399
    196	003102	177534 	177533 	154273 	.WORD	-164,	-165,	-10053,	191,	-158,	-159,	-160,	-161,	-162,	-163	;409
    197	003126	177534 	177533 	154272 	.WORD	-164,	-165,	-10054,	436,	448,	-153,	-166,	193,	-169,	-170	;419
LRPTAB	MACRO M1110  21-AUG-78 23:19  PAGE 10-1
********** PARSE TABLES **********

    198	003152	177525 	000312 	177523 	.WORD	-171,	202,	-173,	211,	-155,	-156,	-157,	-177,	-178,	-179	;429
    199	003176	177514 	177513 	177512 	.WORD	-180,	-181,	-182,	-183,	225,	-10055,	438,	168,	191,	-158	;439
    200	003222	177541 	177540 	177537 	.WORD	-159,	-160,	-161,	-162,	-163,	-164,	-165,	-10056,	191,	-158	;449
    201	003246	177541 	177540 	177537 	.WORD	-159,	-160,	-161,	-162,	-163,	-164,	-165,	-10057,	-65,	9999	;459
    202	003272	177672 	023417 	000720 	.WORD	-70,	9999,	464,	9999,	487,	499,	-153,	-166,	193,	-169	;469
    203	003316	177526 	177525 	000312 	.WORD	-170,	-171,	202,	-173,	211,	-155,	-156,	-157,	-177,	-178	;479
    204	003342	177515 	177514 	177513 	.WORD	-179,	-180,	-181,	-182,	-183,	225,	-10069,	489,	168,	191	;489
    205	003366	177542 	177541 	177540 	.WORD	-158,	-159,	-160,	-161,	-162,	-163,	-164,	-165,	-10070,	191	;499
    206	003412	177542 	177541 	177540 	.WORD	-158,	-159,	-160,	-161,	-162,	-163,	-164,	-165,	-10071,	512	;509
    207	003436	177645 	023417 	001002 	.WORD	-91,	9999,	514,	-10072,	-92,	9999,	518,	168,	191,	-158	;519
    208	003462	177541 	177540 	177537 	.WORD	-159,	-160,	-161,	-162,	-163,	-164,	-165,	-10077,	-81,	159	;529
    209	003506	000245 	177477 	177476 	.WORD	165,	-193,	-194,	-195,	239,	-197,	247,	356,	-201,	362	;539
    210	003532	000410 	000424 	000442 	.WORD	264,	276,	290,	305,	322,	339,	-153,	-166,	193,	-169	;549
    211	003556	177526 	177525 	000312 	.WORD	-170,	-171,	202,	-173,	211,	-155,	-156,	-177,	-178,	-179	;559
    212	003602	177514 	177513 	177512 	.WORD	-180,	-181,	-182,	-183,	225,	-10078,	588,	-153,	-166,	193	;569
    213	003626	177527 	177526 	177525 	.WORD	-169,	-170,	-171,	202,	-173,	211,	-155,	-156,	-157,	-177	;579
    214	003652	177516 	177515 	177514 	.WORD	-178,	-179,	-180,	-181,	-182,	-183,	225,	-10080,	191,	-158	;589
    215	003676	177541 	177540 	177537 	.WORD	-159,	-160,	-161,	-162,	-163,	-164,	-165,	-10081,	-84,	115	;599
    216	003722	177741 	001133 	000250 	.WORD	-31,	603,	168,	191,	-158,	-159,	-160,	-161,	-162,	-163	;609
    217	003746	177534 	177533 	154320 	.WORD	-164,	-165,	-10032,	-32,	-33,	9999,	620,	-37,	-38,	168	;619
    218	003772	177734 	000327 	177742 	.WORD	-36,	215,	-30,	9999,	648,	664,	671,	-153,	-166,	193	;629
    219	004016	177527 	177526 	177525 	.WORD	-169,	-170,	-171,	202,	-173,	211,	-155,	-156,	-157,	-177	;639
    220	004042	177516 	177515 	177514 	.WORD	-178,	-179,	-180,	-181,	-182,	-183,	225,	-10113,	651,	-132	;649
    221	004066	154200 	001216 	177573 	.WORD	-10112,	654,	-133,	168,	191,	-158,	-159,	-160,	-161,	-162	;659
    222	004112	177535 	177534 	177533 	.WORD	-163,	-164,	-165,	-10129,	666,	-10125,	668,	168,	-128,	-129	;669
    223	004136	000327 	000277 	177542 	.WORD	215,	191,	-158,	-159,	-160,	-161,	-162,	-163,	-164,	-165	;679
    224	004162	154160 	177607 	177527 	.WORD	-10128,	-121,	-169,	-170,	-171,	202,	-173,	211,	-177,	-178	;689
    225	004206	177515 	177514 	177513 	.WORD	-179,	-180,	-181,	-182,	-183,	225,	-10120,	720,	-106,	-153	;699
    226	004232	177532 	000301 	177527 	.WORD	-166,	193,	-169,	-170,	-171,	202,	-173,	211,	-155,	-156	;709
    227	004256	177543 	177517 	177516 	.WORD	-157,	-177,	-178,	-179,	-180,	-181,	-182,	-183,	225,	-10102	;719
    228	004302	000277 	177542 	177541 	.WORD	191,	-158,	-159,	-160,	-161,	-162,	-163,	-164,	-165,	-10103	;729
    229	004326	001334 	023417 	177632 	.WORD	732,	9999,	-102,	-10101,	737,	746,	-10132,	740,	-145,	-10133	;739
    230	004352	001347 	177562 	000250 	.WORD	743,	-142,	168,	-140,	-144,	215,	749,	-141,	168,	-139	;749
    231	004376	177561 	000327 	001407 	.WORD	-143,	215,	775,	791,	-153,	-166,	193,	-169,	-170,	-171	;759
    232	004422	000312 	177523 	000323 	.WORD	202,	-173,	211,	-155,	-156,	-157,	-177,	-178,	-179,	-180	;769
    233	004446	177513 	177512 	177511 	.WORD	-181,	-182,	-183,	225,	-10145,	778,	-151,	-10144,	781,	-152	;779
    234	004472	000250 	000277 	177542 	.WORD	168,	191,	-158,	-159,	-160,	-161,	-162,	-163,	-164,	-165	;789
    235	004516	154134 	000277 	177542 	.WORD	-10148,	191,	-158,	-159,	-160,	-161,	-162,	-163,	-164,	-165	;799
    236	004542	154135 	000000 		.WORD	-10147,	0
    237
LRPTAB	MACRO M1110  21-AUG-78 23:19  PAGE 11
********** PARSE TABLES **********

    239
    240
    241
    242
    243					;****************************************
    244					;*					*
    245					;*					*
    246					;*      STACK POP LIST  ("POP")		*
    247					;*					*
    248					;*					*
    249					;****************************************
    250
    251
    252	004546				POP::
    253
    254	004546	   000 	   001 	   000 	.BYTE	0,	1,	0,	1,	0,	1,	0,	0,	1,	1	;9
    255	004560	   000 	   000 	   001 	.BYTE	0,	0,	1,	1,	0,	0,	1,	2,	1,	0	;19
    256	004572	   000 	   002 	   002 	.BYTE	0,	2,	2,	1,	1,	2,	2,	1,	1,	2	;29
    257	004604	   001 	   001 	   001 	.BYTE	1,	1,	1,	1,	1,	0,	2,	1,	1,	0	;39
    258	004616	   000 	   000 	   000 	.BYTE	0,	0,	0,	0,	0,	0,	0,	0,	0,	0	;49
    259	004630	   000 	   000 	   000 	.BYTE	0,	0,	0,	0,	0,	3,	2,	0,	2,	1	;59
    260	004642	   000 	   000 	   000 	.BYTE	0,	0,	0,	0,	0,	1,	0,	0,	0,	0	;69
    261	004654	   001 	   001 	   003 	.BYTE	1,	1,	3,	2,	1,	0,	0,	0,	0,	1	;79
    262	004666	   000 	   001 	   000 	.BYTE	0,	1,	0,	1,	1,	0,	0,	0,	0,	0	;89
    263	004700	   000 	   000 	   002 	.BYTE	0,	0,	2,	0,	0,	0,	0,	0,	0,	0	;99
    264	004712	   000 	   000 	   002 	.BYTE	0,	0,	2,	1,	0,	1,	1,	0,	0,	0	;109
    265	004724	   000 	   000 	   000 	.BYTE	0,	0,	0,	0,	1,	0,	0,	0,	0,	0	;119
    266	004736	   000 	   001 	   000 	.BYTE	0,	1,	0,	0,	0,	0,	0,	0,	3,	3	;129
    267	004750	   000 	   002 	   001 	.BYTE	0,	2,	1,	2,	0,	1,	0,	0,	0,	2	;139
    268	004762	   003 	   001 	   002 	.BYTE	3,	1,	2,	2,	3,	1,	1,	0,	0,	0	;149
    269	004774	   002 	   001 	   002 	.BYTE	2,	1,	2,	0,	2,	0,	0,	0,	0,	0	;159
    270	005006	   000 	   000 	   000 	.BYTE	0,	0,	0,	0,	0,	0,	0,	1,	1,	0	;169
    271	005020	   000 	   000 	   001 	.BYTE	0,	0,	1,	0,	2,	1,	2,	0,	0,	0	;179
    272	005032	   000 	   000 	   000 	.BYTE	0,	0,	0,	0,	3,	2,	1,	0,	2,	0	;189
    273	005044	   000 	   000 	   002 	.BYTE	0,	0,	2,	0,	0,	0,	2,	0,	1,	3	;199
    274	005056	   003 	   000 	   001 	.BYTE	3,	0,	1,	1,	1,	2,	1,	3,	1,	2	;209
    275	005070	   003 	   000 	   004 	.BYTE	3,	0,	4,	4,	4,	1,	1,	1,	3,	0
    276
    277						.EVEN
LRPTAB	MACRO M1110  21-AUG-78 23:19  PAGE 12
********** PARSE TABLES **********

    279
    280
    281
    282
    283					;****************************************
    284					;*					*
    285					;*					*
    286					;*      LEFT HAND SIDE LIST     ("LHS") *
    287					;*					*
    288					;*					*
    289					;****************************************
    290
    291
    292	005102				LHS::
    293
    294	005102	   000 	   173 	   174 	.BYTE	0,	123,	124,	124,	124,	124,	124,	125,	125,	125	;9
    295	005114	   175 	   175 	   175 	.BYTE	125,	125,	125,	125,	125,	125,	126,	126,	126,	132	;19
    296	005126	   205 	   205 	   205 	.BYTE	133,	133,	133,	133,	127,	127,	128,	128,	135,	135	;29
    297	005140	   207 	   202 	   202 	.BYTE	135,	130,	130,	130,	138,	137,	131,	131,	131,	139	;39
    298	005152	   201 	   201 	   201 	.BYTE	129,	129,	129,	129,	129,	129,	129,	129,	129,	129	;49
    299	005164	   201 	   201 	   201 	.BYTE	129,	129,	129,	129,	129,	129,	129,	129,	129,	129	;59
    300	005176	   201 	   201 	   201 	.BYTE	129,	129,	129,	129,	129,	129,	129,	129,	129,	129	;69
    301	005210	   201 	   201 	   201 	.BYTE	129,	129,	129,	129,	129,	129,	129,	129,	129,	129	;79
    302	005222	   201 	   201 	   201 	.BYTE	129,	129,	129,	129,	129,	129,	129,	143,	143,	143	;89
    303	005234	   217 	   220 	   220 	.BYTE	143,	144,	144,	148,	148,	148,	148,	142,	145,	147	;99
    304	005246	   223 	   223 	   222 	.BYTE	147,	147,	146,	146,	141,	141,	141,	149,	149,	149	;109
    305	005260	   225 	   225 	   225 	.BYTE	149,	149,	149,	149,	140,	140,	140,	140,	140,	140	;119
    306	005272	   214 	   214 	   214 	.BYTE	140,	140,	140,	154,	150,	150,	150,	151,	151,	151	;129
    307	005304	   234 	   234 	   234 	.BYTE	156,	156,	156,	156,	152,	152,	157,	157,	157,	158	;139
    308	005316	   236 	   236 	   236 	.BYTE	158,	158,	158,	158,	158,	158,	153,	153,	159,	160	;149
    309	005330	   240 	   240 	   240 	.BYTE	160,	160,	160,	136,	136,	163,	163,	163,	162,	162	;159
    310	005342	   242 	   242 	   242 	.BYTE	162,	162,	162,	162,	162,	162,	161,	161,	161,	155	;169
    311	005354	   233 	   233 	   233 	.BYTE	155,	155,	155,	155,	155,	155,	155,	164,	164,	164	;179
    312	005366	   244 	   245 	   245 	.BYTE	164,	165,	165,	165,	166,	166,	166,	167,	167,	168	;189
    313	005400	   250 	   206 	   206 	.BYTE	168,	134,	134,	134,	134,	134,	169,	169,	169,	169	;199
    314	005412	   251 	   251 	   251 	.BYTE	169,	169,	169,	169,	169,	169,	169,	171,	171,	171	;209
    315	005424	   254 	   254 	   254 	.BYTE	172,	172,	172,	172,	172,	172,	172,	172,	170,	0
    316						.EVEN
LRPTAB	MACRO M1110  21-AUG-78 23:19  PAGE 13
********** PARSE TABLES **********

    318
    319
    320
    321
    322					;****************************************
    323					;*					*
    324					;*					*
    325					;*	SEMANTIC NAMES	("SEM")		*
    326					;*					*
    327					;*					*
    328					;****************************************
    329
    330
    331	005436				SEM::
    332
    333	005436	000000G	000000G	000000G	.WORD	NULL,	GOAL,	MTXT1,	MTXT2,	MTXT3,	MTXT4,	ERRMRS,	STAT1,	NULL,	NULL	;9
    334	005462	000000G	000000G	000000G	.WORD	NULL,	STAT4,	NULL,	ERRDOL,	NULL,	NULL,	NULL,	NULL,	ERRMST,	MINST1	;19
    335	005506	000000G	000000G	000000G	.WORD	OPRAND,	OPRAND,	ERRREF,	ERRREF,	LBL1,	LBL2,	ASSGN1,	ERRASN,	ASSHD1,	ASSHD2	;29
    336	005532	000000G	000000G	000000G	.WORD	ASSHD3,	IFSPL,	IF,	IFSYNT,	NULL,	IFHD1,	IIF1,	IIF2,	ERRIIF,	IIF	;39
    337	005556	000000G	000000G	000000G	.WORD	MACRO,	IFF,	IFT,	IFTF,	IRP,	IRPC,	NULL,	NULL,	DSABL,	ENABL	;49
    338	005602	000000G	000000G	000000G	.WORD	LIST,	NLIST,	PSECT,	CSAVE,	CRESTO,	ENTRY1,	ENTRY2,	ALIGN1,	ALIGN2,	ALIGN2	;59
    339	005626	000000G	000000G	000000G	.WORD	DELETE,	LIBRY,	MCALL,	MEXIT,	NARG,	NCHR,	PAGE,	SBTTL,	TITLE,	IDENT	;69
    340	005652	000000G	000000G	000000G	.WORD	XFER,	VECTR0,	VECTR1,	VECTR2,	NULL,	ENDPRG,	BDEND1,	BDEND2,	ENDC,	REPT	;79
    341	005676	000000G	000000G	000000G	.WORD	NTYPE1,	NTYPE2,	ERROR1,	ERROR2,	DIRREF,	ODD,	EVEN,	DEBUG,	GLOBAL,	EXTRN	;89
    342	005722	000000G	000000G	000000G	.WORD	WEAK,	IDLIST,	IDLIST,	RFHD1,	RFHD2,	RFHD4,	RFHD8,	ALIGN,	REPTHD,	ERROR	;99
    343	005746	000000G	000000G	000000G	.WORD	PRINT,	WARN,	NTHD1,	NTHD2,	BSTAT1,	BSTAT2,	ERRBLK,	BLKLNG,	BLKBYT,	BLKQUD	;109
    344	005772	000000G	000000G	000000G	.WORD	BLKLNG,	BLKLNG,	BLKQUD,	BLKWRD,	NULL,	DATNUL,	NULL,	NULL,	PACKED,	FLOAT	;119
    345	006016	000000G	000000G	000000G	.WORD	DOUBLE,	QUDSTR,	DATNUL,	QUAD,	BYTE,	LONG,	WORD,	DALST1,	DALST2,	ERRDAR	;129
    346	006042	000000G	000000G	000000G	.WORD	DATARG,	DATARG,	ERRDAR,	ERRDAR,	CHARHD,	CHARHD,	ASCII,	ASCIZ,	ASCIC,	CHRARG	;139
    347	006066	000000G	000000G	000000G	.WORD	CHRARG,	CHRNUL,	CHRNUL,	ERRCHA,	ERRCHA,	ERRCHA,	NULL,	ERRADR,	ADDRES,	STOADR	;149
    348	006112	000000G	000000G	000000G	.WORD	STOADR,	ERRADR,	ERRADR,	NULL,	EXPBIN,	OPCOM,	OPSAME,	OPNEG,	OPPLUS,	OPMINU	;159
    349	006136	000000G	000000G	000000G	.WORD	OPMUL,	OPDIV,	OPAND,	OPOR,	OPXOR,	OPASH,	NULL,	PRMUN,	ERREXP,	PRMSYM	;169
    350	006162	000000G	000000G	000000G	.WORD	PRMPC,	PRMINT,	PRMRDX,	NULL,	PRMBRK,	ERREXP,	ERREXP,	RDXHEX,	RDXDEC,	RDXBIN	;179
    351	006206	000000G	000000G	000000G	.WORD	RDXOCT,	NUMASC,	NUMFLT,	NULL,	MASK,	MASKNL,	MASKX,	RGLST1,	REGLST,	NULL	;189
    352	006232	000000G	000000G	000000G	.WORD	NULL,	REF1,	LITERL,	REF2,	REF3,	ERRREF,	RDEFER,	AUTOI,	AUTOII,	AUTOI3	;199
    353	006256	000000G	000000G	000000G	.WORD	AUTODC,	DISP,	DISPI,	GENLDS,	ERRBRF,	ERRBRF,	ERRBRF,	AINC1,	AINC2,	AINC3	;209
    354	006302	000000G	000000G	000000G	.WORD	DISPL1,	DISPL2,	DISPL3,	DISPL4,	DISPL5,	DISPL6,	DISPL7,	DISPL8,	INDEX,	NULL
    355
    356		000010 			.RADIX 8
    357		000001 			.END
LRPTAB	MACRO M1110  21-AUG-78 23:19  PAGE 13-1
SYMBOL TABLE

ACTION  001442RG    002	DISPL1= ****** G 	IFT   = ****** G 	NTYPE2= ****** G 	REPTHD= ****** G
ADDRES= ****** G 	DISPL2= ****** G 	IFTF  = ****** G 	NULL  = ****** G 	RFHD1 = ****** G
AINC1 = ****** G 	DISPL3= ****** G 	IIF   = ****** G 	NUMASC= ****** G 	RFHD2 = ****** G
AINC2 = ****** G 	DISPL4= ****** G 	IIF1  = ****** G 	NUMFLT= ****** G 	RFHD4 = ****** G
AINC3 = ****** G 	DISPL5= ****** G 	IIF2  = ****** G 	ODD   = ****** G 	RFHD8 = ****** G
ALIGN = ****** G 	DISPL6= ****** G 	INDEX = ****** G 	OPAND = ****** G 	RGLST1= ****** G
ALIGN1= ****** G 	DISPL7= ****** G 	IRP   = ****** G 	OPASH = ****** G 	RGTANG= 000076
ALIGN2= ****** G 	DISPL8= ****** G 	IRPC  = ****** G 	OPCOM = ****** G 	SBTTL = ****** G
ASCIC = ****** G 	DOUBLE= ****** G 	LBL1  = ****** G 	OPDIV = ****** G 	SEM     005436RG    002
ASCII = ****** G 	DSABL = ****** G 	LBL2  = ****** G 	OPMINU= ****** G 	SEMI  = 000073
ASCIZ = ****** G 	ENABL = ****** G 	LF    = 000012   	OPMUL = ****** G 	SPACE = 000040
ASSGN1= ****** G 	ENDC  = ****** G 	LFTANG= 000074   	OPNEG = ****** G 	STAT1 = ****** G
ASSHD1= ****** G 	ENDPRG= ****** G 	LHS     005102RG    002	OPOR  = ****** G 	STAT4 = ****** G
ASSHD2= ****** G 	ENTRY1= ****** G 	LIBRY = ****** G 	OPPLUS= ****** G 	STOADR= ****** G
ASSHD3= ****** G 	ENTRY2= ****** G 	LIST  = ****** G 	OPRAND= ****** G 	SYMCHR= 000012
AUTODC= ****** G 	ERRADR= ****** G 	LITERL= ****** G 	OPSAME= ****** G 	SYMFLA= 000002
AUTOI = ****** G 	ERRASN= ****** G 	LONG  = ****** G 	OPXOR = ****** G 	SYMLEN= 000011
AUTOII= ****** G 	ERRBLK= ****** G 	LOWCAS= 000140   	PACKED= ****** G 	SYMLIN= 000000
AUTOI3= ****** G 	ERRBRF= ****** G 	LPTLEN= 000074   	PAGE  = ****** G 	SYMLST  000000RG    002
BDEND1= ****** G 	ERRCHA= ****** G 	MACRO = ****** G 	POP     004546RG    002	SYMMAX= 000017
BDEND2= ****** G 	ERRDAR= ****** G 	MASK  = ****** G 	PRINT = ****** G 	SYMSEG= 000010
BLKBYT= ****** G 	ERRDOL= ****** G 	MASKNL= ****** G 	PRMBRK= ****** G 	SYMVL1= 000004
BLKLNG= ****** G 	ERREXP= ****** G 	MASKX = ****** G 	PRMINT= ****** G 	SYMVL2= 000006
BLKQUD= ****** G 	ERRIIF= ****** G 	MCALL = ****** G 	PRMPC = ****** G 	S.ABS = 004000
BLKWRD= ****** G 	ERRMRS= ****** G 	MEXIT = ****** G 	PRMRDX= ****** G 	S.ASN = 000200
BLNK  = 000040   	ERRMST= ****** G 	MINST1= ****** G 	PRMSYM= ****** G 	S.DBG = 002000
BSTAT1= ****** G 	ERROR = ****** G 	MTXT1 = ****** G 	PRMUN = ****** G 	S.DF  = 100000
BSTAT2= ****** G 	ERROR1= ****** G 	MTXT2 = ****** G 	PSECCH= 000020   	S.EPT = 000100
BYTE  = ****** G 	ERROR2= ****** G 	MTXT3 = ****** G 	PSECOP= 000016   	S.EXTN= 010000
CHARHD= ****** G 	ERRREF= ****** G 	MTXT4 = ****** G 	PSECT = ****** G 	S.GLOB= 020000
CHRARG= ****** G 	EVEN  = ****** G 	M.ARGC= 000014   	PSECV1= 000012   	S.LOCL= 001000
CHRNUL= ****** G 	EXPBIN= ****** G 	M.ARGS= 000016   	PSECV2= 000014   	S.ODBG= 000040
COMMA = 000054   	EXTRN = ****** G 	M.END = 000012   	QUAD  = ****** G 	S.REF = 000400
CR    = 000015   	FF    = 000014   	M.GETL= 000004   	QUDSTR= ****** G 	S.TKMS= 000377
CRESTO= ****** G 	FLOAT = ****** G 	M.IFLV= 000006   	RDEFER= ****** G 	S.WEAK= 040000
CSAVE = ****** G 	GENLDS= ****** G 	M.IFVL= 000010   	RDXBIN= ****** G 	TAB   = 000011
DALST1= ****** G 	GLOBAL= ****** G 	M.LINK= 000000   	RDXDEC= ****** G 	TITLE = ****** G
DALST2= ****** G 	GOAL  = ****** G 	M.NXTL= 000002   	RDXHEX= ****** G 	VECTR0= ****** G
DATARG= ****** G 	IDENT = ****** G 	NARG  = ****** G 	RDXOCT= ****** G 	VECTR1= ****** G
DATNUL= ****** G 	IDLIST= ****** G 	NCHR  = ****** G 	REF1  = ****** G 	VECTR2= ****** G
DEBUG = ****** G 	IF    = ****** G 	NLIST = ****** G 	REF2  = ****** G 	WARN  = ****** G
DELETE= ****** G 	IFF   = ****** G 	NTHD1 = ****** G 	REF3  = ****** G 	WEAK  = ****** G
DIRREF= ****** G 	IFHD1 = ****** G 	NTHD2 = ****** G 	REGLST= ****** G 	WORD  = ****** G
DISP  = ****** G 	IFSPL = ****** G 	NTYPE1= ****** G 	REPT  = ****** G 	XFER  = ****** G
DISPI = ****** G 	IFSYNT= ****** G

. ABS.	000000	   000
      	000000	   001
TABLES	006326	   002
ERRORS DETECTED:  0

VIRTUAL MEMORY USED:  2193 WORDS  ( 9 PAGES)
DYNAMIC MEMORY:  2772 WORDS  ( 10 PAGES)
ELAPSED TIME:  00:00:18
OBJ$:LRPTAB,LIS$:LRPTAB/-SP=SRC$:COMMON,LRPTAB
