JBCMOUT         - JOB CONTROLLER MESSAGE OUTPUT ROUTINE          22-AUG-1978 00:43:22   VAX-11 MACRO X0.3-11               Page   0
TABLE OF CONTENTS

   (2)      39  DECLARATIONS
   (3)     153  ERROR MESSAGE HANDLER
   (3)     203  FATAT EXCEPTION HANDLER
   (4)     304  FORMAT AND OUTPUT A MESSAGE
   (5)     359  JBC ERROR/MESSAGE OUTPUT
JBCMOUT         - JOB CONTROLLER MESSAGE OUTPUT ROUTINE          22-AUG-1978 00:43:22   VAX-11 MACRO X0.3-11               Page   1
V01                                                                                                                              (1)

                                     0000     1
                                     0000     2 	.TITLE	JBCMOUT - JOB CONTROLLER MESSAGE OUTPUT ROUTINE
                                     0000     3 	.IDENT	/V01/
                                     0000     4
                                     0000     5 ;
                                     0000     6 ; COPYRIGHT (C) 1977
                                     0000     7 ; DIGITAL EQUIPMENT CORPORATION, MAYNARD, MASSACHUSETTS 01754
                                     0000     8 ;
                                     0000     9 ; THIS SOFTWARE IS FURNISHED  UNDER A LICENSE FOR USE ONLY ON A SINGLE
                                     0000    10 ; COMPUTER  SYSTEM AND  MAY BE  COPIED ONLY WITH  THE INCLUSION OF THE
                                     0000    11 ; ABOVE COPYRIGHT NOTICE.  THIS SOFTWARE, OR ANY OTHER COPIES THEREOF,
                                     0000    12 ; MAY NOT BE PROVIDED OR  OTHERWISE MADE AVAILABLE TO ANY OTHER PERSON
                                     0000    13 ; EXCEPT FOR USE ON SUCH SYSTEM AND TO ONE WHO AGREES TO THESE LICENSE
                                     0000    14 ; TERMS.  TITLE TO AND  OWNERSHIP OF THE  SOFTWARE  SHALL AT ALL TIMES
                                     0000    15 ; REMAIN IN DEC.
                                     0000    16 ;
                                     0000    17 ; THE INFORMATION IN THIS SOFTWARE IS SUBJECT TO CHANGE WITHOUT NOTICE
                                     0000    18 ; AND SHOULD  NOT BE CONSTRUED  AS A COMMITMENT  BY DIGITAL  EQUIPMENT
                                     0000    19 ; CORPORATION.
                                     0000    20 ;
                                     0000    21 ; DEC ASSUMES  NO  RESPONSIBILITY  FOR  THE USE OR  RELIABILITY OF ITS
                                     0000    22 ; SOFTWARE ON EQUIPMENT WHICH IS NOT SUPPLIED BY DEC.
                                     0000    23
                                     0000    24 ;++
                                     0000    25 ; FACILITY:	JOB CONTROLLER
                                     0000    26 ;
                                     0000    27 ; ABSTRACT:	THIS ROUTINE FORMATS AND OUTPUTS MESSAGES
                                     0000    28 ;
                                     0000    29 ; ENVIRONMENT:	USER MODE NATIVE CODE
                                     0000    30 ;
                                     0000    31 ; AUTHOR:	W.H.BROWN, CREATION DATE:
                                     0000    32 ;
                                     0000    33 ; MODIFIED BY:
                                     0000    34 ;
                                     0000    35 ;	, : VERSION
                                     0000    36 ; 01	-
                                     0000    37 ;--
JBCMOUT         - JOB CONTROLLER MESSAGE OUTPUT ROUTINE          22-AUG-1978 00:43:22   VAX-11 MACRO X0.3-11               Page   2
V01             DECLARATIONS                                                                                                     (2)

                                     0000    39 	.SBTTL	DECLARATIONS
                                     0000    40 ;
                                     0000    41 ; INCLUDE FILES:
                                     0000    42 ;
                                     0000    43 ;	[235,10]JOBCTL/ML
                                     0000    44 ;
                                     0000    45 ; EQUATED SYMBOLS:
                                     0000    46 ;
                                     0000    47 	JBCPARDEF			; DEFINE JOB CONTROLLER PARAMETERS
                                     0000    48 	JBCQUEDEF			; DEFINE QUEUE OFFSETS
                                     0000    49 	$CHFDEF				; DEFINE CONDITION HANDLING FRAME VALUES
                                     0000    50 	$STSDEF				; DEFINE STATUS LONG WORD VALUES
                                     0000    51 	$OPCDEF				; OPERATOR CODE DEFINITIONS
                           00000050  0000    52 	OPRDSIZ = 80			; LENGTH OF BUFFER FOR MESSAGE TO OPER
                                     0000    53
                                     0000    54 ;
                                     0000    55 ; MACROS:
                                     0000    56 ;
                                     0000    57 ; MACRO TO GENERATE AN ENTRY IN THE ERROR MESSAGE TABLE
                                     0000    58 ;
                                     0000    59 ;	JBC_ERR	ERR,MESG,GETERR=NO,SEVERITY=WARN
                                     0000    60 ;
                                     0000    61 ; WHERE:
                                     0000    62 ;
                                     0000    63 ;	ERR = THE NAME OF THE ERROR
                                     0000    64 ;	MESG =	THE SYSTEM ERROR CODE ID FIELD
                                     0000    65 ;	GETERR = A FLAG TO INDICATE IF THIS HAS AN ERROR CAUSE CODE IN R0
                                     0000    66 ;	SEVERITY = SEVERITY
                                     0000    67 ;
                                     0000    68
                                     0000    69 	.MACRO	JBC_ERR	ERR,MESG,GETERR=NO,SEVERITY=WARN
                                     0000    70 ERR==JBC_ERR_NUM
                                     0000    71 	.$$. = 0			; DEFAULT SEVERITY IS WARNING
                                     0000    72 .IIF IDN <SEVERITY><ERROR>, .$$. = 2	; SET "ERROR" SEVERITY
                                     0000    73 .IIF IDN <SEVERITY><FATAL>, .$$. = 4	; SET "SEVER" SEVERITY
                                     0000    74
                                     0000    75 	.WORD	<<JBC$_'MESG ! .$$.> & ^XFFFF>
                                     0000    76
                                     0000    77 .IIF IDN <GETERR><YES>,	JBC_GETERR = JBC_GETERR!<1 @ JBC_ERR_NUM>
                                     0000    78
                                     0000    79 JBC_ERR_NUM = JBC_ERR_NUM + 1
                                     0000    80
                                     0000    81 	.ENDM
                                     0000    82
                                     0000    83 ;
                                     0000    84 ; MACRO TO FORMAT AND OUTPUT A MESSAGE
                                     0000    85 ;
                                     0000    86
                                     0000    87 	.MACRO	FAOUT	MSG,CNT
                                     0000    88 	BSBW	FAOUT1
                                     0000    89 	.BYTE	<CNT+3>
                                     0000    90 	.WORD	<MSG-.-2>
                                     0000    91 	.ENDM
                                     0000    92 ;
                                     0000    93 ; OWN STORAGE:
                                     0000    94 ;
                                     0000    95 ; IMPURE DATA AREA FOR OPERATOR MESSAGES
JBCMOUT         - JOB CONTROLLER MESSAGE OUTPUT ROUTINE          22-AUG-1978 00:43:22   VAX-11 MACRO X0.3-11               Page   3
V01             DECLARATIONS                                                                                                     (2)

                                     0000    96 ;
                                     0000    97 	IMPURE_DATA
                                     0000    98
                                 03  0000    99 SNDOPR:	.BYTE	OPC$_RQ_RQST		; REQUEST CODE
                               0001  0001   100 	.WORD	OPC$M_NM_CENTRL		; REPORT TO CENTRAL OPERATOR ONLY
                                 00  0003   101 	.BYTE	0
                           00000000  0004   102 	.LONG	0			; NO REQUEST ID
                           00000008  0008   103 OPRHDR = . - SNDOPR
                           00000058  0008   104 OPRDATA:.BLKB	OPRDSIZ			; LENGTH OF BUFFER FOR MESSAGE
                                     0058   105 ;
                                     0058   106 	PURE_SECTION	JBC$MSGOUT,ALIGN=LONG
                                     0000   107
                                     0000   108 ;
                                     0000   109 ; SET UP INTERNAL ERROR DATA BASE
                                     0000   110 ;
                                     0000   111
                           00000000  0000   112 	JBC_ERR_NUM = 0			; INITIAL ERROR NUMBER
                           00000000  0000   113 	JBC_GETERR = 0			; INITIALIZE GETERR FLAG
                                     0000   114
                                     0000   115 JBC$AW_ERR_CODE:			; START OF ERROR CODE ARRAY
                                     0000   116
                                     0000   117 	JBC_ERR	MAILBOX_ASSIGN,MBASGN,YES,FATAL ; ERROR ASSIGNING INTERNAL MAILBOX
                                     0002   118 	JBC_ERR	MAILBOX_READ,MBREAD,YES,FATAL ; ERROR READING INTERNAL MAILBOX
                                     0004   119 	JBC_ERR	CREATE_PROC,PRCREAT,YES	; ERROR CREATING PROCESS
                                     0006   120 	JBC_ERR	INVALID_MESG,INVMSG	; INVALID MESSAGE RECEIVED
                                     0008   121 	JBC_ERR	RESPONCE_ERR,SNDRESP,YES ; ERROR SENDING RESPONCE TO PROCESS
                                     000A   122 	JBC_ERR	QUEUE_COUNT,QUECNT	; PRINT QUEUE COUNT IS INCORRECT
                                     000C   123 	JBC_ERR	MULT_ALLOCATE,MULTREC	; QUEUE RECORD IN MULTIPLE LISTS
                                     000E   124 	JBC_ERR	LOST_RECORDS,LOSTREC	; THE QUEUE HAS MISSING RECORDS
                                     0010   125 	JBC_ERR	ASSIGN_SYMB_MB,SYMBASN,YES ; ASSIGN ERROR ON SYMBIONT MAILBOX
                                     0012   126 	JBC_ERR	WRITE_SYMB_MB,SYMBWRT,YES ; ERROR WRITING TO SYMBIONT MAILBOX
                                     0014   127 	JBC_ERR	SCT_SEARCH_FAIL,SCTERR	; SYMBIONT CONTROL TABLE SEARCH FAILED
                                     0016   128 	JBC_ERR	GBL_SEC_ERR,QUEERR,YES	; ERROR CREATING/MAPPING QUEUE
                                     0018   129 	JBC_ERR	DASSGN_MB,MBDEAS,YES	; DEASSIGN OF MAILBOX
                                     001A   130 	JBC_ERR	ILL_SYM_STATE,INVSCT	; ILLEGAL SYMBIONT STATE
                                     001C   131 	JBC_ERR	UNX_SYM_DEL,SYMDEL	; UNEXPECTED SYMBIONT DELETE
                                     001E   132 	JBC_ERR	ACNT_FIL_OPN,ACNTOPN,YES ; ERROR OPENNING ACCOUNTING FILE
                                     0020   133 	JBC_ERR	ACNT_FIL_RIT,ACNTWRT,YES ; ERROR WRITING ACCOUNT FILE
                                     0022   134 	JBC_ERR	QUE_UPD,QUEUPD,YES	; ERROR UPDATING THE SYSTEM QUEUE
                                     0024   135
                                     0024   136 JBC$L_GETERR:				; SET GET ERROR FLAG BIT ARRAY
                           00039B17  0024   137 	.LONG	JBC_GETERR		;
                                     0028   138
                                     0028   139 ERRMSGDEV:				; NAME OF DEVICE FOR ERROR OUTPUT
                                     0028   140 	STRING_DESC	<OPA0>		; LOGICAL DEVICE NAME
                                     0034   141
                                     0034   142 ;
                                     0034   143 ; DATA FOR FATAL EXCEPTION ROUTINE
                                     0034   144 ;
                                     0034   145
46 2A 20 4C 54 43 42 4F 4A 20 20 00' 0034   146 HDRMSG:	.ASCIC	\  JOBCTL *FATAL* EXCEPTION !#(10XL), @!XL, PSL=!XL\
54 50 45 43 58 45 20 2A 4C 41 54 41  0040
29 4C 58 30 31 28 23 21 20 4E 4F 49  004C
3D 4C 53 50 20 2C 4C 58 21 40 20 2C  0058
                           4C 58 21  0064
                                 32  0034
20 53 52 45 54 53 49 47 45 52 20 00' 0067   147 REGMSG:	.ASCIC	\ REGISTERS !UB-!UB	  !6(10XL)\
JBCMOUT         - JOB CONTROLLER MESSAGE OUTPUT ROUTINE          22-AUG-1978 00:43:22   VAX-11 MACRO X0.3-11               Page   4
V01             DECLARATIONS                                                                                                     (2)

36 21 20 20 09 42 55 21 2D 42 55 21  0073
                  29 4C 58 30 31 28  007F
                                 1D  0067
4C 58 30 31 28 23 21 20 20 20 20 00' 0085   148 STKMSG:	.ASCIC	\    !#(10XL)\
                                 29  0091
                                 0C  0085
                                     0092   149 OLDNAM:	STRING_DESC <JBC_OLD>
                                     00A1   150 JBCIMG:	STRING_DESC <SYS$SYSTEM:JOBCTL.EXE>
4D 55 44 20 4B 43 41 54 53 20 20 00' 00BE   151 STKHDR:	.ASCIC	\  STACK DUMP:\
                              3A 50  00CA
                                 0D  00BE
JBCMOUT         - JOB CONTROLLER MESSAGE OUTPUT ROUTINE          22-AUG-1978 00:43:22   VAX-11 MACRO X0.3-11               Page   5
V01             ERROR MESSAGE HANDLER                                                                                            (3)

                                     00CC   153 	.SBTTL	ERROR MESSAGE HANDLER
                                     00CC   154 ;++
                                     00CC   155 ; FUNCTIONAL DESCRIPTION:
                                     00CC   156 ;
                                     00CC   157 ;	THIS ROUTINE IS ENTERED BY THE CHANGE MODE DISPATCHER
                                     00CC   158 ;	WHEN A CHANGE MODE TO USER INSTRUCTION HAS BEEN EXECUTED.
                                     00CC   159 ;	THIS IS THE MEANS FOR THE JOB CONTROLLER TO REPORT ALL
                                     00CC   160 ;	ERRORS.
                                     00CC   161 ;
                                     00CC   162 ; CALLING SEQUENCE:
                                     00CC   163 ;
                                     00CC   164 ;	CALLED SUCH THAT AN REI WILL RETURN CONTROL TO
                                     00CC   165 ;	POINT OF THE CHANGE MODE INSTRUCTION AFTER CLEARING
                                     00CC   166 ;	THE ARGUMENT LONG WORD FROM THE STACK.
                                     00CC   167 ;
                                     00CC   168 ; INPUT PARAMETERS:
                                     00CC   169 ;
                                     00CC   170 ;	(SP) IS CHANGE MODE ARGUEMENT
                                     00CC   171 ;	4(SP) IS PC OF CHANGE MODE INSTRUCTION
                                     00CC   172 ;	8(SP) IS PSL OF CHANGE MODE INSTRUCTION
                                     00CC   173 ;	R11 HAS ADDRESS JOB CONTROLLER DATA BLOCK
                                     00CC   174 ;
                                     00CC   175 ; OUTPUT PARAMETERS:
                                     00CC   176 ;
                                     00CC   177 ;	ERROR MESSAGE IS DISPLAYED
                                     00CC   178 ;
                                     00CC   179 ; COMPLETION CODES:	NONE
                                     00CC   180 ;
                                     00CC   181 ; SIDE EFFECTS:
                                     00CC   182 ;
                                     00CC   183 ;	AN IMAGE EXIT IS EFFECTED IF THE ERROR WAS FATAL
                                     00CC   184 ;
                                     00CC   185 ;--
                                     00CC   186
                                     00CC   187 JBC$ERRORMSG::				; ENTER HERE AS VIA TRAP
                          02     BA  00CC   188 	POPR	#^M<R1>			; GET INTERNAL ERROR NUMBER
                          03     BB  00CE   189 	PUSHR	#^M<R0,R1>		; SAVE R0 AND INTERNAL ERROR NUMBER
            50       FF2B CF41   3C  00D0   190 	MOVZWL	JBC$AW_ERR_CODE[R1],R0	; GET INTERNAL ERROR CODE
                                 F0  00D6   191 	INSV	#<JBC$_NORMAL@-STS$V_FAC_NO>,-; INSERT JBC FACILITY NUMBER
            10            04         00D7   192 		#STS$V_FAC_NO,#STS$S_FAC_NO,R0 ; INTO ERROR MESSAGE NUMBER
            50            0C         00D9
                          0188   30  00DB   193 	BSBW	JBC$SYSMSG		; PRINT MESSAGE FOR SYSTEM MESSAGE FILE
            50            6E     7D  00DE   194 	MOVQ	(SP),R0			; RESTORE ERROR CODE AND SAVED R0
       FF3E CF            51     E1  00E1   195 	BBC	R1,JBC$L_GETERR,10$	; BR IF R0 IS NOT A SYSTEM ERROR CODE
                          03         00E6
                          017C   30  00E7   196 	BSBW	JBC$SYSMSG		; PRINT THE SYSTEM MESSAGE
                          03     BA  00EA   197 10$:	POPR	#^M<R0,R1>		; GET INTERNAL ERROR NUMBER AND R0
            51       FF0F CF41   3C  00EC   198 	MOVZWL	JBC$AW_ERR_CODE[R1],R1	; GET INTERNAL ERROR CODE BACK
            51            02     E0  00F2   199 	BBS	#2,R1,20$		; BR IF FATAL BIT IS SET
                          01         00F5
                                 02  00F6   200 	REI				;
                                     00F7   201 20$:	$EXIT_S	R0			; EXIT WITH ERROR
JBCMOUT         - JOB CONTROLLER MESSAGE OUTPUT ROUTINE          22-AUG-1978 00:43:22   VAX-11 MACRO X0.3-11               Page   6
V01             FATAT EXCEPTION HANDLER                                                                                          (3)

                                     0100   203 	.SBTTL	FATAT EXCEPTION HANDLER
                                     0100   204 ;++
                                     0100   205 ; FUNCTIONAL DESCRIPTION:
                                     0100   206 ;
                                     0100   207 ;	THIS ROUTINE IS ENTERED WHEN THE JOB CONTROLLER GETS AN EXCEPTION.
                                     0100   208 ;	IT PRINTS THE CONTEXT OF THE ERROR, STARTS A NEW INCARNATION
                                     0100   209 ;	OF THE JOB CONTROLLER, THEN DELETES ITSELF.
                                     0100   210 ;
                                     0100   211 ; CALLING SEQUENCE:
                                     0100   212 ;
                                     0100   213 ;	ENTER VIA A CALL INSTRUCTION FROM THE EXCEPTION DISPATCHER
                                     0100   214 ;
                                     0100   215 ; INPUT PARAMETERS:
                                     0100   216 ;
                                     0100   217 ;	THE EXCEPTION ARGUMENT LIST
                                     0100   218 ;
                                     0100   219 ; OUTPUT PARAMETERS:	NONE
                                     0100   220 ;
                                     0100   221 ; COMPLETION CODES:	NONE
                                     0100   222 ;
                                     0100   223 ; SIDE EFFECTS:
                                     0100   224 ;
                                     0100   225 ;	AN IMAGE EXIT IS EFFECTED.
                                     0100   226 ;
                                     0100   227 ;--
                                     0100   228 	.ENABL	LSB
                                     0100   229
                               0FFC' 0100   230 	.ENTRY	JBC$EXCEPTION,^M<R2,R3,R4,R5,R6,R7,R8,R9,R10,R11>
                                     0102   231
                                     0102   232 	$SETAST_S  #0			; DISABLE AST'S
            5B       0000'CF     9E  010B   233 	MOVAB	W^JBC$T_DATABLK,R11	; SET JOB_CONTROLLER DATA BLOCK
            59         04 AC     D0  0110   234 	MOVL	CHF$L_SIGARGLST(AP),R9	; ADDRESS OF SIGNAL ARRAY
            58         08 AC     D0  0114   235 	MOVL	CHF$L_MCHARGLST(AP),R8	; AND THE MECHANISM ARRAY
            50            69     D0  0118   236 	MOVL	(R9),R0			; GET SIGNAL ARRAY COUNT
            57         04 A940   DE  011B   237 	MOVAL	4(R9)[R0],R7		; GET TOP OF EXCEPTION STACK
                          6940   DD  0120   238 10$:	PUSHL	(R9)[R0]		; PUSH SIGNAL ARGUMENTS
            FA            50     F5  0123   239 	SOBGTR	R0,10$			; LOOP IF MORE
            69            02     C3  0126   240 	SUBL3	#2,(R9),-(SP)		; SET ERROR ARGUMENT COUNT
                          7E         0129
            69            04     C1  012A   241 	ADDL3	#<1+3>,(R9),R1		; SET TOTAL FAO ARGUMENT COUNT
                          51         012D
                          00EA   30  012E   242 	BSBW	FAOUT0			; FORMAT AND OUTPUT MESSAGE
                               FF01  0131   243 	.WORD	<HDRMSG-.-2>		; OFFSET TO MESSAGE FORMAT STRING
            51         3C AD     DE  0133   244 	MOVAL	20+<10*4>(FP),R1	; POINT AT REGISTERS SAVED BY CALL
            50            0A     D0  0137   245 	MOVL	#10,R0			; SET NUMBER OF REGISTERS SAVED
                          71     DD  013A   246 20$:	PUSHL	-(R1)			; PUT REGISTERS IN STACK IN PROPER ORDER
            FB            50     F5  013C   247 	SOBGTR	R0,20$			; LOOP
            7E         0C A8     7D  013F   248 	MOVQ	CHF$L_MCH_SAVR0(R8),-(SP) ; NOW PUSH R0 AND R1
                          05     DD  0143   249 	PUSHL	#5			; HI REQISTER
                          00     DD  0145   250 	PUSHL	#0			; LO REGISTER
                                     0147   251 	FAOUT	REGMSG,8		; PRINT RGISTER 0-5
                          0B     DD  014D   252 	PUSHL	#11			; HI REGISTER
                          06     DD  014F   253 	PUSHL	#6			; LO REGISTER
                                     0151   254 	FAOUT	REGMSG,8		; NOW REGISTERS 6-11
            51       FF63 CF     9E  0157   255 	MOVAB	STKHDR,R1		; SET STACK DUMP PREFIX
                          00F3   30  015C   256 	BSBW	TYPE			; PRINT THAT
            51            04     D0  015F   257 30$:	MOVL	#4,R1			; SET STACK FRAME DUMP LOOP COUNT
JBCMOUT         - JOB CONTROLLER MESSAGE OUTPUT ROUTINE          22-AUG-1978 00:43:22   VAX-11 MACRO X0.3-11               Page   7
V01             FATAT EXCEPTION HANDLER                                                                                          (3)

         04 A8            57     D1  0162   258 40$:	CMPL	R7,CHF$L_MCH_FRAME(R8)	; DUMP UP TO THE HANDLER FRAME?
                          05     1E  0166   259 	BGEQU	50$			; IF YES - STOP PRINTING
                          87     DD  0168   260 	PUSHL	(R7)+			; PUSH A STACK FRAME VALUE
            F5            51     F5  016A   261 	SOBGTR	R1,40$			; DUMP 4 LOCATIONS
            04            51     C3  016D   262 50$:	SUBL3	R1,#4,-(SP)		; SET NUMBER OF LOCATIONS TO PRINT
                          7E         0170
                          0F     13  0171   263 	BEQL	60$			; BR IF NOTHING TO PRINT
            6E            04     C1  0173   264 	ADDL3	#<3+1>,(SP),R1		; SET TOTAL FAO COUNT
                          51         0176
                          00A1   30  0177   265 	BSBW	FAOUT0			; PRINT THE STACK
                               FF09  017A   266 	.WORD	<STKMSG-.-2>		; FORMAT STRING
         04 A8            57     D1  017C   267 	CMPL	R7,CHF$L_MCH_FRAME(R8)	; ALL DONE?
                          DD     1F  0180   268 	BLSSU	30$			; BR IF NO - PRINT SOME MORE
                                     0182   269 60$:					; REF
                                     0182   270 ;
                                     0182   271 ; NOW CLEAN UP PRIOR TO STARTING A NEW COPY OF JOBCTL
                                     0182   272 ;
                                     0182   273
                                     0182   274 JBC$RESTART::				; START A NEW JOB CONTROLLER
                                     0182   275 	$SETAST_S  #0			; MAKE SURE AST'S ARE OFF
            5A         18 AB     D0  018B   276 	MOVL	JCD_A_QUEBASE(R11),R10	; MAKE SURE BASE OF QUEUE IS HERE
                          14     13  018F   277 	BEQL	65$			; BR IF THERE IS NO QUEUE
            5A         0C AA     C1  0191   278 	ADDL3	SQH$L_NEXTREC(R10),R10,-(SP) ; FIND END OF USED QUEUE SPACE
                          7E         0195
                          5A     DD  0196   279 	PUSHL	R10			; START OF QUEUE
                     0000'CF     9F  0198   280 	PUSHAB	W^JBC$RWDEND		; END OF WRITABLE DATA
                     0000'CF     9F  019C   281 	PUSHAB	W^JBC$RWDTOP		; START OF THAT AREA
       0000'CF            04     FB  01A0   282 	CALLS	#4,W^LIB$SNAPSHOT	; GET A LISTING OF ALL OF THAT
                                     01A5   283 65$:	$CANCEL_S  JCD_W_MBCHAN(R11)	; KILL THE IO GOING ON MAILBOX
                                     01B0   284 	$DASSGN_S  JCD_W_MBCHAN(R11)	; DISCONNECT FROM MAILBOX
                          6B     B5  01BB   285 	TSTW	JCD_W_TMPCHAN(R11)	; RESPONSE MAILBOX CHANNEL ASSIGNED?
                          0A     13  01BD   286 	BEQL	70$			; BR IF NO
                                     01BF   287 	$DASSGN_S  JCD_W_TMPCHAN(R11)	; AND RESPONCE MAILBOX IF THERE IS ONE
                                     01C9   288 70$:	$CLOSE	FAB=W^JBC$G_ACNTFAB	; CLOSE THE ACCOUNTING FILE
                                     01D4   289 	$SETPRN_S  OLDNAM		; CHANGE NAME TO "OLD"
            51       FE45 CF     9E  01DF   290 	MOVAB	ERRMSGDEV,R1		; COMMON PARAMETER
                                     01E4   291 	$CREPRC_S	-		; CREATE A PROCESS
                                     01E4   292 		PRCNAM=JBC$Q_JBCNAM,-	; NAME OF PROCESS
                                     01E4   293 		INPUT =(R1),-		;
                                     01E4   294 		OUTPUT=(R1),-
                                     01E4   295 		ERROR =(R1),-		;
                                     01E4   296 		IMAGE =JBCIMG,-		; NAME OF IMAGE TO RUN
                                     01E4   297 		BASPRI=#8,-		; THE PRIORITY
                                     01E4   298 		PRVADR=JBC$Q_PRIVMASK,-	; ALL POSSIBLE PRIVILEGES
                                     01E4   299 		UIC   =#<4@16+1>	; UIC = 1,4
                                     0212   300 	$EXIT_S	R0			; EXIT WITH STATUS FROM CREATE PROCESS
                                     021B   301
                                     021B   302 	.ENABL	LSB
JBCMOUT         - JOB CONTROLLER MESSAGE OUTPUT ROUTINE          22-AUG-1978 00:43:22   VAX-11 MACRO X0.3-11               Page   8
V01             FORMAT AND OUTPUT A MESSAGE                                                                                      (4)

                                     021B   304 	.SBTTL	FORMAT AND OUTPUT A MESSAGE
                                     021B   305 ;++
                                     021B   306 ; FUNCTIONAL DESCRIPTION:
                                     021B   307 ;
                                     021B   308 ;	THIS ROUTINE IS CALLED TO FORMAT THEN PRINT A MESSAGE
                                     021B   309 ;
                                     021B   310 ; CALLING SEQUENCE:
                                     021B   311 ;
                                     021B   312 ;	BSB/JSB	FAOUT0			; CALL WITH ARG COUNT IN R1
                                     021B   313 ;	BSB/JSB	FAOUT1			; CALL WIHT ARG COUNT IN LINE
                                     021B   314 ;
                                     021B   315 ; INPUT PARAMETERS:
                                     021B   316 ;
                                     021B   317 ; AT FAOUT0:	R1 IS TOTAL ARGUMENT COUNT FOR FAO
                                     021B   318 ;
                                     021B   319 ; AT FAOUT1:	(SP) IS TOTAL ARGUMENT COUNT FOR FAO
                                     021B   320 ;
                                     021B   321 ; EITHER:	NEXT SEQENTIAL LOCATION IS OFFSER TO MESSAGE FORMAT STRING
                                     021B   322 ;		R11 HAS ADDRESS JOB CONTROLLER DATA BLOCK
                                     021B   323 ;
                                     021B   324 ; OUTPUT PARAMETERS:
                                     021B   325 ;
                                     021B   326 ;	MESSAGE IS FORMATTED AND DISPLAYED
                                     021B   327 ;
                                     021B   328 ; COMPLETION CODES:	NONE
                                     021B   329 ;
                                     021B   330 ; SIDE EFFECTS:		NONE
                                     021B   331 ;--
                                     021B   332 	.ENABL	LSB
                                     021B   333
                          08     BA  021B   334 FAOUT0:	POPR	#^M<R3>			; GET PC OF SUBROUTINE CALL
                          05     11  021D   335 	BRB	10$			;
                          08     BA  021F   336 FAOUT1:	POPR	#^M<R3>			; GET PC OF SUBROUTINE CALL
            51            83     9A  0221   337 	MOVZBL	(R3)+,R1		; PICK UP FAO ARGUMENT COUNT
            50            83     32  0224   338 10$:	CVTWL	(R3)+,R0		; GET OFFSET TO MESSAGE
            50            53     C0  0227   339 	ADDL	R3,R0			; FIND ADDRESS OF STRING
         10 AB            80     9A  022A   340 	MOVZBL	(R0)+,JCD_Q_TMPDESC(R11); SET SIZE OF STRING
         14 AB            50     D0  022E   341 	MOVL	R0,JCD_Q_TMPDESC+4(R11)	; SET ADDRESS OF STRING
            52         0A AB     3E  0232   342 	MOVAW	JCD_W_LBUFSIZ(R11),R2	; SET POINTER TO LINE BUFFER SIZE WORD
            72            62     B0  0236   343 	MOVW	(R2),-(R2)		; SET LENGTH
                          62     7F  0239   344 	PUSHAQ	(R2)			; BUFFER DESCRIPTOR
                          62     3F  023B   345 	PUSHAW	(R2)			; PLACE TO RETURN RESULTANT LENGTH
                       10 AB     7F  023D   346 	PUSHAQ	JCD_Q_TMPDESC(R11)	; FORMAT STRING DESCRIPTOR
   00000000'9F            51     FB  0240   347 	CALLS	R1,@#SYS$FAO		; FORMAT MESSAGE
                          53     DD  0247   348 	PUSHL	R3			; SET REAL RETURN ADDRESS
            50            62     9A  0249   349 TYPR2:	MOVZBL	(R2),R0			; GET THE LENGTH
            51         04 A2     D0  024C   350 	MOVL	4(R2),R1		; STARTING ADDRESS OF MESSAGE
                          03     11  0250   351 	BRB	TYP0			; TYPE THAT OUT
            50            81     9A  0252   352 TYPE:	MOVZBL	(R1)+,R0		; COUNT TO R0, STRING ADDRESS TO R1
                          03     BB  0255   353 TYP0:	PUSHR	#^M<R0,R1>		; PUSH STRING DESCRIPTOR IN STACK
                     FDCD CF     DF  0257   354 	PUSHAL	W^ERRMSGDEV		; ADDRESS OF DEVICE NAME
                       04 AE     DF  025B   355 	PUSHAL	4(SP)			; ADDRESS OF STRING DESCIPTOR OF MESSAGE
   00000000'9F            04     FB  025E   356 	CALLS	#4,@#SYS$BRDCST		; PRINT MESSAGE ON 1 DEVICE
                                 05  0265   357 	RSB				; GET OUT
JBCMOUT         - JOB CONTROLLER MESSAGE OUTPUT ROUTINE          22-AUG-1978 00:43:22   VAX-11 MACRO X0.3-11               Page   9
V01             JBC ERROR/MESSAGE OUTPUT                                                                                         (5)

                                     0266   359 	.SBTTL	JBC ERROR/MESSAGE OUTPUT
                                     0266   360 ;++
                                     0266   361 ; FUNCTIONAL DESCRIPTION:
                                     0266   362 ;
                                     0266   363 ;	THIS MODULE IS CALL TO DISPLAY AN ERROR FOR THE
                                     0266   364 ;	JOB CONTROLLER.
                                     0266   365 ;
                                     0266   366 ; CALLING SEQUENCE:
                                     0266   367 ;
                                     0266   368 ;	BSB	JBC$SYSMSG		; TO DISPLAY A SYSTEM ERROR AND RETURN
                                     0266   369 ;
                                     0266   370 ; INPUT PARAMETERS:
                                     0266   371 ;
                                     0266   372 ;	R0 IS ERROR CODE
                                     0266   373 ;
                                     0266   374 ; OUTPUT PARAMETERS:	NONE
                                     0266   375 ;
                                     0266   376 ; COMPLETION CODES:
                                     0266   377 ;
                                     0266   378 ;	R0,R1 RETURNED AS SET BY QIO SYSTEM SERVICE
                                     0266   379 ;
                                     0266   380 ; SIDE EFFECTS:		NONE
                                     0266   381 ;--
                                     0266   382 JBC$SYSMSG::				; PRINT SYSTEM MESSAGE
                     0008'CF     9F  0266   383 	PUSHAB	W^OPRDATA		; FORM QUAD WORD DESCRIPTOR
            7E         50 8F     9A  026A   384 	MOVZBL	#OPRDSIZ,-(SP)		; FOR OPERATOR MESSAGE BUFFER
            51            5E     D0  026E   385 	MOVL	SP,R1			; ADDRESS OF DESCRIPTOR
                                     0271   386 	$GETMSG_S  R0,(R1),(R1),#15	; CONVERT ERROR CODE
            6E            08     C0  0282   387 	ADDL	#OPRHDR,(SP)		; ADD IN THE HEADER
         04 AE            08     C2  0285   388 	SUBL	#OPRHDR,4(SP)		; BACKUP ADDRESS FOR HEADER
                          7E     D4  0289   389 	CLRL	-(SP)			; RESPONCE MAILBOX CHANNEL
                       04 AE     7F  028B   390 	PUSHAQ	4(SP)			; ADDRESS OF MESSAGE DESCRIPTOR
   00000000'9F            04     FB  028E   391 	CALLS	#4,@#SYS$SNDOPR		; SENT TO OPER AND CLEAR QUAD WORD
                                 05  0295   392 	RSB				; RETURN TO CALLER
                                     0296   393
                                     0296   394 	.END
JBCMOUT         - JOB CONTROLLER MESSAGE OUTPUT ROUTINE          22-AUG-1978 00:43:22   VAX-11 MACRO X0.3-11               Page  10
SYMBOL TABLE                                                                                                                     (5)

$$.TMP1        = 00000001            JBC$_ILLQUENAM = 00048018            JBC_V_SYMCREREQ= 00000001
$$.TMP2        = 000000CF            JBC$_INPASGN   = 00048488            JBC_V_SYMINIREQ= 00000002
$$T1           = 00000000            JBC$_INPREAD   = 00048490            JCD_A_LBUFADR    0000000C
.$$.           = 00000015            JBC$_INVMSG    = 00048418            JCD_A_QUEBASE    00000018
ACM$B_PROCPRI    00000024            JBC$_INVSCT    = 00048468            JCD_B_CURPDEV    0000001D
ACM$L_PROCID     FFFFFFFC            JBC$_JOBABORT  = 00048080            JCD_B_CURSYMB    0000001C
ACM$L_UIC        0000000C            JBC$_JOBCRD    = 000484B0            JCD_G_LISTS      00000000
ACM$Q_ACNTNAM    0000001C            JBC$_LOSTREC   = 00048438            JCD_G_WLEND      FFFFFFF0
ACM$Q_PRVMSK     00000004            JBC$_MBASGN    = 00048400            JCD_G_WORKLIST   FFFFFFD0
ACM$T_DATA       00000028            JBC$_MBDEAS    = 00048460            JCD_K_SIZE     = 000000FC
ACM$T_USERNAM    00000010            JBC$_MBREAD    = 00048408            JCD_L_SMBPID     FFFFFFCC
ACM$W_MAILBOX    00000002            JBC$_MBSETAST  = 000484C8            JCD_Q_ACNTFIL    FFFFFFE8
ACM$W_TYPE       00000000            JBC$_MBWRITE   = 000484D0            JCD_Q_FREEBUFR   FFFFFFF0
ACM$W_USERREQ    00000026            JBC$_MULTREC   = 00048430            JCD_Q_LBUFDES    00000008
ACNT_FIL_OPN   = 0000000F  G         JBC$_NOOPENJOB = 00048048            JCD_Q_PROCDEL    FFFFFFE0
ACNT_FIL_RIT   = 00000010  G         JBC$_NOPRIV    = 00048020            JCD_Q_SYMBMAN    FFFFFFD8
ASSIGN_SYMB_MB = 00000008  G         JBC$_NOQUEHDR  = 00048028            JCD_Q_SYMBSRV    FFFFFFD0
BIT...         = 00000000            JBC$_NOQUESPACE= 00048030            JCD_Q_SYMBWAIT   FFFFFFF8
CHF$L_MCHARGLST  00000008            JBC$_NORMAL    = 00040001            JCD_Q_TIME       FFFFFFC4
CHF$L_MCH_ARGS   00000000            JBC$_NOSUCHJOB = 00048040            JCD_Q_TMPDESC    00000010
CHF$L_MCH_DEPTH  00000008            JBC$_NOSUCHQUE = 00048038            JCD_T_INDEX0     00000000
CHF$L_MCH_FRAME  00000004            JBC$_PASSCRD   = 000484B8            JCD_T_LINBFE     000000C0
CHF$L_MCH_SAVR0  0000000C            JBC$_PRCREAT   = 00048410            JCD_T_LINBUF     0000001E
CHF$L_MCH_SAVR1  00000010            JBC$_PRINTOUT  = 000484E0            JCD_T_START      FFFFFFC4
CHF$L_SIGARGLST  00000004            JBC$_QUECNT    = 00048428            JCD_W_FLAGS      00000004
CHF$L_SIG_ARG1   00000008            JBC$_QUEERR    = 00048458            JCD_W_JOBSEQ     00000006
CHF$L_SIG_ARGS   00000000            JBC$_QUENOSTOP = 00048050            JCD_W_LBUFCNT    00000008
CHF$L_SIG_NAME   00000004            JBC$_QUEUPD    = 000484E8            JCD_W_LBUFSIZ    0000000A
CREATE_PROC    = 00000002  G         JBC$_SCTERR    = 00048450            JCD_W_MBCHAN     00000002
DASSGN_MB      = 0000000C  G         JBC$_SMINVOPR  = 00048058            JCD_W_TMPCHAN    00000000
ERRMSGDEV        00000028 R     04   JBC$_SMINVOPT  = 00048060            JCM_K_SIZE       000000C0
FAOUT0           0000021B R     04   JBC$_SMINVREQ  = 00048068            JCM_Q_IOSB       00000008
FAOUT1           0000021F R     04   JBC$_SMZEROJOB = 00048070            JCM_Q_LINKS      00000000
GBL...         = 00000000            JBC$_SNDRESP   = 00048420            JCM_T_MSGDATA    00000010
GBL_SEC_ERR    = 0000000B  G         JBC$_SYMBASN   = 00048440            LIB$SNAPSHOT     ********   X   04
HDRMSG           00000034 R     04   JBC$_SYMBCRE   = 000484D8            LOST_RECORDS   = 00000007  G
ILL_SYM_STATE  = 0000000D  G         JBC$_SYMBDSAB  = 00048078            MAILBOX_ASSIGN = 00000000  G
INVALID_MESG   = 00000003  G         JBC$_SYMBWRT   = 00048448            MAILBOX_READ   = 00000001  G
JBC$AW_ERR_CODE  00000000 R     04   JBC$_SYMDEL    = 00048470            MULT_ALLOCATE  = 00000006  G
JBC$ERRORMSG     000000CC RG    04   JBC$_UAFOPN    = 000484A0            OLDNAM           00000092 R     04
JBC$EXCEPTION    00000100 RG    04   JBC$_UNESYMMSG = 000484C0            OPC$B_MS_ENAB    00000001
JBC$G_ACNTFAB    ********   X   04   JBC$_USERVAL   = 00048498            OPC$B_MS_TARGET  00000001
JBC$L_GETERR     00000024 R     04   JBCIMG           000000A1 R     04   OPC$B_MS_TYPE    00000000
JBC$Q_JBCNAM     ********   X   04   JBC_ERR_NUM    = 00000012            OPC$L_MS_MASK    00000004
JBC$Q_PRIVMASK   ********   X   04   JBC_GETERR     = 00039B17            OPC$L_MS_MAXSZ   0000009A
JBC$RESTART      00000182 RG    04   JBC_K_MAXBUFR  = 00000004            OPC$L_MS_OTEXT   0000001A
JBC$RWDEND       ********   X   04   JBC_K_PRTIMFLAG= 00000002            OPC$L_MS_RPLYID  00000004
JBC$RWDTOP       ********   X   04   JBC_K_SYNCFLAG = 00000001            OPC$L_MS_RQSTID  00000004
JBC$SYSMSG       00000266 RG    04   JBC_K_UPDFLG   = 00000008            OPC$L_MS_TEXT    00000008
JBC$T_DATABLK    ********   X   04   JBC_M_CREJOBREQ= 00000008            OPC$M_NM_CARDS = 00000020
JBC$_ACMINVOP  = 00048088            JBC_M_MBREADREQ= 00000001            OPC$M_NM_CENTRL= 00000001
JBC$_ACNTOPN   = 00048478            JBC_M_SRVTIMQUE= 00000010            OPC$M_NM_DEVICE= 00000010
JBC$_ACNTWRT   = 00048480            JBC_M_SYMCREREQ= 00000002            OPC$M_NM_DISKS = 00000008
JBC$_ENTQUE    = 000484A8            JBC_M_SYMINIREQ= 00000004            OPC$M_NM_NTWORK= 00000040
JBC$_ILLDEVNAM = 00048000            JBC_V_CREJOBREQ= 00000003            OPC$M_NM_OPER1 = 00001000
JBC$_ILLDEVTYP = 00048008            JBC_V_MBREADREQ= 00000000            OPC$M_NM_OPER10= 00200000
JBC$_ILLFILNAM = 00048010            JBC_V_SRVTIMQUE= 00000004            OPC$M_NM_OPER11= 00400000
JBCMOUT         - JOB CONTROLLER MESSAGE OUTPUT ROUTINE          22-AUG-1978 00:43:22   VAX-11 MACRO X0.3-11               Page  11
SYMBOL TABLE                                                                                                                     (5)

OPC$M_NM_OPER12= 00800000            OPC$_TERMENAB  = 00058001            SMQ$S_INIPRI   = 00000004
OPC$M_NM_OPER2 = 00002000            OPC$_TERMFAIL  = 0005803C            SMQ$T_NAME       00000010
OPC$M_NM_OPER3 = 00004000            OPC$_UNKNOPR   = 0005806C            SMQ$V_CREPND   = 00000002
OPC$M_NM_OPER4 = 00008000            OPRDATA          00000008 R     03   SMQ$V_DEFBRST  = 00000001
OPC$M_NM_OPER5 = 00010000            OPRDSIZ        = 00000050            SMQ$V_DEFFLAG  = 00000000
OPC$M_NM_OPER6 = 00020000            OPRHDR         = 00000008            SMQ$V_DETJOB   = 00000001
OPC$M_NM_OPER7 = 00040000            QUEUE_COUNT    = 00000005  G         SMQ$V_GENDEV   = 00000004
OPC$M_NM_OPER8 = 00080000            QUE_UPD        = 00000011  G         SMQ$V_INIPRI   = 00000000
OPC$M_NM_OPER9 = 00100000            REGMSG           00000067 R     04   SMQ$V_INUSE    = 00000000
OPC$M_NM_PRINT = 00000002            RESPONCE_ERR   = 00000004  G         SMQ$V_LOWER    = 00000003
OPC$M_NM_TAPES = 00000004            SCT_SEARCH_FAIL= 0000000A  G         SMQ$V_NOGENERIC= 00000005
OPC$T_MS_ONAME   0000000A            SJH$B_COPYCNT    0000000E            SMQ$V_NOSWAP   = 00000004
OPC$V_NM_CARDS = 00000005            SJH$B_FLAGS      0000000C            SMQ$V_PAUSED   = 00000002
OPC$V_NM_CENTRL= 00000000            SJH$B_FORMS      0000000D            SMQ$V_REDIRECT = 00000004
OPC$V_NM_DEVICE= 00000004            SJH$B_PRTPRI     0000000F            SMQ$V_STOPPED  = 00000003
OPC$V_NM_DISKS = 00000003            SJH$L_NEXTJOB    00000008            SMQ$V_TRMDEV   = 00000002
OPC$V_NM_NTWORK= 00000006            SJH$L_PARMBLK    0000003C            SMR$B_PROCPRI    00000024
OPC$V_NM_OPER1 = 0000000C            SJH$L_PROCID     00000010            SMR$L_PROCID     FFFFFFFC
OPC$V_NM_OPER10= 00000015            SJH$L_RECLINK    00000000            SMR$L_UIC        0000000C
OPC$V_NM_OPER11= 00000016            SJH$L_UIC        00000014            SMR$Q_ACNTNAM    0000001C
OPC$V_NM_OPER12= 00000017            SJH$M_HOLD     = 00000001            SMR$Q_PRVMSK     00000004
OPC$V_NM_OPER2 = 0000000D            SJH$M_JOBABORT = 00000004            SMR$T_DATA       00000028
OPC$V_NM_OPER3 = 0000000E            SJH$M_LOWER    = 00000002            SMR$T_USERNAM    00000010
OPC$V_NM_OPER4 = 0000000F            SJH$Q_ACNTNAM    00000024            SMR$W_MAILBOX    00000002
OPC$V_NM_OPER5 = 00000010            SJH$Q_JOBNAME    00000034            SMR$W_TYPE       00000000
OPC$V_NM_OPER6 = 00000011            SJH$Q_TIME       0000002C            SMR$W_USERREQ    00000026
OPC$V_NM_OPER7 = 00000012            SJH$T_USERNAM    00000018            SNDOPR           00000000 R     03
OPC$V_NM_OPER8 = 00000013            SJH$V_HOLD     = 00000000            SQH$B_FLAGS      00000004
OPC$V_NM_OPER9 = 00000014            SJH$V_JOBABORT = 00000002            SQH$B_MAXQUE     00000006
OPC$V_NM_PRINT = 00000001            SJH$V_LOWER    = 00000001            SQH$B_NUMQUE     00000005
OPC$V_NM_TAPES = 00000002            SJH$W_JOBSEQ     00000004            SQH$B_SPARE      00000007
OPC$W_MS_OUNIT   00000008            SJH$W_MBCHAN     0000000D            SQH$C_SIZE       00000120
OPC$W_MS_STATUS  00000002            SJH$W_QINDEX     00000006            SQH$K_SIZE       00000120
OPC$_DEVNOTERM = 00058074            SMQ$B_CHAR       0000000A            SQH$L_FIRSTREC   00000008
OPC$_DEVOFFLINE= 0005804C            SMQ$B_FLAGS      00000008            SQH$L_FREEREC    00000000
OPC$_DEVONLINE = 00058054            SMQ$B_FORMS      00000009            SQH$L_LASTREC    00000010
OPC$_ILLRQST   = 0005807C            SMQ$B_JOBCNT     00000009            SQH$L_NEXTREC    0000000C
OPC$_LOGCLOS   = 000580A4            SMQ$B_JOBLIM     0000000B            SQH$L_OPENJOB    00000014
OPC$_LOGFAIL   = 00058034            SMQ$C_SIZE       00000020            SQH$L_TIMQUE     00000018
OPC$_LOGINIT   = 00058009            SMQ$K_SIZE       00000020            SQH$Q_QUEUE      00000020
OPC$_LOGTIME   = 00058099            SMQ$L_ASNSCT     0000000C            SQH$W_QUESEQ     0000001C
OPC$_NOCLI     = 0005805C            SMQ$L_CURRENT    00000000            SQR$B_COPYCNT    00000039
OPC$_NOPERATOR = 00058061            SMQ$L_HOLDLST    00000004            SQR$B_FLAGS      00000038
OPC$_NOSUCHRQST= 00058044            SMQ$M_CREPND   = 00000004            SQR$L_RECLINK    00000000
OPC$_OPREPLY   = 00058091            SMQ$M_DEFBRST  = 00000002            SQR$M_BRSTPAG  = 00000004
OPC$_OPRNOTIF  = 00058089            SMQ$M_DEFFLAG  = 00000001            SQR$M_DELETE   = 00000001
OPC$_RQSTABORT = 0005801C            SMQ$M_DETJOB   = 00000002            SQR$M_DOUBLE   = 00000008
OPC$_RQSTCAN   = 00058084            SMQ$M_GENDEV   = 00000010            SQR$M_FLAGPAG  = 00000002
OPC$_RQSTCMPLTE= 00058029            SMQ$M_INIPRI   = 0000000F            SQR$M_NOFEED   = 00000010
OPC$_RQSTPEND  = 00058021            SMQ$M_INUSE    = 00000001            SQR$M_PAGHDR   = 00000020
OPC$_RQ_CANCEL = 00000005            SMQ$M_LOWER    = 00000008            SQR$T_FILNAM     00000024
OPC$_RQ_LOGI   = 00000002            SMQ$M_NOGENERIC= 00000020            SQR$T_VOLNAM     00000008
OPC$_RQ_REPLY  = 00000004            SMQ$M_NOSWAP   = 00000010            SQR$V_BRSTPAG  = 00000002
OPC$_RQ_RQST   = 00000003            SMQ$M_PAUSED   = 00000004            SQR$V_DELETE   = 00000000
OPC$_RQ_STATUS = 00000006            SMQ$M_REDIRECT = 00000010            SQR$V_DOUBLE   = 00000003
OPC$_RQ_TERME  = 00000001            SMQ$M_STOPPED  = 00000008            SQR$V_FLAGPAG  = 00000001
OPC$_TERMDSBL  = 00058011            SMQ$M_TRMDEV   = 00000004            SQR$V_NOFEED   = 00000004
JBCMOUT         - JOB CONTROLLER MESSAGE OUTPUT ROUTINE          22-AUG-1978 00:43:22   VAX-11 MACRO X0.3-11               Page  12
SYMBOL TABLE                                                                                                                     (5)

SQR$V_PAGHDR   = 00000005            SYS$CANCEL       ********   X   04
SQR$W_DIRNUM     0000001E            SYS$CLOSE        ********  GX   04
SQR$W_DIRSEQ     00000020            SYS$CREPRC       ********   X   04
SQR$W_DIRVOL     00000022            SYS$DASSGN       ********   X   04
SQR$W_FILNUM     00000018            SYS$EXIT         ********   X   04
SQR$W_FILSEQ     0000001A            SYS$FAO          ********   X   04
SQR$W_JOBSEQ     00000004            SYS$GETMSG       ********   X   04
SQR$W_PAGCNT     0000003A            SYS$SETAST       ********   X   04
SQR$W_RECID      00000006            SYS$SETPRN       ********   X   04
SQR$W_RELVOL     0000001C            SYS$SNDOPR       ********   X   04
STKHDR           000000BE R     04   TYP0             00000255 R     04
STKMSG           00000085 R     04   TYPE             00000252 R     04
STS$K_ERROR    = 00000002            TYPR2            00000249 R     04
STS$K_INFO     = 00000003            UNX_SYM_DEL    = 0000000E  G
STS$K_SEVERE   = 00000004            WRITE_SYMB_MB  = 00000009  G
STS$K_SUCCESS  = 00000001
STS$K_WARNING  = 00000000
STS$M_CODE     = 00007FF8
STS$M_COND_ID  = 0FFFFFF8
STS$M_CONTROL  = F0000000
STS$M_CUST_DEF = 08000000
STS$M_FAC_NO   = 0FFF0000
STS$M_FAC_SP   = 00008000
STS$M_INHIB_MSG= 10000000
STS$M_MSG_NO   = 0000FFF8
STS$M_SEVERITY = 00000007
STS$M_SUCCESS  = 00000001
STS$S_CODE     = 0000000C
STS$S_COND_ID  = 00000019
STS$S_CONTROL  = 00000004
STS$S_CUST_DEF = 00000001
STS$S_FAC_NO   = 0000000C
STS$S_FAC_SP   = 00000001
STS$S_INHIB_MSG= 00000001
STS$S_MSG_NO   = 0000000D
STS$S_SEVERITY = 00000003
STS$S_SUCCESS  = 00000001
STS$V_CODE     = 00000003
STS$V_COND_ID  = 00000003
STS$V_CONTROL  = 0000001C
STS$V_CUST_DEF = 0000001B
STS$V_FAC_NO   = 00000010
STS$V_FAC_SP   = 0000000F
STS$V_INHIB_MSG= 0000001C
STS$V_MSG_NO   = 00000003
STS$V_SEVERITY = 00000000
STS$V_SUCCESS  = 00000000
SYM$C_RECSIZE    00000040
SYM$K_RECSIZE    00000040
SYM_K_MAXDEVNAM= 0000000F
SYM_K_MAXFILNAM= 00000013
SYM_K_MAXSYMB  = 00000010
SYM_K_NUMQUEUE = 0000001F
SYM_K_NUMRECORD= 00000400
SYM_K_PRTPRI   = 00000020
SYM_K_QUENAM   = 0000000F
SYS$BRDCST       ********   X   04
JBCMOUT         - JOB CONTROLLER MESSAGE OUTPUT ROUTINE          22-AUG-1978 00:43:22   VAX-11 MACRO X0.3-11               Page  13
PROGRAM SECTION SYNOPSIS                                                                                                         (5)


PROGRAM SECTION SYNOPSIS

.  ABS  .        00000000      00     NOPIC   USR   CON   ABS   LCL NOSHR NOEXE NORD  NOWRT BYTE
. BLANK .        00000000      01     NOPIC   USR   CON   REL   LCL NOSHR   EXE   RD    WRT BYTE
$ABS$            FFFFFFFC      02     NOPIC   USR   CON   ABS   LCL NOSHR   EXE   RD    WRT BYTE
JBC_RWDATA       00000058      03     NOPIC   USR   CON   REL   LCL NOSHR NOEXE   RD    WRT LONG
JBC$MSGOUT       00000296      04     NOPIC   USR   CON   REL   LCL NOSHR   EXE   RD  NOWRT LONG


THERE WERE NO ERRORS OR WARNINGS.
11324. BYTES LEFT IN FREE MEMORY POOL.
98. BYTES OF RECLAIMED MEMORY.
OBJ$:JBCMOUT,LIS$:JBCMOUT/-SP=EXECML$/ML,LIB$:JOBCTL/ML,SRC$:JBCMOUT
60 MLB DIR RDS - 691 GETS TO DEFINE 35 MACROS. 45 INTER. FILE WRITES.
