JBCSYMSUB       - SYMBIONT MANAGER SUBROUTINES                   22-AUG-1978 00:53:22   VAX-11 MACRO X0.3-11               Page   0
TABLE OF CONTENTS

   (1)      40  DECLARATIONS
   (2)      58  INIT PRINT JOB HEADER
   (3)     111  INITIAL A PRINT FILE RECORD
   (4)     185  GET SYMBIONT MANAGER CLOSED JOB
   (5)     244  GET HOLD QUEUE JOB
   (7)     303  CHECK FORMS FOR MATCH
   (8)     346  CHECK REQUESTORS PRIVILEGE
   (9)     391  GET DEVICE CHARACTERISTICS
JBCSYMSUB       - SYMBIONT MANAGER SUBROUTINES                   22-AUG-1978 00:53:22   VAX-11 MACRO X0.3-11               Page   1
V01                                                                                                                              (1)

                                     0000     1
                                     0000     2 	.TITLE	JBCSYMSUB - SYMBIONT MANAGER SUBROUTINES
                                     0000     3 	.IDENT	/V01/
                                     0000     4
                                     0000     5 ;
                                     0000     6 ; COPYRIGHT (C) 1977
                                     0000     7 ; DIGITAL EQUIPMENT CORPORATION, MAYNARD, MASSACHUSETTS 01754
                                     0000     8 ;
                                     0000     9 ; THIS SOFTWARE IS FURNISHED  UNDER A LICENSE FOR USE ONLY ON A SINGLE
                                     0000    10 ; COMPUTER  SYSTEM AND  MAY BE  COPIED ONLY WITH  THE INCLUSION OF THE
                                     0000    11 ; ABOVE COPYRIGHT NOTICE.  THIS SOFTWARE, OR ANY OTHER COPIES THEREOF,
                                     0000    12 ; MAY NOT BE PROVIDED OR  OTHERWISE MADE AVAILABLE TO ANY OTHER PERSON
                                     0000    13 ; EXCEPT FOR USE ON SUCH SYSTEM AND TO ONE WHO AGREES TO THESE LICENSE
                                     0000    14 ; TERMS.  TITLE TO AND  OWNERSHIP OF THE  SOFTWARE  SHALL AT ALL TIMES
                                     0000    15 ; REMAIN IN DEC.
                                     0000    16 ;
                                     0000    17 ; THE INFORMATION IN THIS SOFTWARE IS SUBJECT TO CHANGE WITHOUT NOTICE
                                     0000    18 ; AND SHOULD  NOT BE CONSTRUED  AS A COMMITMENT  BY DIGITAL  EQUIPMENT
                                     0000    19 ; CORPORATION.
                                     0000    20 ;
                                     0000    21 ; DEC ASSUMES  NO  RESPONSIBILITY  FOR  THE USE OR  RELIABILITY OF ITS
                                     0000    22 ; SOFTWARE ON EQUIPMENT WHICH IS NOT SUPPLIED BY DEC.
                                     0000    23 ;
                                     0000    24
                                     0000    25 ;++
                                     0000    26 ; FACILITY:	STARLET JOB CONTROLLER/SYMBIONT MANAGER
                                     0000    27 ;
                                     0000    28 ; ABSTRACT:	GENERAL SYMBIONT MANAGER ROUTINES
                                     0000    29 ;
                                     0000    30 ;
                                     0000    31 ; ENVIRONMENT:	NATIVE NON-PRIVLEGED USER MODE CODE
                                     0000    32 ;
                                     0000    33 ; AUTHOR:  W.H.BROWN, CREATION DATE: 3-MAR-77
                                     0000    34 ;
                                     0000    35 ; MODIFIED BY:
                                     0000    36 ;
                                     0000    37 ;	, : VERSION
                                     0000    38 ; 01	-
                                     0000    39 ;--
                                     0000    40 	.SBTTL	DECLARATIONS
                                     0000    41 ;
                                     0000    42 ; INCLUDE FILES:
                                     0000    43 ;
                                     0000    44 ;	[235,10]J/ML
                                     0000    45 ;
                                     0000    46 ; MACROS:
                                     0000    47 ;
                                     0000    48 ;
                                     0000    49 ; EQUATED SYMBOLS:
                                     0000    50 ;
                                     0000    51 	JBCPARDEF			; DEFINE JOB CONTROLLER PARAMETERS
                                     0000    52 	JBCQUEDEF			; DEFINE QUEUE OFFSETS
                                     0000    53 ;
                                     0000    54 ; OWN STORAGE:		THIS MODULE HAS NO LOCAL STORAGE
                                     0000    55 ;
                                     0000    56
JBCSYMSUB       - SYMBIONT MANAGER SUBROUTINES                   22-AUG-1978 00:53:22   VAX-11 MACRO X0.3-11               Page   2
V01             INIT PRINT JOB HEADER                                                                                            (2)

                                     0000    58 	.SBTTL	INIT PRINT JOB HEADER
                                     0000    59 ;++
                                     0000    60 ; FUNCTIONAL DESCRIPTION:
                                     0000    61 ;
                                     0000    62 ;	THIS ROUTINE IS CALLED TO SET UP THE DATA AREA IN THE
                                     0000    63 ;	PRINT JOB HEADER RECORD.
                                     0000    64 ;
                                     0000    65 ; CALLING SEQUENCE:
                                     0000    66 ;
                                     0000    67 ;	JSB/BSB	SYM$INIPRTJOBHD
                                     0000    68 ;
                                     0000    69 ; INPUT PARAMETERS:
                                     0000    70 ;
                                     0000    71 ;	R6 CONTAINS THE ADDRESS OF THE ACCOCIATED DEVICE QUEUE DESCRIPTOR
                                     0000    72 ;	R9 CONTAINS THE ADDRESS OF SYMBIONT MANAGER RECORD
                                     0000    73 ;
                                     0000    74 ; OUTPUT PARAMETERS:
                                     0000    75 ;
                                     0000    76 ;	R7 CONTAINS THE ADDRESS OF THE RECORD
                                     0000    77 ;
                                     0000    78 ; COMPLETION CODES:	NONE
                                     0000    79 ;
                                     0000    80 ; SIDE EFFECTS:		NONE
                                     0000    81 ;--
                                     0000    82 	PURE_SECTION			; PSECT FOR THIS MODULE
                                     0000    83
                                     0000    84 SYM$INIPRTJOBHD::
                          FFFD'  30  0000    85 	BSBW	SYM$ALLRECORD		; GET A RECORD FOR THE FILE
            51            50     E9  0003    86 	BLBC	R0,50$			; BR IF NON TO BE ALLOCATED
            57            52     D0  0006    87 	MOVL	R2,R7			; SET RECORD ADDRESS TO PROPER REGISTER
            51         06 AB     3E  0009    88 	MOVAW	JCD_W_JOBSEQ(R11),R1	; GET ADDRESS OF JOB SEQUENCE NUMBER
       270F 8F            61     B1  000D    89 	CMPW	(R1),#9999		; NUMBER BIG ENOUGH?
                          04     1F  0012    90 	BLSSU	10$			; BR IF NUMBER IS OK
            61         64 8F     9B  0014    91 	MOVZBW	#100,(R1)		; SET TO A REASONABLE NUMBER
         F4 A9            61     B0  0018    92 10$:	MOVW	(R1),-JCM_T_MSGDATA+4(R9) ; SET JOB ID FOR RESPONCE
         04 A7            61     B0  001C    93 	MOVW	(R1),SJH$W_JOBSEQ(R7)	; SET JOB ID IN HEADER RECORD
                          61     B6  0020    94 	INCW	(R1)			; ADD 1 TO NUMBER
            56            5A     C3  0022    95 	SUBL3	R10,R6,R0		; FIND INDEX TO DEIVCE QUEUE
                          50         0025
         06 A7            50     B0  0026    96 	MOVW	R0,SJH$W_QINDEX(R7)	; SAVE INDEX TO ASSOCIATED QUEUE
         08 A6            01     E0  002A    97 	BBS	#SMQ$V_DETJOB,SMQ$B_FLAGS(R6),20$ ; BR IF THIS IS BATCH QUEUE
                          04         002E
         0E A7            01     90  002F    98 	MOVB	#1,SJH$B_COPYCNT(R7)	; DEFAULT TO 1 COPY FOR PRINT JOBS
         0F A7         24 A9     90  0033    99 20$:	MOVB	SMR$B_PROCPRI(R9),SJH$B_PRTPRI(R7) ; SET PRIORITY
         10 A7         FC A9     D0  0038   100 	MOVL	SMR$L_PROCID(R9),SJH$L_PROCID(R7) ; SET PROCESS ID OF OWNER
         14 A7         0C A9     D0  003D   101 	MOVL	SMR$L_UIC(R9),SJH$L_UIC(R7) ; STORE REQUESTORS UIC
         18 A7         10 A9     7D  0042   102 	MOVQ	SMR$T_USERNAM(R9),SJH$T_USERNAM(R7) ; NOW USER NAME
         20 A7         18 A9     D0  0047   103 	MOVL	SMR$T_USERNAM+8(R9),SJH$T_USERNAM+8(R7) ; NAME OF THE USER
         24 A7         1C A9     7D  004C   104 	MOVQ	SMR$Q_ACNTNAM(R9),SJH$Q_ACNTNAM(R7) ; SET CHARGE ACCOUNT
         2C A7         C4 AB     7D  0051   105 	MOVQ	JCD_Q_TIME(R11),SJH$Q_TIME(R7) ; SAVE CURRENT TIME
                                 05  0056   106 40$:	RSB				; RETURN TO CALLER
                                 04  0057   107 50$:	RET				; RETURN TO TOP LEVEL
                                     0058   108
                                     0058   109
JBCSYMSUB       - SYMBIONT MANAGER SUBROUTINES                   22-AUG-1978 00:53:22   VAX-11 MACRO X0.3-11               Page   3
V01             INITIAL A PRINT FILE RECORD                                                                                      (3)

                                     0058   111 	.SBTTL	INITIAL A PRINT FILE RECORD
                                     0058   112 ;++
                                     0058   113 ; FUNCTIONAL DESCRIPTION:
                                     0058   114 ;
                                     0058   115 ;	THIS ROUTINE IS CALLED TO SET UP THE STANDARD PART OF A
                                     0058   116 ;	PRINT JOB RECORD
                                     0058   117 ;
                                     0058   118 ; CALLING SEQUENCE:
                                     0058   119 ;
                                     0058   120 ;	BSB/JSB	SYM$INIPRTREC
                                     0058   121 ;
                                     0058   122 ; INPUT PARAMETERS:
                                     0058   123 ;
                                     0058   124 ;	R9 CONTAINS THE ADDRESS OF THE MESSAGE TO SYMBIONT MANAGER
                                     0058   125 ;	R5 POINTS AT THE ADDRESS OF THE THE DEVICE NAME FOR THE FILE
                                     0058   126 ;
                                     0058   127 ; IMPLICIT INPUTS:
                                     0058   128 ;
                                     0058   129 ;	R7  HAS ADDRESS OF THE ASSOCIATED PRINT JOB HEADER
                                     0058   130 ;	R10 HAS ADDRESS OF THE SYSTEM PRINT QUEUE GLOBAL SECTION
                                     0058   131 ;
                                     0058   132 ; OUTPUT PARAMETERS:
                                     0058   133 ;
                                     0058   134 ;	R8 CONTAINS THE ADDRESS OF THE INITIALIZE RECORD
                                     0058   135 ;
                                     0058   136 ; COMPLETION CODES:
                                     0058   137 ;
                                     0058   138 ;	R0 CONTAINS THE STATUS CODE FOR SUCESS OR FAILURE
                                     0058   139 ;
                                     0058   140 ; SIDE EFFECTS:		NONE
                                     0058   141 ;--
                                     0058   142
                                     0058   143 SYM$INIPRTREC::
                          FFA5'  30  0058   144 	BSBW	SYM$ALLRECORD		; GET A RECORD
            63            50     E9  005B   145 	BLBC	R0,90$			; BR IF ALLOCATION FAILED
            58            52     D0  005E   146 	MOVL	R2,R8			; COPY ADDRESS OF RECORD
                                     0061   147 	ASSUME	SQR$W_JOBSEQ+2 EQ SQR$W_RECID
         04 A8         04 A7     3C  0061   148 	MOVZWL	SJH$W_JOBSEQ(R7),SQR$W_JOBSEQ(R8) ; SET JOB AND AND CLEAR RECID
            65            1C     28  0066   149 	MOVC3	#16+6+6,(R5),SQR$T_VOLNAM(R8) ; SET DEVICE NAME AND FILE ID
                       08 A8         0069
            13            61     91  006B   150 	CMPB	(R1),#SYM_K_MAXFILNAM	; NOW CHECK FILENAME FOR LEGAL LENGTH
                          46     1A  006E   151 	BGTRU	70$			; BR IF TO BIG
            61            14     28  0070   152 	MOVC3	#SYM_K_MAXFILNAM+1,(R1),SQR$T_FILNAM(R8) ; SET FILE NAME INTO QUEUE RECORD
                       24 A8         0073
            55            51     D0  0075   153 	MOVL	R1,R5			; SET ADDRESS OF NEXT BYTE IN MESSAGE
         39 A8            01     90  0078   154 	MOVB	#1,SQR$B_COPYCNT(R8)	; SET COPY COUNT TO 1
                          67     D5  007C   155 	TSTL	SJH$L_RECLINK(R7)	; IS THIS FIRST JOB IN LIST?
                          2D     12  007E   156 	BNEQ	20$			; BR IF NO
                                 F0  0080   157 	INSV	SMQ$B_CHAR(R6),-	; GET DEFAULTS FOR FLAG AND BURST PAGE
            01         0A A6         0081   158 		#SQR$V_FLAGPAG,#2,-	; AND INSERT INTO RECORD
                                     0084
         38 A8            02         0084   159 		SQR$B_FLAGS(R8)		; FLAGS AREA.
                       34 A7     95  0087   160 	TSTB	SJH$Q_JOBNAME(R7)	; DOES THIS JOB HAVE A NAME
                          21     12  008A   161 	BNEQ	20$			; BR IF YES
            53         24 A8     9E  008C   162 	MOVAB	SQR$T_FILNAM(R8),R3	; POINT AT FILE NAME
            52            83     9A  0090   163 	MOVZBL	(R3)+,R2		; GET LENGTH OF NAME
            52            2E     3A  0093   164 	LOCC	#^A/./,R2,(R3)		; LOCATE START OF FILE TYPE
JBCSYMSUB       - SYMBIONT MANAGER SUBROUTINES                   22-AUG-1978 00:53:22   VAX-11 MACRO X0.3-11               Page   4
V01             INITIAL A PRINT FILE RECORD                                                                                      (3)

                          63         0096
            52            50     C2  0097   165 	SUBL	R0,R2			; ADJUST LENGTH TO ONLY FILENAME
                          55     DD  009A   166 	PUSHL	R5			; SAVE MESSAGE BUFFER POINTER
            63            52     2C  009C   167 	MOVC5	R2,(R3),#^A/ /,#8,SJH$Q_JOBNAME(R7) ; FILL IN DEFAULT NAME
            08            20         009F
                       34 A7         00A1
                          20     BA  00A3   168 	POPR	#^M<R5>			; RESTORE TEXT BUFFER POINTER
         08 A6            01     E1  00A5   169 	BBC	#SMQ$V_DETJOB,SMQ$B_FLAGS(R6),20$ ; BR IF QUEUE IS FOR A DEVICE
                          03         00A9
                                     00AA   170 	ASSUME	SQR$B_COPYCNT EQ SQR$B_FLAGS+1 ; CHECK FOR ASSUMED ADJACENCY
                       38 A8     B4  00AA   171 	CLRW	SQR$B_FLAGS(R8)		; BATCH JOBS GET ZEROS IN THESE ENTRIES
                                     00AD   172 20$:	SETSTAT	NORMAL			; SET SUCESSFUL STATUS
                                 05  00B0   173 	RSB				; EXIT
                                     00B1   174 ;
                                     00B1   175 ; ERROR INITING RECORD-IT MUST BE RELEASED
                                     00B1   176 ;
                                     00B1   177 60$:	SETSTAT	ILLDEVNAM,-(SP)		; SAVE ERROR CODE
                          03     11  00B4   178 	BRB	80$			; JOIN COMMON CODE
                                     00B6   179 70$:	SETSTAT	ILLFILNAM,-(SP)		; SAVE ERROR CODE
            50            58     D0  00B9   180 80$:	MOVL	R8,R0			; SET RECORD ADDRESS
                          FF41'  30  00BC   181 	BSBW	SYM$DEARECORD		; DEALLOCATE THE RECORD
                          01     BA  00BF   182 	POPR	#^M<R0>			; RESET ERROR CODE
                                 05  00C1   183 90$:	RSB				; RETURN TO CALLER
JBCSYMSUB       - SYMBIONT MANAGER SUBROUTINES                   22-AUG-1978 00:53:22   VAX-11 MACRO X0.3-11               Page   5
V01             GET SYMBIONT MANAGER CLOSED JOB                                                                                  (4)

                                     00C2   185 	.SBTTL	GET SYMBIONT MANAGER CLOSED JOB
                                     00C2   186 ;++
                                     00C2   187 ; FUNCTIONAL DESCRIPTION:
                                     00C2   188 ;
                                     00C2   189 ;	THIS ROUTINE IS CALLED TO LOCATE AND REMOVE A SPECIFIC JOB
                                     00C2   190 ;	FOR THE PRINT QUEUE. THE JOB MUST BE CLOSED.
                                     00C2   191 ;
                                     00C2   192 ; CALLING SEQUENCE:
                                     00C2   193 ;
                                     00C2   194 ;	BSB/JSB	SYM$GETCLEJOB		; GET THE SPECIFIED CLOSED JOB
                                     00C2   195 ;
                                     00C2   196 ; INPUT PARAMETERS:
                                     00C2   197 ;
                                     00C2   198 ;	R5 CONTAINS THE ADDRESS OF A WORD CONTAINING THE JOB RECORD NUMBER
                                     00C2   199 ;	R6 CONTAINS THE QUEUE HEADER TO WHICH THE JOB IS QUEUED
                                     00C2   200 ;
                                     00C2   201 ; IMPLICIT INPUTS:
                                     00C2   202 ;
                                     00C2   203 ;	R9 HAS THE SYMBIONT MANAGER RECORD ADDRESS
                                     00C2   204 ;	R10 HAS THE BASE ADDRESS OF THE PRINT QUEUE FILE
                                     00C2   205 ;	R11 HAS THE JOB CONTROLLER DATA BLOCK ADDRESS
                                     00C2   206 ;
                                     00C2   207 ; OUTPUT PARAMETERS:
                                     00C2   208 ;
                                     00C2   209 ;	R7 CONTAINS THE ADDRESS OF THE JOB IN THE QUEUE SPACE
                                     00C2   210 ;
                                     00C2   211 ; IMPLICIT OUTPUTS:
                                     00C2   212 ;
                                     00C2   213 ;	IF FOUND, THE JOB IS DEQUEUED FOR THE QUEUE INWHICH IT WAS FOUND
                                     00C2   214 ;
                                     00C2   215 ; COMPLETION CODES:
                                     00C2   216 ;
                                     00C2   217 ;	R0 = NORMAL IF JOB FOUND AND DEQUEUED SUCESSFUL, OR
                                     00C2   218 ;	   = NOPRIV, IF THE REQUESTOR WAS NOT ALLOWED TO DEQUE THIS JOB,
                                     00C2   219 ;	   = NOSUCHJOB, IF THE SPECIFIED JOB WAS NOT QUEUED TO THE DEVICE.
                                     00C2   220 ;
                                     00C2   221 ; SIDE EFFECTS:
                                     00C2   222 ;
                                     00C2   223 ;	TOP LEVEL RETURN IS MADE ON ANY ERROR WITH THE PROPER CODE
                                     00C2   224 ;
                                     00C2   225 ;--
                                     00C2   226
                                     00C2   227 SYM$GETCLSJOB::				; GET THE SPECIFIED (CLOSED) JOB
                          22     10  00C2   228 	BSBB	SYM$GETHLDJOB		; FIRST CHECK THE HOLDING LIST
            1D            50     E8  00C4   229 	BLBS	R0,40$			; BR IF FOUND IN THAT QUEUE
                     0000'CF     9F  00C7   230 	PUSHAB	W^SYM$FINDCLSJOB	; INIT COROUTINE SEARCH FOR CLOSED JOBS
                          9E     16  00CB   231 10$:	JSB	@(SP)+			; CONTINUE SEARCH FOR CLOSED JOBS
            15            50     E9  00CD   232 	BLBC	R0,50$			; BR IF CAN'T FIND THE JOB
                          50     D4  00D0   233 	CLRL	R0			; ASSUME THIS JOB IS NOT WANTED
            65         04 A2     B1  00D2   234 	CMPW	SJH$W_JOBSEQ(R2),(R5)	; IS THIS THE JOB WE'RE LOOKING FOR?
                          F3     12  00D6   235 	BNEQ	10$			; IF NO - KEEP LOOKING
            57            52     D0  00D8   236 	MOVL	R2,R7			; COPY JOB HEADER TO STANDSRD PLACE
                          004C   30  00DB   237 	BSBW	SYM$CKREQPRV		; DO PRIVILEGE CHECK-NO RETURN ON ERROR
                          9E     16  00DE   238 	JSB	@(SP)+			; DEQUEUE THE JOB
                          8E     D5  00E0   239 	TSTL	(SP)+			; CLEAR CO-ROUTINE RETURN
                          85     B5  00E2   240 	TSTW	(R5)+			; ADVANCE POINTER PAST JOB ID NUMBER
                                 05  00E4   241 40$:	RSB				; AND RETURN TO CALLER
JBCSYMSUB       - SYMBIONT MANAGER SUBROUTINES                   22-AUG-1978 00:53:22   VAX-11 MACRO X0.3-11               Page   6
V01             GET SYMBIONT MANAGER CLOSED JOB                                                                                  (4)

                                 04  00E5   242 50$:	RET				; BACK TO THE TOP WITH ERROR
JBCSYMSUB       - SYMBIONT MANAGER SUBROUTINES                   22-AUG-1978 00:53:22   VAX-11 MACRO X0.3-11               Page   7
V01             GET HOLD QUEUE JOB                                                                                               (5)

                                     00E6   244 	.SBTTL	GET HOLD QUEUE JOB
                                     00E6   245 ;++
                                     00E6   246 ; FUNCTIONAL DESCRIPTION:
                                     00E6   247 ;
                                     00E6   248 ;	THIS ROUTINE IS CALLED TO SEARCH THE HOLD QUEUE FOR THE SPECIFIED
                                     00E6   249 ;	DEVICE FOR THE INDICATED JOB, AND DEQUEUE THE JOB IF FOUND.
                                     00E6   250 ;
                                     00E6   251 ; CALLING SEQUENCE:
                                     00E6   252 ;
                                     00E6   253 ;	BSB/JSB	SYM$GETHLDJOB		; GET HOLDING LIST JOB
                                     00E6   254 ;
                                     00E6   255 ; INPUT PARAMETERS:
                                     00E6   256 ;
                                     00E6   257 ;	R5 POINTS AT THE JOB HEADER RECORD NUMBERIN THE REQUEST MESSAGE
                                     00E6   258 ;	R6 CONTAINS THE ADDRESS OF QUEUE HEADER TO SEARCH
                                     00E6   259 ;
                                     00E6   260 ; IMPLICIT INPUTS:
                                     00E6   261 ;
                                     00E6   262 ;	R9 HAS THE ADDRESS OF THE SYMBIONT MANAGER RECORD
                                     00E6   263 ;	R10 HAS THE BASE ADDRESS OF THE QUEUE FILE
                                     00E6   264 ;	R11 HAS THE ADDRESS OF THE JOB CONTROLLER DATA BLOCK
                                     00E6   265 ;
                                     00E6   266 ; OUTPUT PARAMETERS:
                                     00E6   267 ;
                                     00E6   268 ;	R7 HAS THE ADDRESS OF THE RECORD DESIRED IN THE QUEUE FILE
                                     00E6   269 ;
                                     00E6   270 ; IMPLICIT OUTPUTS:
                                     00E6   271 ;
                                     00E6   272 ;	IF FOUND, THE RECORD IS REMOVED FROM THE HOLD LIST
                                     00E6   273 ;
                                     00E6   274 ; COMPLETION CODES:
                                     00E6   275 ;
                                     00E6   276 ;	R0 = SUCESS IF RECORD FOUND AND DEQUEUED
                                     00E6   277 ;	   = NOSUCHJOB IF NOT FOUND
                                     00E6   278 ;
                                     00E6   279 ; SIDE EFFECTS:
                                     00E6   280 ;
                                     00E6   281 ;	R5 IS ADVANCE OF RECORD NUMBER IN MESSAGE BUFFER
                                     00E6   282 ;	TOP LEVEL RET MADE IF PRIVILEGE VIOLATION
                                     00E6   283 ;
                                     00E6   284 ;--
                                     00E6   285
                                     00E6   286 SYM$GETHLDJOB::				; FIND JOB IN HOLDING LIST
            52         04 A6     DE  00E6   287 	MOVAL	SMQ$L_HOLDLST(R6),R2	; SET ADDRESS OF LINK WORD
                                     00EA   288 	SETSTAT	NOSUCHJOB		; SET ERROR CODE IN CASE NOT FOUND
            57            62     D0  00ED   289 10$:	MOVL	(R2),R7			; GET OFFSET TO JOB
                          1B     13  00F0   290 	BEQL	50$			; BR IF NO MORE JOBS
            57            5A     C0  00F2   291 	ADDL	R10,R7			; FIND REAL ADDRESS OF JOB IN QUEUE
            65         04 A7     B1  00F5   292 	CMPW	SJH$W_JOBSEQ(R7),(R5)	; IS THIS THE JOB WE ARE LOOKING FOR?
                          06     13  00F9   293 	BEQL	20$			; BR IF YES
            52         08 A7     9E  00FB   294 	MOVAB	SJH$L_NEXTJOB(R7),R2	; SET ADDRESS OF JOB THREAD WORD
                          EC     11  00FF   295 	BRB	10$			; LOOK AGAIN
                          0026   30  0101   296 20$:	BSBW	SYM$CKREQPRV		; CHECK IF REQUESTOR HAS PRIVILEGE
                                     0104   297 	SYM_QUECHANGE			; PRIVILEGE CHECKED OK!-FLAG A CHANGE
            62         08 A7     D0  0107   298 	MOVL	SJH$L_NEXTJOB(R7),(R2)	; CLOSE THE LIST AROUND JOB FOUND
                          85     B5  010B   299 	TSTW	(R5)+			; ADVANCE POINTER PAST JOB ID NUMBER
                                 05  010D   300 50$:	RSB				; BACK TO CALLER
JBCSYMSUB       - SYMBIONT MANAGER SUBROUTINES                   22-AUG-1978 00:53:22   VAX-11 MACRO X0.3-11               Page   8
V01             GET HOLD QUEUE JOB                                                                                               (7)

                                     010E   302
                                     010E   303 	.SBTTL	CHECK FORMS FOR MATCH
                                     010E   304 ;++
                                     010E   305 ; FUNCTIONAL DESCRIPTION:
                                     010E   306 ;
                                     010E   307 ;	THIS ROUTINE IS CALLED TO CHECK IF THE
                                     010E   308 ;
                                     010E   309 ; CALLING SEQUENCE:
                                     010E   310 ;
                                     010E   311 ;	BSB/JSB	SYM$CMPFORMS		; COMPAIR FORMS TYPE
                                     010E   312 ;
                                     010E   313 ; INPUT PARAMETERS:
                                     010E   314 ;
                                     010E   315 ;	R6 CONTAINS THE ADDRESS OF THE HEADER OF THE QUEUE
                                     010E   316 ;	R7 HAS PRINT JOB TO CHECK FORMS AGAINST HEADER
                                     010E   317 ;
                                     010E   318 ; IMPLICIT INPUTS:
                                     010E   319 ;
                                     010E   320 ;	R10 HAS THE BASE ADDRESS OF THE QUEUE FILE
                                     010E   321 ;	R11 HAS THE ADDRESS OF THE JOB CONTROLLER DATA BLOCK
                                     010E   322 ;
                                     010E   323 ; OUTPUT PARAMETERS:
                                     010E   324 ;
                                     010E   325 ;	R0 IS TRUE OR FALSE DEPENDING ON THE FORMS TYPE COMPAIRISON
                                     010E   326 ;
                                     010E   327 ; COMPLETION CODES:
                                     010E   328 ;
                                     010E   329 ;	R0 IS SET TO TRUE OR FALSE
                                     010E   330 ;
                                     010E   331 ; SIDE EFFECTS:		NONE
                                     010E   332 ;--
                                     010E   333
                                     010E   334 SYM$CMPFORMS::				; COMPAIR FORMS TYPE
                          50     D4  010E   335 	CLRL	R0			; ASSUME NO MATCH
                                 93  0110   336 	BITB	#<SMQ$M_GENDEV!SMQ$M_DETJOB>,- ; CHECK IF QUEUE IS FOR BATCH,
         08 A6            12         0111   337 		SMQ$B_FLAGS(R6)		; OR GENERIC DEVICE
                          11     12  0114   338 	BNEQ	20$			; BR IF EITHER-FORMS MATCH IMPLIED
         0C A7            01     E1  0116   339 	BBC	#SJH$V_LOWER,SJH$B_FLAGS(R7),10$ ; BR IF NO LOWER CASE REQUIRED
                          05         011A
         0A A6            03     E1  011B   340 	BBC	#SMQ$V_LOWER,SMQ$B_CHAR(R6),30$  ; BR IF NOT A LOWER CASE DEVICE
                          09         011F
         09 A6         0D A7     91  0120   341 10$:	CMPB	SJH$B_FORMS(R7),SMQ$B_FORMS(R6) ; ARE FORMS THE SAME?
                          02     12  0125   342 	BNEQ	30$			; BR IF NO MATCH
                          50     D6  0127   343 20$:	INCL	R0			; SET TRUE RESULT
                                 05  0129   344 30$:	RSB				; ALL DONE
JBCSYMSUB       - SYMBIONT MANAGER SUBROUTINES                   22-AUG-1978 00:53:22   VAX-11 MACRO X0.3-11               Page   9
V01             CHECK REQUESTORS PRIVILEGE                                                                                       (8)

                                     012A   346 	.SBTTL	CHECK REQUESTORS PRIVILEGE
                                     012A   347 ;++
                                     012A   348 ; FUNCTIONAL DESCRIPTION:
                                     012A   349 ;
                                     012A   350 ;	THIS ROUTINE IS CALLED TO CHECK IF THE REQUESTING
                                     012A   351 ;	PROCESS HAS PRIVILEGE TO MANINPULATE A SPECIFIED
                                     012A   352 ;	PRINT JOB.
                                     012A   353 ;
                                     012A   354 ; CALLING SEQUENCE:
                                     012A   355 ;
                                     012A   356 ;	BSB/JSB	SYM$CKREQPRV		; CHECK THE REQUESTORS PRIVILEGE
                                     012A   357 ;
                                     012A   358 ; INPUT PARAMETERS:
                                     012A   359 ;
                                     012A   360 ;	R7 CONTAINS THE ADDRESS OF THE JOB THAT THE REQUESTOR WANTS TO DIDLE
                                     012A   361 ;	R9 CONTAINS THE ADDRESS OF THE SYMBIONT MANAGER MESSAGE
                                     012A   362 ;
                                     012A   363 ; IMPLICIT INPUTS:
                                     012A   364 ;
                                     012A   365 ;	R9 HAS THE ADDRESS OF THE SYMBIONT MANAGER RECORD
                                     012A   366 ;	R10 HAS THE BASE ADDRESS OF THE QUEUE FILE
                                     012A   367 ;	R11 HAS THE ADDRESS OF THE JOB CONTROLLER DATA BLOCK
                                     012A   368 ;
                                     012A   369 ; OUTPUT PARAMETERS:	NONE
                                     012A   370 ;
                                     012A   371 ; COMPLETION CODES:
                                     012A   372 ;
                                     012A   373 ;	R0 IS SET TO NORMAL IF RETURN TO CALLER
                                     012A   374 ;
                                     012A   375 ; SIDE EFFECTS:
                                     012A   376 ;
                                     012A   377 ;	TOP LEVEL RETURN MADE WITH NOPRIV IF PRIVILEGE VIOLATION OCCURRED
                                     012A   378 ;
                                     012A   379 ;--
                                     012A   380
                                     012A   381 SYM$CKREQPRV::				; CHECK FOR REQUESTORS PRIVILEGE
                          FED3'  30  012A   382 	BSBW	SYM$CKOPRPRV		; FIRST SEE IF REQUESTOR IS OPERATOR
            07            50     E8  012D   383 	BLBS	R0,10$			; IF YES-HE CAN DO WHAT HE WANTS
                                 B1  0130   384 	CMPW	SMR$L_UIC+2(R9),-	; IS THE REQUESTOR IN THE SAME GROUP
         16 A7         0E A9         0131   385 		SJH$L_UIC+2(R7)		; AS THE USER THAT QUEUED THE JOB?
                          04     12  0135   386 	BNEQ	50$			; BR IF NO-RETURN NO PRIV
                                     0137   387 10$:	SETSTAT	NORMAL			; RETURN SUCESS STATUS
                                 05  013A   388 	RSB				; TO THE CALLER
                                 04  013B   389 50$:	RET				; RETURN NOPRIVILEGE STATUS TO TOP
JBCSYMSUB       - SYMBIONT MANAGER SUBROUTINES                   22-AUG-1978 00:53:22   VAX-11 MACRO X0.3-11               Page  10
V01             GET DEVICE CHARACTERISTICS                                                                                       (9)

                                     013C   391 	.SBTTL	GET DEVICE CHARACTERISTICS
                                     013C   392 ;++
                                     013C   393 ; FUNCTIONAL DESCRIPTION:
                                     013C   394 ;
                                     013C   395 ;	THIS ROUTINE IS CALL TO GET THE DEVICE CHARACTERISTICS
                                     013C   396 ;	FOR SOME DEVICE.  A CHANNEL IS ASSIGNED TO THE DEVICE
                                     013C   397 ;	AND A "GET DEVICE CHARACTERISTICS" SYSTEM SERVICE
                                     013C   398 ;	REQUEST IS ISSUED.
                                     013C   399 ;
                                     013C   400 ; CALLING SEQUENCE:
                                     013C   401 ;
                                     013C   402 ;	BSB/JSB	SYM$GETDEVCHAR
                                     013C   403 ;
                                     013C   404 ; INPUT PARAMETERS:
                                     013C   405 ;
                                     013C   406 ;	R0 CONTAINS THE ADDRESS OF A COUNTED ASCII STRING
                                     013C   407 ;	OF THE DEVICE NAME
                                     013C   408 ;
                                     013C   409 ; OUTPUT PARAMETERS:
                                     013C   410 ;
                                     013C   411 ;	R2 HAS ADDRESS OF BUFFER WITH DEVICE CHARACTERISTICS
                                     013C   412 ;
                                     013C   413 ; COMPLETION CODES:
                                     013C   414 ;
                                     013C   415 ;	AS RETURNED FOR THE SYSTEM SERVICE
                                     013C   416 ;
                                     013C   417 ; SIDE EFFECTS:		NONE
                                     013C   418 ;--
                                     013C   419 SYM$GETDEVCHAR::
            5E            14     C2  013C   420 	SUBL	#20,SP			; ALLOCATE SPACE FOR DEVICE NAME
            52            5E     D0  013F   421 	MOVL	SP,R2			; COPY START OF BUFFER
                          62     9F  0142   422 	PUSHAB	(R2)			; PUSH FIRST HALF OF DESCRIPTOR
            51            80     9A  0144   423 	MOVZBL	(R0)+,R1		; GET DEVICE NAME LENGTH
                       02 A1     9F  0147   424 	PUSHAB	2(R1)			; SET FINAL LENGTH OF DEVICE NAME
            82         5F 8F     90  014A   425 	MOVB	#^A/_/,(R2)+		; SET NO TRANSLATION FLAG
            82            80     90  014E   426 10$:	MOVB	(R0)+,(R2)+		; COPY DEVICE NAME INTO BUFFER
            FA            51     F5  0151   427 	SOBGTR	R1,10$			; COPY ENTIRE NAME
            82            3A     90  0154   428 	MOVB	#^A/:/,(R2)+		; TERMINATE WITH A COLON
            51         0C AB     DE  0157   429 	MOVAL	JCD_Q_LBUFDES+4(R11),R1	; POINT AT SECOND 1/2 OF BUFFER DESC
            52            61     D0  015B   430 	MOVL	(R1),R2			; SAVE ADDRESS OF THE BUFFER
            71            71     B0  015E   431 	MOVW	-(R1),-(R1)		; RESET BUFFER LENGTH
            50            5E     D0  0161   432 	MOVL	SP,R0			; SAVE ADDRESS OF DEVICE NAME DESC
                                     0164   433 	$GETDEV_S (R0),,,(R1),(R1)	; ASK FOR ONLY SECONDARY DEVICE
            5E            1C     C0  0175   434 	ADDL	#20+8,SP		; CLEAR BUFFER AND DESCRIPTOR
                                 05  0178   435 	RSB				;
                                     0179   436
                                     0179   437 	.END				;
JBCSYMSUB       - SYMBIONT MANAGER SUBROUTINES                   22-AUG-1978 00:53:22   VAX-11 MACRO X0.3-11               Page  11
SYMBOL TABLE                                                                                                                     (9)

ACM$B_PROCPRI    00000024            JBC$_SYMDEL    = 00048470            SJH$L_RECLINK    00000000
ACM$L_PROCID     FFFFFFFC            JBC$_UAFOPN    = 000484A0            SJH$L_UIC        00000014
ACM$L_UIC        0000000C            JBC$_UNESYMMSG = 000484C0            SJH$M_HOLD     = 00000001
ACM$Q_ACNTNAM    0000001C            JBC$_USERVAL   = 00048498            SJH$M_JOBABORT = 00000004
ACM$Q_PRVMSK     00000004            JBC_K_MAXBUFR  = 00000004            SJH$M_LOWER    = 00000002
ACM$T_DATA       00000028            JBC_K_PRTIMFLAG= 00000002            SJH$Q_ACNTNAM    00000024
ACM$T_USERNAM    00000010            JBC_K_SYNCFLAG = 00000001            SJH$Q_JOBNAME    00000034
ACM$W_MAILBOX    00000002            JBC_K_UPDFLG   = 00000008            SJH$Q_TIME       0000002C
ACM$W_TYPE       00000000            JBC_M_CREJOBREQ= 00000008            SJH$T_USERNAM    00000018
ACM$W_USERREQ    00000026            JBC_M_MBREADREQ= 00000001            SJH$V_HOLD     = 00000000
BIT...         = 00000005            JBC_M_SRVTIMQUE= 00000010            SJH$V_JOBABORT = 00000002
GBL...         = 00000000            JBC_M_SYMCREREQ= 00000002            SJH$V_LOWER    = 00000001
JBC$_ACMINVOP  = 00048088            JBC_M_SYMINIREQ= 00000004            SJH$W_JOBSEQ     00000004
JBC$_ACNTOPN   = 00048478            JBC_V_CREJOBREQ= 00000003            SJH$W_MBCHAN     0000000D
JBC$_ACNTWRT   = 00048480            JBC_V_MBREADREQ= 00000000            SJH$W_QINDEX     00000006
JBC$_ENTQUE    = 000484A8            JBC_V_SRVTIMQUE= 00000004            SMQ$B_CHAR       0000000A
JBC$_ILLDEVNAM = 00048000            JBC_V_SYMCREREQ= 00000001            SMQ$B_FLAGS      00000008
JBC$_ILLDEVTYP = 00048008            JBC_V_SYMINIREQ= 00000002            SMQ$B_FORMS      00000009
JBC$_ILLFILNAM = 00048010            JCD_A_LBUFADR    0000000C            SMQ$B_JOBCNT     00000009
JBC$_ILLQUENAM = 00048018            JCD_A_QUEBASE    00000018            SMQ$B_JOBLIM     0000000B
JBC$_INPASGN   = 00048488            JCD_B_CURPDEV    0000001D            SMQ$C_SIZE       00000020
JBC$_INPREAD   = 00048490            JCD_B_CURSYMB    0000001C            SMQ$K_SIZE       00000020
JBC$_INVMSG    = 00048418            JCD_G_LISTS      00000000            SMQ$L_ASNSCT     0000000C
JBC$_INVSCT    = 00048468            JCD_G_WLEND      FFFFFFF0            SMQ$L_CURRENT    00000000
JBC$_JOBABORT  = 00048080            JCD_G_WORKLIST   FFFFFFD0            SMQ$L_HOLDLST    00000004
JBC$_JOBCRD    = 000484B0            JCD_K_SIZE     = 000000FC            SMQ$M_CREPND   = 00000004
JBC$_LOSTREC   = 00048438            JCD_L_SMBPID     FFFFFFCC            SMQ$M_DEFBRST  = 00000002
JBC$_MBASGN    = 00048400            JCD_Q_ACNTFIL    FFFFFFE8            SMQ$M_DEFFLAG  = 00000001
JBC$_MBDEAS    = 00048460            JCD_Q_FREEBUFR   FFFFFFF0            SMQ$M_DETJOB   = 00000002
JBC$_MBREAD    = 00048408            JCD_Q_LBUFDES    00000008            SMQ$M_GENDEV   = 00000010
JBC$_MBSETAST  = 000484C8            JCD_Q_PROCDEL    FFFFFFE0            SMQ$M_INIPRI   = 0000000F
JBC$_MBWRITE   = 000484D0            JCD_Q_SYMBMAN    FFFFFFD8            SMQ$M_INUSE    = 00000001
JBC$_MULTREC   = 00048430            JCD_Q_SYMBSRV    FFFFFFD0            SMQ$M_LOWER    = 00000008
JBC$_NOOPENJOB = 00048048            JCD_Q_SYMBWAIT   FFFFFFF8            SMQ$M_NOGENERIC= 00000020
JBC$_NOPRIV    = 00048020            JCD_Q_TIME       FFFFFFC4            SMQ$M_NOSWAP   = 00000010
JBC$_NOQUEHDR  = 00048028            JCD_Q_TMPDESC    00000010            SMQ$M_PAUSED   = 00000004
JBC$_NOQUESPACE= 00048030            JCD_T_INDEX0     00000000            SMQ$M_REDIRECT = 00000010
JBC$_NORMAL    = 00040001            JCD_T_LINBFE     000000C0            SMQ$M_STOPPED  = 00000008
JBC$_NOSUCHJOB = 00048040            JCD_T_LINBUF     0000001E            SMQ$M_TRMDEV   = 00000004
JBC$_NOSUCHQUE = 00048038            JCD_T_START      FFFFFFC4            SMQ$S_INIPRI   = 00000004
JBC$_PASSCRD   = 000484B8            JCD_W_FLAGS      00000004            SMQ$T_NAME       00000010
JBC$_PRCREAT   = 00048410            JCD_W_JOBSEQ     00000006            SMQ$V_CREPND   = 00000002
JBC$_PRINTOUT  = 000484E0            JCD_W_LBUFCNT    00000008            SMQ$V_DEFBRST  = 00000001
JBC$_QUECNT    = 00048428            JCD_W_LBUFSIZ    0000000A            SMQ$V_DEFFLAG  = 00000000
JBC$_QUEERR    = 00048458            JCD_W_MBCHAN     00000002            SMQ$V_DETJOB   = 00000001
JBC$_QUENOSTOP = 00048050            JCD_W_TMPCHAN    00000000            SMQ$V_GENDEV   = 00000004
JBC$_QUEUPD    = 000484E8            JCM_K_SIZE       000000C0            SMQ$V_INIPRI   = 00000000
JBC$_SCTERR    = 00048450            JCM_Q_IOSB       00000008            SMQ$V_INUSE    = 00000000
JBC$_SMINVOPR  = 00048058            JCM_Q_LINKS      00000000            SMQ$V_LOWER    = 00000003
JBC$_SMINVOPT  = 00048060            JCM_T_MSGDATA    00000010            SMQ$V_NOGENERIC= 00000005
JBC$_SMINVREQ  = 00048068            SJH$B_COPYCNT    0000000E            SMQ$V_NOSWAP   = 00000004
JBC$_SMZEROJOB = 00048070            SJH$B_FLAGS      0000000C            SMQ$V_PAUSED   = 00000002
JBC$_SNDRESP   = 00048420            SJH$B_FORMS      0000000D            SMQ$V_REDIRECT = 00000004
JBC$_SYMBASN   = 00048440            SJH$B_PRTPRI     0000000F            SMQ$V_STOPPED  = 00000003
JBC$_SYMBCRE   = 000484D8            SJH$L_NEXTJOB    00000008            SMQ$V_TRMDEV   = 00000002
JBC$_SYMBDSAB  = 00048078            SJH$L_PARMBLK    0000003C            SMR$B_PROCPRI    00000024
JBC$_SYMBWRT   = 00048448            SJH$L_PROCID     00000010            SMR$L_PROCID     FFFFFFFC
JBCSYMSUB       - SYMBIONT MANAGER SUBROUTINES                   22-AUG-1978 00:53:22   VAX-11 MACRO X0.3-11               Page  12
SYMBOL TABLE                                                                                                                     (9)

SMR$L_UIC        0000000C            SYM$GETHLDJOB    000000E6 RG    03
SMR$Q_ACNTNAM    0000001C            SYM$INIPRTJOBHD  00000000 RG    03
SMR$Q_PRVMSK     00000004            SYM$INIPRTREC    00000058 RG    03
SMR$T_DATA       00000028            SYM$K_RECSIZE    00000040
SMR$T_USERNAM    00000010            SYM_K_MAXDEVNAM= 0000000F
SMR$W_MAILBOX    00000002            SYM_K_MAXFILNAM= 00000013
SMR$W_TYPE       00000000            SYM_K_MAXSYMB  = 00000010
SMR$W_USERREQ    00000026            SYM_K_NUMQUEUE = 0000001F
SQH$B_FLAGS      00000004            SYM_K_NUMRECORD= 00000400
SQH$B_MAXQUE     00000006            SYM_K_PRTPRI   = 00000020
SQH$B_NUMQUE     00000005            SYM_K_QUENAM   = 0000000F
SQH$B_SPARE      00000007            SYS$GETDEV       ********   X   03
SQH$C_SIZE       00000120            _$$$_          = 00000010
SQH$K_SIZE       00000120
SQH$L_FIRSTREC   00000008
SQH$L_FREEREC    00000000
SQH$L_LASTREC    00000010
SQH$L_NEXTREC    0000000C
SQH$L_OPENJOB    00000014
SQH$L_TIMQUE     00000018
SQH$Q_QUEUE      00000020
SQH$W_QUESEQ     0000001C
SQR$B_COPYCNT    00000039
SQR$B_FLAGS      00000038
SQR$L_RECLINK    00000000
SQR$M_BRSTPAG  = 00000004
SQR$M_DELETE   = 00000001
SQR$M_DOUBLE   = 00000008
SQR$M_FLAGPAG  = 00000002
SQR$M_NOFEED   = 00000010
SQR$M_PAGHDR   = 00000020
SQR$T_FILNAM     00000024
SQR$T_VOLNAM     00000008
SQR$V_BRSTPAG  = 00000002
SQR$V_DELETE   = 00000000
SQR$V_DOUBLE   = 00000003
SQR$V_FLAGPAG  = 00000001
SQR$V_NOFEED   = 00000004
SQR$V_PAGHDR   = 00000005
SQR$W_DIRNUM     0000001E
SQR$W_DIRSEQ     00000020
SQR$W_DIRVOL     00000022
SQR$W_FILNUM     00000018
SQR$W_FILSEQ     0000001A
SQR$W_JOBSEQ     00000004
SQR$W_PAGCNT     0000003A
SQR$W_RECID      00000006
SQR$W_RELVOL     0000001C
SYM$ALLRECORD    ********   X   03
SYM$CKOPRPRV     ********   X   03
SYM$CKREQPRV     0000012A RG    03
SYM$CMPFORMS     0000010E RG    03
SYM$C_RECSIZE    00000040
SYM$DEARECORD    ********   X   03
SYM$FINDCLSJOB   ********   X   03
SYM$GETCLSJOB    000000C2 RG    03
SYM$GETDEVCHAR   0000013C RG    03
JBCSYMSUB       - SYMBIONT MANAGER SUBROUTINES                   22-AUG-1978 00:53:22   VAX-11 MACRO X0.3-11               Page  13
PROGRAM SECTION SYNOPSIS                                                                                                         (9)


PROGRAM SECTION SYNOPSIS

.  ABS  .        00000000      00     NOPIC   USR   CON   ABS   LCL NOSHR NOEXE NORD  NOWRT BYTE
. BLANK .        00000000      01     NOPIC   USR   CON   REL   LCL NOSHR   EXE   RD    WRT BYTE
$ABS$            FFFFFFFC      02     NOPIC   USR   CON   ABS   LCL NOSHR   EXE   RD    WRT BYTE
JBC_PURE         00000179      03     NOPIC   USR   CON   REL   LCL NOSHR   EXE   RD  NOWRT BYTE


THERE WERE NO ERRORS OR WARNINGS.
17272. BYTES LEFT IN FREE MEMORY POOL.
210. BYTES OF RECLAIMED MEMORY.
OBJ$:JBCSYMSUB,LIS$:JBCSYMSUB/-SP=EXECML$/ML,LIB$:JOBCTL/ML,SRC$:JBCSYMSUB
38 MLB DIR RDS - 464 GETS TO DEFINE 24 MACROS. 28 INTER. FILE WRITES.
