JBCSYMCRE       - SYMBIONT CREATE                                22-AUG-1978 00:51:11   VAX-11 MACRO X0.3-11               Page   0
TABLE OF CONTENTS

   (2)      40  DECLARATIONS
   (4)     100  CREATE PRINT SYMBIONT
JBCSYMCRE       - SYMBIONT CREATE                                22-AUG-1978 00:51:11   VAX-11 MACRO X0.3-11               Page   1
V01                                                                                                                              (1)

                                     0000     1 	.TITLE	JBCSYMCRE - SYMBIONT CREATE
                                     0000     2 	.IDENT	/V01/
                                     0000     3
                                     0000     4 ;
                                     0000     5 ; COPYRIGHT (C) 1977
                                     0000     6 ; DIGITAL EQUIPMENT CORPORATION, MAYNARD, MASSACHUSETTS 01754
                                     0000     7 ;
                                     0000     8 ; THIS SOFTWARE IS FURNISHED  UNDER A LICENSE FOR USE ONLY ON A SINGLE
                                     0000     9 ; COMPUTER  SYSTEM AND  MAY BE  COPIED ONLY WITH  THE INCLUSION OF THE
                                     0000    10 ; ABOVE COPYRIGHT NOTICE.  THIS SOFTWARE, OR ANY OTHER COPIES THEREOF,
                                     0000    11 ; MAY NOT BE PROVIDED OR  OTHERWISE MADE AVAILABLE TO ANY OTHER PERSON
                                     0000    12 ; EXCEPT FOR USE ON SUCH SYSTEM AND TO ONE WHO AGREES TO THESE LICENSE
                                     0000    13 ; TERMS.  TITLE TO AND  OWNERSHIP OF THE  SOFTWARE  SHALL AT ALL TIMES
                                     0000    14 ; REMAIN IN DEC.
                                     0000    15 ;
                                     0000    16 ; THE INFORMATION IN THIS SOFTWARE IS SUBJECT TO CHANGE WITHOUT NOTICE
                                     0000    17 ; AND SHOULD  NOT BE CONSTRUED  AS A COMMITMENT  BY DIGITAL  EQUIPMENT
                                     0000    18 ; CORPORATION.
                                     0000    19 ;
                                     0000    20 ; DEC ASSUMES  NO  RESPONSIBILITY  FOR  THE USE OR  RELIABILITY OF ITS
                                     0000    21 ; SOFTWARE ON EQUIPMENT WHICH IS NOT SUPPLIED BY DEC.
                                     0000    22 ;
                                     0000    23
                                     0000    24 ;++
                                     0000    25 ; FACILITY:	STARLET JOB CONTROLLER/SYMBIONT MANAGER
                                     0000    26 ;
                                     0000    27 ; ABSTRACT:	SYMBIONT CREATE SUBROUTINE
                                     0000    28 ;
                                     0000    29 ;
                                     0000    30 ; ENVIRONMENT:	NATIVE NON-PRIVLEGED USER MODE CODE
                                     0000    31 ;
                                     0000    32 ; AUTHOR:  W.H.BROWN, CREATION DATE: 15-MAR-77
                                     0000    33 ;
                                     0000    34 ; MODIFIED BY:
                                     0000    35 ;
                                     0000    36 ;	, : VERSION
                                     0000    37 ; 01	-
                                     0000    38 ;--
JBCSYMCRE       - SYMBIONT CREATE                                22-AUG-1978 00:51:11   VAX-11 MACRO X0.3-11               Page   2
V01             DECLARATIONS                                                                                                     (2)

                                     0000    40 	.SBTTL	DECLARATIONS
                                     0000    41 ;
                                     0000    42 ; INCLUDE FILES:	[235,10]J/ML
                                     0000    43 ;
                                     0000    44 ;
                                     0000    45 ; MACROS:
                                     0000    46 ;
                                     0000    47 	.MACRO	$QUOTA	NAME=LISTEND,VALUE=0
                                     0000    48 	.BYTE	PQL$_'NAME
                                     0000    49 	.LONG	VALUE
                                     0000    50 	.ENDM	$QUOTA
                                     0000    51
                                     0000    52 ;
                                     0000    53 ; EQUATED SYMBOLS:
                                     0000    54 ;
                                     0000    55 	$PQLDEF				; DEFINE PROCESS QUOTA CODES
                                     0000    56 	$PRVDEF				; DEFINE PRIVILEGE BITS
                                     0000    57 	JBCPARDEF			; DEFINE JOB CONTROLLER PARAMETERS
                                     0000    58 	JBCSCTDEF			; SYMBIONT CONTROL TABLE DEFINITIONS
                                     0000    59 	JBCQUEDEF			; DEFINE QUEUE OFFSETS
                                     0000    60 ;
                                     0000    61 ; OWN STORAGE:
                                     0000    62 ;
                                     0000    63 	PURE_SECTION
                                     0000    64
                                     0000    65 SYM$Q_SYMNAME:				; DESCRIPTOR FOR
                                     0000    66 	STRING_DESC	<SYS$SYSTEM:PRTSMB.EXE> ; SYMBIONT IMAGE FILE NAME
                                     001D    67
                                     001D    68 SYM$Q_SYMBPRIV:				; PRIVILEGE MASK FOR THE PRINT SYMBIONT
                           00008011  001D    69 	.LONG	<<1@PRV$V_CMKRNL>!-	; CHANGE MODE TO KERNAL
                                     0021    70 		 <1@PRV$V_ALLSPOOL>!-	; ALLOCATE SPOOLED DEVICE
                                     0021    71 		 <1@PRV$V_TMPMBX>>	; CREATE TEMPORARY MAILBOX
                           00000000  0021    72 	.LONG	0			;
                                     0025    73
                                     0025    74 	.ENABL	LSB
                                     0025    75
                                     0025    76 SYM$Q_PRCNAM:				;
                           00000008' 0025    77 	.LONG	20$-10$			; LENGTH
                           00000000' 0029    78 	.LONG	10$			; START
                                     002D    79
                                     002D    80
                                     002D    81 ;
                                     002D    82 ;	QUOTA LIST FOR SYMBIONT SUBPROCESS
                                     002D    83 ;
                                     002D    84 SYM$QUOTA:				;
                                     002D    85 	$QUOTA	CPULM,0			; INIFINITE CPU
                                     0032    86 	$QUOTA	BYTLM,1024		; BYTE LIMIT FOR BUFFERED I/O
                                     0037    87 	$QUOTA	FILLM,3			; OPEN FILE COUNT LIMIT
                                     003C    88 	$QUOTA	PGFLQUOTA,256		; PAGING FILE QUOTA
                                     0041    89 	$QUOTA	PRCLM,0			; NO SUBPROCESS QUOTA
                                     0046    90 	$QUOTA	TQELM,1			; TIMER QUEUE ENTRY QUOTA
                                     004B    91 	$QUOTA	LISTEND			; END OF LIST
                                     0050    92 	IMPURE_DATA
                                     0000    93
               42 4D 59 53 54 52 50  0000    94 10$:	.ASCII	\PRTSYMB\
                           00000008  0007    95 SYMBNUM:.BLKB	1
                                     0008    96 20$:
JBCSYMCRE       - SYMBIONT CREATE                                22-AUG-1978 00:51:11   VAX-11 MACRO X0.3-11               Page   3
V01             DECLARATIONS                                                                                                     (2)

                                     0008    97 	.DSABL	LSB
JBCSYMCRE       - SYMBIONT CREATE                                22-AUG-1978 00:51:11   VAX-11 MACRO X0.3-11               Page   4
V01             DECLARATIONS                                                                                                     (4)

                                     0008    99
                                     0008   100 	.SBTTL	CREATE PRINT SYMBIONT
                                     0008   101 ;++
                                     0008   102 ; FUNCTIONAL DESCRIPTION:
                                     0008   103 ;
                                     0008   104 ;	THIS ROUTINE IS CALLED TO INITIATE AN OUTPUT SYMBIONT.
                                     0008   105 ;	THE CURRENT NUMBER OF ACTIVE DEVICE PRINT QUEUES,
                                     0008   106 ;	THE CURRENT NUMBER OF PRINT SYMBIONTS, AND THE
                                     0008   107 ;	MAXIMUM NUMBER OF SYMBIONTS PERMITED TO DECIDE
                                     0008   108 ;	IF A CREATE SHOULD BE PERFORMED.
                                     0008   109 ;
                                     0008   110 ; CALLING SEQUENCE:
                                     0008   111 ;
                                     0008   112 ;	JSB/BSB	SYM$CREPRTSYM
                                     0008   113 ;
                                     0008   114 ; INPUT PARAMETERS:
                                     0008   115 ;
                                     0008   116 ;	SYM$B_CURPRTDEV	CONTAINS THE CURRENT NUMBER OF ACTIVE DESPOOLED DEVICES
                                     0008   117 ;	SYM$B_CURPRTSYM CONTAINS THE CURRENT NUMBER OF PRINT SYMBIONTS
                                     0008   118 ;	SYS$GB_MXPRTSYM CONTAINS THE MAXIMUM NUMBER OF PRINT SYMBIONTS ALLOWED
                                     0008   119 ;
                                     0008   120 ; OUTPUT PARAMETERS:
                                     0008   121 ;
                                     0008   122 ;	IF A CREATE SHOULD BE PERFORMED, A SLOT IN THE SYMBIONT
                                     0008   123 ;	CONTROL TABLE IS ALLOCATED, A CREATE PROCESS IS REQUESTED.
                                     0008   124 ;	IF THE CREATE IS SUCESSFUL, THE SYMBIONT STATE IS SET TO 1
                                     0008   125 ;	INDICATING THAT THE SYMBIONT IS IN THE INIT STATE.
                                     0008   126 ;
                                     0008   127 ; COMPLETION CODES:	NONE
                                     0008   128 ;
                                     0008   129 ; SIDE EFFECTS:		NONE
                                     0008   130 ;--
                                     0008   131 	PURE_SECTION
                                     0050   132
                                     0050   133 SYM$CREPRTSYM::				; CREATE PRINT SYMBIONT
                                 91  0050   134 	CMPB	JCD_B_CURSYMB(R11),-	; CHECK CURRENT NUMBER OF SYMBIONTS
         1D AB         1C AB         0051   135 		JCD_B_CURPDEV(R11)	; AGAINST NUMBER OF PRINT DEVICES
                          64     1E  0055   136 	BGEQU	90$			; BR IF NO MORE SYMBIONTS REQUIRED
                                 91  0057   137 	CMPB	JCD_B_CURSYMB(R11),-	; NOW CHECK THE CURRENT NUMBER
   00000000'9F         1C AB         0058   138 		@#SYS$GB_MXPRTSYM	; THE MAXIMUM EVER ALLOWED
                          5A     1E  005F   139 	BGEQU	90$			; BR IF THERE IS ENOUGH
                          51     D4  0061   140 	CLRL	R1			; SET A COUNTER
                     0000'CF     9F  0063   141 	PUSHAB	W^SYM$NXTSYMCTL		; INIT CO-ROUTINE ADDRESS
                          9E     16  0067   142 10$:	JSB	@(SP)+			; CO-ROUTINE LINK
            4F            50     E9  0069   143 	BLBC	R0,90$			; BR IF NO ROOM IN CONTROL TABLES
                          51     D6  006C   144 	INCL	R1			; COUNT SCT INDEX
                       08 A5     95  006E   145 	TSTB	SCT_B_STATE(R5)		; SLOT FREE?
                          F4     12  0071   146 	BNEQ	10$			; BR IF NOT FREE
                          8E     D5  0073   147 	TSTL	(SP)+			; CLEAR CO-ROUTINE LINK
            0A            51     91  0075   148 	CMPB	R1,#10			; MORE THAN 9?
                          03     1F  0078   149 	BLSSU	20$			; BR IF NO
            51            07     80  007A   150 	ADDB	#<^A/A/-^A/0/-10>,R1	; FIX UP NAME TO ALHABETIC
            51            30     80  007D   151 20$:	ADDB	#^A/0/,R1		; ADD IN ASCII BIAS
       0007'CF            51     90  0080   152 	MOVB	R1,W^SYMBNUM		; SET SYMBIONT NUMBER
                                     0085   153 	$CREPRC_S	-		; CREATE A PROCESS
                                     0085   154 		PIDADR = SCT_L_PROCID(R5),-; PLACE TO STORE PROCESS ID
                                     0085   155 		PRCNAM = SYM$Q_PRCNAM,-	; THE PROCESS NAME DESCRIPTOR
JBCSYMCRE       - SYMBIONT CREATE                                22-AUG-1978 00:51:11   VAX-11 MACRO X0.3-11               Page   5
V01             CREATE PRINT SYMBIONT                                                                                            (4)

                                     0085   156 		BASPRI = #8,-		; BASE PRIORITY
                                     0085   157 		IMAGE  = W^SYM$Q_SYMNAME,- ; NAME OF IMAGE TO RUN
                                     0085   158 		PRVADR = SYM$Q_SYMBPRIV,-; PRIVILEGE TO PASS
                                     0085   159 		QUOTA  = SYM$QUOTA	; QUOTAS FOR SYMBIONT PROCESS
            07            50     E8  00AB   160 	BLBS	R0,30$			; BR IF SERVICE WAS ACCEPTED
                                     00AE   161 	SETBIT	#JBC_V_SYMCREREQ,-	; SET FLAG TO INDICATE THAT CREATE
                                     00AE   162 		JCD_W_FLAGS(R11)	; IS REQUIRED
                          06     11  00B3   163 	BRB	90$			; TRY AGAIN LATER
                       08 A5     96  00B5   164 30$:	INCB	SCT_B_STATE(R5)		; SET STATE TO INIT IN PROGRESS
                       1C AB     96  00B8   165 	INCB	JCD_B_CURSYMB(R11)	; ADD 1 TO NUMBER OF PRINT SYMBIONTS
                                 05  00BB   166 90$:	RSB				; RETURN TO CALLER
                                     00BC   167
                                     00BC   168
                                     00BC   169 	.END
JBCSYMCRE       - SYMBIONT CREATE                                22-AUG-1978 00:51:11   VAX-11 MACRO X0.3-11               Page   6
SYMBOL TABLE                                                                                                                     (4)

$$T1           = 00000000            JBC$_SYMBDSAB  = 00048078            PQL$_FILLM     = 00000006
.$$.           = 00000015            JBC$_SYMBWRT   = 00048448            PQL$_LENGTH    = 0000000C
ACM$B_PROCPRI    00000024            JBC$_SYMDEL    = 00048470            PQL$_LISTEND   = 00000000
ACM$L_PROCID     FFFFFFFC            JBC$_UAFOPN    = 000484A0            PQL$_PGFLQUOTA = 00000007
ACM$L_UIC        0000000C            JBC$_UNESYMMSG = 000484C0            PQL$_PRCLM     = 00000008
ACM$Q_ACNTNAM    0000001C            JBC$_USERVAL   = 00048498            PQL$_TQELM     = 00000009
ACM$Q_PRVMSK     00000004            JBC_K_MAXBUFR  = 00000004            PQL$_WSDEFAULT = 0000000B
ACM$T_DATA       00000028            JBC_K_PRTIMFLAG= 00000002            PQL$_WSQUOTA   = 0000000A
ACM$T_USERNAM    00000010            JBC_K_SYNCFLAG = 00000001            PRV$V_ALLSPOOL = 00000004
ACM$W_MAILBOX    00000002            JBC_K_UPDFLG   = 00000008            PRV$V_BUGCHK   = 00000017
ACM$W_TYPE       00000000            JBC_M_CREJOBREQ= 00000008            PRV$V_CMEXEC   = 00000001
ACM$W_USERREQ    00000026            JBC_M_MBREADREQ= 00000001            PRV$V_CMKRNL   = 00000000
BIT...         = 00000005            JBC_M_SRVTIMQUE= 00000010            PRV$V_DETACH   = 00000005
GBL...         = 00000000            JBC_M_SYMCREREQ= 00000002            PRV$V_DIAGNOSE = 00000006
JBC$_ACMINVOP  = 00048088            JBC_M_SYMINIREQ= 00000004            PRV$V_EXQUOTA  = 00000013
JBC$_ACNTOPN   = 00048478            JBC_V_CREJOBREQ= 00000003            PRV$V_GROUP    = 00000008
JBC$_ACNTWRT   = 00048480            JBC_V_MBREADREQ= 00000000            PRV$V_GRPNAM   = 00000003
JBC$_ENTQUE    = 000484A8            JBC_V_SRVTIMQUE= 00000004            PRV$V_LOG_IO   = 00000007
JBC$_ILLDEVNAM = 00048000            JBC_V_SYMCREREQ= 00000001            PRV$V_MOUNT    = 00000011
JBC$_ILLDEVTYP = 00048008            JBC_V_SYMINIREQ= 00000002            PRV$V_NETMBX   = 00000014
JBC$_ILLFILNAM = 00048010            JCD_A_LBUFADR    0000000C            PRV$V_NOACNT   = 00000009
JBC$_ILLQUENAM = 00048018            JCD_A_QUEBASE    00000018            PRV$V_OPER     = 00000012
JBC$_INPASGN   = 00048488            JCD_B_CURPDEV    0000001D            PRV$V_PHY_IO   = 00000016
JBC$_INPREAD   = 00048490            JCD_B_CURSYMB    0000001C            PRV$V_PRMCEB   = 0000000A
JBC$_INVMSG    = 00048418            JCD_G_LISTS      00000000            PRV$V_PRMGBL   = 00000018
JBC$_INVSCT    = 00048468            JCD_G_WLEND      FFFFFFF0            PRV$V_PRMMBX   = 0000000B
JBC$_JOBABORT  = 00048080            JCD_G_WORKLIST   FFFFFFD0            PRV$V_PSWAPM   = 0000000C
JBC$_JOBCRD    = 000484B0            JCD_K_SIZE     = 000000FC            PRV$V_SETPRI   = 0000000D
JBC$_LOSTREC   = 00048438            JCD_L_SMBPID     FFFFFFCC            PRV$V_SETPRV   = 0000000E
JBC$_MBASGN    = 00048400            JCD_Q_ACNTFIL    FFFFFFE8            PRV$V_SYSGBL   = 00000019
JBC$_MBDEAS    = 00048460            JCD_Q_FREEBUFR   FFFFFFF0            PRV$V_SYSNAM   = 00000002
JBC$_MBREAD    = 00048408            JCD_Q_LBUFDES    00000008            PRV$V_TMPMBX   = 0000000F
JBC$_MBSETAST  = 000484C8            JCD_Q_PROCDEL    FFFFFFE0            PRV$V_VOLPRO   = 00000015
JBC$_MBWRITE   = 000484D0            JCD_Q_SYMBMAN    FFFFFFD8            PRV$V_WORLD    = 00000010
JBC$_MULTREC   = 00048430            JCD_Q_SYMBSRV    FFFFFFD0            SCT_B_FLAGS      00000009
JBC$_NOOPENJOB = 00048048            JCD_Q_SYMBWAIT   FFFFFFF8            SCT_B_STATE      00000008
JBC$_NOPRIV    = 00048020            JCD_Q_TIME       FFFFFFC4            SCT_K_ABOREQ   = 00000005
JBC$_NOQUEHDR  = 00048028            JCD_Q_TMPDESC    00000010            SCT_K_DEQFIL   = 00000003
JBC$_NOQUESPACE= 00048030            JCD_T_INDEX0     00000000            SCT_K_DEQJOB   = 00000002
JBC$_NORMAL    = 00040001            JCD_T_LINBFE     000000C0            SCT_K_FREE     = 00000000
JBC$_NOSUCHJOB = 00048040            JCD_T_LINBUF     0000001E            SCT_K_INIT     = 00000001
JBC$_NOSUCHQUE = 00048038            JCD_T_START      FFFFFFC4            SCT_K_MRKDEL   = 00000008
JBC$_PASSCRD   = 000484B8            JCD_W_FLAGS      00000004            SCT_K_REQUE    = 00000006
JBC$_PRCREAT   = 00048410            JCD_W_JOBSEQ     00000006            SCT_K_SIZE       00000028
JBC$_PRINTOUT  = 000484E0            JCD_W_LBUFCNT    00000008            SCT_K_SUSPND   = 00000007
JBC$_QUECNT    = 00048428            JCD_W_LBUFSIZ    0000000A            SCT_K_TRMJOB   = 00000004
JBC$_QUEERR    = 00048458            JCD_W_MBCHAN     00000002            SCT_L_CPUTIM     00000018
JBC$_QUENOSTOP = 00048050            JCD_W_TMPCHAN    00000000            SCT_L_CURFIL     00000010
JBC$_QUEUPD    = 000484E8            JCM_K_SIZE       000000C0            SCT_L_GETCNT     00000024
JBC$_SCTERR    = 00048450            JCM_Q_IOSB       00000008            SCT_L_PAGCNT     0000001C
JBC$_SMINVOPR  = 00048058            JCM_Q_LINKS      00000000            SCT_L_PROCID     0000000C
JBC$_SMINVOPT  = 00048060            JCM_T_MSGDATA    00000010            SCT_L_QIOCNT     00000020
JBC$_SMINVREQ  = 00048068            PQL$_ASTLM     = 00000001            SCT_Q_LINKS      00000000
JBC$_SMZEROJOB = 00048070            PQL$_BIOLM     = 00000002            SCT_W_JOBSTAT    00000016
JBC$_SNDRESP   = 00048420            PQL$_BYTLM     = 00000003            SCT_W_MBCHAN     0000000A
JBC$_SYMBASN   = 00048440            PQL$_CPULM     = 00000004            SCT_W_QINDEX     00000014
JBC$_SYMBCRE   = 000484D8            PQL$_DIOLM     = 00000005            SJH$B_COPYCNT    0000000E
JBCSYMCRE       - SYMBIONT CREATE                                22-AUG-1978 00:51:11   VAX-11 MACRO X0.3-11               Page   7
SYMBOL TABLE                                                                                                                     (4)

SJH$B_FLAGS      0000000C            SMQ$V_PAUSED   = 00000002            SYM$NXTSYMCTL    ********   X   03
SJH$B_FORMS      0000000D            SMQ$V_REDIRECT = 00000004            SYM$QUOTA        0000002D R     03
SJH$B_PRTPRI     0000000F            SMQ$V_STOPPED  = 00000003            SYM$Q_PRCNAM     00000025 R     03
SJH$L_NEXTJOB    00000008            SMQ$V_TRMDEV   = 00000002            SYM$Q_SYMBPRIV   0000001D R     03
SJH$L_PARMBLK    0000003C            SMR$B_PROCPRI    00000024            SYM$Q_SYMNAME    00000000 R     03
SJH$L_PROCID     00000010            SMR$L_PROCID     FFFFFFFC            SYMBNUM          00000007 R     04
SJH$L_RECLINK    00000000            SMR$L_UIC        0000000C            SYM_K_MAXDEVNAM= 0000000F
SJH$L_UIC        00000014            SMR$Q_ACNTNAM    0000001C            SYM_K_MAXFILNAM= 00000013
SJH$M_HOLD     = 00000001            SMR$Q_PRVMSK     00000004            SYM_K_MAXSYMB  = 00000010
SJH$M_JOBABORT = 00000004            SMR$T_DATA       00000028            SYM_K_NUMQUEUE = 0000001F
SJH$M_LOWER    = 00000002            SMR$T_USERNAM    00000010            SYM_K_NUMRECORD= 00000400
SJH$Q_ACNTNAM    00000024            SMR$W_MAILBOX    00000002            SYM_K_PRTPRI   = 00000020
SJH$Q_JOBNAME    00000034            SMR$W_TYPE       00000000            SYM_K_QUENAM   = 0000000F
SJH$Q_TIME       0000002C            SMR$W_USERREQ    00000026            SYS$CREPRC       ********   X   03
SJH$T_USERNAM    00000018            SQH$B_FLAGS      00000004            SYS$GB_MXPRTSYM  ********   X   03
SJH$V_HOLD     = 00000000            SQH$B_MAXQUE     00000006            _$$_           = 00000000
SJH$V_JOBABORT = 00000002            SQH$B_NUMQUE     00000005
SJH$V_LOWER    = 00000001            SQH$B_SPARE      00000007
SJH$W_JOBSEQ     00000004            SQH$C_SIZE       00000120
SJH$W_MBCHAN     0000000D            SQH$K_SIZE       00000120
SJH$W_QINDEX     00000006            SQH$L_FIRSTREC   00000008
SMQ$B_CHAR       0000000A            SQH$L_FREEREC    00000000
SMQ$B_FLAGS      00000008            SQH$L_LASTREC    00000010
SMQ$B_FORMS      00000009            SQH$L_NEXTREC    0000000C
SMQ$B_JOBCNT     00000009            SQH$L_OPENJOB    00000014
SMQ$B_JOBLIM     0000000B            SQH$L_TIMQUE     00000018
SMQ$C_SIZE       00000020            SQH$Q_QUEUE      00000020
SMQ$K_SIZE       00000020            SQH$W_QUESEQ     0000001C
SMQ$L_ASNSCT     0000000C            SQR$B_COPYCNT    00000039
SMQ$L_CURRENT    00000000            SQR$B_FLAGS      00000038
SMQ$L_HOLDLST    00000004            SQR$L_RECLINK    00000000
SMQ$M_CREPND   = 00000004            SQR$M_BRSTPAG  = 00000004
SMQ$M_DEFBRST  = 00000002            SQR$M_DELETE   = 00000001
SMQ$M_DEFFLAG  = 00000001            SQR$M_DOUBLE   = 00000008
SMQ$M_DETJOB   = 00000002            SQR$M_FLAGPAG  = 00000002
SMQ$M_GENDEV   = 00000010            SQR$M_NOFEED   = 00000010
SMQ$M_INIPRI   = 0000000F            SQR$M_PAGHDR   = 00000020
SMQ$M_INUSE    = 00000001            SQR$T_FILNAM     00000024
SMQ$M_LOWER    = 00000008            SQR$T_VOLNAM     00000008
SMQ$M_NOGENERIC= 00000020            SQR$V_BRSTPAG  = 00000002
SMQ$M_NOSWAP   = 00000010            SQR$V_DELETE   = 00000000
SMQ$M_PAUSED   = 00000004            SQR$V_DOUBLE   = 00000003
SMQ$M_REDIRECT = 00000010            SQR$V_FLAGPAG  = 00000001
SMQ$M_STOPPED  = 00000008            SQR$V_NOFEED   = 00000004
SMQ$M_TRMDEV   = 00000004            SQR$V_PAGHDR   = 00000005
SMQ$S_INIPRI   = 00000004            SQR$W_DIRNUM     0000001E
SMQ$T_NAME       00000010            SQR$W_DIRSEQ     00000020
SMQ$V_CREPND   = 00000002            SQR$W_DIRVOL     00000022
SMQ$V_DEFBRST  = 00000001            SQR$W_FILNUM     00000018
SMQ$V_DEFFLAG  = 00000000            SQR$W_FILSEQ     0000001A
SMQ$V_DETJOB   = 00000001            SQR$W_JOBSEQ     00000004
SMQ$V_GENDEV   = 00000004            SQR$W_PAGCNT     0000003A
SMQ$V_INIPRI   = 00000000            SQR$W_RECID      00000006
SMQ$V_INUSE    = 00000000            SQR$W_RELVOL     0000001C
SMQ$V_LOWER    = 00000003            SYM$CREPRTSYM    00000050 RG    03
SMQ$V_NOGENERIC= 00000005            SYM$C_RECSIZE    00000040
SMQ$V_NOSWAP   = 00000004            SYM$K_RECSIZE    00000040
JBCSYMCRE       - SYMBIONT CREATE                                22-AUG-1978 00:51:11   VAX-11 MACRO X0.3-11               Page   8
PROGRAM SECTION SYNOPSIS                                                                                                         (4)


PROGRAM SECTION SYNOPSIS

.  ABS  .        00000000      00     NOPIC   USR   CON   ABS   LCL NOSHR NOEXE NORD  NOWRT BYTE
. BLANK .        00000000      01     NOPIC   USR   CON   REL   LCL NOSHR   EXE   RD    WRT BYTE
$ABS$            FFFFFFFC      02     NOPIC   USR   CON   ABS   LCL NOSHR   EXE   RD    WRT BYTE
JBC_PURE         000000BC      03     NOPIC   USR   CON   REL   LCL NOSHR   EXE   RD  NOWRT BYTE
JBC_RWDATA       00000008      04     NOPIC   USR   CON   REL   LCL NOSHR NOEXE   RD    WRT LONG


THERE WERE NO ERRORS OR WARNINGS.
14748. BYTES LEFT IN FREE MEMORY POOL.
452. BYTES OF RECLAIMED MEMORY.
OBJ$:JBCSYMCRE,LIS$:JBCSYMCRE/-SP=EXECML$/ML,LIB$:JOBCTL/ML,SRC$:JBCSYMCRE
43 MLB DIR RDS - 572 GETS TO DEFINE 28 MACROS. 35 INTER. FILE WRITES.
