CMDATBAS3       - COMMAND DATA BASE MODULE 3                     22-AUG-1978 01:02:04   VAX-11 MACRO X0.3-11               Page   0
TABLE OF CONTENTS

   (1)      46  DEFINE DCLS COMMANDS
CMDATBAS3       - COMMAND DATA BASE MODULE 3                     22-AUG-1978 01:02:04   VAX-11 MACRO X0.3-11               Page   1
01                                                                                                                               (1)

                                     0000     1 	.TITLE	CMDATBAS3 - COMMAND DATA BASE MODULE 3
                                     0000     2 	.IDENT	/01/
                                     0000     3
                                     0000     4 ;
                                     0000     5 ; COPYRIGHT (C) 1977
                                     0000     6 ; DIGITAL EQUIPMENT CORPORATION, MAYNARD, MASSACHUSETTS 01754
                                     0000     7 ;
                                     0000     8 ; THIS SOFTWARE IS FURNISHED  UNDER A LICENSE FOR USE ONLY ON A SINGLE
                                     0000     9 ; COMPUTER  SYSTEM AND  MAY BE  COPIED ONLY WITH  THE INCLUSION OF THE
                                     0000    10 ; ABOVE COPYRIGHT NOTICE.  THIS SOFTWARE, OR ANY OTHER COPIES THEREOF,
                                     0000    11 ; MAY NOT BE PROVIDED OR  OTHERWISE MADE AVAILABLE TO ANY OTHER PERSON
                                     0000    12 ; EXCEPT FOR USE ON SUCH SYSTEM AND TO ONE WHO AGREES TO THESE LICENSE
                                     0000    13 ; TERMS.  TITLE TO AND  OWNERSHIP OF THE  SOFTWARE  SHALL AT ALL TIMES
                                     0000    14 ; REMAIN IN DEC.
                                     0000    15 ;
                                     0000    16 ; THE INFORMATION IN THIS SOFTWARE IS SUBJECT TO CHANGE WITHOUT NOTICE
                                     0000    17 ; AND SHOULD  NOT BE CONSTRUED  AS A COMMITMENT  BY DIGITAL  EQUIPMENT
                                     0000    18 ; CORPORATION.
                                     0000    19 ;
                                     0000    20 ; DEC ASSUMES  NO  RESPONSIBILITY  FOR  THE USE OR  RELIABILITY OF ITS
                                     0000    21 ; SOFTWARE ON EQUIPMENT WHICH IS NOT SUPPLIED BY DEC.
                                     0000    22 ;
                                     0000    23 ; D. N. CUTLER 30-MAR-77
                                     0000    24 ;
                                     0000    25 ; DCLS COMMAND INTERPRETER DATA BASE
                                     0000    26 ;
                                     0000    27 ; MACRO LIBRARY CALLS
                                     0000    28 ;
                                     0000    29
                                     0000    30 	$CLIVERBDEF			;DEFINE VERB GENERIC TYPES
                                     0000    31 	DEFERRCOD			;DEFINE ERROR/STATUS VALUES
                                     0000    32 	DEFOPIDCL			;DCL OUTPUT RESULT PARSE INDIACTORS
                                     0000    33
                                     0000    34 ;
                                     0000    35 ; LOCAL MACROS
                                     0000    36
                                     0000    37
                                     0000    38 ;
                                     0000    39 ; LOCAL SYMBOLS
                                     0000    40 ;
                                     0000    41
                           00000001  0000    42 $DCLDEFQUALBLK$=1			; DEFINE THE QUALIFIER BOLCKS
                                     0000    43
                                     0000    44 	.LIST	MEB
CMDATBAS3       - COMMAND DATA BASE MODULE 3                     22-AUG-1978 01:02:04   VAX-11 MACRO X0.3-11               Page   2
01              DEFINE DCLS COMMANDS                                                                                             (1)

                                     0000    46 	.SBTTL	DEFINE DCLS COMMANDS
                                     0000    47
                                     0000    48 	DEFCMD	SET,-			; DEFINE SET COMMAND
                                     0000    49 		QUAL  =YES,-		; YES QUALIFIERS ALLOWED
                                     0000    50 		MINPRM=1,-		; MINIMUM PARAMETER COUNT
                                     0000    51 		MAXPRM=1,-		; MAXIMUM PARAMETERS ALLOWED
                                     0000    52 		DEFIMG=BACKTRANS,-	; DEFAULT IMAGE OR ROUTINE NAME
                                     0000    53 		PRMPTS=<<WHAT,<OPTION,REQ>>,-	; FIRST PROMPT AND FLAGS
                                     0000    54 			>
                                     0000       	.SAVE
                                 00000000       	.PSECT	$ABS$,ABS
                                     0000       CMD_B_VERBTYP:
                           00000001  0000       	.BLKB	1
                                     0001       CMD_B_PARMCNT:
                           00000002  0001       	.BLKB	1
                                     0002       CMD_B_DEFIMG:
                           00000003  0002       	.BLKB	1
                                     0003       CMD_B_QUABLK:
                           00000004  0003       	.BLKB	1
                                     0004       CMD_B_PROMPT:
                           00000005  0004       	.BLKB	1
                                     0005       CMD_B_FLAGS:
                           00000006  0005       	.BLKB	1
                                     0006       CMD_AB_PAROUT:
                           00000007  0006       	.BLKB	1
                                     0000       	.RESTORE
                                     0000       	.SAVE
                                 00000007       	.PSECT	$ABS$,ABS
                           00000000  0007       	.=0
                                     0000       PRO_B_PROMPT:
                           00000001  0000       	.BLKB	1
                                     0001       PRO_B_FLAGS:
                           00000002  0001       	.BLKB	1
                                     0002       PRO_K_LENGTH:
                                     0000       	.RESTORE
                                     0000       	.LIST
                                 00000000       	.PSECT	DCL$VERBTBL,BYTE,RD,NOWRT
                                 D3  0000       	.BYTE	^A/S/!$XX$
                                 45  0001       	.BYTE	^A/E/!$XX$
                                 54  0002       	.BYTE	^A/T/!$XX$
                                 20  0003       	.ASCII	\ \
                                     0004       	.LIST
                                 00000000       	.PSECT	DCL$COMDPTR,BYTE,RD,NOWRT
                               FFFE' 0000       	.WORD	VERB_G_SET-.-2
                                     0002       	.LIST
                                 00000000       	.PSECT	DCL$CMDATA,BYTE,RD,NOWRT
                                     0000       VERB_G_SET:
                                 25  0000       	.BYTE	CLI$K_VERB_SET
                                 11  0001       	.BYTE	1*16+1
                                 00' 0002       	.BYTE	IMG_K_BACKTRANS
                                 04' 0003       	.BYTE	QUA_G_SET-.-1
                                 01' 0004       	.BYTE	SET_G_PRMPT-.-1
                                 00  0005       	.BYTE	$$$
                                     0006       SET_G_PRMPT:
                                 00' 0006       	.BYTE	PRO_K_WHAT
                                 18  0007       	.IIF NB	<BYTE>, .BYTE $$$
                                     0008       	.SAVE
CMDATBAS3       - COMMAND DATA BASE MODULE 3                     22-AUG-1978 01:02:04   VAX-11 MACRO X0.3-11               Page   3
01              DEFINE DCLS COMMANDS                                                                                             (1)

                                 00000007       	.PSECT	$ABS$,ABS
                           00000000  0007       	.=0
                                     0000       QUA_B_OFFSET:
                           00000001  0000       	.BLKB	1
                                     0001       QUA_B_INDEX:
                           00000002  0001       	.BLKB	1
                                     0002       QUA_B_DEFVAL:
                           00000003  0002       	.BLKB	1
                                     0003       QUA_W_FLAGS:
                           00000005  0003       	.BLKW	1
                                     0005       QUA_B_IMAGE:
                           00000006  0005       	.BLKB	1
                                     0006       QUA_G_CHNGLST:
                                     0006       QUA_W_QUALIST:
                           00000008  0006       	.BLKW	1
                                     0008       QUA_B_PARMCNT:
                           00000009  0008       	.BLKB	1
                                     0009       QUA_W_PROMPT:
                           0000000B  0009       	.BLKW	1
                                 00000008       	.RESTORE
                                     0008       	.SAVE
                                 00000008       	.PSECT	DCL$CMDATA,BYTE,RD,NOWRT
                                     0008       QUA_G_SET:
                                 09' 0008       30001$:	.BYTE	30004$-30001$
                                 00' 0009       	.BYTE	QUA_K_ACCO
                                 00  000A       	.IIF B <>,	.BYTE	0
                               0411  000B       	.WORD	$$$
                                 00' 000D       	.BYTE	IMG_K_SET
                               029A' 000E       	.WORD	QUA_G_STAC-.
                                 00  0010       	.BYTE	0*16+0
                                     0011       30004$:
                                 0B' 0011       30006$:	.BYTE	30009$-30006$
                                 00' 0012       	.BYTE	QUA_K_CARD
                                 00  0013       	.IIF B <>,	.BYTE	0
                               0411  0014       	.WORD	$$$
                                 00' 0016       	.BYTE	IMG_K_SET
                               0248' 0017       	.WORD	QUA_G_STCR-.
                                 11  0019       	.BYTE	1*16+1
                                 00' 001A       	.BYTE	PRO_K_DEVICE
                                 10  001B       	.IIF NB	<BYTE>, .BYTE $$$
                                     001C       30009$:
                                 0B' 001C       30011$:	.BYTE	30014$-30011$
                                 00' 001D       	.BYTE	QUA_K_DEVI
                                 00  001E       	.IIF B <>,	.BYTE	0
                               0411  001F       	.WORD	$$$
                                 00' 0021       	.BYTE	IMG_K_SET
                               009C' 0022       	.WORD	QUA_G_STDV-.
                                 11  0024       	.BYTE	1*16+1
                                 00' 0025       	.BYTE	PRO_K_DEVICE
                                 10  0026       	.IIF NB	<BYTE>, .BYTE $$$
                                     0027       30014$:
                                 0B' 0027       30016$:	.BYTE	30019$-30016$
                                 00' 0028       	.BYTE	QUA_K_DEFA
                                 00  0029       	.IIF B <>,	.BYTE	0
                               0411  002A       	.WORD	$$$
                                 00' 002C       	.BYTE	IMG_K_SETDEFALT
                               FFFF  002D       	.WORD	-1
CMDATBAS3       - COMMAND DATA BASE MODULE 3                     22-AUG-1978 01:02:04   VAX-11 MACRO X0.3-11               Page   4
01              DEFINE DCLS COMMANDS                                                                                             (1)

                                 11  002F       	.BYTE	1*16+1
                                 00' 0030       	.BYTE	PRO_K_DEVICE
                                 10  0031       	.IIF NB	<BYTE>, .BYTE $$$
                                     0032       30019$:
                                 09' 0032       30021$:	.BYTE	30024$-30021$
                                 00' 0033       	.BYTE	QUA_K_LOGI
                                 00  0034       	.IIF B <>,	.BYTE	0
                               0411  0035       	.WORD	$$$
                                 00' 0037       	.BYTE	IMG_K_SET
                               0094' 0038       	.WORD	QUA_G_STLG-.
                                 00  003A       	.BYTE	0*16+0
                                     003B       30024$:
                                 0B' 003B       30026$:	.BYTE	30029$-30026$
                                 00' 003C       	.BYTE	QUA_K_MAGT
                                 00  003D       	.IIF B <>,	.BYTE	0
                               0411  003E       	.WORD	$$$
                                 00' 0040       	.BYTE	IMG_K_SET
                               0094' 0041       	.WORD	QUA_G_STMT-.
                                 11  0043       	.BYTE	1*16+1
                                 00' 0044       	.BYTE	PRO_K_DEVICE
                                 10  0045       	.IIF NB	<BYTE>, .BYTE $$$
                                     0046       30029$:
                                 09' 0046       30031$:	.BYTE	30034$-30031$
                                 00' 0047       	.BYTE	QUA_K_ON
                                 00  0048       	.IIF B <>,	.BYTE	0
                               0451  0049       	.WORD	$$$
                                 00' 004B       	.BYTE	IMG_K_SETON
                               FFFF  004C       	.WORD	-1
                                 00  004E       	.BYTE	0*16+0
                                     004F       30034$:
                                 09' 004F       30036$:	.BYTE	30039$-30036$
                                 00' 0050       	.BYTE	QUA_K_PASS
                                 00  0051       	.IIF B <>,	.BYTE	0
                               0411  0052       	.WORD	$$$
                                 00' 0054       	.BYTE	IMG_K_SET
                               FFFF  0055       	.WORD	-1
                                 00  0057       	.BYTE	0*16+0
                                     0058       30039$:
                                 0B' 0058       30041$:	.BYTE	30044$-30041$
                                 00' 0059       	.BYTE	QUA_K_PRIN
                                 00  005A       	.IIF B <>,	.BYTE	0
                               0411  005B       	.WORD	$$$
                                 00' 005D       	.BYTE	IMG_K_SET
                               01B7' 005E       	.WORD	QUA_G_STLP-.
                                 11  0060       	.BYTE	1*16+1
                                 00' 0061       	.BYTE	PRO_K_DEVICE
                                 10  0062       	.IIF NB	<BYTE>, .BYTE $$$
                                     0063       30044$:
                                 0B' 0063       30046$:	.BYTE	30049$-30046$
                                 00' 0064       	.BYTE	QUA_K_PROC
                                 00  0065       	.IIF B <>,	.BYTE	0
                               0411  0066       	.WORD	$$$
                                 00' 0068       	.BYTE	IMG_K_SET
                               0083' 0069       	.WORD	QUA_G_STPC-.
                                 10  006B       	.BYTE	1*16+0
                                 00' 006C       	.BYTE	PRO_K_PROC_NAME
                                 00  006D       	.BYTE	0
CMDATBAS3       - COMMAND DATA BASE MODULE 3                     22-AUG-1978 01:02:04   VAX-11 MACRO X0.3-11               Page   5
01              DEFINE DCLS COMMANDS                                                                                             (1)

                                     006E       30049$:
                                 0B' 006E       30051$:	.BYTE	30054$-30051$
                                 00' 006F       	.BYTE	QUA_K_PROT
                                 00  0070       	.IIF B <>,	.BYTE	0
                               4429  0071       	.WORD	$$$
                                 00' 0073       	.BYTE	IMG_K_BACKTRANS
                               008C' 0074       	.WORD	QUA_G_STPR-.
                                 11  0076       	.BYTE	1*16+1
                                 00' 0077       	.BYTE	PRO_K_FILE
                                 14  0078       	.IIF NB	<BYTE>, .BYTE $$$
                                     0079       30054$:
                                 0B' 0079       30056$:	.BYTE	30059$-30056$
                                 00' 007A       	.BYTE	QUA_K_QUEU
                                 00  007B       	.IIF B <>,	.BYTE	0
                               0411  007C       	.WORD	$$$
                                 00' 007E       	.BYTE	IMG_K_SET
                               01FC' 007F       	.WORD	QUA_G_STQE-.
                                 10  0081       	.BYTE	1*16+0
                                 00' 0082       	.BYTE	PRO_K_QUEUE
                                 00  0083       	.BYTE	0
                                     0084       30059$:
                                 0B' 0084       30061$:	.BYTE	30064$-30061$
                                 00' 0085       	.BYTE	QUA_K_TERM
                                 00  0086       	.IIF B <>,	.BYTE	0
                               0411  0087       	.WORD	$$$
                                 00' 0089       	.BYTE	IMG_K_SET
                               008F' 008A       	.WORD	QUA_G_STTT-.
                                 10  008C       	.BYTE	1*16+0
                                 00' 008D       	.BYTE	PRO_K_DEVICE
                                 00  008E       	.BYTE	0
                                     008F       30064$:
                                 0B' 008F       30066$:	.BYTE	30069$-30066$
                                 00' 0090       	.BYTE	QUA_K_UIC
                                 00  0091       	.IIF B <>,	.BYTE	0
                               0411  0092       	.WORD	$$$
                                 00' 0094       	.BYTE	IMG_K_SETUIC
                               FFFF  0095       	.WORD	-1
                                 11  0097       	.BYTE	1*16+1
                                 00' 0098       	.BYTE	PRO_K_FILE
                                 10  0099       	.IIF NB	<BYTE>, .BYTE $$$
                                     009A       30069$:
                                 09' 009A       30071$:	.BYTE	30074$-30071$
                                 00' 009B       	.BYTE	QUA_K_VERI
                                 00  009C       	.IIF B <>,	.BYTE	0
                               0451  009D       	.WORD	$$$
                                 00' 009F       	.BYTE	IMG_K_SETVERIFY
                               FFFF  00A0       	.WORD	-1
                                 00  00A2       	.BYTE	0*16+0
                                     00A3       30074$:
                                 09' 00A3       30076$:	.BYTE	30079$-30076$
                                 00' 00A4       	.BYTE	QUA_K_WORK
                                 00  00A5       	.IIF B <>,	.BYTE	0
                               0411  00A6       	.WORD	$$$
                                 00' 00A8       	.BYTE	IMG_K_SET
                               01C8' 00A9       	.WORD	QUA_G_STWR-.
                                 00  00AB       	.BYTE	0*16+0
                                     00AC       30079$:
CMDATBAS3       - COMMAND DATA BASE MODULE 3                     22-AUG-1978 01:02:04   VAX-11 MACRO X0.3-11               Page   6
01              DEFINE DCLS COMMANDS                                                                                             (1)

                                 09' 00AC       30081$:	.BYTE	30084$-30081$
                                 00' 00AD       	.BYTE	QUA_K_RMS_
                                 00  00AE       	.IIF B <>,	.BYTE	0
                               0411  00AF       	.WORD	$$$
                                 00' 00B1       	.BYTE	IMG_K_SET
                               0205' 00B2       	.WORD	QUA_G_STRM-.
                                 00  00B4       	.BYTE	0*16+0
                                     00B5       30084$:
                                 09' 00B5       30086$:	.BYTE	30089$-30086$
                                 00' 00B6       	.BYTE	QUA_K_CONT
                                 00  00B7       	.IIF B <>,	.BYTE	0
                               0451  00B8       	.WORD	$$$
                                 00' 00BA       	.BYTE	IMG_K_SETCTLY
                               FFFF  00BB       	.WORD	-1
                                 00  00BD       	.BYTE	0*16+0
                                     00BE       30089$:
                           000000B5  00BE       .=$QUALBLK$
                                 00  00B5       	.BYTE	0
                                 00000008       	.RESTORE
                                     0008       	.SAVE
                                 000000BE       	.PSECT	DCL$CMDATA,BYTE,RD,NOWRT
                                     00BE       QUA_G_STDV:
                                 09' 00BE       30091$:	.BYTE	30094$-30091$
                                 05' 00BF       	.BYTE	<30093$-30091$>
                                 00  00C0       	.IIF B <>,	.BYTE	0
                               006A  00C1       	.WORD	$$$
                        4F 4F 50 53  00C3       30093$:	.ASCII	\SPOO\
                                     00C7       30094$:
                                 05' 00C7       30095$:	.BYTE	30098$-30095$
                                 00' 00C8       	.BYTE	QUA_K_ERRO
                                 00  00C9       	.IIF B <>,	.BYTE	0
                               0048  00CA       	.WORD	$$$
                                     00CC       30098$:
                           000000C7  00CC       .=$QUALBLK$
                                 00  00C7       	.BYTE	0
                                 00000008       	.RESTORE
                                     0008       	.SAVE
                                 000000CC       	.PSECT	DCL$CMDATA,BYTE,RD,NOWRT
                                     00CC       QUA_G_STLG:
                                 09' 00CC       30099$:	.BYTE	30102$-30099$
                                 05' 00CD       	.BYTE	<30101$-30099$>
                                 00  00CE       	.IIF B <>,	.BYTE	0
                               202A  00CF       	.WORD	$$$
                        45 54 4E 49  00D1       30101$:	.ASCII	\INTE\
                                     00D5       30102$:
                           000000CC  00D5       .=$QUALBLK$
                                 00  00CC       	.BYTE	0
                                 00000008       	.RESTORE
                                     0008       	.SAVE
                                 000000D5       	.PSECT	DCL$CMDATA,BYTE,RD,NOWRT
                                     00D5       QUA_G_STMT:
                                 05' 00D5       30103$:	.BYTE	30106$-30103$
                                 00' 00D6       	.BYTE	QUA_K_DENS
                                 00  00D7       	.IIF B <>,	.BYTE	0
                               3028  00D8       	.WORD	$$$
                                     00DA       30106$:
                                 09' 00DA       30107$:	.BYTE	30110$-30107$
CMDATBAS3       - COMMAND DATA BASE MODULE 3                     22-AUG-1978 01:02:04   VAX-11 MACRO X0.3-11               Page   7
01              DEFINE DCLS COMMANDS                                                                                             (1)

                                 05' 00DB       	.BYTE	<30109$-30107$>
                                 00  00DC       	.IIF B <>,	.BYTE	0
                               000A  00DD       	.WORD	$$$
                        49 57 45 52  00DF       30109$:	.ASCII	\REWI\
                                     00E3       30110$:
                                 09' 00E3       30111$:	.BYTE	30114$-30111$
                                 05' 00E4       	.BYTE	<30113$-30111$>
                                 00  00E5       	.IIF B <>,	.BYTE	0
                               000A  00E6       	.WORD	$$$
                        4F 4C 4E 55  00E8       30113$:	.ASCII	\UNLO\
                                     00EC       30114$:
                           000000E3  00EC       .=$QUALBLK$
                                 00  00E3       	.BYTE	0
                                 00000008       	.RESTORE
                                     0008       	.SAVE
                                 000000EC       	.PSECT	DCL$CMDATA,BYTE,RD,NOWRT
                                     00EC       QUA_G_STPC:
                                 05' 00EC       30115$:	.BYTE	30118$-30115$
                                 00' 00ED       	.BYTE	QUA_K_IDEN
                                 00  00EE       	.IIF B <>,	.BYTE	0
                               3028  00EF       	.WORD	$$$
                                     00F1       30118$:
                                 05' 00F1       30119$:	.BYTE	30122$-30119$
                                 00' 00F2       	.BYTE	QUA_K_PRIO
                                 00  00F3       	.IIF B <>,	.BYTE	0
                               3028  00F4       	.WORD	$$$
                                     00F6       30122$:
                                 05' 00F6       30123$:	.BYTE	30126$-30123$
                                 00' 00F7       	.BYTE	QUA_K_RESO
                                 00  00F8       	.IIF B <>,	.BYTE	0
                               0048  00F9       	.WORD	$$$
                                     00FB       30126$:
                                 05' 00FB       30127$:	.BYTE	30130$-30127$
                                 00' 00FC       	.BYTE	QUA_K_SWAP
                                 00  00FD       	.IIF B <>,	.BYTE	0
                               0048  00FE       	.WORD	$$$
                                     0100       30130$:
                           000000FB  0100       .=$QUALBLK$
                                 00  00FB       	.BYTE	0
                                 00000008       	.RESTORE
                                     0008       	.SAVE
                                 00000100       	.PSECT	DCL$CMDATA,BYTE,RD,NOWRT
                                     0100       QUA_G_STPR:
                                 09' 0100       30131$:	.BYTE	30134$-30131$
                                 00' 0101       	.BYTE	QUA_K_DEFA
                                 00  0102       	.IIF B <>,	.BYTE	0
                               0411  0103       	.WORD	$$$
                                 00' 0105       	.BYTE	IMG_K_SETPROT
                               0000  0106       	.WORD	0
                                 00  0108       	.BYTE	0*16+0
                                     0109       30134$:
                                 05' 0109       30136$:	.BYTE	30139$-30136$
                                 00' 010A       	.BYTE	QUA_K_PROT
                                 00  010B       	.IIF B <>,	.BYTE	0
                               5030  010C       	.WORD	$$$
                                     010E       30139$:
                                 06' 010E       30140$:	.BYTE	30143$-30140$
CMDATBAS3       - COMMAND DATA BASE MODULE 3                     22-AUG-1978 01:02:04   VAX-11 MACRO X0.3-11               Page   8
01              DEFINE DCLS COMMANDS                                                                                             (1)

                                 00' 010F       	.BYTE	QUA_K_DEVI
                                 00  0110       	.IIF B <>,	.BYTE	0
                               0408  0111       	.WORD	$$$
                                 00' 0113       	.BYTE	IMG_K_SET
                                     0114       30143$:
                                 05' 0114       30144$:	.BYTE	30147$-30144$
                                 00' 0115       	.BYTE	QUA_K_OWNE
                                 00  0116       	.IIF B <>,	.BYTE	0
                               002C  0117       	.WORD	$$$
                                     0119       30147$:
                           00000114  0119       .=$QUALBLK$
                                 00  0114       	.BYTE	0
                                 00000008       	.RESTORE
                                     0008       	.SAVE
                                 00000119       	.PSECT	DCL$CMDATA,BYTE,RD,NOWRT
                                     0119       QUA_G_STTT:
                                 05' 0119       30148$:	.BYTE	30151$-30148$
                                 00' 011A       	.BYTE	QUA_K_BROA
                                 00  011B       	.IIF B <>,	.BYTE	0
                               0048  011C       	.WORD	$$$
                                     011E       30151$:
                                 09' 011E       30152$:	.BYTE	30155$-30152$
                                 05' 011F       	.BYTE	<30154$-30152$>
                                 00  0120       	.IIF B <>,	.BYTE	0
                               202A  0121       	.WORD	$$$
                        49 46 52 43  0123       30154$:	.ASCII	\CRFI\
                                     0127       30155$:
                                 09' 0127       30156$:	.BYTE	30159$-30156$
                                 05' 0128       	.BYTE	<30158$-30156$>
                                 00  0129       	.IIF B <>,	.BYTE	0
                               004A  012A       	.WORD	$$$
                        4F 48 43 45  012C       30158$:	.ASCII	\ECHO\
                                     0130       30159$:
                                 09' 0130       30160$:	.BYTE	30163$-30160$
                                 05' 0131       	.BYTE	<30162$-30160$>
                                 00  0132       	.IIF B <>,	.BYTE	0
                               004A  0133       	.WORD	$$$
                        48 47 49 45  0135       30162$:	.ASCII	\EIGH\
                                     0139       30163$:
                                 09' 0139       30164$:	.BYTE	30167$-30164$
                                 05' 013A       	.BYTE	<30166$-30164$>
                                 00  013B       	.IIF B <>,	.BYTE	0
                               004A  013C       	.WORD	$$$
                        41 43 53 45  013E       30166$:	.ASCII	\ESCA\
                                     0142       30167$:
                                 09' 0142       30168$:	.BYTE	30171$-30168$
                                 05' 0143       	.BYTE	<30170$-30168$>
                                 00  0144       	.IIF B <>,	.BYTE	0
                               004A  0145       	.WORD	$$$
                        44 52 41 48  0147       30170$:	.ASCII	\HARD\
                                     014B       30171$:
                                 05' 014B       30172$:	.BYTE	30175$-30172$
                                 00' 014C       	.BYTE	QUA_K_HOLD
                                 00  014D       	.IIF B <>,	.BYTE	0
                               0048  014E       	.WORD	$$$
                                     0150       30175$:
                                 09' 0150       30176$:	.BYTE	30179$-30176$
CMDATBAS3       - COMMAND DATA BASE MODULE 3                     22-AUG-1978 01:02:04   VAX-11 MACRO X0.3-11               Page   9
01              DEFINE DCLS COMMANDS                                                                                             (1)

                                 05' 0151       	.BYTE	<30178$-30176$>
                                 00  0152       	.IIF B <>,	.BYTE	0
                               004A  0153       	.WORD	$$$
                        54 53 4F 48  0155       30178$:	.ASCII	\HOST\
                                     0159       30179$:
                                 09' 0159       30180$:	.BYTE	30183$-30180$
                                 05' 015A       	.BYTE	<30182$-30180$>
                                 00  015B       	.IIF B <>,	.BYTE	0
                               004A  015C       	.WORD	$$$
                        45 54 4E 49  015E       30182$:	.ASCII	\INTE\
                                     0162       30183$:
                                 09' 0162       30184$:	.BYTE	30187$-30184$
                                 05' 0163       	.BYTE	<30186$-30184$>
                                 00  0164       	.IIF B <>,	.BYTE	0
                               000A  0165       	.WORD	$$$
                        36 33 41 4C  0167       30186$:	.ASCII	\LA36\
                                     016B       30187$:
                                 09' 016B       30188$:	.BYTE	30191$-30188$
                                 05' 016C       	.BYTE	<30190$-30188$>
                                 00  016D       	.IIF B <>,	.BYTE	0
                               202A  016E       	.WORD	$$$
                        49 46 46 4C  0170       30190$:	.ASCII	\LFFI\
                                     0174       30191$:
                                 05' 0174       30192$:	.BYTE	30195$-30192$
                                 00' 0175       	.BYTE	QUA_K_LOCA
                                 00  0176       	.IIF B <>,	.BYTE	0
                               0048  0177       	.WORD	$$$
                                     0179       30195$:
                                 05' 0179       30196$:	.BYTE	30199$-30196$
                                 00' 017A       	.BYTE	QUA_K_LOWE
                                 00  017B       	.IIF B <>,	.BYTE	0
                               0048  017C       	.WORD	$$$
                                     017E       30199$:
                                 05' 017E       30200$:	.BYTE	30203$-30200$
                                 00' 017F       	.BYTE	QUA_K_PAGE
                                 00  0180       	.IIF B <>,	.BYTE	0
                               2028  0181       	.WORD	$$$
                                     0183       30203$:
                                 09' 0183       30204$:	.BYTE	30207$-30204$
                                 05' 0184       	.BYTE	<30206$-30204$>
                                 00  0185       	.IIF B <>,	.BYTE	0
                               004A  0186       	.WORD	$$$
                        53 53 41 50  0188       30206$:	.ASCII	\PASS\
                                     018C       30207$:
                                 05' 018C       30208$:	.BYTE	30211$-30208$
                                 00' 018D       	.BYTE	QUA_K_REMO
                                 00  018E       	.IIF B <>,	.BYTE	0
                               0048  018F       	.WORD	$$$
                                     0191       30211$:
                                 09' 0191       30212$:	.BYTE	30215$-30212$
                                 05' 0192       	.BYTE	<30214$-30212$>
                                 00  0193       	.IIF B <>,	.BYTE	0
                               004A  0194       	.WORD	$$$
                        50 4F 43 53  0196       30214$:	.ASCII	\SCOP\
                                     019A       30215$:
                                 09' 019A       30216$:	.BYTE	30219$-30216$
                                 05' 019B       	.BYTE	<30218$-30216$>
CMDATBAS3       - COMMAND DATA BASE MODULE 3                     22-AUG-1978 01:02:04   VAX-11 MACRO X0.3-11               Page  10
01              DEFINE DCLS COMMANDS                                                                                             (1)

                                 00  019C       	.IIF B <>,	.BYTE	0
                               004A  019D       	.WORD	$$$
                        49 52 43 53  019F       30218$:	.ASCII	\SCRI\
                                     01A3       30219$:
                                 09' 01A3       30220$:	.BYTE	30223$-30220$
                                 05' 01A4       	.BYTE	<30222$-30220$>
                                 00  01A5       	.IIF B <>,	.BYTE	0
                               102A  01A6       	.WORD	$$$
                        45 45 50 53  01A8       30222$:	.ASCII	\SPEE\
                                     01AC       30223$:
                                 09' 01AC       30224$:	.BYTE	30227$-30224$
                                 05' 01AD       	.BYTE	<30226$-30224$>
                                 00  01AE       	.IIF B <>,	.BYTE	0
                               004A  01AF       	.WORD	$$$
                           42 41 54  01B1       30226$:	.ASCII	\TAB\
                                 20  01B4       	.ASCII	% %
                                     01B5       30227$:
                                 09' 01B5       30228$:	.BYTE	30231$-30228$
                                 05' 01B6       	.BYTE	<30230$-30228$>
                                 00  01B7       	.IIF B <>,	.BYTE	0
                               004A  01B8       	.WORD	$$$
                        59 53 54 54  01BA       30230$:	.ASCII	\TTSY\
                                     01BE       30231$:
                                 05' 01BE       30232$:	.BYTE	30235$-30232$
                                 00' 01BF       	.BYTE	QUA_K_TYPE
                                 00  01C0       	.IIF B <>,	.BYTE	0
                               0048  01C1       	.WORD	$$$
                                     01C3       30235$:
                                 09' 01C3       30236$:	.BYTE	30239$-30236$
                                 05' 01C4       	.BYTE	<30238$-30236$>
                                 00  01C5       	.IIF B <>,	.BYTE	0
                               000A  01C6       	.WORD	$$$
                        4E 4B 4E 55  01C8       30238$:	.ASCII	\UNKN\
                                     01CC       30239$:
                                 05' 01CC       30240$:	.BYTE	30243$-30240$
                                 00' 01CD       	.BYTE	QUA_K_UPPE
                                 00  01CE       	.IIF B <>,	.BYTE	0
                               0048  01CF       	.WORD	$$$
                                     01D1       30243$:
                                 09' 01D1       30244$:	.BYTE	30247$-30244$
                                 05' 01D2       	.BYTE	<30246$-30244$>
                                 00  01D3       	.IIF B <>,	.BYTE	0
                               000A  01D4       	.WORD	$$$
                        35 30 54 56  01D6       30246$:	.ASCII	\VT05\
                                     01DA       30247$:
                                 09' 01DA       30248$:	.BYTE	30251$-30248$
                                 05' 01DB       	.BYTE	<30250$-30248$>
                                 00  01DC       	.IIF B <>,	.BYTE	0
                               000A  01DD       	.WORD	$$$
                        32 35 54 56  01DF       30250$:	.ASCII	\VT52\
                                     01E3       30251$:
                                 09' 01E3       30252$:	.BYTE	30255$-30252$
                                 05' 01E4       	.BYTE	<30254$-30252$>
                                 00  01E5       	.IIF B <>,	.BYTE	0
                               000A  01E6       	.WORD	$$$
                        35 35 54 56  01E8       30254$:	.ASCII	\VT55\
                                     01EC       30255$:
CMDATBAS3       - COMMAND DATA BASE MODULE 3                     22-AUG-1978 01:02:04   VAX-11 MACRO X0.3-11               Page  11
01              DEFINE DCLS COMMANDS                                                                                             (1)

                                 05' 01EC       30256$:	.BYTE	30259$-30256$
                                 00' 01ED       	.BYTE	QUA_K_WIDT
                                 00  01EE       	.IIF B <>,	.BYTE	0
                               2028  01EF       	.WORD	$$$
                                     01F1       30259$:
                                 09' 01F1       30260$:	.BYTE	30263$-30260$
                                 05' 01F2       	.BYTE	<30262$-30260$>
                                 00  01F3       	.IIF B <>,	.BYTE	0
                               004A  01F4       	.WORD	$$$
                        50 41 52 57  01F6       30262$:	.ASCII	\WRAP\
                                     01FA       30263$:
                                 09' 01FA       30264$:	.BYTE	30267$-30264$
                                 05' 01FB       	.BYTE	<30266$-30264$>
                                 00  01FC       	.IIF B <>,	.BYTE	0
                               206A  01FD       	.WORD	$$$
                        49 52 41 50  01FF       30266$:	.ASCII	\PARI\
                                     0203       30267$:
                                 09' 0203       30268$:	.BYTE	30271$-30268$
                                 05' 0204       	.BYTE	<30270$-30268$>
                                 00  0205       	.IIF B <>,	.BYTE	0
                               004A  0206       	.WORD	$$$
                        44 41 45 52  0208       30270$:	.ASCII	\READ\
                                     020C       30271$:
                                 09' 020C       30272$:	.BYTE	30275$-30272$
                                 05' 020D       	.BYTE	<30274$-30272$>
                                 00  020E       	.IIF B <>,	.BYTE	0
                               000A  020F       	.WORD	$$$
                        4D 52 45 50  0211       30274$:	.ASCII	\PERM\
                                     0215       30275$:
                           0000020C  0215       .=$QUALBLK$
                                 00  020C       	.BYTE	0
                                 00000008       	.RESTORE
                                     0008       	.SAVE
                                 00000215       	.PSECT	DCL$CMDATA,BYTE,RD,NOWRT
                                     0215       QUA_G_STLP:
                                 09' 0215       30276$:	.BYTE	30279$-30276$
                                 05' 0216       	.BYTE	<30278$-30276$>
                                 00  0217       	.IIF B <>,	.BYTE	0
                               004A  0218       	.WORD	$$$
                              52 43  021A       30278$:	.ASCII	\CR\
                                 20  021C       	.ASCII	% %
                                 20  021D       	.ASCII	% %
                                     021E       30279$:
                                 09' 021E       30280$:	.BYTE	30283$-30280$
                                 05' 021F       	.BYTE	<30282$-30280$>
                                 00  0220       	.IIF B <>,	.BYTE	0
                               004A  0221       	.WORD	$$$
                              46 46  0223       30282$:	.ASCII	\FF\
                                 20  0225       	.ASCII	% %
                                 20  0226       	.ASCII	% %
                                     0227       30283$:
                                 05' 0227       30284$:	.BYTE	30287$-30284$
                                 00' 0228       	.BYTE	QUA_K_UPPE
                                 00  0229       	.IIF B <>,	.BYTE	0
                               0048  022A       	.WORD	$$$
                                     022C       30287$:
                                 05' 022C       30288$:	.BYTE	30291$-30288$
CMDATBAS3       - COMMAND DATA BASE MODULE 3                     22-AUG-1978 01:02:04   VAX-11 MACRO X0.3-11               Page  12
01              DEFINE DCLS COMMANDS                                                                                             (1)

                                 00' 022D       	.BYTE	QUA_K_LOWE
                                 00  022E       	.IIF B <>,	.BYTE	0
                               0048  022F       	.WORD	$$$
                                     0231       30291$:
                                 09' 0231       30292$:	.BYTE	30295$-30292$
                                 05' 0232       	.BYTE	<30294$-30292$>
                                 00  0233       	.IIF B <>,	.BYTE	0
                               000A  0234       	.WORD	$$$
                        31 31 41 4C  0236       30294$:	.ASCII	\LA11\
                                     023A       30295$:
                                 09' 023A       30296$:	.BYTE	30299$-30296$
                                 05' 023B       	.BYTE	<30298$-30296$>
                                 00  023C       	.IIF B <>,	.BYTE	0
                               000A  023D       	.WORD	$$$
                        38 31 41 4C  023F       30298$:	.ASCII	\LA18\
                                     0243       30299$:
                                 09' 0243       30300$:	.BYTE	30303$-30300$
                                 05' 0244       	.BYTE	<30302$-30300$>
                                 00  0245       	.IIF B <>,	.BYTE	0
                               000A  0246       	.WORD	$$$
                        31 31 50 4C  0248       30302$:	.ASCII	\LP11\
                                     024C       30303$:
                                 05' 024C       30304$:	.BYTE	30307$-30304$
                                 00' 024D       	.BYTE	QUA_K_PAGE
                                 00  024E       	.IIF B <>,	.BYTE	0
                               2028  024F       	.WORD	$$$
                                     0251       30307$:
                                 09' 0251       30308$:	.BYTE	30311$-30308$
                                 05' 0252       	.BYTE	<30310$-30308$>
                                 00  0253       	.IIF B <>,	.BYTE	0
                               000A  0254       	.WORD	$$$
                        4E 4B 4E 55  0256       30310$:	.ASCII	\UNKN\
                                     025A       30311$:
                                 05' 025A       30312$:	.BYTE	30315$-30312$
                                 00' 025B       	.BYTE	QUA_K_WIDT
                                 00  025C       	.IIF B <>,	.BYTE	0
                               2028  025D       	.WORD	$$$
                                     025F       30315$:
                           0000025A  025F       .=$QUALBLK$
                                 00  025A       	.BYTE	0
                                 00000008       	.RESTORE
                                     0008       	.SAVE
                                 0000025F       	.PSECT	DCL$CMDATA,BYTE,RD,NOWRT
                                     025F       QUA_G_STCR:
                                 09' 025F       30316$:	.BYTE	30319$-30316$
                                 05' 0260       	.BYTE	<30318$-30316$>
                                 00  0261       	.IIF B <>,	.BYTE	0
                               000A  0262       	.WORD	$$$
                           36 32 30  0264       30318$:	.ASCII	\026\
                                 20  0267       	.ASCII	% %
                                     0268       30319$:
                                 09' 0268       30320$:	.BYTE	30323$-30320$
                                 05' 0269       	.BYTE	<30322$-30320$>
                                 00  026A       	.IIF B <>,	.BYTE	0
                               000A  026B       	.WORD	$$$
                           39 32 30  026D       30322$:	.ASCII	\029\
                                 20  0270       	.ASCII	% %
CMDATBAS3       - COMMAND DATA BASE MODULE 3                     22-AUG-1978 01:02:04   VAX-11 MACRO X0.3-11               Page  13
01              DEFINE DCLS COMMANDS                                                                                             (1)

                                     0271       30323$:
                           00000268  0271       .=$QUALBLK$
                                 00  0268       	.BYTE	0
                                 00000008       	.RESTORE
                                     0008       	.SAVE
                                 00000271       	.PSECT	DCL$CMDATA,BYTE,RD,NOWRT
                                     0271       QUA_G_STWR:
                                 05' 0271       30324$:	.BYTE	30327$-30324$
                                 00' 0272       	.BYTE	QUA_K_LIMI
                                 00  0273       	.IIF B <>,	.BYTE	0
                               0028  0274       	.WORD	$$$
                                     0276       30327$:
                                 05' 0276       30328$:	.BYTE	30331$-30328$
                                 00' 0277       	.BYTE	QUA_K_QUOT
                                 00  0278       	.IIF B <>,	.BYTE	0
                               0028  0279       	.WORD	$$$
                                     027B       30331$:
                           00000276  027B       .=$QUALBLK$
                                 00  0276       	.BYTE	0
                                 00000008       	.RESTORE
                                     0008       	.SAVE
                                 0000027B       	.PSECT	DCL$CMDATA,BYTE,RD,NOWRT
                                     027B       QUA_G_STQE:
                                 05' 027B       30332$:	.BYTE	30335$-30332$
                                 00' 027C       	.BYTE	QUA_K_AFTE
                                 00  027D       	.IIF B <>,	.BYTE	0
                               3028  027E       	.WORD	$$$
                                     0280       30335$:
                                 05' 0280       30336$:	.BYTE	30339$-30336$
                                 00' 0281       	.BYTE	QUA_K_JOB_
                                 00  0282       	.IIF B <>,	.BYTE	0
                               3028  0283       	.WORD	$$$
                                     0285       30339$:
                                 05' 0285       30340$:	.BYTE	30343$-30340$
                                 00' 0286       	.BYTE	QUA_K_ENTR
                                 00  0287       	.IIF B <>,	.BYTE	0
                               3028  0288       	.WORD	$$$
                                     028A       30343$:
                                 05' 028A       30344$:	.BYTE	30347$-30344$
                                 00' 028B       	.BYTE	QUA_K_FORM
                                 00  028C       	.IIF B <>,	.BYTE	0
                               3028  028D       	.WORD	$$$
                                     028F       30347$:
                                 05' 028F       30348$:	.BYTE	30351$-30348$
                                 00' 0290       	.BYTE	QUA_K_HOLD
                                 00  0291       	.IIF B <>,	.BYTE	0
                               0008  0292       	.WORD	$$$
                                     0294       30351$:
                                 05' 0294       30352$:	.BYTE	30355$-30352$
                                 00' 0295       	.BYTE	QUA_K_LOWE
                                 00  0296       	.IIF B <>,	.BYTE	0
                               0048  0297       	.WORD	$$$
                                     0299       30355$:
                                 05' 0299       30356$:	.BYTE	30359$-30356$
                                 00' 029A       	.BYTE	QUA_K_NAME
                                 00  029B       	.IIF B <>,	.BYTE	0
                               3028  029C       	.WORD	$$$
CMDATBAS3       - COMMAND DATA BASE MODULE 3                     22-AUG-1978 01:02:04   VAX-11 MACRO X0.3-11               Page  14
01              DEFINE DCLS COMMANDS                                                                                             (1)

                                     029E       30359$:
                                 05' 029E       30360$:	.BYTE	30363$-30360$
                                 00' 029F       	.BYTE	QUA_K_PRIO
                                 00  02A0       	.IIF B <>,	.BYTE	0
                               3028  02A1       	.WORD	$$$
                                     02A3       30363$:
                                 05' 02A3       30364$:	.BYTE	30367$-30364$
                                 00' 02A4       	.BYTE	QUA_K_RELE
                                 00  02A5       	.IIF B <>,	.BYTE	0
                               0008  02A6       	.WORD	$$$
                                     02A8       30367$:
                           000002A3  02A8       .=$QUALBLK$
                                 00  02A3       	.BYTE	0
                                 00000008       	.RESTORE
                                     0008       	.SAVE
                                 000002A8       	.PSECT	DCL$CMDATA,BYTE,RD,NOWRT
                                     02A8       QUA_G_STAC:
                                 05' 02A8       30368$:	.BYTE	30371$-30368$
                                 00' 02A9       	.BYTE	QUA_K_DISA
                                 00  02AA       	.IIF B <>,	.BYTE	0
                               0028  02AB       	.WORD	$$$
                                     02AD       30371$:
                                 05' 02AD       30372$:	.BYTE	30375$-30372$
                                 00' 02AE       	.BYTE	QUA_K_ENAB
                                 00  02AF       	.IIF B <>,	.BYTE	0
                               0028  02B0       	.WORD	$$$
                                     02B2       30375$:
                                 05' 02B2       30376$:	.BYTE	30379$-30376$
                                 00' 02B3       	.BYTE	QUA_K_NEW_
                                 00  02B4       	.IIF B <>,	.BYTE	0
                               0008  02B5       	.WORD	$$$
                                     02B7       30379$:
                           000002B2  02B7       .=$QUALBLK$
                                 00  02B2       	.BYTE	0
                                 00000008       	.RESTORE
                                     0008       	.SAVE
                                 000002B7       	.PSECT	DCL$CMDATA,BYTE,RD,NOWRT
                                     02B7       QUA_G_STRM:
                                 07' 02B7       30380$:	.BYTE	30383$-30380$
                                 00' 02B8       	.BYTE	QUA_K_BLOC
                                 05' 02B9       	.IIF NB	<0>,	.BYTE	30381$-30380$
                               2028  02BA       	.WORD	$$$
                              30 00' 02BC       30381$:	.ASCIC	\0\
                                 01  02BC
                                     02BE       30383$:
                                 07' 02BE       30384$:	.BYTE	30387$-30384$
                                 00' 02BF       	.BYTE	QUA_K_BUFF
                                 05' 02C0       	.IIF NB	<0>,	.BYTE	30385$-30384$
                               2028  02C1       	.WORD	$$$
                              30 00' 02C3       30385$:	.ASCIC	\0\
                                 01  02C3
                                     02C5       30387$:
                                 05' 02C5       30388$:	.BYTE	30391$-30388$
                                 00' 02C6       	.BYTE	QUA_K_DISK
                                 00  02C7       	.IIF B <>,	.BYTE	0
                               0008  02C8       	.WORD	$$$
                                     02CA       30391$:
CMDATBAS3       - COMMAND DATA BASE MODULE 3                     22-AUG-1978 01:02:04   VAX-11 MACRO X0.3-11               Page  15
01              DEFINE DCLS COMMANDS                                                                                             (1)

                                 05' 02CA       30392$:	.BYTE	30395$-30392$
                                 00' 02CB       	.BYTE	QUA_K_MAGT
                                 00  02CC       	.IIF B <>,	.BYTE	0
                               0008  02CD       	.WORD	$$$
                                     02CF       30395$:
                                 05' 02CF       30396$:	.BYTE	30399$-30396$
                                 00' 02D0       	.BYTE	QUA_K_UNIT
                                 00  02D1       	.IIF B <>,	.BYTE	0
                               0008  02D2       	.WORD	$$$
                                     02D4       30399$:
                                 05' 02D4       30400$:	.BYTE	30403$-30400$
                                 00' 02D5       	.BYTE	QUA_K_HASH
                                 00  02D6       	.IIF B <>,	.BYTE	0
                               0008  02D7       	.WORD	$$$
                                     02D9       30403$:
                                 05' 02D9       30404$:	.BYTE	30407$-30404$
                                 00' 02DA       	.BYTE	QUA_K_INDE
                                 00  02DB       	.IIF B <>,	.BYTE	0
                               0008  02DC       	.WORD	$$$
                                     02DE       30407$:
                                 05' 02DE       30408$:	.BYTE	30411$-30408$
                                 00' 02DF       	.BYTE	QUA_K_RELA
                                 00  02E0       	.IIF B <>,	.BYTE	0
                               0008  02E1       	.WORD	$$$
                                     02E3       30411$:
                                 05' 02E3       30412$:	.BYTE	30415$-30412$
                                 00' 02E4       	.BYTE	QUA_K_SEQU
                                 00  02E5       	.IIF B <>,	.BYTE	0
                               0008  02E6       	.WORD	$$$
                                     02E8       30415$:
                                 05' 02E8       30416$:	.BYTE	30419$-30416$
                                 00' 02E9       	.BYTE	QUA_K_SYST
                                 00  02EA       	.IIF B <>,	.BYTE	0
                               0008  02EB       	.WORD	$$$
                                     02ED       30419$:
                           000002E8  02ED       .=$QUALBLK$
                                 00  02E8       	.BYTE	0
                                 00000008       	.RESTORE
                                     0008    55
                                     0008    56 	DEFCMD	SHOW,-			; DEFINE SHOW COMMAND
                                     0008    57 		QUAL  =YES,-		; YES QUALIFIERS ALLOWED
                                     0008    58 		MINPRM=1,-		; MINIMUM PARAMETER COUNT
                                     0008    59 		MAXPRM=1,-		; MAXIMUM PARAMETERS ALLOWED
                                     0008    60 		DEFIMG=SHOWLOG,-	; DEFAULT IMAGE OR ROUTINE NAME
                                     0008    61 		FLAGS=NOSTAT,-		; COMMAND WILL NOT SET GOOD STATUS
                                     0008    62 		PRMPTS=<<WHAT,<OPTION,REQ>>,-	; FIRST PROMPT AND FLAGS
                                     0008    63 			>
                                     0008       	.LIST
                                 00000004       	.PSECT	DCL$VERBTBL,BYTE,RD,NOWRT
                                 D3  0004       	.BYTE	^A/S/!$XX$
                                 48  0005       	.BYTE	^A/H/!$XX$
                                 4F  0006       	.BYTE	^A/O/!$XX$
                                 57  0007       	.BYTE	^A/W/!$XX$
                                     0008       	.LIST
                                 00000002       	.PSECT	DCL$COMDPTR,BYTE,RD,NOWRT
                               02E9' 0002       	.WORD	VERB_G_SHOW-.-2
                                     0004       	.LIST
CMDATBAS3       - COMMAND DATA BASE MODULE 3                     22-AUG-1978 01:02:04   VAX-11 MACRO X0.3-11               Page  16
01              DEFINE DCLS COMMANDS                                                                                             (1)

                                 000002ED       	.PSECT	DCL$CMDATA,BYTE,RD,NOWRT
                                     02ED       VERB_G_SHOW:
                                 26  02ED       	.BYTE	CLI$K_VERB_SHOW
                                 11  02EE       	.BYTE	1*16+1
                                 00' 02EF       	.BYTE	IMG_K_SHOWLOG
                                 04' 02F0       	.BYTE	QUA_G_SHOW-.-1
                                 01' 02F1       	.BYTE	SHOW_G_PRMPT-.-1
                                 08  02F2       	.BYTE	$$$
                                     02F3       SHOW_G_PRMPT:
                                 00' 02F3       	.BYTE	PRO_K_WHAT
                                 18  02F4       	.IIF NB	<BYTE>, .BYTE $$$
                                     02F5       	.SAVE
                                 000002F5       	.PSECT	DCL$CMDATA,BYTE,RD,NOWRT
                                     02F5       QUA_G_SHOW:
                                 09' 02F5       30421$:	.BYTE	30424$-30421$
                                 00' 02F6       	.BYTE	QUA_K_DAYT
                                 00  02F7       	.IIF B <>,	.BYTE	0
                               0411  02F8       	.WORD	$$$
                                 00' 02FA       	.BYTE	IMG_K_SHOWTIME
                               FFFF  02FB       	.WORD	-1
                                 00  02FD       	.BYTE	0*16+0
                                     02FE       30424$:
                                 09' 02FE       30426$:	.BYTE	30429$-30426$
                                 00' 02FF       	.BYTE	QUA_K_TIME
                                 00  0300       	.IIF B <>,	.BYTE	0
                               0411  0301       	.WORD	$$$
                                 00' 0303       	.BYTE	IMG_K_SHOWTIME
                               FFFF  0304       	.WORD	-1
                                 00  0306       	.BYTE	0*16+0
                                     0307       30429$:
                                 09' 0307       30431$:	.BYTE	30434$-30431$
                                 00' 0308       	.BYTE	QUA_K_DEFA
                                 00  0309       	.IIF B <>,	.BYTE	0
                               0411  030A       	.WORD	$$$
                                 00' 030C       	.BYTE	IMG_K_SHOWDEF
                               FFFF  030D       	.WORD	-1
                                 00  030F       	.BYTE	0*16+0
                                     0310       30434$:
                                 0B' 0310       30436$:	.BYTE	30439$-30436$
                                 00' 0311       	.BYTE	QUA_K_LOGI
                                 00  0312       	.IIF B <>,	.BYTE	0
                               0411  0313       	.WORD	$$$
                                 00' 0315       	.BYTE	IMG_K_SHOW
                               0095' 0316       	.WORD	QUA_G_SHLG-.
                                 10  0318       	.BYTE	1*16+0
                                 00' 0319       	.BYTE	PRO_K_LOG_NAME
                                 00  031A       	.BYTE	0
                                     031B       30439$:
                                 09' 031B       30441$:	.BYTE	30444$-30441$
                                 00' 031C       	.BYTE	QUA_K_PROT
                                 00  031D       	.IIF B <>,	.BYTE	0
                               0411  031E       	.WORD	$$$
                                 00' 0320       	.BYTE	IMG_K_SHOWPROT
                               FFFF  0321       	.WORD	-1
                                 00  0323       	.BYTE	0*16+0
                                     0324       30444$:
                                 0B' 0324       30446$:	.BYTE	30449$-30446$
CMDATBAS3       - COMMAND DATA BASE MODULE 3                     22-AUG-1978 01:02:04   VAX-11 MACRO X0.3-11               Page  17
01              DEFINE DCLS COMMANDS                                                                                             (1)

                                 00' 0325       	.BYTE	QUA_K_QUEU
                                 00  0326       	.IIF B <>,	.BYTE	0
                               0411  0327       	.WORD	$$$
                                 00' 0329       	.BYTE	IMG_K_SHOW
                               0099' 032A       	.WORD	QUA_G_SHQU-.
                                 11  032C       	.BYTE	1*16+1
                                 00' 032D       	.BYTE	PRO_K_QUEUE
                                 10  032E       	.IIF NB	<BYTE>, .BYTE $$$
                                     032F       30449$:
                                 0B' 032F       30451$:	.BYTE	30454$-30451$
                                 00' 0330       	.BYTE	QUA_K_SYMB
                                 00  0331       	.IIF B <>,	.BYTE	0
                               0411  0332       	.WORD	$$$
                                 00' 0334       	.BYTE	IMG_K_SHOWSYMBL
                               00B4' 0335       	.WORD	QUA_G_SHSY-.
                                 11  0337       	.BYTE	1*16+1
                                 00' 0338       	.BYTE	PRO_K_SYMBOL
                                 10  0339       	.IIF NB	<BYTE>, .BYTE $$$
                                     033A       30454$:
                                 0B' 033A       30456$:	.BYTE	30459$-30456$
                                 00' 033B       	.BYTE	QUA_K_TRAN
                                 00  033C       	.IIF B <>,	.BYTE	0
                               0411  033D       	.WORD	$$$
                                 00' 033F       	.BYTE	IMG_K_SHOWTRAN
                               FFFF  0340       	.WORD	-1
                                 11  0342       	.BYTE	1*16+1
                                 00' 0343       	.BYTE	PRO_K_LOG_NAME
                                 10  0344       	.IIF NB	<BYTE>, .BYTE $$$
                                     0345       30459$:
                                 09' 0345       30461$:	.BYTE	30464$-30461$
                                 00' 0346       	.BYTE	QUA_K_WORK
                                 00  0347       	.IIF B <>,	.BYTE	0
                               0411  0348       	.WORD	$$$
                                 00' 034A       	.BYTE	IMG_K_SHOW
                               FFFF  034B       	.WORD	-1
                                 00  034D       	.BYTE	0*16+0
                                     034E       30464$:
                                 0B' 034E       30466$:	.BYTE	30469$-30466$
                                 00' 034F       	.BYTE	QUA_K_DEVI
                                 00  0350       	.IIF B <>,	.BYTE	0
                               0411  0351       	.WORD	$$$
                                 00' 0353       	.BYTE	IMG_K_SHOW
                               00A8' 0354       	.WORD	QUA_G_SHDV-.
                                 10  0356       	.BYTE	1*16+0
                                 00' 0357       	.BYTE	PRO_K_DEVICE
                                 00  0358       	.BYTE	0
                                     0359       30469$:
                                 09' 0359       30471$:	.BYTE	30474$-30471$
                                 00' 035A       	.BYTE	QUA_K_STAT
                                 00  035B       	.IIF B <>,	.BYTE	0
                               0411  035C       	.WORD	$$$
                                 00' 035E       	.BYTE	IMG_K_SHOWSTAT
                               FFFF  035F       	.WORD	-1
                                 00  0361       	.BYTE	0*16+0
                                     0362       30474$:
                                 09' 0362       30476$:	.BYTE	30479$-30476$
                                 00' 0363       	.BYTE	QUA_K_PROC
CMDATBAS3       - COMMAND DATA BASE MODULE 3                     22-AUG-1978 01:02:04   VAX-11 MACRO X0.3-11               Page  18
01              DEFINE DCLS COMMANDS                                                                                             (1)

                                 00  0364       	.IIF B <>,	.BYTE	0
                               0411  0365       	.WORD	$$$
                                 00' 0367       	.BYTE	IMG_K_SHOW
                               00A8' 0368       	.WORD	QUA_G_SHPR-.
                                 00  036A       	.BYTE	0*16+0
                                     036B       30479$:
                                 09' 036B       30481$:	.BYTE	30484$-30481$
                                 00' 036C       	.BYTE	QUA_K_SYST
                                 00  036D       	.IIF B <>,	.BYTE	0
                               0411  036E       	.WORD	$$$
                                 00' 0370       	.BYTE	IMG_K_SHOW
                               00B8' 0371       	.WORD	QUA_G_SHSS-.
                                 00  0373       	.BYTE	0*16+0
                                     0374       30484$:
                                 0B' 0374       30486$:	.BYTE	30489$-30486$
                                 00' 0375       	.BYTE	QUA_K_TERM
                                 00  0376       	.IIF B <>,	.BYTE	0
                               0411  0377       	.WORD	$$$
                                 00' 0379       	.BYTE	IMG_K_SHOW
                               00B4' 037A       	.WORD	QUA_G_SHTE-.
                                 10  037C       	.BYTE	1*16+0
                                 00' 037D       	.BYTE	PRO_K_DEVICE
                                 00  037E       	.BYTE	0
                                     037F       30489$:
                                 0B' 037F       30491$:	.BYTE	30494$-30491$
                                 00' 0380       	.BYTE	QUA_K_PRIN
                                 00  0381       	.IIF B <>,	.BYTE	0
                               0411  0382       	.WORD	$$$
                                 00' 0384       	.BYTE	IMG_K_SHOW
                               FFFF  0385       	.WORD	-1
                                 11  0387       	.BYTE	1*16+1
                                 00' 0388       	.BYTE	PRO_K_DEVICE
                                 10  0389       	.IIF NB	<BYTE>, .BYTE $$$
                                     038A       30494$:
                                 0D' 038A       30496$:	.BYTE	30499$-30496$
                                 09' 038B       	.BYTE	<30498$-30496$>
                                 00  038C       	.IIF B <>,	.BYTE	0
                               0413  038D       	.WORD	$$$
                                 00' 038F       	.BYTE	IMG_K_SHOW
                               FFFF  0390       	.WORD	-1
                                 00  0392       	.BYTE	0*16+0
                        57 54 45 4E  0393       30498$:	.ASCII	\NETW\
                                     0397       30499$:
                                 09' 0397       30501$:	.BYTE	30504$-30501$
                                 00' 0398       	.BYTE	QUA_K_RMS_
                                 00  0399       	.IIF B <>,	.BYTE	0
                               0411  039A       	.WORD	$$$
                                 00' 039C       	.BYTE	IMG_K_SHOW
                               FFFF  039D       	.WORD	-1
                                 00  039F       	.BYTE	0*16+0
                                     03A0       30504$:
                                 0B' 03A0       30506$:	.BYTE	30509$-30506$
                                 00' 03A1       	.BYTE	QUA_K_MAGT
                                 00  03A2       	.IIF B <>,	.BYTE	0
                               0411  03A3       	.WORD	$$$
                                 00' 03A5       	.BYTE	IMG_K_SHOW
                               FFFF  03A6       	.WORD	-1
CMDATBAS3       - COMMAND DATA BASE MODULE 3                     22-AUG-1978 01:02:04   VAX-11 MACRO X0.3-11               Page  19
01              DEFINE DCLS COMMANDS                                                                                             (1)

                                 11  03A8       	.BYTE	1*16+1
                                 00' 03A9       	.BYTE	PRO_K_DEVICE
                                 10  03AA       	.IIF NB	<BYTE>, .BYTE $$$
                                     03AB       30509$:
                           000003A0  03AB       .=$QUALBLK$
                                 00  03A0       	.BYTE	0
                                 000002F5       	.RESTORE
                                     02F5       	.SAVE
                                 000003AB       	.PSECT	DCL$CMDATA,BYTE,RD,NOWRT
                                     03AB       QUA_G_SHLG:
                                 06' 03AB       30511$:	.BYTE	30514$-30511$
                                 00' 03AC       	.BYTE	QUA_K_SYST
                                 00  03AD       	.IIF B <>,	.BYTE	0
                               0408  03AE       	.WORD	$$$
                                 00' 03B0       	.BYTE	IMG_K_SHOW
                                     03B1       30514$:
                                 06' 03B1       30515$:	.BYTE	30518$-30515$
                                 00' 03B2       	.BYTE	QUA_K_GROU
                                 00  03B3       	.IIF B <>,	.BYTE	0
                               0408  03B4       	.WORD	$$$
                                 00' 03B6       	.BYTE	IMG_K_SHOW
                                     03B7       30518$:
                                 06' 03B7       30519$:	.BYTE	30522$-30519$
                                 00' 03B8       	.BYTE	QUA_K_PROC
                                 00  03B9       	.IIF B <>,	.BYTE	0
                               0408  03BA       	.WORD	$$$
                                 00' 03BC       	.BYTE	IMG_K_SHOW
                                     03BD       30522$:
                                 06' 03BD       30523$:	.BYTE	30526$-30523$
                                 00' 03BE       	.BYTE	QUA_K_ALL
                                 00  03BF       	.IIF B <>,	.BYTE	0
                               0408  03C0       	.WORD	$$$
                                 00' 03C2       	.BYTE	IMG_K_SHOW
                                     03C3       30526$:
                           000003BD  03C3       .=$QUALBLK$
                                 00  03BD       	.BYTE	0
                                 000002F5       	.RESTORE
                                     02F5       	.SAVE
                                 000003C3       	.PSECT	DCL$CMDATA,BYTE,RD,NOWRT
                                     03C3       QUA_G_SHQU:
                                 05' 03C3       30527$:	.BYTE	30530$-30527$
                                 00' 03C4       	.BYTE	QUA_K_ALL
                                 00  03C5       	.IIF B <>,	.BYTE	0
                               0008  03C6       	.WORD	$$$
                                     03C8       30530$:
                                 09' 03C8       30531$:	.BYTE	30534$-30531$
                                 00' 03C9       	.BYTE	QUA_K_BATC
                                 00  03CA       	.IIF B <>,	.BYTE	0
                               0409  03CB       	.WORD	$$$
                                 00  03CD       	.BYTE	0
                               0000  03CE       	.WORD	0
                                 00  03D0       	.BYTE	0*16+0
                                     03D1       30534$:
                                 05' 03D1       30536$:	.BYTE	30539$-30536$
                                 00' 03D2       	.BYTE	QUA_K_BRIE
                                 00  03D3       	.IIF B <>,	.BYTE	0
                               0008  03D4       	.WORD	$$$
CMDATBAS3       - COMMAND DATA BASE MODULE 3                     22-AUG-1978 01:02:04   VAX-11 MACRO X0.3-11               Page  20
01              DEFINE DCLS COMMANDS                                                                                             (1)

                                     03D6       30539$:
                                 09' 03D6       30540$:	.BYTE	30543$-30540$
                                 00' 03D7       	.BYTE	QUA_K_DEVI
                                 00  03D8       	.IIF B <>,	.BYTE	0
                               0409  03D9       	.WORD	$$$
                                 00  03DB       	.BYTE	0
                               0000  03DC       	.WORD	0
                                 00  03DE       	.BYTE	0*16+0
                                     03DF       30543$:
                                 05' 03DF       30545$:	.BYTE	30548$-30545$
                                 00' 03E0       	.BYTE	QUA_K_ENTR
                                 00  03E1       	.IIF B <>,	.BYTE	0
                               3028  03E2       	.WORD	$$$
                                     03E4       30548$:
                                 05' 03E4       30549$:	.BYTE	30552$-30549$
                                 00' 03E5       	.BYTE	QUA_K_FULL
                                 00  03E6       	.IIF B <>,	.BYTE	0
                               0008  03E7       	.WORD	$$$
                                     03E9       30552$:
                           000003E4  03E9       .=$QUALBLK$
                                 00  03E4       	.BYTE	0
                                 000002F5       	.RESTORE
                                     02F5       	.SAVE
                                 000003E9       	.PSECT	DCL$CMDATA,BYTE,RD,NOWRT
                                     03E9       QUA_G_SHSY:
                                 05' 03E9       30553$:	.BYTE	30556$-30553$
                                 00' 03EA       	.BYTE	QUA_K_GLOB
                                 00  03EB       	.IIF B <>,	.BYTE	0
                               0010  03EC       	.WORD	$$$
                                     03EE       30556$:
                                 05' 03EE       30557$:	.BYTE	30560$-30557$
                                 00' 03EF       	.BYTE	QUA_K_LOCA
                                 00  03F0       	.IIF B <>,	.BYTE	0
                               0010  03F1       	.WORD	$$$
                                     03F3       30560$:
                                 09' 03F3       30561$:	.BYTE	30564$-30561$
                                 00' 03F4       	.BYTE	QUA_K_ALL
                                 00  03F5       	.IIF B <>,	.BYTE	0
                               0411  03F6       	.WORD	$$$
                                 00  03F8       	.BYTE	0
                               0000  03F9       	.WORD	0
                                 00  03FB       	.BYTE	0*16+0
                                     03FC       30564$:
                           000003F3  03FC       .=$QUALBLK$
                                 00  03F3       	.BYTE	0
                                 000002F5       	.RESTORE
                                     02F5       	.SAVE
                                 000003FC       	.PSECT	DCL$CMDATA,BYTE,RD,NOWRT
                                     03FC       QUA_G_SHDV:
                                 05' 03FC       30566$:	.BYTE	30569$-30566$
                                 00' 03FD       	.BYTE	QUA_K_ALLO
                                 00  03FE       	.IIF B <>,	.BYTE	0
                               0008  03FF       	.WORD	$$$
                                     0401       30569$:
                                 05' 0401       30570$:	.BYTE	30573$-30570$
                                 00' 0402       	.BYTE	QUA_K_BRIE
                                 00  0403       	.IIF B <>,	.BYTE	0
CMDATBAS3       - COMMAND DATA BASE MODULE 3                     22-AUG-1978 01:02:04   VAX-11 MACRO X0.3-11               Page  21
01              DEFINE DCLS COMMANDS                                                                                             (1)

                               0008  0404       	.WORD	$$$
                                     0406       30573$:
                                 05' 0406       30574$:	.BYTE	30577$-30574$
                                 00' 0407       	.BYTE	QUA_K_FULL
                                 00  0408       	.IIF B <>,	.BYTE	0
                               0008  0409       	.WORD	$$$
                                     040B       30577$:
                                 05' 040B       30578$:	.BYTE	30581$-30578$
                                 00' 040C       	.BYTE	QUA_K_MOUN
                                 00  040D       	.IIF B <>,	.BYTE	0
                               0008  040E       	.WORD	$$$
                                     0410       30581$:
                           0000040B  0410       .=$QUALBLK$
                                 00  040B       	.BYTE	0
                                 000002F5       	.RESTORE
                                     02F5       	.SAVE
                                 00000410       	.PSECT	DCL$CMDATA,BYTE,RD,NOWRT
                                     0410       QUA_G_SHPR:
                                 05' 0410       30582$:	.BYTE	30585$-30582$
                                 00' 0411       	.BYTE	QUA_K_QUOT
                                 00  0412       	.IIF B <>,	.BYTE	0
                               0008  0413       	.WORD	$$$
                                     0415       30585$:
                                 05' 0415       30586$:	.BYTE	30589$-30586$
                                 00' 0416       	.BYTE	QUA_K_ACCO
                                 00  0417       	.IIF B <>,	.BYTE	0
                               0008  0418       	.WORD	$$$
                                     041A       30589$:
                                 05' 041A       30590$:	.BYTE	30593$-30590$
                                 00' 041B       	.BYTE	QUA_K_PRIV
                                 00  041C       	.IIF B <>,	.BYTE	0
                               0008  041D       	.WORD	$$$
                                     041F       30593$:
                                 05' 041F       30594$:	.BYTE	30597$-30594$
                                 00' 0420       	.BYTE	QUA_K_SUBP
                                 00  0421       	.IIF B <>,	.BYTE	0
                               0008  0422       	.WORD	$$$
                                     0424       30597$:
                                 05' 0424       30598$:	.BYTE	30601$-30598$
                                 00' 0425       	.BYTE	QUA_K_ALL
                                 00  0426       	.IIF B <>,	.BYTE	0
                               0008  0427       	.WORD	$$$
                                     0429       30601$:
                           00000424  0429       .=$QUALBLK$
                                 00  0424       	.BYTE	0
                                 000002F5       	.RESTORE
                                     02F5       	.SAVE
                                 00000429       	.PSECT	DCL$CMDATA,BYTE,RD,NOWRT
                                     0429       QUA_G_SHSS:
                                 05' 0429       30602$:	.BYTE	30605$-30602$
                                 00' 042A       	.BYTE	QUA_K_PROC
                                 00  042B       	.IIF B <>,	.BYTE	0
                               0088  042C       	.WORD	$$$
                                     042E       30605$:
                           00000429  042E       .=$QUALBLK$
                                 00  0429       	.BYTE	0
                                 000002F5       	.RESTORE
CMDATBAS3       - COMMAND DATA BASE MODULE 3                     22-AUG-1978 01:02:04   VAX-11 MACRO X0.3-11               Page  22
01              DEFINE DCLS COMMANDS                                                                                             (1)

                                     02F5       	.SAVE
                                 0000042E       	.PSECT	DCL$CMDATA,BYTE,RD,NOWRT
                                     042E       QUA_G_SHTE:
                                 09' 042E       30606$:	.BYTE	30609$-30606$
                                 05' 042F       	.BYTE	<30608$-30606$>
                                 00  0430       	.IIF B <>,	.BYTE	0
                               000A  0431       	.WORD	$$$
                        4D 52 45 50  0433       30608$:	.ASCII	\PERM\
                                     0437       30609$:
                           0000042E  0437       .=$QUALBLK$
                                 00  042E       	.BYTE	0
                                 000002F5       	.RESTORE
                                     02F5    64
                                     02F5    65 	.END
CMDATBAS3       - COMMAND DATA BASE MODULE 3                     22-AUG-1978 01:02:04   VAX-11 MACRO X0.3-11               Page  23
SYMBOL TABLE                                                                                                                     (1)

$$$            = 00000004            CLI$K_SHQU_ALL = 00000001            CLI$K_STRM_SYST= 0000000A
$$$GBL         = 00000000            CLI$K_SHQU_BATC= 00000002            CLI$K_STRM_UNIT= 00000005
$DCLDEFQUALBLK$= 00000001            CLI$K_SHQU_BRIE= 00000003            CLI$K_STTT_BROA= 00000001
$PMTCNT$       = 00000001            CLI$K_SHQU_DEVI= 00000004            CLI$K_STTT_CRFI= 00000002
$QUALBLK$      = 0000042E R     05   CLI$K_SHQU_ENTR= 00000005            CLI$K_STTT_ECHO= 00000003
$QUALNUM$      = 00000002            CLI$K_SHQU_FULL= 00000006            CLI$K_STTT_EIGH= 00000004
$XX$           = 00000000            CLI$K_SHSS_PROC= 00000001            CLI$K_STTT_ESCA= 00000005
BIT...         = 00000008            CLI$K_SHSY_ALL = 00000003            CLI$K_STTT_HARD= 00000006
CLI$K_SET_ACCO = 00000001            CLI$K_SHSY_GLOB= 00000001            CLI$K_STTT_HOLD= 00000007
CLI$K_SET_CARD = 00000002            CLI$K_SHSY_LOCA= 00000002            CLI$K_STTT_HOST= 00000008
CLI$K_SET_CONT = 00000012            CLI$K_SHTE_PERM= 00000001            CLI$K_STTT_INTE= 00000009
CLI$K_SET_DEFA = 00000004            CLI$K_STAC_DISA= 00000001            CLI$K_STTT_LA36= 0000000A
CLI$K_SET_DEVI = 00000003            CLI$K_STAC_ENAB= 00000002            CLI$K_STTT_LFFI= 0000000B
CLI$K_SET_LOGI = 00000005            CLI$K_STAC_NEW_= 00000003            CLI$K_STTT_LOCA= 0000000C
CLI$K_SET_MAGT = 00000006            CLI$K_STCR_026 = 00000001            CLI$K_STTT_LOWE= 0000000D
CLI$K_SET_ON   = 00000007            CLI$K_STCR_029 = 00000002            CLI$K_STTT_PAGE= 0000000E
CLI$K_SET_PASS = 00000008            CLI$K_STDV_ERRO= 00000002            CLI$K_STTT_PARI= 0000001E
CLI$K_SET_PRIN = 00000009            CLI$K_STDV_SPOO= 00000001            CLI$K_STTT_PASS= 0000000F
CLI$K_SET_PROC = 0000000A            CLI$K_STLG_INTE= 00000001            CLI$K_STTT_PERM= 00000020
CLI$K_SET_PROT = 0000000B            CLI$K_STLP_CR  = 00000001            CLI$K_STTT_READ= 0000001F
CLI$K_SET_QUEU = 0000000C            CLI$K_STLP_FF  = 00000002            CLI$K_STTT_REMO= 00000010
CLI$K_SET_RMS_ = 00000011            CLI$K_STLP_LA11= 00000005            CLI$K_STTT_SCOP= 00000011
CLI$K_SET_TERM = 0000000D            CLI$K_STLP_LA18= 00000006            CLI$K_STTT_SCRI= 00000012
CLI$K_SET_UIC  = 0000000E            CLI$K_STLP_LOWE= 00000004            CLI$K_STTT_SPEE= 00000013
CLI$K_SET_VERI = 0000000F            CLI$K_STLP_LP11= 00000007            CLI$K_STTT_TAB = 00000014
CLI$K_SET_WORK = 00000010            CLI$K_STLP_PAGE= 00000008            CLI$K_STTT_TTSY= 00000015
CLI$K_SHDV_ALLO= 00000001            CLI$K_STLP_UNKN= 00000009            CLI$K_STTT_TYPE= 00000016
CLI$K_SHDV_BRIE= 00000002            CLI$K_STLP_UPPE= 00000003            CLI$K_STTT_UNKN= 00000017
CLI$K_SHDV_FULL= 00000003            CLI$K_STLP_WIDT= 0000000A            CLI$K_STTT_UPPE= 00000018
CLI$K_SHDV_MOUN= 00000004            CLI$K_STMT_DENS= 00000001            CLI$K_STTT_VT05= 00000019
CLI$K_SHLG_ALL = 00000004            CLI$K_STMT_REWI= 00000002            CLI$K_STTT_VT52= 0000001A
CLI$K_SHLG_GROU= 00000002            CLI$K_STMT_UNLO= 00000003            CLI$K_STTT_VT55= 0000001B
CLI$K_SHLG_PROC= 00000003            CLI$K_STPC_IDEN= 00000001            CLI$K_STTT_WIDT= 0000001C
CLI$K_SHLG_SYST= 00000001            CLI$K_STPC_PRIO= 00000002            CLI$K_STTT_WRAP= 0000001D
CLI$K_SHOW_DAYT= 00000001            CLI$K_STPC_RESO= 00000003            CLI$K_STWR_LIMI= 00000001
CLI$K_SHOW_DEFA= 00000003            CLI$K_STPC_SWAP= 00000004            CLI$K_STWR_QUOT= 00000002
CLI$K_SHOW_DEVI= 0000000A            CLI$K_STPR_DEFA= 00000001            CLI$K_VERB_ALLO= 00000001
CLI$K_SHOW_LOGI= 00000004            CLI$K_STPR_DEVI= 00000003            CLI$K_VERB_ANAL= 00000002
CLI$K_SHOW_MAGT= 00000012            CLI$K_STPR_OWNE= 00000004            CLI$K_VERB_APPE= 0000002F
CLI$K_SHOW_NETW= 00000010            CLI$K_STPR_PROT= 00000002            CLI$K_VERB_ASSI= 00000003
CLI$K_SHOW_PRIN= 0000000F            CLI$K_STQE_AFTE= 00000001            CLI$K_VERB_BASI= 00000004
CLI$K_SHOW_PROC= 0000000C            CLI$K_STQE_ENTR= 00000003            CLI$K_VERB_BLIS= 00000005
CLI$K_SHOW_PROT= 00000005            CLI$K_STQE_FORM= 00000004            CLI$K_VERB_CANC= 00000033
CLI$K_SHOW_QUEU= 00000006            CLI$K_STQE_HOLD= 00000005            CLI$K_VERB_COBO= 00000006
CLI$K_SHOW_RMS_= 00000011            CLI$K_STQE_JOB_= 00000002            CLI$K_VERB_CONT= 00000007
CLI$K_SHOW_STAT= 0000000B            CLI$K_STQE_LOWE= 00000006            CLI$K_VERB_COPY= 00000008
CLI$K_SHOW_SYMB= 00000007            CLI$K_STQE_NAME= 00000007            CLI$K_VERB_CREA= 00000009
CLI$K_SHOW_SYST= 0000000D            CLI$K_STQE_PRIO= 00000008            CLI$K_VERB_DATA= 0000000A
CLI$K_SHOW_TERM= 0000000E            CLI$K_STQE_RELE= 00000009            CLI$K_VERB_DEAL= 0000000B
CLI$K_SHOW_TIME= 00000002            CLI$K_STRM_BLOC= 00000001            CLI$K_VERB_DEAS= 0000000C
CLI$K_SHOW_TRAN= 00000008            CLI$K_STRM_BUFF= 00000002            CLI$K_VERB_DEBU= 0000000D
CLI$K_SHOW_WORK= 00000009            CLI$K_STRM_DISK= 00000003            CLI$K_VERB_DEFI= 0000000E
CLI$K_SHPR_ACCO= 00000002            CLI$K_STRM_HASH= 00000006            CLI$K_VERB_DELE= 0000000F
CLI$K_SHPR_ALL = 00000005            CLI$K_STRM_INDE= 00000007            CLI$K_VERB_DEPO= 00000010
CLI$K_SHPR_PRIV= 00000003            CLI$K_STRM_MAGT= 00000004            CLI$K_VERB_DIFF= 00000011
CLI$K_SHPR_QUOT= 00000001            CLI$K_STRM_RELA= 00000008            CLI$K_VERB_DIRE= 00000012
CLI$K_SHPR_SUBP= 00000004            CLI$K_STRM_SEQU= 00000009            CLI$K_VERB_DISM= 00000013
CMDATBAS3       - COMMAND DATA BASE MODULE 3                     22-AUG-1978 01:02:04   VAX-11 MACRO X0.3-11               Page  24
SYMBOL TABLE                                                                                                                     (1)

CLI$K_VERB_DUMP= 00000030            CLI$_INVQUALNUM= 0003881A            CMD_B_PARMCNT    00000001
CLI$K_VERB_EDIT= 00000014            CLI$_INVREQTYP = 00038822            CMD_B_PROMPT     00000004
CLI$K_VERB_EOD = 00000015            CLI$_INVRSP    = 00038180            CMD_B_QUABLK     00000003
CLI$K_VERB_EXAM= 00000016            CLI$_INVUIC    = 000381A8            CMD_B_VERBTYP    00000000
CLI$K_VERB_EXIT= 00000017            CLI$_IVCHAR    = 00038050            CMD_M_ABREV    = 00000020
CLI$K_VERB_FORE= 000000FF            CLI$_IVDEVTYPE = 0003886A            CMD_M_DEFQUAL  = 00000010
CLI$K_VERB_FORT= 00000018            CLI$_IVFNAM    = 000381C0            CMD_M_FOREIGN  = 00000001
CLI$K_VERB_GOTO= 00000019            CLI$_IVKEYW    = 00038060            CMD_M_IMMED    = 00000002
CLI$K_VERB_HELP= 0000001A            CLI$_IVOPER    = 00038068            CMD_M_NOSTAT   = 00000008
CLI$K_VERB_IF  = 0000001B            CLI$_IVPROT    = 00038070            CMD_M_PAROUT   = 00000004
CLI$K_VERB_INIT= 0000001C            CLI$_IVQLOC    = 00038078            CMD_S_MAXPARM  = 00000004
CLI$K_VERB_INQU= 0000001D            CLI$_IVSYMB    = 00038080            CMD_S_MINPARM  = 00000004
CLI$K_VERB_LIBR= 00000034            CLI$_IVVALU    = 00038088            CMD_V_ABREV    = 00000005
CLI$K_VERB_LINK= 0000001E            CLI$_IVVERB    = 00038090            CMD_V_DEFQUAL  = 00000004
CLI$K_VERB_LOGO= 0000001F            CLI$_MAXPARM   = 00038098            CMD_V_FOREIGN  = 00000000
CLI$K_VERB_MACR= 00000020            CLI$_MULKEY    = 000381A0            CMD_V_IMMED    = 00000001
CLI$K_VERB_MCR = 00000021            CLI$_NOATFIL   = 000380A0            CMD_V_MAXPARM  = 00000004
CLI$K_VERB_MOUN= 0000002B            CLI$_NOCCAT    = 000380A8            CMD_V_MINPARM  = 00000000
CLI$K_VERB_ON  = 00000022            CLI$_NOCOMD    = 000380B0            CMD_V_NOSTAT   = 00000003
CLI$K_VERB_PATC= 0000002C            CLI$_NOKEYW    = 000380B8            CMD_V_PAROUT   = 00000002
CLI$K_VERB_PRIN= 00000023            CLI$_NOLIST    = 000380C0            GBL...         = 00000000
CLI$K_VERB_PURG= 00000031            CLI$_NOOPTPRS  = 00038842            IMG_K_BACKTRANS  ********   X   05
CLI$K_VERB_RENA= 00000032            CLI$_NOQUAL    = 000380C8            IMG_K_SET        ********   X   05
CLI$K_VERB_REPL= 0000002D            CLI$_NORMAL    = 00030001            IMG_K_SETCTLY    ********   X   05
CLI$K_VERB_REQU= 00000036            CLI$_NOTNEG    = 000380D8            IMG_K_SETDEFALT  ********   X   05
CLI$K_VERB_RUN = 00000024            CLI$_NOVALU    = 000380D0            IMG_K_SETON      ********   X   05
CLI$K_VERB_SET = 00000025            CLI$_NOVALUE   = 0003882A            IMG_K_SETPROT    ********   X   05
CLI$K_VERB_SHOW= 00000026            CLI$_NULFIL    = 000380E0            IMG_K_SETUIC     ********   X   05
CLI$K_VERB_SORT= 00000035            CLI$_NUMBER    = 000380E8            IMG_K_SETVERIFY  ********   X   05
CLI$K_VERB_STAR= 00000027            CLI$_ONCOMD    = 000380F0            IMG_K_SHOW       ********   X   05
CLI$K_VERB_STOP= 00000028            CLI$_ONERR     = 000380F8            IMG_K_SHOWDEF    ********   X   05
CLI$K_VERB_SUBM= 00000029            CLI$_ONEVAL    = 00038158            IMG_K_SHOWLOG    ********   X   05
CLI$K_VERB_SYNC= 00000037            CLI$_ONLEVL    = 00038100            IMG_K_SHOWPROT   ********   X   05
CLI$K_VERB_TYPE= 0000002A            CLI$_ONOVF     = 00038108            IMG_K_SHOWSTAT   ********   X   05
CLI$K_VERB_UNLO= 0000002E            CLI$_OVRFLW    = 00038160            IMG_K_SHOWSYMBL  ********   X   05
CLI$_ABFNAM    = 000381B8            CLI$_PARMDEL   = 00038110            IMG_K_SHOWTIME   ********   X   05
CLI$_ABKEYW    = 00038000            CLI$_PROC_ID   = 0003FFF1            IMG_K_SHOWTRAN   ********   X   05
CLI$_ABVERB    = 00038008            CLI$_QUEJOBCRE = 0003FFF9            OPI_K_FSTPRM   = FFFFFFFF
CLI$_BADRET    = 00038198            CLI$_REQPRMABS = 00038812            OPI_K_SCNPRM   = FFFFFFFE
CLI$_BADTEXT   = 000381B0            CLI$_RSLOVF    = 00038118            PRO_B_FLAGS      00000001
CLI$_BUFOVF    = 00038018            CLI$_SKPDAT    = 00038120            PRO_B_PROMPT     00000000
CLI$_COMPLX    = 00038020            CLI$_SPARE0    = 00038010            PRO_K_DEVICE     ********   X   05
CLI$_CONFQUAL  = 00038802            CLI$_SPARE1    = 00038058            PRO_K_FILE       ********   X   05
CLI$_CREQUEJOB = 0003884A            CLI$_STKOVF    = 00038128            PRO_K_LENGTH     00000002
CLI$_DEFOVF    = 00038028            CLI$_SUBMITERR = 00038852            PRO_K_LOG_NAME   ********   X   05
CLI$_DEVALSPL  = 0003885A            CLI$_SYMDEL    = 00038130            PRO_K_PROC_NAME  ********   X   05
CLI$_DEVNOTFOR = 0003887A            CLI$_SYMOVF    = 00038138            PRO_K_QUEUE      ********   X   05
CLI$_DEVNOTSPL = 00038862            CLI$_UNDFIL    = 00038188            PRO_K_SYMBOL     ********   X   05
CLI$_DIRECT    = 00038030            CLI$_UNDSYM    = 00038140            PRO_K_WHAT       ********   X   05
CLI$_EXPSYN    = 00038038            CLI$_UNPROPARM = 00038170            PRO_M_CONCAT   = 00000001
CLI$_FILOPN    = 00038190            CLI$_UNPROQUAL = 00038168            PRO_M_IMPCAT   = 00000002
CLI$_ILLVAL    = 0003883A            CLI$_USGOTO    = 00038148            PRO_M_LIST     = 00000004
CLI$_IMCHNG    = 00038040            CLI$_VALCNVERR = 00038832            PRO_M_OPTION   = 00000008
CLI$_IMGFNF    = 00038872            CLI$_VALREQ    = 00038150            PRO_M_REQ      = 00000010
CLI$_INSFPRM   = 00038048            CMD_AB_PAROUT    00000006            PRO_M_STRING   = 00000020
CLI$_INVKEY    = 00038178            CMD_B_DEFIMG     00000002            PRO_V_CONCAT   = 00000000
CLI$_INVQUAL   = 0003880A            CMD_B_FLAGS      00000005            PRO_V_IMPCAT   = 00000001
CMDATBAS3       - COMMAND DATA BASE MODULE 3                     22-AUG-1978 01:02:04   VAX-11 MACRO X0.3-11               Page  25
SYMBOL TABLE                                                                                                                     (1)

PRO_V_LIST     = 00000002            QUA_K_IDEN       ********   X   05   QUA_M_VERB     = 00000008
PRO_V_OPTION   = 00000003            QUA_K_INDE       ********   X   05   QUA_S_MAXPARM  = 00000004
PRO_V_REQ      = 00000004            QUA_K_JOB_       ********   X   05   QUA_S_MINPARM  = 00000004
PRO_V_STRING   = 00000005            QUA_K_LIMI       ********   X   05   QUA_V_BATDEF   = 00000008
QUA_B_DEFVAL     00000002            QUA_K_LOCA       ********   X   05   QUA_V_CHNGLIST = 00000000
QUA_B_IMAGE      00000005            QUA_K_LOGI       ********   X   05   QUA_V_DEFTRUE  = 00000007
QUA_B_INDEX      00000001            QUA_K_LOWE       ********   X   05   QUA_V_FILE     = 00000002
QUA_B_OFFSET     00000000            QUA_K_MAGT       ********   X   05   QUA_V_IMAGE    = 0000000A
QUA_B_PARMCNT    00000008            QUA_K_MOUN       ********   X   05   QUA_V_INTDEF   = 00000009
QUA_G_CHNGLST    00000006            QUA_K_NAME       ********   X   05   QUA_V_KEYVAL   = 0000000E
QUA_G_SET        00000008 R     05   QUA_K_NEW_       ********   X   05   QUA_V_LOCALKEY = 00000001
QUA_G_SHDV       000003FC R     05   QUA_K_ON         ********   X   05   QUA_V_MAXPARM  = 00000004
QUA_G_SHLG       000003AB R     05   QUA_K_OWNE       ********   X   05   QUA_V_MINPARM  = 00000000
QUA_G_SHOW       000002F5 R     05   QUA_K_PAGE       ********   X   05   QUA_V_NEG      = 00000006
QUA_G_SHPR       00000410 R     05   QUA_K_PASS       ********   X   05   QUA_V_ONEVAL   = 0000000D
QUA_G_SHQU       000003C3 R     05   QUA_K_PRIN       ********   X   05   QUA_V_OUTPUT   = 0000000B
QUA_G_SHSS       00000429 R     05   QUA_K_PRIO       ********   X   05   QUA_V_PARM     = 00000004
QUA_G_SHSY       000003E9 R     05   QUA_K_PRIV       ********   X   05   QUA_V_VAL      = 00000005
QUA_G_SHTE       0000042E R     05   QUA_K_PROC       ********   X   05   QUA_V_VALREQ   = 0000000C
QUA_G_STAC       000002A8 R     05   QUA_K_PROT       ********   X   05   QUA_V_VERB     = 00000003
QUA_G_STCR       0000025F R     05   QUA_K_QUEU       ********   X   05   QUA_W_FLAGS      00000003
QUA_G_STDV       000000BE R     05   QUA_K_QUOT       ********   X   05   QUA_W_PROMPT     00000009
QUA_G_STLG       000000CC R     05   QUA_K_RELA       ********   X   05   QUA_W_QUALIST    00000006
QUA_G_STLP       00000215 R     05   QUA_K_RELE       ********   X   05   SET_G_PRMPT      00000006 R     05
QUA_G_STMT       000000D5 R     05   QUA_K_REMO       ********   X   05   SHOW_G_PRMPT     000002F3 R     05
QUA_G_STPC       000000EC R     05   QUA_K_RESO       ********   X   05   VERB_G_SET       00000000 R     05
QUA_G_STPR       00000100 R     05   QUA_K_RMS_       ********   X   05   VERB_G_SHOW      000002ED R     05
QUA_G_STQE       0000027B R     05   QUA_K_SEQU       ********   X   05
QUA_G_STRM       000002B7 R     05   QUA_K_STAT       ********   X   05
QUA_G_STTT       00000119 R     05   QUA_K_SUBP       ********   X   05
QUA_G_STWR       00000271 R     05   QUA_K_SWAP       ********   X   05
QUA_K_ACCO       ********   X   05   QUA_K_SYMB       ********   X   05
QUA_K_AFTE       ********   X   05   QUA_K_SYST       ********   X   05
QUA_K_ALL        ********   X   05   QUA_K_TERM       ********   X   05
QUA_K_ALLO       ********   X   05   QUA_K_TIME       ********   X   05
QUA_K_BATC       ********   X   05   QUA_K_TRAN       ********   X   05
QUA_K_BLOC       ********   X   05   QUA_K_TYPE       ********   X   05
QUA_K_BRIE       ********   X   05   QUA_K_UIC        ********   X   05
QUA_K_BROA       ********   X   05   QUA_K_UNIT       ********   X   05
QUA_K_BUFF       ********   X   05   QUA_K_UPPE       ********   X   05
QUA_K_CARD       ********   X   05   QUA_K_VERI       ********   X   05
QUA_K_CONT       ********   X   05   QUA_K_WIDT       ********   X   05
QUA_K_DAYT       ********   X   05   QUA_K_WORK       ********   X   05
QUA_K_DEFA       ********   X   05   QUA_M_BATDEF   = 00000100
QUA_K_DENS       ********   X   05   QUA_M_CHNGLIST = 00000001
QUA_K_DEVI       ********   X   05   QUA_M_DEFTRUE  = 00000080
QUA_K_DISA       ********   X   05   QUA_M_FILE     = 00000004
QUA_K_DISK       ********   X   05   QUA_M_IMAGE    = 00000400
QUA_K_ENAB       ********   X   05   QUA_M_INTDEF   = 00000200
QUA_K_ENTR       ********   X   05   QUA_M_KEYVAL   = 00004000
QUA_K_ERRO       ********   X   05   QUA_M_LOCALKEY = 00000002
QUA_K_FORM       ********   X   05   QUA_M_NEG      = 00000040
QUA_K_FULL       ********   X   05   QUA_M_ONEVAL   = 00002000
QUA_K_GLOB       ********   X   05   QUA_M_OUTPUT   = 00000800
QUA_K_GROU       ********   X   05   QUA_M_PARM     = 00000010
QUA_K_HASH       ********   X   05   QUA_M_VAL      = 00000020
QUA_K_HOLD       ********   X   05   QUA_M_VALREQ   = 00001000
CMDATBAS3       - COMMAND DATA BASE MODULE 3                     22-AUG-1978 01:02:04   VAX-11 MACRO X0.3-11               Page  26
PROGRAM SECTION SYNOPSIS                                                                                                         (1)


PROGRAM SECTION SYNOPSIS

.  ABS  .        00000000      00     NOPIC   USR   CON   ABS   LCL NOSHR NOEXE NORD  NOWRT BYTE
. BLANK .        00000000      01     NOPIC   USR   CON   REL   LCL NOSHR   EXE   RD    WRT BYTE
$ABS$            0000000B      02     NOPIC   USR   CON   ABS   LCL NOSHR   EXE   RD    WRT BYTE
DCL$VERBTBL      00000008      03     NOPIC   USR   CON   REL   LCL NOSHR   EXE   RD  NOWRT BYTE
DCL$COMDPTR      00000004      04     NOPIC   USR   CON   REL   LCL NOSHR   EXE   RD  NOWRT BYTE
DCL$CMDATA       00000437      05     NOPIC   USR   CON   REL   LCL NOSHR   EXE   RD  NOWRT BYTE


THERE WERE NO ERRORS OR WARNINGS.
1780. BYTES LEFT IN FREE MEMORY POOL.
4876. BYTES OF RECLAIMED MEMORY.
EXE$:CMDATBAS3,LIS$:CMDATBAS3/-SP=EXECML$/ML,LIB$:DCL/ML,SRC$:CMDATBAS3
49 MLB DIR RDS - 757 GETS TO DEFINE 26 MACROS. 245 INTER. FILE WRITES.
