CMDATBAS1       - COMMAND DATA BASE MODULE 1                     22-AUG-1978 00:56:00   VAX-11 MACRO X0.3-11               Page   0
TABLE OF CONTENTS

   (1)      45  DEFINE DCLS COMMANDS
CMDATBAS1       - COMMAND DATA BASE MODULE 1                     22-AUG-1978 00:56:00   VAX-11 MACRO X0.3-11               Page   1
01                                                                                                                               (1)

                                     0000     1 	.TITLE	CMDATBAS1 - COMMAND DATA BASE MODULE 1
                                     0000     2 	.IDENT	/01/
                                     0000     3
                                     0000     4 ;
                                     0000     5 ; COPYRIGHT (C) 1977
                                     0000     6 ; DIGITAL EQUIPMENT CORPORATION, MAYNARD, MASSACHUSETTS 01754
                                     0000     7 ;
                                     0000     8 ; THIS SOFTWARE IS FURNISHED  UNDER A LICENSE FOR USE ONLY ON A SINGLE
                                     0000     9 ; COMPUTER  SYSTEM AND  MAY BE  COPIED ONLY WITH  THE INCLUSION OF THE
                                     0000    10 ; ABOVE COPYRIGHT NOTICE.  THIS SOFTWARE, OR ANY OTHER COPIES THEREOF,
                                     0000    11 ; MAY NOT BE PROVIDED OR  OTHERWISE MADE AVAILABLE TO ANY OTHER PERSON
                                     0000    12 ; EXCEPT FOR USE ON SUCH SYSTEM AND TO ONE WHO AGREES TO THESE LICENSE
                                     0000    13 ; TERMS.  TITLE TO AND  OWNERSHIP OF THE  SOFTWARE  SHALL AT ALL TIMES
                                     0000    14 ; REMAIN IN DEC.
                                     0000    15 ;
                                     0000    16 ; THE INFORMATION IN THIS SOFTWARE IS SUBJECT TO CHANGE WITHOUT NOTICE
                                     0000    17 ; AND SHOULD  NOT BE CONSTRUED  AS A COMMITMENT  BY DIGITAL  EQUIPMENT
                                     0000    18 ; CORPORATION.
                                     0000    19 ;
                                     0000    20 ; DEC ASSUMES  NO  RESPONSIBILITY  FOR  THE USE OR  RELIABILITY OF ITS
                                     0000    21 ; SOFTWARE ON EQUIPMENT WHICH IS NOT SUPPLIED BY DEC.
                                     0000    22 ;
                                     0000    23 ; D. N. CUTLER 30-MAR-77
                                     0000    24 ;
                                     0000    25 ; DCLS COMMAND INTERPRETER DATA BASE
                                     0000    26 ;
                                     0000    27 ; MACRO LIBRARY CALLS
                                     0000    28 ;
                                     0000    29
                                     0000    30 	$CLIVERBDEF			;DEFINE GENERIC VERB TYPES
                                     0000    31 	DEFERRCOD			;DEFINE ERROR/STATUS VALUES
                                     0000    32 	DEFOPIDCL			;DCL OUTPUT RESULT PARSE INDIACTORS
                                     0000    33
                                     0000    34 ;
                                     0000    35 ; LOCAL MACROS
                                     0000    36
                                     0000    37 ;
                                     0000    38 ; LOCAL SYMBOLS
                                     0000    39 ;
                                     0000    40
                           00000001  0000    41 $DCLDEFQUALBLK$=1			; DEFINE THE QUALIFIER BOLCKS
                                     0000    42
                                     0000    43 	.LIST	MEB
CMDATBAS1       - COMMAND DATA BASE MODULE 1                     22-AUG-1978 00:56:00   VAX-11 MACRO X0.3-11               Page   2
01              DEFINE DCLS COMMANDS                                                                                             (1)

                                     0000    45 	.SBTTL	DEFINE DCLS COMMANDS
                                 00000000    46 	.PSECT	DCL$VERBTBL,BYTE,RD,NOWRT
                                     0000    47 DCL$AB_VERBTBL::			;BASE ADDRESS OF VERB TABLE
                                 00000000    48 	.PSECT	DCL$VERBTBM,BYTE,RD,NOWRT
                                     0000    49 DCL$AB_VERBEND::			;END OF VERB TABLE
                                 00000000    50 	.PSECT	DCL$COMDPTR,BYTE,RD,NOWRT
                                     0000    51 DCL$AW_COMDPTR::			;BASE ADDRESS OF COMMAND POINTER TABLE
                                 00000000    52 	.PSECT	DCL$COMDPTS,BYTE,RD,NOWRT
                                     0000    53 DCL$AW_COMDEND::			;END ADDRESS OF COMMAND POINTER TABLE
                                     0000    54
                                     0000    55 ;
                                     0000    56 ; SET UP ORIGINS FOR USER COMMAND TABLE INCASE THERE IS ONE
                                     0000    57 ;
                                     0000    58
                                 00000000    59 	.PSECT	DCL$USRCMD$$,BYTE,RD,NOWRT
                                     0000    60 DCL$AB_USRCMD::
                                 00000000    61 	.PSECT	DCL$USRCMD$_,BYTE,RD,NOWRT
                                     0000    62 DCL$AB_USREND::
                                 00000000    63 	.PSECT	DCL$USRCPT$$,BYTE,RD,NOWRT
                                     0000    64 DCL$AW_USERPTR::			;POINTER TO USER COMMANDS
                                     0000    65
                                     0000    66
                                     0000    67 	DEFCMD	ALLO,-			; DEFINE ALLOCATE COMMAND
                                     0000    68 		QUAL  =NO,-		; NO QUALIFIERS ALLOWED
                                     0000    69 		MINPRM=1,-		; MINIMUM PARAMETER COUNT
                                     0000    70 		MAXPRM=2,-		; MAXIMUM PARAMETERS ALLOWED
                                     0000    71 		DEFIMG=ALLOCATE,-	; DEFAULT IMAGE OR ROUTINE NAME
                                     0000    72 		FLAGS = <>,-		; COMMAND PROCESSING FLAGS
                                     0000    73 		OUTPRS=<>,-		; OUTPUT PARSE ROUTINES
                                     0000    74 		PRMPTS=<<DEVICE,REQ>,-	; FIRST PROMPT AND FLAGS
                                     0000    75 			<LOG_NAME,NONE>,-
                                     0000    76 			>
                                     0000       	.SAVE
                                 00000000       	.PSECT	$ABS$,ABS
                                     0000       CMD_B_VERBTYP:
                           00000001  0000       	.BLKB	1
                                     0001       CMD_B_PARMCNT:
                           00000002  0001       	.BLKB	1
                                     0002       CMD_B_DEFIMG:
                           00000003  0002       	.BLKB	1
                                     0003       CMD_B_QUABLK:
                           00000004  0003       	.BLKB	1
                                     0004       CMD_B_PROMPT:
                           00000005  0004       	.BLKB	1
                                     0005       CMD_B_FLAGS:
                           00000006  0005       	.BLKB	1
                                     0006       CMD_AB_PAROUT:
                           00000007  0006       	.BLKB	1
                                 00000000       	.RESTORE
                                     0000       	.SAVE
                                 00000007       	.PSECT	$ABS$,ABS
                           00000000  0007       	.=0
                                     0000       PRO_B_PROMPT:
                           00000001  0000       	.BLKB	1
                                     0001       PRO_B_FLAGS:
                           00000002  0001       	.BLKB	1
                                     0002       PRO_K_LENGTH:
CMDATBAS1       - COMMAND DATA BASE MODULE 1                     22-AUG-1978 00:56:00   VAX-11 MACRO X0.3-11               Page   3
01              DEFINE DCLS COMMANDS                                                                                             (1)

                                 00000000       	.RESTORE
                                     0000       	.LIST
                                 00000000       	.PSECT	DCL$VERBTBL,BYTE,RD,NOWRT
                                 C1  0000       	.BYTE	^A/A/!$XX$
                                 4C  0001       	.BYTE	^A/L/!$XX$
                                 4C  0002       	.BYTE	^A/L/!$XX$
                                 4F  0003       	.BYTE	^A/O/!$XX$
                                     0004       	.LIST
                                 00000000       	.PSECT	DCL$COMDPTR,BYTE,RD,NOWRT
                               FFFE' 0000       	.WORD	VERB_G_ALLO-.-2
                                     0002       	.LIST
                                 00000000       	.PSECT	DCL$CMDATA,BYTE,RD,NOWRT
                                     0000       VERB_G_ALLO:
                                 01  0000       	.BYTE	CLI$K_VERB_ALLO
                                 21  0001       	.BYTE	2*16+1
                                 00' 0002       	.BYTE	IMG_K_ALLOCATE
                                 00  0003       	.BYTE	0
                                 01' 0004       	.BYTE	ALLO_G_PRMPT-.-1
                                 00  0005       	.BYTE	$$$
                                     0006       ALLO_G_PRMPT:
                                 00' 0006       	.BYTE	PRO_K_DEVICE
                                 10  0007       	.IIF NB	<BYTE>, .BYTE $$$
                                 00' 0008       	.BYTE	PRO_K_LOG_NAME
                                 00  0009       	.BYTE	0
                                     000A    77
                                     000A    78 	DEFCMD	ANAL,-			; DEFINE ANAL COMMAND
                                     000A    79 		QUAL  =YES,-		; YES QUALIFIERS ALLOWED
                                     000A    80 		MINPRM=1,-		; MINIMUM PARAMETER COUNT
                                     000A    81 		MAXPRM=1,-		; MAXIMUM PARAMETERS ALLOWED
                                     000A    82 		DEFIMG=ANALYZ,-		; DEFAULT IMAGE OR ROUTINE NAME
                                     000A    83 		OUTPRS=CLI$K_ANAL_OUTP,-; OUTPUT PARSE ROUTINES
                                     000A    84 		PRMPTS=<<FILE,REQ>,-	; FIRST PROMPT AND FLAGS
                                     000A    85 			>
                                     000A       	.LIST
                                 00000004       	.PSECT	DCL$VERBTBL,BYTE,RD,NOWRT
                                 C1  0004       	.BYTE	^A/A/!$XX$
                                 4E  0005       	.BYTE	^A/N/!$XX$
                                 41  0006       	.BYTE	^A/A/!$XX$
                                 4C  0007       	.BYTE	^A/L/!$XX$
                                     0008       	.LIST
                                 00000002       	.PSECT	DCL$COMDPTR,BYTE,RD,NOWRT
                               0006' 0002       	.WORD	VERB_G_ANAL-.-2
                                     0004       	.LIST
                                 0000000A       	.PSECT	DCL$CMDATA,BYTE,RD,NOWRT
                                     000A       VERB_G_ANAL:
                                 02  000A       	.BYTE	CLI$K_VERB_ANAL
                                 11  000B       	.BYTE	1*16+1
                                 00' 000C       	.BYTE	IMG_K_ANALYZ
                                 06' 000D       	.BYTE	QUA_G_ANAL-.-1
                                 03' 000E       	.BYTE	ANAL_G_PRMPT-.-1
                                 04  000F       	.BYTE	$$$
                                 01' 0010       	.BYTE	30001$-.-1
                                 05' 0011       	.BYTE	CLI$K_ANAL_OUTP
                                     0012       30001$:
                                     0012       ANAL_G_PRMPT:
                                 00' 0012       	.BYTE	PRO_K_FILE
                                 10  0013       	.IIF NB	<BYTE>, .BYTE $$$
CMDATBAS1       - COMMAND DATA BASE MODULE 1                     22-AUG-1978 00:56:00   VAX-11 MACRO X0.3-11               Page   4
01              DEFINE DCLS COMMANDS                                                                                             (1)

                                     0014       	.SAVE
                                 00000007       	.PSECT	$ABS$,ABS
                           00000000  0007       	.=0
                                     0000       QUA_B_OFFSET:
                           00000001  0000       	.BLKB	1
                                     0001       QUA_B_INDEX:
                           00000002  0001       	.BLKB	1
                                     0002       QUA_B_DEFVAL:
                           00000003  0002       	.BLKB	1
                                     0003       QUA_W_FLAGS:
                           00000005  0003       	.BLKW	1
                                     0005       QUA_B_IMAGE:
                           00000006  0005       	.BLKB	1
                                     0006       QUA_G_CHNGLST:
                                     0006       QUA_W_QUALIST:
                           00000008  0006       	.BLKW	1
                                     0008       QUA_B_PARMCNT:
                           00000009  0008       	.BLKB	1
                                     0009       QUA_W_PROMPT:
                           0000000B  0009       	.BLKW	1
                                 00000014       	.RESTORE
                                     0014       	.SAVE
                                 00000014       	.PSECT	DCL$CMDATA,BYTE,RD,NOWRT
                                     0014       QUA_G_ANAL:
                                 09' 0014       30002$:	.BYTE	30005$-30002$
                                 05' 0015       	.BYTE	<30004$-30002$>
                                 00  0016       	.IIF B <>,	.BYTE	0
                               004A  0017       	.WORD	$$$
                           4D 4F 45  0019       30004$:	.ASCII	\EOM\
                                 20  001C       	.ASCII	% %
                                     001D       30005$:
                                 09' 001D       30006$:	.BYTE	30009$-30006$
                                 05' 001E       	.BYTE	<30008$-30006$>
                                 00  001F       	.IIF B <>,	.BYTE	0
                               004A  0020       	.WORD	$$$
                           44 53 47  0022       30008$:	.ASCII	\GSD\
                                 20  0025       	.ASCII	% %
                                     0026       30009$:
                                 05' 0026       30010$:	.BYTE	30013$-30010$
                                 00' 0027       	.BYTE	QUA_K_INTE
                                 00  0028       	.IIF B <>,	.BYTE	0
                               0048  0029       	.WORD	$$$
                                     002B       30013$:
                                 09' 002B       30014$:	.BYTE	30017$-30014$
                                 05' 002C       	.BYTE	<30016$-30014$>
                                 00  002D       	.IIF B <>,	.BYTE	0
                               004A  002E       	.WORD	$$$
                           44 48 4D  0030       30016$:	.ASCII	\MHD\
                                 20  0033       	.ASCII	% %
                                     0034       30017$:
                                 05' 0034       30018$:	.BYTE	30021$-30018$
                                 00' 0035       	.BYTE	QUA_K_OUTP
                                 00  0036       	.IIF B <>,	.BYTE	0
                               0B6C  0037       	.WORD	$$$
                                     0039       30021$:
                                 09' 0039       30022$:	.BYTE	30025$-30022$
                                 05' 003A       	.BYTE	<30024$-30022$>
CMDATBAS1       - COMMAND DATA BASE MODULE 1                     22-AUG-1978 00:56:00   VAX-11 MACRO X0.3-11               Page   5
01              DEFINE DCLS COMMANDS                                                                                             (1)

                                 00  003B       	.IIF B <>,	.BYTE	0
                               004A  003C       	.WORD	$$$
                           52 49 54  003E       30024$:	.ASCII	\TIR\
                                 20  0041       	.ASCII	% %
                                     0042       30025$:
                                 09' 0042       30026$:	.BYTE	30029$-30026$
                                 05' 0043       	.BYTE	<30028$-30026$>
                                 00  0044       	.IIF B <>,	.BYTE	0
                               004A  0045       	.WORD	$$$
                           54 42 54  0047       30028$:	.ASCII	\TBT\
                                 20  004A       	.ASCII	% %
                                     004B       30029$:
                                 09' 004B       30030$:	.BYTE	30033$-30030$
                                 05' 004C       	.BYTE	<30032$-30030$>
                                 00  004D       	.IIF B <>,	.BYTE	0
                               004A  004E       	.WORD	$$$
                           47 42 44  0050       30032$:	.ASCII	\DBG\
                                 20  0053       	.ASCII	% %
                                     0054       30033$:
                           0000004B  0054       .=$QUALBLK$
                                 00  004B       	.BYTE	0
                                 00000014       	.RESTORE
                                     0014    86
                                     0014    87 	DEFCMD	APPE,-			; DEFINE APPEND COMMAND
                                     0014    88 		QUAL  =YES,-		; YES QUALIFIERS ALLOWED
                                     0014    89 		MINPRM=2,-		; MINIMUM PARAMETER COUNT
                                     0014    90 		MAXPRM=2,-		; MAXIMUM PARAMETERS ALLOWED
                                     0014    91 		DEFIMG=COPY,-		; DEFAULT IMAGE OR ROUTINE NAME
                                     0014    92 		OUTPRS=OPI_K_SCNPRM,-	; OUTPUT PARSE ROUTINES
                                     0014    93 		PRMPTS=<<FROM,<REQ,CONCAT,LIST,IMPCAT>>,-
                                     0014    94 			<TO,REQ>,-
                                     0014    95 			>
                                     0014       	.LIST
                                 00000008       	.PSECT	DCL$VERBTBL,BYTE,RD,NOWRT
                                 C1  0008       	.BYTE	^A/A/!$XX$
                                 50  0009       	.BYTE	^A/P/!$XX$
                                 50  000A       	.BYTE	^A/P/!$XX$
                                 45  000B       	.BYTE	^A/E/!$XX$
                                     000C       	.LIST
                                 00000004       	.PSECT	DCL$COMDPTR,BYTE,RD,NOWRT
                               004E' 0004       	.WORD	VERB_G_APPE-.-2
                                     0006       	.LIST
                                 00000054       	.PSECT	DCL$CMDATA,BYTE,RD,NOWRT
                                     0054       VERB_G_APPE:
                                 2F  0054       	.BYTE	CLI$K_VERB_APPE
                                 22  0055       	.BYTE	2*16+2
                                 00' 0056       	.BYTE	IMG_K_COPY
                                 08' 0057       	.BYTE	QUA_G_APPE-.-1
                                 03' 0058       	.BYTE	APPE_G_PRMPT-.-1
                                 04  0059       	.BYTE	$$$
                                 01' 005A       	.BYTE	30034$-.-1
                                 FE' 005B       	.BYTE	OPI_K_SCNPRM
                                     005C       30034$:
                                     005C       APPE_G_PRMPT:
                                 00' 005C       	.BYTE	PRO_K_FROM
                                 17  005D       	.IIF NB	<BYTE>, .BYTE $$$
                                 00' 005E       	.BYTE	PRO_K_TO
CMDATBAS1       - COMMAND DATA BASE MODULE 1                     22-AUG-1978 00:56:00   VAX-11 MACRO X0.3-11               Page   6
01              DEFINE DCLS COMMANDS                                                                                             (1)

                                 10  005F       	.IIF NB	<BYTE>, .BYTE $$$
                                     0060       	.SAVE
                                 00000060       	.PSECT	DCL$CMDATA,BYTE,RD,NOWRT
                                     0060       QUA_G_APPE:
                                 05' 0060       30035$:	.BYTE	30038$-30035$
                                 00' 0061       	.BYTE	QUA_K_ALIG
                                 00  0062       	.IIF B <>,	.BYTE	0
                               5038  0063       	.WORD	$$$
                                     0065       30038$:
                                 05' 0065       30039$:	.BYTE	30042$-30039$
                                 00' 0066       	.BYTE	QUA_K_ALLO
                                 00  0067       	.IIF B <>,	.BYTE	0
                               1038  0068       	.WORD	$$$
                                     006A       30042$:
                                 05' 006A       30043$:	.BYTE	30046$-30043$
                                 00' 006B       	.BYTE	QUA_K_ZZZZ
                                 00  006C       	.IIF B <>,	.BYTE	0
                               0008  006D       	.WORD	$$$
                                     006F       30046$:
                                 05' 006F       30047$:	.BYTE	30050$-30047$
                                 00' 0070       	.BYTE	QUA_K_CONT
                                 00  0071       	.IIF B <>,	.BYTE	0
                               0058  0072       	.WORD	$$$
                                     0074       30050$:
                                 05' 0074       30051$:	.BYTE	30054$-30051$
                                 00' 0075       	.BYTE	QUA_K_ZZZZ
                                 00  0076       	.IIF B <>,	.BYTE	0
                               0008  0077       	.WORD	$$$
                                     0079       30054$:
                                 05' 0079       30055$:	.BYTE	30058$-30055$
                                 00' 007A       	.BYTE	QUA_K_EXTE
                                 00  007B       	.IIF B <>,	.BYTE	0
                               1038  007C       	.WORD	$$$
                                     007E       30058$:
                                 05' 007E       30059$:	.BYTE	30062$-30059$
                                 00' 007F       	.BYTE	QUA_K_FILE
                                 00  0080       	.IIF B <>,	.BYTE	0
                               1038  0081       	.WORD	$$$
                                     0083       30062$:
                                 05' 0083       30063$:	.BYTE	30066$-30063$
                                 00' 0084       	.BYTE	QUA_K_NEW_
                                 00  0085       	.IIF B <>,	.BYTE	0
                               0058  0086       	.WORD	$$$
                                     0088       30066$:
                                 05' 0088       30067$:	.BYTE	30070$-30067$
                                 00' 0089       	.BYTE	QUA_K_PROT
                                 00  008A       	.IIF B <>,	.BYTE	0
                               5038  008B       	.WORD	$$$
                                     008D       30070$:
                                 05' 008D       30071$:	.BYTE	30074$-30071$
                                 00' 008E       	.BYTE	QUA_K_READ
                                 00  008F       	.IIF B <>,	.BYTE	0
                               0058  0090       	.WORD	$$$
                                     0092       30074$:
                                 05' 0092       30075$:	.BYTE	30078$-30075$
                                 00' 0093       	.BYTE	QUA_K_LOG
                                 00  0094       	.IIF B <>,	.BYTE	0
CMDATBAS1       - COMMAND DATA BASE MODULE 1                     22-AUG-1978 00:56:00   VAX-11 MACRO X0.3-11               Page   7
01              DEFINE DCLS COMMANDS                                                                                             (1)

                               0048  0095       	.WORD	$$$
                                     0097       30078$:
                                 05' 0097       30079$:	.BYTE	30082$-30079$
                                 00' 0098       	.BYTE	QUA_K_WRIT
                                 00  0099       	.IIF B <>,	.BYTE	0
                               0058  009A       	.WORD	$$$
                                     009C       30082$:
                                 05' 009C       30083$:	.BYTE	30086$-30083$
                                 00' 009D       	.BYTE	QUA_K_MAXI
                                 00  009E       	.IIF B <>,	.BYTE	0
                               0058  009F       	.WORD	$$$
                                     00A1       30086$:
                           0000009C  00A1       .=$QUALBLK$
                                 00  009C       	.BYTE	0
                                 00000060       	.RESTORE
                                     0060    96
                                     0060    97 	DEFCMD	ASSI,-			; DEFINE ASSIGN COMMAND
                                     0060    98 		QUAL  =YES,-		; YES QUALIFIERS ALLOWED
                                     0060    99 		MINPRM=2,-		; MINIMUM PARAMETER COUNT
                                     0060   100 		MAXPRM=2,-		; MAXIMUM PARAMETERS ALLOWED
                                     0060   101 		DEFIMG=ASSIGN,-		; DEFAULT IMAGE OR ROUTINE NAME
                                     0060   102 		FLAGS =<>,-		; COMMAND PROCESSING FLAGS
                                     0060   103 		OUTPRS=<>,-		; OUTPUT PARSE ROUTINES
                                     0060   104 		PRMPTS=<<DEVICE,REQ>,-	; FIRST PROMPT AND FLAGS
                                     0060   105 			<LOG_NAME,REQ>,-
                                     0060   106 			>
                                     0060       	.LIST
                                 0000000C       	.PSECT	DCL$VERBTBL,BYTE,RD,NOWRT
                                 C1  000C       	.BYTE	^A/A/!$XX$
                                 53  000D       	.BYTE	^A/S/!$XX$
                                 53  000E       	.BYTE	^A/S/!$XX$
                                 49  000F       	.BYTE	^A/I/!$XX$
                                     0010       	.LIST
                                 00000006       	.PSECT	DCL$COMDPTR,BYTE,RD,NOWRT
                               0099' 0006       	.WORD	VERB_G_ASSI-.-2
                                     0008       	.LIST
                                 000000A1       	.PSECT	DCL$CMDATA,BYTE,RD,NOWRT
                                     00A1       VERB_G_ASSI:
                                 03  00A1       	.BYTE	CLI$K_VERB_ASSI
                                 22  00A2       	.BYTE	2*16+2
                                 00' 00A3       	.BYTE	IMG_K_ASSIGN
                                 06' 00A4       	.BYTE	QUA_G_ASSI-.-1
                                 01' 00A5       	.BYTE	ASSI_G_PRMPT-.-1
                                 00  00A6       	.BYTE	$$$
                                     00A7       ASSI_G_PRMPT:
                                 00' 00A7       	.BYTE	PRO_K_DEVICE
                                 10  00A8       	.IIF NB	<BYTE>, .BYTE $$$
                                 00' 00A9       	.BYTE	PRO_K_LOG_NAME
                                 10  00AA       	.IIF NB	<BYTE>, .BYTE $$$
                                     00AB       	.SAVE
                                 000000AB       	.PSECT	DCL$CMDATA,BYTE,RD,NOWRT
                                     00AB       QUA_G_ASSI:
                                 05' 00AB       30088$:	.BYTE	30091$-30088$
                                 00' 00AC       	.BYTE	QUA_K_SYST
                                 00  00AD       	.IIF B <>,	.BYTE	0
                               0008  00AE       	.WORD	$$$
                                     00B0       30091$:
CMDATBAS1       - COMMAND DATA BASE MODULE 1                     22-AUG-1978 00:56:00   VAX-11 MACRO X0.3-11               Page   8
01              DEFINE DCLS COMMANDS                                                                                             (1)

                                 05' 00B0       30092$:	.BYTE	30095$-30092$
                                 00' 00B1       	.BYTE	QUA_K_GROU
                                 00  00B2       	.IIF B <>,	.BYTE	0
                               0008  00B3       	.WORD	$$$
                                     00B5       30095$:
                                 05' 00B5       30096$:	.BYTE	30099$-30096$
                                 00' 00B6       	.BYTE	QUA_K_PROC
                                 00  00B7       	.IIF B <>,	.BYTE	0
                               0008  00B8       	.WORD	$$$
                                     00BA       30099$:
                                 05' 00BA       30100$:	.BYTE	30103$-30100$
                                 00' 00BB       	.BYTE	QUA_K_USER
                                 00  00BC       	.IIF B <>,	.BYTE	0
                               0008  00BD       	.WORD	$$$
                                     00BF       30103$:
                                 05' 00BF       30104$:	.BYTE	30107$-30104$
                                 00' 00C0       	.BYTE	QUA_K_SUPE
                                 00  00C1       	.IIF B <>,	.BYTE	0
                               0008  00C2       	.WORD	$$$
                                     00C4       30107$:
                                 06' 00C4       30108$:	.BYTE	30111$-30108$
                                 00' 00C5       	.BYTE	QUA_K_QUEU
                                 00  00C6       	.IIF B <>,	.BYTE	0
                               0408  00C7       	.WORD	$$$
                                 00' 00C9       	.BYTE	IMG_K_QUEMAN
                                     00CA       30111$:
                                 06' 00CA       30112$:	.BYTE	30115$-30112$
                                 00' 00CB       	.BYTE	QUA_K_MERG
                                 00  00CC       	.IIF B <>,	.BYTE	0
                               0408  00CD       	.WORD	$$$
                                 00' 00CF       	.BYTE	IMG_K_QUEMAN
                                     00D0       30115$:
                           000000CA  00D0       .=$QUALBLK$
                                 00  00CA       	.BYTE	0
                                 000000AB       	.RESTORE
                                     00AB   107
                                     00AB   108 	DEFCMD	BASI,-			; DEFINE BASIC COMMAND
                                     00AB   109 		QUAL  =NO,-		; NO QUALIFIERS ALLOWED
                                     00AB   110 		MINPRM=0,-		; MINIMUM PARAMETER COUNT
                                     00AB   111 		MAXPRM=1,-		; MAXIMUM PARAMETERS ALLOWED
                                     00AB   112 		PRMPTS=<<FILE,NONE>>,-	; DUMMY PROMPT STRING
                                     00AB   113 		DEFIMG=BACKTRANS	; DEFAULT IMAGE OR ROUTINE NAME
                                     00AB       	.LIST
                                 00000010       	.PSECT	DCL$VERBTBL,BYTE,RD,NOWRT
                                 C2  0010       	.BYTE	^A/B/!$XX$
                                 41  0011       	.BYTE	^A/A/!$XX$
                                 53  0012       	.BYTE	^A/S/!$XX$
                                 49  0013       	.BYTE	^A/I/!$XX$
                                     0014       	.LIST
                                 00000008       	.PSECT	DCL$COMDPTR,BYTE,RD,NOWRT
                               00C6' 0008       	.WORD	VERB_G_BASI-.-2
                                     000A       	.LIST
                                 000000D0       	.PSECT	DCL$CMDATA,BYTE,RD,NOWRT
                                     00D0       VERB_G_BASI:
                                 04  00D0       	.BYTE	CLI$K_VERB_BASI
                                 10  00D1       	.BYTE	1*16+0
                                 00' 00D2       	.BYTE	IMG_K_BACKTRANS
CMDATBAS1       - COMMAND DATA BASE MODULE 1                     22-AUG-1978 00:56:00   VAX-11 MACRO X0.3-11               Page   9
01              DEFINE DCLS COMMANDS                                                                                             (1)

                                 00  00D3       	.BYTE	0
                                 01' 00D4       	.BYTE	BASI_G_PRMPT-.-1
                                 00  00D5       	.BYTE	$$$
                                     00D6       BASI_G_PRMPT:
                                 00' 00D6       	.BYTE	PRO_K_FILE
                                 00  00D7       	.BYTE	0
                                     00D8   114
                                     00D8   115 	DEFCMD	BLIS,-			; DEFINE BLISS COMMAND
                                     00D8   116 		QUAL  =YES,-		; YES QUALIFIERS ALLOWED
                                     00D8   117 		MINPRM=1,-		; MINIMUM PARAMETER COUNT
                                     00D8   118 		MAXPRM=1,-		; MAXIMUM PARAMETERS ALLOWED
                                     00D8   119 		DEFIMG=BLISS32,-	; DEFAULT IMAGE OR ROUTINE NAME
                                     00D8   120 		FLAGS =<>,-		; COMMAND PROCESSING FLAGS
                                     00D8   121 		OUTPRS=<CLI$K_BLIS_OBJE,CLI$K_BLIS_LIST,CLI$K_BLIS_LIBR>,-
                                     00D8   122 		PRMPTS=<<FILE,<REQ,CONCAT,LIST>>,- ; FIRST PROMPT AND FLAGS
                                     00D8   123 			>
                                     00D8       	.LIST
                                 00000014       	.PSECT	DCL$VERBTBL,BYTE,RD,NOWRT
                                 C2  0014       	.BYTE	^A/B/!$XX$
                                 4C  0015       	.BYTE	^A/L/!$XX$
                                 49  0016       	.BYTE	^A/I/!$XX$
                                 53  0017       	.BYTE	^A/S/!$XX$
                                     0018       	.LIST
                                 0000000A       	.PSECT	DCL$COMDPTR,BYTE,RD,NOWRT
                               00CC' 000A       	.WORD	VERB_G_BLIS-.-2
                                     000C       	.LIST
                                 000000D8       	.PSECT	DCL$CMDATA,BYTE,RD,NOWRT
                                     00D8       VERB_G_BLIS:
                                 05  00D8       	.BYTE	CLI$K_VERB_BLIS
                                 11  00D9       	.BYTE	1*16+1
                                 00' 00DA       	.BYTE	IMG_K_BLISS32
                                 08' 00DB       	.BYTE	QUA_G_BLIS-.-1
                                 05' 00DC       	.BYTE	BLIS_G_PRMPT-.-1
                                 04  00DD       	.BYTE	$$$
                                 03' 00DE       	.BYTE	30117$-.-1
                                 02' 00DF       	.BYTE	CLI$K_BLIS_OBJE
                                 01' 00E0       	.BYTE	CLI$K_BLIS_LIST
                                 0B' 00E1       	.BYTE	CLI$K_BLIS_LIBR
                                     00E2       30117$:
                                     00E2       BLIS_G_PRMPT:
                                 00' 00E2       	.BYTE	PRO_K_FILE
                                 15  00E3       	.IIF NB	<BYTE>, .BYTE $$$
                                     00E4       	.SAVE
                                 000000E4       	.PSECT	DCL$CMDATA,BYTE,RD,NOWRT
                                     00E4       QUA_G_BLIS:
                                 05' 00E4       30118$:	.BYTE	30121$-30118$
                                 00' 00E5       	.BYTE	QUA_K_LIST
                                 00  00E6       	.IIF B <>,	.BYTE	0
                               096C  00E7       	.WORD	$$$
                                     00E9       30121$:
                                 05' 00E9       30122$:	.BYTE	30125$-30122$
                                 00' 00EA       	.BYTE	QUA_K_OBJE
                                 00  00EB       	.IIF B <>,	.BYTE	0
                               0B6C  00EC       	.WORD	$$$
                                     00EE       30125$:
                                 05' 00EE       30126$:	.BYTE	30129$-30126$
                                 00' 00EF       	.BYTE	QUA_K_CODE
CMDATBAS1       - COMMAND DATA BASE MODULE 1                     22-AUG-1978 00:56:00   VAX-11 MACRO X0.3-11               Page  10
01              DEFINE DCLS COMMANDS                                                                                             (1)

                                 00  00F0       	.IIF B <>,	.BYTE	0
                               00C8  00F1       	.WORD	$$$
                                     00F3       30129$:
                                 05' 00F3       30130$:	.BYTE	30133$-30130$
                                 00' 00F4       	.BYTE	QUA_K_DEBU
                                 00  00F5       	.IIF B <>,	.BYTE	0
                               0048  00F6       	.WORD	$$$
                                     00F8       30133$:
                                 05' 00F8       30134$:	.BYTE	30137$-30134$
                                 00' 00F9       	.BYTE	QUA_K_QUIC
                                 00  00FA       	.IIF B <>,	.BYTE	0
                               0048  00FB       	.WORD	$$$
                                     00FD       30137$:
                                 07' 00FD       30138$:	.BYTE	30141$-30138$
                                 00' 00FE       	.BYTE	QUA_K_VARI
                                 05' 00FF       	.IIF NB	<1>,	.BYTE	30139$-30138$
                               2028  0100       	.WORD	$$$
                              31 00' 0102       30139$:	.ASCIC	\1\
                                 01  0102
                                     0104       30141$:
                                 12' 0104       30142$:	.BYTE	30145$-30142$
                                 00' 0105       	.BYTE	QUA_K_TERM
                                 05' 0106       	.IIF NB	<NOSTAT,ERROR>,	.BYTE	30143$-30142$
                               40A8  0107       	.WORD	$$$
4F 52 52 45 2C 54 41 54 53 4F 4E 00' 0109       30143$:	.ASCIC	\NOSTAT,ERROR\
                                 52  0115
                                 0C  0109
                                     0116       30145$:
                                 28' 0116       30146$:	.BYTE	30149$-30146$
                                 00' 0117       	.BYTE	QUA_K_SOUR
                                 05' 0118       	.IIF NB	<SOUR,NOREQ,NOEXPAND,NOTRACE,NOLIBR>,	.BYTE	30147$-30146$
                               40A8  0119       	.WORD	$$$
2C 51 45 52 4F 4E 2C 52 55 4F 53 00' 011B       30147$:	.ASCIC	\SOUR,NOREQ,NOEXPAND,NOTRACE,NOLIBR\
54 4F 4E 2C 44 4E 41 50 58 45 4F 4E  0127
   52 42 49 4C 4F 4E 2C 45 43 41 52  0133
                                 22  011B
                                     013E       30149$:
                                 18' 013E       30150$:	.BYTE	30153$-30150$
                                 00' 013F       	.BYTE	QUA_K_OPTI
                                 05' 0140       	.IIF NB	<LEVEL=2,SPACE,SAFE>,	.BYTE	30151$-30150$
                               40A8  0141       	.WORD	$$$
41 50 53 2C 32 3D 4C 45 56 45 4C 00' 0143       30151$:	.ASCIC	\LEVEL=2,SPACE,SAFE\
               45 46 41 53 2C 45 43  014F
                                 12  0143
                                     0156       30153$:
                                 23' 0156       30154$:	.BYTE	30157$-30154$
                                 00' 0157       	.BYTE	QUA_K_MACH
                                 05' 0158       	.IIF NB	<NOASSEM,SYMBOL,COMMENT,BINARY>,	.BYTE	30155$-30154$
                               40A8  0159       	.WORD	$$$
4D 59 53 2C 4D 45 53 53 41 4F 4E 00' 015B       30155$:	.ASCIC	\NOASSEM,SYMBOL,COMMENT,BINARY\
2C 54 4E 45 4D 4D 4F 43 2C 4C 4F 42  0167
                  59 52 41 4E 49 42  0173
                                 1D  015B
                                     0179       30157$:
                                 05' 0179       30158$:	.BYTE	30161$-30158$
                                 00' 017A       	.BYTE	QUA_K_LIBR
                                 00  017B       	.IIF B <>,	.BYTE	0
CMDATBAS1       - COMMAND DATA BASE MODULE 1                     22-AUG-1978 00:56:00   VAX-11 MACRO X0.3-11               Page  11
01              DEFINE DCLS COMMANDS                                                                                             (1)

                               086C  017C       	.WORD	$$$
                                     017E       30161$:
                                 05' 017E       30162$:	.BYTE	30165$-30162$
                                 00' 017F       	.BYTE	QUA_K_TRAC
                                 00  0180       	.IIF B <>,	.BYTE	0
                               00C8  0181       	.WORD	$$$
                                     0183       30165$:
                           0000017E  0183       .=$QUALBLK$
                                 00  017E       	.BYTE	0
                                 000000E4       	.RESTORE
                                     00E4   124
                                     00E4   125 ;
                                     00E4   126 ; CONTINUE MUST BE FIRST FOR ABBREVIATION TO "C"
                                     00E4   127 ;
                                     00E4   128
                                     00E4   129 	DEFCMD	CONT,-			; DEFINE CONTINUE COMMAND
                                     00E4   130 		QUAL  =NO,-		; NO QUALIFIERS ALLOWED
                                     00E4   131 		MINPRM=0,-		; MINIMUM PARAMETER COUNT
                                     00E4   132 		MAXPRM=0,-		; MAXIMUM PARAMETERS ALLOWED
                                     00E4   133 		FLAGS=<NOSTAT,ABREV>,-	; COMMAND MAY BE ABREVIATED NON-UNIQULY
                                     00E4   134 		DEFIMG=CONTINUE		; DEFAULT IMAGE OR ROUTINE NAME
                                     00E4       	.LIST
                                 00000018       	.PSECT	DCL$VERBTBL,BYTE,RD,NOWRT
                                 C3  0018       	.BYTE	^A/C/!$XX$
                                 4F  0019       	.BYTE	^A/O/!$XX$
                                 4E  001A       	.BYTE	^A/N/!$XX$
                                 54  001B       	.BYTE	^A/T/!$XX$
                                     001C       	.LIST
                                 0000000C       	.PSECT	DCL$COMDPTR,BYTE,RD,NOWRT
                               0175' 000C       	.WORD	VERB_G_CONT-.-2
                                     000E       	.LIST
                                 00000183       	.PSECT	DCL$CMDATA,BYTE,RD,NOWRT
                                     0183       VERB_G_CONT:
                                 07  0183       	.BYTE	CLI$K_VERB_CONT
                                 00  0184       	.BYTE	0*16+0
                                 00' 0185       	.BYTE	IMG_K_CONTINUE
                                 00  0186       	.BYTE	0
                                 00  0187       	.BYTE	0
                                 28  0188       	.BYTE	$$$
                                     0189   135
                                     0189   136 	DEFCMD	CANC,-			; DEFINE CANCEL COMMAND
                                     0189   137 		QUAL  =YES,-		; YES QUALIFIERS ALLOWED
                                     0189   138 		MINPRM=0,-		; MINIMUM PARAMETER COUNT
                                     0189   139 		MAXPRM=1,-		; MAXIMUM PARAMETERS ALLOWED
                                     0189   140 		DEFIMG=CANCEL,-		; DEFAULT IMAGE OR ROUTINE NAME
                                     0189   141 		PRMPTS=<<FILE,<NONE>>,-	; DUMMY PROMPT
                                     0189   142 			>
                                     0189       	.LIST
                                 0000001C       	.PSECT	DCL$VERBTBL,BYTE,RD,NOWRT
                                 C3  001C       	.BYTE	^A/C/!$XX$
                                 41  001D       	.BYTE	^A/A/!$XX$
                                 4E  001E       	.BYTE	^A/N/!$XX$
                                 43  001F       	.BYTE	^A/C/!$XX$
                                     0020       	.LIST
                                 0000000E       	.PSECT	DCL$COMDPTR,BYTE,RD,NOWRT
                               0179' 000E       	.WORD	VERB_G_CANC-.-2
                                     0010       	.LIST
CMDATBAS1       - COMMAND DATA BASE MODULE 1                     22-AUG-1978 00:56:00   VAX-11 MACRO X0.3-11               Page  12
01              DEFINE DCLS COMMANDS                                                                                             (1)

                                 00000189       	.PSECT	DCL$CMDATA,BYTE,RD,NOWRT
                                     0189       VERB_G_CANC:
                                 33  0189       	.BYTE	CLI$K_VERB_CANC
                                 10  018A       	.BYTE	1*16+0
                                 00' 018B       	.BYTE	IMG_K_CANCEL
                                 04' 018C       	.BYTE	QUA_G_CANC-.-1
                                 01' 018D       	.BYTE	CANC_G_PRMPT-.-1
                                 00  018E       	.BYTE	$$$
                                     018F       CANC_G_PRMPT:
                                 00' 018F       	.BYTE	PRO_K_FILE
                                 00  0190       	.BYTE	0
                                     0191       	.SAVE
                                 00000191       	.PSECT	DCL$CMDATA,BYTE,RD,NOWRT
                                     0191       QUA_G_CANC:
                                 05' 0191       30168$:	.BYTE	30171$-30168$
                                 00' 0192       	.BYTE	QUA_K_IDEN
                                 00  0193       	.IIF B <>,	.BYTE	0
                               3028  0194       	.WORD	$$$
                                     0196       30171$:
                           00000191  0196       .=$QUALBLK$
                                 00  0191       	.BYTE	0
                                 00000191       	.RESTORE
                                     0191   143
                                     0191   144 	DEFCMD	CLOS,-			; DEFINE CLOSE FILE COMMAND
                                     0191   145 		QUAL	=YES,-		; QUALIFIERS ALLOWED
                                     0191   146 		MINPRM	=1,-		; MINIMUM PARAMETER COUNT
                                     0191   147 		MAXPRM	=1,-		; MAXIMUM PARAMETER COUNT
                                     0191   148 		DEFIMG	=CLOSE,-	; DEFAULT IMAGE OR ROUTINE NAME
                                     0191   149 		PRMPTS	=<<LOG_NAME,REQ>> ; FIRST PROMPT AND FLAGS
                                     0191       	.LIST
                                 00000020       	.PSECT	DCL$VERBTBL,BYTE,RD,NOWRT
                                 C3  0020       	.BYTE	^A/C/!$XX$
                                 4C  0021       	.BYTE	^A/L/!$XX$
                                 4F  0022       	.BYTE	^A/O/!$XX$
                                 53  0023       	.BYTE	^A/S/!$XX$
                                     0024       	.LIST
                                 00000010       	.PSECT	DCL$COMDPTR,BYTE,RD,NOWRT
                               0184' 0010       	.WORD	VERB_G_CLOS-.-2
                                     0012       	.LIST
                                 00000196       	.PSECT	DCL$CMDATA,BYTE,RD,NOWRT
                                     0196       VERB_G_CLOS:
                                 00  0196       	.BYTE	0
                                 11  0197       	.BYTE	1*16+1
                                 00' 0198       	.BYTE	IMG_K_CLOSE
                                 04' 0199       	.BYTE	QUA_G_CLOS-.-1
                                 01' 019A       	.BYTE	CLOS_G_PRMPT-.-1
                                 00  019B       	.BYTE	$$$
                                     019C       CLOS_G_PRMPT:
                                 00' 019C       	.BYTE	PRO_K_LOG_NAME
                                 10  019D       	.IIF NB	<BYTE>, .BYTE $$$
                                     019E       	.SAVE
                                 0000019E       	.PSECT	DCL$CMDATA,BYTE,RD,NOWRT
                                     019E       QUA_G_CLOS:
                                 05' 019E       30173$:	.BYTE	30176$-30173$
                                 00' 019F       	.BYTE	QUA_K_END_
                                 00  01A0       	.IIF B <>,	.BYTE	0
                               1028  01A1       	.WORD	$$$
CMDATBAS1       - COMMAND DATA BASE MODULE 1                     22-AUG-1978 00:56:00   VAX-11 MACRO X0.3-11               Page  13
01              DEFINE DCLS COMMANDS                                                                                             (1)

                                     01A3       30176$:
                                 05' 01A3       30177$:	.BYTE	30180$-30177$
                                 00' 01A4       	.BYTE	QUA_K_ERRO
                                 00  01A5       	.IIF B <>,	.BYTE	0
                               1028  01A6       	.WORD	$$$
                                     01A8       30180$:
                           000001A3  01A8       .=$QUALBLK$
                                 00  01A3       	.BYTE	0
                                 0000019E       	.RESTORE
                                     019E   150
                                     019E   151 	DEFCMD	COBO,-			; DEFINE COBOL COMMAND
                                     019E   152 		QUAL  =YES,-		; YES QUALIFIERS ALLOWED
                                     019E   153 		MINPRM=1,-		; MINIMUM PARAMETER COUNT
                                     019E   154 		MAXPRM=1,-		; MAXIMUM PARAMETERS ALLOWED
                                     019E   155 		DEFIMG=COBOL,-		; DEFAULT IMAGE OR ROUTINE NAME
                                     019E   156 		OUTPRS=<CLI$K_COBO_OBJE,CLI$K_COBO_LIST>,- ; OUTPUT PARSE ROUTINES
                                     019E   157 		PRMPTS=<<FILE,<REQ,CONCAT,LIST>>,- ; FIRST PROMPT AND FLAGS
                                     019E   158 			>
                                     019E       	.LIST
                                 00000024       	.PSECT	DCL$VERBTBL,BYTE,RD,NOWRT
                                 C3  0024       	.BYTE	^A/C/!$XX$
                                 4F  0025       	.BYTE	^A/O/!$XX$
                                 42  0026       	.BYTE	^A/B/!$XX$
                                 4F  0027       	.BYTE	^A/O/!$XX$
                                     0028       	.LIST
                                 00000012       	.PSECT	DCL$COMDPTR,BYTE,RD,NOWRT
                               0194' 0012       	.WORD	VERB_G_COBO-.-2
                                     0014       	.LIST
                                 000001A8       	.PSECT	DCL$CMDATA,BYTE,RD,NOWRT
                                     01A8       VERB_G_COBO:
                                 06  01A8       	.BYTE	CLI$K_VERB_COBO
                                 11  01A9       	.BYTE	1*16+1
                                 00' 01AA       	.BYTE	IMG_K_COBOL
                                 07' 01AB       	.BYTE	QUA_G_COBO-.-1
                                 04' 01AC       	.BYTE	COBO_G_PRMPT-.-1
                                 04  01AD       	.BYTE	$$$
                                 02' 01AE       	.BYTE	30181$-.-1
                                 02' 01AF       	.BYTE	CLI$K_COBO_OBJE
                                 01' 01B0       	.BYTE	CLI$K_COBO_LIST
                                     01B1       30181$:
                                     01B1       COBO_G_PRMPT:
                                 00' 01B1       	.BYTE	PRO_K_FILE
                                 15  01B2       	.IIF NB	<BYTE>, .BYTE $$$
                                     01B3       	.SAVE
                                 000001B3       	.PSECT	DCL$CMDATA,BYTE,RD,NOWRT
                                     01B3       QUA_G_COBO:
                                 05' 01B3       30182$:	.BYTE	30185$-30182$
                                 00' 01B4       	.BYTE	QUA_K_LIST
                                 00  01B5       	.IIF B <>,	.BYTE	0
                               096C  01B6       	.WORD	$$$
                                     01B8       30185$:
                                 05' 01B8       30186$:	.BYTE	30189$-30186$
                                 00' 01B9       	.BYTE	QUA_K_OBJE
                                 00  01BA       	.IIF B <>,	.BYTE	0
                               0B6C  01BB       	.WORD	$$$
                                     01BD       30189$:
                                 06' 01BD       30190$:	.BYTE	30193$-30190$
CMDATBAS1       - COMMAND DATA BASE MODULE 1                     22-AUG-1978 00:56:00   VAX-11 MACRO X0.3-11               Page  14
01              DEFINE DCLS COMMANDS                                                                                             (1)

                                 00' 01BE       	.BYTE	QUA_K_RSX1
                                 00  01BF       	.IIF B <>,	.BYTE	0
                               0408  01C0       	.WORD	$$$
                                 00' 01C2       	.BYTE	IMG_K_BACKTRANS
                                     01C3       30193$:
                                 05' 01C3       30194$:	.BYTE	30197$-30194$
                                 00' 01C4       	.BYTE	QUA_K_MAP
                                 00  01C5       	.IIF B <>,	.BYTE	0
                               0048  01C6       	.WORD	$$$
                                     01C8       30197$:
                                 05' 01C8       30198$:	.BYTE	30201$-30198$
                                 00' 01C9       	.BYTE	QUA_K_CROS
                                 00  01CA       	.IIF B <>,	.BYTE	0
                               0068  01CB       	.WORD	$$$
                                     01CD       30201$:
                                 05' 01CD       30202$:	.BYTE	30205$-30202$
                                 00' 01CE       	.BYTE	QUA_K_ANSI
                                 00  01CF       	.IIF B <>,	.BYTE	0
                               0048  01D0       	.WORD	$$$
                                     01D2       30205$:
                                 05' 01D2       30206$:	.BYTE	30209$-30206$
                                 00' 01D3       	.BYTE	QUA_K_COPY
                                 00  01D4       	.IIF B <>,	.BYTE	0
                               0048  01D5       	.WORD	$$$
                                     01D7       30209$:
                                 05' 01D7       30210$:	.BYTE	30213$-30210$
                                 00' 01D8       	.BYTE	QUA_K_WARN
                                 00  01D9       	.IIF B <>,	.BYTE	0
                               0068  01DA       	.WORD	$$$
                                     01DC       30213$:
                                 05' 01DC       30214$:	.BYTE	30217$-30214$
                                 00' 01DD       	.BYTE	QUA_K_NEST
                                 00  01DE       	.IIF B <>,	.BYTE	0
                               3028  01DF       	.WORD	$$$
                                     01E1       30217$:
                                 05' 01E1       30218$:	.BYTE	30221$-30218$
                                 00' 01E2       	.BYTE	QUA_K_VERB
                                 00  01E3       	.IIF B <>,	.BYTE	0
                               0048  01E4       	.WORD	$$$
                                     01E6       30221$:
                                 05' 01E6       30222$:	.BYTE	30225$-30222$
                                 00' 01E7       	.BYTE	QUA_K_NAME
                                 00  01E8       	.IIF B <>,	.BYTE	0
                               3028  01E9       	.WORD	$$$
                                     01EB       30225$:
                                 05' 01EB       30226$:	.BYTE	30229$-30226$
                                 00' 01EC       	.BYTE	QUA_K_SEGM
                                 00  01ED       	.IIF B <>,	.BYTE	0
                               3028  01EE       	.WORD	$$$
                                     01F0       30229$:
                                 05' 01F0       30230$:	.BYTE	30233$-30230$
                                 00' 01F1       	.BYTE	QUA_K_OVER
                                 00  01F2       	.IIF B <>,	.BYTE	0
                               0048  01F3       	.WORD	$$$
                                     01F5       30233$:
                                 09' 01F5       30234$:	.BYTE	30237$-30234$
                                 05' 01F6       	.BYTE	<30236$-30234$>
CMDATBAS1       - COMMAND DATA BASE MODULE 1                     22-AUG-1978 00:56:00   VAX-11 MACRO X0.3-11               Page  15
01              DEFINE DCLS COMMANDS                                                                                             (1)

                                 00  01F7       	.IIF B <>,	.BYTE	0
                               000A  01F8       	.WORD	$$$
                           34 37 43  01FA       30236$:	.ASCII	\C74\
                                 20  01FD       	.ASCII	% %
                                     01FE       30237$:
                                 09' 01FE       30238$:	.BYTE	30241$-30238$
                                 05' 01FF       	.BYTE	<30240$-30238$>
                                 00  0200       	.IIF B <>,	.BYTE	0
                               000A  0201       	.WORD	$$$
                           39 37 43  0203       30240$:	.ASCII	\C79\
                                 20  0206       	.ASCII	% %
                                     0207       30241$:
                                 05' 0207       30242$:	.BYTE	30245$-30242$
                                 00' 0208       	.BYTE	QUA_K_MACH
                                 00  0209       	.IIF B <>,	.BYTE	0
                               0048  020A       	.WORD	$$$
                                     020C       30245$:
                                 05' 020C       30246$:	.BYTE	30249$-30246$
                                 00' 020D       	.BYTE	QUA_K_DATA
                                 00  020E       	.IIF B <>,	.BYTE	0
                               0048  020F       	.WORD	$$$
                                     0211       30249$:
                                 05' 0211       30250$:	.BYTE	30253$-30250$
                                 00' 0212       	.BYTE	QUA_K_PROC
                                 00  0213       	.IIF B <>,	.BYTE	0
                               0048  0214       	.WORD	$$$
                                     0216       30253$:
                                 05' 0216       30254$:	.BYTE	30257$-30254$
                                 00' 0217       	.BYTE	QUA_K_WIDT
                                 00  0218       	.IIF B <>,	.BYTE	0
                               3028  0219       	.WORD	$$$
                                     021B       30257$:
                                 05' 021B       30258$:	.BYTE	30261$-30258$
                                 00' 021C       	.BYTE	QUA_K_TRUN
                                 00  021D       	.IIF B <>,	.BYTE	0
                               0048  021E       	.WORD	$$$
                                     0220       30261$:
                                 05' 0220       30262$:	.BYTE	30265$-30262$
                                 00' 0221       	.BYTE	QUA_K_SEQU
                                 00  0222       	.IIF B <>,	.BYTE	0
                               0048  0223       	.WORD	$$$
                                     0225       30265$:
                                 05' 0225       30266$:	.BYTE	30269$-30266$
                                 00' 0226       	.BYTE	QUA_K_COND
                                 00  0227       	.IIF B <>,	.BYTE	0
                               0068  0228       	.WORD	$$$
                                     022A       30269$:
                                 05' 022A       30270$:	.BYTE	30273$-30270$
                                 00' 022B       	.BYTE	QUA_K_DEBU
                                 00  022C       	.IIF B <>,	.BYTE	0
                               0068  022D       	.WORD	$$$
                                     022F       30273$:
                                 05' 022F       30274$:	.BYTE	30277$-30274$
                                 00' 0230       	.BYTE	QUA_K_CHEC
                                 00  0231       	.IIF B <>,	.BYTE	0
                               0068  0232       	.WORD	$$$
                                     0234       30277$:
CMDATBAS1       - COMMAND DATA BASE MODULE 1                     22-AUG-1978 00:56:00   VAX-11 MACRO X0.3-11               Page  16
01              DEFINE DCLS COMMANDS                                                                                             (1)

                                 05' 0234       30278$:	.BYTE	30281$-30278$
                                 00' 0235       	.BYTE	QUA_K_TERM
                                 00  0236       	.IIF B <>,	.BYTE	0
                               0028  0237       	.WORD	$$$
                                     0239       30281$:
                           00000234  0239       .=$QUALBLK$
                                 00  0234       	.BYTE	0
                                 000001B3       	.RESTORE
                                     01B3   159
                                     01B3   160 	DEFCMD	COPY,-			; DEFINE COPY COMMAND
                                     01B3   161 		QUAL  =YES,-		; YES QUALIFIERS ALLOWED
                                     01B3   162 		MINPRM=2,-		; MINIMUM PARAMETER COUNT
                                     01B3   163 		MAXPRM=2,-		; MAXIMUM PARAMETERS ALLOWED
                                     01B3   164 		DEFIMG=COPY,-		; DEFAULT IMAGE OR ROUTINE NAME
                                     01B3   165 		OUTPRS=OPI_K_SCNPRM,-	; OUTPUT PARSE ROUTINES
                                     01B3   166 		PRMPTS=<<FROM,<REQ,CONCAT,LIST,IMPCAT>>,-
                                     01B3   167 			<TO,REQ>,-
                                     01B3   168 			>
                                     01B3       	.LIST
                                 00000028       	.PSECT	DCL$VERBTBL,BYTE,RD,NOWRT
                                 C3  0028       	.BYTE	^A/C/!$XX$
                                 4F  0029       	.BYTE	^A/O/!$XX$
                                 50  002A       	.BYTE	^A/P/!$XX$
                                 59  002B       	.BYTE	^A/Y/!$XX$
                                     002C       	.LIST
                                 00000014       	.PSECT	DCL$COMDPTR,BYTE,RD,NOWRT
                               0223' 0014       	.WORD	VERB_G_COPY-.-2
                                     0016       	.LIST
                                 00000239       	.PSECT	DCL$CMDATA,BYTE,RD,NOWRT
                                     0239       VERB_G_COPY:
                                 08  0239       	.BYTE	CLI$K_VERB_COPY
                                 22  023A       	.BYTE	2*16+2
                                 00' 023B       	.BYTE	IMG_K_COPY
                                 08' 023C       	.BYTE	QUA_G_COPY-.-1
                                 03' 023D       	.BYTE	COPY_G_PRMPT-.-1
                                 04  023E       	.BYTE	$$$
                                 01' 023F       	.BYTE	30282$-.-1
                                 FE' 0240       	.BYTE	OPI_K_SCNPRM
                                     0241       30282$:
                                     0241       COPY_G_PRMPT:
                                 00' 0241       	.BYTE	PRO_K_FROM
                                 17  0242       	.IIF NB	<BYTE>, .BYTE $$$
                                 00' 0243       	.BYTE	PRO_K_TO
                                 10  0244       	.IIF NB	<BYTE>, .BYTE $$$
                                     0245       	.SAVE
                                 00000245       	.PSECT	DCL$CMDATA,BYTE,RD,NOWRT
                                     0245       QUA_G_COPY:
                                 05' 0245       30283$:	.BYTE	30286$-30283$
                                 00' 0246       	.BYTE	QUA_K_ALIG
                                 00  0247       	.IIF B <>,	.BYTE	0
                               5038  0248       	.WORD	$$$
                                     024A       30286$:
                                 05' 024A       30287$:	.BYTE	30290$-30287$
                                 00' 024B       	.BYTE	QUA_K_ALLO
                                 00  024C       	.IIF B <>,	.BYTE	0
                               1038  024D       	.WORD	$$$
                                     024F       30290$:
CMDATBAS1       - COMMAND DATA BASE MODULE 1                     22-AUG-1978 00:56:00   VAX-11 MACRO X0.3-11               Page  17
01              DEFINE DCLS COMMANDS                                                                                             (1)

                                 05' 024F       30291$:	.BYTE	30294$-30291$
                                 00' 0250       	.BYTE	QUA_K_ZZZZ
                                 00  0251       	.IIF B <>,	.BYTE	0
                               0008  0252       	.WORD	$$$
                                     0254       30294$:
                                 05' 0254       30295$:	.BYTE	30298$-30295$
                                 00' 0255       	.BYTE	QUA_K_CONC
                                 00  0256       	.IIF B <>,	.BYTE	0
                               00C8  0257       	.WORD	$$$
                                     0259       30298$:
                                 05' 0259       30299$:	.BYTE	30302$-30299$
                                 00' 025A       	.BYTE	QUA_K_CONT
                                 00  025B       	.IIF B <>,	.BYTE	0
                               0058  025C       	.WORD	$$$
                                     025E       30302$:
                                 05' 025E       30303$:	.BYTE	30306$-30303$
                                 00' 025F       	.BYTE	QUA_K_ZZZZ
                                 00  0260       	.IIF B <>,	.BYTE	0
                               0008  0261       	.WORD	$$$
                                     0263       30306$:
                                 05' 0263       30307$:	.BYTE	30310$-30307$
                                 00' 0264       	.BYTE	QUA_K_EXTE
                                 00  0265       	.IIF B <>,	.BYTE	0
                               1038  0266       	.WORD	$$$
                                     0268       30310$:
                                 05' 0268       30311$:	.BYTE	30314$-30311$
                                 00' 0269       	.BYTE	QUA_K_FILE
                                 00  026A       	.IIF B <>,	.BYTE	0
                               1038  026B       	.WORD	$$$
                                     026D       30314$:
                                 05' 026D       30315$:	.BYTE	30318$-30315$
                                 00' 026E       	.BYTE	QUA_K_ZZZZ
                                 00  026F       	.IIF B <>,	.BYTE	0
                               0008  0270       	.WORD	$$$
                                     0272       30318$:
                                 05' 0272       30319$:	.BYTE	30322$-30319$
                                 00' 0273       	.BYTE	QUA_K_OVER
                                 00  0274       	.IIF B <>,	.BYTE	0
                               0058  0275       	.WORD	$$$
                                     0277       30322$:
                                 05' 0277       30323$:	.BYTE	30326$-30323$
                                 00' 0278       	.BYTE	QUA_K_PROT
                                 00  0279       	.IIF B <>,	.BYTE	0
                               5038  027A       	.WORD	$$$
                                     027C       30326$:
                                 05' 027C       30327$:	.BYTE	30330$-30327$
                                 00' 027D       	.BYTE	QUA_K_READ
                                 00  027E       	.IIF B <>,	.BYTE	0
                               0058  027F       	.WORD	$$$
                                     0281       30330$:
                                 05' 0281       30331$:	.BYTE	30334$-30331$
                                 00' 0282       	.BYTE	QUA_K_REPL
                                 00  0283       	.IIF B <>,	.BYTE	0
                               0058  0284       	.WORD	$$$
                                     0286       30334$:
                                 05' 0286       30335$:	.BYTE	30338$-30335$
                                 00' 0287       	.BYTE	QUA_K_LOG
CMDATBAS1       - COMMAND DATA BASE MODULE 1                     22-AUG-1978 00:56:00   VAX-11 MACRO X0.3-11               Page  18
01              DEFINE DCLS COMMANDS                                                                                             (1)

                                 00  0288       	.IIF B <>,	.BYTE	0
                               0048  0289       	.WORD	$$$
                                     028B       30338$:
                                 05' 028B       30339$:	.BYTE	30342$-30339$
                                 00' 028C       	.BYTE	QUA_K_ZZZZ
                                 00  028D       	.IIF B <>,	.BYTE	0
                               0008  028E       	.WORD	$$$
                                     0290       30342$:
                                 05' 0290       30343$:	.BYTE	30346$-30343$
                                 00' 0291       	.BYTE	QUA_K_WRIT
                                 00  0292       	.IIF B <>,	.BYTE	0
                               0058  0293       	.WORD	$$$
                                     0295       30346$:
                                 05' 0295       30347$:	.BYTE	30350$-30347$
                                 00' 0296       	.BYTE	QUA_K_TRUN
                                 00  0297       	.IIF B <>,	.BYTE	0
                               0058  0298       	.WORD	$$$
                                     029A       30350$:
                                 05' 029A       30351$:	.BYTE	30354$-30351$
                                 00' 029B       	.BYTE	QUA_K_ZZZZ
                                 00  029C       	.IIF B <>,	.BYTE	0
                               0008  029D       	.WORD	$$$
                                     029F       30354$:
                                 05' 029F       30355$:	.BYTE	30358$-30355$
                                 00' 02A0       	.BYTE	QUA_K_ZZZZ
                                 00  02A1       	.IIF B <>,	.BYTE	0
                               0008  02A2       	.WORD	$$$
                                     02A4       30358$:
                                 0D' 02A4       30359$:	.BYTE	30362$-30359$
                                 00' 02A5       	.BYTE	QUA_K_RSX1
                                 00  02A6       	.IIF B <>,	.BYTE	0
                               0409  02A7       	.WORD	$$$
                                 00' 02A9       	.BYTE	IMG_K_BACKTRANS
                               0000  02AA       	.WORD	0
                                 22  02AC       	.BYTE	2*16+2
                                 00' 02AD       	.BYTE	PRO_K_FROM
                                 17  02AE       	.IIF NB	<BYTE>, .BYTE $$$
                                 00' 02AF       	.BYTE	PRO_K_TO
                                 10  02B0       	.IIF NB	<BYTE>, .BYTE $$$
                                     02B1       30362$:
                                 05' 02B1       30364$:	.BYTE	30367$-30364$
                                 00' 02B2       	.BYTE	QUA_K_NEW_
                                 00  02B3       	.IIF B <>,	.BYTE	0
                               0008  02B4       	.WORD	$$$
                                     02B6       30367$:
                           000002B1  02B6       .=$QUALBLK$
                                 00  02B1       	.BYTE	0
                                 00000245       	.RESTORE
                                     0245   169
                                     0245   170 	DEFCMD	CREA,-			; DEFINE CREATE COMMAND
                                     0245   171 		QUAL  =YES,-		; YES QUALIFIERS ALLOWED
                                     0245   172 		MINPRM=1,-		; MINIMUM PARAMETER COUNT
                                     0245   173 		MAXPRM=1,-		; MAXIMUM PARAMETERS ALLOWED
                                     0245   174 		DEFIMG=BACKTRANS,-	; DEFAULT IMAGE OR ROUTINE NAME
                                     0245   175 		FLAGS =<>,-		; COMMAND PROCESSING FLAGS
                                     0245   176 		PRMPTS=<<FILE,REQ>,-	; FIRST PROMPT AND FLAGS
                                     0245   177 			>
CMDATBAS1       - COMMAND DATA BASE MODULE 1                     22-AUG-1978 00:56:00   VAX-11 MACRO X0.3-11               Page  19
01              DEFINE DCLS COMMANDS                                                                                             (1)

                                     0245       	.LIST
                                 0000002C       	.PSECT	DCL$VERBTBL,BYTE,RD,NOWRT
                                 C3  002C       	.BYTE	^A/C/!$XX$
                                 52  002D       	.BYTE	^A/R/!$XX$
                                 45  002E       	.BYTE	^A/E/!$XX$
                                 41  002F       	.BYTE	^A/A/!$XX$
                                     0030       	.LIST
                                 00000016       	.PSECT	DCL$COMDPTR,BYTE,RD,NOWRT
                               029E' 0016       	.WORD	VERB_G_CREA-.-2
                                     0018       	.LIST
                                 000002B6       	.PSECT	DCL$CMDATA,BYTE,RD,NOWRT
                                     02B6       VERB_G_CREA:
                                 09  02B6       	.BYTE	CLI$K_VERB_CREA
                                 11  02B7       	.BYTE	1*16+1
                                 00' 02B8       	.BYTE	IMG_K_BACKTRANS
                                 04' 02B9       	.BYTE	QUA_G_CREA-.-1
                                 01' 02BA       	.BYTE	CREA_G_PRMPT-.-1
                                 00  02BB       	.BYTE	$$$
                                     02BC       CREA_G_PRMPT:
                                 00' 02BC       	.BYTE	PRO_K_FILE
                                 10  02BD       	.IIF NB	<BYTE>, .BYTE $$$
                                     02BE       	.SAVE
                                 000002BE       	.PSECT	DCL$CMDATA,BYTE,RD,NOWRT
                                     02BE       QUA_G_CREA:
                                 05' 02BE       30369$:	.BYTE	30372$-30369$
                                 00' 02BF       	.BYTE	QUA_K_DIRE
                                 00  02C0       	.IIF B <>,	.BYTE	0
                               0008  02C1       	.WORD	$$$
                                     02C3       30372$:
                                 05' 02C3       30373$:	.BYTE	30376$-30373$
                                 00' 02C4       	.BYTE	QUA_K_OWNE
                                 00  02C5       	.IIF B <>,	.BYTE	0
                               102C  02C6       	.WORD	$$$
                                     02C8       30376$:
                                 05' 02C8       30377$:	.BYTE	30380$-30377$
                                 00' 02C9       	.BYTE	QUA_K_PROT
                                 00  02CA       	.IIF B <>,	.BYTE	0
                               5028  02CB       	.WORD	$$$
                                     02CD       30380$:
                           000002C8  02CD       .=$QUALBLK$
                                 00  02C8       	.BYTE	0
                                 000002BE       	.RESTORE
                                     02BE   178
                                     02BE   179 ;
                                     02BE   180 ; DEPOSIT COMMAND MUST BE FIRST SINCE IF MAY BE ABBREVIATED "D"
                                     02BE   181 ;
                                     02BE   182
                                     02BE   183 	DEFCMD	DEPO,-			; DEFINE DEPOSIT COMMAND
                                     02BE   184 		QUAL  =YES,-		; YES QUALIFIERS ALLOWED
                                     02BE   185 		MINPRM=0,-		; MINIMUM PARAMETER COUNT
                                     02BE   186 		MAXPRM=0,-		; MAXIMUM PARAMETERS ALLOWED
                                     02BE   187 		DEFIMG=DEPOSIT,-	; DEFAULT IMAGE OR ROUTINE NAME
                                     02BE   188 		QUALST=EXAM,-		; USE EXAMINE QUALIFIER LIST
                                     02BE   189 		FLAGS =<IMMED,ABREV,NOSTAT> ; COMMAND PROCESSING FLAGS
                                     02BE       	.LIST
                                 00000030       	.PSECT	DCL$VERBTBL,BYTE,RD,NOWRT
                                 C4  0030       	.BYTE	^A/D/!$XX$
CMDATBAS1       - COMMAND DATA BASE MODULE 1                     22-AUG-1978 00:56:00   VAX-11 MACRO X0.3-11               Page  20
01              DEFINE DCLS COMMANDS                                                                                             (1)

                                 45  0031       	.BYTE	^A/E/!$XX$
                                 50  0032       	.BYTE	^A/P/!$XX$
                                 4F  0033       	.BYTE	^A/O/!$XX$
                                     0034       	.LIST
                                 00000018       	.PSECT	DCL$COMDPTR,BYTE,RD,NOWRT
                               02B3' 0018       	.WORD	VERB_G_DEPO-.-2
                                     001A       	.LIST
                                 000002CD       	.PSECT	DCL$CMDATA,BYTE,RD,NOWRT
                                     02CD       VERB_G_DEPO:
                                 10  02CD       	.BYTE	CLI$K_VERB_DEPO
                                 00  02CE       	.BYTE	0*16+0
                                 00' 02CF       	.BYTE	IMG_K_DEPOSIT
                                 02' 02D0       	.BYTE	QUA_G_DEPO-.-1
                                 00  02D1       	.BYTE	0
                                 3A  02D2       	.BYTE	$$$
                                     02D3       QUA_G_DEPO:
                               01C2' 02D3       	.WORD	DCL$G_EXAMQUALS-.
                                     02D5   190
                                     02D5   191 	DEFCMD	DEAL,-			; DEFINE DEALLOCATE COMMAND
                                     02D5   192 		QUAL  =YES,-		; YES QUALIFIERS ALLOWED
                                     02D5   193 		MINPRM=1,-		; MINIMUM PARAMETER COUNT
                                     02D5   194 		MAXPRM=1,-		; MAXIMUM PARAMETERS ALLOWED
                                     02D5   195 		DEFIMG=DEALLOCAT,-	; DEFAULT IMAGE OR ROUTINE NAME
                                     02D5   196 		PRMPTS=<<DEVICE,REQ>,-	; FIRST PROMPT AND FLAGS
                                     02D5   197 			>
                                     02D5       	.LIST
                                 00000034       	.PSECT	DCL$VERBTBL,BYTE,RD,NOWRT
                                 C4  0034       	.BYTE	^A/D/!$XX$
                                 45  0035       	.BYTE	^A/E/!$XX$
                                 41  0036       	.BYTE	^A/A/!$XX$
                                 4C  0037       	.BYTE	^A/L/!$XX$
                                     0038       	.LIST
                                 0000001A       	.PSECT	DCL$COMDPTR,BYTE,RD,NOWRT
                               02B9' 001A       	.WORD	VERB_G_DEAL-.-2
                                     001C       	.LIST
                                 000002D5       	.PSECT	DCL$CMDATA,BYTE,RD,NOWRT
                                     02D5       VERB_G_DEAL:
                                 0B  02D5       	.BYTE	CLI$K_VERB_DEAL
                                 11  02D6       	.BYTE	1*16+1
                                 00' 02D7       	.BYTE	IMG_K_DEALLOCAT
                                 04' 02D8       	.BYTE	QUA_G_DEAL-.-1
                                 01' 02D9       	.BYTE	DEAL_G_PRMPT-.-1
                                 00  02DA       	.BYTE	$$$
                                     02DB       DEAL_G_PRMPT:
                                 00' 02DB       	.BYTE	PRO_K_DEVICE
                                 10  02DC       	.IIF NB	<BYTE>, .BYTE $$$
                                     02DD       	.SAVE
                                 000002DD       	.PSECT	DCL$CMDATA,BYTE,RD,NOWRT
                                     02DD       QUA_G_DEAL:
                                 09' 02DD       30383$:	.BYTE	30386$-30383$
                                 00' 02DE       	.BYTE	QUA_K_ALL
                                 00  02DF       	.IIF B <>,	.BYTE	0
                               0409  02E0       	.WORD	$$$
                                 00' 02E2       	.BYTE	IMG_K_DEALLOCAT
                               0000  02E3       	.WORD	0
                                 00  02E5       	.BYTE	0*16+0
                                     02E6       30386$:
CMDATBAS1       - COMMAND DATA BASE MODULE 1                     22-AUG-1978 00:56:00   VAX-11 MACRO X0.3-11               Page  21
01              DEFINE DCLS COMMANDS                                                                                             (1)

                           000002DD  02E6       .=$QUALBLK$
                                 00  02DD       	.BYTE	0
                                 000002DD       	.RESTORE
                                     02DD   198
                                     02DD   199 	DEFCMD	DEAS,-			; DEFINE DEASSIGN COMMAND
                                     02DD   200 		QUAL  =YES,-		; YES QUALIFIERS ALLOWED
                                     02DD   201 		MINPRM=1,-		; MINIMUM PARAMETER COUNT
                                     02DD   202 		MAXPRM=1,-		; MAXIMUM PARAMETERS ALLOWED
                                     02DD   203 		DEFIMG=DEASSIGN,-	; DEFAULT IMAGE OR ROUTINE NAME
                                     02DD   204 		PRMPTS=<<LOG_NAME,REQ>,-	; FIRST PROMPT AND FLAGS
                                     02DD   205 			>
                                     02DD       	.LIST
                                 00000038       	.PSECT	DCL$VERBTBL,BYTE,RD,NOWRT
                                 C4  0038       	.BYTE	^A/D/!$XX$
                                 45  0039       	.BYTE	^A/E/!$XX$
                                 41  003A       	.BYTE	^A/A/!$XX$
                                 53  003B       	.BYTE	^A/S/!$XX$
                                     003C       	.LIST
                                 0000001C       	.PSECT	DCL$COMDPTR,BYTE,RD,NOWRT
                               02C8' 001C       	.WORD	VERB_G_DEAS-.-2
                                     001E       	.LIST
                                 000002E6       	.PSECT	DCL$CMDATA,BYTE,RD,NOWRT
                                     02E6       VERB_G_DEAS:
                                 0C  02E6       	.BYTE	CLI$K_VERB_DEAS
                                 11  02E7       	.BYTE	1*16+1
                                 00' 02E8       	.BYTE	IMG_K_DEASSIGN
                                 04' 02E9       	.BYTE	QUA_G_DEAS-.-1
                                 01' 02EA       	.BYTE	DEAS_G_PRMPT-.-1
                                 00  02EB       	.BYTE	$$$
                                     02EC       DEAS_G_PRMPT:
                                 00' 02EC       	.BYTE	PRO_K_LOG_NAME
                                 10  02ED       	.IIF NB	<BYTE>, .BYTE $$$
                                     02EE       	.SAVE
                                 000002EE       	.PSECT	DCL$CMDATA,BYTE,RD,NOWRT
                                     02EE       QUA_G_DEAS:
                                 05' 02EE       30389$:	.BYTE	30392$-30389$
                                 00' 02EF       	.BYTE	QUA_K_SYST
                                 00  02F0       	.IIF B <>,	.BYTE	0
                               0008  02F1       	.WORD	$$$
                                     02F3       30392$:
                                 05' 02F3       30393$:	.BYTE	30396$-30393$
                                 00' 02F4       	.BYTE	QUA_K_GROU
                                 00  02F5       	.IIF B <>,	.BYTE	0
                               0008  02F6       	.WORD	$$$
                                     02F8       30396$:
                                 05' 02F8       30397$:	.BYTE	30400$-30397$
                                 00' 02F9       	.BYTE	QUA_K_PROC
                                 00  02FA       	.IIF B <>,	.BYTE	0
                               0008  02FB       	.WORD	$$$
                                     02FD       30400$:
                                 09' 02FD       30401$:	.BYTE	30404$-30401$
                                 00' 02FE       	.BYTE	QUA_K_ALL
                                 00  02FF       	.IIF B <>,	.BYTE	0
                               0409  0300       	.WORD	$$$
                                 00' 0302       	.BYTE	IMG_K_DEASSIGN
                               0000  0303       	.WORD	0
                                 00  0305       	.BYTE	0*16+0
CMDATBAS1       - COMMAND DATA BASE MODULE 1                     22-AUG-1978 00:56:00   VAX-11 MACRO X0.3-11               Page  22
01              DEFINE DCLS COMMANDS                                                                                             (1)

                                     0306       30404$:
                                 05' 0306       30406$:	.BYTE	30409$-30406$
                                 00' 0307       	.BYTE	QUA_K_USER
                                 00  0308       	.IIF B <>,	.BYTE	0
                               0008  0309       	.WORD	$$$
                                     030B       30409$:
                                 05' 030B       30410$:	.BYTE	30413$-30410$
                                 00' 030C       	.BYTE	QUA_K_SUPE
                                 00  030D       	.IIF B <>,	.BYTE	0
                               0008  030E       	.WORD	$$$
                                     0310       30413$:
                                 06' 0310       30414$:	.BYTE	30417$-30414$
                                 00' 0311       	.BYTE	QUA_K_QUEU
                                 00  0312       	.IIF B <>,	.BYTE	0
                               0408  0313       	.WORD	$$$
                                 00' 0315       	.BYTE	IMG_K_QUEMAN
                                     0316       30417$:
                           00000310  0316       .=$QUALBLK$
                                 00  0310       	.BYTE	0
                                 000002EE       	.RESTORE
                                     02EE   206
                                     02EE   207 	DEFCMD	DEBU,-			; DEFINE DEBUG COMMAND
                                     02EE   208 		QUAL	=NO,-		; NO QUALIFIERS ALLOWED
                                     02EE   209 		MINPRM	=0,-		; MINIMUM PARAMETER COUNT
                                     02EE   210 		MAXPRM	=0,-		; MAXIMUM PARAMETER COUNT
                                     02EE   211 		DEFIMG	=DEBUG		; DEFAULT IMAGE OR ROUTINE NAME
                                     02EE       	.LIST
                                 0000003C       	.PSECT	DCL$VERBTBL,BYTE,RD,NOWRT
                                 C4  003C       	.BYTE	^A/D/!$XX$
                                 45  003D       	.BYTE	^A/E/!$XX$
                                 42  003E       	.BYTE	^A/B/!$XX$
                                 55  003F       	.BYTE	^A/U/!$XX$
                                     0040       	.LIST
                                 0000001E       	.PSECT	DCL$COMDPTR,BYTE,RD,NOWRT
                               02F6' 001E       	.WORD	VERB_G_DEBU-.-2
                                     0020       	.LIST
                                 00000316       	.PSECT	DCL$CMDATA,BYTE,RD,NOWRT
                                     0316       VERB_G_DEBU:
                                 0D  0316       	.BYTE	CLI$K_VERB_DEBU
                                 00  0317       	.BYTE	0*16+0
                                 00' 0318       	.BYTE	IMG_K_DEBUG
                                 00  0319       	.BYTE	0
                                 00  031A       	.BYTE	0
                                 00  031B       	.BYTE	$$$
                                     031C   212
                                     031C   213 	DEFCMD	DECK,-			; DEFINE DECK(DATA) COMMAND
                                     031C   214 		QUAL	=YES,-		; YES QUALIFIERS ALLOWED
                                     031C   215 		MINPRM	=0,-		; MINIMUM PARAMETER COUNT
                                     031C   216 		MAXPRM	=0,-		; MAXIMUM PARAMETER COUNT
                                     031C   217 		DEFIMG	=DECK		; DEFAULT IMAGE OR ROUTINE NAME
                                     031C       	.LIST
                                 00000040       	.PSECT	DCL$VERBTBL,BYTE,RD,NOWRT
                                 C4  0040       	.BYTE	^A/D/!$XX$
                                 45  0041       	.BYTE	^A/E/!$XX$
                                 43  0042       	.BYTE	^A/C/!$XX$
                                 4B  0043       	.BYTE	^A/K/!$XX$
                                     0044       	.LIST
CMDATBAS1       - COMMAND DATA BASE MODULE 1                     22-AUG-1978 00:56:00   VAX-11 MACRO X0.3-11               Page  23
01              DEFINE DCLS COMMANDS                                                                                             (1)

                                 00000020       	.PSECT	DCL$COMDPTR,BYTE,RD,NOWRT
                               02FA' 0020       	.WORD	VERB_G_DECK-.-2
                                     0022       	.LIST
                                 0000031C       	.PSECT	DCL$CMDATA,BYTE,RD,NOWRT
                                     031C       VERB_G_DECK:
                                 00  031C       	.BYTE	0
                                 00  031D       	.BYTE	0*16+0
                                 00' 031E       	.BYTE	IMG_K_DECK
                                 02' 031F       	.BYTE	QUA_G_DECK-.-1
                                 00  0320       	.BYTE	0
                                 00  0321       	.BYTE	$$$
                                     0322       	.SAVE
                                 00000322       	.PSECT	DCL$CMDATA,BYTE,RD,NOWRT
                                     0322       QUA_G_DECK:
                                 05' 0322       30420$:	.BYTE	30423$-30420$
                                 00' 0323       	.BYTE	QUA_K_DOLL
                                 00  0324       	.IIF B <>,	.BYTE	0
                               0028  0325       	.WORD	$$$
                                     0327       30423$:
                           00000322  0327       .=$QUALBLK$
                                 00  0322       	.BYTE	0
                                 00000322       	.RESTORE
                                     0322   218
                                     0322   219 	DEFCMD	DEFI,-			; DEFINE DEFINE COMMAND
                                     0322   220 		QUAL  =YES,-		; YES QUALIFIERS ALLOWED
                                     0322   221 		MINPRM=2,-		; MINIMUM PARAMETER COUNT
                                     0322   222 		MAXPRM=2,-		; MAXIMUM PARAMETERS ALLOWED
                                     0322   223 		DEFIMG=DEFINE,-		; DEFAULT IMAGE OR ROUTINE NAME
                                     0322   224 		FLAGS =<>,-		; COMMAND PROCESSING FLAGS
                                     0322   225 		OUTPRS=<>,-		; OUTPUT PARSE ROUTINES
                                     0322   226 		PRMPTS=<<LOG_NAME,REQ>,-; FIRST PROMPT AND FLAGS
                                     0322   227 			<EQU_NAME,REQ>,-
                                     0322   228 			>
                                     0322       	.LIST
                                 00000044       	.PSECT	DCL$VERBTBL,BYTE,RD,NOWRT
                                 C4  0044       	.BYTE	^A/D/!$XX$
                                 45  0045       	.BYTE	^A/E/!$XX$
                                 46  0046       	.BYTE	^A/F/!$XX$
                                 49  0047       	.BYTE	^A/I/!$XX$
                                     0048       	.LIST
                                 00000022       	.PSECT	DCL$COMDPTR,BYTE,RD,NOWRT
                               0303' 0022       	.WORD	VERB_G_DEFI-.-2
                                     0024       	.LIST
                                 00000327       	.PSECT	DCL$CMDATA,BYTE,RD,NOWRT
                                     0327       VERB_G_DEFI:
                                 0E  0327       	.BYTE	CLI$K_VERB_DEFI
                                 22  0328       	.BYTE	2*16+2
                                 00' 0329       	.BYTE	IMG_K_DEFINE
                                 06' 032A       	.BYTE	QUA_G_DEFI-.-1
                                 01' 032B       	.BYTE	DEFI_G_PRMPT-.-1
                                 00  032C       	.BYTE	$$$
                                     032D       DEFI_G_PRMPT:
                                 00' 032D       	.BYTE	PRO_K_LOG_NAME
                                 10  032E       	.IIF NB	<BYTE>, .BYTE $$$
                                 00' 032F       	.BYTE	PRO_K_EQU_NAME
                                 10  0330       	.IIF NB	<BYTE>, .BYTE $$$
                                     0331       	.SAVE
CMDATBAS1       - COMMAND DATA BASE MODULE 1                     22-AUG-1978 00:56:00   VAX-11 MACRO X0.3-11               Page  24
01              DEFINE DCLS COMMANDS                                                                                             (1)

                                 00000331       	.PSECT	DCL$CMDATA,BYTE,RD,NOWRT
                                     0331       QUA_G_DEFI:
                                 05' 0331       30425$:	.BYTE	30428$-30425$
                                 00' 0332       	.BYTE	QUA_K_SYST
                                 00  0333       	.IIF B <>,	.BYTE	0
                               0008  0334       	.WORD	$$$
                                     0336       30428$:
                                 05' 0336       30429$:	.BYTE	30432$-30429$
                                 00' 0337       	.BYTE	QUA_K_GROU
                                 00  0338       	.IIF B <>,	.BYTE	0
                               0008  0339       	.WORD	$$$
                                     033B       30432$:
                                 05' 033B       30433$:	.BYTE	30436$-30433$
                                 00' 033C       	.BYTE	QUA_K_PROC
                                 00  033D       	.IIF B <>,	.BYTE	0
                               0008  033E       	.WORD	$$$
                                     0340       30436$:
                                 05' 0340       30437$:	.BYTE	30440$-30437$
                                 00' 0341       	.BYTE	QUA_K_USER
                                 00  0342       	.IIF B <>,	.BYTE	0
                               0008  0343       	.WORD	$$$
                                     0345       30440$:
                                 05' 0345       30441$:	.BYTE	30444$-30441$
                                 00' 0346       	.BYTE	QUA_K_SUPE
                                 00  0347       	.IIF B <>,	.BYTE	0
                               0008  0348       	.WORD	$$$
                                     034A       30444$:
                           00000345  034A       .=$QUALBLK$
                                 00  0345       	.BYTE	0
                                 00000331       	.RESTORE
                                     0331   229
                                     0331   230 	DEFCMD	DELE,-			; DEFINE DELETE COMMAND
                                     0331   231 		QUAL  =YES,-		; YES QUALIFIERS ALLOWED
                                     0331   232 		MINPRM=1,-		; MINIMUM PARAMETER COUNT
                                     0331   233 		MAXPRM=1,-		; MAXIMUM PARAMETERS ALLOWED
                                     0331   234 		DEFIMG=DELETE,-		; DEFAULT IMAGE OR ROUTINE NAME
                                     0331   235 		PRMPTS=<<FILE,<REQ,CONCAT,LIST,IMPCAT>>,- ; FIRST PROMPT AND FLAGS
                                     0331   236 			>
                                     0331       	.LIST
                                 00000048       	.PSECT	DCL$VERBTBL,BYTE,RD,NOWRT
                                 C4  0048       	.BYTE	^A/D/!$XX$
                                 45  0049       	.BYTE	^A/E/!$XX$
                                 4C  004A       	.BYTE	^A/L/!$XX$
                                 45  004B       	.BYTE	^A/E/!$XX$
                                     004C       	.LIST
                                 00000024       	.PSECT	DCL$COMDPTR,BYTE,RD,NOWRT
                               0324' 0024       	.WORD	VERB_G_DELE-.-2
                                     0026       	.LIST
                                 0000034A       	.PSECT	DCL$CMDATA,BYTE,RD,NOWRT
                                     034A       VERB_G_DELE:
                                 0F  034A       	.BYTE	CLI$K_VERB_DELE
                                 11  034B       	.BYTE	1*16+1
                                 00' 034C       	.BYTE	IMG_K_DELETE
                                 04' 034D       	.BYTE	QUA_G_DELE-.-1
                                 01' 034E       	.BYTE	DELE_G_PRMPT-.-1
                                 00  034F       	.BYTE	$$$
                                     0350       DELE_G_PRMPT:
CMDATBAS1       - COMMAND DATA BASE MODULE 1                     22-AUG-1978 00:56:00   VAX-11 MACRO X0.3-11               Page  25
01              DEFINE DCLS COMMANDS                                                                                             (1)

                                 00' 0350       	.BYTE	PRO_K_FILE
                                 17  0351       	.IIF NB	<BYTE>, .BYTE $$$
                                     0352       	.SAVE
                                 00000352       	.PSECT	DCL$CMDATA,BYTE,RD,NOWRT
                                     0352       QUA_G_DELE:
                                 05' 0352       30446$:	.BYTE	30449$-30446$
                                 00' 0353       	.BYTE	QUA_K_CREA
                                 00  0354       	.IIF B <>,	.BYTE	0
                               0008  0355       	.WORD	$$$
                                     0357       30449$:
                                 0B' 0357       30450$:	.BYTE	30453$-30450$
                                 00' 0358       	.BYTE	QUA_K_ENTR
                                 00  0359       	.IIF B <>,	.BYTE	0
                               1429  035A       	.WORD	$$$
                                 00' 035C       	.BYTE	IMG_K_QUEMAN
                               0000  035D       	.WORD	0
                                 11  035F       	.BYTE	1*16+1
                                 00' 0360       	.BYTE	PRO_K_QUEUE
                                 10  0361       	.IIF NB	<BYTE>, .BYTE $$$
                                     0362       30453$:
                                 09' 0362       30455$:	.BYTE	30458$-30455$
                                 05' 0363       	.BYTE	<30457$-30455$>
                                 00  0364       	.IIF B <>,	.BYTE	0
                               000A  0365       	.WORD	$$$
                        49 44 4F 4D  0367       30457$:	.ASCII	\MODI\
                                     036B       30458$:
                                 0B' 036B       30459$:	.BYTE	30462$-30459$
                                 00' 036C       	.BYTE	QUA_K_QUEU
                                 00  036D       	.IIF B <>,	.BYTE	0
                               0409  036E       	.WORD	$$$
                                 00' 0370       	.BYTE	IMG_K_QUEMAN
                               0000  0371       	.WORD	0
                                 11  0373       	.BYTE	1*16+1
                                 00' 0374       	.BYTE	PRO_K_QUEUE
                                 10  0375       	.IIF NB	<BYTE>, .BYTE $$$
                                     0376       30462$:
                                 09' 0376       30464$:	.BYTE	30467$-30464$
                                 05' 0377       	.BYTE	<30466$-30464$>
                                 00  0378       	.IIF B <>,	.BYTE	0
                               004A  0379       	.WORD	$$$
                        46 4E 4F 43  037B       30466$:	.ASCII	\CONF\
                                     037F       30467$:
                                 05' 037F       30468$:	.BYTE	30471$-30468$
                                 00' 0380       	.BYTE	QUA_K_LOG
                                 00  0381       	.IIF B <>,	.BYTE	0
                               0048  0382       	.WORD	$$$
                                     0384       30471$:
                                 09' 0384       30472$:	.BYTE	30475$-30472$
                                 05' 0385       	.BYTE	<30474$-30472$>
                                 00  0386       	.IIF B <>,	.BYTE	0
                               202A  0387       	.WORD	$$$
                        43 4E 49 53  0389       30474$:	.ASCII	\SINC\
                                     038D       30475$:
                                 09' 038D       30476$:	.BYTE	30479$-30476$
                                 05' 038E       	.BYTE	<30478$-30476$>
                                 00  038F       	.IIF B <>,	.BYTE	0
                               202A  0390       	.WORD	$$$
CMDATBAS1       - COMMAND DATA BASE MODULE 1                     22-AUG-1978 00:56:00   VAX-11 MACRO X0.3-11               Page  26
01              DEFINE DCLS COMMANDS                                                                                             (1)

                        4F 46 45 42  0392       30478$:	.ASCII	\BEFO\
                                     0396       30479$:
                                 09' 0396       30480$:	.BYTE	30483$-30480$
                                 05' 0397       	.BYTE	<30482$-30480$>
                                 00  0398       	.IIF B <>,	.BYTE	0
                               000A  0399       	.WORD	$$$
                        49 50 58 45  039B       30482$:	.ASCII	\EXPI\
                                     039F       30483$:
                                 0B' 039F       30484$:	.BYTE	30487$-30484$
                                 00' 03A0       	.BYTE	QUA_K_SYMB
                                 00  03A1       	.IIF B <>,	.BYTE	0
                               0409  03A2       	.WORD	$$$
                                 00' 03A4       	.BYTE	IMG_K_DELSYM
                               0005' 03A5       	.WORD	QUA_G_DLSY-.
                                 11  03A7       	.BYTE	1*16+1
                                 00' 03A8       	.BYTE	PRO_K_SYMBOL
                                 10  03A9       	.IIF NB	<BYTE>, .BYTE $$$
                                     03AA       30487$:
                           0000039F  03AA       .=$QUALBLK$
                                 00  039F       	.BYTE	0
                                 00000352       	.RESTORE
                                     0352       	.SAVE
                                 000003AA       	.PSECT	DCL$CMDATA,BYTE,RD,NOWRT
                                     03AA       QUA_G_DLSY:
                                 09' 03AA       30489$:	.BYTE	30492$-30489$
                                 00' 03AB       	.BYTE	QUA_K_ALL
                                 00  03AC       	.IIF B <>,	.BYTE	0
                               0409  03AD       	.WORD	$$$
                                 00  03AF       	.BYTE	0
                               0000  03B0       	.WORD	0
                                 00  03B2       	.BYTE	0*16+0
                                     03B3       30492$:
                                 05' 03B3       30494$:	.BYTE	30497$-30494$
                                 00' 03B4       	.BYTE	QUA_K_GLOB
                                 00  03B5       	.IIF B <>,	.BYTE	0
                               0008  03B6       	.WORD	$$$
                                     03B8       30497$:
                                 05' 03B8       30498$:	.BYTE	30501$-30498$
                                 00' 03B9       	.BYTE	QUA_K_LOCA
                                 00  03BA       	.IIF B <>,	.BYTE	0
                               0008  03BB       	.WORD	$$$
                                     03BD       30501$:
                           000003B8  03BD       .=$QUALBLK$
                                 00  03B8       	.BYTE	0
                                 00000352       	.RESTORE
                                     0352   237
                                     0352   238
                                     0352   239 	DEFCMD	DIFF,-			; DEFINE DIFFERENCES COMMAND
                                     0352   240 		QUAL  =YES,-		; YES QUALIFIERS ALLOWED
                                     0352   241 		MINPRM=1,-		; MINIMUM PARAMETER COUNT
                                     0352   242 		MAXPRM=2,-		; MAXIMUM PARAMETERS ALLOWED
                                     0352   243 		DEFIMG=BACKTRANS,-	; DEFAULT IMAGE OR ROUTINE NAME
                                     0352   244 		OUTPRS=CLI$K_DIFF_OUTP,-; OUTPUT PARSE ROUTINES
                                     0352   245 		PRMPTS=<<FIL,<REQ,LIST,IMPCAT>>,-
                                     0352   246 			<FI,<NONE>>,-
                                     0352   247 			>
                                     0352       	.LIST
CMDATBAS1       - COMMAND DATA BASE MODULE 1                     22-AUG-1978 00:56:00   VAX-11 MACRO X0.3-11               Page  27
01              DEFINE DCLS COMMANDS                                                                                             (1)

                                 0000004C       	.PSECT	DCL$VERBTBL,BYTE,RD,NOWRT
                                 C4  004C       	.BYTE	^A/D/!$XX$
                                 49  004D       	.BYTE	^A/I/!$XX$
                                 46  004E       	.BYTE	^A/F/!$XX$
                                 46  004F       	.BYTE	^A/F/!$XX$
                                     0050       	.LIST
                                 00000026       	.PSECT	DCL$COMDPTR,BYTE,RD,NOWRT
                               0395' 0026       	.WORD	VERB_G_DIFF-.-2
                                     0028       	.LIST
                                 000003BD       	.PSECT	DCL$CMDATA,BYTE,RD,NOWRT
                                     03BD       VERB_G_DIFF:
                                 11  03BD       	.BYTE	CLI$K_VERB_DIFF
                                 21  03BE       	.BYTE	2*16+1
                                 00' 03BF       	.BYTE	IMG_K_BACKTRANS
                                 08' 03C0       	.BYTE	QUA_G_DIFF-.-1
                                 03' 03C1       	.BYTE	DIFF_G_PRMPT-.-1
                                 04  03C2       	.BYTE	$$$
                                 01' 03C3       	.BYTE	30502$-.-1
                                 09' 03C4       	.BYTE	CLI$K_DIFF_OUTP
                                     03C5       30502$:
                                     03C5       DIFF_G_PRMPT:
                                 00' 03C5       	.BYTE	PRO_K_FIL
                                 16  03C6       	.IIF NB	<BYTE>, .BYTE $$$
                                 00' 03C7       	.BYTE	PRO_K_FI
                                 00  03C8       	.BYTE	0
                                     03C9       	.SAVE
                                 000003C9       	.PSECT	DCL$CMDATA,BYTE,RD,NOWRT
                                     03C9       QUA_G_DIFF:
                                 05' 03C9       30503$:	.BYTE	30506$-30503$
                                 00' 03CA       	.BYTE	QUA_K_CHAN
                                 00  03CB       	.IIF B <>,	.BYTE	0
                               0030  03CC       	.WORD	$$$
                                     03CE       30506$:
                                 05' 03CE       30507$:	.BYTE	30510$-30507$
                                 00' 03CF       	.BYTE	QUA_K_COMM
                                 00  03D0       	.IIF B <>,	.BYTE	0
                               0028  03D1       	.WORD	$$$
                                     03D3       30510$:
                                 05' 03D3       30511$:	.BYTE	30514$-30511$
                                 00' 03D4       	.BYTE	QUA_K_IGNO
                                 00  03D5       	.IIF B <>,	.BYTE	0
                               1028  03D6       	.WORD	$$$
                                     03D8       30514$:
                                 05' 03D8       30515$:	.BYTE	30518$-30515$
                                 00' 03D9       	.BYTE	QUA_K_LINE
                                 00  03DA       	.IIF B <>,	.BYTE	0
                               3028  03DB       	.WORD	$$$
                                     03DD       30518$:
                                 05' 03DD       30519$:	.BYTE	30522$-30519$
                                 00' 03DE       	.BYTE	QUA_K_MATC
                                 00  03DF       	.IIF B <>,	.BYTE	0
                               3028  03E0       	.WORD	$$$
                                     03E2       30522$:
                                 05' 03E2       30523$:	.BYTE	30526$-30523$
                                 00' 03E3       	.BYTE	QUA_K_MAXI
                                 00  03E4       	.IIF B <>,	.BYTE	0
                               3028  03E5       	.WORD	$$$
CMDATBAS1       - COMMAND DATA BASE MODULE 1                     22-AUG-1978 00:56:00   VAX-11 MACRO X0.3-11               Page  28
01              DEFINE DCLS COMMANDS                                                                                             (1)

                                     03E7       30526$:
                                 05' 03E7       30527$:	.BYTE	30530$-30527$
                                 00' 03E8       	.BYTE	QUA_K_MERG
                                 00  03E9       	.IIF B <>,	.BYTE	0
                               2028  03EA       	.WORD	$$$
                                     03EC       30530$:
                                 05' 03EC       30531$:	.BYTE	30534$-30531$
                                 00' 03ED       	.BYTE	QUA_K_MODE
                                 00  03EE       	.IIF B <>,	.BYTE	0
                               1028  03EF       	.WORD	$$$
                                     03F1       30534$:
                                 05' 03F1       30535$:	.BYTE	30538$-30535$
                                 00' 03F2       	.BYTE	QUA_K_OUTP
                                 00  03F3       	.IIF B <>,	.BYTE	0
                               082C  03F4       	.WORD	$$$
                                     03F6       30538$:
                                 05' 03F6       30539$:	.BYTE	30542$-30539$
                                 00' 03F7       	.BYTE	QUA_K_SEPA
                                 00  03F8       	.IIF B <>,	.BYTE	0
                               0048  03F9       	.WORD	$$$
                                     03FB       30542$:
                                 05' 03FB       30543$:	.BYTE	30546$-30543$
                                 00' 03FC       	.BYTE	QUA_K_SLP
                                 00  03FD       	.IIF B <>,	.BYTE	0
                               0008  03FE       	.WORD	$$$
                                     0400       30546$:
                                 05' 0400       30547$:	.BYTE	30550$-30547$
                                 00' 0401       	.BYTE	QUA_K_WIND
                                 00  0402       	.IIF B <>,	.BYTE	0
                               3028  0403       	.WORD	$$$
                                     0405       30550$:
                           00000400  0405       .=$QUALBLK$
                                 00  0400       	.BYTE	0
                                 000003C9       	.RESTORE
                                     03C9   248
                                     03C9   249 	DEFCMD	DIRE,-			; DEFINE DIRECTORY COMMAND
                                     03C9   250 		QUAL  =YES,-		; YES QUALIFIERS ALLOWED
                                     03C9   251 		MINPRM=0,-		; MINIMUM PARAMETER COUNT
                                     03C9   252 		MAXPRM=1,-		; MAXIMUM PARAMETERS ALLOWED
                                     03C9   253 		DEFIMG=BACKTRANS,-	; DEFAULT IMAGE OR ROUTINE NAME
                                     03C9   254 		OUTPRS=CLI$K_DIRE_OUTP,-; OUTPUT PARSE ROUTINES
                                     03C9   255 		PRMPTS=<<FILE,<LIST,CONCAT,IMPCAT>>,-
                                     03C9   256 			>
                                     03C9       	.LIST
                                 00000050       	.PSECT	DCL$VERBTBL,BYTE,RD,NOWRT
                                 C4  0050       	.BYTE	^A/D/!$XX$
                                 49  0051       	.BYTE	^A/I/!$XX$
                                 52  0052       	.BYTE	^A/R/!$XX$
                                 45  0053       	.BYTE	^A/E/!$XX$
                                     0054       	.LIST
                                 00000028       	.PSECT	DCL$COMDPTR,BYTE,RD,NOWRT
                               03DB' 0028       	.WORD	VERB_G_DIRE-.-2
                                     002A       	.LIST
                                 00000405       	.PSECT	DCL$CMDATA,BYTE,RD,NOWRT
                                     0405       VERB_G_DIRE:
                                 12  0405       	.BYTE	CLI$K_VERB_DIRE
                                 10  0406       	.BYTE	1*16+0
CMDATBAS1       - COMMAND DATA BASE MODULE 1                     22-AUG-1978 00:56:00   VAX-11 MACRO X0.3-11               Page  29
01              DEFINE DCLS COMMANDS                                                                                             (1)

                                 00' 0407       	.BYTE	IMG_K_BACKTRANS
                                 06' 0408       	.BYTE	QUA_G_DIRE-.-1
                                 03' 0409       	.BYTE	DIRE_G_PRMPT-.-1
                                 04  040A       	.BYTE	$$$
                                 01' 040B       	.BYTE	30551$-.-1
                                 05' 040C       	.BYTE	CLI$K_DIRE_OUTP
                                     040D       30551$:
                                     040D       DIRE_G_PRMPT:
                                 00' 040D       	.BYTE	PRO_K_FILE
                                 07  040E       	.IIF NB	<BYTE>, .BYTE $$$
                                     040F       	.SAVE
                                 0000040F       	.PSECT	DCL$CMDATA,BYTE,RD,NOWRT
                                     040F       QUA_G_DIRE:
                                 05' 040F       30552$:	.BYTE	30555$-30552$
                                 00' 0410       	.BYTE	QUA_K_BRIE
                                 00  0411       	.IIF B <>,	.BYTE	0
                               0008  0412       	.WORD	$$$
                                     0414       30555$:
                                 05' 0414       30556$:	.BYTE	30559$-30556$
                                 00' 0415       	.BYTE	QUA_K_COLU
                                 00  0416       	.IIF B <>,	.BYTE	0
                               0028  0417       	.WORD	$$$
                                     0419       30559$:
                                 05' 0419       30560$:	.BYTE	30563$-30560$
                                 00' 041A       	.BYTE	QUA_K_ZZZZ
                                 00  041B       	.IIF B <>,	.BYTE	0
                               0008  041C       	.WORD	$$$
                                     041E       30563$:
                                 05' 041E       30564$:	.BYTE	30567$-30564$
                                 00' 041F       	.BYTE	QUA_K_FULL
                                 00  0420       	.IIF B <>,	.BYTE	0
                               0008  0421       	.WORD	$$$
                                     0423       30567$:
                                 05' 0423       30568$:	.BYTE	30571$-30568$
                                 00' 0424       	.BYTE	QUA_K_OUTP
                                 00  0425       	.IIF B <>,	.BYTE	0
                               182C  0426       	.WORD	$$$
                                     0428       30571$:
                                 05' 0428       30572$:	.BYTE	30575$-30572$
                                 00' 0429       	.BYTE	QUA_K_PRIN
                                 00  042A       	.IIF B <>,	.BYTE	0
                               0008  042B       	.WORD	$$$
                                     042D       30575$:
                                 05' 042D       30576$:	.BYTE	30579$-30576$
                                 00' 042E       	.BYTE	QUA_K_ZZZZ
                                 00  042F       	.IIF B <>,	.BYTE	0
                               0008  0430       	.WORD	$$$
                                     0432       30579$:
                           0000042D  0432       .=$QUALBLK$
                                 00  042D       	.BYTE	0
                                 0000040F       	.RESTORE
                                     040F   257
                                     040F   258
                                     040F   259 	DEFCMD	DISM,-			; DEFINE DISMOUNT COMMAND
                                     040F   260 		QUAL  =YES,-		; YES QUALIFIERS ALLOWED
                                     040F   261 		MINPRM=1,-		; MINIMUM PARAMETER COUNT
                                     040F   262 		MAXPRM=1,-		; MAXIMUM PARAMETERS ALLOWED
CMDATBAS1       - COMMAND DATA BASE MODULE 1                     22-AUG-1978 00:56:00   VAX-11 MACRO X0.3-11               Page  30
01              DEFINE DCLS COMMANDS                                                                                             (1)

                                     040F   263 		DEFIMG=DISMOUNT,-	; DEFAULT IMAGE OR ROUTINE NAME
                                     040F   264 		PRMPTS=<<DEVICE,REQ>,-	; FIRST PROMPT AND FLAGS
                                     040F   265 			>
                                     040F       	.LIST
                                 00000054       	.PSECT	DCL$VERBTBL,BYTE,RD,NOWRT
                                 C4  0054       	.BYTE	^A/D/!$XX$
                                 49  0055       	.BYTE	^A/I/!$XX$
                                 53  0056       	.BYTE	^A/S/!$XX$
                                 4D  0057       	.BYTE	^A/M/!$XX$
                                     0058       	.LIST
                                 0000002A       	.PSECT	DCL$COMDPTR,BYTE,RD,NOWRT
                               0406' 002A       	.WORD	VERB_G_DISM-.-2
                                     002C       	.LIST
                                 00000432       	.PSECT	DCL$CMDATA,BYTE,RD,NOWRT
                                     0432       VERB_G_DISM:
                                 13  0432       	.BYTE	CLI$K_VERB_DISM
                                 11  0433       	.BYTE	1*16+1
                                 00' 0434       	.BYTE	IMG_K_DISMOUNT
                                 04' 0435       	.BYTE	QUA_G_DISM-.-1
                                 01' 0436       	.BYTE	DISM_G_PRMPT-.-1
                                 00  0437       	.BYTE	$$$
                                     0438       DISM_G_PRMPT:
                                 00' 0438       	.BYTE	PRO_K_DEVICE
                                 10  0439       	.IIF NB	<BYTE>, .BYTE $$$
                                     043A       	.SAVE
                                 0000043A       	.PSECT	DCL$CMDATA,BYTE,RD,NOWRT
                                     043A       QUA_G_DISM:
                                 05' 043A       30581$:	.BYTE	30584$-30581$
                                 00' 043B       	.BYTE	QUA_K_UNLO
                                 00  043C       	.IIF B <>,	.BYTE	0
                               00C8  043D       	.WORD	$$$
                                     043F       30584$:
                           0000043A  043F       .=$QUALBLK$
                                 00  043A       	.BYTE	0
                                 0000043A       	.RESTORE
                                     043A   266
                                     043A   267 	DEFCMD	DUMP,-			; DEFINE DUMP COMMAND
                                     043A   268 		QUAL  =YES,-		; YES QUALIFIERS ALLOWED
                                     043A   269 		MINPRM=1,-		; MINIMUM PARAMETER COUNT
                                     043A   270 		MAXPRM=1,-		; MAXIMUM PARAMETERS ALLOWED
                                     043A   271 		DEFIMG=BACKTRANS,-	; DEFAULT IMAGE OR ROUTINE NAME
                                     043A   272 		OUTPRS=CLI$K_DUMP_OUTP,-; OUTPUT PARSE ROUTINES
                                     043A   273 		PRMPTS=<<FILE,REQ>,-	; FIRST PROMPT AND FLAGS
                                     043A   274 			>
                                     043A       	.LIST
                                 00000058       	.PSECT	DCL$VERBTBL,BYTE,RD,NOWRT
                                 C4  0058       	.BYTE	^A/D/!$XX$
                                 55  0059       	.BYTE	^A/U/!$XX$
                                 4D  005A       	.BYTE	^A/M/!$XX$
                                 50  005B       	.BYTE	^A/P/!$XX$
                                     005C       	.LIST
                                 0000002C       	.PSECT	DCL$COMDPTR,BYTE,RD,NOWRT
                               0411' 002C       	.WORD	VERB_G_DUMP-.-2
                                     002E       	.LIST
                                 0000043F       	.PSECT	DCL$CMDATA,BYTE,RD,NOWRT
                                     043F       VERB_G_DUMP:
                                 30  043F       	.BYTE	CLI$K_VERB_DUMP
CMDATBAS1       - COMMAND DATA BASE MODULE 1                     22-AUG-1978 00:56:00   VAX-11 MACRO X0.3-11               Page  31
01              DEFINE DCLS COMMANDS                                                                                             (1)

                                 11  0440       	.BYTE	1*16+1
                                 00' 0441       	.BYTE	IMG_K_BACKTRANS
                                 06' 0442       	.BYTE	QUA_G_DUMP-.-1
                                 03' 0443       	.BYTE	DUMP_G_PRMPT-.-1
                                 04  0444       	.BYTE	$$$
                                 01' 0445       	.BYTE	30585$-.-1
                                 0A' 0446       	.BYTE	CLI$K_DUMP_OUTP
                                     0447       30585$:
                                     0447       DUMP_G_PRMPT:
                                 00' 0447       	.BYTE	PRO_K_FILE
                                 10  0448       	.IIF NB	<BYTE>, .BYTE $$$
                                     0449       	.SAVE
                                 00000449       	.PSECT	DCL$CMDATA,BYTE,RD,NOWRT
                                     0449       QUA_G_DUMP:
                                 05' 0449       30586$:	.BYTE	30589$-30586$
                                 00' 044A       	.BYTE	QUA_K_ASCI
                                 00  044B       	.IIF B <>,	.BYTE	0
                               0048  044C       	.WORD	$$$
                                     044E       30589$:
                                 05' 044E       30590$:	.BYTE	30593$-30590$
                                 00' 044F       	.BYTE	QUA_K_BLOC
                                 00  0450       	.IIF B <>,	.BYTE	0
                               5028  0451       	.WORD	$$$
                                     0453       30593$:
                                 05' 0453       30594$:	.BYTE	30597$-30594$
                                 00' 0454       	.BYTE	QUA_K_BYTE
                                 00  0455       	.IIF B <>,	.BYTE	0
                               0008  0456       	.WORD	$$$
                                     0458       30597$:
                                 05' 0458       30598$:	.BYTE	30601$-30598$
                                 00' 0459       	.BYTE	QUA_K_DECI
                                 00  045A       	.IIF B <>,	.BYTE	0
                               0008  045B       	.WORD	$$$
                                     045D       30601$:
                                 05' 045D       30602$:	.BYTE	30605$-30602$
                                 00' 045E       	.BYTE	QUA_K_HEAD
                                 00  045F       	.IIF B <>,	.BYTE	0
                               0008  0460       	.WORD	$$$
                                     0462       30605$:
                                 05' 0462       30606$:	.BYTE	30609$-30606$
                                 00' 0463       	.BYTE	QUA_K_HEXA
                                 00  0464       	.IIF B <>,	.BYTE	0
                               0008  0465       	.WORD	$$$
                                     0467       30609$:
                                 05' 0467       30610$:	.BYTE	30613$-30610$
                                 00' 0468       	.BYTE	QUA_K_LONG
                                 00  0469       	.IIF B <>,	.BYTE	0
                               0008  046A       	.WORD	$$$
                                     046C       30613$:
                                 05' 046C       30614$:	.BYTE	30617$-30614$
                                 00' 046D       	.BYTE	QUA_K_NUMB
                                 00  046E       	.IIF B <>,	.BYTE	0
                               2028  046F       	.WORD	$$$
                                     0471       30617$:
                                 05' 0471       30618$:	.BYTE	30621$-30618$
                                 00' 0472       	.BYTE	QUA_K_OCTA
                                 00  0473       	.IIF B <>,	.BYTE	0
CMDATBAS1       - COMMAND DATA BASE MODULE 1                     22-AUG-1978 00:56:00   VAX-11 MACRO X0.3-11               Page  32
01              DEFINE DCLS COMMANDS                                                                                             (1)

                               0008  0474       	.WORD	$$$
                                     0476       30621$:
                                 05' 0476       30622$:	.BYTE	30625$-30622$
                                 00' 0477       	.BYTE	QUA_K_OUTP
                                 00  0478       	.IIF B <>,	.BYTE	0
                               082C  0479       	.WORD	$$$
                                     047B       30625$:
                                 05' 047B       30626$:	.BYTE	30629$-30626$
                                 00' 047C       	.BYTE	QUA_K_PRIN
                                 00  047D       	.IIF B <>,	.BYTE	0
                               0008  047E       	.WORD	$$$
                                     0480       30629$:
                                 05' 0480       30630$:	.BYTE	30633$-30630$
                                 00' 0481       	.BYTE	QUA_K_RECO
                                 00  0482       	.IIF B <>,	.BYTE	0
                               0008  0483       	.WORD	$$$
                                     0485       30633$:
                                 05' 0485       30634$:	.BYTE	30637$-30634$
                                 00' 0486       	.BYTE	QUA_K_TERM
                                 00  0487       	.IIF B <>,	.BYTE	0
                               0008  0488       	.WORD	$$$
                                     048A       30637$:
                                 05' 048A       30638$:	.BYTE	30641$-30638$
                                 00' 048B       	.BYTE	QUA_K_WORD
                                 00  048C       	.IIF B <>,	.BYTE	0
                               0008  048D       	.WORD	$$$
                                     048F       30641$:
                           0000048A  048F       .=$QUALBLK$
                                 00  048A       	.BYTE	0
                                 00000449       	.RESTORE
                                     0449   275
                                     0449   276 ;
                                     0449   277 ; EXAMINE MUST BE FIRST INORDER TO PREMIT ABBREVIATION TO "E"
                                     0449   278 ;
                                     0449   279 	DEFCMD	EXAM,-			; DEFINE EXAMINE COMMAND
                                     0449   280 		QUAL  =YES,-		; YES QUALIFIERS ALLOWED
                                     0449   281 		MINPRM=0,-		; MINIMUM PARAMETER COUNT
                                     0449   282 		MAXPRM=0,-		; MAXIMUM PARAMETERS ALLOWED
                                     0449   283 		DEFIMG=EXAMINE,-	; DEFAULT IMAGE OR ROUTINE NAME
                                     0449   284 		FLAGS =<IMMED,ABREV,NOSTAT> ; COMMAND PROCESSING FLAGS
                                     0449       	.LIST
                                 0000005C       	.PSECT	DCL$VERBTBL,BYTE,RD,NOWRT
                                 C5  005C       	.BYTE	^A/E/!$XX$
                                 58  005D       	.BYTE	^A/X/!$XX$
                                 41  005E       	.BYTE	^A/A/!$XX$
                                 4D  005F       	.BYTE	^A/M/!$XX$
                                     0060       	.LIST
                                 0000002E       	.PSECT	DCL$COMDPTR,BYTE,RD,NOWRT
                               045F' 002E       	.WORD	VERB_G_EXAM-.-2
                                     0030       	.LIST
                                 0000048F       	.PSECT	DCL$CMDATA,BYTE,RD,NOWRT
                                     048F       VERB_G_EXAM:
                                 16  048F       	.BYTE	CLI$K_VERB_EXAM
                                 00  0490       	.BYTE	0*16+0
                                 00' 0491       	.BYTE	IMG_K_EXAMINE
                                 02' 0492       	.BYTE	QUA_G_EXAM-.-1
                                 00  0493       	.BYTE	0
CMDATBAS1       - COMMAND DATA BASE MODULE 1                     22-AUG-1978 00:56:00   VAX-11 MACRO X0.3-11               Page  33
01              DEFINE DCLS COMMANDS                                                                                             (1)

                                 2A  0494       	.BYTE	$$$
                                     0495       	.SAVE
                                 00000495       	.PSECT	DCL$CMDATA,BYTE,RD,NOWRT
                                     0495       QUA_G_EXAM:
                                     0495       .IIF NB <GBLTAG>, DCL$G_EXAMQUALS::
                                 05' 0495       30643$:	.BYTE	30646$-30643$
                                 00' 0496       	.BYTE	QUA_K_ASCI
                                 00  0497       	.IIF B <>,	.BYTE	0
                               0008  0498       	.WORD	$$$
                                     049A       30646$:
                                 05' 049A       30647$:	.BYTE	30650$-30647$
                                 00' 049B       	.BYTE	QUA_K_BYTE
                                 00  049C       	.IIF B <>,	.BYTE	0
                               0008  049D       	.WORD	$$$
                                     049F       30650$:
                                 05' 049F       30651$:	.BYTE	30654$-30651$
                                 00' 04A0       	.BYTE	QUA_K_DECI
                                 00  04A1       	.IIF B <>,	.BYTE	0
                               0008  04A2       	.WORD	$$$
                                     04A4       30654$:
                                 05' 04A4       30655$:	.BYTE	30658$-30655$
                                 00' 04A5       	.BYTE	QUA_K_HEXA
                                 00  04A6       	.IIF B <>,	.BYTE	0
                               0008  04A7       	.WORD	$$$
                                     04A9       30658$:
                                 05' 04A9       30659$:	.BYTE	30662$-30659$
                                 00' 04AA       	.BYTE	QUA_K_LONG
                                 00  04AB       	.IIF B <>,	.BYTE	0
                               0008  04AC       	.WORD	$$$
                                     04AE       30662$:
                                 05' 04AE       30663$:	.BYTE	30666$-30663$
                                 00' 04AF       	.BYTE	QUA_K_OCTA
                                 00  04B0       	.IIF B <>,	.BYTE	0
                               0008  04B1       	.WORD	$$$
                                     04B3       30666$:
                                 05' 04B3       30667$:	.BYTE	30670$-30667$
                                 00' 04B4       	.BYTE	QUA_K_WORD
                                 00  04B5       	.IIF B <>,	.BYTE	0
                               0008  04B6       	.WORD	$$$
                                     04B8       30670$:
                           000004B3  04B8       .=$QUALBLK$
                                 00  04B3       	.BYTE	0
                                 00000495       	.RESTORE
                                     0495   285
                                     0495   286 	DEFCMD	EDIT,-			; DEFINE EDIT COMMAND
                                     0495   287 		QUAL  =YES,-		; YES QUALIFIERS ALLOWED
                                     0495   288 		MINPRM=1,-		; MINIMUM PARAMETER COUNT
                                     0495   289 		MAXPRM=1,-		; MAXIMUM PARAMETERS ALLOWED
                                     0495   290 		DEFIMG=BACKTRANS,-	; DEFAULT IMAGE OR ROUTINE NAME
                                     0495   291 		OUTPRS=<CLI$K_EDIT_OUTP,CLI$K_EDIT_LIST>,-; OUTPUT PARSE ROUTINE
                                     0495   292 		PRMPTS=<<FILE,REQ>,-	; FIRST PROMPT AND FLAGS
                                     0495   293 			>
                                     0495       	.LIST
                                 00000060       	.PSECT	DCL$VERBTBL,BYTE,RD,NOWRT
                                 C5  0060       	.BYTE	^A/E/!$XX$
                                 44  0061       	.BYTE	^A/D/!$XX$
                                 49  0062       	.BYTE	^A/I/!$XX$
CMDATBAS1       - COMMAND DATA BASE MODULE 1                     22-AUG-1978 00:56:00   VAX-11 MACRO X0.3-11               Page  34
01              DEFINE DCLS COMMANDS                                                                                             (1)

                                 54  0063       	.BYTE	^A/T/!$XX$
                                     0064       	.LIST
                                 00000030       	.PSECT	DCL$COMDPTR,BYTE,RD,NOWRT
                               0486' 0030       	.WORD	VERB_G_EDIT-.-2
                                     0032       	.LIST
                                 000004B8       	.PSECT	DCL$CMDATA,BYTE,RD,NOWRT
                                     04B8       VERB_G_EDIT:
                                 14  04B8       	.BYTE	CLI$K_VERB_EDIT
                                 11  04B9       	.BYTE	1*16+1
                                 00' 04BA       	.BYTE	IMG_K_BACKTRANS
                                 07' 04BB       	.BYTE	QUA_G_EDIT-.-1
                                 04' 04BC       	.BYTE	EDIT_G_PRMPT-.-1
                                 04  04BD       	.BYTE	$$$
                                 02' 04BE       	.BYTE	30671$-.-1
                                 0A' 04BF       	.BYTE	CLI$K_EDIT_OUTP
                                 08' 04C0       	.BYTE	CLI$K_EDIT_LIST
                                     04C1       30671$:
                                     04C1       EDIT_G_PRMPT:
                                 00' 04C1       	.BYTE	PRO_K_FILE
                                 10  04C2       	.IIF NB	<BYTE>, .BYTE $$$
                                     04C3       	.SAVE
                                 000004C3       	.PSECT	DCL$CMDATA,BYTE,RD,NOWRT
                                     04C3       QUA_G_EDIT:
                                 05' 04C3       30672$:	.BYTE	30675$-30672$
                                 00' 04C4       	.BYTE	QUA_K_AUDI
                                 00  04C5       	.IIF B <>,	.BYTE	0
                               4068  04C6       	.WORD	$$$
                                     04C8       30675$:
                                 05' 04C8       30676$:	.BYTE	30679$-30676$
                                 00' 04C9       	.BYTE	QUA_K_DECI
                                 00  04CA       	.IIF B <>,	.BYTE	0
                               0048  04CB       	.WORD	$$$
                                     04CD       30679$:
                                 05' 04CD       30680$:	.BYTE	30683$-30680$
                                 00' 04CE       	.BYTE	QUA_K_EXAC
                                 00  04CF       	.IIF B <>,	.BYTE	0
                               0048  04D0       	.WORD	$$$
                                     04D2       30683$:
                                 05' 04D2       30684$:	.BYTE	30687$-30684$
                                 00' 04D3       	.BYTE	QUA_K_EXPE
                                 00  04D4       	.IIF B <>,	.BYTE	0
                               0048  04D5       	.WORD	$$$
                                     04D7       30687$:
                                 05' 04D7       30688$:	.BYTE	30691$-30688$
                                 00' 04D8       	.BYTE	QUA_K_INCR
                                 00  04D9       	.IIF B <>,	.BYTE	0
                               2028  04DA       	.WORD	$$$
                                     04DC       30691$:
                                 05' 04DC       30692$:	.BYTE	30695$-30692$
                                 00' 04DD       	.BYTE	QUA_K_ISAV
                                 00  04DE       	.IIF B <>,	.BYTE	0
                               2028  04DF       	.WORD	$$$
                                     04E1       30695$:
                                 05' 04E1       30696$:	.BYTE	30699$-30696$
                                 00' 04E2       	.BYTE	QUA_K_LINE
                                 00  04E3       	.IIF B <>,	.BYTE	0
                               0048  04E4       	.WORD	$$$
CMDATBAS1       - COMMAND DATA BASE MODULE 1                     22-AUG-1978 00:56:00   VAX-11 MACRO X0.3-11               Page  35
01              DEFINE DCLS COMMANDS                                                                                             (1)

                                     04E6       30699$:
                                 05' 04E6       30700$:	.BYTE	30703$-30700$
                                 00' 04E7       	.BYTE	QUA_K_LIST
                                 00  04E8       	.IIF B <>,	.BYTE	0
                               082C  04E9       	.WORD	$$$
                                     04EB       30703$:
                                 05' 04EB       30704$:	.BYTE	30707$-30704$
                                 00' 04EC       	.BYTE	QUA_K_LOWE
                                 00  04ED       	.IIF B <>,	.BYTE	0
                               0048  04EE       	.WORD	$$$
                                     04F0       30707$:
                                 05' 04F0       30708$:	.BYTE	30711$-30708$
                                 00' 04F1       	.BYTE	QUA_K_OUTP
                                 00  04F2       	.IIF B <>,	.BYTE	0
                               082C  04F3       	.WORD	$$$
                                     04F5       30711$:
                                 05' 04F5       30712$:	.BYTE	30715$-30712$
                                 00' 04F6       	.BYTE	QUA_K_PLIN
                                 00  04F7       	.IIF B <>,	.BYTE	0
                               2028  04F8       	.WORD	$$$
                                     04FA       30715$:
                                 05' 04FA       30716$:	.BYTE	30719$-30716$
                                 00' 04FB       	.BYTE	QUA_K_READ
                                 00  04FC       	.IIF B <>,	.BYTE	0
                               0048  04FD       	.WORD	$$$
                                     04FF       30719$:
                                 05' 04FF       30720$:	.BYTE	30723$-30720$
                                 00' 0500       	.BYTE	QUA_K_SAVE
                                 00  0501       	.IIF B <>,	.BYTE	0
                               2028  0502       	.WORD	$$$
                                     0504       30723$:
                                 06' 0504       30724$:	.BYTE	30727$-30724$
                                 00' 0505       	.BYTE	QUA_K_SLP
                                 00  0506       	.IIF B <>,	.BYTE	0
                               0408  0507       	.WORD	$$$
                                 00' 0509       	.BYTE	IMG_K_BACKTRANS
                                     050A       30727$:
                                 06' 050A       30728$:	.BYTE	30731$-30728$
                                 00' 050B       	.BYTE	QUA_K_SOS
                                 00  050C       	.IIF B <>,	.BYTE	0
                               0408  050D       	.WORD	$$$
                                 00' 050F       	.BYTE	IMG_K_BACKTRANS
                                     0510       30731$:
                                 05' 0510       30732$:	.BYTE	30735$-30732$
                                 00' 0511       	.BYTE	QUA_K_STAR
                                 00  0512       	.IIF B <>,	.BYTE	0
                               2028  0513       	.WORD	$$$
                                     0515       30735$:
                                 05' 0515       30736$:	.BYTE	30739$-30736$
                                 00' 0516       	.BYTE	QUA_K_STEP
                                 00  0517       	.IIF B <>,	.BYTE	0
                               2028  0518       	.WORD	$$$
                                     051A       30739$:
                                 05' 051A       30740$:	.BYTE	30743$-30740$
                                 00' 051B       	.BYTE	QUA_K_TRUN
                                 00  051C       	.IIF B <>,	.BYTE	0
                               2068  051D       	.WORD	$$$
CMDATBAS1       - COMMAND DATA BASE MODULE 1                     22-AUG-1978 00:56:00   VAX-11 MACRO X0.3-11               Page  36
01              DEFINE DCLS COMMANDS                                                                                             (1)

                                     051F       30743$:
                                 05' 051F       30744$:	.BYTE	30747$-30744$
                                 00' 0520       	.BYTE	QUA_K_TAB_
                                 00  0521       	.IIF B <>,	.BYTE	0
                               0048  0522       	.WORD	$$$
                                     0524       30747$:
                           0000051F  0524       .=$QUALBLK$
                                 00  051F       	.BYTE	0
                                 000004C3       	.RESTORE
                                     04C3   294
                                     04C3   295 	DEFCMD	EOD,-			; DEFINE EOD COMMAND
                                     04C3   296 		QUAL  =NO,-		; NO QUALIFIERS ALLOWED
                                     04C3   297 		MINPRM=0,-		; MINIMUM PARAMETER COUNT
                                     04C3   298 		MAXPRM=0,-		; MAXIMUM PARAMETERS ALLOWED
                                     04C3   299 		DEFIMG=EOD,-		; DEFAULT IMAGE OR ROUTINE NAME
                                     04C3   300 		FLAGS =<IMMED,NOSTAT>	; COMMAND PROCESSING FLAGS
                                     04C3       	.LIST
                                 00000064       	.PSECT	DCL$VERBTBL,BYTE,RD,NOWRT
                                 C5  0064       	.BYTE	^A/E/!$XX$
                                 4F  0065       	.BYTE	^A/O/!$XX$
                                 44  0066       	.BYTE	^A/D/!$XX$
                                 20  0067       	.ASCII	\ \
                                     0068       	.LIST
                                 00000032       	.PSECT	DCL$COMDPTR,BYTE,RD,NOWRT
                               04F0' 0032       	.WORD	VERB_G_EOD-.-2
                                     0034       	.LIST
                                 00000524       	.PSECT	DCL$CMDATA,BYTE,RD,NOWRT
                                     0524       VERB_G_EOD:
                                 15  0524       	.BYTE	CLI$K_VERB_EOD
                                 00  0525       	.BYTE	0*16+0
                                 00' 0526       	.BYTE	IMG_K_EOD
                                 00  0527       	.BYTE	0
                                 00  0528       	.BYTE	0
                                 0A  0529       	.BYTE	$$$
                                     052A   301
                                     052A   302 	DEFCMD	EOJ,-			; DEFINE EOJ COMMAND
                                     052A   303 		QUAL  =NO,-		; NO QUALIFIERS ALLOWED
                                     052A   304 		MINPRM=0,-		; MINIMUM PARAMETER COUNT
                                     052A   305 		MAXPRM=0,-		; MAXIMUM PARAMETERS ALLOWED
                                     052A   306 		DEFIMG=LOGOUT		; DEFAULT IMAGE OR ROUTINE NAME
                                     052A       	.LIST
                                 00000068       	.PSECT	DCL$VERBTBL,BYTE,RD,NOWRT
                                 C5  0068       	.BYTE	^A/E/!$XX$
                                 4F  0069       	.BYTE	^A/O/!$XX$
                                 4A  006A       	.BYTE	^A/J/!$XX$
                                 20  006B       	.ASCII	\ \
                                     006C       	.LIST
                                 00000034       	.PSECT	DCL$COMDPTR,BYTE,RD,NOWRT
                               04F4' 0034       	.WORD	VERB_G_EOJ-.-2
                                     0036       	.LIST
                                 0000052A       	.PSECT	DCL$CMDATA,BYTE,RD,NOWRT
                                     052A       VERB_G_EOJ:
                                 00  052A       	.BYTE	0
                                 00  052B       	.BYTE	0*16+0
                                 00' 052C       	.BYTE	IMG_K_LOGOUT
                                 00  052D       	.BYTE	0
                                 00  052E       	.BYTE	0
CMDATBAS1       - COMMAND DATA BASE MODULE 1                     22-AUG-1978 00:56:00   VAX-11 MACRO X0.3-11               Page  37
01              DEFINE DCLS COMMANDS                                                                                             (1)

                                 00  052F       	.BYTE	$$$
                                     0530   307
                                     0530   308 	DEFCMD	EXIT,-			; DEFINE EXIT COMMAND
                                     0530   309 		QUAL  =NO,-		; NO QUALIFIERS ALLOWED
                                     0530   310 		MINPRM=0,-		; MINIMUM PARAMETER COUNT
                                     0530   311 		MAXPRM=0,-		; MAXIMUM PARAMETERS ALLOWED
                                     0530   312 		DEFIMG=EXIT,-		; DEFAULT IMAGE OR ROUTINE NAME
                                     0530   313 		FLAGS =<IMMED>		; COMMAND PROCESSING FLAGS
                                     0530       	.LIST
                                 0000006C       	.PSECT	DCL$VERBTBL,BYTE,RD,NOWRT
                                 C5  006C       	.BYTE	^A/E/!$XX$
                                 58  006D       	.BYTE	^A/X/!$XX$
                                 49  006E       	.BYTE	^A/I/!$XX$
                                 54  006F       	.BYTE	^A/T/!$XX$
                                     0070       	.LIST
                                 00000036       	.PSECT	DCL$COMDPTR,BYTE,RD,NOWRT
                               04F8' 0036       	.WORD	VERB_G_EXIT-.-2
                                     0038       	.LIST
                                 00000530       	.PSECT	DCL$CMDATA,BYTE,RD,NOWRT
                                     0530       VERB_G_EXIT:
                                 17  0530       	.BYTE	CLI$K_VERB_EXIT
                                 00  0531       	.BYTE	0*16+0
                                 00' 0532       	.BYTE	IMG_K_EXIT
                                 00  0533       	.BYTE	0
                                 00  0534       	.BYTE	0
                                 02  0535       	.BYTE	$$$
                                     0536   314
                                     0536   315 	.END
CMDATBAS1       - COMMAND DATA BASE MODULE 1                     22-AUG-1978 00:56:00   VAX-11 MACRO X0.3-11               Page  38
SYMBOL TABLE                                                                                                                     (1)

$$$            = 00000002            CLI$K_COBO_C74 = 0000000E            CLI$K_DELE_BEFO= 00000008
$$$GBL         = 00000000            CLI$K_COBO_C79 = 0000000F            CLI$K_DELE_CONF= 00000005
$DCLDEFQUALBLK$= 00000001            CLI$K_COBO_CHEC= 00000018            CLI$K_DELE_CREA= 00000001
$PMTCNT$       = 00000001            CLI$K_COBO_COND= 00000016            CLI$K_DELE_ENTR= 00000002
$QUALBLK$      = 0000051F R     0A   CLI$K_COBO_COPY= 00000007            CLI$K_DELE_EXPI= 00000009
$QUALNUM$      = 00000014            CLI$K_COBO_CROS= 00000005            CLI$K_DELE_LOG = 00000006
$XX$           = 00000000            CLI$K_COBO_DATA= 00000011            CLI$K_DELE_MODI= 00000003
ALLO_G_PRMPT     00000006 R     0A   CLI$K_COBO_DEBU= 00000017            CLI$K_DELE_QUEU= 00000004
ANAL_G_PRMPT     00000012 R     0A   CLI$K_COBO_LIST= 00000001            CLI$K_DELE_SINC= 00000007
APPE_G_PRMPT     0000005C R     0A   CLI$K_COBO_MACH= 00000010            CLI$K_DELE_SYMB= 0000000A
ASSI_G_PRMPT     000000A7 R     0A   CLI$K_COBO_MAP = 00000004            CLI$K_DIFF_CHAN= 00000001
BASI_G_PRMPT     000000D6 R     0A   CLI$K_COBO_NAME= 0000000B            CLI$K_DIFF_COMM= 00000002
BIT...         = 00000008            CLI$K_COBO_NEST= 00000009            CLI$K_DIFF_IGNO= 00000003
BLIS_G_PRMPT     000000E2 R     0A   CLI$K_COBO_OBJE= 00000002            CLI$K_DIFF_LINE= 00000004
CANC_G_PRMPT     0000018F R     0A   CLI$K_COBO_OVER= 0000000D            CLI$K_DIFF_MATC= 00000005
CLI$K_ANAL_DBG = 00000008            CLI$K_COBO_PROC= 00000012            CLI$K_DIFF_MAXI= 00000006
CLI$K_ANAL_EOM = 00000001            CLI$K_COBO_RSX1= 00000003            CLI$K_DIFF_MERG= 00000007
CLI$K_ANAL_GSD = 00000002            CLI$K_COBO_SEGM= 0000000C            CLI$K_DIFF_MODE= 00000008
CLI$K_ANAL_INTE= 00000003            CLI$K_COBO_SEQU= 00000015            CLI$K_DIFF_OUTP= 00000009
CLI$K_ANAL_MHD = 00000004            CLI$K_COBO_TERM= 00000019            CLI$K_DIFF_SEPA= 0000000A
CLI$K_ANAL_OUTP= 00000005            CLI$K_COBO_TRUN= 00000014            CLI$K_DIFF_SLP = 0000000B
CLI$K_ANAL_TBT = 00000007            CLI$K_COBO_VERB= 0000000A            CLI$K_DIFF_WIND= 0000000C
CLI$K_ANAL_TIR = 00000006            CLI$K_COBO_WARN= 00000008            CLI$K_DIRE_BRIE= 00000001
CLI$K_APPE_ALIG= 00000001            CLI$K_COBO_WIDT= 00000013            CLI$K_DIRE_COLU= 00000002
CLI$K_APPE_ALLO= 00000002            CLI$K_COPY_ALIG= 00000001            CLI$K_DIRE_FULL= 00000004
CLI$K_APPE_CONT= 00000004            CLI$K_COPY_ALLO= 00000002            CLI$K_DIRE_OUTP= 00000005
CLI$K_APPE_EXTE= 00000006            CLI$K_COPY_CONC= 00000004            CLI$K_DIRE_PRIN= 00000006
CLI$K_APPE_FILE= 00000007            CLI$K_COPY_CONT= 00000005            CLI$K_DISM_UNLO= 00000001
CLI$K_APPE_LOG = 0000000B            CLI$K_COPY_EXTE= 00000007            CLI$K_DLSY_ALL = 00000001
CLI$K_APPE_MAXI= 0000000D            CLI$K_COPY_FILE= 00000008            CLI$K_DLSY_GLOB= 00000002
CLI$K_APPE_NEW_= 00000008            CLI$K_COPY_LOG = 0000000E            CLI$K_DLSY_LOCA= 00000003
CLI$K_APPE_PROT= 00000009            CLI$K_COPY_NEW_= 00000015            CLI$K_DUMP_ASCI= 00000001
CLI$K_APPE_READ= 0000000A            CLI$K_COPY_OVER= 0000000A            CLI$K_DUMP_BLOC= 00000002
CLI$K_APPE_WRIT= 0000000C            CLI$K_COPY_PROT= 0000000B            CLI$K_DUMP_BYTE= 00000003
CLI$K_ASSI_GROU= 00000002            CLI$K_COPY_READ= 0000000C            CLI$K_DUMP_DECI= 00000004
CLI$K_ASSI_MERG= 00000007            CLI$K_COPY_REPL= 0000000D            CLI$K_DUMP_HEAD= 00000005
CLI$K_ASSI_PROC= 00000003            CLI$K_COPY_RSX1= 00000014            CLI$K_DUMP_HEXA= 00000006
CLI$K_ASSI_QUEU= 00000006            CLI$K_COPY_TRUN= 00000011            CLI$K_DUMP_LONG= 00000007
CLI$K_ASSI_SUPE= 00000005            CLI$K_COPY_WRIT= 00000010            CLI$K_DUMP_NUMB= 00000008
CLI$K_ASSI_SYST= 00000001            CLI$K_COPY_ZZZZ= 00000007            CLI$K_DUMP_OCTA= 00000009
CLI$K_ASSI_USER= 00000004            CLI$K_CREA_DIRE= 00000001            CLI$K_DUMP_OUTP= 0000000A
CLI$K_BLIS_CODE= 00000003            CLI$K_CREA_OWNE= 00000002            CLI$K_DUMP_PRIN= 0000000B
CLI$K_BLIS_DEBU= 00000004            CLI$K_CREA_PROT= 00000003            CLI$K_DUMP_RECO= 0000000C
CLI$K_BLIS_LIBR= 0000000B            CLI$K_DEAL_ALL = 00000001            CLI$K_DUMP_TERM= 0000000D
CLI$K_BLIS_LIST= 00000001            CLI$K_DEAS_ALL = 00000004            CLI$K_DUMP_WORD= 0000000E
CLI$K_BLIS_MACH= 0000000A            CLI$K_DEAS_GROU= 00000002            CLI$K_EDIT_AUDI= 00000001
CLI$K_BLIS_OBJE= 00000002            CLI$K_DEAS_PROC= 00000003            CLI$K_EDIT_DECI= 00000002
CLI$K_BLIS_OPTI= 00000009            CLI$K_DEAS_QUEU= 00000007            CLI$K_EDIT_EXAC= 00000003
CLI$K_BLIS_QUIC= 00000005            CLI$K_DEAS_SUPE= 00000006            CLI$K_EDIT_EXPE= 00000004
CLI$K_BLIS_SOUR= 00000008            CLI$K_DEAS_SYST= 00000001            CLI$K_EDIT_INCR= 00000005
CLI$K_BLIS_TERM= 00000007            CLI$K_DEAS_USER= 00000005            CLI$K_EDIT_ISAV= 00000006
CLI$K_BLIS_TRAC= 0000000C            CLI$K_DECK_DOLL= 00000001            CLI$K_EDIT_LINE= 00000007
CLI$K_BLIS_VARI= 00000006            CLI$K_DEFI_GROU= 00000002            CLI$K_EDIT_LIST= 00000008
CLI$K_CANC_IDEN= 00000001            CLI$K_DEFI_PROC= 00000003            CLI$K_EDIT_LOWE= 00000009
CLI$K_CLOS_END_= 00000001            CLI$K_DEFI_SUPE= 00000005            CLI$K_EDIT_OUTP= 0000000A
CLI$K_CLOS_ERRO= 00000002            CLI$K_DEFI_SYST= 00000001            CLI$K_EDIT_PLIN= 0000000B
CLI$K_COBO_ANSI= 00000006            CLI$K_DEFI_USER= 00000004            CLI$K_EDIT_READ= 0000000C
CMDATBAS1       - COMMAND DATA BASE MODULE 1                     22-AUG-1978 00:56:00   VAX-11 MACRO X0.3-11               Page  39
SYMBOL TABLE                                                                                                                     (1)

CLI$K_EDIT_SAVE= 0000000D            CLI$K_VERB_RENA= 00000032            CLI$_NOQUAL    = 000380C8
CLI$K_EDIT_SLP = 0000000E            CLI$K_VERB_REPL= 0000002D            CLI$_NORMAL    = 00030001
CLI$K_EDIT_SOS = 0000000F            CLI$K_VERB_REQU= 00000036            CLI$_NOTNEG    = 000380D8
CLI$K_EDIT_STAR= 00000010            CLI$K_VERB_RUN = 00000024            CLI$_NOVALU    = 000380D0
CLI$K_EDIT_STEP= 00000011            CLI$K_VERB_SET = 00000025            CLI$_NOVALUE   = 0003882A
CLI$K_EDIT_TAB_= 00000013            CLI$K_VERB_SHOW= 00000026            CLI$_NULFIL    = 000380E0
CLI$K_EDIT_TRUN= 00000012            CLI$K_VERB_SORT= 00000035            CLI$_NUMBER    = 000380E8
CLI$K_EXAM_ASCI= 00000001            CLI$K_VERB_STAR= 00000027            CLI$_ONCOMD    = 000380F0
CLI$K_EXAM_BYTE= 00000002            CLI$K_VERB_STOP= 00000028            CLI$_ONERR     = 000380F8
CLI$K_EXAM_DECI= 00000003            CLI$K_VERB_SUBM= 00000029            CLI$_ONEVAL    = 00038158
CLI$K_EXAM_HEXA= 00000004            CLI$K_VERB_SYNC= 00000037            CLI$_ONLEVL    = 00038100
CLI$K_EXAM_LONG= 00000005            CLI$K_VERB_TYPE= 0000002A            CLI$_ONOVF     = 00038108
CLI$K_EXAM_OCTA= 00000006            CLI$K_VERB_UNLO= 0000002E            CLI$_OVRFLW    = 00038160
CLI$K_EXAM_WORD= 00000007            CLI$_ABFNAM    = 000381B8            CLI$_PARMDEL   = 00038110
CLI$K_VERB_ALLO= 00000001            CLI$_ABKEYW    = 00038000            CLI$_PROC_ID   = 0003FFF1
CLI$K_VERB_ANAL= 00000002            CLI$_ABVERB    = 00038008            CLI$_QUEJOBCRE = 0003FFF9
CLI$K_VERB_APPE= 0000002F            CLI$_BADRET    = 00038198            CLI$_REQPRMABS = 00038812
CLI$K_VERB_ASSI= 00000003            CLI$_BADTEXT   = 000381B0            CLI$_RSLOVF    = 00038118
CLI$K_VERB_BASI= 00000004            CLI$_BUFOVF    = 00038018            CLI$_SKPDAT    = 00038120
CLI$K_VERB_BLIS= 00000005            CLI$_COMPLX    = 00038020            CLI$_SPARE0    = 00038010
CLI$K_VERB_CANC= 00000033            CLI$_CONFQUAL  = 00038802            CLI$_SPARE1    = 00038058
CLI$K_VERB_COBO= 00000006            CLI$_CREQUEJOB = 0003884A            CLI$_STKOVF    = 00038128
CLI$K_VERB_CONT= 00000007            CLI$_DEFOVF    = 00038028            CLI$_SUBMITERR = 00038852
CLI$K_VERB_COPY= 00000008            CLI$_DEVALSPL  = 0003885A            CLI$_SYMDEL    = 00038130
CLI$K_VERB_CREA= 00000009            CLI$_DEVNOTFOR = 0003887A            CLI$_SYMOVF    = 00038138
CLI$K_VERB_DATA= 0000000A            CLI$_DEVNOTSPL = 00038862            CLI$_UNDFIL    = 00038188
CLI$K_VERB_DEAL= 0000000B            CLI$_DIRECT    = 00038030            CLI$_UNDSYM    = 00038140
CLI$K_VERB_DEAS= 0000000C            CLI$_EXPSYN    = 00038038            CLI$_UNPROPARM = 00038170
CLI$K_VERB_DEBU= 0000000D            CLI$_FILOPN    = 00038190            CLI$_UNPROQUAL = 00038168
CLI$K_VERB_DEFI= 0000000E            CLI$_ILLVAL    = 0003883A            CLI$_USGOTO    = 00038148
CLI$K_VERB_DELE= 0000000F            CLI$_IMCHNG    = 00038040            CLI$_VALCNVERR = 00038832
CLI$K_VERB_DEPO= 00000010            CLI$_IMGFNF    = 00038872            CLI$_VALREQ    = 00038150
CLI$K_VERB_DIFF= 00000011            CLI$_INSFPRM   = 00038048            CLOS_G_PRMPT     0000019C R     0A
CLI$K_VERB_DIRE= 00000012            CLI$_INVKEY    = 00038178            CMD_AB_PAROUT    00000006
CLI$K_VERB_DISM= 00000013            CLI$_INVQUAL   = 0003880A            CMD_B_DEFIMG     00000002
CLI$K_VERB_DUMP= 00000030            CLI$_INVQUALNUM= 0003881A            CMD_B_FLAGS      00000005
CLI$K_VERB_EDIT= 00000014            CLI$_INVREQTYP = 00038822            CMD_B_PARMCNT    00000001
CLI$K_VERB_EOD = 00000015            CLI$_INVRSP    = 00038180            CMD_B_PROMPT     00000004
CLI$K_VERB_EXAM= 00000016            CLI$_INVUIC    = 000381A8            CMD_B_QUABLK     00000003
CLI$K_VERB_EXIT= 00000017            CLI$_IVCHAR    = 00038050            CMD_B_VERBTYP    00000000
CLI$K_VERB_FORE= 000000FF            CLI$_IVDEVTYPE = 0003886A            CMD_M_ABREV    = 00000020
CLI$K_VERB_FORT= 00000018            CLI$_IVFNAM    = 000381C0            CMD_M_DEFQUAL  = 00000010
CLI$K_VERB_GOTO= 00000019            CLI$_IVKEYW    = 00038060            CMD_M_FOREIGN  = 00000001
CLI$K_VERB_HELP= 0000001A            CLI$_IVOPER    = 00038068            CMD_M_IMMED    = 00000002
CLI$K_VERB_IF  = 0000001B            CLI$_IVPROT    = 00038070            CMD_M_NOSTAT   = 00000008
CLI$K_VERB_INIT= 0000001C            CLI$_IVQLOC    = 00038078            CMD_M_PAROUT   = 00000004
CLI$K_VERB_INQU= 0000001D            CLI$_IVSYMB    = 00038080            CMD_S_MAXPARM  = 00000004
CLI$K_VERB_LIBR= 00000034            CLI$_IVVALU    = 00038088            CMD_S_MINPARM  = 00000004
CLI$K_VERB_LINK= 0000001E            CLI$_IVVERB    = 00038090            CMD_V_ABREV    = 00000005
CLI$K_VERB_LOGO= 0000001F            CLI$_MAXPARM   = 00038098            CMD_V_DEFQUAL  = 00000004
CLI$K_VERB_MACR= 00000020            CLI$_MULKEY    = 000381A0            CMD_V_FOREIGN  = 00000000
CLI$K_VERB_MCR = 00000021            CLI$_NOATFIL   = 000380A0            CMD_V_IMMED    = 00000001
CLI$K_VERB_MOUN= 0000002B            CLI$_NOCCAT    = 000380A8            CMD_V_MAXPARM  = 00000004
CLI$K_VERB_ON  = 00000022            CLI$_NOCOMD    = 000380B0            CMD_V_MINPARM  = 00000000
CLI$K_VERB_PATC= 0000002C            CLI$_NOKEYW    = 000380B8            CMD_V_NOSTAT   = 00000003
CLI$K_VERB_PRIN= 00000023            CLI$_NOLIST    = 000380C0            CMD_V_PAROUT   = 00000002
CLI$K_VERB_PURG= 00000031            CLI$_NOOPTPRS  = 00038842            COBO_G_PRMPT     000001B1 R     0A
CMDATBAS1       - COMMAND DATA BASE MODULE 1                     22-AUG-1978 00:56:00   VAX-11 MACRO X0.3-11               Page  40
SYMBOL TABLE                                                                                                                     (1)

COPY_G_PRMPT     00000241 R     0A   PRO_K_SYMBOL     ********   X   0A   QUA_K_COND       ********   X   0A
CREA_G_PRMPT     000002BC R     0A   PRO_K_TO         ********   X   0A   QUA_K_CONT       ********   X   0A
DCL$AB_USRCMD    00000000 RG    07   PRO_M_CONCAT   = 00000001            QUA_K_COPY       ********   X   0A
DCL$AB_USREND    00000000 RG    08   PRO_M_IMPCAT   = 00000002            QUA_K_CREA       ********   X   0A
DCL$AB_VERBEND   00000000 RG    04   PRO_M_LIST     = 00000004            QUA_K_CROS       ********   X   0A
DCL$AB_VERBTBL   00000000 RG    03   PRO_M_OPTION   = 00000008            QUA_K_DATA       ********   X   0A
DCL$AW_COMDEND   00000000 RG    06   PRO_M_REQ      = 00000010            QUA_K_DEBU       ********   X   0A
DCL$AW_COMDPTR   00000000 RG    05   PRO_M_STRING   = 00000020            QUA_K_DECI       ********   X   0A
DCL$AW_USERPTR   00000000 RG    09   PRO_V_CONCAT   = 00000000            QUA_K_DIRE       ********   X   0A
DCL$G_EXAMQUALS  00000495 RG    0A   PRO_V_IMPCAT   = 00000001            QUA_K_DOLL       ********   X   0A
DEAL_G_PRMPT     000002DB R     0A   PRO_V_LIST     = 00000002            QUA_K_END_       ********   X   0A
DEAS_G_PRMPT     000002EC R     0A   PRO_V_OPTION   = 00000003            QUA_K_ENTR       ********   X   0A
DEFI_G_PRMPT     0000032D R     0A   PRO_V_REQ      = 00000004            QUA_K_ERRO       ********   X   0A
DELE_G_PRMPT     00000350 R     0A   PRO_V_STRING   = 00000005            QUA_K_EXAC       ********   X   0A
DIFF_G_PRMPT     000003C5 R     0A   QUA_B_DEFVAL     00000002            QUA_K_EXPE       ********   X   0A
DIRE_G_PRMPT     0000040D R     0A   QUA_B_IMAGE      00000005            QUA_K_EXTE       ********   X   0A
DISM_G_PRMPT     00000438 R     0A   QUA_B_INDEX      00000001            QUA_K_FILE       ********   X   0A
DUMP_G_PRMPT     00000447 R     0A   QUA_B_OFFSET     00000000            QUA_K_FULL       ********   X   0A
EDIT_G_PRMPT     000004C1 R     0A   QUA_B_PARMCNT    00000008            QUA_K_GLOB       ********   X   0A
GBL...         = 00000000            QUA_G_ANAL       00000014 R     0A   QUA_K_GROU       ********   X   0A
IMG_K_ALLOCATE   ********   X   0A   QUA_G_APPE       00000060 R     0A   QUA_K_HEAD       ********   X   0A
IMG_K_ANALYZ     ********   X   0A   QUA_G_ASSI       000000AB R     0A   QUA_K_HEXA       ********   X   0A
IMG_K_ASSIGN     ********   X   0A   QUA_G_BLIS       000000E4 R     0A   QUA_K_IDEN       ********   X   0A
IMG_K_BACKTRANS  ********   X   0A   QUA_G_CANC       00000191 R     0A   QUA_K_IGNO       ********   X   0A
IMG_K_BLISS32    ********   X   0A   QUA_G_CHNGLST    00000006            QUA_K_INCR       ********   X   0A
IMG_K_CANCEL     ********   X   0A   QUA_G_CLOS       0000019E R     0A   QUA_K_INTE       ********   X   0A
IMG_K_CLOSE      ********   X   0A   QUA_G_COBO       000001B3 R     0A   QUA_K_ISAV       ********   X   0A
IMG_K_COBOL      ********   X   0A   QUA_G_COPY       00000245 R     0A   QUA_K_LIBR       ********   X   0A
IMG_K_CONTINUE   ********   X   0A   QUA_G_CREA       000002BE R     0A   QUA_K_LINE       ********   X   0A
IMG_K_COPY       ********   X   0A   QUA_G_DEAL       000002DD R     0A   QUA_K_LIST       ********   X   0A
IMG_K_DEALLOCAT  ********   X   0A   QUA_G_DEAS       000002EE R     0A   QUA_K_LOCA       ********   X   0A
IMG_K_DEASSIGN   ********   X   0A   QUA_G_DECK       00000322 R     0A   QUA_K_LOG        ********   X   0A
IMG_K_DEBUG      ********   X   0A   QUA_G_DEFI       00000331 R     0A   QUA_K_LONG       ********   X   0A
IMG_K_DECK       ********   X   0A   QUA_G_DELE       00000352 R     0A   QUA_K_LOWE       ********   X   0A
IMG_K_DEFINE     ********   X   0A   QUA_G_DEPO       000002D3 R     0A   QUA_K_MACH       ********   X   0A
IMG_K_DELETE     ********   X   0A   QUA_G_DIFF       000003C9 R     0A   QUA_K_MAP        ********   X   0A
IMG_K_DELSYM     ********   X   0A   QUA_G_DIRE       0000040F R     0A   QUA_K_MATC       ********   X   0A
IMG_K_DEPOSIT    ********   X   0A   QUA_G_DISM       0000043A R     0A   QUA_K_MAXI       ********   X   0A
IMG_K_DISMOUNT   ********   X   0A   QUA_G_DLSY       000003AA R     0A   QUA_K_MERG       ********   X   0A
IMG_K_EOD        ********   X   0A   QUA_G_DUMP       00000449 R     0A   QUA_K_MODE       ********   X   0A
IMG_K_EXAMINE    ********   X   0A   QUA_G_EDIT       000004C3 R     0A   QUA_K_NAME       ********   X   0A
IMG_K_EXIT       ********   X   0A   QUA_G_EXAM       00000495 R     0A   QUA_K_NEST       ********   X   0A
IMG_K_LOGOUT     ********   X   0A   QUA_K_ALIG       ********   X   0A   QUA_K_NEW_       ********   X   0A
IMG_K_QUEMAN     ********   X   0A   QUA_K_ALL        ********   X   0A   QUA_K_NUMB       ********   X   0A
OPI_K_FSTPRM   = FFFFFFFF            QUA_K_ALLO       ********   X   0A   QUA_K_OBJE       ********   X   0A
OPI_K_SCNPRM   = FFFFFFFE            QUA_K_ANSI       ********   X   0A   QUA_K_OCTA       ********   X   0A
PRO_B_FLAGS      00000001            QUA_K_ASCI       ********   X   0A   QUA_K_OPTI       ********   X   0A
PRO_B_PROMPT     00000000            QUA_K_AUDI       ********   X   0A   QUA_K_OUTP       ********   X   0A
PRO_K_DEVICE     ********   X   0A   QUA_K_BLOC       ********   X   0A   QUA_K_OVER       ********   X   0A
PRO_K_EQU_NAME   ********   X   0A   QUA_K_BRIE       ********   X   0A   QUA_K_OWNE       ********   X   0A
PRO_K_FI         ********   X   0A   QUA_K_BYTE       ********   X   0A   QUA_K_PLIN       ********   X   0A
PRO_K_FIL        ********   X   0A   QUA_K_CHAN       ********   X   0A   QUA_K_PRIN       ********   X   0A
PRO_K_FILE       ********   X   0A   QUA_K_CHEC       ********   X   0A   QUA_K_PROC       ********   X   0A
PRO_K_FROM       ********   X   0A   QUA_K_CODE       ********   X   0A   QUA_K_PROT       ********   X   0A
PRO_K_LENGTH     00000002            QUA_K_COLU       ********   X   0A   QUA_K_QUEU       ********   X   0A
PRO_K_LOG_NAME   ********   X   0A   QUA_K_COMM       ********   X   0A   QUA_K_QUIC       ********   X   0A
PRO_K_QUEUE      ********   X   0A   QUA_K_CONC       ********   X   0A   QUA_K_READ       ********   X   0A
CMDATBAS1       - COMMAND DATA BASE MODULE 1                     22-AUG-1978 00:56:00   VAX-11 MACRO X0.3-11               Page  41
SYMBOL TABLE                                                                                                                     (1)

QUA_K_RECO       ********   X   0A   QUA_V_ONEVAL   = 0000000D
QUA_K_REPL       ********   X   0A   QUA_V_OUTPUT   = 0000000B
QUA_K_RSX1       ********   X   0A   QUA_V_PARM     = 00000004
QUA_K_SAVE       ********   X   0A   QUA_V_VAL      = 00000005
QUA_K_SEGM       ********   X   0A   QUA_V_VALREQ   = 0000000C
QUA_K_SEPA       ********   X   0A   QUA_V_VERB     = 00000003
QUA_K_SEQU       ********   X   0A   QUA_W_FLAGS      00000003
QUA_K_SLP        ********   X   0A   QUA_W_PROMPT     00000009
QUA_K_SOS        ********   X   0A   QUA_W_QUALIST    00000006
QUA_K_SOUR       ********   X   0A   VERB_G_ALLO      00000000 R     0A
QUA_K_STAR       ********   X   0A   VERB_G_ANAL      0000000A R     0A
QUA_K_STEP       ********   X   0A   VERB_G_APPE      00000054 R     0A
QUA_K_SUPE       ********   X   0A   VERB_G_ASSI      000000A1 R     0A
QUA_K_SYMB       ********   X   0A   VERB_G_BASI      000000D0 R     0A
QUA_K_SYST       ********   X   0A   VERB_G_BLIS      000000D8 R     0A
QUA_K_TAB_       ********   X   0A   VERB_G_CANC      00000189 R     0A
QUA_K_TERM       ********   X   0A   VERB_G_CLOS      00000196 R     0A
QUA_K_TRAC       ********   X   0A   VERB_G_COBO      000001A8 R     0A
QUA_K_TRUN       ********   X   0A   VERB_G_CONT      00000183 R     0A
QUA_K_UNLO       ********   X   0A   VERB_G_COPY      00000239 R     0A
QUA_K_USER       ********   X   0A   VERB_G_CREA      000002B6 R     0A
QUA_K_VARI       ********   X   0A   VERB_G_DEAL      000002D5 R     0A
QUA_K_VERB       ********   X   0A   VERB_G_DEAS      000002E6 R     0A
QUA_K_WARN       ********   X   0A   VERB_G_DEBU      00000316 R     0A
QUA_K_WIDT       ********   X   0A   VERB_G_DECK      0000031C R     0A
QUA_K_WIND       ********   X   0A   VERB_G_DEFI      00000327 R     0A
QUA_K_WORD       ********   X   0A   VERB_G_DELE      0000034A R     0A
QUA_K_WRIT       ********   X   0A   VERB_G_DEPO      000002CD R     0A
QUA_K_ZZZZ       ********   X   0A   VERB_G_DIFF      000003BD R     0A
QUA_M_BATDEF   = 00000100            VERB_G_DIRE      00000405 R     0A
QUA_M_CHNGLIST = 00000001            VERB_G_DISM      00000432 R     0A
QUA_M_DEFTRUE  = 00000080            VERB_G_DUMP      0000043F R     0A
QUA_M_FILE     = 00000004            VERB_G_EDIT      000004B8 R     0A
QUA_M_IMAGE    = 00000400            VERB_G_EOD       00000524 R     0A
QUA_M_INTDEF   = 00000200            VERB_G_EOJ       0000052A R     0A
QUA_M_KEYVAL   = 00004000            VERB_G_EXAM      0000048F R     0A
QUA_M_LOCALKEY = 00000002            VERB_G_EXIT      00000530 R     0A
QUA_M_NEG      = 00000040
QUA_M_ONEVAL   = 00002000
QUA_M_OUTPUT   = 00000800
QUA_M_PARM     = 00000010
QUA_M_VAL      = 00000020
QUA_M_VALREQ   = 00001000
QUA_M_VERB     = 00000008
QUA_S_MAXPARM  = 00000004
QUA_S_MINPARM  = 00000004
QUA_V_BATDEF   = 00000008
QUA_V_CHNGLIST = 00000000
QUA_V_DEFTRUE  = 00000007
QUA_V_FILE     = 00000002
QUA_V_IMAGE    = 0000000A
QUA_V_INTDEF   = 00000009
QUA_V_KEYVAL   = 0000000E
QUA_V_LOCALKEY = 00000001
QUA_V_MAXPARM  = 00000004
QUA_V_MINPARM  = 00000000
QUA_V_NEG      = 00000006
CMDATBAS1       - COMMAND DATA BASE MODULE 1                     22-AUG-1978 00:56:00   VAX-11 MACRO X0.3-11               Page  42
PROGRAM SECTION SYNOPSIS                                                                                                         (1)


PROGRAM SECTION SYNOPSIS

.  ABS  .        00000000      00     NOPIC   USR   CON   ABS   LCL NOSHR NOEXE NORD  NOWRT BYTE
. BLANK .        00000000      01     NOPIC   USR   CON   REL   LCL NOSHR   EXE   RD    WRT BYTE
$ABS$            0000000B      02     NOPIC   USR   CON   ABS   LCL NOSHR   EXE   RD    WRT BYTE
DCL$VERBTBL      00000070      03     NOPIC   USR   CON   REL   LCL NOSHR   EXE   RD  NOWRT BYTE
DCL$VERBTBM      00000000      04     NOPIC   USR   CON   REL   LCL NOSHR   EXE   RD  NOWRT BYTE
DCL$COMDPTR      00000038      05     NOPIC   USR   CON   REL   LCL NOSHR   EXE   RD  NOWRT BYTE
DCL$COMDPTS      00000000      06     NOPIC   USR   CON   REL   LCL NOSHR   EXE   RD  NOWRT BYTE
DCL$USRCMD$$     00000000      07     NOPIC   USR   CON   REL   LCL NOSHR   EXE   RD  NOWRT BYTE
DCL$USRCMD$_     00000000      08     NOPIC   USR   CON   REL   LCL NOSHR   EXE   RD  NOWRT BYTE
DCL$USRCPT$$     00000000      09     NOPIC   USR   CON   REL   LCL NOSHR   EXE   RD  NOWRT BYTE
DCL$CMDATA       00000536      0A     NOPIC   USR   CON   REL   LCL NOSHR   EXE   RD  NOWRT BYTE


THERE WERE NO ERRORS OR WARNINGS.
1280. BYTES LEFT IN FREE MEMORY POOL.
964. BYTES OF RECLAIMED MEMORY.
EXE$:CMDATBAS1,LIS$:CMDATBAS1/-SP=EXECML$/ML,LIB$:DCL/ML,SRC$:CMDATBAS1
82 MLB DIR RDS - 863 GETS TO DEFINE 44 MACROS. 335 INTER. FILE WRITES.
