CMDATBAS2       - COMMAND DATA BASE MODULE 2                     22-AUG-1978 00:59:08   VAX-11 MACRO X0.3-11               Page   0
TABLE OF CONTENTS

   (1)      46  DEFINE DCLS COMMANDS
CMDATBAS2       - COMMAND DATA BASE MODULE 2                     22-AUG-1978 00:59:08   VAX-11 MACRO X0.3-11               Page   1
01                                                                                                                               (1)

                                     0000     1 	.TITLE	CMDATBAS2 - COMMAND DATA BASE MODULE 2
                                     0000     2 	.IDENT	/01/
                                     0000     3
                                     0000     4 ;
                                     0000     5 ; COPYRIGHT (C) 1977
                                     0000     6 ; DIGITAL EQUIPMENT CORPORATION, MAYNARD, MASSACHUSETTS 01754
                                     0000     7 ;
                                     0000     8 ; THIS SOFTWARE IS FURNISHED  UNDER A LICENSE FOR USE ONLY ON A SINGLE
                                     0000     9 ; COMPUTER  SYSTEM AND  MAY BE  COPIED ONLY WITH  THE INCLUSION OF THE
                                     0000    10 ; ABOVE COPYRIGHT NOTICE.  THIS SOFTWARE, OR ANY OTHER COPIES THEREOF,
                                     0000    11 ; MAY NOT BE PROVIDED OR  OTHERWISE MADE AVAILABLE TO ANY OTHER PERSON
                                     0000    12 ; EXCEPT FOR USE ON SUCH SYSTEM AND TO ONE WHO AGREES TO THESE LICENSE
                                     0000    13 ; TERMS.  TITLE TO AND  OWNERSHIP OF THE  SOFTWARE  SHALL AT ALL TIMES
                                     0000    14 ; REMAIN IN DEC.
                                     0000    15 ;
                                     0000    16 ; THE INFORMATION IN THIS SOFTWARE IS SUBJECT TO CHANGE WITHOUT NOTICE
                                     0000    17 ; AND SHOULD  NOT BE CONSTRUED  AS A COMMITMENT  BY DIGITAL  EQUIPMENT
                                     0000    18 ; CORPORATION.
                                     0000    19 ;
                                     0000    20 ; DEC ASSUMES  NO  RESPONSIBILITY  FOR  THE USE OR  RELIABILITY OF ITS
                                     0000    21 ; SOFTWARE ON EQUIPMENT WHICH IS NOT SUPPLIED BY DEC.
                                     0000    22 ;
                                     0000    23 ; D. N. CUTLER 30-MAR-77
                                     0000    24 ;
                                     0000    25 ; DCLS COMMAND INTERPRETER DATA BASE
                                     0000    26 ;
                                     0000    27 ; MACRO LIBRARY CALLS
                                     0000    28 ;
                                     0000    29
                                     0000    30 	$CLIVERBDEF			;DEFINE VERB GENERIC TYPES
                                     0000    31 	DEFERRCOD			;DEFINE ERROR/STATUS VALUES
                                     0000    32 	DEFOPIDCL			;DCL OUTPUT RESULT PARSE INDIACTORS
                                     0000    33
                                     0000    34 ;
                                     0000    35 ; LOCAL MACROS
                                     0000    36
                                     0000    37
                                     0000    38 ;
                                     0000    39 ; LOCAL SYMBOLS
                                     0000    40 ;
                                     0000    41
                           00000001  0000    42 $DCLDEFQUALBLK$=1			; DEFINE THE QUALIFIER BOLCKS
                                     0000    43
                                     0000    44 	.LIST	MEB
CMDATBAS2       - COMMAND DATA BASE MODULE 2                     22-AUG-1978 00:59:08   VAX-11 MACRO X0.3-11               Page   2
01              DEFINE DCLS COMMANDS                                                                                             (1)

                                     0000    46 	.SBTTL	DEFINE DCLS COMMANDS
                                     0000    47
                                     0000    48 	DEFCMD	FORT,-
                                     0000    49 		QUAL  =YES,-
                                     0000    50 		MINPRM=1,-
                                     0000    51 		MAXPRM=1,-
                                     0000    52 		DEFIMG=BACKTRANS,-
                                     0000    53 		OUTPRS=<CLI$K_FORT_OBJE,CLI$K_FORT_LIST>,-
                                     0000    54 		PRMPTS=<<FILE,<REQ,CONCAT,LIST>>>
                                     0000       	.SAVE
                                 00000000       	.PSECT	$ABS$,ABS
                                     0000       CMD_B_VERBTYP:
                           00000001  0000       	.BLKB	1
                                     0001       CMD_B_PARMCNT:
                           00000002  0001       	.BLKB	1
                                     0002       CMD_B_DEFIMG:
                           00000003  0002       	.BLKB	1
                                     0003       CMD_B_QUABLK:
                           00000004  0003       	.BLKB	1
                                     0004       CMD_B_PROMPT:
                           00000005  0004       	.BLKB	1
                                     0005       CMD_B_FLAGS:
                           00000006  0005       	.BLKB	1
                                     0006       CMD_AB_PAROUT:
                           00000007  0006       	.BLKB	1
                                     0000       	.RESTORE
                                     0000       	.SAVE
                                 00000007       	.PSECT	$ABS$,ABS
                           00000000  0007       	.=0
                                     0000       PRO_B_PROMPT:
                           00000001  0000       	.BLKB	1
                                     0001       PRO_B_FLAGS:
                           00000002  0001       	.BLKB	1
                                     0002       PRO_K_LENGTH:
                                     0000       	.RESTORE
                                     0000       	.LIST
                                 00000000       	.PSECT	DCL$VERBTBL,BYTE,RD,NOWRT
                                 C6  0000       	.BYTE	^A/F/!$XX$
                                 4F  0001       	.BYTE	^A/O/!$XX$
                                 52  0002       	.BYTE	^A/R/!$XX$
                                 54  0003       	.BYTE	^A/T/!$XX$
                                     0004       	.LIST
                                 00000000       	.PSECT	DCL$COMDPTR,BYTE,RD,NOWRT
                               FFFE' 0000       	.WORD	VERB_G_FORT-.-2
                                     0002       	.LIST
                                 00000000       	.PSECT	DCL$CMDATA,BYTE,RD,NOWRT
                                     0000       VERB_G_FORT:
                                 18  0000       	.BYTE	CLI$K_VERB_FORT
                                 11  0001       	.BYTE	1*16+1
                                 00' 0002       	.BYTE	IMG_K_BACKTRANS
                                 07' 0003       	.BYTE	QUA_G_FORT-.-1
                                 04' 0004       	.BYTE	FORT_G_PRMPT-.-1
                                 04  0005       	.BYTE	$$$
                                 02' 0006       	.BYTE	30000$-.-1
                                 08' 0007       	.BYTE	CLI$K_FORT_OBJE
                                 06' 0008       	.BYTE	CLI$K_FORT_LIST
                                     0009       30000$:
CMDATBAS2       - COMMAND DATA BASE MODULE 2                     22-AUG-1978 00:59:08   VAX-11 MACRO X0.3-11               Page   3
01              DEFINE DCLS COMMANDS                                                                                             (1)

                                     0009       FORT_G_PRMPT:
                                 00' 0009       	.BYTE	PRO_K_FILE
                                 15  000A       	.IIF NB	<BYTE>, .BYTE $$$
                                     000B       	.SAVE
                                 00000007       	.PSECT	$ABS$,ABS
                           00000000  0007       	.=0
                                     0000       QUA_B_OFFSET:
                           00000001  0000       	.BLKB	1
                                     0001       QUA_B_INDEX:
                           00000002  0001       	.BLKB	1
                                     0002       QUA_B_DEFVAL:
                           00000003  0002       	.BLKB	1
                                     0003       QUA_W_FLAGS:
                           00000005  0003       	.BLKW	1
                                     0005       QUA_B_IMAGE:
                           00000006  0005       	.BLKB	1
                                     0006       QUA_G_CHNGLST:
                                     0006       QUA_W_QUALIST:
                           00000008  0006       	.BLKW	1
                                     0008       QUA_B_PARMCNT:
                           00000009  0008       	.BLKB	1
                                     0009       QUA_W_PROMPT:
                           0000000B  0009       	.BLKW	1
                                 0000000B       	.RESTORE
                                     000B       	.SAVE
                                 0000000B       	.PSECT	DCL$CMDATA,BYTE,RD,NOWRT
                                     000B       QUA_G_FORT:
                                 05' 000B       30001$:	.BYTE	30004$-30001$
                                 00' 000C       	.BYTE	QUA_K_CHEC
                                 00  000D       	.IIF B <>,	.BYTE	0
                               0068  000E       	.WORD	$$$
                                     0010       30004$:
                                 08' 0010       30005$:	.BYTE	30008$-30005$
                                 00' 0011       	.BYTE	QUA_K_CONT
                                 05' 0012       	.IIF NB	<19>,	.BYTE	30006$-30005$
                               2028  0013       	.WORD	$$$
                           39 31 00' 0015       30006$:	.ASCIC	\19\
                                 02  0015
                                     0018       30008$:
                                 05' 0018       30009$:	.BYTE	30012$-30009$
                                 00' 0019       	.BYTE	QUA_K_DEBU
                                 00  001A       	.IIF B <>,	.BYTE	0
                               0068  001B       	.WORD	$$$
                                     001D       30012$:
                                 05' 001D       30013$:	.BYTE	30016$-30013$
                                 00' 001E       	.BYTE	QUA_K_D_LI
                                 00  001F       	.IIF B <>,	.BYTE	0
                               0048  0020       	.WORD	$$$
                                     0022       30016$:
                                 05' 0022       30017$:	.BYTE	30020$-30017$
                                 00' 0023       	.BYTE	QUA_K_I4
                                 00  0024       	.IIF B <>,	.BYTE	0
                               0048  0025       	.WORD	$$$
                                     0027       30020$:
                                 05' 0027       30021$:	.BYTE	30024$-30021$
                                 00' 0028       	.BYTE	QUA_K_LIST
                                 00  0029       	.IIF B <>,	.BYTE	0
CMDATBAS2       - COMMAND DATA BASE MODULE 2                     22-AUG-1978 00:59:08   VAX-11 MACRO X0.3-11               Page   4
01              DEFINE DCLS COMMANDS                                                                                             (1)

                               096C  002A       	.WORD	$$$
                                     002C       30024$:
                                 05' 002C       30025$:	.BYTE	30028$-30025$
                                 00' 002D       	.BYTE	QUA_K_MACH
                                 00  002E       	.IIF B <>,	.BYTE	0
                               0048  002F       	.WORD	$$$
                                     0031       30028$:
                                 05' 0031       30029$:	.BYTE	30032$-30029$
                                 00' 0032       	.BYTE	QUA_K_OBJE
                                 00  0033       	.IIF B <>,	.BYTE	0
                               0B6C  0034       	.WORD	$$$
                                     0036       30032$:
                                 05' 0036       30033$:	.BYTE	30036$-30033$
                                 00' 0037       	.BYTE	QUA_K_OPTI
                                 00  0038       	.IIF B <>,	.BYTE	0
                               0048  0039       	.WORD	$$$
                                     003B       30036$:
                                 05' 003B       30037$:	.BYTE	30040$-30037$
                                 00' 003C       	.BYTE	QUA_K_WARN
                                 00  003D       	.IIF B <>,	.BYTE	0
                               0048  003E       	.WORD	$$$
                                     0040       30040$:
                                 05' 0040       30041$:	.BYTE	30044$-30041$
                                 00' 0041       	.BYTE	QUA_K_WORK
                                 00  0042       	.IIF B <>,	.BYTE	0
                               2028  0043       	.WORD	$$$
                                     0045       30044$:
                           00000040  0045       .=$QUALBLK$
                                 00  0040       	.BYTE	0
                                 0000000B       	.RESTORE
                                     000B    55
                                     000B    56 	DEFCMD	GOTO,-			; DEFINE GOTO COMMAND
                                     000B    57 		QUAL  =NO,-		; NO QUALIFIERS ALLOWED
                                     000B    58 		MINPRM=1,-		; MINIMUM PARAMETER COUNT
                                     000B    59 		MAXPRM=1,-		; MAXIMUM PARAMETERS ALLOWED
                                     000B    60 		DEFIMG=GOTO,-		; DEFAULT IMAGE OR ROUTINE NAME
                                     000B    61 		FLAGS=NOSTAT,-		; COMMAND DOES NOT STORE GOOD STATUS
                                     000B    62 		PRMPTS=<<LABEL,REQ>,-	; FIRST PROMPT AND FLAGS
                                     000B    63 			>
                                     000B       	.LIST
                                 00000004       	.PSECT	DCL$VERBTBL,BYTE,RD,NOWRT
                                 C7  0004       	.BYTE	^A/G/!$XX$
                                 4F  0005       	.BYTE	^A/O/!$XX$
                                 54  0006       	.BYTE	^A/T/!$XX$
                                 4F  0007       	.BYTE	^A/O/!$XX$
                                     0008       	.LIST
                                 00000002       	.PSECT	DCL$COMDPTR,BYTE,RD,NOWRT
                               0041' 0002       	.WORD	VERB_G_GOTO-.-2
                                     0004       	.LIST
                                 00000045       	.PSECT	DCL$CMDATA,BYTE,RD,NOWRT
                                     0045       VERB_G_GOTO:
                                 19  0045       	.BYTE	CLI$K_VERB_GOTO
                                 11  0046       	.BYTE	1*16+1
                                 00' 0047       	.BYTE	IMG_K_GOTO
                                 00  0048       	.BYTE	0
                                 01' 0049       	.BYTE	GOTO_G_PRMPT-.-1
                                 08  004A       	.BYTE	$$$
CMDATBAS2       - COMMAND DATA BASE MODULE 2                     22-AUG-1978 00:59:08   VAX-11 MACRO X0.3-11               Page   5
01              DEFINE DCLS COMMANDS                                                                                             (1)

                                     004B       GOTO_G_PRMPT:
                                 00' 004B       	.BYTE	PRO_K_LABEL
                                 10  004C       	.IIF NB	<BYTE>, .BYTE $$$
                                     004D    64
                                     004D    65 	DEFCMD	HELP,-			; DEFINE HELP COMMAND
                                     004D    66 		QUAL  =NO,-		; NO QUALIFIERS ALLOWED
                                     004D    67 		MINPRM=0,-		; MINIMUM PARAMETER COUNT
                                     004D    68 		MAXPRM=0,-		; MAXIMUM PARAMETERS ALLOWED
                                     004D    69 		FLAGS=<FOREIGN,NOSTAT>,- ;
                                     004D    70 		DEFIMG=HELP,-		; DEFAULT IMAGE OR ROUTINE NAME
                                     004D    71
                                     004D       	.LIST
                                 00000008       	.PSECT	DCL$VERBTBL,BYTE,RD,NOWRT
                                 C8  0008       	.BYTE	^A/H/!$XX$
                                 45  0009       	.BYTE	^A/E/!$XX$
                                 4C  000A       	.BYTE	^A/L/!$XX$
                                 50  000B       	.BYTE	^A/P/!$XX$
                                     000C       	.LIST
                                 00000004       	.PSECT	DCL$COMDPTR,BYTE,RD,NOWRT
                               0047' 0004       	.WORD	VERB_G_HELP-.-2
                                     0006       	.LIST
                                 0000004D       	.PSECT	DCL$CMDATA,BYTE,RD,NOWRT
                                     004D       VERB_G_HELP:
                                 1A  004D       	.BYTE	CLI$K_VERB_HELP
                                 00  004E       	.BYTE	0*16+0
                                 00' 004F       	.BYTE	IMG_K_HELP
                                 00  0050       	.BYTE	0
                                 00  0051       	.BYTE	0
                                 09  0052       	.BYTE	$$$
                                     0053    72
                                     0053    73 	DEFCMD	IF,-			; DEFINE IF COMMAND
                                     0053    74 		QUAL  =NO,-		; NO QUALIFIERS ALLOWED
                                     0053    75 		MINPRM=0,-		; MINIMUM PARAMETER COUNT
                                     0053    76 		MAXPRM=0,-		; MAXIMUM PARAMETERS ALLOWED
                                     0053    77 		DEFIMG=IF,-		; DEFAULT IMAGE OR ROUTINE NAME
                                     0053    78 		FLAGS =<IMMED,NOSTAT>,-	 ; COMMAND PROCESSING FLAGS
                                     0053    79
                                     0053       	.LIST
                                 0000000C       	.PSECT	DCL$VERBTBL,BYTE,RD,NOWRT
                                 C9  000C       	.BYTE	^A/I/!$XX$
                                 46  000D       	.BYTE	^A/F/!$XX$
                                 20  000E       	.ASCII	\ \
                                 20  000F       	.ASCII	\ \
                                     0010       	.LIST
                                 00000006       	.PSECT	DCL$COMDPTR,BYTE,RD,NOWRT
                               004B' 0006       	.WORD	VERB_G_IF-.-2
                                     0008       	.LIST
                                 00000053       	.PSECT	DCL$CMDATA,BYTE,RD,NOWRT
                                     0053       VERB_G_IF:
                                 1B  0053       	.BYTE	CLI$K_VERB_IF
                                 00  0054       	.BYTE	0*16+0
                                 00' 0055       	.BYTE	IMG_K_IF
                                 00  0056       	.BYTE	0
                                 00  0057       	.BYTE	0
                                 0A  0058       	.BYTE	$$$
                                     0059    80
                                     0059    81 	DEFCMD	INIT,-			; DEFINE INITIALIZE COMMAND
CMDATBAS2       - COMMAND DATA BASE MODULE 2                     22-AUG-1978 00:59:08   VAX-11 MACRO X0.3-11               Page   6
01              DEFINE DCLS COMMANDS                                                                                             (1)

                                     0059    82 		QUAL=YES,-		; COMMAND HAS QUALIFIERS
                                     0059    83 		MINPRM=2,-		; MINIMUM PARAMETER COUNT
                                     0059    84 		MAXPRM=2,-		; MAXIMUM PARAMETERS
                                     0059    85 		DEFIMG=INIT,-		; IMAGE TO RUN
                                     0059    86 		PRMPTS=<<DEVICE,REQ>,-	; FIRST PARAMETER IS DEVICE
                                     0059    87 			<LABEL,REQ>,-	; SECOND PARAREMTER IS VOLUME LABEL
                                     0059    88 			>
                                     0059       	.LIST
                                 00000010       	.PSECT	DCL$VERBTBL,BYTE,RD,NOWRT
                                 C9  0010       	.BYTE	^A/I/!$XX$
                                 4E  0011       	.BYTE	^A/N/!$XX$
                                 49  0012       	.BYTE	^A/I/!$XX$
                                 54  0013       	.BYTE	^A/T/!$XX$
                                     0014       	.LIST
                                 00000008       	.PSECT	DCL$COMDPTR,BYTE,RD,NOWRT
                               004F' 0008       	.WORD	VERB_G_INIT-.-2
                                     000A       	.LIST
                                 00000059       	.PSECT	DCL$CMDATA,BYTE,RD,NOWRT
                                     0059       VERB_G_INIT:
                                 1C  0059       	.BYTE	CLI$K_VERB_INIT
                                 22  005A       	.BYTE	2*16+2
                                 00' 005B       	.BYTE	IMG_K_INIT
                                 06' 005C       	.BYTE	QUA_G_INIT-.-1
                                 01' 005D       	.BYTE	INIT_G_PRMPT-.-1
                                 00  005E       	.BYTE	$$$
                                     005F       INIT_G_PRMPT:
                                 00' 005F       	.BYTE	PRO_K_DEVICE
                                 10  0060       	.IIF NB	<BYTE>, .BYTE $$$
                                 00' 0061       	.BYTE	PRO_K_LABEL
                                 10  0062       	.IIF NB	<BYTE>, .BYTE $$$
                                     0063       	.SAVE
                                 00000063       	.PSECT	DCL$CMDATA,BYTE,RD,NOWRT
                                     0063       QUA_G_INIT:
                                 05' 0063       30049$:	.BYTE	30052$-30049$
                                 00' 0064       	.BYTE	QUA_K_ACCE
                                 00  0065       	.IIF B <>,	.BYTE	0
                               3028  0066       	.WORD	$$$
                                     0068       30052$:
                                 05' 0068       30053$:	.BYTE	30056$-30053$
                                 00' 0069       	.BYTE	QUA_K_BADB
                                 00  006A       	.IIF B <>,	.BYTE	0
                               1028  006B       	.WORD	$$$
                                     006D       30056$:
                                 06' 006D       30057$:	.BYTE	30060$-30057$
                                 00' 006E       	.BYTE	QUA_K_BATC
                                 00  006F       	.IIF B <>,	.BYTE	0
                               0448  0070       	.WORD	$$$
                                 00' 0072       	.BYTE	IMG_K_QUEMAN
                                     0073       30060$:
                                 06' 0073       30061$:	.BYTE	30064$-30061$
                                 00' 0074       	.BYTE	QUA_K_BURS
                                 00  0075       	.IIF B <>,	.BYTE	0
                               0448  0076       	.WORD	$$$
                                 00' 0078       	.BYTE	IMG_K_QUEMAN
                                     0079       30064$:
                                 05' 0079       30065$:	.BYTE	30068$-30065$
                                 00' 007A       	.BYTE	QUA_K_DENS
CMDATBAS2       - COMMAND DATA BASE MODULE 2                     22-AUG-1978 00:59:08   VAX-11 MACRO X0.3-11               Page   7
01              DEFINE DCLS COMMANDS                                                                                             (1)

                                 00  007B       	.IIF B <>,	.BYTE	0
                               3028  007C       	.WORD	$$$
                                     007E       30068$:
                                 09' 007E       30069$:	.BYTE	30072$-30069$
                                 05' 007F       	.BYTE	<30071$-30069$>
                                 00  0080       	.IIF B <>,	.BYTE	0
                               302A  0081       	.WORD	$$$
                        55 52 54 53  0083       30071$:	.ASCII	\STRU\
                                     0087       30072$:
                                 06' 0087       30073$:	.BYTE	30076$-30073$
                                 00' 0088       	.BYTE	QUA_K_ENAB
                                 00  0089       	.IIF B <>,	.BYTE	0
                               0448  008A       	.WORD	$$$
                                 00' 008C       	.BYTE	IMG_K_QUEMAN
                                     008D       30076$:
                                 05' 008D       30077$:	.BYTE	30080$-30077$
                                 00' 008E       	.BYTE	QUA_K_EXTE
                                 00  008F       	.IIF B <>,	.BYTE	0
                               3028  0090       	.WORD	$$$
                                     0092       30080$:
                                 05' 0092       30081$:	.BYTE	30084$-30081$
                                 00' 0093       	.BYTE	QUA_K_FILE
                                 00  0094       	.IIF B <>,	.BYTE	0
                               1028  0095       	.WORD	$$$
                                     0097       30084$:
                                 06' 0097       30085$:	.BYTE	30088$-30085$
                                 00' 0098       	.BYTE	QUA_K_FLAG
                                 00  0099       	.IIF B <>,	.BYTE	0
                               0448  009A       	.WORD	$$$
                                 00' 009C       	.BYTE	IMG_K_QUEMAN
                                     009D       30088$:
                                 06' 009D       30089$:	.BYTE	30092$-30089$
                                 00' 009E       	.BYTE	QUA_K_FORM
                                 00  009F       	.IIF B <>,	.BYTE	0
                               3468  00A0       	.WORD	$$$
                                 00' 00A2       	.BYTE	IMG_K_QUEMAN
                                     00A3       30092$:
                                 06' 00A3       30093$:	.BYTE	30096$-30093$
                                 00' 00A4       	.BYTE	QUA_K_GENE
                                 00  00A5       	.IIF B <>,	.BYTE	0
                               0448  00A6       	.WORD	$$$
                                 00' 00A8       	.BYTE	IMG_K_QUEMAN
                                     00A9       30096$:
                                 05' 00A9       30097$:	.BYTE	30100$-30097$
                                 00' 00AA       	.BYTE	QUA_K_HEAD
                                 00  00AB       	.IIF B <>,	.BYTE	0
                               3028  00AC       	.WORD	$$$
                                     00AE       30100$:
                                 05' 00AE       30101$:	.BYTE	30104$-30101$
                                 00' 00AF       	.BYTE	QUA_K_INDE
                                 00  00B0       	.IIF B <>,	.BYTE	0
                               3028  00B1       	.WORD	$$$
                                     00B3       30104$:
                                 06' 00B3       30105$:	.BYTE	30108$-30105$
                                 00' 00B4       	.BYTE	QUA_K_JOB_
                                 00  00B5       	.IIF B <>,	.BYTE	0
                               3428  00B6       	.WORD	$$$
CMDATBAS2       - COMMAND DATA BASE MODULE 2                     22-AUG-1978 00:59:08   VAX-11 MACRO X0.3-11               Page   8
01              DEFINE DCLS COMMANDS                                                                                             (1)

                                 00' 00B8       	.BYTE	IMG_K_QUEMAN
                                     00B9       30108$:
                                 05' 00B9       30109$:	.BYTE	30112$-30109$
                                 00' 00BA       	.BYTE	QUA_K_OWNE
                                 00  00BB       	.IIF B <>,	.BYTE	0
                               102C  00BC       	.WORD	$$$
                                     00BE       30112$:
                                 06' 00BE       30113$:	.BYTE	30116$-30113$
                                 00' 00BF       	.BYTE	QUA_K_PRIO
                                 00  00C0       	.IIF B <>,	.BYTE	0
                               3428  00C1       	.WORD	$$$
                                 00' 00C3       	.BYTE	IMG_K_QUEMAN
                                     00C4       30116$:
                                 05' 00C4       30117$:	.BYTE	30120$-30117$
                                 00' 00C5       	.BYTE	QUA_K_PROT
                                 00  00C6       	.IIF B <>,	.BYTE	0
                               1028  00C7       	.WORD	$$$
                                     00C9       30120$:
                                 0B' 00C9       30121$:	.BYTE	30124$-30121$
                                 00' 00CA       	.BYTE	QUA_K_QUEU
                                 00  00CB       	.IIF B <>,	.BYTE	0
                               0449  00CC       	.WORD	$$$
                                 00' 00CE       	.BYTE	IMG_K_QUEMAN
                               0000  00CF       	.WORD	0
                                 11  00D1       	.BYTE	1*16+1
                                 00' 00D2       	.BYTE	PRO_K_QUEUE
                                 10  00D3       	.IIF NB	<BYTE>, .BYTE $$$
                                     00D4       30124$:
                                 06' 00D4       30126$:	.BYTE	30129$-30126$
                                 00' 00D5       	.BYTE	QUA_K_DISA
                                 00  00D6       	.IIF B <>,	.BYTE	0
                               0448  00D7       	.WORD	$$$
                                 00' 00D9       	.BYTE	IMG_K_QUEMAN
                                     00DA       30129$:
                                 05' 00DA       30130$:	.BYTE	30133$-30130$
                                 00' 00DB       	.BYTE	QUA_K_ZZZZ
                                 00  00DC       	.IIF B <>,	.BYTE	0
                               0008  00DD       	.WORD	$$$
                                     00DF       30133$:
                                 06' 00DF       30134$:	.BYTE	30137$-30134$
                                 00' 00E0       	.BYTE	QUA_K_TERM
                                 00  00E1       	.IIF B <>,	.BYTE	0
                               0448  00E2       	.WORD	$$$
                                 00' 00E4       	.BYTE	IMG_K_QUEMAN
                                     00E5       30137$:
                                 05' 00E5       30138$:	.BYTE	30141$-30138$
                                 00' 00E6       	.BYTE	QUA_K_WIND
                                 00  00E7       	.IIF B <>,	.BYTE	0
                               3028  00E8       	.WORD	$$$
                                     00EA       30141$:
                                 05' 00EA       30142$:	.BYTE	30145$-30142$
                                 00' 00EB       	.BYTE	QUA_K_MAXI
                                 00  00EC       	.IIF B <>,	.BYTE	0
                               3028  00ED       	.WORD	$$$
                                     00EF       30145$:
                                 05' 00EF       30146$:	.BYTE	30149$-30146$
                                 00' 00F0       	.BYTE	QUA_K_CLUS
CMDATBAS2       - COMMAND DATA BASE MODULE 2                     22-AUG-1978 00:59:08   VAX-11 MACRO X0.3-11               Page   9
01              DEFINE DCLS COMMANDS                                                                                             (1)

                                 00  00F1       	.IIF B <>,	.BYTE	0
                               3028  00F2       	.WORD	$$$
                                     00F4       30149$:
                                 05' 00F4       30150$:	.BYTE	30153$-30150$
                                 00' 00F5       	.BYTE	QUA_K_RECO
                                 00  00F6       	.IIF B <>,	.BYTE	0
                               1028  00F7       	.WORD	$$$
                                     00F9       30153$:
                                 05' 00F9       30154$:	.BYTE	30157$-30154$
                                 00' 00FA       	.BYTE	QUA_K_DATA
                                 00  00FB       	.IIF B <>,	.BYTE	0
                               0028  00FC       	.WORD	$$$
                                     00FE       30157$:
                                 05' 00FE       30158$:	.BYTE	30161$-30158$
                                 00' 00FF       	.BYTE	QUA_K_VERI
                                 00  0100       	.IIF B <>,	.BYTE	0
                               00C8  0101       	.WORD	$$$
                                     0103       30161$:
                                 05' 0103       30162$:	.BYTE	30165$-30162$
                                 00' 0104       	.BYTE	QUA_K_SHAR
                                 00  0105       	.IIF B <>,	.BYTE	0
                               00C8  0106       	.WORD	$$$
                                     0108       30165$:
                                 05' 0108       30166$:	.BYTE	30169$-30166$
                                 00' 0109       	.BYTE	QUA_K_GROU
                                 00  010A       	.IIF B <>,	.BYTE	0
                               0008  010B       	.WORD	$$$
                                     010D       30169$:
                                 05' 010D       30170$:	.BYTE	30173$-30170$
                                 00' 010E       	.BYTE	QUA_K_SYST
                                 00  010F       	.IIF B <>,	.BYTE	0
                               0008  0110       	.WORD	$$$
                                     0112       30173$:
                                 05' 0112       30174$:	.BYTE	30177$-30174$
                                 00' 0113       	.BYTE	QUA_K_EBCD
                                 00  0114       	.IIF B <>,	.BYTE	0
                               0008  0115       	.WORD	$$$
                                     0117       30177$:
                                 05' 0117       30178$:	.BYTE	30181$-30178$
                                 00' 0118       	.BYTE	QUA_K_OVER
                                 00  0119       	.IIF B <>,	.BYTE	0
                               1028  011A       	.WORD	$$$
                                     011C       30181$:
                                 05' 011C       30182$:	.BYTE	30185$-30182$
                                 00' 011D       	.BYTE	QUA_K_USER
                                 00  011E       	.IIF B <>,	.BYTE	0
                               3028  011F       	.WORD	$$$
                                     0121       30185$:
                                 05' 0121       30186$:	.BYTE	30189$-30186$
                                 00' 0122       	.BYTE	QUA_K_DIRE
                                 00  0123       	.IIF B <>,	.BYTE	0
                               3028  0124       	.WORD	$$$
                                     0126       30189$:
                           00000121  0126       .=$QUALBLK$
                                 00  0121       	.BYTE	0
                                 00000063       	.RESTORE
                                     0063    89
CMDATBAS2       - COMMAND DATA BASE MODULE 2                     22-AUG-1978 00:59:08   VAX-11 MACRO X0.3-11               Page  10
01              DEFINE DCLS COMMANDS                                                                                             (1)

                                     0063    90 	DEFCMD	INQU,-			; DEFINE INQUIRE COMMAND
                                     0063    91 		QUAL  =YES,-		; YES QUALIFIERS ALLOWED
                                     0063    92 		MINPRM=0,-		; MINIMUM PARAMETER COUNT
                                     0063    93 		MAXPRM=0,-		; MAXIMUM PARAMETERS ALLOWED
                                     0063    94 		DEFIMG=INQUIRE,-	; DEFAULT IMAGE OR ROUTINE NAME
                                     0063    95 		FLAGS =IMMED		; COMMAND PROCESSING FLAGS
                                     0063       	.LIST
                                 00000014       	.PSECT	DCL$VERBTBL,BYTE,RD,NOWRT
                                 C9  0014       	.BYTE	^A/I/!$XX$
                                 4E  0015       	.BYTE	^A/N/!$XX$
                                 51  0016       	.BYTE	^A/Q/!$XX$
                                 55  0017       	.BYTE	^A/U/!$XX$
                                     0018       	.LIST
                                 0000000A       	.PSECT	DCL$COMDPTR,BYTE,RD,NOWRT
                               011A' 000A       	.WORD	VERB_G_INQU-.-2
                                     000C       	.LIST
                                 00000126       	.PSECT	DCL$CMDATA,BYTE,RD,NOWRT
                                     0126       VERB_G_INQU:
                                 1D  0126       	.BYTE	CLI$K_VERB_INQU
                                 00  0127       	.BYTE	0*16+0
                                 00' 0128       	.BYTE	IMG_K_INQUIRE
                                 02' 0129       	.BYTE	QUA_G_INQU-.-1
                                 00  012A       	.BYTE	0
                                 02  012B       	.BYTE	$$$
                                     012C       	.SAVE
                                 0000012C       	.PSECT	DCL$CMDATA,BYTE,RD,NOWRT
                                     012C       QUA_G_INQU:
                                 05' 012C       30191$:	.BYTE	30194$-30191$
                                 00' 012D       	.BYTE	QUA_K_GLOB
                                 00  012E       	.IIF B <>,	.BYTE	0
                               0008  012F       	.WORD	$$$
                                     0131       30194$:
                                 05' 0131       30195$:	.BYTE	30198$-30195$
                                 00' 0132       	.BYTE	QUA_K_LOCA
                                 00  0133       	.IIF B <>,	.BYTE	0
                               0008  0134       	.WORD	$$$
                                     0136       30198$:
                           00000131  0136       .=$QUALBLK$
                                 00  0131       	.BYTE	0
                                 0000012C       	.RESTORE
                                     012C    96
                                     012C    97
                                     012C    98 	DEFCMD	LIBR,-
                                     012C    99 		QUAL  =YES,-
                                     012C   100 		MINPRM=2,-
                                     012C   101 		MAXPRM=2,-
                                     012C   102 		DEFIMG=BACKTRANS,-
                                     012C   103 		OUTPRS=<CLI$K_LIBR_OUTP>,-
                                     012C   104 		PRMPTS=<<LIBRARY,REQ>,-
                                     012C   105 			<FILE,<REQ,CONCAT,IMPCAT,LIST>>,-
                                     012C   106 			>
                                     012C       	.LIST
                                 00000018       	.PSECT	DCL$VERBTBL,BYTE,RD,NOWRT
                                 CC  0018       	.BYTE	^A/L/!$XX$
                                 49  0019       	.BYTE	^A/I/!$XX$
                                 42  001A       	.BYTE	^A/B/!$XX$
                                 52  001B       	.BYTE	^A/R/!$XX$
CMDATBAS2       - COMMAND DATA BASE MODULE 2                     22-AUG-1978 00:59:08   VAX-11 MACRO X0.3-11               Page  11
01              DEFINE DCLS COMMANDS                                                                                             (1)

                                     001C       	.LIST
                                 0000000C       	.PSECT	DCL$COMDPTR,BYTE,RD,NOWRT
                               0128' 000C       	.WORD	VERB_G_LIBR-.-2
                                     000E       	.LIST
                                 00000136       	.PSECT	DCL$CMDATA,BYTE,RD,NOWRT
                                     0136       VERB_G_LIBR:
                                 34  0136       	.BYTE	CLI$K_VERB_LIBR
                                 22  0137       	.BYTE	2*16+2
                                 00' 0138       	.BYTE	IMG_K_BACKTRANS
                                 08' 0139       	.BYTE	QUA_G_LIBR-.-1
                                 03' 013A       	.BYTE	LIBR_G_PRMPT-.-1
                                 04  013B       	.BYTE	$$$
                                 01' 013C       	.BYTE	30199$-.-1
                                 0B' 013D       	.BYTE	CLI$K_LIBR_OUTP
                                     013E       30199$:
                                     013E       LIBR_G_PRMPT:
                                 00' 013E       	.BYTE	PRO_K_LIBRARY
                                 10  013F       	.IIF NB	<BYTE>, .BYTE $$$
                                 00' 0140       	.BYTE	PRO_K_FILE
                                 17  0141       	.IIF NB	<BYTE>, .BYTE $$$
                                     0142       	.SAVE
                                 00000142       	.PSECT	DCL$CMDATA,BYTE,RD,NOWRT
                                     0142       QUA_G_LIBR:
                                 0B' 0142       30200$:	.BYTE	30203$-30200$
                                 00' 0143       	.BYTE	QUA_K_COMP
                                 00  0144       	.IIF B <>,	.BYTE	0
                               4429  0145       	.WORD	$$$
                                 00  0147       	.BYTE	0
                               0000  0148       	.WORD	0
                                 11  014A       	.BYTE	1*16+1
                                 00' 014B       	.BYTE	PRO_K_LIBRARY
                                 10  014C       	.IIF NB	<BYTE>, .BYTE $$$
                                     014D       30203$:
                                 0D' 014D       30205$:	.BYTE	30208$-30205$
                                 00' 014E       	.BYTE	QUA_K_CREA
                                 00  014F       	.IIF B <>,	.BYTE	0
                               4429  0150       	.WORD	$$$
                                 00  0152       	.BYTE	0
                               0000  0153       	.WORD	0
                                 21  0155       	.BYTE	2*16+1
                                 00' 0156       	.BYTE	PRO_K_LIBRARY
                                 10  0157       	.IIF NB	<BYTE>, .BYTE $$$
                                 00' 0158       	.BYTE	PRO_K_FILE
                                 07  0159       	.IIF NB	<BYTE>, .BYTE $$$
                                     015A       30208$:
                                 0D' 015A       30210$:	.BYTE	30213$-30210$
                                 00' 015B       	.BYTE	QUA_K_DELE
                                 00  015C       	.IIF B <>,	.BYTE	0
                               1429  015D       	.WORD	$$$
                                 00  015F       	.BYTE	0
                               0000  0160       	.WORD	0
                                 21  0162       	.BYTE	2*16+1
                                 00' 0163       	.BYTE	PRO_K_LIBRARY
                                 10  0164       	.IIF NB	<BYTE>, .BYTE $$$
                                 00' 0165       	.BYTE	PRO_K_FILE
                                 07  0166       	.IIF NB	<BYTE>, .BYTE $$$
                                     0167       30213$:
CMDATBAS2       - COMMAND DATA BASE MODULE 2                     22-AUG-1978 00:59:08   VAX-11 MACRO X0.3-11               Page  12
01              DEFINE DCLS COMMANDS                                                                                             (1)

                                 0B' 0167       30215$:	.BYTE	30218$-30215$
                                 00' 0168       	.BYTE	QUA_K_EXTR
                                 00  0169       	.IIF B <>,	.BYTE	0
                               0429  016A       	.WORD	$$$
                                 00  016C       	.BYTE	0
                               0000  016D       	.WORD	0
                                 11  016F       	.BYTE	1*16+1
                                 00' 0170       	.BYTE	PRO_K_LIBRARY
                                 10  0171       	.IIF NB	<BYTE>, .BYTE $$$
                                     0172       30218$:
                                 05' 0172       30220$:	.BYTE	30223$-30220$
                                 00' 0173       	.BYTE	QUA_K_INSE
                                 00  0174       	.IIF B <>,	.BYTE	0
                               0008  0175       	.WORD	$$$
                                     0177       30223$:
                                 0D' 0177       30224$:	.BYTE	30227$-30224$
                                 00' 0178       	.BYTE	QUA_K_LIST
                                 00  0179       	.IIF B <>,	.BYTE	0
                               042D  017A       	.WORD	$$$
                                 00  017C       	.BYTE	0
                               0000  017D       	.WORD	0
                                 21  017F       	.BYTE	2*16+1
                                 00' 0180       	.BYTE	PRO_K_LIBRARY
                                 10  0181       	.IIF NB	<BYTE>, .BYTE $$$
                                 00' 0182       	.BYTE	PRO_K_FILE
                                 07  0183       	.IIF NB	<BYTE>, .BYTE $$$
                                     0184       30227$:
                                 0D' 0184       30229$:	.BYTE	30232$-30229$
                                 00' 0185       	.BYTE	QUA_K_REMO
                                 00  0186       	.IIF B <>,	.BYTE	0
                               1429  0187       	.WORD	$$$
                                 00  0189       	.BYTE	0
                               0000  018A       	.WORD	0
                                 21  018C       	.BYTE	2*16+1
                                 00' 018D       	.BYTE	PRO_K_LIBRARY
                                 10  018E       	.IIF NB	<BYTE>, .BYTE $$$
                                 00' 018F       	.BYTE	PRO_K_FILE
                                 07  0190       	.IIF NB	<BYTE>, .BYTE $$$
                                     0191       30232$:
                                 05' 0191       30234$:	.BYTE	30237$-30234$
                                 00' 0192       	.BYTE	QUA_K_REPL
                                 00  0193       	.IIF B <>,	.BYTE	0
                               0008  0194       	.WORD	$$$
                                     0196       30237$:
                                 05' 0196       30238$:	.BYTE	30241$-30238$
                                 00' 0197       	.BYTE	QUA_K_MACR
                                 00  0198       	.IIF B <>,	.BYTE	0
                               0008  0199       	.WORD	$$$
                                     019B       30241$:
                                 05' 019B       30242$:	.BYTE	30245$-30242$
                                 00' 019C       	.BYTE	QUA_K_OBJE
                                 00  019D       	.IIF B <>,	.BYTE	0
                               0008  019E       	.WORD	$$$
                                     01A0       30245$:
                                 05' 01A0       30246$:	.BYTE	30249$-30246$
                                 00' 01A1       	.BYTE	QUA_K_OUTP
                                 00  01A2       	.IIF B <>,	.BYTE	0
CMDATBAS2       - COMMAND DATA BASE MODULE 2                     22-AUG-1978 00:59:08   VAX-11 MACRO X0.3-11               Page  13
01              DEFINE DCLS COMMANDS                                                                                             (1)

                               0B2C  01A3       	.WORD	$$$
                                     01A5       30249$:
                                 05' 01A5       30250$:	.BYTE	30253$-30250$
                                 00' 01A6       	.BYTE	QUA_K_NAME
                                 00  01A7       	.IIF B <>,	.BYTE	0
                               0048  01A8       	.WORD	$$$
                                     01AA       30253$:
                                 05' 01AA       30254$:	.BYTE	30257$-30254$
                                 00' 01AB       	.BYTE	QUA_K_FULL
                                 00  01AC       	.IIF B <>,	.BYTE	0
                               0008  01AD       	.WORD	$$$
                                     01AF       30257$:
                                 05' 01AF       30258$:	.BYTE	30261$-30258$
                                 00' 01B0       	.BYTE	QUA_K_GLOB
                                 00  01B1       	.IIF B <>,	.BYTE	0
                               0048  01B2       	.WORD	$$$
                                     01B4       30261$:
                                 05' 01B4       30262$:	.BYTE	30265$-30262$
                                 00' 01B5       	.BYTE	QUA_K_RSX1
                                 00  01B6       	.IIF B <>,	.BYTE	0
                               0008  01B7       	.WORD	$$$
                                     01B9       30265$:
                                 05' 01B9       30266$:	.BYTE	30269$-30266$
                                 00' 01BA       	.BYTE	QUA_K_SELE
                                 00  01BB       	.IIF B <>,	.BYTE	0
                               0008  01BC       	.WORD	$$$
                                     01BE       30269$:
                                 05' 01BE       30270$:	.BYTE	30273$-30270$
                                 00' 01BF       	.BYTE	QUA_K_SQUE
                                 00  01C0       	.IIF B <>,	.BYTE	0
                               0008  01C1       	.WORD	$$$
                                     01C3       30273$:
                           000001BE  01C3       .=$QUALBLK$
                                 00  01BE       	.BYTE	0
                                 00000142       	.RESTORE
                                     0142   107
                                     0142   108
                                     0142   109 	DEFCMD	LINK,-
                                     0142   110 		QUAL  =YES,-
                                     0142   111 		MINPRM=1,-
                                     0142   112 		MAXPRM=1,-
                                     0142   113 		DEFIMG=LINK,-
                                     0142   114 		OUTPRS=<CLI$K_LINK_EXEC,CLI$K_LINK_MAP,CLI$K_LINK_SYMB>,-
                                     0142   115 		PRMPTS=<<FILE,<REQ,CONCAT,LIST,IMPCAT>>>
                                     0142       	.LIST
                                 0000001C       	.PSECT	DCL$VERBTBL,BYTE,RD,NOWRT
                                 CC  001C       	.BYTE	^A/L/!$XX$
                                 49  001D       	.BYTE	^A/I/!$XX$
                                 4E  001E       	.BYTE	^A/N/!$XX$
                                 4B  001F       	.BYTE	^A/K/!$XX$
                                     0020       	.LIST
                                 0000000E       	.PSECT	DCL$COMDPTR,BYTE,RD,NOWRT
                               01B3' 000E       	.WORD	VERB_G_LINK-.-2
                                     0010       	.LIST
                                 000001C3       	.PSECT	DCL$CMDATA,BYTE,RD,NOWRT
                                     01C3       VERB_G_LINK:
                                 1E  01C3       	.BYTE	CLI$K_VERB_LINK
CMDATBAS2       - COMMAND DATA BASE MODULE 2                     22-AUG-1978 00:59:08   VAX-11 MACRO X0.3-11               Page  14
01              DEFINE DCLS COMMANDS                                                                                             (1)

                                 11  01C4       	.BYTE	1*16+1
                                 00' 01C5       	.BYTE	IMG_K_LINK
                                 08' 01C6       	.BYTE	QUA_G_LINK-.-1
                                 05' 01C7       	.BYTE	LINK_G_PRMPT-.-1
                                 04  01C8       	.BYTE	$$$
                                 03' 01C9       	.BYTE	30274$-.-1
                                 04' 01CA       	.BYTE	CLI$K_LINK_EXEC
                                 09' 01CB       	.BYTE	CLI$K_LINK_MAP
                                 0C' 01CC       	.BYTE	CLI$K_LINK_SYMB
                                     01CD       30274$:
                                     01CD       LINK_G_PRMPT:
                                 00' 01CD       	.BYTE	PRO_K_FILE
                                 17  01CE       	.IIF NB	<BYTE>, .BYTE $$$
                                     01CF       	.SAVE
                                 000001CF       	.PSECT	DCL$CMDATA,BYTE,RD,NOWRT
                                     01CF       QUA_G_LINK:
                                 05' 01CF       30275$:	.BYTE	30278$-30275$
                                 00' 01D0       	.BYTE	QUA_K_BRIE
                                 00  01D1       	.IIF B <>,	.BYTE	0
                               0048  01D2       	.WORD	$$$
                                     01D4       30278$:
                                 05' 01D4       30279$:	.BYTE	30282$-30279$
                                 00' 01D5       	.BYTE	QUA_K_CROS
                                 00  01D6       	.IIF B <>,	.BYTE	0
                               0048  01D7       	.WORD	$$$
                                     01D9       30282$:
                                 05' 01D9       30283$:	.BYTE	30286$-30283$
                                 00' 01DA       	.BYTE	QUA_K_DEBU
                                 00  01DB       	.IIF B <>,	.BYTE	0
                               006C  01DC       	.WORD	$$$
                                     01DE       30286$:
                                 05' 01DE       30287$:	.BYTE	30290$-30287$
                                 00' 01DF       	.BYTE	QUA_K_EXEC
                                 00  01E0       	.IIF B <>,	.BYTE	0
                               0B6C  01E1       	.WORD	$$$
                                     01E3       30290$:
                                 05' 01E3       30291$:	.BYTE	30294$-30291$
                                 00' 01E4       	.BYTE	QUA_K_INCL
                                 00  01E5       	.IIF B <>,	.BYTE	0
                               1030  01E6       	.WORD	$$$
                                     01E8       30294$:
                                 05' 01E8       30295$:	.BYTE	30298$-30295$
                                 00' 01E9       	.BYTE	QUA_K_LIBR
                                 00  01EA       	.IIF B <>,	.BYTE	0
                               0010  01EB       	.WORD	$$$
                                     01ED       30298$:
                                 05' 01ED       30299$:	.BYTE	30302$-30299$
                                 00' 01EE       	.BYTE	QUA_K_SHAR
                                 00  01EF       	.IIF B <>,	.BYTE	0
                               2068  01F0       	.WORD	$$$
                                     01F2       30302$:
                                 05' 01F2       30303$:	.BYTE	30306$-30303$
                                 00' 01F3       	.BYTE	QUA_K_CONT
                                 00  01F4       	.IIF B <>,	.BYTE	0
                               0048  01F5       	.WORD	$$$
                                     01F7       30306$:
                                 05' 01F7       30307$:	.BYTE	30310$-30307$
CMDATBAS2       - COMMAND DATA BASE MODULE 2                     22-AUG-1978 00:59:08   VAX-11 MACRO X0.3-11               Page  15
01              DEFINE DCLS COMMANDS                                                                                             (1)

                                 00' 01F8       	.BYTE	QUA_K_MAP
                                 00  01F9       	.IIF B <>,	.BYTE	0
                               096C  01FA       	.WORD	$$$
                                     01FC       30310$:
                                 05' 01FC       30311$:	.BYTE	30314$-30311$
                                 00' 01FD       	.BYTE	QUA_K_OPTI
                                 00  01FE       	.IIF B <>,	.BYTE	0
                               0050  01FF       	.WORD	$$$
                                     0201       30314$:
                                 05' 0201       30315$:	.BYTE	30318$-30315$
                                 00' 0202       	.BYTE	QUA_K_SELE
                                 00  0203       	.IIF B <>,	.BYTE	0
                               0050  0204       	.WORD	$$$
                                     0206       30318$:
                                 05' 0206       30319$:	.BYTE	30322$-30319$
                                 00' 0207       	.BYTE	QUA_K_SYMB
                                 00  0208       	.IIF B <>,	.BYTE	0
                               086C  0209       	.WORD	$$$
                                     020B       30322$:
                                 05' 020B       30323$:	.BYTE	30326$-30323$
                                 00' 020C       	.BYTE	QUA_K_SYSL
                                 00  020D       	.IIF B <>,	.BYTE	0
                               00C8  020E       	.WORD	$$$
                                     0210       30326$:
                                 05' 0210       30327$:	.BYTE	30330$-30327$
                                 00' 0211       	.BYTE	QUA_K_SYST
                                 00  0212       	.IIF B <>,	.BYTE	0
                               2068  0213       	.WORD	$$$
                                     0215       30330$:
                                 17' 0215       30331$:	.BYTE	30334$-30331$
                                 00' 0216       	.BYTE	QUA_K_SUPR
                                 05' 0217       	.IIF NB	<SYSLIB,DEBUG,WEAK>,	.BYTE	30332$-30331$
                               00E8  0218       	.WORD	$$$
55 42 45 44 2C 42 49 4C 53 59 53 00' 021A       30332$:	.ASCIC	\SYSLIB,DEBUG,WEAK\
                  4B 41 45 57 2C 47  0226
                                 11  021A
                                     022C       30334$:
                                 06' 022C       30335$:	.BYTE	30338$-30335$
                                 00' 022D       	.BYTE	QUA_K_RSX1
                                 00  022E       	.IIF B <>,	.BYTE	0
                               0408  022F       	.WORD	$$$
                                 00' 0231       	.BYTE	IMG_K_BACKTRANS
                                     0232       30338$:
                                 05' 0232       30339$:	.BYTE	30342$-30339$
                                 00' 0233       	.BYTE	QUA_K_FULL
                                 00  0234       	.IIF B <>,	.BYTE	0
                               0048  0235       	.WORD	$$$
                                     0237       30342$:
                                 05' 0237       30343$:	.BYTE	30346$-30343$
                                 00' 0238       	.BYTE	QUA_K_CONC
                                 00  0239       	.IIF B <>,	.BYTE	0
                               0050  023A       	.WORD	$$$
                                     023C       30346$:
                                 05' 023C       30347$:	.BYTE	30350$-30347$
                                 00' 023D       	.BYTE	QUA_K_DEFA
                                 00  023E       	.IIF B <>,	.BYTE	0
                               102C  023F       	.WORD	$$$
CMDATBAS2       - COMMAND DATA BASE MODULE 2                     22-AUG-1978 00:59:08   VAX-11 MACRO X0.3-11               Page  16
01              DEFINE DCLS COMMANDS                                                                                             (1)

                                     0241       30350$:
                                 07' 0241       30351$:	.BYTE	30354$-30351$
                                 00' 0242       	.BYTE	QUA_K_EXIT
                                 05' 0243       	.IIF NB	<1>,	.BYTE	30352$-30351$
                               2068  0244       	.WORD	$$$
                              31 00' 0246       30352$:	.ASCIC	\1\
                                 01  0246
                                     0248       30354$:
                                 05' 0248       30355$:	.BYTE	30358$-30355$
                                 00' 0249       	.BYTE	QUA_K_HEAD
                                 00  024A       	.IIF B <>,	.BYTE	0
                               0048  024B       	.WORD	$$$
                                     024D       30358$:
                                 05' 024D       30359$:	.BYTE	30362$-30359$
                                 00' 024E       	.BYTE	QUA_K_OVER
                                 00  024F       	.IIF B <>,	.BYTE	0
                               0048  0250       	.WORD	$$$
                                     0252       30362$:
                                 05' 0252       30363$:	.BYTE	30366$-30363$
                                 00' 0253       	.BYTE	QUA_K_POSI
                                 00  0254       	.IIF B <>,	.BYTE	0
                               0048  0255       	.WORD	$$$
                                     0257       30366$:
                                 05' 0257       30367$:	.BYTE	30370$-30367$
                                 00' 0258       	.BYTE	QUA_K_SEQU
                                 00  0259       	.IIF B <>,	.BYTE	0
                               0048  025A       	.WORD	$$$
                                     025C       30370$:
                                 05' 025C       30371$:	.BYTE	30374$-30371$
                                 00' 025D       	.BYTE	QUA_K_TRAC
                                 00  025E       	.IIF B <>,	.BYTE	0
                               00C8  025F       	.WORD	$$$
                                     0261       30374$:
                                 09' 0261       30375$:	.BYTE	30378$-30375$
                                 05' 0262       	.BYTE	<30377$-30375$>
                                 00  0263       	.IIF B <>,	.BYTE	0
                               006E  0264       	.WORD	$$$
                        5F 42 4B 54  0266       30377$:	.ASCII	\TKB_\
                                     026A       30378$:
                                 09' 026A       30379$:	.BYTE	30382$-30379$
                                 05' 026B       	.BYTE	<30381$-30379$>
                                 00  026C       	.IIF B <>,	.BYTE	0
                               004A  026D       	.WORD	$$$
                        54 53 4F 50  026F       30381$:	.ASCII	\POST\
                                     0273       30382$:
                                 09' 0273       30383$:	.BYTE	30386$-30383$
                                 05' 0274       	.BYTE	<30385$-30383$>
                                 00  0275       	.IIF B <>,	.BYTE	0
                               00CA  0276       	.WORD	$$$
                        53 53 59 53  0278       30385$:	.ASCII	\SYSS\
                                     027C       30386$:
                           00000273  027C       .=$QUALBLK$
                                 00  0273       	.BYTE	0
                                 000001CF       	.RESTORE
                                     01CF   116
                                     01CF   117
                                     01CF   118 	DEFCMD	LOGO,-			; DEFINE LOGOUT COMMAND
CMDATBAS2       - COMMAND DATA BASE MODULE 2                     22-AUG-1978 00:59:08   VAX-11 MACRO X0.3-11               Page  17
01              DEFINE DCLS COMMANDS                                                                                             (1)

                                     01CF   119 		QUAL  =YES,-		; YES QUALIFIERS ALLOWED
                                     01CF   120 		MINPRM=0,-		; MINIMUM PARAMETER COUNT
                                     01CF   121 		MAXPRM=0,-		; MAXIMUM PARAMETERS ALLOWED
                                     01CF   122 		DEFIMG=LOGOUT,-		; DEFAULT IMAGE OR ROUTINE NAME
                                     01CF   123
                                     01CF       	.LIST
                                 00000020       	.PSECT	DCL$VERBTBL,BYTE,RD,NOWRT
                                 CC  0020       	.BYTE	^A/L/!$XX$
                                 4F  0021       	.BYTE	^A/O/!$XX$
                                 47  0022       	.BYTE	^A/G/!$XX$
                                 4F  0023       	.BYTE	^A/O/!$XX$
                                     0024       	.LIST
                                 00000010       	.PSECT	DCL$COMDPTR,BYTE,RD,NOWRT
                               026A' 0010       	.WORD	VERB_G_LOGO-.-2
                                     0012       	.LIST
                                 0000027C       	.PSECT	DCL$CMDATA,BYTE,RD,NOWRT
                                     027C       VERB_G_LOGO:
                                 1F  027C       	.BYTE	CLI$K_VERB_LOGO
                                 00  027D       	.BYTE	0*16+0
                                 00' 027E       	.BYTE	IMG_K_LOGOUT
                                 02' 027F       	.BYTE	QUA_G_LOGO-.-1
                                 00  0280       	.BYTE	0
                                 00  0281       	.BYTE	$$$
                                     0282       	.SAVE
                                 00000282       	.PSECT	DCL$CMDATA,BYTE,RD,NOWRT
                                     0282       QUA_G_LOGO:
                                 05' 0282       30388$:	.BYTE	30391$-30388$
                                 00' 0283       	.BYTE	QUA_K_BRIE
                                 00  0284       	.IIF B <>,	.BYTE	0
                               0008  0285       	.WORD	$$$
                                     0287       30391$:
                                 05' 0287       30392$:	.BYTE	30395$-30392$
                                 00' 0288       	.BYTE	QUA_K_FULL
                                 00  0289       	.IIF B <>,	.BYTE	0
                               0008  028A       	.WORD	$$$
                                     028C       30395$:
                           00000287  028C       .=$QUALBLK$
                                 00  0287       	.BYTE	0
                                 00000282       	.RESTORE
                                     0282   124
                                     0282   125 	DEFCMD	MACR,-			; DEFINE MACRO COMMAND
                                     0282   126 		QUAL  =YES,-		; YES QUALIFIERS ALLOWED
                                     0282   127 		MINPRM=1,-		; MINIMUM PARAMETER COUNT
                                     0282   128 		MAXPRM=1,-		; MAXIMUM PARAMETERS ALLOWED
                                     0282   129 		DEFIMG=BACKTRANS,-	; DEFAULT IMAGE OR ROUTINE NAME
                                     0282   130 		OUTPRS=<CLI$K_MACR_OBJE,CLI$K_MACR_LIST>,-
                                     0282   131 		PRMPTS=<<FILE,<REQ,CONCAT,LIST>>,- ; FIRST PROMPT AND FLAGS
                                     0282   132 			>
                                     0282       	.LIST
                                 00000024       	.PSECT	DCL$VERBTBL,BYTE,RD,NOWRT
                                 CD  0024       	.BYTE	^A/M/!$XX$
                                 41  0025       	.BYTE	^A/A/!$XX$
                                 43  0026       	.BYTE	^A/C/!$XX$
                                 52  0027       	.BYTE	^A/R/!$XX$
                                     0028       	.LIST
                                 00000012       	.PSECT	DCL$COMDPTR,BYTE,RD,NOWRT
                               0278' 0012       	.WORD	VERB_G_MACR-.-2
CMDATBAS2       - COMMAND DATA BASE MODULE 2                     22-AUG-1978 00:59:08   VAX-11 MACRO X0.3-11               Page  18
01              DEFINE DCLS COMMANDS                                                                                             (1)

                                     0014       	.LIST
                                 0000028C       	.PSECT	DCL$CMDATA,BYTE,RD,NOWRT
                                     028C       VERB_G_MACR:
                                 20  028C       	.BYTE	CLI$K_VERB_MACR
                                 11  028D       	.BYTE	1*16+1
                                 00' 028E       	.BYTE	IMG_K_BACKTRANS
                                 07' 028F       	.BYTE	QUA_G_MACR-.-1
                                 04' 0290       	.BYTE	MACR_G_PRMPT-.-1
                                 04  0291       	.BYTE	$$$
                                 02' 0292       	.BYTE	30396$-.-1
                                 05' 0293       	.BYTE	CLI$K_MACR_OBJE
                                 04' 0294       	.BYTE	CLI$K_MACR_LIST
                                     0295       30396$:
                                     0295       MACR_G_PRMPT:
                                 00' 0295       	.BYTE	PRO_K_FILE
                                 15  0296       	.IIF NB	<BYTE>, .BYTE $$$
                                     0297       	.SAVE
                                 00000297       	.PSECT	DCL$CMDATA,BYTE,RD,NOWRT
                                     0297       QUA_G_MACR:
                                 05' 0297       30397$:	.BYTE	30400$-30397$
                                 00' 0298       	.BYTE	QUA_K_DISA
                                 00  0299       	.IIF B <>,	.BYTE	0
                               1028  029A       	.WORD	$$$
                                     029C       30400$:
                                 05' 029C       30401$:	.BYTE	30404$-30401$
                                 00' 029D       	.BYTE	QUA_K_ENAB
                                 00  029E       	.IIF B <>,	.BYTE	0
                               1028  029F       	.WORD	$$$
                                     02A1       30404$:
                                 05' 02A1       30405$:	.BYTE	30408$-30405$
                                 00' 02A2       	.BYTE	QUA_K_LIBR
                                 00  02A3       	.IIF B <>,	.BYTE	0
                               0010  02A4       	.WORD	$$$
                                     02A6       30408$:
                                 05' 02A6       30409$:	.BYTE	30412$-30409$
                                 00' 02A7       	.BYTE	QUA_K_LIST
                                 00  02A8       	.IIF B <>,	.BYTE	0
                               096C  02A9       	.WORD	$$$
                                     02AB       30412$:
                                 05' 02AB       30413$:	.BYTE	30416$-30413$
                                 00' 02AC       	.BYTE	QUA_K_OBJE
                                 00  02AD       	.IIF B <>,	.BYTE	0
                               0B6C  02AE       	.WORD	$$$
                                     02B0       30416$:
                                 05' 02B0       30417$:	.BYTE	30420$-30417$
                                 00' 02B1       	.BYTE	QUA_K_SHOW
                                 00  02B2       	.IIF B <>,	.BYTE	0
                               0028  02B3       	.WORD	$$$
                                     02B5       30420$:
                                 06' 02B5       30421$:	.BYTE	30424$-30421$
                                 00' 02B6       	.BYTE	QUA_K_RSX1
                                 00  02B7       	.IIF B <>,	.BYTE	0
                               0408  02B8       	.WORD	$$$
                                 00' 02BA       	.BYTE	IMG_K_BACKTRANS
                                     02BB       30424$:
                                 09' 02BB       30425$:	.BYTE	30428$-30425$
                                 05' 02BC       	.BYTE	<30427$-30425$>
CMDATBAS2       - COMMAND DATA BASE MODULE 2                     22-AUG-1978 00:59:08   VAX-11 MACRO X0.3-11               Page  19
01              DEFINE DCLS COMMANDS                                                                                             (1)

                                 00  02BD       	.IIF B <>,	.BYTE	0
                               002A  02BE       	.WORD	$$$
                        48 53 4F 4E  02C0       30427$:	.ASCII	\NOSH\
                                     02C4       30428$:
                           000002BB  02C4       .=$QUALBLK$
                                 00  02BB       	.BYTE	0
                                 00000297       	.RESTORE
                                     0297   133
                                     0297   134 	DEFCMD	MCR,-			; DEFINE MCR COMMAND
                                     0297   135 		QUAL  =NO,-		; NO QUALIFIERS ALLOWED
                                     0297   136 		MINPRM=0,-		; MINIMUM PARAMETER COUNT
                                     0297   137 		MAXPRM=0,-		; MAXIMUM PARAMETERS ALLOWED
                                     0297   138 		DEFIMG=MCR,-		; DEFAULT IMAGE OR ROUTINE NAME
                                     0297   139 		FLAGS =<FOREIGN>	; COMMAND PROCESSING FLAGS
                                     0297       	.LIST
                                 00000028       	.PSECT	DCL$VERBTBL,BYTE,RD,NOWRT
                                 CD  0028       	.BYTE	^A/M/!$XX$
                                 43  0029       	.BYTE	^A/C/!$XX$
                                 52  002A       	.BYTE	^A/R/!$XX$
                                 20  002B       	.ASCII	\ \
                                     002C       	.LIST
                                 00000014       	.PSECT	DCL$COMDPTR,BYTE,RD,NOWRT
                               02AE' 0014       	.WORD	VERB_G_MCR-.-2
                                     0016       	.LIST
                                 000002C4       	.PSECT	DCL$CMDATA,BYTE,RD,NOWRT
                                     02C4       VERB_G_MCR:
                                 21  02C4       	.BYTE	CLI$K_VERB_MCR
                                 00  02C5       	.BYTE	0*16+0
                                 00' 02C6       	.BYTE	IMG_K_MCR
                                 00  02C7       	.BYTE	0
                                 00  02C8       	.BYTE	0
                                 01  02C9       	.BYTE	$$$
                                     02CA   140
                                     02CA   141 	DEFCMD	MOUN,-			; DEFINE MOUNT COMMAND
                                     02CA   142 		QUAL  =YES,-		; YES QUALIFIERS ALLOWED
                                     02CA   143 		MINPRM=2,-		; MINIMUM PARAMETER COUNT
                                     02CA   144 		MAXPRM=3,-		; MAXIMUM PARAMETERS ALLOWED
                                     02CA   145 		DEFIMG=VMOUNT,-		; DEFAULT IMAGE OR ROUTINE NAME
                                     02CA   146 		PRMPTS=<<DEVICE,<REQ,CONCAT,LIST,IMPCAT>>,- ; FIRST PROMPT
                                     02CA   147 			<LABEL,<REQ,CONCAT,LIST,IMPCAT>>,-  ; SECOND PROMPT
                                     02CA   148 			<LOG_NAME,<CONCAT,LIST,IMPCAT>>,-   ; THIRD
                                     02CA   149 			>
                                     02CA       	.LIST
                                 0000002C       	.PSECT	DCL$VERBTBL,BYTE,RD,NOWRT
                                 CD  002C       	.BYTE	^A/M/!$XX$
                                 4F  002D       	.BYTE	^A/O/!$XX$
                                 55  002E       	.BYTE	^A/U/!$XX$
                                 4E  002F       	.BYTE	^A/N/!$XX$
                                     0030       	.LIST
                                 00000016       	.PSECT	DCL$COMDPTR,BYTE,RD,NOWRT
                               02B2' 0016       	.WORD	VERB_G_MOUN-.-2
                                     0018       	.LIST
                                 000002CA       	.PSECT	DCL$CMDATA,BYTE,RD,NOWRT
                                     02CA       VERB_G_MOUN:
                                 2B  02CA       	.BYTE	CLI$K_VERB_MOUN
                                 32  02CB       	.BYTE	3*16+2
                                 00' 02CC       	.BYTE	IMG_K_VMOUNT
CMDATBAS2       - COMMAND DATA BASE MODULE 2                     22-AUG-1978 00:59:08   VAX-11 MACRO X0.3-11               Page  20
01              DEFINE DCLS COMMANDS                                                                                             (1)

                                 08' 02CD       	.BYTE	QUA_G_MOUN-.-1
                                 01' 02CE       	.BYTE	MOUN_G_PRMPT-.-1
                                 00  02CF       	.BYTE	$$$
                                     02D0       MOUN_G_PRMPT:
                                 00' 02D0       	.BYTE	PRO_K_DEVICE
                                 17  02D1       	.IIF NB	<BYTE>, .BYTE $$$
                                 00' 02D2       	.BYTE	PRO_K_LABEL
                                 17  02D3       	.IIF NB	<BYTE>, .BYTE $$$
                                 00' 02D4       	.BYTE	PRO_K_LOG_NAME
                                 07  02D5       	.IIF NB	<BYTE>, .BYTE $$$
                                     02D6       	.SAVE
                                 000002D6       	.PSECT	DCL$CMDATA,BYTE,RD,NOWRT
                                     02D6       QUA_G_MOUN:
                                 05' 02D6       30431$:	.BYTE	30434$-30431$
                                 00' 02D7       	.BYTE	QUA_K_ACCE
                                 00  02D8       	.IIF B <>,	.BYTE	0
                               3028  02D9       	.WORD	$$$
                                     02DB       30434$:
                                 05' 02DB       30435$:	.BYTE	30438$-30435$
                                 00' 02DC       	.BYTE	QUA_K_BLOC
                                 00  02DD       	.IIF B <>,	.BYTE	0
                               20A8  02DE       	.WORD	$$$
                                     02E0       30438$:
                                 05' 02E0       30439$:	.BYTE	30442$-30439$
                                 00' 02E1       	.BYTE	QUA_K_COMM
                                 00  02E2       	.IIF B <>,	.BYTE	0
                               3028  02E3       	.WORD	$$$
                                     02E5       30442$:
                                 05' 02E5       30443$:	.BYTE	30446$-30443$
                                 00' 02E6       	.BYTE	QUA_K_DENS
                                 00  02E7       	.IIF B <>,	.BYTE	0
                               3028  02E8       	.WORD	$$$
                                     02EA       30446$:
                                 05' 02EA       30447$:	.BYTE	30450$-30447$
                                 00' 02EB       	.BYTE	QUA_K_DRIV
                                 00  02EC       	.IIF B <>,	.BYTE	0
                               3038  02ED       	.WORD	$$$
                                     02EF       30450$:
                                 05' 02EF       30451$:	.BYTE	30454$-30451$
                                 00' 02F0       	.BYTE	QUA_K_EBCD
                                 00  02F1       	.IIF B <>,	.BYTE	0
                               1028  02F2       	.WORD	$$$
                                     02F4       30454$:
                                 05' 02F4       30455$:	.BYTE	30458$-30455$
                                 00' 02F5       	.BYTE	QUA_K_EXTE
                                 00  02F6       	.IIF B <>,	.BYTE	0
                               3028  02F7       	.WORD	$$$
                                     02F9       30458$:
                                 0F' 02F9       30459$:	.BYTE	30462$-30459$
                                 00' 02FA       	.BYTE	QUA_K_FORE
                                 00  02FB       	.IIF B <>,	.BYTE	0
                               0409  02FC       	.WORD	$$$
                                 00  02FE       	.BYTE	0
                               0000  02FF       	.WORD	0
                                 31  0301       	.BYTE	3*16+1
                                 00' 0302       	.BYTE	PRO_K_DEVICE
                                 17  0303       	.IIF NB	<BYTE>, .BYTE $$$
CMDATBAS2       - COMMAND DATA BASE MODULE 2                     22-AUG-1978 00:59:08   VAX-11 MACRO X0.3-11               Page  21
01              DEFINE DCLS COMMANDS                                                                                             (1)

                                 00' 0304       	.BYTE	PRO_K_LABEL
                                 07  0305       	.IIF NB	<BYTE>, .BYTE $$$
                                 00' 0306       	.BYTE	PRO_K_LOG_NAME
                                 07  0307       	.IIF NB	<BYTE>, .BYTE $$$
                                     0308       30462$:
                                 05' 0308       30464$:	.BYTE	30467$-30464$
                                 00' 0309       	.BYTE	QUA_K_GROU
                                 00  030A       	.IIF B <>,	.BYTE	0
                               0008  030B       	.WORD	$$$
                                     030D       30467$:
                                 0F' 030D       30468$:	.BYTE	30471$-30468$
                                 00' 030E       	.BYTE	QUA_K_LABE
                                 00  030F       	.IIF B <>,	.BYTE	0
                               04C9  0310       	.WORD	$$$
                                 00  0312       	.BYTE	0
                               0000  0313       	.WORD	0
                                 31  0315       	.BYTE	3*16+1
                                 00' 0316       	.BYTE	PRO_K_DEVICE
                                 17  0317       	.IIF NB	<BYTE>, .BYTE $$$
                                 00' 0318       	.BYTE	PRO_K_LABEL
                                 07  0319       	.IIF NB	<BYTE>, .BYTE $$$
                                 00' 031A       	.BYTE	PRO_K_LOG_NAME
                                 07  031B       	.IIF NB	<BYTE>, .BYTE $$$
                                     031C       30471$:
                                 0F' 031C       30473$:	.BYTE	30476$-30473$
                                 00' 031D       	.BYTE	QUA_K_OVER
                                 00  031E       	.IIF B <>,	.BYTE	0
                               1429  031F       	.WORD	$$$
                                 00  0321       	.BYTE	0
                               0000  0322       	.WORD	0
                                 31  0324       	.BYTE	3*16+1
                                 00' 0325       	.BYTE	PRO_K_DEVICE
                                 17  0326       	.IIF NB	<BYTE>, .BYTE $$$
                                 00' 0327       	.BYTE	PRO_K_LABEL
                                 07  0328       	.IIF NB	<BYTE>, .BYTE $$$
                                 00' 0329       	.BYTE	PRO_K_LOG_NAME
                                 07  032A       	.IIF NB	<BYTE>, .BYTE $$$
                                     032B       30476$:
                                 05' 032B       30478$:	.BYTE	30481$-30478$
                                 00' 032C       	.BYTE	QUA_K_OWNE
                                 00  032D       	.IIF B <>,	.BYTE	0
                               302C  032E       	.WORD	$$$
                                     0330       30481$:
                                 05' 0330       30482$:	.BYTE	30485$-30482$
                                 00' 0331       	.BYTE	QUA_K_PROC
                                 00  0332       	.IIF B <>,	.BYTE	0
                               3028  0333       	.WORD	$$$
                                     0335       30485$:
                                 05' 0335       30486$:	.BYTE	30489$-30486$
                                 00' 0336       	.BYTE	QUA_K_PROT
                                 00  0337       	.IIF B <>,	.BYTE	0
                               1028  0338       	.WORD	$$$
                                     033A       30489$:
                                 05' 033A       30490$:	.BYTE	30493$-30490$
                                 00' 033B       	.BYTE	QUA_K_SHAR
                                 00  033C       	.IIF B <>,	.BYTE	0
                               0048  033D       	.WORD	$$$
CMDATBAS2       - COMMAND DATA BASE MODULE 2                     22-AUG-1978 00:59:08   VAX-11 MACRO X0.3-11               Page  22
01              DEFINE DCLS COMMANDS                                                                                             (1)

                                     033F       30493$:
                                 05' 033F       30494$:	.BYTE	30497$-30494$
                                 00' 0340       	.BYTE	QUA_K_SYST
                                 00  0341       	.IIF B <>,	.BYTE	0
                               0008  0342       	.WORD	$$$
                                     0344       30497$:
                                 05' 0344       30498$:	.BYTE	30501$-30498$
                                 00' 0345       	.BYTE	QUA_K_UNLO
                                 00  0346       	.IIF B <>,	.BYTE	0
                               0008  0347       	.WORD	$$$
                                     0349       30501$:
                                 05' 0349       30502$:	.BYTE	30505$-30502$
                                 00' 034A       	.BYTE	QUA_K_USER
                                 00  034B       	.IIF B <>,	.BYTE	0
                               302C  034C       	.WORD	$$$
                                     034E       30505$:
                                 05' 034E       30506$:	.BYTE	30509$-30506$
                                 00' 034F       	.BYTE	QUA_K_VISU
                                 00  0350       	.IIF B <>,	.BYTE	0
                               3028  0351       	.WORD	$$$
                                     0353       30509$:
                                 05' 0353       30510$:	.BYTE	30513$-30510$
                                 00' 0354       	.BYTE	QUA_K_WIND
                                 00  0355       	.IIF B <>,	.BYTE	0
                               3028  0356       	.WORD	$$$
                                     0358       30513$:
                                 05' 0358       30514$:	.BYTE	30517$-30514$
                                 00' 0359       	.BYTE	QUA_K_WRIT
                                 00  035A       	.IIF B <>,	.BYTE	0
                               00C8  035B       	.WORD	$$$
                                     035D       30517$:
                                 05' 035D       30518$:	.BYTE	30521$-30518$
                                 00' 035E       	.BYTE	QUA_K_DATA
                                 00  035F       	.IIF B <>,	.BYTE	0
                               0028  0360       	.WORD	$$$
                                     0362       30521$:
                                 05' 0362       30522$:	.BYTE	30525$-30522$
                                 00' 0363       	.BYTE	QUA_K_RECO
                                 00  0364       	.IIF B <>,	.BYTE	0
                               3028  0365       	.WORD	$$$
                                     0367       30525$:
                           00000362  0367       .=$QUALBLK$
                                 00  0362       	.BYTE	0
                                 000002D6       	.RESTORE
                                     02D6   150
                                     02D6   151 	DEFCMD	ON,-			; DEFINE ON COMMAND
                                     02D6   152 		QUAL	=NO,-		; NO QUALIFIERS ALLOWED
                                     02D6   153 		MINPRM	=0,-		; MINIMUM NUMBER OF PARAMETERS
                                     02D6   154 		MAXPRM	=0,-		; MAXIMUM NUMBER OF PARAMETERS
                                     02D6   155 		DEFIMG=ON,-		; DEFAULT IMAGE OR ROUTINE NAME
                                     02D6   156 		FLAGS	=IMMED		; COMMAND PROCESSING FLAGS
                                     02D6       	.LIST
                                 00000030       	.PSECT	DCL$VERBTBL,BYTE,RD,NOWRT
                                 CF  0030       	.BYTE	^A/O/!$XX$
                                 4E  0031       	.BYTE	^A/N/!$XX$
                                 20  0032       	.ASCII	\ \
                                 20  0033       	.ASCII	\ \
CMDATBAS2       - COMMAND DATA BASE MODULE 2                     22-AUG-1978 00:59:08   VAX-11 MACRO X0.3-11               Page  23
01              DEFINE DCLS COMMANDS                                                                                             (1)

                                     0034       	.LIST
                                 00000018       	.PSECT	DCL$COMDPTR,BYTE,RD,NOWRT
                               034D' 0018       	.WORD	VERB_G_ON-.-2
                                     001A       	.LIST
                                 00000367       	.PSECT	DCL$CMDATA,BYTE,RD,NOWRT
                                     0367       VERB_G_ON:
                                 22  0367       	.BYTE	CLI$K_VERB_ON
                                 00  0368       	.BYTE	0*16+0
                                 00' 0369       	.BYTE	IMG_K_ON
                                 00  036A       	.BYTE	0
                                 00  036B       	.BYTE	0
                                 02  036C       	.BYTE	$$$
                                     036D   157
                                     036D   158 	DEFCMD	OPEN,-			; DEFINE OPEN COMMAND
                                     036D   159 		QUAL	=YES,-		; QUALIFIERS ALLOWED
                                     036D   160 		MINPRM	=2,-		; MINIMUM NUMBER OF PARAMETERS
                                     036D   161 		MAXPRM	=2,-		; MAXIMUM NUMBER OF PARAMETERS
                                     036D   162 		DEFIMG	=OPEN,-		; DEFAULT IMAGE OR ROUTINE NAME
                                     036D   163 		PRMPTS	=<<LOG_NAME,REQ>,- ; FIRST PROMPT
                                     036D   164 			<FILE,REQ>>	; SECOND PROMPT
                                     036D       	.LIST
                                 00000034       	.PSECT	DCL$VERBTBL,BYTE,RD,NOWRT
                                 CF  0034       	.BYTE	^A/O/!$XX$
                                 50  0035       	.BYTE	^A/P/!$XX$
                                 45  0036       	.BYTE	^A/E/!$XX$
                                 4E  0037       	.BYTE	^A/N/!$XX$
                                     0038       	.LIST
                                 0000001A       	.PSECT	DCL$COMDPTR,BYTE,RD,NOWRT
                               0351' 001A       	.WORD	VERB_G_OPEN-.-2
                                     001C       	.LIST
                                 0000036D       	.PSECT	DCL$CMDATA,BYTE,RD,NOWRT
                                     036D       VERB_G_OPEN:
                                 00  036D       	.BYTE	0
                                 22  036E       	.BYTE	2*16+2
                                 00' 036F       	.BYTE	IMG_K_OPEN
                                 06' 0370       	.BYTE	QUA_G_OPEN-.-1
                                 01' 0371       	.BYTE	OPEN_G_PRMPT-.-1
                                 00  0372       	.BYTE	$$$
                                     0373       OPEN_G_PRMPT:
                                 00' 0373       	.BYTE	PRO_K_LOG_NAME
                                 10  0374       	.IIF NB	<BYTE>, .BYTE $$$
                                 00' 0375       	.BYTE	PRO_K_FILE
                                 10  0376       	.IIF NB	<BYTE>, .BYTE $$$
                                     0377       	.SAVE
                                 00000377       	.PSECT	DCL$CMDATA,BYTE,RD,NOWRT
                                     0377       QUA_G_OPEN:
                                 05' 0377       30528$:	.BYTE	30531$-30528$
                                 00' 0378       	.BYTE	QUA_K_END_
                                 00  0379       	.IIF B <>,	.BYTE	0
                               1028  037A       	.WORD	$$$
                                     037C       30531$:
                                 05' 037C       30532$:	.BYTE	30535$-30532$
                                 00' 037D       	.BYTE	QUA_K_ERRO
                                 00  037E       	.IIF B <>,	.BYTE	0
                               1028  037F       	.WORD	$$$
                                     0381       30535$:
                                 05' 0381       30536$:	.BYTE	30539$-30536$
CMDATBAS2       - COMMAND DATA BASE MODULE 2                     22-AUG-1978 00:59:08   VAX-11 MACRO X0.3-11               Page  24
01              DEFINE DCLS COMMANDS                                                                                             (1)

                                 00' 0382       	.BYTE	QUA_K_READ
                                 00  0383       	.IIF B <>,	.BYTE	0
                               0008  0384       	.WORD	$$$
                                     0386       30539$:
                                 05' 0386       30540$:	.BYTE	30543$-30540$
                                 00' 0387       	.BYTE	QUA_K_WRIT
                                 00  0388       	.IIF B <>,	.BYTE	0
                               0008  0389       	.WORD	$$$
                                     038B       30543$:
                           00000386  038B       .=$QUALBLK$
                                 00  0386       	.BYTE	0
                                 00000377       	.RESTORE
                                     0377   165
                                     0377   166 	DEFCMD	PATC,-			; DEFINE PATCH COMMAND
                                     0377   167 		QUAL  =YES,-		; YES QUALIFIERS ALLOWED
                                     0377   168 		MINPRM=1,-		; MINIMUM PARAMETER COUNT
                                     0377   169 		MAXPRM=1,-		; MAXIMUM PARAMETERS ALLOWED
                                     0377   170 		DEFIMG=PATCH,-		; DEFAULT IMAGE OR ROUTINE NAME
                                     0377   171 		OUTPRS=<CLI$K_PATC_OUTP,CLI$K_PATC_JOUR,CLI$K_PATC_COMM>,-
                                     0377   172 		PRMPTS=<<FILE,REQ>,-	; FIRST PROMPT AND FLAGS
                                     0377   173 			>
                                     0377       	.LIST
                                 00000038       	.PSECT	DCL$VERBTBL,BYTE,RD,NOWRT
                                 D0  0038       	.BYTE	^A/P/!$XX$
                                 41  0039       	.BYTE	^A/A/!$XX$
                                 54  003A       	.BYTE	^A/T/!$XX$
                                 43  003B       	.BYTE	^A/C/!$XX$
                                     003C       	.LIST
                                 0000001C       	.PSECT	DCL$COMDPTR,BYTE,RD,NOWRT
                               036D' 001C       	.WORD	VERB_G_PATC-.-2
                                     001E       	.LIST
                                 0000038B       	.PSECT	DCL$CMDATA,BYTE,RD,NOWRT
                                     038B       VERB_G_PATC:
                                 2C  038B       	.BYTE	CLI$K_VERB_PATC
                                 11  038C       	.BYTE	1*16+1
                                 00' 038D       	.BYTE	IMG_K_PATCH
                                 08' 038E       	.BYTE	QUA_G_PATC-.-1
                                 05' 038F       	.BYTE	PATC_G_PRMPT-.-1
                                 04  0390       	.BYTE	$$$
                                 03' 0391       	.BYTE	30544$-.-1
                                 03' 0392       	.BYTE	CLI$K_PATC_OUTP
                                 02' 0393       	.BYTE	CLI$K_PATC_JOUR
                                 01' 0394       	.BYTE	CLI$K_PATC_COMM
                                     0395       30544$:
                                     0395       PATC_G_PRMPT:
                                 00' 0395       	.BYTE	PRO_K_FILE
                                 10  0396       	.IIF NB	<BYTE>, .BYTE $$$
                                     0397       	.SAVE
                                 00000397       	.PSECT	DCL$CMDATA,BYTE,RD,NOWRT
                                     0397       QUA_G_PATC:
                                 05' 0397       30545$:	.BYTE	30548$-30545$
                                 00' 0398       	.BYTE	QUA_K_COMM
                                 00  0399       	.IIF B <>,	.BYTE	0
                               286C  039A       	.WORD	$$$
                                     039C       30548$:
                                 05' 039C       30549$:	.BYTE	30552$-30549$
                                 00' 039D       	.BYTE	QUA_K_JOUR
CMDATBAS2       - COMMAND DATA BASE MODULE 2                     22-AUG-1978 00:59:08   VAX-11 MACRO X0.3-11               Page  25
01              DEFINE DCLS COMMANDS                                                                                             (1)

                                 00  039E       	.IIF B <>,	.BYTE	0
                               0B6C  039F       	.WORD	$$$
                                     03A1       30552$:
                                 05' 03A1       30553$:	.BYTE	30556$-30553$
                                 00' 03A2       	.BYTE	QUA_K_OUTP
                                 00  03A3       	.IIF B <>,	.BYTE	0
                               0B6C  03A4       	.WORD	$$$
                                     03A6       30556$:
                                 05' 03A6       30557$:	.BYTE	30560$-30557$
                                 00' 03A7       	.BYTE	QUA_K_UPDA
                                 00  03A8       	.IIF B <>,	.BYTE	0
                               1038  03A9       	.WORD	$$$
                                     03AB       30560$:
                           000003A6  03AB       .=$QUALBLK$
                                 00  03A6       	.BYTE	0
                                 00000397       	.RESTORE
                                     0397   174 	DEFCMD	PRIN,-			; DEFINE PRINT COMMAND
                                     0397   175 		QUAL  =YES,-		; YES QUALIFIERS ALLOWED
                                     0397   176 		MINPRM=1,-		; MINIMUM PARAMETER COUNT
                                     0397   177 		MAXPRM=1,-		; MAXIMUM PARAMETERS ALLOWED
                                     0397   178 		DEFIMG=SUBMIT,-		; DEFAULT IMAGE OR ROUTINE NAME
                                     0397   179 		QUALST=SUBM,-		; USE QUALIFIERS FOR SUBMIT
                                     0397   180 		PRMPTS=<<FILE,<REQ,CONCAT,LIST,IMPCAT>>,- ; FIRST PROMPT AND FLAGS
                                     0397   181 			>
                                     0397       	.LIST
                                 0000003C       	.PSECT	DCL$VERBTBL,BYTE,RD,NOWRT
                                 D0  003C       	.BYTE	^A/P/!$XX$
                                 52  003D       	.BYTE	^A/R/!$XX$
                                 49  003E       	.BYTE	^A/I/!$XX$
                                 4E  003F       	.BYTE	^A/N/!$XX$
                                     0040       	.LIST
                                 0000001E       	.PSECT	DCL$COMDPTR,BYTE,RD,NOWRT
                               038B' 001E       	.WORD	VERB_G_PRIN-.-2
                                     0020       	.LIST
                                 000003AB       	.PSECT	DCL$CMDATA,BYTE,RD,NOWRT
                                     03AB       VERB_G_PRIN:
                                 23  03AB       	.BYTE	CLI$K_VERB_PRIN
                                 11  03AC       	.BYTE	1*16+1
                                 00' 03AD       	.BYTE	IMG_K_SUBMIT
                                 04' 03AE       	.BYTE	QUA_G_PRIN-.-1
                                 01' 03AF       	.BYTE	PRIN_G_PRMPT-.-1
                                 10  03B0       	.BYTE	$$$
                                     03B1       PRIN_G_PRMPT:
                                 00' 03B1       	.BYTE	PRO_K_FILE
                                 17  03B2       	.IIF NB	<BYTE>, .BYTE $$$
                                     03B3       QUA_G_PRIN:
                               FC4D' 03B3       	.WORD	DCL$G_SUBMQUALS-.
                                     03B5   182
                                     03B5   183 	DEFCMD	PURG,-			; DEFINE PURGE COMMAND
                                     03B5   184 		QUAL  =YES,-		; YES QUALIFIERS ALLOWED
                                     03B5   185 		MINPRM=0,-		; MINIMUM PARAMETER COUNT
                                     03B5   186 		MAXPRM=1,-		; MAXIMUM PARAMETERS ALLOWED
                                     03B5   187 		DEFIMG=DELETE,-		; DEFAULT IMAGE OR ROUTINE NAME
                                     03B5   188 		PRMPTS=<<FILE,<CONCAT,LIST,IMPCAT>>,- ; FIRST PROMPT AND FLAGS
                                     03B5   189 			>
                                     03B5       	.LIST
                                 00000040       	.PSECT	DCL$VERBTBL,BYTE,RD,NOWRT
CMDATBAS2       - COMMAND DATA BASE MODULE 2                     22-AUG-1978 00:59:08   VAX-11 MACRO X0.3-11               Page  26
01              DEFINE DCLS COMMANDS                                                                                             (1)

                                 D0  0040       	.BYTE	^A/P/!$XX$
                                 55  0041       	.BYTE	^A/U/!$XX$
                                 52  0042       	.BYTE	^A/R/!$XX$
                                 47  0043       	.BYTE	^A/G/!$XX$
                                     0044       	.LIST
                                 00000020       	.PSECT	DCL$COMDPTR,BYTE,RD,NOWRT
                               0393' 0020       	.WORD	VERB_G_PURG-.-2
                                     0022       	.LIST
                                 000003B5       	.PSECT	DCL$CMDATA,BYTE,RD,NOWRT
                                     03B5       VERB_G_PURG:
                                 31  03B5       	.BYTE	CLI$K_VERB_PURG
                                 10  03B6       	.BYTE	1*16+0
                                 00' 03B7       	.BYTE	IMG_K_DELETE
                                 04' 03B8       	.BYTE	QUA_G_PURG-.-1
                                 01' 03B9       	.BYTE	PURG_G_PRMPT-.-1
                                 00  03BA       	.BYTE	$$$
                                     03BB       PURG_G_PRMPT:
                                 00' 03BB       	.BYTE	PRO_K_FILE
                                 07  03BC       	.IIF NB	<BYTE>, .BYTE $$$
                                     03BD       	.SAVE
                                 000003BD       	.PSECT	DCL$CMDATA,BYTE,RD,NOWRT
                                     03BD       QUA_G_PURG:
                                 05' 03BD       30563$:	.BYTE	30566$-30563$
                                 00' 03BE       	.BYTE	QUA_K_KEEP
                                 00  03BF       	.IIF B <>,	.BYTE	0
                               3028  03C0       	.WORD	$$$
                                     03C2       30566$:
                                 05' 03C2       30567$:	.BYTE	30570$-30567$
                                 00' 03C3       	.BYTE	QUA_K_LOG
                                 00  03C4       	.IIF B <>,	.BYTE	0
                               0048  03C5       	.WORD	$$$
                                     03C7       30570$:
                           000003C2  03C7       .=$QUALBLK$
                                 00  03C2       	.BYTE	0
                                 000003BD       	.RESTORE
                                     03BD   190 ;
                                     03BD   191 ; RUN MUST BE FIRST INORDER TO BE ABBREVIATABLE TO "R"
                                     03BD   192 ;
                                     03BD   193
                                     03BD   194 	DEFCMD	RUN,-			; DEFINE RUN COMMAND
                                     03BD   195 		QUAL  =YES,-		; YES QUALIFIERS ALLOWED
                                     03BD   196 		MINPRM=1,-		; MINIMUM PARAMETER COUNT
                                     03BD   197 		MAXPRM=1,-		; MAXIMUM PARAMETERS ALLOWED
                                     03BD   198 		DEFIMG=RUN,-		; DEFAULT IMAGE OR ROUTINE NAME
                                     03BD   199 		FLAGS=ABREV,-		; UNIQUE NAME NOT REQUIRED
                                     03BD   200 		PRMPTS=<<FILE,REQ>,-	; FIRST PROMPT AND FLAGS
                                     03BD   201 			>
                                     03BD       	.LIST
                                 00000044       	.PSECT	DCL$VERBTBL,BYTE,RD,NOWRT
                                 D2  0044       	.BYTE	^A/R/!$XX$
                                 55  0045       	.BYTE	^A/U/!$XX$
                                 4E  0046       	.BYTE	^A/N/!$XX$
                                 20  0047       	.ASCII	\ \
                                     0048       	.LIST
                                 00000022       	.PSECT	DCL$COMDPTR,BYTE,RD,NOWRT
                               03A3' 0022       	.WORD	VERB_G_RUN-.-2
                                     0024       	.LIST
CMDATBAS2       - COMMAND DATA BASE MODULE 2                     22-AUG-1978 00:59:08   VAX-11 MACRO X0.3-11               Page  27
01              DEFINE DCLS COMMANDS                                                                                             (1)

                                 000003C7       	.PSECT	DCL$CMDATA,BYTE,RD,NOWRT
                                     03C7       VERB_G_RUN:
                                 24  03C7       	.BYTE	CLI$K_VERB_RUN
                                 11  03C8       	.BYTE	1*16+1
                                 00' 03C9       	.BYTE	IMG_K_RUN
                                 04' 03CA       	.BYTE	QUA_G_RUN-.-1
                                 01' 03CB       	.BYTE	RUN_G_PRMPT-.-1
                                 20  03CC       	.BYTE	$$$
                                     03CD       RUN_G_PRMPT:
                                 00' 03CD       	.BYTE	PRO_K_FILE
                                 10  03CE       	.IIF NB	<BYTE>, .BYTE $$$
                                     03CF       	.SAVE
                                 000003CF       	.PSECT	DCL$CMDATA,BYTE,RD,NOWRT
                                     03CF       QUA_G_RUN:
                                 06' 03CF       30572$:	.BYTE	30575$-30572$
                                 00' 03D0       	.BYTE	QUA_K_DELA
                                 00  03D1       	.IIF B <>,	.BYTE	0
                               3428  03D2       	.WORD	$$$
                                 00' 03D4       	.BYTE	IMG_K_RUNDET
                                     03D5       30575$:
                                 06' 03D5       30576$:	.BYTE	30579$-30576$
                                 00' 03D6       	.BYTE	QUA_K_ERRO
                                 00  03D7       	.IIF B <>,	.BYTE	0
                               342C  03D8       	.WORD	$$$
                                 00' 03DA       	.BYTE	IMG_K_RUNDET
                                     03DB       30579$:
                                 06' 03DB       30580$:	.BYTE	30583$-30580$
                                 00' 03DC       	.BYTE	QUA_K_INPU
                                 00  03DD       	.IIF B <>,	.BYTE	0
                               342C  03DE       	.WORD	$$$
                                 00' 03E0       	.BYTE	IMG_K_RUNDET
                                     03E1       30583$:
                                 06' 03E1       30584$:	.BYTE	30587$-30584$
                                 00' 03E2       	.BYTE	QUA_K_INTE
                                 00  03E3       	.IIF B <>,	.BYTE	0
                               3428  03E4       	.WORD	$$$
                                 00' 03E6       	.BYTE	IMG_K_RUNDET
                                     03E7       30587$:
                                 06' 03E7       30588$:	.BYTE	30591$-30588$
                                 00' 03E8       	.BYTE	QUA_K_OUTP
                                 00  03E9       	.IIF B <>,	.BYTE	0
                               342C  03EA       	.WORD	$$$
                                 00' 03EC       	.BYTE	IMG_K_RUNDET
                                     03ED       30591$:
                                 06' 03ED       30592$:	.BYTE	30595$-30592$
                                 00' 03EE       	.BYTE	QUA_K_PRIO
                                 00  03EF       	.IIF B <>,	.BYTE	0
                               3428  03F0       	.WORD	$$$
                                 00' 03F2       	.BYTE	IMG_K_RUNDET
                                     03F3       30595$:
                                 06' 03F3       30596$:	.BYTE	30599$-30596$
                                 00' 03F4       	.BYTE	QUA_K_PRIV
                                 00  03F5       	.IIF B <>,	.BYTE	0
                               1428  03F6       	.WORD	$$$
                                 00' 03F8       	.BYTE	IMG_K_RUNDET
                                     03F9       30599$:
                                 06' 03F9       30600$:	.BYTE	30603$-30600$
CMDATBAS2       - COMMAND DATA BASE MODULE 2                     22-AUG-1978 00:59:08   VAX-11 MACRO X0.3-11               Page  28
01              DEFINE DCLS COMMANDS                                                                                             (1)

                                 00' 03FA       	.BYTE	QUA_K_PROC
                                 00  03FB       	.IIF B <>,	.BYTE	0
                               3428  03FC       	.WORD	$$$
                                 00' 03FE       	.BYTE	IMG_K_RUNDET
                                     03FF       30603$:
                                 06' 03FF       30604$:	.BYTE	30607$-30604$
                                 00' 0400       	.BYTE	QUA_K_RESO
                                 00  0401       	.IIF B <>,	.BYTE	0
                               04C8  0402       	.WORD	$$$
                                 00' 0404       	.BYTE	IMG_K_RUNDET
                                     0405       30607$:
                                 06' 0405       30608$:	.BYTE	30611$-30608$
                                 00' 0406       	.BYTE	QUA_K_SCHE
                                 00  0407       	.IIF B <>,	.BYTE	0
                               3428  0408       	.WORD	$$$
                                 00' 040A       	.BYTE	IMG_K_RUNDET
                                     040B       30611$:
                                 06' 040B       30612$:	.BYTE	30615$-30612$
                                 00' 040C       	.BYTE	QUA_K_SERV
                                 00  040D       	.IIF B <>,	.BYTE	0
                               0448  040E       	.WORD	$$$
                                 00' 0410       	.BYTE	IMG_K_RUNDET
                                     0411       30615$:
                                 06' 0411       30616$:	.BYTE	30619$-30616$
                                 00' 0412       	.BYTE	QUA_K_SWAP
                                 00  0413       	.IIF B <>,	.BYTE	0
                               04C8  0414       	.WORD	$$$
                                 00' 0416       	.BYTE	IMG_K_RUNDET
                                     0417       30619$:
                                 06' 0417       30620$:	.BYTE	30623$-30620$
                                 00' 0418       	.BYTE	QUA_K_UIC
                                 00  0419       	.IIF B <>,	.BYTE	0
                               342C  041A       	.WORD	$$$
                                 00' 041C       	.BYTE	IMG_K_RUNDET
                                     041D       30623$:
                                 06' 041D       30624$:	.BYTE	30627$-30624$
                                 00' 041E       	.BYTE	QUA_K_ACCO
                                 00  041F       	.IIF B <>,	.BYTE	0
                               04C8  0420       	.WORD	$$$
                                 00' 0422       	.BYTE	IMG_K_RUNDET
                                     0423       30627$:
                                 06' 0423       30628$:	.BYTE	30631$-30628$
                                 00' 0424       	.BYTE	QUA_K_BUFF
                                 00  0425       	.IIF B <>,	.BYTE	0
                               3428  0426       	.WORD	$$$
                                 00' 0428       	.BYTE	IMG_K_RUNDET
                                     0429       30631$:
                                 06' 0429       30632$:	.BYTE	30635$-30632$
                                 00' 042A       	.BYTE	QUA_K_TIME
                                 00  042B       	.IIF B <>,	.BYTE	0
                               3428  042C       	.WORD	$$$
                                 00' 042E       	.BYTE	IMG_K_RUNDET
                                     042F       30635$:
                                 06' 042F       30636$:	.BYTE	30639$-30636$
                                 00' 0430       	.BYTE	QUA_K_FILE
                                 00  0431       	.IIF B <>,	.BYTE	0
                               3428  0432       	.WORD	$$$
CMDATBAS2       - COMMAND DATA BASE MODULE 2                     22-AUG-1978 00:59:08   VAX-11 MACRO X0.3-11               Page  29
01              DEFINE DCLS COMMANDS                                                                                             (1)

                                 00' 0434       	.BYTE	IMG_K_RUNDET
                                     0435       30639$:
                                 06' 0435       30640$:	.BYTE	30643$-30640$
                                 00' 0436       	.BYTE	QUA_K_PAGE
                                 00  0437       	.IIF B <>,	.BYTE	0
                               3428  0438       	.WORD	$$$
                                 00' 043A       	.BYTE	IMG_K_RUNDET
                                     043B       30643$:
                                 06' 043B       30644$:	.BYTE	30647$-30644$
                                 00' 043C       	.BYTE	QUA_K_QUEU
                                 00  043D       	.IIF B <>,	.BYTE	0
                               3428  043E       	.WORD	$$$
                                 00' 0440       	.BYTE	IMG_K_RUNDET
                                     0441       30647$:
                                 06' 0441       30648$:	.BYTE	30651$-30648$
                                 00' 0442       	.BYTE	QUA_K_SUBP
                                 00  0443       	.IIF B <>,	.BYTE	0
                               3428  0444       	.WORD	$$$
                                 00' 0446       	.BYTE	IMG_K_RUNDET
                                     0447       30651$:
                                 06' 0447       30652$:	.BYTE	30655$-30652$
                                 00' 0448       	.BYTE	QUA_K_MAXI
                                 00  0449       	.IIF B <>,	.BYTE	0
                               3428  044A       	.WORD	$$$
                                 00' 044C       	.BYTE	IMG_K_RUNDET
                                     044D       30655$:
                                 06' 044D       30656$:	.BYTE	30659$-30656$
                                 00' 044E       	.BYTE	QUA_K_WORK
                                 00  044F       	.IIF B <>,	.BYTE	0
                               3428  0450       	.WORD	$$$
                                 00' 0452       	.BYTE	IMG_K_RUNDET
                                     0453       30659$:
                                 05' 0453       30660$:	.BYTE	30663$-30660$
                                 00' 0454       	.BYTE	QUA_K_DEBU
                                 00  0455       	.IIF B <>,	.BYTE	0
                               0048  0456       	.WORD	$$$
                                     0458       30663$:
                                 06' 0458       30664$:	.BYTE	30667$-30664$
                                 00' 0459       	.BYTE	QUA_K_AUTH
                                 00  045A       	.IIF B <>,	.BYTE	0
                               04C8  045B       	.WORD	$$$
                                 00' 045D       	.BYTE	IMG_K_RUNDET
                                     045E       30667$:
                                 06' 045E       30668$:	.BYTE	30671$-30668$
                                 00' 045F       	.BYTE	QUA_K_MAIL
                                 00  0460       	.IIF B <>,	.BYTE	0
                               3428  0461       	.WORD	$$$
                                 00' 0463       	.BYTE	IMG_K_RUNDET
                                     0464       30671$:
                                 06' 0464       30672$:	.BYTE	30675$-30672$
                                 00' 0465       	.BYTE	QUA_K_AST_
                                 00  0466       	.IIF B <>,	.BYTE	0
                               3428  0467       	.WORD	$$$
                                 00' 0469       	.BYTE	IMG_K_RUNDET
                                     046A       30675$:
                                 0A' 046A       30676$:	.BYTE	30679$-30676$
                                 06' 046B       	.BYTE	<30678$-30676$>
CMDATBAS2       - COMMAND DATA BASE MODULE 2                     22-AUG-1978 00:59:08   VAX-11 MACRO X0.3-11               Page  30
01              DEFINE DCLS COMMANDS                                                                                             (1)

                                 00  046C       	.IIF B <>,	.BYTE	0
                               342A  046D       	.WORD	$$$
                                 00' 046F       	.BYTE	IMG_K_RUNDET
                        42 5F 4F 49  0470       30678$:	.ASCII	\IO_B\
                                     0474       30679$:
                                 0A' 0474       30680$:	.BYTE	30683$-30680$
                                 06' 0475       	.BYTE	<30682$-30680$>
                                 00  0476       	.IIF B <>,	.BYTE	0
                               342A  0477       	.WORD	$$$
                                 00' 0479       	.BYTE	IMG_K_RUNDET
                        44 5F 4F 49  047A       30682$:	.ASCII	\IO_D\
                                     047E       30683$:
                           00000474  047E       .=$QUALBLK$
                                 00  0474       	.BYTE	0
                                 000003CF       	.RESTORE
                                     03CF   202
                                     03CF   203 	DEFCMD	READ,-			; DEFINE READ COMMAND
                                     03CF   204 		QUAL	=YES,-		; QUALIFIERS ALLOWED
                                     03CF   205 		MINPRM	=2,-		; MINIMUM NUMBER OF PARAMETERS
                                     03CF   206 		MAXPRM	=2,-		; MAXIMUM NUMBER OF PARAMETERS
                                     03CF   207 		DEFIMG	=READ,-		; DEFAULT IMAGE OR ROUTINE NAME
                                     03CF   208 		PRMPTS	=<<LOG_NAME,REQ>,- ; FIRST PROMPT
                                     03CF   209 			<SYMBOL,REQ>>	; SECOND PROMPT
                                     03CF       	.LIST
                                 00000048       	.PSECT	DCL$VERBTBL,BYTE,RD,NOWRT
                                 D2  0048       	.BYTE	^A/R/!$XX$
                                 45  0049       	.BYTE	^A/E/!$XX$
                                 41  004A       	.BYTE	^A/A/!$XX$
                                 44  004B       	.BYTE	^A/D/!$XX$
                                     004C       	.LIST
                                 00000024       	.PSECT	DCL$COMDPTR,BYTE,RD,NOWRT
                               0458' 0024       	.WORD	VERB_G_READ-.-2
                                     0026       	.LIST
                                 0000047E       	.PSECT	DCL$CMDATA,BYTE,RD,NOWRT
                                     047E       VERB_G_READ:
                                 00  047E       	.BYTE	0
                                 22  047F       	.BYTE	2*16+2
                                 00' 0480       	.BYTE	IMG_K_READ
                                 06' 0481       	.BYTE	QUA_G_READ-.-1
                                 01' 0482       	.BYTE	READ_G_PRMPT-.-1
                                 00  0483       	.BYTE	$$$
                                     0484       READ_G_PRMPT:
                                 00' 0484       	.BYTE	PRO_K_LOG_NAME
                                 10  0485       	.IIF NB	<BYTE>, .BYTE $$$
                                 00' 0486       	.BYTE	PRO_K_SYMBOL
                                 10  0487       	.IIF NB	<BYTE>, .BYTE $$$
                                     0488       	.SAVE
                                 00000488       	.PSECT	DCL$CMDATA,BYTE,RD,NOWRT
                                     0488       QUA_G_READ:
                                 05' 0488       30685$:	.BYTE	30688$-30685$
                                 00' 0489       	.BYTE	QUA_K_END_
                                 00  048A       	.IIF B <>,	.BYTE	0
                               1028  048B       	.WORD	$$$
                                     048D       30688$:
                                 05' 048D       30689$:	.BYTE	30692$-30689$
                                 00' 048E       	.BYTE	QUA_K_ERRO
                                 00  048F       	.IIF B <>,	.BYTE	0
CMDATBAS2       - COMMAND DATA BASE MODULE 2                     22-AUG-1978 00:59:08   VAX-11 MACRO X0.3-11               Page  31
01              DEFINE DCLS COMMANDS                                                                                             (1)

                               1028  0490       	.WORD	$$$
                                     0492       30692$:
                                 05' 0492       30693$:	.BYTE	30696$-30693$
                                 00' 0493       	.BYTE	QUA_K_SUBS
                                 00  0494       	.IIF B <>,	.BYTE	0
                               0008  0495       	.WORD	$$$
                                     0497       30696$:
                           00000492  0497       .=$QUALBLK$
                                 00  0492       	.BYTE	0
                                 00000488       	.RESTORE
                                     0488   210
                                     0488   211 	DEFCMD	RENA,-			; DEFINE RENAME COMMAND
                                     0488   212 		QUAL  =YES,-		; YES QUALIFIERS ALLOWED
                                     0488   213 		MINPRM=2,-		; MINIMUM PARAMETER COUNT
                                     0488   214 		MAXPRM=2,-		; MAXIMUM PARAMETERS ALLOWED
                                     0488   215 		DEFIMG=BACKTRANS,-	; DEFAULT IMAGE OR ROUTINE NAME
                                     0488   216 		OUTPRS=OPI_K_SCNPRM,-	; OUTPUT PARSE ROUTINES
                                     0488   217 		PRMPTS=<<FROM,REQ>,-	; FIRST PROMPT AND FLAGS
                                     0488   218 			<TO,REQ>,-
                                     0488   219 			>
                                     0488       	.LIST
                                 0000004C       	.PSECT	DCL$VERBTBL,BYTE,RD,NOWRT
                                 D2  004C       	.BYTE	^A/R/!$XX$
                                 45  004D       	.BYTE	^A/E/!$XX$
                                 4E  004E       	.BYTE	^A/N/!$XX$
                                 41  004F       	.BYTE	^A/A/!$XX$
                                     0050       	.LIST
                                 00000026       	.PSECT	DCL$COMDPTR,BYTE,RD,NOWRT
                               046F' 0026       	.WORD	VERB_G_RENA-.-2
                                     0028       	.LIST
                                 00000497       	.PSECT	DCL$CMDATA,BYTE,RD,NOWRT
                                     0497       VERB_G_RENA:
                                 32  0497       	.BYTE	CLI$K_VERB_RENA
                                 22  0498       	.BYTE	2*16+2
                                 00' 0499       	.BYTE	IMG_K_BACKTRANS
                                 08' 049A       	.BYTE	QUA_G_RENA-.-1
                                 03' 049B       	.BYTE	RENA_G_PRMPT-.-1
                                 04  049C       	.BYTE	$$$
                                 01' 049D       	.BYTE	30697$-.-1
                                 FE' 049E       	.BYTE	OPI_K_SCNPRM
                                     049F       30697$:
                                     049F       RENA_G_PRMPT:
                                 00' 049F       	.BYTE	PRO_K_FROM
                                 10  04A0       	.IIF NB	<BYTE>, .BYTE $$$
                                 00' 04A1       	.BYTE	PRO_K_TO
                                 10  04A2       	.IIF NB	<BYTE>, .BYTE $$$
                                     04A3       	.SAVE
                                 000004A3       	.PSECT	DCL$CMDATA,BYTE,RD,NOWRT
                                     04A3       QUA_G_RENA:
                                 05' 04A3       30698$:	.BYTE	30701$-30698$
                                 00' 04A4       	.BYTE	QUA_K_NEW_
                                 00  04A5       	.IIF B <>,	.BYTE	0
                               00C8  04A6       	.WORD	$$$
                                     04A8       30701$:
                           000004A3  04A8       .=$QUALBLK$
                                 00  04A3       	.BYTE	0
                                 000004A3       	.RESTORE
CMDATBAS2       - COMMAND DATA BASE MODULE 2                     22-AUG-1978 00:59:08   VAX-11 MACRO X0.3-11               Page  32
01              DEFINE DCLS COMMANDS                                                                                             (1)

                                     04A3   220
                                     04A3   221
                                     04A3   222 	DEFCMD	REPL,-			; DEFINE REPLY COMMAND
                                     04A3   223 		QUAL  =YES,-		; YES QUALIFIERS ALLOWED
                                     04A3   224 		MINPRM=0,-		; MINIMUM PARAMETER COUNT
                                     04A3   225 		MAXPRM=1,-		; MAXIMUM PARAMETERS ALLOWED
                                     04A3   226 		DEFIMG=REPLY,-		; DEFAULT IMAGE OR ROUTINE NAME
                                     04A3   227 		PRMPTS=<<FILE,STRING>,-	; DUMMY PROMPT AND FLAGS
                                     04A3   228 			>
                                     04A3       	.LIST
                                 00000050       	.PSECT	DCL$VERBTBL,BYTE,RD,NOWRT
                                 D2  0050       	.BYTE	^A/R/!$XX$
                                 45  0051       	.BYTE	^A/E/!$XX$
                                 50  0052       	.BYTE	^A/P/!$XX$
                                 4C  0053       	.BYTE	^A/L/!$XX$
                                     0054       	.LIST
                                 00000028       	.PSECT	DCL$COMDPTR,BYTE,RD,NOWRT
                               047E' 0028       	.WORD	VERB_G_REPL-.-2
                                     002A       	.LIST
                                 000004A8       	.PSECT	DCL$CMDATA,BYTE,RD,NOWRT
                                     04A8       VERB_G_REPL:
                                 2D  04A8       	.BYTE	CLI$K_VERB_REPL
                                 10  04A9       	.BYTE	1*16+0
                                 00' 04AA       	.BYTE	IMG_K_REPLY
                                 04' 04AB       	.BYTE	QUA_G_REPL-.-1
                                 01' 04AC       	.BYTE	REPL_G_PRMPT-.-1
                                 00  04AD       	.BYTE	$$$
                                     04AE       REPL_G_PRMPT:
                                 00' 04AE       	.BYTE	PRO_K_FILE
                                 20  04AF       	.IIF NB	<BYTE>, .BYTE $$$
                                     04B0       	.SAVE
                                 000004B0       	.PSECT	DCL$CMDATA,BYTE,RD,NOWRT
                                     04B0       QUA_G_REPL:
                                 05' 04B0       30703$:	.BYTE	30706$-30703$
                                 00' 04B1       	.BYTE	QUA_K_ABOR
                                 00  04B2       	.IIF B <>,	.BYTE	0
                               3028  04B3       	.WORD	$$$
                                     04B5       30706$:
                                 05' 04B5       30707$:	.BYTE	30710$-30707$
                                 00' 04B6       	.BYTE	QUA_K_ALL
                                 00  04B7       	.IIF B <>,	.BYTE	0
                               0008  04B8       	.WORD	$$$
                                     04BA       30710$:
                                 05' 04BA       30711$:	.BYTE	30714$-30711$
                                 00' 04BB       	.BYTE	QUA_K_ENAB
                                 00  04BC       	.IIF B <>,	.BYTE	0
                               0028  04BD       	.WORD	$$$
                                     04BF       30714$:
                                 05' 04BF       30715$:	.BYTE	30718$-30715$
                                 00' 04C0       	.BYTE	QUA_K_DISA
                                 00  04C1       	.IIF B <>,	.BYTE	0
                               0028  04C2       	.WORD	$$$
                                     04C4       30718$:
                                 05' 04C4       30719$:	.BYTE	30722$-30719$
                                 00' 04C5       	.BYTE	QUA_K_LOG
                                 00  04C6       	.IIF B <>,	.BYTE	0
                               0048  04C7       	.WORD	$$$
CMDATBAS2       - COMMAND DATA BASE MODULE 2                     22-AUG-1978 00:59:08   VAX-11 MACRO X0.3-11               Page  33
01              DEFINE DCLS COMMANDS                                                                                             (1)

                                     04C9       30722$:
                                 05' 04C9       30723$:	.BYTE	30726$-30723$
                                 00' 04CA       	.BYTE	QUA_K_PEND
                                 00  04CB       	.IIF B <>,	.BYTE	0
                               3028  04CC       	.WORD	$$$
                                     04CE       30726$:
                                 05' 04CE       30727$:	.BYTE	30730$-30727$
                                 00' 04CF       	.BYTE	QUA_K_TERM
                                 00  04D0       	.IIF B <>,	.BYTE	0
                               1028  04D1       	.WORD	$$$
                                     04D3       30730$:
                                 05' 04D3       30731$:	.BYTE	30734$-30731$
                                 00' 04D4       	.BYTE	QUA_K_TO
                                 00  04D5       	.IIF B <>,	.BYTE	0
                               3028  04D6       	.WORD	$$$
                                     04D8       30734$:
                                 05' 04D8       30735$:	.BYTE	30738$-30735$
                                 00' 04D9       	.BYTE	QUA_K_USER
                                 00  04DA       	.IIF B <>,	.BYTE	0
                               0008  04DB       	.WORD	$$$
                                     04DD       30738$:
                                 09' 04DD       30739$:	.BYTE	30742$-30739$
                                 05' 04DE       	.BYTE	<30741$-30739$>
                                 00  04DF       	.IIF B <>,	.BYTE	0
                               000A  04E0       	.WORD	$$$
                        4C 4C 45 42  04E2       30741$:	.ASCII	\BELL\
                                     04E6       30742$:
                                 05' 04E6       30743$:	.BYTE	30746$-30743$
                                 00' 04E7       	.BYTE	QUA_K_STAT
                                 00  04E8       	.IIF B <>,	.BYTE	0
                               0008  04E9       	.WORD	$$$
                                     04EB       30746$:
                           000004E6  04EB       .=$QUALBLK$
                                 00  04E6       	.BYTE	0
                                 000004B0       	.RESTORE
                                     04B0   229
                                     04B0   230 	DEFCMD	REQU,-			; DEFINE REQUEST COMMAND
                                     04B0   231 		QUAL  =YES,-		; YES QUALIFIERS ALLOWED
                                     04B0   232 		MINPRM=0,-		; MINIMUM PARAMETER COUNT
                                     04B0   233 		MAXPRM=1,-		; MAXIMUM PARAMETERS ALLOWED
                                     04B0   234 		DEFIMG=REQUEST,-	; DEFAULT IMAGE OR ROUTINE NAME
                                     04B0   235 		PRMPTS=<<FILE,STRING>,-	; DUMMY PROMPT AND FLAGS
                                     04B0   236 			>
                                     04B0       	.LIST
                                 00000054       	.PSECT	DCL$VERBTBL,BYTE,RD,NOWRT
                                 D2  0054       	.BYTE	^A/R/!$XX$
                                 45  0055       	.BYTE	^A/E/!$XX$
                                 51  0056       	.BYTE	^A/Q/!$XX$
                                 55  0057       	.BYTE	^A/U/!$XX$
                                     0058       	.LIST
                                 0000002A       	.PSECT	DCL$COMDPTR,BYTE,RD,NOWRT
                               04BF' 002A       	.WORD	VERB_G_REQU-.-2
                                     002C       	.LIST
                                 000004EB       	.PSECT	DCL$CMDATA,BYTE,RD,NOWRT
                                     04EB       VERB_G_REQU:
                                 36  04EB       	.BYTE	CLI$K_VERB_REQU
                                 10  04EC       	.BYTE	1*16+0
CMDATBAS2       - COMMAND DATA BASE MODULE 2                     22-AUG-1978 00:59:08   VAX-11 MACRO X0.3-11               Page  34
01              DEFINE DCLS COMMANDS                                                                                             (1)

                                 00' 04ED       	.BYTE	IMG_K_REQUEST
                                 04' 04EE       	.BYTE	QUA_G_REQU-.-1
                                 01' 04EF       	.BYTE	REQU_G_PRMPT-.-1
                                 00  04F0       	.BYTE	$$$
                                     04F1       REQU_G_PRMPT:
                                 00' 04F1       	.BYTE	PRO_K_FILE
                                 20  04F2       	.IIF NB	<BYTE>, .BYTE $$$
                                     04F3       	.SAVE
                                 000004F3       	.PSECT	DCL$CMDATA,BYTE,RD,NOWRT
                                     04F3       QUA_G_REQU:
                                 05' 04F3       30748$:	.BYTE	30751$-30748$
                                 00' 04F4       	.BYTE	QUA_K_REPL
                                 00  04F5       	.IIF B <>,	.BYTE	0
                               0008  04F6       	.WORD	$$$
                                     04F8       30751$:
                                 05' 04F8       30752$:	.BYTE	30755$-30752$
                                 00' 04F9       	.BYTE	QUA_K_TO
                                 00  04FA       	.IIF B <>,	.BYTE	0
                               0028  04FB       	.WORD	$$$
                                     04FD       30755$:
                           000004F8  04FD       .=$QUALBLK$
                                 00  04F8       	.BYTE	0
                                 000004F3       	.RESTORE
                                     04F3   237
                                     04F3   238
                                     04F3   239
                                     04F3   240 	.END
CMDATBAS2       - COMMAND DATA BASE MODULE 2                     22-AUG-1978 00:59:08   VAX-11 MACRO X0.3-11               Page  35
SYMBOL TABLE                                                                                                                     (1)

$$$            = 00000028            CLI$K_LIBR_CREA= 00000002            CLI$K_MOUN_DATA= 00000016
$$$GBL         = 00000000            CLI$K_LIBR_DELE= 00000003            CLI$K_MOUN_DENS= 00000004
$DCLDEFQUALBLK$= 00000001            CLI$K_LIBR_EXTR= 00000004            CLI$K_MOUN_DRIV= 00000005
$PMTCNT$       = 00000001            CLI$K_LIBR_FULL= 0000000D            CLI$K_MOUN_EBCD= 00000006
$QUALBLK$      = 000004F8 R     05   CLI$K_LIBR_GLOB= 0000000E            CLI$K_MOUN_EXTE= 00000007
$QUALNUM$      = 00000003            CLI$K_LIBR_INSE= 00000005            CLI$K_MOUN_FORE= 00000008
$XX$           = 00000000            CLI$K_LIBR_LIST= 00000006            CLI$K_MOUN_GROU= 00000009
BIT...         = 00000008            CLI$K_LIBR_MACR= 00000009            CLI$K_MOUN_LABE= 0000000A
CLI$K_COPY_ZZZZ= 00000015            CLI$K_LIBR_NAME= 0000000C            CLI$K_MOUN_OVER= 0000000B
CLI$K_FORT_CHEC= 00000001            CLI$K_LIBR_OBJE= 0000000A            CLI$K_MOUN_OWNE= 0000000C
CLI$K_FORT_CONT= 00000002            CLI$K_LIBR_OUTP= 0000000B            CLI$K_MOUN_PROC= 0000000D
CLI$K_FORT_DEBU= 00000003            CLI$K_LIBR_REMO= 00000007            CLI$K_MOUN_PROT= 0000000E
CLI$K_FORT_D_LI= 00000004            CLI$K_LIBR_REPL= 00000008            CLI$K_MOUN_RECO= 00000017
CLI$K_FORT_I4  = 00000005            CLI$K_LIBR_RSX1= 0000000F            CLI$K_MOUN_SHAR= 0000000F
CLI$K_FORT_LIST= 00000006            CLI$K_LIBR_SELE= 00000010            CLI$K_MOUN_SYST= 00000010
CLI$K_FORT_MACH= 00000007            CLI$K_LIBR_SQUE= 00000011            CLI$K_MOUN_UNLO= 00000011
CLI$K_FORT_OBJE= 00000008            CLI$K_LINK_BRIE= 00000001            CLI$K_MOUN_USER= 00000012
CLI$K_FORT_OPTI= 00000009            CLI$K_LINK_CONC= 00000012            CLI$K_MOUN_VISU= 00000013
CLI$K_FORT_WARN= 0000000A            CLI$K_LINK_CONT= 00000008            CLI$K_MOUN_WIND= 00000014
CLI$K_FORT_WORK= 0000000B            CLI$K_LINK_CROS= 00000002            CLI$K_MOUN_WRIT= 00000015
CLI$K_INIT_ACCE= 00000001            CLI$K_LINK_DEBU= 00000003            CLI$K_OPEN_END_= 00000001
CLI$K_INIT_BADB= 00000002            CLI$K_LINK_DEFA= 00000013            CLI$K_OPEN_ERRO= 00000002
CLI$K_INIT_BATC= 00000003            CLI$K_LINK_EXEC= 00000004            CLI$K_OPEN_READ= 00000003
CLI$K_INIT_BURS= 00000004            CLI$K_LINK_EXIT= 00000014            CLI$K_OPEN_WRIT= 00000004
CLI$K_INIT_CLUS= 00000019            CLI$K_LINK_FULL= 00000011            CLI$K_PATC_COMM= 00000001
CLI$K_INIT_DATA= 0000001B            CLI$K_LINK_HEAD= 00000015            CLI$K_PATC_JOUR= 00000002
CLI$K_INIT_DENS= 00000005            CLI$K_LINK_INCL= 00000005            CLI$K_PATC_OUTP= 00000003
CLI$K_INIT_DIRE= 00000023            CLI$K_LINK_LIBR= 00000006            CLI$K_PATC_UPDA= 00000004
CLI$K_INIT_DISA= 00000014            CLI$K_LINK_MAP = 00000009            CLI$K_PURG_KEEP= 00000001
CLI$K_INIT_EBCD= 00000020            CLI$K_LINK_OPTI= 0000000A            CLI$K_PURG_LOG = 00000002
CLI$K_INIT_ENAB= 00000007            CLI$K_LINK_OVER= 00000016            CLI$K_READ_END_= 00000001
CLI$K_INIT_EXTE= 00000008            CLI$K_LINK_POSI= 00000017            CLI$K_READ_ERRO= 00000002
CLI$K_INIT_FILE= 00000009            CLI$K_LINK_POST= 0000001B            CLI$K_READ_SUBS= 00000003
CLI$K_INIT_FLAG= 0000000A            CLI$K_LINK_RSX1= 00000010            CLI$K_RENA_NEW_= 00000001
CLI$K_INIT_FORM= 0000000B            CLI$K_LINK_SELE= 0000000B            CLI$K_REPL_ABOR= 00000001
CLI$K_INIT_GENE= 0000000C            CLI$K_LINK_SEQU= 00000018            CLI$K_REPL_ALL = 00000002
CLI$K_INIT_GROU= 0000001E            CLI$K_LINK_SHAR= 00000007            CLI$K_REPL_BELL= 0000000A
CLI$K_INIT_HEAD= 0000000D            CLI$K_LINK_SUPR= 0000000F            CLI$K_REPL_DISA= 00000004
CLI$K_INIT_INDE= 0000000E            CLI$K_LINK_SYMB= 0000000C            CLI$K_REPL_ENAB= 00000003
CLI$K_INIT_JOB_= 0000000F            CLI$K_LINK_SYSL= 0000000D            CLI$K_REPL_LOG = 00000005
CLI$K_INIT_MAXI= 00000018            CLI$K_LINK_SYSS= 0000001C            CLI$K_REPL_PEND= 00000006
CLI$K_INIT_OVER= 00000021            CLI$K_LINK_SYST= 0000000E            CLI$K_REPL_STAT= 0000000B
CLI$K_INIT_OWNE= 00000010            CLI$K_LINK_TKB_= 0000001A            CLI$K_REPL_TERM= 00000007
CLI$K_INIT_PRIO= 00000011            CLI$K_LINK_TRAC= 00000019            CLI$K_REPL_TO  = 00000008
CLI$K_INIT_PROT= 00000012            CLI$K_LOGO_BRIE= 00000001            CLI$K_REPL_USER= 00000009
CLI$K_INIT_QUEU= 00000013            CLI$K_LOGO_FULL= 00000002            CLI$K_REQU_REPL= 00000001
CLI$K_INIT_RECO= 0000001A            CLI$K_MACR_DISA= 00000001            CLI$K_REQU_TO  = 00000002
CLI$K_INIT_SHAR= 0000001D            CLI$K_MACR_ENAB= 00000002            CLI$K_RUN_ACCO = 0000000E
CLI$K_INIT_STRU= 00000006            CLI$K_MACR_LIBR= 00000003            CLI$K_RUN_AST_ = 0000001A
CLI$K_INIT_SYST= 0000001F            CLI$K_MACR_LIST= 00000004            CLI$K_RUN_AUTH = 00000018
CLI$K_INIT_TERM= 00000016            CLI$K_MACR_NOSH= 00000008            CLI$K_RUN_BUFF = 0000000F
CLI$K_INIT_USER= 00000022            CLI$K_MACR_OBJE= 00000005            CLI$K_RUN_DEBU = 00000017
CLI$K_INIT_VERI= 0000001C            CLI$K_MACR_RSX1= 00000007            CLI$K_RUN_DELA = 00000001
CLI$K_INIT_WIND= 00000017            CLI$K_MACR_SHOW= 00000006            CLI$K_RUN_ERRO = 00000002
CLI$K_INQU_GLOB= 00000001            CLI$K_MOUN_ACCE= 00000001            CLI$K_RUN_FILE = 00000011
CLI$K_INQU_LOCA= 00000002            CLI$K_MOUN_BLOC= 00000002            CLI$K_RUN_INPU = 00000003
CLI$K_LIBR_COMP= 00000001            CLI$K_MOUN_COMM= 00000003            CLI$K_RUN_INTE = 00000004
CMDATBAS2       - COMMAND DATA BASE MODULE 2                     22-AUG-1978 00:59:08   VAX-11 MACRO X0.3-11               Page  36
SYMBOL TABLE                                                                                                                     (1)

CLI$K_RUN_IO_B = 0000001B            CLI$K_VERB_ON  = 00000022            CLI$_NOCOMD    = 000380B0
CLI$K_RUN_IO_D = 0000001C            CLI$K_VERB_PATC= 0000002C            CLI$_NOKEYW    = 000380B8
CLI$K_RUN_MAIL = 00000019            CLI$K_VERB_PRIN= 00000023            CLI$_NOLIST    = 000380C0
CLI$K_RUN_MAXI = 00000015            CLI$K_VERB_PURG= 00000031            CLI$_NOOPTPRS  = 00038842
CLI$K_RUN_OUTP = 00000005            CLI$K_VERB_RENA= 00000032            CLI$_NOQUAL    = 000380C8
CLI$K_RUN_PAGE = 00000012            CLI$K_VERB_REPL= 0000002D            CLI$_NORMAL    = 00030001
CLI$K_RUN_PRIO = 00000006            CLI$K_VERB_REQU= 00000036            CLI$_NOTNEG    = 000380D8
CLI$K_RUN_PRIV = 00000007            CLI$K_VERB_RUN = 00000024            CLI$_NOVALU    = 000380D0
CLI$K_RUN_PROC = 00000008            CLI$K_VERB_SET = 00000025            CLI$_NOVALUE   = 0003882A
CLI$K_RUN_QUEU = 00000013            CLI$K_VERB_SHOW= 00000026            CLI$_NULFIL    = 000380E0
CLI$K_RUN_RESO = 00000009            CLI$K_VERB_SORT= 00000035            CLI$_NUMBER    = 000380E8
CLI$K_RUN_SCHE = 0000000A            CLI$K_VERB_STAR= 00000027            CLI$_ONCOMD    = 000380F0
CLI$K_RUN_SERV = 0000000B            CLI$K_VERB_STOP= 00000028            CLI$_ONERR     = 000380F8
CLI$K_RUN_SUBP = 00000014            CLI$K_VERB_SUBM= 00000029            CLI$_ONEVAL    = 00038158
CLI$K_RUN_SWAP = 0000000C            CLI$K_VERB_SYNC= 00000037            CLI$_ONLEVL    = 00038100
CLI$K_RUN_TIME = 00000010            CLI$K_VERB_TYPE= 0000002A            CLI$_ONOVF     = 00038108
CLI$K_RUN_UIC  = 0000000D            CLI$K_VERB_UNLO= 0000002E            CLI$_OVRFLW    = 00038160
CLI$K_RUN_WORK = 00000016            CLI$_ABFNAM    = 000381B8            CLI$_PARMDEL   = 00038110
CLI$K_VERB_ALLO= 00000001            CLI$_ABKEYW    = 00038000            CLI$_PROC_ID   = 0003FFF1
CLI$K_VERB_ANAL= 00000002            CLI$_ABVERB    = 00038008            CLI$_QUEJOBCRE = 0003FFF9
CLI$K_VERB_APPE= 0000002F            CLI$_BADRET    = 00038198            CLI$_REQPRMABS = 00038812
CLI$K_VERB_ASSI= 00000003            CLI$_BADTEXT   = 000381B0            CLI$_RSLOVF    = 00038118
CLI$K_VERB_BASI= 00000004            CLI$_BUFOVF    = 00038018            CLI$_SKPDAT    = 00038120
CLI$K_VERB_BLIS= 00000005            CLI$_COMPLX    = 00038020            CLI$_SPARE0    = 00038010
CLI$K_VERB_CANC= 00000033            CLI$_CONFQUAL  = 00038802            CLI$_SPARE1    = 00038058
CLI$K_VERB_COBO= 00000006            CLI$_CREQUEJOB = 0003884A            CLI$_STKOVF    = 00038128
CLI$K_VERB_CONT= 00000007            CLI$_DEFOVF    = 00038028            CLI$_SUBMITERR = 00038852
CLI$K_VERB_COPY= 00000008            CLI$_DEVALSPL  = 0003885A            CLI$_SYMDEL    = 00038130
CLI$K_VERB_CREA= 00000009            CLI$_DEVNOTFOR = 0003887A            CLI$_SYMOVF    = 00038138
CLI$K_VERB_DATA= 0000000A            CLI$_DEVNOTSPL = 00038862            CLI$_UNDFIL    = 00038188
CLI$K_VERB_DEAL= 0000000B            CLI$_DIRECT    = 00038030            CLI$_UNDSYM    = 00038140
CLI$K_VERB_DEAS= 0000000C            CLI$_EXPSYN    = 00038038            CLI$_UNPROPARM = 00038170
CLI$K_VERB_DEBU= 0000000D            CLI$_FILOPN    = 00038190            CLI$_UNPROQUAL = 00038168
CLI$K_VERB_DEFI= 0000000E            CLI$_ILLVAL    = 0003883A            CLI$_USGOTO    = 00038148
CLI$K_VERB_DELE= 0000000F            CLI$_IMCHNG    = 00038040            CLI$_VALCNVERR = 00038832
CLI$K_VERB_DEPO= 00000010            CLI$_IMGFNF    = 00038872            CLI$_VALREQ    = 00038150
CLI$K_VERB_DIFF= 00000011            CLI$_INSFPRM   = 00038048            CMD_AB_PAROUT    00000006
CLI$K_VERB_DIRE= 00000012            CLI$_INVKEY    = 00038178            CMD_B_DEFIMG     00000002
CLI$K_VERB_DISM= 00000013            CLI$_INVQUAL   = 0003880A            CMD_B_FLAGS      00000005
CLI$K_VERB_DUMP= 00000030            CLI$_INVQUALNUM= 0003881A            CMD_B_PARMCNT    00000001
CLI$K_VERB_EDIT= 00000014            CLI$_INVREQTYP = 00038822            CMD_B_PROMPT     00000004
CLI$K_VERB_EOD = 00000015            CLI$_INVRSP    = 00038180            CMD_B_QUABLK     00000003
CLI$K_VERB_EXAM= 00000016            CLI$_INVUIC    = 000381A8            CMD_B_VERBTYP    00000000
CLI$K_VERB_EXIT= 00000017            CLI$_IVCHAR    = 00038050            CMD_M_ABREV    = 00000020
CLI$K_VERB_FORE= 000000FF            CLI$_IVDEVTYPE = 0003886A            CMD_M_DEFQUAL  = 00000010
CLI$K_VERB_FORT= 00000018            CLI$_IVFNAM    = 000381C0            CMD_M_FOREIGN  = 00000001
CLI$K_VERB_GOTO= 00000019            CLI$_IVKEYW    = 00038060            CMD_M_IMMED    = 00000002
CLI$K_VERB_HELP= 0000001A            CLI$_IVOPER    = 00038068            CMD_M_NOSTAT   = 00000008
CLI$K_VERB_IF  = 0000001B            CLI$_IVPROT    = 00038070            CMD_M_PAROUT   = 00000004
CLI$K_VERB_INIT= 0000001C            CLI$_IVQLOC    = 00038078            CMD_S_MAXPARM  = 00000004
CLI$K_VERB_INQU= 0000001D            CLI$_IVSYMB    = 00038080            CMD_S_MINPARM  = 00000004
CLI$K_VERB_LIBR= 00000034            CLI$_IVVALU    = 00038088            CMD_V_ABREV    = 00000005
CLI$K_VERB_LINK= 0000001E            CLI$_IVVERB    = 00038090            CMD_V_DEFQUAL  = 00000004
CLI$K_VERB_LOGO= 0000001F            CLI$_MAXPARM   = 00038098            CMD_V_FOREIGN  = 00000000
CLI$K_VERB_MACR= 00000020            CLI$_MULKEY    = 000381A0            CMD_V_IMMED    = 00000001
CLI$K_VERB_MCR = 00000021            CLI$_NOATFIL   = 000380A0            CMD_V_MAXPARM  = 00000004
CLI$K_VERB_MOUN= 0000002B            CLI$_NOCCAT    = 000380A8            CMD_V_MINPARM  = 00000000
CMDATBAS2       - COMMAND DATA BASE MODULE 2                     22-AUG-1978 00:59:08   VAX-11 MACRO X0.3-11               Page  37
SYMBOL TABLE                                                                                                                     (1)

CMD_V_NOSTAT   = 00000003            PRO_V_LIST     = 00000002            QUA_K_D_LI       ********   X   05
CMD_V_PAROUT   = 00000002            PRO_V_OPTION   = 00000003            QUA_K_EBCD       ********   X   05
DCL$G_SUBMQUALS  ********   X   05   PRO_V_REQ      = 00000004            QUA_K_ENAB       ********   X   05
FORT_G_PRMPT     00000009 R     05   PRO_V_STRING   = 00000005            QUA_K_END_       ********   X   05
GBL...         = 00000000            PURG_G_PRMPT     000003BB R     05   QUA_K_ERRO       ********   X   05
GOTO_G_PRMPT     0000004B R     05   QUA_B_DEFVAL     00000002            QUA_K_EXEC       ********   X   05
IMG_K_BACKTRANS  ********   X   05   QUA_B_IMAGE      00000005            QUA_K_EXIT       ********   X   05
IMG_K_DELETE     ********   X   05   QUA_B_INDEX      00000001            QUA_K_EXTE       ********   X   05
IMG_K_GOTO       ********   X   05   QUA_B_OFFSET     00000000            QUA_K_EXTR       ********   X   05
IMG_K_HELP       ********   X   05   QUA_B_PARMCNT    00000008            QUA_K_FILE       ********   X   05
IMG_K_IF         ********   X   05   QUA_G_CHNGLST    00000006            QUA_K_FLAG       ********   X   05
IMG_K_INIT       ********   X   05   QUA_G_FORT       0000000B R     05   QUA_K_FORE       ********   X   05
IMG_K_INQUIRE    ********   X   05   QUA_G_INIT       00000063 R     05   QUA_K_FORM       ********   X   05
IMG_K_LINK       ********   X   05   QUA_G_INQU       0000012C R     05   QUA_K_FULL       ********   X   05
IMG_K_LOGOUT     ********   X   05   QUA_G_LIBR       00000142 R     05   QUA_K_GENE       ********   X   05
IMG_K_MCR        ********   X   05   QUA_G_LINK       000001CF R     05   QUA_K_GLOB       ********   X   05
IMG_K_ON         ********   X   05   QUA_G_LOGO       00000282 R     05   QUA_K_GROU       ********   X   05
IMG_K_OPEN       ********   X   05   QUA_G_MACR       00000297 R     05   QUA_K_HEAD       ********   X   05
IMG_K_PATCH      ********   X   05   QUA_G_MOUN       000002D6 R     05   QUA_K_I4         ********   X   05
IMG_K_QUEMAN     ********   X   05   QUA_G_OPEN       00000377 R     05   QUA_K_INCL       ********   X   05
IMG_K_READ       ********   X   05   QUA_G_PATC       00000397 R     05   QUA_K_INDE       ********   X   05
IMG_K_REPLY      ********   X   05   QUA_G_PRIN       000003B3 R     05   QUA_K_INPU       ********   X   05
IMG_K_REQUEST    ********   X   05   QUA_G_PURG       000003BD R     05   QUA_K_INSE       ********   X   05
IMG_K_RUN        ********   X   05   QUA_G_READ       00000488 R     05   QUA_K_INTE       ********   X   05
IMG_K_RUNDET     ********   X   05   QUA_G_RENA       000004A3 R     05   QUA_K_JOB_       ********   X   05
IMG_K_SUBMIT     ********   X   05   QUA_G_REPL       000004B0 R     05   QUA_K_JOUR       ********   X   05
IMG_K_VMOUNT     ********   X   05   QUA_G_REQU       000004F3 R     05   QUA_K_KEEP       ********   X   05
INIT_G_PRMPT     0000005F R     05   QUA_G_RUN        000003CF R     05   QUA_K_LABE       ********   X   05
LIBR_G_PRMPT     0000013E R     05   QUA_K_ABOR       ********   X   05   QUA_K_LIBR       ********   X   05
LINK_G_PRMPT     000001CD R     05   QUA_K_ACCE       ********   X   05   QUA_K_LIST       ********   X   05
MACR_G_PRMPT     00000295 R     05   QUA_K_ACCO       ********   X   05   QUA_K_LOCA       ********   X   05
MOUN_G_PRMPT     000002D0 R     05   QUA_K_ALL        ********   X   05   QUA_K_LOG        ********   X   05
OPEN_G_PRMPT     00000373 R     05   QUA_K_AST_       ********   X   05   QUA_K_MACH       ********   X   05
OPI_K_FSTPRM   = FFFFFFFF            QUA_K_AUTH       ********   X   05   QUA_K_MACR       ********   X   05
OPI_K_SCNPRM   = FFFFFFFE            QUA_K_BADB       ********   X   05   QUA_K_MAIL       ********   X   05
PATC_G_PRMPT     00000395 R     05   QUA_K_BATC       ********   X   05   QUA_K_MAP        ********   X   05
PRIN_G_PRMPT     000003B1 R     05   QUA_K_BLOC       ********   X   05   QUA_K_MAXI       ********   X   05
PRO_B_FLAGS      00000001            QUA_K_BRIE       ********   X   05   QUA_K_NAME       ********   X   05
PRO_B_PROMPT     00000000            QUA_K_BUFF       ********   X   05   QUA_K_NEW_       ********   X   05
PRO_K_DEVICE     ********   X   05   QUA_K_BURS       ********   X   05   QUA_K_OBJE       ********   X   05
PRO_K_FILE       ********   X   05   QUA_K_CHEC       ********   X   05   QUA_K_OPTI       ********   X   05
PRO_K_FROM       ********   X   05   QUA_K_CLUS       ********   X   05   QUA_K_OUTP       ********   X   05
PRO_K_LABEL      ********   X   05   QUA_K_COMM       ********   X   05   QUA_K_OVER       ********   X   05
PRO_K_LENGTH     00000002            QUA_K_COMP       ********   X   05   QUA_K_OWNE       ********   X   05
PRO_K_LIBRARY    ********   X   05   QUA_K_CONC       ********   X   05   QUA_K_PAGE       ********   X   05
PRO_K_LOG_NAME   ********   X   05   QUA_K_CONT       ********   X   05   QUA_K_PEND       ********   X   05
PRO_K_QUEUE      ********   X   05   QUA_K_CREA       ********   X   05   QUA_K_POSI       ********   X   05
PRO_K_SYMBOL     ********   X   05   QUA_K_CROS       ********   X   05   QUA_K_PRIO       ********   X   05
PRO_K_TO         ********   X   05   QUA_K_DATA       ********   X   05   QUA_K_PRIV       ********   X   05
PRO_M_CONCAT   = 00000001            QUA_K_DEBU       ********   X   05   QUA_K_PROC       ********   X   05
PRO_M_IMPCAT   = 00000002            QUA_K_DEFA       ********   X   05   QUA_K_PROT       ********   X   05
PRO_M_LIST     = 00000004            QUA_K_DELA       ********   X   05   QUA_K_QUEU       ********   X   05
PRO_M_OPTION   = 00000008            QUA_K_DELE       ********   X   05   QUA_K_READ       ********   X   05
PRO_M_REQ      = 00000010            QUA_K_DENS       ********   X   05   QUA_K_RECO       ********   X   05
PRO_M_STRING   = 00000020            QUA_K_DIRE       ********   X   05   QUA_K_REMO       ********   X   05
PRO_V_CONCAT   = 00000000            QUA_K_DISA       ********   X   05   QUA_K_REPL       ********   X   05
PRO_V_IMPCAT   = 00000001            QUA_K_DRIV       ********   X   05   QUA_K_RESO       ********   X   05
CMDATBAS2       - COMMAND DATA BASE MODULE 2                     22-AUG-1978 00:59:08   VAX-11 MACRO X0.3-11               Page  38
SYMBOL TABLE                                                                                                                     (1)

QUA_K_RSX1       ********   X   05   QUA_V_MINPARM  = 00000000
QUA_K_SCHE       ********   X   05   QUA_V_NEG      = 00000006
QUA_K_SELE       ********   X   05   QUA_V_ONEVAL   = 0000000D
QUA_K_SEQU       ********   X   05   QUA_V_OUTPUT   = 0000000B
QUA_K_SERV       ********   X   05   QUA_V_PARM     = 00000004
QUA_K_SHAR       ********   X   05   QUA_V_VAL      = 00000005
QUA_K_SHOW       ********   X   05   QUA_V_VALREQ   = 0000000C
QUA_K_SQUE       ********   X   05   QUA_V_VERB     = 00000003
QUA_K_STAT       ********   X   05   QUA_W_FLAGS      00000003
QUA_K_SUBP       ********   X   05   QUA_W_PROMPT     00000009
QUA_K_SUBS       ********   X   05   QUA_W_QUALIST    00000006
QUA_K_SUPR       ********   X   05   READ_G_PRMPT     00000484 R     05
QUA_K_SWAP       ********   X   05   RENA_G_PRMPT     0000049F R     05
QUA_K_SYMB       ********   X   05   REPL_G_PRMPT     000004AE R     05
QUA_K_SYSL       ********   X   05   REQU_G_PRMPT     000004F1 R     05
QUA_K_SYST       ********   X   05   RUN_G_PRMPT      000003CD R     05
QUA_K_TERM       ********   X   05   VERB_G_FORT      00000000 R     05
QUA_K_TIME       ********   X   05   VERB_G_GOTO      00000045 R     05
QUA_K_TO         ********   X   05   VERB_G_HELP      0000004D R     05
QUA_K_TRAC       ********   X   05   VERB_G_IF        00000053 R     05
QUA_K_UIC        ********   X   05   VERB_G_INIT      00000059 R     05
QUA_K_UNLO       ********   X   05   VERB_G_INQU      00000126 R     05
QUA_K_UPDA       ********   X   05   VERB_G_LIBR      00000136 R     05
QUA_K_USER       ********   X   05   VERB_G_LINK      000001C3 R     05
QUA_K_VERI       ********   X   05   VERB_G_LOGO      0000027C R     05
QUA_K_VISU       ********   X   05   VERB_G_MACR      0000028C R     05
QUA_K_WARN       ********   X   05   VERB_G_MCR       000002C4 R     05
QUA_K_WIND       ********   X   05   VERB_G_MOUN      000002CA R     05
QUA_K_WORK       ********   X   05   VERB_G_ON        00000367 R     05
QUA_K_WRIT       ********   X   05   VERB_G_OPEN      0000036D R     05
QUA_K_ZZZZ       ********   X   05   VERB_G_PATC      0000038B R     05
QUA_M_BATDEF   = 00000100            VERB_G_PRIN      000003AB R     05
QUA_M_CHNGLIST = 00000001            VERB_G_PURG      000003B5 R     05
QUA_M_DEFTRUE  = 00000080            VERB_G_READ      0000047E R     05
QUA_M_FILE     = 00000004            VERB_G_RENA      00000497 R     05
QUA_M_IMAGE    = 00000400            VERB_G_REPL      000004A8 R     05
QUA_M_INTDEF   = 00000200            VERB_G_REQU      000004EB R     05
QUA_M_KEYVAL   = 00004000            VERB_G_RUN       000003C7 R     05
QUA_M_LOCALKEY = 00000002
QUA_M_NEG      = 00000040
QUA_M_ONEVAL   = 00002000
QUA_M_OUTPUT   = 00000800
QUA_M_PARM     = 00000010
QUA_M_VAL      = 00000020
QUA_M_VALREQ   = 00001000
QUA_M_VERB     = 00000008
QUA_S_MAXPARM  = 00000004
QUA_S_MINPARM  = 00000004
QUA_V_BATDEF   = 00000008
QUA_V_CHNGLIST = 00000000
QUA_V_DEFTRUE  = 00000007
QUA_V_FILE     = 00000002
QUA_V_IMAGE    = 0000000A
QUA_V_INTDEF   = 00000009
QUA_V_KEYVAL   = 0000000E
QUA_V_LOCALKEY = 00000001
QUA_V_MAXPARM  = 00000004
CMDATBAS2       - COMMAND DATA BASE MODULE 2                     22-AUG-1978 00:59:08   VAX-11 MACRO X0.3-11               Page  39
PROGRAM SECTION SYNOPSIS                                                                                                         (1)


PROGRAM SECTION SYNOPSIS

.  ABS  .        00000000      00     NOPIC   USR   CON   ABS   LCL NOSHR NOEXE NORD  NOWRT BYTE
. BLANK .        00000000      01     NOPIC   USR   CON   REL   LCL NOSHR   EXE   RD    WRT BYTE
$ABS$            0000000B      02     NOPIC   USR   CON   ABS   LCL NOSHR   EXE   RD    WRT BYTE
DCL$VERBTBL      00000058      03     NOPIC   USR   CON   REL   LCL NOSHR   EXE   RD  NOWRT BYTE
DCL$COMDPTR      0000002C      04     NOPIC   USR   CON   REL   LCL NOSHR   EXE   RD  NOWRT BYTE
DCL$CMDATA       000004FD      05     NOPIC   USR   CON   REL   LCL NOSHR   EXE   RD  NOWRT BYTE


THERE WERE NO ERRORS OR WARNINGS.
1194. BYTES LEFT IN FREE MEMORY POOL.
1446. BYTES OF RECLAIMED MEMORY.
EXE$:CMDATBAS2,LIS$:CMDATBAS2/-SP=EXECML$/ML,LIB$:DCL/ML,SRC$:CMDATBAS2
78 MLB DIR RDS - 855 GETS TO DEFINE 40 MACROS. 341 INTER. FILE WRITES.
