CMDATBAS4       - COMMAND DATA BASE MODULE 4                     22-AUG-1978 01:04:14   VAX-11 MACRO X0.3-11               Page   0
TABLE OF CONTENTS

   (1)      46  DEFINE DCLS COMMANDS
CMDATBAS4       - COMMAND DATA BASE MODULE 4                     22-AUG-1978 01:04:14   VAX-11 MACRO X0.3-11               Page   1
01                                                                                                                               (1)

                                     0000     1 	.TITLE	CMDATBAS4 - COMMAND DATA BASE MODULE 4
                                     0000     2 	.IDENT	/01/
                                     0000     3
                                     0000     4 ;
                                     0000     5 ; COPYRIGHT (C) 1977
                                     0000     6 ; DIGITAL EQUIPMENT CORPORATION, MAYNARD, MASSACHUSETTS 01754
                                     0000     7 ;
                                     0000     8 ; THIS SOFTWARE IS FURNISHED  UNDER A LICENSE FOR USE ONLY ON A SINGLE
                                     0000     9 ; COMPUTER  SYSTEM AND  MAY BE  COPIED ONLY WITH  THE INCLUSION OF THE
                                     0000    10 ; ABOVE COPYRIGHT NOTICE.  THIS SOFTWARE, OR ANY OTHER COPIES THEREOF,
                                     0000    11 ; MAY NOT BE PROVIDED OR  OTHERWISE MADE AVAILABLE TO ANY OTHER PERSON
                                     0000    12 ; EXCEPT FOR USE ON SUCH SYSTEM AND TO ONE WHO AGREES TO THESE LICENSE
                                     0000    13 ; TERMS.  TITLE TO AND  OWNERSHIP OF THE  SOFTWARE  SHALL AT ALL TIMES
                                     0000    14 ; REMAIN IN DEC.
                                     0000    15 ;
                                     0000    16 ; THE INFORMATION IN THIS SOFTWARE IS SUBJECT TO CHANGE WITHOUT NOTICE
                                     0000    17 ; AND SHOULD  NOT BE CONSTRUED  AS A COMMITMENT  BY DIGITAL  EQUIPMENT
                                     0000    18 ; CORPORATION.
                                     0000    19 ;
                                     0000    20 ; DEC ASSUMES  NO  RESPONSIBILITY  FOR  THE USE OR  RELIABILITY OF ITS
                                     0000    21 ; SOFTWARE ON EQUIPMENT WHICH IS NOT SUPPLIED BY DEC.
                                     0000    22 ;
                                     0000    23 ; D. N. CUTLER 30-MAR-77
                                     0000    24 ;
                                     0000    25 ; DCLS COMMAND INTERPRETER DATA BASE
                                     0000    26 ;
                                     0000    27 ; MACRO LIBRARY CALLS
                                     0000    28 ;
                                     0000    29
                                     0000    30 	$CLIVERBDEF			;DEFINE VERB GENERIC TYPES
                                     0000    31 	DEFERRCOD			;DEFINE ERROR/STATUS VALUES
                                     0000    32 	DEFOPIDCL			;DCL OUTPUT RESULT PARSE INDIACTORS
                                     0000    33
                                     0000    34 ;
                                     0000    35 ; LOCAL MACROS
                                     0000    36
                                     0000    37
                                     0000    38 ;
                                     0000    39 ; LOCAL SYMBOLS
                                     0000    40 ;
                                     0000    41
                           00000001  0000    42 $DCLDEFQUALBLK$=1			; DEFINE THE QUALIFIER BOLCKS
                                     0000    43
                                     0000    44 	.LIST	MEB
CMDATBAS4       - COMMAND DATA BASE MODULE 4                     22-AUG-1978 01:04:14   VAX-11 MACRO X0.3-11               Page   2
01              DEFINE DCLS COMMANDS                                                                                             (1)

                                     0000    46 	.SBTTL	DEFINE DCLS COMMANDS
                                     0000    47
                                     0000    48 	DEFCMD	SORT,-
                                     0000    49 		QUAL  =YES,-
                                     0000    50 		MINPRM=2,-
                                     0000    51 		MAXPRM=2,-
                                     0000    52 		DEFIMG=SORT32,-
                                     0000    53 		OUTPRS=<>,-
                                     0000    54 		PRMPTS=<<FILE,<REQ>>,-
                                     0000    55 			<OUTPUT,<NONE>>,-
                                     0000    56 			>
                                     0000       	.SAVE
                                 00000000       	.PSECT	$ABS$,ABS
                                     0000       CMD_B_VERBTYP:
                           00000001  0000       	.BLKB	1
                                     0001       CMD_B_PARMCNT:
                           00000002  0001       	.BLKB	1
                                     0002       CMD_B_DEFIMG:
                           00000003  0002       	.BLKB	1
                                     0003       CMD_B_QUABLK:
                           00000004  0003       	.BLKB	1
                                     0004       CMD_B_PROMPT:
                           00000005  0004       	.BLKB	1
                                     0005       CMD_B_FLAGS:
                           00000006  0005       	.BLKB	1
                                     0006       CMD_AB_PAROUT:
                           00000007  0006       	.BLKB	1
                                     0000       	.RESTORE
                                     0000       	.SAVE
                                 00000007       	.PSECT	$ABS$,ABS
                           00000000  0007       	.=0
                                     0000       PRO_B_PROMPT:
                           00000001  0000       	.BLKB	1
                                     0001       PRO_B_FLAGS:
                           00000002  0001       	.BLKB	1
                                     0002       PRO_K_LENGTH:
                                     0000       	.RESTORE
                                     0000       	.LIST
                                 00000000       	.PSECT	DCL$VERBTBL,BYTE,RD,NOWRT
                                 D3  0000       	.BYTE	^A/S/!$XX$
                                 4F  0001       	.BYTE	^A/O/!$XX$
                                 52  0002       	.BYTE	^A/R/!$XX$
                                 54  0003       	.BYTE	^A/T/!$XX$
                                     0004       	.LIST
                                 00000000       	.PSECT	DCL$COMDPTR,BYTE,RD,NOWRT
                               FFFE' 0000       	.WORD	VERB_G_SORT-.-2
                                     0002       	.LIST
                                 00000000       	.PSECT	DCL$CMDATA,BYTE,RD,NOWRT
                                     0000       VERB_G_SORT:
                                 35  0000       	.BYTE	CLI$K_VERB_SORT
                                 22  0001       	.BYTE	2*16+2
                                 00' 0002       	.BYTE	IMG_K_SORT32
                                 06' 0003       	.BYTE	QUA_G_SORT-.-1
                                 01' 0004       	.BYTE	SORT_G_PRMPT-.-1
                                 00  0005       	.BYTE	$$$
                                     0006       SORT_G_PRMPT:
                                 00' 0006       	.BYTE	PRO_K_FILE
CMDATBAS4       - COMMAND DATA BASE MODULE 4                     22-AUG-1978 01:04:14   VAX-11 MACRO X0.3-11               Page   3
01              DEFINE DCLS COMMANDS                                                                                             (1)

                                 10  0007       	.IIF NB	<BYTE>, .BYTE $$$
                                 00' 0008       	.BYTE	PRO_K_OUTPUT
                                 00  0009       	.BYTE	0
                                     000A       	.SAVE
                                 00000007       	.PSECT	$ABS$,ABS
                           00000000  0007       	.=0
                                     0000       QUA_B_OFFSET:
                           00000001  0000       	.BLKB	1
                                     0001       QUA_B_INDEX:
                           00000002  0001       	.BLKB	1
                                     0002       QUA_B_DEFVAL:
                           00000003  0002       	.BLKB	1
                                     0003       QUA_W_FLAGS:
                           00000005  0003       	.BLKW	1
                                     0005       QUA_B_IMAGE:
                           00000006  0005       	.BLKB	1
                                     0006       QUA_G_CHNGLST:
                                     0006       QUA_W_QUALIST:
                           00000008  0006       	.BLKW	1
                                     0008       QUA_B_PARMCNT:
                           00000009  0008       	.BLKB	1
                                     0009       QUA_W_PROMPT:
                           0000000B  0009       	.BLKW	1
                                 0000000A       	.RESTORE
                                     000A       	.SAVE
                                 0000000A       	.PSECT	DCL$CMDATA,BYTE,RD,NOWRT
                                     000A       QUA_G_SORT:
                                 0C' 000A       30001$:	.BYTE	30004$-30001$
                                 00' 000B       	.BYTE	QUA_K_PROC
                                 05' 000C       	.IIF NB	<RECORD>,	.BYTE	30002$-30001$
                               30A8  000D       	.WORD	$$$
               44 52 4F 43 45 52 00' 000F       30002$:	.ASCIC	\RECORD\
                                 06  000F
                                     0016       30004$:
                                 05' 0016       30005$:	.BYTE	30008$-30005$
                                 00' 0017       	.BYTE	QUA_K_KEY
                                 00  0018       	.IIF B <>,	.BYTE	0
                               5028  0019       	.WORD	$$$
                                     001B       30008$:
                                 05' 001B       30009$:	.BYTE	30012$-30009$
                                 00' 001C       	.BYTE	QUA_K_DUPL
                                 00  001D       	.IIF B <>,	.BYTE	0
                               0048  001E       	.WORD	$$$
                                     0020       30012$:
                                 05' 0020       30013$:	.BYTE	30016$-30013$
                                 00' 0021       	.BYTE	QUA_K_WORK
                                 00  0022       	.IIF B <>,	.BYTE	0
                               3028  0023       	.WORD	$$$
                                     0025       30016$:
                                 05' 0025       30017$:	.BYTE	30020$-30017$
                                 00' 0026       	.BYTE	QUA_K_SPEC
                                 00  0027       	.IIF B <>,	.BYTE	0
                               302C  0028       	.WORD	$$$
                                     002A       30020$:
                                 06' 002A       30021$:	.BYTE	30024$-30021$
                                 00' 002B       	.BYTE	QUA_K_RSX1
                                 00  002C       	.IIF B <>,	.BYTE	0
CMDATBAS4       - COMMAND DATA BASE MODULE 4                     22-AUG-1978 01:04:14   VAX-11 MACRO X0.3-11               Page   4
01              DEFINE DCLS COMMANDS                                                                                             (1)

                               0408  002D       	.WORD	$$$
                                 00' 002F       	.BYTE	IMG_K_BACKTRANS
                                     0030       30024$:
                                 05' 0030       30025$:	.BYTE	30028$-30025$
                                 00' 0031       	.BYTE	QUA_K_FORM
                                 00  0032       	.IIF B <>,	.BYTE	0
                               5030  0033       	.WORD	$$$
                                     0035       30028$:
                                 05' 0035       30029$:	.BYTE	30032$-30029$
                                 00' 0036       	.BYTE	QUA_K_BUCK
                                 00  0037       	.IIF B <>,	.BYTE	0
                               3038  0038       	.WORD	$$$
                                     003A       30032$:
                                 05' 003A       30033$:	.BYTE	30036$-30033$
                                 00' 003B       	.BYTE	QUA_K_ALLO
                                 00  003C       	.IIF B <>,	.BYTE	0
                               3038  003D       	.WORD	$$$
                                     003F       30036$:
                                 05' 003F       30037$:	.BYTE	30040$-30037$
                                 00' 0040       	.BYTE	QUA_K_BLOC
                                 00  0041       	.IIF B <>,	.BYTE	0
                               3030  0042       	.WORD	$$$
                                     0044       30040$:
                                 05' 0044       30041$:	.BYTE	30044$-30041$
                                 00' 0045       	.BYTE	QUA_K_CONT
                                 00  0046       	.IIF B <>,	.BYTE	0
                               0018  0047       	.WORD	$$$
                                     0049       30044$:
                                 05' 0049       30045$:	.BYTE	30048$-30045$
                                 00' 004A       	.BYTE	QUA_K_DEVI
                                 00  004B       	.IIF B <>,	.BYTE	0
                               3028  004C       	.WORD	$$$
                                     004E       30048$:
                                 05' 004E       30049$:	.BYTE	30052$-30049$
                                 00' 004F       	.BYTE	QUA_K_INDE
                                 00  0050       	.IIF B <>,	.BYTE	0
                               2038  0051       	.WORD	$$$
                                     0053       30052$:
                                 05' 0053       30053$:	.BYTE	30056$-30053$
                                 00' 0054       	.BYTE	QUA_K_RELA
                                 00  0055       	.IIF B <>,	.BYTE	0
                               0018  0056       	.WORD	$$$
                                     0058       30056$:
                                 05' 0058       30057$:	.BYTE	30060$-30057$
                                 00' 0059       	.BYTE	QUA_K_SEQU
                                 00  005A       	.IIF B <>,	.BYTE	0
                               0018  005B       	.WORD	$$$
                                     005D       30060$:
                                 05' 005D       30061$:	.BYTE	30064$-30061$
                                 00' 005E       	.BYTE	QUA_K_OVER
                                 00  005F       	.IIF B <>,	.BYTE	0
                               0010  0060       	.WORD	$$$
                                     0062       30064$:
                           0000005D  0062       .=$QUALBLK$
                                 00  005D       	.BYTE	0
                                 0000000A       	.RESTORE
                                     000A    57
CMDATBAS4       - COMMAND DATA BASE MODULE 4                     22-AUG-1978 01:04:14   VAX-11 MACRO X0.3-11               Page   5
01              DEFINE DCLS COMMANDS                                                                                             (1)

                                     000A    58 	DEFCMD	STAR,-			; THE START COMMAND
                                     000A    59 		QUAL=YES,-		; COMMAND HAS QUALIFIERS
                                     000A    60 		MINPRM=1,-		; NORMALLY ONE PARAMETER
                                     000A    61 		MAXPRM=1,-		;
                                     000A    62 		DEFIMG=_ZZ_,-		; DEFAULT IMAGE
                                     000A    63 		PRMPTS=<<DEVICE,REQ>,-	; FIRST PARAMETER PROMPT
                                     000A    64 			>
                                     000A       	.LIST
                                 00000004       	.PSECT	DCL$VERBTBL,BYTE,RD,NOWRT
                                 D3  0004       	.BYTE	^A/S/!$XX$
                                 54  0005       	.BYTE	^A/T/!$XX$
                                 41  0006       	.BYTE	^A/A/!$XX$
                                 52  0007       	.BYTE	^A/R/!$XX$
                                     0008       	.LIST
                                 00000002       	.PSECT	DCL$COMDPTR,BYTE,RD,NOWRT
                               005E' 0002       	.WORD	VERB_G_STAR-.-2
                                     0004       	.LIST
                                 00000062       	.PSECT	DCL$CMDATA,BYTE,RD,NOWRT
                                     0062       VERB_G_STAR:
                                 27  0062       	.BYTE	CLI$K_VERB_STAR
                                 11  0063       	.BYTE	1*16+1
                                 00' 0064       	.BYTE	IMG_K__ZZ_
                                 04' 0065       	.BYTE	QUA_G_STAR-.-1
                                 01' 0066       	.BYTE	STAR_G_PRMPT-.-1
                                 00  0067       	.BYTE	$$$
                                     0068       STAR_G_PRMPT:
                                 00' 0068       	.BYTE	PRO_K_DEVICE
                                 10  0069       	.IIF NB	<BYTE>, .BYTE $$$
                                     006A       	.SAVE
                                 0000006A       	.PSECT	DCL$CMDATA,BYTE,RD,NOWRT
                                     006A       QUA_G_STAR:
                                 08' 006A       30066$:	.BYTE	30069$-30066$
                                 00' 006B       	.BYTE	QUA_K_BACK
                                 06' 006C       	.IIF NB	<1>,	.BYTE	30067$-30066$
                               2428  006D       	.WORD	$$$
                                 00' 006F       	.BYTE	IMG_K_QUEMAN
                              31 00' 0070       30067$:	.ASCIC	\1\
                                 01  0070
                                     0072       30069$:
                                 06' 0072       30070$:	.BYTE	30073$-30070$
                                 00' 0073       	.BYTE	QUA_K_BATC
                                 00  0074       	.IIF B <>,	.BYTE	0
                               0448  0075       	.WORD	$$$
                                 00' 0077       	.BYTE	IMG_K_QUEMAN
                                     0078       30073$:
                                 06' 0078       30074$:	.BYTE	30077$-30074$
                                 00' 0079       	.BYTE	QUA_K_BURS
                                 00  007A       	.IIF B <>,	.BYTE	0
                               0448  007B       	.WORD	$$$
                                 00' 007D       	.BYTE	IMG_K_QUEMAN
                                     007E       30077$:
                                 06' 007E       30078$:	.BYTE	30081$-30078$
                                 00' 007F       	.BYTE	QUA_K_DISA
                                 00  0080       	.IIF B <>,	.BYTE	0
                               0448  0081       	.WORD	$$$
                                 00' 0083       	.BYTE	IMG_K_QUEMAN
                                     0084       30081$:
CMDATBAS4       - COMMAND DATA BASE MODULE 4                     22-AUG-1978 01:04:14   VAX-11 MACRO X0.3-11               Page   6
01              DEFINE DCLS COMMANDS                                                                                             (1)

                                 06' 0084       30082$:	.BYTE	30085$-30082$
                                 00' 0085       	.BYTE	QUA_K_ENAB
                                 00  0086       	.IIF B <>,	.BYTE	0
                               0448  0087       	.WORD	$$$
                                 00' 0089       	.BYTE	IMG_K_QUEMAN
                                     008A       30085$:
                                 06' 008A       30086$:	.BYTE	30089$-30086$
                                 00' 008B       	.BYTE	QUA_K_FLAG
                                 00  008C       	.IIF B <>,	.BYTE	0
                               0448  008D       	.WORD	$$$
                                 00' 008F       	.BYTE	IMG_K_QUEMAN
                                     0090       30089$:
                                 06' 0090       30090$:	.BYTE	30093$-30090$
                                 00' 0091       	.BYTE	QUA_K_FORM
                                 00  0092       	.IIF B <>,	.BYTE	0
                               3428  0093       	.WORD	$$$
                                 00' 0095       	.BYTE	IMG_K_QUEMAN
                                     0096       30093$:
                                 06' 0096       30094$:	.BYTE	30097$-30094$
                                 00' 0097       	.BYTE	QUA_K_FORW
                                 00  0098       	.IIF B <>,	.BYTE	0
                               3428  0099       	.WORD	$$$
                                 00' 009B       	.BYTE	IMG_K_QUEMAN
                                     009C       30097$:
                                 06' 009C       30098$:	.BYTE	30101$-30098$
                                 00' 009D       	.BYTE	QUA_K_GENE
                                 00  009E       	.IIF B <>,	.BYTE	0
                               0448  009F       	.WORD	$$$
                                 00' 00A1       	.BYTE	IMG_K_QUEMAN
                                     00A2       30101$:
                                 06' 00A2       30102$:	.BYTE	30105$-30102$
                                 00' 00A3       	.BYTE	QUA_K_JOB_
                                 00  00A4       	.IIF B <>,	.BYTE	0
                               3428  00A5       	.WORD	$$$
                                 00' 00A7       	.BYTE	IMG_K_QUEMAN
                                     00A8       30105$:
                                 06' 00A8       30106$:	.BYTE	30109$-30106$
                                 00' 00A9       	.BYTE	QUA_K_NEXT
                                 00  00AA       	.IIF B <>,	.BYTE	0
                               0408  00AB       	.WORD	$$$
                                 00' 00AD       	.BYTE	IMG_K_QUEMAN
                                     00AE       30109$:
                                 06' 00AE       30110$:	.BYTE	30113$-30110$
                                 00' 00AF       	.BYTE	QUA_K_PRIO
                                 00  00B0       	.IIF B <>,	.BYTE	0
                               3428  00B1       	.WORD	$$$
                                 00' 00B3       	.BYTE	IMG_K_QUEMAN
                                     00B4       30113$:
                                 0B' 00B4       30114$:	.BYTE	30117$-30114$
                                 00' 00B5       	.BYTE	QUA_K_QUEU
                                 00  00B6       	.IIF B <>,	.BYTE	0
                               0409  00B7       	.WORD	$$$
                                 00' 00B9       	.BYTE	IMG_K_QUEMAN
                               0000  00BA       	.WORD	0
                                 11  00BC       	.BYTE	1*16+1
                                 00' 00BD       	.BYTE	PRO_K_QUEUE
                                 10  00BE       	.IIF NB	<BYTE>, .BYTE $$$
CMDATBAS4       - COMMAND DATA BASE MODULE 4                     22-AUG-1978 01:04:14   VAX-11 MACRO X0.3-11               Page   7
01              DEFINE DCLS COMMANDS                                                                                             (1)

                                     00BF       30117$:
                                 06' 00BF       30119$:	.BYTE	30122$-30119$
                                 00' 00C0       	.BYTE	QUA_K_TERM
                                 00  00C1       	.IIF B <>,	.BYTE	0
                               0448  00C2       	.WORD	$$$
                                 00' 00C4       	.BYTE	IMG_K_QUEMAN
                                     00C5       30122$:
                                 06' 00C5       30123$:	.BYTE	30126$-30123$
                                 00' 00C6       	.BYTE	QUA_K_TOP_
                                 00  00C7       	.IIF B <>,	.BYTE	0
                               0408  00C8       	.WORD	$$$
                                 00' 00CA       	.BYTE	IMG_K_QUEMAN
                                     00CB       30126$:
                           000000C5  00CB       .=$QUALBLK$
                                 00  00C5       	.BYTE	0
                                 0000006A       	.RESTORE
                                     006A    65
                                     006A    66 	DEFCMD	STOP,-			; DEFINE STOP COMMAND
                                     006A    67 		QUAL  =YES,-		; YES QUALIFIERS ALLOWED
                                     006A    68 		MINPRM=0,-		; MINIMUM PARAMETER COUNT
                                     006A    69 		MAXPRM=1,-		; MAXIMUM PARAMETERS ALLOWED
                                     006A    70 		DEFIMG=STOP,-		; DEFAULT IMAGE OR ROUTINE NAME
                                     006A    71 		FLAGS=NOSTAT,-		; COMMAND WILL NOT SET GOOD STATUS
                                     006A    72 		PRMPTS=<<FILE,<NONE>>,-	; DUMMY PROMPT CAN'T HAPPEN WITH 0
                                     006A    73 			>		; AS MINIMUM PARAMETER COUNT
                                     006A       	.LIST
                                 00000008       	.PSECT	DCL$VERBTBL,BYTE,RD,NOWRT
                                 D3  0008       	.BYTE	^A/S/!$XX$
                                 54  0009       	.BYTE	^A/T/!$XX$
                                 4F  000A       	.BYTE	^A/O/!$XX$
                                 50  000B       	.BYTE	^A/P/!$XX$
                                     000C       	.LIST
                                 00000004       	.PSECT	DCL$COMDPTR,BYTE,RD,NOWRT
                               00C5' 0004       	.WORD	VERB_G_STOP-.-2
                                     0006       	.LIST
                                 000000CB       	.PSECT	DCL$CMDATA,BYTE,RD,NOWRT
                                     00CB       VERB_G_STOP:
                                 28  00CB       	.BYTE	CLI$K_VERB_STOP
                                 10  00CC       	.BYTE	1*16+0
                                 00' 00CD       	.BYTE	IMG_K_STOP
                                 04' 00CE       	.BYTE	QUA_G_STOP-.-1
                                 01' 00CF       	.BYTE	STOP_G_PRMPT-.-1
                                 08  00D0       	.BYTE	$$$
                                     00D1       STOP_G_PRMPT:
                                 00' 00D1       	.BYTE	PRO_K_FILE
                                 00  00D2       	.BYTE	0
                                     00D3       	.SAVE
                                 000000D3       	.PSECT	DCL$CMDATA,BYTE,RD,NOWRT
                                     00D3       QUA_G_STOP:
                                 0B' 00D3       30128$:	.BYTE	30131$-30128$
                                 00' 00D4       	.BYTE	QUA_K_QUEU
                                 00  00D5       	.IIF B <>,	.BYTE	0
                               0409  00D6       	.WORD	$$$
                                 00' 00D8       	.BYTE	IMG_K_QUEMAN
                               0000  00D9       	.WORD	0
                                 11  00DB       	.BYTE	1*16+1
                                 00' 00DC       	.BYTE	PRO_K_QUEUE
CMDATBAS4       - COMMAND DATA BASE MODULE 4                     22-AUG-1978 01:04:14   VAX-11 MACRO X0.3-11               Page   8
01              DEFINE DCLS COMMANDS                                                                                             (1)

                                 10  00DD       	.IIF NB	<BYTE>, .BYTE $$$
                                     00DE       30131$:
                                 0B' 00DE       30133$:	.BYTE	30136$-30133$
                                 00' 00DF       	.BYTE	QUA_K_ABOR
                                 00  00E0       	.IIF B <>,	.BYTE	0
                               0409  00E1       	.WORD	$$$
                                 00' 00E3       	.BYTE	IMG_K_QUEMAN
                               0000  00E4       	.WORD	0
                                 11  00E6       	.BYTE	1*16+1
                                 00' 00E7       	.BYTE	PRO_K_QUEUE
                                 10  00E8       	.IIF NB	<BYTE>, .BYTE $$$
                                     00E9       30136$:
                                 06' 00E9       30138$:	.BYTE	30141$-30138$
                                 00' 00EA       	.BYTE	QUA_K_NEXT
                                 00  00EB       	.IIF B <>,	.BYTE	0
                               0408  00EC       	.WORD	$$$
                                 00' 00EE       	.BYTE	IMG_K_QUEMAN
                                     00EF       30141$:
                                 05' 00EF       30142$:	.BYTE	30145$-30142$
                                 00' 00F0       	.BYTE	QUA_K_IDEN
                                 00  00F1       	.IIF B <>,	.BYTE	0
                               3028  00F2       	.WORD	$$$
                                     00F4       30145$:
                                 0F' 00F4       30146$:	.BYTE	30149$-30146$
                                 0B' 00F5       	.BYTE	<30148$-30146$>
                                 00  00F6       	.IIF B <>,	.BYTE	0
                               040B  00F7       	.WORD	$$$
                                 00' 00F9       	.BYTE	IMG_K_QUEMAN
                               0000  00FA       	.WORD	0
                                 11  00FC       	.BYTE	1*16+1
                                 00' 00FD       	.BYTE	PRO_K_QUEUE
                                 10  00FE       	.IIF NB	<BYTE>, .BYTE $$$
                        55 51 45 52  00FF       30148$:	.ASCII	\REQU\
                                     0103       30149$:
                                 0B' 0103       30151$:	.BYTE	30154$-30151$
                                 00' 0104       	.BYTE	QUA_K_ENTR
                                 00  0105       	.IIF B <>,	.BYTE	0
                               3429  0106       	.WORD	$$$
                                 00' 0108       	.BYTE	IMG_K_QUEMAN
                               0000  0109       	.WORD	0
                                 11  010B       	.BYTE	1*16+1
                                 00' 010C       	.BYTE	PRO_K_QUEUE
                                 10  010D       	.IIF NB	<BYTE>, .BYTE $$$
                                     010E       30154$:
                           00000103  010E       .=$QUALBLK$
                                 00  0103       	.BYTE	0
                                 000000D3       	.RESTORE
                                     00D3    74
                                     00D3    75 	DEFCMD	SUBM,-			; DEFINE SUBMIT COMMAND
                                     00D3    76 		QUAL  =YES,-		; YES QUALIFIERS ALLOWED
                                     00D3    77 		MINPRM=1,-		; MINIMUM PARAMETER COUNT
                                     00D3    78 		MAXPRM=1,-		; MAXIMUM PARAMETERS ALLOWED
                                     00D3    79 		DEFIMG=SUBMIT,-		; DEFAULT IMAGE OR ROUTINE NAME
                                     00D3    80 		PRMPTS=<<FILE,<REQ,CONCAT,LIST,IMPCAT>>,- ; FIRST PROMPT AND FLAGS
                                     00D3    81 			>
                                     00D3       	.LIST
                                 0000000C       	.PSECT	DCL$VERBTBL,BYTE,RD,NOWRT
CMDATBAS4       - COMMAND DATA BASE MODULE 4                     22-AUG-1978 01:04:14   VAX-11 MACRO X0.3-11               Page   9
01              DEFINE DCLS COMMANDS                                                                                             (1)

                                 D3  000C       	.BYTE	^A/S/!$XX$
                                 55  000D       	.BYTE	^A/U/!$XX$
                                 42  000E       	.BYTE	^A/B/!$XX$
                                 4D  000F       	.BYTE	^A/M/!$XX$
                                     0010       	.LIST
                                 00000006       	.PSECT	DCL$COMDPTR,BYTE,RD,NOWRT
                               0106' 0006       	.WORD	VERB_G_SUBM-.-2
                                     0008       	.LIST
                                 0000010E       	.PSECT	DCL$CMDATA,BYTE,RD,NOWRT
                                     010E       VERB_G_SUBM:
                                 29  010E       	.BYTE	CLI$K_VERB_SUBM
                                 11  010F       	.BYTE	1*16+1
                                 00' 0110       	.BYTE	IMG_K_SUBMIT
                                 04' 0111       	.BYTE	QUA_G_SUBM-.-1
                                 01' 0112       	.BYTE	SUBM_G_PRMPT-.-1
                                 00  0113       	.BYTE	$$$
                                     0114       SUBM_G_PRMPT:
                                 00' 0114       	.BYTE	PRO_K_FILE
                                 17  0115       	.IIF NB	<BYTE>, .BYTE $$$
                                     0116       	.SAVE
                                 00000116       	.PSECT	DCL$CMDATA,BYTE,RD,NOWRT
                                     0116       QUA_G_SUBM:
                                     0116       .IIF NB <GBLTAG>, DCL$G_SUBMQUALS::
                                 05' 0116       30157$:	.BYTE	30160$-30157$
                                 00' 0117       	.BYTE	QUA_K_AFTE
                                 00  0118       	.IIF B <>,	.BYTE	0
                               3028  0119       	.WORD	$$$
                                     011B       30160$:
                                 05' 011B       30161$:	.BYTE	30164$-30161$
                                 00' 011C       	.BYTE	QUA_K_BURS
                                 00  011D       	.IIF B <>,	.BYTE	0
                               0058  011E       	.WORD	$$$
                                     0120       30164$:
                                 05' 0120       30165$:	.BYTE	30168$-30165$
                                 00' 0121       	.BYTE	QUA_K_COPI
                                 00  0122       	.IIF B <>,	.BYTE	0
                               3038  0123       	.WORD	$$$
                                     0125       30168$:
                                 05' 0125       30169$:	.BYTE	30172$-30169$
                                 00' 0126       	.BYTE	QUA_K_DELE
                                 00  0127       	.IIF B <>,	.BYTE	0
                               0058  0128       	.WORD	$$$
                                     012A       30172$:
                                 05' 012A       30173$:	.BYTE	30176$-30173$
                                 00' 012B       	.BYTE	QUA_K_DEVI
                                 00  012C       	.IIF B <>,	.BYTE	0
                               102C  012D       	.WORD	$$$
                                     012F       30176$:
                                 05' 012F       30177$:	.BYTE	30180$-30177$
                                 00' 0130       	.BYTE	QUA_K_FLAG
                                 00  0131       	.IIF B <>,	.BYTE	0
                               0058  0132       	.WORD	$$$
                                     0134       30180$:
                                 05' 0134       30181$:	.BYTE	30184$-30181$
                                 00' 0135       	.BYTE	QUA_K_FORM
                                 00  0136       	.IIF B <>,	.BYTE	0
                               3028  0137       	.WORD	$$$
CMDATBAS4       - COMMAND DATA BASE MODULE 4                     22-AUG-1978 01:04:14   VAX-11 MACRO X0.3-11               Page  10
01              DEFINE DCLS COMMANDS                                                                                             (1)

                                     0139       30184$:
                                 05' 0139       30185$:	.BYTE	30188$-30185$
                                 00' 013A       	.BYTE	QUA_K_HEAD
                                 00  013B       	.IIF B <>,	.BYTE	0
                               0058  013C       	.WORD	$$$
                                     013E       30188$:
                                 05' 013E       30189$:	.BYTE	30192$-30189$
                                 00' 013F       	.BYTE	QUA_K_HOLD
                                 00  0140       	.IIF B <>,	.BYTE	0
                               0048  0141       	.WORD	$$$
                                     0143       30192$:
                                 05' 0143       30193$:	.BYTE	30196$-30193$
                                 00' 0144       	.BYTE	QUA_K_IDEN
                                 00  0145       	.IIF B <>,	.BYTE	0
                               00C8  0146       	.WORD	$$$
                                     0148       30196$:
                                 05' 0148       30197$:	.BYTE	30200$-30197$
                                 00' 0149       	.BYTE	QUA_K_JOB_
                                 00  014A       	.IIF B <>,	.BYTE	0
                               3028  014B       	.WORD	$$$
                                     014D       30200$:
                                 05' 014D       30201$:	.BYTE	30204$-30201$
                                 00' 014E       	.BYTE	QUA_K_NAME
                                 00  014F       	.IIF B <>,	.BYTE	0
                               3028  0150       	.WORD	$$$
                                     0152       30204$:
                                 05' 0152       30205$:	.BYTE	30208$-30205$
                                 00' 0153       	.BYTE	QUA_K_LOWE
                                 00  0154       	.IIF B <>,	.BYTE	0
                               0048  0155       	.WORD	$$$
                                     0157       30208$:
                                 05' 0157       30209$:	.BYTE	30212$-30209$
                                 00' 0158       	.BYTE	QUA_K_PAGE
                                 00  0159       	.IIF B <>,	.BYTE	0
                               3030  015A       	.WORD	$$$
                                     015C       30212$:
                                 05' 015C       30213$:	.BYTE	30216$-30213$
                                 00' 015D       	.BYTE	QUA_K_PARA
                                 00  015E       	.IIF B <>,	.BYTE	0
                               1028  015F       	.WORD	$$$
                                     0161       30216$:
                                 05' 0161       30217$:	.BYTE	30220$-30217$
                                 00' 0162       	.BYTE	QUA_K_PRIO
                                 00  0163       	.IIF B <>,	.BYTE	0
                               3028  0164       	.WORD	$$$
                                     0166       30220$:
                                 05' 0166       30221$:	.BYTE	30224$-30221$
                                 00' 0167       	.BYTE	QUA_K_QUEU
                                 00  0168       	.IIF B <>,	.BYTE	0
                               102C  0169       	.WORD	$$$
                                     016B       30224$:
                                 07' 016B       30225$:	.BYTE	30228$-30225$
                                 00' 016C       	.BYTE	QUA_K_SPAC
                                 05' 016D       	.IIF NB	<2>,	.BYTE	30226$-30225$
                               2038  016E       	.WORD	$$$
                              32 00' 0170       30226$:	.ASCIC	\2\
                                 01  0170
CMDATBAS4       - COMMAND DATA BASE MODULE 4                     22-AUG-1978 01:04:14   VAX-11 MACRO X0.3-11               Page  11
01              DEFINE DCLS COMMANDS                                                                                             (1)

                                     0172       30228$:
                                 05' 0172       30229$:	.BYTE	30232$-30229$
                                 00' 0173       	.BYTE	QUA_K_FEED
                                 00  0174       	.IIF B <>,	.BYTE	0
                               0058  0175       	.WORD	$$$
                                     0177       30232$:
                                 05' 0177       30233$:	.BYTE	30236$-30233$
                                 00' 0178       	.BYTE	QUA_K_REMO
                                 00  0179       	.IIF B <>,	.BYTE	0
                               0008  017A       	.WORD	$$$
                                     017C       30236$:
                           00000177  017C       .=$QUALBLK$
                                 00  0177       	.BYTE	0
                                 00000116       	.RESTORE
                                     0116    82
                                     0116    83 	DEFCMD	SYNC,-			; DEFINE SYNCRONIZE COMMAND
                                     0116    84 		QUAL  =YES,-		; YES QUALIFIERS ALLOWED
                                     0116    85 		MINPRM=0,-		; MINIMUM PARAMETER COUNT
                                     0116    86 		MAXPRM=1,-		; MAXIMUM PARAMETERS ALLOWED
                                     0116    87 		DEFIMG=QUEMAN,-		; DEFAULT IMAGE OR ROUTINE NAME
                                     0116    88 		PRMPTS=<<FILE,<NONE>>,- ; FIRST PROMPT AND FLAGS
                                     0116    89 			>
                                     0116       	.LIST
                                 00000010       	.PSECT	DCL$VERBTBL,BYTE,RD,NOWRT
                                 D3  0010       	.BYTE	^A/S/!$XX$
                                 59  0011       	.BYTE	^A/Y/!$XX$
                                 4E  0012       	.BYTE	^A/N/!$XX$
                                 43  0013       	.BYTE	^A/C/!$XX$
                                     0014       	.LIST
                                 00000008       	.PSECT	DCL$COMDPTR,BYTE,RD,NOWRT
                               0172' 0008       	.WORD	VERB_G_SYNC-.-2
                                     000A       	.LIST
                                 0000017C       	.PSECT	DCL$CMDATA,BYTE,RD,NOWRT
                                     017C       VERB_G_SYNC:
                                 37  017C       	.BYTE	CLI$K_VERB_SYNC
                                 10  017D       	.BYTE	1*16+0
                                 00' 017E       	.BYTE	IMG_K_QUEMAN
                                 04' 017F       	.BYTE	QUA_G_SYNC-.-1
                                 01' 0180       	.BYTE	SYNC_G_PRMPT-.-1
                                 00  0181       	.BYTE	$$$
                                     0182       SYNC_G_PRMPT:
                                 00' 0182       	.BYTE	PRO_K_FILE
                                 00  0183       	.BYTE	0
                                     0184       	.SAVE
                                 00000184       	.PSECT	DCL$CMDATA,BYTE,RD,NOWRT
                                     0184       QUA_G_SYNC:
                                 05' 0184       30238$:	.BYTE	30241$-30238$
                                 00' 0185       	.BYTE	QUA_K_ENTR
                                 00  0186       	.IIF B <>,	.BYTE	0
                               3028  0187       	.WORD	$$$
                                     0189       30241$:
                                 05' 0189       30242$:	.BYTE	30245$-30242$
                                 00' 018A       	.BYTE	QUA_K_QUEU
                                 00  018B       	.IIF B <>,	.BYTE	0
                               3028  018C       	.WORD	$$$
                                     018E       30245$:
                           00000189  018E       .=$QUALBLK$
CMDATBAS4       - COMMAND DATA BASE MODULE 4                     22-AUG-1978 01:04:14   VAX-11 MACRO X0.3-11               Page  12
01              DEFINE DCLS COMMANDS                                                                                             (1)

                                 00  0189       	.BYTE	0
                                 00000184       	.RESTORE
                                     0184    90
                                     0184    91 	DEFCMD	TYPE,-
                                     0184    92 		QUAL  =YES,-
                                     0184    93 		MINPRM=1,-
                                     0184    94 		MAXPRM=1,-
                                     0184    95 		DEFIMG=TYPE,-
                                     0184    96 		OUTPRS=<CLI$K_TYPE_OUTP>,-
                                     0184    97 		PRMPTS=<<FILE,<REQ,CONCAT,LIST,IMPCAT>>>
                                     0184       	.LIST
                                 00000014       	.PSECT	DCL$VERBTBL,BYTE,RD,NOWRT
                                 D4  0014       	.BYTE	^A/T/!$XX$
                                 59  0015       	.BYTE	^A/Y/!$XX$
                                 50  0016       	.BYTE	^A/P/!$XX$
                                 45  0017       	.BYTE	^A/E/!$XX$
                                     0018       	.LIST
                                 0000000A       	.PSECT	DCL$COMDPTR,BYTE,RD,NOWRT
                               0182' 000A       	.WORD	VERB_G_TYPE-.-2
                                     000C       	.LIST
                                 0000018E       	.PSECT	DCL$CMDATA,BYTE,RD,NOWRT
                                     018E       VERB_G_TYPE:
                                 2A  018E       	.BYTE	CLI$K_VERB_TYPE
                                 11  018F       	.BYTE	1*16+1
                                 00' 0190       	.BYTE	IMG_K_TYPE
                                 06' 0191       	.BYTE	QUA_G_TYPE-.-1
                                 03' 0192       	.BYTE	TYPE_G_PRMPT-.-1
                                 04  0193       	.BYTE	$$$
                                 01' 0194       	.BYTE	30246$-.-1
                                 01' 0195       	.BYTE	CLI$K_TYPE_OUTP
                                     0196       30246$:
                                     0196       TYPE_G_PRMPT:
                                 00' 0196       	.BYTE	PRO_K_FILE
                                 17  0197       	.IIF NB	<BYTE>, .BYTE $$$
                                     0198       	.SAVE
                                 00000198       	.PSECT	DCL$CMDATA,BYTE,RD,NOWRT
                                     0198       QUA_G_TYPE:
                                 05' 0198       30247$:	.BYTE	30250$-30247$
                                 00' 0199       	.BYTE	QUA_K_OUTP
                                 00  019A       	.IIF B <>,	.BYTE	0
                               082C  019B       	.WORD	$$$
                                     019D       30250$:
                           00000198  019D       .=$QUALBLK$
                                 00  0198       	.BYTE	0
                                 00000198       	.RESTORE
                                     0198    98
                                     0198    99 	DEFCMD	UNLO,-			; DEFINE UNLOCK COMMAND
                                     0198   100 		QUAL  =NO,-		; NO QUALIFIERS ALLOWED
                                     0198   101 		MINPRM=1,-		; MINIMUM PARAMETER COUNT
                                     0198   102 		MAXPRM=1,-		; MAXIMUM PARAMETERS ALLOWED
                                     0198   103 		DEFIMG=BACKTRANS,-	; DEFAULT IMAGE OR ROUTINE NAME
                                     0198   104 		PRMPTS=<<FILE,<REQ,CONCAT,LIST,IMPCAT>>,- ; FIRST PROMPT AND FLAGS
                                     0198   105 			>
                                     0198       	.LIST
                                 00000018       	.PSECT	DCL$VERBTBL,BYTE,RD,NOWRT
                                 D5  0018       	.BYTE	^A/U/!$XX$
                                 4E  0019       	.BYTE	^A/N/!$XX$
CMDATBAS4       - COMMAND DATA BASE MODULE 4                     22-AUG-1978 01:04:14   VAX-11 MACRO X0.3-11               Page  13
01              DEFINE DCLS COMMANDS                                                                                             (1)

                                 4C  001A       	.BYTE	^A/L/!$XX$
                                 4F  001B       	.BYTE	^A/O/!$XX$
                                     001C       	.LIST
                                 0000000C       	.PSECT	DCL$COMDPTR,BYTE,RD,NOWRT
                               018F' 000C       	.WORD	VERB_G_UNLO-.-2
                                     000E       	.LIST
                                 0000019D       	.PSECT	DCL$CMDATA,BYTE,RD,NOWRT
                                     019D       VERB_G_UNLO:
                                 2E  019D       	.BYTE	CLI$K_VERB_UNLO
                                 11  019E       	.BYTE	1*16+1
                                 00' 019F       	.BYTE	IMG_K_BACKTRANS
                                 00  01A0       	.BYTE	0
                                 01' 01A1       	.BYTE	UNLO_G_PRMPT-.-1
                                 00  01A2       	.BYTE	$$$
                                     01A3       UNLO_G_PRMPT:
                                 00' 01A3       	.BYTE	PRO_K_FILE
                                 17  01A4       	.IIF NB	<BYTE>, .BYTE $$$
                                     01A5   106
                                     01A5   107 	DEFCMD	WAIT,-			; DEFINE WAIT COMMAND
                                     01A5   108 		QUAL  =NO,-		; NO QUALIFIERS ALLOWED
                                     01A5   109 		MINPRM=0,-		; MINIMUM PARAMETER COUNT
                                     01A5   110 		MAXPRM=0,-		; MAXIMUM PARAMETERS ALLOWED
                                     01A5   111 		DEFIMG=WAIT,-		; DEFAULT IMAGE OR ROUTINE NAME
                                     01A5   112 		FLAGS =<IMMED,NOSTAT>	; COMMAND PROCESSING FLAGS
                                     01A5       	.LIST
                                 0000001C       	.PSECT	DCL$VERBTBL,BYTE,RD,NOWRT
                                 D7  001C       	.BYTE	^A/W/!$XX$
                                 41  001D       	.BYTE	^A/A/!$XX$
                                 49  001E       	.BYTE	^A/I/!$XX$
                                 54  001F       	.BYTE	^A/T/!$XX$
                                     0020       	.LIST
                                 0000000E       	.PSECT	DCL$COMDPTR,BYTE,RD,NOWRT
                               0195' 000E       	.WORD	VERB_G_WAIT-.-2
                                     0010       	.LIST
                                 000001A5       	.PSECT	DCL$CMDATA,BYTE,RD,NOWRT
                                     01A5       VERB_G_WAIT:
                                 00  01A5       	.BYTE	0
                                 00  01A6       	.BYTE	0*16+0
                                 00' 01A7       	.BYTE	IMG_K_WAIT
                                 00  01A8       	.BYTE	0
                                 00  01A9       	.BYTE	0
                                 0A  01AA       	.BYTE	$$$
                                     01AB   113
                                     01AB   114 	DEFCMD	WRIT,-			; DEFINE WRITE FILE COMMAND
                                     01AB   115 		QUAL	=YES,-		; QUALIFIERS ALLOWED
                                     01AB   116 		MINPRM	=2,-		; MINIMUM NUMBER OF PARAMETERS
                                     01AB   117 		MAXPRM	=2,-		; MAXIMUM NUMBER OF PARAMETERS
                                     01AB   118 		DEFIMG	=WRITE,-	; DEFAULT IMAGE OR ROUTINE NAME
                                     01AB   119 		PRMPTS	=<<LOG_NAME,REQ>,- ; FIRST PROMPT
                                     01AB   120 			<SYMBOL,<REQ,LIST>>> ;SECOND PROMPT
                                     01AB       	.LIST
                                 00000020       	.PSECT	DCL$VERBTBL,BYTE,RD,NOWRT
                                 D7  0020       	.BYTE	^A/W/!$XX$
                                 52  0021       	.BYTE	^A/R/!$XX$
                                 49  0022       	.BYTE	^A/I/!$XX$
                                 54  0023       	.BYTE	^A/T/!$XX$
                                     0024       	.LIST
CMDATBAS4       - COMMAND DATA BASE MODULE 4                     22-AUG-1978 01:04:14   VAX-11 MACRO X0.3-11               Page  14
01              DEFINE DCLS COMMANDS                                                                                             (1)

                                 00000010       	.PSECT	DCL$COMDPTR,BYTE,RD,NOWRT
                               0199' 0010       	.WORD	VERB_G_WRIT-.-2
                                     0012       	.LIST
                                 000001AB       	.PSECT	DCL$CMDATA,BYTE,RD,NOWRT
                                     01AB       VERB_G_WRIT:
                                 00  01AB       	.BYTE	0
                                 22  01AC       	.BYTE	2*16+2
                                 00' 01AD       	.BYTE	IMG_K_WRITE
                                 06' 01AE       	.BYTE	QUA_G_WRIT-.-1
                                 01' 01AF       	.BYTE	WRIT_G_PRMPT-.-1
                                 00  01B0       	.BYTE	$$$
                                     01B1       WRIT_G_PRMPT:
                                 00' 01B1       	.BYTE	PRO_K_LOG_NAME
                                 10  01B2       	.IIF NB	<BYTE>, .BYTE $$$
                                 00' 01B3       	.BYTE	PRO_K_SYMBOL
                                 14  01B4       	.IIF NB	<BYTE>, .BYTE $$$
                                     01B5       	.SAVE
                                 000001B5       	.PSECT	DCL$CMDATA,BYTE,RD,NOWRT
                                     01B5       QUA_G_WRIT:
                                 05' 01B5       30254$:	.BYTE	30257$-30254$
                                 00' 01B6       	.BYTE	QUA_K_END_
                                 00  01B7       	.IIF B <>,	.BYTE	0
                               1028  01B8       	.WORD	$$$
                                     01BA       30257$:
                                 05' 01BA       30258$:	.BYTE	30261$-30258$
                                 00' 01BB       	.BYTE	QUA_K_ERRO
                                 00  01BC       	.IIF B <>,	.BYTE	0
                               1028  01BD       	.WORD	$$$
                                     01BF       30261$:
                           000001BA  01BF       .=$QUALBLK$
                                 00  01BA       	.BYTE	0
                                 000001B5       	.RESTORE
                                     01B5   121
                                     01B5   122
                                     01B5   123 	.END
CMDATBAS4       - COMMAND DATA BASE MODULE 4                     22-AUG-1978 01:04:14   VAX-11 MACRO X0.3-11               Page  15
SYMBOL TABLE                                                                                                                     (1)

$$$            = 00001028            CLI$K_SUBM_LOWE= 0000000D            CLI$K_VERB_RUN = 00000024
$$$GBL         = 00000000            CLI$K_SUBM_NAME= 0000000C            CLI$K_VERB_SET = 00000025
$DCLDEFQUALBLK$= 00000001            CLI$K_SUBM_PAGE= 0000000E            CLI$K_VERB_SHOW= 00000026
$PMTCNT$       = 00000002            CLI$K_SUBM_PARA= 0000000F            CLI$K_VERB_SORT= 00000035
$QUALBLK$      = 000001BA R     05   CLI$K_SUBM_PRIO= 00000010            CLI$K_VERB_STAR= 00000027
$QUALNUM$      = 00000003            CLI$K_SUBM_QUEU= 00000011            CLI$K_VERB_STOP= 00000028
$XX$           = 00000000            CLI$K_SUBM_REMO= 00000014            CLI$K_VERB_SUBM= 00000029
BIT...         = 00000008            CLI$K_SUBM_SPAC= 00000012            CLI$K_VERB_SYNC= 00000037
CLI$K_SORT_ALLO= 00000009            CLI$K_SYNC_ENTR= 00000001            CLI$K_VERB_TYPE= 0000002A
CLI$K_SORT_BLOC= 0000000A            CLI$K_SYNC_QUEU= 00000002            CLI$K_VERB_UNLO= 0000002E
CLI$K_SORT_BUCK= 00000008            CLI$K_TYPE_OUTP= 00000001            CLI$K_WRIT_END_= 00000001
CLI$K_SORT_CONT= 0000000B            CLI$K_VERB_ALLO= 00000001            CLI$K_WRIT_ERRO= 00000002
CLI$K_SORT_DEVI= 0000000C            CLI$K_VERB_ANAL= 00000002            CLI$_ABFNAM    = 000381B8
CLI$K_SORT_DUPL= 00000003            CLI$K_VERB_APPE= 0000002F            CLI$_ABKEYW    = 00038000
CLI$K_SORT_FORM= 00000007            CLI$K_VERB_ASSI= 00000003            CLI$_ABVERB    = 00038008
CLI$K_SORT_INDE= 0000000D            CLI$K_VERB_BASI= 00000004            CLI$_BADRET    = 00038198
CLI$K_SORT_KEY = 00000002            CLI$K_VERB_BLIS= 00000005            CLI$_BADTEXT   = 000381B0
CLI$K_SORT_OVER= 00000010            CLI$K_VERB_CANC= 00000033            CLI$_BUFOVF    = 00038018
CLI$K_SORT_PROC= 00000001            CLI$K_VERB_COBO= 00000006            CLI$_COMPLX    = 00038020
CLI$K_SORT_RELA= 0000000E            CLI$K_VERB_CONT= 00000007            CLI$_CONFQUAL  = 00038802
CLI$K_SORT_RSX1= 00000006            CLI$K_VERB_COPY= 00000008            CLI$_CREQUEJOB = 0003884A
CLI$K_SORT_SEQU= 0000000F            CLI$K_VERB_CREA= 00000009            CLI$_DEFOVF    = 00038028
CLI$K_SORT_SPEC= 00000005            CLI$K_VERB_DATA= 0000000A            CLI$_DEVALSPL  = 0003885A
CLI$K_SORT_WORK= 00000004            CLI$K_VERB_DEAL= 0000000B            CLI$_DEVNOTFOR = 0003887A
CLI$K_STAR_BACK= 00000001            CLI$K_VERB_DEAS= 0000000C            CLI$_DEVNOTSPL = 00038862
CLI$K_STAR_BATC= 00000002            CLI$K_VERB_DEBU= 0000000D            CLI$_DIRECT    = 00038030
CLI$K_STAR_BURS= 00000003            CLI$K_VERB_DEFI= 0000000E            CLI$_EXPSYN    = 00038038
CLI$K_STAR_DISA= 00000004            CLI$K_VERB_DELE= 0000000F            CLI$_FILOPN    = 00038190
CLI$K_STAR_ENAB= 00000005            CLI$K_VERB_DEPO= 00000010            CLI$_ILLVAL    = 0003883A
CLI$K_STAR_FLAG= 00000006            CLI$K_VERB_DIFF= 00000011            CLI$_IMCHNG    = 00038040
CLI$K_STAR_FORM= 00000007            CLI$K_VERB_DIRE= 00000012            CLI$_IMGFNF    = 00038872
CLI$K_STAR_FORW= 00000008            CLI$K_VERB_DISM= 00000013            CLI$_INSFPRM   = 00038048
CLI$K_STAR_GENE= 00000009            CLI$K_VERB_DUMP= 00000030            CLI$_INVKEY    = 00038178
CLI$K_STAR_JOB_= 0000000A            CLI$K_VERB_EDIT= 00000014            CLI$_INVQUAL   = 0003880A
CLI$K_STAR_NEXT= 0000000B            CLI$K_VERB_EOD = 00000015            CLI$_INVQUALNUM= 0003881A
CLI$K_STAR_PRIO= 0000000C            CLI$K_VERB_EXAM= 00000016            CLI$_INVREQTYP = 00038822
CLI$K_STAR_QUEU= 0000000D            CLI$K_VERB_EXIT= 00000017            CLI$_INVRSP    = 00038180
CLI$K_STAR_TERM= 0000000E            CLI$K_VERB_FORE= 000000FF            CLI$_INVUIC    = 000381A8
CLI$K_STAR_TOP_= 0000000F            CLI$K_VERB_FORT= 00000018            CLI$_IVCHAR    = 00038050
CLI$K_STOP_ABOR= 00000002            CLI$K_VERB_GOTO= 00000019            CLI$_IVDEVTYPE = 0003886A
CLI$K_STOP_ENTR= 00000006            CLI$K_VERB_HELP= 0000001A            CLI$_IVFNAM    = 000381C0
CLI$K_STOP_IDEN= 00000004            CLI$K_VERB_IF  = 0000001B            CLI$_IVKEYW    = 00038060
CLI$K_STOP_NEXT= 00000003            CLI$K_VERB_INIT= 0000001C            CLI$_IVOPER    = 00038068
CLI$K_STOP_QUEU= 00000001            CLI$K_VERB_INQU= 0000001D            CLI$_IVPROT    = 00038070
CLI$K_STOP_REQU= 00000005            CLI$K_VERB_LIBR= 00000034            CLI$_IVQLOC    = 00038078
CLI$K_SUBM_AFTE= 00000001            CLI$K_VERB_LINK= 0000001E            CLI$_IVSYMB    = 00038080
CLI$K_SUBM_BURS= 00000002            CLI$K_VERB_LOGO= 0000001F            CLI$_IVVALU    = 00038088
CLI$K_SUBM_COPI= 00000003            CLI$K_VERB_MACR= 00000020            CLI$_IVVERB    = 00038090
CLI$K_SUBM_DELE= 00000004            CLI$K_VERB_MCR = 00000021            CLI$_MAXPARM   = 00038098
CLI$K_SUBM_DEVI= 00000005            CLI$K_VERB_MOUN= 0000002B            CLI$_MULKEY    = 000381A0
CLI$K_SUBM_FEED= 00000013            CLI$K_VERB_ON  = 00000022            CLI$_NOATFIL   = 000380A0
CLI$K_SUBM_FLAG= 00000006            CLI$K_VERB_PATC= 0000002C            CLI$_NOCCAT    = 000380A8
CLI$K_SUBM_FORM= 00000007            CLI$K_VERB_PRIN= 00000023            CLI$_NOCOMD    = 000380B0
CLI$K_SUBM_HEAD= 00000008            CLI$K_VERB_PURG= 00000031            CLI$_NOKEYW    = 000380B8
CLI$K_SUBM_HOLD= 00000009            CLI$K_VERB_RENA= 00000032            CLI$_NOLIST    = 000380C0
CLI$K_SUBM_IDEN= 0000000A            CLI$K_VERB_REPL= 0000002D            CLI$_NOOPTPRS  = 00038842
CLI$K_SUBM_JOB_= 0000000B            CLI$K_VERB_REQU= 00000036            CLI$_NOQUAL    = 000380C8
CMDATBAS4       - COMMAND DATA BASE MODULE 4                     22-AUG-1978 01:04:14   VAX-11 MACRO X0.3-11               Page  16
SYMBOL TABLE                                                                                                                     (1)

CLI$_NORMAL    = 00030001            IMG_K_QUEMAN     ********   X   05   QUA_K_DUPL       ********   X   05
CLI$_NOTNEG    = 000380D8            IMG_K_SORT32     ********   X   05   QUA_K_ENAB       ********   X   05
CLI$_NOVALU    = 000380D0            IMG_K_STOP       ********   X   05   QUA_K_END_       ********   X   05
CLI$_NOVALUE   = 0003882A            IMG_K_SUBMIT     ********   X   05   QUA_K_ENTR       ********   X   05
CLI$_NULFIL    = 000380E0            IMG_K_TYPE       ********   X   05   QUA_K_ERRO       ********   X   05
CLI$_NUMBER    = 000380E8            IMG_K_WAIT       ********   X   05   QUA_K_FEED       ********   X   05
CLI$_ONCOMD    = 000380F0            IMG_K_WRITE      ********   X   05   QUA_K_FLAG       ********   X   05
CLI$_ONERR     = 000380F8            IMG_K__ZZ_       ********   X   05   QUA_K_FORM       ********   X   05
CLI$_ONEVAL    = 00038158            OPI_K_FSTPRM   = FFFFFFFF            QUA_K_FORW       ********   X   05
CLI$_ONLEVL    = 00038100            OPI_K_SCNPRM   = FFFFFFFE            QUA_K_GENE       ********   X   05
CLI$_ONOVF     = 00038108            PRO_B_FLAGS      00000001            QUA_K_HEAD       ********   X   05
CLI$_OVRFLW    = 00038160            PRO_B_PROMPT     00000000            QUA_K_HOLD       ********   X   05
CLI$_PARMDEL   = 00038110            PRO_K_DEVICE     ********   X   05   QUA_K_IDEN       ********   X   05
CLI$_PROC_ID   = 0003FFF1            PRO_K_FILE       ********   X   05   QUA_K_INDE       ********   X   05
CLI$_QUEJOBCRE = 0003FFF9            PRO_K_LENGTH     00000002            QUA_K_JOB_       ********   X   05
CLI$_REQPRMABS = 00038812            PRO_K_LOG_NAME   ********   X   05   QUA_K_KEY        ********   X   05
CLI$_RSLOVF    = 00038118            PRO_K_OUTPUT     ********   X   05   QUA_K_LOWE       ********   X   05
CLI$_SKPDAT    = 00038120            PRO_K_QUEUE      ********   X   05   QUA_K_NAME       ********   X   05
CLI$_SPARE0    = 00038010            PRO_K_SYMBOL     ********   X   05   QUA_K_NEXT       ********   X   05
CLI$_SPARE1    = 00038058            PRO_M_CONCAT   = 00000001            QUA_K_OUTP       ********   X   05
CLI$_STKOVF    = 00038128            PRO_M_IMPCAT   = 00000002            QUA_K_OVER       ********   X   05
CLI$_SUBMITERR = 00038852            PRO_M_LIST     = 00000004            QUA_K_PAGE       ********   X   05
CLI$_SYMDEL    = 00038130            PRO_M_OPTION   = 00000008            QUA_K_PARA       ********   X   05
CLI$_SYMOVF    = 00038138            PRO_M_REQ      = 00000010            QUA_K_PRIO       ********   X   05
CLI$_UNDFIL    = 00038188            PRO_M_STRING   = 00000020            QUA_K_PROC       ********   X   05
CLI$_UNDSYM    = 00038140            PRO_V_CONCAT   = 00000000            QUA_K_QUEU       ********   X   05
CLI$_UNPROPARM = 00038170            PRO_V_IMPCAT   = 00000001            QUA_K_RELA       ********   X   05
CLI$_UNPROQUAL = 00038168            PRO_V_LIST     = 00000002            QUA_K_REMO       ********   X   05
CLI$_USGOTO    = 00038148            PRO_V_OPTION   = 00000003            QUA_K_RSX1       ********   X   05
CLI$_VALCNVERR = 00038832            PRO_V_REQ      = 00000004            QUA_K_SEQU       ********   X   05
CLI$_VALREQ    = 00038150            PRO_V_STRING   = 00000005            QUA_K_SPAC       ********   X   05
CMD_AB_PAROUT    00000006            QUA_B_DEFVAL     00000002            QUA_K_SPEC       ********   X   05
CMD_B_DEFIMG     00000002            QUA_B_IMAGE      00000005            QUA_K_TERM       ********   X   05
CMD_B_FLAGS      00000005            QUA_B_INDEX      00000001            QUA_K_TOP_       ********   X   05
CMD_B_PARMCNT    00000001            QUA_B_OFFSET     00000000            QUA_K_WORK       ********   X   05
CMD_B_PROMPT     00000004            QUA_B_PARMCNT    00000008            QUA_M_BATDEF   = 00000100
CMD_B_QUABLK     00000003            QUA_G_CHNGLST    00000006            QUA_M_CHNGLIST = 00000001
CMD_B_VERBTYP    00000000            QUA_G_SORT       0000000A R     05   QUA_M_DEFTRUE  = 00000080
CMD_M_ABREV    = 00000020            QUA_G_STAR       0000006A R     05   QUA_M_FILE     = 00000004
CMD_M_DEFQUAL  = 00000010            QUA_G_STOP       000000D3 R     05   QUA_M_IMAGE    = 00000400
CMD_M_FOREIGN  = 00000001            QUA_G_SUBM       00000116 R     05   QUA_M_INTDEF   = 00000200
CMD_M_IMMED    = 00000002            QUA_G_SYNC       00000184 R     05   QUA_M_KEYVAL   = 00004000
CMD_M_NOSTAT   = 00000008            QUA_G_TYPE       00000198 R     05   QUA_M_LOCALKEY = 00000002
CMD_M_PAROUT   = 00000004            QUA_G_WRIT       000001B5 R     05   QUA_M_NEG      = 00000040
CMD_S_MAXPARM  = 00000004            QUA_K_ABOR       ********   X   05   QUA_M_ONEVAL   = 00002000
CMD_S_MINPARM  = 00000004            QUA_K_AFTE       ********   X   05   QUA_M_OUTPUT   = 00000800
CMD_V_ABREV    = 00000005            QUA_K_ALLO       ********   X   05   QUA_M_PARM     = 00000010
CMD_V_DEFQUAL  = 00000004            QUA_K_BACK       ********   X   05   QUA_M_VAL      = 00000020
CMD_V_FOREIGN  = 00000000            QUA_K_BATC       ********   X   05   QUA_M_VALREQ   = 00001000
CMD_V_IMMED    = 00000001            QUA_K_BLOC       ********   X   05   QUA_M_VERB     = 00000008
CMD_V_MAXPARM  = 00000004            QUA_K_BUCK       ********   X   05   QUA_S_MAXPARM  = 00000004
CMD_V_MINPARM  = 00000000            QUA_K_BURS       ********   X   05   QUA_S_MINPARM  = 00000004
CMD_V_NOSTAT   = 00000003            QUA_K_CONT       ********   X   05   QUA_V_BATDEF   = 00000008
CMD_V_PAROUT   = 00000002            QUA_K_COPI       ********   X   05   QUA_V_CHNGLIST = 00000000
DCL$G_SUBMQUALS  00000116 RG    05   QUA_K_DELE       ********   X   05   QUA_V_DEFTRUE  = 00000007
GBL...         = 00000000            QUA_K_DEVI       ********   X   05   QUA_V_FILE     = 00000002
IMG_K_BACKTRANS  ********   X   05   QUA_K_DISA       ********   X   05   QUA_V_IMAGE    = 0000000A
CMDATBAS4       - COMMAND DATA BASE MODULE 4                     22-AUG-1978 01:04:14   VAX-11 MACRO X0.3-11               Page  17
SYMBOL TABLE                                                                                                                     (1)

QUA_V_INTDEF   = 00000009
QUA_V_KEYVAL   = 0000000E
QUA_V_LOCALKEY = 00000001
QUA_V_MAXPARM  = 00000004
QUA_V_MINPARM  = 00000000
QUA_V_NEG      = 00000006
QUA_V_ONEVAL   = 0000000D
QUA_V_OUTPUT   = 0000000B
QUA_V_PARM     = 00000004
QUA_V_VAL      = 00000005
QUA_V_VALREQ   = 0000000C
QUA_V_VERB     = 00000003
QUA_W_FLAGS      00000003
QUA_W_PROMPT     00000009
QUA_W_QUALIST    00000006
SORT_G_PRMPT     00000006 R     05
STAR_G_PRMPT     00000068 R     05
STOP_G_PRMPT     000000D1 R     05
SUBM_G_PRMPT     00000114 R     05
SYNC_G_PRMPT     00000182 R     05
TYPE_G_PRMPT     00000196 R     05
UNLO_G_PRMPT     000001A3 R     05
VERB_G_SORT      00000000 R     05
VERB_G_STAR      00000062 R     05
VERB_G_STOP      000000CB R     05
VERB_G_SUBM      0000010E R     05
VERB_G_SYNC      0000017C R     05
VERB_G_TYPE      0000018E R     05
VERB_G_UNLO      0000019D R     05
VERB_G_WAIT      000001A5 R     05
VERB_G_WRIT      000001AB R     05
WRIT_G_PRMPT     000001B1 R     05


PROGRAM SECTION SYNOPSIS

.  ABS  .        00000000      00     NOPIC   USR   CON   ABS   LCL NOSHR NOEXE NORD  NOWRT BYTE
. BLANK .        00000000      01     NOPIC   USR   CON   REL   LCL NOSHR   EXE   RD    WRT BYTE
$ABS$            0000000B      02     NOPIC   USR   CON   ABS   LCL NOSHR   EXE   RD    WRT BYTE
DCL$VERBTBL      00000024      03     NOPIC   USR   CON   REL   LCL NOSHR   EXE   RD  NOWRT BYTE
DCL$COMDPTR      00000012      04     NOPIC   USR   CON   REL   LCL NOSHR   EXE   RD  NOWRT BYTE
DCL$CMDATA       000001BF      05     NOPIC   USR   CON   REL   LCL NOSHR   EXE   RD  NOWRT BYTE


THERE WERE NO ERRORS OR WARNINGS.
10768. BYTES LEFT IN FREE MEMORY POOL.
1046. BYTES OF RECLAIMED MEMORY.
EXE$:CMDATBAS4,LIS$:CMDATBAS4/-SP=EXECML$/ML,LIB$:DCL/ML,SRC$:CMDATBAS4
55 MLB DIR RDS - 662 GETS TO DEFINE 31 MACROS. 146 INTER. FILE WRITES.
