INQUIRE         - INQUIRE DCLS COMMAND EXECUTION                 22-AUG-1978 01:20:23   VAX-11 MACRO X0.3-11               Page   0
TABLE OF CONTENTS

   (1)      34  INQUIRE COMMAND
INQUIRE         - INQUIRE DCLS COMMAND EXECUTION                 22-AUG-1978 01:20:23   VAX-11 MACRO X0.3-11               Page   1
01                                                                                                                               (1)

                                     0000     1 	.TITLE	INQUIRE - INQUIRE DCLS COMMAND EXECUTION
                                     0000     2 	.IDENT	/01/
                                     0000     3
                                     0000     4 ;
                                     0000     5 ; COPYRIGHT (C) 1977
                                     0000     6 ; DIGITAL EQUIPMENT CORPORATION, MAYNARD, MASS.
                                     0000     7 ;
                                     0000     8 ; THIS SOFTWARE IS FURNISHED UNDER  A LICENSE FOR USE ONLY  ON  A
                                     0000     9 ; SINGLE COMPUTER SYSTEM AND MAY BE  COPIED ONLY WITH  THE INCLU-
                                     0000    10 ; SION OF  THE  ABOVE  COPYRIGHT NOTICE.  THIS SOFTWARE,  OR  ANY
                                     0000    11 ; OTHER COPIES THEREOF, MAY NOT BE  PROVIDED  OR  OTHERWISE  MADE
                                     0000    12 ; AVAILABLE TO ANY OTHER PERSON EXCEPT  FOR  USE  ON  SUCH SYSTEM
                                     0000    13 ; AND TO  ONE WHO AGREES  TO  THESE LICENSE  TERMS.  TITLE TO AND
                                     0000    14 ; OWNERSHIP OF THE SOFTWARE SHALL AT ALL TIMES REMAIN IN DEC.
                                     0000    15 ;
                                     0000    16 ; THE INFORMATION IN THIS SOFTWARE  IS  SUBJECT TO CHANGE WITHOUT
                                     0000    17 ; NOTICE AND SHOULD NOT BE CONSTRUED  AS  A COMMITMENT BY DIGITAL
                                     0000    18 ; EQUIPMENT CORPORATION.
                                     0000    19 ;
                                     0000    20 ; DEC ASSUMES NO RESPONSIBILITY FOR THE USE OR RELIABILITY OF ITS
                                     0000    21 ; SOFTWARE ON EQUIPMENT WHICH IS NOT SUPPLIED BY DEC.
                                     0000    22 ;
                                     0000    23 ; W. H. BROWN 28-JUN-1977
                                     0000    24 ;
                                     0000    25 ; INQUIRE DCLS COMMAND EXECUTION
                                     0000    26 ;
                                     0000    27 ; MACRO LIBRARY CALLS
                                     0000    28 ;
                                     0000    29
                                     0000    30 	DEFCMDWRK			; DEFINE WORK AREA OFFSETS
                                     0000    31 	DEFERRCOD			; DEFINE ERROR/STATUS CODES
                                     0000    32 	$CLIDEFQUALINQU			; DEFINE QUALIFIER CODES
INQUIRE         - INQUIRE DCLS COMMAND EXECUTION                 22-AUG-1978 01:20:23   VAX-11 MACRO X0.3-11               Page   2
01              INQUIRE COMMAND                                                                                                  (1)

                                     0000    34 	.SBTTL	INQUIRE COMMAND
                                     0000    35 ;+
                                     0000    36 ; DCL$INQUIRE - INQUIRE COMMAND
                                     0000    37 ;
                                     0000    38 ; THIS ROUTINE IS CALLED AS AN INTERNAL COMMAND TO EXECUTE THE INQUIRE
                                     0000    39 ;	DCLS COMMAND.
                                     0000    40 ;
                                     0000    41 ; INPUTS:
                                     0000    42 ;
                                     0000    43 ;	R6 = COMMAND BUFFER DISPLAY PARAMETER.
                                     0000    44 ;	R9 = ADDRESS OF NEXT BYTE IN COMMAND BUFFER.
                                     0000    45 ;	R10 = RESULT PARSE DESCRIPTOR TABLE POINTER.
                                     0000    46 ;	R11 = BASE ADDRESS OF PROCESS WORK AREA.
                                     0000    47 ;	FP = BASE ADDRESS OF COMMAND WORK AREA.
                                     0000    48 ;
                                     0000    49 ; OUTPUTS:
                                     0000    50 ;
                                     0000    51 ;
                                     0000    52 ;	R0 LOW BIT CLEAR INDICATES COMMAND FAILURE
                                     0000    53 ;
                                     0000    54 ;	R0 LOW BIT SET INDICATES SUCCESSFUL COMPLETION.
                                     0000    55 ;
                                     0000    56 ;		R0 = DCL$_NORMAL - NORMAL COMPLETION.
                                     0000    57 ;-
                                     0000    58
                                 00000000    59 	.PSECT	DCL$ZCODE,BYTE,RD,NOWRT
                                     0000    60
                           00 2F 20  0000    61 TERMS:	.ASCII	\ /\<0>			; VALID TERMINATORS-BLANK, SLASH, EOL
                                     0003    62
                                     0003    63 DCL$INQUIRE::				; INQUIRE COMMAND
            55         38 AB     9E  0003    64 	MOVAB	PRC_Q_LOCAL(R11),R5	; SET DEFAULT TABLE ADDRESS
                          78     10  0007    65 	BSBB	100$			; HANDLE QUALIFIERS IF PRESENT
            50            20     91  0009    66 	CMPB	#^A/ /,R0		; TERMINATE WITH A SPACE?
                          6F     12  000C    67 	BNEQ	80$			; BR IF NO
                          56     D6  000E    68 	INCL	R6			; ADVANCE ERROR LIMIT TO FIRST CHARACTER
                                     0010    69 	MOVTOKN				; GET THE SYMBOL NAME TOKEN INTO BUFFER
                          68     13  0013    70 	BEQL	80$			; BR IF NO SYMBOL NAME
            57            51     7D  0015    71 	MOVQ	R1,R7			; SAVE DESCRIPTOR FOR SYMBOL
            03            50     3A  0018    72 	LOCC	R0,#3,TERMS		; CHECK FOR VALID TERMINATOR
                       E3 AF         001B
                          5E     13  001D    73 	BEQL	80$			; BR IF INVALID TERMINATOR
                                     001F    74 	CHKALPHA			; VERIFY THAT IT IS ACCEPTABLE
            58            50     E9  0022    75 	BLBC	R0,80$			; BR IF NO-REPORT ERROR
                          5A     10  0025    76 	BSBB	100$			; ATTEMPT TO CHANGE THE TABLE ASSIGNMENT
            03            50     3A  0027    77 	LOCC	R0,#3,TERMS		; CHECK FOR VALID TERMINATOR
                       D4 AF         002A
                          4F     13  002C    78 	BEQL	80$			; BR IF NO-SYNTAX ERROR
            52         01 A9     9E  002E    79 	MOVAB	1(R9),R2		; COPY POINTER INTO COMMMAND BUFFER
                                     0032    80 40$:	MOVCHAR				; COPY A BYTE INTO THE COMMAND BUFFER
                          FB     12  0035    81 	BNEQ	40$			; BR IF NOT EOL
            59            52     C3  0037    82 	SUBL3	R2,R9,R1		; FIND LENGTH OF PROMPT
                          51         003A
                          05     12  003B    83 	BNEQ	50$			; BR IF PROMPT STRING PROVIDED
            51            57     7D  003D    84 	MOVQ	R7,R1			; NO PROMPT-GET DESCRIPTOR FOR SYMBOL
                          51     D6  0040    85 	INCL	R1			; ADD 1 FOR TERMINATOR
                                     0042    86 50$:	COMPSTRING			; COMPRESS THE STRING
            52            51     C1  0045    87 	ADDL3	R1,R2,R9		; RESET POINTER INTO COMMAND BUFFER
INQUIRE         - INQUIRE DCLS COMMAND EXECUTION                 22-AUG-1978 01:20:23   VAX-11 MACRO X0.3-11               Page   3
01              INQUIRE COMMAND                                                                                                  (1)

                          59         0048
         FF A9            3A     90  0049    88 	MOVB	#^A/:/,-1(R9)		; STORE OVER EOL MARKER
            89            20     9A  004D    89 	MOVZBL	#^A/ /,(R9)+		; SET A BLANK FOR SPACE
            51            02     81  0050    90 	ADDB3	#2,R1,-(R2)		; MAKE INTO COUNTED STRING
                          72         0053
         D0 AD            52     D0  0054    91 	MOVL	R2,WRK_L_PROMPT(FP)	; SET PROMPT STRING POINTER
                                     0058    92 	SETBIT	WRK_V_INQUIRE,WRK_W_FLAGS(FP) ; INDICATE DOING A INQUIRE
                                     005D    93 	FORNBLK				; MAKE AN INPUT HAPPEN
            52            59     D0  0060    94 	MOVL	R9,R2			; SAVE PLACE IN COMMAND BUFFER
                                     0063    95 60$:	MOVCHAR				; GET THE ANSWER
                          FB     12  0066    96 	BNEQ	60$			; BR IF A GOOD CHAR RETURNED
            59            52     C3  0068    97 	SUBL3	R2,R9,R1		; FIND THE LENGTH
                          51         006B
                          51     D7  006C    98 	DECL	R1			; REMOVE COUNT FOR EOL
                          03     13  006E    99 	BEQL	70$			; BR IF NULL STRING IS THE ANSWERE
                                     0070   100 	COMPSTRING			; COMPRESS QUOTES
            53            57     7D  0073   101 70$:	MOVQ	R7,R3			; SET DESCRIPTOR FOR SYMBOL
         54 AB            04     A8  0076   102 	BISW	#PRC_M_DISABL,PRC_W_FLAGS(R11) ; DISABLE CONTROL Y/C AST'S
                          FF83'  31  007A   103 	BRW	DCL$ALLOCSYM		; CREATE THE SYMBOL DEFINTION
                                     007D   104 ;
                                     007D   105 ; COMMAND SYNTAX ERROR
                                     007D   106 ;
                                     007D   107 	.LIST	MEB
                                     007D   108 80$:	STATUS	EXPSYN			; ERROR STATUS
            50            0E     CE  007D       	MNEGL	#_$$_,R0
                                 05  0080   109 90$:	RSB				; RETURN WITH ERROR
                                     0081   110 	.NLIST	MEB
                                     0081   111 ;
                                     0081   112 ; LOCAL SUBROUTINE TO PROCESS QUALIFIERS
                                     0081   113 ;
                                     0081   114 100$:	SETCHAR				; PEEK AT NEXT CHARACTER IN INPUT
            56            69     9E  0084   115 	MOVAB	(R9),R6			; POINT AT TERMINATOR
            2F            50     91  0087   116 	CMPB	R0,#^A\/\		; QUALIFIER COMMING?
                          18     12  008A   117 	BNEQ	120$			; BR IF NO QUALIFIER IN SIGHT
                                     008C   118 	PROCQUAL			; PROCESS THE QUALIFIER
            10            50     E9  008F   119 	BLBC	R0,110$			; BR IF ERROR IN QUALIFIER
            55         38 AB     9E  0092   120 	MOVAB	PRC_Q_LOCAL(R11),R5	; ASSUME LOCAL TABLE
            01         FC AA     91  0096   121 	CMPB	-4(R10),#CLI$K_INQU_GLOB ; GLOBAL TABLE SPECIFIED?
                          E5     12  009A   122 	BNEQ	100$			; BR IF NO
            55         28 AB     9E  009C   123 	MOVAB	PRC_Q_GLOBAL(R11),R5	; SET PROPER TABLE ADDRESS
                          DF     11  00A0   124 	BRB	100$			; TRY FOR MORE
                          8E     D5  00A2   125 110$:	TSTL	(SP)+			; CLEAR RETURN ADDRESS
                                 05  00A4   126 120$:	RSB				; RETURN TO CALLER
                                     00A5   127
                                     00A5   128 	.END
INQUIRE         - INQUIRE DCLS COMMAND EXECUTION                 22-AUG-1978 01:20:23   VAX-11 MACRO X0.3-11               Page   4
SYMBOL TABLE                                                                                                                     (1)

$$$            = 00000004            CLI$_ONCOMD    = 000380F0            PRC_L_INDEPTH    00000048
$$$GBL         = 00000000            CLI$_ONERR     = 000380F8            PRC_L_INDFAB     0000001C
$QUALNUM$      = 00000003            CLI$_ONEVAL    = 00038158            PRC_L_INDINPRAB  00000014
BIT...         = 00000008            CLI$_ONLEVL    = 00038100            PRC_L_INDOUTRAB  00000018
CLI$K_INQU_GLOB= 00000001            CLI$_ONOVF     = 00038108            PRC_L_INPRAB     00000008
CLI$K_INQU_LOCA= 00000002            CLI$_OVRFLW    = 00038160            PRC_L_LSTSTATUS  00000094
CLI$_ABFNAM    = 000381B8            CLI$_PARMDEL   = 00038110            PRC_L_ONCTLY     0000009C
CLI$_ABKEYW    = 00038000            CLI$_PROC_ID   = 0003FFF1            PRC_L_ONERROR    00000058
CLI$_ABVERB    = 00038008            CLI$_QUEJOBCRE = 0003FFF9            PRC_L_OUTRAB     0000000C
CLI$_BADRET    = 00038198            CLI$_REQPRMABS = 00038812            PRC_L_PROCUIC    00000098
CLI$_BADTEXT   = 000381B0            CLI$_RSLOVF    = 00038118            PRC_L_SAVAP      00000000
CLI$_BUFOVF    = 00038018            CLI$_SKPDAT    = 00038120            PRC_L_SAVFP      00000004
CLI$_COMPLX    = 00038020            CLI$_SPARE0    = 00038010            PRC_L_SEVERITY   00000040
CLI$_CONFQUAL  = 00038802            CLI$_SPARE1    = 00038058            PRC_L_STACKLM    00000088
CLI$_CREQUEJOB = 0003884A            CLI$_STKOVF    = 00038128            PRC_L_STACKPT    00000084
CLI$_DEFOVF    = 00038028            CLI$_SUBMITERR = 00038852            PRC_L_STATUS     00000044
CLI$_DEVALSPL  = 0003885A            CLI$_SYMDEL    = 00038130            PRC_L_SYMBOL     0000004C
CLI$_DEVNOTFOR = 0003887A            CLI$_SYMOVF    = 00038138            PRC_M_CNTRLY   = 00000002
CLI$_DEVNOTSPL = 00038862            CLI$_UNDFIL    = 00038188            PRC_M_DBGQUAL  = 00000200
CLI$_DIRECT    = 00038030            CLI$_UNDSYM    = 00038140            PRC_M_DBGTRUE  = 00000400
CLI$_EXPSYN    = 00038038            CLI$_UNPROPARM = 00038170            PRC_M_DISABL   = 00000004
CLI$_FILOPN    = 00038190            CLI$_UNPROQUAL = 00038168            PRC_M_EXIT     = 00000008
CLI$_ILLVAL    = 0003883A            CLI$_USGOTO    = 00038148            PRC_M_GOEOF    = 00000001
CLI$_IMCHNG    = 00038040            CLI$_VALCNVERR = 00038832            PRC_M_GOTO     = 00000010
CLI$_IMGFNF    = 00038872            CLI$_VALREQ    = 00038150            PRC_M_HANGUP   = 00001000
CLI$_INSFPRM   = 00038048            CMDBUFSIZ      = 000001FC            PRC_M_IND      = 00000020
CLI$_INVKEY    = 00038178            DCL$ALLOCSYM     ********   X   03   PRC_M_MODE     = 00000040
CLI$_INVQUAL   = 0003880A            DCL$CHKALPHA     ********   X   03   PRC_M_NOCTLY   = 00004000
CLI$_INVQUALNUM= 0003881A            DCL$COMPSTRING   ********   X   03   PRC_M_PAUSE    = 00002000
CLI$_INVREQTYP = 00038822            DCL$FORNBLK      ********   X   03   PRC_M_USRDET   = 00000100
CLI$_INVRSP    = 00038180            DCL$INQUIRE      00000003 RG    03   PRC_M_VERIFY   = 00000080
CLI$_INVUIC    = 000381A8            DCL$MOVCHAR      ********   X   03   PRC_M_YLEVEL   = 00000800
CLI$_IVCHAR    = 00038050            DCL$MOVTOKN      ********   X   03   PRC_Q_ALLOCREG   00000020
CLI$_IVDEVTYPE = 0003886A            DCL$PROCQUAL     ********   X   03   PRC_Q_GLOBAL     00000028
CLI$_IVFNAM    = 000381C0            DCL$SETCHAR      ********   X   03   PRC_Q_LABEL      00000030
CLI$_IVKEYW    = 00038060            GBL...         = 00000000            PRC_Q_LOCAL      00000038
CLI$_IVOPER    = 00038068            INPBUFSIZ      = 00000084            PRC_V_CNTRLY   = 00000001
CLI$_IVPROT    = 00038070            MSGBUFSIZ      = 00000084            PRC_V_DBGQUAL  = 00000009
CLI$_IVQLOC    = 00038078            PRC_B_DEFRADIX   00000092            PRC_V_DBGTRUE  = 0000000A
CLI$_IVSYMB    = 00038080            PRC_B_EXMDEPMOD  00000091            PRC_V_DISABL   = 00000002
CLI$_IVVALU    = 00038088            PRC_B_EXMDEPWID  00000090            PRC_V_EXIT     = 00000003
CLI$_IVVERB    = 00038090            PRC_K_DEC      = 00000001            PRC_V_GOEOF    = 00000000
CLI$_MAXPARM   = 00038098            PRC_K_HEX      = 00000000            PRC_V_GOTO     = 00000004
CLI$_MULKEY    = 000381A0            PRC_K_LENGTH     000000A0            PRC_V_HANGUP   = 0000000C
CLI$_NOATFIL   = 000380A0            PRC_K_OCT      = 00000002            PRC_V_IND      = 00000005
CLI$_NOCCAT    = 000380A8            PRC_L_CLIWRK0    0000005C            PRC_V_MODE     = 00000006
CLI$_NOCOMD    = 000380B0            PRC_L_CLIWRK1    00000060            PRC_V_NOCTLY   = 0000000E
CLI$_NOKEYW    = 000380B8            PRC_L_CLIWRK2    00000064            PRC_V_PAUSE    = 0000000D
CLI$_NOLIST    = 000380C0            PRC_L_CLIWRK3    00000068            PRC_V_USRDET   = 00000008
CLI$_NOOPTPRS  = 00038842            PRC_L_CLIWRK4    0000006C            PRC_V_VERIFY   = 00000007
CLI$_NOQUAL    = 000380C8            PRC_L_ERRRAB     00000010            PRC_V_YLEVEL   = 0000000B
CLI$_NORMAL    = 00030001            PRC_L_EXMDEPADR  0000008C            PRC_W_CLIFLAG    00000052
CLI$_NOTNEG    = 000380D8            PRC_L_EXTARG     00000078            PRC_W_ERRIFI     00000052
CLI$_NOVALU    = 000380D0            PRC_L_EXTBLK     00000070            PRC_W_FLAGS      00000054
CLI$_NOVALUE   = 0003882A            PRC_L_EXTCOD     00000080            PRC_W_INPCHAN    00000050
CLI$_NULFIL    = 000380E0            PRC_L_EXTHND     00000074            PRC_W_ONLEVEL    00000056
CLI$_NUMBER    = 000380E8            PRC_L_EXTPRM     0000007C            PRO_B_FLAGS      00000001
INQUIRE         - INQUIRE DCLS COMMAND EXECUTION                 22-AUG-1978 01:20:23   VAX-11 MACRO X0.3-11               Page   5
SYMBOL TABLE                                                                                                                     (1)

PRO_B_PROMPT     00000000            RSLBUFSIZ      = 00000180
PRO_K_LENGTH     00000002            TERMS            00000000 R     03
PRO_M_CONCAT   = 00000001            WRK_AB_BUFFER    FFFFFD38
PRO_M_IMPCAT   = 00000002            WRK_AG_RESULT    FFFFFBB4
PRO_M_LIST     = 00000004            WRK_B_VERBTYP    FFFFFFC0
PRO_M_OPTION   = 00000008            WRK_K_LENGTH     FFFFFBB4
PRO_M_REQ      = 00000010            WRK_L_CHARPTR    FFFFFFFC
PRO_M_STRING   = 00000020            WRK_L_CMDOUT     FFFFFFBC
PRO_V_CONCAT   = 00000000            WRK_L_IMAGE      FFFFFFEC
PRO_V_IMPCAT   = 00000001            WRK_L_MAXPARM    FFFFFFE4
PRO_V_LIST     = 00000002            WRK_L_MINPARM    FFFFFFE8
PRO_V_OPTION   = 00000003            WRK_L_PARMCNT    FFFFFFF0
PRO_V_REQ      = 00000004            WRK_L_PAROUT     FFFFFFF4
PRO_V_STRING   = 00000005            WRK_L_PROMPT     FFFFFFD0
QUA_B_DEFVAL     00000002            WRK_L_PROPTR     FFFFFFDC
QUA_B_IMAGE      00000005            WRK_L_QUABLK     FFFFFFE0
QUA_B_INDEX      00000001            WRK_L_RSLNXT     FFFFFD34
QUA_B_OFFSET     00000000            WRK_L_SAVAP      FFFFFFC8
QUA_B_PARMCNT    00000008            WRK_L_SAVFP      FFFFFFCC
QUA_G_CHNGLST    00000006            WRK_L_SAVSP      FFFFFFC4
QUA_M_BATDEF   = 00000100            WRK_M_COMMAND  = 00000002
QUA_M_CHNGLIST = 00000001            WRK_M_IMCHNG   = 00000004
QUA_M_DEFTRUE  = 00000080            WRK_M_INQUIRE  = 00000100
QUA_M_FILE     = 00000004            WRK_M_NOSTAT   = 00000200
QUA_M_IMAGE    = 00000400            WRK_M_PROMPT   = 00000008
QUA_M_INTDEF   = 00000200            WRK_M_QUAL     = 00000010
QUA_M_KEYVAL   = 00004000            WRK_M_QUOTE    = 00000020
QUA_M_LOCALKEY = 00000002            WRK_M_RUNDWN   = 00000001
QUA_M_NEG      = 00000040            WRK_M_STAR     = 00000040
QUA_M_ONEVAL   = 00002000            WRK_M_TRAILSPC = 00000400
QUA_M_OUTPUT   = 00000800            WRK_M_VERB     = 00000080
QUA_M_PARM     = 00000010            WRK_Q_IOSB       FFFFFFD4
QUA_M_VAL      = 00000020            WRK_V_COMMAND  = 00000001
QUA_M_VALREQ   = 00001000            WRK_V_IMCHNG   = 00000002
QUA_M_VERB     = 00000008            WRK_V_INQUIRE  = 00000008
QUA_S_MAXPARM  = 00000004            WRK_V_NOSTAT   = 00000009
QUA_S_MINPARM  = 00000004            WRK_V_PROMPT   = 00000003
QUA_V_BATDEF   = 00000008            WRK_V_QUAL     = 00000004
QUA_V_CHNGLIST = 00000000            WRK_V_QUOTE    = 00000005
QUA_V_DEFTRUE  = 00000007            WRK_V_RUNDWN   = 00000000
QUA_V_FILE     = 00000002            WRK_V_STAR     = 00000006
QUA_V_IMAGE    = 0000000A            WRK_V_TRAILSPC = 0000000A
QUA_V_INTDEF   = 00000009            WRK_V_VERB     = 00000007
QUA_V_KEYVAL   = 0000000E            WRK_W_FLAGS      FFFFFFFA
QUA_V_LOCALKEY = 00000001            WRK_W_IMGCHAN    FFFFFFF8
QUA_V_MAXPARM  = 00000004            _$$_           = 0000000E
QUA_V_MINPARM  = 00000000
QUA_V_NEG      = 00000006
QUA_V_ONEVAL   = 0000000D
QUA_V_OUTPUT   = 0000000B
QUA_V_PARM     = 00000004
QUA_V_VAL      = 00000005
QUA_V_VALREQ   = 0000000C
QUA_V_VERB     = 00000003
QUA_W_FLAGS      00000003
QUA_W_PROMPT     00000009
QUA_W_QUALIST    00000006
INQUIRE         - INQUIRE DCLS COMMAND EXECUTION                 22-AUG-1978 01:20:23   VAX-11 MACRO X0.3-11               Page   6
PROGRAM SECTION SYNOPSIS                                                                                                         (1)


PROGRAM SECTION SYNOPSIS

.  ABS  .        00000000      00     NOPIC   USR   CON   ABS   LCL NOSHR NOEXE NORD  NOWRT BYTE
. BLANK .        00000000      01     NOPIC   USR   CON   REL   LCL NOSHR   EXE   RD    WRT BYTE
$ABS$            FFFFFFFC      02     NOPIC   USR   CON   ABS   LCL NOSHR   EXE   RD    WRT BYTE
DCL$ZCODE        000000A5      03     NOPIC   USR   CON   REL   LCL NOSHR   EXE   RD  NOWRT BYTE


THERE WERE NO ERRORS OR WARNINGS.
15906. BYTES LEFT IN FREE MEMORY POOL.
910. BYTES OF RECLAIMED MEMORY.
EXE$:INQUIRE,LIS$:INQUIRE/-SP=EXECML$/ML,LIB$:DCL/ML,SRC$:INQUIRE
33 MLB DIR RDS - 517 GETS TO DEFINE 29 MACROS. 31 INTER. FILE WRITES.
