ON              - ON ERROR DCLS COMMAND EXECUTION                22-AUG-1978 01:21:51   VAX-11 MACRO X0.3-11               Page   0
TABLE OF CONTENTS

   (1)      45  ON ERROR
   (1)     173  RESET ON ERROR PARAMETERS
ON              - ON ERROR DCLS COMMAND EXECUTION                22-AUG-1978 01:21:51   VAX-11 MACRO X0.3-11               Page   1
01                                                                                                                               (1)

                                     0000     1 	.TITLE	ON - ON ERROR DCLS COMMAND EXECUTION
                                     0000     2 	.IDENT	/01/
                                     0000     3
                                     0000     4 ;
                                     0000     5 ; COPYRIGHT (C) 1977
                                     0000     6 ; DIGITAL EQUIPMENT CORPORATION, MAYNARD, MASS.
                                     0000     7 ;
                                     0000     8 ; THIS SOFTWARE IS FURNISHED UNDER  A LICENSE FOR USE ONLY  ON  A
                                     0000     9 ; SINGLE COMPUTER SYSTEM AND MAY BE  COPIED ONLY WITH  THE INCLU-
                                     0000    10 ; SION OF  THE  ABOVE  COPYRIGHT NOTICE.  THIS SOFTWARE,  OR  ANY
                                     0000    11 ; OTHER COPIES THEREOF, MAY NOT BE  PROVIDED  OR  OTHERWISE  MADE
                                     0000    12 ; AVAILABLE TO ANY OTHER PERSON EXCEPT  FOR  USE  ON  SUCH SYSTEM
                                     0000    13 ; AND TO  ONE WHO AGREES  TO  THESE LICENSE  TERMS.  TITLE TO AND
                                     0000    14 ; OWNERSHIP OF THE SOFTWARE SHALL AT ALL TIMES REMAIN IN DEC.
                                     0000    15 ;
                                     0000    16 ; THE INFORMATION IN THIS SOFTWARE  IS  SUBJECT TO CHANGE WITHOUT
                                     0000    17 ; NOTICE AND SHOULD NOT BE CONSTRUED  AS  A COMMITMENT BY DIGITAL
                                     0000    18 ; EQUIPMENT CORPORATION.
                                     0000    19 ;
                                     0000    20 ; DEC ASSUMES NO RESPONSIBILITY FOR THE USE OR RELIABILITY OF ITS
                                     0000    21 ; SOFTWARE ON EQUIPMENT WHICH IS NOT SUPPLIED BY DEC.
                                     0000    22 ;
                                     0000    23 ; D. N. CUTLER 20-MAY-77
                                     0000    24 ;
                                     0000    25 ; ON ERROR DCLS COMMAND EXECUTION
                                     0000    26 ;
                                     0000    27 ; MACRO LIBRARY CALLS
                                     0000    28 ;
                                     0000    29
                                     0000    30 	DEFCMDWRK			;DEFINE WORK AREA OFFSETS
                                     0000    31 	DEFERRCOD			;DEFINE ERROR/STATUS VALUES
                                     0000    32
                                     0000    33 ;
                                     0000    34 ; LOCAL DATA
                                     0000    35 ;
                                     0000    36
                                 00000000    37 	.PSECT	DCL$ZCODE,BYTE,RD,NOWRT
                                     0000    38 LEVELTBL:				;SEVERIY LEVEL TABLE
                     4F 52 52 45 02  0000    39 	.ASCII	<2>/ERRO/		;ERROR
                     45 56 45 53 04  0005    40 	.ASCII	<4>/SEVE/		;SEVERE ERROR
                     4E 52 41 57 00  000A    41 	.ASCII	<0>/WARN/		;WARNING
                     54 4E 4F 43 01  000F    42 	.ASCII	<1>/CONT/		;CONTROL Y
                                     0014    43 LEVELEND:				;
ON              - ON ERROR DCLS COMMAND EXECUTION                22-AUG-1978 01:21:51   VAX-11 MACRO X0.3-11               Page   2
01              ON ERROR                                                                                                         (1)

                                     0014    45 	.SBTTL	ON ERROR
                                     0014    46 ;+
                                     0014    47 ; DCL$ON - ON ERROR
                                     0014    48 ;
                                     0014    49 ; THIS ROUTINE IS CALLED AS  AN INTERNAL COMMAND TO EXECUTE THE ON DCLS COMMAND.
                                     0014    50 ;
                                     0014    51 ; INPUTS:
                                     0014    52 ;
                                     0014    53 ;	R6 = COMMAND BUFFER DISPLAY PARAMETER.
                                     0014    54 ;	R9 = ADDRESS OF NEXT BYTE IN COMMAND BUFFER.
                                     0014    55 ;	R10 = RESULT PARSE DESCRIPTOR TABLE POINTER.
                                     0014    56 ;	R11 = BASE ADDRESS OF PROCESS WORK AREA.
                                     0014    57 ;	FP = BASE ADDRESS OF COMMAND WORK AREA.
                                     0014    58 ;
                                     0014    59 ; OUTPUTS:
                                     0014    60 ;
                                     0014    61 ;	THE ON CLAUSE IS PARSED AND THE CORRESPONDING ERROR LEVEL IS COMPUTED.
                                     0014    62 ;	STORAGE IS ALLOCATED FOR THE THEN CLAUSE AND IT IS COPIED FOR SUBSEQUENT
                                     0014    63 ;	REFERENCE WHEN AN ON CONDITION ACTUALLY EXISTS.
                                     0014    64 ;
                                     0014    65 ;	R0 LOW BIT CLEAR INDICATES FAILURE TO ESTABLISH ON CONDITION PARAMETERS.
                                     0014    66 ;
                                     0014    67 ;		R0 = DCL$_ONERR - INVALID ERROR LEVEL SPECIFIED.
                                     0014    68 ;		R0 = DCL$_ONLEVL - ON CONDITION CAN NOT BE ESTABLISHED AT CURRENT
                                     0014    69 ;			COMMAND LEVEL.
                                     0014    70 ;		R0 = DCL$ONOVF - NO ROOM FOR ON CONDITION COMMAND TEXT.
                                     0014    71 ;		R0 = DCL$_PARMDEL - INVALID PARAMETER DELIMITER.
                                     0014    72 ;
                                     0014    73 ;	R0 LOW BIT SET INDICATES SUCCESSFUL COMPLETION.
                                     0014    74 ;
                                     0014    75 ;		R0 = DCL$NORMAL - NORMAL COMPLETION.
                                     0014    76 ;-
                                     0014    77
                                     0014    78 DCL$ON::				;ON ERROR
            56            59     D0  0014    79 	MOVL	R9,R6			;SAVE COMMAND BUFFER BACKUP PARAMETER
                                     0017    80 	SETCHAR				;PEEK AT NEXT CHARACTER IN INPUT BUFFER
                          00A2   30  001A    81 	BSBW	90$			;CHECK FOR BLANK TERMINATOR
                          009C   30  001D    82 	BSBW	80$			;MOVE TERMINATOR, GET TOKEN, AND CHECK
            51            04     D1  0020    83 	CMPL	#4,R1			;ERROR LEVEL LONGER THAN 4 CHARACTERS
                          03     18  0023    84 	BGEQ	10$			;IF GEQ NO
            51            04     D0  0025    85 	MOVL	#4,R1			;SET LENGTH OF ERROR LEVEL TO 4
            55         D5 AF     9E  0028    86 10$:	MOVAB	LEVELTBL,R5		;GET ADDRESS OF ERROR LEVEL NAME TABLE
            57            04     D0  002C    87 	MOVL	#<LEVELEND-LEVELTBL>/5,R7 ;SET LOOP COUNT
            53            51     7D  002F    88 20$:	MOVQ	R1,R3			;COPY ERROR LEVEL NAME PARAMETERS
            58            85     9A  0032    89 	MOVZBL	(R5)+,R8		;SAVE ERROR LEVEL NUMBER
            50            55     D0  0035    90 	MOVL	R5,R0			;SET ADDRESS OF ERROR LEVEL NAME
                          85     D5  0038    91 	TSTL	(R5)+			;POINT TO NEXT ENTRY IN TABLE
            84            80     91  003A    92 30$:	CMPB	(R0)+,(R4)+		;CHARACTERS MATCH?
                          05     12  003D    93 	BNEQ	40$			;IF NEQ NO
            F8            53     F5  003F    94 	SOBGTR	R3,30$			;ANY MORE CHARACTERS TO COMPARE?
                          07     11  0042    95 	BRB	50$			;
            E8            57     F5  0044    96 40$:	SOBGTR	R7,20$			;ANY MORE ENTRIES TO COMPARE?
                                     0047    97 	STATUS	ONERR			;SET INVALID ERROR LEVEL SPECIFIED STATUS
                                 05  004A    98 	RSB				;
                                     004B    99
                                     004B   100 ;
                                     004B   101 ; LEGAL ERROR LEVEL - PARSE THEN CLAUSE
ON              - ON ERROR DCLS COMMAND EXECUTION                22-AUG-1978 01:21:51   VAX-11 MACRO X0.3-11               Page   3
01              ON ERROR                                                                                                         (1)

                                     004B   102 ;
                                     004B   103
            56            59     D0  004B   104 50$:	MOVL	R9,R6			;SAVE COMMAND BUFFER BACKUP PARAMETER
                          6C     10  004E   105 	BSBB	80$			;MOVE TERMINATOR, GET TOKEN, AND CHECK
                                     0050   106 	STATUS	INVKEY			;ASSUME INVALID KEYWORD
   4E454854 8F            62     D1  0054   107 	CMPL	(R2),#^A\THEN\		;CHECK FOR REQUIRED KEYWORD
                          5E     12  005B   108 	BNEQ	79$			;BR IF NOT VALID
            56         01 A9     9E  005D   109 	MOVAB	1(R9),R6		;SET ADDRESS OF START OF THEN CLAUSE
         54 AB            20     A8  0061   110 	BISW	#PRC_M_IND,PRC_W_FLAGS(R11) ;DISABLE "@" FILE RECOGNITION
                                     0065   111 60$:	MOVCHAR				;MOVE CHARACTER TO COMMAND BUFFER
                          FB     12  0068   112 	BNEQ	60$			;IF NEQ MORE TO GO
         54 AB            20     AA  006A   113 	BICW	#PRC_M_IND,PRC_W_FLAGS(R11) ;ENABLE "@" FILE RECOGNITION
            59            56     C2  006E   114 	SUBL	R6,R9			;CALCULATE LENGTH OF THEN CLAUSE
         FA AD            02     A8  0071   115 	BISW	#WRK_M_COMMAND,WRK_W_FLAGS(FP) ;SET COMMAND IN PROGRESS
            59         84 8F     91  0075   116 	CMPB	#INPBUFSIZ,R9		;ON COMMAND TEXT TOO LARGE FOR INPUT BUFFER?
                          5B     1F  0079   117 	BLSSU	130$			;IF LSSU YES
         54 AB            06     E0  007B   118 	BBS	#PRC_V_MODE,PRC_W_FLAGS(R11),70$ ;IF SET, NONINTERACTIVE JOB
                          07         007F
         14 AB         08 AB     D1  0080   119 	CMPL	PRC_L_INPRAB(R11),PRC_L_INDINPRAB(R11) ;INDIRECT LEVEL NONZERO?
                          45     13  0085   120 	BEQL	110$			;IF EQL NO
                                     0087   121 70$:	DISABLE				;DISABLE CONTROL Y/C AST'S
                          8E     7C  008A   122 	CLRQ	(SP)+			;REMOVE RETURN INFORMATION FROM STACK
            04            58     E9  008C   123 	BLBC	R8,72$			;BR IF ON CONDITION COMMAND
                          49     10  008F   124 	BSBB	DCL$ONCTLYRST		;RESET ON CONTROL Y COMMAND
                          02     11  0091   125 	BRB	74$			;
                          4C     10  0093   126 72$:	BSBB	DCL$ONRESET		;RESET ON ERROR PARAMETERS
            59            08     C1  0095   127 74$:	ADDL3	#8,R9,R1		;ADD BYTE FOR LENGTH AND ROUND TO QUADWORD
                          51         0098
                          FF64'  30  0099   128 	BSBW	DCL$ALLDYNMEM		;ALLOCATE THE MEMORY
            32            50     E9  009C   129 	BLBC	R0,120$			;IF LBC ALLOCATION FAILURE
            07            58     E9  009F   130 	BLBC	R8,76$			;BR IF DOING ON CONDITION
       009C CB            52     D0  00A2   131 	MOVL	R2,PRC_L_ONCTLY(R11)	;SET ON CONTROL Y HANDLER
                          08     11  00A7   132 	BRB	78$			;
         58 AB            52     D0  00A9   133 76$:	MOVL	R2,PRC_L_ONERROR(R11)	;SAVE ADDRESS OF ON ERROR TEXT BUFFER
         56 AB            58     B0  00AD   134 	MOVW	R8,PRC_W_ONLEVEL(R11)	;SAVE ON ERROR LEVEL
            82            51     90  00B1   135 78$:	MOVB	R1,(R2)+		;SAVE LENGTH OF ON TEXT BUFFER
            66            59     28  00B4   136 	MOVC	R9,(R6),(R2)		;MOVE TEXT TO ON ERROR BUFFER
                          62         00B7
                                     00B8   137 	STATUS	NORMAL			;SET NORMAL COMPLETION STATUS
                                 05  00BB   138 79$:	RSB				;
                                     00BC   139
                                     00BC   140 ;
                                     00BC   141 ; MOVE TERMINATOR, GET TOKEN, AND CHECK FOR BLANK TERMINATOR
                                     00BC   142 ;
                                     00BC   143
                                     00BC   144 80$:	MOVTOKN				;MOVE TERMINATOR AND GET TOKEN
            50            20     91  00BF   145 90$:	CMPB	#^A/ /,R0		;BLANK TERMINATOR?
                          01     12  00C2   146 	BNEQ	100$			;IF NEQ NO
                                 05  00C4   147 	RSB				;
                          8E     D5  00C5   148 100$:	TSTL	(SP)+			;CLEAN STACK
                                     00C7   149 	STATUS	PARMDEL			;SET INVALID PARAMETER DELIMITER
                                 05  00CB   150 	RSB				;
                                     00CC   151
                                     00CC   152 ;
                                     00CC   153 ; INVALID ON CONDITION LEVEL
                                     00CC   154 ;
                                     00CC   155
ON              - ON ERROR DCLS COMMAND EXECUTION                22-AUG-1978 01:21:51   VAX-11 MACRO X0.3-11               Page   4
01              ON ERROR                                                                                                         (1)

                                     00CC   156 110$:	STATUS	ONLEVL			;SET INVALID ON CONDITION LEVEL STATUS
                                 05  00D0   157 	RSB				;
                                     00D1   158
                                     00D1   159 ;
                                     00D1   160 ; NO ROOM TO ALLOCATE ON COMMAND TEXT
                                     00D1   161 ;
                                     00D1   162
                                     00D1   163 120$:	STATUS	ONOVF			;SET NO ROOM FOR COMMAND TEXT STATUS
                                 05  00D5   164 	RSB				;
                                     00D6   165
                                     00D6   166 ;
                                     00D6   167 ; ON COMMAND TEXT TOO LARGE FOR INPUT BUFFER
                                     00D6   168 ;
                                     00D6   169
                                     00D6   170 130$:	STATUS	ONCOMD			;SET ON COMMAND TO COMPLEX STATUS
                                 05  00D9   171 	RSB				;
ON              - ON ERROR DCLS COMMAND EXECUTION                22-AUG-1978 01:21:51   VAX-11 MACRO X0.3-11               Page   5
01              RESET ON ERROR PARAMETERS                                                                                        (1)

                                     00DA   173 	.SBTTL	RESET ON ERROR PARAMETERS
                                     00DA   174 ;+
                                     00DA   175 ; DCL$ONRESET - RESET ON ERROR PARAMETERS
                                     00DA   176 ;
                                     00DA   177 ; THIS ROUTINE IS CALLED TO RESET THE ON ERROR PARAMETERS TO THEIR DEFAULT
                                     00DA   178 ; VALUES.
                                     00DA   179 ;
                                     00DA   180 ; INPUTS:
                                     00DA   181 ;
                                     00DA   182 ;	NONE.
                                     00DA   183 ;
                                     00DA   184 ;	IT IS ASSUMED THAT CONTROL Y/C AST'S ARE DISABLED.
                                     00DA   185 ;
                                     00DA   186 ; OUTPUTS:
                                     00DA   187 ;
                                     00DA   188 ;	IF AN ON ERROR COMMAND BUFFER IS CURRENTLY ALLOCATED, THEN IT IS RETURNED
                                     00DA   189 ;	TO THE DYNAMIC STORAGE REGION. THE ON ERROR LEVEL IS SET TO 'ERROR' AND
                                     00DA   190 ;	THE ON ERROR COMMAND TEXT POINTER IS CLEARED.
                                     00DA   191 ;-
                                     00DA   192 	.ENABL	LSB
                                     00DA   193
                                     00DA   194 DCL$ONCTLYRST::				;ON CONTROL Y RESET
            51       009C CB     9E  00DA   195 	MOVAB	PRC_L_ONCTLY(R11),R1	;ADDRESS OF HANDLER
                          08     11  00DF   196 	BRB	10$			;
                                     00E1   197
                                     00E1   198 DCL$ONRESET::				;RESET ON ERROR PARAMETERS
            51         58 AB     9E  00E1   199 	MOVAB	PRC_L_ONERROR(R11),R1	;GET ADDRESS OF ON ERROR COMMAND TEXT
         56 AB            02     B0  00E5   200 	MOVW	#2,PRC_W_ONLEVEL(R11)	;RESET ON ERROR LEVEL TO ERROR
            50            61     D0  00E9   201 10$:	MOVL	(R1),R0			;GET PRVIOUS HANDLER
                          11     13  00EC   202 	BEQL	20$			;IF EQL NONE
                          61     D4  00EE   203 	CLRL	(R1)			;RESET PREVIOUS HANDLER
                     0000'CF     9F  00F0   204 	PUSHAB	W^DCL$T_DEFONTXT	;GET ADDRESS OF DEFAULT "ON" TEXT
            50            8E     D1  00F4   205 	CMPL	(SP)+,R0		;CHECK IF THAT IS THE STRING HERE
                          06     13  00F7   206 	BEQL	20$			;IF YES, DON'T DEALLOCATE THAT
            51            60     9A  00F9   207 	MOVZBL	(R0),R1			;GET LENGTH OF ON ERROR COMMAND TEXT
                          FF01'  30  00FC   208 	BSBW	DCL$DEADYNMEM		;DEALLOCTE THE MEMORY
                                 05  00FF   209 20$:	RSB				;
                                     0100   210
                                     0100   211 	.END
ON              - ON ERROR DCLS COMMAND EXECUTION                22-AUG-1978 01:21:51   VAX-11 MACRO X0.3-11               Page   6
SYMBOL TABLE                                                                                                                     (1)

BIT...         = 0003FFE9            CLI$_OVRFLW    = 00038160            PRC_L_INDINPRAB  00000014
CLI$_ABFNAM    = 000381B8            CLI$_PARMDEL   = 00038110            PRC_L_INDOUTRAB  00000018
CLI$_ABKEYW    = 00038000            CLI$_PROC_ID   = 0003FFF1            PRC_L_INPRAB     00000008
CLI$_ABVERB    = 00038008            CLI$_QUEJOBCRE = 0003FFF9            PRC_L_LSTSTATUS  00000094
CLI$_BADRET    = 00038198            CLI$_REQPRMABS = 00038812            PRC_L_ONCTLY     0000009C
CLI$_BADTEXT   = 000381B0            CLI$_RSLOVF    = 00038118            PRC_L_ONERROR    00000058
CLI$_BUFOVF    = 00038018            CLI$_SKPDAT    = 00038120            PRC_L_OUTRAB     0000000C
CLI$_COMPLX    = 00038020            CLI$_SPARE0    = 00038010            PRC_L_PROCUIC    00000098
CLI$_CONFQUAL  = 00038802            CLI$_SPARE1    = 00038058            PRC_L_SAVAP      00000000
CLI$_CREQUEJOB = 0003884A            CLI$_STKOVF    = 00038128            PRC_L_SAVFP      00000004
CLI$_DEFOVF    = 00038028            CLI$_SUBMITERR = 00038852            PRC_L_SEVERITY   00000040
CLI$_DEVALSPL  = 0003885A            CLI$_SYMDEL    = 00038130            PRC_L_STACKLM    00000088
CLI$_DEVNOTFOR = 0003887A            CLI$_SYMOVF    = 00038138            PRC_L_STACKPT    00000084
CLI$_DEVNOTSPL = 00038862            CLI$_UNDFIL    = 00038188            PRC_L_STATUS     00000044
CLI$_DIRECT    = 00038030            CLI$_UNDSYM    = 00038140            PRC_L_SYMBOL     0000004C
CLI$_EXPSYN    = 00038038            CLI$_UNPROPARM = 00038170            PRC_M_CNTRLY   = 00000002
CLI$_FILOPN    = 00038190            CLI$_UNPROQUAL = 00038168            PRC_M_DBGQUAL  = 00000200
CLI$_ILLVAL    = 0003883A            CLI$_USGOTO    = 00038148            PRC_M_DBGTRUE  = 00000400
CLI$_IMCHNG    = 00038040            CLI$_VALCNVERR = 00038832            PRC_M_DISABL   = 00000004
CLI$_IMGFNF    = 00038872            CLI$_VALREQ    = 00038150            PRC_M_EXIT     = 00000008
CLI$_INSFPRM   = 00038048            CMDBUFSIZ      = 000001FC            PRC_M_GOEOF    = 00000001
CLI$_INVKEY    = 00038178            DCL$ALLDYNMEM    ********   X   03   PRC_M_GOTO     = 00000010
CLI$_INVQUAL   = 0003880A            DCL$DEADYNMEM    ********   X   03   PRC_M_HANGUP   = 00001000
CLI$_INVQUALNUM= 0003881A            DCL$DISABLE      ********   X   03   PRC_M_IND      = 00000020
CLI$_INVREQTYP = 00038822            DCL$MOVCHAR      ********   X   03   PRC_M_MODE     = 00000040
CLI$_INVRSP    = 00038180            DCL$MOVTOKN      ********   X   03   PRC_M_NOCTLY   = 00004000
CLI$_INVUIC    = 000381A8            DCL$ON           00000014 RG    03   PRC_M_PAUSE    = 00002000
CLI$_IVCHAR    = 00038050            DCL$ONCTLYRST    000000DA RG    03   PRC_M_USRDET   = 00000100
CLI$_IVDEVTYPE = 0003886A            DCL$ONRESET      000000E1 RG    03   PRC_M_VERIFY   = 00000080
CLI$_IVFNAM    = 000381C0            DCL$SETCHAR      ********   X   03   PRC_M_YLEVEL   = 00000800
CLI$_IVKEYW    = 00038060            DCL$T_DEFONTXT   ********   X   03   PRC_Q_ALLOCREG   00000020
CLI$_IVOPER    = 00038068            GBL...         = 00000000            PRC_Q_GLOBAL     00000028
CLI$_IVPROT    = 00038070            INPBUFSIZ      = 00000084            PRC_Q_LABEL      00000030
CLI$_IVQLOC    = 00038078            LEVELEND         00000014 R     03   PRC_Q_LOCAL      00000038
CLI$_IVSYMB    = 00038080            LEVELTBL         00000000 R     03   PRC_V_CNTRLY   = 00000001
CLI$_IVVALU    = 00038088            MSGBUFSIZ      = 00000084            PRC_V_DBGQUAL  = 00000009
CLI$_IVVERB    = 00038090            PRC_B_DEFRADIX   00000092            PRC_V_DBGTRUE  = 0000000A
CLI$_MAXPARM   = 00038098            PRC_B_EXMDEPMOD  00000091            PRC_V_DISABL   = 00000002
CLI$_MULKEY    = 000381A0            PRC_B_EXMDEPWID  00000090            PRC_V_EXIT     = 00000003
CLI$_NOATFIL   = 000380A0            PRC_K_DEC      = 00000001            PRC_V_GOEOF    = 00000000
CLI$_NOCCAT    = 000380A8            PRC_K_HEX      = 00000000            PRC_V_GOTO     = 00000004
CLI$_NOCOMD    = 000380B0            PRC_K_LENGTH     000000A0            PRC_V_HANGUP   = 0000000C
CLI$_NOKEYW    = 000380B8            PRC_K_OCT      = 00000002            PRC_V_IND      = 00000005
CLI$_NOLIST    = 000380C0            PRC_L_CLIWRK0    0000005C            PRC_V_MODE     = 00000006
CLI$_NOOPTPRS  = 00038842            PRC_L_CLIWRK1    00000060            PRC_V_NOCTLY   = 0000000E
CLI$_NOQUAL    = 000380C8            PRC_L_CLIWRK2    00000064            PRC_V_PAUSE    = 0000000D
CLI$_NORMAL    = 00030001            PRC_L_CLIWRK3    00000068            PRC_V_USRDET   = 00000008
CLI$_NOTNEG    = 000380D8            PRC_L_CLIWRK4    0000006C            PRC_V_VERIFY   = 00000007
CLI$_NOVALU    = 000380D0            PRC_L_ERRRAB     00000010            PRC_V_YLEVEL   = 0000000B
CLI$_NOVALUE   = 0003882A            PRC_L_EXMDEPADR  0000008C            PRC_W_CLIFLAG    00000052
CLI$_NULFIL    = 000380E0            PRC_L_EXTARG     00000078            PRC_W_ERRIFI     00000052
CLI$_NUMBER    = 000380E8            PRC_L_EXTBLK     00000070            PRC_W_FLAGS      00000054
CLI$_ONCOMD    = 000380F0            PRC_L_EXTCOD     00000080            PRC_W_INPCHAN    00000050
CLI$_ONERR     = 000380F8            PRC_L_EXTHND     00000074            PRC_W_ONLEVEL    00000056
CLI$_ONEVAL    = 00038158            PRC_L_EXTPRM     0000007C            RSLBUFSIZ      = 00000180
CLI$_ONLEVL    = 00038100            PRC_L_INDEPTH    00000048            WRK_AB_BUFFER    FFFFFD38
CLI$_ONOVF     = 00038108            PRC_L_INDFAB     0000001C            WRK_AG_RESULT    FFFFFBB4
ON              - ON ERROR DCLS COMMAND EXECUTION                22-AUG-1978 01:21:51   VAX-11 MACRO X0.3-11               Page   7
SYMBOL TABLE                                                                                                                     (1)

WRK_B_VERBTYP    FFFFFFC0
WRK_K_LENGTH     FFFFFBB4
WRK_L_CHARPTR    FFFFFFFC
WRK_L_CMDOUT     FFFFFFBC
WRK_L_IMAGE      FFFFFFEC
WRK_L_MAXPARM    FFFFFFE4
WRK_L_MINPARM    FFFFFFE8
WRK_L_PARMCNT    FFFFFFF0
WRK_L_PAROUT     FFFFFFF4
WRK_L_PROMPT     FFFFFFD0
WRK_L_PROPTR     FFFFFFDC
WRK_L_QUABLK     FFFFFFE0
WRK_L_RSLNXT     FFFFFD34
WRK_L_SAVAP      FFFFFFC8
WRK_L_SAVFP      FFFFFFCC
WRK_L_SAVSP      FFFFFFC4
WRK_M_COMMAND  = 00000002
WRK_M_IMCHNG   = 00000004
WRK_M_INQUIRE  = 00000100
WRK_M_NOSTAT   = 00000200
WRK_M_PROMPT   = 00000008
WRK_M_QUAL     = 00000010
WRK_M_QUOTE    = 00000020
WRK_M_RUNDWN   = 00000001
WRK_M_STAR     = 00000040
WRK_M_TRAILSPC = 00000400
WRK_M_VERB     = 00000080
WRK_Q_IOSB       FFFFFFD4
WRK_V_COMMAND  = 00000001
WRK_V_IMCHNG   = 00000002
WRK_V_INQUIRE  = 00000008
WRK_V_NOSTAT   = 00000009
WRK_V_PROMPT   = 00000003
WRK_V_QUAL     = 00000004
WRK_V_QUOTE    = 00000005
WRK_V_RUNDWN   = 00000000
WRK_V_STAR     = 00000006
WRK_V_TRAILSPC = 0000000A
WRK_V_VERB     = 00000007
WRK_W_FLAGS      FFFFFFFA
WRK_W_IMGCHAN    FFFFFFF8
_$$_           = 0000003C


PROGRAM SECTION SYNOPSIS

.  ABS  .        00000000      00     NOPIC   USR   CON   ABS   LCL NOSHR NOEXE NORD  NOWRT BYTE
. BLANK .        00000000      01     NOPIC   USR   CON   REL   LCL NOSHR   EXE   RD    WRT BYTE
$ABS$            FFFFFFFC      02     NOPIC   USR   CON   ABS   LCL NOSHR   EXE   RD    WRT BYTE
DCL$ZCODE        00000100      03     NOPIC   USR   CON   REL   LCL NOSHR   EXE   RD  NOWRT BYTE


THERE WERE NO ERRORS OR WARNINGS.
19128. BYTES LEFT IN FREE MEMORY POOL.
986. BYTES OF RECLAIMED MEMORY.
EXE$:ON,LIS$:ON/-SP=EXECML$/ML,LIB$:DCL/ML,SRC$:ON
21 MLB DIR RDS - 354 GETS TO DEFINE 19 MACROS. 25 INTER. FILE WRITES.
