STATUS          - SET COMPLETION STATUS                          22-AUG-1978 01:13:02   VAX-11 MACRO X0.3-11               Page   0
TABLE OF CONTENTS

   (1)      41  SET COMPLETION STATUS
STATUS          - SET COMPLETION STATUS                          22-AUG-1978 01:13:02   VAX-11 MACRO X0.3-11               Page   1
01                                                                                                                               (1)

                                     0000     1 	.TITLE	STATUS - SET COMPLETION STATUS
                                     0000     2 	.IDENT	/01/
                                     0000     3
                                     0000     4 ;
                                     0000     5 ; COPYRIGHT (C) 1977
                                     0000     6 ; DIGITAL EQUIPMENT CORPORATION, MAYNARD, MASS.
                                     0000     7 ;
                                     0000     8 ; THIS SOFTWARE IS FURNISHED UNDER  A LICENSE FOR USE ONLY  ON  A
                                     0000     9 ; SINGLE COMPUTER SYSTEM AND MAY BE  COPIED ONLY WITH  THE INCLU-
                                     0000    10 ; SION OF  THE  ABOVE  COPYRIGHT NOTICE.  THIS SOFTWARE,  OR  ANY
                                     0000    11 ; OTHER COPIES THEREOF, MAY NOT BE  PROVIDED  OR  OTHERWISE  MADE
                                     0000    12 ; AVAILABLE TO ANY OTHER PERSON EXCEPT  FOR  USE  ON  SUCH SYSTEM
                                     0000    13 ; AND TO  ONE WHO AGREES  TO  THESE LICENSE  TERMS.  TITLE TO AND
                                     0000    14 ; OWNERSHIP OF THE SOFTWARE SHALL AT ALL TIMES REMAIN IN DEC.
                                     0000    15 ;
                                     0000    16 ; THE INFORMATION IN THIS SOFTWARE  IS  SUBJECT TO CHANGE WITHOUT
                                     0000    17 ; NOTICE AND SHOULD NOT BE CONSTRUED  AS  A COMMITMENT BY DIGITAL
                                     0000    18 ; EQUIPMENT CORPORATION.
                                     0000    19 ;
                                     0000    20 ; DEC ASSUMES NO RESPONSIBILITY FOR THE USE OR RELIABILITY OF ITS
                                     0000    21 ; SOFTWARE ON EQUIPMENT WHICH IS NOT SUPPLIED BY DEC.
                                     0000    22 ;
                                     0000    23 ; D. N. CUTLER 18-MAY-77
                                     0000    24 ;
                                     0000    25 ; SET COMPLETION STATUS
                                     0000    26 ;
                                     0000    27 ; MACRO LIBRARY CALLS
                                     0000    28 ;
                                     0000    29
                                     0000    30 	DEFCMDWRK			;DEFINE WORK AREA OFFSETS
                                     0000    31 	$PSLDEF				;DEFINE PROCESSOR STATUS REGISTER FIELDS
                                     0000    32
                                     0000    33 ;
                                     0000    34 ; LOCAL DATA
                                     0000    35 ;
                                     0000    36
                                 00000000    37 	.PSECT	DCL$ZCODE,BYTE,RD,NOWRT
                                     0000    38 DCL$T_DEFONTXT::			; DEFAULT ON TEXT
                  00 54 49 58 45 05  0000    39 EXIT:	.ASCII	<5>/EXIT/<0>		;
STATUS          - SET COMPLETION STATUS                          22-AUG-1978 01:13:02   VAX-11 MACRO X0.3-11               Page   2
01              SET COMPLETION STATUS                                                                                            (1)

                                     0006    41 	.SBTTL	SET COMPLETION STATUS
                                     0006    42 ;+
                                     0006    43 ; DCL$SET_STATUS - SET COMPLETION STATUS
                                     0006    44 ;
                                     0006    45 ; THIS ROUTINE IS CALLED TO SET THE COMPLETION STATUS OF A COMMAND. IT IS
                                     0006    46 ; CALLED FROM A POINT AT WHICH INDIRECT FILES AND ALL OTHER CONTEXT CAN BE
                                     0006    47 ; DESTROYED IF APPROPRIATE.
                                     0006    48 ;
                                     0006    49 ; INPUTS:
                                     0006    50 ;
                                     0006    51 ;	R0 = COMPLETION STATUS VALUE.
                                     0006    52 ;
                                     0006    53 ;	IT IS ASSUMED THAT "ON ERROR" CONDITIONS HAVE BEEN ESTABLISHED.
                                     0006    54 ;
                                     0006    55 ; OUTPUTS:
                                     0006    56 ;
                                     0006    57 ;	THE THREE COMPONENTS OF THE COMPLETION STATUS ARE CONVERTED TO ASCII
                                     0006    58 ;	AND EQUATED TO THEIR RESPECTIVE SYMBOL NAMES.
                                     0006    59 ;-
                                     0006    60
                                     0006    61 DCL$SET_STATUS::			;SET COMPLETION STATUS
            05            50     E9  0006    62 	BLBC	R0,5$			;BR IF ERROR STATUS OF SOME KIND
         FA AD            09     E0  0009    63 	BBS	#WRK_V_NOSTAT,WRK_W_FLAGS(FP),40$ ; BR IF NO STATUS COMMAND
                          76         000D
                                     000E    64 5$:	DISABLE				;DISABLE CONTROL Y/C AST'S
                          8E     7C  0011    65 	CLRQ	(SP)+			;REMOVE RETURN INFORMATION FROM STACK
                          50     DD  0013    66 	PUSHL	R0			;SAVE COMPLETION STATUS VALUE
                          0C     18  0015    67 	BGEQ	10$			;IF GEQ NOT COMMAND INTERPRETER STATUS
            50            50     CE  0017    68 	MNEGL	R0,R0			;NEGATE COMPLETION STATUS
            50       E000 8F     A8  001A    69 	BISW	#^X0E000,R0		;ADD CLI SUBSYSTEM SPECIFY DIVIDED BY 4
            50            04     C5  001F    70 	MULL3	#4,R0,(SP)		;CONVERT TO SCALED ERROR NUMBER
                          6E         0022
            03            00     EF  0023    71 10$:	EXTZV	#0,#3,(SP),R0		;EXTRACT SEVERITY LEVEL
            50            6E         0026
            50            30     C0  0028    72 	ADDL	#^A/0/,R0		;CONVERT SEVERITY LEVEL TO ASCII
            51         40 AB     D0  002B    73 	MOVL	PRC_L_SEVERITY(R11),R1	;GET ADDRESS OF SEVERITY LEVEL VALUE
            61            50     90  002F    74 	MOVB	R0,(R1)			;SET SEVERITY LEVEL VALUE
            71            01     90  0032    75 	MOVB	#1,-(R1)		;SET LENGTH OF SEVERITY LEVEL VALUE
            52         44 AB     D0  0035    76 	MOVL	PRC_L_STATUS(R11),R2	;GET ADDRESS OF STATUS VALUE VALUE
            50            6E     D0  0039    77 	MOVL	(SP),R0			;GET STATUS VALUE
         FF A2            0A     90  003C    78 	MOVB	#10,-1(R2)		;SET LENGTH OF STRING
            82       5825 8F     B0  0040    79 	MOVW	#^A/%X/,(R2)+		;SET RADIX CONTROL CHARACTERS
                          FFB8'  30  0045    80 	BSBW	DCL$CNVHXL		;CONVERT TO HEX LONGWORD
                          04     BA  0048    81 	POPR	#^M<R2>			;RETRIEVE FINAL STATUS
         54 AB            0B     E0  004A    82 	BBS	#PRC_V_YLEVEL,PRC_W_FLAGS(R11),40$ ;IF SET, CONTROL Y/C LEVEL
                          35         004E
       0094 CB            52     D0  004F    83 	MOVL	R2,PRC_L_LSTSTATUS(R11)	;SAVE LAST STATUS VALUE FOR PROCESS
            2D            52     E8  0054    84 	BLBS	R2,40$			;IF LBS SUCCESSFUL COMPLETION
            03            00     EF  0057    85 	EXTZV	#0,#3,R2,R0		;EXTRACT SEVERITY LEVEL
            50            52         005A
         56 AB            50     91  005C    86 	CMPB	R0,PRC_W_ONLEVEL(R11)	;FATAL ERROR?
                          22     19  0060    87 	BLSS	40$			;IF LSS NO
                                     0062    88 	FLUSH				;FLUSH COMMAND BUFFER
            50         58 AB     D0  0065    89 	MOVL	PRC_L_ONERROR(R11),R0	;GET ADDRESS OF ON COMMAND TEXT
                          04     12  0069    90 	BNEQ	30$			;IF NEQ COMMAND SPECIFIED
            50         92 AF     9E  006B    91 	MOVAB	EXIT,R0			;GET ADDRESS OF EXIT COMMAND TEXT
            51            80     9A  006F    92 30$:	MOVZBL	(R0)+,R1		;GET LENGTH OF ON COMMAND TEXT
STATUS          - SET COMPLETION STATUS                          22-AUG-1978 01:13:02   VAX-11 MACRO X0.3-11               Page   3
01              SET COMPLETION STATUS                                                                                            (1)

            60            51     28  0072    93 	MOVC	R1,(R0),WRK_AB_BUFFER+CMDBUFSIZ+4(FP) ;MOVE COMMAND TO INPUT BUFFER
                     FF38 CD         0075
                                 9E  0078    94 	MOVAB	WRK_AB_BUFFER+CMDBUFSIZ+3(FP),- ;SET INPUT BUFFER POINTER
         FC AD       FF37 CD         0079    95 		WRK_L_CHARPTR(FP)	;
                                     007E    96 	ONRESET				;RESET ON ERROR PARAMETERS
                          FF7C'  31  0081    97 	BRW	DCL$CMDSTART		;EXECUTE ON COMMAND
                                 05  0084    98 40$:	RSB				;
                                     0085    99
                                     0085   100 	.END
STATUS          - SET COMPLETION STATUS                          22-AUG-1978 01:13:02   VAX-11 MACRO X0.3-11               Page   4
SYMBOL TABLE                                                                                                                     (1)

BIT...         = 00000000            PRC_M_IND      = 00000020            PSL$V_IV       = 00000005
CMDBUFSIZ      = 000001FC            PRC_M_MODE     = 00000040            PSL$V_PRVMOD   = 00000016
DCL$CMDSTART     ********   X   03   PRC_M_NOCTLY   = 00004000            PSL$V_TBIT     = 00000004
DCL$CNVHXL       ********   X   03   PRC_M_PAUSE    = 00002000            PSL$V_TP       = 0000001E
DCL$DISABLE      ********   X   03   PRC_M_USRDET   = 00000100            RSLBUFSIZ      = 00000180
DCL$FLUSH        ********   X   03   PRC_M_VERIFY   = 00000080            WRK_AB_BUFFER    FFFFFD38
DCL$ONRESET      ********   X   03   PRC_M_YLEVEL   = 00000800            WRK_AG_RESULT    FFFFFBB4
DCL$SET_STATUS   00000006 RG    03   PRC_Q_ALLOCREG   00000020            WRK_B_VERBTYP    FFFFFFC0
DCL$T_DEFONTXT   00000000 RG    03   PRC_Q_GLOBAL     00000028            WRK_K_LENGTH     FFFFFBB4
EXIT             00000000 R     03   PRC_Q_LABEL      00000030            WRK_L_CHARPTR    FFFFFFFC
GBL...         = 00000000            PRC_Q_LOCAL      00000038            WRK_L_CMDOUT     FFFFFFBC
INPBUFSIZ      = 00000084            PRC_V_CNTRLY   = 00000001            WRK_L_IMAGE      FFFFFFEC
MSGBUFSIZ      = 00000084            PRC_V_DBGQUAL  = 00000009            WRK_L_MAXPARM    FFFFFFE4
PRC_B_DEFRADIX   00000092            PRC_V_DBGTRUE  = 0000000A            WRK_L_MINPARM    FFFFFFE8
PRC_B_EXMDEPMOD  00000091            PRC_V_DISABL   = 00000002            WRK_L_PARMCNT    FFFFFFF0
PRC_B_EXMDEPWID  00000090            PRC_V_EXIT     = 00000003            WRK_L_PAROUT     FFFFFFF4
PRC_K_DEC      = 00000001            PRC_V_GOEOF    = 00000000            WRK_L_PROMPT     FFFFFFD0
PRC_K_HEX      = 00000000            PRC_V_GOTO     = 00000004            WRK_L_PROPTR     FFFFFFDC
PRC_K_LENGTH     000000A0            PRC_V_HANGUP   = 0000000C            WRK_L_QUABLK     FFFFFFE0
PRC_K_OCT      = 00000002            PRC_V_IND      = 00000005            WRK_L_RSLNXT     FFFFFD34
PRC_L_CLIWRK0    0000005C            PRC_V_MODE     = 00000006            WRK_L_SAVAP      FFFFFFC8
PRC_L_CLIWRK1    00000060            PRC_V_NOCTLY   = 0000000E            WRK_L_SAVFP      FFFFFFCC
PRC_L_CLIWRK2    00000064            PRC_V_PAUSE    = 0000000D            WRK_L_SAVSP      FFFFFFC4
PRC_L_CLIWRK3    00000068            PRC_V_USRDET   = 00000008            WRK_M_COMMAND  = 00000002
PRC_L_CLIWRK4    0000006C            PRC_V_VERIFY   = 00000007            WRK_M_IMCHNG   = 00000004
PRC_L_ERRRAB     00000010            PRC_V_YLEVEL   = 0000000B            WRK_M_INQUIRE  = 00000100
PRC_L_EXMDEPADR  0000008C            PRC_W_CLIFLAG    00000052            WRK_M_NOSTAT   = 00000200
PRC_L_EXTARG     00000078            PRC_W_ERRIFI     00000052            WRK_M_PROMPT   = 00000008
PRC_L_EXTBLK     00000070            PRC_W_FLAGS      00000054            WRK_M_QUAL     = 00000010
PRC_L_EXTCOD     00000080            PRC_W_INPCHAN    00000050            WRK_M_QUOTE    = 00000020
PRC_L_EXTHND     00000074            PRC_W_ONLEVEL    00000056            WRK_M_RUNDWN   = 00000001
PRC_L_EXTPRM     0000007C            PSL$C_EXEC     = 00000001            WRK_M_STAR     = 00000040
PRC_L_INDEPTH    00000048            PSL$C_KERNEL   = 00000000            WRK_M_TRAILSPC = 00000400
PRC_L_INDFAB     0000001C            PSL$C_SUPER    = 00000002            WRK_M_VERB     = 00000080
PRC_L_INDINPRAB  00000014            PSL$C_USER     = 00000003            WRK_Q_IOSB       FFFFFFD4
PRC_L_INDOUTRAB  00000018            PSL$M_CM       = 80000000            WRK_V_COMMAND  = 00000001
PRC_L_INPRAB     00000008            PSL$M_CURMOD   = 03000000            WRK_V_IMCHNG   = 00000002
PRC_L_LSTSTATUS  00000094            PSL$M_DV       = 00000080            WRK_V_INQUIRE  = 00000008
PRC_L_ONCTLY     0000009C            PSL$M_FPD      = 08000000            WRK_V_NOSTAT   = 00000009
PRC_L_ONERROR    00000058            PSL$M_FU       = 00000040            WRK_V_PROMPT   = 00000003
PRC_L_OUTRAB     0000000C            PSL$M_IPL      = 001F0000            WRK_V_QUAL     = 00000004
PRC_L_PROCUIC    00000098            PSL$M_IS       = 04000000            WRK_V_QUOTE    = 00000005
PRC_L_SAVAP      00000000            PSL$M_IV       = 00000020            WRK_V_RUNDWN   = 00000000
PRC_L_SAVFP      00000004            PSL$M_PRVMOD   = 00C00000            WRK_V_STAR     = 00000006
PRC_L_SEVERITY   00000040            PSL$M_SAFBITS  = 000037FF            WRK_V_TRAILSPC = 0000000A
PRC_L_STACKLM    00000088            PSL$M_TBIT     = 00000010            WRK_V_VERB     = 00000007
PRC_L_STACKPT    00000084            PSL$M_TP       = 40000000            WRK_W_FLAGS      FFFFFFFA
PRC_L_STATUS     00000044            PSL$S_CURMOD   = 00000002            WRK_W_IMGCHAN    FFFFFFF8
PRC_L_SYMBOL     0000004C            PSL$S_IPL      = 00000005
PRC_M_CNTRLY   = 00000002            PSL$S_PRVMOD   = 00000002
PRC_M_DBGQUAL  = 00000200            PSL$V_CM       = 0000001F
PRC_M_DBGTRUE  = 00000400            PSL$V_CURMOD   = 00000018
PRC_M_DISABL   = 00000004            PSL$V_DV       = 00000007
PRC_M_EXIT     = 00000008            PSL$V_FPD      = 0000001B
PRC_M_GOEOF    = 00000001            PSL$V_FU       = 00000006
PRC_M_GOTO     = 00000010            PSL$V_IPL      = 00000010
PRC_M_HANGUP   = 00001000            PSL$V_IS       = 0000001A
STATUS          - SET COMPLETION STATUS                          22-AUG-1978 01:13:02   VAX-11 MACRO X0.3-11               Page   5
PROGRAM SECTION SYNOPSIS                                                                                                         (1)


PROGRAM SECTION SYNOPSIS

.  ABS  .        00000000      00     NOPIC   USR   CON   ABS   LCL NOSHR NOEXE NORD  NOWRT BYTE
. BLANK .        00000000      01     NOPIC   USR   CON   REL   LCL NOSHR   EXE   RD    WRT BYTE
$ABS$            FFFFFFFC      02     NOPIC   USR   CON   ABS   LCL NOSHR   EXE   RD    WRT BYTE
DCL$ZCODE        00000085      03     NOPIC   USR   CON   REL   LCL NOSHR   EXE   RD  NOWRT BYTE


THERE WERE NO ERRORS OR WARNINGS.
21572. BYTES LEFT IN FREE MEMORY POOL.
244. BYTES OF RECLAIMED MEMORY.
EXE$:STATUS,LIS$:STATUS/-SP=EXECML$/ML,LIB$:DCL/ML,SRC$:STATUS
25 MLB DIR RDS - 269 GETS TO DEFINE 16 MACROS. 18 INTER. FILE WRITES.
