IODONE          - POST REQUEST DONE TO USER                      21-AUG-1978 22:46:57   VAX-11 MACRO X0.3-11               Page   1
X0006                                                                                                                            (1)

                                     0000     1 	.TITLE	IODONE - POST REQUEST DONE TO USER
                                     0000     2 	.IDENT	"X0006"
                                     0000     3
                                     0000     4 ;
                                     0000     5 ; COPYRIGHT (C) 1976
                                     0000     6 ; DIGITAL EQUIPMENT CORPORATION, MAYNARD, MASSACHUSETTS 01754
                                     0000     7 ;
                                     0000     8 ; THIS SOFTWARE IS FURNISHED  UNDER A LICENSE FOR USE ONLY ON A SINGLE
                                     0000     9 ; COMPUTER  SYSTEM AND  MAY BE  COPIED ONLY WITH  THE INCLUSION OF THE
                                     0000    10 ; ABOVE COPYRIGHT NOTICE.  THIS SOFTWARE, OR ANY OTHER COPIES THEREOF,
                                     0000    11 ; MAY NOT BE PROVIDED OR  OTHERWISE MADE AVAILABLE TO ANY OTHER PERSON
                                     0000    12 ; EXCEPT FOR USE ON SUCH SYSTEM AND TO ONE WHO AGREES TO THESE LICENSE
                                     0000    13 ; TERMS.  TITLE TO AND  OWNERSHIP OF THE  SOFTWARE  SHALL AT ALL TIMES
                                     0000    14 ; REMAIN IN DEC.
                                     0000    15 ;
                                     0000    16 ; THE INFORMATION IN THIS SOFTWARE IS SUBJECT TO CHANGE WITHOUT NOTICE
                                     0000    17 ; AND SHOULD  NOT BE CONSTRUED  AS A COMMITMENT  BY DIGITAL  EQUIPMENT
                                     0000    18 ; CORPORATION.
                                     0000    19 ;
                                     0000    20 ; DEC ASSUMES  NO  RESPONSIBILITY  FOR  THE USE OR  RELIABILITY OF ITS
                                     0000    21 ; SOFTWARE ON EQUIPMENT WHICH IS NOT SUPPLIED BY DEC.
                                     0000    22
                                     0000    23 ;++
                                     0000    24 ;
                                     0000    25 ; FACILITY:  F11ACP STRUCTURE LEVEL 1
                                     0000    26 ;
                                     0000    27 ; ABSTRACT:
                                     0000    28 ;
                                     0000    29 ;	THIS ROUTINE POSTS I/O COMPLETION FOR THE INDICATED FCP REQUEST.
                                     0000    30 ;
                                     0000    31 ; ENVIRONMENT:
                                     0000    32 ;
                                     0000    33 ;	STARLET OPERATING SYSTEM, INCLUDING PRIVILEGED SYSTEM SERVICES
                                     0000    34 ;	AND INTERNAL EXEC ROUTINES. THIS ROUTINE MUST BE CALLED IN
                                     0000    35 ;	KERNEL MODE.
                                     0000    36 ;
                                     0000    37 ; AUTHOR:  ANDREW C. GOLDSTEIN, CREATION DATE:  20-DEC-1976  11:25
                                     0000    38 ;
                                     0000    39 ; MODIFIED BY:
                                     0000    40 ;
                                     0000    41 ;  , VERSION  ,
                                     0000    42 ; 01	-
                                     0000    43 ;--
                                     0000    44
                                     0000    45 ;
                                     0000    46 ; EQUATED SYMBOLS:
                                     0000    47 ;
                           00000004  0000    48 PACKET	=4				; ADDRESS OF I/O PACKET ARG
                                     0000    49
                                     0000    50 	$ABDDEF				; DEFINE BUFFER PACKET OFFSETS
                                     0000    51 	$FIBDEF				; DEFINE FIB OFFSETS
                                     0000    52 	$IRPDEF				; DEFINE I/O PACKET OFFSETS
                                     0000    53 	$UCBDEF				; DEFINE UCB OFFSETS
                                     0000    54 	$VCBDEF				; DEFINE VCB OFFSETS
                                     0000    55 	$IPLDEF				; DEFINE IPL SYMBOLS
                                     0000    56 	$PRDEF				; DEFINE PRIORITY LEVELS
                                     0000    57 	$IODEF				; DEFINE I/O FUNCTION CODES
IODONE          - POST REQUEST DONE TO USER                      21-AUG-1978 22:46:57   VAX-11 MACRO X0.3-11               Page   2
X0006                                                                                                                            (2)

                                     0000    59 ;++
                                     0000    60 ;
                                     0000    61 ; FUNCTIONAL DESCRIPTION:
                                     0000    62 ;
                                     0000    63 ;	THIS ROUTINE POSTS I/O COMPLETION FOR THE INDICATED FCP REQUEST.
                                     0000    64 ;
                                     0000    65 ; CALLING SEQUENCE:
                                     0000    66 ;	CALL	IODONE (ARG1)
                                     0000    67 ;
                                     0000    68 ; INPUT PARAMETERS:
                                     0000    69 ;	ARG1: ADDRESS OF I/O PACKET
                                     0000    70 ;
                                     0000    71 ; IMPLICIT INPUTS:
                                     0000    72 ;	USER_STATUS: STATUS OF I/O REQUEST
                                     0000    73 ;
                                     0000    74 ; OUTPUT PARAMETERS:
                                     0000    75 ;	NONE
                                     0000    76 ;
                                     0000    77 ; IMPLICIT OUTPUTS:
                                     0000    78 ;	IOC$GL_PSBL: TAIL OF I/O POST QUEUE
                                     0000    79 ;
                                     0000    80 ; ROUTINE VALUE:
                                     0000    81 ;	NONE
                                     0000    82 ;
                                     0000    83 ; SIDE EFFECTS:
                                     0000    84 ;	I/O PACKET PLACED ON I/O POST QUEUE
                                     0000    85 ;	VOLUME CHECKED FOR DISMOUNT
                                     0000    86 ;
                                     0000    87 ;--
                                     0000    88
                                 00000000    89 	.PSECT	$CODE$,NOWRT,LONG
                                     0000    90
                                     0000    91 IO_DONE::
                               00FC  0000    92 	.WORD	^M<R2,R3,R4,R5,R6,R7>	; SAVE REGISTERS
            56         04 AC     D0  0002    93 	MOVL	PACKET(AP),R6		; GET PACKET ADDRESS
         34 A6       0000'CF     7D  0006    94 	MOVQ	W^USER_STATUS,IRP$L_MEDIA(R6) ; SET STATUS IN PACKET
                          00     EF  000C    95 	EXTZV	#IRP$V_FCODE,#IRP$S_FCODE,-
         20 A6            06         000E    96 		IRP$W_FUNC(R6),R7	; GET FUNCTION CODE WITHOUT QUALIFIERS
                          57         0011
            0C            57     91  0012    97 	CMPB	R7,#IO$_READPBLK	; IF READ PHYSICAL
                          38     13  0015    98 	BEQL	10$
            0B            57     91  0017    99 	CMPB	R7,#IO$_WRITEPBLK	; OR WRITE DO SPECIAL PROCESSING
                          33     13  001A   100 	BEQL	10$
                                     001C   101 ;
                                     001C   102 ; POST PROCESSING FOR ALL ACP FUNCTIONS: BUMP DOWN THE VOLUME TRANSACTION
                                     001C   103 ; COUNT AND DO THE FIXUPS FOR THE BUFFER PACKET.
                                     001C   104 ;
            54       0000'CF     D0  001C   105 	MOVL	W^CURRENT_VCB,R4	; GET VCB ADDRESS
                       0C A4     B7  0021   106 	DECW	VCB$W_TRANS(R4)		; DEDUCT THIS REQ FROM TRANS COUNT
         2A A6            03     E1  0024   107 	BBC	#IRP$V_COMPLX,IRP$W_STS(R6),30$ ; BRANCH IF NO BUFFER PACKET
                          35         0028
            54         2C B6     D0  0029   108 	MOVL	@IRP$L_SVAPTE(R6),R4	; GET BUFFER DESCRIPTOR ADDRESS
                       12 A4     B4  002D   109 	CLRW	<ABD$C_NAME*ABD$C_LENGTH>+ABD$W_COUNT(R4)
                                     0030   110 					; INHIBIT WRITE-BACK OF NAME STRING
            52         08 A4     9E  0030   111 	MOVAB	<ABD$C_FIB*ABD$C_LENGTH>+ABD$W_TEXT(R4),R2
            53            62     3C  0034   112 	MOVZWL	(R2),R3			; GET OFFSET ADDRESS OF FIB IN PACKET
            52            53     C0  0037   113 	ADDL	R3,R2			; COMPUTE ABSOLUTE ADDRESS
IODONE          - POST REQUEST DONE TO USER                      21-AUG-1978 22:46:57   VAX-11 MACRO X0.3-11               Page   3
X0006                                                                                                                            (2)

       0000'CF            2C     2C  003A   114 	MOVC5	#FIB$C_LENGTH,W^LOCAL_FIB,#0,-
                                     003F
         0A A4            00         003F   115 		<ABD$C_FIB*ABD$C_LENGTH>+ABD$W_COUNT(R4),1(R2)
                       01 A2         0042
                                     0044   116 					; COPY LOCAL FIB BACK INTO PACKET
         2A A6            01     E2  0044   117 	BBSS	#IRP$V_FUNC,IRP$W_STS(R6),30$ ; IF READ BIT IS SET, KEEP
                          15         0048
         32 A6            05     B0  0049   118 	MOVW	#ABD$C_ATTRIB,IRP$W_BCNT(R6) ; ELSE DUMP ATTRIBUTE TEXT
                          0F     11  004D   119 	BRB	30$
                                     004F   120 ;
                                     004F   121 ; FOR READ/WRITE PHYSICAL, KNOCK DOWN THE VIRTUAL BIT IN THE PACKET. ONLY
                                     004F   122 ; ERRORS COME THROUGH HERE, AND WE DON'T WANT TO SEE THEM AGAIN (I/O POST
                                     004F   123 ; RECYCLES VIRTUAL I/O ERRORS FOR ACP ERROR PROCESSING). WE ALSO RESTORE
                                     004F   124 ; THE ORIGINAL SVAPTE AND BYTE COUNT FROM WHERE THEY WERE SAVED IN THE PACKET
                                     004F   125 ; SO THAT THE PAGES CAN BE UNLOCKED.
                                     004F   126 ;
         2A A6            04     E5  004F   127 10$:	BBCC	#IRP$V_VIRTUAL,IRP$W_STS(R6),20$ ; CLEAR THE VIRTUAL BIT
                          00         0053
         2C A6         44 A6     D0  0054   128 20$:	MOVL	IRP$L_DIAGBUF(R6),IRP$L_SVAPTE(R6) ; RESTORE ORIGINAL PAGE ADDRESS
         32 A6         3E A6     B0  0059   129 	MOVW	IRP$W_OBCNT(R6),IRP$W_BCNT(R6)	   ; AND BYTE COUNT FOR PAGE UNLOCK
                                     005E   130
                                     005E   131
   00000000'FF            66     0E  005E   132 30$:	INSQUE	(R6),@IOC$GL_PSBL	; INSERT PACKET INTO QUEUE
                          03     12  0065   133 	BNEQ	40$			; BRANCH IF QUEUE NOT EMPTY
                                     0067   134 	SOFTINT	#IPL$_IOPOST		; SIGNAL I/O POST INTERRUPT
       0000'CF            00     FB  006A   135 40$:	CALLS	#0,W^CHECK_DISMOUNT	; CHECK THE VOLUME FOR DISMOUNT
                                 04  006F   136 	RET
                                     0070   137
                                     0070   138
                                     0070   139
                                     0070   140 	.END
IODONE          - POST REQUEST DONE TO USER                      21-AUG-1978 22:46:57   VAX-11 MACRO X0.3-11               Page   4
SYMBOL TABLE                                                                                                                     (2)

ABD$C_ATTRIB   = 00000005            FIB$M_ALDEF    = 00000008            FIB$V_SPOOL    = 00000004
ABD$C_FIB      = 00000001            FIB$M_ALLNAM   = 00000020            FIB$V_SUPERSEDE= 0000000A
ABD$C_LENGTH     00000008            FIB$M_ALLTYP   = 00000010            FIB$V_TRUNC    = 00000008
ABD$C_NAME     = 00000002            FIB$M_ALLVER   = 00000008            FIB$V_UPDATE   = 00000006
ABD$C_RES      = 00000004            FIB$M_CURPOS   = 00000010            FIB$V_WILD     = 00000008
ABD$C_RESL     = 00000003            FIB$M_DLOCK    = 00000002            FIB$V_WRITE    = 00000008
ABD$C_WINDOW   = 00000000            FIB$M_EXACT    = 00000001            FIB$V_WRITECK  = 00000005
ABD$K_LENGTH     00000008            FIB$M_EXECUTE  = 00010000            FIB$W_ALLOC      00000022
ABD$L_USERVA     00000004            FIB$M_EXTEND   = 00000080            FIB$W_CNTRLFUNC  00000016
ABD$W_COUNT      00000002            FIB$M_FILCON   = 00000004            FIB$W_DID        0000000A
ABD$W_TEXT       00000000            FIB$M_FINDFID  = 00000800            FIB$W_DID_NUM    0000000A
AQB_TYPE       = 00000005            FIB$M_HIGHVER  = 00008000            FIB$W_DID_RVN    0000000E
BIT...         = 0000000A            FIB$M_LOWVER   = 00004000            FIB$W_DID_SEQ    0000000C
BITMAP_TYPE    = 00000001            FIB$M_MARKBAD  = 00000400            FIB$W_EXCTL      00000016
CHECK_DISMOUNT   ********   X   03   FIB$M_NEWVER   = 00000200            FIB$W_FID        00000004
CURRENT_VCB      ********   X   03   FIB$M_NOHDREXT = 00000200            FIB$W_FID_NUM    00000004
DIRECTORY_TYPE = 00000002            FIB$M_NOREAD   = 00000400            FIB$W_FID_RVN    00000008
FCB_TYPE       = 00000000            FIB$M_NOTRUNC  = 00000800            FIB$W_FID_SEQ    00000006
FIB$B_ALALIGN    00000021            FIB$M_NOWRITE  = 00000001            FIB$W_LOC_FID    00000022
FIB$B_ALOPTS     00000020            FIB$M_ONCYL    = 00000002            FIB$W_LOC_NUM    00000022
FIB$B_DID_NMX    0000000F            FIB$M_PRSRV_ATR= 00020000            FIB$W_LOC_RVN    00000026
FIB$B_DID_RVN    0000000E            FIB$M_READCK   = 00000200            FIB$W_LOC_SEQ    00000024
FIB$B_FID_NMX    00000009            FIB$M_REWIND   = 00000008            FIB$W_NMCTL      00000014
FIB$B_FID_RVN    00000008            FIB$M_SEQONLY  = 00000040            GBL...         = 00000000
FIB$B_LOC_NMX    00000027            FIB$M_SPOOL    = 00000010            HEADER_TYPE    = 00000000
FIB$B_LOC_RVN    00000026            FIB$M_SUPERSEDE= 00000400            INDEX_TYPE     = 00000003
FIB$B_WSIZE      00000003            FIB$M_TRUNC    = 00000100            IO$M_ABORT     = 00000100
FIB$C_ACCDATA    0000000A            FIB$M_UPDATE   = 00000040            IO$M_ACCESS    = 00000040
FIB$C_ALCDATA    0000002C            FIB$M_WILD     = 00000100            IO$M_ATTNAST   = 00000100
FIB$C_CYL      = 00000001            FIB$M_WRITE    = 00000100            IO$M_BINARY    = 00000040
FIB$C_DIRDATA    00000016            FIB$M_WRITECK  = 00000020            IO$M_CANCTRLO  = 00000040
FIB$C_EXTDATA    00000020            FIB$V_ALCON    = 00000000            IO$M_COMMOD    = 00000040
FIB$C_ILLEGAL  = 00000005            FIB$V_ALCONB   = 00000001            IO$M_CREATE    = 00000080
FIB$C_LBN      = 00000002            FIB$V_ALDEF    = 00000003            IO$M_CTRLCAST  = 00000100
FIB$C_LENGTH     0000002C            FIB$V_ALLNAM   = 00000005            IO$M_CTRLYAST  = 00000080
FIB$C_MTALEN     0000001C            FIB$V_ALLTYP   = 00000004            IO$M_CVTLOW    = 00000100
FIB$C_NEXTVOL  = 00000003            FIB$V_ALLVER   = 00000003            IO$M_DATACHECK = 00004000
FIB$C_POSEND   = 00000002            FIB$V_CURPOS   = 00000004            IO$M_DELETE    = 00000100
FIB$C_REWINDFIL= 00000006            FIB$V_DLOCK    = 00000001            IO$M_DMOUNT    = 00000400
FIB$C_REWINDVOL= 00000001            FIB$V_EXACT    = 00000000            IO$M_DSABLMBX  = 00000400
FIB$C_RFI      = 00000004            FIB$V_EXECUTE  = 00000010            IO$M_ENABLMBX  = 00000080
FIB$C_SPACE    = 00000004            FIB$V_EXTEND   = 00000007            IO$M_FCODE     = 0000003F
FIB$C_VBN      = 00000003            FIB$V_FILCON   = 00000002            IO$M_HANGUP    = 00000200
FIB$K_ACCDATA    0000000A            FIB$V_FINDFID  = 0000000B            IO$M_INHERLOG  = 00000800
FIB$K_ALCDATA    0000002C            FIB$V_HIGHVER  = 0000000F            IO$M_INHEXTGAP = 00001000
FIB$K_DIRDATA    00000016            FIB$V_LOWVER   = 0000000E            IO$M_INHRETRY  = 00008000
FIB$K_EXTDATA    00000020            FIB$V_MARKBAD  = 0000000A            IO$M_INHSEEK   = 00001000
FIB$K_LENGTH     0000002C            FIB$V_NEWVER   = 00000009            IO$M_INTERRUPT = 00000040
FIB$K_MTALEN     0000001C            FIB$V_NOHDREXT = 00000009            IO$M_INTSKIP   = 00000100
FIB$L_ACCTL      00000000            FIB$V_NOREAD   = 0000000A            IO$M_MOUNT     = 00000200
FIB$L_CNTRLVAL   00000018            FIB$V_NOTRUNC  = 0000000B            IO$M_NOECHO    = 00000040
FIB$L_EXSZ       00000018            FIB$V_NOWRITE  = 00000000            IO$M_NOFILTR   = 00000200
FIB$L_EXVBN      0000001C            FIB$V_ONCYL    = 00000001            IO$M_NOFORMAT  = 00000100
FIB$L_LOC_ADDR   00000028            FIB$V_PRSRV_ATR= 00000011            IO$M_NOW       = 00000040
FIB$L_WCC        00000010            FIB$V_READCK   = 00000009            IO$M_NOWAIT    = 00000080
FIB$M_ALCON    = 00000001            FIB$V_REWIND   = 00000003            IO$M_PACKED    = 00000080
FIB$M_ALCONB   = 00000002            FIB$V_SEQONLY  = 00000006            IO$M_PURGE     = 00000800
IODONE          - POST REQUEST DONE TO USER                      21-AUG-1978 22:46:57   VAX-11 MACRO X0.3-11               Page   5
SYMBOL TABLE                                                                                                                     (2)

IO$M_READATTN  = 00000080            IO$_MODIFY     = 00000036            IRP$K_LENGTH     0000004C
IO$M_REVERSE   = 00000040            IO$_MOUNT      = 00000039            IRP$L_AST        00000010
IO$M_SHUTDOWN  = 00000080            IO$_NOP        = 00000000            IRP$L_ASTPRM     00000014
IO$M_STARTUP   = 00000040            IO$_OFFSET     = 00000006            IRP$L_DIAGBUF    00000044
IO$M_SYNCH     = 00000200            IO$_PACKACK    = 00000008            IRP$L_IOQBL      00000004
IO$M_TIMED     = 00000080            IO$_PHYSICAL   = 0000001F            IRP$L_IOQFL      00000000
IO$M_TRMNOECHO = 00001000            IO$_READHEAD   = 0000000E            IRP$L_IOSB       00000024
IO$M_WRTATTN   = 00000100            IO$_READLBLK   = 00000021            IRP$L_IOST1      00000034
IO$S_FCODE     = 00000006            IO$_READPBLK   = 0000000C            IRP$L_IOST2      00000038
IO$V_ABORT     = 00000008            IO$_READPRESET = 00000019            IRP$L_MEDIA      00000034
IO$V_ACCESS    = 00000006            IO$_READPROMPT = 00000037            IRP$L_PID        0000000C
IO$V_ATTNAST   = 00000008            IO$_READTRACKD = 00000010            IRP$L_SEGVBN     00000040
IO$V_BINARY    = 00000006            IO$_READVBLK   = 00000031            IRP$L_SEQNUM     00000048
IO$V_CANCTRLO  = 00000006            IO$_RECAL      = 00000003            IRP$L_SVAPTE     0000002C
IO$V_COMMOD    = 00000006            IO$_RELEASE    = 00000005            IRP$L_TT_TERM    00000038
IO$V_CREATE    = 00000007            IO$_RETCENTER  = 00000007            IRP$L_UCB        0000001C
IO$V_CTRLCAST  = 00000008            IO$_REWIND     = 00000024            IRP$L_WIND       00000018
IO$V_CTRLYAST  = 00000007            IO$_REWINDOFF  = 00000022            IRP$M_BUFIO    = 00000001
IO$V_CVTLOW    = 00000008            IO$_SEARCH     = 00000009            IRP$M_CHAINED  = 00000020
IO$V_DATACHECK = 0000000E            IO$_SEEK       = 00000002            IRP$M_COMPLX   = 00000008
IO$V_DELETE    = 00000008            IO$_SENSECHAR  = 0000001B            IRP$M_DIAGBUF  = 00000080
IO$V_DMOUNT    = 0000000A            IO$_SENSEMODE  = 00000027            IRP$M_FUNC     = 00000002
IO$V_DSABLMBX  = 0000000A            IO$_SETCHAR    = 0000001A            IRP$M_MBXIO    = 00000400
IO$V_ENABLMBX  = 00000007            IO$_SETMODE    = 00000023            IRP$M_PAGIO    = 00000004
IO$V_FCODE     = 00000000            IO$_SKIPFILE   = 00000025            IRP$M_PHYSIO   = 00000100
IO$V_HANGUP    = 00000009            IO$_SKIPRECORD = 00000026            IRP$M_PRIVIO   = 00000200
IO$V_INHERLOG  = 0000000B            IO$_SPACEFILE  = 00000002            IRP$M_SWAPIO   = 00000040
IO$V_INHEXTGAP = 0000000C            IO$_SPACERECORD= 00000009            IRP$M_VIRTUAL  = 00000010
IO$V_INHRETRY  = 0000000F            IO$_STARTSPNDL = 00000019            IRP$Q_NT_PRVMSK  0000003C
IO$V_INHSEEK   = 0000000C            IO$_UNLOAD     = 00000001            IRP$S_FCODE    = 00000006
IO$V_INTERRUPT = 00000006            IO$_VIRTUAL    = 0000003F            IRP$S_FMOD     = 0000000A
IO$V_INTSKIP   = 00000008            IO$_WRITECHECK = 0000000A            IRP$S_MODE     = 00000002
IO$V_MOUNT     = 00000009            IO$_WRITECHECKH= 00000018            IRP$V_BUFIO    = 00000000
IO$V_NOECHO    = 00000006            IO$_WRITEHEAD  = 0000000D            IRP$V_CHAINED  = 00000005
IO$V_NOFILTR   = 00000009            IO$_WRITELBLK  = 00000020            IRP$V_COMPLX   = 00000003
IO$V_NOFORMAT  = 00000008            IO$_WRITEMARK  = 0000001C            IRP$V_DIAGBUF  = 00000007
IO$V_NOW       = 00000006            IO$_WRITEOF    = 00000028            IRP$V_FCODE    = 00000000
IO$V_NOWAIT    = 00000007            IO$_WRITEPBLK  = 0000000B            IRP$V_FMOD     = 00000006
IO$V_PACKED    = 00000007            IO$_WRITETRACKD= 0000000F            IRP$V_FUNC     = 00000001
IO$V_PURGE     = 0000000B            IO$_WRITEVBLK  = 00000030            IRP$V_MBXIO    = 0000000A
IO$V_READATTN  = 00000007            IOC$GL_PSBL      ********   X   03   IRP$V_MODE     = 00000000
IO$V_REVERSE   = 00000006            IO_DONE          00000000 RG    03   IRP$V_PAGIO    = 00000002
IO$V_SHUTDOWN  = 00000007            IPL$_ASTDEL    = 00000002            IRP$V_PHYSIO   = 00000008
IO$V_STARTUP   = 00000006            IPL$_HWCLK     = 00000018            IRP$V_PRIVIO   = 00000009
IO$V_SYNCH     = 00000009            IPL$_IOPOST    = 00000004            IRP$V_SWAPIO   = 00000006
IO$V_TIMED     = 00000007            IPL$_MAILBOX   = 0000000B            IRP$V_VIRTUAL  = 00000004
IO$V_TRMNOECHO = 0000000C            IPL$_POWER     = 0000001F            IRP$W_ABCNT      0000003C
IO$V_WRTATTN   = 00000008            IPL$_QUEUEAST  = 00000006            IRP$W_BCNT       00000032
IO$_ACCESS     = 00000032            IPL$_SCHED     = 00000003            IRP$W_BOFF       00000030
IO$_ACPCONTROL = 00000038            IPL$_SYNCH     = 00000007            IRP$W_CHAN       00000028
IO$_CREATE     = 00000033            IPL$_TIMER     = 00000007            IRP$W_FUNC       00000020
IO$_DEACCESS   = 00000034            IRP$B_CARCON     00000038            IRP$W_OBCNT      0000003E
IO$_DELETE     = 00000035            IRP$B_EFN        00000022            IRP$W_SIZE       00000008
IO$_DIAGNOSE   = 0000001D            IRP$B_PRI        00000023            IRP$W_STS        0000002A
IO$_DRVCLR     = 00000004            IRP$B_RMOD       0000000B            IRP$W_TT_PRMPT   0000003C
IO$_ERASETAPE  = 00000006            IRP$B_TYPE       0000000A            LOCAL_FIB        ********   X   03
IO$_LOGICAL    = 0000002F            IRP$C_LENGTH     0000004C            MVL_TYPE       = 00000004
IODONE          - POST REQUEST DONE TO USER                      21-AUG-1978 22:46:57   VAX-11 MACRO X0.3-11               Page   6
SYMBOL TABLE                                                                                                                     (2)

PACKET         = 00000004            UCB$B_OFFNDX     00000094            UCB$M_DX_WRITE = 00000008
PR$_ACCR       = 00000029            UCB$B_OFFRTC     00000095            UCB$M_ECC      = 00000001
PR$_ACCS       = 00000028            UCB$B_REMSRV     0000003D            UCB$M_ERLOGIP  = 00000004
PR$_ASTLVL     = 00000013            UCB$B_SECTORS    0000003C            UCB$M_INT      = 00000002
PR$_ESP        = 00000001            UCB$B_SLAVE      00000074            UCB$M_INTTYPE  = 00000080
PR$_ICCS       = 00000018            UCB$B_SPR        00000075            UCB$M_JOB      = 00000001
PR$_ICR        = 0000001A            UCB$B_STATE      00000052            UCB$M_MOUNTING = 00000200
PR$_IPL        = 00000012            UCB$B_TRACKS     0000003D            UCB$M_NOCNVRT  = 00000004
PR$_ISP        = 00000004            UCB$B_TYPE       0000000A            UCB$M_NT_BFROVF= 00000004
PR$_KSP        = 00000000            UCB$B_VERTSZ     0000003F            UCB$M_NT_BREAK = 00000020
PR$_MAPEN      = 00000038            UCB$C_LENGTH     00000074            UCB$M_NT_NAME  = 00000010
PR$_NICR       = 00000019            UCB$C_LOGLNK   = 00000001            UCB$M_ONLINE   = 00000010
PR$_P0BR       = 00000008            UCB$K_LENGTH     00000074            UCB$M_POWER    = 00000020
PR$_P0LR       = 00000009            UCB$L_AMB        00000054            UCB$M_PRMMBX   = 00000001
PR$_P1BR       = 0000000A            UCB$L_ASTQBL     00000010            UCB$M_TIM      = 00000001
PR$_P1LR       = 0000000B            UCB$L_ASTQFL     0000000C            UCB$M_TIMOUT   = 00000040
PR$_PCBB       = 00000010            UCB$L_CPID       0000005C            UCB$M_TT_NOTIF = 00000004
PR$_PME        = 0000003D            UCB$L_CRB        00000020            UCB$M_TT_TIMO  = 00000002
PR$_RXCS       = 00000020            UCB$L_DDB        00000024            UCB$M_UNLOAD   = 00001000
PR$_RXDB       = 00000021            UCB$L_DEVCHAR    00000034            UCB$M_VALID    = 00000800
PR$_SBIER      = 00000034            UCB$L_DEVDEPEND  0000003C            UCB$S_LNKPRI   = 00000002
PR$_SBIFS      = 00000030            UCB$L_DPC        00000080            UCB$S_LTYPE    = 00000002
PR$_SBIMT      = 00000033            UCB$L_DUETIM     0000005C            UCB$T_PARTNER    0000000C
PR$_SBIQC      = 00000036            UCB$L_DX_BFPNT   0000009C            UCB$V_BACKP    = 00000005
PR$_SBIS       = 00000031            UCB$L_DX_BUF     00000098            UCB$V_BSY      = 00000008
PR$_SBISC      = 00000032            UCB$L_DX_RXDB    000000A0            UCB$V_CANCEL   = 00000003
PR$_SBITA      = 00000035            UCB$L_EMB        00000078            UCB$V_DEADMO   = 0000000A
PR$_SBR        = 0000000C            UCB$L_FIRST      00000014            UCB$V_DELMBX   = 00000001
PR$_SCBB       = 00000011            UCB$L_FPC        0000000C            UCB$V_DIAGBUF  = 00000001
PR$_SID        = 0000003E            UCB$L_FQBL       00000004            UCB$V_DX_WRITE = 00000003
PR$_SIRR       = 00000014            UCB$L_FQFL       00000000            UCB$V_ECC      = 00000000
PR$_SISR       = 00000015            UCB$L_FR3        00000010            UCB$V_ERLOGIP  = 00000002
PR$_SLR        = 0000000D            UCB$L_FR4        00000014            UCB$V_INT      = 00000001
PR$_SSP        = 00000002            UCB$L_IOQBL      00000044            UCB$V_INTTYPE  = 00000007
PR$_TBIA       = 00000039            UCB$L_IOQFL      00000040            UCB$V_JOB      = 00000000
PR$_TBIS       = 0000003A            UCB$L_IRP        0000004C            UCB$V_LNKPRI   = 00000006
PR$_TODR       = 0000001B            UCB$L_LINK       0000002C            UCB$V_LTYPE    = 00000000
PR$_TXCS       = 00000022            UCB$L_LOGADR     00000064            UCB$V_MOUNTING = 00000009
PR$_TXDB       = 00000023            UCB$L_MAXBLOCK   00000084            UCB$V_MSGACK   = 00000004
PR$_USP        = 00000003            UCB$L_MEDIA      0000008C            UCB$V_MSGFLO   = 00000003
PR$_WCSA       = 0000002C            UCB$L_NT_DATSSB  00000074            UCB$V_NOCNVRT  = 00000002
PR$_WCSD       = 0000002D            UCB$L_NT_INTSSB  00000078            UCB$V_NT_BFROVF= 00000002
RVT_TYPE       = 00000003            UCB$L_OPCNT      00000060            UCB$V_NT_BREAK = 00000005
UCB$B_AMOD       00000053            UCB$L_OWNUIC     0000001C            UCB$V_NT_NAME  = 00000004
UCB$B_CEX        00000077            UCB$L_PID        00000028            UCB$V_ONLINE   = 00000004
UCB$B_CM1        0000004A            UCB$L_RQBL       00000004            UCB$V_POWER    = 00000005
UCB$B_CM2        0000004B            UCB$L_RQFL       00000000            UCB$V_PRMMBX   = 00000000
UCB$B_DEVCLASS   00000038            UCB$L_SVAPTE     00000068            UCB$V_SEGFLO   = 00000002
UCB$B_DEVTYPE    00000039            UCB$L_SVPN       00000064            UCB$V_TIM      = 00000000
UCB$B_DIPL       00000052            UCB$L_TTCHAR     0000003C            UCB$V_TIMOUT   = 00000006
UCB$B_DX_SCTCNT  000000A6            UCB$L_VCB        00000030            UCB$V_TT_NOTIF = 00000002
UCB$B_ERTCNT     00000070            UCB$M_BACKP    = 00000020            UCB$V_TT_TIMO  = 00000001
UCB$B_ERTMAX     00000071            UCB$M_BSY      = 00000100            UCB$V_UNLOAD   = 0000000C
UCB$B_ESCAPE     0000004B            UCB$M_CANCEL   = 00000008            UCB$V_VALID    = 0000000B
UCB$B_FEX        00000076            UCB$M_DEADMO   = 00000400            UCB$W_BCNT       0000006E
UCB$B_FIPL       0000000B            UCB$M_DELMBX   = 00000002            UCB$W_BCR        00000096
UCB$B_LOCSRV     0000003C            UCB$M_DIAGBUF  = 00000002            UCB$W_BOFF       0000006C
IODONE          - POST REQUEST DONE TO USER                      21-AUG-1978 22:46:57   VAX-11 MACRO X0.3-11               Page   7
SYMBOL TABLE                                                                                                                     (2)

UCB$W_BUFQUO     00000018            VCB$L_MAXFILES   00000044
UCB$W_BYTESTOGO  0000003E            VCB$L_MVL        00000034
UCB$W_CHARGE     0000004A            VCB$L_RVT        00000020
UCB$W_CYLINDERS  0000003E            VCB$L_SBMAPLBN   00000034
UCB$W_DA         0000008C            VCB$L_START_FID  00000028
UCB$W_DC         0000008E            VCB$L_ST_RECORD  00000030
UCB$W_DEVBUFSIZ  0000003A            VCB$L_USRLBLAST  00000044
UCB$W_DEVSTS     0000005A            VCB$L_VPBL       00000040
UCB$W_DIRSEQ     00000088            VCB$L_VPFL       0000003C
UCB$W_DSTADDR    00000018            VCB$L_WCB        00000038
UCB$W_DX_BCR     000000A4            VCB$M_CANCELIO = 00000020
UCB$W_EC1        00000090            VCB$M_MUSTCLOSE= 00000040
UCB$W_EC2        00000092            VCB$M_NOWRITE  = 00000080
UCB$W_ERRCNT     00000072            VCB$M_WAIMOUVOL= 00000004
UCB$W_FUNC       0000007E            VCB$M_WAIREWIND= 00000008
UCB$W_MB_SEED    FFFFFFFC            VCB$M_WAIUSRLBL= 00000010
UCB$W_MSGCNT     00000016            VCB$T_QNAME      0000000C
UCB$W_MSGMAX     00000014            VCB$T_VOLNAME    00000014
UCB$W_NT_CHAN    0000007C            VCB$V_CANCELIO = 00000005
UCB$W_OFFSET     0000008A            VCB$V_EBCDIC   = 00000005
UCB$W_REFC       00000050            VCB$V_EXTFID   = 00000005
UCB$W_SIZE       00000008            VCB$V_GROUP    = 00000006
UCB$W_SRCADDR    0000001A            VCB$V_HOMBLKBAD= 00000002
UCB$W_STS        00000058            VCB$V_IDXHDRBAD= 00000003
UCB$W_UNIT       00000048            VCB$V_INTCHG   = 00000004
UCB$W_VPROT      0000001A            VCB$V_LOGICEOVS= 00000001
USER_STATUS      ********   X   03   VCB$V_MUSTCLOSE= 00000006
VCB$B_CUR_RVN    0000002F            VCB$V_NOALLOC  = 00000004
VCB$B_EOFDELTA   0000004E            VCB$V_NOWRITE  = 00000007
VCB$B_IBMAPSIZE  00000038            VCB$V_OVRACC   = 00000001
VCB$B_IBMAPVBN   0000003A            VCB$V_OVREXP   = 00000000
VCB$B_LRU_LIM    00000049            VCB$V_OVRLBL   = 00000002
VCB$B_QNAMECNT   0000000B            VCB$V_OVRSETID = 00000003
VCB$B_RESFILES   0000004F            VCB$V_PARTFILE = 00000000
VCB$B_SBMAPSIZE  00000039            VCB$V_STARFILE = 00000008
VCB$B_SBMAPVBN   0000003B            VCB$V_SYSTEM   = 00000007
VCB$B_STATUS     0000000B            VCB$V_WAIMOUVOL= 00000002
VCB$B_TM         0000002E            VCB$V_WAIREWIND= 00000003
VCB$B_TYPE       0000000A            VCB$V_WAIUSRLBL= 00000004
VCB$B_WINDOW     00000048            VCB$V_WRITE_IF = 00000000
VCB$C_COMLEN     00000024            VCB$V_WRITE_SM = 00000001
VCB$C_LENGTH     00000054            VCB$W_CLUSTER    0000003C
VCB$C_MRKLEN     0000000B            VCB$W_CUR_NUM    00000024
VCB$K_COMLEN     00000024            VCB$W_CUR_SEQ    00000026
VCB$K_LENGTH     00000054            VCB$W_EXTEND     0000003E
VCB$K_MRKLEN     0000000B            VCB$W_FILEPROT   0000004A
VCB$L_AQB        00000010            VCB$W_MCOUNT     0000004C
VCB$L_BLOCKBL    00000004            VCB$W_MODE       0000002C
VCB$L_BLOCKFL    00000000            VCB$W_RECORDSZ   00000050
VCB$L_CUR_FID    00000024            VCB$W_RVN        0000000E
VCB$L_FCBBL      00000004            VCB$W_SIZE       00000008
VCB$L_FCBFL      00000000            VCB$W_START_NUM  00000028
VCB$L_FREE       00000040            VCB$W_START_SEQ  0000002A
VCB$L_HOME2LBN   00000028            VCB$W_TRANS      0000000C
VCB$L_HOMELBN    00000024            VCB_TYPE       = 00000002
VCB$L_IBMAPLBN   00000030            WCB_TYPE       = 00000001
VCB$L_IXHDR2LBN  0000002C
IODONE          - POST REQUEST DONE TO USER                      21-AUG-1978 22:46:57   VAX-11 MACRO X0.3-11               Page   8
PROGRAM SECTION SYNOPSIS                                                                                                         (2)


PROGRAM SECTION SYNOPSIS

.  ABS  .        00000000      00     NOPIC   USR   CON   ABS   LCL NOSHR NOEXE NORD  NOWRT BYTE
. BLANK .        00000000      01     NOPIC   USR   CON   REL   LCL NOSHR   EXE   RD    WRT BYTE
$ABS$            FFFFFFFE      02     NOPIC   USR   CON   ABS   LCL NOSHR   EXE   RD    WRT BYTE
$CODE$           00000070      03     NOPIC   USR   CON   REL   LCL NOSHR   EXE   RD  NOWRT LONG


THERE WERE NO ERRORS OR WARNINGS.
8624. BYTES LEFT IN FREE MEMORY POOL.
3782. BYTES OF RECLAIMED MEMORY.
OBJ$:IODONE,LIS$:IODONE/-SP=EXECML$/ML,SRC$:FCPDEF,IODONE
8 MLB DIR RDS - 911 GETS TO DEFINE 18 MACROS. 72 INTER. FILE WRITES.
