PMSDAT          - DUMMY MEASUREMENT DATA BASE                    21-AUG-1978 22:47:58   VAX-11 MACRO X0.3-11               Page   1
X0001                                                                                                                            (1)

                                     0000     1 	.TITLE	PMSDAT - DUMMY MEASUREMENT DATA BASE
                                     0000     2 	.IDENT	"X0001"
                                     0000     3
                                     0000     4 ;
                                     0000     5 ; COPYRIGHT (C) 1976
                                     0000     6 ; DIGITAL EQUIPMENT CORPORATION, MAYNARD, MASSACHUSETTS 01754
                                     0000     7 ;
                                     0000     8 ; THIS SOFTWARE IS FURNISHED  UNDER A LICENSE FOR USE ONLY ON A SINGLE
                                     0000     9 ; COMPUTER  SYSTEM AND  MAY BE  COPIED ONLY WITH  THE INCLUSION OF THE
                                     0000    10 ; ABOVE COPYRIGHT NOTICE.  THIS SOFTWARE, OR ANY OTHER COPIES THEREOF,
                                     0000    11 ; MAY NOT BE PROVIDED OR  OTHERWISE MADE AVAILABLE TO ANY OTHER PERSON
                                     0000    12 ; EXCEPT FOR USE ON SUCH SYSTEM AND TO ONE WHO AGREES TO THESE LICENSE
                                     0000    13 ; TERMS.  TITLE TO AND  OWNERSHIP OF THE  SOFTWARE  SHALL AT ALL TIMES
                                     0000    14 ; REMAIN IN DEC.
                                     0000    15 ;
                                     0000    16 ; THE INFORMATION IN THIS SOFTWARE IS SUBJECT TO CHANGE WITHOUT NOTICE
                                     0000    17 ; AND SHOULD  NOT BE CONSTRUED  AS A COMMITMENT  BY DIGITAL  EQUIPMENT
                                     0000    18 ; CORPORATION.
                                     0000    19 ;
                                     0000    20 ; DEC ASSUMES  NO  RESPONSIBILITY  FOR  THE USE OR  RELIABILITY OF ITS
                                     0000    21 ; SOFTWARE ON EQUIPMENT WHICH IS NOT SUPPLIED BY DEC.
                                     0000    22
                                     0000    23 ;++
                                     0000    24 ;
                                     0000    25 ; FACILITY:  F11ACP STRUCTURE LEVEL 1
                                     0000    26 ;
                                     0000    27 ; ABSTRACT:
                                     0000    28 ;
                                     0000    29 ;	THIS IS A DUMMY PERFORMANCE MEASUREMENT DATA BASE UNTIL WE GET THE
                                     0000    30 ;	REAL ONE INTO THE SYSTEM.
                                     0000    31 ;
                                     0000    32 ; ENVIRONMENT:
                                     0000    33 ;
                                     0000    34 ;	STARLET OPERATING SYSTEM, INCLUDING PRIVILEGED SYSTEM SERVICES
                                     0000    35 ;	AND INTERNAL EXEC ROUTINE.
                                     0000    36 ;
                                     0000    37 ; AUTHOR:  ANDREW C. GOLDSTEIN, CREATION DATE:  29-APR-1977  15:31
                                     0000    38 ;
                                     0000    39 ; MODIFIED BY:
                                     0000    40 ;
                                     0000    41 ;  , VERSION  ,
                                     0000    42 ; 01	-
                                     0000    43 ;--
                                     0000    44
                                     0000    45
                                 00000000    46 	.PSECT	$LOCKEDD1$,NOEXE,LONG
                                     0000    47
                                     0000    48 PMS$GL_FCP::
                           00000118  0000    49 	.BLKL	10*7
                                     0118    50
                                     0118    51
                                     0118    52
                                     0118    53 	.END
PMSDAT          - DUMMY MEASUREMENT DATA BASE                    21-AUG-1978 22:47:58   VAX-11 MACRO X0.3-11               Page   2
SYMBOL TABLE                                                                                                                     (1)

AQB_TYPE       = 00000005
BITMAP_TYPE    = 00000001
DIRECTORY_TYPE = 00000002
FCB_TYPE       = 00000000
HEADER_TYPE    = 00000000
INDEX_TYPE     = 00000003
MVL_TYPE       = 00000004
PMS$GL_FCP       00000000 RG    02
RVT_TYPE       = 00000003
VCB_TYPE       = 00000002
WCB_TYPE       = 00000001


PROGRAM SECTION SYNOPSIS

.  ABS  .        00000000      00     NOPIC   USR   CON   ABS   LCL NOSHR NOEXE NORD  NOWRT BYTE
. BLANK .        00000000      01     NOPIC   USR   CON   REL   LCL NOSHR   EXE   RD    WRT BYTE
$LOCKEDD1$       00000118      02     NOPIC   USR   CON   REL   LCL NOSHR NOEXE   RD    WRT LONG


THERE WERE NO ERRORS OR WARNINGS.
28038. BYTES LEFT IN FREE MEMORY POOL.
OBJ$:PMSDAT,LIS$:PMSDAT/-SP=EXECML$/ML,SRC$:FCPDEF,PMSDAT
0 MLB DIR RDS - 0 GETS TO DEFINE 0 MACROS. 1 INTER. FILE WRITES.
