IODAT	MACRO M1110  22-AUG-78 01:45  PAGE 3


    100						.TITLE	IODAT
    200						.IDENT	/27/
    300					                                                                                ;**-1
    400					;
    500					; COPYRIGHT (C) 1978
    600					; DIGITAL EQUIPMENT CORPORATION, MAYNARD, MASS.
    700					;
    800					; THIS SOFTWARE IS FURNISHED UNDER A LICENSE FOR USE ONLY ON A
    900					; SINGLE COMPUTER SYSTEM AND MAY  BE  COPIED   ONLY  WITH  THE
   1000					; INCLUSION OF THE ABOVE COPYRIGHT NOTICE.  THIS SOFTWARE,  OR
   1100					; ANY OTHER COPIES THEREOF, MAY NOT BE PROVIDED  OR  OTHERWISE
   1200					; MADE AVAILABLE TO ANY OTHER PERSON   EXCEPT FOR  USE ON SUCH
   1300					; SYSTEM AND TO ONE WHO AGREES TO THESE LICENSE  TERMS.  TITLE
   1400					; TO AND OWNERSHIP OF THE SOFTWARE SHALL AT ALL  TIMES  REMAIN
   1500					; IN DEC.
   1600					;
   1700					; THE INFORMATION IN THIS DOCUMENT IS SUBJECT TO CHANGE WITHOUT
   1800					; NOTICE AND SHOULD NOT BE CONSTRUED AS A COMMITMENT BY DIGITAL
   1900					; EQUIPMENT CORPORATION.
   2000					;
   2100					; DEC ASSUMES NO RESPONSIBILITY FOR THE USE OR RELIABILITY OF
   2200					; ITS SOFTWARE ON EQUIPMENT WHICH IS NOT SUPPLIED BY DEC.
   2300					;
   2400					; VERSION	27
   2500					;                                                                               ;**-1
   2600					; D.N. CUTLER/C. MONIA 27-DEC-73
   2700					;
   2800					;
   2900					;
   3000					; MODIFICATIONS
   3100					;
   3200					; NO.		DATE		PROGRAMMER
   3300					; ---		----		----------
   3400					;
   3500					; 008		16-AUG-73	C. MONIA
   3600					; 034		07-JAN-74	C. MONIA
   3700					; 036		10-JAN-75	C. MONIA                                        ;**NEW**
   3800					; 044		20-JAN-76	C. MONIA
   3900					; 046		04-FEB-76	C. MONIA
   4000					; 053		17-MAR-76	C. MONIA
   4100					; 054		27-MAR-76	C. MONIA
   4200					; 059		07-APR-76	C. MONIA
   4300					; 062		21-MAY-76	C. MONIA
   4400					; 064		28-JUN-76	C. MONIA
   4500					;
   4600					; BLS006	12-MAY-77	B. SCHREIBER
   4700					;				  CORRECT GCML CONTROL BLOCK
   4800					;
   4900					; JAK100	29-JAN-77	ADD MULTIUSER SWITCH  /MU
   5000					; JAK106	 23-MAY-77	CHANGES FOR DEFAULT SYSTEM DEVICE LB:
   5100					; JAK107	15-DEC-77	ADD RE-ENTRANT CHECKPOINTABLITY SWITCH "RC"
   5200					;
   5300					;
   5400					;
   5500					;
   5600					; MONITOR DEPENDENT I/O DATA BASE
   5700					;
IODAT	MACRO M1110  22-AUG-78 01:45  PAGE 3-1


   5800					; EQUATED SYMBOLS
   5900					;
   6000
   6100		000020 			F$DEVL==16.			;MAX LENGTH OF DEVICE NAME
   6200		000037 			F$DIRL==31.			; MAX LENGTH OF DIRECTORY NAME
   6250									; UP TO 3 LEVELS OF DIRECTORY NAME
   6300		000021 			F$FILL==17.			;MAX LENGTH OF FILENAME
   6400		000006 			LMOD=6.				; MAX LENGTH OF LIBRARY MODULE NAME
   6500		000010 			NMOD=8.				; MAX NUMBER OF NAMES PER SPEC.
   6600
   6700					;
   6800					; MACRO LIBRARY CALLS
   6900					;
   7000
   7100						.MCALL	CSI$ND,CSI$SV,CSI$SW
   7200						.MCALL	FDAT$A,FDBDF$,FDOP$A,FDRC$A,FSRSZ$
   7300						.MCALL	GCMLB$,NMBLK$
   7400
   7500					;
   7600					; LOCAL MACROS
   7700					;
   7800
   7900					;
   8000					; GENERATE CONTROL BLOCK
   8100					;
   8200					; GENBLK	A,B,C,DD,E,F,G,H,I,J
   8300					;
   8400					; WHERE:
   8500					;
   8600					;	A=THREE CHARACTER BLOCK NAME
   8700					;	B=RECORD TYPE
   8800					;	C=RECORD ATTRIBUTES
   8900					;	DD=RECORD SIZE
   9000					;	E=RECORD ACCESS
   9100					;	F=RECORD BUFFER SIZE
   9200					;	G=LOGICAL UNIT
   9300					;	H=DATASET POINTER SWITCH
   9400					;	I=ADDRESS OF DEFAULT NAME BLOCK
   9500					;	J=NUMBER OF FCS BLOCK BUFFERS
   9600					;
   9700
   9800						.MACRO	GENBLK	A,B,C,DD,E,F,G,H,I,J
   9900						.PSECT	A'$D,D,GBL
  10000					$$=0
  10100						.IF	NB	F
  10200					$$=.
  10300						.BLKB	F
  10400						.EVEN
  10500						.ENDC
  10600					$$0=0
  10700						.IF	NB	H
  10800					$$1=.
  10900						.BLKB	F$DEVL
  11000						.EVEN
  11100					$$2=.
  11200						.BLKB	F$DIRL
  11300						.EVEN
IODAT	MACRO M1110  22-AUG-78 01:45  PAGE 3-2


  11400					$$3=.
  11500						.BLKB	F$FILL
  11600						.EVEN
  11700					$$0=.
  11800						.BLKW	1
  11900						.WORD	$$1
  12000						.BLKW	1
  12100						.WORD	$$2
  12200						.BLKW	1
  12300						.WORD	$$3
  12400						.ENDC
  12500						.PSECT	FILN$D,D,GBL
  12600					$'A'NM::.WORD	0
  12700						.PSECT	A'P$D,D,GBL
  12800					$'A'PT::.WORD	A'PT
  12900						.PSECT	A'$D,D,GBL
  13000					A'PT:	FDBDF$
  13100						FDAT$A	B,C,DD
  13200						FDRC$A	E,$$,F
  13300						FDOP$A	G,$$0,I
  13400					R$NAME==.-'A'PT
  13500						.WORD	A'PT+F.FNB+N.FNAM
  13600					R$SWTH==.-'A'PT
  13700						.BLKW	1
  13800					R$SWBK==.-'A'PT
  13900						.BLKW	1
  14000					R$NMBK==.-'A'PT
  14100						.WORD	$'A'NM
  14200					R$BLKB==.-'A'PT
  14300						.WORD	0
  14400						.IF	NB	J
  14500						.PSECT	A'$E,D,GBL
  14600					$$E=.
  14700						.PSECT	A'$D,D,GBL
  14800					.=.-2
  14900						.WORD	.+2
  15000					$$B=.
  15100						.WORD	$$E-$$B-2
  15200						.BLKB	J*<512.+S.BFHD>
  15300						.ENDC
  15400						.ENDM
  15500
  15600					;
  15700					; R$SWTH BIT DEFINITIONS
  15800					;
  15900
  16000
  16100					;
  16200					; TASK AND STB FILE SWITCHES
  16300					;
  16400					;		*** NOTE ***
  16500					;
  16600					; DEBUGGING AID SWITCH, 'SW$DA', ALSO APPLIES TO INPUT FILE
  16700					; SWITCHES
  16800					;
  16900
  17000		100000 			SW$CP==100000			; TASK CHECKPOINTABLE (0=YES)
IODAT	MACRO M1110  22-AUG-78 01:45  PAGE 3-3


  17100		040000 			SW$FP==040000			; TASK USES FLOATING POINT (1=YES)
  17200		002000 			SW$DA==002000			; TASK DEBUGGING AID SPECIFIED (1=YES)
  17300		001000 			SW$PI==001000			; PIC OUTPUT (1=YES) (ALSO APPLIES TO STB FILE).
  17400		000400 			SW$PR==000400			; TASK IS PRIVELEGED (1=YES)
  17500		000200 			SW$TR==000200			; SET TRACE BIT IN PS (1=YES)
  17600
  17700						.IF	NDF	R$$11M
  17800
  17900					SW$FX==004000			; TASK IS FIXABLE (0=YES)
  18000					SW$AB==000020			; TASK ABORTABLE (0=YES)
  18100					SW$DS==000010			; TASK DISABLABLE (0=YES)
  18200
  18300						.IFF
  18400
  18500		004000 			SW$CM==4000			; TASK BUILT IN COMPATIBILITY MODE (1=YES)
  18600		020000 			SW$EA==020000			; TASK USES EAE (1=YES)
  18700		010000 			SW$NH==010000			; BUILD TASK IMAGE WITHOUT HEADER (1=YES)
  18800		000100 			SW$PM==000100			;++034 POST-MORTEM DUMP (1=YES)
  18900		000040 			SW$SL==000040			; TASK IS SLAVEABLE (1=YES)
  19000		000020 			SW$NS==000020			; NO SENDS TO TASK ARE PERMITTED (1=YES)
  19100		000010 			SW$MU==000010			; TASK IS MULTI-USER (1=YES)
  19200		000004 			SW$AC==000004			; TASK IS ANCILLARY CONTROL PROCESSOR (1=YES)
  19300		000002 			SW$ALO==000002			; TASK IMAGE CONTAINS CHECKPOINT SPACE (0=YES)
  19400		000001 			SW$NT==000001			; TASK USES NEW NETWORK PROTOCOL (1=YES)
  19500
  19600						.ENDC
  19700
  19800					;
  19900					; INPUT FILE SWITCHES
  20000					;
  20100
  20200		100000 			SW$MA==100000			; INCLUDE OBJECT FILE IN MAP (1=NO)
  20300		040000 			SW$DL==040000			; FILE IS DEFAULT SYSTEM LIBRARY (1=YES)
  20400		020000 			SW$LB==020000			; LIBRARY FILE (1=YES)
  20500		010000 			SW$MP==010000			; OVERLAY MAP FILE (1=YES)
  20600		002000 			SW$DA==002000			; OBJECT MODULE IS DEBUGGING AID (1=YES)
  20700		000100 			SW$CC==000100			; CONCATENATED FILE (1=YES)
  20800		000040 			SW$AL==000040			; AUTOLOAD ELEMENT (1=YES)
  20900		000004 			SW$RL==000004			; RESIDENT LIBRARY ELEMENT (1=YES)
  21000		000002 			SW$SS==000002			;++008 SELECTIVE SYMBOL SEARCH (1=YES)
  21100
  21200					;
  21300					; LOCAL DATA
  21400					;
  21500					; DEFAULT FILE SWITCH SETTINGS
  21600					;
  21700					; ADJACENCY ASSUMED
  21800					;
  21900
  22000	000000					.PSECT
  22100
  22200						.IF NDF	R$$11M
  22300
  22400					$DFTSK::.WORD	SW$CP!SW$FP	; DEFAULT TASK SWITCHES
  22500
  22600						.IFF
  22700
IODAT	MACRO M1110  22-AUG-78 01:45  PAGE 3-4


  22800	000000	100002 			$DFTSK::.WORD	SW$ALO!SW$CP	; DEFAULT TASK SWITCHES
  22900
  23000						.ENDC
  23100
  23200	000002	000000C			$DFMAP::.WORD	LG$SH!WI$DE	; DEFAULT MAP FILE SWITCHES
  23300	000004	000000 			$DFSTB::.WORD	0		; DEFAULT STB FILE SWITCHES
  23400	000006	000100 			$DFINP::.WORD	SW$CC		; DEFAULT INPUT FILE SWITCHES
  23500	000010	120000 			$DFLBS::.WORD	SW$LB!SW$MA	; DEFAULT SYSTEM LIBRARY FILE SWITCHES
  23600	000012	000000 			$DFSWT::.WORD	0		; DEFAULT TASK BUILD SWITCHES
  23700
  23800					;
  23900					; SYSTEM LIBRARY FILE SWITCH WORD
  24000					;
  24100
  24200	000014				$LBSWT::.BLKW	1		;
  24300
  24400					;
  24500					; ALLOCATE FCS RESIDENT IMPURE AREA
  24600					;
  24700
  24800	000016					.PSECT
  24900
  25000	000016					FSRSZ$	0
  25100
  25200					;
  25300					; 'GET COMMAND LINE' INPUT CONTROL BLOCK
  25400					;
  25500
  25600	000000					.PSECT	CMIP$D,D,GBL
  25700
  25800	000000	000000'			$CMIPT::.WORD	CMIPT
  25900
  26000	000000					.PSECT	CMI$D,D,GBL
  26100
  26200	000000				CMIPT:				; REF. LABEL
  26300	000000					GCMLB$	3,TKB,$LNBUF
  26400
  26500	000016					.PSECT
  26600
  26700					;
  26800					; I/O DATA BASES (SEQUENCE MUST BE AS SHOWN)
  26900					;
  27000
  27100						.IF	NDF	R$$11M
  27200
  27300						GENBLK	CMO,R.VAR,FD.CR,80.,,,2
  27400
  27500						.ENDC
  27600
  27700	000016					GENBLK	INI,R.FIX,,512.,FD.PLC,,3,1,,1
  27800	001312					GENBLK	TSK,R.FIX,,512.,FD.RWM!FD.RAN,,7,,,1
  27900	001174					GENBLK	MAP,R.VAR,,100.,,,4,,,2
  28000	002214					GENBLK	STB,R.VAR,,128.,,,6,,,1
  28100	001174					GENBLK	INP,R.VAR,,,FD.PLC,128.,3
  28200	000352					GENBLK	CRF,R.FIX,,,,,4
  28300
  28400					;
IODAT	MACRO M1110  22-AUG-78 01:45  PAGE 3-5


  28500					; ODL FILE COMMAND INPUT CONTROL BLOCK
  28600					;
  28700	000000					.PSECT	ODLP$D,D,GBL
  28800
  28900	000000	000000'			$ODLPT::.WORD	ODLPT		;
  29000
  29100	000000					.PSECT	ODL$D,D,GBL
  29200
  29300						.ENABL	LSB
  29400
  29500	000000				ODLPT:	GCMLB$	3,TKB,$LNBUF,5,,,,ODLNB						;BLS006
  29600		000326'			$$$=.
  29700		000166'			.=ODLNB
  29800	000166					NMBLK$	,ODL,,SY
  29900		000141'			.=ODLPT+G.MODE
  30000	000141	   003 				.BYTE	GE.COM!GE.IND
  30100		000326'			.=$$$
  30200
  30300						.DSABL	LSB
  30400
  30500
  30600					;
  30700					; LIBRARY NAME BLOCK POINTER
  30800					;
  30900
  31000	000000					.PSECT	LIBN$D,D,GBL
  31100
  31200	000000	000000 			$LIBNM::.WORD	0		;
  31300
  31400	000000					.PSECT	INID$D,D,GBL
  31500
  31600					;
  31700					; DEFAULT NAME BLOCKS (ADJACENCY ASSUMED)
  31800					;
  31900
  32000	000000				$DFNB::				; REF LABEL
  32100	000000					NMBLK$	,EXE,,SY
  32200	000036					NMBLK$	,MAP,,SY
  32300	000074					NMBLK$	,STB,,SY
  32400	000132					NMBLK$	,OBJ,,SY
  32500
  32600					;++036
  32700					;++036 TASK BUILDER TEMPORARY MAP OUTPUT NAMEBLOCK
  32800					;++036
  32900
  33000	000170				$MAPTM::NMBLK$	TKBTMP,MAP,,SY
  33100
  33200
  33300					;
  33400					; DEFAULT LIBRARY NAME BLOCK
  33500					;
  33600
  33700	000226				$LIBNB::NMBLK$	,OLB,,SY
  33800
  33900
  34000					;
  34100					; SYSTEM LIBRARY FILE
IODAT	MACRO M1110  22-AUG-78 01:45  PAGE 3-6


  34200					;
  34300
  34400	000264				$DFLIB::NMBLK$	SYSLIB,OLB,,LB							;JAK106
  34500
  34600					;
  34700					; DATA SET DESCRIPTORS AND STRING POINTERS
  34800					;
  34900					;++036 SYSTEM LIBRARY DIRECTORY STRING
  35000					;
  35100
  35200	000322	   133 	   061 	   054 	DSLIB:	.ASCII	/[1,1]/		; DIRECTORY
	000325	   061 	   135
  35300	000327				DSLBE:				; REF LABEL
  35400						.EVEN
  35500
  35600					;
  35700					;++036 SYSTEM LIBRARY STRING DESCRIPTOR
  35800					;
  35900
  36000	000330				$DSPLB::			; REF LABEL
  36100	000330	000000 				.WORD	0		; DEFAULT DEVICE
  36200	000332	000000 				.WORD	0		;
  36300	000334	000005 				.WORD	DSLBE-DSLIB	; DIRECTORY STRING
  36400	000336	000322'				.WORD	DSLIB		;
  36500	000340	000000 				.WORD	0		; DEFAULT FILE I/D
  36600	000342	000000 				.WORD	0		;
  36700
  36800					;++036
  36900					;++036 TASK BUILDER TEMPORARY MAP OUTPUT STRING
  37000					;++036
  37100
  37200	000344	   123 	   131 		MAPDV:	.ASCII	/SY/		;++036 DEVICE
  37300	000346				MAPE:				;++036
  37400
  37500						.EVEN
  37600
  37700					;++036
  37800					;++036 TASK BUILDER MAP OUTPUT STRING DESCRIPTOR
  37900					;++036
  38000
  38100	000346	000002 			$MAPTD::.WORD	MAPE-MAPDV	;++036 DEVICE DESCRIPTOR
  38200	000350	000344'				.WORD	MAPDV		;++036
  38300
  38400
  38500					;
  38600					; INPUT FILE SWITCHES
  38700					;
  38800	000352				$INPSW::			; REF LABEL
  38900	000352					CSI$SW	CC,SW$CC,INIPT+R$SWTH,SET,NEG
  39000	000362					CSI$SW	DA,SW$DA,INIPT+R$SWTH,SET,NEG
  39100	000372					CSI$SW	LB,SW$LB,INIPT+R$SWTH,SET,NEG,LBSV
  39200	000402					CSI$SW	MP,SW$MP,INIPT+R$SWTH,SET,NEG
  39300	000412					CSI$SW	SS,SW$SS,INIPT+R$SWTH,SET,NEG
  39400	000422					CSI$SW	MA,SW$MA,INIPT+R$SWTH,CLEAR,NEG
  39500	000432					CSI$SW	DL,SW$DL!SW$LB,INIPT+R$SWTH,SET,NEG
  39600	000442					CSI$ND
  39700
IODAT	MACRO M1110  22-AUG-78 01:45  PAGE 3-7


  39800					;
  39900					; MAP FILE SWITCHES
  40000					;
  40100
  40200	000444				$MAPSW::			; REF LABEL
  40300	000444					CSI$SW	SH,LG$SH,$SWTCH,SET,NEG
  40400	000454					CSI$SW	SP,SP$OL,$SWTCH,CLEAR,NEG
  40500	000464					CSI$SW	CR,CR$EF,$SWTCH,SET,NEG
  40600	000474					CSI$SW	MA,SW$MA,$LBSWT,CLEAR,NEG
  40700	000504					CSI$SW	WI,WI$DE,$SWTCH,SET,NEG
  40800	000514					CSI$ND
  40900
  41000					;
  41100					; STB FILE SWITCHES
  41200					;
  41300
  41400	000516				$STBSW::			; REF LABEL
  41500	000516					CSI$SW	HD,SW$NH,INIPT+R$SWTH,CLEAR,NEG
  41600	000526					CSI$SW	PI,SW$PI,INIPT+R$SWTH,SET,NEG
  41700	000536					CSI$ND
  41800
  41900					;
  42000					; TASK FILE SWITCHES
  42100					;
  42200
  42300	000540				$TSKSW::			; REF LABEL
  42400	000540					CSI$SW	CP,SW$CP,INIPT+R$SWTH,CLEAR,NEG
  42500	000550					CSI$SW	DA,SW$DA,INIPT+R$SWTH,SET,NEG
  42600	000560					CSI$SW	FP,SW$FP,INIPT+R$SWTH,SET,NEG
  42700	000570					CSI$SW	MM,MP$SY,$SWTCH,SET,NEG
  42800	000600					CSI$SW	PI,SW$PI,INIPT+R$SWTH,SET,NEG
  42900	000610					CSI$SW	PR,SW$PR,INIPT+R$SWTH,SET,NEG,PRSV
  43000	000620					CSI$SW	SQ,SE$QA,$SWTCH,SET,NEG
  43100	000630					CSI$SW	TR,SW$TR,INIPT+R$SWTH,SET,NEG
  43200	000640					CSI$SW	XT,AB$RT,$SWTCH,SET,NEG,XTSV
  43300
  43400						.IF	NDF	R$$11M
  43500
  43600						CSI$SW	AB,SW$AB,INIPT+R$SWTH,SET,NEG
  43700						CSI$SW	DS,SW$DS,INIPT+R$SWTH,CLEAR,NEG
  43800						CSI$SW	FX,SW$FX,INIPT+R$SWTH,CLEAR,NEG
  43900
  44000						.IFF
  44100
  44200	000650					CSI$SW	AC,SW$AC,INIPT+R$SWTH,SET,NEG,PRSV
  44300	000660					CSI$SW	EA,SW$EA,INIPT+R$SWTH,SET,NEG
  44400	000670					CSI$SW	HD,SW$NH,INIPT+R$SWTH,CLEAR,NEG
  44500	000700					CSI$SW	PM,SW$PM,INIPT+R$SWTH,SET,NEG
  44600	000710					CSI$SW	SL,SW$SL,INIPT+R$SWTH,SET,NEG
  44700					;	CSI$SW	RE,SW$RE,INIPT+R$SWTH,SET,NEG
  44800	000720					CSI$SW	MU,SW$MU,INIPT+R$SWTH,SET,NEG					;JAK100
  44900	000730					CSI$SW	FU,CO$SRC,$SWTCH,SET,NEG
  45000	000740					CSI$SW	RO,RS$OV,$SWTCH,CLEAR,NEG
  45100	000750					CSI$SW	AL,SW$ALO!SW$CP,INIPT+R$SWTH,CLEAR,NEG
  45200	000760					CSI$SW	NT,SW$NT,INIPT+R$SWTH,SET,NEG
  45300	000770					CSI$SW	CM,SW$CM,INIPT+R$SWTH,SET NEG
  45400	001000					CSI$SW	SE,SW$NS,INIPT+R$SWTH,CLEAR,NEG
IODAT	MACRO M1110  22-AUG-78 01:45  PAGE 3-8


  45500	001010					CSI$SW	RC,RO$CHK,$SWOVR,CLEAR,NEG					;JAK107
  45600
  45700						.ENDC
  45800
  45900	001020					CSI$ND
  46000
  46100					;
  46200					; '/LB' SWITCH VALUE TABLE
  46300					;
  46400
  46500		001064'			LB=$LBSVT
  46600	001022				LBSV:				;
  46700		000010 				.REPT	NMOD
  46800						CSI$SV	,LB,LMOD
  46900					LB=LB+LMOD+1
  47000						.ENDR
  47100	001062					CSI$ND
  47200
  47300					;
  47400					; '/LB' SWITCH VALUE STORAGE
  47500					;
  47600
  47700	001064				$LBSVT::			; REF LABEL
  47800
  47900		000010 				.REPT	NMOD
  48000						.BLKB	LMOD
  48100						.BYTE	0
  48200						.ENDR
  48300
  48400						.EVEN
  48500
  48600					;
  48700					; '/PR' SWITCH VALUE TABLE
  48800					;
  48900
  49000	001154				PRSV:	CSI$SV	OCTAL,$PRVAP,2
  49100	001160					CSI$ND
  49200
  49300
  49400					;
  49500					; '/XT' SWITCH VALUE TABLE
  49600					;
  49700
  49800	001162				XTSV:	CSI$SV	NUMERIC,$ERRCT,2
  49900	001166					CSI$ND
  50000
  50100
  50200	000016					.PSECT
  50300
  50400
  50500					;
  50600					;+
  50700					; I/O DATA BASE STRUCTURE:
  50800					;
  50900					;	THE I/O DATA BASE IS DESIGNED TO ALLOCATE STORAGE FOR BLOCK
  51000					; BUFFER SPACE,  FDB'S AND ASSOCIATED DATA IN GLOBAL PSECTS
  51100					; SUCH THAT THIS DATA MAY BE OVERLAYED WHEN NO LONGER REQUIRED.
IODAT	MACRO M1110  22-AUG-78 01:45  PAGE 3-9


  51200					;
  51300					;	THE DATA BASE CONSISTS OF ONE OR MORE OR THE
  51400					; FOLLOWING ELEMENTS:
  51500					;
  51600					;	(1) AN FDB, RECORD BUFFER, AND POINTERS TO THE FOLLOWING ELEMENTS
  51700					;	(2) A DATASET AND DATASET POINTERS
  51800					;	(3) A POOL OF BLOCK BUFFERS
  51900					;	(4) A DEFAULT NAME BLOCK
  52000					;	(5) CSI SWITCH BLOCK AND SWITCH VALUE TABLES
  52100					;
  52200					;	THE FOLLOWING MACRO'S ARE USED TO CREATE THE DATA BASE:
  52300					;
  52400					;	GENBLK:	BUILD FDB, POINTERS, DATASET AND FCS BLOCK BUFFER POOL
  52500					;	FCS MACROS:	BUILD DEFAULT NAME BLOCK
  52600					;	CSI MACROS:	BUILD SWITCH TABLES.
  52700					;
  52800					;-
  52900					;
  53000
  53100
  53200		000001 				.END
IODAT	MACRO M1110  22-AUG-78 01:45  PAGE 3-10
SYMBOL TABLE

AB$RT = ****** GX	FF.POE= 000002   	F.STBK= 000036   	N.STAT= 000020   	VT    = 000013
B.BBFS= 000010   	FF.RWD= 000001   	F.UNIT= 000136   	N.UNIT= 000034   	WI$DE = ****** GX
B.BFST= 000015   	FF.RWF= 000006   	F.URBD= 000020   	ODLNB   000166R     027	XTSV    001162R     031
B.NXBD= 000012   	FF.SPC= 000004   	F.VBN = 000064   	ODLPT   000000R     027	$CMIPT  000000RG    003
B.VBN = 000004   	FO.APD= 000106   	F.VBSZ= 000060   	PRSV    001154R     031	$CRFNM  000012RG    006
CHR$$ = 000103   	FO.MFY= 000002   	GE.BIF= 177775   	RO$CHK= ****** GX	$CRFPT  000000RG    025
CH.AND= 000001   	FO.RD = 000001   	GE.CLO= 000004   	RS$OV = ****** GX	$DFINP  000006RG
CMIPT   000000R     004	FO.UPD= 000006   	GE.COM= 000001   	R$BLKB= 000150 G 	$DFLBS  000010RG
CNT$$ = 000002   	FO.WRT= 000016   	GE.CON= 000020   	R$NAME= 000140 G 	$DFLIB  000264RG    031
CO$SRC= ****** GX	F$DEVL= 000020 G 	GE.EOF= 177766   	R$NMBK= 000146 G 	$DFMAP  000002RG
CR    = 000015   	F$DIRL= 000037 G 	GE.IND= 000002   	R$SWBK= 000144 G 	$DFNB   000000RG    031
CRFPT   000000R     024	F$FILL= 000021 G 	GE.IOR= 177777   	R$SWTH= 000142 G 	$DFSTB  000004RG
CR$EF = ****** GX	F.ACTL= 000076   	GE.LC = 000010   	R$$11M= 000000   	$DFSWT  000012RG
DSLBE   000327R     031	F.ALOC= 000040   	GE.MDE= 177774   	R.FIX = 000001   	$DFTSK  000000RG
DSLIB   000322R     031	F.BBFS= 000062   	GE.OPR= 177776   	R.SEQ = 000003   	$DSPLB  000330RG    031
FA.APD= 000100   	F.BDB = 000070   	GE.RBG= 177730   	R.VAR = 000002   	$ERRCT= ****** GX
FA.CRE= 000010   	F.BGBC= 000057   	GE.SIZ= 000040   	SE$QA = ****** GX	$ININM  000000RG    006
FA.DLK= 001000   	F.BKDN= 000026   	G.CMLD= 000146   	SIZ$$ = 000002   	$INIPT  000000RG    007
FA.ENB= 100000   	F.BKDS= 000020   	G.DPRM= 000160   	SPA   = 000040   	$INPNM  000010RG    006
FA.EXC= 002000   	F.BKEF= 000050   	G.ERR = 000140   	SP$OL = ****** GX	$INPPT  000000RG    023
FA.EXT= 000004   	F.BKP1= 000051   	G.ISIZ= 000020   	STBPT   000000R     017	$INPSW  000352RG    031
FA.NSP= 000100   	F.BKST= 000024   	G.LPDL= 000100   	SW$AC = 000004 G 	$LBSVT  001064RG    031
FA.POS= 010000   	F.BKVB= 000064   	G.MODE= 000141   	SW$AL = 000040 G 	$LBSWT  000014RG
FA.RD = 000001   	F.CHR = 000075   	G.PSDS= 000142   	SW$ALO= 000002 G 	$LIBNB  000226RG    031
FA.RWD= 004000   	F.CNTG= 000034   	G.SIZE= 000224   	SW$CC = 000100 G 	$LIBNM  000000RG    030
FA.SEQ= 040000   	F.DFNB= 000046   	HT    = 000011   	SW$CM = 004000 G 	$LNBUF= ****** GX
FA.SHR= 000040   	F.DSPT= 000044   	INIPT   000116R     005	SW$CP = 100000 G 	$MAPNM  000004RG    006
FA.TMP= 000020   	F.DVNM= 000134   	INPPT   000200R     022	SW$DA = 002000 G 	$MAPPT  000000RG    015
FA.WCK= 020000   	F.EFBK= 000010   	LB    = 001154R     031	SW$DL = 040000 G 	$MAPSW  000444RG    031
FA.WRT= 000002   	F.EFN = 000050   	LBSV    001022R     031	SW$EA = 020000 G 	$MAPTD  000346RG    031
FD.BLK= 000010   	F.EOBB= 000032   	LF    = 000012   	SW$FP = 040000 G 	$MAPTM  000170RG    031
FD.CCL= 000002   	F.ERR = 000052   	LG$SH = ****** GX	SW$LB = 020000 G 	$ODLPT  000000RG    026
FD.COM= 020000   	F.FACC= 000043   	LMOD  = 000006   	SW$MA = 100000 G 	$PRVAP= ****** GX
FD.CR = 000002   	F.FFBY= 000014   	MAPDV   000344R     031	SW$MP = 010000 G 	$STBNM  000006RG    006
FD.DIR= 000010   	F.FNAM= 000110   	MAPE    000346R     031	SW$MU = 000010 G 	$STBPT  000000RG    020
FD.FTN= 000001   	F.FNB = 000102   	MAPPT   000000R     014	SW$NH = 010000 G 	$STBSW  000516RG    031
FD.F11= 040000   	F.FTYP= 000116   	MP$SY = ****** GX	SW$NS = 000020 G 	$SWOVR= ****** GX
FD.INS= 000010   	F.FVER= 000120   	NB.DEV= 000200   	SW$NT = 000001 G 	$SWTCH= ****** GX
FD.ISP= 002000   	F.HIBK= 000004   	NB.DIR= 000100   	SW$PI = 001000 G 	$TSKNM  000002RG    006
FD.MNT= 100000   	F.LUN = 000042   	NB.NAM= 000004   	SW$PM = 000100 G 	$TSKPT  000000RG    012
FD.OSP= 004000   	F.MBCT= 000054   	NB.SD1= 000400   	SW$PR = 000400 G 	$TSKSW  000540RG    031
FD.PLC= 000004   	F.MBC1= 000055   	NB.SD2= 001000   	SW$RL = 000004 G 	$$    = 000001
FD.PRN= 000004   	F.MBFG= 000056   	NB.SNM= 000040   	SW$SL = 000040 G 	$$B   = 000152R     017
FD.PSE= 010000   	F.NRBD= 000024   	NB.STP= 000020   	SW$SS = 000002 G 	$$E   = 000000R     021
FD.RAH= 000001   	F.NREC= 000030   	NB.SVR= 000010   	SW$TR = 000200 G 	$$$   = 000326R     027
FD.RAN= 000002   	F.OVBS= 000030   	NB.TYP= 000002   	S.BFHD= 000020   	$$0   = 000000
FD.REC= 000001   	F.RACC= 000016   	NB.VER= 000001   	S.FATT= 000016   	$$1   = 000000R     005
FD.RWM= 000001   	F.RATT= 000001   	NMOD  = 000010   	S.FDB = 000140   	$$2   = 000020R     005
FD.SDI= 000020   	F.RCNM= 000034   	N.DID = 000024   	S.FNAM= 000006   	$$3   = 000060R     005
FD.SQD= 000040   	F.RCTL= 000017   	N.DVNM= 000032   	S.FNB = 000036   	.FSRCB= ****** G
FD.TTY= 000004   	F.RSIZ= 000002   	N.FID = 000000   	S.FNBW= 000017   	...GBL= 000000
FD.WBH= 000002   	F.RTYP= 000000   	N.FNAM= 000006   	S.FNTY= 000004   	...PC1= 000000R     027
FF    = 000014   	F.SEQN= 000100   	N.FTYP= 000014   	S.FTYP= 000002   	...PC2= 000300R     031
FF.CHR= 000005   	F.SPDV= 000072   	N.FVER= 000016   	S.NFEN= 000020   	...PC3= 000000R     027
FF.NV = 000003   	F.SPUN= 000074   	N.NEXT= 000022   	TSKPT   000000R     011	...TPC= 000140

. ABS.	000000	   000
IODAT	MACRO M1110  22-AUG-78 01:45  PAGE 3-11
SYMBOL TABLE

      	000016	   001
$$FSR1	000000	   002
CMIP$D	000002	   003
CMI$D 	000326	   004
INI$D 	001312	   005
FILN$D	000014	   006
INIP$D	000002	   007
INI$E 	000000	   010
TSK$D 	001174	   011
TSKP$D	000002	   012
TSK$E 	000000	   013
MAP$D 	002214	   014
MAPP$D	000002	   015
MAP$E 	000000	   016
STB$D 	001174	   017
STBP$D	000002	   020
STB$E 	000000	   021
INP$D 	000352	   022
INPP$D	000002	   023
CRF$D 	000152	   024
CRFP$D	000002	   025
ODLP$D	000002	   026
ODL$D 	000326	   027
LIBN$D	000002	   030
INID$D	001170	   031
ERRORS DETECTED:  0

VIRTUAL MEMORY USED:  5175 WORDS  ( 21 PAGES)
DYNAMIC MEMORY:  5940 WORDS  ( 22 PAGES)
ELAPSED TIME:  00:01:27
OBJ$:IODAT,LIS$:IODAT/-SP=SRC$:MACFLM,FCSPR,IODAT
