MACFLM	MACRO M1110  22-AUG-78 02:02  PAGE 3


      1
      2
      3						.IF NDF	W$$KST
      4
      5						.TITLE	VMDAT
      6
      7						.IFF
      8
      9						.TITLE	VMDAS
     10
     11						.ENDC
     12
     13						.IDENT	/03/
     14
     15					;
     16					; COPYRIGHT   1974,  DIGITAL  EQUIPMENT  CORP.,  MAYNARD,   MASS.
     17					; COPYRIGHT   1975,  DIGITAL  EQUIPMENT  CORP.,  MAYNARD,   MASS.
     18					;
     19					; THIS SOFTWARE IS FURNISHED TO PURCHASER UNDER A LICENSE FOR USE
     20					; ON A  SINGLE COMPUTER SYSTEM AND CAN BE COPIED (WITH INCLUSION
     21					; OF DEC'S COPYRIGHT NOTICE) ONLY FOR USE IN SUCH SYSTEM, EXCEPT
     22					; AS MAY OTHERWISE BE PROVIDED IN WRITING BY DEC.
     23					;
     24					; THE  INFORMATION IN THIS DOCUMENT IS SUBJECT TO CHANGE WITHOUT
     25					; NOTICE AND  SHOULD NOT BE CONSTRUED AS A COMMITMENT BY DIGITAL
     26					; EQUIPMENT CORPORATION.
     27					;
     28					; DEC  ASSUMES NO  RESPONSIBILITY  FOR  THE  USE  OR RELIABILITY
     29					; OF ITS  SOFTWARE ON  EQUIPMENT WHICH  IS NOT SUPPLIED BY DEC.
     30					;
     31					; VERSION 03
     32					;
     33					; C. MONIA 17-AUG-74
     34					;
     35					; TABLES AND DEFINITIONS FOR VIRTUAL MEMORY ROUTINES
     36					;
     37					; MODIFICATIONS:
     38					;
     39					; NO.		DATE		PROGRAMMER
     40					; ---		----		----------
     41					;
     42					; 043		28-OCT-75	C. MONIA
     43					; 065		30-JUL-76	C. MONIA
     44					;
     45					;
     46					; MACRO LIBRARY CALLS
     47					;
     48
     49						.MCALL	FCSBT$,FDAT$A,FDBDF$,FDOP$A,FDRC$A
     50
     51					;
     52					; EQUATED SYMBOLS
     53					;
     54					;
     55					; DEFINE PAGE BUFFER OFFSETS
     56					;
     57
VMDAS	MACRO M1110  22-AUG-78 02:02  PAGE 3-1


     58	000000					.PSECT	$$VMDF,ABS
     59
     60	000000				P$GNXT::.BLKW	1		; LINK TO NEXT PAGE
     61	000002				P$GBLK::.BLKB	1		; PAGE RELATIVE BLOCK NUMBER
     62	000003				P$GSTS::.BLKB	1		; PAGE STATUS BYTE
     63	000004				P$GTIM::.BLKW	1		; 'TIME' OF LAST REFERENCE
     64	000006				P$GLOK::.BLKB	1		; PAGE LOCK COUNT
     65
     66						.EVEN
     67
     68	000010				P$GHD::				; SIZE OF PAGE HEADER
     69
     70	000010					.BLKW	256.
     71
     72	001010				P$GSIZ::			; SIZE OF PAGE
     73
     74
     75					;
     76					; PAGE STATUS BITS
     77					;
     78
     79		000001 			PG$WRT==000001			; PAGE WRITTEN INTO (1=YES)
     80
     81	000000					.PSECT
     82
     83					;
     84					; GLOBAL DATA
     85					;
     86					; NEXT AVAILABLE VIRTUAL ADDRESS
     87					;
     88
     89	000000				$HGVAD::.BLKW	1		;
     90
     91					;
     92					; POINTER TO RESIDENT PAGE LIST
     93					;
     94
     95	000002				$PAGLS::.BLKW	1		;
     96
     97					;
     98					; RESIDENT PAGE LISTHEAD
     99					;
    100
    101	000004				$PAGHD::.BLKW	1		;
    102
    103					;
    104					; PAGE BUFFER TIME OF LAST USE
    105					;
    106
    107	000006				$TIME::	.BLKW	1		;
    108
    109						.IF DF	W$$KST
    110
    111					;
    112					; TOP OF TASK R/W VIRTUAL MEMORY
    113					;
    114
VMDAS	MACRO M1110  22-AUG-78 02:02  PAGE 3-2


    115	000010				$TPADR::.BLKW	1		;
    116
    117					;
    118					; WORKFILE ACCESS COUNTS (ADJACENCY REQUIRED)
    119					;
    120					; TOTAL NUMBER OF WORKFILE ACCESSES
    121					;
    122
    123	000012				$WRKAC::.BLKW	2		;
    124
    125					;
    126					; WORK FILE READ COUNT
    127					;
    128
    129	000016				$WRKRD::.BLKW	2		;
    130
    131					;
    132					; WORK FILE WRITE COUNT
    133					;
    134
    135	000022				$WRKWR::.BLKW	2		;
    136
    137						.ENDC
    138
    139					;
    140					; WORK FILE FDB
    141					;
    142
    143	000026	000030'			$WRKPT::.WORD	WRKPT		; ADDRESS OF FDB
    144
    145	000030				WRKPT:	FDBDF$			; ALLOCATE SPACE FOR FDB
    146	000170					FCSBT$			; DEFINE FCS BITS
    147	000170					FDAT$A	R.FIX,,512.	; FIXED LENGTH, 512.BYTE RECORDS
    148	000170					FDRC$A	FD.RWM!FD.RAN	; READ/WRITE MODE, RANDOM ACCESS
    149	000170					FDOP$A	W$KLUN		; I/O VIA LUN DEFINED AT TASK BUILD TIME
    150
    151					;+
    152					;
    153					; **-VMDAT- DEFINE VIRTUAL MEMORY STORAGE PARAMETERS AND
    154					;	    TABLES
    155					;
    156					;	THIS MODULES CONTAINS ALL GLOBALLY REFERENCED
    157					; DEFINITIONS AND STORAGE FOR THE VIRTUAL MEMORY MANAGEMENT
    158					; SUBROUTINES.
    159					;
    160					;-
    161
    162		000001 				.END
VMDAS	MACRO M1110  22-AUG-78 02:02  PAGE 3-3
SYMBOL TABLE

CH.AND= 000001   	FD.RAN= 000002   	F.DFNB= 000046   	F.URBD= 000020   	P$GTIM  000004 G    002
CR    = 000015   	FD.REC= 000001   	F.DSPT= 000044   	F.VBN = 000064   	R$$11M= 000000
FA.APD= 000100   	FD.RWM= 000001   	F.DVNM= 000134   	F.VBSZ= 000060   	R.FIX = 000001
FA.CRE= 000010   	FD.SDI= 000020   	F.EFBK= 000010   	HT    = 000011   	R.SEQ = 000003
FA.DLK= 001000   	FD.SQD= 000040   	F.EFN = 000050   	LF    = 000012   	R.VAR = 000002
FA.ENB= 100000   	FD.TTY= 000004   	F.EOBB= 000032   	NB.DEV= 000200   	SPA   = 000040
FA.EXC= 002000   	FD.WBH= 000002   	F.ERR = 000052   	NB.DIR= 000100   	S.FATT= 000016
FA.EXT= 000004   	FF    = 000014   	F.FACC= 000043   	NB.NAM= 000004   	S.FDB = 000140
FA.NSP= 000100   	FF.CHR= 000005   	F.FFBY= 000014   	NB.SD1= 000400   	S.FNAM= 000006
FA.POS= 010000   	FF.NV = 000003   	F.FNAM= 000110   	NB.SD2= 001000   	S.FNB = 000036
FA.RD = 000001   	FF.POE= 000002   	F.FNB = 000102   	NB.SNM= 000040   	S.FNBW= 000017
FA.RWD= 004000   	FF.RWD= 000001   	F.FTYP= 000116   	NB.STP= 000020   	S.FNTY= 000004
FA.SEQ= 040000   	FF.RWF= 000006   	F.FVER= 000120   	NB.SVR= 000010   	S.FTYP= 000002
FA.SHR= 000040   	FF.SPC= 000004   	F.HIBK= 000004   	NB.TYP= 000002   	S.NFEN= 000020
FA.TMP= 000020   	FO.APD= 000106   	F.LUN = 000042   	NB.VER= 000001   	VT    = 000013
FA.WCK= 020000   	FO.MFY= 000002   	F.MBCT= 000054   	N.DID = 000024   	WRKPT   000030R
FA.WRT= 000002   	FO.RD = 000001   	F.MBC1= 000055   	N.DVNM= 000032   	W$KLUN= ****** GX
FD.BLK= 000010   	FO.UPD= 000006   	F.MBFG= 000056   	N.FID = 000000   	W$$KST= 000000
FD.CCL= 000002   	FO.WRT= 000016   	F.NRBD= 000024   	N.FNAM= 000006   	$HGVAD  000000RG
FD.COM= 020000   	F.ACTL= 000076   	F.NREC= 000030   	N.FTYP= 000014   	$PAGHD  000004RG
FD.CR = 000002   	F.ALOC= 000040   	F.OVBS= 000030   	N.FVER= 000016   	$PAGLS  000002RG
FD.DIR= 000010   	F.BBFS= 000062   	F.RACC= 000016   	N.NEXT= 000022   	$TIME   000006RG
FD.FTN= 000001   	F.BDB = 000070   	F.RATT= 000001   	N.STAT= 000020   	$TPADR  000010RG
FD.F11= 040000   	F.BGBC= 000057   	F.RCNM= 000034   	N.UNIT= 000034   	$WRKAC  000012RG
FD.INS= 000010   	F.BKDN= 000026   	F.RCTL= 000017   	PG$WRT= 000001 G 	$WRKPT  000026RG
FD.ISP= 002000   	F.BKDS= 000020   	F.RSIZ= 000002   	P$GBLK  000002 G    002	$WRKRD  000016RG
FD.MNT= 100000   	F.BKEF= 000050   	F.RTYP= 000000   	P$GHD   000010 G    002	$WRKWR  000022RG
FD.OSP= 004000   	F.BKP1= 000051   	F.SEQN= 000100   	P$GLOK  000006 G    002	...GBL= 000000
FD.PLC= 000004   	F.BKST= 000024   	F.SPDV= 000072   	P$GNXT  000000 G    002	...PC1= 000030R
FD.PRN= 000004   	F.BKVB= 000064   	F.SPUN= 000074   	P$GSIZ  001010 G    002	...PC2= 000170R
FD.PSE= 010000   	F.CHR = 000075   	F.STBK= 000036   	P$GSTS  000003 G    002	...TPC= 000140
FD.RAH= 000001   	F.CNTG= 000034   	F.UNIT= 000136

. ABS.	000000	   000
      	000170	   001
$$VMDF	001010	   002
ERRORS DETECTED:  0

VIRTUAL MEMORY USED:  3302 WORDS  ( 13 PAGES)
DYNAMIC MEMORY:  3828 WORDS  ( 14 PAGES)
ELAPSED TIME:  00:00:21
OBJ$:VMDAS,LIS$:VMDAS/-SP=SRC$:MACFLM,WRKST,VMDAT
