GBLSYMDEF       UETP GLOBAL SYMBOLS FOR LINKING                  22-AUG-1978 03:24:40   VAX-11 MACRO X0.3-11               Page   1
                                                                                                                                 (1)

                                     0000     1 ;	UETP prefix file (contains macro library file specs).
                                     0000     2 ;
                                     0000     3 	.LIBRARY	/EXECML$/	;SYSTEM MACROS
                                     0000     4 	.LIBRARY	/LIBD$:[SYSTST.OBJ]SYSTST.MLB/ ; PRIVATE UETP,SYSTST LIB
                                     0000     5 	.LIST	MEB
                                     0000     6 ;
                                     0000   100 	.TITLE	GBLSYMDEF UETP GLOBAL SYMBOLS FOR LINKING
                                     0000   200 	.ENABL	GBL
                                     0000   300 	.GLOBL	MSG$_DELPROC
                                     0000   400 	.GLOBL	UETP$_ERBOX,UETP$_DATAER,UETP$_CONF,UETP$_SATSMS
                                     0000   500 	.GLOBL	UETP$_DDB,UETP$_UCB,UETP$_DEUNUS,UETP$_DESTP,UETP$_ABORTC
                                     0000   600 	.GLOBL	UETP$_DENOSU,UETP$_USER
                                     0000   700 ;
                                     0000   800 ;
                                     0000   900 ;	SHARED MESSAGES USED BY UETP
                                     0000  1000 	.GLOBL	UETP$_BEGIND,UETP$_ENDEDD,UETP$_OPENIN,UETP$_TEXT
                                     0000  1100 	.GLOBL	UETP$_ABENDD,UETP$_CLOSEIN,UETP$_ATPC
                                     0000  1200 	.GLOBL	UETP$_OPENOUT,UETP$_READERR,UETP$_WRITEERR
                                     0000  1300 ;
                                     0000  1400 ;
                                     0000  1500 	$SHR_MESSAGES	UETP,116,<<BEGIND,INFO>,<ENDEDD,INFO>,-
                                     0000  1600 				<OPENIN,ERROR>,<ABENDD,ERROR>,-
                                     0000  1700 				<OPENOUT,ERROR>,<READERR,ERROR>,-
                                     0000  1800 				<WRITEERR,ERROR>,<ATPC,INFO>,-
                                     0000  1900 				<TEXT,INFO>,<CLOSEIN,ERROR>>
                                     0000       	.SAVE
                                 00000000       	.PSECT	$ABS$,ABS
                                     0000       	.RESTORE
                                     0000  2000 	$JPIDEF	GLOBAL
                                     0000       	.SAVE
                                 00000000       	.PSECT	$ABS$,ABS
                                     0000       	.RESTORE
                                     0000  2100 	$MSGDEF
                                     0000       	.SAVE
                                 00000000       	.PSECT	$ABS$,ABS
                                     0000       	.RESTORE
                                     0000  2200 	$MTDEF	GLOBAL
                                     0000       	.SAVE
                                 00000000       	.PSECT	$ABS$,ABS
                                     0000       	.RESTORE
                                     0000  2300 	$PQLDEF	GLOBAL
                                     0000       	.SAVE
                                 00000000       	.PSECT	$ABS$,ABS
                                     0000       	.RESTORE
                                     0000  2400 	$UETPDEF
                                     0000       	.SAVE
                                 00000000       	.PSECT	$ABS$,ABS
                                     0000       	.RESTORE
                                     0000  2500 	.END
GBLSYMDEF       UETP GLOBAL SYMBOLS FOR LINKING                  22-AUG-1978 03:24:40   VAX-11 MACRO X0.3-11               Page   2
SYMBOL TABLE                                                                                                                     (1)

BIT...         = 00748343            JPI$_TQCNT     = 00000315  G         MT$M_LOST      = 00100000  G
GBL...         = 00000000            JPI$_TQLM      = 00000410  G         MT$M_PARITY    = 00000008  G
JPI$C_ADRTYPE  = 00000001  G         JPI$_UIC       = 00000304  G         MT$S_DENSITY   = 00000005  G
JPI$C_CTLTYPE  = 00000002  G         JPI$_USERNAME  = 00000202  G         MT$S_FORMAT    = 00000004  G
JPI$C_LISTEND  = 00000000  G         JPI$_VIRTPEAK  = 00000200  G         MT$V_BOT       = 00000010  G
JPI$C_PCBTYPE  = 00000003  G         JPI$_VOLUMES   = 00000205  G         MT$V_DENSITY   = 00000008  G
JPI$C_PHDTYPE  = 00000004  G         JPI$_WSAUTH    = 00000401  G         MT$V_EOF       = 00000011  G
JPI$_ACCOUNT   = 00000203  G         JPI$_WSPEAK    = 00000201  G         MT$V_EOT       = 00000012  G
JPI$_APTCNT    = 0000030A  G         JPI$_WSQUOTA   = 00000402  G         MT$V_FORMAT    = 00000004  G
JPI$_ASTACT    = 00000300  G         JPI$_WSSIZE    = 00000411  G         MT$V_HWL       = 00000013  G
JPI$_ASTCNT    = 0000030E  G         MSG$_ABOOPR    = 00000011            MT$V_LOST      = 00000014  G
JPI$_ASTEN     = 00000301  G         MSG$_ABORT     = 00000030            MT$V_PARITY    = 00000003  G
JPI$_ASTLM     = 00000409  G         MSG$_ACCRSP    = 00000021            PQL$_ASTLM     = 00000001  G
JPI$_BIOCNT    = 0000030F  G         MSG$_CONFIRM   = 00000031            PQL$_BIOLM     = 00000002  G
JPI$_BIOLM     = 00000310  G         MSG$_CONNECT   = 00000032            PQL$_BYTLM     = 00000003  G
JPI$_BUFIO     = 0000040C  G         MSG$_CRUNSOLIC = 00000002            PQL$_CPULM     = 00000004  G
JPI$_BYTCNT    = 00000311  G         MSG$_DELPROC   = 00000003  G         PQL$_DIOLM     = 00000005  G
JPI$_BYTLM     = 0000031A  G         MSG$_DELSMB    = 00000014            PQL$_FILLM     = 00000006  G
JPI$_CPULIM    = 0000040D  G         MSG$_DEVOFFLIN = 00000005            PQL$_LENGTH    = 0000000C  G
JPI$_CPUTIM    = 00000407  G         MSG$_DEVONLIN  = 00000007            PQL$_LISTEND   = 00000000  G
JPI$_CURPRIV   = 00000400  G         MSG$_DISCON    = 00000033            PQL$_PGFLQUOTA = 00000007  G
JPI$_DFPFC     = 00000406  G         MSG$_EXIT      = 00000034            PQL$_PRCLM     = 00000008  G
JPI$_DFWSCNT   = 00000403  G         MSG$_INIOPR    = 00000010            PQL$_TQELM     = 00000009  G
JPI$_DIOCNT    = 00000312  G         MSG$_INTMSG    = 00000035            PQL$_WSDEFAULT = 0000000B  G
JPI$_DIOLM     = 00000313  G         MSG$_OPREPLY   = 00000009            PQL$_WSQUOTA   = 0000000A  G
JPI$_DIRIO     = 0000040B  G         MSG$_OPRQST    = 00000008            SHR$K_SHRDEF   = 00000001
JPI$_EFCS      = 00000317  G         MSG$_PATHLOST  = 00000036            SHR$_ABEND     = 000010D8
JPI$_EFCU      = 00000318  G         MSG$_PROTOCOL  = 00000037            SHR$_ABENDD    = 000010E0
JPI$_EFWM      = 00000316  G         MSG$_REJECT    = 00000038            SHR$_ABENDT    = 000010E8
JPI$_EXCVEC    = 00000100  G         MSG$_RESOPR    = 00000013            SHR$_APPENDEDB = 00001000
JPI$_FILCNT    = 00000314  G         MSG$_SCANBAD   = 00000028            SHR$_APPENDEDR = 00001008
JPI$_FILLM     = 0000040F  G         MSG$_SCANRSP   = 00000029            SHR$_ATPC      = 00001158
JPI$_FINALEXC  = 00000101  G         MSG$_SMBDON    = 00000009            SHR$_BADBYTE   = 00001010
JPI$_FREP0VA   = 00000404  G         MSG$_SMBINI    = 00000008            SHR$_BADCOPIES = 00001160
JPI$_FREP1VA   = 00000405  G         MSG$_SMBRSP    = 00000020            SHR$_BADDELIM  = 00001118
JPI$_GPGCNT    = 0000030C  G         MSG$_SNDACC    = 0000000A            SHR$_BADFIELD  = 00001018
JPI$_GRP       = 00000308  G         MSG$_SNDSMB    = 00000004            SHR$_BADFORM   = 00001168
JPI$_LASTADR   = 00000102  G         MSG$_SUSOPR    = 00000012            SHR$_BADJOBID  = 00001170
JPI$_LASTCTL   = 00000207  G         MSG$_THIRDPARTY= 00000039            SHR$_BADJOBNAME= 00001178
JPI$_LASTPCB   = 0000031D  G         MSG$_TIMEOUT   = 0000003A            SHR$_BADKEY    = 00001108
JPI$_LASTPHD   = 00000412  G         MSG$_TRMHANGUP = 00000006            SHR$_BADLOGIC  = 00001120
JPI$_LOGINTIM  = 00000206  G         MSG$_TRMUNSOLIC= 00000001            SHR$_BADLOGICPC= 00001150
JPI$_MEM       = 00000307  G         MSG$_XM_ATTN   = 0000000D            SHR$_BADLONG   = 00001020
JPI$_OWNER     = 00000303  G         MSG$_XM_DATAVL = 0000000B            SHR$_BADPRTY   = 00001180
JPI$_PAGEFLTS  = 0000040A  G         MSG$_XM_SHUTDN = 0000000C            SHR$_BADQNAME  = 00001188
JPI$_PGFLQUOTA = 0000040E  G         MT$K_CORDMP11  = 0000000D  G         SHR$_BADTIME   = 00001190
JPI$_PID       = 00000319  G         MT$K_DEFAULT   = 00000000  G         SHR$_BADVALUE  = 00001110
JPI$_PPGCNT    = 0000030D  G         MT$K_NORMAL11  = 0000000C  G         SHR$_BADWORD   = 00001028
JPI$_PRCCNT    = 0000031B  G         MT$K_NORMAL15  = 0000000E  G         SHR$_BEGIN     = 00001030
JPI$_PRCLM     = 00000408  G         MT$K_NRZI_800  = 00000003  G         SHR$_BEGIND    = 00001038
JPI$_PRCNAM    = 0000031C  G         MT$K_PE_1600   = 00000004  G         SHR$_BEGINT    = 00001040
JPI$_PRI       = 00000302  G         MT$M_BOT       = 00010000  G         SHR$_CLICB     = 00001048
JPI$_PRIB      = 00000309  G         MT$M_DENSITY   = 00001F00  G         SHR$_CLOSEDEL  = 00001218
JPI$_PROCPRIV  = 00000204  G         MT$M_EOF       = 00020000  G         SHR$_CLOSEIN   = 00001050
JPI$_STATE     = 00000306  G         MT$M_EOT       = 00040000  G         SHR$_CLOSEOUT  = 00001058
JPI$_STS       = 00000305  G         MT$M_FORMAT    = 000000F0  G         SHR$_CONFDEL   = 000011F8
JPI$_TMBU      = 0000030B  G         MT$M_HWL       = 00080000  G         SHR$_COPIEDB   = 00001060
GBLSYMDEF       UETP GLOBAL SYMBOLS FOR LINKING                  22-AUG-1978 03:24:40   VAX-11 MACRO X0.3-11               Page   3
SYMBOL TABLE                                                                                                                     (1)

SHR$_COPIEDR   = 00001068            UETP$_OPENIN   = 0074109A  G
SHR$_CREATED   = 00001070            UETP$_OPENOUT  = 007410A2  G
SHR$_DELETED   = 00001200            UETP$_READERR  = 007410B2  G
SHR$_DELINTERR = 00001240            UETP$_SATSMS   = 007480D9  G
SHR$_DELVER    = 00001208            UETP$_TEXT     = 00741133  G
SHR$_DIRTOOBUS = 00001220            UETP$_UCB      = 007480E9  G
SHR$_ENDED     = 00001078            UETP$_USER     = 0074833B  G
SHR$_ENDEDD    = 00001080            UETP$_WRITEERR = 007410D2  G
SHR$_ENDEDT    = 00001088
SHR$_FILNOTDEL = 000011F0
SHR$_FILNOTPUR = 00001230
SHR$_FILPURGED = 00001250
SHR$_HASHCONCAT= 000011D8
SHR$_HIGHVER   = 00001148
SHR$_IDXCONCAT = 00001138
SHR$_INCOMPAT  = 000011E0
SHR$_NEWFILES  = 00001090
SHR$_NOFILPURG = 00001228
SHR$_NOJOBID   = 000011A0
SHR$_NOJOBNAME = 000011A8
SHR$_NOQUEUE   = 00001198
SHR$_NOTCMPLT  = 000011C0
SHR$_NOTCOPIED = 000011B8
SHR$_NOVALUE   = 00001100
SHR$_NOWILD    = 00001128
SHR$_OPENIN    = 00001098
SHR$_OPENOUT   = 000010A0
SHR$_OVERLAY   = 000010A8
SHR$_PARSEFAIL = 00001248
SHR$_PURGEVER  = 00001210
SHR$_READERR   = 000010B0
SHR$_RELCONCAT = 00001140
SHR$_REPLACED  = 000010B8
SHR$_RMSERROR  = 000011C8
SHR$_SEARCHFAIL= 00001238
SHR$_SYNTAX    = 000010F8
SHR$_SYSERROR  = 000011B0
SHR$_SYSERRORPC= 000010F0
SHR$_TEXT      = 00001130
SHR$_UNXPCTSTS = 000011D0
SHR$_VALERR    = 000011E8
SHR$_WILDCONCAT= 000010C0
SHR$_WILDOUTVER= 000010C8
SHR$_WRITEERR  = 000010D0
UETP$_ABENDD   = 007410E2  G
UETP$_ABORTC   = 0074832B  G
UETP$_ATPC     = 0074115B  G
UETP$_BEGIND   = 0074103B  G
UETP$_CLOSEIN  = 00741052  G
UETP$_CONF     = 007480D1  G
UETP$_DATAER   = 00748010  G
UETP$_DDB      = 007480E1  G
UETP$_DENOSU   = 00748333  G
UETP$_DESTP    = 007481A2  G
UETP$_DEUNUS   = 0074819A  G
UETP$_ENDEDD   = 00741083  G
UETP$_ERBOX    = 00748008  G
GBLSYMDEF       UETP GLOBAL SYMBOLS FOR LINKING                  22-AUG-1978 03:24:40   VAX-11 MACRO X0.3-11               Page   4
PROGRAM SECTION SYNOPSIS                                                                                                         (1)


PROGRAM SECTION SYNOPSIS

.  ABS  .        00000000      00     NOPIC   USR   CON   ABS   LCL NOSHR NOEXE NORD  NOWRT BYTE
. BLANK .        00000000      01     NOPIC   USR   CON   REL   LCL NOSHR   EXE   RD    WRT BYTE
$ABS$            00000000      02     NOPIC   USR   CON   ABS   LCL NOSHR   EXE   RD    WRT BYTE


THERE WERE NO ERRORS OR WARNINGS.
19094. BYTES LEFT IN FREE MEMORY POOL.
1898. BYTES OF RECLAIMED MEMORY.
OBJ$:GBLSYMDEF,LIS$:GBLSYMDEF/-SP=SRC$:UETPLIBS,GBLSYMDEF
29 MLB DIR RDS - 418 GETS TO DEFINE 16 MACROS. 71 INTER. FILE WRITES.
