RMSTESTR        RABS FOR XAB TEST PROGRAM ;                      22-AUG-1978 03:34:34   VAX-11 MACRO X0.3-11               Page   1
008                                                                                                                              (1)

                                     0000     1 ;	UETP prefix file (contains macro library file specs).
                                     0000     2 ;
                                     0000     3 	.LIBRARY	/EXECML$/	;SYSTEM MACROS
                                     0000     4 	.LIBRARY	/LIBD$:[SYSTST.OBJ]SYSTST.MLB/ ; PRIVATE UETP,SYSTST LIB
                                     0000     5 	.LIST	MEB
                                     0000     6 ;
                                     0000    31 	$BEGIN	RMSTESTR,008,__RMSTEST,<RABS FOR XAB TEST PROGRAM>,<GBL,LONG>
                                 00000000       	.PSECT	__RMSTEST,GBL,GBL,LONG
                                     0000    32 	$SHRDEF	GLOBAL
                                     0000       	.SAVE
                                 00000000       	.PSECT	$ABS$,ABS
                                 00000000       	.RESTORE
                                     0000    33 	.ALIGN LONG
                                     0000    34 $RABDEF GLOBAL
                                     0000       	.SAVE
                                 00000000       	.PSECT	$ABS$,ABS
                                     0000       RAB$B_BID:
                           00000001  0000        			.BLKB	1
                                     0001       RAB$B_BLN:
                           00000002  0001        			.BLKB	1
                                     0002       RAB$W_ISI:
                           00000004  0002        			.BLKW	1
                                     0004       RAB$L_ROP:
                           00000005  0004        			.BLKB	1
                                     0005       RAB$B_ROP1:
                           00000006  0005        			.BLKB	1
                                     0006       RAB$B_ROP2:
                           00000007  0006        			.BLKB	1
                                     0007       RAB$B_ROP3:
                           00000008  0007        			.BLKB	1
                                     0008       RAB$L_STS:
                           0000000C  0008        			.BLKL	1
                                     000C       RAB$L_STV:
                           00000010  000C        			.BLKL	1
                                     0010       RAB$W_RFA:
                                     0010       RAB$L_RFA0:
                           00000014  0010        			.BLKL	1
                                     0014       RAB$W_RFA4:
                           00000016  0014        			.BLKW	1
                           00000018  0016        			.BLKW	1
                                     0018       RAB$L_CTX:
                           0000001C  0018        			.BLKL	1
                           0000001E  001C        			.BLKW	1
                                     001E       RAB$B_RAC:
                           0000001F  001E        			.BLKB	1
                                     001F       RAB$B_TMO:
                           00000020  001F        			.BLKB	1
                                     0020       RAB$W_USZ:
                           00000022  0020        			.BLKW	1
                                     0022       RAB$W_RSZ:
                           00000024  0022        			.BLKW	1
                                     0024       RAB$L_UBF:
                           00000028  0024        			.BLKL	1
                                     0028       RAB$L_RBF:
                           0000002C  0028        			.BLKL	1
                                     002C       RAB$L_RHB:
                           00000030  002C        			.BLKL	1
RMSTESTR        RABS FOR XAB TEST PROGRAM ;                      22-AUG-1978 03:34:34   VAX-11 MACRO X0.3-11               Page   2
008                                                                                                                              (1)

                                     0030       RAB$L_KBF:
                                     0030       RAB$L_PBF:
                           00000034  0030        			.BLKL	1
                                     0034       RAB$B_KSZ:
                                     0034       RAB$B_PSZ:
                           00000035  0034        			.BLKB	1
                                     0035       RAB$B_KRF:
                           00000036  0035        			.BLKB	1
                                     0036       RAB$B_MBF:
                           00000037  0036        			.BLKB	1
                                     0037       RAB$B_MBC:
                           00000038  0037        			.BLKB	1
                                     0038       RAB$L_BKT:
                                     0038       RAB$L_DCT:
                           0000003C  0038        			.BLKL	1
                                     003C       RAB$L_FAB:
                           00000040  003C        			.BLKL	1
                           00000044  0040        			.BLKL	1
                                     0044       RAB$C_BLN:
                                     0044       RAB$K_BLN:
                                 00000000       	.RESTORE
                                     0000    35 T4RAB::	$RAB	FAB=T4FAB,UBF=CPYBUF,USZ=CPYBSZ,RBF=CPYBUF,MBC=4,MBF=2,-
                                     0000    36 		ROP=<WBH>,RHB=RECCNT,KBF=RECCNT
                                 01  0000       					.BYTE RAB$C_BID
                                 44  0001       					.BYTE RAB$C_BLN
                           00000044  0002       					.BLKB RAB$C_BLN-2
                           0000001E  0044       					.=$$.TAB+RAB$B_RAC
                                 00  001E       					.BYTE	<RAB$C_SEQ>
                           00000004  001F       					.=$$.TAB+RAB$L_ROP
                           00000400  0004       					.LONG	<$$.TMP>
                           00000024  0008       					.=$$.TAB+RAB$L_UBF
                           00000000' 0024       					.LONG	<CPYBUF>
                           00000020  0028       					.=$$.TAB+RAB$W_USZ
                               0000' 0020       					.WORD	<CPYBSZ>
                           00000028  0022       					.=$$.TAB+RAB$L_RBF
                           00000000' 0028       					.LONG	<CPYBUF>
                           00000022  002C       					.=$$.TAB+RAB$W_RSZ
                               0000  0022       					.WORD	<0>
                           00000038  0024       					.=$$.TAB+RAB$L_BKT
                           00000000  0038       					.LONG	<0>
                           00000030  003C       					.=$$.TAB+RAB$L_KBF
                           00000000' 0030       					.LONG	<RECCNT>
                                 00  0034       					.BYTE	<0>
                                 00  0035       					.BYTE	<0>
                           0000002C  0036       					.=$$.TAB+RAB$L_RHB
                           00000000' 002C       					.LONG	<RECCNT>
                           0000003C  0030       					.=$$.TAB+RAB$L_FAB
                           00000000' 003C       					.LONG	<T4FAB>
                           00000036  0040       					.=$$.TAB+RAB$B_MBF
                                 02  0036       					.BYTE	<2>
                                 04  0037       					.BYTE	<4>
                           0000001F  0038       					.=$$.TAB+RAB$B_TMO
                                 00  001F       					.BYTE	<0>
                           00000018  0020       					.=$$.TAB+RAB$L_CTX
                           00000000  0018       					.LONG	<0>
                           00000035  001C       					.=$$.TAB+RAB$B_KRF
                                 00  0035       					.BYTE	<0>
RMSTESTR        RABS FOR XAB TEST PROGRAM ;                      22-AUG-1978 03:34:34   VAX-11 MACRO X0.3-11               Page   3
008                                                                                                                              (1)

                           00000044  0036       				.=$$.TABEND
                                     0044    37 FLUSH_RAB:: $RAB		FAB=FLUSH_FAB,UBF=CPYBUF,USZ=CPYBSZ
                                 01  0044       					.BYTE RAB$C_BID
                                 44  0045       					.BYTE RAB$C_BLN
                           00000088  0046       					.BLKB RAB$C_BLN-2
                           00000062  0088       					.=$$.TAB+RAB$B_RAC
                                 00  0062       					.BYTE	<RAB$C_SEQ>
                           00000048  0063       					.=$$.TAB+RAB$L_ROP
                           00000000  0048       					.LONG	<$$.TMP>
                           00000068  004C       					.=$$.TAB+RAB$L_UBF
                           00000000' 0068       					.LONG	<CPYBUF>
                           00000064  006C       					.=$$.TAB+RAB$W_USZ
                               0000' 0064       					.WORD	<CPYBSZ>
                           0000006C  0066       					.=$$.TAB+RAB$L_RBF
                           00000000  006C       					.LONG	<0>
                           00000066  0070       					.=$$.TAB+RAB$W_RSZ
                               0000  0066       					.WORD	<0>
                           0000007C  0068       					.=$$.TAB+RAB$L_BKT
                           00000000  007C       					.LONG	<0>
                           00000074  0080       					.=$$.TAB+RAB$L_KBF
                           00000000  0074       					.LONG	<0>
                                 00  0078       					.BYTE	<0>
                                 00  0079       					.BYTE	<0>
                           00000070  007A       					.=$$.TAB+RAB$L_RHB
                           00000000  0070       					.LONG	<0>
                           00000080  0074       					.=$$.TAB+RAB$L_FAB
                           00000000' 0080       					.LONG	<FLUSH_FAB>
                           0000007A  0084       					.=$$.TAB+RAB$B_MBF
                                 00  007A       					.BYTE	<0>
                                 00  007B       					.BYTE	<0>
                           00000063  007C       					.=$$.TAB+RAB$B_TMO
                                 00  0063       					.BYTE	<0>
                           0000005C  0064       					.=$$.TAB+RAB$L_CTX
                           00000000  005C       					.LONG	<0>
                           00000079  0060       					.=$$.TAB+RAB$B_KRF
                                 00  0079       					.BYTE	<0>
                           00000088  007A       				.=$$.TABEND
                                     0088    38 .END
RMSTESTR        RABS FOR XAB TEST PROGRAM ;                      22-AUG-1978 03:34:34   VAX-11 MACRO X0.3-11               Page   4
SYMBOL TABLE                                                                                                                     (1)

$$.PSECT_EP    = 00000000            RAB$M_MAS      = 00000020  G         SHR$_APPENDEDR = 00001008  G
$$.TAB         = 00000044 R     02   RAB$M_NLK      = 00100000  G         SHR$_ATPC      = 00001158  G
$$.TABEND      = 00000088 R     02   RAB$M_NXR      = 00800000  G         SHR$_BADBYTE   = 00001010  G
$$.TMP         = 00000000            RAB$M_PMT      = 40000000  G         SHR$_BADCOPIES = 00001160  G
$$RMSTEST      = 0000001E            RAB$M_PPF_IND  = 00004000  G         SHR$_BADDELIM  = 00001118  G
$$RMS_PBUGCHK  = 00000010            RAB$M_PPF_RAT  = 00003FC0  G         SHR$_BADFIELD  = 00001018  G
$$RMS_TBUGCHK  = 00000008            RAB$M_PTA      = 20000000  G         SHR$_BADFORM   = 00001168  G
$$RMS_UMODE    = 00000004            RAB$M_RAH      = 00000200  G         SHR$_BADJOBID  = 00001170  G
BIT...         = 00000020            RAB$M_RLK      = 00080000  G         SHR$_BADJOBNAME= 00001178  G
CPYBSZ           ********   X   02   RAB$M_RNE      = 01000000  G         SHR$_BADKEY    = 00001108  G
CPYBUF           ********   X   02   RAB$M_RNF      = 08000000  G         SHR$_BADLOGIC  = 00001120  G
FLUSH_FAB        ********   X   02   RAB$M_TMO      = 02000000  G         SHR$_BADLOGICPC= 00001150  G
FLUSH_RAB        00000044 RG    02   RAB$M_TPT      = 00000002  G         SHR$_BADLONG   = 00001020  G
GBL...         = 00000001            RAB$M_UIF      = 00000010  G         SHR$_BADPRTY   = 00001180  G
RAB$B_BID        00000000  G         RAB$M_ULK      = 00040000  G         SHR$_BADQNAME  = 00001188  G
RAB$B_BLN        00000001  G         RAB$M_WAT      = 00020000  G         SHR$_BADTIME   = 00001190  G
RAB$B_KRF        00000035  G         RAB$M_WBH      = 00000400  G         SHR$_BADVALUE  = 00001110  G
RAB$B_KSZ        00000034  G         RAB$S_PPF_RAT  = 00000008  G         SHR$_BADWORD   = 00001028  G
RAB$B_MBC        00000037  G         RAB$V_ASY      = 00000000  G         SHR$_BEGIN     = 00001030  G
RAB$B_MBF        00000036  G         RAB$V_BIO      = 0000000B  G         SHR$_BEGIND    = 00001038  G
RAB$B_PSZ        00000034  G         RAB$V_CCO      = 0000001F  G         SHR$_BEGINT    = 00001040  G
RAB$B_RAC        0000001E  G         RAB$V_CVT      = 0000001A  G         SHR$_CLICB     = 00001048  G
RAB$B_ROP1       00000005  G         RAB$V_EOF      = 00000008  G         SHR$_CLOSEDEL  = 00001218  G
RAB$B_ROP2       00000006  G         RAB$V_FDL      = 00000006  G         SHR$_CLOSEIN   = 00001050  G
RAB$B_ROP3       00000007  G         RAB$V_HSH      = 00000007  G         SHR$_CLOSEOUT  = 00001058  G
RAB$B_TMO        0000001F  G         RAB$V_KGE      = 00000015  G         SHR$_CONFDEL   = 000011F8  G
RAB$C_BID      = 00000001  G         RAB$V_KGT      = 00000016  G         SHR$_COPIEDB   = 00001060  G
RAB$C_BLN        00000044  G         RAB$V_LIM      = 0000000E  G         SHR$_COPIEDR   = 00001068  G
RAB$C_KEY      = 00000001  G         RAB$V_LOA      = 0000000D  G         SHR$_CREATED   = 00001070  G
RAB$C_RFA      = 00000002  G         RAB$V_LOC      = 00000010  G         SHR$_DELETED   = 00001200  G
RAB$C_SEQ      = 00000000  G         RAB$V_MAS      = 00000005  G         SHR$_DELINTERR = 00001240  G
RAB$K_BLN        00000044  G         RAB$V_NLK      = 00000014  G         SHR$_DELVER    = 00001208  G
RAB$L_BKT        00000038  G         RAB$V_NXR      = 00000017  G         SHR$_DIRTOOBUS = 00001220  G
RAB$L_CTX        00000018  G         RAB$V_PMT      = 0000001E  G         SHR$_ENDED     = 00001078  G
RAB$L_DCT        00000038  G         RAB$V_PPF_IND  = 0000000E  G         SHR$_ENDEDD    = 00001080  G
RAB$L_FAB        0000003C  G         RAB$V_PPF_RAT  = 00000006  G         SHR$_ENDEDT    = 00001088  G
RAB$L_KBF        00000030  G         RAB$V_PTA      = 0000001D  G         SHR$_FILNOTDEL = 000011F0  G
RAB$L_PBF        00000030  G         RAB$V_RAH      = 00000009  G         SHR$_FILNOTPUR = 00001230  G
RAB$L_RBF        00000028  G         RAB$V_RLK      = 00000013  G         SHR$_FILPURGED = 00001250  G
RAB$L_RFA0       00000010  G         RAB$V_RNE      = 00000018  G         SHR$_HASHCONCAT= 000011D8  G
RAB$L_RHB        0000002C  G         RAB$V_RNF      = 0000001B  G         SHR$_HIGHVER   = 00001148  G
RAB$L_ROP        00000004  G         RAB$V_TMO      = 00000019  G         SHR$_IDXCONCAT = 00001138  G
RAB$L_STS        00000008  G         RAB$V_TPT      = 00000001  G         SHR$_INCOMPAT  = 000011E0  G
RAB$L_STV        0000000C  G         RAB$V_UIF      = 00000004  G         SHR$_NEWFILES  = 00001090  G
RAB$L_UBF        00000024  G         RAB$V_ULK      = 00000012  G         SHR$_NOFILPURG = 00001228  G
RAB$M_ASY      = 00000001  G         RAB$V_WAT      = 00000011  G         SHR$_NOJOBID   = 000011A0  G
RAB$M_BIO      = 00000800  G         RAB$V_WBH      = 0000000A  G         SHR$_NOJOBNAME = 000011A8  G
RAB$M_CCO      = 80000000  G         RAB$W_ISI        00000002  G         SHR$_NOQUEUE   = 00001198  G
RAB$M_CVT      = 04000000  G         RAB$W_RFA        00000010  G         SHR$_NOTCMPLT  = 000011C0  G
RAB$M_EOF      = 00000100  G         RAB$W_RFA4       00000014  G         SHR$_NOTCOPIED = 000011B8  G
RAB$M_FDL      = 00000040  G         RAB$W_RSZ        00000022  G         SHR$_NOVALUE   = 00001100  G
RAB$M_HSH      = 00000080  G         RAB$W_USZ        00000020  G         SHR$_NOWILD    = 00001128  G
RAB$M_KGE      = 00200000  G         RECCNT           ********   X   02   SHR$_OPENIN    = 00001098  G
RAB$M_KGT      = 00400000  G         SHR$_ABEND     = 000010D8  G         SHR$_OPENOUT   = 000010A0  G
RAB$M_LIM      = 00004000  G         SHR$_ABENDD    = 000010E0  G         SHR$_OVERLAY   = 000010A8  G
RAB$M_LOA      = 00002000  G         SHR$_ABENDT    = 000010E8  G         SHR$_PARSEFAIL = 00001248  G
RAB$M_LOC      = 00010000  G         SHR$_APPENDEDB = 00001000  G         SHR$_PURGEVER  = 00001210  G
RMSTESTR        RABS FOR XAB TEST PROGRAM ;                      22-AUG-1978 03:34:34   VAX-11 MACRO X0.3-11               Page   5
SYMBOL TABLE                                                                                                                     (1)

SHR$_READERR   = 000010B0  G
SHR$_RELCONCAT = 00001140  G
SHR$_REPLACED  = 000010B8  G
SHR$_RMSERROR  = 000011C8  G
SHR$_SEARCHFAIL= 00001238  G
SHR$_SYNTAX    = 000010F8  G
SHR$_SYSERROR  = 000011B0  G
SHR$_SYSERRORPC= 000010F0  G
SHR$_TEXT      = 00001130  G
SHR$_UNXPCTSTS = 000011D0  G
SHR$_VALERR    = 000011E8  G
SHR$_WILDCONCAT= 000010C0  G
SHR$_WILDOUTVER= 000010C8  G
SHR$_WRITEERR  = 000010D0  G
T4FAB            ********   X   02
T4RAB            00000000 RG    02


PROGRAM SECTION SYNOPSIS

.  ABS  .        00000000      00     NOPIC   USR   CON   ABS   LCL NOSHR NOEXE NORD  NOWRT BYTE
. BLANK .        00000000      01     NOPIC   USR   CON   REL   LCL NOSHR   EXE   RD    WRT BYTE
__RMSTEST        00000088      02     NOPIC   USR   CON   REL   GBL NOSHR   EXE   RD    WRT LONG
$ABS$            00000044      03     NOPIC   USR   CON   ABS   LCL NOSHR   EXE   RD    WRT BYTE


THERE WERE NO ERRORS OR WARNINGS.
18802. BYTES LEFT IN FREE MEMORY POOL.
1558. BYTES OF RECLAIMED MEMORY.
OBJ$:RMSTESTR,LIS$:RMSTESTR/-SP=SRC$:UETPLIBS,SRCD$:[RMSTEST]RMSTESTR
40 MLB DIR RDS - 391 GETS TO DEFINE 19 MACROS. 60 INTER. FILE WRITES.
