RMSTEST2        BLOCK I/O TEST PROGRAM ;                         22-AUG-1978 03:28:24   VAX-11 MACRO X0.3-11               Page   1
004                                                                                                                              (1)

                                     0000     1 ;	UETP prefix file (contains macro library file specs).
                                     0000     2 ;
                                     0000     3 	.LIBRARY	/EXECML$/	;SYSTEM MACROS
                                     0000     4 	.LIBRARY	/LIBD$:[SYSTST.OBJ]SYSTST.MLB/ ; PRIVATE UETP,SYSTST LIB
                                     0000     5 	.LIST	MEB
                                     0000     6 ;
                                     0000    31 	$BEGIN	RMSTEST2,004,__RMSTEST,<BLOCK I/O TEST PROGRAM>,<GBL,LONG>
                                 00000000       	.PSECT	__RMSTEST,GBL,GBL,LONG
                                     0000    32 ;
                                     0000    33 	.ENABL DBG
                                     0000    34 ;  THIS PROGRAM PROVIDES SEVERAL TESTS OF THE BLOCK I/O FACILITY
                                     0000    35 ;  INCLUDING MIXED BLOCK AND RECORD OPERATIONS
                                     0000    36 ;
                                     0000    37 ;  CURRENTLY TESTS SEQUENTIAL FILE ORG ONLY.
                                     0000    38 ;
                                     0000    39 ;
                                     0000    40 	$RMSDEF
                                     0000       	.SAVE
                                 00000000       	.PSECT	$ABS$,ABS
                                 00000000       	.RESTORE
                                     0000    41 .NLIST MEB
                                     0000    42 ;
                                     0000    43 ;  MACROS:
                                     0000    44 ;
                                     0000    45 	.MACRO	BUFF	NAM,SIZE
                                     0000    46 NAM'BUF::	.BLKB	SIZE
                                     0000    47 NAM'BSZ==SIZE
                                     0000    48 	.ENDM	BUFF
                                     0000    49 ;
                                     0000    50 ;
                                     0000    51 ;
                                     0000    52 	.MACRO	TYPE	STRING, ?L
                                     0000    53 	STORE	<STRING>
                                     0000    54 	BLBC	VERBOSITY,L
                                     0000    55 	MOVL	#$$.TMPX,CMDORAB+RAB$L_RBF
                                     0000    56 	MOVW	#$$.TMPX1,CMDORAB+RAB$W_RSZ
                                     0000    57 	$PUT	RAB=CMDORAB,ERR=REPORT_ERROR
                                     0000    58 	BSBW	ERR
                                     0000    59    L:
                                     0000    60 	.ENDM	TYPE
                                     0000    61 ;
                                     0000    62 	.MACRO	STORE	STRING,PRE
                                     0000    63 	.SAVE
                                     0000    64 	.PSECT	__$RMSNAM
                                     0000    65 	$$.TMPX=.
                                     0000    66 	PRE				; STORE ANY CARRIAGE CONTROL INFO
                                     0000    67 	.ASCII	%STRING%
                                     0000    68 	$$.TMPX1=.-$$.TMPX
                                     0000    69 	.RESTORE
                                     0000    70 	.ENDM	STORE
                                     0000    71 ;
RMSTEST2        BLOCK I/O TEST PROGRAM ;                         22-AUG-1978 03:28:24   VAX-11 MACRO X0.3-11               Page   2
004                                                                                                                              (1)

                                     0000    73 	.MACRO BEGIN TSTNAM
                                     0000    74 		STORE	<TSTNAM>
                                     0000    75 		MOVL	#$$.TMPX,BEG_DESCR+4		;ADDR
                                     0000    76 		MOVL	#$$.TMPX1,BEG_DESCR		;LEN
                                     0000    77 		BSBW BEGPUT
                                     0000    78 	.ENDM BEGIN
                                     0000    79 	.MACRO FINISH	TSTNAM
                                     0000    80 		STORE	<TSTNAM>
                                     0000    81 		MOVL	#$$.TMPX,FIN_DESCR+4		;ADDR
                                     0000    82 		MOVL	#$$.TMPX1,FIN_DESCR		;LEN
                                     0000    83 		BSBW FINPUT
                                     0000    84 	.ENDM FINISH
                                     0000    85 	.MACRO FIELD FLDNAM
                                     0000    86 		STORE <FLDNAM>
                                     0000    87 		MOVL	#$$.TMPX,FLD_DESCR+4		;ADDR
                                     0000    88 		MOVL	#$$.TMPX1,FLD_DESCR		;LEN
                                     0000    89 		BSBW FLDPUT
                                     0000    90 	.ENDM FIELD
                                     0000    91 	.MACRO MBPT,?L
                                     0000    92 	BLBC	VERBOSITY,L
                                     0000    93 	BPT
                                     0000    94    L:
                                     0000    95 	.ENDM MBPT
                                     0000    96 ;
RMSTEST2        BLOCK I/O TEST PROGRAM ;                         22-AUG-1978 03:28:24   VAX-11 MACRO X0.3-11               Page   3
004                                                                                                                              (1)

                                     0000    98 ;
                                 00000000    99 	.PSECT	__RMSTEST,GBL,LONG
                                     0000   100 T2START::
                                     0000   101 	.ALIGN LONG
                                     0000   102 T2FAB::	$FAB	FAC=<BIO,PUT>,FNM=<TST$DISK:T2FILE.DAT;1>,ORG=SEQ,RFM=FIX,-
                                     0000   103 		RAT=BLK,MRS=128,NAM=NAMBLK,FOP=<SUP>,ALQ=10,DEQ=10
                                     0050   104 T2RAB::	$RAB	FAB=T2FAB,UBF=CPYBUF,USZ=CPYBSZ,RBF=CPYBUF,MBC=4,MBF=2,-
                                     0050   105 		RSZ=512,ROP=<WBH>
                           0000009C  0094   106 RFASAV:	.BLKW	4
                                     009C   107 ;
                                     009C   108 ;
                                     009C   109 TST$BLOCKIO::
                               0FFC  009C   110 	.WORD	^M<R2,R3,R4,R5,R6,R7,R8,R9,R10,R11>
                                     009E   111 	BEGIN	<BLOCK I/O TESTS>
                                     00B3   112 	$CREATE	FAB=T2FAB,ERR=REPORT_ERROR
                          FF39'  30  00C4   113 	BSBW	ERR
            5B         86 AF     DE  00C7   114 	MOVAL	T2RAB,R11
                                     00CB   115 	$CONNECT	RAB=R11,ERR=REPORT_ERROR
                          FF23'  30  00DA   116 	BSBW	ERR
                          58     D4  00DD   117 	CLRL	R8					;VBN COUNT
                          57     D4  00DF   118 	CLRL	R7
                                     00E1   119 ;
                                     00E1   120 ;  FILL BLOCK BUFFER
                                     00E1   121 ;
            53         28 BB     9E  00E1   122 FILBUF:	MOVAB	@RAB$L_RBF(R11),R3			;GET BUFF ADDR
                          57     D6  00E5   123 10$:	INCL	R7					;NEXT REC
            6E            00     2C  00E7   124 	MOVC5	#0,(SP),R7,#128,(R3)			;BUILD REC
       0080 8F            57         00EA
                          63         00EE
            57            03     D3  00EF   125 	BITL	#3,R7					;4TH REC
                          F1     12  00F2   126 	BNEQ	10$					;BRANCH IF NOT
                                     00F4   127 	$WRITE	RAB=R11,ERR=REPORT_ERROR
                          FEFA'  30  0103   128 	BSBW	ERR
                          58     D6  0106   129 	INCL	R8					;BUMP VBN
         10 AB            58     D1  0108   130 	CMPL	R8,RAB$W_RFA(R11)			;MATCH?
                          1D     13  010C   131 	BEQL	RFAOK
                                     010E   132 	FIELD	<RFA>
                                     0123   133 	MBPT
                                     012B   134 RFAOK:
            3F            58     D1  012B   135 	CMPL	R8,#63					;END?
                          B1     1B  012E   136 	BLEQU	FILBUF					;NOT YET
                                     0130   137 ;
                                     0130   138 	$CLOSE	FAB=T2FAB,ERR=REPORT_ERROR
                          FEBC'  30  0141   139 	BSBW	ERR
                       02 AB     B4  0144   140 	CLRW	RAB$W_ISI(R11)				;ALLOW RAB REUSE
                                     0147   141 	TYPE	<FINISHED TEST 1 - BEGINNING TEST 2>
                          00     11  0176   142 	BRB	TEST2
                                     0178   143 ;
RMSTEST2        BLOCK I/O TEST PROGRAM ;                         22-AUG-1978 03:28:24   VAX-11 MACRO X0.3-11               Page   4
004                                                                                                                              (1)

                                     0178   145 ;
                                     0178   146 ;  RE-READ FILE CREATED IN TEST 1 AND TRY RANDOM AND SEQUENTIAL GETS & READS
                                     0178   147 ;
       FE83 CF   01000000 8F     C8  0178   148 TEST2:	BISL2	#FAB$M_NAM,T2FAB+FAB$L_FOP
       FE8F CF         43 8F     90  0181   149 	MOVB	#FAB$M_BRO!FAB$M_GET!FAB$M_PUT,T2FAB+FAB$B_FAC
       FE74 CF   00300000 8F     CA  0187   150 	BICL	#FAB$M_CBT!FAB$M_CTG,FAB$L_FOP+T2FAB	;FOR CTG/CBT TEST
                                     0190   151 	$OPEN	FAB=T2FAB,ERR=REPORT_ERROR
                          FE5C'  30  01A1   152 	BSBW	ERR
       FE5B CF            14     E1  01A4   153 	BBC	#FAB$V_CTG,FAB$L_FOP+T2FAB,CTGOK
                          15         01A9
                                     01AA   154 	FIELD	<CTG BIT SET, THEREFORE>
                                     01BF   155 CTGOK:
       FE40 CF            15     E1  01BF   156 	BBC	#FAB$V_CBT,FAB$L_FOP+T2FAB,BACK
                          15         01C4
                                     01C5   157 	FIELD	<CBT BIT SET, THEREFORE>
                                     01DA   158 BACK:
                                     01DA   159 ;	MOVW	#128,RAB$W_RSZ(R11)	;\NEEDED?\
         04 AB   00000200 8F     D0  01DA   160 	MOVL	#RAB$M_RAH,RAB$L_ROP(R11)
                                     01E2   161 	$CONNECT	RAB=R11,ERR=REPORT_ERROR
                          FE0C'  30  01F1   162 	BSBW	ERR
                                     01F4   163 ;
                                     01F4   164 ;  TRY DOING GETS ON ALL RECORDS SEQUENTIALLY
                                     01F4   165 ;
                          57     D4  01F4   166 	CLRL	R7					;RECORD COUNT
                                     01F6   167 GETREC:	$GET	R11
            12            50     E8  01FF   168 	BLBS	R0,10$
   0001827A 8F            50     D1  0202   169 	CMPL	R0,#RMS$_EOF
                          52     13  0209   170 	BEQL	T2EOF
            5A            5B     D0  020B   171 	MOVL	R11,R10
                          FDEF'  30  020E   172 	BSBW	REPORT_ERR
                          FDEC'  30  0211   173 	BSBW	ERR
                          57     D6  0214   174 10$:	INCL	R7					;BUMP REC COUNT
         28 BB       0080 8F     2D  0216   175 	CMPC5	#128,@RAB$L_RBF(R11),R7,#0,(SP)		;DATA OK?
            00            57         021C
                          6E         021E
                          15     13  021F   176 	BEQL	RECOK
                                     0221   177 	FIELD	<RECORD CONTENTS>
                                     0236   178 RECOK:
       0080 8F         22 AB     B1  0236   179 	CMPW	RAB$W_RSZ(R11),#128
                          1D     13  023C   180 	BEQL	RSZOK
                                     023E   181 	FIELD	<RECORD SIZE>
                                     0253   182 	MBPT
                                     025B   183 RSZOK:
                          99     11  025B   184 	BRB	GETREC
                                     025D   185 ;
   00000100 8F            57     D1  025D   186 T2EOF:	CMPL	R7,#256
                          0E     13  0264   187 	BEQL	TEST2A
            5A            5B     D0  0266   188 	MOVL	R11,R10
                          FD94'  30  0269   189 	BSBW	EOFPUT				;REPLACED TYPE <BAD EOF>
                                     026C   190 	MBPT
                                     0274   191 ;
RMSTEST2        BLOCK I/O TEST PROGRAM ;                         22-AUG-1978 03:28:24   VAX-11 MACRO X0.3-11               Page   5
004                                                                                                                              (1)

                                     0274   193 ;
                                     0274   194 ;  NOW TRY SEQUENTIAL READS
                                     0274   195 ;
                                     0274   196 TEST2A:
                                     0274   197 	TYPE	<FINISHED TEST 2 - BEGINNING TEST 2A>
         38 AB            01     D0  02A3   198 	MOVL	#1,RAB$L_BKT(R11)
                          58     D4  02A7   199 	CLRL	R8					;VBN
                                     02A9   200 READVB:	$READ	R11
            0C            50     E8  02B2   201 	BLBS	R0,10$
   0001827A 8F            50     D1  02B5   202 	CMPL	R0,#RMS$_EOF
                          0D     13  02BC   203 	BEQL	T2AEOF
                          FD3F'  30  02BE   204 	BSBW	ERR
                          58     D6  02C1   205 10$:	INCL	R8
                          02C6   30  02C3   206 	BSBW	CHKBLK					;VERIFY CONTENTS
                       38 AB     D4  02C6   207 	CLRL	RAB$L_BKT(R11)				;GET SEQUENTIAL OPERATION
                          DE     11  02C9   208 	BRB	READVB
                                     02CB   209 ;
   00000040 8F            58     D1  02CB   210 T2AEOF:	CMPL	R8,#64
                          0E     13  02D2   211 	BEQL	TEST2B
            5A            5B     D0  02D4   212 	MOVL	R11,R10
                          FD26'  30  02D7   213 	BSBW	EOFPUT				;REPLACED TYPE <BAD EOF>
                                     02DA   214 	MBPT
RMSTEST2        BLOCK I/O TEST PROGRAM ;                         22-AUG-1978 03:28:24   VAX-11 MACRO X0.3-11               Page   6
004                                                                                                                              (1)

                                     02E2   216 ;
                                     02E2   217 ;  NOW TRY MIXED READS, WRITES, GETS, AND PUTS
                                     02E2   218 ;
                                     02E2   219 TEST2B:
                                     02E2   220 	TYPE	<FINISHED TEST 2A - BEGINNING TEST 2B>
                                     0311   221 ;
                                     0311   222 ;  MULTIPLE BLOCK TEST
                                     0311   223 ;
         20 AB       0204 8F     B0  0311   224 	MOVW	#516,RAB$W_USZ(R11)
         38 AB            09     D0  0317   225 	MOVL	#9,RAB$L_BKT(R11)
                                     031B   226 	$READ	RAB=R11,ERR=REPORT_ERROR
                          FCD3'  30  032A   227 	BSBW	ERR
            58            09     D0  032D   228 	MOVL	#9,R8
                          0259   30  0330   229 	BSBW	CHKBLK
                       38 AB     D4  0333   230 	CLRL	RAB$L_BKT(R11)
                                     0336   231 	$READ	RAB=R11,ERR=REPORT_ERROR
                          FCB8'  30  0345   232 	BSBW	ERR
            58            0B     D0  0348   233 	MOVL	#11,R8
                          023E   30  034B   234 	BSBW	CHKBLK
   2D2D2D2D 8F   00000200'EF     D1  034E   235 	CMPL	CPYBUF+512,#^X2D2D2D2D
                          1D     13  0359   236 	BEQL	TEST2B2
                                     035B   237 	FIELD	<DATA>
                                     0370   238 	MBPT
                                     0378   239 ;
                                     0378   240 ;  TEST SHORT BLOCK WRITE AND AUTO EXTEND OF FILE
                                     0378   241 ;
                                     0378   242 TEST2B2:
                 00000000'EF     D4  0378   243 	CLRL	CPYBUF
         22 AB            04     B0  037E   244 	MOVW	#4,RAB$W_RSZ(R11)
         38 AB   00000050 8F     D0  0382   245 	MOVL	#80,RAB$L_BKT(R11)			;CAUSE FILE EXTEND
                                     038A   246 	$WRITE	RAB=R11,ERR=REPORT_ERROR
                          FC64'  30  0399   247 	BSBW	ERR
                       22 AB     B4  039C   248 	CLRW	RAB$W_RSZ(R11)
         20 AB       0200 8F     B0  039F   249 	MOVW	#512,RAB$W_USZ(R11)
                                     03A5   250 	$READ	RAB=R11,ERR=REPORT_ERROR
                          FC49'  30  03B4   251 	BSBW	ERR
                                     03B7   252 				;SINCE BKT IS STILL 80, READ THAT BLK
                                     03B7   253 				;USED TO EXPECT EOF ERROR, NO LONGER
            04         22 AB     B1  03B7   254 	CMPW	RAB$W_RSZ(R11),#4
                          1D     13  03BB   255 	BEQL	RSZOK1
                                     03BD   256 	FIELD	<RECORD SIZE>
                                     03D2   257 	MBPT
                                     03DA   258 RSZOK1:
   00000000'EF       0200 8F     2D  03DA   259 	CMPC5	#512,CPYBUF,#0,#0,(SP)
            00            00         03E3
                          6E         03E5
                          1D     13  03E6   260 	BEQL	TEST2B3
                                     03E8   261 	FIELD	<DATA>
                                     03FD   262 	MBPT
                                     0405   263 TEST2B3:
         1E AB            02     90  0405   264 	MOVB	#RAB$C_RFA,RAB$B_RAC(R11)		;GET RFA ACCESS
         10 AB   00000050 8F     D0  0409   265 	MOVL	#80,RAB$W_RFA(R11)			;GIVE THE RFA
                       14 AB     B4  0411   266 	CLRW	RAB$W_RFA+4(R11)
   00000000'EF            01     D0  0414   267 	MOVL	#1,CPYBUF
                                     041B   268 	$GET	RAB=R11,ERR=REPORT_ERROR
                          FBD3'  30  042A   269 	BSBW	ERR
   00000000'EF       0080 8F     2D  042D   270 	CMPC5	#128,CPYBUF,#0,#0,(SP)
RMSTEST2        BLOCK I/O TEST PROGRAM ;                         22-AUG-1978 03:28:24   VAX-11 MACRO X0.3-11               Page   7
004                                                                                                                              (1)

            00            00         0436
                          6E         0438
                          1D     13  0439   271 	BEQL	TEST2B4
                                     043B   272 	FIELD	<DATA>
                                     0450   273 	MBPT
RMSTEST2        BLOCK I/O TEST PROGRAM ;                         22-AUG-1978 03:28:24   VAX-11 MACRO X0.3-11               Page   8
004                                                                                                                              (1)

                                     0458   275 ;
                                     0458   276 ;  CHECK THAT  WE CAN PUT TO EOF
                                     0458   277 ;
                                     0458   278 TEST2B4:
         1E AB            00     90  0458   279 	MOVB	#RAB$C_SEQ,RAB$B_RAC(R11)	;SEQUENTIAL MODE
   00000000'EF   000012AF 8F     D0  045C   280 	MOVL	#4783,CPYBUF			;FUNNY DATA
                                     0467   281 	$PUT	RAB=R11,ERR=REPORT_ERROR
                          FB87'  30  0476   282 	BSBW	ERR
         10 AB            06     28  0479   283 	MOVC3	#6,RAB$W_RFA(R11),RFASAV
                     FC14 CF         047D
         38 AB            01     D0  0480   284 	MOVL	#1,RAB$L_BKT(R11)		;READ BLK 1 IN BETWEEN
                                     0484   285 	$READ	RAB=R11,ERR=REPORT_ERROR
                          FB6A'  30  0493   286 	BSBW	ERR
            58            01     D0  0496   287 	MOVL	#1,R8
                          00F0   30  0499   288 	BSBW	CHKBLK
         1E AB            02     90  049C   289 	MOVB	#RAB$C_RFA,RAB$B_RAC(R11)
       FBEF CF            06     28  04A0   290 	MOVC3	#6,RFASAV,RAB$W_RFA(R11)
                       10 AB         04A5
                                     04A7   291 	$GET	RAB=R11,ERR=REPORT_ERROR
                          FB47'  30  04B6   292 	BSBW	ERR
   000012AF 8F   00000000'EF     D1  04B9   293 	CMPL	CPYBUF,#4783			;FUNNY DATA BACK?
                          1D     13  04C4   294 	BEQL	TESTEND
                                     04C6   295 	FIELD	<DATA>
                                     04DB   296 	MBPT
                                     04E3   297 ;
                                     04E3   298 TESTEND:
                                     04E3   299 	$CLOSE	FAB=T2FAB,ERR=REPORT_ERROR
                          FB09'  30  04F4   300 	BSBW	ERR
                                     04F7   301 	FINISH	<BLOCK I/O TESTS>
                       02 AB     B4  050C   302 	CLRW	RAB$W_ISI(R11)			;MAKE TEST RESTARTABLE
       FAF0 CF            04     D0  050F   303 	MOVL	#FAB$M_SUP,T2FAB+FAB$L_FOP
       FAFD CF            21     90  0514   304 	MOVB	#FAB$M_PUT!FAB$M_BIO,T2FAB+FAB$B_FAC
         04 AB   00000400 8F     D0  0519   305 	MOVL	#RAB$M_WBH,RAB$L_ROP(R11)
         22 AB       0200 8F     B0  0521   306 	MOVW	#512,RAB$W_RSZ(R11)
                       38 AB     D4  0527   307 	CLRL	RAB$L_BKT(R11)
         1E AB            00     90  052A   308 	MOVB	#RAB$C_SEQ,RAB$B_RAC(R11)
                                     052E   309 ; BUT FIRST ERASE THE FILE BY NAMBLK
       FACD CF   01000000 8F     C8  052E   310 	BISL2	#FAB$M_NAM,FAB$L_FOP+T2FAB
                     FAF1 CF     D4  0537   311 	CLRL	FAB$L_FNA+T2FAB
                     FAF5 CF     94  053B   312 	CLRB	FAB$B_FNS+T2FAB
                                     053F   313 	$ERASE	FAB=T2FAB,ERR=REPORT_ERROR
                          FAAD'  30  0550   314 	BSBW	ERR
                                     0553   315 	TYPE	<T2FILE.DAT HAS BEEN ERASED BY NAMBLK>
       FA79 CF   01000000 8F     CA  0582   316 	BICL	#FAB$M_NAM,FAB$L_FOP+T2FAB		;FOR RE-ENTRY
                                 04  058B   317 	RET
RMSTEST2        BLOCK I/O TEST PROGRAM ;                         22-AUG-1978 03:28:24   VAX-11 MACRO X0.3-11               Page   9
004                                                                                                                              (1)

                                     058C   319 ;
                                     058C   320 ;  CHKBLK SUBROUTINE TO VERIFY WE READ THE RIGHT BLOCK
                                     058C   321 ;
         10 AB            58     D1  058C   322 CHKBLK:	CMPL	R8,RAB$W_RFA(R11)
                          1D     13  0590   323 	BEQL	CHKB1
                                     0592   324 	FIELD	<RFA>
                                     05A7   325 	MBPT
         20 AB         22 AB     B1  05AF   326 CHKB1:	CMPW	RAB$W_RSZ(R11),RAB$W_USZ(R11)
                          1D     13  05B4   327 	BEQL	CHKB2
                                     05B6   328 	FIELD	<RSZ>
                                     05CB   329 	MBPT
            58            02     9C  05D3   330 CHKB2:	ROTL	#2,R8,R6
                          56         05D6
            56            03     C2  05D7   331 	SUBL2	#3,R6				;GET STARTING  REC #
            51         28 BB     9E  05DA   332 	MOVAB	@RAB$L_RBF(R11),R1
            61       0080 8F     2D  05DE   333 RIGHT:	CMPC5	#128,(R1),R6,#0,(SP)		;RIGHT DATA?
            00            56         05E3
                          6E         05E5
                          1D     13  05E6   334 	BEQL	AOK
                                     05E8   335 	FIELD	<DATA>
                                     05FD   336 	MBPT
                          56     D6  0605   337 AOK:	INCL	R6				;NEXT RECORD
            02            00     ED  0607   338 	CMPZV	#0,#2,R6,#1			;DONE WITH BLOCK?
            01            56         060A
                          D0     12  060C   339 	BNEQ	RIGHT
                                 05  060E   340 	RSB
                                     060F   341 ;
                                     060F   342 	.END
RMSTEST2        BLOCK I/O TEST PROGRAM ;                         22-AUG-1978 03:28:24   VAX-11 MACRO X0.3-11               Page  10
SYMBOL TABLE                                                                                                                     (1)

$$.PSECT_EP    = 00000000            FAB$L_JNL        00000020    D       FAB$M_WCK      = 00000200
$$.TAB         = 00000050 R  D  02   FAB$L_MRN        00000038    D       FAB$S_ORG      = 00000004
$$.TABEND      = 00000094 R  D  02   FAB$L_NAM        00000028    D       FAB$S_PPF_RAT  = 00000008
$$.TMP         = 00000400    D       FAB$L_SDC        00000044            FAB$V_BIO      = 00000005    D
$$.TMP1        = 00000002    D       FAB$L_STS        00000008            FAB$V_BLK      = 00000003    D
$$.TMP2        = 000000EF            FAB$L_STV        0000000C            FAB$V_BRO      = 00000006
$$.TMPX        = 00000115 R  D  05   FAB$L_XAB        00000024    D       FAB$V_CBT      = 00000015    D
$$.TMPX1       = 00000004    D       FAB$M_BIO      = 00000020    D       FAB$V_CIF      = 00000019
$$RMSTEST      = 0000001E            FAB$M_BLK      = 00000008            FAB$V_CR       = 00000001
$$RMS_PBUGCHK  = 00000010            FAB$M_BRO      = 00000040    D       FAB$V_CTG      = 00000014    D
$$RMS_TBUGCHK  = 00000008            FAB$M_CBT      = 00200000    D       FAB$V_DEL      = 00000002
$$RMS_UMODE    = 00000004            FAB$M_CIF      = 02000000            FAB$V_DFW      = 00000005
AOK              00000605 R  D  02   FAB$M_CR       = 00000002            FAB$V_DLT      = 0000000F
BACK             000001DA R  D  02   FAB$M_CTG      = 00100000    D       FAB$V_DMO      = 0000000C
BEGPUT           ********   X   02   FAB$M_DEL      = 00000004            FAB$V_ESC      = 0000001B
BEG_DESCR        ********   X   02   FAB$M_DFW      = 00000020            FAB$V_EXE      = 00000007
BIT...         = 00000020    D       FAB$M_DLT      = 00008000            FAB$V_FTN      = 00000000
CHKB1            000005AF R  D  02   FAB$M_DMO      = 00001000            FAB$V_GET      = 00000001
CHKB2            000005D3 R  D  02   FAB$M_ESC      = 08000000            FAB$V_INP      = 00000013
CHKBLK           0000058C R  D  02   FAB$M_EXE      = 00000080            FAB$V_JNL      = 00000016
CMDORAB          ********   X   02   FAB$M_FTN      = 00000001            FAB$V_KFO      = 0000001E
CPYBSZ           ********   X   02   FAB$M_GET      = 00000002    D       FAB$V_MSE      = 00000004
CPYBUF           ********   X   02   FAB$M_INP      = 00080000            FAB$V_MXV      = 00000001
CTGOK            000001BF R  D  02   FAB$M_JNL      = 00400000            FAB$V_NAM      = 00000018
EOFPUT           ********   X   02   FAB$M_KFO      = 40000000            FAB$V_NEF      = 0000000A
ERR              ********   X   02   FAB$M_MSE      = 00000010            FAB$V_NFS      = 00000010
FAB$B_BID        00000000            FAB$M_MXV      = 00000002            FAB$V_NIL      = 00000005
FAB$B_BKS        0000003E    D       FAB$M_NAM      = 01000000    D       FAB$V_OFP      = 0000001D
FAB$B_BLN        00000001            FAB$M_NEF      = 00000400            FAB$V_ORG      = 00000004
FAB$B_DNS        00000035    D       FAB$M_NFS      = 00010000            FAB$V_POS      = 00000008
FAB$B_FAC        00000016    D       FAB$M_NIL      = 00000020            FAB$V_PPF      = 00000012
FAB$B_FNS        00000034    D       FAB$M_OFP      = 20000000            FAB$V_PPF_IND  = 0000000E
FAB$B_FSZ        0000003F    D       FAB$M_POS      = 00000100            FAB$V_PPF_RAT  = 00000006
FAB$B_ORG        0000001D    D       FAB$M_PPF      = 00040000            FAB$V_PRN      = 00000002
FAB$B_RAT        0000001E    D       FAB$M_PPF_IND  = 00004000            FAB$V_PUT      = 00000000    D
FAB$B_RFM        0000001F    D       FAB$M_PPF_RAT  = 00003FC0            FAB$V_RCK      = 00000017
FAB$B_RTV        0000001C    D       FAB$M_PRN      = 00000004            FAB$V_RWC      = 0000000B
FAB$B_SHR        00000017    D       FAB$M_PUT      = 00000001    D       FAB$V_RWO      = 00000007
FAB$C_BID      = 00000003    D       FAB$M_RCK      = 00800000            FAB$V_SCF      = 0000000E
FAB$C_BLN        00000050    D       FAB$M_RWC      = 00000800            FAB$V_SHRDEL   = 00000002
FAB$C_FIX      = 00000001    D       FAB$M_RWO      = 00000080            FAB$V_SHRGET   = 00000001
FAB$C_HSH      = 00000030            FAB$M_SCF      = 00004000            FAB$V_SHRPUT   = 00000000
FAB$C_IDX      = 00000020            FAB$M_SHRDEL   = 00000004            FAB$V_SHRUPD   = 00000003
FAB$C_MAXRFM   = 00000003            FAB$M_SHRGET   = 00000002            FAB$V_SPL      = 0000000D
FAB$C_REL      = 00000010            FAB$M_SHRPUT   = 00000001            FAB$V_SQO      = 00000006
FAB$C_RFM_DFLT = 00000002            FAB$M_SHRUPD   = 00000008            FAB$V_SUP      = 00000002    D
FAB$C_SEQ      = 00000000    D       FAB$M_SPL      = 00002000            FAB$V_TEF      = 0000001C
FAB$C_UDF      = 00000000            FAB$M_SQO      = 00000040            FAB$V_TMD      = 00000004
FAB$C_VAR      = 00000002            FAB$M_SUP      = 00000004    D       FAB$V_TMP      = 00000003
FAB$C_VFC      = 00000003            FAB$M_TEF      = 10000000            FAB$V_TRN      = 00000004
FAB$K_BLN        00000050            FAB$M_TMD      = 00000010            FAB$V_UFM      = 0000001A
FAB$L_ALQ        00000010    D       FAB$M_TMP      = 00000008            FAB$V_UFO      = 00000011
FAB$L_CTX        00000018    D       FAB$M_TRN      = 00000010            FAB$V_UPD      = 00000003
FAB$L_DEV        00000040            FAB$M_UFM      = 04000000            FAB$V_UPI      = 00000006
FAB$L_DNA        00000030    D       FAB$M_UFO      = 00020000            FAB$V_WCK      = 00000009
FAB$L_FNA        0000002C    D       FAB$M_UPD      = 00000008            FAB$W_BLS        0000003C    D
FAB$L_FOP        00000004    D       FAB$M_UPI      = 00000040            FAB$W_DEQ        00000014    D
RMSTEST2        BLOCK I/O TEST PROGRAM ;                         22-AUG-1978 03:28:24   VAX-11 MACRO X0.3-11               Page  11
SYMBOL TABLE                                                                                                                     (1)

FAB$W_IFI        00000002            RAB$M_PPF_IND  = 00004000            RMS$_ACC       = 0001C002
FAB$W_MRS        00000036    D       RAB$M_PPF_RAT  = 00003FC0            RMS$_ACT       = 0001825A
FILBUF           000000E1 R  D  02   RAB$M_PTA      = 20000000            RMS$_AID       = 000183F4
FINPUT           ********   X   02   RAB$M_RAH      = 00000200    D       RMS$_ALN       = 000183FC
FIN_DESCR        ********   X   02   RAB$M_RLK      = 00080000            RMS$_ALQ       = 00018404
FLDPUT           ********   X   02   RAB$M_RNE      = 01000000            RMS$_ANI       = 0001840C
FLD_DESCR        ********   X   02   RAB$M_RNF      = 08000000            RMS$_AOP       = 00018414
GBL...         = 00000000    D       RAB$M_TMO      = 02000000            RMS$_ATR       = 0001C0CC
GETREC           000001F6 R  D  02   RAB$M_TPT      = 00000002            RMS$_ATW       = 0001C0D4
NAMBLK           ********   X   02   RAB$M_UIF      = 00000010            RMS$_BKS       = 0001841C
RAB$B_BID        00000000            RAB$M_ULK      = 00040000            RMS$_BKZ       = 00018424
RAB$B_BLN        00000001            RAB$M_WAT      = 00020000            RMS$_BLN       = 0001842C
RAB$B_KRF        00000035    D       RAB$M_WBH      = 00000400    D       RMS$_BOF       = 00018198
RAB$B_KSZ        00000034    D       RAB$S_PPF_RAT  = 00000008            RMS$_BUG       = 00018434
RAB$B_MBC        00000037    D       RAB$V_ASY      = 00000000            RMS$_BUG_DAP   = 00018444
RAB$B_MBF        00000036    D       RAB$V_BIO      = 0000000B            RMS$_BUG_DDI   = 0001843C
RAB$B_PSZ        00000034            RAB$V_CCO      = 0000001F            RMS$_BUG_XX2   = 0001844C
RAB$B_RAC        0000001E    D       RAB$V_CVT      = 0000001A            RMS$_BUG_XX3   = 00018454
RAB$B_ROP1       00000005            RAB$V_EOF      = 00000008            RMS$_BUG_XX4   = 0001845C
RAB$B_ROP2       00000006            RAB$V_FDL      = 00000006            RMS$_BUG_XX5   = 00018464
RAB$B_ROP3       00000007            RAB$V_HSH      = 00000007            RMS$_BUG_XX6   = 0001846C
RAB$B_TMO        0000001F    D       RAB$V_KGE      = 00000015            RMS$_BUG_XX7   = 00018474
RAB$C_BID      = 00000001    D       RAB$V_KGT      = 00000016            RMS$_BUG_XX8   = 0001847C
RAB$C_BLN        00000044    D       RAB$V_LIM      = 0000000E            RMS$_BUG_XX9   = 00018484
RAB$C_KEY      = 00000001            RAB$V_LOA      = 0000000D            RMS$_CAA       = 0001848C
RAB$C_RFA      = 00000002    D       RAB$V_LOC      = 00000010            RMS$_CCF       = 0001C0DC
RAB$C_SEQ      = 00000000    D       RAB$V_MAS      = 00000005            RMS$_CCR       = 00018494
RAB$K_BLN        00000044            RAB$V_NLK      = 00000014            RMS$_CDA       = 0001C0E4
RAB$L_BKT        00000038    D       RAB$V_NXR      = 00000017            RMS$_CHG       = 0001849C
RAB$L_CTX        00000018    D       RAB$V_PMT      = 0000001E            RMS$_CHK       = 000184A4
RAB$L_DCT        00000038            RAB$V_PPF_IND  = 0000000E            RMS$_CHN       = 0001C0EC
RAB$L_FAB        0000003C    D       RAB$V_PPF_RAT  = 00000006            RMS$_COD       = 000184AC
RAB$L_KBF        00000030    D       RAB$V_PTA      = 0000001D            RMS$_CONTROLC  = 00010651
RAB$L_PBF        00000030            RAB$V_RAH      = 00000009            RMS$_CONTROLO  = 00010609
RAB$L_RBF        00000028    D       RAB$V_RLK      = 00000013            RMS$_CONTROLY  = 00010611
RAB$L_RFA0       00000010            RAB$V_RNE      = 00000018            RMS$_CRE       = 0001C00A
RAB$L_RHB        0000002C    D       RAB$V_RNF      = 0000001B            RMS$_CREATED   = 00010619
RAB$L_ROP        00000004    D       RAB$V_TMO      = 00000019            RMS$_CUR       = 000184B4
RAB$L_STS        00000008            RAB$V_TPT      = 00000001            RMS$_DAC       = 0001C012
RAB$L_STV        0000000C            RAB$V_UIF      = 00000004            RMS$_DAN       = 000184BC
RAB$L_UBF        00000024    D       RAB$V_ULK      = 00000012            RMS$_DEL       = 00018262
RAB$M_ASY      = 00000001            RAB$V_WAT      = 00000011            RMS$_DEV       = 000184C4
RAB$M_BIO      = 00000800            RAB$V_WBH      = 0000000A    D       RMS$_DIR       = 000184CC
RAB$M_CCO      = 80000000            RAB$W_ISI        00000002    D       RMS$_DME       = 000184D4
RAB$M_CVT      = 04000000            RAB$W_RFA        00000010    D       RMS$_DNA       = 000184DC
RAB$M_EOF      = 00000100            RAB$W_RFA4       00000014            RMS$_DNF       = 0001C04A
RAB$M_FDL      = 00000040            RAB$W_RSZ        00000022    D       RMS$_DNR       = 00018272
RAB$M_HSH      = 00000080            RAB$W_USZ        00000020    D       RMS$_DPE       = 0001C03A
RAB$M_KGE      = 00200000            READVB           000002A9 R  D  02   RMS$_DTP       = 000184E4
RAB$M_KGT      = 00400000            RECOK            00000236 R  D  02   RMS$_DUP       = 000184EC
RAB$M_LIM      = 00004000            REPORT_ERR       ********   X   02   RMS$_DVI       = 000184F4
RAB$M_LOA      = 00002000            REPORT_ERROR     ********   X   02   RMS$_ENT       = 0001C01A
RAB$M_LOC      = 00010000            RFAOK            0000012B R  D  02   RMS$_ENV       = 00018724
RAB$M_MAS      = 00000020            RFASAV           00000094 R  D  02   RMS$_EOF       = 0001827A    D
RAB$M_NLK      = 00100000            RIGHT            000005DE R  D  02   RMS$_ESA       = 000184FC
RAB$M_NXR      = 00800000            RMS$V_STVSTATUS= 0000000E            RMS$_ESL       = 00018714
RAB$M_PMT      = 40000000            RMS$_ABO       = 000183EC            RMS$_ESS       = 00018504
RMSTEST2        BLOCK I/O TEST PROGRAM ;                         22-AUG-1978 03:28:24   VAX-11 MACRO X0.3-11               Page  12
SYMBOL TABLE                                                                                                                     (1)

RMS$_EXP       = 000182C2            RMS$_PLG       = 0001861C            RSZOK            0000025B R  D  02
RMS$_EXT       = 0001C022            RMS$_PLV       = 0001872C            RSZOK1           000003DA R  D  02
RMS$_FAB       = 0001850C            RMS$_POS       = 00018624            SYS$CLOSE        ********  GX   02
RMS$_FAC       = 00018514            RMS$_PRM       = 0001862C            SYS$CONNECT      ********  GX   02
RMS$_FEX       = 00018282            RMS$_PRV       = 0001829A            SYS$CREATE       ********  GX   02
RMS$_FLG       = 0001851C            RMS$_QUO       = 00018634            SYS$ERASE        ********  GX   02
RMS$_FLK       = 0001828A            RMS$_RAB       = 0001863C            SYS$GET          ********  GX   02
RMS$_FNA       = 00018524            RMS$_RAC       = 00018644            SYS$OPEN         ********  GX   02
RMS$_FND       = 0001C02A            RMS$_RAT       = 0001864C            SYS$PUT          ********  GX   02
RMS$_FNF       = 00018292            RMS$_RBF       = 00018654            SYS$READ         ********  GX   02
RMS$_FNM       = 0001852C            RMS$_RER       = 0001C0F4            SYS$WRITE        ********  GX   02
RMS$_FOP       = 0001853C            RMS$_REX       = 000182A2            T2AEOF           000002CB R  D  02
RMS$_FSZ       = 00018534            RMS$_RFA       = 0001865C            T2EOF            0000025D R  D  02
RMS$_FUL       = 00018544            RMS$_RFM       = 00018664            T2FAB            00000000 RG D  02
RMS$_IAL       = 0001854C            RMS$_RHB       = 0001866C            T2RAB            00000050 RG D  02
RMS$_IAN       = 00018554            RMS$_RLF       = 00018674            T2START          00000000 RG D  02
RMS$_IBF       = 00018754            RMS$_RLK       = 000182AA            TEST2            00000178 R  D  02
RMS$_IDX       = 0001855C            RMS$_RMV       = 0001C0FC            TEST2A           00000274 R  D  02
RMS$_IFA       = 0001C124            RMS$_RNF       = 000182B2            TEST2B           000002E2 R  D  02
RMS$_IFI       = 00018564            RMS$_RNL       = 000181A0            TEST2B2          00000378 R  D  02
RMS$_IMX       = 0001856C            RMS$_ROP       = 0001867C            TEST2B3          00000405 R  D  02
RMS$_IOP       = 00018574            RMS$_RPL       = 0001C104            TEST2B4          00000458 R  D  02
RMS$_IRC       = 0001857C            RMS$_RRV       = 00018684            TESTEND          000004E3 R  D  02
RMS$_ISI       = 00018584            RMS$_RSA       = 000182DA            TST$BLOCKIO      0000009C RG D  02
RMS$_KBF       = 0001858C            RMS$_RSL       = 0001873C            VERBOSITY        ********   X   02
RMS$_KEY       = 00018594            RMS$_RSS       = 00018694
RMS$_KFF       = 00018031            RMS$_RST       = 0001869C
RMS$_KRF       = 0001859C            RMS$_RSZ       = 000186A4
RMS$_KSZ       = 000185A4            RMS$_RTB       = 000181A8
RMS$_LAN       = 000185AC            RMS$_SEQ       = 000186AC
RMS$_LBL       = 000185B4            RMS$_SHR       = 000186B4
RMS$_LNE       = 000185BC            RMS$_SIZ       = 000186BC
RMS$_LOC       = 000185C4            RMS$_SPL       = 0001C042
RMS$_MBC       = 00018734            RMS$_SQO       = 000186C4
RMS$_MKD       = 0001C032            RMS$_STALL     = 00018001
RMS$_MRN       = 000185CC            RMS$_STK       = 000186CC
RMS$_MRS       = 000185D4            RMS$_SUC       = 00010001
RMS$_NAM       = 000185DC            RMS$_SUP       = 000182D2
RMS$_NEF       = 000185E4            RMS$_SUPERSEDE = 00010631
RMS$_NET       = 0001874C            RMS$_SYN       = 000186D4
RMS$_NID       = 000185EC            RMS$_SYS       = 0001C10C
RMS$_NMF       = 000182CA            RMS$_TEMP1     = 0001826A
RMS$_NOD       = 000185F4            RMS$_TEMP2     = 0001868C
RMS$_NORMAL    = 00010001            RMS$_TMO       = 000181B0
RMS$_NPK       = 000185FC            RMS$_TRE       = 000186DC
RMS$_OK_ALK    = 00018039            RMS$_TYP       = 000186E4
RMS$_OK_DEL    = 00018041            RMS$_UBF       = 000186EC
RMS$_OK_DUP    = 00018011            RMS$_USZ       = 000186F4
RMS$_OK_IDX    = 00018019            RMS$_VER       = 000186FC
RMS$_OK_LIM    = 00018051            RMS$_VOL       = 00018704
RMS$_OK_RLK    = 00018021            RMS$_WBE       = 0001C12C
RMS$_OK_RNF    = 00018049            RMS$_WER       = 0001C114
RMS$_OK_RRV    = 00018029            RMS$_WLD       = 00018744
RMS$_ORD       = 00018604            RMS$_WLK       = 000182BA
RMS$_ORG       = 0001860C            RMS$_WPL       = 0001C11C
RMS$_PBF       = 00018614            RMS$_WSF       = 0001871C
RMS$_PENDING   = 00018009            RMS$_XAB       = 0001870C
RMSTEST2        BLOCK I/O TEST PROGRAM ;                         22-AUG-1978 03:28:24   VAX-11 MACRO X0.3-11               Page  13
PROGRAM SECTION SYNOPSIS                                                                                                         (1)


PROGRAM SECTION SYNOPSIS

.  ABS  .        00000000      00     NOPIC   USR   CON   ABS   LCL NOSHR NOEXE NORD  NOWRT BYTE
. BLANK .        00000000      01     NOPIC   USR   CON   REL   LCL NOSHR   EXE   RD    WRT BYTE
__RMSTEST        0000060F      02     NOPIC   USR   CON   REL   GBL NOSHR   EXE   RD    WRT LONG
$ABS$            00000050      03     NOPIC   USR   CON   ABS   LCL NOSHR   EXE   RD    WRT BYTE
$RMSNAM          00000015      04     NOPIC   USR   CON   REL   LCL NOSHR   EXE   RD    WRT BYTE
__$RMSNAM        00000119      05     NOPIC   USR   CON   REL   LCL NOSHR   EXE   RD    WRT BYTE


THERE WERE NO ERRORS OR WARNINGS.
9522. BYTES LEFT IN FREE MEMORY POOL.
912. BYTES OF RECLAIMED MEMORY.
OBJ$:RMSTEST2,LIS$:RMSTEST2/-SP=SRC$:UETPLIBS,SRCD$:[RMSTEST]RMSTEST2
72 MLB DIR RDS - 852 GETS TO DEFINE 34 MACROS. 97 INTER. FILE WRITES.
