RMSTEST3        RELATIVE TEST PROGRAM ;                          22-AUG-1978 03:29:16   VAX-11 MACRO X0.3-11               Page   1
009                                                                                                                              (1)

                                     0000     1 ;	UETP prefix file (contains macro library file specs).
                                     0000     2 ;
                                     0000     3 	.LIBRARY	/EXECML$/	;SYSTEM MACROS
                                     0000     4 	.LIBRARY	/LIBD$:[SYSTST.OBJ]SYSTST.MLB/ ; PRIVATE UETP,SYSTST LIB
                                     0000     5 	.LIST	MEB
                                     0000     6 ;
                                     0000    31 	$BEGIN	RMSTEST3,009,__RMSTEST,<RELATIVE TEST PROGRAM>,<GBL,LONG>
                                 00000000       	.PSECT	__RMSTEST,GBL,GBL,LONG
                                     0000    32 ;
                                     0000    33 	.ENABL DBG
                                     0000    34 ; THIS PROGRAM TESTS THE RELATIVE FILE ORG
                                     0000    35 ;
                                     0000    36 ;
                                     0000    37 .NLIST MEB
                                     0000    38 ;
                                     0000    39 ;  MACROS:
                                     0000    40 ;
                                     0000    41 	.MACRO	BUFF	NAM,SIZE
                                     0000    42 NAM'BUF::	.BLKB	SIZE
                                     0000    43 NAM'BSZ==SIZE
                                     0000    44 	.ENDM	BUFF
                                     0000    45 ;
                                     0000    46 ;
                                     0000    47 ;
                                     0000    48 	.MACRO	TYPE	STRING, ?L
                                     0000    49 	STORE	<STRING>
                                     0000    50 	BLBC	VERBOSITY,L
                                     0000    51 	MOVL	#$$.TMPX,CMDORAB+RAB$L_RBF
                                     0000    52 	MOVW	#$$.TMPX1,CMDORAB+RAB$W_RSZ
                                     0000    53 	$PUT	RAB=CMDORAB,ERR=REPORT_ERROR
                                     0000    54 	BSBW	ERR
                                     0000    55    L:
                                     0000    56 	.ENDM	TYPE
                                     0000    57 ;
                                     0000    58 	.MACRO	WTTYPE	STRING
                                     0000    59 	$WAIT	CMDORAB
                                     0000    60 	TYPE	<STRING>
                                     0000    61 	.ENDM	WTTYPE
                                     0000    62 ;
                                     0000    63 	.MACRO	STORE	STRING,PRE
                                     0000    64 	.SAVE
                                     0000    65 	.PSECT	__$RMSNAM
                                     0000    66 	$$.TMPX=.
                                     0000    67 	PRE				; STORE ANY CARRIAGE CONTROL INFO
                                     0000    68 	.ASCII	%STRING%
                                     0000    69 	$$.TMPX1=.-$$.TMPX
                                     0000    70 	.RESTORE
                                     0000    71 	.ENDM	STORE
RMSTEST3        RELATIVE TEST PROGRAM ;                          22-AUG-1978 03:29:16   VAX-11 MACRO X0.3-11               Page   2
009                                                                                                                              (1)

                                     0000    73 ;
                                     0000    74 	.MACRO	FNM	STRING
                                     0000    75 		STORE	<STRING>
                                     0000    76 		MOVB	#$$.TMPX1,FAB$B_FNS+RELATIVE_FAB
                                     0000    77 		MOVL	#$$.TMPX,FAB$L_FNA+RELATIVE_FAB
                                     0000    78 	.ENDM
                                     0000    79
                                     0000    80 	.MACRO BEGIN TSTNAM
                                     0000    81 		STORE	<TSTNAM>
                                     0000    82 		MOVL	#$$.TMPX,BEG_DESCR+4		;ADDR
                                     0000    83 		MOVL	#$$.TMPX1,BEG_DESCR		;LEN
                                     0000    84 		BSBW BEGPUT
                                     0000    85 	.ENDM BEGIN
                                     0000    86 	.MACRO FINISH	TSTNAM
                                     0000    87 		STORE	<TSTNAM>
                                     0000    88 		MOVL	#$$.TMPX,FIN_DESCR+4		;ADDR
                                     0000    89 		MOVL	#$$.TMPX1,FIN_DESCR		;LEN
                                     0000    90 		BSBW FINPUT
                                     0000    91 	.ENDM FINISH
                                     0000    92 	.MACRO FIELD FLDNAM
                                     0000    93 		STORE <FLDNAM>
                                     0000    94 		MOVL	#$$.TMPX,FLD_DESCR+4		;ADDR
                                     0000    95 		MOVL	#$$.TMPX1,FLD_DESCR		;LEN
                                     0000    96 		BSBW FLDPUT
                                     0000    97 	.ENDM FIELD
                                     0000    98 	.MACRO	MBPT	?L
                                     0000    99 	BLBC	VERBOSITY,L
                                     0000   100 	BPT
                                     0000   101    L:
                                     0000   102 	.ENDM MBPT
                                     0000   103 ;
RMSTEST3        RELATIVE TEST PROGRAM ;                          22-AUG-1978 03:29:16   VAX-11 MACRO X0.3-11               Page   3
009                                                                                                                              (1)

                                 00000000   105 	.PSECT	__RMSTEST,GBL,LONG
                                     0000   106 	.ALIGN	LONG
                                     0000   107 T3START::
                                     0000   108 	RELATIVE_FAB:	$FAB	FAC=<GET,PUT,DEL,UPD>,DNM=<TST$DISK:.FIL;1>,-
                                     0000   109 				NAM=NAMBLK,-
                                     0000   110 				FOP=<DFW,SUP>,ORG=REL,RAT=CR,MRS=52,MRN=500,-
                                     0000   111 				ALQ=0,FSZ=4		;ALQ=0 FORCES EXTEND
                                     0050   112
                                     0050   113 	RELATIVE_RAB:	$RAB	FAB=RELATIVE_FAB,UBF=RELBUF,USZ=RELBSZ,-
                                     0050   114 				RBF=RELBUF,RHB=HEAD,MBF=3,ROP=UIF
                                     0094   115 	ALLOC_XAB:	$XABALL	AID=0,DEQ=4,ALQ=4
                                 00  00B4   116 	COUNTER:	.BYTE	0
                                 00  00B5   117 	COUNT2:		.BYTE	0
                           00000000  00B6   118 	HEAD:		.LONG	0
                           00000000  00BA   119 	KEY:		.LONG	0
                           000000EE  00BE   120 	RFATBL:		.BLKQ	6
                                     00EE   121 	.ALIGN	LONG
                                     00F0   122 	BUFF		REL,200
                  000001C0'00000029' 01B8   123 RFMSTR:	.LONG RFML,RFMS
54 41 4C 45 52 20 44 45 4E 45 50 4F  01C0   124 	RFMS:	.ASCII 'OPENED RELATIVE FILE WITH FILE ORG !AD !/'
54 49 57 20 45 4C 49 46 20 45 56 49  01CC
21 20 47 52 4F 20 45 4C 49 46 20 48  01D8
                     2F 21 20 44 41  01E4
                           00000029  01E9   125 			RFML=.-RFMS
RMSTEST3        RELATIVE TEST PROGRAM ;                          22-AUG-1978 03:29:16   VAX-11 MACRO X0.3-11               Page   4
009                                                                                                                              (2)

                                     01E9   127 RMT$TEST_3A::
                               0FFC  01E9   128 	.WORD ^M<R2,R3,R4,R5,R6,R7,R8,R9,R10,R11>
                                     01EB   129 	BEGIN	<RELATIVE TESTS>
                                     0200   130 ;VARIABLE
                                     0200   131 	TYPE	<TEST WITH VARIABLE RECORD FORMAT>
                                     022F   132 	FNM	<RELVAR>
       FDDD CF            02     90  023D   133 	MOVB	#FAB$C_VAR,FAB$B_RFM+RELATIVE_FAB
                          00E8   30  0242   134 	BSBW	REL_TEST
                                     0245   135 ;VFC
                                     0245   136 	TYPE	<TEST WITH VFC RECORD FORMAT>
                                     0274   137 	FNM	<RELVFC>
                                     0282   138 	$FAB_STORE	FAB=RELATIVE_FAB,RFM=VFC,FSZ=#4	;NEED TO SET FSZ
         04 A0   02000000 8F     C8  028F   139 	BISL2	#FAB$M_CIF,FAB$L_FOP(R0)	;DO CREATE-IF
         04 A0            04     CA  0297   140 	BICL2	#FAB$M_SUP,FAB$L_FOP(R0)	;NOT SUPERCEDE
                                     029B   141 	$CREATE	FAB=RELATIVE_FAB,ERR=REPORT_ERROR			;DO IT
                          FD51'  30  02AC   142 	BSBW	ERR
   00000000'8F            50     D1  02AF   143 	CMPL	R0,#RMS$_CREATED			;WAS IT CREATED
                          05     13  02B6   144 	BEQL	10$
       FD97 CF            10     C8  02B8   145 	BISL2	#RAB$M_UIF,RAB$L_ROP+RELATIVE_RAB	;IF OPENED, DO UPDATES
                          0140   30  02BD   146 10$:	BSBW	REL_TEST2
       FD3B CF   02000000 8F     CA  02C0   147 	BICL2	#FAB$M_CIF,FAB$L_FOP+RELATIVE_FAB	;RESTORE BITS
       FD36 CF            04     C8  02C9   148 	BISL2	#FAB$M_SUP,FAB$L_FOP+RELATIVE_FAB
                                     02CE   149 ;FIX
                                     02CE   150 	TYPE	<TEST WITH FIXED LENGTH RECORDS>
                                     02FD   151 	FNM	<RELFIX>
       FD0F CF            01     90  030B   152 	MOVB	#FAB$C_FIX,FAB$B_RFM+RELATIVE_FAB
                          001A   30  0310   153 	BSBW	REL_TEST
                     FD0D CF     D4  0313   154 	CLRL	FAB$L_XAB+RELATIVE_FAB			;CLEAR IT FOR RESTART
                                     0317   155 	FINISH	<RELATIVE TESTS>
                                 04  032C   156 	RET
                                     032D   157
RMSTEST3        RELATIVE TEST PROGRAM ;                          22-AUG-1978 03:29:16   VAX-11 MACRO X0.3-11               Page   5
009                                                                                                                              (3)

                                     032D   159 REL_TEST:
                                     032D   160 	;ROUTINE TO PUT RELATIVE THRU ITS PACES, AND CALL THE LOCKING ROUTINE
                                     032D   161 	$FAB_STORE	FAB=RELATIVE_FAB,ALQ=#0		;MAKE SURE IT'S 0
                                     0335   162 	$CREATE	FAB=R0,ERR=REPORT_ERROR
                          FCB9'  30  0344   163 	BSBW	ERR
                                     0347   164 	$XABALL_STORE	XAB=ALLOC_XAB,ALQ=#4
                                     0350   165 	$FAB_STORE	FAB=RELATIVE_FAB,XAB=ALLOC_XAB
                                     035B   166 	$EXTEND	FAB=R0,ERR=REPORT_ERROR			;EXTEND 4 BLKS, FROM ALQ
                          FC93'  30  036A   167 	BSBW	ERR
            04       FC9B CF     D1  036D   168 	CMPL	FAB$L_STV+RELATIVE_FAB,#4		;CHECK RETURNED STV
                          15     18  0372   169 	BGEQ	STVOK
                                     0374   170 	FIELD	<STV ( NOT = ALLOC QTY, AFTER EXTEND)>
            04       FD17 CF     D1  0389   171 STVOK:	CMPL	XAB$L_ALQ+ALLOC_XAB,#4			;CHECK ALQ
                          15     18  038E   172 	BGEQ	ALQOK
                                     0390   173 	FIELD	<ALQ IN XAB ( NOT = ALLOC QTY, AFTER EXTEND)>
                                     03A5   174 ALQOK:	$CLOSE	FAB=RELATIVE_FAB,ERR=REPORT_ERROR
                          FC47'  30  03B6   175 	BSBW	ERR
                                     03B9   176 	$XABALL_STORE	XAB=ALLOC_XAB,ALQ=#0		;TO CHECK IT OUT
                                     03C1   177 	$OPEN	FAB=RELATIVE_FAB,ERR=REPORT_ERROR
                          FC2B'  30  03D2   178 	BSBW	ERR
            05       FCCB CF     D1  03D5   179 	CMPL	ALLOC_XAB+XAB$L_ALQ,#5		;ALQ=4 FROM EXTEND + 1 SINCE REL
                          15     18  03DA   180 	BGEQ	ALQOK1
                                     03DC   181 	FIELD	<ALQ IN XAB ( NOT = ALLOC QTY, AFTER OPEN)>
            01       FC2A CF     91  03F1   182 ALQOK1: CMPB	RELATIVE_FAB+FAB$B_RFM,#FAB$C_FIX
                          08     13  03F6   183 	BEQL	REL_TEST2				;ON W/ IT
                                     03F8   184 	$FAB_STORE	FAB=RELATIVE_FAB,XAB=#0		;IF VAR CLEAR XAB
RMSTEST3        RELATIVE TEST PROGRAM ;                          22-AUG-1978 03:29:16   VAX-11 MACRO X0.3-11               Page   6
009                                                                                                                              (4)

                                     0400   186 REL_TEST2:
                                     0400   187 	;ENTRY POINT TO BYPASS CREATE
                                     0400   188 	$CONNECT RAB=RELATIVE_RAB,ERR=REPORT_ERROR
                          FBEC'  30  0411   189 	BSBW	ERR
                                     0414   190 ;DO 26 SEQUENTIAL PUTS WITH 'BAD' DATA INTO FILE
                                     0414   191 ;THEN DELETE 5 OF THOSE RECORDS AND DO PUTS TO PUT RIGHT DATA INTO THEM
                                     0414   192 ;UPDATE THE OTHER RECORDS AND THEN DO GETS TO MAKE SURE IT'S ALL OK
            59            01     D0  0414   193 	MOVL	#1,R9			;R9 IS RECORD NUMBER
            5B       FC35 CF     DE  0417   194 	MOVAL	RELATIVE_RAB,R11	;R11 IS ADDRESS OF RAB
                                     041C   195 	TYPE	<FILL FILE>
                                     044B   196 PUT_RECORD_SEQ::
            56            0F     D0  044B   197 	MOVL	#15,R6			;ALL OF LENGTH 15
       FBCC CF            01     91  044E   198 	CMPB	#FAB$C_FIX,FAB$B_RFM+RELATIVE_FAB
                          03     12  0453   199 	BNEQ	30$
            56            34     D0  0455   200 	MOVL	#52,R6			;LEN OF FIXED REC. IS 52
            6E            00     2C  0458   201 30$:	MOVC5	#0,(SP),#^A/1/,R6,RELBUF	;FILL BUFFER FOR OUTPUT
            56            31         045B
                     FC90 CF         045D
                                     0460   202 					;PUT ASCII '1'S INTO RECORDS
         22 AB            56     B0  0460   203 	MOVW	R6,RAB$W_RSZ(R11)	;GIVE SIZE OF RECORD
       FC4D CF            59     D0  0464   204 	MOVL	R9,HEAD			;FILL HEADER IN CASE IT'S VFC
                                     0469   205 				;SEQ MODE IS DEFAULT
                                     0469   206 	$PUT	RAB=R11,ERR=REPORT_ERROR
                          FB85'  30  0478   207 	BSBW	ERR
            59         38 AB     D1  047B   208 	CMPL	RAB$L_BKT(R11),R9	;BKT SHOULD BE REC. # ON OUTPUT
                          15     13  047F   209 	BEQL	BKT_OK
                                     0481   210 	FIELD	<BKT IN RAB (RECORD NUMBER)>
            59            1A     F3  0496   211 BKT_OK:	AOBLEQ	#26,R9,PUT_RECORD_SEQ	;KEEP GOING?
                          B1         0499
                                     049A   212 ;CHECK ONE RECORD JUST TO BE SURE
            59            0F     D0  049A   213 	MOVL	#15,R9
         30 AB       FC19 CF     DE  049D   214 	MOVAL	KEY,RAB$L_KBF(R11)
         1E AB            01     90  04A3   215 	MOVB	#RAB$C_KEY,RAB$B_RAC(R11)
       FC0E CF            59     D0  04A7   216 	MOVL	R9,KEY
                                     04AC   217 	$GET	RAB=R11,ERR=REPORT_ERROR
                          FB42'  30  04BB   218 	BSBW	ERR
                          01B7   30  04BE   219 	BSBW	CHK_BAD_DATA
         04 AB            10     CA  04C1   220 	BICL2	#RAB$M_UIF,RAB$L_ROP(R11)		;IN CASE ITS SET
            59            05     D0  04C5   221 	MOVL	#5,R9
                                     04C8   222 FIND_DEL:
                                     04C8   223 	;DO SOME FINDS AND DELETES BY KEYED ACCESS
       FBED CF            59     D0  04C8   224 	MOVL	R9,KEY
                                     04CD   225 	$FIND	RAB=R11,ERR=REPORT_ERROR
                          FB21'  30  04DC   226 	BSBW	ERR
                                     04DF   227 	$DELETE	RAB=R11,ERR=REPORT_ERROR
                          FB0F'  30  04EE   228 	BSBW	ERR
            59            05     C0  04F1   229 	ADDL	#5,R9
            1A            59     D1  04F4   230 	CMPL	R9,#26
                          CF     19  04F7   231 	BLSS	FIND_DEL
RMSTEST3        RELATIVE TEST PROGRAM ;                          22-AUG-1978 03:29:16   VAX-11 MACRO X0.3-11               Page   7
009                                                                                                                              (5)

                                     04F9   233 ;DONE WITH DELETES, NOW 'PUT' INTO THE DELETED RECORDS CORRECT DATA
            59            05     D0  04F9   234 	MOVL	#5,R9
                                     04FC   235 PUT_RECORD_KEY:
                                     04FC   236 	;TRY TO GET DELETED RECORDS, HOPING IT FAILS
                                     04FC   237 	;THEN SET NXR AND GET THE DELETED RECORDS AND CHECK THEM
                                     04FC   238 	;FINALLY PUT THE CORRECTED (PREVIOUSLY DELETED)RECORDS
            6E            00     2C  04FC   239 	MOVC5	#0,(SP),#0,#200,RELBUF		;CLR RELBUF, TO MAKE SURE
       00C8 8F            00         04FF
                     FBEA CF         0503
       FBAF CF            59     D0  0506   240 	MOVL	R9,KEY				;GETS BY KEY
                                     050B   241 	$GET	RAB=R11				;HOPE IT FAILS
   00000000'8F            50     D1  0514   242 	CMPL	R0,#RMS$_RNF			;RECORD NOT FOUND?
                          1E     13  051B   243 	BEQL	ERR_OK
                                     051D   244 	FIELD	<RETURNED ERROR CODE>
            5A            5B     D0  0532   245 	MOVL	R11,R10
                          FAC8'  30  0535   246 	BSBW	REPORT_ERR
                          FAC5'  30  0538   247 	BSBW	ERR
       FB10 CF   00800000 8F     C8  053B   248 ERR_OK:	BISL	#RAB$M_NXR,RAB$L_ROP+RELATIVE_RAB	;GET NON-EXISTANT RECORD
                                     0544   249 	$GET	RAB=R11,ERR=REPORT_ERROR		;THIS SHOULD WORK
                          FAAA'  30  0553   250 	BSBW	ERR
                          011F   30  0556   251 	BSBW	CHK_BAD_DATA				;CHECK IT OUT
       FAF2 CF   00800000 8F     CA  0559   252 	BICL	#RAB$M_NXR,RAB$L_ROP+RELATIVE_RAB	;CLEAR BIT
                          0222   30  0562   253 	BSBW	SETUP			;FILLS BUFFER,RSZ,HEAD
       FB50 CF            59     D0  0565   254 	MOVL	R9,KEY			;KEYED ACCESS
                                     056A   255 	$PUT	RAB=R11,ERR=REPORT_ERROR
                          FA84'  30  0579   256 	BSBW	ERR
            59            05     C0  057C   257 	ADDL	#5,R9
            1A            59     D1  057F   258 	CMPL	R9,#26
                          03     18  0582   259 	BGEQ	10$
                          FF75   31  0584   260 	BRW	PUT_RECORD_KEY
                                     0587   261 10$:
                                     0587   262 ;ALL DONE WITH THAT
            59            01     D0  0587   263 	MOVL	#1,R9
                                     058A   264 ;DO UPDATES ON ALL OTHER RECORDS, BY KEYED ACCESS
                                     058A   265 UPDATE_RECORD:
                          5A     D4  058A   266 	CLRL	R10
            59            05     7B  058C   267 	EDIV	#5,R9,R2,R6
            56            52         058F
                          56     D5  0591   268 	TSTL	R6			;IS IT 5,10,15,20,25
                          07     12  0593   269 	BNEQ	20$
            59            1A     F3  0595   270 	AOBLEQ	#26,R9,UPDATE_RECORD	;IF SO, SKIP IT
                          F1         0598
                          0030   31  0599   271 	BRW	NO_MORE			;ALL DONE
       FB19 CF            59     D0  059C   272 20$:	MOVL	R9,KEY
                                     05A1   273 	$FIND	RAB=R11,ERR=REPORT_ERROR
                          FA4D'  30  05B0   274 	BSBW	ERR
                          01D1   30  05B3   275 	BSBW	SETUP			;SET UP FOR PUT
                                     05B6   276 	$UPDATE	RAB=R11,ERR=REPORT_ERROR
                          FA38'  30  05C5   277 	BSBW	ERR
            59            1A     F3  05C8   278 	AOBLEQ	#26,R9,UPDATE_RECORD
                          BE         05CB
                                     05CC   279 NO_MORE:
       FA9D CF            00     90  05CC   280 	MOVB	#RAB$C_SEQ,RAB$B_RAC+RELATIVE_RAB
                                     05D1   281 	TYPE	<VERIFY CONTENTS OF FILE>
                                     0600   282 	$REWIND	RAB=R11,ERR=REPORT_ERROR	; CAN NOW DO GETS
                          F9EE'  30  060F   283 	BSBW	ERR
                          00AA   30  0612   284 	BSBW	DO_SOME_GETS
RMSTEST3        RELATIVE TEST PROGRAM ;                          22-AUG-1978 03:29:16   VAX-11 MACRO X0.3-11               Page   8
009                                                                                                                              (5)

                                     0615   285 	$DISCONNECT	RAB=R11,ERR=REPORT_ERROR
                          F9D9'  30  0624   286 	BSBW	ERR
                                     0627   287 	$CONNECT	RAB=R11,ERR=REPORT_ERROR
                          F9C7'  30  0636   288 	BSBW	ERR
                          0083   30  0639   289 	BSBW	DO_SOME_GETS
                                     063C   290 	$DISCONNECT	RAB=R11,ERR=REPORT_ERROR
                          F9B2'  30  064B   291 	BSBW	ERR
                                     064E   292 	$CLOSE	FAB=RELATIVE_FAB,ERR=REPORT_ERROR
                          F99E'  30  065F   293 	BSBW	ERR
                                     0662   294 					;TELL LOCKING TEST WHICH FILE
   00000034'EF       F9CE CF     90  0662   295 	MOVB	FAB$B_FNS+RELATIVE_FAB,FAB$B_FNS+LOCK_FAB
   0000002C'EF       F9BD CF     D0  066B   296 	MOVL	FAB$L_FNA+RELATIVE_FAB,FAB$L_FNA+LOCK_FAB
                                     0674   297 					;DO LOCKING TESTS
                          F989'  30  0674   298 	BSBW	RMT$TEST_5A
                                 05  0677   299 	RSB
                                     0678   300
                                     0678   301 ;SUBROUTINE TO CHECK 'BAD' DATA ( 1ST PASS OF PUTS)
                                     0678   302 ;R11 IS POINTER TO RELATIVE_RAB
                                     0678   303 ;ROUTINE CHECKS RSZ AND CONTENTS OF RECORD, NOW IN BUFFER
                                     0678   304 CHK_BAD_DATA:
            56            0F     D0  0678   305 	MOVL	#15,R6				;LEN OF NON-FIXED RECORDS
       F99F CF            01     91  067B   306 	CMPB	#FAB$C_FIX,RELATIVE_FAB+FAB$B_RFM
                          03     12  0680   307 	BNEQ	10$				;IF FIX LEN IS 52
            56            34     D0  0682   308 	MOVL	#52,R6
         22 AB            56     B1  0685   309 10$:	CMPW	R6,RAB$W_RSZ(R11)		;CHECK RSZ
                          15     13  0689   310 	BEQL	RSZ_OK
                                     068B   311 	FIELD	<RSZ>
                                     06A0   312 RSZ_OK:
         28 BB            56     2D  06A0   313 	CMPC5	R6,@RAB$L_RBF(R11),#^A/1/,#0,(SP)
            00            31         06A4
                          6E         06A6
                          15     13  06A7   314 	BEQL	REC_OK
                                     06A9   315 	FIELD	<RECORD>
                                     06BE   316 REC_OK:
                                 05  06BE   317 	RSB
RMSTEST3        RELATIVE TEST PROGRAM ;                          22-AUG-1978 03:29:16   VAX-11 MACRO X0.3-11               Page   9
009                                                                                                                              (6)

                                     06BF   319 DO_SOME_GETS::
            54       F9FB CF     DE  06BF   320 	MOVAL	RFATBL,R4			;R4 IS INDEX TO RFATBL
                     F9EC CF     94  06C4   321 	CLRB	COUNTER				;RECORD NUMBER
                     F9E9 CF     94  06C8   322 	CLRB	COUNT2
            57            1A     D0  06CC   323 	MOVL	#26,R7				;1ST PASS-R7 IS # OF REC.
            5B       F97D CF     DE  06CF   324 	MOVAL	RELATIVE_RAB,R11			;POINTER TO RAB
         1E AB            00     90  06D4   325 	MOVB	#RAB$C_SEQ,RAB$B_RAC(R11)	;DO ALL SEQUENTIAL GETS
                          00E1   30  06D8   326 	BSBW	GET_RECORD_SEQ
         1E AB            02     90  06DB   327 	MOVB	#RAB$C_RFA,RAB$B_RAC(R11)	;DO SOME GETS BY RFA
            54       F9DB CF     DE  06DF   328 	MOVAL	RFATBL,R4
                          0180   30  06E4   329 	BSBW	GET_RECORD_RFA
         1E AB            01     90  06E7   330 	MOVB	#RAB$C_KEY,RAB$B_RAC(R11)	;DO SOME GETS BY KEY
                          01A2   30  06EB   331 	BSBW	GET_RECORD_KEY
         1E AB            00     90  06EE   332 	MOVB	#RAB$C_SEQ,RAB$B_RAC(R11)	;DO SOME SEQ GETS
            57            0D     D0  06F2   333 	MOVL	#13,R7				;2ND PASS-R7 IS # OF REC.
            54       F9DD CF     DE  06F5   334 	MOVAL	RFATBL+24,R4			;24=8.*3, STARTING IN THE MIDDLE
       F9B5 CF            0D     90  06FA   335 	MOVB	#13,COUNTER			;		DITTO
                     F9B2 CF     94  06FF   336 	CLRB	COUNT2
                          00B6   30  0703   337 	BSBW	GET_RECORD_SEQ
                                 05  0706   338 	RSB
RMSTEST3        RELATIVE TEST PROGRAM ;                          22-AUG-1978 03:29:16   VAX-11 MACRO X0.3-11               Page  10
009                                                                                                                              (7)

                                     0707   340 ;
                                     0707   341 ; SUBROUTINES TO DO GETS AND CHECKS
                                     0707   342 ;
                                     0707   343 CHECK_REC:
                                     0707   344 	;	R9 IS THE RECORD NUMBER
                                     0707   345 	;	AS BEFORE R11 IS THE ADDR OF THE RAB
       F913 CF            03     91  0707   346 	CMPB	#FAB$C_VFC,FAB$B_RFM+RELATIVE_FAB
                          1B     12  070C   347 	BNEQ	NO_HEADER
         2C BB            59     D1  070E   348 100$:	CMPL	R9,@RAB$L_RHB(R11)			;COMPARE HEADER
                          15     13  0712   349 	BEQL	NO_HEADER
                                     0714   350 	FIELD	<HEADER OF A VFC RECORD>
                                     0729   351    NO_HEADER:
            1A            59     D1  0729   352 	CMPL	R9,#26				;IS IT LAST RECORD?
                          05     12  072C   353 	BNEQ	10$
            56            1A     D0  072E   354 	MOVL	#26,R6				;LENGTH IS 26
                          07     11  0731   355 	BRB	20$
                          5A     D4  0733   356 10$:	CLRL	R10				;QUADWORD DIVIDE
            59            1A     7B  0735   357 	EDIV	#26,R9,R2,R6			;R6 = R9 MOD 26, REC. SIZE
            56            52         0738
            56   00000040 8F     C1  073A   358 20$:	ADDL3	#^A/A/-1,R6,R5			;R5 IS CHAR.
                          55         0741
       F8D8 CF            01     91  0742   359 	CMPB	#FAB$C_FIX,FAB$B_RFM+RELATIVE_FAB
                          03     12  0747   360 	BNEQ	GOT_RS
            56            34     D0  0749   361 	MOVL	#52,R6				;MRS FOR FIXED IS 26
                                     074C   362    GOT_RS:
         22 AB            56     B1  074C   363 	CMPW	R6,RAB$W_RSZ(R11)			;CHECK RSZ
                          15     13  0750   364 	BEQL	OK_RSZ
                                     0752   365 	FIELD	<RSZ FIELD IN RAB>
                                     0767   366    OK_RSZ:
         28 BB            56     2D  0767   367 10$:	CMPC5	R6,@RAB$L_RBF(R11),R5,#0,(SP)
            00            55         076B
                          6E         076D
                          01     12  076E   368 	BNEQ	BADREC
                                 05  0770   369 	RSB					;RETURN
                                     0771   370    BADREC:
                                     0771   371 	FIELD	<RECORD>
                                 05  0786   372 	RSB
RMSTEST3        RELATIVE TEST PROGRAM ;                          22-AUG-1978 03:29:16   VAX-11 MACRO X0.3-11               Page  11
009                                                                                                                              (8)

                                     0787   374 SETUP:
                                     0787   375 	;ROUTINE TO DO SETUP FOR PUTS OF CORRECT DATA
                                     0787   376 	;R9 IS RECORD NUMBER -- INPUT
                                     0787   377 	;OUTPUT -- RELBUF IS FILLED IN WITH CORRECT CHAR
                                     0787   378 	;	-- HEAD IS FILLED IN, AND RSZ IS ALSO
            1A            59     D1  0787   379 	CMPL	R9,#26
                          05     12  078A   380 	BNEQ	10$
            56            1A     D0  078C   381 	MOVL	#26,R6				;LEN OF LAST REC. IS 26
                          07     11  078F   382 	BRB	20$
                          5A     D4  0791   383 10$:	CLRL	R10
            59            1A     7B  0793   384 	EDIV	#26,R9,R2,R6			;R6 IS REC. # MOD 26
            56            52         0796
            56   00000040 8F     C1  0798   385 20$:	ADDL3	#^A/A/-1,R6,R5			;R5 IS CHAR. TO FILL BUFFER
                          55         079F
       F87A CF            01     91  07A0   386 	CMPB	#FAB$C_FIX,FAB$B_RFM+RELATIVE_FAB
                          03     12  07A5   387 	BNEQ	30$
            56            34     D0  07A7   388 	MOVL	#52,R6				;LEN. OF FIXED REC. IS 52
            6E            00     2C  07AA   389 30$:	MOVC5	#0,(SP),R5,R6,RELBUF		;FILL RELBUF
            56            55         07AD
                     F93E CF         07AF
         22 AB            56     B0  07B2   390 	MOVW	R6,RAB$W_RSZ(R11)		;FILL RSZ
       F8FB CF            59     D0  07B6   391 	MOVL	R9,HEAD				;FILL HEADER, IN CASE VFC
                                 05  07BB   392 	RSB
RMSTEST3        RELATIVE TEST PROGRAM ;                          22-AUG-1978 03:29:16   VAX-11 MACRO X0.3-11               Page  12
009                                                                                                                             (10)

                                     07BC   394
                                     07BC   395 GET_RECORD_SEQ:
                                     07BC   396 ;			ROUTINE TO SEQUENTIALLY GET AND CHECK RECORDS
                                     07BC   397 	$GET	R11
   00000000'8F            50     D1  07C5   398 	CMPL	R0,#RMS$_EOF
                          0F     12  07CC   399 	BNEQ	MORE
            57       F8E3 CF     91  07CE   400 	CMPB	COUNT2,R7
                          01     12  07D3   401 	BNEQ	BADNR
                                 05  07D5   402 	RSB
                                     07D6   403    BADNR:
            5A            5B     D0  07D6   404 	MOVL	R11,R10
                          F824'  30  07D9   405 	BSBW	EOFPUT
                                 05  07DC   406 	RSB
                                     07DD   407    MORE:
            09            50     E8  07DD   408 	BLBS	R0,10$
            5A            5B     D0  07E0   409 	MOVL	R11,R10
                          F81A'  30  07E3   410 	BSBW	REPORT_ERR
                          F817'  30  07E6   411 	BSBW	ERR
            57       F8C8 CF     91  07E9   412 10$:	CMPB	COUNT2,R7
                          02     15  07EE   413 	BLEQ	20$
                          E4     11  07F0   414 	BRB	BADNR
                     F8BE CF     96  07F2   415 20$:	INCB	COUNTER
                     F8BB CF     96  07F6   416 	INCB	COUNT2
            59       F8B6 CF     9A  07FA   417 	MOVZBL	COUNTER,R9
         38 AB            59     D1  07FF   418 	CMPL	R9,RAB$L_BKT(R11)
                          15     13  0803   419 	BEQL	RNOK
                                     0805   420 	FIELD	<BKT FIELD IN RAB>
                                     081A   421    RNOK:
                          FEEA   30  081A   422 	BSBW	CHECK_REC
                          5A     D4  081D   423 	CLRL	R10				;QUAD WORD DIVIDE
            59            05     7B  081F   424 	EDIV	#5,R9,R0,R2
            52            50         0822
            01            52     D1  0824   425 	CMPL	R2,#1
                          03     13  0827   426 	BEQL	SAV_RFA
                          FF90   31  0829   427 	BRW	GET_RECORD_SEQ			;CONTINUE
                                     082C   428    SAV_RFA:
                                     082C   429 	; SAVE RECORD NUMBERS 1,6,11,16,21,26 ON 1ST PASS
                                     082C   430 	; CHECK RECORD NUMBERS 16,21,26 ON 2ND PASS
            2A            57     E9  082C   431 	BLBC	R7,SAV				;WHICH PASS?
         10 AB            06     29  082F   432 	CMPC3	#6,RAB$W_RFA(R11),(R4)		;2ND, CHECK THEM
                          64         0833
                          1D     13  0834   433 	BEQL	RFA_OK
                                     0836   434 	FIELD	<RFA>
                                     084B   435 	MBPT
                                     0853   436    RFA_OK:
            54            08     C0  0853   437 	ADDL2	#8,R4
                          FF63   31  0856   438 	BRW	GET_RECORD_SEQ			;ON TO NEXT RECORD
                                     0859   439    SAV:
            84         10 AB     7D  0859   440 	MOVQ	RAB$W_RFA(R11),(R4)+		;1ST PASS, SAVE THEM
            54            01     C3  085D   441 	SUBL3	#1,R4,R2
                          52         0860
            62            59     90  0861   442 	MOVB	R9,(R2)				;ALSO STORE RECORD NUMBER
                          FF55   31  0864   443 	BRW	GET_RECORD_SEQ
                                     0867   444
                                     0867   445 GET_RECORD_RFA:
                                     0867   446 	;	GET RECORDS BY RFA
   000000EE'8F            54     D1  0867   447 	CMPL	R4,#RFATBL+48			;MORE RFA ENTRIES
RMSTEST3        RELATIVE TEST PROGRAM ;                          22-AUG-1978 03:29:16   VAX-11 MACRO X0.3-11               Page  13
009                                                                                                                             (10)

                          1F     18  086E   448 	BGEQ	END_OF_RFA
         10 AB            84     7D  0870   449 	MOVQ	(R4)+,RAB$W_RFA(R11)	;LOAD RAB W/ RFA
                                     0874   450 	$GET	RAB=R11,ERR=REPORT_ERROR
                          F77A'  30  0883   451 	BSBW	ERR
            59         17 AB     90  0886   452 	MOVB	RAB$W_RFA+7(R11),R9		;GET RECORD NUMBER, AS STORED
                          FE7A   30  088A   453 	BSBW	CHECK_REC			;R9 IS NOW REC. #
                          D8     11  088D   454 	BRB	GET_RECORD_RFA
                                     088F   455    END_OF_RFA:
                                 05  088F   456 	RSB
                                     0890   457
                                     0890   458 GET_RECORD_KEY:
                                     0890   459 		;GET RECORDS BY KEY
         30 AB       F826 CF     DE  0890   460 	MOVAL	KEY,RAB$L_KBF(R11)
       F81F CF            01     D0  0896   461 	MOVL	#1,KEY				;GET 1ST RECORD
                          0010   30  089B   462 	BSBW	GETCHK				;GET AND CHECK
       F817 CF            1A     D0  089E   463 	MOVL	#26,KEY
                          0008   30  08A3   464 	BSBW	GETCHK
       F80F CF            0D     D0  08A6   465 	MOVL	#13,KEY
                          0000   31  08AB   466 	BRW	GETCHK
                                     08AE   467
                                     08AE   468 GETCHK:
                                     08AE   469 	$GET	RAB=R11,ERR=REPORT_ERROR
                          F740'  30  08BD   470 	BSBW	ERR
            59       F7F6 CF     D0  08C0   471 	MOVL	KEY,R9
                          FE3F   31  08C5   472 	BRW	CHECK_REC
                                     08C8   473 .END
RMSTEST3        RELATIVE TEST PROGRAM ;                          22-AUG-1978 03:29:16   VAX-11 MACRO X0.3-11               Page  14
SYMBOL TABLE                                                                                                                    (10)

$$.PSECT_EP    = 00000000            FAB$C_VAR      = 00000002    D       FAB$M_SUP      = 00000004    D
$$.TAB         = 00000094 R  D  02   FAB$C_VFC      = 00000003    D       FAB$M_TEF      = 10000000
$$.TABEND      = 000000B4 R  D  02   FAB$K_BLN        00000050            FAB$M_TMD      = 00000010
$$.TMP         = 00000002    D       FAB$L_ALQ        00000010    D       FAB$M_TMP      = 00000008
$$.TMP1        = 00000002    D       FAB$L_CTX        00000018    D       FAB$M_TRN      = 00000010
$$.TMP2        = 0000005B            FAB$L_DEV        00000040            FAB$M_UFM      = 04000000
$$.TMPX        = 00000191 R  D  05   FAB$L_DNA        00000030    D       FAB$M_UFO      = 00020000
$$.TMPX1       = 00000003    D       FAB$L_FNA        0000002C    D       FAB$M_UPD      = 00000008
$$RMSTEST      = 0000001E            FAB$L_FOP        00000004    D       FAB$M_UPI      = 00000040
$$RMS_PBUGCHK  = 00000010            FAB$L_JNL        00000020    D       FAB$M_WCK      = 00000200
$$RMS_TBUGCHK  = 00000008            FAB$L_MRN        00000038    D       FAB$S_ORG      = 00000004
$$RMS_UMODE    = 00000004            FAB$L_NAM        00000028    D       FAB$S_PPF_RAT  = 00000008
..AFLG         = 00000000    D       FAB$L_SDC        00000044            FAB$V_BIO      = 00000005
..FLG          = 00000001    D       FAB$L_STS        00000008            FAB$V_BLK      = 00000003
..TYP          = 000000CF            FAB$L_STV        0000000C    D       FAB$V_BRO      = 00000006
.LEN           = 00000004    D       FAB$L_XAB        00000024    D       FAB$V_CBT      = 00000015
ALLOC_XAB        00000094 R  D  02   FAB$M_BIO      = 00000020            FAB$V_CIF      = 00000019
ALQOK            000003A5 R  D  02   FAB$M_BLK      = 00000008            FAB$V_CR       = 00000001    D
ALQOK1           000003F1 R  D  02   FAB$M_BRO      = 00000040            FAB$V_CTG      = 00000014
BADNR            000007D6 R  D  02   FAB$M_CBT      = 00200000            FAB$V_DEL      = 00000002    D
BADREC           00000771 R  D  02   FAB$M_CIF      = 02000000    D       FAB$V_DFW      = 00000005    D
BEGPUT           ********   X   02   FAB$M_CR       = 00000002            FAB$V_DLT      = 0000000F
BEG_DESCR        ********   X   02   FAB$M_CTG      = 00100000            FAB$V_DMO      = 0000000C
BIT...         = 00000008    D       FAB$M_DEL      = 00000004            FAB$V_ESC      = 0000001B
BKT_OK           00000496 R  D  02   FAB$M_DFW      = 00000020            FAB$V_EXE      = 00000007
CHECK_REC        00000707 R  D  02   FAB$M_DLT      = 00008000            FAB$V_FTN      = 00000000
CHK_BAD_DATA     00000678 R  D  02   FAB$M_DMO      = 00001000            FAB$V_GET      = 00000001    D
CMDORAB          ********   X   02   FAB$M_ESC      = 08000000            FAB$V_INP      = 00000013
COUNT2           000000B5 R  D  02   FAB$M_EXE      = 00000080            FAB$V_JNL      = 00000016
COUNTER          000000B4 R  D  02   FAB$M_FTN      = 00000001            FAB$V_KFO      = 0000001E
DO_SOME_GETS     000006BF RG D  02   FAB$M_GET      = 00000002            FAB$V_MSE      = 00000004
END_OF_RFA       0000088F R  D  02   FAB$M_INP      = 00080000            FAB$V_MXV      = 00000001
EOFPUT           ********   X   02   FAB$M_JNL      = 00400000            FAB$V_NAM      = 00000018
ERR              ********   X   02   FAB$M_KFO      = 40000000            FAB$V_NEF      = 0000000A
ERR_OK           0000053B R  D  02   FAB$M_MSE      = 00000010            FAB$V_NFS      = 00000010
FAB$B_BID        00000000            FAB$M_MXV      = 00000002            FAB$V_NIL      = 00000005
FAB$B_BKS        0000003E    D       FAB$M_NAM      = 01000000            FAB$V_OFP      = 0000001D
FAB$B_BLN        00000001            FAB$M_NEF      = 00000400            FAB$V_ORG      = 00000004
FAB$B_DNS        00000035    D       FAB$M_NFS      = 00010000            FAB$V_POS      = 00000008
FAB$B_FAC        00000016    D       FAB$M_NIL      = 00000020            FAB$V_PPF      = 00000012
FAB$B_FNS        00000034    D       FAB$M_OFP      = 20000000            FAB$V_PPF_IND  = 0000000E
FAB$B_FSZ        0000003F    D       FAB$M_POS      = 00000100            FAB$V_PPF_RAT  = 00000006
FAB$B_ORG        0000001D    D       FAB$M_PPF      = 00040000            FAB$V_PRN      = 00000002
FAB$B_RAT        0000001E    D       FAB$M_PPF_IND  = 00004000            FAB$V_PUT      = 00000000    D
FAB$B_RFM        0000001F    D       FAB$M_PPF_RAT  = 00003FC0            FAB$V_RCK      = 00000017
FAB$B_RTV        0000001C    D       FAB$M_PRN      = 00000004            FAB$V_RWC      = 0000000B
FAB$B_SHR        00000017    D       FAB$M_PUT      = 00000001            FAB$V_RWO      = 00000007
FAB$C_BID      = 00000003    D       FAB$M_RCK      = 00800000            FAB$V_SCF      = 0000000E
FAB$C_BLN        00000050    D       FAB$M_RWC      = 00000800            FAB$V_SHRDEL   = 00000002
FAB$C_FIX      = 00000001    D       FAB$M_RWO      = 00000080            FAB$V_SHRGET   = 00000001
FAB$C_HSH      = 00000030            FAB$M_SCF      = 00004000            FAB$V_SHRPUT   = 00000000
FAB$C_IDX      = 00000020            FAB$M_SHRDEL   = 00000004            FAB$V_SHRUPD   = 00000003
FAB$C_MAXRFM   = 00000003            FAB$M_SHRGET   = 00000002            FAB$V_SPL      = 0000000D
FAB$C_REL      = 00000010    D       FAB$M_SHRPUT   = 00000001            FAB$V_SQO      = 00000006
FAB$C_RFM_DFLT = 00000002            FAB$M_SHRUPD   = 00000008            FAB$V_SUP      = 00000002    D
FAB$C_SEQ      = 00000000            FAB$M_SPL      = 00002000            FAB$V_TEF      = 0000001C
FAB$C_UDF      = 00000000            FAB$M_SQO      = 00000040            FAB$V_TMD      = 00000004
RMSTEST3        RELATIVE TEST PROGRAM ;                          22-AUG-1978 03:29:16   VAX-11 MACRO X0.3-11               Page  15
SYMBOL TABLE                                                                                                                    (10)

FAB$V_TMP      = 00000003            RAB$L_RFA0       00000010            RAB$V_RNE      = 00000018
FAB$V_TRN      = 00000004            RAB$L_RHB        0000002C    D       RAB$V_RNF      = 0000001B
FAB$V_UFM      = 0000001A            RAB$L_ROP        00000004    D       RAB$V_TMO      = 00000019
FAB$V_UFO      = 00000011            RAB$L_STS        00000008            RAB$V_TPT      = 00000001
FAB$V_UPD      = 00000003    D       RAB$L_STV        0000000C            RAB$V_UIF      = 00000004    D
FAB$V_UPI      = 00000006            RAB$L_UBF        00000024    D       RAB$V_ULK      = 00000012
FAB$V_WCK      = 00000009            RAB$M_ASY      = 00000001            RAB$V_WAT      = 00000011
FAB$W_BLS        0000003C    D       RAB$M_BIO      = 00000800            RAB$V_WBH      = 0000000A
FAB$W_DEQ        00000014    D       RAB$M_CCO      = 80000000            RAB$W_ISI        00000002
FAB$W_IFI        00000002            RAB$M_CVT      = 04000000            RAB$W_RFA        00000010    D
FAB$W_MRS        00000036    D       RAB$M_EOF      = 00000100            RAB$W_RFA4       00000014
FIND_DEL         000004C8 R  D  02   RAB$M_FDL      = 00000040            RAB$W_RSZ        00000022    D
FINPUT           ********   X   02   RAB$M_HSH      = 00000080            RAB$W_USZ        00000020    D
FIN_DESCR        ********   X   02   RAB$M_KGE      = 00200000            REC_OK           000006BE R  D  02
FLDPUT           ********   X   02   RAB$M_KGT      = 00400000            RELATIVE_FAB     00000000 R  D  02
FLD_DESCR        ********   X   02   RAB$M_LIM      = 00004000            RELATIVE_RAB     00000050 R  D  02
GBL...         = 00000000    D       RAB$M_LOA      = 00002000            RELBSZ         = 000000C8  G D
GETCHK           000008AE R  D  02   RAB$M_LOC      = 00010000            RELBUF           000000F0 RG D  02
GET_RECORD_KEY   00000890 R  D  02   RAB$M_MAS      = 00000020            REL_TEST         0000032D R  D  02
GET_RECORD_RFA   00000867 R  D  02   RAB$M_NLK      = 00100000            REL_TEST2        00000400 R  D  02
GET_RECORD_SEQ   000007BC R  D  02   RAB$M_NXR      = 00800000    D       REPORT_ERR       ********   X   02
GOT_RS           0000074C R  D  02   RAB$M_PMT      = 40000000            REPORT_ERROR     ********   X   02
HEAD             000000B6 R  D  02   RAB$M_PPF_IND  = 00004000            RFATBL           000000BE R  D  02
KEY              000000BA R  D  02   RAB$M_PPF_RAT  = 00003FC0            RFA_OK           00000853 R  D  02
LOCK_FAB         ********   X   02   RAB$M_PTA      = 20000000            RFML           = 00000029    D
MORE             000007DD R  D  02   RAB$M_RAH      = 00000200            RFMS             000001C0 R  D  02
NAMBLK           ********   X   02   RAB$M_RLK      = 00080000            RFMSTR           000001B8 R  D  02
NO_HEADER        00000729 R  D  02   RAB$M_RNE      = 01000000            RMS$_CREATED     ********   X   02
NO_MORE          000005CC R  D  02   RAB$M_RNF      = 08000000            RMS$_EOF         ********   X   02
OK_RSZ           00000767 R  D  02   RAB$M_TMO      = 02000000            RMS$_RNF         ********   X   02
PUT_RECORD_KEY   000004FC R  D  02   RAB$M_TPT      = 00000002            RMT$TEST_3A      000001E9 RG D  02
PUT_RECORD_SEQ   0000044B RG D  02   RAB$M_UIF      = 00000010    D       RMT$TEST_5A      ********   X   02
RAB$B_BID        00000000            RAB$M_ULK      = 00040000            RNOK             0000081A R  D  02
RAB$B_BLN        00000001            RAB$M_WAT      = 00020000            RSZ_OK           000006A0 R  D  02
RAB$B_KRF        00000035    D       RAB$M_WBH      = 00000400            SAV              00000859 R  D  02
RAB$B_KSZ        00000034    D       RAB$S_PPF_RAT  = 00000008            SAV_RFA          0000082C R  D  02
RAB$B_MBC        00000037    D       RAB$V_ASY      = 00000000            SETUP            00000787 R  D  02
RAB$B_MBF        00000036    D       RAB$V_BIO      = 0000000B            STVOK            00000389 R  D  02
RAB$B_PSZ        00000034            RAB$V_CCO      = 0000001F            SYS$CLOSE        ********  GX   02
RAB$B_RAC        0000001E    D       RAB$V_CVT      = 0000001A            SYS$CONNECT      ********  GX   02
RAB$B_ROP1       00000005            RAB$V_EOF      = 00000008            SYS$CREATE       ********  GX   02
RAB$B_ROP2       00000006            RAB$V_FDL      = 00000006            SYS$DELETE       ********  GX   02
RAB$B_ROP3       00000007            RAB$V_HSH      = 00000007            SYS$DISCONNECT   ********  GX   02
RAB$B_TMO        0000001F    D       RAB$V_KGE      = 00000015            SYS$EXTEND       ********  GX   02
RAB$C_BID      = 00000001    D       RAB$V_KGT      = 00000016            SYS$FIND         ********  GX   02
RAB$C_BLN        00000044    D       RAB$V_LIM      = 0000000E            SYS$GET          ********  GX   02
RAB$C_KEY      = 00000001    D       RAB$V_LOA      = 0000000D            SYS$OPEN         ********  GX   02
RAB$C_RFA      = 00000002    D       RAB$V_LOC      = 00000010            SYS$PUT          ********  GX   02
RAB$C_SEQ      = 00000000    D       RAB$V_MAS      = 00000005            SYS$REWIND       ********  GX   02
RAB$K_BLN        00000044            RAB$V_NLK      = 00000014            SYS$UPDATE       ********  GX   02
RAB$L_BKT        00000038    D       RAB$V_NXR      = 00000017            T3START          00000000 RG D  02
RAB$L_CTX        00000018    D       RAB$V_PMT      = 0000001E            UPDATE_RECORD    0000058A R  D  02
RAB$L_DCT        00000038            RAB$V_PPF_IND  = 0000000E            VERBOSITY        ********   X   02
RAB$L_FAB        0000003C    D       RAB$V_PPF_RAT  = 00000006            XAB$B_AID        00000017    D
RAB$L_KBF        00000030    D       RAB$V_PTA      = 0000001D            XAB$B_ALN        00000009
RAB$L_PBF        00000030            RAB$V_RAH      = 00000009            XAB$B_AOP        00000008    D
RAB$L_RBF        00000028    D       RAB$V_RLK      = 00000013            XAB$B_BKZ        00000016    D
RMSTEST3        RELATIVE TEST PROGRAM ;                          22-AUG-1978 03:29:16   VAX-11 MACRO X0.3-11               Page  16
SYMBOL TABLE                                                                                                                    (10)

XAB$B_BLN        00000001
XAB$B_COD        00000000
XAB$C_ALL      = 00000014    D
XAB$C_ALLLEN     00000020    D
XAB$C_ANY      = 00000000
XAB$C_CYL      = 00000001
XAB$C_LBN      = 00000002
XAB$C_RFI      = 00000004
XAB$C_VBN      = 00000003
XAB$K_ALLLEN     00000020
XAB$L_ALQ        00000010    D
XAB$L_LOC        0000000C    D
XAB$L_NXT        00000004    D
XAB$L_RDT0       0000000C
XAB$L_RDT4       00000010
XAB$M_CBT      = 00000020
XAB$M_CTG      = 00000080
XAB$M_HRD      = 00000001
XAB$M_ONC      = 00000002
XAB$Q_RDT        0000000C
XAB$V_CBT      = 00000005
XAB$V_CTG      = 00000007
XAB$V_HRD      = 00000000
XAB$V_ONC      = 00000001
XAB$W_DEQ        00000014    D
XAB$W_RFI        00000018
XAB$W_RFI0       00000018    D
XAB$W_RFI2       0000001A    D
XAB$W_RFI4       0000001C    D
XAB$W_RVN        00000008
XAB$W_VOL        0000000A    D


PROGRAM SECTION SYNOPSIS

.  ABS  .        00000000      00     NOPIC   USR   CON   ABS   LCL NOSHR NOEXE NORD  NOWRT BYTE
. BLANK .        00000000      01     NOPIC   USR   CON   REL   LCL NOSHR   EXE   RD    WRT BYTE
__RMSTEST        000008C8      02     NOPIC   USR   CON   REL   GBL NOSHR   EXE   RD    WRT LONG
$ABS$            00000050      03     NOPIC   USR   CON   ABS   LCL NOSHR   EXE   RD    WRT BYTE
$RMSNAM          0000000F      04     NOPIC   USR   CON   REL   LCL NOSHR   EXE   RD    WRT BYTE
__$RMSNAM        00000194      05     NOPIC   USR   CON   REL   LCL NOSHR   EXE   RD    WRT BYTE


THERE WERE NO ERRORS OR WARNINGS.
5202. BYTES LEFT IN FREE MEMORY POOL.
590. BYTES OF RECLAIMED MEMORY.
OBJ$:RMSTEST3,LIS$:RMSTEST3/-SP=SRC$:UETPLIBS,SRCD$:[RMSTEST]RMSTEST3
105 MLB DIR RDS - 841 GETS TO DEFINE 46 MACROS. 66 INTER. FILE WRITES.
