RMSTRANS        TRANS LOG NAME ;                                 22-AUG-1978 03:34:16   VAX-11 MACRO X0.3-11               Page   1
020                                                                                                                              (1)

                                     0000     1 ;	UETP prefix file (contains macro library file specs).
                                     0000     2 ;
                                     0000     3 	.LIBRARY	/EXECML$/	;SYSTEM MACROS
                                     0000     4 	.LIBRARY	/LIBD$:[SYSTST.OBJ]SYSTST.MLB/ ; PRIVATE UETP,SYSTST LIB
                                     0000     5 	.LIST	MEB
                                     0000     6 ;
                                     0000    31 $BEGIN RMSTRANS,020,__RMSTEST,<TRANS LOG NAME>,<LONG,GBL>
                                 00000000       	.PSECT	__RMSTEST,GBL,LONG,GBL
                                     0000    32 	.ENABL DBG
                                     0000    33 	$SSDEF					;DEFINE SYSTEM CODES
                                     0000       	.SAVE
                                 00000000       	.PSECT	$ABS$,ABS
                                 00000000       	.RESTORE
                                 00000000    34 	.PSECT __RMSTEST,GBL,LONG
                  00000008'00000016' 0000    35 VERBSTR:	.LONG VERBL,VERBS
42 52 45 56 5F 54 53 54 24 53 4D 52  0008    36 VERBS:	.ASCII	/RMS$TST_VERBOSITY_FLAG/
      47 41 4C 46 5F 59 54 49 53 4F  0014
                           00000016  001E    37 		VERBL=.-VERBS
                                 00  001E    38 VERBOSITY::	.BYTE 0		;FLAG FOR AMOUNT OF VERBOSITY
                                     001F    39 				;0 FOR GO-NO GO MESSAGES, 1 FOR INTERACTIVE
                               0000  001F    40 VERBLEN:	.WORD 0		;CATCH LEN OF TRANSLATION
                                     0021    41
                                     0021    42 ;THIS IS A ROUTINE TO TRANSLATE THE LOGICAL NAME RMS$TST_VERBOSITY_FLAG
                                     0021    43 ; AND SET THE VERBOSITY FLAG DEPENDING ON THE RESULTS
                                     0021    44 ;A TRANSLATION GREATER THAN 1 CHARACTER IMPLIES GO-NO-GO TESTING, WITH
                                     0021    45 ;LESS OUTPUT (VERBOSITY=0)
                                     0021    46 ;NO TRANSLATION IMPLIES INTERACTIVE DEBUGGING-TESTING, WITH MUCH VERBOSITY
                                     0021    47 ;(VERBOSITY := 1)
                                     0021    48 ;
                                     0021    49 TRAN::
                                     0021    50 	$TRNLOG_S	VERBSTR,VERBLEN,VERBSTR	;THIS OBVIOUSLY ISN'T RE-ENTRANT
                          00     DD  0021       		PUSHL	#0
                          00     DD  0023       		PUSHL	#0
                          00     DD  0025       		PUSHL	#0
                       D6 AF     7F  0027       		PUSHAQ	VERBSTR
                       F2 AF     3F  002A       		PUSHAW	VERBLEN
                       D0 AF     7F  002D       		PUSHAQ	VERBSTR
   00000000'GF            06     FB  0030       		CALLS	#6,G^SYS$TRNLOG
                                     0037    51 						;BUT THERE'S NO REASON FOR IT TO BE
   00000629 8F            50     D1  0037    52 	CMPL	R0,#SS$_NOTRAN			;NO TRANSLATION?
                          0A     13  003E    53 	BEQL	NOTRAN
            FF            50     E9  0040    54 	BLBC	R0,.				;ANY OTHER ERROR
            01         D9 AF     B1  0043    55 	CMPW	VERBLEN,#1			;ONLY TRANSLATED TO 1 CHAR.
                          01     13  0047    56 	BEQL	NOTRAN				;DOESN'T COUNT AS TRANSLATION
                                 05  0049    57 	RSB
         D0 AF            01     90  004A    58 NOTRAN:	MOVB	#1,VERBOSITY	;SET INTERACTIVENESS BIT
                                 05  004E    59 	RSB
                                     004F    60 ;
                                     004F    61 .END
RMSTRANS        TRANS LOG NAME ;                                 22-AUG-1978 03:34:16   VAX-11 MACRO X0.3-11               Page   2
SYMBOL TABLE                                                                                                                     (1)

$$.PSECT_EP    = 00000000            SS$_DIRFULL    = 00000860            SS$_IVQUOTAL   = 00000164
$$RMSTEST      = 0000001E            SS$_DRVERR     = 0000008C            SS$_IVSECFLG   = 0000016C
$$RMS_PBUGCHK  = 00000010            SS$_DUPFILENAME= 00000868            SS$_IVSECIDCTL = 000002E4
$$RMS_TBUGCHK  = 00000008            SS$_DUPLNAM    = 00000094            SS$_IVSSRQ     = 00000174
$$RMS_UMODE    = 00000004            SS$_ENDOFFILE  = 00000870            SS$_IVSTSFLG   = 0000017C
BIT...         = 00000000    D       SS$_ENDOFTAPE  = 00000878            SS$_IVTIME     = 00000184
GBL...         = 00000000    D       SS$_ENDOFUSRLBL= 00000970            SS$_LCKPAGFUL  = 000000D4
NOTRAN           0000004A R  D  02   SS$_EXQUOTA    = 0000001C            SS$_LENVIO     = 0000018C
SS$_ABORT      = 0000002C            SS$_EXTIDXFILE = 00000880            SS$_LKWSETFUL  = 00000194
SS$_ACCONFLICT = 00000800            SS$_FCPREADERR = 00000888            SS$_MBFULL     = 000008D8
SS$_ACCVIO     = 0000000C            SS$_FCPREPSTN  = 00000988            SS$_MBTOOSML   = 0000019C
SS$_ACPVAFUL   = 000002FC            SS$_FCPREWNDERR= 00000890            SS$_MCHECK     = 000002BC
SS$_ARTRES     = 00000474            SS$_FCPSPACERR = 00000898            SS$_MEDOFL     = 000001A4
SS$_ASTFLT     = 0000040C            SS$_FCPWRITERR = 000008A0            SS$_MSGNOTFND  = 00000621
SS$_BADATTRIB  = 00000034            SS$_FILACCERR  = 0000009C            SS$_MTLBLLONG  = 00000304
SS$_BADCHKSUM  = 00000808            SS$_FILALRACC  = 000000A4            SS$_MUSTCLOSEFL= 00000948
SS$_BADESCAPE  = 0000003C            SS$_FILELOCKED = 000008A8            SS$_NOAQB      = 00000314
SS$_BADFILEHDR = 00000810            SS$_FILENUMCHK = 000008B0            SS$_NODATA     = 000001AC
SS$_BADFILENAME= 00000818            SS$_FILESEQCHK = 000008B8            SS$_NOHANDLER  = 000008F8
SS$_BADFILEVER = 00000820            SS$_FILESTRUCT = 000008C0            SS$_NOHOMEBLK  = 000008E0
SS$_BADIMGHDR  = 00000044            SS$_FILNOTACC  = 000000AC            SS$_NOIOCHAN   = 000001B4
SS$_BADIRECTORY= 00000828            SS$_FILNOTCNTG = 000002AC            SS$_NOLINKS    = 0000027C
SS$_BADPARAM   = 00000014            SS$_FILNOTEXP  = 000000B4            SS$_NOLOGNAM   = 000001BC
SS$_BADSTACK   = 000002B4            SS$_FLTDIV     = 00000494            SS$_NOMBX      = 00000274
SS$_BEGOFFILE  = 00000938            SS$_FLTOVF     = 0000048C            SS$_NOMOREFILES= 00000930
SS$_BLOCKCNTERR= 00000940            SS$_FLTUND     = 0000049C            SS$_NONEXDRV   = 000001C4
SS$_BREAK      = 00000414            SS$_FORMAT     = 000000BC            SS$_NONEXPR    = 000008E8
SS$_BUFBYTALI  = 0000030C            SS$_GPTFULL    = 000000C4            SS$_NONLOCAL   = 000008F0
SS$_BUFFEROVF  = 00000601            SS$_GSDFULL    = 000000CC            SS$_NOPRIV     = 00000024
SS$_BUGCHECK   = 000002A4            SS$_HANGUP     = 000002CC            SS$_NORMAL     = 00000001
SS$_CANCEL     = 00000830            SS$_HEADERFULL = 000008C8            SS$_NOSIGNAL   = 00000900
SS$_CHANINTLK  = 0000004C            SS$_IDXFILEFULL= 000008D0            SS$_NOSOLICIT  = 00000284
SS$_CLIFRCEXT  = 00000980            SS$_ILLBLKNUM  = 000000DC            SS$_NOSUCHDEV  = 00000908
SS$_CMODSUPR   = 0000041C            SS$_ILLCNTRFUNC= 000000E4            SS$_NOSUCHFILE = 00000910
SS$_CMODUSER   = 00000424            SS$_ILLEFC     = 000000EC            SS$_NOSUCHNODE = 0000028C
SS$_COMPAT     = 0000042C            SS$_ILLIOFUNC  = 000000F4            SS$_NOSUCHSEC  = 00000978
SS$_CONTINUE   = 00000001            SS$_ILLLBLAST  = 00000968            SS$_NOTAPEOP   = 00000264
SS$_CONTROLC   = 00000651            SS$_ILLPAGCNT  = 000000FC            SS$_NOTFILEDEV = 000001CC
SS$_CONTROLO   = 00000609            SS$_ILLSEQOP   = 000002DC            SS$_NOTINTBLSZ = 000001D4
SS$_CONTROLY   = 00000611            SS$_ILLSER     = 00000104            SS$_NOTLABELMT = 000001DC
SS$_CREATED    = 00000619            SS$_ILLUSRLBLRD= 00000958            SS$_NOTMODIFIED= 00000659
SS$_CTRLERR    = 00000054            SS$_ILLUSRLBLWT= 00000960            SS$_NOTNETDEV  = 000002EC
SS$_DATACHECK  = 0000005C            SS$_INCVOLLABEL= 0000010C            SS$_NOTRAN     = 00000629    D
SS$_DATAOVERUN = 00000838            SS$_INSFARG    = 00000114            SS$_NOTSQDEV   = 000001E4
SS$_DEBUG      = 0000046C            SS$_INSFMEM    = 00000124            SS$_OPCCUS     = 00000434
SS$_DECOVF     = 000004A4            SS$_INSFRAME   = 0000012C            SS$_OPCDEC     = 0000043C
SS$_DEVACTIVE  = 000002C4            SS$_INSFWSL    = 0000011C            SS$_OPINCOMPL  = 000002D4
SS$_DEVALLOC   = 00000840            SS$_INTDIV     = 00000484            SS$_PAGOWNVIO  = 000001EC
SS$_DEVALRALLOC= 00000641            SS$_INTOVF     = 0000047C            SS$_PAGRDERR   = 00000444
SS$_DEVASSIGN  = 00000848            SS$_IVADDR     = 00000134            SS$_PARITY     = 000001F4
SS$_DEVFOREIGN = 00000064            SS$_IVCHAN     = 0000013C            SS$_PARTESCAPE = 000001FC
SS$_DEVICEFULL = 00000850            SS$_IVCHNLSEC  = 0000026C            SS$_PFMBSY     = 00000204
SS$_DEVMOUNT   = 0000006C            SS$_IVDEVNAM   = 00000144            SS$_PLHLDR     = 00000404
SS$_DEVNOTALLOC= 00000858            SS$_IVGSDNAM   = 0000014C            SS$_PSTFULL    = 0000020C
SS$_DEVNOTMBX  = 00000074            SS$_IVLOGNAM   = 00000154            SS$_RADRMOD    = 0000044C
SS$_DEVNOTMOUNT= 0000007C            SS$_IVLOGTAB   = 0000015C            SS$_REJECT     = 00000294
SS$_DEVOFFLINE = 00000084            SS$_IVPROTECT  = 000002F4            SS$_REMOTE     = 00000649
RMSTRANS        TRANS LOG NAME ;                                 22-AUG-1978 03:34:16   VAX-11 MACRO X0.3-11               Page   3
SYMBOL TABLE                                                                                                                     (1)

SS$_RESIGNAL   = 00000918
SS$_RESULTOVF  = 00000214
SS$_ROPRAND    = 00000454
SS$_SECTBLFUL  = 0000021C
SS$_SSFAIL     = 0000045C
SS$_SUBRNG     = 000004AC
SS$_SUPERSEDE  = 00000631
SS$_TAPEPOSLOST= 00000224
SS$_TBIT       = 00000464
SS$_TIMEOUT    = 0000022C
SS$_TOOMANYVER = 00000990
SS$_TOOMUCHDATA= 0000029C
SS$_UNASEFC    = 00000234
SS$_UNSAFE     = 0000023C
SS$_UNWIND     = 00000920
SS$_UNWINDING  = 00000928
SS$_VASFULL    = 00000244
SS$_VECINUSE   = 0000024C
SS$_VOLINV     = 00000254
SS$_WAITUSRLBL = 00000950
SS$_WASCLR     = 00000001
SS$_WASECC     = 00000639
SS$_WASSET     = 00000009
SS$_WRITLCK    = 0000025C
SS$_WRONGACP   = 0000031C
SYS$TRNLOG       ********   X   02
TRAN             00000021 RG D  02
VERBL          = 00000016    D
VERBLEN          0000001F R  D  02
VERBOSITY        0000001E RG D  02
VERBS            00000008 R  D  02
VERBSTR          00000000 R  D  02


PROGRAM SECTION SYNOPSIS

.  ABS  .        00000000      00     NOPIC   USR   CON   ABS   LCL NOSHR NOEXE NORD  NOWRT BYTE
. BLANK .        00000000      01     NOPIC   USR   CON   REL   LCL NOSHR   EXE   RD    WRT BYTE
__RMSTEST        0000004F      02     NOPIC   USR   CON   REL   GBL NOSHR   EXE   RD    WRT LONG
$ABS$            00000000      03     NOPIC   USR   CON   ABS   LCL NOSHR   EXE   RD    WRT BYTE


THERE WERE NO ERRORS OR WARNINGS.
18444. BYTES LEFT IN FREE MEMORY POOL.
3778. BYTES OF RECLAIMED MEMORY.
OBJ$:RMSTESTT,LIS$:RMSTESTT/-SP=SRC$:UETPLIBS,SRCD$:[RMSTEST]RMSTESTT
20 MLB DIR RDS - 305 GETS TO DEFINE 9 MACROS. 53 INTER. FILE WRITES.
