UETCOMP01       VAX/VMS UETP MESSAGE TO START COMPATIBILITY PHA  22-AUG-1978 03:14:32   VAX-11 MACRO X0.3-11               Page   0
TABLE OF CONTENTS

   (2)      49  DECLARATIONS AND DATA
   (2)      57  MAIN ROUTINE
UETCOMP01       VAX/VMS UETP MESSAGE TO START COMPATIBILITY PHA  22-AUG-1978 03:14:32   VAX-11 MACRO X0.3-11               Page   1
1.0                                                                                                                              (1)

                                     0000     1 ;	UETP prefix file (contains macro library file specs).
                                     0000     2 ;
                                     0000     3 	.LIBRARY	/EXECML$/	;SYSTEM MACROS
                                     0000     4 	.LIBRARY	/LIBD$:[SYSTST.OBJ]SYSTST.MLB/ ; PRIVATE UETP,SYSTST LIB
                                     0000     5 	.LIST	MEB
                                     0000     6 ;
                                     0000     1 	.TITLE UETCOMP01  VAX/VMS UETP MESSAGE TO START COMPATIBILITY PHASE
                                     0000     2 	.IDENT /1.0/
                                     0000     3
                                     0000     4 ;
                                     0000     5 ; COPYRIGHT (C) 1978
                                     0000     6 ; DIGITAL EQUIPMENT CORPORATION, MAYNARD, MASSACHUSETTS 01754
                                     0000     7 ;
                                     0000     8 ; THIS SOFTWARE IS FURNISHED  UNDER A LICENSE FOR USE ONLY ON A SINGLE
                                     0000     9 ; COMPUTER  SYSTEM AND  MAY BE  COPIED ONLY WITH  THE INCLUSION OF THE
                                     0000    10 ; ABOVE COPYRIGHT NOTICE.  THIS SOFTWARE, OR ANY OTHER COPIES THEREOF,
                                     0000    11 ; MAY NOT BE PROVIDED OR  OTHERWISE MADE AVAILABLE TO ANY OTHER PERSON
                                     0000    12 ; EXCEPT FOR USE ON SUCH SYSTEM AND TO ONE WHO AGREES TO THESE LICENSE
                                     0000    13 ; TERMS.  TITLE TO AND  OWNERSHIP OF THE  SOFTWARE  SHALL AT ALL TIMES
                                     0000    14 ; REMAIN IN DEC.
                                     0000    15 ;
                                     0000    16 ; THE INFORMATION IN THIS SOFTWARE IS SUBJECT TO CHANGE WITHOUT NOTICE
                                     0000    17 ; AND SHOULD  NOT BE CONSTRUED  AS A COMMITMENT  BY DIGITAL  EQUIPMENT
                                     0000    18 ; CORPORATION.
                                     0000    19 ;
                                     0000    20 ; DEC ASSUMES  NO  RESPONSIBILITY  FOR  THE USE OR  RELIABILITY OF ITS
                                     0000    21 ; SOFTWARE ON EQUIPMENT WHICH IS NOT SUPPLIED BY DEC.
                                     0000    22 ;
                                     0000    23
                                     0000    24 ;++
                                     0000    25 ; FACILITY:
                                     0000    26 ; 	THIS MODULE WILL BE DISTRIBUTED WITH VAX/VMS UNDER THE UETP UIC.
                                     0000    27 ;
                                     0000    28 ; ABSTRACT:
                                     0000    29 ;	THIS MODULE PRINTS OUT THE TERMINATION MESSAGE.
                                     0000    30 ;
                                     0000    31 ; ENVIRONMENT:
                                     0000    32 ; 	THE MODULE WILL RUN IN USER ACCESS MODE.
                                     0000    33 ;
                                     0000    34 ; AUTHOR: DICK BATOR,	 CREATION DATE: JANUARY 1978
                                     0000    35 ;
                                     0000    36 ; MODIFIED BY:
                                     0000    37 ;
                                     0000    38 ;
                                     0000    39 ;	, : VERSION
                                     0000    40 ;  1.0	-	FIRST RELEASED 4-MAR-78
                                     0000    41 ;--
UETCOMP01       VAX/VMS UETP MESSAGE TO START COMPATIBILITY PHA  22-AUG-1978 03:14:32   VAX-11 MACRO X0.3-11               Page   2
1.0             DECLARATIONS AND DATA                                                                                            (2)

                                     0000    43 	.SBTTL	DECLARATIONS AND DATA
                                     0000    44 ;
                                     0000    45 ; INCLUDE FILES:
                                     0000    46 ;
                                     0000    47 	$SHR_MESSAGES UETP,116,<<BEGIND,INFO>>
                                     0000       	.SAVE
                                 00000000       	.PSECT	$ABS$,ABS
                                     0000       	.RESTORE
                                     0000    48 ;
                                     0000    49 PROC_NAME: STRING I,<UETCOMP01>		;THIS PROCESS NAME
                           00000009  0000       	.LONG	$$$CHARS
                           00000008' 0004       	.ADDRESS .+4
         31 30 50 4D 4F 43 54 45 55  0008       	.ASCII	\UETCOMP01\
                                     0011    50 ;
                                     0011    51 	.SBTTL MAIN ROUTINE
                                 00000000    52 	.PSECT UETCOMP01,EXE,RD,NOWRT
                               0000' 0000    53 	.ENTRY	UETCOMP01,0		; ENTRY MASK
                                     0002    54 ;********************************************************************************
                                     0002    55 ;	THIS MODULE TELLS USER THAT COMPATIBILITY MODE TESTING BEGINS
                                     0002    56 ;********************************************************************************
                                     0002    57 	PUTMSG	<#UETP$_BEGIND,#2,#PROC_NAME,#0> ; GREETINGS
                          00     DD  0002       	  	PUSHL	#0
                 00000000'8F     DD  0004       	  	PUSHL	#PROC_NAME
                          02     DD  000A       	  	PUSHL	#2
                 0074103B 8F     DD  000C       	  	PUSHL	#UETP$_BEGIND
   00000000'9F            04     FB  0012       		CALLS	#$$T1,@#LIB$SIGNAL
                                     0019    58 	$SETPRN_S PROC_NAME
                 00000000'EF     7F  0019       		PUSHAQ	PROC_NAME
   00000000'GF            01     FB  001F       		CALLS	#1,G^SYS$SETPRN
                                     0026    59 	$EXIT_S				; E X I T
                          01     DD  0026       		PUSHL	#1
   00000000'GF            01     FB  0028       		CALLS	#1,G^SYS$EXIT
                                     002F    60 	.END	UETCOMP01
UETCOMP01       VAX/VMS UETP MESSAGE TO START COMPATIBILITY PHA  22-AUG-1978 03:14:32   VAX-11 MACRO X0.3-11               Page   3
SYMBOL TABLE                                                                                                                     (2)

$$$CHARS       = 00000009            SHR$_NOJOBID   = 000011A0
$$$STRINGS     = 00000000            SHR$_NOJOBNAME = 000011A8
$$T1           = 00000004            SHR$_NOQUEUE   = 00001198
BIT...         = 00001258            SHR$_NOTCMPLT  = 000011C0
GBL...         = 00000000            SHR$_NOTCOPIED = 000011B8
LIB$SIGNAL       ********   X   03   SHR$_NOVALUE   = 00001100
PROC_NAME        00000000 R     01   SHR$_NOWILD    = 00001128
SHR$K_SHRDEF   = 00000001            SHR$_OPENIN    = 00001098
SHR$_ABEND     = 000010D8            SHR$_OPENOUT   = 000010A0
SHR$_ABENDD    = 000010E0            SHR$_OVERLAY   = 000010A8
SHR$_ABENDT    = 000010E8            SHR$_PARSEFAIL = 00001248
SHR$_APPENDEDB = 00001000            SHR$_PURGEVER  = 00001210
SHR$_APPENDEDR = 00001008            SHR$_READERR   = 000010B0
SHR$_ATPC      = 00001158            SHR$_RELCONCAT = 00001140
SHR$_BADBYTE   = 00001010            SHR$_REPLACED  = 000010B8
SHR$_BADCOPIES = 00001160            SHR$_RMSERROR  = 000011C8
SHR$_BADDELIM  = 00001118            SHR$_SEARCHFAIL= 00001238
SHR$_BADFIELD  = 00001018            SHR$_SYNTAX    = 000010F8
SHR$_BADFORM   = 00001168            SHR$_SYSERROR  = 000011B0
SHR$_BADJOBID  = 00001170            SHR$_SYSERRORPC= 000010F0
SHR$_BADJOBNAME= 00001178            SHR$_TEXT      = 00001130
SHR$_BADKEY    = 00001108            SHR$_UNXPCTSTS = 000011D0
SHR$_BADLOGIC  = 00001120            SHR$_VALERR    = 000011E8
SHR$_BADLOGICPC= 00001150            SHR$_WILDCONCAT= 000010C0
SHR$_BADLONG   = 00001020            SHR$_WILDOUTVER= 000010C8
SHR$_BADPRTY   = 00001180            SHR$_WRITEERR  = 000010D0
SHR$_BADQNAME  = 00001188            SYS$EXIT         ********   X   03
SHR$_BADTIME   = 00001190            SYS$SETPRN       ********   X   03
SHR$_BADVALUE  = 00001110            UETCOMP01        00000000 RG    03
SHR$_BADWORD   = 00001028            UETP$_BEGIND   = 0074103B
SHR$_BEGIN     = 00001030
SHR$_BEGIND    = 00001038
SHR$_BEGINT    = 00001040
SHR$_CLICB     = 00001048
SHR$_CLOSEDEL  = 00001218
SHR$_CLOSEIN   = 00001050
SHR$_CLOSEOUT  = 00001058
SHR$_CONFDEL   = 000011F8
SHR$_COPIEDB   = 00001060
SHR$_COPIEDR   = 00001068
SHR$_CREATED   = 00001070
SHR$_DELETED   = 00001200
SHR$_DELINTERR = 00001240
SHR$_DELVER    = 00001208
SHR$_DIRTOOBUS = 00001220
SHR$_ENDED     = 00001078
SHR$_ENDEDD    = 00001080
SHR$_ENDEDT    = 00001088
SHR$_FILNOTDEL = 000011F0
SHR$_FILNOTPUR = 00001230
SHR$_FILPURGED = 00001250
SHR$_HASHCONCAT= 000011D8
SHR$_HIGHVER   = 00001148
SHR$_IDXCONCAT = 00001138
SHR$_INCOMPAT  = 000011E0
SHR$_NEWFILES  = 00001090
SHR$_NOFILPURG = 00001228
UETCOMP01       VAX/VMS UETP MESSAGE TO START COMPATIBILITY PHA  22-AUG-1978 03:14:32   VAX-11 MACRO X0.3-11               Page   4
PROGRAM SECTION SYNOPSIS                                                                                                         (2)


PROGRAM SECTION SYNOPSIS

.  ABS  .        00000000      00     NOPIC   USR   CON   ABS   LCL NOSHR NOEXE NORD  NOWRT BYTE
. BLANK .        00000011      01     NOPIC   USR   CON   REL   LCL NOSHR   EXE   RD    WRT BYTE
$ABS$            00000000      02     NOPIC   USR   CON   ABS   LCL NOSHR   EXE   RD    WRT BYTE
UETCOMP01        0000002F      03     NOPIC   USR   CON   REL   LCL NOSHR   EXE   RD  NOWRT BYTE


THERE WERE NO ERRORS OR WARNINGS.
21936. BYTES LEFT IN FREE MEMORY POOL.
1294. BYTES OF RECLAIMED MEMORY.
OBJ$:UETCOMP01,LIS$:UETCOMP01/-SP=SRC$:UETPLIBS,UETCOMP01
22 MLB DIR RDS - 248 GETS TO DEFINE 15 MACROS. 25 INTER. FILE WRITES.
