UETINIT00       VAX/VMS UETP SYSTEM SIZER                        22-AUG-1978 03:15:03   VAX-11 MACRO X0.3-11               Page   0
TABLE OF CONTENTS

   (2)     100  READ ONLY DATA
   (2)    4500  READ/WRITE DATA
   (2)   10400  MAIN PROGRAM
   (2)   11700  GETDEV ROUTINE
   (2)   15100  DISPLAY ROUTINE
UETINIT00       VAX/VMS UETP SYSTEM SIZER                        22-AUG-1978 03:15:03   VAX-11 MACRO X0.3-11               Page   1
1.02                                                                                                                             (1)

                                     0000     1 ;	UETP prefix file (contains macro library file specs).
                                     0000     2 ;
                                     0000     3 	.LIBRARY	/EXECML$/	;SYSTEM MACROS
                                     0000     4 	.LIBRARY	/LIBD$:[SYSTST.OBJ]SYSTST.MLB/ ; PRIVATE UETP,SYSTST LIB
                                     0000     5 	.LIST	MEB
                                     0000     6 ;
                                     0000   100 	.TITLE UETINIT00 VAX/VMS UETP SYSTEM SIZER
                                     0000   200 	.IDENT	/1.02/
                                     0000   300 ;
                                     0000   400 ; COPYRIGHT (C) 1977
                                     0000   500 ; DIGITAL EQUIPMENT CORPORATION, MAYNARD, MASSACHUSETTS 01754
                                     0000   600 ;
                                     0000   700 ; THIS SOFTWARE IS FURNISHED  UNDER A LICENSE FOR USE ONLY ON A SINGLE
                                     0000   800 ; COMPUTER  SYSTEM AND  MAY BE  COPIED ONLY WITH  THE INCLUSION OF THE
                                     0000   900 ; ABOVE COPYRIGHT NOTICE.  THIS SOFTWARE, OR ANY OTHER COPIES THEREOF,
                                     0000  1000 ; MAY NOT BE PROVIDED OR  OTHERWISE MADE AVAILABLE TO ANY OTHER PERSON
                                     0000  1100 ; EXCEPT FOR USE ON SUCH SYSTEM AND TO ONE WHO AGREES TO THESE LICENSE
                                     0000  1200 ; TERMS.  TITLE TO AND  OWNERSHIP OF THE  SOFTWARE  SHALL AT ALL TIMES
                                     0000  1300 ; REMAIN IN DEC.
                                     0000  1400 ;
                                     0000  1500 ; THE INFORMATION IN THIS SOFTWARE IS SUBJECT TO CHANGE WITHOUT NOTICE
                                     0000  1600 ; AND SHOULD  NOT BE CONSTRUED  AS A COMMITMENT  BY DIGITAL  EQUIPMENT
                                     0000  1700 ; CORPORATION.
                                     0000  1800 ;
                                     0000  1900 ; DEC ASSUMES  NO  RESPONSIBILITY  FOR  THE USE OR  RELIABILITY OF ITS
                                     0000  2000 ; SOFTWARE ON EQUIPMENT WHICH IS NOT SUPPLIED BY DEC.
                                     0000  2100 ;
                                     0000  2200
                                     0000  2300 ;++
                                     0000  2400 ; FACILITY:
                                     0000  2500 ; 	THIS MODULE WILL BE DISTRIBUTED WITH VAX/VMS UNDER THE UETP UIC.
                                     0000  2600 ;
                                     0000  2700 ; ABSTRACT:
                                     0000  2800 ;	THIS MODULE CREATES A TABLE CONTAINING ALL DEVICE NAMES
                                     0000  2900 ;	AND UNIT NUMBERS OF DEVICES THAT ARE DYNAMICALLY SUPPORTED
                                     0000  3000 ;	BY STARLET. THE DDB AND UCB LIST IS SEARCHED TO COLLECT
                                     0000  3100 ;	THIS INFORMATION.
                                     0000  3200 ;
                                     0000  3300 ; ENVIRONMENT:
                                     0000  3400 ; 	THE MODULE WILL RUN IN USER AND EXECUTIVE  ACCESS MODE, WITH INTERRUPTS ENABLED
                                     0000  3500 ;	AT ALL TIMES.
                                     0000  3600 ;
                                     0000  3700 ; AUTHOR: LARRY JONES,	CREATION DATE: OCTOBER, 1977
                                     0000  3800 ;
                                     0000  3900 ; MODIFIED BY:
                                     0000  4000 ;
                                     0000  4100 ;	, : VERSION
                                     0000  4200 ; 1.01	-  CLEANED UP SOME OF THE COMMENTS   LDJ 17-JAN-1978
                                     0000  4300 ; 1.02  -  ADD .LIBRARY /LIB.MLB/ FOR $DDBDEF,$UCBDEF RAB 13-JUN-78
                                     0000  4400 ;
                                     0000  4500 ;--
UETINIT00       VAX/VMS UETP SYSTEM SIZER                        22-AUG-1978 03:15:03   VAX-11 MACRO X0.3-11               Page   2
1.02            READ ONLY DATA                                                                                                   (2)

                                     0000   100 	.SBTTL	READ ONLY DATA
                                 00000000   200 	.PSECT	RODATA,NOEXE,NOWRT,LONG
                                     0000   300 ;
                                     0000   400 ;	DEFINITIONS
                                     0000   500 ;
                                     0000   600 	$DDBDEF
                                     0000       	.SAVE
                                 00000000       	.PSECT	$ABS$,ABS
                                     0000       DDB$L_LINK:
                           00000004  0000        			.BLKL	1
                                     0004       DDB$L_UCB:
                           00000008  0004        			.BLKL	1
                                     0008       DDB$W_SIZE:
                           0000000A  0008        			.BLKW	1
                                     000A       DDB$B_TYPE:
                           0000000B  000A        			.BLKB	1
                           0000000C  000B        			.BLKB	1
                                     000C       DDB$L_DDT:
                           00000010  000C        			.BLKL	1
                                     0010       DDB$L_ACPD:
                           00000013  0010        			.BLKB	3
                                     0013       DDB$B_ACPCLASS:
                           00000014  0013        			.BLKB	1
                                     0014       DDB$T_NAME:
                           00000015  0014        			.BLKB	1
                           00000024  0015        			.BLKB	15
                                     0024       DDB$T_DRVNAME:
                           00000025  0024        			.BLKB	1
                           00000034  0025        			.BLKB	15
                                     0034       DDB$C_LENGTH:
                                     0034       DDB$K_LENGTH:
                                 00000000       	.RESTORE
                                     0000   700 	$UCBDEF
                                     0000       	.SAVE
                                 00000034       	.PSECT	$ABS$,ABS
                           00000000  0034       	.=0
                                     0000       UCB$L_FQFL:
                                     0000       UCB$L_RQFL:
                           00000004  0000        			.BLKL	1
                                     0004       UCB$L_FQBL:
                                     0004       UCB$L_RQBL:
                           00000008  0004        			.BLKL	1
                                     0008       UCB$W_SIZE:
                           0000000A  0008        			.BLKW	1
                                     000A       UCB$B_TYPE:
                           0000000B  000A        			.BLKB	1
                                     000B       UCB$B_FIPL:
                           0000000C  000B        			.BLKB	1
                                     000C       UCB$L_ASTQFL:
                                     000C       UCB$L_FPC:
                                     000C       UCB$T_PARTNER:
                           0000000D  000C        			.BLKB	1
                           00000010  000D        			.BLKB	3
                                     0010       UCB$L_ASTQBL:
                                     0010       UCB$L_FR3:
                           00000014  0010        			.BLKL	1
                                     0014       UCB$L_FR4:
UETINIT00       VAX/VMS UETP SYSTEM SIZER                        22-AUG-1978 03:15:03   VAX-11 MACRO X0.3-11               Page   3
1.02            READ ONLY DATA                                                                                                   (2)

                                     0014       UCB$L_FIRST:
                                     0014       UCB$W_MSGMAX:
                           00000016  0014        			.BLKW	1
                                     0016       UCB$W_MSGCNT:
                           00000018  0016        			.BLKW	1
                                     0018       UCB$W_BUFQUO:
                                     0018       UCB$W_DSTADDR:
                           0000001A  0018        			.BLKW	1
                                     001A       UCB$W_VPROT:
                                     001A       UCB$W_SRCADDR:
                           0000001C  001A        			.BLKW	1
                                     001C       UCB$L_OWNUIC:
                           00000020  001C        			.BLKL	1
                                     0020       UCB$L_CRB:
                           00000024  0020        			.BLKL	1
                                     0024       UCB$L_DDB:
                           00000028  0024        			.BLKL	1
                                     0028       UCB$L_PID:
                           0000002C  0028        			.BLKL	1
                                     002C       UCB$L_LINK:
                           00000030  002C        			.BLKL	1
                                     0030       UCB$L_VCB:
                           00000034  0030        			.BLKL	1
                                     0034       UCB$L_DEVCHAR:
                           00000038  0034        			.BLKL	1
                                     0038       UCB$B_DEVCLASS:
                           00000039  0038        			.BLKB	1
                                     0039       UCB$B_DEVTYPE:
                           0000003A  0039        			.BLKB	1
                                     003A       UCB$W_DEVBUFSIZ:
                           0000003C  003A        			.BLKW	1
                                     003C       UCB$L_DEVDEPEND:
                                     003C       UCB$L_TTCHAR:
                                     003C       UCB$B_SECTORS:
                                     003C       UCB$B_LOCSRV:
                           0000003D  003C        			.BLKB	1
                                     003D       UCB$B_REMSRV:
                                     003D       UCB$B_TRACKS:
                           0000003E  003D        			.BLKB	1
                                     003E       UCB$W_CYLINDERS:
                                     003E       UCB$W_BYTESTOGO:
                           0000003F  003E        			.BLKB	1
                                     003F       UCB$B_VERTSZ:
                           00000040  003F        			.BLKB	1
                                     0040       UCB$L_IOQFL:
                           00000044  0040        			.BLKL	1
                                     0044       UCB$L_IOQBL:
                           00000048  0044        			.BLKL	1
                                     0048       UCB$W_UNIT:
                           0000004A  0048        			.BLKW	1
                                     004A       UCB$W_CHARGE:
                                     004A       UCB$B_CM1:
                           0000004B  004A        			.BLKB	1
                                     004B       UCB$B_CM2:
                                     004B       UCB$B_ESCAPE:
                           0000004C  004B        			.BLKB	1
                                     004C       UCB$L_IRP:
UETINIT00       VAX/VMS UETP SYSTEM SIZER                        22-AUG-1978 03:15:03   VAX-11 MACRO X0.3-11               Page   4
1.02            READ ONLY DATA                                                                                                   (2)

                           00000050  004C        			.BLKL	1
                                     0050       UCB$W_REFC:
                           00000052  0050        			.BLKW	1
                                     0052       UCB$B_DIPL:
                                     0052       UCB$B_STATE:
                           00000053  0052        			.BLKB	1
                                     0053       UCB$B_AMOD:
                           00000054  0053        			.BLKB	1
                                     0054       UCB$L_AMB:
                           00000058  0054        			.BLKL	1
                                     0058       UCB$W_STS:
                           0000005A  0058        			.BLKW	1
                                     005A       UCB$W_DEVSTS:
                           0000005C  005A        			.BLKW	1
                                     005C       UCB$L_CPID:
                                     005C       UCB$L_DUETIM:
                           00000060  005C        			.BLKL	1
                                     0060       UCB$L_OPCNT:
                           00000064  0060        			.BLKL	1
                                     0064       UCB$L_LOGADR:
                                     0064       UCB$L_SVPN:
                           00000068  0064        			.BLKL	1
                                     0068       UCB$L_SVAPTE:
                           0000006C  0068        			.BLKL	1
                                     006C       UCB$W_BOFF:
                           0000006E  006C        			.BLKW	1
                                     006E       UCB$W_BCNT:
                           00000070  006E        			.BLKW	1
                                     0070       UCB$B_ERTCNT:
                           00000071  0070        			.BLKB	1
                                     0071       UCB$B_ERTMAX:
                           00000072  0071        			.BLKB	1
                                     0072       UCB$W_ERRCNT:
                           00000074  0072        			.BLKW	1
                                     0074       UCB$C_LENGTH:
                                     0074       UCB$K_LENGTH:
                           00000000  0074        	. = 0
                           FFFFFFFC  0000        			.BLKB	-4
                                     FFFC       UCB$W_MB_SEED:
                           FFFFFFFE  FFFC        			.BLKW	1
                           00000000  FFFE        			.BLKW	1
                           00000004  0000        			.BLKL	1
                           00000074  0004        	. = 116
                                     0074       UCB$B_SLAVE:
                           00000075  0074        			.BLKB	1
                                     0075       UCB$B_SPR:
                           00000076  0075        			.BLKB	1
                                     0076       UCB$B_FEX:
                           00000077  0076        			.BLKB	1
                                     0077       UCB$B_CEX:
                           00000078  0077        			.BLKB	1
                                     0078       UCB$L_EMB:
                           0000007C  0078        			.BLKL	1
                           0000007E  007C        			.BLKW	1
                                     007E       UCB$W_FUNC:
                           00000080  007E        			.BLKW	1
                                     0080       UCB$L_DPC:
UETINIT00       VAX/VMS UETP SYSTEM SIZER                        22-AUG-1978 03:15:03   VAX-11 MACRO X0.3-11               Page   5
1.02            READ ONLY DATA                                                                                                   (2)

                           00000084  0080        			.BLKL	1
                           00000080  0084        	. = 128
                           00000084  0080        			.BLKL	1
                                     0084       UCB$L_MAXBLOCK:
                           00000088  0084        			.BLKL	1
                                     0088       UCB$W_DIRSEQ:
                           0000008A  0088        			.BLKW	1
                                     008A       UCB$W_OFFSET:
                           0000008C  008A        			.BLKW	1
                                     008C       UCB$L_MEDIA:
                                     008C       UCB$W_DA:
                           0000008E  008C        			.BLKW	1
                                     008E       UCB$W_DC:
                           00000090  008E        			.BLKW	1
                                     0090       UCB$W_EC1:
                           00000092  0090        			.BLKW	1
                                     0092       UCB$W_EC2:
                           00000094  0092        			.BLKW	1
                                     0094       UCB$B_OFFNDX:
                           00000095  0094        			.BLKB	1
                                     0095       UCB$B_OFFRTC:
                           00000096  0095        			.BLKB	1
                                     0096       UCB$W_BCR:
                           00000098  0096        			.BLKW	1
                           00000096  0098        	. = 150
                           00000098  0096        			.BLKW	1
                                     0098       UCB$L_DX_BUF:
                           0000009C  0098        			.BLKL	1
                                     009C       UCB$L_DX_BFPNT:
                           000000A0  009C        			.BLKL	1
                                     00A0       UCB$L_DX_RXDB:
                           000000A4  00A0        			.BLKL	1
                                     00A4       UCB$W_DX_BCR:
                           000000A6  00A4        			.BLKW	1
                                     00A6       UCB$B_DX_SCTCNT:
                           000000A7  00A6        			.BLKB	1
                           000000A8  00A7        			.BLKB	1
                           00000074  00A8        	. = 116
                                     0074       UCB$L_NT_DATSSB:
                           00000078  0074        			.BLKL	1
                                     0078       UCB$L_NT_INTSSB:
                           0000007C  0078        			.BLKL	1
                                     007C       UCB$W_NT_CHAN:
                           0000007E  007C        			.BLKW	1
                           00000080  007E        			.BLKW	1
                                 00000000       	.RESTORE
                                     0000   800 ;
                                     0000   900 ;
                                     0000  1000 	$SHR_MESSAGES	UETP,116,<<BEGIND,INFO>,<ENDEDD,INFO>,-
                                     0000  1100 			<ABENDD,ERROR>,<OPENOUT,ERROR>,<WRITEERR,ERROR>,-
                                     0000  1200 			<TEXT,INFO>>
                                     0000       	.SAVE
                                 FFFFFFFE       	.PSECT	$ABS$,ABS
                           00000000  FFFE       	.=0
                                 00000000       	.RESTORE
                                     0000  1300 ;
                           0000000D  0000  1400 	CR=13
UETINIT00       VAX/VMS UETP SYSTEM SIZER                        22-AUG-1978 03:15:03   VAX-11 MACRO X0.3-11               Page   6
1.02            READ ONLY DATA                                                                                                   (2)

                           0000000A  0000  1500 	LF=10
                                     0000  1600 ;
                           00000001  0000  1700 	BIT0 = ^X00000001
                           00000002  0000  1800 	BIT1 = ^X00000002
                                     0000  1900 ;
                                     0000  2000 ;	RETURN STATUS CODE DEFINITIONS
                                     0000  2100 ;
                           00000001  0000  2200 	SUC_RET = 1
                           FFFFFFFF  0000  2300 	ERR_RET = -1
                           FFFFFFFE  0000  2400 	WRN_RET = -2
                                     0000  2500 ;
                                     0000  2600 TSTNAM:
                                     0000  2700 	STRING	I,<UETINIT00 >
                           0000000A  0000       	.LONG	$$$CHARS
                           00000008' 0004       	.ADDRESS .+4
      20 30 30 54 49 4E 49 54 45 55  0008       	.ASCII	\UETINIT00 \
                                     0012  2800 LOGNAM1:
                                     0012  2900 	STRING	I,<TT>
                           00000002  0012       	.LONG	$$$CHARS
                           0000001A' 0016       	.ADDRESS .+4
                              54 54  001A       	.ASCII	\TT\
                                     001C  3000 CNTRLCMSG:
                                     001C  3100 	STRING	I,<Aborted via a user control C>
                           0000001C  001C       	.LONG	$$$CHARS
                           00000024' 0020       	.ADDRESS .+4
20 61 69 76 20 64 65 74 72 6F 62 41  0024       	.ASCII	\Aborted via a user control C\
72 74 6E 6F 63 20 72 65 73 75 20 61  0030
                        43 20 6C 6F  003C
                                     0040  3200 ;
                                     0040  3300 DDB_CTRSTR:
                                     0040  3400 	STRING	I,<DDB 0 !AS 00000000 00000000>	; THE FIRST BLANK FIELD IS FOR THE FUTURE
                           0000001B  0040       	.LONG	$$$CHARS
                           00000048' 0044       	.ADDRESS .+4
30 30 20 53 41 21 20 30 20 42 44 44  0048       	.ASCII	\DDB 0 !AS 00000000 00000000\
30 30 30 30 30 20 30 30 30 30 30 30  0054
                           30 30 30  0060
                                     0063  3500 						; CSR ADDRESS. THE SECOND BLANK FIELD IS
                                     0063  3600 						; FOR THE FUTURE VECTOR ADDRESS?
                                     0063  3700 UCB_CTRSTR:
                                     0063  3800 	STRING	I,<UCB 1 !3UW !XL !XL !XL>
                           00000016  0063       	.LONG	$$$CHARS
                           0000006B' 0067       	.ADDRESS .+4
21 20 57 55 33 21 20 31 20 42 43 55  006B       	.ASCII	\UCB 1 !3UW !XL !XL !XL\
      4C 58 21 20 4C 58 21 20 4C 58  0077
                                     0081  3900 ;
                                     0081  4000 FILE_NAME:
41 44 2E 56 45 44 49 4E 49 54 45 55  0081  4100 	.ASCII	/UETINIDEV.DAT/
                                 54  008D
                           0000000D  008E  4200 	NAME_SIZE=.-FILE_NAME
                                     008E  4300 ;
UETINIT00       VAX/VMS UETP SYSTEM SIZER                        22-AUG-1978 03:15:03   VAX-11 MACRO X0.3-11               Page   7
1.02            READ/WRITE DATA                                                                                                  (2)

                                     008E  4500 	.SBTTL	READ/WRITE DATA
                                 00000000  4600 	.PSECT	RWDATA,WRT,NOEXE,LONG
                                     0000  4700 ;
                                     0000  4800 IOSTAT:
                           00000008  0000  4900 	.BLKL	2	; I/O STATUS BLOCK
                                     0008  5000 TTCHAN:
                           00000000  0008  5100 	.LONG	0	; TTY CHANNEL
                                     000C  5200 FLAG:
                           00000001  000C  5300 	.LONG	1	; FLAG BITS
                                     0010  5400 			; BIT0 SET=FAB CLR=RAB
                                     0010  5500 NAME_BUF:
                           00000410  0010  5600 	.BLKB	1024	; DEVICE NAME BUFFER
                                     0410  5700 UNIT_BUF:
                           00000C10  0410  5800 	.BLKW	1024	; UNIT NUMBER BUFFER
                                     0C10  5900 BUF:
                           00000032' 0C10  6000 	.LONG	BUFFER_LEN ; FAO OUTPUT STRING DESCRIPTOR
                           00000C18' 0C14  6100 	.ADDRESS	BUFFER
                                     0C18  6200 BUFFER:
                           00000C4A  0C18  6300 	.BLKB	50	; FAO OUTPUT BUFFER
                           00000032  0C4A  6400 	BUFFER_LEN=.-BUFFER
                                     0C4A  6500 STRLEN:
                           00000000  0C4A  6600 	.LONG	0	; FAO OUTPUT LENGTH
                                     0C4E  6700 DIEARG:
                           00000000  0C4E  6800 	.LONG	0	; DIE ARGUMENT
                                     0C52  6900 ERROR_CNT:
                           00000000  0C52  7000 	.LONG	0	; CUM. ERROR COUNT
                                     0C56  7100 DEVNAM:
                           00000003  0C56  7200 	.LONG	3	; DEVICE NAME STRING DESCRIPTOR
                                     0C5A  7300 DEVNAM4:
                           00000000  0C5A  7400 	.LONG	0
                                     0C5E  7500 ARGLST:
                           00000C72  0C5E  7600 	.BLKL	5	; SPACE FOR 5 ARGUMENTS
                                     0C72  7700 DEFERED:
                           00000C56' 0C72  7800 	.ADDRESS DEVNAM	; TEST DEFERRAL
UETINIT00       VAX/VMS UETP SYSTEM SIZER                        22-AUG-1978 03:15:03   VAX-11 MACRO X0.3-11               Page   8
1.02            READ/WRITE DATA                                                                                                  (2)

                                     0C76  8000 	.ALIGN	LONG
                                     0C78  8100 ;
                                     0C78  8200 ;	RMS 32 DATA STRUCTURES
                                     0C78  8300 ;
                                     0C78  8400 FAB:				; ALLOCATE A FILE ACCESS BLOCK
                                     0C78  8500 	$FAB-
                                     0C78  8600 	FAC=PUT,-
                                     0C78  8700 	FNA=FILE_NAME,-
                                     0C78  8800 	FNS=NAME_SIZE,-
                                     0C78  8900 	MRS=50,-
                                     0C78  9000 	ORG=SEQ,-
                                     0C78  9100 	RAT=CR,-
                                     0C78  9200 	RFM=VAR
                                     0C78       	.SAVE
                                 FFFFFFFE       	.PSECT	$ABS$,ABS
                           00000000  FFFE       	.=0
                                     0000       FAB$B_BID:
                           00000001  0000        			.BLKB	1
                                     0001       FAB$B_BLN:
                           00000002  0001        			.BLKB	1
                                     0002       FAB$W_IFI:
                           00000004  0002        			.BLKW	1
                                     0004       FAB$L_FOP:
                           00000008  0004        			.BLKL	1
                                     0008       FAB$L_STS:
                           0000000C  0008        			.BLKL	1
                                     000C       FAB$L_STV:
                           00000010  000C        			.BLKL	1
                                     0010       FAB$L_ALQ:
                           00000014  0010        			.BLKL	1
                                     0014       FAB$W_DEQ:
                           00000016  0014        			.BLKW	1
                                     0016       FAB$B_FAC:
                           00000017  0016        			.BLKB	1
                                     0017       FAB$B_SHR:
                           00000018  0017        			.BLKB	1
                                     0018       FAB$L_CTX:
                           0000001C  0018        			.BLKL	1
                                     001C       FAB$B_RTV:
                           0000001D  001C        			.BLKB	1
                                     001D       FAB$B_ORG:
                           0000001E  001D        			.BLKB	1
                                     001E       FAB$B_RAT:
                           0000001F  001E        			.BLKB	1
                                     001F       FAB$B_RFM:
                           00000020  001F        			.BLKB	1
                                     0020       FAB$L_JNL:
                           00000024  0020        			.BLKL	1
                                     0024       FAB$L_XAB:
                           00000028  0024        			.BLKL	1
                                     0028       FAB$L_NAM:
                           0000002C  0028        			.BLKL	1
                                     002C       FAB$L_FNA:
                           00000030  002C        			.BLKL	1
                                     0030       FAB$L_DNA:
                           00000034  0030        			.BLKL	1
                                     0034       FAB$B_FNS:
UETINIT00       VAX/VMS UETP SYSTEM SIZER                        22-AUG-1978 03:15:03   VAX-11 MACRO X0.3-11               Page   9
1.02            READ/WRITE DATA                                                                                                  (2)

                           00000035  0034        			.BLKB	1
                                     0035       FAB$B_DNS:
                           00000036  0035        			.BLKB	1
                                     0036       FAB$W_MRS:
                           00000038  0036        			.BLKW	1
                                     0038       FAB$L_MRN:
                           0000003C  0038        			.BLKL	1
                                     003C       FAB$W_BLS:
                           0000003E  003C        			.BLKW	1
                                     003E       FAB$B_BKS:
                           0000003F  003E        			.BLKB	1
                                     003F       FAB$B_FSZ:
                           00000040  003F        			.BLKB	1
                                     0040       FAB$L_DEV:
                           00000044  0040        			.BLKL	1
                                     0044       FAB$L_SDC:
                           00000048  0044        			.BLKL	1
                           00000050  0048        			.BLKL	2
                                     0050       FAB$C_BLN:
                                     0050       FAB$K_BLN:
                                 00000C78       	.RESTORE
                                 03  0C78       					.BYTE FAB$C_BID
                                 50  0C79       					.BYTE FAB$C_BLN
                           00000CC8  0C7A       					.BLKB FAB$C_BLN-2
                           00000C8E  0CC8       					.=$$.TAB+FAB$B_FAC
                                 01  0C8E       					.BYTE	<$$.TMP>
                                 00  0C8F       					.BYTE	<$$.TMP>
                           00000CA4  0C90       					.=$$.TAB+FAB$L_FNA
                           00000081' 0CA4       					.LONG	<FILE_NAME>
                           00000CAC  0CA8       					.=$$.TAB+FAB$B_FNS
                                 0D  0CAC       					.BYTE	<NAME_SIZE>
                           00000CA8  0CAD       					.=$$.TAB+FAB$L_DNA
                           00000000  0CA8       					.LONG	<0>
                           00000CAD  0CAC       					.=$$.TAB+FAB$B_DNS
                                 00  0CAD       					.BYTE	<0>
                           00000C94  0CAE       					.=$$.TAB+FAB$B_RTV
                                 00  0C94       					.BYTE	<0>
                                 00  0C95       					.BYTE	<FAB$C_SEQ>
                                 02  0C96       					.BYTE	<$$.TMP>
                           00000C7C  0C97       					.=$$.TAB+FAB$L_FOP
                           00000000  0C7C       					.LONG	<$$.TMP>
                           00000C9C  0C80       					.=$$.TAB+FAB$L_XAB
                           00000000  0C9C       					.LONG	<0>
                           00000CAE  0CA0       					.=$$.TAB+FAB$W_MRS
                               0032  0CAE       					.WORD	<50>
                           00000C98  0CB0       					.=$$.TAB+FAB$L_JNL
                           00000000  0C98       					.LONG	<0>
                           00000CB0  0C9C       					.=$$.TAB+FAB$L_MRN
                           00000000  0CB0       					.LONG	<0>
                           00000C88  0CB4       					.=$$.TAB+FAB$L_ALQ
                           00000000  0C88       					.LONG	<0>
                               0000  0C8C       					.WORD	<0>
                           00000CB4  0C8E       					.=$$.TAB+FAB$W_BLS
                               0000  0CB4       					.WORD	<0>
                           00000CA0  0CB6       					.=$$.TAB+FAB$L_NAM
                           00000000  0CA0       					.LONG	<0>
                           00000C97  0CA4       					.=$$.TAB+FAB$B_RFM
UETINIT00       VAX/VMS UETP SYSTEM SIZER                        22-AUG-1978 03:15:03   VAX-11 MACRO X0.3-11               Page  10
1.02            READ/WRITE DATA                                                                                                  (2)

                                 02  0C97       					.BYTE	<FAB$C_VAR>
                           00000CB7  0C98       					.=$$.TAB+FAB$B_FSZ
                                 00  0CB7       					.BYTE	<0>
                           00000CB6  0CB8       					.=$$.TAB+FAB$B_BKS
                                 00  0CB6       					.BYTE	<0>
                           00000C90  0CB7       					.=$$.TAB+FAB$L_CTX
                           00000000  0C90       					.LONG	<0>
                           00000CC8  0C94       					.=$$.TABEND
                                     0CC8  9300 ;
                                     0CC8  9400 RAB:				; ALLOCATE A RECORD ACCESS BLOCK
                                     0CC8  9500 	$RAB-
                                     0CC8  9600 	FAB=FAB,-
                                     0CC8  9700 	MBF=1,-
                                     0CC8  9800 	RAC=SEQ,-
                                     0CC8  9900 	RBF=BUFFER,-
                                     0CC8 10000 	ROP=EOF,-
                                     0CC8 10100 	RSZ=48
                                     0CC8       	.SAVE
                                 FFFFFFFE       	.PSECT	$ABS$,ABS
                           00000000  FFFE       	.=0
                                     0000       RAB$B_BID:
                           00000001  0000        			.BLKB	1
                                     0001       RAB$B_BLN:
                           00000002  0001        			.BLKB	1
                                     0002       RAB$W_ISI:
                           00000004  0002        			.BLKW	1
                                     0004       RAB$L_ROP:
                           00000005  0004        			.BLKB	1
                                     0005       RAB$B_ROP1:
                           00000006  0005        			.BLKB	1
                                     0006       RAB$B_ROP2:
                           00000007  0006        			.BLKB	1
                                     0007       RAB$B_ROP3:
                           00000008  0007        			.BLKB	1
                                     0008       RAB$L_STS:
                           0000000C  0008        			.BLKL	1
                                     000C       RAB$L_STV:
                           00000010  000C        			.BLKL	1
                                     0010       RAB$W_RFA:
                                     0010       RAB$L_RFA0:
                           00000014  0010        			.BLKL	1
                                     0014       RAB$W_RFA4:
                           00000016  0014        			.BLKW	1
                           00000018  0016        			.BLKW	1
                                     0018       RAB$L_CTX:
                           0000001C  0018        			.BLKL	1
                           0000001E  001C        			.BLKW	1
                                     001E       RAB$B_RAC:
                           0000001F  001E        			.BLKB	1
                                     001F       RAB$B_TMO:
                           00000020  001F        			.BLKB	1
                                     0020       RAB$W_USZ:
                           00000022  0020        			.BLKW	1
                                     0022       RAB$W_RSZ:
                           00000024  0022        			.BLKW	1
                                     0024       RAB$L_UBF:
                           00000028  0024        			.BLKL	1
UETINIT00       VAX/VMS UETP SYSTEM SIZER                        22-AUG-1978 03:15:03   VAX-11 MACRO X0.3-11               Page  11
1.02            READ/WRITE DATA                                                                                                  (2)

                                     0028       RAB$L_RBF:
                           0000002C  0028        			.BLKL	1
                                     002C       RAB$L_RHB:
                           00000030  002C        			.BLKL	1
                                     0030       RAB$L_KBF:
                                     0030       RAB$L_PBF:
                           00000034  0030        			.BLKL	1
                                     0034       RAB$B_KSZ:
                                     0034       RAB$B_PSZ:
                           00000035  0034        			.BLKB	1
                                     0035       RAB$B_KRF:
                           00000036  0035        			.BLKB	1
                                     0036       RAB$B_MBF:
                           00000037  0036        			.BLKB	1
                                     0037       RAB$B_MBC:
                           00000038  0037        			.BLKB	1
                                     0038       RAB$L_BKT:
                                     0038       RAB$L_DCT:
                           0000003C  0038        			.BLKL	1
                                     003C       RAB$L_FAB:
                           00000040  003C        			.BLKL	1
                           00000044  0040        			.BLKL	1
                                     0044       RAB$C_BLN:
                                     0044       RAB$K_BLN:
                                 00000CC8       	.RESTORE
                                 01  0CC8       					.BYTE RAB$C_BID
                                 44  0CC9       					.BYTE RAB$C_BLN
                           00000D0C  0CCA       					.BLKB RAB$C_BLN-2
                           00000CE6  0D0C       					.=$$.TAB+RAB$B_RAC
                                 00  0CE6       					.BYTE	<RAB$C_SEQ>
                           00000CCC  0CE7       					.=$$.TAB+RAB$L_ROP
                           00000100  0CCC       					.LONG	<$$.TMP>
                           00000CEC  0CD0       					.=$$.TAB+RAB$L_UBF
                           00000000  0CEC       					.LONG	<0>
                           00000CE8  0CF0       					.=$$.TAB+RAB$W_USZ
                               0000  0CE8       					.WORD	<0>
                           00000CF0  0CEA       					.=$$.TAB+RAB$L_RBF
                           00000C18' 0CF0       					.LONG	<BUFFER>
                           00000CEA  0CF4       					.=$$.TAB+RAB$W_RSZ
                               0030  0CEA       					.WORD	<48>
                           00000D00  0CEC       					.=$$.TAB+RAB$L_BKT
                           00000000  0D00       					.LONG	<0>
                           00000CF8  0D04       					.=$$.TAB+RAB$L_KBF
                           00000000  0CF8       					.LONG	<0>
                                 00  0CFC       					.BYTE	<0>
                                 00  0CFD       					.BYTE	<0>
                           00000CF4  0CFE       					.=$$.TAB+RAB$L_RHB
                           00000000  0CF4       					.LONG	<0>
                           00000D04  0CF8       					.=$$.TAB+RAB$L_FAB
                           00000C78' 0D04       					.LONG	<FAB>
                           00000CFE  0D08       					.=$$.TAB+RAB$B_MBF
                                 01  0CFE       					.BYTE	<1>
                                 00  0CFF       					.BYTE	<0>
                           00000CE7  0D00       					.=$$.TAB+RAB$B_TMO
                                 00  0CE7       					.BYTE	<0>
                           00000CE0  0CE8       					.=$$.TAB+RAB$L_CTX
                           00000000  0CE0       					.LONG	<0>
UETINIT00       VAX/VMS UETP SYSTEM SIZER                        22-AUG-1978 03:15:03   VAX-11 MACRO X0.3-11               Page  12
1.02            READ/WRITE DATA                                                                                                  (2)

                           00000CFD  0CE4       					.=$$.TAB+RAB$B_KRF
                                 00  0CFD       					.BYTE	<0>
                           00000D0C  0CFE       				.=$$.TABEND
                                     0D0C 10200 ;
UETINIT00       VAX/VMS UETP SYSTEM SIZER                        22-AUG-1978 03:15:03   VAX-11 MACRO X0.3-11               Page  13
1.02            MAIN PROGRAM                                                                                                     (2)

                                     0D0C 10400 	.SBTTL	MAIN PROGRAM
                                 00000000 10500 	.PSECT	UETINI,EXE,NOWRT,LONG
                                     0000 10600 ;
                                     0000 10700 ; THIS ROUTINE IS EXECUTED IF AN RMS-32 ERROR OCCURS.
                                     0000 10800 ;
                                     0000 10900 RMS_ERR:
                               0FFC  0000 11000 	.WORD	^M<R2,R3,R4,R5,R6,R7,R8,R9,R10,R11> ; ENTRY MASK
            15   0000000C'EF     E9  0002 11100 	BLBC	FLAG,1$			; FAB OR RAB ERROR?
                                     0009 11200 	PUTMSG	<R0,FAB+FAB$L_STS,FAB+FAB$L_STV> ; HERE IF FAB ERROR
                 00000C84'EF     DD  0009       	  	PUSHL	FAB+FAB$L_STV
                 00000C80'EF     DD  000F       	  	PUSHL	FAB+FAB$L_STS
                          50     DD  0015       	  	PUSHL	R0
   00000000'9F            03     FB  0017       		CALLS	#$$T1,@#LIB$SIGNAL
                                     001E 11300 1$:
                                     001E 11400 	PUTMSG	<R0,RAB+RAB$L_STS,RAB+RAB$L_STV> ; HERE IF RAB ERROR
                 00000CD4'EF     DD  001E       	  	PUSHL	RAB+RAB$L_STV
                 00000CD0'EF     DD  0024       	  	PUSHL	RAB+RAB$L_STS
                          50     DD  002A       	  	PUSHL	R0
   00000000'9F            03     FB  002C       		CALLS	#$$T1,@#LIB$SIGNAL
                 000002A0'EF     17  0033 11500 	JMP	ERR_EXIT		; EXIT IN DISGRACE
                                     0039 11600 ;
                                     0039 11700 	.SBTTL	GETDEV ROUTINE
                                     0039 11800 ;
                                     0039 11900 ;
                                     0039 12000 ; THIS ROUTINE UNWINDS THE DDB LIST AND THE UCB LIST TO
                                     0039 12100 ; DETERMINE THE PERIPHERAL COMPLIMENT FOR THE SYSTEM.
                                     0039 12200 ; THIS ROUTINE IS EXECUTED IN EXECUTIVE MODE TO ENABLE
                                     0039 12300 ; SYSTEM TABLE ACCESS. UPON EXITING FROM THIS ROUTINE
                                     0039 12400 ; PROGRAM CONTROL IS RETURNED TO USER LEVEL.
                                     0039 12500 ;
                                     0039 12600 GETDEV:
                               0FFC  0039 12700 	.WORD	^M<R2,R3,R4,R5,R6,R7,R8,R9,R10,R11> ; ENTRY MASK
            58   00000000'EF     DE  003B 12800 	MOVAL	L^IOC$GL_DEVLIST-DDB$L_LINK,R8	; GET I/O DATA BASE LIST HEADER
            53   00000010'EF     DE  0042 12900 	MOVAL	NAME_BUF,R3			; SET NAME BUF PNTR
            57   00000410'EF     DE  0049 13000 	MOVAL	UNIT_BUF,R7			; SET UNIT BUF PNTR
                                     0050 13100 DDB:
            58            68     D0  0050 13200 	MOVL	DDB$L_LINK(R8),R8		; POINT TO NEXT DDB
                          26     13  0053 13300 	BEQL	DDB_END				; IF IT IS ZERO THIS IS THE LAST DDB
            50         14 A8     9A  0055 13400 	MOVZBL	DDB$T_NAME(R8),R0		; GET STRING SIZE
         15 A8            50     28  0059 13500 	MOVC	R0,DDB$T_NAME+1(R8),(R3)	; PUT DEVICE NAME IN NAME BUF
                          63         005D
            59         04 A8     D0  005E 13600 	MOVL	DDB$L_UCB(R8),R9		; GET UCB PNTR
                                     0062 13700 UNIT:
            87         48 A9     B0  0062 13800 	MOVW	UCB$W_UNIT(R9),(R7)+		; PUT UNIT NUMBER IN UNIT_BUF
            87         34 A9     7D  0066 13900 	MOVQ	UCB$L_DEVCHAR(R9),(R7)+		; GET DEVICE CHAR. LONG WORD #1 & #2
            87         3C A9     D0  006A 14000 	MOVL	UCB$L_DEVCHAR+8(R9),(R7)+	; GET DEV CHAR. LONG WORD #3
            59         2C A9     D0  006E 14100 	MOVL	UCB$L_LINK(R9),R9		; POINT TO NEXT UCB
                          EE     12  0072 14200 	BNEQ	UNIT				; IF ZERO, THIS IS THE LAST UCB
            87       FFFF 8F     B0  0074 14300 	MOVW	#-1,(R7)+			; DELIMIT UNITS/DEVICE
                          D5     11  0079 14400 	BRB	DDB				; GOTO NEXT UCB
                                     007B 14500 DDB_END:
                          63     94  007B 14600 	CLRB	(R3)				; SET END DELIMITER
            50            01     D0  007D 14700 	MOVL	#1,R0				; SET SUCCESSFUL RETURN STATUS
                                 04  0080 14800 	RET					; EXIT
UETINIT00       VAX/VMS UETP SYSTEM SIZER                        22-AUG-1978 03:15:03   VAX-11 MACRO X0.3-11               Page  14
1.02            GETDEV ROUTINE                                                                                                   (2)

                                     0081 15000 ;
                                     0081 15100 	.SBTTL	DISPLAY ROUTINE
                                     0081 15200 ;
                                     0081 15300 ; THE DISPLAY SUBROUTINE PERFORMS A FORMATTED WRITE
                                     0081 15400 ;
                                     0081 15500 ;	INPUT:	R10 -> FAO CONTROL STRING (LENGTH IN FIRST BYTE)
                                     0081 15600 ;		R11 -> LIST OF FAO ARGUMENTS
                                     0081 15700 ;
                                     0081 15800 DISPLAY:
                                     0081 15900 	$FAOL_S 	(R10),STRLEN,BUF,(R11)	; SETUP TERM OUTPUT LINE
                          6B     DF  0081       		PUSHAL	(R11)
                 00000C10'EF     7F  0083       		PUSHAQ	BUF
                 00000C4A'EF     3F  0089       		PUSHAW	STRLEN
                          6A     7F  008F       		PUSHAQ	(R10)
   00000000'GF            04     FB  0091       		CALLS	#4,G^SYS$FAOL
            FD            50     E9  0098 16000 5$:	BLBC	R0,5$				; LOOP IF PROBLEMS
                                 05  009B 16100 	RSB					; RETURN
                                     009C 16200 DIE:
   00000C4E'EF            50     D0  009C 16300 	MOVL	R0,DIEARG			; SAVE THE ERROR CODE
                 00000C52'EF     D6  00A3 16400 	INCL	ERROR_CNT			; BUMP ERROR COUNTER
                                     00A9 16500 	PUTMSG	<#UETP$_ERBOX,#1,ERROR_CNT,-
                                     00A9 16600 		DIEARG>				; PRINT ERROR MESSAGE
                 00000C4E'EF     DD  00A9       	  	PUSHL	DIEARG
                 00000C52'EF     DD  00AF       	  	PUSHL	ERROR_CNT
                          01     DD  00B5       	  	PUSHL	#1
                 00000000'8F     DD  00B7       	  	PUSHL	#UETP$_ERBOX
   00000000'9F            04     FB  00BD       		CALLS	#$$T1,@#LIB$SIGNAL
            52   FFFFFFFF 8F     D0  00C4 16700 	MOVL	#ERR_RET,R2			; SET ERROR RETURN
                          021A   31  00CB 16800 	BRW	OUTPUT_LAST			; EXIT CLEANED
                                     00CE 16900 ;
                                     00CE 17000 CCASTHAND:
                               0000  00CE 17100 	.WORD	0				; ENTRY MASK
                                     00D0 17200 	PUTMSG	<#UETP$_TEXT,#1,#CNTRLCMSG>	; PRINT MESSAGE
                 0000001C'8F     DD  00D0       	  	PUSHL	#CNTRLCMSG
                          01     DD  00D6       	  	PUSHL	#1
                 00741133 8F     DD  00D8       	  	PUSHL	#UETP$_TEXT
   00000000'9F            03     FB  00DE       		CALLS	#$$T1,@#LIB$SIGNAL
   0000000C'EF            02     88  00E5 17300 	BISB2	#BIT1,FLAG			; SET CNTRL C FLAG
                                 04  00EC 17400 	RET					; RETURN
                                     00ED 17500 ;
UETINIT00       VAX/VMS UETP SYSTEM SIZER                        22-AUG-1978 03:15:03   VAX-11 MACRO X0.3-11               Page  15
1.02            DISPLAY ROUTINE                                                                                                  (2)

                                     00ED 17700 ;
                                     00ED 17800 ; THIS MODULE USES THE $CMEXEC SERVICE TO GO TO EXECUTIVE
                                     00ED 17900 ; LEVEL TO EXTRACT SYSTEM PERIPHERAL CONFIGURATION INFORMATION
                                     00ED 18000 ; FROM THE DDB LINKED LIST. THIS INFORMATION IS THEN FORMATTED
                                     00ED 18100 ; AND PRINTED ON THE USERS TERMINAL, INTO THE LOG FILE,
                                     00ED 18200 ;  AND INTO FILE 'UETINIDEV.DAT'.
                                     00ED 18300 ;
                                     00ED 18400 UETINIT00::
                               0FFC  00ED 18500 	.WORD	^M<R2,R3,R4,R5,R6,R7,R8,R9,R10,R11> ;ENTRY MASK
                                     00EF 18600 	$SETPRN_S	TSTNAM			; SET THE PROCESS NAME
                 00000000'EF     7F  00EF       		PUSHAQ	TSTNAM
   00000000'GF            01     FB  00F5       		CALLS	#1,G^SYS$SETPRN
                                     00FC 18700 	SERVCHEK				; CHECK FOR ERROR
            0B            50     E8  00FC       30000$:	BLBS	R0,30001$
   00000C4E'EF         FA AF     DE  00FF       	MOVAL	30000$,DIEARG
                          FF92   31  0107       	BRW	DIE
                                     010A       30001$:
                                     010A 18800 	$ASSIGN_S	LOGNAM1,TTCHAN		; ASSIGN TTY
                          7E     7C  010A       		CLRQ	-(SP)
                 00000008'EF     3F  010C       		PUSHAW	TTCHAN
                 00000012'EF     7F  0112       		PUSHAQ	LOGNAM1
   00000000'GF            04     FB  0118       		CALLS	#4,G^SYS$ASSIGN
                                     011F 18900 	SERVCHEK				; CHECK FOR ERRORS
            0B            50     E8  011F       30002$:	BLBS	R0,30003$
   00000C4E'EF         FA AF     DE  0122       	MOVAL	30002$,DIEARG
                          FF6F   31  012A       	BRW	DIE
                                     012D       30003$:
                                     012D 19000 	$QIOW_S	CHAN=TTCHAN,-
                                     012D 19100 		FUNC=#IO$_SETMODE!IO$M_CTRLCAST,-
                                     012D 19200 		P1  =CCASTHAND			; SETUP CNTRL C AST
                          7E     7C  012D       		CLRQ	-(SP)
                          7E     7C  012F       		CLRQ	-(SP)
                          00     DD  0131       		PUSHL	#0
                       98 AF     DF  0133       		PUSHAL	CCASTHAND
                          7E     7C  0136       		CLRQ	-(SP)
                          00     DD  0138       		PUSHL	#0
            7E       0000'8F     3C  013A       		MOVZWL	#IO$_SETMODE!IO$M_CTRLCAST,-(SP)
            7E   00000008'EF     3C  013F       		MOVZWL	TTCHAN,-(SP)
                          00     DD  0146       		PUSHL	#0
   00000000'GF            0C     FB  0148       		CALLS	#12,G^SYS$QIOW
                                     014F 19300 	SERVCHEK				; CHECK FOR ERRORS
            0B            50     E8  014F       30004$:	BLBS	R0,30005$
   00000C4E'EF         FA AF     DE  0152       	MOVAL	30004$,DIEARG
                          FF3F   31  015A       	BRW	DIE
                                     015D       30005$:
                                     015D 19400 ;
                                     015D 19500 ; ********************************************************
                                     015D 19600 ; ********** ENTER EXECUTIVE MODE FOR GETDEV *************
                                     015D 19700 ; ********************************************************
                                     015D 19800 ;
                                     015D 19900 	$CMEXEC_S	GETDEV			; GET DEVICE AND UNIT INFORMATION
                          00     DD  015D       		PUSHL	#0
                     FED6 CF     DF  015F       		PUSHAL	GETDEV
   00000000'GF            02     FB  0163       		CALLS	#2,G^SYS$CMEXEC
                                     016A 20000 ; ********************************************************
                                     016A 20100 ; ********** EXIT EXECUTIVE MODE FOR GETDEV  *************
                                     016A 20200 ; ********************************************************
UETINIT00       VAX/VMS UETP SYSTEM SIZER                        22-AUG-1978 03:15:03   VAX-11 MACRO X0.3-11               Page  16
1.02            DISPLAY ROUTINE                                                                                                  (2)

                                     016A 20300 	SERVCHEK				; CHECK FOR ERROR
            0B            50     E8  016A       30006$:	BLBS	R0,30007$
   00000C4E'EF         FA AF     DE  016D       	MOVAL	30006$,DIEARG
                          FF24   31  0175       	BRW	DIE
                                     0178       30007$:
                                     0178 20400 ;
                                     0178 20500 	$CREATE	FAB=FAB,ERR=RMS_ERR		; CREATE UETINIDEV.DAT
                     FE84 CF     DF  0178       		PUSHAL RMS_ERR
                 00000C78'EF     DF  017C       		PUSHAL	FAB
   00000000'9F            02     FB  0182       		CALLS	#$$.TMP1,@#SYS$CREATE
                                     0189 20600 	$CONNECT	RAB=RAB,ERR=RMS_ERR	; CONNECT THE RAB TO THE FAB
                     FE73 CF     DF  0189       		PUSHAL RMS_ERR
                 00000CC8'EF     DF  018D       		PUSHAL	RAB
   00000000'9F            02     FB  0193       		CALLS	#$$.TMP1,@#SYS$CONNECT
                                     019A 20700 	PUTMSG	<#UETP$_BEGIND,#2,#TSTNAM,#0>	; PRINT OPENING MESSAGE
                          00     DD  019A       	  	PUSHL	#0
                 00000000'8F     DD  019C       	  	PUSHL	#TSTNAM
                          02     DD  01A2       	  	PUSHL	#2
                 0074103B 8F     DD  01A4       	  	PUSHL	#UETP$_BEGIND
   00000000'9F            04     FB  01AA       		CALLS	#$$T1,@#LIB$SIGNAL
                                     01B1 20800 	PUTMSG	<#UETP$_CONF>			; PRINT DEVICE AVAILABLE MESSAGE
                 00000000'8F     DD  01B1       	  	PUSHL	#UETP$_CONF
   00000000'9F            01     FB  01B7       		CALLS	#$$T1,@#LIB$SIGNAL
            58   00000010'EF     DE  01BE 20900 	MOVAL	NAME_BUF,R8			; SET NAME BUFFER PNTR
            59   00000410'EF     DE  01C5 21000 	MOVAL	UNIT_BUF,R9			; SET UNIT BUFFER PNTR
                                     01CC 21100 OUTPUT:
            57   00000C5E'EF     DE  01CC 21200 	MOVAL	ARGLST,R7			; SET TO ADR OF ARG
                          68     95  01D3 21300 	TSTB	(R8)				; LAST DDB?
                          06     12  01D5 21400 	BNEQ	1$				; BR IF NO
                 000002CE'EF     17  01D7 21500 	JMP	SUC_EXIT			; JMP IF YES
                                     01DD 21600 1$:
   00000C5A'EF            58     D0  01DD 21700 	MOVL	R8,DEVNAM4			; SET DEV NAME STRING ADR
                                     01E4 21800 	PUTMSG	<#UETP$_DDB,#1,#DEVNAM>		; PRINT DDB LINE
                 00000C56'8F     DD  01E4       	  	PUSHL	#DEVNAM
                          01     DD  01EA       	  	PUSHL	#1
                 00000000'8F     DD  01EC       	  	PUSHL	#UETP$_DDB
   00000000'9F            03     FB  01F2       		CALLS	#$$T1,@#LIB$SIGNAL
                                     01F9 21900 	DISPLAY	DDB_CTRSTR,DEFERED		; DISPLAY DDB
            5A   00000040'EF     DE  01F9       	MOVAL	DDB_CTRSTR,R10
            5B   00000C72'EF     DE  0200       	MOVAL	DEFERED,R11
                     FE76 CF     16  0207       	JSB	DISPLAY
   00000CEA'EF   00000C4A'EF     B0  020B 22000 	MOVW	STRLEN,RAB+RAB$W_RSZ		; GET RECORD SIZE
                                     0216 22100 	$PUT	RAB=RAB,ERR=RMS_ERR		; WRITE DDB LINE TO THE FILE
                     FDE6 CF     DF  0216       		PUSHAL RMS_ERR
                 00000CC8'EF     DF  021A       		PUSHAL	RAB
   00000000'9F            02     FB  0220       		CALLS	#$$.TMP1,@#SYS$PUT
            58            03     C0  0227 22200 	ADDL2	#3,R8				; POINT TO NEXT DEVICE NAME
                                     022A 22300 RA2:
       FFFF 8F            69     B1  022A 22400 	CMPW	(R9),#-1			; LAST UCB?
                          6A     13  022F 22500 	BEQL	UNIT_END			; BR IF YES
            67            89     3C  0231 22600 	MOVZWL	(R9)+,(R7)			; MOV UNIT # TO ARG LIST
         04 A7            89     7D  0234 22700 	MOVQ	(R9)+,4(R7)			; GET DEV. CHAR. #1 & #2
         0C A7            89     D0  0238 22800 	MOVL	(R9)+,12(R7)			; GET DEV. CHAR. LONG WORD #3
                                     023C 22900 	PUTMSG	<#UETP$_UCB,#4,ARGLST,ARGLST+4,-
                                     023C 23000 		ARGLST+8,ARGLST+12>		; PRINT UCB LINE
                 00000C6A'EF     DD  023C       	  	PUSHL	ARGLST+12
                 00000C66'EF     DD  0242       	  	PUSHL	ARGLST+8
UETINIT00       VAX/VMS UETP SYSTEM SIZER                        22-AUG-1978 03:15:03   VAX-11 MACRO X0.3-11               Page  17
1.02            DISPLAY ROUTINE                                                                                                  (2)

                 00000C62'EF     DD  0248       	  	PUSHL	ARGLST+4
                 00000C5E'EF     DD  024E       	  	PUSHL	ARGLST
                          04     DD  0254       	  	PUSHL	#4
                 00000000'8F     DD  0256       	  	PUSHL	#UETP$_UCB
   00000000'9F            06     FB  025C       		CALLS	#$$T1,@#LIB$SIGNAL
                                     0263 23100 	DISPLAY	UCB_CTRSTR,(R7)			; DISPLAY UCB LINE
            5A   00000063'EF     DE  0263       	MOVAL	UCB_CTRSTR,R10
            5B            67     DE  026A       	MOVAL	(R7),R11
                     FE10 CF     16  026D       	JSB	DISPLAY
   00000CEA'EF   00000C4A'EF     B0  0271 23200 	MOVW	STRLEN,RAB+RAB$W_RSZ		; SET THE RECORD SIZE
                                     027C 23300 	$PUT	RAB=RAB,ERR=RMS_ERR		; WRITE UCB LINE TO THE FILE
                     FD80 CF     DF  027C       		PUSHAL RMS_ERR
                 00000CC8'EF     DF  0280       		PUSHAL	RAB
   00000000'9F            02     FB  0286       		CALLS	#$$.TMP1,@#SYS$PUT
   0000000C'EF            02     93  028D 23400 	BITB	#BIT1,FLAG			; ANY CONTROL C'S?
                          03     13  0294 23500 	BEQL	10$				; BR IF NOT
                          0035   31  0296 23600 	BRW	SUC_EXIT			; EXIT CLEAN
                                     0299 23700 10$:
                          8F     11  0299 23800 	BRB	RA2				; DO NEXT UCB
UETINIT00       VAX/VMS UETP SYSTEM SIZER                        22-AUG-1978 03:15:03   VAX-11 MACRO X0.3-11               Page  18
1.02            DISPLAY ROUTINE                                                                                                  (2)

                                     029B 24000 UNIT_END:
                          89     B5  029B 24100 	TSTW	(R9)+				; SKIP -1 DELIMITER
                          FF2C   31  029D 24200 	BRW	OUTPUT				; DO THE NEXT DEVICE
                                     02A0 24300 ERR_EXIT:
            52   FFFFFFFF 8F     D0  02A0 24400 	MOVL	#ERR_RET,R2			; SET ERROR RETURN
                                     02A7 24500 	PUTMSG	<#UETP$_ERBOX,#1,ERROR_CNT,-	; PRINT ERROR BOX
                                     02A7 24600 		#UETP$_ABENDD,#2,#TSTNAM,#0>	; PRINT ABNORMAL END MESSAGE
                          00     DD  02A7       	  	PUSHL	#0
                 00000000'8F     DD  02A9       	  	PUSHL	#TSTNAM
                          02     DD  02AF       	  	PUSHL	#2
                 007410E2 8F     DD  02B1       	  	PUSHL	#UETP$_ABENDD
                 00000C52'EF     DD  02B7       	  	PUSHL	ERROR_CNT
                          01     DD  02BD       	  	PUSHL	#1
                 00000000'8F     DD  02BF       	  	PUSHL	#UETP$_ERBOX
   00000000'9F            07     FB  02C5       		CALLS	#$$T1,@#LIB$SIGNAL
                          1A     11  02CC 24700 	BRB	OUTPUT_LAST			; COMMON EXIT
                                     02CE 24800 SUC_EXIT:
            52            01     D0  02CE 24900 	MOVL	#SUC_RET,R2			; SET SUCCESS RETURN
                                     02D1 25000 	PUTMSG	<#UETP$_ENDEDD,#2,#TSTNAM,#0>	; PRINT SUCCESS END MESSAGE
                          00     DD  02D1       	  	PUSHL	#0
                 00000000'8F     DD  02D3       	  	PUSHL	#TSTNAM
                          02     DD  02D9       	  	PUSHL	#2
                 00741083 8F     DD  02DB       	  	PUSHL	#UETP$_ENDEDD
   00000000'9F            04     FB  02E1       		CALLS	#$$T1,@#LIB$SIGNAL
                                     02E8 25100 OUTPUT_LAST:
                                     02E8 25200 	$DISCONNECT	RAB=RAB			; DISCONNECT THE RAB FROM THE FAB
                 00000CC8'EF     DF  02E8       		PUSHAL	RAB
   00000000'9F            01     FB  02EE       		CALLS	#$$.TMP1,@#SYS$DISCONNECT
                                     02F5 25300 	$CLOSE	FAB=FAB				; CLOSE THE FILE
                 00000C78'EF     DF  02F5       		PUSHAL	FAB
   00000000'9F            01     FB  02FB       		CALLS	#$$.TMP1,@#SYS$CLOSE
                                     0302 25400 	$EXIT_S	R2				; RETURN TO I.C.F.
                          52     DD  0302       		PUSHL	R2
   00000000'GF            01     FB  0304       		CALLS	#1,G^SYS$EXIT
                                     030B 25500 ;
                                     030B 25600 	.END	UETINIT00
UETINIT00       VAX/VMS UETP SYSTEM SIZER                        22-AUG-1978 03:15:03   VAX-11 MACRO X0.3-11               Page  19
SYMBOL TABLE                                                                                                                     (2)

$$$CHARS       = 00000016            FAB$C_HSH      = 00000030            FAB$M_SCF      = 00004000
$$$STRINGS     = 00000000            FAB$C_IDX      = 00000020            FAB$M_SHRDEL   = 00000004
$$.TAB         = 00000CC8 R     04   FAB$C_MAXRFM   = 00000003            FAB$M_SHRGET   = 00000002
$$.TABEND      = 00000D0C R     04   FAB$C_REL      = 00000010            FAB$M_SHRPUT   = 00000001
$$.TMP         = 00000100            FAB$C_RFM_DFLT = 00000002            FAB$M_SHRUPD   = 00000008
$$.TMP1        = 00000001            FAB$C_SEQ      = 00000000            FAB$M_SPL      = 00002000
$$.TMP2        = 000000EF            FAB$C_UDF      = 00000000            FAB$M_SQO      = 00000040
$$T1           = 00000004            FAB$C_VAR      = 00000002            FAB$M_SUP      = 00000004
ARGLST           00000C5E R     04   FAB$C_VFC      = 00000003            FAB$M_TEF      = 10000000
BIT...         = 00000020            FAB$K_BLN        00000050            FAB$M_TMD      = 00000010
BIT0           = 00000001            FAB$L_ALQ        00000010            FAB$M_TMP      = 00000008
BIT1           = 00000002            FAB$L_CTX        00000018            FAB$M_TRN      = 00000010
BUF              00000C10 R     04   FAB$L_DEV        00000040            FAB$M_UFM      = 04000000
BUFFER           00000C18 R     04   FAB$L_DNA        00000030            FAB$M_UFO      = 00020000
BUFFER_LEN     = 00000032            FAB$L_FNA        0000002C            FAB$M_UPD      = 00000008
CCASTHAND        000000CE R     05   FAB$L_FOP        00000004            FAB$M_UPI      = 00000040
CNTRLCMSG        0000001C R     02   FAB$L_JNL        00000020            FAB$M_WCK      = 00000200
CR             = 0000000D            FAB$L_MRN        00000038            FAB$S_ORG      = 00000004
DDB              00000050 R     05   FAB$L_NAM        00000028            FAB$S_PPF_RAT  = 00000008
DDB$B_ACPCLASS   00000013            FAB$L_SDC        00000044            FAB$V_BIO      = 00000005
DDB$B_TYPE       0000000A            FAB$L_STS        00000008            FAB$V_BLK      = 00000003
DDB$C_LENGTH     00000034            FAB$L_STV        0000000C            FAB$V_BRO      = 00000006
DDB$K_LENGTH     00000034            FAB$L_XAB        00000024            FAB$V_CBT      = 00000015
DDB$L_ACPD       00000010            FAB$M_BIO      = 00000020            FAB$V_CIF      = 00000019
DDB$L_DDT        0000000C            FAB$M_BLK      = 00000008            FAB$V_CR       = 00000001
DDB$L_LINK       00000000            FAB$M_BRO      = 00000040            FAB$V_CTG      = 00000014
DDB$L_UCB        00000004            FAB$M_CBT      = 00200000            FAB$V_DEL      = 00000002
DDB$T_DRVNAME    00000024            FAB$M_CIF      = 02000000            FAB$V_DFW      = 00000005
DDB$T_NAME       00000014            FAB$M_CR       = 00000002            FAB$V_DLT      = 0000000F
DDB$W_SIZE       00000008            FAB$M_CTG      = 00100000            FAB$V_DMO      = 0000000C
DDB_CTRSTR       00000040 R     02   FAB$M_DEL      = 00000004            FAB$V_ESC      = 0000001B
DDB_END          0000007B R     05   FAB$M_DFW      = 00000020            FAB$V_EXE      = 00000007
DEFERED          00000C72 R     04   FAB$M_DLT      = 00008000            FAB$V_FTN      = 00000000
DEVNAM           00000C56 R     04   FAB$M_DMO      = 00001000            FAB$V_GET      = 00000001
DEVNAM4          00000C5A R     04   FAB$M_ESC      = 08000000            FAB$V_INP      = 00000013
DIE              0000009C R     05   FAB$M_EXE      = 00000080            FAB$V_JNL      = 00000016
DIEARG           00000C4E R     04   FAB$M_FTN      = 00000001            FAB$V_KFO      = 0000001E
DISPLAY          00000081 R     05   FAB$M_GET      = 00000002            FAB$V_MSE      = 00000004
ERROR_CNT        00000C52 R     04   FAB$M_INP      = 00080000            FAB$V_MXV      = 00000001
ERR_EXIT         000002A0 R     05   FAB$M_JNL      = 00400000            FAB$V_NAM      = 00000018
ERR_RET        = FFFFFFFF            FAB$M_KFO      = 40000000            FAB$V_NEF      = 0000000A
FAB              00000C78 R     04   FAB$M_MSE      = 00000010            FAB$V_NFS      = 00000010
FAB$B_BID        00000000            FAB$M_MXV      = 00000002            FAB$V_NIL      = 00000005
FAB$B_BKS        0000003E            FAB$M_NAM      = 01000000            FAB$V_OFP      = 0000001D
FAB$B_BLN        00000001            FAB$M_NEF      = 00000400            FAB$V_ORG      = 00000004
FAB$B_DNS        00000035            FAB$M_NFS      = 00010000            FAB$V_POS      = 00000008
FAB$B_FAC        00000016            FAB$M_NIL      = 00000020            FAB$V_PPF      = 00000012
FAB$B_FNS        00000034            FAB$M_OFP      = 20000000            FAB$V_PPF_IND  = 0000000E
FAB$B_FSZ        0000003F            FAB$M_POS      = 00000100            FAB$V_PPF_RAT  = 00000006
FAB$B_ORG        0000001D            FAB$M_PPF      = 00040000            FAB$V_PRN      = 00000002
FAB$B_RAT        0000001E            FAB$M_PPF_IND  = 00004000            FAB$V_PUT      = 00000000
FAB$B_RFM        0000001F            FAB$M_PPF_RAT  = 00003FC0            FAB$V_RCK      = 00000017
FAB$B_RTV        0000001C            FAB$M_PRN      = 00000004            FAB$V_RWC      = 0000000B
FAB$B_SHR        00000017            FAB$M_PUT      = 00000001            FAB$V_RWO      = 00000007
FAB$C_BID      = 00000003            FAB$M_RCK      = 00800000            FAB$V_SCF      = 0000000E
FAB$C_BLN        00000050            FAB$M_RWC      = 00000800            FAB$V_SHRDEL   = 00000002
FAB$C_FIX      = 00000001            FAB$M_RWO      = 00000080            FAB$V_SHRGET   = 00000001
UETINIT00       VAX/VMS UETP SYSTEM SIZER                        22-AUG-1978 03:15:03   VAX-11 MACRO X0.3-11               Page  20
SYMBOL TABLE                                                                                                                     (2)

FAB$V_SHRPUT   = 00000000            RAB$L_FAB        0000003C            RAB$V_PPF_RAT  = 00000006
FAB$V_SHRUPD   = 00000003            RAB$L_KBF        00000030            RAB$V_PTA      = 0000001D
FAB$V_SPL      = 0000000D            RAB$L_PBF        00000030            RAB$V_RAH      = 00000009
FAB$V_SQO      = 00000006            RAB$L_RBF        00000028            RAB$V_RLK      = 00000013
FAB$V_SUP      = 00000002            RAB$L_RFA0       00000010            RAB$V_RNE      = 00000018
FAB$V_TEF      = 0000001C            RAB$L_RHB        0000002C            RAB$V_RNF      = 0000001B
FAB$V_TMD      = 00000004            RAB$L_ROP        00000004            RAB$V_TMO      = 00000019
FAB$V_TMP      = 00000003            RAB$L_STS        00000008            RAB$V_TPT      = 00000001
FAB$V_TRN      = 00000004            RAB$L_STV        0000000C            RAB$V_UIF      = 00000004
FAB$V_UFM      = 0000001A            RAB$L_UBF        00000024            RAB$V_ULK      = 00000012
FAB$V_UFO      = 00000011            RAB$M_ASY      = 00000001            RAB$V_WAT      = 00000011
FAB$V_UPD      = 00000003            RAB$M_BIO      = 00000800            RAB$V_WBH      = 0000000A
FAB$V_UPI      = 00000006            RAB$M_CCO      = 80000000            RAB$W_ISI        00000002
FAB$V_WCK      = 00000009            RAB$M_CVT      = 04000000            RAB$W_RFA        00000010
FAB$W_BLS        0000003C            RAB$M_EOF      = 00000100            RAB$W_RFA4       00000014
FAB$W_DEQ        00000014            RAB$M_FDL      = 00000040            RAB$W_RSZ        00000022
FAB$W_IFI        00000002            RAB$M_HSH      = 00000080            RAB$W_USZ        00000020
FAB$W_MRS        00000036            RAB$M_KGE      = 00200000            RMS_ERR          00000000 R     05
FILE_NAME        00000081 R     02   RAB$M_KGT      = 00400000            SHR$K_SHRDEF   = 00000001
FLAG             0000000C R     04   RAB$M_LIM      = 00004000            SHR$_ABEND     = 000010D8
GBL...         = 00000000            RAB$M_LOA      = 00002000            SHR$_ABENDD    = 000010E0
GETDEV           00000039 R     05   RAB$M_LOC      = 00010000            SHR$_ABENDT    = 000010E8
IO$M_CTRLCAST    ********   X   05   RAB$M_MAS      = 00000020            SHR$_APPENDEDB = 00001000
IO$_SETMODE      ********   X   05   RAB$M_NLK      = 00100000            SHR$_APPENDEDR = 00001008
IOC$GL_DEVLIST   ********   X   05   RAB$M_NXR      = 00800000            SHR$_ATPC      = 00001158
IOSTAT           00000000 R     04   RAB$M_PMT      = 40000000            SHR$_BADBYTE   = 00001010
LF             = 0000000A            RAB$M_PPF_IND  = 00004000            SHR$_BADCOPIES = 00001160
LIB$SIGNAL       ********   X   05   RAB$M_PPF_RAT  = 00003FC0            SHR$_BADDELIM  = 00001118
LOGNAM1          00000012 R     02   RAB$M_PTA      = 20000000            SHR$_BADFIELD  = 00001018
NAME_BUF         00000010 R     04   RAB$M_RAH      = 00000200            SHR$_BADFORM   = 00001168
NAME_SIZE      = 0000000D            RAB$M_RLK      = 00080000            SHR$_BADJOBID  = 00001170
NARGS          = 00000002            RAB$M_RNE      = 01000000            SHR$_BADJOBNAME= 00001178
OUTPUT           000001CC R     05   RAB$M_RNF      = 08000000            SHR$_BADKEY    = 00001108
OUTPUT_LAST      000002E8 R     05   RAB$M_TMO      = 02000000            SHR$_BADLOGIC  = 00001120
RA2              0000022A R     05   RAB$M_TPT      = 00000002            SHR$_BADLOGICPC= 00001150
RAB              00000CC8 R     04   RAB$M_UIF      = 00000010            SHR$_BADLONG   = 00001020
RAB$B_BID        00000000            RAB$M_ULK      = 00040000            SHR$_BADPRTY   = 00001180
RAB$B_BLN        00000001            RAB$M_WAT      = 00020000            SHR$_BADQNAME  = 00001188
RAB$B_KRF        00000035            RAB$M_WBH      = 00000400            SHR$_BADTIME   = 00001190
RAB$B_KSZ        00000034            RAB$S_PPF_RAT  = 00000008            SHR$_BADVALUE  = 00001110
RAB$B_MBC        00000037            RAB$V_ASY      = 00000000            SHR$_BADWORD   = 00001028
RAB$B_MBF        00000036            RAB$V_BIO      = 0000000B            SHR$_BEGIN     = 00001030
RAB$B_PSZ        00000034            RAB$V_CCO      = 0000001F            SHR$_BEGIND    = 00001038
RAB$B_RAC        0000001E            RAB$V_CVT      = 0000001A            SHR$_BEGINT    = 00001040
RAB$B_ROP1       00000005            RAB$V_EOF      = 00000008            SHR$_CLICB     = 00001048
RAB$B_ROP2       00000006            RAB$V_FDL      = 00000006            SHR$_CLOSEDEL  = 00001218
RAB$B_ROP3       00000007            RAB$V_HSH      = 00000007            SHR$_CLOSEIN   = 00001050
RAB$B_TMO        0000001F            RAB$V_KGE      = 00000015            SHR$_CLOSEOUT  = 00001058
RAB$C_BID      = 00000001            RAB$V_KGT      = 00000016            SHR$_CONFDEL   = 000011F8
RAB$C_BLN        00000044            RAB$V_LIM      = 0000000E            SHR$_COPIEDB   = 00001060
RAB$C_KEY      = 00000001            RAB$V_LOA      = 0000000D            SHR$_COPIEDR   = 00001068
RAB$C_RFA      = 00000002            RAB$V_LOC      = 00000010            SHR$_CREATED   = 00001070
RAB$C_SEQ      = 00000000            RAB$V_MAS      = 00000005            SHR$_DELETED   = 00001200
RAB$K_BLN        00000044            RAB$V_NLK      = 00000014            SHR$_DELINTERR = 00001240
RAB$L_BKT        00000038            RAB$V_NXR      = 00000017            SHR$_DELVER    = 00001208
RAB$L_CTX        00000018            RAB$V_PMT      = 0000001E            SHR$_DIRTOOBUS = 00001220
RAB$L_DCT        00000038            RAB$V_PPF_IND  = 0000000E            SHR$_ENDED     = 00001078
UETINIT00       VAX/VMS UETP SYSTEM SIZER                        22-AUG-1978 03:15:03   VAX-11 MACRO X0.3-11               Page  21
SYMBOL TABLE                                                                                                                     (2)

SHR$_ENDEDD    = 00001080            UCB$B_DEVCLASS   00000038            UCB$L_SVAPTE     00000068
SHR$_ENDEDT    = 00001088            UCB$B_DEVTYPE    00000039            UCB$L_SVPN       00000064
SHR$_FILNOTDEL = 000011F0            UCB$B_DIPL       00000052            UCB$L_TTCHAR     0000003C
SHR$_FILNOTPUR = 00001230            UCB$B_DX_SCTCNT  000000A6            UCB$L_VCB        00000030
SHR$_FILPURGED = 00001250            UCB$B_ERTCNT     00000070            UCB$M_BACKP    = 00000020
SHR$_HASHCONCAT= 000011D8            UCB$B_ERTMAX     00000071            UCB$M_BSY      = 00000100
SHR$_HIGHVER   = 00001148            UCB$B_ESCAPE     0000004B            UCB$M_CANCEL   = 00000008
SHR$_IDXCONCAT = 00001138            UCB$B_FEX        00000076            UCB$M_DEADMO   = 00000400
SHR$_INCOMPAT  = 000011E0            UCB$B_FIPL       0000000B            UCB$M_DELMBX   = 00000002
SHR$_NEWFILES  = 00001090            UCB$B_LOCSRV     0000003C            UCB$M_DIAGBUF  = 00000002
SHR$_NOFILPURG = 00001228            UCB$B_OFFNDX     00000094            UCB$M_DX_WRITE = 00000008
SHR$_NOJOBID   = 000011A0            UCB$B_OFFRTC     00000095            UCB$M_ECC      = 00000001
SHR$_NOJOBNAME = 000011A8            UCB$B_REMSRV     0000003D            UCB$M_ERLOGIP  = 00000004
SHR$_NOQUEUE   = 00001198            UCB$B_SECTORS    0000003C            UCB$M_INT      = 00000002
SHR$_NOTCMPLT  = 000011C0            UCB$B_SLAVE      00000074            UCB$M_INTTYPE  = 00000080
SHR$_NOTCOPIED = 000011B8            UCB$B_SPR        00000075            UCB$M_JOB      = 00000001
SHR$_NOVALUE   = 00001100            UCB$B_STATE      00000052            UCB$M_MOUNTING = 00000200
SHR$_NOWILD    = 00001128            UCB$B_TRACKS     0000003D            UCB$M_NOCNVRT  = 00000004
SHR$_OPENIN    = 00001098            UCB$B_TYPE       0000000A            UCB$M_NT_BFROVF= 00000004
SHR$_OPENOUT   = 000010A0            UCB$B_VERTSZ     0000003F            UCB$M_NT_BREAK = 00000020
SHR$_OVERLAY   = 000010A8            UCB$C_LENGTH     00000074            UCB$M_NT_NAME  = 00000010
SHR$_PARSEFAIL = 00001248            UCB$C_LOGLNK   = 00000001            UCB$M_ONLINE   = 00000010
SHR$_PURGEVER  = 00001210            UCB$K_LENGTH     00000074            UCB$M_POWER    = 00000020
SHR$_READERR   = 000010B0            UCB$L_AMB        00000054            UCB$M_PRMMBX   = 00000001
SHR$_RELCONCAT = 00001140            UCB$L_ASTQBL     00000010            UCB$M_TIM      = 00000001
SHR$_REPLACED  = 000010B8            UCB$L_ASTQFL     0000000C            UCB$M_TIMOUT   = 00000040
SHR$_RMSERROR  = 000011C8            UCB$L_CPID       0000005C            UCB$M_TT_NOTIF = 00000004
SHR$_SEARCHFAIL= 00001238            UCB$L_CRB        00000020            UCB$M_TT_TIMO  = 00000002
SHR$_SYNTAX    = 000010F8            UCB$L_DDB        00000024            UCB$M_UNLOAD   = 00001000
SHR$_SYSERROR  = 000011B0            UCB$L_DEVCHAR    00000034            UCB$M_VALID    = 00000800
SHR$_SYSERRORPC= 000010F0            UCB$L_DEVDEPEND  0000003C            UCB$S_LNKPRI   = 00000002
SHR$_TEXT      = 00001130            UCB$L_DPC        00000080            UCB$S_LTYPE    = 00000002
SHR$_UNXPCTSTS = 000011D0            UCB$L_DUETIM     0000005C            UCB$T_PARTNER    0000000C
SHR$_VALERR    = 000011E8            UCB$L_DX_BFPNT   0000009C            UCB$V_BACKP    = 00000005
SHR$_WILDCONCAT= 000010C0            UCB$L_DX_BUF     00000098            UCB$V_BSY      = 00000008
SHR$_WILDOUTVER= 000010C8            UCB$L_DX_RXDB    000000A0            UCB$V_CANCEL   = 00000003
SHR$_WRITEERR  = 000010D0            UCB$L_EMB        00000078            UCB$V_DEADMO   = 0000000A
STRLEN           00000C4A R     04   UCB$L_FIRST      00000014            UCB$V_DELMBX   = 00000001
SUC_EXIT         000002CE R     05   UCB$L_FPC        0000000C            UCB$V_DIAGBUF  = 00000001
SUC_RET        = 00000001            UCB$L_FQBL       00000004            UCB$V_DX_WRITE = 00000003
SYS$ASSIGN       ********   X   05   UCB$L_FQFL       00000000            UCB$V_ECC      = 00000000
SYS$CLOSE        ********  GX   05   UCB$L_FR3        00000010            UCB$V_ERLOGIP  = 00000002
SYS$CMEXEC       ********   X   05   UCB$L_FR4        00000014            UCB$V_INT      = 00000001
SYS$CONNECT      ********  GX   05   UCB$L_IOQBL      00000044            UCB$V_INTTYPE  = 00000007
SYS$CREATE       ********  GX   05   UCB$L_IOQFL      00000040            UCB$V_JOB      = 00000000
SYS$DISCONNECT   ********  GX   05   UCB$L_IRP        0000004C            UCB$V_LNKPRI   = 00000006
SYS$EXIT         ********   X   05   UCB$L_LINK       0000002C            UCB$V_LTYPE    = 00000000
SYS$FAOL         ********   X   05   UCB$L_LOGADR     00000064            UCB$V_MOUNTING = 00000009
SYS$PUT          ********  GX   05   UCB$L_MAXBLOCK   00000084            UCB$V_MSGACK   = 00000004
SYS$QIOW         ********   X   05   UCB$L_MEDIA      0000008C            UCB$V_MSGFLO   = 00000003
SYS$SETPRN       ********   X   05   UCB$L_NT_DATSSB  00000074            UCB$V_NOCNVRT  = 00000002
TSTNAM           00000000 R     02   UCB$L_NT_INTSSB  00000078            UCB$V_NT_BFROVF= 00000002
TTCHAN           00000008 R     04   UCB$L_OPCNT      00000060            UCB$V_NT_BREAK = 00000005
UCB$B_AMOD       00000053            UCB$L_OWNUIC     0000001C            UCB$V_NT_NAME  = 00000004
UCB$B_CEX        00000077            UCB$L_PID        00000028            UCB$V_ONLINE   = 00000004
UCB$B_CM1        0000004A            UCB$L_RQBL       00000004            UCB$V_POWER    = 00000005
UCB$B_CM2        0000004B            UCB$L_RQFL       00000000            UCB$V_PRMMBX   = 00000000
UETINIT00       VAX/VMS UETP SYSTEM SIZER                        22-AUG-1978 03:15:03   VAX-11 MACRO X0.3-11               Page  22
SYMBOL TABLE                                                                                                                     (2)

UCB$V_SEGFLO   = 00000002
UCB$V_TIM      = 00000000
UCB$V_TIMOUT   = 00000006
UCB$V_TT_NOTIF = 00000002
UCB$V_TT_TIMO  = 00000001
UCB$V_UNLOAD   = 0000000C
UCB$V_VALID    = 0000000B
UCB$W_BCNT       0000006E
UCB$W_BCR        00000096
UCB$W_BOFF       0000006C
UCB$W_BUFQUO     00000018
UCB$W_BYTESTOGO  0000003E
UCB$W_CHARGE     0000004A
UCB$W_CYLINDERS  0000003E
UCB$W_DA         0000008C
UCB$W_DC         0000008E
UCB$W_DEVBUFSIZ  0000003A
UCB$W_DEVSTS     0000005A
UCB$W_DIRSEQ     00000088
UCB$W_DSTADDR    00000018
UCB$W_DX_BCR     000000A4
UCB$W_EC1        00000090
UCB$W_EC2        00000092
UCB$W_ERRCNT     00000072
UCB$W_FUNC       0000007E
UCB$W_MB_SEED    FFFFFFFC
UCB$W_MSGCNT     00000016
UCB$W_MSGMAX     00000014
UCB$W_NT_CHAN    0000007C
UCB$W_OFFSET     0000008A
UCB$W_REFC       00000050
UCB$W_SIZE       00000008
UCB$W_SRCADDR    0000001A
UCB$W_STS        00000058
UCB$W_UNIT       00000048
UCB$W_VPROT      0000001A
UCB_CTRSTR       00000063 R     02
UETINIT00        000000ED RG    05
UETP$_ABENDD   = 007410E2
UETP$_BEGIND   = 0074103B
UETP$_CONF       ********   X   05
UETP$_DDB        ********   X   05
UETP$_ENDEDD   = 00741083
UETP$_ERBOX      ********   X   05
UETP$_OPENOUT  = 007410A2
UETP$_TEXT     = 00741133
UETP$_UCB        ********   X   05
UETP$_WRITEERR = 007410D2
UNIT             00000062 R     05
UNIT_BUF         00000410 R     04
UNIT_END         0000029B R     05
WRN_RET        = FFFFFFFE


PROGRAM SECTION SYNOPSIS

.  ABS  .        00000000      00     NOPIC   USR   CON   ABS   LCL NOSHR NOEXE NORD  NOWRT BYTE
UETINIT00       VAX/VMS UETP SYSTEM SIZER                        22-AUG-1978 03:15:03   VAX-11 MACRO X0.3-11               Page  23
PROGRAM SECTION SYNOPSIS                                                                                                         (2)

. BLANK .        00000000      01     NOPIC   USR   CON   REL   LCL NOSHR   EXE   RD    WRT BYTE
RODATA           0000008E      02     NOPIC   USR   CON   REL   LCL NOSHR NOEXE   RD  NOWRT LONG
$ABS$            FFFFFFFE      03     NOPIC   USR   CON   ABS   LCL NOSHR   EXE   RD    WRT BYTE
RWDATA           00000D0C      04     NOPIC   USR   CON   REL   LCL NOSHR NOEXE   RD    WRT LONG
UETINI           0000030B      05     NOPIC   USR   CON   REL   LCL NOSHR   EXE   RD  NOWRT LONG


THERE WERE NO ERRORS OR WARNINGS.
4378. BYTES LEFT IN FREE MEMORY POOL.
1082. BYTES OF RECLAIMED MEMORY.
OBJ$:UETINIT00,LIS$:UETINIT00/-SP=SRC$:UETPLIBS,UETINIT00
96 MLB DIR RDS - 1122 GETS TO DEFINE 49 MACROS. 174 INTER. FILE WRITES.
