UETTAPE01       - VAX/VMS UETP TAPE EXERCISER                    22-AUG-1978 03:37:20   VAX-11 MACRO X0.3-11               Page   0
TABLE OF CONTENTS

   (3)      59  READ ONLY DATA
   (3)     127  READ/WRITE DATA
   (3)     200  MAIN PROGRAM
   (3)     222  MAIN CODE
UETTAPE01       - VAX/VMS UETP TAPE EXERCISER                    22-AUG-1978 03:37:20   VAX-11 MACRO X0.3-11               Page   1
1.01                                                                                                                             (1)

                                     0000     1 ;	UETP prefix file (contains macro library file specs).
                                     0000     2 ;
                                     0000     3 	.LIBRARY	/EXECML$/	;SYSTEM MACROS
                                     0000     4 	.LIBRARY	/LIBD$:[SYSTST.OBJ]SYSTST.MLB/ ; PRIVATE UETP,SYSTST LIB
                                     0000     5 	.LIST	MEB
                                     0000     6 ;
                                     0000     1 	.TITLE UETTAPE01 - VAX/VMS UETP TAPE EXERCISER
                                     0000     2 	.IDENT /1.01/
                                     0000     3
                                     0000     4 ;
                                     0000     5 ; COPYRIGHT (C) 1978
                                     0000     6 ; DIGITAL EQUIPMENT CORPORATION, MAYNARD, MASSACHUSETTS 01754
                                     0000     7 ;
                                     0000     8 ; THIS SOFTWARE IS FURNISHED  UNDER A LICENSE FOR USE ONLY ON A SINGLE
                                     0000     9 ; COMPUTER  SYSTEM AND  MAY BE  COPIED ONLY WITH  THE INCLUSION OF THE
                                     0000    10 ; ABOVE COPYRIGHT NOTICE.  THIS SOFTWARE, OR ANY OTHER COPIES THEREOF,
                                     0000    11 ; MAY NOT BE PROVIDED OR  OTHERWISE MADE AVAILABLE TO ANY OTHER PERSON
                                     0000    12 ; EXCEPT FOR USE ON SUCH SYSTEM AND TO ONE WHO AGREES TO THESE LICENSE
                                     0000    13 ; TERMS.  TITLE TO AND  OWNERSHIP OF THE  SOFTWARE  SHALL AT ALL TIMES
                                     0000    14 ; REMAIN IN DEC.
                                     0000    15 ;
                                     0000    16 ; THE INFORMATION IN THIS SOFTWARE IS SUBJECT TO CHANGE WITHOUT NOTICE
                                     0000    17 ; AND SHOULD  NOT BE CONSTRUED  AS A COMMITMENT  BY DIGITAL  EQUIPMENT
                                     0000    18 ; CORPORATION.
                                     0000    19 ;
                                     0000    20 ; DEC ASSUMES  NO  RESPONSIBILITY  FOR  THE USE OR  RELIABILITY OF ITS
                                     0000    21 ; SOFTWARE ON EQUIPMENT WHICH IS NOT SUPPLIED BY DEC.
                                     0000    22 ;
                                     0000    23
                                     0000    24 ;++
                                     0000    25 ; FACILITY:
                                     0000    26 ; 	THIS MODULE WILL BE DISTRIBUTED WITH VAX/VMS UNDER THE UETP UIC.
                                     0000    27 ;
                                     0000    28 ; ABSTRACT:
                                     0000    29 ;	THIS PROGRAM CREATES LOGICAL NAMES FOR EACH TESTABLE
                                     0000    30 ;	MAGNETIC TAPE UNIT ON A CONTROLLER.  THESE LOGICAL NAMES
                                     0000    31 ;	ARE USED IN A COMMAND FILE TO INITIALIZE AND MOUNT EACH
                                     0000    32 ;	TAPE UNIT BEFORE RUNNING THE MAGNETIC TAPE DEVICE TEST
                                     0000    33 ;	UETTAPE00.EXE.
                                     0000    34 ;
                                     0000    35 ;
                                     0000    36 ; ENVIRONMENT:
                                     0000    37 ; 	THE MODULE WILL RUN IN USER ACCESS MODE, WITH INTERRUPTS
                                     0000    38 ;	ENABLED AT ALL TIMES.  AN AST LIMIT MINIMUM OF 10(10) AND
                                     0000    39 ;	A BUFFERED I/O LIMIT MINIMUM OF 10(10) ARE REQUIRED TO
                                     0000    40 ;	RUN THIS PROGRAM.
                                     0000    41 ;
                                     0000    42 ; AUTHOR: PAULA TIRAK,	 CREATION DATE: AUGUST, 1978
                                     0000    43 ;
                                     0000    44 ; MODIFIED BY:
                                     0000    45 ;
                                     0000    46 ;	, : VERSION
                                     0000    47 ; 1.0   -
                                     0000    48 ; 1.01  -	CHANGED "RET"S ON EXITS TO 		PJT 17-AUG-78
                                     0000    49 ;		"BRW FINAL_EXIT"S ($EXIT_S)
                                     0000    50 ;--
UETTAPE01       - VAX/VMS UETP TAPE EXERCISER                    22-AUG-1978 03:37:20   VAX-11 MACRO X0.3-11               Page   2
1.01            READ ONLY DATA                                                                                                   (3)

                                     0000    53 	.SBTTL	READ ONLY DATA
                                 00000000    54 	.PSECT	RODATA,NOEXE,NOWRT,LONG
                                     0000    55 ;
                                     0000    56 ;	DEFINITIONS
                                     0000    57 ;
                                     0000    58 ;
                           00000001  0000    59 	BIT0=1		; ONE BIT MASK
                           00000002  0000    60 	BIT1=2		; ONE BIT MASK
                                     0000    61 ;
                                     0000    62
                                     0000    63 CNTRLCMSG:
                                     0000    64 	STRING	I,<aborted via a user control C>
                           0000001C  0000       	.LONG	$$$CHARS
                           00000008' 0004       	.ADDRESS .+4
20 61 69 76 20 64 65 74 72 6F 62 61  0008       	.ASCII	\aborted via a user control C\
72 74 6E 6F 63 20 72 65 73 75 20 61  0014
                        43 20 6C 6F  0020
                                     0024    65 ;
                                     0024    66 FILE_NAME_STR:
                           0000000D' 0024    67 	.LONG	NAME_SIZE
                           0000002C' 0028    68 	.ADDRESS FILE_NAME
                                     002C    69 FILE_NAME:
41 44 2E 56 45 44 49 4E 49 54 45 55  002C    70 	.ASCII	/UETINIDEV.DAT/
                                 54  0038
                           0000000D  0039    71 	NAME_SIZE=.-FILE_NAME
                                     0039    72 ;
                                     0039    73 LOGNAM:
                                     0039    74 	STRING	I,<UETP$CTRLNAME>	; LOG NAME STRING FOR $TRNLOG_S
                           0000000D  0039       	.LONG	$$$CHARS
                           00000041' 003D       	.ADDRESS .+4
4D 41 4E 4C 52 54 43 24 50 54 45 55  0041       	.ASCII	\UETP$CTRLNAME\
                                 45  004D
                                     004E    75 LOGNAM0:
                                     004E    76 	STRING	I,<TAPE0>
                           00000005  004E       	.LONG	$$$CHARS
                           00000056' 0052       	.ADDRESS .+4
                     30 45 50 41 54  0056       	.ASCII	\TAPE0\
                                     005B    77 LOGNAM1:
                                     005B    78 	STRING	I,<TAPE1>
                           00000005  005B       	.LONG	$$$CHARS
                           00000063' 005F       	.ADDRESS .+4
                     31 45 50 41 54  0063       	.ASCII	\TAPE1\
                                     0068    79 LOGNAM2:
                                     0068    80 	STRING	I,<TAPE2>
                           00000005  0068       	.LONG	$$$CHARS
                           00000070' 006C       	.ADDRESS .+4
                     32 45 50 41 54  0070       	.ASCII	\TAPE2\
                                     0075    81 LOGNAM3:
                                     0075    82 	STRING	I,<TAPE3>
                           00000005  0075       	.LONG	$$$CHARS
                           0000007D' 0079       	.ADDRESS .+4
                     33 45 50 41 54  007D       	.ASCII	\TAPE3\
                                     0082    83 LOGNAM4:
                                     0082    84 	STRING	I,<TAPE4>
                           00000005  0082       	.LONG	$$$CHARS
                           0000008A' 0086       	.ADDRESS .+4
                     34 45 50 41 54  008A       	.ASCII	\TAPE4\
UETTAPE01       - VAX/VMS UETP TAPE EXERCISER                    22-AUG-1978 03:37:20   VAX-11 MACRO X0.3-11               Page   3
1.01            READ ONLY DATA                                                                                                   (3)

                                     008F    85 LOGNAM5:
                                     008F    86 	STRING	I,<TAPE5>
                           00000005  008F       	.LONG	$$$CHARS
                           00000097' 0093       	.ADDRESS .+4
                     35 45 50 41 54  0097       	.ASCII	\TAPE5\
                                     009C    87 LOGNAM6:
                                     009C    88 	STRING	I,<TAPE6>
                           00000005  009C       	.LONG	$$$CHARS
                           000000A4' 00A0       	.ADDRESS .+4
                     36 45 50 41 54  00A4       	.ASCII	\TAPE6\
                                     00A9    89 LOGNAM7:
                                     00A9    90 	STRING	I,<TAPE7>
                           00000005  00A9       	.LONG	$$$CHARS
                           000000B1' 00AD       	.ADDRESS .+4
                     37 45 50 41 54  00B1       	.ASCII	\TAPE7\
                                     00B6    91 ;
                                     00B6    92 MAGTAPE0:
                           00000004  00B6    93 	.LONG	4
                           0000012E' 00BA    94 	.ADDRESS MTAPE0
                                     00BE    95 MAGTAPE1:
                           00000004  00BE    96 	.LONG	4
                           00000132' 00C2    97 	.ADDRESS MTAPE1
                                     00C6    98 MAGTAPE2:
                           00000004  00C6    99 	.LONG	4
                           00000136' 00CA   100 	.ADDRESS MTAPE2
                                     00CE   101 MAGTAPE3:
                           00000004  00CE   102 	.LONG	4
                           0000013A' 00D2   103 	.ADDRESS MTAPE3
                                     00D6   104 MAGTAPE4:
                           00000004  00D6   105 	.LONG	4
                           0000013E' 00DA   106 	.ADDRESS MTAPE4
                                     00DE   107 MAGTAPE5:
                           00000004  00DE   108 	.LONG	4
                           00000142' 00E2   109 	.ADDRESS MTAPE5
                                     00E6   110 MAGTAPE6:
                           00000004  00E6   111 	.LONG	4
                           00000146' 00EA   112 	.ADDRESS MTAPE6
                                     00EE   113 MAGTAPE7:
                           00000004  00EE   114 	.LONG	4
                           0000014A' 00F2   115 	.ADDRESS MTAPE7
                                     00F6   116 NOMORDEV:
                                     00F6   117 	STRING	I,<no more drives to test>
                           00000016  00F6       	.LONG	$$$CHARS
                           000000FE' 00FA       	.ADDRESS .+4
76 69 72 64 20 65 72 6F 6D 20 6F 6E  00FE       	.ASCII	\no more drives to test\
      74 73 65 74 20 6F 74 20 73 65  010A
                                     0114   118 TSTNAM:
                                     0114   119 	STRING	I,<UETTAPE01>
                           00000009  0114       	.LONG	$$$CHARS
                           0000011C' 0118       	.ADDRESS .+4
         31 30 45 50 41 54 54 45 55  011C       	.ASCII	\UETTAPE01\
UETTAPE01       - VAX/VMS UETP TAPE EXERCISER                    22-AUG-1978 03:37:20   VAX-11 MACRO X0.3-11               Page   4
1.01            READ/WRITE DATA                                                                                                  (3)

                                     0125   121 	.SBTTL	READ/WRITE DATA
                                 00000000   122 	.PSECT	RWDATA,WRT,NOEXE,LONG
                                     0000   123 ;
                                     0000   124 CNTRL_NAME_STR:
                           00000003  0000   125 	.LONG	3
                           00000019' 0004   126 	.ADDRESS CNTRL_NAME
                                     0008   127 PROCESS_NAME:
                           0000000C' 0008   128 	.LONG	PNL
                           00000010' 000C   129 	.ADDRESS .+4
         5F 30 45 50 41 54 54 45 55  0010   130 	.ASCII	/UETTAPE0_/
                                     0019   131 CNTRL_NAME:
                           00000000  0019   132 	.LONG	0	; TAPE CNTRL NAME IN ASCII
                           0000000C  001D   133 	PNL=.-PROCESS_NAME-9
                                     001D   134 DIEARG:
                           00000000  001D   135 	.LONG	0	; DIED PC SAVE
                                     0021   136 ERROR_CNT:
                           00000000  0021   137 	.LONG	0	; CUM. ERROR COUNT
                                     0025   138 FAO_BUF:
                           00000100' 0025   139 	.LONG	FAO_BUFL
                           0000002D' 0029   140 	.ADDRESS FAO_BUFFER
                                     002D   141 FAO_BUFFER:
                           0000012D  002D   142 	.BLKB	256
                           00000100  012D   143 	FAO_BUFL=.-FAO_BUFFER
                                     012D   144 IOSTAT:
                                     012D   145 			; BIT0 IS USED FOR DEVICE NOT FOUND FLAG
                                     012D   146 			; BIT1 IS RMS ERROR FLAG
                                 00  012D   147 	.BYTE	0	; I/O STATUS BLOCK
                                     012E   148 MTAPE0:
                        50 54 45 55  012E   149 	.ASCII	/UETP/
                                     0132   150 MTAPE1:
                        50 54 45 55  0132   151 	.ASCII	/UETP/
                                     0136   152 MTAPE2:
                        50 54 45 55  0136   153 	.ASCII	/UETP/
                                     013A   154 MTAPE3:
                        50 54 45 55  013A   155 	.ASCII	/UETP/
                                     013E   156 MTAPE4:
                        50 54 45 55  013E   157 	.ASCII	/UETP/
                                     0142   158 MTAPE5:
                        50 54 45 55  0142   159 	.ASCII	/UETP/
                                     0146   160 MTAPE6:
                        50 54 45 55  0146   161 	.ASCII	/UETP/
                                     014A   162 MTAPE7:
                        50 54 45 55  014A   163 	.ASCII	/UETP/
                                     014E   164 RECORD:
                           00000180  014E   165 	.BLKB	50
                                     0180   166 RMS_ERR_STS:
                           00000000  0180   167 	.LONG	0	; RMS STS ERROR CODE
                                     0184   168 RMS_ERR_STV:
                           00000000  0184   169 	.LONG	0	; RMS STV ERROR CODE
                                     0188   170 STRLEN:
                           00000000  0188   171 	.LONG	0	; FAO OUTPUT LENGTH
                                     018C   172 UNIT:
                           00000000  018C   173 	.LONG	0	; HOLDS DEVICE NAME AND UNIT #
UETTAPE01       - VAX/VMS UETP TAPE EXERCISER                    22-AUG-1978 03:37:20   VAX-11 MACRO X0.3-11               Page   5
1.01            READ/WRITE DATA                                                                                                  (3)

                                     0190   175 	.NLIST	MEB
                                     0190   176 	.ALIGN	LONG
                                     0190   177 FAB:				; FAB FOR FILE "UETINIDEV.DAT"
                                     0190   178 	$FAB-
                                     0190   179 	FAC=GET,-
                                     0190   180 	FNA=FILE_NAME,-
                                     0190   181 	FNS=NAME_SIZE,-
                                     0190   182 	MRS=50,-
                                     0190   183 	ORG=SEQ
                                     01E0   184 ;
                                     01E0   185 RAB:				; RAB FOR FILE "UETINIDEV.DAT"
                                     01E0   186 	$RAB-
                                     01E0   187 	FAB=FAB,-
                                     01E0   188 	MBF=1,-
                                     01E0   189 	RAC=SEQ,-
                                     01E0   190 	UBF=RECORD,-
                                     01E0   191 	USZ=48
                                     0224   192 ;
UETTAPE01       - VAX/VMS UETP TAPE EXERCISER                    22-AUG-1978 03:37:20   VAX-11 MACRO X0.3-11               Page   6
1.01            MAIN PROGRAM                                                                                                     (3)

                                     0224   194 	.SBTTL	MAIN PROGRAM
                                 00000000   195 	.PSECT	UETTAPE01,EXE,NOWRT,LONG
                                     0000   196 ;
                                     0000   197 DIE:
                 00000021'EF     D6  0000   198 	INCL	ERROR_CNT			; BUMP CUM. ERROR COUNT
            52            50     D0  0006   199 	MOVL	R0,R2				; SAVE ERROR CODE
                                     0009   200 	PUTMSG	<#UETP$_ERBOX,#1,ERROR_CNT,-
                                     0009   201 		R2,#UETP$_ATPC,#1,DIEARG>	; PRINT THE ERROR MESSAGE
                          037A   31  002E   202 	BRW	FINAL_EXIT			; EXIT IN DISGRACE
                                     0031   203 ;
                                     0031   204 FILE_ERR:
                               0FFC  0031   205 	.WORD	^M<R2,R3,R4,R5,R6,R7,R8,R9,R10,R11>
   00000000'8F   000001E8'EF     D1  0033   206 	CMPL	RAB+RAB$L_STS,#RMS$_EOF		; IS THIS THE END?
                          0E     13  003E   207 	BEQL	10$				; BR IF YES
   0000012D'EF            02     88  0040   208 	BISB2	#BIT1,IOSTAT			; RMS ERROR
                 00000021'EF     D6  0047   209 	INCL	ERROR_CNT			; BUMP THE ERROR COUNT
                                 04  004D   210 	RET					; RETURN
                                     004E   211 10$:
   0000012D'EF            01     88  004E   212 	BISB2	#BIT0,IOSTAT			; SET DEVICE NOT FOUND FLAG
                                 04  0055   213 	RET					; RETURN
                                     0056   214 ;
UETTAPE01       - VAX/VMS UETP TAPE EXERCISER                    22-AUG-1978 03:37:20   VAX-11 MACRO X0.3-11               Page   7
1.01            MAIN CODE                                                                                                        (3)

                                     0056   216 	.SBTTL	MAIN CODE
                                     0056   217 ;
                                     0056   218 ; THIS CODE CREATES LOGICAL NAMES FOR EACH TESTABLE MAGNETIC TAPE
                                     0056   219 ; UNIT ON A CONTROLLER.
                                     0056   220 ;
                                     0056   221 UETTAPE01::
                               0FFC  0056   222 	.WORD	^M<R2,R3,R4,R5,R6,R7,R8,R9,R10,R11> ;ENTRY MASK
                                     0058   223 	$TRNLOG_S	LOGNAM,STRLEN,FAO_BUF,,,#5 ; GET CONTROLLER NAME
                                     0077   224 	SERVCHEK			; CHECK FOR ERRORS
   00000000'8F            50     D1  0085   225 	CMPL	R0,#SS$_NOTRAN		; DOES THE CONTROLLER NAME EXIST?
                          0D     12  008C   226 	BNEQ	10$			; YES
   0000001D'EF         FE AF     DE  008E   227 	MOVAL	.,DIEARG		; GET THE ADDRESS OF THE ERROR
                          50     96  0096   228 	INCB	R0			; CHANGE SEVERITY TO ERROR
                          FF65   31  0098   229 	BRW	DIE			; PRINT ERROR AND DIE
                                     009B   230 10$:
   00000019'EF   0000002D'EF     D0  009B   231 	MOVL	FAO_BUFFER,CNTRL_NAME	; SAVE CONTROLLER NAME
       544D 8F   00000019'EF     B1  00A6   232 	CMPW	CNTRL_NAME,#^A/MT/	; IS THIS REALLY A MAGTAPE?
                          03     13  00AF   233 	BEQL	20$			; BR IF YES
                          0143   31  00B1   234 	BRW	ERROR_EXIT		; EXIT IN DISGUST!
                                     00B4   235 20$:
                                     00B4   236 	$SETPRN_S	PROCESS_NAME	; SET THE PROCESS NAME
                                     00C1   237 	SERVCHEK			; CHECK FOR ERRORS
                                     00CF   238 	$OPEN	FAB=FAB,ERR=FILE_ERR	; OPEN "UETINIDEV.DAT"
   0000012D'EF            02     93  00E0   239 	BITB	#BIT1,IOSTAT		; RMS FILE ERROR?
                          40     13  00E7   240 	BEQL	CON_RAB			; BR IF NOT
                                     00E9   241 ERMSG1:
                                     00E9   242 	PUTMSG	<#UETP$_ERBOX,#1,ERROR_CNT,-
                                     00E9   243 		#UETP$_OPENIN,#1,#FILE_NAME_STR> ; PRINT ERROR MESSAGE
                                     010C   244 	$DISCONNECT RAB=RAB		; CLOSE "UETINIDEV.DAT"
                                     0119   245 	$CLOSE FAB=FAB
                          0282   31  0126   246 	BRW	FINAL_EXIT		; EXIT
                                     0129   247 CON_RAB:
                                     0129   248 	$CONNECT RAB=RAB,ERR=FILE_ERR	; CONNECT THE RAB & FAB
   0000012D'EF            02     93  013A   249 	BITB	#BIT1,IOSTAT		; RMS FILE ERROR?
                          03     13  0141   250 	BEQL	FIND_MT			; BR IF NOT
                          FFA3   31  0143   251 	BRW	ERMSG1			; ELSE ERROR
                                     0146   252 FIND_MT:
                                     0146   253 	$GET	RAB=RAB,ERR=FILE_ERR	; GET THE FIRST RECORD
   0000012D'EF            02     93  0157   254 	BITB	#BIT1,IOSTAT		; RMS FILE ERROR?
                          03     13  015E   255 	BEQL	10$			; BR IF NO
                          FF86   31  0160   256 	BRW	ERMSG1			; PRINT ERROR
                                     0163   257 10$:
   0000012D'EF            01     93  0163   258 	BITB	#BIT0,IOSTAT		; EOF?
                          03     13  016A   259 	BEQL	20$			; BR IF NO
                          00C4   31  016C   260 	BRW	DEVNF			; DEVICE NOT FOUND
                                     016F   261 20$:
   00000152'EF            01     93  016F   262 	BITB	#BIT0,RECORD+4		; IS THIS A DDB?
                          CE     12  0176   263 	BNEQ	FIND_MT			; GO ON IF NOT
   00000154'EF            03     29  0178   264 	CMPC	#3,RECORD+6,CNTRL_NAME	; IS THIS THE RIGHT CONTROLLER?
                 00000019'EF         017F
                          C0     12  0184   265 	BNEQ	FIND_MT			; BR IF NOT
   00000154'EF            03     28  0186   266 	MOVC3	#3,RECORD+6,UNIT	; GET THE CONTROLLER
                 0000018C'EF         018D
                                     0192   267 FOUND_MT:
                                     0192   268 	$GET	RAB=RAB,ERR=FILE_ERR	; GET A RECORD
   0000012D'EF            02     93  01A3   269 	BITB	#BIT1,IOSTAT		; RMS FILE ERROR?
                          03     13  01AA   270 	BEQL	10$			; BR IF NOT
UETTAPE01       - VAX/VMS UETP TAPE EXERCISER                    22-AUG-1978 03:37:20   VAX-11 MACRO X0.3-11               Page   8
1.01            MAIN CODE                                                                                                        (3)

                          FF3A   31  01AC   271 	BRW	ERMSG1			; REPORT ERROR AND EXIT
                                     01AF   272 10$:
   0000012D'EF            01     93  01AF   273 	BITB	#BIT0,IOSTAT		; END OF THE FILE?
                          03     13  01B6   274 	BEQL	20$			; BR IF NO
                          0104   31  01B8   275 	BRW	ALL_SET			; FOUND A DDB
                                     01BB   276 20$:
   00000152'EF            01     93  01BB   277 	BITB	#BIT0,RECORD+4		; IS THIS A DDB?
                          03     12  01C2   278 	BNEQ	30$			; BR IF NO
                          00F8   31  01C4   279 	BRW	ALL_SET			; FOUND DDB
                                     01C7   280 30$:
   00000152'EF            02     93  01C7   281 	BITB	#BIT1,RECORD+4		; IS THE UNIT TESTABLE?
                          03     13  01CE   282 	BEQL	40$			; BR IF YES
                          FFBF   31  01D0   283 	BRW	FOUND_MT		; DO THE NEXT ONE
                                     01D3   284 40$:
            59   00000156'EF     9A  01D3   285 	MOVZBL	RECORD+8,R9		; GET THE UNIT NUMBER
            59            30     C2  01DA   286 	SUBL2	#^A/0/,R9		; CONVERT TO BINARY
   0000018F'EF   00000156'EF     90  01DD   287 	MOVB	RECORD+8,UNIT+3
   0000012E'EF49 0000018C'EF     D0  01E8   288 	MOVL	UNIT,MTAPE0[R9]		; PUT DEVICE NAME IN TABLE
                          FF9B   31  01F4   289 	BRW	FOUND_MT		; FIND ANOTHER UCB
                                     01F7   290 ERROR_EXIT:
                 00000021'EF     D6  01F7   291 	INCL	ERROR_CNT			; INC. CUM. ERROR COUNT
                                     01FD   292 	PUTMSG	<#UETP$_ERBOX,#1,ERROR_CNT,-
                                     01FD   293 		 #UETP$_TEXT,#1,#NOMORDEV,-
                                     01FD   294 		 #UETP$_ABENDD,#2,#TSTNAM,#0>	; PRINT EXIT MESSAGE
                          0178   31  0230   295 	BRW	FINAL_EXIT					; EXIT
                                     0233   296 DEVNF:
                 00000021'EF     D6  0233   297 	INCL	ERROR_CNT		; BUMP CUM. ERROR COUNT
                                     0239   298 	PUTMSG	<#UETP$_ERBOX,#1,ERROR_CNT,-
                                     0239   299 		#UETP$_DENOSU-1,#2,#TSTNAM,#CNTRL_NAME_STR> ; PRINT ERROR MESSAGE
                                     0262   300 	$DISCONNECT RAB=RAB,ERR=FILE_ERR ; CLOSE "UETINIDEV.DAT"
   0000012D'EF            02     93  0273   301 	BITB	#BIT1,IOSTAT		; CHECK FOR RMS FILE ERROR
                          1D     12  027A   302 	BNEQ	CLOSE_ERR		; BRANCH IF YES
                                     027C   303 	$CLOSE	FAB=FAB,ERR=FILE_ERR
   0000012D'EF            02     93  028D   304 	BITB	#BIT1,IOSTAT		; CHECK FOR RMS FILE ERROR
                          03     12  0294   305 	BNEQ	CLOSE_ERR		; BRANCH IF YES
                          0112   31  0296   306 	BRW	FINAL_EXIT				; EXIT
                                     0299   307 CLOSE_ERR:
                                     0299   308 	PUTMSG	<#UETP$_ERBOX,#1,ERROR_CNT,-
                                     0299   309 		#UETP$_CLOSEIN,#1,#FILE_NAME_STR> ; PRINT ERROR MESSAGE
                          00EC   31  02BC   310 	BRW	FINAL_EXIT				; EXIT
                                     02BF   311 ALL_SET:
                                     02BF   312 	$DISCONNECT RAB=RAB,ERR=FILE_ERR ; CLOSE FILE "UETINIDEV.DAT"
   0000012D'EF            02     93  02D0   313 	BITB	#BIT1,IOSTAT		; CHECK FOR RMS FILE ERROR
                          C0     12  02D7   314 	BNEQ	CLOSE_ERR		; BRANCH IF YES
                                     02D9   315 	$CLOSE	FAB=FAB,ERR=FILE_ERR
   0000012D'EF            02     93  02EA   316 	BITB	#BIT1,IOSTAT		; CHECK FOR RMS FILE ERROR
                          A6     12  02F1   317 	BNEQ	CLOSE_ERR		; BRANCH IF YES
                                     02F3   318 	$CRELOG_S #1,LOGNAM0,MAGTAPE0	; LOGICAL NAME FOR UNIT 0
                                     030A   319 	$CRELOG_S #1,LOGNAM1,MAGTAPE1	; LOGICAL NAME FOR UNIT 1
                                     0321   320 	$CRELOG_S #1,LOGNAM2,MAGTAPE2	; LOGICAL NAME FOR UNIT 2
                                     0338   321 	$CRELOG_S #1,LOGNAM3,MAGTAPE3	; LOGICAL NAME FOR UNIT 3
                                     034F   322 	$CRELOG_S #1,LOGNAM4,MAGTAPE4	; LOGICAL NAME FOR UNIT 4
                                     0366   323 	$CRELOG_S #1,LOGNAM5,MAGTAPE5	; LOGICAL NAME FOR UNIT 5
                                     037D   324 	$CRELOG_S #1,LOGNAM6,MAGTAPE6	; LOGICAL NAME FOR UNIT 6
                                     0394   325 	$CRELOG_S #1,LOGNAM7,MAGTAPE7	; LOGICAL NAME FOR UNIT 7
                                     03AB   326 FINAL_EXIT:
                                     03AB   327 	$EXIT_S				; EXIT PROGRAM
UETTAPE01       - VAX/VMS UETP TAPE EXERCISER                    22-AUG-1978 03:37:20   VAX-11 MACRO X0.3-11               Page   9
1.01            MAIN CODE                                                                                                        (3)

                                     03B4   328 	.END	UETTAPE01
UETTAPE01       - VAX/VMS UETP TAPE EXERCISER                    22-AUG-1978 03:37:20   VAX-11 MACRO X0.3-11               Page  10
SYMBOL TABLE                                                                                                                     (3)

$$$CHARS       = 00000009            FAB$L_NAM        00000028            FAB$S_PPF_RAT  = 00000008
$$$STRINGS     = 00000000            FAB$L_SDC        00000044            FAB$V_BIO      = 00000005
$$.TAB         = 000001E0 R     03   FAB$L_STS        00000008            FAB$V_BLK      = 00000003
$$.TABEND      = 00000224 R     03   FAB$L_STV        0000000C            FAB$V_BRO      = 00000006
$$.TMP         = 00000000            FAB$L_XAB        00000024            FAB$V_CBT      = 00000015
$$.TMP1        = 00000002            FAB$M_BIO      = 00000020            FAB$V_CIF      = 00000019
$$.TMP2        = 000000EF            FAB$M_BLK      = 00000008            FAB$V_CR       = 00000001
$$T1           = 00000006            FAB$M_BRO      = 00000040            FAB$V_CTG      = 00000014
ALL_SET          000002BF R     05   FAB$M_CBT      = 00200000            FAB$V_DEL      = 00000002
BIT...         = 00000020            FAB$M_CIF      = 02000000            FAB$V_DFW      = 00000005
BIT0           = 00000001            FAB$M_CR       = 00000002            FAB$V_DLT      = 0000000F
BIT1           = 00000002            FAB$M_CTG      = 00100000            FAB$V_DMO      = 0000000C
CLOSE_ERR        00000299 R     05   FAB$M_DEL      = 00000004            FAB$V_ESC      = 0000001B
CNTRLCMSG        00000000 R     02   FAB$M_DFW      = 00000020            FAB$V_EXE      = 00000007
CNTRL_NAME       00000019 R     03   FAB$M_DLT      = 00008000            FAB$V_FTN      = 00000000
CNTRL_NAME_STR   00000000 R     03   FAB$M_DMO      = 00001000            FAB$V_GET      = 00000001
CON_RAB          00000129 R     05   FAB$M_ESC      = 08000000            FAB$V_INP      = 00000013
DEVNF            00000233 R     05   FAB$M_EXE      = 00000080            FAB$V_JNL      = 00000016
DIE              00000000 R     05   FAB$M_FTN      = 00000001            FAB$V_KFO      = 0000001E
DIEARG           0000001D R     03   FAB$M_GET      = 00000002            FAB$V_MSE      = 00000004
ERMSG1           000000E9 R     05   FAB$M_INP      = 00080000            FAB$V_MXV      = 00000001
ERROR_CNT        00000021 R     03   FAB$M_JNL      = 00400000            FAB$V_NAM      = 00000018
ERROR_EXIT       000001F7 R     05   FAB$M_KFO      = 40000000            FAB$V_NEF      = 0000000A
FAB              00000190 R     03   FAB$M_MSE      = 00000010            FAB$V_NFS      = 00000010
FAB$B_BID        00000000            FAB$M_MXV      = 00000002            FAB$V_NIL      = 00000005
FAB$B_BKS        0000003E            FAB$M_NAM      = 01000000            FAB$V_OFP      = 0000001D
FAB$B_BLN        00000001            FAB$M_NEF      = 00000400            FAB$V_ORG      = 00000004
FAB$B_DNS        00000035            FAB$M_NFS      = 00010000            FAB$V_POS      = 00000008
FAB$B_FAC        00000016            FAB$M_NIL      = 00000020            FAB$V_PPF      = 00000012
FAB$B_FNS        00000034            FAB$M_OFP      = 20000000            FAB$V_PPF_IND  = 0000000E
FAB$B_FSZ        0000003F            FAB$M_POS      = 00000100            FAB$V_PPF_RAT  = 00000006
FAB$B_ORG        0000001D            FAB$M_PPF      = 00040000            FAB$V_PRN      = 00000002
FAB$B_RAT        0000001E            FAB$M_PPF_IND  = 00004000            FAB$V_PUT      = 00000000
FAB$B_RFM        0000001F            FAB$M_PPF_RAT  = 00003FC0            FAB$V_RCK      = 00000017
FAB$B_RTV        0000001C            FAB$M_PRN      = 00000004            FAB$V_RWC      = 0000000B
FAB$B_SHR        00000017            FAB$M_PUT      = 00000001            FAB$V_RWO      = 00000007
FAB$C_BID      = 00000003            FAB$M_RCK      = 00800000            FAB$V_SCF      = 0000000E
FAB$C_BLN        00000050            FAB$M_RWC      = 00000800            FAB$V_SHRDEL   = 00000002
FAB$C_FIX      = 00000001            FAB$M_RWO      = 00000080            FAB$V_SHRGET   = 00000001
FAB$C_HSH      = 00000030            FAB$M_SCF      = 00004000            FAB$V_SHRPUT   = 00000000
FAB$C_IDX      = 00000020            FAB$M_SHRDEL   = 00000004            FAB$V_SHRUPD   = 00000003
FAB$C_MAXRFM   = 00000003            FAB$M_SHRGET   = 00000002            FAB$V_SPL      = 0000000D
FAB$C_REL      = 00000010            FAB$M_SHRPUT   = 00000001            FAB$V_SQO      = 00000006
FAB$C_RFM_DFLT = 00000002            FAB$M_SHRUPD   = 00000008            FAB$V_SUP      = 00000002
FAB$C_SEQ      = 00000000            FAB$M_SPL      = 00002000            FAB$V_TEF      = 0000001C
FAB$C_UDF      = 00000000            FAB$M_SQO      = 00000040            FAB$V_TMD      = 00000004
FAB$C_VAR      = 00000002            FAB$M_SUP      = 00000004            FAB$V_TMP      = 00000003
FAB$C_VFC      = 00000003            FAB$M_TEF      = 10000000            FAB$V_TRN      = 00000004
FAB$K_BLN        00000050            FAB$M_TMD      = 00000010            FAB$V_UFM      = 0000001A
FAB$L_ALQ        00000010            FAB$M_TMP      = 00000008            FAB$V_UFO      = 00000011
FAB$L_CTX        00000018            FAB$M_TRN      = 00000010            FAB$V_UPD      = 00000003
FAB$L_DEV        00000040            FAB$M_UFM      = 04000000            FAB$V_UPI      = 00000006
FAB$L_DNA        00000030            FAB$M_UFO      = 00020000            FAB$V_WCK      = 00000009
FAB$L_FNA        0000002C            FAB$M_UPD      = 00000008            FAB$W_BLS        0000003C
FAB$L_FOP        00000004            FAB$M_UPI      = 00000040            FAB$W_DEQ        00000014
FAB$L_JNL        00000020            FAB$M_WCK      = 00000200            FAB$W_IFI        00000002
FAB$L_MRN        00000038            FAB$S_ORG      = 00000004            FAB$W_MRS        00000036
UETTAPE01       - VAX/VMS UETP TAPE EXERCISER                    22-AUG-1978 03:37:20   VAX-11 MACRO X0.3-11               Page  11
SYMBOL TABLE                                                                                                                     (3)

FAO_BUF          00000025 R     03   RAB$C_RFA      = 00000002            RAB$V_LOC      = 00000010
FAO_BUFFER       0000002D R     03   RAB$C_SEQ      = 00000000            RAB$V_MAS      = 00000005
FAO_BUFL       = 00000100            RAB$K_BLN        00000044            RAB$V_NLK      = 00000014
FILE_ERR         00000031 R     05   RAB$L_BKT        00000038            RAB$V_NXR      = 00000017
FILE_NAME        0000002C R     02   RAB$L_CTX        00000018            RAB$V_PMT      = 0000001E
FILE_NAME_STR    00000024 R     02   RAB$L_DCT        00000038            RAB$V_PPF_IND  = 0000000E
FINAL_EXIT       000003AB R     05   RAB$L_FAB        0000003C            RAB$V_PPF_RAT  = 00000006
FIND_MT          00000146 R     05   RAB$L_KBF        00000030            RAB$V_PTA      = 0000001D
FOUND_MT         00000192 R     05   RAB$L_PBF        00000030            RAB$V_RAH      = 00000009
GBL...         = 00000000            RAB$L_RBF        00000028            RAB$V_RLK      = 00000013
IOSTAT           0000012D R     03   RAB$L_RFA0       00000010            RAB$V_RNE      = 00000018
LIB$SIGNAL       ********   X   05   RAB$L_RHB        0000002C            RAB$V_RNF      = 0000001B
LOGNAM           00000039 R     02   RAB$L_ROP        00000004            RAB$V_TMO      = 00000019
LOGNAM0          0000004E R     02   RAB$L_STS        00000008            RAB$V_TPT      = 00000001
LOGNAM1          0000005B R     02   RAB$L_STV        0000000C            RAB$V_UIF      = 00000004
LOGNAM2          00000068 R     02   RAB$L_UBF        00000024            RAB$V_ULK      = 00000012
LOGNAM3          00000075 R     02   RAB$M_ASY      = 00000001            RAB$V_WAT      = 00000011
LOGNAM4          00000082 R     02   RAB$M_BIO      = 00000800            RAB$V_WBH      = 0000000A
LOGNAM5          0000008F R     02   RAB$M_CCO      = 80000000            RAB$W_ISI        00000002
LOGNAM6          0000009C R     02   RAB$M_CVT      = 04000000            RAB$W_RFA        00000010
LOGNAM7          000000A9 R     02   RAB$M_EOF      = 00000100            RAB$W_RFA4       00000014
MAGTAPE0         000000B6 R     02   RAB$M_FDL      = 00000040            RAB$W_RSZ        00000022
MAGTAPE1         000000BE R     02   RAB$M_HSH      = 00000080            RAB$W_USZ        00000020
MAGTAPE2         000000C6 R     02   RAB$M_KGE      = 00200000            RECORD           0000014E R     03
MAGTAPE3         000000CE R     02   RAB$M_KGT      = 00400000            RMS$_EOF         ********   X   05
MAGTAPE4         000000D6 R     02   RAB$M_LIM      = 00004000            RMS_ERR_STS      00000180 R     03
MAGTAPE5         000000DE R     02   RAB$M_LOA      = 00002000            RMS_ERR_STV      00000184 R     03
MAGTAPE6         000000E6 R     02   RAB$M_LOC      = 00010000            SS$_NOTRAN       ********   X   05
MAGTAPE7         000000EE R     02   RAB$M_MAS      = 00000020            STRLEN           00000188 R     03
MTAPE0           0000012E R     03   RAB$M_NLK      = 00100000            SYS$CLOSE        ********  GX   05
MTAPE1           00000132 R     03   RAB$M_NXR      = 00800000            SYS$CONNECT      ********  GX   05
MTAPE2           00000136 R     03   RAB$M_PMT      = 40000000            SYS$CRELOG       ********   X   05
MTAPE3           0000013A R     03   RAB$M_PPF_IND  = 00004000            SYS$DISCONNECT   ********  GX   05
MTAPE4           0000013E R     03   RAB$M_PPF_RAT  = 00003FC0            SYS$EXIT         ********   X   05
MTAPE5           00000142 R     03   RAB$M_PTA      = 20000000            SYS$GET          ********  GX   05
MTAPE6           00000146 R     03   RAB$M_RAH      = 00000200            SYS$OPEN         ********  GX   05
MTAPE7           0000014A R     03   RAB$M_RLK      = 00080000            SYS$SETPRN       ********   X   05
NAME_SIZE      = 0000000D            RAB$M_RNE      = 01000000            SYS$TRNLOG       ********   X   05
NOMORDEV         000000F6 R     02   RAB$M_RNF      = 08000000            TSTNAM           00000114 R     02
PNL            = 0000000C            RAB$M_TMO      = 02000000            UETP$_ABENDD     ********   X   05
PROCESS_NAME     00000008 R     03   RAB$M_TPT      = 00000002            UETP$_ATPC       ********   X   05
RAB              000001E0 R     03   RAB$M_UIF      = 00000010            UETP$_CLOSEIN    ********   X   05
RAB$B_BID        00000000            RAB$M_ULK      = 00040000            UETP$_DENOSU     ********   X   05
RAB$B_BLN        00000001            RAB$M_WAT      = 00020000            UETP$_ERBOX      ********   X   05
RAB$B_KRF        00000035            RAB$M_WBH      = 00000400            UETP$_OPENIN     ********   X   05
RAB$B_KSZ        00000034            RAB$S_PPF_RAT  = 00000008            UETP$_TEXT       ********   X   05
RAB$B_MBC        00000037            RAB$V_ASY      = 00000000            UETTAPE01        00000056 RG    05
RAB$B_MBF        00000036            RAB$V_BIO      = 0000000B            UNIT             0000018C R     03
RAB$B_PSZ        00000034            RAB$V_CCO      = 0000001F
RAB$B_RAC        0000001E            RAB$V_CVT      = 0000001A
RAB$B_ROP1       00000005            RAB$V_EOF      = 00000008
RAB$B_ROP2       00000006            RAB$V_FDL      = 00000006
RAB$B_ROP3       00000007            RAB$V_HSH      = 00000007
RAB$B_TMO        0000001F            RAB$V_KGE      = 00000015
RAB$C_BID      = 00000001            RAB$V_KGT      = 00000016
RAB$C_BLN        00000044            RAB$V_LIM      = 0000000E
RAB$C_KEY      = 00000001            RAB$V_LOA      = 0000000D
UETTAPE01       - VAX/VMS UETP TAPE EXERCISER                    22-AUG-1978 03:37:20   VAX-11 MACRO X0.3-11               Page  12
PROGRAM SECTION SYNOPSIS                                                                                                         (3)


PROGRAM SECTION SYNOPSIS

.  ABS  .        00000000      00     NOPIC   USR   CON   ABS   LCL NOSHR NOEXE NORD  NOWRT BYTE
. BLANK .        00000000      01     NOPIC   USR   CON   REL   LCL NOSHR   EXE   RD    WRT BYTE
RODATA           00000125      02     NOPIC   USR   CON   REL   LCL NOSHR NOEXE   RD  NOWRT LONG
RWDATA           00000224      03     NOPIC   USR   CON   REL   LCL NOSHR NOEXE   RD    WRT LONG
$ABS$            00000050      04     NOPIC   USR   CON   ABS   LCL NOSHR   EXE   RD    WRT BYTE
UETTAPE01        000003B4      05     NOPIC   USR   CON   REL   LCL NOSHR   EXE   RD  NOWRT LONG


THERE WERE NO ERRORS OR WARNINGS.
11948. BYTES LEFT IN FREE MEMORY POOL.
1098. BYTES OF RECLAIMED MEMORY.
OBJ$:UETTAPE01,LIS$:UETTAPE01/-SP=SRC$:UETPLIBS,UETTAPE01
66 MLB DIR RDS - 658 GETS TO DEFINE 36 MACROS. 56 INTER. FILE WRITES.
