RTBIO	MACRO M1110  21-AUG-78 23:24  PAGE 2


      1						.TITLE	RTBIO
      2						.IDENT	/00/
      3
      4					;
      5					; COPYRIGHT   1978,  DIGITAL  EQUIPMENT  CORP.,  MAYNARD,   MASS.
      6					;
      7					; THIS SOFTWARE IS FURNISHED TO PURCHASER UNDER A LICENSE FOR USE
      8					; ON A SINGLE COMPUTER SYSTEM  AND  CAN BE COPIED (WITH INCLUSION
      9					; OF DEC'S COPYRIGHT NOTICE)  ONLY FOR USE IN SUCH SYSTEM, EXCEPT
     10					; AS MAY OTHERWISE BE PROVIDED IN WRITING BY DEC.
     11					;
     12					; THE INFORMATION IN  THIS DOCUMENT IS  SUBJECT TO CHANGE WITHOUT
     13					; NOTICE AND SHOULD NOT  BE CONSTRUED AS  A COMMITMENT BY DIGITAL
     14					; EQUIPMENT CORPORATION.
     15					;
     16					; DEC ASSUMES  NO  RESPONSIBILITY  FOR  THE  USE  OR  RELIABILITY
     17					; OF ITS  SOFTWARE  ON  EQUIPMENT  WHICH IS NOT  SUPPLIED BY DEC.
     18					;
     19					; VERSION 00
     20					;
     21					; C. MONIA 23-MAR-1978
     22					;
     23					; RTB I/O DATA BASE
     24					;
     25					; MACRO LIBRARY CALLS
     26					;
     27
     28						.MCALL	CSI$ND,CSI$SV,CSI$SW
     29						.MCALL	FDAT$A,FDBDF$,FDBK$A,FDOP$A,FDRC$A,FSRSZ$
     30						.MCALL	GCMLB$,NMBLK$
     31
     32					;
     33					; EQUATED SYMBOLS
     34					;
     35					; NONE
     36					;
     37					; LOCAL DATA
     38					;
     39
     40	000000					.PSECT
     41
     42					;
     43					; FCS BLOCK BUFFERS
     44					;
     45
     46	000000					FSRSZ$	1		;
     47
     48	000000					.PSECT
     49
     50					;
     51					; COMMAND LINE BUFFER
     52					;
     53
     54	000000					.PSECT	$$LNBF,D,GBL
     55
     56	000000				$LNBUF::.BLKB	82.		;
     57
RTBIO	MACRO M1110  21-AUG-78 23:24  PAGE 2-1


     58					;
     59					; LINE BUFFER DESCRIPTOR
     60					;
     61
     62	000000					.PSECT	$$LNDS,D,GBL
     63
     64	000000				$LNDES::.BLKW	2		;
     65
     66					;
     67					; RTB COMMAND LINE GCML CONTROL BLOCK
     68					;
     69
     70	000000					.PSECT
     71
     72	000000				$CMD::	GCMLB$	2,XXX,$LNBUF	;
     73
     74					;
     75					; STATUS BLOCKS
     76					;
     77
     78	000306				INSTS:	.BLKW	2		; INPUT FILE I/O STATUS BLOCK
     79	000312				OUSTS:	.BLKW	2		; OUTPUT FILE I/O STATUS BLOCK
     80
     81					;
     82					; RTB INPUT FILE FDB
     83					;
     84
     85	000316				$INFDB::FDBDF$			;
     86	000456					FDRC$A	FD.RWM		; OPEN FILE IN READ$/WRITE$ RANDOM ACCESS MODE
     87	000456					FDBK$A	,512.,,,INSTS	; INITIALIZE FOR BLOCK I/O
     88	000456					FDOP$A	3,,$INNB	;
     89
     90					;
     91					; RTB OUTPUT FILE FDB
     92					;
     93
     94	000456				$OUFDB::FDBDF$			;
     95	000616					FDBK$A	,512.,,,OUSTS	; INITIALIZE FOR BLOCK I/O
     96	000616					FDOP$A	4,,$DFNB	;
     97
     98					;
     99					; DEFAULT OUTPUT FILE NAME BLOCK
    100					;
    101
    102	000616				$DFNB::	NMBLK$	,,,DX		;
    103
    104					;
    105					; DEFAULT INPUT FILE NAME BLOCK
    106					;
    107
    108	000654				$INNB::	NMBLK$	,SYS,,TR	;
    109
    110		000001 				.END
RTBIO	MACRO M1110  21-AUG-78 23:24  PAGE 2-2
SYMBOL TABLE

CR    = 000015   	F.EFN = 000050   	F.SEQN= 000100   	G.ERR = 000140   	S.FATT= 000016
FD.CCL= ****** GX	F.EOBB= 000032   	F.SPDV= 000072   	G.ISIZ= 000020   	S.FDB = 000140
FD.REC= ****** GX	F.ERR = 000052   	F.SPUN= 000074   	G.LPDL= 000060   	S.FNAM= 000006
FD.RWM= ****** GX	F.FACC= 000043   	F.STBK= 000036   	G.MODE= 000141   	S.FNB = 000036
FD.TTY= ****** GX	F.FFBY= 000014   	F.UNIT= 000136   	G.PSDS= 000142   	S.FNBW= 000017
FF    = 000014   	F.FNAM= 000110   	F.URBD= 000020   	G.SIZE= 000224   	S.FNTY= 000004
F.ACTL= 000076   	F.FNB = 000102   	F.VBN = 000064   	HT    = 000011   	S.FTYP= 000002
F.ALOC= 000040   	F.FTYP= 000116   	F.VBSZ= 000060   	INSTS   000306R  	S.NFEN= 000020
F.BBFS= 000062   	F.FVER= 000120   	GE.BIF= 177775   	LF    = 000012   	VT    = 000013
F.BDB = 000070   	F.HIBK= 000004   	GE.CLO= 000004   	N.DID = 000024   	$CMD    000000RG
F.BGBC= 000057   	F.LUN = 000042   	GE.COM= 000001   	N.DVNM= 000032   	$DFNB   000616RG
F.BKDN= 000026   	F.MBCT= 000054   	GE.CON= 000020   	N.FID = 000000   	$INFDB  000316RG
F.BKDS= 000020   	F.MBC1= 000055   	GE.EOF= 177766   	N.FNAM= 000006   	$INNB   000654RG
F.BKEF= 000050   	F.MBFG= 000056   	GE.IND= 000002   	N.FTYP= 000014   	$LNBUF  000000RG    003
F.BKP1= 000051   	F.NRBD= 000024   	GE.IOR= 177777   	N.FVER= 000016   	$LNDES  000000RG    004
F.BKST= 000024   	F.NREC= 000030   	GE.LC = 000010   	N.NEXT= 000022   	$OUFDB  000456RG
F.BKVB= 000064   	F.OVBS= 000030   	GE.MDE= 177774   	N.STAT= 000020   	$$$   = 000160R
F.CHR = 000075   	F.RACC= 000016   	GE.OPR= 177776   	N.UNIT= 000034   	.FSRCB= ****** G
F.CNTG= 000034   	F.RATT= 000001   	GE.RBG= 177730   	OUSTS   000312R  	...PC1= 000456R
F.DFNB= 000046   	F.RCNM= 000034   	GE.SIZ= 000040   	R$$11M= 000000   	...PC2= 000670R
F.DSPT= 000044   	F.RCTL= 000017   	G.CMLD= 000146   	SPA   = 000040   	...PC3= 000456R
F.DVNM= 000134   	F.RSIZ= 000002   	G.DPRM= 000160   	S.BFHD= 000020   	...TPC= 000140
F.EFBK= 000010   	F.RTYP= 000000

. ABS.	000000	   000
      	000712	   001
$$FSR1	001020	   002
$$LNBF	000122	   003
$$LNDS	000004	   004
ERRORS DETECTED:  0

VIRTUAL MEMORY USED:  4372 WORDS  ( 18 PAGES)
DYNAMIC MEMORY:  5940 WORDS  ( 22 PAGES)
ELAPSED TIME:  00:00:29
OBJ$:RTBIO,LIS$:RTBIO/-SP=SRC$:MACFLM,RTBIO
