PARSE 0104MS, PARSE THE FILE NA	MACRO M1110  22-AUG-78 01:23  PAGE 7


      1						.TITLE	PARSE 0104MS, PARSE THE FILE NAME
						.IDENT	/0104MS/
      2					; ALTERED:
      3					; ANDREW C. GOLDSTEIN  8-SEP-77  14:07
      4					; ALTERED MONDAY 25-FEB-74 12:55
      5					; ALTERED FRIDAY 28-JUN-74  4:00	SHAO-SUN CHIEN
      6					;
      7					; COPYRIGHT (C) 1975, DIGITAL EQUIPMENT CORP., MAYNARD MASS.
      8					; COPYRIGHT (C) 1973, DIGITAL EQUIPMENT CORP., MAYNARD MASS.
      9					; COPYRIGHT 1974, DIGITAL EQUIPMENT CORP., MAYNARD MASS.
     10
     11					; THIS SOFTWARE IS FURNISHED TO PURCHASER UNDER A LICENSE FOR USE
     12					; ON A SINGLE COMPUTER SYSTEM AND CAN BE COPIED (WITH INCLUSION
     13					; OF DEC'S COPYRIGHT NOTICE) ONLY FOR USE IN SUCH SYSTEM, EXCEPT
     14					; AS MAY OTHERWISE BE PROVIDED IN WRITING BY DEC.
     15
     16					; THE INFORMATION IN THIS DOCUMENT IS SUBJECT TO CHANGE WITHOUT
     17					; NOTICE AND SHOULD NOT BE CONSTRUED AS A COMMITMENT BY DIGITAL
     18					; EQUIPMENT CORPORATION.
     19
     20					; DEC ASSUMES NO RESPONSIBILITY FOR THE USE OR RELIABILITY
     21					; OF ITS SOFTWARE ON EQUIPMENT WHICH IS NOT SUPPLIED BY DEC.
     22					;
     23					; PETER H. LIPMAN 16-AUG-73
     24					;
     25					;+
     26					; SET UP FILE NAME BLOCK BY PARSING IF NECESSARY OR BY
     27					; ASSIGNING THE LUN IF THE FILE ID IS SET UP
     28					; CALLING SEQUENCE:
     29					;	CALL	..STFN
     30					; INPUTS:
     31					;	R0=FDB
     32					;OUTPUTS:
     33					;	R1=FILE NAME BLOCK ADDRESS
     34					;	R0 PRESERVED, R2-R5 DESTROYED
     35					;-
     36	000000	010001 			..STFN::MOV	R0,R1
     37	000002	062701 	000102 			ADD	#F.FNB,R1	;FORM R1=ADDRESS OF FILE NAME BLOCK
     38	000006	005711 				TST	@R1		;IS FILE ID ALREADY SET UP
     39	000010	001406 				BEQ	10$		;BRANCH IF NO
     40	000012	005760 	000070 			TST	F.BDB(R0)	;IF FILE IS ALREADY OPEN
     41	000016	001002 				BNE	5$		;SKIP THE ASSIGN LUN
     42	000020					CALL	..ALUN		;ASSIGN THE LUN ANYWAY
     43	000024				5$:	RETURN
     44					; FILE ID NOT SET UP, DO THE PARSE
     45	000026	016002 	000044 		10$:	MOV	F.DSPT(R0),R2
     46	000032	016003 	000046 			MOV	F.DFNB(R0),R3
     47	000036	000405 				BR	..PARS
PARSE 0104MS, PARSE THE FILE NA	MACRO M1110  22-AUG-78 01:23  PAGE 8


     49					;+
     50					; PARSE ROUTINE - ACCEPTS ADDRESS OF DEVICE, DIRECTORY, AND
     51					; FILE NAME DESCRIPTORS
     52					;
     53					; CALLING SEQUENCE
     54					;	CALL	..PARS
     55					; INPUTS:
     56					;	R0=FDB ADDRESS
     57					;	R1=ADDRESS OF FILE NAME BLOCK
     58					;	R2=POINTER TO DEV, DIR, AND NAME DESCRIPTORS
     59					;	R3=DEFAULT FILE NAME BLOCK OR ZERO IF NONE SPECIFIED
     60					; OUTPUTS:
     61					;	R0,R1 PRESERVED
     62					;	R2-R5 ALTERED
     63					;	C=0 FOR SUCCESSFUL PARSE
     64					;	C=1 FOR FAILURE IN PARSE, F.ERR SET TO REASON.
     65					; OPERATION:
     66					;	FILLS IN THE FILE NAME BLOCK FROM THE STRING AND FILLS IN
     67					; UNSPECIFIED FIELDS FROM THE DEFAULT FILE NAME BLOCK, IF PRESENT.
     68					; ALSO ASSIGNS THE LUN TO THE SPECIFIED DEVICE
     69					;
     70					; ALTERNATE ENTRY POINT:
     71					;	CALL	.PARSE
     72					; OPERATION:
     73					;	SAME AS ..PARS, EXCEPT IT PRESERVES ALL REGISTERS.  THIS ENTRY IS
     74					; INTENDED FOR THE USER LEVEL CALL.
     75					;
     76					;-
     77	000040				.PARSE::.SAVR1			;SAVE REGISTERS R1-R5
     78	000044	012760 	000001 	000052 		MOV	#1,F.ERR(R0)
     79	000052				..PARS::CALL	..ELP0		;ATTEMPT SYSTEM PARSE DIRECTIVE
     80	000056	103415 				BCS	20$		;BRANCH IF ERROR
     81	000060	001404 				BEQ	10$		;BRANCH IF DIRECTIVE NOT SUPPORTED
     82	000062					CALL	..DFDI		;SUCCESS - APPLY DEFAULT DID FROM DFNB
     83	000066	000241 				CLC
     84	000070	000410 				BR	20$
     85
     86	000072				10$:	CALL	..PSDV		;PARSE THE DEVICE NAME
     87	000076	103405 				BCS	20$
     88						.IF	EQ,R$$SPL-1	;CONDITIONAL FOR SPOOLING
     89						BITB	#FD.SPL,F.BKP1(R0);IF SPOOLING IS ENABLED
     90						BNE	20$		;SIMPLY EXIT BECAUSE FULL FILE SPEC
     91						.ENDC			;HAS BEEN SUPPLIED BY ASSLUN ROUTINE
     92	000100					CALL	..PSDI		;PARSE THE DIRECTORY NAME
     93	000104	103402 				BCS	20$
     94	000106					CALL	..PSFN		;PARSE THE FILE NAME DESCRIPTOR
     95	000112				20$:	RETURN
     96					;
     97					;
     98	000114					$END	PARSE
     99					;
    100		000001 				.END
PARSE 0104MS, PARSE THE FILE NA	MACRO M1110  22-AUG-78 01:23  PAGE 8-1
SYMBOL TABLE

A.BFSR= 000004   	FD.RAN= 000002   	F.RCTL= 000017   	IE.FIX= 177767   	IE.SDP= 177635
A.DFBC= 000100   	FD.REC= 000001   	F.RSIZ= 000002   	IE.FLN= 177657   	IE.SNC= 177735
A.DFDR= 000050   	FD.RWM= 000001   	F.RTYP= 000000   	IE.FOP= 177713   	IE.SPC= 177772
A.DFUI= 000102   	FD.SDI= 000020   	F.SEQN= 000100   	IE.HFU= 177744   	IE.SQC= 177734
A.DPB = 000014   	FD.SPL= 000200   	F.SPDV= 000072   	IE.HWR= 177772   	IE.SRE= 177762
A.EFSR= 000006   	FD.SQD= 000040   	F.SPUN= 000074   	IE.IBS= 177647   	IE.STK= 177706
A.FIPR= 000012   	FD.TTY= 000004   	F.STBK= 000036   	IE.IDU= 177644   	IE.TCH= 177765
A.IOST= 000044   	FD.WBH= 000002   	F.UNIT= 000136   	IE.IEF= 177637   	IE.TMM= 177671
A.OWUI= 000010   	FD.WRT= 000001   	F.URBD= 000020   	IE.IES= 177656   	IE.TMO= 177666
BD.FRE= 000001   	FF.CHR= 000005   	F.VBN = 000064   	IE.IFC= 177776   	IE.ULK= 177653
BL.SZ = 000013   	FF.NV = 000003   	F.VBSZ= 000060   	IE.IFU= 177747   	IE.ULN= 177773
B.BBFS= 000010   	FF.POE= 000002   	HA.CHU= 000003   	IE.ILL= 177726   	IE.UNS= 177774
B.BFST= 000015   	FF.RWD= 000001   	HA.FP = 000002   	IE.ILU= 177640   	IE.UPN= 177777
B.NXBD= 000012   	FF.RWF= 000006   	HA.NAM= 000005   	IE.ILV= 177755   	IE.VER= 177774
B.VBN = 000004   	FF.SPC= 000004   	HA.TYP= 000006   	IE.INS= 177776   	IE.WAC= 177743
CH.AND= 000001   	FO.APD= 000106   	HA.UAT= 000004   	IE.IOP= 177655   	IE.WAT= 177741
DIRTYP= 015172   	FO.MFY= 000002   	HA.UI = 000001   	IE.IPR= 177641   	IE.WCK= 177652
D.DFDV= 000024   	FO.RD = 000001   	HA.VER= 000007   	IE.ISQ= 177703   	IE.WER= 177737
D.DFID= 000016   	FO.UPD= 000006   	IE.ABO= 177761   	IE.ITI= 177643   	IE.WLK= 177764
D.DFUN= 000026   	FO.WRT= 000016   	IE.ACT= 177771   	IE.ITP= 177650   	IE.WOV= 177653
FA.APD= 000100   	F.ACTL= 000076   	IE.ADP= 177636   	IE.ITS= 177770   	IE.2DV= 177720
FA.CRE= 000010   	F.ALOC= 000040   	IE.ALC= 177654   	IE.IUI= 177645   	IO.ACE= 007400
FA.DLK= 001000   	F.BBFS= 000062   	IE.ALG= 177654   	IE.LCK= 177745   	IO.ACR= 006400
FA.ENB= 100000   	F.BDB = 000070   	IE.ALN= 177736   	IE.LNL= 177646   	IO.ACW= 007000
FA.EXC= 002000   	F.BGBC= 000057   	IE.AST= 177660   	IE.MAP= 177657   	IO.APC= 014000
FA.EXT= 000004   	F.BKDN= 000026   	IE.BAD= 177777   	IE.MOD= 177753   	IO.APV= 014010
FA.NSP= 000100   	F.BKDS= 000020   	IE.BBE= 177710   	IE.NBF= 177731   	IO.ATT= 001400
FA.POS= 010000   	F.BKEF= 000050   	IE.BCC= 177676   	IE.NBK= 177727   	IO.CLN= 003400
FA.RD = 000001   	F.BKP1= 000051   	IE.BDI= 177714   	IE.NDR= 177670   	IO.CRE= 012000
FA.RWD= 004000   	F.BKST= 000024   	IE.BDR= 177716   	IE.NFI= 177704   	IO.DAC= 010000
FA.SEQ= 040000   	F.BKVB= 000064   	IE.BDV= 177711   	IE.NFW= 177673   	IO.DEL= 012400
FA.SHR= 000040   	F.CHR = 000075   	IE.BHD= 177700   	IE.NLK= 177661   	IO.DET= 002000
FA.TMP= 000020   	F.CNTG= 000034   	IE.BLB= 177672   	IE.NLN= 177733   	IO.ENA= 006000
FA.WCK= 020000   	F.DFNB= 000046   	IE.BLK= 177754   	IE.NNC= 177663   	IO.EXT= 011400
FA.WRT= 000002   	F.DSPT= 000044   	IE.BNM= 177712   	IE.NNL= 177662   	IO.FNA= 004400
FCSEFN= 000040   	F.DVNM= 000134   	IE.BTF= 177664   	IE.NNN= 177674   	IO.KIL= 000012
FD.BLK= 000010   	F.EFBK= 000010   	IE.BTP= 177725   	IE.NOD= 177751   	IO.LOV= 001010
FD.CCL= 000002   	F.EFN = 000050   	IE.BVR= 177701   	IE.NSF= 177746   	IO.LTK= 000050
FD.COM= 020000   	F.EOBB= 000032   	IE.BYT= 177755   	IE.NST= 177660   	IO.RAT= 013000
FD.CR = 000002   	F.ERR = 000052   	IE.CKP= 177766   	IE.NSW= 177756   	IO.RDN= 000022
FD.DIR= 000010   	F.FACC= 000043   	IE.CKS= 177742   	IE.NVR= 177652   	IO.RLB= 001000
FD.DVR= 000020   	F.FFBY= 000014   	IE.CLO= 177732   	IE.NVW= 177651   	IO.RNA= 005400
FD.EFB= 000004   	F.FNAM= 000110   	IE.CNR= 177667   	IE.OFL= 177677   	IO.RTK= 000060
FD.EF1= 000010   	F.FNB = 000102   	IE.CON= 177752   	IE.ONP= 177773   	IO.RVB= 010400
FD.EOF= 000002   	F.FTYP= 000116   	IE.DAA= 177770   	IE.OVR= 177756   	IO.SET= 000030
FD.FTN= 000001   	F.FVER= 000120   	IE.DAO= 177763   	IE.PES= 177655   	IO.ULK= 005000
FD.F11= 040000   	F.HIBK= 000004   	IE.DFU= 177750   	IE.PNS= 177642   	IO.UNL= 000042
FD.INS= 000010   	F.LUN = 000042   	IE.DNA= 177771   	IE.PRI= 177760   	IO.WAT= 013400
FD.INV= 000100   	F.MBCT= 000054   	IE.DNR= 177775   	IE.PTS= 177775   	IO.WLB= 000400
FD.ISP= 002000   	F.MBC1= 000055   	IE.DUN= 177767   	IE.RAC= 177724   	IO.WVB= 011000
FD.MNT= 100000   	F.MBFG= 000056   	IE.DUP= 177707   	IE.RAT= 177723   	IQ.Q  = 000002
FD.OER= 000040   	F.NRBD= 000024   	IE.EOF= 177766   	IE.RBG= 177730   	IQ.S  = 000004
FD.OSP= 004000   	F.NREC= 000030   	IE.EOT= 177702   	IE.RBS= 177761   	IQ.UMD= 000004
FD.PLC= 000004   	F.OVBS= 000030   	IE.EOV= 177765   	IE.RCN= 177722   	IQ.X  = 000001
FD.PRN= 000004   	F.RACC= 000016   	IE.EXP= 177665   	IE.RER= 177740   	IS.BV = 000005
FD.PSE= 010000   	F.RATT= 000001   	IE.FEX= 177717   	IE.RNM= 177715   	IS.CC = 001401
FD.RAH= 000001   	F.RCNM= 000034   	IE.FHE= 177705   	IE.RSU= 177757   	IS.CLR= 000000
PARSE 0104MS, PARSE THE FILE NA	MACRO M1110  22-AUG-78 01:23  PAGE 8-2
SYMBOL TABLE

IS.CR = 006401   	NB.SMI= 040000   	N.NEXT= 000022   	R$$11M= 000001   	WI.LCK= 000001
IS.EOT= 002001   	NB.SNM= 000040   	N.STAT= 000020   	R.FIX = 000001   	WI.SPL= 000020
IS.ESC= 015401   	NB.STP= 000020   	N.UNIT= 000034   	R.SEQ = 000003   	WI.UPD= 000100
IS.ESQ= 115401   	NB.SVR= 000010   	PP.SEP= 000002   	R.VAR = 000002   	$$MSG = 000000
IS.PES= 100001   	NB.TYP= 000002   	PP.ZER= 000001   	SYDEV = 054523   	.PARSE  000040RG    002
IS.PND= 000000   	NB.VER= 000001   	P$$ARS= 000001   	SYUNIT= 000000   	.SAVR1= ****** GX
IS.RDD= 000002   	N.DID = 000024   	R$$ANI= 000001   	S.BFHD= 000020   	..ALUN= ****** GX
IS.SET= 000002   	N.DRPT= 000006   	R$$BBF= 000000   	S.FATT= 000016   	..DFDI= ****** GX
IS.SPD= 000002   	N.DRSZ= 000004   	R$$DPB= 000001   	S.FDB = 000140   	..ELP0= ****** GX
IS.SUC= 000001   	N.DVNM= 000032   	R$$EIS= 000001   	S.FNAM= 000006   	..PARS  000052RG    002
IS.TAB= 004401   	N.DVPT= 000002   	R$$LCL= 000001   	S.FNB = 000036   	..PSDI= ****** GX
IS.TMO= 000002   	N.DVSZ= 000000   	R$$MUL= 000000   	S.FNBW= 000017   	..PSDV= ****** GX
NB.DEV= 000200   	N.FID = 000000   	R$$OPF= 000000   	S.FNTY= 000004   	..PSFN= ****** GX
NB.DIR= 000100   	N.FNAM= 000006   	R$$RSL= 000001   	S.FSR2= 000104   	..STFN  000000RG    002
NB.DOT= 100000   	N.FNPT= 000012   	R$$SEQ= 000000   	S.FTYP= 000002   	...CTL= 000001
NB.NAM= 000004   	N.FNSZ= 000010   	R$$SPL= 000000   	S.NFEN= 000020   	...GBL= 000000
NB.SD1= 000400   	N.FTYP= 000014   	R$$VMS= 000001   	WI.DLK= 000002   	...TPC= 000030
NB.SD2= 001000   	N.FVER= 000016

. ABS.	000000	   000
      	000000	   001
$$RESL	000114	   002
ERRORS DETECTED:  0

VIRTUAL MEMORY USED:  4708 WORDS  ( 19 PAGES)
DYNAMIC MEMORY:  5940 WORDS  ( 22 PAGES)
ELAPSED TIME:  00:00:29
OBJ$:PARSE,LIS$:PARSE/-SP=SRC$:FCSPRE,PARSE
