PARSDI 0106MS, PARSE DIRECTORY 	MACRO M1110  22-AUG-78 01:22  PAGE 7


      1						.TITLE	PARSDI 0106MS, PARSE DIRECTORY NAME
						.IDENT	/0106MS/
      2					; ALTERED:
      3					; ANDREW C. GOLDSTEIN  8-SEP-77  13:44
      4					;
      5					; COPYRIGHT (C) 1975, DIGITAL EQUIPMENT CORP., MAYNARD MASS.
      6					; COPYRIGHT (C) 1973, DIGITAL EQUIPMENT CORP., MAYNARD MASS.
      7					; COPYRIGHT 1974, DIGITAL EQUIPMENT CORP., MAYNARD MASS.
      8
      9					; THIS SOFTWARE IS FURNISHED TO PURCHASER UNDER A LICENSE FOR USE
     10					; ON A SINGLE COMPUTER SYSTEM AND CAN BE COPIED (WITH INCLUSION
     11					; OF DEC'S COPYRIGHT NOTICE) ONLY FOR USE IN SUCH SYSTEM, EXCEPT
     12					; AS MAY OTHERWISE BE PROVIDED IN WRITING BY DEC.
     13
     14					; THE INFORMATION IN THIS DOCUMENT IS SUBJECT TO CHANGE WITHOUT
     15					; NOTICE AND SHOULD NOT BE CONSTRUED AS A COMMITMENT BY DIGITAL
     16					; EQUIPMENT CORPORATION.
     17
     18					; DEC ASSUMES NO RESPONSIBILITY FOR THE USE OR RELIABILITY
     19					; OF ITS SOFTWARE ON EQUIPMENT WHICH IS NOT SUPPLIED BY DEC.
     20					;
     21					; PETER H. LIPMAN
     22					; MODIFIED BY SHAO-SUN CHIEN	28-JUN-74
     23					;
     24
     25					;+
     26					; PARSE DIRECTORY NAME - FIRST HALF.
     27					;
     28					; CALLING SEQUENCE:
     29					;	CALL	.PRSDI
     30					; INPUTS:
     31					;	R0=FDB ADDRESS
     32					;	R1=ADDRESS OF FILE NAME BLOCK
     33					;	R2=POINTER TO DEV, DIR, AND NAME DESCRIPTORS
     34					;	R3=DEFAULT FILE NAME BLOCK OR ZERO IF NONE SPECIFIED
     35					;
     36					; OUTPUTS:
     37					;	C=0 IF SUCCESSFUL, C=1 IF ERROR, F.ERR SET TO REASON
     38					;	ALL REGISTERS PRESERVED IF RETURN FROM THIS MODULE,
     39					;	ELSE CONTROL IS TRANSFERRED TO PARDI, THE SECOND HALF
     40					;	OF PARSE FILE NAME ROUTINE, AND REGISTERS RESTORED AND
     41					;	CONDITION CODE SET ON RETURN TO CALLER THERE.
     42					;-
     43
     44	000000				.PRSDI::.SAVR1
     45	000004	012760 	000001 	000052 		MOV	#1,F.ERR(R0)
     46	000012	132760 	000010 	000017 	..PSDI::BITB	#FD.DIR,F.RCTL(R0)
     47	000020	001002 				BNE	5$
     48	000022	000167 	000100 		3$:	JMP	70$		;DEFAULT TO MFD FOR NON-DIRECTORY DEVICE
     49	000026	132760 	000020 	000017 	5$:	BITB	#FD.SDI,F.RCTL(R0) ;IF SINGLE DIRECTORY DEVICE
     50	000034	001372 				BNE	3$		;ALSO USE MFD
     51	000036	132760 	000020 	000043 		BITB	#FA.TMP,F.FACC(R0) ;IF A TEMPORARY FILE
     52	000044	001366 				BNE	3$		;SKIP UFD SEARCH
     53	000046	005702 				TST	R2
     54	000050	001415 				BEQ	30$		;BRANCH IF NULL DIRECTORY DESCRIPTOR
     55	000052	005762 	000004 			TST	N.DRSZ(R2)
     56	000056	001412 				BEQ	30$		;BRANCH IF NULL DIRECTORY DESCRIPTOR
PARSDI 0106MS, PARSE DIRECTORY 	MACRO M1110  22-AUG-78 01:22  PAGE 7-1


     57	000060	052761 	000100 	000020 		BIS	#NB.DIR,N.STAT(R1) ;INDICATE EXPLICIT DIRECTORY STRING
     58	000066	010246 				MOV	R2,-(SP)
     59	000070	062702 	000004 			ADD	#N.DRSZ,R2	;R2=ADR OF DIRECTORY DESCRIPTOR
     60	000074					CALL	..DIRF		;FIND THE DIRECTORY ID
     61	000100	012602 				MOV	(SP)+,R2
     62	000102					RETURN
PARSDI 0106MS, PARSE DIRECTORY 	MACRO M1110  22-AUG-78 01:22  PAGE 8


     64					;
     65					; NULL DIRECTORY DESCRIPTOR, SEE IF NULL DEFAULT DIRECTORY ID
     66	000104				30$:	CALL	..DFDI		;GET DEFAULT DID IF AVAILABLE
     67	000110	103401 				BCS	40$		;BRANCH IF NOT
     68	000112					RETURN
     69					; CALL TASK DEFAULT DIRECTORY PARSE ROUTINE
     70	000114	010746 			40$:	MOV	 PC,-(SP)	;SAVE TRANSFER ADDRESS ON STACK
     71	000116	062716 	000000C			ADD	#..DIRF-.,(SP)	;PIC
     72	000122					CALLR	..PDI		;JUMP TO PARDI
     73					;
     74					; NULL TASK DEFULT DIRECTORY DESCRIPTOR - DEFAULT TO MFD
     75	000126	012761 	000004 	000024 	70$:	MOV	#4,N.DID(R1)
     76	000134	012761 	000004 	000026 		MOV	#4,N.DID+2(R1)
     77	000142	005061 	000030 			CLR	N.DID+4(R1)
     78	000146					RETURN
PARSDI 0106MS, PARSE DIRECTORY 	MACRO M1110  22-AUG-78 01:22  PAGE 9


     80					;
     81					; SUBROUTINE TO GET DIRECTORY ID FROM DEFAULT FILE NAME BLOCK IF IT EXISTS
     82					; AND IS APPLICABLE (I.E., IS MFD OR DEVICE AND UNIT MATCH).
     83					;
     84					; INPUTS:
     85					;	R1 = FNB
     86					;	R3 = DFNB OR 0
     87					;
     88					; OUTPUTS:
     89					;	C = 0 IF DID USED
     90					;	  = 1 IF NOT
     91					;
     92
     93	000150	005703 			..DFDI::TST	R3
     94	000152	001431 				BEQ	20$		;BRANCH IF NO DEFAULT NAME BLOCK
     95	000154	016304 	000024 			MOV	N.DID(R3),R4
     96	000160	001426 				BEQ	20$		;BRANCH IF NO DEFAULT ID SPECIFIED
     97	000162	022704 	000004 			CMP	#4,R4		;IF 4, THEN MFD
     98	000166	001410 				BEQ	10$		;UNIVERSAL FOR ALL DEVICES
     99					;
    100					; DIRECTORY ID IS SPECIFIED, USE IT ONLY IF DEVICE AND UNIT AGREE
    101	000170	026361 	000032 	000032 		CMP	N.DVNM(R3),N.DVNM(R1)
    102	000176	001017 				BNE	20$
    103	000200	026361 	000034 	000034 		CMP	N.UNIT(R3),N.UNIT(R1)
    104	000206	001013 				BNE	20$
    105	000210	016361 	000024 	000024 	10$:	MOV	N.DID(R3),N.DID(R1) ;MOVE THE DEFAULT DIR ID
    106	000216	016361 	000026 	000026 		MOV	N.DID+2(R3),N.DID+2(R1) ;TO THE FILE NAME BLOCK
    107	000224	016361 	000030 	000030 		MOV	N.DID+4(R3),N.DID+4(R1)
    108	000232	000241 				CLC			;INDICATE SUCCESS
    109	000234					RETURN
    110
    111	000236	000261 			20$:	SEC			;INDICATE FAILURE
    112	000240					RETURN
    113					;
    114					;
    115	000242					$END	PARSDI
    116					;
    117		000001 				.END
PARSDI 0106MS, PARSE DIRECTORY 	MACRO M1110  22-AUG-78 01:22  PAGE 9-1
SYMBOL TABLE

A.BFSR= 000004   	FD.RAN= 000002   	F.RCTL= 000017   	IE.FIX= 177767   	IE.SDP= 177635
A.DFBC= 000100   	FD.REC= 000001   	F.RSIZ= 000002   	IE.FLN= 177657   	IE.SNC= 177735
A.DFDR= 000050   	FD.RWM= 000001   	F.RTYP= 000000   	IE.FOP= 177713   	IE.SPC= 177772
A.DFUI= 000102   	FD.SDI= 000020   	F.SEQN= 000100   	IE.HFU= 177744   	IE.SQC= 177734
A.DPB = 000014   	FD.SPL= 000200   	F.SPDV= 000072   	IE.HWR= 177772   	IE.SRE= 177762
A.EFSR= 000006   	FD.SQD= 000040   	F.SPUN= 000074   	IE.IBS= 177647   	IE.STK= 177706
A.FIPR= 000012   	FD.TTY= 000004   	F.STBK= 000036   	IE.IDU= 177644   	IE.TCH= 177765
A.IOST= 000044   	FD.WBH= 000002   	F.UNIT= 000136   	IE.IEF= 177637   	IE.TMM= 177671
A.OWUI= 000010   	FD.WRT= 000001   	F.URBD= 000020   	IE.IES= 177656   	IE.TMO= 177666
BD.FRE= 000001   	FF.CHR= 000005   	F.VBN = 000064   	IE.IFC= 177776   	IE.ULK= 177653
BL.SZ = 000013   	FF.NV = 000003   	F.VBSZ= 000060   	IE.IFU= 177747   	IE.ULN= 177773
B.BBFS= 000010   	FF.POE= 000002   	HA.CHU= 000003   	IE.ILL= 177726   	IE.UNS= 177774
B.BFST= 000015   	FF.RWD= 000001   	HA.FP = 000002   	IE.ILU= 177640   	IE.UPN= 177777
B.NXBD= 000012   	FF.RWF= 000006   	HA.NAM= 000005   	IE.ILV= 177755   	IE.VER= 177774
B.VBN = 000004   	FF.SPC= 000004   	HA.TYP= 000006   	IE.INS= 177776   	IE.WAC= 177743
CH.AND= 000001   	FO.APD= 000106   	HA.UAT= 000004   	IE.IOP= 177655   	IE.WAT= 177741
DIRTYP= 015172   	FO.MFY= 000002   	HA.UI = 000001   	IE.IPR= 177641   	IE.WCK= 177652
D.DFDV= 000024   	FO.RD = 000001   	HA.VER= 000007   	IE.ISQ= 177703   	IE.WER= 177737
D.DFID= 000016   	FO.UPD= 000006   	IE.ABO= 177761   	IE.ITI= 177643   	IE.WLK= 177764
D.DFUN= 000026   	FO.WRT= 000016   	IE.ACT= 177771   	IE.ITP= 177650   	IE.WOV= 177653
FA.APD= 000100   	F.ACTL= 000076   	IE.ADP= 177636   	IE.ITS= 177770   	IE.2DV= 177720
FA.CRE= 000010   	F.ALOC= 000040   	IE.ALC= 177654   	IE.IUI= 177645   	IO.ACE= 007400
FA.DLK= 001000   	F.BBFS= 000062   	IE.ALG= 177654   	IE.LCK= 177745   	IO.ACR= 006400
FA.ENB= 100000   	F.BDB = 000070   	IE.ALN= 177736   	IE.LNL= 177646   	IO.ACW= 007000
FA.EXC= 002000   	F.BGBC= 000057   	IE.AST= 177660   	IE.MAP= 177657   	IO.APC= 014000
FA.EXT= 000004   	F.BKDN= 000026   	IE.BAD= 177777   	IE.MOD= 177753   	IO.APV= 014010
FA.NSP= 000100   	F.BKDS= 000020   	IE.BBE= 177710   	IE.NBF= 177731   	IO.ATT= 001400
FA.POS= 010000   	F.BKEF= 000050   	IE.BCC= 177676   	IE.NBK= 177727   	IO.CLN= 003400
FA.RD = 000001   	F.BKP1= 000051   	IE.BDI= 177714   	IE.NDR= 177670   	IO.CRE= 012000
FA.RWD= 004000   	F.BKST= 000024   	IE.BDR= 177716   	IE.NFI= 177704   	IO.DAC= 010000
FA.SEQ= 040000   	F.BKVB= 000064   	IE.BDV= 177711   	IE.NFW= 177673   	IO.DEL= 012400
FA.SHR= 000040   	F.CHR = 000075   	IE.BHD= 177700   	IE.NLK= 177661   	IO.DET= 002000
FA.TMP= 000020   	F.CNTG= 000034   	IE.BLB= 177672   	IE.NLN= 177733   	IO.ENA= 006000
FA.WCK= 020000   	F.DFNB= 000046   	IE.BLK= 177754   	IE.NNC= 177663   	IO.EXT= 011400
FA.WRT= 000002   	F.DSPT= 000044   	IE.BNM= 177712   	IE.NNL= 177662   	IO.FNA= 004400
FCSEFN= 000040   	F.DVNM= 000134   	IE.BTF= 177664   	IE.NNN= 177674   	IO.KIL= 000012
FD.BLK= 000010   	F.EFBK= 000010   	IE.BTP= 177725   	IE.NOD= 177751   	IO.LOV= 001010
FD.CCL= 000002   	F.EFN = 000050   	IE.BVR= 177701   	IE.NSF= 177746   	IO.LTK= 000050
FD.COM= 020000   	F.EOBB= 000032   	IE.BYT= 177755   	IE.NST= 177660   	IO.RAT= 013000
FD.CR = 000002   	F.ERR = 000052   	IE.CKP= 177766   	IE.NSW= 177756   	IO.RDN= 000022
FD.DIR= 000010   	F.FACC= 000043   	IE.CKS= 177742   	IE.NVR= 177652   	IO.RLB= 001000
FD.DVR= 000020   	F.FFBY= 000014   	IE.CLO= 177732   	IE.NVW= 177651   	IO.RNA= 005400
FD.EFB= 000004   	F.FNAM= 000110   	IE.CNR= 177667   	IE.OFL= 177677   	IO.RTK= 000060
FD.EF1= 000010   	F.FNB = 000102   	IE.CON= 177752   	IE.ONP= 177773   	IO.RVB= 010400
FD.EOF= 000002   	F.FTYP= 000116   	IE.DAA= 177770   	IE.OVR= 177756   	IO.SET= 000030
FD.FTN= 000001   	F.FVER= 000120   	IE.DAO= 177763   	IE.PES= 177655   	IO.ULK= 005000
FD.F11= 040000   	F.HIBK= 000004   	IE.DFU= 177750   	IE.PNS= 177642   	IO.UNL= 000042
FD.INS= 000010   	F.LUN = 000042   	IE.DNA= 177771   	IE.PRI= 177760   	IO.WAT= 013400
FD.INV= 000100   	F.MBCT= 000054   	IE.DNR= 177775   	IE.PTS= 177775   	IO.WLB= 000400
FD.ISP= 002000   	F.MBC1= 000055   	IE.DUN= 177767   	IE.RAC= 177724   	IO.WVB= 011000
FD.MNT= 100000   	F.MBFG= 000056   	IE.DUP= 177707   	IE.RAT= 177723   	IQ.Q  = 000002
FD.OER= 000040   	F.NRBD= 000024   	IE.EOF= 177766   	IE.RBG= 177730   	IQ.S  = 000004
FD.OSP= 004000   	F.NREC= 000030   	IE.EOT= 177702   	IE.RBS= 177761   	IQ.UMD= 000004
FD.PLC= 000004   	F.OVBS= 000030   	IE.EOV= 177765   	IE.RCN= 177722   	IQ.X  = 000001
FD.PRN= 000004   	F.RACC= 000016   	IE.EXP= 177665   	IE.RER= 177740   	IS.BV = 000005
FD.PSE= 010000   	F.RATT= 000001   	IE.FEX= 177717   	IE.RNM= 177715   	IS.CC = 001401
FD.RAH= 000001   	F.RCNM= 000034   	IE.FHE= 177705   	IE.RSU= 177757   	IS.CLR= 000000
PARSDI 0106MS, PARSE DIRECTORY 	MACRO M1110  22-AUG-78 01:22  PAGE 9-2
SYMBOL TABLE

IS.CR = 006401   	NB.SD2= 001000   	N.FTYP= 000014   	R$$SPL= 000000   	S.FTYP= 000002
IS.EOT= 002001   	NB.SMI= 040000   	N.FVER= 000016   	R$$VMS= 000001   	S.NFEN= 000020
IS.ESC= 015401   	NB.SNM= 000040   	N.NEXT= 000022   	R$$11M= 000001   	WI.DLK= 000002
IS.ESQ= 115401   	NB.STP= 000020   	N.STAT= 000020   	R.FIX = 000001   	WI.LCK= 000001
IS.PES= 100001   	NB.SVR= 000010   	N.UNIT= 000034   	R.SEQ = 000003   	WI.SPL= 000020
IS.PND= 000000   	NB.TYP= 000002   	PP.SEP= 000002   	R.VAR = 000002   	WI.UPD= 000100
IS.RDD= 000002   	NB.VER= 000001   	PP.ZER= 000001   	SYDEV = 054523   	$$MSG = 000000
IS.SET= 000002   	N.DID = 000024   	P$$ARS= 000001   	SYUNIT= 000000   	.PRSDI  000000RG    002
IS.SPD= 000002   	N.DRPT= 000006   	R$$ANI= 000001   	S.BFHD= 000020   	.SAVR1= ****** GX
IS.SUC= 000001   	N.DRSZ= 000004   	R$$BBF= 000000   	S.FATT= 000016   	..DFDI  000150RG    002
IS.TAB= 004401   	N.DVNM= 000032   	R$$DPB= 000001   	S.FDB = 000140   	..DIRF= ****** GX
IS.TMO= 000002   	N.DVPT= 000002   	R$$EIS= 000001   	S.FNAM= 000006   	..PDI = ****** GX
NB.DEV= 000200   	N.DVSZ= 000000   	R$$LCL= 000001   	S.FNB = 000036   	..PSDI  000012RG    002
NB.DIR= 000100   	N.FID = 000000   	R$$MUL= 000000   	S.FNBW= 000017   	...CTL= 000001
NB.DOT= 100000   	N.FNAM= 000006   	R$$OPF= 000000   	S.FNTY= 000004   	...GBL= 000000
NB.NAM= 000004   	N.FNPT= 000012   	R$$RSL= 000001   	S.FSR2= 000104   	...TPC= 000030
NB.SD1= 000400   	N.FNSZ= 000010   	R$$SEQ= 000000

. ABS.	000000	   000
      	000000	   001
$$RESL	000242	   002
ERRORS DETECTED:  0

VIRTUAL MEMORY USED:  4703 WORDS  ( 19 PAGES)
DYNAMIC MEMORY:  5940 WORDS  ( 22 PAGES)
ELAPSED TIME:  00:00:32
OBJ$:PARSDI,LIS$:PARSDI/-SP=SRC$:FCSPRE,PARSDI
