RSXDSKDRV       - RSX11M AME DISK DRIVER                         22-AUG-1978 05:14:03   VAX-11 MACRO X0.3-11               Page   0
TABLE OF CONTENTS

   (3)      72  DSK_RVB AND DSK_RLB FUNCTIONS
   (4)     100  RSX$OVERLAY - LOAD OVERLAY
   (5)     149  DSK_WVB AND DSK_WLB FUNCTIONS
   (6)     172  DSK_SET FUNCTIONS
RSXDSKDRV       - RSX11M AME DISK DRIVER                         22-AUG-1978 05:14:03   VAX-11 MACRO X0.3-11               Page   1
V06.0                                                                                                                            (1)

                                     0000     1 	.TITLE	RSXDSKDRV - RSX11M AME DISK DRIVER
                                     0000     2 	.IDENT	/V06.0/		;
                                     0000     3
                                     0000     4 ;
                                     0000     5 ; COPYRIGHT (C) 1978
                                     0000     6 ; DIGITAL EQUIPMENT CORPORATION, MAYNARD, MASSACHUSETTS 01754
                                     0000     7 ;
                                     0000     8 ; THIS SOFTWARE IS FURNISHED  UNDER A LICENSE FOR USE ONLY ON A SINGLE
                                     0000     9 ; COMPUTER  SYSTEM AND  MAY BE  COPIED ONLY WITH  THE INCLUSION OF THE
                                     0000    10 ; ABOVE COPYRIGHT NOTICE.  THIS SOFTWARE, OR ANY OTHER COPIES THEREOF,
                                     0000    11 ; MAY NOT BE PROVIDED OR  OTHERWISE MADE AVAILABLE TO ANY OTHER PERSON
                                     0000    12 ; EXCEPT FOR USE ON SUCH SYSTEM AND TO ONE WHO AGREES TO THESE LICENSE
                                     0000    13 ; TERMS.  TITLE TO AND  OWNERSHIP OF THE  SOFTWARE  SHALL AT ALL TIMES
                                     0000    14 ; REMAIN IN DEC.
                                     0000    15 ;
                                     0000    16 ; THE INFORMATION IN THIS SOFTWARE IS SUBJECT TO CHANGE WITHOUT NOTICE
                                     0000    17 ; AND SHOULD  NOT BE CONSTRUED  AS A COMMITMENT  BY DIGITAL  EQUIPMENT
                                     0000    18 ; CORPORATION.
                                     0000    19 ;
                                     0000    20 ; DEC ASSUMES  NO  RESPONSIBILITY  FOR  THE USE OR  RELIABILITY OF ITS
                                     0000    21 ; SOFTWARE ON EQUIPMENT WHICH IS NOT SUPPLIED BY DEC.
                                     0000    22
                                     0000    23 ;++
                                     0000    24 ; FACILITY:
                                     0000    25 ;
                                     0000    26 ;	VAX/VMS RSX11M AME
                                     0000    27 ;
                                     0000    28 ; ABSTRACT:
                                     0000    29 ;
                                     0000    30 ;	DISK I/O DRIVER
                                     0000    31 ;
                                     0000    32 ; AUTHOR: R.HEINEN 4-NOV-76
                                     0000    33 ;--
                                     0000    34 ;
                                     0000    35 ; EXTERNAL SYMBOLS
                                     0000    36 ;
                                     0000    37 	$RSXDEF			; DEFINE RSX SYMBOLS
                                     0000    38 	SPCIO$			; DEFINE RSX11M SPECIAL I/O CODES
                                     0000    39 	FILIO$			; DEFINE RSX11M FILE I/O FUNCTION CODES
RSXDSKDRV       - RSX11M AME DISK DRIVER                         22-AUG-1978 05:14:03   VAX-11 MACRO X0.3-11               Page   2
V06.0                                                                                                                            (2)

                                 00000000    41 	.PSECT	RSXCODE,NOWRT,SHR,PIC
                                     0000    42 RSX$DSK_DRV::				; DISK I/O DRIVER
                                     0000    43 	CASE	R3,<-			; DISK DRIVER
                                     0000    44 		RSX$IOKILL,-		; KILL I/O
                                     0000    45 		DSK_WLB,-		; WRITE LOGICAL BLOCK
                                     0000    46 		DSK_RLB,-		; READ LOGICAL BLOCK
                                     0000    47 		RSX$DLVRQIOAST,-	; ATTACH IS NOOP
                                     0000    48 		RSX$DLVRQIOAST,-	; DETACH DEVICE
                                     0000    49 		DSK_SET,-		; FUNCTION CODE 5
                                     0000    50 		RSX$IEIFC,-		; FUNCTION CODE 6
                                     0000    51 		RSX$IEIFC,-		; ILLEGAL
                                     0000    52 		RSX$IEIFC,-		; ILLEGAL
                                     0000    53 		RSX$FILEIO,-		; FUNCTION CODE 9
                                     0000    54 		RSX$IEIFC,-		; ILLEGAL
                                     0000    55 		RSX$FILEIO,-		; REMOVE FILE NAME
                                     0000    56 		RSX$FILEIO,-		; ENTER FILE NAME
                                     0000    57 		RSX$FILEIO,-		; ACCESS FOR READ
                                     0000    58 		RSX$FILEIO,-		; ACCESS FOR WRITE
                                     0000    59 		RSX$FILEIO,-		; ACCESS FOR EXTEND
                                     0000    60 		RSX$FILEIO,-		; DEACCESS
                                     0000    61 		DSK_RVB,-		; READ VIRTUAL BLOCK
                                     0000    62 		DSK_WVB,-		; WRITE VIRTUAL BLOCK
                                     0000    63 		RSX$FILEIO,-		; EXTEND FILE
                                     0000    64 		RSX$FILEIO,-		; CREATE FILE
                                     0000    65 		RSX$FILEIO,-		; DELETE FILE
                                     0000    66 		RSX$FILEIO,-		; READ ATTRIBUTES
                                     0000    67 		RSX$FILEIO,-		; WRITE ATTRIBUTES
                                     0000    68 		RSX$FILEIO,-		; ACP CONTROL
                                     0000    69 		>
                          FFC7'  31  0036    70 	BRW	RSX$IEIFC		; ERROR EXIT
RSXDSKDRV       - RSX11M AME DISK DRIVER                         22-AUG-1978 05:14:03   VAX-11 MACRO X0.3-11               Page   3
V06.0           DSK_RVB AND DSK_RLB FUNCTIONS                                                                                    (3)

                                     0039    72 	.SBTTL	DSK_RVB AND DSK_RLB FUNCTIONS
                                     0039    73
                                     0039    74 	.ENABL	LSB
                                     0039    75 ;
                                     0039    76 ; READ VIRTUAL BLOCK FUNCTION
                                     0039    77 ;
                                     0039    78 DSK_RVB:				; READ VIRTUAL BLOCK
         34 AA       0000'8F     3C  0039    79 	MOVZWL	#IO$_READVBLK,I_SCRATCH+12(R10); SET UP FUNCTION CODE
                          2F     11  003F    80 	BRB	20$			; CONTINUE IN COMMON
                                     0041    81 DSK_RLB:				; READ LOGICAL BLOCK
         34 AA       0000'8F     3C  0041    82 	MOVZWL	#IO$_READLBLK,I_SCRATCH+12(R10); SET UP FUNCTION CODE
            08            57     91  0047    83 	CMPB	R7,#<IO.LOV&^X0FF>	; LOAD OVERLAY
                          19     12  004A    84 	BNEQ	15$			; IF NEQ THEN NO
                     0000'CF     9F  004C    85 	PUSHAB	W^RSX$A_OVDEV		; GET ADDRESS OF OVERLAY LUT
            58            8E     D1  0050    86 	CMPL	(SP)+,R8		; CORRECT LUT?
                          10     12  0053    87 	BNEQ	15$			; IF NO TREAT NORMALLY
            54            65     3C  0055    88 	MOVZWL	(R5),R4			; SET ADDRESS OF TARGET
            53         02 A5     3C  0058    89 	MOVZWL	2(R5),R3		; GET SIZE TO READ
            55         08 A5     D0  005C    90 	MOVL	8(R5),R5		; GET VBN OF IMAGE
                          11     10  0060    91 	BSBB	RSX$OVERLAY		; LOAD THE OVERLAY
                          FF9B'  31  0062    92 	BRW	RSX$DLVRQIOAST		; POST THE STATUS
            57            01     B3  0065    93 15$:	BITW	#IQ.X,R7		; INHIBIT ERROR RETRY?
                          06     13  0068    94 	BEQL	20$			; IF EQL THEN NO
         34 AA       0000'8F     A8  006A    95 	BISW	#IO$M_INHRETRY,I_SCRATCH+12(R10); INHIBIT RETRY
                          FF8D'  31  0070    96 20$:	BRW	RSX$ISSUQIO		; DO FUNCTION
                                     0073    97
                                     0073    98 	.DSABL	LSB
RSXDSKDRV       - RSX11M AME DISK DRIVER                         22-AUG-1978 05:14:03   VAX-11 MACRO X0.3-11               Page   4
V06.0           RSX$OVERLAY - LOAD OVERLAY                                                                                       (4)

                                     0073   100 	.SBTTL	RSX$OVERLAY - LOAD OVERLAY
                                     0073   101 ;++
                                     0073   102 ; RSX$OVERLAY - LOAD OVERLAY
                                     0073   103 ;
                                     0073   104 ; FUNCTIONAL DESCRIPTION:
                                     0073   105 ;
                                     0073   106 ; THIS ROUTINE IS USED FOR IO.LOV AND INITIAL HEADER/ROOT SEGMENT LOADS.
                                     0073   107 ;
                                     0073   108 ; INPUTS:
                                     0073   109 ;
                                     0073   110 ;	R3 = NUMBER OF BYTES TO LOAD
                                     0073   111 ;	R4 = VIRTUAL ADDRESS OF LOAD
                                     0073   112 ;	R5 = VIRTUAL BLOCK NUMBER
                                     0073   113 ;	R10 = ADDRESS OF THE IMAGE IMPURE DATA BASE
                                     0073   114 ;	R11 = ADDRESS OF THE IMAGE
                                     0073   115 ;
                                     0073   116 ; OUTPUTS:
                                     0073   117 ;
                                     0073   118 ;	R0 = STATUS OF THE OPERATION
                                     0073   119 ;
                                     0073   120 ;	ALL OTHER REGISTERS ARE PRESERVED.
                                     0073   121 ;
                                     0073   122 ;--
                                     0073   123 RSX$OVERLAY::				;
                     00FC 8F     BB  0073   124 	PUSHR	#^M<R2,R3,R4,R5,R6,R7>	; SAVE USED REGISTERS
            55       00F8 CA     C0  0077   125 	ADDL	I_IMAGEVBN(R10),R5	; POINT TO HEADER RELATIVE BLOCK
                                     007C   126 	$QIOW_S	I_SCRATCH+4(R10),W^RSX$A_OVDEV+LUT_CHAN,#IO$_READVBLK,I_SCRATCH+8(R10),,,-
                                     007C   127 		(R4),R3,R5		;
            4E            50     E8  009F   128 	BLBS	R0,25$			; IF NO ERROR THEN GO
            50       0000'8F     B1  00A2   129 	CMPW	#SS$_INSFWSL,R0		; INSUFF. WORKING SET LIMIT?
                          4B     12  00A7   130 	BNEQ	30$			; IF NEQ THEN ACTUAL ERROR
            56       2000 8F     3C  00A9   131 	MOVZWL	#<8*1024>,R6		; SET UP STARTING SIZE
            57            54     D0  00AE   132 	MOVL	R4,R7			; COPY STARTING VA
                          54     D4  00B1   133 	CLRL	R4			; SET UP FOR QUAD ARITH.
            53            56     7B  00B3   134 	EDIV	R6,R3,R4,R2		; GET PARAMETERS
            52            54         00B6
                          03     12  00B8   135 15$:	BNEQ	20$			; IF NEQ THEN READ A FULL 8K
            56            52     D0  00BA   136 	MOVL	R2,R6			; ELSE READ REMAINDER
                                     00BD   137 20$:	$QIOW_S	I_SCRATCH+4(R10),W^RSX$A_OVDEV+LUT_CHAN,#IO$_READVBLK,I_SCRATCH+8(R10),
                                     00BD   138 		(R7),R6,R5		;
            11            50     E9  00E0   139 	BLBC	R0,30$			; IF LOW CLEAR THEN ERROR
            09         30 AA     E9  00E3   140 	BLBC	I_SCRATCH+8(R10),25$	; AND BR IF IOSB SHOWS ERROR
            57            56     C0  00E7   141 	ADDL	R6,R7			; POINT TO NEXT AREA
            55            10     C0  00EA   142 	ADDL	#16,R5			; POINT TO NEXT AREA IN FILE
            C8            54     F4  00ED   143 	SOBGEQ	R4,15$			; LOOP TILL DONE
            50         30 AA     7D  00F0   144 25$:	MOVQ	I_SCRATCH+8(R10),R0	; LOAD IOSB FOR RETURN
                     00FC 8F     BA  00F4   145 30$:	POPR	#^M<R2,R3,R4,R5,R6,R7>	; RESTORE REGISTERS
            10            53     F0  00F8   146 	INSV	R3,#16,#16,R0		; LOAD UPPER HALF FOR TRANSFER SIZE
            50            10         00FB
                                 05  00FD   147 	RSB
RSXDSKDRV       - RSX11M AME DISK DRIVER                         22-AUG-1978 05:14:03   VAX-11 MACRO X0.3-11               Page   5
V06.0           DSK_WVB AND DSK_WLB FUNCTIONS                                                                                    (5)

                                     00FE   149 	.SBTTL	DSK_WVB AND DSK_WLB FUNCTIONS
                                     00FE   150 	.ENABL	LSB
                                     00FE   151 ;
                                     00FE   152 ; WRITE VIRTUAL BLOCK
                                     00FE   153 ;
                                     00FE   154 DSK_WVB:				; WRITE VIRTUAL BLOCK
         34 AA       0000'8F     3C  00FE   155 	MOVZWL	#IO$_WRITEVBLK,I_SCRATCH+12(R10); SET FUNCTION CODE
                          1C     11  0104   156 	BRB	25$			; CONTINUE IN COMMON
                                     0106   157 ;
                                     0106   158 ; WRITE LOGICAL BLOCK
                                     0106   159 ;
                                     0106   160 DSK_WLB:				; WRITE LOGICAL BLOCK
         34 AA       0000'8F     3C  0106   161 	MOVZWL	#IO$_WRITELBLK,I_SCRATCH+12(R10); SET FUNCTION CODE
            20            57     91  010C   162 	CMPB	R7,#<IO.WPB&^X0FF>	; WRITE PHYSICAL?
                          06     12  010F   163 	BNEQ	15$
         34 AA       0000'8F     3C  0111   164 	MOVZWL	#IO$_WRITEPBLK,I_SCRATCH+12(R10)
            57            01     B3  0117   165 15$:	BITW	#IQ.X,R7		; INHIBIT RETRY?
                          06     13  011A   166 	BEQL	25$			; IF EQL THEN NO
         34 AA       0000'8F     A8  011C   167 	BISW	#IO$M_INHRETRY,I_SCRATCH+12(R10); SET TO INHIBIT RETRY
                          FEDB'  31  0122   168 25$:	BRW	RSX$ISSUQIO
                                     0125   169 ;
                                     0125   170 	.DSABL	LSB
RSXDSKDRV       - RSX11M AME DISK DRIVER                         22-AUG-1978 05:14:03   VAX-11 MACRO X0.3-11               Page   6
V06.0           DSK_SET FUNCTIONS                                                                                                (6)

                                     0125   172 	.SBTTL	DSK_SET FUNCTIONS
                                     0125   173 ;
                                     0125   174 ; DISK SPECIAL FUNCTIONS
                                     0125   175 ;
                                     0125   176 DSK_SET:				; PACKACK IS THE ONLY LEGAL FUNCTION
            57       0540 8F     B1  0125   177 	CMPW	#IO.STC,R7		; PACKACK?
                          09     12  012A   178 	BNEQ	30$			; IF NEQ THEN NO
         34 AA       0000'8F     3C  012C   179 	MOVZWL	#IO$_PACKACK,I_SCRATCH+12(R10); SET THE FUNCTION
                          FECB'  31  0132   180 	BRW	RSX$ISSUQIO		;
                          FEC8'  31  0135   181 30$:	BRW	RSX$IEIFC		; ILLEGAL FUNCTION
                                     0138   182 	.END
RSXDSKDRV       - RSX11M AME DISK DRIVER                         22-AUG-1978 05:14:03   VAX-11 MACRO X0.3-11               Page   7
SYMBOL TABLE                                                                                                                     (6)

$$MSG          = 00000000            H.GARD           0000003A            IE.HFU         = FFFFFFE4
$$T1           = 00000001            H.HDLN           00000002            IE.IES         = FFFFFFAE
...GBL         = 00000000            H.IPC            0000000E            IE.IFC         = FFFFFFFE
ACBC_CTLRCAST  = 00000002            H.IPS            0000000C            IE.IFU         = FFFFFFE7
ACBC_FLOATAST  = 00000003            H.ISP            00000010            IE.ILL         = FFFFFFD6
ACBC_PWRAST    = 00000000            H.LUN            0000003E            IE.ISQ         = FFFFFFC3
ACBC_RCVAST    = 00000001            H.NLUN           0000003C            IE.LCK         = FFFFFFE5
ACBV_INPROG    = 00000001            H.NML            00000031            IE.MOD         = FFFFFFEB
ACBV_PERM      = 00000000            H.ODVA           00000012            IE.NBF         = FFFFFFD9
ACBV_TYPE      = 00000008            H.ODVL           00000014            IE.NBK         = FFFFFFD7
ACB_FLAGS        0000000C            H.OVLY           0000002C            IE.NDR         = FFFFFFB8
ACB_LINK         00000000            H.PFVA           0000001A            IE.NFI         = FFFFFFC4
ACB_UPC          0000000A            H.RCVA           0000001E            IE.NFW         = FFFFFFBB
ACB_UPRM         00000008            H.RRVA           00000032            IE.NLK         = FFFFFFB1
ADR_HIGHLIM      00000004            H.SPRI           00000030            IE.NLN         = FFFFFFDB
ADR_LOWLIM       00000000            H.TKVA           00000016            IE.NNC         = FFFFFFB3
ADR_SIZE         00000008            H.TKVL           00000018            IE.NNL         = FFFFFFB2
AP_NAME          00000004            H.VEXT           0000002E            IE.NNN         = FFFFFFBC
AST_PARAM        00000004            H.WND            00000024            IE.NOD         = FFFFFFE9
AST_PC           00000010            IE.2DV         = FFFFFFD0            IE.NSF         = FFFFFFE6
AST_PSL          00000014            IE.ABO         = FFFFFFF1            IE.NST         = FFFFFFB0
AST_R0           00000008            IE.ALC         = FFFFFFAC            IE.OFL         = FFFFFFBF
AST_R1           0000000C            IE.ALN         = FFFFFFDE            IE.ONP         = FFFFFFFB
BIT...         = 0006809C            IE.AST         = FFFFFFB0            IE.OVR         = FFFFFFEE
C_CANONPS      = 83C00000            IE.BAD         = FFFFFFFF            IE.PES         = FFFFFFAD
C_RCVDSTR      = 44564352            IE.BBE         = FFFFFFC8            IE.PRI         = FFFFFFF0
DSK_RLB          00000041 R     05   IE.BCC         = FFFFFFBE            IE.RAC         = FFFFFFD4
DSK_RVB          00000039 R     05   IE.BDI         = FFFFFFCC            IE.RAT         = FFFFFFD3
DSK_SET          00000125 R     05   IE.BDR         = FFFFFFCE            IE.RBG         = FFFFFFD8
DSK_WLB          00000106 R     05   IE.BDV         = FFFFFFC9            IE.RCN         = FFFFFFD2
DSK_WVB          000000FE R     05   IE.BHD         = FFFFFFC0            IE.RER         = FFFFFFE0
FCB_ATTRIBS      0000007C            IE.BLB         = FFFFFFBA            IE.RNM         = FFFFFFCD
FCB_FIB          0000004C            IE.BLK         = FFFFFFEC            IE.RSU         = FFFFFFEF
FCB_FID          00000000            IE.BNM         = FFFFFFCA            IE.SNC         = FFFFFFDD
FCB_FNAME        00000014            IE.BTF         = FFFFFFB4            IE.SPC         = FFFFFFFA
FCB_FNAMEDESC    0000000C            IE.BTP         = FFFFFFD5            IE.SQC         = FFFFFFDC
FCB_FNB          00000002            IE.BVR         = FFFFFFC1            IE.SRE         = FFFFFFF2
FCB_PC           00000078            IE.BYT         = FFFFFFED            IE.STK         = FFFFFFC6
FCB_RESULT       00000030            IE.CKS         = FFFFFFE2            IE.TMM         = FFFFFFB9
FCB_RESULTDESC   00000004            IE.CLO         = FFFFFFDA            IE.TMO         = FFFFFFB6
FCB_SIZE         000000B4            IE.CNR         = FFFFFFB7            IE.ULK         = FFFFFFAB
FP_AP            00000008            IE.CON         = FFFFFFEA            IE.VER         = FFFFFFFC
FP_FP            0000000C            IE.DAA         = FFFFFFF8            IE.WAC         = FFFFFFE3
FP_PC            00000010            IE.DAO         = FFFFFFF3            IE.WAT         = FFFFFFE1
FP_PSL           00000004            IE.DFU         = FFFFFFE8            IE.WCK         = FFFFFFAA
FP_REGISTERS     00000014            IE.DNA         = FFFFFFF9            IE.WER         = FFFFFFDF
GBL...         = 00000000            IE.DNR         = FFFFFFFD            IE.WLK         = FFFFFFF4
H.CSP            00000000            IE.DUN         = FFFFFFF7            IO$M_INHRETRY    ********   X   05
H.CUIC           00000008            IE.DUP         = FFFFFFC7            IO$_PACKACK      ********   X   05
H.DSW            00000026            IE.EOF         = FFFFFFF6            IO$_READLBLK     ********   X   05
H.DUIC           0000000A            IE.EOT         = FFFFFFC2            IO$_READVBLK     ********   X   05
H.EFLM           00000004            IE.EOV         = FFFFFFF5            IO$_WRITELBLK    ********   X   05
H.EFSV           00000020            IE.EXP         = FFFFFFB5            IO$_WRITEPBLK    ********   X   05
H.FCS            00000028            IE.FEX         = FFFFFFCF            IO$_WRITEVBLK    ********   X   05
H.FORT           0000002A            IE.FHE         = FFFFFFC5            IO.ACE         = 00000F00
H.FPSA           00000022            IE.FLN         = FFFFFFAF            IO.ACR         = 00000D00
H.FPVA           0000001C            IE.FOP         = FFFFFFCB            IO.ACW         = 00000E00
RSXDSKDRV       - RSX11M AME DISK DRIVER                         22-AUG-1978 05:14:03   VAX-11 MACRO X0.3-11               Page   8
SYMBOL TABLE                                                                                                                     (6)

IO.ADS         = 00001800            IO.LKE         = 00001400            IO.SPW         = 00001D48
IO.APC         = 00001800            IO.LOD         = 00001800            IO.SSO         = 00000900
IO.APV         = 00001808            IO.LOV         = 00000208            IO.STA         = 00001B00
IO.ATA         = 00000308            IO.LSI         = 00001200            IO.STC         = 00000540
IO.ATT         = 00000300            IO.LTI         = 00000F00            IO.STP         = 00001D00
IO.CAS         = 00001B10            IO.LTK         = 00000028            IO.SYN         = 00000620
IO.CBO         = 00001B48            IO.LTY         = 00001000            IO.TRM         = 00000508
IO.CCI         = 00001800            IO.MAO         = 00000708            IO.UDI         = 00001308
IO.CCO         = 00000120            IO.MCS         = 00001700            IO.UEI         = 00001328
IO.CIN         = 00001D40            IO.MDA         = 00001C00            IO.UER         = 00001320
IO.CLK         = 00001A00            IO.MDI         = 00001900            IO.ULK         = 00000A00
IO.CLN         = 00000700            IO.MDO         = 00001B00            IO.UNL         = 00000022
IO.CNT         = 00001E00            IO.MLO         = 00000C00            IO.USI         = 00001330
IO.CON         = 00001B00            IO.MOD         = 00000600            IO.UTI         = 00001310
IO.CPR         = 00001B08            IO.MSO         = 00000A00            IO.UTY         = 00001318
IO.CPW         = 00001D50            IO.NLB         = 00001D58            IO.WAL         = 00000108
IO.CRC         = 00000220            IO.NLK         = 00001300            IO.WAT         = 00001700
IO.CRE         = 00001400            IO.ONL         = 00001F00            IO.WBT         = 00000140
IO.CRJ         = 00001B20            IO.R1C         = 00000500            IO.WDD         = 00000124
IO.CSI         = 00001600            IO.RAD         = 00001100            IO.WLB         = 00000100
IO.CSM         = 00001D38            IO.RAL         = 00000208            IO.WLC         = 00000110
IO.CTI         = 00001B00            IO.RAT         = 00001600            IO.WLS         = 00000108
IO.CTL         = 00001D00            IO.RBC         = 00000600            IO.WLT         = 00000108
IO.CTR         = 00001B88            IO.RCI         = 00001A00            IO.WLV         = 00000140
IO.CTY         = 00000700            IO.RCV         = 00001A00            IO.WMS         = 00000110
IO.DAC         = 00001000            IO.RDB         = 00000280            IO.WNS         = 00000110
IO.DCI         = 00001900            IO.RDD         = 00001008            IO.WPB         = 00000120
IO.DEL         = 00001500            IO.RDN         = 00000012            IO.WVB         = 00001200
IO.DET         = 00000400            IO.REL         = 00001700            IO.XMT         = 00001900
IO.DIS         = 00001C00            IO.RHD         = 00000208            IO.XNA         = 00001908
IO.DLB         = 00001D60            IO.RLB         = 00000200            IQ.Q           = 00000002
IO.DSI         = 00001700            IO.RLV         = 00000240            IQ.S           = 00000004
IO.DTI         = 00001C00            IO.RMT         = 00001010            IQ.UMD         = 00000004
IO.DTY         = 00000D00            IO.RNA         = 00000B00            IQ.X           = 00000001
IO.ENA         = 00000C00            IO.RNC         = 00000220            IS.BV          = 00000005
IO.EOF         = 00000600            IO.RNE         = 00000210            IS.CC          = 00000301
IO.EXT         = 00001300            IO.RNS         = 00000210            IS.CR          = 00000D01
IO.FDX         = 00000610            IO.RPB         = 00000220            IS.EOT         = 00000401
IO.FLN         = 00001500            IO.RPR         = 00000900            IS.ESC         = 00001B01
IO.FNA         = 00000900            IO.RST         = 00000201            IS.ESQ         = 00009B01
IO.GLC         = 00001D18            IO.RTC         = 00000700            IS.PES         = 00008001
IO.GLI         = 00001D10            IO.RTI         = 00001D00            IS.PND         = 00000000
IO.GNI         = 00001D08            IO.RTK         = 00000030            IS.RDD         = 00000002
IO.GRC         = 00001D28            IO.RTM         = 00000280            IS.SUC         = 00000001
IO.GRI         = 00001D20            IO.RVB         = 00001100            IS.TAB         = 00000901
IO.GRN         = 00001D30            IO.RWD         = 00000500            IS.TMO         = 00000002
IO.GTS         = 00000500            IO.RWU         = 00000560            I_ADR0           000000FC
IO.HDX         = 00000608            IO.SAO         = 00000800            I_ASCIINAME      00000140
IO.HIS         = 00001A00            IO.SCS         = 00001600            I_ASTPOOL        000000D0
IO.HNG         = 00000600            IO.SDI         = 00001600            I_ASTQUEUE       000000C8
IO.INI         = 00001900            IO.SDO         = 00001500            I_BAILOUTFP      00000188
IO.INL         = 00000500            IO.SEC         = 00000550            I_CMDROUT        000000E8
IO.ITI         = 00001E00            IO.SET         = 00000018            I_CURAST         00000198
IO.KIL         = 0000000A            IO.SLO         = 00000B00            I_DEBVEC         00000190
IO.LDI         = 00000E00            IO.SMO         = 00000570            I_DEBVECL        00000192
IO.LED         = 00001400            IO.SPB         = 00000510            I_FCBPOOL        000000D8
IO.LEI         = 00000F08            IO.SPF         = 00000520            I_FCC            000001B4
RSXDSKDRV       - RSX11M AME DISK DRIVER                         22-AUG-1978 05:14:03   VAX-11 MACRO X0.3-11               Page   9
SYMBOL TABLE                                                                                                                     (6)

I_FLOATA0        000001C0            LUT_INFONAME     0000002E            SV_NOAST         00000003
I_FLOATA1        000001C8            LUT_INFOUNIT     00000030            SV_PENDWAIT      00000005
I_FLOATA2        000001D0            LUT_LINK         00000000            SV_PWRAST        00000008
I_FLOATA3        000001D8            LUT_REALNAME     0000001E            SV_RCVAST        00000007
I_FLOATA4        000001E0            LUT_REF          00000008            SV_RESTORE       00000000
I_FLOATA5        000001E8            LUT_RSXNAME      00000010            SV_TRANSLATE     00000001
I_FLOATADR       000001B0            LUT_SIZE         00000036            SV_WAIT          00000006
I_FLOATAST       000001A4            LUT_TYPE         00000016            SYS$QIOW         ********   X   05
I_FLOATCSR       000001A8            PSL_CC         = 00000000            W.BATT           00000006
I_FLOATERR       000001AC            PSL_CM         = 0000001F            W.BFPD           0000000C
I_FLOATTMP       000001B8            PSL_FPD        = 0000001B            W.BHVR           00000004
I_GARD           000000EC            PSL_FU         = 00000006            W.BLGH           00000010
I_HIGHEFN        0000016C            PSL_TBIT       = 00000004            W.BLPD           0000000E
I_HIGHSIZE       000000F4            QIOV_FILES     = 00000000            W.BLVR           00000002
I_IMAGEVBN       000000F8            QIO_FLAGS        0000001A            W.BNPD           0000000D
I_INISIZE        000000F0            QIO_IOSB         0000000E            W.BOFF           0000000A
I_LENGTH         000001F0            QIO_LUT          00000016            W.BPCB           00000000
I_LOGNAME        000000E0            QIO_SECONDBLK    0000001C            W.BSIZ           00000008
I_LUT            00000168            QIO_SIZE         00000020
I_NLUN           00000164            RSX$A_OVDEV      ********   X   05
I_PC             00000020            RSX$C_SUBSYSTEM= 00000006
I_PPFINDEX       00000162            RSX$DLVRQIOAST   ********   X   05
I_PROCNAME       0000014C            RSX$DSK_DRV      00000000 RG    05
I_PS             00000024            RSX$FILEIO       ********   X   05
I_PWRAST         000001A0            RSX$IEIFC        ********   X   05
I_R0             00000000            RSX$IOKILL       ********   X   05
I_R1             00000004            RSX$ISSUQIO      ********   X   05
I_R2             00000008            RSX$OVERLAY      00000073 RG    05
I_R3             0000000C            RSX$_ACCVIO    = 00068044
I_R4             00000010            RSX$_BADLIBREF = 0006806C
I_R5             00000014            RSX$_BADSTACK  = 0006804C
I_R6             00000018            RSX$_BREAK     = 0006800C
I_RAD50NAME      00000148            RSX$_EXITSTATUS= 00068640
I_RCVAST         0000019C            RSX$_EXTERNABRT= 0006805C
I_RCVMAIL        00000160            RSX$_ILLINST   = 0006802C
I_RUNFLAGS       0000018C            RSX$_IMAGETERM = 00068084
I_SCRATCH        00000028            RSX$_INSFDYNMEM= 00068054
I_SSTVEC         00000194            RSX$_IOT       = 00068014
I_SSTVECL        00000196            RSX$_LIBNOTFND = 00068074
I_STATE          00000170            RSX$_LOADERROR = 0006807C
I_TYPE           0000001C            RSX$_NOCOMM    = 00068094
I_UIC            0000013C            RSX$_NONRSXEMT = 0006801C
I_WAIT           00000178            RSX$_NOPMD     = 00068332
I_WAITSAVE       00000180            RSX$_NOSUCHDEV = 00068322
LUTC_CR        = 00000005            RSX$_NOTSKIMG  = 00068064
LUTC_DISK      = 00000002            RSX$_ODDADDR   = 00068034
LUTC_LP        = 00000004            RSX$_PMD       = 0006832A
LUTC_RMS       = 00000000            RSX$_RCVMBXSIZ = 0000012C
LUTC_TAPE      = 00000003            RSX$_REGMSG    = 0006808C
LUTC_TRM       = 00000001            RSX$_RESERVED  = 00068004
LUTV_CTRLC     = 00000002            RSX$_TBIT      = 0006803C
LUTV_CTRLO     = 00000000            RSX$_TRAP      = 00068024
LUTV_PRM       = 00000003            RSX$_VERIFYCMD = 00068648
LUT_CHAN         0000000C            SS$_INSFWSL      ********   X   05
LUT_CHAR         00000012            SV_ASTLVL        00000004
LUT_CTRLC        00000032            SV_DCL           00000002
LUT_FLAGS        0000000A            SV_FLOATAST      00000009
RSXDSKDRV       - RSX11M AME DISK DRIVER                         22-AUG-1978 05:14:03   VAX-11 MACRO X0.3-11               Page  10
PROGRAM SECTION SYNOPSIS                                                                                                         (6)


PROGRAM SECTION SYNOPSIS

.  ABS  .        00000000      00     NOPIC   USR   CON   ABS   LCL NOSHR NOEXE NORD  NOWRT BYTE
. BLANK .        00000000      01     NOPIC   USR   CON   REL   LCL NOSHR   EXE   RD    WRT BYTE
..ABS.           00000042      02     NOPIC   USR   CON   ABS   LCL NOSHR   EXE   RD    WRT BYTE
$ABS$            00000000      03     NOPIC   USR   CON   ABS   LCL NOSHR   EXE   RD    WRT BYTE
RSXDEF           000001F4      04     NOPIC   USR   CON   ABS   LCL NOSHR   EXE   RD    WRT BYTE
RSXCODE          00000138      05       PIC   USR   CON   REL   LCL   SHR   EXE   RD  NOWRT BYTE


THERE WERE NO ERRORS OR WARNINGS.
12022. BYTES LEFT IN FREE MEMORY POOL.
2670. BYTES OF RECLAIMED MEMORY.
OBJ$:RSXDSKDRV,LIS$:RSXDSKDRV/-SP=EXECML$/ML,LIB$:R/ML,SRC$:RSXDSKDRV
27 MLB DIR RDS - 637 GETS TO DEFINE 21 MACROS. 18 INTER. FILE WRITES.
