RSXDATAS        - RSX PURE AND IMPURE DATA STORAGE               22-AUG-1978 05:06:20   VAX-11 MACRO X0.3-11               Page   0
TABLE OF CONTENTS

   (2)      64  PURE STORAGE
   (3)     153  IMPURE STORAGE
RSXDATAS        - RSX PURE AND IMPURE DATA STORAGE               22-AUG-1978 05:06:20   VAX-11 MACRO X0.3-11               Page   1
V06.0                                                                                                                            (1)

                                     0000     1 	.TITLE	RSXDATAS - RSX PURE AND IMPURE DATA STORAGE
                                     0000     2 	.IDENT	/V06.0/
                                     0000     3 ;
                                     0000     4 ; COPYRIGHT (C) 1978
                                     0000     5 ; DIGITAL EQUIPMENT CORPORATION, MAYNARD, MASS.
                                     0000     6 ;
                                     0000     7 ; THIS SOFTWARE IS FURNISHED UNDER  A LICENSE FOR USE ONLY  ON  A
                                     0000     8 ; SINGLE COMPUTER SYSTEM AND MAY BE  COPIED ONLY WITH  THE INCLU-
                                     0000     9 ; SION OF  THE  ABOVE  COPYRIGHT NOTICE.  THIS SOFTWARE,  OR  ANY
                                     0000    10 ; OTHER COPIES THEREOF, MAY NOT BE  PROVIDED  OR  OTHERWISE  MADE
                                     0000    11 ; AVAILABLE TO ANY OTHER PERSON EXCEPT  FOR  USE  ON  SUCH SYSTEM
                                     0000    12 ; AND TO  ONE WHO AGREES  TO  THESE LICENSE  TERMS.  TITLE TO AND
                                     0000    13 ; OWNERSHIP OF THE SOFTWARE SHALL AT ALL TIMES REMAIN IN DEC.
                                     0000    14 ;
                                     0000    15 ; THE INFORMATION IN THIS SOFTWARE  IS  SUBJECT TO CHANGE WITHOUT
                                     0000    16 ; NOTICE AND SHOULD NOT BE CONSTRUED  AS  A COMMITMENT BY DIGITAL
                                     0000    17 ; EQUIPMENT CORPORATION.
                                     0000    18 ;
                                     0000    19 ; DEC ASSUMES NO RESPONSIBILITY FOR THE USE OR RELIABILITY OF ITS
                                     0000    20 ; SOFTWARE ON EQUIPMENT WHICH IS NOT SUPPLIED BY DEC.
                                     0000    21 ;
                                     0000    22 ;++
                                     0000    23 ;
                                     0000    24 ; FACILITY:
                                     0000    25 ;
                                     0000    26 ;	VAX/VMS RSX11M AME
                                     0000    27 ;
                                     0000    28 ; ABSTRACT:
                                     0000    29 ;
                                     0000    30 ; 	DEFINITION FILE FOR THE RSX PURE AND IMPURE DATA AREA
                                     0000    31 ;--
                                     0000    32 ;
                                     0000    33 ; AUTHOR: R.HEINEN  15-FEB-77
                                     0000    34 ;
                                     0000    35 ;
                                     0000    36 ; EXTERNAL DEFINITIONS
                                     0000    37 ;
                                     0000    38 	$DCDEF				; DEFINE DEVICE CLASSES AND TYPES
                                     0000    39 	$RSXDEF				; DEFINE RSX INTERNAL SYMBOLS
                                     0000    40 	$FABDEF				; DEFINE FAB
                                     0000    41 	IOERR$				; DEFINE I/O ERROR CODES
                                     0000    42 ;
                                     0000    43 ; LOCAL MACRO
                                     0000    44 ;
                                     0000    45 	.MACRO	DEVDEF	AA,B,C,D
                                     0000    46 	.LONG	0,0
                                     0000    47 	.WORD	1,'C
                                     0000    48 	.LONG	0
                                     0000    49 	.WORD	^A/'AA/
                                     0000    50 	.LONG	0,0,0
                                     0000    51 	.NCHR	XX,<'D>
                                     0000    52 	.BYTE	XX
                                     0000    53 	.ASCII	/'D:/
                                     0000    54 	.BLKB	16-XX-2
                                     0000    55 	.WORD	^A/'B/
                                     0000    56 	.WORD	0
                                     0000    57 	.LONG	0
RSXDATAS        - RSX PURE AND IMPURE DATA STORAGE               22-AUG-1978 05:06:20   VAX-11 MACRO X0.3-11               Page   2
V06.0                                                                                                                            (1)

                                     0000    58 	.ENDM
                                     0000    59 ;
                                     0000    60 	.MACRO	ERRDEF	VAX,RSX
                                     0000    61 	.WORD	SS$_'VAX,IE.'RSX
                                     0000    62 	.ENDM
RSXDATAS        - RSX PURE AND IMPURE DATA STORAGE               22-AUG-1978 05:06:20   VAX-11 MACRO X0.3-11               Page   3
V06.0           PURE STORAGE                                                                                                     (2)

                                     0000    64 	.SBTTL	PURE STORAGE
                                     0000    65
                                 00000000    66 	.PSECT	RSXPURE,EXE,NOWRT,LONG,SHR,PIC
                                     0000    67 ;
                                     0000    68 ; SYSTEM PERMANENT FILE NAME STRINGS AND FILE DEFAULTS
                                     0000    69 ;
                                 09' 0000    70 RSX$T_SYSINPUT::	.BYTE	RSX$S_SYSINPUT
      3A 54 55 50 4E 49 24 53 59 53  0001    71 RSX$A_SYSINPUT::	.ASCII	/SYS$INPUT:/
                           00000009  000B    72 RSX$S_SYSINPUT==.-RSX$A_SYSINPUT-1
                                     000B    73 ;
                                 0A' 000B    74 RSX$T_SYSOUTPUT::	.BYTE	RSX$S_SYSOUT
   3A 54 55 50 54 55 4F 24 53 59 53  000C    75 RSX$A_SYSOUT::		.ASCII	/SYS$OUTPUT:/
                           0000000A  0017    76 RSX$S_SYSOUT==.-RSX$A_SYSOUT-1
                                     0017    77 ;
                                 09' 0017    78 RSX$T_SYSERROR::	.BYTE	RSX$S_SYSERR
      3A 52 4F 52 52 45 24 53 59 53  0018    79 RSX$A_SYSERR::	.ASCII	/SYS$ERROR:/
                           00000009  0022    80 RSX$S_SYSERR==.-RSX$A_SYSERR-1
                                     0022    81 ;
                                 0B' 0022    82 RSX$T_SYSCMD::		.BYTE	RSX$S_SYSCMD
3A 44 4E 41 4D 4D 4F 43 24 53 59 53  0023    83 RSX$A_SYSCMD::		.ASCII	/SYS$COMMAND:/
                           0000000B  002F    84 RSX$S_SYSCMD==.-RSX$A_SYSCMD-1
                                     002F    85 ;
         4B 53 49 44 24 53 59 53 00' 002F    86 RSX$T_SYSDISK::		.ASCIC	/SYS$DISK/
                                 08  002F
3A 4D 45 54 53 59 53 24 53 59 53 00' 0038    87 RSX$T_SYSDEF::		.ASCIC	/SYS$SYSTEM:.EXE/
                        45 58 45 2E  0044
                                 0F  0038
45 2E 3A 4B 53 49 44 24 53 59 53 00' 0048    88 RSX$T_USERDEF::		.ASCIC	/SYS$DISK:.EXE/
                              45 58  0054
                                 0D  0048
59 52 41 52 42 49 4C 24 53 59 53 00' 0056    89 RSX$T_LIBDEF::		.ASCIC	/SYS$LIBRARY:.EXE/
                     45 58 45 2E 3A  0062
                                 10  0056
      54 4E 49 52 50 24 53 59 53 00' 0067    90 RSX$T_SYSPRINT::	.ASCIC	/SYS$PRINT/
                                 09  0067
                                     0071    91 ;
                                     0071    92 ; CONVERSIONS FROM DEVICE TYPE TO INTERNAL RSX CODES
                                     0071    93 ;
                                     0071    94 RSX$A_DEVTYPE::				;
                                 42  0071    95 	.BYTE	DC$_TERM		;
                                 01  0072    96 	.BYTE	DC$_DISK
                                 02  0073    97 	.BYTE	DC$_TAPE
                                 43  0074    98 	.BYTE	DC$_LP
                                 41  0075    99 	.BYTE	DC$_CARD
                                 00  0076   100 	.BYTE	0
                                     0077   101 ;
                                     0077   102 ; STATUS RETURN CONVERSION TABLE
                                     0077   103 ;
                                     0077   104 RSX$A_RSXQIOERR::			; RSX QIO ERROR CODES
                                     0077   105 	ERRDEF	ABORT,ABO
                                     007B   106 	ERRDEF	NOMOREFILES,NSF
                                     007F   107 	ERRDEF	ACCVIO,SPC
                                     0083   108 	ERRDEF	WRITLCK,WLK
                                     0087   109 	ERRDEF	DEVNOTMOUNT,DNR
                                     008B   110 	ERRDEF	BADESCAPE,IES
                                     008F   111 	ERRDEF	PARTESCAPE,PES
                                     0093   112 	ERRDEF	VECINUSE,RSU
RSXDATAS        - RSX PURE AND IMPURE DATA STORAGE               22-AUG-1978 05:06:20   VAX-11 MACRO X0.3-11               Page   4
V06.0           PURE STORAGE                                                                                                     (2)

                                     0097   113 	ERRDEF	BADPARAM,BAD
                                     009B   114 	ERRDEF	DEVALLOC,DAA
                                     009F   115 	ERRDEF	DEVNOTALLOC,DNA
                                     00A3   116 	ERRDEF	DEVOFFLINE,OFL
                                     00A7   117 	ERRDEF	ENDOFFILE,EOF
                                     00AB   118 	ERRDEF	EXQUOTA,NOD
                                     00AF   119 	ERRDEF	FILNOTACC,NLN
                                     00B3   120 	ERRDEF	ILLBLKNUM,BLK
                                     00B7   121 	ERRDEF	ILLIOFUNC,IFC
                                     00BB   122 	ERRDEF	MBFULL,RSU
                                     00BF   123 	ERRDEF	MBTOOSML,DAO
                                     00C3   124 	ERRDEF	NOPRIV,PRI
                                     00C7   125 	ERRDEF	PARTESCAPE,PES
                                     00CB   126 	ERRDEF	TIMEOUT,TMO
                                     00CF   127 	ERRDEF	FILALRACC,ALN
                                     00D3   128 	ERRDEF	FILNOTACC,NLN
                                     00D7   129 	ERRDEF	BADCHKSUM,CKS
                                     00DB   130 	ERRDEF	BADFILEHDR,BHD
                                     00DF   131 	ERRDEF	BADFILENAME,BAD
                                     00E3   132 	ERRDEF	BADFILEVER,BVR
                                     00E7   133 	ERRDEF	BADATTRIB,WAT
                                     00EB   134 	ERRDEF	BADIRECTORY,BDR
                                     00EF   135 	ERRDEF	FCPREADERR,RER
                                     00F3   136 	ERRDEF	FCPWRITERR,WER
                                     00F7   137 	ERRDEF	FILELOCKED,CLO
                                     00FB   138 	ERRDEF	FILENUMCHK,SNC
                                     00FF   139 	ERRDEF	FILESEQCHK,SQC
                                     0103   140 	ERRDEF	FILESTRUCT,BHD
                                     0107   141 	ERRDEF	NOSUCHFILE,NSF
                                     010B   142 	ERRDEF	ACCONFLICT,LCK
                                     010F   143 	ERRDEF	DEVICEFULL,DFU
                                     0113   144 	ERRDEF	HEADERFULL,HFU
                                     0117   145 	ERRDEF	BUFFEROVF,DAO
                                     011B   146 	ERRDEF	DUPFILENAME,DUP
                                     011F   147 	ERRDEF	ENDOFTAPE,EOT
                                     0123   148 	ERRDEF	BEGOFFILE,EOT
                                     0127   149 	ERRDEF	FILNOTEXP,EXP
                                     012B   150 	ERRDEF	DATAOVERUN,DAO
                          0000 0000  012F   151 	.WORD	0,0
RSXDATAS        - RSX PURE AND IMPURE DATA STORAGE               22-AUG-1978 05:06:20   VAX-11 MACRO X0.3-11               Page   5
V06.0           IMPURE STORAGE                                                                                                   (3)

                                     0133   153 	.SBTTL	IMPURE STORAGE
                                     0133   154
                                 00000000   155 	.PSECT	RSXIMPURE,EXE,LONG,NOSHR
                                     0000   156
                                     0000   157 	.ALIGN	LONG
                                     0000   158
                                     0000   159 RSX$G_LOWP0ADDR::			; STORAGE FOR GARBAGE COLLECTION
                  00000000 00000000  0000   160 	.LONG	0,0			;
                                     0008   161 RSX$A_POOL::				; POOL ADDRESS
                  00000000 00000000  0008   162 	.LONG	0,0			;
                                     0010   163 RSX$A_EXITBLOCK::			; EXIT BLOCK
                           00000000  0010   164 	.LONG	0			;
                           00000000' 0014   165 	.LONG	RSX$FORCEEXIT		; ADDRESS OF SERVICE ROUTINE
                           00000000  0018   166 	.LONG	0			; NO ARGUMENTS
                           0000001C' 001C   167 	.LONG	.			; ADDRESS TO STORE ARG
                                     0020   168 ;
                                     0020   169 ; RAB AND FAB FOR ACCESS TO ALL PROCESS PERMANENT FILES
                                     0020   170 ;
                                     0020   171 RSX$G_RAB::				;
                                     0020   172 	$RAB				;
                                     0064   173 RSX$G_FAB::				;
                                     0064   174 	$FAB
                                     00B4   175 ;
                                     00B4   176 ; PRE-DEFINED LOGICAL NAME ENTRIES
                                     00B4   177 ;
                                     00B4   178 RSX$A_TIIDEV::				; TI DESC. FOR INPUT
                                     00B4   179 	DEVDEF	<TI>,<$I>,<1@LUTV_PRM>,<SYS$INPUT>
                                     00EA   180 RSX$A_TIODEV::				; TI OUTPUT DESC.
                                     00EA   181 	DEVDEF	<TI>,<$O>,<1@LUTV_PRM>,<SYS$OUTPUT>
                                     0120   182 RSX$A_CLDEV::				; CL OR ERROR DEVICE
                                     0120   183 	DEVDEF	<CL>,<$E>,<1@LUTV_PRM>,<SYS$ERROR>
                                     0156   184 RSX$A_CODEV::				; CO DESC.
                                     0156   185 	DEVDEF	<CO>,<$C>,<1@LUTV_PRM>,<SYS$COMMAND>
                                     018C   186 RSX$A_SYDEV::				; SY DESC.
                                     018C   187 	DEVDEF	<SY>,<  >,0,<SYS$DISK>
                                     01C2   188 RSX$A_OVDEV::				; OV DESC.
                                     01C2   189 	DEVDEF	<OV>,<  >,0,<SYS$DISK>
                                     01F8   190 	.END
RSXDATAS        - RSX PURE AND IMPURE DATA STORAGE               22-AUG-1978 05:06:20   VAX-11 MACRO X0.3-11               Page   6
SYMBOL TABLE                                                                                                                     (3)

$$.TAB         = 00000064 R     06   DT$_VT52       = 00000040            FAB$M_EXE      = 00000080
$$.TABEND      = 000000B4 R     06   DT$_VT55       = 00000041            FAB$M_FTN      = 00000001
$$.TMP         = 00000000            DT$_VT5X       = 00000040            FAB$M_GET      = 00000002
$$MSG          = 00000000            DT$_XM_ALMA    = 00000009            FAB$M_INP      = 00080000
...GBL         = 00000000            DT$_XM_ALMD    = 0000000A            FAB$M_JNL      = 00400000
ACBC_CTLRCAST  = 00000002            DT$_XM_ARDA    = 00000001            FAB$M_KFO      = 40000000
ACBC_FLOATAST  = 00000003            DT$_XM_ARFA    = 00000002            FAB$M_MSE      = 00000010
ACBC_PWRAST    = 00000000            FAB$B_BID        00000000            FAB$M_MXV      = 00000002
ACBC_RCVAST    = 00000001            FAB$B_BKS        0000003E            FAB$M_NAM      = 01000000
ACBV_INPROG    = 00000001            FAB$B_BLN        00000001            FAB$M_NEF      = 00000400
ACBV_PERM      = 00000000            FAB$B_DNS        00000035            FAB$M_NFS      = 00010000
ACBV_TYPE      = 00000008            FAB$B_FAC        00000016            FAB$M_NIL      = 00000020
ACB_FLAGS        0000000C            FAB$B_FNS        00000034            FAB$M_OFP      = 20000000
ACB_LINK         00000000            FAB$B_FSZ        0000003F            FAB$M_POS      = 00000100
ACB_UPC          0000000A            FAB$B_ORG        0000001D            FAB$M_PPF      = 00040000
ACB_UPRM         00000008            FAB$B_RAT        0000001E            FAB$M_PPF_IND  = 00004000
ADR_HIGHLIM      00000004            FAB$B_RFM        0000001F            FAB$M_PPF_RAT  = 00003FC0
ADR_LOWLIM       00000000            FAB$B_RTV        0000001C            FAB$M_PRN      = 00000004
ADR_SIZE         00000008            FAB$B_SHR        00000017            FAB$M_PUT      = 00000001
AP_NAME          00000004            FAB$C_BID      = 00000003            FAB$M_RCK      = 00800000
AST_PARAM        00000004            FAB$C_BLN        00000050            FAB$M_RWC      = 00000800
AST_PC           00000010            FAB$C_FIX      = 00000001            FAB$M_RWO      = 00000080
AST_PSL          00000014            FAB$C_HSH      = 00000030            FAB$M_SCF      = 00004000
AST_R0           00000008            FAB$C_IDX      = 00000020            FAB$M_SHRDEL   = 00000004
AST_R1           0000000C            FAB$C_MAXRFM   = 00000003            FAB$M_SHRGET   = 00000002
AT$_MBA        = 00000000            FAB$C_REL      = 00000010            FAB$M_SHRPUT   = 00000001
AT$_UBA        = 00000001            FAB$C_RFM_DFLT = 00000002            FAB$M_SHRUPD   = 00000008
BIT...         = 00000020            FAB$C_SEQ      = 00000000            FAB$M_SPL      = 00002000
C_CANONPS      = 83C00000            FAB$C_UDF      = 00000000            FAB$M_SQO      = 00000040
C_RCVDSTR      = 44564352            FAB$C_VAR      = 00000002            FAB$M_SUP      = 00000004
DC$_CARD       = 00000041            FAB$C_VFC      = 00000003            FAB$M_TEF      = 10000000
DC$_DISK       = 00000001            FAB$K_BLN        00000050            FAB$M_TMD      = 00000010
DC$_LP         = 00000043            FAB$L_ALQ        00000010            FAB$M_TMP      = 00000008
DC$_MAILBOX    = 000000A0            FAB$L_CTX        00000018            FAB$M_TRN      = 00000010
DC$_SCOM       = 00000020            FAB$L_DEV        00000040            FAB$M_UFM      = 04000000
DC$_TAPE       = 00000002            FAB$L_DNA        00000030            FAB$M_UFO      = 00020000
DC$_TERM       = 00000042            FAB$L_FNA        0000002C            FAB$M_UPD      = 00000008
DT$_CR11       = 00000001            FAB$L_FOP        00000004            FAB$M_UPI      = 00000040
DT$_LA11       = 00000002            FAB$L_JNL        00000020            FAB$M_WCK      = 00000200
DT$_LA180      = 00000003            FAB$L_MRN        00000038            FAB$S_ORG      = 00000004
DT$_LA36       = 00000020            FAB$L_NAM        00000028            FAB$S_PPF_RAT  = 00000008
DT$_LAX        = 00000020            FAB$L_SDC        00000044            FAB$V_BIO      = 00000005
DT$_LP11       = 00000001            FAB$L_STS        00000008            FAB$V_BLK      = 00000003
DT$_MBX        = 00000001            FAB$L_STV        0000000C            FAB$V_BRO      = 00000006
DT$_RK06       = 00000001            FAB$L_XAB        00000024            FAB$V_CBT      = 00000015
DT$_RK07       = 00000002            FAB$M_BIO      = 00000020            FAB$V_CIF      = 00000019
DT$_RM03       = 00000006            FAB$M_BLK      = 00000008            FAB$V_CR       = 00000001
DT$_RP04       = 00000003            FAB$M_BRO      = 00000040            FAB$V_CTG      = 00000014
DT$_RP05       = 00000004            FAB$M_CBT      = 00200000            FAB$V_DEL      = 00000002
DT$_RP06       = 00000005            FAB$M_CIF      = 02000000            FAB$V_DFW      = 00000005
DT$_RP07       = 00000007            FAB$M_CR       = 00000002            FAB$V_DLT      = 0000000F
DT$_RP07HT     = 00000008            FAB$M_CTG      = 00100000            FAB$V_DMO      = 0000000C
DT$_TE16       = 00000001            FAB$M_DEL      = 00000004            FAB$V_ESC      = 0000001B
DT$_TTYUNKN    = 00000000            FAB$M_DFW      = 00000020            FAB$V_EXE      = 00000007
DT$_TU45       = 00000002            FAB$M_DLT      = 00008000            FAB$V_FTN      = 00000000
DT$_TU77       = 00000003            FAB$M_DMO      = 00001000            FAB$V_GET      = 00000001
DT$_VT05       = 00000001            FAB$M_ESC      = 08000000            FAB$V_INP      = 00000013
RSXDATAS        - RSX PURE AND IMPURE DATA STORAGE               22-AUG-1978 05:06:20   VAX-11 MACRO X0.3-11               Page   7
SYMBOL TABLE                                                                                                                     (3)

FAB$V_JNL      = 00000016            H.CUIC           00000008            IE.DUP         = FFFFFFC7
FAB$V_KFO      = 0000001E            H.DSW            00000026            IE.EOF         = FFFFFFF6
FAB$V_MSE      = 00000004            H.DUIC           0000000A            IE.EOT         = FFFFFFC2
FAB$V_MXV      = 00000001            H.EFLM           00000004            IE.EOV         = FFFFFFF5
FAB$V_NAM      = 00000018            H.EFSV           00000020            IE.EXP         = FFFFFFB5
FAB$V_NEF      = 0000000A            H.FCS            00000028            IE.FEX         = FFFFFFCF
FAB$V_NFS      = 00000010            H.FORT           0000002A            IE.FHE         = FFFFFFC5
FAB$V_NIL      = 00000005            H.FPSA           00000022            IE.FLN         = FFFFFFAF
FAB$V_OFP      = 0000001D            H.FPVA           0000001C            IE.FOP         = FFFFFFCB
FAB$V_ORG      = 00000004            H.GARD           0000003A            IE.HFU         = FFFFFFE4
FAB$V_POS      = 00000008            H.HDLN           00000002            IE.IES         = FFFFFFAE
FAB$V_PPF      = 00000012            H.IPC            0000000E            IE.IFC         = FFFFFFFE
FAB$V_PPF_IND  = 0000000E            H.IPS            0000000C            IE.IFU         = FFFFFFE7
FAB$V_PPF_RAT  = 00000006            H.ISP            00000010            IE.ILL         = FFFFFFD6
FAB$V_PRN      = 00000002            H.LUN            0000003E            IE.ISQ         = FFFFFFC3
FAB$V_PUT      = 00000000            H.NLUN           0000003C            IE.LCK         = FFFFFFE5
FAB$V_RCK      = 00000017            H.NML            00000031            IE.MOD         = FFFFFFEB
FAB$V_RWC      = 0000000B            H.ODVA           00000012            IE.NBF         = FFFFFFD9
FAB$V_RWO      = 00000007            H.ODVL           00000014            IE.NBK         = FFFFFFD7
FAB$V_SCF      = 0000000E            H.OVLY           0000002C            IE.NDR         = FFFFFFB8
FAB$V_SHRDEL   = 00000002            H.PFVA           0000001A            IE.NFI         = FFFFFFC4
FAB$V_SHRGET   = 00000001            H.RCVA           0000001E            IE.NFW         = FFFFFFBB
FAB$V_SHRPUT   = 00000000            H.RRVA           00000032            IE.NLK         = FFFFFFB1
FAB$V_SHRUPD   = 00000003            H.SPRI           00000030            IE.NLN         = FFFFFFDB
FAB$V_SPL      = 0000000D            H.TKVA           00000016            IE.NNC         = FFFFFFB3
FAB$V_SQO      = 00000006            H.TKVL           00000018            IE.NNL         = FFFFFFB2
FAB$V_SUP      = 00000002            H.VEXT           0000002E            IE.NNN         = FFFFFFBC
FAB$V_TEF      = 0000001C            H.WND            00000024            IE.NOD         = FFFFFFE9
FAB$V_TMD      = 00000004            IE.2DV         = FFFFFFD0            IE.NSF         = FFFFFFE6
FAB$V_TMP      = 00000003            IE.ABO         = FFFFFFF1            IE.NST         = FFFFFFB0
FAB$V_TRN      = 00000004            IE.ALC         = FFFFFFAC            IE.OFL         = FFFFFFBF
FAB$V_UFM      = 0000001A            IE.ALN         = FFFFFFDE            IE.ONP         = FFFFFFFB
FAB$V_UFO      = 00000011            IE.AST         = FFFFFFB0            IE.OVR         = FFFFFFEE
FAB$V_UPD      = 00000003            IE.BAD         = FFFFFFFF            IE.PES         = FFFFFFAD
FAB$V_UPI      = 00000006            IE.BBE         = FFFFFFC8            IE.PRI         = FFFFFFF0
FAB$V_WCK      = 00000009            IE.BCC         = FFFFFFBE            IE.RAC         = FFFFFFD4
FAB$W_BLS        0000003C            IE.BDI         = FFFFFFCC            IE.RAT         = FFFFFFD3
FAB$W_DEQ        00000014            IE.BDR         = FFFFFFCE            IE.RBG         = FFFFFFD8
FAB$W_IFI        00000002            IE.BDV         = FFFFFFC9            IE.RCN         = FFFFFFD2
FAB$W_MRS        00000036            IE.BHD         = FFFFFFC0            IE.RER         = FFFFFFE0
FCB_ATTRIBS      0000007C            IE.BLB         = FFFFFFBA            IE.RNM         = FFFFFFCD
FCB_FIB          0000004C            IE.BLK         = FFFFFFEC            IE.RSU         = FFFFFFEF
FCB_FID          00000000            IE.BNM         = FFFFFFCA            IE.SNC         = FFFFFFDD
FCB_FNAME        00000014            IE.BTF         = FFFFFFB4            IE.SPC         = FFFFFFFA
FCB_FNAMEDESC    0000000C            IE.BTP         = FFFFFFD5            IE.SQC         = FFFFFFDC
FCB_FNB          00000002            IE.BVR         = FFFFFFC1            IE.SRE         = FFFFFFF2
FCB_PC           00000078            IE.BYT         = FFFFFFED            IE.STK         = FFFFFFC6
FCB_RESULT       00000030            IE.CKS         = FFFFFFE2            IE.TMM         = FFFFFFB9
FCB_RESULTDESC   00000004            IE.CLO         = FFFFFFDA            IE.TMO         = FFFFFFB6
FCB_SIZE         000000B4            IE.CNR         = FFFFFFB7            IE.ULK         = FFFFFFAB
FP_AP            00000008            IE.CON         = FFFFFFEA            IE.VER         = FFFFFFFC
FP_FP            0000000C            IE.DAA         = FFFFFFF8            IE.WAC         = FFFFFFE3
FP_PC            00000010            IE.DAO         = FFFFFFF3            IE.WAT         = FFFFFFE1
FP_PSL           00000004            IE.DFU         = FFFFFFE8            IE.WCK         = FFFFFFAA
FP_REGISTERS     00000014            IE.DNA         = FFFFFFF9            IE.WER         = FFFFFFDF
GBL...         = 00000000            IE.DNR         = FFFFFFFD            IE.WLK         = FFFFFFF4
H.CSP            00000000            IE.DUN         = FFFFFFF7            IS.BV          = 00000005
RSXDATAS        - RSX PURE AND IMPURE DATA STORAGE               22-AUG-1978 05:06:20   VAX-11 MACRO X0.3-11               Page   8
SYMBOL TABLE                                                                                                                     (3)

IS.CC          = 00000301            I_RUNFLAGS       0000018C            RAB$C_SEQ      = 00000000
IS.CR          = 00000D01            I_SCRATCH        00000028            RAB$K_BLN        00000044
IS.EOT         = 00000401            I_SSTVEC         00000194            RAB$L_BKT        00000038
IS.ESC         = 00001B01            I_SSTVECL        00000196            RAB$L_CTX        00000018
IS.ESQ         = 00009B01            I_STATE          00000170            RAB$L_DCT        00000038
IS.PES         = 00008001            I_TYPE           0000001C            RAB$L_FAB        0000003C
IS.PND         = 00000000            I_UIC            0000013C            RAB$L_KBF        00000030
IS.RDD         = 00000002            I_WAIT           00000178            RAB$L_PBF        00000030
IS.SUC         = 00000001            I_WAITSAVE       00000180            RAB$L_RBF        00000028
IS.TAB         = 00000901            LUTC_CR        = 00000005            RAB$L_RFA0       00000010
IS.TMO         = 00000002            LUTC_DISK      = 00000002            RAB$L_RHB        0000002C
I_ADR0           000000FC            LUTC_LP        = 00000004            RAB$L_ROP        00000004
I_ASCIINAME      00000140            LUTC_RMS       = 00000000            RAB$L_STS        00000008
I_ASTPOOL        000000D0            LUTC_TAPE      = 00000003            RAB$L_STV        0000000C
I_ASTQUEUE       000000C8            LUTC_TRM       = 00000001            RAB$L_UBF        00000024
I_BAILOUTFP      00000188            LUTV_CTRLC     = 00000002            RAB$M_ASY      = 00000001
I_CMDROUT        000000E8            LUTV_CTRLO     = 00000000            RAB$M_BIO      = 00000800
I_CURAST         00000198            LUTV_PRM       = 00000003            RAB$M_CCO      = 80000000
I_DEBVEC         00000190            LUT_CHAN         0000000C            RAB$M_CVT      = 04000000
I_DEBVECL        00000192            LUT_CHAR         00000012            RAB$M_EOF      = 00000100
I_FCBPOOL        000000D8            LUT_CTRLC        00000032            RAB$M_FDL      = 00000040
I_FCC            000001B4            LUT_FLAGS        0000000A            RAB$M_HSH      = 00000080
I_FLOATA0        000001C0            LUT_INFONAME     0000002E            RAB$M_KGE      = 00200000
I_FLOATA1        000001C8            LUT_INFOUNIT     00000030            RAB$M_KGT      = 00400000
I_FLOATA2        000001D0            LUT_LINK         00000000            RAB$M_LIM      = 00004000
I_FLOATA3        000001D8            LUT_REALNAME     0000001E            RAB$M_LOA      = 00002000
I_FLOATA4        000001E0            LUT_REF          00000008            RAB$M_LOC      = 00010000
I_FLOATA5        000001E8            LUT_RSXNAME      00000010            RAB$M_MAS      = 00000020
I_FLOATADR       000001B0            LUT_SIZE         00000036            RAB$M_NLK      = 00100000
I_FLOATAST       000001A4            LUT_TYPE         00000016            RAB$M_NXR      = 00800000
I_FLOATCSR       000001A8            PSL_CC         = 00000000            RAB$M_PMT      = 40000000
I_FLOATERR       000001AC            PSL_CM         = 0000001F            RAB$M_PPF_IND  = 00004000
I_FLOATTMP       000001B8            PSL_FPD        = 0000001B            RAB$M_PPF_RAT  = 00003FC0
I_GARD           000000EC            PSL_FU         = 00000006            RAB$M_PTA      = 20000000
I_HIGHEFN        0000016C            PSL_TBIT       = 00000004            RAB$M_RAH      = 00000200
I_HIGHSIZE       000000F4            QIOV_FILES     = 00000000            RAB$M_RLK      = 00080000
I_IMAGEVBN       000000F8            QIO_FLAGS        0000001A            RAB$M_RNE      = 01000000
I_INISIZE        000000F0            QIO_IOSB         0000000E            RAB$M_RNF      = 08000000
I_LENGTH         000001F0            QIO_LUT          00000016            RAB$M_TMO      = 02000000
I_LOGNAME        000000E0            QIO_SECONDBLK    0000001C            RAB$M_TPT      = 00000002
I_LUT            00000168            QIO_SIZE         00000020            RAB$M_UIF      = 00000010
I_NLUN           00000164            RAB$B_BID        00000000            RAB$M_ULK      = 00040000
I_PC             00000020            RAB$B_BLN        00000001            RAB$M_WAT      = 00020000
I_PPFINDEX       00000162            RAB$B_KRF        00000035            RAB$M_WBH      = 00000400
I_PROCNAME       0000014C            RAB$B_KSZ        00000034            RAB$S_PPF_RAT  = 00000008
I_PS             00000024            RAB$B_MBC        00000037            RAB$V_ASY      = 00000000
I_PWRAST         000001A0            RAB$B_MBF        00000036            RAB$V_BIO      = 0000000B
I_R0             00000000            RAB$B_PSZ        00000034            RAB$V_CCO      = 0000001F
I_R1             00000004            RAB$B_RAC        0000001E            RAB$V_CVT      = 0000001A
I_R2             00000008            RAB$B_ROP1       00000005            RAB$V_EOF      = 00000008
I_R3             0000000C            RAB$B_ROP2       00000006            RAB$V_FDL      = 00000006
I_R4             00000010            RAB$B_ROP3       00000007            RAB$V_HSH      = 00000007
I_R5             00000014            RAB$B_TMO        0000001F            RAB$V_KGE      = 00000015
I_R6             00000018            RAB$C_BID      = 00000001            RAB$V_KGT      = 00000016
I_RAD50NAME      00000148            RAB$C_BLN        00000044            RAB$V_LIM      = 0000000E
I_RCVAST         0000019C            RAB$C_KEY      = 00000001            RAB$V_LOA      = 0000000D
I_RCVMAIL        00000160            RAB$C_RFA      = 00000002            RAB$V_LOC      = 00000010
RSXDATAS        - RSX PURE AND IMPURE DATA STORAGE               22-AUG-1978 05:06:20   VAX-11 MACRO X0.3-11               Page   9
SYMBOL TABLE                                                                                                                     (3)

RAB$V_MAS      = 00000005            RSX$_BREAK     = 0006800C            SS$_MBFULL       ********   X   05
RAB$V_NLK      = 00000014            RSX$_EXITSTATUS= 00068640            SS$_MBTOOSML     ********   X   05
RAB$V_NXR      = 00000017            RSX$_EXTERNABRT= 0006805C            SS$_NOMOREFILES  ********   X   05
RAB$V_PMT      = 0000001E            RSX$_ILLINST   = 0006802C            SS$_NOPRIV       ********   X   05
RAB$V_PPF_IND  = 0000000E            RSX$_IMAGETERM = 00068084            SS$_NOSUCHFILE   ********   X   05
RAB$V_PPF_RAT  = 00000006            RSX$_INSFDYNMEM= 00068054            SS$_PARTESCAPE   ********   X   05
RAB$V_PTA      = 0000001D            RSX$_IOT       = 00068014            SS$_TIMEOUT      ********   X   05
RAB$V_RAH      = 00000009            RSX$_LIBNOTFND = 00068074            SS$_VECINUSE     ********   X   05
RAB$V_RLK      = 00000013            RSX$_LOADERROR = 0006807C            SS$_WRITLCK      ********   X   05
RAB$V_RNE      = 00000018            RSX$_NOCOMM    = 00068094            SV_ASTLVL        00000004
RAB$V_RNF      = 0000001B            RSX$_NONRSXEMT = 0006801C            SV_DCL           00000002
RAB$V_TMO      = 00000019            RSX$_NOPMD     = 00068332            SV_FLOATAST      00000009
RAB$V_TPT      = 00000001            RSX$_NOSUCHDEV = 00068322            SV_NOAST         00000003
RAB$V_UIF      = 00000004            RSX$_NOTSKIMG  = 00068064            SV_PENDWAIT      00000005
RAB$V_ULK      = 00000012            RSX$_ODDADDR   = 00068034            SV_PWRAST        00000008
RAB$V_WAT      = 00000011            RSX$_PMD       = 0006832A            SV_RCVAST        00000007
RAB$V_WBH      = 0000000A            RSX$_RCVMBXSIZ = 0000012C            SV_RESTORE       00000000
RAB$W_ISI        00000002            RSX$_REGMSG    = 0006808C            SV_TRANSLATE     00000001
RAB$W_RFA        00000010            RSX$_RESERVED  = 00068004            SV_WAIT          00000006
RAB$W_RFA4       00000014            RSX$_TBIT      = 0006803C            W.BATT           00000006
RAB$W_RSZ        00000022            RSX$_TRAP      = 00068024            W.BFPD           0000000C
RAB$W_USZ        00000020            RSX$_VERIFYCMD = 00068648            W.BHVR           00000004
RSX$A_CLDEV      00000120 RG    06   SS$_ABORT        ********   X   05   W.BLGH           00000010
RSX$A_CODEV      00000156 RG    06   SS$_ACCONFLICT   ********   X   05   W.BLPD           0000000E
RSX$A_DEVTYPE    00000071 RG    05   SS$_ACCVIO       ********   X   05   W.BLVR           00000002
RSX$A_EXITBLOCK  00000010 RG    06   SS$_BADATTRIB    ********   X   05   W.BNPD           0000000D
RSX$A_OVDEV      000001C2 RG    06   SS$_BADCHKSUM    ********   X   05   W.BOFF           0000000A
RSX$A_POOL       00000008 RG    06   SS$_BADESCAPE    ********   X   05   W.BPCB           00000000
RSX$A_RSXQIOERR  00000077 RG    05   SS$_BADFILEHDR   ********   X   05   W.BSIZ           00000008
RSX$A_SYDEV      0000018C RG    06   SS$_BADFILENAME  ********   X   05   XX             = 00000008
RSX$A_SYSCMD     00000023 RG    05   SS$_BADFILEVER   ********   X   05
RSX$A_SYSERR     00000018 RG    05   SS$_BADIRECTORY  ********   X   05
RSX$A_SYSINPUT   00000001 RG    05   SS$_BADPARAM     ********   X   05
RSX$A_SYSOUT     0000000C RG    05   SS$_BEGOFFILE    ********   X   05
RSX$A_TIIDEV     000000B4 RG    06   SS$_BUFFEROVF    ********   X   05
RSX$A_TIODEV     000000EA RG    06   SS$_DATAOVERUN   ********   X   05
RSX$C_SUBSYSTEM= 00000006            SS$_DEVALLOC     ********   X   05
RSX$FORCEEXIT    ********   X   06   SS$_DEVICEFULL   ********   X   05
RSX$G_FAB        00000064 RG    06   SS$_DEVNOTALLOC  ********   X   05
RSX$G_LOWP0ADDR  00000000 RG    06   SS$_DEVNOTMOUNT  ********   X   05
RSX$G_RAB        00000020 RG    06   SS$_DEVOFFLINE   ********   X   05
RSX$S_SYSCMD   = 0000000B  G         SS$_DUPFILENAME  ********   X   05
RSX$S_SYSERR   = 00000009  G         SS$_ENDOFFILE    ********   X   05
RSX$S_SYSINPUT = 00000009  G         SS$_ENDOFTAPE    ********   X   05
RSX$S_SYSOUT   = 0000000A  G         SS$_EXQUOTA      ********   X   05
RSX$T_LIBDEF     00000056 RG    05   SS$_FCPREADERR   ********   X   05
RSX$T_SYSCMD     00000022 RG    05   SS$_FCPWRITERR   ********   X   05
RSX$T_SYSDEF     00000038 RG    05   SS$_FILALRACC    ********   X   05
RSX$T_SYSDISK    0000002F RG    05   SS$_FILELOCKED   ********   X   05
RSX$T_SYSERROR   00000017 RG    05   SS$_FILENUMCHK   ********   X   05
RSX$T_SYSINPUT   00000000 RG    05   SS$_FILESEQCHK   ********   X   05
RSX$T_SYSOUTPUT  0000000B RG    05   SS$_FILESTRUCT   ********   X   05
RSX$T_SYSPRINT   00000067 RG    05   SS$_FILNOTACC    ********   X   05
RSX$T_USERDEF    00000048 RG    05   SS$_FILNOTEXP    ********   X   05
RSX$_ACCVIO    = 00068044            SS$_HEADERFULL   ********   X   05
RSX$_BADLIBREF = 0006806C            SS$_ILLBLKNUM    ********   X   05
RSX$_BADSTACK  = 0006804C            SS$_ILLIOFUNC    ********   X   05
RSXDATAS        - RSX PURE AND IMPURE DATA STORAGE               22-AUG-1978 05:06:20   VAX-11 MACRO X0.3-11               Page  10
PROGRAM SECTION SYNOPSIS                                                                                                         (3)


PROGRAM SECTION SYNOPSIS

.  ABS  .        00000000      00     NOPIC   USR   CON   ABS   LCL NOSHR NOEXE NORD  NOWRT BYTE
. BLANK .        00000000      01     NOPIC   USR   CON   REL   LCL NOSHR   EXE   RD    WRT BYTE
$ABS$            00000050      02     NOPIC   USR   CON   ABS   LCL NOSHR   EXE   RD    WRT BYTE
..ABS.           00000042      03     NOPIC   USR   CON   ABS   LCL NOSHR   EXE   RD    WRT BYTE
RSXDEF           000001F4      04     NOPIC   USR   CON   ABS   LCL NOSHR   EXE   RD    WRT BYTE
RSXPURE          00000133      05       PIC   USR   CON   REL   LCL   SHR   EXE   RD  NOWRT LONG
RSXIMPURE        000001F8      06     NOPIC   USR   CON   REL   LCL NOSHR   EXE   RD    WRT LONG


THERE WERE NO ERRORS OR WARNINGS.
5104. BYTES LEFT IN FREE MEMORY POOL.
1526. BYTES OF RECLAIMED MEMORY.
OBJ$:RSXDATAS,LIS$:RSXDATAS/-SP=EXECML$/ML,LIB$:R/ML,SRC$:RSXDATAS
52 MLB DIR RDS - 944 GETS TO DEFINE 31 MACROS. 52 INTER. FILE WRITES.
