RSXINFO         - RSX-11M INFORMATIONAL DIRECTIVES               22-AUG-1978 05:08:45   VAX-11 MACRO X0.3-11               Page   0
TABLE OF CONTENTS

   (2)      44  RSX$GLUN - RSX11M GLUN$ DIRECTIVE
   (3)     114  RSX$GPRT - RSX11M GPRT$ DIRECTIVE
   (4)     156  RSX$GTSK - RSX11M GTSK$ DIRECTIVE
   (5)     209  RSX$GTIM - RSX11M GTIM$ DIRECTIVE
RSXINFO         - RSX-11M INFORMATIONAL DIRECTIVES               22-AUG-1978 05:08:45   VAX-11 MACRO X0.3-11               Page   1
V06.0                                                                                                                            (1)

                                     0000     1 	.TITLE	RSXINFO - RSX-11M INFORMATIONAL DIRECTIVES
                                     0000     2 	.IDENT	/V06.0/		;
                                     0000     3
                                     0000     4 ;
                                     0000     5 ; COPYRIGHT (C) 1978
                                     0000     6 ; DIGITAL EQUIPMENT CORPORATION, MAYNARD, MASSACHUSETTS 01754
                                     0000     7 ;
                                     0000     8 ; THIS SOFTWARE IS FURNISHED  UNDER A LICENSE FOR USE ONLY ON A SINGLE
                                     0000     9 ; COMPUTER  SYSTEM AND  MAY BE  COPIED ONLY WITH  THE INCLUSION OF THE
                                     0000    10 ; ABOVE COPYRIGHT NOTICE.  THIS SOFTWARE, OR ANY OTHER COPIES THEREOF,
                                     0000    11 ; MAY NOT BE PROVIDED OR  OTHERWISE MADE AVAILABLE TO ANY OTHER PERSON
                                     0000    12 ; EXCEPT FOR USE ON SUCH SYSTEM AND TO ONE WHO AGREES TO THESE LICENSE
                                     0000    13 ; TERMS.  TITLE TO AND  OWNERSHIP OF THE  SOFTWARE  SHALL AT ALL TIMES
                                     0000    14 ; REMAIN IN DEC.
                                     0000    15 ;
                                     0000    16 ; THE INFORMATION IN THIS SOFTWARE IS SUBJECT TO CHANGE WITHOUT NOTICE
                                     0000    17 ; AND SHOULD  NOT BE CONSTRUED  AS A COMMITMENT  BY DIGITAL  EQUIPMENT
                                     0000    18 ; CORPORATION.
                                     0000    19 ;
                                     0000    20 ; DEC ASSUMES  NO  RESPONSIBILITY  FOR  THE USE OR  RELIABILITY OF ITS
                                     0000    21 ; SOFTWARE ON EQUIPMENT WHICH IS NOT SUPPLIED BY DEC.
                                     0000    22
                                     0000    23 ;++
                                     0000    24 ; FACILITY:
                                     0000    25 ;
                                     0000    26 ;	VAX/VMS RSX11M AME
                                     0000    27 ;
                                     0000    28 ; ABSTRACT:
                                     0000    29 ;
                                     0000    30 ;	RSX-11M INFORMATIONAL DIRECTIVES
                                     0000    31 ;
                                     0000    32 ; AUTHOR:
                                     0000    33 ;
                                     0000    34 ;	R.HEINEN 4-NOV-76
                                     0000    35 ;--
                                     0000    36 ;
                                     0000    37 ; EXTERNAL SYMBOLS
                                     0000    38 ;
                                     0000    39 	$RSXDEF			; DEFINE RSX SYMBOLS
                                     0000    40 	DRERR$			; DEFINE RSX11M DIRECTIVE STATUS CODES
                                     0000    41
RSXINFO         - RSX-11M INFORMATIONAL DIRECTIVES               22-AUG-1978 05:08:45   VAX-11 MACRO X0.3-11               Page   2
V06.0                                                                                                                            (2)

                                 00000000    43 	.PSECT	RSXCODE,NOWRT,SHR,PIC
                                     0000    44 	.SBTTL	RSX$GLUN - RSX11M GLUN$ DIRECTIVE
                                     0000    45 ;++
                                     0000    46 ; RSX$GLUN - RSX11M GET LUN IMFORMATION DIRECTIVE
                                     0000    47 ;
                                     0000    48 ; FUNCTIONAL DESCRIPTION:
                                     0000    49 ;
                                     0000    50 ; THIS IS A RSX DIRECTIVE HANDLER WHICH IMPLEMENTS AN RSX11M
                                     0000    51 ; "GLUN$" DIRECTIVE.
                                     0000    52 ;
                                     0000    53 ; INPUT PARAMETERS:
                                     0000    54 ;
                                     0000    55 ;	R5 = ADDRESS OF DPB+2
                                     0000    56 ;	R6 = CM IMAGE STACK ADDRESS
                                     0000    57 ;	R10 = ADDRESS OF CM IMAGE DATA BASE
                                     0000    58 ;	R11 = ADDRESS OF IMAGE HEADER
                                     0000    59 ;
                                     0000    60 ; OUTPUT PARAMETERS:
                                     0000    61 ;
                                     0000    62 ;	R10,R11 ARE PRESERVED
                                     0000    63 ;
                                     0000    64 ; IMPLICIT OUTPUTS:
                                     0000    65 ;
                                     0000    66 ;	THE PROPER DIRECTIVE STATUS IS PLACED IN THE IMAGE DSW
                                     0000    67 ;	ALONG WITH THE PROPER SETTING OF THE C-BIT.
                                     0000    68 ;
                                     0000    69 ; DSW RETURN CODES
                                     0000    70 ;
                                     0000    71 ;	IS.SUC	SUCCESSFUL
                                     0000    72 ;	IE.ULN	UNASSIGNED LUN
                                     0000    73 ;	IE.ILU	INVALID LOGICAL UNIT NUMBER
                                     0000    74 ;	IE.ADP	BUFFER ACCESS VIOLATION
                                     0000    75 ;--
                                     0000    76 RSX$GLUN::				; GET LUN IMFORMATION DIRECTIVE
                                     0000    77 ;
                                     0000    78 ; GET THE LUN NUMBER OF INTREST
                                     0000    79 ;
            51            85     3C  0000    80 	MOVZWL	(R5)+,R1		;
                          44     15  0003    81 	BLEQ	110$			; IF LEQ THEN ERROR
       0164 CA            51     B1  0005    82 	CMPW	R1,I_NLUN(R10)		; IN RANGE?
                          3D     1A  000A    83 	BGTRU	110$			; IF GTRU THEN ERROR
                                     000C    84 ;
                                     000C    85 ; GET THE LUT ENTRY FOR THE LUN NUMBER
                                     000C    86 ;
            58       0168 DA41   D0  000C    87 	MOVL	@I_LUT(R10)[R1],R8	; ADDRESS THE LUT TABLE ENTRY
                          2B     13  0012    88 	BEQL	100$			; IF EQL THEN ERROR
            55            65     3C  0014    89 	MOVZWL	(R5),R5			; COPY ADDRESS OF BUFFER
            1B            55     E8  0017    90 	BLBS	R5,90$			; IF LOW SET THEN ERROR
                                     001A    91 ;
                                     001A    92 ; COPY DATA TO USER BUFFER
                                     001A    93 ;
            85         2E A8     B0  001A    94 	MOVW	LUT_INFONAME(R8),(R5)+	; INSERT INFO NAME
            85         30 A8     90  001E    95 	MOVB	LUT_INFOUNIT(R8),(R5)+	; INSERT INFO UNIT
            85            01     90  0022    96 	MOVB	#1,(R5)+		; INSERT LOADED DRIVER FLAG
         12 A8       8000 8F     A9  0025    97 	BISW3	#^X08000,LUT_CHAR(R8),(R5)+; INSERT CHARACTERISTICS
                          85         002B
            85         1A A8     D0  002C    98 	MOVL	LUT_CHAR+8(R8),(R5)+	; INSERT DEVICE DEPENDENT WORDS
RSXINFO         - RSX-11M INFORMATIONAL DIRECTIVES               22-AUG-1978 05:08:45   VAX-11 MACRO X0.3-11               Page   3
V06.0           RSX$GLUN - RSX11M GLUN$ DIRECTIVE                                                                                (2)

            65         18 A8     B0  0030    99 	MOVW	LUT_CHAR+6(R8),(R5)	; INSERT STANDARD BUFFER SIZE
                                 05  0034   100 	RSB				; RETURN TO CALLER
                                     0035   101 ;
                                     0035   102 ; BAD BUFFER
                                     0035   103 ;
                                     0035   104 90$:	$DSW	#IE.ADP			; INVALID BUFFER
                                     003F   105 ;
                                     003F   106 ; UNASSIGNED LUN ERROR
                                     003F   107 ;
                                     003F   108 100$:	$DSW	#IE.ULN			; ERROR FOR UNASSIGNED LUN
                                     0049   109 ;
                                     0049   110 ; ILLEGAL LUN NUMBER
                                     0049   111 ;
                                     0049   112 110$:	$DSW	#IE.ILU			; SET ERROR
RSXINFO         - RSX-11M INFORMATIONAL DIRECTIVES               22-AUG-1978 05:08:45   VAX-11 MACRO X0.3-11               Page   4
V06.0           RSX$GPRT - RSX11M GPRT$ DIRECTIVE                                                                                (3)

                                     0053   114 	.SBTTL	RSX$GPRT - RSX11M GPRT$ DIRECTIVE
                                     0053   115 ;++
                                     0053   116 ; RSX$GPRT - RSX11M GET PARTITION PARAMETERS DIRECTIVE
                                     0053   117 ;
                                     0053   118 ; FUNCTIONAL DESCRIPTION:
                                     0053   119 ;
                                     0053   120 ; THIS IS A RSX DIRECTIVE HANDLER WHICH IMPLEMENTS AN RSX11M
                                     0053   121 ; "GPRT$" DIRECTIVE.
                                     0053   122 ;
                                     0053   123 ; INPUT PARAMETERS:
                                     0053   124 ;
                                     0053   125 ;	R5 = ADDRESS OF DPB+2
                                     0053   126 ;	R6 = CM IMAGE STACK ADDRESS
                                     0053   127 ;	R10 = ADDRESS OF CM IMAGE DATA BASE
                                     0053   128 ;	R11 = ADDRESS OF IMAGE HEADER
                                     0053   129 ;
                                     0053   130 ; OUTPUT PARAMETERS:
                                     0053   131 ;
                                     0053   132 ;	R10,R11 ARE PRESERVED
                                     0053   133 ;
                                     0053   134 ; IMPLICIT OUTPUTS:
                                     0053   135 ;
                                     0053   136 ;	THE PROPER DIRECTIVE STATUS IS PLACED IN THE IMAGE DSW
                                     0053   137 ;	ALONG WITH THE PROPER SETTING OF THE C-BIT.
                                     0053   138 ;
                                     0053   139 ; DSW RETURN CODES:
                                     0053   140 ;
                                     0053   141 ;	IS.SUC	SUCCESSFUL
                                     0053   142 ;	IE.ADP	BUFFER ACCESS VIOLATION
                                     0053   143 ;
                                     0053   144 ;--
                                     0053   145 RSX$GPRT::				; GET PARTITION PARAMETERS DIRECTIVE
            54         04 A5     3C  0053   146 	MOVZWL	4(R5),R4		; GET BUFFER ADDRESS SPECIFIED
            13            54     E8  0057   147 	BLBS	R4,10$			; BR IF BAD BUFFER
            84       0100 8F     B0  005A   148 	MOVW	#^X100,(R4)+		; INSERT PARTITION BASE ADDRESS
            0A            06     EF  005F   149 	EXTZV	#6,#10,I_ADR0+ADR_HIGHLIM(R10),R3; INSERT TASK SIZE IN 32 WORD BLOCKS
            53       0100 CA         0062
            84            53     B0  0066   150 	MOVW	R3,(R4)+		;
                                     0069   151 					; SYSTEM CONTROLED PARTITION
                       26 AB     B4  0069   152 	CLRW	H.DSW(R11)		; SET PARTITION BASE ADDRESS
                                 05  006C   153 	RSB				; AND RETURN
                                     006D   154 10$:	$DSW	#IE.ADP			; INVALID BUFFER
RSXINFO         - RSX-11M INFORMATIONAL DIRECTIVES               22-AUG-1978 05:08:45   VAX-11 MACRO X0.3-11               Page   5
V06.0           RSX$GTSK - RSX11M GTSK$ DIRECTIVE                                                                                (4)

                                     0077   156 	.SBTTL	RSX$GTSK - RSX11M GTSK$ DIRECTIVE
                                     0077   157 ;++
                                     0077   158 ; RSX$GTSK - RSX11M GET TASK PARAMETERS DIRECTIVE
                                     0077   159 ;
                                     0077   160 ; FUNCTIONAL DESCRIPTION:
                                     0077   161 ;
                                     0077   162 ; THIS IS A RSX DIRECTIVE HANDLER WHICH IMPLEMENTS AN RSX11M
                                     0077   163 ; "GTSK$" DIRECTIVE.
                                     0077   164 ;
                                     0077   165 ; INPUT PARAMETERS:
                                     0077   166 ;
                                     0077   167 ;	R5 = ADDRESS OF DPB+2
                                     0077   168 ;	R6 = CM IMAGE STACK ADDRESS
                                     0077   169 ;	R10 = ADDRESS OF CM IMAGE DATA BASE
                                     0077   170 ;	R11 = ADDRESS OF IMAGE HEADER
                                     0077   171 ;
                                     0077   172 ; OUTPUT PARAMETERS:
                                     0077   173 ;
                                     0077   174 ;	R10,R11 ARE PRESERVED
                                     0077   175 ;
                                     0077   176 ; IMPLICIT OUTPUTS:
                                     0077   177 ;
                                     0077   178 ;	THE PROPER DIRECTIVE STATUS IS PLACED IN THE IMAGE DSW
                                     0077   179 ;	ALONG WITH THE PROPER SETTING OF THE C-BIT.
                                     0077   180 ;
                                     0077   181 ; DSW RETURN CODES:
                                     0077   182 ;
                                     0077   183 ;	IS.SUC	SUCCESSFUL
                                     0077   184 ;	IE.ADP	BUFFER ACCESS VIOLATION
                                     0077   185 ;--
                                     0077   186 RSX$GTSK::				; GET TASK PARAMETERS DIRECTIVE
            54            65     3C  0077   187 	MOVZWL	(R5),R4			; ADDRESS BUFFER
            4E            54     E8  007A   188 	BLBS	R4,20$			; BR IF BAD BUFFER
            84       0148 CA     D0  007D   189 	MOVL	I_RAD50NAME(R10),(R4)+	; INSERT TASK NAME
            84       2C8F 8F     3C  0082   190 	MOVZWL	#^O026217,(R4)+		; INSERT "GEN   " AS PARTITION
            84       8B9B 8F     B0  0087   191 	MOVW	#^O0105633,(R4)+	; INSERT VMS OWNER
            50       51CA 8F     3C  008C   192 	MOVZWL	#^O050712,R0		; ASSUME MCR
       0170 CA            02     E1  0091   193 	BBC	#SV_DCL,I_STATE(R10),10$; BR IF NOT DCL
                          05         0096
            50       1984 8F     3C  0097   194 	MOVZWL	#^O014604,R0		;
            84            50     B0  009C   195 10$:	MOVW	R0,(R4)+		; INSERT TO COMPLETE OWNER WORD
            84         30 AB     B0  009F   196 	MOVW	H.SPRI(R11),(R4)+	; INSERT PRIORITY
            84         08 AB     B0  00A3   197 	MOVW	H.CUIC(R11),(R4)+	; INSERT UIC
            84       0164 CA     B0  00A7   198 	MOVW	I_NLUN(R10),(R4)+	; INSERT NUMBER OF LUNS
                          84     D4  00AC   199 	CLRL	(R4)+			; INSERT UNDEFINED WORDS
            84       0194 CA     B0  00AE   200 	MOVW	I_SSTVEC(R10),(R4)+	; INSERT SST VECTOR DATA
            84       0196 CA     B0  00B3   201 	MOVW	I_SSTVECL(R10),(R4)+	;
            84       0100 CA     B0  00B8   202 	MOVW	I_ADR0+ADR_HIGHLIM(R10),(R4)+; INSERT SIZE IN BYTES
            84            05     B0  00BD   203 	MOVW	#5,(R4)+		; TELL ITS THE RSX!!!!!
            84       013D CA     90  00C0   204 	MOVB	I_UIC+1(R10),(R4)+	; INSERT UIC REMAINDER
            64       013F CA     90  00C5   205 	MOVB	I_UIC+3(R10),(R4)	;
                                 05  00CA   206 	RSB				; AND RETURN
                                     00CB   207 20$:	$DSW	#IE.ADP			; BAD BUFFER
RSXINFO         - RSX-11M INFORMATIONAL DIRECTIVES               22-AUG-1978 05:08:45   VAX-11 MACRO X0.3-11               Page   6
V06.0           RSX$GTIM - RSX11M GTIM$ DIRECTIVE                                                                                (5)

                                     00D5   209 	.SBTTL	RSX$GTIM - RSX11M GTIM$ DIRECTIVE
                                     00D5   210 ;++
                                     00D5   211 ; RSX$GTIM - RSX11M GET TIME DIRECTIVE
                                     00D5   212 ;
                                     00D5   213 ; FUNCTIONAL DESCRIPTION:
                                     00D5   214 ;
                                     00D5   215 ; THIS IS A RSX DIRECTIVE HANDLER WHICH IMPLEMENTS AN RSX11M
                                     00D5   216 ; "GTIM$" DIRECTIVE.
                                     00D5   217 ;
                                     00D5   218 ; INPUT PARAMETERS:
                                     00D5   219 ;
                                     00D5   220 ;	R5 = ADDRESS OF DPB+2
                                     00D5   221 ;	R6 = CM IMAGE STACK ADDRESS
                                     00D5   222 ;	R10 = ADDRESS OF CM IMAGE DATA BASE
                                     00D5   223 ;	R11 = ADDRESS OF IMAGE HEADER
                                     00D5   224 ;
                                     00D5   225 ; OUTPUT PARAMETERS:
                                     00D5   226 ;
                                     00D5   227 ;	R10,R11 ARE PRESERVED
                                     00D5   228 ;
                                     00D5   229 ; IMPLICIT OUTPUTS:
                                     00D5   230 ;
                                     00D5   231 ;	THE PROPER DIRECTIVE STATUS IS PLACED IN THE IMAGE DSW
                                     00D5   232 ;	ALONG WITH THE PROPER SETTING OF THE C-BIT.
                                     00D5   233 ;
                                     00D5   234 ; DSW RETURN CODES:
                                     00D5   235 ;
                                     00D5   236 ;	IS.SUC	SUCCESSFUL
                                     00D5   237 ;	IE.ADP	BUFFER ACCESS VIOLATION
                                     00D5   238 ;--
                                     00D5   239 RSX$GTIM::				; GET TIME DIRECTIVE
            54            65     3C  00D5   240 	MOVZWL	(R5),R4			; ADDRESS BUFFER
            1A            54     E8  00D8   241 	BLBS	R4,10$			; IF BAD BUFFER THEN BR
                                     00DB   242 	$NUMTIM_S	(R4)		; INSERT TIME IN BUFFER
            0C            50     E9  00E6   243 	BLBC	R0,10$			; IF LOW CLEAR THEN ACCESS VIOLATION
            64       076C 8F     A2  00E9   244 	SUBW	#1900,(R4)		; TAKE OUT YEAR SINCE 0
         0E A4       0064 8F     B0  00EE   245 	MOVW	#100,14(R4)		; INSERT TICKS PER SECOND
                                 05  00F4   246 	RSB				; RETURN
                                     00F5   247 10$:	$DSW	#IE.ADP			; SET STATUS AND RETURN
                                     00FF   248 ;
                                     00FF   249 	.END
RSXINFO         - RSX-11M INFORMATIONAL DIRECTIVES               22-AUG-1978 05:08:45   VAX-11 MACRO X0.3-11               Page   7
SYMBOL TABLE                                                                                                                     (5)

$$MSG          = 00000000            H.NLUN           0000003C            IE.HWR         = FFFFFFFA
...GBL         = 00000000            H.NML            00000031            IE.IBS         = FFFFFFA7
ACBC_CTLRCAST  = 00000002            H.ODVA           00000012            IE.IDU         = FFFFFFA4
ACBC_FLOATAST  = 00000003            H.ODVL           00000014            IE.IEF         = FFFFFF9F
ACBC_PWRAST    = 00000000            H.OVLY           0000002C            IE.IES         = FFFFFFAE
ACBC_RCVAST    = 00000001            H.PFVA           0000001A            IE.IFC         = FFFFFFFE
ACBV_INPROG    = 00000001            H.RCVA           0000001E            IE.IFU         = FFFFFFE7
ACBV_PERM      = 00000000            H.RRVA           00000032            IE.ILL         = FFFFFFD6
ACBV_TYPE      = 00000008            H.SPRI           00000030            IE.ILU         = FFFFFFA0
ACB_FLAGS        0000000C            H.TKVA           00000016            IE.ILV         = FFFFFFED
ACB_LINK         00000000            H.TKVL           00000018            IE.INS         = FFFFFFFE
ACB_UPC          0000000A            H.VEXT           0000002E            IE.IOP         = FFFFFFAD
ACB_UPRM         00000008            H.WND            00000024            IE.IPR         = FFFFFFA1
ADR_HIGHLIM      00000004            IE.2DV         = FFFFFFD0            IE.ISQ         = FFFFFFC3
ADR_LOWLIM       00000000            IE.ABO         = FFFFFFF1            IE.ITI         = FFFFFFA3
ADR_SIZE         00000008            IE.ACT         = FFFFFFF9            IE.ITP         = FFFFFFA8
AP_NAME          00000004            IE.ADP         = FFFFFF9E            IE.ITS         = FFFFFFF8
AST_PARAM        00000004            IE.ALC         = FFFFFFAC            IE.IUI         = FFFFFFA5
AST_PC           00000010            IE.ALG         = FFFFFFAC            IE.LCK         = FFFFFFE5
AST_PSL          00000014            IE.ALN         = FFFFFFDE            IE.LNL         = FFFFFFA6
AST_R0           00000008            IE.AST         = FFFFFFB0            IE.MAP         = FFFFFFAF
AST_R1           0000000C            IE.BAD         = FFFFFFFF            IE.MOD         = FFFFFFEB
BIT...         = 0006809C            IE.BBE         = FFFFFFC8            IE.NBF         = FFFFFFD9
C_CANONPS      = 83C00000            IE.BCC         = FFFFFFBE            IE.NBK         = FFFFFFD7
C_RCVDSTR      = 44564352            IE.BDI         = FFFFFFCC            IE.NDR         = FFFFFFB8
FCB_ATTRIBS      0000007C            IE.BDR         = FFFFFFCE            IE.NFI         = FFFFFFC4
FCB_FIB          0000004C            IE.BDV         = FFFFFFC9            IE.NFW         = FFFFFFBB
FCB_FID          00000000            IE.BHD         = FFFFFFC0            IE.NLK         = FFFFFFB1
FCB_FNAME        00000014            IE.BLB         = FFFFFFBA            IE.NLN         = FFFFFFDB
FCB_FNAMEDESC    0000000C            IE.BLK         = FFFFFFEC            IE.NNC         = FFFFFFB3
FCB_FNB          00000002            IE.BNM         = FFFFFFCA            IE.NNL         = FFFFFFB2
FCB_PC           00000078            IE.BTF         = FFFFFFB4            IE.NNN         = FFFFFFBC
FCB_RESULT       00000030            IE.BTP         = FFFFFFD5            IE.NOD         = FFFFFFE9
FCB_RESULTDESC   00000004            IE.BVR         = FFFFFFC1            IE.NSF         = FFFFFFE6
FCB_SIZE         000000B4            IE.BYT         = FFFFFFED            IE.NST         = FFFFFFB0
FP_AP            00000008            IE.CKP         = FFFFFFF6            IE.NSW         = FFFFFFEE
FP_FP            0000000C            IE.CKS         = FFFFFFE2            IE.NVR         = FFFFFFAA
FP_PC            00000010            IE.CLO         = FFFFFFDA            IE.NVW         = FFFFFFA9
FP_PSL           00000004            IE.CNR         = FFFFFFB7            IE.OFL         = FFFFFFBF
FP_REGISTERS     00000014            IE.CON         = FFFFFFEA            IE.ONP         = FFFFFFFB
GBL...         = 00000000            IE.DAA         = FFFFFFF8            IE.OVR         = FFFFFFEE
H.CSP            00000000            IE.DAO         = FFFFFFF3            IE.PES         = FFFFFFAD
H.CUIC           00000008            IE.DFU         = FFFFFFE8            IE.PNS         = FFFFFFA2
H.DSW            00000026            IE.DNA         = FFFFFFF9            IE.PRI         = FFFFFFF0
H.DUIC           0000000A            IE.DNR         = FFFFFFFD            IE.PTS         = FFFFFFFD
H.EFLM           00000004            IE.DUN         = FFFFFFF7            IE.RAC         = FFFFFFD4
H.EFSV           00000020            IE.DUP         = FFFFFFC7            IE.RAT         = FFFFFFD3
H.FCS            00000028            IE.EOF         = FFFFFFF6            IE.RBG         = FFFFFFD8
H.FORT           0000002A            IE.EOT         = FFFFFFC2            IE.RBS         = FFFFFFF1
H.FPSA           00000022            IE.EOV         = FFFFFFF5            IE.RCN         = FFFFFFD2
H.FPVA           0000001C            IE.EXP         = FFFFFFB5            IE.RER         = FFFFFFE0
H.GARD           0000003A            IE.FEX         = FFFFFFCF            IE.RNM         = FFFFFFCD
H.HDLN           00000002            IE.FHE         = FFFFFFC5            IE.RSU         = FFFFFFEF
H.IPC            0000000E            IE.FIX         = FFFFFFF7            IE.SDP         = FFFFFF9D
H.IPS            0000000C            IE.FLN         = FFFFFFAF            IE.SNC         = FFFFFFDD
H.ISP            00000010            IE.FOP         = FFFFFFCB            IE.SPC         = FFFFFFFA
H.LUN            0000003E            IE.HFU         = FFFFFFE4            IE.SQC         = FFFFFFDC
RSXINFO         - RSX-11M INFORMATIONAL DIRECTIVES               22-AUG-1978 05:08:45   VAX-11 MACRO X0.3-11               Page   8
SYMBOL TABLE                                                                                                                     (5)

IE.SRE         = FFFFFFF2            I_INISIZE        000000F0            QIO_IOSB         0000000E
IE.STK         = FFFFFFC6            I_LENGTH         000001F0            QIO_LUT          00000016
IE.TCH         = FFFFFFF5            I_LOGNAME        000000E0            QIO_SECONDBLK    0000001C
IE.TMM         = FFFFFFB9            I_LUT            00000168            QIO_SIZE         00000020
IE.TMO         = FFFFFFB6            I_NLUN           00000164            RSX$C_SUBSYSTEM= 00000006
IE.ULK         = FFFFFFAB            I_PC             00000020            RSX$GLUN         00000000 RG    05
IE.ULN         = FFFFFFFB            I_PPFINDEX       00000162            RSX$GPRT         00000053 RG    05
IE.UNS         = FFFFFFFC            I_PROCNAME       0000014C            RSX$GTIM         000000D5 RG    05
IE.UPN         = FFFFFFFF            I_PS             00000024            RSX$GTSK         00000077 RG    05
IE.VER         = FFFFFFFC            I_PWRAST         000001A0            RSX$_ACCVIO    = 00068044
IE.WAC         = FFFFFFE3            I_R0             00000000            RSX$_BADLIBREF = 0006806C
IE.WAT         = FFFFFFE1            I_R1             00000004            RSX$_BADSTACK  = 0006804C
IE.WCK         = FFFFFFAA            I_R2             00000008            RSX$_BREAK     = 0006800C
IE.WER         = FFFFFFDF            I_R3             0000000C            RSX$_EXITSTATUS= 00068640
IE.WLK         = FFFFFFF4            I_R4             00000010            RSX$_EXTERNABRT= 0006805C
IE.WOV         = FFFFFFAB            I_R5             00000014            RSX$_ILLINST   = 0006802C
IS.BV          = 00000005            I_R6             00000018            RSX$_IMAGETERM = 00068084
IS.CC          = 00000301            I_RAD50NAME      00000148            RSX$_INSFDYNMEM= 00068054
IS.CLR         = 00000000            I_RCVAST         0000019C            RSX$_IOT       = 00068014
IS.CR          = 00000D01            I_RCVMAIL        00000160            RSX$_LIBNOTFND = 00068074
IS.EOT         = 00000401            I_RUNFLAGS       0000018C            RSX$_LOADERROR = 0006807C
IS.ESC         = 00001B01            I_SCRATCH        00000028            RSX$_NOCOMM    = 00068094
IS.ESQ         = 00009B01            I_SSTVEC         00000194            RSX$_NONRSXEMT = 0006801C
IS.PES         = 00008001            I_SSTVECL        00000196            RSX$_NOPMD     = 00068332
IS.PND         = 00000000            I_STATE          00000170            RSX$_NOSUCHDEV = 00068322
IS.RDD         = 00000002            I_TYPE           0000001C            RSX$_NOTSKIMG  = 00068064
IS.SET         = 00000002            I_UIC            0000013C            RSX$_ODDADDR   = 00068034
IS.SPD         = 00000002            I_WAIT           00000178            RSX$_PMD       = 0006832A
IS.SUC         = 00000001            I_WAITSAVE       00000180            RSX$_RCVMBXSIZ = 0000012C
IS.TAB         = 00000901            LUTC_CR        = 00000005            RSX$_REGMSG    = 0006808C
IS.TMO         = 00000002            LUTC_DISK      = 00000002            RSX$_RESERVED  = 00068004
I_ADR0           000000FC            LUTC_LP        = 00000004            RSX$_TBIT      = 0006803C
I_ASCIINAME      00000140            LUTC_RMS       = 00000000            RSX$_TRAP      = 00068024
I_ASTPOOL        000000D0            LUTC_TAPE      = 00000003            RSX$_VERIFYCMD = 00068648
I_ASTQUEUE       000000C8            LUTC_TRM       = 00000001            SV_ASTLVL        00000004
I_BAILOUTFP      00000188            LUTV_CTRLC     = 00000002            SV_DCL           00000002
I_CMDROUT        000000E8            LUTV_CTRLO     = 00000000            SV_FLOATAST      00000009
I_CURAST         00000198            LUTV_PRM       = 00000003            SV_NOAST         00000003
I_DEBVEC         00000190            LUT_CHAN         0000000C            SV_PENDWAIT      00000005
I_DEBVECL        00000192            LUT_CHAR         00000012            SV_PWRAST        00000008
I_FCBPOOL        000000D8            LUT_CTRLC        00000032            SV_RCVAST        00000007
I_FCC            000001B4            LUT_FLAGS        0000000A            SV_RESTORE       00000000
I_FLOATA0        000001C0            LUT_INFONAME     0000002E            SV_TRANSLATE     00000001
I_FLOATA1        000001C8            LUT_INFOUNIT     00000030            SV_WAIT          00000006
I_FLOATA2        000001D0            LUT_LINK         00000000            SYS$NUMTIM       ********   X   05
I_FLOATA3        000001D8            LUT_REALNAME     0000001E            W.BATT           00000006
I_FLOATA4        000001E0            LUT_REF          00000008            W.BFPD           0000000C
I_FLOATA5        000001E8            LUT_RSXNAME      00000010            W.BHVR           00000004
I_FLOATADR       000001B0            LUT_SIZE         00000036            W.BLGH           00000010
I_FLOATAST       000001A4            LUT_TYPE         00000016            W.BLPD           0000000E
I_FLOATCSR       000001A8            PSL_CC         = 00000000            W.BLVR           00000002
I_FLOATERR       000001AC            PSL_CM         = 0000001F            W.BNPD           0000000D
I_FLOATTMP       000001B8            PSL_FPD        = 0000001B            W.BOFF           0000000A
I_GARD           000000EC            PSL_FU         = 00000006            W.BPCB           00000000
I_HIGHEFN        0000016C            PSL_TBIT       = 00000004            W.BSIZ           00000008
I_HIGHSIZE       000000F4            QIOV_FILES     = 00000000
I_IMAGEVBN       000000F8            QIO_FLAGS        0000001A
RSXINFO         - RSX-11M INFORMATIONAL DIRECTIVES               22-AUG-1978 05:08:45   VAX-11 MACRO X0.3-11               Page   9
PROGRAM SECTION SYNOPSIS                                                                                                         (5)


PROGRAM SECTION SYNOPSIS

.  ABS  .        00000000      00     NOPIC   USR   CON   ABS   LCL NOSHR NOEXE NORD  NOWRT BYTE
. BLANK .        00000000      01     NOPIC   USR   CON   REL   LCL NOSHR   EXE   RD    WRT BYTE
..ABS.           00000042      02     NOPIC   USR   CON   ABS   LCL NOSHR   EXE   RD    WRT BYTE
$ABS$            00000000      03     NOPIC   USR   CON   ABS   LCL NOSHR   EXE   RD    WRT BYTE
RSXDEF           000001F4      04     NOPIC   USR   CON   ABS   LCL NOSHR   EXE   RD    WRT BYTE
RSXCODE          000000FF      05       PIC   USR   CON   REL   LCL   SHR   EXE   RD  NOWRT BYTE


THERE WERE NO ERRORS OR WARNINGS.
17056. BYTES LEFT IN FREE MEMORY POOL.
824. BYTES OF RECLAIMED MEMORY.
OBJ$:RSXINFO,LIS$:RSXINFO/-SP=EXECML$/ML,LIB$:R/ML,SRC$:RSXINFO
20 MLB DIR RDS - 477 GETS TO DEFINE 18 MACROS. 14 INTER. FILE WRITES.
