RSXIO           - RSX11M GMCR$,RCVD$,RCVX$,SDAT$ DIRECTIVES      22-AUG-1978 05:08:58   VAX-11 MACRO X0.3-11               Page   0
TABLE OF CONTENTS

   (2)      47  RSX$GMCR - RSX11M GMCR$ DIRECTIVE
   (3)     100  RSX$RCVD/RSX$RCVX - RSX11M RCVD$ AND RCVX$ DIRE
   (4)     181  RSX$SDAT - RSX11M SDAT$ DIRECTIVE
RSXIO           - RSX11M GMCR$,RCVD$,RCVX$,SDAT$ DIRECTIVES      22-AUG-1978 05:08:58   VAX-11 MACRO X0.3-11               Page   1
V06.0                                                                                                                            (1)

                                     0000     1 	.TITLE	RSXIO - RSX11M GMCR$,RCVD$,RCVX$,SDAT$ DIRECTIVES
                                     0000     2 	.IDENT	/V06.0/		;
                                     0000     3
                                     0000     4 ;
                                     0000     5 ; COPYRIGHT (C) 1978
                                     0000     6 ; DIGITAL EQUIPMENT CORPORATION, MAYNARD, MASSACHUSETTS 01754
                                     0000     7 ;
                                     0000     8 ; THIS SOFTWARE IS FURNISHED  UNDER A LICENSE FOR USE ONLY ON A SINGLE
                                     0000     9 ; COMPUTER  SYSTEM AND  MAY BE  COPIED ONLY WITH  THE INCLUSION OF THE
                                     0000    10 ; ABOVE COPYRIGHT NOTICE.  THIS SOFTWARE, OR ANY OTHER COPIES THEREOF,
                                     0000    11 ; MAY NOT BE PROVIDED OR  OTHERWISE MADE AVAILABLE TO ANY OTHER PERSON
                                     0000    12 ; EXCEPT FOR USE ON SUCH SYSTEM AND TO ONE WHO AGREES TO THESE LICENSE
                                     0000    13 ; TERMS.  TITLE TO AND  OWNERSHIP OF THE  SOFTWARE  SHALL AT ALL TIMES
                                     0000    14 ; REMAIN IN DEC.
                                     0000    15 ;
                                     0000    16 ; THE INFORMATION IN THIS SOFTWARE IS SUBJECT TO CHANGE WITHOUT NOTICE
                                     0000    17 ; AND SHOULD  NOT BE CONSTRUED  AS A COMMITMENT  BY DIGITAL  EQUIPMENT
                                     0000    18 ; CORPORATION.
                                     0000    19 ;
                                     0000    20 ; DEC ASSUMES  NO  RESPONSIBILITY  FOR  THE USE OR  RELIABILITY OF ITS
                                     0000    21 ; SOFTWARE ON EQUIPMENT WHICH IS NOT SUPPLIED BY DEC.
                                     0000    22
                                     0000    23 ;++
                                     0000    24 ; FACILITY:
                                     0000    25 ;
                                     0000    26 ;	VAX/VMS RSX11M AME
                                     0000    27 ;
                                     0000    28 ; ABSTRACT:
                                     0000    29 ;
                                     0000    30 ;	RSX11M MISC. I/O DIRECTIVES
                                     0000    31 ;
                                     0000    32 ; AUTHOR:
                                     0000    33 ;
                                     0000    34 ;	R.HEINEN 4-NOV-76
                                     0000    35 ;--
                                     0000    36 ;
                                     0000    37 ; EXTERNAL SYMBOLS
                                     0000    38 ;
                                     0000    39 	$RSXDEF			; DEFINE RSX SYMBOLS
                                     0000    40 	DRERR$			; DEFINE RSX DIRECTIVE STATUS CODES
                                     0000    41 	$DEVDEF			; DEFINE DEVICE CHARACTERISTICS BITS
                                     0000    42 	$JPIDEF			; DEFINE GETJPI SYMBOLS
                                     0000    43 	$SMRDEF			; DEFINE SYMBIONT SYMBOLS
                                     0000    44
RSXIO           - RSX11M GMCR$,RCVD$,RCVX$,SDAT$ DIRECTIVES      22-AUG-1978 05:08:58   VAX-11 MACRO X0.3-11               Page   2
V06.0                                                                                                                            (2)

                                 00000000    46 	.PSECT	RSXCODE,NOWRT,SHR,PIC
                                     0000    47 	.SBTTL	RSX$GMCR - RSX11M GMCR$ DIRECTIVE
                                     0000    48 ;++
                                     0000    49 ; RSX$GMCR - RSX11M GET MCR LINE DIRECTIVE
                                     0000    50 ;
                                     0000    51 ; FUNCTIONAL DESCRIPTION:
                                     0000    52 ;
                                     0000    53 ; THIS IS A RSX DIRECTIVE HANDLER WHICH IMPLEMENTS AN RSX11M
                                     0000    54 ; "GMCR$" DIRECTIVE.
                                     0000    55 ;
                                     0000    56 ; INPUT PARAMETERS:
                                     0000    57 ;
                                     0000    58 ;	R5 = ADDRESS OF DPB+2
                                     0000    59 ;	R6 = CM IMAGE STACK ADDRESS
                                     0000    60 ;	R10 = ADDRESS OF CM IMAGE DATA BASE
                                     0000    61 ;	R11 = ADDRESS OF IMAGE HEADER
                                     0000    62 ;
                                     0000    63 ; OUTPUT PARAMETERS:
                                     0000    64 ;
                                     0000    65 ;	R10,R11 ARE PRESERVED
                                     0000    66 ;
                                     0000    67 ; IMPLICIT OUTPUTS:
                                     0000    68 ;
                                     0000    69 ;	THE PROPER DIRECTIVE STATUS IS PLACED IN THE IMAGE DSW
                                     0000    70 ;	ALONG WITH THE PROPER SETTING OF THE C-BIT.
                                     0000    71 ;
                                     0000    72 ; DSW RETURN CODES:
                                     0000    73 ;
                                     0000    74 ;	IS.SUC	SUCCESSFUL
                                     0000    75 ;	IE.AST	NO DATA AVAILABLE
                                     0000    76 ;--
                                     0000    77 RSX$GMCR::				; GET MCR LINE DIRECTIVE
                          50     D4  0000    78 	CLRL	R0
                       28 AA     9F  0002    79 	PUSHAB	I_SCRATCH(R10)		; ADDRESS TARGET
       00E8 DA            01     FB  0005    80 	CALLS	#1,@I_CMDROUT(R10)	; CALL CALLER BACK
            26            50     E9  000A    81 	BLBC	R0,20$			; IF LOW CLEAR THEN NONE
         28 AA       0050 8F     B1  000D    82 	CMPW	#80,I_SCRATCH(R10)	; 80 OR GREATER?
                          05     1E  0013    83 	BGEQU	5$			; IF GEQU THEN OK
         28 AA         50 8F     9A  0015    84 	MOVZBL	#80,I_SCRATCH(R10)	; SET MAX SIZE
         26 AB         28 AA     B0  001A    85 5$:	MOVW	I_SCRATCH(R10),H.DSW(R11); INSERT COMMAND SIZE
                          12     13  001F    86 	BEQL	20$			; IF EQL THEN ERROR
                                     0021    87 ;
                                     0021    88 ; MOVE THE COMMAND TO THE USER BUFFER - BUFFER HAS BEEN VALIDATED
                                     0021    89 ;
         2C BA         28 AA     28  0021    90 	MOVC3	I_SCRATCH(R10),@I_SCRATCH+4(R10),(R5); MOVE COMMAND TEXT
                          65         0026
         28 AA       0050 8F     B1  0027    91 	CMPW	#80,I_SCRATCH(R10)	; EXACTLY 80?
                          03     13  002D    92 	BEQL	10$			; IF EQL THEN YES
            63            0D     90  002F    93 	MOVB	#^X0D,(R3)		; INSERT CR AS TERMINATOR
                                 05  0032    94 10$:	RSB				; RETURN
                                     0033    95 ;
                                     0033    96 ; NO COMMAND LINE
                                     0033    97 ;
                                     0033    98 20$:	$DSW	#IE.AST			;
RSXIO           - RSX11M GMCR$,RCVD$,RCVX$,SDAT$ DIRECTIVES      22-AUG-1978 05:08:58   VAX-11 MACRO X0.3-11               Page   3
V06.0           RSX$RCVD/RSX$RCVX - RSX11M RCVD$ AND RCVX$ DIRE                                                                  (3)

                                     003D   100 	.SBTTL	RSX$RCVD/RSX$RCVX - RSX11M RCVD$ AND RCVX$ DIRECTIVES
                                     003D   101
                                     003D   102 	.ENABL	LSB
                                     003D   103 ;++
                                     003D   104 ; RSX$RCVD - RSX11M RECEIVE DATA DIRECTIVE
                                     003D   105 ; RSX$RCVX - RSX11M RECEIVE DATA OR EXIT DIRECTIVE
                                     003D   106 ;
                                     003D   107 ; FUNCTIONAL DESCRIPTION:
                                     003D   108 ;
                                     003D   109 ; THIS IS A RSX DIRECTIVE HANDLER WHICH IMPLEMENTS THE RSX11M
                                     003D   110 ; "RCVD$" AND "RCVX$" DIRECTIVES.
                                     003D   111 ;
                                     003D   112 ; INPUT PARAMETERS:
                                     003D   113 ;
                                     003D   114 ;	R5 = ADDRESS OF DPB+2
                                     003D   115 ;	R6 = CM IMAGE STACK ADDRESS
                                     003D   116 ;	R10 = ADDRESS OF CM IMAGE DATA BASE
                                     003D   117 ;	R11 = ADDRESS OF IMAGE HEADER
                                     003D   118 ;
                                     003D   119 ; OUTPUT PARAMETERS:
                                     003D   120 ;
                                     003D   121 ;	R10,R11 ARE PRESERVED
                                     003D   122 ;
                                     003D   123 ; IMPLICIT OUTPUTS:
                                     003D   124 ;
                                     003D   125 ;	THE PROPER DIRECTIVE STATUS IS PLACED IN THE IMAGE DSW
                                     003D   126 ;	ALONG WITH THE PROPER SETTING OF THE C-BIT.
                                     003D   127 ;
                                     003D   128 ; DSW RETURN CODES:
                                     003D   129 ;
                                     003D   130 ;	IS.SUC	SUCCESSFUL
                                     003D   131 ;	IE.ADP	BUFFER ACCESS VIOLATION
                                     003D   132 ;	IE.ITS	NO DATA ( ANY QIO ERROR )
                                     003D   133 ;--
                                     003D   134 RSX$RCVX::				; RECEIVE OR EXIT
            57            01     9A  003D   135 	MOVZBL	#1,R7			; SET EXIT FLAG
                          02     11  0040   136 	BRB	10$			; AND CONTINUE IN COMMON
                                     0042   137 RSX$RCVD::				; RECEIVE DATA DIRECTIVE
                          57     D4  0042   138 	CLRL	R7			; SET FLAG FOR NO EXIT
                                     0044   139 10$:					; COMMON ENTRY POINT TO RECEIVES
            54         04 A5     3C  0044   140 	MOVZWL	4(R5),R4		; ADDRESS BUFFER SPECIFIED
            3D            54     E8  0048   141 	BLBS	R4,22$			; IF LOW SET THEN ERROR
            52       0160 CA     D0  004B   142 	MOVL	I_RCVMAIL(R10),R2	; GET MAILBOX CHANNEL
                          2B     13  0050   143 	BEQL	20$			; IF EQL THEN NO BOX AND NO DATA
                                     0052   144 ;
                                     0052   145 ; READ THE MAILBOX
                                     0052   146 ;
                                     0052   147 	$QIOW_S	#7,I_RCVMAIL(R10),#IO$_READVBLK!IO$M_NOW,I_SCRATCH(R10)-
                                     0052   148 	,,,4(R4),#26
            07            50     E9  0073   149 	BLBC	R0,20$			; BR IF NOT SUCCESS
            50         28 AA     3C  0076   150 	MOVZWL	I_SCRATCH(R10),R0	; SET ERROR CODE IF ANY
            15            50     E8  007A   151 	BLBS	R0,25$			; IF LOW SET THEN SUCCESS
            53            57     E9  007D   152 20$:	BLBC	R7,35$			; IF CLEAR THEN NO EXIT
            50       0000'8F     3C  0080   153 	MOVZWL	#SS$_NORMAL,R0		;
                          FF78'  31  0085   154 	BRW	RSX$INTERNEXIT		;
                                     0088   155 22$:	$DSW	#IE.ADP			; ADDRESS INVALID ERROR
                                     0092   156 ;
RSXIO           - RSX11M GMCR$,RCVD$,RCVX$,SDAT$ DIRECTIVES      22-AUG-1978 05:08:58   VAX-11 MACRO X0.3-11               Page   4
V06.0           RSX$RCVD/RSX$RCVX - RSX11M RCVD$ AND RCVX$ DIRE                                                                  (3)

                                     0092   157 ; RETURN MESSAGE TO IMAGE
                                     0092   158 ;
                                     0092   159 ; CONVERT NAME OF SENDER TO RAD50
                                     0092   160 ;
         34 AA         44 AA     9E  0092   161 25$:	MOVAB	I_SCRATCH+28(R10),I_SCRATCH+12(R10); SET UP DESC. FOR NAME SERVICE
         38 AA         28 AA     9E  0097   162 	MOVAB	I_SCRATCH(R10),I_SCRATCH+16(R10);
         30 AA   031C0010 8F     D0  009C   163 	MOVL	#16+<JPI$_PRCNAM@16>,I_SCRATCH+8(R10)
                       3C AA     D4  00A4   164 	CLRL	I_SCRATCH+20(R10)
                          64     D4  00A7   165 	CLRL	(R4)			; ASSUME NO NAME
                                     00A9   166 	$GETJPI_S	,I_SCRATCH+4(R10),,I_SCRATCH+8(R10)
            11            50     E9  00BE   167 	BLBC	R0,30$			; IF LOW CLEAR THEN ERROR
            50         28 AA     9A  00C1   168 	MOVZBL	I_SCRATCH(R10),R0	; GET STRING SIZE
            51         44 AA     9E  00C5   169 	MOVAB	I_SCRATCH+28(R10),R1	; ADDRESS STRING
                          6140   94  00C9   170 	CLRB	(R1)[R0]		; MAKE IT ASCIZ
            50            01     9A  00CC   171 	MOVZBL	#1,R0			; SET DOT LEGAL
                          FF2E'  30  00CF   172 	BSBW	RSX$ASCR502		; CONVERT NAME
                                 05  00D2   173 30$:	RSB				; RETURN
                                     00D3   174 ;
                                     00D3   175 ; NO DATA OR OTHER ERROR
                                     00D3   176 ;
                                     00D3   177 35$:	$DSW	#IE.ITS			; SET STATUS AND EXIT
                                     00DD   178
                                     00DD   179 	.DSABL	LSB
RSXIO           - RSX11M GMCR$,RCVD$,RCVX$,SDAT$ DIRECTIVES      22-AUG-1978 05:08:58   VAX-11 MACRO X0.3-11               Page   5
V06.0           RSX$SDAT - RSX11M SDAT$ DIRECTIVE                                                                                (4)

                                     00DD   181 	.SBTTL	RSX$SDAT - RSX11M SDAT$ DIRECTIVE
                                     00DD   182 ;++
                                     00DD   183 ; RSX$SDAT - RSX11M SEND DATA DIRECTIVE
                                     00DD   184 ;
                                     00DD   185 ; FUNCTIONAL DESCRIPTION:
                                     00DD   186 ;
                                     00DD   187 ; THIS IS A RSX DIRECTIVE HANDLER WHICH IMPLEMENTS AN RSX11M
                                     00DD   188 ; "SDAT$" DIRECTIVE.
                                     00DD   189 ;
                                     00DD   190 ; INPUT PARAMETERS:
                                     00DD   191 ;
                                     00DD   192 ;	R5 = ADDRESS OF DPB+2
                                     00DD   193 ;	R6 = CM IMAGE STACK ADDRESS
                                     00DD   194 ;	R10 = ADDRESS OF CM IMAGE DATA BASE
                                     00DD   195 ;	R11 = ADDRESS OF IMAGE HEADER
                                     00DD   196 ;
                                     00DD   197 ; OUTPUT PARAMETERS:
                                     00DD   198 ;
                                     00DD   199 ;	R10,R11 ARE PRESERVED
                                     00DD   200 ;
                                     00DD   201 ; IMPLICIT OUTPUTS:
                                     00DD   202 ;
                                     00DD   203 ;	THE PROPER DIRECTIVE STATUS IS PLACED IN THE IMAGE DSW
                                     00DD   204 ;	ALONG WITH THE PROPER SETTING OF THE C-BIT.
                                     00DD   205 ;
                                     00DD   206 ; DSW RETURN CODES:
                                     00DD   207 ;
                                     00DD   208 ;	IS.SUC	SUCCESSFUL
                                     00DD   209 ;	IE.INS	RECEIVER IS UNKNOWN
                                     00DD   210 ;	IE.IEF	ILLEGAL EVENT FLAG
                                     00DD   211 ;	IE.ADP	BUFFER ACCESS VIOLATION
                                     00DD   212 ;--
                                     00DD   213 NOBOX:					; NO MAILBOX ERROR
                                     00DD   214 	$DSW	#IE.INS			;
                                     00E7   215 RSX$SDAT::				; SEND DATA DIRECTIVE
   B37C66E4 8F            65     D1  00E7   216 	CMPL	(R5),#^XB37C66E4	; SEND TO "PRT..."?
                          03     12  00EE   217 	BNEQ	1$
                          009D   31  00F0   218 	BRW	200$
                          FF0A'  30  00F3   219 1$:	BSBW	RSX$CVTNAME		; CONVERT TARGET NAME TO ASCII
         30 AA   44564352 8F     D0  00F6   220 	MOVL	#C_RCVDSTR,I_SCRATCH+8(R10); INSERT PREFIX
         28 AA            04     C0  00FE   221 	ADDL	#4,I_SCRATCH(R10)	; ADJUST SIZE
         2C AA            04     C2  0102   222 	SUBL	#4,I_SCRATCH+4(R10)	; ADJUST POINTER
            54         04 A5     3C  0106   223 	MOVZWL	4(R5),R4		; GET ADDRESS OF MESSAGE
            6F            54     E8  010A   224 	BLBS	R4,40$			; BR IF LOW SET
            55         06 A5     9E  010D   225 	MOVAB	6(R5),R5		; SET THE EVENT FLAG
                                     0111   226 	$ASSIGN_S	I_SCRATCH(R10),I_SCRATCH+20(R10); ASSIGN TO MAILBOX
            BA            50     E9  0120   227 	BLBC	R0,NOBOX		; IF NO MAILBOX THEN NO SEND
            50            65     9A  0123   228 	MOVZBL	(R5),R0			; GET EFN IF ANY
                          12     13  0126   229 	BEQL	10$			; BR IF NONE
            1F       016C CA     F1  0128   230 	ACBL	I_HIGHEFN(R10),#31,R0,10$; SET UP ACTUAL EFN AND TEST
            000A          50         012D
                                     0130   231 	$DSW	#IE.IEF			; ILLEGAL EFN
                                     013A   232 10$:	$QIOW_S	R0,I_SCRATCH+20(R10),#IO$_WRITEVBLK!IO$M_NOW,I_SCRATCH(R10),,,-
                                     013A   233 		(R4),#26		; SEND MESSAGE
            54            50     D0  0159   234 	MOVL	R0,R4			; SAVE STATUS
            04            50     E9  015C   235 	BLBC	R0,13$			; IF LOW CLEAR THE QIO ERROR
            54         28 AA     D0  015F   236 	MOVL	I_SCRATCH(R10),R4	; SET UP IOSB STATUS
RSXIO           - RSX11M GMCR$,RCVD$,RCVX$,SDAT$ DIRECTIVES      22-AUG-1978 05:08:58   VAX-11 MACRO X0.3-11               Page   6
V06.0           RSX$SDAT - RSX11M SDAT$ DIRECTIVE                                                                                (4)

                                     0163   237 13$:	$DASSGN_S	I_SCRATCH+20(R10); DEASSIGN CHANNEL
            0A            54     E8  016E   238 	BLBS	R4,25$			; IF LOW SET THEN SUCCESS
                                     0171   239 	$DSW	#IE.ITS			; RETURN THE ERROR
                                 05  017B   240 25$:	RSB
                                     017C   241 40$:	$DSW	#IE.ADP
                                     0186   242 ;
                                     0186   243 ; SPECIAL CASE SEND TO PRT...
                                     0186   244 ;
                                     0186   245 100$:	$DSW	#IE.ADP			;
            55         04 A5     3C  0190   246 200$:	MOVZWL	4(R5),R5		; ADDRESS BUFFER
            E5            55     E8  0194   247 	BLBS	R5,40$			; BR IF LOW SET
                                     0197   248 	IFNORD	#26,(R5),100$		; IF NO ACCESS THEN ERROR
            50         0A A5     3C  019D   249 	MOVZWL	10(R5),R0		; GET DEVICE NAME
            51         0C A5     3C  01A1   250 	MOVZWL	12(R5),R1		; GET DEVICE UNIT
                     0060 8F     BB  01A5   251 	PUSHR	#^M<R5,R6>		;
                          FE54'  30  01A9   252 	BSBW	RSX$SRCHDEV_BIN		; FIND THE DEVICE
                          03     13  01AC   253 	BEQL	210$
                          0096   31  01AE   254 	BRW	300$
            50       0000'CF     9E  01B1   255 210$:	MOVAB	W^RSX$T_SYSPRINT,R0	; ADDRESS SYSPRINT STRING
         28 AA            80     9A  01B6   256 	MOVZBL	(R0)+,I_SCRATCH(R10)	; TRANSLATE THE STRING
         2C AA            50     D0  01BA   257 	MOVL	R0,I_SCRATCH+4(R10)	;
            52            03     D0  01BE   258 	MOVL	#3,R2			; SET LOOP COUNT
                                     01C1   259 220$:
                          FE3C'  30  01C1   260 	BSBW	RSX$TRANS_LOGIC		;
            FA            52     F5  01C4   261 	SOBGTR	R2,220$			; CONTINUE UNTIL DONE
            50         28 AA     9A  01C7   262 	MOVZBL	I_SCRATCH(R10),R0	; GET STRING SIZE
         2A AA            50     90  01CB   263 	MOVB	R0,I_SCRATCH+2(R10)	; INSERT IT
         2C BA            50     2C  01CF   264 	MOVC5	R0,@I_SCRATCH+4(R10),#0,#15,I_SCRATCH+3(R10); MOVE Q NAME
            0F            00         01D3
                       2B AA         01D5
            50         2E A6     3C  01D7   265 	MOVZWL	LUT_INFONAME(R6),R0	; GET DEVICE NAME
            51         30 A6     9A  01DB   266 	MOVZBL	LUT_INFOUNIT(R6),R1	; AND UNIT
            57            83     9E  01DF   267 	MOVAB	(R3)+,R7		; COPY STARTING ADDRESS AND SKIP
                          FE1B'  30  01E2   268 	BSBW	RSX$BLDPHYDEV		; BUILD DEVICE NAME
            53            57     C2  01E5   269 	SUBL	R7,R3			; GET SIZE
            53            01     83  01E8   270 	SUBB3	#1,R3,(R7)		; ADJUST AND STORE
                          67         01EB
            55            6E     D0  01EC   271 	MOVL	(SP),R5			; GET BUFFER ADDRESS
         4A AA         0E A5     D0  01EF   272 	MOVL	14(R5),I_SCRATCH+34(R10); INSERT FID
         4E AA         12 A5     B0  01F4   273 	MOVW	18(R5),I_SCRATCH+38(R10);
         50 AA         14 A5     D0  01F9   274 	MOVL	20(R5),I_SCRATCH+40(R10); INSERT DID
         54 AA         18 A5     B0  01FE   275 	MOVW	24(R5),I_SCRATCH+44(R10);
            57         57 AA     9E  0203   276 	MOVAB	I_SCRATCH+47(R10),R7	; CONVERT NAME
                          57     DD  0207   277 	PUSHL	R7
            54         FA A5     9E  0209   278 	MOVAB	-6(R5),R4		; ADDRESS RAD50 SOURCE AS FNB
                          FDF0'  30  020D   279 	BSBW	RSX$BLDFNAME		; BUILD FILE NAME
                          67     7C  0210   280 	CLRQ	(R7)
                       08 A7     7C  0212   281 	CLRQ	8(R7)
            57            8E     C2  0215   282 	SUBL	(SP)+,R7		; GET SIZE OF FILE NAME STRING
         56 AA            57     90  0218   283 	MOVB	R7,I_SCRATCH+46(R10)	; INSERT IT IN MESSAGE
         28 AA            08     B0  021C   284 	MOVW	#SMR$K_ENTER,I_SCRATCH(R10);
         72 AA         28 AA     9E  0220   285 	MOVAB	I_SCRATCH(R10),I_SCRATCH+74(R10)
         6E AA         42 8F     9A  0225   286 	MOVZBL	#66,I_SCRATCH+70(R10)	;
                          7E     D4  022A   287 	CLRL	-(SP)			; NO MAILBOX
                       6E AA     9F  022C   288 	PUSHAB	I_SCRATCH+70(R10)		;
   00000000'9F            02     FB  022F   289 	CALLS	#2,@#SYS$SNDSMB		; SEND MESSAGE TO SYMBIONT
            0E            50     E8  0236   290 	BLBS	R0,300$			; IF LOW SET THEN SUCCESS
RSXIO           - RSX11M GMCR$,RCVD$,RCVX$,SDAT$ DIRECTIVES      22-AUG-1978 05:08:58   VAX-11 MACRO X0.3-11               Page   7
V06.0           RSX$SDAT - RSX11M SDAT$ DIRECTIVE                                                                                (4)

                     0060 8F     BA  0239   291 	POPR	#^M<R5,R6>		;
                                     023D   292 	$DSW	#IE.ITS			;
                                     0247   293 ;
                     0060 8F     BA  0247   294 300$:	POPR	#^M<R5,R6>
                                 05  024B   295 	RSB
                                     024C   296 	.END
RSXIO           - RSX11M GMCR$,RCVD$,RCVX$,SDAT$ DIRECTIVES      22-AUG-1978 05:08:58   VAX-11 MACRO X0.3-11               Page   8
SYMBOL TABLE                                                                                                                     (4)

$$MSG          = 00000000            DEV$V_FOD      = 0000000E            H.RCVA           0000001E
$$T1           = 00000001            DEV$V_FOR      = 00000018            H.RRVA           00000032
...GBL         = 00000000            DEV$V_GEN      = 00000011            H.SPRI           00000030
ACBC_CTLRCAST  = 00000002            DEV$V_IDV      = 0000001A            H.TKVA           00000016
ACBC_FLOATAST  = 00000003            DEV$V_MBX      = 00000014            H.TKVL           00000018
ACBC_PWRAST    = 00000000            DEV$V_MNT      = 00000013            H.VEXT           0000002E
ACBC_RCVAST    = 00000001            DEV$V_NET      = 0000000D            H.WND            00000024
ACBV_INPROG    = 00000001            DEV$V_ODV      = 0000001B            IE.2DV         = FFFFFFD0
ACBV_PERM      = 00000000            DEV$V_RCK      = 0000001E            IE.ABO         = FFFFFFF1
ACBV_TYPE      = 00000008            DEV$V_REC      = 00000000            IE.ACT         = FFFFFFF9
ACB_FLAGS        0000000C            DEV$V_RND      = 0000001C            IE.ADP         = FFFFFF9E
ACB_LINK         00000000            DEV$V_RTM      = 0000001D            IE.ALC         = FFFFFFAC
ACB_UPC          0000000A            DEV$V_SDI      = 00000004            IE.ALG         = FFFFFFAC
ACB_UPRM         00000008            DEV$V_SHR      = 00000010            IE.ALN         = FFFFFFDE
ADR_HIGHLIM      00000004            DEV$V_SPL      = 00000006            IE.AST         = FFFFFFB0
ADR_LOWLIM       00000000            DEV$V_SQD      = 00000005            IE.BAD         = FFFFFFFF
ADR_SIZE         00000008            DEV$V_SWL      = 00000019            IE.BBE         = FFFFFFC8
AP_NAME          00000004            DEV$V_TRM      = 00000002            IE.BCC         = FFFFFFBE
AST_PARAM        00000004            DEV$V_WCK      = 0000001F            IE.BDI         = FFFFFFCC
AST_PC           00000010            FCB_ATTRIBS      0000007C            IE.BDR         = FFFFFFCE
AST_PSL          00000014            FCB_FIB          0000004C            IE.BDV         = FFFFFFC9
AST_R0           00000008            FCB_FID          00000000            IE.BHD         = FFFFFFC0
AST_R1           0000000C            FCB_FNAME        00000014            IE.BLB         = FFFFFFBA
BIT...         = 00000071            FCB_FNAMEDESC    0000000C            IE.BLK         = FFFFFFEC
C_CANONPS      = 83C00000            FCB_FNB          00000002            IE.BNM         = FFFFFFCA
C_RCVDSTR      = 44564352            FCB_PC           00000078            IE.BTF         = FFFFFFB4
DEV$M_ALL      = 00800000            FCB_RESULT       00000030            IE.BTP         = FFFFFFD5
DEV$M_AVL      = 00040000            FCB_RESULTDESC   00000004            IE.BVR         = FFFFFFC1
DEV$M_CCL      = 00000002            FCB_SIZE         000000B4            IE.BYT         = FFFFFFED
DEV$M_DIR      = 00000008            FP_AP            00000008            IE.CKP         = FFFFFFF6
DEV$M_DMT      = 00200000            FP_FP            0000000C            IE.CKS         = FFFFFFE2
DEV$M_ELG      = 00400000            FP_PC            00000010            IE.CLO         = FFFFFFDA
DEV$M_FOD      = 00004000            FP_PSL           00000004            IE.CNR         = FFFFFFB7
DEV$M_FOR      = 01000000            FP_REGISTERS     00000014            IE.CON         = FFFFFFEA
DEV$M_GEN      = 00020000            GBL...         = 00000000            IE.DAA         = FFFFFFF8
DEV$M_IDV      = 04000000            H.CSP            00000000            IE.DAO         = FFFFFFF3
DEV$M_MBX      = 00100000            H.CUIC           00000008            IE.DFU         = FFFFFFE8
DEV$M_MNT      = 00080000            H.DSW            00000026            IE.DNA         = FFFFFFF9
DEV$M_NET      = 00002000            H.DUIC           0000000A            IE.DNR         = FFFFFFFD
DEV$M_ODV      = 08000000            H.EFLM           00000004            IE.DUN         = FFFFFFF7
DEV$M_RCK      = 40000000            H.EFSV           00000020            IE.DUP         = FFFFFFC7
DEV$M_REC      = 00000001            H.FCS            00000028            IE.EOF         = FFFFFFF6
DEV$M_RND      = 10000000            H.FORT           0000002A            IE.EOT         = FFFFFFC2
DEV$M_RTM      = 20000000            H.FPSA           00000022            IE.EOV         = FFFFFFF5
DEV$M_SDI      = 00000010            H.FPVA           0000001C            IE.EXP         = FFFFFFB5
DEV$M_SHR      = 00010000            H.GARD           0000003A            IE.FEX         = FFFFFFCF
DEV$M_SPL      = 00000040            H.HDLN           00000002            IE.FHE         = FFFFFFC5
DEV$M_SQD      = 00000020            H.IPC            0000000E            IE.FIX         = FFFFFFF7
DEV$M_SWL      = 02000000            H.IPS            0000000C            IE.FLN         = FFFFFFAF
DEV$M_TRM      = 00000004            H.ISP            00000010            IE.FOP         = FFFFFFCB
DEV$M_WCK      = 80000000            H.LUN            0000003E            IE.HFU         = FFFFFFE4
DEV$V_ALL      = 00000017            H.NLUN           0000003C            IE.HWR         = FFFFFFFA
DEV$V_AVL      = 00000012            H.NML            00000031            IE.IBS         = FFFFFFA7
DEV$V_CCL      = 00000001            H.ODVA           00000012            IE.IDU         = FFFFFFA4
DEV$V_DIR      = 00000003            H.ODVL           00000014            IE.IEF         = FFFFFF9F
DEV$V_DMT      = 00000015            H.OVLY           0000002C            IE.IES         = FFFFFFAE
DEV$V_ELG      = 00000016            H.PFVA           0000001A            IE.IFC         = FFFFFFFE
RSXIO           - RSX11M GMCR$,RCVD$,RCVX$,SDAT$ DIRECTIVES      22-AUG-1978 05:08:58   VAX-11 MACRO X0.3-11               Page   9
SYMBOL TABLE                                                                                                                     (4)

IE.IFU         = FFFFFFE7            IE.ULN         = FFFFFFFB            I_LUT            00000168
IE.ILL         = FFFFFFD6            IE.UNS         = FFFFFFFC            I_NLUN           00000164
IE.ILU         = FFFFFFA0            IE.UPN         = FFFFFFFF            I_PC             00000020
IE.ILV         = FFFFFFED            IE.VER         = FFFFFFFC            I_PPFINDEX       00000162
IE.INS         = FFFFFFFE            IE.WAC         = FFFFFFE3            I_PROCNAME       0000014C
IE.IOP         = FFFFFFAD            IE.WAT         = FFFFFFE1            I_PS             00000024
IE.IPR         = FFFFFFA1            IE.WCK         = FFFFFFAA            I_PWRAST         000001A0
IE.ISQ         = FFFFFFC3            IE.WER         = FFFFFFDF            I_R0             00000000
IE.ITI         = FFFFFFA3            IE.WLK         = FFFFFFF4            I_R1             00000004
IE.ITP         = FFFFFFA8            IE.WOV         = FFFFFFAB            I_R2             00000008
IE.ITS         = FFFFFFF8            IO$M_NOW         ********   X   05   I_R3             0000000C
IE.IUI         = FFFFFFA5            IO$_READVBLK     ********   X   05   I_R4             00000010
IE.LCK         = FFFFFFE5            IO$_WRITEVBLK    ********   X   05   I_R5             00000014
IE.LNL         = FFFFFFA6            IS.BV          = 00000005            I_R6             00000018
IE.MAP         = FFFFFFAF            IS.CC          = 00000301            I_RAD50NAME      00000148
IE.MOD         = FFFFFFEB            IS.CLR         = 00000000            I_RCVAST         0000019C
IE.NBF         = FFFFFFD9            IS.CR          = 00000D01            I_RCVMAIL        00000160
IE.NBK         = FFFFFFD7            IS.EOT         = 00000401            I_RUNFLAGS       0000018C
IE.NDR         = FFFFFFB8            IS.ESC         = 00001B01            I_SCRATCH        00000028
IE.NFI         = FFFFFFC4            IS.ESQ         = 00009B01            I_SSTVEC         00000194
IE.NFW         = FFFFFFBB            IS.PES         = 00008001            I_SSTVECL        00000196
IE.NLK         = FFFFFFB1            IS.PND         = 00000000            I_STATE          00000170
IE.NLN         = FFFFFFDB            IS.RDD         = 00000002            I_TYPE           0000001C
IE.NNC         = FFFFFFB3            IS.SET         = 00000002            I_UIC            0000013C
IE.NNL         = FFFFFFB2            IS.SPD         = 00000002            I_WAIT           00000178
IE.NNN         = FFFFFFBC            IS.SUC         = 00000001            I_WAITSAVE       00000180
IE.NOD         = FFFFFFE9            IS.TAB         = 00000901            JPI$C_ADRTYPE  = 00000001
IE.NSF         = FFFFFFE6            IS.TMO         = 00000002            JPI$C_CTLTYPE  = 00000002
IE.NST         = FFFFFFB0            I_ADR0           000000FC            JPI$C_LISTEND  = 00000000
IE.NSW         = FFFFFFEE            I_ASCIINAME      00000140            JPI$C_PCBTYPE  = 00000003
IE.NVR         = FFFFFFAA            I_ASTPOOL        000000D0            JPI$C_PHDTYPE  = 00000004
IE.NVW         = FFFFFFA9            I_ASTQUEUE       000000C8            JPI$_ACCOUNT   = 00000203
IE.OFL         = FFFFFFBF            I_BAILOUTFP      00000188            JPI$_APTCNT    = 0000030A
IE.ONP         = FFFFFFFB            I_CMDROUT        000000E8            JPI$_ASTACT    = 00000300
IE.OVR         = FFFFFFEE            I_CURAST         00000198            JPI$_ASTCNT    = 0000030E
IE.PES         = FFFFFFAD            I_DEBVEC         00000190            JPI$_ASTEN     = 00000301
IE.PNS         = FFFFFFA2            I_DEBVECL        00000192            JPI$_ASTLM     = 00000409
IE.PRI         = FFFFFFF0            I_FCBPOOL        000000D8            JPI$_BIOCNT    = 0000030F
IE.PTS         = FFFFFFFD            I_FCC            000001B4            JPI$_BIOLM     = 00000310
IE.RAC         = FFFFFFD4            I_FLOATA0        000001C0            JPI$_BUFIO     = 0000040C
IE.RAT         = FFFFFFD3            I_FLOATA1        000001C8            JPI$_BYTCNT    = 00000311
IE.RBG         = FFFFFFD8            I_FLOATA2        000001D0            JPI$_BYTLM     = 0000031A
IE.RBS         = FFFFFFF1            I_FLOATA3        000001D8            JPI$_CPULIM    = 0000040D
IE.RCN         = FFFFFFD2            I_FLOATA4        000001E0            JPI$_CPUTIM    = 00000407
IE.RER         = FFFFFFE0            I_FLOATA5        000001E8            JPI$_CURPRIV   = 00000400
IE.RNM         = FFFFFFCD            I_FLOATADR       000001B0            JPI$_DFPFC     = 00000406
IE.RSU         = FFFFFFEF            I_FLOATAST       000001A4            JPI$_DFWSCNT   = 00000403
IE.SDP         = FFFFFF9D            I_FLOATCSR       000001A8            JPI$_DIOCNT    = 00000312
IE.SNC         = FFFFFFDD            I_FLOATERR       000001AC            JPI$_DIOLM     = 00000313
IE.SPC         = FFFFFFFA            I_FLOATTMP       000001B8            JPI$_DIRIO     = 0000040B
IE.SQC         = FFFFFFDC            I_GARD           000000EC            JPI$_EFCS      = 00000317
IE.SRE         = FFFFFFF2            I_HIGHEFN        0000016C            JPI$_EFCU      = 00000318
IE.STK         = FFFFFFC6            I_HIGHSIZE       000000F4            JPI$_EFWM      = 00000316
IE.TCH         = FFFFFFF5            I_IMAGEVBN       000000F8            JPI$_EXCVEC    = 00000100
IE.TMM         = FFFFFFB9            I_INISIZE        000000F0            JPI$_FILCNT    = 00000314
IE.TMO         = FFFFFFB6            I_LENGTH         000001F0            JPI$_FILLM     = 0000040F
IE.ULK         = FFFFFFAB            I_LOGNAME        000000E0            JPI$_FINALEXC  = 00000101
RSXIO           - RSX11M GMCR$,RCVD$,RCVX$,SDAT$ DIRECTIVES      22-AUG-1978 05:08:58   VAX-11 MACRO X0.3-11               Page  10
SYMBOL TABLE                                                                                                                     (4)

JPI$_FREP0VA   = 00000404            PSL_CM         = 0000001F            SMO$K_FLAGPAG  = 00000004
JPI$_FREP1VA   = 00000405            PSL_FPD        = 0000001B            SMO$K_FORMTYPE = 00000024
JPI$_GPGCNT    = 0000030C            PSL_FU         = 00000006            SMO$K_GENDEV   = 00000044
JPI$_GRP       = 00000308            PSL_TBIT       = 00000004            SMO$K_GENPRT   = 00000041
JPI$_LASTADR   = 00000102            QIOV_FILES     = 00000000            SMO$K_HOLD     = 00000021
JPI$_LASTCTL   = 00000207            QIO_FLAGS        0000001A            SMO$K_INIPRI   = 0000004D
JPI$_LASTPCB   = 0000031D            QIO_IOSB         0000000E            SMO$K_JOBCOPY  = 00000023
JPI$_LASTPHD   = 00000412            QIO_LUT          00000016            SMO$K_JOBLIM   = 0000004C
JPI$_LOGINTIM  = 00000206            QIO_SECONDBLK    0000001C            SMO$K_JOBNAME  = 00000027
JPI$_MEM       = 00000307            QIO_SIZE         00000020            SMO$K_JOBPRI   = 00000022
JPI$_OWNER     = 00000303            RSX$ASCR502      ********   X   05   SMO$K_LOWER    = 00000025
JPI$_PAGEFLTS  = 0000040A            RSX$BLDFNAME     ********   X   05   SMO$K_NEXTJOB  = 00000060
JPI$_PGFLQUOTA = 0000040E            RSX$BLDPHYDEV    ********   X   05   SMO$K_NOBRSTPAG= 00000003
JPI$_PID       = 00000319            RSX$CVTNAME      ********   X   05   SMO$K_NODEFBRST= 00000047
JPI$_PPGCNT    = 0000030D            RSX$C_SUBSYSTEM= 00000006            SMO$K_NODEFFLAG= 00000049
JPI$_PRCCNT    = 0000031B            RSX$GMCR         00000000 RG    05   SMO$K_NOFEED   = 00000008
JPI$_PRCLM     = 00000408            RSX$INTERNEXIT   ********   X   05   SMO$K_NOFLAGPAG= 00000005
JPI$_PRCNAM    = 0000031C            RSX$RCVD         00000042 RG    05   SMO$K_NOGENDEV = 00000045
JPI$_PRI       = 00000302            RSX$RCVX         0000003D RG    05   SMO$K_NOGENPRT = 00000042
JPI$_PRIB      = 00000309            RSX$SDAT         000000E7 RG    05   SMO$K_NOLOWER  = 00000028
JPI$_PROCPRIV  = 00000204            RSX$SRCHDEV_BIN  ********   X   05   SMO$K_NOTRMDEV = 0000004B
JPI$_STATE     = 00000306            RSX$TRANS_LOGIC  ********   X   05   SMO$K_PAGCNT   = 00000009
JPI$_STS       = 00000305            RSX$T_SYSPRINT   ********   X   05   SMO$K_PAGHDR   = 00000006
JPI$_TMBU      = 0000030B            RSX$_ACCVIO    = 00068044            SMO$K_PARAMS   = 00000026
JPI$_TQCNT     = 00000315            RSX$_BADLIBREF = 0006806C            SMO$K_REQUEUE  = 00000070
JPI$_TQLM      = 00000410            RSX$_BADSTACK  = 0006804C            SMO$K_RLSTIM   = 00000020
JPI$_UIC       = 00000304            RSX$_BREAK     = 0006800C            SMO$K_SPCCNT   = 00000062
JPI$_USERNAME  = 00000202            RSX$_EXITSTATUS= 00068640            SMO$K_TOPOFILE = 00000061
JPI$_VIRTPEAK  = 00000200            RSX$_EXTERNABRT= 0006805C            SMO$K_TRMDEV   = 0000004A
JPI$_VOLUMES   = 00000205            RSX$_ILLINST   = 0006802C            SMR$K_ABORT    = 0000000E
JPI$_WSAUTH    = 00000401            RSX$_IMAGETERM = 00068084            SMR$K_ADDFIL   = 0000000A
JPI$_WSPEAK    = 00000201            RSX$_INSFDYNMEM= 00068054            SMR$K_ALTER    = 0000000D
JPI$_WSQUOTA   = 00000402            RSX$_IOT       = 00068014            SMR$K_CLSJOB   = 0000000B
JPI$_WSSIZE    = 00000411            RSX$_LIBNOTFND = 00068074            SMR$K_CREJOB   = 00000009
LUTC_CR        = 00000005            RSX$_LOADERROR = 0006807C            SMR$K_DELETE   = 00000001
LUTC_DISK      = 00000002            RSX$_NOCOMM    = 00068094            SMR$K_DETINIT  = 00000010
LUTC_LP        = 00000004            RSX$_NONRSXEMT = 0006801C            SMR$K_ENTER    = 00000008
LUTC_RMS       = 00000000            RSX$_NOPMD     = 00068332            SMR$K_INITIAL  = 00000000
LUTC_TAPE      = 00000003            RSX$_NOSUCHDEV = 00068322            SMR$K_JUSTIFY  = 00000006
LUTC_TRM       = 00000001            RSX$_NOTSKIMG  = 00068064            SMR$K_MERGE    = 00000004
LUTV_CTRLC     = 00000002            RSX$_ODDADDR   = 00068034            SMR$K_PAUSE    = 00000003
LUTV_CTRLO     = 00000000            RSX$_PMD       = 0006832A            SMR$K_REDIRECT = 00000005
LUTV_PRM       = 00000003            RSX$_RCVMBXSIZ = 0000012C            SMR$K_RELEASE  = 0000000F
LUT_CHAN         0000000C            RSX$_REGMSG    = 0006808C            SMR$K_RMVJOB   = 0000000C
LUT_CHAR         00000012            RSX$_RESERVED  = 00068004            SMR$K_START    = 00000002
LUT_CTRLC        00000032            RSX$_TBIT      = 0006803C            SMR$K_STOP     = 00000007
LUT_FLAGS        0000000A            RSX$_TRAP      = 00068024            SMR$K_SYNCJOB  = 00000011
LUT_INFONAME     0000002E            RSX$_VERIFYCMD = 00068648            SS$_NORMAL       ********   X   05
LUT_INFOUNIT     00000030            SMO$K_BRSTPAG  = 00000002            SV_ASTLVL        00000004
LUT_LINK         00000000            SMO$K_COPIES   = 0000000A            SV_DCL           00000002
LUT_REALNAME     0000001E            SMO$K_CURFORM  = 00000040            SV_FLOATAST      00000009
LUT_REF          00000008            SMO$K_DEFBRST  = 00000046            SV_NOAST         00000003
LUT_RSXNAME      00000010            SMO$K_DEFFLAG  = 00000048            SV_PENDWAIT      00000005
LUT_SIZE         00000036            SMO$K_DELETE   = 00000001            SV_PWRAST        00000008
LUT_TYPE         00000016            SMO$K_DETJOB   = 00000043            SV_RCVAST        00000007
NOBOX            000000DD R     05   SMO$K_DISWAP   = 0000004E            SV_RESTORE       00000000
PSL_CC         = 00000000            SMO$K_DOUBLE   = 00000007            SV_TRANSLATE     00000001
RSXIO           - RSX11M GMCR$,RCVD$,RCVX$,SDAT$ DIRECTIVES      22-AUG-1978 05:08:58   VAX-11 MACRO X0.3-11               Page  11
SYMBOL TABLE                                                                                                                     (4)

SV_WAIT          00000006
SYS$ASSIGN       ********   X   05
SYS$DASSGN       ********   X   05
SYS$GETJPI       ********   X   05
SYS$QIOW         ********   X   05
SYS$SNDSMB       ********   X   05
W.BATT           00000006
W.BFPD           0000000C
W.BHVR           00000004
W.BLGH           00000010
W.BLPD           0000000E
W.BLVR           00000002
W.BNPD           0000000D
W.BOFF           0000000A
W.BPCB           00000000
W.BSIZ           00000008


PROGRAM SECTION SYNOPSIS

.  ABS  .        00000000      00     NOPIC   USR   CON   ABS   LCL NOSHR NOEXE NORD  NOWRT BYTE
. BLANK .        00000000      01     NOPIC   USR   CON   REL   LCL NOSHR   EXE   RD    WRT BYTE
..ABS.           00000042      02     NOPIC   USR   CON   ABS   LCL NOSHR   EXE   RD    WRT BYTE
$ABS$            00000000      03     NOPIC   USR   CON   ABS   LCL NOSHR   EXE   RD    WRT BYTE
RSXDEF           000001F4      04     NOPIC   USR   CON   ABS   LCL NOSHR   EXE   RD    WRT BYTE
RSXCODE          0000024C      05       PIC   USR   CON   REL   LCL   SHR   EXE   RD  NOWRT BYTE


THERE WERE NO ERRORS OR WARNINGS.
10820. BYTES LEFT IN FREE MEMORY POOL.
502. BYTES OF RECLAIMED MEMORY.
OBJ$:RSXIO,LIS$:RSXIO/-SP=EXECML$/ML,LIB$:R/ML,SRC$:RSXIO
45 MLB DIR RDS - 786 GETS TO DEFINE 30 MACROS. 38 INTER. FILE WRITES.
