LOGDET          - LOGIN A BATCH JOB                              22-AUG-1978 00:33:33   VAX-11 MACRO X0.3-11               Page   0
TABLE OF CONTENTS

   (2)      39  DECLARATIONS
   (3)      88  LOGIN DETACHED JOB
LOGDET          - LOGIN A BATCH JOB                              22-AUG-1978 00:33:33   VAX-11 MACRO X0.3-11               Page   1
01                                                                                                                               (1)

                                     0000     1 	.TITLE	LOGDET - LOGIN A BATCH JOB
                                     0000     2 	.IDENT	/01/
                                     0000     3
                                     0000     4 ;
                                     0000     5 ;			  COPYRIGHT (c) 1977 BY
                                     0000     6 ;	      DIGITAL EQUIPMENT CORPORATION, MAYNARD, MASS.
                                     0000     7 ;
                                     0000     8 ; THIS SOFTWARE IS FURNISHED UNDER A LICENSE AND MAY BE USED AND  COPIED
                                     0000     9 ; ONLY  IN  ACCORDANCE  WITH  THE  TERMS  OF  SUCH  LICENSE AND WITH THE
                                     0000    10 ; INCLUSION OF THE ABOVE COPYRIGHT NOTICE.  THIS SOFTWARE OR  ANY  OTHER
                                     0000    11 ; COPIES  THEREOF MAY NOT BE PROVIDED OR OTHERWISE MADE AVAILABLE TO ANY
                                     0000    12 ; OTHER PERSON.  NO TITLE TO AND OWNERSHIP OF  THE  SOFTWARE  IS  HEREBY
                                     0000    13 ; TRANSFERRED.
                                     0000    14 ;
                                     0000    15 ; THE INFORMATION IN THIS SOFTWARE IS SUBJECT TO CHANGE  WITHOUT  NOTICE
                                     0000    16 ; AND  SHOULD  NOT  BE  CONSTRUED  AS  A COMMITMENT BY DIGITAL EQUIPMENT
                                     0000    17 ; CORPORATION.
                                     0000    18 ;
                                     0000    19 ; DIGITAL ASSUMES NO RESPONSIBILITY FOR THE USE OR  RELIABILITY  OF  ITS
                                     0000    20 ; SOFTWARE ON EQUIPMENT WHICH IS NOT SUPPLIED BY DIGITAL.
                                     0000    21 ;
                                     0000    22
                                     0000    23 ;++
                                     0000    24 ; FACILITY:	SYSTEM UTILITY PROGRAM
                                     0000    25 ;
                                     0000    26 ; ABSTRACT:	LOGIN BATCH JOB
                                     0000    27 ;
                                     0000    28 ;
                                     0000    29 ; ENVIRONMENT:	NATIVE MODE PRIVILEGED PROCEEDURE
                                     0000    30 ;
                                     0000    31 ; AUTHOR:	W. H. BROWN, CREATION DATE: 18-JULY-1977
                                     0000    32 ;
                                     0000    33 ; MODIFIED BY:
                                     0000    34 ;
                                     0000    35 ;	, : VERSION
                                     0000    36 ; 01	-
                                     0000    37 ;--
LOGDET          - LOGIN A BATCH JOB                              22-AUG-1978 00:33:33   VAX-11 MACRO X0.3-11               Page   2
01              DECLARATIONS                                                                                                     (2)

                                     0000    39 	.SBTTL	DECLARATIONS
                                     0000    40 ;
                                     0000    41 ; INCLUDE FILES:
                                     0000    42 ;
                                     0000    43 ; MACROS:
                                     0000    44 ;
                                     0000    45 ; EQUATED SYMBOLS:
                                     0000    46 ;
                                     0000    47 	LGIWRKDEF			; LOGIN WORK AREA
                                     0000    48 	DEFPRCWRK			; DEFINE COMMAND WORK AREAS
                                     0000    49 	IDFDEF				; INDIRECT FRAME DEFINITIONS
                                     0000    50 	$DJIDEF				; DETACHED JOB INITIATE MESSAGE
                                     0000    51 	$FABDEF				; RMS DEFINITONS
                                     0000    52 	$MSGDEF				; MESSAGE DEFINITIONS
                                     0000    53 	$NAMDEF				;
                                     0000    54 	$PCBDEF				; PROCESS CONTROL BLOCK DEFINITIONS
                                     0000    55 	$PRDDEF				; DEFINE PROCESS RMS DATA OFFSETS
                                     01B8    56 	$SMRDEF				; SYMBIONT MANAGER DEFINITIONS
                                     01B8    57 	$SQRDEF				; SYMBIONT MANAGER QUEUE CODES
                                     01B8    58 	$RABDEF				; RMS RAB DEFINITIONS
                                     01B8    59
                                     01B8    60 	ASSUME	LGI$K_BUFSIZ GE 160	; VERIFY BUFFER IS BIG ENOUGH
                           000000A0  01B8    61 	MBREADSIZ = 160			; SIZE OF MAILBOX READ
                                     01B8    62 ;
                                     01B8    63 ; OWN STORAGE:
                                     01B8    64 ;
                                 00000000    65 	.PSECT	RWDATA	RD,WRT,LONG
                                     0000    66
                               0008  0000    67 ENTER:	.WORD	SMR$K_ENTER		; ENTER FILE IN QUEUE
      54 4E 49 52 50 24 53 59 53 00' 0002    68 10$:	.ASCIC	\SYS$PRINT\		; QUEUE NAME
                                 09  0002
                           00000012  000C    69 	.BLKB	<16-<.-10$>>		; FILL IN 16 BYTE BLOCK
                           00000022  0012    70 LISDEV:	.BLKB	16			; DEVICE ID FOR LISTING IS HERE
                           00000028  0022    71 	.BLKW	3			; FILE ID IS HERE
                           0000002E  0028    72 	.BLKW	3			; DIRECTORY ID HERE
                           00000042  002E    73 	.BLKB	20			; FILENAME
                                 01  0042    74 	.BYTE	SMO$K_DELETE		; REQUEST FILE DELETE AFTER PRINT
                                 06  0043    75 	.BYTE	SMO$K_PAGHDR		; PRINT PAGE WITH HEADERS
                              00 00  0044    76 	.BYTE	0,0			; ROUND TO LONG WORD BOUNDRY
                                     0046    77
                           00000046  0046    78 	ENTSIZ = . - ENTER		; SIZE OF MESSAGE
                                     0046    79
                                 00000000    80 	.PSECT	PURE	RD,NOWRT,BYTE
                                     0000    81
                  00000000'00000046  0000    82 ENTMSG:	.LONG	ENTSIZ,ENTER		; DESCRIPTOR FOR ENTER FILE IN Q MESSAGE
                                     0008    83
                  00000010'00000002' 0008    84 SMBMSG:	.LONG	20$-10$,10$		; DESCRIPTOR
                               0010' 0010    85 10$:	.WORD	SMR$K_DETINIT		; REQUEST CODE AND SPARE WORD
                                     0012    86 20$:
LOGDET          - LOGIN A BATCH JOB                              22-AUG-1978 00:33:33   VAX-11 MACRO X0.3-11               Page   3
01              LOGIN DETACHED JOB                                                                                               (3)

                                     0012    88 	.SBTTL	LOGIN DETACHED JOB
                                     0012    89 ;++
                                     0012    90 ; FUNCTIONAL DESCRIPTION:
                                     0012    91 ;
                                     0012    92 ;	THIS ROUTINE IS CALLED TO INITIATE THE NEXT COMMAND FILE
                                     0012    93 ;	FOR A BATCH JOB.  IF THIS IS THE INITIAL ENTRY FOR THE
                                     0012    94 ;	PROCESS, SOME ADDITIONAL INITIALIZATION IS COMPLETED.
                                     0012    95 ;	THIS INCLUDES EXTENDING THE RMS DATA AREA TO INCLUDE
                                     0012    96 ;	"OUTPUT" FILE AND DIRECTORY ID'S AND THE FILE NAME TO
                                     0012    97 ;	BE USED FOR SPOOLING THIS FILE WHEN THE JOB COMPLETES.
                                     0012    98 ;
                                     0012    99 ; CALLING SEQUENCE:
                                     0012   100 ;
                                     0012   101 ;	BSBW	LGI$INIDET		; INITIATE A DETACHED JOB
                                     0012   102 ;	BSBW	LGI$NXTINP		; NEXT INPUT FOR A DETACHED JOB
                                     0012   103 ;
                                     0012   104 ; INPUT PARAMETERS:
                                     0012   105 ;
                                     0012   106 ;	R11 IS PROCESS IMPURE DATA AREA
                                     0012   107 ;
                                     0012   108 ; IMPLICIT INPUTS:	NONE
                                     0012   109 ;
                                     0012   110 ; OUTPUT PARAMETERS:	NONE
                                     0012   111 ;
                                     0012   112 ; IMPLICIT OUTPUTS:
                                     0012   113 ;
                                     0012   114 ;	THE NEXT JOB STEP INPUT FILE IS OPEN AND LOGIN IS ALLOWED
                                     0012   115 ;	TO PROCEED, OR THE PROCESS IS LOGGED OUT.
                                     0012   116 ;
                                     0012   117 ; COMPLETION CODES:	NONE
                                     0012   118 ;
                                     0012   119 ; SIDE EFFECTS:	NONE
                                     0012   120 ;
                                     0012   121 ;--
                                     0012   122
                                     0012   123 LGI$INIDET::				;
         54 AB       0040 8F     A8  0012   124 	BISW	#PRC_M_MODE,PRC_W_FLAGS(R11) ; INDICATE BATCH JOB
                                 C0  0018   125 	ADDL	#<PRD_K_XLENGTH-PRD_K_LENGTH>,- ; ADJUST STACK LIMIT
       0088 CB            20         0019   126 		PRC_L_STACKLM(R11)	; FOR EXTRA SPACE NEEDED FOR BATCH
                       02 AA     B4  001D   127 	CLRW	IDF_W_OUTIFI(R10)	; FLAG NO OUTPUT OPEN
                                     0020   128
                                     0020   129 LGI$NXTINP::				;
            50         A0 8F     9A  0020   130 	MOVZBL	#MBREADSIZ,R0		; SIZE OF BUFFER TO READ
                                     0024   131 	$CREMBX_S	-		; CREATE A MAILBOX
                                     0024   132 		PROMSK	= #0,-		; NO PROTECTION
                                     0024   133 		MAXMSG	= R0,-		; BIGEST MESSAGE EVER
                                     0024   134 		BUFQUO	= R0,-		; ENOUGH BUFFER FOR 1 MESSAGES
                                     0024   135 		PRMFLG	= #0,-		; NON PERMANENT
                                     0024   136 		CHAN=LGI$W_MBCHAN(AP)	; CHANNEL ASSIGNED RETURNED HERE
            56       0000'CF     9E  0038   137 	MOVAB	W^LGI$G_OUTFAB,R6	; SET OUTPUT FAB
            57       0154 C8     9E  003D   138 	MOVAB	PRD_G_OUTRAB(R8),R7	; SET PROCESS OUTPUT RAB
         02 A6         02 AA     B0  0042   139 	MOVW	IDF_W_OUTIFI(R10),FAB$W_IFI(R6) ; SET IFI OF OUTPUT FILE IF ONE
            07       0094 CB     E8  0047   140 	BLBS	PRC_L_LSTSTATUS(R11),3$ ; BR IF EXIT STATUS WAS SUCESS
       0094 CB            06     93  004C   141 	BITB	#6,PRC_L_LSTSTATUS(R11)	; WAS TERMINAL STATUS ERROR OR SEVER
                          0D     12  0051   142 	BNEQ	7$			; IF NEQ YES, TERMINATE THIS JOB NOW!
            50       FFB1 CF     9E  0053   143 3$:	MOVAB	W^SMBMSG,R0		; ADDRESS OF MESSAGE DESCRIPTOR
                          0180   30  0058   144 	BSBW	SNDSMB			; SEND THE MESSAGE
LOGDET          - LOGIN A BATCH JOB                              22-AUG-1978 00:33:33   VAX-11 MACRO X0.3-11               Page   4
01              LOGIN DETACHED JOB                                                                                               (3)

            63            11     B1  005B   145 	CMPW	#MSG$_ABOOPR,(R3)	; TIME TO EXIT THIS JOB?
                          03     12  005E   146 	BNEQ	10$			; BR IF NO
                          0109   31  0060   147 7$:	BRW	200$			; DELETE THE PROCESS
                       02 A6     B5  0063   148 10$:	TSTW	FAB$W_IFI(R6)		; IS OUTPUT FILE OPEN?
                          03     13  0066   149 	BEQL	20$			; BR IF NOT OPEN
                          00A5   31  0068   150 	BRW	70$			; ELSE PROCEED WITH OPEN OF INPUT
                       08 A3     9F  006B   151 20$:	PUSHAB	DJI$T_USERNAM(R3)	; PUSH ADDRESS OF NAME
                          0C     DD  006E   152 	PUSHL	#12			; LENGTH OF STRING
                     0000'CF     7F  0070   153 	PUSHAQ	W^LGI$Q_UAFREC		; ADDRESS OF RECORD BUFFER
                          7E     D4  0074   154 	CLRL	-(SP)			; NO PASSWORD
                       08 AE     7F  0076   155 	PUSHAQ	8(SP)			; ADDRESS OF NAME DESCRIPTOR
   00000000'EF            05     FB  0079   156 	CALLS	#<3+2>,LGI$SEARCHUSER	; FIND USERS RECORD
            0F            50     E8  0080   157 	BLBS	R0,40$			; BR IF USER FOUND OK
            10            10     ED  0083   158 	CMPZV	#16,#16,R0,#1		; WAS ERROR FROM RMS
            01            50         0086
                          03     13  0088   159 	BEQL	30$			; BR IF YES - LET THE JOB RUN
                          013B   31  008A   160 	BRW	300$			; THE USER IS NO LONGER AUTHORIZED
                                     008D   161 30$:	SETBIT	LGI_V_NOACNT,LGI$W_FLAGS(AP) ; FLAG NO ACCOUNT FILE PRESENT
                          03     11  0090   162 	BRB	50$			;
                          FF6B'  30  0092   163 40$:	BSBW	LGI$SETUSRDEF		; SET USER DEFAULTS
            08            20     3A  0095   164 50$:	LOCC	#^A/ /,#8,DJI$T_JOBNAME(R3) ; FIND FIRST SPACE IN JOB NAME
                       38 A3         0098
            08            50     83  009A   165 	SUBB3	R0,#8,FAB$B_FNS(R6)	; SET SIZE OF NAME IN FAB
                       34 A6         009D
         2C A6         38 A3     9E  009F   166 	MOVAB	DJI$T_JOBNAME(R3),FAB$L_FNA(R6) ; SET ADDRESS OF NAME STRING
                                     00A4   167 	$CREATE	FAB=(R6)		; OPEN THE FILE
                                     00AD   168 	IF_ERR	FATAL,<"SYS$OUTPUT" open>	;
         3C A7            66     9E  00C5   169 	MOVAB	(R6),RAB$L_FAB(R7)	; SET ADDRESS OF OUTPUT FAB INTO RAB
         18 A7         40 A6     D0  00C9   170 	MOVL	FAB$L_DEV(R6),RAB$L_CTX(R7) ; SAVE DEVICE CHAR IN USER CONTEXT
                                     00CE   171 	$CONNECT  RAB=(R7)		; CONNECT TO OUTPUT
         3C A7            68     9E  00D7   172 	MOVAB	(R8),RAB$L_FAB(R7)	; SET PROCESS FAB INCASE EVER USED
                          02     F0  00DB   173 	INSV	#FAB$M_CR,#RAB$V_PPF_RAT,- ; SET DEFAULT RECORD TO
            08            06         00DD   174 		#RAB$S_PPF_RAT,RAB$W_ISI(R7) ; CR/LF MODE
                       02 A7         00DF
         0C AB            57     D0  00E1   175 	MOVL	R7,PRC_L_OUTRAB(R11)	; SET OUTPUT RAB FOR ERROR PRINTING
            51         28 A6     D0  00E5   176 	MOVL	FAB$L_NAM(R6),R1	; GET ADDRESS OF OUTPUT NAME BLOCK
                                     00E9   177 	ASSUME	PRD_W_OUTDID EQ PRD_W_OUTFID+6
                                     00E9   178 	ASSUME	NAM$W_DID EQ NAM$W_FID+6
                          0C     28  00E9   179 	MOVC	#<6+6>,NAM$W_FID(R1),-	; SET FILE AND DIRECTORY ID'S -
       0198 C8         24 A1         00EB   180 		PRD_W_OUTFID(R8)	; INTO RMS DATA AREA OF PROCESS
            50         28 A6     D0  00F0   181 	MOVL	FAB$L_NAM(R6),R0	; GET NAME BLOCK BACK
            55         04 A0     D0  00F4   182 	MOVL	NAM$L_RSA(R0),R5	; SET ADDRESS OF RESULTANT NAME
            54         03 A0     9A  00F8   183 	MOVZBL	NAM$B_RSL(R0),R4	; FORM DESCRIPTOR FOR THAT NAME
            54         5D 8F     3A  00FC   184 	LOCC	#^A/]/,R4,(R5)		; LOOK FOR END OF DIRECTORY
                          65         0100
                          04     12  0101   185 	BNEQ	60$			; BR IF FOUND
            54            3E     3A  0103   186 	LOCC	#^A/>/,R4,(R5)		; ELSE LOOK FOR OTHER DIRECTORY
                          65         0106
            63            70     9E  0107   187 60$:	MOVAB	-(R0),(R3)		; INSERT LENGTH OF REMAINING NAME
         01 A1            50     28  010A   188 	MOVC	R0,1(R1),1(R3)		; COPY NAME INTO RMS DATA AREA
                       01 A3         010E
            55         28 A8     D0  0110   189 70$:	MOVL	FAB$L_NAM(R8),R5	; GET ADDRESS OF INPUT NAME BLOCK
                                     0114   190 	ASSUME	NAM$T_DVI+16 EQ NAM$W_FID ; CHECK FOR ADJACENCY OF FIELDS
                                     0114   191 	ASSUME	NAM$T_DVI+22 EQ NAM$W_DID ;
                                 28  0114   192 	MOVC3	#<16+6+6>,-		; COPY DEVICE,FILE AND DIRECTORY ID'S
                          1C         0115   193 		LGI$T_WRKBUF+DJI$T_VOLNAM(AP),- ; FROM THE JOB INITIATE MESSAGE
         14 A5         30 AC         0116   194 		NAM$T_DVI(R5)		; INTO PROPER FIELDS OF NAME BLOCK
LOGDET          - LOGIN A BATCH JOB                              22-AUG-1978 00:33:33   VAX-11 MACRO X0.3-11               Page   5
01              LOGIN DETACHED JOB                                                                                               (3)

         34 A8            81     90  011A   195 	MOVB	(R1)+,FAB$B_FNS(R8)	; SET FILE NAME SIZE JUST FOR DRILL
         2C A8            61     9E  011E   196 	MOVAB	(R1),FAB$L_FNA(R8)	; AND ALSO ADDRESS OF NAME STRING
         16 A8            02     90  0122   197 	MOVB	#FAB$M_GET,FAB$B_FAC(R8); SET READ ACCESS ONLY
                                     0126   198 	SETBIT	FAB$V_NAM,FAB$L_FOP(R8)	; REQUEST OPEN BY NAME BLOCK
         16 AC            00     E1  012B   199 	BBC	#SQR$V_DELETE,LGI$T_WRKBUF+DJI$B_FLAGS(AP),80$ ; BR IF NO
                          05         012F
                                     0130   200 					; DELETE OF INPUT REQUESTED
                                     0130   201 	SETBIT	FAB$V_DLT,FAB$L_FOP(R8)	; TELL RMS TO DELETE WHEN CLOSED
                                     0135   202 80$:	$OPEN	FAB=(R8)		; OPEN THE INPUT FILE
                       04 A8     D4  013E   203 	CLRL	FAB$L_FOP(R8)		; REMOVE FILE OPTIONS
                                     0141   204 	IF_ERR	FATAL,<"SYS$INPUT" open>
            59       0088 C8     9E  0158   205 	MOVAB	PRD_G_INPRAB(R8),R9	; GET THE PROCESS INPUT RAB ADDRESS
                       02 A9     B4  015D   206 	CLRW	RAB$W_ISI(R9)		; EFFECT A FAST DISCONNECT
                                     0160   207 	$DASSGN_S LGI$W_MBCHAN(R11)	; DEASSIGN CHANNEL TO JOB CONTROL
                                 05  016B   208 	RSB				; PROCEED WITH LOGIN
                                     016C   209
                                     016C   210
                          FE91'  30  016C   211 200$:	BSBW	LGI$LOGOUTMSG		; PRINT LOGOUT MESSAGE
                                     016F   212 	$CLOSE	FAB=(R6)		; CLOSE THE OUTPUT FILE
                                     0178   213 	$CMKRNL_S B^400$,PRC_L_PROCUIC(R11) ; RESET UIC TO THAT AT JOB START
            52       0002'CF     9E  0186   214 	MOVAB	W^ENTER+2,R2		; ADDRESS OF QUEUE NAME
            51            82     9A  018B   215 	MOVZBL	(R2)+,R1		; CONVERT TO QUADWORD DESCRIPTOR
            50            52     D0  018E   216 	MOVL	R2,R0			; SET ADDRESS OF RESULT BUFFER
                          07     BB  0191   217 	PUSHR	#^M<R0,R1,R2>		; PUSH THAT MUCH IN STACK
                          0F     DD  0193   218 	PUSHL	#15			; LENGTH OF RESULTANT BUFFER
            51            6E     7E  0195   219 	MOVAQ	(SP),R1			; ADDRESS OF RESLUTANT BUFFER DESCRIPTOR
            50         08 AE     7E  0198   220 	MOVAQ	8(SP),R0		; AND LOGICAL NAME DESCRIPTOR
                                     019C   221 	$TRNLOG_S (R0),(R1),(R1)	; CONVERT LOGICAL NAME TO REAL NAME
                          0F     BA  01AF   222 	POPR	#^M<R0,R1,R2,R3>	; CLEAN STACK AND GET RESULTANT LENGTH
            71            50     90  01B1   223 	MOVB	R0,-(R1)		; SET COUNT OF NAME LENGTH
         24 AA            10     28  01B4   224 	MOVC	#16,IDF_T_OUTDVI(R10),W^LISDEV ; COPY OUTPUT DEVICE INTO MESSAGE
                     0012'CF         01B8
                                 28  01BB   225 	MOVC	#<6+6+20>,-		; COPY FILE FILE & DIRECTORY ID'S
       0198 C8            20         01BC   226 		PRD_W_OUTFID(R8),(R3)	; FROM PROCESS RMA DATA AREA TO MESSAGE
                          63         01C0
            50       FE3B CF     9E  01C1   227 	MOVAB	ENTMSG,R0		; MESSAGE
                          13     10  01C6   228 	BSBB	SNDSMB			; ASK SYMBIONT MANAGER TO PRINT THE FILE
                          FE35'  31  01C8   229 300$:	BRW	LGI$TERMPROC		; TERMINATE THIS PROCESS
                               0000  01CB   230 400$:	.WORD	0			;
            50   00000000'9F     D0  01CD   231 	MOVL	@#SCH$GL_CURPCB,R0	; GET PROCESS CONTROL BLOCK
         20 A0            6C     D0  01D4   232 	MOVL	(AP),PCB$L_UIC(R0)	; RESET UIC TO THAT AT JOB START
                          50     D6  01D8   233 	INCL	R0			; SET SUCESSFUL STATUS
                                 04  01DA   234 	RET				;
                                     01DB   235
            7E         02 AC     3C  01DB   236 SNDSMB:	MOVZWL	LGI$W_MBCHAN(AP),-(SP) ; MAILBOX CHANNEL
                          60     9F  01DF   237 	PUSHAB	(R0)			; MESSAGE DESCRIPTOR
   00000000'9F            02     FB  01E1   238 	CALLS	#2,@#EXE$SNDSMB		; SEND THE MESSAGE
                                     01E8   239 	IF_ERR	FATAL,<JOB CONTROLLER interaction>
            53         14 AC     9E  0209   240 	MOVAB	LGI$T_WRKBUF(AP),R3	; ADDRESS OF WORK BUFFER
                                     020D   241 	$QIOW_S	#0,LGI$W_MBCHAN(AP),-	; EVENT FLAG AND CHANNEL
                                     020D   242 		#IO$_READVBLK,-		; READ THE MAILBOX
                                     020D   243 		LGI$Q_IOSB(AP),-	; IO STATUS BLOCK
                                     020D   244 		P1=(R3),-		; BUFFER
                                     020D   245 		P2=#MBREADSIZ	; MAX NUMBER OF BYTES TO READ
                                     0230   246 	IF_ERR	FATAL,<JOB CONTROLLER interaction>
            52         0A AC     3C  0251   247 	MOVZWL	LGI$Q_IOSB+2(AP),R2	; FORM DESCRIPTOR FOR MESSAGE
                          6342   94  0255   248 	CLRB	(R3)[R2]		; MARK END OF BUFFER
LOGDET          - LOGIN A BATCH JOB                              22-AUG-1978 00:33:33   VAX-11 MACRO X0.3-11               Page   6
01              LOGIN DETACHED JOB                                                                                               (3)

                                 05  0258   249 	RSB				;
                                     0259   250
                                     0259   251 	.END
LOGDET          - LOGIN A BATCH JOB                              22-AUG-1978 00:33:33   VAX-11 MACRO X0.3-11               Page   7
SYMBOL TABLE                                                                                                                     (3)

$$.TMP1        = 00000001            FAB$L_XAB        00000024            FAB$V_CBT      = 00000015
$$.TMP2        = 00000066            FAB$M_BIO      = 00000020            FAB$V_CIF      = 00000019
$$T1           = 00000001            FAB$M_BLK      = 00000008            FAB$V_CR       = 00000001
BIT...         = 00000006            FAB$M_BRO      = 00000040            FAB$V_CTG      = 00000014
DJI$B_FLAGS      00000002            FAB$M_CBT      = 00200000            FAB$V_DEL      = 00000002
DJI$C_SIZE       00000080            FAB$M_CIF      = 02000000            FAB$V_DFW      = 00000005
DJI$K_SIZE       00000080            FAB$M_CR       = 00000002            FAB$V_DLT      = 0000000F
DJI$L_UIC        00000004            FAB$M_CTG      = 00100000            FAB$V_DMO      = 0000000C
DJI$T_ACNTNAM    00000014            FAB$M_DEL      = 00000004            FAB$V_ESC      = 0000001B
DJI$T_JOBNAME    00000038            FAB$M_DFW      = 00000020            FAB$V_EXE      = 00000007
DJI$T_PARMS      00000040            FAB$M_DLT      = 00008000            FAB$V_FTN      = 00000000
DJI$T_USERNAM    00000008            FAB$M_DMO      = 00001000            FAB$V_GET      = 00000001
DJI$T_VOLNAM     0000001C            FAB$M_ESC      = 08000000            FAB$V_INP      = 00000013
DJI$W_DIRID      00000032            FAB$M_EXE      = 00000080            FAB$V_JNL      = 00000016
DJI$W_FILEID     0000002C            FAB$M_FTN      = 00000001            FAB$V_KFO      = 0000001E
DJI$W_MSGTYP     00000000            FAB$M_GET      = 00000002            FAB$V_MSE      = 00000004
ENTER            00000000 R     03   FAB$M_INP      = 00080000            FAB$V_MXV      = 00000001
ENTMSG           00000000 R     04   FAB$M_JNL      = 00400000            FAB$V_NAM      = 00000018
ENTSIZ         = 00000046            FAB$M_KFO      = 40000000            FAB$V_NEF      = 0000000A
EXE$SNDSMB       ********   X   04   FAB$M_MSE      = 00000010            FAB$V_NFS      = 00000010
FAB$B_BID        00000000            FAB$M_MXV      = 00000002            FAB$V_NIL      = 00000005
FAB$B_BKS        0000003E            FAB$M_NAM      = 01000000            FAB$V_OFP      = 0000001D
FAB$B_BLN        00000001            FAB$M_NEF      = 00000400            FAB$V_ORG      = 00000004
FAB$B_DNS        00000035            FAB$M_NFS      = 00010000            FAB$V_POS      = 00000008
FAB$B_FAC        00000016            FAB$M_NIL      = 00000020            FAB$V_PPF      = 00000012
FAB$B_FNS        00000034            FAB$M_OFP      = 20000000            FAB$V_PPF_IND  = 0000000E
FAB$B_FSZ        0000003F            FAB$M_POS      = 00000100            FAB$V_PPF_RAT  = 00000006
FAB$B_ORG        0000001D            FAB$M_PPF      = 00040000            FAB$V_PRN      = 00000002
FAB$B_RAT        0000001E            FAB$M_PPF_IND  = 00004000            FAB$V_PUT      = 00000000
FAB$B_RFM        0000001F            FAB$M_PPF_RAT  = 00003FC0            FAB$V_RCK      = 00000017
FAB$B_RTV        0000001C            FAB$M_PRN      = 00000004            FAB$V_RWC      = 0000000B
FAB$B_SHR        00000017            FAB$M_PUT      = 00000001            FAB$V_RWO      = 00000007
FAB$C_BID      = 00000003            FAB$M_RCK      = 00800000            FAB$V_SCF      = 0000000E
FAB$C_BLN        00000050            FAB$M_RWC      = 00000800            FAB$V_SHRDEL   = 00000002
FAB$C_FIX      = 00000001            FAB$M_RWO      = 00000080            FAB$V_SHRGET   = 00000001
FAB$C_HSH      = 00000030            FAB$M_SCF      = 00004000            FAB$V_SHRPUT   = 00000000
FAB$C_IDX      = 00000020            FAB$M_SHRDEL   = 00000004            FAB$V_SHRUPD   = 00000003
FAB$C_MAXRFM   = 00000003            FAB$M_SHRGET   = 00000002            FAB$V_SPL      = 0000000D
FAB$C_REL      = 00000010            FAB$M_SHRPUT   = 00000001            FAB$V_SQO      = 00000006
FAB$C_RFM_DFLT = 00000002            FAB$M_SHRUPD   = 00000008            FAB$V_SUP      = 00000002
FAB$C_SEQ      = 00000000            FAB$M_SPL      = 00002000            FAB$V_TEF      = 0000001C
FAB$C_UDF      = 00000000            FAB$M_SQO      = 00000040            FAB$V_TMD      = 00000004
FAB$C_VAR      = 00000002            FAB$M_SUP      = 00000004            FAB$V_TMP      = 00000003
FAB$C_VFC      = 00000003            FAB$M_TEF      = 10000000            FAB$V_TRN      = 00000004
FAB$K_BLN        00000050            FAB$M_TMD      = 00000010            FAB$V_UFM      = 0000001A
FAB$L_ALQ        00000010            FAB$M_TMP      = 00000008            FAB$V_UFO      = 00000011
FAB$L_CTX        00000018            FAB$M_TRN      = 00000010            FAB$V_UPD      = 00000003
FAB$L_DEV        00000040            FAB$M_UFM      = 04000000            FAB$V_UPI      = 00000006
FAB$L_DNA        00000030            FAB$M_UFO      = 00020000            FAB$V_WCK      = 00000009
FAB$L_FNA        0000002C            FAB$M_UPD      = 00000008            FAB$W_BLS        0000003C
FAB$L_FOP        00000004            FAB$M_UPI      = 00000040            FAB$W_DEQ        00000014
FAB$L_JNL        00000020            FAB$M_WCK      = 00000200            FAB$W_IFI        00000002
FAB$L_MRN        00000038            FAB$S_ORG      = 00000004            FAB$W_MRS        00000036
FAB$L_NAM        00000028            FAB$S_PPF_RAT  = 00000008            GBL...         = 00000000
FAB$L_SDC        00000044            FAB$V_BIO      = 00000005            IDF_K_LENGTH     0000005C
FAB$L_STS        00000008            FAB$V_BLK      = 00000003            IDF_L_INPRABCTX  0000000C
FAB$L_STV        0000000C            FAB$V_BRO      = 00000006            IDF_L_ONCTLY     00000058
LOGDET          - LOGIN A BATCH JOB                              22-AUG-1978 00:33:33   VAX-11 MACRO X0.3-11               Page   8
SYMBOL TABLE                                                                                                                     (3)

IDF_L_ONERROR    00000008            MSG$_DISCON    = 00000033            NAM$M_HIGHVER  = 00008000
IDF_L_OUTRABCTX  00000010            MSG$_EXIT      = 00000034            NAM$M_LOWVER   = 00004000
IDF_Q_LABEL      0000001C            MSG$_INIOPR    = 00000010            NAM$M_NODE     = 00020000
IDF_Q_LOCAL      00000014            MSG$_INTMSG    = 00000035            NAM$M_PPF      = 00010000
IDF_T_INPDVI     00000034            MSG$_OPREPLY   = 00000009            NAM$M_QUOTED   = 00040000
IDF_T_OUTDVI     00000024            MSG$_OPRQST    = 00000008            NAM$M_WILDCARD = 00000100
IDF_V_INPOPN   = 00000000            MSG$_PATHLOST  = 00000036            NAM$M_WILD_DIR = 00100000
IDF_W_FLAG       00000056            MSG$_PROTOCOL  = 00000037            NAM$M_WILD_GRP = 01000000
IDF_W_INPDID     0000004A            MSG$_REJECT    = 00000038            NAM$M_WILD_MBR = 02000000
IDF_W_INPFID     00000044            MSG$_RESOPR    = 00000013            NAM$M_WILD_NAME= 00000020
IDF_W_INPIFI     00000000            MSG$_SCANBAD   = 00000028            NAM$M_WILD_SFD1= 02000000
IDF_W_INPRFA     00000050            MSG$_SCANRSP   = 00000029            NAM$M_WILD_SFD2= 04000000
IDF_W_ONLEVEL    00000006            MSG$_SMBDON    = 00000009            NAM$M_WILD_SFD3= 08000000
IDF_W_OUTIFI     00000002            MSG$_SMBINI    = 00000008            NAM$M_WILD_SFD4= 10000000
IDF_W_OUTISI     00000004            MSG$_SMBRSP    = 00000020            NAM$M_WILD_SFD5= 20000000
IO$_READVBLK     ********   X   04   MSG$_SNDACC    = 0000000A            NAM$M_WILD_SFD6= 40000000
LGI$FATAL        ********   X   04   MSG$_SNDSMB    = 00000004            NAM$M_WILD_SFD7= 80000000
LGI$G_OUTFAB     ********   X   04   MSG$_SUSOPR    = 00000012            NAM$M_WILD_TYPE= 00000010
LGI$INIDET       00000012 RG    04   MSG$_THIRDPARTY= 00000039            NAM$M_WILD_UFD = 01000000
LGI$K_BUFSIZ   = 00000100            MSG$_TIMEOUT   = 0000003A            NAM$M_WILD_VER = 00000008
LGI$K_WORK       00000114            MSG$_TRMHANGUP = 00000006            NAM$S_DIR_LVLS = 00000003
LGI$LOGOUTMSG    ********   X   04   MSG$_TRMUNSOLIC= 00000001            NAM$T_DVI        00000014
LGI$L_PREVHAND   00000004            MSG$_XM_ATTN   = 0000000D            NAM$V_DIR_LVLS = 00000015
LGI$L_SAVSP      00000010            MSG$_XM_DATAVL = 0000000B            NAM$V_EXP_DEV  = 00000007
LGI$NXTINP       00000020 RG    04   MSG$_XM_SHUTDN = 0000000C            NAM$V_EXP_DIR  = 00000006
LGI$Q_IOSB       00000008            NAM$B_BID        00000000            NAM$V_EXP_NAME = 00000002
LGI$Q_UAFREC     ********   X   04   NAM$B_BLN        00000001            NAM$V_EXP_TYPE = 00000001
LGI$SEARCHUSER   ********   X   04   NAM$B_CURLVL     00000038            NAM$V_EXP_VER  = 00000000
LGI$SETUSRDEF    ********   X   04   NAM$B_ESL        0000000B            NAM$V_GRP_MBR  = 00000013
LGI$TERMPROC     ********   X   04   NAM$B_ESS        0000000A            NAM$V_HIGHVER  = 0000000F
LGI$T_WRKBUF     00000014            NAM$B_RSL        00000003            NAM$V_LOWVER   = 0000000E
LGI$W_FLAGS      00000000            NAM$B_RSS        00000002            NAM$V_NODE     = 00000011
LGI$W_MBCHAN     00000002            NAM$C_BID      = 00000002            NAM$V_PPF      = 00000010
LGI_M_CONTU    = 00000001            NAM$C_BLN        00000038            NAM$V_QUOTED   = 00000012
LGI_M_DELSEC   = 00000010            NAM$C_BLN_DIRWC  00000050            NAM$V_WILDCARD = 00000008
LGI_M_FULMSG   = 00000020            NAM$C_DVI      = 00000010            NAM$V_WILD_DIR = 00000014
LGI_M_NOACNT   = 00000002            NAM$C_MAXRSS   = 00000080            NAM$V_WILD_GRP = 00000018
LGI_M_SETDEF   = 00000004            NAM$C_MAXRSSLCL= 00000060            NAM$V_WILD_MBR = 00000019
LGI_M_SUBPRC   = 00000008            NAM$K_BLN        00000038            NAM$V_WILD_NAME= 00000005
LGI_V_CONTU    = 00000000            NAM$K_BLN_DIRWC  00000050            NAM$V_WILD_SFD1= 00000019
LGI_V_DELSEC   = 00000004            NAM$L_DIRWCC1    00000040            NAM$V_WILD_SFD2= 0000001A
LGI_V_FULMSG   = 00000005            NAM$L_DIRWCC2    00000044            NAM$V_WILD_SFD3= 0000001B
LGI_V_NOACNT   = 00000001            NAM$L_DIRWCC3    00000048            NAM$V_WILD_SFD4= 0000001C
LGI_V_SETDEF   = 00000002            NAM$L_DIRWCC4    0000004C            NAM$V_WILD_SFD5= 0000001D
LGI_V_SUBPRC   = 00000003            NAM$L_DWC        00000038            NAM$V_WILD_SFD6= 0000001E
LISDEV           00000012 R     03   NAM$L_ESA        0000000C            NAM$V_WILD_SFD7= 0000001F
MBREADSIZ      = 000000A0            NAM$L_FNB        00000034            NAM$V_WILD_TYPE= 00000004
MSG$_ABOOPR    = 00000011            NAM$L_RLF        00000010            NAM$V_WILD_UFD = 00000018
MSG$_ABORT     = 00000030            NAM$L_RSA        00000004            NAM$V_WILD_VER = 00000003
MSG$_ACCRSP    = 00000021            NAM$L_WCC        00000030            NAM$W_DID        0000002A
MSG$_CONFIRM   = 00000031            NAM$M_DIR_LVLS = 00E00000            NAM$W_DID_NUM    0000002A
MSG$_CONNECT   = 00000032            NAM$M_EXP_DEV  = 00000080            NAM$W_DID_RVN    0000002E
MSG$_CRUNSOLIC = 00000002            NAM$M_EXP_DIR  = 00000040            NAM$W_DID_SEQ    0000002C
MSG$_DELPROC   = 00000003            NAM$M_EXP_NAME = 00000004            NAM$W_FID        00000024
MSG$_DELSMB    = 00000014            NAM$M_EXP_TYPE = 00000002            NAM$W_FID_NUM    00000024
MSG$_DEVOFFLIN = 00000005            NAM$M_EXP_VER  = 00000001            NAM$W_FID_RVN    00000028
MSG$_DEVONLIN  = 00000007            NAM$M_GRP_MBR  = 00080000            NAM$W_FID_SEQ    00000026
LOGDET          - LOGIN A BATCH JOB                              22-AUG-1978 00:33:33   VAX-11 MACRO X0.3-11               Page   9
SYMBOL TABLE                                                                                                                     (3)

NAM$W_PRV_DID    0000003A            PCB$W_BYTLM      00000068            PRC_M_HANGUP   = 00001000
PCB$B_ASTACT     0000000C            PCB$W_DIOCNT     00000044            PRC_M_IND      = 00000020
PCB$B_ASTEN      0000000D            PCB$W_DIOLM      00000046            PRC_M_MODE     = 00000040
PCB$B_PRI        0000000B            PCB$W_FILCNT     00000048            PRC_M_NOCTLY   = 00004000
PCB$B_PRIB       00000033            PCB$W_GPGCNT     00000038            PRC_M_PAUSE    = 00002000
PCB$B_TYPE       0000000A            PCB$W_GRP        00000022            PRC_M_USRDET   = 00000100
PCB$B_WEFC       00000032            PCB$W_MEM        00000020            PRC_M_VERIFY   = 00000080
PCB$C_LENGTH     0000007C            PCB$W_MTXCNT     0000000E            PRC_M_YLEVEL   = 00000800
PCB$K_LENGTH     0000007C            PCB$W_PPGCNT     0000003A            PRC_Q_ALLOCREG   00000020
PCB$L_ASTQBL     00000014            PCB$W_PRCCNT     0000006A            PRC_Q_GLOBAL     00000028
PCB$L_ASTQFL     00000010            PCB$W_SIZE       00000008            PRC_Q_LABEL      00000030
PCB$L_EFC2P      00000058            PCB$W_STATE      00000030            PRC_Q_LOCAL      00000038
PCB$L_EFC3P      0000005C            PCB$W_TMBU       00000036            PRC_V_CNTRLY   = 00000001
PCB$L_EFCS       00000050            PCB$W_TQCNT      0000004A            PRC_V_DBGQUAL  = 00000009
PCB$L_EFCU       00000054            PRC_B_DEFRADIX   00000092            PRC_V_DBGTRUE  = 0000000A
PCB$L_EFWM       0000004C            PRC_B_EXMDEPMOD  00000091            PRC_V_DISABL   = 00000002
PCB$L_OWNER      0000001C            PRC_B_EXMDEPWID  00000090            PRC_V_EXIT     = 00000003
PCB$L_PHD        00000064            PRC_K_DEC      = 00000001            PRC_V_GOEOF    = 00000000
PCB$L_PHYPCB     00000018            PRC_K_HEX      = 00000000            PRC_V_GOTO     = 00000004
PCB$L_PID        00000060            PRC_K_LENGTH     000000A0            PRC_V_HANGUP   = 0000000C
PCB$L_PQB        0000004C            PRC_K_OCT      = 00000002            PRC_V_IND      = 00000005
PCB$L_SQBL       00000004            PRC_L_CLIWRK0    0000005C            PRC_V_MODE     = 00000006
PCB$L_SQFL       00000000            PRC_L_CLIWRK1    00000060            PRC_V_NOCTLY   = 0000000E
PCB$L_STS        00000028            PRC_L_CLIWRK2    00000064            PRC_V_PAUSE    = 0000000D
PCB$L_UIC        00000020            PRC_L_CLIWRK3    00000068            PRC_V_USRDET   = 00000008
PCB$L_WSSWP      00000024            PRC_L_CLIWRK4    0000006C            PRC_V_VERIFY   = 00000007
PCB$L_WTIME      0000002C            PRC_L_ERRRAB     00000010            PRC_V_YLEVEL   = 0000000B
PCB$T_LNAME      0000006C            PRC_L_EXMDEPADR  0000008C            PRC_W_CLIFLAG    00000052
PCB$V_ASTPEN   = 00000011            PRC_L_EXTARG     00000078            PRC_W_ERRIFI     00000052
PCB$V_BATCH    = 0000000E            PRC_L_EXTBLK     00000070            PRC_W_FLAGS      00000054
PCB$V_DELPEN   = 00000001            PRC_L_EXTCOD     00000080            PRC_W_INPCHAN    00000050
PCB$V_FORCPEN  = 00000002            PRC_L_EXTHND     00000074            PRC_W_ONLEVEL    00000056
PCB$V_HIBER    = 00000013            PRC_L_EXTPRM     0000007C            PRD_G_ALTINPRAB  000000CC
PCB$V_INQUAN   = 00000003            PRC_L_INDEPTH    00000048            PRD_G_ALTOUTRAB  00000110
PCB$V_LOGIN    = 00000014            PRC_L_INDFAB     0000001C            PRD_G_FAB        00000000
PCB$V_NETWRK   = 00000015            PRC_L_INDINPRAB  00000014            PRD_G_INPRAB     00000088
PCB$V_NOACNT   = 0000000F            PRC_L_INDOUTRAB  00000018            PRD_G_NAM        00000050
PCB$V_NODELET  = 00000017            PRC_L_INPRAB     00000008            PRD_G_OUTRAB     00000154
PCB$V_PHDRES   = 00000012            PRC_L_LSTSTATUS  00000094            PRD_K_LENGTH     00000198
PCB$V_PSWAPM   = 00000004            PRC_L_ONCTLY     0000009C            PRD_K_XLENGTH    000001B8
PCB$V_PWRAST   = 00000016            PRC_L_ONERROR    00000058            PRD_T_OUTFNM     000001A4
PCB$V_RES      = 00000000            PRC_L_OUTRAB     0000000C            PRD_W_OUTDID     0000019E
PCB$V_RESPEN   = 00000005            PRC_L_PROCUIC    00000098            PRD_W_OUTFID     00000198
PCB$V_SSFEXC   = 00000006            PRC_L_SAVAP      00000000            RAB$B_BID        00000000
PCB$V_SSFEXCE  = 00000007            PRC_L_SAVFP      00000004            RAB$B_BLN        00000001
PCB$V_SSFEXCS  = 00000008            PRC_L_SEVERITY   00000040            RAB$B_KRF        00000035
PCB$V_SSFEXCU  = 00000009            PRC_L_STACKLM    00000088            RAB$B_KSZ        00000034
PCB$V_SSRWAIT  = 0000000A            PRC_L_STACKPT    00000084            RAB$B_MBC        00000037
PCB$V_SUSPEN   = 0000000B            PRC_L_STATUS     00000044            RAB$B_MBF        00000036
PCB$V_SWPVBN   = 00000010            PRC_L_SYMBOL     0000004C            RAB$B_PSZ        00000034
PCB$V_WAKEPEN  = 0000000C            PRC_M_CNTRLY   = 00000002            RAB$B_RAC        0000001E
PCB$V_WALL     = 0000000D            PRC_M_DBGQUAL  = 00000200            RAB$B_ROP1       00000005
PCB$W_APTCNT     00000034            PRC_M_DBGTRUE  = 00000400            RAB$B_ROP2       00000006
PCB$W_ASTCNT     0000003C            PRC_M_DISABL   = 00000004            RAB$B_ROP3       00000007
PCB$W_BIOCNT     0000003E            PRC_M_EXIT     = 00000008            RAB$B_TMO        0000001F
PCB$W_BIOLM      00000040            PRC_M_GOEOF    = 00000001            RAB$C_BID      = 00000001
PCB$W_BYTCNT     00000042            PRC_M_GOTO     = 00000010            RAB$C_BLN        00000044
LOGDET          - LOGIN A BATCH JOB                              22-AUG-1978 00:33:33   VAX-11 MACRO X0.3-11               Page  10
SYMBOL TABLE                                                                                                                     (3)

RAB$C_KEY      = 00000001            RAB$V_LOA      = 0000000D            SMO$K_PAGHDR   = 00000006
RAB$C_RFA      = 00000002            RAB$V_LOC      = 00000010            SMO$K_PARAMS   = 00000026
RAB$C_SEQ      = 00000000            RAB$V_MAS      = 00000005            SMO$K_REQUEUE  = 00000070
RAB$K_BLN        00000044            RAB$V_NLK      = 00000014            SMO$K_RLSTIM   = 00000020
RAB$L_BKT        00000038            RAB$V_NXR      = 00000017            SMO$K_SPCCNT   = 00000062
RAB$L_CTX        00000018            RAB$V_PMT      = 0000001E            SMO$K_TOPOFILE = 00000061
RAB$L_DCT        00000038            RAB$V_PPF_IND  = 0000000E            SMO$K_TRMDEV   = 0000004A
RAB$L_FAB        0000003C            RAB$V_PPF_RAT  = 00000006            SMR$K_ABORT    = 0000000E
RAB$L_KBF        00000030            RAB$V_PTA      = 0000001D            SMR$K_ADDFIL   = 0000000A
RAB$L_PBF        00000030            RAB$V_RAH      = 00000009            SMR$K_ALTER    = 0000000D
RAB$L_RBF        00000028            RAB$V_RLK      = 00000013            SMR$K_CLSJOB   = 0000000B
RAB$L_RFA0       00000010            RAB$V_RNE      = 00000018            SMR$K_CREJOB   = 00000009
RAB$L_RHB        0000002C            RAB$V_RNF      = 0000001B            SMR$K_DELETE   = 00000001
RAB$L_ROP        00000004            RAB$V_TMO      = 00000019            SMR$K_DETINIT  = 00000010
RAB$L_STS        00000008            RAB$V_TPT      = 00000001            SMR$K_ENTER    = 00000008
RAB$L_STV        0000000C            RAB$V_UIF      = 00000004            SMR$K_INITIAL  = 00000000
RAB$L_UBF        00000024            RAB$V_ULK      = 00000012            SMR$K_JUSTIFY  = 00000006
RAB$M_ASY      = 00000001            RAB$V_WAT      = 00000011            SMR$K_MERGE    = 00000004
RAB$M_BIO      = 00000800            RAB$V_WBH      = 0000000A            SMR$K_PAUSE    = 00000003
RAB$M_CCO      = 80000000            RAB$W_ISI        00000002            SMR$K_REDIRECT = 00000005
RAB$M_CVT      = 04000000            RAB$W_RFA        00000010            SMR$K_RELEASE  = 0000000F
RAB$M_EOF      = 00000100            RAB$W_RFA4       00000014            SMR$K_RMVJOB   = 0000000C
RAB$M_FDL      = 00000040            RAB$W_RSZ        00000022            SMR$K_START    = 00000002
RAB$M_HSH      = 00000080            RAB$W_USZ        00000020            SMR$K_STOP     = 00000007
RAB$M_KGE      = 00200000            SCH$GL_CURPCB    ********   X   04   SMR$K_SYNCJOB  = 00000011
RAB$M_KGT      = 00400000            SMBMSG           00000008 R     04   SNDSMB           000001DB R     04
RAB$M_LIM      = 00004000            SMO$K_BRSTPAG  = 00000002            SQR$B_COPYCNT    00000039
RAB$M_LOA      = 00002000            SMO$K_COPIES   = 0000000A            SQR$B_FLAGS      00000038
RAB$M_LOC      = 00010000            SMO$K_CURFORM  = 00000040            SQR$L_RECLINK    00000000
RAB$M_MAS      = 00000020            SMO$K_DEFBRST  = 00000046            SQR$M_BRSTPAG  = 00000004
RAB$M_NLK      = 00100000            SMO$K_DEFFLAG  = 00000048            SQR$M_DELETE   = 00000001
RAB$M_NXR      = 00800000            SMO$K_DELETE   = 00000001            SQR$M_DOUBLE   = 00000008
RAB$M_PMT      = 40000000            SMO$K_DETJOB   = 00000043            SQR$M_FLAGPAG  = 00000002
RAB$M_PPF_IND  = 00004000            SMO$K_DISWAP   = 0000004E            SQR$M_NOFEED   = 00000010
RAB$M_PPF_RAT  = 00003FC0            SMO$K_DOUBLE   = 00000007            SQR$M_PAGHDR   = 00000020
RAB$M_PTA      = 20000000            SMO$K_FLAGPAG  = 00000004            SQR$T_FILNAM     00000024
RAB$M_RAH      = 00000200            SMO$K_FORMTYPE = 00000024            SQR$T_VOLNAM     00000008
RAB$M_RLK      = 00080000            SMO$K_GENDEV   = 00000044            SQR$V_BRSTPAG  = 00000002
RAB$M_RNE      = 01000000            SMO$K_GENPRT   = 00000041            SQR$V_DELETE   = 00000000
RAB$M_RNF      = 08000000            SMO$K_HOLD     = 00000021            SQR$V_DOUBLE   = 00000003
RAB$M_TMO      = 02000000            SMO$K_INIPRI   = 0000004D            SQR$V_FLAGPAG  = 00000001
RAB$M_TPT      = 00000002            SMO$K_JOBCOPY  = 00000023            SQR$V_NOFEED   = 00000004
RAB$M_UIF      = 00000010            SMO$K_JOBLIM   = 0000004C            SQR$V_PAGHDR   = 00000005
RAB$M_ULK      = 00040000            SMO$K_JOBNAME  = 00000027            SQR$W_DIRNUM     0000001E
RAB$M_WAT      = 00020000            SMO$K_JOBPRI   = 00000022            SQR$W_DIRSEQ     00000020
RAB$M_WBH      = 00000400            SMO$K_LOWER    = 00000025            SQR$W_DIRVOL     00000022
RAB$S_PPF_RAT  = 00000008            SMO$K_NEXTJOB  = 00000060            SQR$W_FILNUM     00000018
RAB$V_ASY      = 00000000            SMO$K_NOBRSTPAG= 00000003            SQR$W_FILSEQ     0000001A
RAB$V_BIO      = 0000000B            SMO$K_NODEFBRST= 00000047            SQR$W_JOBSEQ     00000004
RAB$V_CCO      = 0000001F            SMO$K_NODEFFLAG= 00000049            SQR$W_PAGCNT     0000003A
RAB$V_CVT      = 0000001A            SMO$K_NOFEED   = 00000008            SQR$W_RECID      00000006
RAB$V_EOF      = 00000008            SMO$K_NOFLAGPAG= 00000005            SQR$W_RELVOL     0000001C
RAB$V_FDL      = 00000006            SMO$K_NOGENDEV = 00000045            SYS$CLOSE        ********  GX   04
RAB$V_HSH      = 00000007            SMO$K_NOGENPRT = 00000042            SYS$CMKRNL       ********   X   04
RAB$V_KGE      = 00000015            SMO$K_NOLOWER  = 00000028            SYS$CONNECT      ********  GX   04
RAB$V_KGT      = 00000016            SMO$K_NOTRMDEV = 0000004B            SYS$CREATE       ********  GX   04
RAB$V_LIM      = 0000000E            SMO$K_PAGCNT   = 00000009            SYS$CREMBX       ********   X   04
LOGDET          - LOGIN A BATCH JOB                              22-AUG-1978 00:33:33   VAX-11 MACRO X0.3-11               Page  11
SYMBOL TABLE                                                                                                                     (3)

SYS$DASSGN       ********   X   04
SYS$OPEN         ********  GX   04
SYS$QIOW         ********   X   04
SYS$TRNLOG       ********   X   04
_$$_           = 000000EF


PROGRAM SECTION SYNOPSIS

.  ABS  .        00000000      00     NOPIC   USR   CON   ABS   LCL NOSHR NOEXE NORD  NOWRT BYTE
. BLANK .        00000000      01     NOPIC   USR   CON   REL   LCL NOSHR   EXE   RD    WRT BYTE
$ABS$            000001B8      02     NOPIC   USR   CON   ABS   LCL NOSHR   EXE   RD    WRT BYTE
RWDATA           00000046      03     NOPIC   USR   CON   REL   LCL NOSHR   EXE   RD    WRT LONG
PURE             00000259      04     NOPIC   USR   CON   REL   LCL NOSHR   EXE   RD  NOWRT BYTE


THERE WERE NO ERRORS OR WARNINGS.
6232. BYTES LEFT IN FREE MEMORY POOL.
1412. BYTES OF RECLAIMED MEMORY.
OBJ$:LOGDET,LIS$:LOGDET/-SP=EXECML$/ML,LIB$:LOGIN/ML,SRC$:LOGDET
76 MLB DIR RDS - 1090 GETS TO DEFINE 38 MACROS. 81 INTER. FILE WRITES.
