DMPDEF	MACRO M1110  22-AUG-78 02:05
TABLE OF CONTENTS

     7-   24	MACRO INVOCATION AND ASSEMBLY PARAMETERS
     9-    1	**** DUMDUM VERSION M0005.1 ****
    10-   31	INITIALIZE THE DUMP HEADER
    10-   75	DUMP THE FILE HEADER IF REQUESTED
DMPDEF	MACRO M1110  22-AUG-78 02:05  PAGE 7


      1						.TITLE	DMPDEF
      2						.IDENT	/V02.1/
      3					;+
      4					; DUMP DEFINITION PREFIX FILE
      5					;-
      6					; COPYRIGHT 1973, DIGITAL EQUIPMENT CORP., MAYNARD, MASS. 01754
      7					;
      8					; DEC ASSUMES NO RESPONSIBILITY FOR THE USE OR RELIABILITY OF ITS
      9					; SOFTWARE ON EQUIPMENT WHICH IS NOT SUPPLIED BY DEC.
     10					;
     11					; PETER H. LIPMAN 30-MARCH-73
     12					; ALTERED FRIDAY 11-JAN-74 13:40
     13					; ALTERED FOR RSX11M 12-MAR-74 R.HEINEN
     14					; ALTERED 10-MAR-76 H.B. BOSWELL ADD RAD50 MODE DUMP  HBB1
     15					; ALTERED 4/1/76 R. HEINEN ADD HEX DUMP SWITCH /HX/LW/WD
     16					; ALTERED 4/10/76 R. HEINEN ADD RECORD DMP MODE /RC
     17					;	25-JUL-77 G.RITTENBURG
     18					;
     19					;	GR001 TAPE DENSITY SWITCH ADDED
     20					;
     21					;	I$$AS = 1  ;CONDITIONAL FOR 11D AND IAS
     22					;
     23					;
     24						.SBTTL	MACRO INVOCATION AND ASSEMBLY PARAMETERS
     25					;
     27						.MCALL	FDOFF$,FCSBT$,QIOSY$,CSI$,GCMLD$
     28						.MCALL	FDRC$R,FDBK$R,GET$S
     29						.MCALL	FHDOF$
     30						.MCALL	SVTK$S
     36					;
     37						.MCALL	FINIT$,OFNB$,READ$,WAIT$,PUT$,CLOSE$
     38						.MCALL	FSRSZ$,FDBDF$,NMBLK$,FDAT$A,FDRC$A,FDBK$A,FDOP$A
     39						.MCALL	CSI$1,CSI$2,CSI$SW,CSI$SV,CSI$ND,ALUN$S
     40						.MCALL	GCMLB$,CALL,RETURN,EXIT$S
     41
     42		000014 				FF=14			;FORM FEED CHARACTER
     43		000015 				CR=15			;CARRIAGE RETURN CHARCTER
     44		000012 				LF=12			;LINE FEED CHARACTER
     45		000011 				TAB=11			;TAB CHARACTER
     46		000003 				INLUN=3			;LUN FOR INPUT FILE
     47		000004 				OUTLUN=4		;LUN FOR LISTING FILE
     48		000113 				MAXHED=75.		;MAXIMUM HEADER SIZE IN BYTES
     49					;
     50		000014 				S.STBK=12.		;SIZE OF STATISTICS BLOCK IN BYTES
     51		000040 				CS.SWF=40		;CSI$2 STATUS BIT FOR "SWITCH FOUND"
     52
     53					;
     54					; BITS IN DMPCTL
     55		000001 				BLBIT=1			;SET IF BLOCK SWITCH WAS SPECIFIED
     56		000002 				HDBIT=2			;SET IF HEADER SWITCH WAS SPECIFIED
     57		000004 				IDBIT=4			;SET TO PRINT THE IDENT MESSAGE
     58		000010 				MDBIT=10		;SET IF NUMBERING FOR MEMORY DUMP
     59		000020 				FIDBIT=20		;FILE ID SPECIFIED
     60		000040 				ASCBIT=40		;DUMP IN ASCII MODE
     61		000100 				BYTBIT=100		;DUMP BYTE ORIENTED (VERSUS WORD)
     62		000200 				BABIT=200		; BASE BLOCK NUMBER:N:N
     63		000400 				LBBIT=400		; START BLOCK NUMBER BIT
DMPDEF	MACRO M1110  22-AUG-78 02:05  PAGE 7-1
MACRO INVOCATION AND ASSEMBLY PARAMETERS

     64		001000 				R50BIT=1000		;***HBB1 DUMP IN RAD50 MODE
     65		002000 			HEXBIT=2000		;***RJH  DUMP IN HEX
     66		004000 				LNGBIT=4000		;***RJH HEX LONG WORD MODE
     67		010000 				WRDBIT=10000		;***RJH HEX WORD MODE
     68		020000 				DECBIT=20000		;***RJH DECIMAL BIT
     69		040000 				RECBIT=40000		;***RJH RECORD DMP MODE
     70		100000 				LBNBIT=100000		;SET IF IN LOGICAL BLOCK MODE
     71		000001 				SPLBIT=1		; SET IN "DMPCT2" IF SPOOL OUTPUT
     72		000002 				PEBIT=2		;SET IN DMPCT2 IF DENSITY SPECIFIED
     73					; DEFINITION TO AVOID GLOBAL ARITHMETIC PROBLEMS
     74		000001 				FO.RD=1
     75		000040 				FA.SHR=40
DUMDUM M0005.1, DMP DUMP ROUTIN	MACRO M1110  22-AUG-78 02:05  PAGE 9
MACRO INVOCATION AND ASSEMBLY PARAMETERS

      1						.TITLE	DUMDUM M0005.1, DMP DUMP ROUTINE
						.SBTTL	**** DUMDUM VERSION M0005.1 ****
						.IDENT	/M0005.1/
      2					; ALTERED:
      3					; ANDREW C. GOLDSTEIN  6-MAR-78  19:34
      4					;
      5					; ALTERED WEDNESDAY 30-JAN-74 21:10
      6					;
      7					; COPYRIGHT 1974, DIGITAL EQUIPMENT CORP., MAYNARD MASS.
      8
      9					; THIS SOFTWARE IS FURNISHED TO PURCHASER UNDER A LICENSE FOR USE
     10					; ON A SINGLE COMPUTER SYSTEM AND CAN BE COPIED (WITH INCLUSION
     11					; OF DEC'S COPYRIGHT NOTICE) ONLY FOR USE IN SUCH SYSTEM, EXCEPT
     12					; AS MAY OTHERWISE BE PROVIDED IN WRITING BY DEC.
     13
     14					; THE INFORMATION IN THIS DOCUMENT IS SUBJECT TO CHANGE WITHOUT
     15					; NOTICE AND SHOULD NOT BE CONSTRUED AS A COMMITMENT BY DIGITAL
     16					; EQUIPMENT CORPORATION.
     17
     18					; DEC ASSUMES NO RESPONSIBILITY FOR THE USE OR RELIABILITY
     19					; OF ITS SOFTWARE ON EQUIPMENT WHICH IS NOT SUPPLIED BY DEC.
     20					;
     21					; PETER H. LIPMAN 30-MARCH-73
     22					; FOR RSX11M R.HEINEN 20-JUL-74
     23					; ALTERED 4/1/76 R.HEINEN ADD HEX DMP MODE /HX/LW/WD
     24					; ALTERED 4/10/76 R.HEINEN ADD RECORD DMP MODE /RC
     25					;	15-JUL-77  G.RITTENBURG
     26					;
     27					;	GR001  EXIT WITH STATUS ADDED
     28					;                                                                               ;**NEW**
     29					;
DUMDUM M0005.1, DMP DUMP ROUTIN	MACRO M1110  22-AUG-78 02:05  PAGE 10
INITIALIZE THE DUMP HEADER

     31						.SBTTL	INITIALIZE THE DUMP HEADER
     32
     33	000000					PURE.I
     34
     35					;
     36					; INITIALIZE FOR DUMPING THE FILE
     37	000000	032767 	000400 	000000G	DUMP::	BIT	#LBBIT,DMPCTL	; IF /LB THEN SKIP
     38	000006	001142 				BNE	50$
     39	000010	012700 	000000G			MOV	#FDBIN,R0
     40	000014	066767 	000000G	000002G		ADD	FBLOCK,BLKNUM+2	; INSERT FIRST BLOCK NUMBER INTO DOUBLE WORD
     41	000022	005567 	000000G			ADC	BLKNUM
     42	000026	016760 	000000G	000064 		MOV	BLKNUM,F.BKVB(R0)
     43	000034	016760 	000002G	000066 		MOV	BLKNUM+2,F.BKVB+2(R0)
     44	000042	012705 	000000G			MOV	#MOPRM,R5	;R5=PARAM BLOCK POINTER
     45	000046	012725 	000134G			MOV	#FDBIN+F.DVNM,(R5)+ ;ADDRESS OF DEVICE NAME
     46	000052	016725 	000136G			MOV	FDBIN+F.UNIT,(R5)+ ;UNIT NUMBER
     47	000056	012701 	000000G			MOV	#FM01MG,R1	;PREPARE TO USE BLOCK MODE HEADER
     48	000062	032767 	100000 	000000G		BIT	#LBNBIT,DMPCTL
     49	000070	001022 				BNE	20$		;BRANCH IF LOGICAL BLOCK MODE
     50					;
     51					; SET UP FOR REST OF FILE DUMP HEADER
     52					;
     53	000072	012704 	000004G			MOV	#IFNPT+N.DIRD,R4	; POINT TO DIRECTORY STRING
     54	000076					CALL	.GDRNM
     55	000102	012703 	000110G			MOV	#FDBIN+F.FNAM,R3 ;R3=ADDRESS OF FILE NAME
     56	000106	012702 	000005 			MOV	#S.FNTY+1,R2	;WORD CNT OF FILE NAME, TYPE, VER
     57	000112	012325 			10$:	MOV	(R3)+,(R5)+	;PUT FILE NAME, TYPE, AND VERSION
     58	000114					SOB	R2,10$
     59	000120	012703 	000102G			MOV	#FDBIN+F.FNB,R3	;R3=ADDRESS OF FILE ID
     60	000124	012325 				MOV	(R3)+,(R5)+	;MOVE FILE ID TO PARAM BLOCK
     61	000126	012325 				MOV	(R3)+,(R5)+
     62	000130	012325 				MOV	(R3)+,(R5)+
     63	000132	012701 	000000G			MOV	#FM02MG,R1
     64	000136	012700 	000000G		20$:	MOV	#HEAD1,R0
     65	000142	012702 	000000G			MOV	#MOPRM,R2
     66	000146					CALL	$EDMSG		;GENERATE THE HEADER MESSAGE
     67	000152	022701 	000113 			CMP	#MAXHED,R1
     68	000156	002010 				BGE	25$
     69	000160					ERROUT	FA01		;HEADER MESSAGE OVERFLOW
	000160	104402 				TRAP	X
	000162	000000G				.WORD	FA01SZ
	000164	000000G				.WORD	FA01MG
     70	000166	012767 	000004 	000000G		MOV	#4,.EXSTS	;SEVERE ERROR
     71	000174	000167 	000000G			JMP	EXIT
     72	000200	062701 	000000C		25$:	ADD	#HEAD1-HEADER,R1
     73	000204	010167 	000000G			MOV	R1,HEADSZ	;SAVE HEADER SIZE
     74					;
     75						.SBTTL	DUMP THE FILE HEADER IF REQUESTED
     76					;
     77					; SEE IF USER ASKED TO HAVE THE FILE HEADER DUMPED TOO
     78	000210	032767 	000002 	000000G		BIT	#HDBIT,DMPCTL
     79	000216	001454 				BEQ	70$		;BRANCH IF NO
     80	000220					PUT$	#FDBOUT,#HEADER,HEADSZ
     81	000244	103010 				BCC	30$
     82	000246					ERROUT	ER10,0,0
	000246	104426 				TRAP	X
	000250	000000G				.WORD	ER10SZ
DUMDUM M0005.1, DMP DUMP ROUTIN	MACRO M1110  22-AUG-78 02:05  PAGE 10-1
DUMP THE FILE HEADER IF REQUESTED

	000252	000000G				.WORD	ER10MG
     83	000254	012767 	000002 	000000G		MOV	#2,.EXSTS	;FATAL ERROR
     84	000262	000167 	000000G			JMP	RSTART
     85	000266	012702 	000000G		30$:	MOV	#MOPRM,R2	;R2=PARAM BLOCK ADDRESS
     86	000272	012712 	000000G			MOV	#FM03SZ,@R2	;FORM "FILE HEADER" MESSAGE
     87	000276	012762 	000000G	000002 		MOV	#FM03MG,2(R2)
     88	000304	012701 	000000G			MOV	#FLHDMG,R1
     89	000310					CALL	EDPUT
     90					;
     91					; READ THE HEADER
     92	000314	012700 	000000G		50$:	MOV	#FDBIN,R0
     93	000320	012701 	000000G			MOV	#IO.RAT,R1
     94	000324	012702 	000003 			MOV	#3,R2
     95	000330	012703 	000000G			MOV	#RATTBK,R3
     96	000334					CALL	.XQIO
     97	000340	103005 				BCC	60$
     98	000342				55$:	ERROUT	ER11,0,0	;FAILED TO READ ATTRIBUTES
	000342	104426 				TRAP	X
	000344	000000G				.WORD	ER11SZ
	000346	000000G				.WORD	ER11MG
     99	000350	000167 	000000G		70$:	JMP	RNXTB
    100	000354	032767 	000400 	000000G	60$:	BIT	#LBBIT,DMPCTL	; IF /LB THEN SKIP
    101	000362	001102 				BNE	90$
    102	000364	016767 	000102G	000000G		MOV	FDBIN+F.FNB+N.FID+00,INBUF+AB.FNU+00
    103	000372	016767 	000104G	000002G		MOV	FDBIN+F.FNB+N.FID+02,INBUF+AB.FNU+02
    104	000400	016767 	000106G	000004G		MOV	FDBIN+F.FNB+N.FID+04,INBUF+AB.FNU+04
    105	000406	016700 	000026G			MOV	FDBOUT+F.NRBD+2,R0
    106	000412	012701 	000000G			MOV	#INBUF,R1
    107	000416	012702 	000000G			MOV	#STBLK,R2
    108	000422	012703 	000003 			MOV	#3,R3
    109	000426					CALL	$FILMG
    110	000432	112720 	000015 			MOVB	#CR,(R0)+
    111	000436	112720 	000012 			MOVB	#LF,(R0)+
    112	000442	112720 	000012 			MOVB	#LF,(R0)+
    113	000446	062701 	000003 			ADD	#3,R1
    114	000452					PUT$	#FDBOUT,,R1
    115	000466	103010 				BCC	61$
    116	000470					ERROUT	ER10,0,0
	000470	104426 				TRAP	X
	000472	000000G				.WORD	ER10SZ
	000474	000000G				.WORD	ER10MG
    117	000476	012767 	000002 	000000G		MOV	#2,.EXSTS	; FATAL ERROR
    118	000504	000167 	000000G			JMP	RSTART
    119	000510	012700 	000000G		61$:	MOV	#FDBIN,R0
    120	000514	012701 	000000G			MOV	#IO.RAT,R1	;READ REAL FILE HEADER
    121	000520	012702 	000003 			MOV	#3,R2
    122	000524	012703 	000000G			MOV	#RHDR,R3
    123	000530					CALL	.XQIO
    124	000534	103702 				BCS	55$
    125	000536	016746 	000000G			MOV	BYTNUM,-(SP)
    126	000542	005067 	000000G			CLR	BYTNUM
    127	000546	016746 	000000G			MOV	DMPCTL,-(SP)
    128	000552	005067 	000000G			CLR	DMPCTL
    129	000556	012767 	001000 	000002G		MOV	#512.,IOSTBK+2	; SET BYTE COUNT FOR 1 BLOCK
    130	000564	000167 	000000G			JMP	ROHEAD		; DUMP THE FILE HEADER
    131					;
    132	000570	012702 	000000G		90$:	MOV	#MOPRM,R2
DUMDUM M0005.1, DMP DUMP ROUTIN	MACRO M1110  22-AUG-78 02:05  PAGE 10-2
DUMP THE FILE HEADER IF REQUESTED

    133	000574	016701 	000002G			MOV	STBLK+2,R1	; GET LOW LBN
    134	000600	010112 				MOV	R1,(R2)		; INTO PARAMETER BLOCK
    135	000602	016700 	000000G			MOV	STBLK,R0	; AND HIGH LBN
    136	000606	010062 	000002 			MOV	R0,2(R2)
    137	000612	005062 	000004 			CLR	4(R2)
    138	000616	050001 				BIS	R0,R1		; CHECK IF CONTIGUOUS
    139	000620	001403 				BEQ	91$			; IF YES MENTION IT
    140	000622	062762 	000003 	000004 		ADD	#3,4(R2)
    141	000630	012762 	000000G	000006 	91$:	MOV	#CONTIG,6(R2)
    142	000636	012701 	000000G			MOV	#FLBLMG,R1
    143	000642	016700 	000026G			MOV	FDBOUT+F.NRBD+2,R0
    144	000646					CALL	$EDMSG
    145	000652					PUT$	#FDBOUT,,R1
    146	000666	000167 	000000G			JMP	RSTART
DUMDUM M0005.1, DMP DUMP ROUTIN	MACRO M1110  22-AUG-78 02:05  PAGE 11
DUMP THE FILE HEADER IF REQUESTED

    148		000001 				.END
DUMDUM M0005.1, DMP DUMP ROUTIN	MACRO M1110  22-AUG-78 02:05  PAGE 11-1
SYMBOL TABLE

AB.CDT  000105   	FA.POS= 010000   	FP.RDV= 000001   	GE.LC = 000010   	M.EFSQ= 000004
AB.CHU  000064   	FA.RD = 000001   	FP.WRV= 000002   	GE.MDE= 177774   	M.ERVN= 000001
AB.EXP  000122   	FA.RWD= 004000   	F.ACTL= 000076   	GE.OPR= 177776   	M.ESQN= 000000
AB.FNU  000000   	FA.SEQ= 040000   	F.ALOC= 000040   	GE.RBG= 177730   	M.LBSZ= 000007
AB.FP   000062   	FA.SHR= 000040   	F.BBFS= 000062   	GE.SIZ= 000040   	M.MAX = 000011
AB.FSQ  000002   	FA.TMP= 000020   	F.BDB = 000070   	G.CMLD= 000146   	M.RTRV= 000012
AB.GC   000061   	FA.WCK= 020000   	F.BGBC= 000057   	G.DPRM= 000160   	M.USE = 000010
AB.NAM  000006   	FA.WRT= 000002   	F.BKDN= 000026   	G.ERR = 000140   	NB.DEV= 000200
AB.PC   000060   	FA01MG= ****** GX	F.BKDS= 000020   	G.ISIZ= 000020   	NB.DIR= 000100
AB.RDT  000070   	FA01SZ= ****** GX	F.BKEF= 000050   	G.MODE= 000141   	NB.NAM= 000004
AB.REV  000066   	FBLOCK= ****** GX	F.BKP1= 000051   	G.PSDS= 000142   	NB.NXD= 020000
AB.UAT  000020   	FDBIN = ****** GX	F.BKST= 000024   	G.SIZE= 000224   	NB.SD1= 000400
ASCBIT= 000040   	FDBOUT= ****** GX	F.BKVB= 000064   	HDBIT = 000002   	NB.SD2= 001000
BABIT = 000200   	FD.BLK= 000010   	F.CHR = 000075   	HEADER= ****** GX	NB.SNM= 000040
BLBIT = 000001   	FD.CCL= 000002   	F.CNTG= 000034   	HEADSZ= ****** GX	NB.STP= 000020
BLKNUM= ****** GX	FD.COM= 020000   	F.DFNB= 000046   	HEAD1 = ****** GX	NB.SVR= 000010
BYTBIT= 000100   	FD.CR = 000002   	F.DSPT= 000044   	HEXBIT= 002000   	NB.TYP= 000002
BYTNUM= ****** GX	FD.DIR= 000010   	F.DVNM= 000134   	H.CKSM= 000776   	NB.VER= 000001
CH.AND= 000001   	FD.FTN= 000001   	F.EFBK= 000010   	H.FCHA= 000014   	NB.WLV= 010000
CONTIG= ****** GX	FD.F11= 040000   	F.EFN = 000050   	H.FLEV= 000006   	N.DEVD= 000000
CR    = 000015   	FD.INS= 000010   	F.EOBB= 000032   	H.FNUM= 000002   	N.DID = 000024
CS.DIF= 000002   	FD.ISP= 002000   	F.ERR = 000052   	H.FOWN= 000010   	N.DIRD= 000004
CS.DVF= 000004   	FD.MNT= 100000   	F.FACC= 000043   	H.FPRO= 000012   	N.DVNM= 000032
CS.EQU= 000040   	FD.OSP= 004000   	F.FFBY= 000014   	H.FSEQ= 000004   	N.FID = 000000
CS.INP= 000001   	FD.PLC= 000004   	F.FNAM= 000110   	H.IDOF= 000000   	N.FLID= 000016
CS.MOR= 000020   	FD.PRN= 000004   	F.FNB = 000102   	H.MPOF= 000001   	N.FNAM= 000006
CS.NMF= 000001   	FD.PSE= 010000   	F.FTYP= 000116   	H.PROG= 000010   	N.FNMD= 000010
CS.OUT= 000002   	FD.RAH= 000001   	F.FVER= 000120   	H.PROJ= 000011   	N.FTYP= 000014
CS.SWF= 000040   	FD.RAN= 000002   	F.HIBK= 000004   	H.SCHA= 000015   	N.FVER= 000016
CS.WLD= 000010   	FD.REC= 000001   	F.LUN = 000042   	H.UCHA= 000014   	N.NEXT= 000022
C.CMLD= 000002   	FD.RWM= 000001   	F.MBCT= 000054   	H.UFAT= 000016   	N.SPEC= 000014
C.DEVD= 000006   	FD.SDI= 000020   	F.MBC1= 000055   	IDBIT = 000004   	N.STAT= 000020
C.DIRD= 000012   	FD.SQD= 000040   	F.MBFG= 000056   	IFNPT = ****** GX	N.UNIT= 000034
C.DSDS= 000006   	FD.TTY= 000004   	F.NRBD= 000024   	INBUF = ****** GX	OUTLUN= 000004
C.FILD= 000016   	FD.WBH= 000002   	F.NREC= 000030   	INLUN = 000003   	PAR$$$= 000027
C.MKW1= 000024   	FF    = 000014   	F.OVBS= 000030   	IOSTBK= ****** GX	PEBIT = 000002
C.MKW2= 000026   	FF.CHR= 000005   	F.RACC= 000016   	IO.RAT= ****** GX	RATTBK= ****** GX
C.SIZE= 000054   	FF.NV = 000003   	F.RATT= 000001   	I.CRDT= 000031   	RECBIT= 040000
C.STAT= 000001   	FF.POE= 000002   	F.RCNM= 000034   	I.CRTI= 000040   	RHDR  = ****** GX
C.SWAD= 000022   	FF.RWD= 000001   	F.RCTL= 000017   	I.DASZ= 000007   	RNXTB = ****** GX
C.TYPR= 000000   	FF.RWF= 000006   	F.RSIZ= 000002   	I.EXDT= 000046   	ROHEAD= ****** GX
DECBIT= 020000   	FF.SPC= 000004   	F.RTYP= 000000   	I.FNAM= 000000   	RSTART= ****** GX
DMPCTL= ****** GX	FIDBIT= 000020   	F.SEQN= 000100   	I.FTYP= 000006   	R$$DPB= 000001
DUMP    000000RG    002	FLBLMG= ****** GX	F.SPDV= 000072   	I.FVER= 000010   	R$$DYM= 000001
EDPUT = ****** GX	FLHDMG= ****** GX	F.SPUN= 000074   	I.RVDT= 000014   	R$$EIS= 000000
ER10MG= ****** GX	FM01MG= ****** GX	F.STBK= 000036   	I.RVNO= 000012   	R$$11M= 000001
ER10SZ= ****** GX	FM02MG= ****** GX	F.UNIT= 000136   	I.RVTI= 000023   	R.FIX = 000001
ER11MG= ****** GX	FM03MG= ****** GX	F.URBD= 000020   	I.TISZ= 000006   	R.SEQ = 000003
ER11SZ= ****** GX	FM03SZ= ****** GX	F.VBN = 000064   	LBBIT = 000400   	R.VAR = 000002
EXIT  = ****** GX	FO.APD= 000106   	F.VBSZ= 000060   	LBNBIT= 100000   	R50BIT= 001000
FA.APD= 000100   	FO.MFY= 000002   	GE.BIF= 177775   	LF    = 000012   	SC.BAD= 000100
FA.CRE= 000010   	FO.RD = 000001   	GE.CLO= 000004   	LNGBIT= 004000   	SC.MDL= 000200
FA.DLK= 001000   	FO.UPD= 000006   	GE.COM= 000001   	MAXHED= 000113   	SPLBIT= 000001
FA.ENB= 100000   	FO.WRT= 000016   	GE.CON= 000020   	MDBIT = 000010   	STBLK = ****** GX
FA.EXC= 002000   	FP.DEL= 000010   	GE.EOF= 177766   	MOPRM = ****** GX	S.APPD= 000010
FA.EXT= 000004   	FP.EXT= 000004   	GE.IND= 000002   	M.CTSZ= 000006   	S.FATT= 000016
FA.NSP= 000100   	FP.RAT= 000001   	GE.IOR= 177777   	M.EFNU= 000002   	S.FDB = 000140
DUMDUM M0005.1, DMP DUMP ROUTIN	MACRO M1110  22-AUG-78 02:05  PAGE 11-2
SYMBOL TABLE

S.FIDS= 000014   	S.FTYP= 000002   	S.STBK= 000014   	X     = 000026   	.PUT  = ****** G
S.FNAM= 000006   	S.HDHD= 000056   	TAB   = 000011   	$EDMSG= ****** GX	.XQIO = ****** GX
S.FNB = 000036   	S.IDHD= 000056   	UC.CON= 000200   	$FILMG= ****** GX	...GBL= 000000
S.FNBW= 000017   	S.MPHD= 000012   	UC.DLK= 000100   	.EXSTS= ****** GX	...TPC= 000012
S.FNTY= 000004   	S.NFEN= 000020   	WRDBIT= 010000   	.GDRNM= ****** GX

. ABS.	000131	   000
      	000000	   001
PURE$I	000672	   002
ERRORS DETECTED:  0

VIRTUAL MEMORY USED:  7784 WORDS  ( 31 PAGES)
DYNAMIC MEMORY:  9108 WORDS  ( 35 PAGES)
ELAPSED TIME:  00:00:27
OBJ$:DUMDUM,LIS$:DUMDUM/-SP=SRC$:PIPMAC,DMPDEF,DUMDUM
