BUGCHKMSG       - BUG CHECK MESSAGE FILE                         21-AUG-1978 21:08:55   VAX-11 MACRO X0.3-11               Page   1
03                                                                                                                               (1)

                                     0000   100 	.TITLE	BUGCHKMSG - BUG CHECK MESSAGE FILE
                                     0000   200 	.IDENT	/03/
                                     0000   300
                                     0000   400 ;
                                     0000   500 ; COPYRIGHT (C) 1977,1978
                                     0000   600 ; DIGITAL EQUIPMENT CORPORATION, MAYNARD, MASS.
                                     0000   700 ;
                                     0000   800 ; THIS SOFTWARE IS FURNISHED UNDER  A LICENSE FOR USE ONLY  ON  A
                                     0000   900 ; SINGLE COMPUTER SYSTEM AND MAY BE  COPIED ONLY WITH  THE INCLU-
                                     0000  1000 ; SION OF  THE  ABOVE  COPYRIGHT NOTICE.  THIS SOFTWARE,  OR  ANY
                                     0000  1100 ; OTHER COPIES THEREOF, MAY NOT BE  PROVIDED  OR  OTHERWISE  MADE
                                     0000  1200 ; AVAILABLE TO ANY OTHER PERSON EXCEPT  FOR  USE  ON  SUCH SYSTEM
                                     0000  1300 ; AND TO  ONE WHO AGREES  TO  THESE LICENSE  TERMS.  TITLE TO AND
                                     0000  1400 ; OWNERSHIP OF THE SOFTWARE SHALL AT ALL TIMES REMAIN IN DEC.
                                     0000  1500 ;
                                     0000  1600 ; THE INFORMATION IN THIS SOFTWARE  IS  SUBJECT TO CHANGE WITHOUT
                                     0000  1700 ; NOTICE AND SHOULD NOT BE CONSTRUED  AS  A COMMITMENT BY DIGITAL
                                     0000  1800 ; EQUIPMENT CORPORATION.
                                     0000  1900 ;
                                     0000  2000 ; DEC ASSUMES NO RESPONSIBILITY FOR THE USE OR RELIABILITY OF ITS
                                     0000  2100 ; SOFTWARE ON EQUIPMENT WHICH IS NOT SUPPLIED BY DEC.
                                     0000  2200 ;
                                     0000  2300 ; D. N. CUTLER 1-NOV-77
                                     0000  2400 ;
                                     0000  2500 ; BUG CHECK MESSAGE FILE
                                     0000  2600 ;
                                     0000  2700 ; LOCAL MACROS
                                     0000  2800 ;
                                     0000  2900 ; GENERATE BUG CHECK MESSAGE
                                     0000  3000 ;
                                     0000  3100
                                     0000  3200 	.MACRO	GENMSG SYMBOL,TEXT
                                     0000  3300 BUG$_'SYMBOL'==N
                                     0000  3400 		N=N+8
                                     0000  3500 		.ASCIC	\'SYMBOL', 'TEXT'\
                                     0000  3600 	.ENDM	GENMSG
                                     0000  3700
                                     0000  3800 ;
                                     0000  3900 ; LOCAL SYMBOLS
                                     0000  4000 ;
                                     0000  4100
                           00000008  0000  4200 N=8					;STARTING MESSAGE NUMBER
                                     0000  4300
                                     0000  4400 ;
                                     0000  4500 ; GLOBAL DATA
                                     0000  4600 ;
                                     0000  4700 ; BUG CHECK MESSAGES
                                     0000  4800 ;
                                     0000  4900
                                 00000000  5000 	.PSECT	Z$INIT__BUGMSG,WORD
                                     0000  5100
                                     0000  5200 BUG$T_MESSAGES::			;START OF BUG CHECK MESSAGE TEXT
                                 00  0000  5300 	.BYTE	0			;DUMMY ENTRY
                                     0001  5400 	GENMSG	ACPMBFAIL,<ACP failure to read mailbox>
                                     0028  5500 	GENMSG	ACPVAFAIL,<ACP failure to return virtual address space>
                                     005F  5600 	GENMSG	ALCPHD,<Allocate process header error>
                                     0085  5700 	GENMSG	ALCSMBCLR,<ACP tried to allocate space already allocated>
BUGCHKMSG       - BUG CHECK MESSAGE FILE                         21-AUG-1978 21:08:55   VAX-11 MACRO X0.3-11               Page   2
03                                                                                                                               (1)

                                     00BE  5800 	GENMSG	APTREFHIGH,<Inconsistent active page table reference count>
                                     00F9  5900 	GENMSG	APTWRTERR,<Active page table swap write error>
                                     0127  6000 	GENMSG	ASYNCWRTER,<Asynchronous write memory failure>
                                     0155  6100 	GENMSG	BADALORQSZ,<Bad memory allocation request size>
                                     0184  6200 	GENMSG	BADBUFADR,<ACP buffer address out of range of buffer pool>
                                     01BE  6300 	GENMSG	BADBUFTYP,<Bad ACP buffer type code>
                                     01E2  6400 	GENMSG	BADDALRQSZ,<Bad memory deallocation request size or address>
                                     021E  6500 	GENMSG	BADFID,<ACP file number out of range for this volume>
                                     0253  6600 	GENMSG	BADFORKIPL,<Bad FORK exit interrupt priority level>
                                     0286  6700 	GENMSG	BADLCKWSLE,<Bad locked working set list entry, not a page table>
                                     02C6  6800 	GENMSG	BADMCKCOD,<Bad machine check code>
                                     02E8  6900 	GENMSG	BADPAGFILA,<Bad page file address allocated>
                                     0314  7000 	GENMSG	BADPAGFILD,<Bad page file address deallocated>
                                     0342  7100 	GENMSG	BADPAGTYPE,<Bad page type>
                                     035C  7200 	GENMSG	BADRSEIPL,<Bad IPL at entrance to report schedule event>
                                     0394  7300 	GENMSG	BADSBMBLK,<ACP tried to reference off end of bitmap>
                                     03C8  7400 	GENMSG	BADSWPVBN,<Swap VBN specified for non-process page>
                                     03FB  7500 	GENMSG	BADWCBPT,<Bad WCB pointer in IRP>
                                     041C  7600 	GENMSG	CHMONIS,<Change mode instruction while on interrupt stack>
                                     0456  7700 	GENMSG	CONTRACT,<Contract virtual address space error>
                                     0485  7800 	GENMSG	DBLERR,<Double error halt restart>
                                     04A7  7900 	GENMSG	DECPTREF,<Decrement page table reference count error>
                                     04DC  8000 	GENMSG	DELCONPFN,<Fatal error in delete contents of PFN>
                                     050D  8100 	GENMSG	DELGBLSEC,<Delete global section error>
                                     0534  8200 	GENMSG	DELGBLWCB,<Delete global section window error>
                                     0562  8300 	GENMSG	DELSUBFLT,<Unable to delete subprocess>
                                     0589  8400 	GENMSG	DELWSLEX,<Delete working set list entry index error>
                                     05BD  8500 	GENMSG	DIRENTRY,<ACP failed to find same directory entry>
                                     05EF  8600 	GENMSG	DOUBLDALOC,<Double deallocation of swap file space>
                                     0622  8700 	GENMSG	DOUBLDEALO,<Double deallocation of memory block>
                                     0652  8800 	GENMSG	ERRHALT,<Halt with error interrupt pending>
                                     067D  8900 	GENMSG	EXHFUL,<File extension header has no room>
                                     06A7  9000 	GENMSG	EXPANDPHD,<Expand process header error>
                                     06CE  9100 	GENMSG	FATALEXCPT,<Fatal executive or kernel mode exception>
                                     0703  9200 	GENMSG	FREEPAGREF,<Free page reference count is nonzero>
                                     0734  9300 	GENMSG	FREWSLX,<Free working set list index, resource wait>
                                     0768  9400 	GENMSG	GBLPAGSZRO,<Global page share count is zero>
                                     0794  9500 	GENMSG	GBLWSLXERR,<Global working set list entry not found>
                                     07C8  9600 	GENMSG	GPGNULPGFL,<Global page has null page file address>
                                     07FB  9700 	GENMSG	HALT,<Halt instruction restart>
                                     081A  9800 	GENMSG	HDRNOTMAP,<Allocated file header not mapped>
                                     0846  9900 	GENMSG	ICONPFNDAT,<Inconsistent PFN data base>
                                     086D 10000 	GENMSG	ICPAGELOC,<Inconsistent page location>
                                     0893 10100 	GENMSG	IFREPAGCNT,<Inconsistent free page count>
                                     08BC 10200 	GENMSG	ILLEVTNUM,<Illegal event number>
                                     08DC 10300 	GENMSG	ILLVEC,<Illegal interrupt or exception vector restart>
                                     0912 10400 	GENMSG	INCONSTATE,<Inconsistent UBA data base>
                                     0939 10500 	GENMSG	INCPTREF,<Increment page table reference count error>
                                     096E 10600 	GENMSG	INSNFREPAG,<Insufficient nonfree pages>
                                     0995 10700 	GENMSG	INSSWPFIL,<Insufficient swap file space>
                                     09BD 10800 	GENMSG	INSWAPERR,<Inswap read error>
                                     09DA 10900 	GENMSG	INVCHAN,<Invalid ACP channel number>
                                     09FE 11000 	GENMSG	INVEXCEPTN,<Exception while above ASTDEL or on interrupt stack>
                                     0A3D 11100 	GENMSG	INVPTEFMT,<Invalid page table entry format>
                                     0A68 11200 	GENMSG	INVTQEFMT,<Invalid time queue entry format>
                                     0A93 11300 	GENMSG	IVBAKADIO,<Invalid backing store address for I/O>
                                     0AC4 11400 	GENMSG	IVGBLTYP,<Invalid global master PTE type>
BUGCHKMSG       - BUG CHECK MESSAGE FILE                         21-AUG-1978 21:08:55   VAX-11 MACRO X0.3-11               Page   3
03                                                                                                                               (1)

                                     0AED 11500 	GENMSG	IVLISTK,<Interrupt stack invalid restart>
                                     0B16 11600 	GENMSG	IVSSRVRQST,<Invalid system service request>
                                     0B41 11700 	GENMSG	IVWSETLIST,<Invalid working set list entry>
                                     0B6C 11800 	GENMSG	KRNLSTAKNV,<Kernel stack not valid>
                                     0B8F 11900 	GENMSG	MACHINECHK,<Machine check while in kernel mode>
                                     0BBE 12000 	GENMSG	MAKEWSLE,<Make working set list entry error>
                                     0BEA 12100 	GENMSG	MODRELNBAK,<No backing store address for modified page>
                                     0C21 12200 	GENMSG	MFYNULPGFL,<FREWSLE - no backing store, page not modified>
                                     0C5B 12300 	GENMSG	MPWALCIRP,<Modified page writer failed to allocate I/O Packet>
                                     0C99 12400 	GENMSG	MTXCNTNONZ,<Mutex count nonzero at system service exit>
                                     0CD0 12500 	GENMSG	NETNOBUF,<NETACP - buffer allocation failure>
                                     0CFD 12600 	GENMSG	NETNOSTATE,<NETACP - no state transition>
                                     0D26 12700 	GENMSG	NETRCVPKT,<NETACP - no receive I/O packet>
                                     0D50 12800 	GENMSG	NETSYSSRV,<NETACP - unexpected system service failure>
                                     0D86 12900 	GENMSG	NETTRANCNT,<NETACP - transaction count zero>
                                     0DB2 13000 	GENMSG	NOACPCHAN,<Failure to assign ACP channel>
                                     0DDB 13100 	GENMSG	NOACPMAIL,<Failure to create ACP mailbox>
                                     0E04 13200 	GENMSG	NOAQBACP,<No AQB for ACP>
                                     0E1D 13300 	GENMSG	NOBUFPCKT,<Required buffer packet not present>
                                     0E4B 13400 	GENMSG	NOBVPVCB,<Blocked volume virtual page not found in VCB>
                                     0E82 13500 	GENMSG	NOMULTBK,<ACP multiple block buffering not supported yet>
                                     0EBB 13600 	GENMSG	NONEXSTACP,<Nonexistent ACP process>
                                     0EDF 13700 	GENMSG	NORCVBUF,<NETACP - no receive buffer available>
                                     0F0E 13800 	GENMSG	NOTDDBDDB,<Corrupted DDB list>
                                     0F2C 13900 	GENMSG	NOTFCBFCB,<FCB linkage broken>
                                     0F4A 14000 	GENMSG	NOTFCBWCB,<Bad FCB pointer in window>
                                     0F6F 14100 	GENMSG	NOTFCPWCB,<Not FCP window in IRP>
                                     0F90 14200 	GENMSG	NOTIRPAQB,<Not IRP pointer in AQB>
                                     0FB2 14300 	GENMSG	NOTMTLMTL,<Corrupted mounted volume list>
                                     0FDB 14400 	GENMSG	NOTPCB,<Structure not PCB>
                                     0FF5 14500 	GENMSG	NOTRVTVCB,<Not RVT pointer in VCB>
                                     1017 14600 	GENMSG	NOTUCBIRP,<Not UCB pointer in IRP>
                                     1039 14700 	GENMSG	NOTUCBRVT,<Not UCB pointer in RVT>
                                     105B 14800 	GENMSG	NOTUCBUCB,<Corrupted UCB list>
                                     1079 14900 	GENMSG	NOTVCBUCB,<Not VCB pointer in UCB>
                                     109B 15000 	GENMSG	NOTVVPVCB,<Not volume virtual page pointer in VCB>
                                     10CD 15100 	GENMSG	NOTWCBIRP,<Not WCB Pointer in IRP>
                                     10EF 15200 	GENMSG	NOUSRWCS,<No user WCS halt restart>
                                     1112 15300 	GENMSG	OUTSWPERR,<Outswap write error>
                                     1131 15400 	GENMSG	PAGEREDERR,<Page read error>
                                     114D 15500 	GENMSG	PAGEWRTERR,<Page write error>
                                     116A 15600 	GENMSG	PAGNTRNVAL,<Page not in transition or valid>
                                     1196 15700 	GENMSG	PFNLISTCNT,<Inconsistent PFN list count>
                                     11BE 15800 	GENMSG	PFNREFNZRO,<PFN reference count nonzero>
                                     11E6 15900 	GENMSG	PGFGBLBAD,<Pagefault, global page table entry bad format>
                                     121F 16000 	GENMSG	PGFIPLHI,<Pagefault with IPL too high>
                                     1245 16100 	GENMSG	PGFLOCBAD,<Pagefault, location field has bad value>
                                     1278 16200 	GENMSG	PROCGONE,<Process not in system>
                                     1298 16300 	GENMSG	PTELENVIOL,<Unexpected page table length violation>
                                     12CB 16400 	GENMSG	PTRCNT,<ACP block count exceeds retrieval pointer size>
                                     1302 16500 	GENMSG	PURGWSSCN,<Purge working set scan error>
                                     132A 16600 	GENMSG	QUEUEMPTY,<Scheduling queue empty>
                                     134C 16700 	GENMSG	RDSNONRES,<Read data substitute page nonresident>
                                     137D 16800 	GENMSG	REFCNTNEG,<PFN reference count is negative>
                                     13A8 16900 	GENMSG	RMSBUG,<RMS has detected an invalid condition>
                                     13D6 17000 	GENMSG	SCANDEADPT,<Scan dead page table error>
                                     13FD 17100 	GENMSG	SECREFNEG,<Section reference count went negative>
BUGCHKMSG       - BUG CHECK MESSAGE FILE                         21-AUG-1978 21:08:55   VAX-11 MACRO X0.3-11               Page   4
03                                                                                                                               (1)

                                     142E 17200 	GENMSG	SHRCNTNEG,<PFN share count negative>
                                     1452 17300 	GENMSG	SSRVEXCEPT,<Unexpected system service exception>
                                     1482 17400 	GENMSG	STRNOTWCB,<Data structure not window block>
                                     14AD 17500 	GENMSG	SWAPWSLE,<Swap working set list entries error>
                                     14DB 17600 	GENMSG	SYSADJWSL,<System service adjust workins set limit error>
                                     1514 17700 	GENMSG	SYSTRMERR,<SYSINIT-terminal IO error>
                                     1539 17800 	GENMSG	TIPCUFLOW,<NETACP - transmit count underflow>
                                     1566 17900 	GENMSG	UBMAPEXCED,<UNIBUS map register allocation exceeded>
                                     159A 18000 	GENMSG	UNABLCREVA,<Unable to create virtual address space>
                                     15CD 18100 	GENMSG	UNEXUBAINT,<Unexpected UNIBUS adapter interrupt>
                                     15FD 18200 	GENMSG	UNKRSTRT,<Unknown restart code>
                                     161C 18300 	GENMSG	UNXINTEXC,<Unexpected interrupt or exception>
                                     1649 18400 	GENMSG	UNXSIGNAL,<Unexpected signal name in ACP>
                                     1672 18500 	GENMSG	VBNMAPFAIL,<Virtual block map failure>
                                     1698 18600 	GENMSG	WACKQEMPTY,<NETACP - ack wait queue empty>
                                     16C2 18700 	GENMSG	WRTINVBUF,<ACP attempted to write an invalid buffer>
                                     16F6 18800 	GENMSG	WRTINVHDR,<ACP attempted to write an invalid file header>
                                     172F 18900 	GENMSG	WRTPGSBAK,<Write pages back - inconsistent data base>
                                     1764 19000 	GENMSG	WSLENOVAL,<Working set list entry not valid>
                                     1790 19100 	GENMSG	WSLPAGCNT,<Working set list page count error>
                                     17BD 19200 	GENMSG	WSLVANVAL,<Working set list virtual adr has non-valid PTE>
                                     17F7 19300 	GENMSG	WSLXVANMAT,<Working set list entry does not match VA>
                                     182C 19400 	GENMSG	ZEROPAGE,<Zero page table entry from swap map>
                                     185A 19500 ;
                                     185A 19600 ; CONTINUATION - NOT IN ALPHABETICAL ORDER
                                     185A 19700 ;
                                     185A 19800 	GENMSG OPERATOR,<Operator requested system shutdown>
                                 00  1887 19900 	.BYTE	0			;END OF TABLE
                                     1888 20000
                                     1888 20100 	.END
BUGCHKMSG       - BUG CHECK MESSAGE FILE                         21-AUG-1978 21:08:55   VAX-11 MACRO X0.3-11               Page   5
SYMBOL TABLE                                                                                                                     (1)

BUG$T_MESSAGES   00000000 RG    02   BUG$_INVEXCEPTN= 000001C8  G         BUG$_QUEUEMPTY = 00000388  G
BUG$_ACPMBFAIL = 00000008  G         BUG$_INVPTEFMT = 000001D0  G         BUG$_RDSNONRES = 00000390  G
BUG$_ACPVAFAIL = 00000010  G         BUG$_INVTQEFMT = 000001D8  G         BUG$_REFCNTNEG = 00000398  G
BUG$_ALCPHD    = 00000018  G         BUG$_IVBAKADIO = 000001E0  G         BUG$_RMSBUG    = 000003A0  G
BUG$_ALCSMBCLR = 00000020  G         BUG$_IVGBLTYP  = 000001E8  G         BUG$_SCANDEADPT= 000003A8  G
BUG$_APTREFHIGH= 00000028  G         BUG$_IVLISTK   = 000001F0  G         BUG$_SECREFNEG = 000003B0  G
BUG$_APTWRTERR = 00000030  G         BUG$_IVSSRVRQST= 000001F8  G         BUG$_SHRCNTNEG = 000003B8  G
BUG$_ASYNCWRTER= 00000038  G         BUG$_IVWSETLIST= 00000200  G         BUG$_SSRVEXCEPT= 000003C0  G
BUG$_BADALORQSZ= 00000040  G         BUG$_KRNLSTAKNV= 00000208  G         BUG$_STRNOTWCB = 000003C8  G
BUG$_BADBUFADR = 00000048  G         BUG$_MACHINECHK= 00000210  G         BUG$_SWAPWSLE  = 000003D0  G
BUG$_BADBUFTYP = 00000050  G         BUG$_MAKEWSLE  = 00000218  G         BUG$_SYSADJWSL = 000003D8  G
BUG$_BADDALRQSZ= 00000058  G         BUG$_MFYNULPGFL= 00000228  G         BUG$_SYSTRMERR = 000003E0  G
BUG$_BADFID    = 00000060  G         BUG$_MODRELNBAK= 00000220  G         BUG$_TIPCUFLOW = 000003E8  G
BUG$_BADFORKIPL= 00000068  G         BUG$_MPWALCIRP = 00000230  G         BUG$_UBMAPEXCED= 000003F0  G
BUG$_BADLCKWSLE= 00000070  G         BUG$_MTXCNTNONZ= 00000238  G         BUG$_UNABLCREVA= 000003F8  G
BUG$_BADMCKCOD = 00000078  G         BUG$_NETNOBUF  = 00000240  G         BUG$_UNEXUBAINT= 00000400  G
BUG$_BADPAGFILA= 00000080  G         BUG$_NETNOSTATE= 00000248  G         BUG$_UNKRSTRT  = 00000408  G
BUG$_BADPAGFILD= 00000088  G         BUG$_NETRCVPKT = 00000250  G         BUG$_UNXINTEXC = 00000410  G
BUG$_BADPAGTYPE= 00000090  G         BUG$_NETSYSSRV = 00000258  G         BUG$_UNXSIGNAL = 00000418  G
BUG$_BADRSEIPL = 00000098  G         BUG$_NETTRANCNT= 00000260  G         BUG$_VBNMAPFAIL= 00000420  G
BUG$_BADSBMBLK = 000000A0  G         BUG$_NOACPCHAN = 00000268  G         BUG$_WACKQEMPTY= 00000428  G
BUG$_BADSWPVBN = 000000A8  G         BUG$_NOACPMAIL = 00000270  G         BUG$_WRTINVBUF = 00000430  G
BUG$_BADWCBPT  = 000000B0  G         BUG$_NOAQBACP  = 00000278  G         BUG$_WRTINVHDR = 00000438  G
BUG$_CHMONIS   = 000000B8  G         BUG$_NOBUFPCKT = 00000280  G         BUG$_WRTPGSBAK = 00000440  G
BUG$_CONTRACT  = 000000C0  G         BUG$_NOBVPVCB  = 00000288  G         BUG$_WSLENOVAL = 00000448  G
BUG$_DBLERR    = 000000C8  G         BUG$_NOMULTBK  = 00000290  G         BUG$_WSLPAGCNT = 00000450  G
BUG$_DECPTREF  = 000000D0  G         BUG$_NONEXSTACP= 00000298  G         BUG$_WSLVANVAL = 00000458  G
BUG$_DELCONPFN = 000000D8  G         BUG$_NORCVBUF  = 000002A0  G         BUG$_WSLXVANMAT= 00000460  G
BUG$_DELGBLSEC = 000000E0  G         BUG$_NOTDDBDDB = 000002A8  G         BUG$_ZEROPAGE  = 00000468  G
BUG$_DELGBLWCB = 000000E8  G         BUG$_NOTFCBFCB = 000002B0  G         N              = 00000478
BUG$_DELSUBFLT = 000000F0  G         BUG$_NOTFCBWCB = 000002B8  G
BUG$_DELWSLEX  = 000000F8  G         BUG$_NOTFCPWCB = 000002C0  G
BUG$_DIRENTRY  = 00000100  G         BUG$_NOTIRPAQB = 000002C8  G
BUG$_DOUBLDALOC= 00000108  G         BUG$_NOTMTLMTL = 000002D0  G
BUG$_DOUBLDEALO= 00000110  G         BUG$_NOTPCB    = 000002D8  G
BUG$_ERRHALT   = 00000118  G         BUG$_NOTRVTVCB = 000002E0  G
BUG$_EXHFUL    = 00000120  G         BUG$_NOTUCBIRP = 000002E8  G
BUG$_EXPANDPHD = 00000128  G         BUG$_NOTUCBRVT = 000002F0  G
BUG$_FATALEXCPT= 00000130  G         BUG$_NOTUCBUCB = 000002F8  G
BUG$_FREEPAGREF= 00000138  G         BUG$_NOTVCBUCB = 00000300  G
BUG$_FREWSLX   = 00000140  G         BUG$_NOTVVPVCB = 00000308  G
BUG$_GBLPAGSZRO= 00000148  G         BUG$_NOTWCBIRP = 00000310  G
BUG$_GBLWSLXERR= 00000150  G         BUG$_NOUSRWCS  = 00000318  G
BUG$_GPGNULPGFL= 00000158  G         BUG$_OPERATOR  = 00000470  G
BUG$_HALT      = 00000160  G         BUG$_OUTSWPERR = 00000320  G
BUG$_HDRNOTMAP = 00000168  G         BUG$_PAGEREDERR= 00000328  G
BUG$_ICONPFNDAT= 00000170  G         BUG$_PAGEWRTERR= 00000330  G
BUG$_ICPAGELOC = 00000178  G         BUG$_PAGNTRNVAL= 00000338  G
BUG$_IFREPAGCNT= 00000180  G         BUG$_PFNLISTCNT= 00000340  G
BUG$_ILLEVTNUM = 00000188  G         BUG$_PFNREFNZRO= 00000348  G
BUG$_ILLVEC    = 00000190  G         BUG$_PGFGBLBAD = 00000350  G
BUG$_INCONSTATE= 00000198  G         BUG$_PGFIPLHI  = 00000358  G
BUG$_INCPTREF  = 000001A0  G         BUG$_PGFLOCBAD = 00000360  G
BUG$_INSNFREPAG= 000001A8  G         BUG$_PROCGONE  = 00000368  G
BUG$_INSSWPFIL = 000001B0  G         BUG$_PTELENVIOL= 00000370  G
BUG$_INSWAPERR = 000001B8  G         BUG$_PTRCNT    = 00000378  G
BUG$_INVCHAN   = 000001C0  G         BUG$_PURGWSSCN = 00000380  G
BUGCHKMSG       - BUG CHECK MESSAGE FILE                         21-AUG-1978 21:08:55   VAX-11 MACRO X0.3-11               Page   6
PROGRAM SECTION SYNOPSIS                                                                                                         (1)


PROGRAM SECTION SYNOPSIS

.  ABS  .        00000000      00     NOPIC   USR   CON   ABS   LCL NOSHR NOEXE NORD  NOWRT BYTE
. BLANK .        00000000      01     NOPIC   USR   CON   REL   LCL NOSHR   EXE   RD    WRT BYTE
Z$INIT__BUGMSG   00001888      02     NOPIC   USR   CON   REL   LCL NOSHR   EXE   RD    WRT WORD


THERE WERE NO ERRORS OR WARNINGS.
24958. BYTES LEFT IN FREE MEMORY POOL.
OBJ$:BUGCHKMSG,LIS$:BUGCHKMSG/-SP=EXECML$/ML,SRC$:BUGCHKMSG
0 MLB DIR RDS - 0 GETS TO DEFINE 0 MACROS. 36 INTER. FILE WRITES.
