DEVICEDAT       - VAX/VMS SYSTEM PERMANENT DEVICE DATABASE       21-AUG-1978 19:40:59   VAX-11 MACRO X0.3-11               Page   0
TABLE OF CONTENTS

   (2)      90  SYSTEM DEVICE DATABASE LIST HEADS
   (3)     108  SYSTEM BOOT DEVICE DATABASE
   (4)     135  SYSTEM CONSOLE DEVICE DATABASE
   (5)     239  SYSTEM PERMANENT MAILBOX DATABASE
   (6)     333  NULL DEVICE (NLA) DATABASE
   (7)     360  NETWORK DEVICE DATABASE
DEVICEDAT       - VAX/VMS SYSTEM PERMANENT DEVICE DATABASE       21-AUG-1978 19:40:59   VAX-11 MACRO X0.3-11               Page   1
V07                                                                                                                              (1)

                                     0000     1 	.TITLE	DEVICEDAT - VAX/VMS SYSTEM PERMANENT DEVICE DATABASE
                                     0000     2 	.IDENT	/V07/
                                     0000     3 ;
                                     0000     4 ; COPYRIGHT (C) 1978
                                     0000     5 ; DIGITAL EQUIPMENT CORPORATION, MAYNARD, MASS.
                                     0000     6 ;
                                     0000     7 ; THIS SOFTWARE IS FURNISHED UNDER  A LICENSE FOR USE ONLY  ON  A
                                     0000     8 ; SINGLE COMPUTER SYSTEM AND MAY BE  COPIED ONLY WITH  THE INCLU-
                                     0000     9 ; SION OF  THE  ABOVE  COPYRIGHT NOTICE.  THIS SOFTWARE,  OR  ANY
                                     0000    10 ; OTHER COPIES THEREOF, MAY NOT BE  PROVIDED  OR  OTHERWISE  MADE
                                     0000    11 ; AVAILABLE TO ANY OTHER PERSON EXCEPT  FOR  USE  ON  SUCH SYSTEM
                                     0000    12 ; AND TO  ONE WHO AGREES  TO  THESE LICENSE  TERMS.  TITLE TO AND
                                     0000    13 ; OWNERSHIP OF THE SOFTWARE SHALL AT ALL TIMES REMAIN IN DEC.
                                     0000    14 ;
                                     0000    15 ; THE INFORMATION IN THIS SOFTWARE  IS  SUBJECT TO CHANGE WITHOUT
                                     0000    16 ; NOTICE AND SHOULD NOT BE CONSTRUED  AS  A COMMITMENT BY DIGITAL
                                     0000    17 ; EQUIPMENT CORPORATION.
                                     0000    18 ;
                                     0000    19 ; DEC ASSUMES NO RESPONSIBILITY FOR THE USE OR RELIABILITY OF ITS
                                     0000    20 ; SOFTWARE ON EQUIPMENT WHICH IS NOT SUPPLIED BY DEC.
                                     0000    21 ;
                                     0000    22 ;++
                                     0000    23 ; FACILITY:
                                     0000    24 ;
                                     0000    25 ;	VAX/VMS I/O SUBSYSTEM
                                     0000    26 ;
                                     0000    27 ; ABSTRACT:
                                     0000    28 ;
                                     0000    29 ;	SYSTEM PERMANENT DEVICE DATABASE
                                     0000    30 ;
                                     0000    31 ; AUTHOR:
                                     0000    32 ;	R.HEINEN 3-AUG-76
                                     0000    33 ;--
                                     0000    34 ;
                                     0000    35 ; SYMBOL DEFINITIONS
                                     0000    36 ;
                                     0000    37
                                     0000    38 	$CRBDEF				; DEFINE CRB
                                     0000    39 	$DCDEF				; DEFINE DEVICE CLASSES
                                     0000    40 	$DDBDEF				; DEFINE DDB
                                     0000    41 	$DEVDEF				; DEFINE DEVICE CHARACTERISTICS
                                     0000    42 	$DYNDEF				; STRUCTURE TYPE CODE DEFINITIONS
                                     0000    43 	$IDBDEF				; DEFINE IDB
                                     0000    44 	$IPLDEF				; DEFINE IPL LEVELS
                                     0000    45 	$TTDEF				; DEFINE TERMINAL CHARACTERISTICS
                                     0000    46 	$UCBDEF				; DEFINE UCB
                                     0000    47 	$VECDEF				; DEFINE CRB VECTOR
                                     0000    48 	$TTYUCBDEF			; DEFINE TERMINAL UCB EXTENSION
                                     0000    49
                                     0000    50 ;
                                     0000    51 ; LOCAL MACROS
                                     0000    52 ;
                                     0000    53 	.MACRO	UCB	LABEL,EXPAND=0,?IOL,?EN
                                     0000    54 UCBASE=.
                                     0000    55 LABEL::
                                     0000    56 	.LONG	0,0
                                     0000    57 	.WORD	EN-LABEL
DEVICEDAT       - VAX/VMS SYSTEM PERMANENT DEVICE DATABASE       21-AUG-1978 19:40:59   VAX-11 MACRO X0.3-11               Page   2
V07                                                                                                                              (1)

                                     0000    58 	.BYTE	DYN$C_UCB
                                     0000    59 	.BYTE	0
                                     0000    60 	.BLKL	13
                                     0000    61 IOL:	.LONG	IOL,IOL
                                     0000    62 	.BLKL	11
                                     0000    63 	.BLKL	EXPAND
                                     0000    64 EN:
                                     0000    65 	.ENDM
                                     0000    66 ;
                                     0000    67 	.MACRO	STO_UCB	OFFSET,SIZE,VALUE
                                     0000    68 	X=.
                                     0000    69 	.=UCBASE+UCB$'OFFSET
                                     0000    70 	.'SIZE	'VALUE
                                     0000    71 	.=X
                                     0000    72 	.ENDM
                                     0000    73
                                     0000    74 	.MACRO DDB NAME,NEXT,FUCB,DDT,ACP,ATYPE,DEVNAM,DRVNAM,?EN
                                     0000    75 NAME::	.LONG	NEXT
                                     0000    76 	.LONG	FUCB
                                     0000    77 	.WORD	EN-'NAME
                                     0000    78 	.BYTE	DYN$C_DDB,0
                                     0000    79 	.LONG	DDT
                                     0000    80 	.LONG	^A/'ACP/+<'ATYPE@24>
                                     0000    81 	.ASCIC	/'DEVNAM/
                                     0000    82 	.='NAME+DDB$T_DRVNAME
                                     0000    83 	.ASCIC	/'DRVNAM/
                                     0000    84 	.='NAME+DDB$C_LENGTH
                                     0000    85 EN:
                                     0000    86 	.ENDM
                                     0000    87
                                 00000000    88 	.PSECT	$$$100,QUAD,WRT
DEVICEDAT       - VAX/VMS SYSTEM PERMANENT DEVICE DATABASE       21-AUG-1978 19:40:59   VAX-11 MACRO X0.3-11               Page   3
V07             SYSTEM DEVICE DATABASE LIST HEADS                                                                                (2)

                                     0000    90 	.SBTTL	SYSTEM DEVICE DATABASE LIST HEADS
                                     0000    91 ;
                                     0000    92 ; SYSTEM DEVICE DATA BLOCK (DDB) LIST HEAD
                                     0000    93 ;
                                     0000    94 IOC$GL_DEVLIST::
                           00000010' 0000    95 	.LONG	SYS$GL_BOOTDDB		; START DEVICE LIST AT BOOT DEVICE
                                     0004    96 ;
                                     0004    97 ; SYSTEM ADAPTER CONTROL BLOCK (ADP) LIST HEAD
                                     0004    98 ;
                                     0004    99 IOC$GL_ADPLIST::			;
                           00000000  0004   100 	.LONG	0			;
                                     0008   101 ;
                                     0008   102 ; SYSTEM DRIVER PROLOGUE LIST HEAD
                                     0008   103 ;
                                     0008   104 IOC$GL_DPTLIST::			;
                           00000008' 0008   105 	.LONG	IOC$GL_DPTLIST		;
                           00000008' 000C   106 	.LONG	IOC$GL_DPTLIST		;
DEVICEDAT       - VAX/VMS SYSTEM PERMANENT DEVICE DATABASE       21-AUG-1978 19:40:59   VAX-11 MACRO X0.3-11               Page   4
V07             SYSTEM BOOT DEVICE DATABASE                                                                                      (3)

                                     0010   108 	.SBTTL	SYSTEM BOOT DEVICE DATABASE
                                     0010   109 ;
                                     0010   110 ; BOOT DEVICE DDB
                                     0010   111 ;
                                     0010   112 	DDB	SYS$GL_BOOTDDB,OPA$GL_DDB,SYS$GL_BOOTUCB,0,<F11>,1
                                     0044   113 ;
                                     0044   114 ; UCB FOR SYSTEM BOOT DEVICE
                                     0044   115 ;
                                     0044   116 	UCB	SYS$GL_BOOTUCB,22
                                     0110   117 		STO_UCB	B_FIPL,BYTE,8
                                     0110   118 		STO_UCB	B_DIPL,BYTE,21
                                     0110   119 		STO_UCB	L_OWNUIC,LONG,<^X010001>
                                     0110   120 		STO_UCB	L_DDB,LONG,SYS$GL_BOOTDDB
                                     0110   121 		STO_UCB	L_DEVCHAR,LONG,<<DEV$M_FOD!-
                                     0110   122 			DEV$M_DIR!-
                                     0110   123 			DEV$M_AVL!-
                                     0110   124 			DEV$M_ELG!-
                                     0110   125 			DEV$M_SHR!-
                                     0110   126 			DEV$M_IDV!-
                                     0110   127 			DEV$M_ODV!-
                                     0110   128 			DEV$M_RND>>
                                     0110   129 		STO_UCB	B_DEVCLASS,BYTE,DC$_DISK
                                     0110   130 		STO_UCB	W_DEVBUFSIZ,WORD,512
                                     0110   131 		STO_UCB	B_ERTCNT,BYTE,8
                                     0110   132 		STO_UCB	B_ERTMAX,BYTE,8
                                     0110   133
DEVICEDAT       - VAX/VMS SYSTEM PERMANENT DEVICE DATABASE       21-AUG-1978 19:40:59   VAX-11 MACRO X0.3-11               Page   5
V07             SYSTEM CONSOLE DEVICE DATABASE                                                                                   (4)

                                     0110   135 	.SBTTL	SYSTEM CONSOLE DEVICE DATABASE
                                     0110   136 ;
                                     0110   137 ; CONSOLE TERMINAL DDB
                                     0110   138 ;
                                     0110   139 	DDB	OPA$GL_DDB,DXP$GL_DDB,OPA$UCB0,TT$DDT,,0,<OPA>,<OPERATOR>
                                     0144   140 ;
                                     0144   141 ; CONSOLE UCB
                                     0144   142 ;
                                     0144   143 	UCB	OPA$UCB0,14
                                     01F0   144 		STO_UCB	B_FIPL,BYTE,8
                                     01F0   145 		STO_UCB	B_DIPL,BYTE,20
                                     01F0   146 		STO_UCB	L_OWNUIC,LONG,<^X010001>
                                     01F0   147 		STO_UCB	L_CRB,LONG,OPA$CRB
                                     01F0   148 		STO_UCB	L_DDB,LONG,OPA$GL_DDB
                                     01F0   149 		STO_UCB	L_DEVCHAR,LONG,<<DEV$M_REC!-
                                     01F0   150 			DEV$M_AVL!-
                                     01F0   151 			DEV$M_CCL!-
                                     01F0   152 			DEV$M_TRM!-
                                     01F0   153 			DEV$M_IDV!-
                                     01F0   154 			DEV$M_ODV>>
                                     01F0   155 		STO_UCB	B_DEVCLASS,BYTE,DC$_TERM
                                     01F0   156 		STO_UCB	B_DEVTYPE,BYTE,DT$_LA36
                                     01F0   157 		STO_UCB	W_DEVBUFSIZ,WORD,132
                                     01F0   158 		STO_UCB	L_DEVDEPEND,LONG,<<TT$M_LOWER!TT$M_TTSYNC!TT$M_WRAP>>
                                     01F0   159 		STO_UCB	L_DEVDEPEND+3,BYTE,24
                                     01F0   160 		STO_UCB	W_TT_DESIZE,WORD,132
                                     01F0   161 		STO_UCB	L_TT_DECHAR,LONG,<<TT$M_LOWER!TT$M_TTSYNC!TT$M_WRAP>>
                                     01F0   162 		STO_UCB	L_TT_DECHAR+3,BYTE,24
                                     01F0   163 		STO_UCB	B_TT_SPEED,LONG,TT$C_BAUD_300
                                     01F0   164 		STO_UCB	B_TT_DETYPE,BYTE,TT$_LA36
                                     01F0   165 		STO_UCB B_TT_DESPEE,BYTE,TT$C_BAUD_300
                                     01F0   166 ;
                                     01F0   167 ; CONSOLE CRB
                                     01F0   168 ;
                                     01F0   169 OPA$CRB:
                  00000000 00000000  01F0   170 	.LONG	0,0			;
                               0044' 01F8   171 	.WORD	CD-OPA$CRB		; SIZE
                                 05' 01FA   172 	.BYTE	DYN$C_CRB		; TYPE IS CRB
                                 00  01FB   173 	.BYTE	0			; UNUSED
                           00000001  01FC   174 	.LONG	1			; REF COUNT=1 AND NEVER BUSY
                           00000000  0200   175 	.LONG	0			; NO NEXT CRB
                                     0204   176 CON$INTDISI::				;
                          3F     BB  0204   177 	PUSHR	#^M<R0,R1,R2,R3,R4,R5>	; SAVE REGISTERS
                 00000000'GF     16  0206   178 	JSB	G^CON$INTINP		; INPUT INTERRUPT SERVICE
                           00000234' 020C   179 	.LONG	OPA$IDB			; POINTER TO IDB
                           00000000' 0210   180 	.LONG	CON$INITIAL		; INITIALIZE CONTROLLER ENTRY POINT
                           00000000  0214   181 	.LONG	0			; MAP AND DATA PATH ALLOCATION CONTROL
                           00000000  0218   182 	.LONG	0			; ADDRESS OF ADP
                           00000000' 021C   183 	.LONG	CON$INITLINE		; INITIALIZE UNIT
                           00000000' 0220   184 	.LONG	CON$STARTIO		; START OUTPUT ON UNIT
                           00000000' 0224   185 	.LONG	CON$DISCON		; DISCONNECT UNIT
                                     0228   186 CON$INTDISO::				;
                          3F     BB  0228   187 	PUSHR	#^M<R0,R1,R2,R3,R4,R5>	; SAVE REGISTERS
                 00000000'GF     16  022A   188 	JSB	G^CON$INTOUT		; OUTPUT INTERRUPT SERVICE
                           00000234' 0230   189 	.LONG	OPA$IDB			; POINTER TO IDB
                                     0234   190 CD:
                                     0234   191
DEVICEDAT       - VAX/VMS SYSTEM PERMANENT DEVICE DATABASE       21-AUG-1978 19:40:59   VAX-11 MACRO X0.3-11               Page   6
V07             SYSTEM CONSOLE DEVICE DATABASE                                                                                   (4)

                                     0234   192 ;
                                     0234   193 ; CONSOLE IDB
                                     0234   194 ;
                                     0234   195 OPA$IDB:
                           00000000  0234   196 	.LONG	0			; CSR ADDRESS
                           00000000  0238   197 	.LONG	0			; OWNER UCB ADDRESS
                               001C' 023C   198 	.WORD	ID-OPA$IDB		; SIZE OF IDB
                                 09' 023E   199 	.BYTE	DYN$C_IDB		; TYPE OF STRUCTURE
                                 02  023F   200 	.BYTE	2			; NUMBER OF UNITS
                           00000000  0240   201 	.LONG	0			; ADAPTER ADDRESS
                           00000144' 0244   202 	.LONG	OPA$UCB0		; UNIT 0 UCB ADDRESS
                           00000284' 0248   203 	.LONG	DXP$UCB0		; UNIT 1 UCB ADDRESS
                           00000284' 024C   204 	.LONG	DXP$UCB0		; UNIT 1 INPUT UCB ADDRESS
                                     0250   205 ID:
                                     0250   206 ;
                                     0250   207 ; CONSOLE FLOPPY DDB
                                     0250   208 ;
                                     0250   209 	DDB	DXP$GL_DDB,MB$GL_DDB,DXP$UCB0,DXP$DDT,<F11>,3,<DXA>,<DXDRIVER>
                                     0284   210 ;
                                     0284   211 ; CONSOLE FLOPPY UCB 0
                                     0284   212 ;
                                     0284   213
                                     0284   214 	UCB	DXP$UCB0,45
                                     03AC   215 		STO_UCB	B_FIPL,BYTE,8
                                     03AC   216 		STO_UCB	L_OWNUIC,LONG,<^X010001>
                                     03AC   217 		STO_UCB	L_CRB,LONG,OPA$CRB
                                     03AC   218 		STO_UCB	L_DDB,LONG,DXP$GL_DDB
                                     03AC   219 		STO_UCB	L_DEVCHAR,LONG,<<DEV$M_FOD-
                                     03AC   220 			!DEV$M_DIR-
                                     03AC   221 			!DEV$M_AVL-
                                     03AC   222 			!DEV$M_SHR-
                                     03AC   223 			!DEV$M_IDV-
                                     03AC   224 			!DEV$M_ODV-
                                     03AC   225 			!DEV$M_DIR-
                                     03AC   226 			!DEV$M_RND-
                                     03AC   227 			>>
                                     03AC   228 		STO_UCB	B_DEVCLASS,BYTE,DC$_DISK
                                     03AC   229 		STO_UCB	W_DEVBUFSIZ,WORD,512
                                     03AC   230 		STO_UCB	L_DEVDEPEND,LONG,<26+<1@8>+<77@16>>
                                     03AC   231 		STO_UCB	W_UNIT,WORD,1
                                     03AC   232 		STO_UCB	B_DIPL,BYTE,20
                                     03AC   233 		STO_UCB	W_DEVSTS,WORD,<1@UCB$V_NOCNVRT>
                                     03AC   234 		STO_UCB	B_ERTCNT,BYTE,8
                                     03AC   235 		STO_UCB	B_ERTMAX,BYTE,8
                                     03AC   236 		STO_UCB	L_MAXBLOCK,LONG,<<76*26>/4>
                                     03AC   237 		STO_UCB	L_DX_BUF,LONG,UCBASE+UCB$W_DX_BCR+4
DEVICEDAT       - VAX/VMS SYSTEM PERMANENT DEVICE DATABASE       21-AUG-1978 19:40:59   VAX-11 MACRO X0.3-11               Page   7
V07             SYSTEM PERMANENT MAILBOX DATABASE                                                                                (5)

                                     03AC   239 	.SBTTL	SYSTEM PERMANENT MAILBOX DATABASE
                                     03AC   240
                                     03AC   241 ;
                                     03AC   242 ; MAILBOX DDB
                                     03AC   243 ;
                                     03AC   244 	DDB	MB$GL_DDB,NL$GL_DDB,MB$GL_UCB1,MB$DDT,,0,<MBA>,<MBDRIVER>
                                     03E0   245 ;
                                     03E0   246 ; CLONE MAILBOX UCB
                                     03E0   247 ;
                                     03E0   248 ;
                                     03E0   249 ; NOTE THAT THIS UCB IS NOT IN THE DDB'S UCB LIST
                                     03E0   250 ;
                               0000  03E0   251 	.WORD	0			; MAILBOX UNIT NUMBER SEED
                               0000  03E2   252 	.WORD	0			; SPARE UNUSED WORD
                                     03E4   253 	UCB	 MB$UCB0,0
                                     0458   254 		STO_UCB L_FQFL,LONG,MB$UCB0
                                     0458   255 		STO_UCB L_FQFL+4,LONG,MB$UCB0
                                     0458   256 		STO_UCB	B_FIPL,BYTE,IPL$_MAILBOX
                                     0458   257 		STO_UCB	B_DIPL,BYTE,IPL$_MAILBOX
                                     0458   258 		STO_UCB	W_MSGMAX,WORD,20
                                     0458   259 		STO_UCB	W_BUFQUO,WORD,-1
                                     0458   260 		STO_UCB	L_OWNUIC,LONG,<^X010001>
                                     0458   261 		STO_UCB	L_CRB,LONG,SYS_CRB
                                     0458   262 		STO_UCB	L_DDB,LONG,MB$GL_DDB
                                     0458   263 		STO_UCB	L_LINK,LONG,MB$GL_UCB1
                                     0458   264 		STO_UCB	L_DEVCHAR,LONG,<<DEV$M_REC!-
                                     0458   265 			DEV$M_AVL!-
                                     0458   266 			DEV$M_MBX!-
                                     0458   267 			DEV$M_ODV!-
                                     0458   268 			DEV$M_SHR>>
                                     0458   269 		STO_UCB	B_DEVCLASS,BYTE,DC$_MAILBOX
                                     0458   270 		STO_UCB	W_DEVBUFSIZ,WORD,256
                                     0458   271 		STO_UCB	W_REFC,WORD,1
                                     0458   272 		STO_UCB	W_UNIT,WORD,0
                                     0458   273 		STO_UCB	W_STS,WORD,UCB$M_ONLINE
                                     0458   274 		STO_UCB	W_DEVSTS,WORD,UCB$M_PRMMBX
                                     0458   275 ;
                                     0458   276 ; SYSTEM JOB CONTROLLER MAILBOX
                                     0458   277 ;
                                     0458   278 SYS$GL_JOBCTLMB::
                           3141424D  0458   279 SYS$C_JOBCTLMB==^A/MBA1/
                                     0458   280 	UCB	 MB$GL_UCB1,0
                                     04CC   281 		STO_UCB L_FQFL,LONG,MB$GL_UCB1
                                     04CC   282 		STO_UCB L_FQFL+4,LONG,MB$GL_UCB1
                                     04CC   283 		STO_UCB	B_FIPL,BYTE,IPL$_MAILBOX
                                     04CC   284 		STO_UCB	B_DIPL,BYTE,IPL$_MAILBOX
                                     04CC   285 		STO_UCB	W_MSGMAX,WORD,20
                                     04CC   286 		STO_UCB	W_BUFQUO,WORD,-1
                                     04CC   287 		STO_UCB	W_VPROT,WORD,<^X0FF0F>
                                     04CC   288 		STO_UCB	L_OWNUIC,LONG,<^X010004>
                                     04CC   289 		STO_UCB	L_CRB,LONG,SYS_CRB
                                     04CC   290 		STO_UCB	L_DDB,LONG,MB$GL_DDB
                                     04CC   291 		STO_UCB	L_LINK,LONG,MB$GL_UCB2
                                     04CC   292 		STO_UCB	L_DEVCHAR,LONG,<<DEV$M_REC!-
                                     04CC   293 			DEV$M_AVL!-
                                     04CC   294 			DEV$M_MBX!-
                                     04CC   295 			DEV$M_IDV!-
DEVICEDAT       - VAX/VMS SYSTEM PERMANENT DEVICE DATABASE       21-AUG-1978 19:40:59   VAX-11 MACRO X0.3-11               Page   8
V07             SYSTEM PERMANENT MAILBOX DATABASE                                                                                (5)

                                     04CC   296 			DEV$M_ODV!-
                                     04CC   297 			DEV$M_SHR>>
                                     04CC   298 		STO_UCB	B_DEVCLASS,BYTE,DC$_MAILBOX
                                     04CC   299 		STO_UCB	W_DEVBUFSIZ,WORD,256
                                     04CC   300 		STO_UCB	W_REFC,WORD,1
                                     04CC   301 		STO_UCB	W_UNIT,WORD,1
                                     04CC   302 		STO_UCB	W_STS,WORD,UCB$M_ONLINE
                                     04CC   303 		STO_UCB	W_DEVSTS,WORD,<UCB$M_PRMMBX+^X08000>
                                     04CC   304 ;
                                     04CC   305 ; SYSTEM OPERATOR MAILBOX
                                     04CC   306 ;
                                     04CC   307 SYS$GL_OPRMBX::
                           3241424D  04CC   308 SYS$C_OPRMBX==^A/MBA2/
                                     04CC   309 	UCB	 MB$GL_UCB2,0
                                     0540   310 		STO_UCB L_FQFL,LONG,MB$GL_UCB2
                                     0540   311 		STO_UCB L_FQFL+4,LONG,MB$GL_UCB2
                                     0540   312 		STO_UCB	B_FIPL,BYTE,IPL$_MAILBOX
                                     0540   313 		STO_UCB	B_DIPL,BYTE,IPL$_MAILBOX
                                     0540   314 		STO_UCB	W_MSGMAX,WORD,20
                                     0540   315 		STO_UCB	W_BUFQUO,WORD,-1
                                     0540   316 		STO_UCB	W_VPROT,WORD,<^X0FF0F>
                                     0540   317 		STO_UCB	L_OWNUIC,LONG,<^X010004>
                                     0540   318 		STO_UCB	L_CRB,LONG,SYS_CRB
                                     0540   319 		STO_UCB	L_DDB,LONG,MB$GL_DDB
                                     0540   320 		STO_UCB	L_DEVCHAR,LONG,<<DEV$M_REC!-
                                     0540   321 			DEV$M_AVL!-
                                     0540   322 			DEV$M_MBX!-
                                     0540   323 			DEV$M_IDV!-
                                     0540   324 			DEV$M_ODV!-
                                     0540   325 			DEV$M_SHR>>
                                     0540   326 		STO_UCB	B_DEVCLASS,BYTE,DC$_MAILBOX
                                     0540   327 		STO_UCB	W_DEVBUFSIZ,WORD,256
                                     0540   328 		STO_UCB	W_REFC,WORD,1
                                     0540   329 		STO_UCB	W_UNIT,WORD,2
                                     0540   330 		STO_UCB	W_STS,WORD,UCB$M_ONLINE
                                     0540   331 		STO_UCB	W_DEVSTS,WORD,UCB$M_PRMMBX
DEVICEDAT       - VAX/VMS SYSTEM PERMANENT DEVICE DATABASE       21-AUG-1978 19:40:59   VAX-11 MACRO X0.3-11               Page   9
V07             NULL DEVICE (NLA) DATABASE                                                                                       (6)

                                     0540   333 	.SBTTL	NULL DEVICE (NLA) DATABASE
                                     0540   334 ;
                                     0540   335 ; NLA DDB
                                     0540   336 ;
                                     0540   337 	DDB	NL$GL_DDB,NET$GL_DDB,NL$GL_UCB0,NL$DDT,,0,<NLA>,<NLDRIVER>
                                     0574   338
                                     0574   339 ;
                                     0574   340 ; NL UCB FOR UNIT 0
                                     0574   341 ;
                                     0574   342 	UCB	 NL$GL_UCB0,0
                                     05E8   343 		STO_UCB	B_FIPL,BYTE,8
                                     05E8   344 		STO_UCB	B_DIPL,BYTE,8
                                     05E8   345 		STO_UCB	L_OWNUIC,LONG,<^X010001>
                                     05E8   346 		STO_UCB	L_CRB,LONG,SYS_CRB
                                     05E8   347 		STO_UCB	L_DDB,LONG,NL$GL_DDB
                                     05E8   348 		STO_UCB	L_DEVCHAR,LONG,<<DEV$M_REC!-
                                     05E8   349 			DEV$M_AVL!-
                                     05E8   350 			DEV$M_MBX!-
                                     05E8   351 			DEV$M_IDV!-
                                     05E8   352 			DEV$M_ODV!-
                                     05E8   353 			DEV$M_SHR>>
                                     05E8   354 		STO_UCB	B_DEVCLASS,BYTE,DC$_MAILBOX
                                     05E8   355 		STO_UCB	W_DEVBUFSIZ,WORD,132
                                     05E8   356 		STO_UCB	W_REFC,WORD,1
                                     05E8   357 		STO_UCB	W_UNIT,WORD,0
                                     05E8   358 		STO_UCB	W_STS,WORD,UCB$M_ONLINE
DEVICEDAT       - VAX/VMS SYSTEM PERMANENT DEVICE DATABASE       21-AUG-1978 19:40:59   VAX-11 MACRO X0.3-11               Page  10
V07             NETWORK DEVICE DATABASE                                                                                          (7)

                                     05E8   360 	.SBTTL	NETWORK DEVICE DATABASE
                                     05E8   361 ;
                                     05E8   362 ; NETWORK DEVICE DATA BLOCK
                                     05E8   363 ;
                                     05E8   364 	DDB	NET$GL_DDB,0,NET$GL_UCB0,NET$DDT,<NET>,0,<NET>,<NETDRIVER>
                           000005FC  061C   365 NET$NAME== NET$GL_DDB+DDB$T_NAME
                                     061C   366 ;
                                     061C   367 ; NET UCB
                                     061C   368 ;
                               0000  061C   369 	.WORD	0			; NETWORK UNIT NUMBER SEED
                               0000  061E   370 	.WORD	0			; SPARE UNUSED WORD
                                     0620   371 NET$UCB0::
                                     0620   372 	UCB	 NET$GL_UCB0,3
                                     06A0   373 		STO_UCB	B_FIPL,BYTE,8
                                     06A0   374 		STO_UCB	L_OWNUIC,LONG,<^X010001>
                                     06A0   375 		STO_UCB	L_CRB,LONG,SYS_CRB
                                     06A0   376 		STO_UCB	L_DDB,LONG,NET$GL_DDB
                                     06A0   377 		STO_UCB	L_DEVCHAR,LONG,<<-
                                     06A0   378 			DEV$M_AVL!-
                                     06A0   379 			DEV$M_MBX!-
                                     06A0   380 			DEV$M_IDV!-
                                     06A0   381 			DEV$M_ODV!-
                                     06A0   382 			DEV$M_NET>>
                                     06A0   383 		STO_UCB	W_REFC,WORD,1
                                     06A0   384 		STO_UCB	W_STS,WORD,UCB$M_ONLINE
                                     06A0   385 ;
                                     06A0   386 ; NETWORK WINDOW CONTROL BLOCK - SHARED BY ALL UCB'S
                                     06A0   387 ;
                                     06A0   388 NET$WCB::
                           00000000  06A0   389 	.LONG	0			; WLFL
                           00000000  06A4   390 	.LONG	0			; WLBL
                               0024' 06A8   391 	.WORD	10$-NET$WCB		; SIZE
                                 12' 06AA   392 	.BYTE	DYN$C_WCB		; CALL IT A WCB
                                 00  06AB   393 	.BYTE	0			; ACCESS BITS
                           00000000  06AC   394 	.LONG	0			; ORGUCB
                           00000000  06B0   395 	.LONG	0			; PID
                           00000000  06B4   396 	.LONG	0			; ACON AND NMAP
                           00000000  06B8   397 	.LONG	0			; FCB
                           00000000  06BC   398 	.LONG	0			; RVT
                           00000000  06C0   399 	.LONG	0			; STVBN
                                     06C4   400 10$:
                                     06C4   401
                                     06C4   402 ;
                                     06C4   403 ; COMMON CRB FOR MAILBOX TYPE DEVICES
                                     06C4   404 ;
                                     06C4   405 SYS_CRB:				;
                  00000000 00000000  06C4   406 	.LONG	0,0			; CRB LIST HEAD
                               0038' 06CC   407 	.WORD	10$-SYS_CRB		; SIZE
                                 05' 06CE   408 	.BYTE	DYN$C_CRB		; TYPE
                                 00  06CF   409 	.BYTE	0			; SPARE BYTE
                           00000000  06D0   410 	.LONG	0			; REF COUNT
                           00000000  06D4   411 	.LONG	0			; NO NEXT CRB
                  00000000 00000000  06D8   412 	.LONG	0,0			; NO INTERRUPT VECTOR
                           000006C4' 06E0   413 	.LONG	SYS_CRB			; POINTER TO FAKE IDB
00000000 00000000 00000000 00000000  06E4   414 	.LONG	0,0,0,0,0,0		; NO INITIALIZATION FOR CONTROLLER OR UNIT
                  00000000 00000000  06F4
                                     06FC   415 10$:
DEVICEDAT       - VAX/VMS SYSTEM PERMANENT DEVICE DATABASE       21-AUG-1978 19:40:59   VAX-11 MACRO X0.3-11               Page  11
V07             NETWORK DEVICE DATABASE                                                                                          (7)

                                     06FC   416 	.END
DEVICEDAT       - VAX/VMS SYSTEM PERMANENT DEVICE DATABASE       21-AUG-1978 19:40:59   VAX-11 MACRO X0.3-11               Page  12
SYMBOL TABLE                                                                                                                     (7)

AT$_MBA        = 00000000            DEV$M_MNT      = 00080000            DT$_TU77       = 00000003
AT$_UBA        = 00000001            DEV$M_NET      = 00002000            DT$_VT05       = 00000001
BIT...         = 00000008            DEV$M_ODV      = 08000000            DT$_VT52       = 00000040
CD               00000234 R     03   DEV$M_RCK      = 40000000            DT$_VT55       = 00000041
CON$DISCON       ********   X   03   DEV$M_REC      = 00000001            DT$_VT5X       = 00000040
CON$INITIAL      ********   X   03   DEV$M_RND      = 10000000            DT$_XM_ALMA    = 00000009
CON$INITLINE     ********   X   03   DEV$M_RTM      = 20000000            DT$_XM_ALMD    = 0000000A
CON$INTDISI      00000204 RG    03   DEV$M_SDI      = 00000010            DT$_XM_ARDA    = 00000001
CON$INTDISO      00000228 RG    03   DEV$M_SHR      = 00010000            DT$_XM_ARFA    = 00000002
CON$INTINP       ********   X   03   DEV$M_SPL      = 00000040            DXP$DDT          ********   X   03
CON$INTOUT       ********   X   03   DEV$M_SQD      = 00000020            DXP$GL_DDB       00000250 RG    03
CON$STARTIO      ********   X   03   DEV$M_SWL      = 02000000            DXP$UCB0         00000284 RG    03
CRB$B_MASK       0000000E            DEV$M_TRM      = 00000004            DYN$C_ACB      = 00000002
CRB$B_TT_ATTN    00000004            DEV$M_WCK      = 80000000            DYN$C_ADP      = 00000001
CRB$B_TT_EXPEC   00000005            DEV$V_ALL      = 00000017            DYN$C_AQB      = 00000003
CRB$B_TYPE       0000000A            DEV$V_AVL      = 00000012            DYN$C_BRDCST   = 0000001A
CRB$C_LENGTH     00000038            DEV$V_CCL      = 00000001            DYN$C_BUFIO    = 00000013
CRB$K_LENGTH     00000038            DEV$V_DIR      = 00000003            DYN$C_CEB      = 00000004
CRB$L_INTD       00000014            DEV$V_DMT      = 00000015            DYN$C_CRB      = 00000005
CRB$L_INTD2      00000038            DEV$V_ELG      = 00000016            DYN$C_CXB      = 0000001B
CRB$L_LINK       00000010            DEV$V_FOD      = 0000000E            DYN$C_DDB      = 00000006
CRB$L_TT_DIAL    00000000            DEV$V_FOR      = 00000018            DYN$C_DPT      = 0000001E
CRB$L_WQBL       00000004            DEV$V_GEN      = 00000011            DYN$C_FCB      = 00000007
CRB$L_WQFL       00000000            DEV$V_IDV      = 0000001A            DYN$C_FRK      = 00000008
CRB$M_BSY      = 00000001            DEV$V_MBX      = 00000014            DYN$C_GSD      = 00000015
CRB$V_BSY      = 00000000            DEV$V_MNT      = 00000013            DYN$C_IDB      = 00000009
CRB$W_REFC       0000000C            DEV$V_NET      = 0000000D            DYN$C_IRP      = 0000000A
CRB$W_SIZE       00000008            DEV$V_ODV      = 0000001B            DYN$C_JPB      = 0000001F
DC$_CARD       = 00000041            DEV$V_RCK      = 0000001E            DYN$C_KFH      = 00000026
DC$_DISK       = 00000001            DEV$V_REC      = 00000000            DYN$C_KFI      = 00000018
DC$_LP         = 00000043            DEV$V_RND      = 0000001C            DYN$C_LOG      = 0000000B
DC$_MAILBOX    = 000000A0            DEV$V_RTM      = 0000001D            DYN$C_MTL      = 00000019
DC$_SCOM       = 00000020            DEV$V_SDI      = 00000004            DYN$C_MVL      = 00000016
DC$_TAPE       = 00000002            DEV$V_SHR      = 00000010            DYN$C_NDB      = 0000001C
DC$_TERM       = 00000042            DEV$V_SPL      = 00000006            DYN$C_NET      = 00000017
DDB$B_ACPCLASS   00000013            DEV$V_SQD      = 00000005            DYN$C_PBH      = 00000020
DDB$B_TYPE       0000000A            DEV$V_SWL      = 00000019            DYN$C_PCB      = 0000000C
DDB$C_LENGTH     00000034            DEV$V_TRM      = 00000002            DYN$C_PDB      = 00000021
DDB$K_LENGTH     00000034            DEV$V_WCK      = 0000001F            DYN$C_PFL      = 00000023
DDB$L_ACPD       00000010            DT$_CR11       = 00000001            DYN$C_PIB      = 00000022
DDB$L_DDT        0000000C            DT$_LA11       = 00000002            DYN$C_PQB      = 0000000D
DDB$L_LINK       00000000            DT$_LA180      = 00000003            DYN$C_PTR      = 00000025
DDB$L_UCB        00000004            DT$_LA36       = 00000020            DYN$C_RVT      = 0000000E
DDB$T_DRVNAME    00000024            DT$_LAX        = 00000020            DYN$C_SFT      = 00000024
DDB$T_NAME       00000014            DT$_LP11       = 00000001            DYN$C_SSB      = 0000001D
DDB$W_SIZE       00000008            DT$_MBX        = 00000001            DYN$C_TQE      = 0000000F
DEV$M_ALL      = 00800000            DT$_RK06       = 00000001            DYN$C_TYPAHD   = 00000014
DEV$M_AVL      = 00040000            DT$_RK07       = 00000002            DYN$C_UCB      = 00000010
DEV$M_CCL      = 00000002            DT$_RM03       = 00000006            DYN$C_VCB      = 00000011
DEV$M_DIR      = 00000008            DT$_RP04       = 00000003            DYN$C_WCB      = 00000012
DEV$M_DMT      = 00200000            DT$_RP05       = 00000004            GBL...         = 00000000
DEV$M_ELG      = 00400000            DT$_RP06       = 00000005            ID               00000250 R     03
DEV$M_FOD      = 00004000            DT$_RP07       = 00000007            IDB$B_TYPE       0000000A
DEV$M_FOR      = 01000000            DT$_RP07HT     = 00000008            IDB$B_UNITS      0000000B
DEV$M_GEN      = 00020000            DT$_TE16       = 00000001            IDB$C_LENGTH     00000030
DEV$M_IDV      = 04000000            DT$_TTYUNKN    = 00000000            IDB$K_LENGTH     00000030
DEV$M_MBX      = 00100000            DT$_TU45       = 00000002            IDB$L_ADP        0000000C
DEVICEDAT       - VAX/VMS SYSTEM PERMANENT DEVICE DATABASE       21-AUG-1978 19:40:59   VAX-11 MACRO X0.3-11               Page  13
SYMBOL TABLE                                                                                                                     (7)

IDB$L_CSR        00000000            TT$M_ALTRPAR   = 00000020            UCB$B_CM2        0000004B
IDB$L_OWNER      00000004            TT$M_CRFILL    = 00000400            UCB$B_DEVCLASS   00000038
IDB$L_UCBLST     00000010            TT$M_EIGHTBIT  = 00008000            UCB$B_DEVTYPE    00000039
IDB$W_SIZE       00000008            TT$M_ESCAPE    = 00000008            UCB$B_DIPL       00000052
IOC$GL_ADPLIST   00000004 RG    03   TT$M_HOLDSCREEN= 00004000            UCB$B_DX_SCTCNT  000000A6
IOC$GL_DEVLIST   00000000 RG    03   TT$M_HOSTSYNC  = 00000010            UCB$B_ERTCNT     00000070
IOC$GL_DPTLIST   00000008 RG    03   TT$M_LFFILL    = 00000800            UCB$B_ERTMAX     00000071
IPL$_ASTDEL    = 00000002            TT$M_LOWER     = 00000080            UCB$B_ESCAPE     0000004B
IPL$_HWCLK     = 00000018            TT$M_MBXDSABL  = 00010000            UCB$B_FEX        00000076
IPL$_IOPOST    = 00000004            TT$M_MECHTAB   = 00000100            UCB$B_FIPL       0000000B
IPL$_MAILBOX   = 0000000B            TT$M_NOBRDCST  = 00020000            UCB$B_LOCSRV     0000003C
IPL$_POWER     = 0000001F            TT$M_NOECHO    = 00000002            UCB$B_OFFNDX     00000094
IPL$_QUEUEAST  = 00000006            TT$M_NOTYPEAHD = 00000004            UCB$B_OFFRTC     00000095
IPL$_SCHED     = 00000003            TT$M_ODD       = 00000080            UCB$B_REMSRV     0000003D
IPL$_SYNCH     = 00000007            TT$M_PAGE      = FE000000            UCB$B_SECTORS    0000003C
IPL$_TIMER     = 00000007            TT$M_PARITY    = 00000040            UCB$B_SLAVE      00000074
MB$DDT           ********   X   03   TT$M_PASSALL   = 00000001            UCB$B_SPR        00000075
MB$GL_DDB        000003AC RG    03   TT$M_READSYNC  = 00040000            UCB$B_STATE      00000052
MB$GL_UCB1       00000458 RG    03   TT$M_REMOTE    = 00002000            UCB$B_TRACKS     0000003D
MB$GL_UCB2       000004CC RG    03   TT$M_SCOPE     = 00001000            UCB$B_TT_BRDPT   00000098
MB$UCB0          000003E4 RG    03   TT$M_SCRIPT    = 00000040            UCB$B_TT_CRFILL  0000009D
NET$DDT          ********   X   03   TT$M_TTSYNC    = 00000020            UCB$B_TT_DECRF   000000A1
NET$GL_DDB       000005E8 RG    03   TT$M_WRAP      = 00000200            UCB$B_TT_DELFF   000000A2
NET$GL_UCB0      00000620 RG    03   TT$S_PAGE      = 00000008            UCB$B_TT_DESPEE  000000A0
NET$NAME       = 000005FC RG    03   TT$V_ALTRPAR   = 00000005            UCB$B_TT_DETYPE  000000A4
NET$UCB0         00000620 RG    03   TT$V_CRFILL    = 0000000A            UCB$B_TT_DIAL    00000096
NET$WCB          000006A0 RG    03   TT$V_EIGHTBIT  = 0000000F            UCB$B_TT_ESC     00000095
NL$DDT           ********   X   03   TT$V_ESCAPE    = 00000003            UCB$B_TT_ESC_O   00000099
NL$GL_DDB        00000540 RG    03   TT$V_HOLDSCREEN= 0000000E            UCB$B_TT_FILL    00000097
NL$GL_UCB0       00000574 RG    03   TT$V_HOSTSYNC  = 00000004            UCB$B_TT_LFFILL  0000009E
OPA$CRB          000001F0 R     03   TT$V_LFFILL    = 0000000B            UCB$B_TT_LINE    00000094
OPA$GL_DDB       00000110 RG    03   TT$V_LOWER     = 00000007            UCB$B_TT_SPEED   0000009C
OPA$IDB          00000234 R     03   TT$V_MBXDSABL  = 00000010            UCB$B_TYPE       0000000A
OPA$UCB0         00000144 RG    03   TT$V_MECHTAB   = 00000008            UCB$B_VERTSZ     0000003F
SYS$C_JOBCTLMB = 3141424D  G         TT$V_NOBRDCST  = 00000011            UCB$C_LENGTH     00000074
SYS$C_OPRMBX   = 3241424D  G         TT$V_NOECHO    = 00000001            UCB$C_LOGLNK   = 00000001
SYS$GL_BOOTDDB   00000010 RG    03   TT$V_NOTYPEAHD = 00000002            UCB$K_LENGTH     00000074
SYS$GL_BOOTUCB   00000044 RG    03   TT$V_ODD       = 00000007            UCB$L_AMB        00000054
SYS$GL_JOBCTLMB  00000458 RG    03   TT$V_PAGE      = 00000019            UCB$L_ASTQBL     00000010
SYS$GL_OPRMBX    000004CC RG    03   TT$V_PARITY    = 00000006            UCB$L_ASTQFL     0000000C
SYS_CRB          000006C4 R     03   TT$V_PASSALL   = 00000000            UCB$L_CPID       0000005C
TT$C_BAUD_110  = 00000003            TT$V_READSYNC  = 00000012            UCB$L_CRB        00000020
TT$C_BAUD_1200 = 00000008            TT$V_REMOTE    = 0000000D            UCB$L_DDB        00000024
TT$C_BAUD_134  = 00000004            TT$V_SCOPE     = 0000000C            UCB$L_DEVCHAR    00000034
TT$C_BAUD_150  = 00000005            TT$V_SCRIPT    = 00000006            UCB$L_DEVDEPEND  0000003C
TT$C_BAUD_1800 = 00000009            TT$V_TTSYNC    = 00000005            UCB$L_DPC        00000080
TT$C_BAUD_2000 = 0000000A            TT$V_WRAP      = 00000009            UCB$L_DUETIM     0000005C
TT$C_BAUD_2400 = 0000000B            TT$_LA36       = 00000020            UCB$L_DX_BFPNT   0000009C
TT$C_BAUD_300  = 00000006            TT$_LAX        = 00000020            UCB$L_DX_BUF     00000098
TT$C_BAUD_3600 = 0000000C            TT$_UNKNOWN    = 00000000            UCB$L_DX_RXDB    000000A0
TT$C_BAUD_4800 = 0000000D            TT$_VT05       = 00000001            UCB$L_EMB        00000078
TT$C_BAUD_50   = 00000001            TT$_VT52       = 00000040            UCB$L_FIRST      00000014
TT$C_BAUD_600  = 00000007            TT$_VT55       = 00000041            UCB$L_FPC        0000000C
TT$C_BAUD_7200 = 0000000E            TT$_VT5X       = 00000040            UCB$L_FQBL       00000004
TT$C_BAUD_75   = 00000002            UCB$B_AMOD       00000053            UCB$L_FQFL       00000000
TT$C_BAUD_9600 = 0000000F            UCB$B_CEX        00000077            UCB$L_FR3        00000010
TT$DDT           ********   X   03   UCB$B_CM1        0000004A            UCB$L_FR4        00000014
DEVICEDAT       - VAX/VMS SYSTEM PERMANENT DEVICE DATABASE       21-AUG-1978 19:40:59   VAX-11 MACRO X0.3-11               Page  14
SYMBOL TABLE                                                                                                                     (7)

UCB$L_IOQBL      00000044            UCB$S_TT_ODD   = 00000001            UCB$W_MSGCNT     00000016
UCB$L_IOQFL      00000040            UCB$S_TT_PARTY = 00000001            UCB$W_MSGMAX     00000014
UCB$L_IRP        0000004C            UCB$S_TT_SPEED = 00000006            UCB$W_NT_CHAN    0000007C
UCB$L_LINK       0000002C            UCB$T_PARTNER    0000000C            UCB$W_OFFSET     0000008A
UCB$L_LOGADR     00000064            UCB$V_BACKP    = 00000005            UCB$W_REFC       00000050
UCB$L_MAXBLOCK   00000084            UCB$V_BSY      = 00000008            UCB$W_SIZE       00000008
UCB$L_MEDIA      0000008C            UCB$V_CANCEL   = 00000003            UCB$W_SRCADDR    0000001A
UCB$L_NT_DATSSB  00000074            UCB$V_DEADMO   = 0000000A            UCB$W_STS        00000058
UCB$L_NT_INTSSB  00000078            UCB$V_DELMBX   = 00000001            UCB$W_TT_CURSOR  0000009A
UCB$L_OPCNT      00000060            UCB$V_DIAGBUF  = 00000001            UCB$W_TT_DESIZE  000000A5
UCB$L_OWNUIC     0000001C            UCB$V_DX_WRITE = 00000003            UCB$W_TT_HOLD    00000090
UCB$L_PID        00000028            UCB$V_ECC      = 00000000            UCB$W_TT_INAHD   00000092
UCB$L_RQBL       00000004            UCB$V_ERLOGIP  = 00000002            UCB$W_UNIT       00000048
UCB$L_RQFL       00000000            UCB$V_INT      = 00000001            UCB$W_VPROT      0000001A
UCB$L_SVAPTE     00000068            UCB$V_INTTYPE  = 00000007            UCBASE         = 00000620 R     03
UCB$L_SVPN       00000064            UCB$V_JOB      = 00000000            VEC$B_DATAPATH   00000013
UCB$L_TTCHAR     0000003C            UCB$V_LNKPRI   = 00000006            VEC$B_NUMREG     00000012
UCB$L_TT_BRDCST  00000084            UCB$V_LTYPE    = 00000000            VEC$C_LENGTH     00000024
UCB$L_TT_CTRLC   00000080            UCB$V_MOUNTING = 00000009            VEC$K_LENGTH     00000024
UCB$L_TT_CTRLY   0000007C            UCB$V_MSGACK   = 00000004            VEC$L_ADP        00000014
UCB$L_TT_DECHAR  000000A8            UCB$V_MSGFLO   = 00000003            VEC$L_IDB        00000008
UCB$L_TT_MULTI   00000078            UCB$V_NOCNVRT  = 00000002            VEC$L_INITIAL    0000000C
UCB$L_TT_RDUE    0000008C            UCB$V_NT_BFROVF= 00000002            VEC$L_START      0000001C
UCB$L_TT_STATE   00000074            UCB$V_NT_BREAK = 00000005            VEC$L_UNITDISC   00000020
UCB$L_TT_TYPAHD  00000088            UCB$V_NT_NAME  = 00000004            VEC$L_UNITINIT   00000018
UCB$L_VCB        00000030            UCB$V_ONLINE   = 00000004            VEC$M_MAPLOCK  = 00008000
UCB$M_BACKP    = 00000020            UCB$V_POWER    = 00000005            VEC$M_PATHLOCK = 00000080
UCB$M_BSY      = 00000100            UCB$V_PRMMBX   = 00000000            VEC$Q_DISPATCH   00000000
UCB$M_CANCEL   = 00000008            UCB$V_SEGFLO   = 00000002            VEC$S_DATAPATH = 00000007
UCB$M_DEADMO   = 00000400            UCB$V_TIM      = 00000000            VEC$S_MAPREG   = 0000000F
UCB$M_DELMBX   = 00000002            UCB$V_TIMOUT   = 00000006            VEC$V_DATAPATH = 00000000
UCB$M_DIAGBUF  = 00000002            UCB$V_TT_NOTIF = 00000002            VEC$V_MAPLOCK  = 0000000F
UCB$M_DX_WRITE = 00000008            UCB$V_TT_ODD   = 00000007            VEC$V_MAPREG   = 00000000
UCB$M_ECC      = 00000001            UCB$V_TT_PARTY = 00000006            VEC$V_PATHLOCK = 00000007
UCB$M_ERLOGIP  = 00000004            UCB$V_TT_SPEED = 00000000            VEC$W_MAPREG     00000010
UCB$M_INT      = 00000002            UCB$V_TT_TIMO  = 00000001            X              = 000006A0 R     03
UCB$M_INTTYPE  = 00000080            UCB$V_UNLOAD   = 0000000C
UCB$M_JOB      = 00000001            UCB$V_VALID    = 0000000B
UCB$M_MOUNTING = 00000200            UCB$W_BCNT       0000006E
UCB$M_NOCNVRT  = 00000004            UCB$W_BCR        00000096
UCB$M_NT_BFROVF= 00000004            UCB$W_BOFF       0000006C
UCB$M_NT_BREAK = 00000020            UCB$W_BUFQUO     00000018
UCB$M_NT_NAME  = 00000010            UCB$W_BYTESTOGO  0000003E
UCB$M_ONLINE   = 00000010            UCB$W_CHARGE     0000004A
UCB$M_POWER    = 00000020            UCB$W_CYLINDERS  0000003E
UCB$M_PRMMBX   = 00000001            UCB$W_DA         0000008C
UCB$M_TIM      = 00000001            UCB$W_DC         0000008E
UCB$M_TIMOUT   = 00000040            UCB$W_DEVBUFSIZ  0000003A
UCB$M_TT_NOTIF = 00000004            UCB$W_DEVSTS     0000005A
UCB$M_TT_ODD   = 00000080            UCB$W_DIRSEQ     00000088
UCB$M_TT_PARTY = 00000040            UCB$W_DSTADDR    00000018
UCB$M_TT_SPEED = 0000003F            UCB$W_DX_BCR     000000A4
UCB$M_TT_TIMO  = 00000002            UCB$W_EC1        00000090
UCB$M_UNLOAD   = 00001000            UCB$W_EC2        00000092
UCB$M_VALID    = 00000800            UCB$W_ERRCNT     00000072
UCB$S_LNKPRI   = 00000002            UCB$W_FUNC       0000007E
UCB$S_LTYPE    = 00000002            UCB$W_MB_SEED    FFFFFFFC
DEVICEDAT       - VAX/VMS SYSTEM PERMANENT DEVICE DATABASE       21-AUG-1978 19:40:59   VAX-11 MACRO X0.3-11               Page  15
PROGRAM SECTION SYNOPSIS                                                                                                         (7)


PROGRAM SECTION SYNOPSIS

.  ABS  .        00000000      00     NOPIC   USR   CON   ABS   LCL NOSHR NOEXE NORD  NOWRT BYTE
. BLANK .        00000000      01     NOPIC   USR   CON   REL   LCL NOSHR   EXE   RD    WRT BYTE
$ABS$            FFFFFFFE      02     NOPIC   USR   CON   ABS   LCL NOSHR   EXE   RD    WRT BYTE
$$$100           000006FC      03     NOPIC   USR   CON   REL   LCL NOSHR   EXE   RD    WRT QUAD


THERE WERE NO ERRORS OR WARNINGS.
12020. BYTES LEFT IN FREE MEMORY POOL.
3016. BYTES OF RECLAIMED MEMORY.
OBJ$:DEVICEDAT,LIS$:DEVICEDAT/-SP=EXECML$/ML,SRC$:DEVICEDAT
5 MLB DIR RDS - 720 GETS TO DEFINE 20 MACROS. 62 INTER. FILE WRITES.
