EXSUBROUT       - EXECUTIVE SUPPORT SUBROUTINES                  21-AUG-1978 19:45:52   VAX-11 MACRO X0.3-11               Page   0
TABLE OF CONTENTS

   (1)      41  CHECK PROCESS RESOURCE REQUEST
   (1)     111  GET PROTECTION MASK ACCORDING TO UIC ACCESS
   (1)     168  CHECK ACCESS PROTECTION
   (1)     217  INSERT ENTRY IN TIME DEPENDENT SCHEDULER QUEUE
   (1)     256  MAXIMIZE ACCESS MODE
   (1)     283  REMOVE ENTRY FROM TIME DEPENDENT SCHEDULER QUEU
EXSUBROUT       - EXECUTIVE SUPPORT SUBROUTINES                  21-AUG-1978 19:45:52   VAX-11 MACRO X0.3-11               Page   1
01                                                                                                                               (1)

                                     0000     1 	.TITLE	EXSUBROUT - EXECUTIVE SUPPORT SUBROUTINES
                                     0000     2 	.IDENT	/01/
                                     0000     3
                                     0000     4 ;
                                     0000     5 ; COPYRIGHT (C) 1977
                                     0000     6 ; DIGITAL EQUIPMENT CORPORATION, MAYNARD, MASS.
                                     0000     7 ;
                                     0000     8 ; THIS SOFTWARE IS FURNISHED UNDER  A LICENSE FOR USE ONLY  ON  A
                                     0000     9 ; SINGLE COMPUTER SYSTEM AND MAY BE  COPIED ONLY WITH  THE INCLU-
                                     0000    10 ; SION OF  THE  ABOVE  COPYRIGHT NOTICE.  THIS SOFTWARE,  OR  ANY
                                     0000    11 ; OTHER COPIES THEREOF, MAY NOT BE  PROVIDED  OR  OTHERWISE  MADE
                                     0000    12 ; AVAILABLE TO ANY OTHER PERSON EXCEPT  FOR  USE  ON  SUCH SYSTEM
                                     0000    13 ; AND TO  ONE WHO AGREES  TO  THESE LICENSE  TERMS.  TITLE TO AND
                                     0000    14 ; OWNERSHIP OF THE SOFTWARE SHALL AT ALL TIMES REMAIN IN DEC.
                                     0000    15 ;
                                     0000    16 ; THE INFORMATION IN THIS SOFTWARE  IS  SUBJECT TO CHANGE WITHOUT
                                     0000    17 ; NOTICE AND SHOULD NOT BE CONSTRUED  AS  A COMMITMENT BY DIGITAL
                                     0000    18 ; EQUIPMENT CORPORATION.
                                     0000    19 ;
                                     0000    20 ; DEC ASSUMES NO RESPONSIBILITY FOR THE USE OR RELIABILITY OF ITS
                                     0000    21 ; SOFTWARE ON EQUIPMENT WHICH IS NOT SUPPLIED BY DEC.
                                     0000    22 ;
                                     0000    23 ; D. N. CUTLER 17-AUG-76
                                     0000    24 ;
                                     0000    25 ; MODIFIED BY R.HEINEN 22-SEPT-76
                                     0000    26 ;
                                     0000    27 ; EXECUTIVE SUPPORT SUBROUTINES
                                     0000    28 ;
                                     0000    29 ; MACRO LIBRARY CALLS
                                     0000    30 ;
                                     0000    31
                                     0000    32 	$ACBDEF				;DEFINE ACB OFFSETS
                                     0000    33 	$IPLDEF				;DEFINE PRIORITY LEVELS
                                     0000    34 	$PCBDEF				;DEFINE PCB OFFSETS
                                     0000    35 	$PRDEF				;DEFINE PROCESSOR REGISTERS
                                     0000    36 	$PSLDEF				;DEFINE PROCESSOR STATUS FIELDS
                                     0000    37 	$RSNDEF				;DEFINE RESOURCE WAIT NUMBERS
                                     0000    38 	$SSDEF				;DEFINE SYSTEM STATUS VALUES
                                     0000    39 	$TQEDEF				;DEFINE TQE OFFSETS
EXSUBROUT       - EXECUTIVE SUPPORT SUBROUTINES                  21-AUG-1978 19:45:52   VAX-11 MACRO X0.3-11               Page   2
01              CHECK PROCESS RESOURCE REQUEST                                                                                   (1)

                                     0000    41 	.SBTTL	CHECK PROCESS RESOURCE REQUEST
                                     0000    42
                                     0000    43 	.ENABL	LSB
                                     0000    44 ;+
                                     0000    45 ; EXE$BUFFRQUOTA - CHECK BUFFER BYTE COUNT QUOTA AND CONDITIONALLY WAIT
                                     0000    46 ; EXE$BUFQUOPRC - CHECK PROCESS BUFFER QUOTA ONLY AND CONDITIONALLY WAIT
                                     0000    47 ; EXE$MULTIQUOTA - CHECK MULTI-UNIT RESOURCE REQUEST AND CONDITIONALLY WAIT
                                     0000    48 ; EXE$SNGLEQUOTA - CHECK SINGLE-UNIT RESOURCE REQUEST AND CONDITIONALLY WAIT
                                     0000    49 ;
                                     0000    50 ; THESE ROUTINES ARE CALLED TO CHECK IF A PROCESS HAS SUFFICIENT RESIDUAL
                                     0000    51 ; QUOTA TO GRANT A RESOURCE. IF SUFFICIENT QUOTA IS NOT AVAILABLE AND THE
                                     0000    52 ; PROCESS IS ENABLED FOR IMPLIED RESOURCE WAIT, THEN THE PROCESS IS ENTERED
                                     0000    53 ; IN A WAIT STATE TO WAIT FOR SUFFICIENT QUOTA TO BECOME AVAILABLE.
                                     0000    54 ;
                                     0000    55 ; INPUTS:
                                     0000    56 ;
                                     0000    57 ;	R4 = CURRENT PROCESS PCB ADDRESS.
                                     0000    58 ;
                                     0000    59 ; IF ENTRY AT EXE$BUFFRQUOTA OR EXE$MULTIQUOTA, THEN
                                     0000    60 ;
                                     0000    61 ;	R1 = NUMBER OF UNITS OF RESOURCE REQUESTED.
                                     0000    62 ;
                                     0000    63 ; IF ENTRY AT EXE$MULTIQUOTA OR EXE$SNGLEQUOTA, THEN
                                     0000    64 ;
                                     0000    65 ;	R2 = ADDRESS OF QUOTA WORD CONTAINING REMAINING UNITS FOR SPECIFIED
                                     0000    66 ;		RESOURCE.
                                     0000    67 ; OUTPUTS:
                                     0000    68 ;
                                     0000    69 ;	R0 LOW BIT CLEAR INDICATES CHECK FAILURE WITH CALLING IPL PRESERVED.
                                     0000    70 ;
                                     0000    71 ;		R0 = SS$_EXQUOTA = QUOTA EXCEEDED OR REQUEST GREATER THAN
                                     0000    72 ;			MAXIMUM PROCESS OR SYSTEM QUOTA.
                                     0000    73 ;
                                     0000    74 ;	R0 LOW BIT SET INDICATES SUCCESS WITH IPL SET TO AST DELIVERY
                                     0000    75 ;		LEVEL.
                                     0000    76 ;
                                     0000    77 ;		R0 = SS$_NORMAL = NORMAL COMPLETION.
                                     0000    78 ;
                                     0000    79 ;	R1 IS PRESERVED ACROSS CALL.
                                     0000    80 ;-
                                     0000    81
                                 00000000    82 	.PSECT	AEXENONPAGED
                                     0000    83 EXE$BUFFRQUOTA::			;CHECK BUFFER BYTE COUNT QUOTA
   00000000'EF            51     B1  0000    84 	CMPW	R1,IOC$GW_MAXBUF	;REQUEST GREATER THAN SYSTEM MAXIMUM?
                          0A     1A  0007    85 	BGTRU	10$			;IF GTRU YES
                                     0009    86 EXE$BUFQUOPRC::				;CHECK PROCESS BUFFER QUOTA ONLY
            52         42 A4     DE  0009    87 	MOVAL	PCB$W_BYTCNT(R4),R2	;SET ADDRESS OF BYTE COUNT QUOTA WORD
         68 A4            51     B1  000D    88 	CMPW	R1,PCB$W_BYTLM(R4)	;REQUEST GREATER THAN PROCESS MAXIMUM?
                          07     1B  0011    89 	BLEQU	EXE$MULTIQUOTA		;IF LEQU NO
            50            1C     3C  0013    90 10$:	MOVZWL	#SS$_EXQUOTA,R0		;SET QUOTA EXCEEDED
                                 05  0016    91 	RSB				;
                                     0017    92 EXE$SNGLEQUOTA::			;CHECK SINGLE-UNIT RESOURCE REQUEST
            51            01     D0  0017    93 	MOVL	#1,R1			;SET NUMBER OF UNITS OF RESOURCE REQUESTED
                                     001A    94 EXE$MULTIQUOTA::			;CHECK MULTI-UNIT RESOURCE REQUEST
                          7E     DC  001A    95 15$:	MOVPSL	-(SP)			;READ CURRENT PSL
                                     001C    96 	DSBINT	#IPL$_SYNCH,R3		;SYNCHRONIZE ACCESS TO SYSTEM DATA BASE
            50            1C     3C  0022    97 	MOVZWL	#SS$_EXQUOTA,R0		;ASSUME QUOTA EXCEEDED
EXSUBROUT       - EXECUTIVE SUPPORT SUBROUTINES                  21-AUG-1978 19:45:52   VAX-11 MACRO X0.3-11               Page   3
01              CHECK PROCESS RESOURCE REQUEST                                                                                   (1)

            62            51     B1  0025    98 	CMPW	R1,(R2)			;ENOUGH RESOURCE UNITS REMAINING?
                          0C     1A  0028    99 	BGTRU	30$			;IF GTRU NO
            50            01     3C  002A   100 	MOVZWL	#SS$_NORMAL,R0		;SET NORMAL COMPLETION
            53            02     D0  002D   101 	MOVL	#IPL$_ASTDEL,R3		;SET TO RAISE TO AST DELIVERY LEVEL
                          8E     D5  0030   102 20$:	TSTL	(SP)+			;REMOVE PSL FROM STACK
                                     0032   103 	ENBINT	R3			;ALLOW INTERRUPTS
                                 05  0035   104 	RSB				;
         28 A4            0A     E0  0036   105 30$:	BBS	#PCB$V_SSRWAIT,PCB$L_STS(R4),20$ ;IF SET, NO WAIT
                          F5         003A
            50            01     3C  003B   106 	MOVZWL	#RSN$_ASTWAIT,R0	;SET AST WAIT RESOURCE NUMBER
                          FFBF'  30  003E   107 	BSBW	SCH$RWAIT		;WAIT FOR AST
                          D7     11  0041   108 	BRB	15$			;
                                     0043   109 	.DSABL	LSB
EXSUBROUT       - EXECUTIVE SUPPORT SUBROUTINES                  21-AUG-1978 19:45:52   VAX-11 MACRO X0.3-11               Page   4
01              GET PROTECTION MASK ACCORDING TO UIC ACCESS                                                                      (1)

                                     0043   111 	.SBTTL	GET PROTECTION MASK ACCORDING TO UIC ACCESS
                                     0043   112 ;+
                                     0043   113 ; EXE$GETACCESS - GET ACCESS RIGHTS ACCORDING TO UIC AND PROTECTION MASK
                                     0043   114 ;
                                     0043   115 ; THIS ROUTINE RETURNS THE ACCESS RIGHTS OF A GIVEN PROCESS PCB WITH
                                     0043   116 ; REGARDS TO A PROTECTION / UIC MASK PAIR.
                                     0043   117 ;
                                     0043   118 ; INPUTS:
                                     0043   119 ;
                                     0043   120 ;	R1 = PROTECTION MASK IN "RWED" FORM (SYSTEM,OWNER,GROUP,WORLD).
                                     0043   121 ;	R2 = UIC ASSOCIATED WITH PROTECTION MASK.
                                     0043   122 ;	R4 = PCB OF PROCESS WISHING VALIDATION.
                                     0043   123 ;
                                     0043   124 ; OUTPUTS:
                                     0043   125 ;
                                     0043   126 ;	R0 = MASK IN "RWED" FORM (SYSTEM,OWNER,GROUP,WORLD) WHICH
                                     0043   127 ;	     CORRESPONDS TO THE ACCESS AVAILABLE TO THE PROCESS.
                                     0043   128 ;
                                     0043   129 ;	R3 IS PRESERVED ACROSS CALL.
                                     0043   130 ;-
                                     0043   131
                                 00000000   132 	.PSECT	Y$EXEPAGED
                                     0000   133 EXE$GETACCESS::				;
            50       F000 8F     3C  0000   134 	MOVZWL	#^XF000,R0		;SET WORLD MASK
                                     0005   135
                                     0005   136 ;
                                     0005   137 ; TEST GROUP ACCESS
                                     0005   138 ;
                                     0005   139
            7E         22 A4     3C  0005   140 	MOVZWL	PCB$W_GRP(R4),-(SP)	;GET CURRENT PROCESS GROUP CODE
            10            10     ED  0009   141 	CMPZV	#16,#16,R2,(SP)+	;COMPARE GROUP VALUES
            8E            52         000C
                          10     12  000E   142 	BNEQ	20$			;IF NEQ THEN NOT THE SAME GROUP
            08            0F     F0  0010   143 	INSV	#^XF,#8,#4,R0		;INSERT GROUP MASK
            50            04         0013
                                     0015   144
                                     0015   145 ;
                                     0015   146 ; TEST OWNER ACCESS
                                     0015   147 ;
                                     0015   148
            52         20 A4     B1  0015   149 	CMPW	PCB$L_UIC(R4),R2	;COMPARE MEMBER VALUES
                          05     12  0019   150 	BNEQ	20$			;IF NEQ THENNOT SAME MEMBER
            04            0F     F0  001B   151 	INSV	#^XF,#4,#4,R0		;INSERT OWNER MASK
            50            04         001E
                                     0020   152
                                     0020   153 ;
                                     0020   154 ; CHECK SYSTEM ACCESS
                                     0020   155 ;
                                     0020   156
         22 A4   00000000'EF     B1  0020   157 20$:	CMPW	L^EXE$GL_SYSUIC,PCB$W_GRP(R4) ;COMPARE GROUP WITH SYSTEM ACCESS
                          05     1F  0028   158 	BLSSU	30$			;IF LSSU THEN NOT SYSTEM
            00            0F     F0  002A   159 	INSV	#^XF,#0,#4,R0		;INSERT SYSTEM MASK
            50            04         002D
                                     002F   160
                                     002F   161 ;
                                     002F   162 ; FORM FINAL MASK
                                     002F   163 ;
EXSUBROUT       - EXECUTIVE SUPPORT SUBROUTINES                  21-AUG-1978 19:45:52   VAX-11 MACRO X0.3-11               Page   5
01              GET PROTECTION MASK ACCORDING TO UIC ACCESS                                                                      (1)

                                     002F   164
            50            51     AA  002F   165 30$:	BICW	R1,R0			;RETURN RESULT IN R0
                                 05  0032   166 	RSB				;
EXSUBROUT       - EXECUTIVE SUPPORT SUBROUTINES                  21-AUG-1978 19:45:52   VAX-11 MACRO X0.3-11               Page   6
01              CHECK ACCESS PROTECTION                                                                                          (1)

                                     0033   168 	.SBTTL CHECK ACCESS PROTECTION
                                     0033   169 ;+
                                     0033   170 ; EXE$CHKCREACCES - CHECK CREATE ACCESS
                                     0033   171 ; EXE$CHKDELACCES - CHECK DELETE ACCESS
                                     0033   172 ; EXE$CHKLOGACCES - CHECK LOGICAL I/O FUNCTION ACCESS
                                     0033   173 ; EXE$CHKPHYACCES - CHECK PHYSICAL I/O FUNCTION ACCESS
                                     0033   174 ; EXE$CHKRDACCES - CHECK READ ACCESS
                                     0033   175 ; EXE$CHKWRTACCES - CHECK WRITE ACCESS
                                     0033   176 ;
                                     0033   177 ; THESE ROUTINES RETURN A TRUE OR FALSE VALUE ON ACCESS
                                     0033   178 ; GIVEN A REQUESTING PROCESS PCB AND A PROTECTION MASK / UIC PAIR.
                                     0033   179 ;
                                     0033   180 ; INPUTS:
                                     0033   181 ;
                                     0033   182 ;	R1 = PROTECTION MASK - "RWED" FOR (SYSTEM,OWNER,GROUP,WORLD).
                                     0033   183 ;	R2 = UIC ASSOCIATED WITH PROTECTION MASK.
                                     0033   184 ;	R4 = REQUESTING PCB.
                                     0033   185 ;
                                     0033   186 ; OUTPUTS:
                                     0033   187 ;
                                     0033   188 ;	R0 = SS$_NORMAL FOR ACCESS ALLOWED
                                     0033   189 ;	R0 = SS$_NOPRIV FOR ACCESS DENIED
                                     0033   190 ;
                                     0033   191 ;	R3 IS PRESERVED ACROSS CALL.
                                     0033   192 ;-
                                     0033   193
                                     0033   194 	.ENABL	LSB
                                     0033   195 EXE$CHKDELACCES::			;CHECK DELETE ACCESS
                                     0033   196 EXE$CHKLOGACCES::			;CHECK LOGICAL I/O FUNCTION ACCESS
            7E       7777 8F     3C  0033   197 	MOVZWL	#^X7777,-(SP)		;SET COMPLEMENT OF NEEDED ACCESS
                          13     11  0038   198 	BRB	10$			;
                                     003A   199 EXE$CHKCREACCES::			;CHECK CREATE ACCESS
                                     003A   200 EXE$CHKPHYACCES::			;CHECK PHYSICAL I/O FUNCTION ACCESS
            7E       BBBB 8F     3C  003A   201 	MOVZWL	#^XBBBB,-(SP)		;SET COMPLEMENT OF NEEDED ACCESS
                          0C     11  003F   202 	BRB	10$			;
                                     0041   203 EXE$CHKRDACCES::			;CHECK READ ACCESS
            7E       EEEE 8F     3C  0041   204 	MOVZWL	#^XEEEE,-(SP)		;SET COMPLEMENT OF NEEDED ACCESS
                          05     11  0046   205 	BRB	10$			;
                                     0048   206 EXE$CHKWRTACCES::			;CHECK WRITE ACCESS
            7E       DDDD 8F     3C  0048   207 	MOVZWL	#^XDDDD,-(SP)		;SET COMPLEMENT OF NEEDED ACCESS
                          B1     10  004D   208 10$:	BSBB	EXE$GETACCESS		;GET THE PROCESS' ACCESS RIGHTS
            50            8E     CA  004F   209 	BICL	(SP)+,R0		;FORM ANSWER -- IF 0 THEN FALSE
                          04     13  0052   210 	BEQL	20$			;RETURN NO PRIVILEGE IF EQL
            50            01     9A  0054   211 	MOVZBL	#SS$_NORMAL,R0		;SET SUCCESS INDICATOR
                                 05  0057   212 	RSB				;AND RETURN
            50            24     3C  0058   213 20$:	MOVZWL	#SS$_NOPRIV,R0		;SET ERROR
                                 05  005B   214 	RSB				;AND RETURN
                                     005C   215 	.DSABL	LSB
EXSUBROUT       - EXECUTIVE SUPPORT SUBROUTINES                  21-AUG-1978 19:45:52   VAX-11 MACRO X0.3-11               Page   7
01              INSERT ENTRY IN TIME DEPENDENT SCHEDULER QUEUE                                                                   (1)

                                     005C   217 	.SBTTL	INSERT ENTRY IN TIME DEPENDENT SCHEDULER QUEUE
                                     005C   218 ;+
                                     005C   219 ; EXE$INSTIMQ - INSERT ENTRY IN TIME DEPENDENT SCHEDULER QUEUE
                                     005C   220 ;
                                     005C   221 ; THIS ROUTINE IS CALLED TO INSERT AN ENTRY IN THE TIME DEPENDENT SCHEDULER
                                     005C   222 ; QUEUE. THE ENTRY IS THREADED INTO THE QUEUE ACCORDING TO ITS DUE TIME.
                                     005C   223 ; THE QUEUE IS ORDERED SUCH THAT THE MOST IMMINENT ENTRIES ARE AT THE FRONT
                                     005C   224 ; OF THE QUEUE.
                                     005C   225 ;
                                     005C   226 ; INPUTS:
                                     005C   227 ;
                                     005C   228 ;	R0 = LOW ORDER PART OF EXPIRATION TIME.
                                     005C   229 ;	R1 = HIGH ORDER PART OF EXPIRATION TIME.
                                     005C   230 ;	R5 = ADDRESS OF ENTRY TO INSERT IN TIME QUEUE.
                                     005C   231 ;
                                     005C   232 ;	IPL MUST BE IPL$_TIMER OR ABOVE.
                                     005C   233 ;
                                     005C   234 ; OUTPUTS:
                                     005C   235 ;
                                     005C   236 ;	SPECIFIED ENTRY IS INSERTED INTO THE TIME DEPENDENT SCHEDULER QUEUE
                                     005C   237 ;	ACCORDING TO ITS DUE TIME.
                                     005C   238 ;-
                                     005C   239
                                     0000   240 	.PSECT
                                     0000   241 EXE$INSTIMQ::				;INSERT ENTRY IN TIME QUEUE
         18 A5            50     7D  0000   242 	MOVQ	R0,TQE$Q_TIME(R5)	;SET ABSOLUTE DUE TIME
            53       0000'CF     DE  0004   243 	MOVAL	W^EXE$GL_TQFL,R3	;GET ADDRESS OF TIME QUEUE LISTHEAD
            52            53     D0  0009   244 	MOVL	R3,R2			;COPY ADDRESS OF TIME QUEUE LISTHEAD
            52         04 A2     D0  000C   245 10$:	MOVL	TQE$L_TQBL(R2),R2	;GET ADDRESS OF NEXT ENTRY
            52            53     D1  0010   246 	CMPL	R3,R2			;END OF QUEUE?
                          0E     13  0013   247 	BEQL	20$			;IF EQL YES
         1C A2            51     D1  0015   248 	CMPL	R1,TQE$Q_TIME+4(R2)	;COMPARE HIGH ORDER PARTS OF TIME
                          F1     1F  0019   249 	BLSSU	10$			;IF LSSU NEW ENTRY MORE IMMINENT
                          06     1A  001B   250 	BGTRU	20$			;IF GTRU NEW ENTRY LESS IMMINENT
         18 A2            50     D1  001D   251 	CMPL	R0,TQE$Q_TIME(R2)	;COMPARE LOW ORDER PART OF TIME
                          E9     1F  0021   252 	BLSSU	10$			;IF LSSU NEW ENTRY MORE IMMINENT
            62            65     0E  0023   253 20$:	INSQUE	TQE$L_TQFL(R5),TQE$L_TQFL(R2) ;INSERT NEW ENTRY IN TIME QUEUE
                                 05  0026   254 	RSB				;
EXSUBROUT       - EXECUTIVE SUPPORT SUBROUTINES                  21-AUG-1978 19:45:52   VAX-11 MACRO X0.3-11               Page   8
01              MAXIMIZE ACCESS MODE                                                                                             (1)

                                     0027   256 	.SBTTL	MAXIMIZE ACCESS MODE
                                     0027   257 ;+
                                     0027   258 ; EXE$MAXACMODE - MAXIMIZE ACCESS MODE
                                     0027   259 ;
                                     0027   260 ; THIS ROUTINE IS CALLED TO MAXIMIZE A SPECIFIED ACCESS MODE WITH THE PREVIOUS
                                     0027   261 ; MODE FIELD OF THE CURRENT PSL.
                                     0027   262 ;
                                     0027   263 ; INPUTS:
                                     0027   264 ;
                                     0027   265 ;	R0 = ACCESS MODE TO MAXIMIZE WITH PREVIOUS MODE FIELD OF PSL.
                                     0027   266 ;
                                     0027   267 ; OUTPUTS:
                                     0027   268 ;
                                     0027   269 ;	THE SPECIFIED ACCESS MODE IS MAXIMIZED WITH THE PREVIOUS MODE FIELD
                                     0027   270 ;	OF THE CURRENT PSL AND RETURNED IN REGISTER R0.
                                     0027   271 ;
                                     0027   272 ;	REGISTERS R2 AND R3 ARE PRESERVED ACROSS CALL.
                                     0027   273 ;-
                                     0027   274
                                 0000005C   275 	.PSECT	Y$EXEPAGED
                                     005C   276 EXE$MAXACMODE::				;MAXIMIZE ACCESS MODE
                          51     DC  005C   277 	MOVPSL	R1			;READ CURRENT PSL
            02            16     ED  005E   278 	CMPZV	#PSL$V_PRVMOD,#PSL$S_PRVMOD,R1,R0 ;COMPARE WITH PREVIOUS MODE
            50            51         0061
                          05     15  0063   279 	BLEQ	10$			;IF LEQ SPECIFIED ACCESS MODE LESS PRIVILEGED
            02            16     EF  0065   280 	EXTZV	#PSL$V_PRVMOD,#PSL$S_PRVMOD,R1,R0 ;EXTRACT PREVIOUS MODE FIELD
            50            51         0068
                                 05  006A   281 10$:	RSB				;
EXSUBROUT       - EXECUTIVE SUPPORT SUBROUTINES                  21-AUG-1978 19:45:52   VAX-11 MACRO X0.3-11               Page   9
01              REMOVE ENTRY FROM TIME DEPENDENT SCHEDULER QUEU                                                                  (1)

                                     006B   283 	.SBTTL	REMOVE ENTRY FROM TIME DEPENDENT SCHEDULER QUEUE
                                     006B   284 ;+
                                     006B   285 ; EXE$RMVTIMQ - REMOVE ENTRY FROM TIME DEPENDENT SCHEDULER QUEUE
                                     006B   286 ;
                                     006B   287 ; THIS ROUTINE IS CALLED TO REMOVE ONE OR MORE ENTRIES FROM THE TIME
                                     006B   288 ; DEPENDENT SCHEDULER QUEUE. ENTRIES ARE REMOVED BY TYPE, ACCESS MODE,
                                     006B   289 ; REQUEST IDENTIFICATION, AND PROCESS ID.
                                     006B   290 ;
                                     006B   291 ; INPUTS:
                                     006B   292 ;
                                     006B   293 ;	R2 = ACCESS MODE (ALL EQUAL AND HIGHER ACCESS MODES).
                                     006B   294 ;	R3 = REQUEST IDENTIFICATION (ZERO IMPLIES ALL).
                                     006B   295 ;	R4 = TYPE OF ENTRY TO REMOVE (ALL SINGLE AND REPEAT ENTRIES).
                                     006B   296 ;	R5 = PROCESS ID OF PROCESS TO REMOVE ENTRIES FOR.
                                     006B   297 ;
                                     006B   298 ;	IPL MUST BE IPL$_TIMER OR ABOVE.
                                     006B   299 ;
                                     006B   300 ;	IF SYSTEM SUBROUTINE OR WAKE REQUESTS ARE BEING REMOVED, THEN ACCESS
                                     006B   301 ;	MODE AND REQUEST IDENTIFICATION ARE NOT USED AND NEED NOT BE SUPPLIED
                                     006B   302 ;	IN THE CALLING SEQUENCE.
                                     006B   303 ;
                                     006B   304 ; OUTPUTS:
                                     006B   305 ;
                                     006B   306 ;	ALL ENTRIES OF THE SPECIFIED TYPE ARE REMOVED FROM THE TIME
                                     006B   307 ;	DEPENDENT SCHEDULER QUEUE.
                                     006B   308 ;-
                                     006B   309
                                 00000027   310 	.PSECT
                                     0027   311 EXE$RMVTIMQ::				;REMOVE ENTRY FROM TIME QUEUE
            50       0000'CF     DE  0027   312 10$:	MOVAL	W^EXE$GL_TQFL,R0	;GET ADDRESS OF TIMER QUEUE LISTHEAD
            51            50     D0  002C   313 	MOVL	R0,R1			;COPY LISTHEAD ADDRESS
            51            61     D0  002F   314 20$:	MOVL	TQE$L_TQFL(R1),R1	;GET ADDRESS OF NEXT ENTRY
            50            51     D1  0032   315 	CMPL	R1,R0			;END OF QUEUE?
                          5C     13  0035   316 	BEQL	80$			;IF EQL YES
            02            00     ED  0037   317 	CMPZV	#0,#2,TQE$B_RQTYPE(R1),R4 ;REQUEST TYPE MATCH?
            54         0B A1         003A
                          F0     12  003D   318 	BNEQ	20$			;IF NEQ NO
         0C A1            55     D1  003F   319 	CMPL	R5,TQE$L_PID(R1) 	;PROCESS ID MATCH?
                          EA     12  0043   320 	BNEQ	20$			;IF NEQ NO
            54            00     91  0045   321 	CMPB	#TQE$C_TMSNGL,R4	;SYSTEM SUBROUTINE OR CANCEL WAKE?
                          12     12  0048   322 	BNEQ	40$			;IF NEQ YES - SKIP ID-ACCESS TEST
                          53     D5  004A   323 	TSTL	R3			;ALL REQUEST ID'S MATCH?
                          06     13  004C   324 	BEQL	30$			;IF EQL YES
         14 A1            53     D1  004E   325 	CMPL	R3,TQE$L_ASTPRM(R1)	;REQUEST IDENTIFICATION MATCH?
                          DB     12  0052   326 	BNEQ	20$			;IF NEQ NO
            02            00     ED  0054   327 30$:	CMPZV	#0,#2,TQE$B_RMOD(R1),R2	;REQUEST MODE LESS THAN SPECIFIED MODE?
            52         28 A1         0057
                          D3     19  005A   328 	BLSS	20$			;IF LSS YES
                          0C     BB  005C   329 40$:	PUSHR	#^M<R2,R3>		;SAVE REGISTERS R2 AND R3
                       04 A1     DD  005E   330 	PUSHL	TQE$L_TQBL(R1)		;SAVE BACKWARD LINK OF ENTRY
                          50     DD  0061   331 	PUSHL	R0			;SAVE REGISTER R0
            50            61     0F  0063   332 	REMQUE	TQE$L_TQFL(R1),R0	;REMOVE ENTRY FROM QUEUE
            54            01     91  0066   333 	CMPB	#TQE$C_SSSNGL,R4	;CANCEL SYSTEM SUBROUTINE?
                          24     13  0069   334 	BEQL	70$			;IF EQL YES
            51         2C A0     3C  006B   335 	MOVZWL	TQE$L_RQPID(R0),R1	;GET PROCESS INDEX
            51       0000'DF41   D0  006F   336 	MOVL	@W^SCH$GL_PCBVEC[R1],R1	;GET ADDRESS OF PROCESS PCB
         60 A1         2C A0     D1  0075   337 	CMPL	TQE$L_RQPID(R0),PCB$L_PID(R1) ;PROCESS ID MATCH?
EXSUBROUT       - EXECUTIVE SUPPORT SUBROUTINES                  21-AUG-1978 19:45:52   VAX-11 MACRO X0.3-11               Page  10
01              REMOVE ENTRY FROM TIME DEPENDENT SCHEDULER QUEU                                                                  (1)

                          10     12  007A   338 	BNEQ	60$			;IF NEQ NO
            54            02     91  007C   339 	CMPB	#TQE$C_WKSNGL,R4	;CANCEL WAKE UP REQUEST?
                          08     13  007F   340 	BEQL	50$			;IF EQL YES
                       4A A1     B6  0081   341 	INCW	PCB$W_TQCNT(R1)		;UPDATE AVAILABLE TIME QUEUE ENTRIES
         28 A0            06     E1  0084   342 	BBC	#ACB$V_QUOTA,TQE$B_RMOD(R0),60$ ;IF CLR, NO AST SPECIFIED
                          03         0088
                       3C A1     B6  0089   343 50$:	INCW	PCB$W_ASTCNT(R1)	;UPDATE AVAILABLE AST QUEUE ENTRIES
                          FF71'  30  008C   344 60$:	BSBW	EXE$DEANONPAGED		;DEALLOCATE TIME QUEUE ENTRY
                          0F     BA  008F   345 70$:	POPR	#^M<R0,R1,R2,R3>	;RESTORE REGISTERS R0, R1, R2, AND R3
                          9C     11  0091   346 	BRB	20$			;
                                 05  0093   347 80$:	RSB				;
                                     0094   348
                                     0094   349 	.END
EXSUBROUT       - EXECUTIVE SUPPORT SUBROUTINES                  21-AUG-1978 19:45:52   VAX-11 MACRO X0.3-11               Page  11
SYMBOL TABLE                                                                                                                     (1)

ACB$B_RMOD       0000000B            PCB$L_EFWM       0000004C            PR$_ACCS       = 00000028
ACB$B_TYPE       0000000A            PCB$L_OWNER      0000001C            PR$_ASTLVL     = 00000013
ACB$L_AST        00000010            PCB$L_PHD        00000064            PR$_ESP        = 00000001
ACB$L_ASTPRM     00000014            PCB$L_PHYPCB     00000018            PR$_ICCS       = 00000018
ACB$L_ASTQBL     00000004            PCB$L_PID        00000060            PR$_ICR        = 0000001A
ACB$L_ASTQFL     00000000            PCB$L_PQB        0000004C            PR$_IPL        = 00000012
ACB$L_KAST       00000018            PCB$L_SQBL       00000004            PR$_ISP        = 00000004
ACB$L_PID        0000000C            PCB$L_SQFL       00000000            PR$_KSP        = 00000000
ACB$M_QUOTA    = 00000040            PCB$L_STS        00000028            PR$_MAPEN      = 00000038
ACB$S_MODE     = 00000002            PCB$L_UIC        00000020            PR$_NICR       = 00000019
ACB$V_KAST     = 00000007            PCB$L_WSSWP      00000024            PR$_P0BR       = 00000008
ACB$V_MODE     = 00000000            PCB$L_WTIME      0000002C            PR$_P0LR       = 00000009
ACB$V_QUOTA    = 00000006            PCB$T_LNAME      0000006C            PR$_P1BR       = 0000000A
ACB$W_SIZE       00000008            PCB$V_ASTPEN   = 00000011            PR$_P1LR       = 0000000B
BIT...         = 00000003            PCB$V_BATCH    = 0000000E            PR$_PCBB       = 00000010
EXE$BUFFRQUOTA   00000000 RG    03   PCB$V_DELPEN   = 00000001            PR$_PME        = 0000003D
EXE$BUFQUOPRC    00000009 RG    03   PCB$V_FORCPEN  = 00000002            PR$_RXCS       = 00000020
EXE$CHKCREACCES  0000003A RG    04   PCB$V_HIBER    = 00000013            PR$_RXDB       = 00000021
EXE$CHKDELACCES  00000033 RG    04   PCB$V_INQUAN   = 00000003            PR$_SBIER      = 00000034
EXE$CHKLOGACCES  00000033 RG    04   PCB$V_LOGIN    = 00000014            PR$_SBIFS      = 00000030
EXE$CHKPHYACCES  0000003A RG    04   PCB$V_NETWRK   = 00000015            PR$_SBIMT      = 00000033
EXE$CHKRDACCES   00000041 RG    04   PCB$V_NOACNT   = 0000000F            PR$_SBIQC      = 00000036
EXE$CHKWRTACCES  00000048 RG    04   PCB$V_NODELET  = 00000017            PR$_SBIS       = 00000031
EXE$DEANONPAGED  ********   X   01   PCB$V_PHDRES   = 00000012            PR$_SBISC      = 00000032
EXE$GETACCESS    00000000 RG    04   PCB$V_PSWAPM   = 00000004            PR$_SBITA      = 00000035
EXE$GL_SYSUIC    ********   X   04   PCB$V_PWRAST   = 00000016            PR$_SBR        = 0000000C
EXE$GL_TQFL      ********   X   01   PCB$V_RES      = 00000000            PR$_SCBB       = 00000011
EXE$INSTIMQ      00000000 RG    01   PCB$V_RESPEN   = 00000005            PR$_SID        = 0000003E
EXE$MAXACMODE    0000005C RG    04   PCB$V_SSFEXC   = 00000006            PR$_SIRR       = 00000014
EXE$MULTIQUOTA   0000001A RG    03   PCB$V_SSFEXCE  = 00000007            PR$_SISR       = 00000015
EXE$RMVTIMQ      00000027 RG    01   PCB$V_SSFEXCS  = 00000008            PR$_SLR        = 0000000D
EXE$SNGLEQUOTA   00000017 RG    03   PCB$V_SSFEXCU  = 00000009            PR$_SSP        = 00000002
GBL...         = 00000000            PCB$V_SSRWAIT  = 0000000A            PR$_TBIA       = 00000039
IOC$GW_MAXBUF    ********   X   03   PCB$V_SUSPEN   = 0000000B            PR$_TBIS       = 0000003A
IPL$_ASTDEL    = 00000002            PCB$V_SWPVBN   = 00000010            PR$_TODR       = 0000001B
IPL$_HWCLK     = 00000018            PCB$V_WAKEPEN  = 0000000C            PR$_TXCS       = 00000022
IPL$_IOPOST    = 00000004            PCB$V_WALL     = 0000000D            PR$_TXDB       = 00000023
IPL$_MAILBOX   = 0000000B            PCB$W_APTCNT     00000034            PR$_USP        = 00000003
IPL$_POWER     = 0000001F            PCB$W_ASTCNT     0000003C            PR$_WCSA       = 0000002C
IPL$_QUEUEAST  = 00000006            PCB$W_BIOCNT     0000003E            PR$_WCSD       = 0000002D
IPL$_SCHED     = 00000003            PCB$W_BIOLM      00000040            PSL$C_EXEC     = 00000001
IPL$_SYNCH     = 00000007            PCB$W_BYTCNT     00000042            PSL$C_KERNEL   = 00000000
IPL$_TIMER     = 00000007            PCB$W_BYTLM      00000068            PSL$C_SUPER    = 00000002
PCB$B_ASTACT     0000000C            PCB$W_DIOCNT     00000044            PSL$C_USER     = 00000003
PCB$B_ASTEN      0000000D            PCB$W_DIOLM      00000046            PSL$M_CM       = 80000000
PCB$B_PRI        0000000B            PCB$W_FILCNT     00000048            PSL$M_CURMOD   = 03000000
PCB$B_PRIB       00000033            PCB$W_GPGCNT     00000038            PSL$M_DV       = 00000080
PCB$B_TYPE       0000000A            PCB$W_GRP        00000022            PSL$M_FPD      = 08000000
PCB$B_WEFC       00000032            PCB$W_MEM        00000020            PSL$M_FU       = 00000040
PCB$C_LENGTH     0000007C            PCB$W_MTXCNT     0000000E            PSL$M_IPL      = 001F0000
PCB$K_LENGTH     0000007C            PCB$W_PPGCNT     0000003A            PSL$M_IS       = 04000000
PCB$L_ASTQBL     00000014            PCB$W_PRCCNT     0000006A            PSL$M_IV       = 00000020
PCB$L_ASTQFL     00000010            PCB$W_SIZE       00000008            PSL$M_PRVMOD   = 00C00000
PCB$L_EFC2P      00000058            PCB$W_STATE      00000030            PSL$M_SAFBITS  = 000037FF
PCB$L_EFC3P      0000005C            PCB$W_TMBU       00000036            PSL$M_TBIT     = 00000010
PCB$L_EFCS       00000050            PCB$W_TQCNT      0000004A            PSL$M_TP       = 40000000
PCB$L_EFCU       00000054            PR$_ACCR       = 00000029            PSL$S_CURMOD   = 00000002
EXSUBROUT       - EXECUTIVE SUPPORT SUBROUTINES                  21-AUG-1978 19:45:52   VAX-11 MACRO X0.3-11               Page  12
SYMBOL TABLE                                                                                                                     (1)

PSL$S_IPL      = 00000005            SS$_DATAOVERUN = 00000838            SS$_INSFARG    = 00000114
PSL$S_PRVMOD   = 00000002            SS$_DEBUG      = 0000046C            SS$_INSFMEM    = 00000124
PSL$V_CM       = 0000001F            SS$_DECOVF     = 000004A4            SS$_INSFRAME   = 0000012C
PSL$V_CURMOD   = 00000018            SS$_DEVACTIVE  = 000002C4            SS$_INSFWSL    = 0000011C
PSL$V_DV       = 00000007            SS$_DEVALLOC   = 00000840            SS$_INTDIV     = 00000484
PSL$V_FPD      = 0000001B            SS$_DEVALRALLOC= 00000641            SS$_INTOVF     = 0000047C
PSL$V_FU       = 00000006            SS$_DEVASSIGN  = 00000848            SS$_IVADDR     = 00000134
PSL$V_IPL      = 00000010            SS$_DEVFOREIGN = 00000064            SS$_IVCHAN     = 0000013C
PSL$V_IS       = 0000001A            SS$_DEVICEFULL = 00000850            SS$_IVCHNLSEC  = 0000026C
PSL$V_IV       = 00000005            SS$_DEVMOUNT   = 0000006C            SS$_IVDEVNAM   = 00000144
PSL$V_PRVMOD   = 00000016            SS$_DEVNOTALLOC= 00000858            SS$_IVGSDNAM   = 0000014C
PSL$V_TBIT     = 00000004            SS$_DEVNOTMBX  = 00000074            SS$_IVLOGNAM   = 00000154
PSL$V_TP       = 0000001E            SS$_DEVNOTMOUNT= 0000007C            SS$_IVLOGTAB   = 0000015C
RSN$_ASTWAIT   = 00000001            SS$_DEVOFFLINE = 00000084            SS$_IVPROTECT  = 000002F4
RSN$_BRKTHRU   = 00000006            SS$_DIRFULL    = 00000860            SS$_IVQUOTAL   = 00000164
RSN$_IACLOCK   = 00000007            SS$_DRVERR     = 0000008C            SS$_IVSECFLG   = 0000016C
RSN$_MAILBOX   = 00000002            SS$_DUPFILENAME= 00000868            SS$_IVSECIDCTL = 000002E4
RSN$_NPDYNMEM  = 00000003            SS$_DUPLNAM    = 00000094            SS$_IVSSRQ     = 00000174
RSN$_PGDYNMEM  = 00000005            SS$_ENDOFFILE  = 00000870            SS$_IVSTSFLG   = 0000017C
RSN$_PGFILE    = 00000004            SS$_ENDOFTAPE  = 00000878            SS$_IVTIME     = 00000184
SCH$GL_PCBVEC    ********   X   01   SS$_ENDOFUSRLBL= 00000970            SS$_LCKPAGFUL  = 000000D4
SCH$RWAIT        ********   X   03   SS$_EXQUOTA    = 0000001C            SS$_LENVIO     = 0000018C
SS$_ABORT      = 0000002C            SS$_EXTIDXFILE = 00000880            SS$_LKWSETFUL  = 00000194
SS$_ACCONFLICT = 00000800            SS$_FCPREADERR = 00000888            SS$_MBFULL     = 000008D8
SS$_ACCVIO     = 0000000C            SS$_FCPREPSTN  = 00000988            SS$_MBTOOSML   = 0000019C
SS$_ACPVAFUL   = 000002FC            SS$_FCPREWNDERR= 00000890            SS$_MCHECK     = 000002BC
SS$_ARTRES     = 00000474            SS$_FCPSPACERR = 00000898            SS$_MEDOFL     = 000001A4
SS$_ASTFLT     = 0000040C            SS$_FCPWRITERR = 000008A0            SS$_MSGNOTFND  = 00000621
SS$_BADATTRIB  = 00000034            SS$_FILACCERR  = 0000009C            SS$_MTLBLLONG  = 00000304
SS$_BADCHKSUM  = 00000808            SS$_FILALRACC  = 000000A4            SS$_MUSTCLOSEFL= 00000948
SS$_BADESCAPE  = 0000003C            SS$_FILELOCKED = 000008A8            SS$_NOAQB      = 00000314
SS$_BADFILEHDR = 00000810            SS$_FILENUMCHK = 000008B0            SS$_NODATA     = 000001AC
SS$_BADFILENAME= 00000818            SS$_FILESEQCHK = 000008B8            SS$_NOHANDLER  = 000008F8
SS$_BADFILEVER = 00000820            SS$_FILESTRUCT = 000008C0            SS$_NOHOMEBLK  = 000008E0
SS$_BADIMGHDR  = 00000044            SS$_FILNOTACC  = 000000AC            SS$_NOIOCHAN   = 000001B4
SS$_BADIRECTORY= 00000828            SS$_FILNOTCNTG = 000002AC            SS$_NOLINKS    = 0000027C
SS$_BADPARAM   = 00000014            SS$_FILNOTEXP  = 000000B4            SS$_NOLOGNAM   = 000001BC
SS$_BADSTACK   = 000002B4            SS$_FLTDIV     = 00000494            SS$_NOMBX      = 00000274
SS$_BEGOFFILE  = 00000938            SS$_FLTOVF     = 0000048C            SS$_NOMOREFILES= 00000930
SS$_BLOCKCNTERR= 00000940            SS$_FLTUND     = 0000049C            SS$_NONEXDRV   = 000001C4
SS$_BREAK      = 00000414            SS$_FORMAT     = 000000BC            SS$_NONEXPR    = 000008E8
SS$_BUFBYTALI  = 0000030C            SS$_GPTFULL    = 000000C4            SS$_NONLOCAL   = 000008F0
SS$_BUFFEROVF  = 00000601            SS$_GSDFULL    = 000000CC            SS$_NOPRIV     = 00000024
SS$_BUGCHECK   = 000002A4            SS$_HANGUP     = 000002CC            SS$_NORMAL     = 00000001
SS$_CANCEL     = 00000830            SS$_HEADERFULL = 000008C8            SS$_NOSIGNAL   = 00000900
SS$_CHANINTLK  = 0000004C            SS$_IDXFILEFULL= 000008D0            SS$_NOSOLICIT  = 00000284
SS$_CLIFRCEXT  = 00000980            SS$_ILLBLKNUM  = 000000DC            SS$_NOSUCHDEV  = 00000908
SS$_CMODSUPR   = 0000041C            SS$_ILLCNTRFUNC= 000000E4            SS$_NOSUCHFILE = 00000910
SS$_CMODUSER   = 00000424            SS$_ILLEFC     = 000000EC            SS$_NOSUCHNODE = 0000028C
SS$_COMPAT     = 0000042C            SS$_ILLIOFUNC  = 000000F4            SS$_NOSUCHSEC  = 00000978
SS$_CONTINUE   = 00000001            SS$_ILLLBLAST  = 00000968            SS$_NOTAPEOP   = 00000264
SS$_CONTROLC   = 00000651            SS$_ILLPAGCNT  = 000000FC            SS$_NOTFILEDEV = 000001CC
SS$_CONTROLO   = 00000609            SS$_ILLSEQOP   = 000002DC            SS$_NOTINTBLSZ = 000001D4
SS$_CONTROLY   = 00000611            SS$_ILLSER     = 00000104            SS$_NOTLABELMT = 000001DC
SS$_CREATED    = 00000619            SS$_ILLUSRLBLRD= 00000958            SS$_NOTMODIFIED= 00000659
SS$_CTRLERR    = 00000054            SS$_ILLUSRLBLWT= 00000960            SS$_NOTNETDEV  = 000002EC
SS$_DATACHECK  = 0000005C            SS$_INCVOLLABEL= 0000010C            SS$_NOTRAN     = 00000629
EXSUBROUT       - EXECUTIVE SUPPORT SUBROUTINES                  21-AUG-1978 19:45:52   VAX-11 MACRO X0.3-11               Page  13
SYMBOL TABLE                                                                                                                     (1)

SS$_NOTSQDEV   = 000001E4            TQE$L_TQBL       00000004
SS$_OPCCUS     = 00000434            TQE$L_TQFL       00000000
SS$_OPCDEC     = 0000043C            TQE$M_REPEAT   = 00000004
SS$_OPINCOMPL  = 000002D4            TQE$Q_DELTA      00000020
SS$_PAGOWNVIO  = 000001EC            TQE$Q_TIME       00000018
SS$_PAGRDERR   = 00000444            TQE$V_REPEAT   = 00000002
SS$_PARITY     = 000001F4            TQE$W_SIZE       00000008
SS$_PARTESCAPE = 000001FC
SS$_PFMBSY     = 00000204
SS$_PLHLDR     = 00000404
SS$_PSTFULL    = 0000020C
SS$_RADRMOD    = 0000044C
SS$_REJECT     = 00000294
SS$_REMOTE     = 00000649
SS$_RESIGNAL   = 00000918
SS$_RESULTOVF  = 00000214
SS$_ROPRAND    = 00000454
SS$_SECTBLFUL  = 0000021C
SS$_SSFAIL     = 0000045C
SS$_SUBRNG     = 000004AC
SS$_SUPERSEDE  = 00000631
SS$_TAPEPOSLOST= 00000224
SS$_TBIT       = 00000464
SS$_TIMEOUT    = 0000022C
SS$_TOOMANYVER = 00000990
SS$_TOOMUCHDATA= 0000029C
SS$_UNASEFC    = 00000234
SS$_UNSAFE     = 0000023C
SS$_UNWIND     = 00000920
SS$_UNWINDING  = 00000928
SS$_VASFULL    = 00000244
SS$_VECINUSE   = 0000024C
SS$_VOLINV     = 00000254
SS$_WAITUSRLBL = 00000950
SS$_WASCLR     = 00000001
SS$_WASECC     = 00000639
SS$_WASSET     = 00000009
SS$_WRITLCK    = 0000025C
SS$_WRONGACP   = 0000031C
TQE$B_EFN        00000029
TQE$B_RMOD       00000028
TQE$B_RQTYPE     0000000B
TQE$B_TYPE       0000000A
TQE$C_LENGTH     00000030
TQE$C_SSREPT   = 00000005
TQE$C_SSSNGL   = 00000001
TQE$C_TMSNGL   = 00000000
TQE$C_WKREPT   = 00000006
TQE$C_WKSNGL   = 00000002
TQE$K_LENGTH     00000030
TQE$L_AST        00000010
TQE$L_ASTPRM     00000014
TQE$L_FPC        0000000C
TQE$L_FR3        00000010
TQE$L_FR4        00000014
TQE$L_PID        0000000C
TQE$L_RQPID      0000002C
EXSUBROUT       - EXECUTIVE SUPPORT SUBROUTINES                  21-AUG-1978 19:45:52   VAX-11 MACRO X0.3-11               Page  14
PROGRAM SECTION SYNOPSIS                                                                                                         (1)


PROGRAM SECTION SYNOPSIS

.  ABS  .        00000000      00     NOPIC   USR   CON   ABS   LCL NOSHR NOEXE NORD  NOWRT BYTE
. BLANK .        00000094      01     NOPIC   USR   CON   REL   LCL NOSHR   EXE   RD    WRT BYTE
$ABS$            0000007C      02     NOPIC   USR   CON   ABS   LCL NOSHR   EXE   RD    WRT BYTE
AEXENONPAGED     00000043      03     NOPIC   USR   CON   REL   LCL NOSHR   EXE   RD    WRT BYTE
Y$EXEPAGED       0000006B      04     NOPIC   USR   CON   REL   LCL NOSHR   EXE   RD    WRT BYTE


THERE WERE NO ERRORS OR WARNINGS.
13798. BYTES LEFT IN FREE MEMORY POOL.
3418. BYTES OF RECLAIMED MEMORY.
OBJ$:EXSUBROUT,LIS$:EXSUBROUT/-SP=EXECML$/ML,SRC$:EXSUBROUT
6 MLB DIR RDS - 655 GETS TO DEFINE 19 MACROS. 49 INTER. FILE WRITES.
