GLOBALS         - GLOBAL DEFINITIONS FOR THE EXEC                21-AUG-1978 19:49:05   VAX-11 MACRO X0.3-11               Page   1
0103                                                                                                                             (1)

                                     0000   100 	.TITLE	GLOBALS - GLOBAL DEFINITIONS FOR THE EXEC
                                     0000   200 	.IDENT	/0103/
                                     0000   300
                                     0000   400 	$DYNDEF	GLOBAL			;DYNAMIC DATA STRUCTURE DEFINITIONS
                                     0000   500 	$FCBDEF	GLOBAL			;FILE CONTROL BLOCK DEFINITIONS
                                     0000   600 	$IPLDEF	GLOBAL			;PRIORITY LEVEL DEFINITIONS
                                     0000   650 	$PCBDEF	GLOBAL			;PROCESS CONTROL BLOCK DEFINITIONS
                                     0000   700 	$PRVDEF	GLOBAL			;PRIVILEGE BIT DEFINITIONS
                                     0000   800 	$PSLDEF	GLOBAL			;PROCESSOR STATUS LONG WORD DEFINITIONS
                                     0000   900 	$RSNDEF	GLOBAL			;RESOURCE NUMBER DEFINITIONS
                                     0000  1000 	$VADEF	GLOBAL			;VIRTUAL ADDRESS DEFINITIONS
                                     0000  1100 	$SHRDEF	GLOBAL			;SHARED MESSAGE DEFINITIONS
                                     0000  1200
                                     0000  1300 	.END
GLOBALS         - GLOBAL DEFINITIONS FOR THE EXEC                21-AUG-1978 19:49:05   VAX-11 MACRO X0.3-11               Page   2
SYMBOL TABLE                                                                                                                     (1)

BIT...         = 00001258            FCB$V_DIR      = 00000000  G         PCB$V_ASTPEN   = 00000011  G
DYN$C_ACB      = 00000002  G         FCB$V_EXCL     = 00000003  G         PCB$V_BATCH    = 0000000E  G
DYN$C_ADP      = 00000001  G         FCB$V_MARKDEL  = 00000001  G         PCB$V_DELPEN   = 00000001  G
DYN$C_AQB      = 00000003  G         FCB$V_SPOOL    = 00000004  G         PCB$V_FORCPEN  = 00000002  G
DYN$C_BRDCST   = 0000001A  G         FCB$W_ACNT       00000018  G         PCB$V_HIBER    = 00000013  G
DYN$C_BUFIO    = 00000013  G         FCB$W_AMOD       0000003E  G         PCB$V_INQUAN   = 00000003  G
DYN$C_CEB      = 00000004  G         FCB$W_DIRSEQ     00000044  G         PCB$V_LOGIN    = 00000014  G
DYN$C_CRB      = 00000005  G         FCB$W_FID        00000020  G         PCB$V_NETWRK   = 00000015  G
DYN$C_CXB      = 0000001B  G         FCB$W_FID_NUM    00000020  G         PCB$V_NOACNT   = 0000000F  G
DYN$C_DDB      = 00000006  G         FCB$W_FID_RVN    00000024  G         PCB$V_NODELET  = 00000017  G
DYN$C_DPT      = 0000001E  G         FCB$W_FID_SEQ    00000022  G         PCB$V_PHDRES   = 00000012  G
DYN$C_FCB      = 00000007  G         FCB$W_FILEPROT   0000003C  G         PCB$V_PSWAPM   = 00000004  G
DYN$C_FRK      = 00000008  G         FCB$W_LCNT       0000001A  G         PCB$V_PWRAST   = 00000016  G
DYN$C_GSD      = 00000015  G         FCB$W_SEGN       00000026  G         PCB$V_RES      = 00000000  G
DYN$C_IDB      = 00000009  G         FCB$W_SIZE       00000008  G         PCB$V_RESPEN   = 00000005  G
DYN$C_IRP      = 0000000A  G         FCB$W_STATUS     0000001E  G         PCB$V_SSFEXC   = 00000006  G
DYN$C_JPB      = 0000001F  G         FCB$W_TCNT       00000046  G         PCB$V_SSFEXCE  = 00000007  G
DYN$C_KFH      = 00000026  G         FCB$W_UICGROUP   0000003A  G         PCB$V_SSFEXCS  = 00000008  G
DYN$C_KFI      = 00000018  G         FCB$W_UICMEMBER  00000038  G         PCB$V_SSFEXCU  = 00000009  G
DYN$C_LOG      = 0000000B  G         FCB$W_WCNT       0000001C  G         PCB$V_SSRWAIT  = 0000000A  G
DYN$C_MTL      = 00000019  G         GBL...         = 00000001            PCB$V_SUSPEN   = 0000000B  G
DYN$C_MVL      = 00000016  G         IPL$_ASTDEL    = 00000002  G         PCB$V_SWPVBN   = 00000010  G
DYN$C_NDB      = 0000001C  G         IPL$_HWCLK     = 00000018  G         PCB$V_WAKEPEN  = 0000000C  G
DYN$C_NET      = 00000017  G         IPL$_IOPOST    = 00000004  G         PCB$V_WALL     = 0000000D  G
DYN$C_PBH      = 00000020  G         IPL$_MAILBOX   = 0000000B  G         PCB$W_APTCNT     00000034  G
DYN$C_PCB      = 0000000C  G         IPL$_POWER     = 0000001F  G         PCB$W_ASTCNT     0000003C  G
DYN$C_PDB      = 00000021  G         IPL$_QUEUEAST  = 00000006  G         PCB$W_BIOCNT     0000003E  G
DYN$C_PFL      = 00000023  G         IPL$_SCHED     = 00000003  G         PCB$W_BIOLM      00000040  G
DYN$C_PIB      = 00000022  G         IPL$_SYNCH     = 00000007  G         PCB$W_BYTCNT     00000042  G
DYN$C_PQB      = 0000000D  G         IPL$_TIMER     = 00000007  G         PCB$W_BYTLM      00000068  G
DYN$C_PTR      = 00000025  G         PCB$B_ASTACT     0000000C  G         PCB$W_DIOCNT     00000044  G
DYN$C_RVT      = 0000000E  G         PCB$B_ASTEN      0000000D  G         PCB$W_DIOLM      00000046  G
DYN$C_SFT      = 00000024  G         PCB$B_PRI        0000000B  G         PCB$W_FILCNT     00000048  G
DYN$C_SSB      = 0000001D  G         PCB$B_PRIB       00000033  G         PCB$W_GPGCNT     00000038  G
DYN$C_TQE      = 0000000F  G         PCB$B_TYPE       0000000A  G         PCB$W_GRP        00000022  G
DYN$C_TYPAHD   = 00000014  G         PCB$B_WEFC       00000032  G         PCB$W_MEM        00000020  G
DYN$C_UCB      = 00000010  G         PCB$C_LENGTH     0000007C  G         PCB$W_MTXCNT     0000000E  G
DYN$C_VCB      = 00000011  G         PCB$K_LENGTH     0000007C  G         PCB$W_PPGCNT     0000003A  G
DYN$C_WCB      = 00000012  G         PCB$L_ASTQBL     00000014  G         PCB$W_PRCCNT     0000006A  G
FCB$B_DIRIDX     00000048  G         PCB$L_ASTQFL     00000010  G         PCB$W_SIZE       00000008  G
FCB$B_FID_NMX    00000025  G         PCB$L_EFC2P      00000058  G         PCB$W_STATE      00000030  G
FCB$B_FID_RVN    00000024  G         PCB$L_EFC3P      0000005C  G         PCB$W_TMBU       00000036  G
FCB$B_TYPE       0000000A  G         PCB$L_EFCS       00000050  G         PCB$W_TQCNT      0000004A  G
FCB$C_LENGTH     00000048  G         PCB$L_EFCU       00000054  G         PRV$V_ALLSPOOL = 00000004  G
FCB$K_LENGTH     00000048  G         PCB$L_EFWM       0000004C  G         PRV$V_BUGCHK   = 00000017  G
FCB$L_EFBLK      00000040  G         PCB$L_OWNER      0000001C  G         PRV$V_CMEXEC   = 00000001  G
FCB$L_EXFCB      0000000C  G         PCB$L_PHD        00000064  G         PRV$V_CMKRNL   = 00000000  G
FCB$L_FCBBL      00000004  G         PCB$L_PHYPCB     00000018  G         PRV$V_DETACH   = 00000005  G
FCB$L_FCBFL      00000000  G         PCB$L_PID        00000060  G         PRV$V_DIAGNOSE = 00000006  G
FCB$L_FILEOWNER  00000038  G         PCB$L_PQB        0000004C  G         PRV$V_EXQUOTA  = 00000013  G
FCB$L_FILESIZE   00000034  G         PCB$L_SQBL       00000004  G         PRV$V_GROUP    = 00000008  G
FCB$L_HDLBN      00000030  G         PCB$L_SQFL       00000000  G         PRV$V_GRPNAM   = 00000003  G
FCB$L_STLBN      0000002C  G         PCB$L_STS        00000028  G         PRV$V_LOG_IO   = 00000007  G
FCB$L_STVBN      00000028  G         PCB$L_UIC        00000020  G         PRV$V_MOUNT    = 00000011  G
FCB$L_WLBL       00000014  G         PCB$L_WSSWP      00000024  G         PRV$V_NETMBX   = 00000014  G
FCB$L_WLFL       00000010  G         PCB$L_WTIME      0000002C  G         PRV$V_NOACNT   = 00000009  G
FCB$V_BADBLK   = 00000002  G         PCB$T_LNAME      0000006C  G         PRV$V_OPER     = 00000012  G
GLOBALS         - GLOBAL DEFINITIONS FOR THE EXEC                21-AUG-1978 19:49:05   VAX-11 MACRO X0.3-11               Page   3
SYMBOL TABLE                                                                                                                     (1)

PRV$V_PHY_IO   = 00000016  G         SHR$_BADDELIM  = 00001118  G         SHR$_SEARCHFAIL= 00001238  G
PRV$V_PRMCEB   = 0000000A  G         SHR$_BADFIELD  = 00001018  G         SHR$_SYNTAX    = 000010F8  G
PRV$V_PRMGBL   = 00000018  G         SHR$_BADFORM   = 00001168  G         SHR$_SYSERROR  = 000011B0  G
PRV$V_PRMMBX   = 0000000B  G         SHR$_BADJOBID  = 00001170  G         SHR$_SYSERRORPC= 000010F0  G
PRV$V_PSWAPM   = 0000000C  G         SHR$_BADJOBNAME= 00001178  G         SHR$_TEXT      = 00001130  G
PRV$V_SETPRI   = 0000000D  G         SHR$_BADKEY    = 00001108  G         SHR$_UNXPCTSTS = 000011D0  G
PRV$V_SETPRV   = 0000000E  G         SHR$_BADLOGIC  = 00001120  G         SHR$_VALERR    = 000011E8  G
PRV$V_SYSGBL   = 00000019  G         SHR$_BADLOGICPC= 00001150  G         SHR$_WILDCONCAT= 000010C0  G
PRV$V_SYSNAM   = 00000002  G         SHR$_BADLONG   = 00001020  G         SHR$_WILDOUTVER= 000010C8  G
PRV$V_TMPMBX   = 0000000F  G         SHR$_BADPRTY   = 00001180  G         SHR$_WRITEERR  = 000010D0  G
PRV$V_VOLPRO   = 00000015  G         SHR$_BADQNAME  = 00001188  G         VA$M_BYTE      = 000001FF  G
PRV$V_WORLD    = 00000010  G         SHR$_BADTIME   = 00001190  G         VA$M_P1        = 40000000  G
PSL$C_EXEC     = 00000001  G         SHR$_BADVALUE  = 00001110  G         VA$M_SYSTEM    = 80000000  G
PSL$C_KERNEL   = 00000000  G         SHR$_BADWORD   = 00001028  G         VA$M_VPG       = FFFFFE00  G
PSL$C_SUPER    = 00000002  G         SHR$_BEGIN     = 00001030  G         VA$M_VPN       = 3FFFFE00  G
PSL$C_USER     = 00000003  G         SHR$_BEGIND    = 00001038  G         VA$S_BYTE      = 00000009  G
PSL$M_CM       = 80000000  G         SHR$_BEGINT    = 00001040  G         VA$S_VPG       = 00000017  G
PSL$M_CURMOD   = 03000000  G         SHR$_CLICB     = 00001048  G         VA$S_VPN       = 00000015  G
PSL$M_DV       = 00000080  G         SHR$_CLOSEDEL  = 00001218  G         VA$V_BYTE      = 00000000  G
PSL$M_FPD      = 08000000  G         SHR$_CLOSEIN   = 00001050  G         VA$V_P1        = 0000001E  G
PSL$M_FU       = 00000040  G         SHR$_CLOSEOUT  = 00001058  G         VA$V_SYSTEM    = 0000001F  G
PSL$M_IPL      = 001F0000  G         SHR$_CONFDEL   = 000011F8  G         VA$V_VPG       = 00000009  G
PSL$M_IS       = 04000000  G         SHR$_COPIEDB   = 00001060  G         VA$V_VPN       = 00000009  G
PSL$M_IV       = 00000020  G         SHR$_COPIEDR   = 00001068  G
PSL$M_PRVMOD   = 00C00000  G         SHR$_CREATED   = 00001070  G
PSL$M_SAFBITS  = 000037FF  G         SHR$_DELETED   = 00001200  G
PSL$M_TBIT     = 00000010  G         SHR$_DELINTERR = 00001240  G
PSL$M_TP       = 40000000  G         SHR$_DELVER    = 00001208  G
PSL$S_CURMOD   = 00000002  G         SHR$_DIRTOOBUS = 00001220  G
PSL$S_IPL      = 00000005  G         SHR$_ENDED     = 00001078  G
PSL$S_PRVMOD   = 00000002  G         SHR$_ENDEDD    = 00001080  G
PSL$V_CM       = 0000001F  G         SHR$_ENDEDT    = 00001088  G
PSL$V_CURMOD   = 00000018  G         SHR$_FILNOTDEL = 000011F0  G
PSL$V_DV       = 00000007  G         SHR$_FILNOTPUR = 00001230  G
PSL$V_FPD      = 0000001B  G         SHR$_FILPURGED = 00001250  G
PSL$V_FU       = 00000006  G         SHR$_HASHCONCAT= 000011D8  G
PSL$V_IPL      = 00000010  G         SHR$_HIGHVER   = 00001148  G
PSL$V_IS       = 0000001A  G         SHR$_IDXCONCAT = 00001138  G
PSL$V_IV       = 00000005  G         SHR$_INCOMPAT  = 000011E0  G
PSL$V_PRVMOD   = 00000016  G         SHR$_NEWFILES  = 00001090  G
PSL$V_TBIT     = 00000004  G         SHR$_NOFILPURG = 00001228  G
PSL$V_TP       = 0000001E  G         SHR$_NOJOBID   = 000011A0  G
RSN$_ASTWAIT   = 00000001  G         SHR$_NOJOBNAME = 000011A8  G
RSN$_BRKTHRU   = 00000006  G         SHR$_NOQUEUE   = 00001198  G
RSN$_IACLOCK   = 00000007  G         SHR$_NOTCMPLT  = 000011C0  G
RSN$_MAILBOX   = 00000002  G         SHR$_NOTCOPIED = 000011B8  G
RSN$_NPDYNMEM  = 00000003  G         SHR$_NOVALUE   = 00001100  G
RSN$_PGDYNMEM  = 00000005  G         SHR$_NOWILD    = 00001128  G
RSN$_PGFILE    = 00000004  G         SHR$_OPENIN    = 00001098  G
SHR$_ABEND     = 000010D8  G         SHR$_OPENOUT   = 000010A0  G
SHR$_ABENDD    = 000010E0  G         SHR$_OVERLAY   = 000010A8  G
SHR$_ABENDT    = 000010E8  G         SHR$_PARSEFAIL = 00001248  G
SHR$_APPENDEDB = 00001000  G         SHR$_PURGEVER  = 00001210  G
SHR$_APPENDEDR = 00001008  G         SHR$_READERR   = 000010B0  G
SHR$_ATPC      = 00001158  G         SHR$_RELCONCAT = 00001140  G
SHR$_BADBYTE   = 00001010  G         SHR$_REPLACED  = 000010B8  G
SHR$_BADCOPIES = 00001160  G         SHR$_RMSERROR  = 000011C8  G
GLOBALS         - GLOBAL DEFINITIONS FOR THE EXEC                21-AUG-1978 19:49:05   VAX-11 MACRO X0.3-11               Page   4
PROGRAM SECTION SYNOPSIS                                                                                                         (1)


PROGRAM SECTION SYNOPSIS

.  ABS  .        00000000      00     NOPIC   USR   CON   ABS   LCL NOSHR NOEXE NORD  NOWRT BYTE
. BLANK .        00000000      01     NOPIC   USR   CON   REL   LCL NOSHR   EXE   RD    WRT BYTE
$ABS$            0000007C      02     NOPIC   USR   CON   ABS   LCL NOSHR   EXE   RD    WRT BYTE


THERE WERE NO ERRORS OR WARNINGS.
18388. BYTES LEFT IN FREE MEMORY POOL.
1578. BYTES OF RECLAIMED MEMORY.
OBJ$:GLOBALS,LIS$:GLOBALS/-SP=EXECML$/ML,SRC$:GLOBALS
3 MLB DIR RDS - 530 GETS TO DEFINE 18 MACROS. 40 INTER. FILE WRITES.
