NLDRIVER        - NULL DEVICE DRIVER                             21-AUG-1978 20:56:50   VAX-11 MACRO X0.3-11               Page   0
TABLE OF CONTENTS

   (1)      62  NULL DEVICE FUNCTION DECISION TABLE
   (1)      84  NULL DEVICE FUNCTION DECISION TABLE ROUTINES
NLDRIVER        - NULL DEVICE DRIVER                             21-AUG-1978 20:56:50   VAX-11 MACRO X0.3-11               Page   1
01                                                                                                                               (1)

                                     0000     1 	.TITLE	NLDRIVER - NULL DEVICE DRIVER
                                     0000     2 	.IDENT	/01/
                                     0000     3
                                     0000     4 ;
                                     0000     5 ; COPYRIGHT (C) 1977
                                     0000     6 ; DIGITAL EQUIPMENT CORPORATION, MAYNARD, MASS.
                                     0000     7 ;
                                     0000     8 ; THIS SOFTWARE IS FURNISHED UNDER  A LICENSE FOR USE ONLY  ON  A
                                     0000     9 ; SINGLE COMPUTER SYSTEM AND MAY BE  COPIED ONLY WITH  THE INCLU-
                                     0000    10 ; SION OF  THE  ABOVE  COPYRIGHT NOTICE.  THIS SOFTWARE,  OR  ANY
                                     0000    11 ; OTHER COPIES THEREOF, MAY NOT BE  PROVIDED  OR  OTHERWISE  MADE
                                     0000    12 ; AVAILABLE TO ANY OTHER PERSON EXCEPT  FOR  USE  ON  SUCH SYSTEM
                                     0000    13 ; AND TO  ONE WHO AGREES  TO  THESE LICENSE  TERMS.  TITLE TO AND
                                     0000    14 ; OWNERSHIP OF THE SOFTWARE SHALL AT ALL TIMES REMAIN IN DEC.
                                     0000    15 ;
                                     0000    16 ; THE INFORMATION IN THIS SOFTWARE  IS  SUBJECT TO CHANGE WITHOUT
                                     0000    17 ; NOTICE AND SHOULD NOT BE CONSTRUED  AS  A COMMITMENT BY DIGITAL
                                     0000    18 ; EQUIPMENT CORPORATION.
                                     0000    19 ;
                                     0000    20 ; DEC ASSUMES NO RESPONSIBILITY FOR THE USE OR RELIABILITY OF ITS
                                     0000    21 ; SOFTWARE ON EQUIPMENT WHICH IS NOT SUPPLIED BY DEC.
                                     0000    22 ;
                                     0000    23 ; D. N. CUTLER 8-AUG-77
                                     0000    24 ;
                                     0000    25 ; NULL DEVICE DRIVER
                                     0000    26 ;
                                     0000    27 ; MACRO LIBRARY CALLS
                                     0000    28 ;
                                     0000    29
                                     0000    30 	$IODEF				;DEFINE I/O FUNCTION CODES
                                     0000    31
                                     0000    32 ;
                                     0000    33 ; LOCAL DATA
                                     0000    34 ;
                                     0000    35 ; DRIVER PROLOGUE TABLE
                                     0000    36 ;
                                     0000    37
                                 00000000    38 	.PSECT	$$$105_PROLOGUE
                                     0000    39 NL$DPT::				;
                                     0000    40 	DPTAB	-			;DEFINE DRIVER PROLOGUE TABLE
                                     0000    41 		END=NL_END,-		;END OF DRIVER
                                     0000    42 		ADAPTER=UBA,-		;ADAPTER TYPE
                                     0000    43 		UCBSIZE=116,-		;UCB SIZE
                                     0000    44 		NAME=NLDRIVER		;DRIVER NAME
                                     001F    45 	DPT_STORE INIT			;CONTROL BLOCK INIT VALUES
                                     001F    46 	DPT_STORE REINIT		;CONTROL BLOCK RE-INIT VALUES
                                     001F    47 	DPT_STORE END			;
                                     0000    48
                                     0000    49 ;
                                     0000    50 ; DRIVER DISPATCH TABLE
                                     0000    51 ;
                                     0000    52
                                     0000    53 	DDTAB	NL,-			;DRIVER DISPATCH TABLE
                                     0000    54 		0,-			;START I/O OPERATION
                                     0000    55 		0,-			;UNSOLICITED INTERRUPT
                                     0000    56 		FUNCTABLE,-		;FUNCTION DECISION TABLE ADDRESS
                                     0000    57 		0,-			;CANCEL I/O ENTRY POINT
NLDRIVER        - NULL DEVICE DRIVER                             21-AUG-1978 20:56:50   VAX-11 MACRO X0.3-11               Page   2
01                                                                                                                               (1)

                                     0000    58 		0,-			;ADDRESS OF REGISTER DUMP ROUTINE
                                     0000    59 		0,-			;SIZE OF DIAGNOSTIC BUFFER
                                     0000    60 		0			;SIZE OF ERROR LOG BUFFER
NLDRIVER        - NULL DEVICE DRIVER                             21-AUG-1978 20:56:50   VAX-11 MACRO X0.3-11               Page   3
01              NULL DEVICE FUNCTION DECISION TABLE                                                                              (1)

                                     0018    62 	.SBTTL	NULL DEVICE FUNCTION DECISION TABLE
                                     0018    63 ;+
                                     0018    64 ; NULL DEVICE FUNCTION DECISION TABLE
                                     0018    65 ;-
                                     0018    66
                                     0018    67 FUNCTABLE:				;FUNCTION DECISION TABLE
                                     0018    68 	FUNCTAB	,-			;LEGAL FUNCTIONS
                                     0018    69 		<READLBLK,-		;READ LOGICAL BLOCK
                                     0018    70 		 READVBLK,-		;READ VIRTUAL BLOCK
                                     0018    71 		 WRITEOF,-		;WRITE EOF
                                     0018    72 		 WRITELBLK,-		;WRITE LOGICAL BLOCK
                                     0018    73 		 WRITEVBLK>		;WRITE VIRTUAL BLOCK
                                     0020    74 	FUNCTAB	,-			;BUFFERED I/O FUNCTIONS
                                     0020    75 		<>			;NO BUFFERED I/O FUNCTIONS
                                     0028    76 	FUNCTAB	READ,-			;READ FUNCTIONS
                                     0028    77 		<READLBLK,-		;READ LOGICAL BLOCK
                                     0028    78 		 READVBLK>		;READ VIRTUAL BLOCK
                                     0034    79 	FUNCTAB	WRITE,-			;WRITE FUNCTIONS
                                     0034    80 		<WRITELBLK,-		;WRITE LOGICAL BLOCK
                                     0034    81 		WRITEOF,-		;WRITE EOF
                                     0034    82 		 WRITEVBLK>		;WRITE VIRTUAL BLOCK
NLDRIVER        - NULL DEVICE DRIVER                             21-AUG-1978 20:56:50   VAX-11 MACRO X0.3-11               Page   4
01              NULL DEVICE FUNCTION DECISION TABLE ROUTINES                                                                     (1)

                                     0040    84 	.SBTTL	NULL DEVICE FUNCTION DECISION TABLE ROUTINES
                                     0040    85 ;+
                                     0040    86 ; READ - READ FUNCTIONS
                                     0040    87 ; WRITE - WRITE FUNCTIONS
                                     0040    88 ;
                                     0040    89 ; THE NULL DEVICE IS A SPECIAL DEVICE IN THAT ALL WRITES ARE DISCARDED AND ALL
                                     0040    90 ; READS RETURN AN END OF FILE STATUS. THERE IS NO ACTUAL DRIVER, BUT RATHER ALL
                                     0040    91 ; PROCESSING IS DONE BY FUNCTION DECISION TABLE ROUTINES.
                                     0040    92 ;
                                     0040    93 ; INPUTS:
                                     0040    94 ;
                                     0040    95 ;	R0 = SCRATCH.
                                     0040    96 ;	R1 = SCRATCH.
                                     0040    97 ;	R2 = SCRATCH.
                                     0040    98 ;	R3 = ADDRESS OF I/O REQUEST PACKET.
                                     0040    99 ;	R4 = CURRENT PROCESS PCB ADDRESS.
                                     0040   100 ;	R5 = ASSIGNED DEVICE UCB ADDRESS.
                                     0040   101 ;	R6 = ADDRESS OF CCB.
                                     0040   102 ;	R7 = I/O FUNCTION CODE BIT NUMBER.
                                     0040   103 ;	R8 = FUNCTION DECISION TABLE DISPATCH ADDRESS.
                                     0040   104 ;	R9 = SCRATCH.
                                     0040   105 ;	R10 = SCRATCH.
                                     0040   106 ;	R11 = SCRATCH.
                                     0040   107 ;	AP = ADDRESS OF FIRST FUNCTION DEPENDENT PARAMETER.
                                     0040   108 ;
                                     0040   109 ; OUTPUTS:
                                     0040   110 ;
                                     0040   111 ;	IF THE FUNCTION IS A READ, THEN SS$_ENDOFFILE IS RETURNED.
                                     0040   112 ;
                                     0040   113 ;	IF THE FUNCTION IS A WRITE, THEN SS$_NORMAL IS RETURNED.
                                     0040   114 ;-
                                     0040   115
                                     0040   116 	.ENABL	LSB
                                 00000000   117 	.PSECT	Y$EXEPAGED
            50       0000'8F     3C  0000   118 READ:	MOVZWL	#SS$_ENDOFFILE,R0	;SET END OF FILE STATUS
                          05     11  0005   119 	BRB	10$			;
            50       0000'8F     3C  0007   120 WRITE:	MOVZWL	#SS$_NORMAL,R0		;SET NORMAL COMPLETION
                 00000000'EF     17  000C   121 10$:	JMP	EXE$FINISHIOC		;FINISH I/O OPERATION
                                     0012   122 	.DSABL	LSB
                                     0012   123 NL_END:					;ADDRESS OF LAST LOCATION IN DRIVER
                                     0012   124
                                     0012   125 	.END
NLDRIVER        - NULL DEVICE DRIVER                             21-AUG-1978 20:56:50   VAX-11 MACRO X0.3-11               Page   5
SYMBOL TABLE                                                                                                                     (1)

AT$_UBA          ********   X   03   IO$V_CTRLYAST  = 00000007            IO$_REWINDOFF  = 00000022
BIT...         = 0000000A            IO$V_CVTLOW    = 00000008            IO$_SEARCH     = 00000009
DPT$INITAB       0000001F R     03   IO$V_DATACHECK = 0000000E            IO$_SEEK       = 00000002
DPT$REINITAB     0000001F R     03   IO$V_DELETE    = 00000008            IO$_SENSECHAR  = 0000001B
DPT$TAB          00000000 R     03   IO$V_DMOUNT    = 0000000A            IO$_SENSEMODE  = 00000027
DYN$C_DPT        ********   X   03   IO$V_DSABLMBX  = 0000000A            IO$_SETCHAR    = 0000001A
EXE$FINISHIOC    ********   X   05   IO$V_ENABLMBX  = 00000007            IO$_SETMODE    = 00000023
FUNCTABLE        00000018 R     04   IO$V_FCODE     = 00000000            IO$_SKIPFILE   = 00000025
GBL...         = 00000000            IO$V_HANGUP    = 00000009            IO$_SKIPRECORD = 00000026
IO$M_ABORT     = 00000100            IO$V_INHERLOG  = 0000000B            IO$_SPACEFILE  = 00000002
IO$M_ACCESS    = 00000040            IO$V_INHEXTGAP = 0000000C            IO$_SPACERECORD= 00000009
IO$M_ATTNAST   = 00000100            IO$V_INHRETRY  = 0000000F            IO$_STARTSPNDL = 00000019
IO$M_BINARY    = 00000040            IO$V_INHSEEK   = 0000000C            IO$_UNLOAD     = 00000001
IO$M_CANCTRLO  = 00000040            IO$V_INTERRUPT = 00000006            IO$_VIRTUAL    = 0000003F
IO$M_COMMOD    = 00000040            IO$V_INTSKIP   = 00000008            IO$_WRITECHECK = 0000000A
IO$M_CREATE    = 00000080            IO$V_MOUNT     = 00000009            IO$_WRITECHECKH= 00000018
IO$M_CTRLCAST  = 00000100            IO$V_NOECHO    = 00000006            IO$_WRITEHEAD  = 0000000D
IO$M_CTRLYAST  = 00000080            IO$V_NOFILTR   = 00000009            IO$_WRITELBLK  = 00000020
IO$M_CVTLOW    = 00000100            IO$V_NOFORMAT  = 00000008            IO$_WRITEMARK  = 0000001C
IO$M_DATACHECK = 00004000            IO$V_NOW       = 00000006            IO$_WRITEOF    = 00000028
IO$M_DELETE    = 00000100            IO$V_NOWAIT    = 00000007            IO$_WRITEPBLK  = 0000000B
IO$M_DMOUNT    = 00000400            IO$V_PACKED    = 00000007            IO$_WRITETRACKD= 0000000F
IO$M_DSABLMBX  = 00000400            IO$V_PURGE     = 0000000B            IO$_WRITEVBLK  = 00000030
IO$M_ENABLMBX  = 00000080            IO$V_READATTN  = 00000007            IOC$RETURN       ********   X   04
IO$M_FCODE     = 0000003F            IO$V_REVERSE   = 00000006            MASKH          = 00010101
IO$M_HANGUP    = 00000200            IO$V_SHUTDOWN  = 00000007            MASKL          = 00000000
IO$M_INHERLOG  = 00000800            IO$V_STARTUP   = 00000006            NL$DDT           00000000 RG    04
IO$M_INHEXTGAP = 00001000            IO$V_SYNCH     = 00000009            NL$DPT           00000000 RG    03
IO$M_INHRETRY  = 00008000            IO$V_TIMED     = 00000007            NL_END           00000012 R     05
IO$M_INHSEEK   = 00001000            IO$V_TRMNOECHO = 0000000C            READ             00000000 R     05
IO$M_INTERRUPT = 00000040            IO$V_WRTATTN   = 00000008            SS$_ENDOFFILE    ********   X   05
IO$M_INTSKIP   = 00000100            IO$_ACCESS     = 00000032            SS$_NORMAL       ********   X   05
IO$M_MOUNT     = 00000200            IO$_ACPCONTROL = 00000038            WRITE            00000007 R     05
IO$M_NOECHO    = 00000040            IO$_CREATE     = 00000033
IO$M_NOFILTR   = 00000200            IO$_DEACCESS   = 00000034
IO$M_NOFORMAT  = 00000100            IO$_DELETE     = 00000035
IO$M_NOW       = 00000040            IO$_DIAGNOSE   = 0000001D
IO$M_NOWAIT    = 00000080            IO$_DRVCLR     = 00000004
IO$M_PACKED    = 00000080            IO$_ERASETAPE  = 00000006
IO$M_PURGE     = 00000800            IO$_LOGICAL    = 0000002F
IO$M_READATTN  = 00000080            IO$_MODIFY     = 00000036
IO$M_REVERSE   = 00000040            IO$_MOUNT      = 00000039
IO$M_SHUTDOWN  = 00000080            IO$_NOP        = 00000000
IO$M_STARTUP   = 00000040            IO$_OFFSET     = 00000006
IO$M_SYNCH     = 00000200            IO$_PACKACK    = 00000008
IO$M_TIMED     = 00000080            IO$_PHYSICAL   = 0000001F
IO$M_TRMNOECHO = 00001000            IO$_READHEAD   = 0000000E
IO$M_WRTATTN   = 00000100            IO$_READLBLK   = 00000021
IO$S_FCODE     = 00000006            IO$_READPBLK   = 0000000C
IO$V_ABORT     = 00000008            IO$_READPRESET = 00000019
IO$V_ACCESS    = 00000006            IO$_READPROMPT = 00000037
IO$V_ATTNAST   = 00000008            IO$_READTRACKD = 00000010
IO$V_BINARY    = 00000006            IO$_READVBLK   = 00000031
IO$V_CANCTRLO  = 00000006            IO$_RECAL      = 00000003
IO$V_COMMOD    = 00000006            IO$_RELEASE    = 00000005
IO$V_CREATE    = 00000007            IO$_RETCENTER  = 00000007
IO$V_CTRLCAST  = 00000008            IO$_REWIND     = 00000024
NLDRIVER        - NULL DEVICE DRIVER                             21-AUG-1978 20:56:50   VAX-11 MACRO X0.3-11               Page   6
PROGRAM SECTION SYNOPSIS                                                                                                         (1)


PROGRAM SECTION SYNOPSIS

.  ABS  .        00000000      00     NOPIC   USR   CON   ABS   LCL NOSHR NOEXE NORD  NOWRT BYTE
. BLANK .        00000000      01     NOPIC   USR   CON   REL   LCL NOSHR   EXE   RD    WRT BYTE
$ABS$            00000000      02     NOPIC   USR   CON   ABS   LCL NOSHR   EXE   RD    WRT BYTE
$$$105_PROLOGUE  00000020      03     NOPIC   USR   CON   REL   LCL NOSHR   EXE   RD    WRT BYTE
$$$115_DRIVER    00000040      04     NOPIC   USR   CON   REL   LCL NOSHR   EXE   RD    WRT LONG
Y$EXEPAGED       00000012      05     NOPIC   USR   CON   REL   LCL NOSHR   EXE   RD    WRT BYTE


THERE WERE NO ERRORS OR WARNINGS.
20246. BYTES LEFT IN FREE MEMORY POOL.
1940. BYTES OF RECLAIMED MEMORY.
OBJ$:NLDRIVER,LIS$:NLDRIVER/-SP=EXECML$/ML,SRC$:NLDRIVER
3 MLB DIR RDS - 327 GETS TO DEFINE 14 MACROS. 21 INTER. FILE WRITES.
