OPENMSG         - OPEN MESSAGE FILES FOR SYSTEM OUTPUT AND ERRO  21-AUG-1978 20:01:07   VAX-11 MACRO X0.3-11               Page   0
TABLE OF CONTENTS

   (1)      52  OPEN MESSAGE FILES FOR SYSTEM OUTPUT AND ERROR
   (1)     163  INTERNAL SUBROUTINES
OPENMSG         - OPEN MESSAGE FILES FOR SYSTEM OUTPUT AND ERRO  21-AUG-1978 20:01:07   VAX-11 MACRO X0.3-11               Page   1
01                                                                                                                               (1)

                                     0000     1 	.TITLE OPENMSG - OPEN MESSAGE FILES FOR SYSTEM OUTPUT AND ERROR
                                     0000     2 	.IDENT	/01/
                                     0000     3
                                     0000     4 ;
                                     0000     5 ; COPYRIGHT (C) 1978
                                     0000     6 ; DIGITAL EQUIPMENT CORPORATION, MAYNARD, MASS.
                                     0000     7 ;
                                     0000     8 ; THIS SOFTWARE IS FURNISHED UNDER  A LICENSE FOR USE ONLY  ON  A
                                     0000     9 ; SINGLE COMPUTER SYSTEM AND MAY BE  COPIED ONLY WITH  THE INCLU-
                                     0000    10 ; SION OF  THE  ABOVE  COPYRIGHT NOTICE.  THIS SOFTWARE,  OR  ANY
                                     0000    11 ; OTHER COPIES THEREOF, MAY NOT BE  PROVIDED  OR  OTHERWISE  MADE
                                     0000    12 ; AVAILABLE TO ANY OTHER PERSON EXCEPT  FOR  USE  ON  SUCH SYSTEM
                                     0000    13 ; AND TO  ONE WHO AGREES  TO  THESE LICENSE  TERMS.  TITLE TO AND
                                     0000    14 ; OWNERSHIP OF THE SOFTWARE SHALL AT ALL TIMES REMAIN IN DEC.
                                     0000    15 ;
                                     0000    16 ; THE INFORMATION IN THIS SOFTWARE  IS  SUBJECT TO CHANGE WITHOUT
                                     0000    17 ; NOTICE AND SHOULD NOT BE CONSTRUED  AS  A COMMITMENT BY DIGITAL
                                     0000    18 ; EQUIPMENT CORPORATION.
                                     0000    19 ;
                                     0000    20 ; DEC ASSUMES NO RESPONSIBILITY FOR THE USE OR RELIABILITY OF ITS
                                     0000    21 ; SOFTWARE ON EQUIPMENT WHICH IS NOT SUPPLIED BY DEC.
                                     0000    22 ;
                                     0000    23 ; D. N. CUTLER 9-JAN-78
                                     0000    24 ;
                                     0000    25 ; OPEN MESSAGE FILES FOR SYSTEM OUTPUT AND ERROR
                                     0000    26 ;
                                     0000    27 ; MACRO LIBRARY CALLS
                                     0000    28 ;
                                     0000    29
                                     0000    30 	$FABDEF				;DEFINE FAB OFFSETS
                                     0000    31 	$LOGDEF				;DEFINE LOG OFFSETS
                                     0000    32 	$PSLDEF				;DEFINE PROCESSOR STATUS FIELDS
                                     0000    33 	$RABDEF				;DEFINE RAB OFFSETS
                                     0000    34
                                     0000    35 ;
                                     0000    36 ; LOCAL SYMBOLS
                                     0000    37 ;
                                     0000    38
                           00000100  0000    39 BUFSIZ=256				;MAXIMUM RECORD SIZE
                           0000011B  0000    40 ESCAPE=1@8+27				;ESCAPE EQUIVALENCE NAME PREFIX
                                     0000    41
                                     0000    42 ;
                                     0000    43 ; LOCAL DATA
                                     0000    44 ;
                                     0000    45
                                 00000000    46 	.PSECT	YEXEPAGED,BYTE
      52 4F 52 52 45 24 53 59 53 00' 0000    47 ERRNAM:	.ASCIC	/SYS$ERROR/		;'SYS$ERROR' FILE NAME STRING
                                 09  0000
                     47 4F 4C 2E 00' 000A    48 FILTYP:	.ASCIC	/.LOG/			;DEFAULT FILE NAME STRING
                                 04  000A
   47 53 4D 54 55 50 24 53 59 53 00' 000F    49 ISINAM:	.ASCIC	/SYS$PUTMSG/		;'SYS$PUTMSG' FILE NAME STRING
                                 0A  000F
   54 55 50 54 55 4F 24 53 59 53 00' 001A    50 OUTNAM:	.ASCIC	/SYS$OUTPUT/		;'SYS$OUTPUT' FILE NAME STRING
                                 0A  001A
OPENMSG         - OPEN MESSAGE FILES FOR SYSTEM OUTPUT AND ERRO  21-AUG-1978 20:01:07   VAX-11 MACRO X0.3-11               Page   2
01              OPEN MESSAGE FILES FOR SYSTEM OUTPUT AND ERROR                                                                   (1)

                                     0025    52 	.SBTTL	OPEN MESSAGE FILES FOR SYSTEM OUTPUT AND ERROR
                                     0025    53 ;+
                                     0025    54 ; EXE$OPEN_MSG - OPEN FILES FOR SYSTEM OUTPUT AND ERROR
                                     0025    55 ;
                                     0025    56 ; THIS ROUTINE IS CALLED TO OPEN FILES FOR SYSTEM OUTPUT AND ERROR.
                                     0025    57 ;
                                     0025    58 ; INPUTS:
                                     0025    59 ;
                                     0025    60 ;	NONE.
                                     0025    61 ;
                                     0025    62 ; OUTPUTS:
                                     0025    63 ;
                                     0025    64 ;	RAB'S ARE ALLOCATED ON THE STACK FOR THE FILES 'SYS$OUTPUT' AND
                                     0025    65 ;	'SYS$ERROR', AND THE FILE ISI VALUES ARE OBTAINED EITHER BY ACTUALLY
                                     0025    66 ;	OPENING THE RESPECTIVE FILES OR BY LOGICAL NAME TRANSLATION.
                                     0025    67 ;
                                     0025    68 ;	R10 = ADDRESS OF ALLOCATED 'SYS$OUTPUT' RAB.
                                     0025    69 ;	R11 = ADDRESS OF ALLOCATED 'SYS$ERROR' RAB.
                                     0025    70 ;-
                                     0025    71
                                     0025    72 EXE$OPEN_MSG::				;OPEN MESSAGE FILES FOR SYSTEM OUTPUT AND ERROR
                          50   8ED0  0025    73 	POPL	R0			;SAVE RETURN ADDRESS
            5A         BC AE     9E  0028    74 	MOVAB	-RAB$C_BLN(SP),R10	;ALLOCATE SPACE FOR 'SYS$OUTPUT' RAB
            5B       FF78 CE     9E  002C    75 	MOVAB	-2*RAB$C_BLN(SP),R11	;ALLOCATE SPACE FOR 'SYS$ERROR' RAB
            5E            5B     D0  0031    76 	MOVL	R11,SP			;SET NEW STACK ADDRESS
                          50     DD  0034    77 	PUSHL	R0			;RESTORE RETURN ADDRESS
            5E         B0 AE     9E  0036    78 	MOVAB	-FAB$C_BLN(SP),SP	;ALLOCATE SPACE FOR FAB
            59            5E     D0  003A    79 	MOVL	SP,R9			;SAVE ADDRESS OF FAB
            69            00     2C  003D    80 	MOVC5	#0,(R9),#0,#FAB$C_BLN,(R9) ;CLEAR FAB
       0050 8F            00         0040
                          69         0044
         01 A9         50 8F     90  0045    81 	MOVB	#FAB$C_BLN,FAB$B_BLN(R9) ;SET LENGTH OF FAB
            69            03     90  004A    82 	MOVB	#FAB$C_BID,FAB$B_BID(R9) ;SET IDENTIFICATION OF FAB
         35 A9         BA AF     90  004D    83 	MOVB	FILTYP,FAB$B_DNS(R9)	;SET DEFAULT NAME STRING SIZE
         30 A9         B6 AF     9E  0052    84 	MOVAB	FILTYP+1,FAB$L_DNA(R9)	;SET DEFAULT NAME STRING ADDRESS
         36 A9       0100 8F     B0  0057    85 	MOVW	#BUFSIZ,FAB$W_MRS(R9)	;SET MAXIMUM RECORD SIZE
         16 A9            01     90  005D    86 	MOVB	#FAB$M_PUT,FAB$B_FAC(R9) ;SET FILE ACCESS MODE
                                     0061    87
                                     0061    88 	ASSUME	FAB$M_SQO LE 255
                                     0061    89
         04 A9         40 8F     9A  0061    90 	MOVZBL	#FAB$M_SQO,FAB$L_FOP(R9) ;SET FILE OPEN OPTIONS
            6A            00     2C  0066    91 	MOVC5	#0,(R10),#0,#RAB$C_BLN,(R10) ;CLEAR OUTPUT FILE RAB
       0044 8F            00         0069
                          6A         006D
            6A            01     90  006E    92 	MOVB	#RAB$C_BID,RAB$B_BID(R10) ;SET RAB BLOCK IDENTIFICATION
         01 AA         44 8F     90  0071    93 	MOVB	#RAB$C_BLN,RAB$B_BLN(R10) ;SET RAB BLOCK LENGTH
         3C AA            59     D0  0076    94 	MOVL	R9,RAB$L_FAB(R10)	;SET ADDRESS OF FAB
            6A       0044 8F     28  007A    95 	MOVC	#RAB$C_BLN,(R10),(R11)	;DUPLICATE OUTPUT FILE RAB
                          6B         007F
                                     0080    96
                                     0080    97 	ASSUME	RAB$V_CCO EQ 31
                                     0080    98
         07 AB         80 8F     90  0080    99 	MOVB	#RAB$M_CCO@-24,RAB$L_ROP+3(R11) ;SET CANCEL CONTROL O
                       88 AF     9F  0085   100 	PUSHAB	ISINAM+1		;BUILD ISI NAME STRING DESCRIPTOR
            7E         84 AF     9A  0088   101 	MOVZBL	ISINAM,-(SP)		;
            58            5E     D0  008C   102 	MOVL	SP,R8			;SAVE ADDRESS OF ISI NAME STRING DESCRIPTOR
                          7E     7C  008F   103 	CLRQ	-(SP)			;CLEAR STORAGE FOR EQUIVALENCE NAME
OPENMSG         - OPEN MESSAGE FILES FOR SYSTEM OUTPUT AND ERRO  21-AUG-1978 20:01:07   VAX-11 MACRO X0.3-11               Page   3
01              OPEN MESSAGE FILES FOR SYSTEM OUTPUT AND ERROR                                                                   (1)

            57            5E     D0  0091   104 	MOVL	SP,R7			;SAVE ADDRESS OF EQUIVALENCE NAME
                          67     9F  0094   105 	PUSHAB	(R7)			;BUILD EQUIVALENCE NAME DESCRIPTOR
                          06     DD  0096   106 	PUSHL	#6			;
            56            5E     D0  0098   107 	MOVL	SP,R6			;SAVE ADDRESS OF EQUIVALENCE NAME DESCRIPTOR
                                     009B   108 	$TRNLOG_S (R8),,(R6)		;TRANSLATE LOGICAL NAME
            50            00'    B1  00AE   109 	CMPW	S^#SS$_NORMAL,R0	;NORMAL COMPLETION?
                          07     12  00B1   110 	BNEQ	10$			;IF NEQ NO
            67       011B 8F     B1  00B3   111 	CMPW	#ESCAPE,(R7)		;SPECIAL ESCAPE EQUIVALENCE NAME?
                          4B     13  00B8   112 	BEQL	40$			;IF EQL YES
                                     00BA   113
                                     00BA   114 ;
                                     00BA   115 ; CREATE FILES FOR SYS$OUTPUT AND SYS$ERROR AND SAVE RESULTANT ISI VALUES
                                     00BA   116 ;
                                     00BA   117
            50       FF42 CF     9E  00BA   118 10$:	MOVAB	ERRNAM,R0		;GET ADDRESS OF 'SYS$ERROR' NAME STRING
                          61     10  00BF   119 	BSBB	CREATE_FILE		;CREATE 'SYS$ERROR' FILE
            55            54     D0  00C1   120 	MOVL	R4,R5			;SAVE 'SYS$ERROR' IFI
            50       FF52 CF     9E  00C4   121 	MOVAB	OUTNAM,R0		;GET ADDRESS OF 'SYS$OUTPUT' NAME STRING
                          57     10  00C9   122 	BSBB	CREATE_FILE		;CREATE 'SYS$OUTPUT' FILE
            52            55     D0  00CB   123 	MOVL	R5,R2			;SET 'SYS$ERROR' IFI
            53            5B     D0  00CE   124 	MOVL	R11,R3			;SET 'SYS$ERROR' RAB
                          41     10  00D1   125 	BSBB	CONNECT_RAB		;CONNECT RECORD STREAM
            55            54     B1  00D3   126 	CMPW	R4,R5			;'SYS$OUTPUT' AND 'SYS$ERROR' IFI'S MATCH?
                          0A     13  00D6   127 	BEQL	20$			;IF EQL YES
                                     00D8   128
                                     00D8   129 ;
                                     00D8   130 ; 'SYS$ERROR' AND 'SYS$OUTPUT' ARE NOT THE SAME FILE
                                     00D8   131 ;
                                     00D8   132
            52            54     D0  00D8   133 	MOVL	R4,R2			;SET 'SYS$OUTPUT' IFI
            53            5A     D0  00DB   134 	MOVL	R10,R3			;SET 'SYS$OUTPUT' RAB
                          34     10  00DE   135 	BSBB	CONNECT_RAB		;CONNECT RECORD STREAM
                          05     11  00E0   136 	BRB	30$			;
                                     00E2   137
                                     00E2   138 ;
                                     00E2   139 ; 'SYS$ERROR' AND 'SYS$OUTPUT' ARE SAME FILE
                                     00E2   140 ;
                                     00E2   141
         02 AA         02 AB     B0  00E2   142 20$:	MOVW	RAB$W_ISI(R11),RAB$W_ISI(R10) ;COPY ISI NUMBER
                                     00E7   143
                                     00E7   144 ;
                                     00E7   145 ; CREATE LOGICAL NAME EQUIVALENCED TO 'SYS$ERROR' AND 'SYS$OUTPUT' ISI NUMBERS
                                     00E7   146 ;
                                     00E7   147
            67       011B 8F     B0  00E7   148 30$:	MOVW	#ESCAPE,(R7)		;INSERT SPECIAL ESCAPE PREFIX
         02 A7         02 AA     B0  00EC   149 	MOVW	RAB$W_ISI(R10),2(R7)	;INSERT 'SYS$OUTPUT' ISI NUMBER
         04 A7         02 AB     B0  00F1   150 	MOVW	RAB$W_ISI(R11),4(R7)	;INSERT 'SYS$ERROR' ISI NUMBER
                                     00F6   151 	$CRELOG_S #LOG$C_PROCESS,(R8),-	;CREATE LOGICAL NAME
                                     00F6   152 		(R6),#PSL$C_USER	;
                                     0105   153
                                     0105   154 ;
                                     0105   155 ; INSERT ISI NUMBERS IN RABS AND RETRIEVE ERROR/OUTPUT EQUIVALENCE INDICATOR
                                     0105   156 ;
                                     0105   157
         02 AA         02 A7     B0  0105   158 40$:	MOVW	2(R7),RAB$W_ISI(R10)	;INSERT 'SYS$OUTPUT' ISI NUMBER
         02 AB         04 A7     B0  010A   159 	MOVW	4(R7),RAB$W_ISI(R11)	;INSERT 'SYS$ERROR' ISI NUMBER
            5E         68 AE     9E  010F   160 	MOVAB	FAB$C_BLN+8+8+8(SP),SP	;REMOVE ALLOCATED SPACE FROM STACK
OPENMSG         - OPEN MESSAGE FILES FOR SYSTEM OUTPUT AND ERRO  21-AUG-1978 20:01:07   VAX-11 MACRO X0.3-11               Page   4
01              OPEN MESSAGE FILES FOR SYSTEM OUTPUT AND ERROR                                                                   (1)

                                 05  0113   161 	RSB				;
OPENMSG         - OPEN MESSAGE FILES FOR SYSTEM OUTPUT AND ERRO  21-AUG-1978 20:01:07   VAX-11 MACRO X0.3-11               Page   5
01              INTERNAL SUBROUTINES                                                                                             (1)

                                     0114   163 	.SBTTL	INTERNAL SUBROUTINES
                                     0114   164 ;
                                     0114   165 ; CONNECT_RAB - CONNECT RECORD STREAM
                                     0114   166 ;
                                     0114   167 ; THIS ROUTINE IS CALLED TO CONNECT A RECORD STREAM TO A RAB.
                                     0114   168 ;
                                     0114   169 ; INPUTS:
                                     0114   170 ;
                                     0114   171 ;	R2 = FILE IFI NUMBER.
                                     0114   172 ;	R3 = ADDRESS OF RAB.
                                     0114   173 ;
                                     0114   174 ; OUTPUTS:
                                     0114   175 ;
                                     0114   176 ;	THE SPECIFIED RAB IS CONNECTED AND IMPLIED CARRIAGE CONTROL IS INSERTED
                                     0114   177 ;	IN THE RESULTANT ISI NUMBER.
                                     0114   178 ;
                                     0114   179 ;	NOTE ALL ERRORS ARE IGNORED.
                                     0114   180 ;
                                     0114   181
                                     0114   182 CONNECT_RAB:				;CONNECT RAB
         02 A9            52     B0  0114   183 	MOVW	R2,FAB$W_IFI(R9)	;INSERT IFI NUMBER
                                     0118   184 	$CONNECT RAB=(R3)		;CONNECT RECORD STREAM
                                 05  0121   185 	RSB				;
                                     0122   186
                                     0122   187 ;
                                     0122   188 ; CREATE_FILE
                                     0122   189 ;
                                     0122   190 ; THIS ROUTINE IS CALLED TO CREATE A FILE AND RETURN THE RESULTANT IFI.
                                     0122   191 ;
                                     0122   192 ; INPUTS:
                                     0122   193 ;
                                     0122   194 ;	R0 = ADDRESS OF FILE NAME COUNTED STRING.
                                     0122   195 ;
                                     0122   196 ; OUTPUTS:
                                     0122   197 ;
                                     0122   198 ;	R4 = RESULTANT FILE IFI NUMBER.
                                     0122   199 ;
                                     0122   200 ;	NOTE ALL ERRORS ARE IGNORED.
                                     0122   201 ;
                                     0122   202
                                     0122   203 CREATE_FILE:				;CREATE FILE
         34 A9            80     90  0122   204 	MOVB	(R0)+,FAB$B_FNS(R9)	;INSERT FILENAME STRING SIZE
         2C A9            60     9E  0126   205 	MOVAB	(R0),FAB$L_FNA(R9)	;INSERT FILE NAME ADDRESS
                       02 A9     B4  012A   206 	CLRW	FAB$W_IFI(R9)		;CLEAR IFI NUMBER
         1E A9            02     90  012D   207 	MOVB	#FAB$M_CR,FAB$B_RAT(R9) ;SET RECORD ATTRIBUTES
         1F A9            02     90  0131   208 	MOVB	#FAB$C_VAR,FAB$B_RFM(R9) ;SET RECORD FORMAT
                          50     DC  0135   209 	MOVPSL	R0			;READ CURRENT PSL
                          18     ED  0137   210 	CMPZV	#PSL$V_CURMOD,#PSL$S_CURMOD,- ;CURRENT MODE USER?
            50            02         0139   211 		R0,#PSL$C_USER		;
                          03         013B
                          05     13  013C   212 	BEQL	10$			;IF EQL YES
         04 A9            12     E2  013E   213 	BBSS	#FAB$V_PPF,FAB$L_FOP(R9),10$ ;SET PROCESS PERMANENT FILE
                          00         0142
                                     0143   214 10$:	$CREATE FAB=(R9)		;CREATE FILE
            54         02 A9     3C  014C   215 	MOVZWL	FAB$W_IFI(R9),R4	;GET RESULTANT IFI NUMBER
                                 05  0150   216 	RSB				;
                                     0151   217
OPENMSG         - OPEN MESSAGE FILES FOR SYSTEM OUTPUT AND ERRO  21-AUG-1978 20:01:07   VAX-11 MACRO X0.3-11               Page   6
01              INTERNAL SUBROUTINES                                                                                             (1)

                                     0151   218 	.END
OPENMSG         - OPEN MESSAGE FILES FOR SYSTEM OUTPUT AND ERRO  21-AUG-1978 20:01:07   VAX-11 MACRO X0.3-11               Page   7
SYMBOL TABLE                                                                                                                     (1)

$$.TMP1        = 00000001            FAB$M_DMO      = 00001000            FAB$V_GET      = 00000001
$$.TMP2        = 00000069            FAB$M_ESC      = 08000000            FAB$V_INP      = 00000013
BIT...         = 00000020            FAB$M_EXE      = 00000080            FAB$V_JNL      = 00000016
BUFSIZ         = 00000100            FAB$M_FTN      = 00000001            FAB$V_KFO      = 0000001E
CONNECT_RAB      00000114 R     03   FAB$M_GET      = 00000002            FAB$V_MSE      = 00000004
CREATE_FILE      00000122 R     03   FAB$M_INP      = 00080000            FAB$V_MXV      = 00000001
ERRNAM           00000000 R     03   FAB$M_JNL      = 00400000            FAB$V_NAM      = 00000018
ESCAPE         = 0000011B            FAB$M_KFO      = 40000000            FAB$V_NEF      = 0000000A
EXE$OPEN_MSG     00000025 RG    03   FAB$M_MSE      = 00000010            FAB$V_NFS      = 00000010
FAB$B_BID        00000000            FAB$M_MXV      = 00000002            FAB$V_NIL      = 00000005
FAB$B_BKS        0000003E            FAB$M_NAM      = 01000000            FAB$V_OFP      = 0000001D
FAB$B_BLN        00000001            FAB$M_NEF      = 00000400            FAB$V_ORG      = 00000004
FAB$B_DNS        00000035            FAB$M_NFS      = 00010000            FAB$V_POS      = 00000008
FAB$B_FAC        00000016            FAB$M_NIL      = 00000020            FAB$V_PPF      = 00000012
FAB$B_FNS        00000034            FAB$M_OFP      = 20000000            FAB$V_PPF_IND  = 0000000E
FAB$B_FSZ        0000003F            FAB$M_POS      = 00000100            FAB$V_PPF_RAT  = 00000006
FAB$B_ORG        0000001D            FAB$M_PPF      = 00040000            FAB$V_PRN      = 00000002
FAB$B_RAT        0000001E            FAB$M_PPF_IND  = 00004000            FAB$V_PUT      = 00000000
FAB$B_RFM        0000001F            FAB$M_PPF_RAT  = 00003FC0            FAB$V_RCK      = 00000017
FAB$B_RTV        0000001C            FAB$M_PRN      = 00000004            FAB$V_RWC      = 0000000B
FAB$B_SHR        00000017            FAB$M_PUT      = 00000001            FAB$V_RWO      = 00000007
FAB$C_BID      = 00000003            FAB$M_RCK      = 00800000            FAB$V_SCF      = 0000000E
FAB$C_BLN        00000050            FAB$M_RWC      = 00000800            FAB$V_SHRDEL   = 00000002
FAB$C_FIX      = 00000001            FAB$M_RWO      = 00000080            FAB$V_SHRGET   = 00000001
FAB$C_HSH      = 00000030            FAB$M_SCF      = 00004000            FAB$V_SHRPUT   = 00000000
FAB$C_IDX      = 00000020            FAB$M_SHRDEL   = 00000004            FAB$V_SHRUPD   = 00000003
FAB$C_MAXRFM   = 00000003            FAB$M_SHRGET   = 00000002            FAB$V_SPL      = 0000000D
FAB$C_REL      = 00000010            FAB$M_SHRPUT   = 00000001            FAB$V_SQO      = 00000006
FAB$C_RFM_DFLT = 00000002            FAB$M_SHRUPD   = 00000008            FAB$V_SUP      = 00000002
FAB$C_SEQ      = 00000000            FAB$M_SPL      = 00002000            FAB$V_TEF      = 0000001C
FAB$C_UDF      = 00000000            FAB$M_SQO      = 00000040            FAB$V_TMD      = 00000004
FAB$C_VAR      = 00000002            FAB$M_SUP      = 00000004            FAB$V_TMP      = 00000003
FAB$C_VFC      = 00000003            FAB$M_TEF      = 10000000            FAB$V_TRN      = 00000004
FAB$K_BLN        00000050            FAB$M_TMD      = 00000010            FAB$V_UFM      = 0000001A
FAB$L_ALQ        00000010            FAB$M_TMP      = 00000008            FAB$V_UFO      = 00000011
FAB$L_CTX        00000018            FAB$M_TRN      = 00000010            FAB$V_UPD      = 00000003
FAB$L_DEV        00000040            FAB$M_UFM      = 04000000            FAB$V_UPI      = 00000006
FAB$L_DNA        00000030            FAB$M_UFO      = 00020000            FAB$V_WCK      = 00000009
FAB$L_FNA        0000002C            FAB$M_UPD      = 00000008            FAB$W_BLS        0000003C
FAB$L_FOP        00000004            FAB$M_UPI      = 00000040            FAB$W_DEQ        00000014
FAB$L_JNL        00000020            FAB$M_WCK      = 00000200            FAB$W_IFI        00000002
FAB$L_MRN        00000038            FAB$S_ORG      = 00000004            FAB$W_MRS        00000036
FAB$L_NAM        00000028            FAB$S_PPF_RAT  = 00000008            FILTYP           0000000A R     03
FAB$L_SDC        00000044            FAB$V_BIO      = 00000005            GBL...         = 00000000
FAB$L_STS        00000008            FAB$V_BLK      = 00000003            ISINAM           0000000F R     03
FAB$L_STV        0000000C            FAB$V_BRO      = 00000006            LOG$B_AMOD       0000000E
FAB$L_XAB        00000024            FAB$V_CBT      = 00000015            LOG$B_TABLE      0000000B
FAB$M_BIO      = 00000020            FAB$V_CIF      = 00000019            LOG$B_TYPE       0000000A
FAB$M_BLK      = 00000008            FAB$V_CR       = 00000001            LOG$C_GROUP    = 00000001
FAB$M_BRO      = 00000040            FAB$V_CTG      = 00000014            LOG$C_LENGTH     00000014
FAB$M_CBT      = 00200000            FAB$V_DEL      = 00000002            LOG$C_NAMLENGTH= 00000040
FAB$M_CIF      = 02000000            FAB$V_DFW      = 00000005            LOG$C_PROCESS  = 00000002
FAB$M_CR       = 00000002            FAB$V_DLT      = 0000000F            LOG$C_SYSTEM   = 00000000
FAB$M_CTG      = 00100000            FAB$V_DMO      = 0000000C            LOG$K_LENGTH     00000014
FAB$M_DEL      = 00000004            FAB$V_ESC      = 0000001B            LOG$L_LTBL       00000004
FAB$M_DFW      = 00000020            FAB$V_EXE      = 00000007            LOG$L_LTFL       00000000
FAB$M_DLT      = 00008000            FAB$V_FTN      = 00000000            LOG$L_MBXUCB     00000010
OPENMSG         - OPEN MESSAGE FILES FOR SYSTEM OUTPUT AND ERRO  21-AUG-1978 20:01:07   VAX-11 MACRO X0.3-11               Page   8
SYMBOL TABLE                                                                                                                     (1)

LOG$T_NAME       00000014            RAB$L_PBF        00000030            RAB$V_RAH      = 00000009
LOG$W_GROUP      0000000C            RAB$L_RBF        00000028            RAB$V_RLK      = 00000013
LOG$W_SIZE       00000008            RAB$L_RFA0       00000010            RAB$V_RNE      = 00000018
OUTNAM           0000001A R     03   RAB$L_RHB        0000002C            RAB$V_RNF      = 0000001B
PSL$C_EXEC     = 00000001            RAB$L_ROP        00000004            RAB$V_TMO      = 00000019
PSL$C_KERNEL   = 00000000            RAB$L_STS        00000008            RAB$V_TPT      = 00000001
PSL$C_SUPER    = 00000002            RAB$L_STV        0000000C            RAB$V_UIF      = 00000004
PSL$C_USER     = 00000003            RAB$L_UBF        00000024            RAB$V_ULK      = 00000012
PSL$M_CM       = 80000000            RAB$M_ASY      = 00000001            RAB$V_WAT      = 00000011
PSL$M_CURMOD   = 03000000            RAB$M_BIO      = 00000800            RAB$V_WBH      = 0000000A
PSL$M_DV       = 00000080            RAB$M_CCO      = 80000000            RAB$W_ISI        00000002
PSL$M_FPD      = 08000000            RAB$M_CVT      = 04000000            RAB$W_RFA        00000010
PSL$M_FU       = 00000040            RAB$M_EOF      = 00000100            RAB$W_RFA4       00000014
PSL$M_IPL      = 001F0000            RAB$M_FDL      = 00000040            RAB$W_RSZ        00000022
PSL$M_IS       = 04000000            RAB$M_HSH      = 00000080            RAB$W_USZ        00000020
PSL$M_IV       = 00000020            RAB$M_KGE      = 00200000            SS$_NORMAL       ********   X   03
PSL$M_PRVMOD   = 00C00000            RAB$M_KGT      = 00400000            SYS$CONNECT      ********  GX   03
PSL$M_SAFBITS  = 000037FF            RAB$M_LIM      = 00004000            SYS$CREATE       ********  GX   03
PSL$M_TBIT     = 00000010            RAB$M_LOA      = 00002000            SYS$CRELOG       ********   X   03
PSL$M_TP       = 40000000            RAB$M_LOC      = 00010000            SYS$TRNLOG       ********   X   03
PSL$S_CURMOD   = 00000002            RAB$M_MAS      = 00000020
PSL$S_IPL      = 00000005            RAB$M_NLK      = 00100000
PSL$S_PRVMOD   = 00000002            RAB$M_NXR      = 00800000
PSL$V_CM       = 0000001F            RAB$M_PMT      = 40000000
PSL$V_CURMOD   = 00000018            RAB$M_PPF_IND  = 00004000
PSL$V_DV       = 00000007            RAB$M_PPF_RAT  = 00003FC0
PSL$V_FPD      = 0000001B            RAB$M_PTA      = 20000000
PSL$V_FU       = 00000006            RAB$M_RAH      = 00000200
PSL$V_IPL      = 00000010            RAB$M_RLK      = 00080000
PSL$V_IS       = 0000001A            RAB$M_RNE      = 01000000
PSL$V_IV       = 00000005            RAB$M_RNF      = 08000000
PSL$V_PRVMOD   = 00000016            RAB$M_TMO      = 02000000
PSL$V_TBIT     = 00000004            RAB$M_TPT      = 00000002
PSL$V_TP       = 0000001E            RAB$M_UIF      = 00000010
RAB$B_BID        00000000            RAB$M_ULK      = 00040000
RAB$B_BLN        00000001            RAB$M_WAT      = 00020000
RAB$B_KRF        00000035            RAB$M_WBH      = 00000400
RAB$B_KSZ        00000034            RAB$S_PPF_RAT  = 00000008
RAB$B_MBC        00000037            RAB$V_ASY      = 00000000
RAB$B_MBF        00000036            RAB$V_BIO      = 0000000B
RAB$B_PSZ        00000034            RAB$V_CCO      = 0000001F
RAB$B_RAC        0000001E            RAB$V_CVT      = 0000001A
RAB$B_ROP1       00000005            RAB$V_EOF      = 00000008
RAB$B_ROP2       00000006            RAB$V_FDL      = 00000006
RAB$B_ROP3       00000007            RAB$V_HSH      = 00000007
RAB$B_TMO        0000001F            RAB$V_KGE      = 00000015
RAB$C_BID      = 00000001            RAB$V_KGT      = 00000016
RAB$C_BLN        00000044            RAB$V_LIM      = 0000000E
RAB$C_KEY      = 00000001            RAB$V_LOA      = 0000000D
RAB$C_RFA      = 00000002            RAB$V_LOC      = 00000010
RAB$C_SEQ      = 00000000            RAB$V_MAS      = 00000005
RAB$K_BLN        00000044            RAB$V_NLK      = 00000014
RAB$L_BKT        00000038            RAB$V_NXR      = 00000017
RAB$L_CTX        00000018            RAB$V_PMT      = 0000001E
RAB$L_DCT        00000038            RAB$V_PPF_IND  = 0000000E
RAB$L_FAB        0000003C            RAB$V_PPF_RAT  = 00000006
RAB$L_KBF        00000030            RAB$V_PTA      = 0000001D
OPENMSG         - OPEN MESSAGE FILES FOR SYSTEM OUTPUT AND ERRO  21-AUG-1978 20:01:07   VAX-11 MACRO X0.3-11               Page   9
PROGRAM SECTION SYNOPSIS                                                                                                         (1)


PROGRAM SECTION SYNOPSIS

.  ABS  .        00000000      00     NOPIC   USR   CON   ABS   LCL NOSHR NOEXE NORD  NOWRT BYTE
. BLANK .        00000000      01     NOPIC   USR   CON   REL   LCL NOSHR   EXE   RD    WRT BYTE
$ABS$            00000050      02     NOPIC   USR   CON   ABS   LCL NOSHR   EXE   RD    WRT BYTE
YEXEPAGED        00000151      03     NOPIC   USR   CON   REL   LCL NOSHR   EXE   RD    WRT BYTE


THERE WERE NO ERRORS OR WARNINGS.
17244. BYTES LEFT IN FREE MEMORY POOL.
1676. BYTES OF RECLAIMED MEMORY.
OBJ$:OPENMSG,LIS$:OPENMSG/-SP=EXECML$/ML,SRC$:OPENMSG
5 MLB DIR RDS - 496 GETS TO DEFINE 20 MACROS. 38 INTER. FILE WRITES.
