PARAMETER       - PARAMETER DESCRIPTORS FOR SYSPARAM             21-AUG-1978 20:03:23   VAX-11 MACRO X0.3-11               Page   0
TABLE OF CONTENTS

   (1)      46  DECLARATIONS
   (1)     202  SYSTEM TIME VARIABLES
   (1)     213  SYSGEN PARAMETERS
   (1)     523  CONTROL PARAMETERS
   (1)     845  TERMINAL DRIVER SYSTEM PARAMETERS
   (1)     909  RMS DEFAULT PARAMETERS
   (1)     992  PROCESS QUOTA DEFAULTS AND MINIMA
   (1)    1078  FILE ACP CONFIGURATION DATA
   (1)    1228  Job Controller Parameters
   (1)    1286  COMPUTED VALUES
PARAMETER       - PARAMETER DESCRIPTORS FOR SYSPARAM             21-AUG-1978 20:03:23   VAX-11 MACRO X0.3-11               Page   1
02                                                                                                                               (1)

                           00000001  0000   100 	PRMSW=1				; SET SWITCH TO GENERATE PARAMETER DESCRIPTORS
                                     0000     1 	.IF	NDF,PRMSW		;
                                     0000     2 	.TITLE	SYSPARAM - SYSTEM PARAMETERS
                                     0000     3 	.IFF				;
                                     0000     4 	.TITLE	PARAMETER - PARAMETER DESCRIPTORS FOR SYSPARAM
                                     0000     5 	.ENDC
                                     0000     6 	.IDENT	/02/
                                     0000     7
                                     0000     8 ;
                                     0000     9 ; COPYRIGHT (C) 1977,1978
                                     0000    10 ; DIGITAL EQUIPMENT CORPORATION, MAYNARD, MASSACHUSETTS 01754
                                     0000    11 ;
                                     0000    12 ; THIS SOFTWARE IS FURNISHED  UNDER A LICENSE FOR USE ONLY ON A SINGLE
                                     0000    13 ; COMPUTER  SYSTEM AND  MAY BE  COPIED ONLY WITH  THE INCLUSION OF THE
                                     0000    14 ; ABOVE COPYRIGHT NOTICE.  THIS SOFTWARE, OR ANY OTHER COPIES THEREOF,
                                     0000    15 ; MAY NOT BE PROVIDED OR  OTHERWISE MADE AVAILABLE TO ANY OTHER PERSON
                                     0000    16 ; EXCEPT FOR USE ON SUCH SYSTEM AND TO ONE WHO AGREES TO THESE LICENSE
                                     0000    17 ; TERMS.  TITLE TO AND  OWNERSHIP OF THE  SOFTWARE  SHALL AT ALL TIMES
                                     0000    18 ; REMAIN IN DEC.
                                     0000    19 ;
                                     0000    20 ; THE INFORMATION IN THIS SOFTWARE IS SUBJECT TO CHANGE WITHOUT NOTICE
                                     0000    21 ; AND SHOULD  NOT BE CONSTRUED  AS A COMMITMENT  BY DIGITAL  EQUIPMENT
                                     0000    22 ; CORPORATION.
                                     0000    23 ;
                                     0000    24 ; DEC ASSUMES  NO  RESPONSIBILITY  FOR  THE USE OR  RELIABILITY OF ITS
                                     0000    25 ; SOFTWARE ON EQUIPMENT WHICH IS NOT SUPPLIED BY DEC.
                                     0000    26 ;
                                     0000    27
                                     0000    28 ;++
                                     0000    29 ; FACILITY:  EXECUTIVE DATA BASE
                                     0000    30 ;
                                     0000    31 ; ABSTRACT:
                                     0000    32 ;	SYSPARAM CONTAINS THE EXECUTIVE CONTROL PARAMETERS AND CERTAIN
                                     0000    33 ;	KEY VARIABLES.
                                     0000    34 ;
                                     0000    35 ; ENVIRONMENT:
                                     0000    36 ;
                                     0000    37 ; AUTHOR:  R. I. HUSTVEDT, CREATION DATE:  09-OCT-1977
                                     0000    38 ;
                                     0000    39 ; MODIFIED BY:
                                     0000    40 ;
                                     0000    41 ;	, : VERSION
                                     0000    42 ; 01	-
                                     0000    43 ;--
PARAMETER       - PARAMETER DESCRIPTORS FOR SYSPARAM             21-AUG-1978 20:03:23   VAX-11 MACRO X0.3-11               Page   2
02              DECLARATIONS                                                                                                     (1)

                                     0000    45 	.SBTTL	DECLARATIONS
                                     0000    46 ;
                                     0000    47 ; INCLUDE FILES:
                                     0000    48 ;
                                     0000    49 	$PQLDEF				; DEFINE QUOTA LIST CODES
                                     0000    50 	$PRMDEF				; DEFINE PARAMETER DESCRIPTOR
                                     0000    51 	$TTDEF				; DEFINE TERMINAL CHARACTERISTICS
                                     0000    52
                                     0000    53 ;
                                     0000    54 ; MACRO TO GENERATE PARAMETER DESCRIPTOR IF PRMSW IS TRUE OTHERWISE
                                     0000    55 ; SIMPLY DEFINE PARAMETERS
                                     0000    56 ;
                                     0000    57 ;
                                     0000    58 ; MACROS:
                                     0000    59 ;
                                     0000    60
                                     0000    61 	.MACRO	PFNALC	SIZ,SYMLST
                                     0000    62 	.IRP	SYM,<SYMLST>
                                     0000    63 	DEFINE	PFN$A'SIZ'_'SYM
                                     0000    64 	.ENDR
                                     0000    65 	.LONG	0
                                     0000    66 	.ENDM	PFNALC
                                     0000    67
                                     0000    68 	.MACRO	PARAMETER,ADDRESS,NAME,TYPE=STATIC,DEFAULT=0,MIN=-1,MAX=-1,-
                                     0000    69 		UNIT,SIZE=LONG,BIT	;
                                     0000    70 	.IF	DF,PRMSW		; DO IF CREATING PARAMETER DESCRIPTOR
                                     0000    71 PRMSAV...=.				; SAVE LOC COUNTER
                                     0000    72 	.PSECT	$$$918,LONG		;
                                     0000    73 	BAS...=.			; SET BASE FOR THIS DESCRIPTOR
                                     0000    74 	.BLKB	PRM$C_LENGTH		; GENERATE SPACE
                                     0000    75 	SAV...=.			;
                                     0000    76 	PRM	L_ADDR			;
                                     0000    77 	.LONG	ADDRESS			;
                                     0000    78 	PRM	L_DEFAULT		;
                                     0000    79 	.LONG	DEFAULT			;
                                     0000    80 	PRM	L_MIN			;
                                     0000    81 	.LONG	MIN			;
                                     0000    82 	PRM	L_MAX			;
                                     0000    83 	.LONG	MAX			;
                                     0000    84 	PRM	T_NAME			;
                                     0000    85 	.ASCIC	%'NAME'%		;
                                     0000    86 	PRM	T_UNIT			;
                                     0000    87 	.ASCIC	%'UNIT'%		;
                                     0000    88 	PRM	B_SIZE			; SET FIELD SIZE
                                     0000    89 	.IF	B,BIT			;
                                     0000    90 	.BYTE	PRM$C_'SIZE		;
                                     0000    91 	.IFF				;
                                     0000    92 	.BYTE	1			;
                                     0000    93 	PRM	B_POS			;
                                     0000    94 	.BYTE	BIT			;
                                     0000    95 	.ENDC				;
                                     0000    96 	PRM	W_FLAGS			;
                                     0000    97 	TYP...=0			;
                                     0000    98 	.IRP	TYPNAM,<TYPE>		;
                                     0000    99 	TYP...=TYP...!PRM$M_'TYPNAM	;
                                     0000   100 	.ENDR				;
                                     0000   101 	.WORD	TYP...			;
PARAMETER       - PARAMETER DESCRIPTORS FOR SYSPARAM             21-AUG-1978 20:03:23   VAX-11 MACRO X0.3-11               Page   3
02              DECLARATIONS                                                                                                     (1)

                                     0000   102 	.=SAV...			; REPOSITION LOCATION COUNTER
                                     0000   103 	.PSECT	$$$917A,PAGE		; BACK TO NORMAL PSECT
                                     0000   104 	.=PRMSAV...			; RESTORE LOCATION COUNTER
                                     0000   105 	.IFF				;
                                     0000   106 	.IF	B,BIT			;
                                     0000   107 ADDRESS'::				; DEFINE GLOBAL VALUE
                                     0000   108 	.ENDC				;
                                     0000   109 	.ENDC				;
                                     0000   110 	.IF	B,BIT			;
                                     0000   111 	.'SIZE'	DEFAULT			; GENERATE DEFAULT VALUE
                                     0000   112 	.ENDC				;
                                     0000   113 	.ENDM	PARAMETER		;
                                     0000   114
                                     0000   115 	.MACRO	PRM,OFFSET		;
                                     0000   116 	.=BAS...+PRM$'OFFSET		;
                                     0000   117 	.ENDM	PRM			;
                                     0000   118
                                     0000   119 ;
                                     0000   120 ; MACRO TO CONDITIONALLY DEFINE LABELS
                                     0000   121 ;
                                     0000   122 	.MACRO	DEFINE,LABEL		;
                                     0000   123 	.IF	NDF,PRMSW		;
                                     0000   124 LABEL'::				;
                                     0000   125 	.IFF				;
                                     0000   126 LABEL':					;
                                     0000   127 	.ENDC				;
                                     0000   128 	.ENDM	DEFINE			;
                                     0000   129 ;
                                     0000   130 ;	MACRO TO GENERATE PROCESS QUOTA LIST TABLES
                                     0000   131 ;
                                     0000   132 ;	PQL	QUOTA_NAME,DEFAULT,MIN,FLAG
                                     0000   133 ;
                                     0000   134 	.MACRO	PQL Q,DEFLT=0,MINIM=0,FLAG=0,UNT
                                     0000   135 	.IF	NDF,PRMSW		;
                                     0000   136 	.PSECT	$$$917,PAGE
                                     0000   137 	.IFF				;
                                     0000   138 	.PSECT	$$$917A,PAGE		;
                                     0000   139 	.ENDC				;
                                     0000   140 	PQLSAV...=.			; SAVE LOCATION COUNTER
                                     0000   141 	.=PQL$AL_DEFAULT+<4*PQL$_'Q>	; POINT INTO DEFAULT TABLE
                                     0000   142 	PARAMETER	ADDRESS=PQL$GD'Q,-	;
                                     0000   143 			DEFAULT=DEFLT,-		;
                                     0000   144 			NAME=PQL_D'Q,-	;
                                     0000   145 			SIZE=LONG,-		;
                                     0000   146 			TYPE=<PQL,SYSGEN,DYNAMIC>,-	;
                                     0000   147 			UNIT=UNT		;
                                     0000   148 	.IF	NDF,PRMSW		;
                                     0000   149 	.PSECT	$$$917,PAGE		;
                                     0000   150 	.IFF
                                     0000   151 	.PSECT	$$$917A,PAGE		;
                                     0000   152 	.ENDC				;
                                     0000   153 PQLSAV...=.				;
                                     0000   154 	.=PQL$AL_MIN+<4*PQL$_'Q>	; POINT INTO MINIMUM VALUE TABLE
                                     0000   155 	PARAMETER	ADDRESS=PQL$GM'Q,-	;
                                     0000   156 			DEFAULT=MINIM,-		;
                                     0000   157 			NAME=PQL_M'Q,-	;
                                     0000   158 			SIZE=LONG,-		;
PARAMETER       - PARAMETER DESCRIPTORS FOR SYSPARAM             21-AUG-1978 20:03:23   VAX-11 MACRO X0.3-11               Page   4
02              DECLARATIONS                                                                                                     (1)

                                     0000   159 			TYPE=<PQL,SYSGEN,DYNAMIC>,-	;
                                     0000   160 			UNIT=UNT		;
                                     0000   161 	.IF	NDF,PRMSW
                                     0000   162 	.PSECT	$$$917,PAGE		;
                                     0000   163 	.IFF
                                     0000   164 	.PSECT	$$$917A,PAGE
                                     0000   165 	.ENDC				;
                                     0000   166 PQLSAV...=.				;
                                     0000   167 	.=PQL$AB_FLAG+PQL$_'Q		; POINT INTO FLAG BYTE FOR QUOTA
                                     0000   168 	.BYTE	FLAG			; AND FILL IN FLAG
                                     0000   169 	.=PQLSAV...			; RESTORE LOCATION COUNTER
                                     0000   170 	.ENDM	PQL			;
                                     0000   171
                                     0000   172 ;
                                     0000   173 ; EQUATED SYMBOLS:
                                     0000   174 ;
                           00000000  0000   175 PQL_V_DEDUCT=0				; DEDUCTIBILE QUOTA FLAG
                                     0000   176
                           00000001  0000   177 PQL_M_DEDUCT=1				; FLAG VALUE FOR DEDUCTIBLE QUOTA
                           00000001  0000   178 DEDUCTIBLE=PQL_M_DEDUCT			; NAME FOR READIBILITY
                                     0000   179
                                     0000   180 ;
                                     0000   181 ; OWN STORAGE:
                                     0000   182 ;
                                     0000   183 	.IF	NDF,PRMSW		;
                                     0000   184 	.PSECT	$$$917,PAGE		; PAGE ALIGNED
                                     0000   185 	.IFF				;
                                 00000000   186 	.PSECT	$$$917A,PAGE
                                     0000   187 	.ENDC				;
                                     0000   188 	DEFINE	EXE$A_SYSPARAM		; SYSTEM PARAMETER BASE
                                     0000   189 	.IF	DF,PRMSW		;
                                     0000   190 BOO$A_SYSPARAM::			; BASE OF DEFAULTS
                                 00000000   191 	.PSECT	$$$918,LONG		; PARAMETER DESCRIPTOR LIST
                                     0000   192 BOO$A_PRMBLK::				;
                                     0000   193 	.ENDC				;
                                     0000   194 	.IF	NDF,PRMSW		;
                                     0000   195 	.PSECT	$$$917,PAGE		;
                                     0000   196 	.IFF
                                 00000000   197 	.PSECT	$$$917A,PAGE
                                     0000   198 	.ENDC
                                     0000   199
PARAMETER       - PARAMETER DESCRIPTORS FOR SYSPARAM             21-AUG-1978 20:03:23   VAX-11 MACRO X0.3-11               Page   5
02              SYSTEM TIME VARIABLES                                                                                            (1)

                                     0000   201 	.SBTTL	SYSTEM TIME VARIABLES
                                     0000   202 ;
                                     0000   203 ;		SYSTEM TIME VARIABLES
                                     0000   204 ;
                                     0000   205 	DEFINE	EXE$GQ_TODCBASE		; TIME OF DAY CLOCK BASE (BOOT TIME)
                           80FBC500  0000   206 	.LONG	^X80FBC500		; 100 NANO-SECOND UNITS
                           00859034  0004   207 	.LONG	^X00859034		; INITIAL TIME 4-JAN-1978 09:58
                                     0008   208 ;
                                     0008   209 	DEFINE	EXE$GL_TODR		; TIME OF DAY REGISTER VALUE CORRESPONDING
                           11C24C88  0008   210 	.LONG	^X11C24C88		; TO EXE$GQ_TODCBASE
PARAMETER       - PARAMETER DESCRIPTORS FOR SYSPARAM             21-AUG-1978 20:03:23   VAX-11 MACRO X0.3-11               Page   6
02              SYSGEN PARAMETERS                                                                                                (1)

                                     000C   212 	.SBTTL	SYSGEN PARAMETERS
                                     000C   213 ;
                                     000C   214 ;	SYSGEN PARAMETERS
                                     000C   215 ;
                                     000C   216
                                     000C   217 ;
                                     000C   218 ; DEFAULT PAGE FAULT CLUSTER SIZE - SPECIFIES THE MAXIMUM NUMBER OF
                                     000C   219 ;	PAGES WHICH WILL BE READ FROM SECTIONS NOT SPECIFYING A CLUSTER FACTOR.
                                     000C   220 ;	THIS ALSO APPLIES TO PAGE FILE PAGES.
                                     000C   221 ;
                                     000C   222 	PARAMETER	ADDRESS=SGN$GW_DFPFC,-	;
                                     000C   223 			DEFAULT=16,-		;
                                     000C   224 			MIN=0,-			;
                                     000C   225 			MAX=127,-		;
                                     000C   226 			NAME=PFCDEFAULT,-	;
                                     000C   227 			SIZE=WORD,-		;
                                     000C   228 			TYPE=<DYNAMIC,SYS,MAJOR>,-	;
                                     000C   229 			UNIT=PAGES		;
                                     000E   230 ;
                                     000E   231 ; DEFAULT PAGE TABLE PAGE FAULT CLUSTER SIZE - SPECIFIES THE MAXIMUM NUMBER OF
                                     000E   232 ; 	OF PAGE TABLES TO ATTEMPT TO READ TO SATISFY A FAULT FOR A NON-RESIDENT
                                     000E   233 ;	PAGE TABLE.
                                     000E   234 ;
                                     000E   235 	PARAMETER	ADDRESS=SGN$GB_PGTBPFC,-	;
                                     000E   236 			DEFAULT=2,-		;
                                     000E   237 			MIN=0,-			;
                                     000E   238 			MAX=127,-		;
                                     000E   239
                                     000E   240 			NAME=PAGTBLPFC,-	;
                                     000E   241 			SIZE=BYTE,-		;
                                     000E   242 			TYPE=<DYNAMIC,SPECIAL>,-	;
                                     000E   243 			UNIT=PAGES		;
                                     000F   244 ;
                                     000F   245 ;	PAGE FAULT CLUSTER FOR SYSTEM PAGING
                                     000F   246 ;
                                     000F   247 	PARAMETER	ADDRESS=SGN$GB_SYSPFC,-	;
                                     000F   248 			DEFAULT=1,-		;
                                     000F   249 			MIN=0,-			;
                                     000F   250 			MAX=127,-		;
                                     000F   251 			NAME=SYSPFC,-		;
                                     000F   252 			SIZE=BYTE,-		;
                                     000F   253 			TYPE=<SPECIAL>,-	;
                                     000F   254 			UNIT=PAGES		;
                                     0010   255 ;
                                     0010   256 ; NUMBER OF KNOWN FILE LISTS - ESTABLISHES THE MAXIMUM NUMBER OF KNOWN
                                     0010   257 ;	FILE LISTS THAT CAN BE MADE KNOWN TO THE SYSTEM.
                                     0010   258 ;
                                     0010   259 	PARAMETER	ADDRESS=SGN$GB_KFILSTCT,-	;
                                     0010   260 			DEFAULT=4,-		;
                                     0010   261 			MIN=2,-			;
                                     0010   262 			NAME=KFILSTCNT,-	;
                                     0010   263 			SIZE=BYTE,-		;
                                     0010   264 			TYPE=<SYSGEN,SYS>,-	;
                                     0010   265 			UNIT=SLOTS		;
                                     0011   266
                                     0011   267 	.ALIGN	WORD			;
                                     0012   268 ;
PARAMETER       - PARAMETER DESCRIPTORS FOR SYSPARAM             21-AUG-1978 20:03:23   VAX-11 MACRO X0.3-11               Page   7
02              SYSGEN PARAMETERS                                                                                                (1)

                                     0012   269 ; GLOBAL SECTION COUNT - DETERMINES THE MAXIMUM NUMBER OF GLOBAL SECTIONS
                                     0012   270 ;	WHICH CAN BE MADE KNOWN TO THE SYSTEM BY ALLOCATING THE NECESSARY
                                     0012   271 ;	STORAGE FOR THE GST ENTRIES.
                                     0012   272 ;
                                     0012   273 	PARAMETER	ADDRESS=SGN$GW_GBLSECNT,-	;
                                     0012   274 			DEFAULT=40,-		;
                                     0012   275 			MIN=20,-		;
                                     0012   276 			NAME=GBLSECTIONS,-	;
                                     0012   277 			SIZE=WORD,-		;
                                     0012   278 			TYPE=<SYSGEN,SYS,MAJOR>,-	;
                                     0012   279 			UNIT=SECTIONS		;
                                     0014   280 ;
                                     0014   281 ; GLOBAL PAGE COUNT - ESTABLISHES THE SIZE OF THE GLOBAL PAGE TABLE AND THE
                                     0014   282 ;	LIMIT FOR THE TOTAL NUMBER OF GLOBAL PAGES THAT CAN BE CREATED.
                                     0014   283 ;
                                     0014   284
                                     0014   285 	PARAMETER	ADDRESS=SGN$GW_MAXGPGCT,-	;
                                     0014   286 			DEFAULT=2048,-		;
                                     0014   287 			MIN=512,-		;
                                     0014   288 			NAME=GBLPAGES,-		;
                                     0014   289 			SIZE=WORD,-		;
                                     0014   290 			TYPE=<SYSGEN,SYS,MAJOR>,-		;
                                     0014   291 			UNIT=PAGES		;
                                     0016   292
                                     0016   293 ;
                                     0016   294 ; MAXIMUM PROCESS COUNT - DETERMINES THE MAXIMUM NUMBER OF PROCESS
                                     0016   295 ;
                                     0016   296 	PARAMETER	ADDRESS=SGN$GW_MAXPRCCT,-	;
                                     0016   297 			DEFAULT=64,-		;
                                     0016   298 			MIN=12,-		;
                                     0016   299 			MAX=256,-		;
                                     0016   300 			NAME=MAXPROCESSCNT,-	;
                                     0016   301 			SIZE=WORD,-		;
                                     0016   302 			TYPE=<SYSGEN,SYS,MAJOR>,-		;
                                     0016   303 			UNIT=PROCESSES		;
                                     0018   304
                                     0018   305 ;
                                     0018   306 ; PROCESS SECTION COUNT - GUARANTEED NUMBER OF PROCESS SECTIONS THAT CAN
                                     0018   307 ;	BE CREATED.  DEPENDING ON SIZE OF WORKING SET, THE ACTUAL NUMBER
                                     0018   308 ;	OF SECTIONS CAN ACTUALLY BE GREATER.
                                     0018   309 ;
                                     0018   310 	PARAMETER	ADDRESS=SGN$GW_MAXPSTCT,-	;
                                     0018   311 			DEFAULT=20,-		;
                                     0018   312 			MIN=5,-			;
                                     0018   313 			MAX=1024,-		;
                                     0018   314 			NAME=PROCSECTCNT,-	;
                                     0018   315 			SIZE=WORD,-		;
                                     0018   316 			TYPE=<SYSGEN,SYS>,-		;
                                     0018   317 			UNIT=SECTIONS		;
                                     001A   318
                                     001A   319
                                     001A   320 ;
                                     001A   321 ; MINIMUM WORKING SET SIZE - ESTABLISHES THE SMALLEST SIZE THAT ADJWSL WILL
                                     001A   322 ;	SET A PROCESS' WORKING SET.
                                     001A   323 ;
                                     001A   324 	PARAMETER	ADDRESS=SGN$GW_MINWSCNT,-	;
                                     001A   325 			DEFAULT=20,-		;
PARAMETER       - PARAMETER DESCRIPTORS FOR SYSPARAM             21-AUG-1978 20:03:23   VAX-11 MACRO X0.3-11               Page   8
02              SYSGEN PARAMETERS                                                                                                (1)

                                     001A   326 			MIN=10,-		;
                                     001A   327 			NAME=MINWSCNT,-		;
                                     001A   328 			SIZE=WORD,-		;
                                     001A   329 			TYPE=<STATIC,SYSGEN,SYS>,-	;
                                     001A   330 			UNIT=PAGES		;
                                     001C   331
                                     001C   332
                                     001C   333 ;
                                     001C   334 ; NUMBER OF PAGING FILES - DETERMINES THE MAXIMUM NUMBER OF PAGING FILES
                                     001C   335 ;	THAT CAN BE MADE KNOW TO THE SYSTEM.
                                     001C   336 ;
                                     001C   337 	PARAMETER	ADDRESS=SGN$GW_PAGFILCT,-	;
                                     001C   338 			DEFAULT=2,-		;
                                     001C   339 			MIN=2,-			;
                                     001C   340 			MAX=2,-		;
                                     001C   341 			NAME=PAGFILCNT,-	;
                                     001C   342 			SIZE=WORD,-		;
                                     001C   343 			TYPE=<SPECIAL>,-	;
                                     001C   344 			UNIT=FILES		;
                                     001E   345
                                     001E   346 	DEFINE	SGN$GW_PFLIBAS		; PAGE FAULT INDEX BASE
                               0003  001E   347 	.WORD	3			;
                                     0020   348
                                     0020   349 ;
                                     0020   350 ; NUMBER OF SWAP FILES - ESTABLISHES THE MAXIMUM NUMBER OF SWAPFILES THAT
                                     0020   351 ;	CAN BE MADE KNOWN TO THE SYSTEM.
                                     0020   352 ;
                                     0020   353 	PARAMETER	ADDRESS=SGN$GW_SFTMAX,-	;
                                     0020   354 			DEFAULT=3,-		;
                                     0020   355 			MIN=3,-			;
                                     0020   356 			MAX=3,-		;
                                     0020   357 			NAME=SWPFILCNT,-	;
                                     0020   358 			SIZE=WORD,-		;
                                     0020   359 			TYPE=<SPECIAL>,-	;
                                     0020   360 			UNIT=FILES		;
                                     0022   361
                                     0022   362 	.ALIGN	LONG
                                     0024   363
                                     0024   364 ;
                                     0024   365 ; PAGING FILE SIZE - DECLARES THE TOTAL SIZE OF ALL PAGING FILES TO THE
                                     0024   366 ;	INITIALIZATION LOGIC WHICH COMPUTES THE SIZE OF NONPAGED DYNAMIC
                                     0024   367 ;	POOL.
                                     0024   368 ;
                                     0024   369 	PARAMETER	ADDRESS=SGN$GL_PGFLSIZ,-	;
                                     0024   370 			DEFAULT=8192,-	;
                                     0024   371 			MIN=1024,-	;
                                     0024   372 			NAME=PAGEFILSIZE,-	;
                                     0024   373 			SIZE=LONG,-	;
                                     0024   374 			TYPE=<SPECIAL>,-	;
                                     0024   375 			UNIT=PAGES	;
                                     0028   376
                                     0028   377 ;
                                     0028   378 ; SYSTEM WORKING SET COUNT - ESTABLISHES THE NUMBER OF PAGES FOR THE WORKING
                                     0028   379 ;	SET CONTAINING THE CURRENTLY RESIDENT PAGES OF PAGABLE SYSTEM SPACE.
                                     0028   380 ;
                                     0028   381 	PARAMETER	ADDRESS=SGN$GW_SYSDWSCT,-	;
                                     0028   382 			DEFAULT=48,-		;
PARAMETER       - PARAMETER DESCRIPTORS FOR SYSPARAM             21-AUG-1978 20:03:23   VAX-11 MACRO X0.3-11               Page   9
02              SYSGEN PARAMETERS                                                                                                (1)

                                     0028   383 			MIN=20,-		;
                                     0028   384 			MAX=16384,-		;
                                     0028   385 			NAME=SYSMWCNT,-		;
                                     0028   386 			SIZE=WORD,-		;
                                     0028   387 			TYPE=<SYSGEN,SYS,MAJOR>,-	;
                                     0028   388 			UNIT=PAGES		;
                                     002A   389
                                     002A   390 ;
                                     002A   391 ; INTERRUPT STACK SIZE - ESTABLISHES THE SIZE OF THE INTERRUPT STACK IN PAGES
                                     002A   392 ;
                                     002A   393 	PARAMETER	ADDRESS=SGN$GW_ISPPGCT,-	;
                                     002A   394 			DEFAULT=2,-			;
                                     002A   395 			MIN=1,-				;
                                     002A   396 			NAME=INTSTKPAGES,-		;
                                     002A   397 			SIZE=WORD,-			;
                                     002A   398 			TYPE=<SYS,SYSGEN>,-		;
                                     002A   399 			UNIT=PAGES			;
                                     002C   400 	DEFINE	SGN$GB_DEFPGFL		; DEFAULT PAGING FILE INDEX
                                 00' 002C   401 	.BYTE	SGN$C_PFLIBAS		;
                                     002D   402 	.ALIGN	LONG			; LONGWORDS ON LONGWORD BOUNDARY
                                     0030   403 ;
                                     0030   404 ; BALANCE SET COUNT - DETERMINES THE MAXIMUM NUMBER OF PROCESS THAT CAN BE
                                     0030   405 ;	BE CONCURRENTLY RESIDENT.
                                     0030   406 ;
                                     0030   407 	PARAMETER	ADDRESS=SGN$GL_BALSETCT,-	;
                                     0030   408 			DEFAULT=24,-	;
                                     0030   409 			MIN=4,-		;
                                     0030   410 			MAX=1024,-	;
                                     0030   411 			NAME=BALSETCNT,-	;
                                     0030   412 			SIZE=LONG,-	;
                                     0030   413 			TYPE=<SYSGEN,SYS,MAJOR>,-	;
                                     0030   414 			UNIT=SLOTS	;
                                     0034   415 ;
                                     0034   416 ; COUNT OF PRE-ALLOCATED I/O PACKETS - DETERMINES THE NUMBER OF I/O PACKETS
                                     0034   417 ;	TO BE PRE-ALLOCATED AND LINKED TOGETHER FOR FAST ALLOCATION AND
                                     0034   418 ;	DEALLOCATION.
                                     0034   419 ;
                                     0034   420 	PARAMETER	ADDRESS=SGN$GL_IRPCNT,-	;
                                     0034   421 			DEFAULT=80,-		;
                                     0034   422 			MIN=0,-			;
                                     0034   423 			MAX=32768,-		;
                                     0034   424 			NAME=IRPCOUNT,-		;
                                     0034   425 			SIZE=LONG,-		;
                                     0034   426 			TYPE=<SYSGEN,MAJOR,SYS>,-	;
                                     0034   427 			UNIT=PACKETS		;
                                     0038   428 ;
                                     0038   429 ; MAXIMUM SIZE OF PROCESS WORKING SET. DETERMINES THE SYSTEM WIDE MAXIMUM
                                     0038   430 ;	SIZE OF A PROCESS WORKING SET REGARDLESS OF PROCESS QUOTA.
                                     0038   431 ;
                                     0038   432 	PARAMETER	ADDRESS=SGN$GL_MAXWSCNT,-	;
                                     0038   433 			DEFAULT=256,-		;
                                     0038   434 			MIN=60,-		;
                                     0038   435 			MAX=16384,-		;
                                     0038   436 			NAME=WSMAX,-		;
                                     0038   437 			SIZE=LONG,-		;
                                     0038   438 			TYPE=<SYSGEN,SYS,MAJOR>,-	;
                                     0038   439 			UNIT=PAGES		;
PARAMETER       - PARAMETER DESCRIPTORS FOR SYSPARAM             21-AUG-1978 20:03:23   VAX-11 MACRO X0.3-11               Page  10
02              SYSGEN PARAMETERS                                                                                                (1)

                                     003C   440
                                     003C   441 ;
                                     003C   442 ; NON-PAGED DYNAMIC POOL - DETERMINES THE NUMBER OF BYTES TO ALLOCATE FOR
                                     003C   443 ;	THE NON-PAGED DYNAMIC POOL.
                                     003C   444 ;
                                     003C   445 	PARAMETER	ADDRESS=SGN$GL_NPAGEDYN,-	;
                                     003C   446 			DEFAULT=40448,-		;
                                     003C   447 			MIN=16384,-		;
                                     003C   448 			NAME=NPAGEDYN,-		;
                                     003C   449 			SIZE=LONG,-		;
                                     003C   450 			TYPE=<SYSGEN,SYS,MAJOR>,-	;
                                     003C   451 			UNIT=BYTES		;
                                     0040   452 ;
                                     0040   453 ; PAGED DYNAMIC POOL - DETERMINES THE NUMBER OF BYTES TO ALLOCATE FOR THE
                                     0040   454 ;	PAGED DYNAMIC POOL.
                                     0040   455 ;
                                     0040   456 	PARAMETER	ADDRESS=SGN$GL_PAGEDYN,-	;
                                     0040   457 			DEFAULT=8192,-		;
                                     0040   458 			MIN=8192,-		;
                                     0040   459 			NAME=PAGEDYN,-		;
                                     0040   460 			SIZE=LONG,-		;
                                     0040   461 			TYPE=<SYSGEN,SYS,MAJOR>,-		;
                                     0040   462 			UNIT=BYTES		;
                                     0044   463
                                     0044   464 ;
                                     0044   465 ; MAXIMUM VIRTUAL PAGE COUNT - DETERMINES THE TOTAL NUMBER OF PAGES THAT
                                     0044   466 ;	CAN BE MAPPED FOR A PROCESS, WHICH CAN BE DIVIDED IN ANY FASHION
                                     0044   467 ;	BETWEEN P0 AND P1 SPACE.
                                     0044   468 ;
                                     0044   469 	PARAMETER	ADDRESS=SGN$GL_MAXVPGCT,-	;
                                     0044   470 			DEFAULT=8192,-		;
                                     0044   471 			MIN=512,-		;
                                     0044   472 			MAX=65536,-		; 32 MEGABYTES
                                     0044   473 			NAME=VIRTUALPAGECNT,-	;
                                     0044   474 			SIZE=LONG,-		;
                                     0044   475 			TYPE=<SYSGEN,SYS,MAJOR>,-	;
                                     0044   476 			UNIT=PAGES		;
                                     0048   477
                                     0048   478 ;
                                     0048   479 ; REQUESTED SPT EXTENSION - NUMBER OF ADDITIONAL SPT SLOT TO ALLOW
                                     0048   480 ;
                                     0048   481 	PARAMETER	ADDRESS=SGN$GL_SPTREQ,-	;
                                     0048   482 			DEFAULT=512,-		;
                                     0048   483 			NAME=SPTREQ,-		;
                                     0048   484 			SIZE=LONG,-		;
                                     0048   485 			TYPE=<SYS,SYSGEN>,-	;
                                     0048   486 			UNIT=PAGES		;
                                     004C   487 ;
                                     004C   488 ; EXTRA USER STACK AUTOMATICALLY PROVIDED BY THE IMAGE ACTIVATOR
                                     004C   489 ;	SO THAT THE OPERATING SYSTEM CAN RECOVER FROM A STACK OVERFLOW.
                                     004C   490 ;
                                     004C   491 	PARAMETER	ADDRESS=SGN$GL_EXUSRSTK,- ;
                                     004C   492 			DEFAULT=<2*512>,-	;
                                     004C   493 			MIN=<2*512>,-		;
                                     004C   494 			NAME=EXUSRSTK,-		;
                                     004C   495 			SIZE=LONG,-		;
                                     004C   496 			TYPE=<SPECIAL>,-	;
PARAMETER       - PARAMETER DESCRIPTORS FOR SYSPARAM             21-AUG-1978 20:03:23   VAX-11 MACRO X0.3-11               Page  11
02              SYSGEN PARAMETERS                                                                                                (1)

                                     004C   497 			UNIT=<PAGES*512>	;
                                     0050   498 ;
                                     0050   499 ;	PERMANENT I/O CHANNEL COUNT - SPECIFES THE NUMBER OF PERMANENT I/O
                                     0050   500 ;	CHANNELS TO PROVIDE.
                                     0050   501 ;
                                     0050   502 	PARAMETER	ADDRESS=SGN$GW_PCHANCNT,-	;
                                     0050   503 			DEFAULT=127,-		;
                                     0050   504 			MIN=31,-		;
                                     0050   505 			MAX=4095,-		;
                                     0050   506 			NAME=CHANNELCNT,-	;
                                     0050   507 			SIZE=WORD,-		;
                                     0050   508 			TYPE=<SPECIAL>,-	;
                                     0050   509 			UNIT=CHANNELS		;
                                     0052   510 ;
                                     0052   511 ; DEFAULT NUMBER OF PAGES OF IMAGE I/O ADDRESS SPACE USED BY
                                     0052   512 ;	THE IMAGE ACTIVATOR IF NOT SPECIFIED AT PROGRAM LINK TIME.
                                     0052   513 ;
                                     0052   514 	PARAMETER	ADDRESS=SGN$GW_IMGIOCNT,-	;
                                     0052   515 			DEFAULT=32,-		;
                                     0052   516 			MIN=32,-		;
                                     0052   517 			NAME=IMGIOCNT,-		;
                                     0052   518 			SIZE=WORD,-		;
                                     0052   519 			TYPE=<DYNAMIC,SPECIAL>,-	;
                                     0052   520 			UNIT=PAGES		;
PARAMETER       - PARAMETER DESCRIPTORS FOR SYSPARAM             21-AUG-1978 20:03:23   VAX-11 MACRO X0.3-11               Page  12
02              CONTROL PARAMETERS                                                                                               (1)

                                     0054   522 	.SBTTL	CONTROL PARAMETERS
                                     0054   523
                                     0054   524 	.ALIGN	WORD
                                     0054   525
                                     0054   526 ;
                                     0054   527 ;	GENERAL SYSTEM CONTROL PARAMETERS
                                     0054   528 ;
                                     0054   529 	PARAMETER	ADDRESS=SCH$GW_QUAN,-	; PROCESS QUANTUM
                                     0054   530 			DEFAULT=-30,-		; NEGATED
                                     0054   531 			MIN=2,-			;
                                     0054   532 			MAX=32767,-		;
                                     0054   533 			NAME=QUANTUM,-		;
                                     0054   534 			SIZE=WORD,-		;
                                     0054   535 			TYPE=<DYNAMIC,SYS,NEG,MAJOR>,-	;
                                     0054   536 			UNIT=10MS		;
                                     0056   537 ;
                                     0056   538 ;	MODIFIED PAGE WRITER CONTROL PARAMETERS
                                     0056   539 ;
                                     0056   540 	DEFINE	MPW$AW_INITVAL
                                     0056   541 ;
                                     0056   542 ;	PAGE WRITE CLUSTER FACTOR - SPECIFIES THE NUMBER OF PAGES TO ATTEMPT
                                     0056   543 ;	TO WRITE AS A SINGLE I/O TRANSFER TO CONTIGUOUS DISK.
                                     0056   544 ;
                                     0056   545 	PARAMETER	ADDRESS=MPW$GW_MPWPFC,-	;
                                     0056   546 			DEFAULT=16,-		;
                                     0056   547 			MIN=0,-			;
                                     0056   548 			MAX=127,-		;
                                     0056   549 			NAME=MPW_WRTCLUSTER,-	;
                                     0056   550 			SIZE=WORD,-		;
                                     0056   551 			TYPE=<SYSGEN,SYS,MAJOR>,-	;
                                     0056   552 			UNIT=PAGES		;
                                     0058   553 ;
                                     0058   554 ;	MODIFIED PAGE LIST HIGH LIMIT - THRESHOLD AT WHICH TO BEGIN WRITING
                                     0058   555 ;	MODIFIED PAGES.
                                     0058   556 ;
                                     0058   557 	PARAMETER	ADDRESS=MPW$GW_HILIM,-	;
                                     0058   558 			DEFAULT=24,-		;
                                     0058   559 			MIN=0,-			;
                                     0058   560 			MAX=16384,-		;
                                     0058   561 			NAME=MPW_HILIM,-	;
                                     0058   562 			SIZE=WORD,-		;
                                     0058   563 			TYPE=<SYSGEN,SYS,MAJOR>,-	;
                                     0058   564 			UNIT=PAGES		;
                                     005A   565 ;
                                     005A   566 ;	MODIFIED PAGE LIST LOW LIMIT - THRESHOLD AT WHICH MODIFIED PAGE WRITING
                                     005A   567 ;	WILL NORMALLY STOP.  WRITING STARTED AT THE HIGH LIMIT AND PAGES
                                     005A   568 ;	ARE WRITTEN IN CHUNKS CONTROLLED BY THE CLUSTER FACTOR. WHEN THE
                                     005A   569 ;	LENGTH OF THE MODIFIED PAGE LIST HAS BEEN REDUCED BELOW THE LOW LIMIT,
                                     005A   570 ;	WRITING CEASES UNTIL ENOUGH PAGES HAVE BEEN ADDED TO EXCEED THE
                                     005A   571 ;	HIGH LIMIT.
                                     005A   572 ;
                                     005A   573 	PARAMETER	ADDRESS=MPW$GW_LOLIM,-	;
                                     005A   574 			DEFAULT=12,-		;
                                     005A   575 			MIN=0,-			;
                                     005A   576 			MAX=16384,-		;
                                     005A   577 			NAME=MPW_LOLIMIT,-	;
                                     005A   578 			SIZE=WORD,-		;
PARAMETER       - PARAMETER DESCRIPTORS FOR SYSPARAM             21-AUG-1978 20:03:23   VAX-11 MACRO X0.3-11               Page  13
02              CONTROL PARAMETERS                                                                                               (1)

                                     005A   579 			TYPE=<SYSGEN,SYS,MAJOR>,-	;
                                     005A   580 			UNIT=PAGES		;
                                     005C   581
                                     005C   582 ;
                                     005C   583 ; MAXIMUM NUMBER OF WORKING SET LIST ENTRIES THAT MAY BE SKIPPED WHILE
                                     005C   584 ; SCANNING FOR A "GOOD" ENTRY TO DISCARD.  SET TO 0 TO DISABLE SKIPPING.
                                     005C   585 ;
                                     005C   586 	PARAMETER	ADDRESS=SGN$GW_WSLMXSKP,-	;
                                     005C   587 			DEFAULT=0,-		;
                                     005C   588 			MIN=0,-			;
                                     005C   589 			MAX=512,-		;
                                     005C   590 			NAME=SKIPWSL,-		;
                                     005C   591 			SIZE=WORD,-		;
                                     005C   592 			TYPE=<DYNAMIC,SPECIAL>,-	;
                                     005C   593 			UNIT=PAGES		;
                                     005E   594
                                     005E   595 ;
                                     005E   596 ; Maximum number of physical pages to be used - permits testing of smaller
                                     005E   597 ; memory configurations without actually removing memory boards.
                                     005E   598 ;
                                     005E   599 	PARAMETER	ADDRESS=MMG$GL_PHYPGCNT,-	;
                                     005E   600 			DEFAULT=16384,-	;
                                     005E   601 			MIN=256,-	;
                                     005E   602 			MAX=16384,-	;
                                     005E   603 			NAME=PHYSICALPAGES,-	;
                                     005E   604 			SIZE=LONG,-	;
                                     005E   605 			TYPE=<SPECIAL>,-	;
                                     005E   606 			UNIT=PAGES	;
                                     0062   607
                                     0062   608 ;
                                     0062   609 ; Maximum group code for system UIC
                                     0062   610 ;
                                     0062   611 	PARAMETER	ADDRESS=EXE$GL_SYSUIC,-	;
                                     0062   612 			DEFAULT=8,-	;
                                     0062   613 			MIN=1,-		;
                                     0062   614 			MAX=32768,-	;
                                     0062   615 			NAME=MAXSYSGROUP,-	;
                                     0062   616 			SIZE=LONG,-	;
                                     0062   617 			TYPE=<SYS,DYNAMIC>	;
                                     0066   618 ;
                                     0066   619 ; Maximum allowable buffered I/O request size
                                     0066   620 ;
                                     0066   621 	PARAMETER	ADDRESS=IOC$GW_MAXBUF,-	;
                                     0066   622 			DEFAULT=1024,-	;
                                     0066   623 			MIN=512,-	;
                                     0066   624 			MAX=64000,-	;
                                     0066   625 			NAME=MAXBUF,-	;
                                     0066   626 			SIZE=WORD,-	;
                                     0066   627 			TYPE=<SYS,DYNAMIC>,-	;
                                     0066   628 			UNIT=BYTES	;
                                     0068   629 ;
                                     0068   630 ; Default buffer quota for Mailbox creation
                                     0068   631 ;
                                     0068   632 	PARAMETER	ADDRESS=IOC$GW_MBXBFQUO,-	;
                                     0068   633 			DEFAULT=1024,-	;
                                     0068   634 			MIN=256,-	;
                                     0068   635 			MAX=64000,-	;
PARAMETER       - PARAMETER DESCRIPTORS FOR SYSPARAM             21-AUG-1978 20:03:23   VAX-11 MACRO X0.3-11               Page  14
02              CONTROL PARAMETERS                                                                                               (1)

                                     0068   636 			NAME=DEFMBXBUFQUO,-	;
                                     0068   637 			SIZE=WORD,-	;
                                     0068   638 			TYPE=<SYS,DYNAMIC>,-	;
                                     0068   639 			UNIT=BYTES	;
                                     006A   640 ;
                                     006A   641 ; Default maximum message size for Mailbox creation
                                     006A   642 ;
                                     006A   643 	PARAMETER	ADDRESS=IOC$GW_MBXMXMSG,-	;
                                     006A   644 			DEFAULT=256,-	;
                                     006A   645 			MIN=64,-	;
                                     006A   646 			MAX=64000,-	;
                                     006A   647 			NAME=DEFMBXMXMSG,-	;
                                     006A   648 			SIZE=WORD,-	;
                                     006A   649 			TYPE=<SYS,DYNAMIC>,-	;
                                     006A   650 			UNIT=BYTES	;
                                     006C   651 ;
                                     006C   652 ; Default number of messages for Mailbox creation
                                     006C   653 ;
                                     006C   654 	PARAMETER	ADDRESS=IOC$GW_MBXNMMSG,-	;
                                     006C   655 			DEFAULT=16,-	;
                                     006C   656 			MIN=1,-		;
                                     006C   657 			NAME=DEFMBXNUMMSG,-	;
                                     006C   658 			SIZE=WORD,-	;
                                     006C   659 			TYPE=<SYS,DYNAMIC>	;
                                     006E   660 ;
                                     006E   661 ;	DESIRED FREE LIST LENGTH - SPECIFIES THE NUMBER OF FREE PAGES TO
                                     006E   662 ;			BE MAINTAINED AVAILABLE BY THE SWAPPER.
                                     006E   663 ;
                                     006E   664 	PARAMETER	ADDRESS=SGN$GL_FREELIM,-	;
                                     006E   665 			DEFAULT=10,-		;
                                     006E   666 			MIN=0,-			;
                                     006E   667 			NAME=FREELIM,-		;
                                     006E   668 			SIZE=LONG,-		;
                                     006E   669 			TYPE=<SYS,SYSGEN>,-	;
                                     006E   670 			UNIT=PAGES		;
                                     0072   671 ;
                                     0072   672 ;	PERMANENT DEFAULT SYSTEM FLAGS
                                     0072   673 ;
                                     0072   674 	.ALIGN	LONG			;
                                     0074   675 	.IF	NDF,PRMSW		;
                                     0074   676 EXE$GL_DEFFLAGS::			;
                                     0074   677 	.ENDC				;
                                     0074   678 	.LONG	<1@EXE$V_SYSPAGING>-	; ENABLE SYSTEM CODE PAGING
                                     0074   679 		!<1@EXE$V_POOLPGING>-	; ENABLE SYSTEM POOL PAGING
                                     0074   680 		!<1@EXE$V_SBIERR>-	; SBI ERROR DETECTION
                                     0074   681 		!<1@EXE$V_BUGREBOOT>-	; AUTOMATIC REBOOT ON BUGCHECK
                                     0074   682 		!<1@EXE$V_CRDENABL>-	; ENABLE CRD ERROR DETECTION
                                     0074   683 		!<1@EXE$V_FATAL_BUG>-	; FATAL BUG CHECKS
                                     0074   684 		!<1@EXE$V_BUGDUMP>-	; SYSTEM DUMP ON BUGCHECK
                           00000001' 0074   685 		!<1@EXE$V_SHRF11ACP>	; SHARE F11ACP
                                     0078   686 ;
                                     0078   687 ;	BUGCHECK REBOOT - ENABLES AUTOMATIC REBOOT ON BUGCHECK
                                     0078   688 ;
                                     0078   689 	.LIST	ME
                                     0078   690 	PARAMETER	ADDRESS=EXE$GL_DEFFLAGS,-	;
                                     0078   691 			DEFAULT=1,-	;
                                     0078   692 			MAX=1,-		;
PARAMETER       - PARAMETER DESCRIPTORS FOR SYSPARAM             21-AUG-1978 20:03:23   VAX-11 MACRO X0.3-11               Page  15
02              CONTROL PARAMETERS                                                                                               (1)

                                     0078   693 			MIN=0,-		;
                                     0078   694 			NAME=BUGREBOOT,-;
                                     0078   695 			BIT=EXE$V_BUGREBOOT,-	;
                                     0078   696 			TYPE=<DYNAMIC,SYS>	;
                                     0078       	.IF	DF,PRMSW		; DO IF CREATING PARAMETER DESCRIPTOR
                           00000078  0078       PRMSAV...=.				; SAVE LOC COUNTER
                                 000006C0       	.PSECT	$$$918,LONG		;
                           000006C0  06C0       	BAS...=.			; SET BASE FOR THIS DESCRIPTOR
                           000006F0  06C0       	.BLKB	PRM$C_LENGTH		; GENERATE SPACE
                           000006F0  06F0       	SAV...=.			;
                                     06F0       	PRM	L_ADDR			;
                           000006C0  06F0       	.=BAS...+PRM$L_ADDR		;
                                     06C0
                           00000000' 06C0       	.LONG	EXE$GL_DEFFLAGS			;
                                     06C4       	PRM	L_DEFAULT		;
                           000006C4  06C4       	.=BAS...+PRM$L_DEFAULT		;
                                     06C4
                           00000001  06C4       	.LONG	1			;
                                     06C8       	PRM	L_MIN			;
                           000006C8  06C8       	.=BAS...+PRM$L_MIN		;
                                     06C8
                           00000000  06C8       	.LONG	0			;
                                     06CC       	PRM	L_MAX			;
                           000006CC  06CC       	.=BAS...+PRM$L_MAX		;
                                     06CC
                           00000001  06CC       	.LONG	1			;
                                     06D0       	PRM	T_NAME			;
                           000006D4  06D0       	.=BAS...+PRM$T_NAME		;
                                     06D4
      54 4F 4F 42 45 52 47 55 42 00' 06D4       	.ASCIC	%BUGREBOOT%		;
                                 09  06D4
                                     06DE       	PRM	T_UNIT			;
                           000006E4  06DE       	.=BAS...+PRM$T_UNIT		;
                                     06E4
                                 00' 06E4       	.ASCIC	%%		;
                                 00  06E4
                                     06E5       	PRM	B_SIZE			; SET FIELD LONG
                           000006D2  06E5       	.=BAS...+PRM$B_SIZE		;
                                     06D2
                                     06D2       	.IF	B,EXE$V_BUGREBOOT			;
                                     06D2       	.BYTE	PRM$C_LONG		;
                                     06D2       	.IFF				;
                                 01  06D2       	.BYTE	1			;
                                     06D3       	PRM	B_POS			;
                           000006D3  06D3       	.=BAS...+PRM$B_POS		;
                                     06D3
                                 00' 06D3       	.BYTE	EXE$V_BUGREBOOT			;
                                     06D4       	.ENDC				;
                                     06D4       	PRM	W_FLAGS			;
                           000006D0  06D4       	.=BAS...+PRM$W_FLAGS		;
                                     06D0
                           00000000  06D0       	TYP...=0			;
                                     06D0       	.IRP	TYPNAM,<DYNAMIC,SYS>		;
                                     06D0       	TYP...=TYP...!PRM$M_'TYPNAM	;
                                     06D0       	.ENDR				;
                           00000001  06D0       	TYP...=TYP...!PRM$M_DYNAMIC	;
                                     06D0
PARAMETER       - PARAMETER DESCRIPTORS FOR SYSPARAM             21-AUG-1978 20:03:23   VAX-11 MACRO X0.3-11               Page  16
02              CONTROL PARAMETERS                                                                                               (1)

                           00000041  06D0       	TYP...=TYP...!PRM$M_SYS	;
                                     06D0
                               0041  06D0       	.WORD	TYP...			;
                           000006F0  06D2       	.=SAV...			; REPOSITION LOCATION COUNTER
                                 00000078       	.PSECT	$$$917A,PAGE		; BACK TO NORMAL PSECT
                           00000078  0078       	.=PRMSAV...			; RESTORE LOCATION COUNTER
                                     0078       	.IFF				;
                                     0078       	.IF	B,EXE$V_BUGREBOOT			;
                                     0078       EXE$GL_DEFFLAGS::				; DEFINE GLOBAL VALUE
                                     0078       	.ENDC				;
                                     0078       	.ENDC				;
                                     0078       	.IF	B,EXE$V_BUGREBOOT			;
                                     0078       	.LONG	1			; GENERATE 1 VALUE
                                     0078       	.ENDC				;
                                     0078
                                     0078   697 	.NLIST	ME
                                     0078   698 ;
                                     0078   699 ;	CRD ERROR ENABLE - ENABLES DETECTION AND LOGGING OF MEMORY CRD ERRORS
                                     0078   700 ;
                                     0078   701 	PARAMETER	ADDRESS=EXE$GL_DEFFLAGS,-	;
                                     0078   702 			DEFAULT=1,-	;
                                     0078   703 			MAX=1,-		;
                                     0078   704 			MIN=0,-		;
                                     0078   705 			NAME=CRDENABLE,-;
                                     0078   706 			BIT=EXE$V_CRDENABL,-;
                                     0078   707 			TYPE=<SYS,SYSGEN>;
                                     0078   708 ;
                                     0078   709 ;	BUGCHECK DUMP ENABLE - ENABLE SYSTEM DUMP ON BUGCHECK
                                     0078   710 ;
                                     0078   711 	PARAMETER	ADDRESS=EXE$GL_DEFFLAGS,-	;
                                     0078   712 			DEFAULT=1,-	;
                                     0078   713 			MAX=1,-		;
                                     0078   714 			MIN=0,-		;
                                     0078   715 			NAME=DUMPBUG,-	;
                                     0078   716 			BIT=EXE$V_BUGDUMP,-	;
                                     0078   717 			TYPE=<SYS,SYSGEN>;
                                     0078   718 ;
                                     0078   719 ;	FATAL BUGCHECK - TURNS ALL CONTINUABLE BUGCHECKS INTO FATAL BUGCHECKS
                                     0078   720 ;
                                     0078   721 	PARAMETER	ADDRESS=EXE$GL_DEFFLAGS,-	;
                                     0078   722 			DEFAULT=0,-	;
                                     0078   723 			MAX=1,-		;
                                     0078   724 			MIN=0,-		;
                                     0078   725 			NAME=BUGCHECKFATAL,-;
                                     0078   726 			BIT=EXE$V_FATAL_BUG,-	;
                                     0078   727 			TYPE=<SYS,SYSGEN>;
                                     0078   728 ;
                                     0078   729 ;	MULTIPLE ACP - SPECIFIES THAT SEPARATE ACPS ARE TO BE CREATED FOR
                                     0078   730 ;		       EACH VOLUME.
                                     0078   731 	PARAMETER	ADDRESS=EXE$GL_DEFFLAGS,-;
                                     0078   732 			DEFAULT=0,-	;
                                     0078   733 			MAX=1,-		;
                                     0078   734 			MIN=0,-		;
                                     0078   735 			NAME=ACP_MULTIPLE,-	;
                                     0078   736 			BIT=EXE$V_MULTACP,-	;
                                     0078   737 			TYPE=<ACP,SYSGEN>	;
                                     0078   738 ;
PARAMETER       - PARAMETER DESCRIPTORS FOR SYSPARAM             21-AUG-1978 20:03:23   VAX-11 MACRO X0.3-11               Page  17
02              CONTROL PARAMETERS                                                                                               (1)

                                     0078   739 ;	AUTO CONFIGURATION INHIBIT - INHIBITS THE AUTOMATIC CONFIGURATION
                                     0078   740 ;		OF DEVICES.
                                     0078   741 ;
                                     0078   742 	PARAMETER	ADDRESS=EXE$GL_DEFFLAGS,-;
                                     0078   743 			DEFAULT=0,-	;
                                     0078   744 			MAX=1,-		;
                                     0078   745 			MIN=0,-		;
                                     0078   746 			NAME=NOAUTOCONFIG,-
                                     0078   747 			BIT=EXE$V_NOAUTOCNF,-	;
                                     0078   748 			TYPE=<SPECIAL>	;
                                     0078   749 ;
                                     0078   750 ;	NO CLOCK - INHIBITS THE STARTING OF THE INTERVAL TIMER FOR DEBUGGING
                                     0078   751 ;		PURPOSES.
                                     0078   752 ;
                                     0078   753 	PARAMETER	ADDRESS=EXE$GL_DEFFLAGS,-	;
                                     0078   754 			DEFAULT=0,-	;
                                     0078   755 			MAX=1,-		;
                                     0078   756 			MIN=0,-		;
                                     0078   757 			NAME=NOCLOCK,-	;
                                     0078   758 			BIT=EXE$V_NOCLOCK,-	;
                                     0078   759 			TYPE=<SPECIAL>	;
                                     0078   760 ;
                                     0078   761 ;	CLUSTERING INHIBIT - INHIBITS ALL PAGE READ CLUSTERING
                                     0078   762 ;
                                     0078   763 	PARAMETER	ADDRESS=EXE$GL_DEFFLAGS,-	;
                                     0078   764 			DEFAULT=0,-	;
                                     0078   765 			MAX=1,-		;
                                     0078   766 			MIN=0,-		;
                                     0078   767 			NAME=NOCLUSTER,-	;
                                     0078   768 			BIT=EXE$V_NOCLUSTER,-	;
                                     0078   769 			TYPE=<SPECIAL>	;
                                     0078   770 ;
                                     0078   771 ;	ENABLE PAGING OF PAGED DYNAMIC POOL
                                     0078   772 ;
                                     0078   773 	PARAMETER	ADDRESS=EXE$GL_DEFFLAGS,-	;
                                     0078   774 			DEFAULT=1,-	;
                                     0078   775 			MAX=1,-		;
                                     0078   776 			MIN=0,-		;
                                     0078   777 			NAME=POOLPAGING,-	;
                                     0078   778 			BIT=EXE$V_POOLPGING,-	;
                                     0078   779 			TYPE=<SYS,SYSGEN>;
                                     0078   780 ;
                                     0078   781 ;	SBI ERROR DETECTION ENABLE
                                     0078   782 ;
                                     0078   783 	PARAMETER	ADDRESS=EXE$GL_DEFFLAGS,-	;
                                     0078   784 			DEFAULT=1,-	;
                                     0078   785 			MAX=1,-		;
                                     0078   786 			MIN=0,-		;
                                     0078   787 			NAME=SBIERRENABLE,-	;
                                     0078   788 			BIT=EXE$V_SBIERR,-	;
                                     0078   789 			TYPE=<SYS,SYSGEN>	;
                                     0078   790 ;
                                     0078   791 ;	FORCE ENTRY OF TIME AT SYSTEM BOOT
                                     0078   792 ;
                                     0078   793 	PARAMETER	ADDRESS=EXE$GL_DEFFLAGS,-	;
                                     0078   794 			DEFAULT=0,-	;
                                     0078   795 			MAX=1,-		;
PARAMETER       - PARAMETER DESCRIPTORS FOR SYSPARAM             21-AUG-1978 20:03:23   VAX-11 MACRO X0.3-11               Page  18
02              CONTROL PARAMETERS                                                                                               (1)

                                     0078   796 			MIN=0,-		;
                                     0078   797 			NAME=SETTIME,-	;
                                     0078   798 			BIT=EXE$V_SETTIME,-	;
                                     0078   799 			TYPE=<SYS,SYSGEN>;
                                     0078   800 ;
                                     0078   801 ;	ENABLE SHARING OF F11ACP
                                     0078   802 ;
                                     0078   803 	PARAMETER	ADDRESS=EXE$GL_DEFFLAGS,-	;
                                     0078   804 			DEFAULT=1,-	;
                                     0078   805 			MAX=1,-		;
                                     0078   806 			MIN=0,-		;
                                     0078   807 			NAME=ACP_SHARE,-;
                                     0078   808 			BIT=EXE$V_SHRF11ACP,-	;
                                     0078   809 			TYPE=<ACP,SYSGEN>;
                                     0078   810 ;
                                     0078   811 ;	ENABLE PAGING OF SYSTEM CODE
                                     0078   812 ;
                                     0078   813 	PARAMETER	ADDRESS=EXE$GL_DEFFLAGS,-;
                                     0078   814 			DEFAULT=1,-	;
                                     0078   815 			MAX=1,-		;
                                     0078   816 			MIN=0,-		;
                                     0078   817 			NAME=SYSPAGING,-;
                                     0078   818 			BIT=EXE$V_SYSPAGING,-	;
                                     0078   819 			TYPE=<SYS,SYSGEN>	;
                                     0078   820 ;
                                     0078   821 ;	SELECT ALTERNATE AUTHORIZATION FILE - CAUSES SYSINIT TO MAKE A LOGICAL
                                     0078   822 ;		NAME REDIRECTING SYSUAF TO SYSUAFALT.
                                     0078   823 ;
                                     0078   824 	PARAMETER	ADDRESS=EXE$GL_DEFFLAGS,-	;
                                     0078   825 			DEFAULT=0,-	;
                                     0078   826 			MAX=1,-		;
                                     0078   827 			MIN=0,-		;
                                     0078   828 			NAME=UAFALTERNATE,-	;
                                     0078   829 			BIT=EXE$V_SYSUAFALT,-	;
                                     0078   830 			TYPE=<SYS,SYSGEN>	;
                                     0078   831 ;
                                     0078   832 ;	LEAVE SYSTEM WRITABLE - FOR DEBUGGING PURPOSES LEAVES SYSTEM CODE
                                     0078   833 ;		WRITABLE.
                                     0078   834 	PARAMETER	ADDRESS=EXE$GL_DEFFLAGS,-	;
                                     0078   835 			DEFAULT=0,-	;
                                     0078   836 			MAX=1,-		;
                                     0078   837 			MIN=0,-		;
                                     0078   838 			NAME=WRITABLESYS,-;
                                     0078   839 			BIT=EXE$V_SYSWRTABL,-;
                                     0078   840 			TYPE=<SPECIAL>	;
                                     0078   841 ;
                                     0078   842
PARAMETER       - PARAMETER DESCRIPTORS FOR SYSPARAM             21-AUG-1978 20:03:23   VAX-11 MACRO X0.3-11               Page  19
02              TERMINAL DRIVER SYSTEM PARAMETERS                                                                                (1)

                                     0078   844 	.SBTTL	TERMINAL DRIVER SYSTEM PARAMETERS
                                     0078   845 ;
                                     0078   846 ;	DIALUP SUPPORT CONTROL PARAMETERS
                                     0078   847 ;
                                     0078   848 ; DELTA TIME FOR DIALUP TIMER SCAN
                                     0078   849 ;
                                     0078   850 	PARAMETER	ADDRESS=TTY$GL_DELTA,-	;
                                     0078   851 			DEFAULT=<100000*100>,-	;
                                     0078   852 			MIN=100000,-		;
                                     0078   853 			NAME=TTYSCANDELTA,-	;
                                     0078   854 			SIZE=LONG,-		;
                                     0078   855 			TYPE=<SYSGEN,SYS>,-	;
                                     0078   856 			UNIT=100NS		;
                                     007C   857 ;
                                     007C   858 ; FLAGS FOR DIALUP
                                     007C   859 ;	0 => NORMAL, 1 => UNITED KINGDOM
                                     007C   860 ;
                                     007C   861 	PARAMETER	ADDRESS=TTY$GB_DIALTYP,-	;
                                     007C   862 			DEFAULT=0,-		;
                                     007C   863 			MIN=0,-			;
                                     007C   864 			MAX=1,-			;
                                     007C   865 			NAME=DIALTYPE,-		;
                                     007C   866 			SIZE=BYTE		;
                                     007D   867 ;
                                     007D   868 ; NOTE ALIGNMENT!
                                     007D   869 ;
                                     007D   870 ; TERMINAL CANONICAL CHARACTERISTICS
                                     007D   871 ;
                                     007D   872 ;
                                     007D   873 ;	DEFAULT SPEED FOR TERMINALS
                                     007D   874 ;
                                     007D   875 	PARAMETER	ADDRESS=TTY$GB_DEFSPEED,-; DEFAULT SPEED FOR TERMINALS AND PARITY
                                     007D   876 			DEFAULT=TT$C_BAUD_2400,-; 2400 BAUD - NO PARITY
                                     007D   877 			MIN=0,-			;
                                     007D   878 			MAX=15,-		;
                                     007D   879 			NAME=TTY_SPEED,-	;
                                     007D   880 			SIZE=BYTE,-		;
                                     007D   881 			TYPE=<SYSGEN,SYS>,-	;
                                     007D   882 			UNIT=SPECIAL		; TT$C_BAUD VALUES
                                     007E   883 ;
                                     007E   884 ;	DEFAULT TERMINAL LINE WIDTH
                                     007E   885 ;
                                     007E   886 	PARAMETER	ADDRESS=TTY$GW_DEFBUF,-	; DEFAULT BUFFER SIZE
                                     007E   887 			DEFAULT=80,-	;
                                     007E   888 			MIN=0,-		;
                                     007E   889 			MAX=65535,-	;
                                     007E   890 			NAME=TTY_BUF,-	;
                                     007E   891 			SIZE=WORD,-	;
                                     007E   892 			TYPE=<SYS,SYSGEN>,-;
                                     007E   893 			UNIT=CHARACTERS	;
                                     0080   894 ;
                                     0080   895 ;	DEFAULT TERMINAL CHARACTERISTICS
                                     0080   896 ;
                                     0080   897 	PARAMETER	ADDRESS=TTY$GL_DEFCHAR,-; DEFAULT CHARACTERISTICS
                                     0080   898 	DEFAULT=<<16@24>+TT$M_TTSYNC+TT$M_WRAP+TT$M_LOWER+TT$M_SCOPE>,-
                                     0080   899 			MIN=0,-			;
                                     0080   900 			NAME=TTY_DEFCHAR,-	;
PARAMETER       - PARAMETER DESCRIPTORS FOR SYSPARAM             21-AUG-1978 20:03:23   VAX-11 MACRO X0.3-11               Page  20
02              TERMINAL DRIVER SYSTEM PARAMETERS                                                                                (1)

                                     0080   901 			SIZE=LONG,-		;
                                     0080   902 			TYPE=<SYS,SYSGEN>	;
                                     0084   903 ;
                                     0084   904 ; END OF TERMINAL SYSTEM PARAMETERS
                                     0084   905 ;
                                     0084   906 ;
PARAMETER       - PARAMETER DESCRIPTORS FOR SYSPARAM             21-AUG-1978 20:03:23   VAX-11 MACRO X0.3-11               Page  21
02              RMS DEFAULT PARAMETERS                                                                                           (1)

                                     0084   908 	.SBTTL	RMS DEFAULT PARAMETERS
                                     0084   909 ;
                                     0084   910 ;  RMS DEFAULT PARAMETERS
                                     0084   911 ;
                                     0084   912 	PARAMETER	ADDRESS=SYS$GB_DFMBC,-	;
                                     0084   913 			DEFAULT=4,-	; DEFAULT MULTI-BLOCK COUNT
                                     0084   914 			MIN=1,-			;
                                     0084   915 			MAX=127,-		;
                                     0084   916 			NAME=RMS_DFMBC,-	;
                                     0084   917 			SIZE=BYTE,-		;
                                     0084   918 			TYPE=<RMS,DYNAMIC>,-	;
                                     0084   919 			UNIT=BLOCKS		;
                                     0085   920 ;
                                     0085   921 ; DEFAULT MULTI-BUFFER COUNT FOR SEQUENTIAL . DISK
                                     0085   922 ;
                                     0085   923 	PARAMETER	ADDRESS=SYS$GB_DFMBFSDK,-	;
                                     0085   924 			DEFAULT=0,-		;
                                     0085   925 			MIN=0,-			;
                                     0085   926 			MAX=127,-		;
                                     0085   927 			NAME=RMS_DFMBFSDK,-	;
                                     0085   928 			SIZE=BYTE,-		;
                                     0085   929 			TYPE=<RMS,DYNAMIC>,-	;
                                     0085   930 			UNIT=BLOCKS		;
                                     0086   931 ;
                                     0086   932 ; DEFAULT MULTI_BUFFER COUNT FOR MAGTAPE
                                     0086   933 ;
                                     0086   934 	PARAMETER	ADDRESS=SYS$GB_DFMBFSMT,-	;
                                     0086   935 			DEFAULT=0,-		;
                                     0086   936 			MIN=0,-			;
                                     0086   937 			MAX=127,-		;
                                     0086   938 			NAME=RMS_DFMBFSMT,-	;
                                     0086   939 			SIZE=BYTE,-		;
                                     0086   940 			TYPE=<RMS,DYNAMIC>,-	;
                                     0086   941 			UNIT=BLOCKS		;
                                     0087   942 ;
                                     0087   943 ;	DEFAULT MULTI-BUFFER COUNT FOR UNIT RECORD DEVICES.
                                     0087   944 ;
                                     0087   945 	PARAMETER	ADDRESS=SYS$GB_DFMBFSUR,-	;
                                     0087   946 			DEFAULT=0,-		;
                                     0087   947 			MIN=0,-			;
                                     0087   948 			MAX=127,-		;
                                     0087   949 			NAME=RMS_DFMBFSUR,-	;
                                     0087   950 			SIZE=BYTE,-		;
                                     0087   951 			TYPE=<RMS,DYNAMIC>,-	;
                                     0087   952 			UNIT=BUFFERS		;
                                     0088   953 ;
                                     0088   954 ; DEFAULT MULTI-BUFFER COUNT FOR RELATIVE FILES
                                     0088   955 ;
                                     0088   956 	PARAMETER	ADDRESS=SYS$GB_DFMBFREL,-	;
                                     0088   957 			DEFAULT=0,-		;
                                     0088   958 			MIN=0,-			;
                                     0088   959 			MAX=127,-		;
                                     0088   960 			NAME=RMS_DFMBFREL,-	;
                                     0088   961 			SIZE=BYTE,-		;
                                     0088   962 			TYPE=<RMS,DYNAMIC>,-	;
                                     0088   963 			UNIT=BUFFERS		;
                                     0089   964 ;
PARAMETER       - PARAMETER DESCRIPTORS FOR SYSPARAM             21-AUG-1978 20:03:23   VAX-11 MACRO X0.3-11               Page  22
02              RMS DEFAULT PARAMETERS                                                                                           (1)

                                     0089   965 ; DEFAULT MULTI-BUFFER COUNT INDEXED FILES
                                     0089   966 ;
                                     0089   967 	PARAMETER	ADDRESS=SYS$GB_DFMBFIDX,-	;
                                     0089   968 			DEFAULT=0,-		;
                                     0089   969 			MIN=0,-			;
                                     0089   970 			MAX=127,-		;
                                     0089   971 			NAME=RMS_DCMBFIDX,-	;
                                     0089   972 			SIZE=BYTE,-		;
                                     0089   973 			TYPE=<RMS,DYNAMIC>,-	;
                                     0089   974 			UNIT=BUFFERS		;
                                     008A   975 ;
                                     008A   976 ; DEFAULT MULTI-BUFFER COUNT HASHED
                                     008A   977 ;
                                     008A   978 	PARAMETER	ADDRESS=SYS$GB_DFMBFHSH,-	;
                                     008A   979 			DEFAULT=0,-		;
                                     008A   980 			MIN=0,-			;
                                     008A   981 			MAX=127,-		;
                                     008A   982 			NAME=RMS_DFMBFHSH,-	;
                                     008A   983 			SIZE=BYTE,-		;
                                     008A   984 			TYPE=<RMS,DYNAMIC>,-	;
                                     008A   985 			UNIT=BUFFERS		;
                                     008B   986 	.ALIGN	LONG
                                     008C   987 ;
                                     008C   988 ;  END OF RMS DEFAULT PARAMETERS
                                     008C   989 ;
PARAMETER       - PARAMETER DESCRIPTORS FOR SYSPARAM             21-AUG-1978 20:03:23   VAX-11 MACRO X0.3-11               Page  23
02              PROCESS QUOTA DEFAULTS AND MINIMA                                                                                (1)

                                     008C   991 	.SBTTL	PROCESS QUOTA DEFAULTS AND MINIMA
                           00000088  008C   992 	.=.-4				;
                                     0088   993 	DEFINE	PQL$AL_DEFAULT		;
                           0000008C  0088   994 	.=.+4				;
                           000000BC  008C   995 	.BLKL	PQL$_LENGTH		;
                           000000B8  00BC   996 	.=.-4				;
                                     00B8   997 	DEFINE	PQL$AL_MIN		;
                           000000BC  00B8   998 	.=.+4				;
                           000000EC  00BC   999 	.BLKL	PQL$_LENGTH		;
                           000000EB  00EC  1000 	.=.-1				;
                                     00EB  1001 	DEFINE	PQL$AB_FLAG		;
                           000000EC  00EB  1002 	.=.+1				;
                           000000F8  00EC  1003 	.BLKB	PQL$_LENGTH		;
                                     00F8  1004 ;
                                     00F8  1005 ;	DEFINE PROCESS QUOTA DEFAULTS AND MINIMA
                                     00F8  1006 ;
                                     00F8  1007
                                     00F8  1008 	PQL	ASTLM,-			; AST LIMIT
                                     00F8  1009 		DEFLT=6,-		;
                                     00F8  1010 		MINIM=2,-		;
                                     00F8  1011 		UNT=AST			;
                                     00F8  1012
                                     00F8  1013 	PQL	BIOLM,-			; BUFFERED I/O LIMIT
                                     00F8  1014 		DEFLT=6,-		;
                                     00F8  1015 		MINIM=2,-		;
                                     00F8  1016 		UNT=I/O			;
                                     00F8  1017
                                     00F8  1018 	PQL	BYTLM,-			; BUFFERED I/O BYTE COUNT LIMIT
                                     00F8  1019 		DEFLT=8192,-		;
                                     00F8  1020 		FLAG=DEDUCTIBLE,-	;
                                     00F8  1021 		MINIM=1024,-	;
                                     00F8  1022 		UNT=BYTES		;
                                     00F8  1023
                                     00F8  1024 	PQL	CPULM,-			; CPU TIME LIMIT
                                     00F8  1025 		DEFLT=0,-		;
                                     00F8  1026 		FLAG=DEDUCTIBLE,-	;
                                     00F8  1027 		MINIM=0,-		;
                                     00F8  1028 		UNT=10MS		;
                                     00F8  1029
                                     00F8  1030 	PQL	DIOLM,-			; DIRECT I/O LIMIT
                                     00F8  1031 		DEFLT=6,-		;
                                     00F8  1032 		MINIM=2,-		;
                                     00F8  1033 		UNT=I/O			;
                                     00F8  1034
                                     00F8  1035 	PQL	FILLM,-			; OPEN FILE LIMIT
                                     00F8  1036 		DEFLT=10,-		;
                                     00F8  1037 		FLAG=DEDUCTIBLE,-	;
                                     00F8  1038 		MINIM=2,-		;
                                     00F8  1039 		UNT=FILES		;
                                     00F8  1040
                                     00F8  1041 	PQL	PGFLQUOTA,-		; PAGING FILE QUOTA
                                     00F8  1042 		DEFLT=2048,-		;
                                     00F8  1043 		FLAG=DEDUCTIBLE,-	;
                                     00F8  1044 		MINIM=256,-		;
                                     00F8  1045 		UNT=PAGES		;
                                     00F8  1046
                                     00F8  1047 	PQL	PRCLM,-			; SUB-PROCESS LIMIT
PARAMETER       - PARAMETER DESCRIPTORS FOR SYSPARAM             21-AUG-1978 20:03:23   VAX-11 MACRO X0.3-11               Page  24
02              PROCESS QUOTA DEFAULTS AND MINIMA                                                                                (1)

                                     00F8  1048 		DEFLT=8,-		;
                                     00F8  1049 		FLAG=DEDUCTIBLE,-	;
                                     00F8  1050 		MINIM=0,-		;
                                     00F8  1051 		UNT=PROCESSES		;
                                     00F8  1052
                                     00F8  1053 	PQL	TQELM,-			; TIMER QUEUE ENTRY LIMIT
                                     00F8  1054 		DEFLT=8,-		;
                                     00F8  1055 		FLAG=DEDUCTIBLE,-	;
                                     00F8  1056 		MINIM=0,-		;
                                     00F8  1057 		UNT=TIMERS		;
                                     00F8  1058
                                     00F8  1059 	PQL	WSDEFAULT,-		; WORKING SET DEFAULT SIZE
                                     00F8  1060 		DEFLT=100,-		;
                                     00F8  1061 		MINIM=10,-		;
                                     00F8  1062 		UNT=PAGES		;
                                     00F8  1063
                                     00F8  1064 ;
                                     00F8  1065 ; DEFAULT WORKING SET SIZE - SIZE OF SHELL WORKING SET
                                     00F8  1066 ;
                                     00F8  1067 	.IF	NDF,PRMSW		;
                                     00F8  1068 SGN$GW_DFWSCNT==PQL$GDWSDEFAULT		; SYNONYM
                                     00F8  1069 	.ENDC				;
                                     00F8  1070 	PQL	WSQUOTA,-		; WORKING SET QUOTA
                                     00F8  1071 		DEFLT=120,-		;
                                     00F8  1072 		MINIM=10,-		;
                                     00F8  1073 		UNT=PAGES		;
                                     00F8  1074
                                     00F8  1075
PARAMETER       - PARAMETER DESCRIPTORS FOR SYSPARAM             21-AUG-1978 20:03:23   VAX-11 MACRO X0.3-11               Page  25
02              FILE ACP CONFIGURATION DATA                                                                                      (1)

                                     00F8  1077 	.SBTTL	FILE ACP CONFIGURATION DATA
                                     00F8  1078
                                     00F8  1079 ;+
                                     00F8  1080 ;
                                     00F8  1081 ; File ACP configuration data. These parameters are used whenever an ACP is
                                     00F8  1082 ; started up (or, in the case of per volume data, when a volume is mounted).
                                     00F8  1083 ;
                                     00F8  1084 ;-
                                     00F8  1085
                                     00F8  1086 ;
                                     00F8  1087 ; Number of blocks in bitmap cache.
                                     00F8  1088 ;
                                     00F8  1089 	PARAMETER	ADDRESS=ACP$GW_MAPCACHE,-	;
                                     00F8  1090 			DEFAULT=4,-	;
                                     00F8  1091 			MIN=1,-		;
                                     00F8  1092 			NAME=ACP_MAPCACHE,-	;
                                     00F8  1093 			SIZE=WORD,-	;
                                     00F8  1094 			TYPE=<SYSGEN,ACP>,-	;
                                     00F8  1095 			UNIT=PAGES	;
                                     00FA  1096 ;
                                     00FA  1097 ; Number of blocks in file header cache.
                                     00FA  1098 	PARAMETER	ADDRESS=ACP$GW_HDRCACHE,-	;
                                     00FA  1099 			DEFAULT=4,-	;
                                     00FA  1100 			MIN=1,-		;
                                     00FA  1101 			NAME=ACP_HDRCACHE,-	;
                                     00FA  1102 			SIZE=WORD,-	;
                                     00FA  1103 			TYPE=<SYSGEN,ACP>,-	;
                                     00FA  1104 			UNIT=PAGES	;
                                     00FC  1105 ;
                                     00FC  1106 ; Number of blocks in file directory cache.
                                     00FC  1107 ;
                                     00FC  1108 	PARAMETER	ADDRESS=ACP$GW_DIRCACHE,-	;
                                     00FC  1109 			DEFAULT=16,-	;
                                     00FC  1110 			MIN=2,-		;
                                     00FC  1111 			NAME=ACP_DIRCACHE,-	;
                                     00FC  1112 			SIZE=WORD,-	;
                                     00FC  1113 			TYPE=<SYSGEN,ACP>,-	;
                                     00FC  1114 			UNIT=PAGES	;
                                     00FE  1115 ;
                                     00FE  1116 ; ACP working set in pages (0 means maximal)
                                     00FE  1117 ;
                                     00FE  1118 	PARAMETER	ADDRESS=ACP$GW_WORKSET,-	;
                                     00FE  1119 			DEFAULT=0,-	;
                                     00FE  1120 			MIN=0,-		;
                                     00FE  1121 			NAME=ACP_WORKSET,-	;
                                     00FE  1122 			SIZE=WORD,-	;
                                     00FE  1123 			TYPE=<SYSGEN,ACP>,-	;
                                     00FE  1124 			UNIT=PAGES	;
                                     0100  1125 ;
                                     0100  1126 ; The following parameters are applied on a per volume basis.
                                     0100  1127 ;
                                     0100  1128 ;
                                     0100  1129 ; Number of cached index file slots
                                     0100  1130 ;
                                     0100  1131 	PARAMETER	ADDRESS=ACP$GW_FIDCACHE,-	;
                                     0100  1132 			DEFAULT=8,-	;
                                     0100  1133 			MIN=0,-		;
PARAMETER       - PARAMETER DESCRIPTORS FOR SYSPARAM             21-AUG-1978 20:03:23   VAX-11 MACRO X0.3-11               Page  26
02              FILE ACP CONFIGURATION DATA                                                                                      (1)

                                     0100  1134 			NAME=ACP_FIDCACHE,-	;
                                     0100  1135 			SIZE=WORD,-	;
                                     0100  1136 			TYPE=<SYSGEN,ACP>,-	;
                                     0100  1137 			UNIT=PAGES	;
                                     0102  1138 ;
                                     0102  1139 ; Number of cached disk extents
                                     0102  1140 ;
                                     0102  1141 	PARAMETER	ADDRESS=ACP$GW_EXTCACHE,-	;
                                     0102  1142 			DEFAULT=16,-	;
                                     0102  1143 			MIN=0,-		;
                                     0102  1144 			NAME=ACP_EXTCACHE,-	;
                                     0102  1145 			SIZE=WORD,-	;
                                     0102  1146 			TYPE=<SYSGEN,ACP>,-	;
                                     0102  1147 			UNIT=PAGES	;
                                     0104  1148 ;
                                     0104  1149 ; Maximum fraction of disk to cache in tenths of percent
                                     0104  1150 ;
                                     0104  1151 	PARAMETER	ADDRESS=ACP$GW_EXTLIMIT,-	;
                                     0104  1152 			DEFAULT=100,-	;
                                     0104  1153 			MIN=0,-		;
                                     0104  1154 			MAX=1000,-	;
                                     0104  1155 			NAME=ACP_EXTLIMIT,-	;
                                     0104  1156 			SIZE=WORD,-	;
                                     0104  1157 			TYPE=<SYSGEN,ACP>,-	;
                                     0104  1158 			UNIT=<Percent/10>	;
                                     0106  1159
                                     0106  1160 ;
                                     0106  1161 ; Default access for system volumes
                                     0106  1162 ;
                                     0106  1163 	PARAMETER	ADDRESS=ACP$GW_SYSACC,-	;
                                     0106  1164 			DEFAULT=8,-	;
                                     0106  1165 			MIN=0,-		;
                                     0106  1166 			NAME=ACP_SYSACC,-	;
                                     0106  1167 			SIZE=WORD,-		;
                                     0106  1168 			TYPE=<SYSGEN,ACP>	;
                                     0108  1169 ;
                                     0108  1170 ; Maximum number of blocks to read at once for directories.
                                     0108  1171 ;
                                     0108  1172 	PARAMETER	ADDRESS=ACP$GB_MAXREAD,-	;
                                     0108  1173 			DEFAULT=32,-	;
                                     0108  1174 			MIN=1,-		;
                                     0108  1175 			MAX=64,-	;
                                     0108  1176 			NAME=ACP_MAXREAD,-	;
                                     0108  1177 			SIZE=BYTE,-	;
                                     0108  1178 			TYPE=<SYSGEN,ACP>,-	;
                                     0108  1179 			UNIT=Block	;
                                     0109  1180 ;
                                     0109  1181 ; Default window size for system volumes.
                                     0109  1182 ;
                                     0109  1183 	PARAMETER	ADDRESS=ACP$GB_WINDOW,-	;
                                     0109  1184 			DEFAULT=7,-	;
                                     0109  1185 			MIN=1,-		;
                                     0109  1186 			NAME=ACP_WINDOW,-	;
                                     0109  1187 			SIZE=BYTE,-	;
                                     0109  1188 			TYPE=<SYSGEN,ACP>,-	;
                                     0109  1189 			UNIT=Pointer	;
                                     010A  1190 ;
PARAMETER       - PARAMETER DESCRIPTORS FOR SYSPARAM             21-AUG-1978 20:03:23   VAX-11 MACRO X0.3-11               Page  27
02              FILE ACP CONFIGURATION DATA                                                                                      (1)

                                     010A  1191 ; The following parameters apply per ACP.
                                     010A  1192 ;
                                     010A  1193 ;
                                     010A  1194 ; ACP base priority
                                     010A  1195 ;
                                     010A  1196 	PARAMETER	ADDRESS=ACP$GB_BASEPRIO,-	;
                                     010A  1197 			DEFAULT=9,-	;
                                     010A  1198 			MIN=4,-		;
                                     010A  1199 			MAX=31,-	;
                                     010A  1200 			NAME=ACP_BASEPRIO,-	;
                                     010A  1201 			SIZE=BYTE,-	;
                                     010A  1202 			TYPE=<SYSGEN,ACP>	;
                                     010B  1203 ;
                                     010B  1204 ; ACP Swap flags
                                     010B  1205 ;
                                     010B  1206 	PARAMETER	ADDRESS=ACP$GB_SWAPFLGS,-	;
                                     010B  1207 			DEFAULT=<^B1111>,-	;.
                                     010B  1208 			MIN=0,-		;
                                     010B  1209 			MAX=15,-	;
                                     010B  1210 			NAME=ACP_SWAPFLGS,-	;
                                     010B  1211 			SIZE=BYTE,-	;
                                     010B  1212 			TYPE=<SYSGEN,ACP>	;
                                     010C  1213 					; swappable, as follows:
                                     010C  1214 	.IF	NDF,PRMSW		; Only for exec version of sysparam
                                     010C  1215 	$GBLINI	GLOBAL
                                     010C  1216 	$VIELD	ACP,0,<-
                                     010C  1217 		<SWAPSYS>-		; /SYSTEM
                                     010C  1218 		<SWAPGRP>-		; /GROUP
                                     010C  1219 		<SWAPPRV>-		; other (private mount)
                                     010C  1220 		<SWAPMAG>-		; magtape
                                     010C  1221 		>
                                     010C  1222 	.ENDC				;
                                     010C  1223
                                     010C  1224 	.ALIGN	LONG
                                     010C  1225
PARAMETER       - PARAMETER DESCRIPTORS FOR SYSPARAM             21-AUG-1978 20:03:23   VAX-11 MACRO X0.3-11               Page  28
02              Job Controller Parameters                                                                                        (1)

                                     010C  1227 	.SBTTL	Job Controller Parameters
                                     010C  1228 ;
                                     010C  1229 ; Maximum number of print symbionts
                                     010C  1230 ;
                                     010C  1231 	PARAMETER	ADDRESS=SYS$GB_MXPRTSYM,-	;
                                     010C  1232 			DEFAULT=8,-	;
                                     010C  1233 			MIN=1,-		;
                                     010C  1234 			MAX=255,-	;
                                     010C  1235 			NAME=MAXPRINTSYMB,-	;
                                     010C  1236 			SIZE=BYTE,-	;
                                     010C  1237 			TYPE=<JBC,DYNAMIC>,-	;
                                     010C  1238 			UNIT=PROCESSES	;
                                     010D  1239 ;
                                     010D  1240 ; Default Priority for Job Initiations
                                     010D  1241 ;
                                     010D  1242 	PARAMETER	SYS$GB_DEFPRI,-	;
                                     010D  1243 			DEFAULT=4,-	;
                                     010D  1244 			MIN=1,-		;
                                     010D  1245 			MAX=31,-	;
                                     010D  1246 			NAME=DEFPRI,-	;
                                     010D  1247 			SIZE=BYTE,-	;
                                     010D  1248 			TYPE=<JBC,DYNAMIC>	;
                                     010E  1249 ;
                                     010E  1250 ; Limit for interactive Jobs
                                     010E  1251 ;
                                     010E  1252 	PARAMETER	ADDRESS=SYS$GW_IJOBLIM,-	;
                                     010E  1253 			DEFAULT=64,-	;
                                     010E  1254 			MIN=1,-		;
                                     010E  1255 			MAX=1024,-	;
                                     010E  1256 			NAME=IJOBLIM,-	;
                                     010E  1257 			SIZE=WORD,-	;
                                     010E  1258 			TYPE=<JBC,DYNAMIC>,-	;
                                     010E  1259 			UNIT=JOBS	;
                                     0110  1260 ;
                                     0110  1261 ; Limit for batch Jobs
                                     0110  1262 ;
                                     0110  1263 	PARAMETER	ADDRESS=SYS$GW_BJOBLIM,-	;
                                     0110  1264 			DEFAULT=16,-	;
                                     0110  1265 			MIN=0,-		;
                                     0110  1266 			MAX=1024,-	;
                                     0110  1267 			NAME=BJOBLIM,-	;
                                     0110  1268 			SIZE=WORD,-	;
                                     0110  1269 			TYPE=<JBC,DYNAMIC>,-	;
                                     0110  1270 			UNIT=JOBS	;
                                     0112  1271
                                     0112  1272 ;
                                     0112  1273 ; Limit for network Jobs
                                     0112  1274 ;
                                     0112  1275 	PARAMETER	ADDRESS=SYS$GW_NJOBLIM,-	;
                                     0112  1276 			DEFAULT=16,-	;
                                     0112  1277 			MIN=0,-		;
                                     0112  1278 			MAX=1024,-	;
                                     0112  1279 			NAME=NJOBLIM,-	;
                                     0112  1280 			SIZE=WORD,-	;
                                     0112  1281 			TYPE=<JBC,DYNAMIC>,-	;
                                     0112  1282 			UNIT=JOBS	;
                                     0114  1283
PARAMETER       - PARAMETER DESCRIPTORS FOR SYSPARAM             21-AUG-1978 20:03:23   VAX-11 MACRO X0.3-11               Page  29
02              COMPUTED VALUES                                                                                                  (1)

                                     0114  1285 	.SBTTL	COMPUTED VALUES
                                     0114  1286 	.ALIGN	LONG			;
                                     0114  1287 	DEFINE	SWP$GL_SHELLSIZ		; PAGES REQUIRED FOR SHELL
                           00000000  0114  1288 	.LONG	0			;
                                     0118  1289
                                     0118  1290 	DEFINE	SWP$GW_BAKPTE		; PHD PAGES FOR BAK+WSLX+LCK+VAL
                               0000  0118  1291 	.WORD	0			;
                                     011A  1292
                                     011A  1293 	DEFINE	SWP$GW_EMPTPTE		; EMPTY PHDPAGES
                               0000  011A  1294 	.WORD	0			;
                                     011C  1295
                                     011C  1296 	DEFINE	SWP$GW_WSLPTE		; PHD PAGES FOR FIXED+WSL+PST
                               0000  011C  1297 	.WORD	0			;
                                     011E  1298
                                     011E  1299 	DEFINE	SWP$GB_SHLP1PT		; P1 PAGE TABLES REQUIRED FOR SHELL
                                 00  011E  1300 	.BYTE	0			;
                                     011F  1301
                                 00  011F  1302 	.BYTE	0			; SPARE
                                     0120  1303
                                     0120  1304 	DEFINE	SWP$GL_BSLOTSZ		; SIZE OF BALANCE SLOT
                           00000000  0120  1305 	.LONG	0			;
                                     0124  1306
                                     0124  1307 	DEFINE	SWP$GL_MAP		; SWAPPER MAP POINTER
                           00000000  0124  1308 	.LONG	0			;
                                     0128  1309
                                     0128  1310 	DEFINE	SWP$GL_PHDBASVA		; BASE ADDRESS OF PHD WINDOW
                           00000000  0128  1311 	.LONG	0			;
                                     012C  1312
                                     012C  1313 	DEFINE	SGN$GL_PHDAPCNT		; TOTAL SHELL HEADER PAGES
                           00000000  012C  1314 	.LONG	0			;
                                     0130  1315
                                     0130  1316 	DEFINE	SGN$GL_PHDLWCNT		; COUNT OF LONGWORDS IN PHD
                           00000000  0130  1317 	.LONG	0			;
                                     0134  1318
                                     0134  1319 	DEFINE	SGN$GL_P1LWCNT		; COUNT OF LW TO END OF P1 PAGETABLE
                           00000000  0134  1320 	.LONG	0			;
                                     0138  1321
                                     0138  1322 	DEFINE	SGN$GL_PHDPAGCT		; TOTAL PHD PAGES LESS PAGE TABLES
                           00000000  0138  1323 	.LONG	0			;
                                     013C  1324
                                     013C  1325 	DEFINE	SGN$GL_PTPAGCNT		; TOTAL PAGE TABLE COUNT
                           00000000  013C  1326 	.LONG	0			;
                                     0140  1327
                                     0140  1328 	DEFINE	MMG$GL_CTLBASVA		; BASE ADDRESS IN CONTROL REGION
                           00000000  0140  1329 	.LONG	0			;
                                     0144  1330
                                     0144  1331 ;
                                     0144  1332 ;	THE FOLLOWING TWO CELLS MUST BE ADJACENT
                                     0144  1333 ;
                                     0144  1334 	DEFINE	EXE$AL_STACKS		; ARRAY OF KERNEL MODE SYSTEM SPACE STACKS
                           00000000' 0144  1335 	.LONG	SWP$A_KSTK		; SWAPPER STACK (ADJACENT TO NULL STACK)
                                     0148  1336 	DEFINE	EXE$GL_INTSTK		; BASE OF INTERRUPT STACK
                           00000000  0148  1337 	.LONG	0			;
                                     014C  1338 ;
                                     014C  1339 ;	THE PRECEDING TWO LONG WORDS MUST BE ADJACENT.
                                     014C  1340 ;
                                     014C  1341
PARAMETER       - PARAMETER DESCRIPTORS FOR SYSPARAM             21-AUG-1978 20:03:23   VAX-11 MACRO X0.3-11               Page  30
02              COMPUTED VALUES                                                                                                  (1)

                                     014C  1342 	DEFINE	MMG$GL_GPTBASE		; GLOBAL PAGE TABLE BASE ADDRESS
                           00000000  014C  1343 	.LONG	0			;
                                     0150  1344
                                     0150  1345 	DEFINE	MMG$GL_GPTE		; BASE ADDRESS OF SPT PTES FOR GPT
                           00000000  0150  1346 	.LONG	0			; PAGES
                                     0154  1347
                                     0154  1348 	DEFINE	MMG$GL_MAXGPTE		; HIGHEST GPTE ADDRESS
                           00000000  0154  1349 	.LONG	0			;
                                     0158  1350
                                     0158  1351 	DEFINE	MMG$GL_MAXSYSVA		; HIGHEST SYSTEM VA (+1)
                                     0158  1352 	DEFINE	MMG$GL_FRESVA		; SYNONYM
                           00000000  0158  1353 	.LONG	0			;
                                     015C  1354
                                     015C  1355 	DEFINE	MMG$GL_SPTBASE		; BASE ADDRESS OF SPT (VIRTUAL)
                           00000000  015C  1356 	.LONG	0			;
                                     0160  1357
                                     0160  1358 	DEFINE	MMG$GL_SPTLEN		; LENGTH OF SYSTEM PAGE TABLE
                           00000000  0160  1359 	.LONG	0			;
                                     0164  1360
                                     0164  1361 	DEFINE	MMG$GL_SYSPHD		; VA OF SYSTEM PHD
                           00000000  0164  1362 	.LONG	0			;
                                     0168  1363
                                     0168  1364 	DEFINE	MMG$GL_SYSPHDLN		; SIZE OF SYSTEM PHD IN BYTES
                           00000000  0168  1365 	.LONG	0			;
                                     016C  1366
                                     016C  1367 	DEFINE	MSG$GL_INDEX		; BASE ADDRESS OF MESSAGE FILE IMAGE
                           00000000  016C  1368 	.LONG	0			;
                                     0170  1369
                                     0170  1370 	DEFINE	SWP$GL_BALBASE		; BASE VA OF BALANCE SLOTS FOR
                           00000000  0170  1371 	.LONG	0			; PROCESS HEADERS
                                     0174  1372
                                     0174  1373 	DEFINE	SWP$GL_BALSPT		; BASE VA IN SPT FOR MAPPING BALANCE
                           00000000  0174  1374 	.LONG	0			; SLOTS
                                     0178  1375
                                     0178  1376 	DEFINE	MMG$GL_SBR		; SYSTEM BASE REGISTER
                           00000000  0178  1377 	.LONG	0			;
                                     017C  1378
                                     017C  1379 	DEFINE	MMG$GL_NPAGEDYN		; VA OF NON-PAGED POOL
                           00000000  017C  1380 	.LONG	0			;
                                     0180  1381
                                     0180  1382 	DEFINE	MMG$GL_PAGEDYN		; VA OF PAGED POOL
                           00000000  0180  1383 	.LONG	0			;
                                     0184  1384
                                     0184  1385 	DEFINE	MMG$GL_MAXPFN		; MAXIMUM PFN FOR SYSTEM
                           00000000  0184  1386 	.LONG	0			;
                                     0188  1387
                                     0188  1388 	DEFINE	EXE$GL_RPB		; VIRTUAL ADDRESS OF RESTART PARAMETER BLK
                           00000000  0188  1389 	.LONG	0			;
                                     018C  1390
                                     018C  1391 	DEFINE	BOO$GL_SPTFREL		; LOWER VPN OF SPT FREE AREA
                           00000000  018C  1392 	.LONG	0			;
                                     0190  1393
                                     0190  1394 	DEFINE	BOO$GL_SPTFREH		; HIGHER VPN OF SPT FREE AREA
                           00000000  0190  1395 	.LONG	0			;
                                     0194  1396
                                     0194  1397 	DEFINE	PFN$A_BASE		; BASE OF PFN POINTERS
                                     0194  1398 	PFNALC	L,PTE			; ADDRESS OF PAGE TABLE ENTRY
PARAMETER       - PARAMETER DESCRIPTORS FOR SYSPARAM             21-AUG-1978 20:03:23   VAX-11 MACRO X0.3-11               Page  31
02              COMPUTED VALUES                                                                                                  (1)

                                     0198  1399 	PFNALC	L,BAK			; BACKING STORE ADDRESS
                                     019C  1400 	PFNALC	W,REFCNT		; REFERENCE COUNT
                                     01A0  1401 	PFNALC	W,<FLINK,-		; FORWARD LINK
                                     01A0  1402 		SHRCNT>			; ALSO USED AS GLOBAL SHARE COUNT
                                     01A4  1403 	PFNALC	W,<BLINK,-		; BACK LINK
                                     01A4  1404 		WSLX>			; ALSO USED AS WORKING SET LIST INDEX
                                     01A8  1405 	PFNALC	W,SWPVBN		; SWAP IMAGE VIRTUAL BLOCK OFFSET
                                     01AC  1406 	PFNALC	B,STATE			; STATE OF PAGE
                                     01B0  1407 	PFNALC	B,TYPE			; TYPE OF PAGE
                                     01B4  1408 	.IF	NDF,PRMSW		;
                                     01B4  1409 	PFN$C_LENGTH==18		; SIZE OF PFN DATA BASE IN BYTES
                                     01B4  1410 	.ENDC				;
                                     01B4  1411 	DEFINE	EXE$GT_STARTUP		; NAME OF STARTUP COMMAND FILE
3A 4D 45 54 53 59 53 24 53 59 53 00' 01B4  1412 	.ASCIC	/SYS$SYSTEM:STARTUP.COM/; DEFAULT VALUE
   4D 4F 43 2E 50 55 54 52 41 54 53  01C0
                                 16  01B4
                           000001D5  01CB  1413 	.BLKB	10			; ALLOW FOR 31 BYTES + COUNT
                                     01D5  1414 	.IF	NDF,PRMSW		; IF EXEC VERSION
                                     01D5  1415 EXE$C_SYSPARSZ==.-EXE$A_SYSPARAM	; SIZE OF SYSTEM PARAMETERS
                                     01D5  1416 	.IFF				;
                                 00001320  1417 	.PSECT	$$$918,LONG		;
                           00000000  1320  1418 	.LONG	0			; FLAG TO MARK END
                                     1324  1419 	.ENDC				;
                                     1324  1420
                                     1324  1421 	.END				;
PARAMETER       - PARAMETER DESCRIPTORS FOR SYSPARAM             21-AUG-1978 20:03:23   VAX-11 MACRO X0.3-11               Page  32
SYMBOL TABLE                                                                                                                     (1)

ACP$GB_BASEPRIO  ********   X   04   MMG$GL_PHYPGCNT  ********   X   04   PQL$_TQELM     = 00000009
ACP$GB_MAXREAD   ********   X   04   MMG$GL_SBR       00000178 R     03   PQL$_WSDEFAULT = 0000000B
ACP$GB_SWAPFLGS  ********   X   04   MMG$GL_SPTBASE   0000015C R     03   PQL$_WSQUOTA   = 0000000A
ACP$GB_WINDOW    ********   X   04   MMG$GL_SPTLEN    00000160 R     03   PQLSAV...      = 000000F8 R     03
ACP$GW_DIRCACHE  ********   X   04   MMG$GL_SYSPHD    00000164 R     03   PQL_M_DEDUCT   = 00000001
ACP$GW_EXTCACHE  ********   X   04   MMG$GL_SYSPHDLN  00000168 R     03   PQL_V_DEDUCT   = 00000000
ACP$GW_EXTLIMIT  ********   X   04   MPW$AW_INITVAL   00000056 R     03   PRM$B_POS        00000013
ACP$GW_FIDCACHE  ********   X   04   MPW$GW_HILIM     ********   X   04   PRM$B_SIZE       00000012
ACP$GW_HDRCACHE  ********   X   04   MPW$GW_LOLIM     ********   X   04   PRM$C_BYTE     = 00000008
ACP$GW_MAPCACHE  ********   X   04   MPW$GW_MPWPFC    ********   X   04   PRM$C_LENGTH     00000030
ACP$GW_SYSACC    ********   X   04   MSG$GL_INDEX     0000016C R     03   PRM$C_LONG     = 00000020
ACP$GW_WORKSET   ********   X   04   PFN$AB_STATE     000001AC R     03   PRM$C_WORD     = 00000010
BAS...         = 000012F0 R     04   PFN$AB_TYPE      000001B0 R     03   PRM$K_LENGTH     00000030
BIT...         = 00000008            PFN$AL_BAK       00000198 R     03   PRM$L_ADDR       00000000
BOO$A_PRMBLK     00000000 RG    04   PFN$AL_PTE       00000194 R     03   PRM$L_DEFAULT    00000004
BOO$A_SYSPARAM   00000000 RG    03   PFN$AW_BLINK     000001A4 R     03   PRM$L_MAX        0000000C
BOO$GL_SPTFREH   00000190 R     03   PFN$AW_FLINK     000001A0 R     03   PRM$L_MIN        00000008
BOO$GL_SPTFREL   0000018C R     03   PFN$AW_REFCNT    0000019C R     03   PRM$M_ACP      = 00000008
DEDUCTIBLE     = 00000001            PFN$AW_SHRCNT    000001A0 R     03   PRM$M_CONTROL  = 00000200
EXE$AL_STACKS    00000144 R     03   PFN$AW_SWPVBN    000001A8 R     03   PRM$M_DISPLAY  = 00000100
EXE$A_SYSPARAM   00000000 R     03   PFN$AW_WSLX      000001A4 R     03   PRM$M_DYNAMIC  = 00000001
EXE$GL_DEFFLAGS  ********   X   04   PFN$A_BASE       00000194 R     03   PRM$M_JBC      = 00000010
EXE$GL_INTSTK    00000148 R     03   PQL$AB_FLAG      000000EB R     03   PRM$M_MAJOR    = 00000400
EXE$GL_RPB       00000188 R     03   PQL$AL_DEFAULT   00000088 R     03   PRM$M_NEG      = 00001000
EXE$GL_SYSUIC    ********   X   04   PQL$AL_MIN       000000B8 R     03   PRM$M_PQL      = 00000800
EXE$GL_TODR      00000008 R     03   PQL$GDASTLM      ********   X   04   PRM$M_RMS      = 00000020
EXE$GQ_TODCBASE  00000000 R     03   PQL$GDBIOLM      ********   X   04   PRM$M_SPECIAL  = 00000080
EXE$GT_STARTUP   000001B4 R     03   PQL$GDBYTLM      ********   X   04   PRM$M_STATIC   = 00000002
EXE$V_BUGDUMP    ********   X   03   PQL$GDCPULM      ********   X   04   PRM$M_SYS      = 00000040
EXE$V_BUGREBOOT  ********   X   03   PQL$GDDIOLM      ********   X   04   PRM$M_SYSGEN   = 00000004
EXE$V_CRDENABL   ********   X   03   PQL$GDFILLM      ********   X   04   PRM$T_NAME       00000014
EXE$V_FATAL_BUG  ********   X   03   PQL$GDPGFLQUOTA  ********   X   04   PRM$T_UNIT       00000024
EXE$V_MULTACP    ********   X   04   PQL$GDPRCLM      ********   X   04   PRM$V_ACP      = 00000003
EXE$V_NOAUTOCNF  ********   X   04   PQL$GDTQELM      ********   X   04   PRM$V_CONTROL  = 00000009
EXE$V_NOCLOCK    ********   X   04   PQL$GDWSDEFAULT  ********   X   04   PRM$V_DISPLAY  = 00000008
EXE$V_NOCLUSTER  ********   X   04   PQL$GDWSQUOTA    ********   X   04   PRM$V_DYNAMIC  = 00000000
EXE$V_POOLPGING  ********   X   03   PQL$GMASTLM      ********   X   04   PRM$V_JBC      = 00000004
EXE$V_SBIERR     ********   X   03   PQL$GMBIOLM      ********   X   04   PRM$V_MAJOR    = 0000000A
EXE$V_SETTIME    ********   X   04   PQL$GMBYTLM      ********   X   04   PRM$V_NEG      = 0000000C
EXE$V_SHRF11ACP  ********   X   03   PQL$GMCPULM      ********   X   04   PRM$V_PQL      = 0000000B
EXE$V_SYSPAGING  ********   X   03   PQL$GMDIOLM      ********   X   04   PRM$V_RMS      = 00000005
EXE$V_SYSUAFALT  ********   X   04   PQL$GMFILLM      ********   X   04   PRM$V_SPECIAL  = 00000007
EXE$V_SYSWRTABL  ********   X   04   PQL$GMPGFLQUOTA  ********   X   04   PRM$V_STATIC   = 00000001
GBL...         = 00000000            PQL$GMPRCLM      ********   X   04   PRM$V_SYS      = 00000006
IOC$GW_MAXBUF    ********   X   04   PQL$GMTQELM      ********   X   04   PRM$V_SYSGEN   = 00000002
IOC$GW_MBXBFQUO  ********   X   04   PQL$GMWSDEFAULT  ********   X   04   PRM$W_FLAGS      00000010
IOC$GW_MBXMXMSG  ********   X   04   PQL$GMWSQUOTA    ********   X   04   PRMSAV...      = 00000112 R     03
IOC$GW_MBXNMMSG  ********   X   04   PQL$_ASTLM     = 00000001            PRMSW          = 00000001
MMG$GL_CTLBASVA  00000140 R     03   PQL$_BIOLM     = 00000002            SAV...         = 00001320 R     04
MMG$GL_FRESVA    00000158 R     03   PQL$_BYTLM     = 00000003            SCH$GW_QUAN      ********   X   04
MMG$GL_GPTBASE   0000014C R     03   PQL$_CPULM     = 00000004            SGN$C_PFLIBAS    ********   X   03
MMG$GL_GPTE      00000150 R     03   PQL$_DIOLM     = 00000005            SGN$GB_DEFPGFL   0000002C R     03
MMG$GL_MAXGPTE   00000154 R     03   PQL$_FILLM     = 00000006            SGN$GB_KFILSTCT  ********   X   04
MMG$GL_MAXPFN    00000184 R     03   PQL$_LENGTH    = 0000000C            SGN$GB_PGTBPFC   ********   X   04
MMG$GL_MAXSYSVA  00000158 R     03   PQL$_LISTEND   = 00000000            SGN$GB_SYSPFC    ********   X   04
MMG$GL_NPAGEDYN  0000017C R     03   PQL$_PGFLQUOTA = 00000007            SGN$GL_BALSETCT  ********   X   04
MMG$GL_PAGEDYN   00000180 R     03   PQL$_PRCLM     = 00000008            SGN$GL_EXUSRSTK  ********   X   04
PARAMETER       - PARAMETER DESCRIPTORS FOR SYSPARAM             21-AUG-1978 20:03:23   VAX-11 MACRO X0.3-11               Page  33
SYMBOL TABLE                                                                                                                     (1)

SGN$GL_FREELIM   ********   X   04   TT$C_BAUD_300  = 00000006            TT$_UNKNOWN    = 00000000
SGN$GL_IRPCNT    ********   X   04   TT$C_BAUD_3600 = 0000000C            TT$_VT05       = 00000001
SGN$GL_MAXVPGCT  ********   X   04   TT$C_BAUD_4800 = 0000000D            TT$_VT52       = 00000040
SGN$GL_MAXWSCNT  ********   X   04   TT$C_BAUD_50   = 00000001            TT$_VT55       = 00000041
SGN$GL_NPAGEDYN  ********   X   04   TT$C_BAUD_600  = 00000007            TT$_VT5X       = 00000040
SGN$GL_P1LWCNT   00000134 R     03   TT$C_BAUD_7200 = 0000000E            TTY$GB_DEFSPEED  ********   X   04
SGN$GL_PAGEDYN   ********   X   04   TT$C_BAUD_75   = 00000002            TTY$GB_DIALTYP   ********   X   04
SGN$GL_PGFLSIZ   ********   X   04   TT$C_BAUD_9600 = 0000000F            TTY$GL_DEFCHAR   ********   X   04
SGN$GL_PHDAPCNT  0000012C R     03   TT$M_ALTRPAR   = 00000020            TTY$GL_DELTA     ********   X   04
SGN$GL_PHDLWCNT  00000130 R     03   TT$M_CRFILL    = 00000400            TTY$GW_DEFBUF    ********   X   04
SGN$GL_PHDPAGCT  00000138 R     03   TT$M_EIGHTBIT  = 00008000            TYP...         = 00000011
SGN$GL_PTPAGCNT  0000013C R     03   TT$M_ESCAPE    = 00000008
SGN$GL_SPTREQ    ********   X   04   TT$M_HOLDSCREEN= 00004000
SGN$GW_DFPFC     ********   X   04   TT$M_HOSTSYNC  = 00000010
SGN$GW_GBLSECNT  ********   X   04   TT$M_LFFILL    = 00000800
SGN$GW_IMGIOCNT  ********   X   04   TT$M_LOWER     = 00000080
SGN$GW_ISPPGCT   ********   X   04   TT$M_MBXDSABL  = 00010000
SGN$GW_MAXGPGCT  ********   X   04   TT$M_MECHTAB   = 00000100
SGN$GW_MAXPRCCT  ********   X   04   TT$M_NOBRDCST  = 00020000
SGN$GW_MAXPSTCT  ********   X   04   TT$M_NOECHO    = 00000002
SGN$GW_MINWSCNT  ********   X   04   TT$M_NOTYPEAHD = 00000004
SGN$GW_PAGFILCT  ********   X   04   TT$M_ODD       = 00000080
SGN$GW_PCHANCNT  ********   X   04   TT$M_PAGE      = FE000000
SGN$GW_PFLIBAS   0000001E R     03   TT$M_PARITY    = 00000040
SGN$GW_SFTMAX    ********   X   04   TT$M_PASSALL   = 00000001
SGN$GW_SYSDWSCT  ********   X   04   TT$M_READSYNC  = 00040000
SGN$GW_WSLMXSKP  ********   X   04   TT$M_REMOTE    = 00002000
SWP$A_KSTK       ********   X   03   TT$M_SCOPE     = 00001000
SWP$GB_SHLP1PT   0000011E R     03   TT$M_SCRIPT    = 00000040
SWP$GL_BALBASE   00000170 R     03   TT$M_TTSYNC    = 00000020
SWP$GL_BALSPT    00000174 R     03   TT$M_WRAP      = 00000200
SWP$GL_BSLOTSZ   00000120 R     03   TT$S_PAGE      = 00000008
SWP$GL_MAP       00000124 R     03   TT$V_ALTRPAR   = 00000005
SWP$GL_PHDBASVA  00000128 R     03   TT$V_CRFILL    = 0000000A
SWP$GL_SHELLSIZ  00000114 R     03   TT$V_EIGHTBIT  = 0000000F
SWP$GW_BAKPTE    00000118 R     03   TT$V_ESCAPE    = 00000003
SWP$GW_EMPTPTE   0000011A R     03   TT$V_HOLDSCREEN= 0000000E
SWP$GW_WSLPTE    0000011C R     03   TT$V_HOSTSYNC  = 00000004
SYS$GB_DEFPRI    ********   X   04   TT$V_LFFILL    = 0000000B
SYS$GB_DFMBC     ********   X   04   TT$V_LOWER     = 00000007
SYS$GB_DFMBFHSH  ********   X   04   TT$V_MBXDSABL  = 00000010
SYS$GB_DFMBFIDX  ********   X   04   TT$V_MECHTAB   = 00000008
SYS$GB_DFMBFREL  ********   X   04   TT$V_NOBRDCST  = 00000011
SYS$GB_DFMBFSDK  ********   X   04   TT$V_NOECHO    = 00000001
SYS$GB_DFMBFSMT  ********   X   04   TT$V_NOTYPEAHD = 00000002
SYS$GB_DFMBFSUR  ********   X   04   TT$V_ODD       = 00000007
SYS$GB_MXPRTSYM  ********   X   04   TT$V_PAGE      = 00000019
SYS$GW_BJOBLIM   ********   X   04   TT$V_PARITY    = 00000006
SYS$GW_IJOBLIM   ********   X   04   TT$V_PASSALL   = 00000000
SYS$GW_NJOBLIM   ********   X   04   TT$V_READSYNC  = 00000012
TT$C_BAUD_110  = 00000003            TT$V_REMOTE    = 0000000D
TT$C_BAUD_1200 = 00000008            TT$V_SCOPE     = 0000000C
TT$C_BAUD_134  = 00000004            TT$V_SCRIPT    = 00000006
TT$C_BAUD_150  = 00000005            TT$V_TTSYNC    = 00000005
TT$C_BAUD_1800 = 00000009            TT$V_WRAP      = 00000009
TT$C_BAUD_2000 = 0000000A            TT$_LA36       = 00000020
TT$C_BAUD_2400 = 0000000B            TT$_LAX        = 00000020
PARAMETER       - PARAMETER DESCRIPTORS FOR SYSPARAM             21-AUG-1978 20:03:23   VAX-11 MACRO X0.3-11               Page  34
PROGRAM SECTION SYNOPSIS                                                                                                         (1)


PROGRAM SECTION SYNOPSIS

.  ABS  .        00000000      00     NOPIC   USR   CON   ABS   LCL NOSHR NOEXE NORD  NOWRT BYTE
. BLANK .        00000000      01     NOPIC   USR   CON   REL   LCL NOSHR   EXE   RD    WRT BYTE
$ABS$            00000030      02     NOPIC   USR   CON   ABS   LCL NOSHR   EXE   RD    WRT BYTE
$$$917A          000001D5      03     NOPIC   USR   CON   REL   LCL NOSHR   EXE   RD    WRT PAGE
$$$918           00001324      04     NOPIC   USR   CON   REL   LCL NOSHR   EXE   RD    WRT LONG


THERE WERE NO ERRORS OR WARNINGS.
17540. BYTES LEFT IN FREE MEMORY POOL.
34. BYTES OF RECLAIMED MEMORY.
OBJ$:PARAMETER,LIS$:PARAMETER/-SP=EXECML$/ML,SRC$:PRMSW,SYSPARAM
2 MLB DIR RDS - 211 GETS TO DEFINE 12 MACROS. 95 INTER. FILE WRITES.
