SCBVECTOR                                                        21-AUG-1978 20:09:43   VAX-11 MACRO X0.3-11               Page   0
TABLE OF CONTENTS

   (1)    4200  SCB PROTOTYPE
SCBVECTOR                                                        21-AUG-1978 20:09:43   VAX-11 MACRO X0.3-11               Page   1
06                                                                                                                               (1)

                                     0000   100 	.TITLE	SCBVECTOR
                                     0000   200 	.IDENT	/06/
                                     0000   300 ;
                                     0000   400 ; COPYRIGHT (C) 1977,1978
                                     0000   500 ; DIGITAL EQUIPMENT CORPORATION, MAYNARD, MASS.
                                     0000   600 ;
                                     0000   700 ; THIS SOFTWARE IS FURNISHED UNDER  A LICENSE FOR USE ONLY  ON  A
                                     0000   800 ; SINGLE COMPUTER SYSTEM AND MAY BE  COPIED ONLY WITH  THE INCLU-
                                     0000   900 ; SION OF  THE  ABOVE  COPYRIGHT NOTICE.  THIS SOFTWARE,  OR  ANY
                                     0000  1000 ; OTHER COPIES THEREOF, MAY NOT BE  PROVIDED  OR  OTHERWISE  MADE
                                     0000  1100 ; AVAILABLE TO ANY OTHER PERSON EXCEPT  FOR  USE  ON  SUCH SYSTEM
                                     0000  1200 ; AND TO  ONE WHO AGREES  TO  THESE LICENSE  TERMS.  TITLE TO AND
                                     0000  1300 ; OWNERSHIP OF THE SOFTWARE SHALL AT ALL TIMES REMAIN IN DEC.
                                     0000  1400 ;
                                     0000  1500 ; THE INFORMATION IN THIS SOFTWARE  IS  SUBJECT TO CHANGE WITHOUT
                                     0000  1600 ; NOTICE AND SHOULD NOT BE CONSTRUED  AS  A COMMITMENT BY DIGITAL
                                     0000  1700 ; EQUIPMENT CORPORATION.
                                     0000  1800 ;
                                     0000  1900 ; DEC ASSUMES NO RESPONSIBILITY FOR THE USE OR RELIABILITY OF ITS
                                     0000  2000 ; SOFTWARE ON EQUIPMENT WHICH IS NOT SUPPLIED BY DEC.
                                     0000  2100 ;
                                     0000  2200 ;++
                                     0000  2300 ;  VMS SCB
                                     0000  2400 ;--
                                     0000  2500 ;
                                     0000  2600 ; VERSION X01 (BASE LEVEL 0)
                                     0000  2700 ;
                                     0000  2800 ; AUTHOR: R. HEINEN 9-AUG-76 (X01)
                                     0000  2900 ;
                                     0000  3000 ; MODIFIED BY R.HEINEN ON 13-OCT-76; ADD FORKS AT LEVEL 6,7.
                                     0000  3100
                                     0000  3200 ;
                                     0000  3300 ; EQUATES:
                                     0000  3400 ;
                                     0000  3500
                                     0000  3600 	.MACRO	SPUR,VNUM
                                     0000  3700 VEC'VNUM:	;BSBW	UNEXP
                                     0000  3800 ;	.BYTE	<^X'VNUM>/2
                                     0000  3900 	.ENDM	SPUR
                                     0000  4000
SCBVECTOR                                                        21-AUG-1978 20:09:43   VAX-11 MACRO X0.3-11               Page   2
06              SCB PROTOTYPE                                                                                                    (1)

                                     0000  4200 	.SBTTL	SCB PROTOTYPE
                                     0000  4300 ;++
                                     0000  4400 ; SCB PROTOTYPE
                                     0000  4500 ;
                                     0000  4600 ; ADDRESS =0
                                     0000  4700 ;--
                                     0000  4800 	$IPLDEF			; DEFINE IPL LEVELS
                                     0000  4900 	$PRDEF			; DEFINE PROCESSOR REGISTERS
                                     0000  5000
                                 00000000  5100 	.PSECT	$$$800SCB,PAGE	; SCB MUST BE PAGE ALIGNED
                           00000001  0000  5200 INTSTK=1			; DEFINITION FOR INTERRUPT STACK
                                     0000  5300 SCB$AL_BASE::			; SCB BASE ADDRESS
                           00000009' 0000  5400 	.LONG	VEC000+INTSTK 	; UNUSED, RESERVED TO DIGITAL
                                     0004  5500 EXE$MCHKVEC::
                           00000001' 0004  5600 	.LONG	EXE$MCHK+INTSTK	; MACHINE CHECK HANDLER.	^X004
                           00000001' 0008  5700 	.LONG	EXE$KERSTKNV+INTSTK; KERNEL STACK NOT VALID HALT. ^X008
                           00000001' 000C  5800 	.LONG	EXE$POWERFAIL+INTSTK; POWER FAIL INTERUPT. ^X00C
                           00000000' 0010  5900 	.LONG	EXE$OPCDEC	; RESERVED/PRIVILEGED INSTRUCTION FAULT. ^X010
                           00000000' 0014  6000 	.LONG	EXE$OPCCUS	; CUSTOMER RESERVED INSTRUCTION FAULT. ^X014
                           00000000' 0018  6100 	.LONG	EXE$ROPRAND	; RESERVED OPERAND FAULT/HALT. ^X018
                           00000000' 001C  6200 	.LONG	EXE$RADRMOD	; RESERVED ADDRESSING MODE FAULT. ^X01C
                                     0020  6300 EXE$ACVEC::
                           00000000' 0020  6400 	.LONG	EXE$ACVIOLAT	; ACCESS CONTROL VIOLATION FAULT. ^X020
                                     0024  6500 EXE$PFVEC::
                           00000000' 0024  6600 	.LONG	MMG$PAGEFAULT	; TRANSLATION NOT VALID FAULT.  ^X024
                           00000000' 0028  6700 	.LONG	EXE$TBIT	; TBIT FAULT.			^X028
                           00000000' 002C  6800 	.LONG	EXE$BREAK	; BREAKPOINT FAULT.		^X02C
                           00000000' 0030  6900 	.LONG	EXE$COMPAT	; COMPATIBILITY FAULT.		^X030
                           00000000' 0034  7000 	.LONG	EXE$ARITH	; ARITHMETIC TRAP.		^X034
                           00000008' 0038  7100 	.LONG	VEC038		; UNUSED			^X038
                           00000008' 003C  7200 	.LONG	VEC03C		; UNUSED			^X03C
                           00000000' 0040  7300 	.LONG	EXE$CMODKRNL	; CHMK TRAP.			^X040
                           00000000' 0044  7400 	.LONG	EXE$CMODEXEC	; CHME TRAP.			^X044
                           00000000' 0048  7500 	.LONG	EXE$CMODSUPR	; CHMS TRAP.			^X048
                           00000000' 004C  7600 	.LONG	EXE$CMODUSER	; CHMU TRAP.			^X04C
                           00000008' 0050  7700 	.LONG	VEC050		; UNUSED.			^X050
                           00000001' 0054  7800 	.LONG	EXE$LOGCRD+INTSTK	; CRD FAULT		^X054
                           00000001' 0058  7900 	.LONG	EXE$LOGSBF+INTSTK	; SBI FAULT		^X058
                           00000001' 005C  8000 	.LONG	EXE$LOGSBA+INTSTK	; SBI ALERT		^X05C
                           00000001' 0060  8100 	.LONG	EXE$LOGAWE+INTSTK	; CPU ASYNCHRONOUS WRITE TIMEOUT^X060
                           00000008' 0064  8200 	.LONG	VEC064		; UNUSED.
                           00000008' 0068  8300 	.LONG	VEC068		; UNUSED.
                           00000008' 006C  8400 	.LONG	VEC06C		; UNUSED.
                           00000008' 0070  8500 	.LONG	VEC070		; UNUSED.
                           00000008' 0074  8600 	.LONG	VEC074		; UNUSED.
                           00000008' 0078  8700 	.LONG	VEC078		; UNUSED.
                           00000008' 007C  8800 	.LONG	VEC07C		; UNUSED.
                           00000008' 0080  8900 	.LONG	VEC080		; UNUSED.
                           00000009' 0084  9000 	.LONG	VEC084+INTSTK; SOFTWARE LEVEL 1 INTERUPT.
                           00000000' 0088  9100 	.LONG	SCH$ASTDEL	; SOFTWARE LEVEL 2 INTERUPT.	^X088
                           00000000' 008C  9200 	.LONG	SCH$RESCHED	; SOFTWARE LEVEL 3 INTERUPT.	^X08C
                           00000001' 0090  9300 	.LONG	IOC$IOPOST+INTSTK; SOFTWARE LEVEL 4 INTERUPT.	^X090
                           00000001' 0094  9400 	.LONG	MASTERWAKE+INTSTK; SOFTWARE LEVEL 5 INTERUPT.	^X094
                           00000001' 0098  9500 	.LONG	EXE$FORKDSPTH+INTSTK; SOFTWARE LEVEL 6 INTERUPT.	^X098
                           00000001' 009C  9600 	.LONG	EXE$SWTIMINT+INTSTK; SOFTWARE LEVEL 7 INTERUPT.	^X09C
                           00000001' 00A0  9700 	.LONG	EXE$FORKDSPTH+INTSTK; SOFTWARE LEVEL 8 INTERUPT.	^X0A0
                           00000001' 00A4  9800 	.LONG	EXE$FORKDSPTH+INTSTK; SOFTWARE LEVEL 9 INTERUPT.	^X0A4
SCBVECTOR                                                        21-AUG-1978 20:09:43   VAX-11 MACRO X0.3-11               Page   3
06              SCB PROTOTYPE                                                                                                    (1)

                           00000001' 00A8  9900 	.LONG	EXE$FORKDSPTH+INTSTK; SOFTWARE LEVEL 10 INTERUPT.	^X0A8
                           00000001' 00AC 10000 	.LONG	EXE$FORKDSPTH+INTSTK; SOFTWARE LEVEL 11 INTERUPT.	^X0AC
                           00000009' 00B0 10100 	.LONG	VEC0B0+INTSTK	; SOFTWARE LEVEL 12 INTERUPT.	^X0B0
                           00000009' 00B4 10200 	.LONG	VEC0B4+INTSTK	; SOFTWARE LEVEL 13 INTERUPT.	^X0B4
                           00000009' 00B8 10300 	.LONG	VEC0B8+INTSTK	; SOFTWARE LEVEL 14 INTERUPT.	^X0B8
                           00000009' 00BC 10400 	.LONG	VEC0BC+INTSTK	; SOFTWARE LEVEL 15 INTERUPT. (^XBC)
                           00000001' 00C0 10500 	.LONG	EXE$HWCLKINT+INTSTK; INTERVAL TIMER  (^XC0)
                           00000009' 00C4 10600 	.LONG	VEC0C4+INTSTK	; UNUSED.		(^XC4)
                           00000009' 00C8 10700 	.LONG	VEC0C8+INTSTK	; UNUSED.		(^XC8)
                           00000009' 00CC 10800 	.LONG	VEC0CC+INTSTK	; UNUSED.		(^XCC)
                           00000009' 00D0 10900 	.LONG	VEC0D0+INTSTK	; UNUSED.		(^XD0)
                           00000009' 00D4 11000 	.LONG	VEC0D4+INTSTK	; UNUSED.		(^XD4)
                           00000009' 00D8 11100 	.LONG	VEC0D8+INTSTK	; UNUSED.		(^XD8)
                           00000009' 00DC 11200 	.LONG	VEC0DC+INTSTK	; UNUSED.		(^XDC)
                           00000009' 00E0 11300 	.LONG	VEC0E0+INTSTK	; UNUSED.		(^XE0)
                           00000009' 00E4 11400 	.LONG	VEC0E4+INTSTK	; UNUSED.		(^XE4)
                           00000009' 00E8 11500 	.LONG	VEC0E8+INTSTK	; UNUSED.		(^XE8)
                           00000009' 00EC 11600 	.LONG	VEC0EC+INTSTK	; UNUSED.		(^XEC)
                           00000009' 00F0 11700 	.LONG	VEC0F0+INTSTK	; UNUSED.		(^XF0)
                           00000009' 00F4 11800 	.LONG	VEC0F4+INTSTK	; UNUSED.		(^XF4)
                           00000001' 00F8 11900 	.LONG	CON$INTDISI+INTSTK; CONSOLE INTERRUPT FOR INPUT (^XF8)
                           00000001' 00FC 12000 	.LONG	CON$INTDISO+INTSTK; CONSOLE INTERRUPT FOR OUTPUT (^XFC)
                           00000009' 0100 12100 	.LONG	VEC100+INTSTK	; UNIBUS VECTOR ADDRESS ^O000
                           00000009' 0104 12200 	.LONG	VEC104+INTSTK	; UNIBUS VECTOR ADDRESS ^O004
                           00000009' 0108 12300 	.LONG	VEC108+INTSTK	;
                           00000009' 010C 12400 	.LONG	VEC10C+INTSTK 	;
                           00000009' 0110 12500 	.LONG	VEC110+INTSTK	; UNIBUS VECTOR ADDRESS ^O020
                           00000009' 0114 12600 	.LONG	VEC114+INTSTK	; UNIBUS VECTOR ADDRESS ^O024
                           00000009' 0118 12700 	.LONG	VEC118+INTSTK	; UNIBUS VECTOR ADDRESS ^O030
                           00000009' 011C 12800 	.LONG	VEC11C+INTSTK	; UNIBUS VECTOR ADDRESS ^O034
                           00000009' 0120 12900 	.LONG	VEC120+INTSTK	; UNIBUS VECTOR ADDRESS ^O040
                           00000009' 0124 13000 	.LONG	VEC124+INTSTK	; UNIBUS VECTOR ADDRESS ^O044
                           00000009' 0128 13100 	.LONG	VEC128+INTSTK	; UNIBUS VECTOR ADDRESS ^O050
                           00000009' 012C 13200 	.LONG	VEC12C+INTSTK	; UNIBUS VECTOR ADDRESS ^O054
                           00000009' 0130 13300 	.LONG	VEC130+INTSTK	; UNIBUS VECTOR ADDRESS ^O060
                           00000009' 0134 13400 	.LONG	VEC134+INTSTK	; UNIBUS VECTOR ADDRESS ^O064
                           00000009' 0138 13500 	.LONG	VEC138+INTSTK	; UNIBUS VECTOR ADDRESS ^O070
                           00000009' 013C 13600 	.LONG	VEC13C+INTSTK	; UNIBUS VECTOR ADDRESS ^O074
                           00000009' 0140 13700 	.LONG	VEC140+INTSTK	;
                           00000009' 0144 13800 	.LONG	VEC144+INTSTK	;
                           00000009' 0148 13900 	.LONG	VEC148+INTSTK	; UNIBUS VECTOR ADDRESS ^O110 (^X148)
                           00000009' 014C 14000 	.LONG	VEC14C+INTSTK 	;
                           00000009' 0150 14100 	.LONG	VEC150+INTSTK	; UNIBUS VECTOR ADDRESS ^O120 (^X150)
                           00000009' 0154 14200 	.LONG	VEC154+INTSTK	; UNIBUS VECTOR ADDRESS ^O124 (^X154)
                           00000009' 0158 14300 	.LONG	VEC158+INTSTK	; UNIBUS VECTOR ADDRESS ^O130 (^X158)
                           00000009' 015C 14400 	.LONG	VEC15C+INTSTK	; UNIBUS VECTOR ADDRESS ^O134 (^X15C)
                                     0160 14500 SCB$MBA0::			; REFERENCE LABEL
                           00000009' 0160 14600 	.LONG	VEC160+INTSTK	;  MASS BUSS ADAPTER (^X160)
                           00000009' 0164 14700 	.LONG	VEC164+INTSTK	; MASSBUS ADAPTER #2  (^X164)
                           00000009' 0168 14800 	.LONG	VEC168+INTSTK	; UNIBUS VECTOR ADDRESS ^O150 (^X168)
                           00000009' 016C 14900 	.LONG	VEC16C+INTSTK	; UNIBUS VECTOR ADDRESS ^O154 (^X16C)
                           00000009' 0170 15000 	.LONG	VEC170+INTSTK	; UNIBUS VECTOR ADDRESS ^O160 (^X170)
                           00000009' 0174 15100 	.LONG	VEC174+INTSTK	; UNIBUS VECTOR ADDRESS ^O164 (^X174)
                           00000009' 0178 15200 	.LONG	VEC178+INTSTK	; UNIBUS VECTOR ADDRESS ^O170 (^X178)
                           00000009' 017C 15300 	.LONG	VEC17C+INTSTK	; UNIBUS VECTOR ADDRESS ^O174 (^X17C)
                           00000009' 0180 15400 	.LONG	VEC180+INTSTK	; UNIBUS VECTOR ADDRESS ^O0200
                           00000009' 0184 15500 	.LONG	VEC184+INTSTK	; UNIBUS VECTOR ADDRESS ^O204 (^X184)
SCBVECTOR                                                        21-AUG-1978 20:09:43   VAX-11 MACRO X0.3-11               Page   4
06              SCB PROTOTYPE                                                                                                    (1)

                           00000009' 0188 15600 	.LONG	VEC188+INTSTK	; UNIBUS VECTOR ADDRESS ^O210 (^X188)
                           00000009' 018C 15700 	.LONG	VEC18C+INTSTK 	;
                           00000009' 0190 15800 	.LONG	VEC190+INTSTK	; UNIBUS VECTOR ADDRESS ^O224 (^X190)
                           00000009' 0194 15900 	.LONG	VEC194+INTSTK	; UNIBUS VECTOR ADDRESS ^O224
                           00000009' 0198 16000 	.LONG	VEC198+INTSTK	; UNIBUS VECTOR ADDRESS ^O230 (^X198)
                           00000009' 019C 16100 	.LONG	VEC19C+INTSTK	; UNIBUS VECTOR ADDRESS ^O234 (^X19C)
                           00000009' 01A0 16200 	.LONG	VEC1A0+INTSTK	; UNIBUS VECTOR ADDRESS ^O240 (^X1A0)
                           00000009' 01A4 16300 	.LONG	VEC1A4+INTSTK	; UNIBUS VECTOR ADDRESS ^O244 (^X1A4)
                           00000009' 01A8 16400 	.LONG	VEC1A8+INTSTK	; UNIBUS VECTOR ADDRESS ^O250 (^X1A8)
                           00000009' 01AC 16500 	.LONG	VEC1AC+INTSTK	; UNIBUS VECTOR ADDRESS ^O254 (^X1AC)
                           00000009' 01B0 16600 	.LONG	VEC1B0+INTSTK	; UNIBUS VECTOR ADDRESS ^O260 (^X1B0)
                           00000009' 01B4 16700 	.LONG	VEC1B4+INTSTK	; UNIBUS VECTOR ADDRESS ^O264 (^X1B4)
                           00000009' 01B8 16800 	.LONG	VEC1B8+INTSTK	; UNIBUS VECTOR ADDRESS ^O270 (^X1B8)
                           00000009' 01BC 16900 	.LONG	VEC1BC+INTSTK	; UNIBUS VECTOR ADDRESS ^O274 (^X1BC)
                           00000009' 01C0 17000 	.LONG	VEC1C0+INTSTK	; UNIBUS VECTOR ADDRESS ^O0300
                           00000009' 01C4 17100 	.LONG	VEC1C4+INTSTK	; UNIBUS VECTOR ADDRESS ^O0304
                           00000009' 01C8 17200 	.LONG	VEC1C8+INTSTK	; UNIBUS VECTOR ADDRESS ^O0310
                           00000009' 01CC 17300 	.LONG	VEC1CC+INTSTK 	;
                           00000009' 01D0 17400 	.LONG	VEC1D0+INTSTK	; UNIBUS VECTOR ADDRESS ^O320 (^X1D0)
                           00000009' 01D4 17500 	.LONG	VEC1D4+INTSTK	; UNIBUS VECTOR ADDRESS ^O324 (^X1D4)
                           00000009' 01D8 17600 	.LONG	VEC1D8+INTSTK	; UNIBUS VECTOR ADDRESS ^O330 (^X1D8)
                           00000009' 01DC 17700 	.LONG	VEC1DC+INTSTK	; UNIBUS VECTOR ADDRESS ^O334 (^X1DC)
                           00000009' 01E0 17800 	.LONG	VEC1E0+INTSTK	; UNIBUS VECTOR ADDRESS ^O340 (^X1E0)
                           00000009' 01E4 17900 	.LONG	VEC1E4+INTSTK	; UNIBUS VECTOR ADDRESS ^O344 (^X1E4)
                           00000009' 01E8 18000 	.LONG	VEC1E8+INTSTK	; UNIBUS VECTOR ADDRESS ^O350 (^X1E8)
                           00000009' 01EC 18100 	.LONG	VEC1EC+INTSTK	; UNIBUS VECTOR ADDRESS ^O354 (^X1EC)
                           00000009' 01F0 18200 	.LONG	VEC1F0+INTSTK	; UNIBUS VECTOR ADDRESS ^O360 (^X1F0)
                           00000009' 01F4 18300 	.LONG	VEC1F4+INTSTK	; UNIBUS VECTOR ADDRESS ^O364 (^X1F4)
                           00000009' 01F8 18400 	.LONG	VEC1F8+INTSTK	; UNIBUS VECTOR ADDRESS ^O370 (^X1F8)
                           00000009' 01FC 18500 	.LONG	VEC1FC+INTSTK	; UNIBUS VECTOR ADDRESS ^O374 (^X1FC)
SCBVECTOR                                                        21-AUG-1978 20:09:43   VAX-11 MACRO X0.3-11               Page   5
06              SCB PROTOTYPE                                                                                                    (1)

                                     0200 18700 ;
                                     0200 18800 ;	IPL-5 INTERRUPT TO GAIN ACCESS TO XDELTA
                                     0200 18900 ;
                                 00000000 18950 	.PSECT	$AEXENONPAGED,LONG
                                     0000 19000 	.ALIGN	LONG
                                     0000 19100 MASTERWAKE:				; AWAKEN MASTER PROCESS
                 00000000'EF     16  0000 19200 	JSB	INI$BRK			; CALL ROUTINE WITH BREAKPOINT
                                 02  0006 19300 	REI				; AND RETURN
                                     0007 19400
SCBVECTOR                                                        21-AUG-1978 20:09:43   VAX-11 MACRO X0.3-11               Page   6
06              SCB PROTOTYPE                                                                                                    (1)

                                     0007 19600
                                     0007 19800 	.ALIGN	LONG			;
                                     0008 19900 	SPUR	000
                                     0008 20000 	SPUR	004
                                     0008 20100 	SPUR	008
                                     0008 20200 	SPUR	00C
                                     0008 20300 	SPUR	010
                                     0008 20400 	SPUR	014
                                     0008 20500 	SPUR	018
                                     0008 20600 	SPUR	01C
                                     0008 20700 	SPUR	020
                                     0008 20800 	SPUR	024
                                     0008 20900 	SPUR	028
                                     0008 21000 	SPUR	02C
                                     0008 21100 	SPUR	030
                                     0008 21200 	SPUR	034
                                     0008 21300 	SPUR	038
                                     0008 21400 	SPUR	03C
                                     0008 21500 	SPUR	040
                                     0008 21600 	SPUR	044
                                     0008 21700 	SPUR	048
                                     0008 21800 	SPUR	04C
                                     0008 21900 	SPUR	050
                                     0008 22000 	SPUR	054
                                     0008 22100 	SPUR	058
                                     0008 22200 	SPUR	05C
                                     0008 22300 	SPUR	060
                                     0008 22400 	SPUR	064
                                     0008 22500 	SPUR	068
                                     0008 22600 	SPUR	06C
                                     0008 22700 	SPUR	070
                                     0008 22800 	SPUR	074
                                     0008 22900 	SPUR	078
                                     0008 23000 	SPUR	07C
                                     0008 23100 	SPUR	080
                                     0008 23200 	SPUR	084
                                     0008 23300 	SPUR	088
                                     0008 23400 	SPUR	08C
                                     0008 23500 	SPUR	090
                                     0008 23600 	SPUR	094
                                     0008 23700 	SPUR	098
                                     0008 23800 	SPUR	09C
                                     0008 23900 	SPUR	0A0
                                     0008 24000 	SPUR	0A4
                                     0008 24100 	SPUR	0A8
                                     0008 24200 	SPUR	0AC
                                     0008 24300 	SPUR	0B0
                                     0008 24400 	SPUR	0B4
                                     0008 24500 	SPUR	0B8
                                     0008 24600 	SPUR	0BC
                                     0008 24700 	SPUR	0C0
                                     0008 24800 	SPUR	0C4
                                     0008 24900 	SPUR	0C8
                                     0008 25000 	SPUR	0CC
                                     0008 25100 	SPUR	0D0
                                     0008 25200 	SPUR	0D4
                                     0008 25300 	SPUR	0D8
SCBVECTOR                                                        21-AUG-1978 20:09:43   VAX-11 MACRO X0.3-11               Page   7
06              SCB PROTOTYPE                                                                                                    (1)

                                     0008 25400 	SPUR	0DC
                                     0008 25500 	SPUR	0E0
                                     0008 25600 	SPUR	0E4
                                     0008 25700 	SPUR	0E8
                                     0008 25800 	SPUR	0EC
                                     0008 25900 	SPUR	0F0
                                     0008 26000 	SPUR	0F4
                                     0008 26100 	SPUR	0F8
                                     0008 26200 	SPUR	0FC
                                     0008 26300 	SPUR	100
                                     0008 26400 	SPUR	104
                                     0008 26500 	SPUR	108
                                     0008 26600 	SPUR	10C
                                     0008 26700 	SPUR	110
                                     0008 26800 	SPUR	114
                                     0008 26900 	SPUR	118
                                     0008 27000 	SPUR	11C
                                     0008 27100 	SPUR	120
                                     0008 27200 	SPUR	124
                                     0008 27300 	SPUR	128
                                     0008 27400 	SPUR	12C
                                     0008 27500 	SPUR	130
                                     0008 27600 	SPUR	134
                                     0008 27700 	SPUR	138
                                     0008 27800 	SPUR	13C
                                     0008 27900 	SPUR	140
                                     0008 28000 	SPUR	144
                                     0008 28100 	SPUR	148
                                     0008 28200 	SPUR	14C
                                     0008 28300 	SPUR	150
                                     0008 28400 	SPUR	154
                                     0008 28500 	SPUR	158
                                     0008 28600 	SPUR	15C
                                     0008 28700 	SPUR	160
                                     0008 28800 	SPUR	164
                                     0008 28900 	SPUR	168
                                     0008 29000 	SPUR	16C
                                     0008 29100 	SPUR	170
                                     0008 29200 	SPUR	174
                                     0008 29300 	SPUR	178
                                     0008 29400 	SPUR	17C
                                     0008 29500 	SPUR	180
                                     0008 29600 	SPUR	184
                                     0008 29700 	SPUR	188
                                     0008 29800 	SPUR	18C
                                     0008 29900 	SPUR	190
                                     0008 30000 	SPUR	194
                                     0008 30100 	SPUR	198
                                     0008 30200 	SPUR	19C
                                     0008 30300 	SPUR	1A0
                                     0008 30400 	SPUR	1A4
                                     0008 30500 	SPUR	1A8
                                     0008 30600 	SPUR	1AC
                                     0008 30700 	SPUR	1B0
                                     0008 30800 	SPUR	1B4
                                     0008 30900 	SPUR	1B8
                                     0008 31000 	SPUR	1BC
SCBVECTOR                                                        21-AUG-1978 20:09:43   VAX-11 MACRO X0.3-11               Page   8
06              SCB PROTOTYPE                                                                                                    (1)

                                     0008 31100 	SPUR	1C0
                                     0008 31200 	SPUR	1C4
                                     0008 31300 	SPUR	1C8
                                     0008 31400 	SPUR	1CC
                                     0008 31500 	SPUR	1D0
                                     0008 31600 	SPUR	1D4
                                     0008 31700 	SPUR	1D8
                                     0008 31800 	SPUR	1DC
                                     0008 31900 	SPUR	1E0
                                     0008 32000 	SPUR	1E4
                                     0008 32100 	SPUR	1E8
                                     0008 32200 	SPUR	1EC
                                     0008 32300 	SPUR	1F0
                                     0008 32400 	SPUR	1F4
                                     0008 32500 	SPUR	1F8
                                     0008 32600 	SPUR	1FC
                                     0008 32700
                                     0008 32800 ;
                                     0008 32900 ;	UNEXPECTED INTERRUPT/EXCEPTION HANDLER
                                     0008 33000 ;
                                     0008 33100 ;	BUGCHECK WITH VECTOR BYTE OFFSET ON TOP OF STACK
                                     0008 33200 ;
                                     0008 33300
                                     0008 33400 UNEXP:					;
                                     0008 33500 ;	MOVZBL	@(SP),(SP)		; GET VECTOR NUMBER
                                     0008 33600 ;	MULL	#2,(SP)			; SCALE TO VECTOR ADDRESS
                                     0008 33700 	BUG_CHECK UNXINTEXC		; BUGCHECK FOR ALL UNEXPECTED VECTORS
                                     000C 33800 ;	TSTL	(SP)+			; CLEAN VECTOR OFFSET FROM STACK
                                 02  000C 33900 	REI				; ALLOW POSSIBLE RECOVERY
                                     000D 34000
                                     000D 34100 	.END
SCBVECTOR                                                        21-AUG-1978 20:09:43   VAX-11 MACRO X0.3-11               Page   9
SYMBOL TABLE                                                                                                                     (1)

BIT...         = 00000000            PR$_P0LR       = 00000009            VEC05C           00000008 R     04
BUG$_UNXINTEXC   ********   X   04   PR$_P1BR       = 0000000A            VEC060           00000008 R     04
CON$INTDISI      ********   X   03   PR$_P1LR       = 0000000B            VEC064           00000008 R     04
CON$INTDISO      ********   X   03   PR$_PCBB       = 00000010            VEC068           00000008 R     04
EXE$ACVEC        00000020 RG    03   PR$_PME        = 0000003D            VEC06C           00000008 R     04
EXE$ACVIOLAT     ********   X   03   PR$_RXCS       = 00000020            VEC070           00000008 R     04
EXE$ARITH        ********   X   03   PR$_RXDB       = 00000021            VEC074           00000008 R     04
EXE$BREAK        ********   X   03   PR$_SBIER      = 00000034            VEC078           00000008 R     04
EXE$CMODEXEC     ********   X   03   PR$_SBIFS      = 00000030            VEC07C           00000008 R     04
EXE$CMODKRNL     ********   X   03   PR$_SBIMT      = 00000033            VEC080           00000008 R     04
EXE$CMODSUPR     ********   X   03   PR$_SBIQC      = 00000036            VEC084           00000008 R     04
EXE$CMODUSER     ********   X   03   PR$_SBIS       = 00000031            VEC088           00000008 R     04
EXE$COMPAT       ********   X   03   PR$_SBISC      = 00000032            VEC08C           00000008 R     04
EXE$FORKDSPTH    ********   X   03   PR$_SBITA      = 00000035            VEC090           00000008 R     04
EXE$HWCLKINT     ********   X   03   PR$_SBR        = 0000000C            VEC094           00000008 R     04
EXE$KERSTKNV     ********   X   03   PR$_SCBB       = 00000011            VEC098           00000008 R     04
EXE$LOGAWE       ********   X   03   PR$_SID        = 0000003E            VEC09C           00000008 R     04
EXE$LOGCRD       ********   X   03   PR$_SIRR       = 00000014            VEC0A0           00000008 R     04
EXE$LOGSBA       ********   X   03   PR$_SISR       = 00000015            VEC0A4           00000008 R     04
EXE$LOGSBF       ********   X   03   PR$_SLR        = 0000000D            VEC0A8           00000008 R     04
EXE$MCHK         ********   X   03   PR$_SSP        = 00000002            VEC0AC           00000008 R     04
EXE$MCHKVEC      00000004 RG    03   PR$_TBIA       = 00000039            VEC0B0           00000008 R     04
EXE$OPCCUS       ********   X   03   PR$_TBIS       = 0000003A            VEC0B4           00000008 R     04
EXE$OPCDEC       ********   X   03   PR$_TODR       = 0000001B            VEC0B8           00000008 R     04
EXE$PFVEC        00000024 RG    03   PR$_TXCS       = 00000022            VEC0BC           00000008 R     04
EXE$POWERFAIL    ********   X   03   PR$_TXDB       = 00000023            VEC0C0           00000008 R     04
EXE$RADRMOD      ********   X   03   PR$_USP        = 00000003            VEC0C4           00000008 R     04
EXE$ROPRAND      ********   X   03   PR$_WCSA       = 0000002C            VEC0C8           00000008 R     04
EXE$SWTIMINT     ********   X   03   PR$_WCSD       = 0000002D            VEC0CC           00000008 R     04
EXE$TBIT         ********   X   03   SCB$AL_BASE      00000000 RG    03   VEC0D0           00000008 R     04
GBL...         = 00000000            SCB$MBA0         00000160 RG    03   VEC0D4           00000008 R     04
INI$BRK          ********   X   04   SCH$ASTDEL       ********   X   03   VEC0D8           00000008 R     04
INTSTK         = 00000001            SCH$RESCHED      ********   X   03   VEC0DC           00000008 R     04
IOC$IOPOST       ********   X   03   UNEXP            00000008 R     04   VEC0E0           00000008 R     04
IPL$_ASTDEL    = 00000002            VEC000           00000008 R     04   VEC0E4           00000008 R     04
IPL$_HWCLK     = 00000018            VEC004           00000008 R     04   VEC0E8           00000008 R     04
IPL$_IOPOST    = 00000004            VEC008           00000008 R     04   VEC0EC           00000008 R     04
IPL$_MAILBOX   = 0000000B            VEC00C           00000008 R     04   VEC0F0           00000008 R     04
IPL$_POWER     = 0000001F            VEC010           00000008 R     04   VEC0F4           00000008 R     04
IPL$_QUEUEAST  = 00000006            VEC014           00000008 R     04   VEC0F8           00000008 R     04
IPL$_SCHED     = 00000003            VEC018           00000008 R     04   VEC0FC           00000008 R     04
IPL$_SYNCH     = 00000007            VEC01C           00000008 R     04   VEC100           00000008 R     04
IPL$_TIMER     = 00000007            VEC020           00000008 R     04   VEC104           00000008 R     04
MASTERWAKE       00000000 R     04   VEC024           00000008 R     04   VEC108           00000008 R     04
MMG$PAGEFAULT    ********   X   03   VEC028           00000008 R     04   VEC10C           00000008 R     04
PR$_ACCR       = 00000029            VEC02C           00000008 R     04   VEC110           00000008 R     04
PR$_ACCS       = 00000028            VEC030           00000008 R     04   VEC114           00000008 R     04
PR$_ASTLVL     = 00000013            VEC034           00000008 R     04   VEC118           00000008 R     04
PR$_ESP        = 00000001            VEC038           00000008 R     04   VEC11C           00000008 R     04
PR$_ICCS       = 00000018            VEC03C           00000008 R     04   VEC120           00000008 R     04
PR$_ICR        = 0000001A            VEC040           00000008 R     04   VEC124           00000008 R     04
PR$_IPL        = 00000012            VEC044           00000008 R     04   VEC128           00000008 R     04
PR$_ISP        = 00000004            VEC048           00000008 R     04   VEC12C           00000008 R     04
PR$_KSP        = 00000000            VEC04C           00000008 R     04   VEC130           00000008 R     04
PR$_MAPEN      = 00000038            VEC050           00000008 R     04   VEC134           00000008 R     04
PR$_NICR       = 00000019            VEC054           00000008 R     04   VEC138           00000008 R     04
PR$_P0BR       = 00000008            VEC058           00000008 R     04   VEC13C           00000008 R     04
SCBVECTOR                                                        21-AUG-1978 20:09:43   VAX-11 MACRO X0.3-11               Page  10
SYMBOL TABLE                                                                                                                     (1)

VEC140           00000008 R     04
VEC144           00000008 R     04
VEC148           00000008 R     04
VEC14C           00000008 R     04
VEC150           00000008 R     04
VEC154           00000008 R     04
VEC158           00000008 R     04
VEC15C           00000008 R     04
VEC160           00000008 R     04
VEC164           00000008 R     04
VEC168           00000008 R     04
VEC16C           00000008 R     04
VEC170           00000008 R     04
VEC174           00000008 R     04
VEC178           00000008 R     04
VEC17C           00000008 R     04
VEC180           00000008 R     04
VEC184           00000008 R     04
VEC188           00000008 R     04
VEC18C           00000008 R     04
VEC190           00000008 R     04
VEC194           00000008 R     04
VEC198           00000008 R     04
VEC19C           00000008 R     04
VEC1A0           00000008 R     04
VEC1A4           00000008 R     04
VEC1A8           00000008 R     04
VEC1AC           00000008 R     04
VEC1B0           00000008 R     04
VEC1B4           00000008 R     04
VEC1B8           00000008 R     04
VEC1BC           00000008 R     04
VEC1C0           00000008 R     04
VEC1C4           00000008 R     04
VEC1C8           00000008 R     04
VEC1CC           00000008 R     04
VEC1D0           00000008 R     04
VEC1D4           00000008 R     04
VEC1D8           00000008 R     04
VEC1DC           00000008 R     04
VEC1E0           00000008 R     04
VEC1E4           00000008 R     04
VEC1E8           00000008 R     04
VEC1EC           00000008 R     04
VEC1F0           00000008 R     04
VEC1F4           00000008 R     04
VEC1F8           00000008 R     04
VEC1FC           00000008 R     04


PROGRAM SECTION SYNOPSIS

.  ABS  .        00000000      00     NOPIC   USR   CON   ABS   LCL NOSHR NOEXE NORD  NOWRT BYTE
. BLANK .        00000000      01     NOPIC   USR   CON   REL   LCL NOSHR   EXE   RD    WRT BYTE
$ABS$            00000000      02     NOPIC   USR   CON   ABS   LCL NOSHR   EXE   RD    WRT BYTE
$$$800SCB        00000200      03     NOPIC   USR   CON   REL   LCL NOSHR   EXE   RD    WRT PAGE
$AEXENONPAGED    0000000D      04     NOPIC   USR   CON   REL   LCL NOSHR   EXE   RD    WRT LONG
SCBVECTOR                                                        21-AUG-1978 20:09:43   VAX-11 MACRO X0.3-11               Page  11
PROGRAM SECTION SYNOPSIS                                                                                                         (1)


THERE WERE NO ERRORS OR WARNINGS.
23464. BYTES LEFT IN FREE MEMORY POOL.
6. BYTES OF RECLAIMED MEMORY.
OBJ$:SCBVECTOR,LIS$:SCBVECTOR/-SP=EXECML$/ML,SRC$:SCBVECTOR
2 MLB DIR RDS - 115 GETS TO DEFINE 9 MACROS. 11 INTER. FILE WRITES.
