SDAT            SCHEDULER DATA                                   21-AUG-1978 20:10:13   VAX-11 MACRO X0.3-11               Page   1
X01                                                                                                                              (1)

                                     0000   100 	.TITLE	SDAT SCHEDULER DATA
                                     0000   200 	.IDENT	/X01/
                                     0000   300 ; COPYRIGHT (C) 1977
                                     0000   400 ; DIGITAL EQUIPMENT CORPORATION, MAYNARD, MASS.
                                     0000   500 ;
                                     0000   600 ; THIS SOFTWARE IS FURNISHED UNDER  A LICENSE FOR USE ONLY  ON  A
                                     0000   700 ; SINGLE COMPUTER SYSTEM AND MAY BE  COPIED ONLY WITH  THE INCLU-
                                     0000   800 ; SION OF  THE  ABOVE  COPYRIGHT NOTICE.  THIS SOFTWARE,  OR  ANY
                                     0000   900 ; OTHER COPIES THEREOF, MAY NOT BE  PROVIDED  OR  OTHERWISE  MADE
                                     0000  1000 ; AVAILABLE TO ANY OTHER PERSON EXCEPT  FOR  USE  ON  SUCH SYSTEM
                                     0000  1100 ; AND TO  ONE WHO AGREES  TO  THESE LICENSE  TERMS.  TITLE TO AND
                                     0000  1200 ; OWNERSHIP OF THE SOFTWARE SHALL AT ALL TIMES REMAIN IN DEC.
                                     0000  1300 ;
                                     0000  1400 ; THE INFORMATION IN THIS SOFTWARE  IS  SUBJECT TO CHANGE WITHOUT
                                     0000  1500 ; NOTICE AND SHOULD NOT BE CONSTRUED  AS  A COMMITMENT BY DIGITAL
                                     0000  1600 ; EQUIPMENT CORPORATION.
                                     0000  1700 ;
                                     0000  1800 ; DEC ASSUMES NO RESPONSIBILITY FOR THE USE OR RELIABILITY OF ITS
                                     0000  1900 ; SOFTWARE ON EQUIPMENT WHICH IS NOT SUPPLIED BY DEC.
                                     0000  2000
                                     0000  2100 ;++
                                     0000  2200 ; FACILITY: EXECUTIVE,SCHEDULER
                                     0000  2300 ;
                                     0000  2400 ; ABSTRACT: THIS MODULE CONTAINS THE STATIC GLOBAL DATA FOR ALL
                                     0000  2500 ;	    PROCESS SCHEDULING MODULES.
                                     0000  2600 ;
                                     0000  2700
                                     0000  2800 	$STATEDEF			; SCHEDULER STATE DEFINITIONS
                                     0000  2900 ;
                                     0000  3000 ; MACROS:
                                     0000  3100 ;
                                     0000  3200 	.MACRO	$HEADR
                                     0000  3300 	.LONG	.
                                     0000  3400 	.LONG	.-4
                                     0000  3500 	.ENDM
                                     0000  3600
                                     0000  3700 ;
                                     0000  3800 ;	WAIT QUEUE HEADER GENERATING MACRO
                                     0000  3900 ;
                                     0000  4000 ;	WQHEAD	WAITSTATE,QNAME
                                     0000  4100 ;
                                     0000  4200 	.MACRO	WQHEAD,STATE,QNAME
                                     0000  4300 SAVE.=.
                                     0000  4400 ST=SCH$C_'STATE
                                     0000  4500 STMP=ST-MXST
                                     0000  4600 	.IF	GT,STMP
                                     0000  4700 	.REPT	STMP
                                     0000  4800 	$HEADR
                                     0000  4900 	.LONG	0
                                     0000  5000 	.ENDR
                                     0000  5100 SAVE.=.
                                     0000  5200 MXST=ST
                                     0000  5300 	.ENDC
                                     0000  5400 ST=12*ST
                                     0000  5500 .=ST+SCH$AQ_WQHDR
                                     0000  5600 SCH$GQ_'QNAME::
                                     0000  5700 	$HEADR
SDAT            SCHEDULER DATA                                   21-AUG-1978 20:10:13   VAX-11 MACRO X0.3-11               Page   2
X01                                                                                                                              (1)

                                     0000  5800 	.WORD	0
                                     0000  5900 	.WORD	SCH$C_'STATE
                                     0000  6000 	.IF	GT,STMP
                                     0000  6100 SAVE.=.
                                     0000  6200 	.ENDC
                                     0000  6300 .=SAVE.
                                     0000  6400 	.ENDM	WQHEAD
                                     0000  6500
                                     0000  6600 ;
                                     0000  6700 ; EQUATES:
                                     0000  6800 ;
                           00000001  0000  6900 MXST=1					;INITIALIZE MAXIMUM STATE SEEN
                                     0000  7000
                                     0000  7100 ;
                                     0000  7200 ; SCHEDULER GLOBAL DATA AREA
                                     0000  7300 ;
                                     0000  7400 ;       CAUTION - - THESE DATA STRUCTURES ARE CAREFULLY ORDERED AND
                                     0000  7500 ;   		    SHOULD NOT BE ALTERED WITHOUT MAKING CORRESPONDING
                                     0000  7600 ;		    CHANGES IN ALL CODE REFERENCING THEM.
                                     0000  7700 ;
                                 00000000  7800 	.PSECT	$$$220,LONG
                  00000000 00000000  0000  7900 	.LONG	0,0			; ZERO HEADER FOR OSWPSCHED SCAN
                                     0008  8000 SCH$AQ_COMH::
                           00000008' 0008  8100 	.LONG	.		;PRIORITY 0 COMPUTE QUEUE HEAD
                                     000C  8200 SCH$AQ_COMT::
                           00000008' 000C  8300 	.LONG	.-4		;PRIORITY 0 COMPUTE QUEUE TAIL
                                     0010  8400 ;
                                     0010  8500 	$HEADR			;PRIORITY 1 COMPUTE QUEUE HEADER
                                     0018  8600 	$HEADR			;PRIORITY 2 COMPUTE QUEUE HEADER
                                     0020  8700 	$HEADR			;PRIORITY 3 COMPUTE QUEUE HEADER
                                     0028  8800 	$HEADR			;PRIORITY 4 COMPUTE QUEUE HEADER
                                     0030  8900 	$HEADR			;PRIORITY 5 COMPUTE QUEUE HEADER
                                     0038  9000 	$HEADR			;PRIORITY 6 COMPUTE QUEUE HEADER
                                     0040  9100 	$HEADR			;PRIORITY 7 COMPUTE QUEUE HEADER
                                     0048  9200 	$HEADR			;PRIORITY 8 COMPUTE QUEUE HEADER
                                     0050  9300 	$HEADR			;PRIORITY 9 COMPUTE QUEUE HEADER
                                     0058  9400 	$HEADR			;PRIORITY 10 COMPUTE QUEUE HEADER
                                     0060  9500 	$HEADR			;PRIORITY 11 COMPUTE QUEUE HEADER
                                     0068  9600 	$HEADR			;PRIORITY 12 COMPUTE QUEUE HEADER
                                     0070  9700 	$HEADR			;PRIORITY 13 COMPUTE QUEUE HEADER
                                     0078  9800 	$HEADR			;PRIORITY 14 COMPUTE QUEUE HEADER
                                     0080  9900 	$HEADR			;PRIORITY 15 COMPUTE QUEUE HEADER
                                     0088 10000 	$HEADR			;PRIORITY 16 COMPUTE QUEUE HEADER
                                     0090 10100 	$HEADR			;PRIORITY 17 COMPUTE QUEUE HEADER
                                     0098 10200 	$HEADR			;PRIORITY 18 COMPUTE QUEUE HEADER
                                     00A0 10300 	$HEADR			;PRIORITY 19 COMPUTE QUEUE HEADER
                                     00A8 10400 	$HEADR			;PRIORITY 20 COMPUTE QUEUE HEADER
                                     00B0 10500 	$HEADR			;PRIORITY 21 COMPUTE QUEUE HEADER
                                     00B8 10600 	$HEADR			;PRIORITY 22 COMPUTE QUEUE HEADER
                                     00C0 10700 	$HEADR			;PRIORITY 23 COMPUTE QUEUE HEADER
                                     00C8 10800 	$HEADR			;PRIORITY 24 COMPUTE QUEUE HEADER
                                     00D0 10900 	$HEADR			;PRIORITY 25 COMPUTE QUEUE HEADER
                                     00D8 11000 	$HEADR			;PRIORITY 26 COMPUTE QUEUE HEADER
                                     00E0 11100 	$HEADR			;PRIORITY 27 COMPUTE QUEUE HEADER
                                     00E8 11200 	$HEADR			;PRIORITY 28 COMPUTE QUEUE HEADER
                                     00F0 11300 	$HEADR			;PRIORITY 29 COMPUTE QUEUE HEADER
                                     00F8 11400 	$HEADR			;PRIORITY 30 COMPUTE QUEUE HEADER
SDAT            SCHEDULER DATA                                   21-AUG-1978 20:10:13   VAX-11 MACRO X0.3-11               Page   3
X01                                                                                                                              (1)

                                     0100 11500 	$HEADR			;PRIORITY 31 COMPUTE QUEUE HEADER
                                     0108 11600 SCH$AQ_COMOH::			; NON_RESIDENT COMPUTE QUEUE HEADER VECTOR
                           00000108' 0108 11700 	.LONG	.		; PRIORITY 0 NON-RES HEADER
                                     010C 11800 SCH$AQ_COMOT::			; NON-RESIDENT COMPUTE QUEUE TAIL VECTOR
                           00000108' 010C 11900 	.LONG	.-4		;
                                     0110 12000 	$HEADR			; PRIORITY 1 NON-RES COMPUTE QUEUE
                                     0118 12100 	$HEADR			; PRIORITY 2 NON-RES COMPUTE QUEUE
                                     0120 12200 	$HEADR			; PRIORITY 3 NON-RES COMPUTE QUEUE
                                     0128 12300 	$HEADR			; PRIORITY 4 NON-RES COMPUTE QUEUE
                                     0130 12400 	$HEADR			; PRIORITY 5 NON-RES COMPUTE QUEUE
                                     0138 12500 	$HEADR			; PRIORITY 6 NON-RES COMPUTE QUEUE
                                     0140 12600 	$HEADR			; PRIORITY 7 NON-RES COMPUTE QUEUE
                                     0148 12700 	$HEADR			; PRIORITY 8 NON-RES COMPUTE QUEUE
                                     0150 12800 	$HEADR			; PRIORITY 9 NON-RES COMPUTE QUEUE
                                     0158 12900 	$HEADR			; PRIORITY 10 NON-RES COMPUTE QUEUE
                                     0160 13000 	$HEADR			; PRIORITY 11 NON-RES COMPUTE QUEUE
                                     0168 13100 	$HEADR			; PRIORITY 12 NON-RES COMPUTE QUEUE
                                     0170 13200 	$HEADR			; PRIORITY 13 NON-RES COMPUTE QUEUE
                                     0178 13300 	$HEADR			; PRIORITY 14 NON-RES COMPUTE QUEUE
                                     0180 13400 	$HEADR			; PRIORITY 15 NON-RES COMPUTE QUEUE
                                     0188 13500 	$HEADR			; PRIORITY 16 NON-RES COMPUTE QUEUE
                                     0190 13600 	$HEADR			; PRIORITY 17 NON-RES COMPUTE QUEUE
                                     0198 13700 	$HEADR			; PRIORITY 18 NON-RES COMPUTE QUEUE
                                     01A0 13800 	$HEADR			; PRIORITY 19 NON-RES COMPUTE QUEUE
                                     01A8 13900 	$HEADR			; PRIORITY 20 NON-RES COMPUTE QUEUE
                                     01B0 14000 	$HEADR			; PRIORITY 21 NON-RES COMPUTE QUEUE
                                     01B8 14100 	$HEADR			; PRIORITY 22 NON-RES COMPUTE QUEUE
                                     01C0 14200 	$HEADR			; PRIORITY 23 NON-RES COMPUTE QUEUE
                                     01C8 14300 	$HEADR			; PRIORITY 24 NON-RES COMPUTE QUEUE
                                     01D0 14400 	$HEADR			; PRIORITY 25 NON-RES COMPUTE QUEUE
                                     01D8 14500 	$HEADR			; PRIORITY 26 NON-RES COMPUTE QUEUE
                                     01E0 14600 	$HEADR			; PRIORITY 27 NON-RES COMPUTE QUEUE
                                     01E8 14700 	$HEADR			; PRIORITY 28 NON-RES COMPUTE QUEUE
                                     01F0 14800 	$HEADR			; PRIORITY 29 NON-RES COMPUTE QUEUE
                                     01F8 14900 	$HEADR			; PRIORITY 30 NON-RES COMPUTE QUEUE
                                     0200 15000 	$HEADR			; PRIORITY 31 NON-RES COMPUTE QUEUE
                                     0208 15100 ;
                                     0208 15200 ;
                                     0208 15300 ;	WAIT QUEUE HEADERS
                                     0208 15400 ;
                                     0208 15500 ;	THE WAIT QUEUE HEADERS ARE ARRANGED IN STATE NUMBER ORDER
                                     0208 15600 ;	BY THE WQHEAD MACRO.  SINCE THEY ARE INDEXED BY STATE NUMBER
                                     0208 15700 ;	THIS ORDER MUST BE PRESERVED.
                                     0208 15800 ;
                                     0208 15900 ;
                           000001FC  0208 16000 SCH$AQ_WQHDR==.-12		; BASE OF WAIT QUEUE HEADER VECTOR
                                     0208 16100 	WQHEAD	LEF,LEFWQ	; LOCAL EVENT FLAG WAIT (RESIDENT)
                                     0244 16200 	WQHEAD	LEFO,LEFOWQ	; LOCAL EVENT FLAG WAIT (NON-RESIDENT)
                                     0250 16300 	WQHEAD	HIB,HIBWQ	; HIBERNATE WAIT (RESIDENT)
                                     025C 16400 	WQHEAD	HIBO,HIBOWQ	; HIBERNATE WAIT (NON-RESIDENT)
                                     0268 16500 	WQHEAD	SUSP,SUSP	; SUSPENDED (RESIDENT)
                                     0274 16600 	WQHEAD	SUSPO,SUSPO	; SUSPENDED (NON-RESIDENT)
                                     0280 16700 	WQHEAD	MWAIT,MWAIT	; MUTEX WAIT
                                     0280 16800 	WQHEAD	COLPG,COLPGWQ	; COLLIDED PAGE WAIT
                                     0280 16900 	WQHEAD	PFW,PFWQ	; PAGE FAULT WAIT
                                     0280 17000 	WQHEAD	FPG,FPGWQ	; FREE PAGE WAIT
                                     028C 17100
SDAT            SCHEDULER DATA                                   21-AUG-1978 20:10:13   VAX-11 MACRO X0.3-11               Page   4
X01                                                                                                                              (1)

                                     028C 17200
                                     028C 17300 ;
                                     028C 17400 SCH$GL_CURPCB::				;ADDRESS OF CURRENTLY ACTIVE PCB
                           00000000' 028C 17500 	.LONG	SCH$GL_NULLPCB		;
                                     0290 17600 	;
                                     0290 17700 SCH$GL_COMQS::				;COMPUTE QUEUE SUMMARY BITS
                           00000000  0290 17800 	.LONG	0			; INITIALIZE TO ZERO
                                     0294 17900 SCH$GL_COMOQS::				;NON-RESIDENT COMPUTE QUEUE SUMMARY BITS
                           00000000  0294 18000 	.LONG	0			; INITIALIZE TO ZERO
                                     0298 18100
                                     0298 18200 ;
                                     0298 18300 ;	SWAPPER CONTROL CELLS
                                     0298 18400 ;
                                     0298 18500 SCH$GB_SIP::				; SWAP IN PROGRESS FLAG
                                 00  0298 18600 	.BYTE	0			; 1 => SWAP IN PROGRESS
                           00000000  0299 18700 SCH$V_SIP==0				; SWAP IN PROGRESS FLAG
                           00000001  0299 18800 SCH$V_SWPSCHED==1			; SWAP SCHEDULE TRIGGER
                           00000002  0299 18900 SCH$V_MPW==2				; MODIFY PAGE WRITER ACTIVE
                           00000003  0299 19000 SCH$V_DGBLSC==3				; GLOBAL SECTIONS NEED TO BE DELETED
                                     0299 19100
                           0000029A  0299 19200 	.BLKB	1			; KEEP LONGWORD ALIGNED
                                     029A 19300 SCH$GW_PROCCNT::			; CURRENT COUNT OF PROCESSES
                               0000  029A 19400 	.WORD	0			; CREATED WHICH REQUIRE SWAP FILE
                                     029C 19500 SCH$GW_PROCLIM::			; MAXIMUM NUMBER OF PROCESSES
                               0040  029C 19600 	.WORD	64			; ACTUALLY SET BY INIT
                                     029E 19655 SWP$GL_SLOTCNT::			; COUNT OF AVAILABLE SWAP SLOTS
                           00000010  029E 19660 	.LONG	16			; NON-ZERO TO PERMIT CREATE OF SYSINIT
                                     02A2 19665 					; ACTUALLY SET BY SYSINIT.
                                     02A2 19700
                                     02A2 19800 ;
                                     02A2 19900 ;	COMMON EVENT CLUSTER LIST
                                     02A2 20000 ;
                                     02A2 20100 SCH$GQ_CEBHD::				; COMMON EVENT BLOCK HEADER
                                     02A2 20200 	$HEADR				; GENERATE LIST HEADER
                                     02AA 20300 SCH$GW_CEBCNT::				; NUMBER OF COMMON EVENT BLOCKS
                               0000  02AA 20400 	.WORD	0			; INIT TO ZERO
                                     02AC 20500 SCH$GW_DELPHDCT::			; COUNT OF HEADERS WITH DELETE PENDING
                               0000  02AC 20600 	.WORD	0			; INIT TO ZERO
                                     02AE 20700 	.ALIGN	LONG			; GET TO LONGWORD BOUND
                                     02B0 20800 SWP$GL_SHELL::				; SHELL PROCESS SWAP ADDRESS
                           00000000  02B0 20900 	.LONG	0			; FILLED BY INITIALIZATION
                                     02B4 21000 SWP$GL_INPCB::				; PCB ADDRESS OF INSWAP PROCESS
                           00000000  02B4 21100 	.LONG	0			;
                                     02B8 21200
                                     02B8 21300 SWP$GL_ISPAGCNT::			; INSWAP PAGE COUNT
                           00000000  02B8 21400 	.LONG	0			;
                                     02BC 21500 SWP$GW_IBALSETX::			; INSWAP BALANCE SET INDEX
                               0000  02BC 21600 	.WORD	0			;
                                     02BE 21700
                                     02BE 21800 SWP$GB_ISWPRI::				; INSWAP PROCESS PRIORITY
                                 1F  02BE 21900 	.BYTE	31			; INSWAP PROCESS PRIORITY
                                     02BF 22000
                                 00  02BF 22100 	.BYTE	0			; SPARE ***********
                                     02C0 22200
                                     02C0 22300 SWP$GL_ISWPCNT::			; COUNT OF INSWAPS PERFORMED
                           00000000  02C0 22400 	.LONG	0			;
                                     02C4 22500 SWP$GL_OSWPCNT::			; COUNT OF OUTSWAPS PERFORMED
SDAT            SCHEDULER DATA                                   21-AUG-1978 20:10:13   VAX-11 MACRO X0.3-11               Page   5
X01                                                                                                                              (1)

                           00000000  02C4 22600 	.LONG	0			;
                                     02C8 22700 SWP$GL_HOSWPCNT::			; COUNT OF HEADER OUTSWAPS
                           00000000  02C8 22800 	.LONG	0			;
                                     02CC 22900 SWP$GL_HISWPCNT::			; COUNT OF HEADER INSWAPS
                           00000000  02CC 23000 	.LONG	0			;
                                     02D0 23100
                                     02D0 23200 ;
                                     02D0 23300 ;	SCH$GL_RESMASK IS A BIT VECTOR INDEXED BY RSN$_NAME TO
                                     02D0 23400 ;	INDICATE THE PRESENCE OF PROCESSES WAITING FOR THAT RESOURCE.
                                     02D0 23500 ;
                                     02D0 23600 SCH$GL_RESMASK::			; RESOURCE WAIT BIT VECTOR
                           00000000  02D0 23700 	.LONG	0			; INITIALIZE TO ZERO, NONE WAITING
                                     02D4 23800 ;
                                     02D4 23900 SCH$GB_PRI::				;CURRENT PROCESS PRIORITY
                                 00  02D4 24000 	.BYTE	0			;
                                     02D5 24100 	.END
SDAT            SCHEDULER DATA                                   21-AUG-1978 20:10:13   VAX-11 MACRO X0.3-11               Page   6
SYMBOL TABLE                                                                                                                     (1)

BIT...         = 0000000F            SWP$GL_OSWPCNT   000002C4 RG    03
GBL...         = 00000000            SWP$GL_SHELL     000002B0 RG    03
MXST           = 0000000B            SWP$GL_SLOTCNT   0000029E RG    03
SAVE.          = 0000028C R     03   SWP$GW_IBALSETX  000002BC RG    03
SCH$AQ_COMH      00000008 RG    03
SCH$AQ_COMOH     00000108 RG    03
SCH$AQ_COMOT     0000010C RG    03
SCH$AQ_COMT      0000000C RG    03
SCH$AQ_WQHDR   = 000001FC RG    03
SCH$C_CEF      = 00000003
SCH$C_COLPG    = 00000001
SCH$C_COM      = 0000000C
SCH$C_COMO     = 0000000D
SCH$C_CUR      = 0000000E
SCH$C_FPG      = 0000000B
SCH$C_HIB      = 00000007
SCH$C_HIBO     = 00000008
SCH$C_LEF      = 00000005
SCH$C_LEFO     = 00000006
SCH$C_MWAIT    = 00000002
SCH$C_PFW      = 00000004
SCH$C_SUSP     = 00000009
SCH$C_SUSPO    = 0000000A
SCH$GB_PRI       000002D4 RG    03
SCH$GB_SIP       00000298 RG    03
SCH$GL_COMOQS    00000294 RG    03
SCH$GL_COMQS     00000290 RG    03
SCH$GL_CURPCB    0000028C RG    03
SCH$GL_NULLPCB   ********   X   03
SCH$GL_RESMASK   000002D0 RG    03
SCH$GQ_CEBHD     000002A2 RG    03
SCH$GQ_COLPGWQ   00000208 RG    03
SCH$GQ_FPGWQ     00000280 RG    03
SCH$GQ_HIBOWQ    0000025C RG    03
SCH$GQ_HIBWQ     00000250 RG    03
SCH$GQ_LEFOWQ    00000244 RG    03
SCH$GQ_LEFWQ     00000238 RG    03
SCH$GQ_MWAIT     00000214 RG    03
SCH$GQ_PFWQ      0000022C RG    03
SCH$GQ_SUSP      00000268 RG    03
SCH$GQ_SUSPO     00000274 RG    03
SCH$GW_CEBCNT    000002AA RG    03
SCH$GW_DELPHDCT  000002AC RG    03
SCH$GW_PROCCNT   0000029A RG    03
SCH$GW_PROCLIM   0000029C RG    03
SCH$V_DGBLSC   = 00000003  G
SCH$V_MPW      = 00000002  G
SCH$V_SIP      = 00000000  G
SCH$V_SWPSCHED = 00000001  G
ST             = 00000084
STMP           = 00000001
SWP$GB_ISWPRI    000002BE RG    03
SWP$GL_HISWPCNT  000002CC RG    03
SWP$GL_HOSWPCNT  000002C8 RG    03
SWP$GL_INPCB     000002B4 RG    03
SWP$GL_ISPAGCNT  000002B8 RG    03
SWP$GL_ISWPCNT   000002C0 RG    03
SDAT            SCHEDULER DATA                                   21-AUG-1978 20:10:13   VAX-11 MACRO X0.3-11               Page   7
PROGRAM SECTION SYNOPSIS                                                                                                         (1)


PROGRAM SECTION SYNOPSIS

.  ABS  .        00000000      00     NOPIC   USR   CON   ABS   LCL NOSHR NOEXE NORD  NOWRT BYTE
. BLANK .        00000000      01     NOPIC   USR   CON   REL   LCL NOSHR   EXE   RD    WRT BYTE
$ABS$            00000000      02     NOPIC   USR   CON   ABS   LCL NOSHR   EXE   RD    WRT BYTE
$$$220           000002D5      03     NOPIC   USR   CON   REL   LCL NOSHR   EXE   RD    WRT LONG


THERE WERE NO ERRORS OR WARNINGS.
25952. BYTES LEFT IN FREE MEMORY POOL.
OBJ$:SDAT,LIS$:SDAT/-SP=EXECML$/ML,SRC$:SDAT
2 MLB DIR RDS - 64 GETS TO DEFINE 7 MACROS. 9 INTER. FILE WRITES.
