SVAPTE          - SYSTEM VIRTUAL ADDRESS OF PAGE TABLE ENTRY     21-AUG-1978 20:11:39   VAX-11 MACRO X0.3-11               Page   0
TABLE OF CONTENTS

   (1)    3300  HISTORY			; DETAILED
   (1)    4200  DECLARATIONS
   (2)     100  SVAPTECHK - SYSTEM VIRTUAL ADDRESS OF PAGE TABL
   (3)     100  PTEADR, PTEINDX - PAGE TABLE ENTRY ADDRESS OR I
SVAPTE          - SYSTEM VIRTUAL ADDRESS OF PAGE TABLE ENTRY     21-AUG-1978 20:11:39   VAX-11 MACRO X0.3-11               Page   1
X0201                                                                                                                            (1)

                                     0000   100 	.TITLE	SVAPTE - SYSTEM VIRTUAL ADDRESS OF PAGE TABLE ENTRY
                                     0000   200 	.IDENT	/X0201/
                                     0000   300 ;
                                     0000   400 ; COPYRIGHT (C) 1977
                                     0000   500 ; DIGITAL EQUIPMENT CORPORATION, MAYNARD, MASSACHUSETTS 01754
                                     0000   600 ;
                                     0000   700 ; THIS SOFTWARE IS FURNISHED  UNDER A LICENSE FOR USE ONLY ON A SINGLE
                                     0000   800 ; COMPUTER  SYSTEM AND  MAY BE  COPIED ONLY WITH  THE INCLUSION OF THE
                                     0000   900 ; ABOVE COPYRIGHT NOTICE.  THIS SOFTWARE, OR ANY OTHER COPIES THEREOF,
                                     0000  1000 ; MAY NOT BE PROVIDED OR  OTHERWISE MADE AVAILABLE TO ANY OTHER PERSON
                                     0000  1100 ; EXCEPT FOR USE ON SUCH SYSTEM AND TO ONE WHO AGREES TO THESE LICENSE
                                     0000  1200 ; TERMS.  TITLE TO AND  OWNERSHIP OF THE  SOFTWARE  SHALL AT ALL TIMES
                                     0000  1300 ; REMAIN IN DEC.
                                     0000  1400 ;
                                     0000  1500 ; THE INFORMATION IN THIS SOFTWARE IS SUBJECT TO CHANGE WITHOUT NOTICE
                                     0000  1600 ; AND SHOULD  NOT BE CONSTRUED  AS A COMMITMENT  BY DIGITAL  EQUIPMENT
                                     0000  1700 ; CORPORATION.
                                     0000  1800 ;
                                     0000  1900 ; DEC ASSUMES  NO  RESPONSIBILITY  FOR  THE USE OR  RELIABILITY OF ITS
                                     0000  2000 ; SOFTWARE ON EQUIPMENT WHICH IS NOT SUPPLIED BY DEC.
                                     0000  2100
                                     0000  2200 ;++
                                     0000  2300 ; FACILITY:	EXECUTIVE, MEMORY MANAGEMENT SUBROUTINES
                                     0000  2400 ;
                                     0000  2500 ; ABSTRACT:	GIVEN A VIRTUAL ADDRESS (PROCESS OR SYSTEM),
                                     0000  2600 ;	RETURN THE SYSTEM VIRTUAL ADDRESS OF ITS ASSOCIATED PAGE TABLE ENTRY.
                                     0000  2700 ;
                                     0000  2800 ; ENVIRONMENT:	KERNEL MODE, NO INTERLOCK REQUIRED
                                     0000  2900 ;
                                     0000  3000 ;--
                                     0000  3100 ;
                                     0000  3200 ;	.PAGE
                                     0000  3300 	.SBTTL	HISTORY			; DETAILED
                                     0000  3400 ;
                                     0000  3500 ; AUTHOR: PETER H. LIPMAN	, CREATION DATE: 14-SEP-76
                                     0000  3600 ;
                                     0000  3700 ; MODIFIED BY:
                                     0000  3800 ;	, : VERSION
                                     0000  3900 ; 01	 -
                                     0000  4000
SVAPTE          - SYSTEM VIRTUAL ADDRESS OF PAGE TABLE ENTRY     21-AUG-1978 20:11:39   VAX-11 MACRO X0.3-11               Page   2
X0201           DECLARATIONS                                                                                                     (1)

                                     0000  4200 	.SBTTL	DECLARATIONS
                                     0000  4300
                                     0000  4400 ;
                                     0000  4500 ; INCLUDE FILES:
                                     0000  4600 ;
                                     0000  4700 	$IPLDEF				;PROCESSOR PRIORITY LEVEL DEFINITIONS
                                     0000  4800 	$PCBDEF				;DEFINE PROCESS CONTROL BLOCK OFFSETS
                                     0000  4900 	$PHDDEF				;DEFINE PROCESS HEADER OFFSETS
                                     0000  5000 	$PRDEF				;PROCESSOR REGISTER DEFINITIONS
                                     0000  5100 	$SSDEF				;SYSTEM STATUS CODES
                                     0000  5200 	$VADEF				;VIRTUAL ADDRESS VIELDS
                                     0000  5300 ;
                                     0000  5400 ; EXTERNAL SYMBOLS:
                                     0000  5500 ;
                                     0000  5600
                                     0000  5700 ;
                                     0000  5800 ; MACROS:
                                     0000  5900 ;
                                     0000  6000
                                     0000  6100 ;
                                     0000  6200 ; EQUATED SYMBOLS:
                                     0000  6300 ;
                                     0000  6400 ;
                                     0000  6500 ; OWN STORAGE:
                                     0000  6600 ;
                                     0000  6700 ;
                                     0000  6800 ; **********************************************************************
                                     0000  6900 ;
                                     0000  7000 ; **************** THIS ENTIRE MODULE MUST BE RESIDENT *****************
                                     0000  7100 ;
                                 00000000  7200 	.PSECT	$MMGCOD
                                     0000  7300 ;
                                     0000  7400 ; **********************************************************************
                                     0000  7500 ;
SVAPTE          - SYSTEM VIRTUAL ADDRESS OF PAGE TABLE ENTRY     21-AUG-1978 20:11:39   VAX-11 MACRO X0.3-11               Page   3
X0201           SVAPTECHK - SYSTEM VIRTUAL ADDRESS OF PAGE TABL                                                                  (2)

                                     0000   100 	.SBTTL	SVAPTECHK - SYSTEM VIRTUAL ADDRESS OF PAGE TABLE ENTRY
                                     0000   200 ;++
                                     0000   300 ; FUNCTIONAL DESCRIPTION:
                                     0000   400 ;
                                     0000   500 ;	GIVEN A PROCESS OR SYSTEM VIRTUAL ADDRESS IN R2, RETURN THE
                                     0000   600 ;	SYSTEM VIRTUAL ADDRESS OF THE CORRESPONDING PAGE TABLE ENTRY
                                     0000   700 ;	IF THE ADDRESS IS OFF THE END OF ITS PAGE TABLE, BUGCHK
                                     0000   800 ;
                                     0000   900 ; CALLING SEQUENCE:
                                     0000  1000 ;
                                     0000  1100 ;	BSBW	MMG$SVAPTECHK
                                     0000  1200 ;
                                     0000  1300 ; INPUT PARAMETERS:
                                     0000  1400 ;
                                     0000  1500 ;	R2 = VIRTUAL ADDRESS (P0, P1, OR SYSTEM SPACE)
                                     0000  1600 ;	R4 = PROCESS CONTROL BLOCK ADDRESS
                                     0000  1700 ;	R5 = PROCESS HEADER ADDRESS
                                     0000  1800 ;	IPL = SYNCH (TO AVOID HAVING PROCESS PAGE TABLE MOVE)
                                     0000  1900 ;
                                     0000  2000 ; IMPLICIT INPUTS:
                                     0000  2100 ;
                                     0000  2200 ;	NONE
                                     0000  2300 ;
                                     0000  2400 ; OUTPUT PARAMETERS:
                                     0000  2500 ;
                                     0000  2600 ;	R2 PRESERVED
                                     0000  2700 ;	R3 = SYSTEM VIRTUAL ADDRESS OF THE PAGE TABLE ENTRY
                                     0000  2800 ;
                                     0000  2900 ; IMPLICIT OUTPUTS:
                                     0000  3000 ;
                                     0000  3100 ;	NONE
                                     0000  3200 ;
                                     0000  3300 ; COMPLETION CODES:
                                     0000  3400 ;
                                     0000  3500 ;	NONE
                                     0000  3600 ;
                                     0000  3700 ; SIDE EFFECTS:
                                     0000  3800 ;
                                     0000  3900 ;	NONE
                                     0000  4000 ;
                                     0000  4100 ;--
                                     0000  4200 MMG$SVAPTECHK::
            52            1F     E1  0000  4300 	BBC	#31,R2,MMG$PTEADRCHK	;HANDLE PROCESS SPACE VIA PTEADRCHK
                          15         0003
   00000000'EF            52     D1  0004  4400 	CMPL	R2,MMG$GL_FRESVA	;ADDRESS WITHIN PAGE TABLE?
                          11     1E  000B  4500 	BGEQU	PTELENVIO		;BRANCH IF NOT, LENGTH VIOLATION
            15            09     EF  000D  4600 	EXTZV	#VA$V_VPN,#VA$S_VPN,R2,R3 ;VIRTUAL PAGE NUMBER
            53            52         0010
            53       0000'DF43   DE  0012  4700 	MOVAL	@W^MMG$GL_SPTBASE[R3],R3	;SYS VIRTUAL ADDRESS OF PTE
                                 05  0018  4800 	RSB
SVAPTE          - SYSTEM VIRTUAL ADDRESS OF PAGE TABLE ENTRY     21-AUG-1978 20:11:39   VAX-11 MACRO X0.3-11               Page   4
X0201           PTEADR, PTEINDX - PAGE TABLE ENTRY ADDRESS OR I                                                                  (3)

                                     0019   100 	.SBTTL	PTEADR, PTEINDX - PAGE TABLE ENTRY ADDRESS OR INDEX
                                     0019   200 ;++
                                     0019   300 ; FUNCTIONAL DESCRIPTION:
                                     0019   400 ;
                                     0019   500 ;	GIVEN A VIRTUAL ADDRESS (SYSTEM OR PROCESS), CALCULATE
                                     0019   600 ;		1) THE SYSTEM VIRTUAL ADDRESS OF THE PAGE TABLE ENTRY
                                     0019   700 ;	OR
                                     0019   800 ;		2) THE LONG WORD INDEX FROM THE BASE OF THE PROCESS/SYSTEM
                                     0019   900 ;		HEADER TO THE PAGE TABLE ENTRY
                                     0019  1000 ;
                                     0019  1100 ; CALLING SEQUENCE:
                                     0019  1200 ;
                                     0019  1300 ;	BSBW	MMG$PTEREF		;FAULT PTE, RETURN SYS VIRT ADR OF PTE
                                     0019  1400 ;					;RETURN IPL=SYNCH, R0 = SYSTEM STATUS
                                     0019  1500 ;	BSBW	MMG$PTEADRCHK		;RETURN SYSTEM VIRTUAL ADDRESS OF PTE
                                     0019  1600 ;					;BUGCHK IF LENGTH VIOLATION
                                     0019  1700 ;	BSBW	MMG$PTEINDX		;RETURN LONG WORD INDEX TO PTE
                                     0019  1800 ;					;R0 = SYSTEM STATUS CODE
                                     0019  1900 ;	BSBW	MMG$PTEINDXCHK		;RETURN LONG WORD INDEX TO PTE
                                     0019  2000 ;					;BUGCHK IF LENGTH VIOLATION
                                     0019  2100 ;
                                     0019  2200 ; INPUT PARAMETERS:
                                     0019  2300 ;
                                     0019  2400 ;	R2 = PROCESS VIRTUAL ADDRESS (P0 OR P1 SPACE)
                                     0019  2500 ;	R4 = PROCESS CONTROL BLOCK ADDRESS
                                     0019  2600 ;	R5 = PROCESS HEADER ADDRESS
                                     0019  2700 ;		THIS MAY BE EITHER THE SYSTEM SPACE OR P1 SPACE ADDRESS
                                     0019  2800 ;		OF THE PROCESS HEADER, BUT IF IT IS THE SYSTEM SPACE ADDRESS
                                     0019  2900 ;		THE CALLING IPL MUST BE AT SYNCH TO PREVENT SWAPPING
                                     0019  3000 ;	IPL LEQ SYNCH - IF REQUESTING THE ADDRESS OF THE PAGE TABLE ENTRY
                                     0019  3100 ;		OR IF THE SYSTEM SPACE ADDRESS OF THE PROCESS HEADER IS
                                     0019  3200 ;		SPECIFIED, IPL MUST BE AT SYNCH TO PREVENT SWAPPING
                                     0019  3300 ;
                                     0019  3400 ;  OR
                                     0019  3500 ;
                                     0019  3600 ;	R2 = SYSTEM SPACE VIRTUAL ADDRESS
                                     0019  3700 ;	R4 = SYSTEM PROCESS CONTROL BLOCK ADDRESS
                                     0019  3800 ;	R5 = SYSTEM ADDRESS (NO P1 SPACE EQUIVALENT) OF SYSTEM PROCESS HEADER
                                     0019  3900 ;	IPL NOT REQUIRED TO BE AT SYNCH SINCE THE SYSTEM PAGE TABLE IS
                                     0019  4000 ;		NOT EVER MOVED.
                                     0019  4100 ;
                                     0019  4200 ; IMPLICIT INPUTS:
                                     0019  4300 ;
                                     0019  4400 ;	NONE
                                     0019  4500 ;
                                     0019  4600 ; OUTPUT PARAMETERS:
                                     0019  4700 ;
                                     0019  4800 ;	R0 = SYSTEM STATUS CODE
                                     0019  4900 ;	R2 PRESERVED
                                     0019  5000 ;	R3 = SYSTEM VIRTUAL ADDRESS OF PAGE TABLE ENTRY OR LONG WORD
                                     0019  5100 ;		INDEX TO PAGE TABLE ENTRY ACCORDING TO THE ENTRY POINT
                                     0019  5200 ;
                                     0019  5300 ; IMPLICIT OUTPUTS:
                                     0019  5400 ;
                                     0019  5500 ;	NONE
                                     0019  5600 ;
                                     0019  5700 ; COMPLETION CODES:
SVAPTE          - SYSTEM VIRTUAL ADDRESS OF PAGE TABLE ENTRY     21-AUG-1978 20:11:39   VAX-11 MACRO X0.3-11               Page   5
X0201           PTEADR, PTEINDX - PAGE TABLE ENTRY ADDRESS OR I                                                                  (3)

                                     0019  5800 ;
                                     0019  5900 ;	SS$_LENVIO			;PAGE TABLE LENGTH VIOLATION
                                     0019  6000 ;
                                     0019  6100 ; SIDE EFFECTS:
                                     0019  6200 ;
                                     0019  6300 ;	NONE
                                     0019  6400 ;
                                     0019  6500 ;--
SVAPTE          - SYSTEM VIRTUAL ADDRESS OF PAGE TABLE ENTRY     21-AUG-1978 20:11:39   VAX-11 MACRO X0.3-11               Page   6
X0201           PTEADR, PTEINDX - PAGE TABLE ENTRY ADDRESS OR I                                                                  (4)

                                     0019   100 	.ENABL	LSB
                                     0019   200
                                     0019   300 MMG$PTEADRCHK::
                          1F     10  0019   400 	BSBB	MMG$PTEINDX		;GET INDEX TO PAGE TABLE ENTRY
            10            50     E8  001B   500 	BLBS	R0,20$			;BRANCH IF GOT ONE
                                     001E   600 PTELENVIO:
                                     001E   700 	BUG_CHECK PTELENVIOL,FATAL	;UNEXPECTED PAGE TABLE LENGTH VIOLATION
                                     0022   800
                                     0022   900 MMG$PTEREF::
                          16     10  0022  1000 	BSBB	MMG$PTEINDX		;GET INDEX TO PAGE TABLE ENTRY
            0C            50     E9  0024  1100 	BLBC	R0,30$			;BRANCH IF LENGTH VIOLATION
                       64 B443   D5  0027  1200 	TSTL	@PCB$L_PHD(R4)[R3]	;FAULT THE PAGE TABLE IF NECESSARY
                                     002B  1300 	SETIPL	#IPL$_SYNCH		;AND THEN RAISE TO SYNCH
            53         64 B443   DE  002E  1400 20$:	MOVAL	@PCB$L_PHD(R4)[R3],R3	;CONVERT INDEX TO SYSTEM VIRTUAL
                                     0033  1500 					;ADDRESS OF PAGE TABLE ENTRY
                                 05  0033  1600 30$:	RSB
                                     0034  1700
                                     0034  1800 	.DSABL	LSB
                                     0034  1900
                                     0034  2000 MMG$PTEINDXCHK::
                          04     10  0034  2100 	BSBB	MMG$PTEINDX		;GET INDEX TO PAGE TABLE ENTRY
            E5            50     E9  0036  2200 	BLBC	R0,PTELENVIO		;BUGCHK IF LENGTH VIOLATION
                                 05  0039  2300 	RSB
                                     003A  2400
                                     003A  2500 MMG$PTEINDX::
            50            01     3C  003A  2600 	MOVZWL	#SS$_NORMAL,R0		;ASSUME SUCCESSFUL COMPLETION
            16            09     EE  003D  2700 	EXTV	#VA$V_VPN,#VA$S_VPN+1,R2,R3 ;SIGN EXTENDED VIRTUAL PAGE NUMBER
            53            52         0040
                                     0042  2800 					;INCLUDING P1 SPACE BIT
                          1A     19  0042  2900 	BLSS	20$			;BRANCH IF P1 SPACE
         28 A5            52     D1  0044  3000 	CMPL	R2,PHD$L_FREP0VA(R5)	;OFF THE END OF P0 (OR SYSTEM) SPACE?
                          20     1E  0048  3100 	BGEQU	30$			;BRANCH IF YES, LENGTH VIOLATION
            52            1F     E0  004A  3200 	BBS	#31,R2,10$		;BRANCH IF SYSTEM SPACE
                          06         004D
            53       0000'CF     C0  004E  3300 	ADDL	W^SGN$GL_PHDLWCNT,R3	;ADD OFFSET FROM PHD TO P0PT
                                 05  0053  3400 	RSB
       0000'CF            1E     9C  0054  3500 10$:	ROTL	#<32-2>,W^MMG$GL_SYSPHDLN,-(SP) ;ADD OFFSET FROM SYSPHD
                          7E         0059
            53            8E     C0  005A  3550 	ADDL	(SP)+,R3		;TO SYSPT
                                 05  005D  3600 	RSB
                                     005E  3700 ;
                                     005E  3800 ; P1 SPACE VIRTUAL ADDRESS
                                     005E  3900 ;
         30 A5            52     D1  005E  4000 20$:	CMPL	R2,PHD$L_FREP1VA(R5)	;OFF THE END OF P1 SPACE?
                          06     1B  0062  4100 	BLEQU	30$			;BRANCH IF YES, LENGTH VIOLATION
            53       0000'CF     C0  0064  4200 	ADDL	W^SGN$GL_P1LWCNT,R3	;ADD OFFSET FROM PHD
                                     0069  4300 					;TO LAST + 1 ENTRY OFF END OF P1PT
                                 05  0069  4400 	RSB
            50       018C 8F     3C  006A  4500 30$:	MOVZWL	#SS$_LENVIO,R0		;LENGTH VIOLATION STATUS
                                 05  006F  4600 	RSB
                                     0070  4700
                                     0070  4800
                                     0070  4900 	.END
SVAPTE          - SYSTEM VIRTUAL ADDRESS OF PAGE TABLE ENTRY     21-AUG-1978 20:11:39   VAX-11 MACRO X0.3-11               Page   7
SYMBOL TABLE                                                                                                                     (4)

BIT...         = 00000020            PCB$V_PHDRES   = 00000012            PHD$L_PGFLCNT    00000034
BUG$_PTELENVIOL  ********   X   03   PCB$V_PSWAPM   = 00000004            PHD$L_PGFLQUOTA  0000005C
GBL...         = 00000000            PCB$V_PWRAST   = 00000016            PHD$L_PSL        000000C4
IPL$_ASTDEL    = 00000002            PCB$V_RES      = 00000000            PHD$L_PSTBASOFF  00000020
IPL$_HWCLK     = 00000018            PCB$V_RESPEN   = 00000005            PHD$L_PTWSLELCK  00000064
IPL$_IOPOST    = 00000004            PCB$V_SSFEXC   = 00000006            PHD$L_PTWSLEVAL  00000068
IPL$_MAILBOX   = 0000000B            PCB$V_SSFEXCE  = 00000007            PHD$L_R0         00000088
IPL$_POWER     = 0000001F            PCB$V_SSFEXCS  = 00000008            PHD$L_R1         0000008C
IPL$_QUEUEAST  = 00000006            PCB$V_SSFEXCU  = 00000009            PHD$L_R10        000000B0
IPL$_SCHED     = 00000003            PCB$V_SSRWAIT  = 0000000A            PHD$L_R11        000000B4
IPL$_SYNCH     = 00000007            PCB$V_SUSPEN   = 0000000B            PHD$L_R12        000000B8
IPL$_TIMER     = 00000007            PCB$V_SWPVBN   = 00000010            PHD$L_R13        000000BC
MMG$GL_FRESVA    ********   X   03   PCB$V_WAKEPEN  = 0000000C            PHD$L_R2         00000090
MMG$GL_SPTBASE   ********   X   03   PCB$V_WALL     = 0000000D            PHD$L_R3         00000094
MMG$GL_SYSPHDLN  ********   X   03   PCB$W_APTCNT     00000034            PHD$L_R4         00000098
MMG$PTEADRCHK    00000019 RG    03   PCB$W_ASTCNT     0000003C            PHD$L_R5         0000009C
MMG$PTEINDX      0000003A RG    03   PCB$W_BIOCNT     0000003E            PHD$L_R6         000000A0
MMG$PTEINDXCHK   00000034 RG    03   PCB$W_BIOLM      00000040            PHD$L_R7         000000A4
MMG$PTEREF       00000022 RG    03   PCB$W_BYTCNT     00000042            PHD$L_R8         000000A8
MMG$SVAPTECHK    00000000 RG    03   PCB$W_BYTLM      00000068            PHD$L_R9         000000AC
PCB$B_ASTACT     0000000C            PCB$W_DIOCNT     00000044            PHD$L_REFERFLT   00000014
PCB$B_ASTEN      0000000D            PCB$W_DIOLM      00000046            PHD$L_SSP        00000080
PCB$B_PRI        0000000B            PCB$W_FILCNT     00000048            PHD$L_USP        00000084
PCB$B_PRIB       00000033            PCB$W_GPGCNT     00000038            PHD$L_WSL        00000118
PCB$B_TYPE       0000000A            PCB$W_GRP        00000022            PHD$M_DALCSTX  = 00000002
PCB$B_WEFC       00000032            PCB$W_MEM        00000020            PHD$M_PFMFLG   = 00000001
PCB$C_LENGTH     0000007C            PCB$W_MTXCNT     0000000E            PHD$M_WSPEAKCHK= 00000004
PCB$K_LENGTH     0000007C            PCB$W_PPGCNT     0000003A            PHD$Q_PRIVMSK    00000000
PCB$L_ASTQBL     00000014            PCB$W_PRCCNT     0000006A            PHD$S_ASTLVL   = 00000008
PCB$L_ASTQFL     00000010            PCB$W_SIZE       00000008            PHD$S_P0LR     = 00000018
PCB$L_EFC2P      00000058            PCB$W_STATE      00000030            PHD$V_ASTLVL   = 00000018
PCB$L_EFC3P      0000005C            PCB$W_TMBU       00000036            PHD$V_DALCSTX  = 00000001
PCB$L_EFCS       00000050            PCB$W_TQCNT      0000004A            PHD$V_P0LR     = 00000000
PCB$L_EFCU       00000054            PHD$B_ASTLVL     000000CF            PHD$V_PFMFLG   = 00000000
PCB$L_EFWM       0000004C            PHD$B_DFPFC      00000038            PHD$V_WSPEAKCHK= 00000002
PCB$L_OWNER      0000001C            PHD$B_PAGFIL     0000001F            PHD$W_ASTLM      00000044
PCB$L_PHD        00000064            PHD$B_PGTBPFC    00000039            PHD$W_BAK        00000048
PCB$L_PHYPCB     00000018            PHD$C_LENGTH     00000118            PHD$W_DFWSCNT    0000001A
PCB$L_PID        00000060            PHD$C_PHDPAGCTX= 00000008            PHD$W_EMPTPG     000000D8
PCB$L_PQB        0000004C            PHD$K_LENGTH     00000118            PHD$W_EXTDYNWS   00000076
PCB$L_SQBL       00000004            PHD$L_BIOCNT     00000054            PHD$W_FILLM      00000060
PCB$L_SQFL       00000000            PHD$L_CPULIM     00000058            PHD$W_FLAGS      0000003A
PCB$L_STS        00000028            PHD$L_CPUTIM     0000003C            PHD$W_PHVINDEX   00000046
PCB$L_UIC        00000020            PHD$L_DIOCNT     00000050            PHD$W_PRCLM      00000042
PCB$L_WSSWP      00000024            PHD$L_ESP        0000007C            PHD$W_PST        00000020
PCB$L_WTIME      0000002C            PHD$L_FREP0VA    00000028            PHD$W_PSTBASMAX  0000004A
PCB$T_LNAME      0000006C            PHD$L_FREP1VA    00000030            PHD$W_PSTFREE    00000026
PCB$V_ASTPEN   = 00000011            PHD$L_FREPTECNT  0000002C            PHD$W_PSTLAST    00000024
PCB$V_BATCH    = 0000000E            PHD$L_KSP        00000078            PHD$W_PTCNTACT   00000070
PCB$V_DELPEN   = 00000001            PHD$L_P0BR       000000C8            PHD$W_PTCNTLCK   0000006C
PCB$V_FORCPEN  = 00000002            PHD$L_P0LRASTL   000000CC            PHD$W_PTCNTMAX   00000072
PCB$V_HIBER    = 00000013            PHD$L_P1BR       000000D0            PHD$W_PTCNTVAL   0000006E
PCB$V_INQUAN   = 00000003            PHD$L_P1LR       000000D4            PHD$W_QUANT      00000040
PCB$V_LOGIN    = 00000014            PHD$L_PAGEFLTS   0000004C            PHD$W_TQLM       00000062
PCB$V_NETWRK   = 00000015            PHD$L_PAGFIL     0000001C            PHD$W_WSAUTH     0000000A
PCB$V_NOACNT   = 0000000F            PHD$L_PC         000000C0            PHD$W_WSDYN      0000000E
PCB$V_NODELET  = 00000017            PHD$L_PCB        00000078            PHD$W_WSFLUID    00000074
SVAPTE          - SYSTEM VIRTUAL ADDRESS OF PAGE TABLE ENTRY     21-AUG-1978 20:11:39   VAX-11 MACRO X0.3-11               Page   8
SYMBOL TABLE                                                                                                                     (4)

PHD$W_WSLAST     00000012            SS$_BADCHKSUM  = 00000808            SS$_FILALRACC  = 000000A4
PHD$W_WSLIST     00000008            SS$_BADESCAPE  = 0000003C            SS$_FILELOCKED = 000008A8
PHD$W_WSLOCK     0000000C            SS$_BADFILEHDR = 00000810            SS$_FILENUMCHK = 000008B0
PHD$W_WSLX       0000004A            SS$_BADFILENAME= 00000818            SS$_FILESEQCHK = 000008B8
PHD$W_WSNEXT     00000010            SS$_BADFILEVER = 00000820            SS$_FILESTRUCT = 000008C0
PHD$W_WSQUOTA    00000018            SS$_BADIMGHDR  = 00000044            SS$_FILNOTACC  = 000000AC
PR$_ACCR       = 00000029            SS$_BADIRECTORY= 00000828            SS$_FILNOTCNTG = 000002AC
PR$_ACCS       = 00000028            SS$_BADPARAM   = 00000014            SS$_FILNOTEXP  = 000000B4
PR$_ASTLVL     = 00000013            SS$_BADSTACK   = 000002B4            SS$_FLTDIV     = 00000494
PR$_ESP        = 00000001            SS$_BEGOFFILE  = 00000938            SS$_FLTOVF     = 0000048C
PR$_ICCS       = 00000018            SS$_BLOCKCNTERR= 00000940            SS$_FLTUND     = 0000049C
PR$_ICR        = 0000001A            SS$_BREAK      = 00000414            SS$_FORMAT     = 000000BC
PR$_IPL        = 00000012            SS$_BUFBYTALI  = 0000030C            SS$_GPTFULL    = 000000C4
PR$_ISP        = 00000004            SS$_BUFFEROVF  = 00000601            SS$_GSDFULL    = 000000CC
PR$_KSP        = 00000000            SS$_BUGCHECK   = 000002A4            SS$_HANGUP     = 000002CC
PR$_MAPEN      = 00000038            SS$_CANCEL     = 00000830            SS$_HEADERFULL = 000008C8
PR$_NICR       = 00000019            SS$_CHANINTLK  = 0000004C            SS$_IDXFILEFULL= 000008D0
PR$_P0BR       = 00000008            SS$_CLIFRCEXT  = 00000980            SS$_ILLBLKNUM  = 000000DC
PR$_P0LR       = 00000009            SS$_CMODSUPR   = 0000041C            SS$_ILLCNTRFUNC= 000000E4
PR$_P1BR       = 0000000A            SS$_CMODUSER   = 00000424            SS$_ILLEFC     = 000000EC
PR$_P1LR       = 0000000B            SS$_COMPAT     = 0000042C            SS$_ILLIOFUNC  = 000000F4
PR$_PCBB       = 00000010            SS$_CONTINUE   = 00000001            SS$_ILLLBLAST  = 00000968
PR$_PME        = 0000003D            SS$_CONTROLC   = 00000651            SS$_ILLPAGCNT  = 000000FC
PR$_RXCS       = 00000020            SS$_CONTROLO   = 00000609            SS$_ILLSEQOP   = 000002DC
PR$_RXDB       = 00000021            SS$_CONTROLY   = 00000611            SS$_ILLSER     = 00000104
PR$_SBIER      = 00000034            SS$_CREATED    = 00000619            SS$_ILLUSRLBLRD= 00000958
PR$_SBIFS      = 00000030            SS$_CTRLERR    = 00000054            SS$_ILLUSRLBLWT= 00000960
PR$_SBIMT      = 00000033            SS$_DATACHECK  = 0000005C            SS$_INCVOLLABEL= 0000010C
PR$_SBIQC      = 00000036            SS$_DATAOVERUN = 00000838            SS$_INSFARG    = 00000114
PR$_SBIS       = 00000031            SS$_DEBUG      = 0000046C            SS$_INSFMEM    = 00000124
PR$_SBISC      = 00000032            SS$_DECOVF     = 000004A4            SS$_INSFRAME   = 0000012C
PR$_SBITA      = 00000035            SS$_DEVACTIVE  = 000002C4            SS$_INSFWSL    = 0000011C
PR$_SBR        = 0000000C            SS$_DEVALLOC   = 00000840            SS$_INTDIV     = 00000484
PR$_SCBB       = 00000011            SS$_DEVALRALLOC= 00000641            SS$_INTOVF     = 0000047C
PR$_SID        = 0000003E            SS$_DEVASSIGN  = 00000848            SS$_IVADDR     = 00000134
PR$_SIRR       = 00000014            SS$_DEVFOREIGN = 00000064            SS$_IVCHAN     = 0000013C
PR$_SISR       = 00000015            SS$_DEVICEFULL = 00000850            SS$_IVCHNLSEC  = 0000026C
PR$_SLR        = 0000000D            SS$_DEVMOUNT   = 0000006C            SS$_IVDEVNAM   = 00000144
PR$_SSP        = 00000002            SS$_DEVNOTALLOC= 00000858            SS$_IVGSDNAM   = 0000014C
PR$_TBIA       = 00000039            SS$_DEVNOTMBX  = 00000074            SS$_IVLOGNAM   = 00000154
PR$_TBIS       = 0000003A            SS$_DEVNOTMOUNT= 0000007C            SS$_IVLOGTAB   = 0000015C
PR$_TODR       = 0000001B            SS$_DEVOFFLINE = 00000084            SS$_IVPROTECT  = 000002F4
PR$_TXCS       = 00000022            SS$_DIRFULL    = 00000860            SS$_IVQUOTAL   = 00000164
PR$_TXDB       = 00000023            SS$_DRVERR     = 0000008C            SS$_IVSECFLG   = 0000016C
PR$_USP        = 00000003            SS$_DUPFILENAME= 00000868            SS$_IVSECIDCTL = 000002E4
PR$_WCSA       = 0000002C            SS$_DUPLNAM    = 00000094            SS$_IVSSRQ     = 00000174
PR$_WCSD       = 0000002D            SS$_ENDOFFILE  = 00000870            SS$_IVSTSFLG   = 0000017C
PTELENVIO        0000001E R     03   SS$_ENDOFTAPE  = 00000878            SS$_IVTIME     = 00000184
SGN$GL_P1LWCNT   ********   X   03   SS$_ENDOFUSRLBL= 00000970            SS$_LCKPAGFUL  = 000000D4
SGN$GL_PHDLWCNT  ********   X   03   SS$_EXQUOTA    = 0000001C            SS$_LENVIO     = 0000018C
SS$_ABORT      = 0000002C            SS$_EXTIDXFILE = 00000880            SS$_LKWSETFUL  = 00000194
SS$_ACCONFLICT = 00000800            SS$_FCPREADERR = 00000888            SS$_MBFULL     = 000008D8
SS$_ACCVIO     = 0000000C            SS$_FCPREPSTN  = 00000988            SS$_MBTOOSML   = 0000019C
SS$_ACPVAFUL   = 000002FC            SS$_FCPREWNDERR= 00000890            SS$_MCHECK     = 000002BC
SS$_ARTRES     = 00000474            SS$_FCPSPACERR = 00000898            SS$_MEDOFL     = 000001A4
SS$_ASTFLT     = 0000040C            SS$_FCPWRITERR = 000008A0            SS$_MSGNOTFND  = 00000621
SS$_BADATTRIB  = 00000034            SS$_FILACCERR  = 0000009C            SS$_MTLBLLONG  = 00000304
SVAPTE          - SYSTEM VIRTUAL ADDRESS OF PAGE TABLE ENTRY     21-AUG-1978 20:11:39   VAX-11 MACRO X0.3-11               Page   9
SYMBOL TABLE                                                                                                                     (4)

SS$_MUSTCLOSEFL= 00000948            SS$_UNWINDING  = 00000928
SS$_NOAQB      = 00000314            SS$_VASFULL    = 00000244
SS$_NODATA     = 000001AC            SS$_VECINUSE   = 0000024C
SS$_NOHANDLER  = 000008F8            SS$_VOLINV     = 00000254
SS$_NOHOMEBLK  = 000008E0            SS$_WAITUSRLBL = 00000950
SS$_NOIOCHAN   = 000001B4            SS$_WASCLR     = 00000001
SS$_NOLINKS    = 0000027C            SS$_WASECC     = 00000639
SS$_NOLOGNAM   = 000001BC            SS$_WASSET     = 00000009
SS$_NOMBX      = 00000274            SS$_WRITLCK    = 0000025C
SS$_NOMOREFILES= 00000930            SS$_WRONGACP   = 0000031C
SS$_NONEXDRV   = 000001C4            VA$M_BYTE      = 000001FF
SS$_NONEXPR    = 000008E8            VA$M_P1        = 40000000
SS$_NONLOCAL   = 000008F0            VA$M_SYSTEM    = 80000000
SS$_NOPRIV     = 00000024            VA$M_VPG       = FFFFFE00
SS$_NORMAL     = 00000001            VA$M_VPN       = 3FFFFE00
SS$_NOSIGNAL   = 00000900            VA$S_BYTE      = 00000009
SS$_NOSOLICIT  = 00000284            VA$S_VPG       = 00000017
SS$_NOSUCHDEV  = 00000908            VA$S_VPN       = 00000015
SS$_NOSUCHFILE = 00000910            VA$V_BYTE      = 00000000
SS$_NOSUCHNODE = 0000028C            VA$V_P1        = 0000001E
SS$_NOSUCHSEC  = 00000978            VA$V_SYSTEM    = 0000001F
SS$_NOTAPEOP   = 00000264            VA$V_VPG       = 00000009
SS$_NOTFILEDEV = 000001CC            VA$V_VPN       = 00000009
SS$_NOTINTBLSZ = 000001D4
SS$_NOTLABELMT = 000001DC
SS$_NOTMODIFIED= 00000659
SS$_NOTNETDEV  = 000002EC
SS$_NOTRAN     = 00000629
SS$_NOTSQDEV   = 000001E4
SS$_OPCCUS     = 00000434
SS$_OPCDEC     = 0000043C
SS$_OPINCOMPL  = 000002D4
SS$_PAGOWNVIO  = 000001EC
SS$_PAGRDERR   = 00000444
SS$_PARITY     = 000001F4
SS$_PARTESCAPE = 000001FC
SS$_PFMBSY     = 00000204
SS$_PLHLDR     = 00000404
SS$_PSTFULL    = 0000020C
SS$_RADRMOD    = 0000044C
SS$_REJECT     = 00000294
SS$_REMOTE     = 00000649
SS$_RESIGNAL   = 00000918
SS$_RESULTOVF  = 00000214
SS$_ROPRAND    = 00000454
SS$_SECTBLFUL  = 0000021C
SS$_SSFAIL     = 0000045C
SS$_SUBRNG     = 000004AC
SS$_SUPERSEDE  = 00000631
SS$_TAPEPOSLOST= 00000224
SS$_TBIT       = 00000464
SS$_TIMEOUT    = 0000022C
SS$_TOOMANYVER = 00000990
SS$_TOOMUCHDATA= 0000029C
SS$_UNASEFC    = 00000234
SS$_UNSAFE     = 0000023C
SS$_UNWIND     = 00000920
SVAPTE          - SYSTEM VIRTUAL ADDRESS OF PAGE TABLE ENTRY     21-AUG-1978 20:11:39   VAX-11 MACRO X0.3-11               Page  10
PROGRAM SECTION SYNOPSIS                                                                                                         (4)


PROGRAM SECTION SYNOPSIS

.  ABS  .        00000000      00     NOPIC   USR   CON   ABS   LCL NOSHR NOEXE NORD  NOWRT BYTE
. BLANK .        00000000      01     NOPIC   USR   CON   REL   LCL NOSHR   EXE   RD    WRT BYTE
$ABS$            0000011C      02     NOPIC   USR   CON   ABS   LCL NOSHR   EXE   RD    WRT BYTE
$MMGCOD          00000070      03     NOPIC   USR   CON   REL   LCL NOSHR   EXE   RD    WRT BYTE


THERE WERE NO ERRORS OR WARNINGS.
13650. BYTES LEFT IN FREE MEMORY POOL.
3526. BYTES OF RECLAIMED MEMORY.
OBJ$:SVAPTE,LIS$:SVAPTE/-SP=EXECML$/ML,SRC$:SVAPTE
6 MLB DIR RDS - 724 GETS TO DEFINE 17 MACROS. 47 INTER. FILE WRITES.
