SYSBRDCST       - TERMINAL BROADCAST SYSTEM SERVICE              21-AUG-1978 20:20:20   VAX-11 MACRO X0.3-11               Page   0
TABLE OF CONTENTS

   (2)      52  BROADCAST SYSTEM SERVICE
SYSBRDCST       - TERMINAL BROADCAST SYSTEM SERVICE              21-AUG-1978 20:20:20   VAX-11 MACRO X0.3-11               Page   1
X05                                                                                                                              (1)

                                     0000     1 	.TITLE	SYSBRDCST - TERMINAL BROADCAST SYSTEM SERVICE
                                     0000     2 	.IDENT	/X05/
                                     0000     3 ;
                                     0000     4 ; COPYRIGHT (C) 1977
                                     0000     5 ; DIGITAL EQUIPMENT CORPORATION, MAYNARD, MASS.
                                     0000     6 ;
                                     0000     7 ; THIS SOFTWARE IS FURNISHED UNDER  A LICENSE FOR USE ONLY  ON  A
                                     0000     8 ; SINGLE COMPUTER SYSTEM AND MAY BE  COPIED ONLY WITH  THE INCLU-
                                     0000     9 ; SION OF  THE  ABOVE  COPYRIGHT NOTICE.  THIS SOFTWARE,  OR  ANY
                                     0000    10 ; OTHER COPIES THEREOF, MAY NOT BE  PROVIDED  OR  OTHERWISE  MADE
                                     0000    11 ; AVAILABLE TO ANY OTHER PERSON EXCEPT  FOR  USE  ON  SUCH SYSTEM
                                     0000    12 ; AND TO  ONE WHO AGREES  TO  THESE LICENSE  TERMS.  TITLE TO AND
                                     0000    13 ; OWNERSHIP OF THE SOFTWARE SHALL AT ALL TIMES REMAIN IN DEC.
                                     0000    14 ;
                                     0000    15 ; THE INFORMATION IN THIS SOFTWARE  IS  SUBJECT TO CHANGE WITHOUT
                                     0000    16 ; NOTICE AND SHOULD NOT BE CONSTRUED  AS  A COMMITMENT BY DIGITAL
                                     0000    17 ; EQUIPMENT CORPORATION.
                                     0000    18 ;
                                     0000    19 ; DEC ASSUMES NO RESPONSIBILITY FOR THE USE OR RELIABILITY OF ITS
                                     0000    20 ; SOFTWARE ON EQUIPMENT WHICH IS NOT SUPPLIED BY DEC.
                                     0000    21 ;
                                     0000    22 ;++
                                     0000    23 ; FACILITY:
                                     0000    24 ;
                                     0000    25 ;	VAX/VMS EXECUTIVE SYSTEM SERVICE FOR BROADCASTS
                                     0000    26 ;
                                     0000    27 ; ABSTRACT:
                                     0000    28 ;
                                     0000    29 ;	SYSBRDCST IS A PRIVILEGED SYSTEM SERVICE THAT CREATES
                                     0000    30 ;	BREAK THROUGH WRITE OPERATIONS ON ONE OR MORE TERMINALS.
                                     0000    31 ;
                                     0000    32 ; AUTHOR:
                                     0000    33 ;
                                     0000    34 ;	R.HEINEN 11-JAN-1977
                                     0000    35 ;--
                                     0000    36 ;
                                     0000    37 ; EXTERNAL DEFINITIONS
                                     0000    38 ;
                                     0000    39 	$DDBDEF				; DEFINE DDB
                                     0000    40 	$DEVDEF				; DEFINE DEVICE CHARACTERISTICS
                                     0000    41 	$DYNDEF				; DEFINE DYNAMIC DATA TYPES
                                     0000    42 	$IPLDEF				; DEFINE IPLS
                                     0000    43 	$PCBDEF				; DEFINE PCB
                                     0000    44 	$PRDEF				; DEFINE PROCESSOR REGISTERS
                                     0000    45 	$PRVDEF				; DEFINE PRIVILEGES
                                     0000    46 	$RSNDEF				; DEFINE RESOURCE NUMBERS
                                     0000    47 	$TTYDEF				; DEFINE TERMINAL DRIVER SYMBOLS
                                     0000    48 	$UCBDEF				; DEFINE UCB
                                     0000    49
                                 00000000    50 	.PSECT	AEXENONPAGED
SYSBRDCST       - TERMINAL BROADCAST SYSTEM SERVICE              21-AUG-1978 20:20:20   VAX-11 MACRO X0.3-11               Page   2
X05             BROADCAST SYSTEM SERVICE                                                                                         (2)

                                     0000    52 	.SBTTL	BROADCAST SYSTEM SERVICE
                                     0000    53 	.LIST	MEB
                                     0000    54 ;++
                                     0000    55 ; EXE$BRDCST - TERMINAL BROADCAST SYSTEM SERVICE
                                     0000    56 ;
                                     0000    57 ; FUNCTIONAL DESCRIPTION:
                                     0000    58 ;
                                     0000    59 ; THIS IS A PRIVILEGED SYSTEM SERIVCE. PRV$_OPER
                                     0000    60 ; FOR MULTI-TERMINAL BROADCASTS. OTHERWISE, SINGLE BROADCASTS CAN BE DONE
                                     0000    61 ; IF THE REQUESTOR OWNS THE TERMINAL.
                                     0000    62 ;
                                     0000    63 ; EXE$BRDCST COPIES A STRING DESCRIPTOR SPECIFIED MESSAGE INTO SYSTEM SPACE
                                     0000    64 ; AND SETS UP THE NECESSARY TERMINAL UCB INFORMATION FOR A BREAK
                                     0000    65 ; THROUGH WRITE. THE MESSAGE IS LIMITED BY THE CURRENT PROCESS
                                     0000    66 ; BUFFERED I/O QOUTA.
                                     0000    67 ;
                                     0000    68 ; INPUTS:
                                     0000    69 ;
                                     0000    70 ;	(AP) = 2
                                     0000    71 ;	4(AP) = ADDRESS OF STRING DESCRIPTER FOR MESSAGE
                                     0000    72 ;	8(AP) = TARGET TERMINAL DESCRIPTER ADDRESS
                                     0000    73 ;		IF 8(AP) = 0 THEN ALL ALLOCATED TERMINALS
                                     0000    74 ;		OTHERWISE IT IS ASSUMED THAT 8(AP) IS THE ADDRESS
                                     0000    75 ;		OF A STRING DESC. WHICH HAS THE LOGICAL NAME OF THE TARGET
                                     0000    76 ;		TERMINAL DEVICE.
                                     0000    77 ;
                                     0000    78 ;		IF THE STRING DESCRIBES A ZERO LENGTH STRING THEN ALL
                                     0000    79 ;		TERMINALS ARE THE TARGET.
                                     0000    80 ;	R4 = CURRENT PROCESS PCB ADDRESS.
                                     0000    81 ;
                                     0000    82 ; OUTPUTS:
                                     0000    83 ;
                                     0000    84 ;	R0 = STATUS OF THE OPERATION
                                     0000    85 ;
                                     0000    86 ; COMPLETION CODES:
                                     0000    87 ;
                                     0000    88 ;	SS$_NORMAL - SUCCESSFUL OPERATION
                                     0000    89 ;	SS$_ACCVIO - MESSAGE ACCESS VIOLATION
                                     0000    90 ;	SS$_EXQUOTA - BUFFERED I/O QUOTA EXCEEDED
                                     0000    91 ;	SS$_INSFMEM - MEMORY ALLOCATION FAILURE WITHOUT RESOURCE WAIT
                                     0000    92 ;	SS$_NOPRIV - CURRENT PROCESS DOES NOT HAVE "PRV$V_DEVCHAR"
                                     0000    93 ;	SS$_DEVOFFLINE - DEVICE NOT AVAILABLE FOR BREAK THROUGH WRITE
                                     0000    94 ;--
                                     0000    95 EXE$BRDCST::				; BROADCAST SYSTEM SERVICE
                               00FC  0000    96 	.WORD	^M<R2,R3,R4,R5,R6,R7>
                                     0002    97 ;
                                     0002    98 ; ADDRESS CHECK SPECIFIED MESSAGE STRING
                                     0002    99 ;
            52         04 AC     D0  0002   100 	MOVL	4(AP),R2		; GET STRING DESCRIPTOR ADDRESS
                          012E   30  0006   101 	BSBW	ADDRCHK			; ADDRESS CHECK MESSAGE
            57            52     D0  0009   102 	MOVL	R2,R7			; SAVE ADDRESS OF THE MESSAGE DESC.
                                     000C   103 ;
                                     000C   104 ; ADDRESS CHECK TARGET TERMINAL DESC.
                                     000C   105 ;
            52         08 AC     D0  000C   106 	MOVL	8(AP),R2		; GET DESC ADDRESS
                          03     13  0010   107 	BEQL	20$			; IF EQL THEN ALL ALLOCATED TERMS
                          0122   30  0012   108 	BSBW	ADDRCHK			; ADDRESS CHECK THE TARGET TERMINAL DESC.
SYSBRDCST       - TERMINAL BROADCAST SYSTEM SERVICE              21-AUG-1978 20:20:20   VAX-11 MACRO X0.3-11               Page   3
X05             BROADCAST SYSTEM SERVICE                                                                                         (2)

            56            52     D0  0015   109 20$:	MOVL	R2,R6			; SAVE ADDRESS OF DESC.
                                     0018   110 ;
                                     0018   111 ; CHECK PROCESS BUFFERED I/O QUOTA
                                     0018   112 ;
            50            67     9A  0018   113 	MOVZBL	(R7),R0			; GET BUFFER SIZE
            50            1C     C1  001B   114 	ADDL3	#TTY$L_BD_DATA+4,R0,R1; ADJUST MESSAGE SIZE FOR HEADER AND DATA
                          51         001E
            51            28     B1  001F   115 	CMPW	#TTY$L_BD_MIN,R1	; MINIMUM MESSSAGE?
                          03     1B  0022   116 	BLEQU	22$			; IF LEQU THEN OK
            51            28     9A  0024   117 	MOVZBL	#TTY$L_BD_MIN,R1	; ALLOCATE THE MINIMUM MESSAGE
                          FFD6'  30  0027   118 22$:	BSBW	EXE$BUFFRQUOTA		; CHECK QUOTA
            06            50     E9  002A   119 	BLBC	R0,23$			;
                                     002D   120 ;
                                     002D   121 ; ALLOCATE THE BLOCK
                                     002D   122 ;
                          FFD0'  30  002D   123 	BSBW	EXE$ALLOCBUF		; ALLOCATE BUFFER
            04            50     E8  0030   124 	BLBS	R0,25$			; BR IF NO FAILURE
                                     0033   125 23$:	SETIPL	#0			; RETURN
            12            00     DA  0033       		MTPR	#0,S^#PR$_IPL
                                 04  0036   126 	RET				;
                          14     BB  0037   127 25$:	PUSHR	#^M<R2,R4>		; SAVE BLOCK ADDRESS AND PCB
                                     0039   128 ;
                                     0039   129 ; ADJUST THE QUOTA
                                     0039   130 ;
                                     0039   131 ; NO QUOTA ADJUST IS NEEDED SINCE IPL = IPL$_ASTDEL
                                     0039   132 ;
                                     0039   133 ; SET UP MESSAGE HEADER
                                     0039   134 ;
                          82     7C  0039   135 	CLRQ	(R2)+			; ZERO LINKS
            82            51     B0  003B   136 	MOVW	R1,(R2)+		; INSERT BLOCK SIZE
            82            1A     B0  003E   137 	MOVW	#DYN$C_BRDCST,(R2)+	; INSERT TYPE
                          82     7C  0041   138 	CLRQ	(R2)+			; SET UP UCB MATCH DATA AND FORK BLOCK
                          82     94  0043   139 	CLRB	(R2)+			;
            62            67     90  0045   140 	MOVB	(R7),(R2)		; INSERT DATA SIZE
            82            04     80  0048   141 	ADDB	#4,(R2)+		; ADJUST FOR CARRIAGE CONTROL
            82            01     90  004B   142 	MOVB	#1,(R2)+		; START REF COUNT AT 1
            82            06     90  004E   143 	MOVB	#IPL$_QUEUEAST,(R2)+	; INSERT FORK IPL
                                     0051   144 ;
                                     0051   145 ; INSERT INITIAL CARRIAGE CONTROL
                                     0051   146 ;
            82       0A0D 8F     B0  0051   147 	MOVW	#<13>+<10@8>,(R2)+	; INSERT INITIAL CR-LF
                                     0056   148 ;
                                     0056   149 ; COPY MESSAGE TO SYSTEM SPACE
                                     0056   150 ;
            50            67     9A  0056   151 	MOVZBL	(R7),R0			; GET SIZE OF DATA
         04 B7            50     28  0059   152 	MOVC3	R0,@4(R7),(R2)		; COPY STRING
                          62         005D
            63       0A0D 8F     B0  005E   153 	MOVW	#<13>+<10@8>,(R3)	; INSERT CR LF
                                     0063   154 ;
                                     0063   155 ; LOCK THE I/O DATA BASE
                                     0063   156 ;
            57            8E     D0  0063   157 	MOVL	(SP)+,R7		; GET BLOCK ADDRESS
            54            6E     D0  0066   158 	MOVL	(SP),R4			; RESTORE PCB ADDRESS
                          FF94'  30  0069   159 	BSBW	SCH$IOLOCKW		; LOCK I/O DATABASE FOR WRITE ACCESS
                                     006C   160 ;
                                     006C   161 ; SEPARATE SINGLE DEVICE SEARCH FROM MULTIPLE DEVICE
                                     006C   162 ;
SYSBRDCST       - TERMINAL BROADCAST SYSTEM SERVICE              21-AUG-1978 20:20:20   VAX-11 MACRO X0.3-11               Page   4
X05             BROADCAST SYSTEM SERVICE                                                                                         (2)

                          56     D5  006C   163 	TSTL	R6			; ANY DESC?
                          53     13  006E   164 	BEQL	50$			; IF EQL THEN MULTIPLE
                          66     95  0070   165 	TSTB	(R6)			; ZERO DESC?
                          4F     13  0072   166 	BEQL	50$			; IF EQL THEN MULTIPLE
            7E         04 A6     D0  0074   167 	MOVL	4(R6),-(SP)		; GET ADDRESS
            7E            66     9A  0078   168 	MOVZBL	(R6),-(SP)		;
            51            5E     D0  007B   169 	MOVL	SP,R1			; ADDRESS DESC
                          FF7F'  30  007E   170 	BSBW	IOC$SEARCHDEV		; FIND THE UCB AFTER LOGICAL NAME SEARCH
            5E            08     C0  0081   171 	ADDL	#8,SP			; REMOVE ARG DESC
            31            50     E9  0084   172 	BLBC	R0,45$			; BR IF ERROR
            55            51     D0  0087   173 	MOVL	R1,R5			; COPY UCB ADDRESS
         10 A7            55     D0  008A   174 	MOVL	R5,TTY$L_BD_UCB(R7)	; INSERT IN UCB FOR MATCH
            50       0000'8F     3C  008E   175 	MOVZWL	#SS$_NOPRIV,R0		; ASSUME NO PRIV
         28 A5         60 A4     D1  0093   176 	CMPL	PCB$L_PID(R4),UCB$L_PID(R5); OWNER?
                          05     13  0098   177 	BEQL	30$			; IF EQL THEN OPERATION ALLOWED
                                     009A   178 	IFNPRIV	OPER,45$		; IF NOT PRIVLEGED USER THEN NO ACCESS
         64 B4            12     E1  009A       		BBC	#PRV$V_OPER,@PCB$L_PHD(R4),45$
                          19         009E
            50       0000'8F     3C  009F   179 30$:	MOVZWL	#SS$_DEVOFFLINE,R0	; SET DEVICE NOT AVAILABLE
         34 A5            02     E1  00A4   180 	BBC	#DEV$V_TRM,UCB$L_DEVCHAR(R5),45$; TERMINAL?
                          0F         00A8
         58 A5            04     E1  00A9   181 	BBC	#UCB$V_ONLINE,UCB$W_STS(R5),45$; ONLINE?
                          0A         00AD
       0004'DF            67     0E  00AE   182 	INSQUE	(R7),@W^IOC$GQ_BRDCST+4
                          FF4A'  30  00B3   183 	BSBW	TTY$BEG_BRDCST		;
                          52     11  00B6   184 	BRB	90$			; CONTINUE
                                     00B8   185 ;
                                     00B8   186 ; ERROR IN PROCESSING AFTER MUTEX LOCK
                                     00B8   187 ;
                          54   8ED0  00B8   188 45$:	POPL	R4			; RESTORE PCB ADDRESS
                          50     DD  00BB   189 	PUSHL	R0			;
                          FF40'  30  00BD   190 	BSBW	SCH$IOUNLOCK		; UNLOCK THE MUTEX
                          0067   31  00C0   191 	BRW	110$			; CONTINUE
                                     00C3   192 ;
                                     00C3   193 ; MULTIPLE BROADCAST
                                     00C3   194 ;
                                     00C3   195 50$:
            50       0000'8F     3C  00C3   196 	MOVZWL	#SS$_NOPRIV,R0		; SET NO PRIV FOR OPERATION
                                     00C8   197 	IFNPRIV	OPER,45$		; BR IF NOT PRIV USER
         64 B4            12     E1  00C8       		BBC	#PRV$V_OPER,@PCB$L_PHD(R4),45$
                          EB         00CC
                       14 A7     96  00CD   198 	INCB	TTY$B_BD_WHO(R7)	; SET IN USE TERMINALS
                          56     D5  00D0   199 	TSTL	R6			; ALL?
                          03     12  00D2   200 	BNEQ	53$			; IF NEQ THEN NO
                       14 A7     96  00D4   201 	INCB	TTY$B_BD_WHO(R7)
       0004'DF            67     0E  00D7   202 53$:	INSQUE	(R7),@W^IOC$GQ_BRDCST+4;
            56   00000000'EF     9E  00DC   203 	MOVAB	IOC$GL_DEVLIST-DDB$L_LINK,R6; ADDRESS DEVICE LIST
            56            66     D0  00E3   204 55$:	MOVL	DDB$L_LINK(R6),R6	; LINK TO DDB
                          1E     13  00E6   205 	BEQL	85$			; IF EQL THEN DONE
            55         D8 A6     DE  00E8   206 	MOVAL	DDB$L_UCB-UCB$L_LINK(R6),R5; GET FIRST UCB ADDRESS LIST
            55         2C A5     D0  00EC   207 60$:	MOVL	UCB$L_LINK(R5),R5	; LINK TO UCB
                          F1     13  00F0   208 	BEQL	55$			; IF EQL THEN TRY NEXT DDB
            50       0000'8F     3C  00F2   209 	MOVZWL	#SS$_DEVOFFLINE,R0	; SET DEVICE NOT AVAILABLE
         34 A5            02     E1  00F7   210 	BBC	#DEV$V_TRM,UCB$L_DEVCHAR(R5),55$; TERMINAL?
                          E7         00FB
         58 A5            04     E1  00FC   211 	BBC	#UCB$V_ONLINE,UCB$W_STS(R5),60$; ONLINE?
                          EB         0100
SYSBRDCST       - TERMINAL BROADCAST SYSTEM SERVICE              21-AUG-1978 20:20:20   VAX-11 MACRO X0.3-11               Page   5
X05             BROADCAST SYSTEM SERVICE                                                                                         (2)

                          FEFC'  30  0101   212 	BSBW	TTY$BEG_BRDCST		;
                          E6     11  0104   213 	BRB	60$			; AND CONTINUE
                                     0106   214 ;
                                     0106   215 ; END OF MULTIPLE SEARCH
                                     0106   216 ;
            50         00'8F     9A  0106   217 85$:	MOVZBL	#SS$_NORMAL,R0		;
                       16 A7     97  010A   218 90$:	DECB	TTY$B_BD_REFC(R7)	; ADJUST REF COUNT
                          54   8ED0  010D   219 	POPL	R4			; RESTORE PCB ADDRESS
                          50     DD  0110   220 	PUSHL	R0			; SAVE STATUS
                          FEEB'  30  0112   221 	BSBW	SCH$IOUNLOCK		; UNLOCK DATA BASE
                       16 A7     95  0115   222 95$:	TSTB	TTY$B_BD_REFC(R7)	; WAIT NEEDED?
                          0D     13  0118   223 	BEQL	100$			; IF EQL THEN DONE OR ERROR
                                     011A   224 ;
                                     011A   225 ; SET PROCESS INTO RESOURCE WAIT
                                     011A   226 ;
                          7E     DC  011A   227 	MOVPSL	-(SP)			; PUT PSL ON STACK
                                     011C   228 	SETIPL	#IPL$_SYNCH		; RAISE TO INTERLOCK
            12            07     DA  011C       		MTPR	#IPL$_SYNCH,S^#PR$_IPL
            50            06     D0  011F   229 	MOVL	#RSN$_BRKTHRU,R0	; GET RESOURCE NUMBER
                          FEDB'  30  0122   230 	BSBW	SCH$RWAIT		; WAIT ON THE RESOURCE
                          EE     11  0125   231 	BRB	95$			; SEE IF RESOURCE IS ACTUALLY AVAIL.
            57            67     0F  0127   232 100$:	REMQUE	(R7),R7			; REMOVE BLOCK FROM LIST
            50            57     D0  012A   233 110$:	MOVL	R7,R0			; GET ADDRESS OF BLOCK
                          FED0'  30  012D   234 	BSBW	EXE$DEANONPAGED		; DEALLOCATE THE BLOCK
                          50   8ED0  0130   235 	POPL	R0			; RESTORE STATUS
                                     0133   236 	SETIPL	#0
            12            00     DA  0133       		MTPR	#0,S^#PR$_IPL
                                 04  0136   237 	RET				; CONTINUE
SYSBRDCST       - TERMINAL BROADCAST SYSTEM SERVICE              21-AUG-1978 20:20:20   VAX-11 MACRO X0.3-11               Page   6
X05             BROADCAST SYSTEM SERVICE                                                                                         (4)

                                     0137   240 ;
                                     0137   241 ; SUBROUTINE TO ADDRESS CHECK A DESCRIPTER AND THE OBJECT IT DESCRIBES
                                     0137   242 ;
                                     0137   243 ADDRCHK:				;
                                     0137   244 	IFNORD	#8,(R2),15$		; BR IF NO ACCESS TO DESCRIPTOR
            08            00     0C  0137       		PROBER	#0,#8,(R2)
                          62         013A
                          14     13  013B       		BEQL	15$
                                     013D   245 ;
                                     013D   246 ; VERIFY THE SIZE
                                     013D   247 ;
            50       0000'8F     3C  013D   248 	MOVZWL	#SS$_BADPARAM,R0	; ASSUME CHECK FAILURE
       00FA 8F            62     B1  0142   249 	CMPW	(R2),#250		; MAXIMUM MESSAGE?
                          0D     1A  0147   250 	BGTRU	20$			; RETURN ERROR IF TOO MESSAGE TOO LARGE
                                     0149   251 ;
                                     0149   252 ; ADDRESS CHECK THE DISC
                                     0149   253 ;
                                     0149   254 10$:	IFNORD	(R2),@4(R2),15$		; BR IF ACCESS FAILURE
            62            00     0C  0149       		PROBER	#0,(R2),@4(R2)
                       04 B2         014C
                          01     13  014E       		BEQL	15$
                                 05  0150   255 	RSB				; RETURN
            50       0000'8F     3C  0151   256 15$:	MOVZWL	#SS$_ACCVIO,R0		; SET ACCESS VIOLATION
                                     0156   257 20$:
                                 04  0156   258 	RET				; RETURN
                                     0157   259 ;
                                     0157   260 	.END
SYSBRDCST       - TERMINAL BROADCAST SYSTEM SERVICE              21-AUG-1978 20:20:20   VAX-11 MACRO X0.3-11               Page   7
SYMBOL TABLE                                                                                                                     (4)

ADDRCHK          00000137 R     03   DEV$V_SHR      = 00000010            IPL$_QUEUEAST  = 00000006
BIT...         = 00000000            DEV$V_SPL      = 00000006            IPL$_SCHED     = 00000003
DDB$B_ACPCLASS   00000013            DEV$V_SQD      = 00000005            IPL$_SYNCH     = 00000007
DDB$B_TYPE       0000000A            DEV$V_SWL      = 00000019            IPL$_TIMER     = 00000007
DDB$C_LENGTH     00000034            DEV$V_TRM      = 00000002            PCB$B_ASTACT     0000000C
DDB$K_LENGTH     00000034            DEV$V_WCK      = 0000001F            PCB$B_ASTEN      0000000D
DDB$L_ACPD       00000010            DYN$C_ACB      = 00000002            PCB$B_PRI        0000000B
DDB$L_DDT        0000000C            DYN$C_ADP      = 00000001            PCB$B_PRIB       00000033
DDB$L_LINK       00000000            DYN$C_AQB      = 00000003            PCB$B_TYPE       0000000A
DDB$L_UCB        00000004            DYN$C_BRDCST   = 0000001A            PCB$B_WEFC       00000032
DDB$T_DRVNAME    00000024            DYN$C_BUFIO    = 00000013            PCB$C_LENGTH     0000007C
DDB$T_NAME       00000014            DYN$C_CEB      = 00000004            PCB$K_LENGTH     0000007C
DDB$W_SIZE       00000008            DYN$C_CRB      = 00000005            PCB$L_ASTQBL     00000014
DEV$M_ALL      = 00800000            DYN$C_CXB      = 0000001B            PCB$L_ASTQFL     00000010
DEV$M_AVL      = 00040000            DYN$C_DDB      = 00000006            PCB$L_EFC2P      00000058
DEV$M_CCL      = 00000002            DYN$C_DPT      = 0000001E            PCB$L_EFC3P      0000005C
DEV$M_DIR      = 00000008            DYN$C_FCB      = 00000007            PCB$L_EFCS       00000050
DEV$M_DMT      = 00200000            DYN$C_FRK      = 00000008            PCB$L_EFCU       00000054
DEV$M_ELG      = 00400000            DYN$C_GSD      = 00000015            PCB$L_EFWM       0000004C
DEV$M_FOD      = 00004000            DYN$C_IDB      = 00000009            PCB$L_OWNER      0000001C
DEV$M_FOR      = 01000000            DYN$C_IRP      = 0000000A            PCB$L_PHD        00000064
DEV$M_GEN      = 00020000            DYN$C_JPB      = 0000001F            PCB$L_PHYPCB     00000018
DEV$M_IDV      = 04000000            DYN$C_KFH      = 00000026            PCB$L_PID        00000060
DEV$M_MBX      = 00100000            DYN$C_KFI      = 00000018            PCB$L_PQB        0000004C
DEV$M_MNT      = 00080000            DYN$C_LOG      = 0000000B            PCB$L_SQBL       00000004
DEV$M_NET      = 00002000            DYN$C_MTL      = 00000019            PCB$L_SQFL       00000000
DEV$M_ODV      = 08000000            DYN$C_MVL      = 00000016            PCB$L_STS        00000028
DEV$M_RCK      = 40000000            DYN$C_NDB      = 0000001C            PCB$L_UIC        00000020
DEV$M_REC      = 00000001            DYN$C_NET      = 00000017            PCB$L_WSSWP      00000024
DEV$M_RND      = 10000000            DYN$C_PBH      = 00000020            PCB$L_WTIME      0000002C
DEV$M_RTM      = 20000000            DYN$C_PCB      = 0000000C            PCB$T_LNAME      0000006C
DEV$M_SDI      = 00000010            DYN$C_PDB      = 00000021            PCB$V_ASTPEN   = 00000011
DEV$M_SHR      = 00010000            DYN$C_PFL      = 00000023            PCB$V_BATCH    = 0000000E
DEV$M_SPL      = 00000040            DYN$C_PIB      = 00000022            PCB$V_DELPEN   = 00000001
DEV$M_SQD      = 00000020            DYN$C_PQB      = 0000000D            PCB$V_FORCPEN  = 00000002
DEV$M_SWL      = 02000000            DYN$C_PTR      = 00000025            PCB$V_HIBER    = 00000013
DEV$M_TRM      = 00000004            DYN$C_RVT      = 0000000E            PCB$V_INQUAN   = 00000003
DEV$M_WCK      = 80000000            DYN$C_SFT      = 00000024            PCB$V_LOGIN    = 00000014
DEV$V_ALL      = 00000017            DYN$C_SSB      = 0000001D            PCB$V_NETWRK   = 00000015
DEV$V_AVL      = 00000012            DYN$C_TQE      = 0000000F            PCB$V_NOACNT   = 0000000F
DEV$V_CCL      = 00000001            DYN$C_TYPAHD   = 00000014            PCB$V_NODELET  = 00000017
DEV$V_DIR      = 00000003            DYN$C_UCB      = 00000010            PCB$V_PHDRES   = 00000012
DEV$V_DMT      = 00000015            DYN$C_VCB      = 00000011            PCB$V_PSWAPM   = 00000004
DEV$V_ELG      = 00000016            DYN$C_WCB      = 00000012            PCB$V_PWRAST   = 00000016
DEV$V_FOD      = 0000000E            EXE$ALLOCBUF     ********   X   03   PCB$V_RES      = 00000000
DEV$V_FOR      = 00000018            EXE$BRDCST       00000000 RG    03   PCB$V_RESPEN   = 00000005
DEV$V_GEN      = 00000011            EXE$BUFFRQUOTA   ********   X   03   PCB$V_SSFEXC   = 00000006
DEV$V_IDV      = 0000001A            EXE$DEANONPAGED  ********   X   03   PCB$V_SSFEXCE  = 00000007
DEV$V_MBX      = 00000014            GBL...         = 00000000            PCB$V_SSFEXCS  = 00000008
DEV$V_MNT      = 00000013            IOC$GL_DEVLIST   ********   X   03   PCB$V_SSFEXCU  = 00000009
DEV$V_NET      = 0000000D            IOC$GQ_BRDCST    ********   X   03   PCB$V_SSRWAIT  = 0000000A
DEV$V_ODV      = 0000001B            IOC$SEARCHDEV    ********   X   03   PCB$V_SUSPEN   = 0000000B
DEV$V_RCK      = 0000001E            IPL$_ASTDEL    = 00000002            PCB$V_SWPVBN   = 00000010
DEV$V_REC      = 00000000            IPL$_HWCLK     = 00000018            PCB$V_WAKEPEN  = 0000000C
DEV$V_RND      = 0000001C            IPL$_IOPOST    = 00000004            PCB$V_WALL     = 0000000D
DEV$V_RTM      = 0000001D            IPL$_MAILBOX   = 0000000B            PCB$W_APTCNT     00000034
DEV$V_SDI      = 00000004            IPL$_POWER     = 0000001F            PCB$W_ASTCNT     0000003C
SYSBRDCST       - TERMINAL BROADCAST SYSTEM SERVICE              21-AUG-1978 20:20:20   VAX-11 MACRO X0.3-11               Page   8
SYMBOL TABLE                                                                                                                     (4)

PCB$W_BIOCNT     0000003E            PR$_WCSD       = 0000002D            TTY$C_CTRLS    = 00000013
PCB$W_BIOLM      00000040            PRV$V_ALLSPOOL = 00000004            TTY$C_CTRLU    = 00000015
PCB$W_BYTCNT     00000042            PRV$V_BUGCHK   = 00000017            TTY$C_CTRLX    = 00000018
PCB$W_BYTLM      00000068            PRV$V_CMEXEC   = 00000001            TTY$C_CTRLY    = 00000019
PCB$W_DIOCNT     00000044            PRV$V_CMKRNL   = 00000000            TTY$C_CTRLZ    = 0000001A
PCB$W_DIOLM      00000046            PRV$V_DETACH   = 00000005            TTY$C_DELETE   = 0000007F
PCB$W_FILCNT     00000048            PRV$V_DIAGNOSE = 00000006            TTY$C_DOLLAR   = 00000024
PCB$W_GPGCNT     00000038            PRV$V_EXQUOTA  = 00000013            TTY$C_DS_ACTIVE= 00000001
PCB$W_GRP        00000022            PRV$V_GROUP    = 00000008            TTY$C_DS_ATTN1 = 00000002
PCB$W_MEM        00000020            PRV$V_GRPNAM   = 00000003            TTY$C_DS_ATTN3 = 00000009
PCB$W_MTXCNT     0000000E            PRV$V_LOG_IO   = 00000007            TTY$C_DS_HANG  = 0000000A
PCB$W_PPGCNT     0000003A            PRV$V_MOUNT    = 00000011            TTY$C_DS_IDLE  = 00000000
PCB$W_PRCCNT     0000006A            PRV$V_NETMBX   = 00000014            TTY$C_DS_RESET = 0000000B
PCB$W_SIZE       00000008            PRV$V_NOACNT   = 00000009            TTY$C_ESCAPE   = 0000001B
PCB$W_STATE      00000030            PRV$V_OPER     = 00000012            TTY$C_FC_N_SET = 00000004
PCB$W_TMBU       00000036            PRV$V_PHY_IO   = 00000016            TTY$C_FC_READ  = 00000000
PCB$W_TQCNT      0000004A            PRV$V_PRMCEB   = 0000000A            TTY$C_FC_SETC  = 00000003
PR$_ACCR       = 00000029            PRV$V_PRMGBL   = 00000018            TTY$C_FC_SETM  = 00000002
PR$_ACCS       = 00000028            PRV$V_PRMMBX   = 0000000B            TTY$C_FC_WRITE = 00000001
PR$_ASTLVL     = 00000013            PRV$V_PSWAPM   = 0000000C            TTY$C_FF       = 0000000C
PR$_ESP        = 00000001            PRV$V_SETPRI   = 0000000D            TTY$C_HIGHIPL  = 00000016
PR$_ICCS       = 00000018            PRV$V_SETPRV   = 0000000E            TTY$C_LF       = 0000000A
PR$_ICR        = 0000001A            PRV$V_SYSGBL   = 00000019            TTY$C_LOWA     = 00000061
PR$_IPL        = 00000012            PRV$V_SYSNAM   = 00000002            TTY$C_LOWZ     = 0000007B
PR$_ISP        = 00000004            PRV$V_TMPMBX   = 0000000F            TTY$C_NL       = 00000080
PR$_KSP        = 00000000            PRV$V_VOLPRO   = 00000015            TTY$C_ONE      = 00000031
PR$_MAPEN      = 00000038            PRV$V_WORLD    = 00000010            TTY$C_PLUS     = 0000002B
PR$_NICR       = 00000019            RSN$_ASTWAIT   = 00000001            TTY$C_SCRIPT   = 00000060
PR$_P0BR       = 00000008            RSN$_BRKTHRU   = 00000006            TTY$C_TAB      = 00000009
PR$_P0LR       = 00000009            RSN$_IACLOCK   = 00000007            TTY$C_TYPAHDSIZ= 0000004E
PR$_P1BR       = 0000000A            RSN$_MAILBOX   = 00000002            TTY$C_VT       = 0000000B
PR$_P1LR       = 0000000B            RSN$_NPDYNMEM  = 00000003            TTY$C_XOFF     = 00000013
PR$_PCBB       = 00000010            RSN$_PGDYNMEM  = 00000005            TTY$C_XON      = 00000011
PR$_PME        = 0000003D            RSN$_PGFILE    = 00000004            TTY$C_ZERO     = 00000030
PR$_RXCS       = 00000020            SCH$IOLOCKW      ********   X   03   TTY$L_BD_DATA    00000018
PR$_RXDB       = 00000021            SCH$IOUNLOCK     ********   X   03   TTY$L_BD_FORK    0000000C
PR$_SBIER      = 00000034            SCH$RWAIT        ********   X   03   TTY$L_BD_MIN     00000028
PR$_SBIFS      = 00000030            SS$_ACCVIO       ********   X   03   TTY$L_BD_UCB     00000010
PR$_SBIMT      = 00000033            SS$_BADPARAM     ********   X   03   TTY$L_RB_DATA    00000010
PR$_SBIQC      = 00000036            SS$_DEVOFFLINE   ********   X   03   TTY$L_RB_NXT     00000000
PR$_SBIS       = 00000031            SS$_NOPRIV       ********   X   03   TTY$L_RB_UVA     00000004
PR$_SBISC      = 00000032            SS$_NORMAL       ********   X   03   TTY$L_TA_DATA    00000010
PR$_SBITA      = 00000035            TTY$BEG_BRDCST   ********   X   03   TTY$L_TA_END     0000000C
PR$_SBR        = 0000000C            TTY$B_BD_CNT     00000015            TTY$L_TA_GET     00000004
PR$_SCBB       = 00000011            TTY$B_BD_IPL     00000017            TTY$L_TA_PUT     00000000
PR$_SID        = 0000003E            TTY$B_BD_REFC    00000016            TTY$L_WB_DATA    0000000C
PR$_SIRR       = 00000014            TTY$B_BD_TYPE    0000000A            TTY$L_WB_END     00000004
PR$_SISR       = 00000015            TTY$B_BD_WHO     00000014            TTY$L_WB_NXT     00000000
PR$_SLR        = 0000000D            TTY$B_TA_TYPE    0000000A            TTY$M_A        = 00003FFF
PR$_SSP        = 00000002            TTY$C_BELL     = 00000007            TTY$M_CH_CTRL  = 00000020
PR$_TBIA       = 00000039            TTY$C_BLANK    = 00000020            TTY$M_CH_CTRL2 = 00000080
PR$_TBIS       = 0000003A            TTY$C_BS       = 00000008            TTY$M_CH_LOWER = 00000040
PR$_TODR       = 0000001B            TTY$C_CR       = 0000000D            TTY$M_CH_SPEC  = 00000010
PR$_TXCS       = 00000022            TTY$C_CTRLC    = 00000003            TTY$M_ST_BADESC= 00100000
PR$_TXDB       = 00000023            TTY$C_CTRLO    = 0000000F            TTY$M_ST_BRDCST= 00000080
PR$_USP        = 00000003            TTY$C_CTRLQ    = 00000011            TTY$M_ST_CTRLO = 00001000
PR$_WCSA       = 0000002C            TTY$C_CTRLR    = 00000012            TTY$M_ST_CTRLR = 00000400
SYSBRDCST       - TERMINAL BROADCAST SYSTEM SERVICE              21-AUG-1978 20:20:20   VAX-11 MACRO X0.3-11               Page   9
SYMBOL TABLE                                                                                                                     (4)

TTY$M_ST_CTRLS = 00000004            TTY$W_BD_SIZE    00000008            UCB$L_LOGADR     00000064
TTY$M_ST_CURSOR= 00000010            TTY$W_RB_ORGHOR  0000000C            UCB$L_MAXBLOCK   00000084
TTY$M_ST_DEL   = 00002000            TTY$W_RB_SIZE    00000008            UCB$L_MEDIA      0000008C
TTY$M_ST_EOL   = 00000200            TTY$W_RB_TIMOS   0000000E            UCB$L_NT_DATSSB  00000074
TTY$M_ST_ESC   = 00080000            TTY$W_TA_SIZE    00000008            UCB$L_NT_INTSSB  00000078
TTY$M_ST_ESC_O = 04000000            TTY$W_WB_SIZE    00000008            UCB$L_OPCNT      00000060
TTY$M_ST_FILL  = 00000008            UCB$B_AMOD       00000053            UCB$L_OWNUIC     0000001C
TTY$M_ST_GETAHD= 01000000            UCB$B_CEX        00000077            UCB$L_PID        00000028
TTY$M_ST_MULTI = 00000040            UCB$B_CM1        0000004A            UCB$L_RQBL       00000004
TTY$M_ST_NL    = 00200000            UCB$B_CM2        0000004B            UCB$L_RQFL       00000000
TTY$M_ST_NOECHO= 00008000            UCB$B_DEVCLASS   00000038            UCB$L_SVAPTE     00000068
TTY$M_ST_NOFLTR= 00040000            UCB$B_DEVTYPE    00000039            UCB$L_SVPN       00000064
TTY$M_ST_PASALL= 00004000            UCB$B_DIPL       00000052            UCB$L_TTCHAR     0000003C
TTY$M_ST_PROMPT= 00020000            UCB$B_DX_SCTCNT  000000A6            UCB$L_VCB        00000030
TTY$M_ST_READ  = 00000800            UCB$B_ERTCNT     00000070            UCB$M_BACKP    = 00000020
TTY$M_ST_SENDLF= 00000020            UCB$B_ERTMAX     00000071            UCB$M_BSY      = 00000100
TTY$M_ST_SKIPLF= 00800000            UCB$B_ESCAPE     0000004B            UCB$M_CANCEL   = 00000008
TTY$M_ST_TYPFUL= 00400000            UCB$B_FEX        00000076            UCB$M_DEADMO   = 00000400
TTY$M_ST_UNSOL = 02000000            UCB$B_FIPL       0000000B            UCB$M_DELMBX   = 00000002
TTY$M_ST_WRITE = 00000100            UCB$B_LOCSRV     0000003C            UCB$M_DIAGBUF  = 00000002
TTY$M_ST_WRTALL= 00010000            UCB$B_OFFNDX     00000094            UCB$M_DX_WRITE = 00000008
TTY$M_ST_XOFF  = 00000002            UCB$B_OFFRTC     00000095            UCB$M_ECC      = 00000001
TTY$M_ST_XON   = 00000001            UCB$B_REMSRV     0000003D            UCB$M_ERLOGIP  = 00000004
TTY$Q_BD_LINK    00000000            UCB$B_SECTORS    0000003C            UCB$M_INT      = 00000002
TTY$S_A        = 0000000E            UCB$B_SLAVE      00000074            UCB$M_INTTYPE  = 00000080
TTY$V_A        = 00000000            UCB$B_SPR        00000075            UCB$M_JOB      = 00000001
TTY$V_CH_CTRL  = 00000005            UCB$B_STATE      00000052            UCB$M_MOUNTING = 00000200
TTY$V_CH_CTRL2 = 00000007            UCB$B_TRACKS     0000003D            UCB$M_NOCNVRT  = 00000004
TTY$V_CH_LOWER = 00000006            UCB$B_TYPE       0000000A            UCB$M_NT_BFROVF= 00000004
TTY$V_CH_SPEC  = 00000004            UCB$B_VERTSZ     0000003F            UCB$M_NT_BREAK = 00000020
TTY$V_ST_BADESC= 00000014            UCB$C_LENGTH     00000074            UCB$M_NT_NAME  = 00000010
TTY$V_ST_BRDCST= 00000007            UCB$C_LOGLNK   = 00000001            UCB$M_ONLINE   = 00000010
TTY$V_ST_CTRLO = 0000000C            UCB$K_LENGTH     00000074            UCB$M_POWER    = 00000020
TTY$V_ST_CTRLR = 0000000A            UCB$L_AMB        00000054            UCB$M_PRMMBX   = 00000001
TTY$V_ST_CTRLS = 00000002            UCB$L_ASTQBL     00000010            UCB$M_TIM      = 00000001
TTY$V_ST_CURSOR= 00000004            UCB$L_ASTQFL     0000000C            UCB$M_TIMOUT   = 00000040
TTY$V_ST_DEL   = 0000000D            UCB$L_CPID       0000005C            UCB$M_TT_NOTIF = 00000004
TTY$V_ST_EOL   = 00000009            UCB$L_CRB        00000020            UCB$M_TT_TIMO  = 00000002
TTY$V_ST_ESC   = 00000013            UCB$L_DDB        00000024            UCB$M_UNLOAD   = 00001000
TTY$V_ST_ESC_O = 0000001A            UCB$L_DEVCHAR    00000034            UCB$M_VALID    = 00000800
TTY$V_ST_FILL  = 00000003            UCB$L_DEVDEPEND  0000003C            UCB$S_LNKPRI   = 00000002
TTY$V_ST_GETAHD= 00000018            UCB$L_DPC        00000080            UCB$S_LTYPE    = 00000002
TTY$V_ST_MULTI = 00000006            UCB$L_DUETIM     0000005C            UCB$T_PARTNER    0000000C
TTY$V_ST_NL    = 00000015            UCB$L_DX_BFPNT   0000009C            UCB$V_BACKP    = 00000005
TTY$V_ST_NOECHO= 0000000F            UCB$L_DX_BUF     00000098            UCB$V_BSY      = 00000008
TTY$V_ST_NOFLTR= 00000012            UCB$L_DX_RXDB    000000A0            UCB$V_CANCEL   = 00000003
TTY$V_ST_PASALL= 0000000E            UCB$L_EMB        00000078            UCB$V_DEADMO   = 0000000A
TTY$V_ST_PROMPT= 00000011            UCB$L_FIRST      00000014            UCB$V_DELMBX   = 00000001
TTY$V_ST_READ  = 0000000B            UCB$L_FPC        0000000C            UCB$V_DIAGBUF  = 00000001
TTY$V_ST_SENDLF= 00000005            UCB$L_FQBL       00000004            UCB$V_DX_WRITE = 00000003
TTY$V_ST_SKIPLF= 00000017            UCB$L_FQFL       00000000            UCB$V_ECC      = 00000000
TTY$V_ST_TYPFUL= 00000016            UCB$L_FR3        00000010            UCB$V_ERLOGIP  = 00000002
TTY$V_ST_UNSOL = 00000019            UCB$L_FR4        00000014            UCB$V_INT      = 00000001
TTY$V_ST_WRITE = 00000008            UCB$L_IOQBL      00000044            UCB$V_INTTYPE  = 00000007
TTY$V_ST_WRTALL= 00000010            UCB$L_IOQFL      00000040            UCB$V_JOB      = 00000000
TTY$V_ST_XOFF  = 00000001            UCB$L_IRP        0000004C            UCB$V_LNKPRI   = 00000006
TTY$V_ST_XON   = 00000000            UCB$L_LINK       0000002C            UCB$V_LTYPE    = 00000000
SYSBRDCST       - TERMINAL BROADCAST SYSTEM SERVICE              21-AUG-1978 20:20:20   VAX-11 MACRO X0.3-11               Page  10
SYMBOL TABLE                                                                                                                     (4)

UCB$V_MOUNTING = 00000009
UCB$V_MSGACK   = 00000004
UCB$V_MSGFLO   = 00000003
UCB$V_NOCNVRT  = 00000002
UCB$V_NT_BFROVF= 00000002
UCB$V_NT_BREAK = 00000005
UCB$V_NT_NAME  = 00000004
UCB$V_ONLINE   = 00000004
UCB$V_POWER    = 00000005
UCB$V_PRMMBX   = 00000000
UCB$V_SEGFLO   = 00000002
UCB$V_TIM      = 00000000
UCB$V_TIMOUT   = 00000006
UCB$V_TT_NOTIF = 00000002
UCB$V_TT_TIMO  = 00000001
UCB$V_UNLOAD   = 0000000C
UCB$V_VALID    = 0000000B
UCB$W_BCNT       0000006E
UCB$W_BCR        00000096
UCB$W_BOFF       0000006C
UCB$W_BUFQUO     00000018
UCB$W_BYTESTOGO  0000003E
UCB$W_CHARGE     0000004A
UCB$W_CYLINDERS  0000003E
UCB$W_DA         0000008C
UCB$W_DC         0000008E
UCB$W_DEVBUFSIZ  0000003A
UCB$W_DEVSTS     0000005A
UCB$W_DIRSEQ     00000088
UCB$W_DSTADDR    00000018
UCB$W_DX_BCR     000000A4
UCB$W_EC1        00000090
UCB$W_EC2        00000092
UCB$W_ERRCNT     00000072
UCB$W_FUNC       0000007E
UCB$W_MB_SEED    FFFFFFFC
UCB$W_MSGCNT     00000016
UCB$W_MSGMAX     00000014
UCB$W_NT_CHAN    0000007C
UCB$W_OFFSET     0000008A
UCB$W_REFC       00000050
UCB$W_SIZE       00000008
UCB$W_SRCADDR    0000001A
UCB$W_STS        00000058
UCB$W_UNIT       00000048
UCB$W_VPROT      0000001A


PROGRAM SECTION SYNOPSIS

.  ABS  .        00000000      00     NOPIC   USR   CON   ABS   LCL NOSHR NOEXE NORD  NOWRT BYTE
. BLANK .        00000000      01     NOPIC   USR   CON   REL   LCL NOSHR   EXE   RD    WRT BYTE
$ABS$            FFFFFFFE      02     NOPIC   USR   CON   ABS   LCL NOSHR   EXE   RD    WRT BYTE
AEXENONPAGED     00000157      03     NOPIC   USR   CON   REL   LCL NOSHR   EXE   RD    WRT BYTE


THERE WERE NO ERRORS OR WARNINGS.
SYSBRDCST       - TERMINAL BROADCAST SYSTEM SERVICE              21-AUG-1978 20:20:20   VAX-11 MACRO X0.3-11               Page  11
PROGRAM SECTION SYNOPSIS                                                                                                         (4)

10484. BYTES LEFT IN FREE MEMORY POOL.
3236. BYTES OF RECLAIMED MEMORY.
OBJ$:SYSBRDCST,LIS$:SYSBRDCST/-SP=EXECML$/ML,SRC$:SYSBRDCST
7 MLB DIR RDS - 843 GETS TO DEFINE 22 MACROS. 67 INTER. FILE WRITES.
