SYSCANEVT       - SYSTEM SERVICES TO CANCEL EVENTS               21-AUG-1978 20:21:50   VAX-11 MACRO X0.3-11               Page   0
TABLE OF CONTENTS

   (1)      54  CANCEL TIMER REQUEST
   (1)      85  CANCEL WAKEUP
SYSCANEVT       - SYSTEM SERVICES TO CANCEL EVENTS               21-AUG-1978 20:21:50   VAX-11 MACRO X0.3-11               Page   1
01                                                                                                                               (1)

                                     0000     1 	.TITLE	SYSCANEVT - SYSTEM SERVICES TO CANCEL EVENTS
                                     0000     2 	.IDENT	/01/
                                     0000     3
                                     0000     4 ;
                                     0000     5 ; COPYRIGHT (C) 1977
                                     0000     6 ; DIGITAL EQUIPMENT CORPORATION, MAYNARD, MASS.
                                     0000     7 ;
                                     0000     8 ; THIS SOFTWARE IS FURNISHED UNDER  A LICENSE FOR USE ONLY  ON  A
                                     0000     9 ; SINGLE COMPUTER SYSTEM AND MAY BE  COPIED ONLY WITH  THE INCLU-
                                     0000    10 ; SION OF  THE  ABOVE  COPYRIGHT NOTICE.  THIS SOFTWARE,  OR  ANY
                                     0000    11 ; OTHER COPIES THEREOF, MAY NOT BE  PROVIDED  OR  OTHERWISE  MADE
                                     0000    12 ; AVAILABLE TO ANY OTHER PERSON EXCEPT  FOR  USE  ON  SUCH SYSTEM
                                     0000    13 ; AND TO  ONE WHO AGREES  TO  THESE LICENSE  TERMS.  TITLE TO AND
                                     0000    14 ; OWNERSHIP OF THE SOFTWARE SHALL AT ALL TIMES REMAIN IN DEC.
                                     0000    15 ;
                                     0000    16 ; THE INFORMATION IN THIS SOFTWARE  IS  SUBJECT TO CHANGE WITHOUT
                                     0000    17 ; NOTICE AND SHOULD NOT BE CONSTRUED  AS  A COMMITMENT BY DIGITAL
                                     0000    18 ; EQUIPMENT CORPORATION.
                                     0000    19 ;
                                     0000    20 ; DEC ASSUMES NO RESPONSIBILITY FOR THE USE OR RELIABILITY OF ITS
                                     0000    21 ; SOFTWARE ON EQUIPMENT WHICH IS NOT SUPPLIED BY DEC.
                                     0000    22 ;
                                     0000    23 ; D. N. CUTLER 4-OCT-76
                                     0000    24 ;
                                     0000    25 ; SYSTEM SERVICES TO CANCEL EVENTS
                                     0000    26 ;
                                     0000    27 ;	CANCEL TIMER
                                     0000    28 ;	CANCEL WAKEUP
                                     0000    29 ;
                                     0000    30 ; MACRO LIBRARY CALLS
                                     0000    31 ;
                                     0000    32
                                     0000    33 	$PCBDEF				;DEFINE PCB OFFSETS
                                     0000    34 	$PRDEF				;DEFINE PROCESS REGISTER NUMBERS
                                     0000    35 	$SSDEF				;DEFINE SYSTEM STATUS VALUES
                                     0000    36 	$TQEDEF				;DEFINE TQE OFFSETS
                                     0000    37
                                     0000    38 ;
                                     0000    39 ; LOCAL SYMBOLS
                                     0000    40 ;
                                     0000    41 ; ARGUMENT LIST OFFSET DEFINITIONS FOR CANCEL TIMER
                                     0000    42 ;
                                     0000    43
                           00000004  0000    44 REQIDT=4				;REQUEST IDENTIFICATION
                           00000008  0000    45 ACMODE=8				;ACCESS MODE
                                     0000    46
                                     0000    47 ;
                                     0000    48 ; ARGUMENT LIST OFFSET DEFINITIONS FOR CANCEL WAKEUP
                                     0000    49 ;
                                     0000    50
                           00000004  0000    51 PIDADR=4				;ADDRESS OF PROCESS IDENTIFICATION
                           00000008  0000    52 LOGNAM=8				;ADDRESS OF PROCESS NAME STRING DESCRIPTOR
SYSCANEVT       - SYSTEM SERVICES TO CANCEL EVENTS               21-AUG-1978 20:21:50   VAX-11 MACRO X0.3-11               Page   2
01              CANCEL TIMER REQUEST                                                                                             (1)

                                     0000    54 	.SBTTL	CANCEL TIMER REQUEST
                                     0000    55 ;+
                                     0000    56 ; EXE$CANTIM - CANCEL TIMER REQUEST
                                     0000    57 ;
                                     0000    58 ; THIS SERVICE PROVIDES THE CAPABILITY TO CANCEL ALL OR A SPECIFIED SUBSET
                                     0000    59 ; OF TIMERS THAT WERE PREVIOUSLY ESTABLISHED.
                                     0000    60 ;
                                     0000    61 ; INPUTS:
                                     0000    62 ;
                                     0000    63 ;	REQIDT(AP) = REQUEST IDENTIFICATION (ZERO IMPLIES ALL).
                                     0000    64 ;	ACMODE(AP) = ACCESS MODE (ALL EQUAL AND HIGHER ACCESS MODES).
                                     0000    65 ;
                                     0000    66 ;	R4 = CURRENT PROCESS PCB ADDRESS.
                                     0000    67 ;
                                     0000    68 ; OUTPUTS:
                                     0000    69 ;
                                     0000    70 ;	R0 LOW BIT SET INDICATES SUCCESSFUL COMPLETION.
                                     0000    71 ;
                                     0000    72 ;		R0 = SS$_NORMAL - NORMAL COMPLETION.
                                     0000    73 ;-
                                     0000    74
                                     0000    75 	.ENABL	LSB
                               003C' 0000    76 	.ENTRY	EXE$CANTIM,^M<R2,R3,R4,R5>
            02            00     EF  0002    77 	EXTZV	#0,#2,ACMODE(AP),R0	;GET SPECIFIED ACCESS MODE
            50         08 AC         0005
                 00000000'EF     16  0008    78 	JSB	EXE$MAXACMODE		;MAXIMIZE ACCESS MODE WITH PREVIOUS MODE
            55         60 A4     D0  000E    79 	MOVL	PCB$L_PID(R4),R5	;SET PROCESS ID
            54            00     9A  0012    80 	MOVZBL	#TQE$C_TMSNGL,R4	;SET TYPE OF ENTRY
            53         04 AC     D0  0015    81 	MOVL	REQIDT(AP),R3		;SET REQUEST IDENTIFICATION
            52            50     D0  0019    82 	MOVL	R0,R2			;SET CANCELLATION ACCESS MODE
                          0E     11  001C    83 	BRB	10$			;FINISH IN COMMON CODE
SYSCANEVT       - SYSTEM SERVICES TO CANCEL EVENTS               21-AUG-1978 20:21:50   VAX-11 MACRO X0.3-11               Page   3
01              CANCEL WAKEUP                                                                                                    (1)

                                     001E    85 	.SBTTL	CANCEL WAKEUP
                                     001E    86 ;+
                                     001E    87 ; EXE$CANWAK - CANCEL WAKEUP
                                     001E    88 ;
                                     001E    89 ; THIS SERVICE PROVIDES THE CAPABILITY TO CANCEL ALL WAKE UP REQUESTS FOR
                                     001E    90 ; A SPECIFIED PROCESS.
                                     001E    91 ;
                                     001E    92 ; INPUTS:
                                     001E    93 ;
                                     001E    94 ;	PIDADR(AP) = ADDRESS OF PROCESS IDENTIFICATION.
                                     001E    95 ;	LOGNAM(AP) = ADDRESS OF PROCESS NAME STRING DESCRIPTOR.
                                     001E    96 ;
                                     001E    97 ;	R4 = CURRENT PROCESS PCB ADDRESS.
                                     001E    98 ;
                                     001E    99 ; OUTPUTS:
                                     001E   100 ;
                                     001E   101 ;	R0 LOW BIT CLEAR INDICATES FAILURE TO CANCEL WAKE UP REQUESTS.
                                     001E   102 ;
                                     001E   103 ;		R0 = SS$_ACCVIO - PROCESS NAME STRING OR PROCESS NAME
                                     001E   104 ;			STRING DESCRIPTOR CANNOT BE READ BY CALLING ACCESS
                                     001E   105 ;			MODE, OR PROCESS IDENTIFICATION CANNOT BE WRITTEN
                                     001E   106 ;			BY CALLING ACCESS MODE.
                                     001E   107 ;
                                     001E   108 ;		R0 = SS$_IVLOGNAM - ZERO OR GREATER THAN MAXIMUM LENGTH
                                     001E   109 ;			PROCESS NAME STRING SPECIFIED.
                                     001E   110 ;
                                     001E   111 ;		R0 = SS$_NONEXPR - NONEXISTENT PROCESS OF INVALID PROCESS
                                     001E   112 ;			IDENTIFICATION SPECIFIED.
                                     001E   113 ;
                                     001E   114 ;		R0 = SS$_NOPRIV - PROCESS DOES NOT HAVE PRIVILEGE TO WAKE
                                     001E   115 ;			SPECIFIED PROCESS.
                                     001E   116 ;
                                     001E   117 ;	R0 LOW BIT SET INDICATES SUCCESSFUL COMPLETION.
                                     001E   118 ;
                                     001E   119 ;		R0 = SS$_NORMAL - NORMAL COMPLETION.
                                     001E   120 ;-
                                     001E   121
                               003C' 001E   122 	.ENTRY	EXE$CANWAK,^M<R2,R3,R4,R5>
                          FFDD'  30  0020   123 	BSBW	EXE$NAMPID		;GET TARGET PROCESS ID
            13            50     E9  0023   124 	BLBC	R0,20$			;IF LBC INVALID ARGUMENT
            54            02     9A  0026   125 	MOVZBL	#TQE$C_WKSNGL,R4	;SET TYPE OF ENTRY
            55            51     D0  0029   126 	MOVL	R1,R5			;SET TARGET PROCESS ID
                                     002C   127 10$:	SETIPL	#IPL$_TIMER		;RAISE IPL TO TIMER LEVEL
                          FFCA'  30  0033   128 	BSBW	EXE$RMVTIMQ		;REMOVE ENTRIES FROM TIMER QUEUE
            50            01     3C  0036   129 	MOVZWL	#SS$_NORMAL,R0		;SET NORMAL COMPLETION STATUS
                                     0039   130 20$:	SETIPL	#0			;ALLOW INTERRUPTS
                                 04  003C   131 	RET				;
                                     003D   132 	.DSABL	LSB
                                     003D   133
                                     003D   134 	.END
SYSCANEVT       - SYSTEM SERVICES TO CANCEL EVENTS               21-AUG-1978 20:21:50   VAX-11 MACRO X0.3-11               Page   4
SYMBOL TABLE                                                                                                                     (1)

ACMODE         = 00000008            PCB$V_SUSPEN   = 0000000B            PR$_TBIA       = 00000039
BIT...         = 00000003            PCB$V_SWPVBN   = 00000010            PR$_TBIS       = 0000003A
EXE$CANTIM       00000000 RG    01   PCB$V_WAKEPEN  = 0000000C            PR$_TODR       = 0000001B
EXE$CANWAK       0000001E RG    01   PCB$V_WALL     = 0000000D            PR$_TXCS       = 00000022
EXE$MAXACMODE    ********   X   01   PCB$W_APTCNT     00000034            PR$_TXDB       = 00000023
EXE$NAMPID       ********   X   01   PCB$W_ASTCNT     0000003C            PR$_USP        = 00000003
EXE$RMVTIMQ      ********   X   01   PCB$W_BIOCNT     0000003E            PR$_WCSA       = 0000002C
GBL...         = 00000000            PCB$W_BIOLM      00000040            PR$_WCSD       = 0000002D
IPL$_TIMER       ********   X   01   PCB$W_BYTCNT     00000042            REQIDT         = 00000004
LOGNAM         = 00000008            PCB$W_BYTLM      00000068            SS$_ABORT      = 0000002C
PCB$B_ASTACT     0000000C            PCB$W_DIOCNT     00000044            SS$_ACCONFLICT = 00000800
PCB$B_ASTEN      0000000D            PCB$W_DIOLM      00000046            SS$_ACCVIO     = 0000000C
PCB$B_PRI        0000000B            PCB$W_FILCNT     00000048            SS$_ACPVAFUL   = 000002FC
PCB$B_PRIB       00000033            PCB$W_GPGCNT     00000038            SS$_ARTRES     = 00000474
PCB$B_TYPE       0000000A            PCB$W_GRP        00000022            SS$_ASTFLT     = 0000040C
PCB$B_WEFC       00000032            PCB$W_MEM        00000020            SS$_BADATTRIB  = 00000034
PCB$C_LENGTH     0000007C            PCB$W_MTXCNT     0000000E            SS$_BADCHKSUM  = 00000808
PCB$K_LENGTH     0000007C            PCB$W_PPGCNT     0000003A            SS$_BADESCAPE  = 0000003C
PCB$L_ASTQBL     00000014            PCB$W_PRCCNT     0000006A            SS$_BADFILEHDR = 00000810
PCB$L_ASTQFL     00000010            PCB$W_SIZE       00000008            SS$_BADFILENAME= 00000818
PCB$L_EFC2P      00000058            PCB$W_STATE      00000030            SS$_BADFILEVER = 00000820
PCB$L_EFC3P      0000005C            PCB$W_TMBU       00000036            SS$_BADIMGHDR  = 00000044
PCB$L_EFCS       00000050            PCB$W_TQCNT      0000004A            SS$_BADIRECTORY= 00000828
PCB$L_EFCU       00000054            PIDADR         = 00000004            SS$_BADPARAM   = 00000014
PCB$L_EFWM       0000004C            PR$_ACCR       = 00000029            SS$_BADSTACK   = 000002B4
PCB$L_OWNER      0000001C            PR$_ACCS       = 00000028            SS$_BEGOFFILE  = 00000938
PCB$L_PHD        00000064            PR$_ASTLVL     = 00000013            SS$_BLOCKCNTERR= 00000940
PCB$L_PHYPCB     00000018            PR$_ESP        = 00000001            SS$_BREAK      = 00000414
PCB$L_PID        00000060            PR$_ICCS       = 00000018            SS$_BUFBYTALI  = 0000030C
PCB$L_PQB        0000004C            PR$_ICR        = 0000001A            SS$_BUFFEROVF  = 00000601
PCB$L_SQBL       00000004            PR$_IPL        = 00000012            SS$_BUGCHECK   = 000002A4
PCB$L_SQFL       00000000            PR$_ISP        = 00000004            SS$_CANCEL     = 00000830
PCB$L_STS        00000028            PR$_KSP        = 00000000            SS$_CHANINTLK  = 0000004C
PCB$L_UIC        00000020            PR$_MAPEN      = 00000038            SS$_CLIFRCEXT  = 00000980
PCB$L_WSSWP      00000024            PR$_NICR       = 00000019            SS$_CMODSUPR   = 0000041C
PCB$L_WTIME      0000002C            PR$_P0BR       = 00000008            SS$_CMODUSER   = 00000424
PCB$T_LNAME      0000006C            PR$_P0LR       = 00000009            SS$_COMPAT     = 0000042C
PCB$V_ASTPEN   = 00000011            PR$_P1BR       = 0000000A            SS$_CONTINUE   = 00000001
PCB$V_BATCH    = 0000000E            PR$_P1LR       = 0000000B            SS$_CONTROLC   = 00000651
PCB$V_DELPEN   = 00000001            PR$_PCBB       = 00000010            SS$_CONTROLO   = 00000609
PCB$V_FORCPEN  = 00000002            PR$_PME        = 0000003D            SS$_CONTROLY   = 00000611
PCB$V_HIBER    = 00000013            PR$_RXCS       = 00000020            SS$_CREATED    = 00000619
PCB$V_INQUAN   = 00000003            PR$_RXDB       = 00000021            SS$_CTRLERR    = 00000054
PCB$V_LOGIN    = 00000014            PR$_SBIER      = 00000034            SS$_DATACHECK  = 0000005C
PCB$V_NETWRK   = 00000015            PR$_SBIFS      = 00000030            SS$_DATAOVERUN = 00000838
PCB$V_NOACNT   = 0000000F            PR$_SBIMT      = 00000033            SS$_DEBUG      = 0000046C
PCB$V_NODELET  = 00000017            PR$_SBIQC      = 00000036            SS$_DECOVF     = 000004A4
PCB$V_PHDRES   = 00000012            PR$_SBIS       = 00000031            SS$_DEVACTIVE  = 000002C4
PCB$V_PSWAPM   = 00000004            PR$_SBISC      = 00000032            SS$_DEVALLOC   = 00000840
PCB$V_PWRAST   = 00000016            PR$_SBITA      = 00000035            SS$_DEVALRALLOC= 00000641
PCB$V_RES      = 00000000            PR$_SBR        = 0000000C            SS$_DEVASSIGN  = 00000848
PCB$V_RESPEN   = 00000005            PR$_SCBB       = 00000011            SS$_DEVFOREIGN = 00000064
PCB$V_SSFEXC   = 00000006            PR$_SID        = 0000003E            SS$_DEVICEFULL = 00000850
PCB$V_SSFEXCE  = 00000007            PR$_SIRR       = 00000014            SS$_DEVMOUNT   = 0000006C
PCB$V_SSFEXCS  = 00000008            PR$_SISR       = 00000015            SS$_DEVNOTALLOC= 00000858
PCB$V_SSFEXCU  = 00000009            PR$_SLR        = 0000000D            SS$_DEVNOTMBX  = 00000074
PCB$V_SSRWAIT  = 0000000A            PR$_SSP        = 00000002            SS$_DEVNOTMOUNT= 0000007C
SYSCANEVT       - SYSTEM SERVICES TO CANCEL EVENTS               21-AUG-1978 20:21:50   VAX-11 MACRO X0.3-11               Page   5
SYMBOL TABLE                                                                                                                     (1)

SS$_DEVOFFLINE = 00000084            SS$_IVPROTECT  = 000002F4            SS$_REMOTE     = 00000649
SS$_DIRFULL    = 00000860            SS$_IVQUOTAL   = 00000164            SS$_RESIGNAL   = 00000918
SS$_DRVERR     = 0000008C            SS$_IVSECFLG   = 0000016C            SS$_RESULTOVF  = 00000214
SS$_DUPFILENAME= 00000868            SS$_IVSECIDCTL = 000002E4            SS$_ROPRAND    = 00000454
SS$_DUPLNAM    = 00000094            SS$_IVSSRQ     = 00000174            SS$_SECTBLFUL  = 0000021C
SS$_ENDOFFILE  = 00000870            SS$_IVSTSFLG   = 0000017C            SS$_SSFAIL     = 0000045C
SS$_ENDOFTAPE  = 00000878            SS$_IVTIME     = 00000184            SS$_SUBRNG     = 000004AC
SS$_ENDOFUSRLBL= 00000970            SS$_LCKPAGFUL  = 000000D4            SS$_SUPERSEDE  = 00000631
SS$_EXQUOTA    = 0000001C            SS$_LENVIO     = 0000018C            SS$_TAPEPOSLOST= 00000224
SS$_EXTIDXFILE = 00000880            SS$_LKWSETFUL  = 00000194            SS$_TBIT       = 00000464
SS$_FCPREADERR = 00000888            SS$_MBFULL     = 000008D8            SS$_TIMEOUT    = 0000022C
SS$_FCPREPSTN  = 00000988            SS$_MBTOOSML   = 0000019C            SS$_TOOMANYVER = 00000990
SS$_FCPREWNDERR= 00000890            SS$_MCHECK     = 000002BC            SS$_TOOMUCHDATA= 0000029C
SS$_FCPSPACERR = 00000898            SS$_MEDOFL     = 000001A4            SS$_UNASEFC    = 00000234
SS$_FCPWRITERR = 000008A0            SS$_MSGNOTFND  = 00000621            SS$_UNSAFE     = 0000023C
SS$_FILACCERR  = 0000009C            SS$_MTLBLLONG  = 00000304            SS$_UNWIND     = 00000920
SS$_FILALRACC  = 000000A4            SS$_MUSTCLOSEFL= 00000948            SS$_UNWINDING  = 00000928
SS$_FILELOCKED = 000008A8            SS$_NOAQB      = 00000314            SS$_VASFULL    = 00000244
SS$_FILENUMCHK = 000008B0            SS$_NODATA     = 000001AC            SS$_VECINUSE   = 0000024C
SS$_FILESEQCHK = 000008B8            SS$_NOHANDLER  = 000008F8            SS$_VOLINV     = 00000254
SS$_FILESTRUCT = 000008C0            SS$_NOHOMEBLK  = 000008E0            SS$_WAITUSRLBL = 00000950
SS$_FILNOTACC  = 000000AC            SS$_NOIOCHAN   = 000001B4            SS$_WASCLR     = 00000001
SS$_FILNOTCNTG = 000002AC            SS$_NOLINKS    = 0000027C            SS$_WASECC     = 00000639
SS$_FILNOTEXP  = 000000B4            SS$_NOLOGNAM   = 000001BC            SS$_WASSET     = 00000009
SS$_FLTDIV     = 00000494            SS$_NOMBX      = 00000274            SS$_WRITLCK    = 0000025C
SS$_FLTOVF     = 0000048C            SS$_NOMOREFILES= 00000930            SS$_WRONGACP   = 0000031C
SS$_FLTUND     = 0000049C            SS$_NONEXDRV   = 000001C4            TQE$B_EFN        00000029
SS$_FORMAT     = 000000BC            SS$_NONEXPR    = 000008E8            TQE$B_RMOD       00000028
SS$_GPTFULL    = 000000C4            SS$_NONLOCAL   = 000008F0            TQE$B_RQTYPE     0000000B
SS$_GSDFULL    = 000000CC            SS$_NOPRIV     = 00000024            TQE$B_TYPE       0000000A
SS$_HANGUP     = 000002CC            SS$_NORMAL     = 00000001            TQE$C_LENGTH     00000030
SS$_HEADERFULL = 000008C8            SS$_NOSIGNAL   = 00000900            TQE$C_SSREPT   = 00000005
SS$_IDXFILEFULL= 000008D0            SS$_NOSOLICIT  = 00000284            TQE$C_SSSNGL   = 00000001
SS$_ILLBLKNUM  = 000000DC            SS$_NOSUCHDEV  = 00000908            TQE$C_TMSNGL   = 00000000
SS$_ILLCNTRFUNC= 000000E4            SS$_NOSUCHFILE = 00000910            TQE$C_WKREPT   = 00000006
SS$_ILLEFC     = 000000EC            SS$_NOSUCHNODE = 0000028C            TQE$C_WKSNGL   = 00000002
SS$_ILLIOFUNC  = 000000F4            SS$_NOSUCHSEC  = 00000978            TQE$K_LENGTH     00000030
SS$_ILLLBLAST  = 00000968            SS$_NOTAPEOP   = 00000264            TQE$L_AST        00000010
SS$_ILLPAGCNT  = 000000FC            SS$_NOTFILEDEV = 000001CC            TQE$L_ASTPRM     00000014
SS$_ILLSEQOP   = 000002DC            SS$_NOTINTBLSZ = 000001D4            TQE$L_FPC        0000000C
SS$_ILLSER     = 00000104            SS$_NOTLABELMT = 000001DC            TQE$L_FR3        00000010
SS$_ILLUSRLBLRD= 00000958            SS$_NOTMODIFIED= 00000659            TQE$L_FR4        00000014
SS$_ILLUSRLBLWT= 00000960            SS$_NOTNETDEV  = 000002EC            TQE$L_PID        0000000C
SS$_INCVOLLABEL= 0000010C            SS$_NOTRAN     = 00000629            TQE$L_RQPID      0000002C
SS$_INSFARG    = 00000114            SS$_NOTSQDEV   = 000001E4            TQE$L_TQBL       00000004
SS$_INSFMEM    = 00000124            SS$_OPCCUS     = 00000434            TQE$L_TQFL       00000000
SS$_INSFRAME   = 0000012C            SS$_OPCDEC     = 0000043C            TQE$M_REPEAT   = 00000004
SS$_INSFWSL    = 0000011C            SS$_OPINCOMPL  = 000002D4            TQE$Q_DELTA      00000020
SS$_INTDIV     = 00000484            SS$_PAGOWNVIO  = 000001EC            TQE$Q_TIME       00000018
SS$_INTOVF     = 0000047C            SS$_PAGRDERR   = 00000444            TQE$V_REPEAT   = 00000002
SS$_IVADDR     = 00000134            SS$_PARITY     = 000001F4            TQE$W_SIZE       00000008
SS$_IVCHAN     = 0000013C            SS$_PARTESCAPE = 000001FC
SS$_IVCHNLSEC  = 0000026C            SS$_PFMBSY     = 00000204
SS$_IVDEVNAM   = 00000144            SS$_PLHLDR     = 00000404
SS$_IVGSDNAM   = 0000014C            SS$_PSTFULL    = 0000020C
SS$_IVLOGNAM   = 00000154            SS$_RADRMOD    = 0000044C
SS$_IVLOGTAB   = 0000015C            SS$_REJECT     = 00000294
SYSCANEVT       - SYSTEM SERVICES TO CANCEL EVENTS               21-AUG-1978 20:21:50   VAX-11 MACRO X0.3-11               Page   6
PROGRAM SECTION SYNOPSIS                                                                                                         (1)


PROGRAM SECTION SYNOPSIS

.  ABS  .        00000000      00     NOPIC   USR   CON   ABS   LCL NOSHR NOEXE NORD  NOWRT BYTE
. BLANK .        0000003D      01     NOPIC   USR   CON   REL   LCL NOSHR   EXE   RD    WRT BYTE
$ABS$            0000007C      02     NOPIC   USR   CON   ABS   LCL NOSHR   EXE   RD    WRT BYTE


THERE WERE NO ERRORS OR WARNINGS.
15426. BYTES LEFT IN FREE MEMORY POOL.
3968. BYTES OF RECLAIMED MEMORY.
OBJ$:SYSCANEVT,LIS$:SYSCANEVT/-SP=EXECML$/ML,SRC$:SYSCANEVT
4 MLB DIR RDS - 557 GETS TO DEFINE 14 MACROS. 38 INTER. FILE WRITES.
