SYSCOMMON       DATA BASES                                       21-AUG-1978 20:13:16   VAX-11 MACRO X0.3-11               Page   0
TABLE OF CONTENTS

   (1)    5200  SYSCOMMON
SYSCOMMON       DATA BASES                                       21-AUG-1978 20:13:16   VAX-11 MACRO X0.3-11               Page   1
X01                                                                                                                              (1)

                                     0000   100 	.TITLE	SYSCOMMON DATA BASES
                                     0000   200 	.IDENT	/X01/
                                     0000   300 ;
                                     0000   400 ; COPYRIGHT (C) 1977,1978
                                     0000   500 ; DIGITAL EQUIPMENT CORPORATION, MAYNARD, MASS.
                                     0000   600 ;
                                     0000   700 ; THIS SOFTWARE IS FURNISHED UNDER  A LICENSE FOR USE ONLY  ON  A
                                     0000   800 ; SINGLE COMPUTER SYSTEM AND MAY BE  COPIED ONLY WITH  THE INCLU-
                                     0000   900 ; SION OF  THE  ABOVE  COPYRIGHT NOTICE.  THIS SOFTWARE,  OR  ANY
                                     0000  1000 ; OTHER COPIES THEREOF, MAY NOT BE  PROVIDED  OR  OTHERWISE  MADE
                                     0000  1100 ; AVAILABLE TO ANY OTHER PERSON EXCEPT  FOR  USE  ON  SUCH SYSTEM
                                     0000  1200 ; AND TO  ONE WHO AGREES  TO  THESE LICENSE  TERMS.  TITLE TO AND
                                     0000  1300 ; OWNERSHIP OF THE SOFTWARE SHALL AT ALL TIMES REMAIN IN DEC.
                                     0000  1400 ;
                                     0000  1500 ; THE INFORMATION IN THIS SOFTWARE  IS  SUBJECT TO CHANGE WITHOUT
                                     0000  1600 ; NOTICE AND SHOULD NOT BE CONSTRUED  AS  A COMMITMENT BY DIGITAL
                                     0000  1700 ; EQUIPMENT CORPORATION.
                                     0000  1800 ;
                                     0000  1900 ; DEC ASSUMES NO RESPONSIBILITY FOR THE USE OR RELIABILITY OF ITS
                                     0000  2000 ; SOFTWARE ON EQUIPMENT WHICH IS NOT SUPPLIED BY DEC.
                                     0000  2100 ;
                                     0000  2200 ;++
                                     0000  2300 ; SYSTEM COMMON DATA BASES
                                     0000  2400 ;--
                                     0000  2500 ;
                                     0000  2600 ; VERSION X01 (BASE LEVEL 0)
                                     0000  2700 ;
                                     0000  2800 ; AUTHOR: R. HEINEN 9-AUG-76 (X01)
                                     0000  2900 ;
                                     0000  3000 ; MODIFIED BY R.HEINEN ON 13-OCT-76; ADD FORK LIST HEADS FOR IPL 7,6
                                     0000  3100 ;
                                     0000  3200 ; MACRO LIBRARY CALLS
                                     0000  3300 ;
                                     0000  3400
                                     0000  3500 	$CADEF				; DEFINE CONDITIONAL ASSEMBLY PARAMETERS
                                     0000  3600 	$DYNDEF				; DEFINE DATA STRUCTURE CODES
                                     0000  3700 	$LOGDEF				; DEFINE LOG OFFSETS
                                     0000  3800 	$SGNDEF				; DEFINE SYSGEN VALUES
                                     0000  3900 	$TQEDEF				; DEFINE TQE OFFSETS
                                     0000  4000 	$WCBDEF				; DEFINE WCB OFFSETS
                                     0000  4100
                                     0000  4200 ;
                                     0000  4300 ; MACRO DEFINITIONS:
                                     0000  4400 ;
                                     0000  4500
                                     0000  4600 	.MACRO	TIME
                                     0000  4700 	.LONG	0			;
                                     0000  4800 	.LONG	^X859034		; HIGH ORDER BITS OF TIME
                                     0000  4900 	.ENDM	TIME
                                     0000  5000
SYSCOMMON       DATA BASES                                       21-AUG-1978 20:13:16   VAX-11 MACRO X0.3-11               Page   2
X01             SYSCOMMON                                                                                                        (1)

                                     0000  5200 	.SBTTL	SYSCOMMON
                                     0000  5300
                                 00000000  5400 	.PSECT	$$$260,QUAD,WRT
                                     0000  5500 ;+
                                     0000  5600 ; SYSTEM COMMON DATA BASES
                                     0000  5700 ;
                                     0000  5800 ; SYSTEM FILE DESCRIPTORS
                                     0000  5900 ;
                                     0000  6000
                                     0000  6100 EXE$GQ_STAREXE::			; STARLET EXECUTIVE IMAGE
                           00000004  0000  6200 	.BLKL	1			; SIZE OF FILE IN PAGES
                           00000008  0004  6300 	.BLKL	1			; STARTING LBN OF FILE
                                     0008  6400 EXE$GQ_SYSDMP::				; SYSTEM DUMP IMAGE
                           0000000C  0008  6500 	.BLKL	1			; SIZE OF FILE IN PAGES
                           00000010  000C  6600 	.BLKL	1			; STARTING LBN OF FILE
                                     0010  6700 EXE$GQ_SWAPF::				; WORKING SET SWAP FILE
                           00000014  0010  6800 	.BLKL	1			; SIZE OF FILE IN PAGES
                           00000018  0014  6900 	.BLKL	1			; STARTING LBN OF FILE
                                     0018  6905 ;
                                     0018  6910 ;	CHECKSUM FOR SYSTEM DUMP FILE DESCRIPTOR
                                     0018  6915 ;
                                     0018  6920 EXE$GL_DMPCHK::				;
                           FFFFFFFF  0018  6925 	.LONG	-1			; INVERTED SUM
                                     001C  7000
                                     001C  7100 ;
                                     001C  7200 ; DEFINE THE CONTROL BITS IN EXE$GL_FLAGS
                                     001C  7300 ;
                                     001C  7400 	$GBLINI	GLOBAL
                                     001C  7500 	$VIELD	EXE,0,<-
                                     001C  7600 		SYSWRTABL,-		; LEAVE SYSTEM READ ONLY CODE WRITABLE
                                     001C  7700 		NOAUTOCNF,-		; NO AUTOMATIC CONFIGURATION OF UBA
                                     001C  7800 		SYSPAGING,-		; ENABLE SYSTEM PAGING
                                     001C  7900 		POOLPGING,-		; ENABLE DYNAMIC POOL PAGING
                                     001C  8000 		SIMULATOR,-		; RUNNING ON SIMULATOR
                                     001C  8100 		NOCLOCK,-		; DO NOT TURN ON CLOCK
                                     001C  8200 		CRDENABL,-		; ENABLE CRD ERROR DETECTION
                                     001C  8300 		SBIERR,-		; ENABLE SBI ERROR INTERRUPT
                                     001C  8400 		INIT,-			; RMS AND FILE SYSTEM INITIALIZED
                                     001C  8500 		SETTIME,-		; FORCE SOLICITATION OF TIME
                                     001C  8600 		FATAL_BUG,-		; FORCE ALL BUG CHECKS FATAL
                                     001C  8700 		MULTACP,-		; USE MULTIPLE FILE ACP'S
                                     001C  8800 		NOCLUSTER,-		; TURN OFF PAGE FAULT CLUSTERING
                                     001C  8900 		BUGREBOOT,-		; AUTO REBOOT ON BUGCHECK
                                     001C  9000 		SYSUAFALT,-		; ALTERNATE LOGICAL NAME FOR SYSUAF
                                     001C  9100 		SHRF11ACP,-		; MAKE F11ACP SHARABLE AT BOOT TIME
                                     001C  9150 		BUGDUMP,-		; TAKE SYSTEM DUMP ON BUGCHECK
                                     001C  9200 	>
                                     001C  9300
                                     001C  9400 ;
                                     001C  9500 ; SYSTEM FLAGS LONG WORD
                                     001C  9600 ;
                                     001C  9700 ; NOTE: THE ACTUAL DEFAULT SETTING FOR EXE$GL_FLAGS IS IN SYSPARAM IN
                                     001C  9800 ;	CELL EXE$GL_DEFFLAGS AND IS COPIED INTO THE WORKING LOCATION,
                                     001C  9900 ;	EXE$GL_FLAGS BY INIT.
                                     001C 10000 ;
                                     001C 10100 EXE$GL_FLAGS::
                           0000048C  001C 10200 	.LONG	<1@EXE$V_SYSPAGING>!<1@EXE$V_POOLPGING>- ; SYSTEM CONTROL FLAGS
SYSCOMMON       DATA BASES                                       21-AUG-1978 20:13:16   VAX-11 MACRO X0.3-11               Page   3
X01             SYSCOMMON                                                                                                        (1)

                                     0020 10300 		!<1@EXE$V_SBIERR>!<1@EXE$V_FATAL_BUG> ;
                                     0020 10400
                                     0020 10500 ;
                                     0020 10600 ; ERROR LOG MAILBOX CONTROL
                                     0020 10700 ;
                                     0020 10800 EXE$GQ_ERLMBX::				;
                               0000  0020 10900 	.WORD	0			; UNIT NUMBER (0 => NONE)
                               0000  0022 11000 	.WORD	0			; RESERVED
                           00000000  0024 11100 	.LONG	0			; PID OF ASSIGNER
                                     0028 11200
                                     0028 11300
                                     0028 11400 ;
                                     0028 11500 ;	VECTORS TO USER SUPPLIED CHANGE MODE HANDLERS
                                     0028 11600 ;
                                     0028 11700 EXE$GL_USRCHMK::			; VECTOR TO USER SUPPLIED CHANGE MODE
                           00000000  0028 11800 	.LONG	0			; TO KERNEL HANDLER
                                     002C 11900 EXE$GL_USRCHME::			; VECTOR TO USER SUPPLIED CHANGE MODE
                           00000000  002C 12000 	.LONG	0			; TO EXECUTIVE HANDLER
                                     0030 12100
                                     0030 12200 ;
                                     0030 12300 ; FORK QUEUE LISTHEADS
                                     0030 12400 ;
                                     0030 12500
                                     0030 12600 	.ALIGN	QUAD
                                     0030 12700 SWI$GL_FQFL::				; FORWARD LINK
                           00000030' 0030 12800 A:	.LONG	A			; IPL-6 LISTHEAD
                                     0034 12900 SWI$GL_FQBL::				; BACKWARD LINK
                           00000030' 0034 13000 	.LONG	A			;
                  00000038'00000038' 0038 13100 2$:	.LONG	2$,2$			; IPL-7 LISTHEAD
                  00000040'00000040' 0040 13200 3$:	.LONG	3$,3$			; IPL-8 LISTHEAD
                  00000048'00000048' 0048 13300 4$:	.LONG	4$,4$			; IPL-9 LISTHEAD
                  00000050'00000050' 0050 13400 5$:	.LONG	5$,5$			; IPL-10 LISTHEAD
                  00000058'00000058' 0058 13500 6$:	.LONG	6$,6$			; IPL-11 LISTHEAD
                                     0060 13600
                                     0060 13700 ;
                                     0060 13800 ; LOGICAL NAME TABLE ADDRESS TABLE
                                     0060 13900 ;
                                     0060 14000
                                     0060 14100 LOG$AL_LOGTBL::				;
                           00000080' 0060 14200 	.LONG	LOG$GL_SLTFL		; SYSTEM NAME TABLE
                           00000078' 0064 14300 	.LONG	LOG$GL_GLTFL		; GROUP NAME TABLE
                           00000000' 0068 14400 	.LONG	CTL$GL_PLTFL		; PROCESS NAME TABLE
                                     006C 14500
                                     006C 14600 ;
                                     006C 14700 ; LOGICAL NAME TABLE MUTEX TABLE
                                     006C 14800 ;
                                     006C 14900
                                     006C 15000 LOG$AL_MUTEX::				;
                          0000 FFFF  006C 15100 	.WORD	-1,0			; SYSTEM NAME TABLE
                          0000 FFFF  0070 15200 	.WORD	-1,0			; GROUP NAME TABLE
                                     0074 15300
                                     0074 15400 ;
                                     0074 15500 ; GROUP NAME TABLE LISTHEAD
                                     0074 15600 ;
                                     0074 15700
                                     0074 15800 	.ALIGN	QUAD
                                     0078 15900 LOG$GL_GLTFL:				; FORWARD LINK
SYSCOMMON       DATA BASES                                       21-AUG-1978 20:13:16   VAX-11 MACRO X0.3-11               Page   4
X01             SYSCOMMON                                                                                                        (1)

                           00000078' 0078 16000 	.LONG	.			;
                                     007C 16100 LOG$GL_GLTBL:				; BACKWARD LINK
                           00000078' 007C 16200 	.LONG	.-4			;
                                     0080 16300
                                     0080 16400 ;
                                     0080 16500 ; SYSTEM NAME TABLE LISTHEAD
                                     0080 16600 ;
                                     0080 16700
                                     0080 16800 	.ALIGN	QUAD
                                     0080 16900 LOG$GL_SLTFL::				; FORWARD LINK
                           00000000' 0080 17000 	.LONG	LOG$AL_DISKLOG		; SYSTEM DEVICE LOGICAL NAME
                                     0084 17100 LOG$GL_SLTBL:				; BACKWARD LINK
                           00000000' 0084 17200 	.LONG	LOG$AL_DISKLOG		; SYSTEM DEVICE LOGICAL NAME
                                     0088 17300
                                     0088 17400 ;
                                     0088 17500 ; ADDRESS OF SYSTEM BOOT DEVICE UCB AND DEFAULT DEVICE
                                     0088 17600 ;
                                     0088 17700
                                     0088 17800 EXE$GL_SYSUCB::				; SYSTEM DEVICE UCB ADDRESS
                           00000000  0088 17900 	.LONG	0			;
                                     008C 18000 FIL$GT_DDDEV::				; FILE READ DEFAULT DEVICE STRING
         4B 53 49 44 24 53 59 53 00' 008C 18100 	.ASCIC	/SYS$DISK/		; LOGICAL NAME STRING
                                 08  008C
                                     0095 18200
                                     0095 18300 ;
                                     0095 18400 ; I/O DONE PACKET QUEUE
                                     0095 18500 ;
                                     0095 18600
                                     0095 18700 	.ALIGN	QUAD
                                     0098 18800 IOC$GL_PSFL::				;
                           00000098' 0098 18900 B:	.LONG	B			; FORWARD LINK
                                     009C 19000 IOC$GL_PSBL::				;
                           00000098' 009C 19100 	.LONG	B			; BACKWARD LINK
                                     00A0 19200
                                     00A0 19300 ;
                                     00A0 19400 ; I/O PACKET LOOK ASIDE LISTHEAD
                                     00A0 19500 ;
                                     00A0 19600
                                     00A0 19700 IOC$GL_IRPFL::				;
                           000000A0' 00A0 19800 	.LONG	IOC$GL_IRPFL		;
                                     00A4 19900 IOC$GL_IRPBL::				;
                           000000A0' 00A4 20000 	.LONG	IOC$GL_IRPFL		;
                                     00A8 20100 ;
                                     00A8 20200 ; SYSTEM AQB LISTHEAD
                                     00A8 20300 ;
                                     00A8 20400 IOC$GL_AQBLIST::
                           00000000  00A8 20500 	.LONG	0			; SINGLE LINK, EMPTY
                                     00AC 20600 ;
                                     00AC 20700 ; SYSTEM-WIDE MOUNTED VOLUME LIST
                                     00AC 20800 ;
                                     00AC 20900 IOC$GQ_MOUNTLST::
                           000000AC' 00AC 21000 	.LONG	.
                           000000AC' 00B0 21100 	.LONG	.-4
                                     00B4 21200 ;
                                     00B4 21300 ; TERMINAL DIAL UP ATTENTION LIST HEAD
                                     00B4 21400 ;
                                     00B4 21500 IOC$GL_DIALUP::				;
SYSCOMMON       DATA BASES                                       21-AUG-1978 20:13:16   VAX-11 MACRO X0.3-11               Page   5
X01             SYSCOMMON                                                                                                        (1)

                           00000000  00B4 21600 	.LONG	0			; SINGLE LINK, EMPTY
                                     00B8 21700 ;
                                     00B8 21800 ; TERMINAL BROADCAST MESSAGE LIST HEAD
                                     00B8 21900 ;
                                     00B8 22000 IOC$GQ_BRDCST::				;
                  000000B8'000000B8' 00B8 22100 1$:	.LONG	1$,1$			; EMPTY
                                     00C0 22200
                                     00C0 22300 ;
                                     00C0 22400 ; GROUP GLOBAL SECTION DESCRIPTOR LIST HEAD
                                     00C0 22500 ;
                                     00C0 22600
                                     00C0 22700 EXE$GL_GSDGRPFL::			; FORWARD LINK
                           000000C0' 00C0 22800 	.LONG	.
                                     00C4 22900 EXE$GL_GSDGRPBL::			; BACKWARD LINK
                           000000C0' 00C4 23000 	.LONG	.-4
                                     00C8 23100
                                     00C8 23200 ;
                                     00C8 23300 ; SYSTEM GLOBAL SECTION DESCRIPTOR LIST HEAD
                                     00C8 23400 ;
                                     00C8 23500
                                     00C8 23600 EXE$GL_GSDSYSFL::			; FORWARD LINK
                           000000C8' 00C8 23700 	.LONG	.
                                     00CC 23800 EXE$GL_GSDSYSBL::			; BACKWARD LINK
                           000000C8' 00CC 23900 	.LONG	.-4
                                     00D0 24000
                                     00D0 24100 ;
                                     00D0 24200 ; GLOBAL SECTION DESCRIPTOR BLOCK LOOK ASIDE LIST HEAD
                                     00D0 24300 ;
                                     00D0 24400
                                     00D0 24500 EXE$GL_GSDFREFL::			; FORWARD LINK
                           000000D0' 00D0 24600 	.LONG	.
                                     00D4 24700 EXE$GL_GSDFREBL::			; BACKWARD LINK
                           000000D0' 00D4 24800 	.LONG	.-4
                                     00D8 24900 ;
                                     00D8 25000 ; GLOBAL SECTION DESCRIPTOR DELETE PENDING LIST
                                     00D8 25100 ;
                                     00D8 25200
                                     00D8 25300 EXE$GL_GSDDELFL::			; FORWARD LINK
                           000000D8' 00D8 25400 	.LONG	.
                                     00DC 25500 EXE$GL_GSDDELBL::			; BACKWARD LINK
                           000000D8' 00DC 25600 	.LONG	.-4
                                     00E0 25700
                                     00E0 25800 ;
                                     00E0 25900 ; WINDOW CONTROL BLOCK DELETE QUEUE - GLOBAL SECTION WINDOWS ARE
                                     00E0 26000 ;	PLACED HERE WHEN THE SECTION IS DELETED. THEY ARE THEN
                                     00E0 26100 ;	REMOVED FROM THIS QUEUE AND DEACCESSED.
                                     00E0 26200 ;
                                     00E0 26300
                                     00E0 26400 EXE$GL_WCBDELFL::			; FORWARD LINK
                           000000E0' 00E0 26500 	.LONG	.
                                     00E4 26600 EXE$GL_WCBDELBL::			; BACKWARD LINK
                           000000E0' 00E4 26700 	.LONG	.-4
                                     00E8 26800
                                     00E8 26900 ;
                                     00E8 27000 ; SYSTEM WINDOW CONTROL BLOCK LIST - ALL WINDOWS CRAFTED BY MMG$INIWCB
                                     00E8 27100 ;	ARE PLACED HERE.
                                     00E8 27200 ;
SYSCOMMON       DATA BASES                                       21-AUG-1978 20:13:16   VAX-11 MACRO X0.3-11               Page   6
X01             SYSCOMMON                                                                                                        (1)

                                     00E8 27300
                                     00E8 27400 EXE$GL_SYSWCBFL::
                           000000F0' 00E8 27500 	.LONG	EXE$GL_SYSWCB		; FORWARD LINK
                                     00EC 27600 EXE$GL_SYSWCBBL::
                           000000F0' 00EC 27700 	.LONG	EXE$GL_SYSWCB		; BACKWARD LINK
                                     00F0 27800
                                     00F0 27900 ;
                                     00F0 28000 ; SYSTEM WINDOW CONTROL BLOCK FOR MAPPING THE SYSTEM IMAGE
                                     00F0 28100 ;
                                     00F0 28200
                                     00F0 28300 EXE$GL_SYSWCB::
                           0000011A  00F0 28400 10$:	.BLKB	WCB$K_LENGTH+6		; FORM A WINDOW WITH 1 RETRIEVAL POINTER
                                     011A 28500 20$:
                           000000F0  011A 28600 	.=10$				; BACK TO THE TOP TO FILL IN THE LINKS
                           000000E8' 00F0 28700 	.LONG	EXE$GL_SYSWCBFL		; FORWARD LINK
                           000000E8' 00F4 28800 	.LONG	EXE$GL_SYSWCBFL		; BACKWARD LINK
                           000000F8  00F8 28900 	.=10$+WCB$W_SIZE		; SIZE FIELD
                               002A  00F8 29000 	.WORD	WCB$K_LENGTH+6		; CONTROL BLOCK SIZE
                           000000FA  00FA 29100 	.=10$+WCB$B_TYPE		; TYPE FIELD
                                 12  00FA 29200 	.BYTE	DYN$C_WCB
                           000000FB  00FB 29300 	.=10$+WCB$B_ACCESS		; ACCESS FIELD
                                 05  00FB 29400 	.BYTE	WCB$M_READ!WCB$M_NOTFCP ; NOT AN FCP WINDOW
                           00000106  00FC 29500 	.=10$+WCB$W_NMAP		; NUMBER OF RETRIEVAL POINTERS
                               0001  0106 29600 	.WORD	1
                           00000110  0108 29700 	.=10$+WCB$L_STVBN		; STARTING VIRTUAL BLOCK NUMBER
                           00000001  0110 29800 	.LONG	1
                           0000011A  0114 29900 	.=20$				; BACK TO END OF WCB
                                     011A 30000 	.ALIGN	LONG
                                     011C 30100
                           00000114  011C 30200 	EXE$GL_SYSWCBRP==EXE$GL_SYSWCB+WCB$K_LENGTH ; ADR OF 1ST RETRIEVAL POINTER
                           00000100  011C 30300 	EXE$GL_SYSWCBUC==EXE$GL_SYSWCB+WCB$L_ORGUCB ; ADR OF UCB ADDRESS
                                     011C 30400 ;
                                     011C 30500 ; TIMER PERFORMANCE STATISTICS
                                     011C 30600 ;
                                     011C 30700
                           00000002  011C 30800 	.IF NE	CA$_MEASURE		; CHECK FOR MEASUREMENT ENABLED
                                     011C 30900
                                     011C 31000 	.ALIGN	LONG
                                     011C 31100 PMS$GL_KERNEL::				; TIME IN KERNEL MODE
                           00000000  011C 31200 	.LONG	0
                                     0120 31300 PMS$GL_EXEC:				; TIME IN EXECUTIVE MOVE
                           00000000  0120 31400 	.LONG	0
                                     0124 31500 PMS$GL_SUPER:				; TIME IN SUPERVISOR MODE
                           00000000  0124 31600 	.LONG	0
                                     0128 31700 PMS$GL_USER:				; TIME IN USER MODE
                           00000000  0128 31800 	.LONG	0
                                     012C 31900 PMS$GL_INTER:				; TIME ON INTERRUPT STACK
                           00000000  012C 32000 	.LONG	0
                                     0130 32100 PMS$GL_COMPAT::				; TIME IN COMPATIBILITY MODE
                           00000000  0130 32200 	.LONG	0
                                     0134 32300
                                     0134 32400 	.ENDC
                                     0134 32500
                                     0134 32600 ;
                                     0134 32700 ; SYSTEM ABSOLUTE TIME IN SECONDS
                                     0134 32800 ;
                                     0134 32900
SYSCOMMON       DATA BASES                                       21-AUG-1978 20:13:16   VAX-11 MACRO X0.3-11               Page   7
X01             SYSCOMMON                                                                                                        (1)

                                     0134 33000 	.ALIGN	LONG
                                     0134 33100 EXE$GL_ABSTIM::				; ABSOLUTE TIME IN SECONDS
                           00000000  0134 33200 	.LONG	0			;
                                     0138 33300
                                     0138 33400 ;
                                     0138 33500 ; SYSTEM ABSOLUTE TIME IN NANOSECONDS
                                     0138 33600 ;
                                     0138 33700
                                     0138 33800 	.ALIGN	QUAD
                                     0138 33900 EXE$GQ_SYSTIME::			; SYSTEM ABSOLUTE TIME IN NANOSECONDS
                                     0138 34000 	TIME				; QUAD WORD OF INITIAL TIME
                                     0140 34100
                                     0140 34200 EXE$GL_PFAILTIM::			; TODR AT POWER FAIL
                           00000000  0140 34300 	.LONG	0			;
                                     0144 34400 EXE$GL_PFATIM::				; DURATION OF LAST POWER FAILURE
                           00000000  0144 34500 	.LONG	0			; IN .01 SECOND UNITS FOR POWER FAIL
                                     0148 34600 					; AST.
                                     0148 34700
                                     0148 34800 ;
                                     0148 34900 ; TIME DEPENDENT SCHEDULER REQUEST QUEUE
                                     0148 35000 ;
                                     0148 35100
                                     0148 35200 	.ALIGN	QUAD
                                     0148 35300 EXE$GL_TQFL::				; FORWARD LINK OF TIME QUEUE LISTHEAD
                           00000150' 0148 35400 	.LONG	DEVICETIM		; LINK TO DEVICE TIME OUT ENTRY
                                     014C 35500 EXE$GL_TQBL:				; BACK LINK OF TIME QUEUE LISTHEAD
                           000001A0' 014C 35600 	.LONG	PERMENTRY		; LINK TO PERMENENT ENTRY
                                     0150 35700
                                     0150 35800 ;
                                     0150 35900 ; DEVICE TIME OUT TIME QUEUE ENTRY
                                     0150 36000 ;
                                     0150 36100
                                     0150 36200 	.ALIGN	QUAD
                                     0150 36300 DEVICETIM:				; DEVICE TIME OUT TIME QUEUE ENTRY
                           00000178' 0150 36400 	.LONG	TTTIMER			; FORWARD LINK TO TERMINAL TIMER ENTRY
                           00000148' 0154 36500 	.LONG	EXE$GL_TQFL		; BACK LINK TO LISTHEAD
                               0000  0158 36600 	.WORD	0			; SIZE OF ENTRY
                                 0F' 015A 36700 	.BYTE	DYN$C_TQE		; TYPE OF DATA STRUCTURE
                                 05' 015B 36800 	.BYTE	TQE$C_SSREPT		; REQUEST TYPE OF ENTRY
                           00000000' 015C 36900 	.LONG	EXE$TIMEOUT		; PC OF SYSTEM SUBROUTINE
                           00000000' 0160 37000 	.LONG	IOC$GL_DEVLIST		; ADDRESS OF I/O DATA BASE LISTHEAD
                           00000168  0164 37100 	.BLKL	1			; ONE UNUSED LONGWORD
                                     0168 37200 	TIME				; QUAD WORD OF EXPIRATION TIME
                           00989680  0170 37300 	.LONG	100000*100		; DELTA REPEAT TIME OF 1 SECOND
                           00000000  0174 37400 	.LONG	0			;
                                     0178 37500
                                     0178 37600 ;
                                     0178 37700 ; TERMINAL TIMER ENTRY
                                     0178 37800 ;
                                     0178 37900
                                     0178 38000 	.ALIGN	QUAD
                                     0178 38100 TTTIMER:				; TERMINAL TIMER ENTRY
                           000001A0' 0178 38200 	.LONG	PERMENTRY		; FORWARD LINK TO PERMENENT ENTRY
                           00000150' 017C 38300 	.LONG	DEVICETIM		; BACKWARD LINK TO DEVICE TIMEOUTENTRY
                               0000  0180 38400 	.WORD	0			; SIZE OF ENTRY
                                 0F' 0182 38500 	.BYTE	DYN$C_TQE		; TYPE OF STRUCTURE
                                 05' 0183 38600 	.BYTE	TQE$C_SSREPT		; TYPE OF TIME ENTRY
SYSCOMMON       DATA BASES                                       21-AUG-1978 20:13:16   VAX-11 MACRO X0.3-11               Page   8
X01             SYSCOMMON                                                                                                        (1)

                           00000000' 0184 38700 	.LONG	TTZ$TIMER		; PC OF TIMER SERVICE
                           00000000  0188 38800 	.LONG	0			; UNUSED LONG WORD
                           00000000  018C 38900 	.LONG	0
                                     0190 39000 	TIME				; QUAD WORD OF EXPIRATION TIME
                                     0198 39100 TTY$GL_TMRDELTA::
                           00989680  0198 39200 	.LONG	100000*100		; DELTA REPEAT TIME OF 1 SECOND
                           00000000  019C 39300 	.LONG	0			;
                                     01A0 39400
                                     01A0 39500 ;
                                     01A0 39600 ; PERMANENT TIME QUEUE ENTRY
                                     01A0 39700 ;
                                     01A0 39800
                                     01A0 39900 	.ALIGN	QUAD
                                     01A0 40000 PERMENTRY:				; PERMENENT TIME QUEUE ENTRY
                           00000148' 01A0 40100 	.LONG	EXE$GL_TQFL		; FORWARD LINK TO LISTHEAD
                           00000178' 01A4 40200 	.LONG	TTTIMER			; BACK LINK TO DEVICE TIME OUT ENTRY
                               0000  01A8 40300 	.WORD	0			; SIZE OF ENTRY
                                 0F' 01AA 40400 	.BYTE	DYN$C_TQE		; TYPE OF DATA STRUCTURE
                                 00' 01AB 40500 	.BYTE	TQE$C_TMSNGL		; REQUEST TYPE OF ENTRY
                           000001B8  01AC 40600 	.BLKL	3			; THREE UNUSED LONGWORDS
                           FFFFFFFF  01B8 40700 	.LONG	^X0FFFFFFFF		; INFINITY EXPIRATION TIME
                           FFFFFFFF  01BC 40800 	.LONG	^X0FFFFFFFF		;
                                     01C0 40900
                                     01C0 41000
                                     01C0 41100 ;
                                     01C0 41200 ; IOC DATA BASE MUTEX
                                     01C0 41300 ;
                                     01C0 41400
                                     01C0 41500 IOC$GL_MUTEX::				; MUTEX FOR IOC DATA BASE
                               FFFF  01C0 41600 	.WORD	-1			; INITIAL COUNT OF -1
                               0000  01C2 41700 	.WORD	0			; ALL FLAGS CLEARED
                                     01C4 41800
                                     01C4 41900
                                     01C4 42000 ;
                                     01C4 42100 ; COMMON EVENT LIST MUTEX
                                     01C4 42200 ;
                                     01C4 42300
                                     01C4 42400 EXE$GL_CEBMTX::				; MUTEX FOR COMMON EVENT CLUSTER LIST
                               FFFF  01C4 42500 	.WORD	-1			; INITIAL COUNT OF -1
                               0000  01C6 42600 	.WORD	0			; ALL FLAGS CLEARED
                                     01C8 42700
                                     01C8 42800 ;
                                     01C8 42900 ; DYNAMIC PAGED MEMORY MUTEX
                                     01C8 43000 ;
                                     01C8 43100
                                     01C8 43200 EXE$GL_PGDYNMTX::			; PAGED DYNAMIC MEMORY MUTEX
                               FFFF  01C8 43300 	.WORD	-1			; INITIAL COUNT OF -1
                               0000  01CA 43400 	.WORD	0			; ALL FLAGS CLEAR
                                     01CC 43500 ;
                                     01CC 43600 ; GLOBAL SECTION DESCRIPTOR TABLE MUTEX
                                     01CC 43700 ;
                                     01CC 43800
                                     01CC 43900 EXE$GL_GSDMTX::				; GLOBAL SECTION DESCRIPTOR MUTEX
                               FFFF  01CC 44000 	.WORD	-1			; INITIAL COUNT OF -1
                               0000  01CE 44100 	.WORD	0			; ALL FLAGS CLEAR
                                     01D0 44200
                                     01D0 44300 ;
SYSCOMMON       DATA BASES                                       21-AUG-1978 20:13:16   VAX-11 MACRO X0.3-11               Page   9
X01             SYSCOMMON                                                                                                        (1)

                                     01D0 44400 ; KNOWN FILE TABLE DATA
                                     01D0 44500 ;
                                     01D0 44600
                                     01D0 44700 EXE$GL_KFIMTX::				; KNOWN FILE TABLE MUTEX
                               FFFF  01D0 44800 	.WORD	-1			; INITIAL COUNT OF -1
                               0000  01D2 44900 	.WORD	0			; ALL FLAGS CLEAR
                                     01D4 44910 EXE$GL_KNOWNFIL::			; ADDRESS OF KNOWN FILE LIST VECTOR
                           00000000  01D4 44920 	.LONG	0			; EACH ENTRY OF WHICH POINTS TO
                                     01D8 44925 					; A LIST HEAD FOR THAT KNOWN FILE LIST
                                     01D8 44930 KFI$GL_F11AACP::			; ADDRESS OF KNOWN FILE ENTRY FOR
                           00000000  01D8 44940 	.LONG	0			; SYSTEM DISK ACP IF SHARING ACP
                                     01DC 45000
                                     01DC 45100 ;
                                     01DC 45200 ; GLOBAL PAGE TABLE
                                     01DC 45300 ;
                                     01DC 45400
                                     01DC 45500 EXE$GL_GPT::
                           00000000  01DC 45600 	.LONG	0			; ADDRESS OF FIRST FREE GLOBAL PTE
                                     01E0 45700 					; SETUP BY INIT
                           00000000  01E0 45800 	.LONG 	0			; NO BYTES IN BLOCK
                                     01E4 45900
                                     01E4 46000 ;
                                     01E4 46100 ; SYSTEM VERSION NUMBER
                                     01E4 46200 ;
                                     01E4 46300 SYS$GQ_VERSION::			;
                           00000000' 01E4 46400 	.LONG	SYS$K_VERSION
                        20 20 20 20  01E8 46500 	.ASCII	/    /
                                     01EC 46600
                                     01EC 46700 	.ALIGN	LONG
                                     01EC 46800
                                     01EC 46900 ;
                                     01EC 47000 ; JOB CONTROLLER DATA CELLS
                                     01EC 47100 ;
                               0000  01EC 47200 SYS$GW_IJOBCNT::	.WORD	0	; CURRENT COUNT OF INTERACTIVE LOGINS
                               0000  01EE 47300 SYS$GW_NJOBCNT::	.WORD	0	; CURRENT COUNT OF NETWORK LOGINS
                               0000  01F0 47400 SYS$GW_BJOBCNT::	.WORD	0	; CURRENT COUNT OF BATCH LOGINS
                                     01F2 47500
                                     01F2 47600 	.ALIGN	QUAD
                                     01F8 47700 ;
                                     01F8 47800 ; DYNAMIC STORAGE REGION - NONPAGED
                                     01F8 47900 ;
                                     01F8 48000
                                 000001F8 48100 	.PSECT	$$$260,QUAD,WRT
                                     01F8 48200 EXE$GL_NONPAGED::			;
                           0000000B  01F8 48300 	.LONG	11			; DISABLE ALL FORK INTERRUPTS
                           00000000  01FC 48400 	.LONG	0			; ADDRESS OF FIRST FREE BLOCK
                           00000000  0200 48500 	.LONG	0			; NO BYTES IN BLOCK
                                     0204 48600 EXE$GL_SPLITADR::			; LOOKASIDE I/O PACKET LIST SPLIT ADDRESS
                           00000000  0204 48700 	.LONG	0			; ADDRESS OF FIRST FREE BLOCK
                                     0208 48800
                                     0208 48900
                                     0208 49000 ;
                                     0208 49100 ; DYNAMIC STORAGE REGION - PAGED
                                     0208 49200 ;
                                     0208 49300
                                 00000208 49400 	.PSECT	$$$260,QUAD,WRT
                                     0208 49500 EXE$GL_PAGED::				;
SYSCOMMON       DATA BASES                                       21-AUG-1978 20:13:16   VAX-11 MACRO X0.3-11               Page  10
X01             SYSCOMMON                                                                                                        (1)

                           00000000  0208 49600 	.LONG	0			; ADDRESS OF FIRST FREE BLOCK
                           00000000  020C 49700 	.LONG	0			; NO BYTES IN BLOCK
                                     0210 49800
                                     0210 49900
                                     0210 50000 ;
                                     0210 50100 ; POINTER TO RMS SHARED FILE DATA BASE
                                     0210 50200 ;
                                     0210 50300 RMS$GL_SFDBASE::			; POINTER TO SHARED FILE DATA BASE
                           00000000  0210 50400 	.LONG	0			; INITIALLY EMPTY
                                     0214 50500
                                     0214 50600 	.END
SYSCOMMON       DATA BASES                                       21-AUG-1978 20:13:16   VAX-11 MACRO X0.3-11               Page  11
SYMBOL TABLE                                                                                                                     (1)

A                00000030 R     03   EXE$GL_GSDMTX    000001CC RG    03   IOC$GQ_MOUNTLST  000000AC RG    03
B                00000098 R     03   EXE$GL_GSDSYSBL  000000CC RG    03   KFI$GL_F11AACP   000001D8 RG    03
BIT...         = 00000011            EXE$GL_GSDSYSFL  000000C8 RG    03   LOG$AL_DISKLOG   ********   X   03
CA$_MEASURE    = 00000002            EXE$GL_KFIMTX    000001D0 RG    03   LOG$AL_LOGTBL    00000060 RG    03
CA$_MEASURE_IOT= 00000004            EXE$GL_KNOWNFIL  000001D4 RG    03   LOG$AL_MUTEX     0000006C RG    03
CA$_SIMULATOR  = 00000001            EXE$GL_NONPAGED  000001F8 RG    03   LOG$B_AMOD       0000000E
CTL$GL_PLTFL     ********   X   03   EXE$GL_PAGED     00000208 RG    03   LOG$B_TABLE      0000000B
DEVICETIM        00000150 R     03   EXE$GL_PFAILTIM  00000140 RG    03   LOG$B_TYPE       0000000A
DYN$C_ACB      = 00000002            EXE$GL_PFATIM    00000144 RG    03   LOG$C_GROUP    = 00000001
DYN$C_ADP      = 00000001            EXE$GL_PGDYNMTX  000001C8 RG    03   LOG$C_LENGTH     00000014
DYN$C_AQB      = 00000003            EXE$GL_SPLITADR  00000204 RG    03   LOG$C_NAMLENGTH= 00000040
DYN$C_BRDCST   = 0000001A            EXE$GL_SYSUCB    00000088 RG    03   LOG$C_PROCESS  = 00000002
DYN$C_BUFIO    = 00000013            EXE$GL_SYSWCB    000000F0 RG    03   LOG$C_SYSTEM   = 00000000
DYN$C_CEB      = 00000004            EXE$GL_SYSWCBBL  000000EC RG    03   LOG$GL_GLTBL     0000007C R     03
DYN$C_CRB      = 00000005            EXE$GL_SYSWCBFL  000000E8 RG    03   LOG$GL_GLTFL     00000078 R     03
DYN$C_CXB      = 0000001B            EXE$GL_SYSWCBRP= 00000114 RG    03   LOG$GL_SLTBL     00000084 R     03
DYN$C_DDB      = 00000006            EXE$GL_SYSWCBUC= 00000100 RG    03   LOG$GL_SLTFL     00000080 RG    03
DYN$C_DPT      = 0000001E            EXE$GL_TQBL      0000014C R     03   LOG$K_LENGTH     00000014
DYN$C_FCB      = 00000007            EXE$GL_TQFL      00000148 RG    03   LOG$L_LTBL       00000004
DYN$C_FRK      = 00000008            EXE$GL_USRCHME   0000002C RG    03   LOG$L_LTFL       00000000
DYN$C_GSD      = 00000015            EXE$GL_USRCHMK   00000028 RG    03   LOG$L_MBXUCB     00000010
DYN$C_IDB      = 00000009            EXE$GL_WCBDELBL  000000E4 RG    03   LOG$T_NAME       00000014
DYN$C_IRP      = 0000000A            EXE$GL_WCBDELFL  000000E0 RG    03   LOG$W_GROUP      0000000C
DYN$C_JPB      = 0000001F            EXE$GQ_ERLMBX    00000020 RG    03   LOG$W_SIZE       00000008
DYN$C_KFH      = 00000026            EXE$GQ_STAREXE   00000000 RG    03   PERMENTRY        000001A0 R     03
DYN$C_KFI      = 00000018            EXE$GQ_SWAPF     00000010 RG    03   PMS$GL_COMPAT    00000130 RG    03
DYN$C_LOG      = 0000000B            EXE$GQ_SYSDMP    00000008 RG    03   PMS$GL_EXEC      00000120 R     03
DYN$C_MTL      = 00000019            EXE$GQ_SYSTIME   00000138 RG    03   PMS$GL_INTER     0000012C R     03
DYN$C_MVL      = 00000016            EXE$TIMEOUT      ********   X   03   PMS$GL_KERNEL    0000011C RG    03
DYN$C_NDB      = 0000001C            EXE$V_BUGDUMP  = 00000010  G         PMS$GL_SUPER     00000124 R     03
DYN$C_NET      = 00000017            EXE$V_BUGREBOOT= 0000000D  G         PMS$GL_USER      00000128 R     03
DYN$C_PBH      = 00000020            EXE$V_CRDENABL = 00000006  G         RMS$GL_SFDBASE   00000210 RG    03
DYN$C_PCB      = 0000000C            EXE$V_FATAL_BUG= 0000000A  G         SGN$C_BALSETCNT= 00000018
DYN$C_PDB      = 00000021            EXE$V_INIT     = 00000008  G         SGN$C_DFWSCNT  = 00000064
DYN$C_PFL      = 00000023            EXE$V_MULTACP  = 0000000B  G         SGN$C_DFWSQUOTA= 00000078
DYN$C_PIB      = 00000022            EXE$V_NOAUTOCNF= 00000001  G         SGN$C_GBLSECCNT= 00000028
DYN$C_PQB      = 0000000D            EXE$V_NOCLOCK  = 00000005  G         SGN$C_MAXGPGCNT= 00000800
DYN$C_PTR      = 00000025            EXE$V_NOCLUSTER= 0000000C  G         SGN$C_MAXPAGCNT= 00004000
DYN$C_RVT      = 0000000E            EXE$V_POOLPGING= 00000003  G         SGN$C_MAXPGFL  = 00001000
DYN$C_SFT      = 00000024            EXE$V_SBIERR   = 00000007  G         SGN$C_MAXPSTCNT= 00000005
DYN$C_SSB      = 0000001D            EXE$V_SETTIME  = 00000009  G         SGN$C_MAXVPGCNT= 00002000
DYN$C_TQE      = 0000000F            EXE$V_SHRF11ACP= 0000000F  G         SGN$C_MAXWSCNT = 00000400
DYN$C_TYPAHD   = 00000014            EXE$V_SIMULATOR= 00000004  G         SGN$C_MINWSCNT = 0000000A
DYN$C_UCB      = 00000010            EXE$V_SYSPAGING= 00000002  G         SGN$C_NPAGEDYN = 00006800
DYN$C_VCB      = 00000011            EXE$V_SYSUAFALT= 0000000E  G         SGN$C_NPROCS   = 00000040
DYN$C_WCB      = 00000012            EXE$V_SYSWRTABL= 00000000  G         SGN$C_PAGEDYN  = 00004000
EXE$GL_ABSTIM    00000134 RG    03   FIL$GT_DDDEV     0000008C RG    03   SGN$C_PHYPAGCNT= 00001000
EXE$GL_CEBMTX    000001C4 RG    03   GBL...         = 00000001            SGN$C_SFTMAX   = 00000003
EXE$GL_DMPCHK    00000018 RG    03   IOC$GL_AQBLIST   000000A8 RG    03   SGN$C_SYSDWSCNT= 00000028
EXE$GL_FLAGS     0000001C RG    03   IOC$GL_DEVLIST   ********   X   03   SGN$C_SYSVECPGS= 00000003
EXE$GL_GPT       000001DC RG    03   IOC$GL_DIALUP    000000B4 RG    03   SGN$C_SYSWSCNT = 00000060
EXE$GL_GSDDELBL  000000DC RG    03   IOC$GL_IRPBL     000000A4 RG    03   SWI$GL_FQBL      00000034 RG    03
EXE$GL_GSDDELFL  000000D8 RG    03   IOC$GL_IRPFL     000000A0 RG    03   SWI$GL_FQFL      00000030 RG    03
EXE$GL_GSDFREBL  000000D4 RG    03   IOC$GL_MUTEX     000001C0 RG    03   SYS$GQ_VERSION   000001E4 RG    03
EXE$GL_GSDFREFL  000000D0 RG    03   IOC$GL_PSBL      0000009C RG    03   SYS$GW_BJOBCNT   000001F0 RG    03
EXE$GL_GSDGRPBL  000000C4 RG    03   IOC$GL_PSFL      00000098 RG    03   SYS$GW_IJOBCNT   000001EC RG    03
EXE$GL_GSDGRPFL  000000C0 RG    03   IOC$GQ_BRDCST    000000B8 RG    03   SYS$GW_NJOBCNT   000001EE RG    03
SYSCOMMON       DATA BASES                                       21-AUG-1978 20:13:16   VAX-11 MACRO X0.3-11               Page  12
SYMBOL TABLE                                                                                                                     (1)

SYS$K_VERSION    ********   X   03   WCB$V_SEQONLY  = 00000006
TQE$B_EFN        00000029            WCB$V_SHRWCB   = 00000003
TQE$B_RMOD       00000028            WCB$V_SPOOL    = 00000004
TQE$B_RQTYPE     0000000B            WCB$V_WRITE    = 00000001
TQE$B_TYPE       0000000A            WCB$V_WRITEAC  = 00000008
TQE$C_LENGTH     00000030            WCB$V_WRITECK  = 00000005
TQE$C_SSREPT   = 00000005            WCB$W_ACON       00000014
TQE$C_SSSNGL   = 00000001            WCB$W_COUNT      00000000
TQE$C_TMSNGL   = 00000000            WCB$W_NMAP       00000016
TQE$C_WKREPT   = 00000006            WCB$W_P1_COUNT   00000024
TQE$C_WKSNGL   = 00000002            WCB$W_P2_COUNT   0000002A
TQE$K_LENGTH     00000030            WCB$W_PREVCOUNT  FFFFFFFA
TQE$L_AST        00000010            WCB$W_REFCNT     0000000E
TQE$L_ASTPRM     00000014            WCB$W_SIZE       00000008
TQE$L_FPC        0000000C
TQE$L_FR3        00000010
TQE$L_FR4        00000014
TQE$L_PID        0000000C
TQE$L_RQPID      0000002C
TQE$L_TQBL       00000004
TQE$L_TQFL       00000000
TQE$M_REPEAT   = 00000004
TQE$Q_DELTA      00000020
TQE$Q_TIME       00000018
TQE$V_REPEAT   = 00000002
TQE$W_SIZE       00000008
TTTIMER          00000178 R     03
TTY$GL_TMRDELTA  00000198 RG    03
TTZ$TIMER        ********   X   03
WCB$B_ACCESS     0000000B
WCB$B_TYPE       0000000A
WCB$C_LENGTH     00000024
WCB$C_MAP        00000024
WCB$K_LENGTH     00000024
WCB$K_MAP        00000024
WCB$L_FCB        00000018
WCB$L_LBN        00000002
WCB$L_ORGUCB     00000010
WCB$L_P1_LBN     00000026
WCB$L_P2_LBN     0000002C
WCB$L_PID        0000000C
WCB$L_PREVLBN    FFFFFFFC
WCB$L_RVT        0000001C
WCB$L_STVBN      00000020
WCB$L_WLBL       00000004
WCB$L_WLFL       00000000
WCB$M_NOTFCP   = 00000004
WCB$M_READ     = 00000001
WCB$M_SHRWCB   = 00000008
WCB$M_WRITE    = 00000002
WCB$V_DLOCK    = 00000001
WCB$V_NOREAD   = 0000000A
WCB$V_NOTFCP   = 00000002
WCB$V_NOTRUNC  = 0000000B
WCB$V_NOWRITE  = 00000000
WCB$V_READ     = 00000000
WCB$V_READCK   = 00000009
SYSCOMMON       DATA BASES                                       21-AUG-1978 20:13:16   VAX-11 MACRO X0.3-11               Page  13
PROGRAM SECTION SYNOPSIS                                                                                                         (1)


PROGRAM SECTION SYNOPSIS

.  ABS  .        00000000      00     NOPIC   USR   CON   ABS   LCL NOSHR NOEXE NORD  NOWRT BYTE
. BLANK .        00000000      01     NOPIC   USR   CON   REL   LCL NOSHR   EXE   RD    WRT BYTE
$ABS$            FFFFFFFC      02     NOPIC   USR   CON   ABS   LCL NOSHR   EXE   RD    WRT BYTE
$$$260           00000214      03     NOPIC   USR   CON   REL   LCL NOSHR   EXE   RD    WRT QUAD


THERE WERE NO ERRORS OR WARNINGS.
21056. BYTES LEFT IN FREE MEMORY POOL.
30. BYTES OF RECLAIMED MEMORY.
OBJ$:SYSCOMMON,LIS$:SYSCOMMON/-SP=EXECML$/ML,SRC$:SYSCOMMON
2 MLB DIR RDS - 319 GETS TO DEFINE 15 MACROS. 23 INTER. FILE WRITES.
