SYSDASSGN       - SYSTEM SERVICE DEASSIGN I/O CHANNEL            21-AUG-1978 20:25:43   VAX-11 MACRO X0.3-11               Page   0
TABLE OF CONTENTS

   (2)      49  DEASSIGN I/O CHANNEL
SYSDASSGN       - SYSTEM SERVICE DEASSIGN I/O CHANNEL            21-AUG-1978 20:25:43   VAX-11 MACRO X0.3-11               Page   1
01                                                                                                                               (1)

                                     0000     1 	.TITLE	SYSDASSGN - SYSTEM SERVICE DEASSIGN I/O CHANNEL
                                     0000     2 	.IDENT	/01/
                                     0000     3
                                     0000     4 ;
                                     0000     5 ; COPYRIGHT (C) 1977
                                     0000     6 ; DIGITAL EQUIPMENT CORPORATION, MAYNARD, MASS.
                                     0000     7 ;
                                     0000     8 ; THIS SOFTWARE IS FURNISHED UNDER  A LICENSE FOR USE ONLY  ON  A
                                     0000     9 ; SINGLE COMPUTER SYSTEM AND MAY BE  COPIED ONLY WITH  THE INCLU-
                                     0000    10 ; SION OF  THE  ABOVE  COPYRIGHT NOTICE.  THIS SOFTWARE,  OR  ANY
                                     0000    11 ; OTHER COPIES THEREOF, MAY NOT BE  PROVIDED  OR  OTHERWISE  MADE
                                     0000    12 ; AVAILABLE TO ANY OTHER PERSON EXCEPT  FOR  USE  ON  SUCH SYSTEM
                                     0000    13 ; AND TO  ONE WHO AGREES  TO  THESE LICENSE  TERMS.  TITLE TO AND
                                     0000    14 ; OWNERSHIP OF THE SOFTWARE SHALL AT ALL TIMES REMAIN IN DEC.
                                     0000    15 ;
                                     0000    16 ; THE INFORMATION IN THIS SOFTWARE  IS  SUBJECT TO CHANGE WITHOUT
                                     0000    17 ; NOTICE AND SHOULD NOT BE CONSTRUED  AS  A COMMITMENT BY DIGITAL
                                     0000    18 ; EQUIPMENT CORPORATION.
                                     0000    19 ;
                                     0000    20 ; DEC ASSUMES NO RESPONSIBILITY FOR THE USE OR RELIABILITY OF ITS
                                     0000    21 ; SOFTWARE ON EQUIPMENT WHICH IS NOT SUPPLIED BY DEC.
                                     0000    22 ;
                                     0000    23 ; D. N. CUTLER 26-AUG-76
                                     0000    24 ;
                                     0000    25 ; SYSTEM SERVICE DEASSIGN I/O CHANNEL
                                     0000    26 ;
                                     0000    27 ; MACRO LIBRARY CALLS
                                     0000    28 ;
                                     0000    29
                                     0000    30 	$CCBDEF				;DEFINE CCB OFFSETS
                                     0000    31 	$DDBDEF				;DEFINE DDB OFFSETS
                                     0000    32 	$DDTDEF				;DEFINE DDT OFFSETS
                                     0000    33 	$IODEF				;DEFINE I/O FUNCTION CODES
                                     0000    34 	$IPLDEF				;DEFINE INTERRUPT PRIORITY LEVELS
                                     0000    35 	$PCBDEF				;DEFINE PCB OFFSETS
                                     0000    36 	$PRDEF				;DEFINE PROCESSOR REGISTERS
                                     0000    37 	$RSNDEF				;DEFINE RESOURCE WAIT NUMBERS
                                     0000    38 	$SSDEF				;DEFINE SYSTEM STATUS VALUES
                                     0000    39 	$UCBDEF				;DEFINE UCB OFFSETS
                                     0000    40
                                     0000    41 ;
                                     0000    42 ; LOCAL SYMBOLS
                                     0000    43 ;
                                     0000    44 ; ARGUMENT LIST OFFSET DEFINITIONS
                                     0000    45 ;
                                     0000    46
                           00000004  0000    47 CHAN=4					;I/O CHANNEL NUMBER
SYSDASSGN       - SYSTEM SERVICE DEASSIGN I/O CHANNEL            21-AUG-1978 20:25:43   VAX-11 MACRO X0.3-11               Page   2
01              DEASSIGN I/O CHANNEL                                                                                             (2)

                                     0000    49 	.SBTTL	DEASSIGN I/O CHANNEL
                                     0000    50 ;+
                                     0000    51 ; EXE$DASSGN - DEASSIGN I/O CHANNEL
                                     0000    52 ;
                                     0000    53 ; THIS SERVICE DEASSIGNS A PREVIOUSLY ASSIGNED I/O CHANNEL AND CLEARS THE
                                     0000    54 ; LINKAGE AND CONTROL INFORMATION IN THE CORRESPONDING CHANNEL CONTROL BLOCK.
                                     0000    55 ; IF ANY I/O IS OUTSTANDING ON THE CHANNEL IT IS CANCELLED. IF A FILE IS
                                     0000    56 ; OPEN ON THE CHANNEL IT IS CLOSED. IF A MAILBOX WAS ASSOCIATED WITH THE
                                     0000    57 ; DEVICE WHEN IT WAS ASSIGNED, THE LINKAGE TO THE MAILBOX IS CLEARED. IF THE
                                     0000    58 ; THE CHANNEL IS LAST ONE ASSIGNED TO THE DEVICE AND IT IS MARKED FOR DIS-
                                     0000    59 ; MOUNT, THEN THE DISMOUNT IS COMPLETED.
                                     0000    60 ;
                                     0000    61 ; INPUTS:
                                     0000    62 ;
                                     0000    63 ;	CHAN(AP) = NUMBER OF THE I/O CHANNEL TO DEASSIGN.
                                     0000    64 ;
                                     0000    65 ;	R4 = CURRENT PROCESS PCB ADDRESS.
                                     0000    66 ;
                                     0000    67 ; OUTPUTS:
                                     0000    68 ;
                                     0000    69 ;	R0 LOW BIT CLEAR INDICATES FAILURE TO DEASSIGN CHANNEL.
                                     0000    70 ;
                                     0000    71 ;		R0 = SS$_IVCHAN - INVALID CHANNEL NUMBER SPECIFIED.
                                     0000    72 ;
                                     0000    73 ;		R0 = SS$_NOPRIV - SPECIFIED CHANNEL IS NOT ASSIGNED TO A
                                     0000    74 ;			DEVICE OR THE CALLER DOES NOT HAVE SUFFICIENT
                                     0000    75 ;			PRIVILEGE TO ACCESS THE CHANNEL.
                                     0000    76 ;
                                     0000    77 ;	R0 LOW BIT SET INDICATES SUCCESSFUL COMPLETION.
                                     0000    78 ;
                                     0000    79 ;		R0 = SS$_NORMAL - NORMAL COMPLETION.
                                     0000    80 ;-
                                     0000    81
                               00FC' 0000    82 	.ENTRY	EXE$DASSGN,^M<R2,R3,R4,R5,R6,R7>
            55         04 AC     3C  0002    83 	MOVZWL	CHAN(AP),R5		;GET CHANNEL NUMBER
            50            55     D0  0006    84 	MOVL	R5,R0			;COPY I/O CHANNEL NUMBER
                 00000000'EF     16  0009    85 	JSB	IOC$VERIFYCHAN		;VERIFY CHANNEL NUMBER
            57            50     E9  000F    86 	BLBC	R0,50$			;IF LBC INVALID CHANNEL
            56            51     D0  0012    87 	MOVL	R1,R6			;COPY ADDRESS OF CCB
            57            52     D0  0015    88 	MOVL	R2,R7			;SAVE CHANNEL INDEX
                                     0018    89 	$CANCEL_S R5			;CANCEL I/O ON CHANNEL
                       04 A6     D5  0022    90 20$:	TSTL	CCB$L_WIND(R6)		;FILE ACCESSED ON CHANNEL?
                          25     13  0025    91 	BEQL	30$			;IF EQL NO
                                     0027    92 	$QIOW_S	#31,R5,#IO$_DEACCESS	;DEACCESS FILE
            07            50     E8  0042    93 	BLBS	R0,30$			;IF LBS SUCCESSFUL COMPLETION
            50       00AC 8F     B1  0045    94 	CMPW	#SS$_FILNOTACC,R0	;NO FILE ACCESSED?
                          1D     12  004A    95 	BNEQ	50$			;IF NEQ NO
                          7E     DC  004C    96 30$:	MOVPSL	-(SP)			;SAVE CURRENT PROCESSOR STATUS
                                     004E    97 	SETIPL	#IPL$_ASTDEL		;RAISE TO AST DELIVERY LEVEL
                       0A A6     B5  0051    98 	TSTW	CCB$W_IOC(R6)		;ANY I/O STILL OUTSTANDING?
                          14     13  0054    99 	BEQL	60$			;IF EQL NO
                                     0056   100 	SETIPL	#IPL$_SYNCH		;RAISE TO SYNCHRONIZATION LEVEL
            50            13     DB  0059   101 	MFPR	#PR$_ASTLVL,R0		;READ CURRENT AST LEVEL
                          06     13  005C   102 	BEQL	40$			;IF EQL AST QUEUED
            50            01     3C  005E   103 	MOVZWL	#RSN$_ASTWAIT,R0	;SET AST WAIT RESOURCE WAIT NUMBER
                          FF9C'  30  0061   104 	BSBW	SCH$RWAIT		;WAIT FOR AST
                                     0064   105 40$:	SETIPL	#0			;ALLOW INTERRUPTS
SYSDASSGN       - SYSTEM SERVICE DEASSIGN I/O CHANNEL            21-AUG-1978 20:25:43   VAX-11 MACRO X0.3-11               Page   3
01              DEASSIGN I/O CHANNEL                                                                                             (2)

                          B9     11  0067   106 	BRB	20$			;
                                 04  0069   107 50$:	RET				;
                          FF93'  30  006A   108 60$:	BSBW	SCH$IOLOCKW		;LOCK I/O DATABASE FOR WRITE ACCESS
            55            66     D0  006D   109 	MOVL	CCB$L_UCB(R6),R5	;GET ASSIGNED DEVICE UCB ADDRESS
                       09 A6     94  0070   110 	CLRB	CCB$B_AMOD(R6)		;DEASSIGN CHANNEL
                       50 A5     B7  0073   111 	DECW	UCB$W_REFC(R5)		;DECREMENT DEVICE REFERENCE COUNT
                          14     13  0076   112 	BEQL	70$			;IF EQL LAST REFERENCE
         50 A5            01     B1  0078   113 	CMPW	#1,UCB$W_REFC(R5)	;UCB REFERENCE COUNT ONE?
                          77     12  007C   114 	BNEQ	120$			;IF NEQ NO
         34 A5            00'    E1  007E   115 	BBC	S^#DEV$V_ALL,UCB$L_DEVCHAR(R5),120$ ;IF CLR, DEVICE NOT ALLOCATED
                          72         0082
         28 A5         60 A4     D1  0083   116 	CMPL	PCB$L_PID(R4),UCB$L_PID(R5) ;ALLOCATED TO CURRENT PROCESS?
                          6B     12  0088   117 	BNEQ	120$			;IF NEQ NO
                          03     11  008A   118 	BRB	80$			;
                       28 A5     D4  008C   119 70$:	CLRL	UCB$L_PID(R5)		;CLEAR OWNER PROCESS ID
         34 A5            00'    E1  008F   120 80$:	BBC	S^#DEV$V_DMT,UCB$L_DEVCHAR(R5),90$ ;IF CLR, NOT MARKED FOR DISMOUNT
                          22         0093
         34 A5            00'    E1  0094   121 	BBC	S^#DEV$V_FOR,UCB$L_DEVCHAR(R5),90$ ;IF CLR, STRUCTURED VOLUME
                          1D         0098
                                 CA  0099   122 	BICL	#DEV$M_DMT!DEV$M_FOR!-	;CLEAR MARKED FOR DISMOUNT, FOREIGN, AND
         34 A5   00000000'8F         009A   123 		DEV$M_MNT,UCB$L_DEVCHAR(R5) ;MOUNTED
            50         30 A5     D0  00A1   124 	MOVL	UCB$L_VCB(R5),R0	;GET ADDRESS OF VCB
                          0F     13  00A5   125 	BEQL	90$			;IF EQL NONE
                       30 A5     D4  00A7   126 	CLRL	UCB$L_VCB(R5)		;CLEAR ADDRESS OF VCB
                          FF53'  30  00AA   127 	BSBW	EXE$DEANONPAGED		;DEALLOCATE VCB
                       1A A5     B4  00AD   128 	CLRW	UCB$W_VPROT(R5)		;CLEAR VOLUME PROTECTION MASK
         58 A5       0800 8F     AA  00B0   129 	BICW	#UCB$M_VALID,UCB$W_STS(R5) ;CLEAR SOFTWARE VOLUME VALID
            50         24 A5     D0  00B6   130 90$:	MOVL	UCB$L_DDB(R5),R0	;GET ADDRESS OF DDB
            50         0C A0     D0  00BA   131 	MOVL	DDB$L_DDT(R0),R0	;GET ADDRESS OF DDT
                                     00BE   132 	SETIPL	UCB$B_FIPL(R5)		;RAISE TO DEVICE FORK IPL
            53         4C A5     D0  00C2   133 	MOVL	UCB$L_IRP(R5),R3	;GET CURRENT I/O PACKET ADDRESS
            52            57     D0  00C6   134 	MOVL	R7,R2			;SET CHANNEL INDEX
            50         0C A0     C1  00C9   135 	ADDL3	DDT$L_CANCEL(R0),R0,R1	;CALCULATE ADDRESS OF CANCEL ROUTINE
                          51         00CD
                          03     19  00CE   136 	BLSS	100$			;IF LSS SYSTEM ADDRESS
            51            50     C2  00D0   137 	SUBL	R0,R1			;SUBTRACT OUT BASE ADDRESS
                          61     16  00D3   138 100$:	JSB	(R1)			;CALL CANCEL I/O ROUTINE
                                     00D5   139 	SETIPL	#IPL$_ASTDEL		;LOWER TO AST DELIVERY LEVEL
            53            55     D0  00D8   140 	MOVL	R5,R3			;COPY ADDRESS OF DEVICE UCB
            55         54 A5     D0  00DB   141 	MOVL	UCB$L_AMB(R5),R5	;GET ASSOCIATED MAILBOX UCB ADDRESS
                          0E     13  00DF   142 	BEQL	110$			;IF EQL NONE
         34 A5            00'    E1  00E1   143 	BBC	S^#DEV$V_MBX,UCB$L_DEVCHAR(R5),110$ ;IF CLR, DEVICE NOT MAILBOX
                          09         00E5
                       54 A3     D4  00E6   144 	CLRL	UCB$L_AMB(R3)		;CLEAR ASSOCIATED MAILBOX ADDRESSS
                       50 A5     B7  00E9   145 	DECW	UCB$W_REFC(R5)		;DECREMENT MAILBOX UCB REFERENCE COUNT
                          FF11'  30  00EC   146 	BSBW	IOC$DELMBX		;CHECK FOR MAILBOX DELETION
            55            66     D0  00EF   147 110$:	MOVL	CCB$L_UCB(R6),R5	;RETRIEVE ASSIGNED DEVICE UCB ADDRESS
                          FF0B'  30  00F2   148 	BSBW	IOC$DELMBX		;CHECK FOR MAILBOX DELETION
            50            01     3C  00F5   149 120$:	MOVZWL	#SS$_NORMAL,R0		;SET NORMAL COMPLETION
                 00000000'EF     17  00F8   150 	JMP	IOC$UNLOCK		;UNLOCK I/O DATA BASE AND RETURN
                                     00FE   151
                                     00FE   152 	.END
SYSDASSGN       - SYSTEM SERVICE DEASSIGN I/O CHANNEL            21-AUG-1978 20:25:43   VAX-11 MACRO X0.3-11               Page   4
SYMBOL TABLE                                                                                                                     (2)

$$T1           = 00000001            IO$M_INHERLOG  = 00000800            IO$V_STARTUP   = 00000006
BIT...         = 00000000            IO$M_INHEXTGAP = 00001000            IO$V_SYNCH     = 00000009
CCB$B_AMOD       00000009            IO$M_INHRETRY  = 00008000            IO$V_TIMED     = 00000007
CCB$B_STS        00000008            IO$M_INHSEEK   = 00001000            IO$V_TRMNOECHO = 0000000C
CCB$C_LENGTH     00000010            IO$M_INTERRUPT = 00000040            IO$V_WRTATTN   = 00000008
CCB$K_LENGTH     00000010            IO$M_INTSKIP   = 00000100            IO$_ACCESS     = 00000032
CCB$L_DIRP       0000000C            IO$M_MOUNT     = 00000200            IO$_ACPCONTROL = 00000038
CCB$L_UCB        00000000            IO$M_NOECHO    = 00000040            IO$_CREATE     = 00000033
CCB$L_WIND       00000004            IO$M_NOFILTR   = 00000200            IO$_DEACCESS   = 00000034
CCB$W_IOC        0000000A            IO$M_NOFORMAT  = 00000100            IO$_DELETE     = 00000035
CHAN           = 00000004            IO$M_NOW       = 00000040            IO$_DIAGNOSE   = 0000001D
DDB$B_ACPCLASS   00000013            IO$M_NOWAIT    = 00000080            IO$_DRVCLR     = 00000004
DDB$B_TYPE       0000000A            IO$M_PACKED    = 00000080            IO$_ERASETAPE  = 00000006
DDB$C_LENGTH     00000034            IO$M_PURGE     = 00000800            IO$_LOGICAL    = 0000002F
DDB$K_LENGTH     00000034            IO$M_READATTN  = 00000080            IO$_MODIFY     = 00000036
DDB$L_ACPD       00000010            IO$M_REVERSE   = 00000040            IO$_MOUNT      = 00000039
DDB$L_DDT        0000000C            IO$M_SHUTDOWN  = 00000080            IO$_NOP        = 00000000
DDB$L_LINK       00000000            IO$M_STARTUP   = 00000040            IO$_OFFSET     = 00000006
DDB$L_UCB        00000004            IO$M_SYNCH     = 00000200            IO$_PACKACK    = 00000008
DDB$T_DRVNAME    00000024            IO$M_TIMED     = 00000080            IO$_PHYSICAL   = 0000001F
DDB$T_NAME       00000014            IO$M_TRMNOECHO = 00001000            IO$_READHEAD   = 0000000E
DDB$W_SIZE       00000008            IO$M_WRTATTN   = 00000100            IO$_READLBLK   = 00000021
DDT$L_CANCEL     0000000C            IO$S_FCODE     = 00000006            IO$_READPBLK   = 0000000C
DDT$L_FDT        00000008            IO$V_ABORT     = 00000008            IO$_READPRESET = 00000019
DDT$L_INIT       00000018            IO$V_ACCESS    = 00000006            IO$_READPROMPT = 00000037
DDT$L_REGDUMP    00000010            IO$V_ATTNAST   = 00000008            IO$_READTRACKD = 00000010
DDT$L_START      00000000            IO$V_BINARY    = 00000006            IO$_READVBLK   = 00000031
DDT$L_UNSOLINT   00000004            IO$V_CANCTRLO  = 00000006            IO$_RECAL      = 00000003
DDT$W_DIAGBUF    00000014            IO$V_COMMOD    = 00000006            IO$_RELEASE    = 00000005
DDT$W_ERRORBUF   00000016            IO$V_CREATE    = 00000007            IO$_RETCENTER  = 00000007
DEV$M_DMT        ********   X   01   IO$V_CTRLCAST  = 00000008            IO$_REWIND     = 00000024
DEV$M_FOR        ********   X   01   IO$V_CTRLYAST  = 00000007            IO$_REWINDOFF  = 00000022
DEV$M_MNT        ********   X   01   IO$V_CVTLOW    = 00000008            IO$_SEARCH     = 00000009
DEV$V_ALL        ********   X   01   IO$V_DATACHECK = 0000000E            IO$_SEEK       = 00000002
DEV$V_DMT        ********   X   01   IO$V_DELETE    = 00000008            IO$_SENSECHAR  = 0000001B
DEV$V_FOR        ********   X   01   IO$V_DMOUNT    = 0000000A            IO$_SENSEMODE  = 00000027
DEV$V_MBX        ********   X   01   IO$V_DSABLMBX  = 0000000A            IO$_SETCHAR    = 0000001A
EXE$DASSGN       00000000 RG    01   IO$V_ENABLMBX  = 00000007            IO$_SETMODE    = 00000023
EXE$DEANONPAGED  ********   X   01   IO$V_FCODE     = 00000000            IO$_SKIPFILE   = 00000025
GBL...         = 00000000            IO$V_HANGUP    = 00000009            IO$_SKIPRECORD = 00000026
IO$M_ABORT     = 00000100            IO$V_INHERLOG  = 0000000B            IO$_SPACEFILE  = 00000002
IO$M_ACCESS    = 00000040            IO$V_INHEXTGAP = 0000000C            IO$_SPACERECORD= 00000009
IO$M_ATTNAST   = 00000100            IO$V_INHRETRY  = 0000000F            IO$_STARTSPNDL = 00000019
IO$M_BINARY    = 00000040            IO$V_INHSEEK   = 0000000C            IO$_UNLOAD     = 00000001
IO$M_CANCTRLO  = 00000040            IO$V_INTERRUPT = 00000006            IO$_VIRTUAL    = 0000003F
IO$M_COMMOD    = 00000040            IO$V_INTSKIP   = 00000008            IO$_WRITECHECK = 0000000A
IO$M_CREATE    = 00000080            IO$V_MOUNT     = 00000009            IO$_WRITECHECKH= 00000018
IO$M_CTRLCAST  = 00000100            IO$V_NOECHO    = 00000006            IO$_WRITEHEAD  = 0000000D
IO$M_CTRLYAST  = 00000080            IO$V_NOFILTR   = 00000009            IO$_WRITELBLK  = 00000020
IO$M_CVTLOW    = 00000100            IO$V_NOFORMAT  = 00000008            IO$_WRITEMARK  = 0000001C
IO$M_DATACHECK = 00004000            IO$V_NOW       = 00000006            IO$_WRITEOF    = 00000028
IO$M_DELETE    = 00000100            IO$V_NOWAIT    = 00000007            IO$_WRITEPBLK  = 0000000B
IO$M_DMOUNT    = 00000400            IO$V_PACKED    = 00000007            IO$_WRITETRACKD= 0000000F
IO$M_DSABLMBX  = 00000400            IO$V_PURGE     = 0000000B            IO$_WRITEVBLK  = 00000030
IO$M_ENABLMBX  = 00000080            IO$V_READATTN  = 00000007            IOC$DELMBX       ********   X   01
IO$M_FCODE     = 0000003F            IO$V_REVERSE   = 00000006            IOC$UNLOCK       ********   X   01
IO$M_HANGUP    = 00000200            IO$V_SHUTDOWN  = 00000007            IOC$VERIFYCHAN   ********   X   01
SYSDASSGN       - SYSTEM SERVICE DEASSIGN I/O CHANNEL            21-AUG-1978 20:25:43   VAX-11 MACRO X0.3-11               Page   5
SYMBOL TABLE                                                                                                                     (2)

IPL$_ASTDEL    = 00000002            PCB$V_SWPVBN   = 00000010            PR$_TODR       = 0000001B
IPL$_HWCLK     = 00000018            PCB$V_WAKEPEN  = 0000000C            PR$_TXCS       = 00000022
IPL$_IOPOST    = 00000004            PCB$V_WALL     = 0000000D            PR$_TXDB       = 00000023
IPL$_MAILBOX   = 0000000B            PCB$W_APTCNT     00000034            PR$_USP        = 00000003
IPL$_POWER     = 0000001F            PCB$W_ASTCNT     0000003C            PR$_WCSA       = 0000002C
IPL$_QUEUEAST  = 00000006            PCB$W_BIOCNT     0000003E            PR$_WCSD       = 0000002D
IPL$_SCHED     = 00000003            PCB$W_BIOLM      00000040            RSN$_ASTWAIT   = 00000001
IPL$_SYNCH     = 00000007            PCB$W_BYTCNT     00000042            RSN$_BRKTHRU   = 00000006
IPL$_TIMER     = 00000007            PCB$W_BYTLM      00000068            RSN$_IACLOCK   = 00000007
PCB$B_ASTACT     0000000C            PCB$W_DIOCNT     00000044            RSN$_MAILBOX   = 00000002
PCB$B_ASTEN      0000000D            PCB$W_DIOLM      00000046            RSN$_NPDYNMEM  = 00000003
PCB$B_PRI        0000000B            PCB$W_FILCNT     00000048            RSN$_PGDYNMEM  = 00000005
PCB$B_PRIB       00000033            PCB$W_GPGCNT     00000038            RSN$_PGFILE    = 00000004
PCB$B_TYPE       0000000A            PCB$W_GRP        00000022            SCH$IOLOCKW      ********   X   01
PCB$B_WEFC       00000032            PCB$W_MEM        00000020            SCH$RWAIT        ********   X   01
PCB$C_LENGTH     0000007C            PCB$W_MTXCNT     0000000E            SS$_ABORT      = 0000002C
PCB$K_LENGTH     0000007C            PCB$W_PPGCNT     0000003A            SS$_ACCONFLICT = 00000800
PCB$L_ASTQBL     00000014            PCB$W_PRCCNT     0000006A            SS$_ACCVIO     = 0000000C
PCB$L_ASTQFL     00000010            PCB$W_SIZE       00000008            SS$_ACPVAFUL   = 000002FC
PCB$L_EFC2P      00000058            PCB$W_STATE      00000030            SS$_ARTRES     = 00000474
PCB$L_EFC3P      0000005C            PCB$W_TMBU       00000036            SS$_ASTFLT     = 0000040C
PCB$L_EFCS       00000050            PCB$W_TQCNT      0000004A            SS$_BADATTRIB  = 00000034
PCB$L_EFCU       00000054            PR$_ACCR       = 00000029            SS$_BADCHKSUM  = 00000808
PCB$L_EFWM       0000004C            PR$_ACCS       = 00000028            SS$_BADESCAPE  = 0000003C
PCB$L_OWNER      0000001C            PR$_ASTLVL     = 00000013            SS$_BADFILEHDR = 00000810
PCB$L_PHD        00000064            PR$_ESP        = 00000001            SS$_BADFILENAME= 00000818
PCB$L_PHYPCB     00000018            PR$_ICCS       = 00000018            SS$_BADFILEVER = 00000820
PCB$L_PID        00000060            PR$_ICR        = 0000001A            SS$_BADIMGHDR  = 00000044
PCB$L_PQB        0000004C            PR$_IPL        = 00000012            SS$_BADIRECTORY= 00000828
PCB$L_SQBL       00000004            PR$_ISP        = 00000004            SS$_BADPARAM   = 00000014
PCB$L_SQFL       00000000            PR$_KSP        = 00000000            SS$_BADSTACK   = 000002B4
PCB$L_STS        00000028            PR$_MAPEN      = 00000038            SS$_BEGOFFILE  = 00000938
PCB$L_UIC        00000020            PR$_NICR       = 00000019            SS$_BLOCKCNTERR= 00000940
PCB$L_WSSWP      00000024            PR$_P0BR       = 00000008            SS$_BREAK      = 00000414
PCB$L_WTIME      0000002C            PR$_P0LR       = 00000009            SS$_BUFBYTALI  = 0000030C
PCB$T_LNAME      0000006C            PR$_P1BR       = 0000000A            SS$_BUFFEROVF  = 00000601
PCB$V_ASTPEN   = 00000011            PR$_P1LR       = 0000000B            SS$_BUGCHECK   = 000002A4
PCB$V_BATCH    = 0000000E            PR$_PCBB       = 00000010            SS$_CANCEL     = 00000830
PCB$V_DELPEN   = 00000001            PR$_PME        = 0000003D            SS$_CHANINTLK  = 0000004C
PCB$V_FORCPEN  = 00000002            PR$_RXCS       = 00000020            SS$_CLIFRCEXT  = 00000980
PCB$V_HIBER    = 00000013            PR$_RXDB       = 00000021            SS$_CMODSUPR   = 0000041C
PCB$V_INQUAN   = 00000003            PR$_SBIER      = 00000034            SS$_CMODUSER   = 00000424
PCB$V_LOGIN    = 00000014            PR$_SBIFS      = 00000030            SS$_COMPAT     = 0000042C
PCB$V_NETWRK   = 00000015            PR$_SBIMT      = 00000033            SS$_CONTINUE   = 00000001
PCB$V_NOACNT   = 0000000F            PR$_SBIQC      = 00000036            SS$_CONTROLC   = 00000651
PCB$V_NODELET  = 00000017            PR$_SBIS       = 00000031            SS$_CONTROLO   = 00000609
PCB$V_PHDRES   = 00000012            PR$_SBISC      = 00000032            SS$_CONTROLY   = 00000611
PCB$V_PSWAPM   = 00000004            PR$_SBITA      = 00000035            SS$_CREATED    = 00000619
PCB$V_PWRAST   = 00000016            PR$_SBR        = 0000000C            SS$_CTRLERR    = 00000054
PCB$V_RES      = 00000000            PR$_SCBB       = 00000011            SS$_DATACHECK  = 0000005C
PCB$V_RESPEN   = 00000005            PR$_SID        = 0000003E            SS$_DATAOVERUN = 00000838
PCB$V_SSFEXC   = 00000006            PR$_SIRR       = 00000014            SS$_DEBUG      = 0000046C
PCB$V_SSFEXCE  = 00000007            PR$_SISR       = 00000015            SS$_DECOVF     = 000004A4
PCB$V_SSFEXCS  = 00000008            PR$_SLR        = 0000000D            SS$_DEVACTIVE  = 000002C4
PCB$V_SSFEXCU  = 00000009            PR$_SSP        = 00000002            SS$_DEVALLOC   = 00000840
PCB$V_SSRWAIT  = 0000000A            PR$_TBIA       = 00000039            SS$_DEVALRALLOC= 00000641
PCB$V_SUSPEN   = 0000000B            PR$_TBIS       = 0000003A            SS$_DEVASSIGN  = 00000848
SYSDASSGN       - SYSTEM SERVICE DEASSIGN I/O CHANNEL            21-AUG-1978 20:25:43   VAX-11 MACRO X0.3-11               Page   6
SYMBOL TABLE                                                                                                                     (2)

SS$_DEVFOREIGN = 00000064            SS$_IVCHAN     = 0000013C            SS$_PARTESCAPE = 000001FC
SS$_DEVICEFULL = 00000850            SS$_IVCHNLSEC  = 0000026C            SS$_PFMBSY     = 00000204
SS$_DEVMOUNT   = 0000006C            SS$_IVDEVNAM   = 00000144            SS$_PLHLDR     = 00000404
SS$_DEVNOTALLOC= 00000858            SS$_IVGSDNAM   = 0000014C            SS$_PSTFULL    = 0000020C
SS$_DEVNOTMBX  = 00000074            SS$_IVLOGNAM   = 00000154            SS$_RADRMOD    = 0000044C
SS$_DEVNOTMOUNT= 0000007C            SS$_IVLOGTAB   = 0000015C            SS$_REJECT     = 00000294
SS$_DEVOFFLINE = 00000084            SS$_IVPROTECT  = 000002F4            SS$_REMOTE     = 00000649
SS$_DIRFULL    = 00000860            SS$_IVQUOTAL   = 00000164            SS$_RESIGNAL   = 00000918
SS$_DRVERR     = 0000008C            SS$_IVSECFLG   = 0000016C            SS$_RESULTOVF  = 00000214
SS$_DUPFILENAME= 00000868            SS$_IVSECIDCTL = 000002E4            SS$_ROPRAND    = 00000454
SS$_DUPLNAM    = 00000094            SS$_IVSSRQ     = 00000174            SS$_SECTBLFUL  = 0000021C
SS$_ENDOFFILE  = 00000870            SS$_IVSTSFLG   = 0000017C            SS$_SSFAIL     = 0000045C
SS$_ENDOFTAPE  = 00000878            SS$_IVTIME     = 00000184            SS$_SUBRNG     = 000004AC
SS$_ENDOFUSRLBL= 00000970            SS$_LCKPAGFUL  = 000000D4            SS$_SUPERSEDE  = 00000631
SS$_EXQUOTA    = 0000001C            SS$_LENVIO     = 0000018C            SS$_TAPEPOSLOST= 00000224
SS$_EXTIDXFILE = 00000880            SS$_LKWSETFUL  = 00000194            SS$_TBIT       = 00000464
SS$_FCPREADERR = 00000888            SS$_MBFULL     = 000008D8            SS$_TIMEOUT    = 0000022C
SS$_FCPREPSTN  = 00000988            SS$_MBTOOSML   = 0000019C            SS$_TOOMANYVER = 00000990
SS$_FCPREWNDERR= 00000890            SS$_MCHECK     = 000002BC            SS$_TOOMUCHDATA= 0000029C
SS$_FCPSPACERR = 00000898            SS$_MEDOFL     = 000001A4            SS$_UNASEFC    = 00000234
SS$_FCPWRITERR = 000008A0            SS$_MSGNOTFND  = 00000621            SS$_UNSAFE     = 0000023C
SS$_FILACCERR  = 0000009C            SS$_MTLBLLONG  = 00000304            SS$_UNWIND     = 00000920
SS$_FILALRACC  = 000000A4            SS$_MUSTCLOSEFL= 00000948            SS$_UNWINDING  = 00000928
SS$_FILELOCKED = 000008A8            SS$_NOAQB      = 00000314            SS$_VASFULL    = 00000244
SS$_FILENUMCHK = 000008B0            SS$_NODATA     = 000001AC            SS$_VECINUSE   = 0000024C
SS$_FILESEQCHK = 000008B8            SS$_NOHANDLER  = 000008F8            SS$_VOLINV     = 00000254
SS$_FILESTRUCT = 000008C0            SS$_NOHOMEBLK  = 000008E0            SS$_WAITUSRLBL = 00000950
SS$_FILNOTACC  = 000000AC            SS$_NOIOCHAN   = 000001B4            SS$_WASCLR     = 00000001
SS$_FILNOTCNTG = 000002AC            SS$_NOLINKS    = 0000027C            SS$_WASECC     = 00000639
SS$_FILNOTEXP  = 000000B4            SS$_NOLOGNAM   = 000001BC            SS$_WASSET     = 00000009
SS$_FLTDIV     = 00000494            SS$_NOMBX      = 00000274            SS$_WRITLCK    = 0000025C
SS$_FLTOVF     = 0000048C            SS$_NOMOREFILES= 00000930            SS$_WRONGACP   = 0000031C
SS$_FLTUND     = 0000049C            SS$_NONEXDRV   = 000001C4            SYS$CANCEL       ********   X   01
SS$_FORMAT     = 000000BC            SS$_NONEXPR    = 000008E8            SYS$QIOW         ********   X   01
SS$_GPTFULL    = 000000C4            SS$_NONLOCAL   = 000008F0            UCB$B_AMOD       00000053
SS$_GSDFULL    = 000000CC            SS$_NOPRIV     = 00000024            UCB$B_CEX        00000077
SS$_HANGUP     = 000002CC            SS$_NORMAL     = 00000001            UCB$B_CM1        0000004A
SS$_HEADERFULL = 000008C8            SS$_NOSIGNAL   = 00000900            UCB$B_CM2        0000004B
SS$_IDXFILEFULL= 000008D0            SS$_NOSOLICIT  = 00000284            UCB$B_DEVCLASS   00000038
SS$_ILLBLKNUM  = 000000DC            SS$_NOSUCHDEV  = 00000908            UCB$B_DEVTYPE    00000039
SS$_ILLCNTRFUNC= 000000E4            SS$_NOSUCHFILE = 00000910            UCB$B_DIPL       00000052
SS$_ILLEFC     = 000000EC            SS$_NOSUCHNODE = 0000028C            UCB$B_DX_SCTCNT  000000A6
SS$_ILLIOFUNC  = 000000F4            SS$_NOSUCHSEC  = 00000978            UCB$B_ERTCNT     00000070
SS$_ILLLBLAST  = 00000968            SS$_NOTAPEOP   = 00000264            UCB$B_ERTMAX     00000071
SS$_ILLPAGCNT  = 000000FC            SS$_NOTFILEDEV = 000001CC            UCB$B_ESCAPE     0000004B
SS$_ILLSEQOP   = 000002DC            SS$_NOTINTBLSZ = 000001D4            UCB$B_FEX        00000076
SS$_ILLSER     = 00000104            SS$_NOTLABELMT = 000001DC            UCB$B_FIPL       0000000B
SS$_ILLUSRLBLRD= 00000958            SS$_NOTMODIFIED= 00000659            UCB$B_LOCSRV     0000003C
SS$_ILLUSRLBLWT= 00000960            SS$_NOTNETDEV  = 000002EC            UCB$B_OFFNDX     00000094
SS$_INCVOLLABEL= 0000010C            SS$_NOTRAN     = 00000629            UCB$B_OFFRTC     00000095
SS$_INSFARG    = 00000114            SS$_NOTSQDEV   = 000001E4            UCB$B_REMSRV     0000003D
SS$_INSFMEM    = 00000124            SS$_OPCCUS     = 00000434            UCB$B_SECTORS    0000003C
SS$_INSFRAME   = 0000012C            SS$_OPCDEC     = 0000043C            UCB$B_SLAVE      00000074
SS$_INSFWSL    = 0000011C            SS$_OPINCOMPL  = 000002D4            UCB$B_SPR        00000075
SS$_INTDIV     = 00000484            SS$_PAGOWNVIO  = 000001EC            UCB$B_STATE      00000052
SS$_INTOVF     = 0000047C            SS$_PAGRDERR   = 00000444            UCB$B_TRACKS     0000003D
SS$_IVADDR     = 00000134            SS$_PARITY     = 000001F4            UCB$B_TYPE       0000000A
SYSDASSGN       - SYSTEM SERVICE DEASSIGN I/O CHANNEL            21-AUG-1978 20:25:43   VAX-11 MACRO X0.3-11               Page   7
SYMBOL TABLE                                                                                                                     (2)

UCB$B_VERTSZ     0000003F            UCB$M_NT_BREAK = 00000020            UCB$W_DSTADDR    00000018
UCB$C_LENGTH     00000074            UCB$M_NT_NAME  = 00000010            UCB$W_DX_BCR     000000A4
UCB$C_LOGLNK   = 00000001            UCB$M_ONLINE   = 00000010            UCB$W_EC1        00000090
UCB$K_LENGTH     00000074            UCB$M_POWER    = 00000020            UCB$W_EC2        00000092
UCB$L_AMB        00000054            UCB$M_PRMMBX   = 00000001            UCB$W_ERRCNT     00000072
UCB$L_ASTQBL     00000010            UCB$M_TIM      = 00000001            UCB$W_FUNC       0000007E
UCB$L_ASTQFL     0000000C            UCB$M_TIMOUT   = 00000040            UCB$W_MB_SEED    FFFFFFFC
UCB$L_CPID       0000005C            UCB$M_TT_NOTIF = 00000004            UCB$W_MSGCNT     00000016
UCB$L_CRB        00000020            UCB$M_TT_TIMO  = 00000002            UCB$W_MSGMAX     00000014
UCB$L_DDB        00000024            UCB$M_UNLOAD   = 00001000            UCB$W_NT_CHAN    0000007C
UCB$L_DEVCHAR    00000034            UCB$M_VALID    = 00000800            UCB$W_OFFSET     0000008A
UCB$L_DEVDEPEND  0000003C            UCB$S_LNKPRI   = 00000002            UCB$W_REFC       00000050
UCB$L_DPC        00000080            UCB$S_LTYPE    = 00000002            UCB$W_SIZE       00000008
UCB$L_DUETIM     0000005C            UCB$T_PARTNER    0000000C            UCB$W_SRCADDR    0000001A
UCB$L_DX_BFPNT   0000009C            UCB$V_BACKP    = 00000005            UCB$W_STS        00000058
UCB$L_DX_BUF     00000098            UCB$V_BSY      = 00000008            UCB$W_UNIT       00000048
UCB$L_DX_RXDB    000000A0            UCB$V_CANCEL   = 00000003            UCB$W_VPROT      0000001A
UCB$L_EMB        00000078            UCB$V_DEADMO   = 0000000A
UCB$L_FIRST      00000014            UCB$V_DELMBX   = 00000001
UCB$L_FPC        0000000C            UCB$V_DIAGBUF  = 00000001
UCB$L_FQBL       00000004            UCB$V_DX_WRITE = 00000003
UCB$L_FQFL       00000000            UCB$V_ECC      = 00000000
UCB$L_FR3        00000010            UCB$V_ERLOGIP  = 00000002
UCB$L_FR4        00000014            UCB$V_INT      = 00000001
UCB$L_IOQBL      00000044            UCB$V_INTTYPE  = 00000007
UCB$L_IOQFL      00000040            UCB$V_JOB      = 00000000
UCB$L_IRP        0000004C            UCB$V_LNKPRI   = 00000006
UCB$L_LINK       0000002C            UCB$V_LTYPE    = 00000000
UCB$L_LOGADR     00000064            UCB$V_MOUNTING = 00000009
UCB$L_MAXBLOCK   00000084            UCB$V_MSGACK   = 00000004
UCB$L_MEDIA      0000008C            UCB$V_MSGFLO   = 00000003
UCB$L_NT_DATSSB  00000074            UCB$V_NOCNVRT  = 00000002
UCB$L_NT_INTSSB  00000078            UCB$V_NT_BFROVF= 00000002
UCB$L_OPCNT      00000060            UCB$V_NT_BREAK = 00000005
UCB$L_OWNUIC     0000001C            UCB$V_NT_NAME  = 00000004
UCB$L_PID        00000028            UCB$V_ONLINE   = 00000004
UCB$L_RQBL       00000004            UCB$V_POWER    = 00000005
UCB$L_RQFL       00000000            UCB$V_PRMMBX   = 00000000
UCB$L_SVAPTE     00000068            UCB$V_SEGFLO   = 00000002
UCB$L_SVPN       00000064            UCB$V_TIM      = 00000000
UCB$L_TTCHAR     0000003C            UCB$V_TIMOUT   = 00000006
UCB$L_VCB        00000030            UCB$V_TT_NOTIF = 00000002
UCB$M_BACKP    = 00000020            UCB$V_TT_TIMO  = 00000001
UCB$M_BSY      = 00000100            UCB$V_UNLOAD   = 0000000C
UCB$M_CANCEL   = 00000008            UCB$V_VALID    = 0000000B
UCB$M_DEADMO   = 00000400            UCB$W_BCNT       0000006E
UCB$M_DELMBX   = 00000002            UCB$W_BCR        00000096
UCB$M_DIAGBUF  = 00000002            UCB$W_BOFF       0000006C
UCB$M_DX_WRITE = 00000008            UCB$W_BUFQUO     00000018
UCB$M_ECC      = 00000001            UCB$W_BYTESTOGO  0000003E
UCB$M_ERLOGIP  = 00000004            UCB$W_CHARGE     0000004A
UCB$M_INT      = 00000002            UCB$W_CYLINDERS  0000003E
UCB$M_INTTYPE  = 00000080            UCB$W_DA         0000008C
UCB$M_JOB      = 00000001            UCB$W_DC         0000008E
UCB$M_MOUNTING = 00000200            UCB$W_DEVBUFSIZ  0000003A
UCB$M_NOCNVRT  = 00000004            UCB$W_DEVSTS     0000005A
UCB$M_NT_BFROVF= 00000004            UCB$W_DIRSEQ     00000088
SYSDASSGN       - SYSTEM SERVICE DEASSIGN I/O CHANNEL            21-AUG-1978 20:25:43   VAX-11 MACRO X0.3-11               Page   8
PROGRAM SECTION SYNOPSIS                                                                                                         (2)


PROGRAM SECTION SYNOPSIS

.  ABS  .        00000000      00     NOPIC   USR   CON   ABS   LCL NOSHR NOEXE NORD  NOWRT BYTE
. BLANK .        000000FE      01     NOPIC   USR   CON   REL   LCL NOSHR   EXE   RD    WRT BYTE
$ABS$            FFFFFFFE      02     NOPIC   USR   CON   ABS   LCL NOSHR   EXE   RD    WRT BYTE


THERE WERE NO ERRORS OR WARNINGS.
7300. BYTES LEFT IN FREE MEMORY POOL.
3886. BYTES OF RECLAIMED MEMORY.
OBJ$:SYSDASSGN,LIS$:SYSDASSGN/-SP=EXECML$/ML,SRC$:SYSDASSGN
11 MLB DIR RDS - 1028 GETS TO DEFINE 25 MACROS. 75 INTER. FILE WRITES.
