SYSDCLCMH       - DECLARE CHANGE MODE OR COMPATIBILITY MODE HAN  21-AUG-1978 20:26:23   VAX-11 MACRO X0.3-11               Page   0
TABLE OF CONTENTS

   (1)      43  DECLARE CHANGE MODE OR COMPATIBILITY MODE HANDL
SYSDCLCMH       - DECLARE CHANGE MODE OR COMPATIBILITY MODE HAN  21-AUG-1978 20:26:23   VAX-11 MACRO X0.3-11               Page   1
01                                                                                                                               (1)

                                     0000     1 	.TITLE	SYSDCLCMH - DECLARE CHANGE MODE OR COMPATIBILITY MODE HANDLER
                                     0000     2 	.IDENT	/01/
                                     0000     3
                                     0000     4 ;
                                     0000     5 ; COPYRIGHT (C) 1977
                                     0000     6 ; DIGITAL EQUIPMENT CORPORATION, MAYNARD, MASS.
                                     0000     7 ;
                                     0000     8 ; THIS SOFTWARE IS FURNISHED UNDER  A LICENSE FOR USE ONLY  ON  A
                                     0000     9 ; SINGLE COMPUTER SYSTEM AND MAY BE  COPIED ONLY WITH  THE INCLU-
                                     0000    10 ; SION OF  THE  ABOVE  COPYRIGHT NOTICE.  THIS SOFTWARE,  OR  ANY
                                     0000    11 ; OTHER COPIES THEREOF, MAY NOT BE  PROVIDED  OR  OTHERWISE  MADE
                                     0000    12 ; AVAILABLE TO ANY OTHER PERSON EXCEPT  FOR  USE  ON  SUCH SYSTEM
                                     0000    13 ; AND TO  ONE WHO AGREES  TO  THESE LICENSE  TERMS.  TITLE TO AND
                                     0000    14 ; OWNERSHIP OF THE SOFTWARE SHALL AT ALL TIMES REMAIN IN DEC.
                                     0000    15 ;
                                     0000    16 ; THE INFORMATION IN THIS SOFTWARE  IS  SUBJECT TO CHANGE WITHOUT
                                     0000    17 ; NOTICE AND SHOULD NOT BE CONSTRUED  AS  A COMMITMENT BY DIGITAL
                                     0000    18 ; EQUIPMENT CORPORATION.
                                     0000    19 ;
                                     0000    20 ; DEC ASSUMES NO RESPONSIBILITY FOR THE USE OR RELIABILITY OF ITS
                                     0000    21 ; SOFTWARE ON EQUIPMENT WHICH IS NOT SUPPLIED BY DEC.
                                     0000    22 ;
                                     0000    23 ; H. M. LEVY  17-MAR-77
                                     0000    24 ;
                                     0000    25 ; SYSTEM SERVICE DECLARE CHANGE MODE OR COMPATIBILITY MODE HANDLER
                                     0000    26 ;
                                     0000    27 ; MACRO LIBRARY CALLS
                                     0000    28 ;
                                     0000    29
                                     0000    30 	$PSLDEF				;DEFINE PROCESSOR STATUS FIELDS
                                     0000    31 	$SSDEF				;DEFINE SYSTEM STATUS VALUES
                                     0000    32
                                     0000    33 ;
                                     0000    34 ; LOCAL SYMBOLS
                                     0000    35 ;
                                     0000    36 ; ARGUMENT LIST OFFSET DEFINITIONS
                                     0000    37 ;
                                     0000    38
                           00000004  0000    39 ADDRES=4				;ADDRESS OF NEW CHANGE MODE HANDLER
                           00000008  0000    40 PRVHND=8				;ADDRESS OR RECIEVE OLD HANDLER ADDRESS
                           0000000C  0000    41 TYPE=12					;TYPE OF HANDLER TO DECLARE
SYSDCLCMH       - DECLARE CHANGE MODE OR COMPATIBILITY MODE HAN  21-AUG-1978 20:26:23   VAX-11 MACRO X0.3-11               Page   2
01              DECLARE CHANGE MODE OR COMPATIBILITY MODE HANDL                                                                  (1)

                                     0000    43 	.SBTTL	DECLARE CHANGE MODE OR COMPATIBILITY MODE HANDLER
                                     0000    44 ;+
                                     0000    45 ; EXE$DCLCMH - DECLARE CHANGE MODE OR COMPATIBILITY MODE HANDLER
                                     0000    46 ;
                                     0000    47 ; THIS SERVICE PROVIDES THE CAPABILITY TO SPECIFY A COMPATIBILITY MODE
                                     0000    48 ; HANDLER FOR COMPATIBILITY MODE TRAPS, OR A CHANGE MODE HANDLER FOR
                                     0000    49 ; THE CALLING ACCESS MODE.  A CHANGE MODE HANDLER MAY ONLY BE
                                     0000    50 ; FROM SUPERVISOR OR USER MODES.
                                     0000    51 ;
                                     0000    52 ; INPUTS:
                                     0000    53 ;
                                     0000    54 ;	ADDRES(AP) = ADDRESS OF HANDLER TO BE DECLARED
                                     0000    55 ;	PRVHND(AP) = ADDRESS TO RETURN OLD HANDLER ADDRESS
                                     0000    56 ;	TYPE(AP)  = TYPE OF HANDLER TO BE DECLARED
                                     0000    57 ;		0 -> DECLARE CHANGE MODE HANDLER FOR CURRENT MODE
                                     0000    58 ;		1 -> DECLARE COMPATIBILITY MODE HANDLER
                                     0000    59 ;
                                     0000    60 ;	R4 = CURRENT PROCESS PCB ADDRESS.
                                     0000    61 ;
                                     0000    62 ; IMPLICIT INPUTS:
                                     0000    63 ;
                                     0000    64 ;	CTL$GL_CMSUPR = ADDRESS OF THE FIRST OF THREE VECTORS, THE FIRST
                                     0000    65 ;			TWO BEING THE CHANGE MODE VECTORS FOR SUPERVISOR
                                     0000    66 ;			AND USER MODES, THE THIRD BEING THE COMPATIBILITY
                                     0000    67 ;			MODE VECTOR.
                                     0000    68 ;
                                     0000    69 ; OUTPUTS:
                                     0000    70 ;
                                     0000    71 ;	R0 LOW BIT CLEAR INDICATES FAILURE TO DECLARE CHANGE MODE HANDLER
                                     0000    72 ;
                                     0000    73 ;		R0 = SS$_ACCVIO - PREVIOUS HANDLER ADDRESS CANNOT BE
                                     0000    74 ;			WRITTEN TO @PRVHND(AP) BY CALLING ACCESS MODE.
                                     0000    75 ;
                                     0000    76 ;	R0 LOW BIT SET INDICATES SUCCESSFUL COMPLETION.
                                     0000    77 ;
                                     0000    78 ;		R0 = SS$_NORMAL - NORMAL COMPLETION.
                                     0000    79 ;
                                     0000    80 ; SIDE EFFECTS:
                                     0000    81 ;
                                     0000    82 ;	SERVICE WILL CAUSE A BUGCHECK IF CALLED TO DECLARE CHANGE
                                     0000    83 ;	MODE HANDLER FROM KERNEL OR EXECUTIVE MODES.
                                     0000    84 ;-
                                     0000    85
                                 00000000    86 	.PSECT	Y$EXEPAGED
                               0010' 0000    87 	.ENTRY	EXE$DCLCMH,^M<R4>
            54   00000000'9F     DE  0002    88 	MOVAL	@#CTL$GL_CMSUPR,R4	; ADDRESS OF VECTORS
            50            02     D0  0009    89 	MOVL	#2,R0			; INDEX TO COMPAT. MODE HANDLER VECTOR
            0C         0C AC     E8  000C    90 	BLBS	TYPE(AP),10$		; BRANCH IF DECLARE COMPAT. HANDLER SERVICE
                          50     DC  0010    91 	MOVPSL	R0			; READ CURRENT PSL
            02            16     EF  0012    92 	EXTZV	#PSL$V_PRVMOD,#PSL$S_PRVMOD,R0,R0 ; EXTRACT PREVIOUS MODE
            50            50         0015
            50            02     C2  0017    93 	SUBL	#2,R0			; SUBTRACT SUPERVISOR MODE BIAS
                          19     19  001A    94 	BLSS	30$			; IF LSS, CALLED FROM KERNEL OR EXEC
            51         08 AC     D0  001C    95 10$:	MOVL	PRVHND(AP),R1		; GET ADDRESS TO RETURN PREVIOUS HANDLER
                          0A     13  0020    96 	BEQL	20$			; BRANCH IF NONE SPECIFIED
                                     0022    97 	IFNOWRT	#4,(R1),40$		; CAN IT BE WRITTEN?
            61            6440   D0  0028    98 	MOVL	(R4)[R0],(R1)		; YES, RETURN PREVIOUS HANDLER ADDRESS
SYSDCLCMH       - DECLARE CHANGE MODE OR COMPATIBILITY MODE HAN  21-AUG-1978 20:26:23   VAX-11 MACRO X0.3-11               Page   3
01              DECLARE CHANGE MODE OR COMPATIBILITY MODE HANDL                                                                  (1)

            6440       04 AC     D0  002C    99 20$:	MOVL	ADDRES(AP),(R4)[R0]	; SET NEW HANDLER ADDRESS
            50            01     3C  0031   100 	MOVZWL	#SS$_NORMAL,R0		; NORMAL STATUS
                                 04  0034   101 	RET				;
                                     0035   102 30$:	BUG_CHECK IVSSRVRQST		; INVALID SYSTEM SERVICE REQUEST
            50       0174 8F     3C  0039   103 	MOVZWL	#SS$_IVSSRQ,R0		; INVALID SERVICE REQUEST RETURN CODE
                                 04  003E   104 	RET				;
            50            0C     3C  003F   105 40$:	MOVZWL	#SS$_ACCVIO,R0		; ACCESS VIOLATION CODE
                                 04  0042   106 	RET
                                     0043   107
                                     0043   108 	.END
SYSDCLCMH       - DECLARE CHANGE MODE OR COMPATIBILITY MODE HAN  21-AUG-1978 20:26:23   VAX-11 MACRO X0.3-11               Page   4
SYMBOL TABLE                                                                                                                     (1)

ADDRES         = 00000004            SS$_BUFFEROVF  = 00000601            SS$_GSDFULL    = 000000CC
BIT...         = 00000000            SS$_BUGCHECK   = 000002A4            SS$_HANGUP     = 000002CC
BUG$_IVSSRVRQST  ********   X   03   SS$_CANCEL     = 00000830            SS$_HEADERFULL = 000008C8
CTL$GL_CMSUPR    ********   X   03   SS$_CHANINTLK  = 0000004C            SS$_IDXFILEFULL= 000008D0
EXE$DCLCMH       00000000 RG    03   SS$_CLIFRCEXT  = 00000980            SS$_ILLBLKNUM  = 000000DC
GBL...         = 00000000            SS$_CMODSUPR   = 0000041C            SS$_ILLCNTRFUNC= 000000E4
PRVHND         = 00000008            SS$_CMODUSER   = 00000424            SS$_ILLEFC     = 000000EC
PSL$C_EXEC     = 00000001            SS$_COMPAT     = 0000042C            SS$_ILLIOFUNC  = 000000F4
PSL$C_KERNEL   = 00000000            SS$_CONTINUE   = 00000001            SS$_ILLLBLAST  = 00000968
PSL$C_SUPER    = 00000002            SS$_CONTROLC   = 00000651            SS$_ILLPAGCNT  = 000000FC
PSL$C_USER     = 00000003            SS$_CONTROLO   = 00000609            SS$_ILLSEQOP   = 000002DC
PSL$M_CM       = 80000000            SS$_CONTROLY   = 00000611            SS$_ILLSER     = 00000104
PSL$M_CURMOD   = 03000000            SS$_CREATED    = 00000619            SS$_ILLUSRLBLRD= 00000958
PSL$M_DV       = 00000080            SS$_CTRLERR    = 00000054            SS$_ILLUSRLBLWT= 00000960
PSL$M_FPD      = 08000000            SS$_DATACHECK  = 0000005C            SS$_INCVOLLABEL= 0000010C
PSL$M_FU       = 00000040            SS$_DATAOVERUN = 00000838            SS$_INSFARG    = 00000114
PSL$M_IPL      = 001F0000            SS$_DEBUG      = 0000046C            SS$_INSFMEM    = 00000124
PSL$M_IS       = 04000000            SS$_DECOVF     = 000004A4            SS$_INSFRAME   = 0000012C
PSL$M_IV       = 00000020            SS$_DEVACTIVE  = 000002C4            SS$_INSFWSL    = 0000011C
PSL$M_PRVMOD   = 00C00000            SS$_DEVALLOC   = 00000840            SS$_INTDIV     = 00000484
PSL$M_SAFBITS  = 000037FF            SS$_DEVALRALLOC= 00000641            SS$_INTOVF     = 0000047C
PSL$M_TBIT     = 00000010            SS$_DEVASSIGN  = 00000848            SS$_IVADDR     = 00000134
PSL$M_TP       = 40000000            SS$_DEVFOREIGN = 00000064            SS$_IVCHAN     = 0000013C
PSL$S_CURMOD   = 00000002            SS$_DEVICEFULL = 00000850            SS$_IVCHNLSEC  = 0000026C
PSL$S_IPL      = 00000005            SS$_DEVMOUNT   = 0000006C            SS$_IVDEVNAM   = 00000144
PSL$S_PRVMOD   = 00000002            SS$_DEVNOTALLOC= 00000858            SS$_IVGSDNAM   = 0000014C
PSL$V_CM       = 0000001F            SS$_DEVNOTMBX  = 00000074            SS$_IVLOGNAM   = 00000154
PSL$V_CURMOD   = 00000018            SS$_DEVNOTMOUNT= 0000007C            SS$_IVLOGTAB   = 0000015C
PSL$V_DV       = 00000007            SS$_DEVOFFLINE = 00000084            SS$_IVPROTECT  = 000002F4
PSL$V_FPD      = 0000001B            SS$_DIRFULL    = 00000860            SS$_IVQUOTAL   = 00000164
PSL$V_FU       = 00000006            SS$_DRVERR     = 0000008C            SS$_IVSECFLG   = 0000016C
PSL$V_IPL      = 00000010            SS$_DUPFILENAME= 00000868            SS$_IVSECIDCTL = 000002E4
PSL$V_IS       = 0000001A            SS$_DUPLNAM    = 00000094            SS$_IVSSRQ     = 00000174
PSL$V_IV       = 00000005            SS$_ENDOFFILE  = 00000870            SS$_IVSTSFLG   = 0000017C
PSL$V_PRVMOD   = 00000016            SS$_ENDOFTAPE  = 00000878            SS$_IVTIME     = 00000184
PSL$V_TBIT     = 00000004            SS$_ENDOFUSRLBL= 00000970            SS$_LCKPAGFUL  = 000000D4
PSL$V_TP       = 0000001E            SS$_EXQUOTA    = 0000001C            SS$_LENVIO     = 0000018C
SS$_ABORT      = 0000002C            SS$_EXTIDXFILE = 00000880            SS$_LKWSETFUL  = 00000194
SS$_ACCONFLICT = 00000800            SS$_FCPREADERR = 00000888            SS$_MBFULL     = 000008D8
SS$_ACCVIO     = 0000000C            SS$_FCPREPSTN  = 00000988            SS$_MBTOOSML   = 0000019C
SS$_ACPVAFUL   = 000002FC            SS$_FCPREWNDERR= 00000890            SS$_MCHECK     = 000002BC
SS$_ARTRES     = 00000474            SS$_FCPSPACERR = 00000898            SS$_MEDOFL     = 000001A4
SS$_ASTFLT     = 0000040C            SS$_FCPWRITERR = 000008A0            SS$_MSGNOTFND  = 00000621
SS$_BADATTRIB  = 00000034            SS$_FILACCERR  = 0000009C            SS$_MTLBLLONG  = 00000304
SS$_BADCHKSUM  = 00000808            SS$_FILALRACC  = 000000A4            SS$_MUSTCLOSEFL= 00000948
SS$_BADESCAPE  = 0000003C            SS$_FILELOCKED = 000008A8            SS$_NOAQB      = 00000314
SS$_BADFILEHDR = 00000810            SS$_FILENUMCHK = 000008B0            SS$_NODATA     = 000001AC
SS$_BADFILENAME= 00000818            SS$_FILESEQCHK = 000008B8            SS$_NOHANDLER  = 000008F8
SS$_BADFILEVER = 00000820            SS$_FILESTRUCT = 000008C0            SS$_NOHOMEBLK  = 000008E0
SS$_BADIMGHDR  = 00000044            SS$_FILNOTACC  = 000000AC            SS$_NOIOCHAN   = 000001B4
SS$_BADIRECTORY= 00000828            SS$_FILNOTCNTG = 000002AC            SS$_NOLINKS    = 0000027C
SS$_BADPARAM   = 00000014            SS$_FILNOTEXP  = 000000B4            SS$_NOLOGNAM   = 000001BC
SS$_BADSTACK   = 000002B4            SS$_FLTDIV     = 00000494            SS$_NOMBX      = 00000274
SS$_BEGOFFILE  = 00000938            SS$_FLTOVF     = 0000048C            SS$_NOMOREFILES= 00000930
SS$_BLOCKCNTERR= 00000940            SS$_FLTUND     = 0000049C            SS$_NONEXDRV   = 000001C4
SS$_BREAK      = 00000414            SS$_FORMAT     = 000000BC            SS$_NONEXPR    = 000008E8
SS$_BUFBYTALI  = 0000030C            SS$_GPTFULL    = 000000C4            SS$_NONLOCAL   = 000008F0
SYSDCLCMH       - DECLARE CHANGE MODE OR COMPATIBILITY MODE HAN  21-AUG-1978 20:26:23   VAX-11 MACRO X0.3-11               Page   5
SYMBOL TABLE                                                                                                                     (1)

SS$_NOPRIV     = 00000024
SS$_NORMAL     = 00000001
SS$_NOSIGNAL   = 00000900
SS$_NOSOLICIT  = 00000284
SS$_NOSUCHDEV  = 00000908
SS$_NOSUCHFILE = 00000910
SS$_NOSUCHNODE = 0000028C
SS$_NOSUCHSEC  = 00000978
SS$_NOTAPEOP   = 00000264
SS$_NOTFILEDEV = 000001CC
SS$_NOTINTBLSZ = 000001D4
SS$_NOTLABELMT = 000001DC
SS$_NOTMODIFIED= 00000659
SS$_NOTNETDEV  = 000002EC
SS$_NOTRAN     = 00000629
SS$_NOTSQDEV   = 000001E4
SS$_OPCCUS     = 00000434
SS$_OPCDEC     = 0000043C
SS$_OPINCOMPL  = 000002D4
SS$_PAGOWNVIO  = 000001EC
SS$_PAGRDERR   = 00000444
SS$_PARITY     = 000001F4
SS$_PARTESCAPE = 000001FC
SS$_PFMBSY     = 00000204
SS$_PLHLDR     = 00000404
SS$_PSTFULL    = 0000020C
SS$_RADRMOD    = 0000044C
SS$_REJECT     = 00000294
SS$_REMOTE     = 00000649
SS$_RESIGNAL   = 00000918
SS$_RESULTOVF  = 00000214
SS$_ROPRAND    = 00000454
SS$_SECTBLFUL  = 0000021C
SS$_SSFAIL     = 0000045C
SS$_SUBRNG     = 000004AC
SS$_SUPERSEDE  = 00000631
SS$_TAPEPOSLOST= 00000224
SS$_TBIT       = 00000464
SS$_TIMEOUT    = 0000022C
SS$_TOOMANYVER = 00000990
SS$_TOOMUCHDATA= 0000029C
SS$_UNASEFC    = 00000234
SS$_UNSAFE     = 0000023C
SS$_UNWIND     = 00000920
SS$_UNWINDING  = 00000928
SS$_VASFULL    = 00000244
SS$_VECINUSE   = 0000024C
SS$_VOLINV     = 00000254
SS$_WAITUSRLBL = 00000950
SS$_WASCLR     = 00000001
SS$_WASECC     = 00000639
SS$_WASSET     = 00000009
SS$_WRITLCK    = 0000025C
SS$_WRONGACP   = 0000031C
TYPE           = 0000000C


SYSDCLCMH       - DECLARE CHANGE MODE OR COMPATIBILITY MODE HAN  21-AUG-1978 20:26:23   VAX-11 MACRO X0.3-11               Page   6
PROGRAM SECTION SYNOPSIS                                                                                                         (1)

PROGRAM SECTION SYNOPSIS

.  ABS  .        00000000      00     NOPIC   USR   CON   ABS   LCL NOSHR NOEXE NORD  NOWRT BYTE
. BLANK .        00000000      01     NOPIC   USR   CON   REL   LCL NOSHR   EXE   RD    WRT BYTE
$ABS$            00000000      02     NOPIC   USR   CON   ABS   LCL NOSHR   EXE   RD    WRT BYTE
Y$EXEPAGED       00000043      03     NOPIC   USR   CON   REL   LCL NOSHR   EXE   RD    WRT BYTE


THERE WERE NO ERRORS OR WARNINGS.
17956. BYTES LEFT IN FREE MEMORY POOL.
3718. BYTES OF RECLAIMED MEMORY.
OBJ$:SYSDCLCMH,LIS$:SYSDCLCMH/-SP=EXECML$/ML,SRC$:SYSDCLCMH
3 MLB DIR RDS - 362 GETS TO DEFINE 12 MACROS. 27 INTER. FILE WRITES.
