SYSDERLMB       - DECLARE ERROR LOG MAILBOX YSSTEM SERVICE       21-AUG-1978 20:27:52   VAX-11 MACRO X0.3-11               Page   0
TABLE OF CONTENTS

   (1)    4200  DECLARATIONS
   (1)    6600  SYSDERLMBX - DECLARE ERROR LOG MAILBOX
SYSDERLMB       - DECLARE ERROR LOG MAILBOX YSSTEM SERVICE       21-AUG-1978 20:27:52   VAX-11 MACRO X0.3-11               Page   1
01                                                                                                                               (1)

                                     0000   100 	.TITLE	SYSDERLMB - DECLARE ERROR LOG MAILBOX YSSTEM SERVICE
                                     0000   200 	.IDENT	/01/
                                     0000   300
                                     0000   400 ;
                                     0000   500 ;			  COPYRIGHT (c) 1977 BY
                                     0000   600 ;	      DIGITAL EQUIPMENT CORPORATION, MAYNARD, MASS.
                                     0000   700 ;
                                     0000   800 ; THIS SOFTWARE IS FURNISHED UNDER A LICENSE AND MAY BE USED AND  COPIED
                                     0000   900 ; ONLY  IN  ACCORDANCE  WITH  THE  TERMS  OF  SUCH  LICENSE AND WITH THE
                                     0000  1000 ; INCLUSION OF THE ABOVE COPYRIGHT NOTICE.  THIS SOFTWARE OR  ANY  OTHER
                                     0000  1100 ; COPIES  THEREOF MAY NOT BE PROVIDED OR OTHERWISE MADE AVAILABLE TO ANY
                                     0000  1200 ; OTHER PERSON.  NO TITLE TO AND OWNERSHIP OF  THE  SOFTWARE  IS  HEREBY
                                     0000  1300 ; TRANSFERRED.
                                     0000  1400 ;
                                     0000  1500 ; THE INFORMATION IN THIS SOFTWARE IS SUBJECT TO CHANGE  WITHOUT  NOTICE
                                     0000  1600 ; AND  SHOULD  NOT  BE  CONSTRUED  AS  A COMMITMENT BY DIGITAL EQUIPMENT
                                     0000  1700 ; CORPORATION.
                                     0000  1800 ;
                                     0000  1900 ; DIGITAL ASSUMES NO RESPONSIBILITY FOR THE USE OR  RELIABILITY  OF  ITS
                                     0000  2000 ; SOFTWARE ON EQUIPMENT WHICH IS NOT SUPPLIED BY DIGITAL.
                                     0000  2100 ;
                                     0000  2200
                                     0000  2300 ;++
                                     0000  2400 ; FACILITY: EXECUTIVE, SYSTEM SERVICES
                                     0000  2500 ;
                                     0000  2600 ; ABSTRACT:
                                     0000  2700 ;	SYSDERLMB IMPLEMENTS THE DECLARE ERROR LOG MAILBOX SYSTEM SERVICE
                                     0000  2800 ;	WHICH ENABLES A DIAGNOSTIC OR OTHER PRIVILEGED PROGRAM TO REQUEST
                                     0000  2900 ;	THAT A COPY OF ALL ERROR LOG RECORDS BE WRITTEN A SPECIFIED MAILBOX
                                     0000  3000 ;	UNIT.
                                     0000  3100 ;
                                     0000  3200 ;
                                     0000  3300 ; ENVIRONMENT:
                                     0000  3400 ;	KERNEL MODE
                                     0000  3500 ; AUTHOR: R. I. HUSTVEDT	, CREATION DATE: 19-SEP-77
                                     0000  3600 ;
                                     0000  3700 ; MODIFIED BY:
                                     0000  3800 ;
                                     0000  3900 ;	, : VERSION
                                     0000  4000 ; 01	-
                                     0000  4100 ;--
                                     0000  4200 	.SBTTL	DECLARATIONS
                                     0000  4300 ;
                                     0000  4400 ; INCLUDE FILES:
                                     0000  4500 ;
                                     0000  4600
                                     0000  4700 	$IPLDEF				; DEFINE IPL VALUES
                                     0000  4750 	$PCBDEF				; DEFINE PCB OFFSETS
                                     0000  4775 	$PRDEF				; DEFINE PROCESSOR REGISTERS
                                     0000  4800 	$PRVDEF				; DEFINE PRIVILEGE BIT NUMBERS
                                     0000  4900 	$SSDEF				; DEFINE STATUS CODE VALUES
                                     0000  5000 ;
                                     0000  5100 ; MACROS:
                                     0000  5200 ;
                                     0000  5300
                                     0000  5400 ;
                                     0000  5500 ; EQUATED SYMBOLS:
SYSDERLMB       - DECLARE ERROR LOG MAILBOX YSSTEM SERVICE       21-AUG-1978 20:27:52   VAX-11 MACRO X0.3-11               Page   2
01              DECLARATIONS                                                                                                     (1)

                                     0000  5600 ;
                           00000000  0000  5700 UNIT=0					; UNIT FIELD OF ERROR LOG MAILBOX DESCRIPTOR
                           00000004  0000  5800 PID=4					; PROCESS ID FIELD OF ERROR LOG MAILBOX DESCR
                                     0000  5900
                           00000004  0000  6000 MBXUNT=4				; MAILBOX UNIT ARGUMENT LIST OFFSET
                                     0000  6100
                                     0000  6200 ;
                                     0000  6300 ; OWN STORAGE:
                                     0000  6400 ;
                                     0000  6500
SYSDERLMB       - DECLARE ERROR LOG MAILBOX YSSTEM SERVICE       21-AUG-1978 20:27:52   VAX-11 MACRO X0.3-11               Page   3
01              SYSDERLMBX - DECLARE ERROR LOG MAILBOX                                                                           (1)

                                     0000  6600 	.SBTTL	SYSDERLMBX - DECLARE ERROR LOG MAILBOX
                                     0000  6700 ;++
                                     0000  6800 ; FUNCTIONAL DESCRIPTION:
                                     0000  6900 ;	EXE$DERLMBX SETS THE ERRORLOG MAILBOX DESCRIPTOR TO POINT TO A
                                     0000  7000 ;	SPECIFIED MAILBOX UNIT.  ONLY ONE PROCESS MAY ASSIGN A MAILBOX UNIT
                                     0000  7100 ;	TO THE ERROR LOG AT ONE TIME.  IF THE ERROR LOG MAILBOX IS ALREADY
                                     0000  7200 ;	ASSIGNED TO ANOTHER PROCESS, THE ERROR STATUS CODE SS$_DEVALLOC
                                     0000  7300 ;	IS RETURNED.  WHEN A PROCESS IS FINISHED WITH THE ERROR LOG MAILBOX
                                     0000  7400 ;	IT SHOULD ASSIGN A UNIT NUMBER OF 0(ZERO).  EXE$RUNDWN WILL DO THIS
                                     0000  7500 ;	IN CASE THE IMAGE NEGLECTS TO EXIT CORRECTLY.
                                     0000  7600 ;
                                     0000  7700 ; CALLING SEQUENCE:
                                     0000  7800 ;	CALLG	ARGLIST,EXE$DERLMBX
                                     0000  7900 ;
                                     0000  8000 ; INPUT PARAMETERS:
                                     0000  8100 ;	MBXUNT(AP) - MAILBOX UNIT NUMBER
                                     0000  8150 ;	R4 - PCB ADDRESS OF CURENT PROCESS
                                     0000  8200 ;
                                     0000  8300 ; IMPLICIT INPUTS:
                                     0000  8400 ;	PCB AND PROCESS HEADER OF CURRENT PROCESS
                                     0000  8500 ;
                                     0000  8600 ; OUTPUT PARAMETERS:
                                     0000  8700 ;	R0 - COMPLETION STATUS CODE
                                     0000  8800 ;
                                     0000  8900 ; IMPLICIT OUTPUTS:
                                     0000  9000 ;	NONE
                                     0000  9100 ;
                                     0000  9200 ; COMPLETION CODES:
                                     0000  9300 ;	SS$_NORMAL   - NORMAL SUCCESSFUL COMPLETION
                                     0000  9400 ;	SS$_NOPRIV   - PROCESS DOES NOT HAVE DIAGNOSTIC PRIVILEGE
                                     0000  9500 ;	SS$_DEVALLOC - ERROR LOG MAILBOX UNIT ALREADY DECLARED BY ANOTHER
                                     0000  9600 ;		       PROCESS.
                                     0000  9700 ;
                                     0000  9800 ; SIDE EFFECTS:
                                     0000  9900 ;	NONE
                                     0000 10000 ;
                                     0000 10100 ;--
                                     0000 10200
                                     0000 10300
                                     0000 10400 EXE$DERLMB::				;
                               003C  0000 10450 	.WORD	^M<R2,R3,R4,R5>		; SAVE R2-R5
                                     0002 10500
            50            24     3C  0002 10600 	MOVZWL	#SS$_NOPRIV,R0		; ASSUME NO PRIVILEGE
                                     0005 10700 	IFNPRIV	DIAGNOSE,EXIT		; EXIT WITH ERROR STATUS IF NO PRIVILEGE
            50       0840 8F     3C  000A 10800 	MOVZWL	#SS$_DEVALLOC,R0	; ASSUME "DEVICE" ALLOCATED
            55       0000'CF     9E  000F 10900 	MOVAB	W^EXE$GQ_ERLMBX,R5	; SET ADDRESS OF ERRORLOG MAILBOX DESCRIPTOR
                                     0014 11000 	DSBINT	#IPL$_SYNCH		; INHIBIT SYSTEM EVENT REPORTING
                          65     B5  001A 11100 	TSTW	UNIT(R5)		; TEST FOR ALREADY ASSIGNED
                          07     13  001C 11200 	BEQL	10$			; NOT ASSIGNED
         04 A5         60 A4     D1  001E 11300 	CMPL	PCB$L_PID(R4),PID(R5)	; CHECK FOR CURRENT PROCESS
                          11     12  0023 11400 	BNEQ	EXITEN			; NO, EXIT WITH DEVALLOC ERROR
         04 A5         60 A4     D0  0025 11500 10$:	MOVL	PCB$L_PID(R4),PID(R5)	; SET PID OF OWNER
            65         04 AC     B0  002A 11550 	MOVW	MBXUNT(AP),UNIT(R5)	; SET ERRORLOG MAILBOX UNIT NUMBER
                          03     12  002E 11600 	BNEQ	20$			; BR IF ACTUAL UNIT
                       04 A5     D4  0030 11700 	CLRL	PID(R5)			; ZAP PID OF MAILBOX OWNER
            50            01     D0  0033 11800 20$:	MOVL	#SS$_NORMAL,R0		; SET NORMAL COMPLETION STATUS
                                     0036 11900 EXITEN:	ENBINT				; ENABLE SYSTEM EVENT REPORTING
SYSDERLMB       - DECLARE ERROR LOG MAILBOX YSSTEM SERVICE       21-AUG-1978 20:27:52   VAX-11 MACRO X0.3-11               Page   4
01              SYSDERLMBX - DECLARE ERROR LOG MAILBOX                                                                           (1)

                                 04  0039 12000 EXIT:	RET				; RETURN
                                     003A 12100
                                     003A 12200
                                     003A 12300 	.END
SYSDERLMB       - DECLARE ERROR LOG MAILBOX YSSTEM SERVICE       21-AUG-1978 20:27:52   VAX-11 MACRO X0.3-11               Page   5
SYMBOL TABLE                                                                                                                     (1)

BIT...         = 00000000            PCB$V_RESPEN   = 00000005            PR$_SCBB       = 00000011
EXE$DERLMB       00000000 RG    01   PCB$V_SSFEXC   = 00000006            PR$_SID        = 0000003E
EXE$GQ_ERLMBX    ********   X   01   PCB$V_SSFEXCE  = 00000007            PR$_SIRR       = 00000014
EXIT             00000039 R     01   PCB$V_SSFEXCS  = 00000008            PR$_SISR       = 00000015
EXITEN           00000036 R     01   PCB$V_SSFEXCU  = 00000009            PR$_SLR        = 0000000D
GBL...         = 00000000            PCB$V_SSRWAIT  = 0000000A            PR$_SSP        = 00000002
IPL$_ASTDEL    = 00000002            PCB$V_SUSPEN   = 0000000B            PR$_TBIA       = 00000039
IPL$_HWCLK     = 00000018            PCB$V_SWPVBN   = 00000010            PR$_TBIS       = 0000003A
IPL$_IOPOST    = 00000004            PCB$V_WAKEPEN  = 0000000C            PR$_TODR       = 0000001B
IPL$_MAILBOX   = 0000000B            PCB$V_WALL     = 0000000D            PR$_TXCS       = 00000022
IPL$_POWER     = 0000001F            PCB$W_APTCNT     00000034            PR$_TXDB       = 00000023
IPL$_QUEUEAST  = 00000006            PCB$W_ASTCNT     0000003C            PR$_USP        = 00000003
IPL$_SCHED     = 00000003            PCB$W_BIOCNT     0000003E            PR$_WCSA       = 0000002C
IPL$_SYNCH     = 00000007            PCB$W_BIOLM      00000040            PR$_WCSD       = 0000002D
IPL$_TIMER     = 00000007            PCB$W_BYTCNT     00000042            PRV$V_ALLSPOOL = 00000004
MBXUNT         = 00000004            PCB$W_BYTLM      00000068            PRV$V_BUGCHK   = 00000017
PCB$B_ASTACT     0000000C            PCB$W_DIOCNT     00000044            PRV$V_CMEXEC   = 00000001
PCB$B_ASTEN      0000000D            PCB$W_DIOLM      00000046            PRV$V_CMKRNL   = 00000000
PCB$B_PRI        0000000B            PCB$W_FILCNT     00000048            PRV$V_DETACH   = 00000005
PCB$B_PRIB       00000033            PCB$W_GPGCNT     00000038            PRV$V_DIAGNOSE = 00000006
PCB$B_TYPE       0000000A            PCB$W_GRP        00000022            PRV$V_EXQUOTA  = 00000013
PCB$B_WEFC       00000032            PCB$W_MEM        00000020            PRV$V_GROUP    = 00000008
PCB$C_LENGTH     0000007C            PCB$W_MTXCNT     0000000E            PRV$V_GRPNAM   = 00000003
PCB$K_LENGTH     0000007C            PCB$W_PPGCNT     0000003A            PRV$V_LOG_IO   = 00000007
PCB$L_ASTQBL     00000014            PCB$W_PRCCNT     0000006A            PRV$V_MOUNT    = 00000011
PCB$L_ASTQFL     00000010            PCB$W_SIZE       00000008            PRV$V_NETMBX   = 00000014
PCB$L_EFC2P      00000058            PCB$W_STATE      00000030            PRV$V_NOACNT   = 00000009
PCB$L_EFC3P      0000005C            PCB$W_TMBU       00000036            PRV$V_OPER     = 00000012
PCB$L_EFCS       00000050            PCB$W_TQCNT      0000004A            PRV$V_PHY_IO   = 00000016
PCB$L_EFCU       00000054            PID            = 00000004            PRV$V_PRMCEB   = 0000000A
PCB$L_EFWM       0000004C            PR$_ACCR       = 00000029            PRV$V_PRMGBL   = 00000018
PCB$L_OWNER      0000001C            PR$_ACCS       = 00000028            PRV$V_PRMMBX   = 0000000B
PCB$L_PHD        00000064            PR$_ASTLVL     = 00000013            PRV$V_PSWAPM   = 0000000C
PCB$L_PHYPCB     00000018            PR$_ESP        = 00000001            PRV$V_SETPRI   = 0000000D
PCB$L_PID        00000060            PR$_ICCS       = 00000018            PRV$V_SETPRV   = 0000000E
PCB$L_PQB        0000004C            PR$_ICR        = 0000001A            PRV$V_SYSGBL   = 00000019
PCB$L_SQBL       00000004            PR$_IPL        = 00000012            PRV$V_SYSNAM   = 00000002
PCB$L_SQFL       00000000            PR$_ISP        = 00000004            PRV$V_TMPMBX   = 0000000F
PCB$L_STS        00000028            PR$_KSP        = 00000000            PRV$V_VOLPRO   = 00000015
PCB$L_UIC        00000020            PR$_MAPEN      = 00000038            PRV$V_WORLD    = 00000010
PCB$L_WSSWP      00000024            PR$_NICR       = 00000019            SS$_ABORT      = 0000002C
PCB$L_WTIME      0000002C            PR$_P0BR       = 00000008            SS$_ACCONFLICT = 00000800
PCB$T_LNAME      0000006C            PR$_P0LR       = 00000009            SS$_ACCVIO     = 0000000C
PCB$V_ASTPEN   = 00000011            PR$_P1BR       = 0000000A            SS$_ACPVAFUL   = 000002FC
PCB$V_BATCH    = 0000000E            PR$_P1LR       = 0000000B            SS$_ARTRES     = 00000474
PCB$V_DELPEN   = 00000001            PR$_PCBB       = 00000010            SS$_ASTFLT     = 0000040C
PCB$V_FORCPEN  = 00000002            PR$_PME        = 0000003D            SS$_BADATTRIB  = 00000034
PCB$V_HIBER    = 00000013            PR$_RXCS       = 00000020            SS$_BADCHKSUM  = 00000808
PCB$V_INQUAN   = 00000003            PR$_RXDB       = 00000021            SS$_BADESCAPE  = 0000003C
PCB$V_LOGIN    = 00000014            PR$_SBIER      = 00000034            SS$_BADFILEHDR = 00000810
PCB$V_NETWRK   = 00000015            PR$_SBIFS      = 00000030            SS$_BADFILENAME= 00000818
PCB$V_NOACNT   = 0000000F            PR$_SBIMT      = 00000033            SS$_BADFILEVER = 00000820
PCB$V_NODELET  = 00000017            PR$_SBIQC      = 00000036            SS$_BADIMGHDR  = 00000044
PCB$V_PHDRES   = 00000012            PR$_SBIS       = 00000031            SS$_BADIRECTORY= 00000828
PCB$V_PSWAPM   = 00000004            PR$_SBISC      = 00000032            SS$_BADPARAM   = 00000014
PCB$V_PWRAST   = 00000016            PR$_SBITA      = 00000035            SS$_BADSTACK   = 000002B4
PCB$V_RES      = 00000000            PR$_SBR        = 0000000C            SS$_BEGOFFILE  = 00000938
SYSDERLMB       - DECLARE ERROR LOG MAILBOX YSSTEM SERVICE       21-AUG-1978 20:27:52   VAX-11 MACRO X0.3-11               Page   6
SYMBOL TABLE                                                                                                                     (1)

SS$_BLOCKCNTERR= 00000940            SS$_FLTUND     = 0000049C            SS$_NONEXDRV   = 000001C4
SS$_BREAK      = 00000414            SS$_FORMAT     = 000000BC            SS$_NONEXPR    = 000008E8
SS$_BUFBYTALI  = 0000030C            SS$_GPTFULL    = 000000C4            SS$_NONLOCAL   = 000008F0
SS$_BUFFEROVF  = 00000601            SS$_GSDFULL    = 000000CC            SS$_NOPRIV     = 00000024
SS$_BUGCHECK   = 000002A4            SS$_HANGUP     = 000002CC            SS$_NORMAL     = 00000001
SS$_CANCEL     = 00000830            SS$_HEADERFULL = 000008C8            SS$_NOSIGNAL   = 00000900
SS$_CHANINTLK  = 0000004C            SS$_IDXFILEFULL= 000008D0            SS$_NOSOLICIT  = 00000284
SS$_CLIFRCEXT  = 00000980            SS$_ILLBLKNUM  = 000000DC            SS$_NOSUCHDEV  = 00000908
SS$_CMODSUPR   = 0000041C            SS$_ILLCNTRFUNC= 000000E4            SS$_NOSUCHFILE = 00000910
SS$_CMODUSER   = 00000424            SS$_ILLEFC     = 000000EC            SS$_NOSUCHNODE = 0000028C
SS$_COMPAT     = 0000042C            SS$_ILLIOFUNC  = 000000F4            SS$_NOSUCHSEC  = 00000978
SS$_CONTINUE   = 00000001            SS$_ILLLBLAST  = 00000968            SS$_NOTAPEOP   = 00000264
SS$_CONTROLC   = 00000651            SS$_ILLPAGCNT  = 000000FC            SS$_NOTFILEDEV = 000001CC
SS$_CONTROLO   = 00000609            SS$_ILLSEQOP   = 000002DC            SS$_NOTINTBLSZ = 000001D4
SS$_CONTROLY   = 00000611            SS$_ILLSER     = 00000104            SS$_NOTLABELMT = 000001DC
SS$_CREATED    = 00000619            SS$_ILLUSRLBLRD= 00000958            SS$_NOTMODIFIED= 00000659
SS$_CTRLERR    = 00000054            SS$_ILLUSRLBLWT= 00000960            SS$_NOTNETDEV  = 000002EC
SS$_DATACHECK  = 0000005C            SS$_INCVOLLABEL= 0000010C            SS$_NOTRAN     = 00000629
SS$_DATAOVERUN = 00000838            SS$_INSFARG    = 00000114            SS$_NOTSQDEV   = 000001E4
SS$_DEBUG      = 0000046C            SS$_INSFMEM    = 00000124            SS$_OPCCUS     = 00000434
SS$_DECOVF     = 000004A4            SS$_INSFRAME   = 0000012C            SS$_OPCDEC     = 0000043C
SS$_DEVACTIVE  = 000002C4            SS$_INSFWSL    = 0000011C            SS$_OPINCOMPL  = 000002D4
SS$_DEVALLOC   = 00000840            SS$_INTDIV     = 00000484            SS$_PAGOWNVIO  = 000001EC
SS$_DEVALRALLOC= 00000641            SS$_INTOVF     = 0000047C            SS$_PAGRDERR   = 00000444
SS$_DEVASSIGN  = 00000848            SS$_IVADDR     = 00000134            SS$_PARITY     = 000001F4
SS$_DEVFOREIGN = 00000064            SS$_IVCHAN     = 0000013C            SS$_PARTESCAPE = 000001FC
SS$_DEVICEFULL = 00000850            SS$_IVCHNLSEC  = 0000026C            SS$_PFMBSY     = 00000204
SS$_DEVMOUNT   = 0000006C            SS$_IVDEVNAM   = 00000144            SS$_PLHLDR     = 00000404
SS$_DEVNOTALLOC= 00000858            SS$_IVGSDNAM   = 0000014C            SS$_PSTFULL    = 0000020C
SS$_DEVNOTMBX  = 00000074            SS$_IVLOGNAM   = 00000154            SS$_RADRMOD    = 0000044C
SS$_DEVNOTMOUNT= 0000007C            SS$_IVLOGTAB   = 0000015C            SS$_REJECT     = 00000294
SS$_DEVOFFLINE = 00000084            SS$_IVPROTECT  = 000002F4            SS$_REMOTE     = 00000649
SS$_DIRFULL    = 00000860            SS$_IVQUOTAL   = 00000164            SS$_RESIGNAL   = 00000918
SS$_DRVERR     = 0000008C            SS$_IVSECFLG   = 0000016C            SS$_RESULTOVF  = 00000214
SS$_DUPFILENAME= 00000868            SS$_IVSECIDCTL = 000002E4            SS$_ROPRAND    = 00000454
SS$_DUPLNAM    = 00000094            SS$_IVSSRQ     = 00000174            SS$_SECTBLFUL  = 0000021C
SS$_ENDOFFILE  = 00000870            SS$_IVSTSFLG   = 0000017C            SS$_SSFAIL     = 0000045C
SS$_ENDOFTAPE  = 00000878            SS$_IVTIME     = 00000184            SS$_SUBRNG     = 000004AC
SS$_ENDOFUSRLBL= 00000970            SS$_LCKPAGFUL  = 000000D4            SS$_SUPERSEDE  = 00000631
SS$_EXQUOTA    = 0000001C            SS$_LENVIO     = 0000018C            SS$_TAPEPOSLOST= 00000224
SS$_EXTIDXFILE = 00000880            SS$_LKWSETFUL  = 00000194            SS$_TBIT       = 00000464
SS$_FCPREADERR = 00000888            SS$_MBFULL     = 000008D8            SS$_TIMEOUT    = 0000022C
SS$_FCPREPSTN  = 00000988            SS$_MBTOOSML   = 0000019C            SS$_TOOMANYVER = 00000990
SS$_FCPREWNDERR= 00000890            SS$_MCHECK     = 000002BC            SS$_TOOMUCHDATA= 0000029C
SS$_FCPSPACERR = 00000898            SS$_MEDOFL     = 000001A4            SS$_UNASEFC    = 00000234
SS$_FCPWRITERR = 000008A0            SS$_MSGNOTFND  = 00000621            SS$_UNSAFE     = 0000023C
SS$_FILACCERR  = 0000009C            SS$_MTLBLLONG  = 00000304            SS$_UNWIND     = 00000920
SS$_FILALRACC  = 000000A4            SS$_MUSTCLOSEFL= 00000948            SS$_UNWINDING  = 00000928
SS$_FILELOCKED = 000008A8            SS$_NOAQB      = 00000314            SS$_VASFULL    = 00000244
SS$_FILENUMCHK = 000008B0            SS$_NODATA     = 000001AC            SS$_VECINUSE   = 0000024C
SS$_FILESEQCHK = 000008B8            SS$_NOHANDLER  = 000008F8            SS$_VOLINV     = 00000254
SS$_FILESTRUCT = 000008C0            SS$_NOHOMEBLK  = 000008E0            SS$_WAITUSRLBL = 00000950
SS$_FILNOTACC  = 000000AC            SS$_NOIOCHAN   = 000001B4            SS$_WASCLR     = 00000001
SS$_FILNOTCNTG = 000002AC            SS$_NOLINKS    = 0000027C            SS$_WASECC     = 00000639
SS$_FILNOTEXP  = 000000B4            SS$_NOLOGNAM   = 000001BC            SS$_WASSET     = 00000009
SS$_FLTDIV     = 00000494            SS$_NOMBX      = 00000274            SS$_WRITLCK    = 0000025C
SS$_FLTOVF     = 0000048C            SS$_NOMOREFILES= 00000930            SS$_WRONGACP   = 0000031C
SYSDERLMB       - DECLARE ERROR LOG MAILBOX YSSTEM SERVICE       21-AUG-1978 20:27:52   VAX-11 MACRO X0.3-11               Page   7
SYMBOL TABLE                                                                                                                     (1)

UNIT           = 00000000


PROGRAM SECTION SYNOPSIS

.  ABS  .        00000000      00     NOPIC   USR   CON   ABS   LCL NOSHR NOEXE NORD  NOWRT BYTE
. BLANK .        0000003A      01     NOPIC   USR   CON   REL   LCL NOSHR   EXE   RD    WRT BYTE
$ABS$            0000007C      02     NOPIC   USR   CON   ABS   LCL NOSHR   EXE   RD    WRT BYTE


THERE WERE NO ERRORS OR WARNINGS.
14950. BYTES LEFT IN FREE MEMORY POOL.
3784. BYTES OF RECLAIMED MEMORY.
OBJ$:SYSDERLMB,LIS$:SYSDERLMB/-SP=EXECML$/ML,SRC$:SYSDERLMB
6 MLB DIR RDS - 586 GETS TO DEFINE 17 MACROS. 42 INTER. FILE WRITES.
