SYSFORCEX       FORCE EXIT SYSTEM SERVICE                        21-AUG-1978 20:30:50   VAX-11 MACRO X0.3-11               Page   0
TABLE OF CONTENTS

   (1)    3400  HISTORY			; DETAILED
   (1)    4300  DECLARATIONS
   (1)    6600  EXE$FORCEX - FORCE EXIT SYSTEM SERVICE
SYSFORCEX       FORCE EXIT SYSTEM SERVICE                        21-AUG-1978 20:30:50   VAX-11 MACRO X0.3-11               Page   1
01                                                                                                                               (1)

                                     0000   100
                                     0000   200 	.TITLE	SYSFORCEX FORCE EXIT SYSTEM SERVICE
                                     0000   300 	.IDENT	/01/
                                     0000   400
                                     0000   500 ;
                                     0000   600 ; COPYRIGHT (C) 1977
                                     0000   700 ; DIGITAL EQUIPMENT CORPORATION, MAYNARD, MASSACHUSETTS 01754
                                     0000   800 ;
                                     0000   900 ; THIS SOFTWARE IS FURNISHED  UNDER A LICENSE FOR USE ONLY ON A SINGLE
                                     0000  1000 ; COMPUTER  SYSTEM AND  MAY BE  COPIED ONLY WITH  THE INCLUSION OF THE
                                     0000  1100 ; ABOVE COPYRIGHT NOTICE.  THIS SOFTWARE, OR ANY OTHER COPIES THEREOF,
                                     0000  1200 ; MAY NOT BE PROVIDED OR  OTHERWISE MADE AVAILABLE TO ANY OTHER PERSON
                                     0000  1300 ; EXCEPT FOR USE ON SUCH SYSTEM AND TO ONE WHO AGREES TO THESE LICENSE
                                     0000  1400 ; TERMS.  TITLE TO AND  OWNERSHIP OF THE  SOFTWARE  SHALL AT ALL TIMES
                                     0000  1500 ; REMAIN IN DEC.
                                     0000  1600 ;
                                     0000  1700 ; THE INFORMATION IN THIS SOFTWARE IS SUBJECT TO CHANGE WITHOUT NOTICE
                                     0000  1800 ; AND SHOULD  NOT BE CONSTRUED  AS A COMMITMENT  BY DIGITAL  EQUIPMENT
                                     0000  1900 ; CORPORATION.
                                     0000  2000 ;
                                     0000  2100 ; DEC ASSUMES  NO  RESPONSIBILITY  FOR  THE USE OR  RELIABILITY OF ITS
                                     0000  2200 ; SOFTWARE ON EQUIPMENT WHICH IS NOT SUPPLIED BY DEC.
                                     0000  2300
                                     0000  2400 ;++
                                     0000  2500 ; FACILITY: EXECUTIVE, SYSTEM SERVICES
                                     0000  2600 ;
                                     0000  2700 ; ABSTRACT:
                                     0000  2800 ;
                                     0000  2900 ; ENVIRONMENT:
                                     0000  3000 ;
                                     0000  3100 ;--
                                     0000  3200 ;
                                     0000  3300 ;	.PAGE
                                     0000  3400 	.SBTTL	HISTORY			; DETAILED
                                     0000  3500 ;
                                     0000  3600 ; AUTHOR:	R. HUSTVEDT	 CREATION DATE: 1-OCT-76
                                     0000  3700 ;
                                     0000  3800 ; MODIFIED BY:
                                     0000  3900 ;	, : VERSION
                                     0000  4000 ; 01	 -
                                     0000  4100
SYSFORCEX       FORCE EXIT SYSTEM SERVICE                        21-AUG-1978 20:30:50   VAX-11 MACRO X0.3-11               Page   2
01              DECLARATIONS                                                                                                     (1)

                                     0000  4300 	.SBTTL	DECLARATIONS
                                     0000  4400
                                     0000  4500 ;
                                     0000  4600 ; INCLUDE FILES:
                                     0000  4700 ;
                                     0000  4800
                                     0000  4900 	$ACBDEF				; DEFINE AST CONTROL BLOCK
                                     0000  5000 	$IPLDEF				; DEFINE INTERRUPT PRIORITY LEVELS
                                     0000  5050 	$PCBDEF				; DEFINE PROCESS CONTROL BLOCK
                                     0000  5100 	$PRDEF				; DEFINE PROCESSOR REGISTERS
                                     0000  5200 	$PRIDEF				; DEFINE PRIORITY INCREMENT CLASSES
                                     0000  5300 	$SSDEF				; DEFINE STATUS CODES
                                     0000  5400
                                     0000  5500 ;
                                     0000  5600 ; EQUATED SYMBOLS:
                                     0000  5700 ;
                                     0000  5800
                           00000000  0000  5900 ASTEXIT=0				; CHMK CODE FOR ASTEXIT
                           0000000C  0000  6000 CODE=12					; DISPLACEMENT TO CODE PARAMETER
                                     0000  6100 ;
                                     0000  6200 ; OWN STORAGE:
                                     0000  6300 ;
                                     0000  6400
SYSFORCEX       FORCE EXIT SYSTEM SERVICE                        21-AUG-1978 20:30:50   VAX-11 MACRO X0.3-11               Page   3
01              EXE$FORCEX - FORCE EXIT SYSTEM SERVICE                                                                           (1)

                                     0000  6600 	.SBTTL	EXE$FORCEX - FORCE EXIT SYSTEM SERVICE
                                     0000  6700
                                     0000  6800 ;++
                                     0000  6900 ; FUNCTIONAL DESCRIPTION:
                                     0000  7000 ;
                                     0000  7100 ; CALLING SEQUENCE:
                                     0000  7200 ;	CALLG	ARGLIST,EXE$FORCEX
                                     0000  7300 ;
                                     0000  7400 ; INPUT PARAMETERS:
                                     0000  7500 ;	PIDADR(AP) - ADDRESS OF PID (WRITTEN)
                                     0000  7600 ;	PRCNAM(AP) - ADDRESS OF PROCESS LOGICAL NAME
                                     0000  7700 ;	CODE(AP) - COMPLETION CODE TO BE USED FOR EXIT CALL
                                     0000  7750 ;	R4 - PCB ADDRESS OF CURRENT PROCESS
                                     0000  7800 ;
                                     0000  7900 ; IMPLICIT INPUTS:
                                     0000  8000 ;	NONE
                                     0000  8100 ;
                                     0000  8200 ; OUTPUT PARAMETERS:
                                     0000  8300 ;	@PIDADR(AP) - PID OF PROCESS FOR WHICH EXIT WAS FORCED
                                     0000  8400 ;	R0 - COMPLETION STATUS
                                     0000  8500 ;
                                     0000  8600 ; IMPLICIT OUTPUTS:
                                     0000  8700 ;	NONE
                                     0000  8800 ;
                                     0000  8900 ; COMPLETION CODES:
                                     0000  9000 ;	SS$_NORMAL  -  SUCCESSFUL COMPLETION
                                     0000  9100 ;	SS$_INSFMEM -  INSUFFICIENT DYNAMIC MEMORY
                                     0000  9200 ;	SS$_NONEXPR -  NON-EXISTENT PROCESS
                                     0000  9300 ;	SS$_NOPRIV  -  INSUFFICIENT PRIVILEGE TO CONTROL DETACHED PROCESS
                                     0000  9400 ;
                                     0000  9500 ; SIDE EFFECTS:
                                     0000  9600 ;	NONE
                                     0000  9700 ;
                                     0000  9800 ;--
                                     0000  9900
                                     0000 10000 EXE$FORCEX::				; FORCE EXIT SYSTEM SERVICE
                               003C  0000 10100 	.WORD	^M<R2,R3,R4,R5>		; SAVE REGISTERS R2-R5
                          FFFB'  30  0002 10200 	BSBW	EXE$NAMPID		; CONVERT NAME-PID PAIR
                                     0005 10250 	SETIPL	#0			; DROP IPL
            2B            50     E9  0008 10300 	BLBC	R0,20$			; EXIT IF ERROR
         28 A4            02     E2  000B 10350 	BBSS	#PCB$V_FORCPEN,PCB$L_STS(R4),10$; FORCE EXIT ALREADY PENDING
                          23         000F
                          51     DD  0010 10400 	PUSHL	R1			; SAVE PID
                          FFEB'  30  0012 10500 	BSBW	EXE$ALLOCIRP		; ALLOCATE AST CONTROL BLOCK
            1E            50     E9  0015 10600 	BLBC	R0,20$			; EXIT IF ERROR
         0B A2            03     90  0018 10700 	MOVB	#3,ACB$B_RMOD(R2)	; SET ACCESS MODE
         0C A2            8E     D0  001C 10800 	MOVL	(SP)+,ACB$L_PID(R2)	; SET PID OF DESTINATION
         10 A2         37'AF     9E  0020 10900 	MOVAB	B^DOEXIT,ACB$L_AST(R2)	; AND ADDRESS OF AST ROUTINE
         14 A2         0C AC     D0  0025 11000 	MOVL	CODE(AP),ACB$L_ASTPRM(R2); SET CODE FOR EXIT CALL
            55            52     D0  002A 11100 	MOVL	R2,R5			; AST CONTROL BLOCK ADDRESS FOR QAST
            52            02     9A  002D 11200 	MOVZBL	#PRI$_RESAVL,R2		; SET PRIORITY INCREMENT CLASS
                          FFCD'  30  0030 11300 	BSBW	SCH$QAST		; QUEUE ACB FOR TARGET PROCESS
            50            01     3C  0033 11400 10$:	MOVZWL	#SS$_NORMAL,R0		; SET NORMAL COMPLETION STATUS
                                 04  0036 11600 20$:	RET				; AND RETURN TO CALLER
                                     0037 11700
                                     0037 11800
SYSFORCEX       FORCE EXIT SYSTEM SERVICE                        21-AUG-1978 20:30:50   VAX-11 MACRO X0.3-11               Page   4
01              EXE$FORCEX - FORCE EXIT SYSTEM SERVICE                                                                           (1)

                                     0037 12000 ;
                                     0037 12100 ; PERFORM EXIT AS A RESULT OF USER MODE AST IN THE CONTEXT OF THE
                                     0037 12200 ; TARGET PROCESS.
                                     0037 12300 ;
                                     0037 12400
                                     0037 12500 DOEXIT:					;
                               0000  0037 12600 	.WORD	0			; NULL REGISTER SAVE MASK
                          00     BC  0039 12700 	CHMK	#ASTEXIT		; CLEAR AST ACTIVE FLAG
                                     003B 12800 	$EXIT_S	4(AP)			; MAKE EXIT CALL
                                     0045 12900
                                     0045 13000
                                     0045 13100 	.END
SYSFORCEX       FORCE EXIT SYSTEM SERVICE                        21-AUG-1978 20:30:50   VAX-11 MACRO X0.3-11               Page   5
SYMBOL TABLE                                                                                                                     (1)

ACB$B_RMOD       0000000B            PCB$T_LNAME      0000006C            PR$_P1BR       = 0000000A
ACB$B_TYPE       0000000A            PCB$V_ASTPEN   = 00000011            PR$_P1LR       = 0000000B
ACB$L_AST        00000010            PCB$V_BATCH    = 0000000E            PR$_PCBB       = 00000010
ACB$L_ASTPRM     00000014            PCB$V_DELPEN   = 00000001            PR$_PME        = 0000003D
ACB$L_ASTQBL     00000004            PCB$V_FORCPEN  = 00000002            PR$_RXCS       = 00000020
ACB$L_ASTQFL     00000000            PCB$V_HIBER    = 00000013            PR$_RXDB       = 00000021
ACB$L_KAST       00000018            PCB$V_INQUAN   = 00000003            PR$_SBIER      = 00000034
ACB$L_PID        0000000C            PCB$V_LOGIN    = 00000014            PR$_SBIFS      = 00000030
ACB$M_QUOTA    = 00000040            PCB$V_NETWRK   = 00000015            PR$_SBIMT      = 00000033
ACB$S_MODE     = 00000002            PCB$V_NOACNT   = 0000000F            PR$_SBIQC      = 00000036
ACB$V_KAST     = 00000007            PCB$V_NODELET  = 00000017            PR$_SBIS       = 00000031
ACB$V_MODE     = 00000000            PCB$V_PHDRES   = 00000012            PR$_SBISC      = 00000032
ACB$V_QUOTA    = 00000006            PCB$V_PSWAPM   = 00000004            PR$_SBITA      = 00000035
ACB$W_SIZE       00000008            PCB$V_PWRAST   = 00000016            PR$_SBR        = 0000000C
ASTEXIT        = 00000000            PCB$V_RES      = 00000000            PR$_SCBB       = 00000011
BIT...         = 00000000            PCB$V_RESPEN   = 00000005            PR$_SID        = 0000003E
CODE           = 0000000C            PCB$V_SSFEXC   = 00000006            PR$_SIRR       = 00000014
DOEXIT           00000037 R     01   PCB$V_SSFEXCE  = 00000007            PR$_SISR       = 00000015
EXE$ALLOCIRP     ********   X   01   PCB$V_SSFEXCS  = 00000008            PR$_SLR        = 0000000D
EXE$FORCEX       00000000 RG    01   PCB$V_SSFEXCU  = 00000009            PR$_SSP        = 00000002
EXE$NAMPID       ********   X   01   PCB$V_SSRWAIT  = 0000000A            PR$_TBIA       = 00000039
GBL...         = 00000000            PCB$V_SUSPEN   = 0000000B            PR$_TBIS       = 0000003A
IPL$_ASTDEL    = 00000002            PCB$V_SWPVBN   = 00000010            PR$_TODR       = 0000001B
IPL$_HWCLK     = 00000018            PCB$V_WAKEPEN  = 0000000C            PR$_TXCS       = 00000022
IPL$_IOPOST    = 00000004            PCB$V_WALL     = 0000000D            PR$_TXDB       = 00000023
IPL$_MAILBOX   = 0000000B            PCB$W_APTCNT     00000034            PR$_USP        = 00000003
IPL$_POWER     = 0000001F            PCB$W_ASTCNT     0000003C            PR$_WCSA       = 0000002C
IPL$_QUEUEAST  = 00000006            PCB$W_BIOCNT     0000003E            PR$_WCSD       = 0000002D
IPL$_SCHED     = 00000003            PCB$W_BIOLM      00000040            PRI$_IOCOM     = 00000001
IPL$_SYNCH     = 00000007            PCB$W_BYTCNT     00000042            PRI$_NULL      = 00000000
IPL$_TIMER     = 00000007            PCB$W_BYTLM      00000068            PRI$_RESAVL    = 00000002
PCB$B_ASTACT     0000000C            PCB$W_DIOCNT     00000044            PRI$_TICOM     = 00000004
PCB$B_ASTEN      0000000D            PCB$W_DIOLM      00000046            PRI$_TIMER     = 00000002
PCB$B_PRI        0000000B            PCB$W_FILCNT     00000048            PRI$_TOCOM     = 00000003
PCB$B_PRIB       00000033            PCB$W_GPGCNT     00000038            SCH$QAST         ********   X   01
PCB$B_TYPE       0000000A            PCB$W_GRP        00000022            SS$_ABORT      = 0000002C
PCB$B_WEFC       00000032            PCB$W_MEM        00000020            SS$_ACCONFLICT = 00000800
PCB$C_LENGTH     0000007C            PCB$W_MTXCNT     0000000E            SS$_ACCVIO     = 0000000C
PCB$K_LENGTH     0000007C            PCB$W_PPGCNT     0000003A            SS$_ACPVAFUL   = 000002FC
PCB$L_ASTQBL     00000014            PCB$W_PRCCNT     0000006A            SS$_ARTRES     = 00000474
PCB$L_ASTQFL     00000010            PCB$W_SIZE       00000008            SS$_ASTFLT     = 0000040C
PCB$L_EFC2P      00000058            PCB$W_STATE      00000030            SS$_BADATTRIB  = 00000034
PCB$L_EFC3P      0000005C            PCB$W_TMBU       00000036            SS$_BADCHKSUM  = 00000808
PCB$L_EFCS       00000050            PCB$W_TQCNT      0000004A            SS$_BADESCAPE  = 0000003C
PCB$L_EFCU       00000054            PR$_ACCR       = 00000029            SS$_BADFILEHDR = 00000810
PCB$L_EFWM       0000004C            PR$_ACCS       = 00000028            SS$_BADFILENAME= 00000818
PCB$L_OWNER      0000001C            PR$_ASTLVL     = 00000013            SS$_BADFILEVER = 00000820
PCB$L_PHD        00000064            PR$_ESP        = 00000001            SS$_BADIMGHDR  = 00000044
PCB$L_PHYPCB     00000018            PR$_ICCS       = 00000018            SS$_BADIRECTORY= 00000828
PCB$L_PID        00000060            PR$_ICR        = 0000001A            SS$_BADPARAM   = 00000014
PCB$L_PQB        0000004C            PR$_IPL        = 00000012            SS$_BADSTACK   = 000002B4
PCB$L_SQBL       00000004            PR$_ISP        = 00000004            SS$_BEGOFFILE  = 00000938
PCB$L_SQFL       00000000            PR$_KSP        = 00000000            SS$_BLOCKCNTERR= 00000940
PCB$L_STS        00000028            PR$_MAPEN      = 00000038            SS$_BREAK      = 00000414
PCB$L_UIC        00000020            PR$_NICR       = 00000019            SS$_BUFBYTALI  = 0000030C
PCB$L_WSSWP      00000024            PR$_P0BR       = 00000008            SS$_BUFFEROVF  = 00000601
PCB$L_WTIME      0000002C            PR$_P0LR       = 00000009            SS$_BUGCHECK   = 000002A4
SYSFORCEX       FORCE EXIT SYSTEM SERVICE                        21-AUG-1978 20:30:50   VAX-11 MACRO X0.3-11               Page   6
SYMBOL TABLE                                                                                                                     (1)

SS$_CANCEL     = 00000830            SS$_HEADERFULL = 000008C8            SS$_NOSIGNAL   = 00000900
SS$_CHANINTLK  = 0000004C            SS$_IDXFILEFULL= 000008D0            SS$_NOSOLICIT  = 00000284
SS$_CLIFRCEXT  = 00000980            SS$_ILLBLKNUM  = 000000DC            SS$_NOSUCHDEV  = 00000908
SS$_CMODSUPR   = 0000041C            SS$_ILLCNTRFUNC= 000000E4            SS$_NOSUCHFILE = 00000910
SS$_CMODUSER   = 00000424            SS$_ILLEFC     = 000000EC            SS$_NOSUCHNODE = 0000028C
SS$_COMPAT     = 0000042C            SS$_ILLIOFUNC  = 000000F4            SS$_NOSUCHSEC  = 00000978
SS$_CONTINUE   = 00000001            SS$_ILLLBLAST  = 00000968            SS$_NOTAPEOP   = 00000264
SS$_CONTROLC   = 00000651            SS$_ILLPAGCNT  = 000000FC            SS$_NOTFILEDEV = 000001CC
SS$_CONTROLO   = 00000609            SS$_ILLSEQOP   = 000002DC            SS$_NOTINTBLSZ = 000001D4
SS$_CONTROLY   = 00000611            SS$_ILLSER     = 00000104            SS$_NOTLABELMT = 000001DC
SS$_CREATED    = 00000619            SS$_ILLUSRLBLRD= 00000958            SS$_NOTMODIFIED= 00000659
SS$_CTRLERR    = 00000054            SS$_ILLUSRLBLWT= 00000960            SS$_NOTNETDEV  = 000002EC
SS$_DATACHECK  = 0000005C            SS$_INCVOLLABEL= 0000010C            SS$_NOTRAN     = 00000629
SS$_DATAOVERUN = 00000838            SS$_INSFARG    = 00000114            SS$_NOTSQDEV   = 000001E4
SS$_DEBUG      = 0000046C            SS$_INSFMEM    = 00000124            SS$_OPCCUS     = 00000434
SS$_DECOVF     = 000004A4            SS$_INSFRAME   = 0000012C            SS$_OPCDEC     = 0000043C
SS$_DEVACTIVE  = 000002C4            SS$_INSFWSL    = 0000011C            SS$_OPINCOMPL  = 000002D4
SS$_DEVALLOC   = 00000840            SS$_INTDIV     = 00000484            SS$_PAGOWNVIO  = 000001EC
SS$_DEVALRALLOC= 00000641            SS$_INTOVF     = 0000047C            SS$_PAGRDERR   = 00000444
SS$_DEVASSIGN  = 00000848            SS$_IVADDR     = 00000134            SS$_PARITY     = 000001F4
SS$_DEVFOREIGN = 00000064            SS$_IVCHAN     = 0000013C            SS$_PARTESCAPE = 000001FC
SS$_DEVICEFULL = 00000850            SS$_IVCHNLSEC  = 0000026C            SS$_PFMBSY     = 00000204
SS$_DEVMOUNT   = 0000006C            SS$_IVDEVNAM   = 00000144            SS$_PLHLDR     = 00000404
SS$_DEVNOTALLOC= 00000858            SS$_IVGSDNAM   = 0000014C            SS$_PSTFULL    = 0000020C
SS$_DEVNOTMBX  = 00000074            SS$_IVLOGNAM   = 00000154            SS$_RADRMOD    = 0000044C
SS$_DEVNOTMOUNT= 0000007C            SS$_IVLOGTAB   = 0000015C            SS$_REJECT     = 00000294
SS$_DEVOFFLINE = 00000084            SS$_IVPROTECT  = 000002F4            SS$_REMOTE     = 00000649
SS$_DIRFULL    = 00000860            SS$_IVQUOTAL   = 00000164            SS$_RESIGNAL   = 00000918
SS$_DRVERR     = 0000008C            SS$_IVSECFLG   = 0000016C            SS$_RESULTOVF  = 00000214
SS$_DUPFILENAME= 00000868            SS$_IVSECIDCTL = 000002E4            SS$_ROPRAND    = 00000454
SS$_DUPLNAM    = 00000094            SS$_IVSSRQ     = 00000174            SS$_SECTBLFUL  = 0000021C
SS$_ENDOFFILE  = 00000870            SS$_IVSTSFLG   = 0000017C            SS$_SSFAIL     = 0000045C
SS$_ENDOFTAPE  = 00000878            SS$_IVTIME     = 00000184            SS$_SUBRNG     = 000004AC
SS$_ENDOFUSRLBL= 00000970            SS$_LCKPAGFUL  = 000000D4            SS$_SUPERSEDE  = 00000631
SS$_EXQUOTA    = 0000001C            SS$_LENVIO     = 0000018C            SS$_TAPEPOSLOST= 00000224
SS$_EXTIDXFILE = 00000880            SS$_LKWSETFUL  = 00000194            SS$_TBIT       = 00000464
SS$_FCPREADERR = 00000888            SS$_MBFULL     = 000008D8            SS$_TIMEOUT    = 0000022C
SS$_FCPREPSTN  = 00000988            SS$_MBTOOSML   = 0000019C            SS$_TOOMANYVER = 00000990
SS$_FCPREWNDERR= 00000890            SS$_MCHECK     = 000002BC            SS$_TOOMUCHDATA= 0000029C
SS$_FCPSPACERR = 00000898            SS$_MEDOFL     = 000001A4            SS$_UNASEFC    = 00000234
SS$_FCPWRITERR = 000008A0            SS$_MSGNOTFND  = 00000621            SS$_UNSAFE     = 0000023C
SS$_FILACCERR  = 0000009C            SS$_MTLBLLONG  = 00000304            SS$_UNWIND     = 00000920
SS$_FILALRACC  = 000000A4            SS$_MUSTCLOSEFL= 00000948            SS$_UNWINDING  = 00000928
SS$_FILELOCKED = 000008A8            SS$_NOAQB      = 00000314            SS$_VASFULL    = 00000244
SS$_FILENUMCHK = 000008B0            SS$_NODATA     = 000001AC            SS$_VECINUSE   = 0000024C
SS$_FILESEQCHK = 000008B8            SS$_NOHANDLER  = 000008F8            SS$_VOLINV     = 00000254
SS$_FILESTRUCT = 000008C0            SS$_NOHOMEBLK  = 000008E0            SS$_WAITUSRLBL = 00000950
SS$_FILNOTACC  = 000000AC            SS$_NOIOCHAN   = 000001B4            SS$_WASCLR     = 00000001
SS$_FILNOTCNTG = 000002AC            SS$_NOLINKS    = 0000027C            SS$_WASECC     = 00000639
SS$_FILNOTEXP  = 000000B4            SS$_NOLOGNAM   = 000001BC            SS$_WASSET     = 00000009
SS$_FLTDIV     = 00000494            SS$_NOMBX      = 00000274            SS$_WRITLCK    = 0000025C
SS$_FLTOVF     = 0000048C            SS$_NOMOREFILES= 00000930            SS$_WRONGACP   = 0000031C
SS$_FLTUND     = 0000049C            SS$_NONEXDRV   = 000001C4            SYS$EXIT         ********   X   01
SS$_FORMAT     = 000000BC            SS$_NONEXPR    = 000008E8
SS$_GPTFULL    = 000000C4            SS$_NONLOCAL   = 000008F0
SS$_GSDFULL    = 000000CC            SS$_NOPRIV     = 00000024
SS$_HANGUP     = 000002CC            SS$_NORMAL     = 00000001
SYSFORCEX       FORCE EXIT SYSTEM SERVICE                        21-AUG-1978 20:30:50   VAX-11 MACRO X0.3-11               Page   7
PROGRAM SECTION SYNOPSIS                                                                                                         (1)


PROGRAM SECTION SYNOPSIS

.  ABS  .        00000000      00     NOPIC   USR   CON   ABS   LCL NOSHR NOEXE NORD  NOWRT BYTE
. BLANK .        00000045      01     NOPIC   USR   CON   REL   LCL NOSHR   EXE   RD    WRT BYTE
$ABS$            0000007C      02     NOPIC   USR   CON   ABS   LCL NOSHR   EXE   RD    WRT BYTE


THERE WERE NO ERRORS OR WARNINGS.
15416. BYTES LEFT IN FREE MEMORY POOL.
3790. BYTES OF RECLAIMED MEMORY.
OBJ$:SYSFORCEX,LIS$:SYSFORCEX/-SP=EXECML$/ML,SRC$:SYSFORCEX
5 MLB DIR RDS - 571 GETS TO DEFINE 17 MACROS. 39 INTER. FILE WRITES.
