SYSSETPRA       - SET POWER FAIL AST SYSTEM SERVICE              21-AUG-1978 20:43:37   VAX-11 MACRO X0.3-11               Page   0
TABLE OF CONTENTS

   (1)    6300  EXE$SETPRA - SET POWER FAIL AST ROUTINE ADDRESS
   (1)   11900  EXE$POWERAST - INITIATE POWER FAIL AST FOR ALL
   (1)   15200  PROCAST - SPECIAL KERNEL AST FOR POWERFAIL
SYSSETPRA       - SET POWER FAIL AST SYSTEM SERVICE              21-AUG-1978 20:43:37   VAX-11 MACRO X0.3-11               Page   1
01                                                                                                                               (1)

                                     0000   100 	.TITLE	SYSSETPRA - SET POWER FAIL AST SYSTEM SERVICE
                                     0000   200 	.IDENT	/01/
                                     0000   300 ;
                                     0000   400 ; COPYRIGHT (C) 1978
                                     0000   500 ; DIGITAL EQUIPMENT CORPORATION, MAYNARD, MASSACHUSETTS 01754
                                     0000   600 ;
                                     0000   700 ; THIS SOFTWARE IS FURNISHED  UNDER A LICENSE FOR USE ONLY ON A SINGLE
                                     0000   800 ; COMPUTER  SYSTEM AND  MAY BE  COPIED ONLY WITH  THE INCLUSION OF THE
                                     0000   900 ; ABOVE COPYRIGHT NOTICE.  THIS SOFTWARE, OR ANY OTHER COPIES THEREOF,
                                     0000  1000 ; MAY NOT BE PROVIDED OR  OTHERWISE MADE AVAILABLE TO ANY OTHER PERSON
                                     0000  1100 ; EXCEPT FOR USE ON SUCH SYSTEM AND TO ONE WHO AGREES TO THESE LICENSE
                                     0000  1200 ; TERMS.  TITLE TO AND  OWNERSHIP OF THE  SOFTWARE  SHALL AT ALL TIMES
                                     0000  1300 ; REMAIN IN DEC.
                                     0000  1400 ;
                                     0000  1500 ; THE INFORMATION IN THIS SOFTWARE IS SUBJECT TO CHANGE WITHOUT NOTICE
                                     0000  1600 ; AND SHOULD  NOT BE CONSTRUED  AS A COMMITMENT  BY DIGITAL  EQUIPMENT
                                     0000  1700 ; CORPORATION.
                                     0000  1800 ;
                                     0000  1900 ; DEC ASSUMES  NO  RESPONSIBILITY  FOR  THE USE OR  RELIABILITY OF ITS
                                     0000  2000 ; SOFTWARE ON EQUIPMENT WHICH IS NOT SUPPLIED BY DEC.
                                     0000  2100
                                     0000  2200 ;++
                                     0000  2300 ;
                                     0000  2400 ; Facility:
                                     0000  2500 ;
                                     0000  2600 ; Abstract: SYSSETPRA IMPLEMENTS THE $SETPRA SYSTEM SERVICE WHICH ENABLES
                                     0000  2700 ;	    A PROCESS TO RECEIVE AN AST WHEN POWER IS RESTORED AFTER A
                                     0000  2800 ;	    SUCCESSFUL POWER RECOVERY.
                                     0000  2900 ;
                                     0000  3000 ; Environment:
                                     0000  3100 ;
                                     0000  3200 ; Author:  RICHARD I. HUSTVEDT, Creation date:  18-JUN-1978
                                     0000  3300 ;
                                     0000  3400 ; Modified by:
                                     0000  3500 ;
                                     0000  3600 ;  , Version  ,
                                     0000  3700 ; 01	-
                                     0000  3800 ;--
                                     0000  3900
                                     0000  4000 ;
                                     0000  4100 ; Include files:
                                     0000  4200 ;
                                     0000  4300 	$ACBDEF				; DEFINE ACB OFFSETS
                                     0000  4400 	$PCBDEF				; DEFINE PCB OFFSETS
                                     0000  4500 	$SSDEF				; DEFINE SYSTEM SERVICE STATUS CODES
                                     0000  4600
                                     0000  4700 ;
                                     0000  4800 ; MACROS:
                                     0000  4900 ;
                                     0000  5000
                                     0000  5100 ;
                                     0000  5200 ; Equated Symbols:
                                     0000  5300 ;
                           00000004  0000  5400 	ASTADR = 4			; ARGUMENT LIST OFFSET TO AST ADDRESS
                           00000008  0000  5500 	ACMODE = 8			; ARGUMENT LIST OFFSET TO ACCESS MODE
                                     0000  5600 ;
                                     0000  5700
SYSSETPRA       - SET POWER FAIL AST SYSTEM SERVICE              21-AUG-1978 20:43:37   VAX-11 MACRO X0.3-11               Page   2
01                                                                                                                               (1)

                                     0000  5800 ;
                                     0000  5900 ; Own Storage:
                                     0000  6000 ;
                                 00000000  6100 	.PSECT	Y$EXEPAGED		; PAGED CODE
SYSSETPRA       - SET POWER FAIL AST SYSTEM SERVICE              21-AUG-1978 20:43:37   VAX-11 MACRO X0.3-11               Page   3
01              EXE$SETPRA - SET POWER FAIL AST ROUTINE ADDRESS                                                                  (1)

                                     0000  6300 	.SBTTL	EXE$SETPRA - SET POWER FAIL AST ROUTINE ADDRESS
                                     0000  6400 ;++
                                     0000  6500 ; Functional Description:
                                     0000  6600 ;	EXE$SETPRA IMPLEMENTS THE SYSTEM SERVICE $SETPRA WHICH ENABLES A
                                     0000  6700 ;	PROCESS TO REQUEST AN AST AFTER THE RESTORATION OF POWER FOLLOWING
                                     0000  6800 ;	A POWER FAILURE.  THE AST ROUTINE IS ENTERED WITH A PARAMETER
                                     0000  6900 ;	GIVING THE DURATION OF THE POWER OUTAGE IN .01 SECOND UNITS.
                                     0000  7000 ;	THIS IS A SINGLE SHOT AST AND MUST BE RE-ENABLED EACH TIME IT OCCURS.
                                     0000  7100 ;	IT IS AUTOMATICALLY CANCELED AT IMAGE RUNDOWN.
                                     0000  7200 ;
                                     0000  7300 ; Calling Sequence:
                                     0000  7400 ;	CALLG	ARGLIST,EXE$SETPRA
                                     0000  7500 ;
                                     0000  7600 ; Input Parameters:
                                     0000  7700 ;	ASTADR(AP) - ADDRESS OF AST ROUTINE
                                     0000  7800 ;	ACMODE(AP) - ACCESS MODE, MAXIMIZED WITH THAT OF CALLER
                                     0000  7900 ;
                                     0000  8000 ; Implicit Inputs:
                                     0000  8100 ;	PCB OF CURRENT PROCESS LOCATED VIA SCH$GL_CURPCB
                                     0000  8200 ;
                                     0000  8300 ; Output Parameters:
                                     0000  8400 ;	R0 - COMPLETION STATUS CODE
                                     0000  8500 ;
                                     0000  8600 ; Implicit Outputs:
                                     0000  8700 ;	NONE
                                     0000  8800 ;
                                     0000  8900 ; Side Effects:
                                     0000  9000 ;	NONE
                                     0000  9100 ;
                                     0000  9200 ; Status Codes:
                                     0000  9300 ;	SS$_NORMAL  - NORMAL, SUCCESSFUL COMPLETION
                                     0000  9400 ;	SS$_EXQUOTA - AST QUOTA EXCEEDED
                                     0000  9500 ;
                                     0000  9600 ;--
                                     0000  9700 	.LIST	MEB			; Show macro expansions
                                     0000  9800
                               003C' 0000  9900 	.ENTRY	EXE$SETPRA,^M<R2,R3,R4,R5>	;
            02            00     EF  0002 10000 	EXTZV	#0,#2,ACMODE(AP),R0	; GET ACCESS MODE ARGUMENT
            50         08 AC         0005
                          FFF5'  30  0008 10100 	BSBW	EXE$MAXACMODE		; MAXIMIZE WITH THAT OF CALLER
            51   00000000'EF     9E  000B 10200 	MOVAB	CTL$GL_POWERAST,R1	; GET ADDRESS OF POWER FAIL AST POINTER
                          61     D5  0012 10300 	TSTL	(R1)			; IS THERE ONE CURRENTLY?
                          08     12  0014 10400 	BNEQ	10$			; YES, SKIP QUOTA BUSINESS
                       3C A4     B5  0016 10500 	TSTW	PCB$W_ASTCNT(R4)	; CHECK FOR AST QUOTA
                          15     15  0019 10600 	BLEQ	EXQUOTA			; ERROR EXIT IF NO QUOTA
                       3C A4     B7  001B 10700 	DECW	PCB$W_ASTCNT(R4)	; ONE LESS FOR AST QUOTA
            61         04 AC     D0  001E 10800 10$:	MOVL	ASTADR(AP),(R1)		; SET ADDRESS OF AST ROUTINE
       0000'C1            50     90  0022 10900 	MOVB	R0,<CTL$GB_PWRMODE-CTL$GL_POWERAST>(R1)	; AND ACCESS MODE FOR AST
         28 A4            16     E2  0027 11000 	BBSS	#PCB$V_PWRAST,PCB$L_STS(R4),20$	; SET POWER AST FLAG FOR PROCESS
                          00         002B
            50            01     3C  002C 11100 20$:	MOVZWL	#SS$_NORMAL,R0		; RETURN NORMAL SUCCESSFUL COMPLETION
                                 04  002F 11200 	RET				;
                                     0030 11300
                                     0030 11400 EXQUOTA:				; EXCEEDED AST QUOTA
            50            1C     3C  0030 11500 	MOVZWL	#SS$_EXQUOTA,R0		; SET STATUS CODE FOR QUOTA EXCEEDED
                                 04  0033 11600 	RET				; AND RETURN
                                     0034 11700
SYSSETPRA       - SET POWER FAIL AST SYSTEM SERVICE              21-AUG-1978 20:43:37   VAX-11 MACRO X0.3-11               Page   4
01              EXE$POWERAST - INITIATE POWER FAIL AST FOR ALL                                                                   (1)

                                     0034 11900 	.SBTTL	EXE$POWERAST - INITIATE POWER FAIL AST FOR ALL INTERESTED PROCESSES
                                     0034 12000 ;++
                                     0034 12100 ; Functional Description:
                                     0034 12200 ;	EXE$POWERAST IS CALLED BY THE SWAPPER AFTER A POWER RECOVERY TO
                                     0034 12300 ;	SEND A SPECIAL KERNEL MODE AST TO EACH PROCESS WHICH HAS ENABLED
                                     0034 12400 ;	POWER FAIL ASTS.
                                     0034 12500 ;
                                     0034 12600 ; Calling sequence:
                                     0034 12700 ;	JSB	EXE$POWERAST
                                     0034 12800 ;
                                     0034 12900 ;--
                                     0034 13000 EXE$POWERAST::				;
                     0070 8F     BB  0034 13100 	PUSHR	#^M<R4,R5,R6>		; SAVE NON-VOLATILE REGISTERS
            56   00000000'EF     D0  0038 13200 	MOVL	SCH$GL_MAXPIX,R6	; SET STARTING PROCESS INDEX FOR SCAN
                                     003F 13300 PCBLOOP:				;
            54   00000000'FF46   D0  003F 13400 	MOVL	@SCH$GL_PCBVEC[R6],R4	; GET A PCB ADDRESS
         28 A4            16     E1  0047 13500 	BBC	#PCB$V_PWRAST,PCB$L_STS(R4),NEXTPCB ; BRANCH IF NO AST FOR THIS PROCESS
                          30         004B
                 00000000'EF     16  004C 13600 	JSB	EXE$ALLOCIRP		; ALLOCATE AN I/O PACKET
            27            50     E9  0052 13700 	BLBC	R0,NEXTPCB		; SKIP IF ERROR
         28 A4            16     E5  0055 13800 	BBCC	#PCB$V_PWRAST,PCB$L_STS(R4),10$ ; CLEAR AST FLAG
                          00         0059
            55            52     D0  005A 13900 10$:	MOVL	R2,R5			; MOVE BASE TO ACB BASE REGISTER
         0B A5         C0 8F     90  005D 14000 	MOVB	#<<1@ACB$V_QUOTA>!<1@ACB$V_KAST>>,ACB$B_RMOD(R5) ; SET AS SPECIAL AST
         0C A5         60 A4     D0  0062 14100 	MOVL	PCB$L_PID(R4),ACB$L_PID(R5)	; SET PID FOR AST
         18 A5         8A'AF     9E  0067 14200 	MOVAB	B^PROCAST,ACB$L_KAST(R5); SET ADDRESS FO SPECIAL AST
         14 A5   00000000'EF     D0  006C 14300 	MOVL	EXE$GL_PFATIM,ACB$L_ASTPRM(R5)	; SET AST PARAMETER
                          52     D4  0074 14400 	CLRL	R2			; NULL PRIORITY INCREMENT
                 00000000'EF     16  0076 14500 	JSB	SCH$QAST		; ENQUEUE AST FOR PROCESS
                                     007C 14600 NEXTPCB:				;
            C0            56     F4  007C 14700 	SOBGEQ	R6,PCBLOOP		; CONTINUE FOR ALL PIX VALUES
                 00000000'EF     D4  007F 14750 	CLRL	EXE$GL_PFATIM		; CLEAR DURATION OF POWERFAIL
                     0070 8F     BA  0085 14800 	POPR	#^M<R4,R5,R6>		; RESTORE REGISTERS
                                 05  0089 14900 	RSB				; AND RETURN
                                     008A 15000
SYSSETPRA       - SET POWER FAIL AST SYSTEM SERVICE              21-AUG-1978 20:43:37   VAX-11 MACRO X0.3-11               Page   5
01              PROCAST - SPECIAL KERNEL AST FOR POWERFAIL                                                                       (1)

                                     008A 15200 	.SBTTL	PROCAST - SPECIAL KERNEL AST FOR POWERFAIL
                                     008A 15300 ;++
                                     008A 15400 ; Functional Description:
                                     008A 15500 ;	PROCAST RUNS AS A SPECIAL KERNEL AST IN THE CONTEXT OF THE PROCESS
                                     008A 15600 ;	WHERE IT CAN ACCESS THE ADDRESS OF THE POWER FAIL AST ROUTINE AND
                                     008A 15700 ;	REQUEUE THE AST AT THE PROPER ACCESS MODE.
                                     008A 15800 ;
                                     008A 15900 ;--
                                     008A 16000 PROCAST:				;
            51   00000000'EF     9E  008A 16100 	MOVAB	CTL$GL_POWERAST,R1	; GET ADDRESS OF POWER FAIL AST POINTER
         10 A5            61     D0  0091 16200 	MOVL	(R1),ACB$L_AST(R5)	; SET CORRECT AST ROUTINE ADDRESS
         0B A5       0000'C1     88  0095 16300 	BISB	<CTL$GB_PWRMODE-CTL$GL_POWERAST>(R1),ACB$B_RMOD(R5) ;
                                     009B 16400 					; SET CORRECT ACCESS MODE
                          61     D4  009B 16500 	CLRL	(R1)			; ZAP AST POINTER
                          52     D4  009D 16600 	CLRL	R2			; SET NULL PRIORITY INCREMENT
                 00000000'EF     17  009F 16700 	JMP	SCH$QAST		; QUEUE NORMAL AST
                                     00A5 16800
                                     00A5 16900 	.END				;
SYSSETPRA       - SET POWER FAIL AST SYSTEM SERVICE              21-AUG-1978 20:43:37   VAX-11 MACRO X0.3-11               Page   6
SYMBOL TABLE                                                                                                                     (1)

ACB$B_RMOD       0000000B            PCB$V_FORCPEN  = 00000002            SS$_BADIMGHDR  = 00000044
ACB$B_TYPE       0000000A            PCB$V_HIBER    = 00000013            SS$_BADIRECTORY= 00000828
ACB$L_AST        00000010            PCB$V_INQUAN   = 00000003            SS$_BADPARAM   = 00000014
ACB$L_ASTPRM     00000014            PCB$V_LOGIN    = 00000014            SS$_BADSTACK   = 000002B4
ACB$L_ASTQBL     00000004            PCB$V_NETWRK   = 00000015            SS$_BEGOFFILE  = 00000938
ACB$L_ASTQFL     00000000            PCB$V_NOACNT   = 0000000F            SS$_BLOCKCNTERR= 00000940
ACB$L_KAST       00000018            PCB$V_NODELET  = 00000017            SS$_BREAK      = 00000414
ACB$L_PID        0000000C            PCB$V_PHDRES   = 00000012            SS$_BUFBYTALI  = 0000030C
ACB$M_QUOTA    = 00000040            PCB$V_PSWAPM   = 00000004            SS$_BUFFEROVF  = 00000601
ACB$S_MODE     = 00000002            PCB$V_PWRAST   = 00000016            SS$_BUGCHECK   = 000002A4
ACB$V_KAST     = 00000007            PCB$V_RES      = 00000000            SS$_CANCEL     = 00000830
ACB$V_MODE     = 00000000            PCB$V_RESPEN   = 00000005            SS$_CHANINTLK  = 0000004C
ACB$V_QUOTA    = 00000006            PCB$V_SSFEXC   = 00000006            SS$_CLIFRCEXT  = 00000980
ACB$W_SIZE       00000008            PCB$V_SSFEXCE  = 00000007            SS$_CMODSUPR   = 0000041C
ACMODE         = 00000008            PCB$V_SSFEXCS  = 00000008            SS$_CMODUSER   = 00000424
ASTADR         = 00000004            PCB$V_SSFEXCU  = 00000009            SS$_COMPAT     = 0000042C
BIT...         = 00000000            PCB$V_SSRWAIT  = 0000000A            SS$_CONTINUE   = 00000001
CTL$GB_PWRMODE   ********   X   03   PCB$V_SUSPEN   = 0000000B            SS$_CONTROLC   = 00000651
CTL$GL_POWERAST  ********   X   03   PCB$V_SWPVBN   = 00000010            SS$_CONTROLO   = 00000609
EXE$ALLOCIRP     ********   X   03   PCB$V_WAKEPEN  = 0000000C            SS$_CONTROLY   = 00000611
EXE$GL_PFATIM    ********   X   03   PCB$V_WALL     = 0000000D            SS$_CREATED    = 00000619
EXE$MAXACMODE    ********   X   03   PCB$W_APTCNT     00000034            SS$_CTRLERR    = 00000054
EXE$POWERAST     00000034 RG    03   PCB$W_ASTCNT     0000003C            SS$_DATACHECK  = 0000005C
EXE$SETPRA       00000000 RG    03   PCB$W_BIOCNT     0000003E            SS$_DATAOVERUN = 00000838
EXQUOTA          00000030 R     03   PCB$W_BIOLM      00000040            SS$_DEBUG      = 0000046C
GBL...         = 00000000            PCB$W_BYTCNT     00000042            SS$_DECOVF     = 000004A4
NEXTPCB          0000007C R     03   PCB$W_BYTLM      00000068            SS$_DEVACTIVE  = 000002C4
PCB$B_ASTACT     0000000C            PCB$W_DIOCNT     00000044            SS$_DEVALLOC   = 00000840
PCB$B_ASTEN      0000000D            PCB$W_DIOLM      00000046            SS$_DEVALRALLOC= 00000641
PCB$B_PRI        0000000B            PCB$W_FILCNT     00000048            SS$_DEVASSIGN  = 00000848
PCB$B_PRIB       00000033            PCB$W_GPGCNT     00000038            SS$_DEVFOREIGN = 00000064
PCB$B_TYPE       0000000A            PCB$W_GRP        00000022            SS$_DEVICEFULL = 00000850
PCB$B_WEFC       00000032            PCB$W_MEM        00000020            SS$_DEVMOUNT   = 0000006C
PCB$C_LENGTH     0000007C            PCB$W_MTXCNT     0000000E            SS$_DEVNOTALLOC= 00000858
PCB$K_LENGTH     0000007C            PCB$W_PPGCNT     0000003A            SS$_DEVNOTMBX  = 00000074
PCB$L_ASTQBL     00000014            PCB$W_PRCCNT     0000006A            SS$_DEVNOTMOUNT= 0000007C
PCB$L_ASTQFL     00000010            PCB$W_SIZE       00000008            SS$_DEVOFFLINE = 00000084
PCB$L_EFC2P      00000058            PCB$W_STATE      00000030            SS$_DIRFULL    = 00000860
PCB$L_EFC3P      0000005C            PCB$W_TMBU       00000036            SS$_DRVERR     = 0000008C
PCB$L_EFCS       00000050            PCB$W_TQCNT      0000004A            SS$_DUPFILENAME= 00000868
PCB$L_EFCU       00000054            PCBLOOP          0000003F R     03   SS$_DUPLNAM    = 00000094
PCB$L_EFWM       0000004C            PROCAST          0000008A R     03   SS$_ENDOFFILE  = 00000870
PCB$L_OWNER      0000001C            SCH$GL_MAXPIX    ********   X   03   SS$_ENDOFTAPE  = 00000878
PCB$L_PHD        00000064            SCH$GL_PCBVEC    ********   X   03   SS$_ENDOFUSRLBL= 00000970
PCB$L_PHYPCB     00000018            SCH$QAST         ********   X   03   SS$_EXQUOTA    = 0000001C
PCB$L_PID        00000060            SS$_ABORT      = 0000002C            SS$_EXTIDXFILE = 00000880
PCB$L_PQB        0000004C            SS$_ACCONFLICT = 00000800            SS$_FCPREADERR = 00000888
PCB$L_SQBL       00000004            SS$_ACCVIO     = 0000000C            SS$_FCPREPSTN  = 00000988
PCB$L_SQFL       00000000            SS$_ACPVAFUL   = 000002FC            SS$_FCPREWNDERR= 00000890
PCB$L_STS        00000028            SS$_ARTRES     = 00000474            SS$_FCPSPACERR = 00000898
PCB$L_UIC        00000020            SS$_ASTFLT     = 0000040C            SS$_FCPWRITERR = 000008A0
PCB$L_WSSWP      00000024            SS$_BADATTRIB  = 00000034            SS$_FILACCERR  = 0000009C
PCB$L_WTIME      0000002C            SS$_BADCHKSUM  = 00000808            SS$_FILALRACC  = 000000A4
PCB$T_LNAME      0000006C            SS$_BADESCAPE  = 0000003C            SS$_FILELOCKED = 000008A8
PCB$V_ASTPEN   = 00000011            SS$_BADFILEHDR = 00000810            SS$_FILENUMCHK = 000008B0
PCB$V_BATCH    = 0000000E            SS$_BADFILENAME= 00000818            SS$_FILESEQCHK = 000008B8
PCB$V_DELPEN   = 00000001            SS$_BADFILEVER = 00000820            SS$_FILESTRUCT = 000008C0
SYSSETPRA       - SET POWER FAIL AST SYSTEM SERVICE              21-AUG-1978 20:43:37   VAX-11 MACRO X0.3-11               Page   7
SYMBOL TABLE                                                                                                                     (1)

SS$_FILNOTACC  = 000000AC            SS$_NOIOCHAN   = 000001B4            SS$_WASCLR     = 00000001
SS$_FILNOTCNTG = 000002AC            SS$_NOLINKS    = 0000027C            SS$_WASECC     = 00000639
SS$_FILNOTEXP  = 000000B4            SS$_NOLOGNAM   = 000001BC            SS$_WASSET     = 00000009
SS$_FLTDIV     = 00000494            SS$_NOMBX      = 00000274            SS$_WRITLCK    = 0000025C
SS$_FLTOVF     = 0000048C            SS$_NOMOREFILES= 00000930            SS$_WRONGACP   = 0000031C
SS$_FLTUND     = 0000049C            SS$_NONEXDRV   = 000001C4
SS$_FORMAT     = 000000BC            SS$_NONEXPR    = 000008E8
SS$_GPTFULL    = 000000C4            SS$_NONLOCAL   = 000008F0
SS$_GSDFULL    = 000000CC            SS$_NOPRIV     = 00000024
SS$_HANGUP     = 000002CC            SS$_NORMAL     = 00000001
SS$_HEADERFULL = 000008C8            SS$_NOSIGNAL   = 00000900
SS$_IDXFILEFULL= 000008D0            SS$_NOSOLICIT  = 00000284
SS$_ILLBLKNUM  = 000000DC            SS$_NOSUCHDEV  = 00000908
SS$_ILLCNTRFUNC= 000000E4            SS$_NOSUCHFILE = 00000910
SS$_ILLEFC     = 000000EC            SS$_NOSUCHNODE = 0000028C
SS$_ILLIOFUNC  = 000000F4            SS$_NOSUCHSEC  = 00000978
SS$_ILLLBLAST  = 00000968            SS$_NOTAPEOP   = 00000264
SS$_ILLPAGCNT  = 000000FC            SS$_NOTFILEDEV = 000001CC
SS$_ILLSEQOP   = 000002DC            SS$_NOTINTBLSZ = 000001D4
SS$_ILLSER     = 00000104            SS$_NOTLABELMT = 000001DC
SS$_ILLUSRLBLRD= 00000958            SS$_NOTMODIFIED= 00000659
SS$_ILLUSRLBLWT= 00000960            SS$_NOTNETDEV  = 000002EC
SS$_INCVOLLABEL= 0000010C            SS$_NOTRAN     = 00000629
SS$_INSFARG    = 00000114            SS$_NOTSQDEV   = 000001E4
SS$_INSFMEM    = 00000124            SS$_OPCCUS     = 00000434
SS$_INSFRAME   = 0000012C            SS$_OPCDEC     = 0000043C
SS$_INSFWSL    = 0000011C            SS$_OPINCOMPL  = 000002D4
SS$_INTDIV     = 00000484            SS$_PAGOWNVIO  = 000001EC
SS$_INTOVF     = 0000047C            SS$_PAGRDERR   = 00000444
SS$_IVADDR     = 00000134            SS$_PARITY     = 000001F4
SS$_IVCHAN     = 0000013C            SS$_PARTESCAPE = 000001FC
SS$_IVCHNLSEC  = 0000026C            SS$_PFMBSY     = 00000204
SS$_IVDEVNAM   = 00000144            SS$_PLHLDR     = 00000404
SS$_IVGSDNAM   = 0000014C            SS$_PSTFULL    = 0000020C
SS$_IVLOGNAM   = 00000154            SS$_RADRMOD    = 0000044C
SS$_IVLOGTAB   = 0000015C            SS$_REJECT     = 00000294
SS$_IVPROTECT  = 000002F4            SS$_REMOTE     = 00000649
SS$_IVQUOTAL   = 00000164            SS$_RESIGNAL   = 00000918
SS$_IVSECFLG   = 0000016C            SS$_RESULTOVF  = 00000214
SS$_IVSECIDCTL = 000002E4            SS$_ROPRAND    = 00000454
SS$_IVSSRQ     = 00000174            SS$_SECTBLFUL  = 0000021C
SS$_IVSTSFLG   = 0000017C            SS$_SSFAIL     = 0000045C
SS$_IVTIME     = 00000184            SS$_SUBRNG     = 000004AC
SS$_LCKPAGFUL  = 000000D4            SS$_SUPERSEDE  = 00000631
SS$_LENVIO     = 0000018C            SS$_TAPEPOSLOST= 00000224
SS$_LKWSETFUL  = 00000194            SS$_TBIT       = 00000464
SS$_MBFULL     = 000008D8            SS$_TIMEOUT    = 0000022C
SS$_MBTOOSML   = 0000019C            SS$_TOOMANYVER = 00000990
SS$_MCHECK     = 000002BC            SS$_TOOMUCHDATA= 0000029C
SS$_MEDOFL     = 000001A4            SS$_UNASEFC    = 00000234
SS$_MSGNOTFND  = 00000621            SS$_UNSAFE     = 0000023C
SS$_MTLBLLONG  = 00000304            SS$_UNWIND     = 00000920
SS$_MUSTCLOSEFL= 00000948            SS$_UNWINDING  = 00000928
SS$_NOAQB      = 00000314            SS$_VASFULL    = 00000244
SS$_NODATA     = 000001AC            SS$_VECINUSE   = 0000024C
SS$_NOHANDLER  = 000008F8            SS$_VOLINV     = 00000254
SS$_NOHOMEBLK  = 000008E0            SS$_WAITUSRLBL = 00000950
SYSSETPRA       - SET POWER FAIL AST SYSTEM SERVICE              21-AUG-1978 20:43:37   VAX-11 MACRO X0.3-11               Page   8
PROGRAM SECTION SYNOPSIS                                                                                                         (1)


PROGRAM SECTION SYNOPSIS

.  ABS  .        00000000      00     NOPIC   USR   CON   ABS   LCL NOSHR NOEXE NORD  NOWRT BYTE
. BLANK .        00000000      01     NOPIC   USR   CON   REL   LCL NOSHR   EXE   RD    WRT BYTE
$ABS$            0000007C      02     NOPIC   USR   CON   ABS   LCL NOSHR   EXE   RD    WRT BYTE
Y$EXEPAGED       000000A5      03     NOPIC   USR   CON   REL   LCL NOSHR   EXE   RD    WRT BYTE


THERE WERE NO ERRORS OR WARNINGS.
16818. BYTES LEFT IN FREE MEMORY POOL.
3536. BYTES OF RECLAIMED MEMORY.
OBJ$:SYSSETPRA,LIS$:SYSSETPRA/-SP=EXECML$/ML,SRC$:SYSSETPRA
3 MLB DIR RDS - 480 GETS TO DEFINE 12 MACROS. 34 INTER. FILE WRITES.
