TTYDRVDAT       - TERMINAL DRIVER DATA BASE                      21-AUG-1978 21:01:39   VAX-11 MACRO X0.3-11               Page   0
TABLE OF CONTENTS

   (2)     214  ESCAPE SYNTAX TABLE
   (3)     266  DRIVER DISPATCH TABLE AND FUNCTION DECISION TAB
   (4)     311  TERMINATOR BITMASK FOR STANDARD SET
   (5)     321  SPECIAL STRINGS
TTYDRVDAT       - TERMINAL DRIVER DATA BASE                      21-AUG-1978 21:01:39   VAX-11 MACRO X0.3-11               Page   1
V06                                                                                                                              (1)

                                     0000     1 	.TITLE	TTYDRVDAT - TERMINAL DRIVER DATA BASE
                                     0000     2 	.IDENT	/V06/
                                     0000     3 ;
                                     0000     4 ; COPYRIGHT (C) 1978
                                     0000     5 ; DIGITAL EQUIPMENT CORPORATION, MAYNARD, MASS.
                                     0000     6 ;
                                     0000     7 ; THIS SOFTWARE IS FURNISHED UNDER  A LICENSE FOR USE ONLY  ON  A
                                     0000     8 ; SINGLE COMPUTER SYSTEM AND MAY BE  COPIED ONLY WITH  THE INCLU-
                                     0000     9 ; SION OF  THE  ABOVE  COPYRIGHT NOTICE.  THIS SOFTWARE,  OR  ANY
                                     0000    10 ; OTHER COPIES THEREOF, MAY NOT BE  PROVIDED  OR  OTHERWISE  MADE
                                     0000    11 ; AVAILABLE TO ANY OTHER PERSON EXCEPT  FOR  USE  ON  SUCH SYSTEM
                                     0000    12 ; AND TO  ONE WHO AGREES  TO  THESE LICENSE  TERMS.  TITLE TO AND
                                     0000    13 ; OWNERSHIP OF THE SOFTWARE SHALL AT ALL TIMES REMAIN IN DEC.
                                     0000    14 ;
                                     0000    15 ; THE INFORMATION IN THIS SOFTWARE  IS  SUBJECT TO CHANGE WITHOUT
                                     0000    16 ; NOTICE AND SHOULD NOT BE CONSTRUED  AS  A COMMITMENT BY DIGITAL
                                     0000    17 ; EQUIPMENT CORPORATION.
                                     0000    18 ;
                                     0000    19 ; DEC ASSUMES NO RESPONSIBILITY FOR THE USE OR RELIABILITY OF ITS
                                     0000    20 ; SOFTWARE ON EQUIPMENT WHICH IS NOT SUPPLIED BY DEC.
                                     0000    21
                                     0000    22 ;++
                                     0000    23 ; FACILITY:
                                     0000    24 ;
                                     0000    25 ;	VAX/VMS TERMINAL DRIVER
                                     0000    26 ;
                                     0000    27 ; ABSTRACT:
                                     0000    28 ;
                                     0000    29 ;	TERMINAL DRIVER DATA BASE
                                     0000    30 ;
                                     0000    31 ; AUTHOR:
                                     0000    32 ;	R.HEINEN 14-JUN-1977
                                     0000    33 ;--
                                     0000    34
                                     0000    35 ;
                                     0000    36 ; EXTERNAL DEFINITIONS
                                     0000    37 ;
                                     0000    38 	$IODEF				; DEFINE I/O FUNCTION CODES
                                     0000    39 	$TTYDEF				; DEFINE TERMINAL DRIVER SYMBOLS
                                     0000    40 	$TTDEF				; DEFINE TERMINAL CHARACTERISTICS
                                     0000    41 	$UCBDEF				; DEFINE UCB
                                     0000    42 	$TTYUCBDEF			; DEFINE TERMINAL DRIVER SYMBOLS
                                     0000    43 ;
                                     0000    44 ; LOCAL DATA STORAGE
                                     0000    45 ;
                                     0000    46 	.MACRO	TYPE	TYP
                                     0000    47 	CHAR=CHAR+1
                                     0000    48 	Y=0
                                     0000    49 	.IF	NB	TYP
                                     0000    50 	Y=XY'TYP
                                     0000    51 	XY'TYP=1+XY'TYP
                                     0000    52 	.IF	IDN	CONTROL,TYP
                                     0000    53 	Y=Y!<TTY$M_CH_CTRL>
                                     0000    54 	.ENDC
                                     0000    55 	.IF	IDN	SPEC,TYP
                                     0000    56 	Y=Y!<TTY$M_CH_SPEC>
                                     0000    57 	.ENDC
TTYDRVDAT       - TERMINAL DRIVER DATA BASE                      21-AUG-1978 21:01:39   VAX-11 MACRO X0.3-11               Page   2
V06                                                                                                                              (1)

                                     0000    58 	.IF	IDN	CTRL2,TYP
                                     0000    59 	Y=Y!<TTY$M_CH_CTRL2>
                                     0000    60 	.ENDC
                                     0000    61 	.ENDC
                                     0000    62 	.IF	GE	CHAR-97
                                     0000    63 	.IF	LE	CHAR-97-26
                                     0000    64 	Y=Y!<TTY$M_CH_LOWER>
                                     0000    65 	.ENDC
                                     0000    66 	.ENDC
                                     0000    67 	.BYTE	Y
                                     0000    68 	.ENDM
                                     0000    69
                                 00000000    70 	.PSECT	$$$115_DRIVER,LONG	; DEFINE I/O DRIVER NON PAGED
                                     0000    71
                                     0000    72 ;
                                     0000    73 ; CHARACTERISTICS FOR CHARACTER ECHO AND TERMINATION DETECTION
                                     0000    74 ;
                                     0000    75 ;
                           00000000  0000    76 CHAR=0
                           00000000  0000    77 XYSPEC=0
                           00000000  0000    78 XYCONTROL=0
                           00000000  0000    79 XYCTRL2=0
                                     0000    80 ;
                                     0000    81 TTY$A_TYPE::
                                     0000    82 	TYPE				; NULL
                                     0001    83 	TYPE				; CONTROL A
                                     0002    84 	TYPE				; CONTROL B
                                     0003    85 	TYPE	CONTROL			; CONTROL C
                                     0004    86 	TYPE				; CONTROL D
                                     0005    87 	TYPE				; CONTROL E
                                     0006    88 	TYPE				; CONTROL F
                                     0007    89 	TYPE				; BELL CONTROL G
                                     0008    90 	TYPE	SPEC			; BACKSPACE
                                     0009    91 	TYPE	SPEC			; TAB
                                     000A    92 	TYPE	SPEC			; LINE FEED
                                     000B    93 	TYPE	SPEC			; VERTICLE TAB
                                     000C    94 	TYPE	SPEC			; FORM FEED
                                     000D    95 	TYPE	SPEC			; CARRIAGE RETURN
                                     000E    96 	TYPE				; CONTROL N
                                     000F    97 	TYPE	CONTROL			; CONTROL O
                                     0010    98 	TYPE				; CONTROL P
                                     0011    99 	TYPE	CONTROL			; CONTROL Q
                                     0012   100 	TYPE	CTRL2			; CONTROL R
                                     0013   101 	TYPE	CONTROL			; CONTROL S
                                     0014   102 	TYPE				; CONTROL T
                                     0015   103 	TYPE	CTRL2			; CONTROL U
                                     0016   104 	TYPE				; CONTROL V
                                     0017   105 	TYPE				; CONTROL W
                                     0018   106 	TYPE	CONTROL			; CONTROL X
                                     0019   107 	TYPE	CONTROL			; CONTROL Y
                                     001A   108 	TYPE	SPEC			; CONTROL Z
                                     001B   109 	TYPE	SPEC			; ESCAPE
                                     001C   110 	TYPE				;
                                     001D   111 	TYPE				;
                                     001E   112 	TYPE				;
                                     001F   113 	TYPE				;
                                     0020   114 	TYPE				; SPACE
TTYDRVDAT       - TERMINAL DRIVER DATA BASE                      21-AUG-1978 21:01:39   VAX-11 MACRO X0.3-11               Page   3
V06                                                                                                                              (1)

                                     0021   115 	TYPE				; !
                                     0022   116 	TYPE				; "
                                     0023   117 	TYPE				; #
                                     0024   118 	TYPE				; $
                                     0025   119 	TYPE				; %
                                     0026   120 	TYPE				; &
                                     0027   121 	TYPE				; '
                                     0028   122 	TYPE				; (
                                     0029   123 	TYPE				; )
                                     002A   124 	TYPE				; *
                                     002B   125 	TYPE				; +
                                     002C   126 	TYPE				; ,
                                     002D   127 	TYPE				; -
                                     002E   128 	TYPE				; .
                                     002F   129 	TYPE				; /
                                     0030   130 	TYPE				; 0
                                     0031   131 	TYPE				; 1
                                     0032   132 	TYPE				; 2
                                     0033   133 	TYPE				; 3
                                     0034   134 	TYPE				; 4
                                     0035   135 	TYPE				; 5
                                     0036   136 	TYPE				; 6
                                     0037   137 	TYPE				; 7
                                     0038   138 	TYPE				; 8
                                     0039   139 	TYPE				; 9
                                     003A   140 	TYPE				; :
                                     003B   141 	TYPE				; ;
                                     003C   142 	TYPE				; <
                                     003D   143  	TYPE				; =
                                     003E   144 	TYPE				; >
                                     003F   145 	TYPE				; ?
                                     0040   146 	TYPE				; @
                                     0041   147 	TYPE				; A
                                     0042   148 	TYPE				; B
                                     0043   149 	TYPE				; C
                                     0044   150 	TYPE				; D
                                     0045   151 	TYPE				; E
                                     0046   152 	TYPE				; F
                                     0047   153 	TYPE				; G
                                     0048   154 	TYPE				; H
                                     0049   155 	TYPE				; I
                                     004A   156 	TYPE				; J
                                     004B   157 	TYPE				; K
                                     004C   158 	TYPE				; L
                                     004D   159 	TYPE				; M
                                     004E   160 	TYPE				; N
                                     004F   161 	TYPE				; O
                                     0050   162 	TYPE				; P
                                     0051   163 	TYPE				; Q
                                     0052   164 	TYPE				; R
                                     0053   165 	TYPE				; S
                                     0054   166 	TYPE				; T
                                     0055   167 	TYPE				; U
                                     0056   168 	TYPE				; V
                                     0057   169 	TYPE				; W
                                     0058   170 	TYPE				; X
                                     0059   171 	TYPE				; Y
TTYDRVDAT       - TERMINAL DRIVER DATA BASE                      21-AUG-1978 21:01:39   VAX-11 MACRO X0.3-11               Page   4
V06                                                                                                                              (1)

                                     005A   172 	TYPE				; Z
                                     005B   173 	TYPE				; [
                                     005C   174 	TYPE				; \
                                     005D   175 	TYPE				; ]
                                     005E   176 	TYPE				; ^
                                     005F   177 	TYPE				; _
                                     0060   178 	TYPE				; ELISPE
                                     0061   179 	TYPE				; LOWER A
                                     0062   180 	TYPE				; LOWER B
                                     0063   181 	TYPE				; LOWER C
                                     0064   182 	TYPE				; LOWER D
                                     0065   183 	TYPE				; LOWER E
                                     0066   184 	TYPE				; LOWER F
                                     0067   185 	TYPE				; LOWER G
                                     0068   186 	TYPE				; LOWER H
                                     0069   187 	TYPE				; LOWER I
                                     006A   188 	TYPE				; LOWER J
                                     006B   189 	TYPE				; LOWER K
                                     006C   190 	TYPE				; LOWER L
                                     006D   191 	TYPE				; LOWER M
                                     006E   192 	TYPE				; LOWER N
                                     006F   193 	TYPE				; LOWER O
                                     0070   194 	TYPE				; LOWER P
                                     0071   195 	TYPE				; LOWER Q
                                     0072   196 	TYPE				; LOWER R
                                     0073   197 	TYPE				; LOWER S
                                     0074   198 	TYPE				; LOWER T
                                     0075   199 	TYPE				; LOWER U
                                     0076   200 	TYPE				; LOWER V
                                     0077   201 	TYPE				; LOWER W
                                     0078   202 	TYPE				; LOWER X
                                     0079   203 	TYPE				; LOWER Y
                                     007A   204 	TYPE				; LOWER Z
                                     007B   205 	TYPE				; CURRLY LEFT
                                     007C   206 	TYPE				; UP LINE
                                     007D   207 	TYPE				; CURRLY RIGHT
                                     007E   208 	TYPE	CTRL2			; WIGGLE
                                     007F   209 	TYPE	CTRL2			; DELETE
                                     0080   210 	.REPT	128
                                     0080   211 	TYPE
                                     0080   212 	.ENDR
TTYDRVDAT       - TERMINAL DRIVER DATA BASE                      21-AUG-1978 21:01:39   VAX-11 MACRO X0.3-11               Page   5
V06             ESCAPE SYNTAX TABLE                                                                                              (2)

                                     0100   214 	.SBTTL	ESCAPE SYNTAX TABLE
                                     0100   215 ;
                                     0100   216 ; ESCAPE SYNTAX TABLE
                                     0100   217 ;
                                     0100   218 TTY$A_ESCAPE::				; ESCAPE SYNTAX TABLE
                                     0100   219 ;
                                     0100   220 ; ESCAPE SEQUENCE <ESC><;><32:47>....<48:126>
                                     0100   221 ;
                              3B 3B  0100   222 	.ASCII	/;;/			; ";"
                                 0F' 0102   223 	.BYTE	10$-TTY$A_ESCAPE	;
                                     0103   224 ;
                                     0103   225 ; ESCAPE SEQUENCE <ESC><?><32:47>....<48:126>
                                     0103   226 ;
                              3F 3F  0103   227 	.ASCII	/??/			; "?"
                                 0F' 0105   228 	.BYTE	10$-TTY$A_ESCAPE	;
                                     0106   229 ;
                                     0106   230 ; ESCAPE SEQUENCE <ESC><O><32:47>....<64:126>
                                     0106   231 ;
                              4F 4F  0106   232 	.ASCII	/OO/			; "O"
                                 15' 0108   233 	.BYTE	20$-TTY$A_ESCAPE	;
                                     0109   234 ;
                                     0109   235 ; ESCAPE SEQUENCE <ESC><P><32:47>....<48:126>
                                     0109   236 ;
                              50 50  0109   237 	.ASCII	/PP/			; "P"
                                 0F' 010B   238 	.BYTE	10$-TTY$A_ESCAPE	;
                                     010C   239 ;
                                     010C   240 ; ESCAPE SEQUENCE <ESC><Y><32:126><32:126>
                                     010C   241 ;
                              59 59  010C   242 	.ASCII	/YY/			; "Y"
                                 1A' 010E   243 	.BYTE	30$-TTY$A_ESCAPE	;
                                     010F   244 ;
                                     010F   245 ; ESCAPE SEQUENCE <ESC><32:47>....<48:126>
                                     010F   246 ;
                              2F 20  010F   247 10$:	.ASCII	! /!			; SPACE TO "/"
                                 0F' 0111   248 	.BYTE	10$-TTY$A_ESCAPE	; INTERMEDIATE CHARACTER
                              7E 30  0112   249 	.ASCII	/0/<126>		; "0" TO END
                                 00  0114   250 	.BYTE	0			; FINAL
                              2F 20  0115   251 20$:	.ASCII	! /!			; SPACE TO "/"
                                 15' 0117   252 	.BYTE	20$-TTY$A_ESCAPE
                              7E 40  0118   253 	.ASCII	/@/<126>		; "@" TO END
                              7E 20  011A   254 30$:	.ASCII	! !<126>		; SPACE TO END
                                 1D' 011C   255 	.BYTE	40$-TTY$A_ESCAPE
                              7E 20  011D   256 40$:	.ASCII	! !<126>		;
                                 00  011F   257 	.BYTE	0			;
                                     0120   258 ;
                                     0120   259 ; ESCAPE SEQUENCES WITH MEANING FOR OUTPUT
                                     0120   260 ;
                                     0120   261 ; THERE IS A CORRELATION BETWEEN THIS TABLE AND CODE!
                                     0120   262 ;
                                     0120   263 TTY$A_ESC_OUT::
5A 4B 47 46 59 49 48 44 43 42 41 00' 0120   264 	.ASCIC	/ABCDHIYFGKZ>=\[/		;
                        5B 5C 3D 3E  012C
                                 0F  0120
TTYDRVDAT       - TERMINAL DRIVER DATA BASE                      21-AUG-1978 21:01:39   VAX-11 MACRO X0.3-11               Page   6
V06             DRIVER DISPATCH TABLE AND FUNCTION DECISION TAB                                                                  (3)

                                     0130   266 	.SBTTL	DRIVER DISPATCH TABLE AND FUNCTION DECISION TABLE
                                     0130   267 ;
                                     0130   268 ; DRIVER DISPATCH TABLE
                                     0130   269 ;
                                     0130   270 	DDTAB	TT,-			; DRIVER DISPATCH TABLE
                                     0130   271 		+TTY$STARTIO,-		; START IO OPERATION
                                     0130   272 		0,-			; UNEXPECTED INTERRUPT
                                     0130   273 		FUNCTION,-		; FUNCTION DECISION TABLE
                                     0130   274 		+TTY$CANCELIO,-		; CANCEL I/O
                                     0130   275 		0,-			; REGISTER DUMP ROUTINE
                                     0130   276 		0,-			; SIZE OF DIAGNOSTIC BUFFER
                                     0130   277 		0			; SIZE OF ERROR LOG BUFFER
                                     0148   278 ;
                                     0148   279 ; FUNCTION DECISION TABLE FOR ALL TERMINALS
                                     0148   280 ;
                                     0148   281 FUNCTION:
                                     0148   282 	FUNCTAB	,-			; LEGAL FUNCTIONS
                                     0148   283 		<READLBLK,-
                                     0148   284 		WRITELBLK,-
                                     0148   285 		READVBLK,-
                                     0148   286 		WRITEVBLK,-
                                     0148   287 		READPBLK,-
                                     0148   288 		WRITEPBLK,-
                                     0148   289 		READPROMPT,-
                                     0148   290 		SETMODE,-
                                     0148   291 		SETCHAR,-
                                     0148   292 		SENSEMODE,-
                                     0148   293 		SENSECHAR,-
                                     0148   294 		>
                                     0150   295 	FUNCTAB	,-			; BUFFERED I/O FUNCTIONS
                                     0150   296 		<READLBLK,-
                                     0150   297 		WRITELBLK,-
                                     0150   298 		READVBLK,-
                                     0150   299 		WRITEVBLK-
                                     0150   300 		READPBLK,-
                                     0150   301 		READPROMPT,-
                                     0150   302 		WRITEPBLK,-
                                     0150   303 		>
                                     0158   304 	FUNCTAB	+TTY$FDTREAD,<READLBLK,READVBLK,READPBLK,READPROMPT>
                                     0164   305 	FUNCTAB	+TTY$FDTWRITE,<WRITELBLK,WRITEVBLK,WRITEPBLK>
                                     0170   306 	FUNCTAB +TTY$FDTSETM,<SETMODE>
                                     017C   307 	FUNCTAB	+TTY$FDTSETC,<SETCHAR>
                                     0188   308 	FUNCTAB +TTY$FDTSENSEM,<SENSEMODE>
                                     0194   309 	FUNCTAB	+TTY$FDTSENSEC,<SENSECHAR>
TTYDRVDAT       - TERMINAL DRIVER DATA BASE                      21-AUG-1978 21:01:39   VAX-11 MACRO X0.3-11               Page   7
V06             TERMINATOR BITMASK FOR STANDARD SET                                                                              (4)

                                     01A0   311 	.SBTTL	TERMINATOR BITMASK FOR STANDARD SET
                                     01A0   312 ;
                                     01A0   313 ;
                                     01A0   314 ;
                                     01A0   315 TTY$A_STANDARD::				;
                           FFFFE0FF  01A0   316 		.LONG	^X0FFFFE0FF		; BS,TAB,LF,VT,FORM NOT TERMS
         80000000 00000000 00000000  01A4   317 		.LONG	0,0,^X80000000		; AND DELETE
                           FFFFE0FF  01B0   318 		.LONG	^X0FFFFE0FF		;
         80000000 00000000 00000000  01B4   319 		.LONG	0,0,^X80000000
TTYDRVDAT       - TERMINAL DRIVER DATA BASE                      21-AUG-1978 21:01:39   VAX-11 MACRO X0.3-11               Page   8
V06             SPECIAL STRINGS                                                                                                  (5)

                                     01C0   321 	.SBTTL	SPECIAL STRINGS
                                     01C0   322 ;
                                     01C0   323 ; MULTI ECHO STRINGS
                                     01C0   324 ;
                                     01C0   325 ; TAB STRINGS
                                     01C0   326 ;
         00 20 20 20 20 20 20 20 20  01C0   327 TTY$A_TAB::		.ASCIZ	/        /
                                     01C9   328 ;
                                     01C9   329 ; BACKSPACE STRING
                                     01C9   330 ;
            00 08'08'08'08'08'08'08' 01C9   331 TTY$A_DELCRTTAB::	.BYTE	TTY$C_BS,TTY$C_BS,TTY$C_BS,TTY$C_BS,TTY$C_BS,TTY$C_BS,TTY$C_
                           08'20'08' 01D1   332 TTY$A_BACKSPACE::	.BYTE	TTY$C_BS,TTY$C_BLANK,TTY$C_BS
                                 00  01D4   333 		.BYTE	0
                                     01D5   334 ;
                                     01D5   335 ; UTILITY STRINGS
                                     01D5   336 ;
                                     01D5   337 ; THE ORGANIZATION OF THIS TABLE IS CRITICAL
                                     01D5   338 ;
                                     01D5   339 ;
                           00 5B 1B  01D5   340 TTY$A_HLDSCREEN::	.BYTE	^O033,^O0133,0
                           00 5C 1B  01D8   341 TTY$A_RLSCREEN::	.BYTE	^O033,^O0134,0
                           00 1B 60  01DB   342 TTY$A_SCRIPT::	.BYTE	^X060,^X01B,0	; ELIPSE-ESCAPE-END
                        00 0D'5A 5E  01DE   343 TTY$A_CTRLZ::	.ASCIZ	/^Z/<TTY$C_CR>
                        00 0D'55 5E  01E2   344 TTY$A_CTRLU::	.ASCIZ	/^U/<TTY$C_CR>
                        00 0D'52 5E  01E6   345 TTY$A_CTRLR::	.ASCIZ	/^R/<TTY$C_CR>
                              5C 1B  01EA   346 		.BYTE	^O033,^O0134
               00 0A 0D 59 5E 0A 0D  01EC   347 TTY$A_CTRLY::	.ASCIZ	<13><10>/^Y/<13><10>
                              5C 1B  01F3   348 		.BYTE	^O033,^O0134
               00 0A 0D 43 5E 0A 0D  01F5   349 TTY$A_CTRLC::	.ASCIZ	<13><10>/^C/<13><10>
                     00 0A 0D 4F 5E  01FC   350 TTY$A_CTRLO::	.ASCIZ	/^O/<13><10>
                                     0201   351 ;
                                     0201   352 ; VTAB AND FORM
                                     0201   353 ;
                        0A'0A'0A'0A' 0201   354 TTY$A_VTAB::		.BYTE	TTY$C_LF,TTY$C_LF,TTY$C_LF,TTY$C_LF
                                 00  0205   355 TTY$A_FORM::		.BYTE	0
                     0C'0A'0A'0A'0A' 0206   356 TTY$A_LONGFORM::	.BYTE	TTY$C_LF,TTY$C_LF,TTY$C_LF,TTY$C_LF,TTY$C_FF
                                     020B   357 ;
                                     020B   358 	.END
TTYDRVDAT       - TERMINAL DRIVER DATA BASE                      21-AUG-1978 21:01:39   VAX-11 MACRO X0.3-11               Page   9
SYMBOL TABLE                                                                                                                     (5)

BIT...         = 00000008            IO$V_DSABLMBX  = 0000000A            IO$_SETCHAR    = 0000001A
CHAR           = 00000100            IO$V_ENABLMBX  = 00000007            IO$_SETMODE    = 00000023
FUNCTION         00000148 R     03   IO$V_FCODE     = 00000000            IO$_SKIPFILE   = 00000025
GBL...         = 00000000            IO$V_HANGUP    = 00000009            IO$_SKIPRECORD = 00000026
IO$M_ABORT     = 00000100            IO$V_INHERLOG  = 0000000B            IO$_SPACEFILE  = 00000002
IO$M_ACCESS    = 00000040            IO$V_INHEXTGAP = 0000000C            IO$_SPACERECORD= 00000009
IO$M_ATTNAST   = 00000100            IO$V_INHRETRY  = 0000000F            IO$_STARTSPNDL = 00000019
IO$M_BINARY    = 00000040            IO$V_INHSEEK   = 0000000C            IO$_UNLOAD     = 00000001
IO$M_CANCTRLO  = 00000040            IO$V_INTERRUPT = 00000006            IO$_VIRTUAL    = 0000003F
IO$M_COMMOD    = 00000040            IO$V_INTSKIP   = 00000008            IO$_WRITECHECK = 0000000A
IO$M_CREATE    = 00000080            IO$V_MOUNT     = 00000009            IO$_WRITECHECKH= 00000018
IO$M_CTRLCAST  = 00000100            IO$V_NOECHO    = 00000006            IO$_WRITEHEAD  = 0000000D
IO$M_CTRLYAST  = 00000080            IO$V_NOFILTR   = 00000009            IO$_WRITELBLK  = 00000020
IO$M_CVTLOW    = 00000100            IO$V_NOFORMAT  = 00000008            IO$_WRITEMARK  = 0000001C
IO$M_DATACHECK = 00004000            IO$V_NOW       = 00000006            IO$_WRITEOF    = 00000028
IO$M_DELETE    = 00000100            IO$V_NOWAIT    = 00000007            IO$_WRITEPBLK  = 0000000B
IO$M_DMOUNT    = 00000400            IO$V_PACKED    = 00000007            IO$_WRITETRACKD= 0000000F
IO$M_DSABLMBX  = 00000400            IO$V_PURGE     = 0000000B            IO$_WRITEVBLK  = 00000030
IO$M_ENABLMBX  = 00000080            IO$V_READATTN  = 00000007            IOC$RETURN       ********   X   03
IO$M_FCODE     = 0000003F            IO$V_REVERSE   = 00000006            MASKH          = 00000000
IO$M_HANGUP    = 00000200            IO$V_SHUTDOWN  = 00000007            MASKL          = 08000000
IO$M_INHERLOG  = 00000800            IO$V_STARTUP   = 00000006            TT$C_BAUD_110  = 00000003
IO$M_INHEXTGAP = 00001000            IO$V_SYNCH     = 00000009            TT$C_BAUD_1200 = 00000008
IO$M_INHRETRY  = 00008000            IO$V_TIMED     = 00000007            TT$C_BAUD_134  = 00000004
IO$M_INHSEEK   = 00001000            IO$V_TRMNOECHO = 0000000C            TT$C_BAUD_150  = 00000005
IO$M_INTERRUPT = 00000040            IO$V_WRTATTN   = 00000008            TT$C_BAUD_1800 = 00000009
IO$M_INTSKIP   = 00000100            IO$_ACCESS     = 00000032            TT$C_BAUD_2000 = 0000000A
IO$M_MOUNT     = 00000200            IO$_ACPCONTROL = 00000038            TT$C_BAUD_2400 = 0000000B
IO$M_NOECHO    = 00000040            IO$_CREATE     = 00000033            TT$C_BAUD_300  = 00000006
IO$M_NOFILTR   = 00000200            IO$_DEACCESS   = 00000034            TT$C_BAUD_3600 = 0000000C
IO$M_NOFORMAT  = 00000100            IO$_DELETE     = 00000035            TT$C_BAUD_4800 = 0000000D
IO$M_NOW       = 00000040            IO$_DIAGNOSE   = 0000001D            TT$C_BAUD_50   = 00000001
IO$M_NOWAIT    = 00000080            IO$_DRVCLR     = 00000004            TT$C_BAUD_600  = 00000007
IO$M_PACKED    = 00000080            IO$_ERASETAPE  = 00000006            TT$C_BAUD_7200 = 0000000E
IO$M_PURGE     = 00000800            IO$_LOGICAL    = 0000002F            TT$C_BAUD_75   = 00000002
IO$M_READATTN  = 00000080            IO$_MODIFY     = 00000036            TT$C_BAUD_9600 = 0000000F
IO$M_REVERSE   = 00000040            IO$_MOUNT      = 00000039            TT$DDT           00000130 RG    03
IO$M_SHUTDOWN  = 00000080            IO$_NOP        = 00000000            TT$M_ALTRPAR   = 00000020
IO$M_STARTUP   = 00000040            IO$_OFFSET     = 00000006            TT$M_CRFILL    = 00000400
IO$M_SYNCH     = 00000200            IO$_PACKACK    = 00000008            TT$M_EIGHTBIT  = 00008000
IO$M_TIMED     = 00000080            IO$_PHYSICAL   = 0000001F            TT$M_ESCAPE    = 00000008
IO$M_TRMNOECHO = 00001000            IO$_READHEAD   = 0000000E            TT$M_HOLDSCREEN= 00004000
IO$M_WRTATTN   = 00000100            IO$_READLBLK   = 00000021            TT$M_HOSTSYNC  = 00000010
IO$S_FCODE     = 00000006            IO$_READPBLK   = 0000000C            TT$M_LFFILL    = 00000800
IO$V_ABORT     = 00000008            IO$_READPRESET = 00000019            TT$M_LOWER     = 00000080
IO$V_ACCESS    = 00000006            IO$_READPROMPT = 00000037            TT$M_MBXDSABL  = 00010000
IO$V_ATTNAST   = 00000008            IO$_READTRACKD = 00000010            TT$M_MECHTAB   = 00000100
IO$V_BINARY    = 00000006            IO$_READVBLK   = 00000031            TT$M_NOBRDCST  = 00020000
IO$V_CANCTRLO  = 00000006            IO$_RECAL      = 00000003            TT$M_NOECHO    = 00000002
IO$V_COMMOD    = 00000006            IO$_RELEASE    = 00000005            TT$M_NOTYPEAHD = 00000004
IO$V_CREATE    = 00000007            IO$_RETCENTER  = 00000007            TT$M_ODD       = 00000080
IO$V_CTRLCAST  = 00000008            IO$_REWIND     = 00000024            TT$M_PAGE      = FE000000
IO$V_CTRLYAST  = 00000007            IO$_REWINDOFF  = 00000022            TT$M_PARITY    = 00000040
IO$V_CVTLOW    = 00000008            IO$_SEARCH     = 00000009            TT$M_PASSALL   = 00000001
IO$V_DATACHECK = 0000000E            IO$_SEEK       = 00000002            TT$M_READSYNC  = 00040000
IO$V_DELETE    = 00000008            IO$_SENSECHAR  = 0000001B            TT$M_REMOTE    = 00002000
IO$V_DMOUNT    = 0000000A            IO$_SENSEMODE  = 00000027            TT$M_SCOPE     = 00001000
TTYDRVDAT       - TERMINAL DRIVER DATA BASE                      21-AUG-1978 21:01:39   VAX-11 MACRO X0.3-11               Page  10
SYMBOL TABLE                                                                                                                     (5)

TT$M_SCRIPT    = 00000040            TTY$B_BD_WHO     00000014            TTY$L_RB_UVA     00000004
TT$M_TTSYNC    = 00000020            TTY$B_TA_TYPE    0000000A            TTY$L_TA_DATA    00000010
TT$M_WRAP      = 00000200            TTY$CANCELIO     ********   X   03   TTY$L_TA_END     0000000C
TT$S_PAGE      = 00000008            TTY$C_BELL     = 00000007            TTY$L_TA_GET     00000004
TT$V_ALTRPAR   = 00000005            TTY$C_BLANK    = 00000020            TTY$L_TA_PUT     00000000
TT$V_CRFILL    = 0000000A            TTY$C_BS       = 00000008            TTY$L_WB_DATA    0000000C
TT$V_EIGHTBIT  = 0000000F            TTY$C_CR       = 0000000D            TTY$L_WB_END     00000004
TT$V_ESCAPE    = 00000003            TTY$C_CTRLC    = 00000003            TTY$L_WB_NXT     00000000
TT$V_HOLDSCREEN= 0000000E            TTY$C_CTRLO    = 0000000F            TTY$M_A        = 00003FFF
TT$V_HOSTSYNC  = 00000004            TTY$C_CTRLQ    = 00000011            TTY$M_CH_CTRL  = 00000020
TT$V_LFFILL    = 0000000B            TTY$C_CTRLR    = 00000012            TTY$M_CH_CTRL2 = 00000080
TT$V_LOWER     = 00000007            TTY$C_CTRLS    = 00000013            TTY$M_CH_LOWER = 00000040
TT$V_MBXDSABL  = 00000010            TTY$C_CTRLU    = 00000015            TTY$M_CH_SPEC  = 00000010
TT$V_MECHTAB   = 00000008            TTY$C_CTRLX    = 00000018            TTY$M_ST_BADESC= 00100000
TT$V_NOBRDCST  = 00000011            TTY$C_CTRLY    = 00000019            TTY$M_ST_BRDCST= 00000080
TT$V_NOECHO    = 00000001            TTY$C_CTRLZ    = 0000001A            TTY$M_ST_CTRLO = 00001000
TT$V_NOTYPEAHD = 00000002            TTY$C_DELETE   = 0000007F            TTY$M_ST_CTRLR = 00000400
TT$V_ODD       = 00000007            TTY$C_DOLLAR   = 00000024            TTY$M_ST_CTRLS = 00000004
TT$V_PAGE      = 00000019            TTY$C_DS_ACTIVE= 00000001            TTY$M_ST_CURSOR= 00000010
TT$V_PARITY    = 00000006            TTY$C_DS_ATTN1 = 00000002            TTY$M_ST_DEL   = 00002000
TT$V_PASSALL   = 00000000            TTY$C_DS_ATTN3 = 00000009            TTY$M_ST_EOL   = 00000200
TT$V_READSYNC  = 00000012            TTY$C_DS_HANG  = 0000000A            TTY$M_ST_ESC   = 00080000
TT$V_REMOTE    = 0000000D            TTY$C_DS_IDLE  = 00000000            TTY$M_ST_ESC_O = 04000000
TT$V_SCOPE     = 0000000C            TTY$C_DS_RESET = 0000000B            TTY$M_ST_FILL  = 00000008
TT$V_SCRIPT    = 00000006            TTY$C_ESCAPE   = 0000001B            TTY$M_ST_GETAHD= 01000000
TT$V_TTSYNC    = 00000005            TTY$C_FC_N_SET = 00000004            TTY$M_ST_MULTI = 00000040
TT$V_WRAP      = 00000009            TTY$C_FC_READ  = 00000000            TTY$M_ST_NL    = 00200000
TT$_LA36       = 00000020            TTY$C_FC_SETC  = 00000003            TTY$M_ST_NOECHO= 00008000
TT$_LAX        = 00000020            TTY$C_FC_SETM  = 00000002            TTY$M_ST_NOFLTR= 00040000
TT$_UNKNOWN    = 00000000            TTY$C_FC_WRITE = 00000001            TTY$M_ST_PASALL= 00004000
TT$_VT05       = 00000001            TTY$C_FF       = 0000000C            TTY$M_ST_PROMPT= 00020000
TT$_VT52       = 00000040            TTY$C_HIGHIPL  = 00000016            TTY$M_ST_READ  = 00000800
TT$_VT55       = 00000041            TTY$C_LF       = 0000000A            TTY$M_ST_SENDLF= 00000020
TT$_VT5X       = 00000040            TTY$C_LOWA     = 00000061            TTY$M_ST_SKIPLF= 00800000
TTY$A_BACKSPACE  000001D1 RG    03   TTY$C_LOWZ     = 0000007B            TTY$M_ST_TYPFUL= 00400000
TTY$A_CTRLC      000001F5 RG    03   TTY$C_NL       = 00000080            TTY$M_ST_UNSOL = 02000000
TTY$A_CTRLO      000001FC RG    03   TTY$C_ONE      = 00000031            TTY$M_ST_WRITE = 00000100
TTY$A_CTRLR      000001E6 RG    03   TTY$C_PLUS     = 0000002B            TTY$M_ST_WRTALL= 00010000
TTY$A_CTRLU      000001E2 RG    03   TTY$C_SCRIPT   = 00000060            TTY$M_ST_XOFF  = 00000002
TTY$A_CTRLY      000001EC RG    03   TTY$C_TAB      = 00000009            TTY$M_ST_XON   = 00000001
TTY$A_CTRLZ      000001DE RG    03   TTY$C_TYPAHDSIZ= 0000004E            TTY$Q_BD_LINK    00000000
TTY$A_DELCRTTAB  000001C9 RG    03   TTY$C_VT       = 0000000B            TTY$STARTIO      ********   X   03
TTY$A_ESCAPE     00000100 RG    03   TTY$C_XOFF     = 00000013            TTY$S_A        = 0000000E
TTY$A_ESC_OUT    00000120 RG    03   TTY$C_XON      = 00000011            TTY$V_A        = 00000000
TTY$A_FORM       00000205 RG    03   TTY$C_ZERO     = 00000030            TTY$V_CH_CTRL  = 00000005
TTY$A_HLDSCREEN  000001D5 RG    03   TTY$FDTREAD      ********   X   03   TTY$V_CH_CTRL2 = 00000007
TTY$A_LONGFORM   00000206 RG    03   TTY$FDTSENSEC    ********   X   03   TTY$V_CH_LOWER = 00000006
TTY$A_RLSCREEN   000001D8 RG    03   TTY$FDTSENSEM    ********   X   03   TTY$V_CH_SPEC  = 00000004
TTY$A_SCRIPT     000001DB RG    03   TTY$FDTSETC      ********   X   03   TTY$V_ST_BADESC= 00000014
TTY$A_STANDARD   000001A0 RG    03   TTY$FDTSETM      ********   X   03   TTY$V_ST_BRDCST= 00000007
TTY$A_TAB        000001C0 RG    03   TTY$FDTWRITE     ********   X   03   TTY$V_ST_CTRLO = 0000000C
TTY$A_TYPE       00000000 RG    03   TTY$L_BD_DATA    00000018            TTY$V_ST_CTRLR = 0000000A
TTY$A_VTAB       00000201 RG    03   TTY$L_BD_FORK    0000000C            TTY$V_ST_CTRLS = 00000002
TTY$B_BD_CNT     00000015            TTY$L_BD_MIN     00000028            TTY$V_ST_CURSOR= 00000004
TTY$B_BD_IPL     00000017            TTY$L_BD_UCB     00000010            TTY$V_ST_DEL   = 0000000D
TTY$B_BD_REFC    00000016            TTY$L_RB_DATA    00000010            TTY$V_ST_EOL   = 00000009
TTY$B_BD_TYPE    0000000A            TTY$L_RB_NXT     00000000            TTY$V_ST_ESC   = 00000013
TTYDRVDAT       - TERMINAL DRIVER DATA BASE                      21-AUG-1978 21:01:39   VAX-11 MACRO X0.3-11               Page  11
SYMBOL TABLE                                                                                                                     (5)

TTY$V_ST_ESC_O = 0000001A            UCB$B_TT_LINE    00000094            UCB$M_DELMBX   = 00000002
TTY$V_ST_FILL  = 00000003            UCB$B_TT_SPEED   0000009C            UCB$M_DIAGBUF  = 00000002
TTY$V_ST_GETAHD= 00000018            UCB$B_TYPE       0000000A            UCB$M_DX_WRITE = 00000008
TTY$V_ST_MULTI = 00000006            UCB$B_VERTSZ     0000003F            UCB$M_ECC      = 00000001
TTY$V_ST_NL    = 00000015            UCB$C_LENGTH     00000074            UCB$M_ERLOGIP  = 00000004
TTY$V_ST_NOECHO= 0000000F            UCB$C_LOGLNK   = 00000001            UCB$M_INT      = 00000002
TTY$V_ST_NOFLTR= 00000012            UCB$K_LENGTH     00000074            UCB$M_INTTYPE  = 00000080
TTY$V_ST_PASALL= 0000000E            UCB$L_AMB        00000054            UCB$M_JOB      = 00000001
TTY$V_ST_PROMPT= 00000011            UCB$L_ASTQBL     00000010            UCB$M_MOUNTING = 00000200
TTY$V_ST_READ  = 0000000B            UCB$L_ASTQFL     0000000C            UCB$M_NOCNVRT  = 00000004
TTY$V_ST_SENDLF= 00000005            UCB$L_CPID       0000005C            UCB$M_NT_BFROVF= 00000004
TTY$V_ST_SKIPLF= 00000017            UCB$L_CRB        00000020            UCB$M_NT_BREAK = 00000020
TTY$V_ST_TYPFUL= 00000016            UCB$L_DDB        00000024            UCB$M_NT_NAME  = 00000010
TTY$V_ST_UNSOL = 00000019            UCB$L_DEVCHAR    00000034            UCB$M_ONLINE   = 00000010
TTY$V_ST_WRITE = 00000008            UCB$L_DEVDEPEND  0000003C            UCB$M_POWER    = 00000020
TTY$V_ST_WRTALL= 00000010            UCB$L_DPC        00000080            UCB$M_PRMMBX   = 00000001
TTY$V_ST_XOFF  = 00000001            UCB$L_DUETIM     0000005C            UCB$M_TIM      = 00000001
TTY$V_ST_XON   = 00000000            UCB$L_DX_BFPNT   0000009C            UCB$M_TIMOUT   = 00000040
TTY$W_BD_SIZE    00000008            UCB$L_DX_BUF     00000098            UCB$M_TT_NOTIF = 00000004
TTY$W_RB_ORGHOR  0000000C            UCB$L_DX_RXDB    000000A0            UCB$M_TT_ODD   = 00000080
TTY$W_RB_SIZE    00000008            UCB$L_EMB        00000078            UCB$M_TT_PARTY = 00000040
TTY$W_RB_TIMOS   0000000E            UCB$L_FIRST      00000014            UCB$M_TT_SPEED = 0000003F
TTY$W_TA_SIZE    00000008            UCB$L_FPC        0000000C            UCB$M_TT_TIMO  = 00000002
TTY$W_WB_SIZE    00000008            UCB$L_FQBL       00000004            UCB$M_UNLOAD   = 00001000
UCB$B_AMOD       00000053            UCB$L_FQFL       00000000            UCB$M_VALID    = 00000800
UCB$B_CEX        00000077            UCB$L_FR3        00000010            UCB$S_LNKPRI   = 00000002
UCB$B_CM1        0000004A            UCB$L_FR4        00000014            UCB$S_LTYPE    = 00000002
UCB$B_CM2        0000004B            UCB$L_IOQBL      00000044            UCB$S_TT_ODD   = 00000001
UCB$B_DEVCLASS   00000038            UCB$L_IOQFL      00000040            UCB$S_TT_PARTY = 00000001
UCB$B_DEVTYPE    00000039            UCB$L_IRP        0000004C            UCB$S_TT_SPEED = 00000006
UCB$B_DIPL       00000052            UCB$L_LINK       0000002C            UCB$T_PARTNER    0000000C
UCB$B_DX_SCTCNT  000000A6            UCB$L_LOGADR     00000064            UCB$V_BACKP    = 00000005
UCB$B_ERTCNT     00000070            UCB$L_MAXBLOCK   00000084            UCB$V_BSY      = 00000008
UCB$B_ERTMAX     00000071            UCB$L_MEDIA      0000008C            UCB$V_CANCEL   = 00000003
UCB$B_ESCAPE     0000004B            UCB$L_NT_DATSSB  00000074            UCB$V_DEADMO   = 0000000A
UCB$B_FEX        00000076            UCB$L_NT_INTSSB  00000078            UCB$V_DELMBX   = 00000001
UCB$B_FIPL       0000000B            UCB$L_OPCNT      00000060            UCB$V_DIAGBUF  = 00000001
UCB$B_LOCSRV     0000003C            UCB$L_OWNUIC     0000001C            UCB$V_DX_WRITE = 00000003
UCB$B_OFFNDX     00000094            UCB$L_PID        00000028            UCB$V_ECC      = 00000000
UCB$B_OFFRTC     00000095            UCB$L_RQBL       00000004            UCB$V_ERLOGIP  = 00000002
UCB$B_REMSRV     0000003D            UCB$L_RQFL       00000000            UCB$V_INT      = 00000001
UCB$B_SECTORS    0000003C            UCB$L_SVAPTE     00000068            UCB$V_INTTYPE  = 00000007
UCB$B_SLAVE      00000074            UCB$L_SVPN       00000064            UCB$V_JOB      = 00000000
UCB$B_SPR        00000075            UCB$L_TTCHAR     0000003C            UCB$V_LNKPRI   = 00000006
UCB$B_STATE      00000052            UCB$L_TT_BRDCST  00000084            UCB$V_LTYPE    = 00000000
UCB$B_TRACKS     0000003D            UCB$L_TT_CTRLC   00000080            UCB$V_MOUNTING = 00000009
UCB$B_TT_BRDPT   00000098            UCB$L_TT_CTRLY   0000007C            UCB$V_MSGACK   = 00000004
UCB$B_TT_CRFILL  0000009D            UCB$L_TT_DECHAR  000000A8            UCB$V_MSGFLO   = 00000003
UCB$B_TT_DECRF   000000A1            UCB$L_TT_MULTI   00000078            UCB$V_NOCNVRT  = 00000002
UCB$B_TT_DELFF   000000A2            UCB$L_TT_RDUE    0000008C            UCB$V_NT_BFROVF= 00000002
UCB$B_TT_DESPEE  000000A0            UCB$L_TT_STATE   00000074            UCB$V_NT_BREAK = 00000005
UCB$B_TT_DETYPE  000000A4            UCB$L_TT_TYPAHD  00000088            UCB$V_NT_NAME  = 00000004
UCB$B_TT_DIAL    00000096            UCB$L_VCB        00000030            UCB$V_ONLINE   = 00000004
UCB$B_TT_ESC     00000095            UCB$M_BACKP    = 00000020            UCB$V_POWER    = 00000005
UCB$B_TT_ESC_O   00000099            UCB$M_BSY      = 00000100            UCB$V_PRMMBX   = 00000000
UCB$B_TT_FILL    00000097            UCB$M_CANCEL   = 00000008            UCB$V_SEGFLO   = 00000002
UCB$B_TT_LFFILL  0000009E            UCB$M_DEADMO   = 00000400            UCB$V_TIM      = 00000000
TTYDRVDAT       - TERMINAL DRIVER DATA BASE                      21-AUG-1978 21:01:39   VAX-11 MACRO X0.3-11               Page  12
SYMBOL TABLE                                                                                                                     (5)

UCB$V_TIMOUT   = 00000006
UCB$V_TT_NOTIF = 00000002
UCB$V_TT_ODD   = 00000007
UCB$V_TT_PARTY = 00000006
UCB$V_TT_SPEED = 00000000
UCB$V_TT_TIMO  = 00000001
UCB$V_UNLOAD   = 0000000C
UCB$V_VALID    = 0000000B
UCB$W_BCNT       0000006E
UCB$W_BCR        00000096
UCB$W_BOFF       0000006C
UCB$W_BUFQUO     00000018
UCB$W_BYTESTOGO  0000003E
UCB$W_CHARGE     0000004A
UCB$W_CYLINDERS  0000003E
UCB$W_DA         0000008C
UCB$W_DC         0000008E
UCB$W_DEVBUFSIZ  0000003A
UCB$W_DEVSTS     0000005A
UCB$W_DIRSEQ     00000088
UCB$W_DSTADDR    00000018
UCB$W_DX_BCR     000000A4
UCB$W_EC1        00000090
UCB$W_EC2        00000092
UCB$W_ERRCNT     00000072
UCB$W_FUNC       0000007E
UCB$W_MB_SEED    FFFFFFFC
UCB$W_MSGCNT     00000016
UCB$W_MSGMAX     00000014
UCB$W_NT_CHAN    0000007C
UCB$W_OFFSET     0000008A
UCB$W_REFC       00000050
UCB$W_SIZE       00000008
UCB$W_SRCADDR    0000001A
UCB$W_STS        00000058
UCB$W_TT_CURSOR  0000009A
UCB$W_TT_DESIZE  000000A5
UCB$W_TT_HOLD    00000090
UCB$W_TT_INAHD   00000092
UCB$W_UNIT       00000048
UCB$W_VPROT      0000001A
XYCONTROL      = 00000006
XYCTRL2        = 00000004
XYSPEC         = 00000008
Y              = 00000000


PROGRAM SECTION SYNOPSIS

.  ABS  .        00000000      00     NOPIC   USR   CON   ABS   LCL NOSHR NOEXE NORD  NOWRT BYTE
. BLANK .        00000000      01     NOPIC   USR   CON   REL   LCL NOSHR   EXE   RD    WRT BYTE
$ABS$            FFFFFFFE      02     NOPIC   USR   CON   ABS   LCL NOSHR   EXE   RD    WRT BYTE
$$$115_DRIVER    0000020B      03     NOPIC   USR   CON   REL   LCL NOSHR   EXE   RD    WRT LONG


THERE WERE NO ERRORS OR WARNINGS.
9718. BYTES LEFT IN FREE MEMORY POOL.
TTYDRVDAT       - TERMINAL DRIVER DATA BASE                      21-AUG-1978 21:01:39   VAX-11 MACRO X0.3-11               Page  13
PROGRAM SECTION SYNOPSIS                                                                                                         (5)

3250. BYTES OF RECLAIMED MEMORY.
OBJ$:TTYDRVDAT,LIS$:TTYDRVDAT/-SP=EXECML$/ML,SRC$:TTYDRVDAT
9 MLB DIR RDS - 786 GETS TO DEFINE 17 MACROS. 108 INTER. FILE WRITES.
