VERSION         - DEFINE SYSTEM VERSION NUMBER                   21-AUG-1978 20:16:13   VAX-11 MACRO X0.3-11               Page   0
TABLE OF CONTENTS

   (1)   36097  DECLARATIONS
VERSION         - DEFINE SYSTEM VERSION NUMBER                   21-AUG-1978 20:16:13   VAX-11 MACRO X0.3-11               Page   1
0.92                                                                                                                             (1)

                                     0000 36097
                                     0000 36097 	.TITLE	VERSION - DEFINE SYSTEM VERSION NUMBER
                                     0000 36097 ;
                                     0000 36097 ; COPYRIGHT (C) 1978
                                     0000 36097 ; DIGITAL EQUIPMENT CORPORATION, MAYNARD, MASSACHUSETTS 01754
                                     0000 36097 ;
                                     0000 36097 ; THIS SOFTWARE IS FURNISHED  UNDER A LICENSE FOR USE ONLY ON A SINGLE
                                     0000 36097 ; COMPUTER  SYSTEM AND  MAY BE  COPIED ONLY WITH  THE INCLUSION OF THE
                                     0000 36097 ; ABOVE COPYRIGHT NOTICE.  THIS SOFTWARE, OR ANY OTHER COPIES THEREOF,
                                     0000 36097 ; MAY NOT BE PROVIDED OR  OTHERWISE MADE AVAILABLE TO ANY OTHER PERSON
                                     0000 36097 ; EXCEPT FOR USE ON SUCH SYSTEM AND TO ONE WHO AGREES TO THESE LICENSE
                                     0000 36097 ; TERMS.  TITLE TO AND  OWNERSHIP OF THE  SOFTWARE  SHALL AT ALL TIMES
                                     0000 36097 ; REMAIN IN DEC.
                                     0000 36097 ;
                                     0000 36097 ; THE INFORMATION IN THIS SOFTWARE IS SUBJECT TO CHANGE WITHOUT NOTICE
                                     0000 36097 ; AND SHOULD  NOT BE CONSTRUED  AS A COMMITMENT  BY DIGITAL  EQUIPMENT
                                     0000 36097 ; CORPORATION.
                                     0000 36097 ;
                                     0000 36097 ; DEC ASSUMES  NO  RESPONSIBILITY  FOR  THE USE OR  RELIABILITY OF ITS
                                     0000 36097 ; SOFTWARE ON EQUIPMENT WHICH IS NOT SUPPLIED BY DEC.
                                     0000 36097
                                     0000 36097 ;++
                                     0000 36097 ; FACILITY: EXECUTIVE, VERSION NUMBER
                                     0000 36097 ;
                                     0000 36097 ; ABSTRACT: VERSION DEFINES THE SYSTEM VERSION NUMBER AND DATE
                                     0000 36097 ;
                                     0000 36097 ; ENVIRONMENT:
                                     0000 36097 ;
                                     0000 36097 ; AUTHOR: R. HUSTVEDT	 CREATION DATE: 12-JUN-78
                                     0000 36097 ;
                                     0000 36097 ; MODIFIED BY:
                                     0000 36097 ;
                                     0000 36097 ;  , VERSION  ,
                                     0000 36097 ; 01	-
                                     0000 36097 ;--
VERSION         - DEFINE SYSTEM VERSION NUMBER                   21-AUG-1978 20:16:13   VAX-11 MACRO X0.3-11               Page   2
0.92            DECLARATIONS                                                                                                     (1)

                                     0000 36097 	.SBTTL	DECLARATIONS
                                     0000 36097 ;
                                     0000 36097 ; INCLUDE FILES:
                                     0000 36097 ;
                                     0000 36097 	$PRDEF					; DEFINE PROCESSOR REGISTERS
                                     0000 36097
                                     0000 36097 ;
                                     0000 36097 ; MACROS:
                                     0000 36097 ;
                                     0000 36097
                                     0000 36097 ;
                                     0000 36097 ; EQUATED SYMBOLS:
                                     0000 36097 ;
                                     0000 36097
                           0000000D  0000 36097 	CR=13				; CHARACTER CODE FOR CARRIAGE RETURN
                           0000000A  0000 36097 	LF=10				; CHARACTER CODE FOR LINEFEED
                                     0000 36097 ;
                                     0000 36097 ; OWN STORAGE:
                                     0000 36097 ;
                                     0000 36097
                                 00000000 36097 	.PSECT	Z$INITX			; PART OF INIT CODE
                                     0000 36097 SYS$GT_ANNOUNCE::			; ANNOUNCE SYSTEM BOOT MESSAGE
53 4D 56 2F 58 41 56 20 20 0A 0A 0D  0000 36097 	.ASCII	<CR><LF><LF>\  VAX/VMS Version \
         20 6E 6F 69 73 72 65 56 20  000C
                           32392E30' 0015 36097 	.LONG	SYS$K_VERSION		; VERSION STRING
                                 20  0019 36097 	.ASCII	\ \			;
20 38 37 39 31 2D 47 55 41 2D 31 32  001A 36097 	.ASCII	\21-AUG-1978 15:54\	; %DATE
                     34 35 3A 35 31  0026
                        00 0A'0A'0D' 002B 36097 	.ASCIZ	<CR><LF><LF>		;
                           32392E30  002F 36097 SYS$K_VERSION==^A\0.92\			; %VERSION%=326.
                                     002F 36097 	.IDENT	/0.92/			; IDENT
                                     002F 36097
                                     002F 36097 	.END
VERSION         - DEFINE SYSTEM VERSION NUMBER                   21-AUG-1978 20:16:13   VAX-11 MACRO X0.3-11               Page   3
SYMBOL TABLE                                                                                                                     (1)

BIT...         = 00000000
CR             = 0000000D
GBL...         = 00000000
LF             = 0000000A
PR$_ACCR       = 00000029
PR$_ACCS       = 00000028
PR$_ASTLVL     = 00000013
PR$_ESP        = 00000001
PR$_ICCS       = 00000018
PR$_ICR        = 0000001A
PR$_IPL        = 00000012
PR$_ISP        = 00000004
PR$_KSP        = 00000000
PR$_MAPEN      = 00000038
PR$_NICR       = 00000019
PR$_P0BR       = 00000008
PR$_P0LR       = 00000009
PR$_P1BR       = 0000000A
PR$_P1LR       = 0000000B
PR$_PCBB       = 00000010
PR$_PME        = 0000003D
PR$_RXCS       = 00000020
PR$_RXDB       = 00000021
PR$_SBIER      = 00000034
PR$_SBIFS      = 00000030
PR$_SBIMT      = 00000033
PR$_SBIQC      = 00000036
PR$_SBIS       = 00000031
PR$_SBISC      = 00000032
PR$_SBITA      = 00000035
PR$_SBR        = 0000000C
PR$_SCBB       = 00000011
PR$_SID        = 0000003E
PR$_SIRR       = 00000014
PR$_SISR       = 00000015
PR$_SLR        = 0000000D
PR$_SSP        = 00000002
PR$_TBIA       = 00000039
PR$_TBIS       = 0000003A
PR$_TODR       = 0000001B
PR$_TXCS       = 00000022
PR$_TXDB       = 00000023
PR$_USP        = 00000003
PR$_WCSA       = 0000002C
PR$_WCSD       = 0000002D
SYS$GT_ANNOUNCE  00000000 RG    03
SYS$K_VERSION  = 32392E30  G


PROGRAM SECTION SYNOPSIS

.  ABS  .        00000000      00     NOPIC   USR   CON   ABS   LCL NOSHR NOEXE NORD  NOWRT BYTE
. BLANK .        00000000      01     NOPIC   USR   CON   REL   LCL NOSHR   EXE   RD    WRT BYTE
$ABS$            00000000      02     NOPIC   USR   CON   ABS   LCL NOSHR   EXE   RD    WRT BYTE
Z$INITX          0000002F      03     NOPIC   USR   CON   REL   LCL NOSHR   EXE   RD    WRT BYTE


VERSION         - DEFINE SYSTEM VERSION NUMBER                   21-AUG-1978 20:16:13   VAX-11 MACRO X0.3-11               Page   4
PROGRAM SECTION SYNOPSIS                                                                                                         (1)

THERE WERE NO ERRORS OR WARNINGS.
25980. BYTES LEFT IN FREE MEMORY POOL.
776. BYTES OF RECLAIMED MEMORY.
OBJ$:VERSION,LIS$:VERSION/-SP=EXECML$/ML,SRC$:VERSION
2 MLB DIR RDS - 95 GETS TO DEFINE 7 MACROS. 5 INTER. FILE WRITES.
