CANCEL          - CLI COMMAND TO CANCEL SCHEDULED WAKE REQUESTS  21-AUG-1978 18:52:14   VAX-11 MACRO X0.3-11               Page   0
TABLE OF CONTENTS

   (1)      39  DECLARATIONS
   (1)     199  ARGUMENTS FOR ERROR MESSAGE OUTPUT
   (1)     233  CANCEL - CANCEL SCHEDULED WAKE REQUESTS
   (1)     280  ERROR FROM CANCEL SERVICE
   (1)     296  PARSE CANCEL COMMAND
   (1)     313  PROCNAM - PROCESS NAME PRESENT ROUTINE
   (1)     325  ACTION ROUTINES FOR CANCEL SCHEDULED WAKE REQUE
   (1)     343  ACTION ROUTINE ERROR EXIT HANDLERS
CANCEL          - CLI COMMAND TO CANCEL SCHEDULED WAKE REQUESTS  21-AUG-1978 18:52:14   VAX-11 MACRO X0.3-11               Page   1
01.2                                                                                                                             (1)

                                     0000     1 	.TITLE	CANCEL - CLI COMMAND TO CANCEL SCHEDULED WAKE REQUESTS
                                     0000     2 	.IDENT	/01.2/
                                     0000     3
                                     0000     4 ;
                                     0000     5 ;			  COPYRIGHT (c) 1977 BY
                                     0000     6 ;	      DIGITAL EQUIPMENT CORPORATION, MAYNARD, MASS.
                                     0000     7 ;
                                     0000     8 ; THIS SOFTWARE IS FURNISHED UNDER A LICENSE AND MAY BE USED AND  COPIED
                                     0000     9 ; ONLY  IN  ACCORDANCE  WITH  THE  TERMS  OF  SUCH  LICENSE AND WITH THE
                                     0000    10 ; INCLUSION OF THE ABOVE COPYRIGHT NOTICE.  THIS SOFTWARE OR  ANY  OTHER
                                     0000    11 ; COPIES  THEREOF MAY NOT BE PROVIDED OR OTHERWISE MADE AVAILABLE TO ANY
                                     0000    12 ; OTHER PERSON.  NO TITLE TO AND OWNERSHIP OF  THE  SOFTWARE  IS  HEREBY
                                     0000    13 ; TRANSFERRED.
                                     0000    14 ;
                                     0000    15 ; THE INFORMATION IN THIS SOFTWARE IS SUBJECT TO CHANGE  WITHOUT  NOTICE
                                     0000    16 ; AND  SHOULD  NOT  BE  CONSTRUED  AS  A COMMITMENT BY DIGITAL EQUIPMENT
                                     0000    17 ; CORPORATION.
                                     0000    18 ;
                                     0000    19 ; DIGITAL ASSUMES NO RESPONSIBILITY FOR THE USE OR  RELIABILITY  OF  ITS
                                     0000    20 ; SOFTWARE ON EQUIPMENT WHICH IS NOT SUPPLIED BY DIGITAL.
                                     0000    21 ;
                                     0000    22
                                     0000    23 ;++
                                     0000    24 ; FACILITY:	STARLET DCL CLI
                                     0000    25 ;
                                     0000    26 ; ABSTRACT:	CANCEL SCHEDULED WAKE REQUESTS FOR A PROCESS
                                     0000    27 ;
                                     0000    28 ;
                                     0000    29 ; ENVIRONMENT:	NATIVE MODE USER CODE
                                     0000    30 ;
                                     0000    31 ; AUTHOR:	C. A. MONIA , CREATION DATE:	10-OCT-1977
                                     0000    32 ;
                                     0000    33 ; MODIFIED BY:
                                     0000    34 ;
                                     0000    35 ;	, : VERSION
                                     0000    36 ; 01	-
                                     0000    37 ;--
CANCEL          - CLI COMMAND TO CANCEL SCHEDULED WAKE REQUESTS  21-AUG-1978 18:52:14   VAX-11 MACRO X0.3-11               Page   2
01.2            DECLARATIONS                                                                                                     (1)

                                     0000    39 	.SBTTL	DECLARATIONS
                                     0000    40 ;
                                     0000    41 ; INCLUDE FILES:
                                     0000    42 ;
                                     0000    43 ;	U.MLB
                                     0000    44 ;	LIB.MLB
                                     0000    45 ;
                                     0000    46 ; MACRO LIBRARY CALLS
                                     0000    47 ;
                                     0000    48
                                     0000    49 	$CLIDEFQUALCANC			; DEFINE CANCEL QUALIFIER VALUES
                                     0000    50 	$CLIDEF				; DEFINE CANCEL RUN PARAMETERS
                                     0000    51 	$CLIMSGDEF			; DEFINE CLI STATUS CODES
                                     0000    52 	$SSDEF				; DEFINE SYSTEM STATUS CODES
                                     0000    53 	$STSDEF				; DEFINE FORMAT OF STATUS LONGWORD
                                     0000    54
                                     0000    55 ;
                                     0000    56 ; MACROS
                                     0000    57 ;
                                     0000    58
                                     0000    59 	.MACRO	CALLBAK	A1,A2
                                     0000    60 $$$=2
                                     0000    61 	.IF NB	A2
                                     0000    62 	PUSHAB	W^A2
                                     0000    63 $$$=$$$+1
                                     0000    64 	.ENDC
                                     0000    65 	PUSHAB	CLIWORK
                                     0000    66 	PUSHAB	W^A1
                                     0000    67 	CALLS	#$$$,@CLI$A_UTILSERV(AP)
                                     0000    68 	.ENDM
                                     0000    69
                                     0000    70 ;
                                     0000    71 ; CALLBACK FOR VALUE CONVERSION
                                     0000    72 ;
                                     0000    73
                                     0000    74 	.MACRO	CONVERTVAL	VALDESC
                                     0000    75 	PUSHAB	@4(AP)
                                     0000    76 	PUSHAB	W^CLIWORK
                                     0000    77 	PUSHAB	W^VALDESC
                                     0000    78 	CALLS	#3,@CLI$A_UTILSERV(AP)
                                     0000    79 	.ENDM
                                     0000    80
                                     0000    81 ;
                                     0000    82 ; INSERT SEVERITY FIELD IN ERROR CODE
                                     0000    83 ;
                                     0000    84
                                     0000    85 	.MACRO	INSEV	SEV,LOC
                                     0000    86 	INSV	#STS$K_'SEV,-
                                     0000    87 		#STS$V_SEVERITY,-
                                     0000    88 		#STS$S_SEVERITY,-
                                     0000    89 		LOC
                                     0000    90 	.ENDM
                                     0000    91
                                     0000    92 ;
                                     0000    93 ; ERROR MESSAGE CALL FOR SYNTAX ERRORS
                                     0000    94 ;
                                     0000    95
CANCEL          - CLI COMMAND TO CANCEL SCHEDULED WAKE REQUESTS  21-AUG-1978 18:52:14   VAX-11 MACRO X0.3-11               Page   3
01.2            DECLARATIONS                                                                                                     (1)

                                     0000    96 	.MACRO	SYNTAXERR	CODE=R0,DESCR=0
                                     0000    97 	PUSHL	CODE
                                     0000    98 	PUSHAB	DESCR
                                     0000    99 	CALLS	#2,ERREXIT
                                     0000   100 	.ENDM
                                     0000   101
                                     0000   102 ;
                                     0000   103 ; EQUATED SYMBOLS:
                                     0000   104 ;
                                     0000   105
                                     0000   106 ;
                                     0000   107 ; OWN STORAGE:
                                     0000   108 ;
                                     0000   109
                                 00000000   110 	.PSECT	RWDATA	WRT,RD,BYTE
                                     0000   111
                                     0000   112 ;
                                     0000   113 ; DEFINE REQUEST DESCRIPTOR FOR ASCII CONVERSION
                                     0000   114 ;
                                     0000   115
                                     0000   116 ASCVAL:	$CLIREQDESC	-		;
                                     0000   117 		ERRACT=ERREXIT,-	; ERROR ACTION ROUTINE
                                     0000   118 		RQTYPE=CLI$K_ASCIIVAL	; ASCII CONVERSION
                                     001C   119
                                     001C   120 ;
                                     001C   121 ; DEFINE QUALIFIER LIST FOR CANCEL COMMAND
                                     001C   122 ;
                                     001C   123
                                     001C   124 CANQUAL:				;
                                     001C   125 	$CLIQUALDESC	-		;
                                     001C   126 		QDCODE=CLI$K_CANC_IDEN,- ; /IDENTIFICATION QUALIFIER
                                     001C   127 		TRUACT=IDEN		; ACTION ROUTINE
                                     0033   128 	$CLIQUALDESC	-		;
                                     0033   129 		QDCODE=END_LIST		; TERMINATE QUALIFIER LIST
                                     0034   130
                                     0034   131 ;
                                     0034   132 ; DEFINE ARGUMENT BLOCK FOR CALL TO CANCEL SCHEDULED WAKE REQUESTS
                                     0034   133 ;
                                     0034   134
                                     0034   135 CANWAK:	$CANWAK				;
                                     0040   136 ;		PIDADR=PID,-		; ADDRESS OF PROCESS I/D
                                     0040   137 ;		PRCNAM=PRODESC+CLI$W_RQSIZE ; ADDRESS OF PROCESS NAME DESCR.
                                     0040   138
                                     0040   139 ;
                                     0040   140 ; DEFINE COMMAND QUALFIER DESCRIPTOR
                                     0040   141 ;
                                     0040   142
                                     0040   143 CMDESC:	$CLIREQDESC	-		;
                                     0040   144 		ERRACT=ERREXIT,-	; ERROR ACTION ROUTINE
                                     0040   145 		RQTYPE=CLI$K_GETQUAL,-	; GET COMMAND QUALIFIER
                                     0040   146 		QUALST=CANQUAL		; ADDRESS OF QUALIFIER DESCRIPTOR
                                     005C   147
                                     005C   148 ;
                                     005C   149 ; ALLOCATE CLI WORK SPACE
                                     005C   150 ;
                                     005C   151
                           000000DC  005C   152 CLIWORK:.BLKB	CLI$K_WORKAREA		;
CANCEL          - CLI COMMAND TO CANCEL SCHEDULED WAKE REQUESTS  21-AUG-1978 18:52:14   VAX-11 MACRO X0.3-11               Page   4
01.2            DECLARATIONS                                                                                                     (1)

                                     00DC   153
                                     00DC   154 ;
                                     00DC   155 ; DEFINE REQUEST DESCRTIPTOR TO FIND COMMAND LINE
                                     00DC   156 ;
                                     00DC   157
                                     00DC   158 CMLDSC:	$CLIREQDESC	-		;
                                     00DC   159 		RQTYPE=CLI$K_GETCMD	;
                                     00F8   160
                                     00F8   161
                                     00F8   162 ;
                                     00F8   163 ; DEFINE REQUEST DESCRIPTOR TO INITIALIZE THE PARSE
                                     00F8   164 ;
                                     00F8   165
                                     00F8   166 INIPRS:	$CLIREQDESC	-		;
                                     00F8   167 		ERRACT=ERREXIT,-	; ERROR ACTION ROUTINE
                                     00F8   168 		RQTYPE=CLI$K_INITPRS	; INITIALIZE THE PARSE
                                     0114   169
                                     0114   170 ;
                                     0114   171 ; DEFINE REQUEST DESCRIPTOR FOR PARSE COMPLETION
                                     0114   172 ;
                                     0114   173
                                     0114   174 PARSDON:$CLIREQDESC	-		;
                                     0114   175 		ERRACT=ERREXIT,-	;
                                     0114   176 		RQTYPE=CLI$K_ENDPRM1	;
                                     0130   177
                                     0130   178 ;
                                     0130   179 ; DEFINE REQUEST DESCRIPTOR BLOCK FOR PROCESS NAME
                                     0130   180 ;
                                     0130   181
                                     0130   182 PRODESC:$CLIREQDESC	-		;
                                     0130   183 		ERRACT=ERREXIT,-	; ERROR ACTION ROUTINE
                                     0130   184 		PRSACT=PROCNAM,-	; ACTION ROUTINE FOR PROCESS NAME
                                     0130   185 		RQTYPE=CLI$K_INPUT1	; REQUEST TYPE IS INPUT FILE 1
                                     014C   186
                                     014C   187 ;
                                     014C   188 ; ALLOCATE PROCESS I/D LONGWORD
                                     014C   189 ;
                                     014C   190
                           00000150  014C   191 PID:	.BLKL	1			;
                                     0150   192
                                     0150   193 ;
                                     0150   194 ; ALLOCATE STATUS FLAG LONGWORD
                                     0150   195 ;
                                     0150   196
                           00000154  0150   197 STSFLG:	.BLKL	1			;
CANCEL          - CLI COMMAND TO CANCEL SCHEDULED WAKE REQUESTS  21-AUG-1978 18:52:14   VAX-11 MACRO X0.3-11               Page   5
01.2            ARGUMENTS FOR ERROR MESSAGE OUTPUT                                                                               (1)

                                     0154   199 	.SBTTL	ARGUMENTS FOR ERROR MESSAGE OUTPUT
                                     0154   200
                                     0154   201 ;
                                     0154   202 ; FACILITY NAME
                                     0154   203 ;
                                     0154   204
                  4C 45 43 4E 41 43  0154   205 CANNAM:	.ASCII	/CANCEL/
                           00000006  015A   206 $$$L=.-CANNAM
                                     015A   207
                                     015A   208 ;
                                     015A   209 ; DESCRIPTOR FOR FACILITY NAME
                                     015A   210 ;
                                     015A   211
                           00000006  015A   212 FACNAM:	.LONG	$$$L			;
                           00000154' 015E   213 	.LONG	CANNAM			;
                                     0162   214
                                     0162   215 ;
                                     0162   216 ; SYSTEM SERVICE ERROR MESSAGE ARGUMENT LIST
                                     0162   217 ;
                                     0162   218
                                     0162   219 SRVMSG:	$PUTMSG	FACNAM=FACNAM,-		; FACILITY NAME
                                     0162   220 		MSGVEC=SRVERR		; MESSAGE VECTOR
                                     0172   221
                                     0172   222
                                     0172   223 ;
                                     0172   224 ; SYSTEM SERVICE ERROR ARGUMENT LIST
                                     0172   225 ;
                                     0172   226
                           00000002  0172   227 SRVERR:	.LONG	2			;
                           0000017A  0176   228 SRVCOD:	.BLKL	1			; ERROR CODE
                           00000000  017A   229 	.LONG	0			; NO FAO ARGUMENTS
                                     017E   230
                                     017E   231
CANCEL          - CLI COMMAND TO CANCEL SCHEDULED WAKE REQUESTS  21-AUG-1978 18:52:14   VAX-11 MACRO X0.3-11               Page   6
01.2            CANCEL - CANCEL SCHEDULED WAKE REQUESTS                                                                          (1)

                                     017E   233 	.SBTTL	CANCEL - CANCEL SCHEDULED WAKE REQUESTS
                                     017E   234 ;++
                                     017E   235 ; FUNCTIONAL DESCRIPTION:
                                     017E   236 ;
                                     017E   237 ; THIS PROCEDURE IS CALLED BY THE CLI INTERPRETER TO CANCEL SCHEDULED
                                     017E   238 ; WAKE REQUESTS FOR A PROCESS
                                     017E   239 ;
                                     017E   240 ;
                                     017E   241 ; CALLING SEQUENCE:
                                     017E   242 ;
                                     017E   243 ;	NONE
                                     017E   244 ;
                                     017E   245 ; INPUT PARAMETERS:
                                     017E   246 ;
                                     017E   247 ;	NONE
                                     017E   248 ;
                                     017E   249 ; IMPLICIT INPUTS:
                                     017E   250 ;
                                     017E   251 ;	NONE
                                     017E   252 ;
                                     017E   253 ; OUTPUT PARAMETERS:
                                     017E   254 ;
                                     017E   255 ;	NONE
                                     017E   256 ;
                                     017E   257 ; IMPLICIT OUTPUTS:
                                     017E   258 ;
                                     017E   259 ;	NONE
                                     017E   260 ;
                                     017E   261 ; COMPLETION CODES:
                                     017E   262 ;
                                     017E   263 ;	NONE
                                     017E   264 ;
                                     017E   265 ; SIDE EFFECTS:
                                     017E   266 ;
                                     017E   267 ;	NONE
                                     017E   268 ;
                                     017E   269 ;--
                                     017E   270
                                 00000000   271 	.PSECT	CANCEL	NOWRT,EXE
                                     0000   272
                                     0000   273 CANCEL:					;
                               0000  0000   274 	.WORD	0			; NO REGISTERS SAVED
   0000003E'EF            6C     FA  0002   275 	CALLG	(AP),CAN_PARSCMD	; PARSE INPUT
                                     0009   276 	$CANWAK_G	CANWAK		; CANCEL SCHEDULED WAKE REQUESTS
            01            50     E9  0014   277 	BLBC	R0,CAN_ERR_CANWAK	; IF LBC, ERROR FROM SERVICE
                                 04  0017   278 	RET				;
CANCEL          - CLI COMMAND TO CANCEL SCHEDULED WAKE REQUESTS  21-AUG-1978 18:52:14   VAX-11 MACRO X0.3-11               Page   7
01.2            ERROR FROM CANCEL SERVICE                                                                                        (1)

                                     0018   280 	.SBTTL	ERROR FROM CANCEL SERVICE
                                     0018   281
                                     0018   282 ;
                                     0018   283 ; ERROR FROM CANCEL SCHEDULED WAKE REQUEST SYSTEM SERVICE
                                     0018   284 ;
                                     0018   285
                                     0018   286 CAN_ERR_CANWAK:				;
                                     0018   287 	INSEV	ERROR,R0		; SET SEVERITY TO ERROR
   00000176'EF            50     D0  001D   288 	MOVL	R0,SRVCOD		; SET ERROR CODE
                                     0024   289 	$PUTMSG_G	SRVMSG		; REPORT SYSTEM SERVICE ERROR
            0B            50     E9  002F   290 	BLBC	R0,10$			; IF LBC DISPLAY ERROR ON EXIT
            50   00000176'EF     D0  0032   291 	MOVL	SRVCOD,R0		; GET ERROR CODE
            50            1C     E2  0039   292 	BBSS	#STS$V_INHIB_MSG,R0,10$	; INHIBIT CLI STATUS MESSAGE
                          00         003C
                                     003D   293 10$:					;
                                 04  003D   294 	RET				;
CANCEL          - CLI COMMAND TO CANCEL SCHEDULED WAKE REQUESTS  21-AUG-1978 18:52:14   VAX-11 MACRO X0.3-11               Page   8
01.2            PARSE CANCEL COMMAND                                                                                             (1)

                                     003E   296 	.SBTTL	PARSE CANCEL COMMAND
                                     003E   297
                                     003E   298 ;
                                     003E   299 ; PARSE CANCEL COMMAND
                                     003E   300 ;
                                     003E   301
                                     003E   302 CAN_PARSCMD::				;
                               0000  003E   303 	.WORD	0			; NULL ENTRY MASK
                 00000038'EF     D4  0040   304 	CLRL	CANWAK+CANWAK$_PIDADR	; RESET ADDRESS OF PID
                 0000003C'EF     D4  0046   305 	CLRL	CANWAK+CANWAK$_PRCNAM	; RESET ADDRESS OF PROCESS NAME
                                     004C   306 	CALLBAK	INIPRS			; INITIALIZE RESULT PARSE
                                     005A   307 	CALLBAK	CMLDSC,STSFLG		; GET COMMAND LINE
                                     006C   308 	CALLBAK	CMDESC,STSFLG		; GET COMMAND QUALIFIERS
                                     007E   309 	CALLBAK	PRODESC,STSFLG		; PARSE PROCESS NAME
                                     0090   310 	CALLBAK	PARSDON			; COMPLETE THE PARSE
                                 04  009E   311 	RET				;
CANCEL          - CLI COMMAND TO CANCEL SCHEDULED WAKE REQUESTS  21-AUG-1978 18:52:14   VAX-11 MACRO X0.3-11               Page   9
01.2            PROCNAM - PROCESS NAME PRESENT ROUTINE                                                                           (1)

                                     009F   313 	.SBTTL	PROCNAM - PROCESS NAME PRESENT ROUTINE
                                     009F   314
                                     009F   315 ;
                                     009F   316 ; THIS ROUTINE IS CALLED BY THE RESULT PARSER WHENEVER THE PROCESS
                                     009F   317 ; NAME IS SUPPLIED IN THE CANCEL COMMAND
                                     009F   318 ;
                                     009F   319
                                     009F   320 PROCNAM:				;
                               0000  009F   321 	.WORD	0			; NULL ENTRY MASK
   0000003C'EF   00000138'EF     9E  00A1   322 	MOVAB	PRODESC+CLI$W_RQSIZE,CANWAK+CANWAK$_PRCNAM ; POINT TO NAME
                                 04  00AC   323 	RET				;
CANCEL          - CLI COMMAND TO CANCEL SCHEDULED WAKE REQUESTS  21-AUG-1978 18:52:14   VAX-11 MACRO X0.3-11               Page  10
01.2            ACTION ROUTINES FOR CANCEL SCHEDULED WAKE REQUE                                                                  (1)

                                     00AD   325 	.SBTTL	ACTION ROUTINES FOR CANCEL SCHEDULED WAKE REQUEST
                                     00AD   326
                                     00AD   327 ;
                                     00AD   328 ; ACTION ROUTINE FOR IDENTIFICATION QUALIFIER
                                     00AD   329 ;
                                     00AD   330
                                     00AD   331 IDEN:					;
                               0007  00AD   332 	.WORD	^M<R0,R1,R2>		;
                                     00AF   333 	CONVERTVAL	ASCVAL		; CONVERT AN ASCII VALUE
                 0000014C'EF     9F  00BE   334 	PUSHAB	PID			; PUSH ADDRESS OF PROCESS I/D
                 00000008'EF     9F  00C4   335 	PUSHAB	ASCVAL+CLI$W_RQSIZE	; PUSH ADDRESS OF STRING DESCR.
   00000000'EF            02     FB  00CA   336 	CALLS	#2,LIB$CVT_HEXBIN	; CONVERT TO BINARY
            0C            50     E9  00D1   337 	BLBC	R0,10$			; REPORT ERROR
   00000038'EF   0000014C'EF     9E  00D4   338 	MOVAB	PID,CANWAK+CANWAK$_PIDADR ; POINT TO PROCESS I/D
                                 04  00DF   339 	RET				;
                                     00E0   340 10$:					;
                                     00E0   341 	SYNTAXERR	R0,ASCVAL	;
CANCEL          - CLI COMMAND TO CANCEL SCHEDULED WAKE REQUESTS  21-AUG-1978 18:52:14   VAX-11 MACRO X0.3-11               Page  11
01.2            ACTION ROUTINE ERROR EXIT HANDLERS                                                                               (1)

                                     00EF   343 	.SBTTL	ACTION ROUTINE ERROR EXIT HANDLERS
                                     00EF   344
                                     00EF   345 ;
                                     00EF   346 ; ERROR EXIT HANDLER
                                     00EF   347 ;
                                     00EF   348 ; THIS PROCEDURE IS CALLED TO PRINT AN ERROR MESSAGE AND EXIT WHENEVER A
                                     00EF   349 ; SYNTAX ERROR IS DETECTED IN A RUN COMMAND
                                     00EF   350 ;
                                     00EF   351 ; CALLING SEQUENCE:
                                     00EF   352 ;
                                     00EF   353 ;	CALL	ERREXIT(DESCRIPTOR,CODE)
                                     00EF   354 ;
                                     00EF   355 ; PARAMETER DESCRIPTIONS:
                                     00EF   356 ;
                                     00EF   357 ;	DESCRIPTOR=ADDRESS OF QUALIFIER DESCRIPTOR, CLI$W_RQSIZE IS THE
                                     00EF   358 ;	           OFFSET TO A QUAD-WORD STRING DESCRIPTOR FOR THE ERRONEOUS
                                     00EF   359 ;		   SUBSTRING.
                                     00EF   360 ;
                                     00EF   361 ;	CODE=CLI ERROR CODE
                                     00EF   362 ;
                                     00EF   363 ;
                                     00EF   364 ; IMPLICIT INPUTS:
                                     00EF   365 ;
                                     00EF   366 ;	CMLDSC - COMMAND LINE QUALIFIER DESCRIPTOR
                                     00EF   367 ;
                                     00EF   368 ;	FACNAME - ADDRESS OF FACILITY NAME
                                     00EF   369 ;
                                     00EF   370
                                     00EF   371 	.ENABL	LSB
                                     00EF   372
                                     00EF   373 ERREXIT:				;
                               0004  00EF   374 	.WORD	^M<R2>			;
            52         08 AC     D0  00F1   375 	MOVL	8(AP),R2		; GET ERROR CODE
                                     00F5   376 	INSEV	ERROR,R2		; SET SEVERITY TO ERROR
                          52     DD  00FA   377 	PUSHL	R2			; PUSH ERROR CODE
                 000000DC'EF     9F  00FC   378 	PUSHAB	CMLDSC			; PUSH ADDRESS OF COMMAND LINE DESCRIPTOR
                       04 BC     9F  0102   379 	PUSHAB	@4(AP)			; PUSH ERROR SEGMENT ADDRESS
                 0000015A'EF     9F  0105   380 	PUSHAB	FACNAM			; PUSH ADDRESS OF FACILITY NAME
   00000000'EF            04     FB  010B   381 	CALLS	#4,LIB$PUTCLIMSG	; OUTPUT CLI MESSAGE
            07            50     E9  0112   382 	BLBC	R0,10$			; IF LBC DISPLAY STATUS ON EXIT
                                     0115   383 ERREXIT1:				;
            50            52     D0  0115   384 	MOVL	R2,R0			; GET ERROR CODE
            50            1C     E2  0118   385 	BBSS	#STS$V_INHIB_MSG,R0,10$	; INHIBIT STATUS DISPLAY
                          00         011B
                                     011C   386 10$:					;
                                     011C   387 	INSEV	ERROR,R0		; SET APPROPRIATE SEVERITY
                                     0121   388 	$EXIT_S	R0			; EXIT WITH STATUS
                                     012A   389
                                     012A   390 	.DSABL	LSB
                                     012A   391
                                     012A   392 	.END	CANCEL
CANCEL          - CLI COMMAND TO CANCEL SCHEDULED WAKE REQUESTS  21-AUG-1978 18:52:14   VAX-11 MACRO X0.3-11               Page  12
SYMBOL TABLE                                                                                                                     (1)

$$$            = 00000002            CLI$K_INPUT1   = 00000010            CLI$V_CONCATINP= 00000001
$$$GBL         = 00000000            CLI$K_INPUT2   = 00000011            CLI$V_DBGEXCP  = 00000010
$$$L           = 00000006            CLI$K_INPUT3   = 00000012            CLI$V_DBGTRU   = 00000001
$$ARGS         = 00000003            CLI$K_INPUT4   = 00000013            CLI$V_DEBUG    = 00000000
$$T1           = 00000010            CLI$K_KEYVAL   = 00000043            CLI$V_DUMMY    = 00000001
$CLI.          = 00000130 R     03   CLI$K_KEYWORD  = 00000042            CLI$V_EXPNAM   = 00000002
$CLI..         = 0000014C R     03   CLI$K_NUMERVAL = 00000040            CLI$V_INDIRECT = 00000004
$QUALNUM$      = 00000002            CLI$K_OUTPUT1  = 00000020            CLI$V_KEYVALU  = 00000001
ASCVAL           00000000 R     03   CLI$K_OUTPUT2  = 00000021            CLI$V_LASTVAL  = 00000000
BIT...         = 00000020            CLI$K_OUTPUT3  = 00000022            CLI$V_MOREINP  = 00000002
CANCEL           00000000 R     04   CLI$K_OUTPUT4  = 00000023            CLI$V_MOREVALS = 00000000
CANNAM           00000154 R     03   CLI$K_OUTSPEC  = 00000002            CLI$V_PARMDEF  = 00000003
CANQUAL          0000001C R     03   CLI$K_PARDONE  = 00000003            CLI$V_PARMPRS  = 00000000
CANWAK           00000034 R     03   CLI$K_QDBITS     00000014            CLI$V_PARMREQ  = 00000000
CANWAK$_NARGS  = 00000002            CLI$K_QUALDEF    00000014            CLI$V_PRITYP   = 00000004
CANWAK$_PIDADR = 00000004            CLI$K_REQDESC    0000001C            CLI$V_QDEXPA   = 00000002
CANWAK$_PRCNAM = 00000008            CLI$K_UTILOPR  = 00000000            CLI$V_QDUSRV   = 00000001
CAN_ERR_CANWAK   00000018 R     04   CLI$K_VALCONV  = 00000004            CLI$V_QUALEXP  = 00000001
CAN_PARSCMD      0000003E RG    04   CLI$K_WORKAREA   00000080            CLI$V_QUALTRU  = 00000000
CLI$A_ABSACT     00000014            CLI$L_CLIFLAG    00000018            CLI$V_SUBTYP   = 00000000
CLI$A_ERRACT     00000004            CLI$L_INIARGCNT  00000000            CLI$V_TRMVRBLV = 00000008
CLI$A_FLSACT     00000010            CLI$L_LINKFLAG   00000014            CLI$V_VERIFY   = 00000002
CLI$A_IMGFILED   00000010            CLI$L_RQVALU     0000000C            CLI$V_VFYINP   = 00000005
CLI$A_IMGHDADR   0000000C            CLI$L_USRVAL     00000014            CLI$W_QDVALSIZ   00000004
CLI$A_PROGXFER   00000004            CLI$L_WORKAREA   00000000            CLI$W_RQSIZE     00000008
CLI$A_PRSACT     00000010            CLI$M_ABSADR   = 00000002            CLI$W_SERVCOD    00000001
CLI$A_QDVALADR   00000008            CLI$M_ALLOCCUR = 00000001            CLI$_ABFNAM    = 000381B8
CLI$A_QUALST     00000018            CLI$M_BATCH    = 00000008            CLI$_ABKEYW    = 00038000
CLI$A_RQADDR     0000000C            CLI$M_CONCATINP= 00000002            CLI$_ABVERB    = 00038008
CLI$A_TRUACT     0000000C            CLI$M_DBGEXCP  = 00010000            CLI$_BADRET    = 00038198
CLI$A_UTILSERV   00000008            CLI$M_DBGTRU   = 00000002            CLI$_BADTEXT   = 000381B0
CLI$B_BITNUM     00000001            CLI$M_DEBUG    = 00000001            CLI$_BUFOVF    = 00038018
CLI$B_QDBLKSIZ   00000000            CLI$M_DUMMY    = 00000002            CLI$_COMPLX    = 00038020
CLI$B_QDCODE     00000001            CLI$M_EXPNAM   = 00000004            CLI$_CONFQUAL  = 00038802
CLI$B_QDFLGS     00000002            CLI$M_INDIRECT = 00000010            CLI$_CREQUEJOB = 0003884A
CLI$B_QDSTAT     00000003            CLI$M_KEYVALU  = 00000002            CLI$_DEFOVF    = 00038028
CLI$B_RQFLGS     00000002            CLI$M_LASTVAL  = 00000001            CLI$_DEVALSPL  = 0003885A
CLI$B_RQINDX     00000001            CLI$M_MOREINP  = 00000004            CLI$_DEVNOTFOR = 0003887A
CLI$B_RQSTAT     00000003            CLI$M_MOREVALS = 00000001            CLI$_DEVNOTSPL = 00038862
CLI$B_RQTYPE     00000000            CLI$M_PARMDEF  = 00000008            CLI$_DIRECT    = 00038030
CLI$C_QDBITS     00000014            CLI$M_PARMPRS  = 00000001            CLI$_EXPSYN    = 00038038
CLI$C_QUALDEF    00000014            CLI$M_PARMREQ  = 00000001            CLI$_FILOPN    = 00038190
CLI$C_REQDESC    0000001C            CLI$M_QDEXPA   = 00000004            CLI$_ILLVAL    = 0003883A
CLI$C_WORKAREA   00000080            CLI$M_QDUSRV   = 00000002            CLI$_IMCHNG    = 00038040
CLI$K_ASCIIVAL = 00000041            CLI$M_QUALEXP  = 00000002            CLI$_IMGFNF    = 00038872
CLI$K_CANC_IDEN= 00000001            CLI$M_QUALTRU  = 00000001            CLI$_INSFPRM   = 00038048
CLI$K_CLISERV  = 00000005            CLI$M_TRMVRBLV = 00000300            CLI$_INVKEY    = 00038178
CLI$K_ENDPRM1  = 00000030            CLI$M_VERIFY   = 00000004            CLI$_INVQUAL   = 0003880A
CLI$K_ENDPRM2  = 00000031            CLI$M_VFYINP   = 00000020            CLI$_INVQUALNUM= 0003881A
CLI$K_ENDPRM3  = 00000032            CLI$Q_QDVALDESC  00000004            CLI$_INVREQTYP = 00038822
CLI$K_ENDPRM4  = 00000033            CLI$Q_RQDESC     00000008            CLI$_INVRSP    = 00038180
CLI$K_FILSPEC  = 00000044            CLI$S_PRITYP   = 00000004            CLI$_INVUIC    = 000381A8
CLI$K_GETCMD   = 00000001            CLI$S_SUBTYP   = 00000004            CLI$_IVCHAR    = 00038050
CLI$K_GETOPT   = 00000003            CLI$S_TRMVRBLV = 00000002            CLI$_IVDEVTYPE = 0003886A
CLI$K_GETQUAL  = 00000002            CLI$V_ABSADR   = 00000001            CLI$_IVFNAM    = 000381C0
CLI$K_INITPRS  = 00000000            CLI$V_ALLOCCUR = 00000000            CLI$_IVKEYW    = 00038060
CLI$K_INPSPEC  = 00000001            CLI$V_BATCH    = 00000003            CLI$_IVOPER    = 00038068
CANCEL          - CLI COMMAND TO CANCEL SCHEDULED WAKE REQUESTS  21-AUG-1978 18:52:14   VAX-11 MACRO X0.3-11               Page  13
SYMBOL TABLE                                                                                                                     (1)

CLI$_IVPROT    = 00038070            PID              0000014C R     03   QUA_V_OUTPUT   = 0000000B
CLI$_IVQLOC    = 00038078            PROCNAM          0000009F R     04   QUA_V_PARM     = 00000004
CLI$_IVSYMB    = 00038080            PRODESC          00000130 R     03   QUA_V_VAL      = 00000005
CLI$_IVVALU    = 00038088            PRO_B_FLAGS      00000001            QUA_V_VALREQ   = 0000000C
CLI$_IVVERB    = 00038090            PRO_B_PROMPT     00000000            QUA_V_VERB     = 00000003
CLI$_MAXPARM   = 00038098            PRO_K_LENGTH     00000002            QUA_W_FLAGS      00000003
CLI$_MULKEY    = 000381A0            PRO_M_CONCAT   = 00000001            QUA_W_PROMPT     00000009
CLI$_NOATFIL   = 000380A0            PRO_M_IMPCAT   = 00000002            QUA_W_QUALIST    00000006
CLI$_NOCCAT    = 000380A8            PRO_M_LIST     = 00000004            SRVCOD           00000176 R     03
CLI$_NOCOMD    = 000380B0            PRO_M_OPTION   = 00000008            SRVERR           00000172 R     03
CLI$_NOKEYW    = 000380B8            PRO_M_REQ      = 00000010            SRVMSG           00000162 R     03
CLI$_NOLIST    = 000380C0            PRO_M_STRING   = 00000020            SS$_ABORT      = 0000002C
CLI$_NOOPTPRS  = 00038842            PRO_V_CONCAT   = 00000000            SS$_ACCONFLICT = 00000800
CLI$_NOQUAL    = 000380C8            PRO_V_IMPCAT   = 00000001            SS$_ACCVIO     = 0000000C
CLI$_NORMAL    = 00030001            PRO_V_LIST     = 00000002            SS$_ACPVAFUL   = 000002FC
CLI$_NOTNEG    = 000380D8            PRO_V_OPTION   = 00000003            SS$_ARTRES     = 00000474
CLI$_NOVALU    = 000380D0            PRO_V_REQ      = 00000004            SS$_ASTFLT     = 0000040C
CLI$_NOVALUE   = 0003882A            PRO_V_STRING   = 00000005            SS$_BADATTRIB  = 00000034
CLI$_NULFIL    = 000380E0            PUTMSG$_ACTRTN = 00000008            SS$_BADCHKSUM  = 00000808
CLI$_NUMBER    = 000380E8            PUTMSG$_FACNAM = 0000000C            SS$_BADESCAPE  = 0000003C
CLI$_ONCOMD    = 000380F0            PUTMSG$_MSGVEC = 00000004            SS$_BADFILEHDR = 00000810
CLI$_ONERR     = 000380F8            PUTMSG$_NARGS  = 00000003            SS$_BADFILENAME= 00000818
CLI$_ONEVAL    = 00038158            QUA_B_DEFVAL     00000002            SS$_BADFILEVER = 00000820
CLI$_ONLEVL    = 00038100            QUA_B_IMAGE      00000005            SS$_BADIMGHDR  = 00000044
CLI$_ONOVF     = 00038108            QUA_B_INDEX      00000001            SS$_BADIRECTORY= 00000828
CLI$_OVRFLW    = 00038160            QUA_B_OFFSET     00000000            SS$_BADPARAM   = 00000014
CLI$_PARMDEL   = 00038110            QUA_B_PARMCNT    00000008            SS$_BADSTACK   = 000002B4
CLI$_PROC_ID   = 0003FFF1            QUA_G_CHNGLST    00000006            SS$_BEGOFFILE  = 00000938
CLI$_QUEJOBCRE = 0003FFF9            QUA_M_BATDEF   = 00000100            SS$_BLOCKCNTERR= 00000940
CLI$_REQPRMABS = 00038812            QUA_M_CHNGLIST = 00000001            SS$_BREAK      = 00000414
CLI$_RSLOVF    = 00038118            QUA_M_DEFTRUE  = 00000080            SS$_BUFBYTALI  = 0000030C
CLI$_SKPDAT    = 00038120            QUA_M_FILE     = 00000004            SS$_BUFFEROVF  = 00000601
CLI$_SPARE0    = 00038010            QUA_M_IMAGE    = 00000400            SS$_BUGCHECK   = 000002A4
CLI$_SPARE1    = 00038058            QUA_M_INTDEF   = 00000200            SS$_CANCEL     = 00000830
CLI$_STKOVF    = 00038128            QUA_M_KEYVAL   = 00004000            SS$_CHANINTLK  = 0000004C
CLI$_SUBMITERR = 00038852            QUA_M_LOCALKEY = 00000002            SS$_CLIFRCEXT  = 00000980
CLI$_SYMDEL    = 00038130            QUA_M_NEG      = 00000040            SS$_CMODSUPR   = 0000041C
CLI$_SYMOVF    = 00038138            QUA_M_ONEVAL   = 00002000            SS$_CMODUSER   = 00000424
CLI$_UNDFIL    = 00038188            QUA_M_OUTPUT   = 00000800            SS$_COMPAT     = 0000042C
CLI$_UNDSYM    = 00038140            QUA_M_PARM     = 00000010            SS$_CONTINUE   = 00000001
CLI$_UNPROPARM = 00038170            QUA_M_VAL      = 00000020            SS$_CONTROLC   = 00000651
CLI$_UNPROQUAL = 00038168            QUA_M_VALREQ   = 00001000            SS$_CONTROLO   = 00000609
CLI$_USGOTO    = 00038148            QUA_M_VERB     = 00000008            SS$_CONTROLY   = 00000611
CLI$_VALCNVERR = 00038832            QUA_S_MAXPARM  = 00000004            SS$_CREATED    = 00000619
CLI$_VALREQ    = 00038150            QUA_S_MINPARM  = 00000004            SS$_CTRLERR    = 00000054
CLIWORK          0000005C R     03   QUA_V_BATDEF   = 00000008            SS$_DATACHECK  = 0000005C
CMDESC           00000040 R     03   QUA_V_CHNGLIST = 00000000            SS$_DATAOVERUN = 00000838
CMLDSC           000000DC R     03   QUA_V_DEFTRUE  = 00000007            SS$_DEBUG      = 0000046C
ERREXIT          000000EF R     04   QUA_V_FILE     = 00000002            SS$_DECOVF     = 000004A4
ERREXIT1         00000115 R     04   QUA_V_IMAGE    = 0000000A            SS$_DEVACTIVE  = 000002C4
FACNAM           0000015A R     03   QUA_V_INTDEF   = 00000009            SS$_DEVALLOC   = 00000840
GBL...         = 00000000            QUA_V_KEYVAL   = 0000000E            SS$_DEVALRALLOC= 00000641
IDEN             000000AD R     04   QUA_V_LOCALKEY = 00000001            SS$_DEVASSIGN  = 00000848
INIPRS           000000F8 R     03   QUA_V_MAXPARM  = 00000004            SS$_DEVFOREIGN = 00000064
LIB$CVT_HEXBIN   ********   X   04   QUA_V_MINPARM  = 00000000            SS$_DEVICEFULL = 00000850
LIB$PUTCLIMSG    ********   X   04   QUA_V_NEG      = 00000006            SS$_DEVMOUNT   = 0000006C
PARSDON          00000114 R     03   QUA_V_ONEVAL   = 0000000D            SS$_DEVNOTALLOC= 00000858
CANCEL          - CLI COMMAND TO CANCEL SCHEDULED WAKE REQUESTS  21-AUG-1978 18:52:14   VAX-11 MACRO X0.3-11               Page  14
SYMBOL TABLE                                                                                                                     (1)

SS$_DEVNOTMBX  = 00000074            SS$_IVLOGNAM   = 00000154            SS$_RADRMOD    = 0000044C
SS$_DEVNOTMOUNT= 0000007C            SS$_IVLOGTAB   = 0000015C            SS$_REJECT     = 00000294
SS$_DEVOFFLINE = 00000084            SS$_IVPROTECT  = 000002F4            SS$_REMOTE     = 00000649
SS$_DIRFULL    = 00000860            SS$_IVQUOTAL   = 00000164            SS$_RESIGNAL   = 00000918
SS$_DRVERR     = 0000008C            SS$_IVSECFLG   = 0000016C            SS$_RESULTOVF  = 00000214
SS$_DUPFILENAME= 00000868            SS$_IVSECIDCTL = 000002E4            SS$_ROPRAND    = 00000454
SS$_DUPLNAM    = 00000094            SS$_IVSSRQ     = 00000174            SS$_SECTBLFUL  = 0000021C
SS$_ENDOFFILE  = 00000870            SS$_IVSTSFLG   = 0000017C            SS$_SSFAIL     = 0000045C
SS$_ENDOFTAPE  = 00000878            SS$_IVTIME     = 00000184            SS$_SUBRNG     = 000004AC
SS$_ENDOFUSRLBL= 00000970            SS$_LCKPAGFUL  = 000000D4            SS$_SUPERSEDE  = 00000631
SS$_EXQUOTA    = 0000001C            SS$_LENVIO     = 0000018C            SS$_TAPEPOSLOST= 00000224
SS$_EXTIDXFILE = 00000880            SS$_LKWSETFUL  = 00000194            SS$_TBIT       = 00000464
SS$_FCPREADERR = 00000888            SS$_MBFULL     = 000008D8            SS$_TIMEOUT    = 0000022C
SS$_FCPREPSTN  = 00000988            SS$_MBTOOSML   = 0000019C            SS$_TOOMANYVER = 00000990
SS$_FCPREWNDERR= 00000890            SS$_MCHECK     = 000002BC            SS$_TOOMUCHDATA= 0000029C
SS$_FCPSPACERR = 00000898            SS$_MEDOFL     = 000001A4            SS$_UNASEFC    = 00000234
SS$_FCPWRITERR = 000008A0            SS$_MSGNOTFND  = 00000621            SS$_UNSAFE     = 0000023C
SS$_FILACCERR  = 0000009C            SS$_MTLBLLONG  = 00000304            SS$_UNWIND     = 00000920
SS$_FILALRACC  = 000000A4            SS$_MUSTCLOSEFL= 00000948            SS$_UNWINDING  = 00000928
SS$_FILELOCKED = 000008A8            SS$_NOAQB      = 00000314            SS$_VASFULL    = 00000244
SS$_FILENUMCHK = 000008B0            SS$_NODATA     = 000001AC            SS$_VECINUSE   = 0000024C
SS$_FILESEQCHK = 000008B8            SS$_NOHANDLER  = 000008F8            SS$_VOLINV     = 00000254
SS$_FILESTRUCT = 000008C0            SS$_NOHOMEBLK  = 000008E0            SS$_WAITUSRLBL = 00000950
SS$_FILNOTACC  = 000000AC            SS$_NOIOCHAN   = 000001B4            SS$_WASCLR     = 00000001
SS$_FILNOTCNTG = 000002AC            SS$_NOLINKS    = 0000027C            SS$_WASECC     = 00000639
SS$_FILNOTEXP  = 000000B4            SS$_NOLOGNAM   = 000001BC            SS$_WASSET     = 00000009
SS$_FLTDIV     = 00000494            SS$_NOMBX      = 00000274            SS$_WRITLCK    = 0000025C
SS$_FLTOVF     = 0000048C            SS$_NOMOREFILES= 00000930            SS$_WRONGACP   = 0000031C
SS$_FLTUND     = 0000049C            SS$_NONEXDRV   = 000001C4            STS$K_ERROR    = 00000002
SS$_FORMAT     = 000000BC            SS$_NONEXPR    = 000008E8            STS$K_INFO     = 00000003
SS$_GPTFULL    = 000000C4            SS$_NONLOCAL   = 000008F0            STS$K_SEVERE   = 00000004
SS$_GSDFULL    = 000000CC            SS$_NOPRIV     = 00000024            STS$K_SUCCESS  = 00000001
SS$_HANGUP     = 000002CC            SS$_NORMAL     = 00000001            STS$K_WARNING  = 00000000
SS$_HEADERFULL = 000008C8            SS$_NOSIGNAL   = 00000900            STS$M_CODE     = 00007FF8
SS$_IDXFILEFULL= 000008D0            SS$_NOSOLICIT  = 00000284            STS$M_COND_ID  = 0FFFFFF8
SS$_ILLBLKNUM  = 000000DC            SS$_NOSUCHDEV  = 00000908            STS$M_CONTROL  = F0000000
SS$_ILLCNTRFUNC= 000000E4            SS$_NOSUCHFILE = 00000910            STS$M_CUST_DEF = 08000000
SS$_ILLEFC     = 000000EC            SS$_NOSUCHNODE = 0000028C            STS$M_FAC_NO   = 0FFF0000
SS$_ILLIOFUNC  = 000000F4            SS$_NOSUCHSEC  = 00000978            STS$M_FAC_SP   = 00008000
SS$_ILLLBLAST  = 00000968            SS$_NOTAPEOP   = 00000264            STS$M_INHIB_MSG= 10000000
SS$_ILLPAGCNT  = 000000FC            SS$_NOTFILEDEV = 000001CC            STS$M_MSG_NO   = 0000FFF8
SS$_ILLSEQOP   = 000002DC            SS$_NOTINTBLSZ = 000001D4            STS$M_SEVERITY = 00000007
SS$_ILLSER     = 00000104            SS$_NOTLABELMT = 000001DC            STS$M_SUCCESS  = 00000001
SS$_ILLUSRLBLRD= 00000958            SS$_NOTMODIFIED= 00000659            STS$S_CODE     = 0000000C
SS$_ILLUSRLBLWT= 00000960            SS$_NOTNETDEV  = 000002EC            STS$S_COND_ID  = 00000019
SS$_INCVOLLABEL= 0000010C            SS$_NOTRAN     = 00000629            STS$S_CONTROL  = 00000004
SS$_INSFARG    = 00000114            SS$_NOTSQDEV   = 000001E4            STS$S_CUST_DEF = 00000001
SS$_INSFMEM    = 00000124            SS$_OPCCUS     = 00000434            STS$S_FAC_NO   = 0000000C
SS$_INSFRAME   = 0000012C            SS$_OPCDEC     = 0000043C            STS$S_FAC_SP   = 00000001
SS$_INSFWSL    = 0000011C            SS$_OPINCOMPL  = 000002D4            STS$S_INHIB_MSG= 00000001
SS$_INTDIV     = 00000484            SS$_PAGOWNVIO  = 000001EC            STS$S_MSG_NO   = 0000000D
SS$_INTOVF     = 0000047C            SS$_PAGRDERR   = 00000444            STS$S_SEVERITY = 00000003
SS$_IVADDR     = 00000134            SS$_PARITY     = 000001F4            STS$S_SUCCESS  = 00000001
SS$_IVCHAN     = 0000013C            SS$_PARTESCAPE = 000001FC            STS$V_CODE     = 00000003
SS$_IVCHNLSEC  = 0000026C            SS$_PFMBSY     = 00000204            STS$V_COND_ID  = 00000003
SS$_IVDEVNAM   = 00000144            SS$_PLHLDR     = 00000404            STS$V_CONTROL  = 0000001C
SS$_IVGSDNAM   = 0000014C            SS$_PSTFULL    = 0000020C            STS$V_CUST_DEF = 0000001B
CANCEL          - CLI COMMAND TO CANCEL SCHEDULED WAKE REQUESTS  21-AUG-1978 18:52:14   VAX-11 MACRO X0.3-11               Page  15
SYMBOL TABLE                                                                                                                     (1)

STS$V_FAC_NO   = 00000010
STS$V_FAC_SP   = 0000000F
STS$V_INHIB_MSG= 0000001C
STS$V_MSG_NO   = 00000003
STS$V_SEVERITY = 00000000
STS$V_SUCCESS  = 00000000
STSFLG           00000150 R     03
SYS$CANWAK       ********   X   04
SYS$EXIT         ********   X   04
SYS$PUTMSG       ********   X   04


PROGRAM SECTION SYNOPSIS

.  ABS  .        00000000      00     NOPIC   USR   CON   ABS   LCL NOSHR NOEXE NORD  NOWRT BYTE
. BLANK .        00000000      01     NOPIC   USR   CON   REL   LCL NOSHR   EXE   RD    WRT BYTE
$ABS$            00000080      02     NOPIC   USR   CON   ABS   LCL NOSHR   EXE   RD    WRT BYTE
RWDATA           0000017E      03     NOPIC   USR   CON   REL   LCL NOSHR   EXE   RD    WRT BYTE
CANCEL           0000012A      04     NOPIC   USR   CON   REL   LCL NOSHR   EXE   RD  NOWRT BYTE


THERE WERE NO ERRORS OR WARNINGS.
7240. BYTES LEFT IN FREE MEMORY POOL.
2862. BYTES OF RECLAIMED MEMORY.
OBJ$:CANCEL,LIS$:CANCEL/-SP=EXECML$/ML,LIB$:CLIUTL/ML,SRC$:CANCEL
65 MLB DIR RDS - 901 GETS TO DEFINE 34 MACROS. 71 INTER. FILE WRITES.
