CLIGBL0         - DEFINE CLI QUALIFIER CODES GLOBALLY MODULE 0   21-AUG-1978 18:53:33   VAX-11 MACRO X0.3-11               Page   0
TABLE OF CONTENTS

   (2)      40  DECLARATIONS
CLIGBL0         - DEFINE CLI QUALIFIER CODES GLOBALLY MODULE 0   21-AUG-1978 18:53:33   VAX-11 MACRO X0.3-11               Page   1
V01                                                                                                                              (1)

                                     0000     1 	.TITLE	CLIGBL0 - DEFINE CLI QUALIFIER CODES GLOBALLY MODULE 0
                                     0000     2 	.IDENT	/V01/
                                     0000     3
                                     0000     4 ;
                                     0000     5 ; COPYRIGHT (C) 1977
                                     0000     6 ; DIGITAL EQUIPMENT CORPORATION, MAYNARD, MASSACHUSETTS 01754
                                     0000     7 ;
                                     0000     8 ; THIS SOFTWARE IS FURNISHED  UNDER A LICENSE FOR USE ONLY ON A SINGLE
                                     0000     9 ; COMPUTER  SYSTEM AND  MAY BE  COPIED ONLY WITH  THE INCLUSION OF THE
                                     0000    10 ; ABOVE COPYRIGHT NOTICE.  THIS SOFTWARE, OR ANY OTHER COPIES THEREOF,
                                     0000    11 ; MAY NOT BE PROVIDED OR  OTHERWISE MADE AVAILABLE TO ANY OTHER PERSON
                                     0000    12 ; EXCEPT FOR USE ON SUCH SYSTEM AND TO ONE WHO AGREES TO THESE LICENSE
                                     0000    13 ; TERMS.  TITLE TO AND  OWNERSHIP OF THE  SOFTWARE  SHALL AT ALL TIMES
                                     0000    14 ; REMAIN IN DEC.
                                     0000    15 ;
                                     0000    16 ; THE INFORMATION IN THIS SOFTWARE IS SUBJECT TO CHANGE WITHOUT NOTICE
                                     0000    17 ; AND SHOULD  NOT BE CONSTRUED  AS A COMMITMENT  BY DIGITAL  EQUIPMENT
                                     0000    18 ; CORPORATION.
                                     0000    19 ;
                                     0000    20 ; DEC ASSUMES  NO  RESPONSIBILITY  FOR  THE USE OR  RELIABILITY OF ITS
                                     0000    21 ; SOFTWARE ON EQUIPMENT WHICH IS NOT SUPPLIED BY DEC.
                                     0000    22 ;
                                     0000    23
                                     0000    24 ;++
                                     0000    25 ; FACILITY:	STARLET CLI
                                     0000    26 ;
                                     0000    27 ; ABSTRACT:	GLOBAL VALUES FOR QUALIFER CODES
                                     0000    28 ;
                                     0000    29 ;
                                     0000    30 ; ENVIRONMENT:	NONE
                                     0000    31 ;
                                     0000    32 ; AUTHOR:	W.H.BROWN, CREATION DATE: 5-MAY-77
                                     0000    33 ;
                                     0000    34 ; MODIFIED BY:
                                     0000    35 ;
                                     0000    36 ;	, : VERSION
                                     0000    37 ; 01	-
                                     0000    38 ;--
CLIGBL0         - DEFINE CLI QUALIFIER CODES GLOBALLY MODULE 0   21-AUG-1978 18:53:33   VAX-11 MACRO X0.3-11               Page   2
V01             DECLARATIONS                                                                                                     (2)

                                     0000    40 	.SBTTL	DECLARATIONS
                                     0000    41 ;
                                     0000    42 ; INCLUDE FILES:
                                     0000    43 ;
                                     0000    44 ;	[241,10]C.MLB
                                     0000    45
                                     0000    46 ;
                                     0000    47 ; MACROS:
                                     0000    48 ;
                                     0000    49
                                     0000    50 ;
                                     0000    51 ; EQUATED SYMBOLS:
                                     0000    52 ;
                                     0000    53
                                     0000    54
                                     0000    55 	$CLIDEF	GLOBAL
                                     0000    56 	$CLIDEFQUALPATC	GLOBAL=YES
                                     0000    57 	$CLIDEFQUALMOUN	GLOBAL=YES
                                     0000    58 	$CLIDEFQUALMACR	GLOBAL=YES
                                     0000    59 	$CLIDEFQUALLOGO	GLOBAL=YES
                                     0000    60 	$CLIDEFQUALLINK	GLOBAL=YES
                                     0000    61 	$CLIDEFQUALINQU GLOBAL=YES
                                     0000    62 	$CLIDEFQUALINIT	GLOBAL=YES
                                     0000    63 	$CLIDEFQUALHELP	GLOBAL=YES
                                     0000    64 	$CLIDEFQUALEXAM	GLOBAL=YES
                                     0000    65 	$CLIDEFQUALEDIT	GLOBAL=YES
                                     0000    66 	$CLIDEFQUALDUMP	GLOBAL=YES
                                     0000    67 	$CLIDEFQUALDISM	GLOBAL=YES
                                     0000    68 	$CLIDEFQUALDIRE	GLOBAL=YES
                                     0000    69 	$CLIDEFQUALDELE	GLOBAL=YES
                                     0000    70 	$CLIDEFQUALDEFI	GLOBAL=YES
                                     0000    71 	$CLIDEFQUALDEAS	GLOBAL=YES
                                     0000    72 	$CLIDEFQUALDEAL	GLOBAL=YES
                                     0000    73 	$CLIDEFQUALCREA	GLOBAL=YES
                                     0000    74 	$CLIDEFQUALCOPY	GLOBAL=YES
                                     0000    75 	$CLIDEFQUALCOBO	GLOBAL=YES
                                     0000    76 	$CLIDEFQUALCANC	GLOBAL=YES
                                     0000    77 	$CLIDEFQUALBLIS	GLOBAL=YES
                                     0000    78 	$CLIDEFQUALANAL	GLOBAL=YES
                                     0000    79 	$CLIDEFQUALASSI	GLOBAL=YES
                                     0000    80 	$CLIDEFQUALAPPE	GLOBAL=YES
                                     0000    81
                                     0000    82 ;
                                     0000    83 ;	*** TEMPORARY ***
                                     0000    84 ;
                                     0000    85
                           00000011  0000    86 	CLI$K_COPY_MAXI == CLI$K_COPY_TRUN
                                     0000    87 ;
                                     0000    88 ; OWN STORAGE:
                                     0000    89 ;
                                     0000    90 	.END
CLIGBL0         - DEFINE CLI QUALIFIER CODES GLOBALLY MODULE 0   21-AUG-1978 18:53:33   VAX-11 MACRO X0.3-11               Page   3
SYMBOL TABLE                                                                                                                     (2)

$$$            = 00000004            CLI$K_BLIS_DEBU= 00000004  G         CLI$K_CREA_PROT= 00000003  G
$$$GBL         = 00000001            CLI$K_BLIS_LIBR= 0000000B  G         CLI$K_DEAL_ALL = 00000001  G
$QUALNUM$      = 0000000E            CLI$K_BLIS_LIST= 00000001  G         CLI$K_DEAS_ALL = 00000004  G
BIT...         = 00000008            CLI$K_BLIS_MACH= 0000000A  G         CLI$K_DEAS_GROU= 00000002  G
CLI$A_ABSACT     00000014  G         CLI$K_BLIS_OBJE= 00000002  G         CLI$K_DEAS_PROC= 00000003  G
CLI$A_ERRACT     00000004  G         CLI$K_BLIS_OPTI= 00000009  G         CLI$K_DEAS_QUEU= 00000007  G
CLI$A_FLSACT     00000010  G         CLI$K_BLIS_QUIC= 00000005  G         CLI$K_DEAS_SUPE= 00000006  G
CLI$A_IMGFILED   00000010  G         CLI$K_BLIS_SOUR= 00000008  G         CLI$K_DEAS_SYST= 00000001  G
CLI$A_IMGHDADR   0000000C  G         CLI$K_BLIS_TERM= 00000007  G         CLI$K_DEAS_USER= 00000005  G
CLI$A_PROGXFER   00000004  G         CLI$K_BLIS_TRAC= 0000000C  G         CLI$K_DEFI_GROU= 00000002  G
CLI$A_PRSACT     00000010  G         CLI$K_BLIS_VARI= 00000006  G         CLI$K_DEFI_PROC= 00000003  G
CLI$A_QDVALADR   00000008  G         CLI$K_CANC_IDEN= 00000001  G         CLI$K_DEFI_SUPE= 00000005  G
CLI$A_QUALST     00000018  G         CLI$K_CLISERV  = 00000005  G         CLI$K_DEFI_SYST= 00000001  G
CLI$A_RQADDR     0000000C  G         CLI$K_COBO_ANSI= 00000006  G         CLI$K_DEFI_USER= 00000004  G
CLI$A_TRUACT     0000000C  G         CLI$K_COBO_C74 = 0000000E  G         CLI$K_DELE_BEFO= 00000008  G
CLI$A_UTILSERV   00000008  G         CLI$K_COBO_C79 = 0000000F  G         CLI$K_DELE_CONF= 00000005  G
CLI$B_BITNUM     00000001  G         CLI$K_COBO_CHEC= 00000018  G         CLI$K_DELE_CREA= 00000001  G
CLI$B_QDBLKSIZ   00000000  G         CLI$K_COBO_COND= 00000016  G         CLI$K_DELE_ENTR= 00000002  G
CLI$B_QDCODE     00000001  G         CLI$K_COBO_COPY= 00000007  G         CLI$K_DELE_EXPI= 00000009  G
CLI$B_QDFLGS     00000002  G         CLI$K_COBO_CROS= 00000005  G         CLI$K_DELE_LOG = 00000006  G
CLI$B_QDSTAT     00000003  G         CLI$K_COBO_DATA= 00000011  G         CLI$K_DELE_MODI= 00000003  G
CLI$B_RQFLGS     00000002  G         CLI$K_COBO_DEBU= 00000017  G         CLI$K_DELE_QUEU= 00000004  G
CLI$B_RQINDX     00000001  G         CLI$K_COBO_LIST= 00000001  G         CLI$K_DELE_SINC= 00000007  G
CLI$B_RQSTAT     00000003  G         CLI$K_COBO_MACH= 00000010  G         CLI$K_DELE_SYMB= 0000000A  G
CLI$B_RQTYPE     00000000  G         CLI$K_COBO_MAP = 00000004  G         CLI$K_DIRE_BRIE= 00000001  G
CLI$C_QDBITS     00000014  G         CLI$K_COBO_NAME= 0000000B  G         CLI$K_DIRE_COLU= 00000002  G
CLI$C_QUALDEF    00000014  G         CLI$K_COBO_NEST= 00000009  G         CLI$K_DIRE_FULL= 00000004  G
CLI$C_REQDESC    0000001C  G         CLI$K_COBO_OBJE= 00000002  G         CLI$K_DIRE_OUTP= 00000005  G
CLI$C_WORKAREA   00000080  G         CLI$K_COBO_OVER= 0000000D  G         CLI$K_DIRE_PRIN= 00000006  G
CLI$K_ANAL_DBG = 00000008  G         CLI$K_COBO_PROC= 00000012  G         CLI$K_DISM_UNLO= 00000001  G
CLI$K_ANAL_EOM = 00000001  G         CLI$K_COBO_RSX1= 00000003  G         CLI$K_DLSY_ALL = 00000001  G
CLI$K_ANAL_GSD = 00000002  G         CLI$K_COBO_SEGM= 0000000C  G         CLI$K_DLSY_GLOB= 00000002  G
CLI$K_ANAL_INTE= 00000003  G         CLI$K_COBO_SEQU= 00000015  G         CLI$K_DLSY_LOCA= 00000003  G
CLI$K_ANAL_MHD = 00000004  G         CLI$K_COBO_TERM= 00000019  G         CLI$K_DUMP_ASCI= 00000001  G
CLI$K_ANAL_OUTP= 00000005  G         CLI$K_COBO_TRUN= 00000014  G         CLI$K_DUMP_BLOC= 00000002  G
CLI$K_ANAL_TBT = 00000007  G         CLI$K_COBO_VERB= 0000000A  G         CLI$K_DUMP_BYTE= 00000003  G
CLI$K_ANAL_TIR = 00000006  G         CLI$K_COBO_WARN= 00000008  G         CLI$K_DUMP_DECI= 00000004  G
CLI$K_APPE_ALIG= 00000001  G         CLI$K_COBO_WIDT= 00000013  G         CLI$K_DUMP_HEAD= 00000005  G
CLI$K_APPE_ALLO= 00000002  G         CLI$K_COPY_ALIG= 00000001  G         CLI$K_DUMP_HEXA= 00000006  G
CLI$K_APPE_CONT= 00000004  G         CLI$K_COPY_ALLO= 00000002  G         CLI$K_DUMP_LONG= 00000007  G
CLI$K_APPE_EXTE= 00000006  G         CLI$K_COPY_CONC= 00000004  G         CLI$K_DUMP_NUMB= 00000008  G
CLI$K_APPE_FILE= 00000007  G         CLI$K_COPY_CONT= 00000005  G         CLI$K_DUMP_OCTA= 00000009  G
CLI$K_APPE_LOG = 0000000B  G         CLI$K_COPY_EXTE= 00000007  G         CLI$K_DUMP_OUTP= 0000000A  G
CLI$K_APPE_MAXI= 0000000D  G         CLI$K_COPY_FILE= 00000008  G         CLI$K_DUMP_PRIN= 0000000B  G
CLI$K_APPE_NEW_= 00000008  G         CLI$K_COPY_LOG = 0000000E  G         CLI$K_DUMP_RECO= 0000000C  G
CLI$K_APPE_PROT= 00000009  G         CLI$K_COPY_MAXI= 00000011  G         CLI$K_DUMP_TERM= 0000000D  G
CLI$K_APPE_READ= 0000000A  G         CLI$K_COPY_NEW_= 00000015  G         CLI$K_DUMP_WORD= 0000000E  G
CLI$K_APPE_WRIT= 0000000C  G         CLI$K_COPY_OVER= 0000000A  G         CLI$K_EDIT_AUDI= 00000001  G
CLI$K_ASCIIVAL = 00000041  G         CLI$K_COPY_PROT= 0000000B  G         CLI$K_EDIT_DECI= 00000002  G
CLI$K_ASSI_GROU= 00000002  G         CLI$K_COPY_READ= 0000000C  G         CLI$K_EDIT_EXAC= 00000003  G
CLI$K_ASSI_MERG= 00000007  G         CLI$K_COPY_REPL= 0000000D  G         CLI$K_EDIT_EXPE= 00000004  G
CLI$K_ASSI_PROC= 00000003  G         CLI$K_COPY_RSX1= 00000014  G         CLI$K_EDIT_INCR= 00000005  G
CLI$K_ASSI_QUEU= 00000006  G         CLI$K_COPY_TRUN= 00000011  G         CLI$K_EDIT_ISAV= 00000006  G
CLI$K_ASSI_SUPE= 00000005  G         CLI$K_COPY_WRIT= 00000010  G         CLI$K_EDIT_LINE= 00000007  G
CLI$K_ASSI_SYST= 00000001  G         CLI$K_COPY_ZZZZ= 00000005  G         CLI$K_EDIT_LIST= 00000008  G
CLI$K_ASSI_USER= 00000004  G         CLI$K_CREA_DIRE= 00000001  G         CLI$K_EDIT_LOWE= 00000009  G
CLI$K_BLIS_CODE= 00000003  G         CLI$K_CREA_OWNE= 00000002  G         CLI$K_EDIT_OUTP= 0000000A  G
CLIGBL0         - DEFINE CLI QUALIFIER CODES GLOBALLY MODULE 0   21-AUG-1978 18:53:33   VAX-11 MACRO X0.3-11               Page   4
SYMBOL TABLE                                                                                                                     (2)

CLI$K_EDIT_PLIN= 0000000B  G         CLI$K_INIT_USER= 00000022  G         CLI$K_MOUN_EXTE= 00000007  G
CLI$K_EDIT_READ= 0000000C  G         CLI$K_INIT_VERI= 0000001C  G         CLI$K_MOUN_FORE= 00000008  G
CLI$K_EDIT_SAVE= 0000000D  G         CLI$K_INIT_WIND= 00000017  G         CLI$K_MOUN_GROU= 00000009  G
CLI$K_EDIT_SLP = 0000000E  G         CLI$K_INPSPEC  = 00000001  G         CLI$K_MOUN_LABE= 0000000A  G
CLI$K_EDIT_SOS = 0000000F  G         CLI$K_INPUT1   = 00000010  G         CLI$K_MOUN_OVER= 0000000B  G
CLI$K_EDIT_STAR= 00000010  G         CLI$K_INPUT2   = 00000011  G         CLI$K_MOUN_OWNE= 0000000C  G
CLI$K_EDIT_STEP= 00000011  G         CLI$K_INPUT3   = 00000012  G         CLI$K_MOUN_PROC= 0000000D  G
CLI$K_EDIT_TAB_= 00000013  G         CLI$K_INPUT4   = 00000013  G         CLI$K_MOUN_PROT= 0000000E  G
CLI$K_EDIT_TRUN= 00000012  G         CLI$K_INQU_GLOB= 00000001  G         CLI$K_MOUN_RECO= 00000017  G
CLI$K_ENDPRM1  = 00000030  G         CLI$K_INQU_LOCA= 00000002  G         CLI$K_MOUN_SHAR= 0000000F  G
CLI$K_ENDPRM2  = 00000031  G         CLI$K_KEYVAL   = 00000043  G         CLI$K_MOUN_SYST= 00000010  G
CLI$K_ENDPRM3  = 00000032  G         CLI$K_KEYWORD  = 00000042  G         CLI$K_MOUN_UNLO= 00000011  G
CLI$K_ENDPRM4  = 00000033  G         CLI$K_LINK_BRIE= 00000001  G         CLI$K_MOUN_USER= 00000012  G
CLI$K_EXAM_ASCI= 00000001  G         CLI$K_LINK_CONC= 00000012  G         CLI$K_MOUN_VISU= 00000013  G
CLI$K_EXAM_BYTE= 00000002  G         CLI$K_LINK_CONT= 00000008  G         CLI$K_MOUN_WIND= 00000014  G
CLI$K_EXAM_DECI= 00000003  G         CLI$K_LINK_CROS= 00000002  G         CLI$K_MOUN_WRIT= 00000015  G
CLI$K_EXAM_HEXA= 00000004  G         CLI$K_LINK_DEBU= 00000003  G         CLI$K_NUMERVAL = 00000040  G
CLI$K_EXAM_LONG= 00000005  G         CLI$K_LINK_DEFA= 00000013  G         CLI$K_OUTPUT1  = 00000020  G
CLI$K_EXAM_OCTA= 00000006  G         CLI$K_LINK_EXEC= 00000004  G         CLI$K_OUTPUT2  = 00000021  G
CLI$K_EXAM_WORD= 00000007  G         CLI$K_LINK_EXIT= 00000014  G         CLI$K_OUTPUT3  = 00000022  G
CLI$K_FILSPEC  = 00000044  G         CLI$K_LINK_FULL= 00000011  G         CLI$K_OUTPUT4  = 00000023  G
CLI$K_GETCMD   = 00000001  G         CLI$K_LINK_HEAD= 00000015  G         CLI$K_OUTSPEC  = 00000002  G
CLI$K_GETOPT   = 00000003  G         CLI$K_LINK_INCL= 00000005  G         CLI$K_PARDONE  = 00000003  G
CLI$K_GETQUAL  = 00000002  G         CLI$K_LINK_LIBR= 00000006  G         CLI$K_PATC_COMM= 00000001  G
CLI$K_HELP_BRIE= 00000001  G         CLI$K_LINK_MAP = 00000009  G         CLI$K_PATC_JOUR= 00000002  G
CLI$K_INITPRS  = 00000000  G         CLI$K_LINK_OPTI= 0000000A  G         CLI$K_PATC_OUTP= 00000003  G
CLI$K_INIT_ACCE= 00000001  G         CLI$K_LINK_OVER= 00000016  G         CLI$K_PATC_UPDA= 00000004  G
CLI$K_INIT_BADB= 00000002  G         CLI$K_LINK_POSI= 00000017  G         CLI$K_QDBITS     00000014  G
CLI$K_INIT_BATC= 00000003  G         CLI$K_LINK_POST= 0000001B  G         CLI$K_QUALDEF    00000014  G
CLI$K_INIT_BURS= 00000004  G         CLI$K_LINK_RSX1= 00000010  G         CLI$K_REQDESC    0000001C  G
CLI$K_INIT_CLUS= 00000019  G         CLI$K_LINK_SELE= 0000000B  G         CLI$K_UTILOPR  = 00000000  G
CLI$K_INIT_DATA= 0000001B  G         CLI$K_LINK_SEQU= 00000018  G         CLI$K_VALCONV  = 00000004  G
CLI$K_INIT_DENS= 00000005  G         CLI$K_LINK_SHAR= 00000007  G         CLI$K_WORKAREA   00000080  G
CLI$K_INIT_DIRE= 00000023  G         CLI$K_LINK_SUPR= 0000000F  G         CLI$L_CLIFLAG    00000018  G
CLI$K_INIT_DISA= 00000014  G         CLI$K_LINK_SYMB= 0000000C  G         CLI$L_INIARGCNT  00000000  G
CLI$K_INIT_EBCD= 00000020  G         CLI$K_LINK_SYSL= 0000000D  G         CLI$L_LINKFLAG   00000014  G
CLI$K_INIT_ENAB= 00000007  G         CLI$K_LINK_SYSS= 0000001C  G         CLI$L_RQVALU     0000000C  G
CLI$K_INIT_EXTE= 00000008  G         CLI$K_LINK_SYST= 0000000E  G         CLI$L_USRVAL     00000014  G
CLI$K_INIT_FILE= 00000009  G         CLI$K_LINK_TKB_= 0000001A  G         CLI$L_WORKAREA   00000000  G
CLI$K_INIT_FLAG= 0000000A  G         CLI$K_LINK_TRAC= 00000019  G         CLI$M_ABSADR   = 00000002  G
CLI$K_INIT_FORM= 0000000B  G         CLI$K_LOGO_BRIE= 00000001  G         CLI$M_ALLOCCUR = 00000001  G
CLI$K_INIT_GENE= 0000000C  G         CLI$K_LOGO_FULL= 00000002  G         CLI$M_BATCH    = 00000008  G
CLI$K_INIT_GROU= 0000001E  G         CLI$K_MACR_DISA= 00000001  G         CLI$M_CONCATINP= 00000002  G
CLI$K_INIT_HEAD= 0000000D  G         CLI$K_MACR_ENAB= 00000002  G         CLI$M_DBGEXCP  = 00010000  G
CLI$K_INIT_INDE= 0000000E  G         CLI$K_MACR_LIBR= 00000003  G         CLI$M_DBGTRU   = 00000002  G
CLI$K_INIT_JOB_= 0000000F  G         CLI$K_MACR_LIST= 00000004  G         CLI$M_DEBUG    = 00000001  G
CLI$K_INIT_MAXI= 00000018  G         CLI$K_MACR_NOSH= 00000008  G         CLI$M_DUMMY    = 00000002  G
CLI$K_INIT_OVER= 00000021  G         CLI$K_MACR_OBJE= 00000005  G         CLI$M_EXPNAM   = 00000004  G
CLI$K_INIT_OWNE= 00000010  G         CLI$K_MACR_RSX1= 00000007  G         CLI$M_INDIRECT = 00000010  G
CLI$K_INIT_PRIO= 00000011  G         CLI$K_MACR_SHOW= 00000006  G         CLI$M_KEYVALU  = 00000002  G
CLI$K_INIT_PROT= 00000012  G         CLI$K_MOUN_ACCE= 00000001  G         CLI$M_LASTVAL  = 00000001  G
CLI$K_INIT_QUEU= 00000013  G         CLI$K_MOUN_BLOC= 00000002  G         CLI$M_MOREINP  = 00000004  G
CLI$K_INIT_RECO= 0000001A  G         CLI$K_MOUN_COMM= 00000003  G         CLI$M_MOREVALS = 00000001  G
CLI$K_INIT_SHAR= 0000001D  G         CLI$K_MOUN_DATA= 00000016  G         CLI$M_PARMDEF  = 00000008  G
CLI$K_INIT_STRU= 00000006  G         CLI$K_MOUN_DENS= 00000004  G         CLI$M_PARMPRS  = 00000001  G
CLI$K_INIT_SYST= 0000001F  G         CLI$K_MOUN_DRIV= 00000005  G         CLI$M_PARMREQ  = 00000001  G
CLI$K_INIT_TERM= 00000016  G         CLI$K_MOUN_EBCD= 00000006  G         CLI$M_QDEXPA   = 00000004  G
CLIGBL0         - DEFINE CLI QUALIFIER CODES GLOBALLY MODULE 0   21-AUG-1978 18:53:33   VAX-11 MACRO X0.3-11               Page   5
SYMBOL TABLE                                                                                                                     (2)

CLI$M_QDUSRV   = 00000002  G         QUA_B_IMAGE      00000005
CLI$M_QUALEXP  = 00000002  G         QUA_B_INDEX      00000001
CLI$M_QUALTRU  = 00000001  G         QUA_B_OFFSET     00000000
CLI$M_TRMVRBLV = 00000300  G         QUA_B_PARMCNT    00000008
CLI$M_VERIFY   = 00000004  G         QUA_G_CHNGLST    00000006
CLI$M_VFYINP   = 00000020  G         QUA_M_BATDEF   = 00000100
CLI$Q_QDVALDESC  00000004  G         QUA_M_CHNGLIST = 00000001
CLI$Q_RQDESC     00000008  G         QUA_M_DEFTRUE  = 00000080
CLI$S_PRITYP   = 00000004  G         QUA_M_FILE     = 00000004
CLI$S_SUBTYP   = 00000004  G         QUA_M_IMAGE    = 00000400
CLI$S_TRMVRBLV = 00000002  G         QUA_M_INTDEF   = 00000200
CLI$V_ABSADR   = 00000001  G         QUA_M_KEYVAL   = 00004000
CLI$V_ALLOCCUR = 00000000  G         QUA_M_LOCALKEY = 00000002
CLI$V_BATCH    = 00000003  G         QUA_M_NEG      = 00000040
CLI$V_CONCATINP= 00000001  G         QUA_M_ONEVAL   = 00002000
CLI$V_DBGEXCP  = 00000010  G         QUA_M_OUTPUT   = 00000800
CLI$V_DBGTRU   = 00000001  G         QUA_M_PARM     = 00000010
CLI$V_DEBUG    = 00000000  G         QUA_M_VAL      = 00000020
CLI$V_DUMMY    = 00000001  G         QUA_M_VALREQ   = 00001000
CLI$V_EXPNAM   = 00000002  G         QUA_M_VERB     = 00000008
CLI$V_INDIRECT = 00000004  G         QUA_S_MAXPARM  = 00000004
CLI$V_KEYVALU  = 00000001  G         QUA_S_MINPARM  = 00000004
CLI$V_LASTVAL  = 00000000  G         QUA_V_BATDEF   = 00000008
CLI$V_MOREINP  = 00000002  G         QUA_V_CHNGLIST = 00000000
CLI$V_MOREVALS = 00000000  G         QUA_V_DEFTRUE  = 00000007
CLI$V_PARMDEF  = 00000003  G         QUA_V_FILE     = 00000002
CLI$V_PARMPRS  = 00000000  G         QUA_V_IMAGE    = 0000000A
CLI$V_PARMREQ  = 00000000  G         QUA_V_INTDEF   = 00000009
CLI$V_PRITYP   = 00000004  G         QUA_V_KEYVAL   = 0000000E
CLI$V_QDEXPA   = 00000002  G         QUA_V_LOCALKEY = 00000001
CLI$V_QDUSRV   = 00000001  G         QUA_V_MAXPARM  = 00000004
CLI$V_QUALEXP  = 00000001  G         QUA_V_MINPARM  = 00000000
CLI$V_QUALTRU  = 00000000  G         QUA_V_NEG      = 00000006
CLI$V_SUBTYP   = 00000000  G         QUA_V_ONEVAL   = 0000000D
CLI$V_TRMVRBLV = 00000008  G         QUA_V_OUTPUT   = 0000000B
CLI$V_VERIFY   = 00000002  G         QUA_V_PARM     = 00000004
CLI$V_VFYINP   = 00000005  G         QUA_V_VAL      = 00000005
CLI$W_QDVALSIZ   00000004  G         QUA_V_VALREQ   = 0000000C
CLI$W_RQSIZE     00000008  G         QUA_V_VERB     = 00000003
CLI$W_SERVCOD    00000001  G         QUA_W_FLAGS      00000003
GBL...         = 00000000            QUA_W_PROMPT     00000009
PRO_B_FLAGS      00000001            QUA_W_QUALIST    00000006
PRO_B_PROMPT     00000000
PRO_K_LENGTH     00000002
PRO_M_CONCAT   = 00000001
PRO_M_IMPCAT   = 00000002
PRO_M_LIST     = 00000004
PRO_M_OPTION   = 00000008
PRO_M_REQ      = 00000010
PRO_M_STRING   = 00000020
PRO_V_CONCAT   = 00000000
PRO_V_IMPCAT   = 00000001
PRO_V_LIST     = 00000002
PRO_V_OPTION   = 00000003
PRO_V_REQ      = 00000004
PRO_V_STRING   = 00000005
QUA_B_DEFVAL     00000002
CLIGBL0         - DEFINE CLI QUALIFIER CODES GLOBALLY MODULE 0   21-AUG-1978 18:53:33   VAX-11 MACRO X0.3-11               Page   6
PROGRAM SECTION SYNOPSIS                                                                                                         (2)


PROGRAM SECTION SYNOPSIS

.  ABS  .        00000000      00     NOPIC   USR   CON   ABS   LCL NOSHR NOEXE NORD  NOWRT BYTE
. BLANK .        00000000      01     NOPIC   USR   CON   REL   LCL NOSHR   EXE   RD    WRT BYTE
$ABS$            00000080      02     NOPIC   USR   CON   ABS   LCL NOSHR   EXE   RD    WRT BYTE


THERE WERE NO ERRORS OR WARNINGS.
1934. BYTES LEFT IN FREE MEMORY POOL.
11462. BYTES OF RECLAIMED MEMORY.
OBJ$:CLIGBL0,LIS$:CLIGBL0/-SP=EXECML$/ML,LIB$:CLIUTL/ML,SRC$:CLIGBL0
84 MLB DIR RDS - 818 GETS TO DEFINE 41 MACROS. 48 INTER. FILE WRITES.
