CLIGBL1         - DEFINE CLI QUALIFIER CODES GLOBALLY MODULE 1   21-AUG-1978 18:54:40   VAX-11 MACRO X0.3-11               Page   0
TABLE OF CONTENTS

   (2)      40  DECLARATIONS
CLIGBL1         - DEFINE CLI QUALIFIER CODES GLOBALLY MODULE 1   21-AUG-1978 18:54:40   VAX-11 MACRO X0.3-11               Page   1
V01                                                                                                                              (1)

                                     0000     1 	.TITLE	CLIGBL1 - DEFINE CLI QUALIFIER CODES GLOBALLY MODULE 1
                                     0000     2 	.IDENT	/V01/
                                     0000     3
                                     0000     4 ;
                                     0000     5 ; COPYRIGHT (C) 1977
                                     0000     6 ; DIGITAL EQUIPMENT CORPORATION, MAYNARD, MASSACHUSETTS 01754
                                     0000     7 ;
                                     0000     8 ; THIS SOFTWARE IS FURNISHED  UNDER A LICENSE FOR USE ONLY ON A SINGLE
                                     0000     9 ; COMPUTER  SYSTEM AND  MAY BE  COPIED ONLY WITH  THE INCLUSION OF THE
                                     0000    10 ; ABOVE COPYRIGHT NOTICE.  THIS SOFTWARE, OR ANY OTHER COPIES THEREOF,
                                     0000    11 ; MAY NOT BE PROVIDED OR  OTHERWISE MADE AVAILABLE TO ANY OTHER PERSON
                                     0000    12 ; EXCEPT FOR USE ON SUCH SYSTEM AND TO ONE WHO AGREES TO THESE LICENSE
                                     0000    13 ; TERMS.  TITLE TO AND  OWNERSHIP OF THE  SOFTWARE  SHALL AT ALL TIMES
                                     0000    14 ; REMAIN IN DEC.
                                     0000    15 ;
                                     0000    16 ; THE INFORMATION IN THIS SOFTWARE IS SUBJECT TO CHANGE WITHOUT NOTICE
                                     0000    17 ; AND SHOULD  NOT BE CONSTRUED  AS A COMMITMENT  BY DIGITAL  EQUIPMENT
                                     0000    18 ; CORPORATION.
                                     0000    19 ;
                                     0000    20 ; DEC ASSUMES  NO  RESPONSIBILITY  FOR  THE USE OR  RELIABILITY OF ITS
                                     0000    21 ; SOFTWARE ON EQUIPMENT WHICH IS NOT SUPPLIED BY DEC.
                                     0000    22 ;
                                     0000    23
                                     0000    24 ;++
                                     0000    25 ; FACILITY:	STARLET CLI
                                     0000    26 ;
                                     0000    27 ; ABSTRACT:	GLOBAL VALUES FOR QUALIFER CODES
                                     0000    28 ;
                                     0000    29 ;
                                     0000    30 ; ENVIRONMENT:	NONE
                                     0000    31 ;
                                     0000    32 ; AUTHOR:	W.H.BROWN, CREATION DATE: 5-MAY-77
                                     0000    33 ;
                                     0000    34 ; MODIFIED BY:
                                     0000    35 ;
                                     0000    36 ;	, : VERSION
                                     0000    37 ; 01	-
                                     0000    38 ;--
CLIGBL1         - DEFINE CLI QUALIFIER CODES GLOBALLY MODULE 1   21-AUG-1978 18:54:40   VAX-11 MACRO X0.3-11               Page   2
V01             DECLARATIONS                                                                                                     (2)

                                     0000    40 	.SBTTL	DECLARATIONS
                                     0000    41 ;
                                     0000    42 ; INCLUDE FILES:
                                     0000    43 ;
                                     0000    44 ;	[241,10]C.MLB
                                     0000    45
                                     0000    46 ;
                                     0000    47 ; MACROS:
                                     0000    48 ;
                                     0000    49
                                     0000    50 ;
                                     0000    51 ; EQUATED SYMBOLS:
                                     0000    52 ;
                                     0000    53
                                     0000    54
                                     0000    55 	$CLIVERBDEF	GLOBAL
                                     0000    56 	.MACRO	$CLIVERBDEF
                                     0000    57 	.ENDM
                                     0000    58 	$CLIDEFQUALTYPE	GLOBAL=YES
                                     0000    59 	$CLIDEFQUALSYNC GLOBAL=YES
                                     0000    60 	$CLIDEFQUALSUBM	GLOBAL=YES
                                     0000    61 	$CLIDEFQUALSHOW	GLOBAL=YES
                                     0000    62 	$CLIDEFQUALSTOP	GLOBAL=YES
                                     0000    63 	$CLIDEFQUALSTAR	GLOBAL=YES
                                     0000    64 	$CLIDEFQUALSET	GLOBAL=YES
                                     0000    65 	$CLIDEFQUALSORT	GLOBAL=YES
                                     0000    66 	$CLIDEFQUALRUN	GLOBAL=YES
                                     0000    67 	$CLIDEFQUALREPL	GLOBAL=YES
                                     0000    68 	$CLIDEFQUALRENA	GLOBAL=YES
                                     0000    69 	$CLIDEFQUALPURG GLOBAL=YES
                                     0000    70
                                     0000    71 ;
                                     0000    72 ; OWN STORAGE:
                                     0000    73 ;
                                     0000    74 	.END
CLIGBL1         - DEFINE CLI QUALIFIER CODES GLOBALLY MODULE 1   21-AUG-1978 18:54:40   VAX-11 MACRO X0.3-11               Page   3
SYMBOL TABLE                                                                                                                     (2)

$$$            = 00000004            CLI$K_SET_PROT = 0000000B  G         CLI$K_SORT_KEY = 00000002  G
$$$GBL         = 00000001            CLI$K_SET_QUEU = 0000000C  G         CLI$K_SORT_OVER= 00000010  G
$QUALNUM$      = 00000003            CLI$K_SET_RMS_ = 00000011  G         CLI$K_SORT_PROC= 00000001  G
BIT...         = 00000008            CLI$K_SET_TERM = 0000000D  G         CLI$K_SORT_RELA= 0000000E  G
CLI$K_PURG_KEEP= 00000001  G         CLI$K_SET_UIC  = 0000000E  G         CLI$K_SORT_RSX1= 00000006  G
CLI$K_PURG_LOG = 00000002  G         CLI$K_SET_VERI = 0000000F  G         CLI$K_SORT_SEQU= 0000000F  G
CLI$K_RENA_NEW_= 00000001  G         CLI$K_SET_WORK = 00000010  G         CLI$K_SORT_SPEC= 00000005  G
CLI$K_REPL_ABOR= 00000001  G         CLI$K_SHDV_ALLO= 00000001  G         CLI$K_SORT_WORK= 00000004  G
CLI$K_REPL_ALL = 00000002  G         CLI$K_SHDV_BRIE= 00000002  G         CLI$K_STAC_DISA= 00000001  G
CLI$K_REPL_BELL= 0000000A  G         CLI$K_SHDV_FULL= 00000003  G         CLI$K_STAC_ENAB= 00000002  G
CLI$K_REPL_DISA= 00000004  G         CLI$K_SHDV_MOUN= 00000004  G         CLI$K_STAC_NEW_= 00000003  G
CLI$K_REPL_ENAB= 00000003  G         CLI$K_SHLG_ALL = 00000004  G         CLI$K_STAR_BACK= 00000001  G
CLI$K_REPL_LOG = 00000005  G         CLI$K_SHLG_GROU= 00000002  G         CLI$K_STAR_BATC= 00000002  G
CLI$K_REPL_PEND= 00000006  G         CLI$K_SHLG_PROC= 00000003  G         CLI$K_STAR_BURS= 00000003  G
CLI$K_REPL_STAT= 0000000B  G         CLI$K_SHLG_SYST= 00000001  G         CLI$K_STAR_DISA= 00000004  G
CLI$K_REPL_TERM= 00000007  G         CLI$K_SHOW_DAYT= 00000001  G         CLI$K_STAR_ENAB= 00000005  G
CLI$K_REPL_TO  = 00000008  G         CLI$K_SHOW_DEFA= 00000003  G         CLI$K_STAR_FLAG= 00000006  G
CLI$K_REPL_USER= 00000009  G         CLI$K_SHOW_DEVI= 0000000A  G         CLI$K_STAR_FORM= 00000007  G
CLI$K_RUN_ACCO = 0000000E  G         CLI$K_SHOW_LOGI= 00000004  G         CLI$K_STAR_FORW= 00000008  G
CLI$K_RUN_AST_ = 0000001A  G         CLI$K_SHOW_MAGT= 00000012  G         CLI$K_STAR_GENE= 00000009  G
CLI$K_RUN_AUTH = 00000018  G         CLI$K_SHOW_NETW= 00000010  G         CLI$K_STAR_JOB_= 0000000A  G
CLI$K_RUN_BUFF = 0000000F  G         CLI$K_SHOW_PRIN= 0000000F  G         CLI$K_STAR_NEXT= 0000000B  G
CLI$K_RUN_DEBU = 00000017  G         CLI$K_SHOW_PROC= 0000000C  G         CLI$K_STAR_PRIO= 0000000C  G
CLI$K_RUN_DELA = 00000001  G         CLI$K_SHOW_PROT= 00000005  G         CLI$K_STAR_QUEU= 0000000D  G
CLI$K_RUN_ERRO = 00000002  G         CLI$K_SHOW_QUEU= 00000006  G         CLI$K_STAR_TERM= 0000000E  G
CLI$K_RUN_FILE = 00000011  G         CLI$K_SHOW_RMS_= 00000011  G         CLI$K_STAR_TOP_= 0000000F  G
CLI$K_RUN_INPU = 00000003  G         CLI$K_SHOW_STAT= 0000000B  G         CLI$K_STCR_026 = 00000001  G
CLI$K_RUN_INTE = 00000004  G         CLI$K_SHOW_SYMB= 00000007  G         CLI$K_STCR_029 = 00000002  G
CLI$K_RUN_IO_B = 0000001B  G         CLI$K_SHOW_SYST= 0000000D  G         CLI$K_STDV_ERRO= 00000002  G
CLI$K_RUN_IO_D = 0000001C  G         CLI$K_SHOW_TERM= 0000000E  G         CLI$K_STDV_SPOO= 00000001  G
CLI$K_RUN_MAIL = 00000019  G         CLI$K_SHOW_TIME= 00000002  G         CLI$K_STLG_INTE= 00000001  G
CLI$K_RUN_MAXI = 00000015  G         CLI$K_SHOW_TRAN= 00000008  G         CLI$K_STLP_CR  = 00000001  G
CLI$K_RUN_OUTP = 00000005  G         CLI$K_SHOW_WORK= 00000009  G         CLI$K_STLP_FF  = 00000002  G
CLI$K_RUN_PAGE = 00000012  G         CLI$K_SHPR_ACCO= 00000002  G         CLI$K_STLP_LA11= 00000005  G
CLI$K_RUN_PRIO = 00000006  G         CLI$K_SHPR_ALL = 00000005  G         CLI$K_STLP_LA18= 00000006  G
CLI$K_RUN_PRIV = 00000007  G         CLI$K_SHPR_PRIV= 00000003  G         CLI$K_STLP_LOWE= 00000004  G
CLI$K_RUN_PROC = 00000008  G         CLI$K_SHPR_QUOT= 00000001  G         CLI$K_STLP_LP11= 00000007  G
CLI$K_RUN_QUEU = 00000013  G         CLI$K_SHPR_SUBP= 00000004  G         CLI$K_STLP_PAGE= 00000008  G
CLI$K_RUN_RESO = 00000009  G         CLI$K_SHQU_ALL = 00000001  G         CLI$K_STLP_UNKN= 00000009  G
CLI$K_RUN_SCHE = 0000000A  G         CLI$K_SHQU_BATC= 00000002  G         CLI$K_STLP_UPPE= 00000003  G
CLI$K_RUN_SERV = 0000000B  G         CLI$K_SHQU_BRIE= 00000003  G         CLI$K_STLP_WIDT= 0000000A  G
CLI$K_RUN_SUBP = 00000014  G         CLI$K_SHQU_DEVI= 00000004  G         CLI$K_STMT_DENS= 00000001  G
CLI$K_RUN_SWAP = 0000000C  G         CLI$K_SHQU_ENTR= 00000005  G         CLI$K_STMT_REWI= 00000002  G
CLI$K_RUN_TIME = 00000010  G         CLI$K_SHQU_FULL= 00000006  G         CLI$K_STMT_UNLO= 00000003  G
CLI$K_RUN_UIC  = 0000000D  G         CLI$K_SHSS_PROC= 00000001  G         CLI$K_STOP_ABOR= 00000002  G
CLI$K_RUN_WORK = 00000016  G         CLI$K_SHSY_ALL = 00000003  G         CLI$K_STOP_ENTR= 00000006  G
CLI$K_SET_ACCO = 00000001  G         CLI$K_SHSY_GLOB= 00000001  G         CLI$K_STOP_IDEN= 00000004  G
CLI$K_SET_CARD = 00000002  G         CLI$K_SHSY_LOCA= 00000002  G         CLI$K_STOP_NEXT= 00000003  G
CLI$K_SET_CONT = 00000012  G         CLI$K_SHTE_PERM= 00000001  G         CLI$K_STOP_QUEU= 00000001  G
CLI$K_SET_DEFA = 00000004  G         CLI$K_SORT_ALLO= 00000009  G         CLI$K_STOP_REQU= 00000005  G
CLI$K_SET_DEVI = 00000003  G         CLI$K_SORT_BLOC= 0000000A  G         CLI$K_STPC_IDEN= 00000001  G
CLI$K_SET_LOGI = 00000005  G         CLI$K_SORT_BUCK= 00000008  G         CLI$K_STPC_PRIO= 00000002  G
CLI$K_SET_MAGT = 00000006  G         CLI$K_SORT_CONT= 0000000B  G         CLI$K_STPC_RESO= 00000003  G
CLI$K_SET_ON   = 00000007  G         CLI$K_SORT_DEVI= 0000000C  G         CLI$K_STPC_SWAP= 00000004  G
CLI$K_SET_PASS = 00000008  G         CLI$K_SORT_DUPL= 00000003  G         CLI$K_STPR_DEFA= 00000001  G
CLI$K_SET_PRIN = 00000009  G         CLI$K_SORT_FORM= 00000007  G         CLI$K_STPR_DEVI= 00000003  G
CLI$K_SET_PROC = 0000000A  G         CLI$K_SORT_INDE= 0000000D  G         CLI$K_STPR_OWNE= 00000004  G
CLIGBL1         - DEFINE CLI QUALIFIER CODES GLOBALLY MODULE 1   21-AUG-1978 18:54:40   VAX-11 MACRO X0.3-11               Page   4
SYMBOL TABLE                                                                                                                     (2)

CLI$K_STPR_PROT= 00000002  G         CLI$K_SUBM_DELE= 00000004  G         CLI$K_VERB_MCR = 00000021  G
CLI$K_STQE_AFTE= 00000001  G         CLI$K_SUBM_DEVI= 00000005  G         CLI$K_VERB_MOUN= 0000002B  G
CLI$K_STQE_ENTR= 00000003  G         CLI$K_SUBM_FEED= 00000013  G         CLI$K_VERB_ON  = 00000022  G
CLI$K_STQE_FORM= 00000004  G         CLI$K_SUBM_FLAG= 00000006  G         CLI$K_VERB_PATC= 0000002C  G
CLI$K_STQE_HOLD= 00000005  G         CLI$K_SUBM_FORM= 00000007  G         CLI$K_VERB_PRIN= 00000023  G
CLI$K_STQE_JOB_= 00000002  G         CLI$K_SUBM_HEAD= 00000008  G         CLI$K_VERB_PURG= 00000031  G
CLI$K_STQE_LOWE= 00000006  G         CLI$K_SUBM_HOLD= 00000009  G         CLI$K_VERB_RENA= 00000032  G
CLI$K_STQE_NAME= 00000007  G         CLI$K_SUBM_IDEN= 0000000A  G         CLI$K_VERB_REPL= 0000002D  G
CLI$K_STQE_PRIO= 00000008  G         CLI$K_SUBM_JOB_= 0000000B  G         CLI$K_VERB_REQU= 00000036  G
CLI$K_STQE_RELE= 00000009  G         CLI$K_SUBM_LOWE= 0000000D  G         CLI$K_VERB_RUN = 00000024  G
CLI$K_STRM_BLOC= 00000001  G         CLI$K_SUBM_NAME= 0000000C  G         CLI$K_VERB_SET = 00000025  G
CLI$K_STRM_BUFF= 00000002  G         CLI$K_SUBM_PAGE= 0000000E  G         CLI$K_VERB_SHOW= 00000026  G
CLI$K_STRM_DISK= 00000003  G         CLI$K_SUBM_PARA= 0000000F  G         CLI$K_VERB_SORT= 00000035  G
CLI$K_STRM_HASH= 00000006  G         CLI$K_SUBM_PRIO= 00000010  G         CLI$K_VERB_STAR= 00000027  G
CLI$K_STRM_INDE= 00000007  G         CLI$K_SUBM_QUEU= 00000011  G         CLI$K_VERB_STOP= 00000028  G
CLI$K_STRM_MAGT= 00000004  G         CLI$K_SUBM_REMO= 00000014  G         CLI$K_VERB_SUBM= 00000029  G
CLI$K_STRM_RELA= 00000008  G         CLI$K_SUBM_SPAC= 00000012  G         CLI$K_VERB_SYNC= 00000037  G
CLI$K_STRM_SEQU= 00000009  G         CLI$K_SYNC_ENTR= 00000001  G         CLI$K_VERB_TYPE= 0000002A  G
CLI$K_STRM_SYST= 0000000A  G         CLI$K_SYNC_QUEU= 00000002  G         CLI$K_VERB_UNLO= 0000002E  G
CLI$K_STRM_UNIT= 00000005  G         CLI$K_TYPE_OUTP= 00000001  G         GBL...         = 00000000
CLI$K_STTT_BROA= 00000001  G         CLI$K_VERB_ALLO= 00000001  G         PRO_B_FLAGS      00000001
CLI$K_STTT_CRFI= 00000002  G         CLI$K_VERB_ANAL= 00000002  G         PRO_B_PROMPT     00000000
CLI$K_STTT_ECHO= 00000003  G         CLI$K_VERB_APPE= 0000002F  G         PRO_K_LENGTH     00000002
CLI$K_STTT_EIGH= 00000004  G         CLI$K_VERB_ASSI= 00000003  G         PRO_M_CONCAT   = 00000001
CLI$K_STTT_ESCA= 00000005  G         CLI$K_VERB_BASI= 00000004  G         PRO_M_IMPCAT   = 00000002
CLI$K_STTT_HARD= 00000006  G         CLI$K_VERB_BLIS= 00000005  G         PRO_M_LIST     = 00000004
CLI$K_STTT_HOLD= 00000007  G         CLI$K_VERB_CANC= 00000033  G         PRO_M_OPTION   = 00000008
CLI$K_STTT_HOST= 00000008  G         CLI$K_VERB_COBO= 00000006  G         PRO_M_REQ      = 00000010
CLI$K_STTT_INTE= 00000009  G         CLI$K_VERB_CONT= 00000007  G         PRO_M_STRING   = 00000020
CLI$K_STTT_LA36= 0000000A  G         CLI$K_VERB_COPY= 00000008  G         PRO_V_CONCAT   = 00000000
CLI$K_STTT_LFFI= 0000000B  G         CLI$K_VERB_CREA= 00000009  G         PRO_V_IMPCAT   = 00000001
CLI$K_STTT_LOCA= 0000000C  G         CLI$K_VERB_DATA= 0000000A  G         PRO_V_LIST     = 00000002
CLI$K_STTT_LOWE= 0000000D  G         CLI$K_VERB_DEAL= 0000000B  G         PRO_V_OPTION   = 00000003
CLI$K_STTT_PAGE= 0000000E  G         CLI$K_VERB_DEAS= 0000000C  G         PRO_V_REQ      = 00000004
CLI$K_STTT_PARI= 0000001E  G         CLI$K_VERB_DEBU= 0000000D  G         PRO_V_STRING   = 00000005
CLI$K_STTT_PASS= 0000000F  G         CLI$K_VERB_DEFI= 0000000E  G         QUA_B_DEFVAL     00000002
CLI$K_STTT_PERM= 00000020  G         CLI$K_VERB_DELE= 0000000F  G         QUA_B_IMAGE      00000005
CLI$K_STTT_READ= 0000001F  G         CLI$K_VERB_DEPO= 00000010  G         QUA_B_INDEX      00000001
CLI$K_STTT_REMO= 00000010  G         CLI$K_VERB_DIFF= 00000011  G         QUA_B_OFFSET     00000000
CLI$K_STTT_SCOP= 00000011  G         CLI$K_VERB_DIRE= 00000012  G         QUA_B_PARMCNT    00000008
CLI$K_STTT_SCRI= 00000012  G         CLI$K_VERB_DISM= 00000013  G         QUA_G_CHNGLST    00000006
CLI$K_STTT_SPEE= 00000013  G         CLI$K_VERB_DUMP= 00000030  G         QUA_M_BATDEF   = 00000100
CLI$K_STTT_TAB = 00000014  G         CLI$K_VERB_EDIT= 00000014  G         QUA_M_CHNGLIST = 00000001
CLI$K_STTT_TTSY= 00000015  G         CLI$K_VERB_EOD = 00000015  G         QUA_M_DEFTRUE  = 00000080
CLI$K_STTT_TYPE= 00000016  G         CLI$K_VERB_EXAM= 00000016  G         QUA_M_FILE     = 00000004
CLI$K_STTT_UNKN= 00000017  G         CLI$K_VERB_EXIT= 00000017  G         QUA_M_IMAGE    = 00000400
CLI$K_STTT_UPPE= 00000018  G         CLI$K_VERB_FORE= 000000FF  G         QUA_M_INTDEF   = 00000200
CLI$K_STTT_VT05= 00000019  G         CLI$K_VERB_FORT= 00000018  G         QUA_M_KEYVAL   = 00004000
CLI$K_STTT_VT52= 0000001A  G         CLI$K_VERB_GOTO= 00000019  G         QUA_M_LOCALKEY = 00000002
CLI$K_STTT_VT55= 0000001B  G         CLI$K_VERB_HELP= 0000001A  G         QUA_M_NEG      = 00000040
CLI$K_STTT_WIDT= 0000001C  G         CLI$K_VERB_IF  = 0000001B  G         QUA_M_ONEVAL   = 00002000
CLI$K_STTT_WRAP= 0000001D  G         CLI$K_VERB_INIT= 0000001C  G         QUA_M_OUTPUT   = 00000800
CLI$K_STWR_LIMI= 00000001  G         CLI$K_VERB_INQU= 0000001D  G         QUA_M_PARM     = 00000010
CLI$K_STWR_QUOT= 00000002  G         CLI$K_VERB_LIBR= 00000034  G         QUA_M_VAL      = 00000020
CLI$K_SUBM_AFTE= 00000001  G         CLI$K_VERB_LINK= 0000001E  G         QUA_M_VALREQ   = 00001000
CLI$K_SUBM_BURS= 00000002  G         CLI$K_VERB_LOGO= 0000001F  G         QUA_M_VERB     = 00000008
CLI$K_SUBM_COPI= 00000003  G         CLI$K_VERB_MACR= 00000020  G         QUA_S_MAXPARM  = 00000004
CLIGBL1         - DEFINE CLI QUALIFIER CODES GLOBALLY MODULE 1   21-AUG-1978 18:54:40   VAX-11 MACRO X0.3-11               Page   5
SYMBOL TABLE                                                                                                                     (2)

QUA_S_MINPARM  = 00000004
QUA_V_BATDEF   = 00000008
QUA_V_CHNGLIST = 00000000
QUA_V_DEFTRUE  = 00000007
QUA_V_FILE     = 00000002
QUA_V_IMAGE    = 0000000A
QUA_V_INTDEF   = 00000009
QUA_V_KEYVAL   = 0000000E
QUA_V_LOCALKEY = 00000001
QUA_V_MAXPARM  = 00000004
QUA_V_MINPARM  = 00000000
QUA_V_NEG      = 00000006
QUA_V_ONEVAL   = 0000000D
QUA_V_OUTPUT   = 0000000B
QUA_V_PARM     = 00000004
QUA_V_VAL      = 00000005
QUA_V_VALREQ   = 0000000C
QUA_V_VERB     = 00000003
QUA_W_FLAGS      00000003
QUA_W_PROMPT     00000009
QUA_W_QUALIST    00000006


PROGRAM SECTION SYNOPSIS

.  ABS  .        00000000      00     NOPIC   USR   CON   ABS   LCL NOSHR NOEXE NORD  NOWRT BYTE
. BLANK .        00000000      01     NOPIC   USR   CON   REL   LCL NOSHR   EXE   RD    WRT BYTE
$ABS$            0000000B      02     NOPIC   USR   CON   ABS   LCL NOSHR   EXE   RD    WRT BYTE


THERE WERE NO ERRORS OR WARNINGS.
7148. BYTES LEFT IN FREE MEMORY POOL.
8628. BYTES OF RECLAIMED MEMORY.
OBJ$:CLIGBL1,LIS$:CLIGBL1/-SP=EXECML$/ML,LIB$:CLIUTL/ML,SRC$:CLIGBL1
56 MLB DIR RDS - 655 GETS TO DEFINE 27 MACROS. 40 INTER. FILE WRITES.
