CNVCLIATB       - CONVERT ASCII TO BINARY                        21-AUG-1978 18:56:10   VAX-11 MACRO X0.3-11               Page   0
TABLE OF CONTENTS

   (1)      40  DECLARATIONS
   (1)      57  CNVCLIATB - CONVERT ASCII TO SINGLE-PRECISION B
CNVCLIATB       - CONVERT ASCII TO BINARY                        21-AUG-1978 18:56:10   VAX-11 MACRO X0.3-11               Page   1
00.1                                                                                                                             (1)

                                     0000     1 	.TITLE	CNVCLIATB - CONVERT ASCII TO BINARY
                                     0000     2 	.IDENT	/00.1/
                                     0000     3
                                     0000     4 ;
                                     0000     5 ;			  COPYRIGHT (c) 1977 BY
                                     0000     6 ;	      DIGITAL EQUIPMENT CORPORATION, MAYNARD, MASS.
                                     0000     7 ;
                                     0000     8 ; THIS SOFTWARE IS FURNISHED UNDER A LICENSE AND MAY BE USED AND  COPIED
                                     0000     9 ; ONLY  IN  ACCORDANCE  WITH  THE  TERMS  OF  SUCH  LICENSE AND WITH THE
                                     0000    10 ; INCLUSION OF THE ABOVE COPYRIGHT NOTICE.  THIS SOFTWARE OR  ANY  OTHER
                                     0000    11 ; COPIES  THEREOF MAY NOT BE PROVIDED OR OTHERWISE MADE AVAILABLE TO ANY
                                     0000    12 ; OTHER PERSON.  NO TITLE TO AND OWNERSHIP OF  THE  SOFTWARE  IS  HEREBY
                                     0000    13 ; TRANSFERRED.
                                     0000    14 ;
                                     0000    15 ; THE INFORMATION IN THIS SOFTWARE IS SUBJECT TO CHANGE  WITHOUT  NOTICE
                                     0000    16 ; AND  SHOULD  NOT  BE  CONSTRUED  AS  A COMMITMENT BY DIGITAL EQUIPMENT
                                     0000    17 ; CORPORATION.
                                     0000    18 ;
                                     0000    19 ; DIGITAL ASSUMES NO RESPONSIBILITY FOR THE USE OR  RELIABILITY  OF  ITS
                                     0000    20 ; SOFTWARE ON EQUIPMENT WHICH IS NOT SUPPLIED BY DIGITAL.
                                     0000    21 ;
                                     0000    22 ;++
                                     0000    23 ; FACILITY: COMMAND LANGUAGE INTERPRETER UTILITIES
                                     0000    24 ;
                                     0000    25 ; ABSTRACT:
                                     0000    26 ;
                                     0000    27 ; THIS SUBROUTINE CONVERTS AN UNSIGNED ASCII NUMERIC STRING TO
                                     0000    28 ; AN UNSIGNED, SINGLE PRECISION VALUE.
                                     0000    29 ;
                                     0000    30 ; ENVIRONMENT: USER MODE
                                     0000    31 ;
                                     0000    32 ; AUTHOR: C. A. MONIA	, CREATION DATE: 15-AUG-1977
                                     0000    33 ;
                                     0000    34 ; MODIFIED BY:
                                     0000    35 ;
                                     0000    36 ;	, : VERSION
                                     0000    37 ; 01	-
                                     0000    38 ;--
CNVCLIATB       - CONVERT ASCII TO BINARY                        21-AUG-1978 18:56:10   VAX-11 MACRO X0.3-11               Page   2
00.1            DECLARATIONS                                                                                                     (1)

                                     0000    40 	.SBTTL	DECLARATIONS
                                     0000    41 ;
                                     0000    42 ; INCLUDE FILES:
                                     0000    43 ;
                                     0000    44
                                     0000    45 	$CLIMSGDEF			; DEFINE CLI STATUS VALUES
                                     0000    46
                                     0000    47 ;
                                     0000    48 ; OWN STORAGE:
                                     0000    49 ;
                                     0000    50 ; ASCII TO BINARY CONVERSION TABLE
                                     0000    51 ;
                                     0000    52
                                 00000000    53 	.PSECT	_LIB$CODE,RD,NOWRT
                                     0000    54
42 41 39 38 37 36 35 34 33 32 31 30  0000    55 CVTABL:	.ASCII	/0123456789ABCDEF/	; ALL LEGAL NUMERICS
                        46 45 44 43  000C
CNVCLIATB       - CONVERT ASCII TO BINARY                        21-AUG-1978 18:56:10   VAX-11 MACRO X0.3-11               Page   3
00.1            CNVCLIATB - CONVERT ASCII TO SINGLE-PRECISION B                                                                  (1)

                                     0010    57 	.SBTTL	CNVCLIATB - CONVERT ASCII TO SINGLE-PRECISION BINARY
                                     0010    58
                                     0010    59 ;++
                                     0010    60 ; FUNCTIONAL DESCRIPTION:
                                     0010    61 ;
                                     0010    62 ; THIS SUBROUTINE CONVERTS AN ASCII STRING TO A SINGLE PRECISION
                                     0010    63 ; BINARY VALUE. THE STRING IS CONSIDERED AS AN UNSIGNED VALUE.
                                     0010    64 ;
                                     0010    65 ; THE CONVERSION RADIX IS ONE OF THE FOLLOWING:
                                     0010    66 ;
                                     0010    67 ;	LIB$CVTCLIDTB - CONVERT DECIMAL TO BINARY
                                     0010    68 ;	LIB$CVTCLIOTB - CONVERT OCTAL TO BINARY
                                     0010    69 ;	LIB$CVTCLIHTB - CONVERT HEXADECIMAL TO BINARY
                                     0010    70 ;
                                     0010    71 ; CALLING SEQUENCE:
                                     0010    72 ;
                                     0010    73 ;	JSB	LIB$CVTCLIXXX
                                     0010    74 ;
                                     0010    75 ; INPUT PARAMETERS:
                                     0010    76 ;
                                     0010    77 ;	R2,R3 = DESCRIPTOR FOR STRING TO BE CONVERTED
                                     0010    78 ;
                                     0010    79 ; IMPLICIT INPUTS:
                                     0010    80 ;
                                     0010    81 ;	NONE
                                     0010    82 ;
                                     0010    83 ; OUTPUT PARAMETERS:
                                     0010    84 ;
                                     0010    85 ;	R0 = CLI$_NORMAL, SUCCESS:
                                     0010    86 ;
                                     0010    87 ;		R1 CONTAINS THE DOUBLE PRECISION RESULT
                                     0010    88 ;
                                     0010    89 ;	R0 = CLI$_IVCHAR, INVALID NUMERIC CHARACTER FOUND
                                     0010    90 ;	R0 = CLI$_IVVALU, VALUE EXCEEDS A SINGLE PRECISION INTEGER
                                     0010    91 ;
                                     0010    92 ; IMPLICIT OUTPUTS:
                                     0010    93 ;
                                     0010    94 ;	R3 = ADDRESS OF BYTE FOLLOWING LAST CHARACTER OR ONE BYTE
                                     0010    95 ;	     PAST AN INVALID CHARACTER
                                     0010    96 ;
                                     0010    97 ; COMPLETION CODES:
                                     0010    98 ;
                                     0010    99 ;	SEE ABOVE
                                     0010   100 ;
                                     0010   101 ; SIDE EFFECTS:
                                     0010   102 ;
                                     0010   103 ;	R2 IS DESTROYED
                                     0010   104 ;
                                     0010   105 ;--
                                     0010   106
                                     0010   107 	.ENABL	LSB
                                     0010   108
                                     0010   109 LIB$CVTCLIDTB::				;
            50            0A     D0  0010   110 	MOVL	#10,R0			; GET RADIX
                          08     11  0013   111 	BRB	10$			;
                                     0015   112 LIB$CVTCLIOTB::				;
            50            08     D0  0015   113 	MOVL	#8,R0			; GET RADIX
CNVCLIATB       - CONVERT ASCII TO BINARY                        21-AUG-1978 18:56:10   VAX-11 MACRO X0.3-11               Page   4
00.1            CNVCLIATB - CONVERT ASCII TO SINGLE-PRECISION B                                                                  (1)

                          03     11  0018   114 	BRB	10$			;
                                     001A   115 LIB$CVTCLIHTB::				;
            50            10     D0  001A   116 	MOVL	#16,R0			; GET RADIX
                                     001D   117 10$:					;
                     0071 8F     BB  001D   118 	PUSHR	#^M<R0,R4,R5,R6>	; SAVE REGISTERS AND RADIX
                          55     D4  0021   119 	CLRL	R5			; CLEAR RESULT
                                     0023   120 20$:					;
            54   00030001 8F     D0  0023   121 	MOVL	#CLI$_NORMAL,R4		; ASSUME SUCCESS
                          52     B7  002A   122 	DECW	R2			; DECREMENT BYTE COUNT
                          2D     1F  002C   123 	BLSSU	30$			; IF LSSU DONE
            54   00038050 8F     D0  002E   124 	MOVL	#CLI$_IVCHAR,R4		; ASSUME INVALID CHARACTER
            50            83     9A  0035   125 	MOVZBL	(R3)+,R0		; GET NEXT CHARACTER
            50            06     E1  0038   126 	BBC	#6,R0,25$		; BRANCH IF 0 - 9
                          04         003B
            50            05     E5  003C   127 	BBCC	#5,R0,25$		; CONVERT TO UPPER CASE ALPHA
                          00         003F
                                     0040   128 25$:					;
            6E            50     3A  0040   129 	LOCC	R0,(SP),CVTABL		; SEARCH FOR NUMERIC CHARACTER
                       BB AF         0043
                          14     13  0045   130 	BEQL	30$			; IF EQL INVALID CHARACTER
            6E            50     C3  0047   131 	SUBL3	R0,(SP),R0		; CONVERT INDEX TO NUMBER
                          50         004A
            54   00038088 8F     D0  004B   132 	MOVL	#CLI$_IVVALU,R4		; ASSUME OVERFLOW
            6E            55     7A  0052   133 	EMUL	R5,(SP),R0,R5		;  COMPUTE BINARY VALUE
            55            50         0055
                          56     D5  0057   134 	TSTL	R6			; TEST FOR OVERFLOW
                          C8     13  0059   135 	BEQL	20$			; IF EQL CONTINUE
                                     005B   136 30$:					;
            50            54     7D  005B   137 	MOVQ	R4,R0			; GET STATUS AND RESULT
                     0074 8F     BA  005E   138 	POPR	#^M<R2,R4,R5,R6>	; RESTORE REGISTERS
                                 05  0062   139 	RSB				;
                                     0063   140
                                     0063   141 	.END
CNVCLIATB       - CONVERT ASCII TO BINARY                        21-AUG-1978 18:56:10   VAX-11 MACRO X0.3-11               Page   5
SYMBOL TABLE                                                                                                                     (1)

BIT...         = 0003FFE9            CLI$_OVRFLW    = 00038160
CLI$_ABFNAM    = 000381B8            CLI$_PARMDEL   = 00038110
CLI$_ABKEYW    = 00038000            CLI$_PROC_ID   = 0003FFF1
CLI$_ABVERB    = 00038008            CLI$_QUEJOBCRE = 0003FFF9
CLI$_BADRET    = 00038198            CLI$_REQPRMABS = 00038812
CLI$_BADTEXT   = 000381B0            CLI$_RSLOVF    = 00038118
CLI$_BUFOVF    = 00038018            CLI$_SKPDAT    = 00038120
CLI$_COMPLX    = 00038020            CLI$_SPARE0    = 00038010
CLI$_CONFQUAL  = 00038802            CLI$_SPARE1    = 00038058
CLI$_CREQUEJOB = 0003884A            CLI$_STKOVF    = 00038128
CLI$_DEFOVF    = 00038028            CLI$_SUBMITERR = 00038852
CLI$_DEVALSPL  = 0003885A            CLI$_SYMDEL    = 00038130
CLI$_DEVNOTFOR = 0003887A            CLI$_SYMOVF    = 00038138
CLI$_DEVNOTSPL = 00038862            CLI$_UNDFIL    = 00038188
CLI$_DIRECT    = 00038030            CLI$_UNDSYM    = 00038140
CLI$_EXPSYN    = 00038038            CLI$_UNPROPARM = 00038170
CLI$_FILOPN    = 00038190            CLI$_UNPROQUAL = 00038168
CLI$_ILLVAL    = 0003883A            CLI$_USGOTO    = 00038148
CLI$_IMCHNG    = 00038040            CLI$_VALCNVERR = 00038832
CLI$_IMGFNF    = 00038872            CLI$_VALREQ    = 00038150
CLI$_INSFPRM   = 00038048            CVTABL           00000000 R     03
CLI$_INVKEY    = 00038178            GBL...         = 00000000
CLI$_INVQUAL   = 0003880A            LIB$CVTCLIDTB    00000010 RG    03
CLI$_INVQUALNUM= 0003881A            LIB$CVTCLIHTB    0000001A RG    03
CLI$_INVREQTYP = 00038822            LIB$CVTCLIOTB    00000015 RG    03
CLI$_INVRSP    = 00038180
CLI$_INVUIC    = 000381A8
CLI$_IVCHAR    = 00038050
CLI$_IVDEVTYPE = 0003886A
CLI$_IVFNAM    = 000381C0
CLI$_IVKEYW    = 00038060
CLI$_IVOPER    = 00038068
CLI$_IVPROT    = 00038070
CLI$_IVQLOC    = 00038078
CLI$_IVSYMB    = 00038080
CLI$_IVVALU    = 00038088
CLI$_IVVERB    = 00038090
CLI$_MAXPARM   = 00038098
CLI$_MULKEY    = 000381A0
CLI$_NOATFIL   = 000380A0
CLI$_NOCCAT    = 000380A8
CLI$_NOCOMD    = 000380B0
CLI$_NOKEYW    = 000380B8
CLI$_NOLIST    = 000380C0
CLI$_NOOPTPRS  = 00038842
CLI$_NOQUAL    = 000380C8
CLI$_NORMAL    = 00030001
CLI$_NOTNEG    = 000380D8
CLI$_NOVALU    = 000380D0
CLI$_NOVALUE   = 0003882A
CLI$_NULFIL    = 000380E0
CLI$_NUMBER    = 000380E8
CLI$_ONCOMD    = 000380F0
CLI$_ONERR     = 000380F8
CLI$_ONEVAL    = 00038158
CLI$_ONLEVL    = 00038100
CLI$_ONOVF     = 00038108
CNVCLIATB       - CONVERT ASCII TO BINARY                        21-AUG-1978 18:56:10   VAX-11 MACRO X0.3-11               Page   6
PROGRAM SECTION SYNOPSIS                                                                                                         (1)


PROGRAM SECTION SYNOPSIS

.  ABS  .        00000000      00     NOPIC   USR   CON   ABS   LCL NOSHR NOEXE NORD  NOWRT BYTE
. BLANK .        00000000      01     NOPIC   USR   CON   REL   LCL NOSHR   EXE   RD    WRT BYTE
$ABS$            00000000      02     NOPIC   USR   CON   ABS   LCL NOSHR   EXE   RD    WRT BYTE
_LIB$CODE        00000063      03     NOPIC   USR   CON   REL   LCL NOSHR   EXE   RD  NOWRT BYTE


THERE WERE NO ERRORS OR WARNINGS.
24324. BYTES LEFT IN FREE MEMORY POOL.
1376. BYTES OF RECLAIMED MEMORY.
OBJ$:CNVCLIATB,LIS$:CNVCLIATB/-SP=EXECML$/ML,LIB$:CLIUTL/ML,SRC$:CNVCLIATB
18 MLB DIR RDS - 142 GETS TO DEFINE 7 MACROS. 11 INTER. FILE WRITES.
