DELQUAL         - DELETE A QUEUE QUALIFIERS                      21-AUG-1978 18:58:10   VAX-11 MACRO X0.3-11               Page   0
TABLE OF CONTENTS

   (2)      38  DECLARATIONS
DELQUAL         - DELETE A QUEUE QUALIFIERS                      21-AUG-1978 18:58:10   VAX-11 MACRO X0.3-11               Page   1
V01                                                                                                                              (1)

                                     0000     1 	.TITLE	DELQUAL - DELETE A QUEUE QUALIFIERS
                                     0000     2 	.IDENT	/V01/
                                     0000     3
                                     0000     4 ;
                                     0000     5 ;		  COPYRIGHT (c) 1977,1978 BY
                                     0000     6 ;	      DIGITAL EQUIPMENT CORPORATION, MAYNARD, MASS.
                                     0000     7 ;
                                     0000     8 ; THIS SOFTWARE IS FURNISHED UNDER A LICENSE ANY MAY BE USED AND  COPIED
                                     0000     9 ; ONLY  IN  ACCORDANCE  WITH  THE  TERMS  OF  SUCH  LICENSE AND WITH THE
                                     0000    10 ; INCLUSION OF THE ABOVE COPYRIGHT NOTICE.  THIS SOFTWARE OR  ANY  OTHER
                                     0000    11 ; COPIES  THEREOF MAY NOT BE PROVIDED OR OTHERWISE MADE AVAILABLE TO ANY
                                     0000    12 ; OTHER PERSON.  NO TITLE TO AND OWNERSHIP OF  THE  SOFTWARE  IS  HEREBY
                                     0000    13 ; TRANSFERRED.
                                     0000    14 ;
                                     0000    15 ; THE INFORMATION IN THIS SOFTWARE IS SUBJECT TO CHANGE  WITHOUT  NOTICE
                                     0000    16 ; AND  SHOULD  NOT  BE  CONSTRUED  AS  A COMMITMENT BY DIGITAL EQUIPMENT
                                     0000    17 ; CORPORATION.
                                     0000    18 ;
                                     0000    19 ; DIGITAL ASSUMES NO RESPONSIBILITY FOR THE USE OR  RELIABILITY  OF  ITS
                                     0000    20 ; SOFTWARE ON EQUIPMENT WHICH IS NOT SUPPLIED BY DIGITAL.
                                     0000    21 ;
                                     0000    22
                                     0000    23 ;++
                                     0000    24 ; FACILITY:	CLI UTILITY PROGRAMS
                                     0000    25 ;
                                     0000    26 ; ABSTRACT:	DELETE A QUEUE QUALIFIERS
                                     0000    27 ;
                                     0000    28 ; ENVIRONMENT:	NATIVE/USER MODE NON-PRIVILEGED CODE
                                     0000    29 ;
                                     0000    30 ; AUTHOR:	W.H.BROWN, CREATION DATE: 8-JUNE-1977
                                     0000    31 ;
                                     0000    32 ; MODIFIED BY:
                                     0000    33 ;
                                     0000    34 ;	, : VERSION
                                     0000    35 ; 01	-
                                     0000    36 ;--
DELQUAL         - DELETE A QUEUE QUALIFIERS                      21-AUG-1978 18:58:10   VAX-11 MACRO X0.3-11               Page   2
V01             DECLARATIONS                                                                                                     (2)

                                     0000    38 	.SBTTL	DECLARATIONS
                                     0000    39 ;
                                     0000    40 ; INCLUDED FILES:
                                     0000    41 ;
                                     0000    42 ;
                                     0000    43 ;
                                     0000    44 ; MACROS:
                                     0000    45
                                     0000    46 ; EQUATED SYMBOLS:
                                     0000    47 ;
                                     0000    48 ; MACRO LIBRARY CALLS
                                     0000    49 ;
                                     0000    50 	$CLIDEF				; CLI DEFINITIONS
                                     0000    51 	$CLIDEFQUALDELE			; DEFINE QUALIFIER CODES
                                     0000    52 	$CLIDEFQUALSYNC			; DEFINE QUALIFIER CODES
                                     0000    53 	$CLIDEFQUALASSI			; AND FOR ASSIGN
                                     0000    54 	$CLIDEFQUALDEAS			; ALSO DEASSIGN
                                     0000    55 	QMNBITS				; DEFINE QUEUE MANAGER BITS
                                     0000    56
                                     0000    57 ;
                                     0000    58 ; OWN STORAGE:
                                     0000    59 ;
                                     0000    60 ;
                                     0000    61 	IMPURE_DATA
                                     0000    62
                                     0000    63 DEL$G_QUALS::				;
                                     0000    64 	$CLIQUALDESC QDCODE=CLI$K_DELE_QUEU
                                     0017    65 QMN$G_DELE_ENTR::			; DELETE/ENTRY QUALIFIER DESCRIPTOR
                                     0017    66 	$CLIQUALDESC QDCODE=CLI$K_DELE_ENTR-
                                     0017    67 		TRUACT=QMN_ENTRYNUM
                                     002E    68 	$CLIQUALDESC	END_LIST
                                     002F    69 ;
                                     002F    70 ; QUALIFIER FOR THE SYNC COMMAND
                                     002F    71 ;
                                     002F    72 SYN$G_QUALS::				;
                                     002F    73 	$CLIQUALDESC QDCODE=CLI$K_SYNC_ENTR,-
                                     002F    74 		TRUACT=QMN_ENTRYNUM,-
                                     002F    75 		FLSACT=QMN_NOENTRY
                                     0046    76 	$CLIQUALDESC QDCODE=CLI$K_SYNC_QUEU,-
                                     0046    77 		TRUACT=QMN_QUEUENAM
                                     005D    78 	$CLIQUALDESC	END_LIST
                                     005E    79
                                     005E    80 ;
                                     005E    81 ; QUALIFERS FOR ASSIGN/QUEUE COMMAND
                                     005E    82 ;
                                     005E    83
                                     005E    84 ASS$G_QUALS::
                                     005E    85 	$CLIQUALDESC QDCODE=CLI$K_ASSI_QUEU
                                     0075    86 	$CLIQUALDESC QDCODE=CLI$K_ASSI_MERG,-
                                     0075    87 		TRUACT=QMN_MERGEQUE
                                     008C    88 	$CLIQUALDESC END_LIST
                                     008D    89
                                     008D    90 ;
                                     008D    91 ; QUALIFERS FOR DEASSIGN/QUEUE COMMAND
                                     008D    92 ;
                                     008D    93
                                     008D    94 DEA$G_QUALS::
DELQUAL         - DELETE A QUEUE QUALIFIERS                      21-AUG-1978 18:58:10   VAX-11 MACRO X0.3-11               Page   3
V01             DECLARATIONS                                                                                                     (2)

                                     008D    95 	$CLIQUALDESC QDCODE=CLI$K_DEAS_QUEU
                                     00A4    96 	$CLIQUALDESC END_LIST
                                     00A5    97
                                     00A5    98 	.END
DELQUAL         - DELETE A QUEUE QUALIFIERS                      21-AUG-1978 18:58:10   VAX-11 MACRO X0.3-11               Page   4
SYMBOL TABLE                                                                                                                     (2)

$$$            = 00000004            CLI$K_DELE_SYMB= 0000000A            CLI$M_PARMREQ  = 00000001
$$$GBL         = 00000000            CLI$K_DLSY_ALL = 00000001            CLI$M_QDEXPA   = 00000004
$CLI.          = 0000008D R     03   CLI$K_DLSY_GLOB= 00000002            CLI$M_QDUSRV   = 00000002
$CLI..         = 000000A4 R     03   CLI$K_DLSY_LOCA= 00000003            CLI$M_QUALEXP  = 00000002
$QUALNUM$      = 00000008            CLI$K_ENDPRM1  = 00000030            CLI$M_QUALTRU  = 00000001
ASS$G_QUALS      0000005E RG    03   CLI$K_ENDPRM2  = 00000031            CLI$M_TRMVRBLV = 00000300
BIT...         = 00000005            CLI$K_ENDPRM3  = 00000032            CLI$M_VERIFY   = 00000004
CLI$A_ABSACT     00000014            CLI$K_ENDPRM4  = 00000033            CLI$M_VFYINP   = 00000020
CLI$A_ERRACT     00000004            CLI$K_FILSPEC  = 00000044            CLI$Q_QDVALDESC  00000004
CLI$A_FLSACT     00000010            CLI$K_GETCMD   = 00000001            CLI$Q_RQDESC     00000008
CLI$A_IMGFILED   00000010            CLI$K_GETOPT   = 00000003            CLI$S_PRITYP   = 00000004
CLI$A_IMGHDADR   0000000C            CLI$K_GETQUAL  = 00000002            CLI$S_SUBTYP   = 00000004
CLI$A_PROGXFER   00000004            CLI$K_INITPRS  = 00000000            CLI$S_TRMVRBLV = 00000002
CLI$A_PRSACT     00000010            CLI$K_INPSPEC  = 00000001            CLI$V_ABSADR   = 00000001
CLI$A_QDVALADR   00000008            CLI$K_INPUT1   = 00000010            CLI$V_ALLOCCUR = 00000000
CLI$A_QUALST     00000018            CLI$K_INPUT2   = 00000011            CLI$V_BATCH    = 00000003
CLI$A_RQADDR     0000000C            CLI$K_INPUT3   = 00000012            CLI$V_CONCATINP= 00000001
CLI$A_TRUACT     0000000C            CLI$K_INPUT4   = 00000013            CLI$V_DBGEXCP  = 00000010
CLI$A_UTILSERV   00000008            CLI$K_KEYVAL   = 00000043            CLI$V_DBGTRU   = 00000001
CLI$B_BITNUM     00000001            CLI$K_KEYWORD  = 00000042            CLI$V_DEBUG    = 00000000
CLI$B_QDBLKSIZ   00000000            CLI$K_NUMERVAL = 00000040            CLI$V_DUMMY    = 00000001
CLI$B_QDCODE     00000001            CLI$K_OUTPUT1  = 00000020            CLI$V_EXPNAM   = 00000002
CLI$B_QDFLGS     00000002            CLI$K_OUTPUT2  = 00000021            CLI$V_INDIRECT = 00000004
CLI$B_QDSTAT     00000003            CLI$K_OUTPUT3  = 00000022            CLI$V_KEYVALU  = 00000001
CLI$B_RQFLGS     00000002            CLI$K_OUTPUT4  = 00000023            CLI$V_LASTVAL  = 00000000
CLI$B_RQINDX     00000001            CLI$K_OUTSPEC  = 00000002            CLI$V_MOREINP  = 00000002
CLI$B_RQSTAT     00000003            CLI$K_PARDONE  = 00000003            CLI$V_MOREVALS = 00000000
CLI$B_RQTYPE     00000000            CLI$K_QDBITS     00000014            CLI$V_PARMDEF  = 00000003
CLI$C_QDBITS     00000014            CLI$K_QUALDEF    00000014            CLI$V_PARMPRS  = 00000000
CLI$C_QUALDEF    00000014            CLI$K_REQDESC    0000001C            CLI$V_PARMREQ  = 00000000
CLI$C_REQDESC    0000001C            CLI$K_SYNC_ENTR= 00000001            CLI$V_PRITYP   = 00000004
CLI$C_WORKAREA   00000080            CLI$K_SYNC_QUEU= 00000002            CLI$V_QDEXPA   = 00000002
CLI$K_ASCIIVAL = 00000041            CLI$K_UTILOPR  = 00000000            CLI$V_QDUSRV   = 00000001
CLI$K_ASSI_GROU= 00000002            CLI$K_VALCONV  = 00000004            CLI$V_QUALEXP  = 00000001
CLI$K_ASSI_MERG= 00000007            CLI$K_WORKAREA   00000080            CLI$V_QUALTRU  = 00000000
CLI$K_ASSI_PROC= 00000003            CLI$L_CLIFLAG    00000018            CLI$V_SUBTYP   = 00000000
CLI$K_ASSI_QUEU= 00000006            CLI$L_INIARGCNT  00000000            CLI$V_TRMVRBLV = 00000008
CLI$K_ASSI_SUPE= 00000005            CLI$L_LINKFLAG   00000014            CLI$V_VERIFY   = 00000002
CLI$K_ASSI_SYST= 00000001            CLI$L_RQVALU     0000000C            CLI$V_VFYINP   = 00000005
CLI$K_ASSI_USER= 00000004            CLI$L_USRVAL     00000014            CLI$W_QDVALSIZ   00000004
CLI$K_CLISERV  = 00000005            CLI$L_WORKAREA   00000000            CLI$W_RQSIZE     00000008
CLI$K_DEAS_ALL = 00000004            CLI$M_ABSADR   = 00000002            CLI$W_SERVCOD    00000001
CLI$K_DEAS_GROU= 00000002            CLI$M_ALLOCCUR = 00000001            DEA$G_QUALS      0000008D RG    03
CLI$K_DEAS_PROC= 00000003            CLI$M_BATCH    = 00000008            DEL$G_QUALS      00000000 RG    03
CLI$K_DEAS_QUEU= 00000007            CLI$M_CONCATINP= 00000002            GBL...         = 00000000
CLI$K_DEAS_SUPE= 00000006            CLI$M_DBGEXCP  = 00010000            PRO_B_FLAGS      00000001
CLI$K_DEAS_SYST= 00000001            CLI$M_DBGTRU   = 00000002            PRO_B_PROMPT     00000000
CLI$K_DEAS_USER= 00000005            CLI$M_DEBUG    = 00000001            PRO_K_LENGTH     00000002
CLI$K_DELE_BEFO= 00000008            CLI$M_DUMMY    = 00000002            PRO_M_CONCAT   = 00000001
CLI$K_DELE_CONF= 00000005            CLI$M_EXPNAM   = 00000004            PRO_M_IMPCAT   = 00000002
CLI$K_DELE_CREA= 00000001            CLI$M_INDIRECT = 00000010            PRO_M_LIST     = 00000004
CLI$K_DELE_ENTR= 00000002            CLI$M_KEYVALU  = 00000002            PRO_M_OPTION   = 00000008
CLI$K_DELE_EXPI= 00000009            CLI$M_LASTVAL  = 00000001            PRO_M_REQ      = 00000010
CLI$K_DELE_LOG = 00000006            CLI$M_MOREINP  = 00000004            PRO_M_STRING   = 00000020
CLI$K_DELE_MODI= 00000003            CLI$M_MOREVALS = 00000001            PRO_V_CONCAT   = 00000000
CLI$K_DELE_QUEU= 00000004            CLI$M_PARMDEF  = 00000008            PRO_V_IMPCAT   = 00000001
CLI$K_DELE_SINC= 00000007            CLI$M_PARMPRS  = 00000001            PRO_V_LIST     = 00000002
DELQUAL         - DELETE A QUEUE QUALIFIERS                      21-AUG-1978 18:58:10   VAX-11 MACRO X0.3-11               Page   5
SYMBOL TABLE                                                                                                                     (2)

PRO_V_OPTION   = 00000003
PRO_V_REQ      = 00000004
PRO_V_STRING   = 00000005
QMN$G_DELE_ENTR  00000017 RG    03
QMN_ENTRYNUM     ********   X   03
QMN_MERGEQUE     ********   X   03
QMN_NOENTRY      ********   X   03
QMN_QUEUENAM     ********   X   03
QMN_V_BATCH    = 00000001
QMN_V_DEVICE   = 00000002
QMN_V_RESTART  = 00000004
QMN_V_START    = 00000003
QUA_B_DEFVAL     00000002
QUA_B_IMAGE      00000005
QUA_B_INDEX      00000001
QUA_B_OFFSET     00000000
QUA_B_PARMCNT    00000008
QUA_G_CHNGLST    00000006
QUA_M_BATDEF   = 00000100
QUA_M_CHNGLIST = 00000001
QUA_M_DEFTRUE  = 00000080
QUA_M_FILE     = 00000004
QUA_M_IMAGE    = 00000400
QUA_M_INTDEF   = 00000200
QUA_M_KEYVAL   = 00004000
QUA_M_LOCALKEY = 00000002
QUA_M_NEG      = 00000040
QUA_M_ONEVAL   = 00002000
QUA_M_OUTPUT   = 00000800
QUA_M_PARM     = 00000010
QUA_M_VAL      = 00000020
QUA_M_VALREQ   = 00001000
QUA_M_VERB     = 00000008
QUA_S_MAXPARM  = 00000004
QUA_S_MINPARM  = 00000004
QUA_V_BATDEF   = 00000008
QUA_V_CHNGLIST = 00000000
QUA_V_DEFTRUE  = 00000007
QUA_V_FILE     = 00000002
QUA_V_IMAGE    = 0000000A
QUA_V_INTDEF   = 00000009
QUA_V_KEYVAL   = 0000000E
QUA_V_LOCALKEY = 00000001
QUA_V_MAXPARM  = 00000004
QUA_V_MINPARM  = 00000000
QUA_V_NEG      = 00000006
QUA_V_ONEVAL   = 0000000D
QUA_V_OUTPUT   = 0000000B
QUA_V_PARM     = 00000004
QUA_V_VAL      = 00000005
QUA_V_VALREQ   = 0000000C
QUA_V_VERB     = 00000003
QUA_W_FLAGS      00000003
QUA_W_PROMPT     00000009
QUA_W_QUALIST    00000006
SYN$G_QUALS      0000002F RG    03

DELQUAL         - DELETE A QUEUE QUALIFIERS                      21-AUG-1978 18:58:10   VAX-11 MACRO X0.3-11               Page   6
PROGRAM SECTION SYNOPSIS                                                                                                         (2)


PROGRAM SECTION SYNOPSIS

.  ABS  .        00000000      00     NOPIC   USR   CON   ABS   LCL NOSHR NOEXE NORD  NOWRT BYTE
. BLANK .        00000000      01     NOPIC   USR   CON   REL   LCL NOSHR   EXE   RD    WRT BYTE
$ABS$            00000080      02     NOPIC   USR   CON   ABS   LCL NOSHR   EXE   RD    WRT BYTE
RWDATA           000000A5      03     NOPIC   USR   CON   REL   LCL NOSHR NOEXE   RD    WRT BYTE


THERE WERE NO ERRORS OR WARNINGS.
15214. BYTES LEFT IN FREE MEMORY POOL.
3018. BYTES OF RECLAIMED MEMORY.
OBJ$:DELQUAL,LIS$:DELQUAL/-SP=EXECML$/ML,LIB$:CLIUTL/ML,SRC$:DELQUAL
43 MLB DIR RDS - 520 GETS TO DEFINE 27 MACROS. 35 INTER. FILE WRITES.
