RUNDET          - CREATE A STARLET PROCESS                       21-AUG-1978 19:01:37   VAX-11 MACRO X0.3-11               Page   0
TABLE OF CONTENTS

   (1)      40  DECLARATIONS
   (1)     319  KEYWORD LIST FOR PRIVILEGE QUALIFIER
   (1)     417  QUALIFIER LIST
   (1)     451  CREATE-PROCESS ARGUMENTS
   (1)     500  WAKE-PROCESS ARGUMENTS
   (1)     518  MESSAGE ARGUMENT LISTS
   (1)     564  ARGUMENTS FOR PARSING EXECUTABLE FILE NAME
   (1)     605  UIC CONVERSION ARGUMENTS
   (1)     615  RUN_DETACHED
   (1)     649  ERROR EXIT HANDLERS
   (1)     689  RUN_PARSCMD - PARSE THE COMMAND LINE
   (1)     704  PARSCMD - SUBROUTINE TO PARSE COMMAND LINE
   (1)     765  ACTION ROUTINE - PARSE EXECUTABLE FILE NAME
   (1)     779  ACTION ROUTINE - TERMINATION MAILBOX
   (1)     791  ACTION ROUTINES - QUOTA PROCESSING
   (1)     826  ACTION ROUTINES - PROCESS AND LOGICAL NAMES
   (1)     873  ACTION ROUTINE - PROCESS PRIVILEGE QUALIFIER
   (1)     898  ACTION ROUTINE - PRIORITY QUALIFIER
   (1)     912  DUMMY ACTION ROUTINES
   (1)     932  ACTION ROUTINES - TIME-BASED QUALIFIERS
   (1)     981  ACTION ROUTINE - UIC QUALIFIER
   (1)     996  ACTION ROUTINE ERROR EXIT HANDLERS
RUNDET          - CREATE A STARLET PROCESS                       21-AUG-1978 19:01:37   VAX-11 MACRO X0.3-11               Page   1
01.11                                                                                                                            (1)

                                     0000     1 	.TITLE	RUNDET - CREATE A STARLET PROCESS
                                     0000     2 	.IDENT	/01.11/
                                     0000     3
                                     0000     4 ;
                                     0000     5 ; COPYRIGHT (C) 1978
                                     0000     6 ; DIGITAL EQUIPMENT CORPORATION, MAYNARD, MASSACHUSETTS 01754
                                     0000     7 ;
                                     0000     8 ; THIS SOFTWARE IS FURNISHED  UNDER A LICENSE FOR USE ONLY ON A SINGLE
                                     0000     9 ; COMPUTER  SYSTEM AND  MAY BE  COPIED ONLY WITH  THE INCLUSION OF THE
                                     0000    10 ; ABOVE COPYRIGHT NOTICE.  THIS SOFTWARE, OR ANY OTHER COPIES THEREOF,
                                     0000    11 ; MAY NOT BE PROVIDED OR  OTHERWISE MADE AVAILABLE TO ANY OTHER PERSON
                                     0000    12 ; EXCEPT FOR USE ON SUCH SYSTEM AND TO ONE WHO AGREES TO THESE LICENSE
                                     0000    13 ; TERMS.  TITLE TO AND  OWNERSHIP OF THE  SOFTWARE  SHALL AT ALL TIMES
                                     0000    14 ; REMAIN IN DEC.
                                     0000    15 ;
                                     0000    16 ; THE INFORMATION IN THIS SOFTWARE IS SUBJECT TO CHANGE WITHOUT NOTICE
                                     0000    17 ; AND SHOULD  NOT BE CONSTRUED  AS A COMMITMENT  BY DIGITAL  EQUIPMENT
                                     0000    18 ; CORPORATION.
                                     0000    19 ;
                                     0000    20 ; DEC ASSUMES  NO  RESPONSIBILITY  FOR  THE USE OR  RELIABILITY OF ITS
                                     0000    21 ; SOFTWARE ON EQUIPMENT WHICH IS NOT SUPPLIED BY DEC.
                                     0000    22 ;
                                     0000    23
                                     0000    24 ;++
                                     0000    25 ; FACILITY:	STARLET DCL CLI
                                     0000    26 ;
                                     0000    27 ; ABSTRACT:	CREATE AND EXECUTE A STARLET PROCESS
                                     0000    28 ;
                                     0000    29 ;
                                     0000    30 ; ENVIRONMENT:	NATIVE MODE USER CODE
                                     0000    31 ;
                                     0000    32 ; AUTHOR:	C. A. MONIA, CREATION DATE: 08-AUG-77
                                     0000    33 ;
                                     0000    34 ; MODIFIED BY:
                                     0000    35 ;
                                     0000    36 ;	, : VERSION
                                     0000    37 ; 01	-
                                     0000    38 ;--
RUNDET          - CREATE A STARLET PROCESS                       21-AUG-1978 19:01:37   VAX-11 MACRO X0.3-11               Page   2
01.11           DECLARATIONS                                                                                                     (1)

                                     0000    40 	.SBTTL	DECLARATIONS
                                     0000    41 ;
                                     0000    42 ; INCLUDE FILES:
                                     0000    43 ;
                                     0000    44 ;	U.MLB
                                     0000    45 ;	LIB.MLB
                                     0000    46 ;
                                     0000    47 ; MACRO LIBRARY CALLS
                                     0000    48 ;
                                     0000    49
                                     0000    50 	$CLIDEFQUALRUN			; DEFINE RUN QUALIFIER VALUES
                                     0000    51 	$CLIDEF				; DEFINE CLI RUN PARAMETERS
                                     0000    52 	$CLIMSGDEF			; DEFINE CLI STATUS CODES
                                     0000    53 	$JPIDEF				; DEFINE JOB/PROCESS ITEMS
                                     0000    54 	$PQLDEF				; DEFINE PROCESS QUOTAS
                                     0000    55 	$PRVDEF				; DEFINE PRIVILEGE FLAGS
                                     0000    56 	$SSDEF				; DEFINE SYSTEM STATUS CODES
                                     0000    57 	$STSDEF				; DEFINE RETURNED STATUS FORMAT
                                     0000    58
                                     0000    59 ;
                                     0000    60 ; MACROS:
                                     0000    61 ;
                                     0000    62
                                     0000    63 	.MACRO	CALLBAK	A1,A2
                                     0000    64 $$$=2
                                     0000    65 	.IF NB	A2
                                     0000    66 	PUSHAB	W^A2
                                     0000    67 $$$=$$$+1
                                     0000    68 	.ENDC
                                     0000    69 	PUSHAB	CLIWORK
                                     0000    70 	PUSHAB	W^A1
                                     0000    71 	CALLS	#$$$,@CLI$A_UTILSERV(AP)
                                     0000    72 	.ENDM
                                     0000    73
                                     0000    74 ;
                                     0000    75 ; DEFINE CREATE-PROCESS STRING DESCRIPTOR
                                     0000    76 ;
                                     0000    77
                                     0000    78 	.MACRO	DESCR	NAME
                                     0000    79
                                     0000    80 $$$D=.
                                     0000    81 RUN_Q_DESCR=.-$$$D
                                     0000    82 RUN_D_'NAME:.BLKQ	1
                                     0000    83 RUN_A_ARGPTR=.-$$$D
                                     0000    84 	.LONG	CREPRC+CREPRC$_'NAME
                                     0000    85 	.ENDM
                                     0000    86
                                     0000    87 ;
                                     0000    88 ; CALLBACK TO CONVERT A VALUE
                                     0000    89 ;
                                     0000    90
                                     0000    91 	.MACRO	CONVERTVAL	VALDESC
                                     0000    92 	PUSHAB	@4(AP)
                                     0000    93 	PUSHAB	CLIWORK
                                     0000    94 	PUSHAB	VALDESC
                                     0000    95 	CALLS	#3,@CLI$A_UTILSERV(AP)
                                     0000    96 	.ENDM
RUNDET          - CREATE A STARLET PROCESS                       21-AUG-1978 19:01:37   VAX-11 MACRO X0.3-11               Page   3
01.11           DECLARATIONS                                                                                                     (1)

                                     0000    97
                                     0000    98 ;
                                     0000    99 ; INSERT SEVERITY IN ERROR CODE
                                     0000   100 ;
                                     0000   101
                                     0000   102 	.MACRO	INSEV	SEV,LOC
                                     0000   103 	INSV	#STS$K_'SEV,-
                                     0000   104 		#STS$V_SEVERITY,-
                                     0000   105 		#STS$S_SEVERITY,-
                                     0000   106 		LOC
                                     0000   107 	.ENDM
                                     0000   108
                                     0000   109 ;
                                     0000   110 ; DEFINE KEYWORD ARGUMENT VALUE
                                     0000   111 ;
                                     0000   112
                                     0000   113 	.MACRO	KEY	KEYWD,FLAG,SENSE
                                     0000   114 	.SAVE
                                     0000   115 	.PSECT	KEYWRD,WRT,RD,BYTE
                                     0000   116 $B=.
                                     0000   117 	.ASCII	"KEYWD"
                                     0000   118 $E=.
                                     0000   119 	.PSECT	KEYDESC,RD,WRT,BYTE
                                     0000   120 	.IF DF	KEYLST
                                     0000   121 	.BLKQ	-1
                                     0000   122 	.IFF
                                     0000   123 KEYLST:
                                     0000   124 	.ENDC
                                     0000   125 	.IF IDN	<SAME>,<KEYWD>
                                     0000   126 SAMEKEY:
                                     0000   127 	.ENDC
                                     0000   128 $$$0=.
                                     0000   129 	.LONG	$E-$B
                                     0000   130 	.LONG	$B
                                     0000   131 $$$FL0=0
                                     0000   132 $$$FL1=0
                                     0000   133 	.IRP	X,FLAG
                                     0000   134 $$$POS=PRV$V_'X-32
                                     0000   135 	.IF GE	$$$POS
                                     0000   136 $$$FL1=$$$FL1!<1@$$$POS>
                                     0000   137 	.IFF
                                     0000   138 $$$FL0=$$$FL0!<1@PRV$V_'X>
                                     0000   139 	.ENDC
                                     0000   140 	.ENDM
                                     0000   141 FLAGS=.-$$$0
                                     0000   142 	.LONG	$$$FL0
                                     0000   143 	.LONG	$$$FL1
                                     0000   144 	.LONG	0
                                     0000   145 	.IF IDN <SENSE>,<CLEAR>
                                     0000   146 	.BLKL	-1
                                     0000   147 	.LONG	-1
                                     0000   148 	.ENDC
                                     0000   149 	.QUAD	0
                                     0000   150 	.RESTORE
                                     0000   151 	.ENDM
                                     0000   152
                                     0000   153 ;
RUNDET          - CREATE A STARLET PROCESS                       21-AUG-1978 19:01:37   VAX-11 MACRO X0.3-11               Page   4
01.11           DECLARATIONS                                                                                                     (1)

                                     0000   154 ;
                                     0000   155 ; ERROR MESSAGE CALL FOR SYNTAX ERRORS
                                     0000   156 ;
                                     0000   157
                                     0000   158 	.MACRO	SYNTAXERR	CODE=R0,DESCR=0
                                     0000   159 	PUSHL	CODE
                                     0000   160 	PUSHAB	DESCR
                                     0000   161 	CALLS	#2,ERREXIT
                                     0000   162 	.ENDM
                                     0000   163
                                     0000   164 ;
                                     0000   165 ; DEFINE QUALIFIER DESCRIPTOR BLOCK
                                     0000   166 ;
                                     0000   167
                                     0000   168 	.MACRO	DEFQUAL	QUAL,MASK,STATE
                                     0000   169 	.SAVE
                                     0000   170 	.PSECT	QUALS
                                     0000   171 	.IF NDF	RUNQUAL
                                     0000   172 RUNQUAL:
                                     0000   173 	.IFF
                                     0000   174 .=.-$$$END
                                     0000   175 	.ENDC
                                     0000   176 	.IF NB	MASK
                                     0000   177 	.IF NB	STATE
                                     0000   178 	$CLIQUALDESC	-
                                     0000   179 		QDCODE=CLI$K_RUN_'QUAL,-
                                     0000   180 		TRUACT=QUAL,-
                                     0000   181 		CLRLST=CREPRC_V_'MASK
                                     0000   182 	.IFF
                                     0000   183 	$CLIQUALDESC	-
                                     0000   184 		QDCODE=CLI$K_RUN_'QUAL,-
                                     0000   185 		TRUACT=QUAL,-
                                     0000   186 		SETLST=CREPRC_V_'MASK
                                     0000   187 	.ENDC
                                     0000   188 	.IFF
                                     0000   189 	$CLIQUALDESC	-
                                     0000   190 		QDCODE=CLI$K_RUN_'QUAL,-
                                     0000   191 		TRUACT=QUAL
                                     0000   192 	.ENDC
                                     0000   193 $$$0=.
                                     0000   194 	$CLIQUALDESC	END_LIST
                                     0000   195 $$$END=.-$$$0
                                     0000   196 	.RESTORE
                                     0000   197 	.ENDM
                                     0000   198
                                     0000   199 ;
                                     0000   200 ; GET QUOTA VALUE
                                     0000   201 ;
                                     0000   202
                                     0000   203 	.MACRO	GETQUOTA	TAG,QUOTA,LABEL
                                     0000   204 	.SAVE
                                     0000   205 	.PSECT	QUOLST,RD,WRT,BYTE
                                     0000   206 	.IF NDF	QUOLST
                                     0000   207 QUOLST:	.BLKB	1
                                     0000   208 	.ENDC
                                     0000   209 	.BLKB	3
                                     0000   210 	.PSECT	QUOTBL,RD,WRT,BYTE
RUNDET          - CREATE A STARLET PROCESS                       21-AUG-1978 19:01:37   VAX-11 MACRO X0.3-11               Page   5
01.11           DECLARATIONS                                                                                                     (1)

                                     0000   211 	.IF NDF	QUOTBL
                                     0000   212 QUOTBL:
                                     0000   213 NQUOTA=0
                                     0000   214 	.ENDC
                                     0000   215 $Q=.
                                     0000   216 	.BYTE	PQL$_'QUOTA
                                     0000   217 		.BLKB	1
                                     0000   218 		.BLKL	1
                                     0000   219 QTB_ENTRYSIZE=.-$Q
                                     0000   220 NQUOTA=NQUOTA+1
                                     0000   221 	.RESTORE
                                     0000   222 TAG:
                                     0000   223 	.WORD	^M<R1,R2>
                                     0000   224 	PUSHAB	$Q
                                     0000   225 	.IF NB	LABEL
                                     0000   226 	BRB	LABEL
                                     0000   227 	.ENDC
                                     0000   228 	.ENDM
                                     0000   229
                                     0000   230 ;
                                     0000   231 ; EQUATED SYMBOLS
                                     0000   232 ;
                                     0000   233 ; CREATE PROCESS STATUS FLAGS
                                     0000   234 ;
                                     0000   235
                                     0000   236 	_VIELD	CREPRC,1,<-		; FLAGS SHIFTED ONE PLACE LEFT
                                     0000   237 		NOWAIT,-		; DISABLE RESOURCE WAIT MODE
                                     0000   238 		SERV,-			; ENABLE SERVICE FAILURE MODE
                                     0000   239 		NOSWAP,-		; DISABLE SWAPPING
                                     0000   240 		NOACNT,-		; DISABLE ACCOUNTING FOR PROCESS
                                     0000   241 		BATCH,-			; CREATE A BATCH PROCESS
                                     0000   242 		HIBER,-			; ACTIVATE PROCESS IN HIBERNATE STATE
                                     0000   243 		NOAUTH-			; DO NOT OPEN AUTHORIZATION FILE
                                     0000   244 		>			;
                                     0000   245
                                     0000   246 ;
                                     0000   247 ; DEFINE DEFAULT STATUS FLAGS
                                     0000   248 ;
                                     0000   249
                                     0000   250 RUN_M_DFSTS=<1@CREPRC_V_NOACNT>!-			;
                                     0000   251 	    <1@CREPRC_V_NOAUTH>!-			;
                                     0000   252 	    <1@CREPRC_V_NOSWAP>!-			;
                           0000009A  0000   253 	    <1@CREPRC_V_NOWAIT>				;
                                     0000   254
                                     0000   255 ;
                                     0000   256 ; OWN STORAGE
                                     0000   257 ;
                                     0000   258
                                 00000000   259 	.PSECT	RWDATA	RD,WRT,BYTE
                                     0000   260
                                     0000   261 ;
                                     0000   262 ; DEFINE COMMAND LANGUAGE INTERPRETER DATA STRUCTURES
                                     0000   263 ;
                                     0000   264 ; ALLOCATE CLI WORK AREA
                                     0000   265 ;
                                     0000   266
                           00000080  0000   267 CLIWORK:.BLKB	CLI$K_WORKAREA		; RESULT PARSE WORK AREA
RUNDET          - CREATE A STARLET PROCESS                       21-AUG-1978 19:01:37   VAX-11 MACRO X0.3-11               Page   6
01.11           DECLARATIONS                                                                                                     (1)

                                     0080   268
                                     0080   269 ;
                                     0080   270 ; REQUEST DESCRIPTOR FOR COMMAND LINE
                                     0080   271 ;
                                     0080   272
                                     0080   273 CMLDSC:	$CLIREQDESC	-		; REQUEST DESCRIPTOR FOR COMMAND LINE
                                     0080   274 		RQTYPE=CLI$K_GETCMD	; GET ADDRESS AND LENGTH OF COMMAND
                                     009C   275
                                     009C   276 ;
                                     009C   277 ; REQUEST DESCRIPTOR TO INITIALIZE THE PARSE
                                     009C   278 ;
                                     009C   279
                                     009C   280 INIPRS:	$CLIREQDESC	-		; REQUEST DESCRIPTOR FOR PARSE
                                     009C   281 		ERRACT=ERREXIT,-	; ERROR ACTION ROUTINE
                                     009C   282 		RQTYPE=CLI$K_INITPRS	; INITIALIZE THE PARSE
                                     00B8   283
                                     00B8   284 ;
                                     00B8   285 ; REQUEST DESCRIPTOR FOR PARSE TERMINATION
                                     00B8   286 ;
                                     00B8   287
                                     00B8   288 PARSDON: $CLIREQDESC	-		; REQUEST DESCRIPTOR FOR PARSE DONE
                                     00B8   289 		ERRACT=ERREXIT,-	; ERROR ACTION ROUTINE
                                     00B8   290 		RQTYPE=CLI$K_ENDPRM1	; COMPLETED PARAMETER SET 1
                                     00D4   291
                                     00D4   292 ;
                                     00D4   293 ; REQUEST DESCRIPTOR FOR ASCII CONVERSION
                                     00D4   294 ;
                                     00D4   295
                                     00D4   296 ASCVAL:	$CLIREQDESC	-		; REQUEST DESCRIPTOR FOR ASCII CONVERSION
                                     00D4   297 		ERRACT=ERREXIT,-	; ERROR ACTION ROUTINE
                                     00D4   298 		RQTYPE=CLI$K_ASCIIVAL	; ASCII CONVERSION
                                     00F0   299
                                     00F0   300 ;
                                     00F0   301 ; REQUEST DESCRIPTOR FOR NUMERIC VALUE CONVERSION
                                     00F0   302 ;
                                     00F0   303
                                     00F0   304 NUMERCVAL:$CLIREQDESC	-		;
                                     00F0   305 		ERRACT=ERREXIT,-	; ERROR ACTION ROUTINE
                                     00F0   306 		RQTYPE=CLI$K_NUMERVAL	;
                                     010C   307
                                     010C   308 ;
                                     010C   309 ; REQUEST DESCRIPTOR FOR IMAGE FILE CONVERSION
                                     010C   310 ;
                                     010C   311
                                     010C   312 FILDESC: $CLIREQDESC	-		; REQUEST DESCRIPTOR FOR EXECUTABLE IMAGE
                                     010C   313 		ERRACT=ERREXIT,-	; ERROR EXIT
                                     010C   314 		RQTYPE=CLI$K_INPUT1,-	; TYPE IS INPUT FILE 1
                                     010C   315 		RQFLGS=CLI$V_PARMREQ,-	; PARAMETER IS REQUIRED
                                     010C   316 		PRSACT=PARSFIL,-	; ACTION ROUTINE
                                     010C   317 		QUALST=RUNQUAL		; RUN COMMAND QUALIFIER LIST
RUNDET          - CREATE A STARLET PROCESS                       21-AUG-1978 19:01:37   VAX-11 MACRO X0.3-11               Page   7
01.11           KEYWORD LIST FOR PRIVILEGE QUALIFIER                                                                             (1)

                                     0128   319 	.SBTTL	KEYWORD LIST FOR PRIVILEGE QUALIFIER
                                     0128   320
                                     0128   321 ;
                                     0128   322 ; KEYWORD LIST FOR PRIVILEGE QUALIFIER
                                     0128   323 ;
                                     0128   324
                                     0128   325 	KEY	^\ACNT\	,-		; MAY SUPPRESS ACCOUNTING MESSAGE
                                     0128   326 		NOACNT,CLEAR		;
                                     0128   327 	KEY	^\ALLPRIV\,<-		; ALL PRIVILEGES
                                     0128   328 		ALLSPOOL,-		; MAY ALLOCATE SPOOLED DEVICE
                                     0128   329 		BUGCHK,-		; MAY MAKE BUG CHECK ERROR LOG ENTRIES
                                     0128   330 		CMEXEC,-		; MAY CHANGE MODE TO EXEC
                                     0128   331 		CMKRNL,-		; MAY CHANGE MODE TO KERNEL
                                     0128   332 		DETACH,-		; MAY CREATE DETACHED PROCESSES
                                     0128   333 		DIAGNOSE,-		; MAY DIAGNOSE DEVICES
                                     0128   334 		EXQUOTA,-		; MAY EXCEED QUOTAS
                                     0128   335 		GROUP,-			; MAY AFFECT OTHER PROCESSES IN SAME GROUP
                                     0128   336 		GRPNAM,-		; MAY INSERT IN GROUP LOGICAL NAME TABLE
                                     0128   337 		LOG_IO,-		; MAY PERFORM LOGICAL I/O
                                     0128   338 		MOUNT,-			; MAY EXECUTE MOUNT VOLUME QIO
                                     0128   339 		NETMBX,-		; MAY CREATE NETWORK DEVICE
                                     0128   340 		NOACNT,-		; MAY SUPPRESS ACCOUNTING MESSAGE
                                     0128   341 		OPER,-			; OPERATOR PRIVILEGE
                                     0128   342 		PHY_IO,-		; MAY PERFORM PHYSICAL I/O
                                     0128   343 		PRMCEB,-		; MAY CREATE PERMANENT COMMON EVENT FLAG CLUSTERS
                                     0128   344 		PRMGBL,-		; MAY CREATE PERMANENT GLOBAL SECTION
                                     0128   345 		PRMMBX,-		; MAY CREATE PERMANENT MAILBOX
                                     0128   346 		PSWAPM,-		; MAY CHANGE PROCESS SWAP MODE
                                     0128   347 		SETPRI,-		; MAY SET ANY PROCESS PRIORITY
                                     0128   348 		SETPRV,-		; MAY SET ANY PRIVILEGE BITS
                                     0128   349 		SYSGBL,-		; MAY CREATE SYSTEM-WIDE GLOBAL SECTION
                                     0128   350 		SYSNAM,-		; MAY INSERT IN SYSTEM LOGICAL NAME TABLE
                                     0128   351 		TMPMBX,-		; MAY CREATE TEMPORARY MAILBOX
                                     0128   352 		VOLPRO,-		; MAY OVERRIDE VOLUME PROTECTION
                                     0128   353 		WORLD-			; MAY AFFECT OTHER PROCESSES IN THE WORLD
                                     0128   354 		>			;
                                     0128   355 	KEY	^\ALLSPOOL\,-		; MAY ALLOCATE SPOOLED DEVICE
                                     0128   356 		ALLSPOOL,SET		;
                                     0128   357 	KEY	^\ALTPRI\,-		; MAY SET ANY PRIORITY VALUE
                                     0128   358 		SETPRI			;
                                     0128   359 	KEY	^\BUGCHK\,-		; MAY MAKE BUG CHECK ERROR LOG ENTRIES
                                     0128   360 		BUGCHK			;
                                     0128   361 	KEY	^\CMEXEC\,-		; MAY CHANGE MODE TO EXECUTIVE
                                     0128   362 		CMEXEC			;
                                     0128   363 	KEY	^\CMKRNL\,-		; MAY CHANGE MODE TO KERNEL
                                     0128   364 		CMKRNL			;
                                     0128   365 	KEY	^\DETACH\,-		; MAY CREATE DETACHED PROCESSES
                                     0128   366 		DETACH			;
                                     0128   367 	KEY	^\DIAGNOSE\,-		; MAY DIAGNOSE DEVICES
                                     0128   368 		DIAGNOSE		;
                                     0128   369 	KEY	^\EXQUOTA\,-		; MAY EXCEED QUOTAS
                                     0128   370 		EXQUOTA			;
                                     0128   371 	KEY	^\GROUP\,-		; MAY AFFECT OTHER PROCESSES IN GROUP
                                     0128   372 		GROUP			;
                                     0128   373 	KEY	^\GRPNAM\,-		; INSERT IN GROUP LOGICAL NAME TABLE
                                     0128   374 		GRPNAM			;
                                     0128   375 	KEY	^\LOG_IO\,-		; MAY PERFORM LOGICAL I/O
RUNDET          - CREATE A STARLET PROCESS                       21-AUG-1978 19:01:37   VAX-11 MACRO X0.3-11               Page   8
01.11           KEYWORD LIST FOR PRIVILEGE QUALIFIER                                                                             (1)

                                     0128   376 		LOG_IO			;
                                     0128   377 	KEY	^\MOUNT\,-		; MAY EXECUTE MOUNT VOLUME QIO
                                     0128   378 		MOUNT			;
                                     0128   379 	KEY	^\NETMBX\,-		; MAY CREATE NETWORK DEVICE
                                     0128   380 		NETMBX			;
                                     0128   381 	KEY	^\OPER\,- 		; OPERATOR PRIVILEGES
                                     0128   382 		OPER			;
                                     0128   383 	KEY	^\PHY_IO\,-		; MAY PERFORM PHYSICAL I/O
                                     0128   384 		PHY_IO			;
                                     0128   385 	KEY	^\PRMCEB\,-		; MAY CREATE PERMANENT COMMON
                                     0128   386 		PRMCEB			; EVENT FLAG CLUSTER
                                     0128   387 	KEY	^\PRMGBL\,-		; MAY CREATE PERMANENT GLOBAL SECTION
                                     0128   388 		PRMGBL			;
                                     0128   389 	KEY	^\PRMMBX\,-		; MAY CREATE PERMANENT MAILBOX
                                     0128   390 		PRMMBX			;
                                     0128   391 	KEY	^\PSWAPM\,-		; MAY CHANGE PROCESS SWAP MODE
                                     0128   392 		PSWAPM			;
                                     0128   393 	KEY	^\SAME\,-		; PROCESS HAS SAME PRIVILEGES AS
                                     0128   394 		NOACNT			; ISSUING PROCESS
                                     0128   395 	KEY	^\SETPRV\,-		; MAY SET ANY PRIVILEGE BITS
                                     0128   396 		SETPRV			;
                                     0128   397 	KEY	^\SYSGBL\,-		; MAY CREATE SYSTEM-WIDE GLOBAL SECTION
                                     0128   398 		SYSGBL			;
                                     0128   399 	KEY	^\SYSNAM\,-		; MAY INSERT IN SYSTEM LOGICAL
                                     0128   400 		SYSNAM			; NAME TABLE
                                     0128   401 	KEY	^\TMPMBX\,-		; MAY CREATE TEMPORARY MAILBOX
                                     0128   402 		TMPMBX			;
                                     0128   403 	KEY	^\VOLPRO\,-		; MAY OVERRIDE VOLUME PROTECTION
                                     0128   404 		VOLPRO			;
                                     0128   405 	KEY	^\WORLD\,-		; MAY AFFECT OTHER PROCESSES
                                     0128   406 		WORLD			; IN THE WORLD
                                     0128   407
                                     0128   408 ;
                                     0128   409 ; ARGUMENT LIST FOR KEYWORD SEARCH
                                     0128   410 ;
                                     0128   411
                                     0128   412 KEYARG:	$ARGLST	3,-			;
                                     0128   413 		KEYLST,-		; ADDRESS OF KEYWORD LIST
                                     0128   414 		ASCVAL+CLI$W_RQSIZE,-	; ADDRESS OF DESCRIPTOR
                                     0128   415 		RUN_Q_PRVFLAGS		; PRIVILEGE VECTOR
RUNDET          - CREATE A STARLET PROCESS                       21-AUG-1978 19:01:37   VAX-11 MACRO X0.3-11               Page   9
01.11           QUALIFIER LIST                                                                                                   (1)

                                     0138   417 	.SBTTL	QUALIFIER LIST
                                     0138   418
                                     0138   419 ;
                                     0138   420 ; QUALIFIER LIST
                                     0138   421 ;
                                     0138   422
                                     0138   423 	DEFQUAL	ACCO,NOACNT,CLEAR	; SUPPRESS ACCOUNTING MESSAGE QUALIFIER
                                     0138   424 	DEFQUAL	AST_			; AST LIMIT QUOTA QUALIFIER
                                     0138   425 	DEFQUAL	AUTH,NOAUTH,CLEAR	; DO NOT OPEN AUTHORIZATION FILE
                                     0138   426 	DEFQUAL	BUFF			; BUFFER SPACE QUOTA QUALIFIER
                                     0138   427 	DEFQUAL	DELA,HIBER		; DELAY QUALIFIER
                                     0138   428 	DEFQUAL	ERRO			; ERROR QUALIFIER
                                     0138   429 	DEFQUAL	FILE			; OPEN FILE QUOTA QUALIFIER
                                     0138   430 	DEFQUAL	INPU			; INPUT QUALIFIER
                                     0138   431 	DEFQUAL	INTE,HIBER		; INTERVAL QUALIFIER
                                     0138   432 	DEFQUAL	IO_B			; BUFFERED I/O QUOTA QUALIFIER
                                     0138   433 	DEFQUAL	IO_D			; DIRECT I/O QUOTA QUALIFIER
                                     0138   434 	DEFQUAL	MAIL			; PROCESS TERMINATION MAILBOX
                                     0138   435 	DEFQUAL	MAXI			; MAXIMUM WORKING SET QUOTA
                                     0138   436 	DEFQUAL	OUTP			; OUTPUT QUALIFIER
                                     0138   437 	DEFQUAL	PAGE			; PAGE FILE QUOTA
                                     0138   438 	DEFQUAL	PRIO			; PRIORITY QUALIFIER
                                     0138   439 	DEFQUAL	PRIV			; PRIVILEGE QUALIFIER
                                     0138   440 	DEFQUAL	PROC			; PROCESS NAME QUALIFIER
                                     0138   441 	DEFQUAL	QUEU			; TIMER QUEUE ENTRY QUOTA
                                     0138   442 	DEFQUAL	RESO,NOWAIT,CLEAR	; RESOURCE WAIT QUALIFIER
                                     0138   443 	DEFQUAL	SCHE,HIBER		; SCHEDULE QUALIFIER
                                     0138   444 	DEFQUAL	SERV,SERV		; SERVICE_FAILURE QUALIFIER
                                     0138   445 	DEFQUAL	SUBP			; SUBPROCESS LIMIT
                                     0138   446 	DEFQUAL	SWAP,NOSWAP,CLEAR	; SWAP QUALIFIER
                                     0138   447 	DEFQUAL	TIME			; CPU TIME LIMIT QUOTA
                                     0138   448 	DEFQUAL	UIC			; UIC QUALIFIER
                                     0138   449 	DEFQUAL	WORK			; DEFAULT WORKING SET QUOTA QUALIFIER
RUNDET          - CREATE A STARLET PROCESS                       21-AUG-1978 19:01:37   VAX-11 MACRO X0.3-11               Page  10
01.11           CREATE-PROCESS ARGUMENTS                                                                                         (1)

                                     0138   451 	.SBTTL	CREATE-PROCESS ARGUMENTS
                                     0138   452
                                     0138   453 ;
                                     0138   454 ; ARGUMENT LIST FOR CREATE PROCESS
                                     0138   455 ;
                                     0138   456
                                     0138   457 CREPRC::$CREPRC		-		;
                                     0138   458 	PIDADR=RUN_L_PID,-		; PROCESS I/D
                                     0138   459 	IMAGE=PARSOUTP,-		; ADDRESS OF FULLY QUALIFIED FILE NAME
                                     0138   460 ;	INPUT=RUN_D_INPUT,-		; INPUT LOGICAL NAME DESCRIPTOR
                                     0138   461 ;	OUTPUT=RUN_D_OUTPUT		; OUTPUT LOGICAL NAME DESCRIPTOR
                                     0138   462 ;	ERROR=RUN_D_ERROR,-		; ERROR LOGICAL NAME DESCRIPTOR
                                     0138   463 	PRVADR=RUN_Q_PRVFLAGS,-		; PRIVILEGE VECTOR
                                     0138   464 ;	QUOTA=PARSOUTBF,-		; QUOTA LIST
                                     0138   465 ;	PRCNAM=RUN_D_PRCNAM,-		; PROCESS NAME DESCRIPTOR
                                     0138   466 	BASPRI=0,-			; BASE PRIORITY
                                     0138   467 	UIC=0,-				; UIC
                                     0138   468 	MBXUNT=0,-			; MAILBOX UNIT NUMBER
                                     0138   469 	STSFLG=0			; STATUS AND MODE FLAGS
                                     016C   470
                                     016C   471 ;
                                     016C   472 ; CREATE PROCESS ARGUMENTS
                                     016C   473 ;
                                     016C   474
                           00000174  016C   475 RUN_Q_PRVFLAGS:	.BLKQ	1		; PRIVILEGE VECTOR
                           00000178  0174   476 RUN_L_STSFLG:	.BLKL	1		; TEMPORARY STORAGE FOR STATUS FLAGS
                                     0178   477
                                     0178   478 ;
                                     0178   479 ; STRING DESCRIPTORS
                                     0178   480 ;
                                     0178   481
                                     0178   482 	DESCR	ERROR			; ERROR LOGICAL NAME
                                     0184   483 	DESCR	INPUT			; INPUT LOGICAL NAME
                                     0190   484 	DESCR	OUTPUT			; OUTPUT LOGICAL NAME
                                     019C   485 	DESCR	PRCNAM			; PROCESS NAME
                                     01A8   486
                                     01A8   487 ;
                                     01A8   488 ; DEFINE ARGUMENT LIST FOR GET JOB/PROCESS PARAMETERS
                                     01A8   489 ;
                                     01A8   490
                                     01A8   491 GETJPI:					;
                          0309 0004  01A8   492 	.WORD	4,JPI$_PRIB		; GET BASE PRIORITY
                           0000015C' 01AC   493 	.LONG	CREPRC+CREPRC$_BASPRI	; STORAGE FOR BASE PRIORITY
                           00000000  01B0   494 	.LONG	0			; NO RETURN LENGTH WANTED
                          0204 0008  01B4   495 	.WORD	8,JPI$_PROCPRIV		; GET PROCESS LOGIN PRIVILEGES
                           000001AC' 01B8   496 	.LONG	SAMEKEY+FLAGS		; STORAGE FOR CURRENT PRIVILEGES
                           00000000  01BC   497 	.LONG	0			; NO RETURN LENGTH WANTED
                           00000000  01C0   498 	.LONG	0			; TERMINATE LIST
RUNDET          - CREATE A STARLET PROCESS                       21-AUG-1978 19:01:37   VAX-11 MACRO X0.3-11               Page  11
01.11           WAKE-PROCESS ARGUMENTS                                                                                           (1)

                                     01C4   500 	.SBTTL	WAKE-PROCESS ARGUMENTS
                                     01C4   501
                                     01C4   502 ;
                                     01C4   503 ; ARGUMENT LIST FOR SCHEDULE WAKE REQUEST
                                     01C4   504 ;
                                     01C4   505
                                     01C4   506 SCHDWK::$SCHDWK		-		;
                                     01C4   507 	PIDADR=RUN_L_PID,-		; ADDRESS OF PROCESS I/D
                                     01C4   508 	DAYTIM=RUN_Q_TIME,-		; TIME OF DAY
                                     01C4   509 	REPTIM=RUN_Q_REPT		; REPETITION INTERVAL
                                     01D8   510
                                     01D8   511 ;
                                     01D8   512 ; ARGUMENTS FOR SCHEDULE WAKE REQUEST
                                     01D8   513 ;
                                     01D8   514
                           000001E0  01D8   515 RUN_Q_REPT:.BLKQ	1		; REPETITION INTERVAL
                           000001E8  01E0   516 RUN_Q_TIME:.BLKQ	1		; ABSOLUTE TIME
RUNDET          - CREATE A STARLET PROCESS                       21-AUG-1978 19:01:37   VAX-11 MACRO X0.3-11               Page  12
01.11           MESSAGE ARGUMENT LISTS                                                                                           (1)

                                     01E8   518 	.SBTTL	MESSAGE ARGUMENT LISTS
                                     01E8   519
                                     01E8   520 ;
                                     01E8   521 ; PROCESS I/D MESSAGE ARGUMENT LIST
                                     01E8   522 ;
                                     01E8   523
                                     01E8   524 PIDMSG:	$ARGLST	3,-			;
                                     01E8   525 		PROCID,-		; ADDRESS OF PROCESS I/D MESSAGE BLOCK
                                     01E8   526 		0,-			; NO ACTION ROUTINE
                                     01E8   527 		FACNAM			; ADDRESS OF FACILITY NAME
                                     01F8   528
                                     01F8   529 ;
                                     01F8   530 ; FACILITY NAME STRING
                                     01F8   531 ;
                                     01F8   532
                           4E 55 52  01F8   533 RUNSTR:	.ASCII	/RUN/			;
                           00000003  01FB   534 $$$L=.-RUNSTR				;
                                     01FB   535
                           00000003  01FB   536 FACNAM:	.LONG	$$$L			; LENGTH OF NAME STRING
                           000001F8' 01FF   537 	.LONG	RUNSTR			; ADDRESS OF NAME STRING
                                     0203   538
                                     0203   539 ;
                                     0203   540 ; PROCESS IDENTIFICATION MESSAGE
                                     0203   541 ;
                                     0203   542
                                     0203   543 PROCID:	.LONG	3,-			; ARGUMENT COUNT
                           00000003  0203   544 		<^C<STS$M_SEVERITY>&CLI$_PROC_ID!STS$K_SUCCESS>,- ; REPORT PROCESS I/D
                           0003FFF1  0207   545 		1,-			; 1 FAO ARGUMENT
                  00000000 00000001  020B   546 		0			; PROCESS I/D
                           0000020F  0213   547 RUN_L_PID=.-4				; REFERENCE LABEL FOR PROCESS I/D
                                     0213   548
                                     0213   549 ;
                                     0213   550 ; SYSTEM SERVICE ERROR MESSAGE ARGUMENT LIST
                                     0213   551 ;
                                     0213   552
                                     0213   553 SRVMSG:	$PUTMSG	FACNAM=FACNAM,-	; FACILITY NAME
                                     0213   554 		MSGVEC=SRVERR	; MESSAGE VECTOR
                                     0223   555
                                     0223   556 ;
                                     0223   557 ; SYSTEM SERVICE ERROR ARGUMENT LIST
                                     0223   558 ;
                                     0223   559
                           00000002  0223   560 SRVERR:	.LONG	2			; LENGTH OF MESSAGE VECTOR
                           00000000  0227   561 SRVCOD:	.LONG	0			; ERROR CODE
                           00000000  022B   562 	.LONG	0			; NO FAO ARGUMENTS
RUNDET          - CREATE A STARLET PROCESS                       21-AUG-1978 19:01:37   VAX-11 MACRO X0.3-11               Page  13
01.11           ARGUMENTS FOR PARSING EXECUTABLE FILE NAME                                                                       (1)

                                     022F   564 	.SBTTL	ARGUMENTS FOR PARSING EXECUTABLE FILE NAME
                                     022F   565
                                     022F   566 ;
                                     022F   567 ; ARGUMENT LIST FOR PARSING THE EXECUTABLE FILE NAME
                                     022F   568 ;
                                     022F   569
                                     022F   570 PARSARG:$ARGLST	3,-			;
                                     022F   571 		FILDESC+CLI$W_RQSIZE,-	; INPUT STRING DESCRIPTOR
                                     022F   572 		PARSOUTP,-		; ADDRESS OF OUTPUT DESCRIPTOR
                                     022F   573 		PARSDFNAM		; ADDRESS OF DEFAULT NAME STRING
                                     023F   574
                                     023F   575 ;
                                     023F   576 ; ARGUMENTS FOR PARSING THE EXECUTABLE FILE NAME
                                     023F   577 ;
                                     023F   578 ; DEFAULT NAME STRING
                                     023F   579 ;
                                     023F   580
                        45 58 45 2E  023F   581 DFNAM:	.ASCII	/.EXE/			;
                           00000004  0243   582 DFNAMSZ=.-DFNAM				; LENGTH OF STRING
                                     0243   583
                                     0243   584 ;
                                     0243   585 ; BUFFER FOR PARSED NAME STRING
                                     0243   586 ;
                                     0243   587
                           00000283  0243   588 PARSOUTBF:.BLKB	64			;
                           00000040  0283   589 PARSBUFLGH=.-PARSOUTBF			;
                                     0283   590
                                     0283   591 ;
                                     0283   592 ; STRING DESCRIPTOR FOR DEFAULT NAME
                                     0283   593 ;
                                     0283   594
                           00000004  0283   595 PARSDFNAM:.LONG	DFNAMSZ			; LENGTH OF DEFAULT NAME STRING
                           0000023F' 0287   596 	.LONG	DFNAM			; ADDRESS OF NAME STRING
                                     028B   597
                                     028B   598 ;
                                     028B   599 ; DESCRIPTOR FOR PARSED NAME STRING
                                     028B   600 ;
                                     028B   601
                           00000040  028B   602 PARSOUTP:.LONG	PARSBUFLGH		; LENGTH OF PARSED STRING
                           00000243' 028F   603 	.LONG	PARSOUTBF		; BUFFER TO RECEIVE PARSED STRING
RUNDET          - CREATE A STARLET PROCESS                       21-AUG-1978 19:01:37   VAX-11 MACRO X0.3-11               Page  14
01.11           UIC CONVERSION ARGUMENTS                                                                                         (1)

                                     0293   605 	.SBTTL	UIC CONVERSION ARGUMENTS
                                     0293   606
                                     0293   607 ;
                                     0293   608 ; ARGUMENT LIST FOR UIC CONVERSION
                                     0293   609 ;
                                     0293   610
                                     0293   611 UICARG:	$ARGLST	2,-			;
                                     0293   612 		ASCVAL+CLI$W_RQSIZE,-	; ADDRESS OF DESCRIPTOR
                                     0293   613 		CREPRC+CREPRC$_UIC	; ADDRESS TO RECEIVE CONVERTED UIC
RUNDET          - CREATE A STARLET PROCESS                       21-AUG-1978 19:01:37   VAX-11 MACRO X0.3-11               Page  15
01.11           RUN_DETACHED                                                                                                     (1)

                                     029F   615 	.SBTTL	RUN_DETACHED
                                     029F   616 ;+
                                     029F   617 ; RUN - EXTERNAL CLI COMMAND FILE TO CREATE A PROCESS
                                     029F   618 ;
                                     029F   619 ; THIS PROCEDURE IS CALLED BY THE COMMAND LANGUAGE INTERPRETER TO CREATE
                                     029F   620 ; A PROCESS. IT IS INVOKED WHENEVER THE RUN COMMAND IS TYPED WITH ANY
                                     029F   621 ; QUALIFIER.
                                     029F   622 ;
                                     029F   623 ; INPUTS:
                                     029F   624 ;
                                     029F   625 ;	****** INPUTS ******
                                     029F   626 ;
                                     029F   627 ; OUTPUTS:
                                     029F   628 ;
                                     029F   629 ;	****** OUTPUTS ******
                                     029F   630 ;
                                     029F   631 ;-
                                     029F   632
                                 00000000   633 	.PSECT	RUN	LONG
                                     0000   634
                                     0000   635 RUN_DETACHED:				;
                               0000  0000   636 	.WORD	0			; NULL ENTRY MASK
   00000070'EF            6C     FA  0002   637 	CALLG	(AP),RUN_PARSCMD	; PARSE THE COMMAND LINE
            30            50     E9  0009   638 	BLBC	R0,RUN_ERR_UNEXP	; UNEXPECTED ERROR STATUS
                                     000C   639 	$CREPRC_G	CREPRC		; REQUEST PROCESS CREATION
            29            50     E9  0017   640 	BLBC	R0,RUN_ERR_CREPRC	; ERROR IN CREATE-PROCESS
                                     001A   641 	$PUTMSG_G PIDMSG		; DISPLAY PROCESS I/D
                                 E1  0025   642 	BBC	#CREPRC_V_HIBER-1,-	; TIME BASED SCHEDULING REQUESTED?
   00000168'EF            05         0026   643 		CREPRC+CREPRC$_STSFLG,10$ ;
                          0E         002C
                                     002D   644 	$SCHDWK_G	SCHDWK		; YES, SCHEDULE PROCESS WAKEUP
            0F            50     E9  0038   645 	BLBC	R0,RUN_ERR_SCHDWK	; ERROR IN WAKE REQUEST
                                     003B   646 10$:					;
                                 04  003B   647 	RET				;
RUNDET          - CREATE A STARLET PROCESS                       21-AUG-1978 19:01:37   VAX-11 MACRO X0.3-11               Page  16
01.11           ERROR EXIT HANDLERS                                                                                              (1)

                                     003C   649 	.SBTTL	ERROR EXIT HANDLERS
                                     003C   650
                                     003C   651 ;
                                     003C   652 ; ERROR EXIT HANDLERS
                                     003C   653 ;
                                     003C   654 ; UNEXPECTED ERROR WHILE PARSING COMMAND LINE
                                     003C   655 ;
                                     003C   656
                                     003C   657 	.ENABL	LSB
                                     003C   658
                                     003C   659 RUN_ERR_UNEXP:				;
                                     003C   660 	INSEV	SEVERE,R0		; SEVERE ERROR
                          0C     11  0041   661 	BRB	10$			;
                                     0043   662
                                     0043   663 ;
                                     0043   664 ; ERROR FROM CREATE-PROCESS SYSTEM SERVICE
                                     0043   665 ;
                                     0043   666
                                     0043   667 RUN_ERR_CREPRC:				;
                                     0043   668 	INSEV	ERROR,R0		; SET SEVERITY LEVEL TO ERROR
                          05     11  0048   669 	BRB	10$			;
                                     004A   670
                                     004A   671
                                     004A   672 ;
                                     004A   673 ; ERROR FROM SCHEDULE WAKEUP SYSTEM SERVICE
                                     004A   674 ;
                                     004A   675
                                     004A   676 RUN_ERR_SCHDWK:				;
                                     004A   677 	INSEV	WARNING,R0		; SET SEVERITY TO WARNING
                                     004F   678 10$:					;
   00000227'EF            50     D0  004F   679 	MOVL	R0,SRVCOD		; SETUP SYSTEM SERVICE CODE
                                     0056   680 	$PUTMSG_G SRVMSG		; REPORT SYSTEM SERVICE ERROR
            0B            50     E9  0061   681 	BLBC	R0,20$			; IF LBC DISPLAY STATUS ON EXIT
            50   00000227'EF     D0  0064   682 	MOVL	SRVCOD,R0		; GET FINAL STATUS
            50            1C     E2  006B   683 	BBSS	#STS$V_INHIB_MSG,R0,20$	; INHIBIT CLI STATUS DISPLAY
                          00         006E
                                     006F   684 20$:					;
                                 04  006F   685 	RET				;
                                     0070   686
                                     0070   687 	.DSABL	LSB
RUNDET          - CREATE A STARLET PROCESS                       21-AUG-1978 19:01:37   VAX-11 MACRO X0.3-11               Page  17
01.11           RUN_PARSCMD - PARSE THE COMMAND LINE                                                                             (1)

                                     0070   689 	.SBTTL	RUN_PARSCMD - PARSE THE COMMAND LINE
                                     0070   690
                                     0070   691 ;
                                     0070   692 ; ENTRY POINT TO PARSE THE COMMAND LINE
                                     0070   693 ;
                                     0070   694
                                     0070   695 RUN_PARSCMD::				;
                               0000  0070   696 	.WORD	0			; NULL ENTRY MASK
                                     0072   697 	$GETJPI_S	ITMLST=GETJPI	; GET PROCESS INFORMATION FOR DEFAULTS
            05            50     E9  0089   698 	BLBC	R0,10$			; IF LBC ERROR IN SYSTEM SERVICE
                          04     10  008C   699 	BSBB	PARSCMD			; PARSE THE COMMAND LINE
            50            01     3C  008E   700 	MOVZWL	#SS$_NORMAL,R0		; RETURN NORMAL STATUS
                                     0091   701 10$:					;
                                 04  0091   702 	RET				;
RUNDET          - CREATE A STARLET PROCESS                       21-AUG-1978 19:01:37   VAX-11 MACRO X0.3-11               Page  18
01.11           PARSCMD - SUBROUTINE TO PARSE COMMAND LINE                                                                       (1)

                                     0092   704 	.SBTTL	PARSCMD - SUBROUTINE TO PARSE COMMAND LINE
                                     0092   705
                                     0092   706 ;
                                     0092   707 ; PARSCMD - PARSE THE CLI INPUT
                                     0092   708 ;
                                     0092   709
                                     0092   710 PARSCMD:				;
   0000016C'EF   000001AC'EF     7D  0092   711 	MOVQ	SAMEKEY+FLAGS,RUN_Q_PRVFLAGS ; INITIALIZE PRIVILEGE FLAGS
                 0000014C'EF     D4  009D   712 	CLRL	CREPRC+CREPRC$_ERROR	; CLEAR ADDRESS OF ERROR NAME
                 00000144'EF     D4  00A3   713 	CLRL	CREPRC+CREPRC$_INPUT	; CLEAR ADDRESS OF INPUT NAME
                 00000164'EF     D4  00A9   714 	CLRL	CREPRC+CREPRC$_MBXUNT	; RESET MAILBOX UNIT NUMBER
                 00000148'EF     D4  00AF   715 	CLRL	CREPRC+CREPRC$_OUTPUT	; CLEAR ADDRESS OF OUTPUT NAME
                 00000158'EF     D4  00B5   716 	CLRL	CREPRC+CREPRC$_PRCNAM	; CLEAR ADDRESS OF PROCESS NAME
                 00000154'EF     D4  00BB   717 	CLRL	CREPRC+CREPRC$_QUOTA	; CLEAR ADDRESS OF QUOTA LIST
                 00000168'EF     D4  00C1   718 	CLRL	CREPRC+CREPRC$_STSFLG	; CLEAR STATUS FLAGS
                 00000160'EF     D4  00C7   719 	CLRL	CREPRC+CREPRC$_UIC	; CLEAR UIC
   00000174'EF   0000009A 8F     D0  00CD   720 	MOVL	#RUN_M_DFSTS,RUN_L_STSFLG ; SET DEFAULT FLAGS
                 000001D8'EF     7C  00D8   721 	CLRQ	RUN_Q_REPT		; CLEAR REPETITION INTERVAL
   000001E0'EF            01     CE  00DE   722 	MNEGL	#1,RUN_Q_TIME		; SET SMALLEST DELTA TIME
   000001E4'EF            01     CE  00E5   723 	MNEGL	#1,RUN_Q_TIME+4		; ...
                                     00EC   724
                                     00EC   725 ;
                                     00EC   726 ; INITALIZE THE QUOTA TABLE
                                     00EC   727 ;
                                     00EC   728
            51   00000000'EF     9E  00EC   729 	MOVAB	QUOTBL,R1		; GET ADDRESS OF QUOTA TABLE
            52            0B'    9A  00F3   730 	MOVZBL	S^#NQUOTA,R2		; GET NUMBER OF QUOTA PARAMETERS
                                     00F6   731 10$:					;
         01 A1            00     90  00F6   732 	MOVB	#PQL$_LISTEND,1(R1)	; SET NOT-SPECIFIED FLAG
            51            06'    C0  00FA   733 	ADDL	S^#QTB_ENTRYSIZE,R1	; POINT TO NEXT ENTRY
            F6            52     F5  00FD   734 	SOBGTR	R2,10$			; LOOP FOR EACH ENTRY
                                     0100   735 	CALLBAK	INIPRS,-		; INITIALIZE THE PARSE
                                     0100   736 		RUN_L_STSFLG		; ADDRESS OF BITMASK
                                     0112   737 	CALLBAK	CMLDSC,-		; LOCATE THE COMMAND LINE
                                     0112   738 		RUN_L_STSFLG		; ADDRESS OF BITMASK
                                     0124   739 	CALLBAK	FILDESC,-		; PARSE THE COMAND LINE
                                     0124   740 		RUN_L_STSFLG		; ADDRESS OF BITMASK
                                     0136   741 	CALLBAK	PARSDON,-		; TERMINATE THE PARSE
                                     0136   742 		RUN_L_STSFLG		; ADDRESS OF BITMASK
            1F            01     EF  0148   743 	EXTZV	#1,#31,RUN_L_STSFLG,CREPRC+CREPRC$_STSFLG ; SETUP STATUS
   00000168'EF   00000174'EF         014B
                                     0155   744
                                     0155   745 ;
                                     0155   746 ; BUILD QUOTA LIST
                                     0155   747 ;
                                     0155   748
            52   00000154'EF     D0  0155   749 	MOVL	CREPRC+CREPRC$_QUOTA,R2	; GET ADDRESS OF QUOTA TABLE
                          20     13  015C   750 	BEQL	40$			; IF EQL, NO QUOTAS SPECIFIED
            51   00000000'EF     9E  015E   751 	MOVAB	QUOTBL,R1		; GET ADDRESS OF QUOTA TABLE
            53            0B'    9A  0165   752 	MOVZBL	S^#NQUOTA,R3		; GET NUMBER OF QUOTA QUALIFIERS
                                     0168   753 20$:					;
         01 A1            61     91  0168   754 	CMPB	(R1),1(R1)		; QUOTA SPECIFIED?
                          07     12  016C   755 	BNEQ	30$			; IF NEQ NO
            82            61     90  016E   756 	MOVB	(R1),(R2)+		; SET QUOTA TYPE
            82         02 A1     D0  0171   757 	MOVL	2(R1),(R2)+		; SET QUOTA VALUE
                                     0175   758 30$:					;
            51            06'    C0  0175   759 	ADDL	S^#QTB_ENTRYSIZE,R1	; POINT TO NEXT TABLE ENTRY
RUNDET          - CREATE A STARLET PROCESS                       21-AUG-1978 19:01:37   VAX-11 MACRO X0.3-11               Page  19
01.11           PARSCMD - SUBROUTINE TO PARSE COMMAND LINE                                                                       (1)

            ED            53     F5  0178   760 	SOBGTR	R3,20$			; LOOP
            62            00     90  017B   761 	MOVB	#PQL$_LISTEND,(R2)	; TERMINATE LIST
                                     017E   762 40$:					;
                                 05  017E   763 	RSB				;
RUNDET          - CREATE A STARLET PROCESS                       21-AUG-1978 19:01:37   VAX-11 MACRO X0.3-11               Page  20
01.11           ACTION ROUTINE - PARSE EXECUTABLE FILE NAME                                                                      (1)

                                     017F   765 	.SBTTL ACTION ROUTINE - PARSE EXECUTABLE FILE NAME
                                     017F   766
                                     017F   767 ;
                                     017F   768 ; PARSE EXECUTABLE FILE NAME STRING
                                     017F   769 ;
                                     017F   770
                                     017F   771 PARSFIL:				;
                               0000  017F   772 	.WORD	0			;
   00000000'EF   0000022F'EF     FA  0181   773 	CALLG	PARSARG,RUN_PARSFIL	; PARSE FILE NAME
            01            50     E9  018C   774 	BLBC	R0,10$			; IF LBC ERROR
                                 04  018F   775 	RET				;
                                     0190   776 10$:					;
                                     0190   777 	SYNTAXERR	R0,FILDESC	; REPORT BAD FILE NAME
RUNDET          - CREATE A STARLET PROCESS                       21-AUG-1978 19:01:37   VAX-11 MACRO X0.3-11               Page  21
01.11           ACTION ROUTINE - TERMINATION MAILBOX                                                                             (1)

                                     019F   779 	.SBTTL	ACTION ROUTINE - TERMINATION MAILBOX
                                     019F   780
                                     019F   781 ;
                                     019F   782 ; ACTION ROUTINE FOR TERMINATION MAILBOX UNIT NUMBER
                                     019F   783 ;
                                     019F   784
                                     019F   785 MAIL:					;
                               0002  019F   786 	.WORD	^M<R1>			;
                                     01A1   787 	CONVERTVAL	NUMERCVAL	; CONVERT MAILBOX UNIT NUMBER
   00000164'EF   000000FC'EF     D0  01B4   788 	MOVL	NUMERCVAL+CLI$L_RQVALU,CREPRC+CREPRC$_MBXUNT ; RECORD MAILBOX NUMBER
                                 04  01BF   789 	RET				;
RUNDET          - CREATE A STARLET PROCESS                       21-AUG-1978 19:01:37   VAX-11 MACRO X0.3-11               Page  22
01.11           ACTION ROUTINES - QUOTA PROCESSING                                                                               (1)

                                     01C0   791 	.SBTTL	ACTION ROUTINES - QUOTA PROCESSING
                                     01C0   792
                                     01C0   793 ;
                                     01C0   794 ; ACTION ROUTINES FOR QUOTA PROCESSING
                                     01C0   795 ;
                                     01C0   796
                                     01C0   797 	.ENABL	LSB
                                     01C0   798
                                     01C0   799
                                     01C0   800 	GETQUOTA	AST_,ASTLM,10$	; AST LIMIT QUOTA
                                     01CA   801 	GETQUOTA	BUFF,BYTLM,10$	; BUFFER SPACE QUOTA
                                     01D4   802 	GETQUOTA	FILE,FILLM,10$	; OPEN FILE QUOTA
                                     01DE   803 	GETQUOTA	IO_B,BIOLM,10$	; BUFFERED I/O QUOTA
                                     01E8   804 	GETQUOTA	IO_D,DIOLM,10$	; DIRECT I/O QUOTA
                                     01F2   805 	GETQUOTA	MAXI,WSQUOTA,10$ ; MAXIMUM WORKING SET QUOTA
                                     01FC   806 	GETQUOTA	PAGE,PGFLQUOTA,10$ ; PAGE FILE LIMIT
                                     0206   807 	GETQUOTA	QUEU,TQELM,10$	; TIMER QUEUE ELEMENT QUOTA
                                     0210   808 	GETQUOTA	SUBP,PRCLM,10$	; SUBPROCESS CREATION QUOTA
                                     021A   809 	GETQUOTA	TIME,CPULM,10$	; CPU LIMIT
                                     0224   810 	GETQUOTA	WORK,WSDEFAULT	; DEFAULT WORKING SET QUOTA
                                     022C   811
                                     022C   812 ;
                                     022C   813 ; PROCESS QUOTA QUALIFIER
                                     022C   814 ;
                                     022C   815
                                     022C   816 10$:					;
                                     022C   817 	CONVERTVAL	NUMERCVAL	; CONVERT QUOTA VALUE
   00000154'EF   00000000'EF     9E  023F   818 	MOVAB	QUOLST,CREPRC+CREPRC$_QUOTA ; POINT TO QUOTA LIST
                          02     BA  024A   819 	POPR	#^M<R1>			; GET TABLE ADDRESS
            81            81     90  024C   820 	MOVB	(R1)+,(R1)+		; SET QUOTA PRESENT FLAG
            61   000000FC'EF     D0  024F   821 	MOVL	NUMERCVAL+CLI$L_RQVALU,(R1) ; STORE QUOTA
                                 04  0256   822 	RET				;
                                     0257   823
                                     0257   824 	.DSABL	LSB
RUNDET          - CREATE A STARLET PROCESS                       21-AUG-1978 19:01:37   VAX-11 MACRO X0.3-11               Page  23
01.11           ACTION ROUTINES - PROCESS AND LOGICAL NAMES                                                                      (1)

                                     0257   826 	.SBTTL	ACTION ROUTINES - PROCESS AND LOGICAL NAMES
                                     0257   827
                                     0257   828 ;
                                     0257   829 ; SETUP STRING DESCRIPTOR FOR ERROR EQUIVALENCE NAME
                                     0257   830 ;
                                     0257   831
                                     0257   832 	.ENABL	LSB
                                     0257   833
                                     0257   834 ERRO:					;
                               0006  0257   835 	.WORD	^M<R1,R2>		; ENTRY MASK
            50       0178'CF     9E  0259   836 	MOVAB	W^RUN_D_ERROR,R0	; GET ADDRESS OF NAME DESCRIPTOR
                          19     11  025E   837 	BRB	10$			;
                                     0260   838
                                     0260   839 ;
                                     0260   840 ; SETUP STRING DESCRIPTOR FOR INPUT LOGICAL NAME
                                     0260   841 ;
                                     0260   842
                                     0260   843 INPU:					;
                               0006  0260   844 	.WORD	^M<R1,R2>		; ENTRY MASK
            50       0184'CF     9E  0262   845 	MOVAB	W^RUN_D_INPUT,R0	; GET ADDRESS OF NAME DESCRIPTOR
                          10     11  0267   846 	BRB	10$			;
                                     0269   847
                                     0269   848 ;
                                     0269   849 ; SETUP STRING DESCRIPTOR FOR OUTPUT LOGICAL NAME
                                     0269   850 ;
                                     0269   851
                                     0269   852 OUTP:					;
                               0006  0269   853 	.WORD	^M<R1,R2>		; ENTRY MASK
            50       0190'CF     9E  026B   854 	MOVAB	W^RUN_D_OUTPUT,R0	; GET ADDRESS OF NAME DESCRIPTOR
                          07     11  0270   855 	BRB	10$			;
                                     0272   856
                                     0272   857 ;
                                     0272   858 ; SETUP STRING DESCRIPTOR NAME FOR PROCESS
                                     0272   859 ;
                                     0272   860
                                     0272   861 PROC:					;
                               0006  0272   862 	.WORD	^M<R1,R2>		; ENTRY MASK
            50       019C'CF     9E  0274   863 	MOVAB	W^RUN_D_PRCNAM,R0	; GET ADDRESS OF NAME DESCRIPTOR
                                     0279   864 10$:					;
         08 B0            50     D0  0279   865 	MOVL	R0,@RUN_A_ARGPTR(R0)	; SETUP DESCRIPTOR ADDRESS
                          50     DD  027D   866 	PUSHL	R0			; SAVE DESCRIPTOR ADDRESS
                                     027F   867 	CONVERTVAL	ASCVAL		; CONVERT AN ASCII STRING
            9E       00DC'CF     7D  0292   868 	MOVQ	W^ASCVAL+CLI$W_RQSIZE,@(SP)+ ; SAVE STRING DESCRIPTOR
                                 04  0297   869 	RET				;
                                     0298   870
                                     0298   871 	.DSABL	LSB
RUNDET          - CREATE A STARLET PROCESS                       21-AUG-1978 19:01:37   VAX-11 MACRO X0.3-11               Page  24
01.11           ACTION ROUTINE - PROCESS PRIVILEGE QUALIFIER                                                                     (1)

                                     0298   873 	.SBTTL	ACTION ROUTINE - PROCESS PRIVILEGE QUALIFIER
                                     0298   874
                                     0298   875 ;
                                     0298   876 ; ACTION ROUTINE TO PROCESS PRIVILEGE QUALIFIER
                                     0298   877 ;
                                     0298   878
                                     0298   879 PRIV:					;
                               0006  0298   880 	.WORD	^M<R1,R2>		; ENTRY MASK
                                     029A   881 5$:					;
            52         04 AC     D0  029A   882 	MOVL	4(AP),R2		; GET ADDRESS OF QUALIFIER DESCRIPTOR
                       04 A2     B5  029E   883 	TSTW	CLI$Q_QDVALDESC(R2)	; ANY UNPROCESSED COMMANDS?
                          31     13  02A1   884 	BEQL	10$			; IF EQL NO
                                     02A3   885 	CONVERTVAL	ASCVAL		; CONVERT ASCII VALUE
       0000'CF       0128'CF     FA  02B6   886 	CALLG	W^KEYARG,W^RUN_SRCKEY	; SEARCH FOR KEYWORD
            DA            50     E8  02BD   887 	BLBS	R0,5$			; IF LBS GO AGAIN
            50   00038178 8F     D0  02C0   888 	MOVL	#CLI$_INVKEY,R0		; ASSUME NON-EXISTENT KEYWORD
                          51     B5  02C7   889 	TSTW	R1			; TEST SUPPLEMENTARY CODE
                          0A     13  02C9   890 	BEQL	20$			; IF EQL, KEY NOT FOUND
            50   000381A0 8F     D0  02CB   891 	MOVL	#CLI$_MULKEY,R0		; ASSUME AMBIGUOUS KEYWORD
                          01     11  02D2   892 	BRB	20$			; TAKE ERROR EXIT
                                     02D4   893 10$:					;
                                 04  02D4   894 	RET				;
                                     02D5   895 20$:					;
                                     02D5   896 	SYNTAXERR	R0,ASCVAL	; PASS CONTROL TO ERROR HANDLER
RUNDET          - CREATE A STARLET PROCESS                       21-AUG-1978 19:01:37   VAX-11 MACRO X0.3-11               Page  25
01.11           ACTION ROUTINE - PRIORITY QUALIFIER                                                                              (1)

                                     02E4   898 	.SBTTL	ACTION ROUTINE - PRIORITY QUALIFIER
                                     02E4   899
                                     02E4   900 ;
                                     02E4   901 ; ACTION ROUTINE TO CONVERT PRIORITY TO BINARY
                                     02E4   902 ;
                                     02E4   903
                                     02E4   904 PRIO:					;
                               0006  02E4   905 	.WORD	^M<R1,R2>		; ENTRY MASK
                                     02E6   906 	CONVERTVAL	NUMERCVAL	; CONVERT NUMERIC VALUE
                                 D0  02F9   907 	MOVL	NUMERCVAL+CLI$L_RQVALU,- ; SETUP PRIORITY
   0000015C'EF   000000FC'EF         02FA   908 		CREPRC+CREPRC$_BASPRI	;
                                     0304   909 10$:					;
                                 04  0304   910 	RET				;
RUNDET          - CREATE A STARLET PROCESS                       21-AUG-1978 19:01:37   VAX-11 MACRO X0.3-11               Page  26
01.11           DUMMY ACTION ROUTINES                                                                                            (1)

                                     0305   912 	.SBTTL	DUMMY ACTION ROUTINES
                                     0305   913
                                     0305   914 ;
                                     0305   915 ; DUMMY ACTION ROUTINES FOR:
                                     0305   916 ;
                                     0305   917 ;		ACCOUNTING_MESSAGE
                                     0305   918 ;		AUTHORIZE
                                     0305   919 ;		RESOURCE_WAIT,
                                     0305   920 ;		SERVICE_FAILURE,
                                     0305   921 ;		SWAP_MODE
                                     0305   922 ;
                                     0305   923
                                     0305   924 ACCO:					;
                                     0305   925 AUTH:					;
                                     0305   926 RESO:					;
                                     0305   927 SERV:					;
                                     0305   928 SWAP:					;
                               0000  0305   929 	.WORD	0			; DUMMY ENTRY MASK
                                 04  0307   930 	RET				;
RUNDET          - CREATE A STARLET PROCESS                       21-AUG-1978 19:01:37   VAX-11 MACRO X0.3-11               Page  27
01.11           ACTION ROUTINES - TIME-BASED QUALIFIERS                                                                          (1)

                                     0308   932 	.SBTTL	ACTION ROUTINES - TIME-BASED QUALIFIERS
                                     0308   933
                                     0308   934 ;
                                     0308   935 ; ACTION ROUTINES FOR TIME-BASED SCHEDULE REQUESTS:
                                     0308   936 ;
                                     0308   937 ;	DELAY PROCESS INTIATION
                                     0308   938 ;	ESTABLISH RESCHEDULE INTERVAL
                                     0308   939 ;	SCHEDULE PROCESS WAKEUP
                                     0308   940 ;
                                     0308   941 ; INTERVAL - PERIODICALLY RESCHEDULE PROCESS EXECUTION
                                     0308   942 ;
                                     0308   943
                                     0308   944 	.ENABL	LSB
                                     0308   945
                                     0308   946 INTE:					;
                               0006  0308   947 	.WORD	^M<R1,R2>		; ENTRY MASK
                 000001D8'EF     9F  030A   948 	PUSHAB	RUN_Q_REPT		; PUSH ADDRESS OF REPETITION RATE
                          08     11  0310   949 	BRB	10$			;
                                     0312   950
                                     0312   951 ;
                                     0312   952 ; DELAY PROCESS EXECUTION
                                     0312   953 ;
                                     0312   954
                                     0312   955 DELA:					;
                               0006  0312   956 	.WORD	^M<R1,R2>		; ENTRY MASK
                 000001E0'EF     9F  0314   957 	PUSHAB	RUN_Q_TIME		; PUSH ADDRESS OF TIME QUADWORD
                                     031A   958 10$:					;
            52   00000000'EF     9E  031A   959 	MOVAB	LIB$CVT_DTIME,R2	; SETUP ENTRY POINT ADDRESS
                          0F     11  0321   960 	BRB	20$			;
                                     0323   961
                                     0323   962 ;
                                     0323   963 ; SCHEDULE - SCHEDULE PROCESS WAKEUP
                                     0323   964 ;
                                     0323   965
                                     0323   966 SCHE:					;
                               0006  0323   967 	.WORD	^M<R1,R2>		; ENTRY MASK
                 000001E0'EF     9F  0325   968 	PUSHAB	RUN_Q_TIME		; PUSH ADDRESS OF TIME QUADWORD
            52   00000000'EF     9E  032B   969 	MOVAB	LIB$CVT_TIME,R2		; GET ADDRESS OF ROUTINE
                                     0332   970 20$:					;
                                     0332   971 	CONVERTVAL	ASCVAL		; CONVERT TIME STRING
                 000000DC'EF     9F  0345   972 	PUSHAB	ASCVAL+CLI$W_RQSIZE	; PUSH ADDRESS OF STRING DESCRIPTOR
            62            02     FB  034B   973 	CALLS	#2,(R2)			; CALL CONVERSION ROUTINE
            01            50     E9  034E   974 	BLBC	R0,30$			; IF LBC EXIT
                                 04  0351   975 	RET				; RETURN TO CALLER
                                     0352   976 30$:					;
                                     0352   977 	SYNTAXERR	R0,ASCVAL	; REPORT ERROR
                                     0361   978
                                     0361   979 	.DSABL	LSB
RUNDET          - CREATE A STARLET PROCESS                       21-AUG-1978 19:01:37   VAX-11 MACRO X0.3-11               Page  28
01.11           ACTION ROUTINE - UIC QUALIFIER                                                                                   (1)

                                     0361   981 	.SBTTL	ACTION ROUTINE - UIC QUALIFIER
                                     0361   982
                                     0361   983 ;
                                     0361   984 ; UIC QUALIFIER
                                     0361   985 ;
                                     0361   986
                                     0361   987 UIC:					;
                               0006  0361   988 	.WORD	^M<R1,R2>		;
                                     0363   989 	CONVERTVAL	ASCVAL		; CONVERT ASCII STRING
       0000'CF       0293'CF     FA  0376   990 	CALLG	W^UICARG,W^RUN_CVTUIC	; CONVERT UIC
            01            50     E9  037D   991 	BLBC	R0,10$			; IF LBC ERROR
                                 04  0380   992 	RET				;
                                     0381   993 10$:					;
                                     0381   994 	SYNTAXERR	#CLI$_INVUIC,ASCVAL ; REPORT BAD UIC
RUNDET          - CREATE A STARLET PROCESS                       21-AUG-1978 19:01:37   VAX-11 MACRO X0.3-11               Page  29
01.11           ACTION ROUTINE ERROR EXIT HANDLERS                                                                               (1)

                                     0394   996 	.SBTTL	ACTION ROUTINE ERROR EXIT HANDLERS
                                     0394   997
                                     0394   998 ;
                                     0394   999 ; ERROR EXIT HANDLER
                                     0394  1000 ;
                                     0394  1001 ; THIS PROCEDURE IS CALLED TO PRINT AN ERROR MESSAGE AND EXIT WHENEVER A
                                     0394  1002 ; SYNTAX ERROR IS DETECTED IN A RUN COMMAND
                                     0394  1003 ;
                                     0394  1004 ; CALLING SEQUENCE:
                                     0394  1005 ;
                                     0394  1006 ;	CALL ERREXIT (DESCRIPTOR,CODE)
                                     0394  1007 ;
                                     0394  1008 ; PARAMETER DESCRIPTIONS:
                                     0394  1009 ;
                                     0394  1010 ;	DESCRIPTOR=ADDRESS OF QUALIFIER DESCRIPTOR, CLI$W_RQSIZE IS THE
                                     0394  1011 ;	           OFFSET TO A QUAD-WORD STRING DESCRIPTOR FOR THE ERRONEOUS
                                     0394  1012 ;		   SUBSTRING.
                                     0394  1013 ;
                                     0394  1014 ;	CODE=CLI ERROR CODE
                                     0394  1015 ;
                                     0394  1016 ; IMPLICIT INPUTS:
                                     0394  1017 ;
                                     0394  1018 ;	CMLDSC - QUALIFIER DESCRIPTOR FOR COMMAND LINE
                                     0394  1019 ;
                                     0394  1020 ;	FACNAM - ADDRESS OF FACILITY NAME
                                     0394  1021 ;
                                     0394  1022
                                     0394  1023 	.ENABL	LSB
                                     0394  1024
                                     0394  1025 ERREXIT:				;
                               0004  0394  1026 	.WORD	^M<R2>			;
            52         08 AC     D0  0396  1027 	MOVL	8(AP),R2		; GET THE CODE
                                     039A  1028 	INSEV	ERROR,R2		; SET SEVERITY TO ERROR
                          52     DD  039F  1029 	PUSHL	R2			; PUSH THE CODE
                 00000080'EF     9F  03A1  1030 	PUSHAB	CMLDSC			; PUSH ADDRESS OF COMMAND LINE DESCRIPTOR
                       04 BC     9F  03A7  1031 	PUSHAB	@4(AP)			; PUSH ADDRESS OF ERROR SEGMENT
                 000001FB'EF     9F  03AA  1032 	PUSHAB	FACNAM			; PUSH ADDRESS OF FACILITY NAME
   00000000'EF            04     FB  03B0  1033 	CALLS	#4,LIB$PUTCLIMSG	; OUTPUT CLI MESSAGE
            07            50     E9  03B7  1034 	BLBC	R0,10$			; IF LBC DISPLAY STATUS ON EXIT
                                     03BA  1035 ERREXIT1:				;
            50            52     D0  03BA  1036 	MOVL	R2,R0			; GET THE STATUS
            50            1C     E2  03BD  1037 	BBSS	#STS$V_INHIB_MSG,R0,10$	; INHIBIT CLI STATUS DISPLAY
                          00         03C0
                                     03C1  1038 10$:					;
                                     03C1  1039 	INSEV	ERROR,R0		; FORCE ERROR SEVERITY
                                     03C6  1040 	$EXIT_S	R0			; EXIT WITH STATUS
                                     03CF  1041
                                     03CF  1042 	.END	RUN_DETACHED
RUNDET          - CREATE A STARLET PROCESS                       21-AUG-1978 19:01:37   VAX-11 MACRO X0.3-11               Page  30
SYMBOL TABLE                                                                                                                     (1)

$$$            = 00000003            CLI$K_GETOPT   = 00000003            CLI$M_ABSADR   = 00000002
$$$.           = 00000001            CLI$K_GETQUAL  = 00000002            CLI$M_ALLOCCUR = 00000001
$$$0           = 00000275 R     06   CLI$K_INITPRS  = 00000000            CLI$M_BATCH    = 00000008
$$$D           = 0000019C R     03   CLI$K_INPSPEC  = 00000001            CLI$M_CONCATINP= 00000002
$$$END         = 00000001            CLI$K_INPUT1   = 00000010            CLI$M_DBGEXCP  = 00010000
$$$FL0         = 00010000            CLI$K_INPUT2   = 00000011            CLI$M_DBGTRU   = 00000002
$$$FL1         = 00000000            CLI$K_INPUT3   = 00000012            CLI$M_DEBUG    = 00000001
$$$GBL         = 00000000            CLI$K_INPUT4   = 00000013            CLI$M_DUMMY    = 00000002
$$$L           = 00000003            CLI$K_KEYVAL   = 00000043            CLI$M_EXPNAM   = 00000004
$$$POS         = FFFFFFF0            CLI$K_KEYWORD  = 00000042            CLI$M_INDIRECT = 00000010
$$ARGS         = 00000003            CLI$K_NUMERVAL = 00000040            CLI$M_KEYVALU  = 00000002
$$T1           = 00000001            CLI$K_OUTPUT1  = 00000020            CLI$M_LASTVAL  = 00000001
$B             = 000000A0 R     04   CLI$K_OUTPUT2  = 00000021            CLI$M_MOREINP  = 00000004
$CLI.          = 0000025E R     06   CLI$K_OUTPUT3  = 00000022            CLI$M_MOREVALS = 00000001
$CLI..         = 00000275 R     06   CLI$K_OUTPUT4  = 00000023            CLI$M_PARMDEF  = 00000008
$E             = 000000A5 R     04   CLI$K_OUTSPEC  = 00000002            CLI$M_PARMPRS  = 00000001
$Q             = 0000003C R     09   CLI$K_PARDONE  = 00000003            CLI$M_PARMREQ  = 00000001
$QUALNUM$      = 0000001D            CLI$K_QDBITS     00000014            CLI$M_QDEXPA   = 00000004
ACCO             00000305 R     07   CLI$K_QUALDEF    00000014            CLI$M_QDUSRV   = 00000002
ASCVAL           000000D4 R     03   CLI$K_REQDESC    0000001C            CLI$M_QUALEXP  = 00000002
AST_             000001C0 R     07   CLI$K_RUN_ACCO = 0000000E            CLI$M_QUALTRU  = 00000001
AUTH             00000305 R     07   CLI$K_RUN_AST_ = 0000001A            CLI$M_TRMVRBLV = 00000300
BIT...         = 00000008            CLI$K_RUN_AUTH = 00000018            CLI$M_VERIFY   = 00000004
BUFF             000001CA R     07   CLI$K_RUN_BUFF = 0000000F            CLI$M_VFYINP   = 00000020
CLI$A_ABSACT     00000014            CLI$K_RUN_DEBU = 00000017            CLI$Q_QDVALDESC  00000004
CLI$A_ERRACT     00000004            CLI$K_RUN_DELA = 00000001            CLI$Q_RQDESC     00000008
CLI$A_FLSACT     00000010            CLI$K_RUN_ERRO = 00000002            CLI$S_PRITYP   = 00000004
CLI$A_IMGFILED   00000010            CLI$K_RUN_FILE = 00000011            CLI$S_SUBTYP   = 00000004
CLI$A_IMGHDADR   0000000C            CLI$K_RUN_INPU = 00000003            CLI$S_TRMVRBLV = 00000002
CLI$A_PROGXFER   00000004            CLI$K_RUN_INTE = 00000004            CLI$V_ABSADR   = 00000001
CLI$A_PRSACT     00000010            CLI$K_RUN_IO_B = 0000001B            CLI$V_ALLOCCUR = 00000000
CLI$A_QDVALADR   00000008            CLI$K_RUN_IO_D = 0000001C            CLI$V_BATCH    = 00000003
CLI$A_QUALST     00000018            CLI$K_RUN_MAIL = 00000019            CLI$V_CONCATINP= 00000001
CLI$A_RQADDR     0000000C            CLI$K_RUN_MAXI = 00000015            CLI$V_DBGEXCP  = 00000010
CLI$A_TRUACT     0000000C            CLI$K_RUN_OUTP = 00000005            CLI$V_DBGTRU   = 00000001
CLI$A_UTILSERV   00000008            CLI$K_RUN_PAGE = 00000012            CLI$V_DEBUG    = 00000000
CLI$B_BITNUM     00000001            CLI$K_RUN_PRIO = 00000006            CLI$V_DUMMY    = 00000001
CLI$B_QDBLKSIZ   00000000            CLI$K_RUN_PRIV = 00000007            CLI$V_EXPNAM   = 00000002
CLI$B_QDCODE     00000001            CLI$K_RUN_PROC = 00000008            CLI$V_INDIRECT = 00000004
CLI$B_QDFLGS     00000002            CLI$K_RUN_QUEU = 00000013            CLI$V_KEYVALU  = 00000001
CLI$B_QDSTAT     00000003            CLI$K_RUN_RESO = 00000009            CLI$V_LASTVAL  = 00000000
CLI$B_RQFLGS     00000002            CLI$K_RUN_SCHE = 0000000A            CLI$V_MOREINP  = 00000002
CLI$B_RQINDX     00000001            CLI$K_RUN_SERV = 0000000B            CLI$V_MOREVALS = 00000000
CLI$B_RQSTAT     00000003            CLI$K_RUN_SUBP = 00000014            CLI$V_PARMDEF  = 00000003
CLI$B_RQTYPE     00000000            CLI$K_RUN_SWAP = 0000000C            CLI$V_PARMPRS  = 00000000
CLI$C_QDBITS     00000014            CLI$K_RUN_TIME = 00000010            CLI$V_PARMREQ  = 00000000
CLI$C_QUALDEF    00000014            CLI$K_RUN_UIC  = 0000000D            CLI$V_PRITYP   = 00000004
CLI$C_REQDESC    0000001C            CLI$K_RUN_WORK = 00000016            CLI$V_QDEXPA   = 00000002
CLI$C_WORKAREA   00000080            CLI$K_UTILOPR  = 00000000            CLI$V_QDUSRV   = 00000001
CLI$K_ASCIIVAL = 00000041            CLI$K_VALCONV  = 00000004            CLI$V_QUALEXP  = 00000001
CLI$K_CLISERV  = 00000005            CLI$K_WORKAREA   00000080            CLI$V_QUALTRU  = 00000000
CLI$K_ENDPRM1  = 00000030            CLI$L_CLIFLAG    00000018            CLI$V_SUBTYP   = 00000000
CLI$K_ENDPRM2  = 00000031            CLI$L_INIARGCNT  00000000            CLI$V_TRMVRBLV = 00000008
CLI$K_ENDPRM3  = 00000032            CLI$L_LINKFLAG   00000014            CLI$V_VERIFY   = 00000002
CLI$K_ENDPRM4  = 00000033            CLI$L_RQVALU     0000000C            CLI$V_VFYINP   = 00000005
CLI$K_FILSPEC  = 00000044            CLI$L_USRVAL     00000014            CLI$W_QDVALSIZ   00000004
CLI$K_GETCMD   = 00000001            CLI$L_WORKAREA   00000000            CLI$W_RQSIZE     00000008
RUNDET          - CREATE A STARLET PROCESS                       21-AUG-1978 19:01:37   VAX-11 MACRO X0.3-11               Page  31
SYMBOL TABLE                                                                                                                     (1)

CLI$W_SERVCOD    00000001            CLI$_OVRFLW    = 00038160            INTE             00000308 R     07
CLI$_ABFNAM    = 000381B8            CLI$_PARMDEL   = 00038110            IO_B             000001DE R     07
CLI$_ABKEYW    = 00038000            CLI$_PROC_ID   = 0003FFF1            IO_D             000001E8 R     07
CLI$_ABVERB    = 00038008            CLI$_QUEJOBCRE = 0003FFF9            JPI$C_ADRTYPE  = 00000001
CLI$_BADRET    = 00038198            CLI$_REQPRMABS = 00038812            JPI$C_CTLTYPE  = 00000002
CLI$_BADTEXT   = 000381B0            CLI$_RSLOVF    = 00038118            JPI$C_LISTEND  = 00000000
CLI$_BUFOVF    = 00038018            CLI$_SKPDAT    = 00038120            JPI$C_PCBTYPE  = 00000003
CLI$_COMPLX    = 00038020            CLI$_SPARE0    = 00038010            JPI$C_PHDTYPE  = 00000004
CLI$_CONFQUAL  = 00038802            CLI$_SPARE1    = 00038058            JPI$_ACCOUNT   = 00000203
CLI$_CREQUEJOB = 0003884A            CLI$_STKOVF    = 00038128            JPI$_APTCNT    = 0000030A
CLI$_DEFOVF    = 00038028            CLI$_SUBMITERR = 00038852            JPI$_ASTACT    = 00000300
CLI$_DEVALSPL  = 0003885A            CLI$_SYMDEL    = 00038130            JPI$_ASTCNT    = 0000030E
CLI$_DEVNOTFOR = 0003887A            CLI$_SYMOVF    = 00038138            JPI$_ASTEN     = 00000301
CLI$_DEVNOTSPL = 00038862            CLI$_UNDFIL    = 00038188            JPI$_ASTLM     = 00000409
CLI$_DIRECT    = 00038030            CLI$_UNDSYM    = 00038140            JPI$_BIOCNT    = 0000030F
CLI$_EXPSYN    = 00038038            CLI$_UNPROPARM = 00038170            JPI$_BIOLM     = 00000310
CLI$_FILOPN    = 00038190            CLI$_UNPROQUAL = 00038168            JPI$_BUFIO     = 0000040C
CLI$_ILLVAL    = 0003883A            CLI$_USGOTO    = 00038148            JPI$_BYTCNT    = 00000311
CLI$_IMCHNG    = 00038040            CLI$_VALCNVERR = 00038832            JPI$_BYTLM     = 0000031A
CLI$_IMGFNF    = 00038872            CLI$_VALREQ    = 00038150            JPI$_CPULIM    = 0000040D
CLI$_INSFPRM   = 00038048            CLIWORK          00000000 R     03   JPI$_CPUTIM    = 00000407
CLI$_INVKEY    = 00038178            CMLDSC           00000080 R     03   JPI$_CURPRIV   = 00000400
CLI$_INVQUAL   = 0003880A            CREPRC           00000138 RG    03   JPI$_DFPFC     = 00000406
CLI$_INVQUALNUM= 0003881A            CREPRC$_BASPRI = 00000024            JPI$_DFWSCNT   = 00000403
CLI$_INVREQTYP = 00038822            CREPRC$_ERROR  = 00000014            JPI$_DIOCNT    = 00000312
CLI$_INVRSP    = 00038180            CREPRC$_IMAGE  = 00000008            JPI$_DIOLM     = 00000313
CLI$_INVUIC    = 000381A8            CREPRC$_INPUT  = 0000000C            JPI$_DIRIO     = 0000040B
CLI$_IVCHAR    = 00038050            CREPRC$_MBXUNT = 0000002C            JPI$_EFCS      = 00000317
CLI$_IVDEVTYPE = 0003886A            CREPRC$_NARGS  = 0000000C            JPI$_EFCU      = 00000318
CLI$_IVFNAM    = 000381C0            CREPRC$_OUTPUT = 00000010            JPI$_EFWM      = 00000316
CLI$_IVKEYW    = 00038060            CREPRC$_PIDADR = 00000004            JPI$_EXCVEC    = 00000100
CLI$_IVOPER    = 00038068            CREPRC$_PRCNAM = 00000020            JPI$_FILCNT    = 00000314
CLI$_IVPROT    = 00038070            CREPRC$_PRVADR = 00000018            JPI$_FILLM     = 0000040F
CLI$_IVQLOC    = 00038078            CREPRC$_QUOTA  = 0000001C            JPI$_FINALEXC  = 00000101
CLI$_IVSYMB    = 00038080            CREPRC$_STSFLG = 00000030            JPI$_FREP0VA   = 00000404
CLI$_IVVALU    = 00038088            CREPRC$_UIC    = 00000028            JPI$_FREP1VA   = 00000405
CLI$_IVVERB    = 00038090            CREPRC_V_BATCH = 00000005            JPI$_GPGCNT    = 0000030C
CLI$_MAXPARM   = 00038098            CREPRC_V_HIBER = 00000006            JPI$_GRP       = 00000308
CLI$_MULKEY    = 000381A0            CREPRC_V_NOACNT= 00000004            JPI$_LASTADR   = 00000102
CLI$_NOATFIL   = 000380A0            CREPRC_V_NOAUTH= 00000007            JPI$_LASTCTL   = 00000207
CLI$_NOCCAT    = 000380A8            CREPRC_V_NOSWAP= 00000003            JPI$_LASTPCB   = 0000031D
CLI$_NOCOMD    = 000380B0            CREPRC_V_NOWAIT= 00000001            JPI$_LASTPHD   = 00000412
CLI$_NOKEYW    = 000380B8            CREPRC_V_SERV  = 00000002            JPI$_LOGINTIM  = 00000206
CLI$_NOLIST    = 000380C0            DELA             00000312 R     07   JPI$_MEM       = 00000307
CLI$_NOOPTPRS  = 00038842            DFNAM            0000023F R     03   JPI$_OWNER     = 00000303
CLI$_NOQUAL    = 000380C8            DFNAMSZ        = 00000004            JPI$_PAGEFLTS  = 0000040A
CLI$_NORMAL    = 00030001            ERREXIT          00000394 R     07   JPI$_PGFLQUOTA = 0000040E
CLI$_NOTNEG    = 000380D8            ERREXIT1         000003BA R     07   JPI$_PID       = 00000319
CLI$_NOVALU    = 000380D0            ERRO             00000257 R     07   JPI$_PPGCNT    = 0000030D
CLI$_NOVALUE   = 0003882A            FACNAM           000001FB R     03   JPI$_PRCCNT    = 0000031B
CLI$_NULFIL    = 000380E0            FILDESC          0000010C R     03   JPI$_PRCLM     = 00000408
CLI$_NUMBER    = 000380E8            FILE             000001D4 R     07   JPI$_PRCNAM    = 0000031C
CLI$_ONCOMD    = 000380F0            FLAGS          = 00000008            JPI$_PRI       = 00000302
CLI$_ONERR     = 000380F8            GBL...         = 00000000            JPI$_PRIB      = 00000309
CLI$_ONEVAL    = 00038158            GETJPI           000001A8 R     03   JPI$_PROCPRIV  = 00000204
CLI$_ONLEVL    = 00038100            INIPRS           0000009C R     03   JPI$_STATE     = 00000306
CLI$_ONOVF     = 00038108            INPU             00000260 R     07   JPI$_STS       = 00000305
RUNDET          - CREATE A STARLET PROCESS                       21-AUG-1978 19:01:37   VAX-11 MACRO X0.3-11               Page  32
SYMBOL TABLE                                                                                                                     (1)

JPI$_TMBU      = 0000030B            PRO_V_CONCAT   = 00000000            QUA_M_VERB     = 00000008
JPI$_TQCNT     = 00000315            PRO_V_IMPCAT   = 00000001            QUA_S_MAXPARM  = 00000004
JPI$_TQLM      = 00000410            PRO_V_LIST     = 00000002            QUA_S_MINPARM  = 00000004
JPI$_UIC       = 00000304            PRO_V_OPTION   = 00000003            QUA_V_BATDEF   = 00000008
JPI$_USERNAME  = 00000202            PRO_V_REQ      = 00000004            QUA_V_CHNGLIST = 00000000
JPI$_VIRTPEAK  = 00000200            PRO_V_STRING   = 00000005            QUA_V_DEFTRUE  = 00000007
JPI$_VOLUMES   = 00000205            PRV$V_ALLSPOOL = 00000004            QUA_V_FILE     = 00000002
JPI$_WSAUTH    = 00000401            PRV$V_BUGCHK   = 00000017            QUA_V_IMAGE    = 0000000A
JPI$_WSPEAK    = 00000201            PRV$V_CMEXEC   = 00000001            QUA_V_INTDEF   = 00000009
JPI$_WSQUOTA   = 00000402            PRV$V_CMKRNL   = 00000000            QUA_V_KEYVAL   = 0000000E
JPI$_WSSIZE    = 00000411            PRV$V_DETACH   = 00000005            QUA_V_LOCALKEY = 00000001
KEYARG           00000128 R     03   PRV$V_DIAGNOSE = 00000006            QUA_V_MAXPARM  = 00000004
KEYLST           00000000 R     05   PRV$V_EXQUOTA  = 00000013            QUA_V_MINPARM  = 00000000
LIB$CVT_DTIME    ********   X   07   PRV$V_GROUP    = 00000008            QUA_V_NEG      = 00000006
LIB$CVT_TIME     ********   X   07   PRV$V_GRPNAM   = 00000003            QUA_V_ONEVAL   = 0000000D
LIB$PUTCLIMSG    ********   X   07   PRV$V_LOG_IO   = 00000007            QUA_V_OUTPUT   = 0000000B
MAIL             0000019F R     07   PRV$V_MOUNT    = 00000011            QUA_V_PARM     = 00000004
MAXI             000001F2 R     07   PRV$V_NETMBX   = 00000014            QUA_V_VAL      = 00000005
NQUOTA         = 0000000B            PRV$V_NOACNT   = 00000009            QUA_V_VALREQ   = 0000000C
NUMERCVAL        000000F0 R     03   PRV$V_OPER     = 00000012            QUA_V_VERB     = 00000003
OUTP             00000269 R     07   PRV$V_PHY_IO   = 00000016            QUA_W_FLAGS      00000003
PAGE             000001FC R     07   PRV$V_PRMCEB   = 0000000A            QUA_W_PROMPT     00000009
PARSARG          0000022F R     03   PRV$V_PRMGBL   = 00000018            QUA_W_QUALIST    00000006
PARSBUFLGH     = 00000040            PRV$V_PRMMBX   = 0000000B            QUEU             00000206 R     07
PARSCMD          00000092 R     07   PRV$V_PSWAPM   = 0000000C            QUOLST           00000000 R     08
PARSDFNAM        00000283 R     03   PRV$V_SETPRI   = 0000000D            QUOTBL           00000000 R     09
PARSDON          000000B8 R     03   PRV$V_SETPRV   = 0000000E            RESO             00000305 R     07
PARSFIL          0000017F R     07   PRV$V_SYSGBL   = 00000019            RUNQUAL          00000000 R     06
PARSOUTBF        00000243 R     03   PRV$V_SYSNAM   = 00000002            RUNSTR           000001F8 R     03
PARSOUTP         0000028B R     03   PRV$V_TMPMBX   = 0000000F            RUN_A_ARGPTR   = 00000008
PIDMSG           000001E8 R     03   PRV$V_VOLPRO   = 00000015            RUN_CVTUIC       ********   X   07
PQL$_ASTLM     = 00000001            PRV$V_WORLD    = 00000010            RUN_DETACHED     00000000 R     07
PQL$_BIOLM     = 00000002            PUTMSG$_ACTRTN = 00000008            RUN_D_ERROR      00000178 R     03
PQL$_BYTLM     = 00000003            PUTMSG$_FACNAM = 0000000C            RUN_D_INPUT      00000184 R     03
PQL$_CPULM     = 00000004            PUTMSG$_MSGVEC = 00000004            RUN_D_OUTPUT     00000190 R     03
PQL$_DIOLM     = 00000005            PUTMSG$_NARGS  = 00000003            RUN_D_PRCNAM     0000019C R     03
PQL$_FILLM     = 00000006            QTB_ENTRYSIZE  = 00000006            RUN_ERR_CREPRC   00000043 R     07
PQL$_LENGTH    = 0000000C            QUA_B_DEFVAL     00000002            RUN_ERR_SCHDWK   0000004A R     07
PQL$_LISTEND   = 00000000            QUA_B_IMAGE      00000005            RUN_ERR_UNEXP    0000003C R     07
PQL$_PGFLQUOTA = 00000007            QUA_B_INDEX      00000001            RUN_L_PID      = 0000020F R     03
PQL$_PRCLM     = 00000008            QUA_B_OFFSET     00000000            RUN_L_STSFLG     00000174 R     03
PQL$_TQELM     = 00000009            QUA_B_PARMCNT    00000008            RUN_M_DFSTS    = 0000009A
PQL$_WSDEFAULT = 0000000B            QUA_G_CHNGLST    00000006            RUN_PARSCMD      00000070 RG    07
PQL$_WSQUOTA   = 0000000A            QUA_M_BATDEF   = 00000100            RUN_PARSFIL      ********   X   07
PRIO             000002E4 R     07   QUA_M_CHNGLIST = 00000001            RUN_Q_DESCR    = 00000000
PRIV             00000298 R     07   QUA_M_DEFTRUE  = 00000080            RUN_Q_PRVFLAGS   0000016C R     03
PROC             00000272 R     07   QUA_M_FILE     = 00000004            RUN_Q_REPT       000001D8 R     03
PROCID           00000203 R     03   QUA_M_IMAGE    = 00000400            RUN_Q_TIME       000001E0 R     03
PRO_B_FLAGS      00000001            QUA_M_INTDEF   = 00000200            RUN_SRCKEY       ********   X   07
PRO_B_PROMPT     00000000            QUA_M_KEYVAL   = 00004000            SAMEKEY          000001A4 R     05
PRO_K_LENGTH     00000002            QUA_M_LOCALKEY = 00000002            SCHDWK           000001C4 RG    03
PRO_M_CONCAT   = 00000001            QUA_M_NEG      = 00000040            SCHDWK$_DAYTIM = 0000000C
PRO_M_IMPCAT   = 00000002            QUA_M_ONEVAL   = 00002000            SCHDWK$_NARGS  = 00000004
PRO_M_LIST     = 00000004            QUA_M_OUTPUT   = 00000800            SCHDWK$_PIDADR = 00000004
PRO_M_OPTION   = 00000008            QUA_M_PARM     = 00000010            SCHDWK$_PRCNAM = 00000008
PRO_M_REQ      = 00000010            QUA_M_VAL      = 00000020            SCHDWK$_REPTIM = 00000010
PRO_M_STRING   = 00000020            QUA_M_VALREQ   = 00001000            SCHE             00000323 R     07
RUNDET          - CREATE A STARLET PROCESS                       21-AUG-1978 19:01:37   VAX-11 MACRO X0.3-11               Page  33
SYMBOL TABLE                                                                                                                     (1)

SERV             00000305 R     07   SS$_ENDOFFILE  = 00000870            SS$_IVSTSFLG   = 0000017C
SRVCOD           00000227 R     03   SS$_ENDOFTAPE  = 00000878            SS$_IVTIME     = 00000184
SRVERR           00000223 R     03   SS$_ENDOFUSRLBL= 00000970            SS$_LCKPAGFUL  = 000000D4
SRVMSG           00000213 R     03   SS$_EXQUOTA    = 0000001C            SS$_LENVIO     = 0000018C
SS$_ABORT      = 0000002C            SS$_EXTIDXFILE = 00000880            SS$_LKWSETFUL  = 00000194
SS$_ACCONFLICT = 00000800            SS$_FCPREADERR = 00000888            SS$_MBFULL     = 000008D8
SS$_ACCVIO     = 0000000C            SS$_FCPREPSTN  = 00000988            SS$_MBTOOSML   = 0000019C
SS$_ACPVAFUL   = 000002FC            SS$_FCPREWNDERR= 00000890            SS$_MCHECK     = 000002BC
SS$_ARTRES     = 00000474            SS$_FCPSPACERR = 00000898            SS$_MEDOFL     = 000001A4
SS$_ASTFLT     = 0000040C            SS$_FCPWRITERR = 000008A0            SS$_MSGNOTFND  = 00000621
SS$_BADATTRIB  = 00000034            SS$_FILACCERR  = 0000009C            SS$_MTLBLLONG  = 00000304
SS$_BADCHKSUM  = 00000808            SS$_FILALRACC  = 000000A4            SS$_MUSTCLOSEFL= 00000948
SS$_BADESCAPE  = 0000003C            SS$_FILELOCKED = 000008A8            SS$_NOAQB      = 00000314
SS$_BADFILEHDR = 00000810            SS$_FILENUMCHK = 000008B0            SS$_NODATA     = 000001AC
SS$_BADFILENAME= 00000818            SS$_FILESEQCHK = 000008B8            SS$_NOHANDLER  = 000008F8
SS$_BADFILEVER = 00000820            SS$_FILESTRUCT = 000008C0            SS$_NOHOMEBLK  = 000008E0
SS$_BADIMGHDR  = 00000044            SS$_FILNOTACC  = 000000AC            SS$_NOIOCHAN   = 000001B4
SS$_BADIRECTORY= 00000828            SS$_FILNOTCNTG = 000002AC            SS$_NOLINKS    = 0000027C
SS$_BADPARAM   = 00000014            SS$_FILNOTEXP  = 000000B4            SS$_NOLOGNAM   = 000001BC
SS$_BADSTACK   = 000002B4            SS$_FLTDIV     = 00000494            SS$_NOMBX      = 00000274
SS$_BEGOFFILE  = 00000938            SS$_FLTOVF     = 0000048C            SS$_NOMOREFILES= 00000930
SS$_BLOCKCNTERR= 00000940            SS$_FLTUND     = 0000049C            SS$_NONEXDRV   = 000001C4
SS$_BREAK      = 00000414            SS$_FORMAT     = 000000BC            SS$_NONEXPR    = 000008E8
SS$_BUFBYTALI  = 0000030C            SS$_GPTFULL    = 000000C4            SS$_NONLOCAL   = 000008F0
SS$_BUFFEROVF  = 00000601            SS$_GSDFULL    = 000000CC            SS$_NOPRIV     = 00000024
SS$_BUGCHECK   = 000002A4            SS$_HANGUP     = 000002CC            SS$_NORMAL     = 00000001
SS$_CANCEL     = 00000830            SS$_HEADERFULL = 000008C8            SS$_NOSIGNAL   = 00000900
SS$_CHANINTLK  = 0000004C            SS$_IDXFILEFULL= 000008D0            SS$_NOSOLICIT  = 00000284
SS$_CLIFRCEXT  = 00000980            SS$_ILLBLKNUM  = 000000DC            SS$_NOSUCHDEV  = 00000908
SS$_CMODSUPR   = 0000041C            SS$_ILLCNTRFUNC= 000000E4            SS$_NOSUCHFILE = 00000910
SS$_CMODUSER   = 00000424            SS$_ILLEFC     = 000000EC            SS$_NOSUCHNODE = 0000028C
SS$_COMPAT     = 0000042C            SS$_ILLIOFUNC  = 000000F4            SS$_NOSUCHSEC  = 00000978
SS$_CONTINUE   = 00000001            SS$_ILLLBLAST  = 00000968            SS$_NOTAPEOP   = 00000264
SS$_CONTROLC   = 00000651            SS$_ILLPAGCNT  = 000000FC            SS$_NOTFILEDEV = 000001CC
SS$_CONTROLO   = 00000609            SS$_ILLSEQOP   = 000002DC            SS$_NOTINTBLSZ = 000001D4
SS$_CONTROLY   = 00000611            SS$_ILLSER     = 00000104            SS$_NOTLABELMT = 000001DC
SS$_CREATED    = 00000619            SS$_ILLUSRLBLRD= 00000958            SS$_NOTMODIFIED= 00000659
SS$_CTRLERR    = 00000054            SS$_ILLUSRLBLWT= 00000960            SS$_NOTNETDEV  = 000002EC
SS$_DATACHECK  = 0000005C            SS$_INCVOLLABEL= 0000010C            SS$_NOTRAN     = 00000629
SS$_DATAOVERUN = 00000838            SS$_INSFARG    = 00000114            SS$_NOTSQDEV   = 000001E4
SS$_DEBUG      = 0000046C            SS$_INSFMEM    = 00000124            SS$_OPCCUS     = 00000434
SS$_DECOVF     = 000004A4            SS$_INSFRAME   = 0000012C            SS$_OPCDEC     = 0000043C
SS$_DEVACTIVE  = 000002C4            SS$_INSFWSL    = 0000011C            SS$_OPINCOMPL  = 000002D4
SS$_DEVALLOC   = 00000840            SS$_INTDIV     = 00000484            SS$_PAGOWNVIO  = 000001EC
SS$_DEVALRALLOC= 00000641            SS$_INTOVF     = 0000047C            SS$_PAGRDERR   = 00000444
SS$_DEVASSIGN  = 00000848            SS$_IVADDR     = 00000134            SS$_PARITY     = 000001F4
SS$_DEVFOREIGN = 00000064            SS$_IVCHAN     = 0000013C            SS$_PARTESCAPE = 000001FC
SS$_DEVICEFULL = 00000850            SS$_IVCHNLSEC  = 0000026C            SS$_PFMBSY     = 00000204
SS$_DEVMOUNT   = 0000006C            SS$_IVDEVNAM   = 00000144            SS$_PLHLDR     = 00000404
SS$_DEVNOTALLOC= 00000858            SS$_IVGSDNAM   = 0000014C            SS$_PSTFULL    = 0000020C
SS$_DEVNOTMBX  = 00000074            SS$_IVLOGNAM   = 00000154            SS$_RADRMOD    = 0000044C
SS$_DEVNOTMOUNT= 0000007C            SS$_IVLOGTAB   = 0000015C            SS$_REJECT     = 00000294
SS$_DEVOFFLINE = 00000084            SS$_IVPROTECT  = 000002F4            SS$_REMOTE     = 00000649
SS$_DIRFULL    = 00000860            SS$_IVQUOTAL   = 00000164            SS$_RESIGNAL   = 00000918
SS$_DRVERR     = 0000008C            SS$_IVSECFLG   = 0000016C            SS$_RESULTOVF  = 00000214
SS$_DUPFILENAME= 00000868            SS$_IVSECIDCTL = 000002E4            SS$_ROPRAND    = 00000454
SS$_DUPLNAM    = 00000094            SS$_IVSSRQ     = 00000174            SS$_SECTBLFUL  = 0000021C
RUNDET          - CREATE A STARLET PROCESS                       21-AUG-1978 19:01:37   VAX-11 MACRO X0.3-11               Page  34
SYMBOL TABLE                                                                                                                     (1)

SS$_SSFAIL     = 0000045C            SWAP             00000305 R     07
SS$_SUBRNG     = 000004AC            SYS$CREPRC       ********   X   07
SS$_SUPERSEDE  = 00000631            SYS$EXIT         ********   X   07
SS$_TAPEPOSLOST= 00000224            SYS$GETJPI       ********   X   07
SS$_TBIT       = 00000464            SYS$PUTMSG       ********   X   07
SS$_TIMEOUT    = 0000022C            SYS$SCHDWK       ********   X   07
SS$_TOOMANYVER = 00000990            TIME             0000021A R     07
SS$_TOOMUCHDATA= 0000029C            UIC              00000361 R     07
SS$_UNASEFC    = 00000234            UICARG           00000293 R     03
SS$_UNSAFE     = 0000023C            WORK             00000224 R     07
SS$_UNWIND     = 00000920
SS$_UNWINDING  = 00000928
SS$_VASFULL    = 00000244
SS$_VECINUSE   = 0000024C
SS$_VOLINV     = 00000254
SS$_WAITUSRLBL = 00000950
SS$_WASCLR     = 00000001
SS$_WASECC     = 00000639
SS$_WASSET     = 00000009
SS$_WRITLCK    = 0000025C
SS$_WRONGACP   = 0000031C
STS$K_ERROR    = 00000002
STS$K_INFO     = 00000003
STS$K_SEVERE   = 00000004
STS$K_SUCCESS  = 00000001
STS$K_WARNING  = 00000000
STS$M_CODE     = 00007FF8
STS$M_COND_ID  = 0FFFFFF8
STS$M_CONTROL  = F0000000
STS$M_CUST_DEF = 08000000
STS$M_FAC_NO   = 0FFF0000
STS$M_FAC_SP   = 00008000
STS$M_INHIB_MSG= 10000000
STS$M_MSG_NO   = 0000FFF8
STS$M_SEVERITY = 00000007
STS$M_SUCCESS  = 00000001
STS$S_CODE     = 0000000C
STS$S_COND_ID  = 00000019
STS$S_CONTROL  = 00000004
STS$S_CUST_DEF = 00000001
STS$S_FAC_NO   = 0000000C
STS$S_FAC_SP   = 00000001
STS$S_INHIB_MSG= 00000001
STS$S_MSG_NO   = 0000000D
STS$S_SEVERITY = 00000003
STS$S_SUCCESS  = 00000001
STS$V_CODE     = 00000003
STS$V_COND_ID  = 00000003
STS$V_CONTROL  = 0000001C
STS$V_CUST_DEF = 0000001B
STS$V_FAC_NO   = 00000010
STS$V_FAC_SP   = 0000000F
STS$V_INHIB_MSG= 0000001C
STS$V_MSG_NO   = 00000003
STS$V_SEVERITY = 00000000
STS$V_SUCCESS  = 00000000
SUBP             00000210 R     07
RUNDET          - CREATE A STARLET PROCESS                       21-AUG-1978 19:01:37   VAX-11 MACRO X0.3-11               Page  35
PROGRAM SECTION SYNOPSIS                                                                                                         (1)


PROGRAM SECTION SYNOPSIS

.  ABS  .        00000000      00     NOPIC   USR   CON   ABS   LCL NOSHR NOEXE NORD  NOWRT BYTE
. BLANK .        00000000      01     NOPIC   USR   CON   REL   LCL NOSHR   EXE   RD    WRT BYTE
$ABS$            00000080      02     NOPIC   USR   CON   ABS   LCL NOSHR   EXE   RD    WRT BYTE
RWDATA           0000029F      03     NOPIC   USR   CON   REL   LCL NOSHR   EXE   RD    WRT BYTE
KEYWRD           000000A5      04     NOPIC   USR   CON   REL   LCL NOSHR   EXE   RD    WRT BYTE
KEYDESC          00000238      05     NOPIC   USR   CON   REL   LCL NOSHR   EXE   RD    WRT BYTE
QUALS            00000276      06     NOPIC   USR   CON   REL   LCL NOSHR   EXE   RD    WRT BYTE
RUN              000003CF      07     NOPIC   USR   CON   REL   LCL NOSHR   EXE   RD    WRT LONG
QUOLST           00000022      08     NOPIC   USR   CON   REL   LCL NOSHR   EXE   RD    WRT BYTE
QUOTBL           00000042      09     NOPIC   USR   CON   REL   LCL NOSHR   EXE   RD    WRT BYTE


THERE WERE NO ERRORS OR WARNINGS.
676. BYTES LEFT IN FREE MEMORY POOL.
242. BYTES OF RECLAIMED MEMORY.
OBJ$:RUNDET,LIS$:RUNDET/-SP=EXECML$/ML,LIB$:CLIUTL/ML,SRC$:RUNDET
186 MLB DIR RDS - 1160 GETS TO DEFINE 45 MACROS. 152 INTER. FILE WRITES.
