SET$OPT_DISP    - SET OPTION DISPATCHER                          21-AUG-1978 19:04:41   VAX-11 MACRO X0.3-11               Page   0
TABLE OF CONTENTS

   (2)      49  DECLARATIONS
   (3)     126  SET COMMAND OPTION DISPATCHER
SET$OPT_DISP    - SET OPTION DISPATCHER                          21-AUG-1978 19:04:41   VAX-11 MACRO X0.3-11               Page   1
X0100                                                                                                                            (1)

                                     0000     1 	.TITLE	SET$OPT_DISP - SET OPTION DISPATCHER
                                     0000     2 	.IDENT	/X0100/
                                     0000     3
                                     0000     4 ;
                                     0000     5 ; COPYRIGHT (C) 1977
                                     0000     6 ; DIGITAL EQUIPMENT CORPORATION, MAYNARD, MASSACHUSETTS 01754
                                     0000     7 ;
                                     0000     8 ; THIS SOFTWARE IS FURNISHED  UNDER A LICENSE FOR USE ONLY ON A SINGLE
                                     0000     9 ; COMPUTER  SYSTEM AND  MAY BE  COPIED ONLY WITH  THE INCLUSION OF THE
                                     0000    10 ; ABOVE COPYRIGHT NOTICE.  THIS SOFTWARE, OR ANY OTHER COPIES THEREOF,
                                     0000    11 ; MAY NOT BE PROVIDED OR  OTHERWISE MADE AVAILABLE TO ANY OTHER PERSON
                                     0000    12 ; EXCEPT FOR USE ON SUCH SYSTEM AND TO ONE WHO AGREES TO THESE LICENSE
                                     0000    13 ; TERMS.  TITLE TO AND  OWNERSHIP OF THE  SOFTWARE  SHALL AT ALL TIMES
                                     0000    14 ; REMAIN IN DEC.
                                     0000    15 ;
                                     0000    16 ; THE INFORMATION IN THIS SOFTWARE IS SUBJECT TO CHANGE WITHOUT NOTICE
                                     0000    17 ; AND SHOULD  NOT BE CONSTRUED  AS A COMMITMENT  BY DIGITAL  EQUIPMENT
                                     0000    18 ; CORPORATION.
                                     0000    19 ;
                                     0000    20 ; DEC ASSUMES  NO  RESPONSIBILITY  FOR  THE USE OR  RELIABILITY OF ITS
                                     0000    21 ; SOFTWARE ON EQUIPMENT WHICH IS NOT SUPPLIED BY DEC.
                                     0000    22 ;
                                     0000    23
                                     0000    24 ;++
                                     0000    25 ; FACILITY:	SET COMMAND
                                     0000    26 ;
                                     0000    27 ; ABSTRACT:	SET COMMAND OPTION DISPACTHER :
                                     0000    28 ;			THIS MODULE DECODES THE OPTION SPECIFIED IN THE
                                     0000    29 ;			COMMAND LINE AND DISPATCHES TO THE APPROPRIATE
                                     0000    30 ;			ROUTINE TO PROCESS THE OPTION.
                                     0000    31 ;			SEE FUNCTIONAL DESCRIPTION BELOW FOR A SPECIFICATION
                                     0000    32 ;			OF THE CALLING INTERFACE.
                                     0000    33 ;
                                     0000    34 ;
                                     0000    35 ; ENVIRONMENT:
                                     0000    36 ;
                                     0000    37 ;	RUNS IN USER MODE BUT REQUIRES PRIVILEGE TO CHANGE MODE TO KERNEL
                                     0000    38 ;	FOR CERTAIN SET COMMAND OPTIONS.
                                     0000    39 ;
                                     0000    40 ;
                                     0000    41 ;	AUTHOR: BEATRICE U. WALTHER,	CREATION DATE 10-OCT-1977
                                     0000    42 ;
                                     0000    43 ; MODIFIED BY:
                                     0000    44 ;
                                     0000    45 ;	, : VERSION
                                     0000    46 ; 01	-
                                     0000    47 ;--
SET$OPT_DISP    - SET OPTION DISPATCHER                          21-AUG-1978 19:04:41   VAX-11 MACRO X0.3-11               Page   2
X0100           DECLARATIONS                                                                                                     (2)

                                     0000    49 	.SBTTL	DECLARATIONS
                                     0000    50
                                     0000    51 ;
                                     0000    52 ; INCLUDE FILES:
                                     0000    53 ;
                                     0000    54
                                     0000    55 	$CLIDEF				; CLI DEFINITIONS
                                     0000    56 	$CLIDEFQUALSET			; DEFINE SET QUALIFIERS
                                     0000    57
                                     0000    58 ;
                                     0000    59 ; MACROS:
                                     0000    60 ;
                                     0000    61
                                     0000    62 ;
                                     0000    63 ; OWN STORAGE :
                                     0000    64 ;
                                     0000    65
                                 00000000    66 	.PSECT	SET$RWDATA	LONG,RD,WRT,NOEXE
                                     0000    67 ;
                                     0000    68 ;
                                     0000    69 ; DEFINE CLI CALL BACK DATA STRUCTURES
                                     0000    70 ;
                                     0000    71
                                     0000    72 SET$A_CLIWORK::				; CLI RESULT PARSE WORK AREA
                           00000080  0000    73 	.BLKB	CLI$K_WORKAREA
                                     0080    74 	.ALIGN	LONG
                                     0080    75 SET_INITPRS:				; CLI REQUEST DESCRIPTOR BLOCK
                                     0080    76 	$CLIREQDESC	-		; FOR INIT PARSE
                                     0080    77 		RQTYPE=CLI$K_INITPRS
                                     009C    78 SET_OPTDESC:				; CLI REQUEST DESCRIPTOR BLOCK
                                     009C    79 	$CLIREQDESC	-		; FOR GET OPTION
                                     009C    80 		RQTYPE=CLI$K_GETOPT,-	;
                                     009C    81 		QUALST=SET_OPTQUAL	; POINT TO LIST OF OPTIONS
                                     00B8    82 SET_OPTQUAL:				; DEFINE LIST OF OPTIONS
                                     00B8    83 	$CLIQUALDEF	-		;
                                     00B8    84 		QDCODE=CLI$K_SET_ACCO,-	; SET ACCOUNTING
                                     00B8    85 		TRUACT=SET$ACCOUNTING	;
                                     00CF    86 	$CLIQUALDEF	-		;
                                     00CF    87 		QDCODE=CLI$K_SET_PRIN,-	; SET PRINTER
                                     00CF    88 		TRUACT=SET$PRINT	;
                                     00E6    89 	$CLIQUALDEF	-		;
                                     00E6    90 		QDCODE=CLI$K_SET_QUEU,-	; SET QUEUE
                                     00E6    91 		TRUACT=SET$QUEUE	;
                                     00FD    92 	$CLIQUALDEF	-		;
                                     00FD    93 		QDCODE=CLI$K_SET_TERM,-	; SET TERMINAL
                                     00FD    94 		TRUACT=SET$TERM		;
                                     0114    95 	$CLIQUALDEF	-		;
                                     0114    96 		QDCODE=CLI$K_SET_WORK,-	; SET WORKING_SET
                                     0114    97 		TRUACT=SET$WORKING_S	;
                                     012B    98 	$CLIQUALDEF	-		;
                                     012B    99 		QDCODE=CLI$K_SET_RMS_,-	; SET RMS_DEFAULT
                                     012B   100 		TRUACT=SET$RMS		;
                                     0142   101 	$CLIQUALDEF	-		;
                                     0142   102 		QDCODE=CLI$K_SET_CARD,-	; SET CARD READER
                                     0142   103 		TRUACT=SET$CARD		;
                                     0159   104 	$CLIQUALDEF	-		;
                                     0159   105 		QDCODE=CLI$K_SET_DEVI,-	; SET DEVICE
SET$OPT_DISP    - SET OPTION DISPATCHER                          21-AUG-1978 19:04:41   VAX-11 MACRO X0.3-11               Page   3
X0100           DECLARATIONS                                                                                                     (2)

                                     0159   106 		TRUACT=SET$DEV		;
                                     0170   107 	$CLIQUALDEF	-		;
                                     0170   108 		QDCODE=CLI$K_SET_LOGI,-	; SET LOGINS
                                     0170   109 		TRUACT=SET$LOGIN	;
                                     0187   110 	$CLIQUALDEF	-		;
                                     0187   111 		QDCODE=CLI$K_SET_PROC,-	; SET PROCESS
                                     0187   112 		TRUACT=SET$PROCESS	;
                                     019E   113 SET$T_PRQUAL::
                                     019E   114 	$CLIQUALDEF	-		;
                                     019E   115 		QDCODE=CLI$K_SET_PROT,-	; SET PROTECTION
                                     019E   116 		TRUACT=SET$PROT	;
                                     01B5   117 	$CLIQUALDEF	-		;
                                     01B5   118 		QDCODE=CLI$K_SET_MAGT,-	; SET MAGTAPE
                                     01B5   119 		TRUACT=SET$MAGTAPE	;
                                     01CC   120
                                     01CC   121 	$CLIQUALDEF	END_LIST	; END OF OPTION LIST
                                     01CD   122
                                     01CD   123 SET$L_STATUS::
                           000001D1  01CD   124 	.BLKL	1			; SPACE FOR STATUS CODE
SET$OPT_DISP    - SET OPTION DISPATCHER                          21-AUG-1978 19:04:41   VAX-11 MACRO X0.3-11               Page   4
X0100           SET COMMAND OPTION DISPATCHER                                                                                    (3)

                                     01D1   126 	.SBTTL	SET COMMAND OPTION DISPATCHER
                                     01D1   127 ;++
                                     01D1   128 ; FUNCTIONAL DESCRIPTION:
                                     01D1   129 ;
                                     01D1   130 ;	THIS ROUTINE DECODES THE SET OPTION AND DISPATCHES DIRECTLY
                                     01D1   131 ;	TO THE SPECIFIC ROUTINE.
                                     01D1   132 ;
                                     01D1   133 ; CALLING SEQUENCE:
                                     01D1   134 ;
                                     01D1   135 ;	THIS ROUTINE IS CALLED BY THE CLI AS A RESULT OF THE DCL SET COMMAND
                                     01D1   136 ;
                                     01D1   137 ; INPUT PARAMETERS:
                                     01D1   138 ;
                                     01D1   139 ;	CLI$A_UTILSERV(AP)	=	CALL BACK ADDRESS FOR RESULT PARSER
                                     01D1   140 ;
                                     01D1   141 ; IMPLICIT INPUTS:
                                     01D1   142 ;
                                     01D1   143 ;	NONE
                                     01D1   144 ;
                                     01D1   145 ; OUTPUT PARAMETERS:
                                     01D1   146 ;
                                     01D1   147 ;	NONE
                                     01D1   148 ;
                                     01D1   149 ; IMPLICIT OUTPUTS:
                                     01D1   150 ;
                                     01D1   151 ;	DISPATCHES TO THE APPROPRIATE MODULE TO PROCESS THE OPTION.
                                     01D1   152 ;
                                     01D1   153 ; CALLING INTERFACE WITH THE OPTION PROCESSING MODULES:
                                     01D1   154 ;
                                     01D1   155 ;	A ROUTINE DISPATCHED TO BY THIS DISPATCHER IS PASSED THE
                                     01D1   156 ;	ADDRESS OF THE CLI UTILITY SERVICE ROUTINE EXACTLY IN THE SAME WAY
                                     01D1   157 ;	AS A ROUTINE CALLED DIRECTLY BY THE CLI. (CLI$A_UTILSERV(AP))
                                     01D1   158 ;	THEREFORE THE RETURN CALL TO THE CLI TO REQUEST ADDITIONAL PARSING
                                     01D1   159 ;	CAN BE DONE BY THE OPTION PROCESSING MODULE IN THE SAME WAY.
                                     01D1   160 ;
                                     01D1   161 ;	HOWEVER:
                                     01D1   162 ;		- THE CLI WORKING AREA HAS ALREADY BEEN DEFINED IN THE
                                     01D1   163 ;		   DISPATCHER AND HAS TO BE REFERENCED BY GLOBAL SYMBOL :
                                     01D1   164 ;			 	SET$A_CLIWORK
                                     01D1   165 ;		- THE OPTION PROCESSING MODULE SHOULD NOT REQUEST PARSE
                                     01D1   166 ;		  INITIALIZATION (INITPRS) AS THIS HAS ALREADY BEEN DONE
                                     01D1   167 ;		   IN THE DISPATCHER
                                     01D1   168 ;
                                     01D1   169 ; MESSAGE HANDLING FACILITY:
                                     01D1   170 ;
                                     01D1   171 ;	ALL SET OPTION PROCESSING MODULES SHOULD USE THE COMMON OUTPUT
                                     01D1   172 ;	FACILITIES PROVIDED IN MODULE SHOW$MSG_UTIL.
                                     01D1   173 ;
                                     01D1   174 ;	CALLABLE ENTRY POINTS ARE:
                                     01D1   175 ;		SHOW$PRINT_MSG = FORMATS AND PRINTS A MESSAGE, GIVEN A MESSAGE
                                     01D1   176 ;				 ID AND AN ARGUMENT LIST
                                     01D1   177 ;		SHOW$PRINT_LINE = PRINTS A LINE ON SYS$OUTPUT:
                                     01D1   178 ;
                                     01D1   179 ;	IT IS ALSO RECOMENDED TO USE THE COMMON OUTPUT LINE BUFFER WHERE APPLICABLE,
                                     01D1   180 ;	THE DESCRIPTOR OF WHICH IS ADDRESSED BY GLOBAL SYMBOL:
                                     01D1   181 ;		SHOW$GQ_OUT_DSC
                                     01D1   182 ;
SET$OPT_DISP    - SET OPTION DISPATCHER                          21-AUG-1978 19:04:41   VAX-11 MACRO X0.3-11               Page   5
X0100           SET COMMAND OPTION DISPATCHER                                                                                    (3)

                                     01D1   183 ; COMPLETION CODES:
                                     01D1   184 ;
                                     01D1   185 ;	AS RETURNED BY OPTION PROCESSING MODULE IN GLOBAL LOCATION:
                                     01D1   186 ;			SET$L_STATUS
                                     01D1   187
                                     01D1   188 ;
                                     01D1   189 ; SIDE EFFECTS:
                                     01D1   190 ;
                                     01D1   191 ;	NONE
                                     01D1   192 ;
                                     01D1   193 ;--
                                     01D1   194
                                 00000000   195 	.PSECT	SET$CODE BYTE,RD,NOWRT,EXE
                                     0000   196
                               0000' 0000   197 	.ENTRY	SET$OPT_DISP,0
                                     0002   198
                                     0002   199 ;
                                     0002   200 ; initialize parsing
                                     0002   201 ;
                                     0002   202
                     0000'CF     9F  0002   203 	PUSHAB	W^SET$A_CLIWORK		; ADDRESS OF CLI WORK AREA
                     0080'CF     9F  0006   204 	PUSHAB	W^SET_INITPRS		; REQUEST INIT PARSE
         08 BC            02     FB  000A   205 	CALLS 	#2,@CLI$A_UTILSERV(AP)	; AND CALL THE CLI SERVICE ROUTINE
                                     000E   206
                                     000E   207 ;
                                     000E   208 ; dispatch to option
                                     000E   209 ;
                                     000E   210
       01CD'CF   00000000'8F     D0  000E   211 	MOVL	#SS$_NORMAL,W^SET$L_STATUS
                                     0017   212 					; ASSUME SUCCESS
                     0000'CF     9F  0017   213 	PUSHAB	W^SET$A_CLIWORK		; CLI WORK AREA
                     009C'CF     9F  001B   214 	PUSHAB	W^SET_OPTDESC		; REQUEST PARSING OF COMMAND OPTION
         08 BC            02     FB  001F   215 	CALLS 	#2,@CLI$A_UTILSERV(AP)	; CALL CLI
                                     0023   216
                                     0023   217 ;
                                     0023   218 ; exit
                                     0023   219 ;
                                     0023   220
            50       01CD'CF     D0  0023   221 	MOVL	W^SET$L_STATUS,R0	; reload status returned by action routine
                                 04  0028   222 	RET				; ALL DONE
SET$OPT_DISP    - SET OPTION DISPATCHER                          21-AUG-1978 19:04:41   VAX-11 MACRO X0.3-11               Page   6
X0100           SET COMMAND OPTION DISPATCHER                                                                                    (4)

                                     0029   224 	.END	SET$OPT_DISP
SET$OPT_DISP    - SET OPTION DISPATCHER                          21-AUG-1978 19:04:41   VAX-11 MACRO X0.3-11               Page   7
SYMBOL TABLE                                                                                                                     (4)

$$$            = 00000004            CLI$K_QUALDEF    00000014            CLI$K_STQE_RELE= 00000009
$$$GBL         = 00000000            CLI$K_REQDESC    0000001C            CLI$K_STRM_BLOC= 00000001
$CLI.          = 000001B5 R     03   CLI$K_SET_ACCO = 00000001            CLI$K_STRM_BUFF= 00000002
$CLI..         = 000001CC R     03   CLI$K_SET_CARD = 00000002            CLI$K_STRM_DISK= 00000003
$QUALNUM$      = 0000000B            CLI$K_SET_CONT = 00000012            CLI$K_STRM_HASH= 00000006
BIT...         = 00000008            CLI$K_SET_DEFA = 00000004            CLI$K_STRM_INDE= 00000007
CLI$A_ABSACT     00000014            CLI$K_SET_DEVI = 00000003            CLI$K_STRM_MAGT= 00000004
CLI$A_ERRACT     00000004            CLI$K_SET_LOGI = 00000005            CLI$K_STRM_RELA= 00000008
CLI$A_FLSACT     00000010            CLI$K_SET_MAGT = 00000006            CLI$K_STRM_SEQU= 00000009
CLI$A_IMGFILED   00000010            CLI$K_SET_ON   = 00000007            CLI$K_STRM_SYST= 0000000A
CLI$A_IMGHDADR   0000000C            CLI$K_SET_PASS = 00000008            CLI$K_STRM_UNIT= 00000005
CLI$A_PROGXFER   00000004            CLI$K_SET_PRIN = 00000009            CLI$K_STTT_BROA= 00000001
CLI$A_PRSACT     00000010            CLI$K_SET_PROC = 0000000A            CLI$K_STTT_CRFI= 00000002
CLI$A_QDVALADR   00000008            CLI$K_SET_PROT = 0000000B            CLI$K_STTT_ECHO= 00000003
CLI$A_QUALST     00000018            CLI$K_SET_QUEU = 0000000C            CLI$K_STTT_EIGH= 00000004
CLI$A_RQADDR     0000000C            CLI$K_SET_RMS_ = 00000011            CLI$K_STTT_ESCA= 00000005
CLI$A_TRUACT     0000000C            CLI$K_SET_TERM = 0000000D            CLI$K_STTT_HARD= 00000006
CLI$A_UTILSERV   00000008            CLI$K_SET_UIC  = 0000000E            CLI$K_STTT_HOLD= 00000007
CLI$B_BITNUM     00000001            CLI$K_SET_VERI = 0000000F            CLI$K_STTT_HOST= 00000008
CLI$B_QDBLKSIZ   00000000            CLI$K_SET_WORK = 00000010            CLI$K_STTT_INTE= 00000009
CLI$B_QDCODE     00000001            CLI$K_STAC_DISA= 00000001            CLI$K_STTT_LA36= 0000000A
CLI$B_QDFLGS     00000002            CLI$K_STAC_ENAB= 00000002            CLI$K_STTT_LFFI= 0000000B
CLI$B_QDSTAT     00000003            CLI$K_STAC_NEW_= 00000003            CLI$K_STTT_LOCA= 0000000C
CLI$B_RQFLGS     00000002            CLI$K_STCR_026 = 00000001            CLI$K_STTT_LOWE= 0000000D
CLI$B_RQINDX     00000001            CLI$K_STCR_029 = 00000002            CLI$K_STTT_PAGE= 0000000E
CLI$B_RQSTAT     00000003            CLI$K_STDV_ERRO= 00000002            CLI$K_STTT_PARI= 0000001E
CLI$B_RQTYPE     00000000            CLI$K_STDV_SPOO= 00000001            CLI$K_STTT_PASS= 0000000F
CLI$C_QDBITS     00000014            CLI$K_STLG_INTE= 00000001            CLI$K_STTT_PERM= 00000020
CLI$C_QUALDEF    00000014            CLI$K_STLP_CR  = 00000001            CLI$K_STTT_READ= 0000001F
CLI$C_REQDESC    0000001C            CLI$K_STLP_FF  = 00000002            CLI$K_STTT_REMO= 00000010
CLI$C_WORKAREA   00000080            CLI$K_STLP_LA11= 00000005            CLI$K_STTT_SCOP= 00000011
CLI$K_ASCIIVAL = 00000041            CLI$K_STLP_LA18= 00000006            CLI$K_STTT_SCRI= 00000012
CLI$K_CLISERV  = 00000005            CLI$K_STLP_LOWE= 00000004            CLI$K_STTT_SPEE= 00000013
CLI$K_ENDPRM1  = 00000030            CLI$K_STLP_LP11= 00000007            CLI$K_STTT_TAB = 00000014
CLI$K_ENDPRM2  = 00000031            CLI$K_STLP_PAGE= 00000008            CLI$K_STTT_TTSY= 00000015
CLI$K_ENDPRM3  = 00000032            CLI$K_STLP_UNKN= 00000009            CLI$K_STTT_TYPE= 00000016
CLI$K_ENDPRM4  = 00000033            CLI$K_STLP_UPPE= 00000003            CLI$K_STTT_UNKN= 00000017
CLI$K_FILSPEC  = 00000044            CLI$K_STLP_WIDT= 0000000A            CLI$K_STTT_UPPE= 00000018
CLI$K_GETCMD   = 00000001            CLI$K_STMT_DENS= 00000001            CLI$K_STTT_VT05= 00000019
CLI$K_GETOPT   = 00000003            CLI$K_STMT_REWI= 00000002            CLI$K_STTT_VT52= 0000001A
CLI$K_GETQUAL  = 00000002            CLI$K_STMT_UNLO= 00000003            CLI$K_STTT_VT55= 0000001B
CLI$K_INITPRS  = 00000000            CLI$K_STPC_IDEN= 00000001            CLI$K_STTT_WIDT= 0000001C
CLI$K_INPSPEC  = 00000001            CLI$K_STPC_PRIO= 00000002            CLI$K_STTT_WRAP= 0000001D
CLI$K_INPUT1   = 00000010            CLI$K_STPC_RESO= 00000003            CLI$K_STWR_LIMI= 00000001
CLI$K_INPUT2   = 00000011            CLI$K_STPC_SWAP= 00000004            CLI$K_STWR_QUOT= 00000002
CLI$K_INPUT3   = 00000012            CLI$K_STPR_DEFA= 00000001            CLI$K_UTILOPR  = 00000000
CLI$K_INPUT4   = 00000013            CLI$K_STPR_DEVI= 00000003            CLI$K_VALCONV  = 00000004
CLI$K_KEYVAL   = 00000043            CLI$K_STPR_OWNE= 00000004            CLI$K_WORKAREA   00000080
CLI$K_KEYWORD  = 00000042            CLI$K_STPR_PROT= 00000002            CLI$L_CLIFLAG    00000018
CLI$K_NUMERVAL = 00000040            CLI$K_STQE_AFTE= 00000001            CLI$L_INIARGCNT  00000000
CLI$K_OUTPUT1  = 00000020            CLI$K_STQE_ENTR= 00000003            CLI$L_LINKFLAG   00000014
CLI$K_OUTPUT2  = 00000021            CLI$K_STQE_FORM= 00000004            CLI$L_RQVALU     0000000C
CLI$K_OUTPUT3  = 00000022            CLI$K_STQE_HOLD= 00000005            CLI$L_USRVAL     00000014
CLI$K_OUTPUT4  = 00000023            CLI$K_STQE_JOB_= 00000002            CLI$L_WORKAREA   00000000
CLI$K_OUTSPEC  = 00000002            CLI$K_STQE_LOWE= 00000006            CLI$M_ABSADR   = 00000002
CLI$K_PARDONE  = 00000003            CLI$K_STQE_NAME= 00000007            CLI$M_ALLOCCUR = 00000001
CLI$K_QDBITS     00000014            CLI$K_STQE_PRIO= 00000008            CLI$M_BATCH    = 00000008
SET$OPT_DISP    - SET OPTION DISPATCHER                          21-AUG-1978 19:04:41   VAX-11 MACRO X0.3-11               Page   8
SYMBOL TABLE                                                                                                                     (4)

CLI$M_CONCATINP= 00000002            PRO_B_PROMPT     00000000            SET$ACCOUNTING   ********   X   03
CLI$M_DBGEXCP  = 00010000            PRO_K_LENGTH     00000002            SET$A_CLIWORK    00000000 RG    03
CLI$M_DBGTRU   = 00000002            PRO_M_CONCAT   = 00000001            SET$CARD         ********   X   03
CLI$M_DEBUG    = 00000001            PRO_M_IMPCAT   = 00000002            SET$DEV          ********   X   03
CLI$M_DUMMY    = 00000002            PRO_M_LIST     = 00000004            SET$LOGIN        ********   X   03
CLI$M_EXPNAM   = 00000004            PRO_M_OPTION   = 00000008            SET$L_STATUS     000001CD RG    03
CLI$M_INDIRECT = 00000010            PRO_M_REQ      = 00000010            SET$MAGTAPE      ********   X   03
CLI$M_KEYVALU  = 00000002            PRO_M_STRING   = 00000020            SET$OPT_DISP     00000000 RG    04
CLI$M_LASTVAL  = 00000001            PRO_V_CONCAT   = 00000000            SET$PRINT        ********   X   03
CLI$M_MOREINP  = 00000004            PRO_V_IMPCAT   = 00000001            SET$PROCESS      ********   X   03
CLI$M_MOREVALS = 00000001            PRO_V_LIST     = 00000002            SET$PROT         ********   X   03
CLI$M_PARMDEF  = 00000008            PRO_V_OPTION   = 00000003            SET$QUEUE        ********   X   03
CLI$M_PARMPRS  = 00000001            PRO_V_REQ      = 00000004            SET$RMS          ********   X   03
CLI$M_PARMREQ  = 00000001            PRO_V_STRING   = 00000005            SET$TERM         ********   X   03
CLI$M_QDEXPA   = 00000004            QUA_B_DEFVAL     00000002            SET$T_PRQUAL     0000019E RG    03
CLI$M_QDUSRV   = 00000002            QUA_B_IMAGE      00000005            SET$WORKING_S    ********   X   03
CLI$M_QUALEXP  = 00000002            QUA_B_INDEX      00000001            SET_INITPRS      00000080 R     03
CLI$M_QUALTRU  = 00000001            QUA_B_OFFSET     00000000            SET_OPTDESC      0000009C R     03
CLI$M_TRMVRBLV = 00000300            QUA_B_PARMCNT    00000008            SET_OPTQUAL      000000B8 R     03
CLI$M_VERIFY   = 00000004            QUA_G_CHNGLST    00000006            SS$_NORMAL       ********   X   04
CLI$M_VFYINP   = 00000020            QUA_M_BATDEF   = 00000100
CLI$Q_QDVALDESC  00000004            QUA_M_CHNGLIST = 00000001
CLI$Q_RQDESC     00000008            QUA_M_DEFTRUE  = 00000080
CLI$S_PRITYP   = 00000004            QUA_M_FILE     = 00000004
CLI$S_SUBTYP   = 00000004            QUA_M_IMAGE    = 00000400
CLI$S_TRMVRBLV = 00000002            QUA_M_INTDEF   = 00000200
CLI$V_ABSADR   = 00000001            QUA_M_KEYVAL   = 00004000
CLI$V_ALLOCCUR = 00000000            QUA_M_LOCALKEY = 00000002
CLI$V_BATCH    = 00000003            QUA_M_NEG      = 00000040
CLI$V_CONCATINP= 00000001            QUA_M_ONEVAL   = 00002000
CLI$V_DBGEXCP  = 00000010            QUA_M_OUTPUT   = 00000800
CLI$V_DBGTRU   = 00000001            QUA_M_PARM     = 00000010
CLI$V_DEBUG    = 00000000            QUA_M_VAL      = 00000020
CLI$V_DUMMY    = 00000001            QUA_M_VALREQ   = 00001000
CLI$V_EXPNAM   = 00000002            QUA_M_VERB     = 00000008
CLI$V_INDIRECT = 00000004            QUA_S_MAXPARM  = 00000004
CLI$V_KEYVALU  = 00000001            QUA_S_MINPARM  = 00000004
CLI$V_LASTVAL  = 00000000            QUA_V_BATDEF   = 00000008
CLI$V_MOREINP  = 00000002            QUA_V_CHNGLIST = 00000000
CLI$V_MOREVALS = 00000000            QUA_V_DEFTRUE  = 00000007
CLI$V_PARMDEF  = 00000003            QUA_V_FILE     = 00000002
CLI$V_PARMPRS  = 00000000            QUA_V_IMAGE    = 0000000A
CLI$V_PARMREQ  = 00000000            QUA_V_INTDEF   = 00000009
CLI$V_PRITYP   = 00000004            QUA_V_KEYVAL   = 0000000E
CLI$V_QDEXPA   = 00000002            QUA_V_LOCALKEY = 00000001
CLI$V_QDUSRV   = 00000001            QUA_V_MAXPARM  = 00000004
CLI$V_QUALEXP  = 00000001            QUA_V_MINPARM  = 00000000
CLI$V_QUALTRU  = 00000000            QUA_V_NEG      = 00000006
CLI$V_SUBTYP   = 00000000            QUA_V_ONEVAL   = 0000000D
CLI$V_TRMVRBLV = 00000008            QUA_V_OUTPUT   = 0000000B
CLI$V_VERIFY   = 00000002            QUA_V_PARM     = 00000004
CLI$V_VFYINP   = 00000005            QUA_V_VAL      = 00000005
CLI$W_QDVALSIZ   00000004            QUA_V_VALREQ   = 0000000C
CLI$W_RQSIZE     00000008            QUA_V_VERB     = 00000003
CLI$W_SERVCOD    00000001            QUA_W_FLAGS      00000003
GBL...         = 00000000            QUA_W_PROMPT     00000009
PRO_B_FLAGS      00000001            QUA_W_QUALIST    00000006
SET$OPT_DISP    - SET OPTION DISPATCHER                          21-AUG-1978 19:04:41   VAX-11 MACRO X0.3-11               Page   9
PROGRAM SECTION SYNOPSIS                                                                                                         (4)


PROGRAM SECTION SYNOPSIS

.  ABS  .        00000000      00     NOPIC   USR   CON   ABS   LCL NOSHR NOEXE NORD  NOWRT BYTE
. BLANK .        00000000      01     NOPIC   USR   CON   REL   LCL NOSHR   EXE   RD    WRT BYTE
$ABS$            00000080      02     NOPIC   USR   CON   ABS   LCL NOSHR   EXE   RD    WRT BYTE
SET$RWDATA       000001D1      03     NOPIC   USR   CON   REL   LCL NOSHR NOEXE   RD    WRT LONG
SET$CODE         00000029      04     NOPIC   USR   CON   REL   LCL NOSHR   EXE   RD  NOWRT BYTE


THERE WERE NO ERRORS OR WARNINGS.
11070. BYTES LEFT IN FREE MEMORY POOL.
4726. BYTES OF RECLAIMED MEMORY.
OBJ$:SETCMDISP,LIS$:SETCMDISP/-SP=EXECML$/ML,LIB$:CLIUTL/ML,SRC$:SETCMDISP
40 MLB DIR RDS - 603 GETS TO DEFINE 24 MACROS. 50 INTER. FILE WRITES.
