SETDEVUTL       - SET DEVICE UTILITIES                           21-AUG-1978 19:13:24   VAX-11 MACRO X0.3-11               Page   0
TABLE OF CONTENTS

   (1)    5600  SET SPOOLED
   (1)   14700  SET NOSPOOLED
   (1)   21900  SET [NO]ERROR LOGGING
   (1)   24600  SET DEVICE PROTECTION
   (1)   27200  LOCK/UNLOCK I/O DATABASE
SETDEVUTL       - SET DEVICE UTILITIES                           21-AUG-1978 19:13:24   VAX-11 MACRO X0.3-11               Page   1
X01                                                                                                                              (1)

                                     0000   100 	.TITLE	SETDEVUTL - SET DEVICE UTILITIES
                                     0000   200 	.IDENT	/X01/
                                     0000   300
                                     0000   400 ;
                                     0000   500 ; COPYRIGHT (C) 1978
                                     0000   600 ; DIGITAL EQUIPMENT CORPORATION, MAYNARD, MASSACHUSETTS 01754
                                     0000   700 ;
                                     0000   800 ; THIS SOFTWARE IS FURNISHED  UNDER A LICENSE FOR USE ONLY ON A SINGLE
                                     0000   900 ; COMPUTER  SYSTEM AND  MAY BE  COPIED ONLY WITH  THE INCLUSION OF THE
                                     0000  1000 ; ABOVE COPYRIGHT NOTICE.  THIS SOFTWARE, OR ANY OTHER COPIES THEREOF,
                                     0000  1100 ; MAY NOT BE PROVIDED OR  OTHERWISE MADE AVAILABLE TO ANY OTHER PERSON
                                     0000  1200 ; EXCEPT FOR USE ON SUCH SYSTEM AND TO ONE WHO AGREES TO THESE LICENSE
                                     0000  1300 ; TERMS.  TITLE TO AND  OWNERSHIP OF THE  SOFTWARE  SHALL AT ALL TIMES
                                     0000  1400 ; REMAIN IN DEC.
                                     0000  1500 ;
                                     0000  1600 ; THE INFORMATION IN THIS SOFTWARE IS SUBJECT TO CHANGE WITHOUT NOTICE
                                     0000  1700 ; AND SHOULD  NOT BE CONSTRUED  AS A COMMITMENT  BY DIGITAL  EQUIPMENT
                                     0000  1800 ; CORPORATION.
                                     0000  1900 ;
                                     0000  2000 ; DEC ASSUMES  NO  RESPONSIBILITY  FOR  THE USE OR  RELIABILITY OF ITS
                                     0000  2100 ; SOFTWARE ON EQUIPMENT WHICH IS NOT SUPPLIED BY DEC.
                                     0000  2200 ;
                                     0000  2300
                                     0000  2400 ;++
                                     0000  2500 ; FACILITY:	CLI UTILITY "SET"
                                     0000  2600 ;
                                     0000  2700 ; ABSTRACT:	UTILITIES FOR SET$DEV AND SET$PROT
                                     0000  2800 ;
                                     0000  2900 ; AUTHOR:	LEN KAWELL 3-MAY-1978
                                     0000  3000 ;--
                                     0000  3100 ;
                                     0000  3200 ; LOCAL MACROS
                                     0000  3300 ;
                                     0000  3400
                                     0000  3500 ;
                                     0000  3600 ; EXTERNAL SYMBOLS
                                     0000  3700 ;
                                     0000  3800 	$DEVDEF				; DEFINE DEVICE CHARACTERISTICS
                                     0000  3900 	$UCBDEF				; UCB OFFSETS
                                     0000  4000 	$VCBDEF				; VCB OFFSETS
                                     0000  4100 	$PRDEF				; PROCESSOR REGISTER DEFINITIONS
                                     0000  4200 	$DYNDEF				; DYNAMIC STORAGE DEFINTIONS
                                     0000  4300 	$IRPDEF				; I/O REQUEST PACKET DEFINTIONS
                                     0000  4400 	$CCBDEF				; CHANNEL CONTROL BLOCK DEFINTIONS
                                     0000  4500 	$CLIMSGDEF			; CLI MESSAGES
                                     0000  4600 ;
                                     0000  4700 ; ARGUMENT OFFSETS
                                     0000  4800 ;
                           00000004  0000  4900 UCB1	= 4				; ADDRESS OF UCB 1
                           00000008  0000  5000 UCB2	= 8				; ADDRESS OF UCB 2
                           00000008  0000  5100 CCB1	= 8				; ADDRESS OF UCB1'S CCB
                           00000008  0000  5200 FLAG	= 8				; ENABLE/DISABLE FLAG
                           00000008  0000  5300 PROT	= 8				; PROTECTION VALUE
                           0000000C  0000  5400 Q_DESC	= 12				; QUEUE NAME CHARACTER DESCRIPTOR
                           0000000C  0000  5450 UIC	= 12				; OWNER UIC
SETDEVUTL       - SET DEVICE UTILITIES                           21-AUG-1978 19:13:24   VAX-11 MACRO X0.3-11               Page   2
X01             SET SPOOLED                                                                                                      (1)

                                     0000  5600 	.SBTTL	SET SPOOLED
                                 00000000  5650 	.PSECT	SET$CODE,NOWRT
                                     0000  5700 ;++
                                     0000  5800 ; SET$DEV_SPOOL - KERNEL ACCESS MODE TO SET A DEVICE SPOOLED
                                     0000  5900 ;
                                     0000  6000 ; FUNCTIONAL DESCRIPTION:
                                     0000  6100 ;
                                     0000  6200 ; THIS ROUTINE WILL LINK TWO UCBS TOGETHER TO ALLOW IMPLICIT SPOOLING.
                                     0000  6300 ;
                                     0000  6400 ; 1) LOCK I/O DATABASE FOR WRITE;
                                     0000  6500 ; 2) CHECK THAT SPOOL DEVICE'S REFERENCE COUNT (UCB$W_REFC) IS 1;
                                     0000  6600 ; 3) CHECK THAT A VOLUME IS MOUNTED ON INTERMEDIATE DEVICE AND THAT
                                     0000  6700 ;    IT IS NOT MARKED FOR DISMOUNT;
                                     0000  6800 ; 4) GET DYNAMIC STORAGE, MOVE QUEUE NAME STRING TO IT, AND SET
                                     0000  6900 ;    SPOOLED DEVICE'S VCB ADDRESS TO THE ADDRESS OF THE QUEUE NAME;
                                     0000  7000 ; 5) INCREMENT REFERENCE COUNT OF INTERMEDIATE DEVICE AND TRANSACTION
                                     0000  7100 ;    COUNT OF OF ITS ASSOCIATED VCB;
                                     0000  7200 ; 6) STORE ADDRESS OF INTERMEDIATE DEVICE UCB IN SPOOLED DEVICE'S
                                     0000  7300 ;    ASSOCIATED UCB ADDRESS (UCB$L_AMB);
                                     0000  7400 ; 7) SET SPOOLED DEVICE'S SPOOL BIT (DEV$V_SPL IN UCB$L_DEVCHAR);
                                     0000  7500 ; 8) UNLOCK I/O DATABASE.
                                     0000  7600 ;
                                     0000  7700 ;
                                     0000  7800 ; INPUTS:
                                     0000  7900 ;
                                     0000  8000 ;	UCB1(AP) = UCB OF DEVICE TO BE SPOOLED
                                     0000  8100 ;	UCB2(AP) = UCB OF INTERMEDIATE DEVICE
                                     0000  8200 ;	Q_DESC(AP) = CHARACTER STRING DESCRIPTOR OF QUEUE NAME
                                     0000  8300 ;
                                     0000  8400 ; OUTPUTS:
                                     0000  8500 ;
                                     0000  8600 ;	R0 = 1 IF SUCCES SETTING UP UCBS
                                     0000  8700 ;	   = SYSTEM STATUS CODE IF ANY ERROR
                                     0000  8800 ;--
                                     0000  8900 SET$DEV_SPOOL::
                               00FC  0000  9000 	.WORD	^M<R2,R3,R4,R5,R6,R7>	; SAVE REGISTERS
                                     0002  9100 ;
                                     0002  9200 ; LOCK I/O DATABASE FOR WRITE AND CHECK IF DEVICES VALID FOR SPOOLING
                                     0002  9300 ;
                          0109   30  0002  9400 	BSBW	LOCK_IODB		; LOCK THE I/O DATABASE
            56         04 AC     D0  0005  9500 	MOVL	UCB1(AP),R6		; GET ADDR OF SPOOLED DEV'S UCB
         34 A6            06     E1  0009  9600 	BBC	#DEV$V_SPL,UCB$L_DEVCHAR(R6),5$ ; IF CLEAR DEVICE NO SPOOLED
                          09         000D
                 0003885A 8F     DD  000E  9700 	PUSHL	#CLI$_DEVALSPL		; SET DEVICE ALREADY SPOOLED
                          007A   31  0014  9800 	BRW	100$			; EXIT
            01         50 A6     B1  0017  9900 5$:	CMPW	UCB$W_REFC(R6),#1	; IS SPOOLED DEV'S REF COUNT 1?
                          08     13  001B 10000 	BEQL	10$			; IF EQL YES
            7E       0004'8F     3C  001D 10100 	MOVZWL	#SS$_DEVASSIGN!4,-(SP)	; SET DEVICE ALREADY ASSIGNED
                          006C   31  0022 10200 	BRW	100$			; EXIT
            57         08 AC     D0  0025 10300 10$:	MOVL	UCB2(AP),R7		; GET ADDR OF INTER DEV'S UCB
         34 A7            0E     E1  0029 10400 	BBC	#DEV$V_FOD,UCB$L_DEVCHAR(R7),20$ ;IF CLEAR NON-FILE ORIENTED
                          05         002D
         34 A7            1C     E0  002E 10500 	BBS	#DEV$V_RND,UCB$L_DEVCHAR(R7),30$ ;IF SET IT'S A DISK
                          07         0032
            7E       0000'8F     3C  0033 10600 20$:	MOVZWL	#SS$_NOTFILEDEV,-(SP)	; SET NOT FILE DEVICE ERROR
                          57     11  0038 10700 	BRB	100$			; EXIT
         34 A7            13     E1  003A 10800 30$:	BBC	#DEV$V_MNT,UCB$L_DEVCHAR(R7),40$ ;IF CLEAR NOT MOUNTED
SETDEVUTL       - SET DEVICE UTILITIES                           21-AUG-1978 19:13:24   VAX-11 MACRO X0.3-11               Page   3
X01             SET SPOOLED                                                                                                      (1)

                          05         003E
         34 A7            15     E1  003F 10900 	BBC	#DEV$V_DMT,UCB$L_DEVCHAR(R7),50$ ;IF SET DISMOUNTING
                          07         0043
            7E       0000'8F     3C  0044 11000 40$:	MOVZWL	#SS$_DEVNOTMOUNT,-(SP)	 ; SET NOT MOUNTED ERROR
                          46     11  0049 11100 	BRB	100$			 ; EXIT
                                     004B 11200 ;
                                     004B 11300 ; GET DYNAMINC STORAGE, MOVE QUEUE NAME TO IT AND SET VCB
                                     004B 11400 ; POINTER TO ITS ADDRESS
                                     004B 11500 ;
            51         4C 8F     9A  004B 11600 50$:	MOVZBL	#IRP$C_LENGTH,R1	; SIZE OF STORAGE
                                     004F 11700 					; (USE SIZE OF I/O REQUEST)
                 00000000'9F     16  004F 11800 	JSB	@#EXE$ALONONPAGED	; ALLOCATE NON-PAGED MEMORY
            07            50     E8  0055 11900 	BLBS	R0,60$			; IF LOW SET - SUCCESS
            7E       0000'8F     3C  0058 12000 	MOVZWL	#SS$_INSFMEM,-(SP)	; SET INSUFFICIENT MEMORY
                          32     11  005D 12100 	BRB	100$			; EXIT
         30 A6            52     D0  005F 12200 60$:	MOVL	R2,UCB$L_VCB(R6)	; SET ADDRESS OF BLOCK IN UCB
         08 A2            51     B0  0063 12300 	MOVW	R1,VCB$W_SIZE(R2)	; SET SIZE OF BLOCK
         0A A2            11     90  0067 12400 	MOVB	#DYN$C_VCB,VCB$B_TYPE(R2) ; SET TYPE OF BLOCK
            53         0C AC     7E  006B 12500 	MOVAQ	Q_DESC(AP),R3		; GET ADDRESS OF QUEUE DESCIPTOR
         0B A2            63     90  006F 12600 	MOVB	(R3),VCB$B_TYPE+1(R2)	; SET QUEUE NAME SIZE
         04 B3            63     28  0073 12700 	MOVC3	(R3),@4(R3),VCB$B_TYPE+2(R2) ; SET QUEUE NAME
                       0C A2         0077
                                     0079 12800 ;
                                     0079 12900 ; INCREMENT THE INTERMEDIATE UCB AND VCB REFERENCE COUNTS, LINK THE
                                     0079 12950 ; THE UCB'S, AND SET THE SPOOLED DEVICE'S SPOOLED BIT.
                                     0079 13000 ;
                       50 A7     B6  0079 13100 	INCW	UCB$W_REFC(R7)		; INC REF COUNT OF INTERMEDIATE
            50         30 A7     D0  007C 13300 	MOVL	UCB$L_VCB(R7),R0	; GET INTERMEDIATE VCB ADDR
                       0C A0     B6  0080 13400 	INCW	VCB$W_TRANS(R0)		; INC TRANSACTION COUNT OF VOLUME
         54 A6            57     D0  0083 13500 	MOVL	R7,UCB$L_AMB(R6)	; SET INTERMEDIATE DEV UCB ADDR
         34 A6            06     E2  0087 13600 	BBSS	#DEV$V_SPL,UCB$L_DEVCHAR(R6),80$ ; SET DEVICE SPOOLED
                          00         008B
                       28 A6     D4  008C 13700 80$:	CLRL	UCB$L_PID(R6)		; CLEAR OUR OWNERSHIP
                                     008F 13800 ;
                                     008F 13900 ; UNLOCK I/O DATABASE AND RETURN STATUS
                                     008F 14000 ;
                          01     DD  008F 14100 	PUSHL	#1			; SET SUCCESS
                          008F   30  0091 14200 100$:	BSBW	UNLOCK_IODB		; UNLOCK I/O DATABASE
                          50   8ED0  0094 14300 	POPL	R0			; SET STATUS
                                 04  0097 14400 	RET
                                     0098 14500
SETDEVUTL       - SET DEVICE UTILITIES                           21-AUG-1978 19:13:24   VAX-11 MACRO X0.3-11               Page   4
X01             SET NOSPOOLED                                                                                                    (1)

                                     0098 14700 	.SBTTL	SET NOSPOOLED
                                     0098 14800 ;++
                                     0098 14900 ; SET$DEV_NOSPOOL - KERNEL MODE ROUTINE TO SET A SPOOLED DEVICE NONSPOOLED
                                     0098 15000 ;
                                     0098 15100 ; FUNCTIONAL DESCRIPTION:
                                     0098 15200 ;
                                     0098 15300 ; THIS ROUTINE WILL DISABLE IMPLICIT SPOOLING FOR A DEVICE.
                                     0098 15400 ;
                                     0098 15500 ; 2) LOCK I/O DATABASE FOR WRITE;
                                     0098 15600 ; 3) CHECK THAT DEVICE IS ACTUALLY SET SPOOLED (DEV$V_SPL);
                                     0098 15700 ; 4) CHECK THAT REFERENCE COUNT (UCB$W_REFC) IS 2;
                                     0098 15800 ; 5) DECREMENT THE REFERENCE COUNT BY 2;
                                     0098 15900 ; 6) CLEAR SPOOL BIT (DEV$V_SPL);
                                     0098 16000 ; 7) DEALLOCATE THE QUEUE NAME'S DYNAMIC STORAGE, AND CLEAR VCB ADDRESS;
                                     0098 16100 ; 8) GET ADDRESS OF INTERMEDIATE DEVICE'S UCB FROM UCB$L_AMD AND
                                     0098 16200 ;    CLEAR UCB$L_AMD;
                                     0098 16300 ; 9) DECREMENT TRANSACTION COUNT OF INTERMEDIATE DEVICE'S VCB;
                                     0098 16400 ; 10) MOVE ADDRESS OF INTERMEDIATE DEVICE'S UCB TO CHANNEL CONTROL BLOCK
                                     0098 16500 ;     OF SPOOLED DEVICE;
                                     0098 16600 ; 11) UNLOCK I/O DATABASE;
                                     0098 16700 ;
                                     0098 16800 ;
                                     0098 16900 ; INPUTS:
                                     0098 17000 ;
                                     0098 17100 ;	UCB1(AP) = ADDRESS OF UCB OF SPOOLED DEVICE
                                     0098 17200 ;	CCB1(AP) = ADDRESS OF CCB OF SPOOLED DEVICE
                                     0098 17300 ;
                                     0098 17400 ; OUTPUTS:
                                     0098 17500 ;
                                     0098 17600 ;	R0 = STATUS OF FUNCTION
                                     0098 17700 ;--
                                     0098 17800 SET$DEV_NOSPOOL::
                               007C  0098 17900 	.WORD	^M<R2,R3,R4,R5,R6>
                                     009A 18000 ;
                                     009A 18100 ; LOCK I/O DATABASE, CHECK THAT NO ONE HAS ANY CHANNELS ASSIGNED TO
                                     009A 18200 ; THE DEVICE, CHECK THAT DEVICE IS ACTUALLY SPOOLED, AND CLEAR THE
                                     009A 18300 ; SPOOLED FLAG.
                                     009A 18400 ;
                          0071   30  009A 18500 	BSBW	LOCK_IODB		; LOCK THE I/O DATABASE
            56         04 AC     D0  009D 18600 	MOVL	UCB1(AP),R6		; GET ADDR OF SPOOLED DEV'S UCB
            02         50 A6     B1  00A1 18700 	CMPW	UCB$W_REFC(R6),#2	; ANY OTHER CHANNELS ASSIGNED?
                          07     15  00A5 18800 	BLEQ	10$			; IF LEQ NO
            7E       0004'8F     3C  00A7 18900 	MOVZWL	#SS$_DEVASSIGN!4,-(SP)	; SET DEVICE ASSIGNED ERROR
                          34     11  00AC 19000 	BRB	50$			; EXIT
                                     00AE 19100
         34 A6            06     E4  00AE 19200 10$:	BBSC	#DEV$V_SPL,UCB$L_DEVCHAR(R6),20$ ; IF SET IT'S SPOOLED
                          08         00B2
                 00038862 8F     DD  00B3 19300 	PUSHL	#CLI$_DEVNOTSPL		; SET NOT SPOOLED ERROR
                          27     11  00B9 19400 	BRB	50$			; EXIT
                                     00BB 19500
                                     00BB 19600 ;
                                     00BB 19700 ; UNLOCK THE UCB'S AND VCB AND DEALLOCATE QUEUE NAME STORAGE
                                     00BB 19800 ;
                       50 A6     B7  00BB 19900 20$:	DECW	UCB$W_REFC(R6)		; "DE-ASSIGN" OUR CHANNEL
            50         30 A6     D0  00BE 20100 	MOVL	UCB$L_VCB(R6),R0	; SET ADDRESS OF QUEUE NAME
                 00000000'9F     16  00C2 20200 	JSB	@#EXE$DEANONPAGED	; DEALLOCATE ITS STORAGE
                       30 A6     D4  00C8 20300 	CLRL	UCB$L_VCB(R6)		; CLEAR QUEUE NAME ADDRESS
SETDEVUTL       - SET DEVICE UTILITIES                           21-AUG-1978 19:13:24   VAX-11 MACRO X0.3-11               Page   5
X01             SET NOSPOOLED                                                                                                    (1)

            51         54 A6     D0  00CB 20400 	MOVL	UCB$L_AMB(R6),R1	; GET ADDR OF INTERMEDIATE UCB
                       54 A6     D4  00CF 20450 	CLRL	UCB$L_AMB(R6)		; CLEAR ADDR OF INTERMEDIATE UCB
            50         30 A1     D0  00D2 20500 	MOVL	UCB$L_VCB(R1),R0	; GET ADDR OF INTERMEDIATE VCB
                       0C A0     B7  00D6 20600 	DECW	VCB$W_TRANS(R0)		; DECREMENT ITS TRANSACTION CNT
            50         08 AC     D0  00D9 20700 	MOVL	CCB1(AP),R0		; GET ADDRESS OF CCB
            60            51     D0  00DD 20800 	MOVL	R1,CCB$L_UCB(R0)	; CHANGE UCB ADDRESS TO THAT
                                     00E0 20900 					; OF THE INTERMEDIATE DEVICE
                                     00E0 21000 ;
                                     00E0 21100 ; UNLOCK I/O DATABASE AND RETURN STATUS
                                     00E0 21200 ;
                          01     DD  00E0 21300 	PUSHL	#1			; SET SUCCESS
                          003E   30  00E2 21400 50$:	BSBW	UNLOCK_IODB		; UNLOCK I/O DATABASE
                          50   8ED0  00E5 21500 	POPL	R0			; SET STATUS
                                 04  00E8 21600 	RET
                                     00E9 21700
SETDEVUTL       - SET DEVICE UTILITIES                           21-AUG-1978 19:13:24   VAX-11 MACRO X0.3-11               Page   6
X01             SET [NO]ERROR LOGGING                                                                                            (1)

                                     00E9 21900 	.SBTTL	SET [NO]ERROR LOGGING
                                     00E9 22000 ;++
                                     00E9 22100 ; SET$DEV_ERLG - KERNEL MODE ROUTINE TO ENABLE/DISABLE ERROR LOGGING
                                     00E9 22200 ;
                                     00E9 22300 ; FUNCTIONAL DESCRIPTION:
                                     00E9 22400 ;
                                     00E9 22500 ; THIS ROUTINE WILL SET OR CLEAR THE ERRLOG BIT (DEV$V_ELG) IN THE
                                     00E9 22600 ; DEVICE'S UCB.
                                     00E9 22700 ;
                                     00E9 22800 ;
                                     00E9 22900 ; INPUTS:
                                     00E9 23000 ;
                                     00E9 23100 ;	UCB1(AP) = ADDRESS OF DEVICE'S UCB
                                     00E9 23200 ;	FLAG(AP) = ENABLE OR DISABLE FLAG
                                     00E9 23300 ;
                                     00E9 23400 ; OUTPUTS:
                                     00E9 23500 ;
                                     00E9 23600 ;	R0 = STATUS OF FUNCTION
                                     00E9 23700 ;--
                                     00E9 23800 SET$DEV_ERLG::
                               0000  00E9 23900 	.WORD	0
            50         04 AC     D0  00EB 24000 	MOVL	UCB1(AP),R0		; GET THE DEVICE'S UCB ADDRESS
            16         08 AC     F0  00EF 24100 	INSV	FLAG(AP),#DEV$V_ELG,#1,UCB$L_DEVCHAR(R0) ; SET/CLEAR BIT
         34 A0            01         00F3
            50            01     D0  00F6 24200 	MOVL	#1,R0			; SET SUCCESS
                                 04  00F9 24300 	RET				; RETURN
                                     00FA 24400
SETDEVUTL       - SET DEVICE UTILITIES                           21-AUG-1978 19:13:24   VAX-11 MACRO X0.3-11               Page   7
X01             SET DEVICE PROTECTION                                                                                            (1)

                                     00FA 24600 	.SBTTL	SET DEVICE PROTECTION
                                     00FA 24700 ;++
                                     00FA 24800 ; SET$DEV_PROT - KERNEL MODE ROUTINE TO SET A DEVICE'S PROTECTION
                                     00FA 24900 ;
                                     00FA 25000 ; FUNCTIONAL DESCRIPTION:
                                     00FA 25100 ;
                                     00FA 25200 ; THIS ROUTINE WILL SET THE DEVICE PROTECTION FIELD, UCB$W_VPROT.
                                     00FA 25300 ;
                                     00FA 25400 ;
                                     00FA 25500 ; INPUTS:
                                     00FA 25600 ;
                                     00FA 25700 ;	UCB1(AP) = ADDRESS OF DEVICE'S UCB
                                     00FA 25800 ;	PROT(AP) = PROTECTION VALUE
                                     00FA 25900 ;
                                     00FA 26000 ; OUTPUTS:
                                     00FA 26100 ;
                                     00FA 26200 ;	R0 = STATUS OF FUNCTION
                                     00FA 26300 ;--
                                     00FA 26400 SET$DEV_PROT::
                               0000  00FA 26500 	.WORD	0
            50         04 AC     D0  00FC 26600 	MOVL	UCB1(AP),R0		; GET THE DEVICE'S UCB ADDRESS
         1A A0         08 AC     B0  0100 26700 	MOVW	PROT(AP),UCB$W_VPROT(R0) ; SET DEVICE'S PROTECTION
         1C A0         0C AC     D0  0105 26750 	MOVL	UIC(AP),UCB$L_OWNUIC(R0) ; SET OWNER UIC
            50            01     D0  010A 26800 	MOVL	#1,R0			; SET SUCCESS
                                 04  010D 26900 	RET				; RETURN
                                     010E 27000
SETDEVUTL       - SET DEVICE UTILITIES                           21-AUG-1978 19:13:24   VAX-11 MACRO X0.3-11               Page   8
X01             LOCK/UNLOCK I/O DATABASE                                                                                         (1)

                                     010E 27200 	.SBTTL	LOCK/UNLOCK I/O DATABASE
                                     010E 27300 ;++
                                     010E 27400 ; LOCK_IDB/UNLOCK_IDB - LOCK AND UNLOCK THE SYSTEM I/O DATABASE
                                     010E 27500 ;
                                     010E 27600 ; FUNCTIONAL DESCRIPTION:
                                     010E 27700 ;
                                     010E 27800 ;	LOCK - GETS THE I/O DATABASE MUTEX FOR WRITE
                                     010E 27900 ;	UNLOCK - RETURNS THE I/O DATABASE MUTEX AND RETURNS IPL TO 1.
                                     010E 28000 ;
                                     010E 28100 ;
                                     010E 28200 ; INPUTS:
                                     010E 28300 ;
                                     010E 28400 ;	NONE
                                     010E 28500 ;
                                     010E 28600 ; OUTPUTS:
                                     010E 28700 ;
                                     010E 28800 ;	I/O DATABASE LOCKED AND IPL RAISED OR UNLOCKED AND IPL LOWERED
                                     010E 28900 ;--
                                     010E 29000
                                     010E 29100 LOCK_IODB:
            50   00000000'9F     DE  010E 29200 	MOVAL	@#IOC$GL_MUTEX,R0	; GET I/O DATA BASE MUTEX
            54   00000000'9F     D0  0115 29300 	MOVL	@#SCH$GL_CURPCB,R4	; GET OWN PCB ADDRESS
                 00000000'9F     16  011C 29400 	JSB	@#SCH$LOCKW		; AND LOCK IT
                                 05  0122 29500 	RSB
                                     0123 29600
                                     0123 29700 UNLOCK_IODB:
            50   00000000'9F     DE  0123 29800 	MOVAL	@#IOC$GL_MUTEX,R0	; GET I/O DATA BASE MUTEX
            54   00000000'9F     D0  012A 29900 	MOVL	@#SCH$GL_CURPCB,R4	; AND OWN PCB ADDRESS
                 00000000'9F     16  0131 30000 	JSB	@#SCH$UNLOCK		; AND UNLOCK IT
                                     0137 30100 	SETIPL	#0			; ALSO LOWER IPL
                                 05  013A 30200 	RSB
                                     013B 30300
                                     013B 30400 	.END
SETDEVUTL       - SET DEVICE UTILITIES                           21-AUG-1978 19:13:24   VAX-11 MACRO X0.3-11               Page   9
SYMBOL TABLE                                                                                                                     (1)

BIT...         = 0003FFE9            CLI$_NOVALU    = 000380D0            DEV$V_DIR      = 00000003
CCB$B_AMOD       00000009            CLI$_NOVALUE   = 0003882A            DEV$V_DMT      = 00000015
CCB$B_STS        00000008            CLI$_NULFIL    = 000380E0            DEV$V_ELG      = 00000016
CCB$C_LENGTH     00000010            CLI$_NUMBER    = 000380E8            DEV$V_FOD      = 0000000E
CCB$K_LENGTH     00000010            CLI$_ONCOMD    = 000380F0            DEV$V_FOR      = 00000018
CCB$L_DIRP       0000000C            CLI$_ONERR     = 000380F8            DEV$V_GEN      = 00000011
CCB$L_UCB        00000000            CLI$_ONEVAL    = 00038158            DEV$V_IDV      = 0000001A
CCB$L_WIND       00000004            CLI$_ONLEVL    = 00038100            DEV$V_MBX      = 00000014
CCB$W_IOC        0000000A            CLI$_ONOVF     = 00038108            DEV$V_MNT      = 00000013
CCB1           = 00000008            CLI$_OVRFLW    = 00038160            DEV$V_NET      = 0000000D
CLI$_ABFNAM    = 000381B8            CLI$_PARMDEL   = 00038110            DEV$V_ODV      = 0000001B
CLI$_ABKEYW    = 00038000            CLI$_PROC_ID   = 0003FFF1            DEV$V_RCK      = 0000001E
CLI$_ABVERB    = 00038008            CLI$_QUEJOBCRE = 0003FFF9            DEV$V_REC      = 00000000
CLI$_BADRET    = 00038198            CLI$_REQPRMABS = 00038812            DEV$V_RND      = 0000001C
CLI$_BADTEXT   = 000381B0            CLI$_RSLOVF    = 00038118            DEV$V_RTM      = 0000001D
CLI$_BUFOVF    = 00038018            CLI$_SKPDAT    = 00038120            DEV$V_SDI      = 00000004
CLI$_COMPLX    = 00038020            CLI$_SPARE0    = 00038010            DEV$V_SHR      = 00000010
CLI$_CONFQUAL  = 00038802            CLI$_SPARE1    = 00038058            DEV$V_SPL      = 00000006
CLI$_CREQUEJOB = 0003884A            CLI$_STKOVF    = 00038128            DEV$V_SQD      = 00000005
CLI$_DEFOVF    = 00038028            CLI$_SUBMITERR = 00038852            DEV$V_SWL      = 00000019
CLI$_DEVALSPL  = 0003885A            CLI$_SYMDEL    = 00038130            DEV$V_TRM      = 00000002
CLI$_DEVNOTFOR = 0003887A            CLI$_SYMOVF    = 00038138            DEV$V_WCK      = 0000001F
CLI$_DEVNOTSPL = 00038862            CLI$_UNDFIL    = 00038188            DYN$C_ACB      = 00000002
CLI$_DIRECT    = 00038030            CLI$_UNDSYM    = 00038140            DYN$C_ADP      = 00000001
CLI$_EXPSYN    = 00038038            CLI$_UNPROPARM = 00038170            DYN$C_AQB      = 00000003
CLI$_FILOPN    = 00038190            CLI$_UNPROQUAL = 00038168            DYN$C_BRDCST   = 0000001A
CLI$_ILLVAL    = 0003883A            CLI$_USGOTO    = 00038148            DYN$C_BUFIO    = 00000013
CLI$_IMCHNG    = 00038040            CLI$_VALCNVERR = 00038832            DYN$C_CEB      = 00000004
CLI$_IMGFNF    = 00038872            CLI$_VALREQ    = 00038150            DYN$C_CRB      = 00000005
CLI$_INSFPRM   = 00038048            DEV$M_ALL      = 00800000            DYN$C_CXB      = 0000001B
CLI$_INVKEY    = 00038178            DEV$M_AVL      = 00040000            DYN$C_DDB      = 00000006
CLI$_INVQUAL   = 0003880A            DEV$M_CCL      = 00000002            DYN$C_DPT      = 0000001E
CLI$_INVQUALNUM= 0003881A            DEV$M_DIR      = 00000008            DYN$C_FCB      = 00000007
CLI$_INVREQTYP = 00038822            DEV$M_DMT      = 00200000            DYN$C_FRK      = 00000008
CLI$_INVRSP    = 00038180            DEV$M_ELG      = 00400000            DYN$C_GSD      = 00000015
CLI$_INVUIC    = 000381A8            DEV$M_FOD      = 00004000            DYN$C_IDB      = 00000009
CLI$_IVCHAR    = 00038050            DEV$M_FOR      = 01000000            DYN$C_IRP      = 0000000A
CLI$_IVDEVTYPE = 0003886A            DEV$M_GEN      = 00020000            DYN$C_JPB      = 0000001F
CLI$_IVFNAM    = 000381C0            DEV$M_IDV      = 04000000            DYN$C_KFH      = 00000026
CLI$_IVKEYW    = 00038060            DEV$M_MBX      = 00100000            DYN$C_KFI      = 00000018
CLI$_IVOPER    = 00038068            DEV$M_MNT      = 00080000            DYN$C_LOG      = 0000000B
CLI$_IVPROT    = 00038070            DEV$M_NET      = 00002000            DYN$C_MTL      = 00000019
CLI$_IVQLOC    = 00038078            DEV$M_ODV      = 08000000            DYN$C_MVL      = 00000016
CLI$_IVSYMB    = 00038080            DEV$M_RCK      = 40000000            DYN$C_NDB      = 0000001C
CLI$_IVVALU    = 00038088            DEV$M_REC      = 00000001            DYN$C_NET      = 00000017
CLI$_IVVERB    = 00038090            DEV$M_RND      = 10000000            DYN$C_PBH      = 00000020
CLI$_MAXPARM   = 00038098            DEV$M_RTM      = 20000000            DYN$C_PCB      = 0000000C
CLI$_MULKEY    = 000381A0            DEV$M_SDI      = 00000010            DYN$C_PDB      = 00000021
CLI$_NOATFIL   = 000380A0            DEV$M_SHR      = 00010000            DYN$C_PFL      = 00000023
CLI$_NOCCAT    = 000380A8            DEV$M_SPL      = 00000040            DYN$C_PIB      = 00000022
CLI$_NOCOMD    = 000380B0            DEV$M_SQD      = 00000020            DYN$C_PQB      = 0000000D
CLI$_NOKEYW    = 000380B8            DEV$M_SWL      = 02000000            DYN$C_PTR      = 00000025
CLI$_NOLIST    = 000380C0            DEV$M_TRM      = 00000004            DYN$C_RVT      = 0000000E
CLI$_NOOPTPRS  = 00038842            DEV$M_WCK      = 80000000            DYN$C_SFT      = 00000024
CLI$_NOQUAL    = 000380C8            DEV$V_ALL      = 00000017            DYN$C_SSB      = 0000001D
CLI$_NORMAL    = 00030001            DEV$V_AVL      = 00000012            DYN$C_TQE      = 0000000F
CLI$_NOTNEG    = 000380D8            DEV$V_CCL      = 00000001            DYN$C_TYPAHD   = 00000014
SETDEVUTL       - SET DEVICE UTILITIES                           21-AUG-1978 19:13:24   VAX-11 MACRO X0.3-11               Page  10
SYMBOL TABLE                                                                                                                     (1)

DYN$C_UCB      = 00000010            IRP$V_PRIVIO   = 00000009            SCH$LOCKW        ********   X   03
DYN$C_VCB      = 00000011            IRP$V_SWAPIO   = 00000006            SCH$UNLOCK       ********   X   03
DYN$C_WCB      = 00000012            IRP$V_VIRTUAL  = 00000004            SET$DEV_ERLG     000000E9 RG    03
EXE$ALONONPAGED  ********   X   03   IRP$W_ABCNT      0000003C            SET$DEV_NOSPOOL  00000098 RG    03
EXE$DEANONPAGED  ********   X   03   IRP$W_BCNT       00000032            SET$DEV_PROT     000000FA RG    03
FLAG           = 00000008            IRP$W_BOFF       00000030            SET$DEV_SPOOL    00000000 RG    03
GBL...         = 00000000            IRP$W_CHAN       00000028            SS$_DEVASSIGN    ********   X   03
IOC$GL_MUTEX     ********   X   03   IRP$W_FUNC       00000020            SS$_DEVNOTMOUNT  ********   X   03
IRP$B_CARCON     00000038            IRP$W_OBCNT      0000003E            SS$_INSFMEM      ********   X   03
IRP$B_EFN        00000022            IRP$W_SIZE       00000008            SS$_NOTFILEDEV   ********   X   03
IRP$B_PRI        00000023            IRP$W_STS        0000002A            UCB$B_AMOD       00000053
IRP$B_RMOD       0000000B            IRP$W_TT_PRMPT   0000003C            UCB$B_CEX        00000077
IRP$B_TYPE       0000000A            LOCK_IODB        0000010E R     03   UCB$B_CM1        0000004A
IRP$C_LENGTH     0000004C            PR$_ACCR       = 00000029            UCB$B_CM2        0000004B
IRP$K_LENGTH     0000004C            PR$_ACCS       = 00000028            UCB$B_DEVCLASS   00000038
IRP$L_AST        00000010            PR$_ASTLVL     = 00000013            UCB$B_DEVTYPE    00000039
IRP$L_ASTPRM     00000014            PR$_ESP        = 00000001            UCB$B_DIPL       00000052
IRP$L_DIAGBUF    00000044            PR$_ICCS       = 00000018            UCB$B_DX_SCTCNT  000000A6
IRP$L_IOQBL      00000004            PR$_ICR        = 0000001A            UCB$B_ERTCNT     00000070
IRP$L_IOQFL      00000000            PR$_IPL        = 00000012            UCB$B_ERTMAX     00000071
IRP$L_IOSB       00000024            PR$_ISP        = 00000004            UCB$B_ESCAPE     0000004B
IRP$L_IOST1      00000034            PR$_KSP        = 00000000            UCB$B_FEX        00000076
IRP$L_IOST2      00000038            PR$_MAPEN      = 00000038            UCB$B_FIPL       0000000B
IRP$L_MEDIA      00000034            PR$_NICR       = 00000019            UCB$B_LOCSRV     0000003C
IRP$L_PID        0000000C            PR$_P0BR       = 00000008            UCB$B_OFFNDX     00000094
IRP$L_SEGVBN     00000040            PR$_P0LR       = 00000009            UCB$B_OFFRTC     00000095
IRP$L_SEQNUM     00000048            PR$_P1BR       = 0000000A            UCB$B_REMSRV     0000003D
IRP$L_SVAPTE     0000002C            PR$_P1LR       = 0000000B            UCB$B_SECTORS    0000003C
IRP$L_TT_TERM    00000038            PR$_PCBB       = 00000010            UCB$B_SLAVE      00000074
IRP$L_UCB        0000001C            PR$_PME        = 0000003D            UCB$B_SPR        00000075
IRP$L_WIND       00000018            PR$_RXCS       = 00000020            UCB$B_STATE      00000052
IRP$M_BUFIO    = 00000001            PR$_RXDB       = 00000021            UCB$B_TRACKS     0000003D
IRP$M_CHAINED  = 00000020            PR$_SBIER      = 00000034            UCB$B_TYPE       0000000A
IRP$M_COMPLX   = 00000008            PR$_SBIFS      = 00000030            UCB$B_VERTSZ     0000003F
IRP$M_DIAGBUF  = 00000080            PR$_SBIMT      = 00000033            UCB$C_LENGTH     00000074
IRP$M_FUNC     = 00000002            PR$_SBIQC      = 00000036            UCB$C_LOGLNK   = 00000001
IRP$M_MBXIO    = 00000400            PR$_SBIS       = 00000031            UCB$K_LENGTH     00000074
IRP$M_PAGIO    = 00000004            PR$_SBISC      = 00000032            UCB$L_AMB        00000054
IRP$M_PHYSIO   = 00000100            PR$_SBITA      = 00000035            UCB$L_ASTQBL     00000010
IRP$M_PRIVIO   = 00000200            PR$_SBR        = 0000000C            UCB$L_ASTQFL     0000000C
IRP$M_SWAPIO   = 00000040            PR$_SCBB       = 00000011            UCB$L_CPID       0000005C
IRP$M_VIRTUAL  = 00000010            PR$_SID        = 0000003E            UCB$L_CRB        00000020
IRP$Q_NT_PRVMSK  0000003C            PR$_SIRR       = 00000014            UCB$L_DDB        00000024
IRP$S_FCODE    = 00000006            PR$_SISR       = 00000015            UCB$L_DEVCHAR    00000034
IRP$S_FMOD     = 0000000A            PR$_SLR        = 0000000D            UCB$L_DEVDEPEND  0000003C
IRP$S_MODE     = 00000002            PR$_SSP        = 00000002            UCB$L_DPC        00000080
IRP$V_BUFIO    = 00000000            PR$_TBIA       = 00000039            UCB$L_DUETIM     0000005C
IRP$V_CHAINED  = 00000005            PR$_TBIS       = 0000003A            UCB$L_DX_BFPNT   0000009C
IRP$V_COMPLX   = 00000003            PR$_TODR       = 0000001B            UCB$L_DX_BUF     00000098
IRP$V_DIAGBUF  = 00000007            PR$_TXCS       = 00000022            UCB$L_DX_RXDB    000000A0
IRP$V_FCODE    = 00000000            PR$_TXDB       = 00000023            UCB$L_EMB        00000078
IRP$V_FMOD     = 00000006            PR$_USP        = 00000003            UCB$L_FIRST      00000014
IRP$V_FUNC     = 00000001            PR$_WCSA       = 0000002C            UCB$L_FPC        0000000C
IRP$V_MBXIO    = 0000000A            PR$_WCSD       = 0000002D            UCB$L_FQBL       00000004
IRP$V_MODE     = 00000000            PROT           = 00000008            UCB$L_FQFL       00000000
IRP$V_PAGIO    = 00000002            Q_DESC         = 0000000C            UCB$L_FR3        00000010
IRP$V_PHYSIO   = 00000008            SCH$GL_CURPCB    ********   X   03   UCB$L_FR4        00000014
SETDEVUTL       - SET DEVICE UTILITIES                           21-AUG-1978 19:13:24   VAX-11 MACRO X0.3-11               Page  11
SYMBOL TABLE                                                                                                                     (1)

UCB$L_IOQBL      00000044            UCB$V_INTTYPE  = 00000007            VCB$B_IBMAPVBN   0000003A
UCB$L_IOQFL      00000040            UCB$V_JOB      = 00000000            VCB$B_LRU_LIM    00000049
UCB$L_IRP        0000004C            UCB$V_LNKPRI   = 00000006            VCB$B_QNAMECNT   0000000B
UCB$L_LINK       0000002C            UCB$V_LTYPE    = 00000000            VCB$B_RESFILES   0000004F
UCB$L_LOGADR     00000064            UCB$V_MOUNTING = 00000009            VCB$B_SBMAPSIZE  00000039
UCB$L_MAXBLOCK   00000084            UCB$V_MSGACK   = 00000004            VCB$B_SBMAPVBN   0000003B
UCB$L_MEDIA      0000008C            UCB$V_MSGFLO   = 00000003            VCB$B_STATUS     0000000B
UCB$L_NT_DATSSB  00000074            UCB$V_NOCNVRT  = 00000002            VCB$B_TM         0000002E
UCB$L_NT_INTSSB  00000078            UCB$V_NT_BFROVF= 00000002            VCB$B_TYPE       0000000A
UCB$L_OPCNT      00000060            UCB$V_NT_BREAK = 00000005            VCB$B_WINDOW     00000048
UCB$L_OWNUIC     0000001C            UCB$V_NT_NAME  = 00000004            VCB$C_COMLEN     00000024
UCB$L_PID        00000028            UCB$V_ONLINE   = 00000004            VCB$C_LENGTH     00000054
UCB$L_RQBL       00000004            UCB$V_POWER    = 00000005            VCB$C_MRKLEN     0000000B
UCB$L_RQFL       00000000            UCB$V_PRMMBX   = 00000000            VCB$K_COMLEN     00000024
UCB$L_SVAPTE     00000068            UCB$V_SEGFLO   = 00000002            VCB$K_LENGTH     00000054
UCB$L_SVPN       00000064            UCB$V_TIM      = 00000000            VCB$K_MRKLEN     0000000B
UCB$L_TTCHAR     0000003C            UCB$V_TIMOUT   = 00000006            VCB$L_AQB        00000010
UCB$L_VCB        00000030            UCB$V_TT_NOTIF = 00000002            VCB$L_BLOCKBL    00000004
UCB$M_BACKP    = 00000020            UCB$V_TT_TIMO  = 00000001            VCB$L_BLOCKFL    00000000
UCB$M_BSY      = 00000100            UCB$V_UNLOAD   = 0000000C            VCB$L_CUR_FID    00000024
UCB$M_CANCEL   = 00000008            UCB$V_VALID    = 0000000B            VCB$L_FCBBL      00000004
UCB$M_DEADMO   = 00000400            UCB$W_BCNT       0000006E            VCB$L_FCBFL      00000000
UCB$M_DELMBX   = 00000002            UCB$W_BCR        00000096            VCB$L_FREE       00000040
UCB$M_DIAGBUF  = 00000002            UCB$W_BOFF       0000006C            VCB$L_HOME2LBN   00000028
UCB$M_DX_WRITE = 00000008            UCB$W_BUFQUO     00000018            VCB$L_HOMELBN    00000024
UCB$M_ECC      = 00000001            UCB$W_BYTESTOGO  0000003E            VCB$L_IBMAPLBN   00000030
UCB$M_ERLOGIP  = 00000004            UCB$W_CHARGE     0000004A            VCB$L_IXHDR2LBN  0000002C
UCB$M_INT      = 00000002            UCB$W_CYLINDERS  0000003E            VCB$L_MAXFILES   00000044
UCB$M_INTTYPE  = 00000080            UCB$W_DA         0000008C            VCB$L_MVL        00000034
UCB$M_JOB      = 00000001            UCB$W_DC         0000008E            VCB$L_RVT        00000020
UCB$M_MOUNTING = 00000200            UCB$W_DEVBUFSIZ  0000003A            VCB$L_SBMAPLBN   00000034
UCB$M_NOCNVRT  = 00000004            UCB$W_DEVSTS     0000005A            VCB$L_START_FID  00000028
UCB$M_NT_BFROVF= 00000004            UCB$W_DIRSEQ     00000088            VCB$L_ST_RECORD  00000030
UCB$M_NT_BREAK = 00000020            UCB$W_DSTADDR    00000018            VCB$L_USRLBLAST  00000044
UCB$M_NT_NAME  = 00000010            UCB$W_DX_BCR     000000A4            VCB$L_VPBL       00000040
UCB$M_ONLINE   = 00000010            UCB$W_EC1        00000090            VCB$L_VPFL       0000003C
UCB$M_POWER    = 00000020            UCB$W_EC2        00000092            VCB$L_WCB        00000038
UCB$M_PRMMBX   = 00000001            UCB$W_ERRCNT     00000072            VCB$M_CANCELIO = 00000020
UCB$M_TIM      = 00000001            UCB$W_FUNC       0000007E            VCB$M_MUSTCLOSE= 00000040
UCB$M_TIMOUT   = 00000040            UCB$W_MB_SEED    FFFFFFFC            VCB$M_NOWRITE  = 00000080
UCB$M_TT_NOTIF = 00000004            UCB$W_MSGCNT     00000016            VCB$M_WAIMOUVOL= 00000004
UCB$M_TT_TIMO  = 00000002            UCB$W_MSGMAX     00000014            VCB$M_WAIREWIND= 00000008
UCB$M_UNLOAD   = 00001000            UCB$W_NT_CHAN    0000007C            VCB$M_WAIUSRLBL= 00000010
UCB$M_VALID    = 00000800            UCB$W_OFFSET     0000008A            VCB$T_QNAME      0000000C
UCB$S_LNKPRI   = 00000002            UCB$W_REFC       00000050            VCB$T_VOLNAME    00000014
UCB$S_LTYPE    = 00000002            UCB$W_SIZE       00000008            VCB$V_CANCELIO = 00000005
UCB$T_PARTNER    0000000C            UCB$W_SRCADDR    0000001A            VCB$V_EBCDIC   = 00000005
UCB$V_BACKP    = 00000005            UCB$W_STS        00000058            VCB$V_EXTFID   = 00000005
UCB$V_BSY      = 00000008            UCB$W_UNIT       00000048            VCB$V_GROUP    = 00000006
UCB$V_CANCEL   = 00000003            UCB$W_VPROT      0000001A            VCB$V_HOMBLKBAD= 00000002
UCB$V_DEADMO   = 0000000A            UCB1           = 00000004            VCB$V_IDXHDRBAD= 00000003
UCB$V_DELMBX   = 00000001            UCB2           = 00000008            VCB$V_INTCHG   = 00000004
UCB$V_DIAGBUF  = 00000001            UIC            = 0000000C            VCB$V_LOGICEOVS= 00000001
UCB$V_DX_WRITE = 00000003            UNLOCK_IODB      00000123 R     03   VCB$V_MUSTCLOSE= 00000006
UCB$V_ECC      = 00000000            VCB$B_CUR_RVN    0000002F            VCB$V_NOALLOC  = 00000004
UCB$V_ERLOGIP  = 00000002            VCB$B_EOFDELTA   0000004E            VCB$V_NOWRITE  = 00000007
UCB$V_INT      = 00000001            VCB$B_IBMAPSIZE  00000038            VCB$V_OVRACC   = 00000001
SETDEVUTL       - SET DEVICE UTILITIES                           21-AUG-1978 19:13:24   VAX-11 MACRO X0.3-11               Page  12
SYMBOL TABLE                                                                                                                     (1)

VCB$V_OVREXP   = 00000000
VCB$V_OVRLBL   = 00000002
VCB$V_OVRSETID = 00000003
VCB$V_PARTFILE = 00000000
VCB$V_STARFILE = 00000008
VCB$V_SYSTEM   = 00000007
VCB$V_WAIMOUVOL= 00000002
VCB$V_WAIREWIND= 00000003
VCB$V_WAIUSRLBL= 00000004
VCB$V_WRITE_IF = 00000000
VCB$V_WRITE_SM = 00000001
VCB$W_CLUSTER    0000003C
VCB$W_CUR_NUM    00000024
VCB$W_CUR_SEQ    00000026
VCB$W_EXTEND     0000003E
VCB$W_FILEPROT   0000004A
VCB$W_MCOUNT     0000004C
VCB$W_MODE       0000002C
VCB$W_RECORDSZ   00000050
VCB$W_RVN        0000000E
VCB$W_SIZE       00000008
VCB$W_START_NUM  00000028
VCB$W_START_SEQ  0000002A
VCB$W_TRANS      0000000C


PROGRAM SECTION SYNOPSIS

.  ABS  .        00000000      00     NOPIC   USR   CON   ABS   LCL NOSHR NOEXE NORD  NOWRT BYTE
. BLANK .        00000000      01     NOPIC   USR   CON   REL   LCL NOSHR   EXE   RD    WRT BYTE
$ABS$            FFFFFFFE      02     NOPIC   USR   CON   ABS   LCL NOSHR   EXE   RD    WRT BYTE
SET$CODE         0000013B      03     NOPIC   USR   CON   REL   LCL NOSHR   EXE   RD  NOWRT BYTE


THERE WERE NO ERRORS OR WARNINGS.
10990. BYTES LEFT IN FREE MEMORY POOL.
3762. BYTES OF RECLAIMED MEMORY.
OBJ$:SETDEVUTL,LIS$:SETDEVUTL/-SP=EXECML$/ML,LIB$:CLIUTL/ML,SRC$:SETDEVUTL
41 MLB DIR RDS - 803 GETS TO DEFINE 18 MACROS. 60 INTER. FILE WRITES.
