SET$MSG_TEXT    - MESSAGE TABLE TO SET UTILITY                   21-AUG-1978 19:07:14   VAX-11 MACRO X0.3-11               Page   0
TABLE OF CONTENTS

   (2)      42  DECLARATIONS
   (3)     137  MESSAGE DEFINITIONS
SET$MSG_TEXT    - MESSAGE TABLE TO SET UTILITY                   21-AUG-1978 19:07:14   VAX-11 MACRO X0.3-11               Page   1
X0101                                                                                                                            (1)

                                     0000     1 	.TITLE	SET$MSG_TEXT - MESSAGE TABLE TO SET UTILITY
                                     0000     2
                                     0000     3 	.IDENT	/X0101/
                                     0000     4
                                     0000     5 ;
                                     0000     6 ; COPYRIGHT (C) 1977
                                     0000     7 ; DIGITAL EQUIPMENT CORPORATION, MAYNARD, MASSACHUSETTS 01754
                                     0000     8 ;
                                     0000     9 ; THIS SOFTWARE IS FURNISHED  UNDER A LICENSE FOR USE ONLY ON A SINGLE
                                     0000    10 ; COMPUTER  SYSTEM AND  MAY BE  COPIED ONLY WITH  THE INCLUSION OF THE
                                     0000    11 ; ABOVE COPYRIGHT NOTICE.  THIS SOFTWARE, OR ANY OTHER COPIES THEREOF,
                                     0000    12 ; MAY NOT BE PROVIDED OR  OTHERWISE MADE AVAILABLE TO ANY OTHER PERSON
                                     0000    13 ; EXCEPT FOR USE ON SUCH SYSTEM AND TO ONE WHO AGREES TO THESE LICENSE
                                     0000    14 ; TERMS.  TITLE TO AND  OWNERSHIP OF THE  SOFTWARE  SHALL AT ALL TIMES
                                     0000    15 ; REMAIN IN DEC.
                                     0000    16 ;
                                     0000    17 ; THE INFORMATION IN THIS SOFTWARE IS SUBJECT TO CHANGE WITHOUT NOTICE
                                     0000    18 ; AND SHOULD  NOT BE CONSTRUED  AS A COMMITMENT  BY DIGITAL  EQUIPMENT
                                     0000    19 ; CORPORATION.
                                     0000    20 ;
                                     0000    21 ; DEC ASSUMES  NO  RESPONSIBILITY  FOR  THE USE OR  RELIABILITY OF ITS
                                     0000    22 ; SOFTWARE ON EQUIPMENT WHICH IS NOT SUPPLIED BY DEC.
                                     0000    23 ;
                                     0000    24
                                     0000    25 ;++
                                     0000    26 ; FACILITY:	DEFINES MESSAGE TEXT FOR SET UTILITY
                                     0000    27 ;
                                     0000    28 ; ABSTRACT:
                                     0000    29 ;
                                     0000    30 ;	This module defines the message table used by th SET utility
                                     0000    31 ;
                                     0000    32 ; ENVIRONMENT:
                                     0000    33 ;
                                     0000    34 ;	AUTHOR: BEATRICE U.WALTHER,	CREATION DATE:	10-OCT-1977
                                     0000    35 ;
                                     0000    36 ; MODIFIED BY:
                                     0000    37 ;
                                     0000    38 ;	, : VERSION
                                     0000    39 ; 01	-
                                     0000    40 ;--
SET$MSG_TEXT    - MESSAGE TABLE TO SET UTILITY                   21-AUG-1978 19:07:14   VAX-11 MACRO X0.3-11               Page   2
X0101           DECLARATIONS                                                                                                     (2)

                                     0000    42 	.SBTTL	DECLARATIONS
                                     0000    43
                                     0000    44 ;
                                     0000    45 ; INCLUDE FILES:
                                     0000    46 ;
                                     0000    47
                                     0000    48 ;
                                     0000    49 ; MACROS:
                                     0000    50 ;
                                     0000    51
                                     0000    52 ;
                                     0000    53 ; SHOW_DEFMS1 =	MACRO USED INTERNALLY BY SHOW_DEFMSG
                                     0000    54 ;
                                     0000    55
                                     0000    56 	.MACRO	SHOW_DEFMS1	MSG_CODE,TXTSTRING,MSG_PAR,?L1,?L2
                                     0000    57 $TXT_COUNT$=$TXT_COUNT$+1		; COUNT OF MESSAGES CREATED THIS CALL
                                     0000    58 $temp1$=0				; FAO PARAMETER COUNT, IF PRESENT
                                     0000    59 	.IIF	NB,MSG_PAR,$temp1$=MSG_PAR@2
                                     0000    60 $temp2$=$MSG_CONTINUE$			; CONTINUATION FLAG
                                     0000    61 	.IIF	NE,$TXT_COUNT$-1,$temp2$=1
                                     0000    62 	.LONG	L2-L1			; BUILD DESCRIPTOR TO FAO CONTROL STRING
                                     0000    63 	.LONG	L1			;
                                     0000    64 	.BYTE	MSG_CODE			; CODE ASSOCIATED WITH MESSAGE
                                     0000    65 	.BYTE	$temp2$			; CONTINUATION FLAG
                                     0000    66 	.BYTE	$temp1$			; NUMBER OF FAO PARAMETERS REQUIRED
                                     0000    67 	.BYTE	0			; UNUSED
                                     0000    68 	.SAVE
                                     0000    69 	.PSECT	SHOW$MSG_TEXT	BYTE,RD,NOWRT,NOEXE
                                     0000    70 L1:	.ASCII	&TXTSTRING&			; FAO CONTROL STRING FOR MESSAGE
                                     0000    71 L2:
                                     0000    72 	.RESTORE
                                     0000    73 	.ENDM	SHOW_DEFMS1
                                     0000    74
                                     0000    75 ;
                                     0000    76 ; COUNT_ARGS =		MACRO USED INTERNALLY BY SHOW_DEFMSG
                                     0000    77 ;
                                     0000    78
                                     0000    79 	.MACRO	COUNT_ARGS	D1,D2,D3,D4,D5,D6,D7,D8,D9,D10,D11,D12,D13,D14,D15,D16,D17,D18,D1
                                     0000    80 	.NARG	$TXT_NB$
                                     0000    81 	.ENDM	COUNT_ARGS
                                     0000    82
                                     0000    83 ;
                                     0000    84 ; SHOW_DEFMSG
                                     0000    85 ;
                                     0000    86 ;	THIS MACRO DEFINES A GLOBAL MESSAGE IDENTIFIER AND BUILDS ONE OR MORE
                                     0000    87 ;	MESSAGE TABLE ENTRIES, CONSISTING OF:
                                     0000    88 ;
                                     0000    89 ;	A 2 LONGWORDS DESCRIPTOR TO THE FAO CONTROL STRING OF THE
                                     0000    90 ;	MESSAGE, AND THE MESSAGE TEXT ITSELF.
                                     0000    91 ;
                                     0000    92 ;	ONE LONG WORD CONTAINING A CODE:
                                     0000    93 ;		BYTE 0:		0	= PRINT ON SYS$OUTPUT:
                                     0000    94 ;				1	= PRINT ONSYS$OUTPUT: AND SYS$ERROR:
                                     0000    95 ;		BYTE 1:		0	= LAST LINE OF MESSAGE
                                     0000    96 ;				1	= CONTINUATION LINE FOLLOWS
                                     0000    97 ;		BYTE 2:		LENGTH IN LONGWORDS OF FAO PARAMETER LIST FOR
                                     0000    98 ;				THIS LINE.
SET$MSG_TEXT    - MESSAGE TABLE TO SET UTILITY                   21-AUG-1978 19:07:14   VAX-11 MACRO X0.3-11               Page   3
X0101           DECLARATIONS                                                                                                     (2)

                                     0000    99 ;				( IGNORED IF CONTINUATION FLAG IS CLEAR)
                                     0000   100 ;
                                     0000   101
                                     0000   102 		.MACRO	SHOW_DEFMSG	MSG_ID,MSG_TEXT,MSG_CODE
                                     0000   103 	.IIF	NDF,$MSG_COUNT$,$MSG_COUNT$=0
                                     0000   104 ;***	.IF	DF,'MSG_ID'			; SYMBOL ALREADY DEFINED ?
                                     0000   105 ;***	.IFT
                                     0000   106 	MSG_ID == $MSG_COUNT$		; DEFINE MESSAGE IDENTIFICATION SYMBOL
                                     0000   107 	$MSG_CONTINUE$=0		; MESSAGE CONTINUATION FLAG
                                     0000   108 ;***	.IFF
                                     0000   109 ;***	$MSG_CONTINUE$=1
                                     0000   110 ;***	.ENDC
                                     0000   111 $TXT_COUNT$=0				; COUNT FOR MESSAGES GENERATED
                                     0000   112 	COUNT_ARGS	MSG_TEXT		; COUNT NUMBER OF LINES TO GENERATE
                                     0000   113 	.IRP	TXTARG,<MSG_TEXT>		; REPEAT FOR EACH TEXT STRING
                                     0000   114 	SHOW_DEFMS1	MSG_CODE,TXTARG	; GENERATE THE STRING
                                     0000   115 	.ENDR
                                     0000   116 $MSG_COUNT$=$MSG_COUNT$+$TXT_COUNT$
                                     0000   117 	.ENDM	SHOW_DEFMSG
                                     0000   118
                                     0000   119 ;
                                     0000   120 ; SHOW_DEFMSG_END =	GENERATES THE END OF THE MESSAGE TABLE
                                     0000   121 ;
                                     0000   122
                                     0000   123 	.MACRO	SHOW_DEFMSG_END
                                     0000   124 	.QUAD	0		; NULL DESCRIPTOR
                                     0000   125 	.LONG	0		; CONTINUATION FLAG CLEAR
                                     0000   126 	.ENDM	SHOW_DEFMSG_END
                                     0000   127
SET$MSG_TEXT    - MESSAGE TABLE TO SET UTILITY                   21-AUG-1978 19:07:14   VAX-11 MACRO X0.3-11               Page   4
X0101           DECLARATIONS                                                                                                     (3)

                                     0000   129 ;
                                     0000   130 ; EQUATED SYMBOLS:
                                     0000   131 ;
                                     0000   132 ;
                                     0000   133 ; define error codes for SET command
                                     0000   134 ;
                                     0000   135
                                     0000   136
                                     0000   137 	.SBTTL	MESSAGE DEFINITIONS
                                     0000   138
                                     0000   139 ;
                                     0000   140 ; OWN STORAGE:
                                     0000   141 ;
                                     0000   142
                                     0000   143 ;
                                     0000   144 ; DEFINE MESSAGE TABLE FOR SET COMMAND
                                     0000   145 ;
                                     0000   146
                                 00000000   147 	.PSECT	SHOW$MSG_TABLE	LONG,RD,NOWRT,NOEXE
                                     0000   148
                                     0000   149 	.WEAK	SHOW$A_MSGTXT
                                     0000   150 SHOW$A_MSGTXT:
                                     0000   151
                                     0000   152 	.ENABL	LSB
                                     0000   153 ;
                                     0000   154 ; SET WORKING_SET
                                     0000   155 ;
                                     0000   156
                                     0000   157 	SHOW_DEFMSG	SET$_WORKSET, -
                                     0000   158 <<<  New Working Set  /Limit= !ZW!_/Quota= !ZW>>>,0
                                     000C   159
                                     000C   160 ;
                                     000C   161 ; SET QUEUE
                                     000C   162 ;
                                     000C   163 	SHOW_DEFMSG	SET$_JOBIDREQ,-
                                     000C   164 <<<  Please specify /ENTRY=jobid>>>,0
                                     0018   165 	SHOW_DEFMSG	SET$_MSGNOTSYM,-
                                     0018   166 <<<  WARNING: Message not from symbiont Manager>>>,0
                                     0024   167
                                     0024   168 	SHOW_DEFMSG	SET$_LOGIN, -
                                     0024   169 <<<  Login quotas - Interactive limit=!ZW, Current interactive value=!ZW>>>,0
                                     0030   170 ;
                                     0030   171 ; end of message table
                                     0030   172 ;
                                     0030   173
                                     0030   174 	SHOW_DEFMSG_END
                                     003C   175 	.END
SET$MSG_TEXT    - MESSAGE TABLE TO SET UTILITY                   21-AUG-1978 19:07:14   VAX-11 MACRO X0.3-11               Page   5
SYMBOL TABLE                                                                                                                     (3)

$MSG_CONTINUE$ = 00000000
$MSG_COUNT$    = 00000004
$TEMP1$        = 00000000
$TEMP2$        = 00000000
$TXT_COUNT$    = 00000001
$TXT_NB$       = 00000001
SET$_JOBIDREQ  = 00000001  G
SET$_LOGIN     = 00000003  G
SET$_MSGNOTSYM = 00000002  G
SET$_WORKSET   = 00000000  G
SHOW$A_MSGTXT    00000000WRG    02


PROGRAM SECTION SYNOPSIS

.  ABS  .        00000000      00     NOPIC   USR   CON   ABS   LCL NOSHR NOEXE NORD  NOWRT BYTE
. BLANK .        00000000      01     NOPIC   USR   CON   REL   LCL NOSHR   EXE   RD    WRT BYTE
SHOW$MSG_TABLE   0000003C      02     NOPIC   USR   CON   REL   LCL NOSHR NOEXE   RD  NOWRT LONG
SHOW$MSG_TEXT    000000B9      03     NOPIC   USR   CON   REL   LCL NOSHR NOEXE   RD  NOWRT BYTE


THERE WERE NO ERRORS OR WARNINGS.
26470. BYTES LEFT IN FREE MEMORY POOL.
OBJ$:SETMSGTXT,LIS$:SETMSGTXT/-SP=EXECML$/ML,LIB$:CLIUTL/ML,SRC$:SETMSGTXT
0 MLB DIR RDS - 0 GETS TO DEFINE 0 MACROS. 3 INTER. FILE WRITES.
