SETPROCES       - SET PROCESS PARAMETERS                         21-AUG-1978 19:11:42   VAX-11 MACRO X0.3-11               Page   0
TABLE OF CONTENTS

   (1)   12500  SET PROCESS PRIORITY
   (1)   16900  ENABLE/DISABLE SWAP MODE
   (1)   20600  ENABLE/DISABLE RESOURCE WAIT MODE
SETPROCES       - SET PROCESS PARAMETERS                         21-AUG-1978 19:11:42   VAX-11 MACRO X0.3-11               Page   1
X01                                                                                                                              (1)

                                     0000   100 	.TITLE	SETPROCES - SET PROCESS PARAMETERS
                                     0000   200 	.IDENT	/X01/
                                     0000   300
                                     0000   400 ;
                                     0000   500 ; COPYRIGHT (C) 1978
                                     0000   600 ; DIGITAL EQUIPMENT CORPORATION, MAYNARD, MASSACHUSETTS 01754
                                     0000   700 ;
                                     0000   800 ; THIS SOFTWARE IS FURNISHED  UNDER A LICENSE FOR USE ONLY ON A SINGLE
                                     0000   900 ; COMPUTER  SYSTEM AND  MAY BE  COPIED ONLY WITH  THE INCLUSION OF THE
                                     0000  1000 ; ABOVE COPYRIGHT NOTICE.  THIS SOFTWARE, OR ANY OTHER COPIES THEREOF,
                                     0000  1100 ; MAY NOT BE PROVIDED OR  OTHERWISE MADE AVAILABLE TO ANY OTHER PERSON
                                     0000  1200 ; EXCEPT FOR USE ON SUCH SYSTEM AND TO ONE WHO AGREES TO THESE LICENSE
                                     0000  1300 ; TERMS.  TITLE TO AND  OWNERSHIP OF THE  SOFTWARE  SHALL AT ALL TIMES
                                     0000  1400 ; REMAIN IN DEC.
                                     0000  1500 ;
                                     0000  1600 ; THE INFORMATION IN THIS SOFTWARE IS SUBJECT TO CHANGE WITHOUT NOTICE
                                     0000  1700 ; AND SHOULD  NOT BE CONSTRUED  AS A COMMITMENT  BY DIGITAL  EQUIPMENT
                                     0000  1800 ; CORPORATION.
                                     0000  1900 ;
                                     0000  2000 ; DEC ASSUMES  NO  RESPONSIBILITY  FOR  THE USE OR  RELIABILITY OF ITS
                                     0000  2100 ; SOFTWARE ON EQUIPMENT WHICH IS NOT SUPPLIED BY DEC.
                                     0000  2200 ;
                                     0000  2300
                                     0000  2400 ;++
                                     0000  2500 ; FACILITY:	CLI UTILITY "SET"
                                     0000  2600 ;
                                     0000  2700 ; ABSTRACT:	SET A PROCESS'S RUNTIME PARAMETERS
                                     0000  2800 ;
                                     0000  2900 ; AUTHOR:	LEN KAWELL 12-MAY-1978
                                     0000  3000 ;--
                                     0000  3100 ;
                                     0000  3200 ; LOCAL MACROS
                                     0000  3300 ;
                                     0000  3400 	.MACRO	CALLBAK	P1,P2
                                     0000  3500 	.IF B <P2>
                                     0000  3600 	PUSHAB	W^BITS			; ADDRESS OF BIT MASK
                                     0000  3700 	.IFF
                                     0000  3800 	PUSHAB	P2			; ADDRESS OF THIRD ARGUEMENT
                                     0000  3900 	.ENDC
                                     0000  4000 	PUSHAB	W^SET$A_CLIWORK	; COMMON WORK AREA
                                     0000  4100 	PUSHAB	P1			; THE REQUEST DESCRIPTOR
                                     0000  4200 	CALLS	#3,@CLI$A_UTILSERV(AP)	; REQUEST THE SERVICE OF THE CLI
                                     0000  4300 	.ENDM				;
                                     0000  4400
                                     0000  4500 ;
                                     0000  4600 ; EXTERNAL SYMBOLS
                                     0000  4700 ;
                                     0000  4800 	$CLIDEFQUALSET			; DEFINE QUALIFIER CODES
                                     0000  4900 	$CLIMSGDEF			; DEFINE CLI MESSAGES
                                     0000  5000 ;
                                     0000  5100 ; LOCAL SYMBOLS
                                     0000  5200 ;
                                     0000  5300 	_VIELD	Q,0,<-			; CLI CALL BACK BIT FLAGS
                                     0000  5400 		IDEN,-			; IDENT QUALIFIER
                                     0000  5800 		>
                                     0000  5900 ;
                                     0000  6000 ; LOCAL STORAGE
SETPROCES       - SET PROCESS PARAMETERS                         21-AUG-1978 19:11:42   VAX-11 MACRO X0.3-11               Page   2
X01                                                                                                                              (1)

                                     0000  6100 ;
                                 00000000  6200 	.PSECT	SET$RWDATA,NOEXE,LONG
                                     0000  6300
                                     0000  6400 SETPRI:					; SET PRIORITY ARG LIST
                                     0000  6500 	$SETPRI	0,0,0,0
                                     0014  6600
                           00000000  0014  6700 BITS:	.LONG	0			; BIT ARRAY FOR CLI CALL BACK
                                     0018  6710
                           00000000  0018  6720 ID:	.LONG	0			; PROCESS ID
                                     001C  6800
                                     001C  6900 NUM_VAL:				; CLI REQUEST FOR NUMERIC VALUE
                                     001C  7000 	$CLIREQDESC	RQTYPE=CLI$K_NUMERVAL
                                     0038  7100
                                     0038  7200 PROC_NAME:				; CLI REQUEST FOR PROCESS NAME
                                     0038  7300 	$CLIREQDESC	RQTYPE=CLI$K_INPUT1
                                     0054  7400
                                     0054  7500 QUAL_REQ:				; CLI REQUEST FOR QUALIFIERS
                                     0054  7600 	$CLIREQDESC	RQTYPE=CLI$K_GETQUAL,QUALST=QUALS
                                     0070  7700
                                     0070  7800 QUALS:
                                     0070  7900
                                     0070  8000 IDEN_Q:	$CLIQUALDESC	QDCODE=CLI$K_STPC_IDEN,-
                                     0070  8100 			QDFLGS=<CLI$V_QDEXPA>,SETLST=Q_V_IDEN
                                     0088  8200 PRIO_Q:	$CLIQUALDESC	QDCODE=CLI$K_STPC_PRIO,TRUACT=PRIORITY,-
                                     0088  8300 			QDFLGS=<CLI$V_QDEXPA>
                                     009F  8400 	$CLIQUALDESC	QDCODE=CLI$K_STPC_RESO,TRUACT=RES_WAIT,FLSACT=NORES_WAIT,-
                                     009F  8500 			QDFLGS=<CLI$V_QDEXPA>
                                     00B6  8600 	$CLIQUALDESC	QDCODE=CLI$K_STPC_SWAP,TRUACT=SWAP,FLSACT=NOSWAP,-
                                     00B6  8700 			QDFLGS=<CLI$V_QDEXPA>
                                     00CD  8800 	$CLIQUALDESC	END_LIST
                                     00CE  8900
SETPROCES       - SET PROCESS PARAMETERS                         21-AUG-1978 19:11:42   VAX-11 MACRO X0.3-11               Page   3
X01                                                                                                                              (1)

                                 00000000  9100 	.PSECT	SET$CODE,NOWRT
                                     0000  9200 ;++
                                     0000  9300 ; SET$PROCESS - SET PROCESS PARAMETERS
                                     0000  9400 ;
                                     0000  9500 ; FUNCTIONAL DESCRIPTION:
                                     0000  9600 ;
                                     0000  9700 ; THIS ROUTINE SETS A PROCESS'S:
                                     0000  9800 ;
                                     0000  9900 ;	PRIORITY
                                     0000 10000 ;	RESOURCE WAIT MODE
                                     0000 10100 ;	SWAP MODE
                                     0000 10200 ;
                                     0000 10300 ; IT IS ENTERED AS A RESULT OF A DISPATCH FROM THE SET COMMAND PROCESSOR
                                     0000 10400 ;
                                     0000 10500 ; INPUTS:
                                     0000 10600 ;
                                     0000 10700 ;	THE CLI DATA BASE IS SET UP.
                                     0000 10800 ;
                                     0000 10900 ; OUTPUTS:
                                     0000 11000 ;
                                     0000 11100 ;	SET$L_STATUS = STATUS OF THE OPERATION
                                     0000 11200 ;--
                                     0000 11300 SET$PROCESS::				; SET A PROCESS'S PARAMETERS
                               0000  0000 11400 	.WORD	0
       0000'CF       0000'8F     3C  0002 11500 	MOVZWL	#SS$_NORMAL,W^SET$L_STATUS; ASSUME SUCCESS
                                     0009 11600 	CALLBAK	W^PROC_NAME		; CALL CLI FOR PROCESS NAME
                                     0019 11700 	CALLBAK	W^QUAL_REQ		; CALL CLI FOR QUALIFIERS
            05            50     E8  0029 11800 	BLBS	R0,10$			; IF LOW SET SUCCESS
       0000'CF            50     D0  002C 11900 	MOVL	R0,W^SET$L_STATUS	; SET STATUS
                                     0031 12000 10$:
                                 04  0031 12100 	RET				; RETURN
                                     0032 12200
                                     0032 12300
SETPROCES       - SET PROCESS PARAMETERS                         21-AUG-1978 19:11:42   VAX-11 MACRO X0.3-11               Page   4
X01             SET PROCESS PRIORITY                                                                                             (1)

                                     0032 12500 	.SBTTL	SET PROCESS PRIORITY
                                     0032 12600 ;++
                                     0032 12700 ; PRIORITY - SET PROCESS PRIORITY
                                     0032 12800 ;
                                     0032 12900 ; FUNCTIONAL DESCRIPTION:
                                     0032 13000 ;
                                     0032 13100 ; THIS ACTION ROUTINE CALLS THE SYSTEM SERVICE SYS$SETPRI TO SET
                                     0032 13200 ; THE PRIORITY OF A PROCESS.
                                     0032 13300 ;
                                     0032 13400 ;
                                     0032 13500 ; INPUTS:
                                     0032 13600 ;
                                     0032 13700 ;	IF SPECIFIED, THE PROCESS NAME DESCRIPTOR IS IN PROC_NAME
                                     0032 13800 ;
                                     0032 13900 ; OUTPUTS:
                                     0032 14000 ;
                                     0032 14100 ;	SET$L_STATUS = STATUS OF THE OPERATION
                                     0032 14200 ;--
                                     0032 14300 PRIORITY:
                               0000  0032 14400 	.WORD	0
                                     0034 14500 	CALLBAK	W^NUM_VAL,W^PRIO_Q	; GET THE PRIORITY VALUE
                                     0044 14600
            3E            50     E9  0044 14700 	BLBC	R0,60$			;
                                 D0  0047 14800 	MOVL	W^CLI$L_RQVALU+NUM_VAL,- ; SET PRIORITY VALUE
       000C'CF       0028'CF         0048 14900 		W^SETPRI$_PRI+SETPRI
                     0040'CF     B5  004E 15000 	TSTW	W^CLI$W_RQSIZE+PROC_NAME ; PROCESS NAME SPECIFIED?
                          09     13  0052 15100 	BEQL	40$			; IF EQL NO
                                 DE  0054 15500 	MOVAL	W^CLI$Q_RQDESC+PROC_NAME,- ; SET PROCESS NAME
       0008'CF       0040'CF         0055 15600 		W^SETPRI$_PRCNAM+SETPRI
                          1F     11  005B 15700 	BRB	50$
                                     005D 15800
       0014'CF            00     E1  005D 15900 40$:	BBC	#Q_V_IDEN,W^BITS,50$	; IF CLEAR NO PROCESS ID
                          19         0062
                     0018'CF     DF  0063 16000 	PUSHAL	W^ID			; SET ADDRESS OF RESULT
                     0074'CF     7F  0067 16010 	PUSHAQ	W^CLI$Q_QDVALDESC+IDEN_Q ; SET ADDRESS OF VALUE DESC
   00000000'EF            02     FB  006B 16020 	CALLS	#2,LIB$CVT_HEXBIN	; GET PROCESS ID VALUE
            10            50     E9  0072 16100 	BLBC	R0,60$			;
       0004'CF       0018'CF     DE  0075 16110 	MOVAL	W^ID,W^SETPRI$_PIDADR+SETPRI ; SET ADDRESS OF PID
                                     007C 16400 50$:	$SETPRI_G W^SETPRI		; SET THE PRIORITY
       0000'CF            50     D0  0085 16500 60$:	MOVL	R0,W^SET$L_STATUS	; SET STATUS
                                 04  008A 16600 	RET
                                     008B 16700
SETPROCES       - SET PROCESS PARAMETERS                         21-AUG-1978 19:11:42   VAX-11 MACRO X0.3-11               Page   5
X01             ENABLE/DISABLE SWAP MODE                                                                                         (1)

                                     008B 16900 	.SBTTL	ENABLE/DISABLE SWAP MODE
                                     008B 17000 ;++
                                     008B 17100 ; SWAP - ENABLE PROCESS SWAP MODE
                                     008B 17200 ; NOSWAP - DISABLE PROCESS SWAP MODE
                                     008B 17300 ;
                                     008B 17400 ; FUNCTIONAL DESCRIPTION:
                                     008B 17500 ;
                                     008B 17600 ; THIS ACTION ROUTINE CALLS THE SYSTEM SERVICE SYS$SETSWM TO SET
                                     008B 17700 ; THE PROCESS SWAP MODE.
                                     008B 17800 ;
                                     008B 17900 ;
                                     008B 18000 ; INPUTS:
                                     008B 18100 ;
                                     008B 18200 ;	THE CLI DATA BASE IS SET UP.
                                     008B 18300 ;
                                     008B 18400 ; OUTPUTS:
                                     008B 18500 ;
                                     008B 18600 ;	SET$L_STATUS = STATUS OF THE OPERATION
                                     008B 18700 ;--
                                     008B 18800 	.ENABL	LSB
                                     008B 18900
                               0000  008B 19000 SWAP:	.WORD	0
                          50     D4  008D 19100 	CLRL	R0			; SET FLAG TO ENABLE SWAPPING
                          05     11  008F 19200 	BRB	10$
                                     0091 19300
                               0000  0091 19400 NOSWAP:	.WORD	0
            50            01     D0  0093 19500 	MOVL	#1,R0			; SET FLAG TO DISABLE SWAPPING
                          0F     10  0096 19600 10$:	BSBB	CHECK_PROC		; CHECK THAT PROCESS NOT SPECIFIED
                                     0098 20000 	$SETSWM_S R0			; SET SWAP FLAG
       0000'CF            50     D0  00A1 20100 	MOVL	R0,W^SET$L_STATUS	; SET STATUS
                                 04  00A6 20200 	RET
                                     00A7 20300 	.DSABL	LSB
                                     00A7 20301
                                     00A7 20302
                                     00A7 20310 ;++
                                     00A7 20311 ; CHECK_PROC -	LOCAL ROUTINE TO CHECK THAT A PROCESS NAME OR ID WERE
                                     00A7 20312 ;		NOT SPECIFIED
                                     00A7 20313 ;--
                                     00A7 20314 CHECK_PROC:
                     0040'CF     B5  00A7 20320 	TSTW	W^CLI$W_RQSIZE+PROC_NAME ; PROCESS NAME SPECIFIED?
                          0A     13  00AB 20340 	BEQL	10$			; IF EQL NO
       0000'CF   000380C0 8F     D0  00AD 20360 	MOVL	#CLI$_NOLIST,W^SET$L_STATUS ; SET NO PARAMETER ERROR
                                 04  00B6 20380 	RET				; EXIT
       0014'CF            00     E1  00B7 20381 10$:	BBC	#Q_V_IDEN,W^BITS,20$	; IF CLEAR NO ID SPECIFIED
                          0A         00BC
       0000'CF   00038802 8F     D0  00BD 20382 	MOVL	#CLI$_CONFQUAL,W^SET$L_STATUS ;SET CONFLICTING QUALIFIERS
                                 04  00C6 20383 	RET
                                     00C7 20384 20$:
                                 05  00C7 20385 	RSB				; RETURN
                                     00C8 20386
                                     00C8 20400
SETPROCES       - SET PROCESS PARAMETERS                         21-AUG-1978 19:11:42   VAX-11 MACRO X0.3-11               Page   6
X01             ENABLE/DISABLE RESOURCE WAIT MODE                                                                                (1)

                                     00C8 20600 	.SBTTL	ENABLE/DISABLE RESOURCE WAIT MODE
                                     00C8 20700 ;++
                                     00C8 20800 ; RES_WAIT - ENABLE PROCESS RESOURCE WAIT MODE
                                     00C8 20900 ; NORES_WAIT - DISABLE PROCESS RESOURCE WAIT MODE
                                     00C8 21000 ;
                                     00C8 21100 ; FUNCTIONAL DESCRIPTION:
                                     00C8 21200 ;
                                     00C8 21300 ; THIS ACTION ROUTINE CALLS THE SYSTEM SERVICE SYS$SETRWM TO SET
                                     00C8 21400 ; THE PROCESS RESOURCE WAIT MODE.
                                     00C8 21500 ;
                                     00C8 21600 ;
                                     00C8 21700 ; INPUTS:
                                     00C8 21800 ;
                                     00C8 21900 ;	THE CLI DATA BASE IS SET UP.
                                     00C8 22000 ;
                                     00C8 22100 ; OUTPUTS:
                                     00C8 22200 ;
                                     00C8 22300 ;	SET$L_STATUS = STATUS OF THE OPERATION
                                     00C8 22400 ;--
                                     00C8 22500 	.ENABL	LSB
                                     00C8 22600
                                     00C8 22700 RES_WAIT:
                               0000  00C8 22800 	.WORD	0
                          50     D4  00CA 22900 	CLRL	R0			; SET FLAG TO ENABLE WAITING
                          05     11  00CC 23000 	BRB	10$
                                     00CE 23100
                                     00CE 23200 NORES_WAIT:
                               0000  00CE 23300 	.WORD	0
            50            01     D0  00D0 23400 	MOVL	#1,R0			; SET FLAG TO DISABLE WAITING
                          D2     10  00D3 23500 10$:	BSBB	CHECK_PROC		; CHECK THAT PROCESS NOT SPECIFIED
                                     00D5 23900 	$SETRWM_S R0			; SET RESOURCE WAIT FLAG
                                 04  00DE 24000 	RET
                                     00DF 24100 	.DSABL	LSB
                                     00DF 24200
                                     00DF 24300 	.END
SETPROCES       - SET PROCESS PARAMETERS                         21-AUG-1978 19:11:42   VAX-11 MACRO X0.3-11               Page   7
SYMBOL TABLE                                                                                                                     (1)

$$$            = 00000004            CLI$K_OUTPUT3  = 00000022            CLI$K_STQE_HOLD= 00000005
$$$.           = 00000004            CLI$K_OUTPUT4  = 00000023            CLI$K_STQE_JOB_= 00000002
$$$GBL         = 00000000            CLI$K_OUTSPEC  = 00000002            CLI$K_STQE_LOWE= 00000006
$$ARGS         = 00000004            CLI$K_PARDONE  = 00000003            CLI$K_STQE_NAME= 00000007
$$T1           = 00000014            CLI$K_QDBITS     00000014            CLI$K_STQE_PRIO= 00000008
$CLI.          = 000000B6 R     03   CLI$K_QUALDEF    00000014            CLI$K_STQE_RELE= 00000009
$CLI..         = 000000CD R     03   CLI$K_REQDESC    0000001C            CLI$K_STRM_BLOC= 00000001
$QUALNUM$      = 0000000B            CLI$K_SET_ACCO = 00000001            CLI$K_STRM_BUFF= 00000002
BIT...         = 00000045            CLI$K_SET_CARD = 00000002            CLI$K_STRM_DISK= 00000003
BITS             00000014 R     03   CLI$K_SET_CONT = 00000012            CLI$K_STRM_HASH= 00000006
CHECK_PROC       000000A7 R     04   CLI$K_SET_DEFA = 00000004            CLI$K_STRM_INDE= 00000007
CLI$A_ABSACT     00000014            CLI$K_SET_DEVI = 00000003            CLI$K_STRM_MAGT= 00000004
CLI$A_ERRACT     00000004            CLI$K_SET_LOGI = 00000005            CLI$K_STRM_RELA= 00000008
CLI$A_FLSACT     00000010            CLI$K_SET_MAGT = 00000006            CLI$K_STRM_SEQU= 00000009
CLI$A_IMGFILED   00000010            CLI$K_SET_ON   = 00000007            CLI$K_STRM_SYST= 0000000A
CLI$A_IMGHDADR   0000000C            CLI$K_SET_PASS = 00000008            CLI$K_STRM_UNIT= 00000005
CLI$A_PROGXFER   00000004            CLI$K_SET_PRIN = 00000009            CLI$K_STTT_BROA= 00000001
CLI$A_PRSACT     00000010            CLI$K_SET_PROC = 0000000A            CLI$K_STTT_CRFI= 00000002
CLI$A_QDVALADR   00000008            CLI$K_SET_PROT = 0000000B            CLI$K_STTT_ECHO= 00000003
CLI$A_QUALST     00000018            CLI$K_SET_QUEU = 0000000C            CLI$K_STTT_EIGH= 00000004
CLI$A_RQADDR     0000000C            CLI$K_SET_RMS_ = 00000011            CLI$K_STTT_ESCA= 00000005
CLI$A_TRUACT     0000000C            CLI$K_SET_TERM = 0000000D            CLI$K_STTT_HARD= 00000006
CLI$A_UTILSERV   00000008            CLI$K_SET_UIC  = 0000000E            CLI$K_STTT_HOLD= 00000007
CLI$B_BITNUM     00000001            CLI$K_SET_VERI = 0000000F            CLI$K_STTT_HOST= 00000008
CLI$B_QDBLKSIZ   00000000            CLI$K_SET_WORK = 00000010            CLI$K_STTT_INTE= 00000009
CLI$B_QDCODE     00000001            CLI$K_STAC_DISA= 00000001            CLI$K_STTT_LA36= 0000000A
CLI$B_QDFLGS     00000002            CLI$K_STAC_ENAB= 00000002            CLI$K_STTT_LFFI= 0000000B
CLI$B_QDSTAT     00000003            CLI$K_STAC_NEW_= 00000003            CLI$K_STTT_LOCA= 0000000C
CLI$B_RQFLGS     00000002            CLI$K_STCR_026 = 00000001            CLI$K_STTT_LOWE= 0000000D
CLI$B_RQINDX     00000001            CLI$K_STCR_029 = 00000002            CLI$K_STTT_PAGE= 0000000E
CLI$B_RQSTAT     00000003            CLI$K_STDV_ERRO= 00000002            CLI$K_STTT_PARI= 0000001E
CLI$B_RQTYPE     00000000            CLI$K_STDV_SPOO= 00000001            CLI$K_STTT_PASS= 0000000F
CLI$C_QDBITS     00000014            CLI$K_STLG_INTE= 00000001            CLI$K_STTT_PERM= 00000020
CLI$C_QUALDEF    00000014            CLI$K_STLP_CR  = 00000001            CLI$K_STTT_READ= 0000001F
CLI$C_REQDESC    0000001C            CLI$K_STLP_FF  = 00000002            CLI$K_STTT_REMO= 00000010
CLI$C_WORKAREA   00000080            CLI$K_STLP_LA11= 00000005            CLI$K_STTT_SCOP= 00000011
CLI$K_ASCIIVAL = 00000041            CLI$K_STLP_LA18= 00000006            CLI$K_STTT_SCRI= 00000012
CLI$K_CLISERV  = 00000005            CLI$K_STLP_LOWE= 00000004            CLI$K_STTT_SPEE= 00000013
CLI$K_ENDPRM1  = 00000030            CLI$K_STLP_LP11= 00000007            CLI$K_STTT_TAB = 00000014
CLI$K_ENDPRM2  = 00000031            CLI$K_STLP_PAGE= 00000008            CLI$K_STTT_TTSY= 00000015
CLI$K_ENDPRM3  = 00000032            CLI$K_STLP_UNKN= 00000009            CLI$K_STTT_TYPE= 00000016
CLI$K_ENDPRM4  = 00000033            CLI$K_STLP_UPPE= 00000003            CLI$K_STTT_UNKN= 00000017
CLI$K_FILSPEC  = 00000044            CLI$K_STLP_WIDT= 0000000A            CLI$K_STTT_UPPE= 00000018
CLI$K_GETCMD   = 00000001            CLI$K_STMT_DENS= 00000001            CLI$K_STTT_VT05= 00000019
CLI$K_GETOPT   = 00000003            CLI$K_STMT_REWI= 00000002            CLI$K_STTT_VT52= 0000001A
CLI$K_GETQUAL  = 00000002            CLI$K_STMT_UNLO= 00000003            CLI$K_STTT_VT55= 0000001B
CLI$K_INITPRS  = 00000000            CLI$K_STPC_IDEN= 00000001            CLI$K_STTT_WIDT= 0000001C
CLI$K_INPSPEC  = 00000001            CLI$K_STPC_PRIO= 00000002            CLI$K_STTT_WRAP= 0000001D
CLI$K_INPUT1   = 00000010            CLI$K_STPC_RESO= 00000003            CLI$K_STWR_LIMI= 00000001
CLI$K_INPUT2   = 00000011            CLI$K_STPC_SWAP= 00000004            CLI$K_STWR_QUOT= 00000002
CLI$K_INPUT3   = 00000012            CLI$K_STPR_DEFA= 00000001            CLI$K_UTILOPR  = 00000000
CLI$K_INPUT4   = 00000013            CLI$K_STPR_DEVI= 00000003            CLI$K_VALCONV  = 00000004
CLI$K_KEYVAL   = 00000043            CLI$K_STPR_OWNE= 00000004            CLI$K_WORKAREA   00000080
CLI$K_KEYWORD  = 00000042            CLI$K_STPR_PROT= 00000002            CLI$L_CLIFLAG    00000018
CLI$K_NUMERVAL = 00000040            CLI$K_STQE_AFTE= 00000001            CLI$L_INIARGCNT  00000000
CLI$K_OUTPUT1  = 00000020            CLI$K_STQE_ENTR= 00000003            CLI$L_LINKFLAG   00000014
CLI$K_OUTPUT2  = 00000021            CLI$K_STQE_FORM= 00000004            CLI$L_RQVALU     0000000C
SETPROCES       - SET PROCESS PARAMETERS                         21-AUG-1978 19:11:42   VAX-11 MACRO X0.3-11               Page   8
SYMBOL TABLE                                                                                                                     (1)

CLI$L_USRVAL     00000014            CLI$W_QDVALSIZ   00000004            CLI$_ONLEVL    = 00038100
CLI$L_WORKAREA   00000000            CLI$W_RQSIZE     00000008            CLI$_ONOVF     = 00038108
CLI$M_ABSADR   = 00000002            CLI$W_SERVCOD    00000001            CLI$_OVRFLW    = 00038160
CLI$M_ALLOCCUR = 00000001            CLI$_ABFNAM    = 000381B8            CLI$_PARMDEL   = 00038110
CLI$M_BATCH    = 00000008            CLI$_ABKEYW    = 00038000            CLI$_PROC_ID   = 0003FFF1
CLI$M_CONCATINP= 00000002            CLI$_ABVERB    = 00038008            CLI$_QUEJOBCRE = 0003FFF9
CLI$M_DBGEXCP  = 00010000            CLI$_BADRET    = 00038198            CLI$_REQPRMABS = 00038812
CLI$M_DBGTRU   = 00000002            CLI$_BADTEXT   = 000381B0            CLI$_RSLOVF    = 00038118
CLI$M_DEBUG    = 00000001            CLI$_BUFOVF    = 00038018            CLI$_SKPDAT    = 00038120
CLI$M_DUMMY    = 00000002            CLI$_COMPLX    = 00038020            CLI$_SPARE0    = 00038010
CLI$M_EXPNAM   = 00000004            CLI$_CONFQUAL  = 00038802            CLI$_SPARE1    = 00038058
CLI$M_INDIRECT = 00000010            CLI$_CREQUEJOB = 0003884A            CLI$_STKOVF    = 00038128
CLI$M_KEYVALU  = 00000002            CLI$_DEFOVF    = 00038028            CLI$_SUBMITERR = 00038852
CLI$M_LASTVAL  = 00000001            CLI$_DEVALSPL  = 0003885A            CLI$_SYMDEL    = 00038130
CLI$M_MOREINP  = 00000004            CLI$_DEVNOTFOR = 0003887A            CLI$_SYMOVF    = 00038138
CLI$M_MOREVALS = 00000001            CLI$_DEVNOTSPL = 00038862            CLI$_UNDFIL    = 00038188
CLI$M_PARMDEF  = 00000008            CLI$_DIRECT    = 00038030            CLI$_UNDSYM    = 00038140
CLI$M_PARMPRS  = 00000001            CLI$_EXPSYN    = 00038038            CLI$_UNPROPARM = 00038170
CLI$M_PARMREQ  = 00000001            CLI$_FILOPN    = 00038190            CLI$_UNPROQUAL = 00038168
CLI$M_QDEXPA   = 00000004            CLI$_ILLVAL    = 0003883A            CLI$_USGOTO    = 00038148
CLI$M_QDUSRV   = 00000002            CLI$_IMCHNG    = 00038040            CLI$_VALCNVERR = 00038832
CLI$M_QUALEXP  = 00000002            CLI$_IMGFNF    = 00038872            CLI$_VALREQ    = 00038150
CLI$M_QUALTRU  = 00000001            CLI$_INSFPRM   = 00038048            GBL...         = 00000000
CLI$M_TRMVRBLV = 00000300            CLI$_INVKEY    = 00038178            ID               00000018 R     03
CLI$M_VERIFY   = 00000004            CLI$_INVQUAL   = 0003880A            IDEN_Q           00000070 R     03
CLI$M_VFYINP   = 00000020            CLI$_INVQUALNUM= 0003881A            LIB$CVT_HEXBIN   ********   X   04
CLI$Q_QDVALDESC  00000004            CLI$_INVREQTYP = 00038822            NORES_WAIT       000000CE R     04
CLI$Q_RQDESC     00000008            CLI$_INVRSP    = 00038180            NOSWAP           00000091 R     04
CLI$S_PRITYP   = 00000004            CLI$_INVUIC    = 000381A8            NUM_VAL          0000001C R     03
CLI$S_SUBTYP   = 00000004            CLI$_IVCHAR    = 00038050            PRIORITY         00000032 R     04
CLI$S_TRMVRBLV = 00000002            CLI$_IVDEVTYPE = 0003886A            PRIO_Q           00000088 R     03
CLI$V_ABSADR   = 00000001            CLI$_IVFNAM    = 000381C0            PROC_NAME        00000038 R     03
CLI$V_ALLOCCUR = 00000000            CLI$_IVKEYW    = 00038060            PRO_B_FLAGS      00000001
CLI$V_BATCH    = 00000003            CLI$_IVOPER    = 00038068            PRO_B_PROMPT     00000000
CLI$V_CONCATINP= 00000001            CLI$_IVPROT    = 00038070            PRO_K_LENGTH     00000002
CLI$V_DBGEXCP  = 00000010            CLI$_IVQLOC    = 00038078            PRO_M_CONCAT   = 00000001
CLI$V_DBGTRU   = 00000001            CLI$_IVSYMB    = 00038080            PRO_M_IMPCAT   = 00000002
CLI$V_DEBUG    = 00000000            CLI$_IVVALU    = 00038088            PRO_M_LIST     = 00000004
CLI$V_DUMMY    = 00000001            CLI$_IVVERB    = 00038090            PRO_M_OPTION   = 00000008
CLI$V_EXPNAM   = 00000002            CLI$_MAXPARM   = 00038098            PRO_M_REQ      = 00000010
CLI$V_INDIRECT = 00000004            CLI$_MULKEY    = 000381A0            PRO_M_STRING   = 00000020
CLI$V_KEYVALU  = 00000001            CLI$_NOATFIL   = 000380A0            PRO_V_CONCAT   = 00000000
CLI$V_LASTVAL  = 00000000            CLI$_NOCCAT    = 000380A8            PRO_V_IMPCAT   = 00000001
CLI$V_MOREINP  = 00000002            CLI$_NOCOMD    = 000380B0            PRO_V_LIST     = 00000002
CLI$V_MOREVALS = 00000000            CLI$_NOKEYW    = 000380B8            PRO_V_OPTION   = 00000003
CLI$V_PARMDEF  = 00000003            CLI$_NOLIST    = 000380C0            PRO_V_REQ      = 00000004
CLI$V_PARMPRS  = 00000000            CLI$_NOOPTPRS  = 00038842            PRO_V_STRING   = 00000005
CLI$V_PARMREQ  = 00000000            CLI$_NOQUAL    = 000380C8            QUALS            00000070 R     03
CLI$V_PRITYP   = 00000004            CLI$_NORMAL    = 00030001            QUAL_REQ         00000054 R     03
CLI$V_QDEXPA   = 00000002            CLI$_NOTNEG    = 000380D8            QUA_B_DEFVAL     00000002
CLI$V_QDUSRV   = 00000001            CLI$_NOVALU    = 000380D0            QUA_B_IMAGE      00000005
CLI$V_QUALEXP  = 00000001            CLI$_NOVALUE   = 0003882A            QUA_B_INDEX      00000001
CLI$V_QUALTRU  = 00000000            CLI$_NULFIL    = 000380E0            QUA_B_OFFSET     00000000
CLI$V_SUBTYP   = 00000000            CLI$_NUMBER    = 000380E8            QUA_B_PARMCNT    00000008
CLI$V_TRMVRBLV = 00000008            CLI$_ONCOMD    = 000380F0            QUA_G_CHNGLST    00000006
CLI$V_VERIFY   = 00000002            CLI$_ONERR     = 000380F8            QUA_M_BATDEF   = 00000100
CLI$V_VFYINP   = 00000005            CLI$_ONEVAL    = 00038158            QUA_M_CHNGLIST = 00000001
SETPROCES       - SET PROCESS PARAMETERS                         21-AUG-1978 19:11:42   VAX-11 MACRO X0.3-11               Page   9
SYMBOL TABLE                                                                                                                     (1)

QUA_M_DEFTRUE  = 00000080
QUA_M_FILE     = 00000004
QUA_M_IMAGE    = 00000400
QUA_M_INTDEF   = 00000200
QUA_M_KEYVAL   = 00004000
QUA_M_LOCALKEY = 00000002
QUA_M_NEG      = 00000040
QUA_M_ONEVAL   = 00002000
QUA_M_OUTPUT   = 00000800
QUA_M_PARM     = 00000010
QUA_M_VAL      = 00000020
QUA_M_VALREQ   = 00001000
QUA_M_VERB     = 00000008
QUA_S_MAXPARM  = 00000004
QUA_S_MINPARM  = 00000004
QUA_V_BATDEF   = 00000008
QUA_V_CHNGLIST = 00000000
QUA_V_DEFTRUE  = 00000007
QUA_V_FILE     = 00000002
QUA_V_IMAGE    = 0000000A
QUA_V_INTDEF   = 00000009
QUA_V_KEYVAL   = 0000000E
QUA_V_LOCALKEY = 00000001
QUA_V_MAXPARM  = 00000004
QUA_V_MINPARM  = 00000000
QUA_V_NEG      = 00000006
QUA_V_ONEVAL   = 0000000D
QUA_V_OUTPUT   = 0000000B
QUA_V_PARM     = 00000004
QUA_V_VAL      = 00000005
QUA_V_VALREQ   = 0000000C
QUA_V_VERB     = 00000003
QUA_W_FLAGS      00000003
QUA_W_PROMPT     00000009
QUA_W_QUALIST    00000006
Q_V_IDEN       = 00000000
RES_WAIT         000000C8 R     04
SET$A_CLIWORK    ********   X   04
SET$L_STATUS     ********   X   04
SET$PROCESS      00000000 RG    04
SETPRI           00000000 R     03
SETPRI$_NARGS  = 00000004
SETPRI$_PIDADR = 00000004
SETPRI$_PRCNAM = 00000008
SETPRI$_PRI    = 0000000C
SETPRI$_PRVPRI = 00000010
SS$_NORMAL       ********   X   04
SWAP             0000008B R     04
SYS$SETPRI       ********   X   04
SYS$SETRWM       ********   X   04
SYS$SETSWM       ********   X   04


PROGRAM SECTION SYNOPSIS

.  ABS  .        00000000      00     NOPIC   USR   CON   ABS   LCL NOSHR NOEXE NORD  NOWRT BYTE
. BLANK .        00000000      01     NOPIC   USR   CON   REL   LCL NOSHR   EXE   RD    WRT BYTE
SETPROCES       - SET PROCESS PARAMETERS                         21-AUG-1978 19:11:42   VAX-11 MACRO X0.3-11               Page  10
PROGRAM SECTION SYNOPSIS                                                                                                         (1)

$ABS$            00000080      02     NOPIC   USR   CON   ABS   LCL NOSHR   EXE   RD    WRT BYTE
SET$RWDATA       000000CE      03     NOPIC   USR   CON   REL   LCL NOSHR NOEXE   RD    WRT LONG
SET$CODE         000000DF      04     NOPIC   USR   CON   REL   LCL NOSHR   EXE   RD  NOWRT BYTE


THERE WERE NO ERRORS OR WARNINGS.
8534. BYTES LEFT IN FREE MEMORY POOL.
4332. BYTES OF RECLAIMED MEMORY.
OBJ$:SETPROCES,LIS$:SETPROCES/-SP=EXECML$/ML,LIB$:CLIUTL/ML,SRC$:SETPROCES
56 MLB DIR RDS - 743 GETS TO DEFINE 31 MACROS. 53 INTER. FILE WRITES.
