SETRMS          - SET RMS DEFAULT VALUES FOR PROCESS OR SYSTEM   21-AUG-1978 19:15:03   VAX-11 MACRO X0.3-11               Page   0
TABLE OF CONTENTS

   (2)      44  DECLARATIONS
   (3)     138  SET RMS_DEFAULTS
SETRMS          - SET RMS DEFAULT VALUES FOR PROCESS OR SYSTEM   21-AUG-1978 19:15:03   VAX-11 MACRO X0.3-11               Page   1
HJ                                                                                                                               (1)

                                     0000     1 	.TITLE	SETRMS - SET RMS DEFAULT VALUES FOR PROCESS OR SYSTEM
                                     0000     2 	.IDENT	/HJ/
                                     0000     3
                                     0000     4 ;
                                     0000     5 ; COPYRIGHT (C) 1977
                                     0000     6 ; DIGITAL EQUIPMENT CORPORATION, MAYNARD, MASSACHUSETTS 01754
                                     0000     7 ;
                                     0000     8 ; THIS SOFTWARE IS FURNISHED  UNDER A LICENSE FOR USE ONLY ON A SINGLE
                                     0000     9 ; COMPUTER  SYSTEM AND  MAY BE  COPIED ONLY WITH  THE INCLUSION OF THE
                                     0000    10 ; ABOVE COPYRIGHT NOTICE.  THIS SOFTWARE, OR ANY OTHER COPIES THEREOF,
                                     0000    11 ; MAY NOT BE PROVIDED OR  OTHERWISE MADE AVAILABLE TO ANY OTHER PERSON
                                     0000    12 ; EXCEPT FOR USE ON SUCH SYSTEM AND TO ONE WHO AGREES TO THESE LICENSE
                                     0000    13 ; TERMS.  TITLE TO AND  OWNERSHIP OF THE  SOFTWARE  SHALL AT ALL TIMES
                                     0000    14 ; REMAIN IN DEC.
                                     0000    15 ;
                                     0000    16 ; THE INFORMATION IN THIS SOFTWARE IS SUBJECT TO CHANGE WITHOUT NOTICE
                                     0000    17 ; AND SHOULD  NOT BE CONSTRUED  AS A COMMITMENT  BY DIGITAL  EQUIPMENT
                                     0000    18 ; CORPORATION.
                                     0000    19 ;
                                     0000    20 ; DEC ASSUMES  NO  RESPONSIBILITY  FOR  THE USE OR  RELIABILITY OF ITS
                                     0000    21 ; SOFTWARE ON EQUIPMENT WHICH IS NOT SUPPLIED BY DEC.
                                     0000    22 ;
                                     0000    23
                                     0000    24 ;++
                                     0000    25 ; FACILITY:	SET PRIVILEGED IMAGE
                                     0000    26 ;
                                     0000    27 ; ABSTRACT:
                                     0000    28 ;
                                     0000    29 ;	THIS IMAGE IMPLEMENTS THE SET RMS_DEFAULTS COMMAND
                                     0000    30 ;
                                     0000    31 ; ENVIRONMENT:
                                     0000    32 ;
                                     0000    33 ;	THIS IMAGE RUNS IN USER MODE BUT REQUIRES THE PRIVILEGE TO
                                     0000    34 ;	CHANGE MODE TO KERNEL IN ORDER TO ALTER THE SYSTEM DEFAULTS
                                     0000    35 ;
                                     0000    36 ; AUTHOR: HJ, CREATION DATE: APRIL-18-1978
                                     0000    37 ;
                                     0000    38 ; MODIFIED BY:
                                     0000    39 ;
                                     0000    40 ;	, : VERSION
                                     0000    41 ; 01	-
                                     0000    42 ;--
SETRMS          - SET RMS DEFAULT VALUES FOR PROCESS OR SYSTEM   21-AUG-1978 19:15:03   VAX-11 MACRO X0.3-11               Page   2
HJ              DECLARATIONS                                                                                                     (2)

                                     0000    44 	.SBTTL	DECLARATIONS
                                     0000    45 ;
                                     0000    46 ; INCLUDE FILES:
                                     0000    47 ;
                                     0000    48 	$CLIDEF				;CLI DEFINITIONS
                                     0000    49 	$CLIDEFQUALSET			;DEFINE THE CLI QUALIFIERS
                                     0000    50 	$PRVDEF				;PRIVILEGE BIT DEFINITIONS
                                     0000    51 	$SHRDEF				;SHARED MESSAGE DEINITIONS
                                     0000    52
                                     0000    53 ;
                                     0000    54 ; MACROS:
                                     0000    55 ;
                                     0000    56 ;
                                     0000    57 ; EQUATED SYMBOLS:
                                     0000    58 ;
                           00000002  0000    59 	STRM$V_HASH	=2		;DEFINE BIT POSITIONS FOR CLI
                           00000003  0000    60 	STRM$V_INDEX	=3		;TO INDICATE IF OPTION USED
                           00000004  0000    61 	STRM$V_REL	=4
                           00000005  0000    62 	STRM$V_SEQ	=5
                           00000006  0000    63 	STRM$V_DISK	=6
                           00000007  0000    64 	STRM$V_MAGTAPE	=7
                           00000008  0000    65 	STRM$V_UNIT	=8
                           00000009  0000    66 	STRM$V_SYSTEM	=9
                           0000000A  0000    67 	STRM$V_BLKVAL	=10
                                     0000    68 ;
                                     0000    69 ; OWN STORAGE:
                                     0000    70 ;
                                 00000000    71 	.PSECT	SET$RWDATA	LONG,RD,WRT,NOEXE
                                     0000    72
                                     0000    73 ;
                                     0000    74 ; DEFINE THE CALL BACK DATA STRUCTURES
                                     0000    75 ;
                                     0000    76 NUMVAL:
                                     0000    77 	$CLIREQDESC	-		;
                                     0000    78 		RQTYPE=CLI$K_NUMERVAL	;CONVERT A NUMBER
                                     001C    79
                                     001C    80 INP_ARGLIST:
                                     001C    81 	$ARGLST	3,-			;ARGLIST FOR OPTION PROCESSING CALLS
                                     001C    82 		INP_DESC,-		;POINTER TO REQUEST DESCRIPTOR
                                     001C    83 		SET$A_CLIWORK,-		;POINTER TO COMMON WORK AREA
                                     001C    84 		BITMAP			;ADDRESS OF CLI BIT MAP
                                     002C    85
                                     002C    86 INP_DESC:
                                     002C    87 	$CLIREQDESC	-
                                     002C    88 		RQTYPE=CLI$K_GETQUAL,-	;GET QUALIFIERS
                                     002C    89 		QUALST=INP_QUAL		;QUALIFIER LIST
                                     0048    90 INP_QUAL:
                                     0048    91 	$CLIQUALDEF	-
                                     0048    92 		QDCODE=CLI$K_STRM_BLOC,-;/BLOCKS=N
                                     0048    93 		TRUACT=BLOCKS,-
                                     0048    94 		SETLST=STRM$V_BLKVAL
                                     0060    95
                                     0060    96 	$CLIQUALDEF	-
                                     0060    97 		QDCODE=CLI$K_STRM_BUFF,-;/BUFFERS=N
                                     0060    98 		TRUACT=BUFFERS
                                     0077    99
                                     0077   100 	$CLIQUALDEF	-
SETRMS          - SET RMS DEFAULT VALUES FOR PROCESS OR SYSTEM   21-AUG-1978 19:15:03   VAX-11 MACRO X0.3-11               Page   3
HJ              DECLARATIONS                                                                                                     (2)

                                     0077   101 		QDCODE=CLI$K_STRM_HASH,-;/HASHED
                                     0077   102 		SETLST=STRM$V_HASH
                                     008F   103
                                     008F   104 	$CLIQUALDEF	-
                                     008F   105 		QDCODE=CLI$K_STRM_INDE,-;/INDEXED
                                     008F   106 		SETLST=STRM$V_INDEX
                                     00A7   107
                                     00A7   108 	$CLIQUALDEF	-
                                     00A7   109 		QDCODE=CLI$K_STRM_RELA,-;/RELATIVE
                                     00A7   110 		SETLST=STRM$V_REL
                                     00BF   111
                                     00BF   112 	$CLIQUALDEF	-
                                     00BF   113 		QDCODE=CLI$K_STRM_SEQU,-;/SEQUENTIAL
                                     00BF   114 		SETLST=STRM$V_SEQ
                                     00D7   115
                                     00D7   116 	$CLIQUALDEF	-
                                     00D7   117 		QDCODE=CLI$K_STRM_DISK,-;/DISK
                                     00D7   118 		SETLST=STRM$V_DISK
                                     00EF   119
                                     00EF   120 	$CLIQUALDEF	-
                                     00EF   121 		QDCODE=CLI$K_STRM_MAGT,-;/MAGTAPE
                                     00EF   122 		SETLST=STRM$V_MAGTAPE
                                     0107   123
                                     0107   124 	$CLIQUALDEF	-
                                     0107   125 		QDCODE=CLI$K_STRM_UNIT,-;/UNIT_RECORD
                                     0107   126 		SETLST=STRM$V_UNIT
                                     011F   127
                                     011F   128 	$CLIQUALDEF	-
                                     011F   129 		QDCODE=CLI$K_STRM_SYST,-;/SYSTEM
                                     011F   130 		SETLST=STRM$V_SYSTEM
                                     0137   131
                                     0137   132 	$CLIQUALDEF	END_LIST	;END OF QUALIFIER LIST
                                     0138   133
                               0000  0138   134 BITMAP:	.WORD	0			; BIT LIST
                                 00  013A   135 BLKVAL:	.BYTE	0			;USED TO HOLD /BLOCK= VALUE
                                 00  013B   136 BUFVAL:	.BYTE	0			;USED TO HOLD /BUFFER= VALUE
SETRMS          - SET RMS DEFAULT VALUES FOR PROCESS OR SYSTEM   21-AUG-1978 19:15:03   VAX-11 MACRO X0.3-11               Page   4
HJ              SET RMS_DEFAULTS                                                                                                 (3)

                                     013C   138 	.SBTTL	SET RMS_DEFAULTS
                                     013C   139 ;++
                                     013C   140 ; FUNCTIONAL DESCRIPTION:
                                     013C   141 ;
                                     013C   142 ; CALLING SEQUENCE:
                                     013C   143 ;
                                     013C   144 ;	VIA SET RMS COMMAND
                                     013C   145 ;
                                     013C   146 ; INPUT PARAMETERS:
                                     013C   147 ;
                                     013C   148 ;	CLI$A_UTILSERV(AP) = CALL BACK ADDRESS FOR RESULT PARSER
                                     013C   149 ;
                                     013C   150 ; IMPLICIT INPUTS:
                                     013C   151 ;
                                     013C   152 ;	NONE
                                     013C   153 ;
                                     013C   154 ; OUTPUT PARAMETERS:
                                     013C   155 ;
                                     013C   156 ;	CHANGES TO THE DEFAULT VALUES IN THE PROCESS IO REGION
                                     013C   157 ;	OR IN THE SYSTEM AREA IF /SYSTEM
                                     013C   158 ;
                                     013C   159 ; IMPLICIT OUTPUTS:
                                     013C   160 ;
                                     013C   161 ;	NONE
                                     013C   162 ;
                                     013C   163 ; COMPLETION CODES:
                                     013C   164 ;
                                     013C   165 ;	SS$_NOPRIV  (IF USER DOESN'T HAVE CHMK PRIV AND USES /SYSTEM)
                                     013C   166 ;
                                     013C   167 ; SIDE EFFECTS:
                                     013C   168 ;
                                     013C   169 ;	NONE
                                     013C   170 ;
                                     013C   171 ;--
                                     013C   172
                                 00000000   173 	.PSECT	SET$CODE BYTE,RD,NOWRT,EXE
                               0804' 0000   174 	.ENTRY	SET$RMS,^M<R2,R11>
                                     0002   175
                                     0002   176 	.ENABL	LSB
                                     0002   177
                                 FA  0002   178 	CALLG	W^INP_ARGLIST,-		;CALL BACK TO PROCESS QUALIFIERS
         08 BC       001C'CF         0003   179 		@CLI$A_UTILSERV(AP)
            52       0138'CF     B0  0008   180 	MOVW	W^BITMAP,R2		;GET THE BITMAP, WE REFERENCE IT ALOT
            52            09     E0  000D   181 	BBS	#STRM$V_SYSTEM,R2,90$	;BRANCH IF CHANGE SYSTEM DEFAULTS
                          6F         0010
                                     0011   182 	$CMKRNL_S B^SETPIO		;SET THE APPROPRIATE FIELDS
                                     001D   183 10$:	$EXIT_S	R0			;EXIT
                                     0026   184
                               0000  0026   185 SETPIO:	.WORD	0			;NO REG SAVE
            52            0A     E1  0028   186 	BBC	#STRM$V_BLKVAL,R2,20$	;BRANCH IF NO /BLOCK= VALUE GIVEN
                          09         002B
   00000000'EF       013A'CF     90  002C   187 	MOVB	W^BLKVAL,PIO$GB_DFMBC	;SET THE NEW MULTI BLOCK COUNT VALUE
            50       013B'CF     90  0035   188 20$:	MOVB	W^BUFVAL,R0		;GET THE NEW MULTI BUFFER COUNT VALUE
            52            06     E1  003A   189 	BBC	#STRM$V_DISK,R2,30$	;BRANCH IF DON'T CHANGE SEQ DISK
                          07         003D
   00000000'EF            50     90  003E   190 	MOVB	R0,PIO$GB_DFMBFSDK	;SET NEW VALUE
            52            07     E1  0045   191 30$:	BBC	#STRM$V_MAGTAPE,R2,40$	;BRANCH IF DON'T CHANGE SEQ MAGTAPE
SETRMS          - SET RMS DEFAULT VALUES FOR PROCESS OR SYSTEM   21-AUG-1978 19:15:03   VAX-11 MACRO X0.3-11               Page   5
HJ              SET RMS_DEFAULTS                                                                                                 (3)

                          07         0048
   00000000'EF            50     90  0049   192 	MOVB	R0,PIO$GB_DFMBFSMT	;SET NEW VALUE
            52            08     E1  0050   193 40$:	BBC	#STRM$V_UNIT,R2,50$	;BRANCH IF DON'T CHANGE SEQ UNITRECORD
                          07         0053
   00000000'EF            50     90  0054   194 	MOVB	R0,PIO$GB_DFMBFSUR	;SET NEW VALUE
            52            02     E1  005B   195 50$:	BBC	#STRM$V_HASH,R2,60$	;BRANCH IF DON'T CHANGE HASHED
                          07         005E
   00000000'EF            50     90  005F   196 	MOVB	R0,PIO$GB_DFMBFHSH	;SET NEW VALUE
            52            03     E1  0066   197 60$:	BBC	#STRM$V_INDEX,R2,70$	;BRANCH IF DON'T CHANGE INDEXED
                          07         0069
   00000000'EF            50     90  006A   198 	MOVB	R0,PIO$GB_DFMBFIDX	;SET NEW VALUE
            52            04     E1  0071   199 70$:	BBC	#STRM$V_REL,R2,80$	;BRANCH IF DON'T CHANGE RELATIVE
                          07         0074
   00000000'EF            50     90  0075   200 	MOVB	R0,PIO$GB_DFMBFREL	;SET NEW VALUE
            50            00'    3C  007C   201 80$:	MOVZWL	S^#SS$_NORMAL,R0	;SET SUCCESS
                                 04  007F   202 	RET				;RETURN
                                     0080   203
            50            00'    3C  0080   204 90$:	MOVZWL	S^#SS$_NOPRIV,R0	;ASSUME PRIVLEDGE VIOLATION
                                 E1  0083   205 	BBC	#PRV$V_CMKRNL,-		;BRANCH IF PROCESS DOESN'T
   00000000'EF            00         0084   206 		CTL$GQ_PROCPRIV,10$	;HAVE CMKRNL PRIVLEDGE
                          92         008A
                                     008B   207 	$CMKRNL_S B^SETSYS		;SET APPROPRIATE FIELS IN SYSTEM
                          84     11  0097   208 	BRB	10$			;EXIT
                                     0099   209
                               0000  0099   210 SETSYS:	.WORD	0			;NO REG SAVE
            52            0A     E1  009B   211 	BBC	#STRM$V_BLKVAL,R2,100$	;BRANCH IF NO /BLOCK= VALUE GIVEN
                          09         009E
   00000000'EF       013A'CF     90  009F   212 	MOVB	W^BLKVAL,SYS$GB_DFMBC	;SET THE NEW MULTI BLOCK COUNT VALUE
            50       013B'CF     90  00A8   213 100$:	MOVB	W^BUFVAL,R0		;GET THE NEW MULTI BUFFER COUNT VALUE
            52            06     E1  00AD   214 	BBC	#STRM$V_DISK,R2,110$	;BRANCH IF DON'T CHANGE SEQ DISK
                          07         00B0
   00000000'EF            50     90  00B1   215 	MOVB	R0,SYS$GB_DFMBFSDK	;SET NEW VALUE
            52            07     E1  00B8   216 110$:	BBC	#STRM$V_MAGTAPE,R2,120$	;BRANCH IF DON'T CHANGE SEQ MAGTAPE
                          07         00BB
   00000000'EF            50     90  00BC   217 	MOVB	R0,SYS$GB_DFMBFSMT	;SET NEW VALUE
            52            08     E1  00C3   218 120$:	BBC	#STRM$V_UNIT,R2,130$	;BRANCH IF DON'T CHANGE SEQ UNITRECORD
                          07         00C6
   00000000'EF            50     90  00C7   219 	MOVB	R0,SYS$GB_DFMBFSUR	;SET NEW VALUE
            52            02     E1  00CE   220 130$:	BBC	#STRM$V_HASH,R2,140$	;BRANCH IF DON'T CHANGE HASHED
                          07         00D1
   00000000'EF            50     90  00D2   221 	MOVB	R0,SYS$GB_DFMBFHSH	;SET NEW VALUE
            52            03     E1  00D9   222 140$:	BBC	#STRM$V_INDEX,R2,150$	;BRANCH IF DON'T CHANGE INDEXED
                          07         00DC
   00000000'EF            50     90  00DD   223 	MOVB	R0,SYS$GB_DFMBFIDX	;SET NEW VALUE
            52            04     E1  00E4   224 150$:	BBC	#STRM$V_REL,R2,160$	;BRANCH IF DON'T CHANGE RELATIVE
                          07         00E7
   00000000'EF            50     90  00E8   225 	MOVB	R0,SYS$GB_DFMBFREL	;SET NEW VALUE
            50            00'    3C  00EF   226 160$:	MOVZWL	S^#SS$_NORMAL,R0	;SET SUCCESS
                                 04  00F2   227 	RET				;RETURN
                                     00F3   228
                                     00F3   229
                               0004  00F3   230 BLOCKS:	.WORD	^M<R2>			;ENTRY MASK
                          2F     10  00F5   231 	BSBB	CNVRTVAL		;GET THE VALUE
                          52     D5  00F7   232 	TSTL	R2			;VALUE IS IN R2
                          44     19  00F9   233 	BLSS	170$			;BRANCH IF NEGATIVE
            52   0000007F 8F     D1  00FB   234 	CMPL	#127,R2			;CHECK AGAINST MAXIMUM
                          3B     19  0102   235 	BLSS	170$			;BRANCH IF TOO BIG
SETRMS          - SET RMS DEFAULT VALUES FOR PROCESS OR SYSTEM   21-AUG-1978 19:15:03   VAX-11 MACRO X0.3-11               Page   6
HJ              SET RMS_DEFAULTS                                                                                                 (3)

       013A'CF            52     90  0104   236 	MOVB	R2,W^BLKVAL		;SAVE FOR LATER
                                 04  0109   237 	RET				;CONTINUE
                                     010A   238
                               0004  010A   239 BUFFERS:.WORD	^M<R2>			;ENTRY MASK
                          18     10  010C   240 	BSBB	CNVRTVAL		;GET THE VALUE
   FFFFFF81 8F            52     D1  010E   241 	CMPL	R2,#-127		;CHECK AGAINST MINIMUM
                          28     19  0115   242 	BLSS	170$			;BRANCH IF TOO SMALL
            52   0000007F 8F     D1  0117   243 	CMPL	#127,R2			;CHECK AGAINST MAXIMUM
                          1F     19  011E   244 	BLSS	170$			;BRANCH IF TOO BIG
       013B'CF            52     90  0120   245 	MOVB	R2,W^BUFVAL		;SAVE FOR LATER
                                 04  0125   246 	RET				;CONTINUE
                                     0126   247
                                     0126   248 CNVRTVAL:
            7E         04 AC     D0  0126   249 	MOVL	4(AP),-(SP)		;STORE ADDRESS OF QUALIFIER DESC BLOCK
                     0000'CF     9F  012A   250 	PUSHAB	W^SET$A_CLIWORK		;STORE ADDRESS OF WORK AREA
                     0000'CF     9F  012E   251 	PUSHAB	W^NUMVAL		;STORE ADDRESS OF VALUE REQ DESC
         08 BC            03     FB  0132   252 	CALLS	#3,@CLI$A_UTILSERV(AP)	;CONVERT NUMERIC VALUE
            06            50     E9  0136   253 	BLBC	R0,170$			;BRANCH IF NOT NUMERIC
            52       000C'CF     D0  0139   254 	MOVL	W^CLI$L_RQVALU+NUMVAL,R2 ;GET VALUE OF PARAMETER
                                 05  013E   255 	RSB				;RETURN WITH VALUE IN R2
                                     013F   256
            50       11E8 8F     3C  013F   257 170$:	MOVZWL	#SHR$_VALERR,R0		;SET ERROR RETURN
                          FED6   31  0144   258 	BRW	10$			;AND EXIT
                                     0147   259
                                     0147   260 	.DSABL	LSB
                                     0147   261
                                     0147   262 	.END
SETRMS          - SET RMS DEFAULT VALUES FOR PROCESS OR SYSTEM   21-AUG-1978 19:15:03   VAX-11 MACRO X0.3-11               Page   7
SYMBOL TABLE                                                                                                                     (3)

$$$            = 00000004            CLI$K_OUTPUT2  = 00000021            CLI$K_STQE_FORM= 00000004
$$$GBL         = 00000000            CLI$K_OUTPUT3  = 00000022            CLI$K_STQE_HOLD= 00000005
$$T1           = 00000003            CLI$K_OUTPUT4  = 00000023            CLI$K_STQE_JOB_= 00000002
$CLI.          = 0000011F R     03   CLI$K_OUTSPEC  = 00000002            CLI$K_STQE_LOWE= 00000006
$CLI..         = 00000137 R     03   CLI$K_PARDONE  = 00000003            CLI$K_STQE_NAME= 00000007
$QUALNUM$      = 0000000B            CLI$K_QDBITS     00000014            CLI$K_STQE_PRIO= 00000008
BIT...         = 00001258            CLI$K_QUALDEF    00000014            CLI$K_STQE_RELE= 00000009
BITMAP           00000138 R     03   CLI$K_REQDESC    0000001C            CLI$K_STRM_BLOC= 00000001
BLKVAL           0000013A R     03   CLI$K_SET_ACCO = 00000001            CLI$K_STRM_BUFF= 00000002
BLOCKS           000000F3 R     04   CLI$K_SET_CARD = 00000002            CLI$K_STRM_DISK= 00000003
BUFFERS          0000010A R     04   CLI$K_SET_CONT = 00000012            CLI$K_STRM_HASH= 00000006
BUFVAL           0000013B R     03   CLI$K_SET_DEFA = 00000004            CLI$K_STRM_INDE= 00000007
CLI$A_ABSACT     00000014            CLI$K_SET_DEVI = 00000003            CLI$K_STRM_MAGT= 00000004
CLI$A_ERRACT     00000004            CLI$K_SET_LOGI = 00000005            CLI$K_STRM_RELA= 00000008
CLI$A_FLSACT     00000010            CLI$K_SET_MAGT = 00000006            CLI$K_STRM_SEQU= 00000009
CLI$A_IMGFILED   00000010            CLI$K_SET_ON   = 00000007            CLI$K_STRM_SYST= 0000000A
CLI$A_IMGHDADR   0000000C            CLI$K_SET_PASS = 00000008            CLI$K_STRM_UNIT= 00000005
CLI$A_PROGXFER   00000004            CLI$K_SET_PRIN = 00000009            CLI$K_STTT_BROA= 00000001
CLI$A_PRSACT     00000010            CLI$K_SET_PROC = 0000000A            CLI$K_STTT_CRFI= 00000002
CLI$A_QDVALADR   00000008            CLI$K_SET_PROT = 0000000B            CLI$K_STTT_ECHO= 00000003
CLI$A_QUALST     00000018            CLI$K_SET_QUEU = 0000000C            CLI$K_STTT_EIGH= 00000004
CLI$A_RQADDR     0000000C            CLI$K_SET_RMS_ = 00000011            CLI$K_STTT_ESCA= 00000005
CLI$A_TRUACT     0000000C            CLI$K_SET_TERM = 0000000D            CLI$K_STTT_HARD= 00000006
CLI$A_UTILSERV   00000008            CLI$K_SET_UIC  = 0000000E            CLI$K_STTT_HOLD= 00000007
CLI$B_BITNUM     00000001            CLI$K_SET_VERI = 0000000F            CLI$K_STTT_HOST= 00000008
CLI$B_QDBLKSIZ   00000000            CLI$K_SET_WORK = 00000010            CLI$K_STTT_INTE= 00000009
CLI$B_QDCODE     00000001            CLI$K_STAC_DISA= 00000001            CLI$K_STTT_LA36= 0000000A
CLI$B_QDFLGS     00000002            CLI$K_STAC_ENAB= 00000002            CLI$K_STTT_LFFI= 0000000B
CLI$B_QDSTAT     00000003            CLI$K_STAC_NEW_= 00000003            CLI$K_STTT_LOCA= 0000000C
CLI$B_RQFLGS     00000002            CLI$K_STCR_026 = 00000001            CLI$K_STTT_LOWE= 0000000D
CLI$B_RQINDX     00000001            CLI$K_STCR_029 = 00000002            CLI$K_STTT_PAGE= 0000000E
CLI$B_RQSTAT     00000003            CLI$K_STDV_ERRO= 00000002            CLI$K_STTT_PARI= 0000001E
CLI$B_RQTYPE     00000000            CLI$K_STDV_SPOO= 00000001            CLI$K_STTT_PASS= 0000000F
CLI$C_QDBITS     00000014            CLI$K_STLG_INTE= 00000001            CLI$K_STTT_PERM= 00000020
CLI$C_QUALDEF    00000014            CLI$K_STLP_CR  = 00000001            CLI$K_STTT_READ= 0000001F
CLI$C_REQDESC    0000001C            CLI$K_STLP_FF  = 00000002            CLI$K_STTT_REMO= 00000010
CLI$C_WORKAREA   00000080            CLI$K_STLP_LA11= 00000005            CLI$K_STTT_SCOP= 00000011
CLI$K_ASCIIVAL = 00000041            CLI$K_STLP_LA18= 00000006            CLI$K_STTT_SCRI= 00000012
CLI$K_CLISERV  = 00000005            CLI$K_STLP_LOWE= 00000004            CLI$K_STTT_SPEE= 00000013
CLI$K_ENDPRM1  = 00000030            CLI$K_STLP_LP11= 00000007            CLI$K_STTT_TAB = 00000014
CLI$K_ENDPRM2  = 00000031            CLI$K_STLP_PAGE= 00000008            CLI$K_STTT_TTSY= 00000015
CLI$K_ENDPRM3  = 00000032            CLI$K_STLP_UNKN= 00000009            CLI$K_STTT_TYPE= 00000016
CLI$K_ENDPRM4  = 00000033            CLI$K_STLP_UPPE= 00000003            CLI$K_STTT_UNKN= 00000017
CLI$K_FILSPEC  = 00000044            CLI$K_STLP_WIDT= 0000000A            CLI$K_STTT_UPPE= 00000018
CLI$K_GETCMD   = 00000001            CLI$K_STMT_DENS= 00000001            CLI$K_STTT_VT05= 00000019
CLI$K_GETOPT   = 00000003            CLI$K_STMT_REWI= 00000002            CLI$K_STTT_VT52= 0000001A
CLI$K_GETQUAL  = 00000002            CLI$K_STMT_UNLO= 00000003            CLI$K_STTT_VT55= 0000001B
CLI$K_INITPRS  = 00000000            CLI$K_STPC_IDEN= 00000001            CLI$K_STTT_WIDT= 0000001C
CLI$K_INPSPEC  = 00000001            CLI$K_STPC_PRIO= 00000002            CLI$K_STTT_WRAP= 0000001D
CLI$K_INPUT1   = 00000010            CLI$K_STPC_RESO= 00000003            CLI$K_STWR_LIMI= 00000001
CLI$K_INPUT2   = 00000011            CLI$K_STPC_SWAP= 00000004            CLI$K_STWR_QUOT= 00000002
CLI$K_INPUT3   = 00000012            CLI$K_STPR_DEFA= 00000001            CLI$K_UTILOPR  = 00000000
CLI$K_INPUT4   = 00000013            CLI$K_STPR_DEVI= 00000003            CLI$K_VALCONV  = 00000004
CLI$K_KEYVAL   = 00000043            CLI$K_STPR_OWNE= 00000004            CLI$K_WORKAREA   00000080
CLI$K_KEYWORD  = 00000042            CLI$K_STPR_PROT= 00000002            CLI$L_CLIFLAG    00000018
CLI$K_NUMERVAL = 00000040            CLI$K_STQE_AFTE= 00000001            CLI$L_INIARGCNT  00000000
CLI$K_OUTPUT1  = 00000020            CLI$K_STQE_ENTR= 00000003            CLI$L_LINKFLAG   00000014
SETRMS          - SET RMS DEFAULT VALUES FOR PROCESS OR SYSTEM   21-AUG-1978 19:15:03   VAX-11 MACRO X0.3-11               Page   8
SYMBOL TABLE                                                                                                                     (3)

CLI$L_RQVALU     0000000C            CLI$V_VFYINP   = 00000005            PRV$V_VOLPRO   = 00000015
CLI$L_USRVAL     00000014            CLI$W_QDVALSIZ   00000004            PRV$V_WORLD    = 00000010
CLI$L_WORKAREA   00000000            CLI$W_RQSIZE     00000008            QUA_B_DEFVAL     00000002
CLI$M_ABSADR   = 00000002            CLI$W_SERVCOD    00000001            QUA_B_IMAGE      00000005
CLI$M_ALLOCCUR = 00000001            CNVRTVAL         00000126 R     04   QUA_B_INDEX      00000001
CLI$M_BATCH    = 00000008            CTL$GQ_PROCPRIV  ********   X   04   QUA_B_OFFSET     00000000
CLI$M_CONCATINP= 00000002            GBL...         = 00000000            QUA_B_PARMCNT    00000008
CLI$M_DBGEXCP  = 00010000            INP_ARGLIST      0000001C R     03   QUA_G_CHNGLST    00000006
CLI$M_DBGTRU   = 00000002            INP_DESC         0000002C R     03   QUA_M_BATDEF   = 00000100
CLI$M_DEBUG    = 00000001            INP_QUAL         00000048 R     03   QUA_M_CHNGLIST = 00000001
CLI$M_DUMMY    = 00000002            NUMVAL           00000000 R     03   QUA_M_DEFTRUE  = 00000080
CLI$M_EXPNAM   = 00000004            PIO$GB_DFMBC     ********   X   04   QUA_M_FILE     = 00000004
CLI$M_INDIRECT = 00000010            PIO$GB_DFMBFHSH  ********   X   04   QUA_M_IMAGE    = 00000400
CLI$M_KEYVALU  = 00000002            PIO$GB_DFMBFIDX  ********   X   04   QUA_M_INTDEF   = 00000200
CLI$M_LASTVAL  = 00000001            PIO$GB_DFMBFREL  ********   X   04   QUA_M_KEYVAL   = 00004000
CLI$M_MOREINP  = 00000004            PIO$GB_DFMBFSDK  ********   X   04   QUA_M_LOCALKEY = 00000002
CLI$M_MOREVALS = 00000001            PIO$GB_DFMBFSMT  ********   X   04   QUA_M_NEG      = 00000040
CLI$M_PARMDEF  = 00000008            PIO$GB_DFMBFSUR  ********   X   04   QUA_M_ONEVAL   = 00002000
CLI$M_PARMPRS  = 00000001            PRO_B_FLAGS      00000001            QUA_M_OUTPUT   = 00000800
CLI$M_PARMREQ  = 00000001            PRO_B_PROMPT     00000000            QUA_M_PARM     = 00000010
CLI$M_QDEXPA   = 00000004            PRO_K_LENGTH     00000002            QUA_M_VAL      = 00000020
CLI$M_QDUSRV   = 00000002            PRO_M_CONCAT   = 00000001            QUA_M_VALREQ   = 00001000
CLI$M_QUALEXP  = 00000002            PRO_M_IMPCAT   = 00000002            QUA_M_VERB     = 00000008
CLI$M_QUALTRU  = 00000001            PRO_M_LIST     = 00000004            QUA_S_MAXPARM  = 00000004
CLI$M_TRMVRBLV = 00000300            PRO_M_OPTION   = 00000008            QUA_S_MINPARM  = 00000004
CLI$M_VERIFY   = 00000004            PRO_M_REQ      = 00000010            QUA_V_BATDEF   = 00000008
CLI$M_VFYINP   = 00000020            PRO_M_STRING   = 00000020            QUA_V_CHNGLIST = 00000000
CLI$Q_QDVALDESC  00000004            PRO_V_CONCAT   = 00000000            QUA_V_DEFTRUE  = 00000007
CLI$Q_RQDESC     00000008            PRO_V_IMPCAT   = 00000001            QUA_V_FILE     = 00000002
CLI$S_PRITYP   = 00000004            PRO_V_LIST     = 00000002            QUA_V_IMAGE    = 0000000A
CLI$S_SUBTYP   = 00000004            PRO_V_OPTION   = 00000003            QUA_V_INTDEF   = 00000009
CLI$S_TRMVRBLV = 00000002            PRO_V_REQ      = 00000004            QUA_V_KEYVAL   = 0000000E
CLI$V_ABSADR   = 00000001            PRO_V_STRING   = 00000005            QUA_V_LOCALKEY = 00000001
CLI$V_ALLOCCUR = 00000000            PRV$V_ALLSPOOL = 00000004            QUA_V_MAXPARM  = 00000004
CLI$V_BATCH    = 00000003            PRV$V_BUGCHK   = 00000017            QUA_V_MINPARM  = 00000000
CLI$V_CONCATINP= 00000001            PRV$V_CMEXEC   = 00000001            QUA_V_NEG      = 00000006
CLI$V_DBGEXCP  = 00000010            PRV$V_CMKRNL   = 00000000            QUA_V_ONEVAL   = 0000000D
CLI$V_DBGTRU   = 00000001            PRV$V_DETACH   = 00000005            QUA_V_OUTPUT   = 0000000B
CLI$V_DEBUG    = 00000000            PRV$V_DIAGNOSE = 00000006            QUA_V_PARM     = 00000004
CLI$V_DUMMY    = 00000001            PRV$V_EXQUOTA  = 00000013            QUA_V_VAL      = 00000005
CLI$V_EXPNAM   = 00000002            PRV$V_GROUP    = 00000008            QUA_V_VALREQ   = 0000000C
CLI$V_INDIRECT = 00000004            PRV$V_GRPNAM   = 00000003            QUA_V_VERB     = 00000003
CLI$V_KEYVALU  = 00000001            PRV$V_LOG_IO   = 00000007            QUA_W_FLAGS      00000003
CLI$V_LASTVAL  = 00000000            PRV$V_MOUNT    = 00000011            QUA_W_PROMPT     00000009
CLI$V_MOREINP  = 00000002            PRV$V_NETMBX   = 00000014            QUA_W_QUALIST    00000006
CLI$V_MOREVALS = 00000000            PRV$V_NOACNT   = 00000009            SET$A_CLIWORK    ********   X   03
CLI$V_PARMDEF  = 00000003            PRV$V_OPER     = 00000012            SET$RMS          00000000 RG    04
CLI$V_PARMPRS  = 00000000            PRV$V_PHY_IO   = 00000016            SETPIO           00000026 R     04
CLI$V_PARMREQ  = 00000000            PRV$V_PRMCEB   = 0000000A            SETSYS           00000099 R     04
CLI$V_PRITYP   = 00000004            PRV$V_PRMGBL   = 00000018            SHR$_ABEND     = 000010D8
CLI$V_QDEXPA   = 00000002            PRV$V_PRMMBX   = 0000000B            SHR$_ABENDD    = 000010E0
CLI$V_QDUSRV   = 00000001            PRV$V_PSWAPM   = 0000000C            SHR$_ABENDT    = 000010E8
CLI$V_QUALEXP  = 00000001            PRV$V_SETPRI   = 0000000D            SHR$_APPENDEDB = 00001000
CLI$V_QUALTRU  = 00000000            PRV$V_SETPRV   = 0000000E            SHR$_APPENDEDR = 00001008
CLI$V_SUBTYP   = 00000000            PRV$V_SYSGBL   = 00000019            SHR$_ATPC      = 00001158
CLI$V_TRMVRBLV = 00000008            PRV$V_SYSNAM   = 00000002            SHR$_BADBYTE   = 00001010
CLI$V_VERIFY   = 00000002            PRV$V_TMPMBX   = 0000000F            SHR$_BADCOPIES = 00001160
SETRMS          - SET RMS DEFAULT VALUES FOR PROCESS OR SYSTEM   21-AUG-1978 19:15:03   VAX-11 MACRO X0.3-11               Page   9
SYMBOL TABLE                                                                                                                     (3)

SHR$_BADDELIM  = 00001118            SHR$_SEARCHFAIL= 00001238
SHR$_BADFIELD  = 00001018            SHR$_SYNTAX    = 000010F8
SHR$_BADFORM   = 00001168            SHR$_SYSERROR  = 000011B0
SHR$_BADJOBID  = 00001170            SHR$_SYSERRORPC= 000010F0
SHR$_BADJOBNAME= 00001178            SHR$_TEXT      = 00001130
SHR$_BADKEY    = 00001108            SHR$_UNXPCTSTS = 000011D0
SHR$_BADLOGIC  = 00001120            SHR$_VALERR    = 000011E8
SHR$_BADLOGICPC= 00001150            SHR$_WILDCONCAT= 000010C0
SHR$_BADLONG   = 00001020            SHR$_WILDOUTVER= 000010C8
SHR$_BADPRTY   = 00001180            SHR$_WRITEERR  = 000010D0
SHR$_BADQNAME  = 00001188            SS$_NOPRIV       ********   X   04
SHR$_BADTIME   = 00001190            SS$_NORMAL       ********   X   04
SHR$_BADVALUE  = 00001110            STRM$V_BLKVAL  = 0000000A
SHR$_BADWORD   = 00001028            STRM$V_DISK    = 00000006
SHR$_BEGIN     = 00001030            STRM$V_HASH    = 00000002
SHR$_BEGIND    = 00001038            STRM$V_INDEX   = 00000003
SHR$_BEGINT    = 00001040            STRM$V_MAGTAPE = 00000007
SHR$_CLICB     = 00001048            STRM$V_REL     = 00000004
SHR$_CLOSEDEL  = 00001218            STRM$V_SEQ     = 00000005
SHR$_CLOSEIN   = 00001050            STRM$V_SYSTEM  = 00000009
SHR$_CLOSEOUT  = 00001058            STRM$V_UNIT    = 00000008
SHR$_CONFDEL   = 000011F8            SYS$CMKRNL       ********   X   04
SHR$_COPIEDB   = 00001060            SYS$EXIT         ********   X   04
SHR$_COPIEDR   = 00001068            SYS$GB_DFMBC     ********   X   04
SHR$_CREATED   = 00001070            SYS$GB_DFMBFHSH  ********   X   04
SHR$_DELETED   = 00001200            SYS$GB_DFMBFIDX  ********   X   04
SHR$_DELINTERR = 00001240            SYS$GB_DFMBFREL  ********   X   04
SHR$_DELVER    = 00001208            SYS$GB_DFMBFSDK  ********   X   04
SHR$_DIRTOOBUS = 00001220            SYS$GB_DFMBFSMT  ********   X   04
SHR$_ENDED     = 00001078            SYS$GB_DFMBFSUR  ********   X   04
SHR$_ENDEDD    = 00001080
SHR$_ENDEDT    = 00001088
SHR$_FILNOTDEL = 000011F0
SHR$_FILNOTPUR = 00001230
SHR$_FILPURGED = 00001250
SHR$_HASHCONCAT= 000011D8
SHR$_HIGHVER   = 00001148
SHR$_IDXCONCAT = 00001138
SHR$_INCOMPAT  = 000011E0
SHR$_NEWFILES  = 00001090
SHR$_NOFILPURG = 00001228
SHR$_NOJOBID   = 000011A0
SHR$_NOJOBNAME = 000011A8
SHR$_NOQUEUE   = 00001198
SHR$_NOTCMPLT  = 000011C0
SHR$_NOTCOPIED = 000011B8
SHR$_NOVALUE   = 00001100
SHR$_NOWILD    = 00001128
SHR$_OPENIN    = 00001098
SHR$_OPENOUT   = 000010A0
SHR$_OVERLAY   = 000010A8
SHR$_PARSEFAIL = 00001248
SHR$_PURGEVER  = 00001210
SHR$_READERR   = 000010B0
SHR$_RELCONCAT = 00001140
SHR$_REPLACED  = 000010B8
SHR$_RMSERROR  = 000011C8
SETRMS          - SET RMS DEFAULT VALUES FOR PROCESS OR SYSTEM   21-AUG-1978 19:15:03   VAX-11 MACRO X0.3-11               Page  10
PROGRAM SECTION SYNOPSIS                                                                                                         (3)


PROGRAM SECTION SYNOPSIS

.  ABS  .        00000000      00     NOPIC   USR   CON   ABS   LCL NOSHR NOEXE NORD  NOWRT BYTE
. BLANK .        00000000      01     NOPIC   USR   CON   REL   LCL NOSHR   EXE   RD    WRT BYTE
$ABS$            00000080      02     NOPIC   USR   CON   ABS   LCL NOSHR   EXE   RD    WRT BYTE
SET$RWDATA       0000013C      03     NOPIC   USR   CON   REL   LCL NOSHR NOEXE   RD    WRT LONG
SET$CODE         00000147      04     NOPIC   USR   CON   REL   LCL NOSHR   EXE   RD  NOWRT BYTE


THERE WERE NO ERRORS OR WARNINGS.
8238. BYTES LEFT IN FREE MEMORY POOL.
3594. BYTES OF RECLAIMED MEMORY.
OBJ$:SETRMS,LIS$:SETRMS/-SP=EXECML$/ML,LIB$:CLIUTL/ML,SRC$:SETRMS
52 MLB DIR RDS - 764 GETS TO DEFINE 30 MACROS. 64 INTER. FILE WRITES.
