SETTERM         - SET CHARACTERISTICS OF A TERMINAL              21-AUG-1978 19:15:55   VAX-11 MACRO X0.3-11               Page   0
TABLE OF CONTENTS

   (3)     279  PERMANENT QUALIFIER ACTION ROUTINE
   (4)     289  GENERAL SET/CLEAR ACTION ROUTINES
   (5)     315  TERMINAL TYPE ACTION ROUTINES
   (6)     356  VALUE ACTION ROUTINES
SETTERM         - SET CHARACTERISTICS OF A TERMINAL              21-AUG-1978 19:15:55   VAX-11 MACRO X0.3-11               Page   1
X01                                                                                                                              (1)

                                     0000     1 	.TITLE	SETTERM - SET CHARACTERISTICS OF A TERMINAL
                                     0000     2 	.IDENT	/X01/
                                     0000     3
                                     0000     4 ;
                                     0000     5 ; COPYRIGHT (C) 1977
                                     0000     6 ; DIGITAL EQUIPMENT CORPORATION, MAYNARD, MASSACHUSETTS 01754
                                     0000     7 ;
                                     0000     8 ; THIS SOFTWARE IS FURNISHED  UNDER A LICENSE FOR USE ONLY ON A SINGLE
                                     0000     9 ; COMPUTER  SYSTEM AND  MAY BE  COPIED ONLY WITH  THE INCLUSION OF THE
                                     0000    10 ; ABOVE COPYRIGHT NOTICE.  THIS SOFTWARE, OR ANY OTHER COPIES THEREOF,
                                     0000    11 ; MAY NOT BE PROVIDED OR  OTHERWISE MADE AVAILABLE TO ANY OTHER PERSON
                                     0000    12 ; EXCEPT FOR USE ON SUCH SYSTEM AND TO ONE WHO AGREES TO THESE LICENSE
                                     0000    13 ; TERMS.  TITLE TO AND  OWNERSHIP OF THE  SOFTWARE  SHALL AT ALL TIMES
                                     0000    14 ; REMAIN IN DEC.
                                     0000    15 ;
                                     0000    16 ; THE INFORMATION IN THIS SOFTWARE IS SUBJECT TO CHANGE WITHOUT NOTICE
                                     0000    17 ; AND SHOULD  NOT BE CONSTRUED  AS A COMMITMENT  BY DIGITAL  EQUIPMENT
                                     0000    18 ; CORPORATION.
                                     0000    19 ;
                                     0000    20 ; DEC ASSUMES  NO  RESPONSIBILITY  FOR  THE USE OR  RELIABILITY OF ITS
                                     0000    21 ; SOFTWARE ON EQUIPMENT WHICH IS NOT SUPPLIED BY DEC.
                                     0000    22 ;
                                     0000    23
                                     0000    24 ;++
                                     0000    25 ; FACILITY:	CLI UTILITY "SET"
                                     0000    26 ;
                                     0000    27 ; ABSTRACT:	SET THE CHARACTERISTICS OF A TERMINAL
                                     0000    28 ;
                                     0000    29 ; AUTHOR:	R.HEINEN 21-NOV-1977
                                     0000    30 ;--
                                     0000    31 ;
                                     0000    32 ; LOCAL MACROS
                                     0000    33 ;
                                     0000    34 	.MACRO	CALLBAK	P1,P2
                                     0000    35 	.IF B <P2>
                                     0000    36 	PUSHAB	W^BITS			; ADDRESS OF BIT MASK
                                     0000    37 	.IFF
                                     0000    38 	PUSHAB	P2			; ADDRESS OF THIRD ARGUEMENT
                                     0000    39 	.ENDC
                                     0000    40 	PUSHAB	W^SET$A_CLIWORK	; COMMON WORK AREA
                                     0000    41 	PUSHAB	P1			; THE REQUEST DESCRIPTOR
                                     0000    42 	CALLS	#3,@CLI$A_UTILSERV(AP)	; REQUEST THE SERVICE OF THE CLI
                                     0000    43 	.ENDM				;
                                     0000    44 	.MACRO	MATCHTAB	QUALIF,CHARI
                                     0000    45 	.=MATCHTABLE+CLI$K_STTT_'QUALIF
                                     0000    46 	.BYTE	TT$V_'CHARI
                                     0000    47 	.ENDM
                                     0000    48
                                     0000    49 ;
                                     0000    50 ; EXTERNAL SYMBOLS
                                     0000    51 ;
                                     0000    52 	$CLIDEFQUALSET			; DEFINE QUALIFIER CODES
                                     0000    53 	$DEVDEF				; DEFINE DEVICE CHARACTERISTICS
                                     0000    54 	$TTDEF				; DEFINE TERMINAL CHARACTERISTICS
                                     0000    55 ;
                                     0000    56 ; LOCAL STORAGE
                                     0000    57 ;
SETTERM         - SET CHARACTERISTICS OF A TERMINAL              21-AUG-1978 19:15:55   VAX-11 MACRO X0.3-11               Page   2
X01                                                                                                                              (1)

                                 00000000    58 	.PSECT	SET$RWDATA,NOEXE,LONG
                                     0000    59
                           00000000  0000    60 CHAN:		.LONG	0		; TERMINAL CHANNEL NUMBER
                           00000000  0004    61 BITS:		.LONG	0		; STORAGE FOR CLI CALL BACK
                  00000000 00000000  0008    62 IOSTATUS:	.LONG	0,0		; IOSB FOR TERMINAL GET CHARACTERISTICS
                  00000000 00000000  0010    63 UTIL_DESC:	.LONG	0,0		; UTILITY DESC
                           00000010  0018    64 GET_CHAN_INFO:	.LONG	16
                           00000020' 001C    65 		.LONG	CHAN_INFO-4
                           00000000  0020    66 		.LONG	0
                                     0024    67 CHAN_INFO:
                           00000025  0024    68 		.BLKB	1
                           00000026  0025    69 TERMTYPE:	.BLKB	1
                           00000028  0026    70 WIDTH:		.BLKW	1
                           0000002C  0028    71 TERMCHAR:	.BLKB	4
                           0000002F  002C    72 MASK:		.BLKB	3
                           00000030  002F    73 PAGESIZ:	.BLKB	1
                           00000034  0030    74 ENABLE:		.BLKL	1
                                     0034    75 QIO:	$QIO	FUNC=IO$_SETMODE,EFN=1,IOSB=IOSTATUS,P1=CHAN_INFO,P2=8
                                     0068    76
                                     0068    77 TERMNAME:
                                     0068    78 	$CLIREQDESC	RQTYPE=CLI$K_INPUT1	; GET THE INPUT OR TERMINAL NAME
                                     0084    79 CHAR_QUAL:
                                     0084    80 	$CLIREQDESC	RQTYPE=CLI$K_GETQUAL,QUALST=QUALS
                                     00A0    81 NUM_VAL:
                                     00A0    82 	$CLIREQDESC	RQTYPE=CLI$K_NUMERVAL
                                     00BC    83 ASCII_VAL:
                                     00BC    84 	$CLIREQDESC	RQTYPE=CLI$K_ASCIIVAL
                                     00D8    85 QUALS:
                                     00D8    86 	$CLIQUALDESC	QDCODE=CLI$K_STTT_PERM,TRUACT=PERM
                                     00EF    87 	$CLIQUALDESC	QDCODE=CLI$K_STTT_LA36,TRUACT=LA36
                                     0106    88 	$CLIQUALDESC	QDCODE=CLI$K_STTT_VT05,TRUACT=VT05
                                     011D    89 	$CLIQUALDESC	QDCODE=CLI$K_STTT_VT52,TRUACT=VT52
                                     0134    90 	$CLIQUALDESC	QDCODE=CLI$K_STTT_VT55,TRUACT=VT55
                                     014B    91 	$CLIQUALDESC	QDCODE=CLI$K_STTT_UNKN,TRUACT=UNKN
                                     0162    92 ;
                                     0162    93 	$CLIQUALDESC	QDCODE=CLI$K_STTT_BROA,TRUACT=CLEAR,FLSACT=SET,-
                                     0162    94 			QDFLGS=<CLI$V_QDEXPA>
                                     0179    95 	$CLIQUALDESC	QDCODE=CLI$K_STTT_ECHO,TRUACT=CLEAR,FLSACT=SET,-
                                     0179    96 			QDFLGS=<CLI$V_QDEXPA>
                                     0190    97 	$CLIQUALDESC	QDCODE=CLI$K_STTT_EIGH,TRUACT=SET,FLSACT=CLEAR,-
                                     0190    98 			QDFLGS=<CLI$V_QDEXPA>
                                     01A7    99 	$CLIQUALDESC	QDCODE=CLI$K_STTT_ESCA,TRUACT=SET,FLSACT=CLEAR,-
                                     01A7   100 			QDFLGS=<CLI$V_QDEXPA>
                                     01BE   101 	$CLIQUALDESC	QDCODE=CLI$K_STTT_HARD,TRUACT=CLEAR,FLSACT=SET,-
                                     01BE   102 			QDFLGS=<CLI$V_QDEXPA>
                                     01D5   103 	$CLIQUALDESC	QDCODE=CLI$K_STTT_HOLD,TRUACT=SET,FLSACT=CLEAR,-
                                     01D5   104 			QDFLGS=<CLI$V_QDEXPA>
                                     01EC   105 	$CLIQUALDESC	QDCODE=CLI$K_STTT_HOST,TRUACT=SET,FLSACT=CLEAR,-
                                     01EC   106 			QDFLGS=<CLI$V_QDEXPA>
                                     0203   107 	$CLIQUALDEF	QDCODE=CLI$K_STTT_INTE,TRUACT=CLEAR,FLSACT=SET,-
                                     0203   108 			QDFLGS=<CLI$V_QDEXPA>
                                     021A   109 	$CLIQUALDESC	QDCODE=CLI$K_STTT_LOCA,TRUACT=CLEAR,FLSACT=SET,-
                                     021A   110 			QDFLGS=<CLI$V_QDEXPA>
                                     0231   111 	$CLIQUALDESC	QDCODE=CLI$K_STTT_LOWE,TRUACT=SET,FLSACT=CLEAR,-
                                     0231   112 			QDFLGS=<CLI$V_QDEXPA>
                                     0248   113 	$CLIQUALDESC	QDCODE=CLI$K_STTT_PASS,TRUACT=SET,FLSACT=CLEAR,-
                                     0248   114 			QDFLGS=<CLI$V_QDEXPA>
SETTERM         - SET CHARACTERISTICS OF A TERMINAL              21-AUG-1978 19:15:55   VAX-11 MACRO X0.3-11               Page   3
X01                                                                                                                              (1)

                                     025F   115 	$CLIQUALDESC	QDCODE=CLI$K_STTT_REMO,TRUACT=SET,FLSACT=CLEAR,-
                                     025F   116 			QDFLGS=<CLI$V_QDEXPA>
                                     0276   117 	$CLIQUALDESC	QDCODE=CLI$K_STTT_SCOP,TRUACT=SET,FLSACT=CLEAR,-
                                     0276   118 			QDFLGS=<CLI$V_QDEXPA>
                                     028D   119 	$CLIQUALDESC	QDCODE=CLI$K_STTT_READ,TRUACT=SET,FLSACT=CLEAR,-
                                     028D   120 			QDFLGS=<CLI$V_QDEXPA>
                                     02A4   121 	$CLIQUALDESC	QDCODE=CLI$K_STTT_SCRI,TRUACT=SET,FLSACT=CLEAR,-
                                     02A4   122 			QDFLGS=<CLI$V_QDEXPA>
                                     02BB   123 	$CLIQUALDESC	QDCODE=CLI$K_STTT_TAB,TRUACT=SET,FLSACT=CLEAR,-
                                     02BB   124 			QDFLGS=<CLI$V_QDEXPA>
                                     02D2   125 	$CLIQUALDESC	QDCODE=CLI$K_STTT_TTSY,TRUACT=SET,FLSACT=CLEAR,-
                                     02D2   126 			QDFLGS=<CLI$V_QDEXPA>
                                     02E9   127 	$CLIQUALDESC	QDCODE=CLI$K_STTT_TYPE,TRUACT=CLEAR,FLSACT=SET,-
                                     02E9   128 			QDFLGS=<CLI$V_QDEXPA>
                                     0300   129 	$CLIQUALDESC	QDCODE=CLI$K_STTT_UPPE,TRUACT=CLEAR,FLSACT=SET,-
                                     0300   130 			QDFLGS=<CLI$V_QDEXPA>
                                     0317   131 	$CLIQUALDESC	QDCODE=CLI$K_STTT_WRAP,TRUACT=SET,FLSACT=CLEAR,-
                                     0317   132 			QDFLGS=<CLI$V_QDEXPA>
                                     032E   133 ;
                                     032E   134 CRFI_QUAL:$CLIQUALDESC	QDCODE=CLI$K_STTT_CRFI,TRUACT=CRFI
                                     0345   135 LFFI_QUAL:$CLIQUALDESC	QDCODE=CLI$K_STTT_LFFI,TRUACT=LFFI
                                     035C   136 PAGE_QUAL:$CLIQUALDESC	QDCODE=CLI$K_STTT_PAGE,TRUACT=PAGE
                                     0373   137 PARI_QUAL:$CLIQUALDESC	QDCODE=CLI$K_STTT_PARI,TRUACT=PARI,FLSACT=NOPARI,-
                                     0373   138 			QDFLGS=<CLI$V_QDEXPA>
                                     038A   139 SPEE_QUAL:$CLIQUALDESC	QDCODE=CLI$K_STTT_SPEE,TRUACT=SPEE
                                     03A1   140 WIDT_QUAL:$CLIQUALDESC	QDCODE=CLI$K_STTT_WIDT,TRUACT=WIDT
                                     03B8   141 	$CLIQUALDESC	END_LIST
                                     03B9   142 ;
                                     03B9   143 ; TABLE OF QUALIFIER TO CHARACTERISTIC CONVERSION
                                     03B9   144 ;
                                     03B9   145 MATCHTABLE:				;
                                     03B9   146 	MATCHTAB	BROA,NOBRDCST,0
                                     03BB   147 	MATCHTAB	ECHO,NOECHO,1
                                     03BD   148 	MATCHTAB	EIGH,EIGHTBIT,0
                                     03BE   149 	MATCHTAB	ESCA,ESCAPE,0
                                     03BF   150 	MATCHTAB	HARD,SCOPE,0
                                     03C0   151 	MATCHTAB	HOLD,HOLDSCREEN,0
                                     03C1   152 	MATCHTAB	HOST,HOSTSYNC,0
                                     03C2   153 	MATCHTAB	INTE,PASSALL,1
                                     03C3   154 	MATCHTAB	LOCA,REMOTE,1
                                     03C6   155 	MATCHTAB	LOWE,LOWER,0
                                     03C7   156 	MATCHTAB	PASS,PASSALL,1
                                     03C9   157 	MATCHTAB	REMO,REMOTE,1
                                     03CA   158 	MATCHTAB	SCOP,SCOPE,0
                                     03CB   159 	MATCHTAB	READ,READSYNC,0
                                     03D9   160 	MATCHTAB	SCRI,SCRIPT,1
                                     03CC   161 	MATCHTAB	TAB,MECHTAB,0
                                     03CE   162 	MATCHTAB	TTSY,TTSYNC,0
                                     03CF   163 	MATCHTAB	TYPE,NOTYPEAHD,0
                                     03D0   164 	MATCHTAB	UPPE,LOWER,0
                                     03D2   165 	MATCHTAB	WRAP,WRAP,0
                           000003F9  03D7   166 .=MATCHTABLE+64
                                     03F9   167 ;
                                     03F9   168 ; TABLE FOR TERMINAL TYPE DATA
                                     03F9   169 ;
                                 20  03F9   170 LA36_DAT:	.BYTE	TT$_LA36
                                 08  03FA   171 		.BYTE	8		; PAGE SIZE
SETTERM         - SET CHARACTERISTICS OF A TERMINAL              21-AUG-1978 19:15:55   VAX-11 MACRO X0.3-11               Page   4
X01                                                                                                                              (1)

                               0084  03FB   172 		.WORD	132		; WIDTH
                           00004000  03FD   173 		.LONG	TT$M_HOLDSCREEN
                           00000080  0401   174 		.LONG	TT$M_LOWER
                                 40  0405   175 VT52_DAT:	.BYTE	TT$_VT52
                                 18  0406   176 		.BYTE	24		; PAGE SIZE
                               0050  0407   177 		.WORD	80		; WIDTH
                           00000000  0409   178 		.LONG	0
                           00001180  040D   179 		.LONG	TT$M_LOWER!TT$M_SCOPE!TT$M_MECHTAB
                                 41  0411   180 VT55_DAT:	.BYTE	TT$_VT55
                                 18  0412   181 		.BYTE	24		; PAGE SIZE
                               0050  0413   182 		.WORD	80		; WIDTH
                           00000000  0415   183 		.LONG	0
                           00001180  0419   184 		.LONG	TT$M_LOWER!TT$M_SCOPE!TT$M_MECHTAB
                                 01  041D   185 VT05_DAT:	.BYTE	TT$_VT05
                                 18  041E   186 		.BYTE	24		; PAGE SIZE
                               0048  041F   187 		.WORD	72		; WIDTH
                           00004008  0421   188 		.LONG	TT$M_HOLDSCREEN!TT$M_ESCAPE
                           00001800  0425   189 		.LONG	TT$M_SCOPE!TT$M_LFFILL
                                     0429   190 ;
                                     0429   191 ; TABLE OF SPEED TO PARAMETER CONVERTION
                                     0429   192 ;
                                     0429   193 SPEED:
 0258 012C 0096 0086 006E 004B 0032  0429   194 	.WORD	50,75,110,134,150,300,600,1200,1800,2000,2400,3600,4800,7200,9600,0
 1C20 12C0 0E10 0960 07D0 0708 04B0  0437
                          0000 2580  0445
                                     0449   195
                                     0449   196 SYS_COMMAND:
                           0000000B' 0449   197 	.LONG	20$-10$
                           00000451' 044D   198 	.LONG	10$
   44 4E 41 4D 4D 4F 43 24 53 59 53  0451   199 10$:	.ASCII	/SYS$COMMAND/
                                     045C   200 20$:
SETTERM         - SET CHARACTERISTICS OF A TERMINAL              21-AUG-1978 19:15:55   VAX-11 MACRO X0.3-11               Page   5
X01                                                                                                                              (2)

                                 00000000   202 	.PSECT	SET$CODE,NOWRT
                                     0000   203 ;++
                                     0000   204 ; SET$TERM - SET TERMINAL CHARACTERISTICS
                                     0000   205 ;
                                     0000   206 ; FUNCTIONAL DESCRIPTION:
                                     0000   207 ;
                                     0000   208 ; THIS ROUTINE SETS THE CHARACTERISTICS OF A SPECIFIED TERMINAL.
                                     0000   209 ; IT IS ENTERED AS A RESULT OF A DISPATCH FROM THE SET COMMAND PROCESSOR.
                                     0000   210 ;
                                     0000   211 ; INPUTS:
                                     0000   212 ;
                                     0000   213 ;	THE CLI DATA BASE IS SET UP.
                                     0000   214 ;
                                     0000   215 ; OUTPUTS:
                                     0000   216 ;
                                     0000   217 ;	SET$L_STATUS = STATUS OF THE OPERATION
                                     0000   218 ;--
                                     0000   219 SET$TERM::				; SET TERMINAL COMMAND
                               03FC  0000   220 	.WORD	^M<R2,R3,R4,R5,R6,R7,R8,R9>
            56       0068'CF     9E  0002   221 	MOVAB	W^TERMNAME,R6		; ADDRESS QUAL DESC
                                     0007   222 	CALLBAK	(R6)			; CALL CLI FOR TERMINAL NAME
            56         08 A6     9E  0015   223 	MOVAB	CLI$Q_RQDESC(R6),R6	; ADDRESS NAME DESC
                          66     D5  0019   224 	TSTL	(R6)			; NAME PRESENT?
                          47     12  001B   225 	BNEQ	20$			; IF NEQ THEN ASSIGN THAT NAME
                                     001D   226 ;
                                     001D   227 ; DEFUALT NAME IS "SYS$COMMAND"
                                     001D   228 ;
            52            03     9A  001D   229 	MOVZBL	#3,R2			; SET UP TRANSLATE COUNTER
            56       0449'CF     9E  0020   230 	MOVAB	W^SYS_COMMAND,R6	; ADDRESS DESC FOR ORIGINAL NAME
       0010'CF       0000'CF     7D  0025   231 10$:	MOVQ	W^SHOW$GQ_OUT_DSC,W^UTIL_DESC
                                     002C   232 	$TRNLOG_S	(R6),W^UTIL_DESC,W^UTIL_DESC; TRANSLATE NAME
            1E            50     E9  0043   233 	BLBC	R0,20$			; IF LOW CLEAR THEN DONE
       0000'8F            50     B1  0046   234 	CMPW	R0,#SS$_NOTRAN		; DONE?
                          17     13  004B   235 	BEQL	20$			; IF EQL THEN YES
            66       0010'CF     7D  004D   236 	MOVQ	W^UTIL_DESC,(R6)	; SET UP FOR NEXT TRANSLATION
            1B         04 B6     91  0052   237 	CMPB	@4(R6),#^X01B		; PROCESS PERM?
                          09     12  0056   238 	BNEQ	15$			; IF NEQ THEN NO
         04 A6            04     C0  0058   239 	ADDL	#4,4(R6)		; SET NEW ADDRESS
            66            04     C2  005C   240 	SUBL	#4,(R6)			; AND SIZE
                          03     11  005F   241 	BRB	20$			; CONTINUE
            C1            52     F5  0061   242 15$:	SOBGTR	R2,10$			; CONTINUE UNTIL DONE
                                     0064   243 20$:	$ASSIGN_S	(R6),W^QIO+8	; ASSIGN CHANNEL TO DEVICE
            24            50     E9  0073   244 	BLBC	R0,ERROR		; IF LOW CLEAR THEN ERROR AND EXIT
                                     0076   245 ;
                                     0076   246 ; ASSUME SET OF TEMPORARY CHARACTERISTICS
                                     0076   247 ;
                                     0076   248 	$GETCHN_S	W^QIO+8,,W^GET_CHAN_INFO
            0B            50     E9  008C   249 	BLBC	R0,ERROR		; IF LOW CLEAR THEN ERROR
            50       0000'8F     3C  008F   250 	MOVZWL	#SS$_IVDEVNAM,R0	; ASSUME DEVICE NOT TERMINAL
       0020'CF            02     E0  0094   251 	BBS	#DEV$V_TRM,W^CHAN_INFO-4,SET_CHAR; BR IF NOT TERMINAL
                          06         0099
                                     009A   252 ;
                                     009A   253 ; ERROR IN GETTING CHARACTERISTICS
                                     009A   254 ;
       0000'CF            50     D0  009A   255 ERROR:	MOVL	R0,W^SET$L_STATUS	; SAVE FOR EXIT STATUS
                                 04  009F   256 	RET				; RETURN
                                     00A0   257 ;
SETTERM         - SET CHARACTERISTICS OF A TERMINAL              21-AUG-1978 19:15:55   VAX-11 MACRO X0.3-11               Page   6
X01                                                                                                                              (2)

                                     00A0   258 ; PROCESS DATA
                                     00A0   259 ;
                                     00A0   260 SET_CHAR:				; PROCESS DATA
                     0058'CF     7C  00A0   261 	CLRQ	W^QIO+36		; RESET FILL,SPEED AND PARITY DATA
                     0060'CF     D4  00A4   262 	CLRL	W^QIO+44		;
                     002C'CF     7C  00A8   263 	CLRQ	W^MASK			; ZERO MASK AND ENABLES
       0033'CF            01     8E  00AC   264 	MNEGB	#1,W^ENABLE+3		; SET PAGE MAGIC
       002F'CF       002B'CF     90  00B1   265 	MOVB	W^CHAN_INFO+7,W^PAGESIZ	; SET UP OLD PAGE
       0040'CF       0000'8F     3C  00B8   266 	MOVZWL	#IO$_SETMODE,W^QIO+12	; ASSUME SET TEMPORARY
       0000'CF       0000'8F     3C  00BF   267 	MOVZWL	#SS$_NORMAL,W^SET$L_STATUS; ASSUME SUCCESS
                                     00C6   268 	CALLBAK	W^CHAR_QUAL
            26       0000'CF     E9  00D6   269 	BLBC	W^SET$L_STATUS,100$
       0028'CF       0030'CF     CA  00DB   270 	BICL	W^ENABLE,W^CHAN_INFO+4
       0028'CF       002C'CF     C8  00E2   271 	BISL	W^MASK,W^CHAN_INFO+4
   00000000'9F       0034'CF     FA  00E9   272 	CALLG	W^QIO,@#SYS$QIOW	; SET THE MODE OR CHARACTERISTICS
       0000'CF            50     B0  00F2   273 	MOVW	R0,W^SET$L_STATUS	; SAVE STATUS
            07            50     E9  00F7   274 	BLBC	R0,100$			; IF LOW CLEAR THEN ERROR
       0000'CF       0008'CF     3C  00FA   275 	MOVZWL	W^IOSTATUS,W^SET$L_STATUS	; SAVE STATUS
                                     0101   276 100$:	$DASSGN_S	W^QIO+8		; DEASSIGN THE TERMINAL
                                 04  010D   277 	RET				; RETURN
SETTERM         - SET CHARACTERISTICS OF A TERMINAL              21-AUG-1978 19:15:55   VAX-11 MACRO X0.3-11               Page   7
X01             PERMANENT QUALIFIER ACTION ROUTINE                                                                               (3)

                                     010E   279 	.SBTTL	PERMANENT QUALIFIER ACTION ROUTINE
                                     010E   280 ;
                                     010E   281 ; PERM QUALIFIER - SET PERMANENT CHARACTERISTICS
                                     010E   282 ;
                               0000  010E   283 PERM:	.WORD	0			;
                                     0110   284 	$QIO_S	#0,W^QIO+8,#IO$_SENSECHAR,P1=W^CHAN_INFO,P2=#8
       002F'CF       002B'CF     90  0131   285 	MOVB	W^CHAN_INFO+7,W^PAGESIZ	; SET UP PAGE SIZE MASK
       0040'CF       0000'8F     3C  0138   286 	MOVZWL	#IO$_SETCHAR,W^QIO+12	; SET UP NEW FUNCTION CODE
                                 04  013F   287 	RET				; DONE
SETTERM         - SET CHARACTERISTICS OF A TERMINAL              21-AUG-1978 19:15:55   VAX-11 MACRO X0.3-11               Page   8
X01             GENERAL SET/CLEAR ACTION ROUTINES                                                                                (4)

                                     0140   289 	.SBTTL	GENERAL SET/CLEAR ACTION ROUTINES
                                     0140   290 ;
                                     0140   291 ;
                                     0140   292 ; SET CHARACTERISTIC
                                     0140   293 ;
                               0000  0140   294 SET:	.WORD	0			; SET THE CHARACTERISTIC
                          0B     10  0142   295 	BSBB	GET_MASK		; GET THE MASK
       002C'CF            50     C8  0144   296 	BISL	R0,W^MASK		; SET VALUE AS ON
                                 04  0149   297 	RET				;
                                     014A   298 ;
                                     014A   299 ; CLEAR CHARACTERISTIC
                                     014A   300 ;
                               0000  014A   301 CLEAR:	.WORD	0			; CLEAR THE CHARACTERISTIC
                          01     10  014C   302 	BSBB	GET_MASK		; GET THE MASK
                                 04  014E   303 	RET				;
                                     014F   304 ;
                                     014F   305 ; SUBROUTINE TO GET MASK VALUE
                                     014F   306 ;
                                     014F   307 GET_MASK:				;
            50         04 AC     D0  014F   308 	MOVL	4(AP),R0		; GET QUALIFIER DESC ADDRESS
            50         01 A0     9A  0153   309 	MOVZBL	CLI$B_QDCODE(R0),R0	; GET QUALIFIER NUMBER
            50       03B9'CF40   9A  0157   310 	MOVZBL	W^MATCHTABLE[R0],R0	; GET MASK VALUE
            01            50     78  015D   311 	ASHL	R0,#1,R0		; SET UP MASK
                          50         0160
       0030'CF            50     C8  0161   312 	BISL	R0,W^ENABLE		; ENABLE FOR CHANGE
                                 05  0166   313 	RSB				;
SETTERM         - SET CHARACTERISTICS OF A TERMINAL              21-AUG-1978 19:15:55   VAX-11 MACRO X0.3-11               Page   9
X01             TERMINAL TYPE ACTION ROUTINES                                                                                    (5)

                                     0167   315 	.SBTTL	TERMINAL TYPE ACTION ROUTINES
                                     0167   316
                               0000  0167   317 UNKN:	.WORD	0			;
       0025'CF            00     90  0169   318 	MOVB	#TT$_UNKNOWN,W^TERMTYPE	; SET TYPE ONLY
                                 04  016E   319 	RET				;
                               0000  016F   320 LA36:	.WORD	0
            50       03F9'CF     9E  0171   321 	MOVAB	W^LA36_DAT,R0		; GET DATA TABLE ADDRESS
                          1E     11  0176   322 	BRB	SET_TYPE		; SET UP THE TYPE
                               0000  0178   323 VT52:	.WORD	0			;
            50       0405'CF     9E  017A   324 	MOVAB	W^VT52_DAT,R0		; ADDRESS DATA TABLE
                          15     11  017F   325 	BRB	SET_TYPE		; SET UP TYPE
                               0000  0181   326 VT55:	.WORD	0			;
            50       0411'CF     9E  0183   327 	MOVAB	W^VT55_DAT,R0		; ADDRESS DATA TABLE
                          0C     11  0188   328 	BRB	SET_TYPE		; SET UP TYPE
                               0000  018A   329 VT05:	.WORD	0			;
            50       041D'CF     9E  018C   330 	MOVAB	W^VT05_DAT,R0		; ADDRESS DATA TABLE
       005D'CF            03     90  0191   331 	MOVB	#3,W^QIO+41		; SET FILL COUNT
                                     0196   332 ;
                                     0196   333 ; SUBROUTINE TO SET UP TYPE FIELDS
                                     0196   334 ;
                                     0196   335 SET_TYPE:				;
       0025'CF            80     90  0196   336 	MOVB	(R0)+,W^TERMTYPE	; INSERT TYPE
       002F'CF            80     90  019B   337 	MOVB	(R0)+,W^PAGESIZ		; INSERT PAGE SIZE
       0026'CF            80     B0  01A0   338 	MOVW	(R0)+,W^WIDTH		; INSERT PAGE WIDTH
   00069FB7 8F            80     C9  01A5   339 	BISL3	(R0)+,#<TT$M_CRFILL!TT$M_LFFILL-
                     0030'CF         01AC
                                     01AF   340 		!TT$M_NOECHO-
                                     01AF   341 		!TT$M_SCOPE-
                                     01AF   342 		!TT$M_NOBRDCST-
                                     01AF   343 		!TT$M_EIGHTBIT-
                                     01AF   344 		!TT$M_HOSTSYNC-
                                     01AF   345 		!TT$M_READSYNC-
                                     01AF   346 		!TT$M_LOWER-
                                     01AF   347 		!TT$M_PASSALL-
                                     01AF   348 		!TT$M_NOTYPEAHD-
                                     01AF   349 		!TT$M_MECHTAB-
                                     01AF   350 		!TT$M_TTSYNC-
                                     01AF   351 		!TT$M_WRAP-
                                     01AF   352 		>,W^ENABLE		; DECLARE CHANGE BITS
   00000220 8F            60     C9  01AF   353 	BISL3	(R0),#<TT$M_WRAP!TT$M_TTSYNC>,W^MASK;
                     002C'CF         01B6
                                 04  01B9   354 	RET				; RETURN
SETTERM         - SET CHARACTERISTICS OF A TERMINAL              21-AUG-1978 19:15:55   VAX-11 MACRO X0.3-11               Page  10
X01             VALUE ACTION ROUTINES                                                                                            (6)

                                     01BA   356 	.SBTTL	VALUE ACTION ROUTINES
                                     01BA   357 ;
                                     01BA   358 ; SUBROUTINE TO GET THE NUMERIC VALUE OF A QUALIFIER
                                     01BA   359 ;
                                     01BA   360 GET_VALUE:				;
                          50     D4  01BA   361 	CLRL	R0			;
            51         04 AC     D0  01BC   362 	MOVL	4(AP),R1		; ADDRESS QUALIFIER DESC
                       04 A1     B5  01C0   363 	TSTW	CLI$W_QDVALSIZ(R1)	; VALUE PRESENT?
                          19     13  01C3   364 	BEQL	20$			; ASSUME 0
                                     01C5   365 	CALLBAK	W^NUM_VAL,(R1)		; GET THE VALUE
            50       00AC'CF     D0  01D3   366 	MOVL	W^CLI$L_RQVALU+NUM_VAL,R0; GET THE VALUE
                     00AE'CF     B5  01D8   367 	TSTW	W^CLI$L_RQVALU+NUM_VAL+2; IN RANGE?
                          01     12  01DC   368 	BNEQ	BADPARAM		; IF NEQ THEN NO
                                 05  01DE   369 20$:	RSB				;
                                     01DF   370 ;
                                     01DF   371 ; BAD PARAMETER EXIT
                                     01DF   372 ;
                                     01DF   373 BADPARAM:
       0000'CF       0000'8F     3C  01DF   374 	MOVZWL	#SS$_BADPARAM,W^SET$L_STATUS
                                 04  01E6   375 	RET
                                     01E7   376 ;
                                     01E7   377 ; ACTION ROUTINE FOR CR FILL
                                     01E7   378 ;
                               0000  01E7   379 CRFI:	.WORD	0
                          FFCE   30  01E9   380 	BSBW	GET_VALUE		; GET THE VALUE
            50       FF00 8F     B3  01EC   381 	BITW	#^X0FF00,R0		; LEGAL SIZE?
                          EC     12  01F1   382 	BNEQ	BADPARAM
       005C'CF            50     90  01F3   383 	MOVB	R0,W^QIO+40		; SET THE VALUE
                          07     13  01F8   384 	BEQL	20$			; IF EQL THEN SHUT OFF
       002C'CF       0400 8F     A8  01FA   385 	BISW	#TT$M_CRFILL,W^MASK	;
       0030'CF       0400 8F     A8  0201   386 20$:	BISW	#TT$M_CRFILL,W^ENABLE	; SET THE MASK BIT
                                 04  0208   387 	RET
                                     0209   388 ;
                                     0209   389 ; ACTION ROUTINE FOR LF FILL
                                     0209   390 ;
                               0000  0209   391 LFFI:	.WORD	0
                          FFAC   30  020B   392 	BSBW	GET_VALUE		; GET THE VALUE
            50       FF00 8F     B3  020E   393 	BITW	#^X0FF00,R0		; IN RANGE?
                          CA     12  0213   394 	BNEQ	BADPARAM
       005D'CF            50     90  0215   395 	MOVB	R0,W^QIO+41		; SET THE VALUE
                          07     13  021A   396 	BEQL	20$			; IF EQL THEN SHUT OFF
       002C'CF       0800 8F     A8  021C   397 	BISW	#TT$M_LFFILL,W^MASK	;
       0030'CF       0800 8F     A8  0223   398 20$:	BISW	#TT$M_LFFILL,W^ENABLE	; SET THE MASK BIT
                                 04  022A   399 	RET
                                     022B   400 ;
                                     022B   401 ; ACTION ROUTINE FOR PAGE
                                     022B   402 ;
                               0000  022B   403 PAGE:	.WORD	0
                          FF8A   30  022D   404 	BSBW	GET_VALUE		; GET THE VALUE
            50       FF00 8F     B3  0230   405 	BITW	#^X0FF00,R0		; IN RANGE?
                          A8     12  0235   406 	BNEQ	BADPARAM
       002F'CF            50     90  0237   407 	MOVB	R0,W^PAGESIZ		; SET THE VALUE
                                 04  023C   408 20$:	RET
                                     023D   409 ;
                                     023D   410 ; ACTION ROUTINE FOR WIDTH
                                     023D   411 ;
                               0000  023D   412 WIDT:	.WORD	0
SETTERM         - SET CHARACTERISTICS OF A TERMINAL              21-AUG-1978 19:15:55   VAX-11 MACRO X0.3-11               Page  11
X01             VALUE ACTION ROUTINES                                                                                            (6)

                          FF78   30  023F   413 	BSBW	GET_VALUE		; GET THE VALUE
       0026'CF            50     B0  0242   414 	MOVW	R0,W^WIDTH		; SET THE VALUE
                                 04  0247   415 20$:	RET
                                     0248   416 ;
                                     0248   417 ; ACTION ROUTINE FOR SPEED
                                     0248   418 ;
                               000E  0248   419 SPEE:	.WORD	^M<R1,R2,R3>
                          FF6D   30  024A   420 	BSBW	GET_VALUE		; GET THE VALUE
                          51     D4  024D   421 	CLRL	R1			; START AT 0
                     0429'CF41   B5  024F   422 10$:	TSTW	W^SPEED[R1]		; END OF LIST?
                          89     13  0254   423 	BEQL	BADPARAM		; IF EQL THEN DONE
            50       0429'CF41   B1  0256   424 	CMPW	W^SPEED[R1],R0		; MATCH?
                          07     12  025C   425 	BNEQ	15$			; IF EQL THEN YES
            51            01     81  025E   426 	ADDB3	#1,R1,W^QIO+36		; SAVE THE SPEED VALUE
                     0058'CF         0261
                                 04  0264   427 12$:	RET
            51            10     F3  0265   428 15$:	AOBLEQ	#16,R1,10$		; CONTINUE UNTIL DONE
                          E6         0268
                          FF73   31  0269   429 	BRW	BADPARAM		;
                                     026C   430
                                     026C   431 	.ENABL	LSB
                                     026C   432 ;
                                     026C   433 ; PARITY OR NO PARITY
                                     026C   434 ;
                               0000  026C   435 NOPARI:	.WORD	0			;
                          2F     11  026E   436 	BRB	10$			;
                               0000  0270   437 PARI:	.WORD	0			; SET PARITY
       0060'CF       0040 8F     A8  0272   438 	BISW	#TT$M_PARITY,W^QIO+44	; ENABLE PARITY
            50         04 AC     D0  0279   439 	MOVL	4(AP),R0		; GET QUALIFIER
                       04 A0     B5  027D   440 	TSTW	CLI$W_QDVALSIZ(R0)	; VALUE PRESENT?
                          1D     13  0280   441 	BEQL	10$			; IF NO THEN ASSUME EVEN
                                     0282   442 	CALLBAK	W^ASCII_VAL,(R0)	; GET THE VALUE
       00C8'DF         4F 8F     91  0290   443 	CMPB	#^A/O/,@W^CLI$Q_RQDESC+ASCII_VAL+4; ODD?
                          07     12  0296   444 	BNEQ	10$			; IF NEQ THEN NO
       0060'CF       0080 8F     A8  0298   445 	BISW	#TT$M_ODD,W^QIO+44	; SET ODD PARITY
                                     029F   446 10$:
       0060'CF            20     A8  029F   447 	BISW	#TT$M_ALTRPAR,W^QIO+44	; SET UP PARITY CHANGE
                                 04  02A4   448 	RET
                                     02A5   449
                                     02A5   450 ;
                                     02A5   451 	.END
SETTERM         - SET CHARACTERISTICS OF A TERMINAL              21-AUG-1978 19:15:55   VAX-11 MACRO X0.3-11               Page  12
SYMBOL TABLE                                                                                                                     (6)

$$$            = 00000004            CLI$K_KEYVAL   = 00000043            CLI$K_STPR_OWNE= 00000004
$$$.           = 00000004            CLI$K_KEYWORD  = 00000042            CLI$K_STPR_PROT= 00000002
$$$GBL         = 00000000            CLI$K_NUMERVAL = 00000040            CLI$K_STQE_AFTE= 00000001
$$ARGS         = 0000000C            CLI$K_OUTPUT1  = 00000020            CLI$K_STQE_ENTR= 00000003
$$T1           = 00000001            CLI$K_OUTPUT2  = 00000021            CLI$K_STQE_FORM= 00000004
$CLI.          = 000003A1 R     03   CLI$K_OUTPUT3  = 00000022            CLI$K_STQE_HOLD= 00000005
$CLI..         = 000003B8 R     03   CLI$K_OUTPUT4  = 00000023            CLI$K_STQE_JOB_= 00000002
$QUALNUM$      = 0000000B            CLI$K_OUTSPEC  = 00000002            CLI$K_STQE_LOWE= 00000006
ASCII_VAL        000000BC R     03   CLI$K_PARDONE  = 00000003            CLI$K_STQE_NAME= 00000007
BADPARAM         000001DF R     04   CLI$K_QDBITS     00000014            CLI$K_STQE_PRIO= 00000008
BIT...         = 00000045            CLI$K_QUALDEF    00000014            CLI$K_STQE_RELE= 00000009
BITS             00000004 R     03   CLI$K_REQDESC    0000001C            CLI$K_STRM_BLOC= 00000001
CHAN             00000000 R     03   CLI$K_SET_ACCO = 00000001            CLI$K_STRM_BUFF= 00000002
CHAN_INFO        00000024 R     03   CLI$K_SET_CARD = 00000002            CLI$K_STRM_DISK= 00000003
CHAR_QUAL        00000084 R     03   CLI$K_SET_CONT = 00000012            CLI$K_STRM_HASH= 00000006
CLEAR            0000014A R     04   CLI$K_SET_DEFA = 00000004            CLI$K_STRM_INDE= 00000007
CLI$A_ABSACT     00000014            CLI$K_SET_DEVI = 00000003            CLI$K_STRM_MAGT= 00000004
CLI$A_ERRACT     00000004            CLI$K_SET_LOGI = 00000005            CLI$K_STRM_RELA= 00000008
CLI$A_FLSACT     00000010            CLI$K_SET_MAGT = 00000006            CLI$K_STRM_SEQU= 00000009
CLI$A_IMGFILED   00000010            CLI$K_SET_ON   = 00000007            CLI$K_STRM_SYST= 0000000A
CLI$A_IMGHDADR   0000000C            CLI$K_SET_PASS = 00000008            CLI$K_STRM_UNIT= 00000005
CLI$A_PROGXFER   00000004            CLI$K_SET_PRIN = 00000009            CLI$K_STTT_BROA= 00000001
CLI$A_PRSACT     00000010            CLI$K_SET_PROC = 0000000A            CLI$K_STTT_CRFI= 00000002
CLI$A_QDVALADR   00000008            CLI$K_SET_PROT = 0000000B            CLI$K_STTT_ECHO= 00000003
CLI$A_QUALST     00000018            CLI$K_SET_QUEU = 0000000C            CLI$K_STTT_EIGH= 00000004
CLI$A_RQADDR     0000000C            CLI$K_SET_RMS_ = 00000011            CLI$K_STTT_ESCA= 00000005
CLI$A_TRUACT     0000000C            CLI$K_SET_TERM = 0000000D            CLI$K_STTT_HARD= 00000006
CLI$A_UTILSERV   00000008            CLI$K_SET_UIC  = 0000000E            CLI$K_STTT_HOLD= 00000007
CLI$B_BITNUM     00000001            CLI$K_SET_VERI = 0000000F            CLI$K_STTT_HOST= 00000008
CLI$B_QDBLKSIZ   00000000            CLI$K_SET_WORK = 00000010            CLI$K_STTT_INTE= 00000009
CLI$B_QDCODE     00000001            CLI$K_STAC_DISA= 00000001            CLI$K_STTT_LA36= 0000000A
CLI$B_QDFLGS     00000002            CLI$K_STAC_ENAB= 00000002            CLI$K_STTT_LFFI= 0000000B
CLI$B_QDSTAT     00000003            CLI$K_STAC_NEW_= 00000003            CLI$K_STTT_LOCA= 0000000C
CLI$B_RQFLGS     00000002            CLI$K_STCR_026 = 00000001            CLI$K_STTT_LOWE= 0000000D
CLI$B_RQINDX     00000001            CLI$K_STCR_029 = 00000002            CLI$K_STTT_PAGE= 0000000E
CLI$B_RQSTAT     00000003            CLI$K_STDV_ERRO= 00000002            CLI$K_STTT_PARI= 0000001E
CLI$B_RQTYPE     00000000            CLI$K_STDV_SPOO= 00000001            CLI$K_STTT_PASS= 0000000F
CLI$C_QDBITS     00000014            CLI$K_STLG_INTE= 00000001            CLI$K_STTT_PERM= 00000020
CLI$C_QUALDEF    00000014            CLI$K_STLP_CR  = 00000001            CLI$K_STTT_READ= 0000001F
CLI$C_REQDESC    0000001C            CLI$K_STLP_FF  = 00000002            CLI$K_STTT_REMO= 00000010
CLI$C_WORKAREA   00000080            CLI$K_STLP_LA11= 00000005            CLI$K_STTT_SCOP= 00000011
CLI$K_ASCIIVAL = 00000041            CLI$K_STLP_LA18= 00000006            CLI$K_STTT_SCRI= 00000012
CLI$K_CLISERV  = 00000005            CLI$K_STLP_LOWE= 00000004            CLI$K_STTT_SPEE= 00000013
CLI$K_ENDPRM1  = 00000030            CLI$K_STLP_LP11= 00000007            CLI$K_STTT_TAB = 00000014
CLI$K_ENDPRM2  = 00000031            CLI$K_STLP_PAGE= 00000008            CLI$K_STTT_TTSY= 00000015
CLI$K_ENDPRM3  = 00000032            CLI$K_STLP_UNKN= 00000009            CLI$K_STTT_TYPE= 00000016
CLI$K_ENDPRM4  = 00000033            CLI$K_STLP_UPPE= 00000003            CLI$K_STTT_UNKN= 00000017
CLI$K_FILSPEC  = 00000044            CLI$K_STLP_WIDT= 0000000A            CLI$K_STTT_UPPE= 00000018
CLI$K_GETCMD   = 00000001            CLI$K_STMT_DENS= 00000001            CLI$K_STTT_VT05= 00000019
CLI$K_GETOPT   = 00000003            CLI$K_STMT_REWI= 00000002            CLI$K_STTT_VT52= 0000001A
CLI$K_GETQUAL  = 00000002            CLI$K_STMT_UNLO= 00000003            CLI$K_STTT_VT55= 0000001B
CLI$K_INITPRS  = 00000000            CLI$K_STPC_IDEN= 00000001            CLI$K_STTT_WIDT= 0000001C
CLI$K_INPSPEC  = 00000001            CLI$K_STPC_PRIO= 00000002            CLI$K_STTT_WRAP= 0000001D
CLI$K_INPUT1   = 00000010            CLI$K_STPC_RESO= 00000003            CLI$K_STWR_LIMI= 00000001
CLI$K_INPUT2   = 00000011            CLI$K_STPC_SWAP= 00000004            CLI$K_STWR_QUOT= 00000002
CLI$K_INPUT3   = 00000012            CLI$K_STPR_DEFA= 00000001            CLI$K_UTILOPR  = 00000000
CLI$K_INPUT4   = 00000013            CLI$K_STPR_DEVI= 00000003            CLI$K_VALCONV  = 00000004
SETTERM         - SET CHARACTERISTICS OF A TERMINAL              21-AUG-1978 19:15:55   VAX-11 MACRO X0.3-11               Page  13
SYMBOL TABLE                                                                                                                     (6)

CLI$K_WORKAREA   00000080            CLI$V_QUALTRU  = 00000000            DEV$V_SWL      = 00000019
CLI$L_CLIFLAG    00000018            CLI$V_SUBTYP   = 00000000            DEV$V_TRM      = 00000002
CLI$L_INIARGCNT  00000000            CLI$V_TRMVRBLV = 00000008            DEV$V_WCK      = 0000001F
CLI$L_LINKFLAG   00000014            CLI$V_VERIFY   = 00000002            ENABLE           00000030 R     03
CLI$L_RQVALU     0000000C            CLI$V_VFYINP   = 00000005            ERROR            0000009A R     04
CLI$L_USRVAL     00000014            CLI$W_QDVALSIZ   00000004            GBL...         = 00000000
CLI$L_WORKAREA   00000000            CLI$W_RQSIZE     00000008            GET_CHAN_INFO    00000018 R     03
CLI$M_ABSADR   = 00000002            CLI$W_SERVCOD    00000001            GET_MASK         0000014F R     04
CLI$M_ALLOCCUR = 00000001            CRFI             000001E7 R     04   GET_VALUE        000001BA R     04
CLI$M_BATCH    = 00000008            CRFI_QUAL        0000032E R     03   IO$_SENSECHAR    ********   X   04
CLI$M_CONCATINP= 00000002            DEV$M_ALL      = 00800000            IO$_SETCHAR      ********   X   04
CLI$M_DBGEXCP  = 00010000            DEV$M_AVL      = 00040000            IO$_SETMODE      ********   X   03
CLI$M_DBGTRU   = 00000002            DEV$M_CCL      = 00000002            IOSTATUS         00000008 R     03
CLI$M_DEBUG    = 00000001            DEV$M_DIR      = 00000008            LA36             0000016F R     04
CLI$M_DUMMY    = 00000002            DEV$M_DMT      = 00200000            LA36_DAT         000003F9 R     03
CLI$M_EXPNAM   = 00000004            DEV$M_ELG      = 00400000            LFFI             00000209 R     04
CLI$M_INDIRECT = 00000010            DEV$M_FOD      = 00004000            LFFI_QUAL        00000345 R     03
CLI$M_KEYVALU  = 00000002            DEV$M_FOR      = 01000000            MASK             0000002C R     03
CLI$M_LASTVAL  = 00000001            DEV$M_GEN      = 00020000            MATCHTABLE       000003B9 R     03
CLI$M_MOREINP  = 00000004            DEV$M_IDV      = 04000000            NOPARI           0000026C R     04
CLI$M_MOREVALS = 00000001            DEV$M_MBX      = 00100000            NUM_VAL          000000A0 R     03
CLI$M_PARMDEF  = 00000008            DEV$M_MNT      = 00080000            PAGE             0000022B R     04
CLI$M_PARMPRS  = 00000001            DEV$M_NET      = 00002000            PAGESIZ          0000002F R     03
CLI$M_PARMREQ  = 00000001            DEV$M_ODV      = 08000000            PAGE_QUAL        0000035C R     03
CLI$M_QDEXPA   = 00000004            DEV$M_RCK      = 40000000            PARI             00000270 R     04
CLI$M_QDUSRV   = 00000002            DEV$M_REC      = 00000001            PARI_QUAL        00000373 R     03
CLI$M_QUALEXP  = 00000002            DEV$M_RND      = 10000000            PERM             0000010E R     04
CLI$M_QUALTRU  = 00000001            DEV$M_RTM      = 20000000            PRO_B_FLAGS      00000001
CLI$M_TRMVRBLV = 00000300            DEV$M_SDI      = 00000010            PRO_B_PROMPT     00000000
CLI$M_VERIFY   = 00000004            DEV$M_SHR      = 00010000            PRO_K_LENGTH     00000002
CLI$M_VFYINP   = 00000020            DEV$M_SPL      = 00000040            PRO_M_CONCAT   = 00000001
CLI$Q_QDVALDESC  00000004            DEV$M_SQD      = 00000020            PRO_M_IMPCAT   = 00000002
CLI$Q_RQDESC     00000008            DEV$M_SWL      = 02000000            PRO_M_LIST     = 00000004
CLI$S_PRITYP   = 00000004            DEV$M_TRM      = 00000004            PRO_M_OPTION   = 00000008
CLI$S_SUBTYP   = 00000004            DEV$M_WCK      = 80000000            PRO_M_REQ      = 00000010
CLI$S_TRMVRBLV = 00000002            DEV$V_ALL      = 00000017            PRO_M_STRING   = 00000020
CLI$V_ABSADR   = 00000001            DEV$V_AVL      = 00000012            PRO_V_CONCAT   = 00000000
CLI$V_ALLOCCUR = 00000000            DEV$V_CCL      = 00000001            PRO_V_IMPCAT   = 00000001
CLI$V_BATCH    = 00000003            DEV$V_DIR      = 00000003            PRO_V_LIST     = 00000002
CLI$V_CONCATINP= 00000001            DEV$V_DMT      = 00000015            PRO_V_OPTION   = 00000003
CLI$V_DBGEXCP  = 00000010            DEV$V_ELG      = 00000016            PRO_V_REQ      = 00000004
CLI$V_DBGTRU   = 00000001            DEV$V_FOD      = 0000000E            PRO_V_STRING   = 00000005
CLI$V_DEBUG    = 00000000            DEV$V_FOR      = 00000018            QIO              00000034 R     03
CLI$V_DUMMY    = 00000001            DEV$V_GEN      = 00000011            QIO$_ASTADR    = 00000014
CLI$V_EXPNAM   = 00000002            DEV$V_IDV      = 0000001A            QIO$_ASTPRM    = 00000018
CLI$V_INDIRECT = 00000004            DEV$V_MBX      = 00000014            QIO$_CHAN      = 00000008
CLI$V_KEYVALU  = 00000001            DEV$V_MNT      = 00000013            QIO$_EFN       = 00000004
CLI$V_LASTVAL  = 00000000            DEV$V_NET      = 0000000D            QIO$_FUNC      = 0000000C
CLI$V_MOREINP  = 00000002            DEV$V_ODV      = 0000001B            QIO$_IOSB      = 00000010
CLI$V_MOREVALS = 00000000            DEV$V_RCK      = 0000001E            QIO$_NARGS     = 0000000C
CLI$V_PARMDEF  = 00000003            DEV$V_REC      = 00000000            QIO$_P1        = 0000001C
CLI$V_PARMPRS  = 00000000            DEV$V_RND      = 0000001C            QIO$_P2        = 00000020
CLI$V_PARMREQ  = 00000000            DEV$V_RTM      = 0000001D            QIO$_P3        = 00000024
CLI$V_PRITYP   = 00000004            DEV$V_SDI      = 00000004            QIO$_P4        = 00000028
CLI$V_QDEXPA   = 00000002            DEV$V_SHR      = 00000010            QIO$_P5        = 0000002C
CLI$V_QDUSRV   = 00000001            DEV$V_SPL      = 00000006            QIO$_P6        = 00000030
CLI$V_QUALEXP  = 00000001            DEV$V_SQD      = 00000005            QUALS            000000D8 R     03
SETTERM         - SET CHARACTERISTICS OF A TERMINAL              21-AUG-1978 19:15:55   VAX-11 MACRO X0.3-11               Page  14
SYMBOL TABLE                                                                                                                     (6)

QUA_B_DEFVAL     00000002            SYS$ASSIGN       ********   X   04   TT$V_MBXDSABL  = 00000010
QUA_B_IMAGE      00000005            SYS$DASSGN       ********   X   04   TT$V_MECHTAB   = 00000008
QUA_B_INDEX      00000001            SYS$GETCHN       ********   X   04   TT$V_NOBRDCST  = 00000011
QUA_B_OFFSET     00000000            SYS$QIO          ********   X   04   TT$V_NOECHO    = 00000001
QUA_B_PARMCNT    00000008            SYS$QIOW         ********   X   04   TT$V_NOTYPEAHD = 00000002
QUA_G_CHNGLST    00000006            SYS$TRNLOG       ********   X   04   TT$V_ODD       = 00000007
QUA_M_BATDEF   = 00000100            SYS_COMMAND      00000449 R     03   TT$V_PAGE      = 00000019
QUA_M_CHNGLIST = 00000001            TERMCHAR         00000028 R     03   TT$V_PARITY    = 00000006
QUA_M_DEFTRUE  = 00000080            TERMNAME         00000068 R     03   TT$V_PASSALL   = 00000000
QUA_M_FILE     = 00000004            TERMTYPE         00000025 R     03   TT$V_READSYNC  = 00000012
QUA_M_IMAGE    = 00000400            TT$C_BAUD_110  = 00000003            TT$V_REMOTE    = 0000000D
QUA_M_INTDEF   = 00000200            TT$C_BAUD_1200 = 00000008            TT$V_SCOPE     = 0000000C
QUA_M_KEYVAL   = 00004000            TT$C_BAUD_134  = 00000004            TT$V_SCRIPT    = 00000006
QUA_M_LOCALKEY = 00000002            TT$C_BAUD_150  = 00000005            TT$V_TTSYNC    = 00000005
QUA_M_NEG      = 00000040            TT$C_BAUD_1800 = 00000009            TT$V_WRAP      = 00000009
QUA_M_ONEVAL   = 00002000            TT$C_BAUD_2000 = 0000000A            TT$_LA36       = 00000020
QUA_M_OUTPUT   = 00000800            TT$C_BAUD_2400 = 0000000B            TT$_LAX        = 00000020
QUA_M_PARM     = 00000010            TT$C_BAUD_300  = 00000006            TT$_UNKNOWN    = 00000000
QUA_M_VAL      = 00000020            TT$C_BAUD_3600 = 0000000C            TT$_VT05       = 00000001
QUA_M_VALREQ   = 00001000            TT$C_BAUD_4800 = 0000000D            TT$_VT52       = 00000040
QUA_M_VERB     = 00000008            TT$C_BAUD_50   = 00000001            TT$_VT55       = 00000041
QUA_S_MAXPARM  = 00000004            TT$C_BAUD_600  = 00000007            TT$_VT5X       = 00000040
QUA_S_MINPARM  = 00000004            TT$C_BAUD_7200 = 0000000E            UNKN             00000167 R     04
QUA_V_BATDEF   = 00000008            TT$C_BAUD_75   = 00000002            UTIL_DESC        00000010 R     03
QUA_V_CHNGLIST = 00000000            TT$C_BAUD_9600 = 0000000F            VT05             0000018A R     04
QUA_V_DEFTRUE  = 00000007            TT$M_ALTRPAR   = 00000020            VT05_DAT         0000041D R     03
QUA_V_FILE     = 00000002            TT$M_CRFILL    = 00000400            VT52             00000178 R     04
QUA_V_IMAGE    = 0000000A            TT$M_EIGHTBIT  = 00008000            VT52_DAT         00000405 R     03
QUA_V_INTDEF   = 00000009            TT$M_ESCAPE    = 00000008            VT55             00000181 R     04
QUA_V_KEYVAL   = 0000000E            TT$M_HOLDSCREEN= 00004000            VT55_DAT         00000411 R     03
QUA_V_LOCALKEY = 00000001            TT$M_HOSTSYNC  = 00000010            WIDT             0000023D R     04
QUA_V_MAXPARM  = 00000004            TT$M_LFFILL    = 00000800            WIDTH            00000026 R     03
QUA_V_MINPARM  = 00000000            TT$M_LOWER     = 00000080            WIDT_QUAL        000003A1 R     03
QUA_V_NEG      = 00000006            TT$M_MBXDSABL  = 00010000
QUA_V_ONEVAL   = 0000000D            TT$M_MECHTAB   = 00000100
QUA_V_OUTPUT   = 0000000B            TT$M_NOBRDCST  = 00020000
QUA_V_PARM     = 00000004            TT$M_NOECHO    = 00000002
QUA_V_VAL      = 00000005            TT$M_NOTYPEAHD = 00000004
QUA_V_VALREQ   = 0000000C            TT$M_ODD       = 00000080
QUA_V_VERB     = 00000003            TT$M_PAGE      = FE000000
QUA_W_FLAGS      00000003            TT$M_PARITY    = 00000040
QUA_W_PROMPT     00000009            TT$M_PASSALL   = 00000001
QUA_W_QUALIST    00000006            TT$M_READSYNC  = 00040000
SET              00000140 R     04   TT$M_REMOTE    = 00002000
SET$A_CLIWORK    ********   X   04   TT$M_SCOPE     = 00001000
SET$L_STATUS     ********   X   04   TT$M_SCRIPT    = 00000040
SET$TERM         00000000 RG    04   TT$M_TTSYNC    = 00000020
SET_CHAR         000000A0 R     04   TT$M_WRAP      = 00000200
SET_TYPE         00000196 R     04   TT$S_PAGE      = 00000008
SHOW$GQ_OUT_DSC  ********   X   04   TT$V_ALTRPAR   = 00000005
SPEE             00000248 R     04   TT$V_CRFILL    = 0000000A
SPEED            00000429 R     03   TT$V_EIGHTBIT  = 0000000F
SPEE_QUAL        0000038A R     03   TT$V_ESCAPE    = 00000003
SS$_BADPARAM     ********   X   04   TT$V_HOLDSCREEN= 0000000E
SS$_IVDEVNAM     ********   X   04   TT$V_HOSTSYNC  = 00000004
SS$_NORMAL       ********   X   04   TT$V_LFFILL    = 0000000B
SS$_NOTRAN       ********   X   04   TT$V_LOWER     = 00000007
SETTERM         - SET CHARACTERISTICS OF A TERMINAL              21-AUG-1978 19:15:55   VAX-11 MACRO X0.3-11               Page  15
PROGRAM SECTION SYNOPSIS                                                                                                         (6)


PROGRAM SECTION SYNOPSIS

.  ABS  .        00000000      00     NOPIC   USR   CON   ABS   LCL NOSHR NOEXE NORD  NOWRT BYTE
. BLANK .        00000000      01     NOPIC   USR   CON   REL   LCL NOSHR   EXE   RD    WRT BYTE
$ABS$            00000080      02     NOPIC   USR   CON   ABS   LCL NOSHR   EXE   RD    WRT BYTE
SET$RWDATA       0000045C      03     NOPIC   USR   CON   REL   LCL NOSHR NOEXE   RD    WRT LONG
SET$CODE         000002A5      04     NOPIC   USR   CON   REL   LCL NOSHR   EXE   RD  NOWRT BYTE


THERE WERE NO ERRORS OR WARNINGS.
6242. BYTES LEFT IN FREE MEMORY POOL.
2020. BYTES OF RECLAIMED MEMORY.
OBJ$:SETTERM,LIS$:SETTERM/-SP=EXECML$/ML,LIB$:CLIUTL/ML,SRC$:SETTERM
69 MLB DIR RDS - 828 GETS TO DEFINE 39 MACROS. 101 INTER. FILE WRITES.
