SHOW$OPT_DISP   - SHOW OPTION DISPATCHER                         21-AUG-1978 19:17:36   VAX-11 MACRO X0.3-11               Page   0
TABLE OF CONTENTS

   (2)      49  DECLARATIONS
   (3)     122  SHOW$OPT_DISP	- SHOW COMMAND OPTION DISPATCHER
SHOW$OPT_DISP   - SHOW OPTION DISPATCHER                         21-AUG-1978 19:17:36   VAX-11 MACRO X0.3-11               Page   1
X0100                                                                                                                            (1)

                                     0000     1 	.TITLE	SHOW$OPT_DISP - SHOW OPTION DISPATCHER
                                     0000     2 	.IDENT	/X0100/
                                     0000     3
                                     0000     4 ;
                                     0000     5 ; COPYRIGHT (C) 1977
                                     0000     6 ; DIGITAL EQUIPMENT CORPORATION, MAYNARD, MASSACHUSETTS 01754
                                     0000     7 ;
                                     0000     8 ; THIS SOFTWARE IS FURNISHED  UNDER A LICENSE FOR USE ONLY ON A SINGLE
                                     0000     9 ; COMPUTER  SYSTEM AND  MAY BE  COPIED ONLY WITH  THE INCLUSION OF THE
                                     0000    10 ; ABOVE COPYRIGHT NOTICE.  THIS SOFTWARE, OR ANY OTHER COPIES THEREOF,
                                     0000    11 ; MAY NOT BE PROVIDED OR  OTHERWISE MADE AVAILABLE TO ANY OTHER PERSON
                                     0000    12 ; EXCEPT FOR USE ON SUCH SYSTEM AND TO ONE WHO AGREES TO THESE LICENSE
                                     0000    13 ; TERMS.  TITLE TO AND  OWNERSHIP OF THE  SOFTWARE  SHALL AT ALL TIMES
                                     0000    14 ; REMAIN IN DEC.
                                     0000    15 ;
                                     0000    16 ; THE INFORMATION IN THIS SOFTWARE IS SUBJECT TO CHANGE WITHOUT NOTICE
                                     0000    17 ; AND SHOULD  NOT BE CONSTRUED  AS A COMMITMENT  BY DIGITAL  EQUIPMENT
                                     0000    18 ; CORPORATION.
                                     0000    19 ;
                                     0000    20 ; DEC ASSUMES  NO  RESPONSIBILITY  FOR  THE USE OR  RELIABILITY OF ITS
                                     0000    21 ; SOFTWARE ON EQUIPMENT WHICH IS NOT SUPPLIED BY DEC.
                                     0000    22 ;
                                     0000    23
                                     0000    24 ;++
                                     0000    25 ; FACILITY:	SHOW COMMAND
                                     0000    26 ;
                                     0000    27 ; ABSTRACT:	SHOW COMMAND OPTION DISPACTHER :
                                     0000    28 ;			THIS MODULE DECODES THE OPTION SPECIFIED IN THE
                                     0000    29 ;			COMMAND LINE AND DISPATCHES TO THE APPROPRIATE
                                     0000    30 ;			ROUTINE TO PROCESS THE OPTION.
                                     0000    31 ;			SEE FUNCTIONAL DESCRIPTION BELOW FOR A SPECIFICATION
                                     0000    32 ;			OF THE CALLING INTERFACE.
                                     0000    33 ;
                                     0000    34 ;
                                     0000    35 ; ENVIRONMENT:
                                     0000    36 ;
                                     0000    37 ;	RUNS IN USER MODE BUT REQUIRES PRIVILEGE TO CHANGE MODE TO KERNEL
                                     0000    38 ;	FOR CERTAIN SHOW COMMAND OPTIONS.
                                     0000    39 ;
                                     0000    40 ;
                                     0000    41 ;	AUTHOR: BEATRICE U. WALTHER,	CREATION DATE 10-OCT-1977
                                     0000    42 ;
                                     0000    43 ; MODIFIED BY:
                                     0000    44 ;
                                     0000    45 ;	, : VERSION
                                     0000    46 ; 01	-
                                     0000    47 ;--
SHOW$OPT_DISP   - SHOW OPTION DISPATCHER                         21-AUG-1978 19:17:36   VAX-11 MACRO X0.3-11               Page   2
X0100           DECLARATIONS                                                                                                     (2)

                                     0000    49 	.SBTTL	DECLARATIONS
                                     0000    50 ;
                                     0000    51 ; INCLUDE FILES:
                                     0000    52 ;
                                     0000    53 	$CLIDEF				; CLI DEFINITIONS
                                     0000    54 	$CLIDEFQUALSHOW			; DEFINE SHOW QUALIFIERS
                                     0000    55 ;
                                     0000    56 ; MACROS:
                                     0000    57 ;
                                     0000    58 ; OWN STORAGE :
                                     0000    59 ;
                                 00000000    60 	.PSECT	SHOW$RWDATA	LONG,RD,WRT,NOEXE
                                     0000    61 ;
                                     0000    62 ; DEFINE CLI CALL BACK DATA STRUCTURES
                                     0000    63 ;
                                     0000    64 SHOW$A_CLIWORK::				; CLI RESULT PARSE WORK AREA
                           00000080  0000    65 	.BLKB	CLI$K_WORKAREA
                                     0080    66 	.ALIGN	LONG
                                     0080    67 SHOW_INITPRS:				; CLI REQUEST DESCRIPTOR BLOCK
                                     0080    68 	$CLIREQDESC	-		; FOR INIT PARSE
                                     0080    69 		RQTYPE=CLI$K_INITPRS
                                     009C    70 SHOW_OPTDESC:				; CLI REQUEST DESCRIPTOR BLOCK
                                     009C    71 	$CLIREQDESC	-		; FOR GET OPTION
                                     009C    72 		RQTYPE=CLI$K_GETOPT,-	;
                                     009C    73 		QUALST=SHOW_OPTQUAL	; POINT TO LIST OF OPTIONS
                                     00B8    74 SHOW_OPTQUAL:				; DEFINE LIST OF OPTIONS
                                     00B8    75 	$CLIQUALDEF	-			;
                                     00B8    76 		QDCODE=CLI$K_SHOW_WORK,-	; SHOW WORKING_SET
                                     00B8    77 		TRUACT=SHOW$WORKING_S		;
                                     00CF    78 	$CLIQUALDEF	-			;
                                     00CF    79 		QDCODE=CLI$K_SHOW_DEVI	-	; SHOW DEVICES
                                     00CF    80 		TRUACT=SHOW$DEVI_CLI		;
                                     00E6    81 	$CLIQUALDEF	-			;
                                     00E6    82 		QDCODE=CLI$K_SHOW_QUEU,-	; SHOW QUEUE
                                     00E6    83 		TRUACT=SHOW$QUEUE		;
                                     00FD    84 	$CLIQUALDEF	-			;
                                     00FD    85 		QDCODE=CLI$K_SHOW_LOGI,-	; SHOW LOGICAL
                                     00FD    86 		TRUACT=SHOW$LOGI_CLI		;
                                     0114    87 	$CLIQUALDEF	-			;
                                     0114    88 		QDCODE=CLI$K_SHOW_PROC,-	; SHOW PROCESS
                                     0114    89 		TRUACT=SHOW$PROCESS
                                     012B    90 	$CLIQUALDEF	-			;
                                     012B    91 		QDCODE=CLI$K_SHOW_SYST,-	; SHOW SYSTEM
                                     012B    92 		TRUACT=SHOW$SYSTEM
                                     0142    93 	$CLIQUALDEF	-
                                     0142    94 		QDCODE=CLI$K_SHOW_TERM,-
                                     0142    95 		TRUACT=SHOW$TERM		; SHOW TERMINAL
                                     0159    96 	$CLIQUALDEF	-
                                     0159    97 		QDCODE=CLI$K_SHOW_PRIN,-	;
                                     0159    98 		TRUACT=SHOW$PRINT		; SHOW PRINT
                                     0170    99 	$CLIQUALDEF	-
                                     0170   100 		QDCODE=CLI$K_SHOW_MAGT,-	;
                                     0170   101 		TRUACT=SHOW$MAGTAPE		; SHOW MAGTAPE
                                     0187   102 	$CLIQUALDEF	-
                                     0187   103 		QDCODE=CLI$K_SHOW_RMS_,-	; SHOW RMS
                                     0187   104 		TRUACT=SHOW$RMS
                                     019E   105 	$CLIQUALDEF	QDCODE=CLI$K_SHOW_NETW,-
SHOW$OPT_DISP   - SHOW OPTION DISPATCHER                         21-AUG-1978 19:17:36   VAX-11 MACRO X0.3-11               Page   3
X0100           DECLARATIONS                                                                                                     (2)

                                     019E   106 			TRUACT=SHOW$NETWORK
                                     01B5   107 	$CLIQUALDEF	END_LIST		; END OF OPTION LIST
                                     01B6   108
                                     01B6   109 ;
                                     01B6   110 ; global storage for SHOW command
                                     01B6   111 ;
                                     01B6   112 SHOW$L_STATUS::
                           000001BA  01B6   113 	.BLKL	1				; space for saving status
                                     01BA   114
                                     01BA   115 ;
                                     01BA   116 ;
                                     01BA   117 ; end of storage declaration
                                     01BA   118 ;
                                     01BA   119
                                     01BA   120
SHOW$OPT_DISP   - SHOW OPTION DISPATCHER                         21-AUG-1978 19:17:36   VAX-11 MACRO X0.3-11               Page   4
X0100           SHOW$OPT_DISP - SHOW COMMAND OPTION DISPATCHER                                                                   (3)

                                     01BA   122 		.SBTTL	SHOW$OPT_DISP	- SHOW COMMAND OPTION DISPATCHER
                                     01BA   123 ;++
                                     01BA   124 ; FUNCTIONAL DESCRIPTION:
                                     01BA   125 ;
                                     01BA   126 ;	THIS ROUTINE DECODES THE SHOW OPTION AND DISPATCHES DIRECTLY
                                     01BA   127 ;	TO THE SPECIFIC ROUTINE.
                                     01BA   128 ;
                                     01BA   129 ; CALLING SEQUENCE:
                                     01BA   130 ;
                                     01BA   131 ;	THIS ROUTINE IS CALLED BY THE CLI AS A RESULT OF THE DCL SHOW COMMAND
                                     01BA   132 ;
                                     01BA   133 ; INPUT PARAMETERS:
                                     01BA   134 ;
                                     01BA   135 ;	CLI$A_UTILSERV(AP)	=	CALL BACK ADDRESS FOR RESULT PARSER
                                     01BA   136 ;
                                     01BA   137 ; IMPLICIT INPUTS:
                                     01BA   138 ;
                                     01BA   139 ;	NONE
                                     01BA   140 ;
                                     01BA   141 ; OUTPUT PARAMETERS:
                                     01BA   142 ;
                                     01BA   143 ;	NONE
                                     01BA   144 ;
                                     01BA   145 ; IMPLICIT OUTPUTS:
                                     01BA   146 ;
                                     01BA   147 ;	DISPATCHES TO THE APPROPRIATE MODULE TO PROCESS THE OPTION.
                                     01BA   148 ;
                                     01BA   149 ; CALLING INTERFACE WITH THE OPTION PROCESSING MODULES:
                                     01BA   150 ;
                                     01BA   151 ;	A ROUTINE DISPATCHED TO BY THIS DISPATCHER IS PASSED THE
                                     01BA   152 ;	ADDRESS OF THE CLI UTILITY SERVICE ROUTINE EXACTLY IN THE SAME WAY
                                     01BA   153 ;	AS A ROUTINE CALLED DIRECTLY BY THE CLI. (CLI$A_UTILSERV(AP))
                                     01BA   154 ;	THEREFORE THE RETURN CALL TO THE CLI TO REQUEST ADDITIONAL PARSING
                                     01BA   155 ;	CAN BE DONE BY THE OPTION PROCESSING MODULE IN THE SAME WAY.
                                     01BA   156 ;
                                     01BA   157 ;	HOWEVER:
                                     01BA   158 ;		- THE CLI WORKING AREA HAS ALREADY BEEN DEFINED IN THE
                                     01BA   159 ;		   DISPATCHER AND HAS TO BE REFERENCED BY GLOBAL SYMBOL :
                                     01BA   160 ;			 	SHOW$A_CLIWORK
                                     01BA   161 ;		- THE OPTION PROCESSING MODULE SHOULD NOT REQUEST PARSE
                                     01BA   162 ;		  INITIALIZATION (INITPRS) AS THIS HAS ALREADY BEEN DONE
                                     01BA   163 ;		   IN THE DISPATCHER
                                     01BA   164 ;
                                     01BA   165 ; MESSAGE HANDLING FACILITY:
                                     01BA   166 ;
                                     01BA   167 ;	ALL SHOW OPTION PROCESSING MODULES SHOULD USE THE COMMON OUTPUT
                                     01BA   168 ;	FACILITIES PROVIDED IN MODULE SHOW$MSG_UTIL.
                                     01BA   169 ;
                                     01BA   170 ;	CALLABLE ENTRY POINTS ARE:
                                     01BA   171 ;		SHOW$PRINT_MSG = FORMATS AND PRINTS A MESSAGE, GIVEN A MESSAGE
                                     01BA   172 ;				 ID AND AN ARGUMENT LIST
                                     01BA   173 ;		SHOW$PRINT_LINE = PRINTS A LINE ON SYS$OUTPUT:
                                     01BA   174 ;
                                     01BA   175 ;	IT IS ALSO RECOMENDED TO USE THE COMMON OUTPUT LINE BUFFER WHERE APPLICABLE,
                                     01BA   176 ;	THE DESCRIPTOR OF WHICH IS ADDRESSED BY GLOBAL SYMBOL:
                                     01BA   177 ;		SHOW$GQ_OUT_DSC
                                     01BA   178 ;
SHOW$OPT_DISP   - SHOW OPTION DISPATCHER                         21-AUG-1978 19:17:36   VAX-11 MACRO X0.3-11               Page   5
X0100           SHOW$OPT_DISP - SHOW COMMAND OPTION DISPATCHER                                                                   (3)

                                     01BA   179 ; COMPLETION CODES:
                                     01BA   180 ;
                                     01BA   181 ;	R0 	=  set to completion code of option processing module called
                                     01BA   182 ;		   ( note = R0 has to be reloaded from SHOW$L_STATUS, since
                                     01BA   183 ;		    the CLI interface does not preserve R0)
                                     01BA   184 ;
                                     01BA   185 ;
                                     01BA   186 ; SIDE EFFECTS:
                                     01BA   187 ;
                                     01BA   188 ;	NONE
                                     01BA   189 ;
                                     01BA   190 ;--
                                     01BA   191
                                 00000000   192 	.PSECT	SHOW$CODE BYTE,RD,NOWRT,EXE
                                     0000   193
                               0000' 0000   194 	.ENTRY	SHOW$OPT_DISP,0
                                     0002   195
                                     0002   196 ;
                                     0002   197 ; request parse initialization
                                     0002   198 ;
                                     0002   199
       01B6'CF   00000000'8F     D0  0002   200 	MOVL	#SS$_NORMAL,W^SHOW$L_STATUS	; ASSUME SUCCESS
                     0000'CF     9F  000B   201 	PUSHAB	W^SHOW$A_CLIWORK		; ADDRESS OF CLI WORK AREA
                     0080'CF     9F  000F   202 	PUSHAB	W^SHOW_INITPRS		; REQUEST INIT PARSE
         08 BC            02     FB  0013   203 	CALLS 	#2,@CLI$A_UTILSERV(AP)	; AND CALL THE CLI SERVICE ROUTINE
                                     0017   204
                                     0017   205 ;
                                     0017   206 ; get command option and dispatch to option processing module
                                     0017   207 ;
                                     0017   208
                                     0017   209
                     0000'CF     9F  0017   210 	PUSHAB	W^SHOW$A_CLIWORK		; CLI WORK AREA
                     009C'CF     9F  001B   211 	PUSHAB	W^SHOW_OPTDESC		; REQUEST PARSING OF COMMAND OPTION
         08 BC            02     FB  001F   212 	CALLS 	#2,@CLI$A_UTILSERV(AP)	; CALL CLI
                                     0023   213
                                     0023   214 ;
                                     0023   215 ; exit
                                     0023   216 ;
                                     0023   217
                                     0023   218
            50       01B6'CF     D0  0023   219 	MOVL	W^SHOW$L_STATUS,R0	; return status stored by option
                                     0028   220 					; processing module
                                 04  0028   221 	RET				; ALL DONE
                                     0029   222 	.END	SHOW$OPT_DISP
SHOW$OPT_DISP   - SHOW OPTION DISPATCHER                         21-AUG-1978 19:17:36   VAX-11 MACRO X0.3-11               Page   6
SYMBOL TABLE                                                                                                                     (3)

$$$            = 00000004            CLI$K_QUALDEF    00000014            CLI$M_DBGEXCP  = 00010000
$$$GBL         = 00000000            CLI$K_REQDESC    0000001C            CLI$M_DBGTRU   = 00000002
$CLI.          = 0000019E R     03   CLI$K_SHDV_ALLO= 00000001            CLI$M_DEBUG    = 00000001
$CLI..         = 000001B5 R     03   CLI$K_SHDV_BRIE= 00000002            CLI$M_DUMMY    = 00000002
$QUALNUM$      = 00000002            CLI$K_SHDV_FULL= 00000003            CLI$M_EXPNAM   = 00000004
BIT...         = 00000008            CLI$K_SHDV_MOUN= 00000004            CLI$M_INDIRECT = 00000010
CLI$A_ABSACT     00000014            CLI$K_SHLG_ALL = 00000004            CLI$M_KEYVALU  = 00000002
CLI$A_ERRACT     00000004            CLI$K_SHLG_GROU= 00000002            CLI$M_LASTVAL  = 00000001
CLI$A_FLSACT     00000010            CLI$K_SHLG_PROC= 00000003            CLI$M_MOREINP  = 00000004
CLI$A_IMGFILED   00000010            CLI$K_SHLG_SYST= 00000001            CLI$M_MOREVALS = 00000001
CLI$A_IMGHDADR   0000000C            CLI$K_SHOW_DAYT= 00000001            CLI$M_PARMDEF  = 00000008
CLI$A_PROGXFER   00000004            CLI$K_SHOW_DEFA= 00000003            CLI$M_PARMPRS  = 00000001
CLI$A_PRSACT     00000010            CLI$K_SHOW_DEVI= 0000000A            CLI$M_PARMREQ  = 00000001
CLI$A_QDVALADR   00000008            CLI$K_SHOW_LOGI= 00000004            CLI$M_QDEXPA   = 00000004
CLI$A_QUALST     00000018            CLI$K_SHOW_MAGT= 00000012            CLI$M_QDUSRV   = 00000002
CLI$A_RQADDR     0000000C            CLI$K_SHOW_NETW= 00000010            CLI$M_QUALEXP  = 00000002
CLI$A_TRUACT     0000000C            CLI$K_SHOW_PRIN= 0000000F            CLI$M_QUALTRU  = 00000001
CLI$A_UTILSERV   00000008            CLI$K_SHOW_PROC= 0000000C            CLI$M_TRMVRBLV = 00000300
CLI$B_BITNUM     00000001            CLI$K_SHOW_PROT= 00000005            CLI$M_VERIFY   = 00000004
CLI$B_QDBLKSIZ   00000000            CLI$K_SHOW_QUEU= 00000006            CLI$M_VFYINP   = 00000020
CLI$B_QDCODE     00000001            CLI$K_SHOW_RMS_= 00000011            CLI$Q_QDVALDESC  00000004
CLI$B_QDFLGS     00000002            CLI$K_SHOW_STAT= 0000000B            CLI$Q_RQDESC     00000008
CLI$B_QDSTAT     00000003            CLI$K_SHOW_SYMB= 00000007            CLI$S_PRITYP   = 00000004
CLI$B_RQFLGS     00000002            CLI$K_SHOW_SYST= 0000000D            CLI$S_SUBTYP   = 00000004
CLI$B_RQINDX     00000001            CLI$K_SHOW_TERM= 0000000E            CLI$S_TRMVRBLV = 00000002
CLI$B_RQSTAT     00000003            CLI$K_SHOW_TIME= 00000002            CLI$V_ABSADR   = 00000001
CLI$B_RQTYPE     00000000            CLI$K_SHOW_TRAN= 00000008            CLI$V_ALLOCCUR = 00000000
CLI$C_QDBITS     00000014            CLI$K_SHOW_WORK= 00000009            CLI$V_BATCH    = 00000003
CLI$C_QUALDEF    00000014            CLI$K_SHPR_ACCO= 00000002            CLI$V_CONCATINP= 00000001
CLI$C_REQDESC    0000001C            CLI$K_SHPR_ALL = 00000005            CLI$V_DBGEXCP  = 00000010
CLI$C_WORKAREA   00000080            CLI$K_SHPR_PRIV= 00000003            CLI$V_DBGTRU   = 00000001
CLI$K_ASCIIVAL = 00000041            CLI$K_SHPR_QUOT= 00000001            CLI$V_DEBUG    = 00000000
CLI$K_CLISERV  = 00000005            CLI$K_SHPR_SUBP= 00000004            CLI$V_DUMMY    = 00000001
CLI$K_ENDPRM1  = 00000030            CLI$K_SHQU_ALL = 00000001            CLI$V_EXPNAM   = 00000002
CLI$K_ENDPRM2  = 00000031            CLI$K_SHQU_BATC= 00000002            CLI$V_INDIRECT = 00000004
CLI$K_ENDPRM3  = 00000032            CLI$K_SHQU_BRIE= 00000003            CLI$V_KEYVALU  = 00000001
CLI$K_ENDPRM4  = 00000033            CLI$K_SHQU_DEVI= 00000004            CLI$V_LASTVAL  = 00000000
CLI$K_FILSPEC  = 00000044            CLI$K_SHQU_ENTR= 00000005            CLI$V_MOREINP  = 00000002
CLI$K_GETCMD   = 00000001            CLI$K_SHQU_FULL= 00000006            CLI$V_MOREVALS = 00000000
CLI$K_GETOPT   = 00000003            CLI$K_SHSS_PROC= 00000001            CLI$V_PARMDEF  = 00000003
CLI$K_GETQUAL  = 00000002            CLI$K_SHSY_ALL = 00000003            CLI$V_PARMPRS  = 00000000
CLI$K_INITPRS  = 00000000            CLI$K_SHSY_GLOB= 00000001            CLI$V_PARMREQ  = 00000000
CLI$K_INPSPEC  = 00000001            CLI$K_SHSY_LOCA= 00000002            CLI$V_PRITYP   = 00000004
CLI$K_INPUT1   = 00000010            CLI$K_SHTE_PERM= 00000001            CLI$V_QDEXPA   = 00000002
CLI$K_INPUT2   = 00000011            CLI$K_UTILOPR  = 00000000            CLI$V_QDUSRV   = 00000001
CLI$K_INPUT3   = 00000012            CLI$K_VALCONV  = 00000004            CLI$V_QUALEXP  = 00000001
CLI$K_INPUT4   = 00000013            CLI$K_WORKAREA   00000080            CLI$V_QUALTRU  = 00000000
CLI$K_KEYVAL   = 00000043            CLI$L_CLIFLAG    00000018            CLI$V_SUBTYP   = 00000000
CLI$K_KEYWORD  = 00000042            CLI$L_INIARGCNT  00000000            CLI$V_TRMVRBLV = 00000008
CLI$K_NUMERVAL = 00000040            CLI$L_LINKFLAG   00000014            CLI$V_VERIFY   = 00000002
CLI$K_OUTPUT1  = 00000020            CLI$L_RQVALU     0000000C            CLI$V_VFYINP   = 00000005
CLI$K_OUTPUT2  = 00000021            CLI$L_USRVAL     00000014            CLI$W_QDVALSIZ   00000004
CLI$K_OUTPUT3  = 00000022            CLI$L_WORKAREA   00000000            CLI$W_RQSIZE     00000008
CLI$K_OUTPUT4  = 00000023            CLI$M_ABSADR   = 00000002            CLI$W_SERVCOD    00000001
CLI$K_OUTSPEC  = 00000002            CLI$M_ALLOCCUR = 00000001            GBL...         = 00000000
CLI$K_PARDONE  = 00000003            CLI$M_BATCH    = 00000008            PRO_B_FLAGS      00000001
CLI$K_QDBITS     00000014            CLI$M_CONCATINP= 00000002            PRO_B_PROMPT     00000000
SHOW$OPT_DISP   - SHOW OPTION DISPATCHER                         21-AUG-1978 19:17:36   VAX-11 MACRO X0.3-11               Page   7
SYMBOL TABLE                                                                                                                     (3)

PRO_K_LENGTH     00000002            SHOW$DEVI_CLI    ********   X   03
PRO_M_CONCAT   = 00000001            SHOW$LOGI_CLI    ********   X   03
PRO_M_IMPCAT   = 00000002            SHOW$L_STATUS    000001B6 RG    03
PRO_M_LIST     = 00000004            SHOW$MAGTAPE     ********   X   03
PRO_M_OPTION   = 00000008            SHOW$NETWORK     ********   X   03
PRO_M_REQ      = 00000010            SHOW$OPT_DISP    00000000 RG    04
PRO_M_STRING   = 00000020            SHOW$PRINT       ********   X   03
PRO_V_CONCAT   = 00000000            SHOW$PROCESS     ********   X   03
PRO_V_IMPCAT   = 00000001            SHOW$QUEUE       ********   X   03
PRO_V_LIST     = 00000002            SHOW$RMS         ********   X   03
PRO_V_OPTION   = 00000003            SHOW$SYSTEM      ********   X   03
PRO_V_REQ      = 00000004            SHOW$TERM        ********   X   03
PRO_V_STRING   = 00000005            SHOW$WORKING_S   ********   X   03
QUA_B_DEFVAL     00000002            SHOW_INITPRS     00000080 R     03
QUA_B_IMAGE      00000005            SHOW_OPTDESC     0000009C R     03
QUA_B_INDEX      00000001            SHOW_OPTQUAL     000000B8 R     03
QUA_B_OFFSET     00000000            SS$_NORMAL       ********   X   04
QUA_B_PARMCNT    00000008
QUA_G_CHNGLST    00000006
QUA_M_BATDEF   = 00000100
QUA_M_CHNGLIST = 00000001
QUA_M_DEFTRUE  = 00000080
QUA_M_FILE     = 00000004
QUA_M_IMAGE    = 00000400
QUA_M_INTDEF   = 00000200
QUA_M_KEYVAL   = 00004000
QUA_M_LOCALKEY = 00000002
QUA_M_NEG      = 00000040
QUA_M_ONEVAL   = 00002000
QUA_M_OUTPUT   = 00000800
QUA_M_PARM     = 00000010
QUA_M_VAL      = 00000020
QUA_M_VALREQ   = 00001000
QUA_M_VERB     = 00000008
QUA_S_MAXPARM  = 00000004
QUA_S_MINPARM  = 00000004
QUA_V_BATDEF   = 00000008
QUA_V_CHNGLIST = 00000000
QUA_V_DEFTRUE  = 00000007
QUA_V_FILE     = 00000002
QUA_V_IMAGE    = 0000000A
QUA_V_INTDEF   = 00000009
QUA_V_KEYVAL   = 0000000E
QUA_V_LOCALKEY = 00000001
QUA_V_MAXPARM  = 00000004
QUA_V_MINPARM  = 00000000
QUA_V_NEG      = 00000006
QUA_V_ONEVAL   = 0000000D
QUA_V_OUTPUT   = 0000000B
QUA_V_PARM     = 00000004
QUA_V_VAL      = 00000005
QUA_V_VALREQ   = 0000000C
QUA_V_VERB     = 00000003
QUA_W_FLAGS      00000003
QUA_W_PROMPT     00000009
QUA_W_QUALIST    00000006
SHOW$A_CLIWORK   00000000 RG    03
SHOW$OPT_DISP   - SHOW OPTION DISPATCHER                         21-AUG-1978 19:17:36   VAX-11 MACRO X0.3-11               Page   8
PROGRAM SECTION SYNOPSIS                                                                                                         (3)


PROGRAM SECTION SYNOPSIS

.  ABS  .        00000000      00     NOPIC   USR   CON   ABS   LCL NOSHR NOEXE NORD  NOWRT BYTE
. BLANK .        00000000      01     NOPIC   USR   CON   REL   LCL NOSHR   EXE   RD    WRT BYTE
$ABS$            00000080      02     NOPIC   USR   CON   ABS   LCL NOSHR   EXE   RD    WRT BYTE
SHOW$RWDATA      000001BA      03     NOPIC   USR   CON   REL   LCL NOSHR NOEXE   RD    WRT LONG
SHOW$CODE        00000029      04     NOPIC   USR   CON   REL   LCL NOSHR   EXE   RD  NOWRT BYTE


THERE WERE NO ERRORS OR WARNINGS.
14184. BYTES LEFT IN FREE MEMORY POOL.
3110. BYTES OF RECLAIMED MEMORY.
OBJ$:SHOCMDISP,LIS$:SHOCMDISP/-SP=EXECML$/ML,LIB$:CLIUTL/ML,SRC$:SHOCMDISP
37 MLB DIR RDS - 541 GETS TO DEFINE 24 MACROS. 44 INTER. FILE WRITES.
