SHOW$MSG_UTIL   - MESSAGE PRINTING UTILITIES                     21-AUG-1978 19:21:32   VAX-11 MACRO X0.3-11               Page   0
TABLE OF CONTENTS

   (2)      42  DECLARATIONS
   (3)     104  SHOW$PRINT_MSG		- PRINT MESSAGE ROUTINE
   (4)     201  SHOW$PRINT_LINE 	- PRINT LINE ROUTINE
SHOW$MSG_UTIL   - MESSAGE PRINTING UTILITIES                     21-AUG-1978 19:21:32   VAX-11 MACRO X0.3-11               Page   1
X0101                                                                                                                            (1)

                                     0000     1 	.TITLE  SHOW$MSG_UTIL - MESSAGE PRINTING UTILITIES
                                     0000     2 	.IDENT	/X0101/
                                     0000     3
                                     0000     4 ;
                                     0000     5 ; COPYRIGHT (C) 1977
                                     0000     6 ; DIGITAL EQUIPMENT CORPORATION, MAYNARD, MASSACHUSETTS 01754
                                     0000     7 ;
                                     0000     8 ; THIS SOFTWARE IS FURNISHED  UNDER A LICENSE FOR USE ONLY ON A SINGLE
                                     0000     9 ; COMPUTER  SYSTEM AND  MAY BE  COPIED ONLY WITH  THE INCLUSION OF THE
                                     0000    10 ; ABOVE COPYRIGHT NOTICE.  THIS SOFTWARE, OR ANY OTHER COPIES THEREOF,
                                     0000    11 ; MAY NOT BE PROVIDED OR  OTHERWISE MADE AVAILABLE TO ANY OTHER PERSON
                                     0000    12 ; EXCEPT FOR USE ON SUCH SYSTEM AND TO ONE WHO AGREES TO THESE LICENSE
                                     0000    13 ; TERMS.  TITLE TO AND  OWNERSHIP OF THE  SOFTWARE  SHALL AT ALL TIMES
                                     0000    14 ; REMAIN IN DEC.
                                     0000    15 ;
                                     0000    16 ; THE INFORMATION IN THIS SOFTWARE IS SUBJECT TO CHANGE WITHOUT NOTICE
                                     0000    17 ; AND SHOULD  NOT BE CONSTRUED  AS A COMMITMENT  BY DIGITAL  EQUIPMENT
                                     0000    18 ; CORPORATION.
                                     0000    19 ;
                                     0000    20 ; DEC ASSUMES  NO  RESPONSIBILITY  FOR  THE USE OR  RELIABILITY OF ITS
                                     0000    21 ; SOFTWARE ON EQUIPMENT WHICH IS NOT SUPPLIED BY DEC.
                                     0000    22 ;
                                     0000    23
                                     0000    24 ;++
                                     0000    25 ; FACILITY: 	SHOW COMMAND, MESSAGE UTILITY ROUTINES
                                     0000    26 ;
                                     0000    27 ; ABSTRACT:
                                     0000    28 ;
                                     0000    29 ;	This module contains all message formatting and printing utilities
                                     0000    30 ;	for the SHOW command
                                     0000    31 ;
                                     0000    32 ; ENVIRONMENT:
                                     0000    33 ;
                                     0000    34 ;	AUTHOR: BEATRICE U.WALTHER,	CREATION DATE:	10-OCT-1977
                                     0000    35 ;
                                     0000    36 ; MODIFIED BY:
                                     0000    37 ;
                                     0000    38 ;	, : VERSION
                                     0000    39 ; 01	-
                                     0000    40 ;--
SHOW$MSG_UTIL   - MESSAGE PRINTING UTILITIES                     21-AUG-1978 19:21:32   VAX-11 MACRO X0.3-11               Page   2
X0101           DECLARATIONS                                                                                                     (2)

                                     0000    42 	.SBTTL	DECLARATIONS
                                     0000    43
                                     0000    44 ;
                                     0000    45 ; INCLUDE FILES:
                                     0000    46 ;
                                     0000    47 	$RMSDEF
                                     0000    48 ;
                                     0000    49 ; MACROS:
                                     0000    50 ;
                                     0000    51
                                     0000    52
                                     0000    53 ;
                                     0000    54 ; EQUATED SYMBOLS:
                                     0000    55 ;
                                     0000    56 ;
                                     0000    57 ; define structure of a message table entry
                                     0000    58 ;
                                     0000    59
                                     0000    60 $DEFINI	MSG
                                     0000    61 $DEF	MSG_Q_TEXT:
                           00000008  0000    62 	.BLKQ	1		; descriptor to message text
                                     0008    63 $DEF	MSG_B_CODE:
                           00000009  0008    64 	.BLKB	1		; code associated with message
                                     0009    65 $DEF	MSG_B_CONTIN:
                           0000000A  0009    66 	.BLKB	1		; continuation flag
                                     000A    67 $DEF	MSG_B_PARAM:
                           0000000B  000A    68 	.BLKB	1		; count of associated FAO parameters
                           0000000C  000B    69 	.BLKB	1		; (spare)
                                     000C    70 $DEF	MSG_K_LENGTH:
                                     000C    71 				; length of message table entry
                                     000C    72 $DEFEND	MSG
                                     0000    73
                                     0000    74 ;
                                     0000    75 ; OWN STORAGE:
                                     0000    76 ;
                                     0000    77
                                 00000000    78 	.PSECT	SHOW$RWDATA	LONG,RD,WRT,NOEXE
                                     0000    79
                                     0000    80 OUTPUT_DNA:					; FILE NAME STRING
   3A 54 55 50 54 55 4F 24 53 59 53  0000    81 	.ASCII	/SYS$OUTPUT:/
                           0000000B  000B    82 OUTPUT_DNA_LEN =.-OUTPUT_DNA
                                     000B    83 	.ALIGN	LONG
                                     000C    84 OUTPUT_FAB:
                                     000C    85 	$FAB	FAC=PUT,-			; ALLOCATE FILE ACCESS BLOCK
                                     000C    86 		DNA=OUTPUT_DNA,-		; FOR OUTPUT
                                     000C    87 		DNS=OUTPUT_DNA_LEN,-
                                     000C    88 		RAT=CR,-			; APPEND A CARRIAGE RETURN
                                     000C    89 		FOP=CIF				; CREATE IF NOT OPEN
                                     005C    90
                                     005C    91 OUTPUT_RAB:
                                     005C    92 	$RAB	FAB=OUTPUT_FAB			; AND RECORD ACCESS BLOCK
                                     00A0    93 RMS_STATUS:
                           000000A4  00A0    94 	.BLKL	1				; RESERVE LONGWORD FOR RMS STATUS CODE
                                     00A4    95 OUTPUT_LENGTH:
                           000000A8  00A4    96 	.BLKL	1				; ACTUAL LENGTH OF OUTPUT BUFFER
                                     00A8    97 SHOW$GQ_OUT_DSC::
                           00000100' 00A8    98 	.LONG	OUT_BUFF_LENGTH			; BUILD DESCRIPTOR FOR OUTPUT  BUFFER
SHOW$MSG_UTIL   - MESSAGE PRINTING UTILITIES                     21-AUG-1978 19:21:32   VAX-11 MACRO X0.3-11               Page   3
X0101           DECLARATIONS                                                                                                     (2)

                           000000B0' 00AC    99 	.LONG 	OUTPUT_BUFFER			;
                                     00B0   100 OUTPUT_BUFFER:
                           000001B0  00B0   101 	.BLKB	256				; ALLOCATE OUTPUT BUFFER
                           00000100  01B0   102 OUT_BUFF_LENGTH =.-OUTPUT_BUFFER
SHOW$MSG_UTIL   - MESSAGE PRINTING UTILITIES                     21-AUG-1978 19:21:32   VAX-11 MACRO X0.3-11               Page   4
X0101           SHOW$PRINT_MSG  - PRINT MESSAGE ROUTINE                                                                          (3)

                                     01B0   104 	.SBTTL	SHOW$PRINT_MSG		- PRINT MESSAGE ROUTINE
                                     01B0   105
                                     01B0   106 ;++
                                     01B0   107 ; FUNCTIONAL DESCRIPTION:
                                     01B0   108 ;	THIS ROUTINE FORMATS ALL MESSAGES AND PRINTS THEM ON SYS$OUTPUT:
                                     01B0   109 ;	OR SYS$ERROR DEPENDING ON THE CODE ASSOCIATED WITH THE MESSAGE.
                                     01B0   110 ;	( SEE DESCRIPTION OF MACRO SHOW_DEFMSG FOR FORMAT OF MESSAGE TABLE)
                                     01B0   111 ;
                                     01B0   112 ; CALLING SEQUENCE:
                                     01B0   113 ;
                                     01B0   114 ;		PUSHL	#SHOW$_<MESSAGE MNEMONIC>
                                     01B0   115 ;		PUSHAL	ARGLIST
                                     01B0   116 ;		CALLS #2,SHOW$PRINT_MSG
                                     01B0   117 ;
                                     01B0   118 ; INPUT PARAMETERS:
                                     01B0   119 ;
                                     01B0   120 ;	4(AP)=	MESSAGE IDENTIFICATION NUMBER
                                     01B0   121 ;	8(AP)=	POINTER TO ARGUMENT LIST FOR $FAOL
                                     01B0   122 ;
                                     01B0   123 ; OUTPUT PARAMETERS:
                                     01B0   124 ;
                                     01B0   125 ;	NONE
                                     01B0   126 ;
                                     01B0   127 ; IMPLICIT INPUT PARAMETERS:
                                     01B0   128 ;
                                     01B0   129 ; 	NONE
                                     01B0   130 ;
                                     01B0   131 ; IMPLICIT OUTPUT PARAMETERS:
                                     01B0   132 ;
                                     01B0   133 ;	CALLS ROUTINE SHOW$PRINT_LINE
                                     01B0   134 ;
                                     01B0   135 ; COMPLETION CODES:
                                     01B0   136 ;
                                     01B0   137 ;	NONE
                                     01B0   138 ;
                                     01B0   139 ; SIDE EFFECTS:
                                     01B0   140 ;
                                     01B0   141 ;	NONE
                                     01B0   142 ;--
                                     01B0   143
                                 00000000   144 	.PSECT	SHOW$CODE	BYTE,RD,NOWRT,EXE
                                     0000   145
                               0C00' 0000   146 	.ENTRY	SHOW$PRINT_MSG,^M<R10,R11>
                                     0002   147
                                     0002   148 ;
                                     0002   149 ; initialize
                                     0002   150 ;
                                     0002   151
                          01     BB  0002   152 	PUSHR	#^M<R0>			; save status code
            0C         08 AC     C5  0004   153 	MULL3	8(AP),#MSG_K_LENGTH,R11
                          5B         0008
                                     0009   154 					; CALCULATE OFFSET INTO MESSAGE TABLE
            5A         04 AC     D0  0009   155 	MOVL 	4(AP),R10		; POINTER TO FAO PARAMETER LIST
                                     000D   156
                                     000D   157 ;
                                     000D   158 ; format a message line
                                     000D   159 ;
SHOW$MSG_UTIL   - MESSAGE PRINTING UTILITIES                     21-AUG-1978 19:21:32   VAX-11 MACRO X0.3-11               Page   5
X0101           SHOW$PRINT_MSG  - PRINT MESSAGE ROUTINE                                                                          (3)

                                     000D   160
                                     000D   161
                                     000D   162 10$:
                                     000D   163 	$FAOL_S		-		; FORMAT MESSAGE INTO OUPUT BUFFER
                                     000D   164 		CTRSTR=W^SHOW$A_MSGTXT(R11), -	; FAO CONTROL STRING
                                     000D   165 		OUTLEN=W^OUTPUT_LENGTH, -		; WORD TO RECEIVE ACTUAL LENGTH
                                     000D   166 		OUTBUF=W^SHOW$GQ_OUT_DSC, -	; OUTPUT BUFFER DESCRIPTOR
                                     000D   167 		PRMLST=(R10)			; PARAMETER LIST
            24            50     E9  0022   168 	BLBC	R0,99$			; branch on error
                                     0025   169
                                     0025   170 ;
                                     0025   171 ; print formatted line
                                     0025   172 ;
                                     0025   173
                                     0025   174
                     00B0'CF     DF  0025   175 	PUSHAL	W^OUTPUT_BUFFER		; ADDRESS OF OUTPUT MESSAGE STRING
                     00A4'CF     DD  0029   176 	PUSHL	W^OUTPUT_LENGTH		; RESULTANT LENGTH OF OUTPUT MESSAGE
       004A'CF            02     FB  002D   177 	CALLS	#2,W^SHOW$PRINT_LINE	; PRINT LINE ON SYS$OUTPUT:
            14            50     E9  0032   178 	BLBC	R0,99$			; branch on error
                                     0035   179
                                     0035   180 ;
                                     0035   181 ; get next line of message
                                     0035   182 ;
                                     0035   183
                                     0035   184
            0D       0015'CB     E9  0035   185 	BLBC	W^SHOW$A_MSGTXT+MSG_K_LENGTH+MSG_B_CONTIN(R11),90$
                                     003A   186 					; NO CONTINUATION
            50       000A'CB     9A  003A   187 	MOVZBL	W^SHOW$A_MSGTXT+MSG_B_PARAM(R11),R0
                                     003F   188 					; SKIP FAO PARAMETERS ALREADY PROCESSED
            5A            50     C0  003F   189 	ADDL2	R0,R10			; UPDATE POINTER TO PARAMETER LIST
            5B            0C     C0  0042   190 	ADDL2	#MSG_K_LENGTH,R11	; SKIP TO NEXT MESSAGE ENTRY
                          C6     11  0045   191 	BRB	10$			; AND PROCESS NEXT LINE OF MESSAGE
                                     0047   192
                                     0047   193 ;
                                     0047   194 ; exits
                                     0047   195 ;
                                     0047   196
                                     0047   197 90$:
                          01     BA  0047   198 	POPR	#^M<R0>			; restore return code
                                 04  0049   199 99$:	RET				; ALL DONE
SHOW$MSG_UTIL   - MESSAGE PRINTING UTILITIES                     21-AUG-1978 19:21:32   VAX-11 MACRO X0.3-11               Page   6
X0101           SHOW$PRINT_LINE  - PRINT LINE ROUTINE                                                                            (4)

                                     004A   201 	.SBTTL	SHOW$PRINT_LINE 	- PRINT LINE ROUTINE
                                     004A   202
                                     004A   203 ;++
                                     004A   204 ; FUNCTIONAL DESCRIPTION:
                                     004A   205 ;
                                     004A   206 ;	THIS ROUTINE PRINTS A LINE ON DEVICE SYS$OUTPUT
                                     004A   207 ;
                                     004A   208 ; CALLING SEQUENCE:
                                     004A   209 ;
                                     004A   210 ;		PUSHAL	OUT_BUFFER
                                     004A   211 ;		PUSHL	OUT_LENGTH
                                     004A   212 ;		CALLS 	#2,SHOW$PRINT_LINE
                                     004A   213 ;
                                     004A   214 ;	WHERE:	OUT_LENGTH =  LENGTH OF CHARACTER STRING TO PRINT
                                     004A   215 ;		OUT_BUFFER =  ADDRESS OF STRING TO PRINT
                                     004A   216 ;
                                     004A   217 ;	A CR/LF IS AUTOMATICALLY APPENDED FOR EACH CALL
                                     004A   218 ;
                                     004A   219 ;	NOTE:
                                     004A   220 ;	IT IS HIGHLY RECOMMENDED TO USE THE COMMON LINE BUFFER PROVIDED
                                     004A   221 ;	 THE DESCRIPTOR OF WHICH IS ADDRESSED BY GLOBAL SYMBOL:
                                     004A   222 ;			SHOW$GQ_OUT_DSC
                                     004A   223 ;
                                     004A   224 ;
                                     004A   225 ;
                                     004A   226 ; INPUT PARAMETERS:
                                     004A   227 ;
                                     004A   228 ;		OUT_BUFFER
                                     004A   229 ;		OUT_LENGTH
                                     004A   230 ;
                                     004A   231 ; IMPLICIT INPUTS:
                                     004A   232 ;
                                     004A   233 ;	NONE
                                     004A   234 ;
                                     004A   235 ; OUTPUT PARAMETERS:
                                     004A   236 ;
                                     004A   237 ;	NONE
                                     004A   238 ;
                                     004A   239 ; IMPLICIT OUTPUTS:
                                     004A   240 ;
                                     004A   241 ;	LINE IS PRINTED ON SYS$OUTPUT:
                                     004A   242 ;
                                     004A   243 ; COMPLETION CODES:
                                     004A   244 ;
                                     004A   245 ;	RMS COMPLETION CODES
                                     004A   246 ;
                                     004A   247 ; SIDE EFFECTS:
                                     004A   248 ;
                                     004A   249 ;
                                     004A   250 ;	OPENS AND CONNECTS SYS$OUTPUT: IF NECESSARY
                                     004A   251 ;
                                     004A   252 ;--
                                     004A   253
                                 0000004A   254 	.PSECT	SHOW$CODE	BYTE,RD,NOWRT,EXE
                                     004A   255
                               000C' 004A   256 	.ENTRY	SHOW$PRINT_LINE,^M<R2,R3>
                                     004C   257
SHOW$MSG_UTIL   - MESSAGE PRINTING UTILITIES                     21-AUG-1978 19:21:32   VAX-11 MACRO X0.3-11               Page   7
X0101           SHOW$PRINT_LINE  - PRINT LINE ROUTINE                                                                            (4)

                                     004C   258 ;
                                     004C   259 ; open SYS$OUTPUT: if not opened
                                     004C   260 ;
                                     004C   261
                     005E'CF     B5  004C   262 	TSTW	W^RAB$W_ISI+OUTPUT_RAB	; HAS OUTPUT ALREADY BEEN OPENED ?
                          1C     12  0050   263 	BNEQ	10$			; YES
                                     0052   264 	$CREATE	FAB=W^OUTPUT_FAB		; NO, OPEN IT
            25            50     E9  005D   265 	BLBC	R0,90$			; BRANCH ON ERROR
                                     0060   266 	$CONNECT RAB=W^OUTPUT_RAB		; AND CONNECT
            17            50     E9  006B   267 	BLBC	R0,90$			; branch on error
                                     006E   268
                                     006E   269 ;
                                     006E   270 ; print line on SYS$OUTPUT:
                                     006E   271 ;
                                     006E   272
                                     006E   273 10$:
       0084'CF         08 AC     D0  006E   274 	MOVL	8(AP),W^OUTPUT_RAB+RAB$L_RBF
                                     0074   275 					; INSERT OUTPUT BUFFER ADDRESS
       007E'CF         04 AC     B0  0074   276 	MOVW 	4(AP),W^OUTPUT_RAB+RAB$W_RSZ
                                     007A   277 					; INSERT OUTPUT BUFFER LENGTH
                                     007A   278 	$PUT	RAB=W^OUTPUT_RAB	; ISSUE RMS CALL TO PUT LINE
                                     0085   279 ;
                                     0085   280 ; exit
                                     0085   281 ;
                                     0085   282
                                     0085   283 90$:
                                 04  0085   284 	RET				; RETURN
                                     0086   285 	.END
SHOW$MSG_UTIL   - MESSAGE PRINTING UTILITIES                     21-AUG-1978 19:21:32   VAX-11 MACRO X0.3-11               Page   8
SYMBOL TABLE                                                                                                                     (4)

$$.TAB         = 0000005C R     03   FAB$M_FTN      = 00000001            FAB$V_KFO      = 0000001E
$$.TABEND      = 000000A0 R     03   FAB$M_GET      = 00000002            FAB$V_MSE      = 00000004
$$.TMP         = 00000000            FAB$M_INP      = 00080000            FAB$V_MXV      = 00000001
$$.TMP1        = 00000001            FAB$M_JNL      = 00400000            FAB$V_NAM      = 00000018
$$.TMP2        = 000000CF            FAB$M_KFO      = 40000000            FAB$V_NEF      = 0000000A
BIT...         = 00000020            FAB$M_MSE      = 00000010            FAB$V_NFS      = 00000010
FAB$B_BID        00000000            FAB$M_MXV      = 00000002            FAB$V_NIL      = 00000005
FAB$B_BKS        0000003E            FAB$M_NAM      = 01000000            FAB$V_OFP      = 0000001D
FAB$B_BLN        00000001            FAB$M_NEF      = 00000400            FAB$V_ORG      = 00000004
FAB$B_DNS        00000035            FAB$M_NFS      = 00010000            FAB$V_POS      = 00000008
FAB$B_FAC        00000016            FAB$M_NIL      = 00000020            FAB$V_PPF      = 00000012
FAB$B_FNS        00000034            FAB$M_OFP      = 20000000            FAB$V_PPF_IND  = 0000000E
FAB$B_FSZ        0000003F            FAB$M_POS      = 00000100            FAB$V_PPF_RAT  = 00000006
FAB$B_ORG        0000001D            FAB$M_PPF      = 00040000            FAB$V_PRN      = 00000002
FAB$B_RAT        0000001E            FAB$M_PPF_IND  = 00004000            FAB$V_PUT      = 00000000
FAB$B_RFM        0000001F            FAB$M_PPF_RAT  = 00003FC0            FAB$V_RCK      = 00000017
FAB$B_RTV        0000001C            FAB$M_PRN      = 00000004            FAB$V_RWC      = 0000000B
FAB$B_SHR        00000017            FAB$M_PUT      = 00000001            FAB$V_RWO      = 00000007
FAB$C_BID      = 00000003            FAB$M_RCK      = 00800000            FAB$V_SCF      = 0000000E
FAB$C_BLN        00000050            FAB$M_RWC      = 00000800            FAB$V_SHRDEL   = 00000002
FAB$C_FIX      = 00000001            FAB$M_RWO      = 00000080            FAB$V_SHRGET   = 00000001
FAB$C_HSH      = 00000030            FAB$M_SCF      = 00004000            FAB$V_SHRPUT   = 00000000
FAB$C_IDX      = 00000020            FAB$M_SHRDEL   = 00000004            FAB$V_SHRUPD   = 00000003
FAB$C_MAXRFM   = 00000003            FAB$M_SHRGET   = 00000002            FAB$V_SPL      = 0000000D
FAB$C_REL      = 00000010            FAB$M_SHRPUT   = 00000001            FAB$V_SQO      = 00000006
FAB$C_RFM_DFLT = 00000002            FAB$M_SHRUPD   = 00000008            FAB$V_SUP      = 00000002
FAB$C_SEQ      = 00000000            FAB$M_SPL      = 00002000            FAB$V_TEF      = 0000001C
FAB$C_UDF      = 00000000            FAB$M_SQO      = 00000040            FAB$V_TMD      = 00000004
FAB$C_VAR      = 00000002            FAB$M_SUP      = 00000004            FAB$V_TMP      = 00000003
FAB$C_VFC      = 00000003            FAB$M_TEF      = 10000000            FAB$V_TRN      = 00000004
FAB$K_BLN        00000050            FAB$M_TMD      = 00000010            FAB$V_UFM      = 0000001A
FAB$L_ALQ        00000010            FAB$M_TMP      = 00000008            FAB$V_UFO      = 00000011
FAB$L_CTX        00000018            FAB$M_TRN      = 00000010            FAB$V_UPD      = 00000003
FAB$L_DEV        00000040            FAB$M_UFM      = 04000000            FAB$V_UPI      = 00000006
FAB$L_DNA        00000030            FAB$M_UFO      = 00020000            FAB$V_WCK      = 00000009
FAB$L_FNA        0000002C            FAB$M_UPD      = 00000008            FAB$W_BLS        0000003C
FAB$L_FOP        00000004            FAB$M_UPI      = 00000040            FAB$W_DEQ        00000014
FAB$L_JNL        00000020            FAB$M_WCK      = 00000200            FAB$W_IFI        00000002
FAB$L_MRN        00000038            FAB$S_ORG      = 00000004            FAB$W_MRS        00000036
FAB$L_NAM        00000028            FAB$S_PPF_RAT  = 00000008            GBL...         = 00000000
FAB$L_SDC        00000044            FAB$V_BIO      = 00000005            MSG_B_CODE       00000008  G
FAB$L_STS        00000008            FAB$V_BLK      = 00000003            MSG_B_CONTIN     00000009  G
FAB$L_STV        0000000C            FAB$V_BRO      = 00000006            MSG_B_PARAM      0000000A  G
FAB$L_XAB        00000024            FAB$V_CBT      = 00000015            MSG_K_LENGTH     0000000C  G
FAB$M_BIO      = 00000020            FAB$V_CIF      = 00000019            MSG_Q_TEXT       00000000  G
FAB$M_BLK      = 00000008            FAB$V_CR       = 00000001            OUTPUT_BUFFER    000000B0 R     03
FAB$M_BRO      = 00000040            FAB$V_CTG      = 00000014            OUTPUT_DNA       00000000 R     03
FAB$M_CBT      = 00200000            FAB$V_DEL      = 00000002            OUTPUT_DNA_LEN = 0000000B
FAB$M_CIF      = 02000000            FAB$V_DFW      = 00000005            OUTPUT_FAB       0000000C R     03
FAB$M_CR       = 00000002            FAB$V_DLT      = 0000000F            OUTPUT_LENGTH    000000A4 R     03
FAB$M_CTG      = 00100000            FAB$V_DMO      = 0000000C            OUTPUT_RAB       0000005C R     03
FAB$M_DEL      = 00000004            FAB$V_ESC      = 0000001B            OUT_BUFF_LENGTH= 00000100
FAB$M_DFW      = 00000020            FAB$V_EXE      = 00000007            RAB$B_BID        00000000
FAB$M_DLT      = 00008000            FAB$V_FTN      = 00000000            RAB$B_BLN        00000001
FAB$M_DMO      = 00001000            FAB$V_GET      = 00000001            RAB$B_KRF        00000035
FAB$M_ESC      = 08000000            FAB$V_INP      = 00000013            RAB$B_KSZ        00000034
FAB$M_EXE      = 00000080            FAB$V_JNL      = 00000016            RAB$B_MBC        00000037
SHOW$MSG_UTIL   - MESSAGE PRINTING UTILITIES                     21-AUG-1978 19:21:32   VAX-11 MACRO X0.3-11               Page   9
SYMBOL TABLE                                                                                                                     (4)

RAB$B_MBF        00000036            RAB$V_BIO      = 0000000B            RMS$_BUG_XX8   = 0001847C
RAB$B_PSZ        00000034            RAB$V_CCO      = 0000001F            RMS$_BUG_XX9   = 00018484
RAB$B_RAC        0000001E            RAB$V_CVT      = 0000001A            RMS$_CAA       = 0001848C
RAB$B_ROP1       00000005            RAB$V_EOF      = 00000008            RMS$_CCF       = 0001C0DC
RAB$B_ROP2       00000006            RAB$V_FDL      = 00000006            RMS$_CCR       = 00018494
RAB$B_ROP3       00000007            RAB$V_HSH      = 00000007            RMS$_CDA       = 0001C0E4
RAB$B_TMO        0000001F            RAB$V_KGE      = 00000015            RMS$_CHG       = 0001849C
RAB$C_BID      = 00000001            RAB$V_KGT      = 00000016            RMS$_CHK       = 000184A4
RAB$C_BLN        00000044            RAB$V_LIM      = 0000000E            RMS$_CHN       = 0001C0EC
RAB$C_KEY      = 00000001            RAB$V_LOA      = 0000000D            RMS$_COD       = 000184AC
RAB$C_RFA      = 00000002            RAB$V_LOC      = 00000010            RMS$_CONTROLC  = 00010651
RAB$C_SEQ      = 00000000            RAB$V_MAS      = 00000005            RMS$_CONTROLO  = 00010609
RAB$K_BLN        00000044            RAB$V_NLK      = 00000014            RMS$_CONTROLY  = 00010611
RAB$L_BKT        00000038            RAB$V_NXR      = 00000017            RMS$_CRE       = 0001C00A
RAB$L_CTX        00000018            RAB$V_PMT      = 0000001E            RMS$_CREATED   = 00010619
RAB$L_DCT        00000038            RAB$V_PPF_IND  = 0000000E            RMS$_CUR       = 000184B4
RAB$L_FAB        0000003C            RAB$V_PPF_RAT  = 00000006            RMS$_DAC       = 0001C012
RAB$L_KBF        00000030            RAB$V_PTA      = 0000001D            RMS$_DAN       = 000184BC
RAB$L_PBF        00000030            RAB$V_RAH      = 00000009            RMS$_DEL       = 00018262
RAB$L_RBF        00000028            RAB$V_RLK      = 00000013            RMS$_DEV       = 000184C4
RAB$L_RFA0       00000010            RAB$V_RNE      = 00000018            RMS$_DIR       = 000184CC
RAB$L_RHB        0000002C            RAB$V_RNF      = 0000001B            RMS$_DME       = 000184D4
RAB$L_ROP        00000004            RAB$V_TMO      = 00000019            RMS$_DNA       = 000184DC
RAB$L_STS        00000008            RAB$V_TPT      = 00000001            RMS$_DNF       = 0001C04A
RAB$L_STV        0000000C            RAB$V_UIF      = 00000004            RMS$_DNR       = 00018272
RAB$L_UBF        00000024            RAB$V_ULK      = 00000012            RMS$_DPE       = 0001C03A
RAB$M_ASY      = 00000001            RAB$V_WAT      = 00000011            RMS$_DTP       = 000184E4
RAB$M_BIO      = 00000800            RAB$V_WBH      = 0000000A            RMS$_DUP       = 000184EC
RAB$M_CCO      = 80000000            RAB$W_ISI        00000002            RMS$_DVI       = 000184F4
RAB$M_CVT      = 04000000            RAB$W_RFA        00000010            RMS$_ENT       = 0001C01A
RAB$M_EOF      = 00000100            RAB$W_RFA4       00000014            RMS$_ENV       = 00018724
RAB$M_FDL      = 00000040            RAB$W_RSZ        00000022            RMS$_EOF       = 0001827A
RAB$M_HSH      = 00000080            RAB$W_USZ        00000020            RMS$_ESA       = 000184FC
RAB$M_KGE      = 00200000            RMS$V_STVSTATUS= 0000000E            RMS$_ESL       = 00018714
RAB$M_KGT      = 00400000            RMS$_ABO       = 000183EC            RMS$_ESS       = 00018504
RAB$M_LIM      = 00004000            RMS$_ACC       = 0001C002            RMS$_EXP       = 000182C2
RAB$M_LOA      = 00002000            RMS$_ACT       = 0001825A            RMS$_EXT       = 0001C022
RAB$M_LOC      = 00010000            RMS$_AID       = 000183F4            RMS$_FAB       = 0001850C
RAB$M_MAS      = 00000020            RMS$_ALN       = 000183FC            RMS$_FAC       = 00018514
RAB$M_NLK      = 00100000            RMS$_ALQ       = 00018404            RMS$_FEX       = 00018282
RAB$M_NXR      = 00800000            RMS$_ANI       = 0001840C            RMS$_FLG       = 0001851C
RAB$M_PMT      = 40000000            RMS$_AOP       = 00018414            RMS$_FLK       = 0001828A
RAB$M_PPF_IND  = 00004000            RMS$_ATR       = 0001C0CC            RMS$_FNA       = 00018524
RAB$M_PPF_RAT  = 00003FC0            RMS$_ATW       = 0001C0D4            RMS$_FND       = 0001C02A
RAB$M_PTA      = 20000000            RMS$_BKS       = 0001841C            RMS$_FNF       = 00018292
RAB$M_RAH      = 00000200            RMS$_BKZ       = 00018424            RMS$_FNM       = 0001852C
RAB$M_RLK      = 00080000            RMS$_BLN       = 0001842C            RMS$_FOP       = 0001853C
RAB$M_RNE      = 01000000            RMS$_BOF       = 00018198            RMS$_FSZ       = 00018534
RAB$M_RNF      = 08000000            RMS$_BUG       = 00018434            RMS$_FUL       = 00018544
RAB$M_TMO      = 02000000            RMS$_BUG_DAP   = 00018444            RMS$_IAL       = 0001854C
RAB$M_TPT      = 00000002            RMS$_BUG_DDI   = 0001843C            RMS$_IAN       = 00018554
RAB$M_UIF      = 00000010            RMS$_BUG_XX2   = 0001844C            RMS$_IBF       = 00018754
RAB$M_ULK      = 00040000            RMS$_BUG_XX3   = 00018454            RMS$_IDX       = 0001855C
RAB$M_WAT      = 00020000            RMS$_BUG_XX4   = 0001845C            RMS$_IFA       = 0001C124
RAB$M_WBH      = 00000400            RMS$_BUG_XX5   = 00018464            RMS$_IFI       = 00018564
RAB$S_PPF_RAT  = 00000008            RMS$_BUG_XX6   = 0001846C            RMS$_IMX       = 0001856C
RAB$V_ASY      = 00000000            RMS$_BUG_XX7   = 00018474            RMS$_IOP       = 00018574
SHOW$MSG_UTIL   - MESSAGE PRINTING UTILITIES                     21-AUG-1978 19:21:32   VAX-11 MACRO X0.3-11               Page  10
SYMBOL TABLE                                                                                                                     (4)

RMS$_IRC       = 0001857C            RMS$_RRV       = 00018684
RMS$_ISI       = 00018584            RMS$_RSA       = 000182DA
RMS$_KBF       = 0001858C            RMS$_RSL       = 0001873C
RMS$_KEY       = 00018594            RMS$_RSS       = 00018694
RMS$_KFF       = 00018031            RMS$_RST       = 0001869C
RMS$_KRF       = 0001859C            RMS$_RSZ       = 000186A4
RMS$_KSZ       = 000185A4            RMS$_RTB       = 000181A8
RMS$_LAN       = 000185AC            RMS$_SEQ       = 000186AC
RMS$_LBL       = 000185B4            RMS$_SHR       = 000186B4
RMS$_LNE       = 000185BC            RMS$_SIZ       = 000186BC
RMS$_LOC       = 000185C4            RMS$_SPL       = 0001C042
RMS$_MBC       = 00018734            RMS$_SQO       = 000186C4
RMS$_MKD       = 0001C032            RMS$_STALL     = 00018001
RMS$_MRN       = 000185CC            RMS$_STK       = 000186CC
RMS$_MRS       = 000185D4            RMS$_SUC       = 00010001
RMS$_NAM       = 000185DC            RMS$_SUP       = 000182D2
RMS$_NEF       = 000185E4            RMS$_SUPERSEDE = 00010631
RMS$_NET       = 0001874C            RMS$_SYN       = 000186D4
RMS$_NID       = 000185EC            RMS$_SYS       = 0001C10C
RMS$_NMF       = 000182CA            RMS$_TEMP1     = 0001826A
RMS$_NOD       = 000185F4            RMS$_TEMP2     = 0001868C
RMS$_NORMAL    = 00010001            RMS$_TMO       = 000181B0
RMS$_NPK       = 000185FC            RMS$_TRE       = 000186DC
RMS$_OK_ALK    = 00018039            RMS$_TYP       = 000186E4
RMS$_OK_DEL    = 00018041            RMS$_UBF       = 000186EC
RMS$_OK_DUP    = 00018011            RMS$_USZ       = 000186F4
RMS$_OK_IDX    = 00018019            RMS$_VER       = 000186FC
RMS$_OK_LIM    = 00018051            RMS$_VOL       = 00018704
RMS$_OK_RLK    = 00018021            RMS$_WBE       = 0001C12C
RMS$_OK_RNF    = 00018049            RMS$_WER       = 0001C114
RMS$_OK_RRV    = 00018029            RMS$_WLD       = 00018744
RMS$_ORD       = 00018604            RMS$_WLK       = 000182BA
RMS$_ORG       = 0001860C            RMS$_WPL       = 0001C11C
RMS$_PBF       = 00018614            RMS$_WSF       = 0001871C
RMS$_PENDING   = 00018009            RMS$_XAB       = 0001870C
RMS$_PLG       = 0001861C            RMS_STATUS       000000A0 R     03
RMS$_PLV       = 0001872C            SHOW$A_MSGTXT    ********   X   04
RMS$_POS       = 00018624            SHOW$GQ_OUT_DSC  000000A8 RG    03
RMS$_PRM       = 0001862C            SHOW$PRINT_LINE  0000004A RG    04
RMS$_PRV       = 0001829A            SHOW$PRINT_MSG   00000000 RG    04
RMS$_QUO       = 00018634            SYS$CONNECT      ********  GX   04
RMS$_RAB       = 0001863C            SYS$CREATE       ********  GX   04
RMS$_RAC       = 00018644            SYS$FAOL         ********   X   04
RMS$_RAT       = 0001864C            SYS$PUT          ********  GX   04
RMS$_RBF       = 00018654
RMS$_RER       = 0001C0F4
RMS$_REX       = 000182A2
RMS$_RFA       = 0001865C
RMS$_RFM       = 00018664
RMS$_RHB       = 0001866C
RMS$_RLF       = 00018674
RMS$_RLK       = 000182AA
RMS$_RMV       = 0001C0FC
RMS$_RNF       = 000182B2
RMS$_RNL       = 000181A0
RMS$_ROP       = 0001867C
RMS$_RPL       = 0001C104
SHOW$MSG_UTIL   - MESSAGE PRINTING UTILITIES                     21-AUG-1978 19:21:32   VAX-11 MACRO X0.3-11               Page  11
PROGRAM SECTION SYNOPSIS                                                                                                         (4)


PROGRAM SECTION SYNOPSIS

.  ABS  .        00000000      00     NOPIC   USR   CON   ABS   LCL NOSHR NOEXE NORD  NOWRT BYTE
. BLANK .        00000000      01     NOPIC   USR   CON   REL   LCL NOSHR   EXE   RD    WRT BYTE
$ABS$            00000050      02     NOPIC   USR   CON   ABS   LCL NOSHR   EXE   RD    WRT BYTE
SHOW$RWDATA      000001B0      03     NOPIC   USR   CON   REL   LCL NOSHR NOEXE   RD    WRT LONG
SHOW$CODE        00000086      04     NOPIC   USR   CON   REL   LCL NOSHR   EXE   RD  NOWRT BYTE


THERE WERE NO ERRORS OR WARNINGS.
11176. BYTES LEFT IN FREE MEMORY POOL.
1578. BYTES OF RECLAIMED MEMORY.
OBJ$:SHOMSGUTL,LIS$:SHOMSGUTL/-SP=EXECML$/ML,LIB$:CLIUTL/ML,SRC$:SHOMSGUTL
62 MLB DIR RDS - 848 GETS TO DEFINE 30 MACROS. 58 INTER. FILE WRITES.
