SHOW$MSG_TEXT   - MESSAGE TABLE TO SHOW UTILITY                  21-AUG-1978 19:20:57   VAX-11 MACRO X0.3-11               Page   0
TABLE OF CONTENTS

   (2)      42  DECLARATIONS
   (3)     135  MESSAGE DEFINITIONS
SHOW$MSG_TEXT   - MESSAGE TABLE TO SHOW UTILITY                  21-AUG-1978 19:20:57   VAX-11 MACRO X0.3-11               Page   1
X0101                                                                                                                            (1)

                                     0000     1 	.TITLE	SHOW$MSG_TEXT - MESSAGE TABLE TO SHOW UTILITY
                                     0000     2
                                     0000     3 	.IDENT	/X0101/
                                     0000     4
                                     0000     5 ;
                                     0000     6 ; COPYRIGHT (C) 1977
                                     0000     7 ; DIGITAL EQUIPMENT CORPORATION, MAYNARD, MASSACHUSETTS 01754
                                     0000     8 ;
                                     0000     9 ; THIS SOFTWARE IS FURNISHED  UNDER A LICENSE FOR USE ONLY ON A SINGLE
                                     0000    10 ; COMPUTER  SYSTEM AND  MAY BE  COPIED ONLY WITH  THE INCLUSION OF THE
                                     0000    11 ; ABOVE COPYRIGHT NOTICE.  THIS SOFTWARE, OR ANY OTHER COPIES THEREOF,
                                     0000    12 ; MAY NOT BE PROVIDED OR  OTHERWISE MADE AVAILABLE TO ANY OTHER PERSON
                                     0000    13 ; EXCEPT FOR USE ON SUCH SYSTEM AND TO ONE WHO AGREES TO THESE LICENSE
                                     0000    14 ; TERMS.  TITLE TO AND  OWNERSHIP OF THE  SOFTWARE  SHALL AT ALL TIMES
                                     0000    15 ; REMAIN IN DEC.
                                     0000    16 ;
                                     0000    17 ; THE INFORMATION IN THIS SOFTWARE IS SUBJECT TO CHANGE WITHOUT NOTICE
                                     0000    18 ; AND SHOULD  NOT BE CONSTRUED  AS A COMMITMENT  BY DIGITAL  EQUIPMENT
                                     0000    19 ; CORPORATION.
                                     0000    20 ;
                                     0000    21 ; DEC ASSUMES  NO  RESPONSIBILITY  FOR  THE USE OR  RELIABILITY OF ITS
                                     0000    22 ; SOFTWARE ON EQUIPMENT WHICH IS NOT SUPPLIED BY DEC.
                                     0000    23 ;
                                     0000    24
                                     0000    25 ;++
                                     0000    26 ; FACILITY:	DEFINES MESSAGE TEXT FOR SHOW UTILITY
                                     0000    27 ;
                                     0000    28 ; ABSTRACT:
                                     0000    29 ;
                                     0000    30 ;	This module defines the message table used by th SHOW utility
                                     0000    31 ;
                                     0000    32 ; ENVIRONMENT:
                                     0000    33 ;
                                     0000    34 ;	AUTHOR: BEATRICE U.WALTHER,	CREATION DATE:	10-OCT-1977
                                     0000    35 ;
                                     0000    36 ; MODIFIED BY:
                                     0000    37 ;
                                     0000    38 ;	, : VERSION
                                     0000    39 ; 01	-
                                     0000    40 ;--
SHOW$MSG_TEXT   - MESSAGE TABLE TO SHOW UTILITY                  21-AUG-1978 19:20:57   VAX-11 MACRO X0.3-11               Page   2
X0101           DECLARATIONS                                                                                                     (2)

                                     0000    42 	.SBTTL	DECLARATIONS
                                     0000    43
                                     0000    44 ;
                                     0000    45 ; INCLUDE FILES:
                                     0000    46 ;
                                     0000    47
                                     0000    48 ;
                                     0000    49 ; MACROS:
                                     0000    50 ;
                                     0000    51
                                     0000    52 ;
                                     0000    53 ; SHOW_DEFMS1 =	MACRO USED INTERNALLY BY SHOW_DEFMSG
                                     0000    54 ;
                                     0000    55
                                     0000    56 	.MACRO	SHOW_DEFMS1	MSG_CODE,TXTSTRING,MSG_PAR,?L1,?L2
                                     0000    57 $TXT_COUNT$=$TXT_COUNT$+1		; COUNT OF MESSAGES CREATED THIS CALL
                                     0000    58 $temp1$=0				; FAO PARAMETER COUNT, IF PRESENT
                                     0000    59 	.IIF	NB,MSG_PAR,$temp1$=MSG_PAR@2
                                     0000    60 $temp2$=$MSG_CONTINUE$			; CONTINUATION FLAG
                                     0000    61 	.IIF	NE,$TXT_COUNT$-1,$temp2$=1
                                     0000    62 	.LONG	L2-L1			; BUILD DESCRIPTOR TO FAO CONTROL STRING
                                     0000    63 	.LONG	L1			;
                                     0000    64 	.BYTE	MSG_CODE			; CODE ASSOCIATED WITH MESSAGE
                                     0000    65 	.BYTE	$temp2$			; CONTINUATION FLAG
                                     0000    66 	.BYTE	$temp1$			; NUMBER OF FAO PARAMETERS REQUIRED
                                     0000    67 	.BYTE	0			; UNUSED
                                     0000    68 	.SAVE
                                     0000    69 	.PSECT	SHOW$MSG_TEXT	BYTE,RD,NOWRT,NOEXE
                                     0000    70 L1:	.ASCII	&TXTSTRING&			; FAO CONTROL STRING FOR MESSAGE
                                     0000    71 L2:
                                     0000    72 	.RESTORE
                                     0000    73 	.ENDM	SHOW_DEFMS1
                                     0000    74
                                     0000    75 ;
                                     0000    76 ; COUNT_ARGS =		MACRO USED INTERNALLY BY SHOW_DEFMSG
                                     0000    77 ;
                                     0000    78
                                     0000    79 	.MACRO	COUNT_ARGS	D1,D2,D3,D4,D5,D6,D7,D8,D9,D10,D11,D12,D13,D14,D15,D16,D17,D18,D1
                                     0000    80 	.NARG	$TXT_NB$
                                     0000    81 	.ENDM	COUNT_ARGS
                                     0000    82
                                     0000    83 ;
                                     0000    84 ; SHOW_DEFMSG
                                     0000    85 ;
                                     0000    86 ;	THIS MACRO DEFINES A GLOBAL MESSAGE IDENTIFIER AND BUILDS ONE OR MORE
                                     0000    87 ;	MESSAGE TABLE ENTRIES, CONSISTING OF:
                                     0000    88 ;
                                     0000    89 ;	A 2 LONGWORDS DESCRIPTOR TO THE FAO CONTROL STRING OF THE
                                     0000    90 ;	MESSAGE, AND THE MESSAGE TEXT ITSELF.
                                     0000    91 ;
                                     0000    92 ;	ONE LONG WORD CONTAINING A CODE:
                                     0000    93 ;		BYTE 0:		0	= PRINT ON SYS$OUTPUT:
                                     0000    94 ;				1	= PRINT ONSYS$OUTPUT: AND SYS$ERROR:
                                     0000    95 ;		BYTE 1:		0	= LAST LINE OF MESSAGE
                                     0000    96 ;				1	= CONTINUATION LINE FOLLOWS
                                     0000    97 ;		BYTE 2:		LENGTH IN LONGWORDS OF FAO PARAMETER LIST FOR
                                     0000    98 ;				THIS LINE.
SHOW$MSG_TEXT   - MESSAGE TABLE TO SHOW UTILITY                  21-AUG-1978 19:20:57   VAX-11 MACRO X0.3-11               Page   3
X0101           DECLARATIONS                                                                                                     (2)

                                     0000    99 ;				( IGNORED IF CONTINUATION FLAG IS CLEAR)
                                     0000   100 ;
                                     0000   101
                                     0000   102 		.MACRO	SHOW_DEFMSG	MSG_ID,MSG_TEXT,MSG_CODE
                                     0000   103 	.IIF	NDF,$MSG_COUNT$,$MSG_COUNT$=0
                                     0000   104 ;***	.IF	DF,'MSG_ID'			; SYMBOL ALREADY DEFINED ?
                                     0000   105 ;***	.IFT
                                     0000   106 	MSG_ID == $MSG_COUNT$		; DEFINE MESSAGE IDENTIFICATION SYMBOL
                                     0000   107 	$MSG_CONTINUE$=0		; MESSAGE CONTINUATION FLAG
                                     0000   108 ;***	.IFF
                                     0000   109 ;***	$MSG_CONTINUE$=1
                                     0000   110 ;***	.ENDC
                                     0000   111 $TXT_COUNT$=0				; COUNT FOR MESSAGES GENERATED
                                     0000   112 	COUNT_ARGS	MSG_TEXT		; COUNT NUMBER OF LINES TO GENERATE
                                     0000   113 	.IRP	TXTARG,<MSG_TEXT>		; REPEAT FOR EACH TEXT STRING
                                     0000   114 	SHOW_DEFMS1	MSG_CODE,TXTARG	; GENERATE THE STRING
                                     0000   115 	.ENDR
                                     0000   116 $MSG_COUNT$=$MSG_COUNT$+$TXT_COUNT$
                                     0000   117 	.ENDM	SHOW_DEFMSG
                                     0000   118
                                     0000   119 ;
                                     0000   120 ; SHOW_DEFMSG_END =	GENERATES THE END OF THE MESSAGE TABLE
                                     0000   121 ;
                                     0000   122
                                     0000   123 	.MACRO	SHOW_DEFMSG_END
                                     0000   124 	.QUAD	0		; NULL DESCRIPTOR
                                     0000   125 	.LONG	0		; CONTINUATION FLAG CLEAR
                                     0000   126 	.ENDM	SHOW_DEFMSG_END
                                     0000   127
SHOW$MSG_TEXT   - MESSAGE TABLE TO SHOW UTILITY                  21-AUG-1978 19:20:57   VAX-11 MACRO X0.3-11               Page   4
X0101           DECLARATIONS                                                                                                     (3)

                                     0000   129 ;
                                     0000   130 ; EQUATED SYMBOLS:
                                     0000   131 ;
                                     0000   132 ;
                                     0000   133
                                     0000   134
                                     0000   135 	.SBTTL	MESSAGE DEFINITIONS
                                     0000   136
                                     0000   137 ;
                                     0000   138 ; OWN STORAGE:
                                     0000   139 ;
                                     0000   140
                                     0000   141
                                     0000   142 ;
                                     0000   143 ; DEFINE MESSAGE TABLE FOR SHOW COMMAND
                                     0000   144 ;
                                     0000   145
                                 00000000   146 	.PSECT	SHOW$MSG_TABLE	LONG,RD,NOWRT,NOEXE
                                     0000   147
                                     0000   148 	.WEAK	SHOW$A_MSGTXT
                                     0000   149 SHOW$A_MSGTXT:
                                     0000   150
                                     0000   151 	.ENABL	LSB
                                     0000   152 ;
                                     0000   153 ; SHOW WORKING_SET
                                     0000   154 ;
                                     0000   155
                                     0000   156 	SHOW_DEFMSG	SHOW$_WORKSET, -
                                     0000   157 <<<  Working Set      /Limit= !ZW!_/Quota= !ZW!_Authorized Quota= !ZW>>>,-
                                     0000   158 0
                                     000C   159
                                     000C   160 ;
                                     000C   161 ; unexpected error
                                     000C   162 ;
                                     000C   163
                                     000C   164 	SHOW_DEFMSG	SHOW$_STATUS, -
                                     000C   165 <<<  Unexpected error encountered :	 status code = !XL>>>,-
                                     000C   166 1
                                     0018   167
                                     0018   168
                                     0018   169
                                     0018   170
                                     0018   171 ;
                                     0018   172 ; invalid device name
                                     0018   173 ;
                                     0018   174
                                     0018   175 	SHOW_DEFMSG	SHOW$_IVDEVNAM, -
                                     0018   176 <<<  Invalid device name :	!AF>>>,-
                                     0018   177 1
                                     0024   178
                                     0024   179 ;
                                     0024   180 ; no such device
                                     0024   181 ;
                                     0024   182
                                     0024   183 	SHOW_DEFMSG	SHOW$_NOSUCHDEV,-
                                     0024   184 <<<  Sorry, no such device!_!AF>>>,-
                                     0024   185 1
SHOW$MSG_TEXT   - MESSAGE TABLE TO SHOW UTILITY                  21-AUG-1978 19:20:57   VAX-11 MACRO X0.3-11               Page   5
X0101           MESSAGE DEFINITIONS                                                                                              (3)

                                     0030   186
                                     0030   187 ;
                                     0030   188 ;   SHOW DEVICES /BRIEF
                                     0030   189 ;
                                     0030   190
                                     0030   191 	SHOW_DEFMSG	SHOW$_DEVBRITTL, -
                                     0030   192 <<<  List of Devices !_!_on!_!%D>>,-
                                     0030   193 <<  Device   Device      Device       Err.    Volume         Free  Trans Mount>>,-
                                     0030   194 <<  Name     Status  Characteristics Count     Label        Blocks Count Count>>,-
                                     0030   195 >,0
                                     0054   196 	SHOW_DEFMSG	SHOW$_DEVBRIVOL,-	; with volume information
                                     0054   197 <<<  !AC!UW:!AC!+!8AC!16AD!10(+)!5UW  !6(+)!12AF !9UL !3(+)!5UW !+!5UW>>>,0
                                     0060   198 	SHOW_DEFMSG	SHOW$_DEVBRINOV,-	; without volume information
                                     0060   199 <<<  !AC!UW:!AC!+!8AC!16AD!10(+)!5UW >>>,0
                                     006C   200 	SHOW_DEFMSG	SHOW$_DEVBRITAP,-	; volume info for magtape
                                     006C   201 <<<  !AC!UW:!AC!+!8AC!16AD!10(+)!5UW  !6(+)!12AF!4(+)!10* !5UW !+!5UW>>>,0
                                     0078   202
                                     0078   203 ;
                                     0078   204 ; SHOW DEVICES /FULL
                                     0078   205 ;
                                     0078   206
                                     0078   207 	SHOW_DEFMSG	SHOW$_DEVFULNOV,-
                                     0078   208 <<<!/!/  Device   !AC!UW:!+!_  !%D!/!/!_!AC>,5>,-
                                     0078   209 <<  !#(AC)!#(+)>,12>,-
                                     0078   210 <<    Error count          !9UW    Owner process id!_!_ !XL>,2>,-
                                     0078   211 <<    Operations completed !9UL    Owner process name!_ !AC>,2>,-
                                     0078   212 <<    Reference count      !9UL    Default buffer size!_ !8UW>,2>>,0
                                     00B4   213
                                     00B4   214 	SHOW_DEFMSG	SHOW$_DEVDEPTAP,-	; device dependant info for magtape
                                     00B4   215 <<<    Density          !9UW BPI>>>,0
                                     00C0   216
                                     00C0   217 	SHOW_DEFMSG	SHOW$_DEVFULVO1,-	; volume information part 1
                                     00C0   218 <<<!/    Volume label       !16AF Free blocks!_!_!9UL!+>,4>,-
                                     00C0   219 <<    Owner UIC          [!3OW,!3OW]   !_Transaction count!_!9UW>,3>,-
                                     00C0   220 <<    Volume protection  !XW!_!_Mount count!_!_!9UW>,2>>,0
                                     00E4   221
                                     00E4   222 	SHOW_DEFMSG	SHOW$_DEVFULVO2,-	; volume information part 2
                                     00E4   223 <<<    Volume status      !9AC!_Relative volume no.!_!9UW>,2>,-
                                     00E4   224 <<    ACP process name   !16AC!_Cluster size!_!_!9UW>,2>,-
                                     00E4   225 <<  !5(_)Max. files allowed!_!9UL>>>,0
                                     0108   226
                                     0108   227 	SHOW_DEFMSG	SHOW$_DEVFULTAP,-	; volume info for magtape
                                     0108   228 <<<!/    Volume label       !16AF!+!_Record size!_!_!9UW>,4>,-
                                     0108   229 <<    Owner UIC          [!3OW,!3OW]   !_Transaction count!_!9UW>,3>,-
                                     0108   230 <<    Volume protection  !XW!_!_Mount count!_!_!9UW>,2>,-
                                     0108   231 <<    !2(+)ACP process name   !16AC!2(-)!_Relative Volume No.!_!9UW>>>,0
                                     0138   232
                                     0138   233 ;
                                     0138   234 ; logical name and equivalent
                                     0138   235 ;
                                     0138   236
                                     0138   237 	SHOW_DEFMSG	SHOW$_logtran,-
                                     0138   238 <<<  !AC  =  !AC>>>,-
                                     0138   239 0
                                     0144   240 ;
                                     0144   241 ; logical name translation
                                     0144   242 ;
SHOW$MSG_TEXT   - MESSAGE TABLE TO SHOW UTILITY                  21-AUG-1978 19:20:57   VAX-11 MACRO X0.3-11               Page   6
X0101           MESSAGE DEFINITIONS                                                                                              (3)

                                     0144   243
                                     0144   244 	SHOW_DEFMSG	SHOW$_TRNLOG,-
                                     0144   245 <<<  !AS = !AS   (!AC)>>>,0
                                     0150   246
                                     0150   247 ;
                                     0150   248 ; logical name table empty
                                     0150   249 ;
                                     0150   250
                                     0150   251 	SHOW_DEFMSG	SHOW$_LOGEMPTY,	-
                                     0150   252 <<<  !AC  logical name table is empty>>>,0
                                     015C   253
                                     015C   254 ;
                                     015C   255 ; logical name table
                                     015C   256 ;
                                     015C   257
                                     015C   258
                                     015C   259 	SHOW_DEFMSG	SHOW$_LOGTTL,-
                                     015C   260 <<<!/  Contents of !AC logical name table :!/>>>,0
                                     0168   261
                                     0168   262
                                     0168   263 ;
                                     0168   264 ; no translation for logical name
                                     0168   265 ;
                                     0168   266
                                     0168   267 	SHOW_DEFMSG	SHOW$_NOTRAN,-
                                     0168   268 <<<  No translation for logical name!_!AF>>>,0
                                     0174   269
                                     0174   270 ;
                                     0174   271 ; show terminal output messages
                                     0174   272 ;
                                     0174   273 	SHOW_DEFMSG	SHOW$_TERM_L1,-
                                     0174   274 	<<<  !AC!ZW:	/!AC, WIDTH=!ZW, PAGE=!ZB, OWNER=!AD>>>,0
                                     0180   275 	SHOW_DEFMSG	SHOW$_TERM_L2,-
                                     0180   276 	<<<  !_SPEED=(!ZW,!ZW), CRFILL=!ZB, LFFILL=!ZB, !AC PARITY>>>,0
                                     018C   277 	SHOW_DEFMSG	SHOW$_TERM_L3,-
                                     018C   278 	<<<!_!AC!AC!AC!AC!AC!AC!/!_!AC!AC!AC!AC!AC!AC!/!_!AC!AC!AC>>>
                                     0198   279 ;
                                     0198   280 ; SHOW PROCESS	header information
                                     0198   281 ;
                                     0198   282
                                     0198   283 	SHOW_DEFMSG	SHOW$_PROCHDRI,	-
                                     0198   284 	<<<!/  !%D!_   !AF!_User : !AF>>>,0
                                     01A4   285
                                     01A4   286 ;
                                     01A4   287 ; SHOW PROCESS default information
                                     01A4   288 ;
                                     01A4   289
                                     01A4   290 	SHOW_DEFMSG	SHOW$_PROCDEFA,-
                                     01A4   291 <<<  Pid : !XL   Proc. name : !16AFUIC  : [!3OW,!3OW]>,5>,-
                                     01A4   292 <<  Priority : !3UB   Default file spec. :    !AF!AC>>,-
                                     01A4   293 >,0
                                     01BC   294 	SHOW_DEFMSG	SHOW$_DEVALL,-
                                     01BC   295 <<<!/  Devices allocated : !#(AF)>>>,0
                                     01C8   296 	SHOW_DEFMSG	SHOW$_DEVMOU,-
                                     01C8   297 <<<!/  Devices mounted :   !#(AF)>>>,0
                                     01D4   298 	SHOW_DEFMSG	SHOW$_DEVLIS,-
                                     01D4   299 <<  <!_!_      !#(AF)>>>,0
SHOW$MSG_TEXT   - MESSAGE TABLE TO SHOW UTILITY                  21-AUG-1978 19:20:57   VAX-11 MACRO X0.3-11               Page   7
X0101           MESSAGE DEFINITIONS                                                                                              (3)

                                     01E0   300
                                     01E0   301 ;
                                     01E0   302 ; SHOW PROCESS/QUOTA
                                     01E0   303 ;
                                     01E0   304
                                     01E0   305 	SHOW_DEFMSG	SHOW$_PROCQUOT1,-
                                     01E0   306 <<<!/  Process Quotas:!/>>,-
                                     01E0   307 <<    Account name: !AF>,2>,-
                                     01E0   308 >,0
                                     01F8   309 	SHOW_DEFMSG	SHOW$_PROCQUOT2,-
                                     01F8   310 <<<    CPU limit :!_!_    !%D    Direct I/ O limit :!9UL>,2>,-
                                     01F8   311 <<    Buffered I/O byte count quota :!9UL    Buffered I/O limit:!9UL>,2>,-
                                     01F8   312 <<    Timer queue entry quota :!_   !9UL    Open file quota :  !9UL>,2>,-
                                     01F8   313 <<    Paging file quota :!_!_   !9UL    Subprocess quota : !9UL>,2>,-
                                     01F8   314 <<    Default page fault cluster :   !9UL    AST limit :!_   !9UL>,2>,-
                                     01F8   315 >,0
                                     0234   316
                                     0234   317 ;
                                     0234   318 ; SHOW PROCESS/ACCOUNTING
                                     0234   319 ;
                                     0234   320
                                     0234   321 	SHOW_DEFMSG	SHOW$_PROCACCO,-
                                     0234   322 <<<!/  Accounting information:!/>>,-
                                     0234   323 <<    Buffered I/O count : !9UL!_  Peak working set size :  !9UL>,2>,-
                                     0234   324 <<    Direct I/O count :   !9UL!_  Peak virtual size :      !9UL>,2>,-
                                     0234   325 <<    Page faults :        !9UL!_  Mounted volumes :        !9UL>,2>,-
                                     0234   326 <<    Elapsed CPU time :   !%D!/    Connect time :       !+!%D>>,-
                                     0234   327 >,0
                                     0270   328
                                     0270   329 ;
                                     0270   330 ; SHOW PROCESS/PRIVILEGES
                                     0270   331 ;
                                     0270   332
                                     0270   333 	SHOW_DEFMSG	SHOW$_PROCPRI,-
                                     0270   334 <<<!/  Process privileges :!/>>>,0
                                     027C   335
                                     027C   336 	SHOW_DEFMSG	SHOW$_PRIV_TEXT,-
                                     027C   337 <<<    !AC   !_!AC>>>,0
                                     0288   338
                                     0288   339 ;
                                     0288   340 ; SHOW PROCESS/SUBPROCESSES
                                     0288   341 ;
                                     0288   342
                                     0288   343 	SHOW_DEFMSG	SHOW$_PROCSUBP,-
                                     0288   344 <<<!/  Subprocesses owned :!/>>>,0
                                     0294   345
                                     0294   346
                                     0294   347 ;
                                     0294   348 ; SHOW SYSTEM/PROCESSES
                                     0294   349 ;
                                     0294   350
                                     0294   351 	SHOW_DEFMSG	SHOW$_SYSTTL,-
                                     0294   352 <<<    VAX/VMS  Processes on!_  !%D>,1>,-
                                     0294   353 <<    Pid    Process Name     UIC  State Pri Dir. I/O    CPU     Page flts Ph.Mem>>>
                                     02AC   354 	SHOW_DEFMSG	SHOW$_SYSPRES,-
                                     02AC   355 <<<  !8XL !15AC!3OW,!3OW !5AC!3UB!9UL !%T!9UL!5UW !+!AC!AC!AC>>>,0
                                     02B8   356 	SHOW_DEFMSG	SHOW$_SYSPNRS,-
SHOW$MSG_TEXT   - MESSAGE TABLE TO SHOW UTILITY                  21-AUG-1978 19:20:57   VAX-11 MACRO X0.3-11               Page   8
X0101           MESSAGE DEFINITIONS                                                                                              (3)

                                     02B8   357 <<<  !8XL !15AC!3OW,!3OW !5AC!3UB!3(+)      --  swapped  out  --    !5UW !+!AC!AC!AC
                                     02C4   358
                                     02C4   359 ;
                                     02C4   360 ; SHOW PRINTER
                                     02C4   361 ;
                                     02C4   362 	SHOW_DEFMSG	SHOW$_PRINT_L1,-
                                     02C4   363 	<<<  !AC!ZW:	!AC, WIDTH=!ZW, PAGE=!ZB, !AC!AC!AC>>>,0
                                     02D0   364 	SHOW_DEFMSG	SHOW$_ACSTRING,-
                                     02D0   365 <<<    !AC>>>,0
                                     02DC   366
                                     02DC   367 ;
                                     02DC   368 ; SHOW MAGTAPE
                                     02DC   369 ;
                                     02DC   370 	SHOW_DEFMSG	SHOW$_MAGT_L1,-
                                     02DC   371 	<<<  !AC!ZW:	!AC, DENSITY=!AC, FORMAT=!AC!/	!AC!AC!AC!AC!AC!AC Parity>>>,0
                                     02E8   372 	SHOW_DEFMSG	SHOW$_ACSTRING,-
                                     02E8   373 <<<    !AC>>>,0
                                     02F4   374
                                     02F4   375 ;
                                     02F4   376 ; SHOW RMS DEFAULTS
                                     02F4   377 ;
                                     02F4   378 	SHOW_DEFMSG	SHOW$_RMSHDR,-
                                     02F4   379 <<<	  MULTI-  |	      MULTI-BUFFER COUNTS>>,-
                                     02F4   380 <<	  BLOCK   | Indexed  Relative		Sequential>>,-
                                     02F4   381 <<	  COUNT	  |			Disk   Magtape  Unit Record>>>,0
                                     0318   382
                                     0318   383 	SHOW_DEFMSG	SHOW$_RMSVALS,-
                                     0318   384 <<<Process  !4SB	  | !4SB      !4SB     !4SB    !4SB     !4SB>,6>,-
                                     0318   385 <<System   !4SB     | !4SB      !4SB     !4SB    !4SB     !4SB>,6>>,0
                                     0330   386 ;
                                     0330   387 ;SHOW NETWORK
                                     0330   388 ;
                                     0330   389
                                     0330   390     SHOW_DEFMSG	SHOW$_NET,-
                                     0330   391 	<<<!/!_NETWORK STATUS AS OF !%D>,1>,-
                                     0330   392 	<<!/!_!_LOCAL NODE NAME: !AC>,1>,-
                                     0330   393 	<<!_!_NUMBER: !UL>,1>,-
                                     0330   394 	<<!_!_STATE: !AC>,1>>,0
                                     0360   395     SHOW_DEFMSG SHOW$_NET_NONE,-
                                     0360   396 	<<<!/!_!_NETWORK UNAVAILABLE>>>,0
                                     036C   397     SHOW_DEFMSG SHOW$_NET_PATH,-
                                     036C   398 	<<<!_!_!AC!_!AD>>>,0
                                     0378   399     SHOW_DEFMSG SHOW$_NET_NORMT,-
                                     0378   400 	<<<!/!_NO REMOTES ACCESSIBLE>>>,0
                                     0384   401     SHOW_DEFMSG SHOW$_NET_RMTHD,-
                                     0384   402 	<<<!/!_!_NODE!_LINE>>>,0
                                     0390   403     SHOW_DEFMSG SHOW$_TTLP_SPL,-
                                     0390   404 	<<<  Device spooled to !AD!ZW:>>>,0
SHOW$MSG_TEXT   - MESSAGE TABLE TO SHOW UTILITY                  21-AUG-1978 19:20:57   VAX-11 MACRO X0.3-11               Page   9
X0101           MESSAGE DEFINITIONS                                                                                              (5)

                                     039C   406
                                     039C   407 ;
                                     039C   408 ; end of message table
                                     039C   409 ;
                                     039C   410
                                     039C   411 	SHOW_DEFMSG_END
                                     03A8   412 	.END
SHOW$MSG_TEXT   - MESSAGE TABLE TO SHOW UTILITY                  21-AUG-1978 19:20:57   VAX-11 MACRO X0.3-11               Page  10
SYMBOL TABLE                                                                                                                     (5)

$MSG_CONTINUE$ = 00000000
$MSG_COUNT$    = 0000004D
$TEMP1$        = 00000000
$TEMP2$        = 00000000
$TXT_COUNT$    = 00000001
$TXT_NB$       = 00000001
SHOW$A_MSGTXT    00000000WRG    02
SHOW$_ACSTRING = 0000003E  G
SHOW$_DEVALL   = 00000025  G
SHOW$_DEVBRINOV= 00000008  G
SHOW$_DEVBRITAP= 00000009  G
SHOW$_DEVBRITTL= 00000004  G
SHOW$_DEVBRIVOL= 00000007  G
SHOW$_DEVDEPTAP= 0000000F  G
SHOW$_DEVFULNOV= 0000000A  G
SHOW$_DEVFULTAP= 00000016  G
SHOW$_DEVFULVO1= 00000010  G
SHOW$_DEVFULVO2= 00000013  G
SHOW$_DEVLIS   = 00000027  G
SHOW$_DEVMOU   = 00000026  G
SHOW$_IVDEVNAM = 00000002  G
SHOW$_LOGEMPTY = 0000001C  G
SHOW$_LOGTRAN  = 0000001A  G
SHOW$_LOGTTL   = 0000001D  G
SHOW$_MAGT_L1  = 0000003D  G
SHOW$_NET      = 00000044  G
SHOW$_NET_NONE = 00000048  G
SHOW$_NET_NORMT= 0000004A  G
SHOW$_NET_PATH = 00000049  G
SHOW$_NET_RMTHD= 0000004B  G
SHOW$_NOSUCHDEV= 00000003  G
SHOW$_NOTRAN   = 0000001E  G
SHOW$_PRINT_L1 = 0000003B  G
SHOW$_PRIV_TEXT= 00000035  G
SHOW$_PROCACCO = 0000002F  G
SHOW$_PROCDEFA = 00000023  G
SHOW$_PROCHDRI = 00000022  G
SHOW$_PROCPRI  = 00000034  G
SHOW$_PROCQUOT1= 00000028  G
SHOW$_PROCQUOT2= 0000002A  G
SHOW$_PROCSUBP = 00000036  G
SHOW$_RMSHDR   = 0000003F  G
SHOW$_RMSVALS  = 00000042  G
SHOW$_STATUS   = 00000001  G
SHOW$_SYSPNRS  = 0000003A  G
SHOW$_SYSPRES  = 00000039  G
SHOW$_SYSTTL   = 00000037  G
SHOW$_TERM_L1  = 0000001F  G
SHOW$_TERM_L2  = 00000020  G
SHOW$_TERM_L3  = 00000021  G
SHOW$_TRNLOG   = 0000001B  G
SHOW$_TTLP_SPL = 0000004C  G
SHOW$_WORKSET  = 00000000  G


PROGRAM SECTION SYNOPSIS

SHOW$MSG_TEXT   - MESSAGE TABLE TO SHOW UTILITY                  21-AUG-1978 19:20:57   VAX-11 MACRO X0.3-11               Page  11
PROGRAM SECTION SYNOPSIS                                                                                                         (5)

.  ABS  .        00000000      00     NOPIC   USR   CON   ABS   LCL NOSHR NOEXE NORD  NOWRT BYTE
. BLANK .        00000000      01     NOPIC   USR   CON   REL   LCL NOSHR   EXE   RD    WRT BYTE
SHOW$MSG_TABLE   000003A8      02     NOPIC   USR   CON   REL   LCL NOSHR NOEXE   RD  NOWRT LONG
SHOW$MSG_TEXT    00000CE6      03     NOPIC   USR   CON   REL   LCL NOSHR NOEXE   RD  NOWRT BYTE


THERE WERE NO ERRORS OR WARNINGS.
23402. BYTES LEFT IN FREE MEMORY POOL.
OBJ$:SHOMSGTXT,LIS$:SHOMSGTXT/-SP=EXECML$/ML,LIB$:CLIUTL/ML,SRC$:SHOMSGTXT
0 MLB DIR RDS - 0 GETS TO DEFINE 0 MACROS. 38 INTER. FILE WRITES.
