SHOWPRINT       - SHOW CHARACTERISTICS OF A PRINTER              21-AUG-1978 19:27:46   VAX-11 MACRO X0.3-11               Page   1
X01                                                                                                                              (1)

                                     0000     1 	.TITLE	SHOWPRINT - SHOW CHARACTERISTICS OF A PRINTER
                                     0000     2 	.IDENT	/X01/
                                     0000     3
                                     0000     4 ;
                                     0000     5 ; COPYRIGHT (C) 1977
                                     0000     6 ; DIGITAL EQUIPMENT CORPORATION, MAYNARD, MASSACHUSETTS 01754
                                     0000     7 ;
                                     0000     8 ; THIS SOFTWARE IS FURNISHED  UNDER A LICENSE FOR USE ONLY ON A SINGLE
                                     0000     9 ; COMPUTER  SYSTEM AND  MAY BE  COPIED ONLY WITH  THE INCLUSION OF THE
                                     0000    10 ; ABOVE COPYRIGHT NOTICE.  THIS SOFTWARE, OR ANY OTHER COPIES THEREOF,
                                     0000    11 ; MAY NOT BE PROVIDED OR  OTHERWISE MADE AVAILABLE TO ANY OTHER PERSON
                                     0000    12 ; EXCEPT FOR USE ON SUCH SYSTEM AND TO ONE WHO AGREES TO THESE LICENSE
                                     0000    13 ; TERMS.  TITLE TO AND  OWNERSHIP OF THE  SOFTWARE  SHALL AT ALL TIMES
                                     0000    14 ; REMAIN IN DEC.
                                     0000    15 ;
                                     0000    16 ; THE INFORMATION IN THIS SOFTWARE IS SUBJECT TO CHANGE WITHOUT NOTICE
                                     0000    17 ; AND SHOULD  NOT BE CONSTRUED  AS A COMMITMENT  BY DIGITAL  EQUIPMENT
                                     0000    18 ; CORPORATION.
                                     0000    19 ;
                                     0000    20 ; DEC ASSUMES  NO  RESPONSIBILITY  FOR  THE USE OR  RELIABILITY OF ITS
                                     0000    21 ; SOFTWARE ON EQUIPMENT WHICH IS NOT SUPPLIED BY DEC.
                                     0000    22 ;
                                     0000    23
                                     0000    24 ;++
                                     0000    25 ; FACILITY:	CLI UTILITY "SHOW"
                                     0000    26 ;
                                     0000    27 ; ABSTRACT:	SHOW THE CHARACTERISTICS OF A PRINTER
                                     0000    28 ;
                                     0000    29 ; AUTHOR:	R.HEINEN 21-NOV-1977
                                     0000    30 ;--
                                     0000    31 ;
                                     0000    32 ; LOCAL MACROS
                                     0000    33 ;
                                     0000    34 	.MACRO	CALLBAK	P1,P2
                                     0000    35 	.IF B <P2>
                                     0000    36 	PUSHAB	W^BITS			; ADDRESS OF BIT MASK
                                     0000    37 	.IFF
                                     0000    38 	PUSHAB	P2			; ADDRESS OF THIRD ARGUEMENT
                                     0000    39 	.ENDC
                                     0000    40 	PUSHAB	W^SHOW$A_CLIWORK	; COMMON WORK AREA
                                     0000    41 	PUSHAB	P1			; THE REQUEST DESCRIPTOR
                                     0000    42 	CALLS	#3,@CLI$A_UTILSERV(AP)	; REQUEST THE SERVICE OF THE CLI
                                     0000    43 	.ENDM				;
                                     0000    44
                                     0000    45 ;
                                     0000    46 ; EXTERNAL SYMBOLS
                                     0000    47 ;
                                     0000    48 	$DEVDEF				; DEFINE DEVICE CHARACTERISTICS
                                     0000    49 	$LPDEF				; DEFINE TERMINAL CHARACTERISTICS
                                     0000    50 ;
                                     0000    51 ; LOCAL STORAGE
                                     0000    52 ;
                                 00000000    53 	.PSECT	SHOW$RWDATA,NOEXE,LONG
                                     0000    54
                                     0000    55 ;
                                     0000    56 ; STORAGE
                                     0000    57 ;
SHOWPRINT       - SHOW CHARACTERISTICS OF A PRINTER              21-AUG-1978 19:27:46   VAX-11 MACRO X0.3-11               Page   2
X01                                                                                                                              (1)

                           00000000  0000    58 CHAN:		.LONG	0		; CHANNEL NUMBER
                           00000000  0004    59 BITS:		.LONG	0		; STORAGE FOR CLI CALL BACK
                  00000000 00000000  0008    60 UTIL_DESC:	.LONG	0,0		; UTILITY DESC
                           00000030  0010    61 GET_CHAN_INFO:	.LONG	48
                           00000018' 0014    62 		.LONG	CHAN_INFO-4
                           00000000  0018    63 		.LONG	0
                           0000004C  001C    64 CHAN_INFO:	.BLKL	12
                                     004C    65 ;
                                     004C    66 CHAR_LIST:	.REPT	8
                                     004C    67 		.LONG	NULL_STR
                                     004C    68 		.ENDR
                                 00  006C    69 NULL_STR:	.BYTE	0
                                     006D    70 ;
                                     006D    71 ; POSSIBLE SPOOLED DEVICE CHARACTERISTICS
                                     006D    72 ;
                           00000030  006D    73 SPOOL_DEV:	.LONG	48
                           00000075' 0071    74 		.LONG	10$
                           000000B5  0075    75 10$:		.BLKL	16
                                     00B5    76 ;
                                     00B5    77 ; READ ONLY DATA
                                     00B5    78 ;
                                 00000000    79 	.PSECT	SHOW$RDATA,NOEXE,LONG
                                     0000    80
                                     0000    81 LP_NAME:
                                     0000    82 	$CLIREQDESC	RQTYPE=CLI$K_INPUT1	; GET THE INPUT OR PRINTER NAME
                                     001C    83 ;
                                     001C    84 ; TYPE NAMES
                                     001C    85 ;
                                     001C    86 TYPE_NAME:
0000003E'00000039'00000034'0000002C' 001C    87 	.LONG	1$,2$,3$,4$
            4E 57 4F 4E 4B 4E 55 00' 002C    88 1$:	.ASCIC	/UNKNOWN/
                                 07  002C
                     31 31 50 4C 00' 0034    89 2$:	.ASCIC	/LP11/
                                 04  0034
                     31 31 41 4C 00' 0039    90 3$:	.ASCIC	/LA11/
                                 04  0039
                  30 38 31 41 4C 00' 003E    91 4$:	.ASCIC	/LA180/
                                 05  003E
                                     0044    92 ;
                                     0044    93 ; POSITIVE CHARACTERISTIC STRINGS
                                     0044    94 ;
                     20 2C 52 43 00' 0044    95 P_CR:	.ASCIC	/CR, /
                                 04  0044
                     20 2C 46 46 00' 0049    96 P_FF:	.ASCIC	/FF, /
                                 04  0049
      45 53 41 43 52 45 57 4F 4C 00' 004E    97 P_LOWE:	.ASCIC	/LOWERCASE/
                                 09  004E
                                     0058    98 ;
                                     0058    99 ; NEGITIVE CHARACTERISTIC STRINGS
                                     0058   100 ;
               20 2C 52 43 4F 4E 00' 0058   101 N_CR:	.ASCIC	/NOCR, /
                                 06  0058
               20 2C 46 46 4F 4E 00' 005F   102 N_FF:	.ASCIC	/NOFF, /
                                 06  005F
      45 53 41 43 52 45 50 50 55 00' 0066   103 N_LOWE:	.ASCIC	/UPPERCASE/
                                 09  0066
SHOWPRINT       - SHOW CHARACTERISTICS OF A PRINTER              21-AUG-1978 19:27:46   VAX-11 MACRO X0.3-11               Page   3
X01                                                                                                                              (2)

                                 00000000   105 	.PSECT	SHOW$CODE,NOWRT
                                     0000   106 ;++
                                     0000   107 ; SHOW$PRINT - SHOW PRINTER CHARACTERISTICS
                                     0000   108 ;
                                     0000   109 ; FUNCTIONAL DESCRIPTION:
                                     0000   110 ;
                                     0000   111 ; THIS ROUTINE SHOWS THE CHARACTERISTICS OF A SPECIFIED PRINTER.
                                     0000   112 ; IT IS ENTERED AS A RESULT OF A DISPATCH FROM THE SHOW COMMAND PROCESSOR.
                                     0000   113 ;
                                     0000   114 ; INPUTS:
                                     0000   115 ;
                                     0000   116 ;	THE CLI DATA BASE IS SET UP.
                                     0000   117 ;
                                     0000   118 ; OUTPUTS:
                                     0000   119 ;
                                     0000   120 ;	R0 = STATUS OF THE OPERATION
                                     0000   121 ;--
                                     0000   122 SHOW$PRINT::				; SHOW PRINTER COMMAND
                               03FC  0000   123 	.WORD	^M<R2,R3,R4,R5,R6,R7,R8,R9>
            56       0000'CF     9E  0002   124 	MOVAB	W^LP_NAME,R6		; ADDRESS QUAL DESC
                                     0007   125 	CALLBAK	(R6)			; CALL CLI FOR TERMINAL NAME
            56         08 A6     9E  0015   126 	MOVAB	CLI$Q_RQDESC(R6),R6	; ADDRESS NAME DESC
                                     0019   127 	$GETDEV_S	(R6),,W^SPOOL_DEV,,W^GET_CHAN_INFO; GET THE DEVICE INFO
            1A            50     E8  002E   128 	BLBS	R0,PRINT
                                     0031   129 ;
                                     0031   130 ; ERROR IN GETTING CHARACTERISTICS
                                     0031   131 ;
       004C'CF            50     D0  0031   132 ERROR:	MOVL	R0,W^CHAR_LIST		; SAVE STATUS FOR MESSAGE
       0000'CF            50     D0  0036   133 	MOVL	R0,W^SHOW$L_STATUS	; SAVE FOR EXIT STATUS
                 00000000'8F     DD  003B   134 	PUSHL	#SHOW$_STATUS
                     004C'CF     DF  0041   135 	PUSHAL	W^CHAR_LIST
       0000'CF            02     FB  0045   136 	CALLS	#2,W^SHOW$PRINT_MSG	; OUTPUT MESSAGE
                                 04  004A   137 	RET				; RETURN
                                     004B   138 ;
                                     004B   139 ; OUTPUT CHARACTERISTICS
                                     004B   140 ;
                                     004B   141 PRINT:					;
                          00'    DD  004B   142 	PUSHL	S^#SHOW$_PRINT_L1	; SET UP TO OUTPUT MESSAGE
                     004C'CF     9F  004D   143 	PUSHAB	W^CHAR_LIST		;
            56            6E     D0  0051   144 	MOVL	(SP),R6			; ADDRESS LIST
                                     0054   145 ;
                                     0054   146 ; OUTPUT NAME, TYPE, WIDTH ,PAGE SIZE AND CHARACTERISTICS
                                     0054   147 ;
            52       0024'CF     9E  0054   148 	MOVAB	W^CHAN_INFO+8,R2	; ADDRESS CHARACTERISTICS
            50            82     3C  0059   149 	MOVZWL	(R2)+,R0		; GET NAME AND UNIT
            52            62     9A  005C   150 	MOVZBL	(R2),R2			; GET OFFSET TO NAME
            86       0018'CF42   9E  005F   151 	MOVAB	W^CHAN_INFO-4[R2],(R6)+	; ADDRESS NAME
            86            50     D0  0065   152 	MOVL	R0,(R6)+		; INSERT UNIT
                          54     D4  0068   153 	CLRL	R4			; ASSUME UNKNOWN
            03       001D'CF     91  006A   154 	CMPB	W^CHAN_INFO+1,#LP$_LA180; IN RANGE?
                          05     1A  006F   155 	BGTRU	10$
            54       001D'CF     9A  0071   156  	MOVZBL	W^CHAN_INFO+1,R4	; GET TYPE VALUE
            86       001C'CF44   D0  0076   157 10$:	MOVL	W^TYPE_NAME[R4],(R6)+	; ADDRESS TYPE
            86       001E'CF     3C  007C   158 	MOVZWL	W^CHAN_INFO+2,(R6)+	; INSERT WIDTH
            86       0023'CF     9A  0081   159 	MOVZBL	W^CHAN_INFO+7,(R6)+	; INSERT PAGE SIZE
            66       0044'CF     9E  0086   160 	MOVAB	W^P_CR,(R6)		; ASSUME POSITIVE CR
       0020'CF            00     E0  008B   161 	BBS	#LP$V_CR,W^CHAN_INFO+4,30$; BR IF TRUE
SHOWPRINT       - SHOW CHARACTERISTICS OF A PRINTER              21-AUG-1978 19:27:46   VAX-11 MACRO X0.3-11               Page   4
X01                                                                                                                              (2)

                          05         0090
            66       0058'CF     9E  0091   162 	MOVAB	W^N_CR,(R6)		;
                          86     D5  0096   163 30$:	TSTL	(R6)+
            66       0049'CF     9E  0098   164 	MOVAB	W^P_FF,(R6)		; ASSUME POSITIVE FF
       0020'CF            01     E0  009D   165 	BBS	#LP$V_MECHFORM,W^CHAN_INFO+4,40$; BR IF TRUE
                          05         00A2
            66       005F'CF     9E  00A3   166 	MOVAB	W^N_FF,(R6)		;
                          86     D5  00A8   167 40$:	TSTL	(R6)+
            66       004E'CF     9E  00AA   168 	MOVAB	W^P_LOWE,(R6)		; ASSUME POSITIVE LOWE
       0020'CF            07     E0  00AF   169 	BBS	#LP$V_LOWER,W^CHAN_INFO+4,50$; BR IF TRUE
                          05         00B4
            66       0066'CF     9E  00B5   170 	MOVAB	W^N_LOWE,(R6)		;
       0000'CF            02     FB  00BA   171 50$:	CALLS	#2,W^SHOW$PRINT_MSG
       0018'CF            06     E1  00BF   172 	BBC	#DEV$V_SPL,W^CHAN_INFO-4,75$; BR IF NOT SPOOLED DEVICE
                          2B         00C4
            50       0083'CF     3C  00C5   173 	MOVZWL	W^SPOOL_DEV+8+14,R0	; GET OFFSET TO NAME
            50       0075'CF40   9E  00CA   174 	MOVAB	W^SPOOL_DEV+8[R0],R0	; INSERT ADDRESS OF NAME
       004C'CF            80     9A  00D0   175 	MOVZBL	(R0)+,W^CHAR_LIST	; INSERT NAME SIZE
       0050'CF            50     D0  00D5   176 	MOVL	R0,W^CHAR_LIST+4	; INSERT ADDRESS
       0054'CF       0081'CF     3C  00DA   177 	MOVZWL	W^SPOOL_DEV+8+12,W^CHAR_LIST+8; INSERT UNITNUMBER
                 00000000'8F     DD  00E1   178 	PUSHL	#SHOW$_TTLP_SPL		; OUTPUT MESSAGE
                     004C'CF     9F  00E7   179 	PUSHAB	W^CHAR_LIST		;
       0000'CF            02     FB  00EB   180 	CALLS	#2,W^SHOW$PRINT_MSG
                                 04  00F0   181 75$:	RET
                                     00F1   182 	.END
SHOWPRINT       - SHOW CHARACTERISTICS OF A PRINTER              21-AUG-1978 19:27:46   VAX-11 MACRO X0.3-11               Page   5
SYMBOL TABLE                                                                                                                     (2)

$CLI.          = 00000000 R     04   CLI$K_QDBITS     00000014            CLI$V_PARMREQ  = 00000000
$CLI..         = 0000001C R     04   CLI$K_QUALDEF    00000014            CLI$V_PRITYP   = 00000004
BIT...         = 00000045            CLI$K_REQDESC    0000001C            CLI$V_QDEXPA   = 00000002
BITS             00000004 R     03   CLI$K_UTILOPR  = 00000000            CLI$V_QDUSRV   = 00000001
CHAN             00000000 R     03   CLI$K_VALCONV  = 00000004            CLI$V_QUALEXP  = 00000001
CHAN_INFO        0000001C R     03   CLI$K_WORKAREA   00000080            CLI$V_QUALTRU  = 00000000
CHAR_LIST        0000004C R     03   CLI$L_CLIFLAG    00000018            CLI$V_SUBTYP   = 00000000
CLI$A_ABSACT     00000014            CLI$L_INIARGCNT  00000000            CLI$V_TRMVRBLV = 00000008
CLI$A_ERRACT     00000004            CLI$L_LINKFLAG   00000014            CLI$V_VERIFY   = 00000002
CLI$A_FLSACT     00000010            CLI$L_RQVALU     0000000C            CLI$V_VFYINP   = 00000005
CLI$A_IMGFILED   00000010            CLI$L_USRVAL     00000014            CLI$W_QDVALSIZ   00000004
CLI$A_IMGHDADR   0000000C            CLI$L_WORKAREA   00000000            CLI$W_RQSIZE     00000008
CLI$A_PROGXFER   00000004            CLI$M_ABSADR   = 00000002            CLI$W_SERVCOD    00000001
CLI$A_PRSACT     00000010            CLI$M_ALLOCCUR = 00000001            DEV$M_ALL      = 00800000
CLI$A_QDVALADR   00000008            CLI$M_BATCH    = 00000008            DEV$M_AVL      = 00040000
CLI$A_QUALST     00000018            CLI$M_CONCATINP= 00000002            DEV$M_CCL      = 00000002
CLI$A_RQADDR     0000000C            CLI$M_DBGEXCP  = 00010000            DEV$M_DIR      = 00000008
CLI$A_TRUACT     0000000C            CLI$M_DBGTRU   = 00000002            DEV$M_DMT      = 00200000
CLI$A_UTILSERV   00000008            CLI$M_DEBUG    = 00000001            DEV$M_ELG      = 00400000
CLI$B_BITNUM     00000001            CLI$M_DUMMY    = 00000002            DEV$M_FOD      = 00004000
CLI$B_QDBLKSIZ   00000000            CLI$M_EXPNAM   = 00000004            DEV$M_FOR      = 01000000
CLI$B_QDCODE     00000001            CLI$M_INDIRECT = 00000010            DEV$M_GEN      = 00020000
CLI$B_QDFLGS     00000002            CLI$M_KEYVALU  = 00000002            DEV$M_IDV      = 04000000
CLI$B_QDSTAT     00000003            CLI$M_LASTVAL  = 00000001            DEV$M_MBX      = 00100000
CLI$B_RQFLGS     00000002            CLI$M_MOREINP  = 00000004            DEV$M_MNT      = 00080000
CLI$B_RQINDX     00000001            CLI$M_MOREVALS = 00000001            DEV$M_NET      = 00002000
CLI$B_RQSTAT     00000003            CLI$M_PARMDEF  = 00000008            DEV$M_ODV      = 08000000
CLI$B_RQTYPE     00000000            CLI$M_PARMPRS  = 00000001            DEV$M_RCK      = 40000000
CLI$C_QDBITS     00000014            CLI$M_PARMREQ  = 00000001            DEV$M_REC      = 00000001
CLI$C_QUALDEF    00000014            CLI$M_QDEXPA   = 00000004            DEV$M_RND      = 10000000
CLI$C_REQDESC    0000001C            CLI$M_QDUSRV   = 00000002            DEV$M_RTM      = 20000000
CLI$C_WORKAREA   00000080            CLI$M_QUALEXP  = 00000002            DEV$M_SDI      = 00000010
CLI$K_ASCIIVAL = 00000041            CLI$M_QUALTRU  = 00000001            DEV$M_SHR      = 00010000
CLI$K_CLISERV  = 00000005            CLI$M_TRMVRBLV = 00000300            DEV$M_SPL      = 00000040
CLI$K_ENDPRM1  = 00000030            CLI$M_VERIFY   = 00000004            DEV$M_SQD      = 00000020
CLI$K_ENDPRM2  = 00000031            CLI$M_VFYINP   = 00000020            DEV$M_SWL      = 02000000
CLI$K_ENDPRM3  = 00000032            CLI$Q_QDVALDESC  00000004            DEV$M_TRM      = 00000004
CLI$K_ENDPRM4  = 00000033            CLI$Q_RQDESC     00000008            DEV$M_WCK      = 80000000
CLI$K_FILSPEC  = 00000044            CLI$S_PRITYP   = 00000004            DEV$V_ALL      = 00000017
CLI$K_GETCMD   = 00000001            CLI$S_SUBTYP   = 00000004            DEV$V_AVL      = 00000012
CLI$K_GETOPT   = 00000003            CLI$S_TRMVRBLV = 00000002            DEV$V_CCL      = 00000001
CLI$K_GETQUAL  = 00000002            CLI$V_ABSADR   = 00000001            DEV$V_DIR      = 00000003
CLI$K_INITPRS  = 00000000            CLI$V_ALLOCCUR = 00000000            DEV$V_DMT      = 00000015
CLI$K_INPSPEC  = 00000001            CLI$V_BATCH    = 00000003            DEV$V_ELG      = 00000016
CLI$K_INPUT1   = 00000010            CLI$V_CONCATINP= 00000001            DEV$V_FOD      = 0000000E
CLI$K_INPUT2   = 00000011            CLI$V_DBGEXCP  = 00000010            DEV$V_FOR      = 00000018
CLI$K_INPUT3   = 00000012            CLI$V_DBGTRU   = 00000001            DEV$V_GEN      = 00000011
CLI$K_INPUT4   = 00000013            CLI$V_DEBUG    = 00000000            DEV$V_IDV      = 0000001A
CLI$K_KEYVAL   = 00000043            CLI$V_DUMMY    = 00000001            DEV$V_MBX      = 00000014
CLI$K_KEYWORD  = 00000042            CLI$V_EXPNAM   = 00000002            DEV$V_MNT      = 00000013
CLI$K_NUMERVAL = 00000040            CLI$V_INDIRECT = 00000004            DEV$V_NET      = 0000000D
CLI$K_OUTPUT1  = 00000020            CLI$V_KEYVALU  = 00000001            DEV$V_ODV      = 0000001B
CLI$K_OUTPUT2  = 00000021            CLI$V_LASTVAL  = 00000000            DEV$V_RCK      = 0000001E
CLI$K_OUTPUT3  = 00000022            CLI$V_MOREINP  = 00000002            DEV$V_REC      = 00000000
CLI$K_OUTPUT4  = 00000023            CLI$V_MOREVALS = 00000000            DEV$V_RND      = 0000001C
CLI$K_OUTSPEC  = 00000002            CLI$V_PARMDEF  = 00000003            DEV$V_RTM      = 0000001D
CLI$K_PARDONE  = 00000003            CLI$V_PARMPRS  = 00000000            DEV$V_SDI      = 00000004
SHOWPRINT       - SHOW CHARACTERISTICS OF A PRINTER              21-AUG-1978 19:27:46   VAX-11 MACRO X0.3-11               Page   6
SYMBOL TABLE                                                                                                                     (2)

DEV$V_SHR      = 00000010
DEV$V_SPL      = 00000006
DEV$V_SQD      = 00000005
DEV$V_SWL      = 00000019
DEV$V_TRM      = 00000002
DEV$V_WCK      = 0000001F
ERROR            00000031 R     05
GBL...         = 00000000
GET_CHAN_INFO    00000010 R     03
LP$M_CR        = 00000001
LP$M_LOWER     = 00000080
LP$M_MECHFORM  = 00000002
LP$M_PAGE_L    = FF000000
LP$S_PAGE_L    = 00000008
LP$V_CR        = 00000000
LP$V_LOWER     = 00000007
LP$V_MECHFORM  = 00000001
LP$V_PAGE_L    = 00000018
LP$_LA11       = 00000002
LP$_LA180      = 00000003
LP$_LP11       = 00000001
LP_NAME          00000000 R     04
NULL_STR         0000006C R     03
N_CR             00000058 R     04
N_FF             0000005F R     04
N_LOWE           00000066 R     04
PRINT            0000004B R     05
P_CR             00000044 R     04
P_FF             00000049 R     04
P_LOWE           0000004E R     04
SHOW$A_CLIWORK   ********   X   05
SHOW$L_STATUS    ********   X   05
SHOW$PRINT       00000000 RG    05
SHOW$PRINT_MSG   ********   X   05
SHOW$_PRINT_L1   ********   X   05
SHOW$_STATUS     ********   X   05
SHOW$_TTLP_SPL   ********   X   05
SPOOL_DEV        0000006D R     03
SYS$GETDEV       ********   X   05
TYPE_NAME        0000001C R     04
UTIL_DESC        00000008 R     03


PROGRAM SECTION SYNOPSIS

.  ABS  .        00000000      00     NOPIC   USR   CON   ABS   LCL NOSHR NOEXE NORD  NOWRT BYTE
. BLANK .        00000000      01     NOPIC   USR   CON   REL   LCL NOSHR   EXE   RD    WRT BYTE
$ABS$            00000080      02     NOPIC   USR   CON   ABS   LCL NOSHR   EXE   RD    WRT BYTE
SHOW$RWDATA      000000B5      03     NOPIC   USR   CON   REL   LCL NOSHR NOEXE   RD    WRT LONG
SHOW$RDATA       00000070      04     NOPIC   USR   CON   REL   LCL NOSHR NOEXE   RD    WRT LONG
SHOW$CODE        000000F1      05     NOPIC   USR   CON   REL   LCL NOSHR   EXE   RD  NOWRT BYTE


THERE WERE NO ERRORS OR WARNINGS.
17940. BYTES LEFT IN FREE MEMORY POOL.
2256. BYTES OF RECLAIMED MEMORY.
OBJ$:SHOWPRINT,LIS$:SHOWPRINT/-SP=EXECML$/ML,LIB$:CLIUTL/ML,SRC$:SHOWPRINT
SHOWPRINT       - SHOW CHARACTERISTICS OF A PRINTER              21-AUG-1978 19:27:46   VAX-11 MACRO X0.3-11               Page   7
PROGRAM SECTION SYNOPSIS                                                                                                         (2)

30 MLB DIR RDS - 366 GETS TO DEFINE 18 MACROS. 27 INTER. FILE WRITES.
