SHOWRMS         - SHOW RMS DEFAULTS                              21-AUG-1978 19:26:30   VAX-11 MACRO X0.3-11               Page   1
HJ                                                                                                                               (1)

                                     0000     1 	.TITLE	SHOWRMS - SHOW RMS DEFAULTS
                                     0000     2 	.IDENT	/HJ/
                                     0000     3
                                     0000     4 ;
                                     0000     5 ; COPYRIGHT (C) 1977
                                     0000     6 ; DIGITAL EQUIPMENT CORPORATION, MAYNARD, MASSACHUSETTS 01754
                                     0000     7 ;
                                     0000     8 ; THIS SOFTWARE IS FURNISHED  UNDER A LICENSE FOR USE ONLY ON A SINGLE
                                     0000     9 ; COMPUTER  SYSTEM AND  MAY BE  COPIED ONLY WITH  THE INCLUSION OF THE
                                     0000    10 ; ABOVE COPYRIGHT NOTICE.  THIS SOFTWARE, OR ANY OTHER COPIES THEREOF,
                                     0000    11 ; MAY NOT BE PROVIDED OR  OTHERWISE MADE AVAILABLE TO ANY OTHER PERSON
                                     0000    12 ; EXCEPT FOR USE ON SUCH SYSTEM AND TO ONE WHO AGREES TO THESE LICENSE
                                     0000    13 ; TERMS.  TITLE TO AND  OWNERSHIP OF THE  SOFTWARE  SHALL AT ALL TIMES
                                     0000    14 ; REMAIN IN DEC.
                                     0000    15 ;
                                     0000    16 ; THE INFORMATION IN THIS SOFTWARE IS SUBJECT TO CHANGE WITHOUT NOTICE
                                     0000    17 ; AND SHOULD  NOT BE CONSTRUED  AS A COMMITMENT  BY DIGITAL  EQUIPMENT
                                     0000    18 ; CORPORATION.
                                     0000    19 ;
                                     0000    20 ; DEC ASSUMES  NO  RESPONSIBILITY  FOR  THE USE OR  RELIABILITY OF ITS
                                     0000    21 ; SOFTWARE ON EQUIPMENT WHICH IS NOT SUPPLIED BY DEC.
                                     0000    22 ;
                                     0000    23
                                     0000    24 ;++
                                     0000    25 ; FACILITY:	CLI UTILITY "SHOW"
                                     0000    26 ;
                                     0000    27 ; ABSTRACT:	SHOW RMS DEFAULT MULTIPLE BLOCK AND BUFFER COUNTS
                                     0000    28 ;
                                     0000    29 ; ENVIRONMENT:	NATIVE NON-PRIVLEGED USER MODE CODE
                                     0000    30 ;
                                     0000    31 ; AUTHOR:	HJ, CREATION DATE: APRIL 17, 1978
                                     0000    32 ;
                                     0000    33 ; MODIFIED BY:
                                     0000    34 ;
                                     0000    35 ;	, : VERSION
                                     0000    36 ; 01	-
                                     0000    37 ;--
SHOWRMS         - SHOW RMS DEFAULTS                              21-AUG-1978 19:26:30   VAX-11 MACRO X0.3-11               Page   2
HJ                                                                                                                               (2)

                                 00000000    39 	.PSECT	SHOW$CODE BYTE,RD,NOWRT,EXE
                               0FFC' 0000    40 	.ENTRY	SHOW$RMS,^M<R2,R3,R4,R5,R6,R7,R8,R9,R10,R11>
                                     0002    41 ;++
                                     0002    42 ; FUNCTIONAL DESCRIPTION:
                                     0002    43 ;
                                     0002    44 ;	THIS ROUTINE SETS UP THE RMS DEFAULT BUFFERING VALUES FOR DISPLAY
                                     0002    45 ;
                                     0002    46 ; CALLING SEQUENCE:
                                     0002    47 ;
                                     0002    48 ;	THIS ROUTINE IS CALLED AS A TRUE ACTION ROUTINE OF THE SHOW COMMAND
                                     0002    49 ;
                                     0002    50 ; INPUT PARAMETERS:
                                     0002    51 ;
                                     0002    52 ; IMPLICIT INPUTS:
                                     0002    53 ;
                                     0002    54 ;	THE VALUES OF THE COUNTS IN THE SYSTEM AND PROCESS AREAS
                                     0002    55 ;
                                     0002    56 ; OUTPUT PARAMETERS:
                                     0002    57 ;
                                     0002    58 ;	NONE
                                     0002    59 ;
                                     0002    60 ; IMPLICIT OUTPUTS:
                                     0002    61 ;
                                     0002    62 ;	THE LINE IS FORMATED AND PRINTED
                                     0002    63 ;
                                     0002    64 ; COMPLETION CODES:
                                     0002    65 ;
                                     0002    66 ;	NONE
                                     0002    67 ;
                                     0002    68 ; SIDE EFFECTS:
                                     0002    69 ;
                                     0002    70 ;	NONE
                                     0002    71 ;
                                     0002    72 ;--
                 00000000'8F     DD  0002    73 	PUSHL	#SHOW$_RMSHDR		;SET UP MSG NUMBER
                          00     DD  0008    74 	PUSHL	#0			;NO FAO INPUT ARGUMENTS
   00000000'EF            02     FB  000A    75 	CALLS	#2,SHOW$PRINT_MSG	;OUTPUT THE HEADER
                                     0011    76 					;FAO ARGUMENT LIST FOR SYSTEM
                                     0011    77 					;ASSOCIATED VALUES
            7E   00000000'EF     9A  0011    78 	MOVZBL	SYS$GB_DFMBFSUR,-(SP)	;SEQ UNIT RECORD
            7E   00000000'EF     9A  0018    79 	MOVZBL	SYS$GB_DFMBFSMT,-(SP)	;SEQ MAGATPE
            7E   00000000'EF     9A  001F    80 	MOVZBL	SYS$GB_DFMBFSDK,-(SP)	;SEQ DISK
            7E   00000000'EF     9A  0026    81 	MOVZBL	SYS$GB_DFMBFREL,-(SP)	;RELATIVE
            7E   00000000'EF     9A  002D    82 	MOVZBL	SYS$GB_DFMBFIDX,-(SP)	;INDEXED
                                     0034    83 ;	MOVZBL	SYS$GB_DFMBFHSH,-(SP)	;HASHED
            7E   00000000'EF     9A  0034    84 	MOVZBL	SYS$GB_DFMBC,-(SP)	;MULTI-BLOCK COUNT
                                     003B    85 					;FAO ARGUMENT LIST FOR PROCESS
                                     003B    86 					;ASSOCIATED VALUES
            7E   00000000'EF     9A  003B    87 	MOVZBL	PIO$GB_DFMBFSUR,-(SP)	;SEQ UNIT RECORD
            7E   00000000'EF     9A  0042    88 	MOVZBL	PIO$GB_DFMBFSMT,-(SP)	;SEQ MAGATPE
            7E   00000000'EF     9A  0049    89 	MOVZBL	PIO$GB_DFMBFSDK,-(SP)	;SEQ DISK
            7E   00000000'EF     9A  0050    90 	MOVZBL	PIO$GB_DFMBFREL,-(SP)	;RELATIVE
            7E   00000000'EF     9A  0057    91 	MOVZBL	PIO$GB_DFMBFIDX,-(SP)	;INDEXED
                                     005E    92 ;	MOVZBL	PIO$GB_DFMBFHSH,-(SP)	;HASHED
            7E   00000000'EF     9A  005E    93 	MOVZBL	PIO$GB_DFMBC,-(SP)	;MULTI-BLOCK COUNT
                 00000000'8F     DD  0065    94 	PUSHL	#SHOW$_RMSVALS		;SET UP MSG NUMBER
                       04 AE     DF  006B    95 	PUSHAL	4(SP)			;POINT TO FAO ARGUMENT LIST
SHOWRMS         - SHOW RMS DEFAULTS                              21-AUG-1978 19:26:30   VAX-11 MACRO X0.3-11               Page   3
HJ                                                                                                                               (2)

   00000000'EF            02     FB  006E    96 	CALLS	#2,SHOW$PRINT_MSG	;OUTPUT THE VALUES
            50       0000'8F     3C  0075    97 	MOVZWL	#SS$_NORMAL,R0		;SET SUCCESS RETURN STATUS
                                 04  007A    98 	RET				;DONE - RETURN
                                     007B    99
                                     007B   100 	.END
SHOWRMS         - SHOW RMS DEFAULTS                              21-AUG-1978 19:26:30   VAX-11 MACRO X0.3-11               Page   4
SYMBOL TABLE                                                                                                                     (2)

PIO$GB_DFMBC     ********   X   02
PIO$GB_DFMBFIDX  ********   X   02
PIO$GB_DFMBFREL  ********   X   02
PIO$GB_DFMBFSDK  ********   X   02
PIO$GB_DFMBFSMT  ********   X   02
PIO$GB_DFMBFSUR  ********   X   02
SHOW$PRINT_MSG   ********   X   02
SHOW$RMS         00000000 RG    02
SHOW$_RMSHDR     ********   X   02
SHOW$_RMSVALS    ********   X   02
SS$_NORMAL       ********   X   02
SYS$GB_DFMBC     ********   X   02
SYS$GB_DFMBFIDX  ********   X   02
SYS$GB_DFMBFREL  ********   X   02
SYS$GB_DFMBFSDK  ********   X   02
SYS$GB_DFMBFSMT  ********   X   02
SYS$GB_DFMBFSUR  ********   X   02


PROGRAM SECTION SYNOPSIS

.  ABS  .        00000000      00     NOPIC   USR   CON   ABS   LCL NOSHR NOEXE NORD  NOWRT BYTE
. BLANK .        00000000      01     NOPIC   USR   CON   REL   LCL NOSHR   EXE   RD    WRT BYTE
SHOW$CODE        0000007B      02     NOPIC   USR   CON   REL   LCL NOSHR   EXE   RD  NOWRT BYTE


THERE WERE NO ERRORS OR WARNINGS.
28120. BYTES LEFT IN FREE MEMORY POOL.
OBJ$:SHOWRMS,LIS$:SHOWRMS/-SP=EXECML$/ML,LIB$:CLIUTL/ML,SRC$:SHOWRMS
0 MLB DIR RDS - 0 GETS TO DEFINE 0 MACROS. 1 INTER. FILE WRITES.
