SHOWTERM        - SHOW CHARACTERISTICS OF A TERMINAL             21-AUG-1978 19:26:37   VAX-11 MACRO X0.3-11               Page   1
X01                                                                                                                              (1)

                                     0000     1 	.TITLE	SHOWTERM - SHOW CHARACTERISTICS OF A TERMINAL
                                     0000     2 	.IDENT	/X01/
                                     0000     3
                                     0000     4 ;
                                     0000     5 ; COPYRIGHT (C) 1977
                                     0000     6 ; DIGITAL EQUIPMENT CORPORATION, MAYNARD, MASSACHUSETTS 01754
                                     0000     7 ;
                                     0000     8 ; THIS SOFTWARE IS FURNISHED  UNDER A LICENSE FOR USE ONLY ON A SINGLE
                                     0000     9 ; COMPUTER  SYSTEM AND  MAY BE  COPIED ONLY WITH  THE INCLUSION OF THE
                                     0000    10 ; ABOVE COPYRIGHT NOTICE.  THIS SOFTWARE, OR ANY OTHER COPIES THEREOF,
                                     0000    11 ; MAY NOT BE PROVIDED OR  OTHERWISE MADE AVAILABLE TO ANY OTHER PERSON
                                     0000    12 ; EXCEPT FOR USE ON SUCH SYSTEM AND TO ONE WHO AGREES TO THESE LICENSE
                                     0000    13 ; TERMS.  TITLE TO AND  OWNERSHIP OF THE  SOFTWARE  SHALL AT ALL TIMES
                                     0000    14 ; REMAIN IN DEC.
                                     0000    15 ;
                                     0000    16 ; THE INFORMATION IN THIS SOFTWARE IS SUBJECT TO CHANGE WITHOUT NOTICE
                                     0000    17 ; AND SHOULD  NOT BE CONSTRUED  AS A COMMITMENT  BY DIGITAL  EQUIPMENT
                                     0000    18 ; CORPORATION.
                                     0000    19 ;
                                     0000    20 ; DEC ASSUMES  NO  RESPONSIBILITY  FOR  THE USE OR  RELIABILITY OF ITS
                                     0000    21 ; SOFTWARE ON EQUIPMENT WHICH IS NOT SUPPLIED BY DEC.
                                     0000    22 ;
                                     0000    23
                                     0000    24 ;++
                                     0000    25 ; FACILITY:	CLI UTILITY "SHOW"
                                     0000    26 ;
                                     0000    27 ; ABSTRACT:	SHOW THE CHARACTERISTICS OF A TERMINAL
                                     0000    28 ;
                                     0000    29 ; AUTHOR:	R.HEINEN 21-NOV-1977
                                     0000    30 ;--
                                     0000    31 ;
                                     0000    32 ; LOCAL MACROS
                                     0000    33 ;
                                     0000    34 	.MACRO	CALLBAK	P1,P2
                                     0000    35 	.IF B <P2>
                                     0000    36 	PUSHAB	W^BITS			; ADDRESS OF BIT MASK
                                     0000    37 	.IFF
                                     0000    38 	PUSHAB	P2			; ADDRESS OF THIRD ARGUEMENT
                                     0000    39 	.ENDC
                                     0000    40 	PUSHAB	W^SHOW$A_CLIWORK	; COMMON WORK AREA
                                     0000    41 	PUSHAB	P1			; THE REQUEST DESCRIPTOR
                                     0000    42 	CALLS	#3,@CLI$A_UTILSERV(AP)	; REQUEST THE SERVICE OF THE CLI
                                     0000    43 	.ENDM				;
                                     0000    44
                                     0000    45 ;
                                     0000    46 ; EXTERNAL SYMBOLS
                                     0000    47 ;
                                     0000    48 	$CLIDEFQUALSHOW			; DEFINE SHOW QUALIFIERS
                                     0000    49 	$DEVDEF				; DEFINE DEVICE CHARACTERISTICS
                                     0000    50 	$DIBDEF				; DEFINE DEVICE INFO BLOCK
                                     0000    51 	$JPIDEF				; DEFINE JPI VALUES
                                     0000    52 	$TTDEF				; DEFINE TERMINAL CHARACTERISTICS
                                     0000    53 ;
                                     0000    54 ; LOCAL STORAGE
                                     0000    55 ;
                                 00000000    56 	.PSECT	SHOW$RWDATA,NOEXE,LONG
                                     0000    57
SHOWTERM        - SHOW CHARACTERISTICS OF A TERMINAL             21-AUG-1978 19:26:37   VAX-11 MACRO X0.3-11               Page   2
X01                                                                                                                              (1)

                                     0000    58
                                     0000    59 ;
                                     0000    60 ; STORAGE
                                     0000    61 ;
                           00000000  0000    62 CHAN:		.LONG	0		; TERMINAL CHANNEL NUMBER
                           00000000  0004    63 BITS:		.LONG	0		; STORAGE FOR CLI CALL BACK
                  00000000 00000000  0008    64 IOSB:		.LONG	0,0		; IOSB FOR TERMINAL GET CHARACTERISTICS
                  00000000 00000000  0010    65 UTIL_DESC:	.LONG	0,0		; UTILITY DESC
                           00000030  0018    66 GET_CHAN_INFO:	.LONG	48
                           00000020' 001C    67 		.LONG	CHAN_INFO-4
                           00000000  0020    68 		.LONG	0
                           00000054  0024    69 CHAN_INFO:	.BLKL	12
                                     0054    70 ;
                                     0054    71 ; SPOOLED DEVICE INFO
                                     0054    72 ;
                           00000030  0054    73 SPOOL_DEV:	.LONG	48
                           0000005C' 0058    74 		.LONG	10$
                           0000009C  005C    75 10$:		.BLKL	16
                                     009C    76 ;
                                     009C    77 CHAR_LIST:	.REPT	24
                                     009C    78 		.LONG	NULL_STRING
                                     009C    79 		.ENDR
                                 00  00FC    80 NULL_STRING:	.BYTE	0
                                     00FD    81 ;
                                     00FD    82 ; CLI DATA BASE
                                     00FD    83 ;
                                     00FD    84 TERMNAME:
                                     00FD    85 	$CLIREQDESC	RQTYPE=CLI$K_INPUT1	; GET THE INPUT OR TERMINAL NAME
                                     0119    86 GET_QUAL:				; GET THE QUALIFIERS
                                     0119    87 	$CLIREQDESC	RQTYPE=CLI$K_GETQUAL,QUALST=QUAL_LIST
                                     0135    88 QUAL_LIST:				; QUALIFIER LIST
                                     0135    89 	$CLIQUALDESC	QDCODE=CLI$K_SHTE_PERM,TRUACT=PERM,FLSACT=NOT_PERM
                                     014C    90 	$CLIQUALDESC	END_LIST
                                     014D    91 ;
                                     014D    92 ; TYPE NAMES
                                     014D    93 ;
                                     014D    94 TYPE_NAME:
000002CD'000002CD'000002E4'000002CD' 014D    95 	.LONG	1$,3$,1$,1$,1$,1$,1$,1$,1$,1$,1$,1$,1$,1$,1$,1$
000002CD'000002CD'000002CD'000002CD' 015D
000002CD'000002CD'000002CD'000002CD' 016D
000002CD'000002CD'000002CD'000002CD' 017D
000002CD'000002CD'000002CD'000002CD' 018D    96 	.LONG	1$,1$,1$,1$,1$,1$,1$,1$,1$,1$,1$,1$,1$,1$,1$,1$
000002CD'000002CD'000002CD'000002CD' 019D
000002CD'000002CD'000002CD'000002CD' 01AD
000002CD'000002CD'000002CD'000002CD' 01BD
000002CD'000002CD'000002CD'000002D5' 01CD    97 	.LONG	2$,1$,1$,1$,1$,1$,1$,1$,1$,1$,1$,1$,1$,1$,1$,1$
000002CD'000002CD'000002CD'000002CD' 01DD
000002CD'000002CD'000002CD'000002CD' 01ED
000002CD'000002CD'000002CD'000002CD' 01FD
000002CD'000002CD'000002CD'000002CD' 020D    98 	.LONG	1$,1$,1$,1$,1$,1$,1$,1$,1$,1$,1$,1$,1$,1$,1$,1$
000002CD'000002CD'000002CD'000002CD' 021D
000002CD'000002CD'000002CD'000002CD' 022D
000002CD'000002CD'000002CD'000002CD' 023D
000002CD'000002CD'000002DA'000002DF' 024D    99 	.LONG	4$,5$,1$,1$,1$,1$,1$,1$,1$,1$,1$,1$,1$,1$,1$,1$
000002CD'000002CD'000002CD'000002CD' 025D
000002CD'000002CD'000002CD'000002CD' 026D
000002CD'000002CD'000002CD'000002CD' 027D
SHOWTERM        - SHOW CHARACTERISTICS OF A TERMINAL             21-AUG-1978 19:26:37   VAX-11 MACRO X0.3-11               Page   3
X01                                                                                                                              (1)

000002CD'000002CD'000002CD'000002CD' 028D   100 	.LONG	1$,1$,1$,1$,1$,1$,1$,1$,1$,1$,1$,1$,1$,1$,1$,1$
000002CD'000002CD'000002CD'000002CD' 029D
000002CD'000002CD'000002CD'000002CD' 02AD
000002CD'000002CD'000002CD'000002CD' 02BD
            4E 57 4F 4E 4B 4E 55 00' 02CD   101 1$:	.ASCIC	/UNKNOWN/
                                 07  02CD
                     36 33 41 4C 00' 02D5   102 2$:	.ASCIC	/LA36/
                                 04  02D5
                     35 35 54 56 00' 02DA   103 5$:	.ASCIC	/VT55/
                                 04  02DA
                     32 35 54 56 00' 02DF   104 4$:	.ASCIC	/VT52/
                                 04  02DF
                     35 30 54 56 00' 02E4   105 3$:	.ASCIC	/VT05/
                                 04  02E4
                                     02E9   106 ;
                                     02E9   107 ; POSITIVE CHARACTERISTIC STRINGS
                                     02E9   108 ;
                                     02E9   109 POSITIVE_NAME:
00000356'00000348'0000033F'00000335' 02E9   110 	.LONG	1$,2$,3$,4$,5$,6$,0,7$,8$,9$,0,0,10$,11$,12$,13$,0,14$,15$
00000373'00000000 0000036A'0000035F' 02F9
00000000 00000000 00000385'0000037F' 0309
000003AA'0000039D'00000394'0000038C' 0319
         000003C3'000003B5'00000000  0329
      20 2C 4C 4C 41 53 53 41 50 00' 0335   111 1$:	.ASCIC	/PASSALL, /
                                 09  0335
         20 2C 4F 48 43 45 4F 4E 00' 033F   112 2$:	.ASCIC	/NOECHO, /
                                 08  033F
44 41 45 48 41 45 50 59 54 4F 4E 00' 0348   113 3$:	.ASCIC	/NOTYPEAHEAD, /
                              20 2C  0354
                                 0D  0348
         20 2C 45 50 41 43 53 45 00' 0356   114 4$:	.ASCIC	/ESCAPE, /
                                 08  0356
   20 2C 43 4E 59 53 54 53 4F 48 00' 035F   115 5$:	.ASCIC	/HOSTSYNC, /
                                 0A  035F
         20 2C 43 4E 59 53 54 54 00' 036A   116 6$:	.ASCIC	/TTSYNC, /
                                 08  036A
20 2C 45 53 41 43 52 45 57 4F 4C 00' 0373   117 7$:	.ASCIC	/LOWERCASE, /
                                 0B  0373
                  20 2C 42 41 54 00' 037F   118 8$:	.ASCIC	/TAB, /
                                 05  037F
               20 2C 50 41 52 57 00' 0385   119 9$:	.ASCIC	/WRAP, /
                                 06  0385
            20 2C 45 50 4F 43 53 00' 038C   120 10$:	.ASCIC	/SCOPE, /
                                 07  038C
         20 2C 45 54 4F 4D 45 52 00' 0394   121 11$:	.ASCIC	/REMOTE, /
                                 08  0394
2C 4E 45 45 52 43 53 44 4C 4F 48 00' 039D   122 12$:	.ASCIC	/HOLDSCREEN, /
                                 20  03A9
                                 0C  039D
   20 2C 54 49 42 54 48 47 49 45 00' 03AA   123 13$:	.ASCIC	/EIGHTBIT, /
                                 0A  03AA
54 53 41 43 44 41 4F 52 42 4F 4E 00' 03B5   124 14$:	.ASCIC	/NOBROADCAST, /
                              20 2C  03C1
                                 0D  03B5
   20 2C 43 4E 59 53 44 41 45 52 00' 03C3   125 15$:	.ASCIC	/READSYNC, /
                                 0A  03C3
                                     03CE   126 ;
SHOWTERM        - SHOW CHARACTERISTICS OF A TERMINAL             21-AUG-1978 19:26:37   VAX-11 MACRO X0.3-11               Page   4
X01                                                                                                                              (1)

                                     03CE   127 ; NEGITIVE CHARACTERISTIC STRINGS
                                     03CE   128 ;
                                     03CE   129 NEGITIVE_NAME:
0000043B'0000042F'00000428'0000041A' 03CE   130 	.LONG	1$,2$,3$,4$,5$,6$,0,7$,8$,9$,0,0,10$,11$,12$,13$,0,14$,15$
0000045E'00000000 00000453'00000446' 03DE
00000000 00000000 00000472'0000046A' 03EE
0000049D'0000048E'00000486'0000047B' 03FE
         000004B6'000004AA'00000000  040E
45 56 49 54 43 41 52 45 54 4E 49 00' 041A   131 1$:	.ASCIC	/INTERACTIVE, /
                              20 2C  0426
                                 0D  041A
               20 2C 4F 48 43 45 00' 0428   132 2$:	.ASCIC	/ECHO, /
                                 06  0428
20 2C 44 41 45 48 41 45 50 59 54 00' 042F   133 3$:	.ASCIC	/TYPEAHEAD, /
                                 0B  042F
   20 2C 45 50 41 43 53 45 4F 4E 00' 043B   134 4$:	.ASCIC	/NOESCAPE, /
                                 0A  043B
2C 43 4E 59 53 54 53 4F 48 4F 4E 00' 0446   135 5$:	.ASCIC	/NOHOSTSYNC, /
                                 20  0452
                                 0C  0446
   20 2C 43 4E 59 53 54 54 4F 4E 00' 0453   136 6$:	.ASCIC	/NOTTSYNC, /
                                 0A  0453
20 2C 45 53 41 43 52 45 50 50 55 00' 045E   137 7$:	.ASCIC	/UPPERCASE, /
                                 0B  045E
            20 2C 42 41 54 4F 4E 00' 046A   138 8$:	.ASCIC	/NOTAB, /
                                 07  046A
         20 2C 50 41 52 57 4F 4E 00' 0472   139 9$:	.ASCIC	/NOWRAP, /
                                 08  0472
   20 2C 59 50 4F 43 44 52 41 48 00' 047B   140 10$:	.ASCIC	/HARDCOPY, /
                                 0A  047B
            20 2C 4C 41 43 4F 4C 00' 0486   141 11$:	.ASCIC	/LOCAL, /
                                 07  0486
45 45 52 43 53 44 4C 4F 48 4F 4E 00' 048E   142 12$:	.ASCIC	/NOHOLDSCREEN, /
                           20 2C 4E  049A
                                 0E  048E
2C 54 49 42 54 48 47 49 45 4F 4E 00' 049D   143 13$:	.ASCIC	/NOEIGHTBIT, /
                                 20  04A9
                                 0C  049D
20 2C 54 53 41 43 44 41 4F 52 42 00' 04AA   144 14$:	.ASCIC	/BROADCAST, /
                                 0B  04AA
2C 43 4E 59 53 44 41 45 52 4F 4E 00' 04B6   145 15$:	.ASCIC	/NOREADSYNC, /
                                 20  04C2
                                 0C  04B6
                     4E 45 56 45 00' 04C3   146 EPAR:	.ASCIC	/EVEN/
                                 04  04C3
                        44 44 4F 00' 04C8   147 OPAR:	.ASCIC	/ODD/
                                 03  04C8
                           4F 4E 00' 04CC   148 NOPAR:	.ASCIC	/NO/
                                 02  04CC
 012C 0096 0086 006E 004B 0032 0000  04CF   149 SPEED:	.WORD	0,50,75,110,134,150,300,600,1200,1800,2000,2400,3600,4800,7200,9600
 12C0 0E10 0960 07D0 0708 04B0 0258  04DD
                          2580 1C20  04EB
                                     04EF   150 SYS_COMMAND:
                           0000000B' 04EF   151 	.LONG	20$-10$
                           000004F7' 04F3   152 	.LONG	10$
   44 4E 41 4D 4D 4F 43 24 53 59 53  04F7   153 10$:	.ASCII	/SYS$COMMAND/
                                     0502   154 20$:
SHOWTERM        - SHOW CHARACTERISTICS OF A TERMINAL             21-AUG-1978 19:26:37   VAX-11 MACRO X0.3-11               Page   5
X01                                                                                                                              (1)

                                     0502   155 ;
                                     0502   156 ; SPACE FOR PROCESS OWNER NAME AND GETJPI
                                     0502   157 ;
                           00000014  0502   158 OWNER_NAME:	.LONG	20
                           0000050A' 0506   159 		.LONG	10$
                           0000051E  050A   160 10$:		.BLKB	20
                               0014  051E   161 JPI_ITEM:	.WORD	20
                               031C  0520   162 		.WORD	JPI$_PRCNAM
                           0000050A' 0522   163 		.LONG	OWNER_NAME+8
                           00000502' 0526   164 		.LONG	OWNER_NAME
                           00000000  052A   165 		.LONG	0
                                     052E   166 ;
                                     052E   167 ; NO OWNER NAME
                                     052E   168 ;
                           00000004' 052E   169 NO_OWNER:	.LONG	20$-10$
                           00000536' 0532   170 		.LONG	10$
                        46 4C 45 53  0536   171 10$:		.ASCII	/SELF/
                                     053A   172 20$:
SHOWTERM        - SHOW CHARACTERISTICS OF A TERMINAL             21-AUG-1978 19:26:37   VAX-11 MACRO X0.3-11               Page   6
X01                                                                                                                              (2)

                                 00000000   174 	.PSECT	SHOW$CODE,NOWRT
                                     0000   175 ;++
                                     0000   176 ; SHOW$TERM - SHOW TERMINAL CGHARACTERISTICS
                                     0000   177 ;
                                     0000   178 ; FUNCTIONAL DESCRIPTION:
                                     0000   179 ;
                                     0000   180 ; THIS ROUTINE SHOWS THE CHARACTERISTICS OF A SPECIFIED TERMINAL.
                                     0000   181 ; IT IS ENTERED AS A RESULT OF A DISPATCH FROM THE SHOW COMMAND PROCESSOR.
                                     0000   182 ;
                                     0000   183 ; INPUTS:
                                     0000   184 ;
                                     0000   185 ;	THE CLI DATA BASE IS SET UP.
                                     0000   186 ;
                                     0000   187 ; OUTPUTS:
                                     0000   188 ;
                                     0000   189 ;	R0 = STATUS OF THE OPERATION
                                     0000   190 ;--
                                     0000   191 SHOW$TERM::				; SHOW TERMINAL COMMAND
                               03FC  0000   192 	.WORD	^M<R2,R3,R4,R5,R6,R7,R8,R9>
            56       00FD'CF     9E  0002   193 	MOVAB	W^TERMNAME,R6		; ADDRESS QUAL DESC
                                     0007   194 	CALLBAK	(R6)			; CALL CLI FOR TERMINAL NAME
            56         08 A6     9E  0015   195 	MOVAB	CLI$Q_RQDESC(R6),R6	; ADDRESS NAME DESC
                          66     D5  0019   196 	TSTL	(R6)			; NAME PRESENT?
                          47     12  001B   197 	BNEQ	20$			; IF NEQ THEN ASSIGN THAT NAME
                                     001D   198 ;
                                     001D   199 ; DEFUALT NAME IS "SYS$COMMAND"
                                     001D   200 ;
            55            03     9A  001D   201 	MOVZBL	#3,R5			; SET UP TRANSLATE COUNTER
            56       04EF'CF     9E  0020   202 	MOVAB	W^SYS_COMMAND,R6	; ADDRESS DESC FOR ORIGINAL NAME
       0010'CF       0000'CF     7D  0025   203 10$:	MOVQ	W^SHOW$GQ_OUT_DSC,W^UTIL_DESC
                                     002C   204 	$TRNLOG_S	(R6),W^UTIL_DESC,W^UTIL_DESC; TRANSLATE NAME
            1E            50     E9  0043   205 	BLBC	R0,20$			; IF LOW CLEAR THEN DONE
       0000'8F            50     B1  0046   206 	CMPW	R0,#SS$_NOTRAN		; DONE?
                          17     13  004B   207 	BEQL	20$			; IF EQL THEN YES
            66       0010'CF     7D  004D   208 	MOVQ	W^UTIL_DESC,(R6)	; SET UP FOR NEXT TRANSLATION
            1B         04 B6     91  0052   209 	CMPB	@4(R6),#^X01B		; ESCAPE?
                          09     12  0056   210 	BNEQ	15$			; IF NEQ THEN CONTINUE
            66            04     C2  0058   211 	SUBL	#4,(R6)			; FOUND PROCESS PERM NAME
         04 A6            04     C0  005B   212 	ADDL	#4,4(R6)		;
                          03     11  005F   213 	BRB	20$			;
            C1            55     F5  0061   214 15$:	SOBGTR	R5,10$			; CONTINUE UNTIL DONE
                                     0064   215 ;
                                     0064   216 ; GET DEVICE INFO IN CASE THE TERMINAL IS ASSIGNED TO SOMEONE ELSE
                                     0064   217 ;
                                     0064   218 ; THIS ALLOWS SOME INFORMATION TO BE PRINTED.
                                     0064   219 ;
                                     0064   220 20$:	$GETDEV_S	(R6),,W^SPOOL_DEV,,W^GET_CHAN_INFO; GET THE DEVICE INFO
       0000'CF            50     3C  0079   221 	MOVZWL	R0,W^SHOW$L_STATUS	; COPY CODE
            66            50     E9  007E   222 	BLBC	R0,40$			; BR IF ERROR - NO SUCH DEVICE
       0000'CF       0000'8F     3C  0081   223 	MOVZWL	#SS$_IVDEVNAM,W^SHOW$L_STATUS; ASSUME DEVICE NOT TERMINAL
       0020'CF            02     E1  0088   224 	BBC	#DEV$V_TRM,W^CHAN_INFO-4,40$; BR IF NOT TERMINAL
                          59         008D
                                     008E   225 ;
                                     008E   226 ; TRY TO ASSIGN A CHANNEL TO THE TERMINAL  - TO GET SPEED AND PARITY
                                     008E   227 ;
                                     008E   228 	$ASSIGN_S	(R6),W^CHAN	; ASSIGN CHANNEL TO DEVICE
            26            50     E9  009D   229 	BLBC	R0,30$			; IF LOW CLEAR THEN PRINT WHAT'S AVAIL
SHOWTERM        - SHOW CHARACTERISTICS OF A TERMINAL             21-AUG-1978 19:26:37   VAX-11 MACRO X0.3-11               Page   7
X01                                                                                                                              (2)

                                     00A0   230 	$QIOW_S	#1,W^CHAN,#IO$_SENSEMODE,W^IOSB,P1=W^CHAN_INFO,P2=#8
            50            01     D0  00C3   231 	MOVL	#1,R0			; SAY SUCCESS
       0000'CF            50     D0  00C6   232 30$:	MOVL	R0,W^SHOW$L_STATUS	; SAVE ERROR CODE
                                     00CB   233 	CALLBAK	W^GET_QUAL		; PROCESS THE QUALIFIERS
                                     00DB   234 	$DASSGN_S	W^CHAN		; DEASSIGN CHANNEL
                                 04  00E7   235 40$:	RET				; DONE
                                     00E8   236 ;
                                     00E8   237 ; PERMANENT QUALIFIER ROUTINE
                                     00E8   238 ;
                               0FFC  00E8   239 PERM:	.WORD	^M<R2,R3,R4,R5,R6,R7,R8,R9,R10,R11>; PROCESS PERMANENT QUALIFIER
            34       0000'CF     E9  00EA   240 	BLBC	W^SHOW$L_STATUS,15$	; BR IF CHANNEL NOT ASSIGNED
                                     00EF   241 	$QIOW_S	#0,W^CHAN,#IO$_SENSECHAR,W^IOSB,P1=W^CHAN_INFO,P2=#8
            08            50     E9  0112   242 	BLBC	R0,5$			; BR IF NOT SUCCESS
            50       0008'CF     3C  0115   243 	MOVZWL	W^IOSB,R0		; GET IOSB STATUS
            10            50     E8  011A   244 	BLBS	R0,PRINT		; AND CONTINUE IF SUCCESS
       0000'CF            50     D0  011D   245 5$:	MOVL	R0,W^SHOW$L_STATUS	; SAVE STATUS
                                 04  0122   246 	RET
       0000'CF       0000'8F     3C  0123   247 15$:	MOVZWL	#SS$_NOPRIV,W^SHOW$L_STATUS; ASSUME NO PRIVILEGE
                                 04  012A   248 	RET
                                     012B   249 ;
                                     012B   250 ; OUTPUT CHARACTERISTICS AND NON-PERMANENT QUALIFIER ROUTINE
                                     012B   251 ;
                               0FFC  012B   252 NOT_PERM:.WORD	^M<R2,R3,R4,R5,R6,R7,R8,R9,R10,R11>; NOT  PERMANENT ENTRY
                                     012D   253 PRINT:					;
                                     012D   254 ;
                                     012D   255 ; OUTPUT NAME, TYPE, WIDTH AND PAGE AND OWNER
                                     012D   256 ;
       00B0'CF       052E'CF     7D  012D   257 	MOVQ	W^NO_OWNER,W^CHAR_LIST+20
            20       0000'CF     E8  0134   258 	BLBS	W^SHOW$L_STATUS,5$	; BR IF EXPLICIT OWNER
                                     0139   259 	$GETJPI_S	ITMLST=JPI_ITEM,PIDADR=W^DIB$L_PID+CHAN_INFO-4
       00B0'CF       0502'CF     7D  0152   260 	MOVQ	W^OWNER_NAME,W^CHAR_LIST+20; INSERT PARAMS
            52       002C'CF     9E  0159   261 5$:	MOVAB	W^CHAN_INFO+8,R2	; ADDRESS CHARACTERISTICS
       00A0'CF            82     3C  015E   262 	MOVZWL	(R2)+,W^CHAR_LIST+4	; GET NAME AND UNIT
            52            62     9A  0163   263 	MOVZBL	(R2),R2			; GET OFFSET TO NAME
       009C'CF       0020'CF42   9E  0166   264 	MOVAB	W^CHAN_INFO-4[R2],W^CHAR_LIST; ADDRESS NAME
                          54     D4  016E   265 	CLRL	R4			; ASSUME UNKNOWN
         41 8F       0025'CF     91  0170   266 	CMPB	W^CHAN_INFO+1,#TT$_VT55	; IN RANGE?
                          05     1A  0176   267 	BGTRU	10$
            54       0025'CF     9A  0178   268  	MOVZBL	W^CHAN_INFO+1,R4	; GET TYPE VALUE
       00A4'CF       014D'CF44   D0  017D   269 10$:	MOVL	W^TYPE_NAME[R4],W^CHAR_LIST+8; ADDRESS TYPE
       00A8'CF       0026'CF     3C  0185   270 	MOVZWL	W^CHAN_INFO+2,W^CHAR_LIST+12; INSERT WIDTH
       00AC'CF       002B'CF     9A  018C   271 	MOVZBL	W^CHAN_INFO+7,W^CHAR_LIST+16; INSERT PAGE
                          00'    DD  0193   272 	PUSHL	S^#SHOW$_TERM_L1		; OUTPUT MESSAGE
                     009C'CF     9F  0195   273 	PUSHAB	W^CHAR_LIST		;
       0000'CF            02     FB  0199   274 	CALLS	#2,W^SHOW$PRINT_MSG
                                     019E   275 ;
                                     019E   276 ; OUTPUT PRIVILEGED LINE OF INFORMATION
                                     019E   277 ;
            4E       0000'CF     E9  019E   278 	BLBC	W^SHOW$L_STATUS,30$	; IF ASSIGN FAILED THEN NO SPEED LINE
            57       000A'CF     9A  01A3   279 	MOVZBL	W^IOSB+2,R7		; GET THE SPEED
       009C'CF       04CF'CF47   3C  01A8   280 	MOVZWL	W^SPEED[R7],W^CHAR_LIST	;
                                     01B0   281 ;	MOVZBL	W^IOSB+3,R8		; SPEED OUT
                                     01B0   282 ;	MOVZWL	W^SPEED[R8],W^CHAR_LIST+4
       00A0'CF       009C'CF     D0  01B0   283 	MOVL	W^CHAR_LIST,W^CHAR_LIST+4; TEMP SPEED OUT
       00A4'CF       000C'CF     9A  01B7   284 	MOVZBL	W^IOSB+4,W^CHAR_LIST+8	; INSERT CR FILL
       00A8'CF       000D'CF     9A  01BE   285 	MOVZBL	W^IOSB+5,W^CHAR_LIST+12	; INSERT LF FILL
       00AC'CF       04CC'CF     9E  01C5   286 	MOVAB	W^NOPAR,W^CHAR_LIST+16	; ASSUME NO PARITY
SHOWTERM        - SHOW CHARACTERISTICS OF A TERMINAL             21-AUG-1978 19:26:37   VAX-11 MACRO X0.3-11               Page   8
X01                                                                                                                              (2)

       000E'CF            06     E1  01CC   287 	BBC	#TT$V_PARITY,W^IOSB+6,25$; PARITY?
                          14         01D1
       00AC'CF       04C3'CF     9E  01D2   288 	MOVAB	W^EPAR,W^CHAR_LIST+16	; ASSUME EVEN
       000E'CF            07     E1  01D9   289 	BBC	#TT$V_ODD,W^IOSB+6,25$	; BR IF EVEN
                          07         01DE
       00AC'CF       04C8'CF     9E  01DF   290 	MOVAB	W^OPAR,W^CHAR_LIST+16	;
                          00'    DD  01E6   291 25$:	PUSHL	S^#SHOW$_TERM_L2	; OUTPUT MESSAGE
                     009C'CF     9F  01E8   292 	PUSHAB	W^CHAR_LIST		;
       0000'CF            02     FB  01EC   293 	CALLS	#2,W^SHOW$PRINT_MSG		;
                                     01F1   294 ;
                                     01F1   295 ; OUTPUT CHARACTERISTICS DATA
                                     01F1   296 ;
                          54     D4  01F1   297 30$:	CLRL	R4
            56       009C'CF     9E  01F3   298 	MOVAB	W^CHAR_LIST,R6
                          00'    DD  01F8   299 	PUSHL	S^#SHOW$_TERM_L3	; SET UP FOR CALL
                          56     DD  01FA   300 	PUSHL	R6			;
            0A            54     91  01FC   301 50$:	CMPB	R4,#TT$V_CRFILL
                          23     13  01FF   302 	BEQL	65$
            06            54     91  0201   303 	CMPB	R4,#TT$V_SCRIPT
                          1E     13  0204   304 	BEQL	65$
            10            54     91  0206   305 	CMPB	R4,#TT$V_MBXDSABL
                          19     13  0209   306 	BEQL	65$
            0B            54     91  020B   307 	CMPB	R4,#TT$V_LFFILL
                          14     13  020E   308 	BEQL	65$
            66       02E9'CF44   D0  0210   309 	MOVL	W^POSITIVE_NAME[R4],(R6); ASSUME POSITIVE
       0028'CF            54     E0  0216   310 	BBS	R4,W^CHAN_INFO+4,60$	; BR IF POSITIVE
                          06         021B
            66       03CE'CF44   D0  021C   311 	MOVL	W^NEGITIVE_NAME[R4],(R6); SET NEGITIVE
                          86     D5  0222   312 60$:	TSTL	(R6)+			; MOVE TO NEXT
                          54     D6  0224   313 65$:	INCL	R4
            12            54     D1  0226   314 	CMPL	R4,#TT$V_READSYNC
                          D1     1B  0229   315 	BLEQU	50$
       0000'CF            02     FB  022B   316 	CALLS	#2,W^SHOW$PRINT_MSG
                                     0230   317 ;
                                     0230   318 ; OUTPUT SPOOLED DEVICE DATA
                                     0230   319 ;
       0020'CF            06     E1  0230   320 	BBC	#DEV$V_SPL,W^CHAN_INFO-4,75$; BR IF NOT SPOOLED DEVICE
                          2B         0235
            50       006A'CF     3C  0236   321 	MOVZWL	W^SPOOL_DEV+8+14,R0	; GET OFFSET TO NAME
            50       005C'CF40   9E  023B   322 	MOVAB	W^SPOOL_DEV+8[R0],R0	; INSERT ADDRESS OF NAME
       009C'CF            80     9A  0241   323 	MOVZBL	(R0)+,W^CHAR_LIST	; INSERT NAME SIZE
       00A0'CF            50     D0  0246   324 	MOVL	R0,W^CHAR_LIST+4	; INSERT ADDRESS
       00A4'CF       0068'CF     3C  024B   325 	MOVZWL	W^SPOOL_DEV+8+12,W^CHAR_LIST+8; INSERT UNITNUMBER
                 00000000'8F     DD  0252   326 	PUSHL	#SHOW$_TTLP_SPL		; OUTPUT MESSAGE
                     009C'CF     9F  0258   327 	PUSHAB	W^CHAR_LIST		;
       0000'CF            02     FB  025C   328 	CALLS	#2,W^SHOW$PRINT_MSG
                                 04  0261   329 75$:	RET
                                     0262   330 	.END
SHOWTERM        - SHOW CHARACTERISTICS OF A TERMINAL             21-AUG-1978 19:26:37   VAX-11 MACRO X0.3-11               Page   9
SYMBOL TABLE                                                                                                                     (2)

$$$            = 00000004            CLI$K_OUTPUT3  = 00000022            CLI$L_WORKAREA   00000000
$$$GBL         = 00000000            CLI$K_OUTPUT4  = 00000023            CLI$M_ABSADR   = 00000002
$$T1           = 00000001            CLI$K_OUTSPEC  = 00000002            CLI$M_ALLOCCUR = 00000001
$CLI.          = 00000135 R     03   CLI$K_PARDONE  = 00000003            CLI$M_BATCH    = 00000008
$CLI..         = 0000014C R     03   CLI$K_QDBITS     00000014            CLI$M_CONCATINP= 00000002
$QUALNUM$      = 00000002            CLI$K_QUALDEF    00000014            CLI$M_DBGEXCP  = 00010000
BIT...         = 00000045            CLI$K_REQDESC    0000001C            CLI$M_DBGTRU   = 00000002
BITS             00000004 R     03   CLI$K_SHDV_ALLO= 00000001            CLI$M_DEBUG    = 00000001
CHAN             00000000 R     03   CLI$K_SHDV_BRIE= 00000002            CLI$M_DUMMY    = 00000002
CHAN_INFO        00000024 R     03   CLI$K_SHDV_FULL= 00000003            CLI$M_EXPNAM   = 00000004
CHAR_LIST        0000009C R     03   CLI$K_SHDV_MOUN= 00000004            CLI$M_INDIRECT = 00000010
CLI$A_ABSACT     00000014            CLI$K_SHLG_ALL = 00000004            CLI$M_KEYVALU  = 00000002
CLI$A_ERRACT     00000004            CLI$K_SHLG_GROU= 00000002            CLI$M_LASTVAL  = 00000001
CLI$A_FLSACT     00000010            CLI$K_SHLG_PROC= 00000003            CLI$M_MOREINP  = 00000004
CLI$A_IMGFILED   00000010            CLI$K_SHLG_SYST= 00000001            CLI$M_MOREVALS = 00000001
CLI$A_IMGHDADR   0000000C            CLI$K_SHOW_DAYT= 00000001            CLI$M_PARMDEF  = 00000008
CLI$A_PROGXFER   00000004            CLI$K_SHOW_DEFA= 00000003            CLI$M_PARMPRS  = 00000001
CLI$A_PRSACT     00000010            CLI$K_SHOW_DEVI= 0000000A            CLI$M_PARMREQ  = 00000001
CLI$A_QDVALADR   00000008            CLI$K_SHOW_LOGI= 00000004            CLI$M_QDEXPA   = 00000004
CLI$A_QUALST     00000018            CLI$K_SHOW_MAGT= 00000012            CLI$M_QDUSRV   = 00000002
CLI$A_RQADDR     0000000C            CLI$K_SHOW_NETW= 00000010            CLI$M_QUALEXP  = 00000002
CLI$A_TRUACT     0000000C            CLI$K_SHOW_PRIN= 0000000F            CLI$M_QUALTRU  = 00000001
CLI$A_UTILSERV   00000008            CLI$K_SHOW_PROC= 0000000C            CLI$M_TRMVRBLV = 00000300
CLI$B_BITNUM     00000001            CLI$K_SHOW_PROT= 00000005            CLI$M_VERIFY   = 00000004
CLI$B_QDBLKSIZ   00000000            CLI$K_SHOW_QUEU= 00000006            CLI$M_VFYINP   = 00000020
CLI$B_QDCODE     00000001            CLI$K_SHOW_RMS_= 00000011            CLI$Q_QDVALDESC  00000004
CLI$B_QDFLGS     00000002            CLI$K_SHOW_STAT= 0000000B            CLI$Q_RQDESC     00000008
CLI$B_QDSTAT     00000003            CLI$K_SHOW_SYMB= 00000007            CLI$S_PRITYP   = 00000004
CLI$B_RQFLGS     00000002            CLI$K_SHOW_SYST= 0000000D            CLI$S_SUBTYP   = 00000004
CLI$B_RQINDX     00000001            CLI$K_SHOW_TERM= 0000000E            CLI$S_TRMVRBLV = 00000002
CLI$B_RQSTAT     00000003            CLI$K_SHOW_TIME= 00000002            CLI$V_ABSADR   = 00000001
CLI$B_RQTYPE     00000000            CLI$K_SHOW_TRAN= 00000008            CLI$V_ALLOCCUR = 00000000
CLI$C_QDBITS     00000014            CLI$K_SHOW_WORK= 00000009            CLI$V_BATCH    = 00000003
CLI$C_QUALDEF    00000014            CLI$K_SHPR_ACCO= 00000002            CLI$V_CONCATINP= 00000001
CLI$C_REQDESC    0000001C            CLI$K_SHPR_ALL = 00000005            CLI$V_DBGEXCP  = 00000010
CLI$C_WORKAREA   00000080            CLI$K_SHPR_PRIV= 00000003            CLI$V_DBGTRU   = 00000001
CLI$K_ASCIIVAL = 00000041            CLI$K_SHPR_QUOT= 00000001            CLI$V_DEBUG    = 00000000
CLI$K_CLISERV  = 00000005            CLI$K_SHPR_SUBP= 00000004            CLI$V_DUMMY    = 00000001
CLI$K_ENDPRM1  = 00000030            CLI$K_SHQU_ALL = 00000001            CLI$V_EXPNAM   = 00000002
CLI$K_ENDPRM2  = 00000031            CLI$K_SHQU_BATC= 00000002            CLI$V_INDIRECT = 00000004
CLI$K_ENDPRM3  = 00000032            CLI$K_SHQU_BRIE= 00000003            CLI$V_KEYVALU  = 00000001
CLI$K_ENDPRM4  = 00000033            CLI$K_SHQU_DEVI= 00000004            CLI$V_LASTVAL  = 00000000
CLI$K_FILSPEC  = 00000044            CLI$K_SHQU_ENTR= 00000005            CLI$V_MOREINP  = 00000002
CLI$K_GETCMD   = 00000001            CLI$K_SHQU_FULL= 00000006            CLI$V_MOREVALS = 00000000
CLI$K_GETOPT   = 00000003            CLI$K_SHSS_PROC= 00000001            CLI$V_PARMDEF  = 00000003
CLI$K_GETQUAL  = 00000002            CLI$K_SHSY_ALL = 00000003            CLI$V_PARMPRS  = 00000000
CLI$K_INITPRS  = 00000000            CLI$K_SHSY_GLOB= 00000001            CLI$V_PARMREQ  = 00000000
CLI$K_INPSPEC  = 00000001            CLI$K_SHSY_LOCA= 00000002            CLI$V_PRITYP   = 00000004
CLI$K_INPUT1   = 00000010            CLI$K_SHTE_PERM= 00000001            CLI$V_QDEXPA   = 00000002
CLI$K_INPUT2   = 00000011            CLI$K_UTILOPR  = 00000000            CLI$V_QDUSRV   = 00000001
CLI$K_INPUT3   = 00000012            CLI$K_VALCONV  = 00000004            CLI$V_QUALEXP  = 00000001
CLI$K_INPUT4   = 00000013            CLI$K_WORKAREA   00000080            CLI$V_QUALTRU  = 00000000
CLI$K_KEYVAL   = 00000043            CLI$L_CLIFLAG    00000018            CLI$V_SUBTYP   = 00000000
CLI$K_KEYWORD  = 00000042            CLI$L_INIARGCNT  00000000            CLI$V_TRMVRBLV = 00000008
CLI$K_NUMERVAL = 00000040            CLI$L_LINKFLAG   00000014            CLI$V_VERIFY   = 00000002
CLI$K_OUTPUT1  = 00000020            CLI$L_RQVALU     0000000C            CLI$V_VFYINP   = 00000005
CLI$K_OUTPUT2  = 00000021            CLI$L_USRVAL     00000014            CLI$W_QDVALSIZ   00000004
SHOWTERM        - SHOW CHARACTERISTICS OF A TERMINAL             21-AUG-1978 19:26:37   VAX-11 MACRO X0.3-11               Page  10
SYMBOL TABLE                                                                                                                     (2)

CLI$W_RQSIZE     00000008            DIB$L_DEVDEPEND  00000008            JPI$_LOGINTIM  = 00000206
CLI$W_SERVCOD    00000001            DIB$L_OPCNT      0000001C            JPI$_MEM       = 00000307
DEV$M_ALL      = 00800000            DIB$L_OWNUIC     00000014            JPI$_OWNER     = 00000303
DEV$M_AVL      = 00040000            DIB$L_PID        00000010            JPI$_PAGEFLTS  = 0000040A
DEV$M_CCL      = 00000002            DIB$W_DEVBUFSIZ  00000006            JPI$_PGFLQUOTA = 0000040E
DEV$M_DIR      = 00000008            DIB$W_DEVNAMOFF  0000000E            JPI$_PID       = 00000319
DEV$M_DMT      = 00200000            DIB$W_ERRCNT     0000001A            JPI$_PPGCNT    = 0000030D
DEV$M_ELG      = 00400000            DIB$W_RECSIZ     00000022            JPI$_PRCCNT    = 0000031B
DEV$M_FOD      = 00004000            DIB$W_UNIT       0000000C            JPI$_PRCLM     = 00000408
DEV$M_FOR      = 01000000            DIB$W_VOLNAMOFF  00000020            JPI$_PRCNAM    = 0000031C
DEV$M_GEN      = 00020000            DIB$W_VPROT      00000018            JPI$_PRI       = 00000302
DEV$M_IDV      = 04000000            EPAR             000004C3 R     03   JPI$_PRIB      = 00000309
DEV$M_MBX      = 00100000            GBL...         = 00000000            JPI$_PROCPRIV  = 00000204
DEV$M_MNT      = 00080000            GET_CHAN_INFO    00000018 R     03   JPI$_STATE     = 00000306
DEV$M_NET      = 00002000            GET_QUAL         00000119 R     03   JPI$_STS       = 00000305
DEV$M_ODV      = 08000000            IO$_SENSECHAR    ********   X   04   JPI$_TMBU      = 0000030B
DEV$M_RCK      = 40000000            IO$_SENSEMODE    ********   X   04   JPI$_TQCNT     = 00000315
DEV$M_REC      = 00000001            IOSB             00000008 R     03   JPI$_TQLM      = 00000410
DEV$M_RND      = 10000000            JPI$C_ADRTYPE  = 00000001            JPI$_UIC       = 00000304
DEV$M_RTM      = 20000000            JPI$C_CTLTYPE  = 00000002            JPI$_USERNAME  = 00000202
DEV$M_SDI      = 00000010            JPI$C_LISTEND  = 00000000            JPI$_VIRTPEAK  = 00000200
DEV$M_SHR      = 00010000            JPI$C_PCBTYPE  = 00000003            JPI$_VOLUMES   = 00000205
DEV$M_SPL      = 00000040            JPI$C_PHDTYPE  = 00000004            JPI$_WSAUTH    = 00000401
DEV$M_SQD      = 00000020            JPI$_ACCOUNT   = 00000203            JPI$_WSPEAK    = 00000201
DEV$M_SWL      = 02000000            JPI$_APTCNT    = 0000030A            JPI$_WSQUOTA   = 00000402
DEV$M_TRM      = 00000004            JPI$_ASTACT    = 00000300            JPI$_WSSIZE    = 00000411
DEV$M_WCK      = 80000000            JPI$_ASTCNT    = 0000030E            JPI_ITEM         0000051E R     03
DEV$V_ALL      = 00000017            JPI$_ASTEN     = 00000301            NEGITIVE_NAME    000003CE R     03
DEV$V_AVL      = 00000012            JPI$_ASTLM     = 00000409            NOPAR            000004CC R     03
DEV$V_CCL      = 00000001            JPI$_BIOCNT    = 0000030F            NOT_PERM         0000012B R     04
DEV$V_DIR      = 00000003            JPI$_BIOLM     = 00000310            NO_OWNER         0000052E R     03
DEV$V_DMT      = 00000015            JPI$_BUFIO     = 0000040C            NULL_STRING      000000FC R     03
DEV$V_ELG      = 00000016            JPI$_BYTCNT    = 00000311            OPAR             000004C8 R     03
DEV$V_FOD      = 0000000E            JPI$_BYTLM     = 0000031A            OWNER_NAME       00000502 R     03
DEV$V_FOR      = 00000018            JPI$_CPULIM    = 0000040D            PERM             000000E8 R     04
DEV$V_GEN      = 00000011            JPI$_CPUTIM    = 00000407            POSITIVE_NAME    000002E9 R     03
DEV$V_IDV      = 0000001A            JPI$_CURPRIV   = 00000400            PRINT            0000012D R     04
DEV$V_MBX      = 00000014            JPI$_DFPFC     = 00000406            PRO_B_FLAGS      00000001
DEV$V_MNT      = 00000013            JPI$_DFWSCNT   = 00000403            PRO_B_PROMPT     00000000
DEV$V_NET      = 0000000D            JPI$_DIOCNT    = 00000312            PRO_K_LENGTH     00000002
DEV$V_ODV      = 0000001B            JPI$_DIOLM     = 00000313            PRO_M_CONCAT   = 00000001
DEV$V_RCK      = 0000001E            JPI$_DIRIO     = 0000040B            PRO_M_IMPCAT   = 00000002
DEV$V_REC      = 00000000            JPI$_EFCS      = 00000317            PRO_M_LIST     = 00000004
DEV$V_RND      = 0000001C            JPI$_EFCU      = 00000318            PRO_M_OPTION   = 00000008
DEV$V_RTM      = 0000001D            JPI$_EFWM      = 00000316            PRO_M_REQ      = 00000010
DEV$V_SDI      = 00000004            JPI$_EXCVEC    = 00000100            PRO_M_STRING   = 00000020
DEV$V_SHR      = 00000010            JPI$_FILCNT    = 00000314            PRO_V_CONCAT   = 00000000
DEV$V_SPL      = 00000006            JPI$_FILLM     = 0000040F            PRO_V_IMPCAT   = 00000001
DEV$V_SQD      = 00000005            JPI$_FINALEXC  = 00000101            PRO_V_LIST     = 00000002
DEV$V_SWL      = 00000019            JPI$_FREP0VA   = 00000404            PRO_V_OPTION   = 00000003
DEV$V_TRM      = 00000002            JPI$_FREP1VA   = 00000405            PRO_V_REQ      = 00000004
DEV$V_WCK      = 0000001F            JPI$_GPGCNT    = 0000030C            PRO_V_STRING   = 00000005
DIB$B_DEVCLASS   00000004            JPI$_GRP       = 00000308            QUAL_LIST        00000135 R     03
DIB$B_DEVTYPE    00000005            JPI$_LASTADR   = 00000102            QUA_B_DEFVAL     00000002
DIB$C_LENGTH     00000024            JPI$_LASTCTL   = 00000207            QUA_B_IMAGE      00000005
DIB$K_LENGTH     00000024            JPI$_LASTPCB   = 0000031D            QUA_B_INDEX      00000001
DIB$L_DEVCHAR    00000000            JPI$_LASTPHD   = 00000412            QUA_B_OFFSET     00000000
SHOWTERM        - SHOW CHARACTERISTICS OF A TERMINAL             21-AUG-1978 19:26:37   VAX-11 MACRO X0.3-11               Page  11
SYMBOL TABLE                                                                                                                     (2)

QUA_B_PARMCNT    00000008            SYS$QIOW         ********   X   04   TT$V_PAGE      = 00000019
QUA_G_CHNGLST    00000006            SYS$TRNLOG       ********   X   04   TT$V_PARITY    = 00000006
QUA_M_BATDEF   = 00000100            SYS_COMMAND      000004EF R     03   TT$V_PASSALL   = 00000000
QUA_M_CHNGLIST = 00000001            TERMNAME         000000FD R     03   TT$V_READSYNC  = 00000012
QUA_M_DEFTRUE  = 00000080            TT$C_BAUD_110  = 00000003            TT$V_REMOTE    = 0000000D
QUA_M_FILE     = 00000004            TT$C_BAUD_1200 = 00000008            TT$V_SCOPE     = 0000000C
QUA_M_IMAGE    = 00000400            TT$C_BAUD_134  = 00000004            TT$V_SCRIPT    = 00000006
QUA_M_INTDEF   = 00000200            TT$C_BAUD_150  = 00000005            TT$V_TTSYNC    = 00000005
QUA_M_KEYVAL   = 00004000            TT$C_BAUD_1800 = 00000009            TT$V_WRAP      = 00000009
QUA_M_LOCALKEY = 00000002            TT$C_BAUD_2000 = 0000000A            TT$_LA36       = 00000020
QUA_M_NEG      = 00000040            TT$C_BAUD_2400 = 0000000B            TT$_LAX        = 00000020
QUA_M_ONEVAL   = 00002000            TT$C_BAUD_300  = 00000006            TT$_UNKNOWN    = 00000000
QUA_M_OUTPUT   = 00000800            TT$C_BAUD_3600 = 0000000C            TT$_VT05       = 00000001
QUA_M_PARM     = 00000010            TT$C_BAUD_4800 = 0000000D            TT$_VT52       = 00000040
QUA_M_VAL      = 00000020            TT$C_BAUD_50   = 00000001            TT$_VT55       = 00000041
QUA_M_VALREQ   = 00001000            TT$C_BAUD_600  = 00000007            TT$_VT5X       = 00000040
QUA_M_VERB     = 00000008            TT$C_BAUD_7200 = 0000000E            TYPE_NAME        0000014D R     03
QUA_S_MAXPARM  = 00000004            TT$C_BAUD_75   = 00000002            UTIL_DESC        00000010 R     03
QUA_S_MINPARM  = 00000004            TT$C_BAUD_9600 = 0000000F
QUA_V_BATDEF   = 00000008            TT$M_ALTRPAR   = 00000020
QUA_V_CHNGLIST = 00000000            TT$M_CRFILL    = 00000400
QUA_V_DEFTRUE  = 00000007            TT$M_EIGHTBIT  = 00008000
QUA_V_FILE     = 00000002            TT$M_ESCAPE    = 00000008
QUA_V_IMAGE    = 0000000A            TT$M_HOLDSCREEN= 00004000
QUA_V_INTDEF   = 00000009            TT$M_HOSTSYNC  = 00000010
QUA_V_KEYVAL   = 0000000E            TT$M_LFFILL    = 00000800
QUA_V_LOCALKEY = 00000001            TT$M_LOWER     = 00000080
QUA_V_MAXPARM  = 00000004            TT$M_MBXDSABL  = 00010000
QUA_V_MINPARM  = 00000000            TT$M_MECHTAB   = 00000100
QUA_V_NEG      = 00000006            TT$M_NOBRDCST  = 00020000
QUA_V_ONEVAL   = 0000000D            TT$M_NOECHO    = 00000002
QUA_V_OUTPUT   = 0000000B            TT$M_NOTYPEAHD = 00000004
QUA_V_PARM     = 00000004            TT$M_ODD       = 00000080
QUA_V_VAL      = 00000005            TT$M_PAGE      = FE000000
QUA_V_VALREQ   = 0000000C            TT$M_PARITY    = 00000040
QUA_V_VERB     = 00000003            TT$M_PASSALL   = 00000001
QUA_W_FLAGS      00000003            TT$M_READSYNC  = 00040000
QUA_W_PROMPT     00000009            TT$M_REMOTE    = 00002000
QUA_W_QUALIST    00000006            TT$M_SCOPE     = 00001000
SHOW$A_CLIWORK   ********   X   04   TT$M_SCRIPT    = 00000040
SHOW$GQ_OUT_DSC  ********   X   04   TT$M_TTSYNC    = 00000020
SHOW$L_STATUS    ********   X   04   TT$M_WRAP      = 00000200
SHOW$PRINT_MSG   ********   X   04   TT$S_PAGE      = 00000008
SHOW$TERM        00000000 RG    04   TT$V_ALTRPAR   = 00000005
SHOW$_TERM_L1    ********   X   04   TT$V_CRFILL    = 0000000A
SHOW$_TERM_L2    ********   X   04   TT$V_EIGHTBIT  = 0000000F
SHOW$_TERM_L3    ********   X   04   TT$V_ESCAPE    = 00000003
SHOW$_TTLP_SPL   ********   X   04   TT$V_HOLDSCREEN= 0000000E
SPEED            000004CF R     03   TT$V_HOSTSYNC  = 00000004
SPOOL_DEV        00000054 R     03   TT$V_LFFILL    = 0000000B
SS$_IVDEVNAM     ********   X   04   TT$V_LOWER     = 00000007
SS$_NOPRIV       ********   X   04   TT$V_MBXDSABL  = 00000010
SS$_NOTRAN       ********   X   04   TT$V_MECHTAB   = 00000008
SYS$ASSIGN       ********   X   04   TT$V_NOBRDCST  = 00000011
SYS$DASSGN       ********   X   04   TT$V_NOECHO    = 00000001
SYS$GETDEV       ********   X   04   TT$V_NOTYPEAHD = 00000002
SYS$GETJPI       ********   X   04   TT$V_ODD       = 00000007
SHOWTERM        - SHOW CHARACTERISTICS OF A TERMINAL             21-AUG-1978 19:26:37   VAX-11 MACRO X0.3-11               Page  12
PROGRAM SECTION SYNOPSIS                                                                                                         (2)


PROGRAM SECTION SYNOPSIS

.  ABS  .        00000000      00     NOPIC   USR   CON   ABS   LCL NOSHR NOEXE NORD  NOWRT BYTE
. BLANK .        00000000      01     NOPIC   USR   CON   REL   LCL NOSHR   EXE   RD    WRT BYTE
$ABS$            00000080      02     NOPIC   USR   CON   ABS   LCL NOSHR   EXE   RD    WRT BYTE
SHOW$RWDATA      0000053A      03     NOPIC   USR   CON   REL   LCL NOSHR NOEXE   RD    WRT LONG
SHOW$CODE        00000262      04     NOPIC   USR   CON   REL   LCL NOSHR   EXE   RD  NOWRT BYTE


THERE WERE NO ERRORS OR WARNINGS.
7964. BYTES LEFT IN FREE MEMORY POOL.
1206. BYTES OF RECLAIMED MEMORY.
OBJ$:SHOWTERM,LIS$:SHOWTERM/-SP=EXECML$/ML,LIB$:CLIUTL/ML,SRC$:SHOWTERM
68 MLB DIR RDS - 857 GETS TO DEFINE 37 MACROS. 64 INTER. FILE WRITES.
