STAQUAL         - QUALIFIERS FOR START QUEUE COMMAND             21-AUG-1978 19:29:05   VAX-11 MACRO X0.3-11               Page   0
TABLE OF CONTENTS

   (2)      39  DECLARATIONS
STAQUAL         - QUALIFIERS FOR START QUEUE COMMAND             21-AUG-1978 19:29:05   VAX-11 MACRO X0.3-11               Page   1
V01                                                                                                                              (1)

                                     0000     1 	.TITLE	STAQUAL - QUALIFIERS FOR START QUEUE COMMAND
                                     0000     2 	.IDENT	/V01/
                                     0000     3
                                     0000     4 ;
                                     0000     5 ;			  COPYRIGHT (c) 1977 BY
                                     0000     6 ;	      DIGITAL EQUIPMENT CORPORATION, MAYNARD, MASS.
                                     0000     7 ;
                                     0000     8 ; THIS SOFTWARE IS FURNISHED UNDER A LICENSE ANY MAY BE USED AND  COPIED
                                     0000     9 ; ONLY  IN  ACCORDANCE  WITH  THE  TERMS  OF  SUCH  LICENSE AND WITH THE
                                     0000    10 ; INCLUSION OF THE ABOVE COPYRIGHT NOTICE.  THIS SOFTWARE OR  ANY  OTHER
                                     0000    11 ; COPIES  THEREOF MAY NOT BE PROVIDED OR OTHERWISE MADE AVAILABLE TO ANY
                                     0000    12 ; OTHER PERSON.  NO TITLE TO AND OWNERSHIP OF  THE  SOFTWARE  IS  HEREBY
                                     0000    13 ; TRANSFERRED.
                                     0000    14 ;
                                     0000    15 ; THE INFORMATION IN THIS SOFTWARE IS SUBJECT TO CHANGE  WITHOUT  NOTICE
                                     0000    16 ; AND  SHOULD  NOT  BE  CONSTRUED  AS  A COMMITMENT BY DIGITAL EQUIPMENT
                                     0000    17 ; CORPORATION.
                                     0000    18 ;
                                     0000    19 ; DIGITAL ASSUMES NO RESPONSIBILITY FOR THE USE OR  RELIABILITY  OF  ITS
                                     0000    20 ; SOFTWARE ON EQUIPMENT WHICH IS NOT SUPPLIED BY DIGITAL.
                                     0000    21 ;
                                     0000    22
                                     0000    23 ;++
                                     0000    24 ; FACILITY:	CLI UTILITY PROGRAMS
                                     0000    25 ;
                                     0000    26 ; ABSTRACT:	START/RESTART A PRINT QUEUE QUALIFIERS
                                     0000    27 ;
                                     0000    28 ;
                                     0000    29 ; ENVIRONMENT:	NATIVE/USER MODE NON-PRIVILEGED CODE
                                     0000    30 ;
                                     0000    31 ; AUTHOR:	W.H.BROWN, CREATION DATE: 14-JUNE-1977
                                     0000    32 ;
                                     0000    33 ; MODIFIED BY:
                                     0000    34 ;
                                     0000    35 ;	, : VERSION
                                     0000    36 ; 01	-
                                     0000    37 ;--
STAQUAL         - QUALIFIERS FOR START QUEUE COMMAND             21-AUG-1978 19:29:05   VAX-11 MACRO X0.3-11               Page   2
V01             DECLARATIONS                                                                                                     (2)

                                     0000    39 	.SBTTL	DECLARATIONS
                                     0000    40 ;
                                     0000    41 ; INCLUDED FILES:
                                     0000    42 ;
                                     0000    43 ;	[231,10]U.MLB			; UTILITY MACRO LIBRARY
                                     0000    44 ;
                                     0000    45 ; MACROS:
                                     0000    46
                                     0000    47 ;
                                     0000    48 ; EQUATED SYMBOLS:
                                     0000    49 ;
                                     0000    50 ; MACRO LIBRARY CALLS
                                     0000    51 ;
                                     0000    52 	$CLIDEF				; CLI DEFINITIONS
                                     0000    53 	$CLIDEFQUALSTAR			; DEFINE QUALIFIER CODES
                                     0000    54 	QMNBITS				; DEFINE QUEUE MANAGER BITS
                                     0000    55 ;
                                     0000    56 ; OWN STORAGE:
                                     0000    57 ;
                                     0000    58 	IMPURE_DATA
                                     0000    59
                                     0000    60 STA$G_QUALS::				; QUALIFIERS FOR START
                                     0000    61 	$CLIQUALDESC QDCODE=CLI$K_STAR_QUEU ; IMAGE ACTIVATION QUALIFIER
                                     0017    62
                                     0017    63 	$CLIQUALDESC QDCODE=CLI$K_STAR_BACK,- ; RESTART-BACKING UP SOME
                                     0017    64 		TSTLST=QMN_V_START,-	; CONFLICTS WITH START OPTIONS
                                     0017    65 		SETLST=QMN_V_RESTART,-	; FLAG RESTART OPTION SEEN
                                     0017    66 		TRUACT=QMN_BACKSPACE	; TRUE ACTION ROUTINE
                                     0030    67
                                     0030    68
                                     0030    69 	$CLIQUALDESC QDCODE=CLI$K_STAR_BATC,-; START A QUEUE FOR BATCH
                                     0030    70 		TSTLST=<QMN_V_DEVICE,-	; CHECK FOR CONFLICT WITH DEVICE OPTIONS
                                     0030    71 			QMN_V_RESTART>,-; AND RESTART OPTIONS
                                     0030    72 		SETLST=<QMN_V_BATCH,-	; SET BATCH OPTION PRESENT
                                     0030    73 			QMN_V_START>,-	; AND START OPERATION IN PROGRESS
                                     0030    74 		TRUACT=QMN_BATCH	; QUALIFIER TRUE ACTION
                                     004B    75
                                     004B    76 	$CLIQUALDESC QDCODE=CLI$K_STAR_BURS,-; START A QUEUE WITH BURST PAGE
                                     004B    77 		TSTLST=<QMN_V_BATCH,-	; CHECK FOR CONFLICT WITH BATCH OPTIONS
                                     004B    78 			QMN_V_RESTART>,-; AND RESTART OPERATIONS
                                     004B    79 		SETLST=<QMN_V_DEVICE,-	; SET FLAG FOR DEVICE OPTIONS PRESENT
                                     004B    80 			QMN_V_START>,-	; AND START AS WELL
                                     004B    81 		FLSACT=QMN_NOBRST,-	; QUALIFIER FALSE ACTION ROUTINE
                                     004B    82 		TRUACT=QMN_BURST	; QUALIFIER TRUE ACTION ROUTINE
                                     0066    83
                                     0066    84 	$CLIQUALDESC QDCODE=CLI$K_STAR_DISA,- ; DISABLE JOB SWAP MODE
                                     0066    85 		TSTLST=<QMN_V_DEVICE,-	; CHECK FOR CONFLICT WITH DEVICE OPTIONS
                                     0066    86 			QMN_V_RESTART>,- ; AND RESTART OPTIONS
                                     0066    87 		SETLST=<QMN_V_BATCH,-	; SET BATCH OPTION PRESENT
                                     0066    88 			QMN_V_START>,-	; AND START OPERATION IN PROGRESS
                                     0066    89 		TRUACT=QMN_NOSWAP	; DISABLE SWAPPING
                                     0081    90
                                     0081    91 	$CLIQUALDESC QDCODE=CLI$K_STAR_ENAB,- ; ENABLE GENERIC PRINTING
                                     0081    92 		TSTLST=<QMN_V_BATCH,-	; CHECK FOR CONFLICT WITH BATCH OPTIONS
                                     0081    93 			QMN_V_RESTART>,- ; AND RESTART OPERATIONS
                                     0081    94 		SETLST=<QMN_V_DEVICE,-	; SET FLAG FOR DEVICE OPTIONS PRESENT
                                     0081    95 			QMN_V_START>,-	; AND START OPTIONS
STAQUAL         - QUALIFIERS FOR START QUEUE COMMAND             21-AUG-1978 19:29:05   VAX-11 MACRO X0.3-11               Page   3
V01             DECLARATIONS                                                                                                     (2)

                                     0081    96 		FLSACT=QMN_NOGENPRT,-	; QUALIFIER FALSE ACTION ROUTINE
                                     0081    97 		TRUACT=QMN_GENPRT	; QUALIFIER TRUE ACTION ROUTINE
                                     009C    98
                                     009C    99 	$CLIQUALDESC QDCODE=CLI$K_STAR_FLAG,-; START QUEUE - FLAG PAGE DEFAULTED
                                     009C   100 		TSTLST=<QMN_V_BATCH,-	; CHECK FOR CONFLICT WITH BATCH
                                     009C   101 			QMN_V_RESTART>,-; AND RESTART OPTIONS
                                     009C   102 		SETLST=<QMN_V_DEVICE,-	; SET FLAG FOR DEVICE OPTIONS PRESENT
                                     009C   103 			QMN_V_START>,-	; AND START
                                     009C   104 		FLSACT=QMN_NOFLAG,-	; QUALIFIER FALSE ACTION ROUTINE
                                     009C   105 		TRUACT=QMN_FLAG		; QUALIFIER TRUE ACTION ROUTINE
                                     00B7   106
                                     00B7   107 	$CLIQUALDESC QDCODE=CLI$K_STAR_FORM,-; FORMS TYPE OPTION
                                     00B7   108 		TSTLST=<QMN_V_BATCH,-	; CHECK FOR CONFLICT WITH BATCH
                                     00B7   109 			QMN_V_RESTART>,-; AND RESTART OPTIONS
                                     00B7   110 		SETLST=<QMN_V_DEVICE,-	; SET FLAG FOR DEVICE OPTIONS PRESENT
                                     00B7   111 			QMN_V_START>,-	; AND START
                                     00B7   112 		TRUACT=QMN_FORMS	; QUALIFIER TRUE ACTION ROUTINE
                                     00D2   113
                                     00D2   114 	$CLIQUALDESC QDCODE=CLI$K_STAR_FORW,- ; RESTART-SPACING UP SOME
                                     00D2   115 		TSTLST=QMN_V_START,-	; CONFLICTS WITH START OPTIONS
                                     00D2   116 		SETLST=QMN_V_RESTART,-	; FLAG RESTART OPTION SEEN
                                     00D2   117 		TRUACT=QMN_FWRDSPACE	; TRUE ACTION ROUTINE
                                     00EB   118
                                     00EB   119 	$CLIQUALDESC QDCODE=CLI$K_STAR_GENE,-; STAR A QUEUE FOR GENERIC DEVICE
                                     00EB   120 		TSTLST=<QMN_V_BATCH,-	; CHECK FOR CONFLICT WITH BATCH
                                     00EB   121 			QMN_V_RESTART>,-; AND RESTART OPTIONS
                                     00EB   122 		SETLST=<QMN_V_DEVICE,-	; SET FLAG FOR DEVICE OPTIONS PRESENT
                                     00EB   123 			QMN_V_START>,-	; AND START
                                     00EB   124 		FLSACT=QMN_NOGENDEV,-	; QUALIFIER FALSE ACTION ROUTINE
                                     00EB   125 		TRUACT=QMN_GENERIC	; QUALIFIER TRUE ACTION ROUTINE
                                     0106   126
                                     0106   127 	$CLIQUALDESC QDCODE=CLI$K_STAR_JOB_,- ; JOB LIMIT QUALIFIER
                                     0106   128 		TSTLST=<QMN_V_DEVICE,-	; CHECK FOR CONFLICT WITH DEVICE OPTIONS
                                     0106   129 			QMN_V_RESTART>,- ; AND RESTART OPTIONS
                                     0106   130 		SETLST=<QMN_V_BATCH,-	; SET BATCH OPTION PRESENT
                                     0106   131 			QMN_V_START>,-	; AND START OPERATION IN PROGRESS
                                     0106   132 		TRUACT=QMN_JOBCOUNT	; TRUE ACTION FOR JOB LIMIT
                                     0121   133
                                     0121   134 	$CLIQUALDESC QDCODE=CLI$K_STAR_NEXT,- ; RESTART-GIVE UP ON CURRENT JOB
                                     0121   135 		TSTLST=<QMN_V_BATCH,-	; CHECK FOR CONFLICT WITH BATCH
                                     0121   136 			QMN_V_START>,-	; AND START OPTIONS
                                     0121   137 		SETLST=<QMN_V_DEVICE,-	; SET FLAG FOR DEVICE OPTIONS PRESENT
                                     0121   138 			QMN_V_RESTART>,-; AND RESTART
                                     0121   139 		TRUACT=QMN_NEXTJOB	; TRUE ACTION ROUTINE
                                     013C   140
                                     013C   141 	$CLIQUALDESC QDCODE=CLI$K_STAR_PRIO,- ; BATCH INITIATION PRIORITY
                                     013C   142 		TSTLST=<QMN_V_DEVICE,-	; CHECK FOR CONFLICT WITH DEVICE OPTIONS
                                     013C   143 			QMN_V_RESTART>,- ; AND RESTART OPTIONS
                                     013C   144 		SETLST=<QMN_V_BATCH,-	; SET BATCH OPTION PRESENT
                                     013C   145 			QMN_V_START>,-	; AND START OPERATION IN PROGRESS
                                     013C   146 		TRUACT=QMN_BATPRI	; INITAL PRIORITY
                                     0157   147
                                     0157   148 	$CLIQUALDESC QDCODE=CLI$K_STAR_TERM,- ; DEVICE IS A TERMINAL OPTION
                                     0157   149 		TSTLST=<QMN_V_BATCH,-	; CHECK FOR CONFLICT WITH BATCH
                                     0157   150 			QMN_V_RESTART>,-; AND RESTART OPTIONS
                                     0157   151 		SETLST=<QMN_V_DEVICE,-	; SET FLAG FOR DEVICE OPTIONS PRESENT
                                     0157   152 			QMN_V_START>,-	; AND START
STAQUAL         - QUALIFIERS FOR START QUEUE COMMAND             21-AUG-1978 19:29:05   VAX-11 MACRO X0.3-11               Page   4
V01             DECLARATIONS                                                                                                     (2)

                                     0157   153 		FLSACT=QMN_NOTERM,-	; QUALIFIER FALSE ACTION ROUTINE
                                     0157   154 		TRUACT=QMN_TERMDEV	; QUALIFIER TRUE ACTION ROUTINE
                                     0172   155
                                     0172   156 	$CLIQUALDESC QDCODE=CLI$K_STAR_TOP_,- ; RESTART-AT THE TOP_OF_FILE
                                     0172   157 		TSTLST=<QMN_V_BATCH,-	; CHECK FOR CONFLICT WITH BATCH
                                     0172   158 			QMN_V_START>,-	; AND START OPTIONS
                                     0172   159 		SETLST=<QMN_V_DEVICE,-	; SET FLAG FOR DEVICE OPTIONS PRESENT
                                     0172   160 			QMN_V_RESTART>,-; AND RESTART
                                     0172   161 		TRUACT=QMN_TOPOFILE	; TRUE ACTION ROUTINE
                                     018D   162
                                     018D   163 	$CLIQUALDESC	END_LIST
                                     018E   164
                                     018E   165 	.END
STAQUAL         - QUALIFIERS FOR START QUEUE COMMAND             21-AUG-1978 19:29:05   VAX-11 MACRO X0.3-11               Page   5
SYMBOL TABLE                                                                                                                     (2)

$$$            = 00000004            CLI$K_QUALDEF    00000014            CLI$V_BATCH    = 00000003
$$$GBL         = 00000000            CLI$K_REQDESC    0000001C            CLI$V_CONCATINP= 00000001
$CLI.          = 00000172 R     03   CLI$K_STAR_BACK= 00000001            CLI$V_DBGEXCP  = 00000010
$CLI..         = 0000018D R     03   CLI$K_STAR_BATC= 00000002            CLI$V_DBGTRU   = 00000001
$QUALNUM$      = 00000010            CLI$K_STAR_BURS= 00000003            CLI$V_DEBUG    = 00000000
BIT...         = 00000005            CLI$K_STAR_DISA= 00000004            CLI$V_DUMMY    = 00000001
CLI$A_ABSACT     00000014            CLI$K_STAR_ENAB= 00000005            CLI$V_EXPNAM   = 00000002
CLI$A_ERRACT     00000004            CLI$K_STAR_FLAG= 00000006            CLI$V_INDIRECT = 00000004
CLI$A_FLSACT     00000010            CLI$K_STAR_FORM= 00000007            CLI$V_KEYVALU  = 00000001
CLI$A_IMGFILED   00000010            CLI$K_STAR_FORW= 00000008            CLI$V_LASTVAL  = 00000000
CLI$A_IMGHDADR   0000000C            CLI$K_STAR_GENE= 00000009            CLI$V_MOREINP  = 00000002
CLI$A_PROGXFER   00000004            CLI$K_STAR_JOB_= 0000000A            CLI$V_MOREVALS = 00000000
CLI$A_PRSACT     00000010            CLI$K_STAR_NEXT= 0000000B            CLI$V_PARMDEF  = 00000003
CLI$A_QDVALADR   00000008            CLI$K_STAR_PRIO= 0000000C            CLI$V_PARMPRS  = 00000000
CLI$A_QUALST     00000018            CLI$K_STAR_QUEU= 0000000D            CLI$V_PARMREQ  = 00000000
CLI$A_RQADDR     0000000C            CLI$K_STAR_TERM= 0000000E            CLI$V_PRITYP   = 00000004
CLI$A_TRUACT     0000000C            CLI$K_STAR_TOP_= 0000000F            CLI$V_QDEXPA   = 00000002
CLI$A_UTILSERV   00000008            CLI$K_UTILOPR  = 00000000            CLI$V_QDUSRV   = 00000001
CLI$B_BITNUM     00000001            CLI$K_VALCONV  = 00000004            CLI$V_QUALEXP  = 00000001
CLI$B_QDBLKSIZ   00000000            CLI$K_WORKAREA   00000080            CLI$V_QUALTRU  = 00000000
CLI$B_QDCODE     00000001            CLI$L_CLIFLAG    00000018            CLI$V_SUBTYP   = 00000000
CLI$B_QDFLGS     00000002            CLI$L_INIARGCNT  00000000            CLI$V_TRMVRBLV = 00000008
CLI$B_QDSTAT     00000003            CLI$L_LINKFLAG   00000014            CLI$V_VERIFY   = 00000002
CLI$B_RQFLGS     00000002            CLI$L_RQVALU     0000000C            CLI$V_VFYINP   = 00000005
CLI$B_RQINDX     00000001            CLI$L_USRVAL     00000014            CLI$W_QDVALSIZ   00000004
CLI$B_RQSTAT     00000003            CLI$L_WORKAREA   00000000            CLI$W_RQSIZE     00000008
CLI$B_RQTYPE     00000000            CLI$M_ABSADR   = 00000002            CLI$W_SERVCOD    00000001
CLI$C_QDBITS     00000014            CLI$M_ALLOCCUR = 00000001            GBL...         = 00000000
CLI$C_QUALDEF    00000014            CLI$M_BATCH    = 00000008            PRO_B_FLAGS      00000001
CLI$C_REQDESC    0000001C            CLI$M_CONCATINP= 00000002            PRO_B_PROMPT     00000000
CLI$C_WORKAREA   00000080            CLI$M_DBGEXCP  = 00010000            PRO_K_LENGTH     00000002
CLI$K_ASCIIVAL = 00000041            CLI$M_DBGTRU   = 00000002            PRO_M_CONCAT   = 00000001
CLI$K_CLISERV  = 00000005            CLI$M_DEBUG    = 00000001            PRO_M_IMPCAT   = 00000002
CLI$K_ENDPRM1  = 00000030            CLI$M_DUMMY    = 00000002            PRO_M_LIST     = 00000004
CLI$K_ENDPRM2  = 00000031            CLI$M_EXPNAM   = 00000004            PRO_M_OPTION   = 00000008
CLI$K_ENDPRM3  = 00000032            CLI$M_INDIRECT = 00000010            PRO_M_REQ      = 00000010
CLI$K_ENDPRM4  = 00000033            CLI$M_KEYVALU  = 00000002            PRO_M_STRING   = 00000020
CLI$K_FILSPEC  = 00000044            CLI$M_LASTVAL  = 00000001            PRO_V_CONCAT   = 00000000
CLI$K_GETCMD   = 00000001            CLI$M_MOREINP  = 00000004            PRO_V_IMPCAT   = 00000001
CLI$K_GETOPT   = 00000003            CLI$M_MOREVALS = 00000001            PRO_V_LIST     = 00000002
CLI$K_GETQUAL  = 00000002            CLI$M_PARMDEF  = 00000008            PRO_V_OPTION   = 00000003
CLI$K_INITPRS  = 00000000            CLI$M_PARMPRS  = 00000001            PRO_V_REQ      = 00000004
CLI$K_INPSPEC  = 00000001            CLI$M_PARMREQ  = 00000001            PRO_V_STRING   = 00000005
CLI$K_INPUT1   = 00000010            CLI$M_QDEXPA   = 00000004            QMN_BACKSPACE    ********   X   03
CLI$K_INPUT2   = 00000011            CLI$M_QDUSRV   = 00000002            QMN_BATCH        ********   X   03
CLI$K_INPUT3   = 00000012            CLI$M_QUALEXP  = 00000002            QMN_BATPRI       ********   X   03
CLI$K_INPUT4   = 00000013            CLI$M_QUALTRU  = 00000001            QMN_BURST        ********   X   03
CLI$K_KEYVAL   = 00000043            CLI$M_TRMVRBLV = 00000300            QMN_FLAG         ********   X   03
CLI$K_KEYWORD  = 00000042            CLI$M_VERIFY   = 00000004            QMN_FORMS        ********   X   03
CLI$K_NUMERVAL = 00000040            CLI$M_VFYINP   = 00000020            QMN_FWRDSPACE    ********   X   03
CLI$K_OUTPUT1  = 00000020            CLI$Q_QDVALDESC  00000004            QMN_GENERIC      ********   X   03
CLI$K_OUTPUT2  = 00000021            CLI$Q_RQDESC     00000008            QMN_GENPRT       ********   X   03
CLI$K_OUTPUT3  = 00000022            CLI$S_PRITYP   = 00000004            QMN_JOBCOUNT     ********   X   03
CLI$K_OUTPUT4  = 00000023            CLI$S_SUBTYP   = 00000004            QMN_NEXTJOB      ********   X   03
CLI$K_OUTSPEC  = 00000002            CLI$S_TRMVRBLV = 00000002            QMN_NOBRST       ********   X   03
CLI$K_PARDONE  = 00000003            CLI$V_ABSADR   = 00000001            QMN_NOFLAG       ********   X   03
CLI$K_QDBITS     00000014            CLI$V_ALLOCCUR = 00000000            QMN_NOGENDEV     ********   X   03
STAQUAL         - QUALIFIERS FOR START QUEUE COMMAND             21-AUG-1978 19:29:05   VAX-11 MACRO X0.3-11               Page   6
SYMBOL TABLE                                                                                                                     (2)

QMN_NOGENPRT     ********   X   03
QMN_NOSWAP       ********   X   03
QMN_NOTERM       ********   X   03
QMN_TERMDEV      ********   X   03
QMN_TOPOFILE     ********   X   03
QMN_V_BATCH    = 00000001
QMN_V_DEVICE   = 00000002
QMN_V_RESTART  = 00000004
QMN_V_START    = 00000003
QUA_B_DEFVAL     00000002
QUA_B_IMAGE      00000005
QUA_B_INDEX      00000001
QUA_B_OFFSET     00000000
QUA_B_PARMCNT    00000008
QUA_G_CHNGLST    00000006
QUA_M_BATDEF   = 00000100
QUA_M_CHNGLIST = 00000001
QUA_M_DEFTRUE  = 00000080
QUA_M_FILE     = 00000004
QUA_M_IMAGE    = 00000400
QUA_M_INTDEF   = 00000200
QUA_M_KEYVAL   = 00004000
QUA_M_LOCALKEY = 00000002
QUA_M_NEG      = 00000040
QUA_M_ONEVAL   = 00002000
QUA_M_OUTPUT   = 00000800
QUA_M_PARM     = 00000010
QUA_M_VAL      = 00000020
QUA_M_VALREQ   = 00001000
QUA_M_VERB     = 00000008
QUA_S_MAXPARM  = 00000004
QUA_S_MINPARM  = 00000004
QUA_V_BATDEF   = 00000008
QUA_V_CHNGLIST = 00000000
QUA_V_DEFTRUE  = 00000007
QUA_V_FILE     = 00000002
QUA_V_IMAGE    = 0000000A
QUA_V_INTDEF   = 00000009
QUA_V_KEYVAL   = 0000000E
QUA_V_LOCALKEY = 00000001
QUA_V_MAXPARM  = 00000004
QUA_V_MINPARM  = 00000000
QUA_V_NEG      = 00000006
QUA_V_ONEVAL   = 0000000D
QUA_V_OUTPUT   = 0000000B
QUA_V_PARM     = 00000004
QUA_V_VAL      = 00000005
QUA_V_VALREQ   = 0000000C
QUA_V_VERB     = 00000003
QUA_W_FLAGS      00000003
QUA_W_PROMPT     00000009
QUA_W_QUALIST    00000006
STA$G_QUALS      00000000 RG    03


PROGRAM SECTION SYNOPSIS

STAQUAL         - QUALIFIERS FOR START QUEUE COMMAND             21-AUG-1978 19:29:05   VAX-11 MACRO X0.3-11               Page   7
PROGRAM SECTION SYNOPSIS                                                                                                         (2)

.  ABS  .        00000000      00     NOPIC   USR   CON   ABS   LCL NOSHR NOEXE NORD  NOWRT BYTE
. BLANK .        00000000      01     NOPIC   USR   CON   REL   LCL NOSHR   EXE   RD    WRT BYTE
$ABS$            00000080      02     NOPIC   USR   CON   ABS   LCL NOSHR   EXE   RD    WRT BYTE
RWDATA           0000018E      03     NOPIC   USR   CON   REL   LCL NOSHR NOEXE   RD    WRT BYTE


THERE WERE NO ERRORS OR WARNINGS.
16252. BYTES LEFT IN FREE MEMORY POOL.
1716. BYTES OF RECLAIMED MEMORY.
OBJ$:STAQUAL,LIS$:STAQUAL/-SP=EXECML$/ML,LIB$:CLIUTL/ML,SRC$:STAQUAL
37 MLB DIR RDS - 486 GETS TO DEFINE 24 MACROS. 44 INTER. FILE WRITES.
