SUBMITRWD       - SUBMIT READ/WRITE DATA MODULE                  21-AUG-1978 19:32:02   VAX-11 MACRO X0.3-11               Page   0
TABLE OF CONTENTS

   (2)      40  DECLARATIONS
SUBMITRWD       - SUBMIT READ/WRITE DATA MODULE                  21-AUG-1978 19:32:02   VAX-11 MACRO X0.3-11               Page   1
V01                                                                                                                              (1)

                                     0000     1 	.TITLE	SUBMITRWD - SUBMIT READ/WRITE DATA MODULE
                                     0000     2 	.IDENT	/V01/
                                     0000     3
                                     0000     4 ;
                                     0000     5 ; COPYRIGHT (C) 1977
                                     0000     6 ; DIGITAL EQUIPMENT CORPORATION, MAYNARD, MASSACHUSETTS 01754
                                     0000     7 ;
                                     0000     8 ; THIS SOFTWARE IS FURNISHED  UNDER A LICENSE FOR USE ONLY ON A SINGLE
                                     0000     9 ; COMPUTER  SYSTEM AND  MAY BE  COPIED ONLY WITH  THE INCLUSION OF THE
                                     0000    10 ; ABOVE COPYRIGHT NOTICE.  THIS SOFTWARE, OR ANY OTHER COPIES THEREOF,
                                     0000    11 ; MAY NOT BE PROVIDED OR  OTHERWISE MADE AVAILABLE TO ANY OTHER PERSON
                                     0000    12 ; EXCEPT FOR USE ON SUCH SYSTEM AND TO ONE WHO AGREES TO THESE LICENSE
                                     0000    13 ; TERMS.  TITLE TO AND  OWNERSHIP OF THE  SOFTWARE  SHALL AT ALL TIMES
                                     0000    14 ; REMAIN IN DEC.
                                     0000    15 ;
                                     0000    16 ; THE INFORMATION IN THIS SOFTWARE IS SUBJECT TO CHANGE WITHOUT NOTICE
                                     0000    17 ; AND SHOULD  NOT BE CONSTRUED  AS A COMMITMENT  BY DIGITAL  EQUIPMENT
                                     0000    18 ; CORPORATION.
                                     0000    19 ;
                                     0000    20 ; DEC ASSUMES  NO  RESPONSIBILITY  FOR  THE USE OR  RELIABILITY OF ITS
                                     0000    21 ; SOFTWARE ON EQUIPMENT WHICH IS NOT SUPPLIED BY DEC.
                                     0000    22 ;
                                     0000    23
                                     0000    24 ;++
                                     0000    25 ; FACILITY:	STARLET CLI UTILITY PROGRAM
                                     0000    26 ;
                                     0000    27 ; ABSTRACT:	READ/WRITE DATA FOR SUBMIT UTILITY
                                     0000    28 ;
                                     0000    29 ;
                                     0000    30 ; ENVIRONMENT:	NATIVE/USER MODE CODE
                                     0000    31 ;
                                     0000    32 ; AUTHOR:	W.H.BROWN, CREATION DATE: 11-MAY-1977
                                     0000    33 ;
                                     0000    34 ; MODIFIED BY:
                                     0000    35 ;
                                     0000    36 ;	, : VERSION
                                     0000    37 ; 01	-
                                     0000    38 ;--
SUBMITRWD       - SUBMIT READ/WRITE DATA MODULE                  21-AUG-1978 19:32:02   VAX-11 MACRO X0.3-11               Page   2
V01             DECLARATIONS                                                                                                     (2)

                                     0000    40 	.SBTTL	DECLARATIONS
                                     0000    41 ;
                                     0000    42 ; INCLUDE FILES:
                                     0000    43 ;
                                     0000    44
                                     0000    45 ;
                                     0000    46 ; MACROS:
                                     0000    47 ;
                                     0000    48
                                     0000    49 ;
                                     0000    50 ; EQUATED SYMBOLS:
                                     0000    51 ;
                                     0000    52 	$CLIDEF				; DEFINE CLI CODES AND VALUES
                                     0000    53 	$MSGDEF				; DEFINE SYSTEM WIDE MESSAGE CODES
                                     0000    54 	$CLIDEFQUALSUBM			; DEFINE QUALIFIER CODES
                                     0000    55
                                     0000    56 ;
                                     0000    57 ; OWN STORAGE:
                                     0000    58 ;
                                     0000    59 ;
                                     0000    60 	IMPURE_DATA
                                     0000    61
                                     0000    62 ;
                                     0000    63 ; RMS 32 DATA STRUCTURES
                                     0000    64 ;
                                     0000    65
                                     0000    66 SMT_OUTRAB::				; RAB FOR MESSAGE PRINTING
                                     0000    67 	$RAB	RAC=SEQ,-		; RECORD ACCESS IS SEQENTIAL
                                     0000    68
                                     0044    69 SMT_INPFAB::				; INPUT FILE FAB
                                     0044    70 	$FAB	FAC=GET,-		; FILE ACCESS IS GET(READ)
                                     0044    71 		NAM=SMT_INPNAM,-	; ADDRESS OF ASSOCIATED NAME BLOCK
                                     0044    72 		MRS=LINBUFSIZ,-		; MAXIMUM RECORD SIZE IS LINEBUFFER SIZE
                                     0044    73 		DNS=4,-			; DEFAULT NAME STRING TO START
                                     0044    74 		DNA=SMT_DEFNAM		; ADDRESS OF DEFAULT NAME BUFFER
                                     0094    75
                                     0094    76 SMT_INPNAM::				; NAME BLOCK
                                     0094    77 	$NAM	ESA=SMT_EXPFNM,-	; EXPANDED NAME BUFFER ADDRESS
                                     0094    78 		ESS=INPSIZ,-		; MAXIMUM SIZE FOR EXPANDED NAME
                                     0094    79 		RSA=SMT_INPFNM,-	; RESULTANT NAME HERE
                                     0094    80 		RSS=INPSIZ,-		; AND SIZE IS SAME
                                     0094    81 		RLF=SMT_AUXNAM		; FILE RELATED TO PREVIOUS
                                     00CC    82
                                     00CC    83 SMT_AUXNAM::				; NAME BLOCK
                                     00CC    84 	$NAM	RSA=SMT_EXPFNM,-	; RESULTANT NAME HERE
                                     00CC    85 		RSS=INPSIZ		; AND SIZE IS SAME
                                     0104    86
                                     0104    87 ;
                                     0104    88 ; DEFINE CALL BACK DATA STRUCTURES
                                     0104    89 ;
                                     0104    90 SMT_CLIWORK::				; RESULT PARSE WORK AREA
                           00000288' 0104    91 	.LONG	SMT$CTXBLK		; SET USER CONTEXT WORD
                           00000184  0108    92 	.BLKB	CLI$K_WORKAREA-4	; ALLOCATE PRESCRIBED AMOUNT
                                     0184    93
                                     0184    94 SMT_DEFNAM::				; DEFAULT NAME BUILT USING LAST NAME
                        4D 4F 43 2E  0184    95 	.ASCII	/.COM/			; INITIAL DEFAULT NAME
                                     0188    96
SUBMITRWD       - SUBMIT READ/WRITE DATA MODULE                  21-AUG-1978 19:32:02   VAX-11 MACRO X0.3-11               Page   3
V01             DECLARATIONS                                                                                                     (2)

                                     0188    97 SMT_INPFNM::				; INPUT FILE NAME BUILT HERE FROM RMS
                           00000208  0188    98 	.BLKB	128			; RESULT NAME FROM INPUT PARSE
                                     0208    99
                           00000080  0208   100 INPSIZ = . - SMT_INPFNM			; SIZE OF INPUT FILE NAME BUFFER
                                     0208   101
                                     0208   102 SMT_EXPFNM::				; EXPANDED NAME HERE
                           00000288  0208   103 	.BLKB	INPSIZ			; SAME AS RESULTANT
                                     0288   104
                                     0288   105 	SMTCTXBLK	ALLO=YES	; CREATE THE CONTEXT BLOCK
                                     02C8   106
                                     02C8   107 SMT_INITPRS::				; INITIALIZE PARSE REQUEST DESCRIPTOR
                                     02C8   108 	$CLIREQDESC	-		; CALLBACK REQUEST DESCRIPTOR FOR INIT
                                     02C8   109 		RQTYPE=CLI$K_INITPRS,-
                                     02C8   110 		ERRACT=SMT$CMDERR	; ERROR ACTION ROUTINE
                                     02E4   111
                                     02E4   112 SMT_GETCMD::				; GET COMMAND LINE DATA
                                     02E4   113 	$CLIREQDESC	-		; CALL BACK REQUEST DESCRIPTOR
                                     02E4   114 		RQTYPE=CLI$K_GETCMD,-	; REQUEST TYPE IS GET COMMAND
                                     02E4   115 		ERRACT=SMT$CMDERR	; ERROR ACTION ROUTINE
                                     0300   116
                                     0300   117 SMT_PARSDON::				; TERMINATE PARSE REQUEST DESCRIPTOR
                                     0300   118 	$CLIREQDESC	-		; REQUEST DESCRIPTOR FOR PARSE DONE
                                     0300   119 		RQTYPE=CLI$K_ENDPRM1,-	; COMPLETED WITH PARAMETER SET ONE
                                     0300   120 		ERRACT=SMT$CMDERR	; ERROR ACTION ROUTINE
                                     031C   121
                                     031C   122 SMT_NUMVAL::
                                     031C   123 	$CLIREQDESC  CLI$K_NUMERVAL	; CONVERT NUMERIC VALUE
                                     0338   124
                                     0338   125 SMT_ASCIIVAL::
                                     0338   126 	$CLIREQDESC  CLI$K_ASCIIVAL	; CONVERT NUMERIC VALUE
                                     0354   127
                                     0354   128 SMT_GETCMDQUAL::			; REQUEST COMMAND QUALIFER DESCRIPTION
                                     0354   129 	$CLIREQDESC	-		;
                                     0354   130 		RQTYPE = CLI$K_GETQUAL,-;
                                     0354   131 		ERRACT=SMT$CMDERR,-	; ERROR ACTION ROUTINE
                                     0354   132 		QUALST = CMDQUAL
                                     0370   133
                                     0370   134 CMDQUAL:$CLIQUALDESC	-		; COMMAND QUALIFIER LIST
                                     0370   135 		QDCODE=CLI$K_SUBM_REMO,-; REMOTE QUALIFIER
                                     0370   136 		SETLST=SMT_V_REMOTE,-	; MARK REMOTE SUBMIT IN PROGRESS
                                     0370   137 		TSTLST=SMT_V_PRTCMD	 ; NOT ALLOWED ON PRINT COMMAND
                                     0389   138
                                     0389   139 	$CLIQUALDESC	-		;
                                     0389   140 		QDCODE=CLI$K_SUBM_DEVI,- ; DEVICE QUALIFIER
                                     0389   141 		TSTLST=SMT_V_REMOTE,-	; MAKE SURE IT HAS NOT BEEN SEEN
                                     0389   142 		TRUACT=SMT_DEVNAM	; ACTION ROUTINE
                                     03A1   143
                                     03A1   144 	$CLIQUALDESC	-		;
                                     03A1   145 		QDCODE=CLI$K_SUBM_QUEU,- ; SYNONYM FOR DEVICE IS QUEUE
                                     03A1   146 		TSTLST=SMT_V_REMOTE,-	; MAKE SURE IT HAS NOT BEEN SEEN
                                     03A1   147 		TRUACT=SMT_DEVNAM	; SAME ACTION IN BOTH CASES
                                     03B9   148
                                     03B9   149 	$CLIQUALDESC	-		;
                                     03B9   150 		QDCODE=CLI$K_SUBM_HOLD,-; HOLD THE JOB QUALIFIER
                                     03B9   151 		TSTLST=SMT_V_REMOTE,-	; MAKE SURE IT HAS NOT BEEN SEEN
                                     03B9   152 		TRUACT=SMT_HOLD		; ACTION ROUTINE
                                     03D1   153
SUBMITRWD       - SUBMIT READ/WRITE DATA MODULE                  21-AUG-1978 19:32:02   VAX-11 MACRO X0.3-11               Page   4
V01             DECLARATIONS                                                                                                     (2)

                                     03D1   154 	$CLIQUALDESC	-		;
                                     03D1   155 		QDCODE=CLI$K_SUBM_IDEN,-;
                                     03D1   156 		TSTLST=SMT_V_REMOTE,-	; MAKE SURE IT HAS NOT BEEN SEEN
                                     03D1   157 		SETLST=SMT_V_IDENT	; SET FLAG TO SHOW JOB IDENT
                                     03EA   158
                                     03EA   159 	$CLIQUALDESC	-		;
                                     03EA   160 		QDCODE=CLI$K_SUBM_JOB_,-; SPECIFY JOB COPIES
                                     03EA   161 		TSTLST=SMT_V_REMOTE,-	; MAKE SURE IT HAS NOT BEEN SEEN
                                     03EA   162 		TRUACT=SMT_JOBCOPY	; ACTION ROUTINE
                                     0402   163
                                     0402   164 	$CLIQUALDESC	-		;
                                     0402   165 		QDCODE=CLI$K_SUBM_PRIO,-; SPECIFY JOB PRIORITY
                                     0402   166 		TSTLST=SMT_V_REMOTE,-	; MAKE SURE IT HAS NOT BEEN SEEN
                                     0402   167 		TRUACT=SMT_JOBPRI	; ACTION ROUTINE
                                     041A   168
                                     041A   169
                                     041A   170 	$CLIQUALDESC	-		;
                                     041A   171 		QDCODE=CLI$K_SUBM_LOWE,- ; LOWER CASE PRINTER ONLY
                                     041A   172 		TSTLST=SMT_V_REMOTE,-	; MAKE SURE IT HAS NOT BEEN SEEN
                                     041A   173 		TRUACT=SMT_LOWER	;
                                     0432   174
                                     0432   175 	$CLIQUALDESC	-		;
                                     0432   176 		QDCODE=CLI$K_SUBM_AFTE,-; AFTER TIME
                                     0432   177 		TSTLST=SMT_V_REMOTE,-	; MAKE SURE IT HAS NOT BEEN SEEN
                                     0432   178 		TRUACT=SMT_TIME		; ACTION ROUTINE
                                     044A   179 	$CLIQUALDESC	-		;
                                     044A   180 		QDCODE=CLI$K_SUBM_FORM,-; FORMS TYPE SPECIFIED
                                     044A   181 		TSTLST=SMT_V_REMOTE,-	; MAKE SURE IT HAS NOT BEEN SEEN
                                     044A   182 		TRUACT=SMT_FORMS	; ACTION ROUTINE
                                     0462   183
                                     0462   184 	$CLIQUALDESC	-		;
                                     0462   185 		QDCODE=CLI$K_SUBM_NAME,-; USER SUPPLIED NAME
                                     0462   186 		TSTLST=SMT_V_REMOTE,-	; MAKE SURE IT HAS NOT BEEN SEEN
                                     0462   187 		TRUACT=SMT_JOBNAME	; ACTION ROUTINE
                                     047A   188
                                     047A   189 	$CLIQUALDESC	-		;
                                     047A   190 		QDCODE=CLI$K_SUBM_PARA,-; SPECIFY JOB PARAMETER FOR BATCH
                                     047A   191 		TSTLST=SMT_V_REMOTE,-	; MAKE SURE IT HAS NOT BEEN SEEN
                                     047A   192 		TRUACT=SMT_PARAMS	; ACTION ROUTINE
                                     0492   193
                                     0492   194 	$CLIQUALDESC	END_LIST	;
                                     0493   195
                                     0493   196 SMT_INPDESC::				;
                                     0493   197 	$CLIREQDESC	-		; REQUEST DESCRIPTOR FOR INPUT FILE
                                     0493   198 		RQTYPE=CLI$K_INPUT1,-
                                     0493   199 		ERRACT=SMT$CMDERR,-	;
                                     0493   200 		QUALST=INPQUAL		; INPUT QUALIFIER LIST
                                     04AF   201
                                     04AF   202 INPQUAL:$CLIQUALDESC	-		;
                                     04AF   203 		QDCODE=CLI$K_SUBM_BURS,-; BURST PAGE
                                     04AF   204 		TSTLST=SMT_V_REMOTE,-	; MAKE SURE IT HAS NOT BEEN SEEN
                                     04AF   205 		FLSACT=SMT_NOBURST,-	; ABSENT ACTION
                                     04AF   206 		TRUACT=SMT_BURST
                                     04C7   207
                                     04C7   208 	$CLIQUALDESC	-		;
                                     04C7   209 		QDCODE=CLI$K_SUBM_COPI,-; COPY COUNT FOR FILE
                                     04C7   210 		TSTLST=SMT_V_REMOTE,-	; MAKE SURE IT HAS NOT BEEN SEEN
SUBMITRWD       - SUBMIT READ/WRITE DATA MODULE                  21-AUG-1978 19:32:02   VAX-11 MACRO X0.3-11               Page   5
V01             DECLARATIONS                                                                                                     (2)

                                     04C7   211 		TRUACT=SMT_COPIES	; ACTION ROUTINE
                                     04DF   212
                                     04DF   213 	$CLIQUALDESC	-		;
                                     04DF   214 		QDCODE=CLI$K_SUBM_DELE,- ; DELETE THE FILE WHEN DONE
                                     04DF   215 		TSTLST=SMT_V_REMOTE,-	; MAKE SURE IT HAS NOT BEEN SEEN
                                     04DF   216 		TRUACT=SMT_DELETE	;
                                     04F7   217
                                     04F7   218 	$CLIQUALDESC	-		;
                                     04F7   219 		QDCODE=CLI$K_SUBM_FLAG,- ; PRINT A FLAG PAGE
                                     04F7   220 		TSTLST=SMT_V_REMOTE,-	; MAKE SURE IT HAS NOT BEEN SEEN
                                     04F7   221 		FLSACT=SMT_NOFLAG,-
                                     04F7   222 		TRUACT=SMT_FLAGPAG	;
                                     050F   223
                                     050F   224 	$CLIQUALDESC	-		;
                                     050F   225 		QDCODE=CLI$K_SUBM_HEAD,- ; PRINT PAGES WITH A HEADER
                                     050F   226 		TSTLST=SMT_V_REMOTE,-	; MAKE SURE IT HAS NOT BEEN SEEN
                                     050F   227 		TRUACT=SMT_PRTHDR	;
                                     0527   228
                                     0527   229 	$CLIQUALDESC	-		;
                                     0527   230 		QDCODE=CLI$K_SUBM_PAGE,- ; SPECIFY PAGE COUNT
                                     0527   231 		TSTLST=SMT_V_REMOTE,-	; MAKE SURE IT HAS NOT BEEN SEEN
                                     0527   232 		TRUACT=SMT_PAGCNT	;
                                     053F   233
                                     053F   234 	$CLIQUALDESC	-		;
                                     053F   235 		QDCODE=CLI$K_SUBM_SPAC,- ; LINE SPACING
                                     053F   236 		TSTLST=SMT_V_REMOTE,-	; MAKE SURE IT HAS NOT BEEN SEEN
                                     053F   237 		TRUACT=SMT_DOUBLE	;
                                     0557   238
                                     0557   239 	$CLIQUALDESC	-		;
                                     0557   240 		QDCODE=CLI$K_SUBM_FEED,- ; FORM FEED AT BOTTOM OF PAGE
                                     0557   241 		TSTLST=SMT_V_REMOTE,-	; MAKE SURE IT HAS NOT BEEN SEEN
                                     0557   242 		FLSACT=SMT_NOFEED	; FALSE ACTION
                                     056F   243
                                     056F   244 	$CLIQUALDESC	END_LIST
                                     0570   245 ;
                                     0570   246 ; ALLOCATE A MESSAGE BUFFER
                                     0570   247 ;
                                     0570   248 SMT_MESSAGE::				; THE MESSAGE HEADER
                           00000572  0570   249 	.BLKW	1			;
                                     0572   250 SMT_MSGDAT::				; MESSAGE DATA AREA
                           000005F0  0572   251 	.BLKB	126			; SPACE FOR MESSAGE DATA
                                     05F0   252
                                     05F0   253 SMT_LINBUF::				; THE LINE BUFFER
                           00000674  05F0   254 	.BLKB	LINBUFSIZ		; RECORD BUFFER
                                     0674   255
                                     0674   256 	.END
SUBMITRWD       - SUBMIT READ/WRITE DATA MODULE                  21-AUG-1978 19:32:02   VAX-11 MACRO X0.3-11               Page   6
SYMBOL TABLE                                                                                                                     (2)

$$$            = 00000004            CLI$K_OUTSPEC  = 00000002            CLI$M_VFYINP   = 00000020
$$$GBL         = 00000000            CLI$K_PARDONE  = 00000003            CLI$Q_QDVALDESC  00000004
$$.TAB         = 000000CC R     03   CLI$K_QDBITS     00000014            CLI$Q_RQDESC     00000008
$$.TABEND      = 00000104 R     03   CLI$K_QUALDEF    00000014            CLI$S_PRITYP   = 00000004
$$.TMP         = 00000000            CLI$K_REQDESC    0000001C            CLI$S_SUBTYP   = 00000004
$CLI.          = 00000557 R     03   CLI$K_SUBM_AFTE= 00000001            CLI$S_TRMVRBLV = 00000002
$CLI..         = 0000056F R     03   CLI$K_SUBM_BURS= 00000002            CLI$V_ABSADR   = 00000001
$QUALNUM$      = 00000015            CLI$K_SUBM_COPI= 00000003            CLI$V_ALLOCCUR = 00000000
BIT...         = 00000005            CLI$K_SUBM_DELE= 00000004            CLI$V_BATCH    = 00000003
CLI$A_ABSACT     00000014            CLI$K_SUBM_DEVI= 00000005            CLI$V_CONCATINP= 00000001
CLI$A_ERRACT     00000004            CLI$K_SUBM_FEED= 00000013            CLI$V_DBGEXCP  = 00000010
CLI$A_FLSACT     00000010            CLI$K_SUBM_FLAG= 00000006            CLI$V_DBGTRU   = 00000001
CLI$A_IMGFILED   00000010            CLI$K_SUBM_FORM= 00000007            CLI$V_DEBUG    = 00000000
CLI$A_IMGHDADR   0000000C            CLI$K_SUBM_HEAD= 00000008            CLI$V_DUMMY    = 00000001
CLI$A_PROGXFER   00000004            CLI$K_SUBM_HOLD= 00000009            CLI$V_EXPNAM   = 00000002
CLI$A_PRSACT     00000010            CLI$K_SUBM_IDEN= 0000000A            CLI$V_INDIRECT = 00000004
CLI$A_QDVALADR   00000008            CLI$K_SUBM_JOB_= 0000000B            CLI$V_KEYVALU  = 00000001
CLI$A_QUALST     00000018            CLI$K_SUBM_LOWE= 0000000D            CLI$V_LASTVAL  = 00000000
CLI$A_RQADDR     0000000C            CLI$K_SUBM_NAME= 0000000C            CLI$V_MOREINP  = 00000002
CLI$A_TRUACT     0000000C            CLI$K_SUBM_PAGE= 0000000E            CLI$V_MOREVALS = 00000000
CLI$A_UTILSERV   00000008            CLI$K_SUBM_PARA= 0000000F            CLI$V_PARMDEF  = 00000003
CLI$B_BITNUM     00000001            CLI$K_SUBM_PRIO= 00000010            CLI$V_PARMPRS  = 00000000
CLI$B_QDBLKSIZ   00000000            CLI$K_SUBM_QUEU= 00000011            CLI$V_PARMREQ  = 00000000
CLI$B_QDCODE     00000001            CLI$K_SUBM_REMO= 00000014            CLI$V_PRITYP   = 00000004
CLI$B_QDFLGS     00000002            CLI$K_SUBM_SPAC= 00000012            CLI$V_QDEXPA   = 00000002
CLI$B_QDSTAT     00000003            CLI$K_UTILOPR  = 00000000            CLI$V_QDUSRV   = 00000001
CLI$B_RQFLGS     00000002            CLI$K_VALCONV  = 00000004            CLI$V_QUALEXP  = 00000001
CLI$B_RQINDX     00000001            CLI$K_WORKAREA   00000080            CLI$V_QUALTRU  = 00000000
CLI$B_RQSTAT     00000003            CLI$L_CLIFLAG    00000018            CLI$V_SUBTYP   = 00000000
CLI$B_RQTYPE     00000000            CLI$L_INIARGCNT  00000000            CLI$V_TRMVRBLV = 00000008
CLI$C_QDBITS     00000014            CLI$L_LINKFLAG   00000014            CLI$V_VERIFY   = 00000002
CLI$C_QUALDEF    00000014            CLI$L_RQVALU     0000000C            CLI$V_VFYINP   = 00000005
CLI$C_REQDESC    0000001C            CLI$L_USRVAL     00000014            CLI$W_QDVALSIZ   00000004
CLI$C_WORKAREA   00000080            CLI$L_WORKAREA   00000000            CLI$W_RQSIZE     00000008
CLI$K_ASCIIVAL = 00000041            CLI$M_ABSADR   = 00000002            CLI$W_SERVCOD    00000001
CLI$K_CLISERV  = 00000005            CLI$M_ALLOCCUR = 00000001            CMDQUAL          00000370 R     03
CLI$K_ENDPRM1  = 00000030            CLI$M_BATCH    = 00000008            FAB$B_BID        00000000
CLI$K_ENDPRM2  = 00000031            CLI$M_CONCATINP= 00000002            FAB$B_BKS        0000003E
CLI$K_ENDPRM3  = 00000032            CLI$M_DBGEXCP  = 00010000            FAB$B_BLN        00000001
CLI$K_ENDPRM4  = 00000033            CLI$M_DBGTRU   = 00000002            FAB$B_DNS        00000035
CLI$K_FILSPEC  = 00000044            CLI$M_DEBUG    = 00000001            FAB$B_FAC        00000016
CLI$K_GETCMD   = 00000001            CLI$M_DUMMY    = 00000002            FAB$B_FNS        00000034
CLI$K_GETOPT   = 00000003            CLI$M_EXPNAM   = 00000004            FAB$B_FSZ        0000003F
CLI$K_GETQUAL  = 00000002            CLI$M_INDIRECT = 00000010            FAB$B_ORG        0000001D
CLI$K_INITPRS  = 00000000            CLI$M_KEYVALU  = 00000002            FAB$B_RAT        0000001E
CLI$K_INPSPEC  = 00000001            CLI$M_LASTVAL  = 00000001            FAB$B_RFM        0000001F
CLI$K_INPUT1   = 00000010            CLI$M_MOREINP  = 00000004            FAB$B_RTV        0000001C
CLI$K_INPUT2   = 00000011            CLI$M_MOREVALS = 00000001            FAB$B_SHR        00000017
CLI$K_INPUT3   = 00000012            CLI$M_PARMDEF  = 00000008            FAB$C_BID      = 00000003
CLI$K_INPUT4   = 00000013            CLI$M_PARMPRS  = 00000001            FAB$C_BLN        00000050
CLI$K_KEYVAL   = 00000043            CLI$M_PARMREQ  = 00000001            FAB$C_FIX      = 00000001
CLI$K_KEYWORD  = 00000042            CLI$M_QDEXPA   = 00000004            FAB$C_HSH      = 00000030
CLI$K_NUMERVAL = 00000040            CLI$M_QDUSRV   = 00000002            FAB$C_IDX      = 00000020
CLI$K_OUTPUT1  = 00000020            CLI$M_QUALEXP  = 00000002            FAB$C_MAXRFM   = 00000003
CLI$K_OUTPUT2  = 00000021            CLI$M_QUALTRU  = 00000001            FAB$C_REL      = 00000010
CLI$K_OUTPUT3  = 00000022            CLI$M_TRMVRBLV = 00000300            FAB$C_RFM_DFLT = 00000002
CLI$K_OUTPUT4  = 00000023            CLI$M_VERIFY   = 00000004            FAB$C_SEQ      = 00000000
SUBMITRWD       - SUBMIT READ/WRITE DATA MODULE                  21-AUG-1978 19:32:02   VAX-11 MACRO X0.3-11               Page   7
SYMBOL TABLE                                                                                                                     (2)

FAB$C_UDF      = 00000000            FAB$M_SQO      = 00000040            FAB$V_TMD      = 00000004
FAB$C_VAR      = 00000002            FAB$M_SUP      = 00000004            FAB$V_TMP      = 00000003
FAB$C_VFC      = 00000003            FAB$M_TEF      = 10000000            FAB$V_TRN      = 00000004
FAB$K_BLN        00000050            FAB$M_TMD      = 00000010            FAB$V_UFM      = 0000001A
FAB$L_ALQ        00000010            FAB$M_TMP      = 00000008            FAB$V_UFO      = 00000011
FAB$L_CTX        00000018            FAB$M_TRN      = 00000010            FAB$V_UPD      = 00000003
FAB$L_DEV        00000040            FAB$M_UFM      = 04000000            FAB$V_UPI      = 00000006
FAB$L_DNA        00000030            FAB$M_UFO      = 00020000            FAB$V_WCK      = 00000009
FAB$L_FNA        0000002C            FAB$M_UPD      = 00000008            FAB$W_BLS        0000003C
FAB$L_FOP        00000004            FAB$M_UPI      = 00000040            FAB$W_DEQ        00000014
FAB$L_JNL        00000020            FAB$M_WCK      = 00000200            FAB$W_IFI        00000002
FAB$L_MRN        00000038            FAB$S_ORG      = 00000004            FAB$W_MRS        00000036
FAB$L_NAM        00000028            FAB$S_PPF_RAT  = 00000008            GBL...         = 00000000
FAB$L_SDC        00000044            FAB$V_BIO      = 00000005            INPQUAL          000004AF R     03
FAB$L_STS        00000008            FAB$V_BLK      = 00000003            INPSIZ         = 00000080
FAB$L_STV        0000000C            FAB$V_BRO      = 00000006            LINBUFSIZ      = 00000084
FAB$L_XAB        00000024            FAB$V_CBT      = 00000015            MSG$_ABOOPR    = 00000011
FAB$M_BIO      = 00000020            FAB$V_CIF      = 00000019            MSG$_ABORT     = 00000030
FAB$M_BLK      = 00000008            FAB$V_CR       = 00000001            MSG$_ACCRSP    = 00000021
FAB$M_BRO      = 00000040            FAB$V_CTG      = 00000014            MSG$_CONFIRM   = 00000031
FAB$M_CBT      = 00200000            FAB$V_DEL      = 00000002            MSG$_CONNECT   = 00000032
FAB$M_CIF      = 02000000            FAB$V_DFW      = 00000005            MSG$_CRUNSOLIC = 00000002
FAB$M_CR       = 00000002            FAB$V_DLT      = 0000000F            MSG$_DELPROC   = 00000003
FAB$M_CTG      = 00100000            FAB$V_DMO      = 0000000C            MSG$_DELSMB    = 00000014
FAB$M_DEL      = 00000004            FAB$V_ESC      = 0000001B            MSG$_DEVOFFLIN = 00000005
FAB$M_DFW      = 00000020            FAB$V_EXE      = 00000007            MSG$_DEVONLIN  = 00000007
FAB$M_DLT      = 00008000            FAB$V_FTN      = 00000000            MSG$_DISCON    = 00000033
FAB$M_DMO      = 00001000            FAB$V_GET      = 00000001            MSG$_EXIT      = 00000034
FAB$M_ESC      = 08000000            FAB$V_INP      = 00000013            MSG$_INIOPR    = 00000010
FAB$M_EXE      = 00000080            FAB$V_JNL      = 00000016            MSG$_INTMSG    = 00000035
FAB$M_FTN      = 00000001            FAB$V_KFO      = 0000001E            MSG$_OPREPLY   = 00000009
FAB$M_GET      = 00000002            FAB$V_MSE      = 00000004            MSG$_OPRQST    = 00000008
FAB$M_INP      = 00080000            FAB$V_MXV      = 00000001            MSG$_PATHLOST  = 00000036
FAB$M_JNL      = 00400000            FAB$V_NAM      = 00000018            MSG$_PROTOCOL  = 00000037
FAB$M_KFO      = 40000000            FAB$V_NEF      = 0000000A            MSG$_REJECT    = 00000038
FAB$M_MSE      = 00000010            FAB$V_NFS      = 00000010            MSG$_RESOPR    = 00000013
FAB$M_MXV      = 00000002            FAB$V_NIL      = 00000005            MSG$_SCANBAD   = 00000028
FAB$M_NAM      = 01000000            FAB$V_OFP      = 0000001D            MSG$_SCANRSP   = 00000029
FAB$M_NEF      = 00000400            FAB$V_ORG      = 00000004            MSG$_SMBDON    = 00000009
FAB$M_NFS      = 00010000            FAB$V_POS      = 00000008            MSG$_SMBINI    = 00000008
FAB$M_NIL      = 00000020            FAB$V_PPF      = 00000012            MSG$_SMBRSP    = 00000020
FAB$M_OFP      = 20000000            FAB$V_PPF_IND  = 0000000E            MSG$_SNDACC    = 0000000A
FAB$M_POS      = 00000100            FAB$V_PPF_RAT  = 00000006            MSG$_SNDSMB    = 00000004
FAB$M_PPF      = 00040000            FAB$V_PRN      = 00000002            MSG$_SUSOPR    = 00000012
FAB$M_PPF_IND  = 00004000            FAB$V_PUT      = 00000000            MSG$_THIRDPARTY= 00000039
FAB$M_PPF_RAT  = 00003FC0            FAB$V_RCK      = 00000017            MSG$_TIMEOUT   = 0000003A
FAB$M_PRN      = 00000004            FAB$V_RWC      = 0000000B            MSG$_TRMHANGUP = 00000006
FAB$M_PUT      = 00000001            FAB$V_RWO      = 00000007            MSG$_TRMUNSOLIC= 00000001
FAB$M_RCK      = 00800000            FAB$V_SCF      = 0000000E            MSG$_XM_ATTN   = 0000000D
FAB$M_RWC      = 00000800            FAB$V_SHRDEL   = 00000002            MSG$_XM_DATAVL = 0000000B
FAB$M_RWO      = 00000080            FAB$V_SHRGET   = 00000001            MSG$_XM_SHUTDN = 0000000C
FAB$M_SCF      = 00004000            FAB$V_SHRPUT   = 00000000            NAM$B_BID        00000000
FAB$M_SHRDEL   = 00000004            FAB$V_SHRUPD   = 00000003            NAM$B_BLN        00000001
FAB$M_SHRGET   = 00000002            FAB$V_SPL      = 0000000D            NAM$B_CURLVL     00000038
FAB$M_SHRPUT   = 00000001            FAB$V_SQO      = 00000006            NAM$B_ESL        0000000B
FAB$M_SHRUPD   = 00000008            FAB$V_SUP      = 00000002            NAM$B_ESS        0000000A
FAB$M_SPL      = 00002000            FAB$V_TEF      = 0000001C            NAM$B_RSL        00000003
SUBMITRWD       - SUBMIT READ/WRITE DATA MODULE                  21-AUG-1978 19:32:02   VAX-11 MACRO X0.3-11               Page   8
SYMBOL TABLE                                                                                                                     (2)

NAM$B_RSS        00000002            NAM$V_NODE     = 00000011            QUA_M_ONEVAL   = 00002000
NAM$C_BID      = 00000002            NAM$V_PPF      = 00000010            QUA_M_OUTPUT   = 00000800
NAM$C_BLN        00000038            NAM$V_QUOTED   = 00000012            QUA_M_PARM     = 00000010
NAM$C_BLN_DIRWC  00000050            NAM$V_WILDCARD = 00000008            QUA_M_VAL      = 00000020
NAM$C_DVI      = 00000010            NAM$V_WILD_DIR = 00000014            QUA_M_VALREQ   = 00001000
NAM$C_MAXRSS   = 00000080            NAM$V_WILD_GRP = 00000018            QUA_M_VERB     = 00000008
NAM$C_MAXRSSLCL= 00000060            NAM$V_WILD_MBR = 00000019            QUA_S_MAXPARM  = 00000004
NAM$K_BLN        00000038            NAM$V_WILD_NAME= 00000005            QUA_S_MINPARM  = 00000004
NAM$K_BLN_DIRWC  00000050            NAM$V_WILD_SFD1= 00000019            QUA_V_BATDEF   = 00000008
NAM$L_DIRWCC1    00000040            NAM$V_WILD_SFD2= 0000001A            QUA_V_CHNGLIST = 00000000
NAM$L_DIRWCC2    00000044            NAM$V_WILD_SFD3= 0000001B            QUA_V_DEFTRUE  = 00000007
NAM$L_DIRWCC3    00000048            NAM$V_WILD_SFD4= 0000001C            QUA_V_FILE     = 00000002
NAM$L_DIRWCC4    0000004C            NAM$V_WILD_SFD5= 0000001D            QUA_V_IMAGE    = 0000000A
NAM$L_DWC        00000038            NAM$V_WILD_SFD6= 0000001E            QUA_V_INTDEF   = 00000009
NAM$L_ESA        0000000C            NAM$V_WILD_SFD7= 0000001F            QUA_V_KEYVAL   = 0000000E
NAM$L_FNB        00000034            NAM$V_WILD_TYPE= 00000004            QUA_V_LOCALKEY = 00000001
NAM$L_RLF        00000010            NAM$V_WILD_UFD = 00000018            QUA_V_MAXPARM  = 00000004
NAM$L_RSA        00000004            NAM$V_WILD_VER = 00000003            QUA_V_MINPARM  = 00000000
NAM$L_WCC        00000030            NAM$W_DID        0000002A            QUA_V_NEG      = 00000006
NAM$M_DIR_LVLS = 00E00000            NAM$W_DID_NUM    0000002A            QUA_V_ONEVAL   = 0000000D
NAM$M_EXP_DEV  = 00000080            NAM$W_DID_RVN    0000002E            QUA_V_OUTPUT   = 0000000B
NAM$M_EXP_DIR  = 00000040            NAM$W_DID_SEQ    0000002C            QUA_V_PARM     = 00000004
NAM$M_EXP_NAME = 00000004            NAM$W_FID        00000024            QUA_V_VAL      = 00000005
NAM$M_EXP_TYPE = 00000002            NAM$W_FID_NUM    00000024            QUA_V_VALREQ   = 0000000C
NAM$M_EXP_VER  = 00000001            NAM$W_FID_RVN    00000028            QUA_V_VERB     = 00000003
NAM$M_GRP_MBR  = 00080000            NAM$W_FID_SEQ    00000026            QUA_W_FLAGS      00000003
NAM$M_HIGHVER  = 00008000            NAM$W_PRV_DID    0000003A            QUA_W_PROMPT     00000009
NAM$M_LOWVER   = 00004000            PRO_B_FLAGS      00000001            QUA_W_QUALIST    00000006
NAM$M_NODE     = 00020000            PRO_B_PROMPT     00000000            RAB$B_BID        00000000
NAM$M_PPF      = 00010000            PRO_K_LENGTH     00000002            RAB$B_BLN        00000001
NAM$M_QUOTED   = 00040000            PRO_M_CONCAT   = 00000001            RAB$B_KRF        00000035
NAM$M_WILDCARD = 00000100            PRO_M_IMPCAT   = 00000002            RAB$B_KSZ        00000034
NAM$M_WILD_DIR = 00100000            PRO_M_LIST     = 00000004            RAB$B_MBC        00000037
NAM$M_WILD_GRP = 01000000            PRO_M_OPTION   = 00000008            RAB$B_MBF        00000036
NAM$M_WILD_MBR = 02000000            PRO_M_REQ      = 00000010            RAB$B_PSZ        00000034
NAM$M_WILD_NAME= 00000020            PRO_M_STRING   = 00000020            RAB$B_RAC        0000001E
NAM$M_WILD_SFD1= 02000000            PRO_V_CONCAT   = 00000000            RAB$B_ROP1       00000005
NAM$M_WILD_SFD2= 04000000            PRO_V_IMPCAT   = 00000001            RAB$B_ROP2       00000006
NAM$M_WILD_SFD3= 08000000            PRO_V_LIST     = 00000002            RAB$B_ROP3       00000007
NAM$M_WILD_SFD4= 10000000            PRO_V_OPTION   = 00000003            RAB$B_TMO        0000001F
NAM$M_WILD_SFD5= 20000000            PRO_V_REQ      = 00000004            RAB$C_BID      = 00000001
NAM$M_WILD_SFD6= 40000000            PRO_V_STRING   = 00000005            RAB$C_BLN        00000044
NAM$M_WILD_SFD7= 80000000            QUA_B_DEFVAL     00000002            RAB$C_KEY      = 00000001
NAM$M_WILD_TYPE= 00000010            QUA_B_IMAGE      00000005            RAB$C_RFA      = 00000002
NAM$M_WILD_UFD = 01000000            QUA_B_INDEX      00000001            RAB$C_SEQ      = 00000000
NAM$M_WILD_VER = 00000008            QUA_B_OFFSET     00000000            RAB$K_BLN        00000044
NAM$S_DIR_LVLS = 00000003            QUA_B_PARMCNT    00000008            RAB$L_BKT        00000038
NAM$T_DVI        00000014            QUA_G_CHNGLST    00000006            RAB$L_CTX        00000018
NAM$V_DIR_LVLS = 00000015            QUA_M_BATDEF   = 00000100            RAB$L_DCT        00000038
NAM$V_EXP_DEV  = 00000007            QUA_M_CHNGLIST = 00000001            RAB$L_FAB        0000003C
NAM$V_EXP_DIR  = 00000006            QUA_M_DEFTRUE  = 00000080            RAB$L_KBF        00000030
NAM$V_EXP_NAME = 00000002            QUA_M_FILE     = 00000004            RAB$L_PBF        00000030
NAM$V_EXP_TYPE = 00000001            QUA_M_IMAGE    = 00000400            RAB$L_RBF        00000028
NAM$V_EXP_VER  = 00000000            QUA_M_INTDEF   = 00000200            RAB$L_RFA0       00000010
NAM$V_GRP_MBR  = 00000013            QUA_M_KEYVAL   = 00004000            RAB$L_RHB        0000002C
NAM$V_HIGHVER  = 0000000F            QUA_M_LOCALKEY = 00000002            RAB$L_ROP        00000004
NAM$V_LOWVER   = 0000000E            QUA_M_NEG      = 00000040            RAB$L_STS        00000008
SUBMITRWD       - SUBMIT READ/WRITE DATA MODULE                  21-AUG-1978 19:32:02   VAX-11 MACRO X0.3-11               Page   9
SYMBOL TABLE                                                                                                                     (2)

RAB$L_STV        0000000C            RAB$V_UIF      = 00000004            SMT_PRTHDR       ********   X   03
RAB$L_UBF        00000024            RAB$V_ULK      = 00000012            SMT_Q_INPDES   = 00000010
RAB$M_ASY      = 00000001            RAB$V_WAT      = 00000011            SMT_Q_IOSB     = 00000020
RAB$M_BIO      = 00000800            RAB$V_WBH      = 0000000A            SMT_Q_OUTDES   = 00000018
RAB$M_CCO      = 80000000            RAB$W_ISI        00000002            SMT_TIME         ********   X   03
RAB$M_CVT      = 04000000            RAB$W_RFA        00000010            SMT_T_DEVNAM   = 00000030
RAB$M_EOF      = 00000100            RAB$W_RFA4       00000014            SMT_V_IDENT    = 00000002
RAB$M_FDL      = 00000040            RAB$W_RSZ        00000022            SMT_V_NAME     = 00000001
RAB$M_HSH      = 00000080            RAB$W_USZ        00000020            SMT_V_PRTCMD   = 00000004
RAB$M_KGE      = 00200000            SMT$CMDERR       ********   X   03   SMT_V_REMOTE   = 00000003
RAB$M_KGT      = 00400000            SMT$CTXBLK     = 00000288 RG    03   SMT_W_BUFCNT   = 00000008
RAB$M_LIM      = 00004000            SMT_ASCIIVAL     00000338 RG    03   SMT_W_BUFSIZ   = 0000000A
RAB$M_LOA      = 00002000            SMT_AUXNAM       000000CC RG    03   SMT_W_FLAGS    = 00000000
RAB$M_LOC      = 00010000            SMT_A_BUFADR   = 0000000C            SMT_W_INPCNT   = 00000010
RAB$M_MAS      = 00000020            SMT_A_INPNAM   = 00000014            SMT_W_INPSIZ   = 00000012
RAB$M_NLK      = 00100000            SMT_A_OUTNAM   = 0000001C            SMT_W_JOBNUM   = 0000002C
RAB$M_NXR      = 00800000            SMT_BURST        ********   X   03   SMT_W_OUTCNT   = 00000018
RAB$M_PMT      = 40000000            SMT_B_BITMAP   = 0000002F            SMT_W_OUTSIZ   = 0000001A
RAB$M_PPF_IND  = 00004000            SMT_B_SUBSTEP  = 0000002E            SMT_W_RSPCHAN  = 00000002
RAB$M_PPF_RAT  = 00003FC0            SMT_CLIWORK      00000104 RG    03   _ALL_          = 00000001
RAB$M_PTA      = 20000000            SMT_COPIES       ********   X   03   _BASE_         = 00000288 R     03
RAB$M_RAH      = 00000200            SMT_DEFNAM       00000184 RG    03   _END_          = 000002C8 R     03
RAB$M_RLK      = 00080000            SMT_DELETE       ********   X   03   _GBL_          = 00000000
RAB$M_RNE      = 01000000            SMT_DEVNAM       ********   X   03   _TOP_          = 000002B8 R     03
RAB$M_RNF      = 08000000            SMT_DOUBLE       ********   X   03
RAB$M_TMO      = 02000000            SMT_EXPFNM       00000208 RG    03
RAB$M_TPT      = 00000002            SMT_FLAGPAG      ********   X   03
RAB$M_UIF      = 00000010            SMT_FORMS        ********   X   03
RAB$M_ULK      = 00040000            SMT_GETCMD       000002E4 RG    03
RAB$M_WAT      = 00020000            SMT_GETCMDQUAL   00000354 RG    03
RAB$M_WBH      = 00000400            SMT_HOLD         ********   X   03
RAB$S_PPF_RAT  = 00000008            SMT_INITPRS      000002C8 RG    03
RAB$V_ASY      = 00000000            SMT_INPDESC      00000493 RG    03
RAB$V_BIO      = 0000000B            SMT_INPFAB       00000044 RG    03
RAB$V_CCO      = 0000001F            SMT_INPFNM       00000188 RG    03
RAB$V_CVT      = 0000001A            SMT_INPNAM       00000094 RG    03
RAB$V_EOF      = 00000008            SMT_JOBCOPY      ********   X   03
RAB$V_FDL      = 00000006            SMT_JOBNAME      ********   X   03
RAB$V_HSH      = 00000007            SMT_JOBPRI       ********   X   03
RAB$V_KGE      = 00000015            SMT_LINBUF       000005F0 RG    03
RAB$V_KGT      = 00000016            SMT_LOWER        ********   X   03
RAB$V_LIM      = 0000000E            SMT_L_MSGPTR   = 00000028
RAB$V_LOA      = 0000000D            SMT_L_STATUS   = 00000004
RAB$V_LOC      = 00000010            SMT_MESSAGE      00000570 RG    03
RAB$V_MAS      = 00000005            SMT_MSGDAT       00000572 RG    03
RAB$V_NLK      = 00000014            SMT_M_IDENT    = 00000004
RAB$V_NXR      = 00000017            SMT_M_NAME     = 00000002
RAB$V_PMT      = 0000001E            SMT_M_PRTCMD   = 00000010
RAB$V_PPF_IND  = 0000000E            SMT_M_REMOTE   = 00000008
RAB$V_PPF_RAT  = 00000006            SMT_NOBURST      ********   X   03
RAB$V_PTA      = 0000001D            SMT_NOFEED       ********   X   03
RAB$V_RAH      = 00000009            SMT_NOFLAG       ********   X   03
RAB$V_RLK      = 00000013            SMT_NUMVAL       0000031C RG    03
RAB$V_RNE      = 00000018            SMT_OUTRAB       00000000 RG    03
RAB$V_RNF      = 0000001B            SMT_PAGCNT       ********   X   03
RAB$V_TMO      = 00000019            SMT_PARAMS       ********   X   03
RAB$V_TPT      = 00000001            SMT_PARSDON      00000300 RG    03
SUBMITRWD       - SUBMIT READ/WRITE DATA MODULE                  21-AUG-1978 19:32:02   VAX-11 MACRO X0.3-11               Page  10
PROGRAM SECTION SYNOPSIS                                                                                                         (2)


PROGRAM SECTION SYNOPSIS

.  ABS  .        00000000      00     NOPIC   USR   CON   ABS   LCL NOSHR NOEXE NORD  NOWRT BYTE
. BLANK .        00000000      01     NOPIC   USR   CON   REL   LCL NOSHR   EXE   RD    WRT BYTE
$ABS$            00000080      02     NOPIC   USR   CON   ABS   LCL NOSHR   EXE   RD    WRT BYTE
RWDATA           00000674      03     NOPIC   USR   CON   REL   LCL NOSHR NOEXE   RD    WRT BYTE


THERE WERE NO ERRORS OR WARNINGS.
2376. BYTES LEFT IN FREE MEMORY POOL.
644. BYTES OF RECLAIMED MEMORY.
OBJ$:SUBMITRWD,LIS$:SUBMITRWD/-SP=EXECML$/ML,LIB$:CLIUTL/ML,SRC$:SUBMITRWD
77 MLB DIR RDS - 1185 GETS TO DEFINE 49 MACROS. 114 INTER. FILE WRITES.
