OPCCRASH        -- CRASH SYSTEM IMAGE                            22-AUG-1978 00:42:55   VAX-11 MACRO X0.3-11               Page   0
TABLE OF CONTENTS

   (1)     122  CRASH SYSTEM ROUTINE
OPCCRASH        -- CRASH SYSTEM IMAGE                            22-AUG-1978 00:42:55   VAX-11 MACRO X0.3-11               Page   1
V06                                                                                                                              (1)

                                     0001     1 	.TITLE	OPCCRASH -- CRASH SYSTEM IMAGE
                                     0001     2 	.IDENT	/V06/
                                     0001     3 ;
                                     0001     4 ; COPYRIGHT (C) 1978
                                     0001     5 ; DIGITAL EQUIPMENT CORPORATION, MAYNARD, MASS.
                                     0001     6 ;
                                     0001     7 ; THIS SOFTWARE IS FURNISHED UNDER  A LICENSE FOR USE ONLY  ON  A
                                     0001     8 ; SINGLE COMPUTER SYSTEM AND MAY BE  COPIED ONLY WITH  THE INCLU-
                                     0001     9 ; SION OF  THE  ABOVE  COPYRIGHT NOTICE.  THIS SOFTWARE,  OR  ANY
                                     0001    10 ; OTHER COPIES THEREOF, MAY NOT BE  PROVIDED  OR  OTHERWISE  MADE
                                     0001    11 ; AVAILABLE TO ANY OTHER PERSON EXCEPT  FOR  USE  ON  SUCH SYSTEM
                                     0001    12 ; AND TO  ONE WHO AGREES  TO  THESE LICENSE  TERMS.  TITLE TO AND
                                     0001    13 ; OWNERSHIP OF THE SOFTWARE SHALL AT ALL TIMES REMAIN IN DEC.
                                     0001    14 ;
                                     0001    15 ; THE INFORMATION IN THIS SOFTWARE  IS  SUBJECT TO CHANGE WITHOUT
                                     0001    16 ; NOTICE AND SHOULD NOT BE CONSTRUED  AS  A COMMITMENT BY DIGITAL
                                     0001    17 ; EQUIPMENT CORPORATION.
                                     0001    18 ;
                                     0001    19 ; DEC ASSUMES NO RESPONSIBILITY FOR THE USE OR RELIABILITY OF ITS
                                     0001    20 ; SOFTWARE ON EQUIPMENT WHICH IS NOT SUPPLIED BY DEC.
                                     0001    21 ;++
                                     0001    22 ;
                                     0001    23 ; FACILITY:
                                     0001    24 ;
                                     0001    25 ;	VAX/VMS OPERATOR COMMUNICATIONS PROCESS
                                     0001    26 ;
                                     0001    27 ; ABSTRACT:
                                     0001    28 ;
                                     0001    29 ; 	CRASH SYSTEM WITH BUG CHECK
                                     0001    30 ;
                                     0001    31 ; AUTHOR: R.HEINEN 12-JUN-78 (V06)
                                     0001    32 ;--
                                     0001    33 	$IPLDEF				; DEFINE IPL LEVELS
OPCCRASH        -- CRASH SYSTEM IMAGE                            22-AUG-1978 00:42:55   VAX-11 MACRO X0.3-11               Page   2
V06             CRASH SYSTEM ROUTINE                                                                                             (1)

                                     0001    35 	.SBTTL CRASH SYSTEM ROUTINE
                                 00000000    36 	.PSECT	OPCOM_CRASH,NOWRT
                                     0000    37 ;++
                                     0000    38 ; THIS IMAGE IS RUN TO CRASH THE SYSTEM WITH A BUGCHECK
                                     0000    39 ;
                                     0000    40 ; FUNCTIONAL DESCRIPTION:
                                     0000    41 ;
                                     0000    42 ; INPUTS:
                                     0000    43 ;
                                     0000    44 ;	NONE
                                     0000    45 ;
                                     0000    46 ; OUTPUTS:
                                     0000    47 ;
                                     0000    48 ;	NONE
                                     0000    49 ;--
                                 00000000    50 	.PSECT	OPCOM_CODE,PAGE
                                     0000    51 	.ALIGN PAGE
                                     0000    52 ;
                                     0000    53 ; MESSAGE TO PRINT
                                     0000    54 ;
65 72 20 72 6F 74 61 72 65 70 4F 00' 0000    55 CRASH_MESSAGE:	.ASCIC	/Operator requested system shutdown/
74 73 79 73 20 64 65 74 73 65 75 71  000C
   6E 77 6F 64 74 75 68 73 20 6D 65  0018
                                 22  0000
                               0000' 0023    56 	.ENTRY CRASH,^M<>
                                     0025    57 	$CMKRNL_S	10$		; GOTO KERNEL MODE
                                 04  0034    58 	RET
                               0000  0035    59 10$:	.WORD	^M<>
                                     0037    60 ;
                                     0037    61 ; TURN OFF RE-BOOT
                                     0037    62 ;
   00000000'GF   00000001'8F     CA  0037    63 	BICL	#1@EXE$V_BUGREBOOT,G^EXE$GL_FLAGS;
                                     0042    64 ;
                                     0042    65 ; WRITE MODIFIED PAGE LIST
                                     0042    66 ;
                 00000000'GF     D4  0042    67 	CLRL	G^SCH$GL_MFYLIM		; FORCE SWAPPER ACTIVITY
                 00000000'GF     D4  0048    68 	CLRL	G^SCH$GL_MFYLOLIM	;
                                     004E    69 ;
                                     004E    70 ; WAIT FOR IT TO COMPLETE
                                     004E    71 ;
                 00000000'GF     D5  004E    72 15$:	TSTL	G^SCH$GL_MFYCNT		; DONE
                          F8     12  0054    73 	BNEQ	15$			; IF NEQ THEN NO
                                     0056    74 ;
                                     0056    75 ; BUG CHECK SYSTEM
                                     0056    76 ;
                                     0056    77 	SETIPL	#IPL$_POWER		; LOCK OUT INTERRUPTS
                                     0059    78 	BUG_CHECK OPERATOR,TYPE=FATAL	; CRASH THE SYSTEM
                                     005D    79 	.END	CRASH
OPCCRASH        -- CRASH SYSTEM IMAGE                            22-AUG-1978 00:42:55   VAX-11 MACRO X0.3-11               Page   3
SYMBOL TABLE                                                                                                                     (1)

BIT...         = 00000000            MSG_MSG          0000000C            OPC$W_MS_OUNIT   00000008
BUG$_OPERATOR    ********   X   05   MSG_NUMBER       00000008            OPC$W_MS_STATUS  00000002
CRASH            00000023 RG    05   MSG_PRI          00000030            OPC$_DEVNOTERM = 00058074
CRASH_MESSAGE    00000000 R     05   MSG_PRIV         00000010            OPC$_DEVOFFLINE= 0005804C
EXE$GL_FLAGS     ********   X   05   MSG_REPLYMBX     0000000E            OPC$_DEVONLINE = 00058054
EXE$V_BUGREBOOT  ********   X   05   MSG_SIZE         000000CC            OPC$_ILLRQST   = 0005807C
GBL...         = 00000000            MSG_UIC          00000018            OPC$_LOGCLOS   = 000580A4
IPL$_ASTDEL    = 00000002            MSG_USRNAME      0000001C            OPC$_LOGFAIL   = 00058034
IPL$_HWCLK     = 00000018            OPC$B_MS_ENAB    00000001            OPC$_LOGINIT   = 00058009
IPL$_IOPOST    = 00000004            OPC$B_MS_TARGET  00000001            OPC$_LOGTIME   = 00058099
IPL$_MAILBOX   = 0000000B            OPC$B_MS_TYPE    00000000            OPC$_NOCLI     = 0005805C
IPL$_POWER     = 0000001F            OPC$C_REPEAT   = 00000005            OPC$_NOPERATOR = 00058061
IPL$_QUEUEAST  = 00000006            OPC$L_MS_MASK    00000004            OPC$_NOSUCHRQST= 00058044
IPL$_SCHED     = 00000003            OPC$L_MS_MAXSZ   0000009A            OPC$_OPREPLY   = 00058091
IPL$_SYNCH     = 00000007            OPC$L_MS_OTEXT   0000001A            OPC$_OPRNOTIF  = 00058089
IPL$_TIMER     = 00000007            OPC$L_MS_RPLYID  00000004            OPC$_RQSTABORT = 0005801C
MSG$_ABOOPR    = 00000011            OPC$L_MS_RQSTID  00000004            OPC$_RQSTCAN   = 00058084
MSG$_ABORT     = 00000030            OPC$L_MS_TEXT    00000008            OPC$_RQSTCMPLTE= 00058029
MSG$_ACCRSP    = 00000021            OPC$M_NM_CARDS = 00000020            OPC$_RQSTPEND  = 00058021
MSG$_CONFIRM   = 00000031            OPC$M_NM_CENTRL= 00000001            OPC$_RQ_CANCEL = 00000005
MSG$_CONNECT   = 00000032            OPC$M_NM_DEVICE= 00000010            OPC$_RQ_LOGI   = 00000002
MSG$_CRUNSOLIC = 00000002            OPC$M_NM_DISKS = 00000008            OPC$_RQ_REPLY  = 00000004
MSG$_DELPROC   = 00000003            OPC$M_NM_NTWORK= 00000040            OPC$_RQ_RQST   = 00000003
MSG$_DELSMB    = 00000014            OPC$M_NM_OPER1 = 00001000            OPC$_RQ_STATUS = 00000006
MSG$_DEVOFFLIN = 00000005            OPC$M_NM_OPER10= 00200000            OPC$_RQ_TERME  = 00000001
MSG$_DEVONLIN  = 00000007            OPC$M_NM_OPER11= 00400000            OPC$_TERMDSBL  = 00058011
MSG$_DISCON    = 00000033            OPC$M_NM_OPER12= 00800000            OPC$_TERMENAB  = 00058001
MSG$_EXIT      = 00000034            OPC$M_NM_OPER2 = 00002000            OPC$_TERMFAIL  = 0005803C
MSG$_INIOPR    = 00000010            OPC$M_NM_OPER3 = 00004000            OPC$_UNKNOPR   = 0005806C
MSG$_INTMSG    = 00000035            OPC$M_NM_OPER4 = 00008000            OTV_ACTIVE     = 00000000
MSG$_OPREPLY   = 00000009            OPC$M_NM_OPER5 = 00010000            OT_DESC          00000010
MSG$_OPRQST    = 00000008            OPC$M_NM_OPER6 = 00020000            OT_LINK          00000000
MSG$_PATHLOST  = 00000036            OPC$M_NM_OPER7 = 00040000            OT_NAME          00000018
MSG$_PROTOCOL  = 00000037            OPC$M_NM_OPER8 = 00080000            OT_SERVICE       00000008
MSG$_REJECT    = 00000038            OPC$M_NM_OPER9 = 00100000            OT_SIZE          00000028
MSG$_RESOPR    = 00000013            OPC$M_NM_PRINT = 00000002            OT_STATUS        0000000C
MSG$_SCANBAD   = 00000028            OPC$M_NM_TAPES = 00000004            PR$_IPL          ********   X   05
MSG$_SCANRSP   = 00000029            OPC$T_MS_ONAME   0000000A            SCH$GL_MFYCNT    ********   X   05
MSG$_SMBDON    = 00000009            OPC$V_NM_CARDS = 00000005            SCH$GL_MFYLIM    ********   X   05
MSG$_SMBINI    = 00000008            OPC$V_NM_CENTRL= 00000000            SCH$GL_MFYLOLIM  ********   X   05
MSG$_SMBRSP    = 00000020            OPC$V_NM_DEVICE= 00000004            STV_TIMER        00000000
MSG$_SNDACC    = 0000000A            OPC$V_NM_DISKS = 00000003            SYS$CMKRNL       ********   X   05
MSG$_SNDSMB    = 00000004            OPC$V_NM_NTWORK= 00000006
MSG$_SUSOPR    = 00000012            OPC$V_NM_OPER1 = 0000000C
MSG$_THIRDPARTY= 00000039            OPC$V_NM_OPER10= 00000015
MSG$_TIMEOUT   = 0000003A            OPC$V_NM_OPER11= 00000016
MSG$_TRMHANGUP = 00000006            OPC$V_NM_OPER12= 00000017
MSG$_TRMUNSOLIC= 00000001            OPC$V_NM_OPER2 = 0000000D
MSG$_XM_ATTN   = 0000000D            OPC$V_NM_OPER3 = 0000000E
MSG$_XM_DATAVL = 0000000B            OPC$V_NM_OPER4 = 0000000F
MSG$_XM_SHUTDN = 0000000C            OPC$V_NM_OPER5 = 00000010
MSG_ACCOUNT      00000028            OPC$V_NM_OPER6 = 00000011
MSG_DEVCNT       00000010            OPC$V_NM_OPER7 = 00000012
MSG_DEVNAME      00000011            OPC$V_NM_OPER8 = 00000013
MSG_DEVUNIT      0000000E            OPC$V_NM_OPER9 = 00000014
MSG_HDR          00000032            OPC$V_NM_PRINT = 00000001
MSG_LINK         00000000            OPC$V_NM_TAPES = 00000002
OPCCRASH        -- CRASH SYSTEM IMAGE                            22-AUG-1978 00:42:55   VAX-11 MACRO X0.3-11               Page   4
PROGRAM SECTION SYNOPSIS                                                                                                         (1)


PROGRAM SECTION SYNOPSIS

.  ABS  .        00000000      00     NOPIC   USR   CON   ABS   LCL NOSHR NOEXE NORD  NOWRT BYTE
. BLANK .        00000000      01     NOPIC   USR   CON   REL   LCL NOSHR   EXE   RD    WRT BYTE
OPCOM_DEF        000000CC      02     NOPIC   USR   CON   ABS   LCL NOSHR   EXE   RD    WRT BYTE
$ABS$            0000009E      03     NOPIC   USR   CON   ABS   LCL NOSHR   EXE   RD    WRT BYTE
OPCOM_CRASH      00000000      04     NOPIC   USR   CON   REL   LCL NOSHR   EXE   RD  NOWRT BYTE
OPCOM_CODE       0000005D      05     NOPIC   USR   CON   REL   LCL NOSHR   EXE   RD    WRT PAGE


THERE WERE NO ERRORS OR WARNINGS.
21764. BYTES LEFT IN FREE MEMORY POOL.
870. BYTES OF RECLAIMED MEMORY.
OBJ$:OPCCRASH,LIS$:OPCCRASH/-SP=EXECML$/ML,SRC$:ODEF,OPCCRASH
3 MLB DIR RDS - 260 GETS TO DEFINE 16 MACROS. 16 INTER. FILE WRITES.
