OPCOMINIT       -- INITIALIZE OPERATOR COMMUNICATIONS            22-AUG-1978 00:41:23   VAX-11 MACRO X0.3-11               Page   0
TABLE OF CONTENTS

   (2)     126  OPC$START - ENTRY POINT FOR OPERATOR COMMUNICAT
OPCOMINIT       -- INITIALIZE OPERATOR COMMUNICATIONS            22-AUG-1978 00:41:23   VAX-11 MACRO X0.3-11               Page   1
V06                                                                                                                              (1)

                                     0001     1 	.TITLE	OPCOMINIT -- INITIALIZE OPERATOR COMMUNICATIONS
                                     0001     2 	.IDENT	/V06/
                                     0001     3 ;
                                     0001     4 ; COPYRIGHT (C) 1978
                                     0001     5 ; DIGITAL EQUIPMENT CORPORATION, MAYNARD, MASS.
                                     0001     6 ;
                                     0001     7 ; THIS SOFTWARE IS FURNISHED UNDER  A LICENSE FOR USE ONLY  ON  A
                                     0001     8 ; SINGLE COMPUTER SYSTEM AND MAY BE  COPIED ONLY WITH  THE INCLU-
                                     0001     9 ; SION OF  THE  ABOVE  COPYRIGHT NOTICE.  THIS SOFTWARE,  OR  ANY
                                     0001    10 ; OTHER COPIES THEREOF, MAY NOT BE  PROVIDED  OR  OTHERWISE  MADE
                                     0001    11 ; AVAILABLE TO ANY OTHER PERSON EXCEPT  FOR  USE  ON  SUCH SYSTEM
                                     0001    12 ; AND TO  ONE WHO AGREES  TO  THESE LICENSE  TERMS.  TITLE TO AND
                                     0001    13 ; OWNERSHIP OF THE SOFTWARE SHALL AT ALL TIMES REMAIN IN DEC.
                                     0001    14 ;
                                     0001    15 ; THE INFORMATION IN THIS SOFTWARE  IS  SUBJECT TO CHANGE WITHOUT
                                     0001    16 ; NOTICE AND SHOULD NOT BE CONSTRUED  AS  A COMMITMENT BY DIGITAL
                                     0001    17 ; EQUIPMENT CORPORATION.
                                     0001    18 ;
                                     0001    19 ; DEC ASSUMES NO RESPONSIBILITY FOR THE USE OR RELIABILITY OF ITS
                                     0001    20 ; SOFTWARE ON EQUIPMENT WHICH IS NOT SUPPLIED BY DEC.
                                     0001    21 ;
                                     0001    22 ;++
                                     0001    23 ;
                                     0001    24 ; FACILITY:
                                     0001    25 ;
                                     0001    26 ;	VAX/VMS OPERATOR COMMUNICATION PROCESS
                                     0001    27 ;
                                     0001    28 ; ABSTRACT:
                                     0001    29 ;
                                     0001    30 ;	THIS MODULE INITIALIZES THE OPERATOR COMMUNICATION PROCESSING.
                                     0001    31 ;
                                     0001    32 ; AUTHOR: R.HEINEN 28-JUN-77 (V06)
                                     0001    33 ;--
                                     0001    34 ;
                                     0001    35 ; EXTERNAL SYMBOLS
                                     0001    36 ;
                                 00000000    37 	.PSECT	OPCOM_CODE,NOWRT
OPCOMINIT       -- INITIALIZE OPERATOR COMMUNICATIONS            22-AUG-1978 00:41:23   VAX-11 MACRO X0.3-11               Page   2
V06             OPC$START - ENTRY POINT FOR OPERATOR COMMUNICAT                                                                  (2)

                                     0000    39 	.SBTTL	OPC$START - ENTRY POINT FOR OPERATOR COMMUNICATION
                                     0000    40 ;++
                                     0000    41 ; OPC$START - ENTRY ADDRESS FOR OPERATOR COMMUNICATION
                                     0000    42 ;
                                     0000    43 ; FUNCTIONAL DESCRIPTION:
                                     0000    44 ;
                                     0000    45 ; THIS ROUTINE INITIALIZES THE OPRERATOR DATA BASE, OPENS THE LOG FILE
                                     0000    46 ; AND BEGINS THE MESSAGE FLOW.
                                     0000    47 ;
                                     0000    48 ; THE LOG FILE NAME IS SYS$SYSTEM:[1,2]OPERATOR.LOG.
                                     0000    49 ;
                                     0000    50 ; INPUTS:
                                     0000    51 ;
                                     0000    52 ;	NONE
                                     0000    53 ;
                                     0000    54 ; OUTPUTS:
                                     0000    55 ;
                                     0000    56 ;	NONE
                                     0000    57 ;--
                                     0000    58 OPC$START:
                               0000  0000    59 	.WORD	<0>
                 00000000'8F     DD  0002    60 	PUSHL	#SYS$C_OPRMBX		;
                          5E     DD  0008    61 	PUSHL	SP
                          04     DD  000A    62 	PUSHL	#4
            52            5E     D0  000C    63 	MOVL	SP,R2
                                     000F    64 	$ALLOC_S	(R2)
                                     001E    65 	$ASSIGN_S	(R2),W^OPC$GL_BOX
            03            50     E8  002D    66 	BLBS	R0,10$
                          005B   31  0030    67 	BRW	ERROR
                                     0033    68 ;
                                     0033    69 ; INITIALIZE THE LISTS AND POOL
                                     0033    70 ;
                     0000'CF     7C  0033    71 10$:	CLRQ	W^OPC$GQ_POOL		; SET NO SPACE AVAILABLE
       0000'CF       0000'CF     9E  0037    72 	MOVAB	W^OPC$GQ_TERMLIST,W^OPC$GQ_TERMLIST; INIT TERMINAL LIST
       0004'CF       0000'CF     9E  003E    73 	MOVAB	W^OPC$GQ_TERMLIST,W^OPC$GQ_TERMLIST+4;
       0000'CF       0000'CF     9E  0045    74 	MOVAB	W^OPC$GQ_MSGLIST,W^OPC$GQ_MSGLIST; INIT MESSAGE LIST
       0004'CF       0000'CF     9E  004C    75 	MOVAB	W^OPC$GQ_MSGLIST,W^OPC$GQ_MSGLIST+4;
            51            28     9A  0053    76 	MOVZBL	#OT_SIZE,R1		; SET UP DEFAULT OPERATOR
                          FFA7'  30  0056    77 	BSBW	OPC$ALLOCATE		;
       0000'DF            62     0E  0059    78 	INSQUE	(R2),@W^OPC$GQ_TERMLIST	; INSERT ON LIST
            00   FFFFFFFF 8F     F0  005E    79 	INSV	#-1,#0,#24,OT_SERVICE(R2); SET ALL SERVICES
         08 A2            18         0065
                       0C A2     D4  0068    80 	CLRL	OT_STATUS(R2)		; SET NOT ACTIVE
            50       0000'CF     9E  006B    81 	MOVAB	W^OPC$T_DEFOPR,R0	; ADDRESS DEFAULT OPERATOR STRING
         14 A2         18 A2     9E  0070    82 	MOVAB	OT_NAME(R2),OT_DESC+4(R2);
            51            80     9A  0075    83 	MOVZBL	(R0)+,R1		; GET NAME SIZE
         10 A2            51     D0  0078    84 	MOVL	R1,OT_DESC(R2)		;
            60            51     2C  007C    85 	MOVC5	R1,(R0),#0,#16,OT_NAME(R2);
            10            00         007F
                       18 A2         0081
            52       0000'CF     D0  0083    86 	MOVL	W^OPC$GQ_TERMLIST,R2	; ADDRESS INITIAL TERMINAL
                          FF75'  30  0088    87 	BSBW	OPC$INITLOG		; INITIALIZE THE LOG
                                     008B    88 ;
                                     008B    89 ; BEGIN THE MESSAGE FLOW
                                     008B    90 ;
                          FF72'  31  008B    91 	BRW	OPC$RESTART		; START MESSAGE FLOW
                                     008E    92 ;
OPCOMINIT       -- INITIALIZE OPERATOR COMMUNICATIONS            22-AUG-1978 00:41:23   VAX-11 MACRO X0.3-11               Page   3
V06             OPC$START - ENTRY POINT FOR OPERATOR COMMUNICAT                                                                  (2)

                                     008E    93 ; EXIT ON ERROR IN INITIALIZATION
                                     008E    94 ;
                                     008E    95 ERROR:	$EXIT_S	R0			; EXIT
                                     0097    96 	.END	OPC$START		;
OPCOMINIT       -- INITIALIZE OPERATOR COMMUNICATIONS            22-AUG-1978 00:41:23   VAX-11 MACRO X0.3-11               Page   4
SYMBOL TABLE                                                                                                                     (2)

$$T1           = 00000001            OPC$C_REPEAT   = 00000005            OPC$_DEVOFFLINE= 0005804C
BIT...         = 00000000            OPC$GL_BOX       ********   X   04   OPC$_DEVONLINE = 00058054
ERROR            0000008E R     04   OPC$GQ_MSGLIST   ********   X   04   OPC$_ILLRQST   = 0005807C
GBL...         = 00000000            OPC$GQ_POOL      ********   X   04   OPC$_LOGCLOS   = 000580A4
MSG$_ABOOPR    = 00000011            OPC$GQ_TERMLIST  ********   X   04   OPC$_LOGFAIL   = 00058034
MSG$_ABORT     = 00000030            OPC$INITLOG      ********   X   04   OPC$_LOGINIT   = 00058009
MSG$_ACCRSP    = 00000021            OPC$L_MS_MASK    00000004            OPC$_LOGTIME   = 00058099
MSG$_CONFIRM   = 00000031            OPC$L_MS_MAXSZ   0000009A            OPC$_NOCLI     = 0005805C
MSG$_CONNECT   = 00000032            OPC$L_MS_OTEXT   0000001A            OPC$_NOPERATOR = 00058061
MSG$_CRUNSOLIC = 00000002            OPC$L_MS_RPLYID  00000004            OPC$_NOSUCHRQST= 00058044
MSG$_DELPROC   = 00000003            OPC$L_MS_RQSTID  00000004            OPC$_OPREPLY   = 00058091
MSG$_DELSMB    = 00000014            OPC$L_MS_TEXT    00000008            OPC$_OPRNOTIF  = 00058089
MSG$_DEVOFFLIN = 00000005            OPC$M_NM_CARDS = 00000020            OPC$_RQSTABORT = 0005801C
MSG$_DEVONLIN  = 00000007            OPC$M_NM_CENTRL= 00000001            OPC$_RQSTCAN   = 00058084
MSG$_DISCON    = 00000033            OPC$M_NM_DEVICE= 00000010            OPC$_RQSTCMPLTE= 00058029
MSG$_EXIT      = 00000034            OPC$M_NM_DISKS = 00000008            OPC$_RQSTPEND  = 00058021
MSG$_INIOPR    = 00000010            OPC$M_NM_NTWORK= 00000040            OPC$_RQ_CANCEL = 00000005
MSG$_INTMSG    = 00000035            OPC$M_NM_OPER1 = 00001000            OPC$_RQ_LOGI   = 00000002
MSG$_OPREPLY   = 00000009            OPC$M_NM_OPER10= 00200000            OPC$_RQ_REPLY  = 00000004
MSG$_OPRQST    = 00000008            OPC$M_NM_OPER11= 00400000            OPC$_RQ_RQST   = 00000003
MSG$_PATHLOST  = 00000036            OPC$M_NM_OPER12= 00800000            OPC$_RQ_STATUS = 00000006
MSG$_PROTOCOL  = 00000037            OPC$M_NM_OPER2 = 00002000            OPC$_RQ_TERME  = 00000001
MSG$_REJECT    = 00000038            OPC$M_NM_OPER3 = 00004000            OPC$_TERMDSBL  = 00058011
MSG$_RESOPR    = 00000013            OPC$M_NM_OPER4 = 00008000            OPC$_TERMENAB  = 00058001
MSG$_SCANBAD   = 00000028            OPC$M_NM_OPER5 = 00010000            OPC$_TERMFAIL  = 0005803C
MSG$_SCANRSP   = 00000029            OPC$M_NM_OPER6 = 00020000            OPC$_UNKNOPR   = 0005806C
MSG$_SMBDON    = 00000009            OPC$M_NM_OPER7 = 00040000            OTV_ACTIVE     = 00000000
MSG$_SMBINI    = 00000008            OPC$M_NM_OPER8 = 00080000            OT_DESC          00000010
MSG$_SMBRSP    = 00000020            OPC$M_NM_OPER9 = 00100000            OT_LINK          00000000
MSG$_SNDACC    = 0000000A            OPC$M_NM_PRINT = 00000002            OT_NAME          00000018
MSG$_SNDSMB    = 00000004            OPC$M_NM_TAPES = 00000004            OT_SERVICE       00000008
MSG$_SUSOPR    = 00000012            OPC$RESTART      ********   X   04   OT_SIZE          00000028
MSG$_THIRDPARTY= 00000039            OPC$START        00000000 R     04   OT_STATUS        0000000C
MSG$_TIMEOUT   = 0000003A            OPC$T_DEFOPR     ********   X   04   STV_TIMER        00000000
MSG$_TRMHANGUP = 00000006            OPC$T_MS_ONAME   0000000A            SYS$ALLOC        ********   X   04
MSG$_TRMUNSOLIC= 00000001            OPC$V_NM_CARDS = 00000005            SYS$ASSIGN       ********   X   04
MSG$_XM_ATTN   = 0000000D            OPC$V_NM_CENTRL= 00000000            SYS$C_OPRMBX     ********   X   04
MSG$_XM_DATAVL = 0000000B            OPC$V_NM_DEVICE= 00000004            SYS$EXIT         ********   X   04
MSG$_XM_SHUTDN = 0000000C            OPC$V_NM_DISKS = 00000003
MSG_ACCOUNT      00000028            OPC$V_NM_NTWORK= 00000006
MSG_DEVCNT       00000010            OPC$V_NM_OPER1 = 0000000C
MSG_DEVNAME      00000011            OPC$V_NM_OPER10= 00000015
MSG_DEVUNIT      0000000E            OPC$V_NM_OPER11= 00000016
MSG_HDR          00000032            OPC$V_NM_OPER12= 00000017
MSG_LINK         00000000            OPC$V_NM_OPER2 = 0000000D
MSG_MSG          0000000C            OPC$V_NM_OPER3 = 0000000E
MSG_NUMBER       00000008            OPC$V_NM_OPER4 = 0000000F
MSG_PRI          00000030            OPC$V_NM_OPER5 = 00000010
MSG_PRIV         00000010            OPC$V_NM_OPER6 = 00000011
MSG_REPLYMBX     0000000E            OPC$V_NM_OPER7 = 00000012
MSG_SIZE         000000CC            OPC$V_NM_OPER8 = 00000013
MSG_UIC          00000018            OPC$V_NM_OPER9 = 00000014
MSG_USRNAME      0000001C            OPC$V_NM_PRINT = 00000001
OPC$ALLOCATE     ********   X   04   OPC$V_NM_TAPES = 00000002
OPC$B_MS_ENAB    00000001            OPC$W_MS_OUNIT   00000008
OPC$B_MS_TARGET  00000001            OPC$W_MS_STATUS  00000002
OPC$B_MS_TYPE    00000000            OPC$_DEVNOTERM = 00058074
OPCOMINIT       -- INITIALIZE OPERATOR COMMUNICATIONS            22-AUG-1978 00:41:23   VAX-11 MACRO X0.3-11               Page   5
PROGRAM SECTION SYNOPSIS                                                                                                         (2)


PROGRAM SECTION SYNOPSIS

.  ABS  .        00000000      00     NOPIC   USR   CON   ABS   LCL NOSHR NOEXE NORD  NOWRT BYTE
. BLANK .        00000000      01     NOPIC   USR   CON   REL   LCL NOSHR   EXE   RD    WRT BYTE
OPCOM_DEF        000000CC      02     NOPIC   USR   CON   ABS   LCL NOSHR   EXE   RD    WRT BYTE
$ABS$            0000009E      03     NOPIC   USR   CON   ABS   LCL NOSHR   EXE   RD    WRT BYTE
OPCOM_CODE       00000097      04     NOPIC   USR   CON   REL   LCL NOSHR   EXE   RD  NOWRT BYTE


THERE WERE NO ERRORS OR WARNINGS.
21728. BYTES LEFT IN FREE MEMORY POOL.
776. BYTES OF RECLAIMED MEMORY.
OBJ$:OPCOMINIT,LIS$:OPCOMINIT/-SP=EXECML$/ML,SRC$:ODEF,OPCOMINIT
3 MLB DIR RDS - 259 GETS TO DEFINE 16 MACROS. 16 INTER. FILE WRITES.
