OPCOMNAM        - OPERATOR SUBSYSTEM NAME DEFINTION              22-AUG-1978 00:42:37   VAX-11 MACRO X0.3-11               Page   1
V06                                                                                                                              (1)

                                     0001     1 	.TITLE	OPCOMNAM - OPERATOR SUBSYSTEM NAME DEFINTION
                                     0001     2 	.IDENT	/V06/
                                     0001     3 ; COPYRIGHT (C) 1978
                                     0001     4 ; DIGITAL EQUIPMENT CORPORATION, MAYNARD, MASS.
                                     0001     5 ;
                                     0001     6 ; THIS SOFTWARE IS FURNISHED UNDER  A LICENSE FOR USE ONLY  ON  A
                                     0001     7 ; SINGLE COMPUTER SYSTEM AND MAY BE  COPIED ONLY WITH  THE INCLU-
                                     0001     8 ; SION OF  THE  ABOVE  COPYRIGHT NOTICE.  THIS SOFTWARE,  OR  ANY
                                     0001     9 ; OTHER COPIES THEREOF, MAY NOT BE  PROVIDED  OR  OTHERWISE  MADE
                                     0001    10 ; AVAILABLE TO ANY OTHER PERSON EXCEPT  FOR  USE  ON  SUCH SYSTEM
                                     0001    11 ; AND TO  ONE WHO AGREES  TO  THESE LICENSE  TERMS.  TITLE TO AND
                                     0001    12 ; OWNERSHIP OF THE SOFTWARE SHALL AT ALL TIMES REMAIN IN DEC.
                                     0001    13 ;
                                     0001    14 ; THE INFORMATION IN THIS SOFTWARE  IS  SUBJECT TO CHANGE WITHOUT
                                     0001    15 ; NOTICE AND SHOULD NOT BE CONSTRUED  AS  A COMMITMENT BY DIGITAL
                                     0001    16 ; EQUIPMENT CORPORATION.
                                     0001    17 ;
                                     0001    18 ; DEC ASSUMES NO RESPONSIBILITY FOR THE USE OR RELIABILITY OF ITS
                                     0001    19 ; SOFTWARE ON EQUIPMENT WHICH IS NOT SUPPLIED BY DEC.
                                     0001    20 ;++
                                     0001    21 ; FACILITY:
                                     0001    22 ;
                                     0001    23 ;	VAX/VMS OPERATOR COMMUNICATIONS PACKAGE
                                     0001    24 ;
                                     0001    25 ; ABSTRACT:
                                     0001    26 ;
                                     0001    27 ;	THIS IMAGE CONTAINS THE NAMES OF ALL OPERATORS
                                     0001    28 ;
                                     0001    29 ; AUTHOR:
                                     0001    30 ;	R.HEINEN 28-SEP-1977
                                     0001    31 ;--
                                     0001    32 ;
                                     0001    33 ; EXTERNAL SYMBOLS
                                     0001    34 ;
                                     0001    35 ;
                                     0001    36 ; LOCAL MACROS
                                     0001    37 ;
                                     0001    38 	.MACRO	NAME	START,B
                                     0001    39 	.BYTE	^A/'START/+128
                                     0001    40 	.ASCII	/'B/
                                     0001    41 	.NCHR	X,<B>
                                     0001    42 	.IF	GT	7-X
                                     0001    43 	.BLKB	7-X
                                     0001    44 	.IFF
                                     0001    45 	.ERROR	<BAD NEWS NAME>
                                     0001    46 	.ENDC
                                     0001    47 	.ENDM
OPCOMNAM        - OPERATOR SUBSYSTEM NAME DEFINTION              22-AUG-1978 00:42:37   VAX-11 MACRO X0.3-11               Page   2
V06                                                                                                                              (2)

                                     0001    49 ;
                                     0001    50 ; GLOBAL STORAGE
                                     0001    51 ;
                                 00000000    52 	.PSECT	OPCOM_PURE,NOEXE,QUAD
                                     0000    53 ;
                                     0000    54 	.ALIGN	QUAD
                                     0000    55 OPC$A_NAMES::				;
                                     0000    56 	NAME	C,ENTRAL		;
                                     0008    57 	NAME	P,RINTER
                                     0010    58 	NAME	T,APES
                                     0018    59 	NAME	D,ISKS
                                     0020    60 	NAME	D,EVICES
                                     0028    61 	NAME	C,ARDS
                                     0030    62 	NAME	N,ETWORK
                                     0038    63 	NAME
                                     0040    64 	NAME
                                     0048    65 	NAME
                                     0050    66 	NAME
                                     0058    67 	NAME
                                     0060    68 	NAME	O,PER1
                                     0068    69 	NAME	O,PER2
                                     0070    70 	NAME	O,PER3
                                     0078    71 	NAME	O,PER4
                                     0080    72 	NAME	O,PER5
                                     0088    73 	NAME	O,PER6
                                     0090    74 	NAME	O,PER7
                                     0098    75 	NAME	O,PER8
                                     00A0    76 	NAME	O,PER9
                                     00A8    77 	NAME	O,PER10
                                     00B0    78 	NAME	O,PER11
                                     00B8    79 	NAME	O,PER12
                           000000C0  00C0    80 OPC$C_NAMES==.-OPC$A_NAMES
                                     00C0    81 ;
                                     00C0    82 	.END
OPCOMNAM        - OPERATOR SUBSYSTEM NAME DEFINTION              22-AUG-1978 00:42:37   VAX-11 MACRO X0.3-11               Page   3
SYMBOL TABLE                                                                                                                     (2)

BIT...         = 00000000            OPC$L_MS_MASK    00000004            OPC$_NOSUCHRQST= 00058044
GBL...         = 00000000            OPC$L_MS_MAXSZ   0000009A            OPC$_OPREPLY   = 00058091
MSG$_ABOOPR    = 00000011            OPC$L_MS_OTEXT   0000001A            OPC$_OPRNOTIF  = 00058089
MSG$_ABORT     = 00000030            OPC$L_MS_RPLYID  00000004            OPC$_RQSTABORT = 0005801C
MSG$_ACCRSP    = 00000021            OPC$L_MS_RQSTID  00000004            OPC$_RQSTCAN   = 00058084
MSG$_CONFIRM   = 00000031            OPC$L_MS_TEXT    00000008            OPC$_RQSTCMPLTE= 00058029
MSG$_CONNECT   = 00000032            OPC$M_NM_CARDS = 00000020            OPC$_RQSTPEND  = 00058021
MSG$_CRUNSOLIC = 00000002            OPC$M_NM_CENTRL= 00000001            OPC$_RQ_CANCEL = 00000005
MSG$_DELPROC   = 00000003            OPC$M_NM_DEVICE= 00000010            OPC$_RQ_LOGI   = 00000002
MSG$_DELSMB    = 00000014            OPC$M_NM_DISKS = 00000008            OPC$_RQ_REPLY  = 00000004
MSG$_DEVOFFLIN = 00000005            OPC$M_NM_NTWORK= 00000040            OPC$_RQ_RQST   = 00000003
MSG$_DEVONLIN  = 00000007            OPC$M_NM_OPER1 = 00001000            OPC$_RQ_STATUS = 00000006
MSG$_DISCON    = 00000033            OPC$M_NM_OPER10= 00200000            OPC$_RQ_TERME  = 00000001
MSG$_EXIT      = 00000034            OPC$M_NM_OPER11= 00400000            OPC$_TERMDSBL  = 00058011
MSG$_INIOPR    = 00000010            OPC$M_NM_OPER12= 00800000            OPC$_TERMENAB  = 00058001
MSG$_INTMSG    = 00000035            OPC$M_NM_OPER2 = 00002000            OPC$_TERMFAIL  = 0005803C
MSG$_OPREPLY   = 00000009            OPC$M_NM_OPER3 = 00004000            OPC$_UNKNOPR   = 0005806C
MSG$_OPRQST    = 00000008            OPC$M_NM_OPER4 = 00008000            OTV_ACTIVE     = 00000000
MSG$_PATHLOST  = 00000036            OPC$M_NM_OPER5 = 00010000            OT_DESC          00000010
MSG$_PROTOCOL  = 00000037            OPC$M_NM_OPER6 = 00020000            OT_LINK          00000000
MSG$_REJECT    = 00000038            OPC$M_NM_OPER7 = 00040000            OT_NAME          00000018
MSG$_RESOPR    = 00000013            OPC$M_NM_OPER8 = 00080000            OT_SERVICE       00000008
MSG$_SCANBAD   = 00000028            OPC$M_NM_OPER9 = 00100000            OT_SIZE          00000028
MSG$_SCANRSP   = 00000029            OPC$M_NM_PRINT = 00000002            OT_STATUS        0000000C
MSG$_SMBDON    = 00000009            OPC$M_NM_TAPES = 00000004            STV_TIMER        00000000
MSG$_SMBINI    = 00000008            OPC$T_MS_ONAME   0000000A            X              = 00000005
MSG$_SMBRSP    = 00000020            OPC$V_NM_CARDS = 00000005
MSG$_SNDACC    = 0000000A            OPC$V_NM_CENTRL= 00000000
MSG$_SNDSMB    = 00000004            OPC$V_NM_DEVICE= 00000004
MSG$_SUSOPR    = 00000012            OPC$V_NM_DISKS = 00000003
MSG$_THIRDPARTY= 00000039            OPC$V_NM_NTWORK= 00000006
MSG$_TIMEOUT   = 0000003A            OPC$V_NM_OPER1 = 0000000C
MSG$_TRMHANGUP = 00000006            OPC$V_NM_OPER10= 00000015
MSG$_TRMUNSOLIC= 00000001            OPC$V_NM_OPER11= 00000016
MSG$_XM_ATTN   = 0000000D            OPC$V_NM_OPER12= 00000017
MSG$_XM_DATAVL = 0000000B            OPC$V_NM_OPER2 = 0000000D
MSG$_XM_SHUTDN = 0000000C            OPC$V_NM_OPER3 = 0000000E
MSG_ACCOUNT      00000028            OPC$V_NM_OPER4 = 0000000F
MSG_DEVCNT       00000010            OPC$V_NM_OPER5 = 00000010
MSG_DEVNAME      00000011            OPC$V_NM_OPER6 = 00000011
MSG_DEVUNIT      0000000E            OPC$V_NM_OPER7 = 00000012
MSG_HDR          00000032            OPC$V_NM_OPER8 = 00000013
MSG_LINK         00000000            OPC$V_NM_OPER9 = 00000014
MSG_MSG          0000000C            OPC$V_NM_PRINT = 00000001
MSG_NUMBER       00000008            OPC$V_NM_TAPES = 00000002
MSG_PRI          00000030            OPC$W_MS_OUNIT   00000008
MSG_PRIV         00000010            OPC$W_MS_STATUS  00000002
MSG_REPLYMBX     0000000E            OPC$_DEVNOTERM = 00058074
MSG_SIZE         000000CC            OPC$_DEVOFFLINE= 0005804C
MSG_UIC          00000018            OPC$_DEVONLINE = 00058054
MSG_USRNAME      0000001C            OPC$_ILLRQST   = 0005807C
OPC$A_NAMES      00000000 RG    04   OPC$_LOGCLOS   = 000580A4
OPC$B_MS_ENAB    00000001            OPC$_LOGFAIL   = 00058034
OPC$B_MS_TARGET  00000001            OPC$_LOGINIT   = 00058009
OPC$B_MS_TYPE    00000000            OPC$_LOGTIME   = 00058099
OPC$C_NAMES    = 000000C0  G         OPC$_NOCLI     = 0005805C
OPC$C_REPEAT   = 00000005            OPC$_NOPERATOR = 00058061
OPCOMNAM        - OPERATOR SUBSYSTEM NAME DEFINTION              22-AUG-1978 00:42:37   VAX-11 MACRO X0.3-11               Page   4
PROGRAM SECTION SYNOPSIS                                                                                                         (2)


PROGRAM SECTION SYNOPSIS

.  ABS  .        00000000      00     NOPIC   USR   CON   ABS   LCL NOSHR NOEXE NORD  NOWRT BYTE
. BLANK .        00000000      01     NOPIC   USR   CON   REL   LCL NOSHR   EXE   RD    WRT BYTE
OPCOM_DEF        000000CC      02     NOPIC   USR   CON   ABS   LCL NOSHR   EXE   RD    WRT BYTE
$ABS$            0000009E      03     NOPIC   USR   CON   ABS   LCL NOSHR   EXE   RD    WRT BYTE
OPCOM_PURE       000000C0      04     NOPIC   USR   CON   REL   LCL NOSHR NOEXE   RD    WRT QUAD


THERE WERE NO ERRORS OR WARNINGS.
22400. BYTES LEFT IN FREE MEMORY POOL.
1044. BYTES OF RECLAIMED MEMORY.
OBJ$:OPCOMNAM,LIS$:OPCOMNAM/-SP=EXECML$/ML,SRC$:ODEF,OPCOMNAM
2 MLB DIR RDS - 221 GETS TO DEFINE 11 MACROS. 17 INTER. FILE WRITES.
