OPCOMDAT        -- OPERATOR COMMUNICATIONS PROCESS DATA          22-AUG-1978 00:40:40   VAX-11 MACRO X0.3-11               Page   1
V06                                                                                                                              (1)

                                     0001     1 	.TITLE	OPCOMDAT -- OPERATOR COMMUNICATIONS PROCESS DATA
                                     0001     2 	.IDENT	/V06/
                                     0001     3 ;
                                     0001     4 ; COPYRIGHT (C) 1978
                                     0001     5 ; DIGITAL EQUIPMENT CORPORATION, MAYNARD, MASS.
                                     0001     6 ;
                                     0001     7 ; THIS SOFTWARE IS FURNISHED UNDER  A LICENSE FOR USE ONLY  ON  A
                                     0001     8 ; SINGLE COMPUTER SYSTEM AND MAY BE  COPIED ONLY WITH  THE INCLU-
                                     0001     9 ; SION OF  THE  ABOVE  COPYRIGHT NOTICE.  THIS SOFTWARE,  OR  ANY
                                     0001    10 ; OTHER COPIES THEREOF, MAY NOT BE  PROVIDED  OR  OTHERWISE  MADE
                                     0001    11 ; AVAILABLE TO ANY OTHER PERSON EXCEPT  FOR  USE  ON  SUCH SYSTEM
                                     0001    12 ; AND TO  ONE WHO AGREES  TO  THESE LICENSE  TERMS.  TITLE TO AND
                                     0001    13 ; OWNERSHIP OF THE SOFTWARE SHALL AT ALL TIMES REMAIN IN DEC.
                                     0001    14 ;
                                     0001    15 ; THE INFORMATION IN THIS SOFTWARE  IS  SUBJECT TO CHANGE WITHOUT
                                     0001    16 ; NOTICE AND SHOULD NOT BE CONSTRUED  AS  A COMMITMENT BY DIGITAL
                                     0001    17 ; EQUIPMENT CORPORATION.
                                     0001    18 ;
                                     0001    19 ; DEC ASSUMES NO RESPONSIBILITY FOR THE USE OR RELIABILITY OF ITS
                                     0001    20 ; SOFTWARE ON EQUIPMENT WHICH IS NOT SUPPLIED BY DEC.
                                     0001    21 ;++
                                     0001    22 ;
                                     0001    23 ; FACILITY:
                                     0001    24 ;
                                     0001    25 ;	VAX/VMS OPERATOR COMMUNICATIONS PROCESS
                                     0001    26 ;
                                     0001    27 ; ABSTRACT:
                                     0001    28 ;
                                     0001    29 ;	DATA STORAGE FOR THE OPERATOR COMMUNICATIONS PROCESS.
                                     0001    30 ;
                                     0001    31 ; AUTHOR: R.HEINEN 28-JUN-77 (V06)
                                     0001    32 ;--
                                     0001    33 ;
                                     0001    34 ; LOCAL MACROS
                                     0001    35 ;
                                     0001    36 	.MACRO	MESSAGE	NAME,MSGNUM,WHO,LOG,PARAMS,TEXT
                                     0001    37 OPC$T_'NAME::				;
                                     0001    38 	.NCHR	X,<TEXT>
                                     0001    39 	.LONG	OPC$_'MSGNUM
                                     0001    40 	.LONG	<<WHO+OPC$M_NM_CENTRL>@8>+LOG
                                     0001    41 	.LONG	X+4,.+<4*PARAMS>+8
                                     0001    42 	.LONG	0
                                     0001    43 	.BLKL	PARAMS
                                     0001    44 	.BYTE	7,7,7,7
                                     0001    45 	.ASCII	@TEXT@
                                     0001    46 	.ALIGN	LONG
                                     0001    47 	.ENDM
                                     0001    48 ;
                                     0001    49 ; EXTERNAL SYMBOLS
                                     0001    50 ;
                                     0001    51 	$FABDEF				; DEFINE FAB
OPCOMDAT        -- OPERATOR COMMUNICATIONS PROCESS DATA          22-AUG-1978 00:40:40   VAX-11 MACRO X0.3-11               Page   2
V06                                                                                                                              (2)

                                     0001    53 ;
                                 00000000    54 	.PSECT	OPCOM_DAT,NOEXE,LONG
                                     0000    55 ;
                                     0000    56 ; FAB FOR OPERATOR LOG FILE
                                     0000    57 ;
                                     0000    58 OPC$GL_FAB::				; OPERATOR LOG FAB
                                     0000    59 	$FAB	FAC=<PUT>,RAT=<CR>,FNA=OPR_FILE,FNS=OPR_FILE_SIZ
                                     0050    60 ;
                                     0050    61 ; RAB FOR OPERATOR LOG FILE INTERACTION
                                     0050    62 ;
                                     0050    63 OPC$GL_RAB::				; OPERATOR LOG RAB
                                     0050    64 	$RAB	FAB=OPC$GL_FAB
                                     0094    65 OPR_FILE:
52 45 50 4F 5D 52 47 4D 53 59 53 5B  0094    66 	.ASCII	/[SYSMGR]OPERATOR.LOG/
            47 4F 4C 2E 52 4F 54 41  00A0
                           00000014  00A8    67 OPR_FILE_SIZ=.-OPR_FILE
                                     00A8    68 ;
                                     00A8    69 ; FAO CONTROL STRING TO BUILD MAILBOX NAMES
                                     00A8    70 ;
                           00000007' 00A8    71 OPC$GL_DEVNAME:: 	.LONG	20$-10$
                           000000B0' 00AC    72 			.LONG	10$
               3A 57 5A 21 43 41 21  00B0    73 10$:			.ASCII	/!AC!ZW:/
                                     00B7    74 20$:
                           00000007' 00B7    75 OPC$GL_MBNAME::		.LONG	20$-10$
                           000000BF' 00BB    76 			.LONG	10$
               3A 57 5A 21 42 4D 5F  00BF    77 10$:			.ASCII	/_MB!ZW:/
                                     00C6    78 20$:
               3A 30 41 50 4F 5F 00' 00C6    79 OPC$T_DEFOPR::	.ASCIC	/_OPA0:/
                                 06  00C6
                                     00CD    80 ;
                                     00CD    81 ; LIST HEADS
                                     00CD    82 ;
                  00000000 00000000  00CD    83 OPC$GQ_POOL::	.LONG	0,0
                  00000000 00000000  00D5    84 OPC$GQ_MSGLIST::.LONG	0,0
                  00000000 00000000  00DD    85 OPC$GQ_TERMLIST::.LONG	0,0
                                     00E5    86 ;
                                     00E5    87 ; BUFFERS
                                     00E5    88 ;
                           00000100  00E5    89 OPC$GL_IDESC::		.LONG	256
                           000000F5' 00E9    90 			.LONG	PUT_MSG_BUF
                           00000000  00ED    91 OPC$GL_ODESC::		.LONG	0
                           000000F5' 00F1    92 			.LONG	PUT_MSG_BUF
                           000001F5  00F5    93 PUT_MSG_BUF:		.BLKB	256	; MESSAGE BUILDING BUFFER
                           00000000  01F5    94 OPC$GQ_MSGDESC::	.LONG	0
                           000001FD' 01F9    95 			.LONG	10$
                           00000281  01FD    96 10$:			.BLKB	132
                  00000289'00000000  0281    97 OPC$GQ_OPRDESC::	.LONG	0,10$
                           0000029D  0289    98 10$:			.BLKB	20
                                     029D    99 ;
                                     029D   100 ; OPERATOR MAILBOX STORAGE
                                     029D   101 ;
                           000002A1  029D   102 OPC$GL_BOX::		.BLKL	1
                                     02A1   103 ;
                                     02A1   104 ; MISC: STORAGE
                                     02A1   105 ;
                                     02A1   106 OPC$GW_SIZES::				; VECTOR OF MINIMUM MESSAGE SIZES
                               0040  02A1   107 	.WORD	OPC$L_MS_OTEXT+MSG_HDR-MSG_MSG	; TERMINAL ENABLE
OPCOMDAT        -- OPERATOR COMMUNICATIONS PROCESS DATA          22-AUG-1978 00:40:40   VAX-11 MACRO X0.3-11               Page   3
V06                                                                                                                              (2)

                               0040  02A3   108 	.WORD	OPC$L_MS_OTEXT+MSG_HDR-MSG_MSG	; LOG FILE INIT
                               002E  02A5   109 	.WORD	OPC$L_MS_TEXT+MSG_HDR-MSG_MSG	; USER REQUEST
                               0040  02A7   110 	.WORD	OPC$L_MS_OTEXT+MSG_HDR-MSG_MSG	; OPERATOR REPLY
                               002E  02A9   111 	.WORD	OPC$L_MS_TEXT+MSG_HDR-MSG_MSG	; CANCEL REQUEST
                               0040  02AB   112 	.WORD	OPC$L_MS_OTEXT+MSG_HDR-MSG_MSG	; SHOW STATUS
                                     02AD   113
                           00000000  02AD   114 OPC$GL_CHAN::.LONG	0		; UTILITY CHANNEL STORAGE
                  00000000 00000000  02B1   115 OPC$GL_IOSB::	.LONG	0,0		; IOSB FOR I/O
                                 00  02B9   116 OPC$GB_STATUS::	.BYTE	0		; PROCESS STATUS BYTE
                                 00  02BA   117 OPC$GB_TIMER::	.BYTE	0		; TIMER COUNTER
                  00000000 00000000  02BB   118 OPC$GQ_TIME::	.LONG	0,0		; REPEAT TIME QUAD WORD
                                     02C3   119 ;
                                     02C3   120 ; FAKE OPERATOR TERMINAL DESC FOR CANCELED MESSAGES
                                     02C3   121 ;
                                     02C3   122 OPC$GL_RQTERM::				;
00000000 00000000 00000000 00000000  02C3   123 		.LONG	0,0,0,0,20$-10$,10$
                  000002DB'00000004' 02D3
                        52 45 53 55  02DB   124 10$:	.ASCII	/USER/
                                     02DF   125 20$:
                                     02DF   126 ;
                                     02DF   127 ; MESSAGE DESCRIPTERS
                                     02DF   128 ;
                                     02DF   129 ; TERMINAL ENABLE/DISABLE MESSAGES
                                     02DF   130 ;
                                     02DF   131 MESSAGE	TERME,TERMENAB,0,1,4,<   Opcom, !%D, !AD, operator=!AD>
                                     0328   132 MESSAGE	TERMD,TERMDSBL,0,1,4,<   Opcom, !%D, !AD, operator=!AD>
                                     0370   133 ;
                                     0370   134 ; REQUEST COMPLETION MESSAGES
                                     0370   135 ;
                                     0370   136 MESSAGE COMPLTE,RQSTCMPLTE,0,1,5,<   Opcom, !%T, !AD, operator=!AD, ID=!ZL>
                                     03C4   137 ;
                                     03C4   138 ; ERROR MESSAGES
                                     03C4   139 ;
                                     03C4   140 MESSAGE ILLRQST,ILLRQST,0,1,4,<   Opcom, !%D, !AD, operator=!AD>
                                     040C   141 MESSAGE NORQST,NOSUCHRQST,0,1,5,<   Opcom, !%T, !AD, operator=!AD, ID=!ZL>
                                     0460   142 ;
                                     0460   143 ; LOG FILE CONTROL MESSAGES
                                     0460   144 ;
                                     0460   145 MESSAGE LOGINIT,LOGINIT,0,1,4,<   Opcom, !%D, !AD, operator=!AD>
                                     04A8   146 MESSAGE LOGCLOS,LOGCLOS,0,1,4,<   Opcom, !%D, !AD, operator=!AD>
                                     04F0   147 MESSAGE LOGFAIL,LOGFAIL,0,1,4,<   Opcom, !%D, !AD, operator=!AD>
                                     0538   148 MESSAGE LOGTIME,LOGTIME,0,1,2,<   Opcom, !%D, !AD>
                                     056C   149 ;
                                     056C   150 ; DEVICE OFF/ON LINE MESSAGES
                                     056C   151 ;
                                     056C   152 MESSAGE OFFLINE,DEVOFFLINE,0,1,4,<   Opcom, !%T, !AD, !AC!ZW:>
                                     05B0   153 MESSAGE ONLINE,DEVONLINE,0,1,4,<   Opcom, !%T, !AD, !AC!ZW:>
                                     05F4   154 ;
                  00000000 00058029  05F4   155 OPC$T_REPLY::	.LONG	OPC$_RQSTCMPLTE,0
                           0000003E' 05FC   156 		.LONG	20$-10$
                           00000628' 0600   157 		.LONG	10$
00000000 00000000 00000000 00000000  0604   158 		.LONG	0,0,0,0,0,0,0,0,0
00000000 00000000 00000000 00000000  0614
                           00000000  0624
                        07 07 07 07  0628   159 10$:		.BYTE	7,7,7,7
25 21 20 2C 6D 6F 63 70 4F 20 20 20  062C   160 		.ASCII	+   Opcom, !%T, !AD Accnt=!AD Reply-ID=!ZL!/+
74 6E 63 63 41 20 44 41 21 20 2C 54  0638
OPCOMDAT        -- OPERATOR COMMUNICATIONS PROCESS DATA          22-AUG-1978 00:40:40   VAX-11 MACRO X0.3-11               Page   4
V06                                                                                                                              (2)

49 2D 79 6C 70 65 52 20 44 41 21 3D  0644
               2F 21 4C 5A 21 3D 44  0650
41 21 20 2C 6D 6F 63 70 4F 20 20 20  0657   161 		.ASCII	+   Opcom, !AD!/+
                           2F 21 44  0663
                                     0666   162 20$:
                  00000000 00058029' 0666   163 OPC$T_RQST::	.LONG	OPC$_RQSTCMPLTE,0
                           00000033' 066E   164 		.LONG	20$-10$
                           0000069A' 0672   165 		.LONG	10$
00000000 00000000 00000000 00000000  0676   166 		.LONG	0,0,0,0,0,0,0,0,0
00000000 00000000 00000000 00000000  0686
                           00000000  0696
                        07 07 07 07  069A   167 10$:		.BYTE	7,7,7,7
25 21 20 2C 6D 6F 63 70 4F 20 20 20  069E   168 		.ASCII	@   Opcom, !%T, !AD Accnt=!AD!/@
74 6E 63 63 41 20 44 41 21 20 2C 54  06AA
                  2F 21 44 41 21 3D  06B6
2B 21 20 2C 6D 6F 63 70 4F 20 20 20  06BC   169 		.ASCII	@   Opcom, !+!AD!/@
                     2F 21 44 41 21  06C8
                                     06CD   170 20$:
                  00000000 00000000  06CD   171 OPC$T_STATUS::	.LONG	0,0
                           0000003C' 06D5   172 		.LONG	20$-10$
                           00000709' 06D9   173 		.LONG	10$
00000000 00000000 00000000 00000000  06DD   174 		.LONG	0,0,0,0,0,0,0,0,0,0,0
00000000 00000000 00000000 00000000  06ED
         00000000 00000000 00000000  06FD
25 21 20 2C 6D 6F 63 70 4F 20 20 20  0709   175 10$:		.ASCII	@   Opcom, !%T, Operator terminal status, !AD@
20 72 6F 74 61 72 65 70 4F 20 2C 54  0715
61 74 73 20 6C 61 6E 69 6D 72 65 74  0721
            44 41 21 20 2C 73 75 74  072D
            44 41 21 20 20 20 2F 21  0735   176 		.ASCII	@!/   !AD@
            44 41 21 20 20 20 2F 21  073D   177 		.ASCII	@!/   !AD@
                                     0745   178 20$:
                                     0745   179 ;
                                     0745   180 ; TRANSLATION TABLE FOR OPERATOR REQUEST TEXT
                                     0745   181 ;
                                     0745   182 OPC$GB_TRNS::				;
                                     0745   183 	.REPT	2
                                     0745   184 	.ASCII	/       /
                                     0745   185 	.BYTE	7
                                     0745   186 	.ASCII	/  /
                                     0745   187 	.BYTE	10
                                     0745   188 	.ASCII	/  /
                                     0745   189 	.BYTE	13
                                     0745   190 	.ASCII	/                  /
                                     0745   191 	X=32
                                     0745   192 	.REPT	97-X
                                     0745   193 	.BYTE	X
                                     0745   194 	X=X+1
                                     0745   195 	.ENDR
                                     0745   196 	.REPT	123-X
                                     0745   197 	.BYTE	X-^O040
                                     0745   198 	X=X+1
                                     0745   199 	.ENDR
                                     0745   200 	.REPT	127-X
                                     0745   201 	.BYTE	X
                                     0745   202 	X=X+1
                                     0745   203 	.ENDR
                                     0745   204 	.BYTE	32
OPCOMDAT        -- OPERATOR COMMUNICATIONS PROCESS DATA          22-AUG-1978 00:40:40   VAX-11 MACRO X0.3-11               Page   5
V06                                                                                                                              (2)

                                     0745   205 	.ENDR
                                     0845   206 ;
                                     0845   207 ; REQUEST ID BITMASK
                                     0845   208 ;
                                     0845   209 OPC$GL_RQSTID::				;
                           00000A45  0845   210 	.BLKL	128			; 512 OUTSTANDING REQUESTS
                                     0A45   211 	.END
OPCOMDAT        -- OPERATOR COMMUNICATIONS PROCESS DATA          22-AUG-1978 00:40:40   VAX-11 MACRO X0.3-11               Page   6
SYMBOL TABLE                                                                                                                     (2)

$$.TAB         = 00000050 R     04   FAB$M_INP      = 00080000            FAB$V_MXV      = 00000001
$$.TABEND      = 00000094 R     04   FAB$M_JNL      = 00400000            FAB$V_NAM      = 00000018
$$.TMP         = 00000000            FAB$M_KFO      = 40000000            FAB$V_NEF      = 0000000A
BIT...         = 00000020            FAB$M_MSE      = 00000010            FAB$V_NFS      = 00000010
FAB$B_BID        00000000            FAB$M_MXV      = 00000002            FAB$V_NIL      = 00000005
FAB$B_BKS        0000003E            FAB$M_NAM      = 01000000            FAB$V_OFP      = 0000001D
FAB$B_BLN        00000001            FAB$M_NEF      = 00000400            FAB$V_ORG      = 00000004
FAB$B_DNS        00000035            FAB$M_NFS      = 00010000            FAB$V_POS      = 00000008
FAB$B_FAC        00000016            FAB$M_NIL      = 00000020            FAB$V_PPF      = 00000012
FAB$B_FNS        00000034            FAB$M_OFP      = 20000000            FAB$V_PPF_IND  = 0000000E
FAB$B_FSZ        0000003F            FAB$M_POS      = 00000100            FAB$V_PPF_RAT  = 00000006
FAB$B_ORG        0000001D            FAB$M_PPF      = 00040000            FAB$V_PRN      = 00000002
FAB$B_RAT        0000001E            FAB$M_PPF_IND  = 00004000            FAB$V_PUT      = 00000000
FAB$B_RFM        0000001F            FAB$M_PPF_RAT  = 00003FC0            FAB$V_RCK      = 00000017
FAB$B_RTV        0000001C            FAB$M_PRN      = 00000004            FAB$V_RWC      = 0000000B
FAB$B_SHR        00000017            FAB$M_PUT      = 00000001            FAB$V_RWO      = 00000007
FAB$C_BID      = 00000003            FAB$M_RCK      = 00800000            FAB$V_SCF      = 0000000E
FAB$C_BLN        00000050            FAB$M_RWC      = 00000800            FAB$V_SHRDEL   = 00000002
FAB$C_FIX      = 00000001            FAB$M_RWO      = 00000080            FAB$V_SHRGET   = 00000001
FAB$C_HSH      = 00000030            FAB$M_SCF      = 00004000            FAB$V_SHRPUT   = 00000000
FAB$C_IDX      = 00000020            FAB$M_SHRDEL   = 00000004            FAB$V_SHRUPD   = 00000003
FAB$C_MAXRFM   = 00000003            FAB$M_SHRGET   = 00000002            FAB$V_SPL      = 0000000D
FAB$C_REL      = 00000010            FAB$M_SHRPUT   = 00000001            FAB$V_SQO      = 00000006
FAB$C_RFM_DFLT = 00000002            FAB$M_SHRUPD   = 00000008            FAB$V_SUP      = 00000002
FAB$C_SEQ      = 00000000            FAB$M_SPL      = 00002000            FAB$V_TEF      = 0000001C
FAB$C_UDF      = 00000000            FAB$M_SQO      = 00000040            FAB$V_TMD      = 00000004
FAB$C_VAR      = 00000002            FAB$M_SUP      = 00000004            FAB$V_TMP      = 00000003
FAB$C_VFC      = 00000003            FAB$M_TEF      = 10000000            FAB$V_TRN      = 00000004
FAB$K_BLN        00000050            FAB$M_TMD      = 00000010            FAB$V_UFM      = 0000001A
FAB$L_ALQ        00000010            FAB$M_TMP      = 00000008            FAB$V_UFO      = 00000011
FAB$L_CTX        00000018            FAB$M_TRN      = 00000010            FAB$V_UPD      = 00000003
FAB$L_DEV        00000040            FAB$M_UFM      = 04000000            FAB$V_UPI      = 00000006
FAB$L_DNA        00000030            FAB$M_UFO      = 00020000            FAB$V_WCK      = 00000009
FAB$L_FNA        0000002C            FAB$M_UPD      = 00000008            FAB$W_BLS        0000003C
FAB$L_FOP        00000004            FAB$M_UPI      = 00000040            FAB$W_DEQ        00000014
FAB$L_JNL        00000020            FAB$M_WCK      = 00000200            FAB$W_IFI        00000002
FAB$L_MRN        00000038            FAB$S_ORG      = 00000004            FAB$W_MRS        00000036
FAB$L_NAM        00000028            FAB$S_PPF_RAT  = 00000008            GBL...         = 00000000
FAB$L_SDC        00000044            FAB$V_BIO      = 00000005            MSG$_ABOOPR    = 00000011
FAB$L_STS        00000008            FAB$V_BLK      = 00000003            MSG$_ABORT     = 00000030
FAB$L_STV        0000000C            FAB$V_BRO      = 00000006            MSG$_ACCRSP    = 00000021
FAB$L_XAB        00000024            FAB$V_CBT      = 00000015            MSG$_CONFIRM   = 00000031
FAB$M_BIO      = 00000020            FAB$V_CIF      = 00000019            MSG$_CONNECT   = 00000032
FAB$M_BLK      = 00000008            FAB$V_CR       = 00000001            MSG$_CRUNSOLIC = 00000002
FAB$M_BRO      = 00000040            FAB$V_CTG      = 00000014            MSG$_DELPROC   = 00000003
FAB$M_CBT      = 00200000            FAB$V_DEL      = 00000002            MSG$_DELSMB    = 00000014
FAB$M_CIF      = 02000000            FAB$V_DFW      = 00000005            MSG$_DEVOFFLIN = 00000005
FAB$M_CR       = 00000002            FAB$V_DLT      = 0000000F            MSG$_DEVONLIN  = 00000007
FAB$M_CTG      = 00100000            FAB$V_DMO      = 0000000C            MSG$_DISCON    = 00000033
FAB$M_DEL      = 00000004            FAB$V_ESC      = 0000001B            MSG$_EXIT      = 00000034
FAB$M_DFW      = 00000020            FAB$V_EXE      = 00000007            MSG$_INIOPR    = 00000010
FAB$M_DLT      = 00008000            FAB$V_FTN      = 00000000            MSG$_INTMSG    = 00000035
FAB$M_DMO      = 00001000            FAB$V_GET      = 00000001            MSG$_OPREPLY   = 00000009
FAB$M_ESC      = 08000000            FAB$V_INP      = 00000013            MSG$_OPRQST    = 00000008
FAB$M_EXE      = 00000080            FAB$V_JNL      = 00000016            MSG$_PATHLOST  = 00000036
FAB$M_FTN      = 00000001            FAB$V_KFO      = 0000001E            MSG$_PROTOCOL  = 00000037
FAB$M_GET      = 00000002            FAB$V_MSE      = 00000004            MSG$_REJECT    = 00000038
OPCOMDAT        -- OPERATOR COMMUNICATIONS PROCESS DATA          22-AUG-1978 00:40:40   VAX-11 MACRO X0.3-11               Page   7
SYMBOL TABLE                                                                                                                     (2)

MSG$_RESOPR    = 00000013            OPC$L_MS_OTEXT   0000001A            OPC$V_NM_TAPES = 00000002
MSG$_SCANBAD   = 00000028            OPC$L_MS_RPLYID  00000004            OPC$W_MS_OUNIT   00000008
MSG$_SCANRSP   = 00000029            OPC$L_MS_RQSTID  00000004            OPC$W_MS_STATUS  00000002
MSG$_SMBDON    = 00000009            OPC$L_MS_TEXT    00000008            OPC$_DEVNOTERM = 00058074
MSG$_SMBINI    = 00000008            OPC$M_NM_CARDS = 00000020            OPC$_DEVOFFLINE= 0005804C
MSG$_SMBRSP    = 00000020            OPC$M_NM_CENTRL= 00000001            OPC$_DEVONLINE = 00058054
MSG$_SNDACC    = 0000000A            OPC$M_NM_DEVICE= 00000010            OPC$_ILLRQST   = 0005807C
MSG$_SNDSMB    = 00000004            OPC$M_NM_DISKS = 00000008            OPC$_LOGCLOS   = 000580A4
MSG$_SUSOPR    = 00000012            OPC$M_NM_NTWORK= 00000040            OPC$_LOGFAIL   = 00058034
MSG$_THIRDPARTY= 00000039            OPC$M_NM_OPER1 = 00001000            OPC$_LOGINIT   = 00058009
MSG$_TIMEOUT   = 0000003A            OPC$M_NM_OPER10= 00200000            OPC$_LOGTIME   = 00058099
MSG$_TRMHANGUP = 00000006            OPC$M_NM_OPER11= 00400000            OPC$_NOCLI     = 0005805C
MSG$_TRMUNSOLIC= 00000001            OPC$M_NM_OPER12= 00800000            OPC$_NOPERATOR = 00058061
MSG$_XM_ATTN   = 0000000D            OPC$M_NM_OPER2 = 00002000            OPC$_NOSUCHRQST= 00058044
MSG$_XM_DATAVL = 0000000B            OPC$M_NM_OPER3 = 00004000            OPC$_OPREPLY   = 00058091
MSG$_XM_SHUTDN = 0000000C            OPC$M_NM_OPER4 = 00008000            OPC$_OPRNOTIF  = 00058089
MSG_ACCOUNT      00000028            OPC$M_NM_OPER5 = 00010000            OPC$_RQSTABORT = 0005801C
MSG_DEVCNT       00000010            OPC$M_NM_OPER6 = 00020000            OPC$_RQSTCAN   = 00058084
MSG_DEVNAME      00000011            OPC$M_NM_OPER7 = 00040000            OPC$_RQSTCMPLTE= 00058029
MSG_DEVUNIT      0000000E            OPC$M_NM_OPER8 = 00080000            OPC$_RQSTPEND  = 00058021
MSG_HDR          00000032            OPC$M_NM_OPER9 = 00100000            OPC$_RQ_CANCEL = 00000005
MSG_LINK         00000000            OPC$M_NM_PRINT = 00000002            OPC$_RQ_LOGI   = 00000002
MSG_MSG          0000000C            OPC$M_NM_TAPES = 00000004            OPC$_RQ_REPLY  = 00000004
MSG_NUMBER       00000008            OPC$T_COMPLTE    00000370 RG    04   OPC$_RQ_RQST   = 00000003
MSG_PRI          00000030            OPC$T_DEFOPR     000000C6 RG    04   OPC$_RQ_STATUS = 00000006
MSG_PRIV         00000010            OPC$T_ILLRQST    000003C4 RG    04   OPC$_RQ_TERME  = 00000001
MSG_REPLYMBX     0000000E            OPC$T_LOGCLOS    000004A8 RG    04   OPC$_TERMDSBL  = 00058011
MSG_SIZE         000000CC            OPC$T_LOGFAIL    000004F0 RG    04   OPC$_TERMENAB  = 00058001
MSG_UIC          00000018            OPC$T_LOGINIT    00000460 RG    04   OPC$_TERMFAIL  = 0005803C
MSG_USRNAME      0000001C            OPC$T_LOGTIME    00000538 RG    04   OPC$_UNKNOPR   = 0005806C
OPC$B_MS_ENAB    00000001            OPC$T_MS_ONAME   0000000A            OPR_FILE         00000094 R     04
OPC$B_MS_TARGET  00000001            OPC$T_NORQST     0000040C RG    04   OPR_FILE_SIZ   = 00000014
OPC$B_MS_TYPE    00000000            OPC$T_OFFLINE    0000056C RG    04   OTV_ACTIVE     = 00000000
OPC$C_REPEAT   = 00000005            OPC$T_ONLINE     000005B0 RG    04   OT_DESC          00000010
OPC$GB_STATUS    000002B9 RG    04   OPC$T_REPLY      000005F4 RG    04   OT_LINK          00000000
OPC$GB_TIMER     000002BA RG    04   OPC$T_RQST       00000666 RG    04   OT_NAME          00000018
OPC$GB_TRNS      00000745 RG    04   OPC$T_STATUS     000006CD RG    04   OT_SERVICE       00000008
OPC$GL_BOX       0000029D RG    04   OPC$T_TERMD      00000328 RG    04   OT_SIZE          00000028
OPC$GL_CHAN      000002AD RG    04   OPC$T_TERME      000002DF RG    04   OT_STATUS        0000000C
OPC$GL_DEVNAME   000000A8 RG    04   OPC$V_NM_CARDS = 00000005            PUT_MSG_BUF      000000F5 R     04
OPC$GL_FAB       00000000 RG    04   OPC$V_NM_CENTRL= 00000000            RAB$B_BID        00000000
OPC$GL_IDESC     000000E5 RG    04   OPC$V_NM_DEVICE= 00000004            RAB$B_BLN        00000001
OPC$GL_IOSB      000002B1 RG    04   OPC$V_NM_DISKS = 00000003            RAB$B_KRF        00000035
OPC$GL_MBNAME    000000B7 RG    04   OPC$V_NM_NTWORK= 00000006            RAB$B_KSZ        00000034
OPC$GL_ODESC     000000ED RG    04   OPC$V_NM_OPER1 = 0000000C            RAB$B_MBC        00000037
OPC$GL_RAB       00000050 RG    04   OPC$V_NM_OPER10= 00000015            RAB$B_MBF        00000036
OPC$GL_RQSTID    00000845 RG    04   OPC$V_NM_OPER11= 00000016            RAB$B_PSZ        00000034
OPC$GL_RQTERM    000002C3 RG    04   OPC$V_NM_OPER12= 00000017            RAB$B_RAC        0000001E
OPC$GQ_MSGDESC   000001F5 RG    04   OPC$V_NM_OPER2 = 0000000D            RAB$B_ROP1       00000005
OPC$GQ_MSGLIST   000000D5 RG    04   OPC$V_NM_OPER3 = 0000000E            RAB$B_ROP2       00000006
OPC$GQ_OPRDESC   00000281 RG    04   OPC$V_NM_OPER4 = 0000000F            RAB$B_ROP3       00000007
OPC$GQ_POOL      000000CD RG    04   OPC$V_NM_OPER5 = 00000010            RAB$B_TMO        0000001F
OPC$GQ_TERMLIST  000000DD RG    04   OPC$V_NM_OPER6 = 00000011            RAB$C_BID      = 00000001
OPC$GQ_TIME      000002BB RG    04   OPC$V_NM_OPER7 = 00000012            RAB$C_BLN        00000044
OPC$GW_SIZES     000002A1 RG    04   OPC$V_NM_OPER8 = 00000013            RAB$C_KEY      = 00000001
OPC$L_MS_MASK    00000004            OPC$V_NM_OPER9 = 00000014            RAB$C_RFA      = 00000002
OPC$L_MS_MAXSZ   0000009A            OPC$V_NM_PRINT = 00000001            RAB$C_SEQ      = 00000000
OPCOMDAT        -- OPERATOR COMMUNICATIONS PROCESS DATA          22-AUG-1978 00:40:40   VAX-11 MACRO X0.3-11               Page   8
SYMBOL TABLE                                                                                                                     (2)

RAB$K_BLN        00000044            RAB$V_NLK      = 00000014
RAB$L_BKT        00000038            RAB$V_NXR      = 00000017
RAB$L_CTX        00000018            RAB$V_PMT      = 0000001E
RAB$L_DCT        00000038            RAB$V_PPF_IND  = 0000000E
RAB$L_FAB        0000003C            RAB$V_PPF_RAT  = 00000006
RAB$L_KBF        00000030            RAB$V_PTA      = 0000001D
RAB$L_PBF        00000030            RAB$V_RAH      = 00000009
RAB$L_RBF        00000028            RAB$V_RLK      = 00000013
RAB$L_RFA0       00000010            RAB$V_RNE      = 00000018
RAB$L_RHB        0000002C            RAB$V_RNF      = 0000001B
RAB$L_ROP        00000004            RAB$V_TMO      = 00000019
RAB$L_STS        00000008            RAB$V_TPT      = 00000001
RAB$L_STV        0000000C            RAB$V_UIF      = 00000004
RAB$L_UBF        00000024            RAB$V_ULK      = 00000012
RAB$M_ASY      = 00000001            RAB$V_WAT      = 00000011
RAB$M_BIO      = 00000800            RAB$V_WBH      = 0000000A
RAB$M_CCO      = 80000000            RAB$W_ISI        00000002
RAB$M_CVT      = 04000000            RAB$W_RFA        00000010
RAB$M_EOF      = 00000100            RAB$W_RFA4       00000014
RAB$M_FDL      = 00000040            RAB$W_RSZ        00000022
RAB$M_HSH      = 00000080            RAB$W_USZ        00000020
RAB$M_KGE      = 00200000            STV_TIMER        00000000
RAB$M_KGT      = 00400000            X              = 0000007F
RAB$M_LIM      = 00004000
RAB$M_LOA      = 00002000
RAB$M_LOC      = 00010000
RAB$M_MAS      = 00000020
RAB$M_NLK      = 00100000
RAB$M_NXR      = 00800000
RAB$M_PMT      = 40000000
RAB$M_PPF_IND  = 00004000
RAB$M_PPF_RAT  = 00003FC0
RAB$M_PTA      = 20000000
RAB$M_RAH      = 00000200
RAB$M_RLK      = 00080000
RAB$M_RNE      = 01000000
RAB$M_RNF      = 08000000
RAB$M_TMO      = 02000000
RAB$M_TPT      = 00000002
RAB$M_UIF      = 00000010
RAB$M_ULK      = 00040000
RAB$M_WAT      = 00020000
RAB$M_WBH      = 00000400
RAB$S_PPF_RAT  = 00000008
RAB$V_ASY      = 00000000
RAB$V_BIO      = 0000000B
RAB$V_CCO      = 0000001F
RAB$V_CVT      = 0000001A
RAB$V_EOF      = 00000008
RAB$V_FDL      = 00000006
RAB$V_HSH      = 00000007
RAB$V_KGE      = 00000015
RAB$V_KGT      = 00000016
RAB$V_LIM      = 0000000E
RAB$V_LOA      = 0000000D
RAB$V_LOC      = 00000010
RAB$V_MAS      = 00000005
OPCOMDAT        -- OPERATOR COMMUNICATIONS PROCESS DATA          22-AUG-1978 00:40:40   VAX-11 MACRO X0.3-11               Page   9
PROGRAM SECTION SYNOPSIS                                                                                                         (2)


PROGRAM SECTION SYNOPSIS

.  ABS  .        00000000      00     NOPIC   USR   CON   ABS   LCL NOSHR NOEXE NORD  NOWRT BYTE
. BLANK .        00000000      01     NOPIC   USR   CON   REL   LCL NOSHR   EXE   RD    WRT BYTE
OPCOM_DEF        000000CC      02     NOPIC   USR   CON   ABS   LCL NOSHR   EXE   RD    WRT BYTE
$ABS$            0000009E      03     NOPIC   USR   CON   ABS   LCL NOSHR   EXE   RD    WRT BYTE
OPCOM_DAT        00000A45      04     NOPIC   USR   CON   REL   LCL NOSHR NOEXE   RD    WRT LONG


THERE WERE NO ERRORS OR WARNINGS.
12510. BYTES LEFT IN FREE MEMORY POOL.
868. BYTES OF RECLAIMED MEMORY.
OBJ$:OPCOMDAT,LIS$:OPCOMDAT/-SP=EXECML$/ML,SRC$:ODEF,OPCOMDAT
13 MLB DIR RDS - 646 GETS TO DEFINE 25 MACROS. 60 INTER. FILE WRITES.
