REPLY_COMMAND   - OPERATOR REPLY TO REQUEST COMMAND IMAGE        22-AUG-1978 00:43:08   VAX-11 MACRO X0.3-11               Page   0
TABLE OF CONTENTS

   (2)     240  REPLY - OPERATOR REPLY TO REQUEST COMMAND IMAGE
   (3)     317  ENABLE/DISABLE OPERATOR TERMINAL QUALIFIERS
   (4)     369  LOGFILE CONTROL AND TERMINAL STATUS QUALIFIERS
   (5)     398  COMPLETE, PEND OR CANCEL REQUEST QUALIFIERS
   (6)     431  SND_OPR_MSG - SEND MESSAGE TO OPCOM
   (7)     467  BROADCAST QUALIFIERS
REPLY_COMMAND   - OPERATOR REPLY TO REQUEST COMMAND IMAGE        22-AUG-1978 00:43:08   VAX-11 MACRO X0.3-11               Page   1
V06                                                                                                                              (1)

                                     0001     1 	.TITLE	REPLY_COMMAND - OPERATOR REPLY TO REQUEST COMMAND IMAGE
                                     0001     2 	.IDENT	/V06/
                                     0001     3 ; COPYRIGHT (C) 1978
                                     0001     4 ; DIGITAL EQUIPMENT CORPORATION, MAYNARD, MASS.
                                     0001     5 ;
                                     0001     6 ; THIS SOFTWARE IS FURNISHED UNDER  A LICENSE FOR USE ONLY  ON  A
                                     0001     7 ; SINGLE COMPUTER SYSTEM AND MAY BE  COPIED ONLY WITH  THE INCLU-
                                     0001     8 ; SION OF  THE  ABOVE  COPYRIGHT NOTICE.  THIS SOFTWARE,  OR  ANY
                                     0001     9 ; OTHER COPIES THEREOF, MAY NOT BE  PROVIDED  OR  OTHERWISE  MADE
                                     0001    10 ; AVAILABLE TO ANY OTHER PERSON EXCEPT  FOR  USE  ON  SUCH SYSTEM
                                     0001    11 ; AND TO  ONE WHO AGREES  TO  THESE LICENSE  TERMS.  TITLE TO AND
                                     0001    12 ; OWNERSHIP OF THE SOFTWARE SHALL AT ALL TIMES REMAIN IN DEC.
                                     0001    13 ;
                                     0001    14 ; THE INFORMATION IN THIS SOFTWARE  IS  SUBJECT TO CHANGE WITHOUT
                                     0001    15 ; NOTICE AND SHOULD NOT BE CONSTRUED  AS  A COMMITMENT BY DIGITAL
                                     0001    16 ; EQUIPMENT CORPORATION.
                                     0001    17 ;
                                     0001    18 ; DEC ASSUMES NO RESPONSIBILITY FOR THE USE OR RELIABILITY OF ITS
                                     0001    19 ; SOFTWARE ON EQUIPMENT WHICH IS NOT SUPPLIED BY DEC.
                                     0001    20 ;++
                                     0001    21 ; FACILITY:
                                     0001    22 ;
                                     0001    23 ;	OPERATOR REPLY TO REQUEST COMMAND IMAGE
                                     0001    24 ;
                                     0001    25 ; ABSTRACT:
                                     0001    26 ;
                                     0001    27 ;	THIS IMAGE IMPLEMENTS THE DCL REPLY COMMAND. IT IS THE GENERAL PURPOSE
                                     0001    28 ;	OPERATOR UTILITY.
                                     0001    29 ;
                                     0001    30 ; AUTHOR:
                                     0001    31 ;	R.HEINEN 28-SEP-1977
                                     0001    32 ;--
                                     0001    33 ;
                                     0001    34 ; EXTERNAL SYMBOLS
                                     0001    35 ;
                                     0001    36 	$CLIDEFQUALREPL			; DEFINE CLI SYMBOLS
                                     0001    37 	$DEVDEF				; DEFINE DEVICE CHARACTERACTICS
                                     0001    38 	$JPIDEF				; DEFINE JPI SYMBOLS
                                     0001    39 	$PRVDEF				; DEFINE PRIVILEGE VECTOR
                                     0001    40 ;
                                     0001    41 ; LOCAL MACROS
                                     0001    42 ;
                                     0001    43 	.MACRO	CLI	A,B,C
                                     0001    44 	.IF	NB	C
                                     0001    45 	PUSHAB	C
                                     0001    46 	.IFF
                                     0001    47 	CLRL	-(SP)
                                     0001    48 	.ENDC
                                     0001    49 	.IF	NB	B
                                     0001    50 	PUSHAB	B
                                     0001    51 	.IFF
                                     0001    52 	CLRL	-(SP)
                                     0001    53 	.ENDC
                                     0001    54 	.IF	NB	A
                                     0001    55 	PUSHAB	A
                                     0001    56 	.IFF
                                     0001    57 	CLRL	-(SP)
REPLY_COMMAND   - OPERATOR REPLY TO REQUEST COMMAND IMAGE        22-AUG-1978 00:43:08   VAX-11 MACRO X0.3-11               Page   2
V06                                                                                                                              (1)

                                     0001    58 	.ENDC
                                     0001    59 	CALLS	#3,@W^CALLBACK
                                     0001    60 	.ENDM
                                     0001    61 ;
                                     0001    62 ; LOCAL STORAGE
                                     0001    63 ;
                                 00000000    64 	.PSECT	OPCOM_IMPURE,NOEXE,QUAD
                                     0000    65 ;
                                     0000    66 ; NAME OF SYS$COMMAND DEVICE
                                     0000    67 ;
                  00000008'00000000  0000    68 SYS_CMD_I:	.LONG	0,10$
                           00000020  0008    69 10$:		.BLKL	6
                           0000000B' 0020    70 SYS_CMD:	.LONG	20$-10$
                           00000028' 0024    71 		.LONG	10$
   44 4E 41 4D 4D 4F 43 24 53 59 53  0028    72 10$:	.ASCII	/SYS$COMMAND/
                                     0033    73 20$:
                           0000003B  0033    74 	.BLKB	8
                                     003B    75 ;
                                     003B    76 ; DATA STORAGE TO GET PROCESS NAME IN CASE SYS$COMMAND IS NOT A TERMINAL
                                     003B    77 ;
                               0010  003B    78 JPI_DATA:	.WORD	16		; MAX SIZE
                               031C  003D    79 		.WORD	JPI$_PRCNAM	;
                           00000053' 003F    80 		.LONG	USER_NAME+8	; STORAGE ADDRESS
                           0000004B' 0043    81 		.LONG	USER_NAME	; SIZE STORAGE ADDRESS
                           00000000  0047    82 		.LONG	0
                  00000053'00000010  004B    83 USER_NAME:	.LONG	16,10$
                           00000063  0053    84 10$:		.BLKL	4
                  0000006B'00000005' 0063    85 BATCH:		.LONG	20$-10$,10$
                     68 63 74 61 42  006B    86 10$:		.ASCII	/Batch/
                                     0070    87 20$:
                                     0070    88 ;
                                     0070    89 ; DESC FOR BROADCAST TARGET
                                     0070    90 ;
                  00000000 00000000  0070    91 BRD_DESC:	.LONG	0,0
                                     0078    92 ;
                                     0078    93 ; BUFFER TO BUILD BROADCAST MESSAGE
                                     0078    94 ;
                  00000080'00000100  0078    95 BRD_BUF:	.LONG	256,10$
                           00000180  0080    96 10$:		.BLKB	256
                                     0180    97 ;
                                     0180    98 ; OPERATOR MESSAGE BUFFER AND ENTRIES
                                     0180    99 ;
                  0000018C'00000000  0180   100 MSG_DESC:	.LONG	0,10$
                           00000000  0188   101 	.LONG	0			; PAD SPACE
                                     018C   102 10$:
                           0000018D  018C   103 RQSTYPE:	.BLKB	1		; OPERATOR REQUEST TYPE
                           00000190  018D   104 TARGET:		.BLKB	3		; MASK OF TARGET OPERATORS
                           00000194  0190   105 MSGID:		.BLKB	4		; MESSAGE ID
                           000001A6  0194   106 OPRNAME:	.BLKB	2+16		; OPERATOR NAME AND UNIT
                           00000226  01A6   107 RETURNTEXT:	.BLKB	128		; TEXT OF REPLY
                                     0226   108 ;
                                     0226   109 ; FAO CONTROL STRINGS
                                     0226   110 ;
                           00000012' 0226   111 TTY:	.LONG	20$-10$
                           0000022E' 022A   112 	.LONG	10$
25 21 20 53 41 21 2C 53 41 21 2F 21  022E   113 10$:	.ASCII	@!/!AS,!AS !%T!/!AS@
                  53 41 21 2F 21 54  023A
REPLY_COMMAND   - OPERATOR REPLY TO REQUEST COMMAND IMAGE        22-AUG-1978 00:43:08   VAX-11 MACRO X0.3-11               Page   3
V06                                                                                                                              (1)

                                     0240   114 20$:
                        07 07 07 07  0240   115 	.BYTE	7,7,7,7			; BELLS FOR /BELL QUALIFIER
                                     0244   116 ;
                                     0244   117 ; CLI RESULT PARSE DATA STORAGE
                                     0244   118 ;
                                     0244   119 CLI_MESSAGE:	$CLIREQDESC	RQTYPE=CLI$K_INPUT1
                                     0260   120 CLI_INITCMD:	$CLIREQDESC	RQTYPE=CLI$K_INITPRS
                                     027C   121 CLI_MAJORQUAL:	$CLIREQDESC	RQTYPE=CLI$K_GETQUAL,QUALST=QUALS
                                     0298   122 CLI_NUMVAL:	$CLIREQDESC	RQTYPE=CLI$K_NUMERVAL
                                     02B4   123 CLI_STRINGVAL:	$CLIREQDESC	RQTYPE=CLI$K_ASCIIVAL
                           00000350  02D0   124 CLI_WORKAREA:	.BLKB	CLI$C_WORKAREA
                                     0350   125 ;
                                     0350   126 ; QUALIFIER DESCS
                                     0350   127 ;
                                     0350   128 QUALS:
                                     0350   129 ENAB_QUAL:	$CLIQUALDESC QDCODE=CLI$K_REPL_ENAB,TRUACT=ENAB_ROUT
                                     0367   130 DISA_QUAL:	$CLIQUALDESC QDCODE=CLI$K_REPL_DISA,TRUACT=DISA_ROUT
                                     037E   131 TO_QUAL:	$CLIQUALDESC QDCODE=CLI$K_REPL_TO,TRUACT=TO_ROUT
                                     0395   132 ABOR_QUAL:	$CLIQUALDESC QDCODE=CLI$K_REPL_ABOR,TRUACT=ABOR_ROUT
                                     03AC   133 PEND_QUAL:	$CLIQUALDESC QDCODE=CLI$K_REPL_PEND,TRUACT=PEND_ROUT
                                     03C3   134 BELL_QUAL:	$CLIQUALDESC QDCODE=CLI$K_REPL_BELL,TRUACT=BELL_ROUT
                                     03DA   135 USER_QUAL:	$CLIQUALDESC QDCODE=CLI$K_REPL_USER,TRUACT=USER_ROUT
                                     03F1   136 ALL_QUAL:	$CLIQUALDESC QDCODE=CLI$K_REPL_ALL,TRUACT=ALL_ROUT
                                     0408   137 TERM_QUAL:	$CLIQUALDESC QDCODE=CLI$K_REPL_TERM,TRUACT=TERM_ROUT
                                     041F   138 		$CLIQUALDESC QDCODE=CLI$K_REPL_STAT,TRUACT=STAT_ROUT
                                     0436   139 LOG_QUAL:	$CLIQUALDESC QDCODE=CLI$K_REPL_LOG,TRUACT=LOG_ROUT,FLSACT=NOLOG_ROUT,-
                                     0436   140 		QDFLGS=<CLI$V_QDEXPA>
                                     044D   141 	$CLIQUALDESC	END_LIST
                                     044E   142 ;
                                     044E   143 ; BUFFER FOR OPERATOR NAME MATCH
                                     044E   144 ;
                                     044E   145 NAME_BUF:
         00000000 00000000 00000000  044E   146 	.LONG	0,0,0
                                     045A   147 ;
                                     045A   148 ; MISC STORAGE
                                     045A   149 ;
                           00000000  045A   150 MASK:		.LONG	0		; OPERATOR ENABLE/DISABLE MASK
                           00000000  045E   151 CALLBACK:	.LONG	0		; ADDRESS OF THE CLI PARSE CALL BACK
REPLY_COMMAND   - OPERATOR REPLY TO REQUEST COMMAND IMAGE        22-AUG-1978 00:43:08   VAX-11 MACRO X0.3-11               Page   4
V06             REPLY - OPERATOR REPLY TO REQUEST COMMAND IMAGE                                                                  (2)

                                     0462   153 	.SBTTL	REPLY - OPERATOR REPLY TO REQUEST COMMAND IMAGE
                                 00000000   154 	.PSECT	OPCOM_CODE,NOWRT
                                     0000   155 ;++
                                     0000   156 ; REPLY - OPERATOR REPLY TO REQUEST COMMAND IMAGE
                                     0000   157 ;
                                     0000   158 ; FUNCTIONAL DESCRIPTION:
                                     0000   159 ;
                                     0000   160 ; THIS ROUTINE IS THE REPLY COMMAND IMAGE.
                                     0000   161 ;
                                     0000   162 ; THE ACTION IS TO ACT ON THE CLI'S RESULT PARSE DATA AND PERFORM THE REQUIRED
                                     0000   163 ; OPERATOR UTILITY.
                                     0000   164 ;
                                     0000   165 ; INPUTS:
                                     0000   166 ;
                                     0000   167 ;	CLI RESULT PARSE DATA IS AVAILABLE
                                     0000   168 ;
                                     0000   169 ; OUTPUTS:
                                     0000   170 ;
                                     0000   171 ;	IMAGE EXIT WITH STATUS OF THE OPERATION.
                                     0000   172 ;--
                                     0000   173 REPLY:					;
                               0000  0000   174 	.WORD	0			;
       045E'CF         08 AC     D0  0002   175 	MOVL	CLI$A_UTILSERV(AP),W^CALLBACK; GET CALL BACK ADDRESS
                          0D     12  0008   176 	BNEQ	5$			; IF NEQ THEN CONTINUE
                                     000A   177 ;
                                     000A   178 ; NO CLI ERROR EXIT
                                     000A   179 ;
                                     000A   180 	$EXIT_S	#OPC$_NOCLI		; NO CLI
                                     0017   181 ;
                                     0017   182 ; TRANSLATE SYS$COMMAND FOR INCLUSION IN OPERATOR MESSAGE AND ON BROADCASTS
                                     0017   183 ;
            52            05     9A  0017   184 5$:	MOVZBL	#5,R2			; SET TRANSLATE LOOP COUNT
       0000'CF            18     D0  001A   185 10$:	MOVL	#24,W^SYS_CMD_I		;
                                     001F   186 	$TRNLOG_S	LOGNAM=W^SYS_CMD,-
                                     001F   187 			RSLLEN=W^SYS_CMD_I,-
                                     001F   188 			RSLBUF=W^SYS_CMD_I
       0020'CF       0000'CF     7D  0038   189 	MOVQ	W^SYS_CMD_I,W^SYS_CMD	; SET UP FOR NEXT TRANSLATE
            1D            50     E9  003F   190 	BLBC	R0,35$			; IF LOW CLEAR THEN DONE
       0000'8F            50     B1  0042   191 	CMPW	R0,#SS$_NOTRAN		; IF NOT NORMAL THEN TRY AGAIN
                          16     13  0047   192 	BEQL	35$			;
            1B       0024'DF     91  0049   193 	CMPB	@W^SYS_CMD+4,#^X01B	; ESCAPE?
                          05     13  004E   194 	BEQL	30$
            C7            52     F5  0050   195 	SOBGTR	R2,10$			;
                          0A     11  0053   196 	BRB	35$
       0004'CF            04     C0  0055   197 30$:	ADDL	#4,W^SYS_CMD_I+4		; ADJUST DESC
       0000'CF            04     C2  005A   198 	SUBL	#4,W^SYS_CMD_I
                                     005F   199 35$:	$GETDEV_S	DEVNAM=W^SYS_CMD_I,-
                                     005F   200 			PRIBUF=W^BRD_BUF
            03            50     E8  0074   201 	BLBS	R0,36$			; IF ERROR THEN EXIT
                          008C   31  0077   202 	BRW	CMDERROR		;
                                     007A   203 36$:	$GETJPI_S	ITMLST=JPI_DATA	; GET PROCESS NAME
       0080'CF            02     E0  0091   204 	BBS	#DEV$V_TRM,W^BRD_BUF+8,40$; BR IF TERMINAL
                          28         0096
       004B'CF         5F 8F     3B  0097   205 	SKPC	#^A/_/,W^USER_NAME,W^USER_NAME+8; PASS ALL USCORES IN NAME
                     0053'CF         009D
                          05     13  00A0   206 	BEQL	37$			; IF EQL THEN NO USCORES
       004B'CF            50     7D  00A2   207 	MOVQ	R0,W^USER_NAME		; COPY REMAINDER
REPLY_COMMAND   - OPERATOR REPLY TO REQUEST COMMAND IMAGE        22-AUG-1978 00:43:08   VAX-11 MACRO X0.3-11               Page   5
V06             REPLY - OPERATOR REPLY TO REQUEST COMMAND IMAGE                                                                  (2)

            50       004B'CF     9A  00A7   208 37$:	MOVZBL	W^USER_NAME,R0		; GET NAME SIZE
                     0194'CF     B4  00AC   209 	CLRW	W^OPRNAME		; SET NO UNIT
       0196'CF            50     90  00B0   210 	MOVB	R0,W^OPRNAME+2		; SET UP COUNTED STRING
       0053'CF            50     28  00B5   211 	MOVC3	R0,W^USER_NAME+8,W^OPRNAME+3; COPY NAME
                     0197'CF         00BA
                          27     11  00BD   212 	BRB	50$			; CONTINUE
       0194'CF       008C'CF     B0  00BF   213 40$:	MOVW	W^BRD_BUF+8+12,W^OPRNAME; SAVE UNIT NUMBER
            50       008E'CF     9A  00C6   214 	MOVZBL	W^BRD_BUF+8+14,R0	; ADDRESS NAME OF CONTROLLER
            51       0080'CF40   9A  00CB   215 	MOVZBL	W^BRD_BUF+8[R0],R1	; GET SIZE
            51            01     81  00D1   216 	ADDB3	#1,R1,W^OPRNAME+2	; INSERT SIZE
                     0196'CF         00D4
       0197'CF         5F 8F     90  00D7   217 	MOVB	#^A/_/,W^OPRNAME+3	;  INSERT "_"
       0081'CF40          51     28  00DD   218 	MOVC3	R1,W^BRD_BUF+9[R0],W^OPRNAME+4; COPY NAME
                     0198'CF         00E3
                                     00E6   219 ;
                                     00E6   220 ; BEGIN QUALIFIER PROCESSING
                                     00E6   221 ;
                                     00E6   222 50$:	CLI	W^CLI_INITCMD,W^CLI_WORKAREA; INIT PARSE
                                     00F5   223 	CLI	W^CLI_MAJORQUAL,W^CLI_WORKAREA,W^MASK; DO QUALIFIER WORK
                                     0106   224 ;
                                     0106   225 ; RETURN IS FOR ILLEGAL REQUEST - NO QUALIFIER
                                     0106   226 ;
                                     0106   227 CMDERROR:				; GENERAL COMMAND ERROR
                                     0106   228 	$EXIT_S	#OPC$_ILLRQST		; EXIT, ILLEGAL REQUEST
REPLY_COMMAND   - OPERATOR REPLY TO REQUEST COMMAND IMAGE        22-AUG-1978 00:43:08   VAX-11 MACRO X0.3-11               Page   6
V06             ENABLE/DISABLE OPERATOR TERMINAL QUALIFIERS                                                                      (3)

                                     0113   230 	.SBTTL	ENABLE/DISABLE OPERATOR TERMINAL QUALIFIERS
                                     0113   231 	.ENABL	LSB
                                     0113   232 ;++
                                     0113   233 ; DISABLE OPERATOR TERMINAL QUALIFIER
                                     0113   234 ;--
                                     0113   235 DISA_ROUT:				; DISABLE OPERATOR TERMINAL
                               0FFC  0113   236 	.WORD	^M<R2,R3,R4,R5,R6,R7,R8,R9,R10,R11>
            56       0367'CF     9E  0115   237 	MOVAB	W^DISA_QUAL,R6		; ADDRESS QUALIFIER FOR DISABLE
                          5B     D4  011A   238 	CLRL	R11			; SET NO ENABLED NAMES
                          0E     11  011C   239 	BRB	10$			; CONTINUE IN COMMON WITH ENABLE
                                     011E   240 ;++
                                     011E   241 ; ENABLE OPERATOR TERMINAL QUALIFIER
                                     011E   242 ;--
                                     011E   243 ENAB_ROUT:				; ENABLE OPERATOR TERMINAL
                               0FFC  011E   244 	.WORD	^M<R2,R3,R4,R5,R6,R7,R8,R9,R10,R11>
            5B   FFFFF07F 8F     D0  0120   245 	MOVL	#<^X0FFFFF07F>,R11	; SET ALL POSSIBLE ENABLES
            56       0350'CF     9E  0127   246 	MOVAB	W^ENAB_QUAL,R6		; ADDRESS QUALIFIER FOR ENABLE
                          5A     D4  012C   247 10$:	CLRL	R10			; COMMON ENABLE/DISABLE CODE
       018C'CF            01     90  012E   248 	MOVB	#OPC$_RQ_TERME,W^RQSTYPE; SET OPCOM REQUEST TYPE
            59       0000'CF     9E  0133   249 	MOVAB	W^OPC$A_NAMES,R9	; ADDRESS GLOBAL MATCH DATA
            58       044E'CF     9E  0138   250 	MOVAB	W^NAME_BUF,R8		; ADDRESS PLACE TO COPY
                       04 A6     B5  013D   251 	TSTW	CLI$W_QDVALSIZ(R6)	; VALUE PRESENT?
                          0A     12  0140   252 	BNEQ	25$			; IF NEQ THEN YES
            5A            01     CE  0142   253 	MNEGL	#1,R10			;
                          41     11  0145   254 	BRB	100$			; CONTINUE
                       04 A6     B5  0147   255 20$:	TSTW	CLI$W_QDVALSIZ(R6)	; MORE VALUE?
                          3C     13  014A   256 	BEQL	100$			; IF EQL THEN NO
                                     014C   257 25$:	CLI	W^CLI_STRINGVAL,W^CLI_WORKAREA,(R6); CALL CLI FOR NEXT VALUE
            57       02BC'CF     D0  015B   258 	MOVL	W^CLI_STRINGVAL+CLI$Q_RQDESC,R7; GET SIZE OF THIS VALUE
   000002C0'FF            57     2C  0160   259 	MOVC5	R7,@CLI_STRINGVAL+CLI$Q_RQDESC+4,#0,#12,(R8); MOVE NAME TO MY SPACE
            0C            00         0167
                          68         0169
            68         80 8F     88  016A   260 	BISB	#^X080,(R8)		; SET BIT FOR EASY MATCH
            68            57     39  016E   261 	MATCHC	R7,(R8),#OPC$C_NAMES,(R9);
            69       0000'8F         0171
                          27     12  0175   262 	BNEQ	120$			; IF NEQ THEN ILLEGAL OPERATOR NAME
            53            07     8A  0177   263 	BICB	#7,R3			; FIND OFFSET IN TABLE
            53            59     C2  017A   264 	SUBL	R9,R3			;
            53         FD 8F     78  017D   265 	ASHL	#-3,R3,R3		;
                          53         0181
            5A            53     E2  0182   266 	BBSS	R3,R10,20$		; SET THE BIT
                          C1         0185
                          BF     11  0186   267 	BRB	20$
                                     0188   268 ;
                                     0188   269 ; SEND ENABLE/DISABLE MESSAGE
                                     0188   270 ;
       018D'CF            5B     D0  0188   271 100$:	MOVL	R11,W^TARGET		; SET THE NEW VALUE
       0190'CF            5A     D0  018D   272 	MOVL	R10,W^MSGID		; SET THE BITS TO CHANGE
                          0082   30  0192   273 	BSBW	SND_OPR_MSG		; SEND THE MESSAGE
                                     0195   274 	$EXIT_S	R0			; EXIT
                                     019E   275 ;
                                     019E   276 ; BAD OPERATOR NAME FOUND
                                     019E   277 ;
                                     019E   278 120$:	$EXIT_S	#OPC$_UNKNOPR		; EXIT, UNKNOWN OPERATOR
                                     01AB   279
                                     01AB   280 	.DSABL	LSB
REPLY_COMMAND   - OPERATOR REPLY TO REQUEST COMMAND IMAGE        22-AUG-1978 00:43:08   VAX-11 MACRO X0.3-11               Page   7
V06             LOGFILE CONTROL AND TERMINAL STATUS QUALIFIERS                                                                   (4)

                                     01AB   282 	.SBTTL	LOGFILE CONTROL AND TERMINAL STATUS QUALIFIERS
                                     01AB   283 	.ENABL	LSB
                                     01AB   284 ;++
                                     01AB   285 ;
                                     01AB   286 ; CLOSE LOGFILE QUALIFIER
                                     01AB   287 ;--
                                     01AB   288 NOLOG_ROUT::
                               07FC  01AB   289 	.WORD	^M<R2,R3,R4,R5,R6,R7,R8,R9,R10>
       0190'CF            01     D0  01AD   290 	MOVL	#1,W^MSGID		; SIGNAL CLOSE LOG
                          06     11  01B2   291 	BRB	5$			;
                                     01B4   292 ;++
                                     01B4   293 ; RE-OPEN LOGFILE QUALIFIER
                                     01B4   294 ;--
                                     01B4   295 LOG_ROUT:				; FLUSH THE LOGFILE
                               07FC  01B4   296 	.WORD	^M<R2,R3,R4,R5,R6,R7,R8,R9,R10>
                     0190'CF     D4  01B6   297 	CLRL	W^MSGID			; CLEAR THE MESSAGE ID TO SIGNAL OPEN
                                     01BA   298 5$:
       018C'CF            02     9A  01BA   299 	MOVZBL	#OPC$_RQ_LOGI,W^RQSTYPE	; SET THE REQUEST TYPE
                          07     11  01BF   300 	BRB	10$			; CONTINUE
                                     01C1   301 ;++
                                     01C1   302 ; GET TERMINAL STATUS
                                     01C1   303 ;--
                                     01C1   304 STAT_ROUT:				;
                               07FC  01C1   305 	.WORD	^M<R2,R3,R4,R5,R6,R7,R8,R9,R10>
       018C'CF            06     3C  01C3   306 	MOVZWL	#OPC$_RQ_STATUS,W^RQSTYPE; SET MESSAGE TYPE
                          004C   31  01C8   307 10$:	BRW	SND_OPR_MSG
                                     01CB   308
                                     01CB   309 	.DSABL	LSB
REPLY_COMMAND   - OPERATOR REPLY TO REQUEST COMMAND IMAGE        22-AUG-1978 00:43:08   VAX-11 MACRO X0.3-11               Page   8
V06             COMPLETE, PEND OR CANCEL REQUEST QUALIFIERS                                                                      (5)

                                     01CB   311 	.SBTTL	COMPLETE, PEND OR CANCEL REQUEST QUALIFIERS
                                     01CB   312 	.ENABL	LSB
                                     01CB   313 ;++
                                     01CB   314 ; REPLY TO COMPLETE REQUEST QUALIFIER
                                     01CB   315 ;--
                                     01CB   316 TO_ROUT:				; REPLY TO COMPLETE REQUEST
                               07FC  01CB   317 	.WORD	^M<R2,R3,R4,R5,R6,R7,R8,R9,R10>
       018E'CF       8029 8F     B0  01CD   318 	MOVW	#<OPC$_RQSTCMPLTE&^X0FFFF>,W^RQSTYPE+2; SET THE STATUS
            56       037E'CF     9E  01D4   319 	MOVAB	W^TO_QUAL,R6		; ADDRESS QUALIFIER
                          1E     11  01D9   320 	BRB	10$			; CONTINUE IN REPLY COMMON
                                     01DB   321 ;++
                                     01DB   322 ;  ABORT REQUEST QUALIFIER
                                     01DB   323 ;--
                                     01DB   324 ABOR_ROUT:				; ABORT REQUEST QUALIFIER
                               07FC  01DB   325 	.WORD	^M<R2,R3,R4,R5,R6,R7,R8,R9,R10>
       018E'CF       801C 8F     B0  01DD   326 	MOVW	#<OPC$_RQSTABORT&^X0FFFF>,W^RQSTYPE+2; SET STATUS
            56       0395'CF     9E  01E4   327 	MOVAB	W^ABOR_QUAL,R6		; ADDRESS QUALIFIER
                          0E     11  01E9   328 	BRB	10$			; CONTINUE IN REPLY COMMON
                                     01EB   329 ;++
                                     01EB   330 ; PEND REQUEST QUALIFIER
                                     01EB   331 ;--
                                     01EB   332 PEND_ROUT:				; PEND REQUEST QUALIFIER
                               07FC  01EB   333 	.WORD	^M<R2,R3,R4,R5,R6,R7,R8,R9,R10>
       018E'CF       8021 8F     B0  01ED   334 	MOVW	#<OPC$_RQSTPEND&^X0FFFF>,W^RQSTYPE+2; SET THE STATUS
            56       03AC'CF     9E  01F4   335 	MOVAB	W^PEND_QUAL,R6		; ADDRESS QUALIFIER
                                     01F9   336 10$:					; COMMON TO/PEND/ABORT CODE
       018C'CF            04     B0  01F9   337 	MOVW	#OPC$_RQ_REPLY,W^RQSTYPE; SET MESSAGE TYPE
                                     01FE   338 	CLI	W^CLI_NUMVAL,W^CLI_WORKAREA,(R6); GET THE VALUE
       0190'CF       02A4'CF     D0  020D   339 	MOVL	W^CLI$L_RQVALU+CLI_NUMVAL,W^MSGID; AND SAVE IT IN MESSAGE
                          0000   31  0214   340 	BRW	SND_OPR_MSG		; SEND THE OPERATOR THE MESSAGE
                                     0217   341
                                     0217   342 	.DSABL	LSB
REPLY_COMMAND   - OPERATOR REPLY TO REQUEST COMMAND IMAGE        22-AUG-1978 00:43:08   VAX-11 MACRO X0.3-11               Page   9
V06             SND_OPR_MSG - SEND MESSAGE TO OPCOM                                                                              (6)

                                     0217   344 	.SBTTL	SND_OPR_MSG - SEND MESSAGE TO OPCOM
                                     0217   345 ;++
                                     0217   346 ; SND_OPR_MSG - SEND MESSAGE TO OPCOM
                                     0217   347 ;
                                     0217   348 ; FUNCTIONAL DESCRIPTION:
                                     0217   349 ;
                                     0217   350 ; SEND A MESSAGE TO THE OPCOM PROCESS.
                                     0217   351 ;
                                     0217   352 ; INPUTS:
                                     0217   353 ;
                                     0217   354 ;	THE MESSAGE DEPENDENT HEADER IS SET UP IN THE MESSAGE BUFFER,
                                     0217   355 ;
                                     0217   356 ; OUTPUTS:
                                     0217   357 ;
                                     0217   358 ;	R0 = STATUS OF THE MESSAGE SEND
                                     0217   359 ;--
                                     0217   360 SND_OPR_MSG:				; COMMON OPERATOR MESSAGE ROUTINE
       0180'CF            1A     9A  0217   361 	MOVZBL	#26,W^MSG_DESC		; ASSUME SHORTEST MESSAGE
                                     021C   362 	CLI	W^CLI_MESSAGE,W^CLI_WORKAREA,W^MASK; GET TEXT OF MESSAGE
            50       024C'CF     7D  022D   363 	MOVQ	W^CLI_MESSAGE+CLI$Q_RQDESC,R0; GET THE TEXT DESC
       0080 8F            50     B1  0232   364 	CMPW	R0,#128			; SIZE IN RANGE?
                          04     1F  0237   365 	BLSSU	10$			; IF LSSU THEN YES
            50         80 8F     9A  0239   366 	MOVZBL	#128,R0			; SET MAX SIZE
                          50     D5  023D   367 10$:	TSTL	R0			; ANY MESSAGE?
                          18     13  023F   368 	BEQL	20$			; IF EQL THEN NO
            22            61     91  0241   369 	CMPB	(R1),#^A/"/		; """?
                          04     12  0244   370 	BNEQ	15$			;
                          51     D6  0246   371 	INCL	R1
                          50     D7  0248   372 	DECL	R0
       0180'CF            50     C0  024A   373 15$:	ADDL	R0,W^MSG_DESC		; ADJUST SIZE
            61            50     2C  024F   374 	MOVC5	R0,(R1),#0,#128,W^RETURNTEXT;
       0080 8F            00         0252
                     01A6'CF         0256
                          7E     D4  0259   375 20$:	CLRL	-(SP)
                     0180'CF     9F  025B   376 	PUSHAB	W^MSG_DESC		; SEND THE MESSAGE
   00000000'9F            02     FB  025F   377 	CALLS	#2,@#SYS$SNDOPR		;
                                     0266   378 	$EXIT_S	R0
REPLY_COMMAND   - OPERATOR REPLY TO REQUEST COMMAND IMAGE        22-AUG-1978 00:43:08   VAX-11 MACRO X0.3-11               Page  10
V06             BROADCAST QUALIFIERS                                                                                             (7)

                                     026F   380 	.SBTTL	BROADCAST QUALIFIERS
                                     026F   381 ;++
                                     026F   382 ; ADD BELLS TO BROADCAST MESSAGE
                                     026F   383 ;--
                                     026F   384 BELL_ROUT:
                               0000  026F   385 	.WORD	0
       0226'CF            04     C0  0271   386 	ADDL	#4,W^TTY		; ADJUST SIZE OF FAO CONTROL STRING
                                 04  0276   387 	RET
                                     0277   388
                                     0277   389 	.ENABL	LSB
                                     0277   390
                                     0277   391 ;++
                                     0277   392 ; BROADCAST TO ALL TERMINALS
                                     0277   393 ;--
                                     0277   394 ALL_ROUT:				; BROADCAST TO ALL TERMINALS
                               07FC  0277   395 	.WORD	^M<R2,R3,R4,R5,R6,R7,R8,R9,R10>
                          52     D4  0279   396 	CLRL	R2			; SET UP NULL BROADCAST DESC
                          5B     10  027B   397 	BSBB	50$			; FORMAT AND BROADCAST MESSAGE
                          50     11  027D   398 	BRB	30$			; EXIT
                                     027F   399 ;++
                                     027F   400 ; BROADCAST TO TERMINALS IN USE
                                     027F   401 ;--
                                     027F   402 USER_ROUT:				;
                               07FC  027F   403 	.WORD	^M<R2,R3,R4,R5,R6,R7,R8,R9,R10>
            52       0070'CF     9E  0281   404 	MOVAB	W^BRD_DESC,R2		; ADDRESS DESC
                          62     D4  0286   405 	CLRL	(R2)			; BUT NO NAME
         04 A2            52     D0  0288   406 	MOVL	R2,4(R2)		;
                          4A     10  028C   407 	BSBB	50$			; FORMAT AND BROADCAST
                          3F     11  028E   408 	BRB	30$			; DONE
                                     0290   409 ;++
                                     0290   410 ; BROADCAST TO SINGLE TERMINAL(S)
                                     0290   411 ;--
                                     0290   412 TERM_ROUT:
                               07FC  0290   413 	.WORD	^M<R2,R3,R4,R5,R6,R7,R8,R9,R10>
            52       0070'CF     9E  0292   414 	MOVAB	W^BRD_DESC,R2		; ADDRESS DESC
            56       0408'CF     9E  0297   415 	MOVAB	W^TERM_QUAL,R6		; ADDRESS QUALIFIER DATA
                                     029C   416 	CLI	W^CLI_STRINGVAL,W^CLI_WORKAREA,(R6)
            62       02BC'CF     7D  02AB   417 	MOVQ	W^CLI_STRINGVAL+CLI$Q_RQDESC,(R2); SAVE AS TERMINAL NAME
                          26     10  02B0   418 	BSBB	50$			; FORMAT AND BRAODCAST MESSAGE
                                     02B2   419 					; IGNORE ERROR
                       04 A6     B5  02B2   420 20$:	TSTW	CLI$W_QDVALSIZ(R6)	; MORE?
                          18     13  02B5   421 	BEQL	30$			; IF EQL THEN EXIT
                                     02B7   422 	CLI	W^CLI_STRINGVAL,W^CLI_WORKAREA,(R6)
            62       02BC'CF     7D  02C6   423 	MOVQ	W^CLI_STRINGVAL+CLI$Q_RQDESC,(R2); SAVE AS TERMINAL NAME
                          51     10  02CB   424 	BSBB	60$			; JUST BROADCAST
                          E3     11  02CD   425 	BRB	20$
                                     02CF   426 ;
                                     02CF   427 ; BROADCAST DONE
                                     02CF   428 ;
                                     02CF   429 30$:	$EXIT_S	R0			; EXIT
                                     02D8   430 ;
                                     02D8   431 ; FORMAT AND BROADCAST MESSAGE SUBOURTINE
                                     02D8   432 ;
                                     02D8   433 50$:					; COMMON BROADCAST CODE
                                     02D8   434 	CLI	W^CLI_MESSAGE,W^CLI_WORKAREA,W^MASK
            50       0000'CF     9E  02E9   435 	MOVAB	W^SYS_CMD_I,R0		; ADDRESS NAME
       0080'CF            02     E0  02EE   436 	BBS	#DEV$V_TRM,W^BRD_BUF+8,55$; BR IF TERMINAL
REPLY_COMMAND   - OPERATOR REPLY TO REQUEST COMMAND IMAGE        22-AUG-1978 00:43:08   VAX-11 MACRO X0.3-11               Page  11
V06             BROADCAST QUALIFIERS                                                                                             (7)

                          05         02F3
            50       0063'CF     9E  02F4   437 	MOVAB	W^BATCH,R0		; SAY NAME IS BATCH
            51       024C'CF     9E  02F9   438 55$:	MOVAB	W^CLI_MESSAGE+CLI$Q_RQDESC,R1; AND TEXT
            53       004B'CF     9E  02FE   439 	MOVAB	W^USER_NAME,R3		; ADDRESS USER NAME
                                     0303   440 	$FAO_S	W^TTY,W^BRD_BUF,W^BRD_BUF,R0,R3,#0,R1
                          62     9F  031E   441 60$:	PUSHAB	(R2)
                     0078'CF     9F  0320   442 	PUSHAB	W^BRD_BUF		;
   00000000'9F            02     FB  0324   443 	CALLS	#2,@#SYS$BRDCST		;
                                 05  032B   444 	RSB				; RETURN
                                     032C   445
                                     032C   446  	.END	REPLY
REPLY_COMMAND   - OPERATOR REPLY TO REQUEST COMMAND IMAGE        22-AUG-1978 00:43:08   VAX-11 MACRO X0.3-11               Page  12
SYMBOL TABLE                                                                                                                     (7)

$$$            = 00000004            CLI$K_INPUT2   = 00000011            CLI$M_VERIFY   = 00000004
$$$.           = 00000004            CLI$K_INPUT3   = 00000012            CLI$M_VFYINP   = 00000020
$$$GBL         = 00000000            CLI$K_INPUT4   = 00000013            CLI$Q_QDVALDESC  00000004
$$T1           = 00000001            CLI$K_KEYVAL   = 00000043            CLI$Q_RQDESC     00000008
$$T2           = 00000007            CLI$K_KEYWORD  = 00000042            CLI$S_PRITYP   = 00000004
$CLI.          = 00000436 R     04   CLI$K_NUMERVAL = 00000040            CLI$S_SUBTYP   = 00000004
$CLI..         = 0000044D R     04   CLI$K_OUTPUT1  = 00000020            CLI$S_TRMVRBLV = 00000002
$QUALNUM$      = 0000000C            CLI$K_OUTPUT2  = 00000021            CLI$V_ABSADR   = 00000001
ABOR_QUAL        00000395 R     04   CLI$K_OUTPUT3  = 00000022            CLI$V_ALLOCCUR = 00000000
ABOR_ROUT        000001DB R     05   CLI$K_OUTPUT4  = 00000023            CLI$V_BATCH    = 00000003
ALL_QUAL         000003F1 R     04   CLI$K_OUTSPEC  = 00000002            CLI$V_CONCATINP= 00000001
ALL_ROUT         00000277 R     05   CLI$K_PARDONE  = 00000003            CLI$V_DBGEXCP  = 00000010
BATCH            00000063 R     04   CLI$K_QDBITS     00000014            CLI$V_DBGTRU   = 00000001
BELL_QUAL        000003C3 R     04   CLI$K_QUALDEF    00000014            CLI$V_DEBUG    = 00000000
BELL_ROUT        0000026F R     05   CLI$K_REPL_ABOR= 00000001            CLI$V_DUMMY    = 00000001
BIT...         = 00000045            CLI$K_REPL_ALL = 00000002            CLI$V_EXPNAM   = 00000002
BRD_BUF          00000078 R     04   CLI$K_REPL_BELL= 0000000A            CLI$V_INDIRECT = 00000004
BRD_DESC         00000070 R     04   CLI$K_REPL_DISA= 00000004            CLI$V_KEYVALU  = 00000001
CALLBACK         0000045E R     04   CLI$K_REPL_ENAB= 00000003            CLI$V_LASTVAL  = 00000000
CLI$A_ABSACT     00000014            CLI$K_REPL_LOG = 00000005            CLI$V_MOREINP  = 00000002
CLI$A_ERRACT     00000004            CLI$K_REPL_PEND= 00000006            CLI$V_MOREVALS = 00000000
CLI$A_FLSACT     00000010            CLI$K_REPL_STAT= 0000000B            CLI$V_PARMDEF  = 00000003
CLI$A_IMGFILED   00000010            CLI$K_REPL_TERM= 00000007            CLI$V_PARMPRS  = 00000000
CLI$A_IMGHDADR   0000000C            CLI$K_REPL_TO  = 00000008            CLI$V_PARMREQ  = 00000000
CLI$A_PROGXFER   00000004            CLI$K_REPL_USER= 00000009            CLI$V_PRITYP   = 00000004
CLI$A_PRSACT     00000010            CLI$K_REQDESC    0000001C            CLI$V_QDEXPA   = 00000002
CLI$A_QDVALADR   00000008            CLI$K_UTILOPR  = 00000000            CLI$V_QDUSRV   = 00000001
CLI$A_QUALST     00000018            CLI$K_VALCONV  = 00000004            CLI$V_QUALEXP  = 00000001
CLI$A_RQADDR     0000000C            CLI$K_WORKAREA   00000080            CLI$V_QUALTRU  = 00000000
CLI$A_TRUACT     0000000C            CLI$L_CLIFLAG    00000018            CLI$V_SUBTYP   = 00000000
CLI$A_UTILSERV   00000008            CLI$L_INIARGCNT  00000000            CLI$V_TRMVRBLV = 00000008
CLI$B_BITNUM     00000001            CLI$L_LINKFLAG   00000014            CLI$V_VERIFY   = 00000002
CLI$B_QDBLKSIZ   00000000            CLI$L_RQVALU     0000000C            CLI$V_VFYINP   = 00000005
CLI$B_QDCODE     00000001            CLI$L_USRVAL     00000014            CLI$W_QDVALSIZ   00000004
CLI$B_QDFLGS     00000002            CLI$L_WORKAREA   00000000            CLI$W_RQSIZE     00000008
CLI$B_QDSTAT     00000003            CLI$M_ABSADR   = 00000002            CLI$W_SERVCOD    00000001
CLI$B_RQFLGS     00000002            CLI$M_ALLOCCUR = 00000001            CLI_INITCMD      00000260 R     04
CLI$B_RQINDX     00000001            CLI$M_BATCH    = 00000008            CLI_MAJORQUAL    0000027C R     04
CLI$B_RQSTAT     00000003            CLI$M_CONCATINP= 00000002            CLI_MESSAGE      00000244 R     04
CLI$B_RQTYPE     00000000            CLI$M_DBGEXCP  = 00010000            CLI_NUMVAL       00000298 R     04
CLI$C_QDBITS     00000014            CLI$M_DBGTRU   = 00000002            CLI_STRINGVAL    000002B4 R     04
CLI$C_QUALDEF    00000014            CLI$M_DEBUG    = 00000001            CLI_WORKAREA     000002D0 R     04
CLI$C_REQDESC    0000001C            CLI$M_DUMMY    = 00000002            CMDERROR         00000106 R     05
CLI$C_WORKAREA   00000080            CLI$M_EXPNAM   = 00000004            DEV$M_ALL      = 00800000
CLI$K_ASCIIVAL = 00000041            CLI$M_INDIRECT = 00000010            DEV$M_AVL      = 00040000
CLI$K_CLISERV  = 00000005            CLI$M_KEYVALU  = 00000002            DEV$M_CCL      = 00000002
CLI$K_ENDPRM1  = 00000030            CLI$M_LASTVAL  = 00000001            DEV$M_DIR      = 00000008
CLI$K_ENDPRM2  = 00000031            CLI$M_MOREINP  = 00000004            DEV$M_DMT      = 00200000
CLI$K_ENDPRM3  = 00000032            CLI$M_MOREVALS = 00000001            DEV$M_ELG      = 00400000
CLI$K_ENDPRM4  = 00000033            CLI$M_PARMDEF  = 00000008            DEV$M_FOD      = 00004000
CLI$K_FILSPEC  = 00000044            CLI$M_PARMPRS  = 00000001            DEV$M_FOR      = 01000000
CLI$K_GETCMD   = 00000001            CLI$M_PARMREQ  = 00000001            DEV$M_GEN      = 00020000
CLI$K_GETOPT   = 00000003            CLI$M_QDEXPA   = 00000004            DEV$M_IDV      = 04000000
CLI$K_GETQUAL  = 00000002            CLI$M_QDUSRV   = 00000002            DEV$M_MBX      = 00100000
CLI$K_INITPRS  = 00000000            CLI$M_QUALEXP  = 00000002            DEV$M_MNT      = 00080000
CLI$K_INPSPEC  = 00000001            CLI$M_QUALTRU  = 00000001            DEV$M_NET      = 00002000
CLI$K_INPUT1   = 00000010            CLI$M_TRMVRBLV = 00000300            DEV$M_ODV      = 08000000
REPLY_COMMAND   - OPERATOR REPLY TO REQUEST COMMAND IMAGE        22-AUG-1978 00:43:08   VAX-11 MACRO X0.3-11               Page  13
SYMBOL TABLE                                                                                                                     (7)

DEV$M_RCK      = 40000000            JPI$_CPULIM    = 0000040D            MSG$_CONNECT   = 00000032
DEV$M_REC      = 00000001            JPI$_CPUTIM    = 00000407            MSG$_CRUNSOLIC = 00000002
DEV$M_RND      = 10000000            JPI$_CURPRIV   = 00000400            MSG$_DELPROC   = 00000003
DEV$M_RTM      = 20000000            JPI$_DFPFC     = 00000406            MSG$_DELSMB    = 00000014
DEV$M_SDI      = 00000010            JPI$_DFWSCNT   = 00000403            MSG$_DEVOFFLIN = 00000005
DEV$M_SHR      = 00010000            JPI$_DIOCNT    = 00000312            MSG$_DEVONLIN  = 00000007
DEV$M_SPL      = 00000040            JPI$_DIOLM     = 00000313            MSG$_DISCON    = 00000033
DEV$M_SQD      = 00000020            JPI$_DIRIO     = 0000040B            MSG$_EXIT      = 00000034
DEV$M_SWL      = 02000000            JPI$_EFCS      = 00000317            MSG$_INIOPR    = 00000010
DEV$M_TRM      = 00000004            JPI$_EFCU      = 00000318            MSG$_INTMSG    = 00000035
DEV$M_WCK      = 80000000            JPI$_EFWM      = 00000316            MSG$_OPREPLY   = 00000009
DEV$V_ALL      = 00000017            JPI$_EXCVEC    = 00000100            MSG$_OPRQST    = 00000008
DEV$V_AVL      = 00000012            JPI$_FILCNT    = 00000314            MSG$_PATHLOST  = 00000036
DEV$V_CCL      = 00000001            JPI$_FILLM     = 0000040F            MSG$_PROTOCOL  = 00000037
DEV$V_DIR      = 00000003            JPI$_FINALEXC  = 00000101            MSG$_REJECT    = 00000038
DEV$V_DMT      = 00000015            JPI$_FREP0VA   = 00000404            MSG$_RESOPR    = 00000013
DEV$V_ELG      = 00000016            JPI$_FREP1VA   = 00000405            MSG$_SCANBAD   = 00000028
DEV$V_FOD      = 0000000E            JPI$_GPGCNT    = 0000030C            MSG$_SCANRSP   = 00000029
DEV$V_FOR      = 00000018            JPI$_GRP       = 00000308            MSG$_SMBDON    = 00000009
DEV$V_GEN      = 00000011            JPI$_LASTADR   = 00000102            MSG$_SMBINI    = 00000008
DEV$V_IDV      = 0000001A            JPI$_LASTCTL   = 00000207            MSG$_SMBRSP    = 00000020
DEV$V_MBX      = 00000014            JPI$_LASTPCB   = 0000031D            MSG$_SNDACC    = 0000000A
DEV$V_MNT      = 00000013            JPI$_LASTPHD   = 00000412            MSG$_SNDSMB    = 00000004
DEV$V_NET      = 0000000D            JPI$_LOGINTIM  = 00000206            MSG$_SUSOPR    = 00000012
DEV$V_ODV      = 0000001B            JPI$_MEM       = 00000307            MSG$_THIRDPARTY= 00000039
DEV$V_RCK      = 0000001E            JPI$_OWNER     = 00000303            MSG$_TIMEOUT   = 0000003A
DEV$V_REC      = 00000000            JPI$_PAGEFLTS  = 0000040A            MSG$_TRMHANGUP = 00000006
DEV$V_RND      = 0000001C            JPI$_PGFLQUOTA = 0000040E            MSG$_TRMUNSOLIC= 00000001
DEV$V_RTM      = 0000001D            JPI$_PID       = 00000319            MSG$_XM_ATTN   = 0000000D
DEV$V_SDI      = 00000004            JPI$_PPGCNT    = 0000030D            MSG$_XM_DATAVL = 0000000B
DEV$V_SHR      = 00000010            JPI$_PRCCNT    = 0000031B            MSG$_XM_SHUTDN = 0000000C
DEV$V_SPL      = 00000006            JPI$_PRCLM     = 00000408            MSGID            00000190 R     04
DEV$V_SQD      = 00000005            JPI$_PRCNAM    = 0000031C            MSG_ACCOUNT      00000028
DEV$V_SWL      = 00000019            JPI$_PRI       = 00000302            MSG_DESC         00000180 R     04
DEV$V_TRM      = 00000002            JPI$_PRIB      = 00000309            MSG_DEVCNT       00000010
DEV$V_WCK      = 0000001F            JPI$_PROCPRIV  = 00000204            MSG_DEVNAME      00000011
DISA_QUAL        00000367 R     04   JPI$_STATE     = 00000306            MSG_DEVUNIT      0000000E
DISA_ROUT        00000113 R     05   JPI$_STS       = 00000305            MSG_HDR          00000032
ENAB_QUAL        00000350 R     04   JPI$_TMBU      = 0000030B            MSG_LINK         00000000
ENAB_ROUT        0000011E R     05   JPI$_TQCNT     = 00000315            MSG_MSG          0000000C
GBL...         = 00000000            JPI$_TQLM      = 00000410            MSG_NUMBER       00000008
JPI$C_ADRTYPE  = 00000001            JPI$_UIC       = 00000304            MSG_PRI          00000030
JPI$C_CTLTYPE  = 00000002            JPI$_USERNAME  = 00000202            MSG_PRIV         00000010
JPI$C_LISTEND  = 00000000            JPI$_VIRTPEAK  = 00000200            MSG_REPLYMBX     0000000E
JPI$C_PCBTYPE  = 00000003            JPI$_VOLUMES   = 00000205            MSG_SIZE         000000CC
JPI$C_PHDTYPE  = 00000004            JPI$_WSAUTH    = 00000401            MSG_UIC          00000018
JPI$_ACCOUNT   = 00000203            JPI$_WSPEAK    = 00000201            MSG_USRNAME      0000001C
JPI$_APTCNT    = 0000030A            JPI$_WSQUOTA   = 00000402            NAME_BUF         0000044E R     04
JPI$_ASTACT    = 00000300            JPI$_WSSIZE    = 00000411            NOLOG_ROUT       000001AB RG    05
JPI$_ASTCNT    = 0000030E            JPI_DATA         0000003B R     04   OPC$A_NAMES      ********   X   05
JPI$_ASTEN     = 00000301            LOG_QUAL         00000436 R     04   OPC$B_MS_ENAB    00000001
JPI$_ASTLM     = 00000409            LOG_ROUT         000001B4 R     05   OPC$B_MS_TARGET  00000001
JPI$_BIOCNT    = 0000030F            MASK             0000045A R     04   OPC$B_MS_TYPE    00000000
JPI$_BIOLM     = 00000310            MSG$_ABOOPR    = 00000011            OPC$C_NAMES      ********   X   05
JPI$_BUFIO     = 0000040C            MSG$_ABORT     = 00000030            OPC$C_REPEAT   = 00000005
JPI$_BYTCNT    = 00000311            MSG$_ACCRSP    = 00000021            OPC$L_MS_MASK    00000004
JPI$_BYTLM     = 0000031A            MSG$_CONFIRM   = 00000031            OPC$L_MS_MAXSZ   0000009A
REPLY_COMMAND   - OPERATOR REPLY TO REQUEST COMMAND IMAGE        22-AUG-1978 00:43:08   VAX-11 MACRO X0.3-11               Page  14
SYMBOL TABLE                                                                                                                     (7)

OPC$L_MS_OTEXT   0000001A            OPC$_OPRNOTIF  = 00058089            PRV$V_PRMMBX   = 0000000B
OPC$L_MS_RPLYID  00000004            OPC$_RQSTABORT = 0005801C            PRV$V_PSWAPM   = 0000000C
OPC$L_MS_RQSTID  00000004            OPC$_RQSTCAN   = 00058084            PRV$V_SETPRI   = 0000000D
OPC$L_MS_TEXT    00000008            OPC$_RQSTCMPLTE= 00058029            PRV$V_SETPRV   = 0000000E
OPC$M_NM_CARDS = 00000020            OPC$_RQSTPEND  = 00058021            PRV$V_SYSGBL   = 00000019
OPC$M_NM_CENTRL= 00000001            OPC$_RQ_CANCEL = 00000005            PRV$V_SYSNAM   = 00000002
OPC$M_NM_DEVICE= 00000010            OPC$_RQ_LOGI   = 00000002            PRV$V_TMPMBX   = 0000000F
OPC$M_NM_DISKS = 00000008            OPC$_RQ_REPLY  = 00000004            PRV$V_VOLPRO   = 00000015
OPC$M_NM_NTWORK= 00000040            OPC$_RQ_RQST   = 00000003            PRV$V_WORLD    = 00000010
OPC$M_NM_OPER1 = 00001000            OPC$_RQ_STATUS = 00000006            QUALS            00000350 R     04
OPC$M_NM_OPER10= 00200000            OPC$_RQ_TERME  = 00000001            QUA_B_DEFVAL     00000002
OPC$M_NM_OPER11= 00400000            OPC$_TERMDSBL  = 00058011            QUA_B_IMAGE      00000005
OPC$M_NM_OPER12= 00800000            OPC$_TERMENAB  = 00058001            QUA_B_INDEX      00000001
OPC$M_NM_OPER2 = 00002000            OPC$_TERMFAIL  = 0005803C            QUA_B_OFFSET     00000000
OPC$M_NM_OPER3 = 00004000            OPC$_UNKNOPR   = 0005806C            QUA_B_PARMCNT    00000008
OPC$M_NM_OPER4 = 00008000            OPRNAME          00000194 R     04   QUA_G_CHNGLST    00000006
OPC$M_NM_OPER5 = 00010000            OTV_ACTIVE     = 00000000            QUA_M_BATDEF   = 00000100
OPC$M_NM_OPER6 = 00020000            OT_DESC          00000010            QUA_M_CHNGLIST = 00000001
OPC$M_NM_OPER7 = 00040000            OT_LINK          00000000            QUA_M_DEFTRUE  = 00000080
OPC$M_NM_OPER8 = 00080000            OT_NAME          00000018            QUA_M_FILE     = 00000004
OPC$M_NM_OPER9 = 00100000            OT_SERVICE       00000008            QUA_M_IMAGE    = 00000400
OPC$M_NM_PRINT = 00000002            OT_SIZE          00000028            QUA_M_INTDEF   = 00000200
OPC$M_NM_TAPES = 00000004            OT_STATUS        0000000C            QUA_M_KEYVAL   = 00004000
OPC$T_MS_ONAME   0000000A            PEND_QUAL        000003AC R     04   QUA_M_LOCALKEY = 00000002
OPC$V_NM_CARDS = 00000005            PEND_ROUT        000001EB R     05   QUA_M_NEG      = 00000040
OPC$V_NM_CENTRL= 00000000            PRO_B_FLAGS      00000001            QUA_M_ONEVAL   = 00002000
OPC$V_NM_DEVICE= 00000004            PRO_B_PROMPT     00000000            QUA_M_OUTPUT   = 00000800
OPC$V_NM_DISKS = 00000003            PRO_K_LENGTH     00000002            QUA_M_PARM     = 00000010
OPC$V_NM_NTWORK= 00000006            PRO_M_CONCAT   = 00000001            QUA_M_VAL      = 00000020
OPC$V_NM_OPER1 = 0000000C            PRO_M_IMPCAT   = 00000002            QUA_M_VALREQ   = 00001000
OPC$V_NM_OPER10= 00000015            PRO_M_LIST     = 00000004            QUA_M_VERB     = 00000008
OPC$V_NM_OPER11= 00000016            PRO_M_OPTION   = 00000008            QUA_S_MAXPARM  = 00000004
OPC$V_NM_OPER12= 00000017            PRO_M_REQ      = 00000010            QUA_S_MINPARM  = 00000004
OPC$V_NM_OPER2 = 0000000D            PRO_M_STRING   = 00000020            QUA_V_BATDEF   = 00000008
OPC$V_NM_OPER3 = 0000000E            PRO_V_CONCAT   = 00000000            QUA_V_CHNGLIST = 00000000
OPC$V_NM_OPER4 = 0000000F            PRO_V_IMPCAT   = 00000001            QUA_V_DEFTRUE  = 00000007
OPC$V_NM_OPER5 = 00000010            PRO_V_LIST     = 00000002            QUA_V_FILE     = 00000002
OPC$V_NM_OPER6 = 00000011            PRO_V_OPTION   = 00000003            QUA_V_IMAGE    = 0000000A
OPC$V_NM_OPER7 = 00000012            PRO_V_REQ      = 00000004            QUA_V_INTDEF   = 00000009
OPC$V_NM_OPER8 = 00000013            PRO_V_STRING   = 00000005            QUA_V_KEYVAL   = 0000000E
OPC$V_NM_OPER9 = 00000014            PRV$V_ALLSPOOL = 00000004            QUA_V_LOCALKEY = 00000001
OPC$V_NM_PRINT = 00000001            PRV$V_BUGCHK   = 00000017            QUA_V_MAXPARM  = 00000004
OPC$V_NM_TAPES = 00000002            PRV$V_CMEXEC   = 00000001            QUA_V_MINPARM  = 00000000
OPC$W_MS_OUNIT   00000008            PRV$V_CMKRNL   = 00000000            QUA_V_NEG      = 00000006
OPC$W_MS_STATUS  00000002            PRV$V_DETACH   = 00000005            QUA_V_ONEVAL   = 0000000D
OPC$_DEVNOTERM = 00058074            PRV$V_DIAGNOSE = 00000006            QUA_V_OUTPUT   = 0000000B
OPC$_DEVOFFLINE= 0005804C            PRV$V_EXQUOTA  = 00000013            QUA_V_PARM     = 00000004
OPC$_DEVONLINE = 00058054            PRV$V_GROUP    = 00000008            QUA_V_VAL      = 00000005
OPC$_ILLRQST   = 0005807C            PRV$V_GRPNAM   = 00000003            QUA_V_VALREQ   = 0000000C
OPC$_LOGCLOS   = 000580A4            PRV$V_LOG_IO   = 00000007            QUA_V_VERB     = 00000003
OPC$_LOGFAIL   = 00058034            PRV$V_MOUNT    = 00000011            QUA_W_FLAGS      00000003
OPC$_LOGINIT   = 00058009            PRV$V_NETMBX   = 00000014            QUA_W_PROMPT     00000009
OPC$_LOGTIME   = 00058099            PRV$V_NOACNT   = 00000009            QUA_W_QUALIST    00000006
OPC$_NOCLI     = 0005805C            PRV$V_OPER     = 00000012            REPLY            00000000 R     05
OPC$_NOPERATOR = 00058061            PRV$V_PHY_IO   = 00000016            RETURNTEXT       000001A6 R     04
OPC$_NOSUCHRQST= 00058044            PRV$V_PRMCEB   = 0000000A            RQSTYPE          0000018C R     04
OPC$_OPREPLY   = 00058091            PRV$V_PRMGBL   = 00000018            SND_OPR_MSG      00000217 R     05
REPLY_COMMAND   - OPERATOR REPLY TO REQUEST COMMAND IMAGE        22-AUG-1978 00:43:08   VAX-11 MACRO X0.3-11               Page  15
SYMBOL TABLE                                                                                                                     (7)

SS$_NOTRAN       ********   X   05
STAT_ROUT        000001C1 R     05
STV_TIMER        00000000
SYS$BRDCST       ********   X   05
SYS$EXIT         ********   X   05
SYS$FAO          ********   X   05
SYS$GETDEV       ********   X   05
SYS$GETJPI       ********   X   05
SYS$SNDOPR       ********   X   05
SYS$TRNLOG       ********   X   05
SYS_CMD          00000020 R     04
SYS_CMD_I        00000000 R     04
TARGET           0000018D R     04
TERM_QUAL        00000408 R     04
TERM_ROUT        00000290 R     05
TO_QUAL          0000037E R     04
TO_ROUT          000001CB R     05
TTY              00000226 R     04
USER_NAME        0000004B R     04
USER_QUAL        000003DA R     04
USER_ROUT        0000027F R     05


PROGRAM SECTION SYNOPSIS

.  ABS  .        00000000      00     NOPIC   USR   CON   ABS   LCL NOSHR NOEXE NORD  NOWRT BYTE
. BLANK .        00000000      01     NOPIC   USR   CON   REL   LCL NOSHR   EXE   RD    WRT BYTE
OPCOM_DEF        000000CC      02     NOPIC   USR   CON   ABS   LCL NOSHR   EXE   RD    WRT BYTE
$ABS$            0000009E      03     NOPIC   USR   CON   ABS   LCL NOSHR   EXE   RD    WRT BYTE
OPCOM_IMPURE     00000462      04     NOPIC   USR   CON   REL   LCL NOSHR NOEXE   RD    WRT QUAD
OPCOM_CODE       0000032C      05     NOPIC   USR   CON   REL   LCL NOSHR   EXE   RD  NOWRT BYTE


THERE WERE NO ERRORS OR WARNINGS.
7088. BYTES LEFT IN FREE MEMORY POOL.
1372. BYTES OF RECLAIMED MEMORY.
OBJ$:REPLY,LIS$:REPLY/-SP=EXECML$/ML,SRC$:ODEF,REPLY
28 MLB DIR RDS - 857 GETS TO DEFINE 36 MACROS. 85 INTER. FILE WRITES.
