MCRDBAS1        - MCR COMMAND DATA BASE MODULE 1                 22-AUG-1978 01:29:58   VAX-11 MACRO X0.3-11               Page   0
TABLE OF CONTENTS

   (1)      44  DEFINE MCR COMMANDS
MCRDBAS1        - MCR COMMAND DATA BASE MODULE 1                 22-AUG-1978 01:29:58   VAX-11 MACRO X0.3-11               Page   1
01                                                                                                                               (1)

                                     0000     1 	.TITLE	MCRDBAS1 - MCR COMMAND DATA BASE MODULE 1
                                     0000     2 	.IDENT	/01/
                                     0000     3
                                     0000     4 ;
                                     0000     5 ; COPYRIGHT (C) 1977, 1978
                                     0000     6 ; DIGITAL EQUIPMENT CORPORATION, MAYNARD, MASSACHUSETTS 01754
                                     0000     7 ;
                                     0000     8 ; THIS SOFTWARE IS FURNISHED  UNDER A LICENSE FOR USE ONLY ON A SINGLE
                                     0000     9 ; COMPUTER  SYSTEM AND  MAY BE  COPIED ONLY WITH  THE INCLUSION OF THE
                                     0000    10 ; ABOVE COPYRIGHT NOTICE.  THIS SOFTWARE, OR ANY OTHER COPIES THEREOF,
                                     0000    11 ; MAY NOT BE PROVIDED OR  OTHERWISE MADE AVAILABLE TO ANY OTHER PERSON
                                     0000    12 ; EXCEPT FOR USE ON SUCH SYSTEM AND TO ONE WHO AGREES TO THESE LICENSE
                                     0000    13 ; TERMS.  TITLE TO AND  OWNERSHIP OF THE  SOFTWARE  SHALL AT ALL TIMES
                                     0000    14 ; REMAIN IN DEC.
                                     0000    15 ;
                                     0000    16 ; THE INFORMATION IN THIS SOFTWARE IS SUBJECT TO CHANGE WITHOUT NOTICE
                                     0000    17 ; AND SHOULD  NOT BE CONSTRUED  AS A COMMITMENT  BY DIGITAL  EQUIPMENT
                                     0000    18 ; CORPORATION.
                                     0000    19 ;
                                     0000    20 ; DEC ASSUMES  NO  RESPONSIBILITY  FOR  THE USE OR  RELIABILITY OF ITS
                                     0000    21 ; SOFTWARE ON EQUIPMENT WHICH IS NOT SUPPLIED BY DEC.
                                     0000    22 ;
                                     0000    23 ; W. H. BROWN 7-DEC-1977
                                     0000    24 ;
                                     0000    25 ; MCR COMMAND INTERPRETER DATA BASE
                                     0000    26 ;
                                     0000    27 ; MACRO LIBRARY CALLS
                                     0000    28 ;
                                     0000    29
                                     0000    30 	$CLIVERBDEF			; DEFINE GENERIC VERB TYPES
                                     0000    31 	DEFERRCOD			; DEFINE ERROR/STATUS VALUES
                                     0000    32 	DEFOPIMCR			; MCR OUTPUT RESULT PARSE INDIACTORS
                                     0000    33
                                     0000    34 ;
                                     0000    35 ; LOCAL MACROS
                                     0000    36
                                     0000    37 ;
                                     0000    38 ; LOCAL SYMBOLS
                                     0000    39 ;
                                     0000    40
                                     0000    41
                                     0000    42 	.LIST	MEB
MCRDBAS1        - MCR COMMAND DATA BASE MODULE 1                 22-AUG-1978 01:29:58   VAX-11 MACRO X0.3-11               Page   2
01              DEFINE MCR COMMANDS                                                                                              (1)

                                     0000    44 	.SBTTL	DEFINE MCR COMMANDS
                                 00000000    45 	.PSECT	MCR$VERBTBL,BYTE,RD,NOWRT
                                     0000    46 MCR$AB_VERBTBL::			;BASE ADDRESS OF VERB TABLE
                                 00000000    47 	.PSECT	MCR$VERBTBM,BYTE,RD,NOWRT
                                     0000    48 MCR$AB_VERBEND::			;END OF VERB TABLE
                                 00000000    49 	.PSECT	MCR$COMDPTR,BYTE,RD,NOWRT
                                     0000    50 MCR$AW_COMDPTR::			;BASE ADDRESS OF COMMAND POINTER TABLE
                                 00000000    51 	.PSECT	MCR$COMDPTS,BYTE,RD,NOWRT
                                     0000    52 MCR$AW_COMDEND::			;END ADDRESS OF COMMAND POINTER TABLE
                                     0000    53
                                     0000    54
                                     0000    55 	DEFCMD	ALLO,-			; DEFINE ALLOCATE COMMAND
                                     0000    56 		QUAL  =NO,-		; NO QUALIFIERS ALLOWED
                                     0000    57 		DEFIMG=ALLOCATE,-	; DEFAULT IMAGE OR ROUTINE NAME
                                     0000    58 		MINPRM=1,-		; MINIMUM NUMBER OF PARAMETERS
                                     0000    59 		MAXPRM=1		; MAXIMUM NUMBER OF PARAMETERS
                                     0000       	.SAVE
                                 00000000       	.PSECT	$ABS$,ABS
                                     0000       CMD_B_VERBTYP:
                           00000001  0000       	.BLKB	1
                                     0001       CMD_B_PARMCNT:
                           00000002  0001       	.BLKB	1
                                     0002       CMD_B_DEFIMG:
                           00000003  0002       	.BLKB	1
                                     0003       CMD_B_QUABLK:
                           00000004  0003       	.BLKB	1
                                     0004       CMD_B_FLAGS:
                           00000005  0004       	.BLKB	1
                                     0005       CMD_AB_PAROUT:
                           00000006  0005       	.BLKB	1
                                 00000000       	.RESTORE
                                     0000       	.SAVE
                                 00000006       	.PSECT	$ABS$,ABS
                           00000000  0006       	.=0
                                     0000       PRO_B_PROMPT:
                           00000001  0000       	.BLKB	1
                                     0001       PRO_B_FLAGS:
                           00000002  0001       	.BLKB	1
                                     0002       PRO_K_LENGTH:
                                 00000000       	.RESTORE
                                     0000       	.LIST
                                 00000000       	.PSECT	MCR$VERBTBL,BYTE,RD,NOWRT
                                 C1  0000       	.BYTE	^A/A/!$XX$
                                 4C  0001       	.BYTE	^A/L/!$XX$
                                 4C  0002       	.BYTE	^A/L/!$XX$
                                 4F  0003       	.BYTE	^A/O/!$XX$
                                     0004       	.LIST
                                 00000000       	.PSECT	MCR$COMDPTR,BYTE,RD,NOWRT
                               FFFE' 0000       	.WORD	VERB_G_ALLO-.-2
                                     0002       	.LIST
                                 00000000       	.PSECT	MCR$CMDATA,BYTE,RD,NOWRT
                                     0000       VERB_G_ALLO:
                                 01  0000       	.BYTE	CLI$K_VERB_ALLO
                                 11  0001       	.BYTE	1*16!1
                                 00' 0002       	.BYTE	IMG_K_ALLOCATE
                                 00  0003       	.BYTE	0
                                 00  0004       	.BYTE	$$$
MCRDBAS1        - MCR COMMAND DATA BASE MODULE 1                 22-AUG-1978 01:29:58   VAX-11 MACRO X0.3-11               Page   3
01              DEFINE MCR COMMANDS                                                                                              (1)

                                     0005    60
                                     0005    61 	DEFCMD	ANAL,-			; DEFINE ANAL COMMAND
                                     0005    62 		QUAL  =YES,-		; YES QUALIFIERS ALLOWED
                                     0005    63 		DEFIMG=ANALYZ,-		; DEFAULT IMAGE OR ROUTINE NAME
                                     0005    64 		MINPRM=1,-		; MINIMUM NUMBER OF PARAMETERS
                                     0005    65 		MAXPRM=2,-		; MAXIMUM NUMBER OF PARAMETERS
                                     0005    66 		FLAGS=NOEQL,-		; NO EQAULS FOR QUALIFIER VALUES
                                     0005    67 		OUTPRS=OPI_K_MCRUTLIST	; OUTPUT PARSE ROUTINES
                                     0005       	.LIST
                                 00000004       	.PSECT	MCR$VERBTBL,BYTE,RD,NOWRT
                                 C1  0004       	.BYTE	^A/A/!$XX$
                                 4E  0005       	.BYTE	^A/N/!$XX$
                                 41  0006       	.BYTE	^A/A/!$XX$
                                 4C  0007       	.BYTE	^A/L/!$XX$
                                     0008       	.LIST
                                 00000002       	.PSECT	MCR$COMDPTR,BYTE,RD,NOWRT
                               0001' 0002       	.WORD	VERB_G_ANAL-.-2
                                     0004       	.LIST
                                 00000005       	.PSECT	MCR$CMDATA,BYTE,RD,NOWRT
                                     0005       VERB_G_ANAL:
                                 02  0005       	.BYTE	CLI$K_VERB_ANAL
                                 21  0006       	.BYTE	2*16!1
                                 00' 0007       	.BYTE	IMG_K_ANALYZ
                                 03' 0008       	.BYTE	QUA_G_ANAL-.-1
                                 44  0009       	.BYTE	$$$
                                 01' 000A       	.BYTE	30001$-.-1
                                 FF' 000B       	.BYTE	OPI_K_MCRUTLIST
                                     000C       30001$:
                                     000C       	.SAVE
                                 00000006       	.PSECT	$ABS$,ABS
                           00000000  0006       	.=0
                                     0000       QUA_B_OFFSET:
                           00000001  0000       	.BLKB	1
                                     0001       QUA_B_CODE:
                           00000002  0001       	.BLKB	1
                                     0002       QUA_B_INDEX:
                           00000003  0002       	.BLKB	1
                                     0003       QUA_B_DEFVAL:
                           00000004  0003       	.BLKB	1
                                     0004       QUA_W_FLAGS:
                           00000006  0004       	.BLKW	1
                                     0006       QUA_B_IMAGE:
                           00000007  0006       	.BLKB	1
                                     0007       QUA_G_CHNGLST:
                                     0007       QUA_W_QUALIST:
                           00000009  0007       	.BLKW	1
                                     0009       QUA_B_PARMCNT:
                           0000000A  0009       	.BLKB	1
                                 0000000C       	.RESTORE
                                     000C       	.SAVE
                                 0000000C       	.PSECT	MCR$CMDATA,BYTE,RD,NOWRT
                                     000C       QUA_G_ANAL:
                                 0A' 000C       30002$:	.BYTE	30005$-30002$
                                 00' 000D       	.BYTE	CLI$K_ANAL_EOM
                                 06' 000E       	.BYTE	<30004$-30002$>
                                 00  000F       	.IIF B <>,	.BYTE	0
                               004A  0010       	.WORD	$$$
MCRDBAS1        - MCR COMMAND DATA BASE MODULE 1                 22-AUG-1978 01:29:58   VAX-11 MACRO X0.3-11               Page   4
01              DEFINE MCR COMMANDS                                                                                              (1)

                           4D 4F 45  0012       30004$:	.ASCII	\EOM\
                                 00  0015       	.ASCII	< >
                                     0016       30005$:
                                 0A' 0016       30006$:	.BYTE	30009$-30006$
                                 00' 0017       	.BYTE	CLI$K_ANAL_GSD
                                 06' 0018       	.BYTE	<30008$-30006$>
                                 00  0019       	.IIF B <>,	.BYTE	0
                               004A  001A       	.WORD	$$$
                           44 53 47  001C       30008$:	.ASCII	\GSD\
                                 00  001F       	.ASCII	< >
                                     0020       30009$:
                                 06' 0020       30010$:	.BYTE	30013$-30010$
                                 00' 0021       	.BYTE	CLI$K_ANAL_INTE
                                 00' 0022       	.BYTE	QUA_K_INTE
                                 00  0023       	.IIF B <>,	.BYTE	0
                               0048  0024       	.WORD	$$$
                                     0026       30013$:
                                 0A' 0026       30014$:	.BYTE	30017$-30014$
                                 00' 0027       	.BYTE	CLI$K_ANAL_MHD
                                 06' 0028       	.BYTE	<30016$-30014$>
                                 00  0029       	.IIF B <>,	.BYTE	0
                               004A  002A       	.WORD	$$$
                           44 48 4D  002C       30016$:	.ASCII	\MHD\
                                 00  002F       	.ASCII	< >
                                     0030       30017$:
                                 0A' 0030       30018$:	.BYTE	30021$-30018$
                                 00' 0031       	.BYTE	CLI$K_ANAL_TIR
                                 06' 0032       	.BYTE	<30020$-30018$>
                                 00  0033       	.IIF B <>,	.BYTE	0
                               004A  0034       	.WORD	$$$
                           52 49 54  0036       30020$:	.ASCII	\TIR\
                                 00  0039       	.ASCII	< >
                                     003A       30021$:
                                 0A' 003A       30022$:	.BYTE	30025$-30022$
                                 00' 003B       	.BYTE	CLI$K_ANAL_TBT
                                 06' 003C       	.BYTE	<30024$-30022$>
                                 00  003D       	.IIF B <>,	.BYTE	0
                               004A  003E       	.WORD	$$$
                           54 42 54  0040       30024$:	.ASCII	\TBT\
                                 00  0043       	.ASCII	< >
                                     0044       30025$:
                                 0A' 0044       30026$:	.BYTE	30029$-30026$
                                 00' 0045       	.BYTE	CLI$K_ANAL_DBG
                                 06' 0046       	.BYTE	<30028$-30026$>
                                 00  0047       	.IIF B <>,	.BYTE	0
                               004A  0048       	.WORD	$$$
                           47 42 44  004A       30028$:	.ASCII	\DBG\
                                 00  004D       	.ASCII	< >
                                     004E       30029$:
                           00000044  004E       .=$QUALBLK$
                                 00  0044       	.BYTE	0
                                 0000000C       	.RESTORE
                                     000C    68
                                     000C    69 	DEFCMD	APPE,-			; DEFINE APPEND COMMAND
                                     000C    70 		QUAL  =YES,-		; YES QUALIFIERS ALLOWED
                                     000C    71 		DEFIMG=COPY,-		; DEFAULT IMAGE OR ROUTINE NAME
                                     000C    72 		MINPRM=2,-		; MINIMUM NUMBER OF PARAMETERS
MCRDBAS1        - MCR COMMAND DATA BASE MODULE 1                 22-AUG-1978 01:29:58   VAX-11 MACRO X0.3-11               Page   5
01              DEFINE MCR COMMANDS                                                                                              (1)

                                     000C    73 		MAXPRM=2,-		; MAXIMUM NUMBER OF PARAMETERS
                                     000C    74 		FLAGS=NOEQL,-		; NO EQAULS FOR QUALIFIER VALUES
                                     000C    75 		OUTPRS=OPI_K_MCRUTLIST	; OUTPUT PARSE ROUTINES
                                     000C       	.LIST
                                 00000008       	.PSECT	MCR$VERBTBL,BYTE,RD,NOWRT
                                 C1  0008       	.BYTE	^A/A/!$XX$
                                 50  0009       	.BYTE	^A/P/!$XX$
                                 50  000A       	.BYTE	^A/P/!$XX$
                                 45  000B       	.BYTE	^A/E/!$XX$
                                     000C       	.LIST
                                 00000004       	.PSECT	MCR$COMDPTR,BYTE,RD,NOWRT
                               0048' 0004       	.WORD	VERB_G_APPE-.-2
                                     0006       	.LIST
                                 0000004E       	.PSECT	MCR$CMDATA,BYTE,RD,NOWRT
                                     004E       VERB_G_APPE:
                                 2F  004E       	.BYTE	CLI$K_VERB_APPE
                                 22  004F       	.BYTE	2*16!2
                                 00' 0050       	.BYTE	IMG_K_COPY
                                 03' 0051       	.BYTE	QUA_G_APPE-.-1
                                 44  0052       	.BYTE	$$$
                                 01' 0053       	.BYTE	30030$-.-1
                                 FF' 0054       	.BYTE	OPI_K_MCRUTLIST
                                     0055       30030$:
                                     0055       	.SAVE
                                 00000055       	.PSECT	MCR$CMDATA,BYTE,RD,NOWRT
                                     0055       QUA_G_APPE:
                                 06' 0055       30031$:	.BYTE	30034$-30031$
                                 00' 0056       	.BYTE	CLI$K_APPE_ALIG
                                 00' 0057       	.BYTE	QUA_K_ALIG
                                 00  0058       	.IIF B <>,	.BYTE	0
                               5038  0059       	.WORD	$$$
                                     005B       30034$:
                                 06' 005B       30035$:	.BYTE	30038$-30035$
                                 00' 005C       	.BYTE	CLI$K_APPE_ALLO
                                 00' 005D       	.BYTE	QUA_K_ALLO
                                 00  005E       	.IIF B <>,	.BYTE	0
                               1038  005F       	.WORD	$$$
                                     0061       30038$:
                                 06' 0061       30039$:	.BYTE	30042$-30039$
                                 00' 0062       	.BYTE	CLI$K_APPE_CONT
                                 00' 0063       	.BYTE	QUA_K_CONT
                                 00  0064       	.IIF B <>,	.BYTE	0
                               0058  0065       	.WORD	$$$
                                     0067       30042$:
                                 06' 0067       30043$:	.BYTE	30046$-30043$
                                 00' 0068       	.BYTE	CLI$K_APPE_EXTE
                                 00' 0069       	.BYTE	QUA_K_EXTE
                                 00  006A       	.IIF B <>,	.BYTE	0
                               1038  006B       	.WORD	$$$
                                     006D       30046$:
                                 06' 006D       30047$:	.BYTE	30050$-30047$
                                 00' 006E       	.BYTE	CLI$K_APPE_FILE
                                 00' 006F       	.BYTE	QUA_K_FILE
                                 00  0070       	.IIF B <>,	.BYTE	0
                               1038  0071       	.WORD	$$$
                                     0073       30050$:
                                 06' 0073       30051$:	.BYTE	30054$-30051$
MCRDBAS1        - MCR COMMAND DATA BASE MODULE 1                 22-AUG-1978 01:29:58   VAX-11 MACRO X0.3-11               Page   6
01              DEFINE MCR COMMANDS                                                                                              (1)

                                 00' 0074       	.BYTE	CLI$K_APPE_NEW_
                                 00' 0075       	.BYTE	QUA_K_NEW_
                                 00  0076       	.IIF B <>,	.BYTE	0
                               0058  0077       	.WORD	$$$
                                     0079       30054$:
                                 06' 0079       30055$:	.BYTE	30058$-30055$
                                 00' 007A       	.BYTE	CLI$K_APPE_PROT
                                 00' 007B       	.BYTE	QUA_K_PROT
                                 00  007C       	.IIF B <>,	.BYTE	0
                               5038  007D       	.WORD	$$$
                                     007F       30058$:
                                 06' 007F       30059$:	.BYTE	30062$-30059$
                                 00' 0080       	.BYTE	CLI$K_APPE_READ
                                 00' 0081       	.BYTE	QUA_K_READ
                                 00  0082       	.IIF B <>,	.BYTE	0
                               0058  0083       	.WORD	$$$
                                     0085       30062$:
                                 06' 0085       30063$:	.BYTE	30066$-30063$
                                 00' 0086       	.BYTE	CLI$K_APPE_LOG
                                 00' 0087       	.BYTE	QUA_K_LOG
                                 00  0088       	.IIF B <>,	.BYTE	0
                               0048  0089       	.WORD	$$$
                                     008B       30066$:
                                 06' 008B       30067$:	.BYTE	30070$-30067$
                                 00' 008C       	.BYTE	CLI$K_APPE_WRIT
                                 00' 008D       	.BYTE	QUA_K_WRIT
                                 00  008E       	.IIF B <>,	.BYTE	0
                               0058  008F       	.WORD	$$$
                                     0091       30070$:
                                 06' 0091       30071$:	.BYTE	30074$-30071$
                                 00' 0092       	.BYTE	CLI$K_APPE_MAXI
                                 00' 0093       	.BYTE	QUA_K_MAXI
                                 00  0094       	.IIF B <>,	.BYTE	0
                               0058  0095       	.WORD	$$$
                                     0097       30074$:
                           00000091  0097       .=$QUALBLK$
                                 00  0091       	.BYTE	0
                                 00000055       	.RESTORE
                                     0055    76
                                     0055    77 	DEFCMD	ASN,-			; DEFINE ASSIGN COMMAND
                                     0055    78 		QUAL  =YES,-		; YES QUALIFIERS ALLOWED
                                     0055    79 		DEFIMG=ASSIGN,-		; DEFAULT IMAGE OR ROUTINE NAME
                                     0055    80 		MINPRM=0,-		; MINIMUM NUMBER OF PARAMETERS
                                     0055    81 		MAXPRM=2		; MAXIMUM NUMBER OF PARAMETERS
                                     0055       	.LIST
                                 0000000C       	.PSECT	MCR$VERBTBL,BYTE,RD,NOWRT
                                 C1  000C       	.BYTE	^A/A/!$XX$
                                 53  000D       	.BYTE	^A/S/!$XX$
                                 4E  000E       	.BYTE	^A/N/!$XX$
                                 20  000F       	.ASCII	\ \
                                     0010       	.LIST
                                 00000006       	.PSECT	MCR$COMDPTR,BYTE,RD,NOWRT
                               008F' 0006       	.WORD	VERB_G_ASN-.-2
                                     0008       	.LIST
                                 00000097       	.PSECT	MCR$CMDATA,BYTE,RD,NOWRT
                                     0097       VERB_G_ASN:
                                 00  0097       	.BYTE	0
MCRDBAS1        - MCR COMMAND DATA BASE MODULE 1                 22-AUG-1978 01:29:58   VAX-11 MACRO X0.3-11               Page   7
01              DEFINE MCR COMMANDS                                                                                              (1)

                                 20  0098       	.BYTE	2*16!0
                                 00' 0099       	.BYTE	IMG_K_ASSIGN
                                 01' 009A       	.BYTE	QUA_G_ASN-.-1
                                 00  009B       	.BYTE	$$$
                                     009C       	.SAVE
                                 0000009C       	.PSECT	MCR$CMDATA,BYTE,RD,NOWRT
                                     009C       QUA_G_ASN:
                                 0A' 009C       30076$:	.BYTE	30079$-30076$
                                 00' 009D       	.BYTE	CLI$K_ASN_GBL
                                 06' 009E       	.BYTE	<30078$-30076$>
                                 00  009F       	.IIF B <>,	.BYTE	0
                               000A  00A0       	.WORD	$$$
                           4C 42 47  00A2       30078$:	.ASCII	\GBL\
                                 00  00A5       	.ASCII	< >
                                     00A6       30079$:
                                 06' 00A6       30080$:	.BYTE	30083$-30080$
                                 00' 00A7       	.BYTE	CLI$K_ASN_GROU
                                 00' 00A8       	.BYTE	QUA_K_GROU
                                 00  00A9       	.IIF B <>,	.BYTE	0
                               0008  00AA       	.WORD	$$$
                                     00AC       30083$:
                                 06' 00AC       30084$:	.BYTE	30087$-30084$
                                 00' 00AD       	.BYTE	CLI$K_ASN_TERM
                                 00' 00AE       	.BYTE	QUA_K_TERM
                                 00  00AF       	.IIF B <>,	.BYTE	0
                               0008  00B0       	.WORD	$$$
                                     00B2       30087$:
                           000000AC  00B2       .=$QUALBLK$
                                 00  00AC       	.BYTE	0
                                 0000009C       	.RESTORE
                                     009C    82
                                     009C    83 	DEFCMD	BLIS,-			; DEFINE BLISS COMMAND
                                     009C    84 		QUAL  =YES,-		; YES QUALIFIERS ALLOWED
                                     009C    85 		DEFIMG=BLISS32,-	; DEFAULT IMAGE OR ROUTINE NAME
                                     009C    86 		MINPRM=2,-		; MINIMUM NUMBER OF PARAMETERS
                                     009C    87 		MAXPRM=2,-		; MAXIMUM NUMBER OF PARAMETERS
                                     009C    88 		FLAGS=<NOEQL>,-		; COMMAND FLAGS
                                     009C    89 		OUTPRS=OPI_K_MCRUTLIST	; OUTPUT PARSE ROUTINES
                                     009C       	.LIST
                                 00000010       	.PSECT	MCR$VERBTBL,BYTE,RD,NOWRT
                                 C2  0010       	.BYTE	^A/B/!$XX$
                                 4C  0011       	.BYTE	^A/L/!$XX$
                                 49  0012       	.BYTE	^A/I/!$XX$
                                 53  0013       	.BYTE	^A/S/!$XX$
                                     0014       	.LIST
                                 00000008       	.PSECT	MCR$COMDPTR,BYTE,RD,NOWRT
                               00A8' 0008       	.WORD	VERB_G_BLIS-.-2
                                     000A       	.LIST
                                 000000B2       	.PSECT	MCR$CMDATA,BYTE,RD,NOWRT
                                     00B2       VERB_G_BLIS:
                                 05  00B2       	.BYTE	CLI$K_VERB_BLIS
                                 22  00B3       	.BYTE	2*16!2
                                 00' 00B4       	.BYTE	IMG_K_BLISS32
                                 03' 00B5       	.BYTE	QUA_G_BLIS-.-1
                                 44  00B6       	.BYTE	$$$
                                 01' 00B7       	.BYTE	30088$-.-1
                                 FF' 00B8       	.BYTE	OPI_K_MCRUTLIST
MCRDBAS1        - MCR COMMAND DATA BASE MODULE 1                 22-AUG-1978 01:29:58   VAX-11 MACRO X0.3-11               Page   8
01              DEFINE MCR COMMANDS                                                                                              (1)

                                     00B9       30088$:
                                     00B9       	.SAVE
                                 000000B9       	.PSECT	MCR$CMDATA,BYTE,RD,NOWRT
                                     00B9       QUA_G_BLIS:
                                 06' 00B9       30089$:	.BYTE	30092$-30089$
                                 00' 00BA       	.BYTE	CLI$K_BLIS_LIST
                                 00' 00BB       	.BYTE	QUA_K_LIST
                                 00  00BC       	.IIF B <>,	.BYTE	0
                               096C  00BD       	.WORD	$$$
                                     00BF       30092$:
                                 06' 00BF       30093$:	.BYTE	30096$-30093$
                                 00' 00C0       	.BYTE	CLI$K_BLIS_OBJE
                                 00' 00C1       	.BYTE	QUA_K_OBJE
                                 00  00C2       	.IIF B <>,	.BYTE	0
                               0B6C  00C3       	.WORD	$$$
                                     00C5       30096$:
                                 06' 00C5       30097$:	.BYTE	30100$-30097$
                                 00' 00C6       	.BYTE	CLI$K_BLIS_CODE
                                 00' 00C7       	.BYTE	QUA_K_CODE
                                 00  00C8       	.IIF B <>,	.BYTE	0
                               00C8  00C9       	.WORD	$$$
                                     00CB       30100$:
                                 06' 00CB       30101$:	.BYTE	30104$-30101$
                                 00' 00CC       	.BYTE	CLI$K_BLIS_DEBU
                                 00' 00CD       	.BYTE	QUA_K_DEBU
                                 00  00CE       	.IIF B <>,	.BYTE	0
                               0048  00CF       	.WORD	$$$
                                     00D1       30104$:
                                 06' 00D1       30105$:	.BYTE	30108$-30105$
                                 00' 00D2       	.BYTE	CLI$K_BLIS_QUIC
                                 00' 00D3       	.BYTE	QUA_K_QUIC
                                 00  00D4       	.IIF B <>,	.BYTE	0
                               0048  00D5       	.WORD	$$$
                                     00D7       30108$:
                                 08' 00D7       30109$:	.BYTE	30112$-30109$
                                 00' 00D8       	.BYTE	CLI$K_BLIS_VARI
                                 00' 00D9       	.BYTE	QUA_K_VARI
                                 06' 00DA       	.IIF NB	<1>,	.BYTE	30110$-30109$
                               2028  00DB       	.WORD	$$$
                              31 00' 00DD       30110$:	.ASCIC	\1\
                                 01  00DD
                                     00DF       30112$:
                                 13' 00DF       30113$:	.BYTE	30116$-30113$
                                 00' 00E0       	.BYTE	CLI$K_BLIS_TERM
                                 00' 00E1       	.BYTE	QUA_K_TERM
                                 06' 00E2       	.IIF NB	<NOSTAT,ERROR>,	.BYTE	30114$-30113$
                               40A8  00E3       	.WORD	$$$
4F 52 52 45 2C 54 41 54 53 4F 4E 00' 00E5       30114$:	.ASCIC	\NOSTAT,ERROR\
                                 52  00F1
                                 0C  00E5
                                     00F2       30116$:
                                 29' 00F2       30117$:	.BYTE	30120$-30117$
                                 00' 00F3       	.BYTE	CLI$K_BLIS_SOUR
                                 00' 00F4       	.BYTE	QUA_K_SOUR
                                 06' 00F5       	.IIF NB	<SOUR,NOREQ,NOEXPAND,NOTRACE,NOLIBR>,	.BYTE	30118$-30117$
                               40A8  00F6       	.WORD	$$$
2C 51 45 52 4F 4E 2C 52 55 4F 53 00' 00F8       30118$:	.ASCIC	\SOUR,NOREQ,NOEXPAND,NOTRACE,NOLIBR\
MCRDBAS1        - MCR COMMAND DATA BASE MODULE 1                 22-AUG-1978 01:29:58   VAX-11 MACRO X0.3-11               Page   9
01              DEFINE MCR COMMANDS                                                                                              (1)

54 4F 4E 2C 44 4E 41 50 58 45 4F 4E  0104
   52 42 49 4C 4F 4E 2C 45 43 41 52  0110
                                 22  00F8
                                     011B       30120$:
                                 19' 011B       30121$:	.BYTE	30124$-30121$
                                 00' 011C       	.BYTE	CLI$K_BLIS_OPTI
                                 00' 011D       	.BYTE	QUA_K_OPTI
                                 06' 011E       	.IIF NB	<LEVEL=2,SPACE,SAFE>,	.BYTE	30122$-30121$
                               40A8  011F       	.WORD	$$$
41 50 53 2C 32 3D 4C 45 56 45 4C 00' 0121       30122$:	.ASCIC	\LEVEL=2,SPACE,SAFE\
               45 46 41 53 2C 45 43  012D
                                 12  0121
                                     0134       30124$:
                                 24' 0134       30125$:	.BYTE	30128$-30125$
                                 00' 0135       	.BYTE	CLI$K_BLIS_MACH
                                 00' 0136       	.BYTE	QUA_K_MACH
                                 06' 0137       	.IIF NB	<NOASSEM,SYMBOL,COMMENT,BINARY>,	.BYTE	30126$-30125$
                               40A8  0138       	.WORD	$$$
4D 59 53 2C 4D 45 53 53 41 4F 4E 00' 013A       30126$:	.ASCIC	\NOASSEM,SYMBOL,COMMENT,BINARY\
2C 54 4E 45 4D 4D 4F 43 2C 4C 4F 42  0146
                  59 52 41 4E 49 42  0152
                                 1D  013A
                                     0158       30128$:
                                 06' 0158       30129$:	.BYTE	30132$-30129$
                                 00' 0159       	.BYTE	CLI$K_BLIS_LIBR
                                 00' 015A       	.BYTE	QUA_K_LIBR
                                 00  015B       	.IIF B <>,	.BYTE	0
                               086C  015C       	.WORD	$$$
                                     015E       30132$:
                                 06' 015E       30133$:	.BYTE	30136$-30133$
                                 00' 015F       	.BYTE	CLI$K_BLIS_TRAC
                                 00' 0160       	.BYTE	QUA_K_TRAC
                                 00  0161       	.IIF B <>,	.BYTE	0
                               00C8  0162       	.WORD	$$$
                                     0164       30136$:
                           0000015E  0164       .=$QUALBLK$
                                 00  015E       	.BYTE	0
                                 000000B9       	.RESTORE
                                     00B9    90
                                     00B9    91 	DEFCMD	BYE,-			; DEFINE LOGOUT COMMAND
                                     00B9    92 		QUAL  =NO,-		; YES QUALIFIERS ALLOWED
                                     00B9    93 		MINPRM=0,-		; MINIMUM NUMBER OF PARAMETERS
                                     00B9    94 		MAXPRM=0,-		; MAXIMUM NUMBER OF PARAMETERS
                                     00B9    95 		DEFIMG=LOGOUT,-		; DEFAULT IMAGE OR ROUTINE NAME
                                     00B9    96
                                     00B9       	.LIST
                                 00000014       	.PSECT	MCR$VERBTBL,BYTE,RD,NOWRT
                                 C2  0014       	.BYTE	^A/B/!$XX$
                                 59  0015       	.BYTE	^A/Y/!$XX$
                                 45  0016       	.BYTE	^A/E/!$XX$
                                 20  0017       	.ASCII	\ \
                                     0018       	.LIST
                                 0000000A       	.PSECT	MCR$COMDPTR,BYTE,RD,NOWRT
                               0158' 000A       	.WORD	VERB_G_BYE-.-2
                                     000C       	.LIST
                                 00000164       	.PSECT	MCR$CMDATA,BYTE,RD,NOWRT
                                     0164       VERB_G_BYE:
MCRDBAS1        - MCR COMMAND DATA BASE MODULE 1                 22-AUG-1978 01:29:58   VAX-11 MACRO X0.3-11               Page  10
01              DEFINE MCR COMMANDS                                                                                              (1)

                                 00  0164       	.BYTE	0
                                 00  0165       	.BYTE	0*16!0
                                 00' 0166       	.BYTE	IMG_K_LOGOUT
                                 00  0167       	.BYTE	0
                                 00  0168       	.BYTE	$$$
                                     0169    97 ;
                                     0169    98 ; CONTINUE MUST BE FIRST FOR ABBREVIATION TO "C"
                                     0169    99 ;
                                     0169   100
                                     0169   101 	DEFCMD	CONT,-			; DEFINE CONTINUE COMMAND
                                     0169   102 		QUAL  =NO,-		; NO QUALIFIERS ALLOWED
                                     0169   103 		MINPRM=0,-		; MINIMUM NUMBER OF PARAMETERS
                                     0169   104 		MAXPRM=0,-		; MAXIMUM NUMBER OF PARAMETERS
                                     0169   105 		FLAGS=ABREV,-		; COMMAND MAY BE ABREVIATED NON-UNIQULY
                                     0169   106 		DEFIMG=CONTINUE		; DEFAULT IMAGE OR ROUTINE NAME
                                     0169       	.LIST
                                 00000018       	.PSECT	MCR$VERBTBL,BYTE,RD,NOWRT
                                 C3  0018       	.BYTE	^A/C/!$XX$
                                 4F  0019       	.BYTE	^A/O/!$XX$
                                 4E  001A       	.BYTE	^A/N/!$XX$
                                 54  001B       	.BYTE	^A/T/!$XX$
                                     001C       	.LIST
                                 0000000C       	.PSECT	MCR$COMDPTR,BYTE,RD,NOWRT
                               015B' 000C       	.WORD	VERB_G_CONT-.-2
                                     000E       	.LIST
                                 00000169       	.PSECT	MCR$CMDATA,BYTE,RD,NOWRT
                                     0169       VERB_G_CONT:
                                 07  0169       	.BYTE	CLI$K_VERB_CONT
                                 00  016A       	.BYTE	0*16!0
                                 00' 016B       	.BYTE	IMG_K_CONTINUE
                                 00  016C       	.BYTE	0
                                 20  016D       	.BYTE	$$$
                                     016E   107
                                     016E   108 	DEFCMD	CANC,-			; DEFINE CANCEL COMMAND
                                     016E   109 		QUAL  =YES,-		; YES QUALIFIERS ALLOWED
                                     016E   110 		MINPRM=1,-		; MINIMUM NUMBER OF PARAMETERS
                                     016E   111 		MAXPRM=1,-		; MAXIMUM NUMBER OF PARAMETERS
                                     016E   112 		DEFIMG=CANCEL		; DEFAULT IMAGE OR ROUTINE NAME
                                     016E       	.LIST
                                 0000001C       	.PSECT	MCR$VERBTBL,BYTE,RD,NOWRT
                                 C3  001C       	.BYTE	^A/C/!$XX$
                                 41  001D       	.BYTE	^A/A/!$XX$
                                 4E  001E       	.BYTE	^A/N/!$XX$
                                 43  001F       	.BYTE	^A/C/!$XX$
                                     0020       	.LIST
                                 0000000E       	.PSECT	MCR$COMDPTR,BYTE,RD,NOWRT
                               015E' 000E       	.WORD	VERB_G_CANC-.-2
                                     0010       	.LIST
                                 0000016E       	.PSECT	MCR$CMDATA,BYTE,RD,NOWRT
                                     016E       VERB_G_CANC:
                                 33  016E       	.BYTE	CLI$K_VERB_CANC
                                 11  016F       	.BYTE	1*16!1
                                 00' 0170       	.BYTE	IMG_K_CANCEL
                                 01' 0171       	.BYTE	QUA_G_CANC-.-1
                                 00  0172       	.BYTE	$$$
                                     0173       	.SAVE
                                 00000173       	.PSECT	MCR$CMDATA,BYTE,RD,NOWRT
MCRDBAS1        - MCR COMMAND DATA BASE MODULE 1                 22-AUG-1978 01:29:58   VAX-11 MACRO X0.3-11               Page  11
01              DEFINE MCR COMMANDS                                                                                              (1)

                                     0173       QUA_G_CANC:
                                 06' 0173       30140$:	.BYTE	30143$-30140$
                                 00' 0174       	.BYTE	CLI$K_CANC_IDEN
                                 00' 0175       	.BYTE	QUA_K_IDEN
                                 00  0176       	.IIF B <>,	.BYTE	0
                               3028  0177       	.WORD	$$$
                                     0179       30143$:
                           00000173  0179       .=$QUALBLK$
                                 00  0173       	.BYTE	0
                                 00000173       	.RESTORE
                                     0173   113
                                     0173   114 	DEFCMD	COPY,-			; DEFINE COPY COMMAND
                                     0173   115 		QUAL  =YES,-		; YES QUALIFIERS ALLOWED
                                     0173   116 		DEFIMG=COPY,-		; DEFAULT IMAGE OR ROUTINE NAME
                                     0173   117 		MINPRM=2,-		; MINIMUM NUMBER OF PARAMETERS
                                     0173   118 		MAXPRM=2,-		; MAXIMUM NUMBER OF PARAMETERS
                                     0173   119 		FLAGS=<NOEQL>,-		; COMMAND FLAGS
                                     0173   120 		OUTPRS=OPI_K_MCRUTLIST	; OUTPUT PARSE ROUTINES
                                     0173       	.LIST
                                 00000020       	.PSECT	MCR$VERBTBL,BYTE,RD,NOWRT
                                 C3  0020       	.BYTE	^A/C/!$XX$
                                 4F  0021       	.BYTE	^A/O/!$XX$
                                 50  0022       	.BYTE	^A/P/!$XX$
                                 59  0023       	.BYTE	^A/Y/!$XX$
                                     0024       	.LIST
                                 00000010       	.PSECT	MCR$COMDPTR,BYTE,RD,NOWRT
                               0167' 0010       	.WORD	VERB_G_COPY-.-2
                                     0012       	.LIST
                                 00000179       	.PSECT	MCR$CMDATA,BYTE,RD,NOWRT
                                     0179       VERB_G_COPY:
                                 08  0179       	.BYTE	CLI$K_VERB_COPY
                                 22  017A       	.BYTE	2*16!2
                                 00' 017B       	.BYTE	IMG_K_COPY
                                 03' 017C       	.BYTE	QUA_G_COPY-.-1
                                 44  017D       	.BYTE	$$$
                                 01' 017E       	.BYTE	30144$-.-1
                                 FF' 017F       	.BYTE	OPI_K_MCRUTLIST
                                     0180       30144$:
                                     0180       	.SAVE
                                 00000180       	.PSECT	MCR$CMDATA,BYTE,RD,NOWRT
                                     0180       QUA_G_COPY:
                                 06' 0180       30145$:	.BYTE	30148$-30145$
                                 00' 0181       	.BYTE	CLI$K_COPY_ALIG
                                 00' 0182       	.BYTE	QUA_K_ALIG
                                 00  0183       	.IIF B <>,	.BYTE	0
                               5038  0184       	.WORD	$$$
                                     0186       30148$:
                                 06' 0186       30149$:	.BYTE	30152$-30149$
                                 00' 0187       	.BYTE	CLI$K_COPY_ALLO
                                 00' 0188       	.BYTE	QUA_K_ALLO
                                 00  0189       	.IIF B <>,	.BYTE	0
                               1038  018A       	.WORD	$$$
                                     018C       30152$:
                                 06' 018C       30153$:	.BYTE	30156$-30153$
                                 00' 018D       	.BYTE	CLI$K_COPY_CONC
                                 00' 018E       	.BYTE	QUA_K_CONC
                                 00  018F       	.IIF B <>,	.BYTE	0
MCRDBAS1        - MCR COMMAND DATA BASE MODULE 1                 22-AUG-1978 01:29:58   VAX-11 MACRO X0.3-11               Page  12
01              DEFINE MCR COMMANDS                                                                                              (1)

                               00C8  0190       	.WORD	$$$
                                     0192       30156$:
                                 06' 0192       30157$:	.BYTE	30160$-30157$
                                 00' 0193       	.BYTE	CLI$K_COPY_CONT
                                 00' 0194       	.BYTE	QUA_K_CONT
                                 00  0195       	.IIF B <>,	.BYTE	0
                               0058  0196       	.WORD	$$$
                                     0198       30160$:
                                 06' 0198       30161$:	.BYTE	30164$-30161$
                                 00' 0199       	.BYTE	CLI$K_COPY_EXTE
                                 00' 019A       	.BYTE	QUA_K_EXTE
                                 00  019B       	.IIF B <>,	.BYTE	0
                               1038  019C       	.WORD	$$$
                                     019E       30164$:
                                 06' 019E       30165$:	.BYTE	30168$-30165$
                                 00' 019F       	.BYTE	CLI$K_COPY_FILE
                                 00' 01A0       	.BYTE	QUA_K_FILE
                                 00  01A1       	.IIF B <>,	.BYTE	0
                               1038  01A2       	.WORD	$$$
                                     01A4       30168$:
                                 06' 01A4       30169$:	.BYTE	30172$-30169$
                                 00' 01A5       	.BYTE	CLI$K_COPY_OVER
                                 00' 01A6       	.BYTE	QUA_K_OVER
                                 00  01A7       	.IIF B <>,	.BYTE	0
                               0058  01A8       	.WORD	$$$
                                     01AA       30172$:
                                 06' 01AA       30173$:	.BYTE	30176$-30173$
                                 00' 01AB       	.BYTE	CLI$K_COPY_PROT
                                 00' 01AC       	.BYTE	QUA_K_PROT
                                 00  01AD       	.IIF B <>,	.BYTE	0
                               5038  01AE       	.WORD	$$$
                                     01B0       30176$:
                                 06' 01B0       30177$:	.BYTE	30180$-30177$
                                 00' 01B1       	.BYTE	CLI$K_COPY_READ
                                 00' 01B2       	.BYTE	QUA_K_READ
                                 00  01B3       	.IIF B <>,	.BYTE	0
                               0058  01B4       	.WORD	$$$
                                     01B6       30180$:
                                 06' 01B6       30181$:	.BYTE	30184$-30181$
                                 00' 01B7       	.BYTE	CLI$K_COPY_REPL
                                 00' 01B8       	.BYTE	QUA_K_REPL
                                 00  01B9       	.IIF B <>,	.BYTE	0
                               0058  01BA       	.WORD	$$$
                                     01BC       30184$:
                                 06' 01BC       30185$:	.BYTE	30188$-30185$
                                 00' 01BD       	.BYTE	CLI$K_COPY_LOG
                                 00' 01BE       	.BYTE	QUA_K_LOG
                                 00  01BF       	.IIF B <>,	.BYTE	0
                               0048  01C0       	.WORD	$$$
                                     01C2       30188$:
                                 06' 01C2       30189$:	.BYTE	30192$-30189$
                                 00' 01C3       	.BYTE	CLI$K_COPY_WRIT
                                 00' 01C4       	.BYTE	QUA_K_WRIT
                                 00  01C5       	.IIF B <>,	.BYTE	0
                               0058  01C6       	.WORD	$$$
                                     01C8       30192$:
                                 06' 01C8       30193$:	.BYTE	30196$-30193$
MCRDBAS1        - MCR COMMAND DATA BASE MODULE 1                 22-AUG-1978 01:29:58   VAX-11 MACRO X0.3-11               Page  13
01              DEFINE MCR COMMANDS                                                                                              (1)

                                 00' 01C9       	.BYTE	CLI$K_COPY_TRUN
                                 00' 01CA       	.BYTE	QUA_K_TRUN
                                 00  01CB       	.IIF B <>,	.BYTE	0
                               0058  01CC       	.WORD	$$$
                                     01CE       30196$:
                                 06' 01CE       30197$:	.BYTE	30200$-30197$
                                 00' 01CF       	.BYTE	CLI$K_COPY_NEW_
                                 00' 01D0       	.BYTE	QUA_K_NEW_
                                 00  01D1       	.IIF B <>,	.BYTE	0
                               0008  01D2       	.WORD	$$$
                                     01D4       30200$:
                           000001CE  01D4       .=$QUALBLK$
                                 00  01CE       	.BYTE	0
                                 00000180       	.RESTORE
                                     0180   121 ;
                                     0180   122 ; DEPOSIT COMMAND MUST BE FIRST SINCE IF MAY BE ABBREVIATED "D"
                                     0180   123 ;
                                     0180   124
                                     0180   125 	DEFCMD	DEPO,-			; DEFINE DEPOSIT COMMAND
                                     0180   126 		QUAL  =YES,-		; YES QUALIFIERS ALLOWED
                                     0180   127 		DEFIMG=DEPOSIT,-	; DEFAULT IMAGE OR ROUTINE NAME
                                     0180   128 		QUALST=EXAM,-		; USE EXAMINE QUALIFIER LIST
                                     0180   129 		FLAGS =<IMMED,ABREV>	; COMMAND PROCESSING FLAGS
                                     0180       	.LIST
                                 00000024       	.PSECT	MCR$VERBTBL,BYTE,RD,NOWRT
                                 C4  0024       	.BYTE	^A/D/!$XX$
                                 45  0025       	.BYTE	^A/E/!$XX$
                                 50  0026       	.BYTE	^A/P/!$XX$
                                 4F  0027       	.BYTE	^A/O/!$XX$
                                     0028       	.LIST
                                 00000012       	.PSECT	MCR$COMDPTR,BYTE,RD,NOWRT
                               01C0' 0012       	.WORD	VERB_G_DEPO-.-2
                                     0014       	.LIST
                                 000001D4       	.PSECT	MCR$CMDATA,BYTE,RD,NOWRT
                                     01D4       VERB_G_DEPO:
                                 10  01D4       	.BYTE	CLI$K_VERB_DEPO
                                 F0  01D5       	.BYTE	15*16!0
                                 00' 01D6       	.BYTE	IMG_K_DEPOSIT
                                 01' 01D7       	.BYTE	QUA_G_DEPO-.-1
                                 32  01D8       	.BYTE	$$$
                                     01D9       QUA_G_DEPO:
                               FE27' 01D9       	.WORD	MCR$G_EXAMQUALS-.
                                     01DB   130
                                     01DB   131
                                     01DB   132 	DEFCMD	DEAL,-			; DEFINE DEALLOCATE COMMAND
                                     01DB   133 		QUAL  =YES,-		; YES QUALIFIERS ALLOWED
                                     01DB   134 		MINPRM=1,-		; MINIMUM NUMBER OF PARAMETERS
                                     01DB   135 		MAXPRM=1,-		; MAXIMUM NUMBER OF PARAMETERS
                                     01DB   136 		DEFIMG=DEALLOCAT	; DEFAULT IMAGE OR ROUTINE NAME
                                     01DB       	.LIST
                                 00000028       	.PSECT	MCR$VERBTBL,BYTE,RD,NOWRT
                                 C4  0028       	.BYTE	^A/D/!$XX$
                                 45  0029       	.BYTE	^A/E/!$XX$
                                 41  002A       	.BYTE	^A/A/!$XX$
                                 4C  002B       	.BYTE	^A/L/!$XX$
                                     002C       	.LIST
                                 00000014       	.PSECT	MCR$COMDPTR,BYTE,RD,NOWRT
MCRDBAS1        - MCR COMMAND DATA BASE MODULE 1                 22-AUG-1978 01:29:58   VAX-11 MACRO X0.3-11               Page  14
01              DEFINE MCR COMMANDS                                                                                              (1)

                               01C5' 0014       	.WORD	VERB_G_DEAL-.-2
                                     0016       	.LIST
                                 000001DB       	.PSECT	MCR$CMDATA,BYTE,RD,NOWRT
                                     01DB       VERB_G_DEAL:
                                 0B  01DB       	.BYTE	CLI$K_VERB_DEAL
                                 11  01DC       	.BYTE	1*16!1
                                 00' 01DD       	.BYTE	IMG_K_DEALLOCAT
                                 01' 01DE       	.BYTE	QUA_G_DEAL-.-1
                                 00  01DF       	.BYTE	$$$
                                     01E0       	.SAVE
                                 000001E0       	.PSECT	MCR$CMDATA,BYTE,RD,NOWRT
                                     01E0       QUA_G_DEAL:
                                 0A' 01E0       30203$:	.BYTE	30206$-30203$
                                 00' 01E1       	.BYTE	CLI$K_DEAL_ALL
                                 00' 01E2       	.BYTE	QUA_K_ALL
                                 00  01E3       	.IIF B <>,	.BYTE	0
                               0409  01E4       	.WORD	$$$
                                 00' 01E6       	.BYTE	IMG_K_DEALLOCAT
                               0000  01E7       	.WORD	0
                                 00  01E9       	.BYTE	0*16+0
                                     01EA       30206$:
                           000001E0  01EA       .=$QUALBLK$
                                 00  01E0       	.BYTE	0
                                 000001E0       	.RESTORE
                                     01E0   137
                                     01E0   138 	DEFCMD	DEBU,-			; DEFINE DEBUG COMMAND
                                     01E0   139 		QUAL	=NO,-		; NO QUALIFIERS ALLOWED
                                     01E0   140 		MINPRM=0,-		; MINIMUM NUMBER OF PARAMETERS
                                     01E0   141 		MAXPRM=0,-		; MAXIMUM NUMBER OF PARAMETERS
                                     01E0   142 		DEFIMG	=DEBUG		; DEFAULT IMAGE OR ROUTINE NAME
                                     01E0       	.LIST
                                 0000002C       	.PSECT	MCR$VERBTBL,BYTE,RD,NOWRT
                                 C4  002C       	.BYTE	^A/D/!$XX$
                                 45  002D       	.BYTE	^A/E/!$XX$
                                 42  002E       	.BYTE	^A/B/!$XX$
                                 55  002F       	.BYTE	^A/U/!$XX$
                                     0030       	.LIST
                                 00000016       	.PSECT	MCR$COMDPTR,BYTE,RD,NOWRT
                               01D2' 0016       	.WORD	VERB_G_DEBU-.-2
                                     0018       	.LIST
                                 000001EA       	.PSECT	MCR$CMDATA,BYTE,RD,NOWRT
                                     01EA       VERB_G_DEBU:
                                 0D  01EA       	.BYTE	CLI$K_VERB_DEBU
                                 00  01EB       	.BYTE	0*16!0
                                 00' 01EC       	.BYTE	IMG_K_DEBUG
                                 00  01ED       	.BYTE	0
                                 00  01EE       	.BYTE	$$$
                                     01EF   143
                                     01EF   144 	DEFCMD	DELE,-			; DEFINE DELETE COMMAND
                                     01EF   145 		QUAL  =YES,-		; YES QUALIFIERS ALLOWED
                                     01EF   146 		MINPRM=1,-		; MINIMUM NUMBER OF PARAMETERS
                                     01EF   147 		MAXPRM=1,-		; MAXIMUM NUMBER OF PARAMETERS
                                     01EF   148 		DEFIMG=DELETE		; DEFAULT IMAGE OR ROUTINE NAME
                                     01EF       	.LIST
                                 00000030       	.PSECT	MCR$VERBTBL,BYTE,RD,NOWRT
                                 C4  0030       	.BYTE	^A/D/!$XX$
                                 45  0031       	.BYTE	^A/E/!$XX$
MCRDBAS1        - MCR COMMAND DATA BASE MODULE 1                 22-AUG-1978 01:29:58   VAX-11 MACRO X0.3-11               Page  15
01              DEFINE MCR COMMANDS                                                                                              (1)

                                 4C  0032       	.BYTE	^A/L/!$XX$
                                 45  0033       	.BYTE	^A/E/!$XX$
                                     0034       	.LIST
                                 00000018       	.PSECT	MCR$COMDPTR,BYTE,RD,NOWRT
                               01D5' 0018       	.WORD	VERB_G_DELE-.-2
                                     001A       	.LIST
                                 000001EF       	.PSECT	MCR$CMDATA,BYTE,RD,NOWRT
                                     01EF       VERB_G_DELE:
                                 0F  01EF       	.BYTE	CLI$K_VERB_DELE
                                 11  01F0       	.BYTE	1*16!1
                                 00' 01F1       	.BYTE	IMG_K_DELETE
                                 01' 01F2       	.BYTE	QUA_G_DELE-.-1
                                 00  01F3       	.BYTE	$$$
                                     01F4       	.SAVE
                                 000001F4       	.PSECT	MCR$CMDATA,BYTE,RD,NOWRT
                                     01F4       QUA_G_DELE:
                                 06' 01F4       30210$:	.BYTE	30213$-30210$
                                 00' 01F5       	.BYTE	CLI$K_DELE_CREA
                                 00' 01F6       	.BYTE	QUA_K_CREA
                                 00  01F7       	.IIF B <>,	.BYTE	0
                               0008  01F8       	.WORD	$$$
                                     01FA       30213$:
                                 0A' 01FA       30214$:	.BYTE	30217$-30214$
                                 00' 01FB       	.BYTE	CLI$K_DELE_ENTR
                                 00' 01FC       	.BYTE	QUA_K_ENTR
                                 00  01FD       	.IIF B <>,	.BYTE	0
                               1429  01FE       	.WORD	$$$
                                 00' 0200       	.BYTE	IMG_K_QUEMAN
                               0000  0201       	.WORD	0
                                 11  0203       	.BYTE	1*16+1
                                     0204       30217$:
                                 0A' 0204       30219$:	.BYTE	30222$-30219$
                                 00' 0205       	.BYTE	CLI$K_DELE_MODI
                                 06' 0206       	.BYTE	<30221$-30219$>
                                 00  0207       	.IIF B <>,	.BYTE	0
                               000A  0208       	.WORD	$$$
                        49 44 4F 4D  020A       30221$:	.ASCII	\MODI\
                                     020E       30222$:
                                 0A' 020E       30223$:	.BYTE	30226$-30223$
                                 00' 020F       	.BYTE	CLI$K_DELE_QUEU
                                 00' 0210       	.BYTE	QUA_K_QUEU
                                 00  0211       	.IIF B <>,	.BYTE	0
                               0409  0212       	.WORD	$$$
                                 00' 0214       	.BYTE	IMG_K_QUEMAN
                               0000  0215       	.WORD	0
                                 11  0217       	.BYTE	1*16+1
                                     0218       30226$:
                                 0A' 0218       30228$:	.BYTE	30231$-30228$
                                 00' 0219       	.BYTE	CLI$K_DELE_CONF
                                 06' 021A       	.BYTE	<30230$-30228$>
                                 00  021B       	.IIF B <>,	.BYTE	0
                               004A  021C       	.WORD	$$$
                        46 4E 4F 43  021E       30230$:	.ASCII	\CONF\
                                     0222       30231$:
                                 06' 0222       30232$:	.BYTE	30235$-30232$
                                 00' 0223       	.BYTE	CLI$K_DELE_LOG
                                 00' 0224       	.BYTE	QUA_K_LOG
MCRDBAS1        - MCR COMMAND DATA BASE MODULE 1                 22-AUG-1978 01:29:58   VAX-11 MACRO X0.3-11               Page  16
01              DEFINE MCR COMMANDS                                                                                              (1)

                                 00  0225       	.IIF B <>,	.BYTE	0
                               0048  0226       	.WORD	$$$
                                     0228       30235$:
                                 0A' 0228       30236$:	.BYTE	30239$-30236$
                                 00' 0229       	.BYTE	CLI$K_DELE_SINC
                                 06' 022A       	.BYTE	<30238$-30236$>
                                 00  022B       	.IIF B <>,	.BYTE	0
                               202A  022C       	.WORD	$$$
                        43 4E 49 53  022E       30238$:	.ASCII	\SINC\
                                     0232       30239$:
                                 0A' 0232       30240$:	.BYTE	30243$-30240$
                                 00' 0233       	.BYTE	CLI$K_DELE_BEFO
                                 06' 0234       	.BYTE	<30242$-30240$>
                                 00  0235       	.IIF B <>,	.BYTE	0
                               202A  0236       	.WORD	$$$
                        4F 46 45 42  0238       30242$:	.ASCII	\BEFO\
                                     023C       30243$:
                                 0A' 023C       30244$:	.BYTE	30247$-30244$
                                 00' 023D       	.BYTE	CLI$K_DELE_EXPI
                                 06' 023E       	.BYTE	<30246$-30244$>
                                 00  023F       	.IIF B <>,	.BYTE	0
                               000A  0240       	.WORD	$$$
                        49 50 58 45  0242       30246$:	.ASCII	\EXPI\
                                     0246       30247$:
                           0000023C  0246       .=$QUALBLK$
                                 00  023C       	.BYTE	0
                                 000001F4       	.RESTORE
                                     01F4   149
                                     01F4   150 	DEFCMD	DIRE,-			; DEFINE DIRECTORY COMMAND
                                     01F4   151 		QUAL  =YES,-		; YES QUALIFIERS ALLOWED
                                     01F4   152 		MINPRM=0,-		; MINIMUM PARAMETER COUNT
                                     01F4   153 		MAXPRM=1,-		; MAXIMUM PARAMETERS ALLOWED
                                     01F4   154 		DEFIMG=BACKTRANS,-	; DEFAULT IMAGE OR ROUTINE NAME
                                     01F4   155 		OUTPRS=CLI$K_DIRE_OUTP	; OUTPUT PARSE ROUTINES
                                     01F4       	.LIST
                                 00000034       	.PSECT	MCR$VERBTBL,BYTE,RD,NOWRT
                                 C4  0034       	.BYTE	^A/D/!$XX$
                                 49  0035       	.BYTE	^A/I/!$XX$
                                 52  0036       	.BYTE	^A/R/!$XX$
                                 45  0037       	.BYTE	^A/E/!$XX$
                                     0038       	.LIST
                                 0000001A       	.PSECT	MCR$COMDPTR,BYTE,RD,NOWRT
                               022A' 001A       	.WORD	VERB_G_DIRE-.-2
                                     001C       	.LIST
                                 00000246       	.PSECT	MCR$CMDATA,BYTE,RD,NOWRT
                                     0246       VERB_G_DIRE:
                                 12  0246       	.BYTE	CLI$K_VERB_DIRE
                                 10  0247       	.BYTE	1*16!0
                                 00' 0248       	.BYTE	IMG_K_BACKTRANS
                                 03' 0249       	.BYTE	QUA_G_DIRE-.-1
                                 04  024A       	.BYTE	$$$
                                 01' 024B       	.BYTE	30248$-.-1
                                 00' 024C       	.BYTE	CLI$K_DIRE_OUTP
                                     024D       30248$:
                                     024D       	.SAVE
                                 0000024D       	.PSECT	MCR$CMDATA,BYTE,RD,NOWRT
                                     024D       QUA_G_DIRE:
MCRDBAS1        - MCR COMMAND DATA BASE MODULE 1                 22-AUG-1978 01:29:58   VAX-11 MACRO X0.3-11               Page  17
01              DEFINE MCR COMMANDS                                                                                              (1)

                                 06' 024D       30249$:	.BYTE	30252$-30249$
                                 00' 024E       	.BYTE	CLI$K_DIRE_BRIE
                                 00' 024F       	.BYTE	QUA_K_BRIE
                                 00  0250       	.IIF B <>,	.BYTE	0
                               0008  0251       	.WORD	$$$
                                     0253       30252$:
                                 06' 0253       30253$:	.BYTE	30256$-30253$
                                 00' 0254       	.BYTE	CLI$K_DIRE_COLU
                                 00' 0255       	.BYTE	QUA_K_COLU
                                 00  0256       	.IIF B <>,	.BYTE	0
                               0028  0257       	.WORD	$$$
                                     0259       30256$:
                                 06' 0259       30257$:	.BYTE	30260$-30257$
                                 00' 025A       	.BYTE	CLI$K_DIRE_FULL
                                 00' 025B       	.BYTE	QUA_K_FULL
                                 00  025C       	.IIF B <>,	.BYTE	0
                               0008  025D       	.WORD	$$$
                                     025F       30260$:
                                 06' 025F       30261$:	.BYTE	30264$-30261$
                                 00' 0260       	.BYTE	CLI$K_DIRE_OUTP
                                 00' 0261       	.BYTE	QUA_K_OUTP
                                 00  0262       	.IIF B <>,	.BYTE	0
                               182C  0263       	.WORD	$$$
                                     0265       30264$:
                                 06' 0265       30265$:	.BYTE	30268$-30265$
                                 00' 0266       	.BYTE	CLI$K_DIRE_PRIN
                                 00' 0267       	.BYTE	QUA_K_PRIN
                                 00  0268       	.IIF B <>,	.BYTE	0
                               0008  0269       	.WORD	$$$
                                     026B       30268$:
                           00000265  026B       .=$QUALBLK$
                                 00  0265       	.BYTE	0
                                 0000024D       	.RESTORE
                                     024D   156
                                     024D   157 	DEFCMD	DMOU,-			; DEFINE DISMOUNT COMMAND
                                     024D   158 		QUAL  =YES,-		; YES QUALIFIERS ALLOWED
                                     024D   159 		MINPRM=1,-		; MINIMUM NUMBER OF PARAMETERS
                                     024D   160 		MAXPRM=1,-		; MAXIMUM NUMBER OF PARAMETERS
                                     024D   161 		DEFIMG=DISMOUNT		; DEFAULT IMAGE OR ROUTINE NAME
                                     024D       	.LIST
                                 00000038       	.PSECT	MCR$VERBTBL,BYTE,RD,NOWRT
                                 C4  0038       	.BYTE	^A/D/!$XX$
                                 4D  0039       	.BYTE	^A/M/!$XX$
                                 4F  003A       	.BYTE	^A/O/!$XX$
                                 55  003B       	.BYTE	^A/U/!$XX$
                                     003C       	.LIST
                                 0000001C       	.PSECT	MCR$COMDPTR,BYTE,RD,NOWRT
                               024D' 001C       	.WORD	VERB_G_DMOU-.-2
                                     001E       	.LIST
                                 0000026B       	.PSECT	MCR$CMDATA,BYTE,RD,NOWRT
                                     026B       VERB_G_DMOU:
                                 00  026B       	.BYTE	0
                                 11  026C       	.BYTE	1*16!1
                                 00' 026D       	.BYTE	IMG_K_DISMOUNT
                                 01' 026E       	.BYTE	QUA_G_DMOU-.-1
                                 00  026F       	.BYTE	$$$
                                     0270       	.SAVE
MCRDBAS1        - MCR COMMAND DATA BASE MODULE 1                 22-AUG-1978 01:29:58   VAX-11 MACRO X0.3-11               Page  18
01              DEFINE MCR COMMANDS                                                                                              (1)

                                 00000270       	.PSECT	MCR$CMDATA,BYTE,RD,NOWRT
                                     0270       QUA_G_DMOU:
                                 06' 0270       30270$:	.BYTE	30273$-30270$
                                 00' 0271       	.BYTE	CLI$K_DISM_UNLO
                                 00' 0272       	.BYTE	QUA_K_UNLO
                                 00  0273       	.IIF B <>,	.BYTE	0
                               00C8  0274       	.WORD	$$$
                                     0276       30273$:
                           00000270  0276       .=$QUALBLK$
                                 00  0270       	.BYTE	0
                                 00000270       	.RESTORE
                                     0270   162
                                     0270   163 	.END
MCRDBAS1        - MCR COMMAND DATA BASE MODULE 1                 22-AUG-1978 01:29:58   VAX-11 MACRO X0.3-11               Page  19
SYMBOL TABLE                                                                                                                     (1)

$$$            = 000000C8            CLI$K_DELE_EXPI  ********   X   07   CLI$K_VERB_RUN = 00000024
$QUALBLK$      = 00000270 R     07   CLI$K_DELE_LOG   ********   X   07   CLI$K_VERB_SET = 00000025
$XX$           = 00000000            CLI$K_DELE_MODI  ********   X   07   CLI$K_VERB_SHOW= 00000026
BIT...         = 00000008            CLI$K_DELE_QUEU  ********   X   07   CLI$K_VERB_SORT= 00000035
CLI$K_ANAL_DBG   ********   X   07   CLI$K_DELE_SINC  ********   X   07   CLI$K_VERB_STAR= 00000027
CLI$K_ANAL_EOM   ********   X   07   CLI$K_DIRE_BRIE  ********   X   07   CLI$K_VERB_STOP= 00000028
CLI$K_ANAL_GSD   ********   X   07   CLI$K_DIRE_COLU  ********   X   07   CLI$K_VERB_SUBM= 00000029
CLI$K_ANAL_INTE  ********   X   07   CLI$K_DIRE_FULL  ********   X   07   CLI$K_VERB_SYNC= 00000037
CLI$K_ANAL_MHD   ********   X   07   CLI$K_DIRE_OUTP  ********   X   07   CLI$K_VERB_TYPE= 0000002A
CLI$K_ANAL_TBT   ********   X   07   CLI$K_DIRE_PRIN  ********   X   07   CLI$K_VERB_UNLO= 0000002E
CLI$K_ANAL_TIR   ********   X   07   CLI$K_DISM_UNLO  ********   X   07   CLI$_ABFNAM    = 000381B8
CLI$K_APPE_ALIG  ********   X   07   CLI$K_VERB_ALLO= 00000001            CLI$_ABKEYW    = 00038000
CLI$K_APPE_ALLO  ********   X   07   CLI$K_VERB_ANAL= 00000002            CLI$_ABVERB    = 00038008
CLI$K_APPE_CONT  ********   X   07   CLI$K_VERB_APPE= 0000002F            CLI$_BADRET    = 00038198
CLI$K_APPE_EXTE  ********   X   07   CLI$K_VERB_ASSI= 00000003            CLI$_BADTEXT   = 000381B0
CLI$K_APPE_FILE  ********   X   07   CLI$K_VERB_BASI= 00000004            CLI$_BUFOVF    = 00038018
CLI$K_APPE_LOG   ********   X   07   CLI$K_VERB_BLIS= 00000005            CLI$_COMPLX    = 00038020
CLI$K_APPE_MAXI  ********   X   07   CLI$K_VERB_CANC= 00000033            CLI$_CONFQUAL  = 00038802
CLI$K_APPE_NEW_  ********   X   07   CLI$K_VERB_COBO= 00000006            CLI$_CREQUEJOB = 0003884A
CLI$K_APPE_PROT  ********   X   07   CLI$K_VERB_CONT= 00000007            CLI$_DEFOVF    = 00038028
CLI$K_APPE_READ  ********   X   07   CLI$K_VERB_COPY= 00000008            CLI$_DEVALSPL  = 0003885A
CLI$K_APPE_WRIT  ********   X   07   CLI$K_VERB_CREA= 00000009            CLI$_DEVNOTFOR = 0003887A
CLI$K_ASN_GBL    ********   X   07   CLI$K_VERB_DATA= 0000000A            CLI$_DEVNOTSPL = 00038862
CLI$K_ASN_GROU   ********   X   07   CLI$K_VERB_DEAL= 0000000B            CLI$_DIRECT    = 00038030
CLI$K_ASN_TERM   ********   X   07   CLI$K_VERB_DEAS= 0000000C            CLI$_EXPSYN    = 00038038
CLI$K_BLIS_CODE  ********   X   07   CLI$K_VERB_DEBU= 0000000D            CLI$_FILOPN    = 00038190
CLI$K_BLIS_DEBU  ********   X   07   CLI$K_VERB_DEFI= 0000000E            CLI$_ILLVAL    = 0003883A
CLI$K_BLIS_LIBR  ********   X   07   CLI$K_VERB_DELE= 0000000F            CLI$_IMCHNG    = 00038040
CLI$K_BLIS_LIST  ********   X   07   CLI$K_VERB_DEPO= 00000010            CLI$_IMGFNF    = 00038872
CLI$K_BLIS_MACH  ********   X   07   CLI$K_VERB_DIFF= 00000011            CLI$_INSFPRM   = 00038048
CLI$K_BLIS_OBJE  ********   X   07   CLI$K_VERB_DIRE= 00000012            CLI$_INVKEY    = 00038178
CLI$K_BLIS_OPTI  ********   X   07   CLI$K_VERB_DISM= 00000013            CLI$_INVQUAL   = 0003880A
CLI$K_BLIS_QUIC  ********   X   07   CLI$K_VERB_DUMP= 00000030            CLI$_INVQUALNUM= 0003881A
CLI$K_BLIS_SOUR  ********   X   07   CLI$K_VERB_EDIT= 00000014            CLI$_INVREQTYP = 00038822
CLI$K_BLIS_TERM  ********   X   07   CLI$K_VERB_EOD = 00000015            CLI$_INVRSP    = 00038180
CLI$K_BLIS_TRAC  ********   X   07   CLI$K_VERB_EXAM= 00000016            CLI$_INVUIC    = 000381A8
CLI$K_BLIS_VARI  ********   X   07   CLI$K_VERB_EXIT= 00000017            CLI$_IVCHAR    = 00038050
CLI$K_CANC_IDEN  ********   X   07   CLI$K_VERB_FORE= 000000FF            CLI$_IVDEVTYPE = 0003886A
CLI$K_COPY_ALIG  ********   X   07   CLI$K_VERB_FORT= 00000018            CLI$_IVFNAM    = 000381C0
CLI$K_COPY_ALLO  ********   X   07   CLI$K_VERB_GOTO= 00000019            CLI$_IVKEYW    = 00038060
CLI$K_COPY_CONC  ********   X   07   CLI$K_VERB_HELP= 0000001A            CLI$_IVOPER    = 00038068
CLI$K_COPY_CONT  ********   X   07   CLI$K_VERB_IF  = 0000001B            CLI$_IVPROT    = 00038070
CLI$K_COPY_EXTE  ********   X   07   CLI$K_VERB_INIT= 0000001C            CLI$_IVQLOC    = 00038078
CLI$K_COPY_FILE  ********   X   07   CLI$K_VERB_INQU= 0000001D            CLI$_IVSYMB    = 00038080
CLI$K_COPY_LOG   ********   X   07   CLI$K_VERB_LIBR= 00000034            CLI$_IVVALU    = 00038088
CLI$K_COPY_NEW_  ********   X   07   CLI$K_VERB_LINK= 0000001E            CLI$_IVVERB    = 00038090
CLI$K_COPY_OVER  ********   X   07   CLI$K_VERB_LOGO= 0000001F            CLI$_MAXPARM   = 00038098
CLI$K_COPY_PROT  ********   X   07   CLI$K_VERB_MACR= 00000020            CLI$_MULKEY    = 000381A0
CLI$K_COPY_READ  ********   X   07   CLI$K_VERB_MCR = 00000021            CLI$_NOATFIL   = 000380A0
CLI$K_COPY_REPL  ********   X   07   CLI$K_VERB_MOUN= 0000002B            CLI$_NOCCAT    = 000380A8
CLI$K_COPY_TRUN  ********   X   07   CLI$K_VERB_ON  = 00000022            CLI$_NOCOMD    = 000380B0
CLI$K_COPY_WRIT  ********   X   07   CLI$K_VERB_PATC= 0000002C            CLI$_NOKEYW    = 000380B8
CLI$K_DEAL_ALL   ********   X   07   CLI$K_VERB_PRIN= 00000023            CLI$_NOLIST    = 000380C0
CLI$K_DELE_BEFO  ********   X   07   CLI$K_VERB_PURG= 00000031            CLI$_NOOPTPRS  = 00038842
CLI$K_DELE_CONF  ********   X   07   CLI$K_VERB_RENA= 00000032            CLI$_NOQUAL    = 000380C8
CLI$K_DELE_CREA  ********   X   07   CLI$K_VERB_REPL= 0000002D            CLI$_NORMAL    = 00030001
CLI$K_DELE_ENTR  ********   X   07   CLI$K_VERB_REQU= 00000036            CLI$_NOTNEG    = 000380D8
MCRDBAS1        - MCR COMMAND DATA BASE MODULE 1                 22-AUG-1978 01:29:58   VAX-11 MACRO X0.3-11               Page  20
SYMBOL TABLE                                                                                                                     (1)

CLI$_NOVALU    = 000380D0            IMG_K_ANALYZ     ********   X   07   QUA_K_CODE       ********   X   07
CLI$_NOVALUE   = 0003882A            IMG_K_ASSIGN     ********   X   07   QUA_K_COLU       ********   X   07
CLI$_NULFIL    = 000380E0            IMG_K_BACKTRANS  ********   X   07   QUA_K_CONC       ********   X   07
CLI$_NUMBER    = 000380E8            IMG_K_BLISS32    ********   X   07   QUA_K_CONT       ********   X   07
CLI$_ONCOMD    = 000380F0            IMG_K_CANCEL     ********   X   07   QUA_K_CREA       ********   X   07
CLI$_ONERR     = 000380F8            IMG_K_CONTINUE   ********   X   07   QUA_K_DEBU       ********   X   07
CLI$_ONEVAL    = 00038158            IMG_K_COPY       ********   X   07   QUA_K_ENTR       ********   X   07
CLI$_ONLEVL    = 00038100            IMG_K_DEALLOCAT  ********   X   07   QUA_K_EXTE       ********   X   07
CLI$_ONOVF     = 00038108            IMG_K_DEBUG      ********   X   07   QUA_K_FILE       ********   X   07
CLI$_OVRFLW    = 00038160            IMG_K_DELETE     ********   X   07   QUA_K_FULL       ********   X   07
CLI$_PARMDEL   = 00038110            IMG_K_DEPOSIT    ********   X   07   QUA_K_GROU       ********   X   07
CLI$_PROC_ID   = 0003FFF1            IMG_K_DISMOUNT   ********   X   07   QUA_K_IDEN       ********   X   07
CLI$_QUEJOBCRE = 0003FFF9            IMG_K_LOGOUT     ********   X   07   QUA_K_INTE       ********   X   07
CLI$_REQPRMABS = 00038812            IMG_K_QUEMAN     ********   X   07   QUA_K_LIBR       ********   X   07
CLI$_RSLOVF    = 00038118            MCR$AB_VERBEND   00000000 RG    04   QUA_K_LIST       ********   X   07
CLI$_SKPDAT    = 00038120            MCR$AB_VERBTBL   00000000 RG    03   QUA_K_LOG        ********   X   07
CLI$_SPARE0    = 00038010            MCR$AW_COMDEND   00000000 RG    06   QUA_K_MACH       ********   X   07
CLI$_SPARE1    = 00038058            MCR$AW_COMDPTR   00000000 RG    05   QUA_K_MAXI       ********   X   07
CLI$_STKOVF    = 00038128            MCR$G_EXAMQUALS  ********   X   07   QUA_K_NEW_       ********   X   07
CLI$_SUBMITERR = 00038852            OPI_K_MCRUTLIST= FFFFFFFF            QUA_K_OBJE       ********   X   07
CLI$_SYMDEL    = 00038130            PRO_B_FLAGS      00000001            QUA_K_OPTI       ********   X   07
CLI$_SYMOVF    = 00038138            PRO_B_PROMPT     00000000            QUA_K_OUTP       ********   X   07
CLI$_UNDFIL    = 00038188            PRO_K_LENGTH     00000002            QUA_K_OVER       ********   X   07
CLI$_UNDSYM    = 00038140            PRO_M_CONCAT   = 00000001            QUA_K_PRIN       ********   X   07
CLI$_UNPROPARM = 00038170            PRO_M_IMPCAT   = 00000002            QUA_K_PROT       ********   X   07
CLI$_UNPROQUAL = 00038168            PRO_M_LIST     = 00000004            QUA_K_QUEU       ********   X   07
CLI$_USGOTO    = 00038148            PRO_M_OPTION   = 00000008            QUA_K_QUIC       ********   X   07
CLI$_VALCNVERR = 00038832            PRO_M_REQ      = 00000010            QUA_K_READ       ********   X   07
CLI$_VALREQ    = 00038150            PRO_M_STRING   = 00000020            QUA_K_REPL       ********   X   07
CMD_AB_PAROUT    00000005            PRO_V_CONCAT   = 00000000            QUA_K_SOUR       ********   X   07
CMD_B_DEFIMG     00000002            PRO_V_IMPCAT   = 00000001            QUA_K_TERM       ********   X   07
CMD_B_FLAGS      00000004            PRO_V_LIST     = 00000002            QUA_K_TRAC       ********   X   07
CMD_B_PARMCNT    00000001            PRO_V_OPTION   = 00000003            QUA_K_TRUN       ********   X   07
CMD_B_QUABLK     00000003            PRO_V_REQ      = 00000004            QUA_K_UNLO       ********   X   07
CMD_B_VERBTYP    00000000            PRO_V_STRING   = 00000005            QUA_K_VARI       ********   X   07
CMD_M_ABREV    = 00000020            QUA_B_CODE       00000001            QUA_K_WRIT       ********   X   07
CMD_M_DEFQUAL  = 00000010            QUA_B_DEFVAL     00000003            QUA_M_BATDEF   = 00000100
CMD_M_DEVNAM   = 00000080            QUA_B_IMAGE      00000006            QUA_M_CHNGLIST = 00000001
CMD_M_IMMED    = 00000002            QUA_B_INDEX      00000002            QUA_M_DEFTRUE  = 00000080
CMD_M_NOEQL    = 00000040            QUA_B_OFFSET     00000000            QUA_M_FILE     = 00000004
CMD_M_NOSTAT   = 00000008            QUA_B_PARMCNT    00000009            QUA_M_IMAGE    = 00000400
CMD_M_OPTION   = 00000001            QUA_G_ANAL       0000000C R     07   QUA_M_INTDEF   = 00000200
CMD_M_PAROUT   = 00000004            QUA_G_APPE       00000055 R     07   QUA_M_KEYVAL   = 00004000
CMD_S_MAXPARM  = 00000004            QUA_G_ASN        0000009C R     07   QUA_M_LOCALKEY = 00000002
CMD_S_MINPARM  = 00000004            QUA_G_BLIS       000000B9 R     07   QUA_M_NEG      = 00000040
CMD_V_ABREV    = 00000005            QUA_G_CANC       00000173 R     07   QUA_M_ONEVAL   = 00002000
CMD_V_DEFQUAL  = 00000004            QUA_G_CHNGLST    00000007            QUA_M_OUTPUT   = 00000800
CMD_V_DEVNAM   = 00000007            QUA_G_COPY       00000180 R     07   QUA_M_PARM     = 00000010
CMD_V_IMMED    = 00000001            QUA_G_DEAL       000001E0 R     07   QUA_M_VAL      = 00000020
CMD_V_MAXPARM  = 00000004            QUA_G_DELE       000001F4 R     07   QUA_M_VALREQ   = 00001000
CMD_V_MINPARM  = 00000000            QUA_G_DEPO       000001D9 R     07   QUA_M_VERB     = 00000008
CMD_V_NOEQL    = 00000006            QUA_G_DIRE       0000024D R     07   QUA_S_MAXPARM  = 00000004
CMD_V_NOSTAT   = 00000003            QUA_G_DMOU       00000270 R     07   QUA_S_MINPARM  = 00000004
CMD_V_OPTION   = 00000000            QUA_K_ALIG       ********   X   07   QUA_V_BATDEF   = 00000008
CMD_V_PAROUT   = 00000002            QUA_K_ALL        ********   X   07   QUA_V_CHNGLIST = 00000000
GBL...         = 00000000            QUA_K_ALLO       ********   X   07   QUA_V_DEFTRUE  = 00000007
IMG_K_ALLOCATE   ********   X   07   QUA_K_BRIE       ********   X   07   QUA_V_FILE     = 00000002
MCRDBAS1        - MCR COMMAND DATA BASE MODULE 1                 22-AUG-1978 01:29:58   VAX-11 MACRO X0.3-11               Page  21
SYMBOL TABLE                                                                                                                     (1)

QUA_V_IMAGE    = 0000000A
QUA_V_INTDEF   = 00000009
QUA_V_KEYVAL   = 0000000E
QUA_V_LOCALKEY = 00000001
QUA_V_MAXPARM  = 00000004
QUA_V_MINPARM  = 00000000
QUA_V_NEG      = 00000006
QUA_V_ONEVAL   = 0000000D
QUA_V_OUTPUT   = 0000000B
QUA_V_PARM     = 00000004
QUA_V_VAL      = 00000005
QUA_V_VALREQ   = 0000000C
QUA_V_VERB     = 00000003
QUA_W_FLAGS      00000004
QUA_W_QUALIST    00000007
VERB_G_ALLO      00000000 R     07
VERB_G_ANAL      00000005 R     07
VERB_G_APPE      0000004E R     07
VERB_G_ASN       00000097 R     07
VERB_G_BLIS      000000B2 R     07
VERB_G_BYE       00000164 R     07
VERB_G_CANC      0000016E R     07
VERB_G_CONT      00000169 R     07
VERB_G_COPY      00000179 R     07
VERB_G_DEAL      000001DB R     07
VERB_G_DEBU      000001EA R     07
VERB_G_DELE      000001EF R     07
VERB_G_DEPO      000001D4 R     07
VERB_G_DIRE      00000246 R     07
VERB_G_DMOU      0000026B R     07


PROGRAM SECTION SYNOPSIS

.  ABS  .        00000000      00     NOPIC   USR   CON   ABS   LCL NOSHR NOEXE NORD  NOWRT BYTE
. BLANK .        00000000      01     NOPIC   USR   CON   REL   LCL NOSHR   EXE   RD    WRT BYTE
$ABS$            0000000A      02     NOPIC   USR   CON   ABS   LCL NOSHR   EXE   RD    WRT BYTE
MCR$VERBTBL      0000003C      03     NOPIC   USR   CON   REL   LCL NOSHR   EXE   RD  NOWRT BYTE
MCR$VERBTBM      00000000      04     NOPIC   USR   CON   REL   LCL NOSHR   EXE   RD  NOWRT BYTE
MCR$COMDPTR      0000001E      05     NOPIC   USR   CON   REL   LCL NOSHR   EXE   RD  NOWRT BYTE
MCR$COMDPTS      00000000      06     NOPIC   USR   CON   REL   LCL NOSHR   EXE   RD  NOWRT BYTE
MCR$CMDATA       00000276      07     NOPIC   USR   CON   REL   LCL NOSHR   EXE   RD  NOWRT BYTE


THERE WERE NO ERRORS OR WARNINGS.
11940. BYTES LEFT IN FREE MEMORY POOL.
492. BYTES OF RECLAIMED MEMORY.
OBJ$:MCRDBAS1,LIS$:MCRDBAS1/-SP=EXECML$/ML,LIB$:MCR/ML,SRC$:MCRDBAS1
27 MLB DIR RDS - 635 GETS TO DEFINE 32 MACROS. 139 INTER. FILE WRITES.
