MCRDBAS2        - MCR COMMAND DATA BASE MODULE 2                 22-AUG-1978 01:31:13   VAX-11 MACRO X0.3-11               Page   0
TABLE OF CONTENTS

   (1)      44  DEFINE MCR COMMANDS
MCRDBAS2        - MCR COMMAND DATA BASE MODULE 2                 22-AUG-1978 01:31:13   VAX-11 MACRO X0.3-11               Page   1
01                                                                                                                               (1)

                                     0000     1 	.TITLE	MCRDBAS2 - MCR COMMAND DATA BASE MODULE 2
                                     0000     2 	.IDENT	/01/
                                     0000     3
                                     0000     4 ;
                                     0000     5 ; COPYRIGHT (C) 1977, 1978
                                     0000     6 ; DIGITAL EQUIPMENT CORPORATION, MAYNARD, MASSACHUSETTS 01754
                                     0000     7 ;
                                     0000     8 ; THIS SOFTWARE IS FURNISHED  UNDER A LICENSE FOR USE ONLY ON A SINGLE
                                     0000     9 ; COMPUTER  SYSTEM AND  MAY BE  COPIED ONLY WITH  THE INCLUSION OF THE
                                     0000    10 ; ABOVE COPYRIGHT NOTICE.  THIS SOFTWARE, OR ANY OTHER COPIES THEREOF,
                                     0000    11 ; MAY NOT BE PROVIDED OR  OTHERWISE MADE AVAILABLE TO ANY OTHER PERSON
                                     0000    12 ; EXCEPT FOR USE ON SUCH SYSTEM AND TO ONE WHO AGREES TO THESE LICENSE
                                     0000    13 ; TERMS.  TITLE TO AND  OWNERSHIP OF THE  SOFTWARE  SHALL AT ALL TIMES
                                     0000    14 ; REMAIN IN DEC.
                                     0000    15 ;
                                     0000    16 ; THE INFORMATION IN THIS SOFTWARE IS SUBJECT TO CHANGE WITHOUT NOTICE
                                     0000    17 ; AND SHOULD  NOT BE CONSTRUED  AS A COMMITMENT  BY DIGITAL  EQUIPMENT
                                     0000    18 ; CORPORATION.
                                     0000    19 ;
                                     0000    20 ; DEC ASSUMES  NO  RESPONSIBILITY  FOR  THE USE OR  RELIABILITY OF ITS
                                     0000    21 ; SOFTWARE ON EQUIPMENT WHICH IS NOT SUPPLIED BY DEC.
                                     0000    22 ;
                                     0000    23 ; W. H. BROWN 7-DEC-1977
                                     0000    24 ;
                                     0000    25 ; MCR COMMAND INTERPRETER DATA BASE
                                     0000    26 ;
                                     0000    27 ; MACRO LIBRARY CALLS
                                     0000    28 ;
                                     0000    29
                                     0000    30 	$CLIVERBDEF			; DEFINE GENERIC VERB TYPES
                                     0000    31 	DEFERRCOD			; DEFINE ERROR/STATUS VALUES
                                     0000    32 	DEFOPIMCR			; MCR OUTPUT RESULT PARSE INDIACTORS
                                     0000    33
                                     0000    34 ;
                                     0000    35 ; LOCAL MACROS
                                     0000    36
                                     0000    37 ;
                                     0000    38 ; LOCAL SYMBOLS
                                     0000    39 ;
                                     0000    40
                                     0000    41
                                     0000    42 	.LIST	MEB
MCRDBAS2        - MCR COMMAND DATA BASE MODULE 2                 22-AUG-1978 01:31:13   VAX-11 MACRO X0.3-11               Page   2
01              DEFINE MCR COMMANDS                                                                                              (1)

                                     0000    44 	.SBTTL	DEFINE MCR COMMANDS
                                     0000    45
                                     0000    46 ;
                                     0000    47 ; EXAMINE MUST BE FIRST INORDER TO PREMIT ABBREVIATION TO "E"
                                     0000    48 ;
                                     0000    49 	DEFCMD	EXAM,-			; DEFINE EXAMINE COMMAND
                                     0000    50 		QUAL  =YES,-		; YES QUALIFIERS ALLOWED
                                     0000    51 		DEFIMG=EXAMINE,-	; DEFAULT IMAGE OR ROUTINE NAME
                                     0000    52 		FLAGS =<IMMED,ABREV>	; COMMAND PROCESSING FLAGS
                                     0000       	.SAVE
                                 00000000       	.PSECT	$ABS$,ABS
                                     0000       CMD_B_VERBTYP:
                           00000001  0000       	.BLKB	1
                                     0001       CMD_B_PARMCNT:
                           00000002  0001       	.BLKB	1
                                     0002       CMD_B_DEFIMG:
                           00000003  0002       	.BLKB	1
                                     0003       CMD_B_QUABLK:
                           00000004  0003       	.BLKB	1
                                     0004       CMD_B_FLAGS:
                           00000005  0004       	.BLKB	1
                                     0005       CMD_AB_PAROUT:
                           00000006  0005       	.BLKB	1
                                     0000       	.RESTORE
                                     0000       	.SAVE
                                 00000006       	.PSECT	$ABS$,ABS
                           00000000  0006       	.=0
                                     0000       PRO_B_PROMPT:
                           00000001  0000       	.BLKB	1
                                     0001       PRO_B_FLAGS:
                           00000002  0001       	.BLKB	1
                                     0002       PRO_K_LENGTH:
                                     0000       	.RESTORE
                                     0000       	.LIST
                                 00000000       	.PSECT	MCR$VERBTBL,BYTE,RD,NOWRT
                                 C5  0000       	.BYTE	^A/E/!$XX$
                                 58  0001       	.BYTE	^A/X/!$XX$
                                 41  0002       	.BYTE	^A/A/!$XX$
                                 4D  0003       	.BYTE	^A/M/!$XX$
                                     0004       	.LIST
                                 00000000       	.PSECT	MCR$COMDPTR,BYTE,RD,NOWRT
                               FFFE' 0000       	.WORD	VERB_G_EXAM-.-2
                                     0002       	.LIST
                                 00000000       	.PSECT	MCR$CMDATA,BYTE,RD,NOWRT
                                     0000       VERB_G_EXAM:
                                 16  0000       	.BYTE	CLI$K_VERB_EXAM
                                 F0  0001       	.BYTE	15*16!0
                                 00' 0002       	.BYTE	IMG_K_EXAMINE
                                 01' 0003       	.BYTE	QUA_G_EXAM-.-1
                                 22  0004       	.BYTE	$$$
                                     0005       	.SAVE
                                 00000006       	.PSECT	$ABS$,ABS
                           00000000  0006       	.=0
                                     0000       QUA_B_OFFSET:
                           00000001  0000       	.BLKB	1
                                     0001       QUA_B_CODE:
                           00000002  0001       	.BLKB	1
MCRDBAS2        - MCR COMMAND DATA BASE MODULE 2                 22-AUG-1978 01:31:13   VAX-11 MACRO X0.3-11               Page   3
01              DEFINE MCR COMMANDS                                                                                              (1)

                                     0002       QUA_B_INDEX:
                           00000003  0002       	.BLKB	1
                                     0003       QUA_B_DEFVAL:
                           00000004  0003       	.BLKB	1
                                     0004       QUA_W_FLAGS:
                           00000006  0004       	.BLKW	1
                                     0006       QUA_B_IMAGE:
                           00000007  0006       	.BLKB	1
                                     0007       QUA_G_CHNGLST:
                                     0007       QUA_W_QUALIST:
                           00000009  0007       	.BLKW	1
                                     0009       QUA_B_PARMCNT:
                           0000000A  0009       	.BLKB	1
                                 00000005       	.RESTORE
                                     0005       	.SAVE
                                 00000005       	.PSECT	MCR$CMDATA,BYTE,RD,NOWRT
                                     0005       QUA_G_EXAM:
                                     0005       .IIF NB	<GBLTAG>,MCR$G_EXAMQUALS::
                                 06' 0005       30001$:	.BYTE	30004$-30001$
                                 00' 0006       	.BYTE	CLI$K_EXAM_ASCI
                                 00' 0007       	.BYTE	QUA_K_ASCI
                                 00  0008       	.IIF B <>,	.BYTE	0
                               0008  0009       	.WORD	$$$
                                     000B       30004$:
                                 06' 000B       30005$:	.BYTE	30008$-30005$
                                 00' 000C       	.BYTE	CLI$K_EXAM_BYTE
                                 00' 000D       	.BYTE	QUA_K_BYTE
                                 00  000E       	.IIF B <>,	.BYTE	0
                               0008  000F       	.WORD	$$$
                                     0011       30008$:
                                 06' 0011       30009$:	.BYTE	30012$-30009$
                                 00' 0012       	.BYTE	CLI$K_EXAM_DECI
                                 00' 0013       	.BYTE	QUA_K_DECI
                                 00  0014       	.IIF B <>,	.BYTE	0
                               0008  0015       	.WORD	$$$
                                     0017       30012$:
                                 06' 0017       30013$:	.BYTE	30016$-30013$
                                 00' 0018       	.BYTE	CLI$K_EXAM_HEXA
                                 00' 0019       	.BYTE	QUA_K_HEXA
                                 00  001A       	.IIF B <>,	.BYTE	0
                               0008  001B       	.WORD	$$$
                                     001D       30016$:
                                 06' 001D       30017$:	.BYTE	30020$-30017$
                                 00' 001E       	.BYTE	CLI$K_EXAM_LONG
                                 00' 001F       	.BYTE	QUA_K_LONG
                                 00  0020       	.IIF B <>,	.BYTE	0
                               0008  0021       	.WORD	$$$
                                     0023       30020$:
                                 06' 0023       30021$:	.BYTE	30024$-30021$
                                 00' 0024       	.BYTE	CLI$K_EXAM_OCTA
                                 00' 0025       	.BYTE	QUA_K_OCTA
                                 00  0026       	.IIF B <>,	.BYTE	0
                               0008  0027       	.WORD	$$$
                                     0029       30024$:
                                 06' 0029       30025$:	.BYTE	30028$-30025$
                                 00' 002A       	.BYTE	CLI$K_EXAM_WORD
                                 00' 002B       	.BYTE	QUA_K_WORD
MCRDBAS2        - MCR COMMAND DATA BASE MODULE 2                 22-AUG-1978 01:31:13   VAX-11 MACRO X0.3-11               Page   4
01              DEFINE MCR COMMANDS                                                                                              (1)

                                 00  002C       	.IIF B <>,	.BYTE	0
                               0008  002D       	.WORD	$$$
                                     002F       30028$:
                           00000029  002F       .=$QUALBLK$
                                 00  0029       	.BYTE	0
                                 00000005       	.RESTORE
                                     0005    53
                                     0005    54
                                     0005    55 	DEFCMD	EXIT,-			; DEFINE EXIT COMMAND
                                     0005    56 		QUAL  =NO,-		; NO QUALIFIERS ALLOWED
                                     0005    57 		DEFIMG=EXIT,-		; DEFAULT IMAGE OR ROUTINE NAME
                                     0005    58 		FLAGS =<IMMED,NOSTAT>	; COMMAND PROCESSING FLAGS
                                     0005       	.LIST
                                 00000004       	.PSECT	MCR$VERBTBL,BYTE,RD,NOWRT
                                 C5  0004       	.BYTE	^A/E/!$XX$
                                 58  0005       	.BYTE	^A/X/!$XX$
                                 49  0006       	.BYTE	^A/I/!$XX$
                                 54  0007       	.BYTE	^A/T/!$XX$
                                     0008       	.LIST
                                 00000002       	.PSECT	MCR$COMDPTR,BYTE,RD,NOWRT
                               002B' 0002       	.WORD	VERB_G_EXIT-.-2
                                     0004       	.LIST
                                 0000002F       	.PSECT	MCR$CMDATA,BYTE,RD,NOWRT
                                     002F       VERB_G_EXIT:
                                 17  002F       	.BYTE	CLI$K_VERB_EXIT
                                 F0  0030       	.BYTE	15*16!0
                                 00' 0031       	.BYTE	IMG_K_EXIT
                                 00  0032       	.BYTE	0
                                 0A  0033       	.BYTE	$$$
                                     0034    59
                                     0034    60 	DEFCMD	INIT,-			; DEFINE INITIALIZE COMMAND
                                     0034    61 		QUAL=YES,-		; COMMAND HAS QUALIFIERS
                                     0034    62 		MINPRM=2,-		; MINIMUM PARAMETER COUNT
                                     0034    63 		MAXPRM=2,-		; MAXIMUM PARAMATER COUNT
                                     0034    64 		FLAGS=DEVNAM,-		; FIRST PARAMETER IS A DEVICE NAME
                                     0034    65 		DEFIMG=INIT		; IMAGE TO RUN
                                     0034       	.LIST
                                 00000008       	.PSECT	MCR$VERBTBL,BYTE,RD,NOWRT
                                 C9  0008       	.BYTE	^A/I/!$XX$
                                 4E  0009       	.BYTE	^A/N/!$XX$
                                 49  000A       	.BYTE	^A/I/!$XX$
                                 54  000B       	.BYTE	^A/T/!$XX$
                                     000C       	.LIST
                                 00000004       	.PSECT	MCR$COMDPTR,BYTE,RD,NOWRT
                               002E' 0004       	.WORD	VERB_G_INIT-.-2
                                     0006       	.LIST
                                 00000034       	.PSECT	MCR$CMDATA,BYTE,RD,NOWRT
                                     0034       VERB_G_INIT:
                                 1C  0034       	.BYTE	CLI$K_VERB_INIT
                                 22  0035       	.BYTE	2*16!2
                                 00' 0036       	.BYTE	IMG_K_INIT
                                 01' 0037       	.BYTE	QUA_G_INIT-.-1
                                 80  0038       	.BYTE	$$$
                                     0039       	.SAVE
                                 00000039       	.PSECT	MCR$CMDATA,BYTE,RD,NOWRT
                                     0039       QUA_G_INIT:
                                 06' 0039       30031$:	.BYTE	30034$-30031$
MCRDBAS2        - MCR COMMAND DATA BASE MODULE 2                 22-AUG-1978 01:31:13   VAX-11 MACRO X0.3-11               Page   5
01              DEFINE MCR COMMANDS                                                                                              (1)

                                 00' 003A       	.BYTE	CLI$K_INIT_ACCE
                                 00' 003B       	.BYTE	QUA_K_ACCE
                                 00  003C       	.IIF B <>,	.BYTE	0
                               3028  003D       	.WORD	$$$
                                     003F       30034$:
                                 06' 003F       30035$:	.BYTE	30038$-30035$
                                 00' 0040       	.BYTE	CLI$K_INIT_BADB
                                 00' 0041       	.BYTE	QUA_K_BADB
                                 00  0042       	.IIF B <>,	.BYTE	0
                               1028  0043       	.WORD	$$$
                                     0045       30038$:
                                 07' 0045       30039$:	.BYTE	30042$-30039$
                                 00' 0046       	.BYTE	CLI$K_INIT_BATC
                                 00' 0047       	.BYTE	QUA_K_BATC
                                 00  0048       	.IIF B <>,	.BYTE	0
                               0448  0049       	.WORD	$$$
                                 00' 004B       	.BYTE	IMG_K_QUEMAN
                                     004C       30042$:
                                 07' 004C       30043$:	.BYTE	30046$-30043$
                                 00' 004D       	.BYTE	CLI$K_INIT_BURS
                                 00' 004E       	.BYTE	QUA_K_BURS
                                 00  004F       	.IIF B <>,	.BYTE	0
                               0448  0050       	.WORD	$$$
                                 00' 0052       	.BYTE	IMG_K_QUEMAN
                                     0053       30046$:
                                 06' 0053       30047$:	.BYTE	30050$-30047$
                                 00' 0054       	.BYTE	CLI$K_INIT_DENS
                                 00' 0055       	.BYTE	QUA_K_DENS
                                 00  0056       	.IIF B <>,	.BYTE	0
                               3028  0057       	.WORD	$$$
                                     0059       30050$:
                                 0C' 0059       30051$:	.BYTE	30054$-30051$
                                 00' 005A       	.BYTE	CLI$K_INIT_STRU
                                 08' 005B       	.BYTE	<30053$-30051$>
                                 06' 005C       	.IIF NB	<1>,	.BYTE	30052$-30051$
                               30AA  005D       	.WORD	$$$
                              31 00' 005F       30052$:	.ASCIC	\1\
                                 01  005F
                        55 52 54 53  0061       30053$:	.ASCII	\STRU\
                                     0065       30054$:
                                 07' 0065       30055$:	.BYTE	30058$-30055$
                                 00' 0066       	.BYTE	CLI$K_INIT_ENAB
                                 00' 0067       	.BYTE	QUA_K_ENAB
                                 00  0068       	.IIF B <>,	.BYTE	0
                               0448  0069       	.WORD	$$$
                                 00' 006B       	.BYTE	IMG_K_QUEMAN
                                     006C       30058$:
                                 06' 006C       30059$:	.BYTE	30062$-30059$
                                 00' 006D       	.BYTE	CLI$K_INIT_EXTE
                                 00' 006E       	.BYTE	QUA_K_EXTE
                                 00  006F       	.IIF B <>,	.BYTE	0
                               3028  0070       	.WORD	$$$
                                     0072       30062$:
                                 06' 0072       30063$:	.BYTE	30066$-30063$
                                 00' 0073       	.BYTE	CLI$K_INIT_FILE
                                 00' 0074       	.BYTE	QUA_K_FILE
                                 00  0075       	.IIF B <>,	.BYTE	0
MCRDBAS2        - MCR COMMAND DATA BASE MODULE 2                 22-AUG-1978 01:31:13   VAX-11 MACRO X0.3-11               Page   6
01              DEFINE MCR COMMANDS                                                                                              (1)

                               1028  0076       	.WORD	$$$
                                     0078       30066$:
                                 07' 0078       30067$:	.BYTE	30070$-30067$
                                 00' 0079       	.BYTE	CLI$K_INIT_FLAG
                                 00' 007A       	.BYTE	QUA_K_FLAG
                                 00  007B       	.IIF B <>,	.BYTE	0
                               0448  007C       	.WORD	$$$
                                 00' 007E       	.BYTE	IMG_K_QUEMAN
                                     007F       30070$:
                                 07' 007F       30071$:	.BYTE	30074$-30071$
                                 00' 0080       	.BYTE	CLI$K_INIT_FORM
                                 00' 0081       	.BYTE	QUA_K_FORM
                                 00  0082       	.IIF B <>,	.BYTE	0
                               3468  0083       	.WORD	$$$
                                 00' 0085       	.BYTE	IMG_K_QUEMAN
                                     0086       30074$:
                                 07' 0086       30075$:	.BYTE	30078$-30075$
                                 00' 0087       	.BYTE	CLI$K_INIT_GENE
                                 00' 0088       	.BYTE	QUA_K_GENE
                                 00  0089       	.IIF B <>,	.BYTE	0
                               0448  008A       	.WORD	$$$
                                 00' 008C       	.BYTE	IMG_K_QUEMAN
                                     008D       30078$:
                                 06' 008D       30079$:	.BYTE	30082$-30079$
                                 00' 008E       	.BYTE	CLI$K_INIT_HEAD
                                 00' 008F       	.BYTE	QUA_K_HEAD
                                 00  0090       	.IIF B <>,	.BYTE	0
                               3028  0091       	.WORD	$$$
                                     0093       30082$:
                                 06' 0093       30083$:	.BYTE	30086$-30083$
                                 00' 0094       	.BYTE	CLI$K_INIT_INDE
                                 00' 0095       	.BYTE	QUA_K_INDE
                                 00  0096       	.IIF B <>,	.BYTE	0
                               3028  0097       	.WORD	$$$
                                     0099       30086$:
                                 07' 0099       30087$:	.BYTE	30090$-30087$
                                 00' 009A       	.BYTE	CLI$K_INIT_JOB_
                                 00' 009B       	.BYTE	QUA_K_JOB_
                                 00  009C       	.IIF B <>,	.BYTE	0
                               3428  009D       	.WORD	$$$
                                 00' 009F       	.BYTE	IMG_K_QUEMAN
                                     00A0       30090$:
                                 06' 00A0       30091$:	.BYTE	30094$-30091$
                                 00' 00A1       	.BYTE	CLI$K_INIT_OWNE
                                 00' 00A2       	.BYTE	QUA_K_OWNE
                                 00  00A3       	.IIF B <>,	.BYTE	0
                               102C  00A4       	.WORD	$$$
                                     00A6       30094$:
                                 07' 00A6       30095$:	.BYTE	30098$-30095$
                                 00' 00A7       	.BYTE	CLI$K_INIT_PRIO
                                 00' 00A8       	.BYTE	QUA_K_PRIO
                                 00  00A9       	.IIF B <>,	.BYTE	0
                               3428  00AA       	.WORD	$$$
                                 00' 00AC       	.BYTE	IMG_K_QUEMAN
                                     00AD       30098$:
                                 06' 00AD       30099$:	.BYTE	30102$-30099$
                                 00' 00AE       	.BYTE	CLI$K_INIT_PROT
MCRDBAS2        - MCR COMMAND DATA BASE MODULE 2                 22-AUG-1978 01:31:13   VAX-11 MACRO X0.3-11               Page   7
01              DEFINE MCR COMMANDS                                                                                              (1)

                                 00' 00AF       	.BYTE	QUA_K_PROT
                                 00  00B0       	.IIF B <>,	.BYTE	0
                               1028  00B1       	.WORD	$$$
                                     00B3       30102$:
                                 0A' 00B3       30103$:	.BYTE	30106$-30103$
                                 00' 00B4       	.BYTE	CLI$K_INIT_QUEU
                                 00' 00B5       	.BYTE	QUA_K_QUEU
                                 00  00B6       	.IIF B <>,	.BYTE	0
                               0449  00B7       	.WORD	$$$
                                 00' 00B9       	.BYTE	IMG_K_QUEMAN
                               0000  00BA       	.WORD	0
                                 11  00BC       	.BYTE	1*16+1
                                     00BD       30106$:
                                 07' 00BD       30108$:	.BYTE	30111$-30108$
                                 00' 00BE       	.BYTE	CLI$K_INIT_DISA
                                 00' 00BF       	.BYTE	QUA_K_DISA
                                 00  00C0       	.IIF B <>,	.BYTE	0
                               0448  00C1       	.WORD	$$$
                                 00' 00C3       	.BYTE	IMG_K_QUEMAN
                                     00C4       30111$:
                                 07' 00C4       30112$:	.BYTE	30115$-30112$
                                 00' 00C5       	.BYTE	CLI$K_INIT_TERM
                                 00' 00C6       	.BYTE	QUA_K_TERM
                                 00  00C7       	.IIF B <>,	.BYTE	0
                               0448  00C8       	.WORD	$$$
                                 00' 00CA       	.BYTE	IMG_K_QUEMAN
                                     00CB       30115$:
                                 06' 00CB       30116$:	.BYTE	30119$-30116$
                                 00' 00CC       	.BYTE	CLI$K_INIT_WIND
                                 00' 00CD       	.BYTE	QUA_K_WIND
                                 00  00CE       	.IIF B <>,	.BYTE	0
                               3028  00CF       	.WORD	$$$
                                     00D1       30119$:
                                 06' 00D1       30120$:	.BYTE	30123$-30120$
                                 00' 00D2       	.BYTE	CLI$K_INIT_MAXI
                                 00' 00D3       	.BYTE	QUA_K_MAXI
                                 00  00D4       	.IIF B <>,	.BYTE	0
                               3028  00D5       	.WORD	$$$
                                     00D7       30123$:
                                 06' 00D7       30124$:	.BYTE	30127$-30124$
                                 00' 00D8       	.BYTE	CLI$K_INIT_CLUS
                                 00' 00D9       	.BYTE	QUA_K_CLUS
                                 00  00DA       	.IIF B <>,	.BYTE	0
                               3028  00DB       	.WORD	$$$
                                     00DD       30127$:
                                 06' 00DD       30128$:	.BYTE	30131$-30128$
                                 00' 00DE       	.BYTE	CLI$K_INIT_RECO
                                 00' 00DF       	.BYTE	QUA_K_RECO
                                 00  00E0       	.IIF B <>,	.BYTE	0
                               1028  00E1       	.WORD	$$$
                                     00E3       30131$:
                                 06' 00E3       30132$:	.BYTE	30135$-30132$
                                 00' 00E4       	.BYTE	CLI$K_INIT_DATA
                                 00' 00E5       	.BYTE	QUA_K_DATA
                                 00  00E6       	.IIF B <>,	.BYTE	0
                               0028  00E7       	.WORD	$$$
                                     00E9       30135$:
MCRDBAS2        - MCR COMMAND DATA BASE MODULE 2                 22-AUG-1978 01:31:13   VAX-11 MACRO X0.3-11               Page   8
01              DEFINE MCR COMMANDS                                                                                              (1)

                                 06' 00E9       30136$:	.BYTE	30139$-30136$
                                 00' 00EA       	.BYTE	CLI$K_INIT_VERI
                                 00' 00EB       	.BYTE	QUA_K_VERI
                                 00  00EC       	.IIF B <>,	.BYTE	0
                               00C8  00ED       	.WORD	$$$
                                     00EF       30139$:
                                 06' 00EF       30140$:	.BYTE	30143$-30140$
                                 00' 00F0       	.BYTE	CLI$K_INIT_SHAR
                                 00' 00F1       	.BYTE	QUA_K_SHAR
                                 00  00F2       	.IIF B <>,	.BYTE	0
                               00C8  00F3       	.WORD	$$$
                                     00F5       30143$:
                                 06' 00F5       30144$:	.BYTE	30147$-30144$
                                 00' 00F6       	.BYTE	CLI$K_INIT_GROU
                                 00' 00F7       	.BYTE	QUA_K_GROU
                                 00  00F8       	.IIF B <>,	.BYTE	0
                               0008  00F9       	.WORD	$$$
                                     00FB       30147$:
                                 06' 00FB       30148$:	.BYTE	30151$-30148$
                                 00' 00FC       	.BYTE	CLI$K_INIT_SYST
                                 00' 00FD       	.BYTE	QUA_K_SYST
                                 00  00FE       	.IIF B <>,	.BYTE	0
                               0008  00FF       	.WORD	$$$
                                     0101       30151$:
                                 06' 0101       30152$:	.BYTE	30155$-30152$
                                 00' 0102       	.BYTE	CLI$K_INIT_EBCD
                                 00' 0103       	.BYTE	QUA_K_EBCD
                                 00  0104       	.IIF B <>,	.BYTE	0
                               0008  0105       	.WORD	$$$
                                     0107       30155$:
                                 06' 0107       30156$:	.BYTE	30159$-30156$
                                 00' 0108       	.BYTE	CLI$K_INIT_OVER
                                 00' 0109       	.BYTE	QUA_K_OVER
                                 00  010A       	.IIF B <>,	.BYTE	0
                               1028  010B       	.WORD	$$$
                                     010D       30159$:
                                 06' 010D       30160$:	.BYTE	30163$-30160$
                                 00' 010E       	.BYTE	CLI$K_INIT_USER
                                 00' 010F       	.BYTE	QUA_K_USER
                                 00  0110       	.IIF B <>,	.BYTE	0
                               3028  0111       	.WORD	$$$
                                     0113       30163$:
                                 06' 0113       30164$:	.BYTE	30167$-30164$
                                 00' 0114       	.BYTE	CLI$K_INIT_DIRE
                                 00' 0115       	.BYTE	QUA_K_DIRE
                                 00  0116       	.IIF B <>,	.BYTE	0
                               3028  0117       	.WORD	$$$
                                     0119       30167$:
                           00000113  0119       .=$QUALBLK$
                                 00  0113       	.BYTE	0
                                 00000039       	.RESTORE
                                     0039    66
                                     0039    67 	DEFCMD	LINK,-
                                     0039    68 		QUAL  =YES,-
                                     0039    69 		DEFIMG=LINK,-
                                     0039    70 		MINPRM=2,-		; MINIMUM NUMBER OF PARAMETERS
                                     0039    71 		MAXPRM=2,-		; MAXIMUM NUMBER OF PARAMETERS
MCRDBAS2        - MCR COMMAND DATA BASE MODULE 2                 22-AUG-1978 01:31:13   VAX-11 MACRO X0.3-11               Page   9
01              DEFINE MCR COMMANDS                                                                                              (1)

                                     0039    72 		FLAGS=NOEQL,-		; NO EQAULS FOR QUALIFIER VALUES
                                     0039    73 		OUTPRS=OPI_K_MCRUTLIST	; OUTPUT PARSE ROUTINES
                                     0039       	.LIST
                                 0000000C       	.PSECT	MCR$VERBTBL,BYTE,RD,NOWRT
                                 CC  000C       	.BYTE	^A/L/!$XX$
                                 49  000D       	.BYTE	^A/I/!$XX$
                                 4E  000E       	.BYTE	^A/N/!$XX$
                                 4B  000F       	.BYTE	^A/K/!$XX$
                                     0010       	.LIST
                                 00000006       	.PSECT	MCR$COMDPTR,BYTE,RD,NOWRT
                               0111' 0006       	.WORD	VERB_G_LINK-.-2
                                     0008       	.LIST
                                 00000119       	.PSECT	MCR$CMDATA,BYTE,RD,NOWRT
                                     0119       VERB_G_LINK:
                                 1E  0119       	.BYTE	CLI$K_VERB_LINK
                                 22  011A       	.BYTE	2*16!2
                                 00' 011B       	.BYTE	IMG_K_LINK
                                 03' 011C       	.BYTE	QUA_G_LINK-.-1
                                 44  011D       	.BYTE	$$$
                                 01' 011E       	.BYTE	30168$-.-1
                                 FF' 011F       	.BYTE	OPI_K_MCRUTLIST
                                     0120       30168$:
                                     0120       	.SAVE
                                 00000120       	.PSECT	MCR$CMDATA,BYTE,RD,NOWRT
                                     0120       QUA_G_LINK:
                                 06' 0120       30169$:	.BYTE	30172$-30169$
                                 00' 0121       	.BYTE	CLI$K_LINK_BRIE
                                 00' 0122       	.BYTE	QUA_K_BRIE
                                 00  0123       	.IIF B <>,	.BYTE	0
                               0048  0124       	.WORD	$$$
                                     0126       30172$:
                                 06' 0126       30173$:	.BYTE	30176$-30173$
                                 00' 0127       	.BYTE	CLI$K_LINK_CROS
                                 00' 0128       	.BYTE	QUA_K_CROS
                                 00  0129       	.IIF B <>,	.BYTE	0
                               0048  012A       	.WORD	$$$
                                     012C       30176$:
                                 06' 012C       30177$:	.BYTE	30180$-30177$
                                 00' 012D       	.BYTE	CLI$K_LINK_DEBU
                                 00' 012E       	.BYTE	QUA_K_DEBU
                                 00  012F       	.IIF B <>,	.BYTE	0
                               006C  0130       	.WORD	$$$
                                     0132       30180$:
                                 06' 0132       30181$:	.BYTE	30184$-30181$
                                 00' 0133       	.BYTE	CLI$K_LINK_INCL
                                 00' 0134       	.BYTE	QUA_K_INCL
                                 00  0135       	.IIF B <>,	.BYTE	0
                               1030  0136       	.WORD	$$$
                                     0138       30184$:
                                 06' 0138       30185$:	.BYTE	30188$-30185$
                                 00' 0139       	.BYTE	CLI$K_LINK_LIBR
                                 00' 013A       	.BYTE	QUA_K_LIBR
                                 00  013B       	.IIF B <>,	.BYTE	0
                               0010  013C       	.WORD	$$$
                                     013E       30188$:
                                 06' 013E       30189$:	.BYTE	30192$-30189$
                                 00' 013F       	.BYTE	CLI$K_LINK_SHAR
MCRDBAS2        - MCR COMMAND DATA BASE MODULE 2                 22-AUG-1978 01:31:13   VAX-11 MACRO X0.3-11               Page  10
01              DEFINE MCR COMMANDS                                                                                              (1)

                                 00' 0140       	.BYTE	QUA_K_SHAR
                                 00  0141       	.IIF B <>,	.BYTE	0
                               2068  0142       	.WORD	$$$
                                     0144       30192$:
                                 06' 0144       30193$:	.BYTE	30196$-30193$
                                 00' 0145       	.BYTE	CLI$K_LINK_CONT
                                 00' 0146       	.BYTE	QUA_K_CONT
                                 00  0147       	.IIF B <>,	.BYTE	0
                               0048  0148       	.WORD	$$$
                                     014A       30196$:
                                 06' 014A       30197$:	.BYTE	30200$-30197$
                                 00' 014B       	.BYTE	CLI$K_LINK_OPTI
                                 00' 014C       	.BYTE	QUA_K_OPTI
                                 00  014D       	.IIF B <>,	.BYTE	0
                               0050  014E       	.WORD	$$$
                                     0150       30200$:
                                 06' 0150       30201$:	.BYTE	30204$-30201$
                                 00' 0151       	.BYTE	CLI$K_LINK_SELE
                                 00' 0152       	.BYTE	QUA_K_SELE
                                 00  0153       	.IIF B <>,	.BYTE	0
                               0050  0154       	.WORD	$$$
                                     0156       30204$:
                                 06' 0156       30205$:	.BYTE	30208$-30205$
                                 00' 0157       	.BYTE	CLI$K_LINK_SYSL
                                 00' 0158       	.BYTE	QUA_K_SYSL
                                 00  0159       	.IIF B <>,	.BYTE	0
                               00C8  015A       	.WORD	$$$
                                     015C       30208$:
                                 06' 015C       30209$:	.BYTE	30212$-30209$
                                 00' 015D       	.BYTE	CLI$K_LINK_SYST
                                 00' 015E       	.BYTE	QUA_K_SYST
                                 00  015F       	.IIF B <>,	.BYTE	0
                               2068  0160       	.WORD	$$$
                                     0162       30212$:
                                 18' 0162       30213$:	.BYTE	30216$-30213$
                                 00' 0163       	.BYTE	CLI$K_LINK_SUPR
                                 00' 0164       	.BYTE	QUA_K_SUPR
                                 06' 0165       	.IIF NB	<SYSLIB,DEBUG,WEAK>,	.BYTE	30214$-30213$
                               00E8  0166       	.WORD	$$$
55 42 45 44 2C 42 49 4C 53 59 53 00' 0168       30214$:	.ASCIC	\SYSLIB,DEBUG,WEAK\
                  4B 41 45 57 2C 47  0174
                                 11  0168
                                     017A       30216$:
                                 06' 017A       30217$:	.BYTE	30220$-30217$
                                 00' 017B       	.BYTE	CLI$K_LINK_FULL
                                 00' 017C       	.BYTE	QUA_K_FULL
                                 00  017D       	.IIF B <>,	.BYTE	0
                               0048  017E       	.WORD	$$$
                                     0180       30220$:
                                 06' 0180       30221$:	.BYTE	30224$-30221$
                                 00' 0181       	.BYTE	CLI$K_LINK_TRAC
                                 00' 0182       	.BYTE	QUA_K_TRAC
                                 00  0183       	.IIF B <>,	.BYTE	0
                               00C8  0184       	.WORD	$$$
                                     0186       30224$:
                                 0A' 0186       30225$:	.BYTE	30228$-30225$
                                 00' 0187       	.BYTE	CLI$K_LINK_SYSS
MCRDBAS2        - MCR COMMAND DATA BASE MODULE 2                 22-AUG-1978 01:31:13   VAX-11 MACRO X0.3-11               Page  11
01              DEFINE MCR COMMANDS                                                                                              (1)

                                 06' 0188       	.BYTE	<30227$-30225$>
                                 00  0189       	.IIF B <>,	.BYTE	0
                               00CA  018A       	.WORD	$$$
                        53 53 59 53  018C       30227$:	.ASCII	\SYSS\
                                     0190       30228$:
                           00000186  0190       .=$QUALBLK$
                                 00  0186       	.BYTE	0
                                 00000120       	.RESTORE
                                     0120    74
                                     0120    75
                                     0120    76 	DEFCMD	LOGO,-			; DEFINE LOGOUT COMMAND
                                     0120    77 		QUAL  =YES,-		; YES QUALIFIERS ALLOWED
                                     0120    78 		MINPRM=0,-		; MINIMUM NUMBER OF PARAMETERS
                                     0120    79 		MAXPRM=0,-		; MAXIMUM NUMBER OF PARAMETERS
                                     0120    80 		DEFIMG=LOGOUT,-		; DEFAULT IMAGE OR ROUTINE NAME
                                     0120    81
                                     0120       	.LIST
                                 00000010       	.PSECT	MCR$VERBTBL,BYTE,RD,NOWRT
                                 CC  0010       	.BYTE	^A/L/!$XX$
                                 4F  0011       	.BYTE	^A/O/!$XX$
                                 47  0012       	.BYTE	^A/G/!$XX$
                                 4F  0013       	.BYTE	^A/O/!$XX$
                                     0014       	.LIST
                                 00000008       	.PSECT	MCR$COMDPTR,BYTE,RD,NOWRT
                               0186' 0008       	.WORD	VERB_G_LOGO-.-2
                                     000A       	.LIST
                                 00000190       	.PSECT	MCR$CMDATA,BYTE,RD,NOWRT
                                     0190       VERB_G_LOGO:
                                 1F  0190       	.BYTE	CLI$K_VERB_LOGO
                                 00  0191       	.BYTE	0*16!0
                                 00' 0192       	.BYTE	IMG_K_LOGOUT
                                 01' 0193       	.BYTE	QUA_G_LOGO-.-1
                                 00  0194       	.BYTE	$$$
                                     0195       	.SAVE
                                 00000195       	.PSECT	MCR$CMDATA,BYTE,RD,NOWRT
                                     0195       QUA_G_LOGO:
                                 06' 0195       30230$:	.BYTE	30233$-30230$
                                 00' 0196       	.BYTE	CLI$K_LOGO_BRIE
                                 00' 0197       	.BYTE	QUA_K_BRIE
                                 00  0198       	.IIF B <>,	.BYTE	0
                               0008  0199       	.WORD	$$$
                                     019B       30233$:
                                 06' 019B       30234$:	.BYTE	30237$-30234$
                                 00' 019C       	.BYTE	CLI$K_LOGO_FULL
                                 00' 019D       	.BYTE	QUA_K_FULL
                                 00  019E       	.IIF B <>,	.BYTE	0
                               0008  019F       	.WORD	$$$
                                     01A1       30237$:
                           0000019B  01A1       .=$QUALBLK$
                                 00  019B       	.BYTE	0
                                 00000195       	.RESTORE
                                     0195    82 	DEFCMD	MOUN,-			; DEFINE MOUNT COMMAND
                                     0195    83 		QUAL  =YES,-		; YES QUALIFIERS ALLOWED
                                     0195    84 		MINPRM=1,-		; MINIMUM NUMBER OF PARAMETERS
                                     0195    85 		MAXPRM=3,-		; MAXIMUM NUMBER OF PARAMETERS
                                     0195    86 		FLAGS=DEVNAM,-		; FIRST PARAMETER IS A DEVICE NAME
                                     0195    87 		DEFIMG=VMOUNT		; DEFAULT IMAGE OR ROUTINE NAME
MCRDBAS2        - MCR COMMAND DATA BASE MODULE 2                 22-AUG-1978 01:31:13   VAX-11 MACRO X0.3-11               Page  12
01              DEFINE MCR COMMANDS                                                                                              (1)

                                     0195       	.LIST
                                 00000014       	.PSECT	MCR$VERBTBL,BYTE,RD,NOWRT
                                 CD  0014       	.BYTE	^A/M/!$XX$
                                 4F  0015       	.BYTE	^A/O/!$XX$
                                 55  0016       	.BYTE	^A/U/!$XX$
                                 4E  0017       	.BYTE	^A/N/!$XX$
                                     0018       	.LIST
                                 0000000A       	.PSECT	MCR$COMDPTR,BYTE,RD,NOWRT
                               0195' 000A       	.WORD	VERB_G_MOUN-.-2
                                     000C       	.LIST
                                 000001A1       	.PSECT	MCR$CMDATA,BYTE,RD,NOWRT
                                     01A1       VERB_G_MOUN:
                                 2B  01A1       	.BYTE	CLI$K_VERB_MOUN
                                 31  01A2       	.BYTE	3*16!1
                                 00' 01A3       	.BYTE	IMG_K_VMOUNT
                                 01' 01A4       	.BYTE	QUA_G_MOUN-.-1
                                 80  01A5       	.BYTE	$$$
                                     01A6       	.SAVE
                                 000001A6       	.PSECT	MCR$CMDATA,BYTE,RD,NOWRT
                                     01A6       QUA_G_MOUN:
                                 06' 01A6       30239$:	.BYTE	30242$-30239$
                                 00' 01A7       	.BYTE	CLI$K_MOUN_ACCE
                                 00' 01A8       	.BYTE	QUA_K_ACCE
                                 00  01A9       	.IIF B <>,	.BYTE	0
                               3028  01AA       	.WORD	$$$
                                     01AC       30242$:
                                 06' 01AC       30243$:	.BYTE	30246$-30243$
                                 00' 01AD       	.BYTE	CLI$K_MOUN_BLOC
                                 00' 01AE       	.BYTE	QUA_K_BLOC
                                 00  01AF       	.IIF B <>,	.BYTE	0
                               20A8  01B0       	.WORD	$$$
                                     01B2       30246$:
                                 06' 01B2       30247$:	.BYTE	30250$-30247$
                                 00' 01B3       	.BYTE	CLI$K_MOUN_COMM
                                 00' 01B4       	.BYTE	QUA_K_COMM
                                 00  01B5       	.IIF B <>,	.BYTE	0
                               3028  01B6       	.WORD	$$$
                                     01B8       30250$:
                                 06' 01B8       30251$:	.BYTE	30254$-30251$
                                 00' 01B9       	.BYTE	CLI$K_MOUN_DENS
                                 00' 01BA       	.BYTE	QUA_K_DENS
                                 00  01BB       	.IIF B <>,	.BYTE	0
                               3028  01BC       	.WORD	$$$
                                     01BE       30254$:
                                 06' 01BE       30255$:	.BYTE	30258$-30255$
                                 00' 01BF       	.BYTE	CLI$K_MOUN_DRIV
                                 00' 01C0       	.BYTE	QUA_K_DRIV
                                 00  01C1       	.IIF B <>,	.BYTE	0
                               3038  01C2       	.WORD	$$$
                                     01C4       30258$:
                                 06' 01C4       30259$:	.BYTE	30262$-30259$
                                 00' 01C5       	.BYTE	CLI$K_MOUN_EBCD
                                 00' 01C6       	.BYTE	QUA_K_EBCD
                                 00  01C7       	.IIF B <>,	.BYTE	0
                               1028  01C8       	.WORD	$$$
                                     01CA       30262$:
                                 06' 01CA       30263$:	.BYTE	30266$-30263$
MCRDBAS2        - MCR COMMAND DATA BASE MODULE 2                 22-AUG-1978 01:31:13   VAX-11 MACRO X0.3-11               Page  13
01              DEFINE MCR COMMANDS                                                                                              (1)

                                 00' 01CB       	.BYTE	CLI$K_MOUN_EXTE
                                 00' 01CC       	.BYTE	QUA_K_EXTE
                                 00  01CD       	.IIF B <>,	.BYTE	0
                               3028  01CE       	.WORD	$$$
                                     01D0       30266$:
                                 0A' 01D0       30267$:	.BYTE	30270$-30267$
                                 00' 01D1       	.BYTE	CLI$K_MOUN_FORE
                                 00' 01D2       	.BYTE	QUA_K_FORE
                                 00  01D3       	.IIF B <>,	.BYTE	0
                               0409  01D4       	.WORD	$$$
                                 00  01D6       	.BYTE	0
                               0000  01D7       	.WORD	0
                                 31  01D9       	.BYTE	3*16+1
                                     01DA       30270$:
                                 06' 01DA       30272$:	.BYTE	30275$-30272$
                                 00' 01DB       	.BYTE	CLI$K_MOUN_GROU
                                 00' 01DC       	.BYTE	QUA_K_GROU
                                 00  01DD       	.IIF B <>,	.BYTE	0
                               0008  01DE       	.WORD	$$$
                                     01E0       30275$:
                                 0A' 01E0       30276$:	.BYTE	30279$-30276$
                                 00' 01E1       	.BYTE	CLI$K_MOUN_LABE
                                 00' 01E2       	.BYTE	QUA_K_LABE
                                 00  01E3       	.IIF B <>,	.BYTE	0
                               04C9  01E4       	.WORD	$$$
                                 00  01E6       	.BYTE	0
                               0000  01E7       	.WORD	0
                                 31  01E9       	.BYTE	3*16+1
                                     01EA       30279$:
                                 0A' 01EA       30281$:	.BYTE	30284$-30281$
                                 00' 01EB       	.BYTE	CLI$K_MOUN_OVER
                                 00' 01EC       	.BYTE	QUA_K_OVER
                                 00  01ED       	.IIF B <>,	.BYTE	0
                               1429  01EE       	.WORD	$$$
                                 00  01F0       	.BYTE	0
                               0000  01F1       	.WORD	0
                                 31  01F3       	.BYTE	3*16+1
                                     01F4       30284$:
                                 06' 01F4       30286$:	.BYTE	30289$-30286$
                                 00' 01F5       	.BYTE	CLI$K_MOUN_OWNE
                                 00' 01F6       	.BYTE	QUA_K_OWNE
                                 00  01F7       	.IIF B <>,	.BYTE	0
                               302C  01F8       	.WORD	$$$
                                     01FA       30289$:
                                 06' 01FA       30290$:	.BYTE	30293$-30290$
                                 00' 01FB       	.BYTE	CLI$K_MOUN_PROC
                                 00' 01FC       	.BYTE	QUA_K_PROC
                                 00  01FD       	.IIF B <>,	.BYTE	0
                               3028  01FE       	.WORD	$$$
                                     0200       30293$:
                                 06' 0200       30294$:	.BYTE	30297$-30294$
                                 00' 0201       	.BYTE	CLI$K_MOUN_PROT
                                 00' 0202       	.BYTE	QUA_K_PROT
                                 00  0203       	.IIF B <>,	.BYTE	0
                               1028  0204       	.WORD	$$$
                                     0206       30297$:
                                 06' 0206       30298$:	.BYTE	30301$-30298$
MCRDBAS2        - MCR COMMAND DATA BASE MODULE 2                 22-AUG-1978 01:31:13   VAX-11 MACRO X0.3-11               Page  14
01              DEFINE MCR COMMANDS                                                                                              (1)

                                 00' 0207       	.BYTE	CLI$K_MOUN_SHAR
                                 00' 0208       	.BYTE	QUA_K_SHAR
                                 00  0209       	.IIF B <>,	.BYTE	0
                               0048  020A       	.WORD	$$$
                                     020C       30301$:
                                 06' 020C       30302$:	.BYTE	30305$-30302$
                                 00' 020D       	.BYTE	CLI$K_MOUN_SYST
                                 00' 020E       	.BYTE	QUA_K_SYST
                                 00  020F       	.IIF B <>,	.BYTE	0
                               0008  0210       	.WORD	$$$
                                     0212       30305$:
                                 06' 0212       30306$:	.BYTE	30309$-30306$
                                 00' 0213       	.BYTE	CLI$K_MOUN_UNLO
                                 00' 0214       	.BYTE	QUA_K_UNLO
                                 00  0215       	.IIF B <>,	.BYTE	0
                               0008  0216       	.WORD	$$$
                                     0218       30309$:
                                 06' 0218       30310$:	.BYTE	30313$-30310$
                                 00' 0219       	.BYTE	CLI$K_MOUN_USER
                                 00' 021A       	.BYTE	QUA_K_USER
                                 00  021B       	.IIF B <>,	.BYTE	0
                               302C  021C       	.WORD	$$$
                                     021E       30313$:
                                 06' 021E       30314$:	.BYTE	30317$-30314$
                                 00' 021F       	.BYTE	CLI$K_MOUN_VISU
                                 00' 0220       	.BYTE	QUA_K_VISU
                                 00  0221       	.IIF B <>,	.BYTE	0
                               3028  0222       	.WORD	$$$
                                     0224       30317$:
                                 06' 0224       30318$:	.BYTE	30321$-30318$
                                 00' 0225       	.BYTE	CLI$K_MOUN_WIND
                                 00' 0226       	.BYTE	QUA_K_WIND
                                 00  0227       	.IIF B <>,	.BYTE	0
                               3028  0228       	.WORD	$$$
                                     022A       30321$:
                                 06' 022A       30322$:	.BYTE	30325$-30322$
                                 00' 022B       	.BYTE	CLI$K_MOUN_WRIT
                                 00' 022C       	.BYTE	QUA_K_WRIT
                                 00  022D       	.IIF B <>,	.BYTE	0
                               00C8  022E       	.WORD	$$$
                                     0230       30325$:
                                 06' 0230       30326$:	.BYTE	30329$-30326$
                                 00' 0231       	.BYTE	CLI$K_MOUN_DATA
                                 00' 0232       	.BYTE	QUA_K_DATA
                                 00  0233       	.IIF B <>,	.BYTE	0
                               0028  0234       	.WORD	$$$
                                     0236       30329$:
                                 06' 0236       30330$:	.BYTE	30333$-30330$
                                 00' 0237       	.BYTE	CLI$K_MOUN_RECO
                                 00' 0238       	.BYTE	QUA_K_RECO
                                 00  0239       	.IIF B <>,	.BYTE	0
                               3028  023A       	.WORD	$$$
                                     023C       30333$:
                           00000236  023C       .=$QUALBLK$
                                 00  0236       	.BYTE	0
                                 000001A6       	.RESTORE
                                     01A6    88
MCRDBAS2        - MCR COMMAND DATA BASE MODULE 2                 22-AUG-1978 01:31:13   VAX-11 MACRO X0.3-11               Page  15
01              DEFINE MCR COMMANDS                                                                                              (1)

                                     01A6    89 	DEFCMD	ON,-			; DEFINE ON COMMAND
                                     01A6    90 		QUAL	=NO,-		; NO QUALIFIERS ALLOWED
                                     01A6    91 		MINPRM	=0,-		; MINIMUM NUMBER OF PARAMETERS
                                     01A6    92 		MAXPRM	=0,-		; MAXIMUM NUMBER OF PARAMETERS
                                     01A6    93 		DEFIMG	=ON,-		; DEFAULT IMAGE OR ROUTINE NAME
                                     01A6    94 		FLAGS	=<IMMED,NOSTAT>	; COMMAND PROCESSING FLAGS
                                     01A6       	.LIST
                                 00000018       	.PSECT	MCR$VERBTBL,BYTE,RD,NOWRT
                                 CF  0018       	.BYTE	^A/O/!$XX$
                                 4E  0019       	.BYTE	^A/N/!$XX$
                                 20  001A       	.ASCII	\ \
                                 20  001B       	.ASCII	\ \
                                     001C       	.LIST
                                 0000000C       	.PSECT	MCR$COMDPTR,BYTE,RD,NOWRT
                               022E' 000C       	.WORD	VERB_G_ON-.-2
                                     000E       	.LIST
                                 0000023C       	.PSECT	MCR$CMDATA,BYTE,RD,NOWRT
                                     023C       VERB_G_ON:
                                 22  023C       	.BYTE	CLI$K_VERB_ON
                                 00  023D       	.BYTE	0*16!0
                                 00' 023E       	.BYTE	IMG_K_ON
                                 00  023F       	.BYTE	0
                                 0A  0240       	.BYTE	$$$
                                     0241    95
                                     0241    96 	DEFCMD	PRIN,-			; DEFINE PRINT COMMAND
                                     0241    97 		QUAL  =YES,-		; YES QUALIFIERS ALLOWED
                                     0241    98 		DEFIMG=SUBMIT,-		; DEFAULT IMAGE OR ROUTINE NAME
                                     0241    99 		MINPRM=1,-		; MINIMUM NUMBER OF PARAMETERS
                                     0241   100 		MAXPRM=1,-		; MAXIMUM NUMBER OF PARAMETERS
                                     0241   101 		QUALST=SUBM		; USE QUALIFIERS FOR SUBMIT
                                     0241       	.LIST
                                 0000001C       	.PSECT	MCR$VERBTBL,BYTE,RD,NOWRT
                                 D0  001C       	.BYTE	^A/P/!$XX$
                                 52  001D       	.BYTE	^A/R/!$XX$
                                 49  001E       	.BYTE	^A/I/!$XX$
                                 4E  001F       	.BYTE	^A/N/!$XX$
                                     0020       	.LIST
                                 0000000E       	.PSECT	MCR$COMDPTR,BYTE,RD,NOWRT
                               0231' 000E       	.WORD	VERB_G_PRIN-.-2
                                     0010       	.LIST
                                 00000241       	.PSECT	MCR$CMDATA,BYTE,RD,NOWRT
                                     0241       VERB_G_PRIN:
                                 23  0241       	.BYTE	CLI$K_VERB_PRIN
                                 11  0242       	.BYTE	1*16!1
                                 00' 0243       	.BYTE	IMG_K_SUBMIT
                                 01' 0244       	.BYTE	QUA_G_PRIN-.-1
                                 10  0245       	.BYTE	$$$
                                     0246       QUA_G_PRIN:
                               FDBA' 0246       	.WORD	MCR$G_SUBMQUALS-.
                                     0248   102
                                     0248   103 	DEFCMD	PURG,-			; DEFINE PURGE COMMAND
                                     0248   104 		QUAL  =YES,-		; YES QUALIFIERS ALLOWED
                                     0248   105 		DEFIMG=DELETE,-		; DEFAULT IMAGE OR ROUTINE NAME
                                     0248   106 		MINPRM=0,-		; MINIMUM NUMBER OF PARAMETERS
                                     0248   107 		MAXPRM=1		; MAXIMUM NUMBER OF PARAMETERS
                                     0248       	.LIST
                                 00000020       	.PSECT	MCR$VERBTBL,BYTE,RD,NOWRT
MCRDBAS2        - MCR COMMAND DATA BASE MODULE 2                 22-AUG-1978 01:31:13   VAX-11 MACRO X0.3-11               Page  16
01              DEFINE MCR COMMANDS                                                                                              (1)

                                 D0  0020       	.BYTE	^A/P/!$XX$
                                 55  0021       	.BYTE	^A/U/!$XX$
                                 52  0022       	.BYTE	^A/R/!$XX$
                                 47  0023       	.BYTE	^A/G/!$XX$
                                     0024       	.LIST
                                 00000010       	.PSECT	MCR$COMDPTR,BYTE,RD,NOWRT
                               0236' 0010       	.WORD	VERB_G_PURG-.-2
                                     0012       	.LIST
                                 00000248       	.PSECT	MCR$CMDATA,BYTE,RD,NOWRT
                                     0248       VERB_G_PURG:
                                 31  0248       	.BYTE	CLI$K_VERB_PURG
                                 10  0249       	.BYTE	1*16!0
                                 00' 024A       	.BYTE	IMG_K_DELETE
                                 01' 024B       	.BYTE	QUA_G_PURG-.-1
                                 00  024C       	.BYTE	$$$
                                     024D       	.SAVE
                                 0000024D       	.PSECT	MCR$CMDATA,BYTE,RD,NOWRT
                                     024D       QUA_G_PURG:
                                 06' 024D       30337$:	.BYTE	30340$-30337$
                                 00' 024E       	.BYTE	CLI$K_PURG_KEEP
                                 00' 024F       	.BYTE	QUA_K_KEEP
                                 00  0250       	.IIF B <>,	.BYTE	0
                               3028  0251       	.WORD	$$$
                                     0253       30340$:
                                 06' 0253       30341$:	.BYTE	30344$-30341$
                                 00' 0254       	.BYTE	CLI$K_PURG_LOG
                                 00' 0255       	.BYTE	QUA_K_LOG
                                 00  0256       	.IIF B <>,	.BYTE	0
                               0048  0257       	.WORD	$$$
                                     0259       30344$:
                           00000253  0259       .=$QUALBLK$
                                 00  0253       	.BYTE	0
                                 0000024D       	.RESTORE
                                     024D   108 ;
                                     024D   109 ; RUN MUST BE FIRST INORDER TO BE ABBREVIATABLE TO "R"
                                     024D   110 ;
                                     024D   111
                                     024D   112 	DEFCMD	RUN,-			; DEFINE RUN COMMAND
                                     024D   113 		QUAL  =YES,-		; YES QUALIFIERS ALLOWED
                                     024D   114 		DEFIMG=RUN,-		; DEFAULT IMAGE OR ROUTINE NAME
                                     024D   115 		MINPRM=1,-		; MINIMUM NUMBER OF PARAMETERS
                                     024D   116 		MAXPRM=1,-		; MAXIMUM NUMBER OF PARAMETERS
                                     024D   117 		FLAGS=ABREV		; UNIQUE NAME NOT REQUIRED
                                     024D       	.LIST
                                 00000024       	.PSECT	MCR$VERBTBL,BYTE,RD,NOWRT
                                 D2  0024       	.BYTE	^A/R/!$XX$
                                 55  0025       	.BYTE	^A/U/!$XX$
                                 4E  0026       	.BYTE	^A/N/!$XX$
                                 20  0027       	.ASCII	\ \
                                     0028       	.LIST
                                 00000012       	.PSECT	MCR$COMDPTR,BYTE,RD,NOWRT
                               0245' 0012       	.WORD	VERB_G_RUN-.-2
                                     0014       	.LIST
                                 00000259       	.PSECT	MCR$CMDATA,BYTE,RD,NOWRT
                                     0259       VERB_G_RUN:
                                 24  0259       	.BYTE	CLI$K_VERB_RUN
                                 11  025A       	.BYTE	1*16!1
MCRDBAS2        - MCR COMMAND DATA BASE MODULE 2                 22-AUG-1978 01:31:13   VAX-11 MACRO X0.3-11               Page  17
01              DEFINE MCR COMMANDS                                                                                              (1)

                                 00' 025B       	.BYTE	IMG_K_RUN
                                 01' 025C       	.BYTE	QUA_G_RUN-.-1
                                 20  025D       	.BYTE	$$$
                                     025E       	.SAVE
                                 0000025E       	.PSECT	MCR$CMDATA,BYTE,RD,NOWRT
                                     025E       QUA_G_RUN:
                                 07' 025E       30346$:	.BYTE	30349$-30346$
                                 00' 025F       	.BYTE	CLI$K_RUN_DELA
                                 00' 0260       	.BYTE	QUA_K_DELA
                                 00  0261       	.IIF B <>,	.BYTE	0
                               3428  0262       	.WORD	$$$
                                 00' 0264       	.BYTE	IMG_K_RUNDET
                                     0265       30349$:
                                 07' 0265       30350$:	.BYTE	30353$-30350$
                                 00' 0266       	.BYTE	CLI$K_RUN_ERRO
                                 00' 0267       	.BYTE	QUA_K_ERRO
                                 00  0268       	.IIF B <>,	.BYTE	0
                               342C  0269       	.WORD	$$$
                                 00' 026B       	.BYTE	IMG_K_RUNDET
                                     026C       30353$:
                                 07' 026C       30354$:	.BYTE	30357$-30354$
                                 00' 026D       	.BYTE	CLI$K_RUN_INPU
                                 00' 026E       	.BYTE	QUA_K_INPU
                                 00  026F       	.IIF B <>,	.BYTE	0
                               342C  0270       	.WORD	$$$
                                 00' 0272       	.BYTE	IMG_K_RUNDET
                                     0273       30357$:
                                 07' 0273       30358$:	.BYTE	30361$-30358$
                                 00' 0274       	.BYTE	CLI$K_RUN_INTE
                                 00' 0275       	.BYTE	QUA_K_INTE
                                 00  0276       	.IIF B <>,	.BYTE	0
                               3428  0277       	.WORD	$$$
                                 00' 0279       	.BYTE	IMG_K_RUNDET
                                     027A       30361$:
                                 07' 027A       30362$:	.BYTE	30365$-30362$
                                 00' 027B       	.BYTE	CLI$K_RUN_OUTP
                                 00' 027C       	.BYTE	QUA_K_OUTP
                                 00  027D       	.IIF B <>,	.BYTE	0
                               342C  027E       	.WORD	$$$
                                 00' 0280       	.BYTE	IMG_K_RUNDET
                                     0281       30365$:
                                 07' 0281       30366$:	.BYTE	30369$-30366$
                                 00' 0282       	.BYTE	CLI$K_RUN_PRIO
                                 00' 0283       	.BYTE	QUA_K_PRIO
                                 00  0284       	.IIF B <>,	.BYTE	0
                               3428  0285       	.WORD	$$$
                                 00' 0287       	.BYTE	IMG_K_RUNDET
                                     0288       30369$:
                                 07' 0288       30370$:	.BYTE	30373$-30370$
                                 00' 0289       	.BYTE	CLI$K_RUN_PRIV
                                 00' 028A       	.BYTE	QUA_K_PRIV
                                 00  028B       	.IIF B <>,	.BYTE	0
                               1428  028C       	.WORD	$$$
                                 00' 028E       	.BYTE	IMG_K_RUNDET
                                     028F       30373$:
                                 07' 028F       30374$:	.BYTE	30377$-30374$
                                 00' 0290       	.BYTE	CLI$K_RUN_PROC
MCRDBAS2        - MCR COMMAND DATA BASE MODULE 2                 22-AUG-1978 01:31:13   VAX-11 MACRO X0.3-11               Page  18
01              DEFINE MCR COMMANDS                                                                                              (1)

                                 00' 0291       	.BYTE	QUA_K_PROC
                                 00  0292       	.IIF B <>,	.BYTE	0
                               3428  0293       	.WORD	$$$
                                 00' 0295       	.BYTE	IMG_K_RUNDET
                                     0296       30377$:
                                 07' 0296       30378$:	.BYTE	30381$-30378$
                                 00' 0297       	.BYTE	CLI$K_RUN_RESO
                                 00' 0298       	.BYTE	QUA_K_RESO
                                 00  0299       	.IIF B <>,	.BYTE	0
                               04C8  029A       	.WORD	$$$
                                 00' 029C       	.BYTE	IMG_K_RUNDET
                                     029D       30381$:
                                 07' 029D       30382$:	.BYTE	30385$-30382$
                                 00' 029E       	.BYTE	CLI$K_RUN_SCHE
                                 00' 029F       	.BYTE	QUA_K_SCHE
                                 00  02A0       	.IIF B <>,	.BYTE	0
                               3428  02A1       	.WORD	$$$
                                 00' 02A3       	.BYTE	IMG_K_RUNDET
                                     02A4       30385$:
                                 07' 02A4       30386$:	.BYTE	30389$-30386$
                                 00' 02A5       	.BYTE	CLI$K_RUN_SERV
                                 00' 02A6       	.BYTE	QUA_K_SERV
                                 00  02A7       	.IIF B <>,	.BYTE	0
                               0448  02A8       	.WORD	$$$
                                 00' 02AA       	.BYTE	IMG_K_RUNDET
                                     02AB       30389$:
                                 07' 02AB       30390$:	.BYTE	30393$-30390$
                                 00' 02AC       	.BYTE	CLI$K_RUN_SWAP
                                 00' 02AD       	.BYTE	QUA_K_SWAP
                                 00  02AE       	.IIF B <>,	.BYTE	0
                               04C8  02AF       	.WORD	$$$
                                 00' 02B1       	.BYTE	IMG_K_RUNDET
                                     02B2       30393$:
                                 07' 02B2       30394$:	.BYTE	30397$-30394$
                                 00' 02B3       	.BYTE	CLI$K_RUN_UIC
                                 00' 02B4       	.BYTE	QUA_K_UIC
                                 00  02B5       	.IIF B <>,	.BYTE	0
                               342C  02B6       	.WORD	$$$
                                 00' 02B8       	.BYTE	IMG_K_RUNDET
                                     02B9       30397$:
                                 07' 02B9       30398$:	.BYTE	30401$-30398$
                                 00' 02BA       	.BYTE	CLI$K_RUN_ACCO
                                 00' 02BB       	.BYTE	QUA_K_ACCO
                                 00  02BC       	.IIF B <>,	.BYTE	0
                               04C8  02BD       	.WORD	$$$
                                 00' 02BF       	.BYTE	IMG_K_RUNDET
                                     02C0       30401$:
                                 07' 02C0       30402$:	.BYTE	30405$-30402$
                                 00' 02C1       	.BYTE	CLI$K_RUN_BUFF
                                 00' 02C2       	.BYTE	QUA_K_BUFF
                                 00  02C3       	.IIF B <>,	.BYTE	0
                               3428  02C4       	.WORD	$$$
                                 00' 02C6       	.BYTE	IMG_K_RUNDET
                                     02C7       30405$:
                                 07' 02C7       30406$:	.BYTE	30409$-30406$
                                 00' 02C8       	.BYTE	CLI$K_RUN_TIME
                                 00' 02C9       	.BYTE	QUA_K_TIME
MCRDBAS2        - MCR COMMAND DATA BASE MODULE 2                 22-AUG-1978 01:31:13   VAX-11 MACRO X0.3-11               Page  19
01              DEFINE MCR COMMANDS                                                                                              (1)

                                 00  02CA       	.IIF B <>,	.BYTE	0
                               3428  02CB       	.WORD	$$$
                                 00' 02CD       	.BYTE	IMG_K_RUNDET
                                     02CE       30409$:
                                 07' 02CE       30410$:	.BYTE	30413$-30410$
                                 00' 02CF       	.BYTE	CLI$K_RUN_FILE
                                 00' 02D0       	.BYTE	QUA_K_FILE
                                 00  02D1       	.IIF B <>,	.BYTE	0
                               3428  02D2       	.WORD	$$$
                                 00' 02D4       	.BYTE	IMG_K_RUNDET
                                     02D5       30413$:
                                 07' 02D5       30414$:	.BYTE	30417$-30414$
                                 00' 02D6       	.BYTE	CLI$K_RUN_PAGE
                                 00' 02D7       	.BYTE	QUA_K_PAGE
                                 00  02D8       	.IIF B <>,	.BYTE	0
                               3428  02D9       	.WORD	$$$
                                 00' 02DB       	.BYTE	IMG_K_RUNDET
                                     02DC       30417$:
                                 07' 02DC       30418$:	.BYTE	30421$-30418$
                                 00' 02DD       	.BYTE	CLI$K_RUN_QUEU
                                 00' 02DE       	.BYTE	QUA_K_QUEU
                                 00  02DF       	.IIF B <>,	.BYTE	0
                               3428  02E0       	.WORD	$$$
                                 00' 02E2       	.BYTE	IMG_K_RUNDET
                                     02E3       30421$:
                                 07' 02E3       30422$:	.BYTE	30425$-30422$
                                 00' 02E4       	.BYTE	CLI$K_RUN_SUBP
                                 00' 02E5       	.BYTE	QUA_K_SUBP
                                 00  02E6       	.IIF B <>,	.BYTE	0
                               3428  02E7       	.WORD	$$$
                                 00' 02E9       	.BYTE	IMG_K_RUNDET
                                     02EA       30425$:
                                 07' 02EA       30426$:	.BYTE	30429$-30426$
                                 00' 02EB       	.BYTE	CLI$K_RUN_MAXI
                                 00' 02EC       	.BYTE	QUA_K_MAXI
                                 00  02ED       	.IIF B <>,	.BYTE	0
                               3428  02EE       	.WORD	$$$
                                 00' 02F0       	.BYTE	IMG_K_RUNDET
                                     02F1       30429$:
                                 07' 02F1       30430$:	.BYTE	30433$-30430$
                                 00' 02F2       	.BYTE	CLI$K_RUN_WORK
                                 00' 02F3       	.BYTE	QUA_K_WORK
                                 00  02F4       	.IIF B <>,	.BYTE	0
                               3428  02F5       	.WORD	$$$
                                 00' 02F7       	.BYTE	IMG_K_RUNDET
                                     02F8       30433$:
                                 06' 02F8       30434$:	.BYTE	30437$-30434$
                                 00' 02F9       	.BYTE	CLI$K_RUN_DEBU
                                 00' 02FA       	.BYTE	QUA_K_DEBU
                                 00  02FB       	.IIF B <>,	.BYTE	0
                               0048  02FC       	.WORD	$$$
                                     02FE       30437$:
                                 07' 02FE       30438$:	.BYTE	30441$-30438$
                                 00' 02FF       	.BYTE	CLI$K_RUN_AUTH
                                 00' 0300       	.BYTE	QUA_K_AUTH
                                 00  0301       	.IIF B <>,	.BYTE	0
                               04C8  0302       	.WORD	$$$
MCRDBAS2        - MCR COMMAND DATA BASE MODULE 2                 22-AUG-1978 01:31:13   VAX-11 MACRO X0.3-11               Page  20
01              DEFINE MCR COMMANDS                                                                                              (1)

                                 00' 0304       	.BYTE	IMG_K_RUNDET
                                     0305       30441$:
                                 0B' 0305       30442$:	.BYTE	30445$-30442$
                                 00' 0306       	.BYTE	CLI$K_RUN_MAIL
                                 07' 0307       	.BYTE	<30444$-30442$>
                                 00  0308       	.IIF B <>,	.BYTE	0
                               342A  0309       	.WORD	$$$
                                 00' 030B       	.BYTE	IMG_K_RUNDET
                        4C 49 41 4D  030C       30444$:	.ASCII	\MAIL\
                                     0310       30445$:
                                 0B' 0310       30446$:	.BYTE	30449$-30446$
                                 00' 0311       	.BYTE	CLI$K_RUN_AST_
                                 07' 0312       	.BYTE	<30448$-30446$>
                                 00  0313       	.IIF B <>,	.BYTE	0
                               342A  0314       	.WORD	$$$
                                 00' 0316       	.BYTE	IMG_K_RUNDET
                        5F 54 53 41  0317       30448$:	.ASCII	\AST_\
                                     031B       30449$:
                                 0B' 031B       30450$:	.BYTE	30453$-30450$
                                 00' 031C       	.BYTE	CLI$K_RUN_IO_B
                                 07' 031D       	.BYTE	<30452$-30450$>
                                 00  031E       	.IIF B <>,	.BYTE	0
                               342A  031F       	.WORD	$$$
                                 00' 0321       	.BYTE	IMG_K_RUNDET
                        42 5F 4F 49  0322       30452$:	.ASCII	\IO_B\
                                     0326       30453$:
                                 0B' 0326       30454$:	.BYTE	30457$-30454$
                                 00' 0327       	.BYTE	CLI$K_RUN_IO_D
                                 07' 0328       	.BYTE	<30456$-30454$>
                                 00  0329       	.IIF B <>,	.BYTE	0
                               342A  032A       	.WORD	$$$
                                 00' 032C       	.BYTE	IMG_K_RUNDET
                        44 5F 4F 49  032D       30456$:	.ASCII	\IO_D\
                                     0331       30457$:
                           00000326  0331       .=$QUALBLK$
                                 00  0326       	.BYTE	0
                                 0000025E       	.RESTORE
                                     025E   118
                                     025E   119 	DEFCMD	REPL,-			; DEFINE REPLY COMMAND
                                     025E   120 		QUAL  =YES,-		; YES QUALIFIERS ALLOWED
                                     025E   121 		MINPRM=0,-		; MINIMUM NUMBER OF PARAMETERS
                                     025E   122 		MAXPRM=1,-		; MAXIMUM NUMBER OF PARAMETERS
                                     025E   123 		DEFIMG=REPLY		; DEFAULT IMAGE OR ROUTINE NAME
                                     025E       	.LIST
                                 00000028       	.PSECT	MCR$VERBTBL,BYTE,RD,NOWRT
                                 D2  0028       	.BYTE	^A/R/!$XX$
                                 45  0029       	.BYTE	^A/E/!$XX$
                                 50  002A       	.BYTE	^A/P/!$XX$
                                 4C  002B       	.BYTE	^A/L/!$XX$
                                     002C       	.LIST
                                 00000014       	.PSECT	MCR$COMDPTR,BYTE,RD,NOWRT
                               031B' 0014       	.WORD	VERB_G_REPL-.-2
                                     0016       	.LIST
                                 00000331       	.PSECT	MCR$CMDATA,BYTE,RD,NOWRT
                                     0331       VERB_G_REPL:
                                 2D  0331       	.BYTE	CLI$K_VERB_REPL
                                 10  0332       	.BYTE	1*16!0
MCRDBAS2        - MCR COMMAND DATA BASE MODULE 2                 22-AUG-1978 01:31:13   VAX-11 MACRO X0.3-11               Page  21
01              DEFINE MCR COMMANDS                                                                                              (1)

                                 00' 0333       	.BYTE	IMG_K_REPLY
                                 01' 0334       	.BYTE	QUA_G_REPL-.-1
                                 00  0335       	.BYTE	$$$
                                     0336       	.SAVE
                                 00000336       	.PSECT	MCR$CMDATA,BYTE,RD,NOWRT
                                     0336       QUA_G_REPL:
                                 06' 0336       30459$:	.BYTE	30462$-30459$
                                 00' 0337       	.BYTE	CLI$K_REPL_ABOR
                                 00' 0338       	.BYTE	QUA_K_ABOR
                                 00  0339       	.IIF B <>,	.BYTE	0
                               3028  033A       	.WORD	$$$
                                     033C       30462$:
                                 06' 033C       30463$:	.BYTE	30466$-30463$
                                 00' 033D       	.BYTE	CLI$K_REPL_ALL
                                 00' 033E       	.BYTE	QUA_K_ALL
                                 00  033F       	.IIF B <>,	.BYTE	0
                               0008  0340       	.WORD	$$$
                                     0342       30466$:
                                 06' 0342       30467$:	.BYTE	30470$-30467$
                                 00' 0343       	.BYTE	CLI$K_REPL_ENAB
                                 00' 0344       	.BYTE	QUA_K_ENAB
                                 00  0345       	.IIF B <>,	.BYTE	0
                               0028  0346       	.WORD	$$$
                                     0348       30470$:
                                 06' 0348       30471$:	.BYTE	30474$-30471$
                                 00' 0349       	.BYTE	CLI$K_REPL_DISA
                                 00' 034A       	.BYTE	QUA_K_DISA
                                 00  034B       	.IIF B <>,	.BYTE	0
                               0028  034C       	.WORD	$$$
                                     034E       30474$:
                                 06' 034E       30475$:	.BYTE	30478$-30475$
                                 00' 034F       	.BYTE	CLI$K_REPL_LOG
                                 00' 0350       	.BYTE	QUA_K_LOG
                                 00  0351       	.IIF B <>,	.BYTE	0
                               0008  0352       	.WORD	$$$
                                     0354       30478$:
                                 06' 0354       30479$:	.BYTE	30482$-30479$
                                 00' 0355       	.BYTE	CLI$K_REPL_PEND
                                 00' 0356       	.BYTE	QUA_K_PEND
                                 00  0357       	.IIF B <>,	.BYTE	0
                               3028  0358       	.WORD	$$$
                                     035A       30482$:
                                 06' 035A       30483$:	.BYTE	30486$-30483$
                                 00' 035B       	.BYTE	CLI$K_REPL_TERM
                                 00' 035C       	.BYTE	QUA_K_TERM
                                 00  035D       	.IIF B <>,	.BYTE	0
                               1028  035E       	.WORD	$$$
                                     0360       30486$:
                                 06' 0360       30487$:	.BYTE	30490$-30487$
                                 00' 0361       	.BYTE	CLI$K_REPL_TO
                                 00' 0362       	.BYTE	QUA_K_TO
                                 00  0363       	.IIF B <>,	.BYTE	0
                               3028  0364       	.WORD	$$$
                                     0366       30490$:
                                 06' 0366       30491$:	.BYTE	30494$-30491$
                                 00' 0367       	.BYTE	CLI$K_REPL_USER
                                 00' 0368       	.BYTE	QUA_K_USER
MCRDBAS2        - MCR COMMAND DATA BASE MODULE 2                 22-AUG-1978 01:31:13   VAX-11 MACRO X0.3-11               Page  22
01              DEFINE MCR COMMANDS                                                                                              (1)

                                 00  0369       	.IIF B <>,	.BYTE	0
                               0008  036A       	.WORD	$$$
                                     036C       30494$:
                                 0A' 036C       30495$:	.BYTE	30498$-30495$
                                 00' 036D       	.BYTE	CLI$K_REPL_BELL
                                 06' 036E       	.BYTE	<30497$-30495$>
                                 00  036F       	.IIF B <>,	.BYTE	0
                               000A  0370       	.WORD	$$$
                        4C 4C 45 42  0372       30497$:	.ASCII	\BELL\
                                     0376       30498$:
                                 06' 0376       30499$:	.BYTE	30502$-30499$
                                 00' 0377       	.BYTE	CLI$K_REPL_STAT
                                 00' 0378       	.BYTE	QUA_K_STAT
                                 00  0379       	.IIF B <>,	.BYTE	0
                               0008  037A       	.WORD	$$$
                                     037C       30502$:
                           00000376  037C       .=$QUALBLK$
                                 00  0376       	.BYTE	0
                                 00000336       	.RESTORE
                                     0336   124
                                     0336   125
                                     0336   126 	.END
MCRDBAS2        - MCR COMMAND DATA BASE MODULE 2                 22-AUG-1978 01:31:13   VAX-11 MACRO X0.3-11               Page  23
SYMBOL TABLE                                                                                                                     (1)

$$$            = 00000008            CLI$K_LINK_SYSS  ********   X   05   CLI$K_RUN_PRIO   ********   X   05
$QUALBLK$      = 00000376 R     05   CLI$K_LINK_SYST  ********   X   05   CLI$K_RUN_PRIV   ********   X   05
$XX$           = 00000000            CLI$K_LINK_TRAC  ********   X   05   CLI$K_RUN_PROC   ********   X   05
BIT...         = 00000008            CLI$K_LOGO_BRIE  ********   X   05   CLI$K_RUN_QUEU   ********   X   05
CLI$K_EXAM_ASCI  ********   X   05   CLI$K_LOGO_FULL  ********   X   05   CLI$K_RUN_RESO   ********   X   05
CLI$K_EXAM_BYTE  ********   X   05   CLI$K_MOUN_ACCE  ********   X   05   CLI$K_RUN_SCHE   ********   X   05
CLI$K_EXAM_DECI  ********   X   05   CLI$K_MOUN_BLOC  ********   X   05   CLI$K_RUN_SERV   ********   X   05
CLI$K_EXAM_HEXA  ********   X   05   CLI$K_MOUN_COMM  ********   X   05   CLI$K_RUN_SUBP   ********   X   05
CLI$K_EXAM_LONG  ********   X   05   CLI$K_MOUN_DATA  ********   X   05   CLI$K_RUN_SWAP   ********   X   05
CLI$K_EXAM_OCTA  ********   X   05   CLI$K_MOUN_DENS  ********   X   05   CLI$K_RUN_TIME   ********   X   05
CLI$K_EXAM_WORD  ********   X   05   CLI$K_MOUN_DRIV  ********   X   05   CLI$K_RUN_UIC    ********   X   05
CLI$K_INIT_ACCE  ********   X   05   CLI$K_MOUN_EBCD  ********   X   05   CLI$K_RUN_WORK   ********   X   05
CLI$K_INIT_BADB  ********   X   05   CLI$K_MOUN_EXTE  ********   X   05   CLI$K_VERB_ALLO= 00000001
CLI$K_INIT_BATC  ********   X   05   CLI$K_MOUN_FORE  ********   X   05   CLI$K_VERB_ANAL= 00000002
CLI$K_INIT_BURS  ********   X   05   CLI$K_MOUN_GROU  ********   X   05   CLI$K_VERB_APPE= 0000002F
CLI$K_INIT_CLUS  ********   X   05   CLI$K_MOUN_LABE  ********   X   05   CLI$K_VERB_ASSI= 00000003
CLI$K_INIT_DATA  ********   X   05   CLI$K_MOUN_OVER  ********   X   05   CLI$K_VERB_BASI= 00000004
CLI$K_INIT_DENS  ********   X   05   CLI$K_MOUN_OWNE  ********   X   05   CLI$K_VERB_BLIS= 00000005
CLI$K_INIT_DIRE  ********   X   05   CLI$K_MOUN_PROC  ********   X   05   CLI$K_VERB_CANC= 00000033
CLI$K_INIT_DISA  ********   X   05   CLI$K_MOUN_PROT  ********   X   05   CLI$K_VERB_COBO= 00000006
CLI$K_INIT_EBCD  ********   X   05   CLI$K_MOUN_RECO  ********   X   05   CLI$K_VERB_CONT= 00000007
CLI$K_INIT_ENAB  ********   X   05   CLI$K_MOUN_SHAR  ********   X   05   CLI$K_VERB_COPY= 00000008
CLI$K_INIT_EXTE  ********   X   05   CLI$K_MOUN_SYST  ********   X   05   CLI$K_VERB_CREA= 00000009
CLI$K_INIT_FILE  ********   X   05   CLI$K_MOUN_UNLO  ********   X   05   CLI$K_VERB_DATA= 0000000A
CLI$K_INIT_FLAG  ********   X   05   CLI$K_MOUN_USER  ********   X   05   CLI$K_VERB_DEAL= 0000000B
CLI$K_INIT_FORM  ********   X   05   CLI$K_MOUN_VISU  ********   X   05   CLI$K_VERB_DEAS= 0000000C
CLI$K_INIT_GENE  ********   X   05   CLI$K_MOUN_WIND  ********   X   05   CLI$K_VERB_DEBU= 0000000D
CLI$K_INIT_GROU  ********   X   05   CLI$K_MOUN_WRIT  ********   X   05   CLI$K_VERB_DEFI= 0000000E
CLI$K_INIT_HEAD  ********   X   05   CLI$K_PURG_KEEP  ********   X   05   CLI$K_VERB_DELE= 0000000F
CLI$K_INIT_INDE  ********   X   05   CLI$K_PURG_LOG   ********   X   05   CLI$K_VERB_DEPO= 00000010
CLI$K_INIT_JOB_  ********   X   05   CLI$K_REPL_ABOR  ********   X   05   CLI$K_VERB_DIFF= 00000011
CLI$K_INIT_MAXI  ********   X   05   CLI$K_REPL_ALL   ********   X   05   CLI$K_VERB_DIRE= 00000012
CLI$K_INIT_OVER  ********   X   05   CLI$K_REPL_BELL  ********   X   05   CLI$K_VERB_DISM= 00000013
CLI$K_INIT_OWNE  ********   X   05   CLI$K_REPL_DISA  ********   X   05   CLI$K_VERB_DUMP= 00000030
CLI$K_INIT_PRIO  ********   X   05   CLI$K_REPL_ENAB  ********   X   05   CLI$K_VERB_EDIT= 00000014
CLI$K_INIT_PROT  ********   X   05   CLI$K_REPL_LOG   ********   X   05   CLI$K_VERB_EOD = 00000015
CLI$K_INIT_QUEU  ********   X   05   CLI$K_REPL_PEND  ********   X   05   CLI$K_VERB_EXAM= 00000016
CLI$K_INIT_RECO  ********   X   05   CLI$K_REPL_STAT  ********   X   05   CLI$K_VERB_EXIT= 00000017
CLI$K_INIT_SHAR  ********   X   05   CLI$K_REPL_TERM  ********   X   05   CLI$K_VERB_FORE= 000000FF
CLI$K_INIT_STRU  ********   X   05   CLI$K_REPL_TO    ********   X   05   CLI$K_VERB_FORT= 00000018
CLI$K_INIT_SYST  ********   X   05   CLI$K_REPL_USER  ********   X   05   CLI$K_VERB_GOTO= 00000019
CLI$K_INIT_TERM  ********   X   05   CLI$K_RUN_ACCO   ********   X   05   CLI$K_VERB_HELP= 0000001A
CLI$K_INIT_USER  ********   X   05   CLI$K_RUN_AST_   ********   X   05   CLI$K_VERB_IF  = 0000001B
CLI$K_INIT_VERI  ********   X   05   CLI$K_RUN_AUTH   ********   X   05   CLI$K_VERB_INIT= 0000001C
CLI$K_INIT_WIND  ********   X   05   CLI$K_RUN_BUFF   ********   X   05   CLI$K_VERB_INQU= 0000001D
CLI$K_LINK_BRIE  ********   X   05   CLI$K_RUN_DEBU   ********   X   05   CLI$K_VERB_LIBR= 00000034
CLI$K_LINK_CONT  ********   X   05   CLI$K_RUN_DELA   ********   X   05   CLI$K_VERB_LINK= 0000001E
CLI$K_LINK_CROS  ********   X   05   CLI$K_RUN_ERRO   ********   X   05   CLI$K_VERB_LOGO= 0000001F
CLI$K_LINK_DEBU  ********   X   05   CLI$K_RUN_FILE   ********   X   05   CLI$K_VERB_MACR= 00000020
CLI$K_LINK_FULL  ********   X   05   CLI$K_RUN_INPU   ********   X   05   CLI$K_VERB_MCR = 00000021
CLI$K_LINK_INCL  ********   X   05   CLI$K_RUN_INTE   ********   X   05   CLI$K_VERB_MOUN= 0000002B
CLI$K_LINK_LIBR  ********   X   05   CLI$K_RUN_IO_B   ********   X   05   CLI$K_VERB_ON  = 00000022
CLI$K_LINK_OPTI  ********   X   05   CLI$K_RUN_IO_D   ********   X   05   CLI$K_VERB_PATC= 0000002C
CLI$K_LINK_SELE  ********   X   05   CLI$K_RUN_MAIL   ********   X   05   CLI$K_VERB_PRIN= 00000023
CLI$K_LINK_SHAR  ********   X   05   CLI$K_RUN_MAXI   ********   X   05   CLI$K_VERB_PURG= 00000031
CLI$K_LINK_SUPR  ********   X   05   CLI$K_RUN_OUTP   ********   X   05   CLI$K_VERB_RENA= 00000032
CLI$K_LINK_SYSL  ********   X   05   CLI$K_RUN_PAGE   ********   X   05   CLI$K_VERB_REPL= 0000002D
MCRDBAS2        - MCR COMMAND DATA BASE MODULE 2                 22-AUG-1978 01:31:13   VAX-11 MACRO X0.3-11               Page  24
SYMBOL TABLE                                                                                                                     (1)

CLI$K_VERB_REQU= 00000036            CLI$_NOTNEG    = 000380D8            IMG_K_DELETE     ********   X   05
CLI$K_VERB_RUN = 00000024            CLI$_NOVALU    = 000380D0            IMG_K_EXAMINE    ********   X   05
CLI$K_VERB_SET = 00000025            CLI$_NOVALUE   = 0003882A            IMG_K_EXIT       ********   X   05
CLI$K_VERB_SHOW= 00000026            CLI$_NULFIL    = 000380E0            IMG_K_INIT       ********   X   05
CLI$K_VERB_SORT= 00000035            CLI$_NUMBER    = 000380E8            IMG_K_LINK       ********   X   05
CLI$K_VERB_STAR= 00000027            CLI$_ONCOMD    = 000380F0            IMG_K_LOGOUT     ********   X   05
CLI$K_VERB_STOP= 00000028            CLI$_ONERR     = 000380F8            IMG_K_ON         ********   X   05
CLI$K_VERB_SUBM= 00000029            CLI$_ONEVAL    = 00038158            IMG_K_QUEMAN     ********   X   05
CLI$K_VERB_SYNC= 00000037            CLI$_ONLEVL    = 00038100            IMG_K_REPLY      ********   X   05
CLI$K_VERB_TYPE= 0000002A            CLI$_ONOVF     = 00038108            IMG_K_RUN        ********   X   05
CLI$K_VERB_UNLO= 0000002E            CLI$_OVRFLW    = 00038160            IMG_K_RUNDET     ********   X   05
CLI$_ABFNAM    = 000381B8            CLI$_PARMDEL   = 00038110            IMG_K_SUBMIT     ********   X   05
CLI$_ABKEYW    = 00038000            CLI$_PROC_ID   = 0003FFF1            IMG_K_VMOUNT     ********   X   05
CLI$_ABVERB    = 00038008            CLI$_QUEJOBCRE = 0003FFF9            MCR$G_EXAMQUALS  00000005 RG    05
CLI$_BADRET    = 00038198            CLI$_REQPRMABS = 00038812            MCR$G_SUBMQUALS  ********   X   05
CLI$_BADTEXT   = 000381B0            CLI$_RSLOVF    = 00038118            OPI_K_MCRUTLIST= FFFFFFFF
CLI$_BUFOVF    = 00038018            CLI$_SKPDAT    = 00038120            PRO_B_FLAGS      00000001
CLI$_COMPLX    = 00038020            CLI$_SPARE0    = 00038010            PRO_B_PROMPT     00000000
CLI$_CONFQUAL  = 00038802            CLI$_SPARE1    = 00038058            PRO_K_LENGTH     00000002
CLI$_CREQUEJOB = 0003884A            CLI$_STKOVF    = 00038128            PRO_M_CONCAT   = 00000001
CLI$_DEFOVF    = 00038028            CLI$_SUBMITERR = 00038852            PRO_M_IMPCAT   = 00000002
CLI$_DEVALSPL  = 0003885A            CLI$_SYMDEL    = 00038130            PRO_M_LIST     = 00000004
CLI$_DEVNOTFOR = 0003887A            CLI$_SYMOVF    = 00038138            PRO_M_OPTION   = 00000008
CLI$_DEVNOTSPL = 00038862            CLI$_UNDFIL    = 00038188            PRO_M_REQ      = 00000010
CLI$_DIRECT    = 00038030            CLI$_UNDSYM    = 00038140            PRO_M_STRING   = 00000020
CLI$_EXPSYN    = 00038038            CLI$_UNPROPARM = 00038170            PRO_V_CONCAT   = 00000000
CLI$_FILOPN    = 00038190            CLI$_UNPROQUAL = 00038168            PRO_V_IMPCAT   = 00000001
CLI$_ILLVAL    = 0003883A            CLI$_USGOTO    = 00038148            PRO_V_LIST     = 00000002
CLI$_IMCHNG    = 00038040            CLI$_VALCNVERR = 00038832            PRO_V_OPTION   = 00000003
CLI$_IMGFNF    = 00038872            CLI$_VALREQ    = 00038150            PRO_V_REQ      = 00000004
CLI$_INSFPRM   = 00038048            CMD_AB_PAROUT    00000005            PRO_V_STRING   = 00000005
CLI$_INVKEY    = 00038178            CMD_B_DEFIMG     00000002            QUA_B_CODE       00000001
CLI$_INVQUAL   = 0003880A            CMD_B_FLAGS      00000004            QUA_B_DEFVAL     00000003
CLI$_INVQUALNUM= 0003881A            CMD_B_PARMCNT    00000001            QUA_B_IMAGE      00000006
CLI$_INVREQTYP = 00038822            CMD_B_QUABLK     00000003            QUA_B_INDEX      00000002
CLI$_INVRSP    = 00038180            CMD_B_VERBTYP    00000000            QUA_B_OFFSET     00000000
CLI$_INVUIC    = 000381A8            CMD_M_ABREV    = 00000020            QUA_B_PARMCNT    00000009
CLI$_IVCHAR    = 00038050            CMD_M_DEFQUAL  = 00000010            QUA_G_CHNGLST    00000007
CLI$_IVDEVTYPE = 0003886A            CMD_M_DEVNAM   = 00000080            QUA_G_EXAM       00000005 R     05
CLI$_IVFNAM    = 000381C0            CMD_M_IMMED    = 00000002            QUA_G_INIT       00000039 R     05
CLI$_IVKEYW    = 00038060            CMD_M_NOEQL    = 00000040            QUA_G_LINK       00000120 R     05
CLI$_IVOPER    = 00038068            CMD_M_NOSTAT   = 00000008            QUA_G_LOGO       00000195 R     05
CLI$_IVPROT    = 00038070            CMD_M_OPTION   = 00000001            QUA_G_MOUN       000001A6 R     05
CLI$_IVQLOC    = 00038078            CMD_M_PAROUT   = 00000004            QUA_G_PRIN       00000246 R     05
CLI$_IVSYMB    = 00038080            CMD_S_MAXPARM  = 00000004            QUA_G_PURG       0000024D R     05
CLI$_IVVALU    = 00038088            CMD_S_MINPARM  = 00000004            QUA_G_REPL       00000336 R     05
CLI$_IVVERB    = 00038090            CMD_V_ABREV    = 00000005            QUA_G_RUN        0000025E R     05
CLI$_MAXPARM   = 00038098            CMD_V_DEFQUAL  = 00000004            QUA_K_ABOR       ********   X   05
CLI$_MULKEY    = 000381A0            CMD_V_DEVNAM   = 00000007            QUA_K_ACCE       ********   X   05
CLI$_NOATFIL   = 000380A0            CMD_V_IMMED    = 00000001            QUA_K_ACCO       ********   X   05
CLI$_NOCCAT    = 000380A8            CMD_V_MAXPARM  = 00000004            QUA_K_ALL        ********   X   05
CLI$_NOCOMD    = 000380B0            CMD_V_MINPARM  = 00000000            QUA_K_ASCI       ********   X   05
CLI$_NOKEYW    = 000380B8            CMD_V_NOEQL    = 00000006            QUA_K_AUTH       ********   X   05
CLI$_NOLIST    = 000380C0            CMD_V_NOSTAT   = 00000003            QUA_K_BADB       ********   X   05
CLI$_NOOPTPRS  = 00038842            CMD_V_OPTION   = 00000000            QUA_K_BATC       ********   X   05
CLI$_NOQUAL    = 000380C8            CMD_V_PAROUT   = 00000002            QUA_K_BLOC       ********   X   05
CLI$_NORMAL    = 00030001            GBL...         = 00000000            QUA_K_BRIE       ********   X   05
MCRDBAS2        - MCR COMMAND DATA BASE MODULE 2                 22-AUG-1978 01:31:13   VAX-11 MACRO X0.3-11               Page  25
SYMBOL TABLE                                                                                                                     (1)

QUA_K_BUFF       ********   X   05   QUA_K_STAT       ********   X   05   VERB_G_INIT      00000034 R     05
QUA_K_BURS       ********   X   05   QUA_K_SUBP       ********   X   05   VERB_G_LINK      00000119 R     05
QUA_K_BYTE       ********   X   05   QUA_K_SUPR       ********   X   05   VERB_G_LOGO      00000190 R     05
QUA_K_CLUS       ********   X   05   QUA_K_SWAP       ********   X   05   VERB_G_MOUN      000001A1 R     05
QUA_K_COMM       ********   X   05   QUA_K_SYSL       ********   X   05   VERB_G_ON        0000023C R     05
QUA_K_CONT       ********   X   05   QUA_K_SYST       ********   X   05   VERB_G_PRIN      00000241 R     05
QUA_K_CROS       ********   X   05   QUA_K_TERM       ********   X   05   VERB_G_PURG      00000248 R     05
QUA_K_DATA       ********   X   05   QUA_K_TIME       ********   X   05   VERB_G_REPL      00000331 R     05
QUA_K_DEBU       ********   X   05   QUA_K_TO         ********   X   05   VERB_G_RUN       00000259 R     05
QUA_K_DECI       ********   X   05   QUA_K_TRAC       ********   X   05
QUA_K_DELA       ********   X   05   QUA_K_UIC        ********   X   05
QUA_K_DENS       ********   X   05   QUA_K_UNLO       ********   X   05
QUA_K_DIRE       ********   X   05   QUA_K_USER       ********   X   05
QUA_K_DISA       ********   X   05   QUA_K_VERI       ********   X   05
QUA_K_DRIV       ********   X   05   QUA_K_VISU       ********   X   05
QUA_K_EBCD       ********   X   05   QUA_K_WIND       ********   X   05
QUA_K_ENAB       ********   X   05   QUA_K_WORD       ********   X   05
QUA_K_ERRO       ********   X   05   QUA_K_WORK       ********   X   05
QUA_K_EXTE       ********   X   05   QUA_K_WRIT       ********   X   05
QUA_K_FILE       ********   X   05   QUA_M_BATDEF   = 00000100
QUA_K_FLAG       ********   X   05   QUA_M_CHNGLIST = 00000001
QUA_K_FORE       ********   X   05   QUA_M_DEFTRUE  = 00000080
QUA_K_FORM       ********   X   05   QUA_M_FILE     = 00000004
QUA_K_FULL       ********   X   05   QUA_M_IMAGE    = 00000400
QUA_K_GENE       ********   X   05   QUA_M_INTDEF   = 00000200
QUA_K_GROU       ********   X   05   QUA_M_KEYVAL   = 00004000
QUA_K_HEAD       ********   X   05   QUA_M_LOCALKEY = 00000002
QUA_K_HEXA       ********   X   05   QUA_M_NEG      = 00000040
QUA_K_INCL       ********   X   05   QUA_M_ONEVAL   = 00002000
QUA_K_INDE       ********   X   05   QUA_M_OUTPUT   = 00000800
QUA_K_INPU       ********   X   05   QUA_M_PARM     = 00000010
QUA_K_INTE       ********   X   05   QUA_M_VAL      = 00000020
QUA_K_JOB_       ********   X   05   QUA_M_VALREQ   = 00001000
QUA_K_KEEP       ********   X   05   QUA_M_VERB     = 00000008
QUA_K_LABE       ********   X   05   QUA_S_MAXPARM  = 00000004
QUA_K_LIBR       ********   X   05   QUA_S_MINPARM  = 00000004
QUA_K_LOG        ********   X   05   QUA_V_BATDEF   = 00000008
QUA_K_LONG       ********   X   05   QUA_V_CHNGLIST = 00000000
QUA_K_MAXI       ********   X   05   QUA_V_DEFTRUE  = 00000007
QUA_K_OCTA       ********   X   05   QUA_V_FILE     = 00000002
QUA_K_OPTI       ********   X   05   QUA_V_IMAGE    = 0000000A
QUA_K_OUTP       ********   X   05   QUA_V_INTDEF   = 00000009
QUA_K_OVER       ********   X   05   QUA_V_KEYVAL   = 0000000E
QUA_K_OWNE       ********   X   05   QUA_V_LOCALKEY = 00000001
QUA_K_PAGE       ********   X   05   QUA_V_MAXPARM  = 00000004
QUA_K_PEND       ********   X   05   QUA_V_MINPARM  = 00000000
QUA_K_PRIO       ********   X   05   QUA_V_NEG      = 00000006
QUA_K_PRIV       ********   X   05   QUA_V_ONEVAL   = 0000000D
QUA_K_PROC       ********   X   05   QUA_V_OUTPUT   = 0000000B
QUA_K_PROT       ********   X   05   QUA_V_PARM     = 00000004
QUA_K_QUEU       ********   X   05   QUA_V_VAL      = 00000005
QUA_K_RECO       ********   X   05   QUA_V_VALREQ   = 0000000C
QUA_K_RESO       ********   X   05   QUA_V_VERB     = 00000003
QUA_K_SCHE       ********   X   05   QUA_W_FLAGS      00000004
QUA_K_SELE       ********   X   05   QUA_W_QUALIST    00000007
QUA_K_SERV       ********   X   05   VERB_G_EXAM      00000000 R     05
QUA_K_SHAR       ********   X   05   VERB_G_EXIT      0000002F R     05
MCRDBAS2        - MCR COMMAND DATA BASE MODULE 2                 22-AUG-1978 01:31:13   VAX-11 MACRO X0.3-11               Page  26
PROGRAM SECTION SYNOPSIS                                                                                                         (1)


PROGRAM SECTION SYNOPSIS

.  ABS  .        00000000      00     NOPIC   USR   CON   ABS   LCL NOSHR NOEXE NORD  NOWRT BYTE
. BLANK .        00000000      01     NOPIC   USR   CON   REL   LCL NOSHR   EXE   RD    WRT BYTE
$ABS$            0000000A      02     NOPIC   USR   CON   ABS   LCL NOSHR   EXE   RD    WRT BYTE
MCR$VERBTBL      0000002C      03     NOPIC   USR   CON   REL   LCL NOSHR   EXE   RD  NOWRT BYTE
MCR$COMDPTR      00000016      04     NOPIC   USR   CON   REL   LCL NOSHR   EXE   RD  NOWRT BYTE
MCR$CMDATA       0000037C      05     NOPIC   USR   CON   REL   LCL NOSHR   EXE   RD  NOWRT BYTE


THERE WERE NO ERRORS OR WARNINGS.
7428. BYTES LEFT IN FREE MEMORY POOL.
1552. BYTES OF RECLAIMED MEMORY.
OBJ$:MCRDBAS2,LIS$:MCRDBAS2/-SP=EXECML$/ML,LIB$:MCR/ML,SRC$:MCRDBAS2
28 MLB DIR RDS - 689 GETS TO DEFINE 30 MACROS. 198 INTER. FILE WRITES.
