MCRDATABL       - MCR COMMAND DATA TABLES                        22-AUG-1978 01:29:02   VAX-11 MACRO X0.3-11               Page   0
TABLE OF CONTENTS

   (1)      80  DEFINE IMAGE NAMES
   (1)     106  DEFINE INTERNAL IMAGE CASE TABLE
   (1)     142  DEFINE QUALIFIER TEXT TABLE
MCRDATABL       - MCR COMMAND DATA TABLES                        22-AUG-1978 01:29:02   VAX-11 MACRO X0.3-11               Page   1
01                                                                                                                               (1)

                                     0000     1 	.TITLE	MCRDATABL - MCR COMMAND DATA TABLES
                                     0000     2 	.IDENT	/01/
                                     0000     3
                                     0000     4 ;
                                     0000     5 ; COPYRIGHT (C) 1977, 1978
                                     0000     6 ; DIGITAL EQUIPMENT CORPORATION, MAYNARD, MASSACHUSETTS 01754
                                     0000     7 ;
                                     0000     8 ; THIS SOFTWARE IS FURNISHED  UNDER A LICENSE FOR USE ONLY ON A SINGLE
                                     0000     9 ; COMPUTER  SYSTEM AND  MAY BE  COPIED ONLY WITH  THE INCLUSION OF THE
                                     0000    10 ; ABOVE COPYRIGHT NOTICE.  THIS SOFTWARE, OR ANY OTHER COPIES THEREOF,
                                     0000    11 ; MAY NOT BE PROVIDED OR  OTHERWISE MADE AVAILABLE TO ANY OTHER PERSON
                                     0000    12 ; EXCEPT FOR USE ON SUCH SYSTEM AND TO ONE WHO AGREES TO THESE LICENSE
                                     0000    13 ; TERMS.  TITLE TO AND  OWNERSHIP OF THE  SOFTWARE  SHALL AT ALL TIMES
                                     0000    14 ; REMAIN IN DEC.
                                     0000    15 ;
                                     0000    16 ; THE INFORMATION IN THIS SOFTWARE IS SUBJECT TO CHANGE WITHOUT NOTICE
                                     0000    17 ; AND SHOULD  NOT BE CONSTRUED  AS A COMMITMENT  BY DIGITAL  EQUIPMENT
                                     0000    18 ; CORPORATION.
                                     0000    19 ;
                                     0000    20 ; DEC ASSUMES  NO  RESPONSIBILITY  FOR  THE USE OR  RELIABILITY OF ITS
                                     0000    21 ; SOFTWARE ON EQUIPMENT WHICH IS NOT SUPPLIED BY DEC.
                                     0000    22 ;
                                     0000    23 ; W. H. BROWN 7-DEC-1977
                                     0000    24 ;
                                     0000    25 ; MCR COMMAND INTERPRETER DATA BASE
                                     0000    26 ;
                                     0000    27 ; MACRO LIBRARY CALLS
                                     0000    28 ;
                                     0000    29
                                     0000    30 	DEFERRCOD			;DEFINE ERROR/STATUS VALUES
                                     0000    31 	DEFOPIMCR			;MCR OUTPUT RESULT PARSE INDIACTORS
                                     0000    32
                                     0000    33 ;
                                     0000    34 ; LOCAL MACROS
                                     0000    35
                                     0000    36 ;
                                     0000    37 ; DEFINE QUALIFER
                                     0000    38 ;
                                     0000    39
                                     0000    40 	.MACRO	DEFQUAL QUAL
                                     0000    41 	.IIF B	<QUAL>, .ERROR		;NO QUALIFIER SPECIFIED
                                     0000    42 QUA_K_'QUAL==<.-MCR$AB_QUALTBL>/4
                                     0000    43 	.NCHR	$$$,QUAL
                                     0000    44 	.IIF	GT	$$$-4,	.ERROR	;QUALIFIER TOO LONG
                                     0000    45 	.ASCII	/QUAL/
                                     0000    46 	.REPT	4-$$$
                                     0000    47 	.ASCII	/ /
                                     0000    48 	.ENDR
                                     0000    49 	.ENDM	DEFQUAL
                                     0000    50
                                     0000    51 ;
                                     0000    52 ; DEFINE EXTERNAL IMAGE NAME
                                     0000    53 ;
                                     0000    54
                                     0000    55 	.MACRO	EXTIMAGE IMAGE
                                     0000    56 	.IIF B	<IMAGE>, .ERROR		;NO IMAGENAME SPECIFIED
                                     0000    57 IMG_K_'IMAGE==$EXTIMAGE$
MCRDATABL       - MCR COMMAND DATA TABLES                        22-AUG-1978 01:29:02   VAX-11 MACRO X0.3-11               Page   2
01                                                                                                                               (1)

                                     0000    58 $EXTIMAGE$=$EXTIMAGE$+1
                                     0000    59 	.ASCIC	\IMAGE\
                                     0000    60 	.ENDM	EXTIMAGE
                                     0000    61
                                     0000    62 ;
                                     0000    63 ; DEFINE INTERNAL IMAGE NAME
                                     0000    64 ;
                                     0000    65
                                     0000    66 	.MACRO	INTIMAGE IMAGE
                                     0000    67 	.IIF B	<IMAGE>, .ERROR		;NO ENTRYNAME SPECIFIED
                                     0000    68 IMG_K_'IMAGE==$INTIMAGE$
                                     0000    69 $INTIMAGE$=$INTIMAGE$+1
                                     0000    70 	.WORD	MCR$'IMAGE-INTIMAGEBASE
                                     0000    71 	.ENDM	INTIMAGE
                                     0000    72
                                     0000    73 ;
                                     0000    74 ; LOCAL SYMBOLS
                                     0000    75 ;
                                     0000    76
                           00000001  0000    77 $MCRDEFQUALBLK$=1			;FORCE GENERATION OF DATA BASE
                           00000001  0000    78 $EXTIMAGE$=1				;EXTERNAL IMAGE NAME INDEX
                           00000080  0000    79 $INTIMAGE$=^X80				;INTERNAL IMAGE NAME INDEX
                                     0000    80 	.SBTTL	DEFINE IMAGE NAMES
                                 00000000    81 	.PSECT	MCR$IMAGETBL,BYTE,RD,NOWRT
                                     0000    82 MCR$AB_IMAGETBL::			;BASE ADDRESS OF IMAGE NAME TABLE
                                     0000    83
                                     0000    84 EXTIMAGE	ANALYZ
                                     0007    85 EXTIMAGE	BACKTRANS
                                     0011    86 EXTIMAGE	BLISS32
                                     0019    87 EXTIMAGE	CANCEL
                                     0020    88 EXTIMAGE	COPY
                                     0025    89 EXTIMAGE	DELETE
                                     002C    90 EXTIMAGE	DISMOUNT
                                     0035    91 EXTIMAGE	INIT
                                     003A    92 EXTIMAGE	LINK
                                     003F    93 EXTIMAGE	PATCH
                                     0045    94 EXTIMAGE	QUEMAN
                                     004C    95 EXTIMAGE	REPLY
                                     0052    96 EXTIMAGE	RUNDET
                                     0059    97 EXTIMAGE	SET
                                     005D    98 EXTIMAGE	SHOW
                                     0062    99 EXTIMAGE	SUBMIT
                                     0069   100 EXTIMAGE	TYPE
                                     006E   101 EXTIMAGE	VMOUNT
                                     0075   102 EXTIMAGE	_ZZ_			;NOP IMAGE
                                     007A   103
                                 80  007A   104 	.BYTE	128			;MARKER BYTE
MCRDATABL       - MCR COMMAND DATA TABLES                        22-AUG-1978 01:29:02   VAX-11 MACRO X0.3-11               Page   3
01              DEFINE INTERNAL IMAGE CASE TABLE                                                                                 (1)

                                     007B   106 	.SBTTL	DEFINE INTERNAL IMAGE CASE TABLE
                                 00000000   107 	.PSECT	MCR$ZCODE,BYTE,RD,NOWRT
                                     0000   108 MCR$INTIMAGE::				;ADDRESS OF INTERNAL IMAGE CASE TABLE
            00            53     8F  0000   109 	CASEB	R3,#0,#<INTIMAGETOP-INTIMAGEBASE>/2-1
                       1A'8F         0003
                                     0005   110 INTIMAGEBASE:				;BASE ADDRESS OF CASE TABLE
                                     0005   111 INTIMAGE	ALLOCATE
                                     0007   112 INTIMAGE	ASSIGN
                                     0009   113 INTIMAGE	CONTINUE
                                     000B   114 INTIMAGE	DEALLOCAT
                                     000D   115 INTIMAGE	DEBUG
                                     000F   116 INTIMAGE	DEPOSIT
                                     0011   117 INTIMAGE	EXAMINE
                                     0013   118 INTIMAGE	EXIT
                                     0015   119 INTIMAGE	EXTIMAGE
                                     0017   120 INTIMAGE	GOTO
                                     0019   121 INTIMAGE	LOGOUT
                                     001B   122 INTIMAGE	ON
                                     001D   123 INTIMAGE	RUN
                                     001F   124 INTIMAGE	SETCTLY
                                     0021   125 INTIMAGE	SETDEFALT
                                     0023   126 INTIMAGE	SETPROT
                                     0025   127 INTIMAGE	SETUIC
                                     0027   128 INTIMAGE	SETON
                                     0029   129 INTIMAGE	SETVERIFY
                                     002B   130 INTIMAGE	SHOWDEF
                                     002D   131 INTIMAGE	SHOWLOG
                                     002F   132 INTIMAGE	SHOWPROT
                                     0031   133 INTIMAGE	SHOWSTAT
                                     0033   134 INTIMAGE	SHOWSYMBL
                                     0035   135 INTIMAGE	SHOWTIME
                                     0037   136 INTIMAGE	SHOWTRAN
                                     0039   137 INTIMAGE	STOP
                                     003B   138 INTIMAGETOP:				;TOP ADDRESS OF CASE TABLE
            50       0000'8F     3C  003B   139 	MOVZWL	#SS$_ILLSER,R0		;SET SERVICE ERROR
                                 05  0040   140 	RSB				;
MCRDATABL       - MCR COMMAND DATA TABLES                        22-AUG-1978 01:29:02   VAX-11 MACRO X0.3-11               Page   4
01              DEFINE QUALIFIER TEXT TABLE                                                                                      (1)

                                     0041   142 	.SBTTL	DEFINE QUALIFIER TEXT TABLE
                                 00000000   143 	.PSECT	MCR$QUALTBL,BYTE,RD,NOWRT
                                     0000   144 MCR$AB_QUALTBL::			;BASE ADDRESS OF QUALIFIER TABLE
                                     0000   145
                                     0000   146 DEFQUAL		ABOR
                                     0004   147 DEFQUAL		ACCE
                                     0008   148 DEFQUAL		ACCO
                                     000C   149 DEFQUAL		AFTE
                                     0010   150 DEFQUAL		ALIG
                                     0014   151 DEFQUAL		ALL
                                     0018   152 DEFQUAL		ALLO
                                     001C   153 DEFQUAL		ASCI
                                     0020   154 DEFQUAL		AUTH
                                     0024   155 DEFQUAL		BACK
                                     0028   156 DEFQUAL		BADB
                                     002C   157 DEFQUAL		BATC
                                     0030   158 DEFQUAL		BINA
                                     0034   159 DEFQUAL		BLAN
                                     0038   160 DEFQUAL		BLOC
                                     003C   161 DEFQUAL		BRIE
                                     0040   162 DEFQUAL		BROA
                                     0044   163 DEFQUAL		BURS
                                     0048   164 DEFQUAL		BUFF
                                     004C   165 DEFQUAL		BYTE
                                     0050   166 DEFQUAL		CARD
                                     0054   167 DEFQUAL		CHAN
                                     0058   168 DEFQUAL		CLUS
                                     005C   169 DEFQUAL		CODE
                                     0060   170 DEFQUAL		COLU
                                     0064   171 DEFQUAL		COMM
                                     0068   172 DEFQUAL		CONC
                                     006C   173 DEFQUAL		CONT
                                     0070   174 DEFQUAL		COPI
                                     0074   175 DEFQUAL		CREA
                                     0078   176 DEFQUAL		CROS
                                     007C   177 DEFQUAL		DATA
                                     0080   178 DEFQUAL		DAYT
                                     0084   179 DEFQUAL		DEBU
                                     0088   180 DEFQUAL		DECI
                                     008C   181 DEFQUAL		DEFA
                                     0090   182 DEFQUAL		DELA
                                     0094   183 DEFQUAL		DELE
                                     0098   184 DEFQUAL		DENS
                                     009C   185 DEFQUAL		DEVI
                                     00A0   186 DEFQUAL		DIRE
                                     00A4   187 DEFQUAL		DISA
                                     00A8   188 DEFQUAL		DISK
                                     00AC   189 DEFQUAL		DOS1
                                     00B0   190 DEFQUAL		DRIV
                                     00B4   191 DEFQUAL		EBCD
                                     00B8   192 DEFQUAL		ENAB
                                     00BC   193 DEFQUAL		ENTR
                                     00C0   194 DEFQUAL		ERRO
                                     00C4   195 DEFQUAL		EXEC
                                     00C8   196 DEFQUAL		EXTE
                                     00CC   197 DEFQUAL		EXIT
                                     00D0   198 DEFQUAL		FEED
MCRDATABL       - MCR COMMAND DATA TABLES                        22-AUG-1978 01:29:02   VAX-11 MACRO X0.3-11               Page   5
01              DEFINE QUALIFIER TEXT TABLE                                                                                      (1)

                                     00D4   199 DEFQUAL		FILE
                                     00D8   200 DEFQUAL		FLAG
                                     00DC   201 DEFQUAL		FORE
                                     00E0   202 DEFQUAL		FORM
                                     00E4   203 DEFQUAL		FORW
                                     00E8   204 DEFQUAL		FULL
                                     00EC   205 DEFQUAL		GENE
                                     00F0   206 DEFQUAL		GLOB
                                     00F4   207 DEFQUAL		GROU
                                     00F8   208 DEFQUAL		HASH
                                     00FC   209 DEFQUAL		HEAD
                                     0100   210 DEFQUAL		HEXA
                                     0104   211 DEFQUAL		HOLD
                                     0108   212 DEFQUAL		IDEN
                                     010C   213 DEFQUAL		IMAG
                                     0110   214 DEFQUAL		INCL
                                     0114   215 DEFQUAL		INDE
                                     0118   216 DEFQUAL		INPU
                                     011C   217 DEFQUAL		INTE
                                     0120   218 DEFQUAL		JOB_
                                     0124   219 DEFQUAL		JOUR
                                     0128   220 DEFQUAL		KEEP
                                     012C   221 DEFQUAL		LABE
                                     0130   222 DEFQUAL		LIBR
                                     0134   223 DEFQUAL		LIMI
                                     0138   224 DEFQUAL		LINE
                                     013C   225 DEFQUAL		LIST
                                     0140   226 DEFQUAL		LOCA
                                     0144   227 DEFQUAL		LOG
                                     0148   228 DEFQUAL		LOGI
                                     014C   229 DEFQUAL		LONG
                                     0150   230 DEFQUAL		LOWE
                                     0154   231 DEFQUAL		MACH
                                     0158   232 DEFQUAL		MAGT
                                     015C   233 DEFQUAL		MAP
                                     0160   234 DEFQUAL		MATC
                                     0164   235 DEFQUAL		MAXI
                                     0168   236 DEFQUAL		MODE
                                     016C   237 DEFQUAL		MOUN
                                     0170   238 DEFQUAL		MULT
                                     0174   239 DEFQUAL		NAME
                                     0178   240 DEFQUAL		NEW_
                                     017C   241 DEFQUAL		NEXT
                                     0180   242 DEFQUAL		OBJE
                                     0184   243 DEFQUAL		OCTA
                                     0188   244 DEFQUAL		ON
                                     018C   245 DEFQUAL		OPTI
                                     0190   246 DEFQUAL		OUTP
                                     0194   247 DEFQUAL		OVER
                                     0198   248 DEFQUAL		OWNE
                                     019C   249 DEFQUAL		PAGE
                                     01A0   250 DEFQUAL		PASS
                                     01A4   251 DEFQUAL		PARA
                                     01A8   252 DEFQUAL		PEND
                                     01AC   253 DEFQUAL		POSI
                                     01B0   254 DEFQUAL		PRIN
                                     01B4   255 DEFQUAL		PRIO
MCRDATABL       - MCR COMMAND DATA TABLES                        22-AUG-1978 01:29:02   VAX-11 MACRO X0.3-11               Page   6
01              DEFINE QUALIFIER TEXT TABLE                                                                                      (1)

                                     01B8   256 DEFQUAL		PRIV
                                     01BC   257 DEFQUAL		PROC
                                     01C0   258 DEFQUAL		PROT
                                     01C4   259 DEFQUAL		QUEU
                                     01C8   260 DEFQUAL		QUIC
                                     01CC   261 DEFQUAL		QUOT
                                     01D0   262 DEFQUAL		READ
                                     01D4   263 DEFQUAL		RECO
                                     01D8   264 DEFQUAL		RELA
                                     01DC   265 DEFQUAL		RELE
                                     01E0   266 DEFQUAL		REMO
                                     01E4   267 DEFQUAL		REPL
                                     01E8   268 DEFQUAL		RESO
                                     01EC   269 DEFQUAL		RMS_
                                     01F0   270 DEFQUAL		RSX1
                                     01F4   271 DEFQUAL		RT11
                                     01F8   272 DEFQUAL		SCHE
                                     01FC   273 DEFQUAL		SELE
                                     0200   274 DEFQUAL		SEQU
                                     0204   275 DEFQUAL		SERV
                                     0208   276 DEFQUAL		SHAR
                                     020C   277 DEFQUAL		SLP
                                     0210   278 DEFQUAL		SOUR
                                     0214   279 DEFQUAL		SPAC
                                     0218   280 DEFQUAL		STAT
                                     021C   281 DEFQUAL		SUBP
                                     0220   282 DEFQUAL		SUPR
                                     0224   283 DEFQUAL		SWAP
                                     0228   284 DEFQUAL		SYMB
                                     022C   285 DEFQUAL		SYSL
                                     0230   286 DEFQUAL		SYST
                                     0234   287 DEFQUAL		TERM
                                     0238   288 DEFQUAL		TIME
                                     023C   289 DEFQUAL		TO
                                     0240   290 DEFQUAL		TOP_
                                     0244   291 DEFQUAL		TRAC
                                     0248   292 DEFQUAL		TRAN
                                     024C   293 DEFQUAL		TRAI
                                     0250   294 DEFQUAL		TRUN
                                     0254   295 DEFQUAL		TYPE
                                     0258   296 DEFQUAL		UIC
                                     025C   297 DEFQUAL		UNLO
                                     0260   298 DEFQUAL		UNIT
                                     0264   299 DEFQUAL		UPDA
                                     0268   300 DEFQUAL		UPPE
                                     026C   301 DEFQUAL		USER
                                     0270   302 DEFQUAL		VARI
                                     0274   303 DEFQUAL		VERI
                                     0278   304 DEFQUAL		VISU
                                     027C   305 DEFQUAL		VOLU
                                     0280   306 DEFQUAL		WIDT
                                     0284   307 DEFQUAL		WIND
                                     0288   308 DEFQUAL		WORD
                                     028C   309 DEFQUAL		WORK
                                     0290   310 DEFQUAL		WORL
                                     0294   311 DEFQUAL		WRIT
                                     0298   312 DEFQUAL		ZZZZ
MCRDATABL       - MCR COMMAND DATA TABLES                        22-AUG-1978 01:29:02   VAX-11 MACRO X0.3-11               Page   7
01              DEFINE QUALIFIER TEXT TABLE                                                                                      (1)

                                     029C   313
                                     029C   314 	.END
MCRDATABL       - MCR COMMAND DATA TABLES                        22-AUG-1978 01:29:02   VAX-11 MACRO X0.3-11               Page   8
SYMBOL TABLE                                                                                                                     (1)

$$$            = 00000004            CLI$_ONERR     = 000380F8            IMG_K_SETVERIFY= 00000092  G
$EXTIMAGE$     = 00000014            CLI$_ONEVAL    = 00038158            IMG_K_SHOW     = 0000000F  G
$INTIMAGE$     = 0000009B            CLI$_ONLEVL    = 00038100            IMG_K_SHOWDEF  = 00000093  G
$MCRDEFQUALBLK$= 00000001            CLI$_ONOVF     = 00038108            IMG_K_SHOWLOG  = 00000094  G
BIT...         = FFFFFFFE            CLI$_OVRFLW    = 00038160            IMG_K_SHOWPROT = 00000095  G
CLI$_ABFNAM    = 000381B8            CLI$_PARMDEL   = 00038110            IMG_K_SHOWSTAT = 00000096  G
CLI$_ABKEYW    = 00038000            CLI$_PROC_ID   = 0003FFF1            IMG_K_SHOWSYMBL= 00000097  G
CLI$_ABVERB    = 00038008            CLI$_QUEJOBCRE = 0003FFF9            IMG_K_SHOWTIME = 00000098  G
CLI$_BADRET    = 00038198            CLI$_REQPRMABS = 00038812            IMG_K_SHOWTRAN = 00000099  G
CLI$_BADTEXT   = 000381B0            CLI$_RSLOVF    = 00038118            IMG_K_STOP     = 0000009A  G
CLI$_BUFOVF    = 00038018            CLI$_SKPDAT    = 00038120            IMG_K_SUBMIT   = 00000010  G
CLI$_COMPLX    = 00038020            CLI$_SPARE0    = 00038010            IMG_K_TYPE     = 00000011  G
CLI$_CONFQUAL  = 00038802            CLI$_SPARE1    = 00038058            IMG_K_VMOUNT   = 00000012  G
CLI$_CREQUEJOB = 0003884A            CLI$_STKOVF    = 00038128            IMG_K__ZZ_     = 00000013  G
CLI$_DEFOVF    = 00038028            CLI$_SUBMITERR = 00038852            INTIMAGEBASE     00000005 R     04
CLI$_DEVALSPL  = 0003885A            CLI$_SYMDEL    = 00038130            INTIMAGETOP      0000003B R     04
CLI$_DEVNOTFOR = 0003887A            CLI$_SYMOVF    = 00038138            MCR$AB_IMAGETBL  00000000 RG    03
CLI$_DEVNOTSPL = 00038862            CLI$_UNDFIL    = 00038188            MCR$AB_QUALTBL   00000000 RG    05
CLI$_DIRECT    = 00038030            CLI$_UNDSYM    = 00038140            MCR$ALLOCATE     ********   X   04
CLI$_EXPSYN    = 00038038            CLI$_UNPROPARM = 00038170            MCR$ASSIGN       ********   X   04
CLI$_FILOPN    = 00038190            CLI$_UNPROQUAL = 00038168            MCR$CONTINUE     ********   X   04
CLI$_ILLVAL    = 0003883A            CLI$_USGOTO    = 00038148            MCR$DEALLOCAT    ********   X   04
CLI$_IMCHNG    = 00038040            CLI$_VALCNVERR = 00038832            MCR$DEBUG        ********   X   04
CLI$_IMGFNF    = 00038872            CLI$_VALREQ    = 00038150            MCR$DEPOSIT      ********   X   04
CLI$_INSFPRM   = 00038048            GBL...         = 00000000            MCR$EXAMINE      ********   X   04
CLI$_INVKEY    = 00038178            IMG_K_ALLOCATE = 00000080  G         MCR$EXIT         ********   X   04
CLI$_INVQUAL   = 0003880A            IMG_K_ANALYZ   = 00000001  G         MCR$EXTIMAGE     ********   X   04
CLI$_INVQUALNUM= 0003881A            IMG_K_ASSIGN   = 00000081  G         MCR$GOTO         ********   X   04
CLI$_INVREQTYP = 00038822            IMG_K_BACKTRANS= 00000002  G         MCR$INTIMAGE     00000000 RG    04
CLI$_INVRSP    = 00038180            IMG_K_BLISS32  = 00000003  G         MCR$LOGOUT       ********   X   04
CLI$_INVUIC    = 000381A8            IMG_K_CANCEL   = 00000004  G         MCR$ON           ********   X   04
CLI$_IVCHAR    = 00038050            IMG_K_CONTINUE = 00000082  G         MCR$RUN          ********   X   04
CLI$_IVDEVTYPE = 0003886A            IMG_K_COPY     = 00000005  G         MCR$SETCTLY      ********   X   04
CLI$_IVFNAM    = 000381C0            IMG_K_DEALLOCAT= 00000083  G         MCR$SETDEFALT    ********   X   04
CLI$_IVKEYW    = 00038060            IMG_K_DEBUG    = 00000084  G         MCR$SETON        ********   X   04
CLI$_IVOPER    = 00038068            IMG_K_DELETE   = 00000006  G         MCR$SETPROT      ********   X   04
CLI$_IVPROT    = 00038070            IMG_K_DEPOSIT  = 00000085  G         MCR$SETUIC       ********   X   04
CLI$_IVQLOC    = 00038078            IMG_K_DISMOUNT = 00000007  G         MCR$SETVERIFY    ********   X   04
CLI$_IVSYMB    = 00038080            IMG_K_EXAMINE  = 00000086  G         MCR$SHOWDEF      ********   X   04
CLI$_IVVALU    = 00038088            IMG_K_EXIT     = 00000087  G         MCR$SHOWLOG      ********   X   04
CLI$_IVVERB    = 00038090            IMG_K_EXTIMAGE = 00000088  G         MCR$SHOWPROT     ********   X   04
CLI$_MAXPARM   = 00038098            IMG_K_GOTO     = 00000089  G         MCR$SHOWSTAT     ********   X   04
CLI$_MULKEY    = 000381A0            IMG_K_INIT     = 00000008  G         MCR$SHOWSYMBL    ********   X   04
CLI$_NOATFIL   = 000380A0            IMG_K_LINK     = 00000009  G         MCR$SHOWTIME     ********   X   04
CLI$_NOCCAT    = 000380A8            IMG_K_LOGOUT   = 0000008A  G         MCR$SHOWTRAN     ********   X   04
CLI$_NOCOMD    = 000380B0            IMG_K_ON       = 0000008B  G         MCR$STOP         ********   X   04
CLI$_NOKEYW    = 000380B8            IMG_K_PATCH    = 0000000A  G         OPI_K_MCRUTLIST= FFFFFFFF
CLI$_NOLIST    = 000380C0            IMG_K_QUEMAN   = 0000000B  G         QUA_K_ABOR     = 00000000  G
CLI$_NOOPTPRS  = 00038842            IMG_K_REPLY    = 0000000C  G         QUA_K_ACCE     = 00000001  G
CLI$_NOQUAL    = 000380C8            IMG_K_RUN      = 0000008C  G         QUA_K_ACCO     = 00000002  G
CLI$_NORMAL    = 00030001            IMG_K_RUNDET   = 0000000D  G         QUA_K_AFTE     = 00000003  G
CLI$_NOTNEG    = 000380D8            IMG_K_SET      = 0000000E  G         QUA_K_ALIG     = 00000004  G
CLI$_NOVALU    = 000380D0            IMG_K_SETCTLY  = 0000008D  G         QUA_K_ALL      = 00000005  G
CLI$_NOVALUE   = 0003882A            IMG_K_SETDEFALT= 0000008E  G         QUA_K_ALLO     = 00000006  G
CLI$_NULFIL    = 000380E0            IMG_K_SETON    = 00000091  G         QUA_K_ASCI     = 00000007  G
CLI$_NUMBER    = 000380E8            IMG_K_SETPROT  = 0000008F  G         QUA_K_AUTH     = 00000008  G
CLI$_ONCOMD    = 000380F0            IMG_K_SETUIC   = 00000090  G         QUA_K_BACK     = 00000009  G
MCRDATABL       - MCR COMMAND DATA TABLES                        22-AUG-1978 01:29:02   VAX-11 MACRO X0.3-11               Page   9
SYMBOL TABLE                                                                                                                     (1)

QUA_K_BADB     = 0000000A  G         QUA_K_IMAG     = 00000043  G         QUA_K_RSX1     = 0000007C  G
QUA_K_BATC     = 0000000B  G         QUA_K_INCL     = 00000044  G         QUA_K_RT11     = 0000007D  G
QUA_K_BINA     = 0000000C  G         QUA_K_INDE     = 00000045  G         QUA_K_SCHE     = 0000007E  G
QUA_K_BLAN     = 0000000D  G         QUA_K_INPU     = 00000046  G         QUA_K_SELE     = 0000007F  G
QUA_K_BLOC     = 0000000E  G         QUA_K_INTE     = 00000047  G         QUA_K_SEQU     = 00000080  G
QUA_K_BRIE     = 0000000F  G         QUA_K_JOB_     = 00000048  G         QUA_K_SERV     = 00000081  G
QUA_K_BROA     = 00000010  G         QUA_K_JOUR     = 00000049  G         QUA_K_SHAR     = 00000082  G
QUA_K_BUFF     = 00000012  G         QUA_K_KEEP     = 0000004A  G         QUA_K_SLP      = 00000083  G
QUA_K_BURS     = 00000011  G         QUA_K_LABE     = 0000004B  G         QUA_K_SOUR     = 00000084  G
QUA_K_BYTE     = 00000013  G         QUA_K_LIBR     = 0000004C  G         QUA_K_SPAC     = 00000085  G
QUA_K_CARD     = 00000014  G         QUA_K_LIMI     = 0000004D  G         QUA_K_STAT     = 00000086  G
QUA_K_CHAN     = 00000015  G         QUA_K_LINE     = 0000004E  G         QUA_K_SUBP     = 00000087  G
QUA_K_CLUS     = 00000016  G         QUA_K_LIST     = 0000004F  G         QUA_K_SUPR     = 00000088  G
QUA_K_CODE     = 00000017  G         QUA_K_LOCA     = 00000050  G         QUA_K_SWAP     = 00000089  G
QUA_K_COLU     = 00000018  G         QUA_K_LOG      = 00000051  G         QUA_K_SYMB     = 0000008A  G
QUA_K_COMM     = 00000019  G         QUA_K_LOGI     = 00000052  G         QUA_K_SYSL     = 0000008B  G
QUA_K_CONC     = 0000001A  G         QUA_K_LONG     = 00000053  G         QUA_K_SYST     = 0000008C  G
QUA_K_CONT     = 0000001B  G         QUA_K_LOWE     = 00000054  G         QUA_K_TERM     = 0000008D  G
QUA_K_COPI     = 0000001C  G         QUA_K_MACH     = 00000055  G         QUA_K_TIME     = 0000008E  G
QUA_K_CREA     = 0000001D  G         QUA_K_MAGT     = 00000056  G         QUA_K_TO       = 0000008F  G
QUA_K_CROS     = 0000001E  G         QUA_K_MAP      = 00000057  G         QUA_K_TOP_     = 00000090  G
QUA_K_DATA     = 0000001F  G         QUA_K_MATC     = 00000058  G         QUA_K_TRAC     = 00000091  G
QUA_K_DAYT     = 00000020  G         QUA_K_MAXI     = 00000059  G         QUA_K_TRAI     = 00000093  G
QUA_K_DEBU     = 00000021  G         QUA_K_MODE     = 0000005A  G         QUA_K_TRAN     = 00000092  G
QUA_K_DECI     = 00000022  G         QUA_K_MOUN     = 0000005B  G         QUA_K_TRUN     = 00000094  G
QUA_K_DEFA     = 00000023  G         QUA_K_MULT     = 0000005C  G         QUA_K_TYPE     = 00000095  G
QUA_K_DELA     = 00000024  G         QUA_K_NAME     = 0000005D  G         QUA_K_UIC      = 00000096  G
QUA_K_DELE     = 00000025  G         QUA_K_NEW_     = 0000005E  G         QUA_K_UNIT     = 00000098  G
QUA_K_DENS     = 00000026  G         QUA_K_NEXT     = 0000005F  G         QUA_K_UNLO     = 00000097  G
QUA_K_DEVI     = 00000027  G         QUA_K_OBJE     = 00000060  G         QUA_K_UPDA     = 00000099  G
QUA_K_DIRE     = 00000028  G         QUA_K_OCTA     = 00000061  G         QUA_K_UPPE     = 0000009A  G
QUA_K_DISA     = 00000029  G         QUA_K_ON       = 00000062  G         QUA_K_USER     = 0000009B  G
QUA_K_DISK     = 0000002A  G         QUA_K_OPTI     = 00000063  G         QUA_K_VARI     = 0000009C  G
QUA_K_DOS1     = 0000002B  G         QUA_K_OUTP     = 00000064  G         QUA_K_VERI     = 0000009D  G
QUA_K_DRIV     = 0000002C  G         QUA_K_OVER     = 00000065  G         QUA_K_VISU     = 0000009E  G
QUA_K_EBCD     = 0000002D  G         QUA_K_OWNE     = 00000066  G         QUA_K_VOLU     = 0000009F  G
QUA_K_ENAB     = 0000002E  G         QUA_K_PAGE     = 00000067  G         QUA_K_WIDT     = 000000A0  G
QUA_K_ENTR     = 0000002F  G         QUA_K_PARA     = 00000069  G         QUA_K_WIND     = 000000A1  G
QUA_K_ERRO     = 00000030  G         QUA_K_PASS     = 00000068  G         QUA_K_WORD     = 000000A2  G
QUA_K_EXEC     = 00000031  G         QUA_K_PEND     = 0000006A  G         QUA_K_WORK     = 000000A3  G
QUA_K_EXIT     = 00000033  G         QUA_K_POSI     = 0000006B  G         QUA_K_WORL     = 000000A4  G
QUA_K_EXTE     = 00000032  G         QUA_K_PRIN     = 0000006C  G         QUA_K_WRIT     = 000000A5  G
QUA_K_FEED     = 00000034  G         QUA_K_PRIO     = 0000006D  G         QUA_K_ZZZZ     = 000000A6  G
QUA_K_FILE     = 00000035  G         QUA_K_PRIV     = 0000006E  G         SS$_ILLSER       ********   X   04
QUA_K_FLAG     = 00000036  G         QUA_K_PROC     = 0000006F  G
QUA_K_FORE     = 00000037  G         QUA_K_PROT     = 00000070  G
QUA_K_FORM     = 00000038  G         QUA_K_QUEU     = 00000071  G
QUA_K_FORW     = 00000039  G         QUA_K_QUIC     = 00000072  G
QUA_K_FULL     = 0000003A  G         QUA_K_QUOT     = 00000073  G
QUA_K_GENE     = 0000003B  G         QUA_K_READ     = 00000074  G
QUA_K_GLOB     = 0000003C  G         QUA_K_RECO     = 00000075  G
QUA_K_GROU     = 0000003D  G         QUA_K_RELA     = 00000076  G
QUA_K_HASH     = 0000003E  G         QUA_K_RELE     = 00000077  G
QUA_K_HEAD     = 0000003F  G         QUA_K_REMO     = 00000078  G
QUA_K_HEXA     = 00000040  G         QUA_K_REPL     = 00000079  G
QUA_K_HOLD     = 00000041  G         QUA_K_RESO     = 0000007A  G
QUA_K_IDEN     = 00000042  G         QUA_K_RMS_     = 0000007B  G
MCRDATABL       - MCR COMMAND DATA TABLES                        22-AUG-1978 01:29:02   VAX-11 MACRO X0.3-11               Page  10
PROGRAM SECTION SYNOPSIS                                                                                                         (1)


PROGRAM SECTION SYNOPSIS

.  ABS  .        00000000      00     NOPIC   USR   CON   ABS   LCL NOSHR NOEXE NORD  NOWRT BYTE
. BLANK .        00000000      01     NOPIC   USR   CON   REL   LCL NOSHR   EXE   RD    WRT BYTE
$ABS$            00000000      02     NOPIC   USR   CON   ABS   LCL NOSHR   EXE   RD    WRT BYTE
MCR$IMAGETBL     0000007B      03     NOPIC   USR   CON   REL   LCL NOSHR   EXE   RD  NOWRT BYTE
MCR$ZCODE        00000041      04     NOPIC   USR   CON   REL   LCL NOSHR   EXE   RD  NOWRT BYTE
MCR$QUALTBL      0000029C      05     NOPIC   USR   CON   REL   LCL NOSHR   EXE   RD  NOWRT BYTE


THERE WERE NO ERRORS OR WARNINGS.
20012. BYTES LEFT IN FREE MEMORY POOL.
OBJ$:MCRDATABL,LIS$:MCRDATABL/-SP=EXECML$/ML,LIB$:MCR/ML,SRC$:MCRDATABL
15 MLB DIR RDS - 157 GETS TO DEFINE 9 MACROS. 30 INTER. FILE WRITES.
