MCRDBAS4        - MCR COMMAND DATA BASE MODULE 4                 22-AUG-1978 01:35:00   VAX-11 MACRO X0.3-11               Page   0
TABLE OF CONTENTS

   (1)      46  DEFINE MCR COMMANDS
MCRDBAS4        - MCR COMMAND DATA BASE MODULE 4                 22-AUG-1978 01:35:00   VAX-11 MACRO X0.3-11               Page   1
01                                                                                                                               (1)

                                     0000     1 	.TITLE	MCRDBAS4 - MCR COMMAND DATA BASE MODULE 4
                                     0000     2 	.IDENT	/01/
                                     0000     3
                                     0000     4 ;
                                     0000     5 ; COPYRIGHT (C) 1977, 1978
                                     0000     6 ; DIGITAL EQUIPMENT CORPORATION, MAYNARD, MASSACHUSETTS 01754
                                     0000     7 ;
                                     0000     8 ; THIS SOFTWARE IS FURNISHED  UNDER A LICENSE FOR USE ONLY ON A SINGLE
                                     0000     9 ; COMPUTER  SYSTEM AND  MAY BE  COPIED ONLY WITH  THE INCLUSION OF THE
                                     0000    10 ; ABOVE COPYRIGHT NOTICE.  THIS SOFTWARE, OR ANY OTHER COPIES THEREOF,
                                     0000    11 ; MAY NOT BE PROVIDED OR  OTHERWISE MADE AVAILABLE TO ANY OTHER PERSON
                                     0000    12 ; EXCEPT FOR USE ON SUCH SYSTEM AND TO ONE WHO AGREES TO THESE LICENSE
                                     0000    13 ; TERMS.  TITLE TO AND  OWNERSHIP OF THE  SOFTWARE  SHALL AT ALL TIMES
                                     0000    14 ; REMAIN IN DEC.
                                     0000    15 ;
                                     0000    16 ; THE INFORMATION IN THIS SOFTWARE IS SUBJECT TO CHANGE WITHOUT NOTICE
                                     0000    17 ; AND SHOULD  NOT BE CONSTRUED  AS A COMMITMENT  BY DIGITAL  EQUIPMENT
                                     0000    18 ; CORPORATION.
                                     0000    19 ;
                                     0000    20 ; DEC ASSUMES  NO  RESPONSIBILITY  FOR  THE USE OR  RELIABILITY OF ITS
                                     0000    21 ; SOFTWARE ON EQUIPMENT WHICH IS NOT SUPPLIED BY DEC.
                                     0000    22 ;
                                     0000    23 ; W. H. BROWN 7-DEC-1977
                                     0000    24 ;
                                     0000    25 ; MCR COMMAND INTERPRETER DATA BASE
                                     0000    26 ;
                                     0000    27 ; MACRO LIBRARY CALLS
                                     0000    28 ;
                                     0000    29
                                     0000    30 	$CLIVERBDEF			; DEFINE GENERIC VERB TYPES
                                     0000    31 	.MACRO	$CLIVERBDEF
                                     0000    32 	.ENDM
                                     0000    33 	DEFERRCOD			; DEFINE ERROR/STATUS VALUES
                                     0000    34 	DEFOPIMCR			; MCR OUTPUT RESULT PARSE INDIACTORS
                                     0000    35
                                     0000    36 ;
                                     0000    37 ; LOCAL MACROS
                                     0000    38
                                     0000    39 ;
                                     0000    40 ; LOCAL SYMBOLS
                                     0000    41 ;
                                     0000    42
                                     0000    43
                                     0000    44 	.LIST	MEB
MCRDBAS4        - MCR COMMAND DATA BASE MODULE 4                 22-AUG-1978 01:35:00   VAX-11 MACRO X0.3-11               Page   2
01              DEFINE MCR COMMANDS                                                                                              (1)

                                     0000    46 	.SBTTL	DEFINE MCR COMMANDS
                                     0000    47
                                     0000    48 	DEFCMD	STAR,-			; THE START COMMAND
                                     0000    49 		QUAL=YES,-		; COMMAND HAS QUALIFIERS
                                     0000    50 		MINPRM=1,-		; MINIMUM NUMBER OF PARAMETERS
                                     0000    51 		MAXPRM=1,-		; MAXIMUM NUMBER OF PARAMETERS
                                     0000    52 		DEFIMG=_ZZ_		; DEFAULT IMAGE
                                     0000       	.SAVE
                                 00000000       	.PSECT	$ABS$,ABS
                                     0000       CMD_B_VERBTYP:
                           00000001  0000       	.BLKB	1
                                     0001       CMD_B_PARMCNT:
                           00000002  0001       	.BLKB	1
                                     0002       CMD_B_DEFIMG:
                           00000003  0002       	.BLKB	1
                                     0003       CMD_B_QUABLK:
                           00000004  0003       	.BLKB	1
                                     0004       CMD_B_FLAGS:
                           00000005  0004       	.BLKB	1
                                     0005       CMD_AB_PAROUT:
                           00000006  0005       	.BLKB	1
                                     0000       	.RESTORE
                                     0000       	.SAVE
                                 00000006       	.PSECT	$ABS$,ABS
                           00000000  0006       	.=0
                                     0000       PRO_B_PROMPT:
                           00000001  0000       	.BLKB	1
                                     0001       PRO_B_FLAGS:
                           00000002  0001       	.BLKB	1
                                     0002       PRO_K_LENGTH:
                                     0000       	.RESTORE
                                     0000       	.LIST
                                 00000000       	.PSECT	MCR$VERBTBL,BYTE,RD,NOWRT
                                 D3  0000       	.BYTE	^A/S/!$XX$
                                 54  0001       	.BYTE	^A/T/!$XX$
                                 41  0002       	.BYTE	^A/A/!$XX$
                                 52  0003       	.BYTE	^A/R/!$XX$
                                     0004       	.LIST
                                 00000000       	.PSECT	MCR$COMDPTR,BYTE,RD,NOWRT
                               FFFE' 0000       	.WORD	VERB_G_STAR-.-2
                                     0002       	.LIST
                                 00000000       	.PSECT	MCR$CMDATA,BYTE,RD,NOWRT
                                     0000       VERB_G_STAR:
                                 27  0000       	.BYTE	CLI$K_VERB_STAR
                                 11  0001       	.BYTE	1*16!1
                                 00' 0002       	.BYTE	IMG_K__ZZ_
                                 01' 0003       	.BYTE	QUA_G_STAR-.-1
                                 00  0004       	.BYTE	$$$
                                     0005       	.SAVE
                                 00000006       	.PSECT	$ABS$,ABS
                           00000000  0006       	.=0
                                     0000       QUA_B_OFFSET:
                           00000001  0000       	.BLKB	1
                                     0001       QUA_B_CODE:
                           00000002  0001       	.BLKB	1
                                     0002       QUA_B_INDEX:
                           00000003  0002       	.BLKB	1
MCRDBAS4        - MCR COMMAND DATA BASE MODULE 4                 22-AUG-1978 01:35:00   VAX-11 MACRO X0.3-11               Page   3
01              DEFINE MCR COMMANDS                                                                                              (1)

                                     0003       QUA_B_DEFVAL:
                           00000004  0003       	.BLKB	1
                                     0004       QUA_W_FLAGS:
                           00000006  0004       	.BLKW	1
                                     0006       QUA_B_IMAGE:
                           00000007  0006       	.BLKB	1
                                     0007       QUA_G_CHNGLST:
                                     0007       QUA_W_QUALIST:
                           00000009  0007       	.BLKW	1
                                     0009       QUA_B_PARMCNT:
                           0000000A  0009       	.BLKB	1
                                 00000005       	.RESTORE
                                     0005       	.SAVE
                                 00000005       	.PSECT	MCR$CMDATA,BYTE,RD,NOWRT
                                     0005       QUA_G_STAR:
                                 09' 0005       30001$:	.BYTE	30004$-30001$
                                 00' 0006       	.BYTE	CLI$K_STAR_BACK
                                 00' 0007       	.BYTE	QUA_K_BACK
                                 07' 0008       	.IIF NB	<1>,	.BYTE	30002$-30001$
                               2428  0009       	.WORD	$$$
                                 00' 000B       	.BYTE	IMG_K_QUEMAN
                              31 00' 000C       30002$:	.ASCIC	\1\
                                 01  000C
                                     000E       30004$:
                                 07' 000E       30005$:	.BYTE	30008$-30005$
                                 00' 000F       	.BYTE	CLI$K_STAR_BATC
                                 00' 0010       	.BYTE	QUA_K_BATC
                                 00  0011       	.IIF B <>,	.BYTE	0
                               0448  0012       	.WORD	$$$
                                 00' 0014       	.BYTE	IMG_K_QUEMAN
                                     0015       30008$:
                                 07' 0015       30009$:	.BYTE	30012$-30009$
                                 00' 0016       	.BYTE	CLI$K_STAR_BURS
                                 00' 0017       	.BYTE	QUA_K_BURS
                                 00  0018       	.IIF B <>,	.BYTE	0
                               0448  0019       	.WORD	$$$
                                 00' 001B       	.BYTE	IMG_K_QUEMAN
                                     001C       30012$:
                                 07' 001C       30013$:	.BYTE	30016$-30013$
                                 00' 001D       	.BYTE	CLI$K_STAR_DISA
                                 00' 001E       	.BYTE	QUA_K_DISA
                                 00  001F       	.IIF B <>,	.BYTE	0
                               0448  0020       	.WORD	$$$
                                 00' 0022       	.BYTE	IMG_K_QUEMAN
                                     0023       30016$:
                                 07' 0023       30017$:	.BYTE	30020$-30017$
                                 00' 0024       	.BYTE	CLI$K_STAR_ENAB
                                 00' 0025       	.BYTE	QUA_K_ENAB
                                 00  0026       	.IIF B <>,	.BYTE	0
                               0448  0027       	.WORD	$$$
                                 00' 0029       	.BYTE	IMG_K_QUEMAN
                                     002A       30020$:
                                 07' 002A       30021$:	.BYTE	30024$-30021$
                                 00' 002B       	.BYTE	CLI$K_STAR_FLAG
                                 00' 002C       	.BYTE	QUA_K_FLAG
                                 00  002D       	.IIF B <>,	.BYTE	0
                               0448  002E       	.WORD	$$$
MCRDBAS4        - MCR COMMAND DATA BASE MODULE 4                 22-AUG-1978 01:35:00   VAX-11 MACRO X0.3-11               Page   4
01              DEFINE MCR COMMANDS                                                                                              (1)

                                 00' 0030       	.BYTE	IMG_K_QUEMAN
                                     0031       30024$:
                                 07' 0031       30025$:	.BYTE	30028$-30025$
                                 00' 0032       	.BYTE	CLI$K_STAR_FORM
                                 00' 0033       	.BYTE	QUA_K_FORM
                                 00  0034       	.IIF B <>,	.BYTE	0
                               3428  0035       	.WORD	$$$
                                 00' 0037       	.BYTE	IMG_K_QUEMAN
                                     0038       30028$:
                                 07' 0038       30029$:	.BYTE	30032$-30029$
                                 00' 0039       	.BYTE	CLI$K_STAR_FORW
                                 00' 003A       	.BYTE	QUA_K_FORW
                                 00  003B       	.IIF B <>,	.BYTE	0
                               3428  003C       	.WORD	$$$
                                 00' 003E       	.BYTE	IMG_K_QUEMAN
                                     003F       30032$:
                                 07' 003F       30033$:	.BYTE	30036$-30033$
                                 00' 0040       	.BYTE	CLI$K_STAR_GENE
                                 00' 0041       	.BYTE	QUA_K_GENE
                                 00  0042       	.IIF B <>,	.BYTE	0
                               0448  0043       	.WORD	$$$
                                 00' 0045       	.BYTE	IMG_K_QUEMAN
                                     0046       30036$:
                                 07' 0046       30037$:	.BYTE	30040$-30037$
                                 00' 0047       	.BYTE	CLI$K_STAR_JOB_
                                 00' 0048       	.BYTE	QUA_K_JOB_
                                 00  0049       	.IIF B <>,	.BYTE	0
                               3428  004A       	.WORD	$$$
                                 00' 004C       	.BYTE	IMG_K_QUEMAN
                                     004D       30040$:
                                 07' 004D       30041$:	.BYTE	30044$-30041$
                                 00' 004E       	.BYTE	CLI$K_STAR_NEXT
                                 00' 004F       	.BYTE	QUA_K_NEXT
                                 00  0050       	.IIF B <>,	.BYTE	0
                               0408  0051       	.WORD	$$$
                                 00' 0053       	.BYTE	IMG_K_QUEMAN
                                     0054       30044$:
                                 07' 0054       30045$:	.BYTE	30048$-30045$
                                 00' 0055       	.BYTE	CLI$K_STAR_PRIO
                                 00' 0056       	.BYTE	QUA_K_PRIO
                                 00  0057       	.IIF B <>,	.BYTE	0
                               3428  0058       	.WORD	$$$
                                 00' 005A       	.BYTE	IMG_K_QUEMAN
                                     005B       30048$:
                                 0A' 005B       30049$:	.BYTE	30052$-30049$
                                 00' 005C       	.BYTE	CLI$K_STAR_QUEU
                                 00' 005D       	.BYTE	QUA_K_QUEU
                                 00  005E       	.IIF B <>,	.BYTE	0
                               0409  005F       	.WORD	$$$
                                 00' 0061       	.BYTE	IMG_K_QUEMAN
                               0000  0062       	.WORD	0
                                 11  0064       	.BYTE	1*16+1
                                     0065       30052$:
                                 07' 0065       30054$:	.BYTE	30057$-30054$
                                 00' 0066       	.BYTE	CLI$K_STAR_TERM
                                 00' 0067       	.BYTE	QUA_K_TERM
                                 00  0068       	.IIF B <>,	.BYTE	0
MCRDBAS4        - MCR COMMAND DATA BASE MODULE 4                 22-AUG-1978 01:35:00   VAX-11 MACRO X0.3-11               Page   5
01              DEFINE MCR COMMANDS                                                                                              (1)

                               0448  0069       	.WORD	$$$
                                 00' 006B       	.BYTE	IMG_K_QUEMAN
                                     006C       30057$:
                                 07' 006C       30058$:	.BYTE	30061$-30058$
                                 00' 006D       	.BYTE	CLI$K_STAR_TOP_
                                 00' 006E       	.BYTE	QUA_K_TOP_
                                 00  006F       	.IIF B <>,	.BYTE	0
                               0408  0070       	.WORD	$$$
                                 00' 0072       	.BYTE	IMG_K_QUEMAN
                                     0073       30061$:
                           0000006C  0073       .=$QUALBLK$
                                 00  006C       	.BYTE	0
                                 00000005       	.RESTORE
                                     0005    53
                                     0005    54 	DEFCMD	STOP,-			; DEFINE STOP COMMAND
                                     0005    55 		QUAL  =YES,-		; YES QUALIFIERS ALLOWED
                                     0005    56 		MINPRM=0,-		; MINIMUM NUMBER OF PARAMETERS
                                     0005    57 		MAXPRM=1,-		; MAXIMUM NUMBER OF PARAMETERS
                                     0005    58 		FLAGS=NOSTAT,-		; NO STATUS CHANGE
                                     0005    59 		DEFIMG=STOP		; DEFAULT IMAGE OR ROUTINE NAME
                                     0005       	.LIST
                                 00000004       	.PSECT	MCR$VERBTBL,BYTE,RD,NOWRT
                                 D3  0004       	.BYTE	^A/S/!$XX$
                                 54  0005       	.BYTE	^A/T/!$XX$
                                 4F  0006       	.BYTE	^A/O/!$XX$
                                 50  0007       	.BYTE	^A/P/!$XX$
                                     0008       	.LIST
                                 00000002       	.PSECT	MCR$COMDPTR,BYTE,RD,NOWRT
                               006F' 0002       	.WORD	VERB_G_STOP-.-2
                                     0004       	.LIST
                                 00000073       	.PSECT	MCR$CMDATA,BYTE,RD,NOWRT
                                     0073       VERB_G_STOP:
                                 28  0073       	.BYTE	CLI$K_VERB_STOP
                                 10  0074       	.BYTE	1*16!0
                                 00' 0075       	.BYTE	IMG_K_STOP
                                 01' 0076       	.BYTE	QUA_G_STOP-.-1
                                 08  0077       	.BYTE	$$$
                                     0078       	.SAVE
                                 00000078       	.PSECT	MCR$CMDATA,BYTE,RD,NOWRT
                                     0078       QUA_G_STOP:
                                 0A' 0078       30063$:	.BYTE	30066$-30063$
                                 00' 0079       	.BYTE	CLI$K_STOP_QUEU
                                 00' 007A       	.BYTE	QUA_K_QUEU
                                 00  007B       	.IIF B <>,	.BYTE	0
                               0409  007C       	.WORD	$$$
                                 00' 007E       	.BYTE	IMG_K_QUEMAN
                               0000  007F       	.WORD	0
                                 11  0081       	.BYTE	1*16+1
                                     0082       30066$:
                                 0A' 0082       30068$:	.BYTE	30071$-30068$
                                 00' 0083       	.BYTE	CLI$K_STOP_ABOR
                                 00' 0084       	.BYTE	QUA_K_ABOR
                                 00  0085       	.IIF B <>,	.BYTE	0
                               0409  0086       	.WORD	$$$
                                 00' 0088       	.BYTE	IMG_K_QUEMAN
                               0000  0089       	.WORD	0
                                 11  008B       	.BYTE	1*16+1
MCRDBAS4        - MCR COMMAND DATA BASE MODULE 4                 22-AUG-1978 01:35:00   VAX-11 MACRO X0.3-11               Page   6
01              DEFINE MCR COMMANDS                                                                                              (1)

                                     008C       30071$:
                                 07' 008C       30073$:	.BYTE	30076$-30073$
                                 00' 008D       	.BYTE	CLI$K_STOP_NEXT
                                 00' 008E       	.BYTE	QUA_K_NEXT
                                 00  008F       	.IIF B <>,	.BYTE	0
                               0408  0090       	.WORD	$$$
                                 00' 0092       	.BYTE	IMG_K_QUEMAN
                                     0093       30076$:
                                 06' 0093       30077$:	.BYTE	30080$-30077$
                                 00' 0094       	.BYTE	CLI$K_STOP_IDEN
                                 00' 0095       	.BYTE	QUA_K_IDEN
                                 00  0096       	.IIF B <>,	.BYTE	0
                               3028  0097       	.WORD	$$$
                                     0099       30080$:
                                 0E' 0099       30081$:	.BYTE	30084$-30081$
                                 00' 009A       	.BYTE	CLI$K_STOP_REQU
                                 0A' 009B       	.BYTE	<30083$-30081$>
                                 00  009C       	.IIF B <>,	.BYTE	0
                               040B  009D       	.WORD	$$$
                                 00' 009F       	.BYTE	IMG_K_QUEMAN
                               0000  00A0       	.WORD	0
                                 11  00A2       	.BYTE	1*16+1
                        55 51 45 52  00A3       30083$:	.ASCII	\REQU\
                                     00A7       30084$:
                                 0A' 00A7       30086$:	.BYTE	30089$-30086$
                                 00' 00A8       	.BYTE	CLI$K_STOP_ENTR
                                 00' 00A9       	.BYTE	QUA_K_ENTR
                                 00  00AA       	.IIF B <>,	.BYTE	0
                               3429  00AB       	.WORD	$$$
                                 00' 00AD       	.BYTE	IMG_K_QUEMAN
                               0000  00AE       	.WORD	0
                                 11  00B0       	.BYTE	1*16+1
                                     00B1       30089$:
                           000000A7  00B1       .=$QUALBLK$
                                 00  00A7       	.BYTE	0
                                 00000078       	.RESTORE
                                     0078    60
                                     0078    61 	DEFCMD	SUBM,-			; DEFINE SUBMIT COMMAND
                                     0078    62 		QUAL  =YES,-		; YES QUALIFIERS ALLOWED
                                     0078    63 		MINPRM=1,-		; MINIMUM NUMBER OF PARAMETERS
                                     0078    64 		MAXPRM=1,-		; MAXIMUM NUMBER OF PARAMETERS
                                     0078    65 		DEFIMG=SUBMIT		; DEFAULT IMAGE OR ROUTINE NAME
                                     0078       	.LIST
                                 00000008       	.PSECT	MCR$VERBTBL,BYTE,RD,NOWRT
                                 D3  0008       	.BYTE	^A/S/!$XX$
                                 55  0009       	.BYTE	^A/U/!$XX$
                                 42  000A       	.BYTE	^A/B/!$XX$
                                 4D  000B       	.BYTE	^A/M/!$XX$
                                     000C       	.LIST
                                 00000004       	.PSECT	MCR$COMDPTR,BYTE,RD,NOWRT
                               00AB' 0004       	.WORD	VERB_G_SUBM-.-2
                                     0006       	.LIST
                                 000000B1       	.PSECT	MCR$CMDATA,BYTE,RD,NOWRT
                                     00B1       VERB_G_SUBM:
                                 29  00B1       	.BYTE	CLI$K_VERB_SUBM
                                 11  00B2       	.BYTE	1*16!1
                                 00' 00B3       	.BYTE	IMG_K_SUBMIT
MCRDBAS4        - MCR COMMAND DATA BASE MODULE 4                 22-AUG-1978 01:35:00   VAX-11 MACRO X0.3-11               Page   7
01              DEFINE MCR COMMANDS                                                                                              (1)

                                 01' 00B4       	.BYTE	QUA_G_SUBM-.-1
                                 00  00B5       	.BYTE	$$$
                                     00B6       	.SAVE
                                 000000B6       	.PSECT	MCR$CMDATA,BYTE,RD,NOWRT
                                     00B6       QUA_G_SUBM:
                                     00B6       .IIF NB	<GBLTAG>,MCR$G_SUBMQUALS::
                                 06' 00B6       30092$:	.BYTE	30095$-30092$
                                 00' 00B7       	.BYTE	CLI$K_SUBM_AFTE
                                 00' 00B8       	.BYTE	QUA_K_AFTE
                                 00  00B9       	.IIF B <>,	.BYTE	0
                               3028  00BA       	.WORD	$$$
                                     00BC       30095$:
                                 06' 00BC       30096$:	.BYTE	30099$-30096$
                                 00' 00BD       	.BYTE	CLI$K_SUBM_BURS
                                 00' 00BE       	.BYTE	QUA_K_BURS
                                 00  00BF       	.IIF B <>,	.BYTE	0
                               0058  00C0       	.WORD	$$$
                                     00C2       30099$:
                                 06' 00C2       30100$:	.BYTE	30103$-30100$
                                 00' 00C3       	.BYTE	CLI$K_SUBM_COPI
                                 00' 00C4       	.BYTE	QUA_K_COPI
                                 00  00C5       	.IIF B <>,	.BYTE	0
                               3038  00C6       	.WORD	$$$
                                     00C8       30103$:
                                 06' 00C8       30104$:	.BYTE	30107$-30104$
                                 00' 00C9       	.BYTE	CLI$K_SUBM_DELE
                                 00' 00CA       	.BYTE	QUA_K_DELE
                                 00  00CB       	.IIF B <>,	.BYTE	0
                               0058  00CC       	.WORD	$$$
                                     00CE       30107$:
                                 06' 00CE       30108$:	.BYTE	30111$-30108$
                                 00' 00CF       	.BYTE	CLI$K_SUBM_DEVI
                                 00' 00D0       	.BYTE	QUA_K_DEVI
                                 00  00D1       	.IIF B <>,	.BYTE	0
                               102C  00D2       	.WORD	$$$
                                     00D4       30111$:
                                 06' 00D4       30112$:	.BYTE	30115$-30112$
                                 00' 00D5       	.BYTE	CLI$K_SUBM_FLAG
                                 00' 00D6       	.BYTE	QUA_K_FLAG
                                 00  00D7       	.IIF B <>,	.BYTE	0
                               0058  00D8       	.WORD	$$$
                                     00DA       30115$:
                                 06' 00DA       30116$:	.BYTE	30119$-30116$
                                 00' 00DB       	.BYTE	CLI$K_SUBM_FORM
                                 00' 00DC       	.BYTE	QUA_K_FORM
                                 00  00DD       	.IIF B <>,	.BYTE	0
                               3028  00DE       	.WORD	$$$
                                     00E0       30119$:
                                 06' 00E0       30120$:	.BYTE	30123$-30120$
                                 00' 00E1       	.BYTE	CLI$K_SUBM_HEAD
                                 00' 00E2       	.BYTE	QUA_K_HEAD
                                 00  00E3       	.IIF B <>,	.BYTE	0
                               0058  00E4       	.WORD	$$$
                                     00E6       30123$:
                                 06' 00E6       30124$:	.BYTE	30127$-30124$
                                 00' 00E7       	.BYTE	CLI$K_SUBM_HOLD
                                 00' 00E8       	.BYTE	QUA_K_HOLD
MCRDBAS4        - MCR COMMAND DATA BASE MODULE 4                 22-AUG-1978 01:35:00   VAX-11 MACRO X0.3-11               Page   8
01              DEFINE MCR COMMANDS                                                                                              (1)

                                 00  00E9       	.IIF B <>,	.BYTE	0
                               0048  00EA       	.WORD	$$$
                                     00EC       30127$:
                                 06' 00EC       30128$:	.BYTE	30131$-30128$
                                 00' 00ED       	.BYTE	CLI$K_SUBM_IDEN
                                 00' 00EE       	.BYTE	QUA_K_IDEN
                                 00  00EF       	.IIF B <>,	.BYTE	0
                               00C8  00F0       	.WORD	$$$
                                     00F2       30131$:
                                 06' 00F2       30132$:	.BYTE	30135$-30132$
                                 00' 00F3       	.BYTE	CLI$K_SUBM_JOB_
                                 00' 00F4       	.BYTE	QUA_K_JOB_
                                 00  00F5       	.IIF B <>,	.BYTE	0
                               3028  00F6       	.WORD	$$$
                                     00F8       30135$:
                                 06' 00F8       30136$:	.BYTE	30139$-30136$
                                 00' 00F9       	.BYTE	CLI$K_SUBM_NAME
                                 00' 00FA       	.BYTE	QUA_K_NAME
                                 00  00FB       	.IIF B <>,	.BYTE	0
                               3028  00FC       	.WORD	$$$
                                     00FE       30139$:
                                 06' 00FE       30140$:	.BYTE	30143$-30140$
                                 00' 00FF       	.BYTE	CLI$K_SUBM_LOWE
                                 00' 0100       	.BYTE	QUA_K_LOWE
                                 00  0101       	.IIF B <>,	.BYTE	0
                               0048  0102       	.WORD	$$$
                                     0104       30143$:
                                 06' 0104       30144$:	.BYTE	30147$-30144$
                                 00' 0105       	.BYTE	CLI$K_SUBM_PAGE
                                 00' 0106       	.BYTE	QUA_K_PAGE
                                 00  0107       	.IIF B <>,	.BYTE	0
                               3030  0108       	.WORD	$$$
                                     010A       30147$:
                                 06' 010A       30148$:	.BYTE	30151$-30148$
                                 00' 010B       	.BYTE	CLI$K_SUBM_PARA
                                 00' 010C       	.BYTE	QUA_K_PARA
                                 00  010D       	.IIF B <>,	.BYTE	0
                               1028  010E       	.WORD	$$$
                                     0110       30151$:
                                 06' 0110       30152$:	.BYTE	30155$-30152$
                                 00' 0111       	.BYTE	CLI$K_SUBM_PRIO
                                 00' 0112       	.BYTE	QUA_K_PRIO
                                 00  0113       	.IIF B <>,	.BYTE	0
                               3028  0114       	.WORD	$$$
                                     0116       30155$:
                                 06' 0116       30156$:	.BYTE	30159$-30156$
                                 00' 0117       	.BYTE	CLI$K_SUBM_QUEU
                                 00' 0118       	.BYTE	QUA_K_QUEU
                                 00  0119       	.IIF B <>,	.BYTE	0
                               102C  011A       	.WORD	$$$
                                     011C       30159$:
                                 08' 011C       30160$:	.BYTE	30163$-30160$
                                 00' 011D       	.BYTE	CLI$K_SUBM_SPAC
                                 00' 011E       	.BYTE	QUA_K_SPAC
                                 06' 011F       	.IIF NB	<2>,	.BYTE	30161$-30160$
                               2038  0120       	.WORD	$$$
                              32 00' 0122       30161$:	.ASCIC	\2\
MCRDBAS4        - MCR COMMAND DATA BASE MODULE 4                 22-AUG-1978 01:35:00   VAX-11 MACRO X0.3-11               Page   9
01              DEFINE MCR COMMANDS                                                                                              (1)

                                 01  0122
                                     0124       30163$:
                                 06' 0124       30164$:	.BYTE	30167$-30164$
                                 00' 0125       	.BYTE	CLI$K_SUBM_FEED
                                 00' 0126       	.BYTE	QUA_K_FEED
                                 00  0127       	.IIF B <>,	.BYTE	0
                               0058  0128       	.WORD	$$$
                                     012A       30167$:
                                 06' 012A       30168$:	.BYTE	30171$-30168$
                                 00' 012B       	.BYTE	CLI$K_SUBM_REMO
                                 00' 012C       	.BYTE	QUA_K_REMO
                                 00  012D       	.IIF B <>,	.BYTE	0
                               0008  012E       	.WORD	$$$
                                     0130       30171$:
                           0000012A  0130       .=$QUALBLK$
                                 00  012A       	.BYTE	0
                                 000000B6       	.RESTORE
                                     00B6    66
                                     00B6    67
                                     00B6    68 	DEFCMD	SYNC,-			; DEFINE SYNCRONIZE COMMAND
                                     00B6    69 		QUAL  =YES,-		; YES QUALIFIERS ALLOWED
                                     00B6    70 		MINPRM=0,-		; MINIMUM NUMBER OF PARAMETERS
                                     00B6    71 		MAXPRM=1,-		; MAXIMUM NUMBER OF PARAMETERS
                                     00B6    72 		DEFIMG=QUEMAN		; DEFAULT IMAGE OR ROUTINE NAME
                                     00B6       	.LIST
                                 0000000C       	.PSECT	MCR$VERBTBL,BYTE,RD,NOWRT
                                 D3  000C       	.BYTE	^A/S/!$XX$
                                 59  000D       	.BYTE	^A/Y/!$XX$
                                 4E  000E       	.BYTE	^A/N/!$XX$
                                 43  000F       	.BYTE	^A/C/!$XX$
                                     0010       	.LIST
                                 00000006       	.PSECT	MCR$COMDPTR,BYTE,RD,NOWRT
                               0128' 0006       	.WORD	VERB_G_SYNC-.-2
                                     0008       	.LIST
                                 00000130       	.PSECT	MCR$CMDATA,BYTE,RD,NOWRT
                                     0130       VERB_G_SYNC:
                                 37  0130       	.BYTE	CLI$K_VERB_SYNC
                                 10  0131       	.BYTE	1*16!0
                                 00' 0132       	.BYTE	IMG_K_QUEMAN
                                 01' 0133       	.BYTE	QUA_G_SYNC-.-1
                                 00  0134       	.BYTE	$$$
                                     0135       	.SAVE
                                 00000135       	.PSECT	MCR$CMDATA,BYTE,RD,NOWRT
                                     0135       QUA_G_SYNC:
                                 06' 0135       30173$:	.BYTE	30176$-30173$
                                 00' 0136       	.BYTE	CLI$K_SYNC_ENTR
                                 00' 0137       	.BYTE	QUA_K_ENTR
                                 00  0138       	.IIF B <>,	.BYTE	0
                               3028  0139       	.WORD	$$$
                                     013B       30176$:
                                 06' 013B       30177$:	.BYTE	30180$-30177$
                                 00' 013C       	.BYTE	CLI$K_SYNC_QUEU
                                 00' 013D       	.BYTE	QUA_K_QUEU
                                 00  013E       	.IIF B <>,	.BYTE	0
                               3028  013F       	.WORD	$$$
                                     0141       30180$:
                           0000013B  0141       .=$QUALBLK$
MCRDBAS4        - MCR COMMAND DATA BASE MODULE 4                 22-AUG-1978 01:35:00   VAX-11 MACRO X0.3-11               Page  10
01              DEFINE MCR COMMANDS                                                                                              (1)

                                 00  013B       	.BYTE	0
                                 00000135       	.RESTORE
                                     0135    73
                                     0135    74 	DEFCMD	TIME,-
                                     0135    75 		QUAL  =NO,-
                                     0135    76 		DEFIMG=SHOWTIME,-
                                     0135    77 		MINPRM=0,-		; MINIMUM NUMBER OF PARAMETERS
                                     0135    78 		MAXPRM=0,-		; MAXIMUM NUMBER OF PARAMETERS
                                     0135    79 		FLAGS=NOSTAT		;
                                     0135       	.LIST
                                 00000010       	.PSECT	MCR$VERBTBL,BYTE,RD,NOWRT
                                 D4  0010       	.BYTE	^A/T/!$XX$
                                 49  0011       	.BYTE	^A/I/!$XX$
                                 4D  0012       	.BYTE	^A/M/!$XX$
                                 45  0013       	.BYTE	^A/E/!$XX$
                                     0014       	.LIST
                                 00000008       	.PSECT	MCR$COMDPTR,BYTE,RD,NOWRT
                               0137' 0008       	.WORD	VERB_G_TIME-.-2
                                     000A       	.LIST
                                 00000141       	.PSECT	MCR$CMDATA,BYTE,RD,NOWRT
                                     0141       VERB_G_TIME:
                                 00  0141       	.BYTE	0
                                 00  0142       	.BYTE	0*16!0
                                 00' 0143       	.BYTE	IMG_K_SHOWTIME
                                 00  0144       	.BYTE	0
                                 08  0145       	.BYTE	$$$
                                     0146    80 					;
                                     0146    81
                                     0146    82 	DEFCMD	TYPE,-			; DEFINE THE TYPE COMMAND
                                     0146    83 		QUAL  =YES,-		; YES QUALIFIERS ARE ALLOWED
                                     0146    84 		DEFIMG=TYPE,-		; DEFAULT IMAGE TO RUN
                                     0146    85 		MINPRM=1,-		; MINIMUM NUMBER OF PARAMETERS
                                     0146    86 		MAXPRM=1,-		; MAXIMUM NUMBER OF PARAMETERS
                                     0146    87 		OUTPRS=<CLI$K_TYPE_OUTP>
                                     0146       	.LIST
                                 00000014       	.PSECT	MCR$VERBTBL,BYTE,RD,NOWRT
                                 D4  0014       	.BYTE	^A/T/!$XX$
                                 59  0015       	.BYTE	^A/Y/!$XX$
                                 50  0016       	.BYTE	^A/P/!$XX$
                                 45  0017       	.BYTE	^A/E/!$XX$
                                     0018       	.LIST
                                 0000000A       	.PSECT	MCR$COMDPTR,BYTE,RD,NOWRT
                               013A' 000A       	.WORD	VERB_G_TYPE-.-2
                                     000C       	.LIST
                                 00000146       	.PSECT	MCR$CMDATA,BYTE,RD,NOWRT
                                     0146       VERB_G_TYPE:
                                 2A  0146       	.BYTE	CLI$K_VERB_TYPE
                                 11  0147       	.BYTE	1*16!1
                                 00' 0148       	.BYTE	IMG_K_TYPE
                                 03' 0149       	.BYTE	QUA_G_TYPE-.-1
                                 04  014A       	.BYTE	$$$
                                 01' 014B       	.BYTE	30182$-.-1
                                 00' 014C       	.BYTE	CLI$K_TYPE_OUTP
                                     014D       30182$:
                                     014D       	.SAVE
                                 0000014D       	.PSECT	MCR$CMDATA,BYTE,RD,NOWRT
                                     014D       QUA_G_TYPE:
MCRDBAS4        - MCR COMMAND DATA BASE MODULE 4                 22-AUG-1978 01:35:00   VAX-11 MACRO X0.3-11               Page  11
01              DEFINE MCR COMMANDS                                                                                              (1)

                                 06' 014D       30183$:	.BYTE	30186$-30183$
                                 00' 014E       	.BYTE	CLI$K_TYPE_OUTP
                                 00' 014F       	.BYTE	QUA_K_OUTP
                                 00  0150       	.IIF B <>,	.BYTE	0
                               082C  0151       	.WORD	$$$
                                     0153       30186$:
                           0000014D  0153       .=$QUALBLK$
                                 00  014D       	.BYTE	0
                                 0000014D       	.RESTORE
                                     014D    88
                                     014D    89
                                     014D    90
                                     014D    91 	.END
MCRDBAS4        - MCR COMMAND DATA BASE MODULE 4                 22-AUG-1978 01:35:00   VAX-11 MACRO X0.3-11               Page  12
SYMBOL TABLE                                                                                                                     (1)

$$$            = 0000082C            CLI$K_VERB_COPY= 00000008            CLI$_DEVALSPL  = 0003885A
$QUALBLK$      = 0000014D R     05   CLI$K_VERB_CREA= 00000009            CLI$_DEVNOTFOR = 0003887A
$XX$           = 00000000            CLI$K_VERB_DATA= 0000000A            CLI$_DEVNOTSPL = 00038862
BIT...         = 00000008            CLI$K_VERB_DEAL= 0000000B            CLI$_DIRECT    = 00038030
CLI$K_STAR_BACK  ********   X   05   CLI$K_VERB_DEAS= 0000000C            CLI$_EXPSYN    = 00038038
CLI$K_STAR_BATC  ********   X   05   CLI$K_VERB_DEBU= 0000000D            CLI$_FILOPN    = 00038190
CLI$K_STAR_BURS  ********   X   05   CLI$K_VERB_DEFI= 0000000E            CLI$_ILLVAL    = 0003883A
CLI$K_STAR_DISA  ********   X   05   CLI$K_VERB_DELE= 0000000F            CLI$_IMCHNG    = 00038040
CLI$K_STAR_ENAB  ********   X   05   CLI$K_VERB_DEPO= 00000010            CLI$_IMGFNF    = 00038872
CLI$K_STAR_FLAG  ********   X   05   CLI$K_VERB_DIFF= 00000011            CLI$_INSFPRM   = 00038048
CLI$K_STAR_FORM  ********   X   05   CLI$K_VERB_DIRE= 00000012            CLI$_INVKEY    = 00038178
CLI$K_STAR_FORW  ********   X   05   CLI$K_VERB_DISM= 00000013            CLI$_INVQUAL   = 0003880A
CLI$K_STAR_GENE  ********   X   05   CLI$K_VERB_DUMP= 00000030            CLI$_INVQUALNUM= 0003881A
CLI$K_STAR_JOB_  ********   X   05   CLI$K_VERB_EDIT= 00000014            CLI$_INVREQTYP = 00038822
CLI$K_STAR_NEXT  ********   X   05   CLI$K_VERB_EOD = 00000015            CLI$_INVRSP    = 00038180
CLI$K_STAR_PRIO  ********   X   05   CLI$K_VERB_EXAM= 00000016            CLI$_INVUIC    = 000381A8
CLI$K_STAR_QUEU  ********   X   05   CLI$K_VERB_EXIT= 00000017            CLI$_IVCHAR    = 00038050
CLI$K_STAR_TERM  ********   X   05   CLI$K_VERB_FORE= 000000FF            CLI$_IVDEVTYPE = 0003886A
CLI$K_STAR_TOP_  ********   X   05   CLI$K_VERB_FORT= 00000018            CLI$_IVFNAM    = 000381C0
CLI$K_STOP_ABOR  ********   X   05   CLI$K_VERB_GOTO= 00000019            CLI$_IVKEYW    = 00038060
CLI$K_STOP_ENTR  ********   X   05   CLI$K_VERB_HELP= 0000001A            CLI$_IVOPER    = 00038068
CLI$K_STOP_IDEN  ********   X   05   CLI$K_VERB_IF  = 0000001B            CLI$_IVPROT    = 00038070
CLI$K_STOP_NEXT  ********   X   05   CLI$K_VERB_INIT= 0000001C            CLI$_IVQLOC    = 00038078
CLI$K_STOP_QUEU  ********   X   05   CLI$K_VERB_INQU= 0000001D            CLI$_IVSYMB    = 00038080
CLI$K_STOP_REQU  ********   X   05   CLI$K_VERB_LIBR= 00000034            CLI$_IVVALU    = 00038088
CLI$K_SUBM_AFTE  ********   X   05   CLI$K_VERB_LINK= 0000001E            CLI$_IVVERB    = 00038090
CLI$K_SUBM_BURS  ********   X   05   CLI$K_VERB_LOGO= 0000001F            CLI$_MAXPARM   = 00038098
CLI$K_SUBM_COPI  ********   X   05   CLI$K_VERB_MACR= 00000020            CLI$_MULKEY    = 000381A0
CLI$K_SUBM_DELE  ********   X   05   CLI$K_VERB_MCR = 00000021            CLI$_NOATFIL   = 000380A0
CLI$K_SUBM_DEVI  ********   X   05   CLI$K_VERB_MOUN= 0000002B            CLI$_NOCCAT    = 000380A8
CLI$K_SUBM_FEED  ********   X   05   CLI$K_VERB_ON  = 00000022            CLI$_NOCOMD    = 000380B0
CLI$K_SUBM_FLAG  ********   X   05   CLI$K_VERB_PATC= 0000002C            CLI$_NOKEYW    = 000380B8
CLI$K_SUBM_FORM  ********   X   05   CLI$K_VERB_PRIN= 00000023            CLI$_NOLIST    = 000380C0
CLI$K_SUBM_HEAD  ********   X   05   CLI$K_VERB_PURG= 00000031            CLI$_NOOPTPRS  = 00038842
CLI$K_SUBM_HOLD  ********   X   05   CLI$K_VERB_RENA= 00000032            CLI$_NOQUAL    = 000380C8
CLI$K_SUBM_IDEN  ********   X   05   CLI$K_VERB_REPL= 0000002D            CLI$_NORMAL    = 00030001
CLI$K_SUBM_JOB_  ********   X   05   CLI$K_VERB_REQU= 00000036            CLI$_NOTNEG    = 000380D8
CLI$K_SUBM_LOWE  ********   X   05   CLI$K_VERB_RUN = 00000024            CLI$_NOVALU    = 000380D0
CLI$K_SUBM_NAME  ********   X   05   CLI$K_VERB_SET = 00000025            CLI$_NOVALUE   = 0003882A
CLI$K_SUBM_PAGE  ********   X   05   CLI$K_VERB_SHOW= 00000026            CLI$_NULFIL    = 000380E0
CLI$K_SUBM_PARA  ********   X   05   CLI$K_VERB_SORT= 00000035            CLI$_NUMBER    = 000380E8
CLI$K_SUBM_PRIO  ********   X   05   CLI$K_VERB_STAR= 00000027            CLI$_ONCOMD    = 000380F0
CLI$K_SUBM_QUEU  ********   X   05   CLI$K_VERB_STOP= 00000028            CLI$_ONERR     = 000380F8
CLI$K_SUBM_REMO  ********   X   05   CLI$K_VERB_SUBM= 00000029            CLI$_ONEVAL    = 00038158
CLI$K_SUBM_SPAC  ********   X   05   CLI$K_VERB_SYNC= 00000037            CLI$_ONLEVL    = 00038100
CLI$K_SYNC_ENTR  ********   X   05   CLI$K_VERB_TYPE= 0000002A            CLI$_ONOVF     = 00038108
CLI$K_SYNC_QUEU  ********   X   05   CLI$K_VERB_UNLO= 0000002E            CLI$_OVRFLW    = 00038160
CLI$K_TYPE_OUTP  ********   X   05   CLI$_ABFNAM    = 000381B8            CLI$_PARMDEL   = 00038110
CLI$K_VERB_ALLO= 00000001            CLI$_ABKEYW    = 00038000            CLI$_PROC_ID   = 0003FFF1
CLI$K_VERB_ANAL= 00000002            CLI$_ABVERB    = 00038008            CLI$_QUEJOBCRE = 0003FFF9
CLI$K_VERB_APPE= 0000002F            CLI$_BADRET    = 00038198            CLI$_REQPRMABS = 00038812
CLI$K_VERB_ASSI= 00000003            CLI$_BADTEXT   = 000381B0            CLI$_RSLOVF    = 00038118
CLI$K_VERB_BASI= 00000004            CLI$_BUFOVF    = 00038018            CLI$_SKPDAT    = 00038120
CLI$K_VERB_BLIS= 00000005            CLI$_COMPLX    = 00038020            CLI$_SPARE0    = 00038010
CLI$K_VERB_CANC= 00000033            CLI$_CONFQUAL  = 00038802            CLI$_SPARE1    = 00038058
CLI$K_VERB_COBO= 00000006            CLI$_CREQUEJOB = 0003884A            CLI$_STKOVF    = 00038128
CLI$K_VERB_CONT= 00000007            CLI$_DEFOVF    = 00038028            CLI$_SUBMITERR = 00038852
MCRDBAS4        - MCR COMMAND DATA BASE MODULE 4                 22-AUG-1978 01:35:00   VAX-11 MACRO X0.3-11               Page  13
SYMBOL TABLE                                                                                                                     (1)

CLI$_SYMDEL    = 00038130            PRO_V_REQ      = 00000004            QUA_M_PARM     = 00000010
CLI$_SYMOVF    = 00038138            PRO_V_STRING   = 00000005            QUA_M_VAL      = 00000020
CLI$_UNDFIL    = 00038188            QUA_B_CODE       00000001            QUA_M_VALREQ   = 00001000
CLI$_UNDSYM    = 00038140            QUA_B_DEFVAL     00000003            QUA_M_VERB     = 00000008
CLI$_UNPROPARM = 00038170            QUA_B_IMAGE      00000006            QUA_S_MAXPARM  = 00000004
CLI$_UNPROQUAL = 00038168            QUA_B_INDEX      00000002            QUA_S_MINPARM  = 00000004
CLI$_USGOTO    = 00038148            QUA_B_OFFSET     00000000            QUA_V_BATDEF   = 00000008
CLI$_VALCNVERR = 00038832            QUA_B_PARMCNT    00000009            QUA_V_CHNGLIST = 00000000
CLI$_VALREQ    = 00038150            QUA_G_CHNGLST    00000007            QUA_V_DEFTRUE  = 00000007
CMD_AB_PAROUT    00000005            QUA_G_STAR       00000005 R     05   QUA_V_FILE     = 00000002
CMD_B_DEFIMG     00000002            QUA_G_STOP       00000078 R     05   QUA_V_IMAGE    = 0000000A
CMD_B_FLAGS      00000004            QUA_G_SUBM       000000B6 R     05   QUA_V_INTDEF   = 00000009
CMD_B_PARMCNT    00000001            QUA_G_SYNC       00000135 R     05   QUA_V_KEYVAL   = 0000000E
CMD_B_QUABLK     00000003            QUA_G_TYPE       0000014D R     05   QUA_V_LOCALKEY = 00000001
CMD_B_VERBTYP    00000000            QUA_K_ABOR       ********   X   05   QUA_V_MAXPARM  = 00000004
CMD_M_ABREV    = 00000020            QUA_K_AFTE       ********   X   05   QUA_V_MINPARM  = 00000000
CMD_M_DEFQUAL  = 00000010            QUA_K_BACK       ********   X   05   QUA_V_NEG      = 00000006
CMD_M_DEVNAM   = 00000080            QUA_K_BATC       ********   X   05   QUA_V_ONEVAL   = 0000000D
CMD_M_IMMED    = 00000002            QUA_K_BURS       ********   X   05   QUA_V_OUTPUT   = 0000000B
CMD_M_NOEQL    = 00000040            QUA_K_COPI       ********   X   05   QUA_V_PARM     = 00000004
CMD_M_NOSTAT   = 00000008            QUA_K_DELE       ********   X   05   QUA_V_VAL      = 00000005
CMD_M_OPTION   = 00000001            QUA_K_DEVI       ********   X   05   QUA_V_VALREQ   = 0000000C
CMD_M_PAROUT   = 00000004            QUA_K_DISA       ********   X   05   QUA_V_VERB     = 00000003
CMD_S_MAXPARM  = 00000004            QUA_K_ENAB       ********   X   05   QUA_W_FLAGS      00000004
CMD_S_MINPARM  = 00000004            QUA_K_ENTR       ********   X   05   QUA_W_QUALIST    00000007
CMD_V_ABREV    = 00000005            QUA_K_FEED       ********   X   05   VERB_G_STAR      00000000 R     05
CMD_V_DEFQUAL  = 00000004            QUA_K_FLAG       ********   X   05   VERB_G_STOP      00000073 R     05
CMD_V_DEVNAM   = 00000007            QUA_K_FORM       ********   X   05   VERB_G_SUBM      000000B1 R     05
CMD_V_IMMED    = 00000001            QUA_K_FORW       ********   X   05   VERB_G_SYNC      00000130 R     05
CMD_V_MAXPARM  = 00000004            QUA_K_GENE       ********   X   05   VERB_G_TIME      00000141 R     05
CMD_V_MINPARM  = 00000000            QUA_K_HEAD       ********   X   05   VERB_G_TYPE      00000146 R     05
CMD_V_NOEQL    = 00000006            QUA_K_HOLD       ********   X   05
CMD_V_NOSTAT   = 00000003            QUA_K_IDEN       ********   X   05
CMD_V_OPTION   = 00000000            QUA_K_JOB_       ********   X   05
CMD_V_PAROUT   = 00000002            QUA_K_LOWE       ********   X   05
GBL...         = 00000000            QUA_K_NAME       ********   X   05
IMG_K_QUEMAN     ********   X   05   QUA_K_NEXT       ********   X   05
IMG_K_SHOWTIME   ********   X   05   QUA_K_OUTP       ********   X   05
IMG_K_STOP       ********   X   05   QUA_K_PAGE       ********   X   05
IMG_K_SUBMIT     ********   X   05   QUA_K_PARA       ********   X   05
IMG_K_TYPE       ********   X   05   QUA_K_PRIO       ********   X   05
IMG_K__ZZ_       ********   X   05   QUA_K_QUEU       ********   X   05
MCR$G_SUBMQUALS  000000B6 RG    05   QUA_K_REMO       ********   X   05
OPI_K_MCRUTLIST= FFFFFFFF            QUA_K_SPAC       ********   X   05
PRO_B_FLAGS      00000001            QUA_K_TERM       ********   X   05
PRO_B_PROMPT     00000000            QUA_K_TOP_       ********   X   05
PRO_K_LENGTH     00000002            QUA_M_BATDEF   = 00000100
PRO_M_CONCAT   = 00000001            QUA_M_CHNGLIST = 00000001
PRO_M_IMPCAT   = 00000002            QUA_M_DEFTRUE  = 00000080
PRO_M_LIST     = 00000004            QUA_M_FILE     = 00000004
PRO_M_OPTION   = 00000008            QUA_M_IMAGE    = 00000400
PRO_M_REQ      = 00000010            QUA_M_INTDEF   = 00000200
PRO_M_STRING   = 00000020            QUA_M_KEYVAL   = 00004000
PRO_V_CONCAT   = 00000000            QUA_M_LOCALKEY = 00000002
PRO_V_IMPCAT   = 00000001            QUA_M_NEG      = 00000040
PRO_V_LIST     = 00000002            QUA_M_ONEVAL   = 00002000
PRO_V_OPTION   = 00000003            QUA_M_OUTPUT   = 00000800
MCRDBAS4        - MCR COMMAND DATA BASE MODULE 4                 22-AUG-1978 01:35:00   VAX-11 MACRO X0.3-11               Page  14
PROGRAM SECTION SYNOPSIS                                                                                                         (1)


PROGRAM SECTION SYNOPSIS

.  ABS  .        00000000      00     NOPIC   USR   CON   ABS   LCL NOSHR NOEXE NORD  NOWRT BYTE
. BLANK .        00000000      01     NOPIC   USR   CON   REL   LCL NOSHR   EXE   RD    WRT BYTE
$ABS$            0000000A      02     NOPIC   USR   CON   ABS   LCL NOSHR   EXE   RD    WRT BYTE
MCR$VERBTBL      00000018      03     NOPIC   USR   CON   REL   LCL NOSHR   EXE   RD  NOWRT BYTE
MCR$COMDPTR      0000000C      04     NOPIC   USR   CON   REL   LCL NOSHR   EXE   RD  NOWRT BYTE
MCR$CMDATA       00000153      05     NOPIC   USR   CON   REL   LCL NOSHR   EXE   RD  NOWRT BYTE


THERE WERE NO ERRORS OR WARNINGS.
13564. BYTES LEFT IN FREE MEMORY POOL.
1198. BYTES OF RECLAIMED MEMORY.
OBJ$:MCRDBAS4,LIS$:MCRDBAS4/-SP=EXECML$/ML,LIB$:MCR/ML,SRC$:MCRDBAS4
27 MLB DIR RDS - 583 GETS TO DEFINE 27 MACROS. 102 INTER. FILE WRITES.
