MCRDBAS3        - MCR COMMAND DATA BASE MODULE 3                 22-AUG-1978 01:33:00   VAX-11 MACRO X0.3-11               Page   0
TABLE OF CONTENTS

   (1)      46  DEFINE MCR COMMANDS
MCRDBAS3        - MCR COMMAND DATA BASE MODULE 3                 22-AUG-1978 01:33:00   VAX-11 MACRO X0.3-11               Page   1
01                                                                                                                               (1)

                                     0000     1 	.TITLE	MCRDBAS3 - MCR COMMAND DATA BASE MODULE 3
                                     0000     2 	.IDENT	/01/
                                     0000     3
                                     0000     4 ;
                                     0000     5 ; COPYRIGHT (C) 1977, 1978
                                     0000     6 ; DIGITAL EQUIPMENT CORPORATION, MAYNARD, MASSACHUSETTS 01754
                                     0000     7 ;
                                     0000     8 ; THIS SOFTWARE IS FURNISHED  UNDER A LICENSE FOR USE ONLY ON A SINGLE
                                     0000     9 ; COMPUTER  SYSTEM AND  MAY BE  COPIED ONLY WITH  THE INCLUSION OF THE
                                     0000    10 ; ABOVE COPYRIGHT NOTICE.  THIS SOFTWARE, OR ANY OTHER COPIES THEREOF,
                                     0000    11 ; MAY NOT BE PROVIDED OR  OTHERWISE MADE AVAILABLE TO ANY OTHER PERSON
                                     0000    12 ; EXCEPT FOR USE ON SUCH SYSTEM AND TO ONE WHO AGREES TO THESE LICENSE
                                     0000    13 ; TERMS.  TITLE TO AND  OWNERSHIP OF THE  SOFTWARE  SHALL AT ALL TIMES
                                     0000    14 ; REMAIN IN DEC.
                                     0000    15 ;
                                     0000    16 ; THE INFORMATION IN THIS SOFTWARE IS SUBJECT TO CHANGE WITHOUT NOTICE
                                     0000    17 ; AND SHOULD  NOT BE CONSTRUED  AS A COMMITMENT  BY DIGITAL  EQUIPMENT
                                     0000    18 ; CORPORATION.
                                     0000    19 ;
                                     0000    20 ; DEC ASSUMES  NO  RESPONSIBILITY  FOR  THE USE OR  RELIABILITY OF ITS
                                     0000    21 ; SOFTWARE ON EQUIPMENT WHICH IS NOT SUPPLIED BY DEC.
                                     0000    22 ;
                                     0000    23 ; W. H. BROWN 7-DEC-1977
                                     0000    24 ;
                                     0000    25 ; MCR COMMAND INTERPRETER DATA BASE
                                     0000    26 ;
                                     0000    27 ; MACRO LIBRARY CALLS
                                     0000    28 ;
                                     0000    29
                                     0000    30 	$CLIVERBDEF			; DEFINE GENERIC VERB TYPES
                                     0000    31 	.MACRO	$CLIVERBDEF
                                     0000    32 	.ENDM
                                     0000    33 	DEFERRCOD			; DEFINE ERROR/STATUS VALUES
                                     0000    34 	DEFOPIMCR			; MCR OUTPUT RESULT PARSE INDIACTORS
                                     0000    35
                                     0000    36 ;
                                     0000    37 ; LOCAL MACROS
                                     0000    38
                                     0000    39 ;
                                     0000    40 ; LOCAL SYMBOLS
                                     0000    41 ;
                                     0000    42
                                     0000    43
                                     0000    44 	.LIST	MEB
MCRDBAS3        - MCR COMMAND DATA BASE MODULE 3                 22-AUG-1978 01:33:00   VAX-11 MACRO X0.3-11               Page   2
01              DEFINE MCR COMMANDS                                                                                              (1)

                                     0000    46 	.SBTTL	DEFINE MCR COMMANDS
                                     0000    47
                                     0000    48
                                     0000    49 	DEFCMD	SET,-			; DEFINE SET COMMAND
                                     0000    50 		FLAGS =OPTION,-		; THIS COMMAND TAKES AN OPTION
                                     0000    51 		QUAL  =YES,-		; YES QUALIFIERS ALLOWED
                                     0000    52 		MINPRM=1,-		; MINIMUM NUMBER OF PARAMETERS
                                     0000    53 		MAXPRM=1,-		; MAXIMUM NUMBER OF PARAMETERS
                                     0000    54 		DEFIMG=BACKTRANS	; DEFAULT IMAGE OR ROUTINE NAME
                                     0000       	.SAVE
                                 00000000       	.PSECT	$ABS$,ABS
                                     0000       CMD_B_VERBTYP:
                           00000001  0000       	.BLKB	1
                                     0001       CMD_B_PARMCNT:
                           00000002  0001       	.BLKB	1
                                     0002       CMD_B_DEFIMG:
                           00000003  0002       	.BLKB	1
                                     0003       CMD_B_QUABLK:
                           00000004  0003       	.BLKB	1
                                     0004       CMD_B_FLAGS:
                           00000005  0004       	.BLKB	1
                                     0005       CMD_AB_PAROUT:
                           00000006  0005       	.BLKB	1
                                     0000       	.RESTORE
                                     0000       	.SAVE
                                 00000006       	.PSECT	$ABS$,ABS
                           00000000  0006       	.=0
                                     0000       PRO_B_PROMPT:
                           00000001  0000       	.BLKB	1
                                     0001       PRO_B_FLAGS:
                           00000002  0001       	.BLKB	1
                                     0002       PRO_K_LENGTH:
                                     0000       	.RESTORE
                                     0000       	.LIST
                                 00000000       	.PSECT	MCR$VERBTBL,BYTE,RD,NOWRT
                                 D3  0000       	.BYTE	^A/S/!$XX$
                                 45  0001       	.BYTE	^A/E/!$XX$
                                 54  0002       	.BYTE	^A/T/!$XX$
                                 20  0003       	.ASCII	\ \
                                     0004       	.LIST
                                 00000000       	.PSECT	MCR$COMDPTR,BYTE,RD,NOWRT
                               FFFE' 0000       	.WORD	VERB_G_SET-.-2
                                     0002       	.LIST
                                 00000000       	.PSECT	MCR$CMDATA,BYTE,RD,NOWRT
                                     0000       VERB_G_SET:
                                 25  0000       	.BYTE	CLI$K_VERB_SET
                                 11  0001       	.BYTE	1*16!1
                                 00' 0002       	.BYTE	IMG_K_BACKTRANS
                                 01' 0003       	.BYTE	QUA_G_SET-.-1
                                 01  0004       	.BYTE	$$$
                                     0005       	.SAVE
                                 00000006       	.PSECT	$ABS$,ABS
                           00000000  0006       	.=0
                                     0000       QUA_B_OFFSET:
                           00000001  0000       	.BLKB	1
                                     0001       QUA_B_CODE:
                           00000002  0001       	.BLKB	1
MCRDBAS3        - MCR COMMAND DATA BASE MODULE 3                 22-AUG-1978 01:33:00   VAX-11 MACRO X0.3-11               Page   3
01              DEFINE MCR COMMANDS                                                                                              (1)

                                     0002       QUA_B_INDEX:
                           00000003  0002       	.BLKB	1
                                     0003       QUA_B_DEFVAL:
                           00000004  0003       	.BLKB	1
                                     0004       QUA_W_FLAGS:
                           00000006  0004       	.BLKW	1
                                     0006       QUA_B_IMAGE:
                           00000007  0006       	.BLKB	1
                                     0007       QUA_G_CHNGLST:
                                     0007       QUA_W_QUALIST:
                           00000009  0007       	.BLKW	1
                                     0009       QUA_B_PARMCNT:
                           0000000A  0009       	.BLKB	1
                                 00000005       	.RESTORE
                                     0005       	.SAVE
                                 00000005       	.PSECT	MCR$CMDATA,BYTE,RD,NOWRT
                                     0005       QUA_G_SET:
                                 0A' 0005       30001$:	.BYTE	30004$-30001$
                                 00' 0006       	.BYTE	CLI$K_SET_ACCO
                                 00' 0007       	.BYTE	QUA_K_ACCO
                                 00  0008       	.IIF B <>,	.BYTE	0
                               0411  0009       	.WORD	$$$
                                 00' 000B       	.BYTE	IMG_K_SET
                               02DC' 000C       	.WORD	QUA_G_STAC-.
                                 00  000E       	.BYTE	0*16+0
                                     000F       30004$:
                                 0A' 000F       30006$:	.BYTE	30009$-30006$
                                 00' 0010       	.BYTE	CLI$K_SET_CARD
                                 00' 0011       	.BYTE	QUA_K_CARD
                                 00  0012       	.IIF B <>,	.BYTE	0
                               0411  0013       	.WORD	$$$
                                 00' 0015       	.BYTE	IMG_K_SET
                               027C' 0016       	.WORD	QUA_G_STCR-.
                                 11  0018       	.BYTE	1*16+1
                                     0019       30009$:
                                 0A' 0019       30011$:	.BYTE	30014$-30011$
                                 00' 001A       	.BYTE	CLI$K_SET_DEVI
                                 00' 001B       	.BYTE	QUA_K_DEVI
                                 00  001C       	.IIF B <>,	.BYTE	0
                               0411  001D       	.WORD	$$$
                                 00' 001F       	.BYTE	IMG_K_SET
                               0099' 0020       	.WORD	QUA_G_STDV-.
                                 11  0022       	.BYTE	1*16+1
                                     0023       30014$:
                                 0A' 0023       30016$:	.BYTE	30019$-30016$
                                 00' 0024       	.BYTE	CLI$K_SET_DEFA
                                 00' 0025       	.BYTE	QUA_K_DEFA
                                 00  0026       	.IIF B <>,	.BYTE	0
                               0411  0027       	.WORD	$$$
                                 00' 0029       	.BYTE	IMG_K_SETDEFALT
                               FFFF  002A       	.WORD	-1
                                 11  002C       	.BYTE	1*16+1
                                     002D       30019$:
                                 0A' 002D       30021$:	.BYTE	30024$-30021$
                                 00' 002E       	.BYTE	CLI$K_SET_LOGI
                                 00' 002F       	.BYTE	QUA_K_LOGI
                                 00  0030       	.IIF B <>,	.BYTE	0
MCRDBAS3        - MCR COMMAND DATA BASE MODULE 3                 22-AUG-1978 01:33:00   VAX-11 MACRO X0.3-11               Page   4
01              DEFINE MCR COMMANDS                                                                                              (1)

                               0411  0031       	.WORD	$$$
                                 00' 0033       	.BYTE	IMG_K_SET
                               0095' 0034       	.WORD	QUA_G_STLG-.
                                 00  0036       	.BYTE	0*16+0
                                     0037       30024$:
                                 0A' 0037       30026$:	.BYTE	30029$-30026$
                                 00' 0038       	.BYTE	CLI$K_SET_MAGT
                                 00' 0039       	.BYTE	QUA_K_MAGT
                                 00  003A       	.IIF B <>,	.BYTE	0
                               0411  003B       	.WORD	$$$
                                 00' 003D       	.BYTE	IMG_K_SET
                               0095' 003E       	.WORD	QUA_G_STMT-.
                                 11  0040       	.BYTE	1*16+1
                                     0041       30029$:
                                 0A' 0041       30031$:	.BYTE	30034$-30031$
                                 00' 0042       	.BYTE	CLI$K_SET_ON
                                 00' 0043       	.BYTE	QUA_K_ON
                                 00  0044       	.IIF B <>,	.BYTE	0
                               0451  0045       	.WORD	$$$
                                 00' 0047       	.BYTE	IMG_K_SETON
                               FFFF  0048       	.WORD	-1
                                 00  004A       	.BYTE	0*16+0
                                     004B       30034$:
                                 0A' 004B       30036$:	.BYTE	30039$-30036$
                                 00' 004C       	.BYTE	CLI$K_SET_PASS
                                 00' 004D       	.BYTE	QUA_K_PASS
                                 00  004E       	.IIF B <>,	.BYTE	0
                               0411  004F       	.WORD	$$$
                                 00' 0051       	.BYTE	IMG_K_SET
                               FFFF  0052       	.WORD	-1
                                 00  0054       	.BYTE	0*16+0
                                     0055       30039$:
                                 0A' 0055       30041$:	.BYTE	30044$-30041$
                                 00' 0056       	.BYTE	CLI$K_SET_PRIN
                                 00' 0057       	.BYTE	QUA_K_PRIN
                                 00  0058       	.IIF B <>,	.BYTE	0
                               0411  0059       	.WORD	$$$
                                 00' 005B       	.BYTE	IMG_K_SET
                               01E2' 005C       	.WORD	QUA_G_STLP-.
                                 11  005E       	.BYTE	1*16+1
                                     005F       30044$:
                                 0A' 005F       30046$:	.BYTE	30049$-30046$
                                 00' 0060       	.BYTE	CLI$K_SET_PROC
                                 00' 0061       	.BYTE	QUA_K_PROC
                                 00  0062       	.IIF B <>,	.BYTE	0
                               0411  0063       	.WORD	$$$
                                 00' 0065       	.BYTE	IMG_K_SET
                               0087' 0066       	.WORD	QUA_G_STPC-.
                                 10  0068       	.BYTE	1*16+0
                                     0069       30049$:
                                 0A' 0069       30051$:	.BYTE	30054$-30051$
                                 00' 006A       	.BYTE	CLI$K_SET_PROT
                                 00' 006B       	.BYTE	QUA_K_PROT
                                 00  006C       	.IIF B <>,	.BYTE	0
                               4429  006D       	.WORD	$$$
                                 00' 006F       	.BYTE	IMG_K_BACKTRANS
                               0095' 0070       	.WORD	QUA_G_STPR-.
MCRDBAS3        - MCR COMMAND DATA BASE MODULE 3                 22-AUG-1978 01:33:00   VAX-11 MACRO X0.3-11               Page   5
01              DEFINE MCR COMMANDS                                                                                              (1)

                                 11  0072       	.BYTE	1*16+1
                                     0073       30054$:
                                 0A' 0073       30056$:	.BYTE	30059$-30056$
                                 00' 0074       	.BYTE	CLI$K_SET_QUEU
                                 00' 0075       	.BYTE	QUA_K_QUEU
                                 00  0076       	.IIF B <>,	.BYTE	0
                               0411  0077       	.WORD	$$$
                                 00' 0079       	.BYTE	IMG_K_SET
                               0238' 007A       	.WORD	QUA_G_STQE-.
                                 10  007C       	.BYTE	1*16+0
                                     007D       30059$:
                                 0A' 007D       30061$:	.BYTE	30064$-30061$
                                 00' 007E       	.BYTE	CLI$K_SET_TERM
                                 00' 007F       	.BYTE	QUA_K_TERM
                                 00  0080       	.IIF B <>,	.BYTE	0
                               0411  0081       	.WORD	$$$
                                 00' 0083       	.BYTE	IMG_K_SET
                               009E' 0084       	.WORD	QUA_G_STTT-.
                                 10  0086       	.BYTE	1*16+0
                                     0087       30064$:
                                 0A' 0087       30066$:	.BYTE	30069$-30066$
                                 00' 0088       	.BYTE	CLI$K_SET_UIC
                                 00' 0089       	.BYTE	QUA_K_UIC
                                 00  008A       	.IIF B <>,	.BYTE	0
                               0411  008B       	.WORD	$$$
                                 00' 008D       	.BYTE	IMG_K_SETUIC
                               FFFF  008E       	.WORD	-1
                                 11  0090       	.BYTE	1*16+1
                                     0091       30069$:
                                 0A' 0091       30071$:	.BYTE	30074$-30071$
                                 00' 0092       	.BYTE	CLI$K_SET_VERI
                                 00' 0093       	.BYTE	QUA_K_VERI
                                 00  0094       	.IIF B <>,	.BYTE	0
                               0451  0095       	.WORD	$$$
                                 00' 0097       	.BYTE	IMG_K_SETVERIFY
                               FFFF  0098       	.WORD	-1
                                 00  009A       	.BYTE	0*16+0
                                     009B       30074$:
                                 0A' 009B       30076$:	.BYTE	30079$-30076$
                                 00' 009C       	.BYTE	CLI$K_SET_WORK
                                 00' 009D       	.BYTE	QUA_K_WORK
                                 00  009E       	.IIF B <>,	.BYTE	0
                               0411  009F       	.WORD	$$$
                                 00' 00A1       	.BYTE	IMG_K_SET
                               0204' 00A2       	.WORD	QUA_G_STWR-.
                                 00  00A4       	.BYTE	0*16+0
                                     00A5       30079$:
                                 0A' 00A5       30081$:	.BYTE	30084$-30081$
                                 00' 00A6       	.BYTE	CLI$K_SET_RMS_
                                 00' 00A7       	.BYTE	QUA_K_RMS_
                                 00  00A8       	.IIF B <>,	.BYTE	0
                               0411  00A9       	.WORD	$$$
                                 00' 00AB       	.BYTE	IMG_K_SET
                               024E' 00AC       	.WORD	QUA_G_STRM-.
                                 00  00AE       	.BYTE	0*16+0
                                     00AF       30084$:
                                 0A' 00AF       30086$:	.BYTE	30089$-30086$
MCRDBAS3        - MCR COMMAND DATA BASE MODULE 3                 22-AUG-1978 01:33:00   VAX-11 MACRO X0.3-11               Page   6
01              DEFINE MCR COMMANDS                                                                                              (1)

                                 00' 00B0       	.BYTE	CLI$K_SET_CONT
                                 00' 00B1       	.BYTE	QUA_K_CONT
                                 00  00B2       	.IIF B <>,	.BYTE	0
                               0451  00B3       	.WORD	$$$
                                 00' 00B5       	.BYTE	IMG_K_SETCTLY
                               FFFF  00B6       	.WORD	-1
                                 00  00B8       	.BYTE	0*16+0
                                     00B9       30089$:
                           000000AF  00B9       .=$QUALBLK$
                                 00  00AF       	.BYTE	0
                                 00000005       	.RESTORE
                                     0005       	.SAVE
                                 000000B9       	.PSECT	MCR$CMDATA,BYTE,RD,NOWRT
                                     00B9       QUA_G_STDV:
                                 0A' 00B9       30091$:	.BYTE	30094$-30091$
                                 00' 00BA       	.BYTE	CLI$K_STDV_SPOO
                                 06' 00BB       	.BYTE	<30093$-30091$>
                                 00  00BC       	.IIF B <>,	.BYTE	0
                               006A  00BD       	.WORD	$$$
                        4F 4F 50 53  00BF       30093$:	.ASCII	\SPOO\
                                     00C3       30094$:
                                 06' 00C3       30095$:	.BYTE	30098$-30095$
                                 00' 00C4       	.BYTE	CLI$K_STDV_ERRO
                                 00' 00C5       	.BYTE	QUA_K_ERRO
                                 00  00C6       	.IIF B <>,	.BYTE	0
                               0048  00C7       	.WORD	$$$
                                     00C9       30098$:
                           000000C3  00C9       .=$QUALBLK$
                                 00  00C3       	.BYTE	0
                                 00000005       	.RESTORE
                                     0005       	.SAVE
                                 000000C9       	.PSECT	MCR$CMDATA,BYTE,RD,NOWRT
                                     00C9       QUA_G_STLG:
                                 0A' 00C9       30099$:	.BYTE	30102$-30099$
                                 00' 00CA       	.BYTE	CLI$K_STLG_INTE
                                 06' 00CB       	.BYTE	<30101$-30099$>
                                 00  00CC       	.IIF B <>,	.BYTE	0
                               202A  00CD       	.WORD	$$$
                        45 54 4E 49  00CF       30101$:	.ASCII	\INTE\
                                     00D3       30102$:
                           000000C9  00D3       .=$QUALBLK$
                                 00  00C9       	.BYTE	0
                                 00000005       	.RESTORE
                                     0005       	.SAVE
                                 000000D3       	.PSECT	MCR$CMDATA,BYTE,RD,NOWRT
                                     00D3       QUA_G_STMT:
                                 06' 00D3       30103$:	.BYTE	30106$-30103$
                                 00' 00D4       	.BYTE	CLI$K_STMT_DENS
                                 00' 00D5       	.BYTE	QUA_K_DENS
                                 00  00D6       	.IIF B <>,	.BYTE	0
                               3028  00D7       	.WORD	$$$
                                     00D9       30106$:
                                 0A' 00D9       30107$:	.BYTE	30110$-30107$
                                 00' 00DA       	.BYTE	CLI$K_STMT_REWI
                                 06' 00DB       	.BYTE	<30109$-30107$>
                                 00  00DC       	.IIF B <>,	.BYTE	0
                               000A  00DD       	.WORD	$$$
MCRDBAS3        - MCR COMMAND DATA BASE MODULE 3                 22-AUG-1978 01:33:00   VAX-11 MACRO X0.3-11               Page   7
01              DEFINE MCR COMMANDS                                                                                              (1)

                        49 57 45 52  00DF       30109$:	.ASCII	\REWI\
                                     00E3       30110$:
                                 0A' 00E3       30111$:	.BYTE	30114$-30111$
                                 00' 00E4       	.BYTE	CLI$K_STMT_UNLO
                                 06' 00E5       	.BYTE	<30113$-30111$>
                                 00  00E6       	.IIF B <>,	.BYTE	0
                               000A  00E7       	.WORD	$$$
                        4F 4C 4E 55  00E9       30113$:	.ASCII	\UNLO\
                                     00ED       30114$:
                           000000E3  00ED       .=$QUALBLK$
                                 00  00E3       	.BYTE	0
                                 00000005       	.RESTORE
                                     0005       	.SAVE
                                 000000ED       	.PSECT	MCR$CMDATA,BYTE,RD,NOWRT
                                     00ED       QUA_G_STPC:
                                 06' 00ED       30115$:	.BYTE	30118$-30115$
                                 00' 00EE       	.BYTE	CLI$K_STPC_IDEN
                                 00' 00EF       	.BYTE	QUA_K_IDEN
                                 00  00F0       	.IIF B <>,	.BYTE	0
                               3028  00F1       	.WORD	$$$
                                     00F3       30118$:
                                 06' 00F3       30119$:	.BYTE	30122$-30119$
                                 00' 00F4       	.BYTE	CLI$K_STPC_PRIO
                                 00' 00F5       	.BYTE	QUA_K_PRIO
                                 00  00F6       	.IIF B <>,	.BYTE	0
                               3028  00F7       	.WORD	$$$
                                     00F9       30122$:
                                 06' 00F9       30123$:	.BYTE	30126$-30123$
                                 00' 00FA       	.BYTE	CLI$K_STPC_RESO
                                 00' 00FB       	.BYTE	QUA_K_RESO
                                 00  00FC       	.IIF B <>,	.BYTE	0
                               0048  00FD       	.WORD	$$$
                                     00FF       30126$:
                                 06' 00FF       30127$:	.BYTE	30130$-30127$
                                 00' 0100       	.BYTE	CLI$K_STPC_SWAP
                                 00' 0101       	.BYTE	QUA_K_SWAP
                                 00  0102       	.IIF B <>,	.BYTE	0
                               0048  0103       	.WORD	$$$
                                     0105       30130$:
                           000000FF  0105       .=$QUALBLK$
                                 00  00FF       	.BYTE	0
                                 00000005       	.RESTORE
                                     0005       	.SAVE
                                 00000105       	.PSECT	MCR$CMDATA,BYTE,RD,NOWRT
                                     0105       QUA_G_STPR:
                                 0A' 0105       30131$:	.BYTE	30134$-30131$
                                 00' 0106       	.BYTE	CLI$K_STPR_DEFA
                                 00' 0107       	.BYTE	QUA_K_DEFA
                                 00  0108       	.IIF B <>,	.BYTE	0
                               0411  0109       	.WORD	$$$
                                 00' 010B       	.BYTE	IMG_K_SETPROT
                               0000  010C       	.WORD	0
                                 00  010E       	.BYTE	0*16+0
                                     010F       30134$:
                                 06' 010F       30136$:	.BYTE	30139$-30136$
                                 00' 0110       	.BYTE	CLI$K_STPR_PROT
                                 00' 0111       	.BYTE	QUA_K_PROT
MCRDBAS3        - MCR COMMAND DATA BASE MODULE 3                 22-AUG-1978 01:33:00   VAX-11 MACRO X0.3-11               Page   8
01              DEFINE MCR COMMANDS                                                                                              (1)

                                 00  0112       	.IIF B <>,	.BYTE	0
                               5030  0113       	.WORD	$$$
                                     0115       30139$:
                                 07' 0115       30140$:	.BYTE	30143$-30140$
                                 00' 0116       	.BYTE	CLI$K_STPR_DEVI
                                 00' 0117       	.BYTE	QUA_K_DEVI
                                 00  0118       	.IIF B <>,	.BYTE	0
                               0408  0119       	.WORD	$$$
                                 00' 011B       	.BYTE	IMG_K_SET
                                     011C       30143$:
                                 06' 011C       30144$:	.BYTE	30147$-30144$
                                 00' 011D       	.BYTE	CLI$K_STPR_OWNE
                                 00' 011E       	.BYTE	QUA_K_OWNE
                                 00  011F       	.IIF B <>,	.BYTE	0
                               002C  0120       	.WORD	$$$
                                     0122       30147$:
                           0000011C  0122       .=$QUALBLK$
                                 00  011C       	.BYTE	0
                                 00000005       	.RESTORE
                                     0005       	.SAVE
                                 00000122       	.PSECT	MCR$CMDATA,BYTE,RD,NOWRT
                                     0122       QUA_G_STTT:
                                 06' 0122       30148$:	.BYTE	30151$-30148$
                                 00' 0123       	.BYTE	CLI$K_STTT_BROA
                                 00' 0124       	.BYTE	QUA_K_BROA
                                 00  0125       	.IIF B <>,	.BYTE	0
                               0048  0126       	.WORD	$$$
                                     0128       30151$:
                                 0A' 0128       30152$:	.BYTE	30155$-30152$
                                 00' 0129       	.BYTE	CLI$K_STTT_CRFI
                                 06' 012A       	.BYTE	<30154$-30152$>
                                 00  012B       	.IIF B <>,	.BYTE	0
                               202A  012C       	.WORD	$$$
                        49 46 52 43  012E       30154$:	.ASCII	\CRFI\
                                     0132       30155$:
                                 0A' 0132       30156$:	.BYTE	30159$-30156$
                                 00' 0133       	.BYTE	CLI$K_STTT_ECHO
                                 06' 0134       	.BYTE	<30158$-30156$>
                                 00  0135       	.IIF B <>,	.BYTE	0
                               004A  0136       	.WORD	$$$
                        4F 48 43 45  0138       30158$:	.ASCII	\ECHO\
                                     013C       30159$:
                                 0A' 013C       30160$:	.BYTE	30163$-30160$
                                 00' 013D       	.BYTE	CLI$K_STTT_EIGH
                                 06' 013E       	.BYTE	<30162$-30160$>
                                 00  013F       	.IIF B <>,	.BYTE	0
                               004A  0140       	.WORD	$$$
                        48 47 49 45  0142       30162$:	.ASCII	\EIGH\
                                     0146       30163$:
                                 0A' 0146       30164$:	.BYTE	30167$-30164$
                                 00' 0147       	.BYTE	CLI$K_STTT_ESCA
                                 06' 0148       	.BYTE	<30166$-30164$>
                                 00  0149       	.IIF B <>,	.BYTE	0
                               004A  014A       	.WORD	$$$
                        41 43 53 45  014C       30166$:	.ASCII	\ESCA\
                                     0150       30167$:
                                 0A' 0150       30168$:	.BYTE	30171$-30168$
MCRDBAS3        - MCR COMMAND DATA BASE MODULE 3                 22-AUG-1978 01:33:00   VAX-11 MACRO X0.3-11               Page   9
01              DEFINE MCR COMMANDS                                                                                              (1)

                                 00' 0151       	.BYTE	CLI$K_STTT_HARD
                                 06' 0152       	.BYTE	<30170$-30168$>
                                 00  0153       	.IIF B <>,	.BYTE	0
                               004A  0154       	.WORD	$$$
                        44 52 41 48  0156       30170$:	.ASCII	\HARD\
                                     015A       30171$:
                                 06' 015A       30172$:	.BYTE	30175$-30172$
                                 00' 015B       	.BYTE	CLI$K_STTT_HOLD
                                 00' 015C       	.BYTE	QUA_K_HOLD
                                 00  015D       	.IIF B <>,	.BYTE	0
                               0048  015E       	.WORD	$$$
                                     0160       30175$:
                                 0A' 0160       30176$:	.BYTE	30179$-30176$
                                 00' 0161       	.BYTE	CLI$K_STTT_HOST
                                 06' 0162       	.BYTE	<30178$-30176$>
                                 00  0163       	.IIF B <>,	.BYTE	0
                               004A  0164       	.WORD	$$$
                        54 53 4F 48  0166       30178$:	.ASCII	\HOST\
                                     016A       30179$:
                                 0A' 016A       30180$:	.BYTE	30183$-30180$
                                 00' 016B       	.BYTE	CLI$K_STTT_INTE
                                 06' 016C       	.BYTE	<30182$-30180$>
                                 00  016D       	.IIF B <>,	.BYTE	0
                               004A  016E       	.WORD	$$$
                        45 54 4E 49  0170       30182$:	.ASCII	\INTE\
                                     0174       30183$:
                                 0A' 0174       30184$:	.BYTE	30187$-30184$
                                 00' 0175       	.BYTE	CLI$K_STTT_LA36
                                 06' 0176       	.BYTE	<30186$-30184$>
                                 00  0177       	.IIF B <>,	.BYTE	0
                               000A  0178       	.WORD	$$$
                        36 33 41 4C  017A       30186$:	.ASCII	\LA36\
                                     017E       30187$:
                                 0A' 017E       30188$:	.BYTE	30191$-30188$
                                 00' 017F       	.BYTE	CLI$K_STTT_LFFI
                                 06' 0180       	.BYTE	<30190$-30188$>
                                 00  0181       	.IIF B <>,	.BYTE	0
                               202A  0182       	.WORD	$$$
                        49 46 46 4C  0184       30190$:	.ASCII	\LFFI\
                                     0188       30191$:
                                 06' 0188       30192$:	.BYTE	30195$-30192$
                                 00' 0189       	.BYTE	CLI$K_STTT_LOCA
                                 00' 018A       	.BYTE	QUA_K_LOCA
                                 00  018B       	.IIF B <>,	.BYTE	0
                               0048  018C       	.WORD	$$$
                                     018E       30195$:
                                 06' 018E       30196$:	.BYTE	30199$-30196$
                                 00' 018F       	.BYTE	CLI$K_STTT_LOWE
                                 00' 0190       	.BYTE	QUA_K_LOWE
                                 00  0191       	.IIF B <>,	.BYTE	0
                               0048  0192       	.WORD	$$$
                                     0194       30199$:
                                 06' 0194       30200$:	.BYTE	30203$-30200$
                                 00' 0195       	.BYTE	CLI$K_STTT_PAGE
                                 00' 0196       	.BYTE	QUA_K_PAGE
                                 00  0197       	.IIF B <>,	.BYTE	0
                               2028  0198       	.WORD	$$$
MCRDBAS3        - MCR COMMAND DATA BASE MODULE 3                 22-AUG-1978 01:33:00   VAX-11 MACRO X0.3-11               Page  10
01              DEFINE MCR COMMANDS                                                                                              (1)

                                     019A       30203$:
                                 0A' 019A       30204$:	.BYTE	30207$-30204$
                                 00' 019B       	.BYTE	CLI$K_STTT_PASS
                                 06' 019C       	.BYTE	<30206$-30204$>
                                 00  019D       	.IIF B <>,	.BYTE	0
                               004A  019E       	.WORD	$$$
                        53 53 41 50  01A0       30206$:	.ASCII	\PASS\
                                     01A4       30207$:
                                 0A' 01A4       30208$:	.BYTE	30211$-30208$
                                 00' 01A5       	.BYTE	CLI$K_STTT_PERM
                                 06' 01A6       	.BYTE	<30210$-30208$>
                                 00  01A7       	.IIF B <>,	.BYTE	0
                               000A  01A8       	.WORD	$$$
                        4D 52 45 50  01AA       30210$:	.ASCII	\PERM\
                                     01AE       30211$:
                                 06' 01AE       30212$:	.BYTE	30215$-30212$
                                 00' 01AF       	.BYTE	CLI$K_STTT_REMO
                                 00' 01B0       	.BYTE	QUA_K_REMO
                                 00  01B1       	.IIF B <>,	.BYTE	0
                               0048  01B2       	.WORD	$$$
                                     01B4       30215$:
                                 0A' 01B4       30216$:	.BYTE	30219$-30216$
                                 00' 01B5       	.BYTE	CLI$K_STTT_SCOP
                                 06' 01B6       	.BYTE	<30218$-30216$>
                                 00  01B7       	.IIF B <>,	.BYTE	0
                               004A  01B8       	.WORD	$$$
                        50 4F 43 53  01BA       30218$:	.ASCII	\SCOP\
                                     01BE       30219$:
                                 0A' 01BE       30220$:	.BYTE	30223$-30220$
                                 00' 01BF       	.BYTE	CLI$K_STTT_SCRI
                                 06' 01C0       	.BYTE	<30222$-30220$>
                                 00  01C1       	.IIF B <>,	.BYTE	0
                               004A  01C2       	.WORD	$$$
                        49 52 43 53  01C4       30222$:	.ASCII	\SCRI\
                                     01C8       30223$:
                                 0A' 01C8       30224$:	.BYTE	30227$-30224$
                                 00' 01C9       	.BYTE	CLI$K_STTT_SPEE
                                 06' 01CA       	.BYTE	<30226$-30224$>
                                 00  01CB       	.IIF B <>,	.BYTE	0
                               102A  01CC       	.WORD	$$$
                        45 45 50 53  01CE       30226$:	.ASCII	\SPEE\
                                     01D2       30227$:
                                 0A' 01D2       30228$:	.BYTE	30231$-30228$
                                 00' 01D3       	.BYTE	CLI$K_STTT_TAB
                                 06' 01D4       	.BYTE	<30230$-30228$>
                                 00  01D5       	.IIF B <>,	.BYTE	0
                               004A  01D6       	.WORD	$$$
                           42 41 54  01D8       30230$:	.ASCII	\TAB\
                                 00  01DB       	.ASCII	< >
                                     01DC       30231$:
                                 0A' 01DC       30232$:	.BYTE	30235$-30232$
                                 00' 01DD       	.BYTE	CLI$K_STTT_TTSY
                                 06' 01DE       	.BYTE	<30234$-30232$>
                                 00  01DF       	.IIF B <>,	.BYTE	0
                               004A  01E0       	.WORD	$$$
                        59 53 54 54  01E2       30234$:	.ASCII	\TTSY\
                                     01E6       30235$:
MCRDBAS3        - MCR COMMAND DATA BASE MODULE 3                 22-AUG-1978 01:33:00   VAX-11 MACRO X0.3-11               Page  11
01              DEFINE MCR COMMANDS                                                                                              (1)

                                 06' 01E6       30236$:	.BYTE	30239$-30236$
                                 00' 01E7       	.BYTE	CLI$K_STTT_TYPE
                                 00' 01E8       	.BYTE	QUA_K_TYPE
                                 00  01E9       	.IIF B <>,	.BYTE	0
                               0048  01EA       	.WORD	$$$
                                     01EC       30239$:
                                 0A' 01EC       30240$:	.BYTE	30243$-30240$
                                 00' 01ED       	.BYTE	CLI$K_STTT_UNKN
                                 06' 01EE       	.BYTE	<30242$-30240$>
                                 00  01EF       	.IIF B <>,	.BYTE	0
                               000A  01F0       	.WORD	$$$
                        4E 4B 4E 55  01F2       30242$:	.ASCII	\UNKN\
                                     01F6       30243$:
                                 06' 01F6       30244$:	.BYTE	30247$-30244$
                                 00' 01F7       	.BYTE	CLI$K_STTT_UPPE
                                 00' 01F8       	.BYTE	QUA_K_UPPE
                                 00  01F9       	.IIF B <>,	.BYTE	0
                               0048  01FA       	.WORD	$$$
                                     01FC       30247$:
                                 0A' 01FC       30248$:	.BYTE	30251$-30248$
                                 00' 01FD       	.BYTE	CLI$K_STTT_VT05
                                 06' 01FE       	.BYTE	<30250$-30248$>
                                 00  01FF       	.IIF B <>,	.BYTE	0
                               000A  0200       	.WORD	$$$
                        35 30 54 56  0202       30250$:	.ASCII	\VT05\
                                     0206       30251$:
                                 0A' 0206       30252$:	.BYTE	30255$-30252$
                                 00' 0207       	.BYTE	CLI$K_STTT_VT52
                                 06' 0208       	.BYTE	<30254$-30252$>
                                 00  0209       	.IIF B <>,	.BYTE	0
                               000A  020A       	.WORD	$$$
                        32 35 54 56  020C       30254$:	.ASCII	\VT52\
                                     0210       30255$:
                                 0A' 0210       30256$:	.BYTE	30259$-30256$
                                 00' 0211       	.BYTE	CLI$K_STTT_VT55
                                 06' 0212       	.BYTE	<30258$-30256$>
                                 00  0213       	.IIF B <>,	.BYTE	0
                               000A  0214       	.WORD	$$$
                        35 35 54 56  0216       30258$:	.ASCII	\VT55\
                                     021A       30259$:
                                 06' 021A       30260$:	.BYTE	30263$-30260$
                                 00' 021B       	.BYTE	CLI$K_STTT_WIDT
                                 00' 021C       	.BYTE	QUA_K_WIDT
                                 00  021D       	.IIF B <>,	.BYTE	0
                               2028  021E       	.WORD	$$$
                                     0220       30263$:
                                 0A' 0220       30264$:	.BYTE	30267$-30264$
                                 00' 0221       	.BYTE	CLI$K_STTT_WRAP
                                 06' 0222       	.BYTE	<30266$-30264$>
                                 00  0223       	.IIF B <>,	.BYTE	0
                               004A  0224       	.WORD	$$$
                        50 41 52 57  0226       30266$:	.ASCII	\WRAP\
                                     022A       30267$:
                                 0A' 022A       30268$:	.BYTE	30271$-30268$
                                 00' 022B       	.BYTE	CLI$K_STTT_PARI
                                 06' 022C       	.BYTE	<30270$-30268$>
                                 00  022D       	.IIF B <>,	.BYTE	0
MCRDBAS3        - MCR COMMAND DATA BASE MODULE 3                 22-AUG-1978 01:33:00   VAX-11 MACRO X0.3-11               Page  12
01              DEFINE MCR COMMANDS                                                                                              (1)

                               206A  022E       	.WORD	$$$
                        49 52 41 50  0230       30270$:	.ASCII	\PARI\
                                     0234       30271$:
                                 0A' 0234       30272$:	.BYTE	30275$-30272$
                                 00' 0235       	.BYTE	CLI$K_STTT_READ
                                 06' 0236       	.BYTE	<30274$-30272$>
                                 00  0237       	.IIF B <>,	.BYTE	0
                               004A  0238       	.WORD	$$$
                        44 41 45 52  023A       30274$:	.ASCII	\READ\
                                     023E       30275$:
                           00000234  023E       .=$QUALBLK$
                                 00  0234       	.BYTE	0
                                 00000005       	.RESTORE
                                     0005       	.SAVE
                                 0000023E       	.PSECT	MCR$CMDATA,BYTE,RD,NOWRT
                                     023E       QUA_G_STLP:
                                 0A' 023E       30276$:	.BYTE	30279$-30276$
                                 00' 023F       	.BYTE	CLI$K_STLP_CR
                                 06' 0240       	.BYTE	<30278$-30276$>
                                 00  0241       	.IIF B <>,	.BYTE	0
                               004A  0242       	.WORD	$$$
                              52 43  0244       30278$:	.ASCII	\CR\
                                 00  0246       	.ASCII	< >
                                 00  0247       	.ASCII	< >
                                     0248       30279$:
                                 0A' 0248       30280$:	.BYTE	30283$-30280$
                                 00' 0249       	.BYTE	CLI$K_STLP_FF
                                 06' 024A       	.BYTE	<30282$-30280$>
                                 00  024B       	.IIF B <>,	.BYTE	0
                               004A  024C       	.WORD	$$$
                              46 46  024E       30282$:	.ASCII	\FF\
                                 00  0250       	.ASCII	< >
                                 00  0251       	.ASCII	< >
                                     0252       30283$:
                                 06' 0252       30284$:	.BYTE	30287$-30284$
                                 00' 0253       	.BYTE	CLI$K_STLP_UPPE
                                 00' 0254       	.BYTE	QUA_K_UPPE
                                 00  0255       	.IIF B <>,	.BYTE	0
                               0048  0256       	.WORD	$$$
                                     0258       30287$:
                                 06' 0258       30288$:	.BYTE	30291$-30288$
                                 00' 0259       	.BYTE	CLI$K_STLP_LOWE
                                 00' 025A       	.BYTE	QUA_K_LOWE
                                 00  025B       	.IIF B <>,	.BYTE	0
                               0048  025C       	.WORD	$$$
                                     025E       30291$:
                                 0A' 025E       30292$:	.BYTE	30295$-30292$
                                 00' 025F       	.BYTE	CLI$K_STLP_LA11
                                 06' 0260       	.BYTE	<30294$-30292$>
                                 00  0261       	.IIF B <>,	.BYTE	0
                               000A  0262       	.WORD	$$$
                        31 31 41 4C  0264       30294$:	.ASCII	\LA11\
                                     0268       30295$:
                                 0A' 0268       30296$:	.BYTE	30299$-30296$
                                 00' 0269       	.BYTE	CLI$K_STLP_LA18
                                 06' 026A       	.BYTE	<30298$-30296$>
                                 00  026B       	.IIF B <>,	.BYTE	0
MCRDBAS3        - MCR COMMAND DATA BASE MODULE 3                 22-AUG-1978 01:33:00   VAX-11 MACRO X0.3-11               Page  13
01              DEFINE MCR COMMANDS                                                                                              (1)

                               000A  026C       	.WORD	$$$
                        38 31 41 4C  026E       30298$:	.ASCII	\LA18\
                                     0272       30299$:
                                 0A' 0272       30300$:	.BYTE	30303$-30300$
                                 00' 0273       	.BYTE	CLI$K_STLP_LP11
                                 06' 0274       	.BYTE	<30302$-30300$>
                                 00  0275       	.IIF B <>,	.BYTE	0
                               000A  0276       	.WORD	$$$
                        31 31 50 4C  0278       30302$:	.ASCII	\LP11\
                                     027C       30303$:
                                 06' 027C       30304$:	.BYTE	30307$-30304$
                                 00' 027D       	.BYTE	CLI$K_STLP_PAGE
                                 00' 027E       	.BYTE	QUA_K_PAGE
                                 00  027F       	.IIF B <>,	.BYTE	0
                               2028  0280       	.WORD	$$$
                                     0282       30307$:
                                 0A' 0282       30308$:	.BYTE	30311$-30308$
                                 00' 0283       	.BYTE	CLI$K_STLP_UNKN
                                 06' 0284       	.BYTE	<30310$-30308$>
                                 00  0285       	.IIF B <>,	.BYTE	0
                               000A  0286       	.WORD	$$$
                        4E 4B 4E 55  0288       30310$:	.ASCII	\UNKN\
                                     028C       30311$:
                                 06' 028C       30312$:	.BYTE	30315$-30312$
                                 00' 028D       	.BYTE	CLI$K_STLP_WIDT
                                 00' 028E       	.BYTE	QUA_K_WIDT
                                 00  028F       	.IIF B <>,	.BYTE	0
                               2028  0290       	.WORD	$$$
                                     0292       30315$:
                           0000028C  0292       .=$QUALBLK$
                                 00  028C       	.BYTE	0
                                 00000005       	.RESTORE
                                     0005       	.SAVE
                                 00000292       	.PSECT	MCR$CMDATA,BYTE,RD,NOWRT
                                     0292       QUA_G_STCR:
                                 0A' 0292       30316$:	.BYTE	30319$-30316$
                                 00' 0293       	.BYTE	CLI$K_STCR_026
                                 06' 0294       	.BYTE	<30318$-30316$>
                                 00  0295       	.IIF B <>,	.BYTE	0
                               000A  0296       	.WORD	$$$
                           36 32 30  0298       30318$:	.ASCII	\026\
                                 00  029B       	.ASCII	< >
                                     029C       30319$:
                                 0A' 029C       30320$:	.BYTE	30323$-30320$
                                 00' 029D       	.BYTE	CLI$K_STCR_029
                                 06' 029E       	.BYTE	<30322$-30320$>
                                 00  029F       	.IIF B <>,	.BYTE	0
                               000A  02A0       	.WORD	$$$
                           39 32 30  02A2       30322$:	.ASCII	\029\
                                 00  02A5       	.ASCII	< >
                                     02A6       30323$:
                           0000029C  02A6       .=$QUALBLK$
                                 00  029C       	.BYTE	0
                                 00000005       	.RESTORE
                                     0005       	.SAVE
                                 000002A6       	.PSECT	MCR$CMDATA,BYTE,RD,NOWRT
                                     02A6       QUA_G_STWR:
MCRDBAS3        - MCR COMMAND DATA BASE MODULE 3                 22-AUG-1978 01:33:00   VAX-11 MACRO X0.3-11               Page  14
01              DEFINE MCR COMMANDS                                                                                              (1)

                                 06' 02A6       30324$:	.BYTE	30327$-30324$
                                 00' 02A7       	.BYTE	CLI$K_STWR_LIMI
                                 00' 02A8       	.BYTE	QUA_K_LIMI
                                 00  02A9       	.IIF B <>,	.BYTE	0
                               0028  02AA       	.WORD	$$$
                                     02AC       30327$:
                                 06' 02AC       30328$:	.BYTE	30331$-30328$
                                 00' 02AD       	.BYTE	CLI$K_STWR_QUOT
                                 00' 02AE       	.BYTE	QUA_K_QUOT
                                 00  02AF       	.IIF B <>,	.BYTE	0
                               0028  02B0       	.WORD	$$$
                                     02B2       30331$:
                           000002AC  02B2       .=$QUALBLK$
                                 00  02AC       	.BYTE	0
                                 00000005       	.RESTORE
                                     0005       	.SAVE
                                 000002B2       	.PSECT	MCR$CMDATA,BYTE,RD,NOWRT
                                     02B2       QUA_G_STQE:
                                 06' 02B2       30332$:	.BYTE	30335$-30332$
                                 00' 02B3       	.BYTE	CLI$K_STQE_AFTE
                                 00' 02B4       	.BYTE	QUA_K_AFTE
                                 00  02B5       	.IIF B <>,	.BYTE	0
                               3028  02B6       	.WORD	$$$
                                     02B8       30335$:
                                 06' 02B8       30336$:	.BYTE	30339$-30336$
                                 00' 02B9       	.BYTE	CLI$K_STQE_JOB_
                                 00' 02BA       	.BYTE	QUA_K_JOB_
                                 00  02BB       	.IIF B <>,	.BYTE	0
                               3028  02BC       	.WORD	$$$
                                     02BE       30339$:
                                 06' 02BE       30340$:	.BYTE	30343$-30340$
                                 00' 02BF       	.BYTE	CLI$K_STQE_ENTR
                                 00' 02C0       	.BYTE	QUA_K_ENTR
                                 00  02C1       	.IIF B <>,	.BYTE	0
                               3028  02C2       	.WORD	$$$
                                     02C4       30343$:
                                 06' 02C4       30344$:	.BYTE	30347$-30344$
                                 00' 02C5       	.BYTE	CLI$K_STQE_FORM
                                 00' 02C6       	.BYTE	QUA_K_FORM
                                 00  02C7       	.IIF B <>,	.BYTE	0
                               3028  02C8       	.WORD	$$$
                                     02CA       30347$:
                                 06' 02CA       30348$:	.BYTE	30351$-30348$
                                 00' 02CB       	.BYTE	CLI$K_STQE_HOLD
                                 00' 02CC       	.BYTE	QUA_K_HOLD
                                 00  02CD       	.IIF B <>,	.BYTE	0
                               0008  02CE       	.WORD	$$$
                                     02D0       30351$:
                                 06' 02D0       30352$:	.BYTE	30355$-30352$
                                 00' 02D1       	.BYTE	CLI$K_STQE_LOWE
                                 00' 02D2       	.BYTE	QUA_K_LOWE
                                 00  02D3       	.IIF B <>,	.BYTE	0
                               0048  02D4       	.WORD	$$$
                                     02D6       30355$:
                                 06' 02D6       30356$:	.BYTE	30359$-30356$
                                 00' 02D7       	.BYTE	CLI$K_STQE_NAME
                                 00' 02D8       	.BYTE	QUA_K_NAME
MCRDBAS3        - MCR COMMAND DATA BASE MODULE 3                 22-AUG-1978 01:33:00   VAX-11 MACRO X0.3-11               Page  15
01              DEFINE MCR COMMANDS                                                                                              (1)

                                 00  02D9       	.IIF B <>,	.BYTE	0
                               3028  02DA       	.WORD	$$$
                                     02DC       30359$:
                                 06' 02DC       30360$:	.BYTE	30363$-30360$
                                 00' 02DD       	.BYTE	CLI$K_STQE_PRIO
                                 00' 02DE       	.BYTE	QUA_K_PRIO
                                 00  02DF       	.IIF B <>,	.BYTE	0
                               3028  02E0       	.WORD	$$$
                                     02E2       30363$:
                                 06' 02E2       30364$:	.BYTE	30367$-30364$
                                 00' 02E3       	.BYTE	CLI$K_STQE_RELE
                                 00' 02E4       	.BYTE	QUA_K_RELE
                                 00  02E5       	.IIF B <>,	.BYTE	0
                               0008  02E6       	.WORD	$$$
                                     02E8       30367$:
                           000002E2  02E8       .=$QUALBLK$
                                 00  02E2       	.BYTE	0
                                 00000005       	.RESTORE
                                     0005       	.SAVE
                                 000002E8       	.PSECT	MCR$CMDATA,BYTE,RD,NOWRT
                                     02E8       QUA_G_STAC:
                                 06' 02E8       30368$:	.BYTE	30371$-30368$
                                 00' 02E9       	.BYTE	CLI$K_STAC_DISA
                                 00' 02EA       	.BYTE	QUA_K_DISA
                                 00  02EB       	.IIF B <>,	.BYTE	0
                               0028  02EC       	.WORD	$$$
                                     02EE       30371$:
                                 06' 02EE       30372$:	.BYTE	30375$-30372$
                                 00' 02EF       	.BYTE	CLI$K_STAC_ENAB
                                 00' 02F0       	.BYTE	QUA_K_ENAB
                                 00  02F1       	.IIF B <>,	.BYTE	0
                               0028  02F2       	.WORD	$$$
                                     02F4       30375$:
                                 06' 02F4       30376$:	.BYTE	30379$-30376$
                                 00' 02F5       	.BYTE	CLI$K_STAC_NEW_
                                 00' 02F6       	.BYTE	QUA_K_NEW_
                                 00  02F7       	.IIF B <>,	.BYTE	0
                               0008  02F8       	.WORD	$$$
                                     02FA       30379$:
                           000002F4  02FA       .=$QUALBLK$
                                 00  02F4       	.BYTE	0
                                 00000005       	.RESTORE
                                     0005       	.SAVE
                                 000002FA       	.PSECT	MCR$CMDATA,BYTE,RD,NOWRT
                                     02FA       QUA_G_STRM:
                                 08' 02FA       30380$:	.BYTE	30383$-30380$
                                 00' 02FB       	.BYTE	CLI$K_STRM_BLOC
                                 00' 02FC       	.BYTE	QUA_K_BLOC
                                 06' 02FD       	.IIF NB	<0>,	.BYTE	30381$-30380$
                               2028  02FE       	.WORD	$$$
                              30 00' 0300       30381$:	.ASCIC	\0\
                                 01  0300
                                     0302       30383$:
                                 08' 0302       30384$:	.BYTE	30387$-30384$
                                 00' 0303       	.BYTE	CLI$K_STRM_BUFF
                                 00' 0304       	.BYTE	QUA_K_BUFF
                                 06' 0305       	.IIF NB	<0>,	.BYTE	30385$-30384$
MCRDBAS3        - MCR COMMAND DATA BASE MODULE 3                 22-AUG-1978 01:33:00   VAX-11 MACRO X0.3-11               Page  16
01              DEFINE MCR COMMANDS                                                                                              (1)

                               2028  0306       	.WORD	$$$
                              30 00' 0308       30385$:	.ASCIC	\0\
                                 01  0308
                                     030A       30387$:
                                 06' 030A       30388$:	.BYTE	30391$-30388$
                                 00' 030B       	.BYTE	CLI$K_STRM_DISK
                                 00' 030C       	.BYTE	QUA_K_DISK
                                 00  030D       	.IIF B <>,	.BYTE	0
                               0008  030E       	.WORD	$$$
                                     0310       30391$:
                                 06' 0310       30392$:	.BYTE	30395$-30392$
                                 00' 0311       	.BYTE	CLI$K_STRM_MAGT
                                 00' 0312       	.BYTE	QUA_K_MAGT
                                 00  0313       	.IIF B <>,	.BYTE	0
                               0008  0314       	.WORD	$$$
                                     0316       30395$:
                                 06' 0316       30396$:	.BYTE	30399$-30396$
                                 00' 0317       	.BYTE	CLI$K_STRM_UNIT
                                 00' 0318       	.BYTE	QUA_K_UNIT
                                 00  0319       	.IIF B <>,	.BYTE	0
                               0008  031A       	.WORD	$$$
                                     031C       30399$:
                                 06' 031C       30400$:	.BYTE	30403$-30400$
                                 00' 031D       	.BYTE	CLI$K_STRM_HASH
                                 00' 031E       	.BYTE	QUA_K_HASH
                                 00  031F       	.IIF B <>,	.BYTE	0
                               0008  0320       	.WORD	$$$
                                     0322       30403$:
                                 06' 0322       30404$:	.BYTE	30407$-30404$
                                 00' 0323       	.BYTE	CLI$K_STRM_INDE
                                 00' 0324       	.BYTE	QUA_K_INDE
                                 00  0325       	.IIF B <>,	.BYTE	0
                               0008  0326       	.WORD	$$$
                                     0328       30407$:
                                 06' 0328       30408$:	.BYTE	30411$-30408$
                                 00' 0329       	.BYTE	CLI$K_STRM_RELA
                                 00' 032A       	.BYTE	QUA_K_RELA
                                 00  032B       	.IIF B <>,	.BYTE	0
                               0008  032C       	.WORD	$$$
                                     032E       30411$:
                                 06' 032E       30412$:	.BYTE	30415$-30412$
                                 00' 032F       	.BYTE	CLI$K_STRM_SEQU
                                 00' 0330       	.BYTE	QUA_K_SEQU
                                 00  0331       	.IIF B <>,	.BYTE	0
                               0008  0332       	.WORD	$$$
                                     0334       30415$:
                                 06' 0334       30416$:	.BYTE	30419$-30416$
                                 00' 0335       	.BYTE	CLI$K_STRM_SYST
                                 00' 0336       	.BYTE	QUA_K_SYST
                                 00  0337       	.IIF B <>,	.BYTE	0
                               0008  0338       	.WORD	$$$
                                     033A       30419$:
                           00000334  033A       .=$QUALBLK$
                                 00  0334       	.BYTE	0
                                 00000005       	.RESTORE
                                     0005    55
                                     0005    56 	DEFCMD	SHOW,-			; DEFINE SHOW COMMAND
MCRDBAS3        - MCR COMMAND DATA BASE MODULE 3                 22-AUG-1978 01:33:00   VAX-11 MACRO X0.3-11               Page  17
01              DEFINE MCR COMMANDS                                                                                              (1)

                                     0005    57 		QUAL  =YES,-		; YES QUALIFIERS ALLOWED
                                     0005    58 		MINPRM=1,-		; MINIMUM NUMBER OF PARAMETERS
                                     0005    59 		MAXPRM=1,-		; MAXIMUM NUMBER OF PARAMETERS
                                     0005    60 		FLAGS =<OPTION,NOSTAT>,- ; THIS COMMAND TAKES AN OPTION
                                     0005    61 		DEFIMG=SHOWLOG		; DEFAULT IMAGE OR ROUTINE NAME
                                     0005       	.LIST
                                 00000004       	.PSECT	MCR$VERBTBL,BYTE,RD,NOWRT
                                 D3  0004       	.BYTE	^A/S/!$XX$
                                 48  0005       	.BYTE	^A/H/!$XX$
                                 4F  0006       	.BYTE	^A/O/!$XX$
                                 57  0007       	.BYTE	^A/W/!$XX$
                                     0008       	.LIST
                                 00000002       	.PSECT	MCR$COMDPTR,BYTE,RD,NOWRT
                               0336' 0002       	.WORD	VERB_G_SHOW-.-2
                                     0004       	.LIST
                                 0000033A       	.PSECT	MCR$CMDATA,BYTE,RD,NOWRT
                                     033A       VERB_G_SHOW:
                                 26  033A       	.BYTE	CLI$K_VERB_SHOW
                                 11  033B       	.BYTE	1*16!1
                                 00' 033C       	.BYTE	IMG_K_SHOWLOG
                                 01' 033D       	.BYTE	QUA_G_SHOW-.-1
                                 09  033E       	.BYTE	$$$
                                     033F       	.SAVE
                                 0000033F       	.PSECT	MCR$CMDATA,BYTE,RD,NOWRT
                                     033F       QUA_G_SHOW:
                                 0A' 033F       30421$:	.BYTE	30424$-30421$
                                 00' 0340       	.BYTE	CLI$K_SHOW_DAYT
                                 00' 0341       	.BYTE	QUA_K_DAYT
                                 00  0342       	.IIF B <>,	.BYTE	0
                               0411  0343       	.WORD	$$$
                                 00' 0345       	.BYTE	IMG_K_SHOWTIME
                               FFFF  0346       	.WORD	-1
                                 00  0348       	.BYTE	0*16+0
                                     0349       30424$:
                                 0A' 0349       30426$:	.BYTE	30429$-30426$
                                 00' 034A       	.BYTE	CLI$K_SHOW_TIME
                                 00' 034B       	.BYTE	QUA_K_TIME
                                 00  034C       	.IIF B <>,	.BYTE	0
                               0411  034D       	.WORD	$$$
                                 00' 034F       	.BYTE	IMG_K_SHOWTIME
                               FFFF  0350       	.WORD	-1
                                 00  0352       	.BYTE	0*16+0
                                     0353       30429$:
                                 0A' 0353       30431$:	.BYTE	30434$-30431$
                                 00' 0354       	.BYTE	CLI$K_SHOW_DEFA
                                 00' 0355       	.BYTE	QUA_K_DEFA
                                 00  0356       	.IIF B <>,	.BYTE	0
                               0411  0357       	.WORD	$$$
                                 00' 0359       	.BYTE	IMG_K_SHOWDEF
                               FFFF  035A       	.WORD	-1
                                 00  035C       	.BYTE	0*16+0
                                     035D       30434$:
                                 0A' 035D       30436$:	.BYTE	30439$-30436$
                                 00' 035E       	.BYTE	CLI$K_SHOW_LOGI
                                 00' 035F       	.BYTE	QUA_K_LOGI
                                 00  0360       	.IIF B <>,	.BYTE	0
                               0411  0361       	.WORD	$$$
MCRDBAS3        - MCR COMMAND DATA BASE MODULE 3                 22-AUG-1978 01:33:00   VAX-11 MACRO X0.3-11               Page  18
01              DEFINE MCR COMMANDS                                                                                              (1)

                                 00' 0363       	.BYTE	IMG_K_SHOW
                               0093' 0364       	.WORD	QUA_G_SHLG-.
                                 10  0366       	.BYTE	1*16+0
                                     0367       30439$:
                                 0A' 0367       30441$:	.BYTE	30444$-30441$
                                 00' 0368       	.BYTE	CLI$K_SHOW_PROT
                                 00' 0369       	.BYTE	QUA_K_PROT
                                 00  036A       	.IIF B <>,	.BYTE	0
                               0411  036B       	.WORD	$$$
                                 00' 036D       	.BYTE	IMG_K_SHOWPROT
                               FFFF  036E       	.WORD	-1
                                 00  0370       	.BYTE	0*16+0
                                     0371       30444$:
                                 0A' 0371       30446$:	.BYTE	30449$-30446$
                                 00' 0372       	.BYTE	CLI$K_SHOW_QUEU
                                 00' 0373       	.BYTE	QUA_K_QUEU
                                 00  0374       	.IIF B <>,	.BYTE	0
                               0411  0375       	.WORD	$$$
                                 00' 0377       	.BYTE	IMG_K_SHOW
                               009B' 0378       	.WORD	QUA_G_SHQU-.
                                 11  037A       	.BYTE	1*16+1
                                     037B       30449$:
                                 0A' 037B       30451$:	.BYTE	30454$-30451$
                                 00' 037C       	.BYTE	CLI$K_SHOW_SYMB
                                 00' 037D       	.BYTE	QUA_K_SYMB
                                 00  037E       	.IIF B <>,	.BYTE	0
                               0411  037F       	.WORD	$$$
                                 00' 0381       	.BYTE	IMG_K_SHOWSYMBL
                               00BD' 0382       	.WORD	QUA_G_SHSY-.
                                 11  0384       	.BYTE	1*16+1
                                     0385       30454$:
                                 0A' 0385       30456$:	.BYTE	30459$-30456$
                                 00' 0386       	.BYTE	CLI$K_SHOW_TRAN
                                 00' 0387       	.BYTE	QUA_K_TRAN
                                 00  0388       	.IIF B <>,	.BYTE	0
                               0411  0389       	.WORD	$$$
                                 00' 038B       	.BYTE	IMG_K_SHOWTRAN
                               FFFF  038C       	.WORD	-1
                                 11  038E       	.BYTE	1*16+1
                                     038F       30459$:
                                 0A' 038F       30461$:	.BYTE	30464$-30461$
                                 00' 0390       	.BYTE	CLI$K_SHOW_WORK
                                 00' 0391       	.BYTE	QUA_K_WORK
                                 00  0392       	.IIF B <>,	.BYTE	0
                               0411  0393       	.WORD	$$$
                                 00' 0395       	.BYTE	IMG_K_SHOW
                               FFFF  0396       	.WORD	-1
                                 00  0398       	.BYTE	0*16+0
                                     0399       30464$:
                                 0A' 0399       30466$:	.BYTE	30469$-30466$
                                 00' 039A       	.BYTE	CLI$K_SHOW_DEVI
                                 00' 039B       	.BYTE	QUA_K_DEVI
                                 00  039C       	.IIF B <>,	.BYTE	0
                               0411  039D       	.WORD	$$$
                                 00' 039F       	.BYTE	IMG_K_SHOW
                               00B5' 03A0       	.WORD	QUA_G_SHDV-.
                                 10  03A2       	.BYTE	1*16+0
MCRDBAS3        - MCR COMMAND DATA BASE MODULE 3                 22-AUG-1978 01:33:00   VAX-11 MACRO X0.3-11               Page  19
01              DEFINE MCR COMMANDS                                                                                              (1)

                                     03A3       30469$:
                                 0A' 03A3       30471$:	.BYTE	30474$-30471$
                                 00' 03A4       	.BYTE	CLI$K_SHOW_STAT
                                 00' 03A5       	.BYTE	QUA_K_STAT
                                 00  03A6       	.IIF B <>,	.BYTE	0
                               0411  03A7       	.WORD	$$$
                                 00' 03A9       	.BYTE	IMG_K_SHOWSTAT
                               FFFF  03AA       	.WORD	-1
                                 00  03AC       	.BYTE	0*16+0
                                     03AD       30474$:
                                 0A' 03AD       30476$:	.BYTE	30479$-30476$
                                 00' 03AE       	.BYTE	CLI$K_SHOW_PROC
                                 00' 03AF       	.BYTE	QUA_K_PROC
                                 00  03B0       	.IIF B <>,	.BYTE	0
                               0411  03B1       	.WORD	$$$
                                 00' 03B3       	.BYTE	IMG_K_SHOW
                               00B9' 03B4       	.WORD	QUA_G_SHPR-.
                                 00  03B6       	.BYTE	0*16+0
                                     03B7       30479$:
                                 0A' 03B7       30481$:	.BYTE	30484$-30481$
                                 00' 03B8       	.BYTE	CLI$K_SHOW_SYST
                                 00' 03B9       	.BYTE	QUA_K_SYST
                                 00  03BA       	.IIF B <>,	.BYTE	0
                               0411  03BB       	.WORD	$$$
                                 00' 03BD       	.BYTE	IMG_K_SHOW
                               00CD' 03BE       	.WORD	QUA_G_SHSS-.
                                 00  03C0       	.BYTE	0*16+0
                                     03C1       30484$:
                                 0A' 03C1       30486$:	.BYTE	30489$-30486$
                                 00' 03C2       	.BYTE	CLI$K_SHOW_TERM
                                 00' 03C3       	.BYTE	QUA_K_TERM
                                 00  03C4       	.IIF B <>,	.BYTE	0
                               0411  03C5       	.WORD	$$$
                                 00' 03C7       	.BYTE	IMG_K_SHOW
                               00C9' 03C8       	.WORD	QUA_G_SHTE-.
                                 10  03CA       	.BYTE	1*16+0
                                     03CB       30489$:
                                 0A' 03CB       30491$:	.BYTE	30494$-30491$
                                 00' 03CC       	.BYTE	CLI$K_SHOW_PRIN
                                 00' 03CD       	.BYTE	QUA_K_PRIN
                                 00  03CE       	.IIF B <>,	.BYTE	0
                               0411  03CF       	.WORD	$$$
                                 00' 03D1       	.BYTE	IMG_K_SHOW
                               FFFF  03D2       	.WORD	-1
                                 11  03D4       	.BYTE	1*16+1
                                     03D5       30494$:
                                 0E' 03D5       30496$:	.BYTE	30499$-30496$
                                 00' 03D6       	.BYTE	CLI$K_SHOW_NETW
                                 0A' 03D7       	.BYTE	<30498$-30496$>
                                 00  03D8       	.IIF B <>,	.BYTE	0
                               0413  03D9       	.WORD	$$$
                                 00' 03DB       	.BYTE	IMG_K_SHOW
                               FFFF  03DC       	.WORD	-1
                                 00  03DE       	.BYTE	0*16+0
                        57 54 45 4E  03DF       30498$:	.ASCII	\NETW\
                                     03E3       30499$:
                                 0A' 03E3       30501$:	.BYTE	30504$-30501$
MCRDBAS3        - MCR COMMAND DATA BASE MODULE 3                 22-AUG-1978 01:33:00   VAX-11 MACRO X0.3-11               Page  20
01              DEFINE MCR COMMANDS                                                                                              (1)

                                 00' 03E4       	.BYTE	CLI$K_SHOW_RMS_
                                 00' 03E5       	.BYTE	QUA_K_RMS_
                                 00  03E6       	.IIF B <>,	.BYTE	0
                               0411  03E7       	.WORD	$$$
                                 00' 03E9       	.BYTE	IMG_K_SHOW
                               FFFF  03EA       	.WORD	-1
                                 00  03EC       	.BYTE	0*16+0
                                     03ED       30504$:
                                 0A' 03ED       30506$:	.BYTE	30509$-30506$
                                 00' 03EE       	.BYTE	CLI$K_SHOW_MAGT
                                 00' 03EF       	.BYTE	QUA_K_MAGT
                                 00  03F0       	.IIF B <>,	.BYTE	0
                               0411  03F1       	.WORD	$$$
                                 00' 03F3       	.BYTE	IMG_K_SHOW
                               FFFF  03F4       	.WORD	-1
                                 11  03F6       	.BYTE	1*16+1
                                     03F7       30509$:
                           000003ED  03F7       .=$QUALBLK$
                                 00  03ED       	.BYTE	0
                                 0000033F       	.RESTORE
                                     033F       	.SAVE
                                 000003F7       	.PSECT	MCR$CMDATA,BYTE,RD,NOWRT
                                     03F7       QUA_G_SHLG:
                                 07' 03F7       30511$:	.BYTE	30514$-30511$
                                 00' 03F8       	.BYTE	CLI$K_SHLG_SYST
                                 00' 03F9       	.BYTE	QUA_K_SYST
                                 00  03FA       	.IIF B <>,	.BYTE	0
                               0408  03FB       	.WORD	$$$
                                 00' 03FD       	.BYTE	IMG_K_SHOW
                                     03FE       30514$:
                                 07' 03FE       30515$:	.BYTE	30518$-30515$
                                 00' 03FF       	.BYTE	CLI$K_SHLG_GROU
                                 00' 0400       	.BYTE	QUA_K_GROU
                                 00  0401       	.IIF B <>,	.BYTE	0
                               0408  0402       	.WORD	$$$
                                 00' 0404       	.BYTE	IMG_K_SHOW
                                     0405       30518$:
                                 07' 0405       30519$:	.BYTE	30522$-30519$
                                 00' 0406       	.BYTE	CLI$K_SHLG_PROC
                                 00' 0407       	.BYTE	QUA_K_PROC
                                 00  0408       	.IIF B <>,	.BYTE	0
                               0408  0409       	.WORD	$$$
                                 00' 040B       	.BYTE	IMG_K_SHOW
                                     040C       30522$:
                                 07' 040C       30523$:	.BYTE	30526$-30523$
                                 00' 040D       	.BYTE	CLI$K_SHLG_ALL
                                 00' 040E       	.BYTE	QUA_K_ALL
                                 00  040F       	.IIF B <>,	.BYTE	0
                               0408  0410       	.WORD	$$$
                                 00' 0412       	.BYTE	IMG_K_SHOW
                                     0413       30526$:
                           0000040C  0413       .=$QUALBLK$
                                 00  040C       	.BYTE	0
                                 0000033F       	.RESTORE
                                     033F       	.SAVE
                                 00000413       	.PSECT	MCR$CMDATA,BYTE,RD,NOWRT
                                     0413       QUA_G_SHQU:
MCRDBAS3        - MCR COMMAND DATA BASE MODULE 3                 22-AUG-1978 01:33:00   VAX-11 MACRO X0.3-11               Page  21
01              DEFINE MCR COMMANDS                                                                                              (1)

                                 06' 0413       30527$:	.BYTE	30530$-30527$
                                 00' 0414       	.BYTE	CLI$K_SHQU_ALL
                                 00' 0415       	.BYTE	QUA_K_ALL
                                 00  0416       	.IIF B <>,	.BYTE	0
                               0008  0417       	.WORD	$$$
                                     0419       30530$:
                                 0A' 0419       30531$:	.BYTE	30534$-30531$
                                 00' 041A       	.BYTE	CLI$K_SHQU_BATC
                                 00' 041B       	.BYTE	QUA_K_BATC
                                 00  041C       	.IIF B <>,	.BYTE	0
                               0409  041D       	.WORD	$$$
                                 00  041F       	.BYTE	0
                               0000  0420       	.WORD	0
                                 00  0422       	.BYTE	0*16+0
                                     0423       30534$:
                                 06' 0423       30536$:	.BYTE	30539$-30536$
                                 00' 0424       	.BYTE	CLI$K_SHQU_BRIE
                                 00' 0425       	.BYTE	QUA_K_BRIE
                                 00  0426       	.IIF B <>,	.BYTE	0
                               0008  0427       	.WORD	$$$
                                     0429       30539$:
                                 0A' 0429       30540$:	.BYTE	30543$-30540$
                                 00' 042A       	.BYTE	CLI$K_SHQU_DEVI
                                 00' 042B       	.BYTE	QUA_K_DEVI
                                 00  042C       	.IIF B <>,	.BYTE	0
                               0409  042D       	.WORD	$$$
                                 00  042F       	.BYTE	0
                               0000  0430       	.WORD	0
                                 00  0432       	.BYTE	0*16+0
                                     0433       30543$:
                                 06' 0433       30545$:	.BYTE	30548$-30545$
                                 00' 0434       	.BYTE	CLI$K_SHQU_ENTR
                                 00' 0435       	.BYTE	QUA_K_ENTR
                                 00  0436       	.IIF B <>,	.BYTE	0
                               3028  0437       	.WORD	$$$
                                     0439       30548$:
                                 06' 0439       30549$:	.BYTE	30552$-30549$
                                 00' 043A       	.BYTE	CLI$K_SHQU_FULL
                                 00' 043B       	.BYTE	QUA_K_FULL
                                 00  043C       	.IIF B <>,	.BYTE	0
                               0008  043D       	.WORD	$$$
                                     043F       30552$:
                           00000439  043F       .=$QUALBLK$
                                 00  0439       	.BYTE	0
                                 0000033F       	.RESTORE
                                     033F       	.SAVE
                                 0000043F       	.PSECT	MCR$CMDATA,BYTE,RD,NOWRT
                                     043F       QUA_G_SHSY:
                                 06' 043F       30553$:	.BYTE	30556$-30553$
                                 00' 0440       	.BYTE	CLI$K_SHSY_GLOB
                                 00' 0441       	.BYTE	QUA_K_GLOB
                                 00  0442       	.IIF B <>,	.BYTE	0
                               0010  0443       	.WORD	$$$
                                     0445       30556$:
                                 06' 0445       30557$:	.BYTE	30560$-30557$
                                 00' 0446       	.BYTE	CLI$K_SHSY_LOCA
                                 00' 0447       	.BYTE	QUA_K_LOCA
MCRDBAS3        - MCR COMMAND DATA BASE MODULE 3                 22-AUG-1978 01:33:00   VAX-11 MACRO X0.3-11               Page  22
01              DEFINE MCR COMMANDS                                                                                              (1)

                                 00  0448       	.IIF B <>,	.BYTE	0
                               0010  0449       	.WORD	$$$
                                     044B       30560$:
                                 0A' 044B       30561$:	.BYTE	30564$-30561$
                                 00' 044C       	.BYTE	CLI$K_SHSY_ALL
                                 00' 044D       	.BYTE	QUA_K_ALL
                                 00  044E       	.IIF B <>,	.BYTE	0
                               0411  044F       	.WORD	$$$
                                 00  0451       	.BYTE	0
                               0000  0452       	.WORD	0
                                 00  0454       	.BYTE	0*16+0
                                     0455       30564$:
                           0000044B  0455       .=$QUALBLK$
                                 00  044B       	.BYTE	0
                                 0000033F       	.RESTORE
                                     033F       	.SAVE
                                 00000455       	.PSECT	MCR$CMDATA,BYTE,RD,NOWRT
                                     0455       QUA_G_SHDV:
                                 06' 0455       30566$:	.BYTE	30569$-30566$
                                 00' 0456       	.BYTE	CLI$K_SHDV_ALLO
                                 00' 0457       	.BYTE	QUA_K_ALLO
                                 00  0458       	.IIF B <>,	.BYTE	0
                               0008  0459       	.WORD	$$$
                                     045B       30569$:
                                 06' 045B       30570$:	.BYTE	30573$-30570$
                                 00' 045C       	.BYTE	CLI$K_SHDV_BRIE
                                 00' 045D       	.BYTE	QUA_K_BRIE
                                 00  045E       	.IIF B <>,	.BYTE	0
                               0008  045F       	.WORD	$$$
                                     0461       30573$:
                                 06' 0461       30574$:	.BYTE	30577$-30574$
                                 00' 0462       	.BYTE	CLI$K_SHDV_FULL
                                 00' 0463       	.BYTE	QUA_K_FULL
                                 00  0464       	.IIF B <>,	.BYTE	0
                               0008  0465       	.WORD	$$$
                                     0467       30577$:
                                 06' 0467       30578$:	.BYTE	30581$-30578$
                                 00' 0468       	.BYTE	CLI$K_SHDV_MOUN
                                 00' 0469       	.BYTE	QUA_K_MOUN
                                 00  046A       	.IIF B <>,	.BYTE	0
                               0008  046B       	.WORD	$$$
                                     046D       30581$:
                           00000467  046D       .=$QUALBLK$
                                 00  0467       	.BYTE	0
                                 0000033F       	.RESTORE
                                     033F       	.SAVE
                                 0000046D       	.PSECT	MCR$CMDATA,BYTE,RD,NOWRT
                                     046D       QUA_G_SHPR:
                                 06' 046D       30582$:	.BYTE	30585$-30582$
                                 00' 046E       	.BYTE	CLI$K_SHPR_QUOT
                                 00' 046F       	.BYTE	QUA_K_QUOT
                                 00  0470       	.IIF B <>,	.BYTE	0
                               0008  0471       	.WORD	$$$
                                     0473       30585$:
                                 06' 0473       30586$:	.BYTE	30589$-30586$
                                 00' 0474       	.BYTE	CLI$K_SHPR_ACCO
                                 00' 0475       	.BYTE	QUA_K_ACCO
MCRDBAS3        - MCR COMMAND DATA BASE MODULE 3                 22-AUG-1978 01:33:00   VAX-11 MACRO X0.3-11               Page  23
01              DEFINE MCR COMMANDS                                                                                              (1)

                                 00  0476       	.IIF B <>,	.BYTE	0
                               0008  0477       	.WORD	$$$
                                     0479       30589$:
                                 06' 0479       30590$:	.BYTE	30593$-30590$
                                 00' 047A       	.BYTE	CLI$K_SHPR_PRIV
                                 00' 047B       	.BYTE	QUA_K_PRIV
                                 00  047C       	.IIF B <>,	.BYTE	0
                               0008  047D       	.WORD	$$$
                                     047F       30593$:
                                 06' 047F       30594$:	.BYTE	30597$-30594$
                                 00' 0480       	.BYTE	CLI$K_SHPR_SUBP
                                 00' 0481       	.BYTE	QUA_K_SUBP
                                 00  0482       	.IIF B <>,	.BYTE	0
                               0008  0483       	.WORD	$$$
                                     0485       30597$:
                                 06' 0485       30598$:	.BYTE	30601$-30598$
                                 00' 0486       	.BYTE	CLI$K_SHPR_ALL
                                 00' 0487       	.BYTE	QUA_K_ALL
                                 00  0488       	.IIF B <>,	.BYTE	0
                               0008  0489       	.WORD	$$$
                                     048B       30601$:
                           00000485  048B       .=$QUALBLK$
                                 00  0485       	.BYTE	0
                                 0000033F       	.RESTORE
                                     033F       	.SAVE
                                 0000048B       	.PSECT	MCR$CMDATA,BYTE,RD,NOWRT
                                     048B       QUA_G_SHSS:
                                 06' 048B       30602$:	.BYTE	30605$-30602$
                                 00' 048C       	.BYTE	CLI$K_SHSS_PROC
                                 00' 048D       	.BYTE	QUA_K_PROC
                                 00  048E       	.IIF B <>,	.BYTE	0
                               0088  048F       	.WORD	$$$
                                     0491       30605$:
                           0000048B  0491       .=$QUALBLK$
                                 00  048B       	.BYTE	0
                                 0000033F       	.RESTORE
                                     033F       	.SAVE
                                 00000491       	.PSECT	MCR$CMDATA,BYTE,RD,NOWRT
                                     0491       QUA_G_SHTE:
                                 0A' 0491       30606$:	.BYTE	30609$-30606$
                                 00' 0492       	.BYTE	CLI$K_SHTE_PERM
                                 06' 0493       	.BYTE	<30608$-30606$>
                                 00  0494       	.IIF B <>,	.BYTE	0
                               000A  0495       	.WORD	$$$
                        4D 52 45 50  0497       30608$:	.ASCII	\PERM\
                                     049B       30609$:
                           00000491  049B       .=$QUALBLK$
                                 00  0491       	.BYTE	0
                                 0000033F       	.RESTORE
                                     033F    62
                                     033F    63 	.END
MCRDBAS3        - MCR COMMAND DATA BASE MODULE 3                 22-AUG-1978 01:33:00   VAX-11 MACRO X0.3-11               Page  24
SYMBOL TABLE                                                                                                                     (1)

$$$            = 00000004            CLI$K_SHQU_ENTR  ********   X   05   CLI$K_STTT_ECHO  ********   X   05
$QUALBLK$      = 00000491 R     05   CLI$K_SHQU_FULL  ********   X   05   CLI$K_STTT_EIGH  ********   X   05
$XX$           = 00000000            CLI$K_SHSS_PROC  ********   X   05   CLI$K_STTT_ESCA  ********   X   05
BIT...         = 00000008            CLI$K_SHSY_ALL   ********   X   05   CLI$K_STTT_HARD  ********   X   05
CLI$K_SET_ACCO   ********   X   05   CLI$K_SHSY_GLOB  ********   X   05   CLI$K_STTT_HOLD  ********   X   05
CLI$K_SET_CARD   ********   X   05   CLI$K_SHSY_LOCA  ********   X   05   CLI$K_STTT_HOST  ********   X   05
CLI$K_SET_CONT   ********   X   05   CLI$K_SHTE_PERM  ********   X   05   CLI$K_STTT_INTE  ********   X   05
CLI$K_SET_DEFA   ********   X   05   CLI$K_STAC_DISA  ********   X   05   CLI$K_STTT_LA36  ********   X   05
CLI$K_SET_DEVI   ********   X   05   CLI$K_STAC_ENAB  ********   X   05   CLI$K_STTT_LFFI  ********   X   05
CLI$K_SET_LOGI   ********   X   05   CLI$K_STAC_NEW_  ********   X   05   CLI$K_STTT_LOCA  ********   X   05
CLI$K_SET_MAGT   ********   X   05   CLI$K_STCR_026   ********   X   05   CLI$K_STTT_LOWE  ********   X   05
CLI$K_SET_ON     ********   X   05   CLI$K_STCR_029   ********   X   05   CLI$K_STTT_PAGE  ********   X   05
CLI$K_SET_PASS   ********   X   05   CLI$K_STDV_ERRO  ********   X   05   CLI$K_STTT_PARI  ********   X   05
CLI$K_SET_PRIN   ********   X   05   CLI$K_STDV_SPOO  ********   X   05   CLI$K_STTT_PASS  ********   X   05
CLI$K_SET_PROC   ********   X   05   CLI$K_STLG_INTE  ********   X   05   CLI$K_STTT_PERM  ********   X   05
CLI$K_SET_PROT   ********   X   05   CLI$K_STLP_CR    ********   X   05   CLI$K_STTT_READ  ********   X   05
CLI$K_SET_QUEU   ********   X   05   CLI$K_STLP_FF    ********   X   05   CLI$K_STTT_REMO  ********   X   05
CLI$K_SET_RMS_   ********   X   05   CLI$K_STLP_LA11  ********   X   05   CLI$K_STTT_SCOP  ********   X   05
CLI$K_SET_TERM   ********   X   05   CLI$K_STLP_LA18  ********   X   05   CLI$K_STTT_SCRI  ********   X   05
CLI$K_SET_UIC    ********   X   05   CLI$K_STLP_LOWE  ********   X   05   CLI$K_STTT_SPEE  ********   X   05
CLI$K_SET_VERI   ********   X   05   CLI$K_STLP_LP11  ********   X   05   CLI$K_STTT_TAB   ********   X   05
CLI$K_SET_WORK   ********   X   05   CLI$K_STLP_PAGE  ********   X   05   CLI$K_STTT_TTSY  ********   X   05
CLI$K_SHDV_ALLO  ********   X   05   CLI$K_STLP_UNKN  ********   X   05   CLI$K_STTT_TYPE  ********   X   05
CLI$K_SHDV_BRIE  ********   X   05   CLI$K_STLP_UPPE  ********   X   05   CLI$K_STTT_UNKN  ********   X   05
CLI$K_SHDV_FULL  ********   X   05   CLI$K_STLP_WIDT  ********   X   05   CLI$K_STTT_UPPE  ********   X   05
CLI$K_SHDV_MOUN  ********   X   05   CLI$K_STMT_DENS  ********   X   05   CLI$K_STTT_VT05  ********   X   05
CLI$K_SHLG_ALL   ********   X   05   CLI$K_STMT_REWI  ********   X   05   CLI$K_STTT_VT52  ********   X   05
CLI$K_SHLG_GROU  ********   X   05   CLI$K_STMT_UNLO  ********   X   05   CLI$K_STTT_VT55  ********   X   05
CLI$K_SHLG_PROC  ********   X   05   CLI$K_STPC_IDEN  ********   X   05   CLI$K_STTT_WIDT  ********   X   05
CLI$K_SHLG_SYST  ********   X   05   CLI$K_STPC_PRIO  ********   X   05   CLI$K_STTT_WRAP  ********   X   05
CLI$K_SHOW_DAYT  ********   X   05   CLI$K_STPC_RESO  ********   X   05   CLI$K_STWR_LIMI  ********   X   05
CLI$K_SHOW_DEFA  ********   X   05   CLI$K_STPC_SWAP  ********   X   05   CLI$K_STWR_QUOT  ********   X   05
CLI$K_SHOW_DEVI  ********   X   05   CLI$K_STPR_DEFA  ********   X   05   CLI$K_VERB_ALLO= 00000001
CLI$K_SHOW_LOGI  ********   X   05   CLI$K_STPR_DEVI  ********   X   05   CLI$K_VERB_ANAL= 00000002
CLI$K_SHOW_MAGT  ********   X   05   CLI$K_STPR_OWNE  ********   X   05   CLI$K_VERB_APPE= 0000002F
CLI$K_SHOW_NETW  ********   X   05   CLI$K_STPR_PROT  ********   X   05   CLI$K_VERB_ASSI= 00000003
CLI$K_SHOW_PRIN  ********   X   05   CLI$K_STQE_AFTE  ********   X   05   CLI$K_VERB_BASI= 00000004
CLI$K_SHOW_PROC  ********   X   05   CLI$K_STQE_ENTR  ********   X   05   CLI$K_VERB_BLIS= 00000005
CLI$K_SHOW_PROT  ********   X   05   CLI$K_STQE_FORM  ********   X   05   CLI$K_VERB_CANC= 00000033
CLI$K_SHOW_QUEU  ********   X   05   CLI$K_STQE_HOLD  ********   X   05   CLI$K_VERB_COBO= 00000006
CLI$K_SHOW_RMS_  ********   X   05   CLI$K_STQE_JOB_  ********   X   05   CLI$K_VERB_CONT= 00000007
CLI$K_SHOW_STAT  ********   X   05   CLI$K_STQE_LOWE  ********   X   05   CLI$K_VERB_COPY= 00000008
CLI$K_SHOW_SYMB  ********   X   05   CLI$K_STQE_NAME  ********   X   05   CLI$K_VERB_CREA= 00000009
CLI$K_SHOW_SYST  ********   X   05   CLI$K_STQE_PRIO  ********   X   05   CLI$K_VERB_DATA= 0000000A
CLI$K_SHOW_TERM  ********   X   05   CLI$K_STQE_RELE  ********   X   05   CLI$K_VERB_DEAL= 0000000B
CLI$K_SHOW_TIME  ********   X   05   CLI$K_STRM_BLOC  ********   X   05   CLI$K_VERB_DEAS= 0000000C
CLI$K_SHOW_TRAN  ********   X   05   CLI$K_STRM_BUFF  ********   X   05   CLI$K_VERB_DEBU= 0000000D
CLI$K_SHOW_WORK  ********   X   05   CLI$K_STRM_DISK  ********   X   05   CLI$K_VERB_DEFI= 0000000E
CLI$K_SHPR_ACCO  ********   X   05   CLI$K_STRM_HASH  ********   X   05   CLI$K_VERB_DELE= 0000000F
CLI$K_SHPR_ALL   ********   X   05   CLI$K_STRM_INDE  ********   X   05   CLI$K_VERB_DEPO= 00000010
CLI$K_SHPR_PRIV  ********   X   05   CLI$K_STRM_MAGT  ********   X   05   CLI$K_VERB_DIFF= 00000011
CLI$K_SHPR_QUOT  ********   X   05   CLI$K_STRM_RELA  ********   X   05   CLI$K_VERB_DIRE= 00000012
CLI$K_SHPR_SUBP  ********   X   05   CLI$K_STRM_SEQU  ********   X   05   CLI$K_VERB_DISM= 00000013
CLI$K_SHQU_ALL   ********   X   05   CLI$K_STRM_SYST  ********   X   05   CLI$K_VERB_DUMP= 00000030
CLI$K_SHQU_BATC  ********   X   05   CLI$K_STRM_UNIT  ********   X   05   CLI$K_VERB_EDIT= 00000014
CLI$K_SHQU_BRIE  ********   X   05   CLI$K_STTT_BROA  ********   X   05   CLI$K_VERB_EOD = 00000015
CLI$K_SHQU_DEVI  ********   X   05   CLI$K_STTT_CRFI  ********   X   05   CLI$K_VERB_EXAM= 00000016
MCRDBAS3        - MCR COMMAND DATA BASE MODULE 3                 22-AUG-1978 01:33:00   VAX-11 MACRO X0.3-11               Page  25
SYMBOL TABLE                                                                                                                     (1)

CLI$K_VERB_EXIT= 00000017            CLI$_IVCHAR    = 00038050            CMD_M_DEFQUAL  = 00000010
CLI$K_VERB_FORE= 000000FF            CLI$_IVDEVTYPE = 0003886A            CMD_M_DEVNAM   = 00000080
CLI$K_VERB_FORT= 00000018            CLI$_IVFNAM    = 000381C0            CMD_M_IMMED    = 00000002
CLI$K_VERB_GOTO= 00000019            CLI$_IVKEYW    = 00038060            CMD_M_NOEQL    = 00000040
CLI$K_VERB_HELP= 0000001A            CLI$_IVOPER    = 00038068            CMD_M_NOSTAT   = 00000008
CLI$K_VERB_IF  = 0000001B            CLI$_IVPROT    = 00038070            CMD_M_OPTION   = 00000001
CLI$K_VERB_INIT= 0000001C            CLI$_IVQLOC    = 00038078            CMD_M_PAROUT   = 00000004
CLI$K_VERB_INQU= 0000001D            CLI$_IVSYMB    = 00038080            CMD_S_MAXPARM  = 00000004
CLI$K_VERB_LIBR= 00000034            CLI$_IVVALU    = 00038088            CMD_S_MINPARM  = 00000004
CLI$K_VERB_LINK= 0000001E            CLI$_IVVERB    = 00038090            CMD_V_ABREV    = 00000005
CLI$K_VERB_LOGO= 0000001F            CLI$_MAXPARM   = 00038098            CMD_V_DEFQUAL  = 00000004
CLI$K_VERB_MACR= 00000020            CLI$_MULKEY    = 000381A0            CMD_V_DEVNAM   = 00000007
CLI$K_VERB_MCR = 00000021            CLI$_NOATFIL   = 000380A0            CMD_V_IMMED    = 00000001
CLI$K_VERB_MOUN= 0000002B            CLI$_NOCCAT    = 000380A8            CMD_V_MAXPARM  = 00000004
CLI$K_VERB_ON  = 00000022            CLI$_NOCOMD    = 000380B0            CMD_V_MINPARM  = 00000000
CLI$K_VERB_PATC= 0000002C            CLI$_NOKEYW    = 000380B8            CMD_V_NOEQL    = 00000006
CLI$K_VERB_PRIN= 00000023            CLI$_NOLIST    = 000380C0            CMD_V_NOSTAT   = 00000003
CLI$K_VERB_PURG= 00000031            CLI$_NOOPTPRS  = 00038842            CMD_V_OPTION   = 00000000
CLI$K_VERB_RENA= 00000032            CLI$_NOQUAL    = 000380C8            CMD_V_PAROUT   = 00000002
CLI$K_VERB_REPL= 0000002D            CLI$_NORMAL    = 00030001            GBL...         = 00000000
CLI$K_VERB_REQU= 00000036            CLI$_NOTNEG    = 000380D8            IMG_K_BACKTRANS  ********   X   05
CLI$K_VERB_RUN = 00000024            CLI$_NOVALU    = 000380D0            IMG_K_SET        ********   X   05
CLI$K_VERB_SET = 00000025            CLI$_NOVALUE   = 0003882A            IMG_K_SETCTLY    ********   X   05
CLI$K_VERB_SHOW= 00000026            CLI$_NULFIL    = 000380E0            IMG_K_SETDEFALT  ********   X   05
CLI$K_VERB_SORT= 00000035            CLI$_NUMBER    = 000380E8            IMG_K_SETON      ********   X   05
CLI$K_VERB_STAR= 00000027            CLI$_ONCOMD    = 000380F0            IMG_K_SETPROT    ********   X   05
CLI$K_VERB_STOP= 00000028            CLI$_ONERR     = 000380F8            IMG_K_SETUIC     ********   X   05
CLI$K_VERB_SUBM= 00000029            CLI$_ONEVAL    = 00038158            IMG_K_SETVERIFY  ********   X   05
CLI$K_VERB_SYNC= 00000037            CLI$_ONLEVL    = 00038100            IMG_K_SHOW       ********   X   05
CLI$K_VERB_TYPE= 0000002A            CLI$_ONOVF     = 00038108            IMG_K_SHOWDEF    ********   X   05
CLI$K_VERB_UNLO= 0000002E            CLI$_OVRFLW    = 00038160            IMG_K_SHOWLOG    ********   X   05
CLI$_ABFNAM    = 000381B8            CLI$_PARMDEL   = 00038110            IMG_K_SHOWPROT   ********   X   05
CLI$_ABKEYW    = 00038000            CLI$_PROC_ID   = 0003FFF1            IMG_K_SHOWSTAT   ********   X   05
CLI$_ABVERB    = 00038008            CLI$_QUEJOBCRE = 0003FFF9            IMG_K_SHOWSYMBL  ********   X   05
CLI$_BADRET    = 00038198            CLI$_REQPRMABS = 00038812            IMG_K_SHOWTIME   ********   X   05
CLI$_BADTEXT   = 000381B0            CLI$_RSLOVF    = 00038118            IMG_K_SHOWTRAN   ********   X   05
CLI$_BUFOVF    = 00038018            CLI$_SKPDAT    = 00038120            OPI_K_MCRUTLIST= FFFFFFFF
CLI$_COMPLX    = 00038020            CLI$_SPARE0    = 00038010            PRO_B_FLAGS      00000001
CLI$_CONFQUAL  = 00038802            CLI$_SPARE1    = 00038058            PRO_B_PROMPT     00000000
CLI$_CREQUEJOB = 0003884A            CLI$_STKOVF    = 00038128            PRO_K_LENGTH     00000002
CLI$_DEFOVF    = 00038028            CLI$_SUBMITERR = 00038852            PRO_M_CONCAT   = 00000001
CLI$_DEVALSPL  = 0003885A            CLI$_SYMDEL    = 00038130            PRO_M_IMPCAT   = 00000002
CLI$_DEVNOTFOR = 0003887A            CLI$_SYMOVF    = 00038138            PRO_M_LIST     = 00000004
CLI$_DEVNOTSPL = 00038862            CLI$_UNDFIL    = 00038188            PRO_M_OPTION   = 00000008
CLI$_DIRECT    = 00038030            CLI$_UNDSYM    = 00038140            PRO_M_REQ      = 00000010
CLI$_EXPSYN    = 00038038            CLI$_UNPROPARM = 00038170            PRO_M_STRING   = 00000020
CLI$_FILOPN    = 00038190            CLI$_UNPROQUAL = 00038168            PRO_V_CONCAT   = 00000000
CLI$_ILLVAL    = 0003883A            CLI$_USGOTO    = 00038148            PRO_V_IMPCAT   = 00000001
CLI$_IMCHNG    = 00038040            CLI$_VALCNVERR = 00038832            PRO_V_LIST     = 00000002
CLI$_IMGFNF    = 00038872            CLI$_VALREQ    = 00038150            PRO_V_OPTION   = 00000003
CLI$_INSFPRM   = 00038048            CMD_AB_PAROUT    00000005            PRO_V_REQ      = 00000004
CLI$_INVKEY    = 00038178            CMD_B_DEFIMG     00000002            PRO_V_STRING   = 00000005
CLI$_INVQUAL   = 0003880A            CMD_B_FLAGS      00000004            QUA_B_CODE       00000001
CLI$_INVQUALNUM= 0003881A            CMD_B_PARMCNT    00000001            QUA_B_DEFVAL     00000003
CLI$_INVREQTYP = 00038822            CMD_B_QUABLK     00000003            QUA_B_IMAGE      00000006
CLI$_INVRSP    = 00038180            CMD_B_VERBTYP    00000000            QUA_B_INDEX      00000002
CLI$_INVUIC    = 000381A8            CMD_M_ABREV    = 00000020            QUA_B_OFFSET     00000000
MCRDBAS3        - MCR COMMAND DATA BASE MODULE 3                 22-AUG-1978 01:33:00   VAX-11 MACRO X0.3-11               Page  26
SYMBOL TABLE                                                                                                                     (1)

QUA_B_PARMCNT    00000009            QUA_K_MOUN       ********   X   05   QUA_V_INTDEF   = 00000009
QUA_G_CHNGLST    00000007            QUA_K_NAME       ********   X   05   QUA_V_KEYVAL   = 0000000E
QUA_G_SET        00000005 R     05   QUA_K_NEW_       ********   X   05   QUA_V_LOCALKEY = 00000001
QUA_G_SHDV       00000455 R     05   QUA_K_ON         ********   X   05   QUA_V_MAXPARM  = 00000004
QUA_G_SHLG       000003F7 R     05   QUA_K_OWNE       ********   X   05   QUA_V_MINPARM  = 00000000
QUA_G_SHOW       0000033F R     05   QUA_K_PAGE       ********   X   05   QUA_V_NEG      = 00000006
QUA_G_SHPR       0000046D R     05   QUA_K_PASS       ********   X   05   QUA_V_ONEVAL   = 0000000D
QUA_G_SHQU       00000413 R     05   QUA_K_PRIN       ********   X   05   QUA_V_OUTPUT   = 0000000B
QUA_G_SHSS       0000048B R     05   QUA_K_PRIO       ********   X   05   QUA_V_PARM     = 00000004
QUA_G_SHSY       0000043F R     05   QUA_K_PRIV       ********   X   05   QUA_V_VAL      = 00000005
QUA_G_SHTE       00000491 R     05   QUA_K_PROC       ********   X   05   QUA_V_VALREQ   = 0000000C
QUA_G_STAC       000002E8 R     05   QUA_K_PROT       ********   X   05   QUA_V_VERB     = 00000003
QUA_G_STCR       00000292 R     05   QUA_K_QUEU       ********   X   05   QUA_W_FLAGS      00000004
QUA_G_STDV       000000B9 R     05   QUA_K_QUOT       ********   X   05   QUA_W_QUALIST    00000007
QUA_G_STLG       000000C9 R     05   QUA_K_RELA       ********   X   05   VERB_G_SET       00000000 R     05
QUA_G_STLP       0000023E R     05   QUA_K_RELE       ********   X   05   VERB_G_SHOW      0000033A R     05
QUA_G_STMT       000000D3 R     05   QUA_K_REMO       ********   X   05
QUA_G_STPC       000000ED R     05   QUA_K_RESO       ********   X   05
QUA_G_STPR       00000105 R     05   QUA_K_RMS_       ********   X   05
QUA_G_STQE       000002B2 R     05   QUA_K_SEQU       ********   X   05
QUA_G_STRM       000002FA R     05   QUA_K_STAT       ********   X   05
QUA_G_STTT       00000122 R     05   QUA_K_SUBP       ********   X   05
QUA_G_STWR       000002A6 R     05   QUA_K_SWAP       ********   X   05
QUA_K_ACCO       ********   X   05   QUA_K_SYMB       ********   X   05
QUA_K_AFTE       ********   X   05   QUA_K_SYST       ********   X   05
QUA_K_ALL        ********   X   05   QUA_K_TERM       ********   X   05
QUA_K_ALLO       ********   X   05   QUA_K_TIME       ********   X   05
QUA_K_BATC       ********   X   05   QUA_K_TRAN       ********   X   05
QUA_K_BLOC       ********   X   05   QUA_K_TYPE       ********   X   05
QUA_K_BRIE       ********   X   05   QUA_K_UIC        ********   X   05
QUA_K_BROA       ********   X   05   QUA_K_UNIT       ********   X   05
QUA_K_BUFF       ********   X   05   QUA_K_UPPE       ********   X   05
QUA_K_CARD       ********   X   05   QUA_K_VERI       ********   X   05
QUA_K_CONT       ********   X   05   QUA_K_WIDT       ********   X   05
QUA_K_DAYT       ********   X   05   QUA_K_WORK       ********   X   05
QUA_K_DEFA       ********   X   05   QUA_M_BATDEF   = 00000100
QUA_K_DENS       ********   X   05   QUA_M_CHNGLIST = 00000001
QUA_K_DEVI       ********   X   05   QUA_M_DEFTRUE  = 00000080
QUA_K_DISA       ********   X   05   QUA_M_FILE     = 00000004
QUA_K_DISK       ********   X   05   QUA_M_IMAGE    = 00000400
QUA_K_ENAB       ********   X   05   QUA_M_INTDEF   = 00000200
QUA_K_ENTR       ********   X   05   QUA_M_KEYVAL   = 00004000
QUA_K_ERRO       ********   X   05   QUA_M_LOCALKEY = 00000002
QUA_K_FORM       ********   X   05   QUA_M_NEG      = 00000040
QUA_K_FULL       ********   X   05   QUA_M_ONEVAL   = 00002000
QUA_K_GLOB       ********   X   05   QUA_M_OUTPUT   = 00000800
QUA_K_GROU       ********   X   05   QUA_M_PARM     = 00000010
QUA_K_HASH       ********   X   05   QUA_M_VAL      = 00000020
QUA_K_HOLD       ********   X   05   QUA_M_VALREQ   = 00001000
QUA_K_IDEN       ********   X   05   QUA_M_VERB     = 00000008
QUA_K_INDE       ********   X   05   QUA_S_MAXPARM  = 00000004
QUA_K_JOB_       ********   X   05   QUA_S_MINPARM  = 00000004
QUA_K_LIMI       ********   X   05   QUA_V_BATDEF   = 00000008
QUA_K_LOCA       ********   X   05   QUA_V_CHNGLIST = 00000000
QUA_K_LOGI       ********   X   05   QUA_V_DEFTRUE  = 00000007
QUA_K_LOWE       ********   X   05   QUA_V_FILE     = 00000002
QUA_K_MAGT       ********   X   05   QUA_V_IMAGE    = 0000000A
MCRDBAS3        - MCR COMMAND DATA BASE MODULE 3                 22-AUG-1978 01:33:00   VAX-11 MACRO X0.3-11               Page  27
PROGRAM SECTION SYNOPSIS                                                                                                         (1)


PROGRAM SECTION SYNOPSIS

.  ABS  .        00000000      00     NOPIC   USR   CON   ABS   LCL NOSHR NOEXE NORD  NOWRT BYTE
. BLANK .        00000000      01     NOPIC   USR   CON   REL   LCL NOSHR   EXE   RD    WRT BYTE
$ABS$            0000000A      02     NOPIC   USR   CON   ABS   LCL NOSHR   EXE   RD    WRT BYTE
MCR$VERBTBL      00000008      03     NOPIC   USR   CON   REL   LCL NOSHR   EXE   RD  NOWRT BYTE
MCR$COMDPTR      00000004      04     NOPIC   USR   CON   REL   LCL NOSHR   EXE   RD  NOWRT BYTE
MCR$CMDATA       0000049B      05     NOPIC   USR   CON   REL   LCL NOSHR   EXE   RD  NOWRT BYTE


THERE WERE NO ERRORS OR WARNINGS.
3026. BYTES LEFT IN FREE MEMORY POOL.
4920. BYTES OF RECLAIMED MEMORY.
OBJ$:MCRDBAS3,LIS$:MCRDBAS3/-SP=EXECML$/ML,LIB$:MCR/ML,SRC$:MCRDBAS3
29 MLB DIR RDS - 708 GETS TO DEFINE 24 MACROS. 212 INTER. FILE WRITES.
