RSXMSG                                                           22-AUG-1978 00:28:48   VAX-11 MACRO X0.3-11               Page   0
TABLE OF CONTENTS

   (1)     142  DECLARATIONS
   (1)     200  EQUATED SYMBOLS
   (1)     221  RSX ERROR MESSAGE LIST
   (1)     248  RSXMSG
RSXMSG                                                           22-AUG-1978 00:28:48   VAX-11 MACRO X0.3-11               Page   1
00                                                                                                                               (1)

                                     0000     1 	.TITLE	RSXMSG
                                     0000     2 	.IDENT	/00/
                                     0000     3
                                     0000     4 ;
                                     0000     5 ;			  COPYRIGHT (c) 1977 BY
                                     0000     6 ;	      DIGITAL EQUIPMENT CORPORATION, MAYNARD, MASS.
                                     0000     7 ;
                                     0000     8 ; THIS SOFTWARE IS FURNISHED UNDER A LICENSE AND MAY BE USED AND  COPIED
                                     0000     9 ; ONLY  IN  ACCORDANCE  WITH  THE  TERMS  OF  SUCH  LICENSE AND WITH THE
                                     0000    10 ; INCLUSION OF THE ABOVE COPYRIGHT NOTICE.  THIS SOFTWARE OR  ANY  OTHER
                                     0000    11 ; COPIES  THEREOF MAY NOT BE PROVIDED OR OTHERWISE MADE AVAILABLE TO ANY
                                     0000    12 ; OTHER PERSON.  NO TITLE TO AND OWNERSHIP OF  THE  SOFTWARE  IS  HEREBY
                                     0000    13 ; TRANSFERRED.
                                     0000    14 ;
                                     0000    15 ; THE INFORMATION IN THIS SOFTWARE IS SUBJECT TO CHANGE  WITHOUT  NOTICE
                                     0000    16 ; AND  SHOULD  NOT  BE  CONSTRUED  AS  A COMMITMENT BY DIGITAL EQUIPMENT
                                     0000    17 ; CORPORATION.
                                     0000    18 ;
                                     0000    19 ; DIGITAL ASSUMES NO RESPONSIBILITY FOR THE USE OR  RELIABILITY  OF  ITS
                                     0000    20 ; SOFTWARE ON EQUIPMENT WHICH IS NOT SUPPLIED BY DIGITAL.
                                     0000    21 ;
                                     0000    22
                                     0000    23 ;++
                                     0000    24 ; FACILITY: STARLET COMPATIBITY MODE EMULATOR
                                     0000    25 ;
                                     0000    26 ; ABSTRACT:
                                     0000    27 ;
                                     0000    28 ; 	ERROR MESSAGE TEXT FOR STAND-ALONE EMULATOR
                                     0000    29 ;
                                     0000    30 ; ENVIRONMENT: NATIVE MODE USER CODE
                                     0000    31 ;
                                     0000    32 ; AUTHOR: C. MONIA , CREATION DATE: 23-OCT-1977
                                     0000    33 ;
                                     0000    34 ; MODIFIED BY:
                                     0000    35 ;
                                     0000    36 ;	, : VERSION
                                     0000    37 ; 01	-
                                     0000    38 ;--
                                     0000    39 ;
                                     0000    40 ; EXTERNAL SYMBOLS:
                                     0000    41 ;
                                     0000    42
                                     0000    43 	$RSXDEF				; DEFINE RSX EMULATOR PARAMETERS
                                     0000    44 	$STSDEF				; DEFINE FORMAT OF ERROR CONDITION CODES
                                     0000    45 	$SSDEF				; DEFINE SYSTEM CONDITION CODES
                                     0000    46
                                     0000    47 ;
                                     0000    48 ; LOCAL SYMBOLS
                                     0000    49 ;
                                     0000    50
                                     0000    51 ;RSX$_NOMSG==SS$_NOMSG				; CODE FOR UNDEFINED ERROR CONDITION
RSXMSG                                                           22-AUG-1978 00:28:48   VAX-11 MACRO X0.3-11               Page   2
00              DECLARATIONS                                                                                                     (1)

                                     0000    53 	.SBTTL	DECLARATIONS
                                     0000    54 ;
                                     0000    55 ; MACROS:
                                     0000    56 ;
                                     0000    57 ; GENERATE ERROR MESSAGE TEXT
                                     0000    58 ;
                                     0000    59
                                     0000    60 	.MACRO	ERM	CODE,TEXT
                                     0000    61 	.SAVE
                                     0000    62 	.IF NDF	$$$PRE
                                     0000    63 	.PSECT	RSXMSG	RD,NOWRT
                                     0000    64 $$$PRE=0
                                     0000    65 $$$=.
                                     0000    66 	.ASCII	"-W-"
                                     0000    67 $$$1=.
                                     0000    68 	.PSECT	RSXPTR	RD,NOWRT
                                     0000    69 RSX$A_MSGPRE::
                                     0000    70 	.LONG	<STS$K_WARNING>!<1@31>
                                     0000    71 	.LONG	$$$1-$$$
                                     0000    72 	.LONG	$$$
                                     0000    73 	.PSECT	RSXMSG	RD,NOWRT
                                     0000    74 $$$=.
                                     0000    75 	.ASCII	"-F-"
                                     0000    76 $$$1=.
                                     0000    77 	.PSECT	RSXPTR	RD,NOWRT
                                     0000    78 	.LONG	<STS$K_SEVERE>!<1@31>
                                     0000    79 	.LONG	$$$1-$$$
                                     0000    80 	.LONG	$$$
                                     0000    81 	.PSECT	RSXMSG	RD,NOWRT
                                     0000    82 $$$=.
                                     0000    83 	.ASCII	"-D-"
                                     0000    84 $$$1=.
                                     0000    85 	.PSECT	RSXPTR	RD,NOWRT
                                     0000    86 	.LONG	<STS$K_ERROR>!<1@31>
                                     0000    87 	.LONG	$$$1-$$$
                                     0000    88 	.LONG	$$$
                                     0000    89 	.LONG	0
                                     0000    90 	.ENDC
                                     0000    91 	.PSECT	RSXMSG	RD,NOWRT
                                     0000    92 $$$=.
                                     0000    93 	.ASCII	"CODE"
                                     0000    94 	.ASCII	", "
                                     0000    95 	.ASCII	"TEXT"
                                     0000    96 $$$1=.
                                     0000    97 	.PSECT	RSXPTR	RD,NOWRT
                                     0000    98 	.IF NDF	$$$MSG
                                     0000    99 $$$MSG=0
                                     0000   100 RSX$A_MSGTXT::
                                     0000   101 	.IFF
                                     0000   102 	.BLKL	-1
                                     0000   103 	.ENDC
                                     0000   104 	.LONG	<<<RSX$_'CODE>&STS$M_CODE>@-STS$V_CODE>!<1@31>
                                     0000   105 	.LONG	$$$1-$$$
                                     0000   106 	.LONG	$$$
                                     0000   107 	.LONG	0
                                     0000   108 	.RESTORE
                                     0000   109 	.ENDM
RSXMSG                                                           22-AUG-1978 00:28:48   VAX-11 MACRO X0.3-11               Page   3
00              EQUATED SYMBOLS                                                                                                  (1)

                                     0000   111 	.SBTTL	EQUATED SYMBOLS
                                     0000   112
                                     0000   113 ;
                                     0000   114 ; EQUATED SYMBOLS
                                     0000   115 ;
                                     0000   116 ; DEFINE OFFSETS INTO MESSAGE TEXT DESCRIPTOR
                                     0000   117 ;
                                     0000   118
                                     0000   119 	.SAVE
                                 00000000   120 	.PSECT	$ABS$,ABS
                                     0000   121
                           00000000  0000   122 .=0
                                     0000   123
                           00000004  0000   124 MSG_CODE::.BLKL	1			; MESSAGE CODE
                           00000008  0004   125 MSG_LENGTH::.BLKL	1		; LENGTH OF MESSAGE STRING
                           0000000C  0008   126 MSG_ADDR::.BLKL	1			; ADDRESS OF STRING
                           00000010  000C   127 MSG_SIZE::.BLKL	1			; LENGTH OF MESSAGE DESCRIPTOR
                                     0010   128
                                     0000   129 	.RESTORE
RSXMSG                                                           22-AUG-1978 00:28:48   VAX-11 MACRO X0.3-11               Page   4
00              EQUATED SYMBOLS                                                                                                  (1)

                                     0000   131
                                     0000   132 	.SBTTL	RSX ERROR MESSAGE LIST
                                     0000   133
                                     0000   134 ;
                                     0000   135 ; OWN STORAGE:
                                     0000   136 ;
                                     0000   137 ; MESSAGE TEXT STORAGE
                                     0000   138 ;
                                     0000   139
                                     0000   140
                                     0000   141 	ERM	RESERVED,^\COMPATIBILITY MODE RESERVED INSTRUCTION\
                                     0000   142 	ERM	BREAK,^\COMPATIBILITY MODE BREAKPOINT TRAP\
                                     0000   143 	ERM	IOT,^\COMPATIBITY MODE IOT\
                                     0000   144 	ERM	NONRSXEMT,^\NON-RSX EMT EXECUTION\
                                     0000   145 	ERM	TRAP,^\COMPATIBILITY MODE TRAP INSTRUCTION\
                                     0000   146 	ERM	ILLINST,^\COMPATIBILITY MODE ILLEGAL INSTRUCTION\
                                     0000   147 	ERM	ODDADDR,^\COMPATIBILITY MODE ODD ADDRESS\
                                     0000   148 	ERM	TBIT,^\COMPATIBILITY MODE TBIT\
                                     0000   149 	ERM	ACCVIO,^\COMPATIBILITY MODE ACCESS VIOLATION\
                                     0000   150 	ERM	BADSTACK,^\ILLEGAL COMPATIBILITY MODE STACK POINTER\
                                     0000   151 	ERM	INSFDYNMEM,^\INSUFFICIENT VIRTUAL ADDRESS SPACE\
                                     0000   152 	ERM	EXTERNABRT,^\EXTERNAL ABORT\
                                     0000   153 	ERM	NOTSKIMG,^\FILE NOT RSX-11M TASK IMAGE\
                                     0000   154 	ERM	BADLIBREF,^\ILLEGAL LIBRARY OR COMMON REFERENCE\
                                     0000   155 	ERM	LIBNOTFND,^\REQUIRED LIBRARY NOT FOUND\
                                     0000   156 	ERM	NOSUCHDEV,^\NO SUCH DEVICE: \
                                     0000   157 ;	ERM	NOMSG,^\ILLEGAL ERROR CODE, PC = !XL, CODE = !XL\
RSXMSG                                                           22-AUG-1978 00:28:48   VAX-11 MACRO X0.3-11               Page   5
00              RSXMSG                                                                                                           (1)

                                     0000   159 	.SBTTL	RSXMSG
                                     0000   160 ;++
                                     0000   161 ; FUNCTIONAL DESCRIPTION:
                                     0000   162 ;
                                     0000   163 ; THIS MODULE CONTAINS THE ERROR MESSAGE TEXT FOR THE CORE-ONLY
                                     0000   164 ; VERSION OF THE CME
                                     0000   165 ;
                                     0000   166 ; ONE MESSAGE EXISTS FOR EACH EMULATOR ERROR CODE. THE MESSAGE
                                     0000   167 ; TEXT CORRESPONDING TO EACH CODE IS DESCRIBED BY A FIXED LENGTH,
                                     0000   168 ; THREE-LONGWORD ENTRY CONSISTING OF THE MESSAGE CODE (IN THE FIRST
                                     0000   169 ; LONG WORD) AND THE MESSAGE STRING DESCRIPTOR IN THE REMAINING TWO
                                     0000   170 ; LONGWORDS.
                                     0000   171 ;
                                     0000   172 ;
                                     0000   173 ; INPUT PARAMETERS:
                                     0000   174 ;
                                     0000   175 ;	NONE
                                     0000   176 ;
                                     0000   177 ; IMPLICIT INPUTS:
                                     0000   178 ;
                                     0000   179 ;	NONE
                                     0000   180 ;
                                     0000   181 ; OUTPUT PARAMETERS:
                                     0000   182 ;
                                     0000   183 ;	NONE
                                     0000   184 ;
                                     0000   185 ; IMPLICIT OUTPUTS:
                                     0000   186 ;
                                     0000   187 ;	NONE
                                     0000   188 ;
                                     0000   189 ; COMPLETION CODES:
                                     0000   190 ;
                                     0000   191 ;	NONE
                                     0000   192 ;
                                     0000   193 ; SIDE EFFECTS:
                                     0000   194 ;
                                     0000   195 ;	NONE
                                     0000   196 ;
                                     0000   197 ;--
                                     0000   198
                                     0000   199 	.END
RSXMSG                                                           22-AUG-1978 00:28:48   VAX-11 MACRO X0.3-11               Page   6
SYMBOL TABLE                                                                                                                     (1)

$$$            = 00000255 R     05   H.HDLN           00000002            IE.IES         = FFFFFFAE
$$$1           = 00000270 R     05   H.IPC            0000000E            IE.IFC         = FFFFFFFE
$$$MSG         = 00000000            H.IPS            0000000C            IE.IFU         = FFFFFFE7
$$$PRE         = 00000000            H.ISP            00000010            IE.ILL         = FFFFFFD6
$$MSG          = 00000000            H.LUN            0000003E            IE.ISQ         = FFFFFFC3
...GBL         = 00000000            H.NLUN           0000003C            IE.LCK         = FFFFFFE5
ACBC_CTLRCAST  = 00000002            H.NML            00000031            IE.MOD         = FFFFFFEB
ACBC_FLOATAST  = 00000003            H.ODVA           00000012            IE.NBF         = FFFFFFD9
ACBC_PWRAST    = 00000000            H.ODVL           00000014            IE.NBK         = FFFFFFD7
ACBC_RCVAST    = 00000001            H.OVLY           0000002C            IE.NDR         = FFFFFFB8
ACBV_INPROG    = 00000001            H.PFVA           0000001A            IE.NFI         = FFFFFFC4
ACBV_PERM      = 00000000            H.RCVA           0000001E            IE.NFW         = FFFFFFBB
ACBV_TYPE      = 00000008            H.RRVA           00000032            IE.NLK         = FFFFFFB1
ACB_FLAGS        0000000C            H.SPRI           00000030            IE.NLN         = FFFFFFDB
ACB_LINK         00000000            H.TKVA           00000016            IE.NNC         = FFFFFFB3
ACB_UPC          0000000A            H.TKVL           00000018            IE.NNL         = FFFFFFB2
ACB_UPRM         00000008            H.VEXT           0000002E            IE.NNN         = FFFFFFBC
ADR_HIGHLIM      00000004            H.WND            00000024            IE.NOD         = FFFFFFE9
ADR_LOWLIM       00000000            IE.2DV         = FFFFFFD0            IE.NSF         = FFFFFFE6
ADR_SIZE         00000008            IE.ABO         = FFFFFFF1            IE.NST         = FFFFFFB0
AP_NAME          00000004            IE.ALC         = FFFFFFAC            IE.OFL         = FFFFFFBF
AST_PARAM        00000004            IE.ALN         = FFFFFFDE            IE.ONP         = FFFFFFFB
AST_PC           00000010            IE.AST         = FFFFFFB0            IE.OVR         = FFFFFFEE
AST_PSL          00000014            IE.BAD         = FFFFFFFF            IE.PES         = FFFFFFAD
AST_R0           00000008            IE.BBE         = FFFFFFC8            IE.PRI         = FFFFFFF0
AST_R1           0000000C            IE.BCC         = FFFFFFBE            IE.RAC         = FFFFFFD4
BIT...         = 00000000            IE.BDI         = FFFFFFCC            IE.RAT         = FFFFFFD3
C$$ORE         = 00000000            IE.BDR         = FFFFFFCE            IE.RBG         = FFFFFFD8
C_CANONPS      = 83C00000            IE.BDV         = FFFFFFC9            IE.RCN         = FFFFFFD2
C_RCVDSTR      = 44564352            IE.BHD         = FFFFFFC0            IE.RER         = FFFFFFE0
FCB_ATTRIBS      0000007C            IE.BLB         = FFFFFFBA            IE.RNM         = FFFFFFCD
FCB_FIB          0000004C            IE.BLK         = FFFFFFEC            IE.RSU         = FFFFFFEF
FCB_FID          00000000            IE.BNM         = FFFFFFCA            IE.SNC         = FFFFFFDD
FCB_FNAME        00000014            IE.BTF         = FFFFFFB4            IE.SPC         = FFFFFFFA
FCB_FNAMEDESC    0000000C            IE.BTP         = FFFFFFD5            IE.SQC         = FFFFFFDC
FCB_FNB          00000002            IE.BVR         = FFFFFFC1            IE.SRE         = FFFFFFF2
FCB_PC           00000078            IE.BYT         = FFFFFFED            IE.STK         = FFFFFFC6
FCB_RESULT       00000030            IE.CKS         = FFFFFFE2            IE.TMM         = FFFFFFB9
FCB_RESULTDESC   00000004            IE.CLO         = FFFFFFDA            IE.TMO         = FFFFFFB6
FCB_SIZE         000000B4            IE.CNR         = FFFFFFB7            IE.ULK         = FFFFFFAB
FP_AP            00000008            IE.CON         = FFFFFFEA            IE.VER         = FFFFFFFC
FP_FP            0000000C            IE.DAA         = FFFFFFF8            IE.WAC         = FFFFFFE3
FP_PC            00000010            IE.DAO         = FFFFFFF3            IE.WAT         = FFFFFFE1
FP_PSL           00000004            IE.DFU         = FFFFFFE8            IE.WCK         = FFFFFFAA
FP_REGISTERS     00000014            IE.DNA         = FFFFFFF9            IE.WER         = FFFFFFDF
GBL...         = 00000000            IE.DNR         = FFFFFFFD            IE.WLK         = FFFFFFF4
H.CSP            00000000            IE.DUN         = FFFFFFF7            IS.BV          = 00000005
H.CUIC           00000008            IE.DUP         = FFFFFFC7            IS.CC          = 00000301
H.DSW            00000026            IE.EOF         = FFFFFFF6            IS.CR          = 00000D01
H.DUIC           0000000A            IE.EOT         = FFFFFFC2            IS.EOT         = 00000401
H.EFLM           00000004            IE.EOV         = FFFFFFF5            IS.ESC         = 00001B01
H.EFSV           00000020            IE.EXP         = FFFFFFB5            IS.ESQ         = 00009B01
H.FCS            00000028            IE.FEX         = FFFFFFCF            IS.PES         = 00008001
H.FORT           0000002A            IE.FHE         = FFFFFFC5            IS.PND         = 00000000
H.FPSA           00000022            IE.FLN         = FFFFFFAF            IS.RDD         = 00000002
H.FPVA           0000001C            IE.FOP         = FFFFFFCB            IS.SUC         = 00000001
H.GARD           0000003A            IE.HFU         = FFFFFFE4            IS.TAB         = 00000901
RSXMSG                                                           22-AUG-1978 00:28:48   VAX-11 MACRO X0.3-11               Page   7
SYMBOL TABLE                                                                                                                     (1)

IS.TMO         = 00000002            LUTC_TRM       = 00000001            RSX$_TRAP      = 00068024
I_ADR0           000000D8            LUTV_CTRLC     = 00000002            SS$_ABORT      = 0000002C
I_ASCIINAME      0000011C            LUTV_CTRLO     = 00000000            SS$_ACCONFLICT = 00000800
I_ASTPOOL        000000A8            LUTV_PRM       = 00000003            SS$_ACCVIO     = 0000000C
I_ASTQUEUE       000000A0            LUTV_TI        = 00000001            SS$_ARITH      = 00000404
I_BAILOUTFP      0000018C            LUT_CHAN         0000000C            SS$_ASTFLT     = 0000040C
I_CMDAD          000000C4            LUT_CHAR         00000014            SS$_BADATTRIB  = 00000034
I_CMDSZ          000000C0            LUT_CTRLC        00000034            SS$_BADCHKSUM  = 00000808
I_CURAST         00000194            LUT_FLAGS        0000000A            SS$_BADESCAPE  = 0000003C
I_FCBPOOL        000000B0            LUT_INFONAME     00000030            SS$_BADFILEHDR = 00000810
I_FCC            000001B0            LUT_INFOUNIT     00000032            SS$_BADFILENAME= 00000818
I_FLOATA0        000001BC            LUT_LINK         00000000            SS$_BADFILEVER = 00000820
I_FLOATA1        000001C4            LUT_REALNAME     00000020            SS$_BADIMGHDR  = 00000044
I_FLOATA2        000001CC            LUT_REF          00000008            SS$_BADIRECTORY= 00000828
I_FLOATA3        000001D4            LUT_RSXNAME      00000010            SS$_BADPARAM   = 00000014
I_FLOATA4        000001DC            LUT_RSXUNIT      00000012            SS$_BADSTACK   = 000002B4
I_FLOATA5        000001E4            LUT_SIZE         00000038            SS$_BEGOFFILE  = 00000938
I_FLOATADR       000001AC            LUT_TYPE         00000018            SS$_BLOCKCNTERR= 00000940
I_FLOATAST       000001A0            LUT_UNIT         00000020            SS$_BREAK      = 00000414
I_FLOATCSR       000001A4            MSG_ADDR         00000008  G         SS$_BUFFEROVF  = 00000601
I_FLOATERR       000001A8            MSG_CODE         00000000  G         SS$_BUGCHECK   = 000002A4
I_FLOATTMP       000001B4            MSG_LENGTH       00000004  G         SS$_CANCEL     = 00000830
I_GARD           000000C8            MSG_SIZE         0000000C  G         SS$_CHANINTLK  = 0000004C
I_HIGHEFN        00000148            PSL_CC         = 00000000            SS$_CLIFRCEXT  = 00000980
I_HIGHSIZE       000000D0            PSL_CM         = 0000001F            SS$_CMODSUPR   = 0000041C
I_IMAGEVBN       000000D4            PSL_FPD        = 0000001B            SS$_CMODUSER   = 00000424
I_INISIZE        000000CC            PSL_FU         = 00000006            SS$_COMPAT     = 0000042C
I_LENGTH         000001EC            PSL_TBIT       = 00000004            SS$_CONTINUE   = 00000001
I_LOGNAME        000000B8            QIOV_FILES     = 00000000            SS$_CONTROLC   = 00000651
I_LUT            00000144            QIO_FLAGS        0000001C            SS$_CONTROLO   = 00000609
I_NLUN           00000140            QIO_FUNCTION     0000001A            SS$_CONTROLY   = 00000611
I_PC             00000184            QIO_IOSB         0000000E            SS$_CREATED    = 00000619
I_PROCNAME       00000128            QIO_LUT          00000016            SS$_CTRLERR    = 00000054
I_PS             00000188            QIO_SECONDBLK    0000001E            SS$_DATACHECK  = 0000005C
I_PWRAST         0000019C            QIO_SIZE         00000022            SS$_DATAOVERUN = 00000838
I_R0             00000164            RSX$A_MSGPRE     00000000 RG    06   SS$_DEBUG      = 0000046C
I_R1             00000168            RSX$A_MSGTXT     00000028 RG    06   SS$_DEVACTIVE  = 000002C4
I_R2             0000016C            RSX$C_SUBSYSTEM= 00000006            SS$_DEVALLOC   = 00000840
I_R3             00000170            RSX$_ACCVIO    = 00068044            SS$_DEVALRALLOC= 00000641
I_R4             00000174            RSX$_BADLIBREF = 0006806C            SS$_DEVASSIGN  = 00000848
I_R5             00000178            RSX$_BADSTACK  = 0006804C            SS$_DEVFOREIGN = 00000064
I_R6             0000017C            RSX$_BREAK     = 0006800C            SS$_DEVICEFULL = 00000850
I_RAD50NAME      00000124            RSX$_EXITSTATUS= 00068180            SS$_DEVMOUNT   = 0000006C
I_RCVAST         00000198            RSX$_EXTERNABRT= 0006805C            SS$_DEVNOTALLOC= 00000858
I_RCVMAIL        0000013C            RSX$_ILLINST   = 0006802C            SS$_DEVNOTMBX  = 00000074
I_RUNFLAGS       00000190            RSX$_INSFDYNMEM= 00068054            SS$_DEVNOTMOUNT= 0000007C
I_SCRATCH        00000000            RSX$_IOT       = 00068014            SS$_DEVOFFLINE = 00000084
I_STATE          0000014C            RSX$_LIBNOTFND = 00068074            SS$_DIRFULL    = 00000860
I_TYPE           00000180            RSX$_LOADERROR = 0006807C            SS$_DRVERR     = 0000008C
I_UIC            00000118            RSX$_NONRSXEMT = 0006801C            SS$_DUPFILENAME= 00000868
I_WAIT           00000154            RSX$_NOSUCHDEV = 000680C2            SS$_DUPLNAM    = 00000094
I_WAITSAVE       0000015C            RSX$_NOTSKIMG  = 00068064            SS$_ENDOFFILE  = 00000870
LUTC_CR        = 00000005            RSX$_ODDADDR   = 00068034            SS$_ENDOFTAPE  = 00000878
LUTC_DISK      = 00000002            RSX$_PMD       = 000680CA            SS$_ENDOFUSRLBL= 00000970
LUTC_LP        = 00000004            RSX$_RCVMBXSIZ = 0000012C            SS$_EXQUOTA    = 0000001C
LUTC_RMS       = 00000000            RSX$_RESERVED  = 00068004            SS$_EXTIDXFILE = 00000880
LUTC_TAPE      = 00000003            RSX$_TBIT      = 0006803C            SS$_FCPREADERR = 00000888
RSXMSG                                                           22-AUG-1978 00:28:48   VAX-11 MACRO X0.3-11               Page   8
SYMBOL TABLE                                                                                                                     (1)

SS$_FCPREPSTN  = 00000988            SS$_NODATA     = 000001AC            SS$_WASCLR     = 00000001
SS$_FCPREWNDERR= 00000890            SS$_NOHANDLER  = 000008F8            SS$_WASECC     = 00000639
SS$_FCPSPACERR = 00000898            SS$_NOHOMEBLK  = 000008E0            SS$_WASSET     = 00000009
SS$_FCPWRITERR = 000008A0            SS$_NOIOCHAN   = 000001B4            SS$_WRITLCK    = 0000025C
SS$_FILACCERR  = 0000009C            SS$_NOLINKS    = 0000027C            STS$K_ERROR    = 00000002
SS$_FILALRACC  = 000000A4            SS$_NOLOGNAM   = 000001BC            STS$K_SEVERE   = 00000004
SS$_FILELOCKED = 000008A8            SS$_NOMBX      = 00000274            STS$K_SUCCESS  = 00000001
SS$_FILENUMCHK = 000008B0            SS$_NOMOREFILES= 00000930            STS$K_WARNING  = 00000000
SS$_FILESEQCHK = 000008B8            SS$_NONEXDRV   = 000001C4            STS$M_CODE     = 00007FF8
SS$_FILESTRUCT = 000008C0            SS$_NONEXPR    = 000008E8            STS$M_COND_ID  = 0FFFFFF8
SS$_FILNOTACC  = 000000AC            SS$_NONLOCAL   = 000008F0            STS$M_CONTROL  = F0000000
SS$_FILNOTCNTG = 000002AC            SS$_NOPRIV     = 00000024            STS$M_CUST_DEF = 08000000
SS$_FILNOTEXP  = 000000B4            SS$_NORMAL     = 00000001            STS$M_FAC_NO   = 0FFF0000
SS$_FORMAT     = 000000BC            SS$_NOSIGNAL   = 00000900            STS$M_FAC_SP   = 00008000
SS$_GPTFULL    = 000000C4            SS$_NOSOLICIT  = 00000284            STS$M_INHIB_MSG= 10000000
SS$_GSDFULL    = 000000CC            SS$_NOSUCHDEV  = 00000908            STS$M_MSG_NO   = 0000FFF8
SS$_GSDNOTXXX  = 000000D4            SS$_NOSUCHFILE = 00000910            STS$M_SEVERITY = 00000007
SS$_HANGUP     = 000002CC            SS$_NOSUCHNODE = 0000028C            STS$M_SUCCESS  = 00000001
SS$_HEADERFULL = 000008C8            SS$_NOSUCHSEC  = 00000978            STS$S_CODE     = 0000000C
SS$_IDXFILEFULL= 000008D0            SS$_NOTAPEOP   = 00000264            STS$S_COND_ID  = 00000019
SS$_ILLBLKNUM  = 000000DC            SS$_NOTFILEDEV = 000001CC            STS$S_CONTROL  = 00000004
SS$_ILLCNTRFUNC= 000000E4            SS$_NOTINTBLSZ = 000001D4            STS$S_CUST_DEF = 00000001
SS$_ILLEFC     = 000000EC            SS$_NOTLABELMT = 000001DC            STS$S_FAC_NO   = 0000000C
SS$_ILLIOFUNC  = 000000F4            SS$_NOTNETDEV  = 000002EC            STS$S_FAC_SP   = 00000001
SS$_ILLLBLAST  = 00000968            SS$_NOTRAN     = 00000629            STS$S_INHIB_MSG= 00000001
SS$_ILLPAGCNT  = 000000FC            SS$_NOTSQDEV   = 000001E4            STS$S_MSG_NO   = 0000000D
SS$_ILLSEQOP   = 000002DC            SS$_OPCCUS     = 00000434            STS$S_SEVERITY = 00000003
SS$_ILLSER     = 00000104            SS$_OPCDEC     = 0000043C            STS$S_SUCCESS  = 00000001
SS$_ILLUSRLBLRD= 00000958            SS$_OPINCOMPL  = 000002D4            STS$V_CODE     = 00000003
SS$_ILLUSRLBLWT= 00000960            SS$_PAGOWNVIO  = 000001EC            STS$V_COND_ID  = 00000003
SS$_INCVOLLABEL= 0000010C            SS$_PAGRDERR   = 00000444            STS$V_CONTROL  = 0000001C
SS$_INSFARG    = 00000114            SS$_PARITY     = 000001F4            STS$V_CUST_DEF = 0000001B
SS$_INSFMEM    = 00000124            SS$_PARTESCAPE = 000001FC            STS$V_FAC_NO   = 00000010
SS$_INSFRAME   = 0000012C            SS$_PFMBSY     = 00000204            STS$V_FAC_SP   = 0000000F
SS$_INSFWSL    = 0000011C            SS$_PSTFULL    = 0000020C            STS$V_INHIB_MSG= 0000001C
SS$_IVADDR     = 00000134            SS$_RADRMOD    = 0000044C            STS$V_MSG_NO   = 00000003
SS$_IVCHAN     = 0000013C            SS$_REJECT     = 00000294            STS$V_SEVERITY = 00000000
SS$_IVCHNLSEC  = 0000026C            SS$_REMOTE     = 00000649            STS$V_SUCCESS  = 00000000
SS$_IVDEVNAM   = 00000144            SS$_RESIGNAL   = 00000918            SV_ASTLVL        00000005
SS$_IVGSDNAM   = 0000014C            SS$_RESULTOVF  = 00000214            SV_DCL           00000002
SS$_IVLOGNAM   = 00000154            SS$_ROPRAND    = 00000454            SV_FLOATAST      0000000A
SS$_IVLOGTAB   = 0000015C            SS$_SECTBLFUL  = 0000021C            SV_FRESTORE      00000003
SS$_IVPROTECT  = 000002F4            SS$_SSFAIL     = 0000045C            SV_NOAST         00000004
SS$_IVQUOTAL   = 00000164            SS$_SUPERSEDE  = 00000631            SV_PENDWAIT      00000006
SS$_IVSECFLG   = 0000016C            SS$_TAPEPOSLOST= 00000224            SV_PWRAST        00000009
SS$_IVSECIDCTL = 000002E4            SS$_TBIT       = 00000464            SV_RCVAST        00000008
SS$_IVSSRQ     = 00000174            SS$_TIMEOUT    = 0000022C            SV_RESTORE       00000000
SS$_IVSTSFLG   = 0000017C            SS$_TOOMANYVER = 00000990            SV_TRANSLATE     00000001
SS$_IVTIME     = 00000184            SS$_TOOMUCHDATA= 0000029C            SV_WAIT          00000007
SS$_LENVIO     = 0000018C            SS$_UNASEFC    = 00000234            S_PC             00000020
SS$_LKWSETFUL  = 00000194            SS$_UNSAFE     = 0000023C            S_PS             00000024
SS$_MBFULL     = 000008D8            SS$_UNWIND     = 00000920            S_R0             00000000
SS$_MBTOOSML   = 0000019C            SS$_UNWINDING  = 00000928            S_R1             00000004
SS$_MCHECK     = 000002BC            SS$_VASFULL    = 00000244            S_R2             00000008
SS$_MEDOFL     = 000001A4            SS$_VECINUSE   = 0000024C            S_R3             0000000C
SS$_MSGNOTFND  = 00000621            SS$_VOLINV     = 00000254            S_R4             00000010
SS$_MUSTCLOSEFL= 00000948            SS$_WAITUSRLBL = 00000950            S_R5             00000014
RSXMSG                                                           22-AUG-1978 00:28:48   VAX-11 MACRO X0.3-11               Page   9
SYMBOL TABLE                                                                                                                     (1)

S_R6             00000018
S_TYPE           0000001C
W.BATT           00000006
W.BFPD           0000000C
W.BHVR           00000004
W.BLGH           00000010
W.BLPD           0000000E
W.BLVR           00000002
W.BNPD           0000000D
W.BOFF           0000000A
W.BPCB           00000000
W.BSIZ           00000008


PROGRAM SECTION SYNOPSIS

.  ABS  .        00000000      00     NOPIC   USR   CON   ABS   LCL NOSHR NOEXE NORD  NOWRT BYTE
. BLANK .        00000000      01     NOPIC   USR   CON   REL   LCL NOSHR   EXE   RD    WRT BYTE
..ABS.           00000042      02     NOPIC   USR   CON   ABS   LCL NOSHR   EXE   RD    WRT BYTE
$ABS$            00000010      03     NOPIC   USR   CON   ABS   LCL NOSHR   EXE   RD    WRT BYTE
RSXDEF           000001F0      04     NOPIC   USR   CON   ABS   LCL NOSHR   EXE   RD    WRT BYTE
RSXMSG           00000270      05     NOPIC   USR   CON   REL   LCL NOSHR   EXE   RD  NOWRT BYTE
RSXPTR           000000EC      06     NOPIC   USR   CON   REL   LCL NOSHR   EXE   RD  NOWRT BYTE


THERE WERE NO ERRORS OR WARNINGS.
8742. BYTES LEFT IN FREE MEMORY POOL.
3382. BYTES OF RECLAIMED MEMORY.
OBJ$:CORSXMSG,LIS$:CORSXMSG/-SP=SRC$:C,CORSXMSG
22 MLB DIR RDS - 703 GETS TO DEFINE 17 MACROS. 42 INTER. FILE WRITES.
