RSXCRDRV        - VAX/VMS RSX11M AME CARD READER DRIVER          22-AUG-1978 00:23:15   VAX-11 MACRO X0.3-11               Page   0
TABLE OF CONTENTS

   (2)     130  RSX$CR_DRV - RSX11M AME CARD READER DRIVER
   (3)     184  CR_RVB AND CR_RLB FUNCTIONS
RSXCRDRV        - VAX/VMS RSX11M AME CARD READER DRIVER          22-AUG-1978 00:23:15   VAX-11 MACRO X0.3-11               Page   1
V05.0                                                                                                                            (1)

                                     0000     1 	.TITLE	RSXCRDRV - VAX/VMS RSX11M AME CARD READER DRIVER
                                     0000     2 	.IDENT	/V05.0/		;
                                     0000     3
                                     0000     4 ;
                                     0000     5 ; COPYRIGHT (C) 1977
                                     0000     6 ; DIGITAL EQUIPMENT CORPORATION, MAYNARD, MASSACHUSETTS 01754
                                     0000     7 ;
                                     0000     8 ; THIS SOFTWARE IS FURNISHED  UNDER A LICENSE FOR USE ONLY ON A SINGLE
                                     0000     9 ; COMPUTER  SYSTEM AND  MAY BE  COPIED ONLY WITH  THE INCLUSION OF THE
                                     0000    10 ; ABOVE COPYRIGHT NOTICE.  THIS SOFTWARE, OR ANY OTHER COPIES THEREOF,
                                     0000    11 ; MAY NOT BE PROVIDED OR  OTHERWISE MADE AVAILABLE TO ANY OTHER PERSON
                                     0000    12 ; EXCEPT FOR USE ON SUCH SYSTEM AND TO ONE WHO AGREES TO THESE LICENSE
                                     0000    13 ; TERMS.  TITLE TO AND  OWNERSHIP OF THE  SOFTWARE  SHALL AT ALL TIMES
                                     0000    14 ; REMAIN IN DEC.
                                     0000    15 ;
                                     0000    16 ; THE INFORMATION IN THIS SOFTWARE IS SUBJECT TO CHANGE WITHOUT NOTICE
                                     0000    17 ; AND SHOULD  NOT BE CONSTRUED  AS A COMMITMENT  BY DIGITAL  EQUIPMENT
                                     0000    18 ; CORPORATION.
                                     0000    19 ;
                                     0000    20 ; DEC ASSUMES  NO  RESPONSIBILITY  FOR  THE USE OR  RELIABILITY OF ITS
                                     0000    21 ; SOFTWARE ON EQUIPMENT WHICH IS NOT SUPPLIED BY DEC.
                                     0000    22
                                     0000    23 ;++
                                     0000    24 ; FACILITY:
                                     0000    25 ;
                                     0000    26 ;	VAX/VMS RSX11M AME
                                     0000    27 ;
                                     0000    28 ; ABSTRACT:
                                     0000    29 ;
                                     0000    30 ;	CARD READER DRIVER
                                     0000    31 ;
                                     0000    32 ; AUTHOR: R.HEINEN 4-NOV-76
                                     0000    33 ;--
                                     0000    34 ;
                                     0000    35 ; EXTERNAL SYMBOLS
                                     0000    36 ;
                                     0000    37 	$RSXDEF			; DEFINE RSX SYMBOLS
                                     0000    38 	SPCIO$			; DEFINE SPECIAL I/O FUNCTIONS
                                     0000    39 	FILIO$			;
RSXCRDRV        - VAX/VMS RSX11M AME CARD READER DRIVER          22-AUG-1978 00:23:15   VAX-11 MACRO X0.3-11               Page   2
V05.0           RSX$CR_DRV - RSX11M AME CARD READER DRIVER                                                                       (2)

                                     0000    41 	.SBTTL	RSX$CR_DRV - RSX11M AME CARD READER DRIVER
                                     0000    42
                                 00000000    43 	.PSECT	RSXCODE,NOWRT
                                     0000    44 ;++
                                     0000    45 ; RSX$CR_DRV - RSX11M AME CARD READER DRIVER
                                     0000    46 ;
                                     0000    47 ; FUNCTIONAL DESCRIPTION:
                                     0000    48 ;
                                     0000    49 ; THIS ROUTINE PROCESSES I/O DIRECTED TO A CARD READER.
                                     0000    50 ;
                                     0000    51 ; INPUTS:
                                     0000    52 ;
                                     0000    53 ;	R2 = ADDRESS OF THE QIO CONTEXT BLOCK
                                     0000    54 ;	R3 = MAJOR FUNCTION CODE
                                     0000    55 ;	R5 = ADDRESS OF THE DPB AREA
                                     0000    56 ;	R6 = ADDRESS OF THE IMAGE STACK
                                     0000    57 ;	R8 = ADDRESS OF THE LUT
                                     0000    58 ;	R10 = ADDRESS OF THE IMAGE IMPURE SECTION
                                     0000    59 ;	R11 = ADDRESS OF THE IMAGE
                                     0000    60 ;
                                     0000    61 ; OUTPUTS:
                                     0000    62 ;
                                     0000    63 ;	R2,R6,R8,R10,R11 ARE PRESERVED
                                     0000    64 ;--
                                     0000    65 RSX$CR_DRV::				; CARD READER DRIVER
                                     0000    66 	CASE	R3,<-			;
                                     0000    67 		RSX$IOKILL,-		; I/O KILL
                                     0000    68 		RSX$IEIFC,-		; WRITE LOGICAL BLOCK
                                     0000    69 		CR_RLB,-		; READ LOGICAL BLOCK
                                     0000    70 		RSX$DLVRQIOAST,-	; ATTACH DEVICE
                                     0000    71 		RSX$DLVRQIOAST,-	; DETACH DEVICE
                                     0000    72 		RSX$IEIFC,-		; FUNCTION CODE 5
                                     0000    73 		RSX$IEIFC,-		; FUNCTION CODE 6
                                     0000    74 		RSX$IEIFC,-		; ILLEGAL
                                     0000    75 		RSX$IEIFC,-		; ILLEGAL
                                     0000    76 		RSX$DLVRQIOAST,-	; FUNCTION CODE 9
                                     0000    77 		RSX$IEIFC,-		; ILLEGAL
                                     0000    78 		RSX$DLVRQIOAST,-	; ACP FUNCTIONS
                                     0000    79 		RSX$DLVRQIOAST,-	; ACP FUNCTIONS
                                     0000    80 		RSX$DLVRQIOAST,-	; ACP FUNCTIONS
                                     0000    81 		RSX$DLVRQIOAST,-	; ACP FUNCTIONS
                                     0000    82 		RSX$DLVRQIOAST,-	; ACP FUNCTIONS
                                     0000    83 		RSX$DLVRQIOAST,-	; ACP FUNCTIONS
                                     0000    84 		CR_RLB,-		; READ VIRTUAL BLOCK
                                     0000    85 		RSX$IEIFC,-		; WRITE VIRTUAL BLOCK
                                     0000    86 		RSX$DLVRQIOAST,-	; ACP FUNCTIONS
                                     0000    87 		RSX$DLVRQIOAST,-	; ACP FUNCTIONS
                                     0000    88 		RSX$DLVRQIOAST,-	; ACP FUNCTIONS
                                     0000    89 		RSX$DLVRQIOAST,-	; ACP FUNCTIONS
                                     0000    90 		RSX$DLVRQIOAST,-	; ACP FUNCTIONS
                                     0000    91 		RSX$DLVRQIOAST,-	; ACP FUNCTIONS
                                     0000    92 		>
                          FFC7'  31  0036    93 	BRW	RSX$IEIFC		; ERROR EXIT
RSXCRDRV        - VAX/VMS RSX11M AME CARD READER DRIVER          22-AUG-1978 00:23:15   VAX-11 MACRO X0.3-11               Page   3
V05.0           CR_RVB AND CR_RLB FUNCTIONS                                                                                      (3)

                                     0039    95 	.SBTTL	CR_RVB AND CR_RLB FUNCTIONS
                                     0039    96 ;
                                     0039    97 ; READ VIRTUAL BLOCK
                                     0039    98 ;
                                     0039    99 CR_RVB:					; READ VIRTUAL BLOCK
         0C AA       0000'8F     3C  0039   100 	MOVZWL	#IO$_READVBLK,I_SCRATCH+12(R10); SET FUNCTION CODE
                          FFBE'  31  003F   101 	BRW	RSX$ISSUQIO		; PERFORM THE I/O
                                     0042   102 ;
                                     0042   103 ; READ LOGICAL BLOCK
                                     0042   104 ;
                                     0042   105 CR_RLB:					; READ LOGICAL BLOCK
         0C AA       0000'8F     3C  0042   106 	MOVZWL	#IO$_READLBLK,I_SCRATCH+12(R10); SET THE FUNCTION CODE
       0080 8F            57     B1  0048   107 	CMPW	R7,#<IO.RDB&^X0FF>	; IO.RDB?
                          06     12  004D   108 	BNEQ	10$			; IF NEQ THEN NO
         0C AA       0000'8F     3C  004F   109 	MOVZWL	#IO$_READPBLK,I_SCRATCH+12(R10); SET PHYSICAL I/O
                          FFA8'  31  0055   110 10$:	BRW	RSX$ISSUQIO		; PERFORM THE FUNCTION
                                     0058   111 	.END
RSXCRDRV        - VAX/VMS RSX11M AME CARD READER DRIVER          22-AUG-1978 00:23:15   VAX-11 MACRO X0.3-11               Page   4
SYMBOL TABLE                                                                                                                     (3)

$$MSG          = 00000000            H.IPS            0000000C            IE.IFU         = FFFFFFE7
...GBL         = 00000000            H.ISP            00000010            IE.ILL         = FFFFFFD6
ACBC_CTLRCAST  = 00000002            H.LUN            0000003E            IE.ISQ         = FFFFFFC3
ACBC_FLOATAST  = 00000003            H.NLUN           0000003C            IE.LCK         = FFFFFFE5
ACBC_PWRAST    = 00000000            H.NML            00000031            IE.MOD         = FFFFFFEB
ACBC_RCVAST    = 00000001            H.ODVA           00000012            IE.NBF         = FFFFFFD9
ACBV_INPROG    = 00000001            H.ODVL           00000014            IE.NBK         = FFFFFFD7
ACBV_PERM      = 00000000            H.OVLY           0000002C            IE.NDR         = FFFFFFB8
ACBV_TYPE      = 00000008            H.PFVA           0000001A            IE.NFI         = FFFFFFC4
ACB_FLAGS        0000000C            H.RCVA           0000001E            IE.NFW         = FFFFFFBB
ACB_LINK         00000000            H.RRVA           00000032            IE.NLK         = FFFFFFB1
ACB_UPC          0000000A            H.SPRI           00000030            IE.NLN         = FFFFFFDB
ACB_UPRM         00000008            H.TKVA           00000016            IE.NNC         = FFFFFFB3
ADR_HIGHLIM      00000004            H.TKVL           00000018            IE.NNL         = FFFFFFB2
ADR_LOWLIM       00000000            H.VEXT           0000002E            IE.NNN         = FFFFFFBC
ADR_SIZE         00000008            H.WND            00000024            IE.NOD         = FFFFFFE9
AP_NAME          00000004            IE.2DV         = FFFFFFD0            IE.NSF         = FFFFFFE6
AST_PARAM        00000004            IE.ABO         = FFFFFFF1            IE.NST         = FFFFFFB0
AST_PC           00000010            IE.ALC         = FFFFFFAC            IE.OFL         = FFFFFFBF
AST_PSL          00000014            IE.ALN         = FFFFFFDE            IE.ONP         = FFFFFFFB
AST_R0           00000008            IE.AST         = FFFFFFB0            IE.OVR         = FFFFFFEE
AST_R1           0000000C            IE.BAD         = FFFFFFFF            IE.PES         = FFFFFFAD
BIT...         = 00068084            IE.BBE         = FFFFFFC8            IE.PRI         = FFFFFFF0
C$$ORE         = 00000000            IE.BCC         = FFFFFFBE            IE.RAC         = FFFFFFD4
CR_RLB           00000042 R     05   IE.BDI         = FFFFFFCC            IE.RAT         = FFFFFFD3
CR_RVB           00000039 R     05   IE.BDR         = FFFFFFCE            IE.RBG         = FFFFFFD8
C_CANONPS      = 83C00000            IE.BDV         = FFFFFFC9            IE.RCN         = FFFFFFD2
C_RCVDSTR      = 44564352            IE.BHD         = FFFFFFC0            IE.RER         = FFFFFFE0
FCB_ATTRIBS      0000007C            IE.BLB         = FFFFFFBA            IE.RNM         = FFFFFFCD
FCB_FIB          0000004C            IE.BLK         = FFFFFFEC            IE.RSU         = FFFFFFEF
FCB_FID          00000000            IE.BNM         = FFFFFFCA            IE.SNC         = FFFFFFDD
FCB_FNAME        00000014            IE.BTF         = FFFFFFB4            IE.SPC         = FFFFFFFA
FCB_FNAMEDESC    0000000C            IE.BTP         = FFFFFFD5            IE.SQC         = FFFFFFDC
FCB_FNB          00000002            IE.BVR         = FFFFFFC1            IE.SRE         = FFFFFFF2
FCB_PC           00000078            IE.BYT         = FFFFFFED            IE.STK         = FFFFFFC6
FCB_RESULT       00000030            IE.CKS         = FFFFFFE2            IE.TMM         = FFFFFFB9
FCB_RESULTDESC   00000004            IE.CLO         = FFFFFFDA            IE.TMO         = FFFFFFB6
FCB_SIZE         000000B4            IE.CNR         = FFFFFFB7            IE.ULK         = FFFFFFAB
FP_AP            00000008            IE.CON         = FFFFFFEA            IE.VER         = FFFFFFFC
FP_FP            0000000C            IE.DAA         = FFFFFFF8            IE.WAC         = FFFFFFE3
FP_PC            00000010            IE.DAO         = FFFFFFF3            IE.WAT         = FFFFFFE1
FP_PSL           00000004            IE.DFU         = FFFFFFE8            IE.WCK         = FFFFFFAA
FP_REGISTERS     00000014            IE.DNA         = FFFFFFF9            IE.WER         = FFFFFFDF
GBL...         = 00000000            IE.DNR         = FFFFFFFD            IE.WLK         = FFFFFFF4
H.CSP            00000000            IE.DUN         = FFFFFFF7            IO$_READLBLK     ********   X   05
H.CUIC           00000008            IE.DUP         = FFFFFFC7            IO$_READPBLK     ********   X   05
H.DSW            00000026            IE.EOF         = FFFFFFF6            IO$_READVBLK     ********   X   05
H.DUIC           0000000A            IE.EOT         = FFFFFFC2            IO.ACE         = 00000F00
H.EFLM           00000004            IE.EOV         = FFFFFFF5            IO.ACR         = 00000D00
H.EFSV           00000020            IE.EXP         = FFFFFFB5            IO.ACW         = 00000E00
H.FCS            00000028            IE.FEX         = FFFFFFCF            IO.ADS         = 00001800
H.FORT           0000002A            IE.FHE         = FFFFFFC5            IO.APC         = 00001800
H.FPSA           00000022            IE.FLN         = FFFFFFAF            IO.APV         = 00001808
H.FPVA           0000001C            IE.FOP         = FFFFFFCB            IO.ATA         = 00000308
H.GARD           0000003A            IE.HFU         = FFFFFFE4            IO.ATT         = 00000300
H.HDLN           00000002            IE.IES         = FFFFFFAE            IO.CAS         = 00001B10
H.IPC            0000000E            IE.IFC         = FFFFFFFE            IO.CBO         = 00001B48
RSXCRDRV        - VAX/VMS RSX11M AME CARD READER DRIVER          22-AUG-1978 00:23:15   VAX-11 MACRO X0.3-11               Page   5
SYMBOL TABLE                                                                                                                     (3)

IO.CCI         = 00001800            IO.MAO         = 00000708            IO.UDI         = 00001308
IO.CCO         = 00000120            IO.MCS         = 00001700            IO.UEI         = 00001328
IO.CIN         = 00001D40            IO.MDA         = 00001C00            IO.UER         = 00001320
IO.CLK         = 00001A00            IO.MDI         = 00001900            IO.ULK         = 00000A00
IO.CLN         = 00000700            IO.MDO         = 00001B00            IO.UNL         = 00000022
IO.CNT         = 00001E00            IO.MLO         = 00000C00            IO.USI         = 00001330
IO.CON         = 00001B00            IO.MOD         = 00000600            IO.UTI         = 00001310
IO.CPR         = 00001B08            IO.MSO         = 00000A00            IO.UTY         = 00001318
IO.CPW         = 00001D50            IO.NLB         = 00001D58            IO.WAL         = 00000108
IO.CRC         = 00000220            IO.NLK         = 00001300            IO.WAT         = 00001700
IO.CRE         = 00001400            IO.ONL         = 00001F00            IO.WBT         = 00000140
IO.CRJ         = 00001B20            IO.R1C         = 00000500            IO.WDD         = 00000124
IO.CSI         = 00001600            IO.RAD         = 00001100            IO.WLB         = 00000100
IO.CSM         = 00001D38            IO.RAL         = 00000208            IO.WLC         = 00000110
IO.CTI         = 00001B00            IO.RAT         = 00001600            IO.WLS         = 00000108
IO.CTL         = 00001D00            IO.RBC         = 00000600            IO.WLT         = 00000108
IO.CTR         = 00001B88            IO.RCI         = 00001A00            IO.WLV         = 00000140
IO.CTY         = 00000700            IO.RCV         = 00001A00            IO.WMS         = 00000110
IO.DAC         = 00001000            IO.RDB         = 00000280            IO.WNS         = 00000110
IO.DCI         = 00001900            IO.RDD         = 00001008            IO.WPB         = 00000120
IO.DEL         = 00001500            IO.RDN         = 00000012            IO.WVB         = 00001200
IO.DET         = 00000400            IO.REL         = 00001700            IO.XMT         = 00001900
IO.DIS         = 00001C00            IO.RHD         = 00000208            IO.XNA         = 00001908
IO.DLB         = 00001D60            IO.RLB         = 00000200            IQ.Q           = 00000002
IO.DSI         = 00001700            IO.RLV         = 00000240            IQ.S           = 00000004
IO.DTI         = 00001C00            IO.RMT         = 00001010            IQ.UMD         = 00000004
IO.DTY         = 00000D00            IO.RNA         = 00000B00            IQ.X           = 00000001
IO.ENA         = 00000C00            IO.RNC         = 00000220            IS.BV          = 00000005
IO.EOF         = 00000600            IO.RNE         = 00000210            IS.CC          = 00000301
IO.EXT         = 00001300            IO.RNS         = 00000210            IS.CR          = 00000D01
IO.FDX         = 00000610            IO.RPB         = 00000220            IS.EOT         = 00000401
IO.FLN         = 00001500            IO.RPR         = 00000900            IS.ESC         = 00001B01
IO.FNA         = 00000900            IO.RST         = 00000201            IS.ESQ         = 00009B01
IO.GLC         = 00001D18            IO.RTC         = 00000700            IS.PES         = 00008001
IO.GLI         = 00001D10            IO.RTI         = 00001D00            IS.PND         = 00000000
IO.GNI         = 00001D08            IO.RTK         = 00000030            IS.RDD         = 00000002
IO.GRC         = 00001D28            IO.RTM         = 00000280            IS.SUC         = 00000001
IO.GRI         = 00001D20            IO.RVB         = 00001100            IS.TAB         = 00000901
IO.GRN         = 00001D30            IO.RWD         = 00000500            IS.TMO         = 00000002
IO.GTS         = 00000500            IO.RWU         = 00000560            I_ADR0           000000D8
IO.HDX         = 00000608            IO.SAO         = 00000800            I_ASCIINAME      0000011C
IO.HIS         = 00001A00            IO.SCS         = 00001600            I_ASTPOOL        000000A8
IO.HNG         = 00000600            IO.SDI         = 00001600            I_ASTQUEUE       000000A0
IO.INI         = 00001900            IO.SDO         = 00001500            I_BAILOUTFP      0000018C
IO.INL         = 00000500            IO.SEC         = 00000550            I_CMDAD          000000C4
IO.ITI         = 00001E00            IO.SET         = 00000018            I_CMDSZ          000000C0
IO.KIL         = 0000000A            IO.SLO         = 00000B00            I_CURAST         00000194
IO.LDI         = 00000E00            IO.SMO         = 00000570            I_FCBPOOL        000000B0
IO.LED         = 00001400            IO.SPB         = 00000510            I_FCC            000001B0
IO.LEI         = 00000F08            IO.SPF         = 00000520            I_FLOATA0        000001BC
IO.LKE         = 00001400            IO.SPW         = 00001D48            I_FLOATA1        000001C4
IO.LOD         = 00001800            IO.SSO         = 00000900            I_FLOATA2        000001CC
IO.LOV         = 00000208            IO.STA         = 00001B00            I_FLOATA3        000001D4
IO.LSI         = 00001200            IO.STC         = 00000540            I_FLOATA4        000001DC
IO.LTI         = 00000F00            IO.STP         = 00001D00            I_FLOATA5        000001E4
IO.LTK         = 00000028            IO.SYN         = 00000620            I_FLOATADR       000001AC
IO.LTY         = 00001000            IO.TRM         = 00000508            I_FLOATAST       000001A0
RSXCRDRV        - VAX/VMS RSX11M AME CARD READER DRIVER          22-AUG-1978 00:23:15   VAX-11 MACRO X0.3-11               Page   6
SYMBOL TABLE                                                                                                                     (3)

I_FLOATCSR       000001A4            PSL_CC         = 00000000            S_R6             00000018
I_FLOATERR       000001A8            PSL_CM         = 0000001F            S_TYPE           0000001C
I_FLOATTMP       000001B4            PSL_FPD        = 0000001B            W.BATT           00000006
I_GARD           000000C8            PSL_FU         = 00000006            W.BFPD           0000000C
I_HIGHEFN        00000148            PSL_TBIT       = 00000004            W.BHVR           00000004
I_HIGHSIZE       000000D0            QIOV_FILES     = 00000000            W.BLGH           00000010
I_IMAGEVBN       000000D4            QIO_FLAGS        0000001C            W.BLPD           0000000E
I_INISIZE        000000CC            QIO_FUNCTION     0000001A            W.BLVR           00000002
I_LENGTH         000001EC            QIO_IOSB         0000000E            W.BNPD           0000000D
I_LOGNAME        000000B8            QIO_LUT          00000016            W.BOFF           0000000A
I_LUT            00000144            QIO_SECONDBLK    0000001E            W.BPCB           00000000
I_NLUN           00000140            QIO_SIZE         00000022            W.BSIZ           00000008
I_PC             00000184            RSX$CR_DRV       00000000 RG    05
I_PROCNAME       00000128            RSX$C_SUBSYSTEM= 00000006
I_PS             00000188            RSX$DLVRQIOAST   ********   X   05
I_PWRAST         0000019C            RSX$IEIFC        ********   X   05
I_R0             00000164            RSX$IOKILL       ********   X   05
I_R1             00000168            RSX$ISSUQIO      ********   X   05
I_R2             0000016C            RSX$_ACCVIO    = 00068044
I_R3             00000170            RSX$_BADLIBREF = 0006806C
I_R4             00000174            RSX$_BADSTACK  = 0006804C
I_R5             00000178            RSX$_BREAK     = 0006800C
I_R6             0000017C            RSX$_EXITSTATUS= 00068180
I_RAD50NAME      00000124            RSX$_EXTERNABRT= 0006805C
I_RCVAST         00000198            RSX$_ILLINST   = 0006802C
I_RCVMAIL        0000013C            RSX$_INSFDYNMEM= 00068054
I_RUNFLAGS       00000190            RSX$_IOT       = 00068014
I_SCRATCH        00000000            RSX$_LIBNOTFND = 00068074
I_STATE          0000014C            RSX$_LOADERROR = 0006807C
I_TYPE           00000180            RSX$_NONRSXEMT = 0006801C
I_UIC            00000118            RSX$_NOSUCHDEV = 000680C2
I_WAIT           00000154            RSX$_NOTSKIMG  = 00068064
I_WAITSAVE       0000015C            RSX$_ODDADDR   = 00068034
LUTC_CR        = 00000005            RSX$_PMD       = 000680CA
LUTC_DISK      = 00000002            RSX$_RCVMBXSIZ = 0000012C
LUTC_LP        = 00000004            RSX$_RESERVED  = 00068004
LUTC_RMS       = 00000000            RSX$_TBIT      = 0006803C
LUTC_TAPE      = 00000003            RSX$_TRAP      = 00068024
LUTC_TRM       = 00000001            SV_ASTLVL        00000005
LUTV_CTRLC     = 00000002            SV_DCL           00000002
LUTV_CTRLO     = 00000000            SV_FLOATAST      0000000A
LUTV_PRM       = 00000003            SV_FRESTORE      00000003
LUTV_TI        = 00000001            SV_NOAST         00000004
LUT_CHAN         0000000C            SV_PENDWAIT      00000006
LUT_CHAR         00000014            SV_PWRAST        00000009
LUT_CTRLC        00000034            SV_RCVAST        00000008
LUT_FLAGS        0000000A            SV_RESTORE       00000000
LUT_INFONAME     00000030            SV_TRANSLATE     00000001
LUT_INFOUNIT     00000032            SV_WAIT          00000007
LUT_LINK         00000000            S_PC             00000020
LUT_REALNAME     00000020            S_PS             00000024
LUT_REF          00000008            S_R0             00000000
LUT_RSXNAME      00000010            S_R1             00000004
LUT_RSXUNIT      00000012            S_R2             00000008
LUT_SIZE         00000038            S_R3             0000000C
LUT_TYPE         00000018            S_R4             00000010
LUT_UNIT         00000020            S_R5             00000014
RSXCRDRV        - VAX/VMS RSX11M AME CARD READER DRIVER          22-AUG-1978 00:23:15   VAX-11 MACRO X0.3-11               Page   7
PROGRAM SECTION SYNOPSIS                                                                                                         (3)


PROGRAM SECTION SYNOPSIS

.  ABS  .        00000000      00     NOPIC   USR   CON   ABS   LCL NOSHR NOEXE NORD  NOWRT BYTE
. BLANK .        00000000      01     NOPIC   USR   CON   REL   LCL NOSHR   EXE   RD    WRT BYTE
..ABS.           00000042      02     NOPIC   USR   CON   ABS   LCL NOSHR   EXE   RD    WRT BYTE
$ABS$            00000000      03     NOPIC   USR   CON   ABS   LCL NOSHR   EXE   RD    WRT BYTE
RSXDEF           000001F0      04     NOPIC   USR   CON   ABS   LCL NOSHR   EXE   RD    WRT BYTE
RSXCODE          00000058      05     NOPIC   USR   CON   REL   LCL NOSHR   EXE   RD  NOWRT BYTE


THERE WERE NO ERRORS OR WARNINGS.
12448. BYTES LEFT IN FREE MEMORY POOL.
3060. BYTES OF RECLAIMED MEMORY.
OBJ$:RSXCRDRV,LIS$:RSXCRDRV/-SP=SRC$:C,RSXCRDRV
17 MLB DIR RDS - 595 GETS TO DEFINE 17 MACROS. 16 INTER. FILE WRITES.
