RSXFILEIO       - RSX DUMMY MODULE FOR STAND-ALONE AME           22-AUG-1978 00:29:26   VAX-11 MACRO X0.3-11               Page   0
TABLE OF CONTENTS

   (1)     127  RSX$FILEIO	TRAP FILES I/O REQUESTS IN STAND-ALO
   (1)     161  RSX$RMS_DRV	TRAP RMS REQUESTS IN STAND-ALONE SY
RSXFILEIO       - RSX DUMMY MODULE FOR STAND-ALONE AME           22-AUG-1978 00:29:26   VAX-11 MACRO X0.3-11               Page   1
00                                                                                                                               (1)

                                     0000     1 	.TITLE	RSXFILEIO - RSX DUMMY MODULE FOR STAND-ALONE AME
                                     0000     2 	.IDENT	/00/
                                     0000     3 ;
                                     0000     4 ; COPYRIGHT (C) 1978
                                     0000     5 ; DIGITAL EQUIPMENT CORPORATION, MAYNARD, MASS.
                                     0000     6 ;
                                     0000     7 ; THIS SOFTWARE IS FURNISHED UNDER  A LICENSE FOR USE ONLY  ON  A
                                     0000     8 ; SINGLE COMPUTER SYSTEM AND MAY BE  COPIED ONLY WITH  THE INCLU-
                                     0000     9 ; SION OF  THE  ABOVE  COPYRIGHT NOTICE.  THIS SOFTWARE,  OR  ANY
                                     0000    10 ; OTHER COPIES THEREOF, MAY NOT BE  PROVIDED  OR  OTHERWISE  MADE
                                     0000    11 ; AVAILABLE TO ANY OTHER PERSON EXCEPT  FOR  USE  ON  SUCH SYSTEM
                                     0000    12 ; AND TO  ONE WHO AGREES  TO  THESE LICENSE  TERMS.  TITLE TO AND
                                     0000    13 ; OWNERSHIP OF THE SOFTWARE SHALL AT ALL TIMES REMAIN IN DEC.
                                     0000    14 ;
                                     0000    15 ; THE INFORMATION IN THIS SOFTWARE  IS  SUBJECT TO CHANGE WITHOUT
                                     0000    16 ; NOTICE AND SHOULD NOT BE CONSTRUED  AS  A COMMITMENT BY DIGITAL
                                     0000    17 ; EQUIPMENT CORPORATION.
                                     0000    18 ;
                                     0000    19 ; DEC ASSUMES NO RESPONSIBILITY FOR THE USE OR RELIABILITY OF ITS
                                     0000    20 ; SOFTWARE ON EQUIPMENT WHICH IS NOT SUPPLIED BY DEC.
                                     0000    21 ;
                                     0000    22 ;++
                                     0000    23 ;
                                     0000    24 ; FACILITY:
                                     0000    25 ;
                                     0000    26 ;	STAND-ALONE RSX-11M COMPATIBILITY MODE EMULATOR
                                     0000    27 ;
                                     0000    28 ; ABSTRACT:
                                     0000    29 ;
                                     0000    30 ;	THIS ROUTINE IS PROVIDED TO TRAP ALL FILE SYSTEM REFERENCES
                                     0000    31 ;	ISSUED WHILE RUNNING IN A STAND-ALONE ENVIRONMENT.
                                     0000    32 ;
                                     0000    33 ;--
                                     0000    34 ;
                                     0000    35 ; AUTHOR: C. MONIA 29-JAN-78
                                     0000    36 ;
RSXFILEIO       - RSX DUMMY MODULE FOR STAND-ALONE AME           22-AUG-1978 00:29:26   VAX-11 MACRO X0.3-11               Page   2
00              RSX$FILEIO TRAP FILES I/O REQUESTS IN STAND-ALO                                                                  (1)

                                     0000    38 	.SBTTL	RSX$FILEIO	TRAP FILES I/O REQUESTS IN STAND-ALONE SYSTEM
                                     0000    39
                                     0000    40 ;++
                                     0000    41 ; RSX$FILEIO - TRAP ALL FILE I/O ROUTINES FOR STAND-ALONE SYSTEM
                                     0000    42 ;
                                     0000    43 ; THIS ROUTINE IS ENTERED WHENEVER AN ATTEMPT IS MADE TO ISSUE A FILES
                                     0000    44 ; RELATED QIO FUNCTION IN THE STAND-ALONE SYSTEM. ALL SUCH REQUESTS ARE
                                     0000    45 ; TERMINATED WITH THE STATUS 'SS$_ILLFUNC'.
                                     0000    46 ;
                                     0000    47 ; INPUTS:
                                     0000    48 ;
                                     0000    49 ;	R2 = ADDRESS OF THE QIO AST CONTEXT BLOCK
                                     0000    50 ;	R3 = MAJOR FUNCTION CODE
                                     0000    51 ;	R5 = ADDRESS OF THE OPERATION DPB
                                     0000    52 ;	R6 = IMAGE STACK
                                     0000    53 ;	R10 = ADDRESS OF THE IMAGE DATA BASE
                                     0000    54 ;	R11 = ADDRESS OF THE IMAGE
                                     0000    55 ;
                                     0000    56 ; OUTPUTS:
                                     0000    57 ;
                                     0000    58 ;	THIS ROUTINE ALWAYS PASSES CONTROL TO "RSX$DLVRQIOAST" WITH
                                     0000    59 ;	A STATUS OF "SS$_ILLFUNC"
                                     0000    60 ;
                                     0000    61 ;	R0 = STATUS OF THE OPERATION
                                     0000    62 ;
                                     0000    63 ;	R2,R10,R11 ARE PRESERVED
                                     0000    64 ;
                                     0000    65 ;--
                                     0000    66
                                 00000000    67 	.PSECT	RSXCODE	NOWRT
                                     0000    68
                                     0000    69 RSX$FILEIO::				;
                          FFFD'  31  0000    70 	BRW	RSX$IEIFC		; ALL FILE I/O IS ILLEGAL
RSXFILEIO       - RSX DUMMY MODULE FOR STAND-ALONE AME           22-AUG-1978 00:29:26   VAX-11 MACRO X0.3-11               Page   3
00              RSX$RMS_DRV TRAP RMS REQUESTS IN STAND-ALONE SY                                                                  (1)

                                     0003    72 	.SBTTL	RSX$RMS_DRV	TRAP RMS REQUESTS IN STAND-ALONE SYSTEM
                                     0003    73 ;++
                                     0003    74 ; RSX$RMS_DRV - TRAP ALL RMS REQUESTS IN STAND-ALONE SYSTEM
                                     0003    75 ;
                                     0003    76 ; THIS ROUTINE TRAPS ALL RMS REQUESTS IN THE STAND-ALONE SYSTEM. ALL
                                     0003    77 ; SUCH REQUESTS ARE TRANSFERRED TO ROUTINE RSX$UKN_DRV FOR DISPATCH-
                                     0003    78 ; ING.
                                     0003    79 ;
                                     0003    80 ; INPUTS:
                                     0003    81 ;
                                     0003    82 ;	R2 = ADDRESS OF QIO CONTEXT BLOCK
                                     0003    83 ;	R3 = MAJOR FUNCTION CODE
                                     0003    84 ;	R5 = ADDRESS OF THE DPB AREA
                                     0003    85 ;	R6 = ADDRESS OF THE IMAGE STACK
                                     0003    86 ;	R7 = ENTIRE FUNCTION CODE
                                     0003    87 ;	R8 = ADDRESS OF LUT
                                     0003    88 ;	R10 = ADDRESS OF THE IMAGE IMPURE SECTION
                                     0003    89 ;	R11 = ADDRESS OF THE IMAGE
                                     0003    90 ;
                                     0003    91 ; OUTPUTS:
                                     0003    92 ;
                                     0003    93 ;	NONE
                                     0003    94 ;
                                     0003    95 ;--
                                     0003    96
                                     0003    97 RSX$RMS_DRV::				;
                          FFFA'  31  0003    98 	BRW	RSX$UKN_DRV		; TREAT AS UNKNOWN DEVICE
                                     0006    99
                                     0006   100 	.END
RSXFILEIO       - RSX DUMMY MODULE FOR STAND-ALONE AME           22-AUG-1978 00:29:26   VAX-11 MACRO X0.3-11               Page   4
SYMBOL TABLE                                                                                                                     (1)

C$$ORE         = 00000000
RSX$FILEIO       00000000 RG    02
RSX$IEIFC        ********   X   02
RSX$RMS_DRV      00000003 RG    02
RSX$UKN_DRV      ********   X   02


PROGRAM SECTION SYNOPSIS

.  ABS  .        00000000      00     NOPIC   USR   CON   ABS   LCL NOSHR NOEXE NORD  NOWRT BYTE
. BLANK .        00000000      01     NOPIC   USR   CON   REL   LCL NOSHR   EXE   RD    WRT BYTE
RSXCODE          00000006      02     NOPIC   USR   CON   REL   LCL NOSHR   EXE   RD  NOWRT BYTE


THERE WERE NO ERRORS OR WARNINGS.
28140. BYTES LEFT IN FREE MEMORY POOL.
OBJ$:RSXFILEIO,LIS$:RSXFILEIO/-SP=SRC$:C,RSXFILEIO
0 MLB DIR RDS - 0 GETS TO DEFINE 0 MACROS. 1 INTER. FILE WRITES.
