RSXIO           - RSX11M GMCR$,RCVD$,RCVX$,SDAT$ DIRECTIVES      22-AUG-1978 00:30:02   VAX-11 MACRO X0.3-11               Page   0
TABLE OF CONTENTS

   (2)     136  RSX$GMCR - RSX11M GMCR$ DIRECTIVE
   (3)     187  RSX$RCVD/RSX$RCVX - RSX11M RCVD$ AND RCVX$ DIRE
   (4)     264  RSX$SDAT - RSX11M SDAT$ DIRECTIVE
RSXIO           - RSX11M GMCR$,RCVD$,RCVX$,SDAT$ DIRECTIVES      22-AUG-1978 00:30:02   VAX-11 MACRO X0.3-11               Page   1
00                                                                                                                               (1)

                                     0000     1 	.TITLE	RSXIO - RSX11M GMCR$,RCVD$,RCVX$,SDAT$ DIRECTIVES
                                     0000     2 	.IDENT	/00/		;
                                     0000     3
                                     0000     4 ;
                                     0000     5 ; COPYRIGHT (C) 1977
                                     0000     6 ; DIGITAL EQUIPMENT CORPORATION, MAYNARD, MASSACHUSETTS 01754
                                     0000     7 ;
                                     0000     8 ; THIS SOFTWARE IS FURNISHED  UNDER A LICENSE FOR USE ONLY ON A SINGLE
                                     0000     9 ; COMPUTER  SYSTEM AND  MAY BE  COPIED ONLY WITH  THE INCLUSION OF THE
                                     0000    10 ; ABOVE COPYRIGHT NOTICE.  THIS SOFTWARE, OR ANY OTHER COPIES THEREOF,
                                     0000    11 ; MAY NOT BE PROVIDED OR  OTHERWISE MADE AVAILABLE TO ANY OTHER PERSON
                                     0000    12 ; EXCEPT FOR USE ON SUCH SYSTEM AND TO ONE WHO AGREES TO THESE LICENSE
                                     0000    13 ; TERMS.  TITLE TO AND  OWNERSHIP OF THE  SOFTWARE  SHALL AT ALL TIMES
                                     0000    14 ; REMAIN IN DEC.
                                     0000    15 ;
                                     0000    16 ; THE INFORMATION IN THIS SOFTWARE IS SUBJECT TO CHANGE WITHOUT NOTICE
                                     0000    17 ; AND SHOULD  NOT BE CONSTRUED  AS A COMMITMENT  BY DIGITAL  EQUIPMENT
                                     0000    18 ; CORPORATION.
                                     0000    19 ;
                                     0000    20 ; DEC ASSUMES  NO  RESPONSIBILITY  FOR  THE USE OR  RELIABILITY OF ITS
                                     0000    21 ; SOFTWARE ON EQUIPMENT WHICH IS NOT SUPPLIED BY DEC.
                                     0000    22
                                     0000    23 ;++
                                     0000    24 ; FACILITY:
                                     0000    25 ;
                                     0000    26 ;	STARLET RSX AME.
                                     0000    27 ;
                                     0000    28 ; ABSTRACT:
                                     0000    29 ;
                                     0000    30 ;	RSX11M MISC. I/O DIRECTIVES
                                     0000    31 ;
                                     0000    32 ; AUTHOR:
                                     0000    33 ;
                                     0000    34 ;	R.HEINEN 4-NOV-76
                                     0000    35 ;--
                                     0000    36 ;
                                     0000    37 ; EXTERNAL SYMBOLS
                                     0000    38 ;
                                     0000    39 	DRERR$			; DEFINE DIRECTIVE ERROR CODES
                                     0000    40 	$RSXDEF			; DEFINE RSX SYMBOLS
                                     0000    41 	$DEVDEF			; DEFINE DEVICE CHARACTERISTICS BITS
                                     0000    42 	$JPIDEF			; DEFINE SYMBOLS FOR GETJPI SYSTEM SERVICE
                                     0000    43 	$SMRDEF			; DEFINE SYMBIONT SYMBOLS
                                     0000    44
                                 00000000    45 	.PSECT	RSXCODE,NOWRT
RSXIO           - RSX11M GMCR$,RCVD$,RCVX$,SDAT$ DIRECTIVES      22-AUG-1978 00:30:02   VAX-11 MACRO X0.3-11               Page   2
00              RSX$GMCR - RSX11M GMCR$ DIRECTIVE                                                                                (2)

                                     0000    47 	.SBTTL	RSX$GMCR - RSX11M GMCR$ DIRECTIVE
                                     0000    48 ;++
                                     0000    49 ; RSX$GMCR - RSX11M GET MCR LINE DIRECTIVE
                                     0000    50 ;
                                     0000    51 ; FUNCTIONAL DESCRIPTION:
                                     0000    52 ;
                                     0000    53 ; THIS IS A RSX DIRECTIVE HANDLER WHICH IMPLEMENTS AN RSX11M
                                     0000    54 ; "GMCR$" DIRECTIVE.
                                     0000    55 ;
                                     0000    56 ; INPUT PARAMETERS:
                                     0000    57 ;
                                     0000    58 ;	R5 = ADDRESS OF DPB+2
                                     0000    59 ;	R6 = CM IMAGE STACK ADDRESS
                                     0000    60 ;	R10 = ADDRESS OF CM IMAGE DATA BASE
                                     0000    61 ;	R11 = ADDRESS OF IMAGE HEADER
                                     0000    62 ;
                                     0000    63 ; OUTPUT PARAMETERS:
                                     0000    64 ;
                                     0000    65 ;	R10,R11 ARE PRESERVED
                                     0000    66 ;
                                     0000    67 ; IMPLICIT OUTPUTS:
                                     0000    68 ;
                                     0000    69 ;	THE PROPER DIRECTIVE STATUS IS PLACED IN THE IMAGE DSW
                                     0000    70 ;	ALONG WITH THE PROPER SETTING OF THE C-BIT.
                                     0000    71 ;
                                     0000    72 ; DSW RETURN CODES:
                                     0000    73 ;
                                     0000    74 ;	IS.SUC	SUCCESSFUL
                                     0000    75 ;	IE.AST	NO DATA AVAILABLE
                                     0000    76 ;--
                                     0000    77 RSX$GMCR::				; GET MCR LINE DIRECTIVE
            57       00C0 CA     3C  0000    78 	MOVZWL	I_CMDSZ(R10),R7		; GET THE SIZE OF THE COMMAND
            57       0050 8F     B1  0005    79 	CMPW	#80,R7			; 80 OR GREATER?
                          04     1E  000A    80 	BGEQU	5$			; IF GEQU THEN OK
            57         50 8F     9A  000C    81 	MOVZBL	#80,R7			; SET MAX SIZE
         26 AB            57     B0  0010    82 5$:	MOVW	R7,H.DSW(R11)		; INSERT COMMAND SIZE
                          15     13  0014    83 	BEQL	10$			; IF EQL THEN ERROR
                                     0016    84 ;
                                     0016    85 ; MOVE THE COMMAND TO THE USER BUFFER - BUFFER HAS BEEN VALIDATED
                                     0016    86 ;
       00C4 DA            57     28  0016    87 	MOVC3	R7,@I_CMDAD(R10),(R5)	; MOVE COMMAND TEXT
                          65         001B
                     00C0 CA     D4  001C    88 	CLRL	I_CMDSZ(R10)		; SET NO NEXT COMMAND
            57       0050 8F     B1  0020    89 	CMPW	#80,R7			; EXACTLY 80?
                          03     13  0025    90 	BEQL	7$			; IF EQL THEN YES
            63            0D     90  0027    91 	MOVB	#^X0D,(R3)		; INSERT CR AS TERMINATOR
                                 05  002A    92 7$:	RSB				; RETURN
                                     002B    93 ;
                                     002B    94 ; NO COMMAND LINE
                                     002B    95 ;
                                     002B    96 10$:	$DSW	#IE.AST			;
RSXIO           - RSX11M GMCR$,RCVD$,RCVX$,SDAT$ DIRECTIVES      22-AUG-1978 00:30:02   VAX-11 MACRO X0.3-11               Page   3
00              RSX$RCVD/RSX$RCVX - RSX11M RCVD$ AND RCVX$ DIRE                                                                  (3)

                                     0036    98 	.SBTTL	RSX$RCVD/RSX$RCVX - RSX11M RCVD$ AND RCVX$ DIRECTIVES
                                     0036    99
                                     0036   100 	.ENABL	LSB
                                     0036   101 ;++
                                     0036   102 ; RSX$RCVD - RSX11M RECEIVE DATA DIRECTIVE
                                     0036   103 ; RSX$RCVX - RSX11M RECEIVE DATA OR EXIT DIRECTIVE
                                     0036   104 ;
                                     0036   105 ; FUNCTIONAL DESCRIPTION:
                                     0036   106 ;
                                     0036   107 ; THIS IS A RSX DIRECTIVE HANDLER WHICH IMPLEMENTS THE RSX11M
                                     0036   108 ; "RCVD$" AND "RCVX$" DIRECTIVES.
                                     0036   109 ;
                                     0036   110 ; INPUT PARAMETERS:
                                     0036   111 ;
                                     0036   112 ;	R5 = ADDRESS OF DPB+2
                                     0036   113 ;	R6 = CM IMAGE STACK ADDRESS
                                     0036   114 ;	R10 = ADDRESS OF CM IMAGE DATA BASE
                                     0036   115 ;	R11 = ADDRESS OF IMAGE HEADER
                                     0036   116 ;
                                     0036   117 ; OUTPUT PARAMETERS:
                                     0036   118 ;
                                     0036   119 ;	R10,R11 ARE PRESERVED
                                     0036   120 ;
                                     0036   121 ; IMPLICIT OUTPUTS:
                                     0036   122 ;
                                     0036   123 ;	THE PROPER DIRECTIVE STATUS IS PLACED IN THE IMAGE DSW
                                     0036   124 ;	ALONG WITH THE PROPER SETTING OF THE C-BIT.
                                     0036   125 ;
                                     0036   126 ; DSW RETURN CODES:
                                     0036   127 ;
                                     0036   128 ;	IS.SUC	SUCCESSFUL
                                     0036   129 ;	IE.ADP	BUFFER ACCESS VIOLATION
                                     0036   130 ;	IE.ITS	NO DATA ( ANY QIO ERROR )
                                     0036   131 ;--
                                     0036   132 RSX$RCVX::				; RECEIVE OR EXIT
            57            01     9A  0036   133 	MOVZBL	#1,R7			; SET EXIT FLAG
                          02     11  0039   134 	BRB	10$			; AND CONTINUE IN COMMON
                                     003B   135 RSX$RCVD::				; RECEIVE DATA DIRECTIVE
                          57     D4  003B   136 	CLRL	R7			; SET FLAG FOR NO EXIT
                                     003D   137 10$:					; COMMON ENTRY POINT TO RECEIVES
            54         04 A5     3C  003D   138 	MOVZWL	4(R5),R4		; ADDRESS BUFFER SPECIFIED
            52       013C CA     D0  0041   139 	MOVL	I_RCVMAIL(R10),R2	; GET MAILBOX CHANNEL
                          29     13  0046   140 	BEQL	20$			; IF EQL THEN NO BOX AND NO DATA
                                     0048   141 ;
                                     0048   142 ; READ THE MAILBOX
                                     0048   143 ;
                                     0048   144 	$QIOW_S	#7,I_RCVMAIL(R10),#IO$_READVBLK!IO$M_NOW,I_SCRATCH(R10)-
                                     0048   145 	,,,4(R4),#26
            06            50     E9  0068   146 	BLBC	R0,20$			; BR IF NOT SUCCESS
            50            6A     3C  006B   147 	MOVZWL	I_SCRATCH(R10),R0	; SET ERROR CODE IF ANY
            0C            50     E8  006E   148 	BLBS	R0,25$			; IF LOW SET THEN SUCCESS
            48            57     E9  0071   149 20$:	BLBC	R7,35$			; IF CLEAR THEN NO EXIT
                                     0074   150 	$EXIT_S				; EXIT IMAGE
                                     007D   151 ;
                                     007D   152 ; RETURN MESSAGE TO IMAGE
                                     007D   153 ;
                                     007D   154 ; CONVERT NAME OF SENDER TO RAD50
RSXIO           - RSX11M GMCR$,RCVD$,RCVX$,SDAT$ DIRECTIVES      22-AUG-1978 00:30:02   VAX-11 MACRO X0.3-11               Page   4
00              RSX$RCVD/RSX$RCVX - RSX11M RCVD$ AND RCVX$ DIRE                                                                  (3)

         0C AA         1C AA     9E  007D   155 25$:	MOVAB	I_SCRATCH+28(R10),I_SCRATCH+12(R10); SET UP DESC. FOR NAME SERVICE
         10 AA            6A     9E  0082   156 	MOVAB	I_SCRATCH(R10),I_SCRATCH+16(R10);
         08 AA   031C0010 8F     D0  0086   157 	MOVL	#16+<JPI$_PRCNAM@16>,I_SCRATCH+8(R10)
                       18 AA     D4  008E   158 	CLRL	I_SCRATCH+24(R10)
                          64     D4  0091   159 	CLRL	(R4)			; ASSUME NO NAME
                                     0093   160 	$GETJPI_S	,I_SCRATCH+4(R10),,I_SCRATCH+8(R10)
            10            50     E9  00A8   161 	BLBC	R0,30$			; IF LOW CLEAR THEN ERROR
            50            6A     9A  00AB   162 	MOVZBL	I_SCRATCH(R10),R0	; GET STRING SIZE
            51         1C AA     9E  00AE   163 	MOVAB	I_SCRATCH+28(R10),R1	; ADDRESS STRING
                          6140   94  00B2   164 	CLRB	(R1)[R0]		; MAKE IT ASCIZ
            50            01     9A  00B5   165 	MOVZBL	#1,R0			; SET DOT LEGAL
                          FF45'  30  00B8   166 	BSBW	RSX$ASCR502		; CONVERT NAME
                                 05  00BB   167 30$:	RSB				; RETURN
                                     00BC   168 ;
                                     00BC   169 ; NO DATA OR OTHER ERROR
                                     00BC   170 ;
                                     00BC   171 35$:	$DSW	#IE.ITS			; SET STATUS AND EXIT
                                     00C7   172
                                     00C7   173 	.DSABL	LSB
RSXIO           - RSX11M GMCR$,RCVD$,RCVX$,SDAT$ DIRECTIVES      22-AUG-1978 00:30:02   VAX-11 MACRO X0.3-11               Page   5
00              RSX$SDAT - RSX11M SDAT$ DIRECTIVE                                                                                (4)

                                     00C7   175 	.SBTTL	RSX$SDAT - RSX11M SDAT$ DIRECTIVE
                                     00C7   176 ;++
                                     00C7   177 ; RSX$SDAT - RSX11M SEND DATA DIRECTIVE
                                     00C7   178 ;
                                     00C7   179 ; FUNCTIONAL DESCRIPTION:
                                     00C7   180 ;
                                     00C7   181 ; THIS IS A RSX DIRECTIVE HANDLER WHICH IMPLEMENTS AN RSX11M
                                     00C7   182 ; "SDAT$" DIRECTIVE.
                                     00C7   183 ;
                                     00C7   184 ; INPUT PARAMETERS:
                                     00C7   185 ;
                                     00C7   186 ;	R5 = ADDRESS OF DPB+2
                                     00C7   187 ;	R6 = CM IMAGE STACK ADDRESS
                                     00C7   188 ;	R10 = ADDRESS OF CM IMAGE DATA BASE
                                     00C7   189 ;	R11 = ADDRESS OF IMAGE HEADER
                                     00C7   190 ;
                                     00C7   191 ; OUTPUT PARAMETERS:
                                     00C7   192 ;
                                     00C7   193 ;	R10,R11 ARE PRESERVED
                                     00C7   194 ;
                                     00C7   195 ; IMPLICIT OUTPUTS:
                                     00C7   196 ;
                                     00C7   197 ;	THE PROPER DIRECTIVE STATUS IS PLACED IN THE IMAGE DSW
                                     00C7   198 ;	ALONG WITH THE PROPER SETTING OF THE C-BIT.
                                     00C7   199 ;
                                     00C7   200 ; DSW RETURN CODES:
                                     00C7   201 ;
                                     00C7   202 ;	IS.SUC	SUCCESSFUL
                                     00C7   203 ;	IE.INS	RECEIVER IS UNKNOWN
                                     00C7   204 ;	IE.IEF	ILLEGAL EVENT FLAG
                                     00C7   205 ;	IE.ADP	BUFFER ACCESS VIOLATION
                                     00C7   206 ;--
                                     00C7   207 NOBOX:					; NO MAILBOX ERROR
                                     00C7   208 	$DSW	#IE.INS			;
                                     00D2   209 RSX$SDAT::				; SEND DATA DIRECTIVE
                                     00D2   210
                                     00D2   211 	.IF NDF	C$$ORE
                                     00D2   212
                                     00D2   213 	CMPL	(R5),#^XB37C66E4	; SEND TO "PRT..."?
                                     00D2   214 	BNEQ	1$
                                     00D2   215 	BRW	200$
                                     00D2   216
                                     00D2   217 	.ENDC
                                     00D2   218
                          FF2B'  30  00D2   219 1$:	BSBW	RSX$CVTNAME		; CONVERT TARGET NAME TO ASCII
         08 AA   44564352 8F     D0  00D5   220 	MOVL	#C_RCVDSTR,I_SCRATCH+8(R10); INSERT PREFIX
            6A            04     C0  00DD   221 	ADDL	#4,I_SCRATCH(R10)	; ADJUST SIZE
         04 AA            04     C2  00E0   222 	SUBL	#4,I_SCRATCH+4(R10)	; ADJUST POINTER
            54         04 A5     3C  00E4   223 	MOVZWL	4(R5),R4		; GET ADDRESS OF MESSAGE
            55         06 A5     9E  00E8   224 	MOVAB	6(R5),R5		; SET THE EVENT FLAG
                                     00EC   225 	$ASSIGN_S	I_SCRATCH(R10),I_SCRATCH+20(R10); ASSIGN TO MAILBOX
            CA            50     E9  00FA   226 	BLBC	R0,NOBOX		; IF NO MAILBOX THEN NO SEND
                          65     B5  00FD   227 	TSTW	(R5)			; ANY SPECIFIED?
                          08     13  00FF   228 	BEQL	5$			; IF EQL THEN NO
                          FEFC'  30  0101   229 	BSBW	RSX$SETF		; USE SET EVENT FLAG DIRECTIVE
                       26 AB     95  0104   230 	TSTB	H.DSW(R11)		; OK?
                          40     19  0107   231 	BLSS	25$			; IF LSS THEN ERROR ON SET EFN
RSXIO           - RSX11M GMCR$,RCVD$,RCVX$,SDAT$ DIRECTIVES      22-AUG-1978 00:30:02   VAX-11 MACRO X0.3-11               Page   6
00              RSX$SDAT - RSX11M SDAT$ DIRECTIVE                                                                                (4)

                                     0109   232 5$:	$QIOW_S	#10,I_SCRATCH+20(R10),#IO$_WRITEVBLK!IO$M_NOW,I_SCRATCH(R10),,,-
                                     0109   233 		(R4),#26		; SEND MESSAGE
            54            50     D0  0127   234 	MOVL	R0,R4			; SAVE STATUS
            03            50     E9  012A   235 	BLBC	R0,13$			; IF LOW CLEAR THE QIO ERROR
            54            6A     D0  012D   236 	MOVL	I_SCRATCH(R10),R4	; SET UP IOSB STATUS
                                     0130   237 13$:	$DASSGN_S	I_SCRATCH+20(R10); DEASSIGN CHANNEL
            0B            54     E8  013B   238 	BLBS	R4,25$			; IF LOW SET THEN SUCCESS
                                     013E   239 	$DSW	#IE.ITS			; RETURN THE ERROR
                                 05  0149   240 25$:	RSB
                                     014A   241 ;
                                     014A   242 ; SPECIAL CASE SEND TO PRT...
                                     014A   243 ;
                                     014A   244
                                     014A   245 	.IF NDF	C$$ORE
                                     014A   246
                                     014A   247 100$:	$DSW	#IE.ADP			;
                                     014A   248 200$:	MOVZWL	4(R5),R5		; ADDRESS BUFFER
                                     014A   249 	IFNORD	#26,(R5),100$		; IF NO ACCESS THEN ERROR
                                     014A   250 	MOVZWL	10(R5),R0		; GET DEVICE NAME
                                     014A   251 	MOVZWL	12(R5),R1		; GET DEVICE UNIT
                                     014A   252 	PUSHR	#^M<R5,R6>		;
                                     014A   253 	MOVQ	#1,I_SCRATCH(R10)	; SET NO STRING SEARCH
                                     014A   254 	BSBW	RSX$SEARCHDEV		; FIND THE DEVICE
                                     014A   255 	BEQL	210$
                                     014A   256 	BRW	300$
                                     014A   257 210$:	MOVAB	W^RSX$T_SYSPRINT,R0	; ADDRESS SYSPRINT STRING
                                     014A   258 	MOVZBL	(R0)+,I_SCRATCH(R10)	; TRANSLATE THE STRING
                                     014A   259 	MOVL	R0,I_SCRATCH+4(R10)	;
                                     014A   260 	BSBW	RSX$TRNLOGNAME		;
                                     014A   261 	MOVZBL	I_SCRATCH(R10),R0	; GET STRING SIZE
                                     014A   262 	MOVB	R0,I_SCRATCH+2(R10)	; INSERT IT
                                     014A   263 	MOVC5	R0,@I_SCRATCH+4(R10),#0,#15,I_SCRATCH+3(R10); MOVE Q NAME
                                     014A   264 	MOVZWL	LUT_INFONAME(R6),R0	; GET DEVICE NAME
                                     014A   265 	MOVZBL	LUT_INFOUNIT(R6),R1	; AND UNIT
                                     014A   266 	MOVAB	(R3)+,R7		; COPY STARTING ADDRESS AND SKIP
                                     014A   267 	BSBW	RSX$BLDPHYDEV		; BUILD DEVICE NAME
                                     014A   268 	SUBL	R7,R3			; GET SIZE
                                     014A   269 	SUBB3	#1,R3,(R7)		; ADJUST AND STORE
                                     014A   270 	MOVL	(SP),R5			; GET BUFFER ADDRESS
                                     014A   271 	MOVL	14(R5),I_SCRATCH+34(R10); INSERT FID
                                     014A   272 	MOVW	18(R5),I_SCRATCH+38(R10);
                                     014A   273 	MOVL	20(R5),I_SCRATCH+40(R10); INSERT DID
                                     014A   274 	MOVW	24(R5),I_SCRATCH+44(R10);
                                     014A   275 	MOVAB	I_SCRATCH+47(R10),R7	; CONVERT NAME
                                     014A   276 	PUSHL	R7
                                     014A   277 	MOVAB	-6(R5),R4		; ADDRESS RAD50 SOURCE AS FNB
                                     014A   278 	BSBW	RSX$BLDFNAME		; BUILD FILE NAME
                                     014A   279 	CLRQ	(R7)
                                     014A   280 	CLRQ	8(R7)
                                     014A   281 	SUBL	(SP)+,R7		; GET SIZE OF FILE NAME STRING
                                     014A   282 	MOVB	R7,I_SCRATCH+46(R10)	; INSERT IT IN MESSAGE
                                     014A   283 	MOVW	#SMR$K_ENTER,I_SCRATCH(R10);
                                     014A   284 	MOVAB	I_SCRATCH(R10),I_SCRATCH+74(R10)
                                     014A   285 	MOVZBL	#66,I_SCRATCH+70(R10)	;
                                     014A   286 	CLRL	-(SP)			; NO MAILBOX
                                     014A   287 	PUSHAB	I_SCRATCH+70(R10)		;
                                     014A   288 	CALLS	#2,@#SYS$SNDSMB		; SEND MESSAGE TO SYMBIONT
RSXIO           - RSX11M GMCR$,RCVD$,RCVX$,SDAT$ DIRECTIVES      22-AUG-1978 00:30:02   VAX-11 MACRO X0.3-11               Page   7
00              RSX$SDAT - RSX11M SDAT$ DIRECTIVE                                                                                (4)

                                     014A   289 	BLBS	R0,300$			; IF LOW SET THEN SUCCESS
                                     014A   290 	POPR	#^M<R5,R6>		;
                                     014A   291 	$DSW	#IE.ITS			;
                                     014A   292 ;
                                     014A   293 300$:	POPR	#^M<R5,R6>
                                     014A   294 	RSB
                                     014A   295
                                     014A   296 	.ENDC
                                     014A   297
                                     014A   298 	.END
RSXIO           - RSX11M GMCR$,RCVD$,RCVX$,SDAT$ DIRECTIVES      22-AUG-1978 00:30:02   VAX-11 MACRO X0.3-11               Page   8
SYMBOL TABLE                                                                                                                     (4)

$$MSG          = 00000000            DEV$V_ELG      = 00000016            H.PFVA           0000001A
$$T1           = 00000001            DEV$V_FOD      = 0000000E            H.RCVA           0000001E
...GBL         = 00000000            DEV$V_FOR      = 00000018            H.RRVA           00000032
ACBC_CTLRCAST  = 00000002            DEV$V_GEN      = 00000011            H.SPRI           00000030
ACBC_FLOATAST  = 00000003            DEV$V_IDV      = 0000001A            H.TKVA           00000016
ACBC_PWRAST    = 00000000            DEV$V_MBX      = 00000014            H.TKVL           00000018
ACBC_RCVAST    = 00000001            DEV$V_MNT      = 00000013            H.VEXT           0000002E
ACBV_INPROG    = 00000001            DEV$V_NET      = 0000000D            H.WND            00000024
ACBV_PERM      = 00000000            DEV$V_ODV      = 0000001B            IE.2DV         = FFFFFFD0
ACBV_TYPE      = 00000008            DEV$V_RCK      = 0000001E            IE.ABO         = FFFFFFF1
ACB_FLAGS        0000000C            DEV$V_REC      = 00000000            IE.ACT         = FFFFFFF9
ACB_LINK         00000000            DEV$V_RND      = 0000001C            IE.ADP         = FFFFFF9E
ACB_UPC          0000000A            DEV$V_RTM      = 0000001D            IE.ALC         = FFFFFFAC
ACB_UPRM         00000008            DEV$V_SDI      = 00000004            IE.ALG         = FFFFFFAC
ADR_HIGHLIM      00000004            DEV$V_SHR      = 00000010            IE.ALN         = FFFFFFDE
ADR_LOWLIM       00000000            DEV$V_SPL      = 00000006            IE.AST         = FFFFFFB0
ADR_SIZE         00000008            DEV$V_SQD      = 00000005            IE.BAD         = FFFFFFFF
AP_NAME          00000004            DEV$V_SWL      = 00000019            IE.BBE         = FFFFFFC8
AST_PARAM        00000004            DEV$V_TRM      = 00000002            IE.BCC         = FFFFFFBE
AST_PC           00000010            DEV$V_WCK      = 0000001F            IE.BDI         = FFFFFFCC
AST_PSL          00000014            FCB_ATTRIBS      0000007C            IE.BDR         = FFFFFFCE
AST_R0           00000008            FCB_FIB          0000004C            IE.BDV         = FFFFFFC9
AST_R1           0000000C            FCB_FID          00000000            IE.BHD         = FFFFFFC0
BIT...         = 00000063            FCB_FNAME        00000014            IE.BLB         = FFFFFFBA
C$$ORE         = 00000000            FCB_FNAMEDESC    0000000C            IE.BLK         = FFFFFFEC
C_CANONPS      = 83C00000            FCB_FNB          00000002            IE.BNM         = FFFFFFCA
C_RCVDSTR      = 44564352            FCB_PC           00000078            IE.BTF         = FFFFFFB4
DEV$M_ALL      = 00800000            FCB_RESULT       00000030            IE.BTP         = FFFFFFD5
DEV$M_AVL      = 00040000            FCB_RESULTDESC   00000004            IE.BVR         = FFFFFFC1
DEV$M_CCL      = 00000002            FCB_SIZE         000000B4            IE.BYT         = FFFFFFED
DEV$M_DIR      = 00000008            FP_AP            00000008            IE.CKP         = FFFFFFF6
DEV$M_DMT      = 00200000            FP_FP            0000000C            IE.CKS         = FFFFFFE2
DEV$M_ELG      = 00400000            FP_PC            00000010            IE.CLO         = FFFFFFDA
DEV$M_FOD      = 00004000            FP_PSL           00000004            IE.CNR         = FFFFFFB7
DEV$M_FOR      = 01000000            FP_REGISTERS     00000014            IE.CON         = FFFFFFEA
DEV$M_GEN      = 00020000            GBL...         = 00000000            IE.DAA         = FFFFFFF8
DEV$M_IDV      = 04000000            H.CSP            00000000            IE.DAO         = FFFFFFF3
DEV$M_MBX      = 00100000            H.CUIC           00000008            IE.DFU         = FFFFFFE8
DEV$M_MNT      = 00080000            H.DSW            00000026            IE.DNA         = FFFFFFF9
DEV$M_NET      = 00002000            H.DUIC           0000000A            IE.DNR         = FFFFFFFD
DEV$M_ODV      = 08000000            H.EFLM           00000004            IE.DUN         = FFFFFFF7
DEV$M_RCK      = 40000000            H.EFSV           00000020            IE.DUP         = FFFFFFC7
DEV$M_REC      = 00000001            H.FCS            00000028            IE.EOF         = FFFFFFF6
DEV$M_RND      = 10000000            H.FORT           0000002A            IE.EOT         = FFFFFFC2
DEV$M_RTM      = 20000000            H.FPSA           00000022            IE.EOV         = FFFFFFF5
DEV$M_SDI      = 00000010            H.FPVA           0000001C            IE.EXP         = FFFFFFB5
DEV$M_SHR      = 00010000            H.GARD           0000003A            IE.FEX         = FFFFFFCF
DEV$M_SPL      = 00000040            H.HDLN           00000002            IE.FHE         = FFFFFFC5
DEV$M_SQD      = 00000020            H.IPC            0000000E            IE.FIX         = FFFFFFF7
DEV$M_SWL      = 02000000            H.IPS            0000000C            IE.FLN         = FFFFFFAF
DEV$M_TRM      = 00000004            H.ISP            00000010            IE.FOP         = FFFFFFCB
DEV$M_WCK      = 80000000            H.LUN            0000003E            IE.HFU         = FFFFFFE4
DEV$V_ALL      = 00000017            H.NLUN           0000003C            IE.HWR         = FFFFFFFA
DEV$V_AVL      = 00000012            H.NML            00000031            IE.IBS         = FFFFFFA7
DEV$V_CCL      = 00000001            H.ODVA           00000012            IE.IDU         = FFFFFFA4
DEV$V_DIR      = 00000003            H.ODVL           00000014            IE.IEF         = FFFFFF9F
DEV$V_DMT      = 00000015            H.OVLY           0000002C            IE.IES         = FFFFFFAE
RSXIO           - RSX11M GMCR$,RCVD$,RCVX$,SDAT$ DIRECTIVES      22-AUG-1978 00:30:02   VAX-11 MACRO X0.3-11               Page   9
SYMBOL TABLE                                                                                                                     (4)

IE.IFC         = FFFFFFFE            IE.ULK         = FFFFFFAB            I_LUT            00000144
IE.IFU         = FFFFFFE7            IE.ULN         = FFFFFFFB            I_NLUN           00000140
IE.ILL         = FFFFFFD6            IE.UNS         = FFFFFFFC            I_PC             00000184
IE.ILU         = FFFFFFA0            IE.UPN         = FFFFFFFF            I_PROCNAME       00000128
IE.ILV         = FFFFFFED            IE.VER         = FFFFFFFC            I_PS             00000188
IE.INS         = FFFFFFFE            IE.WAC         = FFFFFFE3            I_PWRAST         0000019C
IE.IOP         = FFFFFFAD            IE.WAT         = FFFFFFE1            I_R0             00000164
IE.IPR         = FFFFFFA1            IE.WCK         = FFFFFFAA            I_R1             00000168
IE.ISQ         = FFFFFFC3            IE.WER         = FFFFFFDF            I_R2             0000016C
IE.ITI         = FFFFFFA3            IE.WLK         = FFFFFFF4            I_R3             00000170
IE.ITP         = FFFFFFA8            IE.WOV         = FFFFFFAB            I_R4             00000174
IE.ITS         = FFFFFFF8            IO$M_NOW         ********   X   05   I_R5             00000178
IE.IUI         = FFFFFFA5            IO$_READVBLK     ********   X   05   I_R6             0000017C
IE.LCK         = FFFFFFE5            IO$_WRITEVBLK    ********   X   05   I_RAD50NAME      00000124
IE.LNL         = FFFFFFA6            IS.BV          = 00000005            I_RCVAST         00000198
IE.MAP         = FFFFFFAF            IS.CC          = 00000301            I_RCVMAIL        0000013C
IE.MOD         = FFFFFFEB            IS.CLR         = 00000000            I_RUNFLAGS       00000190
IE.NBF         = FFFFFFD9            IS.CR          = 00000D01            I_SCRATCH        00000000
IE.NBK         = FFFFFFD7            IS.EOT         = 00000401            I_STATE          0000014C
IE.NDR         = FFFFFFB8            IS.ESC         = 00001B01            I_TYPE           00000180
IE.NFI         = FFFFFFC4            IS.ESQ         = 00009B01            I_UIC            00000118
IE.NFW         = FFFFFFBB            IS.PES         = 00008001            I_WAIT           00000154
IE.NLK         = FFFFFFB1            IS.PND         = 00000000            I_WAITSAVE       0000015C
IE.NLN         = FFFFFFDB            IS.RDD         = 00000002            JPI$C_ADRTYPE  = 00000001
IE.NNC         = FFFFFFB3            IS.SET         = 00000002            JPI$C_CTLTYPE  = 00000002
IE.NNL         = FFFFFFB2            IS.SPD         = 00000002            JPI$C_LISTEND  = 00000000
IE.NNN         = FFFFFFBC            IS.SUC         = 00000001            JPI$C_PCBTYPE  = 00000003
IE.NOD         = FFFFFFE9            IS.TAB         = 00000901            JPI$C_PHDTYPE  = 00000004
IE.NSF         = FFFFFFE6            IS.TMO         = 00000002            JPI$_ACCOUNT   = 00000203
IE.NST         = FFFFFFB0            I_ADR0           000000D8            JPI$_APTCNT    = 0000030A
IE.NSW         = FFFFFFEE            I_ASCIINAME      0000011C            JPI$_ASTACT    = 00000300
IE.NVR         = FFFFFFAA            I_ASTPOOL        000000A8            JPI$_ASTCNT    = 0000030E
IE.NVW         = FFFFFFA9            I_ASTQUEUE       000000A0            JPI$_ASTEN     = 00000301
IE.OFL         = FFFFFFBF            I_BAILOUTFP      0000018C            JPI$_ASTLM     = 00000409
IE.ONP         = FFFFFFFB            I_CMDAD          000000C4            JPI$_BIOCNT    = 0000030F
IE.OVR         = FFFFFFEE            I_CMDSZ          000000C0            JPI$_BIOLM     = 00000310
IE.PES         = FFFFFFAD            I_CURAST         00000194            JPI$_BUFIO     = 0000040C
IE.PNS         = FFFFFFA2            I_FCBPOOL        000000B0            JPI$_BYTCNT    = 00000311
IE.PRI         = FFFFFFF0            I_FCC            000001B0            JPI$_BYTLM     = 0000031A
IE.PTS         = FFFFFFFD            I_FLOATA0        000001BC            JPI$_CPULIM    = 0000040D
IE.RAC         = FFFFFFD4            I_FLOATA1        000001C4            JPI$_CPUTIM    = 00000407
IE.RAT         = FFFFFFD3            I_FLOATA2        000001CC            JPI$_CURPRIV   = 00000400
IE.RBG         = FFFFFFD8            I_FLOATA3        000001D4            JPI$_DFPFC     = 00000406
IE.RBS         = FFFFFFF1            I_FLOATA4        000001DC            JPI$_DFWSCNT   = 00000403
IE.RCN         = FFFFFFD2            I_FLOATA5        000001E4            JPI$_DIOCNT    = 00000312
IE.RER         = FFFFFFE0            I_FLOATADR       000001AC            JPI$_DIOLM     = 00000313
IE.RNM         = FFFFFFCD            I_FLOATAST       000001A0            JPI$_DIRIO     = 0000040B
IE.RSU         = FFFFFFEF            I_FLOATCSR       000001A4            JPI$_EFCS      = 00000317
IE.SDP         = FFFFFF9D            I_FLOATERR       000001A8            JPI$_EFCU      = 00000318
IE.SNC         = FFFFFFDD            I_FLOATTMP       000001B4            JPI$_EFWM      = 00000316
IE.SPC         = FFFFFFFA            I_GARD           000000C8            JPI$_EXCVEC    = 00000100
IE.SQC         = FFFFFFDC            I_HIGHEFN        00000148            JPI$_FILCNT    = 00000314
IE.SRE         = FFFFFFF2            I_HIGHSIZE       000000D0            JPI$_FILLM     = 0000040F
IE.STK         = FFFFFFC6            I_IMAGEVBN       000000D4            JPI$_FINALEXC  = 00000101
IE.TCH         = FFFFFFF5            I_INISIZE        000000CC            JPI$_FREP0VA   = 00000404
IE.TMM         = FFFFFFB9            I_LENGTH         000001EC            JPI$_FREP1VA   = 00000405
IE.TMO         = FFFFFFB6            I_LOGNAME        000000B8            JPI$_GPGCNT    = 0000030C
RSXIO           - RSX11M GMCR$,RCVD$,RCVX$,SDAT$ DIRECTIVES      22-AUG-1978 00:30:02   VAX-11 MACRO X0.3-11               Page  10
SYMBOL TABLE                                                                                                                     (4)

JPI$_GRP       = 00000308            PSL_CM         = 0000001F            SMO$K_JOBPRI   = 00000022
JPI$_LASTADR   = 00000102            PSL_FPD        = 0000001B            SMO$K_LOWER    = 00000025
JPI$_LASTCTL   = 00000207            PSL_FU         = 00000006            SMO$K_NEXTJOB  = 00000060
JPI$_LASTPCB   = 0000031D            PSL_TBIT       = 00000004            SMO$K_NOBRSTPAG= 00000003
JPI$_LASTPHD   = 00000412            QIOV_FILES     = 00000000            SMO$K_NODEFBRST= 00000047
JPI$_LOGINTIM  = 00000206            QIO_FLAGS        0000001C            SMO$K_NODEFFLAG= 00000049
JPI$_MEM       = 00000307            QIO_FUNCTION     0000001A            SMO$K_NOFEED   = 00000008
JPI$_OWNER     = 00000303            QIO_IOSB         0000000E            SMO$K_NOFLAGPAG= 00000005
JPI$_PAGEFLTS  = 0000040A            QIO_LUT          00000016            SMO$K_NOGENDEV = 00000045
JPI$_PGFLQUOTA = 0000040E            QIO_SECONDBLK    0000001E            SMO$K_NOGENPRT = 00000042
JPI$_PID       = 00000319            QIO_SIZE         00000022            SMO$K_NOLOWER  = 00000028
JPI$_PPGCNT    = 0000030D            RSX$ASCR502      ********   X   05   SMO$K_NOTRMDEV = 0000004B
JPI$_PRCCNT    = 0000031B            RSX$CVTNAME      ********   X   05   SMO$K_PAGCNT   = 00000009
JPI$_PRCLM     = 00000408            RSX$C_SUBSYSTEM= 00000006            SMO$K_PAGHDR   = 00000006
JPI$_PRCNAM    = 0000031C            RSX$GMCR         00000000 RG    05   SMO$K_PARAMS   = 00000026
JPI$_PRI       = 00000302            RSX$RCVD         0000003B RG    05   SMO$K_RLSTIM   = 00000020
JPI$_PRIB      = 00000309            RSX$RCVX         00000036 RG    05   SMO$K_SPCCNT   = 00000062
JPI$_PROCPRIV  = 00000204            RSX$SDAT         000000D2 RG    05   SMO$K_TOPOFILE = 00000061
JPI$_STATE     = 00000306            RSX$SETF         ********   X   05   SMO$K_TRMDEV   = 0000004A
JPI$_STS       = 00000305            RSX$_ACCVIO    = 00068044            SMR$K_ABORT    = 0000000E
JPI$_TMBU      = 0000030B            RSX$_BADLIBREF = 0006806C            SMR$K_ADDFIL   = 0000000A
JPI$_TQCNT     = 00000315            RSX$_BADSTACK  = 0006804C            SMR$K_ALTER    = 0000000D
JPI$_TQLM      = 00000410            RSX$_BREAK     = 0006800C            SMR$K_CLSJOB   = 0000000B
JPI$_UIC       = 00000304            RSX$_EXITSTATUS= 00068180            SMR$K_CREJOB   = 00000009
JPI$_USERNAME  = 00000202            RSX$_EXTERNABRT= 0006805C            SMR$K_DELETE   = 00000001
JPI$_VIRTPEAK  = 00000200            RSX$_ILLINST   = 0006802C            SMR$K_DETINIT  = 00000010
JPI$_VOLUMES   = 00000205            RSX$_INSFDYNMEM= 00068054            SMR$K_ENTER    = 00000008
JPI$_WSAUTH    = 00000401            RSX$_IOT       = 00068014            SMR$K_INITIAL  = 00000000
JPI$_WSPEAK    = 00000201            RSX$_LIBNOTFND = 00068074            SMR$K_JUSTIFY  = 00000006
JPI$_WSQUOTA   = 00000402            RSX$_LOADERROR = 0006807C            SMR$K_MERGE    = 00000004
JPI$_WSSIZE    = 00000411            RSX$_NONRSXEMT = 0006801C            SMR$K_PAUSE    = 00000003
LUTC_CR        = 00000005            RSX$_NOSUCHDEV = 000680C2            SMR$K_REDIRECT = 00000005
LUTC_DISK      = 00000002            RSX$_NOTSKIMG  = 00068064            SMR$K_RELEASE  = 0000000F
LUTC_LP        = 00000004            RSX$_ODDADDR   = 00068034            SMR$K_RMVJOB   = 0000000C
LUTC_RMS       = 00000000            RSX$_PMD       = 000680CA            SMR$K_START    = 00000002
LUTC_TAPE      = 00000003            RSX$_RCVMBXSIZ = 0000012C            SMR$K_STOP     = 00000007
LUTC_TRM       = 00000001            RSX$_RESERVED  = 00068004            SV_ASTLVL        00000005
LUTV_CTRLC     = 00000002            RSX$_TBIT      = 0006803C            SV_DCL           00000002
LUTV_CTRLO     = 00000000            RSX$_TRAP      = 00068024            SV_FLOATAST      0000000A
LUTV_PRM       = 00000003            SMO$K_BRSTPAG  = 00000002            SV_FRESTORE      00000003
LUTV_TI        = 00000001            SMO$K_COPIES   = 0000000A            SV_NOAST         00000004
LUT_CHAN         0000000C            SMO$K_CURFORM  = 00000040            SV_PENDWAIT      00000006
LUT_CHAR         00000014            SMO$K_DEFBRST  = 00000046            SV_PWRAST        00000009
LUT_CTRLC        00000034            SMO$K_DEFFLAG  = 00000048            SV_RCVAST        00000008
LUT_FLAGS        0000000A            SMO$K_DELETE   = 00000001            SV_RESTORE       00000000
LUT_INFONAME     00000030            SMO$K_DETJOB   = 00000043            SV_TRANSLATE     00000001
LUT_INFOUNIT     00000032            SMO$K_DISWAP   = 0000004E            SV_WAIT          00000007
LUT_LINK         00000000            SMO$K_DOUBLE   = 00000007            SYS$ASSIGN       ********   X   05
LUT_REALNAME     00000020            SMO$K_FLAGPAG  = 00000004            SYS$DASSGN       ********   X   05
LUT_REF          00000008            SMO$K_FORMTYPE = 00000024            SYS$EXIT         ********   X   05
LUT_RSXNAME      00000010            SMO$K_GENDEV   = 00000044            SYS$GETJPI       ********   X   05
LUT_RSXUNIT      00000012            SMO$K_GENPRT   = 00000041            SYS$QIOW         ********   X   05
LUT_SIZE         00000038            SMO$K_HOLD     = 00000021            S_PC             00000020
LUT_TYPE         00000018            SMO$K_INIPRI   = 0000004D            S_PS             00000024
LUT_UNIT         00000020            SMO$K_JOBCOPY  = 00000023            S_R0             00000000
NOBOX            000000C7 R     05   SMO$K_JOBLIM   = 0000004C            S_R1             00000004
PSL_CC         = 00000000            SMO$K_JOBNAME  = 00000027            S_R2             00000008
RSXIO           - RSX11M GMCR$,RCVD$,RCVX$,SDAT$ DIRECTIVES      22-AUG-1978 00:30:02   VAX-11 MACRO X0.3-11               Page  11
SYMBOL TABLE                                                                                                                     (4)

S_R3             0000000C
S_R4             00000010
S_R5             00000014
S_R6             00000018
S_TYPE           0000001C
W.BATT           00000006
W.BFPD           0000000C
W.BHVR           00000004
W.BLGH           00000010
W.BLPD           0000000E
W.BLVR           00000002
W.BNPD           0000000D
W.BOFF           0000000A
W.BPCB           00000000
W.BSIZ           00000008


PROGRAM SECTION SYNOPSIS

.  ABS  .        00000000      00     NOPIC   USR   CON   ABS   LCL NOSHR NOEXE NORD  NOWRT BYTE
. BLANK .        00000000      01     NOPIC   USR   CON   REL   LCL NOSHR   EXE   RD    WRT BYTE
..ABS.           00000042      02     NOPIC   USR   CON   ABS   LCL NOSHR   EXE   RD    WRT BYTE
$ABS$            00000000      03     NOPIC   USR   CON   ABS   LCL NOSHR   EXE   RD    WRT BYTE
RSXDEF           000001F0      04     NOPIC   USR   CON   ABS   LCL NOSHR   EXE   RD    WRT BYTE
RSXCODE          0000014A      05     NOPIC   USR   CON   REL   LCL NOSHR   EXE   RD  NOWRT BYTE


THERE WERE NO ERRORS OR WARNINGS.
10426. BYTES LEFT IN FREE MEMORY POOL.
720. BYTES OF RECLAIMED MEMORY.
OBJ$:RSXIO,LIS$:RSXIO/-SP=SRC$:C,RSXIO
43 MLB DIR RDS - 788 GETS TO DEFINE 30 MACROS. 36 INTER. FILE WRITES.
