RSXINFO         - RSX-11M INFORMATIONAL DIRECTIVES               22-AUG-1978 00:24:21   VAX-11 MACRO X0.3-11               Page   0
TABLE OF CONTENTS

   (2)     133  RSX$GLUN - RSX11M GLUN$ DIRECTIVE
   (3)     198  RSX$GPRT - RSX11M GPRT$ DIRECTIVE
   (4)     238  RSX$GTSK - RSX11M GTSK$ DIRECTIVE
   (5)     283  RSX$GTIM - RSX11M GTIM$ DIRECTIVE
RSXINFO         - RSX-11M INFORMATIONAL DIRECTIVES               22-AUG-1978 00:24:21   VAX-11 MACRO X0.3-11               Page   1
V04.0                                                                                                                            (1)

                                     0000     1 	.TITLE	RSXINFO - RSX-11M INFORMATIONAL DIRECTIVES
                                     0000     2 	.IDENT	/V04.0/		;
                                     0000     3
                                     0000     4 ;
                                     0000     5 ; COPYRIGHT (C) 1977
                                     0000     6 ; DIGITAL EQUIPMENT CORPORATION, MAYNARD, MASSACHUSETTS 01754
                                     0000     7 ;
                                     0000     8 ; THIS SOFTWARE IS FURNISHED  UNDER A LICENSE FOR USE ONLY ON A SINGLE
                                     0000     9 ; COMPUTER  SYSTEM AND  MAY BE  COPIED ONLY WITH  THE INCLUSION OF THE
                                     0000    10 ; ABOVE COPYRIGHT NOTICE.  THIS SOFTWARE, OR ANY OTHER COPIES THEREOF,
                                     0000    11 ; MAY NOT BE PROVIDED OR  OTHERWISE MADE AVAILABLE TO ANY OTHER PERSON
                                     0000    12 ; EXCEPT FOR USE ON SUCH SYSTEM AND TO ONE WHO AGREES TO THESE LICENSE
                                     0000    13 ; TERMS.  TITLE TO AND  OWNERSHIP OF THE  SOFTWARE  SHALL AT ALL TIMES
                                     0000    14 ; REMAIN IN DEC.
                                     0000    15 ;
                                     0000    16 ; THE INFORMATION IN THIS SOFTWARE IS SUBJECT TO CHANGE WITHOUT NOTICE
                                     0000    17 ; AND SHOULD  NOT BE CONSTRUED  AS A COMMITMENT  BY DIGITAL  EQUIPMENT
                                     0000    18 ; CORPORATION.
                                     0000    19 ;
                                     0000    20 ; DEC ASSUMES  NO  RESPONSIBILITY  FOR  THE USE OR  RELIABILITY OF ITS
                                     0000    21 ; SOFTWARE ON EQUIPMENT WHICH IS NOT SUPPLIED BY DEC.
                                     0000    22
                                     0000    23 ;++
                                     0000    24 ; FACILITY:
                                     0000    25 ;
                                     0000    26 ;	STARLET RSX AME.
                                     0000    27 ;
                                     0000    28 ; ABSTRACT:
                                     0000    29 ;
                                     0000    30 ;	RSX-11M INFORMATIONAL DIRECTIVES
                                     0000    31 ;
                                     0000    32 ; AUTHOR:
                                     0000    33 ;
                                     0000    34 ;	R.HEINEN 4-NOV-76
                                     0000    35 ;--
                                     0000    36 ;
                                     0000    37 ; EXTERNAL SYMBOLS
                                     0000    38 ;
                                     0000    39 	DRERR$			; DEFINE DIRECTIVE ERROR CODES
                                     0000    40 	$RSXDEF			; DEFINE RSX SYMBOLS
                                     0000    41
                                 00000000    42 	.PSECT	RSXCODE,NOWRT
RSXINFO         - RSX-11M INFORMATIONAL DIRECTIVES               22-AUG-1978 00:24:21   VAX-11 MACRO X0.3-11               Page   2
V04.0           RSX$GLUN - RSX11M GLUN$ DIRECTIVE                                                                                (2)

                                     0000    44 	.SBTTL	RSX$GLUN - RSX11M GLUN$ DIRECTIVE
                                     0000    45 ;++
                                     0000    46 ; RSX$GLUN - RSX11M GET LUN IMFORMATION DIRECTIVE
                                     0000    47 ;
                                     0000    48 ; FUNCTIONAL DESCRIPTION:
                                     0000    49 ;
                                     0000    50 ; THIS IS A RSX DIRECTIVE HANDLER WHICH IMPLEMENTS AN RSX11M
                                     0000    51 ; "GLUN$" DIRECTIVE.
                                     0000    52 ;
                                     0000    53 ; INPUT PARAMETERS:
                                     0000    54 ;
                                     0000    55 ;	R5 = ADDRESS OF DPB+2
                                     0000    56 ;	R6 = CM IMAGE STACK ADDRESS
                                     0000    57 ;	R10 = ADDRESS OF CM IMAGE DATA BASE
                                     0000    58 ;	R11 = ADDRESS OF IMAGE HEADER
                                     0000    59 ;
                                     0000    60 ; OUTPUT PARAMETERS:
                                     0000    61 ;
                                     0000    62 ;	R10,R11 ARE PRESERVED
                                     0000    63 ;
                                     0000    64 ; IMPLICIT OUTPUTS:
                                     0000    65 ;
                                     0000    66 ;	THE PROPER DIRECTIVE STATUS IS PLACED IN THE IMAGE DSW
                                     0000    67 ;	ALONG WITH THE PROPER SETTING OF THE C-BIT.
                                     0000    68 ;
                                     0000    69 ; DSW RETURN CODES
                                     0000    70 ;
                                     0000    71 ;	IS.SUC	SUCCESSFUL
                                     0000    72 ;	IE.ULN	UNASSIGNED LUN
                                     0000    73 ;	IE.ILU	INVALID LOGICAL UNIT NUMBER
                                     0000    74 ;	IE.ADP	BUFFER ACCESS VIOLATION
                                     0000    75 ;--
                                     0000    76 RSX$GLUN::				; GET LUN IMFORMATION DIRECTIVE
                                     0000    77 ;
                                     0000    78 ; GET THE LUN NUMBER OF INTREST
                                     0000    79 ;
            51            85     3C  0000    80 	MOVZWL	(R5)+,R1		;
                          38     15  0003    81 	BLEQ	110$			; IF LEQ THEN ERROR
       0140 CA            51     B1  0005    82 	CMPW	R1,I_NLUN(R10)		; IN RANGE?
                          31     1A  000A    83 	BGTRU	110$			; IF GTRU THEN ERROR
                                     000C    84 ;
                                     000C    85 ; GET THE LUT ENTRY FOR THE LUN NUMBER
                                     000C    86 ;
            58       0144 DA41   D0  000C    87 	MOVL	@I_LUT(R10)[R1],R8	; ADDRESS THE LUT TABLE ENTRY
                          1E     13  0012    88 	BEQL	100$			; IF EQL THEN ERROR
            55            65     3C  0014    89 	MOVZWL	(R5),R5			; COPY ADDRESS OF BUFFER
                                     0017    90 ;
                                     0017    91 ; COPY DATA TO USER BUFFER
                                     0017    92 ;
            85         30 A8     B0  0017    93 	MOVW	LUT_INFONAME(R8),(R5)+	; INSERT INFO NAME
            85         32 A8     90  001B    94 	MOVB	LUT_INFOUNIT(R8),(R5)+	; INSERT INFO UNIT
            85            01     90  001F    95 	MOVB	#1,(R5)+		; INSERT LOADED DRIVER FLAG
         14 A8       8000 8F     A9  0022    96 	BISW3	#^X08000,LUT_CHAR(R8),(R5)+; INSERT CHARACTERISTICS
                          85         0028
            85         1C A8     D0  0029    97 	MOVL	LUT_TYPE+4(R8),(R5)+	; INSERT DEVICE DEPENDENT WORDS
            65         1A A8     B0  002D    98 	MOVW	LUT_CHAR+6(R8),(R5)	; INSERT STANDARD BUFFER SIZE
                                 05  0031    99 	RSB				; RETURN TO CALLER
RSXINFO         - RSX-11M INFORMATIONAL DIRECTIVES               22-AUG-1978 00:24:21   VAX-11 MACRO X0.3-11               Page   3
V04.0           RSX$GLUN - RSX11M GLUN$ DIRECTIVE                                                                                (2)

                                     0032   100 ;
                                     0032   101 ; UNASSIGNED LUN ERROR
                                     0032   102 ;
                                     0032   103 100$:	$DSW	#IE.ULN			; ERROR FOR UNASSIGNED LUN
                                     003D   104 ;
                                     003D   105 ; ILLEGAL LUN NUMBER
                                     003D   106 ;
                                     003D   107 110$:	$DSW	#IE.ILU			; SET ERROR
RSXINFO         - RSX-11M INFORMATIONAL DIRECTIVES               22-AUG-1978 00:24:21   VAX-11 MACRO X0.3-11               Page   4
V04.0           RSX$GPRT - RSX11M GPRT$ DIRECTIVE                                                                                (3)

                                     0048   109 	.SBTTL	RSX$GPRT - RSX11M GPRT$ DIRECTIVE
                                     0048   110 ;++
                                     0048   111 ; RSX$GPRT - RSX11M GET PARTITION PARAMETERS DIRECTIVE
                                     0048   112 ;
                                     0048   113 ; FUNCTIONAL DESCRIPTION:
                                     0048   114 ;
                                     0048   115 ; THIS IS A RSX DIRECTIVE HANDLER WHICH IMPLEMENTS AN RSX11M
                                     0048   116 ; "GPRT$" DIRECTIVE.
                                     0048   117 ;
                                     0048   118 ; INPUT PARAMETERS:
                                     0048   119 ;
                                     0048   120 ;	R5 = ADDRESS OF DPB+2
                                     0048   121 ;	R6 = CM IMAGE STACK ADDRESS
                                     0048   122 ;	R10 = ADDRESS OF CM IMAGE DATA BASE
                                     0048   123 ;	R11 = ADDRESS OF IMAGE HEADER
                                     0048   124 ;
                                     0048   125 ; OUTPUT PARAMETERS:
                                     0048   126 ;
                                     0048   127 ;	R10,R11 ARE PRESERVED
                                     0048   128 ;
                                     0048   129 ; IMPLICIT OUTPUTS:
                                     0048   130 ;
                                     0048   131 ;	THE PROPER DIRECTIVE STATUS IS PLACED IN THE IMAGE DSW
                                     0048   132 ;	ALONG WITH THE PROPER SETTING OF THE C-BIT.
                                     0048   133 ;
                                     0048   134 ; DSW RETURN CODES:
                                     0048   135 ;
                                     0048   136 ;	IS.SUC	SUCCESSFUL
                                     0048   137 ;	IE.ADP	BUFFER ACCESS VIOLATION
                                     0048   138 ;
                                     0048   139 ;--
                                     0048   140 RSX$GPRT::				; GET PARTITION PARAMETERS DIRECTIVE
            54         04 A5     3C  0048   141 	MOVZWL	4(R5),R4		; GET BUFFER ADDRESS SPECIFIED
            84       0100 8F     B0  004C   142 	MOVW	#^X100,(R4)+		; INSERT PARTITION BASE ADDRESS
            0A            06     EF  0051   143 	EXTZV	#6,#10,I_ADR0+ADR_HIGHLIM(R10),R3; INSERT TASK SIZE IN 32 WORD BLOCKS
            53       00DC CA         0054
            84            53     B0  0058   144 	MOVW	R3,(R4)+		;
                                     005B   145 					; SYSTEM CONTROLED PARTITION
                       26 AB     B4  005B   146 	CLRW	H.DSW(R11)		; SET PARTITION BASE ADDRESS
                                 05  005E   147 	RSB				; AND RETURN
RSXINFO         - RSX-11M INFORMATIONAL DIRECTIVES               22-AUG-1978 00:24:21   VAX-11 MACRO X0.3-11               Page   5
V04.0           RSX$GTSK - RSX11M GTSK$ DIRECTIVE                                                                                (4)

                                     005F   149 	.SBTTL	RSX$GTSK - RSX11M GTSK$ DIRECTIVE
                                     005F   150 ;++
                                     005F   151 ; RSX$GTSK - RSX11M GET TASK PARAMETERS DIRECTIVE
                                     005F   152 ;
                                     005F   153 ; FUNCTIONAL DESCRIPTION:
                                     005F   154 ;
                                     005F   155 ; THIS IS A RSX DIRECTIVE HANDLER WHICH IMPLEMENTS AN RSX11M
                                     005F   156 ; "GTSK$" DIRECTIVE.
                                     005F   157 ;
                                     005F   158 ; INPUT PARAMETERS:
                                     005F   159 ;
                                     005F   160 ;	R5 = ADDRESS OF DPB+2
                                     005F   161 ;	R6 = CM IMAGE STACK ADDRESS
                                     005F   162 ;	R10 = ADDRESS OF CM IMAGE DATA BASE
                                     005F   163 ;	R11 = ADDRESS OF IMAGE HEADER
                                     005F   164 ;
                                     005F   165 ; OUTPUT PARAMETERS:
                                     005F   166 ;
                                     005F   167 ;	R10,R11 ARE PRESERVED
                                     005F   168 ;
                                     005F   169 ; IMPLICIT OUTPUTS:
                                     005F   170 ;
                                     005F   171 ;	THE PROPER DIRECTIVE STATUS IS PLACED IN THE IMAGE DSW
                                     005F   172 ;	ALONG WITH THE PROPER SETTING OF THE C-BIT.
                                     005F   173 ;
                                     005F   174 ; DSW RETURN CODES:
                                     005F   175 ;
                                     005F   176 ;	IS.SUC	SUCCESSFUL
                                     005F   177 ;	IE.ADP	BUFFER ACCESS VIOLATION
                                     005F   178 ;--
                                     005F   179 RSX$GTSK::				; GET TASK PARAMETERS DIRECTIVE
            54            65     3C  005F   180 	MOVZWL	(R5),R4			; ADDRESS BUFFER
            84       0124 CA     D0  0062   181 	MOVL	I_RAD50NAME(R10),(R4)+	; INSERT TASK NAME
            84       2C8F 8F     3C  0067   182 	MOVZWL	#^O026217,(R4)+		; INSERT "GEN   " AS PARTITION
                          84     D4  006C   183 	CLRL	(R4)+			; INSERT UNDEFINED WORDS
            84         30 AB     B0  006E   184 	MOVW	H.SPRI(R11),(R4)+	; INSERT PRIORITY
            84         08 AB     B0  0072   185 	MOVW	H.CUIC(R11),(R4)+	; INSERT UIC
            84         3C AB     B0  0076   186 	MOVW	H.NLUN(R11),(R4)+	; INSERT NUMBER OF LUNS
                          84     D4  007A   187 	CLRL	(R4)+			; INSERT UNDEFINED WORDS
            84         16 AB     B0  007C   188 	MOVW	H.TKVA(R11),(R4)+	; INSERT SST VECTOR DATA
            84         18 AB     B0  0080   189 	MOVW	H.TKVL(R11),(R4)+	;
            84       00DC CA     B0  0084   190 	MOVW	I_ADR0+ADR_HIGHLIM(R10),(R4)+; INSERT SIZE IN BYTES
            64            05     9A  0089   191 	MOVZBL	#5,(R4)			; TELL ITS THE RSX!!!!!
                                 05  008C   192 	RSB				; AND RETURN
RSXINFO         - RSX-11M INFORMATIONAL DIRECTIVES               22-AUG-1978 00:24:21   VAX-11 MACRO X0.3-11               Page   6
V04.0           RSX$GTIM - RSX11M GTIM$ DIRECTIVE                                                                                (5)

                                     008D   194 	.SBTTL	RSX$GTIM - RSX11M GTIM$ DIRECTIVE
                                     008D   195 ;++
                                     008D   196 ; RSX$GTIM - RSX11M GET TIME DIRECTIVE
                                     008D   197 ;
                                     008D   198 ; FUNCTIONAL DESCRIPTION:
                                     008D   199 ;
                                     008D   200 ; THIS IS A RSX DIRECTIVE HANDLER WHICH IMPLEMENTS AN RSX11M
                                     008D   201 ; "GTIM$" DIRECTIVE.
                                     008D   202 ;
                                     008D   203 ; INPUT PARAMETERS:
                                     008D   204 ;
                                     008D   205 ;	R5 = ADDRESS OF DPB+2
                                     008D   206 ;	R6 = CM IMAGE STACK ADDRESS
                                     008D   207 ;	R10 = ADDRESS OF CM IMAGE DATA BASE
                                     008D   208 ;	R11 = ADDRESS OF IMAGE HEADER
                                     008D   209 ;
                                     008D   210 ; OUTPUT PARAMETERS:
                                     008D   211 ;
                                     008D   212 ;	R10,R11 ARE PRESERVED
                                     008D   213 ;
                                     008D   214 ; IMPLICIT OUTPUTS:
                                     008D   215 ;
                                     008D   216 ;	THE PROPER DIRECTIVE STATUS IS PLACED IN THE IMAGE DSW
                                     008D   217 ;	ALONG WITH THE PROPER SETTING OF THE C-BIT.
                                     008D   218 ;
                                     008D   219 ; DSW RETURN CODES:
                                     008D   220 ;
                                     008D   221 ;	IS.SUC	SUCCESSFUL
                                     008D   222 ;	IE.ADP	BUFFER ACCESS VIOLATION
                                     008D   223 ;--
                                     008D   224 RSX$GTIM::				; GET TIME DIRECTIVE
            54            65     3C  008D   225 	MOVZWL	(R5),R4			; ADDRESS BUFFER
                                     0090   226 	$NUMTIM_S	(R4),		; INSERT TIME IN BUFFER
            06            50     E9  009B   227 	BLBC	R0,10$			; IF LOW CLEAR THEN ACCESS VIOLATION
            64       076C 8F     A2  009E   228 	SUBW	#1900,(R4)		; TAKE OUT YEAR SINCE 0
                                 05  00A3   229 	RSB				; RETURN
                                     00A4   230 10$:	$DSW	#IE.ADP			; SET STATUS AND RETURN
                                     00AF   231 ;
                                     00AF   232 	.END
RSXINFO         - RSX-11M INFORMATIONAL DIRECTIVES               22-AUG-1978 00:24:21   VAX-11 MACRO X0.3-11               Page   7
SYMBOL TABLE                                                                                                                     (5)

$$MSG          = 00000000            H.LUN            0000003E            IE.HFU         = FFFFFFE4
...GBL         = 00000000            H.NLUN           0000003C            IE.HWR         = FFFFFFFA
ACBC_CTLRCAST  = 00000002            H.NML            00000031            IE.IBS         = FFFFFFA7
ACBC_FLOATAST  = 00000003            H.ODVA           00000012            IE.IDU         = FFFFFFA4
ACBC_PWRAST    = 00000000            H.ODVL           00000014            IE.IEF         = FFFFFF9F
ACBC_RCVAST    = 00000001            H.OVLY           0000002C            IE.IES         = FFFFFFAE
ACBV_INPROG    = 00000001            H.PFVA           0000001A            IE.IFC         = FFFFFFFE
ACBV_PERM      = 00000000            H.RCVA           0000001E            IE.IFU         = FFFFFFE7
ACBV_TYPE      = 00000008            H.RRVA           00000032            IE.ILL         = FFFFFFD6
ACB_FLAGS        0000000C            H.SPRI           00000030            IE.ILU         = FFFFFFA0
ACB_LINK         00000000            H.TKVA           00000016            IE.ILV         = FFFFFFED
ACB_UPC          0000000A            H.TKVL           00000018            IE.INS         = FFFFFFFE
ACB_UPRM         00000008            H.VEXT           0000002E            IE.IOP         = FFFFFFAD
ADR_HIGHLIM      00000004            H.WND            00000024            IE.IPR         = FFFFFFA1
ADR_LOWLIM       00000000            IE.2DV         = FFFFFFD0            IE.ISQ         = FFFFFFC3
ADR_SIZE         00000008            IE.ABO         = FFFFFFF1            IE.ITI         = FFFFFFA3
AP_NAME          00000004            IE.ACT         = FFFFFFF9            IE.ITP         = FFFFFFA8
AST_PARAM        00000004            IE.ADP         = FFFFFF9E            IE.ITS         = FFFFFFF8
AST_PC           00000010            IE.ALC         = FFFFFFAC            IE.IUI         = FFFFFFA5
AST_PSL          00000014            IE.ALG         = FFFFFFAC            IE.LCK         = FFFFFFE5
AST_R0           00000008            IE.ALN         = FFFFFFDE            IE.LNL         = FFFFFFA6
AST_R1           0000000C            IE.AST         = FFFFFFB0            IE.MAP         = FFFFFFAF
BIT...         = 00068084            IE.BAD         = FFFFFFFF            IE.MOD         = FFFFFFEB
C$$ORE         = 00000000            IE.BBE         = FFFFFFC8            IE.NBF         = FFFFFFD9
C_CANONPS      = 83C00000            IE.BCC         = FFFFFFBE            IE.NBK         = FFFFFFD7
C_RCVDSTR      = 44564352            IE.BDI         = FFFFFFCC            IE.NDR         = FFFFFFB8
FCB_ATTRIBS      0000007C            IE.BDR         = FFFFFFCE            IE.NFI         = FFFFFFC4
FCB_FIB          0000004C            IE.BDV         = FFFFFFC9            IE.NFW         = FFFFFFBB
FCB_FID          00000000            IE.BHD         = FFFFFFC0            IE.NLK         = FFFFFFB1
FCB_FNAME        00000014            IE.BLB         = FFFFFFBA            IE.NLN         = FFFFFFDB
FCB_FNAMEDESC    0000000C            IE.BLK         = FFFFFFEC            IE.NNC         = FFFFFFB3
FCB_FNB          00000002            IE.BNM         = FFFFFFCA            IE.NNL         = FFFFFFB2
FCB_PC           00000078            IE.BTF         = FFFFFFB4            IE.NNN         = FFFFFFBC
FCB_RESULT       00000030            IE.BTP         = FFFFFFD5            IE.NOD         = FFFFFFE9
FCB_RESULTDESC   00000004            IE.BVR         = FFFFFFC1            IE.NSF         = FFFFFFE6
FCB_SIZE         000000B4            IE.BYT         = FFFFFFED            IE.NST         = FFFFFFB0
FP_AP            00000008            IE.CKP         = FFFFFFF6            IE.NSW         = FFFFFFEE
FP_FP            0000000C            IE.CKS         = FFFFFFE2            IE.NVR         = FFFFFFAA
FP_PC            00000010            IE.CLO         = FFFFFFDA            IE.NVW         = FFFFFFA9
FP_PSL           00000004            IE.CNR         = FFFFFFB7            IE.OFL         = FFFFFFBF
FP_REGISTERS     00000014            IE.CON         = FFFFFFEA            IE.ONP         = FFFFFFFB
GBL...         = 00000000            IE.DAA         = FFFFFFF8            IE.OVR         = FFFFFFEE
H.CSP            00000000            IE.DAO         = FFFFFFF3            IE.PES         = FFFFFFAD
H.CUIC           00000008            IE.DFU         = FFFFFFE8            IE.PNS         = FFFFFFA2
H.DSW            00000026            IE.DNA         = FFFFFFF9            IE.PRI         = FFFFFFF0
H.DUIC           0000000A            IE.DNR         = FFFFFFFD            IE.PTS         = FFFFFFFD
H.EFLM           00000004            IE.DUN         = FFFFFFF7            IE.RAC         = FFFFFFD4
H.EFSV           00000020            IE.DUP         = FFFFFFC7            IE.RAT         = FFFFFFD3
H.FCS            00000028            IE.EOF         = FFFFFFF6            IE.RBG         = FFFFFFD8
H.FORT           0000002A            IE.EOT         = FFFFFFC2            IE.RBS         = FFFFFFF1
H.FPSA           00000022            IE.EOV         = FFFFFFF5            IE.RCN         = FFFFFFD2
H.FPVA           0000001C            IE.EXP         = FFFFFFB5            IE.RER         = FFFFFFE0
H.GARD           0000003A            IE.FEX         = FFFFFFCF            IE.RNM         = FFFFFFCD
H.HDLN           00000002            IE.FHE         = FFFFFFC5            IE.RSU         = FFFFFFEF
H.IPC            0000000E            IE.FIX         = FFFFFFF7            IE.SDP         = FFFFFF9D
H.IPS            0000000C            IE.FLN         = FFFFFFAF            IE.SNC         = FFFFFFDD
H.ISP            00000010            IE.FOP         = FFFFFFCB            IE.SPC         = FFFFFFFA
RSXINFO         - RSX-11M INFORMATIONAL DIRECTIVES               22-AUG-1978 00:24:21   VAX-11 MACRO X0.3-11               Page   8
SYMBOL TABLE                                                                                                                     (5)

IE.SQC         = FFFFFFDC            I_INISIZE        000000CC            QIO_FUNCTION     0000001A
IE.SRE         = FFFFFFF2            I_LENGTH         000001EC            QIO_IOSB         0000000E
IE.STK         = FFFFFFC6            I_LOGNAME        000000B8            QIO_LUT          00000016
IE.TCH         = FFFFFFF5            I_LUT            00000144            QIO_SECONDBLK    0000001E
IE.TMM         = FFFFFFB9            I_NLUN           00000140            QIO_SIZE         00000022
IE.TMO         = FFFFFFB6            I_PC             00000184            RSX$C_SUBSYSTEM= 00000006
IE.ULK         = FFFFFFAB            I_PROCNAME       00000128            RSX$GLUN         00000000 RG    05
IE.ULN         = FFFFFFFB            I_PS             00000188            RSX$GPRT         00000048 RG    05
IE.UNS         = FFFFFFFC            I_PWRAST         0000019C            RSX$GTIM         0000008D RG    05
IE.UPN         = FFFFFFFF            I_R0             00000164            RSX$GTSK         0000005F RG    05
IE.VER         = FFFFFFFC            I_R1             00000168            RSX$_ACCVIO    = 00068044
IE.WAC         = FFFFFFE3            I_R2             0000016C            RSX$_BADLIBREF = 0006806C
IE.WAT         = FFFFFFE1            I_R3             00000170            RSX$_BADSTACK  = 0006804C
IE.WCK         = FFFFFFAA            I_R4             00000174            RSX$_BREAK     = 0006800C
IE.WER         = FFFFFFDF            I_R5             00000178            RSX$_EXITSTATUS= 00068180
IE.WLK         = FFFFFFF4            I_R6             0000017C            RSX$_EXTERNABRT= 0006805C
IE.WOV         = FFFFFFAB            I_RAD50NAME      00000124            RSX$_ILLINST   = 0006802C
IS.BV          = 00000005            I_RCVAST         00000198            RSX$_INSFDYNMEM= 00068054
IS.CC          = 00000301            I_RCVMAIL        0000013C            RSX$_IOT       = 00068014
IS.CLR         = 00000000            I_RUNFLAGS       00000190            RSX$_LIBNOTFND = 00068074
IS.CR          = 00000D01            I_SCRATCH        00000000            RSX$_LOADERROR = 0006807C
IS.EOT         = 00000401            I_STATE          0000014C            RSX$_NONRSXEMT = 0006801C
IS.ESC         = 00001B01            I_TYPE           00000180            RSX$_NOSUCHDEV = 000680C2
IS.ESQ         = 00009B01            I_UIC            00000118            RSX$_NOTSKIMG  = 00068064
IS.PES         = 00008001            I_WAIT           00000154            RSX$_ODDADDR   = 00068034
IS.PND         = 00000000            I_WAITSAVE       0000015C            RSX$_PMD       = 000680CA
IS.RDD         = 00000002            LUTC_CR        = 00000005            RSX$_RCVMBXSIZ = 0000012C
IS.SET         = 00000002            LUTC_DISK      = 00000002            RSX$_RESERVED  = 00068004
IS.SPD         = 00000002            LUTC_LP        = 00000004            RSX$_TBIT      = 0006803C
IS.SUC         = 00000001            LUTC_RMS       = 00000000            RSX$_TRAP      = 00068024
IS.TAB         = 00000901            LUTC_TAPE      = 00000003            SV_ASTLVL        00000005
IS.TMO         = 00000002            LUTC_TRM       = 00000001            SV_DCL           00000002
I_ADR0           000000D8            LUTV_CTRLC     = 00000002            SV_FLOATAST      0000000A
I_ASCIINAME      0000011C            LUTV_CTRLO     = 00000000            SV_FRESTORE      00000003
I_ASTPOOL        000000A8            LUTV_PRM       = 00000003            SV_NOAST         00000004
I_ASTQUEUE       000000A0            LUTV_TI        = 00000001            SV_PENDWAIT      00000006
I_BAILOUTFP      0000018C            LUT_CHAN         0000000C            SV_PWRAST        00000009
I_CMDAD          000000C4            LUT_CHAR         00000014            SV_RCVAST        00000008
I_CMDSZ          000000C0            LUT_CTRLC        00000034            SV_RESTORE       00000000
I_CURAST         00000194            LUT_FLAGS        0000000A            SV_TRANSLATE     00000001
I_FCBPOOL        000000B0            LUT_INFONAME     00000030            SV_WAIT          00000007
I_FCC            000001B0            LUT_INFOUNIT     00000032            SYS$NUMTIM       ********   X   05
I_FLOATA0        000001BC            LUT_LINK         00000000            S_PC             00000020
I_FLOATA1        000001C4            LUT_REALNAME     00000020            S_PS             00000024
I_FLOATA2        000001CC            LUT_REF          00000008            S_R0             00000000
I_FLOATA3        000001D4            LUT_RSXNAME      00000010            S_R1             00000004
I_FLOATA4        000001DC            LUT_RSXUNIT      00000012            S_R2             00000008
I_FLOATA5        000001E4            LUT_SIZE         00000038            S_R3             0000000C
I_FLOATADR       000001AC            LUT_TYPE         00000018            S_R4             00000010
I_FLOATAST       000001A0            LUT_UNIT         00000020            S_R5             00000014
I_FLOATCSR       000001A4            PSL_CC         = 00000000            S_R6             00000018
I_FLOATERR       000001A8            PSL_CM         = 0000001F            S_TYPE           0000001C
I_FLOATTMP       000001B4            PSL_FPD        = 0000001B            W.BATT           00000006
I_GARD           000000C8            PSL_FU         = 00000006            W.BFPD           0000000C
I_HIGHEFN        00000148            PSL_TBIT       = 00000004            W.BHVR           00000004
I_HIGHSIZE       000000D0            QIOV_FILES     = 00000000            W.BLGH           00000010
I_IMAGEVBN       000000D4            QIO_FLAGS        0000001C            W.BLPD           0000000E
RSXINFO         - RSX-11M INFORMATIONAL DIRECTIVES               22-AUG-1978 00:24:21   VAX-11 MACRO X0.3-11               Page   9
SYMBOL TABLE                                                                                                                     (5)

W.BLVR           00000002
W.BNPD           0000000D
W.BOFF           0000000A
W.BPCB           00000000
W.BSIZ           00000008


PROGRAM SECTION SYNOPSIS

.  ABS  .        00000000      00     NOPIC   USR   CON   ABS   LCL NOSHR NOEXE NORD  NOWRT BYTE
. BLANK .        00000000      01     NOPIC   USR   CON   REL   LCL NOSHR   EXE   RD    WRT BYTE
..ABS.           00000042      02     NOPIC   USR   CON   ABS   LCL NOSHR   EXE   RD    WRT BYTE
$ABS$            00000000      03     NOPIC   USR   CON   ABS   LCL NOSHR   EXE   RD    WRT BYTE
RSXDEF           000001F0      04     NOPIC   USR   CON   ABS   LCL NOSHR   EXE   RD    WRT BYTE
RSXCODE          000000AF      05     NOPIC   USR   CON   REL   LCL NOSHR   EXE   RD  NOWRT BYTE


THERE WERE NO ERRORS OR WARNINGS.
17382. BYTES LEFT IN FREE MEMORY POOL.
28. BYTES OF RECLAIMED MEMORY.
OBJ$:RSXINFO,LIS$:RSXINFO/-SP=SRC$:C,RSXINFO
18 MLB DIR RDS - 483 GETS TO DEFINE 18 MACROS. 13 INTER. FILE WRITES.
