RSXIMPURE       - RSXIMPURE DATA SECTION                         22-AUG-1978 00:29:40   VAX-11 MACRO X0.3-11               Page   1
00                                                                                                                               (1)

                                     0000     1 	.TITLE	RSXIMPURE - RSXIMPURE DATA SECTION
                                     0000     2 	.IDENT	/00/
                                     0000     3 ;
                                     0000     4 ; COPYRIGHT (C) 1977
                                     0000     5 ; DIGITAL EQUIPMENT CORPORATION, MAYNARD, MASS.
                                     0000     6 ;
                                     0000     7 ; THIS SOFTWARE IS FURNISHED UNDER  A LICENSE FOR USE ONLY  ON  A
                                     0000     8 ; SINGLE COMPUTER SYSTEM AND MAY BE  COPIED ONLY WITH  THE INCLU-
                                     0000     9 ; SION OF  THE  ABOVE  COPYRIGHT NOTICE.  THIS SOFTWARE,  OR  ANY
                                     0000    10 ; OTHER COPIES THEREOF, MAY NOT BE  PROVIDED  OR  OTHERWISE  MADE
                                     0000    11 ; AVAILABLE TO ANY OTHER PERSON EXCEPT  FOR  USE  ON  SUCH SYSTEM
                                     0000    12 ; AND TO  ONE WHO AGREES  TO  THESE LICENSE  TERMS.  TITLE TO AND
                                     0000    13 ; OWNERSHIP OF THE SOFTWARE SHALL AT ALL TIMES REMAIN IN DEC.
                                     0000    14 ;
                                     0000    15 ; THE INFORMATION IN THIS SOFTWARE  IS  SUBJECT TO CHANGE WITHOUT
                                     0000    16 ; NOTICE AND SHOULD NOT BE CONSTRUED  AS  A COMMITMENT BY DIGITAL
                                     0000    17 ; EQUIPMENT CORPORATION.
                                     0000    18 ;
                                     0000    19 ; DEC ASSUMES NO RESPONSIBILITY FOR THE USE OR RELIABILITY OF ITS
                                     0000    20 ; SOFTWARE ON EQUIPMENT WHICH IS NOT SUPPLIED BY DEC.
                                     0000    21 ;
                                     0000    22 ;++
                                     0000    23 ;
                                     0000    24 ; FACILITY:
                                     0000    25 ;
                                     0000    26 ;	STARTLET RSX11M COMPATIBILITY MODE EMULATOR FOR HARDWIRED TASKS
                                     0000    27 ;
                                     0000    28 ; ABSTRACT:
                                     0000    29 ;
                                     0000    30 ; 	DEFINITION FILE FOR THE RSX IMPURE DATA AREA
                                     0000    31 ;--
                                     0000    32 ;
                                     0000    33 ; AUTHOR: R.HEINEN  15-FEB-77
                                     0000    34 ;
                                     0000    35 ;++
                                     0000    36 ;
                                     0000    37 ; THIS MODULE DEFINES THE RESERVED SPACE FOR THE PER IMAGE DATA BASE.
                                     0000    38 ;
                                     0000    39 ; THE OFFSETS "I_" ETC. ARE VALID. THIS SECTION IS PLACED AT THE TOP
                                     0000    40 ; OF THE RSX P0 ALLOCATION, NO EXPANSION IS PERMITTED.
                                     0000    41 ;
                                     0000    42 ;--
                                     0000    43 ;
                                     0000    44 ; EXTERNAL DEFINITIONS
                                     0000    45 ;
                                     0000    46 	$CORSXDEF			; DEFINE RSX INTERNAL SYMBOLS
                                     0000    47 	$DEVDEF				; DEFINE DEVICE CHARACTERISTICS
                                     0000    48 	$TTDEF				; DEFINE TERMINAL SYMBOLS
                                     0000    49
                                     0000    50 ;
                                     0000    51 ; RMS DEFINITIONS
                                     0000    52 ;
                                     0000    53
                                     0000    54 	.IF NDF	C$$ORE
                                     0000    55
                                     0000    56 	$FABDEF				; DEFINE FAB
                                     0000    57
RSXIMPURE       - RSXIMPURE DATA SECTION                         22-AUG-1978 00:29:40   VAX-11 MACRO X0.3-11               Page   2
00                                                                                                                               (1)

                                     0000    58 	.ENDC
                                     0000    59
                                     0000    60 ;
                                     0000    61 ; LOCAL MACRO
                                     0000    62 ;
                                     0000    63 	.MACRO	DEVDEF	A
                                     0000    64 	.LONG	0,0
                                     0000    65 	.WORD	0,1
                                     0000    66 	.LONG	0
                                     0000    67 	.ASCII	/'A/
                                     0000    68 	.WORD	0
                                     0000    69 	.LONG	0,0,0,0,0,0,0,0,0,0,0
                                     0000    70 	.ENDM
                                     0000    71
                                 00000000    72 	.PSECT	RSXIMPURE,NOEXE,LONG
                                     0000    73 	.ALIGN	LONG
                                     0000    74
                                     0000    75 RSX$A_POOL::				; POOL ADDRESS
                  00000000 00000000  0000    76 	.LONG	0,0			;
                                     0008    77 RSX$A_EXITBLOCK::			; EXIT BLOCK
                           00000000  0008    78 	.LONG	0			;
                           00000000' 000C    79 	.LONG	RSX$RETEXIT		; ADDRESS OF SERVICE ROUTINE
                           00000000  0010    80 	.LONG	0			; NO ARGUMENTS
                           00000014' 0014    81 	.LONG	.			; ADDRESS TO STORE ARG
                                     0018    82
                                     0018    83 ;
                                     0018    84 ; RESTART FLAG AND REGISTER R8 - R10 CONTEXT
                                     0018    85 ;
                                     0018    86
                                     0018    87 	.IF DF	C$$ORE
                                     0018    88
                           00000028  0018    89 RSX$A_REGSAV::.BLKQ	2		;
                           00000000  0028    90 RSX$A_RESTART::.LONG	0		; ZERO ON INITIAL IMAGE LOAD
                                     002C    91
                                     002C    92 	.ENDC
                                     002C    93
                                     002C    94
                                     002C    95 ;
                                     002C    96 ; RAB AND FAB FOR ACCESS TO ALL PROCESS PERMANENT FILES
                                     002C    97 ;
                                     002C    98
                                     002C    99 	.IF NDF	C$$ORE
                                     002C   100
                                     002C   101 RSX$A_RAB::				;
                                     002C   102 	$RAB				;
                                     002C   103 RSX$A_FAB::				;
                                     002C   104 	$FAB				;
                                     002C   105
                                     002C   106 	.ENDC
                                     002C   107
                                     002C   108 ;
                                     002C   109 ; PRE-DEFINED LOGICAL NAME ENTRIES
                                     002C   110 ;
                                     002C   111 ;
                                     002C   112 ; ENTRY FOR TI:
                                     002C   113 ;
                                     002C   114 RSX$A_TIIDEV::				; TI DESC. FOR INPUT
RSXIMPURE       - RSXIMPURE DATA SECTION                         22-AUG-1978 00:29:40   VAX-11 MACRO X0.3-11               Page   3
00                                                                                                                               (1)

                                     002C   115 	DEVDEF	<TI>
                                     006C   116 RSX$A_TIODEV::				; TI OUTPUT DESC.
                                     006C   117 	DEVDEF	<TI>
                                     00AC   118 RSX$A_CLDEV::				; CL OR ERROR DEVICE
                                     00AC   119 	DEVDEF	<CL>
                                     00EC   120 RSX$A_CODEV::				; CO DESC.
                                     00EC   121 	DEVDEF	<CO>
                                     012C   122 RSX$A_SYDEV::				; SY DESC.
                                     012C   123 	DEVDEF	<SY>
                                     016C   124 RSX$A_OVDEV::				; OV DESC.
                                     016C   125 	DEVDEF	<OV>
                                     01AC   126 ;
                                     01AC   127 ; LOGICAL TOP OF RSX AME IMAGE
                                     01AC   128 ;
                                 00000000   129 	.PSECT	________RSXPOOL,PAGE,WRT,EXE
                                     0000   130
                                     0000   131
                                     0000   132
                                     0000   133 RSX$A_IMPURE::
                                     0000   134
                                     0000   135 	.IF DF	C$$ORE
                                     0000   136
                           0000099C  0000   137 	.BLKB	CO_POOLSIZE		; FIXED POOL ALLOCATION
                                     099C   138
                                     099C   139 	.IFF
                                     099C   140
                                     099C   141 	.BLKB	I_LENGTH		;
                                     099C   142
                                     099C   143 	.ENDC
                                     099C   144
                                     099C   145 	.END
RSXIMPURE       - RSXIMPURE DATA SECTION                         22-AUG-1978 00:29:40   VAX-11 MACRO X0.3-11               Page   4
SYMBOL TABLE                                                                                                                     (1)

$$MSG          = 00000000            DEV$V_ELG      = 00000016            H.PFVA           0000001A
...GBL         = 00000000            DEV$V_FOD      = 0000000E            H.RCVA           0000001E
ACBC_CTLRCAST  = 00000002            DEV$V_FOR      = 00000018            H.RRVA           00000032
ACBC_FLOATAST  = 00000003            DEV$V_GEN      = 00000011            H.SPRI           00000030
ACBC_PWRAST    = 00000000            DEV$V_IDV      = 0000001A            H.TKVA           00000016
ACBC_RCVAST    = 00000001            DEV$V_MBX      = 00000014            H.TKVL           00000018
ACBV_INPROG    = 00000001            DEV$V_MNT      = 00000013            H.VEXT           0000002E
ACBV_PERM      = 00000000            DEV$V_NET      = 0000000D            H.WND            00000024
ACBV_TYPE      = 00000008            DEV$V_ODV      = 0000001B            IE.2DV         = FFFFFFD0
ACB_FLAGS        0000000C            DEV$V_RCK      = 0000001E            IE.ABO         = FFFFFFF1
ACB_LINK         00000000            DEV$V_REC      = 00000000            IE.ALC         = FFFFFFAC
ACB_UPC          0000000A            DEV$V_RND      = 0000001C            IE.ALN         = FFFFFFDE
ACB_UPRM         00000008            DEV$V_RTM      = 0000001D            IE.AST         = FFFFFFB0
ADR_HIGHLIM      00000004            DEV$V_SDI      = 00000004            IE.BAD         = FFFFFFFF
ADR_LOWLIM       00000000            DEV$V_SHR      = 00000010            IE.BBE         = FFFFFFC8
ADR_SIZE         00000008            DEV$V_SPL      = 00000006            IE.BCC         = FFFFFFBE
AP_NAME          00000004            DEV$V_SQD      = 00000005            IE.BDI         = FFFFFFCC
AST_PARAM        00000004            DEV$V_SWL      = 00000019            IE.BDR         = FFFFFFCE
AST_PC           00000010            DEV$V_TRM      = 00000002            IE.BDV         = FFFFFFC9
AST_PSL          00000014            DEV$V_WCK      = 0000001F            IE.BHD         = FFFFFFC0
AST_R0           00000008            FCB_ATTRIBS      0000007C            IE.BLB         = FFFFFFBA
AST_R1           0000000C            FCB_FIB          0000004C            IE.BLK         = FFFFFFEC
BIT...         = 00000008            FCB_FID          00000000            IE.BNM         = FFFFFFCA
C$$ORE         = 00000000            FCB_FNAME        00000014            IE.BTF         = FFFFFFB4
CO_POOLSIZE      0000099C            FCB_FNAMEDESC    0000000C            IE.BTP         = FFFFFFD5
C_CANONPS      = 83C00000            FCB_FNB          00000002            IE.BVR         = FFFFFFC1
C_RCVDSTR      = 44564352            FCB_PC           00000078            IE.BYT         = FFFFFFED
DEV$M_ALL      = 00800000            FCB_RESULT       00000030            IE.CKS         = FFFFFFE2
DEV$M_AVL      = 00040000            FCB_RESULTDESC   00000004            IE.CLO         = FFFFFFDA
DEV$M_CCL      = 00000002            FCB_SIZE         000000B4            IE.CNR         = FFFFFFB7
DEV$M_DIR      = 00000008            FP_AP            00000008            IE.CON         = FFFFFFEA
DEV$M_DMT      = 00200000            FP_FP            0000000C            IE.DAA         = FFFFFFF8
DEV$M_ELG      = 00400000            FP_PC            00000010            IE.DAO         = FFFFFFF3
DEV$M_FOD      = 00004000            FP_PSL           00000004            IE.DFU         = FFFFFFE8
DEV$M_FOR      = 01000000            FP_REGISTERS     00000014            IE.DNA         = FFFFFFF9
DEV$M_GEN      = 00020000            GBL...         = 00000000            IE.DNR         = FFFFFFFD
DEV$M_IDV      = 04000000            H.CSP            00000000            IE.DUN         = FFFFFFF7
DEV$M_MBX      = 00100000            H.CUIC           00000008            IE.DUP         = FFFFFFC7
DEV$M_MNT      = 00080000            H.DSW            00000026            IE.EOF         = FFFFFFF6
DEV$M_NET      = 00002000            H.DUIC           0000000A            IE.EOT         = FFFFFFC2
DEV$M_ODV      = 08000000            H.EFLM           00000004            IE.EOV         = FFFFFFF5
DEV$M_RCK      = 40000000            H.EFSV           00000020            IE.EXP         = FFFFFFB5
DEV$M_REC      = 00000001            H.FCS            00000028            IE.FEX         = FFFFFFCF
DEV$M_RND      = 10000000            H.FORT           0000002A            IE.FHE         = FFFFFFC5
DEV$M_RTM      = 20000000            H.FPSA           00000022            IE.FLN         = FFFFFFAF
DEV$M_SDI      = 00000010            H.FPVA           0000001C            IE.FOP         = FFFFFFCB
DEV$M_SHR      = 00010000            H.GARD           0000003A            IE.HFU         = FFFFFFE4
DEV$M_SPL      = 00000040            H.HDLN           00000002            IE.IES         = FFFFFFAE
DEV$M_SQD      = 00000020            H.IPC            0000000E            IE.IFC         = FFFFFFFE
DEV$M_SWL      = 02000000            H.IPS            0000000C            IE.IFU         = FFFFFFE7
DEV$M_TRM      = 00000004            H.ISP            00000010            IE.ILL         = FFFFFFD6
DEV$M_WCK      = 80000000            H.LUN            0000003E            IE.ISQ         = FFFFFFC3
DEV$V_ALL      = 00000017            H.NLUN           0000003C            IE.LCK         = FFFFFFE5
DEV$V_AVL      = 00000012            H.NML            00000031            IE.MOD         = FFFFFFEB
DEV$V_CCL      = 00000001            H.ODVA           00000012            IE.NBF         = FFFFFFD9
DEV$V_DIR      = 00000003            H.ODVL           00000014            IE.NBK         = FFFFFFD7
DEV$V_DMT      = 00000015            H.OVLY           0000002C            IE.NDR         = FFFFFFB8
RSXIMPURE       - RSXIMPURE DATA SECTION                         22-AUG-1978 00:29:40   VAX-11 MACRO X0.3-11               Page   5
SYMBOL TABLE                                                                                                                     (1)

IE.NFI         = FFFFFFC4            I_FCC            000001B0            LUT_INFOUNIT     00000032
IE.NFW         = FFFFFFBB            I_FLOATA0        000001BC            LUT_LINK         00000000
IE.NLK         = FFFFFFB1            I_FLOATA1        000001C4            LUT_REALNAME     00000020
IE.NLN         = FFFFFFDB            I_FLOATA2        000001CC            LUT_REF          00000008
IE.NNC         = FFFFFFB3            I_FLOATA3        000001D4            LUT_RSXNAME      00000010
IE.NNL         = FFFFFFB2            I_FLOATA4        000001DC            LUT_RSXUNIT      00000012
IE.NNN         = FFFFFFBC            I_FLOATA5        000001E4            LUT_SIZE         00000038
IE.NOD         = FFFFFFE9            I_FLOATADR       000001AC            LUT_TYPE         00000018
IE.NSF         = FFFFFFE6            I_FLOATAST       000001A0            LUT_UNIT         00000020
IE.NST         = FFFFFFB0            I_FLOATCSR       000001A4            PSL_CC         = 00000000
IE.OFL         = FFFFFFBF            I_FLOATERR       000001A8            PSL_CM         = 0000001F
IE.ONP         = FFFFFFFB            I_FLOATTMP       000001B4            PSL_FPD        = 0000001B
IE.OVR         = FFFFFFEE            I_GARD           000000C8            PSL_FU         = 00000006
IE.PES         = FFFFFFAD            I_HIGHEFN        00000148            PSL_TBIT       = 00000004
IE.PRI         = FFFFFFF0            I_HIGHSIZE       000000D0            QIOV_FILES     = 00000000
IE.RAC         = FFFFFFD4            I_IMAGEVBN       000000D4            QIO_FLAGS        0000001C
IE.RAT         = FFFFFFD3            I_INISIZE        000000CC            QIO_FUNCTION     0000001A
IE.RBG         = FFFFFFD8            I_LENGTH         000001EC            QIO_IOSB         0000000E
IE.RCN         = FFFFFFD2            I_LOGNAME        000000B8            QIO_LUT          00000016
IE.RER         = FFFFFFE0            I_LUT            00000144            QIO_SECONDBLK    0000001E
IE.RNM         = FFFFFFCD            I_NLUN           00000140            QIO_SIZE         00000022
IE.RSU         = FFFFFFEF            I_PC             00000184            RSX$A_CLDEV      000000AC RG    06
IE.SNC         = FFFFFFDD            I_PROCNAME       00000128            RSX$A_CODEV      000000EC RG    06
IE.SPC         = FFFFFFFA            I_PS             00000188            RSX$A_EXITBLOCK  00000008 RG    06
IE.SQC         = FFFFFFDC            I_PWRAST         0000019C            RSX$A_IMPURE     00000000 RG    07
IE.SRE         = FFFFFFF2            I_R0             00000164            RSX$A_OVDEV      0000016C RG    06
IE.STK         = FFFFFFC6            I_R1             00000168            RSX$A_POOL       00000000 RG    06
IE.TMM         = FFFFFFB9            I_R2             0000016C            RSX$A_REGSAV     00000018 RG    06
IE.TMO         = FFFFFFB6            I_R3             00000170            RSX$A_RESTART    00000028 RG    06
IE.ULK         = FFFFFFAB            I_R4             00000174            RSX$A_SYDEV      0000012C RG    06
IE.VER         = FFFFFFFC            I_R5             00000178            RSX$A_TIIDEV     0000002C RG    06
IE.WAC         = FFFFFFE3            I_R6             0000017C            RSX$A_TIODEV     0000006C RG    06
IE.WAT         = FFFFFFE1            I_RAD50NAME      00000124            RSX$C_SUBSYSTEM= 00000006
IE.WCK         = FFFFFFAA            I_RCVAST         00000198            RSX$RETEXIT      ********   X   06
IE.WER         = FFFFFFDF            I_RCVMAIL        0000013C            RSX$_ACCVIO    = 00068044
IE.WLK         = FFFFFFF4            I_RUNFLAGS       00000190            RSX$_BADLIBREF = 0006806C
IS.BV          = 00000005            I_SCRATCH        00000000            RSX$_BADSTACK  = 0006804C
IS.CC          = 00000301            I_STATE          0000014C            RSX$_BREAK     = 0006800C
IS.CR          = 00000D01            I_TYPE           00000180            RSX$_EXITSTATUS= 00068180
IS.EOT         = 00000401            I_UIC            00000118            RSX$_EXTERNABRT= 0006805C
IS.ESC         = 00001B01            I_WAIT           00000154            RSX$_ILLINST   = 0006802C
IS.ESQ         = 00009B01            I_WAITSAVE       0000015C            RSX$_INSFDYNMEM= 00068054
IS.PES         = 00008001            LUTC_CR        = 00000005            RSX$_IOT       = 00068014
IS.PND         = 00000000            LUTC_DISK      = 00000002            RSX$_LIBNOTFND = 00068074
IS.RDD         = 00000002            LUTC_LP        = 00000004            RSX$_LOADERROR = 0006807C
IS.SUC         = 00000001            LUTC_RMS       = 00000000            RSX$_NONRSXEMT = 0006801C
IS.TAB         = 00000901            LUTC_TAPE      = 00000003            RSX$_NOSUCHDEV = 000680C2
IS.TMO         = 00000002            LUTC_TRM       = 00000001            RSX$_NOTSKIMG  = 00068064
I_ADR0           000000D8            LUTV_CTRLC     = 00000002            RSX$_ODDADDR   = 00068034
I_ASCIINAME      0000011C            LUTV_CTRLO     = 00000000            RSX$_PMD       = 000680CA
I_ASTPOOL        000000A8            LUTV_PRM       = 00000003            RSX$_RCVMBXSIZ = 0000012C
I_ASTQUEUE       000000A0            LUTV_TI        = 00000001            RSX$_RESERVED  = 00068004
I_BAILOUTFP      0000018C            LUT_CHAN         0000000C            RSX$_TBIT      = 0006803C
I_CMDAD          000000C4            LUT_CHAR         00000014            RSX$_TRAP      = 00068024
I_CMDSZ          000000C0            LUT_CTRLC        00000034            SV_ASTLVL        00000005
I_CURAST         00000194            LUT_FLAGS        0000000A            SV_DCL           00000002
I_FCBPOOL        000000B0            LUT_INFONAME     00000030            SV_FLOATAST      0000000A
RSXIMPURE       - RSXIMPURE DATA SECTION                         22-AUG-1978 00:29:40   VAX-11 MACRO X0.3-11               Page   6
SYMBOL TABLE                                                                                                                     (1)

SV_FRESTORE      00000003            TT$V_ESCAPE    = 00000003
SV_NOAST         00000004            TT$V_HOLDSCREEN= 0000000E
SV_PENDWAIT      00000006            TT$V_HOSTSYNC  = 00000004
SV_PWRAST        00000009            TT$V_LFFILL    = 0000000B
SV_RCVAST        00000008            TT$V_LOWER     = 00000007
SV_RESTORE       00000000            TT$V_MBXDSABL  = 00000010
SV_TRANSLATE     00000001            TT$V_MECHTAB   = 00000008
SV_WAIT          00000007            TT$V_NOBRDCST  = 00000011
S_PC             00000020            TT$V_NOECHO    = 00000001
S_PS             00000024            TT$V_NOTYPEAHD = 00000002
S_R0             00000000            TT$V_ODD       = 00000007
S_R1             00000004            TT$V_PAGE      = 00000019
S_R2             00000008            TT$V_PARITY    = 00000006
S_R3             0000000C            TT$V_PASSALL   = 00000000
S_R4             00000010            TT$V_REMOTE    = 0000000D
S_R5             00000014            TT$V_SCOPE     = 0000000C
S_R6             00000018            TT$V_SCRIPT    = 00000006
S_TYPE           0000001C            TT$V_TTSYNC    = 00000005
TT$C_BAUD_110  = 00000003            TT$V_WRAP      = 00000009
TT$C_BAUD_1200 = 00000008            TT$_LA120      = 00000021
TT$C_BAUD_134  = 00000004            TT$_LA36       = 00000020
TT$C_BAUD_150  = 00000005            TT$_LAX        = 00000020
TT$C_BAUD_1800 = 00000009            TT$_UNKNOWN    = 00000000
TT$C_BAUD_2000 = 0000000A            TT$_VT05       = 00000001
TT$C_BAUD_2400 = 0000000B            TT$_VT52       = 00000040
TT$C_BAUD_300  = 00000006            TT$_VT55       = 00000041
TT$C_BAUD_3600 = 0000000C            TT$_VT5X       = 00000040
TT$C_BAUD_4800 = 0000000D            W.BATT           00000006
TT$C_BAUD_50   = 00000001            W.BFPD           0000000C
TT$C_BAUD_600  = 00000007            W.BHVR           00000004
TT$C_BAUD_7200 = 0000000E            W.BLGH           00000010
TT$C_BAUD_75   = 00000002            W.BLPD           0000000E
TT$C_BAUD_9600 = 0000000F            W.BLVR           00000002
TT$M_CRFILL    = 00000400            W.BNPD           0000000D
TT$M_EIGHTBIT  = 00008000            W.BOFF           0000000A
TT$M_ESCAPE    = 00000008            W.BPCB           00000000
TT$M_HOLDSCREEN= 00004000            W.BSIZ           00000008
TT$M_HOSTSYNC  = 00000010
TT$M_LFFILL    = 00000800
TT$M_LOWER     = 00000080
TT$M_MBXDSABL  = 00010000
TT$M_MECHTAB   = 00000100
TT$M_NOBRDCST  = 00020000
TT$M_NOECHO    = 00000002
TT$M_NOTYPEAHD = 00000004
TT$M_ODD       = 00000080
TT$M_PAGE      = FE000000
TT$M_PARITY    = 00000040
TT$M_PASSALL   = 00000001
TT$M_REMOTE    = 00002000
TT$M_SCOPE     = 00001000
TT$M_SCRIPT    = 00000040
TT$M_TTSYNC    = 00000020
TT$M_WRAP      = 00000200
TT$S_PAGE      = 00000008
TT$V_CRFILL    = 0000000A
TT$V_EIGHTBIT  = 0000000F
RSXIMPURE       - RSXIMPURE DATA SECTION                         22-AUG-1978 00:29:40   VAX-11 MACRO X0.3-11               Page   7
PROGRAM SECTION SYNOPSIS                                                                                                         (1)


PROGRAM SECTION SYNOPSIS

.  ABS  .        00000000      00     NOPIC   USR   CON   ABS   LCL NOSHR NOEXE NORD  NOWRT BYTE
. BLANK .        00000000      01     NOPIC   USR   CON   REL   LCL NOSHR   EXE   RD    WRT BYTE
..ABS.           00000042      02     NOPIC   USR   CON   ABS   LCL NOSHR   EXE   RD    WRT BYTE
$ABS$            00000000      03     NOPIC   USR   CON   ABS   LCL NOSHR   EXE   RD    WRT BYTE
RSXDEF           000001F0      04     NOPIC   USR   CON   ABS   LCL NOSHR   EXE   RD    WRT BYTE
ABS              0000099C      05     NOPIC   USR   CON   ABS   LCL NOSHR   EXE   RD    WRT LONG
RSXIMPURE        000001AC      06     NOPIC   USR   CON   REL   LCL NOSHR NOEXE   RD    WRT LONG
________RSXPOOL  0000099C      07     NOPIC   USR   CON   REL   LCL NOSHR   EXE   RD    WRT PAGE


THERE WERE NO ERRORS OR WARNINGS.
14278. BYTES LEFT IN FREE MEMORY POOL.
696. BYTES OF RECLAIMED MEMORY.
OBJ$:RSXIMPURE,LIS$:RSXIMPURE/-SP=SRC$:C,RSXIMPURE
22 MLB DIR RDS - 539 GETS TO DEFINE 17 MACROS. 26 INTER. FILE WRITES.
