SMBPRE          - PRINT SYMBIONT PREFIX FILE                     21-AUG-1978 21:31:01   VAX-11 MACRO X0.3-11               Page   0
TABLE OF CONTENTS

   (1)    3800  DECLARATIONS
   (1)    4100  DECLARATIONS
   (1)   15100  GENERATE THE CHARACTERS
SMBCHRGEN       - GENERATE A WIDE LINE ON PRINTER                21-AUG-1978 21:31:01   VAX-11 MACRO X0.3-11               Page   1
01              DECLARATIONS                                                                                                     (1)

                                     0000   100 	.TITLE	SMBCHRGEN - GENERATE A WIDE LINE ON PRINTER
                                     0000   200 	.IDENT	/01/
                                     0000   300
                                     0000   400 ;
                                     0000   500 ; COPYRIGHT (C) 1978
                                     0000   600 ; DIGITAL EQUIPMENT CORPORATION, MAYNARD, MASSACHUSETTS 01754
                                     0000   700 ;
                                     0000   800 ; THIS SOFTWARE IS FURNISHED  UNDER A LICENSE FOR USE ONLY ON A SINGLE
                                     0000   900 ; COMPUTER  SYSTEM AND  MAY BE  COPIED ONLY WITH  THE INCLUSION OF THE
                                     0000  1000 ; ABOVE COPYRIGHT NOTICE.  THIS SOFTWARE, OR ANY OTHER COPIES THEREOF,
                                     0000  1100 ; MAY NOT BE PROVIDED OR  OTHERWISE MADE AVAILABLE TO ANY OTHER PERSON
                                     0000  1200 ; EXCEPT FOR USE ON SUCH SYSTEM AND TO ONE WHO AGREES TO THESE LICENSE
                                     0000  1300 ; TERMS.  TITLE TO AND  OWNERSHIP OF THE  SOFTWARE  SHALL AT ALL TIMES
                                     0000  1400 ; REMAIN IN DEC.
                                     0000  1500 ;
                                     0000  1600 ; THE INFORMATION IN THIS SOFTWARE IS SUBJECT TO CHANGE WITHOUT NOTICE
                                     0000  1700 ; AND SHOULD  NOT BE CONSTRUED  AS A COMMITMENT  BY DIGITAL  EQUIPMENT
                                     0000  1800 ; CORPORATION.
                                     0000  1900 ;
                                     0000  2000 ; DEC ASSUMES  NO  RESPONSIBILITY  FOR  THE USE OR  RELIABILITY OF ITS
                                     0000  2100 ; SOFTWARE ON EQUIPMENT WHICH IS NOT SUPPLIED BY DEC.
                                     0000  2200 ;
                                     0000  2300
                                     0000  2400 ;++
                                     0000  2500 ; FACILITY:	VAX/VMS PRINT SYMBIONT
                                     0000  2600 ;
                                     0000  2700 ; ABSTRACT:	THIS ROUTINE WILL PRINT WIDE LINE OF CARACTERS
                                     0000  2800 ;		ON THE PRINTER FOR FLAG/BURST PAGES
                                     0000  2900 ;
                                     0000  3000 ;
                                     0000  3100 ; ENVIRONMENT:	NATIVE/USER MODE NON-PRIVILEGED CODE
                                     0000  3200 ;
                                     0000  3300 ; AUTHOR:	H.B.BOSWELL, CREATION DATE: 21-APR-77
                                     0000  3400 ;
                                     0000  3500 ; MODIFIED BY:
                                     0000  3600 ;
                                     0000  3700 ;	, : VERSION
                                     0000  3800 ; 01	-
                                     0000  3900 ;--
SMBCHRGEN       - GENERATE A WIDE LINE ON PRINTER                21-AUG-1978 21:31:01   VAX-11 MACRO X0.3-11               Page   2
01              DECLARATIONS                                                                                                     (1)

                                     0000  4100 	.SBTTL	DECLARATIONS
                                     0000  4200
                                     0000  4300 	PURE_SECTION
                                     0000  4400
                                     0000  4500 ;
                                     0000  4600 ; INCLUDE FILES:
                                     0000  4700 ;
                                     0000  4800 ;	[PRTSMB.SRC]SMBPRE.MAR
                                     0000  4900
                                     0000  5000 ;
                                     0000  5100 ; MACROS:
                                     0000  5200 ;
                                     0000  5300 ;	MACRO TO GENERATE A TABLE FOR CHARACTER DECODING
                                     0000  5400 ;
                                     0000  5500 	.MACRO	DECTAB	HI,LO,TABLE
                                     0000  5600 	.ASCII	\HI'LO\
                                     0000  5700 	.WORD	TABLE-.
                                     0000  5800 	.ENDM
                                     0000  5900
                                     0000  6000 ;
                                     0000  6100 ; EQUATED SYMBOLS:
                                     0000  6200 ;
                                     0000  6300 ;	DEFINE THE OFFSET TO INPUT ARGUMENTS AS THE APPEAR
                                     0000  6400 ;	AFTER BEING PUSHED INTO THE STACK
                                     0000  6500 ;
                           00000000  0000  6600 	COUNT	= 0			;BYTE COUNT
                           00000004  0000  6700 	ADR	= 4			;BUFFER ADDRESS
                           00000008  0000  6800 	SPACOUT	= 8			;PRECEEDING SPACE COUNT
                           00000009  0000  6900 	HEIGTH	= 9			;NUMBER OF LINES PER ROW
                           0000000A  0000  7000 	WIDTH	= 10			;NUMBER OF CHARACTERS PER COLUMN
                           0000000B  0000  7100 	SPACING	= 11			;INTER CHARACTER SPACING
                                     0000  7200
                                     0000  7300 ;
                                     0000  7400 ; OWN STORAGE:
                                     0000  7500 ;
                                     0000  7600
                                     0000  7700 ;
                                     0000  7800 ; THE FOLLOWING TABLES ARE USED TO GENERATE THE CHARACTERS
                                     0000  7900 ; EACH ENTRY IS 35 BITS LONG, 1 BIT FOR EACH POSITION IN
                                     0000  8000 ; A 5X7 MATRIX.
                                     0000  8100 ;
                                     0000  8200 ;
                                     0000  8300 ALPHA:
      8421 0F9F 18BE 317C 63F8 C62E  0000  8400 	.WORD	^O143056,^O061770,^O030574,^O014276,^O007637,^O102041
      C21F FC21 7843 F7C6 318C 5FE0  000C  8500 	.WORD	^O057740,^O030614,^O173706,^O074103,^O176041,^O141037
      8E8C 63F8 C62E 8F42 10F8 210B  0018  8600 	.WORD	^O020413,^O010370,^O107502,^O143056,^O061770,^O107214
      18A4 E98C 5D18 C210 8388 4210  0024  8700 	.WORD	^O041020,^O101610,^O141020,^O056430,^O164614,^O014244
      CD67 18C6 318D 771F 8421 0843  0030  8800 	.WORD	^O004103,^O102041,^O073437,^O030615,^O014306,^O146547
      C62E 0842 F8C5 EE8C 6318 BA31  003C  8900 	.WORD	^O135061,^O061430,^O167214,^O174305,^O004102,^O143056
      3EF8 41C1 0FA2 92BE 317D 9358  0048  9000 	.WORD	^O111530,^O030575,^O111276,^O007642,^O040701,^O037370
      8A8C 6318 FE31 8C63 1210 8421  0054  9100 	.WORD	^O102041,^O011020,^O106143,^O177061,^O061430,^O105214
      422A 318C 5445 4631 DD63 18C4  0060  9200 	.WORD	^O014304,^O156543,^O043061,^O052105,^O030614,^O041052
                0000 3E11 1110 F908  006C  9300 	.WORD	^O174410,^O010420,^O037021,^O0
                                     0074  9400
                                     0074  9500 ;
                                     0074  9600 ; BIT MASK TABLE FOR NUMBERS 0-9
                                     0074  9700 ;
SMBCHRGEN       - GENERATE A WIDE LINE ON PRINTER                21-AUG-1978 21:31:01   VAX-11 MACRO X0.3-11               Page   3
01              DECLARATIONS                                                                                                     (1)

                                     0074  9800
                                     0074  9900 NUMERIC:
           8B9C 4210 8623 A33A E62E  0074 10000 	.WORD	^O163056,^O121472,^O103043,^O041020,^O105634
 0E1F A108 FA52 9746 0884 5DF1 1110  007E 10100 	.WORD	^O010420,^O056761,^O004204,^O113506,^O175122,^O120410,^O007037
 1746 2E08 8888 41EE 8C5E 10B9 D182  008C 10200 	.WORD	^O150602,^O010271,^O106136,^O040756,^O104210,^O027010,^O013506
                     1D08 7A31 73A3  009A 10300 	.WORD	^O071643,^O075061,^O016410
                                     00A0 10400
                                     00A0 10500 ;
                                     00A0 10600 ; BIT MASK FOR UNDER SCORE CHARACTER
                                     00A0 10700 ;
                                     00A0 10800 UNDERSCORE:
                     0007 C000 0000  00A0 10900 	.WORD	^O0,^O140000,^O7
                                     00A6 11000
                                     00A6 11100 ;
                                     00A6 11200 ; THE DOLLAR SIGN
                                     00A6 11300 ;
                                     00A6 11400
                                     00A6 11500 DOLLARS:
                     0001 1F47 17C4  00A6 11600 	.WORD	^O013704,^O017507,^O1
                                     00AC 11700
                                     00AC 11800 ;
                                     00AC 11900 ; BIT MASK TABLE FOR '.'
                                     00AC 12000 ;
                                     00AC 12100
                                     00AC 12200 DOT:
                     0003 1800 0000  00AC 12300 	.WORD	^O0,^O14000,^O3
                                     00B2 12400
                                     00B2 12500 ;
                                     00B2 12600 ; BIT MASK FOR ':;'
                                     00B2 12700 ;
                                     00B2 12800
           0008 8630 0C60 18C0 3180  00B2 12900 COLONS:	.WORD	^O30600,^O14300,^O006140,^O103060,^O10
                                     00BC 13000
                                     00BC 13100 ;
                                     00BC 13200 ; BIT MASK TABLE FOR ' '
                                     00BC 13300 ;
                                     00BC 13400
                                     00BC 13500 BLANK:
                     0000 0000 0000  00BC 13600 	.WORD	^O0,^O0,^O0
                                     00C2 13700
                                     00C2 13800 ; THE FOLLOWING TABLE IS USED TO DECODE WHICH BIT TABLE CONTAINS
                                     00C2 13900 ; THE INFORMATION ABOUT A GIVEN CHARACTER.
                                     00C2 14000 ;
                                     00C2 14100 DECODE:
                                     00C2 14200 	DECTAB	Z,A,ALPHA		;DECODE ALPHAS
                                     00C6 14300 	DECTAB	9,0,NUMERIC		;AND NUMBERS
                                     00CA 14400 	DECTAB	<;>,<:>,COLONS		;THE COLONS
                                     00CE 14500 	DECTAB	<_>,<_>,UNDERSCORE	;THE UNDERSCORE CHARACTER
                                     00D2 14600 	DECTAB	<$>,<$>,DOLLARS		;THE OLD BUCK MARKER
                                     00D6 14700 	DECTAB	<.>,<.>,DOT		;THE PERIOD
                              00 FF  00DA 14800 	.BYTE	255,0			;CATCH ALL
                               FFE0  00DC 14900 	.WORD	BLANK-.			;PRINT A SPACE
SMBCHRGEN       - GENERATE A WIDE LINE ON PRINTER                21-AUG-1978 21:31:01   VAX-11 MACRO X0.3-11               Page   4
01              GENERATE THE CHARACTERS                                                                                          (1)

                                     00DE 15100 	.SBTTL	GENERATE THE CHARACTERS
                                     00DE 15200 ;++
                                     00DE 15300 ; FUNCTIONAL DESCRIPTION:
                                     00DE 15400 ;
                                     00DE 15500 ;	THIS ROUTINE USES A 5X7 ARRAY OF BITS TO GENERATE
                                     00DE 15600 ;	CHARACTERS ON THE PRINTER.  THE ROUTINE IS USED TO GENERATE
                                     00DE 15700 ;	THE FLAG PAGE.
                                     00DE 15800 ;
                                     00DE 15900 ; CALLING SEQUENCE:
                                     00DE 16000 ;
                                     00DE 16100 ;	BSB/JSB	SMB$CHRGEN
                                     00DE 16200 ;
                                     00DE 16300 ; INPUT PARAMETERS:
                                     00DE 16400 ;
                                     00DE 16500 ;	R2 CONTAINS THE COUNT OF CHARACTER TO OUTPUT
                                     00DE 16600 ;	R3 CONTAINS THE ADDRESS
                                     00DE 16700 ;	R4 CONTAINS:
                                     00DE 16800 ;
                                     00DE 16900 ;		+--------+--------+--------+--------+
                                     00DE 17000 ;		! SPACING! HEIGTH ! WIDTH  ! SPACOUT!
                                     00DE 17100 ;		+--------+--------+--------+--------+
                                     00DE 17200 ; WHERE:
                                     00DE 17300 ;	SPACOUT IS THE NUMBER OF LEADING SPACES ON EACH LINE
                                     00DE 17400 ;	WIDTH   IS THE NUMBER OF TIMES TO REPEAT A CHARACTER ON A ROW
                                     00DE 17500 ;	HEIGTH  IS THE NUMBER OF TIMES EACH LINE IS PRINTED
                                     00DE 17600 ;	SPACING IS THE NUMBER IF BLANK CHARACTERS BETWEEN BIG CHARACTERS
                                     00DE 17700 ;
                                     00DE 17800 ;
                                     00DE 17900 ; IMPLICIT INPUTS:
                                     00DE 18000 ;
                                     00DE 18100 ;	R11 CONTAINS THE ADDRESS OF IMPURE DATA BLOCK
                                     00DE 18200 ;
                                     00DE 18300 ; OUTPUT PARAMETERS:
                                     00DE 18400 ;
                                     00DE 18500 ;	THE WIDE LINE IS PRINTED
                                     00DE 18600 ;
                                     00DE 18700 ; IMPLICIT OUTPUTS:
                                     00DE 18800 ;
                                     00DE 18900 ;	NONE
                                     00DE 19000 ;
                                     00DE 19100 ; COMPLETION CODES:
                                     00DE 19200 ;
                                     00DE 19300 ;	NONE
                                     00DE 19400 ;
                                     00DE 19500 ; SIDE EFFECTS:
                                     00DE 19600 ;
                                     00DE 19700 ;	NONE
                                     00DE 19800 ;
                                     00DE 19900 ;--
                                     00DE 20000
                                     00DE 20100
                                     00DE 20200
                                     00DE 20300 SMB$CHRGEN::				;PRINT A WIDE LINE
                     01FC 8F     BB  00DE 20400 	PUSHR	#^M<R2,R3,R4,R5,R6,R7,R8> ; SAVE NON-VOLATILE REGISTERS
                          58     D4  00E2 20500 	CLRL	R8			;ZERO ROW COUNTER
            56            6E     7D  00E4 20600 10$:	MOVQ	COUNT(SP),R6		;GET COUNT TO R6, LINE ADDRESS TO R7
            50         2B AB     D0  00E7 20700 	MOVL	SD_A_TBUFADR(R11),R0	;BASE ADDRESS OF LINE BUFFER
SMBCHRGEN       - GENERATE A WIDE LINE ON PRINTER                21-AUG-1978 21:31:01   VAX-11 MACRO X0.3-11               Page   5
01              GENERATE THE CHARACTERS                                                                                          (1)

            52         08 AE     9A  00EB 20800 	MOVZBL	SPACOUT(SP),R2		;COUNT OF LEADING SPACES ON THE LINE
                          05     13  00EF 20900 	BEQL	30$			;BR IF NO LEADING SPACES WANTED
            51            20     9A  00F1 21000 20$:	MOVZBL	#^A/ /,R1		;GET A SPACE
                          76     10  00F4 21100 	BSBB	200$			;OUTPUT SPACE CHARACTERS TO LINE
                                     00F6 21200 30$:
            53            67     9A  00F6 21300 	MOVZBL	(R7),R3			;GET CHARACTER TO PRINT
            54         C3 AF     DE  00F9 21400 	MOVAL	DECODE-3,R4		;ADDRESS OF DECODE TABLE
                                     00FD 21500 40$:
            54            03     C0  00FD 21600 	ADDL	#3,R4			;ADVANCE TO NEXT TABLE ENTRY
            84            53     91  0100 21700 	CMPB	R3,(R4)+		;CHECK AGAINST HIGH LIMIT
                          F8     1A  0103 21800 	BGTRU	40$			;BR IF OUT OF LIMIT
            64            53     91  0105 21900 	CMPB	R3,(R4)			;NOW CHECK LOW LIMIT
                          F3     1F  0108 22000 	BLSSU	40$			;BR IF IN RANGE OF TABLE
            53            84     82  010A 22100 	SUBB	(R4)+,R3		;REMOVE TABLE BIAS
            51            64     32  010D 22200 	CVTWL	(R4),R1			;GET OFFSET TO BIT TABLE
            54            51     C0  0110 22300 	ADDL	R1,R4			;FIND REAL ADDRESS OF TABLE
            53            23     C4  0113 22400 	MULL	#35,R3			;FIND INDEX TO FIRST BIT IN CHARACTER
            58            05     C5  0116 22500 	MULL3	#5,R8,R1		;FIND INDEX FOR PROPER ROW
                          51         0119
            53            51     C0  011A 22600 	ADDL	R1,R3			;FIND FIRST BIT TO TEST FOR THIS ROW
            55            05     D0  011D 22700 	MOVL	#5,R5			;SET NUMBER OF COLUMNS TO OUTPUT
            51            67     9A  0120 22800 70$:	MOVZBL	(R7),R1			;GET THE CHARACTER
            64            53     E0  0123 22900 	BBS	R3,(R4),80$		;BR IF NO SPACE THIS TIME
                          03         0126
            51            20     9A  0127 23000 	MOVZBL	#^A/ /,R1		;PRINT SPACES
            52         0A AE     9A  012A 23100 80$:	MOVZBL	WIDTH(SP),R2		;GET NUMBER OF CHARACTERS PER COLUMN
                          3C     10  012E 23200 	BSBB	200$			;OUTPUT CHARACTERS TO THE LINE
                          53     D6  0130 23300 	INCL	R3			;ADJUST BIT NUMBER UP 1
            EB            55     F5  0132 23400 	SOBGTR	R5,70$			;REPEAT FOR 5 TIMES-NUMBER COLUMNS PER
            52         0B AE     9A  0135 23500 	MOVZBL	SPACING(SP),R2		;GET NUMBER OF BLANKS FOR SEPARATION
                          57     D6  0139 23600 	INCL	R7			;ADVANCE CHARACTER POINTER
            B3            56     F5  013B 23700 	SOBGTR	R6,20$			;LOOP AROUND IF MORE CHARACTERS TO DO
            54         09 AE     9A  013E 23800 	MOVZBL	HEIGTH(SP),R4		;GET THE NUMBER OF TIMES TO PRINT LINE
                          50     DD  0142 23900 85$:	PUSHL	R0			;SAVE BUFFER POINTER
            51         2B AB     D0  0144 24000 	MOVL	SD_A_TBUFADR(R11),R1	;GET START OF LINE BUFFER
            50            51     C2  0148 24100 	SUBL	R1,R0			;COMPUTE LENGTH TO R0
                          52     D4  014B 24200 	CLRL	R2			;SET I/O STATUS INDEX
                          FEB0'  30  014D 24300 	BSBW	SMB$WRITELINN		;PRINT THE LINE
            04            50     E8  0150 24400 	BLBS	R0,90$			;BR IF OK
                          02     BA  0153 24500 	POPR	#^M<R1>			;CLEAN UP THE STACK
                          10     11  0155 24600 	BRB	100$			;RETURN
                                     0157 24700 90$:
                          01     BA  0157 24800 	POPR	#^M<R0>			;GET THE BUFFER ADDRESS BACK
            E6            54     F5  0159 24900 	SOBGTR	R4,85$			;REPEAT THE LINE FOR HEIGTH
            01            06     F1  015C 25000 	ACBL	#6,#1,R8,10$		;INC ROW COUNT AND REPEAT UNTIL DONE
            FF82          58         015F
            50       0000'8F     3C  0162 25100 	MOVZWL	#SS$_NORMAL,R0		;SET SUCCESS
                                     0167 25200 100$:
                     01FC 8F     BA  0167 25300 	POPR	#^M<R2,R3,R4,R5,R6,R7,R8> ; RESTORE REGISTERS USED
                                 05  016B 25400 	RSB
                                     016C 25500
                                     016C 25600 ;
                                     016C 25700 ; LOCAL SUBROUTINE TO OUTPUT CHARACTERS TO THE PRINT BUFFER
                                     016C 25800 ;
                                     016C 25900 ;	R0 IS BUFFER ADDRESS
                                     016C 26000 ;	R1 IS CHARACTER
                                     016C 26100 ;	R2 IS COUNT
SMBCHRGEN       - GENERATE A WIDE LINE ON PRINTER                21-AUG-1978 21:31:01   VAX-11 MACRO X0.3-11               Page   6
01              GENERATE THE CHARACTERS                                                                                          (1)

                                     016C 26200 ;
            80            51     90  016C 26300 200$:	MOVB	R1,(R0)+		;STORE THE CHARACTER
            FA            52     F5  016F 26400 	SOBGTR	R2,200$			;REPEAT IF NECESSARY
                                 05  0172 26500 	RSB
                                     0173 26600
                                     0173 26700 	.END
SMBCHRGEN       - GENERATE A WIDE LINE ON PRINTER                21-AUG-1978 21:31:01   VAX-11 MACRO X0.3-11               Page   7
SYMBOL TABLE                                                                                                                     (1)

$$ARGS         = 0000000C            FAB$M_DFW      = 00000020            FAB$V_EXE      = 00000007
$$T1           = 00000034            FAB$M_DLT      = 00008000            FAB$V_FTN      = 00000000
ADR            = 00000004            FAB$M_DMO      = 00001000            FAB$V_GET      = 00000001
ALPHA            00000000 R     03   FAB$M_ESC      = 08000000            FAB$V_INP      = 00000013
BIT...         = 00000004            FAB$M_EXE      = 00000080            FAB$V_JNL      = 00000016
BLANK            000000BC R     03   FAB$M_FTN      = 00000001            FAB$V_KFO      = 0000001E
COLONS           000000B2 R     03   FAB$M_GET      = 00000002            FAB$V_MSE      = 00000004
COUNT          = 00000000            FAB$M_INP      = 00080000            FAB$V_MXV      = 00000001
DECODE           000000C2 R     03   FAB$M_JNL      = 00400000            FAB$V_NAM      = 00000018
DOLLARS          000000A6 R     03   FAB$M_KFO      = 40000000            FAB$V_NEF      = 0000000A
DOT              000000AC R     03   FAB$M_MSE      = 00000010            FAB$V_NFS      = 00000010
FAB$B_BID        00000000            FAB$M_MXV      = 00000002            FAB$V_NIL      = 00000005
FAB$B_BKS        0000003E            FAB$M_NAM      = 01000000            FAB$V_OFP      = 0000001D
FAB$B_BLN        00000001            FAB$M_NEF      = 00000400            FAB$V_ORG      = 00000004
FAB$B_DNS        00000035            FAB$M_NFS      = 00010000            FAB$V_POS      = 00000008
FAB$B_FAC        00000016            FAB$M_NIL      = 00000020            FAB$V_PPF      = 00000012
FAB$B_FNS        00000034            FAB$M_OFP      = 20000000            FAB$V_PPF_IND  = 0000000E
FAB$B_FSZ        0000003F            FAB$M_POS      = 00000100            FAB$V_PPF_RAT  = 00000006
FAB$B_ORG        0000001D            FAB$M_PPF      = 00040000            FAB$V_PRN      = 00000002
FAB$B_RAT        0000001E            FAB$M_PPF_IND  = 00004000            FAB$V_PUT      = 00000000
FAB$B_RFM        0000001F            FAB$M_PPF_RAT  = 00003FC0            FAB$V_RCK      = 00000017
FAB$B_RTV        0000001C            FAB$M_PRN      = 00000004            FAB$V_RWC      = 0000000B
FAB$B_SHR        00000017            FAB$M_PUT      = 00000001            FAB$V_RWO      = 00000007
FAB$C_BID      = 00000003            FAB$M_RCK      = 00800000            FAB$V_SCF      = 0000000E
FAB$C_BLN        00000050            FAB$M_RWC      = 00000800            FAB$V_SHRDEL   = 00000002
FAB$C_FIX      = 00000001            FAB$M_RWO      = 00000080            FAB$V_SHRGET   = 00000001
FAB$C_HSH      = 00000030            FAB$M_SCF      = 00004000            FAB$V_SHRPUT   = 00000000
FAB$C_IDX      = 00000020            FAB$M_SHRDEL   = 00000004            FAB$V_SHRUPD   = 00000003
FAB$C_MAXRFM   = 00000003            FAB$M_SHRGET   = 00000002            FAB$V_SPL      = 0000000D
FAB$C_REL      = 00000010            FAB$M_SHRPUT   = 00000001            FAB$V_SQO      = 00000006
FAB$C_RFM_DFLT = 00000002            FAB$M_SHRUPD   = 00000008            FAB$V_SUP      = 00000002
FAB$C_SEQ      = 00000000            FAB$M_SPL      = 00002000            FAB$V_TEF      = 0000001C
FAB$C_UDF      = 00000000            FAB$M_SQO      = 00000040            FAB$V_TMD      = 00000004
FAB$C_VAR      = 00000002            FAB$M_SUP      = 00000004            FAB$V_TMP      = 00000003
FAB$C_VFC      = 00000003            FAB$M_TEF      = 10000000            FAB$V_TRN      = 00000004
FAB$K_BLN        00000050            FAB$M_TMD      = 00000010            FAB$V_UFM      = 0000001A
FAB$L_ALQ        00000010            FAB$M_TMP      = 00000008            FAB$V_UFO      = 00000011
FAB$L_CTX        00000018            FAB$M_TRN      = 00000010            FAB$V_UPD      = 00000003
FAB$L_DEV        00000040            FAB$M_UFM      = 04000000            FAB$V_UPI      = 00000006
FAB$L_DNA        00000030            FAB$M_UFO      = 00020000            FAB$V_WCK      = 00000009
FAB$L_FNA        0000002C            FAB$M_UPD      = 00000008            FAB$W_BLS        0000003C
FAB$L_FOP        00000004            FAB$M_UPI      = 00000040            FAB$W_DEQ        00000014
FAB$L_JNL        00000020            FAB$M_WCK      = 00000200            FAB$W_IFI        00000002
FAB$L_MRN        00000038            FAB$S_ORG      = 00000004            FAB$W_MRS        00000036
FAB$L_NAM        00000028            FAB$S_PPF_RAT  = 00000008            GBL...         = 00000000
FAB$L_SDC        00000044            FAB$V_BIO      = 00000005            HEIGTH         = 00000009
FAB$L_STS        00000008            FAB$V_BLK      = 00000003            MOD$_ABORT     = 00000004
FAB$L_STV        0000000C            FAB$V_BRO      = 00000006            MOD$_INPERR    = 0000000C
FAB$L_XAB        00000024            FAB$V_CBT      = 00000015            MOD$_PRTERR    = 00000014
FAB$M_BIO      = 00000020            FAB$V_CIF      = 00000019            MOD$_SUCCESS   = 00000001
FAB$M_BLK      = 00000008            FAB$V_CR       = 00000001            MSG$_ABOOPR    = 00000011
FAB$M_BRO      = 00000040            FAB$V_CTG      = 00000014            MSG$_ABORT     = 00000030
FAB$M_CBT      = 00200000            FAB$V_DEL      = 00000002            MSG$_ACCRSP    = 00000021
FAB$M_CIF      = 02000000            FAB$V_DFW      = 00000005            MSG$_CONFIRM   = 00000031
FAB$M_CR       = 00000002            FAB$V_DLT      = 0000000F            MSG$_CONNECT   = 00000032
FAB$M_CTG      = 00100000            FAB$V_DMO      = 0000000C            MSG$_CRUNSOLIC = 00000002
FAB$M_DEL      = 00000004            FAB$V_ESC      = 0000001B            MSG$_DELPROC   = 00000003
SMBCHRGEN       - GENERATE A WIDE LINE ON PRINTER                21-AUG-1978 21:31:01   VAX-11 MACRO X0.3-11               Page   8
SYMBOL TABLE                                                                                                                     (1)

MSG$_DELSMB    = 00000014            NAM$M_EXP_TYPE = 00000002            NAM$W_FID_NUM    00000024
MSG$_DEVOFFLIN = 00000005            NAM$M_EXP_VER  = 00000001            NAM$W_FID_RVN    00000028
MSG$_DEVONLIN  = 00000007            NAM$M_GRP_MBR  = 00080000            NAM$W_FID_SEQ    00000026
MSG$_DISCON    = 00000033            NAM$M_HIGHVER  = 00008000            NAM$W_PRV_DID    0000003A
MSG$_EXIT      = 00000034            NAM$M_LOWVER   = 00004000            NUMERIC          00000074 R     03
MSG$_INIOPR    = 00000010            NAM$M_NODE     = 00020000            PQR$M_BRSTPAG  = 00000004
MSG$_INTMSG    = 00000035            NAM$M_PPF      = 00010000            PQR$M_DELETE   = 00000001
MSG$_OPREPLY   = 00000009            NAM$M_QUOTED   = 00040000            PQR$M_DOUBLE   = 00000008
MSG$_OPRQST    = 00000008            NAM$M_WILDCARD = 00000100            PQR$M_FLAGPAG  = 00000002
MSG$_PATHLOST  = 00000036            NAM$M_WILD_DIR = 00100000            PQR$M_NOFEED   = 00000010
MSG$_PROTOCOL  = 00000037            NAM$M_WILD_GRP = 01000000            PQR$M_PAGHDR   = 00000020
MSG$_REJECT    = 00000038            NAM$M_WILD_MBR = 02000000            PQR$V_BRSTPAG  = 00000002
MSG$_RESOPR    = 00000013            NAM$M_WILD_NAME= 00000020            PQR$V_DELETE   = 00000000
MSG$_SCANBAD   = 00000028            NAM$M_WILD_SFD1= 02000000            PQR$V_DOUBLE   = 00000003
MSG$_SCANRSP   = 00000029            NAM$M_WILD_SFD2= 04000000            PQR$V_FLAGPAG  = 00000001
MSG$_SMBDON    = 00000009            NAM$M_WILD_SFD3= 08000000            PQR$V_NOFEED   = 00000004
MSG$_SMBINI    = 00000008            NAM$M_WILD_SFD4= 10000000            PQR$V_PAGHDR   = 00000005
MSG$_SMBRSP    = 00000020            NAM$M_WILD_SFD5= 20000000            QIO$_ASTADR    = 00000014
MSG$_SNDACC    = 0000000A            NAM$M_WILD_SFD6= 40000000            QIO$_ASTPRM    = 00000018
MSG$_SNDSMB    = 00000004            NAM$M_WILD_SFD7= 80000000            QIO$_CHAN      = 00000008
MSG$_SUSOPR    = 00000012            NAM$M_WILD_TYPE= 00000010            QIO$_EFN       = 00000004
MSG$_THIRDPARTY= 00000039            NAM$M_WILD_UFD = 01000000            QIO$_FUNC      = 0000000C
MSG$_TIMEOUT   = 0000003A            NAM$M_WILD_VER = 00000008            QIO$_IOSB      = 00000010
MSG$_TRMHANGUP = 00000006            NAM$S_DIR_LVLS = 00000003            QIO$_NARGS     = 0000000C
MSG$_TRMUNSOLIC= 00000001            NAM$T_DVI        00000014            QIO$_P1        = 0000001C
MSG$_XM_ATTN   = 0000000D            NAM$V_DIR_LVLS = 00000015            QIO$_P2        = 00000020
MSG$_XM_DATAVL = 0000000B            NAM$V_EXP_DEV  = 00000007            QIO$_P3        = 00000024
MSG$_XM_SHUTDN = 0000000C            NAM$V_EXP_DIR  = 00000006            QIO$_P4        = 00000028
NAM$B_BID        00000000            NAM$V_EXP_NAME = 00000002            QIO$_P5        = 0000002C
NAM$B_BLN        00000001            NAM$V_EXP_TYPE = 00000001            QIO$_P6        = 00000030
NAM$B_CURLVL     00000038            NAM$V_EXP_VER  = 00000000            RAB$B_BID        00000000
NAM$B_ESL        0000000B            NAM$V_GRP_MBR  = 00000013            RAB$B_BLN        00000001
NAM$B_ESS        0000000A            NAM$V_HIGHVER  = 0000000F            RAB$B_KRF        00000035
NAM$B_RSL        00000003            NAM$V_LOWVER   = 0000000E            RAB$B_KSZ        00000034
NAM$B_RSS        00000002            NAM$V_NODE     = 00000011            RAB$B_MBC        00000037
NAM$C_BID      = 00000002            NAM$V_PPF      = 00000010            RAB$B_MBF        00000036
NAM$C_BLN        00000038            NAM$V_QUOTED   = 00000012            RAB$B_PSZ        00000034
NAM$C_BLN_DIRWC  00000050            NAM$V_WILDCARD = 00000008            RAB$B_RAC        0000001E
NAM$C_DVI      = 00000010            NAM$V_WILD_DIR = 00000014            RAB$B_ROP1       00000005
NAM$C_MAXRSS   = 00000080            NAM$V_WILD_GRP = 00000018            RAB$B_ROP2       00000006
NAM$C_MAXRSSLCL= 00000060            NAM$V_WILD_MBR = 00000019            RAB$B_ROP3       00000007
NAM$K_BLN        00000038            NAM$V_WILD_NAME= 00000005            RAB$B_TMO        0000001F
NAM$K_BLN_DIRWC  00000050            NAM$V_WILD_SFD1= 00000019            RAB$C_BID      = 00000001
NAM$L_DIRWCC1    00000040            NAM$V_WILD_SFD2= 0000001A            RAB$C_BLN        00000044
NAM$L_DIRWCC2    00000044            NAM$V_WILD_SFD3= 0000001B            RAB$C_KEY      = 00000001
NAM$L_DIRWCC3    00000048            NAM$V_WILD_SFD4= 0000001C            RAB$C_RFA      = 00000002
NAM$L_DIRWCC4    0000004C            NAM$V_WILD_SFD5= 0000001D            RAB$C_SEQ      = 00000000
NAM$L_DWC        00000038            NAM$V_WILD_SFD6= 0000001E            RAB$K_BLN        00000044
NAM$L_ESA        0000000C            NAM$V_WILD_SFD7= 0000001F            RAB$L_BKT        00000038
NAM$L_FNB        00000034            NAM$V_WILD_TYPE= 00000004            RAB$L_CTX        00000018
NAM$L_RLF        00000010            NAM$V_WILD_UFD = 00000018            RAB$L_DCT        00000038
NAM$L_RSA        00000004            NAM$V_WILD_VER = 00000003            RAB$L_FAB        0000003C
NAM$L_WCC        00000030            NAM$W_DID        0000002A            RAB$L_KBF        00000030
NAM$M_DIR_LVLS = 00E00000            NAM$W_DID_NUM    0000002A            RAB$L_PBF        00000030
NAM$M_EXP_DEV  = 00000080            NAM$W_DID_RVN    0000002E            RAB$L_RBF        00000028
NAM$M_EXP_DIR  = 00000040            NAM$W_DID_SEQ    0000002C            RAB$L_RFA0       00000010
NAM$M_EXP_NAME = 00000004            NAM$W_FID        00000024            RAB$L_RHB        0000002C
SMBCHRGEN       - GENERATE A WIDE LINE ON PRINTER                21-AUG-1978 21:31:01   VAX-11 MACRO X0.3-11               Page   9
SYMBOL TABLE                                                                                                                     (1)

RAB$L_ROP        00000004            RAB$V_TMO      = 00000019            SD_W_MBUNIT      00000039
RAB$L_STS        00000008            RAB$V_TPT      = 00000001            SD_W_PAGE        00000300
RAB$L_STV        0000000C            RAB$V_UIF      = 00000004            SD_W_TBUFCNT     00000027
RAB$L_UBF        00000024            RAB$V_ULK      = 00000012            SD_W_TBUFSIZ     00000029
RAB$M_ASY      = 00000001            RAB$V_WAT      = 00000011            SIM$B_FILCOPY    00000039
RAB$M_BIO      = 00000800            RAB$V_WBH      = 0000000A            SIM$B_FLAGS      00000038
RAB$M_CCO      = 80000000            RAB$W_ISI        00000002            SIM$G_DIRID      00000032
RAB$M_CVT      = 04000000            RAB$W_RFA        00000010            SIM$G_FILEID     0000002C
RAB$M_EOF      = 00000100            RAB$W_RFA4       00000014            SIM$K_SIZE       00000070
RAB$M_FDL      = 00000040            RAB$W_RSZ        00000022            SIM$L_UIC        00000004
RAB$M_HSH      = 00000080            RAB$W_USZ        00000020            SIM$Q_QTIME      00000014
RAB$M_KGE      = 00200000            SD_A_TBUFADR     0000002B            SIM$T_ACNTNAM    00000060
RAB$M_KGT      = 00400000            SD_B_ERR_FLAGS   00000002            SIM$T_FILNAM     0000004C
RAB$M_LIM      = 00004000            SD_B_GEN_FLAGS   00000003            SIM$T_PRTNAM     0000003C
RAB$M_LOA      = 00002000            SD_B_LTPCNT      00000043            SIM$T_USERNAM    00000008
RAB$M_LOC      = 00010000            SD_B_MAXLTP      00000044            SIM$T_VOLNAM     0000001C
RAB$M_MAS      = 00000020            SD_B_PAGELEN     00000049            SIM$W_MSGTYP     00000000
RAB$M_NLK      = 00100000            SD_B_PAGEWIDTH   0000004A            SIM$W_PAGCNT     0000003A
RAB$M_NXR      = 00800000            SD_B_STATE       00000004            SIM$W_REST       00000002
RAB$M_PMT      = 40000000            SD_G_FAB         000000F8            SMB$CHRGEN       000000DE RG    03
RAB$M_PPF_IND  = 00004000            SD_G_MSGTOMGR    000001CA            SMB$K_ACNTNAMSZ= 00000008
RAB$M_PPF_RAT  = 00003FC0            SD_G_NAM         0000018C            SMB$K_GENEFN   = 00000000
RAB$M_PTA      = 20000000            SD_G_QIOBLK      000000C4            SMB$K_HEADERSZ = 00000034
RAB$M_RAH      = 00000200            SD_G_RAB         00000148            SMB$K_LBUFSIZ  = 00000100
RAB$M_RLK      = 00080000            SD_K_SIZE        0000030A            SMB$K_LPEFN0   = 00000001
RAB$M_RNE      = 01000000            SD_L_GETCNT      0000003B            SMB$K_LPEFN1   = 00000002
RAB$M_RNF      = 08000000            SD_L_LINECNT     00000045            SMB$K_MBEFN    = 00000003
RAB$M_TMO      = 02000000            SD_L_QIOCNT      0000003F            SMB$K_TBUFSIZ  = 00000100
RAB$M_TPT      = 00000002            SD_M_ABORT     = 00000001            SMB$K_TIMEFN   = 00000005
RAB$M_UIF      = 00000010            SD_M_GETERR    = 00000002            SMB$K_TOFEFN   = 00000004
RAB$M_ULK      = 00040000            SD_M_OPENERR   = 00000004            SMB$K_USERNAMSZ= 0000000C
RAB$M_WAT      = 00020000            SD_M_PRINTERR  = 00000008            SMB$WRITELINN    ********   X   03
RAB$M_WBH      = 00000400            SD_Q_FILENAME    00000302            SPACING        = 0000000B
RAB$S_PPF_RAT  = 00000008            SD_Q_IOSB0       00000017            SPACOUT        = 00000008
RAB$V_ASY      = 00000000            SD_Q_IOSB1       0000001F            SS$_NORMAL       ********   X   03
RAB$V_BIO      = 0000000B            SD_Q_MIOSB       00000005            STATE$_ASNDEV  = 00000001
RAB$V_CCO      = 0000001F            SD_Q_PTIME       0000002F            STATE$_EOF_CLOS= 00000005
RAB$V_CVT      = 0000001A            SD_Q_TBUFDES     00000027            STATE$_FLAGPAGE= 00000003
RAB$V_EOF      = 00000008            SD_Q_TOFIOSB     0000000F            STATE$_GET_PRIN= 00000004
RAB$V_FDL      = 00000006            SD_Q_TOP_FORMS   0000004B            STATE$_IDLE    = 00000000
RAB$V_HSH      = 00000007            SD_T_HDBUF       000002CA            STATE$_OPEN    = 00000002
RAB$V_KGE      = 00000015            SD_T_LBUF        000001CA            STATE$_SUSPEND = 00000006
RAB$V_KGT      = 00000016            SD_T_MSGDATA     00000053            UNDERSCORE       000000A0 R     03
RAB$V_LIM      = 0000000E            SD_T_SQBUF       000001C4            WIDTH          = 0000000A
RAB$V_LOA      = 0000000D            SD_T_TBUF        000001CA
RAB$V_LOC      = 00000010            SD_V_ABORT     = 00000000
RAB$V_MAS      = 00000005            SD_V_FFREQ     = 00000003
RAB$V_NLK      = 00000014            SD_V_FLGPAGDONE= 00000000
RAB$V_NXR      = 00000017            SD_V_GETERR    = 00000001
RAB$V_PMT      = 0000001E            SD_V_GOOD_WAKE = 00000001
RAB$V_PPF_IND  = 0000000E            SD_V_INTRNLCC  = 00000002
RAB$V_PPF_RAT  = 00000006            SD_V_OPENERR   = 00000002
RAB$V_PTA      = 0000001D            SD_V_PRINTERR  = 00000003
RAB$V_RAH      = 00000009            SD_W_HEAD_L      000002FE
RAB$V_RLK      = 00000013            SD_W_JBCCHAN     00000037
RAB$V_RNE      = 00000018            SD_W_MBCHAN      00000000
RAB$V_RNF      = 0000001B            SD_W_MBREADLEN   0000000D
SMBCHRGEN       - GENERATE A WIDE LINE ON PRINTER                21-AUG-1978 21:31:01   VAX-11 MACRO X0.3-11               Page  10
PROGRAM SECTION SYNOPSIS                                                                                                         (1)


PROGRAM SECTION SYNOPSIS

.  ABS  .        00000000      00     NOPIC   USR   CON   ABS   LCL NOSHR NOEXE NORD  NOWRT BYTE
. BLANK .        00000000      01     NOPIC   USR   CON   REL   LCL NOSHR   EXE   RD    WRT BYTE
$ABS$            0000030A      02     NOPIC   USR   CON   ABS   LCL NOSHR   EXE   RD    WRT BYTE
SMB_PURE         00000173      03     NOPIC   USR   CON   REL   LCL NOSHR   EXE   RD  NOWRT LONG


THERE WERE NO ERRORS OR WARNINGS.
13844. BYTES LEFT IN FREE MEMORY POOL.
16. BYTES OF RECLAIMED MEMORY.
OBJ$:SMBCHRGEN,LIS$:SMBCHRGEN/-SP=SRC$:SMBPRE,SMBCHRGEN
8 MLB DIR RDS - 539 GETS TO DEFINE 16 MACROS. 57 INTER. FILE WRITES.
