SMBPRE          - PRINT SYMBIONT PREFIX FILE                     21-AUG-1978 21:36:08   VAX-11 MACRO X0.3-11               Page   0
TABLE OF CONTENTS

   (1)    3800  DECLARATIONS
   (1)    4000  DECLARATIONS
   (1)    9510  CONDTITION HANDLER
SMBHANDLE       - PRINT SYMBIONT CONDITION HANDLER               21-AUG-1978 21:36:08   VAX-11 MACRO X0.3-11               Page   1
01              DECLARATIONS                                                                                                     (1)

                                     0000   100 	.TITLE	SMBHANDLE - PRINT SYMBIONT CONDITION HANDLER
                                     0000   200 	.IDENT	/01/
                                     0000   300
                                     0000   400 ;
                                     0000   500 ; COPYRIGHT (C) 1977
                                     0000   600 ; DIGITAL EQUIPMENT CORPORATION, MAYNARD, MASSACHUSETTS 01754
                                     0000   700 ;
                                     0000   800 ; THIS SOFTWARE IS FURNISHED  UNDER A LICENSE FOR USE ONLY ON A SINGLE
                                     0000   900 ; COMPUTER  SYSTEM AND  MAY BE  COPIED ONLY WITH  THE INCLUSION OF THE
                                     0000  1000 ; ABOVE COPYRIGHT NOTICE.  THIS SOFTWARE, OR ANY OTHER COPIES THEREOF,
                                     0000  1100 ; MAY NOT BE PROVIDED OR  OTHERWISE MADE AVAILABLE TO ANY OTHER PERSON
                                     0000  1200 ; EXCEPT FOR USE ON SUCH SYSTEM AND TO ONE WHO AGREES TO THESE LICENSE
                                     0000  1300 ; TERMS.  TITLE TO AND  OWNERSHIP OF THE  SOFTWARE  SHALL AT ALL TIMES
                                     0000  1400 ; REMAIN IN DEC.
                                     0000  1500 ;
                                     0000  1600 ; THE INFORMATION IN THIS SOFTWARE IS SUBJECT TO CHANGE WITHOUT NOTICE
                                     0000  1700 ; AND SHOULD  NOT BE CONSTRUED  AS A COMMITMENT  BY DIGITAL  EQUIPMENT
                                     0000  1800 ; CORPORATION.
                                     0000  1900 ;
                                     0000  2000 ; DEC ASSUMES  NO  RESPONSIBILITY  FOR  THE USE OR  RELIABILITY OF ITS
                                     0000  2100 ; SOFTWARE ON EQUIPMENT WHICH IS NOT SUPPLIED BY DEC.
                                     0000  2200 ;
                                     0000  2300
                                     0000  2400 ;++
                                     0000  2500 ; FACILITY:	VAX/VMS PRINT SYMBIONT
                                     0000  2600 ;
                                     0000  2700 ; ABSTRACT:	CONDITION HANDLER
                                     0000  2800 ;
                                     0000  2900 ;
                                     0000  3000 ; ENVIRONMENT:	USER MODE NON-PRIVILEGED CODE
                                     0000  3100 ;
                                     0000  3200 ; AUTHOR:	LEN KAWELL, CREATION DATE:19-MAY-78
                                     0000  3300 ;
                                     0000  3400 ; MODIFIED BY:
                                     0000  3500 ;
                                     0000  3600 ;	, : VERSION
                                     0000  3700 ; 01	-
                                     0000  3800 ;--
SMBHANDLE       - PRINT SYMBIONT CONDITION HANDLER               21-AUG-1978 21:36:08   VAX-11 MACRO X0.3-11               Page   2
01              DECLARATIONS                                                                                                     (1)

                                     0000  4000 	.SBTTL	DECLARATIONS
                                     0000  4100
                                     0000  4300
                                     0000  4400 ;
                                     0000  4500 ; INCLUDE FILES:
                                     0000  4600 ;
                                     0000  4700 ;	[PRTSMB.SRC]SMBPRE.MAR
                                     0000  4800
                                     0000  4900 ;
                                     0000  5000 ; MACROS:
                                     0000  5100 ;
                                     0000  5200
                                     0000  5300 ;
                                     0000  5400 ; EQUATED SYMBOLS:
                                     0000  5500 ;
                           00000020  0000  5550 	SPACE	= ^A\ \			;ASCII SPACE
                                     0000  5600 	$CHFDEF				;CONDTION HANDLER DEFINTIONS
                                     0000  5700 	$OPCDEF				;OPCOM DEFINTIONS
                                     0000  5800 	$SHRDEF				;SHARED MESSAGE DEFINITIONS
                                     0000  5900
                                     0000  6000 ;
                                     0000  6100 ; OWN STORAGE:
                                     0000  6200 ;
                                     0000  6210
                                     0000  6220 	IMPURE_DATA
                                     0000  6230
                                     0000  6300 ;
                                     0000  6400 ; FACILITY NAME
                                     0000  6500 ;
                                     0000  6600 FACILITY_DESC:
                           00000004  0000  6700 	.BLKL	1
                           00000008' 0004  6800 	.LONG	10$
               5F 42 4D 53 54 52 50  0008  6900 10$:	.ASCII	/PRTSMB_/
                           00000007  000F  7000 FACILITY_LEN=.-10$
                                     000F  7100 LP_NAME:
                           0000001F  000F  7200 	.BLKB	16
                                     001F  7300
                                     001F  7400 ;
                                     001F  7500 ; SIGNAL NAME
                                     001F  7600 ;
                                     001F  7700 SIG_NAM:
                           00000023  001F  7800 	.BLKL	1
                                     0023  9400
SMBHANDLE       - PRINT SYMBIONT CONDITION HANDLER               21-AUG-1978 21:36:08   VAX-11 MACRO X0.3-11               Page   3
01              CONDTITION HANDLER                                                                                               (1)

                                     0023  9510 	.SBTTL	CONDTITION HANDLER
                                     0023  9600
                                     0023  9610 	PURE_SECTION	NAME=SMB_HANDLER
                                     0000  9700 ;++
                                     0000  9800 ; FUNCTIONAL DESCRIPTION:
                                     0000  9900 ;
                                     0000 10000 ;	THIS ROUTINE IS THE CONDITION HANDLER FOR THE PRINT
                                     0000 10100 ;	SYMBIONT.
                                     0000 10200 ;
                                     0000 10300 ; CALLING SEQUENCE:
                                     0000 10400 ;
                                     0000 10500 ;	CALLED BY SIGNALING OR AN EXCEPTION
                                     0000 10600 ;
                                     0000 10700 ; INPUT PARAMETERS:
                                     0000 10800 ;
                                     0000 11000 ;	CHF$L_SIGARGLST(AP) IS ADDR OF SIGNAL ARGUMENT LIST
                                     0000 11100 ;	CHF$L_MCHARGLST(AP) IS ADDR OF MECHANISM ARGUMENT LIST
                                     0000 11200 ;
                                     0000 11300 ; IMPLICIT INPUTS:
                                     0000 11400 ;
                                     0000 11500 ;	NONE
                                     0000 11600 ;
                                     0000 11700 ; OUTPUT PARAMETERS:
                                     0000 11800 ;
                                     0000 11900 ;	NONE
                                     0000 12000 ;
                                     0000 12100 ; IMPLICIT OUTPUTS:
                                     0000 12200 ;
                                     0000 12300 ;	NONE
                                     0000 12400 ;
                                     0000 12500 ; COMPLETION CODES:
                                     0000 12600 ;
                                     0000 12700 ;	NONE
                                     0000 12800 ;
                                     0000 12900 ; SIDE EFFECTS:
                                     0000 13000 ;
                                     0000 13100 ;	IF CONDITION WAS AN EXCEPTION, IMAGE IS EXITED
                                     0000 13200 ;
                                     0000 13300 ;--
                                     0000 13400 SMB$HANDLER::
                               083C  0000 13500 	.WORD	^M<R2,R3,R4,R5,R11>
            5B       0000'CF     DE  0002 13600 	MOVAL	W^SMB$G_DATA,R11	;GET ADDR OF GLOBAL DATA
            52         04 AC     D0  0007 13700 	MOVL	CHF$L_SIGARGLST(AP),R2	;GET ADDR OF SIGNAL ARGUMENTS
            62            02     A2  000B 13800 	SUBW	#2,CHF$L_SIG_ARGS(R2)	;DON'T PASS PC & PSL
       001F'CF         04 A2     D0  000E 14000 	MOVL	CHF$L_SIG_NAME(R2),W^SIG_NAM ;SAVE SIGNAL NAME
            50       008F CB     DE  0014 14100 	MOVAL	SD_T_MSGDATA+SIM$T_PRTNAM(R11),R0 ;GET ADDR OF PRINTER NAME
            51            80     9A  0019 14200 	MOVZBL	(R0)+,R1		;GET PRINTER NAME LENGTH
            51            07     81  001C 14300 	ADDB3	#FACILITY_LEN,R1,W^FACILITY_DESC ;SET FACILITY/PRINTER LENGTH
                     0000'CF         001F
            60            51     28  0022 14400 	MOVC3	R1,(R0),W^LP_NAME	;CONCATENATE FACILITY AND PRINTER
                     000F'CF         0025
                     0000'CF     7F  0028 14500 	PUSHAQ	W^FACILITY_DESC		;SET FACILITY NAME DESC ADDR
                     004A'CF     3F  002C 14600 	PUSHAW	W^ACTION		;SET ACTION ROUTINE ADDR
                       04 AC     DD  0030 14650 	PUSHL	CHF$L_SIGARGLST(AP)	;SET ADDR OF SIGNAL ARG LIST
   00000000'EF            03     FB  0033 14700 	CALLS	#3,SYS$PUTMSG		;OUTPUT THE MESSAGE
                     0021'CF     B5  003A 14750 	TSTW	W^SIG_NAM+2		;SYSTEM EXCEPTION?
                          09     12  003E 14760 	BNEQ	10$			;BR IF NOT
SMBHANDLE       - PRINT SYMBIONT CONDITION HANDLER               21-AUG-1978 21:36:08   VAX-11 MACRO X0.3-11               Page   4
01              CONDTITION HANDLER                                                                                               (1)

                                     0040 14770 	$EXIT_S				;ELSE - EXIT
                                     0049 14780 10$:
                                 04  0049 14800 	RET
                                     004A 14900
                                     004A 15000 ;
                                     004A 15100 ; SYS$PUTMSG ACTION ROUTINE
                                     004A 15200 ;
                               087C  004A 15300 ACTION:	.WORD	^M<R2,R3,R4,R5,R6,R11>
            52         04 AC     D0  004C 15400 	MOVL	4(AP),R2		;GET ADDR OF STRING DESC
                                 B1  0050 15500 	CMPW	#<SHR$_OPENIN!4>&^XFFFF,- ;OPEN ERROR?
       001F'CF       109C 8F         0051 15600 		W^SIG_NAM
                          3B     13  0057 15700 	BEQLU	10$			;BR IF YES
                                 B1  0059 15800 	CMPW	#<SHR$_READERR!4>&^XFFFF,- ;READ ERROR?
       001F'CF       10B4 8F         005A 15900 		W^SIG_NAM
                          32     13  0060 16000 	BEQLU	10$			;BR IF YES
                                     0062 16010
            56         80 8F     9A  0062 16012 	MOVZBL	#128,R6			;ASSUME MESSAGE LENGTH
            56            62     B1  0066 16014 	CMPW	(R2),R6			;IS MESSAGE LONGER?
                          03     18  0069 16016 	BGEQ	5$			;BR IF YES
            56            62     3C  006B 16018 	MOVZWL	(R2),R6			;ELSE - USE ACTUAL LENGTH
            5E            56     C2  006E 16020 5$:	SUBL	R6,SP			;MAKE OPCOM MESSAGE BUFFER
         04 B2            56     28  0071 16100 	MOVC3	R6,@4(R2),(SP)		;MOVE MESSAGE TO THE BUFFER
                          6E         0075
                          00     DD  0076 16110 	PUSHL	#0			;NO REQUEST NUMBER
                                     0078 16120 					;CREATE REQUEST HEADER
            7E       1303 8F     3C  0078 16130 	MOVZWL	#OPC$_RQ_RQST!<-	; REQUEST TYPE
                                     007D 16140 		<OPC$M_NM_CENTRL!-	; OPERATORS TO BE SENT MESSAGE
                                     007D 16150 		 OPC$M_NM_DEVICE!-
                                     007D 16160 		 OPC$M_NM_PRINT>@8>,-(SP)
                          5E     DD  007D 16170 	PUSHL	SP			;CREATE OPCOM MESSAGE DESC
            08            56     C1  007F 16180 	ADDL3	R6,#4+4,-(SP)		;...
                          7E         0082
            50            5E     D0  0083 16190 	MOVL	SP,R0			;GET ADDR OF MESSAGE DESC
                                     0086 16300 	$SNDOPR_S (R0)			;SEND THE MESSAGE TO THE OPS
                          27     11  0092 16400 	BRB	20$
                                     0094 16500
            5B       0000'CF     DE  0094 16600 10$:	MOVAL	W^SMB$G_DATA,R11	;GET ADDR OF GLOBAL DATA
                                     0099 16700 	$QIOW_S	CHAN=SD_G_QIOBLK+QIO$_CHAN(R11),- ;PRINT MESSAGE
                                     0099 16800 		FUNC=#IO$_WRITELBLK,-
                                     0099 16900 		P1=@4(R2),-
                                     0099 17000 		P2=(R2),-
                                     0099 17002 		P4=#SPACE
                          50     D4  00BB 17100 20$:	CLRL	R0			;DON'T PUT MESSAGE ELSEWHERE
                                 04  00BD 17200 	RET
                                     00BE 17300
                                     00BE 17400 	.END
SMBHANDLE       - PRINT SYMBIONT CONDITION HANDLER               21-AUG-1978 21:36:08   VAX-11 MACRO X0.3-11               Page   5
SYMBOL TABLE                                                                                                                     (1)

$$ARGS         = 0000000C            FAB$M_CR       = 00000002            FAB$V_DLT      = 0000000F
$$T1           = 00000001            FAB$M_CTG      = 00100000            FAB$V_DMO      = 0000000C
ACTION           0000004A R     04   FAB$M_DEL      = 00000004            FAB$V_ESC      = 0000001B
BIT...         = 00001258            FAB$M_DFW      = 00000020            FAB$V_EXE      = 00000007
CHF$L_MCHARGLST  00000008            FAB$M_DLT      = 00008000            FAB$V_FTN      = 00000000
CHF$L_MCH_ARGS   00000000            FAB$M_DMO      = 00001000            FAB$V_GET      = 00000001
CHF$L_MCH_DEPTH  00000008            FAB$M_ESC      = 08000000            FAB$V_INP      = 00000013
CHF$L_MCH_FRAME  00000004            FAB$M_EXE      = 00000080            FAB$V_JNL      = 00000016
CHF$L_MCH_SAVR0  0000000C            FAB$M_FTN      = 00000001            FAB$V_KFO      = 0000001E
CHF$L_MCH_SAVR1  00000010            FAB$M_GET      = 00000002            FAB$V_MSE      = 00000004
CHF$L_SIGARGLST  00000004            FAB$M_INP      = 00080000            FAB$V_MXV      = 00000001
CHF$L_SIG_ARG1   00000008            FAB$M_JNL      = 00400000            FAB$V_NAM      = 00000018
CHF$L_SIG_ARGS   00000000            FAB$M_KFO      = 40000000            FAB$V_NEF      = 0000000A
CHF$L_SIG_NAME   00000004            FAB$M_MSE      = 00000010            FAB$V_NFS      = 00000010
FAB$B_BID        00000000            FAB$M_MXV      = 00000002            FAB$V_NIL      = 00000005
FAB$B_BKS        0000003E            FAB$M_NAM      = 01000000            FAB$V_OFP      = 0000001D
FAB$B_BLN        00000001            FAB$M_NEF      = 00000400            FAB$V_ORG      = 00000004
FAB$B_DNS        00000035            FAB$M_NFS      = 00010000            FAB$V_POS      = 00000008
FAB$B_FAC        00000016            FAB$M_NIL      = 00000020            FAB$V_PPF      = 00000012
FAB$B_FNS        00000034            FAB$M_OFP      = 20000000            FAB$V_PPF_IND  = 0000000E
FAB$B_FSZ        0000003F            FAB$M_POS      = 00000100            FAB$V_PPF_RAT  = 00000006
FAB$B_ORG        0000001D            FAB$M_PPF      = 00040000            FAB$V_PRN      = 00000002
FAB$B_RAT        0000001E            FAB$M_PPF_IND  = 00004000            FAB$V_PUT      = 00000000
FAB$B_RFM        0000001F            FAB$M_PPF_RAT  = 00003FC0            FAB$V_RCK      = 00000017
FAB$B_RTV        0000001C            FAB$M_PRN      = 00000004            FAB$V_RWC      = 0000000B
FAB$B_SHR        00000017            FAB$M_PUT      = 00000001            FAB$V_RWO      = 00000007
FAB$C_BID      = 00000003            FAB$M_RCK      = 00800000            FAB$V_SCF      = 0000000E
FAB$C_BLN        00000050            FAB$M_RWC      = 00000800            FAB$V_SHRDEL   = 00000002
FAB$C_FIX      = 00000001            FAB$M_RWO      = 00000080            FAB$V_SHRGET   = 00000001
FAB$C_HSH      = 00000030            FAB$M_SCF      = 00004000            FAB$V_SHRPUT   = 00000000
FAB$C_IDX      = 00000020            FAB$M_SHRDEL   = 00000004            FAB$V_SHRUPD   = 00000003
FAB$C_MAXRFM   = 00000003            FAB$M_SHRGET   = 00000002            FAB$V_SPL      = 0000000D
FAB$C_REL      = 00000010            FAB$M_SHRPUT   = 00000001            FAB$V_SQO      = 00000006
FAB$C_RFM_DFLT = 00000002            FAB$M_SHRUPD   = 00000008            FAB$V_SUP      = 00000002
FAB$C_SEQ      = 00000000            FAB$M_SPL      = 00002000            FAB$V_TEF      = 0000001C
FAB$C_UDF      = 00000000            FAB$M_SQO      = 00000040            FAB$V_TMD      = 00000004
FAB$C_VAR      = 00000002            FAB$M_SUP      = 00000004            FAB$V_TMP      = 00000003
FAB$C_VFC      = 00000003            FAB$M_TEF      = 10000000            FAB$V_TRN      = 00000004
FAB$K_BLN        00000050            FAB$M_TMD      = 00000010            FAB$V_UFM      = 0000001A
FAB$L_ALQ        00000010            FAB$M_TMP      = 00000008            FAB$V_UFO      = 00000011
FAB$L_CTX        00000018            FAB$M_TRN      = 00000010            FAB$V_UPD      = 00000003
FAB$L_DEV        00000040            FAB$M_UFM      = 04000000            FAB$V_UPI      = 00000006
FAB$L_DNA        00000030            FAB$M_UFO      = 00020000            FAB$V_WCK      = 00000009
FAB$L_FNA        0000002C            FAB$M_UPD      = 00000008            FAB$W_BLS        0000003C
FAB$L_FOP        00000004            FAB$M_UPI      = 00000040            FAB$W_DEQ        00000014
FAB$L_JNL        00000020            FAB$M_WCK      = 00000200            FAB$W_IFI        00000002
FAB$L_MRN        00000038            FAB$S_ORG      = 00000004            FAB$W_MRS        00000036
FAB$L_NAM        00000028            FAB$S_PPF_RAT  = 00000008            FACILITY_DESC    00000000 R     03
FAB$L_SDC        00000044            FAB$V_BIO      = 00000005            FACILITY_LEN   = 00000007
FAB$L_STS        00000008            FAB$V_BLK      = 00000003            GBL...         = 00000000
FAB$L_STV        0000000C            FAB$V_BRO      = 00000006            IO$_WRITELBLK    ********   X   04
FAB$L_XAB        00000024            FAB$V_CBT      = 00000015            LP_NAME          0000000F R     03
FAB$M_BIO      = 00000020            FAB$V_CIF      = 00000019            MOD$_ABORT     = 00000004
FAB$M_BLK      = 00000008            FAB$V_CR       = 00000001            MOD$_INPERR    = 0000000C
FAB$M_BRO      = 00000040            FAB$V_CTG      = 00000014            MOD$_PRTERR    = 00000014
FAB$M_CBT      = 00200000            FAB$V_DEL      = 00000002            MOD$_SUCCESS   = 00000001
FAB$M_CIF      = 02000000            FAB$V_DFW      = 00000005            MSG$_ABOOPR    = 00000011
SMBHANDLE       - PRINT SYMBIONT CONDITION HANDLER               21-AUG-1978 21:36:08   VAX-11 MACRO X0.3-11               Page   6
SYMBOL TABLE                                                                                                                     (1)

MSG$_ABORT     = 00000030            NAM$L_RSA        00000004            NAM$V_WILD_VER = 00000003
MSG$_ACCRSP    = 00000021            NAM$L_WCC        00000030            NAM$W_DID        0000002A
MSG$_CONFIRM   = 00000031            NAM$M_DIR_LVLS = 00E00000            NAM$W_DID_NUM    0000002A
MSG$_CONNECT   = 00000032            NAM$M_EXP_DEV  = 00000080            NAM$W_DID_RVN    0000002E
MSG$_CRUNSOLIC = 00000002            NAM$M_EXP_DIR  = 00000040            NAM$W_DID_SEQ    0000002C
MSG$_DELPROC   = 00000003            NAM$M_EXP_NAME = 00000004            NAM$W_FID        00000024
MSG$_DELSMB    = 00000014            NAM$M_EXP_TYPE = 00000002            NAM$W_FID_NUM    00000024
MSG$_DEVOFFLIN = 00000005            NAM$M_EXP_VER  = 00000001            NAM$W_FID_RVN    00000028
MSG$_DEVONLIN  = 00000007            NAM$M_GRP_MBR  = 00080000            NAM$W_FID_SEQ    00000026
MSG$_DISCON    = 00000033            NAM$M_HIGHVER  = 00008000            NAM$W_PRV_DID    0000003A
MSG$_EXIT      = 00000034            NAM$M_LOWVER   = 00004000            OPC$B_MS_ENAB    00000001
MSG$_INIOPR    = 00000010            NAM$M_NODE     = 00020000            OPC$B_MS_TARGET  00000001
MSG$_INTMSG    = 00000035            NAM$M_PPF      = 00010000            OPC$B_MS_TYPE    00000000
MSG$_OPREPLY   = 00000009            NAM$M_QUOTED   = 00040000            OPC$L_MS_MASK    00000004
MSG$_OPRQST    = 00000008            NAM$M_WILDCARD = 00000100            OPC$L_MS_MAXSZ   0000009A
MSG$_PATHLOST  = 00000036            NAM$M_WILD_DIR = 00100000            OPC$L_MS_OTEXT   0000001A
MSG$_PROTOCOL  = 00000037            NAM$M_WILD_GRP = 01000000            OPC$L_MS_RPLYID  00000004
MSG$_REJECT    = 00000038            NAM$M_WILD_MBR = 02000000            OPC$L_MS_RQSTID  00000004
MSG$_RESOPR    = 00000013            NAM$M_WILD_NAME= 00000020            OPC$L_MS_TEXT    00000008
MSG$_SCANBAD   = 00000028            NAM$M_WILD_SFD1= 02000000            OPC$M_NM_CARDS = 00000020
MSG$_SCANRSP   = 00000029            NAM$M_WILD_SFD2= 04000000            OPC$M_NM_CENTRL= 00000001
MSG$_SMBDON    = 00000009            NAM$M_WILD_SFD3= 08000000            OPC$M_NM_DEVICE= 00000010
MSG$_SMBINI    = 00000008            NAM$M_WILD_SFD4= 10000000            OPC$M_NM_DISKS = 00000008
MSG$_SMBRSP    = 00000020            NAM$M_WILD_SFD5= 20000000            OPC$M_NM_NTWORK= 00000040
MSG$_SNDACC    = 0000000A            NAM$M_WILD_SFD6= 40000000            OPC$M_NM_OPER1 = 00001000
MSG$_SNDSMB    = 00000004            NAM$M_WILD_SFD7= 80000000            OPC$M_NM_OPER10= 00200000
MSG$_SUSOPR    = 00000012            NAM$M_WILD_TYPE= 00000010            OPC$M_NM_OPER11= 00400000
MSG$_THIRDPARTY= 00000039            NAM$M_WILD_UFD = 01000000            OPC$M_NM_OPER12= 00800000
MSG$_TIMEOUT   = 0000003A            NAM$M_WILD_VER = 00000008            OPC$M_NM_OPER2 = 00002000
MSG$_TRMHANGUP = 00000006            NAM$S_DIR_LVLS = 00000003            OPC$M_NM_OPER3 = 00004000
MSG$_TRMUNSOLIC= 00000001            NAM$T_DVI        00000014            OPC$M_NM_OPER4 = 00008000
MSG$_XM_ATTN   = 0000000D            NAM$V_DIR_LVLS = 00000015            OPC$M_NM_OPER5 = 00010000
MSG$_XM_DATAVL = 0000000B            NAM$V_EXP_DEV  = 00000007            OPC$M_NM_OPER6 = 00020000
MSG$_XM_SHUTDN = 0000000C            NAM$V_EXP_DIR  = 00000006            OPC$M_NM_OPER7 = 00040000
NAM$B_BID        00000000            NAM$V_EXP_NAME = 00000002            OPC$M_NM_OPER8 = 00080000
NAM$B_BLN        00000001            NAM$V_EXP_TYPE = 00000001            OPC$M_NM_OPER9 = 00100000
NAM$B_CURLVL     00000038            NAM$V_EXP_VER  = 00000000            OPC$M_NM_PRINT = 00000002
NAM$B_ESL        0000000B            NAM$V_GRP_MBR  = 00000013            OPC$M_NM_TAPES = 00000004
NAM$B_ESS        0000000A            NAM$V_HIGHVER  = 0000000F            OPC$T_MS_ONAME   0000000A
NAM$B_RSL        00000003            NAM$V_LOWVER   = 0000000E            OPC$V_NM_CARDS = 00000005
NAM$B_RSS        00000002            NAM$V_NODE     = 00000011            OPC$V_NM_CENTRL= 00000000
NAM$C_BID      = 00000002            NAM$V_PPF      = 00000010            OPC$V_NM_DEVICE= 00000004
NAM$C_BLN        00000038            NAM$V_QUOTED   = 00000012            OPC$V_NM_DISKS = 00000003
NAM$C_BLN_DIRWC  00000050            NAM$V_WILDCARD = 00000008            OPC$V_NM_NTWORK= 00000006
NAM$C_DVI      = 00000010            NAM$V_WILD_DIR = 00000014            OPC$V_NM_OPER1 = 0000000C
NAM$C_MAXRSS   = 00000080            NAM$V_WILD_GRP = 00000018            OPC$V_NM_OPER10= 00000015
NAM$C_MAXRSSLCL= 00000060            NAM$V_WILD_MBR = 00000019            OPC$V_NM_OPER11= 00000016
NAM$K_BLN        00000038            NAM$V_WILD_NAME= 00000005            OPC$V_NM_OPER12= 00000017
NAM$K_BLN_DIRWC  00000050            NAM$V_WILD_SFD1= 00000019            OPC$V_NM_OPER2 = 0000000D
NAM$L_DIRWCC1    00000040            NAM$V_WILD_SFD2= 0000001A            OPC$V_NM_OPER3 = 0000000E
NAM$L_DIRWCC2    00000044            NAM$V_WILD_SFD3= 0000001B            OPC$V_NM_OPER4 = 0000000F
NAM$L_DIRWCC3    00000048            NAM$V_WILD_SFD4= 0000001C            OPC$V_NM_OPER5 = 00000010
NAM$L_DIRWCC4    0000004C            NAM$V_WILD_SFD5= 0000001D            OPC$V_NM_OPER6 = 00000011
NAM$L_DWC        00000038            NAM$V_WILD_SFD6= 0000001E            OPC$V_NM_OPER7 = 00000012
NAM$L_ESA        0000000C            NAM$V_WILD_SFD7= 0000001F            OPC$V_NM_OPER8 = 00000013
NAM$L_FNB        00000034            NAM$V_WILD_TYPE= 00000004            OPC$V_NM_OPER9 = 00000014
NAM$L_RLF        00000010            NAM$V_WILD_UFD = 00000018            OPC$V_NM_PRINT = 00000001
SMBHANDLE       - PRINT SYMBIONT CONDITION HANDLER               21-AUG-1978 21:36:08   VAX-11 MACRO X0.3-11               Page   7
SYMBOL TABLE                                                                                                                     (1)

OPC$V_NM_TAPES = 00000002            RAB$B_KRF        00000035            RAB$M_WBH      = 00000400
OPC$W_MS_OUNIT   00000008            RAB$B_KSZ        00000034            RAB$S_PPF_RAT  = 00000008
OPC$W_MS_STATUS  00000002            RAB$B_MBC        00000037            RAB$V_ASY      = 00000000
OPC$_DEVNOTERM = 00058074            RAB$B_MBF        00000036            RAB$V_BIO      = 0000000B
OPC$_DEVOFFLINE= 0005804C            RAB$B_PSZ        00000034            RAB$V_CCO      = 0000001F
OPC$_DEVONLINE = 00058054            RAB$B_RAC        0000001E            RAB$V_CVT      = 0000001A
OPC$_ILLRQST   = 0005807C            RAB$B_ROP1       00000005            RAB$V_EOF      = 00000008
OPC$_LOGCLOS   = 000580A4            RAB$B_ROP2       00000006            RAB$V_FDL      = 00000006
OPC$_LOGFAIL   = 00058034            RAB$B_ROP3       00000007            RAB$V_HSH      = 00000007
OPC$_LOGINIT   = 00058009            RAB$B_TMO        0000001F            RAB$V_KGE      = 00000015
OPC$_LOGTIME   = 00058099            RAB$C_BID      = 00000001            RAB$V_KGT      = 00000016
OPC$_NOCLI     = 0005805C            RAB$C_BLN        00000044            RAB$V_LIM      = 0000000E
OPC$_NOPERATOR = 00058061            RAB$C_KEY      = 00000001            RAB$V_LOA      = 0000000D
OPC$_NOSUCHRQST= 00058044            RAB$C_RFA      = 00000002            RAB$V_LOC      = 00000010
OPC$_OPREPLY   = 00058091            RAB$C_SEQ      = 00000000            RAB$V_MAS      = 00000005
OPC$_OPRNOTIF  = 00058089            RAB$K_BLN        00000044            RAB$V_NLK      = 00000014
OPC$_RQSTABORT = 0005801C            RAB$L_BKT        00000038            RAB$V_NXR      = 00000017
OPC$_RQSTCAN   = 00058084            RAB$L_CTX        00000018            RAB$V_PMT      = 0000001E
OPC$_RQSTCMPLTE= 00058029            RAB$L_DCT        00000038            RAB$V_PPF_IND  = 0000000E
OPC$_RQSTPEND  = 00058021            RAB$L_FAB        0000003C            RAB$V_PPF_RAT  = 00000006
OPC$_RQ_CANCEL = 00000005            RAB$L_KBF        00000030            RAB$V_PTA      = 0000001D
OPC$_RQ_LOGI   = 00000002            RAB$L_PBF        00000030            RAB$V_RAH      = 00000009
OPC$_RQ_REPLY  = 00000004            RAB$L_RBF        00000028            RAB$V_RLK      = 00000013
OPC$_RQ_RQST   = 00000003            RAB$L_RFA0       00000010            RAB$V_RNE      = 00000018
OPC$_RQ_STATUS = 00000006            RAB$L_RHB        0000002C            RAB$V_RNF      = 0000001B
OPC$_RQ_TERME  = 00000001            RAB$L_ROP        00000004            RAB$V_TMO      = 00000019
OPC$_TERMDSBL  = 00058011            RAB$L_STS        00000008            RAB$V_TPT      = 00000001
OPC$_TERMENAB  = 00058001            RAB$L_STV        0000000C            RAB$V_UIF      = 00000004
OPC$_TERMFAIL  = 0005803C            RAB$L_UBF        00000024            RAB$V_ULK      = 00000012
OPC$_UNKNOPR   = 0005806C            RAB$M_ASY      = 00000001            RAB$V_WAT      = 00000011
PQR$M_BRSTPAG  = 00000004            RAB$M_BIO      = 00000800            RAB$V_WBH      = 0000000A
PQR$M_DELETE   = 00000001            RAB$M_CCO      = 80000000            RAB$W_ISI        00000002
PQR$M_DOUBLE   = 00000008            RAB$M_CVT      = 04000000            RAB$W_RFA        00000010
PQR$M_FLAGPAG  = 00000002            RAB$M_EOF      = 00000100            RAB$W_RFA4       00000014
PQR$M_NOFEED   = 00000010            RAB$M_FDL      = 00000040            RAB$W_RSZ        00000022
PQR$M_PAGHDR   = 00000020            RAB$M_HSH      = 00000080            RAB$W_USZ        00000020
PQR$V_BRSTPAG  = 00000002            RAB$M_KGE      = 00200000            SD_A_TBUFADR     0000002B
PQR$V_DELETE   = 00000000            RAB$M_KGT      = 00400000            SD_B_ERR_FLAGS   00000002
PQR$V_DOUBLE   = 00000003            RAB$M_LIM      = 00004000            SD_B_GEN_FLAGS   00000003
PQR$V_FLAGPAG  = 00000001            RAB$M_LOA      = 00002000            SD_B_LTPCNT      00000043
PQR$V_NOFEED   = 00000004            RAB$M_LOC      = 00010000            SD_B_MAXLTP      00000044
PQR$V_PAGHDR   = 00000005            RAB$M_MAS      = 00000020            SD_B_PAGELEN     00000049
QIO$_ASTADR    = 00000014            RAB$M_NLK      = 00100000            SD_B_PAGEWIDTH   0000004A
QIO$_ASTPRM    = 00000018            RAB$M_NXR      = 00800000            SD_B_STATE       00000004
QIO$_CHAN      = 00000008            RAB$M_PMT      = 40000000            SD_G_FAB         000000F8
QIO$_EFN       = 00000004            RAB$M_PPF_IND  = 00004000            SD_G_MSGTOMGR    000001CA
QIO$_FUNC      = 0000000C            RAB$M_PPF_RAT  = 00003FC0            SD_G_NAM         0000018C
QIO$_IOSB      = 00000010            RAB$M_PTA      = 20000000            SD_G_QIOBLK      000000C4
QIO$_NARGS     = 0000000C            RAB$M_RAH      = 00000200            SD_G_RAB         00000148
QIO$_P1        = 0000001C            RAB$M_RLK      = 00080000            SD_K_SIZE        0000030A
QIO$_P2        = 00000020            RAB$M_RNE      = 01000000            SD_L_GETCNT      0000003B
QIO$_P3        = 00000024            RAB$M_RNF      = 08000000            SD_L_LINECNT     00000045
QIO$_P4        = 00000028            RAB$M_TMO      = 02000000            SD_L_QIOCNT      0000003F
QIO$_P5        = 0000002C            RAB$M_TPT      = 00000002            SD_M_ABORT     = 00000001
QIO$_P6        = 00000030            RAB$M_UIF      = 00000010            SD_M_GETERR    = 00000002
RAB$B_BID        00000000            RAB$M_ULK      = 00040000            SD_M_OPENERR   = 00000004
RAB$B_BLN        00000001            RAB$M_WAT      = 00020000            SD_M_PRINTERR  = 00000008
SMBHANDLE       - PRINT SYMBIONT CONDITION HANDLER               21-AUG-1978 21:36:08   VAX-11 MACRO X0.3-11               Page   8
SYMBOL TABLE                                                                                                                     (1)

SD_Q_FILENAME    00000302            SHR$_CLOSEOUT  = 00001058            SIM$T_PRTNAM     0000003C
SD_Q_IOSB0       00000017            SHR$_CONFDEL   = 000011F8            SIM$T_USERNAM    00000008
SD_Q_IOSB1       0000001F            SHR$_COPIEDB   = 00001060            SIM$T_VOLNAM     0000001C
SD_Q_MIOSB       00000005            SHR$_COPIEDR   = 00001068            SIM$W_MSGTYP     00000000
SD_Q_PTIME       0000002F            SHR$_CREATED   = 00001070            SIM$W_PAGCNT     0000003A
SD_Q_TBUFDES     00000027            SHR$_DELETED   = 00001200            SIM$W_REST       00000002
SD_Q_TOFIOSB     0000000F            SHR$_DELINTERR = 00001240            SMB$G_DATA       ********   X   04
SD_Q_TOP_FORMS   0000004B            SHR$_DELVER    = 00001208            SMB$HANDLER      00000000 RG    04
SD_T_HDBUF       000002CA            SHR$_DIRTOOBUS = 00001220            SMB$K_ACNTNAMSZ= 00000008
SD_T_LBUF        000001CA            SHR$_ENDED     = 00001078            SMB$K_GENEFN   = 00000000
SD_T_MSGDATA     00000053            SHR$_ENDEDD    = 00001080            SMB$K_HEADERSZ = 00000034
SD_T_SQBUF       000001C4            SHR$_ENDEDT    = 00001088            SMB$K_LBUFSIZ  = 00000100
SD_T_TBUF        000001CA            SHR$_FILNOTDEL = 000011F0            SMB$K_LPEFN0   = 00000001
SD_V_ABORT     = 00000000            SHR$_FILNOTPUR = 00001230            SMB$K_LPEFN1   = 00000002
SD_V_FFREQ     = 00000003            SHR$_FILPURGED = 00001250            SMB$K_MBEFN    = 00000003
SD_V_FLGPAGDONE= 00000000            SHR$_HASHCONCAT= 000011D8            SMB$K_TBUFSIZ  = 00000100
SD_V_GETERR    = 00000001            SHR$_HIGHVER   = 00001148            SMB$K_TIMEFN   = 00000005
SD_V_GOOD_WAKE = 00000001            SHR$_IDXCONCAT = 00001138            SMB$K_TOFEFN   = 00000004
SD_V_INTRNLCC  = 00000002            SHR$_INCOMPAT  = 000011E0            SMB$K_USERNAMSZ= 0000000C
SD_V_OPENERR   = 00000002            SHR$_NEWFILES  = 00001090            SPACE          = 00000020
SD_V_PRINTERR  = 00000003            SHR$_NOFILPURG = 00001228            STATE$_ASNDEV  = 00000001
SD_W_HEAD_L      000002FE            SHR$_NOJOBID   = 000011A0            STATE$_EOF_CLOS= 00000005
SD_W_JBCCHAN     00000037            SHR$_NOJOBNAME = 000011A8            STATE$_FLAGPAGE= 00000003
SD_W_MBCHAN      00000000            SHR$_NOQUEUE   = 00001198            STATE$_GET_PRIN= 00000004
SD_W_MBREADLEN   0000000D            SHR$_NOTCMPLT  = 000011C0            STATE$_IDLE    = 00000000
SD_W_MBUNIT      00000039            SHR$_NOTCOPIED = 000011B8            STATE$_OPEN    = 00000002
SD_W_PAGE        00000300            SHR$_NOVALUE   = 00001100            STATE$_SUSPEND = 00000006
SD_W_TBUFCNT     00000027            SHR$_NOWILD    = 00001128            SYS$EXIT         ********   X   04
SD_W_TBUFSIZ     00000029            SHR$_OPENIN    = 00001098            SYS$PUTMSG       ********   X   04
SHR$_ABEND     = 000010D8            SHR$_OPENOUT   = 000010A0            SYS$QIOW         ********   X   04
SHR$_ABENDD    = 000010E0            SHR$_OVERLAY   = 000010A8            SYS$SNDOPR       ********   X   04
SHR$_ABENDT    = 000010E8            SHR$_PARSEFAIL = 00001248
SHR$_APPENDEDB = 00001000            SHR$_PURGEVER  = 00001210
SHR$_APPENDEDR = 00001008            SHR$_READERR   = 000010B0
SHR$_ATPC      = 00001158            SHR$_RELCONCAT = 00001140
SHR$_BADBYTE   = 00001010            SHR$_REPLACED  = 000010B8
SHR$_BADCOPIES = 00001160            SHR$_RMSERROR  = 000011C8
SHR$_BADDELIM  = 00001118            SHR$_SEARCHFAIL= 00001238
SHR$_BADFIELD  = 00001018            SHR$_SYNTAX    = 000010F8
SHR$_BADFORM   = 00001168            SHR$_SYSERROR  = 000011B0
SHR$_BADJOBID  = 00001170            SHR$_SYSERRORPC= 000010F0
SHR$_BADJOBNAME= 00001178            SHR$_TEXT      = 00001130
SHR$_BADKEY    = 00001108            SHR$_UNXPCTSTS = 000011D0
SHR$_BADLOGIC  = 00001120            SHR$_VALERR    = 000011E8
SHR$_BADLOGICPC= 00001150            SHR$_WILDCONCAT= 000010C0
SHR$_BADLONG   = 00001020            SHR$_WILDOUTVER= 000010C8
SHR$_BADPRTY   = 00001180            SHR$_WRITEERR  = 000010D0
SHR$_BADQNAME  = 00001188            SIG_NAM          0000001F R     03
SHR$_BADTIME   = 00001190            SIM$B_FILCOPY    00000039
SHR$_BADVALUE  = 00001110            SIM$B_FLAGS      00000038
SHR$_BADWORD   = 00001028            SIM$G_DIRID      00000032
SHR$_BEGIN     = 00001030            SIM$G_FILEID     0000002C
SHR$_BEGIND    = 00001038            SIM$K_SIZE       00000070
SHR$_BEGINT    = 00001040            SIM$L_UIC        00000004
SHR$_CLICB     = 00001048            SIM$Q_QTIME      00000014
SHR$_CLOSEDEL  = 00001218            SIM$T_ACNTNAM    00000060
SHR$_CLOSEIN   = 00001050            SIM$T_FILNAM     0000004C
SMBHANDLE       - PRINT SYMBIONT CONDITION HANDLER               21-AUG-1978 21:36:08   VAX-11 MACRO X0.3-11               Page   9
PROGRAM SECTION SYNOPSIS                                                                                                         (1)


PROGRAM SECTION SYNOPSIS

.  ABS  .        00000000      00     NOPIC   USR   CON   ABS   LCL NOSHR NOEXE NORD  NOWRT BYTE
. BLANK .        00000000      01     NOPIC   USR   CON   REL   LCL NOSHR   EXE   RD    WRT BYTE
$ABS$            0000030A      02     NOPIC   USR   CON   ABS   LCL NOSHR   EXE   RD    WRT BYTE
SMB_RWDATA       00000023      03     NOPIC   USR   CON   REL   LCL NOSHR NOEXE   RD    WRT LONG
SMB_HANDLER      000000BE      04     NOPIC   USR   CON   REL   LCL NOSHR   EXE   RD  NOWRT LONG


THERE WERE NO ERRORS OR WARNINGS.
7726. BYTES LEFT IN FREE MEMORY POOL.
1180. BYTES OF RECLAIMED MEMORY.
OBJ$:SMBHANDLE,LIS$:SMBHANDLE/-SP=SRC$:SMBPRE,SMBHANDLE
17 MLB DIR RDS - 797 GETS TO DEFINE 25 MACROS. 75 INTER. FILE WRITES.
