
; Bliss-32 7.352	Saturday 22-AUG-1978 04:25:05	DBB3:[DEBUG.SRC]DBGLAN.B32;5					Page 1
; Digital Equipment Corporation
;
;	0001	MODULE DBGLAN ( ! changes language of DEBUG
;	0002			ADDRESSING_MODE (EXTERNAL = LONG_RELATIVE),
;	0003			IDENT = '000028') =
;	0004	BEGIN
;	0005
;	0006	!			  COPYRIGHT (c) 1977 BY
;	0007	!	      DIGITAL EQUIPMENT CORPORATION, MAYNARD, MASS.
;	0008	!
;	0009	! THIS SOFTWARE IS FURNISHED UNDER A LICENSE AND MAY BE USED AND  COPIED
;	0010	! ONLY  IN  ACCORDANCE  WITH  THE  TERMS  OF  SUCH  LICENSE AND WITH THE
;	0011	! INCLUSION OF THE ABOVE COPYRIGHT NOTICE.  THIS SOFTWARE OR  ANY  OTHER
;	0012	! COPIES  THEREOF MAY NOT BE PROVIDED OR OTHERWISE MADE AVAILABLE TO ANY
;	0013	! OTHER PERSON.  NO TITLE TO AND OWNERSHIP OF  THE  SOFTWARE  IS  HEREBY
;	0014	! TRANSFERRED.
;	0015	!
;	0016	! THE INFORMATION IN THIS SOFTWARE IS SUBJECT TO CHANGE  WITHOUT  NOTICE
;	0017	! AND  SHOULD  NOT  BE  CONSTRUED  AS  A COMMITMENT BY DIGITAL EQUIPMENT
;	0018	! CORPORATION.
;	0019	!
;	0020	! DIGITAL ASSUMES NO RESPONSIBILITY FOR THE USE OR  RELIABILITY  OF  ITS
;	0021	! SOFTWARE ON EQUIPMENT WHICH IS NOT SUPPLIED BY DIGITAL.
;	0022	!
;	0023
;	0024	!++
;	0025	! FACILITY:
;	0026	!	DEBUG (DBG)
;	0027	!
;	0028	! ABSTRACT:
;	0029	!	Changes DEBUG context to either FORTRAN, MARS, or BLISS
;	0030	!	language. Contains all parsing tables for all the languages.
;	0031	!
;	0032	!
;	0033	! ENVIRONMENT:
;	0034	!	This module runs on VAX under STARLET, user mode, non-AST level.
;	0035	!
;	0036	! Version:	28
;	0037	!
;	0038	! History:
;	0039	!	Author:
;	0040	!		Carol Peters, July, 1977.
;	0041	!
;	0042	!	Modified by:
;	0043	!		Mike Candela, 12 May 1978:	28
;	0044	!
;	0045	! 02	12-09-77	CP	Insert new parsing tables for MARS and
;	0046	!				FORTRAN. Sources are FCSFOR.PAT
;	0047	!				and GRAM15.PAT.
;	0048	! 03	13-09-77	CP	Add AND, OR, and NOT to keyword tables.
;	0049	!				In the set_lang routine, set the
;	0050	!				name of the appropriate get lex routine
;	0051	!				as well.
;	0052	! 04	22-09-77	CP	Add SHOW CALLS command to FCSFOR and
;	0053	!				FCSMAR. Add CALLS to MARTOK. Update all
;	0054	!				parsing tables. Add keywords and grammar
;	0055	!				specification of %LINE, %LABEL, and

; Bliss-32 7.352	Saturday 22-AUG-1978 04:25:05	DBB3:[DEBUG.SRC]DBGLAN.B32;5					Page 1-1
; Digital Equipment Corporation
;
;	0056	!				%ADDRESS.
;	0057	! 05	26-09-77	CP	New parsing tables that permit a pathname
;	0058	!				after %xxxx (FORTRAN only).
;	0059	! 06	28-09-77	CP	New parsing tables that include the
;	0060	!				CALL command.
;	0061	! 07	11-10-77	CP	SIGNAL error if language cannot
;	0062	!				be properly initialized.
;	0063	! 08	12-10-77	CP	Add action routine for array accessing.
;	0064	!				Change set_lang to take an argument.
;	0065	! 09	18-10-77	CP	Replace tables with STEP production
;	0066	!				corrected for FORTRAN. Add action
;	0067	!				routines for MARS position/size
;	0068	!				reduction.
;	0069	! 10	09-11-77	CP	Replace parsing tables for FORTRAN
;	0070	!				and MARS. Adds SET and CANCEL module
;	0071	!				and four productions missing earlier
;	0072	!				from FORTRAN.
;	0073	! 11	22-11-77	CP	Set mode level to user_def_mode in set
;	0074	!				language processing.
;	0075	! 12	23-11-77	CP	Make FORTRAN %LINE set radix to decimal.
;	0076	! 13	29-11-77	CP	Change specification of up_arrow in
;	0077	!				FORTRAN so that it can be examined.
;	0078	! 14	30-11-77	CP	Change FORTRAN floating productions.
;	0079	!				Remove percent_mode address production.
;	0080	!				Remove quoted_string production, put
;	0081	!				directly in exp7.
;	0082	! 15	06-12-77	CP	Accept both single and double precision
;	0083	!				tokens from FORTRAN lexical processing.
;	0084	!				Change parsing tables appropriately.
;	0085	! 16	14-12-77	CP	Add syntax for SET, CANCEL, and SHOW
;	0086	!				WATCH commands.
;	0087	! 17	27-12-77	CP	Fix typing error in FORTRAN grammar.
;	0088	!				Remove unnecessary breakpoint action
;	0089	!				productions also.
;	0090	! 18	28-12-77	CP	Redefine grammar tokens. Add EQV and XOR
;	0091	!				to FORTRAN. Add reduction action to /ADDRESS.
;	0092	!				Change mars_token to macro_token.
;	0093	! 19	04-JAN-78	DAR	Changed require file MARTOK.BEG to COMTER.BEG.
;	0094	!				Added require files MARACT.BEG, MARTAB.BEG,
;	0095	!				FORACT.BEG, FORTAB.BEG, BLIACT.BEG, BLITAB.BEG.
;	0096	!				Also removed require file COMACT.BEG.
;	0097	! 20	09-JAN-78	DAR	Added setting of DBG$GB_LANGUAGE, which holds
;	0098	!				the language index. 0 - MACRO, 1 - FORTRAN,
;	0099	!				2 - BLISS.
;	0100	! 21	13-JAN-78	DAR	Fixed external declaration of dbg$gb_language
;	0101	!				to have BYTE attribute.  Removed literal declarations
;	0102	!				of macro_lang, fortran_lang, bliss_lang and put
;	0103	!				them in DBGGEN.BEG
;	0104	! 22	31-jan-78	KGP	-Changed DBG$SET_LANG so that we can set the
;	0105	!				 language given the language encoding from
;	0106	!				 DST MODULE records - before you
;	0107	!				 could only do it given language _TOKEN.
;	0108	! 23	02-MAR-78	DAR	Changed BLISS case in DBG$SET_LANG to output
;	0109	!				"no such language" message.
;	0110	! 24	3-apr-78	KGP	-Added routine  dbg$language

; Bliss-32 7.352	Saturday 22-AUG-1978 04:25:05	DBB3:[DEBUG.SRC]DBGLAN.B32;5					Page 1-2
; Digital Equipment Corporation
;
;	0111	! 25	27-APR-78	DAR	Modified require and library directives
;	0112	!				for the native build.
;	0113	! 26	01-MAY-78	DAR	Added require file LANKEY.REQ, which defines the
;	0114	!				language name table "language_table", and changed
;	0115	!				routine dbg$set_lang to call dbg$tran_lexeme
;	0116	!				to find the index corresponding to the language.
;	0117	! 27	02-MAY-78	DAR	dbg$set_lang calls dbg$set_mod_def and dbg$set_stp_def
;	0118	!				to initialize the mode and step settings for
;	0119	!				the language.
;	0120	! 28	12-MAY-78	MCC	Incorporated LANKEY.REQ into the module. Added
;	0121	!				parameters to SIGNAL in DBG$SET_LANG to permit
;	0122	!				more informative error messages.
;	0123	!--

; Bliss-32 7.352	Saturday 22-AUG-1978 04:25:05	DBB3:[DEBUG.SRC]DBGLAN.B32;5					Page 2
; Digital Equipment Corporation
;
;	0124	! TABLE OF CONTENTS:
;	0125	!
;	0126
;	0127	FORWARD ROUTINE
;	0128		dbg$language,				! Produce name of given language.
;	0129		dbg$set_lang : NOVALUE;			! changes the DEBUG syntax
;	0130
;	0131	!
;	0132	! INCLUDE FILES:
;	0133	!
;	0134	%IF %VARIANT		! True for TEN
;     L 0135	%THEN
;     U 0136	LIBRARY 'NEW:STARLE';
;     U 0137
;     U 0138	REQUIRE 'DBGPCT.REQ';
;     U 0139	REQUIRE 'DBGGEN.REQ';
;     U 0140	REQUIRE 'VXSMAC.REQ';
;     U 0141	REQUIRE 'DBGMSG.REQ';
;     U 0142	REQUIRE 'COMTER.REQ';
;     U 0143	REQUIRE	'MARACT.REQ';
;     U 0144	REQUIRE	'MARTAB.REQ';
;     U 0145	REQUIRE	'FORACT.REQ';
;     U 0146	REQUIRE	'FORTAB.REQ';
;     U 0147	REQUIRE	'BLIACT.REQ';
;     U 0148	REQUIRE	'BLITAB.REQ';
;     U 0149	REQUIRE 'SYSSER.REQ';
;     U 0150	%ELSE
;	0151	LIBRARY 'SYS$LIBRARY:STARLET.L32';
;	0152
;	0153	REQUIRE 'SRC$:DBGPCT.REQ';
;	0165	REQUIRE 'SRC$:DBGGEN.REQ';
;	0415	REQUIRE 'SRC$:VXSMAC.REQ';
;	0455	REQUIRE 'LIB$:DBGMSG.REQ';
;	0734	REQUIRE 'SRC$:COMTER.REQ';
;	0826	REQUIRE	'SRC$:MARACT.REQ';
;	0881	REQUIRE	'SRC$:MARTAB.REQ';
;	2078	REQUIRE	'SRC$:FORACT.REQ';
;	2146	REQUIRE	'SRC$:FORTAB.REQ';
;	3603	REQUIRE	'SRC$:BLIACT.REQ';
;	3622	REQUIRE	'SRC$:BLITAB.REQ';
;	3673	REQUIRE 'SRC$:SYSSER.REQ';
;      R3676	SWITCHES LIST (SOURCE);
;      R3677
;      R3678	EXTERNAL ROUTINE
;      R3679		dbg$fao_out;				! formats a line and outputs to the terminal
;      R3680
;      R3681	SWITCHES LIST (NOSOURCE);
;	3726	%FI
;	3727
;	3728	!
;	3729	! MACROS:
;	3730	!
;	3731	!++
;	3732	!
;	3733	! The keyword_table is made of four-tuple entries,

; Bliss-32 7.352	Saturday 22-AUG-1978 04:25:05	DBB3:[DEBUG.SRC]DBGLAN.B32;5					Page 2-1
; Digital Equipment Corporation
;
;	3734	! 1) the language index (0 - n),
;	3735	! 2) the number of characters in the minimal abbreviation,
;	3736	! 3) the number of characters in the language name,
;	3737	! 4) the language name as an ASCII string.
;	3738	!
;	3739	! Macro KEY_NAME formats table entries for the language name table.
;	3740	! Each entry has three formals:
;	3741	! 1) the ASCII string representing a language name,
;	3742	! 2) the length of that ASCII string abbreviated,
;	3743	! 3) the  language index for that lanugage (-1 not yet implemented).
;	3744	!--
;	3745	MACRO
;	3746		key_name (kname, kabbrev, kequiv) =
;     M 3747				kequiv, kabbrev, %CHARCOUNT (kname), %ASCII kname%;
;	3748
;	3749	!
;	3750	! EQUATED SYMBOLS:
;	3751	!
;	3752
;	3753	LITERAL
;	3754		dbg_lan	= 0 ;		! diagnostic messages in dbg$set_lang
;	3755
;	3756	!
;	3757	! OWN STORAGE:
;	3758	!
;	3759
;	3760	BIND
;	3761		language_table 	= UPLIT BYTE (
;	3762
;	3763		key_name ('MACRO',	2, 0),
;	3764		key_name ('FORTRAN',	2, 1),
;	3765		key_name ('BLISS',	2, 2),
;	3766
;	3767		0	) : VECTOR [, BYTE];
;	3768
;	3769	!
;	3770
;	3771	!
;	3772	! EXTERNAL REFERENCES:
;	3773	!
;	3774
;	3775	EXTERNAL ROUTINE
;	3776		dbg$bli_get_lex: WEAK,			! BLISS lexical scanner
;	3777		dbg$bli_reductn: WEAK,			! BLISS action routines
;	3778		dbg$for_get_lex: WEAK,			! FORTRAN lexical scanner
;	3779		dbg$for_reductn: WEAK,			! FORTRAN action routines
;	3780		dbg$mar_get_lex: WEAK,			! MACRO lexical scanner
;	3781		dbg$mar_reductn: WEAK,			! MACRO action routines
;	3782		dbg$set_mod_def,			! initializes mode settings
;	3783		dbg$set_stp_def,			! initializes step settings
;	3784		dbg$tran_lexeme;			! translates lexeme into index
;	3785
;	3786	EXTERNAL
;	3787		dbg$gb_language: BYTE,			! holds the language index
;	3788		dbg$gl_get_lex,				! holds name of current get lex routine

; Bliss-32 7.352	Saturday 22-AUG-1978 04:25:05	DBB3:[DEBUG.SRC]DBGLAN.B32;5					Page 2-2
; Digital Equipment Corporation
;
;	3789		dbg$gl_partbptr: VECTOR,		! list of parse table addresses
;	3790		dbg$gl_reduc_rt;			! name of action routine for a syntax

; Bliss-32 7.352	Saturday 22-AUG-1978 04:25:05	DBB3:[DEBUG.SRC]DBGLAN.B32;5					Page 3
; Digital Equipment Corporation
;
;	3791	GLOBAL ROUTINE dbg$set_lang (lang_str_desc, language_module) : NOVALUE =
;	3792
;	3793	!++
;	3794	! Functional description:
;	3795	!	This routine loads the pointers to the current parsing tables
;	3796	!	with those of the new language.  The reduction routine and lexeme
;	3797	!	collection routine addresses are also changed.
;	3798	!
;	3799	! Formal parameters:
;	3800	!	lang_str_desc	- The address of a string descriptor that holds
;	3801	!			  the new language name, or 0.
;	3802	!	language_module	- If "lang_str_desc" is zero this parameter holds the
;	3803	!			  language and module index number as defined in DBGGEN.REQ.
;	3804	!			  MACRO - 0
;	3805	!			  FORTRAN - 1
;	3806	!			  BLISS - 2
;	3807	!
;	3808	! Implicit inputs:
;	3809	!	none
;	3810	!
;	3811	! Outputs:
;	3812	!	none
;	3813	!
;	3814	! Implicit outputs:
;	3815	!	The pointers to the parsing tables and to the action routines
;	3816	!	are changed.
;	3817	!
;	3818	! Routine value:
;	3819	!	novalue
;	3820	!
;	3821	! Side effects:
;	3822	!	Signal if language name is not recognized or not yet supported.
;	3823	!--
;	3824
;	3825		BEGIN
;	3826
;	3827		LITERAL
;	3828			max_lang = 1;
;	3829
;	3830		LOCAL
;	3831			count;
;	3832
;	3833		IF (.lang_str_desc NEQ 0)		! Was routine called with descriptor?
;	3834		THEN
;	3835			BEGIN
;	3836			count = dbg$tran_lexeme ( .lang_str_desc, language_table);
;	3837			IF (.count EQL alpha_str_token)
;	3838			THEN	signal (dbg$_nosuchlan, 1, .lang_str_desc);
;	3839			IF (.count GTR max_lang)
;	3840			THEN
;	3841			    BEGIN
;	3842				signal (dbg$_notimplan, 1, dbg$language(.count));
;	3843				RETURN;
;	3844			    END;
;	3845			END

; Bliss-32 7.352	Saturday 22-AUG-1978 04:25:05	DBB3:[DEBUG.SRC]DBGLAN.B32;5					Page 3-1
; Digital Equipment Corporation
;
;	3846		ELSE
;	3847			count = .language_module;
;	3848
;	3849	%IF dbg_lan
;     L 3850	%THEN
;     U 3851		$fao_tt_out ('language index is !SL', .count);
;     U 3852	%FI
;	3853
;	3854		dbg$gb_language = .count;		! set language index
;	3855		CASE .count FROM 0 TO max_lang OF
;	3856
;	3857			SET
;	3858
;	3859			[macro_lang]:	! MACRO language
;	3860				BEGIN
;	3861				dbg$gl_partbptr [0] = mar_state_table;
;	3862				dbg$gl_partbptr [1] = mar_act_table;
;	3863				dbg$gl_partbptr [2] = mar_pop_table;
;	3864				dbg$gl_partbptr [3] = mar_lhs_table;
;	3865				dbg$gl_partbptr [4] = mar_sem_table;
;	3866				dbg$gl_get_lex = dbg$mar_get_lex;
;	3867				dbg$gl_reduc_rt = dbg$mar_reductn;
;	3868				END;
;	3869
;	3870
;	3871			[fortran_lang]:	! FORTRAN language
;	3872				BEGIN
;	3873				dbg$gl_partbptr [0] = for_state_table;
;	3874				dbg$gl_partbptr [1] = for_act_table;
;	3875				dbg$gl_partbptr [2] = for_pop_table;
;	3876				dbg$gl_partbptr [3] = for_lhs_table;
;	3877				dbg$gl_partbptr [4] = for_sem_table;
;	3878				dbg$gl_get_lex = dbg$for_get_lex;
;	3879				dbg$gl_reduc_rt = dbg$for_reductn;
;	3880				END;
;	3881
;	3882
;	3883	!		[bliss_lang]:	! BLISS language
;	3884	!			BEGIN
;	3885	!			dbg$gl_partbptr [0] = bli_state_table;
;	3886	!			dbg$gl_partbptr [1] = bli_act_table;
;	3887	!			dbg$gl_partbptr [2] = bli_pop_table;
;	3888	!			dbg$gl_partbptr [3] = bli_lhs_table;
;	3889	!			dbg$gl_partbptr [4] = bli_sem_table;
;	3890	!			dbg$gl_get_lex = dbg$bli_get_lex;
;	3891	!			dbg$gl_reduc_rt = dbg$bli_reductn;
;	3892	!			END;
;	3893
;	3894			TES;
;	3895
;	3896		dbg$set_mod_def ();
;	3897		dbg$set_stp_def ();
;	3898
;	3899	%IF dbg_lan
;     L 3900	%THEN

; Bliss-32 7.352	Saturday 22-AUG-1978 04:25:05	DBB3:[DEBUG.SRC]DBGLAN.B32;5					Page 3-2
; Digital Equipment Corporation
;
;     U 3901		$fao_tt_out ('reduction routine is !XL', .dbg$gl_reduc_rt);
;     U 3902	%FI
;	3903
;	3904		END;


							    .TITLE  DBGLAN
							    .IDENT  \000028\

							    .PSECT  DBG$PLIT,NOWRT,  SHR,  PIC,0

					      00000 P.AAA:  .WORD   102, 103, 104, 99, 10, 9, 13, 12, 16, 17, 19, 45, 46, -   ;
								    119, 22, 120, 47, 9997, 100, 103, 9996, 99, 84, 9997, 3, -;
								    7, 18, 31, 32, 44, 51, 52, 9997, 105, 86, 129, 87, 130, - ;
								    131, 79, 72, 61, 107, 70, 117, 75, 78, 62, 80, 73, 9997, -;
								    3, 9997, 79, 72, 60, 86, 61, 9997, 130, 9996, 130, 9996, -;
								    130, 9996, 130, 9996, 132, 70, 9997, 133, 75, 9997, 134, -;
								    64, 9997, 133, 9996, 82, 9997, 105, 9996, 82, 9997, 62, - ;
								    9997, 73, 9997, 130, 9996, 130, 9996, 130, 9996, 130, -   ;
								    9996, 7, 9997, 106, 86, 123, 73, 9997, 65, 9997, 123, -   ;
								    9996, 3, 9997, 105, 86, 9996, 9, 6, 3, 9997, 105, 86, -   ;
								    9996, 3, 9997, 107, 9996, 76, 9997, 108, 105, 9996, 63, - ;
								    65, 9997, 105, 9996, 109, 110, 86, 128, 105, 9996, 110, - ;
								    86, 128, 105, 9996, 124, 23, 40, 11, 8, 53, 29, 24, 35, - ;
								    5, 33, 49, 37, 44, 36, 21, 34, 9997, 67, 9997, 108, -     ;
								    9996, 65, 9997, 124, 9996, 111, 127, 73, 9997, 65, 9997, -;
								    127, 9996, 67, 9997, 105, 9996, 67, 9997, 105, 9996, -    ;
								    112, 108, 86, 9996, 108, 86, 9996, 65, 9997, 126, 124, -  ;
								    30, 9996, 65, 9997, 126, 124, 30, 9996, 109, 113, 86, -   ;
								    105, 129, 87, 130, 131, 79, 72, 61, 107, 70, 117, 75, -   ;
								    78, 62, 80, 73, 9997, 113, 86, 105, 129, 87, 130, 131, -  ;
								    79, 72, 61, 107, 70, 117, 75, 78, 62, 80, 73, 9997, 65, - ;
								    9997, 105, 9996, 64, 9997, 105, 9996, 64, 9997, 105, -    ;
								    9996, 65, 9997, 7, 18, 27, 31, 32, 44, 47, 51, 52, 9997, -;
								    105, 115, 129, 87, 122, 130, 86, 9996, 14, 9997, 114, -   ;
								    76, 9997, 105, 9996, 14, 9997, 114, 9996, 75, 9997, 2, -  ;
								    9997, 64, 9997, 7, 9997, 73, 9997, 116, 124, 9996, 65, -  ;
								    9997, 124, 9996, 106, 86, 9996, 65, 9997, 3, 9997, 117, - ;
								    9996, 62, 9997, 118, 125, 25, 42, 24, 48, 50, 38, 9997, - ;
								    65, 9997, 125, 9996, 105, 86, 9996, 9, 6, 9997, 105, -    ;
								    9996, 7, 27, 31, 32, 44, 47, 51, 52, 9, 9997, 75, 9997, - ;
								    105, 129, 87, 130, 131, 79, 72, 61, 107, 70, 117, 75, -   ;
								    78, 62, 80, 73, 9997, 121, 75, 86, 9997, 75, 86, 9997, -  ;
								    125, 9996, 125, 9996, 0				      ;
					      002F2	    .BLKB   2
					      002F4 P.AAB:  .WORD   18, -2, 21, -6, 24, 121, 133, 170, 186, 205, -32, 258, -  ;
								    336, 346, 348, 365, -65, 9999, -1, -3, 2, -4, -5, 9999, - ;
								    -7, 33, 96, -11, 98, -14, 109, 116, 9999, -8, 51, 53, -   ;
								    -120, -121, -127, 61, 63, 65, 67, 80, 84, -137, -138, -   ;
								    -139, -140, -69, 9999, -9, 9999, 59, 88, 90, 92, 94, -    ;
								    -10117, -122, 38, -128, 38, -129, 38, -130, 38, 70, -     ;
								    -134, -10129, 73, -141, 9999, 76, -135, 9999, 78, 71, -   ;
								    -132, 9999, 82, 35, -133, 9999, 86, -10134, -68, 9999, -  ;
								    -123, 38, -124, 38, -125, 38, -126, 38, -10, 9999, 103, - ;
								    107, -71, -72, 9999, 105, -10010, -70, 101, -13, 9999, -  ;

; Bliss-32 7.352	Saturday 22-AUG-1978 04:25:05	DBB3:[DEBUG.SRC]DBGLAN.B32;5					Page 3-3
; Digital Equipment Corporation
;
								    -15, 112, 35, -16, -17, -18, 9999, -19, 119, 35, -20, -   ;
								    9999, 123, 44, 125, -10020, 128, -112, 35, -21, 131, -    ;
								    9999, -111, 35, 139, -24, 168, 162, -118, 35, -23, 144, - ;
								    162, -118, 35, -75, -77, -78, -79, -80, -81, -82, -83, -  ;
								    -84, -85, -86, -87, -88, -89, -90, -91, -92, 9999, 164, - ;
								    9999, 166, 126, 131, -10115, -76, 145, 174, 182, -110, -  ;
								    9999, 176, -10023, 178, 172, 180, 9999, -108, 35, 184, -  ;
								    9999, -109, 35, 190, 199, 201, 126, 193, 195, 126, 131, - ;
								    -10024, -103, -105, -106, 145, 131, -10025, -104, -105, - ;
								    -106, 145, 225, 256, 168, 252, 53, -120, -121, -127, 61, -;
								    63, 65, 67, 80, 84, -137, -138, -139, -140, -69, -10029, -;
								    244, 144, 252, 53, -120, -121, -127, 61, 63, 65, 67, 80, -;
								    84, -137, -138, -139, -140, -69, -10027, 246, -10026, -   ;
								    248, 35, 250, -10111, -115, 35, 254, -10112, -116, 35, -  ;
								    246, -10028, 268, 293, 295, 297, 304, 311, 315, 328, -    ;
								    334, 9999, 276, 281, 53, -120, 287, -121, 289, 38, 278, - ;
								    -10031, -34, -107, 9999, 283, 35, 285, -10033, -36, 279, -;
								    -66, 9999, 291, 9999, -67, 9999, -37, 9999, -38, 9999, -  ;
								    300, -74, 145, 302, -10037, -73, 145, 307, 309, 100, -    ;
								    105, -10038, -41, 9999, 313, 49, 86, -10040, 324, -96, -  ;
								    -97, -98, -99, -100, -101, -102, 9999, 326, -10041, -95, -;
								    317, -44, 331, 35, -45, -46, 9999, -47, 35, -48, -51, -   ;
								    -52, -53, -54, -55, -56, -57, -64, 9999, -49, -10048, -   ;
								    -59, 53, -120, -121, -127, 61, 63, 65, 67, 80, 84, -137, -;
								    -138, -139, -140, -69, -10056, 369, -62, 374, -10061, -   ;
								    -60, 372, -10059, -93, 317, -94, 317, 0		      ;
					      005E6	    .BLKB   2
					      005E8 P.AAC:  .BYTE   0, 1, 0, 1, 1, 1, 0, 1, 2, 3, 2, 1, 2, 3, 1, 2, 3, 3, 3, -;
								    2, 3, 4, 1, 2, 1, 1, 2, 1, 2, 1, 1, 0, 0, 2, 4, 3, 5, 2, -;
								    2, 2, 2, 3, 2, 2, 2, 3, 3, 2, 1, 1, 0, 1, 1, 1, 1, 1, 1, -;
								    1, 0, 1, 2, 1, 1, 0, 1, 0, 1, 2, 2, 0, 2, 0, 0, 2, 0, 2, -;
								    1, 0, 0, 0, 0, 0, 0, 0, 0, 0, 0, 0, 0, 0, 0, 0, 0, 2, 1, -;
								    2, 0, 0, 0, 0, 0, 0, 0, 2, 1, 0, 0, 0, 4, 2, 0, 2, 0, 2, -;
								    0, 4, 2, 2, 0, 0, 0, 0, 2, 2, 2, 2, 2, 0, 1, 1, 1, 0, 5, -;
								    2, 0, 0, 0, 0, 0, 0, 0, 0, 0			      ;
					      00677	    .BLKB   1
					      00678 P.AAD:  .BYTE   0, 101, 102, 102, 103, 103, 103, 104, 104, 104, 104, -    ;
								    104, 104, 104, 104, 104, 104, 104, 104, 104, 104, 104, -  ;
								    104, 104, 104, 104, 104, 104, 104, 104, 104, 104, 104, -  ;
								    104, 104, 104, 104, 104, 104, 104, 104, 104, 104, 104, -  ;
								    104, 104, 104, 104, 104, 104, 104, 104, 104, 104, 104, -  ;
								    104, 104, 104, 104, 104, 104, 104, 104, 104, 119, 120, -  ;
								    115, 122, 117, 117, 106, 106, 123, 116, 116, 109, 109, -  ;
								    124, 124, 124, 124, 124, 124, 124, 124, 124, 124, 124, -  ;
								    124, 124, 124, 124, 124, 121, 121, 118, 118, 125, 125, -  ;
								    125, 125, 125, 125, 112, 112, 126, 126, 114, 111, 111, -  ;
								    127, 108, 108, 113, 113, 113, 113, 110, -128, 105, 105, - ;
								    -127, -127, -127, -127, -127, -127, -126, -126, -126, -   ;
								    -126, -125, -125, -125, -124, -122, 107, 107, 107, 107, - ;
								    107, -123, 0					      ;
					      00707	    .BLKB   1
					      00708 P.AAE:  .BYTE   46, 46, 46, 46, 17, 17, 17, 2, 2, 2, 2, 2, 2, 2, 2, 2, -  ;
								    2, 2, 2, 2, 2, 12, 12, 46, 46, 46, 46, 46, 46, 46, 46, -  ;
								    46, 46, 19, 15, 19, 15, 19, 23, 26, 5, 5, 30, 42, 19, -   ;
								    19, 19, 19, 18, 9, 11, 18, 18, 18, 18, 18, 18, 18, 46, -  ;

; Bliss-32 7.352	Saturday 22-AUG-1978 04:25:05	DBB3:[DEBUG.SRC]DBGLAN.B32;5					Page 3-4
; Digital Equipment Corporation
;
								    20, 39, 46, 38, 46, 10, 10, 14, 10, 29, 29, 3, 13, 25, -  ;
								    3, 13, 41, 44, 46, 46, 46, 46, 46, 46, 46, 46, 46, 46, -  ;
								    46, 46, 46, 46, 46, 46, 43, 45, 3, 13, 46, 46, 46, 46, -  ;
								    46, 46, 41, 44, 46, 46, 1, 16, 4, 7, 3, 13, 3, 13, 6, -   ;
								    28, 46, 13, 46, 36, 46, 8, 35, 37, 33, 27, 46, 40, 22, -  ;
								    24, 46, 32, 21, 10, 10, 31, 36, 36, 36, 34, 36, 0	      ;
					      00797	    .BLKB   1
					      00798 P.AAF:  .WORD   102, 103, 104, 99, 10, 9, 13, 111, 113, 17, 19, 45, 46, - ;
								    121, 22, 122, 12, 16, 47, 9997, 100, 103, 9996, 99, 84, - ;
								    9997, 3, 7, 18, 31, 32, 44, 51, 52, 9997, 105, 86, 132, - ;
								    133, 134, 135, 39, 136, 137, 79, 72, 76, 80, 130, 107, -  ;
								    85, 66, 138, 141, 119, 75, 87, 62, 78, 26, 28, 73, 9997, -;
								    54, 15, 9997, 132, 9996, 41, 9997, 133, 9996, 4, 9997, -  ;
								    134, 9996, 79, 72, 9997, 136, 9996, 60, 86, 9997, 137, -  ;
								    9996, 137, 9996, 137, 9996, 105, 9996, 63, 54, 15, 9997, -;
								    132, 9996, 41, 9997, 4, 9997, 134, 9996, 60, 86, 9997, -  ;
								    137, 9996, 76, 140, 9997, 139, 105, 9996, 63, 65, 9997, - ;
								    140, 76, 9997, 105, 9996, 64, 9996, 105, 9996, 63, 9996, -;
								    41, 9997, 119, 9996, 62, 9997, 73, 9997, 76, 62, 9997, -  ;
								    105, 9996, 54, 15, 9997, 64, 54, 15, 9997, 136, 9996, -   ;
								    60, 86, 9997, 3, 9997, 7, 9997, 106, 86, 125, 73, 9997, - ;
								    65, 9997, 125, 9996, 3, 9997, 105, 86, 9996, 54, 15, -    ;
								    9997, 9, 6, 3, 9997, 105, 86, 9996, 54, 15, 9997, 3, -    ;
								    9997, 107, 119, 75, 87, 62, 78, 9996, 76, 9997, 108, -    ;
								    105, 9996, 63, 65, 9997, 105, 9996, 54, 15, 9997, 54, -   ;
								    15, 9997, 109, 110, 86, 131, 130, 9996, 110, 86, 131, -   ;
								    130, 9996, 126, 23, 40, 11, 8, 53, 29, 24, 35, 5, 33, -   ;
								    49, 37, 44, 36, 21, 34, 9997, 67, 9997, 108, 9996, 65, -  ;
								    9997, 126, 9996, 112, 129, 73, 9997, 65, 9997, 129, -     ;
								    9996, 67, 9997, 105, 9996, 54, 15, 9997, 67, 9997, 105, - ;
								    9996, 54, 15, 9997, 114, 108, 86, 9996, 108, 86, 9996, -  ;
								    65, 9997, 128, 126, 30, 1, 9996, 65, 9997, 128, 126, 30, -;
								    1, 9996, 109, 115, 86, 130, 107, 85, 66, 138, 141, 119, - ;
								    75, 87, 62, 78, 26, 28, 73, 9997, 115, 86, 130, 107, 85, -;
								    66, 138, 141, 119, 75, 87, 62, 78, 26, 28, 73, 9997, 65, -;
								    9997, 130, 9996, 64, 9997, 130, 9996, 64, 9997, 130, -    ;
								    9996, 65, 9997, 7, 18, 27, 31, 32, 44, 47, 51, 52, 9997, -;
								    105, 117, 132, 124, 133, 86, 9996, 14, 54, 15, 9997, -    ;
								    116, 76, 9997, 105, 9996, 14, 54, 15, 9997, 116, 9996, -  ;
								    75, 9997, 2, 9997, 64, 9997, 7, 9997, 73, 9997, 118, -    ;
								    126, 9996, 65, 9997, 126, 9996, 106, 86, 9996, 65, 9997, -;
								    3, 9997, 119, 9996, 62, 9997, 120, 127, 25, 42, 24, 48, - ;
								    50, 38, 9997, 65, 9997, 127, 9996, 105, 86, 9996, 54, -   ;
								    15, 9997, 9, 6, 9997, 105, 9996, 54, 15, 9997, 7, 27, -   ;
								    31, 32, 44, 47, 51, 52, 9, 9997, 75, 9997, 105, 132, -    ;
								    133, 134, 135, 39, 136, 137, 79, 72, 76, 80, 130, 107, -  ;
								    85, 66, 138, 141, 119, 75, 87, 62, 78, 26, 28, 73, 9997, -;
								    54, 15, 9997, 123, 75, 86, 9997, 75, 86, 9997, 127, -     ;
								    9996, 127, 9996, 0					      ;
					      00B58 P.AAG:  .WORD   20, -2, 23, -6, 26, 187, 210, 247, 269, 290, -32, 339, -  ;
								    426, 436, 438, 468, -109, -113, -65, 9999, -1, -3, 2, -   ;
								    -4, -5, 9999, -7, 35, 156, -11, 158, -14, 169, 179, -     ;
								    9999, 63, 154, 129, 100, -127, 76, 102, 104, -134, 86, -  ;
								    88, 90, -140, -141, -142, -143, -144, 109, 131, 137, -    ;
								    -156, -157, -158, -159, -153, -154, -69, 9999, 66, 96, -  ;

; Bliss-32 7.352	Saturday 22-AUG-1978 04:25:05	DBB3:[DEBUG.SRC]DBGLAN.B32;5					Page 3-5
; Digital Equipment Corporation
;
								    -10006, 68, 38, 70, -10121, 72, 39, 74, -10124, -128, -   ;
								    40, 79, 149, -10127, 81, 43, 84, 107, -10130, -135, 44, - ;
								    -137, 44, -138, 44, 92, 37, -139, 66, 96, 9999, 98, 38, - ;
								    70, -10122, 74, -10123, -130, 40, 84, 107, -10129, -136, -;
								    44, 112, -147, 9999, 115, 145, 37, 118, 140, 9999, -146, -;
								    121, -10143, 123, 37, 125, 93, 127, 37, -150, 93, 70, -   ;
								    -10120, 133, 61, 135, -10146, -68, 9999, -10147, 135, -   ;
								    -10153, 142, 37, 66, 96, -10149, 125, 66, 96, -10150, -   ;
								    151, 43, 84, 107, -10131, -9, 9999, -10, 9999, 163, 167, -;
								    -71, -72, 9999, 165, -10010, -70, 161, -13, 9999, 172, -  ;
								    175, 37, 66, 96, -10013, -16, -17, -18, 9999, 182, 185, - ;
								    37, 66, 96, -10017, -20, 9999, 194, 138, -156, -157, -    ;
								    -158, -159, 61, 196, -10020, 199, 207, 37, -21, 202, -    ;
								    9999, 204, 37, 66, 96, -10112, 66, 96, -10113, 216, -24, -;
								    245, 239, -121, 49, -23, 221, 239, -121, 49, -75, -77, -  ;
								    -78, -79, -80, -81, -82, -83, -84, -85, -86, -87, -88, -  ;
								    -89, -90, -91, -92, 9999, 241, 9999, 243, 197, 202, -     ;
								    -10118, -76, 222, 251, 262, -112, 9999, 253, -10023, -    ;
								    255, 249, 257, 9999, 259, 37, 66, 96, -10108, 264, 9999, -;
								    266, 37, 66, 96, -10109, 273, 283, 285, 197, 276, 278, -  ;
								    197, 202, -10024, -103, -105, -106, -107, 222, 202, -     ;
								    -10025, -104, -105, -106, -107, 222, 308, 337, 245, 333, -;
								    -142, -143, -144, 109, 131, 137, -156, -157, -158, -159, -;
								    -153, -154, -69, -10029, 325, 221, 333, -142, -143, -     ;
								    -144, 109, 131, 137, -156, -157, -158, -159, -153, -154, -;
								    -69, -10027, 327, -10026, 329, 49, 331, -10114, -118, -   ;
								    49, 335, -10115, -119, 49, 327, -10028, 349, 377, 379, -  ;
								    381, 388, 395, 399, 412, 421, 9999, 356, 363, 129, 371, - ;
								    100, 373, 39, 360, 66, 96, -10031, -34, -108, 9999, 365, -;
								    37, 369, 66, 96, -10033, -36, 361, -66, 9999, 375, 9999, -;
								    -67, 9999, -37, 9999, -38, 9999, 384, -74, 222, 386, -    ;
								    -10037, -73, 222, 391, 393, 160, 165, -10038, -41, 9999, -;
								    397, 61, 135, -10040, 408, -96, -97, -98, -99, -100, -    ;
								    -101, -102, 9999, 410, -10041, -95, 401, 415, 418, 37, -  ;
								    66, 96, -10042, -45, -46, 9999, 423, 37, 66, 96, -10045, -;
								    -48, -51, -52, -53, -54, -55, -56, -57, -64, 9999, -49, - ;
								    -10048, 465, 129, 100, -127, 76, 102, 104, -134, 86, 88, -;
								    90, -140, -141, -142, -143, -144, 109, 131, 137, -156, -  ;
								    -157, -158, -159, -153, -154, -69, -10056, 66, 96, -      ;
								    -10057, 472, -62, 477, -10061, -60, 475, -10059, -93, -   ;
								    401, -94, 401, 0					      ;
					      00F18 P.AAH:  .BYTE   0, 1, 0, 1, 1, 1, 0, 1, 2, 3, 2, 1, 2, 3, 1, 2, 3, 3, 3, -;
								    2, 3, 4, 1, 2, 1, 1, 2, 1, 2, 1, 1, 0, 0, 2, 4, 3, 5, 2, -;
								    2, 2, 2, 3, 2, 2, 2, 3, 3, 2, 1, 1, 0, 1, 1, 1, 1, 1, 1, -;
								    1, 0, 1, 2, 1, 1, 0, 1, 0, 1, 2, 2, 0, 2, 0, 0, 2, 0, 2, -;
								    1, 0, 0, 0, 0, 0, 0, 0, 0, 0, 0, 0, 0, 0, 0, 0, 0, 2, 1, -;
								    2, 0, 0, 0, 0, 0, 0, 0, 2, 1, 0, 0, 0, 0, 0, 4, 2, 0, 0, -;
								    2, 0, 2, 0, 4, 2, 2, 0, 0, 2, 2, 0, 2, 0, 2, 0, 1, 0, 2, -;
								    2, 0, 2, 2, 1, 1, 2, 0, 0, 0, 0, 0, 3, 4, 1, 1, 0, 4, 2, -;
								    0, 0, 0, 0, 0, 0, 0, 0, 0				      ;
					      00FB9	    .BLKB   3
					      00FBC P.AAI:  .BYTE   0, 101, 102, 102, 103, 103, 103, 104, 104, 104, 104, -    ;
								    104, 104, 104, 104, 104, 104, 104, 104, 104, 104, 104, -  ;
								    104, 104, 104, 104, 104, 104, 104, 104, 104, 104, 104, -  ;
								    104, 104, 104, 104, 104, 104, 104, 104, 104, 104, 104, -  ;

; Bliss-32 7.352	Saturday 22-AUG-1978 04:25:05	DBB3:[DEBUG.SRC]DBGLAN.B32;5					Page 3-6
; Digital Equipment Corporation
;
								    104, 104, 104, 104, 104, 104, 104, 104, 104, 104, 104, -  ;
								    104, 104, 104, 104, 104, 104, 104, 104, 104, 121, 122, -  ;
								    117, 124, 119, 119, 106, 106, 125, 118, 118, 109, 109, -  ;
								    126, 126, 126, 126, 126, 126, 126, 126, 126, 126, 126, -  ;
								    126, 126, 126, 126, 126, 123, 123, 120, 120, 127, 127, -  ;
								    127, 127, 127, 127, 114, 114, -128, -128, -128, 116, -    ;
								    111, 112, 112, -127, 113, 108, 108, 115, 115, 115, 115, - ;
								    110, -125, 105, 105, 105, -124, -124, -123, -123, -122, - ;
								    -122, -121, -121, -121, -120, -120, -120, -119, -119, -   ;
								    -119, -119, -119, -126, -126, -126, -126, -126, -126, -   ;
								    -126, -118, -116, -117, -117, -115, -115, 107, 107, 107, -;
								    107, 107, 0						      ;
					      0105D	    .BLKB   3
					      01060 P.AAJ:  .BYTE   59, 59, 59, 59, 23, 23, 23, 3, 3, 3, 3, 3, 3, 3, 3, 3, -  ;
								    3, 3, 3, 3, 3, 15, 15, 59, 59, 59, 59, 59, 59, 59, 59, -  ;
								    59, 59, 27, 20, 27, 20, 27, 32, 35, 6, 6, 39, 54, 27, -   ;
								    27, 27, 27, 26, 12, 14, 26, 26, 26, 26, 26, 26, 26, 59, - ;
								    28, 49, 59, 48, 59, 13, 13, 18, 13, 38, 38, 4, 17, 34, -  ;
								    4, 17, 52, 57, 59, 59, 59, 59, 59, 59, 59, 59, 59, 59, -  ;
								    59, 59, 59, 59, 59, 59, 56, 58, 4, 17, 59, 59, 59, 59, -  ;
								    59, 59, 52, 57, 59, 59, 9, 1, 31, 22, 5, 8, 31, 4, 17, -  ;
								    4, 17, 7, 36, 59, 11, 59, 55, 46, 59, 45, 59, 25, 59, -   ;
								    51, 59, 10, 44, 59, 47, 41, 50, 30, 29, 42, 59, 59, 43, - ;
								    43, 21, 21, 21, 24, 19, 53, 2, 16, 33, 37, 40, 43, 43, -  ;
								    43, 43, 0						      ;
					      01101	    .BLKB   3
					      01104	    .LONG   10
					      01108 P.AAK:  .WORD   102, 103, 104, 99, 19, 36, 9997, 100, 103, 9996, 99, 71, -;
								    9997, 22, 9997, 105, 24, 17, 4, 9997		      ;
					      01130	    .LONG   10
					      01134 P.AAL:  .WORD   7, -2, 10, -6, -7, 13, 9999, -1, -3, 2, -4, -5, 9999, -   ;
								    15, 9999, -8, -9, -10, -11, 9999			      ;
					      0115C	    .LONG   3
					      01160 P.AAM:  .BYTE   0, 1, 0, 1, 1, 1, 0, 0, 2, 0, 0, 0			      ;
					      0116C	    .LONG   3
					      01170 P.AAN:  .BYTE   0, 101, 102, 102, 103, 103, 103, 104, 104, 105, 105, 105  ;
					      0117C	    .LONG   3
					      01180 P.AAO:  .BYTE   3, 3, 3, 3, 1, 1, 1, 3, 2, 3, 3, 3			      ;
					      0118C P.AAP:  .BYTE   0, 2, 5						      ;
					      0118F 	    .ASCII  \MACRO\						      ;
					      01194 	    .BYTE   1, 2, 7						      ;
					      01197 	    .ASCII  \FORTRAN\						      ;
					      0119E 	    .BYTE   2, 2, 5						      ;
					      011A1 	    .ASCII  \BLISS\						      ;
					      011A6 	    .BYTE   0							      ;
					      011A7	    .BLKB   1

						    MAR_STATE_TABLE=	P.AAA
						    MAR_ACT_TABLE=	P.AAB
						    MAR_POP_TABLE=	P.AAC
						    MAR_LHS_TABLE=	P.AAD
						    MAR_SEM_TABLE=	P.AAE
						    FOR_STATE_TABLE=	P.AAF
						    FOR_ACT_TABLE=	P.AAG
						    FOR_POP_TABLE=	P.AAH

; Bliss-32 7.352	Saturday 22-AUG-1978 04:25:05	DBB3:[DEBUG.SRC]DBGLAN.B32;5					Page 3-7
; Digital Equipment Corporation
;
						    FOR_LHS_TABLE=	P.AAI
						    FOR_SEM_TABLE=	P.AAJ
						    BLI_STATE_TABLE=	P.AAK
						    BLI_ACT_TABLE=	P.AAL
						    BLI_POP_TABLE=	P.AAM
						    BLI_LHS_TABLE=	P.AAN
						    BLI_SEM_TABLE=	P.AAO
						    LANGUAGE_TABLE=	P.AAP
							    .GLOBL  DBG$FAO_OUT, DBG$SET_MOD_DEF, DBG$SET_STP_DEF
							    .GLOBL  DBG$TRAN_LEXEME, DBG$GB_LANGUAGE, DBG$GL_GET_LEX
							    .GLOBL  DBG$GL_PARTBPTR, DBG$GL_REDUC_RT
							    .WEAK   DBG$BLI_GET_LEX, DBG$BLI_REDUCTN, DBG$FOR_GET_LEX
							    .WEAK   DBG$FOR_REDUCTN, DBG$MAR_GET_LEX, DBG$MAR_REDUCTN

							    .PSECT  DBG$CODE,NOWRT,  SHR,  PIC,0

					 0F8C 00000 	    .ENTRY  DBG$SET_LANG, Save R2,R3,R7,R8,R9,R10,R11		      ; 3791
		         57 00000000G  EF  9E 00002 	    MOVAB   DBG$GL_REDUC_RT, R7					      ;
		         58 00000000G  EF  9E 00009 	    MOVAB   DBG$GL_GET_LEX, R8					      ;
		         59 00000000G  00  9E 00010 	    MOVAB   LIB$SIGNAL, R9					      ;
		         5A 00000000G  EF  9E 00017 	    MOVAB   DBG$GL_PARTBPTR, R10				      ;
		         5B 00000000'  EF  9E 0001E 	    MOVAB   LANGUAGE_TABLE, R11					      ;
		         52	  04   AC  D0 00025 	    MOVL    LANG_STR_DESC, R2					      ; 3833
				       3E  13 00029 	    BEQL    2$							      ;
				0804   8F  BB 0002B 	    PUSHR   #^M<R2,R11>						      ; 3836
	      00000000G  EF	       02  FB 0002F 	    CALLS   #2, DBG$TRAN_LEXEME					      ;
		         53	       50  D0 00036 	    MOVL    R0, COUNT						      ;
	      00000049   8F	       53  D1 00039 	    CMPL    COUNT, #73						      ; 3837
				       0D  12 00040 	    BNEQ    1$							      ;
				       52  DD 00042 	    PUSHL   R2							      ; 3838
				       01  DD 00044 	    PUSHL   #1							      ;
			    00028210   8F  DD 00046 	    PUSHL   #164368						      ;
		         69	       03  FB 0004C 	    CALLS   #3, LIB$SIGNAL					      ;
		         01	       53  D1 0004F 1$:     CMPL    COUNT, #1						      ; 3839
				       19  15 00052 	    BLEQ    3$							      ;
				       53  DD 00054 	    PUSHL   COUNT						      ; 3842
		  0000V  CF	       01  FB 00056 	    CALLS   #1, DBG$LANGUAGE					      ;
				       50  DD 0005B 	    PUSHL   R0							      ;
				       01  DD 0005D 	    PUSHL   #1							      ;
			    00028308   8F  DD 0005F 	    PUSHL   #164616						      ;
		         69	       03  FB 00065 	    CALLS   #3, LIB$SIGNAL					      ;
					   04 00068 	    RET     							      ; 3843
		         53	  08   AC  D0 00069 2$:     MOVL    LANGUAGE_MODULE, COUNT				      ; 3847
	      00000000G  EF	       53  90 0006D 3$:     MOVB    COUNT, DBG$GB_LANGUAGE				      ; 3854
	   01	         00	       53  CF 00074 	    CASEL   COUNT, #0, #1					      ; 3855
		       0031	     0004     00078 4$:     .WORD   5$-4$,-						      ;
								    6$-4$						      ;
		         6A	EE74   CB  9E 0007C 5$:     MOVAB   MAR_STATE_TABLE, DBG$GL_PARTBPTR			      ; 3791
		    04   AA	F168   CB  9E 00081 	    MOVAB   MAR_ACT_TABLE, DBG$GL_PARTBPTR+4			      ;
		    08   AA	F45C   CB  9E 00087 	    MOVAB   MAR_POP_TABLE, DBG$GL_PARTBPTR+8			      ;
		    0C   AA	F4EC   CB  9E 0008D 	    MOVAB   MAR_LHS_TABLE, DBG$GL_PARTBPTR+12			      ;
		    10   AA	F57C   CB  9E 00093 	    MOVAB   MAR_SEM_TABLE, DBG$GL_PARTBPTR+16			      ;
		         68 00000000G  EF  9E 00099 	    MOVAB   DBG$MAR_GET_LEX, DBG$GL_GET_LEX			      ; 3866
		         67 00000000G  EF  9E 000A0 	    MOVAB   DBG$MAR_REDUCTN, DBG$GL_REDUC_RT			      ; 3867
				       2B  11 000A7 	    BRB     7$							      ; 3855

; Bliss-32 7.352	Saturday 22-AUG-1978 04:25:05	DBB3:[DEBUG.SRC]DBGLAN.B32;5					Page 3-8
; Digital Equipment Corporation
;
		         6A	F60C   CB  9E 000A9 6$:     MOVAB   FOR_STATE_TABLE, DBG$GL_PARTBPTR			      ; 3791
		    04   AA	F9CC   CB  9E 000AE 	    MOVAB   FOR_ACT_TABLE, DBG$GL_PARTBPTR+4			      ;
		    08   AA	FD8C   CB  9E 000B4 	    MOVAB   FOR_POP_TABLE, DBG$GL_PARTBPTR+8			      ;
		    0C   AA	FE30   CB  9E 000BA 	    MOVAB   FOR_LHS_TABLE, DBG$GL_PARTBPTR+12			      ;
		    10   AA	FED4   CB  9E 000C0 	    MOVAB   FOR_SEM_TABLE, DBG$GL_PARTBPTR+16			      ;
		         68 00000000G  EF  9E 000C6 	    MOVAB   DBG$FOR_GET_LEX, DBG$GL_GET_LEX			      ; 3878
		         67 00000000G  EF  9E 000CD 	    MOVAB   DBG$FOR_REDUCTN, DBG$GL_REDUC_RT			      ; 3879
	      00000000G  EF	       00  FB 000D4 7$:     CALLS   #0, DBG$SET_MOD_DEF					      ; 3896
	      00000000G  EF	       00  FB 000DB 	    CALLS   #0, DBG$SET_STP_DEF					      ; 3897
					   04 000E2 	    RET     							      ; 3791

; Routine Size:  227 bytes



; Bliss-32 7.352	Saturday 22-AUG-1978 04:25:05	DBB3:[DEBUG.SRC]DBGLAN.B32;5					Page 4
; Digital Equipment Corporation
;
;	3905	GLOBAL ROUTINE dbg$language ( lang_encoding ) =
;	3906
;	3907	!++
;	3908	! Functional Description:
;	3909	!
;	3910	!	Return a pointer to a counted string which is
;	3911	!	the name of the given language.
;	3912	!	This function exists simply to consolidate this nameing
;	3913	!	translation into one place.
;	3914	!
;	3915	! Formal parameters:
;	3916	!	lang_encoding	-The numeric encoding used internally to
;	3917	!			 represent the language.  This is the same
;	3918	!			 value that comes in the DST MODULE records for
;	3919	!			 each language, and it is the same value that we
;	3920	!			 store in DBG$GL_LANGUAGE.
;	3921	!
;	3922	! Routine value:
;	3923	!	A pointer to a counted string, which names the indicated language.
;	3924	!	The string "???" is returned if the given "lang_encoding" is foreign.
;	3925	!
;	3926	! Side Effects:
;	3927	!	none.
;	3928	!--
;	3929	    BEGIN
;	3930		LOCAL
;	3931			LANG_NAME;
;	3932
;	3933		!+
;	3934		! Just return the desired pointer.
;	3935		!-
;	3936		LANG_NAME = (SELECTONE .LANG_ENCODING OF
;	3937			     SET
;	3938				[MARS_MODULE]:
;	3939					UPLIT( %ASCIC 'MACRO' );
;	3940				[FORTRAN_MODULE]:
;	3941					UPLIT( %ASCIC 'FORTRAN' );
;	3942				[BLISS_MODULE]:
;	3943					UPLIT( %ASCIC 'BLISS' );
;	3944				[OTHERWISE]:
;	3945					UPLIT( %ASCIC '???' );
;	3946			     TES);
;	3947		RETURN(.LANG_NAME);
;	3948	    END;


							    .PSECT  DBG$PLIT,NOWRT,  SHR,  PIC,0

					      011A8 P.AAQ:  .ASCII  <5>\MACRO\<0><0>					      ;
					      011B0 P.AAR:  .ASCII  <7>\FORTRAN\					      ;
					      011B8 P.AAS:  .ASCII  <5>\BLISS\<0><0>					      ;
					      011C0 P.AAT:  .ASCII  <3>\???\						      ;



; Bliss-32 7.352	Saturday 22-AUG-1978 04:25:05	DBB3:[DEBUG.SRC]DBGLAN.B32;5					Page 4-1
; Digital Equipment Corporation
;

							    .PSECT  DBG$CODE,NOWRT,  SHR,  PIC,0

					 0800 000E3 	    .ENTRY  DBG$LANGUAGE, Save R11				      ; 3905
		         5B 00000000'  EF  9E 000E5 	    MOVAB   P.AAQ, R11						      ;
		         50	  04   AC  D0 000EC 	    MOVL    LANG_ENCODING, R0					      ; 3936
				       05  12 000F0 	    BNEQ    1$							      ;
		         51	       6B  9E 000F2 	    MOVAB   P.AAQ, LANG_NAME					      ; 3939
				       1A  11 000F5 	    BRB     4$							      ; 3936
		         01	       50  D1 000F7 1$:     CMPL    R0, #1						      ;
				       06  12 000FA 	    BNEQ    2$							      ;
		         51	  08   AB  9E 000FC 	    MOVAB   P.AAR, LANG_NAME					      ; 3941
				       0F  11 00100 	    BRB     4$							      ; 3936
		         02	       50  D1 00102 2$:     CMPL    R0, #2						      ;
				       06  12 00105 	    BNEQ    3$							      ;
		         51	  10   AB  9E 00107 	    MOVAB   P.AAS, LANG_NAME					      ; 3943
				       04  11 0010B 	    BRB     4$							      ; 3936
		         51	  18   AB  9E 0010D 3$:     MOVAB   P.AAT, LANG_NAME					      ; 3945
		         50	       51  D0 00111 4$:     MOVL    LANG_NAME, R0					      ; 3947
					   04 00114 	    RET     							      ; 3905

; Routine Size:  50 bytes


;	3949
;	3950
;	3951	END
;	3952	ELUDOM


							    .GLOBL  LIB$SIGNAL

;				       PSECT SUMMARY
;
;	Name		 Bytes			       Attributes
;
;  DBG$PLIT       	  4548  NOWRT,  RD ,  EXE,  SHR,  LCL,  REL,  CON,  PIC,ALIGN(0)
;  DBG$CODE       	   277  NOWRT,  RD ,  EXE,  SHR,  LCL,  REL,  CON,  PIC,ALIGN(0)
;  $CODE$         	     0  NOWRT,  RD ,  EXE,NOSHR,  LCL,  REL,  CON,NOPIC,ALIGN(2)


;				LIBRARY STATISTICS
;
;					     -------- Symbols --------    Blocks
;	File				     Total    Loaded   Percent      Read
;
;  DBA4:[SYSLIB]STARLET.L32;1		      2688         3         0       108



; Bliss-32 7.352	Saturday 22-AUG-1978 04:25:05	DBB3:[DEBUG.SRC]DBGLAN.B32;5					Page 4-2
; Digital Equipment Corporation
;


;			COMPILER INTERNAL TIMING

;	Phase	    Faults	Cpu-time      Elapsed-time
;	LEXSYN	      412	00:27.5		00:30.6
;	FLOWAN	       21	00:00.5		00:00.5
;	DELAY	       20	00:00.2		00:00.2
;	TNBIND	       25	00:00.3		00:00.3
;	CODE	       39	00:00.6		00:00.6
;	FINAL	       99	00:05.9		00:06.2
;	Total	      616	00:34.9		00:38.3

; Size:		277 code + 4548 data bytes
; Run Time:	00:35.4
; Elapsed Time:	00:39.0
; Memory Used:	256 pages
; Compilation Complete
