MOVC            - SIMULATE MOVC3 & MOVC5 INSTRUCTIONS            21-AUG-1978 23:06:58   VAX-11 MACRO X0.3-11               Page   1
X0001                                                                                                                            (1)

                                     0000     1 	.TITLE	MOVC - SIMULATE MOVC3 & MOVC5 INSTRUCTIONS
                                     0000     2 	.IDENT	"X0001"
                                     0000     3
                                     0000     4 ;
                                     0000     5 ; COPYRIGHT (C) 1976
                                     0000     6 ; DIGITAL EQUIPMENT CORPORATION, MAYNARD, MASSACHUSETTS 01754
                                     0000     7 ;
                                     0000     8 ; THIS SOFTWARE IS FURNISHED  UNDER A LICENSE FOR USE ONLY ON A SINGLE
                                     0000     9 ; COMPUTER  SYSTEM AND  MAY BE  COPIED ONLY WITH  THE INCLUSION OF THE
                                     0000    10 ; ABOVE COPYRIGHT NOTICE.  THIS SOFTWARE, OR ANY OTHER COPIES THEREOF,
                                     0000    11 ; MAY NOT BE PROVIDED OR  OTHERWISE MADE AVAILABLE TO ANY OTHER PERSON
                                     0000    12 ; EXCEPT FOR USE ON SUCH SYSTEM AND TO ONE WHO AGREES TO THESE LICENSE
                                     0000    13 ; TERMS.  TITLE TO AND  OWNERSHIP OF THE  SOFTWARE  SHALL AT ALL TIMES
                                     0000    14 ; REMAIN IN DEC.
                                     0000    15 ;
                                     0000    16 ; THE INFORMATION IN THIS SOFTWARE IS SUBJECT TO CHANGE WITHOUT NOTICE
                                     0000    17 ; AND SHOULD  NOT BE CONSTRUED  AS A COMMITMENT  BY DIGITAL  EQUIPMENT
                                     0000    18 ; CORPORATION.
                                     0000    19 ;
                                     0000    20 ; DEC ASSUMES  NO  RESPONSIBILITY  FOR  THE USE OR  RELIABILITY OF ITS
                                     0000    21 ; SOFTWARE ON EQUIPMENT WHICH IS NOT SUPPLIED BY DEC.
                                     0000    22
                                     0000    23 ;++
                                     0000    24 ;
                                     0000    25 ; FACILITY:  F11ACP STRUCTURE LEVEL 1
                                     0000    26 ;
                                     0000    27 ; ABSTRACT:
                                     0000    28 ;
                                     0000    29 ;	THIS ROUTINE SIMULATES MOVC3 AND MOVC5 WITH MOVTC AND A NULL
                                     0000    30 ;	TRANSLATION TABLE TO CIRCUMVENT THE MOVC MOCROCODE BUG.
                                     0000    31 ;
                                     0000    32 ; ENVIRONMENT:
                                     0000    33 ;
                                     0000    34 ;	STARLET OPERATING SYSTEM, INCLUDING PRIVILEGED SYSTEM SERVICES
                                     0000    35 ;	AND INTERNAL EXEC ROUTINES. THIS ROUTINE MUST BE CALLED IN
                                     0000    36 ;	KERNEL MODE.
                                     0000    37 ;
                                     0000    38 ; AUTHOR:  ANDREW C. GOLDSTEIN  12-FEB-78  16:30
                                     0000    39 ;
                                     0000    40 ; MODIFIED BY:
                                     0000    41 ;
                                     0000    42 ;  , VERSION  ,
                                     0000    43 ; 01	-
                                     0000    44 ;--
                                     0000    45
                                     0000    46 ;
                                     0000    47 ; EQUATED SYMBOLS:
                                     0000    48 ;
                           00000004  0000    49 ARG1	= 4
                           00000008  0000    50 ARG2	= 8
                           0000000C  0000    51 ARG3	= 12
                           00000010  0000    52 ARG4	= 16
                           00000014  0000    53 ARG5	= 20
                                     0000    54 ;
                                     0000    55 ; NULL TRANSLATION TABLE
                                     0000    56 ;
                                     0000    57
MOVC            - SIMULATE MOVC3 & MOVC5 INSTRUCTIONS            21-AUG-1978 23:06:58   VAX-11 MACRO X0.3-11               Page   2
X0001                                                                                                                            (1)

                                 00000000    58 	.PSECT	$CODE$,EXE,NOWRT,LONG
                                     0000    59
                                     0000    60 NULL_TABLE:
0B 0A 09 08 07 06 05 04 03 02 01 00  0000    61 	.BYTE	0,1,2,3,4,5,6,7,8,9,10,11,12,13,14,15
                        0F 0E 0D 0C  000C
1B 1A 19 18 17 16 15 14 13 12 11 10  0010    62 	.BYTE	16,17,18,19,20,21,22,23,24,25,26,27,28,29,30,31
                        1F 1E 1D 1C  001C
2B 2A 29 28 27 26 25 24 23 22 21 20  0020    63 	.BYTE	32,33,34,35,36,37,38,39,40,41,42,43,44,45,46,47
                        2F 2E 2D 2C  002C
3B 3A 39 38 37 36 35 34 33 32 31 30  0030    64 	.BYTE	48,49,50,51,52,53,54,55,56,57,58,59,60,61,62,63
                        3F 3E 3D 3C  003C
4B 4A 49 48 47 46 45 44 43 42 41 40  0040    65 	.BYTE	64,65,66,67,68,69,70,71,72,73,74,75,76,77,78,79
                        4F 4E 4D 4C  004C
5B 5A 59 58 57 56 55 54 53 52 51 50  0050    66 	.BYTE	80,81,82,83,84,85,86,87,88,89,90,91,92,93,94,95
                        5F 5E 5D 5C  005C
6B 6A 69 68 67 66 65 64 63 62 61 60  0060    67 	.BYTE	96,97,98,99,100,101,102,103,104,105,106,107,108,109,110,111
                        6F 6E 6D 6C  006C
7B 7A 79 78 77 76 75 74 73 72 71 70  0070    68 	.BYTE	112,113,114,115,116,117,118,119,120,121,122,123,124,125,126,127
                        7F 7E 7D 7C  007C
8B 8A 89 88 87 86 85 84 83 82 81 80  0080    69 	.BYTE	128,129,130,131,132,133,134,135,136,137,138,139,140,141,142,143
                        8F 8E 8D 8C  008C
9B 9A 99 98 97 96 95 94 93 92 91 90  0090    70 	.BYTE	144,145,146,147,148,149,150,151,152,153,154,155,156,157,158,159
                        9F 9E 9D 9C  009C
AB AA A9 A8 A7 A6 A5 A4 A3 A2 A1 A0  00A0    71 	.BYTE	160,161,162,163,164,165,166,167,168,169,170,171,172,173,174,175
                        AF AE AD AC  00AC
BB BA B9 B8 B7 B6 B5 B4 B3 B2 B1 B0  00B0    72 	.BYTE	176,177,178,179,180,181,182,183,184,185,186,187,188,189,190,191
                        BF BE BD BC  00BC
CB CA C9 C8 C7 C6 C5 C4 C3 C2 C1 C0  00C0    73 	.BYTE	192,193,194,195,196,197,198,199,200,201,202,203,204,205,206,207
                        CF CE CD CC  00CC
DB DA D9 D8 D7 D6 D5 D4 D3 D2 D1 D0  00D0    74 	.BYTE	208,209,210,211,212,213,214,215,216,217,218,219,220,221,222,223
                        DF DE DD DC  00DC
EB EA E9 E8 E7 E6 E5 E4 E3 E2 E1 E0  00E0    75 	.BYTE	224,225,226,227,228,229,230,231,232,233,234,235,236,237,238,239
                        EF EE ED EC  00EC
FB FA F9 F8 F7 F6 F5 F4 F3 F2 F1 F0  00F0    76 	.BYTE	240,241,242,243,244,245,246,247,248,249,250,251,252,253,254,255
                        FF FE FD FC  00FC
MOVC            - SIMULATE MOVC3 & MOVC5 INSTRUCTIONS            21-AUG-1978 23:06:58   VAX-11 MACRO X0.3-11               Page   3
X0001                                                                                                                            (2)

                                     0100    78 ;++
                                     0100    79 ;
                                     0100    80 ; FUNCTIONAL DESCRIPTION:
                                     0100    81 ;
                                     0100    82 ;	THIS ROUTINE SIMULATES THE MOVC3 AND MOVC5 INSTRUCTIONS.
                                     0100    83 ;
                                     0100    84 ; CALLING SEQUENCE:
                                     0100    85 ;	CALL	FCP$MOVE (ARG1, ARG2, ARG3)
                                     0100    86 ;	CALL	FCP$COPY (ARG1, ARG2, ARG3, ARG4, ARG5)
                                     0100    87 ;
                                     0100    88 ; INPUT PARAMETERS:
                                     0100    89 ;	ARG1: SOURCE BYTE COUNT
                                     0100    90 ;	ARG2: SOURCE ADDRESS
                                     0100    91 ;	ARG3: DESTINATION FOR FCP$MOVE OR FILL FOR FCP$COPY
                                     0100    92 ;	ARG4: DESTINATION BYTE COUNT
                                     0100    93 ;	ARG5: DESTINATION ADDRESS
                                     0100    94 ;
                                     0100    95 ; IMPLICIT INPUTS:
                                     0100    96 ;	NONE
                                     0100    97 ;
                                     0100    98 ; OUTPUT PARAMETERS:
                                     0100    99 ;	NONE
                                     0100   100 ;
                                     0100   101 ; IMPLICIT OUTPUTS:
                                     0100   102 ;	NONE
                                     0100   103 ;
                                     0100   104 ; ROUTINE VALUE:
                                     0100   105 ;	R0 - R1: EXPECTED OUTPUT OF MOVC
                                     0100   106 ;
                                     0100   107 ; SIDE EFFECTS:
                                     0100   108 ;	NONE
                                     0100   109 ;
                                     0100   110 ;--
                                     0100   111
                                     0100   112 	.ENABL	LSB
                                     0100   113
                                     0100   114 FCP$MOVE::
                               003C  0100   115 	.WORD	^M<R2,R3,R4,R5>
         08 BC         04 AC     2E  0102   116 	MOVTC	ARG1(AP),@ARG2(AP),#0,NULL_TABLE,ARG1(AP),@ARG3(AP)
       FEF5 CF            00         0107
         0C BC         04 AC         010B
                                 04  010F   117 	RET
                                     0110   118
                                     0110   119 FCP$COPY::
                               003C  0110   120 	.WORD	^M<R2,R3,R4,R5>
         08 BC         04 AC     2E  0112   121 	MOVTC	ARG1(AP),@ARG2(AP),ARG3(AP),NULL_TABLE,ARG4(AP),@ARG5(AP)
       FEE4 CF         0C AC         0117
         14 BC         10 AC         011C
                                 04  0120   122 	RET
                                     0121   123
                                     0121   124 	.DSABL	LSB
                                     0121   125
                                     0121   126
                                     0121   127
                                     0121   128 	.END
MOVC            - SIMULATE MOVC3 & MOVC5 INSTRUCTIONS            21-AUG-1978 23:06:58   VAX-11 MACRO X0.3-11               Page   4
SYMBOL TABLE                                                                                                                     (2)

ARG1           = 00000004
ARG2           = 00000008
ARG3           = 0000000C
ARG4           = 00000010
ARG5           = 00000014
FCP$COPY         00000110 RG    02
FCP$MOVE         00000100 RG    02
NULL_TABLE       00000000 R     02


PROGRAM SECTION SYNOPSIS

.  ABS  .        00000000      00     NOPIC   USR   CON   ABS   LCL NOSHR NOEXE NORD  NOWRT BYTE
. BLANK .        00000000      01     NOPIC   USR   CON   REL   LCL NOSHR   EXE   RD    WRT BYTE
$CODE$           00000121      02     NOPIC   USR   CON   REL   LCL NOSHR   EXE   RD  NOWRT LONG


THERE WERE NO ERRORS OR WARNINGS.
28476. BYTES LEFT IN FREE MEMORY POOL.
OBJ$:MOVC,LIS$:MOVC/-SP=SRC$:MOVC
0 MLB DIR RDS - 0 GETS TO DEFINE 0 MACROS. 2 INTER. FILE WRITES.
