BUGCHKMSG       - BUG CHECK MESSAGE FILE                         22-AUG-1978 00:22:16   VAX-11 MACRO X0.3-11               Page   1
00                                                                                                                               (1)

                                     0000     1 	.TITLE	BUGCHKMSG - BUG CHECK MESSAGE FILE
                                     0000     2 	.IDENT	/00/
                                     0000     3
                                     0000     4 ;
                                     0000     5 ; COPYRIGHT (C) 1978
                                     0000     6 ; DIGITAL EQUIPMENT CORPORATION, MAYNARD, MASS.
                                     0000     7 ;
                                     0000     8 ; THIS SOFTWARE IS FURNISHED UNDER  A LICENSE FOR USE ONLY  ON  A
                                     0000     9 ; SINGLE COMPUTER SYSTEM AND MAY BE  COPIED ONLY WITH  THE INCLU-
                                     0000    10 ; SION OF  THE  ABOVE  COPYRIGHT NOTICE.  THIS SOFTWARE,  OR  ANY
                                     0000    11 ; OTHER COPIES THEREOF, MAY NOT BE  PROVIDED  OR  OTHERWISE  MADE
                                     0000    12 ; AVAILABLE TO ANY OTHER PERSON EXCEPT  FOR  USE  ON  SUCH SYSTEM
                                     0000    13 ; AND TO  ONE WHO AGREES  TO  THESE LICENSE  TERMS.  TITLE TO AND
                                     0000    14 ; OWNERSHIP OF THE SOFTWARE SHALL AT ALL TIMES REMAIN IN DEC.
                                     0000    15 ;
                                     0000    16 ; THE INFORMATION IN THIS SOFTWARE  IS  SUBJECT TO CHANGE WITHOUT
                                     0000    17 ; NOTICE AND SHOULD NOT BE CONSTRUED  AS  A COMMITMENT BY DIGITAL
                                     0000    18 ; EQUIPMENT CORPORATION.
                                     0000    19 ;
                                     0000    20 ; DEC ASSUMES NO RESPONSIBILITY FOR THE USE OR RELIABILITY OF ITS
                                     0000    21 ; SOFTWARE ON EQUIPMENT WHICH IS NOT SUPPLIED BY DEC.
                                     0000    22 ;
                                     0000    23 ; D. N. CUTLER 1-NOV-77
                                     0000    24 ;
                                     0000    25 ; MODIFICATIONS:
                                     0000    26 ;
                                     0000    27 ;	C. A. MONIA - 5-MAR-1978
                                     0000    28 ;
                                     0000    29 ;		MODIFIED FOR STAND-ALONE SYSTEM
                                     0000    30 ;
                                     0000    31 ; BUG CHECK MESSAGE FILE
                                     0000    32 ;
                                     0000    33 ; LOCAL MACROS
                                     0000    34 ;
                                     0000    35 ; GENERATE BUG CHECK MESSAGE
                                     0000    36 ;
                                     0000    37
                                     0000    38 	.MACRO	GENMSG SYMBOL,TEXT
                                     0000    39 	.IIF NDF N,N=8
                                     0000    40 BUG$_'SYMBOL'==N
                                     0000    41 	.IF DF	TXT
                                     0000    42 		.ASCIC	\'SYMBOL', 'TEXT'\
                                     0000    43 	.IFF
                                     0000    44 		.ASCIC	\'SYMBOL'\
                                     0000    45 	.ENDC
                                     0000    46 	.ENDM	GENMSG
                                     0000    47
                                     0000    48 ;
                                     0000    49 ; LOCAL SYMBOLS
                                     0000    50 ;
                                     0000    51 ; GLOBAL DATA
                                     0000    52 ;
                                     0000    53 ; BUG CHECK MESSAGES
                                     0000    54 ;
                                     0000    55
                                 00000000    56 	.PSECT	$$$025,WORD
                                     0000    57
BUGCHKMSG       - BUG CHECK MESSAGE FILE                         22-AUG-1978 00:22:16   VAX-11 MACRO X0.3-11               Page   2
00                                                                                                                               (1)

                                     0000    58 BUG$T_MESSAGES::			;START OF BUG CHECK MESSAGE TEXT
                                 00  0000    59 	.BYTE	0			;DUMMY ENTRY
                                     0001    60 	GENMSG	ALCPHD,<Allocate process header error>
                                     0008    61 	GENMSG	APTREFHIGH,<Inconsistent active page table reference count>
                                     0013    62 	GENMSG	APTWRTERR,<Active page table swap write error>
                                     001D    63 	GENMSG	BADALORQSZ,<Bad memory allocation request size>
                                     0028    64 	GENMSG	BADDALRQSZ,<Bad memory deallocation request size or address>
                                     0033    65 	GENMSG	BADFORKIPL,<Bad FORK exit interrupt priority level>
                                     003E    66 	GENMSG	BADLCKWSLE,<Bad locked working set list entry, not a page table>
                                     0049    67 	GENMSG	BADMCKCOD,<Bad machine check code>
                                     0053    68 	GENMSG	BADPAGTYPE,<Bad page type>
                                     005E    69 	GENMSG	BADRSEIPL,<Bad IPL at entrance to report schedule event>
                                     0068    70 	GENMSG	BADPAGFILA,<Bad page file address allocated>
                                     0073    71 	GENMSG	BADPAGFILD,<Bad page file address deallocated>
                                     007E    72 	GENMSG	CONTRACT,<Contract virtual address space error>
                                     0087    73 	GENMSG	DECPTREF,<Decrement page table reference count error>
                                     0090    74 	GENMSG	DELCONPFN,<Fatal error in delete contents of PFN>
                                     009A    75 	GENMSG	DELGBLSCN,<Delete global page(s) scan error>
                                     00A4    76 	GENMSG	DELGBLSEC,<Delete global section error>
                                     00AE    77 	GENMSG	DELGBLWCB,<Delete global section window error>
                                     00B8    78 	GENMSG	DELWSLEX,<Delete working set list entry index error>
                                     00C1    79 	GENMSG	DELSUBFLT,<Unable to delete subprocess>
                                     00CB    80 	GENMSG	DOUBLDALOC,<Double deallocation of swap file space>
                                     00D6    81 	GENMSG	DOUBLDEALO,<Double deallocation of memory block>
                                     00E1    82 	GENMSG	EXPANDPHD,<Expand process header error>
                                     00EB    83 	GENMSG	FATALEXCPT,<Fatal executive or kernel mode exception>
                                     00F6    84 	GENMSG	FREEPAGREF,<Free page reference count is nonzero>
                                     0101    85 	GENMSG	GBLPAGSZRO,<Global page share count is zero>
                                     010C    86 	GENMSG	GPGNULPGFL,<Global page has null page file address>
                                     0117    87 	GENMSG	IASTDELINT,<Invalid AST delivery interrupt>
                                     0122    88 	GENMSG	ICONPFNDAT,<Inconsistent PFN data base>
                                     012D    89 	GENMSG	ICPAGELOC,<Inconsistent page location>
                                     0137    90 	GENMSG	IFREPAGCNT,<Inconsistent free page count>
                                     0142    91 	GENMSG	ILLEVTNUM,<Illegal event number>
                                     014C    92 	GENMSG	ILLIO,<I/O request has bad parameters>
                                     0152    93 	GENMSG	ILLPAGFLT,<Illegal page fault exception>
                                     015C    94 	GENMSG	ILLPRCSTA,<Illegal process state>
                                     0166    95 	GENMSG	INCONSTATE,<Inconsistent UBA data base>
                                     0171    96 	GENMSG	INCPTREF,<Increment page table reference count error>
                                     017A    97 	GENMSG	INSNFREPAG,<Insufficient nonfree pages>
                                     0185    98 	GENMSG	INSSWPFIL,<Insufficient swap file space>
                                     018F    99 	GENMSG	INVEXCEPTN,<Exception while above ASTDEL or on interrupt stack>
                                     019A   100 	GENMSG	INVPTEFMT,<Invalid page table entry format>
                                     01A4   101 	GENMSG	INVTQEFMT,<Invalid time queue entry format>
                                     01AE   102 	GENMSG	IVBAKADIO,<Invalid backing store address for I/O>
                                     01B8   103 	GENMSG	IVGBLTYP,<Invalid global master PTE type>
                                     01C1   104 	GENMSG	IVSSRVRQST,<Invalid system service request>
                                     01CC   105 	GENMSG	IVWSETLIST,<Invalid working set list entry>
                                     01D7   106 	GENMSG	KRNLSTAKNV,<Kernel stack not valid>
                                     01E2   107 	GENMSG	MACHINECHK,<Machine check while in kernel mode>
                                     01ED   108 	GENMSG	MAKEWSLE,<Make working set list entry error>
                                     01F6   109 	GENMSG	MODRELNBAK,<No backing store address for modified page>
                                     0201   110 	GENMSG	MTXCNTNONZ,<Mutex count nonzero at system service exit>
                                     020C   111 	GENMSG	NONEXSTACP,<Nonexistent ACP process>
                                     0217   112 	GENMSG	NOTPCB,<Structure not PCB>
                                     021E   113 	GENMSG	OUTSWPERR,<Outswap write error>
                                     0228   114 	GENMSG	PAGEREDERR,<Page read error>
BUGCHKMSG       - BUG CHECK MESSAGE FILE                         22-AUG-1978 00:22:16   VAX-11 MACRO X0.3-11               Page   3
00                                                                                                                               (1)

                                     0233   115 	GENMSG	PAGEWRTERR,<Page write error>
                                     023E   116 	GENMSG	PAGNTRNVAL,<Page not in transition or valid>
                                     0249   117 	GENMSG	PAGNOTVAL,<Page not valid>
                                     0253   118 	GENMSG	PFNLISTCNT,<Inconsistent PFN list count>
                                     025E   119 	GENMSG	PFNREFNZRO,<PFN reference count nonzero>
                                     0269   120 	GENMSG	PGFGBLBAD,<Pagefault, global page table entry bad format>
                                     0273   121 	GENMSG	PGFIPLHI,<Pagefault with IPL too high>
                                     027C   122 	GENMSG	PGFLOCBAD,<Pagefault, location field has bad value>
                                     0286   123 	GENMSG	PHDCNTNEG,<Process header reference count went negative>
                                     0290   124 	GENMSG	PROCGONE,<Process not in system>
                                     0299   125 	GENMSG	PTELENVIOL,<Unexpected page table length violation>
                                     02A4   126 	GENMSG	QUEUEMPTY,<Scheduling queue empty>
                                     02AE   127 	GENMSG	RDSNONRES,<Read data substitute page nonresident>
                                     02B8   128 	GENMSG	REFCNTNEG,<PFN reference count is negative>
                                     02C2   129 	GENMSG	SCANDEADPT,<Scan dead page table error>
                                     02CD   130 	GENMSG	SECREFNEG,<Section reference count went negative>
                                     02D7   131 	GENMSG	SHRCNTNEG,<PFN share count negative>
                                     02E1   132 	GENMSG	SSRVEXCEPT,<Unexpected system service exception>
                                     02EC   133 	GENMSG	STRNOTWCB,<Data structure not window block>
                                     02F6   134 	GENMSG	SWAPWSLE,<Swap working set list entries error>
                                     02FF   135 	GENMSG	SYSADJWSL,<System service adjust workins set limit error>
                                     0309   136 	GENMSG	UBMAPEXCED,<UNIBUS map register allocation exceeded>
                                     0314   137 	GENMSG	UNABLCREVA,<Unable to create virtual address space>
                                     031F   138 	GENMSG	VBNMAPFAIL,<Virtual block map failure>
                                     032A   139 	GENMSG	WSLENOVAL,<Working set list entry not valid>
                                     0334   140 	GENMSG	WSLGPGCNT,<Working set list global page count error>
                                     033E   141 	GENMSG	WSLVANVAL,<Working set list virtual adr has non-valid PTE>
                                     0348   142 	GENMSG	ZEROPAGE,<Zero page table entry from swap map>
                                     0351   143 	GENMSG	UNEXUBAINT,<Unexpected Unibus Adapter interrupt>
                                 00  035C   144 	.BYTE	0			;END OF TABLE
                                     035D   145
                                     035D   146 	.END
BUGCHKMSG       - BUG CHECK MESSAGE FILE                         22-AUG-1978 00:22:16   VAX-11 MACRO X0.3-11               Page   4
SYMBOL TABLE                                                                                                                     (1)

BUG$T_MESSAGES   00000000 RG    02   BUG$_PAGNOTVAL = 00000008  G
BUG$_ALCPHD    = 00000008  G         BUG$_PAGNTRNVAL= 00000008  G
BUG$_APTREFHIGH= 00000008  G         BUG$_PFNLISTCNT= 00000008  G
BUG$_APTWRTERR = 00000008  G         BUG$_PFNREFNZRO= 00000008  G
BUG$_BADALORQSZ= 00000008  G         BUG$_PGFGBLBAD = 00000008  G
BUG$_BADDALRQSZ= 00000008  G         BUG$_PGFIPLHI  = 00000008  G
BUG$_BADFORKIPL= 00000008  G         BUG$_PGFLOCBAD = 00000008  G
BUG$_BADLCKWSLE= 00000008  G         BUG$_PHDCNTNEG = 00000008  G
BUG$_BADMCKCOD = 00000008  G         BUG$_PROCGONE  = 00000008  G
BUG$_BADPAGFILA= 00000008  G         BUG$_PTELENVIOL= 00000008  G
BUG$_BADPAGFILD= 00000008  G         BUG$_QUEUEMPTY = 00000008  G
BUG$_BADPAGTYPE= 00000008  G         BUG$_RDSNONRES = 00000008  G
BUG$_BADRSEIPL = 00000008  G         BUG$_REFCNTNEG = 00000008  G
BUG$_CONTRACT  = 00000008  G         BUG$_SCANDEADPT= 00000008  G
BUG$_DECPTREF  = 00000008  G         BUG$_SECREFNEG = 00000008  G
BUG$_DELCONPFN = 00000008  G         BUG$_SHRCNTNEG = 00000008  G
BUG$_DELGBLSCN = 00000008  G         BUG$_SSRVEXCEPT= 00000008  G
BUG$_DELGBLSEC = 00000008  G         BUG$_STRNOTWCB = 00000008  G
BUG$_DELGBLWCB = 00000008  G         BUG$_SWAPWSLE  = 00000008  G
BUG$_DELSUBFLT = 00000008  G         BUG$_SYSADJWSL = 00000008  G
BUG$_DELWSLEX  = 00000008  G         BUG$_UBMAPEXCED= 00000008  G
BUG$_DOUBLDALOC= 00000008  G         BUG$_UNABLCREVA= 00000008  G
BUG$_DOUBLDEALO= 00000008  G         BUG$_UNEXUBAINT= 00000008  G
BUG$_EXPANDPHD = 00000008  G         BUG$_VBNMAPFAIL= 00000008  G
BUG$_FATALEXCPT= 00000008  G         BUG$_WSLENOVAL = 00000008  G
BUG$_FREEPAGREF= 00000008  G         BUG$_WSLGPGCNT = 00000008  G
BUG$_GBLPAGSZRO= 00000008  G         BUG$_WSLVANVAL = 00000008  G
BUG$_GPGNULPGFL= 00000008  G         BUG$_ZEROPAGE  = 00000008  G
BUG$_IASTDELINT= 00000008  G         N              = 00000008
BUG$_ICONPFNDAT= 00000008  G
BUG$_ICPAGELOC = 00000008  G
BUG$_IFREPAGCNT= 00000008  G
BUG$_ILLEVTNUM = 00000008  G
BUG$_ILLIO     = 00000008  G
BUG$_ILLPAGFLT = 00000008  G
BUG$_ILLPRCSTA = 00000008  G
BUG$_INCONSTATE= 00000008  G
BUG$_INCPTREF  = 00000008  G
BUG$_INSNFREPAG= 00000008  G
BUG$_INSSWPFIL = 00000008  G
BUG$_INVEXCEPTN= 00000008  G
BUG$_INVPTEFMT = 00000008  G
BUG$_INVTQEFMT = 00000008  G
BUG$_IVBAKADIO = 00000008  G
BUG$_IVGBLTYP  = 00000008  G
BUG$_IVSSRVRQST= 00000008  G
BUG$_IVWSETLIST= 00000008  G
BUG$_KRNLSTAKNV= 00000008  G
BUG$_MACHINECHK= 00000008  G
BUG$_MAKEWSLE  = 00000008  G
BUG$_MODRELNBAK= 00000008  G
BUG$_MTXCNTNONZ= 00000008  G
BUG$_NONEXSTACP= 00000008  G
BUG$_NOTPCB    = 00000008  G
BUG$_OUTSWPERR = 00000008  G
BUG$_PAGEREDERR= 00000008  G
BUG$_PAGEWRTERR= 00000008  G
BUGCHKMSG       - BUG CHECK MESSAGE FILE                         22-AUG-1978 00:22:16   VAX-11 MACRO X0.3-11               Page   5
PROGRAM SECTION SYNOPSIS                                                                                                         (1)


PROGRAM SECTION SYNOPSIS

.  ABS  .        00000000      00     NOPIC   USR   CON   ABS   LCL NOSHR NOEXE NORD  NOWRT BYTE
. BLANK .        00000000      01     NOPIC   USR   CON   REL   LCL NOSHR   EXE   RD    WRT BYTE
$$$025           0000035D      02     NOPIC   USR   CON   REL   LCL NOSHR   EXE   RD    WRT WORD


THERE WERE NO ERRORS OR WARNINGS.
26294. BYTES LEFT IN FREE MEMORY POOL.
OBJ$:BUGCHKMSG,LIS$:BUGCHKMSG/-SP=LIB$:LIB/ML,SRC$:BUGCHKMSG
0 MLB DIR RDS - 0 GETS TO DEFINE 0 MACROS. 11 INTER. FILE WRITES.
