CMODSSDSP       - CHANGE MODE SYSTEM SERVICE DISPATCHER          22-AUG-1978 00:06:02   VAX-11 MACRO X0.3-11               Page   0
TABLE OF CONTENTS

   (1)     192  CHANGE MODE TO EXECUTIVE DISPATCHER
   (1)     244  ASTEXIT SYSTEM SERVICE
   (1)     272  CHANGE MODE DETECTED ERROR HANDLING
   (1)     306  CHANGE MODE TO KERNEL DISPATCHER
   (1)     354  SYSTEM SERVICE VECTOR DEFINITION
   (2)     807  JUMP TO STAND-ALONE PARSE ROUTINE
   (2)     814  ILLEGAL CHME OR CHMK CODE VALUE HANDLING
CMODSSDSP       - CHANGE MODE SYSTEM SERVICE DISPATCHER          22-AUG-1978 00:06:02   VAX-11 MACRO X0.3-11               Page   1
00.1                                                                                                                             (1)

                                     0000     1 	.IF	NDF,RMSSWITCH
                                     0000     2 	.IF	NDF,LIBSWITCH
                                     0000     3 	.TITLE	CMODSSDSP - CHANGE MODE SYSTEM SERVICE DISPATCHER
                                     0000     4 	.IFF
                                     0000     5 	.TITLE	SYSVECTOR - SYSTEM SERVICE VECTOR DEFINITIONS
                                     0000     6 	.ENDC
                                     0000     7 	.IFF
                                     0000     8 	.TITLE	RMSVECTOR - RMS SERVICE VECTOR DEFINITIONS
                                     0000     9 	.ENDC
                                     0000    10 	.IDENT	/00.1/
                                     0000    11
                                     0000    12 ;
                                     0000    13 ; COPYRIGHT (C) 1977
                                     0000    14 ; DIGITAL EQUIPMENT CORPORATION, MAYNARD, MASS.
                                     0000    15 ;
                                     0000    16 ; THIS SOFTWARE IS FURNISHED UNDER  A LICENSE FOR USE ONLY  ON  A
                                     0000    17 ; SINGLE COMPUTER SYSTEM AND MAY BE  COPIED ONLY WITH  THE INCLU-
                                     0000    18 ; SION OF  THE  ABOVE  COPYRIGHT NOTICE.  THIS SOFTWARE,  OR  ANY
                                     0000    19 ; OTHER COPIES THEREOF, MAY NOT BE  PROVIDED  OR  OTHERWISE  MADE
                                     0000    20 ; AVAILABLE TO ANY OTHER PERSON EXCEPT  FOR  USE  ON  SUCH SYSTEM
                                     0000    21 ; AND TO  ONE WHO AGREES  TO  THESE LICENSE  TERMS.  TITLE TO AND
                                     0000    22 ; OWNERSHIP OF THE SOFTWARE SHALL AT ALL TIMES REMAIN IN DEC.
                                     0000    23 ;
                                     0000    24 ; THE INFORMATION IN THIS SOFTWARE  IS  SUBJECT TO CHANGE WITHOUT
                                     0000    25 ; NOTICE AND SHOULD NOT BE CONSTRUED  AS  A COMMITMENT BY DIGITAL
                                     0000    26 ; EQUIPMENT CORPORATION.
                                     0000    27 ;
                                     0000    28 ; DEC ASSUMES NO RESPONSIBILITY FOR THE USE OR RELIABILITY OF ITS
                                     0000    29 ; SOFTWARE ON EQUIPMENT WHICH IS NOT SUPPLIED BY DEC.
                                     0000    30 ;
                                     0000    31 ; D. N. CUTLER 22-JUN-76
                                     0000    32 ;
                                     0000    33 ;  MODIFIED:	L F LAVERDURE 15-AUG-77
                                     0000    34 ;		C. A. MONIA 23-JAN-78
                                     0000    35 ;
                                     0000    36 ; CHANGE MODE SYSTEM SERVICE DISPATCHER
                                     0000    37 ;
                                     0000    38 ; MACRO LIBRARY CALLS
                                     0000    39 ;
                                     0000    40
                                     0000    41 	.IF	DF,LIBSWITCH		;DEFINE GLOBALLY FOR LIBRARY
                                     0000    42 	$IODEF	GLOBAL			;DEFINE I/O FUNCTION CODES
                                     0000    43 	$DEVDEF	GLOBAL			;DEFINE DEVICE CHARACTERISTICS BITS
                                     0000    44 	$PRTDEF	GLOBAL			;DEFINE PROTECTION CODES
                                     0000    45 	$SSDEF	GLOBAL			;DEFINE SYSTEM SERVICE STATUS CODES
                                     0000    46 	$TTDEF	GLOBAL			;TT TERMINATION SPECIFIERS
                                     0000    47 	.IFF				;LOCALLY IF NOT LIBRARY VERSION
                                     0000    48 	$PCBDEF				;DEFINE PCB OFFSETS
                                     0000    49 	$PHDDEF				;DEFINE PHD OFFSETS
                                     0000    50 	$PRDEF				;DEFINE PROCESSOR REGISTERS
                                     0000    51 	$PSLDEF				;DEFINE PROCESSOR STATUS FIELDS
                                     0000    52 	$SSDEF				;DEFINE SYSTEM STATUS VALUES
                                     0000    53 	.ENDC				;
                                     0000    54
                                     0000    55 	$SGNDEF				;DEFINE SYSGEN PARAMETERS
                                     0000    56 ;
                                     0000    57 ; LOCAL MACROS
CMODSSDSP       - CHANGE MODE SYSTEM SERVICE DISPATCHER          22-AUG-1978 00:06:02   VAX-11 MACRO X0.3-11               Page   2
00.1                                                                                                                             (1)

                                     0000    58 ;
                                     0000    59 ;	GSYSSRV	- GENERATE SYSTEM SERVICE ENTRY VECTOR
                                     0000    60 ;
                                     0000    61 ;	GSYSSRV	SRVNAME,MODE,NARG,REGISTERS,DUMMY
                                     0000    62 ;
                                     0000    63 ;	WHERE:
                                     0000    64 ;		SRVNAME - SERVICE NAME LESS ANY PREFIX (SYS$,EXE$,RMS$$)
                                     0000    65 ;		MODE - MODE DESIGNATOR FOR SERVICE (K,E,ALL,R)
                                     0000    66 ;		NARG - REQUIRED NUMBER OF ARGUMENTS
                                     0000    67 ;		REGISTERS - REGISTER SAVE LIST
                                     0000    68 ;		DUMMY - REDIRECT CALL TO ILLEGAL SERVICE HANDLER
                                     0000    69 ;
                                     0000    70
                                     0000    71 	.MACRO	GSYSSRV,SRVNAME,MODE,NARG,REGS,DUMMY
                                     0000    72 	.IF	NDF,RMSSWITCH
                                     0000    73 	.IF	DF,LIBSWITCH
                                     0000    74 	.PSECT	$$$0000,QUAD
                                     0000    75 	.IFF
                                     0000    76 	.PSECT	$$$000,QUAD
                                     0000    77 	.ENDC
                                     0000    78 	.ALIGN	QUAD
                                     0000    79 	.IF DF	LIBSWITCH
                                     0000    80 SYS$'SRVNAME::
                                     0000    81 	.IFF
                                     0000    82 	.WORD	^M<REGS>
                                     0000    83 	SRV'MODE	SRVNAME,NARG,DUMMY
                                     0000    84 	.IFT
                                     0000    85 	.BLKL	2
                                     0000    86 	.ENDC
                                     0000    87 	.IFF
                                     0000    88 	SRV'MODE	SRVNAME,NARG,DUMMY
                                     0000    89 	.ENDC
                                     0000    90 	.ENDM	GSYSSRV
                                     0000    91
                                     0000    92 ;
                                     0000    93 ;	SRVK - GENERATE ENTRY FOR KERNEL MODE SERVICE
                                     0000    94 ;
                                     0000    95 ;	SRVK	SRVNAME,NARG
                                     0000    96 ;
                                     0000    97
                                     0000    98 	.MACRO	SRVK,SRVNAME,NARG,DUMMY
                                     0000    99 	.IF	NDF,RMSSWITCH
                                     0000   100 	CHMK	#SRVNAME
                                     0000   101 	RET
                                     0000   102 	.PSECT	Y$CMODKN,BYTE
                                     0000   103 	.BYTE	NARG
                                     0000   104 	.PSECT	Y$CMODK,BYTE
                                     0000   105 	.IF B	DUMMY
                                     0000   106 	.WORD	EXE$'SRVNAME-KCASE+2
                                     0000   107 	.IFF
                                     0000   108 	.WORD	ILLSER-KCASE+2
                                     0000   109 	.ENDC
                                     0000   110 SRVNAME=KCASCTR
                                     0000   111 KCASCTR=KCASCTR+1
                                     0000   112 	.ENDC
                                     0000   113 	.ENDM	SRVK
                                     0000   114
CMODSSDSP       - CHANGE MODE SYSTEM SERVICE DISPATCHER          22-AUG-1978 00:06:02   VAX-11 MACRO X0.3-11               Page   3
00.1                                                                                                                             (1)

                                     0000   115 ;
                                     0000   116 ;	SRVE - GENERATE ENTRY FOR EXECUTIVE MODE SERVICE
                                     0000   117 ;
                                     0000   118
                                     0000   119 	.MACRO	SRVE,SRVNAME,NARG,DUMMY
                                     0000   120 	.IF	NDF,RMSSWITCH
                                     0000   121 	CHME	#SRVNAME
                                     0000   122 	RET
                                     0000   123 	.PSECT	Y$CMODEN,BYTE
                                     0000   124 	.BYTE	NARG
                                     0000   125 	.PSECT	Y$CMODE,BYTE
                                     0000   126 	.IF B	DUMMY
                                     0000   127 	.WORD	EXE$'SRVNAME-ECASE+2
                                     0000   128 	.IFF
                                     0000   129 	.WORD	ILLSER-ECASE+2
                                     0000   130 	.ENDC
                                     0000   131 	.ENDC
                                     0000   132 SRVNAME=ECASCTR
                                     0000   133 ECASCTR=ECASCTR+1
                                     0000   134 	.ENDM	SRVE
                                     0000   135 ;
                                     0000   136 ;
                                     0000   137 ;    MACROS FOR GENERATING RMS SYSTEM VECTORS
                                     0000   138 ;
                                     0000   139 	.MACRO	RMSSRV	SRVNAME	NARG=1,REGS=<R2,R3,R4,R5,R6,R7,R8,R9,R10,R11>
                                     0000   140 	.IF DF	RMS
                                     0000   141 	GSYSSRV	SRVNAME,R,NARG,<REGS>
                                     0000   142 	.ENDC
                                     0000   143 	.ENDM	RMSSRV
                                     0000   144 ;
                                     0000   145 ;  SRVR - GENERATE ENTRY FOR RMS SERVICE (EXEC MODE)
                                     0000   146 ;
                                     0000   147 	.MACRO	SRVR	SRVNAME,NARG
                                     0000   148 	.IF	NDF,RMSSWITCH
                                     0000   149 	CHME	#SRVNAME
                                     0000   150 	.IIF GT <.+2-RMSSYNC>-127, RMSSYNC=RMSWBR	;RESET BRANCH DESTINATION
                                     0000   151 RMSWBR=.
                                     0000   152 	BRB	RMSSYNC
                                     0000   153 	.PSECT	Y$CMODEN,BYTE
                                     0000   154 	.BYTE	NARG
                                     0000   155 	.IFF
                                     0000   156 	.PSECT	$$$RMSVEC,BYTE
                                     0000   157 	.WORD	RMS$'SRVNAME-RCASE+2
                                     0000   158 	.ENDC
                                     0000   159 SRVNAME=RCASCTR
                                     0000   160 RCASCTR=RCASCTR+1
                                     0000   161 	.ENDM	SRVR
                                     0000   162
                                     0000   163 ;
                                     0000   164 ;	SRVALL - GENERATE ENTRY FOR ALL MODE SERVICE
                                     0000   165 ;
                                     0000   166
                                     0000   167 	.MACRO	SRVALL,SRVNAME,NARG,DUMMY
                                     0000   168 	.IF NDF,RMSSWITCH
                                     0000   169 	.IF B	DUMMY
                                     0000   170 	JMP	@#EXE$'SRVNAME+2
                                     0000   171 	.IFF
CMODSSDSP       - CHANGE MODE SYSTEM SERVICE DISPATCHER          22-AUG-1978 00:06:02   VAX-11 MACRO X0.3-11               Page   4
00.1                                                                                                                             (1)

                                     0000   172 	JMP	@#ILLSER
                                     0000   173 	.ENDC
                                     0000   174 	.ENDC
                                     0000   175 	.ENDM	SRVALL
                                     0000   176
                                     0000   185
                                     0000   186 ;
                                     0000   187 ; GLOBAL SYMBOLS
                                     0000   188 ;
                                     0000   189
                           00000014  0000   190 EXE$C_CMSTKSZ==4*5			;NUMBER OF LONGWORDS IN DISPATCH CALL FRAME
CMODSSDSP       - CHANGE MODE SYSTEM SERVICE DISPATCHER          22-AUG-1978 00:06:02   VAX-11 MACRO X0.3-11               Page   5
00.1            CHANGE MODE TO EXECUTIVE DISPATCHER                                                                              (1)

                                     0000   192 	.SBTTL	CHANGE MODE TO EXECUTIVE DISPATCHER
                                     0000   193 ;+
                                     0000   194 ; EXE$CMODEXEC - CHANGE MODE TO EXECUTIVE DISPATCHER
                                     0000   195 ;
                                     0000   196 ; THIS ROUTINE IS AUTOMATICALLY VECTORED TO WHEN A CHANGE MODE TO EXECUTIVE
                                     0000   197 ; INSTRUCTION IS EXECUTED. THE STATE OF THE STACK ON ENTRY IS:
                                     0000   198 ;
                                     0000   199 ; INPUTS:
                                     0000   200 ;
                                     0000   201 ;	00(SP) = CHANGE MODE PARAMETER CODE.
                                     0000   202 ;	04(SP) = SAVED PC OF EXCEPTION.
                                     0000   203 ;	08(SP) = SAVED PSL OF EXCEPTION.
                                     0000   204 ;
                                     0000   205 ;	00(AP) = NUMBER OF SYSTEM SERVICE CALL ARGUMENTS.
                                     0000   206 ;	04(AP) = FIRST ARGUMENT.
                                     0000   207 ;	      .
                                     0000   208 ;	      .
                                     0000   209 ;	      .
                                     0000   210 ;	4*N(AP) = N'TH ARGUMENT.
                                     0000   211 ;
                                     0000   212 ; OUTPUTS:
                                     0000   213 ;
                                     0000   214 ;	***TBS***
                                     0000   215 ;-
                                     0000   216
                                 00000000   217 	.PSECT	Y$CMODE,QUAD
                                     0000   218 EXACCVIO:				;CHANGE MODE TO EXEC ACCESS VIOLATION
                          0017'  31  0000   219 	BRW	ACCVIO			;
                                     0003   220 EXINSARG:				;CHANGE MODE TO EXEC INSUFFICIENT ARGS
                          001B'  31  0003   221 	BRW	INSARG			;
                                     0006   222 	.ALIGN	QUAD
                                     0008   223 EXE$CMODEXEC::				;CHANGE MODE TO EXECUTIVE DISPATCH
                          01     BA  0008   224 	POPR	#^M<R0>			;REMOVE CHANGE MODE PARAMETER FROM STACK
                     0027'CF     9F  000A   225 	PUSHAB	W^SRVEXIT		;RETURN ADDRESS FOR CALL FRAME
            51       0000'CF40   9A  000E   226 	MOVZBL	W^B_EXECNARG[R0],R1	;GET REQUIRED NUMBER OF ARGUMENTS
            7E            5C     7D  0014   227 	MOVQ	AP,-(SP)		;SAVE AP,FP
            5D   00000004 9F41   DE  0017   228 	MOVAL	@#4[R1],FP		;CALCULATE LENGTH OF ARGUMENT LIST
                          7E     7C  001F   229 	CLRQ	-(SP)			;PSW, REGISTER SAVE MASK FOR CALL FRAME
                                     0021   230 	IFNORD	FP,(AP),EXACCVIO	;BR IF ARGLIST INACCESSIBLE
            5D            5E     D0  0027   231 	MOVL	SP,FP			;SET FP TO POINT TO CALL FRAME
            51            6C     91  002A   232 	CMPB	(AP),R1			;CHECK FOR REQUIRED NUMBER OF ARGUMENTS
                          D4     1F  002D   233 	BLSSU	EXINSARG		;INSUFFICIENT NUMBER OF ARGUMENTS
            00            50     AF  002F   234 EXEDSP:	CASEW	R0,#0,S^#ECASMAX	;DISPATCH TO PROPER SERVICE ROUTINE
                          06'        0032
                           00000000  0033   235 ECASCTR=0				;START WITH 0 FOR CHME CODE
                                     0033   236 ECASE:					;BASE OF CHME CASE TABLE
                                 00000000   237 	.PSECT	Y$CMODEN,BYTE		;REQUIRED NUMBER OF ARG TABLE
                                     0000   238 B_EXECNARG:				;DEFINE TABLE BASE
                                     0000   239
                                     0000   240 ;
                                     0000   241 ;	NOTE THAT THE OUT OF RANGE FALL THROUGH FROM THE CASEW FOLLOWS
                                     0000   242 ;	THE SYSTEM SERVICE VECTOR GENERATION.
CMODSSDSP       - CHANGE MODE SYSTEM SERVICE DISPATCHER          22-AUG-1978 00:06:02   VAX-11 MACRO X0.3-11               Page   6
00.1            ASTEXIT SYSTEM SERVICE                                                                                           (1)

                                     0000   244 	.SBTTL	ASTEXIT SYSTEM SERVICE
                                     0000   245 ;+
                                     0000   246 ; ASTEXIT - SERVICE TO EXIT AN ACTIVE AST AND ALLOW PENDING ASTS TO
                                     0000   247 ;	    BE DELIVERED.
                                     0000   248 ;
                                     0000   249 ; THIS SYSTEM SERVICE IS INVOKED WITH A CHMK #ASTEXIT NOT CONTAINED IN
                                     0000   250 ; A STANDARD SYSTEM SERVICE VECTOR TO AVOID CLUTTERING THE STACK WITH AN
                                     0000   251 ; ADDITIONAL CALL FRAME DURING AST EXIT PROCESSING.
                                     0000   252 ;
                                     0000   253 ; INPUTS:
                                     0000   254 ; 	NONE
                                     0000   255 ;
                                     0000   256 ; OUTPUTS:
                                     0000   257 ;	PCB$B_ASTACT IS CLEARED FOR THE ISSUING MODE
                                     0000   258 ;	PHD$B_ASTLVL IS SET TO THE ACCESS MODE OF THE NEXT PENDING AST, IF ANY.
                                     0000   259 ;
                                     0000   260 ;-
                                     0000   261
                                 00000000   262 	.PSECT	Y$CMODK,QUAD
                                     0000   263 ASTEXIT:				;EXIT ACTIVE AST
            02            16     EF  0000   264 	EXTZV	#PSL$V_PRVMOD,#PSL$S_PRVMOD,4(SP),R0 ;GET PREVIOUS MODE
            50         04 AE         0003
                          14     BB  0006   265 	PUSHR	#^M<R2,R4>		;SAVE R2,R4
            54   00000000'EF     D0  0008   266 	MOVL	SCH$GL_CURPCB,R4	;GET PCB CURRENT PCB ADDRESS
         0C A4            50     E7  000F   267 	BBCCI	R0,PCB$B_ASTACT(R4),10$	;CLEAR AST ACTIVE BIT FOR MODE
                          00         0013
                          FFE9'  30  0014   268 10$:	BSBW	SCH$NEWLVL		;COMPUTE NEW AST LEVEL SETTING
                          14     BA  0017   269 	POPR	#^M<R2,R4>		;RESTORE REGISTERS<R2,R4>
                                 02  0019   270 	REI				;AND EXIT
CMODSSDSP       - CHANGE MODE SYSTEM SERVICE DISPATCHER          22-AUG-1978 00:06:02   VAX-11 MACRO X0.3-11               Page   7
00.1            CHANGE MODE DETECTED ERROR HANDLING                                                                              (1)

                                     001A   272 	.SBTTL	CHANGE MODE DETECTED ERROR HANDLING
                                     001A   273 ;+
                                     001A   274 ; ACCVIO - ACCESS VIOLATION DETECTED IN ARGUMENT LIST
                                     001A   275 ; INSARG - INSUFFICIENT ARGUMENTS SUPPLIED FOR SERVICE
                                     001A   276 ; SSFAIL - ABNORMAL STATUS RETURNED BY SERVICE ROUTINE
                                     001A   277 ;
                                     001A   278 ; THESE ROUTINES TAKE THE APPROPRIATE ACTION TO RETURN THE ERROR INDICATION
                                     001A   279 ; TO THE ORIGINAL CALLER.
                                     001A   280 ;
                                     001A   281 ;-
                                     001A   282
            5D            5E     D0  001A   283 ACCVIO:	MOVL	SP,FP			;SET FRAME POINTER BEFORE RET
            50            0C     3C  001D   284 	MOVZWL	#SS$_ACCVIO,R0		;SET ACCESS VIOLATION
                                 04  0020   285 	RET				;
            50       0114 8F     3C  0021   286 INSARG:	MOVZWL	#SS$_INSFARG,R0		;SET INSUFFICIENT NUMBER OF ARGUMENTS
                                 04  0026   287 	RET				;
                                     0027   288 SRVEXIT:				;SERVICE EXIT
            07            50     E9  0027   289 	BLBC	R0,SSFAIL		;BR IF ABNORMAL COMPLETION
                                 02  002A   290 SRVREI:	REI				;
                                     002B   291 EXE$EXCPTN::				;SYSTEM SERVICE EXCEPTION
                               0000  002B   292 	.WORD	0			;ENTRY MASK
                                     002D   293 	BUG_CHECK SSRVEXCEPT,FATAL	;UNEXPECTED SYSTEM SERVICE EXCEPTION
            50            07     D3  0031   294 SSFAIL:	BITL	#7,R0			;TEST SEVERITY FIELD
                          F4     13  0034   295 	BEQL	SRVREI			;IF EQL WARNING
            51   00000000'EF     D0  0036   296 	MOVL	SCH$GL_CURPCB,R1	;GET ADDRESS OF CURRENT PROCESS PCB
                       0E A1     B5  003D   297 	TSTW	PCB$W_MTXCNT(R1)	;MUTEX COUNT ZERO?
                          11     12  0040   298 	BNEQ	10$			;IF NEQ NO
                          18     EF  0042   299 	EXTZV	#PSL$V_CURMOD,#PSL$S_CURMOD,- ;EXTRACT PREVIOUS MODE FROM
         04 AE            02         0044   300 		4(SP),-(SP)		;SAVED PSL
                          7E         0047
            6E            06     C0  0048   301 	ADDL	#PCB$V_SSFEXC,(SP)	;ADD IN BASE BIT NUMBER
         28 A1            8E     E1  004B   302 	BBC	(SP)+,PCB$L_STS(R1),SRVREI ;IF CLEAR, FAILURE EXCEPTION DISABLED
                          DA         004F
                          FFAD'  31  0050   303 	BRW	EXE$SSFAIL		;GENERATE SYSTEM SERVICE FAILURE EXCEPTION
                                     0053   304 10$:	BUG_CHECK MTXCNTNONZ,FATAL	;MUTEX COUNT NONZERO AT SERVICE EXIT
CMODSSDSP       - CHANGE MODE SYSTEM SERVICE DISPATCHER          22-AUG-1978 00:06:02   VAX-11 MACRO X0.3-11               Page   8
00.1            CHANGE MODE TO KERNEL DISPATCHER                                                                                 (1)

                                     0057   306 	.SBTTL	CHANGE MODE TO KERNEL DISPATCHER
                                     0057   307 ;+
                                     0057   308 ; EXE$CMODKRNL - CHANGE MODE TO KERNEL DISPATCHER
                                     0057   309 ;
                                     0057   310 ; THIS ROUTINE IS AUTOMATICALLY VECTORED TO WHEN A CHANGE MODE TO KERNEL
                                     0057   311 ; INSTRUCTION IS EXECUTED. THE STATE OF THE STACK ON ENTRY IS:
                                     0057   312 ;
                                     0057   313 ; INPUTS:
                                     0057   314 ;
                                     0057   315 ;	00(SP) = CHANGE MODE PARAMETER CODE.
                                     0057   316 ;	04(SP) = SAVED PC OF EXCEPTION.
                                     0057   317 ;	08(SP) = SAVED PSL OF EXCEPTION.
                                     0057   318 ;
                                     0057   319 ;	00(AP) = NUMBER OF SYSTEM SERVICE CALL ARGUMENTS.
                                     0057   320 ;	04(AP) = FIRST ARGUMENT.
                                     0057   321 ;	      .
                                     0057   322 ;	      .
                                     0057   323 ;	      .
                                     0057   324 ;	4*N(AP) = N'TH ARGUMENT.
                                     0057   325 ;
                                     0057   326 ; OUTPUTS:
                                     0057   327 ;
                                     0057   328 ;	***TBS***
                                     0057   329 ;-
                                     0057   330
                                 00000057   331 	.PSECT	Y$CMODK,QUAD
                                     0057   332 	.ALIGN	QUAD
                                     0058   333 EXE$CMODKRNL::				;CHANGE MODE TO KERNEL DISPATCH
                          50   8ED0  0058   334 	POPL	R0			;REMOVE CHANGE MODE PARAMETER FROM STACK
                          A3     13  005B   335 	BEQL	ASTEXIT			;IF ZERO, AST EXIT SYSTEM SERVICE
                       C7 AF     9F  005D   336 	PUSHAB	B^SRVEXIT		;RETURN ADDRESS
            51       FFFF'CF40   9A  0060   337 	MOVZBL	W^B_KRNLNARG[R0],R1	;GET NUMBER OF REQUIRED ARGUMENTS
            7E            5C     7D  0066   338 	MOVQ	AP,-(SP)		;AP,FP
            5D   00000004 9F41   DE  0069   339 	MOVAL	@#4[R1],FP		;CALCULATE LENGTH OF ARGUMENT LIST
                          7E     7C  0071   340 	CLRQ	-(SP)			;PSW AND REGISTER SAVE MASK
                                     0073   341 	IFNORD	FP,(AP),ACCVIO		;DECLARE ACCESS VIOLATION
            5D            5E     D0  0079   342 	MOVL	SP,FP			;SET FRAME POINTER FOR CALL FRAME
            51            6C     91  007C   343 	CMPB	(AP),R1			;CHECK FOR REQUIRED NUMBER OF ARGS
                          A0     1F  007F   344 	BLSSU	INSARG			;IF LSSU, INSUFFICIENT ARGUMENTS
            54   00000000'EF     D0  0081   345 	MOVL	SCH$GL_CURPCB,R4	;GET CURRENT PROCESS PCB ADDRESS
            01            50     AF  0088   346 KERDSP:	CASEW	R0,#1,#KCASMAX		;DISPATCH TO PROPER SERVICE ROUTINE
                     004B'8F         008B
                                     008E   347 KCASE:					;BASE OF CHMK CASE TABLE
                           00000001  008E   348 KCASCTR=1				;CHMK CODES START AT 1
                                 00000000   349 	.PSECT	Y$CMODKN,BYTE		;REQUIRED NUMBER OF ARG TABLE
                           FFFFFFFF  0000   350 B_KRNLNARG=.-1				;CHMK CODES ARE 1 ORIGIN
                                     0000   351 	.ENDC
                                     0000   352 	.IFF
CMODSSDSP       - CHANGE MODE SYSTEM SERVICE DISPATCHER          22-AUG-1978 00:06:02   VAX-11 MACRO X0.3-11               Page   9
00.1            SYSTEM SERVICE VECTOR DEFINITION                                                                                 (1)

                                     0000   354 	.SBTTL	SYSTEM SERVICE VECTOR DEFINITION
                                     0000   355 ;
                                     0000   356 ;
                                     0000   357 ;	DEFINE ALL SYSTEM SERVICE VECTOR POSITIONS
                                     0000   358 ;
                                     0000   359 ;
                                     0000   360
                                     0000   361 	.IF	NDF,LIBSWITCH		;REAL PSECT IF NOT LIBRARY
                                 00000000   362 	.PSECT	$$$000,QUAD
                                     0000   363 EXE$SYSBASE::				; REF. LABEL
                                     0000   364 	.IFF				;OTHERWISE ABS PSECT
                                     0000   365 	.PSECT	$$$0000,QUAD,ABS
                                     0000   366 .=^X80000000				;BIASED AT THE START OF SYSEM SPACE
                                     0000   367 	.ENDC
                                     0000   368 	.IFF
                                     0000   369 VECBASE:					;VECTOR AREA BASE
                                     0000   370
                                     0000   371 ;
                                     0000   372 ;	QIO AND WAIT COMPOSITE SERVICE
                                     0000   373 ;
                                     0000   374 ;	THE QIO AND WAITFR COMPOSITE SERVICE OCCUPIES THE FIRST TWO
                                     0000   375 ;	SYSTEM SERVICE VECTOR POSITIONS.  IT IS CONSTRUCTED BY
                                     0000   376 ;	FROM TWO DISCRETE CHMK INSTRUCTIONS, ONE PERFORMING THE QIO
                                     0000   377 ;	AND THE OTHER PERFORMING THE WAITFR, WHICH RELY UPON THE
                                     0000   378 ;	COMPATIBLE ARGUMENT LISTS OF THESE TWO SERVICES. WAITFR HAS
                                     0000   379 ;	A SINGLE ARGUMENT, THE EVENT FLAG, WHICH IS THE FIRST ARGUMENT
                                     0000   380 ;	IN THE QIO ARGUMENT LIST.
                                     0000   381 ;
                                     0000   382
                                     0000   383  	.ALIGN	QUAD
                                     0000   384 	.IF DF	LIBSWITCH
                                     0000   385 SYS$QIOW::				;QIO AND WAIT SYSTEM SERVICE
                                     0000   386 	.IFF
                               0FFC  0000   387 	.WORD	^M<R2,R3,R4,R5,R6,R7,R8,R9,R10,R11> ;SAVE R2-R11
                     002D'8F     BC  0002   388 	CHMK	#QIO			;FIRST QIO
            04            50     E9  0006   389 	BLBC	R0,10$			;SKIP WAIT IF ERROR
                     0041'8F     BC  0009   390 	CHMK	#WAITFR			;THEN WAIT FOR SINGLE EVENT
                                 04  000D   391 10$:	RET				;RETURN
                                     000E   392 	.IFT
                                     000E   393 	.BLKL	4			;JUST RESERVE SPACE IF LIBRARY
                                     000E   394 	.ENDC
                                     000E   395 	.IFF
                                     000E   396
                                     000E   397 ;
                                     000E   398 ; CONDITION HANDLER DISPATCH VECTOR
                                     000E   399 ;
                                     000E   400 ; THE FOLLOWING VECTOR IS INCLUDED IN THE SYSTEM VECTOR SPACE SO THAT BOTH
                                     000E   401 ; HARDWARE-DETECTED (EXCEPTIONS) AND SOFTWARE-DETECTED (SIGNALS) CONDITIONS
                                     000E   402 ; CAN BE DISPATCHED FROM THE SAME CALL INSTRUCTION. THIS IS NECESSARY SO
                                     000E   403 ; THAT THE STACK SEARCH ALGORITHM AND THE UNWIND SYSTEM SERVICE CAN DETECT
                                     000E   404 ; AND PROPERLY PROCESS MULTIPLE ACTIVE SIGNALS AND/OR EXCEPTIONS.
                                     000E   405 ;
                                     000E   406
                                     000E   407 	.ALIGN	QUAD
                                     0010   408 	.IF DF	LIBSWITCH
                                     0010   409 SYS$CALL_HANDL::			;CONDITION HANDLER DISPATCH
                                     0010   410 	.IFF
CMODSSDSP       - CHANGE MODE SYSTEM SERVICE DISPATCHER          22-AUG-1978 00:06:02   VAX-11 MACRO X0.3-11               Page  10
00.1            SYSTEM SERVICE VECTOR DEFINITION                                                                                 (1)

            61         04 AE     FA  0010   411 	CALLG	4(SP),(R1)		;CALL CONDITION HANDLER
                                 05  0014   412 	RSB				;
                                     0015   413 	.IFT
                                     0015   414 	.BLKQ	1			;RESERVE SPACE
                                     0015   415 	.ENDC
                                     0015   416 	.IFF
                                     0015   417 	.ALIGN	QUAD
                                     0018   418
                                     0018   419 	.ENDC
                                     0018   420 ;
                                     0018   421 ;	DEFINE REMAINING SERVICES
                                     0018   422 ;
                                     0018   423
                                     0018   424 	GSYSSRV	ACCSND,K,2,-		;SEND MSG TO ACCOUNTING MANAGER
                                     0018   425 		<R2,R3,R4,R5,R6,R7>,-	;REGISTERS R2-R7
                                     0018   426 		DUMMY			;NOT IMPLEMENTED ON CORE-ONLY SYSTEM
                                     0090   427 	GSYSSRV	ADJSTK,K,3,-		;ADJUST OUTER MODE STACK POINTER
                                     0090   428 		<R2,R3,R4,R5,R6>	;REGISTERS R2-R6
                                     0092   429 	GSYSSRV	ADJWSL,K,2,-		;ADJUST WORKING SET LIMIT
                                     0092   430 		<R2,R3,R4,R5>,-		;REGISTERS R2-R5
                                     0092   431 		DUMMY			;NOT IMPLEMENTED ON CORE-ONLY SYSTEM
                                     0094   432 	GSYSSRV	ALCDNP,K,4,-		;ALLOCATE DIAGNOSTIC PAGE
                                     0094   433 		<R2,R3,R4,R5,R6,R7>,-	;REGISTERS R2-R7
                                     0094   434 		DUMMY			;NOT IMPLEMENTED ON CORE-ONLY SYSTEM
                                     0096   435 	GSYSSRV	ALLOC,K,4,-		;ALLOCATE DEVICE
                                     0096   436 		<R2,R3,R4,R5,R6,R7,R8,R9,R10> ;REGISTERS R2-R10
                                     0098   437 	GSYSSRV	ASCEFC,K,4,-		;ASSOCIATE COMMON EVENT FLAG CLUSTER
                                     0098   438 		<R2,R3,R4,R5>		;REGISTERS R2-R5
                                     009A   439 	GSYSSRV	ASCTIM,ALL,3,-		;CONVERT TO ASCII TIME
                                     009A   440 		<R2,R3,R4,R5,R6>	;REGISTERS R2-R6
                                     0050   441 	GSYSSRV	ASSIGN,K,4,-		;ASSIGN I/O CHANNEL
                                     0050   442 		<R2,R3,R4,R5,R6,R7,R8,R9,R10,R11> ;REGISTERS R2-R11
                                     009C   443 	GSYSSRV	BINTIM,ALL,2,-		;CONVERT TO BINARY TIME
                                     009C   444 		<R2,R3,R4,R5,R6,R7,R8>	;REGISTERS R2-R8
                                     0060   445 	GSYSSRV	CANCEL,K,1,-		;CANCEL I/O ON CHANNEL
                                     0060   446 		<R2,R3,R4,R5,R6,R7>	;REGISTERS R2-R7
                                     009E   447 	GSYSSRV	CANTIM,K,2,-		;CANCEL TIMER REQUEST
                                     009E   448 		<R2,R3,R4,R5>		;REGISTERS R2-R5
                                     00A0   449 	GSYSSRV	CANWAK,K,2,-		;CANCEL WAKE UP REQUESTS
                                     00A0   450 		<R2,R3,R4,R5>		;REGISTERS R2-R5
                                     00A2   451 ;
                                     00A2   452 ; ***** THE FOLLOWING IS OUT OF ALPHABETIC ORDER AS ITS NAME WAS CHANGED
                                     00A2   453 ;
                                     00A2   454 	GSYSSRV	CRMPSC,K,12,-		;CREATE AND MAP SECTION
                                     00A2   455 		<R2,R3,R4,R5,R6,R7,R8,R9,R10>,- ;REGISTERS R2-R10
                                     00A2   456 		DUMMY			;NOT IMPLEMENTED ON CORE-ONLY SYSTEM
                                     00A4   457 	GSYSSRV	CLRPAR,K,2,-		;CLEAR HARD PARITY ERROR
                                     00A4   458 		<R2,R3,R4,R5>,-		;REGISTERS R2-R5
                                     00A4   459 		DUMMY			;NOT IMPLEMENTED ON CORE-ONLY SYSTEM
                                     00A6   460 	GSYSSRV	CMEXEC,E,2,-		;CHANGE MODE TO EXECUTIVE
                                     00A6   461 		<R4>			;REGISTER R4
                                     0035   462 	GSYSSRV	CMKRNL,K,2,-		;CHANGE MODE TO KERNEL
                                     0035   463 		<R4>			;REGISTER R4
                                     00A8   464 	GSYSSRV	CLREF,K,1,-		;CLEAR EVENT FLAG
                                     00A8   465 		<R2,R3,R4,R5>		;REGISTERS R2-R5
                                     00AA   466 	GSYSSRV	CNTREG,K,4,-		;CONTRACT REGION
                                     00AA   467 		<R2,R3,R4,R5,R6,R7>,-	;REGISTERS R2-R7
CMODSSDSP       - CHANGE MODE SYSTEM SERVICE DISPATCHER          22-AUG-1978 00:06:02   VAX-11 MACRO X0.3-11               Page  11
00.1            SYSTEM SERVICE VECTOR DEFINITION                                                                                 (1)

                                     00AA   468 		DUMMY			;NOT IMPLEMENTED IN CORE-ONLY SYSTEM
                                     00AC   469 	GSYSSRV	CPRCSC,K,9,-		;CREATE PROCESS SECTION
                                     00AC   470 		<R2,R3,R4,R5,R6,R7,R8>,- ;REGISTERS R2-R8
                                     00AC   471 		DUMMY			;NOT IMPLEMENTED ON CORE-ONLY SYSTEM
                                     00AE   472 	GSYSSRV	CRELOG,K,4,-		;CREATE LOGICAL NAME
                                     00AE   473 		<R2,R3,R4,R5,R6,R7,R8>	;REGISTERS R2-R8
                                     00B0   474 	GSYSSRV	CREMBX,K,7,-		;CREATE MAILBOX
                                     00B0   475 		<R2,R3,R4,R5,R6,R7,R8,R9,R10,R11> ;REGISTERS R2-R11
                                     00B2   476 	GSYSSRV	CREPRC,K,12,-		;CREATE PROCESS
                                     00B2   477 		<R2,R3,R4,R5,R6,R7,R8,R9,R10,R11>,- ;REGISTERS R2-R11
                                     00B2   478 		DUMMY			;NOT IMPLEMENTED ON CORE-ONLY SYSTEM
                                     00B4   479 	GSYSSRV	CRETVA,K,3,-		;CREATE VIRTUAL ADDRESS
                                     00B4   480 		<R2,R3,R4,R5,R6,R7,R8>,- ;REGISTERS R2-R8
                                     00B4   481 		DUMMY			;NOT IMPLEMENTED ON CORE-ONLY SYSTEM
                                     00B6   482 	GSYSSRV	DACEFC,K,1,-		;DISASSOCIATE EVENT FLAG CLUSTER
                                     00B6   483 		<R2,R3,R4,R5>		;REGISTERS R2-R5
                                     00B8   484 	GSYSSRV	DALLOC,K,2,-		;DEALLOCATE DEVICE
                                     00B8   485 		<R2,R3,R4,R5>		;REGISTERS R2-R5
                                     00BA   486 	GSYSSRV	DASSGN,K,1,-		;DEASSIGN I/O CHANNEL
                                     00BA   487 		<R2,R3,R4,R5,R6,R7>	;REGISTERS R2-R7
                                     00BC   488 	GSYSSRV	DCLAST,K,3,-		;DECLARE AST SYSTEM SERVICE
                                     00BC   489 		<R2,R3,R4,R5>		;REGISTERS R2-R5
                                     00BE   490 	GSYSSRV	DCLEXH,K,1,-		;DECLARE EXIT HANDLER
                                     00BE   491 		<R2,R3,R4>		;REGISTERS R2-R4
                                     00C0   492 	GSYSSRV	DELLOG,K,3,-		;DELETE LOGICAL NAME
                                     00C0   493 		<R2,R3,R4,R5,R6,R7,R8>	;REGISTERS R2-R8
                                     00C2   494 	GSYSSRV	DELMBX,K,1,-		;DELETE MAILBOX
                                     00C2   495 		<R2,R3,R4,R5>		;REGISTERS R2-R5
                                     00C4   496 	GSYSSRV	DELPRC,K,2,-		;DELETE PROCESS
                                     00C4   497 		<R2,R3,R4,R5,R6,R7>,-	;REGISTERS R2-R5
                                     00C4   498 		DUMMY			;NOT IMPLEMENTED ON CORE-ONLY SYSTEM
                                     00C6   499 	GSYSSRV	DELTVA,K,3,-		;DELETE VIRTUAL ADDRESS
                                     00C6   500 		<R2,R3,R4,R5,R6,R7>,-	;REGISTERS R2-R7
                                     00C6   501 		DUMMY			;NOT IMPLEMENTED ON CORE-ONLY SYSTEM
                                     00C8   502 	GSYSSRV	DGBLSC,K,2,-		;DELETE GLOBAL SECTION
                                     00C8   503 		<R2,R3,R4,R5,R6,R7>,-	;REGISTERS R2-R7
                                     00C8   504 		DUMMY			;NOT IMPLEMENTED ON CORE-ONLY SYSTEM
                                     00CA   505 	GSYSSRV	DLCDNP,K,2,-		;DEALLOCATE DIAGNOSTIC PAGE
                                     00CA   506 		<R2,R3,R4,R5,R6,R7>	;REGISTERS R2-R7
                                     00CC   507 	GSYSSRV	DLCEFC,K,1,-		;DELETE COMMON EVENT CLUSTER
                                     00CC   508 		<R2,R3,R4,R5>		;REGISTERS R2-R5
                                     00CE   509 	GSYSSRV	DPRCSC,K,2,-		;DELETE PROCESS SECTION
                                     00CE   510 		<R2,R3,R4,R5,R6,R7>,-	;REGISTERS R2-R7
                                     00CE   511 		DUMMY			;NOT IMPLEMENTED ON CORE-ONLY SYSTEM
                                     00D0   512 	GSYSSRV	ERRSND,K,2,-		;SEND MSG TO ERROR LOGGER
                                     00D0   513 		<R2,R3,R4,R5,R6,R7>,-	;REGISTERS R2-R7
                                     00D0   514 		DUMMY			;NOT IMPLEMENTED ON CORE-ONLY SYSTEM
                                     00D2   515 	GSYSSRV	EXIT,K,1,-		;IMAGE EXIT
                                     00D2   516 		<R4>			;REGISTER R4
                                     00D4   517 	GSYSSRV	EXPREG,K,4,-		;EXPAND PROGRAM REGION
                                     00D4   518 		<R2,R3,R4,R5,R6,R7,R8>,- ;REGISTERS R2-R8
                                     00D4   519 		DUMMY			;NOT IMPLEMENTED ON CORE-ONLY SYSTEM
                                     00D6   520 	GSYSSRV	FAO,ALL,0,-		;FORMAT ASCII OUTPUT
                                     00D6   521 		<R2,R3,R4,R5,R6,R7,R8,R9,R10,R11> ; REGISTERS R2-R11
                                     0158   522 	GSYSSRV	FAOL,ALL,0,-		;FORMAT ASCII OUTPUT WITH VALUE LIST
                                     0158   523 		<R2,R3,R4,R5,R6,R7,R8,R9,R10,R11> ;REGISTERS R2-R11
                                     0160   524 	GSYSSRV	FORCEX,K,3,-		;FORCE EXIT
CMODSSDSP       - CHANGE MODE SYSTEM SERVICE DISPATCHER          22-AUG-1978 00:06:02   VAX-11 MACRO X0.3-11               Page  12
00.1            SYSTEM SERVICE VECTOR DEFINITION                                                                                 (1)

                                     0160   525 		<R2,R3,R4,R5>		;REGISTERS R2-R5
                                     00D8   526 	GSYSSRV	GETERR,E,3,-		;GET ERROR MESSAGE
                                     00D8   527 		<R2,R3,R4,R5>,-		;REGISTERS R2-R5
                                     00D8   528 		DUMMY			;NOT IMPLEMENTED ON CORE-ONLY SYSTEM
                                     0037   529 	GSYSSRV	GETJPP,K,2,-		;GET JOB/PROCESS PARAMETERS
                                     0037   530 		<R2,R3,R4,R5,R6,R7,R8>	;REGISTERS R2-R8
                                     00DA   531 	GSYSSRV	GETTIM,E,1,-		;GET TIME
                                     00DA   532 		<>			;NO REGISTERS
                                     0039   533 	GSYSSRV	GTCHAN,K,5,-		;GET I/O CHANNEL DEVICE INFORMATION
                                     0039   534 		<R2,R3,R4,R5,R6,R7,R8>	;REGISTERS R2-R8
                                     00DC   535 	GSYSSRV	HIBER,K,0,-		;HIBERNATE
                                     00DC   536 		<R2,R3,R4,R5>		;REGISTERS R2-R5
                                     00DE   537 	GSYSSRV	IMGACT,E,3,-		;IMAGE ACTIVATION
                                     00DE   538 		<R2,R3,R4,R5,R6>,-	;REGISTERS R2-R6
                                     00DE   539 		DUMMY			;NOT IMPLEMENTED ON CORE ONLY SYSTEM
                                     003B   540 	GSYSSRV	LCKPAG,K,2,-		;LOCK PAGE IN MEMORY
                                     003B   541 		<R2,R3,R4,R5>,-		;REGISTERS R2-R5
                                     003B   542 		DUMMY			;NOT IMPLEMENTED ON CORE-ONLY SYSTEM
                                     00E0   543 	GSYSSRV	LKWSET,K,3,-		;LOCK PAGES IN WORKING SET
                                     00E0   544 		<R2,R3,R4,R5,R6,R7,R8>,-	;REGISTERS R2-R8
                                     00E0   545 		DUMMY			;NOT IMPLEMENTED ON CORE-ONLY SYSTEM
                                     00E2   546 	GSYSSRV	MGBLSC,K,7,-		;MAP GLOBAL SECTION
                                     00E2   547 		<R2,R3,R4,R5,R6,R7,R8,R9,R10>,- ;REGISTERS R2-R10
                                     00E2   548 		DUMMY			;NOT IMPLEMENTED ON CORE-ONLY SYSTEM
                                     00E4   549 	GSYSSRV	MPRCSC,K,7,-		;MAP PROCESS SECTION
                                     00E4   550 		<R2,R3,R4,R5,R6,R7,R8>,-	;REGISTERS R2-R8
                                     00E4   551 		DUMMY			;NOT IMPLEMENTED ON CORE-ONLY SYSTEM
                                     00E6   552 	GSYSSRV	NUMTIM,E,2,-		;CONVERT TIME TO NUMERIC
                                     00E6   553 		<R2,R3,R4,R5,R6,R7>	;REGISTERS R2-R7
                                     003D   554 	GSYSSRV	SNDOPR,E,2,-		;SEND MSG TO OPERATOR
                                     003D   555 		<R2,R3,R4,R5,R6,R7,R8,R9,R10,R11>,- ;REGISTERS R2-R11
                                     003D   556 		DUMMY			;NOT IMPLEMENTED ON CORE-ONLY SYSTEM
                                     003F   557 	GSYSSRV	QIO,K,11,-		;QUEUE I/O REQUEST
                                     003F   558 		<R2,R3,R4,R5,R6,R7,R8,R9,R10,R11> ;REGISTERS R2-R11
                                     00E8   559 	GSYSSRV	READEF,K,2,-		;READ EVENT FLAG
                                     00E8   560 		<R2,R3,R4,R5>		;REGISTERS R2-R5
                                     00EA   561 	GSYSSRV	RESUME,K,2,-		;RESUME PROCESS
                                     00EA   562 		<R2,R3,R4,R5>		;REGISTERS R2-R5
                                     00EC   563 	GSYSSRV	RUNDWN,K,1,-		;RUNDOWN
                                     00EC   564 		<R2,R3,R4,R5,R6,R7>	;REGISTERS R2-R7
                                     00EE   565 	GSYSSRV	SNDSMB,E,2,-		;SEND MSG TO SYMBIONT MANAGER
                                     00EE   566 		<R2,R3,R4,R5,R6,R7,R8,R9,R10,R11>,-	;REGISTERS R2-R11
                                     00EE   567 		DUMMY			;NOT IMPLEMENTED ON CORE-ONLY SYSTEM
                                     0041   568 	GSYSSRV	SCHDWK,K,4,-		;SCHEDULE WAKEUP
                                     0041   569 		<R2,R3,R4,R5,R6,R7,R8,R9> ;REGISTERS R2-R9
                                     00F0   570 	GSYSSRV	SETAST,K,1,-		;SET AST ENABLE SERVICE
                                     00F0   571 		<R2,R3,R4,R5>		;REGISTERS R2-R5
                                     00F2   572 	GSYSSRV	SETEF,K,1,-		;SET EVENT FLAG
                                     00F2   573 		<R2,R3,R4,R5>		;REGISTERS R2-R5
                                     00F4   574 	GSYSSRV	SETEXV,K,4,-		;SET EXCEPTION VECTOR
                                     00F4   575 		<R2,R3,R4,R5>		;REGISTERS R2-R5
                                     00F6   576 	GSYSSRV	SETPRN,K,1,-		;SET PROCESS  NAME
                                     00F6   577 		<R2,R3,R4,R5,R6,R7>	;REGISTERS R2-R7
                                     00F8   578 	GSYSSRV	SETPRA,K,2,-		;SET POWER RECOVERY AST
                                     00F8   579 		<R2,R3,R4,R5>		;REGISTERS R2-R5
                                     00FA   580 	GSYSSRV	SETIMR,K,4,-		;SET TIMER
                                     00FA   581 		<R2,R3,R4,R5,R6,R7,R8,R9> ;REGISTERS R2-R9
CMODSSDSP       - CHANGE MODE SYSTEM SERVICE DISPATCHER          22-AUG-1978 00:06:02   VAX-11 MACRO X0.3-11               Page  13
00.1            SYSTEM SERVICE VECTOR DEFINITION                                                                                 (1)

                                     00FC   582 	GSYSSRV	SETPRI,K,4,-		;SET PROCESS PRIORITY
                                     00FC   583 		<R2,R3,R4,R5>		;REGISTERS R2-R5
                                     00FE   584 	GSYSSRV	SETPRT,K,5,-		;SET PAGE PROTECTION
                                     00FE   585 		<R2,R3,R4,R5,R6,R7,R8,R9>,- ;REGISTERS R2-R9
                                     00FE   586 		DUMMY			;NOT IMPLEMENTED ON CORE-ONLY SYSTEM
                                     0100   587 	GSYSSRV	SETRWM,K,1,-		;SET RESOURCE WAIT MODE
                                     0100   588 		<R4>			;REGISTER R4
                                     0102   589 	GSYSSRV	SETSFM,K,1,-		;SET SYSTEM SERVICE FAILURE MODE
                                     0102   590 		<R4>			;REGISTER R4
                                     0104   591 	GSYSSRV	SETSWM,K,1,-		;SET PROCESS SWAP MODE
                                     0104   592 		<R4>,-			;REGISTER R4
                                     0104   593 		DUMMY			;NOT IMPLEMENTED ON CORE-ONLY SYSTEM
                                     0106   594 	GSYSSRV	SUSPND,K,2,-		;SUSPEND PROCESS
                                     0106   595 		<R2,R3,R4,R5>		;REGISTERS R2-R5
                                     0108   596 	GSYSSRV	TRNLOG,K,6,-		;TRANSLATE LOGICAL NAME
                                     0108   597 		<R2,R3,R4,R5>		;REGISTERS R2-R5
                                     010A   598 	GSYSSRV	ULKPAG,K,2,-		;UNLOCK PAGE FROM MEMORY
                                     010A   599 		<R2,R3,R4,R5,R6,R7,R8>,- ;REGISTERS R2-R8
                                     010A   600 		DUMMY			;NOT IMPLEMENTED ON CORE ONLY SYSTEM
                                     010C   601 	GSYSSRV	ULWSET,K,3,-		;UNLOCK PAGES FROM WORKING SET
                                     010C   602 		<R2,R3,R4,R5,R6,R7,R8>,- ;REGISTERS R2-R8
                                     010C   603 		DUMMY			;NOT IMPLEMENTED ON CORE-ONLY SYSTEM
                                     010E   604 	GSYSSRV	UNWIND,ALL,2,-		;UNWIND PROCEDURE CALL STACK
                                     010E   605 		<R2,R3,R4,R5>		;REGISTERS R2-R5
                                     0278   606 	GSYSSRV	WAITFR,K,1,-		;WAIT FOR EVENT FLAG
                                     0278   607 		<R2,R3,R4,R5,R6>	;REGISTERS R2-R6
                                     0110   608 	GSYSSRV	WAKE,K,2,-		;WAKE PROCESS
                                     0110   609 		<R2,R3,R4,R5>		;REGISTERS R2-R5
                                     0112   610 	GSYSSRV	WFLAND,K,2,-		;WAIT FOR LOGICAL AND OF EVENT FLAGS
                                     0112   611 		<R2,R3,R4,R5,R6>	;REGISTERS R2-R6
                                     0114   612 	GSYSSRV	WFLOR,K,2,-		;WAIT FOR LOGICAL OR OF EVENT FLAGS
                                     0114   613 		<R2,R3,R4,R5,R6>	;REGISTERS R2-R5
                                     0116   614 	GSYSSRV	BRDCST,K,2,-		;BROADCAST TO TERMINALS
                                     0116   615 		<R2,R3,R4,R5,R6,R7>,-	;REGISTERS R2-R7
                                     0116   616 		DUMMY			;NOT IMPLEMENTED ON CORE-ONLY SYSTEM
                                     0118   617 	GSYSSRV	DCLCMH,K,3,-		;DECLARE CHANGE MODE HANDLER
                                     0118   618 		<R4>			;SAVE R4
                                     011A   619 	GSYSSRV	SETPFM,K,1,-		;SET PAGE FAULT MONITORING
                                     011A   620 		<R2,R3,R4,R5,R6>,-	;REGISTERS R2-R6
                                     011A   621 		DUMMY			;NOT IMPLEMENTED ON CORE-ONLY SYSTEM
                                     011C   622 	GSYSSRV	GETMSG,ALL,5,-		;GET MESSAGE
                                     011C   623 		<R2,R3,R4,R5,R6,R7,R8,R9,R10,R11>,- ;REGISTERS R2-R11
                                     011C   624 		DUMMY			;NOT IMPLEMENTED ON CORE-ONLY SYSTEM
                                     02B8   625 	GSYSSRV	DERLMB,K,1,-		;DECLARE ERROR LOG MAILBOX
                                     02B8   626 		<R2,R3,R4,R5>,-		;REGISTERS R2-R5
                                     02B8   627 		DUMMY			;NOT IMPLEMENTED ON CORE-ONLY SYSTEM
                                     011E   628 	GSYSSRV	CANEXH,K,1,-		;CANCEL EXIT HANDLER
                                     011E   629 		<R2,R3,R4>		;REGISTERS R2-R4
                                     0120   630 	GSYSSRV	GETCHN,K,5,-		;GET CHANNEL INFORMATION
                                     0120   631 		<R2,R3,R4,R5,R6,R7,R8,R9> ;REGISTERS R2-R9
                                     0122   632 	GSYSSRV	GETDEV,K,5,-		;GET DEVICE INFORMATION
                                     0122   633 		<R2,R3,R4,R5,R6,R7,R8,R9> ;REGISTERS R2-R9
                                     0124   634 	GSYSSRV	GETJPI,K,7,-		;GET JOB PROCESS INFORMATION
                                     0124   635 		<R2,R3,R4,R5,R6,R7,R8,R9> ;REGISTERS R2-R9
                                     0126   636 ;
                                     0126   637 ; ***** THE FOLLOWING EQUATE IS REQUIRED UNTIL ALL OLD USERS OF
                                     0126   638 ; ***** THE CREATE AND MAP SECTION SERVICE ARE USING THE NEW NAME
CMODSSDSP       - CHANGE MODE SYSTEM SERVICE DISPATCHER          22-AUG-1978 00:06:02   VAX-11 MACRO X0.3-11               Page  14
00.1            SYSTEM SERVICE VECTOR DEFINITION                                                                                 (1)

                                     0126   639 ;
                                     0126   640 	.IF	DF,LIBSWITCH
                                     0126   641 	SYS$CGBLSC==SYS$CRMPSC
                                     0126   642 	.ENDC
                                     0126   643
CMODSSDSP       - CHANGE MODE SYSTEM SERVICE DISPATCHER          22-AUG-1978 00:06:02   VAX-11 MACRO X0.3-11               Page  15
00.1            SYSTEM SERVICE VECTOR DEFINITION                                                                                 (1)

                                     0126   645
                                     0126   646 	.IF DF	RMS
                                     0126   647
                                     0126   648 	.IIF	NDF,LIBSWITCH,	RCASCTR=ECASCTR
                                     0126   649
                                     0126   650 	.ENDC
                                     0126   651
                                     0126   652 	.IF	DF,RMSSWITCH
                                     0126   653 ;
                                     0126   654 ;  CASE DISPATCHER FOR RMS SERVICES
                                     0126   655 ;
                                     0126   656 ;	R0 HAS SERVICE DISPATCH CODE.
                                     0126   657 ;	IF IN RANGE DISPATCHES TO APPROPRIATE RMS SERVICE,
                                     0126   658 ;	ELSE SIMPLY DOES AN RSB
                                     0126   659 ;
                                     0126   660 	.PSECT	$$$RMSVEC,BYTE		;MUST BE FIRST PSECT IN RMS
                                     0126   661 RMS$DISPATCH:				;MUST BE FIRST CODE IN FIRST RMS PSECT
                                     0126   662 	CASEW	R0,S^#RCASMIN,S^#RCASMAX
                                     0126   663
                                     0126   664 RCASMIN=RCASCTR
                                     0126   665 RCASE:
                                     0126   666 	.IFF
CMODSSDSP       - CHANGE MODE SYSTEM SERVICE DISPATCHER          22-AUG-1978 00:06:02   VAX-11 MACRO X0.3-11               Page  16
00.1            SYSTEM SERVICE VECTOR DEFINITION                                                                                 (1)

                                     0126   668 ;
                                     0126   669 ;  RMS SERVICES
                                     0126   670 ;
                                     0126   671 ;
                                     0126   672 ;  RMS SYNCHRONIZATION ROUTINE
                                     0126   673 ;
                                     0126   674 ;  THE FOLLOWING ROUTINE IS USED BY THE VARIOUS RMS SERVICES IN ORDER
                                     0126   675 ;  TO AWAIT I/O COMPLETION.  THE ROUTINE IS IN THE VECTOR AREA IN ORDER
                                     0126   676 ;  TO WAIT AT THE CALLER'S MODE,  THUS ALLOWING AST ACTIVITY FOR EITHER
                                     0126   677 ;  USER OR SUPERVISOR MODE, OR BOTH.
                                     0126   678 ;
                                     0126   679 ;  NOTE THAT EACH RMS SERVICE VECTOR TERMINATES WITH A BRANCH TO THIS
                                     0126   680 ;  ROUTINE.
                                     0126   681 ;
                                     0126   682 	.IF NDF,LIBSWITCH
                                 000002DF   683 	.PSECT	$$$000,QUAD
                                     02DF   684 	.IFF
                                     02DF   685 	.PSECT	$$$0000,QUAD
                                     02DF   686 	.IFTF
                           00000320  02DF   687 	.BLKB	^X320-<.-VECBASE>
                                     0320   688 	.IFT
                                     0320   689 	.IF DF	RMS
                                     0320   690
                                     0320   691 RMSWAIT_IO_DONE:
                                     0320   692 10$:	$WAITFR_S	R3		;WAIT FOR RMS EVENT FLAG
                                     0320   693 	MOVL	4(AP),R2		;GET FAB OR RAB ADDRESS
                                     0320   694 20$:	MOVL	8(R2),R0		;GET RMS STATUS CODE
                                     0320   695 	BEQL	30$			;AND WAIT AGAIN IF NOT SET
                                     0320   696 	BLBC	R0,35$			;BRANCH IF FAILURE CODE
                                     0320   697 	RET				;RETURN TO CALLER
                                     0320   698 ;
                                     0320   699 ;  CLEAR THE RMS EVENT FLAG, CHECK STATUS AGAIN AND WAIT 1 MORE TIME IF
                                     0320   700 ;  OPERATION STILL NOT DONE
                                     0320   701 ;
                                     0320   702 30$:	$CLREF_S	R3		;CLEAR RMS EVENT FLAG
                                     0320   703 	MOVL	8(R2),R0		;AND RE-CHECK STATUS
                                     0320   704 	BEQL	10$			;BRANCH TO WAIT FOR FLAG AGAIN..
                                     0320   705 					;... IF STATUS STILL ZERO
                                     0320   706 	$SETEF_S	R3		;I/O COMPLETE - LEAVE EFN SET
                                     0320   707 	BRB	20$			;AND RESTORE R0 STATUS CODE
                                     0320   708 ;
                                     0320   709 ;  CHECK STATUS CODE FOR ERROR OR SEVERE ERROR
                                     0320   710 ;
                                     0320   711 35$:	BITB	#6,R0			;ERROR OR SEVERE ERROR?
CMODSSDSP       - CHANGE MODE SYSTEM SERVICE DISPATCHER          22-AUG-1978 00:06:02   VAX-11 MACRO X0.3-11               Page  17
00.1            SYSTEM SERVICE VECTOR DEFINITION                                                                                 (2)

                                     0320   713 	BEQL	40$			;BRANCH IF NOT
                                     0320   714 ;
                                     0320   715 ;  MUST RETURN TO EXEC MODE TO GENERATE POSSIBLE SYSTEM SERVICE FAILURE EXCEPTION
                                     0320   716 ;
                                     0320   717 	MOVL	R0,R2			;STATUS CODE TO R2
                                     0320   718 	CHME	#SSVEXC			;GENERATE EXCEPTION IF ENABLED
                                     0320   719 40$:	RET
                                     0320   720 ;
                                     0320   721 ;
                                     0320   722 ;  ENTRY HERE FROM EACH VECTOR
                                     0320   723 ;  CHECK FOR POSSIBLE STALL
                                     0320   724 ;
                                     0320   725 RMSCHK_STALL:
                                     0320   726 	CMPW	R0,#RMS$_STALL&^XFFFF	;IS THE STATUS CODE I/O STALL?
                                     0320   727 	BEQL	RMSWAIT_IO_DONE		;BRANCH IF YES
                                     0320   728 	RET				;BACK TO CALLER
                                     0320   729
                                     0320   730 	.ENDC
                                     0320   731
                                     0320   732 	.ALIGN	QUAD
                                     0320   733 	.IFF
                                     0320   734 	.BLKB	72
                                     0320   735 	.ENDC
                                     0320   736 	.IFF
CMODSSDSP       - CHANGE MODE SYSTEM SERVICE DISPATCHER          22-AUG-1978 00:06:02   VAX-11 MACRO X0.3-11               Page  18
00.1            SYSTEM SERVICE VECTOR DEFINITION                                                                                 (2)

                                     0320   738 ;
                                     0320   739 ;
                                     0320   740 ;  DEFINE RMS SERVICES
                                     0320   741 ;
                                     0320   742
                                     0320   743 	.IF DF	RMS
                                     0320   744
                                     0320   745 	.IIF	NDF,LIBSWITCH,RMSSYNC=RMSCHK_STALL
                                     0320   746
                                     0320   747 	.ENDC
                                     0320   748 	.ENDC
                                     0320   749 ;
                                     0320   750 ;  HIGH USE RECORD OPERATIONS
                                     0320   751 ;
                                     0320   752
                                     0320   753 	.LIST	ME
                                     0320   754 	RMSSRV	DELETE		;DELETE A RECORD
                                     0320       	.IF DF	RMS
                                     0320       	GSYSSRV	DELETE,R,1,<R2,R3,R4,R5,R6,R7,R8,R9,R10,R11>
                                     0320       	.ENDC
                                     0320
                                     0320   755 	.NLIST	ME
                                     0320   756 	RMSSRV	FIND		;FIND RECORD
                                     0320   757 	RMSSRV	FREE		;RELEASE LOCK ON ALL RECORDS
                                     0320   758 	RMSSRV	GET		;GET A RECORD
                                     0320   759 	RMSSRV	PUT		;PUT A RECORD
                                     0320   760 	RMSSRV	READ		;READ A BLOCK
                                     0320   761 	RMSSRV	RELEASE		;RELEASE LOCK ON NAMED RECORD
                                     0320   762 	RMSSRV	UPDATE		;REWRITE EXISTING RECORD
                                     0320   763 	RMSSRV	WAIT		;STALL FOR RECORD OPERATION COMPLETE
                                     0320   764 	RMSSRV	WRITE		;WRITE BLOCK
                                     0320   765 ;
                                     0320   766 ;  LOWER USAGE OPERATIONS
                                     0320   767 ;
                                     0320   768 	RMSSRV	CLOSE		;CLOSE FILE
                                     0320   769 	RMSSRV	CONNECT		;CONNECT RAB
                                     0320   770 	RMSSRV	CREATE		;CREATE FILE
                                     0320   771 	RMSSRV	DISCONNECT	;DISCONNECT RAB
                                     0320   772 	RMSSRV	DISPLAY		;DISPLAY FILE INFORMATION
                                     0320   773 	RMSSRV	ERASE		;ERASE (DELETE) FILE
                                     0320   774 	RMSSRV	EXTEND		;EXTEND FILE ALLOCATION
                                     0320   775 	RMSSRV	FLUSH		;FINISH I/O ACTIVITY FOR STREAM
                                     0320   776 	RMSSRV	MODIFY		;MODIFY FILE ATTRIBUTES
                                     0320   777 	RMSSRV	NXTVOL		;NEXT VOLUME
                                     0320   778 	RMSSRV	OPEN		;OPEN FILE
                                     0320   779 	RMSSRV	REWIND		;REWIND FILE
                                     0320   780 	RMSSRV	SPACE		;POSITION FOR TRANSFER
                                     0320   781 	RMSSRV	TRUNCATE	;TRUNCATE FILE
                                     0320   782 	RMSSRV	ENTER		;ENTER FILENAME INTO DIRECTORY
                                     0320   783 	RMSSRV	PARSE		;PARSE FILENAME SPECIFICATION
                                     0320   784 	RMSSRV	REMOVE		;REMOVE FILENAME FROM DIRECTORY
                                     0320   785 	RMSSRV	RENAME,NARG=2	;RENAME A FILE
                                     0320   786 	RMSSRV	SEARCH		;SEARCH A FILE DIRECTORY
                                     0320   787 	RMSSRV	SETDDIR,REGS=<R2,R3,R4,R5>
                                     0320   788 				;SET DEFAULT DIRECTORY STRING
                                     0320   789 	RMSSRV	SETDFPROT,REGS=<R2,R3>
                                     0320   790 				;SET DEFAULT FILE PROTECTION MASK
CMODSSDSP       - CHANGE MODE SYSTEM SERVICE DISPATCHER          22-AUG-1978 00:06:02   VAX-11 MACRO X0.3-11               Page  19
00.1            SYSTEM SERVICE VECTOR DEFINITION                                                                                 (2)

                                     0320   791 	RMSSRV	SSVEXC,REGS=<>
                                     0320   792 				;GENERATE SYS SERV EXCEPTION
                                     0320   793 	RMSSRV	RMSRUNDWN	;PERFORM RUNDOWN ON RMS FILES
CMODSSDSP       - CHANGE MODE SYSTEM SERVICE DISPATCHER          22-AUG-1978 00:06:02   VAX-11 MACRO X0.3-11               Page  20
00.1            SYSTEM SERVICE VECTOR DEFINITION                                                                                 (2)

                                 00000320   799 	.PSECT	$$$000,BYTE
                           00000600  0320   800 	.BLKB	<SGN$C_SYSVECPGS@9>-<.-VECBASE>	;FILL REMAINDER OF RESERVED PAGES
                           00000300  0600   801 	.=^X300
                 00000000'EF     17  0300   802 	JMP	$CON_NORM		;CONSOLE START - NORMAL
                 00000000'EF     17  0306   803 	JMP	$CON_DEBUG		;CONSOLE START - ENTER DEBUGGER
                 00000000'EF     17  030C   804 	JMP	$BOOT_NORM		;SYSTEM BOOT - NORMAL
                 00000000'EF     17  0312   805 	JMP	$BOOT_DEBUG		;SYSTEM BOOT - ENTER DEBUGGER
CMODSSDSP       - CHANGE MODE SYSTEM SERVICE DISPATCHER          22-AUG-1978 00:06:02   VAX-11 MACRO X0.3-11               Page  21
00.1            JUMP TO STAND-ALONE PARSE ROUTINE                                                                                (2)

                                     0318   807 	.SBTTL	JUMP TO STAND-ALONE PARSE ROUTINE
                                 00000600   808 	.PSECT	$$$000,BYTE
                           00000430  0600   809 	.BLKB	^X430-<.-VECBASE>	;
                               0FFC  0430   810 	.WORD	^M<R2,R3,R4,R5,R6,R7,R8,R9,R10,R11>
                 00000002'9F     17  0432   811 	JMP	@#COR$PARSE+2		; JUMP TO STANDALONE PARSE
                                     0438   812
CMODSSDSP       - CHANGE MODE SYSTEM SERVICE DISPATCHER          22-AUG-1978 00:06:02   VAX-11 MACRO X0.3-11               Page  22
00.1            ILLEGAL CHME OR CHMK CODE VALUE HANDLING                                                                         (2)

                                     0438   814 	.SBTTL	ILLEGAL CHME OR CHMK CODE VALUE HANDLING
                                     0438   815 ;
                                     0438   816 ;
                                     0438   817 ;	END OF CHME DISPATCH TABLE
                                     0438   818 ;
                                     0438   819
                                 00000041   820 	.PSECT	Y$CMODE,QUAD
                                     0041   821
                                     0041   822 	.IF DF	RMS
                                     0041   823
                                     0041   824 	JSB	RMS$DISPATCH		;SEE IF RMS DOES THIS SERVICE
                                     0041   825
                                     0041   826 	.ENDC
                                     0041   827
                                     0041   828 					;  (R0 HAS CHME CODE)
                          50     B5  0041   829 	TSTW	R0			; CHECK FOR NEGATIVE CODE => USER
                          16     18  0043   830 	BGEQ	20$			; NO, ILLEGAL
            51   00000000'9F     D0  0045   831 	MOVL	@#CTL$GL_USRCHME,R1	; GET PER-PROCESS USER CHME VECTOR
                          02     13  004C   832 	BEQL	10$			; NOT PRESENT, TRY SYSTEM WIDE
                                     004E   833
                                     004E   834 ;
                                     004E   835 ;	CALL PER-PROCESS "USER" SUPPLIED PLUG-ON HANDLER FOR CHME
                                     004E   836 ;	WITH NEGATIVE CODES.
                                     004E   837 ;
                                     004E   838 ;	R0 - CODE FROM CHME/CHMK (LONGWORD)
                                     004E   839 ;	R1 - ADDRESS OF ROUTINE
                                     004E   840 ;	(SP) - RETURN ADDRESS IN CASE CODE IS NOT LEGAL.
                                     004E   841 ;	       IF AN RSB IS ISSUED, THEN THE SYSTEM-WIDE HANDLER WILL BE
                                     004E   842 ;	       GIVEN AN OPPORTUNITY BEFORE DECIDING THAT THE CODE IS REALLY ILLEGAL.
                                     004E   843 ;		(NORMAL RETURN IS A RET AFTER PERFORMING FUNCTION)
                                     004E   844 ;
                          61     16  004E   845 	JSB	(R1)			; CALL PER-PROCESS USR CHME HANDLER
                                     0050   846 					; RETURNS ONLY IF ILLEGAL CODE
            51   00000000'EF     D0  0050   847 10$:	MOVL	L^EXE$GL_USRCHME,R1	; ELSE TRY SYSTEM WIDE VECTOR
                          02     13  0057   848 	BEQL	20$			; NOT PRESENT, ILLEGAL
                          61     16  0059   849 	JSB	(R1)			; CALL SYSTEM WIDE USER CHME HANDLER
                                     005B   850 ;
                                     005B   851 ;	CALL PER-PROCESS "USER" SUPPLIED PLUG-ON HANDLER FOR CHME
                                     005B   852 ;	WITH NEGATIVE CODES.
                                     005B   853 ;
                                     005B   854 ;	R0 - CODE FROM CHME/CHMK (LONGWORD)
                                     005B   855 ;	R1 - ADDRESS OF ROUTINE
                                     005B   856 ;	(SP) - RETURN ADDRESS TO GIVE SS$_ILLSER ERROR
                                     005B   857 ;		(NORMAL RETURN IS A RET AFTER PERFORMING FUNCTION)
                                     005B   858 ;
                                     005B   859 					; RETURNS ONLY IF ILLEGAL CODE
                          00E4'  31  005B   860 20$:	BRW	ILLSER			;
                                     005E   861
                           00000006  005E   862 ECASMAX=ECASCTR-1
                                     005E   863
                                     005E   864 ;
                                     005E   865 ;	END OF CHMK DISPATCH TABLE
                                     005E   866 ;
                                     005E   867
                                 00000126   868 	.PSECT	Y$CMODK,QUAD
                                     0126   869 ;
                                     0126   870 ; UNIMPLEMENTED SERVICES, DEFINED TO PROVIDE CLEAN LINK.
CMODSSDSP       - CHANGE MODE SYSTEM SERVICE DISPATCHER          22-AUG-1978 00:06:02   VAX-11 MACRO X0.3-11               Page  23
00.1            ILLEGAL CHME OR CHMK CODE VALUE HANDLING                                                                         (2)

                                     0126   871 ; REMOVE NAME AND VERIFY GSYSSRV ENTRY WHEN SERVICE IS IMPLEMENTED.
                                     0126   872 ;
                                     0126   873
                                     0126   874 ILLCHMK:				; OUT OF RANGE CHMK CODE
                          50     B5  0126   875 	TSTW	R0			; CHECK FOR USER CODE RANGE
                          18     18  0128   876 	BGEQ	ILLSER			; NO, REALLY ILLEGAL
            51   00000000'9F     D0  012A   877 	MOVL	@#CTL$GL_USRCHMK,R1	; GET PER-PROCESS VECTOR
                          02     13  0131   878 	BEQL	10$			; NOT PRESENT, TRY FOR SYSTEM WIDE
                          61     16  0133   879 	JSB	(R1)			; CALL PER-PROCESS HANDLER
                                     0135   880 					; RETURNS ONLY IF CODE IN R0 IS NOT
                                     0135   881 					; HANDLED BY PER PROCESS HANDLER
            51   00000000'EF     D0  0135   882 10$:	MOVL	L^EXE$GL_USRCHMK,R1	; ELSE GET SYSTEM WIDE VECTOR
                          02     13  013C   883 	BEQL	20$			; NOT PRESENT, ILLEGAL SERVICE
                          61     16  013E   884 	JSB	(R1)			; CALL SYSTEM WIDE HANDLER
                                     0140   885 					; RETURN ONLY IF ILLEGAL CODE
                                     0140   886 20$:					;
                                     0140   887 EXE$ACCSND:				;
                                     0140   888 EXE$ALCDNP:				;
                                     0140   889 EXE$CLRPAR:				;
                                     0140   890 EXE$CPRCSC:				;
                                     0140   891 EXE$DLCDNP:				;
                                     0140   892 EXE$DPRCSC:				;
                                     0140   893 EXE$ERRSND:				;
                                     0140   894 EXE$LCKPAG:				;
                                     0140   895 EXE$MPRCSC:				;
                                     0140   896 EXE$SETPRA:				;
                                     0140   897 EXE$ULKPAG:				;
                                 01  0140   898 	NOP
                                 01  0141   899 	NOP
                                     0142   900
            50       0104 8F     3C  0142   901 ILLSER:	MOVZWL	#SS$_ILLSER,R0		;ILLEGAL SYSTEM SERVICE
                                 04  0147   902 	RET				;
                                     0148   903
                           0000004B  0148   904 KCASMAX=KCASCTR-2
                                     0148   905
                                     0148   906 	.ENDC
                                     0148   907
                                     0148   908 	.IFF
                                     0148   909 	.LIST
                                     0148   910 RCASMAX=RCASCTR-1
                                     0148   911 	.PSECT	$$$RMSVEC,BYTE
                                     0148   912 	RSB				;ILLEGAL EXEC MODE SERVICE
                                     0148   913 ;
                                     0148   914 ;  SERVICE TO MERELY MOVE RMS STATUS CODE IN R2 TO R0 AND RET,
                                     0148   915 ;  THUS GENERATING A SYSTEM SERVICE FAILURE EXCEPTION IF ENABLED
                                     0148   916 ;
                                     0148   917 RMS$SSVEXC=.-2
                                     0148   918 	MOVL	R2,R0		;MOVE STATUS CODE TO R0
                                     0148   919 	RET			;AND LET RET DO THE REST
                                     0148   920 	.ENDC
                                     0148   921 	.END
CMODSSDSP       - CHANGE MODE SYSTEM SERVICE DISPATCHER          22-AUG-1978 00:06:02   VAX-11 MACRO X0.3-11               Page  24
SYMBOL TABLE                                                                                                                     (2)

$BOOT_DEBUG      ********   X   07   EXE$ACCSND       00000140 R     05   EXE$SETEF        ********   X   05
$BOOT_NORM       ********   X   07   EXE$ADJSTK       ********   X   05   EXE$SETEXV       ********   X   05
$CON_DEBUG       ********   X   07   EXE$ALCDNP       00000140 R     05   EXE$SETIMR       ********   X   05
$CON_NORM        ********   X   07   EXE$ALLOC        ********   X   05   EXE$SETPRA       00000140 R     05
ACCSND         = 00000001            EXE$ASCEFC       ********   X   05   EXE$SETPRI       ********   X   05
ACCVIO           0000001A R     05   EXE$ASCTIM       ********   X   07   EXE$SETPRN       ********   X   05
ADJSTK         = 00000002            EXE$ASSIGN       ********   X   05   EXE$SETRWM       ********   X   05
ADJWSL         = 00000003            EXE$BINTIM       ********   X   07   EXE$SETSFM       ********   X   05
ALCDNP         = 00000004            EXE$CANCEL       ********   X   05   EXE$SSFAIL       ********   X   05
ALLOC          = 00000005            EXE$CANEXH       ********   X   05   EXE$SUSPND       ********   X   05
ASCEFC         = 00000006            EXE$CANTIM       ********   X   05   EXE$SYSBASE      00000000 RG    07
ASSIGN         = 00000007            EXE$CANWAK       ********   X   05   EXE$TRNLOG       ********   X   05
ASTEXIT          00000000 R     05   EXE$CLREF        ********   X   05   EXE$ULKPAG       00000140 R     05
BIT...         = 00000000            EXE$CLRPAR       00000140 R     05   EXE$UNWIND       ********   X   07
BRDCST         = 00000045            EXE$CMEXEC       ********   X   03   EXE$WAITFR       ********   X   05
BUG$_MTXCNTNONZ  ********   X   05   EXE$CMKRNL       ********   X   05   EXE$WAKE         ********   X   05
BUG$_SSRVEXCEPT  ********   X   05   EXE$CMODEXEC     00000008 RG    03   EXE$WFLAND       ********   X   05
B_EXECNARG       00000000 R     04   EXE$CMODKRNL     00000058 RG    05   EXE$WFLOR        ********   X   05
B_KRNLNARG     = FFFFFFFF R     06   EXE$CPRCSC       00000140 R     05   EXEDSP           0000002F R     03
CANCEL         = 00000008            EXE$CRELOG       ********   X   05   EXINSARG         00000003 R     03
CANEXH         = 00000049            EXE$CREMBX       ********   X   05   EXIT           = 00000023
CANTIM         = 00000009            EXE$C_CMSTKSZ  = 00000014  G         EXPREG         = 00000024
CANWAK         = 0000000A            EXE$DACEFC       ********   X   05   FORCEX         = 00000025
CLREF          = 0000000E            EXE$DALLOC       ********   X   05   GBL...         = 00000000
CLRPAR         = 0000000C            EXE$DASSGN       ********   X   05   GETCHN         = 0000004A
CMEXEC         = 00000000            EXE$DCLAST       ********   X   05   GETDEV         = 0000004B
CMKRNL         = 0000000D            EXE$DCLCMH       ********   X   05   GETERR         = 00000001
CNTREG         = 0000000F            EXE$DCLEXH       ********   X   05   GETJPI         = 0000004C
COR$PARSE        ********   X   07   EXE$DELLOG       ********   X   05   GETJPP         = 00000026
CPRCSC         = 00000010            EXE$DELMBX       ********   X   05   GETTIM         = 00000002
CRELOG         = 00000011            EXE$DLCDNP       00000140 R     05   GTCHAN         = 00000027
CREMBX         = 00000012            EXE$DLCEFC       ********   X   05   HIBER          = 00000028
CREPRC         = 00000013            EXE$DPRCSC       00000140 R     05   ILLCHMK          00000126 R     05
CRETVA         = 00000014            EXE$ERRSND       00000140 R     05   ILLSER           00000142 R     05
CRMPSC         = 0000000B            EXE$EXCPTN       0000002B RG    05   IMGACT         = 00000003
CTL$GL_USRCHME   ********   X   03   EXE$EXIT         ********   X   05   INSARG           00000021 R     05
CTL$GL_USRCHMK   ********   X   05   EXE$FAO          ********   X   07   KCASCTR        = 0000004D
DACEFC         = 00000015            EXE$FAOL         ********   X   07   KCASE            0000008E R     05
DALLOC         = 00000016            EXE$FORCEX       ********   X   05   KCASMAX        = 0000004B
DASSGN         = 00000017            EXE$GETCHN       ********   X   05   KERDSP           00000088 R     05
DCLAST         = 00000018            EXE$GETDEV       ********   X   05   LCKPAG         = 00000029
DCLCMH         = 00000046            EXE$GETJPI       ********   X   05   LKWSET         = 0000002A
DCLEXH         = 00000019            EXE$GETJPP       ********   X   05   MGBLSC         = 0000002B
DELLOG         = 0000001A            EXE$GETTIM       ********   X   03   MPRCSC         = 0000002C
DELMBX         = 0000001B            EXE$GL_USRCHME   ********   X   03   NUMTIM         = 00000004
DELPRC         = 0000001C            EXE$GL_USRCHMK   ********   X   05   PCB$B_ASTACT     0000000C
DELTVA         = 0000001D            EXE$GTCHAN       ********   X   05   PCB$B_ASTEN      0000000D
DERLMB         = 00000048            EXE$HIBER        ********   X   05   PCB$B_PRI        0000000B
DGBLSC         = 0000001E            EXE$LCKPAG       00000140 R     05   PCB$B_PRIB       00000033
DLCDNP         = 0000001F            EXE$MPRCSC       00000140 R     05   PCB$B_TYPE       0000000A
DLCEFC         = 00000020            EXE$NUMTIM       ********   X   03   PCB$B_WEFC       00000032
DPRCSC         = 00000021            EXE$QIO          ********   X   05   PCB$C_LENGTH     0000007C
ECASCTR        = 00000007            EXE$READEF       ********   X   05   PCB$K_LENGTH     0000007C
ECASE            00000033 R     03   EXE$RESUME       ********   X   05   PCB$L_ASTQBL     00000014
ECASMAX        = 00000006            EXE$RUNDWN       ********   X   05   PCB$L_ASTQFL     00000010
ERRSND         = 00000022            EXE$SCHDWK       ********   X   05   PCB$L_EFC2P      00000058
EXACCVIO         00000000 R     03   EXE$SETAST       ********   X   05   PCB$L_EFC3P      0000005C
CMODSSDSP       - CHANGE MODE SYSTEM SERVICE DISPATCHER          22-AUG-1978 00:06:02   VAX-11 MACRO X0.3-11               Page  25
SYMBOL TABLE                                                                                                                     (2)

PCB$L_EFCS       00000050            PHD$B_PAGFIL     0000001F            PHD$W_FLAGS      0000003A
PCB$L_EFCU       00000054            PHD$C_LENGTH     000000D8            PHD$W_PFMFLG     0000003A
PCB$L_EFWM       0000004C            PHD$K_LENGTH     000000D8            PHD$W_PHVINDEX   00000046
PCB$L_OWNER      0000001C            PHD$L_BIOCNT     00000054            PHD$W_PRCLM      00000042
PCB$L_PHD        00000064            PHD$L_CPULIM     00000058            PHD$W_PST        00000020
PCB$L_PHYPCB     00000018            PHD$L_CPUTIM     0000003C            PHD$W_PSTFREE    00000026
PCB$L_PID        00000060            PHD$L_DIOCNT     00000050            PHD$W_PSTLAST    00000024
PCB$L_PQB        0000004C            PHD$L_ESP        0000007C            PHD$W_PTCNTACT   00000070
PCB$L_SQBL       00000004            PHD$L_FREP0VA    00000028            PHD$W_PTCNTLCK   0000006C
PCB$L_SQFL       00000000            PHD$L_FREP1VA    00000030            PHD$W_PTCNTMAX   00000072
PCB$L_STS        00000028            PHD$L_FREPTECNT  0000002C            PHD$W_PTCNTVAL   0000006E
PCB$L_UIC        00000020            PHD$L_KSP        00000078            PHD$W_QUANT      00000040
PCB$L_WSSWP      00000024            PHD$L_P0BR       000000C8            PHD$W_TQLM       00000062
PCB$L_WTIME      0000002C            PHD$L_P0LRASTL   000000CC            PHD$W_WSAUTH     0000000A
PCB$T_LNAME      0000006C            PHD$L_P1BR       000000D0            PHD$W_WSDYN      0000000E
PCB$V_ASTPEN   = 00000011            PHD$L_P1LR       000000D4            PHD$W_WSFLUID    00000074
PCB$V_BATCH    = 0000000E            PHD$L_PAGEFLTS   0000004C            PHD$W_WSLAST     00000012
PCB$V_DELPEN   = 00000001            PHD$L_PAGFIL     0000001C            PHD$W_WSLIST     00000008
PCB$V_FORCPEN  = 00000002            PHD$L_PC         000000C0            PHD$W_WSLOCK     0000000C
PCB$V_HIBER    = 00000013            PHD$L_PCB        00000078            PHD$W_WSLX       0000004A
PCB$V_INQUAN   = 00000003            PHD$L_PGFLCNT    00000034            PHD$W_WSNEXT     00000010
PCB$V_LOGIN    = 00000014            PHD$L_PGFLQUOTA  0000005C            PHD$W_WSQUOTA    00000018
PCB$V_NOACNT   = 0000000F            PHD$L_PSL        000000C4            PR$_ACCR       = 00000029
PCB$V_PHDRES   = 00000012            PHD$L_PSTBASOFF  00000020            PR$_ACCS       = 00000028
PCB$V_PSWAPM   = 00000004            PHD$L_PTWSLELCK  00000064            PR$_ASTLVL     = 00000013
PCB$V_RES      = 00000000            PHD$L_PTWSLEVAL  00000068            PR$_ESP        = 00000001
PCB$V_RESPEN   = 00000005            PHD$L_R0         00000088            PR$_ICCS       = 00000018
PCB$V_SSFEXC   = 00000006            PHD$L_R1         0000008C            PR$_ICR        = 0000001A
PCB$V_SSFEXCE  = 00000007            PHD$L_R10        000000B0            PR$_IPL        = 00000012
PCB$V_SSFEXCS  = 00000008            PHD$L_R11        000000B4            PR$_ISP        = 00000004
PCB$V_SSFEXCU  = 00000009            PHD$L_R12        000000B8            PR$_KSP        = 00000000
PCB$V_SSRWAIT  = 0000000A            PHD$L_R13        000000BC            PR$_MAPEN      = 00000038
PCB$V_SUSPEN   = 0000000B            PHD$L_R2         00000090            PR$_NICR       = 00000019
PCB$V_SWPVBN   = 00000010            PHD$L_R3         00000094            PR$_P0BR       = 00000008
PCB$V_WAKEPEN  = 0000000C            PHD$L_R4         00000098            PR$_P0LR       = 00000009
PCB$V_WALL     = 0000000D            PHD$L_R5         0000009C            PR$_P1BR       = 0000000A
PCB$W_APTCNT     00000034            PHD$L_R6         000000A0            PR$_P1LR       = 0000000B
PCB$W_ASTCNT     0000003C            PHD$L_R7         000000A4            PR$_PCBB       = 00000010
PCB$W_BIOCNT     0000003E            PHD$L_R8         000000A8            PR$_RXCS       = 00000020
PCB$W_BIOLM      00000040            PHD$L_R9         000000AC            PR$_RXDB       = 00000021
PCB$W_BYTCNT     00000042            PHD$L_SSP        00000080            PR$_SBIER      = 00000034
PCB$W_BYTLM      00000068            PHD$L_USP        00000084            PR$_SBIFS      = 00000030
PCB$W_DIOCNT     00000044            PHD$L_WSL        000000D8            PR$_SBIMT      = 00000033
PCB$W_DIOLM      00000046            PHD$M_DALCSTX  = 00000002            PR$_SBIQC      = 00000036
PCB$W_FILCNT     00000048            PHD$M_PFMFLG   = 00000001            PR$_SBIS       = 00000031
PCB$W_GPGCNT     00000038            PHD$Q_PRIVMSK    00000000            PR$_SBISC      = 00000032
PCB$W_GRP        00000022            PHD$S_ASTLVL   = 00000008            PR$_SBITA      = 00000035
PCB$W_MEM        00000020            PHD$S_P0LR     = 00000018            PR$_SBR        = 0000000C
PCB$W_MTXCNT     0000000E            PHD$V_ASTLVL   = 00000018            PR$_SCBB       = 00000011
PCB$W_PPGCNT     0000003A            PHD$V_DALCSTX  = 00000001            PR$_SID        = 0000003E
PCB$W_PRCCNT     0000006A            PHD$V_P0LR     = 00000000            PR$_SIRR       = 00000014
PCB$W_SIZE       00000008            PHD$V_PFMFLG   = 00000000            PR$_SISR       = 00000015
PCB$W_STATE      00000030            PHD$W_ASTLM      00000044            PR$_SLR        = 0000000D
PCB$W_TMBU       00000036            PHD$W_BAK        00000048            PR$_SSP        = 00000002
PCB$W_TQCNT      0000004A            PHD$W_DFWSCNT    0000001A            PR$_TBIA       = 00000039
PHD$B_ASTLVL     000000CF            PHD$W_EXTDYNWS   00000076            PR$_TBIS       = 0000003A
PHD$B_DFPFC      00000038            PHD$W_FILLM      00000060            PR$_TODR       = 0000001B
CMODSSDSP       - CHANGE MODE SYSTEM SERVICE DISPATCHER          22-AUG-1978 00:06:02   VAX-11 MACRO X0.3-11               Page  26
SYMBOL TABLE                                                                                                                     (2)

PR$_TXCS       = 00000022            SGN$C_GBLSECCNT= 00000028            SS$_DEVALRALLOC= 00000641
PR$_TXDB       = 00000023            SGN$C_MAXGPGCNT= 00000800            SS$_DEVASSIGN  = 00000848
PR$_USP        = 00000003            SGN$C_MAXPAGCNT= 00004000            SS$_DEVFOREIGN = 00000064
PR$_WCSA       = 0000002C            SGN$C_MAXPGFL  = 00001000            SS$_DEVICEFULL = 00000850
PR$_WCSD       = 0000002D            SGN$C_MAXPSTCNT= 00000005            SS$_DEVMOUNT   = 0000006C
PSL$C_EXEC     = 00000001            SGN$C_MAXVPGCNT= 00002000            SS$_DEVNOTALLOC= 00000858
PSL$C_KERNEL   = 00000000            SGN$C_MAXWSCNT = 00000400            SS$_DEVNOTMBX  = 00000074
PSL$C_SUPER    = 00000002            SGN$C_MINWSCNT = 0000000A            SS$_DEVNOTMOUNT= 0000007C
PSL$C_USER     = 00000003            SGN$C_NPAGEDYN = 00006800            SS$_DEVOFFLINE = 00000084
PSL$M_CM       = 80000000            SGN$C_NPROCS   = 00000040            SS$_DIRFULL    = 00000860
PSL$M_CURMOD   = 03000000            SGN$C_PAGEDYN  = 00004000            SS$_DRVERR     = 0000008C
PSL$M_DV       = 00000080            SGN$C_PHYPAGCNT= 00001000            SS$_DUPFILENAME= 00000868
PSL$M_FPD      = 08000000            SGN$C_SFTMAX   = 00000003            SS$_DUPLNAM    = 00000094
PSL$M_FU       = 00000040            SGN$C_SYSDWSCNT= 00000028            SS$_ENDOFFILE  = 00000870
PSL$M_IPL      = 001F0000            SGN$C_SYSVECPGS= 00000003            SS$_ENDOFTAPE  = 00000878
PSL$M_IS       = 04000000            SGN$C_SYSWSCNT = 00000060            SS$_ENDOFUSRLBL= 00000970
PSL$M_IV       = 00000020            SNDOPR         = 00000005            SS$_EXQUOTA    = 0000001C
PSL$M_PRVMOD   = 00C00000            SNDSMB         = 00000006            SS$_EXTIDXFILE = 00000880
PSL$M_SAFBITS  = 000037FF            SRVEXIT          00000027 R     05   SS$_FCPREADERR = 00000888
PSL$M_TBIT     = 00000010            SRVREI           0000002A R     05   SS$_FCPREPSTN  = 00000988
PSL$M_TP       = 40000000            SS$_ABORT      = 0000002C            SS$_FCPREWNDERR= 00000890
PSL$S_CURMOD   = 00000002            SS$_ACCONFLICT = 00000800            SS$_FCPSPACERR = 00000898
PSL$S_IPL      = 00000005            SS$_ACCVIO     = 0000000C            SS$_FCPWRITERR = 000008A0
PSL$S_PRVMOD   = 00000002            SS$_ARITH      = 00000404            SS$_FILACCERR  = 0000009C
PSL$V_CM       = 0000001F            SS$_ASTFLT     = 0000040C            SS$_FILALRACC  = 000000A4
PSL$V_CURMOD   = 00000018            SS$_BADATTRIB  = 00000034            SS$_FILELOCKED = 000008A8
PSL$V_DV       = 00000007            SS$_BADCHKSUM  = 00000808            SS$_FILENUMCHK = 000008B0
PSL$V_FPD      = 0000001B            SS$_BADESCAPE  = 0000003C            SS$_FILESEQCHK = 000008B8
PSL$V_FU       = 00000006            SS$_BADFILEHDR = 00000810            SS$_FILESTRUCT = 000008C0
PSL$V_IPL      = 00000010            SS$_BADFILENAME= 00000818            SS$_FILNOTACC  = 000000AC
PSL$V_IS       = 0000001A            SS$_BADFILEVER = 00000820            SS$_FILNOTCNTG = 000002AC
PSL$V_IV       = 00000005            SS$_BADIMGHDR  = 00000044            SS$_FILNOTEXP  = 000000B4
PSL$V_PRVMOD   = 00000016            SS$_BADIRECTORY= 00000828            SS$_FORMAT     = 000000BC
PSL$V_TBIT     = 00000004            SS$_BADPARAM   = 00000014            SS$_GPTFULL    = 000000C4
PSL$V_TP       = 0000001E            SS$_BADSTACK   = 000002B4            SS$_GSDFULL    = 000000CC
QIO            = 0000002D            SS$_BEGOFFILE  = 00000938            SS$_GSDNOTXXX  = 000000D4
READEF         = 0000002E            SS$_BLOCKCNTERR= 00000940            SS$_HANGUP     = 000002CC
RESUME         = 0000002F            SS$_BREAK      = 00000414            SS$_HEADERFULL = 000008C8
RUNDWN         = 00000030            SS$_BUFFEROVF  = 00000601            SS$_IDXFILEFULL= 000008D0
SCH$GL_CURPCB    ********   X   05   SS$_BUGCHECK   = 000002A4            SS$_ILLBLKNUM  = 000000DC
SCH$NEWLVL       ********   X   05   SS$_CANCEL     = 00000830            SS$_ILLCNTRFUNC= 000000E4
SCHDWK         = 00000031            SS$_CHANINTLK  = 0000004C            SS$_ILLEFC     = 000000EC
SETAST         = 00000032            SS$_CLIFRCEXT  = 00000980            SS$_ILLIOFUNC  = 000000F4
SETEF          = 00000033            SS$_CMODSUPR   = 0000041C            SS$_ILLLBLAST  = 00000968
SETEXV         = 00000034            SS$_CMODUSER   = 00000424            SS$_ILLPAGCNT  = 000000FC
SETIMR         = 00000037            SS$_COMPAT     = 0000042C            SS$_ILLSEQOP   = 000002DC
SETPFM         = 00000047            SS$_CONTINUE   = 00000001            SS$_ILLSER     = 00000104
SETPRA         = 00000036            SS$_CONTROLC   = 00000651            SS$_ILLUSRLBLRD= 00000958
SETPRI         = 00000038            SS$_CONTROLO   = 00000609            SS$_ILLUSRLBLWT= 00000960
SETPRN         = 00000035            SS$_CONTROLY   = 00000611            SS$_INCVOLLABEL= 0000010C
SETPRT         = 00000039            SS$_CREATED    = 00000619            SS$_INSFARG    = 00000114
SETRWM         = 0000003A            SS$_CTRLERR    = 00000054            SS$_INSFMEM    = 00000124
SETSFM         = 0000003B            SS$_DATACHECK  = 0000005C            SS$_INSFRAME   = 0000012C
SETSWM         = 0000003C            SS$_DATAOVERUN = 00000838            SS$_INSFWSL    = 0000011C
SGN$C_BALSETCNT= 00000018            SS$_DEBUG      = 0000046C            SS$_IVADDR     = 00000134
SGN$C_DFWSCNT  = 00000064            SS$_DEVACTIVE  = 000002C4            SS$_IVCHAN     = 0000013C
SGN$C_DFWSQUOTA= 00000078            SS$_DEVALLOC   = 00000840            SS$_IVCHNLSEC  = 0000026C
CMODSSDSP       - CHANGE MODE SYSTEM SERVICE DISPATCHER          22-AUG-1978 00:06:02   VAX-11 MACRO X0.3-11               Page  27
SYMBOL TABLE                                                                                                                     (2)

SS$_IVDEVNAM   = 00000144            SS$_RESIGNAL   = 00000918
SS$_IVGSDNAM   = 0000014C            SS$_RESULTOVF  = 00000214
SS$_IVLOGNAM   = 00000154            SS$_ROPRAND    = 00000454
SS$_IVLOGTAB   = 0000015C            SS$_SECTBLFUL  = 0000021C
SS$_IVPROTECT  = 000002F4            SS$_SSFAIL     = 0000045C
SS$_IVQUOTAL   = 00000164            SS$_SUPERSEDE  = 00000631
SS$_IVSECFLG   = 0000016C            SS$_TAPEPOSLOST= 00000224
SS$_IVSECIDCTL = 000002E4            SS$_TBIT       = 00000464
SS$_IVSSRQ     = 00000174            SS$_TIMEOUT    = 0000022C
SS$_IVSTSFLG   = 0000017C            SS$_TOOMANYVER = 00000990
SS$_IVTIME     = 00000184            SS$_TOOMUCHDATA= 0000029C
SS$_LENVIO     = 0000018C            SS$_UNASEFC    = 00000234
SS$_LKWSETFUL  = 00000194            SS$_UNSAFE     = 0000023C
SS$_MBFULL     = 000008D8            SS$_UNWIND     = 00000920
SS$_MBTOOSML   = 0000019C            SS$_UNWINDING  = 00000928
SS$_MCHECK     = 000002BC            SS$_VASFULL    = 00000244
SS$_MEDOFL     = 000001A4            SS$_VECINUSE   = 0000024C
SS$_MSGNOTFND  = 00000621            SS$_VOLINV     = 00000254
SS$_MUSTCLOSEFL= 00000948            SS$_WAITUSRLBL = 00000950
SS$_NODATA     = 000001AC            SS$_WASCLR     = 00000001
SS$_NOHANDLER  = 000008F8            SS$_WASECC     = 00000639
SS$_NOHOMEBLK  = 000008E0            SS$_WASSET     = 00000009
SS$_NOIOCHAN   = 000001B4            SS$_WRITLCK    = 0000025C
SS$_NOLINKS    = 0000027C            SSFAIL           00000031 R     05
SS$_NOLOGNAM   = 000001BC            SUSPND         = 0000003D
SS$_NOMBX      = 00000274            TRNLOG         = 0000003E
SS$_NOMOREFILES= 00000930            ULKPAG         = 0000003F
SS$_NONEXDRV   = 000001C4            ULWSET         = 00000040
SS$_NONEXPR    = 000008E8            VECBASE          00000000 R     07
SS$_NONLOCAL   = 000008F0            WAITFR         = 00000041
SS$_NOPRIV     = 00000024            WAKE           = 00000042
SS$_NORMAL     = 00000001            WFLAND         = 00000043
SS$_NOSIGNAL   = 00000900            WFLOR          = 00000044
SS$_NOSOLICIT  = 00000284
SS$_NOSUCHDEV  = 00000908
SS$_NOSUCHFILE = 00000910
SS$_NOSUCHNODE = 0000028C
SS$_NOSUCHSEC  = 00000978
SS$_NOTAPEOP   = 00000264
SS$_NOTFILEDEV = 000001CC
SS$_NOTINTBLSZ = 000001D4
SS$_NOTLABELMT = 000001DC
SS$_NOTNETDEV  = 000002EC
SS$_NOTRAN     = 00000629
SS$_NOTSQDEV   = 000001E4
SS$_OPCCUS     = 00000434
SS$_OPCDEC     = 0000043C
SS$_OPINCOMPL  = 000002D4
SS$_PAGOWNVIO  = 000001EC
SS$_PAGRDERR   = 00000444
SS$_PARITY     = 000001F4
SS$_PARTESCAPE = 000001FC
SS$_PFMBSY     = 00000204
SS$_PSTFULL    = 0000020C
SS$_RADRMOD    = 0000044C
SS$_REJECT     = 00000294
SS$_REMOTE     = 00000649
CMODSSDSP       - CHANGE MODE SYSTEM SERVICE DISPATCHER          22-AUG-1978 00:06:02   VAX-11 MACRO X0.3-11               Page  28
PROGRAM SECTION SYNOPSIS                                                                                                         (2)


PROGRAM SECTION SYNOPSIS

.  ABS  .        00000000      00     NOPIC   USR   CON   ABS   LCL NOSHR NOEXE NORD  NOWRT BYTE
. BLANK .        00000000      01     NOPIC   USR   CON   REL   LCL NOSHR   EXE   RD    WRT BYTE
$ABS$            000000DC      02     NOPIC   USR   CON   ABS   LCL NOSHR   EXE   RD    WRT BYTE
Y$CMODE          0000005E      03     NOPIC   USR   CON   REL   LCL NOSHR   EXE   RD    WRT QUAD
Y$CMODEN         00000007      04     NOPIC   USR   CON   REL   LCL NOSHR   EXE   RD    WRT BYTE
Y$CMODK          00000148      05     NOPIC   USR   CON   REL   LCL NOSHR   EXE   RD    WRT QUAD
Y$CMODKN         0000004C      06     NOPIC   USR   CON   REL   LCL NOSHR   EXE   RD    WRT BYTE
$$$000           00000600      07     NOPIC   USR   CON   REL   LCL NOSHR   EXE   RD    WRT QUAD


THERE WERE NO ERRORS OR WARNINGS.
12230. BYTES LEFT IN FREE MEMORY POOL.
24. BYTES OF RECLAIMED MEMORY.
OBJ$:CMODSSDSP,LIS$:CMODSSDSP/-SP=LIB$:LIB/ML,SRC$:CMODSSDSP
6 MLB DIR RDS - 697 GETS TO DEFINE 17 MACROS. 74 INTER. FILE WRITES.
