CONINTDSP       -  CONSOLE INTERRUPT DISPATCHER                  21-AUG-1978 23:49:40   VAX-11 MACRO X0.3-11               Page   0
TABLE OF CONTENTS

   (2)      51  CONSOLE INTERFACE INITIALIZATION
   (3)      86  RECIEVER INTERRUPT DISPATCHER
   (4)     151  START I/O ON CONSOLE INTERFACE
   (5)     199  CONSOLE TRANSMITTER INTERRUPT SERVICE
CONINTDSP       -  CONSOLE INTERRUPT DISPATCHER                  21-AUG-1978 23:49:40   VAX-11 MACRO X0.3-11               Page   1
X05                                                                                                                              (1)

                                     0000     1 	.TITLE	CONINTDSP -  CONSOLE INTERRUPT DISPATCHER
                                     0000     2 	.IDENT	/X05/
                                     0000     3 ;
                                     0000     4 ; COPYRIGHT (C) 1977
                                     0000     5 ; DIGITAL EQUIPMENT CORPORATION, MAYNARD, MASS.
                                     0000     6 ;
                                     0000     7 ; THIS SOFTWARE IS FURNISHED UNDER  A LICENSE FOR USE ONLY  ON  A
                                     0000     8 ; SINGLE COMPUTER SYSTEM AND MAY BE  COPIED ONLY WITH  THE INCLU-
                                     0000     9 ; SION OF  THE  ABOVE  COPYRIGHT NOTICE.  THIS SOFTWARE,  OR  ANY
                                     0000    10 ; OTHER COPIES THEREOF, MAY NOT BE  PROVIDED  OR  OTHERWISE  MADE
                                     0000    11 ; AVAILABLE TO ANY OTHER PERSON EXCEPT  FOR  USE  ON  SUCH SYSTEM
                                     0000    12 ; AND TO  ONE WHO AGREES  TO  THESE LICENSE  TERMS.  TITLE TO AND
                                     0000    13 ; OWNERSHIP OF THE SOFTWARE SHALL AT ALL TIMES REMAIN IN DEC.
                                     0000    14 ;
                                     0000    15 ; THE INFORMATION IN THIS SOFTWARE  IS  SUBJECT TO CHANGE WITHOUT
                                     0000    16 ; NOTICE AND SHOULD NOT BE CONSTRUED  AS  A COMMITMENT BY DIGITAL
                                     0000    17 ; EQUIPMENT CORPORATION.
                                     0000    18 ;
                                     0000    19 ; DEC ASSUMES NO RESPONSIBILITY FOR THE USE OR RELIABILITY OF ITS
                                     0000    20 ; SOFTWARE ON EQUIPMENT WHICH IS NOT SUPPLIED BY DEC.
                                     0000    21 ;++
                                     0000    22 ; CONSOLE INTERRUPT DISPATCHER AND DEVICE DEPENDENT SUBROUTINES
                                     0000    23 ;--
                                     0000    24 ;
                                     0000    25 ; VERSION X01 ( BASE LEVEL 1 )
                                     0000    26 ; VERSION X05 ( BASE LEVEL 4 )
                                     0000    27 ;
                                     0000    28 ; AUTHOR: R.HEINEN 14-SEPT-76
                                     0000    29 ;
                                     0000    30 ; EXTERNAL DEFINITIONS
                                     0000    31 ;
                                     0000    32 	$DEVDEF				; DEFINE DEVICE CHARACTERISTICS
                                     0000    33 	$IDBDEF				; DEFINE IDB
                                     0000    34 	$PRDEF				; DEFINE PROCESSOR REGISTERS
                                     0000    35 	$UCBDEF				; DEFINE UCB
                                     0000    36
                                     0000    37
                                 00000000    38 	.PSECT	$$$250,LONG,WRT
                                     0000    39 ;
                                     0000    40 ; LOCAL STORAGE
                                     0000    41 ;
                                     0000    42 ; OUTPUT INTERRUPT QUEUE
                                     0000    43 ;
                                     0000    44
                                 FF  0000    45 CURR:	.BYTE	-1			;CURRENT UNIT EXPECTING OUTPUT DONE
                                 FF  0001    46 NEXT:	.BYTE	-1			;NEXT UNIT TO OUTPUT
                           00000004  0002    47 DATA:	.BLKW	1			;NEXT DATA TO OUTPUT
                                     0004    48
                                 00000000    49 	.PSECT	WIONONPAGED
CONINTDSP       -  CONSOLE INTERRUPT DISPATCHER                  21-AUG-1978 23:49:40   VAX-11 MACRO X0.3-11               Page   2
X05             CONSOLE INTERFACE INITIALIZATION                                                                                 (2)

                                     0000    51 	.SBTTL	CONSOLE INTERFACE INITIALIZATION
                                     0000    52 ;++
                                     0000    53 ; CON$INITIAL -- INITIALIZE CONSOLE INTERFACE
                                     0000    54 ;
                                     0000    55 ; FUNCTIONAL DESCRIPTION:
                                     0000    56 ;
                                     0000    57 ; THIS ROUTINE IS CALLED DURING SYSTEM STARTUP TO INITIALIZE THE
                                     0000    58 ; CONTROLLER ASSOCIATED WITH A PARTICULAR CRB.
                                     0000    59 ;
                                     0000    60 ; IN THE CASE OF THE CONSOLE, RECEIVER AND TRANSMITTER INTERRUPTS
                                     0000    61 ; ARE ENABLED.
                                     0000    62 ;
                                     0000    63 ; INPUTS:
                                     0000    64 ;
                                     0000    65 ;	R4 = CSR FROM ASSOCIATED IDB
                                     0000    66 ;	R5 = IDB ADDRESS
                                     0000    67 ;	R9 = CRB ADDRESS
                                     0000    68 ;
                                     0000    69 ;	IPL = IPL$V_POWER
                                     0000    70 ;
                                     0000    71 ; THE CSR HAS NOT BEEN ADDRESSED AND MAY CAUSE A FAULT IF THE DEVICE
                                     0000    72 ; IS NOT PRESENT.
                                     0000    73 ;
                                     0000    74 ; OUTPUTS:
                                     0000    75 ;
                                     0000    76 ;	ALL REGISTERS ARE PRESERVED.
                                     0000    77 ;--
                                     0000    78 CON$INITIAL::				; INITIALIZE CONSOLE INTERFACE
            20   00000040 8F     DA  0000    79 	MTPR	#^X040,#PR$_RXCS	; ENABLE INPUT INTERRUPTS
            22   00000040 8F     DA  0007    80 	MTPR	#^X040,#PR$_TXCS	; ENABLE OUTPUT INTERRUPTS
   00000000'EF            01     AE  000E    81 	MNEGW	#1,CURR			; SET NO UNITS WAITING FOR OUTPUT
                                     0015    82 CON$INITLINE::
                                     0015    83 CON$DISCON::
                                 05  0015    84 	RSB				;
CONINTDSP       -  CONSOLE INTERRUPT DISPATCHER                  21-AUG-1978 23:49:40   VAX-11 MACRO X0.3-11               Page   3
X05             RECIEVER INTERRUPT DISPATCHER                                                                                    (3)

                                     0016    86 	.SBTTL RECIEVER INTERRUPT DISPATCHER
                                     0016    87 ;++
                                     0016    88 ; CON$INTINP -- CONSOLE INTERRUPT ON INPUT READY
                                     0016    89 ;
                                     0016    90 ; FUNCTIONAL DESCRIPTION:
                                     0016    91 ;
                                     0016    92 ; THIS ROUTINE IS ENTERED AS A RESULT OF A RECEIVER INTERRUPT ON THE
                                     0016    93 ; CONSOLE INTERFACE. THE INTERRUPT CAN BE GENERATED BY THE CONSOLE
                                     0016    94 ; TERMINAL OR FLOPPY DRIVE.
                                     0016    95 ;
                                     0016    96 ; CONSOLE TERMINAL:	ALL RECEIVED DATA CHARACTERS ARE CONSIDERED
                                     0016    97 ;			UNSOLICITED AND RESULT IN AN ENTRY INTO THE
                                     0016    98 ;			TERMINAL DRIVER COMMON CHARACTER BUFFERING
                                     0016    99 ;			ROUTINE "TTY$PUTNEXTCHAR".
                                     0016   100 ;
                                     0016   101 ; CONSOLE FLOPPY:	RECEIVER INTERRUPTS FROM THE CONSOLE FLOPPY
                                     0016   102 ;			MUST BE EXPECTED (UCB$V_INT = 1). IF THE
                                     0016   103 ;			INTERRUPT IS EXPECTED THEN UCB$V_INTTYPE IS SET
                                     0016   104 ;			IN UCB$W_STS TO SIGNAL A RECEIVER INTERRUPT.
                                     0016   105 ;			THE DRIVER IS THEN ENTERED AT ITS WAIT FOR INTERRUPT
                                     0016   106 ;			CONTEXT PC.
                                     0016   107 ;
                                     0016   108 ; INPUTS:
                                     0016   109 ;
                                     0016   110 ;	R2,R3,R4,R5 ARE SAVED ON THE INTERRUPT STACK.
                                     0016   111 ;
                                     0016   112 ;	00(SP) = ADDRESS OF THE IDB
                                     0016   113 ;
                                     0016   114 ; OUTPUTS:
                                     0016   115 ;
                                     0016   116 ;	THE SAVED REGISTERS ARE RESTORED BEFORE REI.
                                     0016   117 ;
                                     0016   118 ; IMPLICIT OUTPUTS:
                                     0016   119 ;
                                     0016   120 ; ON ENTRY INTO THE DRIVER,
                                     0016   121 ;
                                     0016   122 ;	R3 = DATA FROM PR$_RXDB
                                     0016   123 ;	R4 = UCB$L_FR4
                                     0016   124 ;	R5 = UCB ADDRESS
                                     0016   125 ;--
                                     0016   126 CON$INTINP::
            53            21     DB  0016   127 	MFPR	#PR$_RXDB,R3		; MOVE DATA FROM INTERFACE
                                     0019   128 ;
                                     0019   129 ; GET THE ASSOCIATED UCB
                                     0019   130 ;
            54            9E     D0  0019   131 	MOVL	@(SP)+,R4		; GET IDB ADDRESS
            02            08     EF  001C   132 	EXTZV	#8,#2,R3,R2		; EXTRACT THE UNIT NUMBER
            52            53         001F
         0B A4            52     91  0021   133 	CMPB	R2,IDB$B_UNITS(R4)	; LEGAL UNIT NUMBER?
                          03     1B  0025   134 	BLEQU	5$			; IF LEQU YES
                          0099   31  0027   135 	BRW	DISMIS			; DISMISS SPURIOUS INTERRUPT
                                     002A   136 5$:					;
            55         10 A442   D0  002A   137 	MOVL	IDB$L_UCBLST(R4)[R2],R5	; GET THE UCB ADDRESS
         58 A5            07     E2  002F   138 	BBSS	#UCB$V_INTTYPE,UCB$W_STS(R5),10$ ; SET RECEIVER INTERRUPT
                          00         0033
                                     0034   139 10$:					;
                                 E1  0034   140 	BBC	#DEV$V_TRM,-		; ENTER FLOPPY INTERRUPT CODE
CONINTDSP       -  CONSOLE INTERRUPT DISPATCHER                  21-AUG-1978 23:49:40   VAX-11 MACRO X0.3-11               Page   4
X05             RECIEVER INTERRUPT DISPATCHER                                                                                    (3)

         34 A5            02         0035   141 		UCB$L_DEVCHAR(R5),FLOPINT; IF NOT TERMINAL UCB
                          6C         0038
                                     0039   142 ;
                                     0039   143 ; CONSOLE TERMINAL INTERRUPT
                                     0039   144 ;
                     00C3'CF     9F  0039   145 	PUSHAB	W^DISMIS		; PUSH "NO OUTPUT TO DO" RETURN ADDRESS
                                     003D   146 ;
                                     003D   147 ; GOTO CHARACTER BUFFER ROUTINE AS CO-ROUTINE
                                     003D   148 ;
                          FFC0'  30  003D   149 	BSBW	TTY$PUTNEXTCHAR		; BUFFER THE CHARACTER
CONINTDSP       -  CONSOLE INTERRUPT DISPATCHER                  21-AUG-1978 23:49:40   VAX-11 MACRO X0.3-11               Page   5
X05             START I/O ON CONSOLE INTERFACE                                                                                   (4)

                                     0040   151 	.SBTTL	START I/O ON CONSOLE INTERFACE
                                     0040   152 ;++
                                     0040   153 ; CON$STARTIO -- START I/O ON CONSOLE INTERFACE
                                     0040   154 ;
                                     0040   155 ; FUNCTIONAL DESCRIPTION:
                                     0040   156 ;
                                     0040   157 ; THIS ROUTINE IS ENTERED TO OUTPUT A CHARACTER TO THE CONSOLE INTERFACE.
                                     0040   158 ; IF THE INTERFACE IS READY THE DATA IS OUTPUT DIRECTLY. IF THE INTERFACE
                                     0040   159 ; IS NOT READY THEN THE DATA IS QUEUED AND SUBSEQUENTLY OUTPUT ON THE
                                     0040   160 ; NEXT READY INTERRUPT.
                                     0040   161 ;
                                     0040   162 ; IN EITHER CASE, A RETURN TO THE CALLER IS DONE TO ENTER A "WAIT FOR
                                     0040   163 ; INTERRUPT" STATE.
                                     0040   164 ;
                                     0040   165 ; INPUTS:
                                     0040   166 ;
                                     0040   167 ;	R3 = DATA TO OUTPUT
                                     0040   168 ;	R5 = UCB ADDRESS
                                     0040   169 ;
                                     0040   170 ; OUTPUTS:
                                     0040   171 ;
                                     0040   172 ;	R3,R4,R5 ARE PRESERVED.
                                     0040   173 ;--
                                     0040   174
                                     0040   175 CON$STARTIO::				;
                                     0040   176
                                     0040   177 ;
                                     0040   178 ; INSERT UNIT NUMBER IN DATA WORD
                                     0040   179 ;
                                     0040   180
            52         48 A5     9A  0040   181 	MOVZBL	UCB$W_UNIT(R5),R2	; PICK UP UNIT NUMBER
            08            52     F0  0044   182 	INSV	R2,#8,#2,R3		; INSERT UNIT NUMBER AND CLEAR OTHER BITS
            53            02         0047
                                     0049   183
                                     0049   184 ;
                                     0049   185 ; INITIATE I/O IF NO PREVIOUS UNIT WAITING
                                     0049   186 ;
                 00000000'EF     95  0049   187 	TSTB	CURR			; OTHER UNIT WAITING?
                          10     19  004F   188 	BLSS	10$			; IF LSS NO, OUTPUT DATA AND RETURN
   00000001'EF            52     90  0051   189 	MOVB	R2,NEXT			; SAVE UNIT NUMBER
   00000002'EF            53     B0  0058   190 	MOVW	R3,DATA			; SAVE DATA
                          0A     11  005F   191 	BRB	20$			; EXIT
                                     0061   192 10$:					;
   00000000'EF            52     90  0061   193 	MOVB	R2,CURR			; SAVE UNIT NUMBER OF CURRENT SENDER
            23            53     DA  0068   194 	MTPR	R3,#PR$_TXDB		; SEND DATA
                                     006B   195 20$:					;
                                 05  006B   196 	RSB				;
                                     006C   197
CONINTDSP       -  CONSOLE INTERRUPT DISPATCHER                  21-AUG-1978 23:49:40   VAX-11 MACRO X0.3-11               Page   6
X05             CONSOLE TRANSMITTER INTERRUPT SERVICE                                                                            (5)

                                     006C   199 	.SBTTL	CONSOLE TRANSMITTER INTERRUPT SERVICE
                                     006C   200
                                     006C   201 ;++
                                     006C   202 ; CON$INTOUT - CONSOLE TRANSMITTER INTERRUPT SERVICE
                                     006C   203 ;
                                     006C   204 ; FUNCTIONAL DESCRIPTION:
                                     006C   205 ;
                                     006C   206 ; THIS ROUTINE IS ENTERED WHEN A CONSOLE UNIT READY INTERRUPT OCCURS.
                                     006C   207 ;
                                     006C   208 ; A SEARCH IS MADE OF THE COLD STORAGE BUFFER FOR DATA TO OUTPUT.
                                     006C   209 ; IF ANY IS FOUND THEN IT IS OUTPUT. IF NO VALID DATA IS FOUND THEN
                                     006C   210 ; THE INTERRUPT STATE OF THE UNIT IS CHECKED FOR EXPECTED INTERRUPT.
                                     006C   211 ; IF NO INTERRUPT IS EXPECTED, THE INTERRUPT IS DISMISSED. IF AN INTERRUPT
                                     006C   212 ; IS EXPECTED THEN THE DRIVER IS ENTERED. IN THE CASE OF THE CONSOLE TERMINAL,
                                     006C   213 ; A SPECIFIC ROUTINE IS ENTERED TO GET THE NEXT CHARACTER AVAILABLE TO OUTPUT
                                     006C   214 ; ON THE UNIT. IN THE CASE OF THE CONSOLE FLOPPY, THE WAIT FOR INTERRUPT
                                     006C   215 ; CONTEXT IS TAKEN FROM THE UCB AND THE SPECIFIED ROUTINE IS ENTERED.
                                     006C   216 ;
                                     006C   217 ;
                                     006C   218 ; INPUTS:
                                     006C   219 ;
                                     006C   220 ;	R2,R3,R4,R5 ARE SAVED ON THE INTERRUPT STACK.
                                     006C   221 ;
                                     006C   222 ;	00(SP) = ADDRESS OF THE IDB
                                     006C   223 ;
                                     006C   224 ; OUTPUTS:
                                     006C   225 ;
                                     006C   226 ;	THE SAVED REGISTERS ARE RESTORES BEFORE REI.
                                     006C   227 ;--
                                     006C   228 CON$INTOUT::				;
            54            9E     D0  006C   229 	MOVL	@(SP)+,R4		; GET ADDRESS OF IDB
            52   00000001'EF     98  006F   230 	CVTBL	NEXT,R2			; GET UNIT NUMBER OF NEXT SENDER
                          11     19  0076   231 	BLSS	10$			; IF LSS NO SENDER WAITING
   00000001'EF            01     8E  0078   232 	MNEGB	#1,NEXT			; RESET SENDER-WAITNG
            53   00000002'EF     3C  007F   233 	MOVZWL	DATA,R3			; GET DATA TO SEND
            23            53     DA  0086   234 	MTPR	R3,#PR$_TXDB		; TRANSMIT DATA
                                     0089   235 10$:					;
            53   00000000'EF     9A  0089   236 	MOVZBL	CURR,R3			; GET UNIT NUMBER OF CURRENT SENDER
   00000000'EF            52     90  0090   237 	MOVB	R2,CURR			; SET UNIT NUMBER OF NEXT CURRENT
                          53     95  0097   238 	TSTB	R3			; SPURIOUS INTERRUPT?
                          28     19  0099   239 	BLSS	DISMIS			; IF LSS YES
            55         10 A443   D0  009B   240 	MOVL	IDB$L_UCBLST(R4)[R3],R5	; GET ADDRESS OF UCB
         58 A5            07     E5  00A0   241 	BBCC	#UCB$V_INTTYPE,UCB$W_STS(R5),FLOPINT ; SET OUTPUT INTERRUPT
                          00         00A4
                                     00A5   242 FLOPINT:				;
         58 A5            00     E5  00A5   243 	BBCC	#UCB$V_TIM,UCB$W_STS(R5),10$ ; CLEAR TIMEOUT PENDING
                          00         00A9
                                     00AA   244 10$:					;
         58 A5            01     E5  00AA   245 	BBCC	#UCB$V_INT,UCB$W_STS(R5),DISMIS ; EXIT IF NOT WAITING FOR INTERRUPT
                          14         00AE
         34 A5            02     E1  00AF   246 	BBC	#DEV$V_TRM,UCB$L_DEVCHAR(R5),20$ ; IF BIT CLEAR, UNIT = FLOPPY
                          08         00B3
                       C3'AF     9F  00B4   247 	PUSHAB	B^DISMIS		; PUSH ADDRESS TO DISMISS INTERRUPT
                          FF46'  30  00B7   248 	BSBW	TTY$GETNEXTCHAR		; GET ANOTHER CHARACTER
                          84     11  00BA   249 	BRB	CON$STARTIO		; INITIATE I/O
                                     00BC   250 20$:					;
            54         14 A5     D0  00BC   251 	MOVL	UCB$L_FR4(R5),R4	; RESTORE R4 CONTEXT
CONINTDSP       -  CONSOLE INTERRUPT DISPATCHER                  21-AUG-1978 23:49:40   VAX-11 MACRO X0.3-11               Page   7
X05             CONSOLE TRANSMITTER INTERRUPT SERVICE                                                                            (5)

                       0C B5     16  00C0   252 	JSB	@UCB$L_FPC(R5)		; ENTER FLOPPY INTERRUPT HANDLER
                                     00C3   253 DISMIS:					;
                          3C     BA  00C3   254 	POPR	#^M<R2,R3,R4,R5>	; RESTORE REGISTERS
                                 02  00C5   255 	REI				;
                                     00C6   256
                                     00C6   257 	.END
CONINTDSP       -  CONSOLE INTERRUPT DISPATCHER                  21-AUG-1978 23:49:40   VAX-11 MACRO X0.3-11               Page   8
SYMBOL TABLE                                                                                                                     (5)

BIT...         = 00000000            DEV$V_TRM      = 00000002            UCB$B_AMOD       00000053
CON$DISCON       00000015 RG    04   DEV$V_WCK      = 0000001F            UCB$B_CEX        00000077
CON$INITIAL      00000000 RG    04   DISMIS           000000C3 R     04   UCB$B_CM1        0000004A
CON$INITLINE     00000015 RG    04   FLOPINT          000000A5 R     04   UCB$B_CM2        0000004B
CON$INTINP       00000016 RG    04   GBL...         = 00000000            UCB$B_DEVCLASS   00000038
CON$INTOUT       0000006C RG    04   IDB$B_TYPE       0000000A            UCB$B_DEVTYPE    00000039
CON$STARTIO      00000040 RG    04   IDB$B_UNITS      0000000B            UCB$B_DIPL       00000052
CURR             00000000 R     03   IDB$C_LENGTH     00000014            UCB$B_DX_SCTCNT  FFFFFFFE
DATA             00000002 R     03   IDB$K_LENGTH     00000014            UCB$B_DX_SPARE   FFFFFFFF
DEV$M_ALL      = 00800000            IDB$L_ADP        0000000C            UCB$B_ERTCNT     00000070
DEV$M_AVL      = 00040000            IDB$L_CSR        00000000            UCB$B_ERTMAX     00000071
DEV$M_CCL      = 00000002            IDB$L_OWNER      00000004            UCB$B_ESCAPE     0000004B
DEV$M_DIR      = 00000008            IDB$L_UCBLST     00000010            UCB$B_FEX        00000076
DEV$M_DMT      = 00200000            IDB$W_SIZE       00000008            UCB$B_FIPL       0000000B
DEV$M_ELG      = 00400000            NEXT             00000001 R     03   UCB$B_LOCSRV     0000003C
DEV$M_FOD      = 00004000            PR$_ACCR       = 00000029            UCB$B_OFFNDX     00000090
DEV$M_FOR      = 01000000            PR$_ACCS       = 00000028            UCB$B_OFFRTC     00000091
DEV$M_GEN      = 00020000            PR$_ASTLVL     = 00000013            UCB$B_REMSRV     0000003D
DEV$M_IDV      = 04000000            PR$_ESP        = 00000001            UCB$B_SECTORS    0000003C
DEV$M_MBX      = 00100000            PR$_ICCS       = 00000018            UCB$B_SLAVE      00000074
DEV$M_MNT      = 00080000            PR$_ICR        = 0000001A            UCB$B_SPR        00000075
DEV$M_NET      = 00002000            PR$_IPL        = 00000012            UCB$B_STATE      00000052
DEV$M_ODV      = 08000000            PR$_ISP        = 00000004            UCB$B_TRACKS     0000003D
DEV$M_RCK      = 40000000            PR$_KSP        = 00000000            UCB$B_TYPE       0000000A
DEV$M_REC      = 00000001            PR$_MAPEN      = 00000038            UCB$B_VERTSZ     0000003F
DEV$M_RND      = 10000000            PR$_NICR       = 00000019            UCB$C_LENGTH     00000074
DEV$M_RTM      = 20000000            PR$_P0BR       = 00000008            UCB$C_LOGLNK   = 00000001
DEV$M_SDI      = 00000010            PR$_P0LR       = 00000009            UCB$K_LENGTH     00000074
DEV$M_SHR      = 00010000            PR$_P1BR       = 0000000A            UCB$L_AMB        00000054
DEV$M_SPL      = 00000040            PR$_P1LR       = 0000000B            UCB$L_ASTQBL     00000010
DEV$M_SQD      = 00000020            PR$_PCBB       = 00000010            UCB$L_ASTQFL     0000000C
DEV$M_SWL      = 02000000            PR$_RXCS       = 00000020            UCB$L_CPID       0000005C
DEV$M_TRM      = 00000004            PR$_RXDB       = 00000021            UCB$L_CRB        00000020
DEV$M_WCK      = 80000000            PR$_SBIER      = 00000034            UCB$L_DDB        00000024
DEV$V_ALL      = 00000017            PR$_SBIFS      = 00000030            UCB$L_DEVCHAR    00000034
DEV$V_AVL      = 00000012            PR$_SBIMT      = 00000033            UCB$L_DEVDEPEND  0000003C
DEV$V_CCL      = 00000001            PR$_SBIQC      = 00000036            UCB$L_DPC        0000007C
DEV$V_DIR      = 00000003            PR$_SBIS       = 00000031            UCB$L_DUETIM     0000005C
DEV$V_DMT      = 00000015            PR$_SBISC      = 00000032            UCB$L_DX_BFPNT   FFFFFFF4
DEV$V_ELG      = 00000016            PR$_SBITA      = 00000035            UCB$L_DX_BUF     FFFFFFF0
DEV$V_FOD      = 0000000E            PR$_SBR        = 0000000C            UCB$L_DX_RXDB    FFFFFFF8
DEV$V_FOR      = 00000018            PR$_SCBB       = 00000011            UCB$L_EMB        00000078
DEV$V_GEN      = 00000011            PR$_SID        = 0000003E            UCB$L_FIRST      00000014
DEV$V_IDV      = 0000001A            PR$_SIRR       = 00000014            UCB$L_FPC        0000000C
DEV$V_MBX      = 00000014            PR$_SISR       = 00000015            UCB$L_FQBL       00000004
DEV$V_MNT      = 00000013            PR$_SLR        = 0000000D            UCB$L_FQFL       00000000
DEV$V_NET      = 0000000D            PR$_SSP        = 00000002            UCB$L_FR3        00000010
DEV$V_ODV      = 0000001B            PR$_TBIA       = 00000039            UCB$L_FR4        00000014
DEV$V_RCK      = 0000001E            PR$_TBIS       = 0000003A            UCB$L_IOQBL      00000044
DEV$V_REC      = 00000000            PR$_TODR       = 0000001B            UCB$L_IOQFL      00000040
DEV$V_RND      = 0000001C            PR$_TXCS       = 00000022            UCB$L_IRP        0000004C
DEV$V_RTM      = 0000001D            PR$_TXDB       = 00000023            UCB$L_LINK       0000002C
DEV$V_SDI      = 00000004            PR$_USP        = 00000003            UCB$L_LOGADR     00000064
DEV$V_SHR      = 00000010            PR$_WCSA       = 0000002C            UCB$L_MAXBLOCK   00000080
DEV$V_SPL      = 00000006            PR$_WCSD       = 0000002D            UCB$L_MEDIA      00000088
DEV$V_SQD      = 00000005            TTY$GETNEXTCHAR  ********   X   04   UCB$L_NT_DATSSB  00000074
DEV$V_SWL      = 00000019            TTY$PUTNEXTCHAR  ********   X   04   UCB$L_NT_INTSSB  00000078
CONINTDSP       -  CONSOLE INTERRUPT DISPATCHER                  21-AUG-1978 23:49:40   VAX-11 MACRO X0.3-11               Page   9
SYMBOL TABLE                                                                                                                     (5)

UCB$L_OPCNT      00000060            UCB$V_NT_BREAK = 00000005
UCB$L_OWNUIC     0000001C            UCB$V_NT_NAME  = 00000004
UCB$L_PID        00000028            UCB$V_NT_NONTR = 00000006
UCB$L_RQBL       00000004            UCB$V_NT_SDP   = 00000003
UCB$L_RQFL       00000000            UCB$V_ONLINE   = 00000004
UCB$L_SVAPTE     00000068            UCB$V_POWER    = 00000005
UCB$L_SVPN       00000064            UCB$V_PRMMBX   = 00000000
UCB$L_TTCHAR     0000003C            UCB$V_SEGFLO   = 00000002
UCB$L_VCB        00000030            UCB$V_TIM      = 00000000
UCB$M_BSY      = 00000100            UCB$V_TIMOUT   = 00000006
UCB$M_CANCEL   = 00000008            UCB$V_TT_NOTIF = 00000002
UCB$M_DEADMO   = 00000400            UCB$V_TT_TIMO  = 00000001
UCB$M_DELMBX   = 00000002            UCB$V_VALID    = 0000000B
UCB$M_DIAGBUF  = 00000002            UCB$W_BCNT       0000006E
UCB$M_DX_WRITE = 00000008            UCB$W_BCR        00000092
UCB$M_ECC      = 00000001            UCB$W_BOFF       0000006C
UCB$M_ERLOGIP  = 00000004            UCB$W_BUFQUO     00000018
UCB$M_INT      = 00000002            UCB$W_BYTESTOGO  0000003E
UCB$M_INTTYPE  = 00000080            UCB$W_CHARGE     0000004A
UCB$M_JOB      = 00000001            UCB$W_CYLINDERS  0000003E
UCB$M_MOUNTING = 00000200            UCB$W_DA         00000088
UCB$M_NOCNVRT  = 00000004            UCB$W_DC         0000008A
UCB$M_NT_BFROVF= 00000004            UCB$W_DEVBUFSIZ  0000003A
UCB$M_NT_BREAK = 00000020            UCB$W_DEVSTS     0000005A
UCB$M_NT_NAME  = 00000010            UCB$W_DSTADDR    00000018
UCB$M_NT_NONTR = 00000040            UCB$W_DX_BCR     FFFFFFFC
UCB$M_NT_SDP   = 00000008            UCB$W_EC1        0000008C
UCB$M_ONLINE   = 00000010            UCB$W_EC2        0000008E
UCB$M_POWER    = 00000020            UCB$W_ERRCNT     00000072
UCB$M_PRMMBX   = 00000001            UCB$W_FUNC       00000084
UCB$M_TIM      = 00000001            UCB$W_MB_SEED    FFFFFFFC
UCB$M_TIMOUT   = 00000040            UCB$W_MSGCNT     00000016
UCB$M_TT_NOTIF = 00000004            UCB$W_MSGMAX     00000014
UCB$M_TT_TIMO  = 00000002            UCB$W_NT_CHAN    0000007C
UCB$M_VALID    = 00000800            UCB$W_OFFSET     00000086
UCB$S_LNKPRI   = 00000002            UCB$W_REFC       00000050
UCB$S_LTYPE    = 00000002            UCB$W_SIZE       00000008
UCB$T_PARTNER    0000000C            UCB$W_SRCADDR    0000001A
UCB$V_BACKP    = 00000005            UCB$W_STS        00000058
UCB$V_BSY      = 00000008            UCB$W_UNIT       00000048
UCB$V_CANCEL   = 00000003            UCB$W_VPROT      0000001A
UCB$V_DEADMO   = 0000000A
UCB$V_DELMBX   = 00000001
UCB$V_DIAGBUF  = 00000001
UCB$V_DX_WRITE = 00000003
UCB$V_ECC      = 00000000
UCB$V_ERLOGIP  = 00000002
UCB$V_INT      = 00000001
UCB$V_INTTYPE  = 00000007
UCB$V_JOB      = 00000000
UCB$V_LNKPRI   = 00000006
UCB$V_LTYPE    = 00000000
UCB$V_MOUNTING = 00000009
UCB$V_MSGACK   = 00000004
UCB$V_MSGFLO   = 00000003
UCB$V_NOCNVRT  = 00000002
UCB$V_NT_BFROVF= 00000002
CONINTDSP       -  CONSOLE INTERRUPT DISPATCHER                  21-AUG-1978 23:49:40   VAX-11 MACRO X0.3-11               Page  10
PROGRAM SECTION SYNOPSIS                                                                                                         (5)


PROGRAM SECTION SYNOPSIS

.  ABS  .        00000000      00     NOPIC   USR   CON   ABS   LCL NOSHR NOEXE NORD  NOWRT BYTE
. BLANK .        00000000      01     NOPIC   USR   CON   REL   LCL NOSHR   EXE   RD    WRT BYTE
$ABS$            FFFFFFFF      02     NOPIC   USR   CON   ABS   LCL NOSHR   EXE   RD    WRT BYTE
$$$250           00000004      03     NOPIC   USR   CON   REL   LCL NOSHR   EXE   RD    WRT LONG
WIONONPAGED      000000C6      04     NOPIC   USR   CON   REL   LCL NOSHR   EXE   RD    WRT BYTE


THERE WERE NO ERRORS OR WARNINGS.
17628. BYTES LEFT IN FREE MEMORY POOL.
3396. BYTES OF RECLAIMED MEMORY.
OBJ$:CONINTDSP,LIS$:CONINTDSP/-SP=LIB$:LIB/ML,SRC$:CONINTDSP
2 MLB DIR RDS - 418 GETS TO DEFINE 13 MACROS. 30 INTER. FILE WRITES.
