CORPARSE        - STAND-ALONE VERSION OF THE RMS PARSE SERVICE   22-AUG-1978 00:07:03   VAX-11 MACRO X0.3-11               Page   0
TABLE OF CONTENTS

   (1)      45  DECLARATIONS
   (1)      67  COR$PARSE - RMS PARSE SYSTEM SERVICE
CORPARSE        - STAND-ALONE VERSION OF THE RMS PARSE SERVICE   22-AUG-1978 00:07:03   VAX-11 MACRO X0.3-11               Page   1
00                                                                                                                               (1)

                                     0000     1 	.TITLE	CORPARSE - STAND-ALONE VERSION OF THE RMS PARSE SERVICE
                                     0000     2 	.IDENT	/00/
                                     0000     3
                                     0000     4 ;
                                     0000     5 ;			  COPYRIGHT (c) 1978 BY
                                     0000     6 ;	      DIGITAL EQUIPMENT CORPORATION, MAYNARD, MASS.
                                     0000     7 ;
                                     0000     8 ; THIS SOFTWARE IS FURNISHED UNDER A LICENSE AND MAY BE USED AND  COPIED
                                     0000     9 ; ONLY  IN  ACCORDANCE  WITH  THE  TERMS  OF  SUCH  LICENSE AND WITH THE
                                     0000    10 ; INCLUSION OF THE ABOVE COPYRIGHT NOTICE.  THIS SOFTWARE OR  ANY  OTHER
                                     0000    11 ; COPIES  THEREOF MAY NOT BE PROVIDED OR OTHERWISE MADE AVAILABLE TO ANY
                                     0000    12 ; OTHER PERSON.  NO TITLE TO AND OWNERSHIP OF  THE  SOFTWARE  IS  HEREBY
                                     0000    13 ; TRANSFERRED.
                                     0000    14 ;
                                     0000    15 ; THE INFORMATION IN THIS SOFTWARE IS SUBJECT TO CHANGE  WITHOUT  NOTICE
                                     0000    16 ; AND  SHOULD  NOT  BE  CONSTRUED  AS  A COMMITMENT BY DIGITAL EQUIPMENT
                                     0000    17 ; CORPORATION.
                                     0000    18 ;
                                     0000    19 ; DIGITAL ASSUMES NO RESPONSIBILITY FOR THE USE OR  RELIABILITY  OF  ITS
                                     0000    20 ; SOFTWARE ON EQUIPMENT WHICH IS NOT SUPPLIED BY DIGITAL.
                                     0000    21 ;
                                     0000    22
                                     0000    23 ;++
                                     0000    24 ; FACILITY: STAND-ALONE VERSION OF THE VAX/VMS EXECUTIVE
                                     0000    25 ;
                                     0000    26 ; ABSTRACT:
                                     0000    27 ;
                                     0000    28 ;	THIS MODULE PERFORMS PART OF THE RMS-32 PARSE SYSTEM SERVICE
                                     0000    29 ;	FOR THE STAND-ALONE ENVIRONMENT
                                     0000    30 ;
                                     0000    31 ;
                                     0000    32 ; ENVIRONMENT:
                                     0000    33 ;
                                     0000    34 ;	THIS SERVICE RUNS IN THE CALLERS MODE AS PART OF THE STAND-ALONE
                                     0000    35 ;	VAX/VMS OPERATING SYSTEM
                                     0000    36 ;
                                     0000    37 ; AUTHOR: C. A. MONIA	, CREATION DATE: 17-APR-1978
                                     0000    38 ;
                                     0000    39 ; MODIFIED BY:
                                     0000    40 ;
                                     0000    41 ;	, : VERSION
                                     0000    42 ; 01	-
                                     0000    43 ;--
CORPARSE        - STAND-ALONE VERSION OF THE RMS PARSE SERVICE   22-AUG-1978 00:07:03   VAX-11 MACRO X0.3-11               Page   2
00              DECLARATIONS                                                                                                     (1)

                                     0000    45 	.SBTTL	DECLARATIONS
                                     0000    46 ;
                                     0000    47 ; INCLUDE FILES:
                                     0000    48 ;
                                     0000    49
                                     0000    50 	$FABDEF				; DEFINE FAB OFFSETS
                                     0000    51 	$NAMDEF				; DEFINE NAME BLOCK OFFSETS
                                     0000    52 	$RMSDEF				; DEFINE RMS ERROR CODES
                                     0000    53
                                     0000    54 ;
                                     0000    55 ; MACROS:
                                     0000    56 ;
                                     0000    57
                                     0000    58 ;
                                     0000    59 ; EQUATED SYMBOLS:
                                     0000    60 ;
                                     0000    61
                                     0000    62 ;
                                     0000    63 ; OWN STORAGE:
                                     0000    64 ;
                                     0000    65
CORPARSE        - STAND-ALONE VERSION OF THE RMS PARSE SERVICE   22-AUG-1978 00:07:03   VAX-11 MACRO X0.3-11               Page   3
00              COR$PARSE - RMS PARSE SYSTEM SERVICE                                                                             (1)

                                     0000    67 	.SBTTL	COR$PARSE - RMS PARSE SYSTEM SERVICE
                                     0000    68 ;++
                                     0000    69 ; FUNCTIONAL DESCRIPTION:
                                     0000    70 ;
                                     0000    71 ; THIS ROUTINE IS CALLED TO SIMULATE THE RMS PARSE SYSTEM SERVICE IN
                                     0000    72 ; THE STAND-ALONE VAX/VMS ENVIRONMENT. IT RUNS IN THE ACCESS MODE OF
                                     0000    73 ; OF THE CALLER.
                                     0000    74 ;
                                     0000    75 ;
                                     0000    76 ; CALLING SEQUENCE:
                                     0000    77 ;
                                     0000    78 ;	CALL SYS$PARSE (FAB,,)
                                     0000    79 ;
                                     0000    80 ;
                                     0000    81 ; INPUT PARAMETERS:
                                     0000    82 ;
                                     0000    83 ;	FAB = ADDRESS OF FAB
                                     0000    84 ;
                                     0000    85 ; IMPLICIT INPUTS:
                                     0000    86 ;
                                     0000    87 ;	THE FOLLOWING PORTIONS OF THE FAB ARE USED:
                                     0000    88 ;
                                     0000    89 ;		FNA = ADDRESS OF FILE SPECIFICATION STRING
                                     0000    90 ;		FNS = SIZE OF FILE SPECIFICATION STRING
                                     0000    91 ;		NAM = ADDRESS OF NAME BLOCK
                                     0000    92 ;
                                     0000    93 ;	THE FOLLOWING PORTIONS OF THE NAME BLOCK ARE USED:
                                     0000    94 ;
                                     0000    95 ;		ESA = EXPANDED STRING ADDRESS
                                     0000    96 ;		ESS = EXPANDED STRING SIZE
                                     0000    97 ;
                                     0000    98 ; OUTPUT PARAMETERS:
                                     0000    99 ;
                                     0000   100 ;	NONE
                                     0000   101 ;
                                     0000   102 ; IMPLICIT OUTPUTS:
                                     0000   103 ;
                                     0000   104 ;	FAB:
                                     0000   105 ;
                                     0000   106 ;		STS = COMPLETION CODE STATUS (COPY OF R0)
                                     0000   107 ;		STV = STATUS VALUE
                                     0000   108 ;
                                     0000   109 ;	NAM:
                                     0000   110 ;
                                     0000   111 ;		DID = 0
                                     0000   112 ;		DVI = 0
                                     0000   113 ;		ESL = EXPANDED STRING LENGTH (COPY OF FNS)
                                     0000   114 ;
                                     0000   115 ;
                                     0000   116 ; COMPLETION CODES:
                                     0000   117 ;
                                     0000   118 ;	RMS$_NORMAL - OPERATION SUCCESSFUL
                                     0000   119 ;
                                     0000   120 ;	RMS$_ESA - INVALID EXPANDED STRING AREA ADDRESS
                                     0000   121 ;
                                     0000   122 ;	RMS$_ESS - EXPANDED STRING AREA SIZE IS NOT LARGE ENOUGH
                                     0000   123 ;
CORPARSE        - STAND-ALONE VERSION OF THE RMS PARSE SERVICE   22-AUG-1978 00:07:03   VAX-11 MACRO X0.3-11               Page   4
00              COR$PARSE - RMS PARSE SYSTEM SERVICE                                                                             (1)

                                     0000   124 ;	RMS$_NAM - INVALID NAME BLOCK
                                     0000   125 ;
                                     0000   126 ; SIDE EFFECTS:
                                     0000   127 ;
                                     0000   128 ;	NONE
                                     0000   129 ;
                                     0000   130 ;--
                                     0000   131
                               0FFC' 0000   132 	.ENTRY	COR$PARSE,^M<R2,R3,R4,R5,R6,R7,R8,R9,R10,R11>
            5B         04 BC     9E  0002   133 	MOVAB	@4(AP),R11		; GET ADDRESS OF FAB
            50   0001850C 8F     D0  0006   134 	MOVL	#RMS$_FAB,R0		; ASSUME INVALID FAB
                                     000D   135 	IFNOWRT	#FAB$B_BLN+1,(R11),EXIT	; MAKE SURE OF ACCESS TO BLOCK LENGTH
            51         01 AB     9A  0013   136 	MOVZBL	FAB$B_BLN(R11),R1	; GET LENGTH OF BLOCK
                                     0017   137 	IFNOWRT	R1,(R11),EXIT		; VERIFY ACCESS TO NAME BLOCK
            5A         28 BB     9E  001D   138 	MOVAB	@FAB$L_NAM(R11),R10	; GET ADDRESS OF NAME BLOCK
            50   000185DC 8F     D0  0021   139 	MOVL	#RMS$_NAM,R0		; ASSUME UNABLE TO ACCESS NAME BLOCK
                                     0028   140 	IFNOWRT	#NAM$B_BLN+1,(R10),EXIT	; MAKE SURE THAT LENGTH BLOCK CAN BE ACCESSED
            51         01 AA     9A  002E   141 	MOVZBL	NAM$B_BLN(R10),R1	; GET SIZE OF BLOCK
                                     0032   142 	IFNOWRT	R1,(R10),EXIT		; CHECK ACCESS
                       2A AA     D4  0038   143 	CLRL	NAM$W_DID(R10)		; CLEAR DIRECTORY I/D
                       2E AA     B4  003B   144 	CLRW	NAM$W_DID+4(R10)	; ...
            6C            00     2C  003E   145 	MOVC5	#0,(AP),#0,#16,NAM$T_DVI(R10) ; CLEAR DEVICE I/D
            10            00         0041
                       14 AA         0043
            59         0A AA     9A  0045   146 	MOVZBL	NAM$B_ESS(R10),R9	; GET LENGTH OF NAME STRING AREA
            50   000184FC 8F     D0  0049   147 	MOVL	#RMS$_ESA,R0		; ASSUME INVALID AREA
                                     0050   148 	IFNOWRT	R9,NAM$L_ESA(R10),EXIT	; TEST FOR WRITE ACCESS
            58         34 AB     9A  0057   149 	MOVZBL	FAB$B_FNS(R11),R8	; GET LENGTH OF INPUT FILE NAME STRING
            50   00018524 8F     D0  005B   150 	MOVL	#RMS$_FNA,R0		; ASSUME INVALID FILE NAME FIELD
                                     0062   151 	IFNORD	R8,FAB$L_FNA(R11),EXIT	; EXIT IF NO ACCESS
         2C BB            58     2C  0069   152 	MOVC5	R8,@FAB$L_FNA(R11),#0,R9,@NAM$L_ESA(R10) ; COPY FILE NAME STRING
            59            00         006D
                       0C BA         006F
         0B AA            58     90  0071   153 	MOVB	R8,NAM$B_ESL(R10)	; SET LENGTH OF RESULTANT STRING
            51            50     D0  0075   154 	MOVL	R0,R1			; COPY UNMOVED PORTION (IF ANY)
            50   00018504 8F     D0  0078   155 	MOVL	#RMS$_ESS,R0		; ASSUME AREA NOT LARGE ENOUGH
                          51     D5  007F   156 	TSTL	R1			; TEST LENGTH
                          07     12  0081   157 	BNEQ	EXIT			; IF NEQ, AREA TOO SMALL
            50   00010001 8F     D0  0083   158 	MOVL	#RMS$_NORMAL,R0		; SET SUCCESS
                                     008A   159 EXIT:					;
         08 AB            50     D0  008A   160 	MOVL	R0,FAB$L_STS(R11)	; SET STATUS
                                 04  008E   161 	RET				;
                                     008F   162
                                     008F   163 	.END
CORPARSE        - STAND-ALONE VERSION OF THE RMS PARSE SERVICE   22-AUG-1978 00:07:03   VAX-11 MACRO X0.3-11               Page   5
SYMBOL TABLE                                                                                                                     (1)

BIT...         = 0001C12C            FAB$M_KFO      = 40000000            FAB$V_NFS      = 00000010
COR$PARSE        00000000 RG    01   FAB$M_MSE      = 00000010            FAB$V_NIL      = 00000005
EXIT             0000008A R     01   FAB$M_MXV      = 00000002            FAB$V_OFP      = 0000001D
FAB$B_BID        00000000            FAB$M_NAM      = 01000000            FAB$V_ORG      = 00000004
FAB$B_BKS        0000003E            FAB$M_NEF      = 00000400            FAB$V_POS      = 00000008
FAB$B_BLN        00000001            FAB$M_NFS      = 00010000            FAB$V_PPF      = 00000012
FAB$B_DNS        00000035            FAB$M_NIL      = 00000020            FAB$V_PPF_IND  = 0000000E
FAB$B_FAC        00000016            FAB$M_OFP      = 20000000            FAB$V_PPF_RAT  = 00000006
FAB$B_FNS        00000034            FAB$M_POS      = 00000100            FAB$V_PRN      = 00000002
FAB$B_FSZ        0000003F            FAB$M_PPF      = 00040000            FAB$V_PUT      = 00000000
FAB$B_ORG        0000001D            FAB$M_PPF_IND  = 00004000            FAB$V_RCK      = 00000017
FAB$B_RAT        0000001E            FAB$M_PPF_RAT  = 00003FC0            FAB$V_RWC      = 0000000B
FAB$B_RFM        0000001F            FAB$M_PRN      = 00000004            FAB$V_RWO      = 00000007
FAB$B_RTV        0000001C            FAB$M_PUT      = 00000001            FAB$V_SCF      = 0000000E
FAB$B_SHR        00000017            FAB$M_RCK      = 00800000            FAB$V_SHRDEL   = 00000002
FAB$C_BID      = 00000003            FAB$M_RWC      = 00000800            FAB$V_SHRGET   = 00000001
FAB$C_BLN        00000050            FAB$M_RWO      = 00000080            FAB$V_SHRPUT   = 00000000
FAB$C_FIX      = 00000001            FAB$M_SCF      = 00004000            FAB$V_SHRUPD   = 00000003
FAB$C_HSH      = 00000030            FAB$M_SHRDEL   = 00000004            FAB$V_SPL      = 0000000D
FAB$C_IDX      = 00000020            FAB$M_SHRGET   = 00000002            FAB$V_SQO      = 00000006
FAB$C_MAXRFM   = 00000003            FAB$M_SHRPUT   = 00000001            FAB$V_SUP      = 00000002
FAB$C_REL      = 00000010            FAB$M_SHRUPD   = 00000008            FAB$V_TEF      = 0000001C
FAB$C_RFM_DFLT = 00000002            FAB$M_SPL      = 00002000            FAB$V_TMD      = 00000004
FAB$C_SEQ      = 00000000            FAB$M_SQO      = 00000040            FAB$V_TMP      = 00000003
FAB$C_UDF      = 00000000            FAB$M_SUP      = 00000004            FAB$V_TRN      = 00000004
FAB$C_VAR      = 00000002            FAB$M_TEF      = 10000000            FAB$V_UFM      = 0000001A
FAB$C_VFC      = 00000003            FAB$M_TMD      = 00000010            FAB$V_UFO      = 00000011
FAB$K_BLN        00000050            FAB$M_TMP      = 00000008            FAB$V_UPD      = 00000003
FAB$L_ALQ        00000010            FAB$M_TRN      = 00000010            FAB$V_UPI      = 00000006
FAB$L_CTX        00000018            FAB$M_UFM      = 04000000            FAB$V_WCK      = 00000009
FAB$L_DEV        00000040            FAB$M_UFO      = 00020000            FAB$W_BLS        0000003C
FAB$L_DNA        00000030            FAB$M_UPD      = 00000008            FAB$W_DEQ        00000014
FAB$L_FNA        0000002C            FAB$M_UPI      = 00000040            FAB$W_IFI        00000002
FAB$L_FOP        00000004            FAB$M_WCK      = 00000200            FAB$W_MRS        00000036
FAB$L_JNL        00000020            FAB$S_ORG      = 00000004            GBL...         = 00000000
FAB$L_MRN        00000038            FAB$S_PPF_RAT  = 00000008            NAM$B_BID        00000000
FAB$L_NAM        00000028            FAB$V_BIO      = 00000005            NAM$B_BLN        00000001
FAB$L_SDC        00000044            FAB$V_BLK      = 00000003            NAM$B_CURLVL     00000038
FAB$L_STS        00000008            FAB$V_BRO      = 00000006            NAM$B_ESL        0000000B
FAB$L_STV        0000000C            FAB$V_CBT      = 00000015            NAM$B_ESS        0000000A
FAB$L_XAB        00000024            FAB$V_CIF      = 00000019            NAM$B_RSL        00000003
FAB$M_BIO      = 00000020            FAB$V_CR       = 00000001            NAM$B_RSS        00000002
FAB$M_BLK      = 00000008            FAB$V_CTG      = 00000014            NAM$C_BID      = 00000002
FAB$M_BRO      = 00000040            FAB$V_DEL      = 00000002            NAM$C_BLN        00000038
FAB$M_CBT      = 00200000            FAB$V_DFW      = 00000005            NAM$C_BLN_DIRWC  00000050
FAB$M_CIF      = 02000000            FAB$V_DLT      = 0000000F            NAM$C_DVI      = 00000010
FAB$M_CR       = 00000002            FAB$V_DMO      = 0000000C            NAM$C_MAXRSS   = 00000080
FAB$M_CTG      = 00100000            FAB$V_ESC      = 0000001B            NAM$C_MAXRSSLCL= 00000043
FAB$M_DEL      = 00000004            FAB$V_FTN      = 00000000            NAM$K_BLN        00000038
FAB$M_DFW      = 00000020            FAB$V_GET      = 00000001            NAM$K_BLN_DIRWC  00000050
FAB$M_DLT      = 00008000            FAB$V_INP      = 00000013            NAM$L_DIRWCC1    00000040
FAB$M_DMO      = 00001000            FAB$V_JNL      = 00000016            NAM$L_DIRWCC2    00000044
FAB$M_ESC      = 08000000            FAB$V_KFO      = 0000001E            NAM$L_DIRWCC3    00000048
FAB$M_FTN      = 00000001            FAB$V_MSE      = 00000004            NAM$L_DIRWCC4    0000004C
FAB$M_GET      = 00000002            FAB$V_MXV      = 00000001            NAM$L_DWC        00000038
FAB$M_INP      = 00080000            FAB$V_NAM      = 00000018            NAM$L_ESA        0000000C
FAB$M_JNL      = 00400000            FAB$V_NEF      = 0000000A            NAM$L_FNB        00000034
CORPARSE        - STAND-ALONE VERSION OF THE RMS PARSE SERVICE   22-AUG-1978 00:07:03   VAX-11 MACRO X0.3-11               Page   6
SYMBOL TABLE                                                                                                                     (1)

NAM$L_RLF        00000010            RMS$_ABO       = 000183EC            RMS$_ESS       = 00018504
NAM$L_RSA        00000004            RMS$_ACC       = 0001C002            RMS$_EXT       = 0001C022
NAM$L_WCC        00000030            RMS$_ACT       = 0001825A            RMS$_FAB       = 0001850C
NAM$M_DIR_LVLS = 00E00000            RMS$_AID       = 000183F4            RMS$_FAC       = 00018514
NAM$M_EXP_DEV  = 00000080            RMS$_ALK       = 000182C2            RMS$_FEX       = 00018282
NAM$M_EXP_DIR  = 00000040            RMS$_ALN       = 000183FC            RMS$_FLG       = 0001851C
NAM$M_EXP_NAME = 00000004            RMS$_ALQ       = 00018404            RMS$_FLK       = 0001828A
NAM$M_EXP_TYPE = 00000002            RMS$_ANI       = 0001840C            RMS$_FNA       = 00018524
NAM$M_EXP_VER  = 00000001            RMS$_AOP       = 00018414            RMS$_FND       = 0001C02A
NAM$M_GRP_MBR  = 00080000            RMS$_ATR       = 0001C0CC            RMS$_FNF       = 00018292
NAM$M_HIGHVER  = 00008000            RMS$_ATW       = 0001C0D4            RMS$_FNM       = 0001852C
NAM$M_LOWVER   = 00004000            RMS$_BKS       = 0001841C            RMS$_FOP       = 0001853C
NAM$M_NODE     = 00020000            RMS$_BKZ       = 00018424            RMS$_FSZ       = 00018534
NAM$M_QUOTED   = 00040000            RMS$_BLN       = 0001842C            RMS$_FUL       = 00018544
NAM$M_WILDCARD = 00000100            RMS$_BOF       = 00018198            RMS$_IAL       = 0001854C
NAM$M_WILD_DIR = 00100000            RMS$_BUG       = 00018434            RMS$_IAN       = 00018554
NAM$M_WILD_GRP = 01000000            RMS$_BUG_DDI   = 0001843C            RMS$_IDX       = 0001855C
NAM$M_WILD_MBR = 02000000            RMS$_BUG_XX1   = 00018444            RMS$_IFA       = 0001C124
NAM$M_WILD_NAME= 00000020            RMS$_BUG_XX2   = 0001844C            RMS$_IFI       = 00018564
NAM$M_WILD_SFD1= 02000000            RMS$_BUG_XX3   = 00018454            RMS$_IMX       = 0001856C
NAM$M_WILD_SFD2= 04000000            RMS$_BUG_XX4   = 0001845C            RMS$_IOP       = 00018574
NAM$M_WILD_TYPE= 00000010            RMS$_BUG_XX5   = 00018464            RMS$_IRC       = 0001857C
NAM$M_WILD_UFD = 01000000            RMS$_BUG_XX6   = 0001846C            RMS$_ISI       = 00018584
NAM$M_WILD_VER = 00000008            RMS$_BUG_XX7   = 00018474            RMS$_KBF       = 0001858C
NAM$S_DIR_LVLS = 00000003            RMS$_BUG_XX8   = 0001847C            RMS$_KEY       = 00018594
NAM$T_DVI        00000014            RMS$_BUG_XX9   = 00018484            RMS$_KFF       = 00018031
NAM$V_DIR_LVLS = 00000015            RMS$_CAA       = 0001848C            RMS$_KRF       = 0001859C
NAM$V_EXP_DEV  = 00000007            RMS$_CCF       = 0001C0DC            RMS$_KSZ       = 000185A4
NAM$V_EXP_DIR  = 00000006            RMS$_CCR       = 00018494            RMS$_LAN       = 000185AC
NAM$V_EXP_NAME = 00000002            RMS$_CDA       = 0001C0E4            RMS$_LBL       = 000185B4
NAM$V_EXP_TYPE = 00000001            RMS$_CHG       = 0001849C            RMS$_LNE       = 000185BC
NAM$V_EXP_VER  = 00000000            RMS$_CHK       = 000184A4            RMS$_LOC       = 000185C4
NAM$V_GRP_MBR  = 00000013            RMS$_CHN       = 0001C0EC            RMS$_MBC       = 00018734
NAM$V_HIGHVER  = 0000000F            RMS$_COD       = 000184AC            RMS$_MKD       = 0001C032
NAM$V_LOWVER   = 0000000E            RMS$_CONTROLO  = 00010609            RMS$_MRN       = 000185CC
NAM$V_NODE     = 00000011            RMS$_CONTROLY  = 00010611            RMS$_MRS       = 000185D4
NAM$V_QUOTED   = 00000012            RMS$_CRE       = 0001C00A            RMS$_NAM       = 000185DC
NAM$V_WILDCARD = 00000008            RMS$_CREATED   = 00010619            RMS$_NEF       = 000185E4
NAM$V_WILD_DIR = 00000014            RMS$_CUR       = 000184B4            RMS$_NID       = 000185EC
NAM$V_WILD_GRP = 00000018            RMS$_DAC       = 0001C012            RMS$_NMF       = 000182CA
NAM$V_WILD_MBR = 00000019            RMS$_DAN       = 000184BC            RMS$_NOD       = 000185F4
NAM$V_WILD_NAME= 00000005            RMS$_DEL       = 00018262            RMS$_NORMAL    = 00010001
NAM$V_WILD_SFD1= 00000019            RMS$_DEV       = 000184C4            RMS$_NPK       = 000185FC
NAM$V_WILD_SFD2= 0000001A            RMS$_DIR       = 000184CC            RMS$_OK_ALK    = 00018039
NAM$V_WILD_TYPE= 00000004            RMS$_DME       = 000184D4            RMS$_OK_DEL    = 00018041
NAM$V_WILD_UFD = 00000018            RMS$_DNA       = 000184DC            RMS$_OK_DUP    = 00018011
NAM$V_WILD_VER = 00000003            RMS$_DNF       = 0001826A            RMS$_OK_IDX    = 00018019
NAM$W_DID        0000002A            RMS$_DNR       = 00018272            RMS$_OK_RLK    = 00018021
NAM$W_DID_NUM    0000002A            RMS$_DPE       = 0001C03A            RMS$_OK_RNF    = 00018049
NAM$W_DID_RVN    0000002E            RMS$_DTP       = 000184E4            RMS$_OK_RRV    = 00018029
NAM$W_DID_SEQ    0000002C            RMS$_DUP       = 000184EC            RMS$_ORD       = 00018604
NAM$W_FID        00000024            RMS$_DVI       = 000184F4            RMS$_ORG       = 0001860C
NAM$W_FID_NUM    00000024            RMS$_ENT       = 0001C01A            RMS$_PBF       = 00018614
NAM$W_FID_RVN    00000028            RMS$_ENV       = 00018724            RMS$_PENDING   = 00018009
NAM$W_FID_SEQ    00000026            RMS$_EOF       = 0001827A            RMS$_PLG       = 0001861C
NAM$W_PRV_DID    0000003A            RMS$_ESA       = 000184FC            RMS$_PLV       = 0001872C
RMS$V_STVSTATUS= 0000000E            RMS$_ESL       = 00018714            RMS$_POS       = 00018624
CORPARSE        - STAND-ALONE VERSION OF THE RMS PARSE SERVICE   22-AUG-1978 00:07:03   VAX-11 MACRO X0.3-11               Page   7
SYMBOL TABLE                                                                                                                     (1)

RMS$_PRM       = 0001862C
RMS$_PRV       = 0001829A
RMS$_QUO       = 00018634
RMS$_RAB       = 0001863C
RMS$_RAC       = 00018644
RMS$_RAT       = 0001864C
RMS$_RBF       = 00018654
RMS$_RER       = 0001C0F4
RMS$_REX       = 000182A2
RMS$_RFA       = 0001865C
RMS$_RFM       = 00018664
RMS$_RHB       = 0001866C
RMS$_RLF       = 00018674
RMS$_RLK       = 000182AA
RMS$_RMV       = 0001C0FC
RMS$_RNF       = 000182B2
RMS$_RNL       = 000181A0
RMS$_ROP       = 0001867C
RMS$_RPL       = 0001C104
RMS$_RRV       = 00018684
RMS$_RSA       = 0001868C
RMS$_RSS       = 00018694
RMS$_RST       = 0001869C
RMS$_RSZ       = 000186A4
RMS$_RTB       = 000181A8
RMS$_SEQ       = 000186AC
RMS$_SHR       = 000186B4
RMS$_SIZ       = 000186BC
RMS$_SQO       = 000186C4
RMS$_STALL     = 00018001
RMS$_STK       = 000186CC
RMS$_SUC       = 00010001
RMS$_SUPERSEDE = 00010631
RMS$_SYN       = 000186D4
RMS$_SYS       = 0001C10C
RMS$_TMO       = 000181B0
RMS$_TRE       = 000186DC
RMS$_TYP       = 000186E4
RMS$_UBF       = 000186EC
RMS$_USZ       = 000186F4
RMS$_VER       = 000186FC
RMS$_VOL       = 00018704
RMS$_WER       = 0001C114
RMS$_WLK       = 000182BA
RMS$_WPL       = 0001C11C
RMS$_WSF       = 0001871C
RMS$_XAB       = 0001870C


PROGRAM SECTION SYNOPSIS

.  ABS  .        00000000      00     NOPIC   USR   CON   ABS   LCL NOSHR NOEXE NORD  NOWRT BYTE
. BLANK .        0000008F      01     NOPIC   USR   CON   REL   LCL NOSHR   EXE   RD    WRT BYTE
$ABS$            00000050      02     NOPIC   USR   CON   ABS   LCL NOSHR   EXE   RD    WRT BYTE


THERE WERE NO ERRORS OR WARNINGS.
CORPARSE        - STAND-ALONE VERSION OF THE RMS PARSE SERVICE   22-AUG-1978 00:07:03   VAX-11 MACRO X0.3-11               Page   8
PROGRAM SECTION SYNOPSIS                                                                                                         (1)

15914. BYTES LEFT IN FREE MEMORY POOL.
2864. BYTES OF RECLAIMED MEMORY.
OBJ$:CORPARSE,LIS$:CORPARSE/-SP=LIB$:LIB/ML,SRC$:CORPARSE
4 MLB DIR RDS - 567 GETS TO DEFINE 14 MACROS. 46 INTER. FILE WRITES.
