DEBUGDATA       - BUGCHECK AND PANIC DUMP DATABASE               22-AUG-1978 00:04:12   VAX-11 MACRO X0.3-11               Page   1
01                                                                                                                               (1)

                                     0000     1 	.TITLE	DEBUGDATA - BUGCHECK AND PANIC DUMP DATABASE
                                     0000     2 	.IDENT	/01/
                                     0000     3
                                     0000     4 ;
                                     0000     5 ; COPYRIGHT (C) 1976
                                     0000     6 ; DIGITAL EQUIPMENT CORPORATION, MAYNARD, MASS.
                                     0000     7 ;
                                     0000     8 ; THIS SOFTWARE IS FURNISHED UNDER  A LICENSE FOR USE ONLY  ON  A
                                     0000     9 ; SINGLE COMPUTER SYSTEM AND MAY BE  COPIED ONLY WITH  THE INCLU-
                                     0000    10 ; SION OF  THE  ABOVE  COPYRIGHT NOTICE.  THIS SOFTWARE,  OR  ANY
                                     0000    11 ; OTHER COPIES THEREOF, MAY NOT BE  PROVIDED  OR  OTHERWISE  MADE
                                     0000    12 ; AVAILABLE TO ANY OTHER PERSON EXCEPT  FOR  USE  ON  SUCH SYSTEM
                                     0000    13 ; AND TO  ONE WHO AGREES  TO  THESE LICENSE  TERMS.  TITLE TO AND
                                     0000    14 ; OWNERSHIP OF THE SOFTWARE SHALL AT ALL TIMES REMAIN IN DEC.
                                     0000    15 ;
                                     0000    16 ; THE INFORMATION IN THIS SOFTWARE  IS  SUBJECT TO CHANGE WITHOUT
                                     0000    17 ; NOTICE AND SHOULD NOT BE CONSTRUED  AS  A COMMITMENT BY DIGITAL
                                     0000    18 ; EQUIPMENT CORPORATION.
                                     0000    19 ;
                                     0000    20 ; DEC ASSUMES NO RESPONSIBILITY FOR THE USE OR RELIABILITY OF ITS
                                     0000    21 ; SOFTWARE ON EQUIPMENT WHICH IS NOT SUPPLIED BY DEC.
                                     0000    22 ;
                                     0000    23 ; D. N. CUTLER 17-AUG-76
                                     0000    24 ;
                                     0000    25 ; BUGCHECK AND PANIC DUMP DATA BASE
                                     0000    26 ;
                                     0000    27 ; GLOBAL DATA
                                     0000    28 ;
                                     0000    29
                                 00000000    30 	.PSECT	$$$085,PAGE,WRT
                                     0000    31 BUG$AL_DEBUG::				;DEBUG DATA BASE
                           00000178  0000    32 	.BLKL	128-34			;STACK AREA
                                     0178    33 BUG$AL_PRREG::				;PROCESSOR REGISTERS
                           000001B8  0178    34 	.BLKL	16			;
                                     01B8    35 BUG$AL_SAVR0::				;GENERAL REGISTERS
                           000001F0  01B8    36 	.BLKL	14			;
                                     01F0    37 BUG$GL_STACK::				;SAVED STACK POINTER
                           000001F4  01F0    38 	.BLKL	1			;
                                     01F4    39 BUG$GL_RETURN::				;SAVED RETURN ADDRESS
                           000001F8  01F4    40 	.BLKL	1			;
                                     01F8    41 BUG$GL_PSL::				;SAVED PSL
                           000001FC  01F8    42 	.BLKL	1			;
                                     01FC    43 BUG$GL_FLAG::				;SAVED BUG CHECK FLAG
                           00000200  01FC    44 	.BLKL	1			;
                                     0200    45
                                     0200    46 	.END
DEBUGDATA       - BUGCHECK AND PANIC DUMP DATABASE               22-AUG-1978 00:04:12   VAX-11 MACRO X0.3-11               Page   2
SYMBOL TABLE                                                                                                                     (1)

BUG$AL_DEBUG     00000000 RG    02
BUG$AL_PRREG     00000178 RG    02
BUG$AL_SAVR0     000001B8 RG    02
BUG$GL_FLAG      000001FC RG    02
BUG$GL_PSL       000001F8 RG    02
BUG$GL_RETURN    000001F4 RG    02
BUG$GL_STACK     000001F0 RG    02


PROGRAM SECTION SYNOPSIS

.  ABS  .        00000000      00     NOPIC   USR   CON   ABS   LCL NOSHR NOEXE NORD  NOWRT BYTE
. BLANK .        00000000      01     NOPIC   USR   CON   REL   LCL NOSHR   EXE   RD    WRT BYTE
$$$085           00000200      02     NOPIC   USR   CON   REL   LCL NOSHR   EXE   RD    WRT PAGE


THERE WERE NO ERRORS OR WARNINGS.
28412. BYTES LEFT IN FREE MEMORY POOL.
OBJ$:DEBUGDATA,LIS$:DEBUGDATA/-SP=LIB$:LIB/ML,SRC$:DEBUGDATA
0 MLB DIR RDS - 0 GETS TO DEFINE 0 MACROS. 1 INTER. FILE WRITES.
