DUMMYPFN                                                         22-AUG-1978 00:09:46   VAX-11 MACRO X0.3-11               Page   0
TABLE OF CONTENTS

   (1)      39  DECLARATIONS
DUMMYPFN                                                         22-AUG-1978 00:09:46   VAX-11 MACRO X0.3-11               Page   1
00                                                                                                                               (1)

                                     0000     1 	.TITLE	DUMMYPFN
                                     0000     2 	.IDENT	/00/
                                     0000     3
                                     0000     4 ;
                                     0000     5 ;			  COPYRIGHT (c) 1978 BY
                                     0000     6 ;	      DIGITAL EQUIPMENT CORPORATION, MAYNARD, MASS.
                                     0000     7 ;
                                     0000     8 ; THIS SOFTWARE IS FURNISHED UNDER A LICENSE AND MAY BE USED AND  COPIED
                                     0000     9 ; ONLY  IN  ACCORDANCE  WITH  THE  TERMS  OF  SUCH  LICENSE AND WITH THE
                                     0000    10 ; INCLUSION OF THE ABOVE COPYRIGHT NOTICE.  THIS SOFTWARE OR  ANY  OTHER
                                     0000    11 ; COPIES  THEREOF MAY NOT BE PROVIDED OR OTHERWISE MADE AVAILABLE TO ANY
                                     0000    12 ; OTHER PERSON.  NO TITLE TO AND OWNERSHIP OF  THE  SOFTWARE  IS  HEREBY
                                     0000    13 ; TRANSFERRED.
                                     0000    14 ;
                                     0000    15 ; THE INFORMATION IN THIS SOFTWARE IS SUBJECT TO CHANGE  WITHOUT  NOTICE
                                     0000    16 ; AND  SHOULD  NOT  BE  CONSTRUED  AS  A COMMITMENT BY DIGITAL EQUIPMENT
                                     0000    17 ; CORPORATION.
                                     0000    18 ;
                                     0000    19 ; DIGITAL ASSUMES NO RESPONSIBILITY FOR THE USE OR  RELIABILITY  OF  ITS
                                     0000    20 ; SOFTWARE ON EQUIPMENT WHICH IS NOT SUPPLIED BY DIGITAL.
                                     0000    21 ;
                                     0000    22
                                     0000    23 ;++
                                     0000    24 ; FACILITY: STAND-ALONE DSC EXECUTIVE
                                     0000    25 ;
                                     0000    26 ; ABSTRACT: PROVIDE DUMMY DEFINITIONS FOR PFN DATA BASES
                                     0000    27 ;
                                     0000    28 ;
                                     0000    29 ; ENVIRONMENT: STAND-ALONE DSC EXECUTIVE
                                     0000    30 ;
                                     0000    31 ; AUTHOR: C. A. MONIA	, CREATION DATE: 3-MAR-78
                                     0000    32 ;
                                     0000    33 ; MODIFIED BY:
                                     0000    34 ;
                                     0000    35 ;	, : VERSION
                                     0000    36 ; 01	-
                                     0000    37 ;--
DUMMYPFN                                                         22-AUG-1978 00:09:46   VAX-11 MACRO X0.3-11               Page   2
00              DECLARATIONS                                                                                                     (1)

                                     0000    39 	.SBTTL	DECLARATIONS
                                     0000    40 ;
                                     0000    41 ; INCLUDE FILES:
                                     0000    42 ;
                                     0000    43
                                     0000    44 ;
                                     0000    45 ; MACROS:
                                     0000    46 ;
                                     0000    47
                                     0000    48 ;
                                     0000    49 ; EQUATED SYMBOLS:
                                     0000    50 ;
                                     0000    51 ; DEFINE DUMMY PFN DATA BASE
                                     0000    52 ;
                                     0000    53
                           00000000  0000    54 PFN$AW_SWPVBN==0			; SWAP FILE VBN
                           00000000  0000    55 PFN$AL_PTE==0				; PTE BACK POINTER
                           00000000  0000    56 PFN$AL_BAK==0				; BACKING STORE ADDRESS
                           00000000  0000    57 PFN$AW_REFCNT==0			; REFERENCE COUNT
                           00000000  0000    58 PFN$AW_FLINK==0				; FORWARD LINK
                           00000000  0000    59 PFN$AW_BLINK==0				; BACKWARD LINK
                           00000000  0000    60 PFN$AB_STATE==0				; STATE
                           00000000  0000    61 PFN$AB_TYPE==0				; TYPE
                                     0000    62
                                     0000    63 	.END
DUMMYPFN                                                         22-AUG-1978 00:09:46   VAX-11 MACRO X0.3-11               Page   3
SYMBOL TABLE                                                                                                                     (1)

PFN$AB_STATE   = 00000000  G
PFN$AB_TYPE    = 00000000  G
PFN$AL_BAK     = 00000000  G
PFN$AL_PTE     = 00000000  G
PFN$AW_BLINK   = 00000000  G
PFN$AW_FLINK   = 00000000  G
PFN$AW_REFCNT  = 00000000  G
PFN$AW_SWPVBN  = 00000000  G


PROGRAM SECTION SYNOPSIS

.  ABS  .        00000000      00     NOPIC   USR   CON   ABS   LCL NOSHR NOEXE NORD  NOWRT BYTE
. BLANK .        00000000      01     NOPIC   USR   CON   REL   LCL NOSHR   EXE   RD    WRT BYTE


THERE WERE NO ERRORS OR WARNINGS.
28414. BYTES LEFT IN FREE MEMORY POOL.
OBJ$:DUMMYPFN,LIS$:DUMMYPFN/-SP=LIB$:LIB/ML,SRC$:DUMMYPFN
0 MLB DIR RDS - 0 GETS TO DEFINE 0 MACROS. 1 INTER. FILE WRITES.
