DXPDRIVER       - STAR CONSOLE FLOPPY DISK DRIVER                21-AUG-1978 23:53:24   VAX-11 MACRO X0.3-11               Page   0
TABLE OF CONTENTS

   (1)     103  START I/O OPERATION
DXPDRIVER       - STAR CONSOLE FLOPPY DISK DRIVER                21-AUG-1978 23:53:24   VAX-11 MACRO X0.3-11               Page   1
00                                                                                                                               (1)

                                     0000     1 	.TITLE	DXPDRIVER - STAR CONSOLE FLOPPY DISK DRIVER
                                     0000     2 	.IDENT	/00/
                                     0000     3
                                     0000     4 ;
                                     0000     5 ; COPYRIGHT (C) 1977
                                     0000     6 ; DIGITAL EQUIPMENT CORPORATION, MAYNARD, MASS.
                                     0000     7 ;
                                     0000     8 ; THIS SOFTWARE IS FURNISHED UNDER  A LICENSE FOR USE ONLY  ON  A
                                     0000     9 ; SINGLE COMPUTER SYSTEM AND MAY BE  COPIED ONLY WITH  THE INCLU-
                                     0000    10 ; SION OF  THE  ABOVE  COPYRIGHT NOTICE.  THIS SOFTWARE,  OR  ANY
                                     0000    11 ; OTHER COPIES THEREOF, MAY NOT BE  PROVIDED  OR  OTHERWISE  MADE
                                     0000    12 ; AVAILABLE TO ANY OTHER PERSON EXCEPT  FOR  USE  ON  SUCH SYSTEM
                                     0000    13 ; AND TO  ONE WHO AGREES  TO  THESE LICENSE  TERMS.  TITLE TO AND
                                     0000    14 ; OWNERSHIP OF THE SOFTWARE SHALL AT ALL TIMES REMAIN IN DEC.
                                     0000    15 ;
                                     0000    16 ; THE INFORMATION IN THIS SOFTWARE  IS  SUBJECT TO CHANGE WITHOUT
                                     0000    17 ; NOTICE AND SHOULD NOT BE CONSTRUED  AS  A COMMITMENT BY DIGITAL
                                     0000    18 ; EQUIPMENT CORPORATION.
                                     0000    19 ;
                                     0000    20 ; DEC ASSUMES NO RESPONSIBILITY FOR THE USE OR RELIABILITY OF ITS
                                     0000    21 ; SOFTWARE ON EQUIPMENT WHICH IS NOT SUPPLIED BY DEC.
                                     0000    22 ;
                                     0000    23 ; C. A. MONIA 13-JUL-77
                                     0000    24 ;
                                     0000    25 ; STAR CONSOLE FLOPPY DISK DRIVER
                                     0000    26 ;
                                     0000    27 ; MACRO LIBRARY CALLS
                                     0000    28 ;
                                     0000    29
                                     0000    30 	$ADPDEF				;DEFINE ADP OFFSETS
                                     0000    31 	$CRBDEF				;DEFINE CRB OFFSETS
                                     0000    32 	$DDBDEF				;DEFINE DDB OFFSETS
                                     0000    33 	$DDTDEF				;DEFINE DDT OFFSETS
                                     0000    34 	$EMBDEF				;DEFINE EMB OFFSETS
                                     0000    35 	$IDBDEF				;DEFINE IDB OFFSETS
                                     0000    36 	$IODEF				;DEFINE I/O FUNCTION CODES
                                     0000    37 	$IRPDEF				;DEFINE IRP OFFSETS
                                     0000    38 	$PRDEF				;DEFINE PROCESSOR REGISTERS
                                     0000    39 	$SSDEF				;DEFINE SYSTEM STATUS VALUES
                                     0000    40 	$UBADEF				;DEFINE UBA REGISTER OFFSETS
                                     0000    41 	$UCBDEF				;DEFINE UCB OFFSETS
                                     0000    42 	$VECDEF				;DEFINE INTERRUPT DISPATCH VECTOR OFFSETS
                                     0000    43
                                     0000    44 ;
                                     0000    45 ; LOCAL SYMBOLS
                                     0000    46 ;
                                     0000    47 ; CONSOLE FLOPPY STATUS BIT DEFINITIONS
                                     0000    48 ;
                                     0000    49
                                     0000    50 	_VIELD	DXP_RXDB,0,<-		;RECEIVER DATA BUFFER FIELD DEFINITIONS
                                     0000    51 	<CRC,,M>,-			;CRC ERROR
                                     0000    52 	<PAR,,M>,-			;PARITY
                                     0000    53 	<INI,,M>-			;INIT. COMPLETE
                                     0000    54 >					;
                                     0000    55 	_VIELD	DXP_RXDB,6,<-		;
                                     0000    56 	<DEL,,M>,-			;DELETED DATA MARK READ
                                     0000    57 	<ERR,,M>-			;ERROR DETECTED
DXPDRIVER       - STAR CONSOLE FLOPPY DISK DRIVER                21-AUG-1978 23:53:24   VAX-11 MACRO X0.3-11               Page   2
00                                                                                                                               (1)

                                     0000    58 >					;
                                     0000    59
                                     0000    60 ;
                                     0000    61 ; CONSOLE COMMAND FIELD DEFINITION
                                     0000    62 ;
                                     0000    63
                           00000800  0000    64 DXP_M_CMD = 8@8				;COMMAND BIT
                                     0000    65
                                     0000    66 ;
                                     0000    67 ; CONSOLE DATA BUFFER VALUES
                                     0000    68 ;
                                     0000    69
                           00000900  0000    70 DXP_RXDB_K_CMD = 9@8			;INITIATE FLOPPY FUNCTION
                           00000200  0000    71 DXP_RXDB_K_FCMP = 2@8			;FLOPPY FUNCTION COMPLETE
                           00000005  0000    72 DXP_RXDB_K_PRTC = 5			;PROTOCOL ERROR STATUS
                                     0000    73
                                     0000    74 ;
                                     0000    75 ; HARDWARE FUNCTION CODES
                                     0000    76 ;
                                     0000    77
                           00000800  0000    78 F_READSECTOR=8@8!0			;READ SECTOR
                           00000801  0000    79 F_WRITESECTOR=8@8!1			;WRITE SECTOR
                           00000802  0000    80 F_READSTATUS=8@8!2			;READ STATUS
                           00000803  0000    81 F_WRITEDELDATA=8@8!3			;WRITE DELETED DATA SECTOR
                           00000804  0000    82 F_CANCEL=8@8!4				;CANCEL FLOPPY FUNCTION
                                     0000    83
                                     0000    84 ;
                                     0000    85 ; LOCAL DATA
                                     0000    86 ;
                                     0000    87 ; DRIVER DISPATCH TABLE
                                     0000    88 ;
                                     0000    89 ;
                                     0000    90
                                 00000000    91 	.PSECT	WIONONPAGED
                                     0000    92
                                     0000    93 DXP$DDT::				;ADDRESS OF DRIVER DISPATCH TABLE
                           0000001C' 0000    94 	.LONG	STARTIO			;INITIATE I/O OPERATION
                           0000011E' 0004    95 	.LONG	UNSOLNT			;UNSOLICITED INTERRUPT
                           00000000' 0008    96 	.LONG	DX$FUNCTABLE		;FUNCTION DECISION TABLE
                           0000011E' 000C    97 	.LONG	UNSOLNT			;DEASSIGN PROCESSING ROUTINE
                           00000112' 0010    98 	.LONG	REGDUMP			;REGISTER DUMP ROUTINE
                               006C  0014    99 	.WORD	<6>*4+<3>*4		;SIZE OF DIAGNOSTIC BUFFER
                               0000  0016   100 	.WORD	0			;SIZE OF ERROR BUFFER (0=NONE)
                           00000000  0018   101 	.LONG	0			;UNIT INITIALIZATION ENTRY POINT
DXPDRIVER       - STAR CONSOLE FLOPPY DISK DRIVER                21-AUG-1978 23:53:24   VAX-11 MACRO X0.3-11               Page   3
00              START I/O OPERATION                                                                                              (1)

                                     001C   103 	.SBTTL	START I/O OPERATION
                                     001C   104
                                     001C   105 ;+
                                     001C   106 ; STARTIO - START I/O OPERATION ON DEVICE UNIT
                                     001C   107 ;
                                     001C   108 ; THIS ENTRY POINT IS ENTERED TO START AN I/O OPERATION ON THE CONSOLE
                                     001C   109 ; FLOPPY. CONTROL ALTERNATES BETWEEN THE FLOPPY DRIVER AND THE FLOPPY
                                     001C   110 ; UTILITY ROUTINES IN DXUTILITY THAT ARE SHARED BY ALL FLOPPY DEVICES.
                                     001C   111 ; THE DRIVER PERFORMS ALL DEVICE-DEPENDANT PROCESSING WHILE THE UTILI-
                                     001C   112 ; TY ROUTINES HANDLE THE INTERFACE BETWEEN THE DRIVE AND THE SYSTEM OR
                                     001C   113 ; USER. THE PROTOCOL FOR EACH DATA TRANSFER IS AS FOLLOWS:
                                     001C   114 ;
                                     001C   115 ;	1. THE SYSTEM DETERMINES THE LEGALITY OF A FUNCTION AND ANY PRE-
                                     001C   116 ;	   PROCESSING TO BE PERFORMED BY SCANNING THE COMMON FUNCTION DE-
                                     001C   117 ;	   CISION TABLE.
                                     001C   118 ;
                                     001C   119 ;	2. A REQUEST IS DEQUEUED AND THE DRIVER IS ENTERED AT ITS START-I/O
                                     001C   120 ;	   ENTRY POINT.
                                     001C   121 ;
                                     001C   122 ;	3. A SUBROUTINE CALL TO COMMON CODE IS EXECUTED TO COMPUTE THE INI-
                                     001C   123 ;	   TIAL MEDIA ADDRESS AND SETUP THE I/O DATA BASE FOR THE TRANSFER.
                                     001C   124 ;
                                     001C   125 ;	4. A CO-ROUTINE CALL TO THE DRIVER IS EXECUTED TO POSITION THE MEDIA
                                     001C   126 ;
                                     001C   127 ;	5. A CO-ROUTINE CALL TO THE DRIVER IS PERFORMED TO TRANSFER ONE BYTE
                                     001C   128 ;	   OF DATA
                                     001C   129 ;
                                     001C   130 ;	6. A CO-ROUTINE CALL TO THE COMMON PROCESSOR IS PERFORMED TO UPDATE
                                     001C   131 ;	   THE ADDRESS AND BYTE COUNT AND CHECK FOR ENDPOINT CONDITIONS
                                     001C   132 ;
                                     001C   133 ; STEPS 4 - 6 ARE EXECUTED AT HARDWARE IPL LEVEL. A TRANSFER TO FORK LEVEL
                                     001C   134 ; MUST BE EXECUTED WHENEVER:
                                     001C   135 ;
                                     001C   136 ;	. ONE SECTOR OF DATA HAS BEEN TRANSFERRED
                                     001C   137 ;
                                     001C   138 ;	. AN ERROR CONDITION IS DETECTED.
                                     001C   139 ;
                                     001C   140 ; ON OCCURANCE OF AN ERROR, THE DRIVER PERFORMS ANY HARDWARE DEPENDANT
                                     001C   141 ; FUNCTIONS THEN TRANSFERS CONTROL TO THE COMMON EXCEPTION ENTRY POINT
                                     001C   142 ; TO RESET MEDIA AND USER ADDRESSES AND REISSUE THE REQUEST.
                                     001C   143 ;
                                     001C   144 ; THE FLAGS DESCRIBED BELOW ARE USED TO SIGNAL EXCEPTION CONDITIONS:
                                     001C   145 ;
                                     001C   146 ;	FLAGS SET BY DRIVER:
                                     001C   147 ;
                                     001C   148 ;		WHEN EXCEPTION RETURN IS TAKEN:
                                     001C   149 ;
                                     001C   150 ;			R3 LBS = RETRIABLE HARDWARE ERROR
                                     001C   151 ;			R3 LBC = FATAL HARDWARE ERROR
                                     001C   152 ;
                                     001C   153 ;			R0 CONTAINS THE STATUS CODE REFLECTING THE TYPE OF ERROR
                                     001C   154 ;			DETECTED.
                                     001C   155 ;
                                     001C   156 ;	FLAGS SET BY UTILITY:
                                     001C   157 ;
                                     001C   158 ;		R3 LBC = TRANSFER OF ONE SECTOR COMPLETED
                                     001C   159 ;
DXPDRIVER       - STAR CONSOLE FLOPPY DISK DRIVER                21-AUG-1978 23:53:24   VAX-11 MACRO X0.3-11               Page   4
00              START I/O OPERATION                                                                                              (1)

                                     001C   160 ;		R3 LBS = PERFORM NORMAL DRIVER FUNCTION
                                     001C   161 ;
                                     001C   162 ;
                                     001C   163 ; INPUTS:
                                     001C   164 ;
                                     001C   165 ;	R3 = ADDRESS OF I/O PACKET.
                                     001C   166 ;	R5 = ADDRESS OF DEVICE UNIT CONTROL BLOCK
                                     001C   167 ;
                                     001C   168 ; OUTPUTS:
                                     001C   169 ;
                                     001C   170 ;	********OUTPUTS********
                                     001C   171 ;-
                                     001C   172
                                     001C   173 	.ENABL	LSB
                                     001C   174
                                     001C   175 STARTIO:				;
                          FFE1'  30  001C   176 	BSBW	DX$STARTIO		;CALL UTILITY ROUTINE TO SETUP PHYSICAL ADDRESS
                                     001F   177 RESTART:				;
            53       0800 8F     3C  001F   178 	MOVZWL	#F_READSECTOR,R3	;ASSUME READ PHYSICAL SECTOR
         5A A5            03     E1  0024   179 	BBC	#UCB$V_DX_WRITE,UCB$W_DEVSTS(R5),20$ ;BRANCH IF READ
                          03         0028
            53            01     80  0029   180 	ADDB2	#<F_WRITESECTOR-F_READSECTOR>,R3 ;CONVERT FUNCTION CODE TO WRITE SECTOR
                                     002C   181 20$:					;
                          5C     10  002C   182 	BSBB	DXPOUT			;SEND COMMAND TO FLOPPY
            53       0088 C5     9A  002E   183 	MOVZBL	UCB$L_MEDIA(R5),R3	;GET SECTOR NUMBER
                          55     10  0033   184 	BSBB	DXPOUT			;OUTPUT SECTOR
            53       008A C5     9A  0035   185 	MOVZBL	UCB$L_MEDIA+2(R5),R3	;GET CYLINDER NUMBER
                          4E     10  003A   186 	BSBB	DXPOUT			;SEND CYLINDER NUMBER
         5A A5            03     E0  003C   187 	BBS	#UCB$V_DX_WRITE,UCB$W_DEVSTS(R5),DXPWRITE ;BRANCH IF WRITE
                          0F         0040
                          24     10  0041   188 	BSBB	DXPINP			;WAIT FOR FLOPPY TO FINISH
                                     0043   189 30$:					;
                          22     10  0043   190 	BSBB	DXPINP			;WAIT FOR INPUT DATA
         F4 B5            53     90  0045   191 	MOVB	R3,@UCB$L_DX_BFPNT(R5)	;STORE BYTE
                          9E     16  0049   192 	JSB	@(SP)+			;RETURN TO CALLER
            F5            53     E8  004B   193 	BLBS	R3,30$			;IF LBS CONTINUE TRANSFER
                          0D     11  004E   194 	BRB	40$			;NO MORE DATA
                                     0050   195
                                     0050   196 ;+
                                     0050   197 ; DXPWRITE - OUTPUT TO CONSOLE FLOPPY
                                     0050   198 ;
                                     0050   199 ; THIS ROUTINE IS ENTERED TO WRITE ONE BYTE OF DATA ON THE CONSOLE FLOPPY.
                                     0050   200 ; IF AN ERROR OCCURS, A COROUTINE CALL IS MADE TO THE EXCEPTION ENTRY POINT
                                     0050   201 ; SPECIFIED BY CALLER'S CALLER. THE STACK CONTAINS THE RETURN TO IN-LINE DRIVER
                                     0050   202 ; CODE. IN THIS CASE, R3 INDICATES ERROR SEVERITY AS FOLLOWS:
                                     0050   203 ;
                                     0050   204 ;	R3 LBS = RETRIABLE ERROR
                                     0050   205 ;	R3 LBC = FATAL ERROR
                                     0050   206 ;
                                     0050   207 ; THE ERROR CODE IS IN R0.
                                     0050   208 ;
                                     0050   209 ; IF NO ERROR OCCURS, A RETURN TO THE DRIVER IS EXECUTED.
                                     0050   210 ;
                                     0050   211 ; INPUTS:
                                     0050   212 ;
                                     0050   213 ;	R3 LBS = REQUEST TO WRITE ONE BYTE OF DATA
                                     0050   214 ;	R5 = ADDRESS OF UCB
DXPDRIVER       - STAR CONSOLE FLOPPY DISK DRIVER                21-AUG-1978 23:53:24   VAX-11 MACRO X0.3-11               Page   5
00              START I/O OPERATION                                                                                              (1)

                                     0050   215 ;	(SP) = RETURN ADDRESS
                                     0050   216 ;
                                     0050   217 ;	R3 LBC = SECTOR TRANSFER COMPLETE
                                     0050   218 ;
                                     0050   219 ; OUTPUTS:
                                     0050   220 ;
                                     0050   221 ;	A RETURN TO INLINE CODE IS EXECUTED FOR A SUCCESFUL TRANSFER.
                                     0050   222 ;	IF SECTOR TRANSFER IS COMPLETE, A FORK IS EXECUTED BEFORE CALLING
                                     0050   223 ;	THE CALLER.
                                     0050   224 ;
                                     0050   225 ;	A RETURN TO THE EXCEPTION ENTRY POINT IS TAKEN IF AN ERROR OCCURS.
                                     0050   226 ;	IN THIS CASE, R3 INDICATES THE SEVERITY AND R0 CONTAINS THE ERROR
                                     0050   227 ;	CODE.
                                     0050   228 ;
                                     0050   229 ;-
                                     0050   230
                                     0050   231 DXPWRITE:				;
            53         F4 B5     9A  0050   232 	MOVZBL	@UCB$L_DX_BFPNT(R5),R3	;GET OUTPUT DATA
                          34     10  0054   233 	BSBB	DXPOUT			;SEND TO DEVICE
                          9E     16  0056   234 	JSB	@(SP)+			;CALL THE CALLER
            F5            53     E8  0058   235 	BLBS	R3,DXPWRITE		;IF LBS WRITE ANOTHER BYTE
                          0A     10  005B   236 	BSBB	DXPINP			;WAIT FOR FLOPPY FUNCTION COMPLETE
                                     005D   237 40$:					;
            54            8E     D0  005D   238 	MOVL	(SP)+,R4		;RETRIEVE RETURN ADDRESS
                                     0060   239 	IOFORK				;DROP TO FORK LEVEL
                          64     16  0063   240 	JSB	(R4)			;CALL THE CALLER
                          B8     11  0065   241 	BRB	RESTART			;GO AGAIN
                                     0067   242
                                     0067   243 	.DSABL	LSB
                                     0067   244
                                     0067   245 ;+
                                     0067   246 ; DXPINP - WAIT FOR FLOPPY INPUT INTERRUPT
                                     0067   247 ;
                                     0067   248 ; THIS ROUTINE IS ENTERED VIA A BSB TO WAIT FOR AN INPUT INTERRUPT.
                                     0067   249 ; IT ENTERS COMMON CODE TO EXECUTE A WAIT FOR INTERRUPT. ON RECEIPT
                                     0067   250 ; OF THE INTERRUPT A RETURN TO THE CALLER IS EXECUTED AT ISR LEVEL.
                                     0067   251 ;
                                     0067   252 ; INPUTS:
                                     0067   253 ;
                                     0067   254 ;	(SP) = RETURN TO CALLER
                                     0067   255 ;	4(SP) = RETURN TO CALLERS CALLER (DXUTILITY CO-ROUTINE)
                                     0067   256 ;	8(SP) = RETURN TO EXECUTIVE
                                     0067   257 ;
                                     0067   258 ; OUTPUTS:
                                     0067   259 ;
                                     0067   260 ;	R3 = INPUT DATA
                                     0067   261 ;	R5 = UCB ADDRESS
                                     0067   262 ;
                                     0067   263 ;	(SP) = RETURN TO CO-ROUTINE IN DXUTILITY
                                     0067   264 ;
                                     0067   265 ;-
                                     0067   266
                                     0067   267 	.ENABL	LSB
                                     0067   268
                                     0067   269 DXPINP:					;
                                     0067   270 	DSBINT	#31			;DISABLE ALL INTERRUPTS
         58 A5            05     E0  006D   271 	BBS	#UCB$V_POWER,UCB$W_STS(R5),5$ ;BRANCH IF POWER FAILURE
DXPDRIVER       - STAR CONSOLE FLOPPY DISK DRIVER                21-AUG-1978 23:53:24   VAX-11 MACRO X0.3-11               Page   6
00              START I/O OPERATION                                                                                              (1)

                          23         0071
                          1C     BA  0072   272 	POPR	#^M<R2,R3,R4>		;GET IPL IN R2, RETURNS IN R3, R4
                          52     DD  0074   273 	PUSHL	R2			;RESTORE IPL TO TOP OF STACK
                                     0076   274 	WFIKPCH	40$,#10			;WAIT FOR INTERRUPT
         58 A5            07     E4  007D   275 	BBSC	#UCB$V_INTTYPE,UCB$W_STS(R5),25$ ;IF SET, RECEIVED INPUT INT.
                          2F         0081
         58 A5            01     E3  0082   276 	BBCS	#UCB$V_INT,UCB$W_STS(R5),2$	;ENABLE INTERRUPTS, DISMISS INTERRUPT
                          00         0086
                                     0087   277 2$:						;
                          0094   31  0087   278 	BRW	UNSOLNT				;
                                     008A   279
                                     008A   280 ;+
                                     008A   281 ; DXPOUT - PERFORM OUTPUT TO THE CONSOLE FLOPPY DISK
                                     008A   282 ;
                                     008A   283 ; THIS ROUTINE IS ENTERED VIA A BSB TO SEND DATA TO THE CONSOLE FLOPPY.
                                     008A   284 ; IT ENTERS THE COMMON CONSOLE INTERRUPT HANDLER TO TRANSFER THE DATA.
                                     008A   285 ;
                                     008A   286 ; INPUTS:
                                     008A   287 ;
                                     008A   288 ;	R3 = FLOPPY DATA (BIT 11 MUST BE SET FOR A FLOPPY CONSOLE COMMAND).
                                     008A   289 ;	R5 = ADDRESS OF UCB
                                     008A   290 ;	(SP) = RETURN TO CALLER
                                     008A   291 ;	4(SP) = RETURN TO CALLERS CALLER (DXUTILITY CO-ROUTINE)
                                     008A   292 ;	8(SP) = RETURN TO EXECUTIVE
                                     008A   293 ;
                                     008A   294 ; OUTPUTS:
                                     008A   295 ;
                                     008A   296 ;	R5 = UCB ADDRESS
                                     008A   297 ;
                                     008A   298 ;	(SP) = RETURN TO CO-ROUTINE IN DXUTILITY
                                     008A   299 ;
                                     008A   300 ;-
                                     008A   301
                                     008A   302 DXPOUT:					;
                                     008A   303 	DSBINT	#31			;DISABLE ALL DEVICE INTERRUPTS
         58 A5            05     E1  0090   304 	BBC	#UCB$V_POWER,UCB$W_STS(R5),10$ ;BRANCH IF NO POWER FAILURE
                          09         0094
                                     0095   305 5$:					;
                                     0095   306 	ENBINT				;ENABLE INTERRUPTS
                          18     BA  0098   307 	POPR	#^M<R3,R4>		;REMOVE RETURNS FROM STACK
                          53     D4  009A   308 	CLRL	R3			;SET TO FLAG NONFATAL ERROR
                          6C     11  009C   309 	BRB	50$			;
                                     009E   310 10$:					;
                          FF5F'  30  009E   311 	BSBW	CON$STARTIO		;STARTUP THE DEVICE
                                     00A1   312 20$:					;
                          1C     BA  00A1   313 	POPR	#^M<R2,R3,R4>		;GET IPL IN R2, RETURNS IN R3, R4
                          52     DD  00A3   314 	PUSHL	R2			;RESTORE IPL TO TOP OF STACK
                                     00A5   315 	WFIKPCH	40$,#10			;WAIT FOR INTERRUPT, KEEP CHANNEL
         58 A5            07     E5  00AC   316 	BBCC	#UCB$V_INTTYPE,UCB$W_STS(R5),30$ ;IF CLEAR, RECEIVED OUTPUT INTERRUPT
                          14         00B0
                                     00B1   317 25$:					;
         F8 A5            53     D0  00B1   318 	MOVL	R3,UCB$L_DX_RXDB(R5)	;SAVE CONTENTS OF RXDB
            04            08     EF  00B5   319 	EXTZV	#8,#4,R3,-(SP)		;EXTRACT COMMAND FIELD
            7E            53         00B8
            02            8E     D1  00BA   320 	CMPL	(SP)+,#<DXP_RXDB_K_FCMP@-8>;TEST COMPLETION CODE
                          06     19  00BD   321 	BLSS	30$			;IF LSS PROCESS NEXT CHARACTER
                          0D     12  00BF   322 	BNEQ	DXPERR			;IF NEQ, ERROR
DXPDRIVER       - STAR CONSOLE FLOPPY DISK DRIVER                21-AUG-1978 23:53:24   VAX-11 MACRO X0.3-11               Page   7
00              START I/O OPERATION                                                                                              (1)

                          53     95  00C1   323 	TSTB	R3			;TEST STATUS
                          09     12  00C3   324 	BNEQ	DXPERR			;IF NEQ, EXCEPTION CONDITION
                                     00C5   325 30$:					;
                          54     DD  00C5   326 	PUSHL	R4			;SET RETURN TO CALLER
                       10 B5     17  00C7   327 	JMP	@UCB$L_FR3(R5)		;RETURN TO CALLER
                                     00CA   328 40$:					;
                          53     D4  00CA   329 	CLRL	R3			;SET TO FLAG FATAL ERROR
                          35     11  00CC   330 	BRB	47$			;FLAG FATAL CONTROLLER ERROR
                                     00CE   331
                                     00CE   332 ;+
                                     00CE   333 ; DXPERR - HARDWARE DEPENDANT ERROR PROCESSING
                                     00CE   334 ;
                                     00CE   335 ; THIS ROUTINE IS ENTERED WHENEVER AN ERROR INDICATION IS RECEIVED FROM
                                     00CE   336 ; THE FLOPPY INTERFACE. IF THE PROBLEM WAS NOT CAUSED BY DEVICE TIMEOUT
                                     00CE   337 ; OR POWER FAIL THEN THE DEVICE REGISTERS ARE SAVED AND A FORK IS EXE-
                                     00CE   338 ; CUTED TO PERFORM ERROR ANALYSES.
                                     00CE   339 ;
                                     00CE   340 ; IF THE ERROR IS CAUSED BY HARDWARE, THE SEVERITY (FATAL OR NON-FATAL)
                                     00CE   341 ; AND STANDARD ERROR CODE ARE SETUP.
                                     00CE   342 ;
                                     00CE   343 ; INPUTS:
                                     00CE   344 ;
                                     00CE   345 ;	R3 = CONTENTS OF RXDB (IF ENTRY IS FROM CONSOLE INTERRUPT DISPATCHER)
                                     00CE   346 ;	R4 = CO-ROUTINE ENTRY POINT
                                     00CE   347 ;	R5 = ADDRESS OF UCB
                                     00CE   348 ;
                                     00CE   349 ; OUTPUTS:
                                     00CE   350 ;
                                     00CE   351 ;	R0 CONTAINS ERROR CODE
                                     00CE   352 ;	R3 LSB = 1, RETRIABLE ERROR
                                     00CE   353 ;	R3 LSB = 0, FATAL ERROR
                                     00CE   354 ;
                                     00CE   355 ;-
                                     00CE   356
                                     00CE   357 DXPERR:					;
                                     00CE   358 	IOFORK				;FORK
            50       0054 8F     3C  00D1   359 	MOVZWL	#SS$_CTRLERR,R0		;ASSUME CONTROLLER ERROR
            51            53     D0  00D6   360 	MOVL	R3,R1			;COPY RXDB CONTENTS
                          53     D4  00D9   361 	CLRL	R3			;ASSUME ERROR IS FATAL
            04            08     EF  00DB   362 	EXTZV	#8,#4,R1,R2		;EXTRACT COMMAND FIELD
            52            51         00DE
            02            52     91  00E0   363 	CMPB	R2,#<DXP_RXDB_K_FCMP@-8> ;FUNCTION COMPLETE?
                          0C     13  00E3   364 	BEQL	45$			;IF EQL YES, CHECK ERRORS
            09            52     91  00E5   365 	CMPB	R2,#<DXP_RXDB_K_CMD@-8>	;PROTOCOL ERROR?
                          22     12  00E8   366 	BNEQ	60$			;IF NEQ GARBAGE IN SELECT FIELD
            05            51     91  00EA   367 	CMPB	R1,#DXP_RXDB_K_PRTC	;CHECK DATA BYTE
                          1B     13  00ED   368 	BEQL	50$			;IF EQL, PROTOCOL ERROR
                          1B     11  00EF   369 	BRB	60$			;ELSE GARBAGE IN DATA BYTE
                                     00F1   370 45$:					;
            50       01F4 8F     3C  00F1   371 	MOVZWL	#SS$_PARITY,R0		;ASSUME DATA ERROR
                          51     95  00F6   372 	TSTB	R1			;TEST FOR DATA ERROR
                          10     19  00F8   373 	BLSS	50$			;IF LSS DATA ERROR
            50       00BC 8F     3C  00FA   374 	MOVZWL	#SS$_FORMAT,R0		;ASSUME READ DELETED DATA
            51            06     E0  00FF   375 	BBS	#DXP_RXDB_V_DEL,R1,60$	;IF BIT SET, FATAL FORMAT ERROR
                          09         0102
                                     0103   376 47$:					;
            50       0054 8F     3C  0103   377 	MOVZWL	#SS$_CTRLERR,R0		;ELSE GARBAGE IN BYTE
DXPDRIVER       - STAR CONSOLE FLOPPY DISK DRIVER                21-AUG-1978 23:53:24   VAX-11 MACRO X0.3-11               Page   8
00              START I/O OPERATION                                                                                              (1)

                          02     11  0108   378 	BRB	60$			;FATAL CONTROLLER ERROR
                                     010A   379 50$:					;
                          53     D6  010A   380 	INCL	R3			;NONFATAL ERROR
                                     010C   381 60$:					;
                          FEF1'  30  010C   382 	BSBW	DX$ERR			;CALL COMMON EXCEPTION CODE
                          FF0D   31  010F   383 	BRW	RESTART			;RESTART TRANSFER
                                     0112   384
                                     0112   385 	.DSABL	LSB
                                     0112   386
                                     0112   387 ;+
                                     0112   388 ; REGDUMP - CONSOLE FLOPPY REGISTER DUMP ROUTINE
                                     0112   389 ;
                                     0112   390 ; THIS ROUTINE IS ENTERED TO COPY THE CONSOLE FLOPPY STATUS REGISTER
                                     0112   391 ; CONTENTS (RXDB) TO THE SPECIFIED BUFFER. IT IS CALLED FROM THE DE-
                                     0112   392 ; VICE ERROR LOGGING ROUTINE AND FROM THE DIAGNOSTIC BUFFER FILL ROU-
                                     0112   393 ; TINE.
                                     0112   394 ;
                                     0112   395 ; INPUTS:
                                     0112   396 ;
                                     0112   397 ;	R0 = ADDRESS OF REGISTER SAVE BUFFER
                                     0112   398 ;	R5 = ADDRESS OF UCB
                                     0112   399 ;
                                     0112   400 ; OUTPUTS:
                                     0112   401 ;
                                     0112   402 ;	THE COPY OF RXDB RECORDED IN THE UCB IS SAVED IN THE SPECIFIED BUFFER.
                                     0112   403 ;
                                     0112   404 ;-
                                     0112   405
                                     0112   406 REGDUMP:				;
            80            02     D0  0112   407 	MOVL	#2,(R0)+		;SET NUMBER OF DEVICE REGISTERS
            80         F8 A5     D0  0115   408 	MOVL	UCB$L_DX_RXDB(R5),(R0)+	;COPY DEVICE REGISTER
            60       0088 C5     D0  0119   409 	MOVL	UCB$L_MEDIA(R5),(R0)	;COPY LAST DISK ADDRESS
                                     011E   410 UNSOLNT:				;
                                 05  011E   411 	RSB				;
                                     011F   412
                                     011F   413 	.END
DXPDRIVER       - STAR CONSOLE FLOPPY DISK DRIVER                21-AUG-1978 23:53:24   VAX-11 MACRO X0.3-11               Page   9
SYMBOL TABLE                                                                                                                     (1)

ADP$B_TYPE       0000000A            DXP_RXDB_K_FCMP= 00000200            EMB$L_BC_R11     00000050
ADP$C_NUMDATAP = 00000010            DXP_RXDB_K_PRTC= 00000005            EMB$L_BC_R2      0000002C
ADP$L_DPQBL      00000010            DXP_RXDB_M_CRC = 00000001            EMB$L_BC_R3      00000030
ADP$L_DPQFL      0000000C            DXP_RXDB_M_DEL = 00000040            EMB$L_BC_R4      00000034
ADP$L_INTD       0000005C            DXP_RXDB_M_ERR = 00000080            EMB$L_BC_R5      00000038
ADP$L_LINK       00000004            DXP_RXDB_M_INI = 00000004            EMB$L_BC_R6      0000003C
ADP$L_MRQBL      00000018            DXP_RXDB_M_PAR = 00000002            EMB$L_BC_R7      00000040
ADP$L_MRQFL      00000014            DXP_RXDB_V_CRC = 00000000            EMB$L_BC_R8      00000044
ADP$L_UBACSR     00000000            DXP_RXDB_V_DEL = 00000006            EMB$L_BC_R9      00000048
ADP$W_DPBITMAP   0000001C            DXP_RXDB_V_ERR = 00000007            EMB$L_BC_SP      0000005C
ADP$W_MRBITMAP   0000001E            DXP_RXDB_V_INI = 00000002            EMB$L_BC_SSP     00000018
ADP$W_SIZE       00000008            DXP_RXDB_V_PAR = 00000001            EMB$L_BC_USP     0000001C
BIT...         = 00000008            EMB$B_BC_PCB     0000006E            EMB$L_CR_ACCS    0000009C
CON$STARTIO      ********   X   03   EMB$B_BUFIND     00000002            EMB$L_CR_AP      00000054
CRB$B_MASK       0000000E            EMB$B_DV_CLASS   00000012            EMB$L_CR_ASTLVL  00000088
CRB$B_TT_ATTN    00000004            EMB$B_DV_ERTCNT  00000006            EMB$L_CR_CODE    000000F4
CRB$B_TT_EXPEC   00000005            EMB$B_DV_ERTMAX  00000007            EMB$L_CR_ESP     00000014
CRB$B_TYPE       0000000A            EMB$B_DV_SLAVE   0000003C            EMB$L_CR_FP      00000058
CRB$C_LENGTH     00000028            EMB$B_DV_TYPE    00000013            EMB$L_CR_ICCS    00000090
CRB$K_LENGTH     00000028            EMB$B_SS_MSGTXT  00000012            EMB$L_CR_ICR     00000094
CRB$L_INTD       00000014            EMB$B_VALID      00000003            EMB$L_CR_ISP     00000020
CRB$L_LINK       00000010            EMB$C_BC_LENGTH  0000006E            EMB$L_CR_KSP     00000010
CRB$L_TT_DIAL    00000000            EMB$C_BE       = 00000004            EMB$L_CR_P0BR    00000068
CRB$L_WQBL       00000004            EMB$C_CR_LENGTH  000000FA            EMB$L_CR_P0LR    0000006C
CRB$L_WQFL       00000000            EMB$C_CS       = 00000020            EMB$L_CR_P1BR    00000070
CRB$M_BSY      = 00000001            EMB$C_DE       = 00000001            EMB$L_CR_P1LR    00000074
CRB$V_BSY      = 00000000            EMB$C_DT       = 00000096            EMB$L_CR_PC      00000060
CRB$W_REFC       0000000C            EMB$C_LENGTH     00000004            EMB$L_CR_PCBB    00000080
CRB$W_SIZE       00000008            EMB$C_OM       = 00000028            EMB$L_CR_PSL     00000064
DDB$B_ACPCLASS   00000013            EMB$C_SS       = 00000027            EMB$L_CR_R0      00000024
DDB$B_TYPE       0000000A            EMB$C_SS_LENGTH  00000012            EMB$L_CR_R1      00000028
DDB$C_LENGTH     00000014            EMB$C_TS       = 00000026            EMB$L_CR_R10     0000004C
DDB$K_LENGTH     00000014            EMB$C_TS_LENGTH  00000010            EMB$L_CR_R11     00000050
DDB$L_ACPD       00000010            EMB$C_UI       = 00000061            EMB$L_CR_R2      0000002C
DDB$L_DDT        0000000C            EMB$C_VD       = 00000041            EMB$L_CR_R3      00000030
DDB$L_LINK       00000000            EMB$C_VM       = 00000040            EMB$L_CR_R4      00000034
DDB$L_UCB        00000004            EMB$C_WS       = 00000024            EMB$L_CR_R5      00000038
DDB$T_NAME       00000014            EMB$K_BC_LENGTH  0000006E            EMB$L_CR_R6      0000003C
DDB$W_SIZE       00000008            EMB$K_CR       = 00000025            EMB$L_CR_R7      00000040
DDT$L_CANCEL     0000000C            EMB$K_CR_LENGTH  000000FA            EMB$L_CR_R8      00000044
DDT$L_FDT        00000008            EMB$K_LENGTH     00000004            EMB$L_CR_R9      00000048
DDT$L_INIT       00000018            EMB$K_MC       = 00000002            EMB$L_CR_SBIER   000000AC
DDT$L_REGDUMP    00000010            EMB$K_SBC      = 00000028            EMB$L_CR_SBIFS   000000A0
DDT$L_START      00000000            EMB$K_SS_LENGTH  00000012            EMB$L_CR_SBIMT   000000A8
DDT$L_UNSOLINT   00000004            EMB$K_TS_LENGTH  00000010            EMB$L_CR_SBIS    000000B4
DDT$W_DIAGBUF    00000014            EMB$K_UBC      = 00000080            EMB$L_CR_SBISC   000000A4
DDT$W_ERRORBUF   00000016            EMB$L_BC_AP      00000054            EMB$L_CR_SBITA   000000B0
DX$ERR           ********   X   03   EMB$L_BC_CODE    00000068            EMB$L_CR_SBR     00000078
DX$FUNCTABLE     ********   X   03   EMB$L_BC_ESP     00000014            EMB$L_CR_SCBB    00000084
DX$STARTIO       ********   X   03   EMB$L_BC_FP      00000058            EMB$L_CR_SISR    0000008C
DXP$DDT          00000000 RG    03   EMB$L_BC_ISP     00000020            EMB$L_CR_SLR     0000007C
DXPERR           000000CE R     03   EMB$L_BC_KSP     00000010            EMB$L_CR_SP      0000005C
DXPINP           00000067 R     03   EMB$L_BC_PC      00000060            EMB$L_CR_SSP     00000018
DXPOUT           0000008A R     03   EMB$L_BC_PSL     00000064            EMB$L_CR_TODR    00000098
DXPWRITE         00000050 R     03   EMB$L_BC_R0      00000024            EMB$L_CR_USP     0000001C
DXP_M_CMD      = 00000800            EMB$L_BC_R1      00000028            EMB$L_DV_CHAR    00000038
DXP_RXDB_K_CMD = 00000900            EMB$L_BC_R10     0000004C            EMB$L_DV_ERRSEQ  0000001C
DXPDRIVER       - STAR CONSOLE FLOPPY DISK DRIVER                21-AUG-1978 23:53:24   VAX-11 MACRO X0.3-11               Page  10
SYMBOL TABLE                                                                                                                     (1)

EMB$L_DV_MEDIA   00000028            IO$M_DATACHECK = 00004000            IO$V_PACKED    = 00000007
EMB$L_DV_OPCNT   00000030            IO$M_DELETE    = 00000100            IO$V_PURGE     = 0000000B
EMB$L_DV_OWNUIC  00000034            IO$M_DMOUNT    = 00000400            IO$V_READATTN  = 00000007
EMB$L_DV_REGSAV  00000050            IO$M_DSABLMBX  = 00000400            IO$V_REVERSE   = 00000006
EMB$L_DV_RQPID   00000020            IO$M_ENABLMBX  = 00000080            IO$V_SHUTDOWN  = 00000007
EMB$Q_BC_TIME    00000006            IO$M_FCODE     = 0000003F            IO$V_STARTUP   = 00000006
EMB$Q_CR_TIME    00000006            IO$M_HANGUP    = 00000200            IO$V_SYNCH     = 00000009
EMB$Q_DV_ERTIME  00000014            IO$M_INHERLOG  = 00000800            IO$V_TIMED     = 00000007
EMB$Q_DV_IOSB    00000008            IO$M_INHEXTGAP = 00001000            IO$V_TRMNOECHO = 0000000C
EMB$Q_SS_TIME    00000006            IO$M_INHRETRY  = 00008000            IO$V_WRTATTN   = 00000008
EMB$Q_TS_TIME    00000006            IO$M_INHSEEK   = 00001000            IO$_ACCESS     = 00000032
EMB$T_DV_NAME    00000040            IO$M_INTERRUPT = 00000040            IO$_ACPCONTROL = 00000038
EMB$W_BC_ENTRY   00000004            IO$M_MOUNT     = 00000200            IO$_CREATE     = 00000033
EMB$W_BC_ERRSEQ  0000000E            IO$M_NOECHO    = 00000040            IO$_DEACCESS   = 00000034
EMB$W_BC_PCBSZ   0000006C            IO$M_NOFILTR   = 00000200            IO$_DELETE     = 00000035
EMB$W_CR_ENTRY   00000004            IO$M_NOFORMAT  = 00000100            IO$_DIAGNOSE   = 0000001D
EMB$W_CR_ERRSEQ  0000000E            IO$M_NOW       = 00000040            IO$_DRVCLR     = 00000004
EMB$W_CR_PCBSZ   000000F8            IO$M_NOWAIT    = 00000080            IO$_ERASETAPE  = 00000006
EMB$W_DV_BCNT    00000026            IO$M_PACKED    = 00000080            IO$_LOGICAL    = 0000002F
EMB$W_DV_BOFF    00000024            IO$M_PURGE     = 00000800            IO$_MODIFY     = 00000036
EMB$W_DV_DEVSTS  00000010            IO$M_READATTN  = 00000080            IO$_MOUNT      = 00000039
EMB$W_DV_ENTRY   00000004            IO$M_REVERSE   = 00000040            IO$_NOP        = 00000000
EMB$W_DV_ERRCNT  0000002E            IO$M_SHUTDOWN  = 00000080            IO$_OFFSET     = 00000006
EMB$W_DV_FUNC    0000003E            IO$M_STARTUP   = 00000040            IO$_PACKACK    = 00000008
EMB$W_DV_UNIT    0000002C            IO$M_SYNCH     = 00000200            IO$_PHYSICAL   = 0000001F
EMB$W_SIZE       00000000            IO$M_TIMED     = 00000080            IO$_READHEAD   = 0000000E
EMB$W_SS_ENTRY   00000004            IO$M_TRMNOECHO = 00001000            IO$_READLBLK   = 00000021
EMB$W_SS_ERRSEQ  0000000E            IO$M_WRTATTN   = 00000100            IO$_READPBLK   = 0000000C
EMB$W_SS_MSGSZ   00000010            IO$S_FCODE     = 00000006            IO$_READPRESET = 00000019
EMB$W_TS_ENTRY   00000004            IO$V_ABORT     = 00000008            IO$_READPROMPT = 00000037
EMB$W_TS_ERRSEQ  0000000E            IO$V_ACCESS    = 00000006            IO$_READTRACKD = 00000010
EXE$IOFORK       ********   X   03   IO$V_ATTNAST   = 00000008            IO$_READVBLK   = 00000031
F_CANCEL       = 00000804            IO$V_BINARY    = 00000006            IO$_RECAL      = 00000003
F_READSECTOR   = 00000800            IO$V_CANCTRLO  = 00000006            IO$_RELEASE    = 00000005
F_READSTATUS   = 00000802            IO$V_COMMOD    = 00000006            IO$_RETCENTER  = 00000007
F_WRITEDELDATA = 00000803            IO$V_CREATE    = 00000007            IO$_REWIND     = 00000024
F_WRITESECTOR  = 00000801            IO$V_CTRLCAST  = 00000008            IO$_REWINDOFF  = 00000022
GBL...         = 00000000            IO$V_CTRLYAST  = 00000007            IO$_SEARCH     = 00000009
IDB$B_TYPE       0000000A            IO$V_CVTLOW    = 00000008            IO$_SEEK       = 00000002
IDB$B_UNITS      0000000B            IO$V_DATACHECK = 0000000E            IO$_SENSECHAR  = 0000001B
IDB$C_LENGTH     00000014            IO$V_DELETE    = 00000008            IO$_SENSEMODE  = 00000027
IDB$K_LENGTH     00000014            IO$V_DMOUNT    = 0000000A            IO$_SETCHAR    = 0000001A
IDB$L_ADP        0000000C            IO$V_DSABLMBX  = 0000000A            IO$_SETMODE    = 00000023
IDB$L_CSR        00000000            IO$V_ENABLMBX  = 00000007            IO$_SKIPFILE   = 00000025
IDB$L_OWNER      00000004            IO$V_FCODE     = 00000000            IO$_SKIPRECORD = 00000026
IDB$L_UCBLST     00000010            IO$V_HANGUP    = 00000009            IO$_SPACEFILE  = 00000002
IDB$W_SIZE       00000008            IO$V_INHERLOG  = 0000000B            IO$_SPACERECORD= 00000009
IO$M_ABORT     = 00000100            IO$V_INHEXTGAP = 0000000C            IO$_STARTSPNDL = 00000019
IO$M_ACCESS    = 00000040            IO$V_INHRETRY  = 0000000F            IO$_UNLOAD     = 00000001
IO$M_ATTNAST   = 00000100            IO$V_INHSEEK   = 0000000C            IO$_VIRTUAL    = 0000003F
IO$M_BINARY    = 00000040            IO$V_INTERRUPT = 00000006            IO$_WRITECHECK = 0000000A
IO$M_CANCTRLO  = 00000040            IO$V_MOUNT     = 00000009            IO$_WRITECHECKH= 00000018
IO$M_COMMOD    = 00000040            IO$V_NOECHO    = 00000006            IO$_WRITEHEAD  = 0000000D
IO$M_CREATE    = 00000080            IO$V_NOFILTR   = 00000009            IO$_WRITELBLK  = 00000020
IO$M_CTRLCAST  = 00000100            IO$V_NOFORMAT  = 00000008            IO$_WRITEMARK  = 0000001C
IO$M_CTRLYAST  = 00000080            IO$V_NOW       = 00000006            IO$_WRITEOF    = 00000028
IO$M_CVTLOW    = 00000100            IO$V_NOWAIT    = 00000007            IO$_WRITEPBLK  = 0000000B
DXPDRIVER       - STAR CONSOLE FLOPPY DISK DRIVER                21-AUG-1978 23:53:24   VAX-11 MACRO X0.3-11               Page  11
SYMBOL TABLE                                                                                                                     (1)

IO$_WRITETRACKD= 0000000F            IRP$W_OBCNT      0000003E            SS$_BADIMGHDR  = 00000044
IO$_WRITEVBLK  = 00000030            IRP$W_SIZE       00000008            SS$_BADIRECTORY= 00000828
IOC$WFIKPCH      ********   X   03   IRP$W_STS        0000002A            SS$_BADPARAM   = 00000014
IRP$B_CARCON     00000038            IRP$W_TT_PRMPT   0000003C            SS$_BADSTACK   = 000002B4
IRP$B_EFN        00000022            PR$_ACCR       = 00000029            SS$_BEGOFFILE  = 00000938
IRP$B_PRI        00000023            PR$_ACCS       = 00000028            SS$_BLOCKCNTERR= 00000940
IRP$B_RMOD       0000000B            PR$_ASTLVL     = 00000013            SS$_BREAK      = 00000414
IRP$B_TYPE       0000000A            PR$_ESP        = 00000001            SS$_BUFFEROVF  = 00000601
IRP$C_LENGTH     0000004C            PR$_ICCS       = 00000018            SS$_BUGCHECK   = 000002A4
IRP$K_LENGTH     0000004C            PR$_ICR        = 0000001A            SS$_CANCEL     = 00000830
IRP$L_AST        00000010            PR$_IPL        = 00000012            SS$_CHANINTLK  = 0000004C
IRP$L_ASTPRM     00000014            PR$_ISP        = 00000004            SS$_CLIFRCEXT  = 00000980
IRP$L_DIAGBUF    00000044            PR$_KSP        = 00000000            SS$_CMODSUPR   = 0000041C
IRP$L_IOQBL      00000004            PR$_MAPEN      = 00000038            SS$_CMODUSER   = 00000424
IRP$L_IOQFL      00000000            PR$_NICR       = 00000019            SS$_COMPAT     = 0000042C
IRP$L_IOSB       00000024            PR$_P0BR       = 00000008            SS$_CONTINUE   = 00000001
IRP$L_IOST1      00000034            PR$_P0LR       = 00000009            SS$_CONTROLC   = 00000651
IRP$L_IOST2      00000038            PR$_P1BR       = 0000000A            SS$_CONTROLO   = 00000609
IRP$L_MEDIA      00000034            PR$_P1LR       = 0000000B            SS$_CONTROLY   = 00000611
IRP$L_PID        0000000C            PR$_PCBB       = 00000010            SS$_CREATED    = 00000619
IRP$L_SEGVBN     00000040            PR$_RXCS       = 00000020            SS$_CTRLERR    = 00000054
IRP$L_SEQNUM     00000048            PR$_RXDB       = 00000021            SS$_DATACHECK  = 0000005C
IRP$L_SVAPTE     0000002C            PR$_SBIER      = 00000034            SS$_DATAOVERUN = 00000838
IRP$L_TT_TERM    00000038            PR$_SBIFS      = 00000030            SS$_DEBUG      = 0000046C
IRP$L_UCB        0000001C            PR$_SBIMT      = 00000033            SS$_DEVACTIVE  = 000002C4
IRP$L_WIND       00000018            PR$_SBIQC      = 00000036            SS$_DEVALLOC   = 00000840
IRP$M_BUFIO    = 00000001            PR$_SBIS       = 00000031            SS$_DEVALRALLOC= 00000641
IRP$M_CHAINED  = 00000020            PR$_SBISC      = 00000032            SS$_DEVASSIGN  = 00000848
IRP$M_COMPLX   = 00000008            PR$_SBITA      = 00000035            SS$_DEVFOREIGN = 00000064
IRP$M_DIAGBUF  = 00000080            PR$_SBR        = 0000000C            SS$_DEVICEFULL = 00000850
IRP$M_FUNC     = 00000002            PR$_SCBB       = 00000011            SS$_DEVMOUNT   = 0000006C
IRP$M_PAGIO    = 00000004            PR$_SID        = 0000003E            SS$_DEVNOTALLOC= 00000858
IRP$M_PHYSIO   = 00000100            PR$_SIRR       = 00000014            SS$_DEVNOTMBX  = 00000074
IRP$M_PRIVIO   = 00000200            PR$_SISR       = 00000015            SS$_DEVNOTMOUNT= 0000007C
IRP$M_SWAPIO   = 00000040            PR$_SLR        = 0000000D            SS$_DEVOFFLINE = 00000084
IRP$M_VIRTUAL  = 00000010            PR$_SSP        = 00000002            SS$_DIRFULL    = 00000860
IRP$S_FCODE    = 00000006            PR$_TBIA       = 00000039            SS$_DRVERR     = 0000008C
IRP$S_FMOD     = 0000000A            PR$_TBIS       = 0000003A            SS$_DUPFILENAME= 00000868
IRP$S_MODE     = 00000002            PR$_TODR       = 0000001B            SS$_DUPLNAM    = 00000094
IRP$V_BUFIO    = 00000000            PR$_TXCS       = 00000022            SS$_ENDOFFILE  = 00000870
IRP$V_CHAINED  = 00000005            PR$_TXDB       = 00000023            SS$_ENDOFTAPE  = 00000878
IRP$V_COMPLX   = 00000003            PR$_USP        = 00000003            SS$_ENDOFUSRLBL= 00000970
IRP$V_DIAGBUF  = 00000007            PR$_WCSA       = 0000002C            SS$_EXQUOTA    = 0000001C
IRP$V_FCODE    = 00000000            PR$_WCSD       = 0000002D            SS$_EXTIDXFILE = 00000880
IRP$V_FMOD     = 00000006            REGDUMP          00000112 R     03   SS$_FCPREADERR = 00000888
IRP$V_FUNC     = 00000001            RESTART          0000001F R     03   SS$_FCPREPSTN  = 00000988
IRP$V_MODE     = 00000000            SS$_ABORT      = 0000002C            SS$_FCPREWNDERR= 00000890
IRP$V_PAGIO    = 00000002            SS$_ACCONFLICT = 00000800            SS$_FCPSPACERR = 00000898
IRP$V_PHYSIO   = 00000008            SS$_ACCVIO     = 0000000C            SS$_FCPWRITERR = 000008A0
IRP$V_PRIVIO   = 00000009            SS$_ARITH      = 00000404            SS$_FILACCERR  = 0000009C
IRP$V_SWAPIO   = 00000006            SS$_ASTFLT     = 0000040C            SS$_FILALRACC  = 000000A4
IRP$V_VIRTUAL  = 00000004            SS$_BADATTRIB  = 00000034            SS$_FILELOCKED = 000008A8
IRP$W_ABCNT      0000003C            SS$_BADCHKSUM  = 00000808            SS$_FILENUMCHK = 000008B0
IRP$W_BCNT       00000032            SS$_BADESCAPE  = 0000003C            SS$_FILESEQCHK = 000008B8
IRP$W_BOFF       00000030            SS$_BADFILEHDR = 00000810            SS$_FILESTRUCT = 000008C0
IRP$W_CHAN       00000028            SS$_BADFILENAME= 00000818            SS$_FILNOTACC  = 000000AC
IRP$W_FUNC       00000020            SS$_BADFILEVER = 00000820            SS$_FILNOTCNTG = 000002AC
DXPDRIVER       - STAR CONSOLE FLOPPY DISK DRIVER                21-AUG-1978 23:53:24   VAX-11 MACRO X0.3-11               Page  12
SYMBOL TABLE                                                                                                                     (1)

SS$_FILNOTEXP  = 000000B4            SS$_NORMAL     = 00000001            UBA$L_FUBAR      00000014
SS$_FORMAT     = 000000BC            SS$_NOSIGNAL   = 00000900            UBA$L_MAP        00000800
SS$_GPTFULL    = 000000C4            SS$_NOSOLICIT  = 00000284            UBA$L_SR         00000008
SS$_GSDFULL    = 000000CC            SS$_NOSUCHDEV  = 00000908            UBA$M_BRRVR_AIR= 80000000
SS$_GSDNOTXXX  = 000000D4            SS$_NOSUCHFILE = 00000910            UBA$M_CR_ARLVL = 00000180
SS$_HANGUP     = 000002CC            SS$_NOSUCHNODE = 0000028C            UBA$M_CR_BRIE  = 00000020
SS$_HEADERFULL = 000008C8            SS$_NOSUCHSEC  = 00000978            UBA$M_CR_CNFIE = 00000004
SS$_IDXFILEFULL= 000008D0            SS$_NOTAPEOP   = 00000264            UBA$M_CR_IFSIE = 00000040
SS$_ILLBLKNUM  = 000000DC            SS$_NOTFILEDEV = 000001CC            UBA$M_CR_INIT  = 00000001
SS$_ILLCNTRFUNC= 000000E4            SS$_NOTINTBLSZ = 000001D4            UBA$M_CR_SUEFIE= 00000008
SS$_ILLEFC     = 000000EC            SS$_NOTLABELMT = 000001DC            UBA$M_CR_UBPF  = 00000002
SS$_ILLIOFUNC  = 000000F4            SS$_NOTNETDEV  = 000002EC            UBA$M_CR_USEFIE= 00000010
SS$_ILLLBLAST  = 00000968            SS$_NOTRAN     = 00000629            UBA$M_CSR_IS   = 10000000
SS$_ILLPAGCNT  = 000000FC            SS$_NOTSQDEV   = 000001E4            UBA$M_CSR_MT   = 08000000
SS$_ILLSEQOP   = 000002DC            SS$_OPCCUS     = 00000434            UBA$M_CSR_OT   = 00200000
SS$_ILLSER     = 00000104            SS$_OPCDEC     = 0000043C            UBA$M_CSR_PD   = 00800000
SS$_ILLUSRLBLRD= 00000958            SS$_OPINCOMPL  = 000002D4            UBA$M_CSR_PE   = 80000000
SS$_ILLUSRLBLWT= 00000960            SS$_PAGOWNVIO  = 000001EC            UBA$M_CSR_PU   = 00400000
SS$_INCVOLLABEL= 0000010C            SS$_PAGRDERR   = 00000444            UBA$M_CSR_UBIC = 00010000
SS$_INSFARG    = 00000114            SS$_PARITY     = 000001F4            UBA$M_CSR_UBIIP= 00040000
SS$_INSFMEM    = 00000124            SS$_PARTESCAPE = 000001FC            UBA$M_CSR_UBPDN= 00020000
SS$_INSFRAME   = 0000012C            SS$_PFMBSY     = 00000204            UBA$M_CSR_URD  = 20000000
SS$_INSFWSL    = 0000011C            SS$_PSTFULL    = 0000020C            UBA$M_CSR_WS   = 40000000
SS$_IVADDR     = 00000134            SS$_RADRMOD    = 0000044C            UBA$M_CSR_XMFLT= 04000000
SS$_IVCHAN     = 0000013C            SS$_REJECT     = 00000294            UBA$M_DPR_BNE  = 80000000
SS$_IVCHNLSEC  = 0000026C            SS$_REMOTE     = 00000649            UBA$M_DPR_DPF  = 20000000
SS$_IVDEVNAM   = 00000144            SS$_RESIGNAL   = 00000918            UBA$M_DPR_XMTER= 40000000
SS$_IVGSDNAM   = 0000014C            SS$_RESULTOVF  = 00000214            UBA$M_MAP_BO   = 02000000
SS$_IVLOGNAM   = 00000154            SS$_ROPRAND    = 00000454            UBA$M_MAP_VALID= 80000000
SS$_IVLOGTAB   = 0000015C            SS$_SECTBLFUL  = 0000021C            UBA$M_SR_BRID  = 00000800
SS$_IVPROTECT  = 000002F4            SS$_SSFAIL     = 0000045C            UBA$M_SR_BRSVF = 10000000
SS$_IVQUOTAL   = 00000164            SS$_SUPERSEDE  = 00000631            UBA$M_SR_CRD   = 00000100
SS$_IVSECFLG   = 0000016C            SS$_TAPEPOSLOST= 00000224            UBA$M_SR_CXTER = 00000080
SS$_IVSECIDCTL = 000002E4            SS$_TBIT       = 00000464            UBA$M_SR_CXTMO = 00000040
SS$_IVSSRQ     = 00000174            SS$_TIMEOUT    = 0000022C            UBA$M_SR_DPPE  = 00000020
SS$_IVSTSFLG   = 0000017C            SS$_TOOMANYVER = 00000990            UBA$M_SR_IVMR  = 00000010
SS$_IVTIME     = 00000184            SS$_TOOMUCHDATA= 0000029C            UBA$M_SR_LER   = 00000004
SS$_LENVIO     = 0000018C            SS$_UNASEFC    = 00000234            UBA$M_SR_MRPE  = 00000008
SS$_LKWSETFUL  = 00000194            SS$_UNSAFE     = 0000023C            UBA$M_SR_RDS   = 00000200
SS$_MBFULL     = 000008D8            SS$_UNWIND     = 00000920            UBA$M_SR_RDTO  = 00000400
SS$_MBTOOSML   = 0000019C            SS$_UNWINDING  = 00000928            UBA$M_SR_RIE   = 20000000
SS$_MCHECK     = 000002BC            SS$_VASFULL    = 00000244            UBA$M_SR_SSYNC = 00000001
SS$_MEDOFL     = 000001A4            SS$_VECINUSE   = 0000024C            UBA$M_SR_UBIFS = 40000000
SS$_MSGNOTFND  = 00000621            SS$_VOLINV     = 00000254            UBA$M_SR_UBSTO = 00000002
SS$_MUSTCLOSEFL= 00000948            SS$_WAITUSRLBL = 00000950            UBA$S_BRRVR_IVA= 00000010
SS$_NODATA     = 000001AC            SS$_WASCLR     = 00000001            UBA$S_CR_ARLVL = 00000002
SS$_NOHANDLER  = 000008F8            SS$_WASECC     = 00000639            UBA$S_CR_MRDSB = 00000005
SS$_NOHOMEBLK  = 000008E0            SS$_WASSET     = 00000009            UBA$S_CSR_ADCOD= 00000008
SS$_NOIOCHAN   = 000001B4            SS$_WRITLCK    = 0000025C            UBA$S_DPR_ADDR = 00000010
SS$_NOLINKS    = 0000027C            STARTIO          0000001C R     03   UBA$S_DPR_STATE= 00000008
SS$_NOLOGNAM   = 000001BC            UBA$L_BRRVR      00000030            UBA$S_FMER_MRN = 00000009
SS$_NOMBX      = 00000274            UBA$L_BRSVR      00000020            UBA$S_FUBAR_ADR= 00000012
SS$_NOMOREFILES= 00000930            UBA$L_CR         00000004            UBA$S_MAP_ADDR = 00000015
SS$_NONEXDRV   = 000001C4            UBA$L_CSR        00000000            UBA$S_MAP_DPD  = 00000004
SS$_NONEXPR    = 000008E8            UBA$L_DCR        0000000C            UBA$S_SR_BRRVF = 00000004
SS$_NONLOCAL   = 000008F0            UBA$L_DPR        00000040            UBA$V_BRRVR_AIR= 0000001F
SS$_NOPRIV     = 00000024            UBA$L_FMER       00000010            UBA$V_BRRVR_IVA= 00000000
DXPDRIVER       - STAR CONSOLE FLOPPY DISK DRIVER                21-AUG-1978 23:53:24   VAX-11 MACRO X0.3-11               Page  13
SYMBOL TABLE                                                                                                                     (1)

UBA$V_CR_ARLVL = 00000007            UCB$B_DX_SPARE   FFFFFFFF            UCB$L_VCB        00000030
UBA$V_CR_BRIE  = 00000005            UCB$B_ERTCNT     00000070            UCB$M_BSY      = 00000100
UBA$V_CR_CNFIE = 00000002            UCB$B_ERTMAX     00000071            UCB$M_CANCEL   = 00000008
UBA$V_CR_IFSIE = 00000006            UCB$B_ESCAPE     0000004B            UCB$M_DEADMO   = 00000400
UBA$V_CR_INIT  = 00000000            UCB$B_FEX        00000076            UCB$M_DELMBX   = 00000002
UBA$V_CR_MRDSB = 0000001A            UCB$B_FIPL       0000000B            UCB$M_DIAGBUF  = 00000002
UBA$V_CR_SUEFIE= 00000003            UCB$B_LOCSRV     0000003C            UCB$M_DX_WRITE = 00000008
UBA$V_CR_UBPF  = 00000001            UCB$B_OFFNDX     00000090            UCB$M_ECC      = 00000001
UBA$V_CR_USEFIE= 00000004            UCB$B_OFFRTC     00000091            UCB$M_ERLOGIP  = 00000004
UBA$V_CSR_ADCOD= 00000000            UCB$B_REMSRV     0000003D            UCB$M_INT      = 00000002
UBA$V_CSR_IS   = 0000001C            UCB$B_SECTORS    0000003C            UCB$M_INTTYPE  = 00000080
UBA$V_CSR_MT   = 0000001B            UCB$B_SLAVE      00000074            UCB$M_JOB      = 00000001
UBA$V_CSR_OT   = 00000015            UCB$B_SPR        00000075            UCB$M_MOUNTING = 00000200
UBA$V_CSR_PD   = 00000017            UCB$B_STATE      00000052            UCB$M_NOCNVRT  = 00000004
UBA$V_CSR_PE   = 0000001F            UCB$B_TRACKS     0000003D            UCB$M_NT_BFROVF= 00000004
UBA$V_CSR_PU   = 00000016            UCB$B_TYPE       0000000A            UCB$M_NT_BREAK = 00000020
UBA$V_CSR_UBIC = 00000010            UCB$B_VERTSZ     0000003F            UCB$M_NT_NAME  = 00000010
UBA$V_CSR_UBIIP= 00000012            UCB$C_LENGTH     00000074            UCB$M_NT_NONTR = 00000040
UBA$V_CSR_UBPDN= 00000011            UCB$C_LOGLNK   = 00000001            UCB$M_NT_SDP   = 00000008
UBA$V_CSR_URD  = 0000001D            UCB$K_LENGTH     00000074            UCB$M_ONLINE   = 00000010
UBA$V_CSR_WS   = 0000001E            UCB$L_AMB        00000054            UCB$M_POWER    = 00000020
UBA$V_CSR_XMFLT= 0000001A            UCB$L_ASTQBL     00000010            UCB$M_PRMMBX   = 00000001
UBA$V_DPR_ADDR = 00000000            UCB$L_ASTQFL     0000000C            UCB$M_TIM      = 00000001
UBA$V_DPR_BNE  = 0000001F            UCB$L_CPID       0000005C            UCB$M_TIMOUT   = 00000040
UBA$V_DPR_DPF  = 0000001D            UCB$L_CRB        00000020            UCB$M_TT_NOTIF = 00000004
UBA$V_DPR_STATE= 00000010            UCB$L_DDB        00000024            UCB$M_TT_TIMO  = 00000002
UBA$V_DPR_XMTER= 0000001E            UCB$L_DEVCHAR    00000034            UCB$M_VALID    = 00000800
UBA$V_FMER_MRN = 00000000            UCB$L_DEVDEPEND  0000003C            UCB$S_LNKPRI   = 00000002
UBA$V_FUBAR_ADR= 00000000            UCB$L_DPC        0000007C            UCB$S_LTYPE    = 00000002
UBA$V_MAP_ADDR = 00000000            UCB$L_DUETIM     0000005C            UCB$T_PARTNER    0000000C
UBA$V_MAP_BO   = 00000019            UCB$L_DX_BFPNT   FFFFFFF4            UCB$V_BACKP    = 00000005
UBA$V_MAP_DPD  = 00000015            UCB$L_DX_BUF     FFFFFFF0            UCB$V_BSY      = 00000008
UBA$V_MAP_VALID= 0000001F            UCB$L_DX_RXDB    FFFFFFF8            UCB$V_CANCEL   = 00000003
UBA$V_SR_BRID  = 0000000B            UCB$L_EMB        00000078            UCB$V_DEADMO   = 0000000A
UBA$V_SR_BRRVF = 00000018            UCB$L_FIRST      00000014            UCB$V_DELMBX   = 00000001
UBA$V_SR_BRSVF = 0000001C            UCB$L_FPC        0000000C            UCB$V_DIAGBUF  = 00000001
UBA$V_SR_CRD   = 00000008            UCB$L_FQBL       00000004            UCB$V_DX_WRITE = 00000003
UBA$V_SR_CXTER = 00000007            UCB$L_FQFL       00000000            UCB$V_ECC      = 00000000
UBA$V_SR_CXTMO = 00000006            UCB$L_FR3        00000010            UCB$V_ERLOGIP  = 00000002
UBA$V_SR_DPPE  = 00000005            UCB$L_FR4        00000014            UCB$V_INT      = 00000001
UBA$V_SR_IVMR  = 00000004            UCB$L_IOQBL      00000044            UCB$V_INTTYPE  = 00000007
UBA$V_SR_LER   = 00000002            UCB$L_IOQFL      00000040            UCB$V_JOB      = 00000000
UBA$V_SR_MRPE  = 00000003            UCB$L_IRP        0000004C            UCB$V_LNKPRI   = 00000006
UBA$V_SR_RDS   = 00000009            UCB$L_LINK       0000002C            UCB$V_LTYPE    = 00000000
UBA$V_SR_RDTO  = 0000000A            UCB$L_LOGADR     00000064            UCB$V_MOUNTING = 00000009
UBA$V_SR_RIE   = 0000001D            UCB$L_MAXBLOCK   00000080            UCB$V_MSGACK   = 00000004
UBA$V_SR_SSYNC = 00000000            UCB$L_MEDIA      00000088            UCB$V_MSGFLO   = 00000003
UBA$V_SR_UBIFS = 0000001E            UCB$L_NT_DATSSB  00000074            UCB$V_NOCNVRT  = 00000002
UBA$V_SR_UBSTO = 00000001            UCB$L_NT_INTSSB  00000078            UCB$V_NT_BFROVF= 00000002
UCB$B_AMOD       00000053            UCB$L_OPCNT      00000060            UCB$V_NT_BREAK = 00000005
UCB$B_CEX        00000077            UCB$L_OWNUIC     0000001C            UCB$V_NT_NAME  = 00000004
UCB$B_CM1        0000004A            UCB$L_PID        00000028            UCB$V_NT_NONTR = 00000006
UCB$B_CM2        0000004B            UCB$L_RQBL       00000004            UCB$V_NT_SDP   = 00000003
UCB$B_DEVCLASS   00000038            UCB$L_RQFL       00000000            UCB$V_ONLINE   = 00000004
UCB$B_DEVTYPE    00000039            UCB$L_SVAPTE     00000068            UCB$V_POWER    = 00000005
UCB$B_DIPL       00000052            UCB$L_SVPN       00000064            UCB$V_PRMMBX   = 00000000
UCB$B_DX_SCTCNT  FFFFFFFE            UCB$L_TTCHAR     0000003C            UCB$V_SEGFLO   = 00000002
DXPDRIVER       - STAR CONSOLE FLOPPY DISK DRIVER                21-AUG-1978 23:53:24   VAX-11 MACRO X0.3-11               Page  14
SYMBOL TABLE                                                                                                                     (1)

UCB$V_TIM      = 00000000
UCB$V_TIMOUT   = 00000006
UCB$V_TT_NOTIF = 00000002
UCB$V_TT_TIMO  = 00000001
UCB$V_VALID    = 0000000B
UCB$W_BCNT       0000006E
UCB$W_BCR        00000092
UCB$W_BOFF       0000006C
UCB$W_BUFQUO     00000018
UCB$W_BYTESTOGO  0000003E
UCB$W_CHARGE     0000004A
UCB$W_CYLINDERS  0000003E
UCB$W_DA         00000088
UCB$W_DC         0000008A
UCB$W_DEVBUFSIZ  0000003A
UCB$W_DEVSTS     0000005A
UCB$W_DSTADDR    00000018
UCB$W_DX_BCR     FFFFFFFC
UCB$W_EC1        0000008C
UCB$W_EC2        0000008E
UCB$W_ERRCNT     00000072
UCB$W_FUNC       00000084
UCB$W_MB_SEED    FFFFFFFC
UCB$W_MSGCNT     00000016
UCB$W_MSGMAX     00000014
UCB$W_NT_CHAN    0000007C
UCB$W_OFFSET     00000086
UCB$W_REFC       00000050
UCB$W_SIZE       00000008
UCB$W_SRCADDR    0000001A
UCB$W_STS        00000058
UCB$W_UNIT       00000048
UCB$W_VPROT      0000001A
UNSOLNT          0000011E R     03
VEC$B_DATAPATH   00000013
VEC$B_NUMREG     00000012
VEC$L_ADP        00000014
VEC$L_IDB        00000008
VEC$L_INITIAL    0000000C
VEC$L_TT_DISC    00000020
VEC$L_TT_ILINE   00000018
VEC$L_TT_STRTIO  0000001C
VEC$M_MAPLOCK  = 00008000
VEC$M_PATHLOCK = 00000080
VEC$Q_DISPATCH   00000000
VEC$S_DATAPATH = 00000007
VEC$S_MAPREG   = 0000000F
VEC$V_DATAPATH = 00000000
VEC$V_MAPLOCK  = 0000000F
VEC$V_MAPREG   = 00000000
VEC$V_PATHLOCK = 00000007
VEC$W_MAPREG     00000010


PROGRAM SECTION SYNOPSIS

.  ABS  .        00000000      00     NOPIC   USR   CON   ABS   LCL NOSHR NOEXE NORD  NOWRT BYTE
DXPDRIVER       - STAR CONSOLE FLOPPY DISK DRIVER                21-AUG-1978 23:53:24   VAX-11 MACRO X0.3-11               Page  15
PROGRAM SECTION SYNOPSIS                                                                                                         (1)

. BLANK .        00000000      01     NOPIC   USR   CON   REL   LCL NOSHR   EXE   RD    WRT BYTE
$ABS$            FFFFFFFF      02     NOPIC   USR   CON   ABS   LCL NOSHR   EXE   RD    WRT BYTE
WIONONPAGED      0000011F      03     NOPIC   USR   CON   REL   LCL NOSHR   EXE   RD    WRT BYTE


THERE WERE NO ERRORS OR WARNINGS.
2374. BYTES LEFT IN FREE MEMORY POOL.
3002. BYTES OF RECLAIMED MEMORY.
OBJ$:DXPDRIVER,LIS$:DXPDRIVER/-SP=LIB$:LIB/ML,SRC$:DXPDRIVER
14 MLB DIR RDS - 1358 GETS TO DEFINE 27 MACROS. 101 INTER. FILE WRITES.
