IOPERFORM                                                        22-AUG-1978 00:13:43   VAX-11 MACRO X0.3-11               Page   0
TABLE OF CONTENTS

   (1)      46  DECLARATIONS
   (1)      64  DUMMY ROUTINES FOR I/O PERFORMANCE MEASUREMENT
IOPERFORM                                                        22-AUG-1978 00:13:43   VAX-11 MACRO X0.3-11               Page   1
00                                                                                                                               (1)

                                     0000     1 	.TITLE	IOPERFORM
                                     0000     2 	.IDENT	/00/
                                     0000     3
                                     0000     4 ;
                                     0000     5 ;			  COPYRIGHT (c) 1977 BY
                                     0000     6 ;	      DIGITAL EQUIPMENT CORPORATION, MAYNARD, MASS.
                                     0000     7 ;
                                     0000     8 ; THIS SOFTWARE IS FURNISHED UNDER A LICENSE AND MAY BE USED AND  COPIED
                                     0000     9 ; ONLY  IN  ACCORDANCE  WITH  THE  TERMS  OF  SUCH  LICENSE AND WITH THE
                                     0000    10 ; INCLUSION OF THE ABOVE COPYRIGHT NOTICE.  THIS SOFTWARE OR  ANY  OTHER
                                     0000    11 ; COPIES  THEREOF MAY NOT BE PROVIDED OR OTHERWISE MADE AVAILABLE TO ANY
                                     0000    12 ; OTHER PERSON.  NO TITLE TO AND OWNERSHIP OF  THE  SOFTWARE  IS  HEREBY
                                     0000    13 ; TRANSFERRED.
                                     0000    14 ;
                                     0000    15 ; THE INFORMATION IN THIS SOFTWARE IS SUBJECT TO CHANGE  WITHOUT  NOTICE
                                     0000    16 ; AND  SHOULD  NOT  BE  CONSTRUED  AS  A COMMITMENT BY DIGITAL EQUIPMENT
                                     0000    17 ; CORPORATION.
                                     0000    18 ;
                                     0000    19 ; DIGITAL ASSUMES NO RESPONSIBILITY FOR THE USE OR  RELIABILITY  OF  ITS
                                     0000    20 ; SOFTWARE ON EQUIPMENT WHICH IS NOT SUPPLIED BY DIGITAL.
                                     0000    21 ;
                                     0000    22
                                     0000    23 ;++
                                     0000    24 ; FACILITY:
                                     0000    25 ;
                                     0000    26 ;	STAND-ALONE EXECUTIVE FOR THE DSC UTILITY
                                     0000    27 ;
                                     0000    28 ; ABSTRACT:
                                     0000    29 ;
                                     0000    30 ;	THESE DUMMY ROUTINES REPLACE THE I/O PERFORMANCE MEASUREMENT
                                     0000    31 ;	SUBROUTINES FOR THE STAND-ALONE SYSTEM
                                     0000    32 ;
                                     0000    33 ;
                                     0000    34 ; ENVIRONMENT:
                                     0000    35 ;
                                     0000    36 ;	STAND-ALONE EXECUTIVE KERNAL MODE
                                     0000    37 ;
                                     0000    38 ; AUTHOR: C. A. MONIA	, CREATION DATE: 24-JAN-1978
                                     0000    39 ;
                                     0000    40 ; MODIFIED BY:
                                     0000    41 ;
                                     0000    42 ;	, : VERSION
                                     0000    43 ; 01	-
                                     0000    44 ;--
IOPERFORM                                                        22-AUG-1978 00:13:43   VAX-11 MACRO X0.3-11               Page   2
00              DECLARATIONS                                                                                                     (1)

                                     0000    46 	.SBTTL	DECLARATIONS
                                     0000    47 ;
                                     0000    48 ; INCLUDE FILES:
                                     0000    49 ;
                                     0000    50
                                     0000    51 ;
                                     0000    52 ; MACROS:
                                     0000    53 ;
                                     0000    54
                                     0000    55 ;
                                     0000    56 ; EQUATED SYMBOLS:
                                     0000    57 ;
                                     0000    58
                                     0000    59 ;
                                     0000    60 ; OWN STORAGE:
                                     0000    61 ;
                                     0000    62
IOPERFORM                                                        22-AUG-1978 00:13:43   VAX-11 MACRO X0.3-11               Page   3
00              DUMMY ROUTINES FOR I/O PERFORMANCE MEASUREMENT                                                                   (1)

                                     0000    64 	.SBTTL	DUMMY ROUTINES FOR I/O PERFORMANCE MEASUREMENT
                                     0000    65 ;++
                                     0000    66 ; FUNCTIONAL DESCRIPTION:
                                     0000    67 ;
                                     0000    68 ;	THE FOLLOWING ENTRY POINTS FOR PERFORMANCE MEASUREMENT ARE REPLACED:
                                     0000    69 ;
                                     0000    70 ;		PMS$END_IO
                                     0000    71 ;		PMS$END_RQ
                                     0000    72 ;		PMS$START_IO
                                     0000    73 ;		PMS$START_RQ
                                     0000    74 ;
                                     0000    75 ;
                                     0000    76 ; CALLING SEQUENCE:
                                     0000    77 ;
                                     0000    78 ;	BSBW	ENTRY
                                     0000    79 ;
                                     0000    80 ; INPUT PARAMETERS:
                                     0000    81 ;
                                     0000    82 ;	NONE
                                     0000    83 ;
                                     0000    84 ; IMPLICIT INPUTS:
                                     0000    85 ;
                                     0000    86 ;	NONE
                                     0000    87 ;
                                     0000    88 ; OUTPUT PARAMETERS:
                                     0000    89 ;
                                     0000    90 ;	NONE
                                     0000    91 ;
                                     0000    92 ; IMPLICIT OUTPUTS:
                                     0000    93 ;
                                     0000    94 ;	NONE
                                     0000    95 ;
                                     0000    96 ; COMPLETION CODES:
                                     0000    97 ;
                                     0000    98 ;	NONE
                                     0000    99 ;
                                     0000   100 ; SIDE EFFECTS:
                                     0000   101 ;
                                     0000   102 ;	NONE
                                     0000   103 ;
                                     0000   104 ;--
                                     0000   105
                                 00000000   106 	.PSECT	$AEXENONPAGED
                                     0000   107
                                     0000   108 PMS$END_IO::				; DUMMY ENTRY POINTS
                                     0000   109 PMS$END_RQ::				; ....
                                     0000   110 PMS$START_IO::				; ....
                                     0000   111 PMS$START_RQ::				; ....
                                 05  0000   112 	RSB
                                     0001   113
                                     0001   114 	.END
IOPERFORM                                                        22-AUG-1978 00:13:43   VAX-11 MACRO X0.3-11               Page   4
SYMBOL TABLE                                                                                                                     (1)

PMS$END_IO       00000000 RG    02
PMS$END_RQ       00000000 RG    02
PMS$START_IO     00000000 RG    02
PMS$START_RQ     00000000 RG    02


PROGRAM SECTION SYNOPSIS

.  ABS  .        00000000      00     NOPIC   USR   CON   ABS   LCL NOSHR NOEXE NORD  NOWRT BYTE
. BLANK .        00000000      01     NOPIC   USR   CON   REL   LCL NOSHR   EXE   RD    WRT BYTE
$AEXENONPAGED    00000001      02     NOPIC   USR   CON   REL   LCL NOSHR   EXE   RD    WRT BYTE


THERE WERE NO ERRORS OR WARNINGS.
28474. BYTES LEFT IN FREE MEMORY POOL.
OBJ$:IOPERFORM,LIS$:IOPERFORM/-SP=LIB$:LIB/ML,SRC$:IOPERFORM
0 MLB DIR RDS - 0 GETS TO DEFINE 0 MACROS. 1 INTER. FILE WRITES.
