LOADMREG        - LOAD MBA AND UBA MAP REGISTERS                 22-AUG-1978 00:14:30   VAX-11 MACRO X0.3-11               Page   0
TABLE OF CONTENTS

   (1)      44  LOAD MASSBUS ADAPTER MAP REGISTERS
   (1)      90  LOAD UNIBUS ADAPTER MAP REGISTERS
   (1)     141  GET PFN FROM INVALID PTE
LOADMREG        - LOAD MBA AND UBA MAP REGISTERS                 22-AUG-1978 00:14:30   VAX-11 MACRO X0.3-11               Page   1
00                                                                                                                               (1)

                                     0000     1 	.TITLE	LOADMREG - LOAD MBA AND UBA MAP REGISTERS
                                     0000     2 	.IDENT	/00/
                                     0000     3
                                     0000     4 ;
                                     0000     5 ; COPYRIGHT (C) 1978
                                     0000     6 ; DIGITAL EQUIPMENT CORPORATION, MAYNARD, MASS.
                                     0000     7 ;
                                     0000     8 ; THIS SOFTWARE IS FURNISHED UNDER  A LICENSE FOR USE ONLY  ON  A
                                     0000     9 ; SINGLE COMPUTER SYSTEM AND MAY BE  COPIED ONLY WITH  THE INCLU-
                                     0000    10 ; SION OF  THE  ABOVE  COPYRIGHT NOTICE.  THIS SOFTWARE,  OR  ANY
                                     0000    11 ; OTHER COPIES THEREOF, MAY NOT BE  PROVIDED  OR  OTHERWISE  MADE
                                     0000    12 ; AVAILABLE TO ANY OTHER PERSON EXCEPT  FOR  USE  ON  SUCH SYSTEM
                                     0000    13 ; AND TO  ONE WHO AGREES  TO  THESE LICENSE  TERMS.  TITLE TO AND
                                     0000    14 ; OWNERSHIP OF THE SOFTWARE SHALL AT ALL TIMES REMAIN IN DEC.
                                     0000    15 ;
                                     0000    16 ; THE INFORMATION IN THIS SOFTWARE  IS  SUBJECT TO CHANGE WITHOUT
                                     0000    17 ; NOTICE AND SHOULD NOT BE CONSTRUED  AS  A COMMITMENT BY DIGITAL
                                     0000    18 ; EQUIPMENT CORPORATION.
                                     0000    19 ;
                                     0000    20 ; DEC ASSUMES NO RESPONSIBILITY FOR THE USE OR RELIABILITY OF ITS
                                     0000    21 ; SOFTWARE ON EQUIPMENT WHICH IS NOT SUPPLIED BY DEC.
                                     0000    22 ;
                                     0000    23 ; D. N. CUTLER 1-NOV-77
                                     0000    24 ;
                                     0000    25 ; MODIFIED BY:
                                     0000    26 ;
                                     0000    27 ;	C. A. MONIA - 2-MAR-1978
                                     0000    28 ;
                                     0000    29 ;		MODIFIED TO SUPPORT THE STAND-ALONE SYSTEM
                                     0000    30 ;
                                     0000    31 ;
                                     0000    32 ; LOAD MBA AND UBA MAP REGISTERS
                                     0000    33 ;
                                     0000    34 ; MACRO LIBRARY CALLS
                                     0000    35 ;
                                     0000    36
                                     0000    37 	$CRBDEF				;DEFINE CRB OFFSETS
                                     0000    38 	$MBADEF				;DEFINE MBA REGISTER OFFSET DEFINITIONS
                                     0000    39 	$PTEDEF				;DEFINE PAGE TABLE ENTRY FIELDS
                                     0000    40 	$UBADEF				;DEFINE UCB OFFSETS
                                     0000    41 	$UCBDEF				;DEFINE UCB OFFSETS
                                     0000    42 	$VECDEF				;DEFINE CRB TRANSFER VECTOR OFFSETS
LOADMREG        - LOAD MBA AND UBA MAP REGISTERS                 22-AUG-1978 00:14:30   VAX-11 MACRO X0.3-11               Page   2
00              LOAD MASSBUS ADAPTER MAP REGISTERS                                                                               (1)

                                     0000    44 	.SBTTL	LOAD MASSBUS ADAPTER MAP REGISTERS
                                     0000    45 ;+
                                     0000    46 ; IOC$LOADMBAMAP - LOAD MASSBUS ADAPTER MAP REGISTERS
                                     0000    47 ;
                                     0000    48 ; THIS ROUTINE IS CALLED TO LOAD THE MASSBUS ADAPTER MAP REGISTERS, THE
                                     0000    49 ; BYTE COUNT REGISTER, AND THE VIRTUAL ADDRESS REGISTER.
                                     0000    50 ;
                                     0000    51 ; INPUTS:
                                     0000    52 ;
                                     0000    53 ;	R4 = ADDRESS OF MBA CONFIGURATION STATUS REGISTER.
                                     0000    54 ;	R5 = UCB ADDRESS OF UNIT TRANSFER IS TO OCCUR ON.
                                     0000    55 ;
                                     0000    56 ; OUTPUTS:
                                     0000    57 ;
                                     0000    58 ;	THE TRANSFER BYTE COUNT, STARTING PAGE OFFSET, AND ADDRESS OF THE
                                     0000    59 ;	PAGE TABLE ENTIRES THAT DESCRIBE THE TRANSFER ARE RETRIEVED FROM
                                     0000    60 ;	THE SPECIFED UCB AND USED TO LOAD THE MBA BYTE COUNT, VIRTUAL ADDRESS,
                                     0000    61 ;	AND MAP REGISTERS. ONE ADDITIONAL MAP REGISTER IS LOADED AS INVALID
                                     0000    62 ;	TO STOP THE TRANSFER IF A HARDWARE FAILURE SHOULD OCCUR.
                                     0000    63 ;
                                     0000    64 ;	R3 IS PRESERVED ACROSS CALL.
                                     0000    65 ;-
                                     0000    66
                                 00000000    67 	.PSECT	WIONONPAGED
                                     0000    68 IOC$LOADMBAMAP::			;LOAD MASSBUS ADAPTER MAP REGISTERS
                          53     DD  0000    69 	PUSHL	R3			;SAVE REGISTERS
            52         6E A5     3C  0002    70 	MOVZWL	UCB$W_BCNT(R5),R2	;GET TRANSFER BYTE COUNT
         10 A4            52     CE  0006    71 	MNEGL	R2,MBA$L_BCR(R4)	;LOAD BYTE COUNT REGISTER
            51         6C A5     3C  000A    72 	MOVZWL	UCB$W_BOFF(R5),R1	;GET BYTE OFFSET IN PAGE
         0C A4            51     D0  000E    73 	MOVL	R1,MBA$L_VAR(R4)	;LOAD STARTING VIRTUAL ADDRESS
         0C A4            51     D0  0012    74 	MOVL	R1,MBA$L_VAR(R4)	;*****TEMP UNTIL MBA ECO ******
            52       01FF C241   9E  0016    75 	MOVAB	^X1FF(R2)[R1],R2	;CALCULATE HIGHEST RELATIVE BYTE AND ROUND
            52         F7 8F     78  001C    76 	ASHL	#-9,R2,R2		;CALCULATE NUMBER OF MAP REGISTERS TO LOAD
                          52         0020
            51       0800 C4     DE  0021    77 	MOVAL	MBA$L_MAP(R4),R1	;GET ADDRESS OF MBA MAP REGISTERS
            50         68 A5     D0  0026    78 	MOVL	UCB$L_SVAPTE(R5),R0	;GET ADDRESS OF PAGE TABLE
            81            80     D0  002A    79 10$:	MOVL	(R0)+,(R1)+		;LOAD MAP REGISTER
                          09     18  002D    80 	BGEQ	30$			;IF GEQ PTE INVALID
            F8            52     F5  002F    81 20$:	SOBGTR	R2,10$			;ANY MORE TO LOAD?
                          61     D4  0032    82 	CLRL	(R1)			;LOAD INVALID MAP ENTRY
            53            8E     D0  0034    83 	MOVL	(SP)+,R3		;RESTORE REGISTER
                                 05  0037    84 	RSB				;
            53         FC A0     D0  0038    85 30$:	MOVL	-4(R0),R3		;GET THE PTE (NOT FROM MAP REGISTER!)
                          006A   30  003C    86 	BSBW	IOC$PTETOPFN		;GET PFN FROM INVALID PTE
            53   80000000 8F     C9  003F    87 	BISL3	#^X80000000,R3,-4(R1)	;AND LOAD THE MAP REGISTER
                       FC A1         0046
                          E5     11  0048    88 	BRB	20$			;
LOADMREG        - LOAD MBA AND UBA MAP REGISTERS                 22-AUG-1978 00:14:30   VAX-11 MACRO X0.3-11               Page   3
00              LOAD UNIBUS ADAPTER MAP REGISTERS                                                                                (1)

                                     004A    90 	.SBTTL	LOAD UNIBUS ADAPTER MAP REGISTERS
                                     004A    91 ;+
                                     004A    92 ; IOC$LOADUBAMAP - LOAD UNIBUS ADAPTER MAP REGISTERS
                                     004A    93 ;
                                     004A    94 ; THIS ROUTINE IS CALLED TO LOAD THE UNIBUS ADAPTER MAP REGISTERS.
                                     004A    95 ;
                                     004A    96 ; INPUTS:
                                     004A    97 ;
                                     004A    98 ;	R5 = UCB ADDRESS OF UNIT TRANSFER IS TO OCCUR ON.
                                     004A    99 ;
                                     004A   100 ;	IT IS ASSUMED THAT THE DATAPATH AND MAP REGISTERS HAVE BEEN PREVIOUSLY
                                     004A   101 ;	ASSIGNED.
                                     004A   102 ;
                                     004A   103 ; OUTPUTS:
                                     004A   104 ;
                                     004A   105 ;	EACH MAP REGISTER IS LOADED WITH THE APPROPRIATE PAGE FRAME NUMBER
                                     004A   106 ;	MERGED WITH THE DATAPATH DESIGNATOR AND BYTE OFFSET BIT. ONE ADDITIONAL
                                     004A   107 ;	MAP REGISTER IS LOADED AS INVALID TO STOP THE TRANSFER IF A HARDWARE
                                     004A   108 ;	FAILURE SHOULD OCCUR.
                                     004A   109 ;
                                     004A   110 ;	R3 IS PRESERVED ACROSS CALL.
                                     004A   111 ;-
                                     004A   112
                                     004A   113 IOC$LOADUBAMAP::			;LOAD UNIBUS ADAPTER MAP REGISTERS
            7E            53     7D  004A   114 	MOVQ	R3,-(SP)		;SAVE REGISTERS
            51         6C A5     3C  004D   115 	MOVZWL	UCB$W_BOFF(R5),R1	;GET BYTE OFFSET IN PAGE
            52         6E A5     3C  0051   116 	MOVZWL	UCB$W_BCNT(R5),R2	;GET TRANSFER BYTE COUNT
            53         20 A5     D0  0055   117 	MOVL	UCB$L_CRB(R5),R3	;GET ADDRESS OF CRB
            54         27 A3     9A  0059   118 	MOVZBL	CRB$L_INTD+VEC$B_DATAPATH(R3),R4 ;GET DATAPATH DESIGNATOR
            03            51     E9  005D   119 	BLBC	R1,10$			;IF LBC WORD ALIGNED TRANSFER
            54            10     88  0060   120 	BISB	#^X10,R4		;SET BYTE OFFSET BIT
            54       0400 8F     A8  0063   121 10$:	BISW	#^X400,R4		;MERGE VALID WITH BYTE OFFSET AND DATAPATH
            52       01FF C241   9E  0068   122 	MOVAB	^X1FF(R2)[R1],R2	;CALCULATE HIGHEST RELATIVE BYTE AND ROUND
            52         F7 8F     78  006E   123 	ASHL	#-9,R2,R2		;CALCULATE NUMBER OF MAP REGISTERS TO LOAD
                          52         0072
         26 A3            52     91  0073   124 	CMPB	R2,CRB$L_INTD+VEC$B_NUMREG(R3) ;ENOUGH MAP REGISTERS ASSIGNED?
                          2C     1E  0077   125 	BGEQU	40$			;IF GEQU NO
            51         28 B3     D0  0079   126 	MOVL	@CRB$L_INTD+VEC$L_ADP(R3),R1 ;GET ADDRESS OF CONFIGURATION REGISTER
            0F            00     EF  007D   127 	EXTZV	#0,#VEC$V_MAPLOCK,CRB$L_INTD+VEC$W_MAPREG(R3),R0 ;GET STARTING REGISTER
            50         24 A3         0080
            51       0800 C140   DE  0083   128 	MOVAL	UBA$L_MAP(R1)[R0],R1	;GET ADDRESS OF FIRST MAP REGISTER TO LOAD
            50         68 A5     D0  0089   129 	MOVL	UCB$L_SVAPTE(R5),R0	;GET ADDRESS OF PAGE TABLE
            53            80     D0  008D   130 20$:	MOVL	(R0)+,R3		;GET NEXT PAGE TABLE ENTRY
                          02     19  0090   131 	BLSS	30$			;IF LSS VALID PAGE TABLE ENTRY
                          15     10  0092   132 	BSBB	IOC$PTETOPFN		;GET PFN FROM INVALID PTE
            15            54     F0  0094   133 30$:	INSV	R4,#21,#11,R3		;INSERT VALID, BYTE OFFSET, AND DATAPATH
            53            0B         0097
            81            53     D0  0099   134 	MOVL	R3,(R1)+		;LOAD UBA MAP REGISTER
            EE            52     F5  009C   135 	SOBGTR	R2,20$			;ANY MORE TO LOAD?
                          61     D4  009F   136 	CLRL	(R1)			;LOAD INVALID MAP ENTRY
            53            8E     7D  00A1   137 	MOVQ	(SP)+,R3		;RESTORE REGISTERS
                                 05  00A4   138 	RSB				;
                                     00A5   139 40$:	BUG_CHECK UBMAPEXCED,FATAL	;UNIBUS MAP REGISTER ALLOCATION EXCEEDED
LOADMREG        - LOAD MBA AND UBA MAP REGISTERS                 22-AUG-1978 00:14:30   VAX-11 MACRO X0.3-11               Page   4
00              GET PFN FROM INVALID PTE                                                                                         (1)

                                     00A9   141 	.SBTTL	GET PFN FROM INVALID PTE
                                     00A9   142 ;+
                                     00A9   143 ; IOC$PTETOPFN - GET PFN FROM INVALID PTE
                                     00A9   144 ;
                                     00A9   145 ; THIS ROUTINE IS CALLED TO RETURN THE PAGE FRAME NUMBER FROM A
                                     00A9   146 ; PAGE TABLE ENTRY WHICH HAS ALREADY BEEN DETERMINED TO BE NOT VALID.
                                     00A9   147 ;
                                     00A9   148 ; INPUTS:
                                     00A9   149 ;
                                     00A9   150 ;	R3 = PAGE TABLE ENTRY
                                     00A9   151 ;
                                     00A9   152 ; OUTPUTS:
                                     00A9   153 ;
                                     00A9   154 ;	R3 = PAGE FRAME NUMBER AND MAY INCLUDE THE FOLLOWING FIELDS
                                     00A9   155 ;		VALID BIT, MODIFY BIT, PROTECTION FIELD, OWNER FIELD
                                     00A9   156 ;
                                     00A9   157 ;	ALL OTHER REGISTERS PRESERVED
                                     00A9   158 ;-
                                     00A9   159
                                     00A9   160 	.ENABL	LSB
                                     00A9   161 IOC$PTETOPFN::
            53   FB800000 8F     CA  00A9   162 	BICL	#^C<PTE$M_TYP1 ! PTE$M_TYP0 !- ;PTE TYPE BITS
                                     00B0   163 		PTE$M_GPTX>,R3		;AND GPTX/PFN
            53            1A     E0  00B0   164 	BBS	#PTE$V_TYP1,R3,20$	;BRANCH IF BAD PTE FOR I/O
                          05         00B3
            53            16     E4  00B4   165 	BBSC	#PTE$V_TYP0,R3,GLOBAL	;BRANCH IF GLOBAL PAGE
                          01         00B7
                                 05  00B8   166 10$:	RSB
                                     00B9   167 GLOBAL:					; GPT ENTRIES ARE INVALID
                                     00B9   168 20$:	BUG_CHECK INVPTEFMT,FATAL	;INVALID PAGE TABLE ENTRY FORMAT
                                     00BD   169 	.DSABL	LSB
                                     00BD   170
                                     00BD   171 	.END
LOADMREG        - LOAD MBA AND UBA MAP REGISTERS                 22-AUG-1978 00:14:30   VAX-11 MACRO X0.3-11               Page   5
SYMBOL TABLE                                                                                                                     (1)

BIT...         = 00000008            MBA$M_SR_NED   = 00040000            PTE$C_UR       = 78000000
BUG$_INVPTEFMT   ********   X   03   MBA$M_SR_NRCONF= 40000000            PTE$C_UREW     = 68000000
BUG$_UBMAPEXCED  ********   X   03   MBA$M_SR_PGE   = 00080000            PTE$C_URKW     = 70000000
CRB$B_MASK       0000000E            MBA$M_SR_RDS   = 00000004            PTE$C_URSW     = 60000000
CRB$B_TT_ATTN    00000004            MBA$M_SR_RDTO  = 00000001            PTE$C_UW       = 20000000
CRB$B_TT_EXPEC   00000005            MBA$M_SR_WCKLWR= 00000200            PTE$M_CRF      = 00010000
CRB$B_TYPE       0000000A            MBA$M_SR_WCKUPR= 00000400            PTE$M_DZRO     = 00020000
CRB$C_LENGTH     00000028            MBA$S_CSR_ADCOD= 00000008            PTE$M_GPTX     = 003FFFFF
CRB$K_LENGTH     00000028            MBA$S_ERB_UNIT = 00000003            PTE$M_MODIFY   = 04000000
CRB$L_INTD       00000014            MBA$V_CR_ABORT = 00000001            PTE$M_OWN      = 01800000
CRB$L_LINK       00000010            MBA$V_CR_IE    = 00000002            PTE$M_PFN      = 001FFFFF
CRB$L_TT_DIAL    00000000            MBA$V_CR_INIT  = 00000000            PTE$M_PGFLVB   = 003FFFFF
CRB$L_WQBL       00000004            MBA$V_CSR_ADCOD= 00000000            PTE$M_PROT     = 78000000
CRB$L_WQFL       00000000            MBA$V_CSR_MT   = 0000001B            PTE$M_TYP0     = 00400000
CRB$M_BSY      = 00000001            MBA$V_CSR_OT   = 00000015            PTE$M_TYP1     = 04000000
CRB$V_BSY      = 00000000            MBA$V_CSR_PD   = 00000017            PTE$M_VALID    = 80000000
CRB$W_REFC       0000000C            MBA$V_CSR_PE   = 0000001F            PTE$M_WRT      = 00040000
CRB$W_SIZE       00000008            MBA$V_CSR_PU   = 00000016            PTE$S_GPTX     = 00000016
GBL...         = 00000000            MBA$V_CSR_URD  = 0000001D            PTE$S_OWN      = 00000002
GLOBAL           000000B9 R     03   MBA$V_CSR_WS   = 0000001E            PTE$S_PFN      = 00000015
IOC$LOADMBAMAP   00000000 RG    03   MBA$V_CSR_XMFLT= 0000001A            PTE$S_PGFLVB   = 00000016
IOC$LOADUBAMAP   0000004A RG    03   MBA$V_ERB_UNIT = 00000007            PTE$S_PROT     = 00000004
IOC$PTETOPFN     000000A9 RG    03   MBA$V_SR_ATTN  = 00000010            PTE$S_STX      = 00000010
MBA$L_AS         00000410            MBA$V_SR_CRD   = 0000001D            PTE$V_CRF      = 00000010
MBA$L_BCR        00000010            MBA$V_SR_DLT   = 0000000B            PTE$V_DZRO     = 00000011
MBA$L_CR         00000004            MBA$V_SR_DTABT = 0000000C            PTE$V_GPTX     = 00000000
MBA$L_CSR        00000000            MBA$V_SR_DTBUSY= 0000001F            PTE$V_MODIFY   = 0000001A
MBA$L_ERB        00000400            MBA$V_SR_DTCOMP= 0000000D            PTE$V_OWN      = 00000017
MBA$L_MAP        00000800            MBA$V_SR_ERCONF= 00000003            PTE$V_PFN      = 00000000
MBA$L_SR         00000008            MBA$V_SR_INVMAP= 00000004            PTE$V_PGFLVB   = 00000000
MBA$L_VAR        0000000C            MBA$V_SR_ISTO  = 00000001            PTE$V_PROT     = 0000001B
MBA$M_CR_ABORT = 00000002            MBA$V_SR_MAPPE = 00000005            PTE$V_STX      = 00000000
MBA$M_CR_IE    = 00000004            MBA$V_SR_MBEXC = 00000007            PTE$V_TYP0     = 00000016
MBA$M_CR_INIT  = 00000001            MBA$V_SR_MCPE  = 00000011            PTE$V_TYP1     = 0000001A
MBA$M_CSR_MT   = 08000000            MBA$V_SR_MDPE  = 00000006            PTE$V_VALID    = 0000001F
MBA$M_CSR_OT   = 00200000            MBA$V_SR_MXF   = 00000008            PTE$V_WRT      = 00000012
MBA$M_CSR_PD   = 00800000            MBA$V_SR_NED   = 00000012            UBA$L_BRRVR      00000030
MBA$M_CSR_PE   = 80000000            MBA$V_SR_NRCONF= 0000001E            UBA$L_BRSVR      00000020
MBA$M_CSR_PU   = 00400000            MBA$V_SR_PGE   = 00000013            UBA$L_CR         00000004
MBA$M_CSR_URD  = 20000000            MBA$V_SR_RDS   = 00000002            UBA$L_CSR        00000000
MBA$M_CSR_WS   = 40000000            MBA$V_SR_RDTO  = 00000000            UBA$L_DCR        0000000C
MBA$M_CSR_XMFLT= 04000000            MBA$V_SR_WCKLWR= 00000009            UBA$L_DPR        00000040
MBA$M_ERROR    = 000E1FFF            MBA$V_SR_WCKUPR= 0000000A            UBA$L_FMER       00000010
MBA$M_SR_ATTN  = 00010000            PTE$C_EOWN     = 00800000            UBA$L_FUBAR      00000014
MBA$M_SR_CRD   = 20000000            PTE$C_ER       = 38000000            UBA$L_MAP        00000800
MBA$M_SR_DLT   = 00000800            PTE$C_ERKW     = 30000000            UBA$L_SR         00000008
MBA$M_SR_DTABT = 00001000            PTE$C_EW       = 28000000            UBA$M_BRRVR_AIR= 80000000
MBA$M_SR_DTBUSY= 80000000            PTE$C_KOWN     = 00000000            UBA$M_CR_ARLVL = 00000180
MBA$M_SR_DTCOMP= 00002000            PTE$C_KR       = 18000000            UBA$M_CR_BRIE  = 00000020
MBA$M_SR_ERCONF= 00000008            PTE$C_KW       = 10000000            UBA$M_CR_CNFIE = 00000004
MBA$M_SR_INVMAP= 00000010            PTE$C_NA       = 00000000            UBA$M_CR_IFSIE = 00000040
MBA$M_SR_ISTO  = 00000002            PTE$C_SOWN     = 01000000            UBA$M_CR_INIT  = 00000001
MBA$M_SR_MAPPE = 00000020            PTE$C_SR       = 58000000            UBA$M_CR_SUEFIE= 00000008
MBA$M_SR_MBEXC = 00000080            PTE$C_SREW     = 48000000            UBA$M_CR_UBPF  = 00000002
MBA$M_SR_MCPE  = 00020000            PTE$C_SRKW     = 50000000            UBA$M_CR_USEFIE= 00000010
MBA$M_SR_MDPE  = 00000040            PTE$C_SW       = 40000000            UBA$M_CSR_IS   = 10000000
MBA$M_SR_MXF   = 00000100            PTE$C_UOWN     = 01800000            UBA$M_CSR_MT   = 08000000
LOADMREG        - LOAD MBA AND UBA MAP REGISTERS                 22-AUG-1978 00:14:30   VAX-11 MACRO X0.3-11               Page   6
SYMBOL TABLE                                                                                                                     (1)

UBA$M_CSR_OT   = 00200000            UBA$V_CSR_PE   = 0000001F            UCB$B_TRACKS     0000003D
UBA$M_CSR_PD   = 00800000            UBA$V_CSR_PU   = 00000016            UCB$B_TYPE       0000000A
UBA$M_CSR_PE   = 80000000            UBA$V_CSR_UBIC = 00000010            UCB$B_VERTSZ     0000003F
UBA$M_CSR_PU   = 00400000            UBA$V_CSR_UBIIP= 00000012            UCB$C_LENGTH     00000074
UBA$M_CSR_UBIC = 00010000            UBA$V_CSR_UBPDN= 00000011            UCB$C_LOGLNK   = 00000001
UBA$M_CSR_UBIIP= 00040000            UBA$V_CSR_URD  = 0000001D            UCB$K_LENGTH     00000074
UBA$M_CSR_UBPDN= 00020000            UBA$V_CSR_WS   = 0000001E            UCB$L_AMB        00000054
UBA$M_CSR_URD  = 20000000            UBA$V_CSR_XMFLT= 0000001A            UCB$L_ASTQBL     00000010
UBA$M_CSR_WS   = 40000000            UBA$V_DPR_ADDR = 00000000            UCB$L_ASTQFL     0000000C
UBA$M_CSR_XMFLT= 04000000            UBA$V_DPR_BNE  = 0000001F            UCB$L_CPID       0000005C
UBA$M_DPR_BNE  = 80000000            UBA$V_DPR_DPF  = 0000001D            UCB$L_CRB        00000020
UBA$M_DPR_DPF  = 20000000            UBA$V_DPR_STATE= 00000010            UCB$L_DDB        00000024
UBA$M_DPR_XMTER= 40000000            UBA$V_DPR_XMTER= 0000001E            UCB$L_DEVCHAR    00000034
UBA$M_MAP_BO   = 02000000            UBA$V_FMER_MRN = 00000000            UCB$L_DEVDEPEND  0000003C
UBA$M_MAP_VALID= 80000000            UBA$V_FUBAR_ADR= 00000000            UCB$L_DPC        0000007C
UBA$M_SR_BRID  = 00000800            UBA$V_MAP_ADDR = 00000000            UCB$L_DUETIM     0000005C
UBA$M_SR_BRSVF = 10000000            UBA$V_MAP_BO   = 00000019            UCB$L_DX_BFPNT   FFFFFFF4
UBA$M_SR_CRD   = 00000100            UBA$V_MAP_DPD  = 00000015            UCB$L_DX_BUF     FFFFFFF0
UBA$M_SR_CXTER = 00000080            UBA$V_MAP_VALID= 0000001F            UCB$L_DX_RXDB    FFFFFFF8
UBA$M_SR_CXTMO = 00000040            UBA$V_SR_BRID  = 0000000B            UCB$L_EMB        00000078
UBA$M_SR_DPPE  = 00000020            UBA$V_SR_BRRVF = 00000018            UCB$L_FIRST      00000014
UBA$M_SR_IVMR  = 00000010            UBA$V_SR_BRSVF = 0000001C            UCB$L_FPC        0000000C
UBA$M_SR_LER   = 00000004            UBA$V_SR_CRD   = 00000008            UCB$L_FQBL       00000004
UBA$M_SR_MRPE  = 00000008            UBA$V_SR_CXTER = 00000007            UCB$L_FQFL       00000000
UBA$M_SR_RDS   = 00000200            UBA$V_SR_CXTMO = 00000006            UCB$L_FR3        00000010
UBA$M_SR_RDTO  = 00000400            UBA$V_SR_DPPE  = 00000005            UCB$L_FR4        00000014
UBA$M_SR_RIE   = 20000000            UBA$V_SR_IVMR  = 00000004            UCB$L_IOQBL      00000044
UBA$M_SR_SSYNC = 00000001            UBA$V_SR_LER   = 00000002            UCB$L_IOQFL      00000040
UBA$M_SR_UBIFS = 40000000            UBA$V_SR_MRPE  = 00000003            UCB$L_IRP        0000004C
UBA$M_SR_UBSTO = 00000002            UBA$V_SR_RDS   = 00000009            UCB$L_LINK       0000002C
UBA$S_BRRVR_IVA= 00000010            UBA$V_SR_RDTO  = 0000000A            UCB$L_LOGADR     00000064
UBA$S_CR_ARLVL = 00000002            UBA$V_SR_RIE   = 0000001D            UCB$L_MAXBLOCK   00000080
UBA$S_CR_MRDSB = 00000005            UBA$V_SR_SSYNC = 00000000            UCB$L_MEDIA      00000088
UBA$S_CSR_ADCOD= 00000008            UBA$V_SR_UBIFS = 0000001E            UCB$L_NT_DATSSB  00000074
UBA$S_DPR_ADDR = 00000010            UBA$V_SR_UBSTO = 00000001            UCB$L_NT_INTSSB  00000078
UBA$S_DPR_STATE= 00000008            UCB$B_AMOD       00000053            UCB$L_OPCNT      00000060
UBA$S_FMER_MRN = 00000009            UCB$B_CEX        00000077            UCB$L_OWNUIC     0000001C
UBA$S_FUBAR_ADR= 00000012            UCB$B_CM1        0000004A            UCB$L_PID        00000028
UBA$S_MAP_ADDR = 00000015            UCB$B_CM2        0000004B            UCB$L_RQBL       00000004
UBA$S_MAP_DPD  = 00000004            UCB$B_DEVCLASS   00000038            UCB$L_RQFL       00000000
UBA$S_SR_BRRVF = 00000004            UCB$B_DEVTYPE    00000039            UCB$L_SVAPTE     00000068
UBA$V_BRRVR_AIR= 0000001F            UCB$B_DIPL       00000052            UCB$L_SVPN       00000064
UBA$V_BRRVR_IVA= 00000000            UCB$B_DX_SCTCNT  FFFFFFFE            UCB$L_TTCHAR     0000003C
UBA$V_CR_ARLVL = 00000007            UCB$B_DX_SPARE   FFFFFFFF            UCB$L_VCB        00000030
UBA$V_CR_BRIE  = 00000005            UCB$B_ERTCNT     00000070            UCB$M_BSY      = 00000100
UBA$V_CR_CNFIE = 00000002            UCB$B_ERTMAX     00000071            UCB$M_CANCEL   = 00000008
UBA$V_CR_IFSIE = 00000006            UCB$B_ESCAPE     0000004B            UCB$M_DEADMO   = 00000400
UBA$V_CR_INIT  = 00000000            UCB$B_FEX        00000076            UCB$M_DELMBX   = 00000002
UBA$V_CR_MRDSB = 0000001A            UCB$B_FIPL       0000000B            UCB$M_DIAGBUF  = 00000002
UBA$V_CR_SUEFIE= 00000003            UCB$B_LOCSRV     0000003C            UCB$M_DX_WRITE = 00000008
UBA$V_CR_UBPF  = 00000001            UCB$B_OFFNDX     00000090            UCB$M_ECC      = 00000001
UBA$V_CR_USEFIE= 00000004            UCB$B_OFFRTC     00000091            UCB$M_ERLOGIP  = 00000004
UBA$V_CSR_ADCOD= 00000000            UCB$B_REMSRV     0000003D            UCB$M_INT      = 00000002
UBA$V_CSR_IS   = 0000001C            UCB$B_SECTORS    0000003C            UCB$M_INTTYPE  = 00000080
UBA$V_CSR_MT   = 0000001B            UCB$B_SLAVE      00000074            UCB$M_JOB      = 00000001
UBA$V_CSR_OT   = 00000015            UCB$B_SPR        00000075            UCB$M_MOUNTING = 00000200
UBA$V_CSR_PD   = 00000017            UCB$B_STATE      00000052            UCB$M_NOCNVRT  = 00000004
LOADMREG        - LOAD MBA AND UBA MAP REGISTERS                 22-AUG-1978 00:14:30   VAX-11 MACRO X0.3-11               Page   7
SYMBOL TABLE                                                                                                                     (1)

UCB$M_NT_BFROVF= 00000004            UCB$W_DEVBUFSIZ  0000003A
UCB$M_NT_BREAK = 00000020            UCB$W_DEVSTS     0000005A
UCB$M_NT_NAME  = 00000010            UCB$W_DSTADDR    00000018
UCB$M_NT_NONTR = 00000040            UCB$W_DX_BCR     FFFFFFFC
UCB$M_NT_SDP   = 00000008            UCB$W_EC1        0000008C
UCB$M_ONLINE   = 00000010            UCB$W_EC2        0000008E
UCB$M_POWER    = 00000020            UCB$W_ERRCNT     00000072
UCB$M_PRMMBX   = 00000001            UCB$W_FUNC       00000084
UCB$M_TIM      = 00000001            UCB$W_MB_SEED    FFFFFFFC
UCB$M_TIMOUT   = 00000040            UCB$W_MSGCNT     00000016
UCB$M_TT_NOTIF = 00000004            UCB$W_MSGMAX     00000014
UCB$M_TT_TIMO  = 00000002            UCB$W_NT_CHAN    0000007C
UCB$M_VALID    = 00000800            UCB$W_OFFSET     00000086
UCB$S_LNKPRI   = 00000002            UCB$W_REFC       00000050
UCB$S_LTYPE    = 00000002            UCB$W_SIZE       00000008
UCB$T_PARTNER    0000000C            UCB$W_SRCADDR    0000001A
UCB$V_BACKP    = 00000005            UCB$W_STS        00000058
UCB$V_BSY      = 00000008            UCB$W_UNIT       00000048
UCB$V_CANCEL   = 00000003            UCB$W_VPROT      0000001A
UCB$V_DEADMO   = 0000000A            VEC$B_DATAPATH   00000013
UCB$V_DELMBX   = 00000001            VEC$B_NUMREG     00000012
UCB$V_DIAGBUF  = 00000001            VEC$L_ADP        00000014
UCB$V_DX_WRITE = 00000003            VEC$L_IDB        00000008
UCB$V_ECC      = 00000000            VEC$L_INITIAL    0000000C
UCB$V_ERLOGIP  = 00000002            VEC$L_TT_DISC    00000020
UCB$V_INT      = 00000001            VEC$L_TT_ILINE   00000018
UCB$V_INTTYPE  = 00000007            VEC$L_TT_STRTIO  0000001C
UCB$V_JOB      = 00000000            VEC$M_MAPLOCK  = 00008000
UCB$V_LNKPRI   = 00000006            VEC$M_PATHLOCK = 00000080
UCB$V_LTYPE    = 00000000            VEC$Q_DISPATCH   00000000
UCB$V_MOUNTING = 00000009            VEC$S_DATAPATH = 00000007
UCB$V_MSGACK   = 00000004            VEC$S_MAPREG   = 0000000F
UCB$V_MSGFLO   = 00000003            VEC$V_DATAPATH = 00000000
UCB$V_NOCNVRT  = 00000002            VEC$V_MAPLOCK  = 0000000F
UCB$V_NT_BFROVF= 00000002            VEC$V_MAPREG   = 00000000
UCB$V_NT_BREAK = 00000005            VEC$V_PATHLOCK = 00000007
UCB$V_NT_NAME  = 00000004            VEC$W_MAPREG     00000010
UCB$V_NT_NONTR = 00000006
UCB$V_NT_SDP   = 00000003
UCB$V_ONLINE   = 00000004
UCB$V_POWER    = 00000005
UCB$V_PRMMBX   = 00000000
UCB$V_SEGFLO   = 00000002
UCB$V_TIM      = 00000000
UCB$V_TIMOUT   = 00000006
UCB$V_TT_NOTIF = 00000002
UCB$V_TT_TIMO  = 00000001
UCB$V_VALID    = 0000000B
UCB$W_BCNT       0000006E
UCB$W_BCR        00000092
UCB$W_BOFF       0000006C
UCB$W_BUFQUO     00000018
UCB$W_BYTESTOGO  0000003E
UCB$W_CHARGE     0000004A
UCB$W_CYLINDERS  0000003E
UCB$W_DA         00000088
UCB$W_DC         0000008A
LOADMREG        - LOAD MBA AND UBA MAP REGISTERS                 22-AUG-1978 00:14:30   VAX-11 MACRO X0.3-11               Page   8
PROGRAM SECTION SYNOPSIS                                                                                                         (1)


PROGRAM SECTION SYNOPSIS

.  ABS  .        00000000      00     NOPIC   USR   CON   ABS   LCL NOSHR NOEXE NORD  NOWRT BYTE
. BLANK .        00000000      01     NOPIC   USR   CON   REL   LCL NOSHR   EXE   RD    WRT BYTE
$ABS$            FFFFFFFF      02     NOPIC   USR   CON   ABS   LCL NOSHR   EXE   RD    WRT BYTE
WIONONPAGED      000000BD      03     NOPIC   USR   CON   REL   LCL NOSHR   EXE   RD    WRT BYTE


THERE WERE NO ERRORS OR WARNINGS.
12984. BYTES LEFT IN FREE MEMORY POOL.
3642. BYTES OF RECLAIMED MEMORY.
OBJ$:LOADMREG,LIS$:LOADMREG/-SP=LIB$:LIB/ML,SRC$:LOADMREG
5 MLB DIR RDS - 631 GETS TO DEFINE 16 MACROS. 54 INTER. FILE WRITES.
