MDAT            ;MEMORY MANAGEMENT DATA BASE                     22-AUG-1978 00:15:07   VAX-11 MACRO X0.3-11               Page   0
TABLE OF CONTENTS

   (1)      33  HISTORY			; DETAILED
   (1)      42  DECLARATIONS
   (1)      96  MEMORY MANAGEMENT DATA BASE
   (1)      98  SYSTEM PAGE TABLE
MDAT            ;MEMORY MANAGEMENT DATA BASE                     22-AUG-1978 00:15:07   VAX-11 MACRO X0.3-11               Page   1
00                                                                                                                               (1)

                                     0000     1 	.TITLE	MDAT		;MEMORY MANAGEMENT DATA BASE
                                     0000     2 	.IDENT	/00/
                                     0000     3 ;
                                     0000     4 ; COPYRIGHT (C) 1977
                                     0000     5 ; DIGITAL EQUIPMENT CORPORATION, MAYNARD, MASSACHUSETTS 01754
                                     0000     6 ;
                                     0000     7 ; THIS SOFTWARE IS FURNISHED  UNDER A LICENSE FOR USE ONLY ON A SINGLE
                                     0000     8 ; COMPUTER  SYSTEM AND  MAY BE  COPIED ONLY WITH  THE INCLUSION OF THE
                                     0000     9 ; ABOVE COPYRIGHT NOTICE.  THIS SOFTWARE, OR ANY OTHER COPIES THEREOF,
                                     0000    10 ; MAY NOT BE PROVIDED OR  OTHERWISE MADE AVAILABLE TO ANY OTHER PERSON
                                     0000    11 ; EXCEPT FOR USE ON SUCH SYSTEM AND TO ONE WHO AGREES TO THESE LICENSE
                                     0000    12 ; TERMS.  TITLE TO AND  OWNERSHIP OF THE  SOFTWARE  SHALL AT ALL TIMES
                                     0000    13 ; REMAIN IN DEC.
                                     0000    14 ;
                                     0000    15 ; THE INFORMATION IN THIS SOFTWARE IS SUBJECT TO CHANGE WITHOUT NOTICE
                                     0000    16 ; AND SHOULD  NOT BE CONSTRUED  AS A COMMITMENT  BY DIGITAL  EQUIPMENT
                                     0000    17 ; CORPORATION.
                                     0000    18 ;
                                     0000    19 ; DEC ASSUMES  NO  RESPONSIBILITY  FOR  THE USE OR  RELIABILITY OF ITS
                                     0000    20 ; SOFTWARE ON EQUIPMENT WHICH IS NOT SUPPLIED BY DEC.
                                     0000    21
                                     0000    22 ;++
                                     0000    23 ; FACILITY:	EXECUTIVE,  MEMORY MANAGEMENT DATA BASE
                                     0000    24 ;
                                     0000    25 ; ABSTRACT:	MDAT ALLOCATES AND INITIALIZES THE STORAGE FOR THE
                                     0000    26 ;	MEMORY MANAGEMENT DATA BASES
                                     0000    27 ;
                                     0000    28 ; ENVIRONMENT:
                                     0000    29 ;
                                     0000    30 ;--
                                     0000    31 ;
                                     0000    32 ;	.PAGE
                                     0000    33 	.SBTTL	HISTORY			; DETAILED
                                     0000    34 ;
                                     0000    35 ; AUTHOR: PETER H. LIPMAN	, CREATION DATE: 13-SEP-76
                                     0000    36 ;
                                     0000    37 ; MODIFIED BY:
                                     0000    38 ;
                                     0000    39 ;	C. A. MONIA, : VERSION 00
                                     0000    40 ;
                                     0000    41 ; 01	 - MODIFIED FOR STAND-ALONE DSC SYSTEM
                                     0000    42 	.SBTTL	DECLARATIONS
MDAT            ;MEMORY MANAGEMENT DATA BASE                     22-AUG-1978 00:15:07   VAX-11 MACRO X0.3-11               Page   2
00              DECLARATIONS                                                                                                     (1)

                                     0000    44
                                     0000    45 ;
                                     0000    46 ; INCLUDE FILES:
                                     0000    47 ;
                                     0000    48 	$DYNDEF			;DYNAMIC DATA STRUCTURE TYPE DEFINITIONS
                                     0000    49 	$PHDDEF			;DEFINE PROCESS HEADER
                                     0000    50 	$PTEDEF			;PAGE TABLE ENTRY DEFINTIONS
                                     0000    51 	$SECDEF			;PSTE/GSTE DEFINITIONS
                                     0000    52 	$SGNDEF			;DEFINE SYSGEN VALUES
                                     0000    53 	$WSLDEF			;WORKING SET LIST DEFINITIONS
                                     0000    54 ;
                                     0000    55 ; EXTERNAL SYMBOLS:
                                     0000    56 ;
                                     0000    57
                                     0000    58 ;
                                     0000    59 ; MACROS:
                                     0000    60 ;
                                     0000    61 	.MACRO	SYSPTE	NUM,ACCESS,PFN=PFN...
                                     0000    62 	.PSECT	$$$065
                                     0000    63 	TMP...=PFN
                                     0000    64 	.REPT	NUM
                                     0000    65 	.LONG	PTE$M_VALID!PTE$C_'ACCESS!TMP...
                                     0000    66 	PFN...=PFN...+1
                                     0000    67 	TMP...=TMP...+1
                                     0000    68 	SPTLEN=SPTLEN+1
                                     0000    69 	.ENDR
                                     0000    70 	.ENDM	SYSPTE
                                     0000    71
                                     0000    72 	.MACRO	PHD	SYM
                                     0000    73 	.=SAV...+PHD$'SYM
                                     0000    74 	.ENDM	PHD
                                     0000    75
                                     0000    76 	.MACRO	PCB	SYM
                                     0000    77 	.=SAV...+PCB$'SYM
                                     0000    78 	.ENDM	PCB
                                     0000    79
                                     0000    80 	.MACRO	PFNALC	SIZ,SYMLST
                                     0000    81 	.IRP	SYM,<SYMLST>
                                     0000    82 PFN$A'SIZ'_'SYM::
                                     0000    83 	.ENDR
                                     0000    84 	.LONG	0
                                     0000    85 	.ENDM	PFNALC
                                     0000    86
                                     0000    87 ;
                                     0000    88 ; EQUATED SYMBOLS:
                                     0000    89 ;
                                     0000    90 ;
                                     0000    91 ;
                                     0000    92 ; OWN STORAGE:
                                     0000    93 ;
                                     0000    94
MDAT            ;MEMORY MANAGEMENT DATA BASE                     22-AUG-1978 00:15:07   VAX-11 MACRO X0.3-11               Page   3
00              MEMORY MANAGEMENT DATA BASE                                                                                      (1)

                                     0000    96 	.SBTTL	MEMORY MANAGEMENT DATA BASE
                                     0000    97
                                     0000    98 	.SBTTL	SYSTEM PAGE TABLE
                                     0000    99 ;
                                     0000   100 ; BUILD THE SYSTEM PAGE TABLE
                                     0000   101 ;
                                 00000000   102 	.PSECT	$$$065,PAGE
                           00000000  0000   103 	PFN...=0
                           00000000  0000   104 	SPTLEN=0			; INITIALIZE LENGTH COUNTER
                                     0000   105 MMG$AL_SYSPAGTB::			;SYSTEM VIRTUAL ADDRESS OF SPT
                                     0000   106 MMG$AL_SPTBASE::			;....
                                 00000000   107 	.PSECT	$$$223,LONG
                                     0000   108 MMG$GL_SPTBASE::			; POINTER TO START OF SYSTEM PAGE TABLES
                           00000000' 0000   109 	.LONG	MMG$AL_SPTBASE		;
                                 00000000   110 	.PSECT	$$$065
                                     0000   111 ;
                                     0000   112 ; SYSTEM SERVICE VECTORS - PSECT $$$000 HAS SGN$C_SYSVECPGS PAGES ALLOCATED ELSEWHER
                                     0000   113 ;
                                     0000   114 	SYSPTE	SGN$C_SYSVECPGS,UR	;SYSTEM SERVICE VECTORS ($$$000)
                                     000C   115 ;
                                     000C   116 ; INTERRUPT STACK
                                     000C   117 ;
                                 00000000   118 	.PSECT	$$$015,PAGE
                           00000400  0000   119 	.BLKB	2*512			;2 PAGES OF INTERRUPT STACK
                                     0400   120 SYS$ISPINI::				;INITIAL VALUE FOR ISP
                                     0400   121 	SYSPTE	2,URKW			;INTERRUPT STACK ($$$015)
                                     0014   122 ;
                                     0014   123 ; FILL OUT THE REST OF SPT
                                     0014   124 ;
                                     0014   125 	SYSPTE	<251-PFN...>,URKW		; FILL REMAINDER OF SPT
                           000000FB  03EC   126 MMG$C_RLSPTE==<.-MMG$AL_SPTBASE>/4
                                     03EC   127
                                     03EC   128 ;
                                     03EC   129 ; I/O PAGES:
                                     03EC   130 ;	THE FIRST MAPS THE UNIBUS REGISTERS FOR  TT, LP, RK.
                                     03EC   131 ;	THE SECOND MAPS THE PCLOCK,
                                     03EC   132 ;	THE THIRD MAPS THE DL11A,
                                     03EC   133 ;	THE FOURTH MAPS THE DZ11 UNIT 0,
                                     03EC   134 ;	THE NEXT 4 PROVIDE THE SPT SLOTS NEEDED TO DO BUFFERED I/O.
                                     03EC   135 ;
                           8001F600  03EC   136 SYS$IOBASE==^X80000000+<PFN...@9>	;ADDRESS OF I/O PAGE
                                     03EC   137 	SYSPTE	1,KW,<^X1FFFFF>		;I/O PAGE, MAP TT,LP,RK
                                     03F0   138 	SYSPTE	1,KW,<^X1FFFFA>		;I/O PAGE MAP PCLOCK AT 560
                                     03F4   139 	SYSPTE	1,KW,<^X1FFFFE>		;I/O PAGE, MAPS DL11A AT ^O7776500
                                     03F8   140 	SYSPTE	1,KW,<^X1FFFF0>		;I/O PAGE, MAPS DZ11
                           8001FE00  03FC   141 DBA$CSR==^X80000000+<PFN...@9>		;ADDRESS OF MBA CSR
                                     03FC   142 	SYSPTE	1,KW,<^X100080>		;MASS BUS ADAPTER PAGE #0
                                     0400   143 	SYSPTE	1,KW,<^X100081>		;MASSBUS ADAPTER PAGE #1
                                     0404   144 	SYSPTE	1,KW,<^X100082>		;MASSBUS ADAPTER PAGE #2
                                     0408   145 	SYSPTE	1,KW,<^X100083>		;MASSBUS ADAPTER PAGE #3
                                     040C   146 	SYSPTE	1,KW,<^X100084>		;MASSBUS ADAPTER PAGE #4
                                     0410   147 	SYSPTE	1,KW,<^X100085>		;MASSBUS ADAPTER PAGE #5
                                     0414   148 	SYSPTE	1,KW,<^X100086>		;MASSBUS ADAPTER PAGE #6
                                     0418   149 	SYSPTE	1,KW,<^X100087>		;MASSBUS ADAPTER PAGE #7
                           80020E00  041C   150 DBB$CSR==^X80000000+<PFN...@9>		;ADDRESS OF SECOND MBA
                                     041C   151 	SYSPTE	1,KW,<^X100090>		;MASSBUS #2 ADAPTER PAGE #0
                                     0420   152 	SYSPTE	1,KW,<^X100091>		;MASSBUS #2 ADAPTER PAGE #1
MDAT            ;MEMORY MANAGEMENT DATA BASE                     22-AUG-1978 00:15:07   VAX-11 MACRO X0.3-11               Page   4
00              SYSTEM PAGE TABLE                                                                                                (1)

                                     0424   153 	SYSPTE	1,KW,<^X100092>		;MASSBUS #2 ADAPTER PAGE #2
                                     0428   154 	SYSPTE	1,KW,<^X100093>		;MASSBUS #2 ADAPTER PAGE #3
                                     042C   155 	SYSPTE	1,KW,<^X100094>		;MASSBUS #2 ADAPTER PAGE #4
                                     0430   156 	SYSPTE	1,KW,<^X100095>		;MASSBUS #2 ADAPTER PAGE #5
                                     0434   157 	SYSPTE	1,KW,<^X100096>		;MASSBUS #2 ADAPTER PAGE #6
                                     0438   158 	SYSPTE	1,KW,<^X100097>		;MASSBUS #2 ADAPTER PAGE #7
                                     043C   159
                                     043C   160
                           80021E00  043C   161 UBA$CSR==^X80000000+<PFN...@9>		;UNIBUS ADAPTER CSR ADDRESS
                                     043C   162 	SYSPTE	1,KW,<^X100030>		;ADAPTER CONTROL REGISTERS
                                     0440   163 	SYSPTE	1,KW,<^X100031>		;NULL PAGE
                                     0444   164 	SYSPTE	1,KW,<^X100032>		;NULL PAGE
                                     0448   165 	SYSPTE	1,KW,<^X100033>		;NULL PAGE
                                     044C   166 	SYSPTE	1,KW,<^X100034>		;ADAPTER MAP REGISTERS (0-127)
                                     0450   167 	SYSPTE	1,KW,<^X100035>		;ADAPTER MAP REGISTERS (128-255)
                                     0454   168 	SYSPTE	1,KW,<^X100036>		;ADAPTER MAP REGISTERS (256-383)
                                     0458   169 	SYSPTE	1,KW,<^X100037>		;ADAPTER MAP REGISTERS (384-496)
                                     045C   170
                                     045C   171 ;
                                     045C   172 ;	UNIBUS I/O SPACE
                                     045C   173 ;
                                     045C   174 ;	PHYSICAL ADDRESS OF UNIBUS I/O PAGE = ^X2013E000
                                     045C   175 ;
                                     045C   176
                           80022E00  045C   177 UBA$IOBASE==^X80000000+<PFN...@9>	;BASE OF UNIBUS I/O PAGE
                                     045C   178
                                     045C   179 	SYSPTE	1,KW,<^X1009F0>		;UNIBUS I/O PAGE #0
                                     0460   180 	SYSPTE	1,KW,<^X1009F1>		;UNIBUS I/O PAGE #1
                                     0464   181 	SYSPTE	1,KW,<^X1009F2>		;UNIBUS I/O PAGE #2
                                     0468   182 	SYSPTE	1,KW,<^X1009F3>		;UNIBUS I/O PAGE #3
                                     046C   183 	SYSPTE	1,KW,<^X1009F4>		;UNIBUS I/O PAGE #4
                                     0470   184 	SYSPTE	1,KW,<^X1009F5>		;UNIBUS I/O PAGE #5
                                     0474   185 	SYSPTE	1,KW,<^X1009F6>		;UNIBUS I/O PAGE #6
                                     0478   186 	SYSPTE	1,KW,<^X1009F7>		;UNIBUS I/O PAGE #7
                                     047C   187 	SYSPTE	1,KW,<^X1009F8>		;UNIBUS I/O PAGE #8
                                     0480   188 	SYSPTE	1,KW,<^X1009F9>		;UNIBUS I/O PAGE #9
                                     0484   189 	SYSPTE	1,KW,<^X1009FA>		;UNIBUS I/O PAGE #10
                                     0488   190 	SYSPTE	1,KW,<^X1009FB>		;UNIBUS I/O PAGE #11
                                     048C   191 	SYSPTE	1,KW,<^X1009FC>		;UNIBUS I/O PAGE #12
                                     0490   192 	SYSPTE	1,KW,<^X1009FD>		;UNIBUS I/O PAGE #13
                                     0494   193 	SYSPTE	1,KW,<^X1009FE>		;UNIBUS I/O PAGE #14
                                     0498   194 	SYSPTE	1,KW,<^X1009FF>		;UNIBUS I/O PAGE #15
                                     049C   195
                           00000127  049C   196 	MMG$C_IOSPTN==PFN...		;PAGE NUMBER OF 1ST WINDOW SLOT
                                     049C   197 	SYSPTE	7,KW			;BUFFERED I/O MAP SLOTS
                                     04B8   198
                           0000012E  04B8   199 SGN$C_SPTLEN==SPTLEN			; LENGTH OF SYSTEM PAGE TABLE
                           80025C00  04B8   200 MMG$GL_SYSMAXVA==<SPTLEN@9>+^X80000000	; FIRST FREE ADDRESS IN SYSTEM SPACE
                                 00000000   201 	.PSECT	$$$999,PAGE,EXE,NOWRT		;END OF WRITABLE REGION
                                     0000   202 MMG$FRSTRONLY::					;SYSTEM VIRTUAL ADDRESS
                                     0000   203 						;OF FIRST READ ONLY PAGE
                                     0000   204
                                     0000   205 ;
                                     0000   206 ;	BOUND PAGABLE EXEC CODE TO PAGE BOUNDARY AND DEFINE
                                     0000   207 ;	STARTING VIRTUAL ADDRESS OF THIS REGION.
                                     0000   208 ;
                                 00000000   209 	.PSECT	Y$$$PAGEDCODE,PAGE
MDAT            ;MEMORY MANAGEMENT DATA BASE                     22-AUG-1978 00:15:07   VAX-11 MACRO X0.3-11               Page   5
00              SYSTEM PAGE TABLE                                                                                                (1)

                                     0000   210 MMG$AL_PGDCOD::				;
                                     0000   211
                                     0000   212 ;
                                     0000   213 ;	MARK END OF PAGED CODE
                                     0000   214 ;
                                 00000000   215 	.PSECT	YZ99$PAGEDEND,PAGE
                                     0000   216 MMG$AL_PGDCODEN::			;
                                     0000   217
                                     0000   218 	.END
MDAT            ;MEMORY MANAGEMENT DATA BASE                     22-AUG-1978 00:15:07   VAX-11 MACRO X0.3-11               Page   6
SYMBOL TABLE                                                                                                                     (1)

BIT...         = 00000000            PHD$L_BIOCNT     00000054            PHD$W_PRCLM      00000042
DBA$CSR        = 8001FE00  G         PHD$L_CPULIM     00000058            PHD$W_PST        00000020
DBB$CSR        = 80020E00  G         PHD$L_CPUTIM     0000003C            PHD$W_PSTFREE    00000026
DYN$C_ACB      = 00000002            PHD$L_DIOCNT     00000050            PHD$W_PSTLAST    00000024
DYN$C_ADP      = 00000001            PHD$L_ESP        0000007C            PHD$W_PTCNTACT   00000070
DYN$C_AQB      = 00000003            PHD$L_FREP0VA    00000028            PHD$W_PTCNTLCK   0000006C
DYN$C_BRDCST   = 0000001A            PHD$L_FREP1VA    00000030            PHD$W_PTCNTMAX   00000072
DYN$C_BUFIO    = 00000013            PHD$L_FREPTECNT  0000002C            PHD$W_PTCNTVAL   0000006E
DYN$C_CEB      = 00000004            PHD$L_KSP        00000078            PHD$W_QUANT      00000040
DYN$C_CIR      = 0000001E            PHD$L_P0BR       000000C8            PHD$W_TQLM       00000062
DYN$C_CRB      = 00000005            PHD$L_P0LRASTL   000000CC            PHD$W_WSAUTH     0000000A
DYN$C_CXB      = 0000001B            PHD$L_P1BR       000000D0            PHD$W_WSDYN      0000000E
DYN$C_DDB      = 00000006            PHD$L_P1LR       000000D4            PHD$W_WSFLUID    00000074
DYN$C_FCB      = 00000007            PHD$L_PAGEFLTS   0000004C            PHD$W_WSLAST     00000012
DYN$C_FRK      = 00000008            PHD$L_PAGFIL     0000001C            PHD$W_WSLIST     00000008
DYN$C_GSD      = 00000015            PHD$L_PC         000000C0            PHD$W_WSLOCK     0000000C
DYN$C_IDB      = 00000009            PHD$L_PCB        00000078            PHD$W_WSLX       0000004A
DYN$C_IRP      = 0000000A            PHD$L_PGFLCNT    00000034            PHD$W_WSNEXT     00000010
DYN$C_JPB      = 0000001F            PHD$L_PGFLQUOTA  0000005C            PHD$W_WSQUOTA    00000018
DYN$C_KFH      = 00000026            PHD$L_PSL        000000C4            PTE$C_EOWN     = 00800000
DYN$C_KFI      = 00000018            PHD$L_PSTBASOFF  00000020            PTE$C_ER       = 38000000
DYN$C_LOG      = 0000000B            PHD$L_PTWSLELCK  00000064            PTE$C_ERKW     = 30000000
DYN$C_MTL      = 00000019            PHD$L_PTWSLEVAL  00000068            PTE$C_EW       = 28000000
DYN$C_MVL      = 00000016            PHD$L_R0         00000088            PTE$C_KOWN     = 00000000
DYN$C_NDB      = 0000001C            PHD$L_R1         0000008C            PTE$C_KR       = 18000000
DYN$C_NET      = 00000017            PHD$L_R10        000000B0            PTE$C_KW       = 10000000
DYN$C_PBH      = 00000020            PHD$L_R11        000000B4            PTE$C_NA       = 00000000
DYN$C_PCB      = 0000000C            PHD$L_R12        000000B8            PTE$C_SOWN     = 01000000
DYN$C_PDB      = 00000021            PHD$L_R13        000000BC            PTE$C_SR       = 58000000
DYN$C_PFL      = 00000023            PHD$L_R2         00000090            PTE$C_SREW     = 48000000
DYN$C_PIB      = 00000022            PHD$L_R3         00000094            PTE$C_SRKW     = 50000000
DYN$C_PQB      = 0000000D            PHD$L_R4         00000098            PTE$C_SW       = 40000000
DYN$C_PTR      = 00000025            PHD$L_R5         0000009C            PTE$C_UOWN     = 01800000
DYN$C_RVT      = 0000000E            PHD$L_R6         000000A0            PTE$C_UR       = 78000000
DYN$C_SFT      = 00000024            PHD$L_R7         000000A4            PTE$C_UREW     = 68000000
DYN$C_SSB      = 0000001D            PHD$L_R8         000000A8            PTE$C_URKW     = 70000000
DYN$C_TQE      = 0000000F            PHD$L_R9         000000AC            PTE$C_URSW     = 60000000
DYN$C_TYPAHD   = 00000014            PHD$L_SSP        00000080            PTE$C_UW       = 20000000
DYN$C_UCB      = 00000010            PHD$L_USP        00000084            PTE$M_CRF      = 00010000
DYN$C_VCB      = 00000011            PHD$L_WSL        000000D8            PTE$M_DZRO     = 00020000
DYN$C_WCB      = 00000012            PHD$M_DALCSTX  = 00000002            PTE$M_GPTX     = 003FFFFF
GBL...         = 00000000            PHD$M_PFMFLG   = 00000001            PTE$M_MODIFY   = 04000000
MMG$AL_PGDCOD    00000000 RG    07   PHD$Q_PRIVMSK    00000000            PTE$M_OWN      = 01800000
MMG$AL_PGDCODEN  00000000 RG    08   PHD$S_ASTLVL   = 00000008            PTE$M_PFN      = 001FFFFF
MMG$AL_SPTBASE   00000000 RG    03   PHD$S_P0LR     = 00000018            PTE$M_PGFLVB   = 003FFFFF
MMG$AL_SYSPAGTB  00000000 RG    03   PHD$V_ASTLVL   = 00000018            PTE$M_PROT     = 78000000
MMG$C_IOSPTN   = 00000127  G         PHD$V_DALCSTX  = 00000001            PTE$M_TYP0     = 00400000
MMG$C_RLSPTE   = 000000FB  G         PHD$V_P0LR     = 00000000            PTE$M_TYP1     = 04000000
MMG$FRSTRONLY    00000000 RG    06   PHD$V_PFMFLG   = 00000000            PTE$M_VALID    = 80000000
MMG$GL_SPTBASE   00000000 RG    04   PHD$W_ASTLM      00000044            PTE$M_WRT      = 00040000
MMG$GL_SYSMAXVA= 80025C00  G         PHD$W_BAK        00000048            PTE$S_GPTX     = 00000016
PFN...         = 0000012E            PHD$W_DFWSCNT    0000001A            PTE$S_OWN      = 00000002
PHD$B_ASTLVL     000000CF            PHD$W_EXTDYNWS   00000076            PTE$S_PFN      = 00000015
PHD$B_DFPFC      00000038            PHD$W_FILLM      00000060            PTE$S_PGFLVB   = 00000016
PHD$B_PAGFIL     0000001F            PHD$W_FLAGS      0000003A            PTE$S_PROT     = 00000004
PHD$C_LENGTH     000000D8            PHD$W_PFMFLG     0000003A            PTE$S_STX      = 00000010
PHD$K_LENGTH     000000D8            PHD$W_PHVINDEX   00000046            PTE$V_CRF      = 00000010
MDAT            ;MEMORY MANAGEMENT DATA BASE                     22-AUG-1978 00:15:07   VAX-11 MACRO X0.3-11               Page   7
SYMBOL TABLE                                                                                                                     (1)

PTE$V_DZRO     = 00000011            SGN$C_MAXPGFL  = 00001000
PTE$V_GPTX     = 00000000            SGN$C_MAXPSTCNT= 00000005
PTE$V_MODIFY   = 0000001A            SGN$C_MAXVPGCNT= 00002000
PTE$V_OWN      = 00000017            SGN$C_MAXWSCNT = 00000400
PTE$V_PFN      = 00000000            SGN$C_MINWSCNT = 0000000A
PTE$V_PGFLVB   = 00000000            SGN$C_NPAGEDYN = 00006800
PTE$V_PROT     = 0000001B            SGN$C_NPROCS   = 00000040
PTE$V_STX      = 00000000            SGN$C_PAGEDYN  = 00004000
PTE$V_TYP0     = 00000016            SGN$C_PHYPAGCNT= 00001000
PTE$V_TYP1     = 0000001A            SGN$C_SFTMAX   = 00000003
PTE$V_VALID    = 0000001F            SGN$C_SPTLEN   = 0000012E  G
PTE$V_WRT      = 00000012            SGN$C_SYSDWSCNT= 00000028
SEC$B_AMOD       00000015            SGN$C_SYSVECPGS= 00000003
SEC$B_PFC        0000000B            SGN$C_SYSWSCNT = 00000060
SEC$C_LENGTH     00000020            SPTLEN         = 0000012E
SEC$K_LENGTH     00000020            SYS$IOBASE     = 8001F600  G
SEC$L_CCB        00000000            SYS$ISPINI       00000400 RG    05
SEC$L_GSD        00000000            TMP...         = 0000012E
SEC$L_PAGCNT     0000001C            UBA$CSR        = 80021E00  G
SEC$L_REFCNT     00000018            UBA$IOBASE     = 80022E00  G
SEC$L_VBN        00000010            WSL$C_GBLWRT   = 00000006
SEC$L_VPXPFC     00000008            WSL$C_GLOBAL   = 00000004
SEC$L_WINDOW     0000000C            WSL$C_GPGTBL   = 0000000A
SEC$M_AMOD     = 00000300            WSL$C_LENGTH   = 00000004
SEC$M_CRF      = 00000002            WSL$C_PPGTBL   = 00000008
SEC$M_DZRO     = 00000004            WSL$C_PROCESS  = 00000000
SEC$M_GBL      = 00000001            WSL$C_SYSTEM   = 00000002
SEC$M_PERM     = 00004000            WSL$M_GOODPAGE = 00000040
SEC$M_SYSGBL   = 00008000            WSL$M_MODIFY   = 00000100
SEC$M_WRT      = 00000008            WSL$M_PAGTYP   = 0000000E
SEC$S_AMOD     = 00000002            WSL$M_PFNLOCK  = 00000010
SEC$S_CRF      = 00000001            WSL$M_VALID    = 00000001
SEC$S_DZRO     = 00000001            WSL$M_WSLOCK   = 00000020
SEC$S_GBL      = 00000001            WSL$S_PAGTYP   = 00000003
SEC$S_PERM     = 00000001            WSL$V_GOODPAGE = 00000006
SEC$S_PFC      = 00000008            WSL$V_MODIFY   = 00000008
SEC$S_SYSGBL   = 00000001            WSL$V_PAGTYP   = 00000001
SEC$S_VPX      = 00000016            WSL$V_PFNLOCK  = 00000004
SEC$S_WRT      = 00000001            WSL$V_VALID    = 00000000
SEC$V_AMOD     = 00000008            WSL$V_WSLOCK   = 00000005
SEC$V_CRF      = 00000001
SEC$V_DZRO     = 00000002
SEC$V_GBL      = 00000000
SEC$V_PERM     = 0000000E
SEC$V_PFC      = 00000018
SEC$V_SYSGBL   = 0000000F
SEC$V_VPX      = 00000000
SEC$V_WRT      = 00000003
SEC$W_FLAGS      00000014
SEC$W_SECXBL     00000006
SEC$W_SECXFL     00000004
SGN$C_BALSETCNT= 00000018
SGN$C_DFWSCNT  = 00000064
SGN$C_DFWSQUOTA= 00000078
SGN$C_GBLSECCNT= 00000028
SGN$C_MAXGPGCNT= 00000800
SGN$C_MAXPAGCNT= 00004000
MDAT            ;MEMORY MANAGEMENT DATA BASE                     22-AUG-1978 00:15:07   VAX-11 MACRO X0.3-11               Page   8
PROGRAM SECTION SYNOPSIS                                                                                                         (1)


PROGRAM SECTION SYNOPSIS

.  ABS  .        00000000      00     NOPIC   USR   CON   ABS   LCL NOSHR NOEXE NORD  NOWRT BYTE
. BLANK .        00000000      01     NOPIC   USR   CON   REL   LCL NOSHR   EXE   RD    WRT BYTE
$ABS$            000000DC      02     NOPIC   USR   CON   ABS   LCL NOSHR   EXE   RD    WRT BYTE
$$$065           000004B8      03     NOPIC   USR   CON   REL   LCL NOSHR   EXE   RD    WRT PAGE
$$$223           00000004      04     NOPIC   USR   CON   REL   LCL NOSHR   EXE   RD    WRT LONG
$$$015           00000400      05     NOPIC   USR   CON   REL   LCL NOSHR   EXE   RD    WRT PAGE
$$$999           00000000      06     NOPIC   USR   CON   REL   LCL NOSHR   EXE   RD  NOWRT PAGE
Y$$$PAGEDCODE    00000000      07     NOPIC   USR   CON   REL   LCL NOSHR   EXE   RD    WRT PAGE
YZ99$PAGEDEND    00000000      08     NOPIC   USR   CON   REL   LCL NOSHR   EXE   RD    WRT PAGE


THERE WERE NO ERRORS OR WARNINGS.
18302. BYTES LEFT IN FREE MEMORY POOL.
2170. BYTES OF RECLAIMED MEMORY.
OBJ$:MDAT,LIS$:MDAT/-SP=LIB$:LIB/ML,SRC$:MDAT
3 MLB DIR RDS - 447 GETS TO DEFINE 15 MACROS. 52 INTER. FILE WRITES.
