MTFDT           - MAGTAPE FUNCTION DECISION TABLE ROUTINES       21-AUG-1978 23:56:54   VAX-11 MACRO X0.3-11               Page   0
TABLE OF CONTENTS

   (1)      34  CHECK ACCESS RIGHTS FOR CONTROL WRITE FUNCTIONS
MTFDT           - MAGTAPE FUNCTION DECISION TABLE ROUTINES       21-AUG-1978 23:56:54   VAX-11 MACRO X0.3-11               Page   1
01                                                                                                                               (1)

                                     0000     1 	.TITLE	MTFDT - MAGTAPE FUNCTION DECISION TABLE ROUTINES
                                     0000     2 	.IDENT	/01/
                                     0000     3
                                     0000     4 ;
                                     0000     5 ; COPYRIGHT (C) 1977
                                     0000     6 ; DIGITAL EQUIPMENT CORPORATION, MAYNARD, MASS.
                                     0000     7 ;
                                     0000     8 ; THIS SOFTWARE IS FURNISHED UNDER  A LICENSE FOR USE ONLY  ON  A
                                     0000     9 ; SINGLE COMPUTER SYSTEM AND MAY BE  COPIED ONLY WITH  THE INCLU-
                                     0000    10 ; SION OF  THE  ABOVE  COPYRIGHT NOTICE.  THIS SOFTWARE,  OR  ANY
                                     0000    11 ; OTHER COPIES THEREOF, MAY NOT BE  PROVIDED  OR  OTHERWISE  MADE
                                     0000    12 ; AVAILABLE TO ANY OTHER PERSON EXCEPT  FOR  USE  ON  SUCH SYSTEM
                                     0000    13 ; AND TO  ONE WHO AGREES  TO  THESE LICENSE  TERMS.  TITLE TO AND
                                     0000    14 ; OWNERSHIP OF THE SOFTWARE SHALL AT ALL TIMES REMAIN IN DEC.
                                     0000    15 ;
                                     0000    16 ; THE INFORMATION IN THIS SOFTWARE  IS  SUBJECT TO CHANGE WITHOUT
                                     0000    17 ; NOTICE AND SHOULD NOT BE CONSTRUED  AS  A COMMITMENT BY DIGITAL
                                     0000    18 ; EQUIPMENT CORPORATION.
                                     0000    19 ;
                                     0000    20 ; DEC ASSUMES NO RESPONSIBILITY FOR THE USE OR RELIABILITY OF ITS
                                     0000    21 ; SOFTWARE ON EQUIPMENT WHICH IS NOT SUPPLIED BY DEC.
                                     0000    22 ;
                                     0000    23 ; D. N. CUTLER 29-JUN-77
                                     0000    24 ;
                                     0000    25 ; MAGTAPE FUNCTION DECISION TABLE ROUTINES
                                     0000    26 ;
                                     0000    27 ; MACRO LIBRARY CALLS
                                     0000    28 ;
                                     0000    29
                                     0000    30 	$DEVDEF				;DEFINE DEVICE CHARACTERISTIC BITS
                                     0000    31 	$SSDEF				;DEFINE SYSTEM STATUS VALUES
                                     0000    32 	$UCBDEF				;DEFINE UCB OFFSETS
MTFDT           - MAGTAPE FUNCTION DECISION TABLE ROUTINES       21-AUG-1978 23:56:54   VAX-11 MACRO X0.3-11               Page   2
01              CHECK ACCESS RIGHTS FOR CONTROL WRITE FUNCTIONS                                                                  (1)

                                     0000    34 	.SBTTL	CHECK ACCESS RIGHTS FOR CONTROL WRITE FUNCTIONS
                                     0000    35 ;+
                                     0000    36 ; MT$CHECK_ACCESS - CHECK ACCESS RIGHTS FOR CONTROL WRITE FUNCTIONS
                                     0000    37 ;
                                     0000    38 ; THIS ROUTINE IS CALLED BY THE FUNCTION DECISION TABLE DISPATCHER WHEN A WRITE
                                     0000    39 ; TAPE MARK OR ERASE TAPE FUNCTION IS ENCOUNTERED. ITS FUNCTION IS TO CHECK THE
                                     0000    40 ; ACCESS RIGHTS OF THE REQUESTING PROCESS.
                                     0000    41 ;
                                     0000    42 ; INPUTS:
                                     0000    43 ;
                                     0000    44 ;	R0 = SCRATCH.
                                     0000    45 ;	R1 = SCRATCH.
                                     0000    46 ;	R2 = SCRATCH.
                                     0000    47 ;	R3 = ADDRESS OF I/O REQUEST PACKET.
                                     0000    48 ;	R4 = CURRENT PROCESS PCB ADDRESS.
                                     0000    49 ;	R5 = ASSIGNED DEVICE UCB ADDRESS.
                                     0000    50 ;	R6 = ADDRESS OF CCB.
                                     0000    51 ;	R7 = I/O FUNCTION CODE BIT NUMBER.
                                     0000    52 ;	R8 = FUNCTION DECISION TABLE DISPATCH ADDRESS.
                                     0000    53 ;	R9 = SCRATCH.
                                     0000    54 ;	R10 = SCRATCH.
                                     0000    55 ;	R11 = SCRATCH.
                                     0000    56 ;	AP = ADDRESS OF FIRST FUNCTION DEPENDENT PARAMETER.
                                     0000    57 ;
                                     0000    58 ; OUTPUTS:
                                     0000    59 ;
                                     0000    60 ;	THE ACCESS RIGHTS OF THE REQUESTING PROCESS ARE CHECKED TO DETERMINE
                                     0000    61 ;	WHETHER A CONTROL WRITE FUNCTION CAN BE PERFORMED. IF THE REQUESTING
                                     0000    62 ;	PROCESS DOES NOT HAVE SUFFICIENT PRIVILEGE, THEN THE I/O FUNCTION IS
                                     0000    63 ;	ABORTED WITH A STATUS OF SS$_NOPRIV. OTHERWISE A RETURN TO THE FUNCTION
                                     0000    64 ;	DECISION TABLE DISPATCHER IS EXECUTED.
                                     0000    65 ;-
                                     0000    66
                                     0000    67 MT$CHECK_ACCESS::			;CHECK ACCESS RIGHTS FOR CONTROL WRITE
         34 A5            19     E0  0000    68 	BBS	#DEV$V_SWL,UCB$L_DEVCHAR(R5),10$ ;IF SET, SOFTWARE WRITE LOCKED
                          0F         0004
            51         1A A5     3C  0005    69 	MOVZWL	UCB$W_VPROT(R5),R1	;GET VOLUME PROTECTION MASK
            52         1C A5     D0  0009    70 	MOVL	UCB$L_OWNUIC(R5),R2	;GET VOLUME OWNER UIC
                          FFF0'  30  000D    71 	BSBW	EXE$CHKWRTACCES		;WRITE FOR WRITE ACCESS TO VOLUME
            01            50     E9  0010    72 	BLBC	R0,10$			;IF LBC ACCESS DENIED
                                 05  0013    73 	RSB				;
            50            24     3C  0014    74 10$:	MOVZWL	#SS$_NOPRIV,R0		;SET NO PRIVLEGE STATUS
                          FFE6'  31  0017    75 	BRW	EXE$ABORTIO		;ABORT I/O OPERATION
                                     001A    76
                                     001A    77 	.END
MTFDT           - MAGTAPE FUNCTION DECISION TABLE ROUTINES       21-AUG-1978 23:56:54   VAX-11 MACRO X0.3-11               Page   3
SYMBOL TABLE                                                                                                                     (1)

BIT...         = 00000000            SS$_ACCVIO     = 0000000C            SS$_FCPWRITERR = 000008A0
DEV$M_ALL      = 00800000            SS$_ARITH      = 00000404            SS$_FILACCERR  = 0000009C
DEV$M_AVL      = 00040000            SS$_ASTFLT     = 0000040C            SS$_FILALRACC  = 000000A4
DEV$M_CCL      = 00000002            SS$_BADATTRIB  = 00000034            SS$_FILELOCKED = 000008A8
DEV$M_DIR      = 00000008            SS$_BADCHKSUM  = 00000808            SS$_FILENUMCHK = 000008B0
DEV$M_DMT      = 00200000            SS$_BADESCAPE  = 0000003C            SS$_FILESEQCHK = 000008B8
DEV$M_ELG      = 00400000            SS$_BADFILEHDR = 00000810            SS$_FILESTRUCT = 000008C0
DEV$M_FOD      = 00004000            SS$_BADFILENAME= 00000818            SS$_FILNOTACC  = 000000AC
DEV$M_FOR      = 01000000            SS$_BADFILEVER = 00000820            SS$_FILNOTCNTG = 000002AC
DEV$M_GEN      = 00020000            SS$_BADIMGHDR  = 00000044            SS$_FILNOTEXP  = 000000B4
DEV$M_IDV      = 04000000            SS$_BADIRECTORY= 00000828            SS$_FORMAT     = 000000BC
DEV$M_MBX      = 00100000            SS$_BADPARAM   = 00000014            SS$_GPTFULL    = 000000C4
DEV$M_MNT      = 00080000            SS$_BADSTACK   = 000002B4            SS$_GSDFULL    = 000000CC
DEV$M_NET      = 00002000            SS$_BEGOFFILE  = 00000938            SS$_GSDNOTXXX  = 000000D4
DEV$M_ODV      = 08000000            SS$_BLOCKCNTERR= 00000940            SS$_HANGUP     = 000002CC
DEV$M_RCK      = 40000000            SS$_BREAK      = 00000414            SS$_HEADERFULL = 000008C8
DEV$M_REC      = 00000001            SS$_BUFFEROVF  = 00000601            SS$_IDXFILEFULL= 000008D0
DEV$M_RND      = 10000000            SS$_BUGCHECK   = 000002A4            SS$_ILLBLKNUM  = 000000DC
DEV$M_RTM      = 20000000            SS$_CANCEL     = 00000830            SS$_ILLCNTRFUNC= 000000E4
DEV$M_SDI      = 00000010            SS$_CHANINTLK  = 0000004C            SS$_ILLEFC     = 000000EC
DEV$M_SHR      = 00010000            SS$_CLIFRCEXT  = 00000980            SS$_ILLIOFUNC  = 000000F4
DEV$M_SPL      = 00000040            SS$_CMODSUPR   = 0000041C            SS$_ILLLBLAST  = 00000968
DEV$M_SQD      = 00000020            SS$_CMODUSER   = 00000424            SS$_ILLPAGCNT  = 000000FC
DEV$M_SWL      = 02000000            SS$_COMPAT     = 0000042C            SS$_ILLSEQOP   = 000002DC
DEV$M_TRM      = 00000004            SS$_CONTINUE   = 00000001            SS$_ILLSER     = 00000104
DEV$M_WCK      = 80000000            SS$_CONTROLC   = 00000651            SS$_ILLUSRLBLRD= 00000958
DEV$V_ALL      = 00000017            SS$_CONTROLO   = 00000609            SS$_ILLUSRLBLWT= 00000960
DEV$V_AVL      = 00000012            SS$_CONTROLY   = 00000611            SS$_INCVOLLABEL= 0000010C
DEV$V_CCL      = 00000001            SS$_CREATED    = 00000619            SS$_INSFARG    = 00000114
DEV$V_DIR      = 00000003            SS$_CTRLERR    = 00000054            SS$_INSFMEM    = 00000124
DEV$V_DMT      = 00000015            SS$_DATACHECK  = 0000005C            SS$_INSFRAME   = 0000012C
DEV$V_ELG      = 00000016            SS$_DATAOVERUN = 00000838            SS$_INSFWSL    = 0000011C
DEV$V_FOD      = 0000000E            SS$_DEBUG      = 0000046C            SS$_IVADDR     = 00000134
DEV$V_FOR      = 00000018            SS$_DEVACTIVE  = 000002C4            SS$_IVCHAN     = 0000013C
DEV$V_GEN      = 00000011            SS$_DEVALLOC   = 00000840            SS$_IVCHNLSEC  = 0000026C
DEV$V_IDV      = 0000001A            SS$_DEVALRALLOC= 00000641            SS$_IVDEVNAM   = 00000144
DEV$V_MBX      = 00000014            SS$_DEVASSIGN  = 00000848            SS$_IVGSDNAM   = 0000014C
DEV$V_MNT      = 00000013            SS$_DEVFOREIGN = 00000064            SS$_IVLOGNAM   = 00000154
DEV$V_NET      = 0000000D            SS$_DEVICEFULL = 00000850            SS$_IVLOGTAB   = 0000015C
DEV$V_ODV      = 0000001B            SS$_DEVMOUNT   = 0000006C            SS$_IVPROTECT  = 000002F4
DEV$V_RCK      = 0000001E            SS$_DEVNOTALLOC= 00000858            SS$_IVQUOTAL   = 00000164
DEV$V_REC      = 00000000            SS$_DEVNOTMBX  = 00000074            SS$_IVSECFLG   = 0000016C
DEV$V_RND      = 0000001C            SS$_DEVNOTMOUNT= 0000007C            SS$_IVSECIDCTL = 000002E4
DEV$V_RTM      = 0000001D            SS$_DEVOFFLINE = 00000084            SS$_IVSSRQ     = 00000174
DEV$V_SDI      = 00000004            SS$_DIRFULL    = 00000860            SS$_IVSTSFLG   = 0000017C
DEV$V_SHR      = 00000010            SS$_DRVERR     = 0000008C            SS$_IVTIME     = 00000184
DEV$V_SPL      = 00000006            SS$_DUPFILENAME= 00000868            SS$_LENVIO     = 0000018C
DEV$V_SQD      = 00000005            SS$_DUPLNAM    = 00000094            SS$_LKWSETFUL  = 00000194
DEV$V_SWL      = 00000019            SS$_ENDOFFILE  = 00000870            SS$_MBFULL     = 000008D8
DEV$V_TRM      = 00000002            SS$_ENDOFTAPE  = 00000878            SS$_MBTOOSML   = 0000019C
DEV$V_WCK      = 0000001F            SS$_ENDOFUSRLBL= 00000970            SS$_MCHECK     = 000002BC
EXE$ABORTIO      ********   X   01   SS$_EXQUOTA    = 0000001C            SS$_MEDOFL     = 000001A4
EXE$CHKWRTACCES  ********   X   01   SS$_EXTIDXFILE = 00000880            SS$_MSGNOTFND  = 00000621
GBL...         = 00000000            SS$_FCPREADERR = 00000888            SS$_MUSTCLOSEFL= 00000948
MT$CHECK_ACCESS  00000000 RG    01   SS$_FCPREPSTN  = 00000988            SS$_NODATA     = 000001AC
SS$_ABORT      = 0000002C            SS$_FCPREWNDERR= 00000890            SS$_NOHANDLER  = 000008F8
SS$_ACCONFLICT = 00000800            SS$_FCPSPACERR = 00000898            SS$_NOHOMEBLK  = 000008E0
MTFDT           - MAGTAPE FUNCTION DECISION TABLE ROUTINES       21-AUG-1978 23:56:54   VAX-11 MACRO X0.3-11               Page   4
SYMBOL TABLE                                                                                                                     (1)

SS$_NOIOCHAN   = 000001B4            SS$_WRITLCK    = 0000025C            UCB$L_NT_INTSSB  00000078
SS$_NOLINKS    = 0000027C            UCB$B_AMOD       00000053            UCB$L_OPCNT      00000060
SS$_NOLOGNAM   = 000001BC            UCB$B_CEX        00000077            UCB$L_OWNUIC     0000001C
SS$_NOMBX      = 00000274            UCB$B_CM1        0000004A            UCB$L_PID        00000028
SS$_NOMOREFILES= 00000930            UCB$B_CM2        0000004B            UCB$L_RQBL       00000004
SS$_NONEXDRV   = 000001C4            UCB$B_DEVCLASS   00000038            UCB$L_RQFL       00000000
SS$_NONEXPR    = 000008E8            UCB$B_DEVTYPE    00000039            UCB$L_SVAPTE     00000068
SS$_NONLOCAL   = 000008F0            UCB$B_DIPL       00000052            UCB$L_SVPN       00000064
SS$_NOPRIV     = 00000024            UCB$B_DX_SCTCNT  FFFFFFFE            UCB$L_TTCHAR     0000003C
SS$_NORMAL     = 00000001            UCB$B_DX_SPARE   FFFFFFFF            UCB$L_VCB        00000030
SS$_NOSIGNAL   = 00000900            UCB$B_ERTCNT     00000070            UCB$M_BSY      = 00000100
SS$_NOSOLICIT  = 00000284            UCB$B_ERTMAX     00000071            UCB$M_CANCEL   = 00000008
SS$_NOSUCHDEV  = 00000908            UCB$B_ESCAPE     0000004B            UCB$M_DEADMO   = 00000400
SS$_NOSUCHFILE = 00000910            UCB$B_FEX        00000076            UCB$M_DELMBX   = 00000002
SS$_NOSUCHNODE = 0000028C            UCB$B_FIPL       0000000B            UCB$M_DIAGBUF  = 00000002
SS$_NOSUCHSEC  = 00000978            UCB$B_LOCSRV     0000003C            UCB$M_DX_WRITE = 00000008
SS$_NOTAPEOP   = 00000264            UCB$B_OFFNDX     00000090            UCB$M_ECC      = 00000001
SS$_NOTFILEDEV = 000001CC            UCB$B_OFFRTC     00000091            UCB$M_ERLOGIP  = 00000004
SS$_NOTINTBLSZ = 000001D4            UCB$B_REMSRV     0000003D            UCB$M_INT      = 00000002
SS$_NOTLABELMT = 000001DC            UCB$B_SECTORS    0000003C            UCB$M_INTTYPE  = 00000080
SS$_NOTNETDEV  = 000002EC            UCB$B_SLAVE      00000074            UCB$M_JOB      = 00000001
SS$_NOTRAN     = 00000629            UCB$B_SPR        00000075            UCB$M_MOUNTING = 00000200
SS$_NOTSQDEV   = 000001E4            UCB$B_STATE      00000052            UCB$M_NOCNVRT  = 00000004
SS$_OPCCUS     = 00000434            UCB$B_TRACKS     0000003D            UCB$M_NT_BFROVF= 00000004
SS$_OPCDEC     = 0000043C            UCB$B_TYPE       0000000A            UCB$M_NT_BREAK = 00000020
SS$_OPINCOMPL  = 000002D4            UCB$B_VERTSZ     0000003F            UCB$M_NT_NAME  = 00000010
SS$_PAGOWNVIO  = 000001EC            UCB$C_LENGTH     00000074            UCB$M_NT_NONTR = 00000040
SS$_PAGRDERR   = 00000444            UCB$C_LOGLNK   = 00000001            UCB$M_NT_SDP   = 00000008
SS$_PARITY     = 000001F4            UCB$K_LENGTH     00000074            UCB$M_ONLINE   = 00000010
SS$_PARTESCAPE = 000001FC            UCB$L_AMB        00000054            UCB$M_POWER    = 00000020
SS$_PFMBSY     = 00000204            UCB$L_ASTQBL     00000010            UCB$M_PRMMBX   = 00000001
SS$_PSTFULL    = 0000020C            UCB$L_ASTQFL     0000000C            UCB$M_TIM      = 00000001
SS$_RADRMOD    = 0000044C            UCB$L_CPID       0000005C            UCB$M_TIMOUT   = 00000040
SS$_REJECT     = 00000294            UCB$L_CRB        00000020            UCB$M_TT_NOTIF = 00000004
SS$_REMOTE     = 00000649            UCB$L_DDB        00000024            UCB$M_TT_TIMO  = 00000002
SS$_RESIGNAL   = 00000918            UCB$L_DEVCHAR    00000034            UCB$M_VALID    = 00000800
SS$_RESULTOVF  = 00000214            UCB$L_DEVDEPEND  0000003C            UCB$S_LNKPRI   = 00000002
SS$_ROPRAND    = 00000454            UCB$L_DPC        0000007C            UCB$S_LTYPE    = 00000002
SS$_SECTBLFUL  = 0000021C            UCB$L_DUETIM     0000005C            UCB$T_PARTNER    0000000C
SS$_SSFAIL     = 0000045C            UCB$L_DX_BFPNT   FFFFFFF4            UCB$V_BACKP    = 00000005
SS$_SUPERSEDE  = 00000631            UCB$L_DX_BUF     FFFFFFF0            UCB$V_BSY      = 00000008
SS$_TAPEPOSLOST= 00000224            UCB$L_DX_RXDB    FFFFFFF8            UCB$V_CANCEL   = 00000003
SS$_TBIT       = 00000464            UCB$L_EMB        00000078            UCB$V_DEADMO   = 0000000A
SS$_TIMEOUT    = 0000022C            UCB$L_FIRST      00000014            UCB$V_DELMBX   = 00000001
SS$_TOOMANYVER = 00000990            UCB$L_FPC        0000000C            UCB$V_DIAGBUF  = 00000001
SS$_TOOMUCHDATA= 0000029C            UCB$L_FQBL       00000004            UCB$V_DX_WRITE = 00000003
SS$_UNASEFC    = 00000234            UCB$L_FQFL       00000000            UCB$V_ECC      = 00000000
SS$_UNSAFE     = 0000023C            UCB$L_FR3        00000010            UCB$V_ERLOGIP  = 00000002
SS$_UNWIND     = 00000920            UCB$L_FR4        00000014            UCB$V_INT      = 00000001
SS$_UNWINDING  = 00000928            UCB$L_IOQBL      00000044            UCB$V_INTTYPE  = 00000007
SS$_VASFULL    = 00000244            UCB$L_IOQFL      00000040            UCB$V_JOB      = 00000000
SS$_VECINUSE   = 0000024C            UCB$L_IRP        0000004C            UCB$V_LNKPRI   = 00000006
SS$_VOLINV     = 00000254            UCB$L_LINK       0000002C            UCB$V_LTYPE    = 00000000
SS$_WAITUSRLBL = 00000950            UCB$L_LOGADR     00000064            UCB$V_MOUNTING = 00000009
SS$_WASCLR     = 00000001            UCB$L_MAXBLOCK   00000080            UCB$V_MSGACK   = 00000004
SS$_WASECC     = 00000639            UCB$L_MEDIA      00000088            UCB$V_MSGFLO   = 00000003
SS$_WASSET     = 00000009            UCB$L_NT_DATSSB  00000074            UCB$V_NOCNVRT  = 00000002
MTFDT           - MAGTAPE FUNCTION DECISION TABLE ROUTINES       21-AUG-1978 23:56:54   VAX-11 MACRO X0.3-11               Page   5
SYMBOL TABLE                                                                                                                     (1)

UCB$V_NT_BFROVF= 00000002
UCB$V_NT_BREAK = 00000005
UCB$V_NT_NAME  = 00000004
UCB$V_NT_NONTR = 00000006
UCB$V_NT_SDP   = 00000003
UCB$V_ONLINE   = 00000004
UCB$V_POWER    = 00000005
UCB$V_PRMMBX   = 00000000
UCB$V_SEGFLO   = 00000002
UCB$V_TIM      = 00000000
UCB$V_TIMOUT   = 00000006
UCB$V_TT_NOTIF = 00000002
UCB$V_TT_TIMO  = 00000001
UCB$V_VALID    = 0000000B
UCB$W_BCNT       0000006E
UCB$W_BCR        00000092
UCB$W_BOFF       0000006C
UCB$W_BUFQUO     00000018
UCB$W_BYTESTOGO  0000003E
UCB$W_CHARGE     0000004A
UCB$W_CYLINDERS  0000003E
UCB$W_DA         00000088
UCB$W_DC         0000008A
UCB$W_DEVBUFSIZ  0000003A
UCB$W_DEVSTS     0000005A
UCB$W_DSTADDR    00000018
UCB$W_DX_BCR     FFFFFFFC
UCB$W_EC1        0000008C
UCB$W_EC2        0000008E
UCB$W_ERRCNT     00000072
UCB$W_FUNC       00000084
UCB$W_MB_SEED    FFFFFFFC
UCB$W_MSGCNT     00000016
UCB$W_MSGMAX     00000014
UCB$W_NT_CHAN    0000007C
UCB$W_OFFSET     00000086
UCB$W_REFC       00000050
UCB$W_SIZE       00000008
UCB$W_SRCADDR    0000001A
UCB$W_STS        00000058
UCB$W_UNIT       00000048
UCB$W_VPROT      0000001A


PROGRAM SECTION SYNOPSIS

.  ABS  .        00000000      00     NOPIC   USR   CON   ABS   LCL NOSHR NOEXE NORD  NOWRT BYTE
. BLANK .        0000001A      01     NOPIC   USR   CON   REL   LCL NOSHR   EXE   RD    WRT BYTE
$ABS$            FFFFFFFF      02     NOPIC   USR   CON   ABS   LCL NOSHR   EXE   RD    WRT BYTE


THERE WERE NO ERRORS OR WARNINGS.
14478. BYTES LEFT IN FREE MEMORY POOL.
3880. BYTES OF RECLAIMED MEMORY.
OBJ$:MTFDT,LIS$:MTFDT/-SP=LIB$:LIB/ML,SRC$:MTFDT
4 MLB DIR RDS - 567 GETS TO DEFINE 12 MACROS. 43 INTER. FILE WRITES.
