NULLPROC        NULL PROCESS CODE                                21-AUG-1978 23:32:03   VAX-11 MACRO X0.3-11               Page   0
TABLE OF CONTENTS

   (1)    4000  DECLARATIONS
   (1)    5800  EXE$NULLPROC - NULL PROCESS
NULLPROC        NULL PROCESS CODE                                21-AUG-1978 23:32:03   VAX-11 MACRO X0.3-11               Page   1
02                                                                                                                               (1)

                                     0000   100
                                     0000   200 	.TITLE	NULLPROC NULL PROCESS CODE
                                     0000   300 	.IDENT	/02/
                                     0000   400
                                     0000   500 ;
                                     0000   600 ; COPYRIGHT (C) 1976
                                     0000   700 ; DIGITAL EQUIPMENT CORPORATION, MAYNARD, MASSACHUSETTS 01754
                                     0000   800 ;
                                     0000   900 ; THIS SOFTWARE IS FURNISHED  UNDER A LICENSE FOR USE ONLY ON A SINGLE
                                     0000  1000 ; COMPUTER  SYSTEM AND  MAY BE  COPIED ONLY WITH  THE INCLUSION OF THE
                                     0000  1100 ; ABOVE COPYRIGHT NOTICE.  THIS SOFTWARE, OR ANY OTHER COPIES THEREOF,
                                     0000  1200 ; MAY NOT BE PROVIDED OR  OTHERWISE MADE AVAILABLE TO ANY OTHER PERSON
                                     0000  1300 ; EXCEPT FOR USE ON SUCH SYSTEM AND TO ONE WHO AGREES TO THESE LICENSE
                                     0000  1400 ; TERMS.  TITLE TO AND  OWNERSHIP OF THE  SOFTWARE  SHALL AT ALL TIMES
                                     0000  1500 ; REMAIN IN DEC.
                                     0000  1600 ;
                                     0000  1700 ; THE INFORMATION IN THIS SOFTWARE IS SUBJECT TO CHANGE WITHOUT NOTICE
                                     0000  1800 ; AND SHOULD  NOT BE CONSTRUED  AS A COMMITMENT  BY DIGITAL  EQUIPMENT
                                     0000  1900 ; CORPORATION.
                                     0000  2000 ;
                                     0000  2100 ; DEC ASSUMES  NO  RESPONSIBILITY  FOR  THE USE OR  RELIABILITY OF ITS
                                     0000  2200 ; SOFTWARE ON EQUIPMENT WHICH IS NOT SUPPLIED BY DEC.
                                     0000  2300
                                     0000  2400 ;++
                                     0000  2500 ; FACILITY: EXECUTIVE, SCHEDULER
                                     0000  2600 ;
                                     0000  2700 ; ABSTRACT: NULLPROC CONTAINS THE MAIN CODE FOR THE NULL
                                     0000  2800 ;	    PROCESS WHICH ABSORBS ALL EXCESS PROCESSOR TIME.
                                     0000  2900 ;
                                     0000  3000 ; ENVIRONMENT:
                                     0000  3100 ;
                                     0000  3200 ; AUTHOR: R. HUSTVEDT	 CREATION DATE: 30-NOV-76
                                     0000  3300 ;
                                     0000  3400 ; MODIFIED BY:
                                     0000  3500 ;
                                     0000  3600 ;  , VERSION  ,
                                     0000  3700 ; 01	-
                                     0000  3800 ;--
NULLPROC        NULL PROCESS CODE                                21-AUG-1978 23:32:03   VAX-11 MACRO X0.3-11               Page   2
02              DECLARATIONS                                                                                                     (1)

                                     0000  4000 	.SBTTL	DECLARATIONS
                                     0000  4100 ;
                                     0000  4200 ; INCLUDE FILES:
                                     0000  4300 ;
                                     0000  4400
                                     0000  4500 ;
                                     0000  4600 ; MACROS:
                                     0000  4700 ;
                                     0000  4800
                                     0000  4900 ;
                                     0000  5000 ; EQUATED SYMBOLS:
                                     0000  5100 ;
                                     0000  5200
                                     0000  5300 ;
                                     0000  5400 ; OWN STORAGE:
                                     0000  5500 ;
                                     0000  5600
NULLPROC        NULL PROCESS CODE                                21-AUG-1978 23:32:03   VAX-11 MACRO X0.3-11               Page   3
02              EXE$NULLPROC - NULL PROCESS                                                                                      (1)

                                     0000  5800 	.SBTTL	EXE$NULLPROC - NULL PROCESS
                                     0000  5900 ;++
                                     0000  6000 ; FUNCTIONAL DESCRIPTION:
                                     0000  6100 ;	EXE$NULLPROC CONTAINS THE CODE EXECUTED ONLY WHEN NO OTHER
                                     0000  6200 ;	PROCESS REQUIRES PROCESSOR TIME.  THE CUMULATIVE EXECUTION
                                     0000  6300 ;	TIME FOR THE NULL PROCESS REPRESENTS THE SYSTEM IDLE TIME.
                                     0000  6400 ;	THE REASON FOR BEING IDLE IS DETERMINED BY THE NULL PROCESS
                                     0000  6500 ;	AND A CORRESPONDING COUNTER INCREMENTED.  THIS SET OF COUNTERS
                                     0000  6600 ;	CAN BE USED TO DETERMINE THE TIME SPENT IN EACH POSSIBLE
                                     0000  6700 ;	IDLE STATE.
                                     0000  6800 ;
                                     0000  6900 ; CALLING SEQUENCE:
                                     0000  7000 ;	NONE
                                     0000  7100 ;
                                     0000  7200 ; INPUT PARAMETERS:
                                     0000  7300 ;	NONE
                                     0000  7400 ;
                                     0000  7500 ; IMPLICIT INPUTS:
                                     0000  7600 ;	NONE
                                     0000  7700 ;
                                     0000  7800 ; OUTPUT PARAMETERS:
                                     0000  7900 ;	NONE
                                     0000  8000 ;
                                     0000  8100 ; IMPLICIT OUTPUTS:
                                     0000  8200 ;	NONE
                                     0000  8300 ;
                                     0000  8400 ; COMPLETION CODES:
                                     0000  8500 ;	NONE
                                     0000  8600 ;
                                     0000  8700 ; SIDE EFFECTS:
                                     0000  8800 ;	NONE
                                     0000  8900 ;
                                     0000  9000 ;--
                                     0000  9100
                                     0000  9200
                                     0000  9300
                                     0000  9400 EXE$NULLPROC::					; NULL PROCESS ENTRY
                          FE     11  0000  9500 10$:	BRB	10$				; **** TEMP ****
                                     0002  9600
                                     0002  9700 	.END
NULLPROC        NULL PROCESS CODE                                21-AUG-1978 23:32:03   VAX-11 MACRO X0.3-11               Page   4
SYMBOL TABLE                                                                                                                     (1)

EXE$NULLPROC     00000000 RG    01


PROGRAM SECTION SYNOPSIS

.  ABS  .        00000000      00     NOPIC   USR   CON   ABS   LCL NOSHR NOEXE NORD  NOWRT BYTE
. BLANK .        00000002      01     NOPIC   USR   CON   REL   LCL NOSHR   EXE   RD    WRT BYTE


THERE WERE NO ERRORS OR WARNINGS.
28554. BYTES LEFT IN FREE MEMORY POOL.
OBJ$:NULLPROC,LIS$:NULLPROC/-SP=LIB$:LIB/ML,SRC$:NULLPROC
0 MLB DIR RDS - 0 GETS TO DEFINE 0 MACROS. 1 INTER. FILE WRITES.
