SCBVECTOR                                                        22-AUG-1978 00:17:50   VAX-11 MACRO X0.3-11               Page   0
TABLE OF CONTENTS

   (1)      37  SCB PROTOTYPE
SCBVECTOR                                                        22-AUG-1978 00:17:50   VAX-11 MACRO X0.3-11               Page   1
01                                                                                                                               (1)

                                     0000     1 	.TITLE	SCBVECTOR
                                     0000     2 	.IDENT	/01/
                                     0000     3 ;
                                     0000     4 ; COPYRIGHT (C) 1977
                                     0000     5 ; DIGITAL EQUIPMENT CORPORATION, MAYNARD, MASS.
                                     0000     6 ;
                                     0000     7 ; THIS SOFTWARE IS FURNISHED UNDER  A LICENSE FOR USE ONLY  ON  A
                                     0000     8 ; SINGLE COMPUTER SYSTEM AND MAY BE  COPIED ONLY WITH  THE INCLU-
                                     0000     9 ; SION OF  THE  ABOVE  COPYRIGHT NOTICE.  THIS SOFTWARE,  OR  ANY
                                     0000    10 ; OTHER COPIES THEREOF, MAY NOT BE  PROVIDED  OR  OTHERWISE  MADE
                                     0000    11 ; AVAILABLE TO ANY OTHER PERSON EXCEPT  FOR  USE  ON  SUCH SYSTEM
                                     0000    12 ; AND TO  ONE WHO AGREES  TO  THESE LICENSE  TERMS.  TITLE TO AND
                                     0000    13 ; OWNERSHIP OF THE SOFTWARE SHALL AT ALL TIMES REMAIN IN DEC.
                                     0000    14 ;
                                     0000    15 ; THE INFORMATION IN THIS SOFTWARE  IS  SUBJECT TO CHANGE WITHOUT
                                     0000    16 ; NOTICE AND SHOULD NOT BE CONSTRUED  AS  A COMMITMENT BY DIGITAL
                                     0000    17 ; EQUIPMENT CORPORATION.
                                     0000    18 ;
                                     0000    19 ; DEC ASSUMES NO RESPONSIBILITY FOR THE USE OR RELIABILITY OF ITS
                                     0000    20 ; SOFTWARE ON EQUIPMENT WHICH IS NOT SUPPLIED BY DEC.
                                     0000    21 ;
                                     0000    22 ;++
                                     0000    23 ; SYSTEM CONTROL BLOCK FOR DSC STAND-ALONE SYSTEM
                                     0000    24 ;--
                                     0000    25 ;
                                     0000    26 ; VERSION 01
                                     0000    27 ;
                                     0000    28 ; AUTHOR: C. A. MONIA 23-JAN-1978
                                     0000    29 ;
                                     0000    30
                                     0000    31
                                     0000    32 	.MACRO	SPUR,VNUM
                                     0000    33 VEC'VNUM:	BSBW	UNEXP
                                     0000    34 	.BYTE	<^X'VNUM>/2
                                     0000    35 	.ENDM	SPUR
SCBVECTOR                                                        22-AUG-1978 00:17:50   VAX-11 MACRO X0.3-11               Page   2
01              SCB PROTOTYPE                                                                                                    (1)

                                     0000    37 	.SBTTL	SCB PROTOTYPE
                                     0000    38 ;++
                                     0000    39 ; SCB PROTOTYPE
                                     0000    40 ;
                                     0000    41 ; ADDRESS =0
                                     0000    42 ;--
                                     0000    43 	$IPLDEF			; DEFINE IPL LEVELS
                                     0000    44 	$PRDEF			; DEFINE PROCESSOR REGISTERS
                                     0000    45
                                 00000000    46 	.PSECT	$$$000SCB,PAGE	; SCB MUST BE PAGE ALIGNED
                           00000001  0000    47 INTSTK=1			; DEFINITION FOR INTERRUPT STACK
                                     0000    48 SCB$AL_BASE::			; SCB BASE ADDRESS
                           00000221' 0000    49 	.LONG	VEC000+INTSTK ; UNUSED, RESERVED TO DIGITAL
                                     0004    50 EXE$MCHKVEC::
                           00000209' 0004    51 	.LONG	MCHK+INTSTK	; MACHINE CHECK HALT.   ^X004
                           00000001' 0008    52 	.LONG	EXE$KERSTKNV+INTSTK; KERNEL STACK NOT VALID HALT. ^X008
                           0000022D' 000C    53 	.LONG	VEC00C+INTSTK; POWER FAIL INTERUPT. ^X00C
                           00000000' 0010    54 	.LONG	EXE$OPCDEC	; RESERVED/PRIVILEGED INSTRUCTION FAULT. ^X010
                           00000000' 0014    55 	.LONG	EXE$OPCCUS	; CUSTOMER RESERVED INSTRUCTION FAULT. ^X014
                           00000000' 0018    56 	.LONG	EXE$ROPRAND	; RESERVED OPERAND FAULT/HALT. ^X018
                           00000000' 001C    57 	.LONG	EXE$RADRMOD	; RESERVED ADDRESSING MODE FAULT. ^X01C
                                     0020    58 EXE$ACVEC::
                           00000000' 0020    59 	.LONG	EXE$ACVIOLAT	; ACCESS CONTROL VIOLATION FAULT. ^X020
                                     0024    60 EXE$PFVEC::
                           00000244' 0024    61 	.LONG	VEC024		; TRANSLATION NOT VALID FAULT. ^X024
                           00000000' 0028    62 	.LONG	EXE$TBIT	; TBIT FAULT.			^X028
                           00000000' 002C    63 	.LONG	EXE$BREAK	; BREAKPOINT FAULT.		^X02C
                           00000000' 0030    64 	.LONG	EXE$COMPAT	; COMPATIBILITY FAULT.		^X030
                           00000000' 0034    65 	.LONG	EXE$ARITH	; ARITHMETIC TRAP.		^X034
                           00000258' 0038    66 	.LONG	VEC038		; UNUSED			^X038
                           0000025C' 003C    67 	.LONG	VEC03C		; UNUSED			^X03C
                           00000000' 0040    68 	.LONG	EXE$CMODKRNL	; CHMK TRAP.			^X040
                           00000000' 0044    69 	.LONG	EXE$CMODEXEC	; CHME TRAP.			^X044
                           00000000' 0048    70 	.LONG	EXE$CMODSUPR	; CHMS TRAP.			^X048
                           00000000' 004C    71 	.LONG	EXE$CMODUSER	; CHMU TRAP.			^X04C
                           00000270' 0050    72 	.LONG	VEC050		; UNUSED.			^X050
                           00000274' 0054    73 	.LONG	VEC054		; UNUSED. (CRD/RDS)		^X054
                           00000278' 0058    74 	.LONG	VEC058		; UNUSED. (SBI FAULT)		^X058
                           0000027C' 005C    75 	.LONG	VEC05C		; UNUSED. (SBI ALERT)		^X05C
                           00000280' 0060    76 	.LONG	VEC060		; UNUSED. (CPU TIMEOUT)		^X060
                           00000284' 0064    77 	.LONG	VEC064		; UNUSED.
                           00000288' 0068    78 	.LONG	VEC068		; UNUSED.
                           0000028C' 006C    79 	.LONG	VEC06C		; UNUSED.
                           00000290' 0070    80 	.LONG	VEC070		; UNUSED.
                           00000294' 0074    81 	.LONG	VEC074		; UNUSED.
                           00000298' 0078    82 	.LONG	VEC078		; UNUSED.
                           0000029C' 007C    83 	.LONG	VEC07C		; UNUSED.
                           000002A0' 0080    84 	.LONG	VEC080		; UNUSED.
                           000002A5' 0084    85 	.LONG	VEC084+INTSTK; SOFTWARE LEVEL 1 INTERUPT.
                           00000000' 0088    86 	.LONG	SCH$ASTDEL	; SOFTWARE LEVEL 2 INTERUPT.	^X088
                           00000000' 008C    87 	.LONG	SCH$RESCHED	; SOFTWARE LEVEL 3 INTERUPT.	^X08C
                           00000001' 0090    88 	.LONG	IOC$IOPOST+INTSTK; SOFTWARE LEVEL 4 INTERUPT.	^X090
                           00000201' 0094    89 	.LONG	MASTERWAKE+INTSTK; SOFTWARE LEVEL 5 INTERUPT.	^X094
                           00000001' 0098    90 	.LONG	EXE$FORKDSPTH+INTSTK; SOFTWARE LEVEL 6 INTERUPT.	^X098
                           00000001' 009C    91 	.LONG	EXE$SWTIMINT+INTSTK; SOFTWARE LEVEL 7 INTERUPT.	^X09C
                           00000001' 00A0    92 	.LONG	EXE$FORKDSPTH+INTSTK; SOFTWARE LEVEL 8 INTERUPT.	^X0A0
                           00000001' 00A4    93 	.LONG	EXE$FORKDSPTH+INTSTK; SOFTWARE LEVEL 9 INTERUPT.	^X0A4
SCBVECTOR                                                        22-AUG-1978 00:17:50   VAX-11 MACRO X0.3-11               Page   3
01              SCB PROTOTYPE                                                                                                    (1)

                           00000001' 00A8    94 	.LONG	EXE$FORKDSPTH+INTSTK; SOFTWARE LEVEL 10 INTERUPT.	^X0A8
                           00000001' 00AC    95 	.LONG	EXE$FORKDSPTH+INTSTK; SOFTWARE LEVEL 11 INTERUPT.	^X0AC
                           000002D1' 00B0    96 	.LONG	VEC0B0+INTSTK	; SOFTWARE LEVEL 12 INTERUPT.	^X0B0
                           000002D5' 00B4    97 	.LONG	VEC0B4+INTSTK	; SOFTWARE LEVEL 13 INTERUPT.	^X0B4
                           000002D9' 00B8    98 	.LONG	VEC0B8+INTSTK	; SOFTWARE LEVEL 14 INTERUPT.	^X0B8
                           000002DD' 00BC    99 	.LONG	VEC0BC+INTSTK	; SOFTWARE LEVEL 15 INTERUPT. (^XBC)
                           00000001' 00C0   100 	.LONG	EXE$HWCLKINT+INTSTK; INTERVAL TIMER  (^XC0)
                           000002E5' 00C4   101 	.LONG	VEC0C4+INTSTK	; UNUSED.		(^XC4)
                           000002E9' 00C8   102 	.LONG	VEC0C8+INTSTK	; UNUSED.		(^XC8)
                           000002ED' 00CC   103 	.LONG	VEC0CC+INTSTK	; UNUSED.		(^XCC)
                           000002F1' 00D0   104 	.LONG	VEC0D0+INTSTK	; UNUSED.		(^XD0)
                           000002F5' 00D4   105 	.LONG	VEC0D4+INTSTK	; UNUSED.		(^XD4)
                           000002F9' 00D8   106 	.LONG	VEC0D8+INTSTK	; UNUSED.		(^XD8)
                           000002FD' 00DC   107 	.LONG	VEC0DC+INTSTK	; UNUSED.		(^XDC)
                           00000301' 00E0   108 	.LONG	VEC0E0+INTSTK	; UNUSED.		(^XE0)
                           00000305' 00E4   109 	.LONG	VEC0E4+INTSTK	; UNUSED.		(^XE4)
                           00000309' 00E8   110 	.LONG	VEC0E8+INTSTK	; UNUSED.		(^XE8)
                           0000030D' 00EC   111 	.LONG	VEC0EC+INTSTK	; UNUSED.		(^XEC)
                           00000311' 00F0   112 	.LONG	VEC0F0+INTSTK	; UNUSED.		(^XF0)
                           00000315' 00F4   113 	.LONG	VEC0F4+INTSTK	; UNUSED.		(^XF4)
                           00000001' 00F8   114 	.LONG	CON$INTDISI+INTSTK; CONSOLE INTERRUPT FOR INPUT (^XF8)
                           00000001' 00FC   115 	.LONG	CON$INTDISO+INTSTK; CONSOLE INTERRUPT FOR OUTPUT (^XFC)
                           00000321' 0100   116 	.LONG	VEC100+INTSTK	; UNIBUS VECTOR ADDRESS ^O000
                           00000325' 0104   117 	.LONG	VEC104+INTSTK	; UNIBUS VECTOR ADDRESS ^O004
                           00000001' 0108   118 	.LONG	UBA$INTDIS+INTSTK; UNIBUS VECTOR ADDRESS ^O010 (^X108)
                           00000001' 010C   119 	.LONG	UBA$INTDIS+INTSTK	; UNIBUS VECTOR ADDRESS ^O014  (^X10C)
                           00000331' 0110   120 	.LONG	VEC110+INTSTK	; UNIBUS VECTOR ADDRESS ^O020
                           00000335' 0114   121 	.LONG	VEC114+INTSTK	; UNIBUS VECTOR ADDRESS ^O024
                           00000339' 0118   122 	.LONG	VEC118+INTSTK; UNIBUS VECTOR ADDRESS ^O030
                           0000033D' 011C   123 	.LONG	VEC11C+INTSTK; UNIBUS VECTOR ADDRESS ^O034
                           00000341' 0120   124 	.LONG	VEC120+INTSTK; UNIBUS VECTOR ADDRESS ^O040
                           00000345' 0124   125 	.LONG	VEC124+INTSTK; UNIBUS VECTOR ADDRESS ^O044
                           00000349' 0128   126 	.LONG	VEC128+INTSTK; UNIBUS VECTOR ADDRESS ^O050
                           0000034D' 012C   127 	.LONG	VEC12C+INTSTK; UNIBUS VECTOR ADDRESS ^O054
                           00000351' 0130   128 	.LONG	VEC130+INTSTK; UNIBUS VECTOR ADDRESS ^O060
                           00000355' 0134   129 	.LONG	VEC134+INTSTK; UNIBUS VECTOR ADDRESS ^O064
                           00000359' 0138   130 	.LONG	VEC138+INTSTK	; UNIBUS VECTOR ADDRESS ^O070
                           0000035D' 013C   131 	.LONG	VEC13C+INTSTK	; UNIBUS VECTOR ADDRESS ^O074
                           00000361' 0140   132 	.LONG	VEC140+INTSTK	; UNIBUS VECTOR ADDRESS ^O100 (^X140)
                           00000001' 0144   133 	.LONG	EXE$HWCLKINT+INTSTK; UNIBUS VECTOR ADDRESS ^O104 (^X144)
                           00000369' 0148   134 	.LONG	VEC148+INTSTK	; UNIBUS VECTOR ADDRESS ^O110 (^X148)
                                     014C   135
                           00000001' 014C   136 	.LONG	UBA$INTDIS+INTSTK	; UNIBUS VECTOR ADDRESS ^O114 (^X14C)
                                     0150   137
                           00000371' 0150   138 	.LONG	VEC150+INTSTK		; UNIBUS VECTOR ADDRESS ^O120 (^X150)
                           00000375' 0154   139 	.LONG	VEC154+INTSTK	; UNIBUS VECTOR ADDRESS ^O124 (^X154)
                           00000379' 0158   140 	.LONG	VEC158+INTSTK	; UNIBUS VECTOR ADDRESS ^O130 (^X158)
                           0000037D' 015C   141 	.LONG	VEC15C+INTSTK	; UNIBUS VECTOR ADDRESS ^O134 (^X15C)
                                     0160   142 SCB$MBA0::				; REFERENCE LABEL
                           00000381' 0160   143 	.LONG	VEC160+INTSTK		;  MASS BUSS ADAPTER (^X160)
                           00000385' 0164   144 	.LONG	VEC164+INTSTK		; MASSBUS ADAPTER #2 (^X164)
                           00000389' 0168   145 	.LONG	VEC168+INTSTK	; UNIBUS VECTOR ADDRESS ^O150 (^X168)
                           0000038D' 016C   146 	.LONG	VEC16C+INTSTK	; UNIBUS VECTOR ADDRESS ^O154 (^X16C)
                           00000391' 0170   147 	.LONG	VEC170+INTSTK	; UNIBUS VECTOR ADDRESS ^O160 (^X170)
                           00000395' 0174   148 	.LONG	VEC174+INTSTK	; UNIBUS VECTOR ADDRESS ^O164 (^X174)
                           00000399' 0178   149 	.LONG	VEC178+INTSTK	; UNIBUS VECTOR ADDRESS ^O170 (^X178)
                           0000039D' 017C   150 	.LONG	VEC17C+INTSTK	; UNIBUS VECTOR ADDRESS ^O174 (^X17C)
SCBVECTOR                                                        22-AUG-1978 00:17:50   VAX-11 MACRO X0.3-11               Page   4
01              SCB PROTOTYPE                                                                                                    (1)

                           000003A1' 0180   151 	.LONG	VEC180+INTSTK; UNIBUS VECTOR ADDRESS ^O0200
                           000003A5' 0184   152 	.LONG	VEC184+INTSTK	; UNIBUS VECTOR ADDRESS ^O204 (^X184)
                           000003A9' 0188   153 	.LONG	VEC188+INTSTK	; UNIBUS VECTOR ADDRESS ^O210 (^X188)
                           00000001' 018C   154 	.LONG	UBA$INTDIS+INTSTK	; UNIBUS VECTOR ADDRESS ^O214 (^X18C)
                           000003B1' 0190   155 	.LONG	VEC190+INTSTK	; UNIBUS VECTOR ADDRESS ^O224 (^X190)
                           000003B5' 0194   156 	.LONG	VEC194+INTSTK; UNIBUS VECTOR ADDRESS ^O224
                           000003B9' 0198   157 	.LONG	VEC198+INTSTK	; UNIBUS VECTOR ADDRESS ^O230 (^X198)
                           000003BD' 019C   158 	.LONG	VEC19C+INTSTK	; UNIBUS VECTOR ADDRESS ^O234 (^X19C)
                           000003C1' 01A0   159 	.LONG	VEC1A0+INTSTK	; UNIBUS VECTOR ADDRESS ^O240 (^X1A0)
                           000003C5' 01A4   160 	.LONG	VEC1A4+INTSTK	; UNIBUS VECTOR ADDRESS ^O244 (^X1A4)
                           000003C9' 01A8   161 	.LONG	VEC1A8+INTSTK	; UNIBUS VECTOR ADDRESS ^O250 (^X1A8)
                           000003CD' 01AC   162 	.LONG	VEC1AC+INTSTK	; UNIBUS VECTOR ADDRESS ^O254 (^X1AC)
                           000003D1' 01B0   163 	.LONG	VEC1B0+INTSTK	; UNIBUS VECTOR ADDRESS ^O260 (^X1B0)
                           000003D5' 01B4   164 	.LONG	VEC1B4+INTSTK; UNIBUS VECTOR ADDRESS ^O264 (^X1B4)
                           000003D9' 01B8   165 	.LONG	VEC1B8+INTSTK	; UNIBUS VECTOR ADDRESS ^O270 (^X1B8)
                           000003DD' 01BC   166 	.LONG	VEC1BC+INTSTK	; UNIBUS VECTOR ADDRESS ^O274 (^X1BC)
                           000003E1' 01C0   167 	.LONG	VEC1C0+INTSTK; UNIBUS VECTOR ADDRESS ^O0300
                           000003E5' 01C4   168 	.LONG	VEC1C4+INTSTK; UNIBUS VECTOR ADDRESS ^O0304
                           000003E9' 01C8   169 	.LONG	VEC1C8+INTSTK; UNIBUS VECTOR ADDRESS ^O0310
                           000003ED' 01CC   170 	.LONG	VEC1CC+INTSTK; UNIBUS VECTOR ADDRESS ^O0314
                           000003F1' 01D0   171 	.LONG	VEC1D0+INTSTK	; UNIBUS VECTOR ADDRESS ^O320 (^X1D0)
                           000003F5' 01D4   172 	.LONG	VEC1D4+INTSTK	; UNIBUS VECTOR ADDRESS ^O324 (^X1D4)
                           000003F9' 01D8   173 	.LONG	VEC1D8+INTSTK	; UNIBUS VECTOR ADDRESS ^O330 (^X1D8)
                           000003FD' 01DC   174 	.LONG	VEC1DC+INTSTK	; UNIBUS VECTOR ADDRESS ^O334 (^X1DC)
                           00000401' 01E0   175 	.LONG	VEC1E0+INTSTK	; UNIBUS VECTOR ADDRESS ^O340 (^X1E0)
                           00000405' 01E4   176 	.LONG	VEC1E4+INTSTK	; UNIBUS VECTOR ADDRESS ^O344 (^X1E4)
                           00000409' 01E8   177 	.LONG	VEC1E8+INTSTK	; UNIBUS VECTOR ADDRESS ^O350 (^X1E8)
                           0000040D' 01EC   178 	.LONG	VEC1EC+INTSTK	; UNIBUS VECTOR ADDRESS ^O354 (^X1EC)
                           00000411' 01F0   179 	.LONG	VEC1F0+INTSTK	; UNIBUS VECTOR ADDRESS ^O360 (^X1F0)
                           00000415' 01F4   180 	.LONG	VEC1F4+INTSTK	; UNIBUS VECTOR ADDRESS ^O364 (^X1F4)
                           00000419' 01F8   181 	.LONG	VEC1F8+INTSTK	; UNIBUS VECTOR ADDRESS ^O370 (^X1F8)
                           0000041D' 01FC   182 	.LONG	VEC1FC+INTSTK	; UNIBUS VECTOR ADDRESS ^O374 (^X1FC)
                                     0200   183
                                     0200   184 	.ALIGN	LONG
                                     0200   185 MASTERWAKE:				; AWAKEN MASTER PROCESS
                 00000000'EF     16  0200   186 	JSB	INI$BRK			; CALL ROUTINE WITH BREAKPOINT
                                 02  0206   187 	REI				; AND RETURN
                                     0207   188
                                     0207   189 ;	IGNORE MACHINE CHECKS FOR NOW, MANY SPURIOUS BUT RETRYABLE
                                     0207   190 	.ALIGN	LONG
                                     0208   191 MCHK:
   00000000'EF   00000000'8F     E0  0208   192 	BBS	#EXE$V_SIMULATOR,EXE$GL_FLAGS,10$	; BR IF SIMULATOR
                          01         0213
                                 00  0214   193 	HALT				; OTHERWISE HALT FOR NOW
                                     0215   194
            5E            8E     C0  0215   195 10$:	ADDL	(SP)+,SP		; CLEAN JUNK FROM STACK
                                 02  0218   196 	REI				; AND CONTINUE
                                     0219   197
                                     0219   198 	.ALIGN	LONG
                                     021C   199
                                     021C   200 EXE$NONSENSE:				; TEMPORARY TERMINATION
                                 00  021C   201 	HALT				;
                                 02  021D   202 	REI				; ALLOW RETRY
                                     021E   203
                                     021E   204 	.LIST	ME			;
                                     021E   205 	.ALIGN	LONG			;
                                     0220   206 	SPUR	000
SCBVECTOR                                                        22-AUG-1978 00:17:50   VAX-11 MACRO X0.3-11               Page   5
01              SCB PROTOTYPE                                                                                                    (1)

                          01FD   30  0220       VEC000:	BSBW	UNEXP
                                 00  0223       	.BYTE	<^X000>/2
                                     0224
                                     0224   207 	SPUR	004
                          01F9   30  0224       VEC004:	BSBW	UNEXP
                                 02  0227       	.BYTE	<^X004>/2
                                     0228
                                     0228   208 	SPUR	008
                          01F5   30  0228       VEC008:	BSBW	UNEXP
                                 04  022B       	.BYTE	<^X008>/2
                                     022C
                                     022C   209 	SPUR	00C
                          01F1   30  022C       VEC00C:	BSBW	UNEXP
                                 06  022F       	.BYTE	<^X00C>/2
                                     0230
                                     0230   210 	SPUR	010
                          01ED   30  0230       VEC010:	BSBW	UNEXP
                                 08  0233       	.BYTE	<^X010>/2
                                     0234
                                     0234   211 	SPUR	014
                          01E9   30  0234       VEC014:	BSBW	UNEXP
                                 0A  0237       	.BYTE	<^X014>/2
                                     0238
                                     0238   212 	SPUR	018
                          01E5   30  0238       VEC018:	BSBW	UNEXP
                                 0C  023B       	.BYTE	<^X018>/2
                                     023C
                                     023C   213 	SPUR	01C
                          01E1   30  023C       VEC01C:	BSBW	UNEXP
                                 0E  023F       	.BYTE	<^X01C>/2
                                     0240
                                     0240   214 	SPUR	020
                          01DD   30  0240       VEC020:	BSBW	UNEXP
                                 10  0243       	.BYTE	<^X020>/2
                                     0244
                                     0244   215 	SPUR	024
                          01D9   30  0244       VEC024:	BSBW	UNEXP
                                 12  0247       	.BYTE	<^X024>/2
                                     0248
                                     0248   216 	SPUR	028
                          01D5   30  0248       VEC028:	BSBW	UNEXP
                                 14  024B       	.BYTE	<^X028>/2
                                     024C
                                     024C   217 	SPUR	02C
                          01D1   30  024C       VEC02C:	BSBW	UNEXP
                                 16  024F       	.BYTE	<^X02C>/2
                                     0250
                                     0250   218 	SPUR	030
                          01CD   30  0250       VEC030:	BSBW	UNEXP
                                 18  0253       	.BYTE	<^X030>/2
                                     0254
                                     0254   219 	SPUR	034
                          01C9   30  0254       VEC034:	BSBW	UNEXP
                                 1A  0257       	.BYTE	<^X034>/2
                                     0258
                                     0258   220 	SPUR	038
                          01C5   30  0258       VEC038:	BSBW	UNEXP
SCBVECTOR                                                        22-AUG-1978 00:17:50   VAX-11 MACRO X0.3-11               Page   6
01              SCB PROTOTYPE                                                                                                    (1)

                                 1C  025B       	.BYTE	<^X038>/2
                                     025C
                                     025C   221 	SPUR	03C
                          01C1   30  025C       VEC03C:	BSBW	UNEXP
                                 1E  025F       	.BYTE	<^X03C>/2
                                     0260
                                     0260   222 	SPUR	040
                          01BD   30  0260       VEC040:	BSBW	UNEXP
                                 20  0263       	.BYTE	<^X040>/2
                                     0264
                                     0264   223 	SPUR	044
                          01B9   30  0264       VEC044:	BSBW	UNEXP
                                 22  0267       	.BYTE	<^X044>/2
                                     0268
                                     0268   224 	SPUR	048
                          01B5   30  0268       VEC048:	BSBW	UNEXP
                                 24  026B       	.BYTE	<^X048>/2
                                     026C
                                     026C   225 	SPUR	04C
                          01B1   30  026C       VEC04C:	BSBW	UNEXP
                                 26  026F       	.BYTE	<^X04C>/2
                                     0270
                                     0270   226 	SPUR	050
                          01AD   30  0270       VEC050:	BSBW	UNEXP
                                 28  0273       	.BYTE	<^X050>/2
                                     0274
                                     0274   227 	SPUR	054
                          01A9   30  0274       VEC054:	BSBW	UNEXP
                                 2A  0277       	.BYTE	<^X054>/2
                                     0278
                                     0278   228 	SPUR	058
                          01A5   30  0278       VEC058:	BSBW	UNEXP
                                 2C  027B       	.BYTE	<^X058>/2
                                     027C
                                     027C   229 	SPUR	05C
                          01A1   30  027C       VEC05C:	BSBW	UNEXP
                                 2E  027F       	.BYTE	<^X05C>/2
                                     0280
                                     0280   230 	SPUR	060
                          019D   30  0280       VEC060:	BSBW	UNEXP
                                 30  0283       	.BYTE	<^X060>/2
                                     0284
                                     0284   231 	SPUR	064
                          0199   30  0284       VEC064:	BSBW	UNEXP
                                 32  0287       	.BYTE	<^X064>/2
                                     0288
                                     0288   232 	SPUR	068
                          0195   30  0288       VEC068:	BSBW	UNEXP
                                 34  028B       	.BYTE	<^X068>/2
                                     028C
                                     028C   233 	SPUR	06C
                          0191   30  028C       VEC06C:	BSBW	UNEXP
                                 36  028F       	.BYTE	<^X06C>/2
                                     0290
                                     0290   234 	SPUR	070
                          018D   30  0290       VEC070:	BSBW	UNEXP
                                 38  0293       	.BYTE	<^X070>/2
SCBVECTOR                                                        22-AUG-1978 00:17:50   VAX-11 MACRO X0.3-11               Page   7
01              SCB PROTOTYPE                                                                                                    (1)

                                     0294
                                     0294   235 	SPUR	074
                          0189   30  0294       VEC074:	BSBW	UNEXP
                                 3A  0297       	.BYTE	<^X074>/2
                                     0298
                                     0298   236 	SPUR	078
                          0185   30  0298       VEC078:	BSBW	UNEXP
                                 3C  029B       	.BYTE	<^X078>/2
                                     029C
                                     029C   237 	SPUR	07C
                          0181   30  029C       VEC07C:	BSBW	UNEXP
                                 3E  029F       	.BYTE	<^X07C>/2
                                     02A0
                                     02A0   238 	SPUR	080
                          017D   30  02A0       VEC080:	BSBW	UNEXP
                                 40  02A3       	.BYTE	<^X080>/2
                                     02A4
                                     02A4   239 	SPUR	084
                          0179   30  02A4       VEC084:	BSBW	UNEXP
                                 42  02A7       	.BYTE	<^X084>/2
                                     02A8
                                     02A8   240 	SPUR	088
                          0175   30  02A8       VEC088:	BSBW	UNEXP
                                 44  02AB       	.BYTE	<^X088>/2
                                     02AC
                                     02AC   241 	SPUR	08C
                          0171   30  02AC       VEC08C:	BSBW	UNEXP
                                 46  02AF       	.BYTE	<^X08C>/2
                                     02B0
                                     02B0   242 	SPUR	090
                          016D   30  02B0       VEC090:	BSBW	UNEXP
                                 48  02B3       	.BYTE	<^X090>/2
                                     02B4
                                     02B4   243 	SPUR	094
                          0169   30  02B4       VEC094:	BSBW	UNEXP
                                 4A  02B7       	.BYTE	<^X094>/2
                                     02B8
                                     02B8   244 	SPUR	098
                          0165   30  02B8       VEC098:	BSBW	UNEXP
                                 4C  02BB       	.BYTE	<^X098>/2
                                     02BC
                                     02BC   245 	SPUR	09C
                          0161   30  02BC       VEC09C:	BSBW	UNEXP
                                 4E  02BF       	.BYTE	<^X09C>/2
                                     02C0
                                     02C0   246 	SPUR	0A0
                          015D   30  02C0       VEC0A0:	BSBW	UNEXP
                                 50  02C3       	.BYTE	<^X0A0>/2
                                     02C4
                                     02C4   247 	SPUR	0A4
                          0159   30  02C4       VEC0A4:	BSBW	UNEXP
                                 52  02C7       	.BYTE	<^X0A4>/2
                                     02C8
                                     02C8   248 	SPUR	0A8
                          0155   30  02C8       VEC0A8:	BSBW	UNEXP
                                 54  02CB       	.BYTE	<^X0A8>/2
                                     02CC
SCBVECTOR                                                        22-AUG-1978 00:17:50   VAX-11 MACRO X0.3-11               Page   8
01              SCB PROTOTYPE                                                                                                    (1)

                                     02CC   249 	SPUR	0AC
                          0151   30  02CC       VEC0AC:	BSBW	UNEXP
                                 56  02CF       	.BYTE	<^X0AC>/2
                                     02D0
                                     02D0   250 	SPUR	0B0
                          014D   30  02D0       VEC0B0:	BSBW	UNEXP
                                 58  02D3       	.BYTE	<^X0B0>/2
                                     02D4
                                     02D4   251 	SPUR	0B4
                          0149   30  02D4       VEC0B4:	BSBW	UNEXP
                                 5A  02D7       	.BYTE	<^X0B4>/2
                                     02D8
                                     02D8   252 	SPUR	0B8
                          0145   30  02D8       VEC0B8:	BSBW	UNEXP
                                 5C  02DB       	.BYTE	<^X0B8>/2
                                     02DC
                                     02DC   253 	SPUR	0BC
                          0141   30  02DC       VEC0BC:	BSBW	UNEXP
                                 5E  02DF       	.BYTE	<^X0BC>/2
                                     02E0
                                     02E0   254 	SPUR	0C0
                          013D   30  02E0       VEC0C0:	BSBW	UNEXP
                                 60  02E3       	.BYTE	<^X0C0>/2
                                     02E4
                                     02E4   255 	SPUR	0C4
                          0139   30  02E4       VEC0C4:	BSBW	UNEXP
                                 62  02E7       	.BYTE	<^X0C4>/2
                                     02E8
                                     02E8   256 	SPUR	0C8
                          0135   30  02E8       VEC0C8:	BSBW	UNEXP
                                 64  02EB       	.BYTE	<^X0C8>/2
                                     02EC
                                     02EC   257 	SPUR	0CC
                          0131   30  02EC       VEC0CC:	BSBW	UNEXP
                                 66  02EF       	.BYTE	<^X0CC>/2
                                     02F0
                                     02F0   258 	SPUR	0D0
                          012D   30  02F0       VEC0D0:	BSBW	UNEXP
                                 68  02F3       	.BYTE	<^X0D0>/2
                                     02F4
                                     02F4   259 	SPUR	0D4
                          0129   30  02F4       VEC0D4:	BSBW	UNEXP
                                 6A  02F7       	.BYTE	<^X0D4>/2
                                     02F8
                                     02F8   260 	SPUR	0D8
                          0125   30  02F8       VEC0D8:	BSBW	UNEXP
                                 6C  02FB       	.BYTE	<^X0D8>/2
                                     02FC
                                     02FC   261 	SPUR	0DC
                          0121   30  02FC       VEC0DC:	BSBW	UNEXP
                                 6E  02FF       	.BYTE	<^X0DC>/2
                                     0300
                                     0300   262 	SPUR	0E0
                          011D   30  0300       VEC0E0:	BSBW	UNEXP
                                 70  0303       	.BYTE	<^X0E0>/2
                                     0304
                                     0304   263 	SPUR	0E4
SCBVECTOR                                                        22-AUG-1978 00:17:50   VAX-11 MACRO X0.3-11               Page   9
01              SCB PROTOTYPE                                                                                                    (1)

                          0119   30  0304       VEC0E4:	BSBW	UNEXP
                                 72  0307       	.BYTE	<^X0E4>/2
                                     0308
                                     0308   264 	SPUR	0E8
                          0115   30  0308       VEC0E8:	BSBW	UNEXP
                                 74  030B       	.BYTE	<^X0E8>/2
                                     030C
                                     030C   265 	SPUR	0EC
                          0111   30  030C       VEC0EC:	BSBW	UNEXP
                                 76  030F       	.BYTE	<^X0EC>/2
                                     0310
                                     0310   266 	SPUR	0F0
                          010D   30  0310       VEC0F0:	BSBW	UNEXP
                                 78  0313       	.BYTE	<^X0F0>/2
                                     0314
                                     0314   267 	SPUR	0F4
                          0109   30  0314       VEC0F4:	BSBW	UNEXP
                                 7A  0317       	.BYTE	<^X0F4>/2
                                     0318
                                     0318   268 	SPUR	0F8
                          0105   30  0318       VEC0F8:	BSBW	UNEXP
                                 7C  031B       	.BYTE	<^X0F8>/2
                                     031C
                                     031C   269 	SPUR	0FC
                          0101   30  031C       VEC0FC:	BSBW	UNEXP
                                 7E  031F       	.BYTE	<^X0FC>/2
                                     0320
                                     0320   270 	SPUR	100
                          00FD   30  0320       VEC100:	BSBW	UNEXP
                                 80  0323       	.BYTE	<^X100>/2
                                     0324
                                     0324   271 	SPUR	104
                          00F9   30  0324       VEC104:	BSBW	UNEXP
                                 82  0327       	.BYTE	<^X104>/2
                                     0328
                                     0328   272 	SPUR	108
                          00F5   30  0328       VEC108:	BSBW	UNEXP
                                 84  032B       	.BYTE	<^X108>/2
                                     032C
                                     032C   273 	SPUR	10C
                          00F1   30  032C       VEC10C:	BSBW	UNEXP
                                 86  032F       	.BYTE	<^X10C>/2
                                     0330
                                     0330   274 	SPUR	110
                          00ED   30  0330       VEC110:	BSBW	UNEXP
                                 88  0333       	.BYTE	<^X110>/2
                                     0334
                                     0334   275 	SPUR	114
                          00E9   30  0334       VEC114:	BSBW	UNEXP
                                 8A  0337       	.BYTE	<^X114>/2
                                     0338
                                     0338   276 	SPUR	118
                          00E5   30  0338       VEC118:	BSBW	UNEXP
                                 8C  033B       	.BYTE	<^X118>/2
                                     033C
                                     033C   277 	SPUR	11C
                          00E1   30  033C       VEC11C:	BSBW	UNEXP
SCBVECTOR                                                        22-AUG-1978 00:17:50   VAX-11 MACRO X0.3-11               Page  10
01              SCB PROTOTYPE                                                                                                    (1)

                                 8E  033F       	.BYTE	<^X11C>/2
                                     0340
                                     0340   278 	SPUR	120
                          00DD   30  0340       VEC120:	BSBW	UNEXP
                                 90  0343       	.BYTE	<^X120>/2
                                     0344
                                     0344   279 	SPUR	124
                          00D9   30  0344       VEC124:	BSBW	UNEXP
                                 92  0347       	.BYTE	<^X124>/2
                                     0348
                                     0348   280 	SPUR	128
                          00D5   30  0348       VEC128:	BSBW	UNEXP
                                 94  034B       	.BYTE	<^X128>/2
                                     034C
                                     034C   281 	SPUR	12C
                          00D1   30  034C       VEC12C:	BSBW	UNEXP
                                 96  034F       	.BYTE	<^X12C>/2
                                     0350
                                     0350   282 	SPUR	130
                          00CD   30  0350       VEC130:	BSBW	UNEXP
                                 98  0353       	.BYTE	<^X130>/2
                                     0354
                                     0354   283 	SPUR	134
                          00C9   30  0354       VEC134:	BSBW	UNEXP
                                 9A  0357       	.BYTE	<^X134>/2
                                     0358
                                     0358   284 	SPUR	138
                          00C5   30  0358       VEC138:	BSBW	UNEXP
                                 9C  035B       	.BYTE	<^X138>/2
                                     035C
                                     035C   285 	SPUR	13C
                          00C1   30  035C       VEC13C:	BSBW	UNEXP
                                 9E  035F       	.BYTE	<^X13C>/2
                                     0360
                                     0360   286 	SPUR	140
                          00BD   30  0360       VEC140:	BSBW	UNEXP
                                 A0  0363       	.BYTE	<^X140>/2
                                     0364
                                     0364   287 	SPUR	144
                          00B9   30  0364       VEC144:	BSBW	UNEXP
                                 A2  0367       	.BYTE	<^X144>/2
                                     0368
                                     0368   288 	SPUR	148
                          00B5   30  0368       VEC148:	BSBW	UNEXP
                                 A4  036B       	.BYTE	<^X148>/2
                                     036C
                                     036C   289 	SPUR	14C
                          00B1   30  036C       VEC14C:	BSBW	UNEXP
                                 A6  036F       	.BYTE	<^X14C>/2
                                     0370
                                     0370   290 	SPUR	150
                          00AD   30  0370       VEC150:	BSBW	UNEXP
                                 A8  0373       	.BYTE	<^X150>/2
                                     0374
                                     0374   291 	SPUR	154
                          00A9   30  0374       VEC154:	BSBW	UNEXP
                                 AA  0377       	.BYTE	<^X154>/2
SCBVECTOR                                                        22-AUG-1978 00:17:50   VAX-11 MACRO X0.3-11               Page  11
01              SCB PROTOTYPE                                                                                                    (1)

                                     0378
                                     0378   292 	SPUR	158
                          00A5   30  0378       VEC158:	BSBW	UNEXP
                                 AC  037B       	.BYTE	<^X158>/2
                                     037C
                                     037C   293 	SPUR	15C
                          00A1   30  037C       VEC15C:	BSBW	UNEXP
                                 AE  037F       	.BYTE	<^X15C>/2
                                     0380
                                     0380   294 	SPUR	160
                          009D   30  0380       VEC160:	BSBW	UNEXP
                                 B0  0383       	.BYTE	<^X160>/2
                                     0384
                                     0384   295 	SPUR	164
                          0099   30  0384       VEC164:	BSBW	UNEXP
                                 B2  0387       	.BYTE	<^X164>/2
                                     0388
                                     0388   296 	SPUR	168
                          0095   30  0388       VEC168:	BSBW	UNEXP
                                 B4  038B       	.BYTE	<^X168>/2
                                     038C
                                     038C   297 	SPUR	16C
                          0091   30  038C       VEC16C:	BSBW	UNEXP
                                 B6  038F       	.BYTE	<^X16C>/2
                                     0390
                                     0390   298 	SPUR	170
                          008D   30  0390       VEC170:	BSBW	UNEXP
                                 B8  0393       	.BYTE	<^X170>/2
                                     0394
                                     0394   299 	SPUR	174
                          0089   30  0394       VEC174:	BSBW	UNEXP
                                 BA  0397       	.BYTE	<^X174>/2
                                     0398
                                     0398   300 	SPUR	178
                          0085   30  0398       VEC178:	BSBW	UNEXP
                                 BC  039B       	.BYTE	<^X178>/2
                                     039C
                                     039C   301 	SPUR	17C
                          0081   30  039C       VEC17C:	BSBW	UNEXP
                                 BE  039F       	.BYTE	<^X17C>/2
                                     03A0
                                     03A0   302 	SPUR	180
                          007D   30  03A0       VEC180:	BSBW	UNEXP
                                 C0  03A3       	.BYTE	<^X180>/2
                                     03A4
                                     03A4   303 	SPUR	184
                          0079   30  03A4       VEC184:	BSBW	UNEXP
                                 C2  03A7       	.BYTE	<^X184>/2
                                     03A8
                                     03A8   304 	SPUR	188
                          0075   30  03A8       VEC188:	BSBW	UNEXP
                                 C4  03AB       	.BYTE	<^X188>/2
                                     03AC
                                     03AC   305 	SPUR	18C
                          0071   30  03AC       VEC18C:	BSBW	UNEXP
                                 C6  03AF       	.BYTE	<^X18C>/2
                                     03B0
SCBVECTOR                                                        22-AUG-1978 00:17:50   VAX-11 MACRO X0.3-11               Page  12
01              SCB PROTOTYPE                                                                                                    (1)

                                     03B0   306 	SPUR	190
                          006D   30  03B0       VEC190:	BSBW	UNEXP
                                 C8  03B3       	.BYTE	<^X190>/2
                                     03B4
                                     03B4   307 	SPUR	194
                          0069   30  03B4       VEC194:	BSBW	UNEXP
                                 CA  03B7       	.BYTE	<^X194>/2
                                     03B8
                                     03B8   308 	SPUR	198
                          0065   30  03B8       VEC198:	BSBW	UNEXP
                                 CC  03BB       	.BYTE	<^X198>/2
                                     03BC
                                     03BC   309 	SPUR	19C
                          0061   30  03BC       VEC19C:	BSBW	UNEXP
                                 CE  03BF       	.BYTE	<^X19C>/2
                                     03C0
                                     03C0   310 	SPUR	1A0
                          005D   30  03C0       VEC1A0:	BSBW	UNEXP
                                 D0  03C3       	.BYTE	<^X1A0>/2
                                     03C4
                                     03C4   311 	SPUR	1A4
                          0059   30  03C4       VEC1A4:	BSBW	UNEXP
                                 D2  03C7       	.BYTE	<^X1A4>/2
                                     03C8
                                     03C8   312 	SPUR	1A8
                          0055   30  03C8       VEC1A8:	BSBW	UNEXP
                                 D4  03CB       	.BYTE	<^X1A8>/2
                                     03CC
                                     03CC   313 	SPUR	1AC
                          0051   30  03CC       VEC1AC:	BSBW	UNEXP
                                 D6  03CF       	.BYTE	<^X1AC>/2
                                     03D0
                                     03D0   314 	SPUR	1B0
                          004D   30  03D0       VEC1B0:	BSBW	UNEXP
                                 D8  03D3       	.BYTE	<^X1B0>/2
                                     03D4
                                     03D4   315 	SPUR	1B4
                          0049   30  03D4       VEC1B4:	BSBW	UNEXP
                                 DA  03D7       	.BYTE	<^X1B4>/2
                                     03D8
                                     03D8   316 	SPUR	1B8
                          0045   30  03D8       VEC1B8:	BSBW	UNEXP
                                 DC  03DB       	.BYTE	<^X1B8>/2
                                     03DC
                                     03DC   317 	SPUR	1BC
                          0041   30  03DC       VEC1BC:	BSBW	UNEXP
                                 DE  03DF       	.BYTE	<^X1BC>/2
                                     03E0
                                     03E0   318 	SPUR	1C0
                          003D   30  03E0       VEC1C0:	BSBW	UNEXP
                                 E0  03E3       	.BYTE	<^X1C0>/2
                                     03E4
                                     03E4   319 	SPUR	1C4
                          0039   30  03E4       VEC1C4:	BSBW	UNEXP
                                 E2  03E7       	.BYTE	<^X1C4>/2
                                     03E8
                                     03E8   320 	SPUR	1C8
SCBVECTOR                                                        22-AUG-1978 00:17:50   VAX-11 MACRO X0.3-11               Page  13
01              SCB PROTOTYPE                                                                                                    (1)

                          0035   30  03E8       VEC1C8:	BSBW	UNEXP
                                 E4  03EB       	.BYTE	<^X1C8>/2
                                     03EC
                                     03EC   321 	SPUR	1CC
                          0031   30  03EC       VEC1CC:	BSBW	UNEXP
                                 E6  03EF       	.BYTE	<^X1CC>/2
                                     03F0
                                     03F0   322 	SPUR	1D0
                          002D   30  03F0       VEC1D0:	BSBW	UNEXP
                                 E8  03F3       	.BYTE	<^X1D0>/2
                                     03F4
                                     03F4   323 	SPUR	1D4
                          0029   30  03F4       VEC1D4:	BSBW	UNEXP
                                 EA  03F7       	.BYTE	<^X1D4>/2
                                     03F8
                                     03F8   324 	SPUR	1D8
                          0025   30  03F8       VEC1D8:	BSBW	UNEXP
                                 EC  03FB       	.BYTE	<^X1D8>/2
                                     03FC
                                     03FC   325 	SPUR	1DC
                          0021   30  03FC       VEC1DC:	BSBW	UNEXP
                                 EE  03FF       	.BYTE	<^X1DC>/2
                                     0400
                                     0400   326 	SPUR	1E0
                          001D   30  0400       VEC1E0:	BSBW	UNEXP
                                 F0  0403       	.BYTE	<^X1E0>/2
                                     0404
                                     0404   327 	SPUR	1E4
                          0019   30  0404       VEC1E4:	BSBW	UNEXP
                                 F2  0407       	.BYTE	<^X1E4>/2
                                     0408
                                     0408   328 	SPUR	1E8
                          0015   30  0408       VEC1E8:	BSBW	UNEXP
                                 F4  040B       	.BYTE	<^X1E8>/2
                                     040C
                                     040C   329 	SPUR	1EC
                          0011   30  040C       VEC1EC:	BSBW	UNEXP
                                 F6  040F       	.BYTE	<^X1EC>/2
                                     0410
                                     0410   330 	SPUR	1F0
                          000D   30  0410       VEC1F0:	BSBW	UNEXP
                                 F8  0413       	.BYTE	<^X1F0>/2
                                     0414
                                     0414   331 	SPUR	1F4
                          0009   30  0414       VEC1F4:	BSBW	UNEXP
                                 FA  0417       	.BYTE	<^X1F4>/2
                                     0418
                                     0418   332 	SPUR	1F8
                          0005   30  0418       VEC1F8:	BSBW	UNEXP
                                 FC  041B       	.BYTE	<^X1F8>/2
                                     041C
                                     041C   333 	SPUR	1FC
                          0001   30  041C       VEC1FC:	BSBW	UNEXP
                                 FE  041F       	.BYTE	<^X1FC>/2
                                     0420
                                     0420   334
                                     0420   335 ;
SCBVECTOR                                                        22-AUG-1978 00:17:50   VAX-11 MACRO X0.3-11               Page  14
01              SCB PROTOTYPE                                                                                                    (1)

                                     0420   336 ;	UNEXPECTED INTERRUPT/EXCEPTION HANDLER
                                     0420   337 ;
                                     0420   338
                                     0420   339 UNEXP:					;
            6E         00 BE     9A  0420   340 	MOVZBL	@(SP),(SP)		; GET VECTOR NUMBER
            6E            02     C4  0424   341 	MULL	#2,(SP)			; SCALE TO VECTOR ADDRESS
                                 00  0427   342 	HALT				; AND HALT
                 00000000'EF     16  0428   343 	JSB	INI$BRK			; CALL DEBUGGER
                                 02  042E   344 	REI				; ALLOW POSSIBLE RECOVERY
                                     042F   345
                                     042F   346 	.END
SCBVECTOR                                                        22-AUG-1978 00:17:50   VAX-11 MACRO X0.3-11               Page  15
SYMBOL TABLE                                                                                                                     (1)

BIT...         = 00000000            PR$_RXCS       = 00000020            VEC06C           0000028C R     03
CON$INTDISI      ********   X   03   PR$_RXDB       = 00000021            VEC070           00000290 R     03
CON$INTDISO      ********   X   03   PR$_SBIER      = 00000034            VEC074           00000294 R     03
EXE$ACVEC        00000020 RG    03   PR$_SBIFS      = 00000030            VEC078           00000298 R     03
EXE$ACVIOLAT     ********   X   03   PR$_SBIMT      = 00000033            VEC07C           0000029C R     03
EXE$ARITH        ********   X   03   PR$_SBIQC      = 00000036            VEC080           000002A0 R     03
EXE$BREAK        ********   X   03   PR$_SBIS       = 00000031            VEC084           000002A4 R     03
EXE$CMODEXEC     ********   X   03   PR$_SBISC      = 00000032            VEC088           000002A8 R     03
EXE$CMODKRNL     ********   X   03   PR$_SBITA      = 00000035            VEC08C           000002AC R     03
EXE$CMODSUPR     ********   X   03   PR$_SBR        = 0000000C            VEC090           000002B0 R     03
EXE$CMODUSER     ********   X   03   PR$_SCBB       = 00000011            VEC094           000002B4 R     03
EXE$COMPAT       ********   X   03   PR$_SID        = 0000003E            VEC098           000002B8 R     03
EXE$FORKDSPTH    ********   X   03   PR$_SIRR       = 00000014            VEC09C           000002BC R     03
EXE$GL_FLAGS     ********   X   03   PR$_SISR       = 00000015            VEC0A0           000002C0 R     03
EXE$HWCLKINT     ********   X   03   PR$_SLR        = 0000000D            VEC0A4           000002C4 R     03
EXE$KERSTKNV     ********   X   03   PR$_SSP        = 00000002            VEC0A8           000002C8 R     03
EXE$MCHKVEC      00000004 RG    03   PR$_TBIA       = 00000039            VEC0AC           000002CC R     03
EXE$NONSENSE     0000021C R     03   PR$_TBIS       = 0000003A            VEC0B0           000002D0 R     03
EXE$OPCCUS       ********   X   03   PR$_TODR       = 0000001B            VEC0B4           000002D4 R     03
EXE$OPCDEC       ********   X   03   PR$_TXCS       = 00000022            VEC0B8           000002D8 R     03
EXE$PFVEC        00000024 RG    03   PR$_TXDB       = 00000023            VEC0BC           000002DC R     03
EXE$RADRMOD      ********   X   03   PR$_USP        = 00000003            VEC0C0           000002E0 R     03
EXE$ROPRAND      ********   X   03   PR$_WCSA       = 0000002C            VEC0C4           000002E4 R     03
EXE$SWTIMINT     ********   X   03   PR$_WCSD       = 0000002D            VEC0C8           000002E8 R     03
EXE$TBIT         ********   X   03   SCB$AL_BASE      00000000 RG    03   VEC0CC           000002EC R     03
EXE$V_SIMULATOR  ********   X   03   SCB$MBA0         00000160 RG    03   VEC0D0           000002F0 R     03
GBL...         = 00000000            SCH$ASTDEL       ********   X   03   VEC0D4           000002F4 R     03
INI$BRK          ********   X   03   SCH$RESCHED      ********   X   03   VEC0D8           000002F8 R     03
INTSTK         = 00000001            UBA$INTDIS       ********   X   03   VEC0DC           000002FC R     03
IOC$IOPOST       ********   X   03   UNEXP            00000420 R     03   VEC0E0           00000300 R     03
IPL$_ASTDEL    = 00000002            VEC000           00000220 R     03   VEC0E4           00000304 R     03
IPL$_HWCLK     = 00000018            VEC004           00000224 R     03   VEC0E8           00000308 R     03
IPL$_IOPOST    = 00000004            VEC008           00000228 R     03   VEC0EC           0000030C R     03
IPL$_MAILBOX   = 0000000B            VEC00C           0000022C R     03   VEC0F0           00000310 R     03
IPL$_POWER     = 0000001F            VEC010           00000230 R     03   VEC0F4           00000314 R     03
IPL$_QUEUEAST  = 00000006            VEC014           00000234 R     03   VEC0F8           00000318 R     03
IPL$_SCHED     = 00000003            VEC018           00000238 R     03   VEC0FC           0000031C R     03
IPL$_SYNCH     = 00000007            VEC01C           0000023C R     03   VEC100           00000320 R     03
IPL$_TIMER     = 00000007            VEC020           00000240 R     03   VEC104           00000324 R     03
MASTERWAKE       00000200 R     03   VEC024           00000244 R     03   VEC108           00000328 R     03
MCHK             00000208 R     03   VEC028           00000248 R     03   VEC10C           0000032C R     03
PR$_ACCR       = 00000029            VEC02C           0000024C R     03   VEC110           00000330 R     03
PR$_ACCS       = 00000028            VEC030           00000250 R     03   VEC114           00000334 R     03
PR$_ASTLVL     = 00000013            VEC034           00000254 R     03   VEC118           00000338 R     03
PR$_ESP        = 00000001            VEC038           00000258 R     03   VEC11C           0000033C R     03
PR$_ICCS       = 00000018            VEC03C           0000025C R     03   VEC120           00000340 R     03
PR$_ICR        = 0000001A            VEC040           00000260 R     03   VEC124           00000344 R     03
PR$_IPL        = 00000012            VEC044           00000264 R     03   VEC128           00000348 R     03
PR$_ISP        = 00000004            VEC048           00000268 R     03   VEC12C           0000034C R     03
PR$_KSP        = 00000000            VEC04C           0000026C R     03   VEC130           00000350 R     03
PR$_MAPEN      = 00000038            VEC050           00000270 R     03   VEC134           00000354 R     03
PR$_NICR       = 00000019            VEC054           00000274 R     03   VEC138           00000358 R     03
PR$_P0BR       = 00000008            VEC058           00000278 R     03   VEC13C           0000035C R     03
PR$_P0LR       = 00000009            VEC05C           0000027C R     03   VEC140           00000360 R     03
PR$_P1BR       = 0000000A            VEC060           00000280 R     03   VEC144           00000364 R     03
PR$_P1LR       = 0000000B            VEC064           00000284 R     03   VEC148           00000368 R     03
PR$_PCBB       = 00000010            VEC068           00000288 R     03   VEC14C           0000036C R     03
SCBVECTOR                                                        22-AUG-1978 00:17:50   VAX-11 MACRO X0.3-11               Page  16
SYMBOL TABLE                                                                                                                     (1)

VEC150           00000370 R     03
VEC154           00000374 R     03
VEC158           00000378 R     03
VEC15C           0000037C R     03
VEC160           00000380 R     03
VEC164           00000384 R     03
VEC168           00000388 R     03
VEC16C           0000038C R     03
VEC170           00000390 R     03
VEC174           00000394 R     03
VEC178           00000398 R     03
VEC17C           0000039C R     03
VEC180           000003A0 R     03
VEC184           000003A4 R     03
VEC188           000003A8 R     03
VEC18C           000003AC R     03
VEC190           000003B0 R     03
VEC194           000003B4 R     03
VEC198           000003B8 R     03
VEC19C           000003BC R     03
VEC1A0           000003C0 R     03
VEC1A4           000003C4 R     03
VEC1A8           000003C8 R     03
VEC1AC           000003CC R     03
VEC1B0           000003D0 R     03
VEC1B4           000003D4 R     03
VEC1B8           000003D8 R     03
VEC1BC           000003DC R     03
VEC1C0           000003E0 R     03
VEC1C4           000003E4 R     03
VEC1C8           000003E8 R     03
VEC1CC           000003EC R     03
VEC1D0           000003F0 R     03
VEC1D4           000003F4 R     03
VEC1D8           000003F8 R     03
VEC1DC           000003FC R     03
VEC1E0           00000400 R     03
VEC1E4           00000404 R     03
VEC1E8           00000408 R     03
VEC1EC           0000040C R     03
VEC1F0           00000410 R     03
VEC1F4           00000414 R     03
VEC1F8           00000418 R     03
VEC1FC           0000041C R     03


PROGRAM SECTION SYNOPSIS

.  ABS  .        00000000      00     NOPIC   USR   CON   ABS   LCL NOSHR NOEXE NORD  NOWRT BYTE
. BLANK .        00000000      01     NOPIC   USR   CON   REL   LCL NOSHR   EXE   RD    WRT BYTE
$ABS$            00000000      02     NOPIC   USR   CON   ABS   LCL NOSHR   EXE   RD    WRT BYTE
$$$000SCB        0000042F      03     NOPIC   USR   CON   REL   LCL NOSHR   EXE   RD    WRT PAGE


THERE WERE NO ERRORS OR WARNINGS.
23720. BYTES LEFT IN FREE MEMORY POOL.
18. BYTES OF RECLAIMED MEMORY.
SCBVECTOR                                                        22-AUG-1978 00:17:50   VAX-11 MACRO X0.3-11               Page  17
PROGRAM SECTION SYNOPSIS                                                                                                         (1)

OBJ$:SCBVECTOR,LIS$:SCBVECTOR/-SP=LIB$:LIB/ML,SRC$:SCBVECTOR
2 MLB DIR RDS - 109 GETS TO DEFINE 8 MACROS. 17 INTER. FILE WRITES.
