SVAPTE          - SYSTEM VIRTUAL ADDRESS OF PAGE TABLE ENTRY     22-AUG-1978 00:18:05   VAX-11 MACRO X0.3-11               Page   0
TABLE OF CONTENTS

   (1)      33  HISTORY			; DETAILED
   (1)      43  DECLARATIONS
   (2)      78  PTEADR, PTEINDX - PAGE TABLE ENTRY ADDRESS OR I
SVAPTE          - SYSTEM VIRTUAL ADDRESS OF PAGE TABLE ENTRY     22-AUG-1978 00:18:05   VAX-11 MACRO X0.3-11               Page   1
00.1                                                                                                                             (1)

                                     0000     1 	.TITLE	SVAPTE - SYSTEM VIRTUAL ADDRESS OF PAGE TABLE ENTRY
                                     0000     2 	.IDENT	/00.1/
                                     0000     3 ;
                                     0000     4 ; COPYRIGHT (C) 1978
                                     0000     5 ; DIGITAL EQUIPMENT CORPORATION, MAYNARD, MASSACHUSETTS 01754
                                     0000     6 ;
                                     0000     7 ; THIS SOFTWARE IS FURNISHED  UNDER A LICENSE FOR USE ONLY ON A SINGLE
                                     0000     8 ; COMPUTER  SYSTEM AND  MAY BE  COPIED ONLY WITH  THE INCLUSION OF THE
                                     0000     9 ; ABOVE COPYRIGHT NOTICE.  THIS SOFTWARE, OR ANY OTHER COPIES THEREOF,
                                     0000    10 ; MAY NOT BE PROVIDED OR  OTHERWISE MADE AVAILABLE TO ANY OTHER PERSON
                                     0000    11 ; EXCEPT FOR USE ON SUCH SYSTEM AND TO ONE WHO AGREES TO THESE LICENSE
                                     0000    12 ; TERMS.  TITLE TO AND  OWNERSHIP OF THE  SOFTWARE  SHALL AT ALL TIMES
                                     0000    13 ; REMAIN IN DEC.
                                     0000    14 ;
                                     0000    15 ; THE INFORMATION IN THIS SOFTWARE IS SUBJECT TO CHANGE WITHOUT NOTICE
                                     0000    16 ; AND SHOULD  NOT BE CONSTRUED  AS A COMMITMENT  BY DIGITAL  EQUIPMENT
                                     0000    17 ; CORPORATION.
                                     0000    18 ;
                                     0000    19 ; DEC ASSUMES  NO  RESPONSIBILITY  FOR  THE USE OR  RELIABILITY OF ITS
                                     0000    20 ; SOFTWARE ON EQUIPMENT WHICH IS NOT SUPPLIED BY DEC.
                                     0000    21
                                     0000    22 ;++
                                     0000    23 ; FACILITY:	EXECUTIVE, MEMORY MANAGEMENT SUBROUTINES
                                     0000    24 ;
                                     0000    25 ; ABSTRACT:	GIVEN A VIRTUAL ADDRESS (PROCESS OR SYSTEM),
                                     0000    26 ;	RETURN THE SYSTEM VIRTUAL ADDRESS OF ITS ASSOCIATED PAGE TABLE ENTRY.
                                     0000    27 ;
                                     0000    28 ; ENVIRONMENT:	KERNEL MODE, NO INTERLOCK REQUIRED
                                     0000    29 ;
                                     0000    30 ;--
                                     0000    31 ;
                                     0000    32 ;	.PAGE
                                     0000    33 	.SBTTL	HISTORY			; DETAILED
                                     0000    34 ;
                                     0000    35 ; AUTHOR: PETER H. LIPMAN	, CREATION DATE: 14-SEP-76
                                     0000    36 ;
                                     0000    37 ; MODIFIED BY:
                                     0000    38 ;
                                     0000    39 ;	C. A. MONIA, : VERSION 00
                                     0000    40 ; 01	 -	MODIFIED FOR STAND-ALONE DSC
                                     0000    41
SVAPTE          - SYSTEM VIRTUAL ADDRESS OF PAGE TABLE ENTRY     22-AUG-1978 00:18:05   VAX-11 MACRO X0.3-11               Page   2
00.1            DECLARATIONS                                                                                                     (1)

                                     0000    43 	.SBTTL	DECLARATIONS
                                     0000    44
                                     0000    45 ;
                                     0000    46 ; INCLUDE FILES:
                                     0000    47 ;
                                     0000    48 	$IPLDEF				;PROCESSOR PRIORITY LEVEL DEFINITIONS
                                     0000    49 	$PCBDEF				;DEFINE PROCESS CONTROL BLOCK OFFSETS
                                     0000    50 	$PHDDEF				;DEFINE PROCESS HEADER OFFSETS
                                     0000    51 	$PRDEF				;PROCESSOR REGISTER DEFINITIONS
                                     0000    52 	$SSDEF				;SYSTEM STATUS CODES
                                     0000    53 	$VADEF				;VIRTUAL ADDRESS VIELDS
                                     0000    54 ;
                                     0000    55 ; EXTERNAL SYMBOLS:
                                     0000    56 ;
                                     0000    57
                                     0000    58 ;
                                     0000    59 ; MACROS:
                                     0000    60 ;
                                     0000    61
                                     0000    62 ;
                                     0000    63 ; EQUATED SYMBOLS:
                                     0000    64 ;
                                     0000    65 ;
                                     0000    66 ; OWN STORAGE:
                                     0000    67 ;
                                     0000    68 ;
                                     0000    69 ; **********************************************************************
                                     0000    70 ;
                                     0000    71 ; **************** THIS ENTIRE MODULE MUST BE RESIDENT *****************
                                     0000    72 ;
                                 00000000    73 	.PSECT	$MMGCOD
                                     0000    74 ;
                                     0000    75 ; **********************************************************************
                                     0000    76 ;
SVAPTE          - SYSTEM VIRTUAL ADDRESS OF PAGE TABLE ENTRY     22-AUG-1978 00:18:05   VAX-11 MACRO X0.3-11               Page   3
00.1            PTEADR, PTEINDX - PAGE TABLE ENTRY ADDRESS OR I                                                                  (2)

                                     0000    78 	.SBTTL	PTEADR, PTEINDX - PAGE TABLE ENTRY ADDRESS OR INDEX
                                     0000    79 ;++
                                     0000    80 ; FUNCTIONAL DESCRIPTION:
                                     0000    81 ;
                                     0000    82 ;	GIVEN A VIRTUAL ADDRESS (SYSTEM OR PROCESS), CALCULATE
                                     0000    83 ;	THE SYSTEM VIRTUAL ADDRESS OF THE PAGE TABLE ENTRY.
                                     0000    84 ;
                                     0000    85 ; CALLING SEQUENCE:
                                     0000    86 ;
                                     0000    87 ;	BSBW	MMG$PTEREF		;FAULT PTE, RETURN SYS VIRT ADR OF PTE
                                     0000    88 ;					;RETURN IPL=SYNCH, R0 = SYSTEM STATUS
                                     0000    89 ;
                                     0000    90 ; INPUT PARAMETERS:
                                     0000    91 ;
                                     0000    92 ;	R2 = PROCESS VIRTUAL ADDRESS (P0 OR P1 SPACE)
                                     0000    93 ;	R4 = PROCESS CONTROL BLOCK ADDRESS
                                     0000    94 ;	R5 = PROCESS HEADER ADDRESS
                                     0000    95 ;		THIS MAY BE EITHER THE SYSTEM SPACE OR P1 SPACE ADDRESS
                                     0000    96 ;		OF THE PROCESS HEADER, BUT IF IT IS THE SYSTEM SPACE ADDRESS
                                     0000    97 ;		THE CALLING IPL MUST BE AT SYNCH TO PREVENT SWAPPING
                                     0000    98 ;	IPL LEQ SYNCH - IF REQUESTING THE ADDRESS OF THE PAGE TABLE ENTRY
                                     0000    99 ;		OR IF THE SYSTEM SPACE ADDRESS OF THE PROCESS HEADER IS
                                     0000   100 ;		SPECIFIED, IPL MUST BE AT SYNCH TO PREVENT SWAPPING
                                     0000   101 ;
                                     0000   102 ;  OR
                                     0000   103 ;
                                     0000   104 ;	R2 = SYSTEM SPACE VIRTUAL ADDRESS
                                     0000   105 ;	R4 = SYSTEM PROCESS CONTROL BLOCK ADDRESS
                                     0000   106 ;	R5 = SYSTEM ADDRESS (NO P1 SPACE EQUIVALENT) OF SYSTEM PROCESS HEADER
                                     0000   107 ;	IPL NOT REQUIRED TO BE AT SYNCH SINCE THE SYSTEM PAGE TABLE IS
                                     0000   108 ;		NOT EVER MOVED.
                                     0000   109 ;
                                     0000   110 ; IMPLICIT INPUTS:
                                     0000   111 ;
                                     0000   112 ;	NONE
                                     0000   113 ;
                                     0000   114 ; OUTPUT PARAMETERS:
                                     0000   115 ;
                                     0000   116 ;	R0 = SYSTEM STATUS CODE
                                     0000   117 ;	R2 PRESERVED
                                     0000   118 ;	R3 = SYSTEM VIRTUAL ADDRESS OF PAGE TABLE ENTRY OR LONG WORD
                                     0000   119 ;		INDEX TO PAGE TABLE ENTRY ACCORDING TO THE ENTRY POINT
                                     0000   120 ;
                                     0000   121 ; IMPLICIT OUTPUTS:
                                     0000   122 ;
                                     0000   123 ;	NONE
                                     0000   124 ;
                                     0000   125 ; COMPLETION CODES:
                                     0000   126 ;
                                     0000   127 ;	SS$_LENVIO			;PAGE TABLE LENGTH VIOLATION
                                     0000   128 ;
                                     0000   129 ; SIDE EFFECTS:
                                     0000   130 ;
                                     0000   131 ;	NONE
                                     0000   132 ;
                                     0000   133 ;--
SVAPTE          - SYSTEM VIRTUAL ADDRESS OF PAGE TABLE ENTRY     22-AUG-1978 00:18:05   VAX-11 MACRO X0.3-11               Page   4
00.1            PTEADR, PTEINDX - PAGE TABLE ENTRY ADDRESS OR I                                                                  (4)

                                     0000   135
                                     0000   136 MMG$PTEREF::				;
            50       018C 8F     3C  0000   137 	MOVZWL	#SS$_LENVIO,R0		; ASSUME LENGTH VIOLATION
         28 A5            52     D1  0005   138 	CMPL	R2,PHD$L_FREP0VA(R5)	; MAKE SURE ADDRESS IS IN P0 SPACE
                          13     1E  0009   139 	BGEQU	10$			; IF GEQU,NO
            50            01     3C  000B   140 	MOVZWL	#SS$_NORMAL,R0		; SET SUCCESS STATUS
            16            09     EE  000E   141 	EXTV	#VA$V_VPN,#VA$S_VPN+1,R2,R3 ; GET VIRTUAL PAGE NUMBER
            53            52         0011
            53   00000000'EF43   DE  0013   142 	MOVAL	DSC$GL_P0PTE[R3],R3	; GET SYSTEM VIRTUAL ADDRESS OF PTE
                                     001B   143 	SETIPL	#IPL$_SYNCH		; RAISE TO SYNCH
                                     001E   144 10$:					;
                                 05  001E   145 	RSB				;
                                     001F   146
                                     001F   147 	.END
SVAPTE          - SYSTEM VIRTUAL ADDRESS OF PAGE TABLE ENTRY     22-AUG-1978 00:18:05   VAX-11 MACRO X0.3-11               Page   5
SYMBOL TABLE                                                                                                                     (4)

BIT...         = 00000020            PCB$V_SUSPEN   = 0000000B            PHD$L_R2         00000090
DSC$GL_P0PTE     ********   X   03   PCB$V_SWPVBN   = 00000010            PHD$L_R3         00000094
GBL...         = 00000000            PCB$V_WAKEPEN  = 0000000C            PHD$L_R4         00000098
IPL$_ASTDEL    = 00000002            PCB$V_WALL     = 0000000D            PHD$L_R5         0000009C
IPL$_HWCLK     = 00000018            PCB$W_APTCNT     00000034            PHD$L_R6         000000A0
IPL$_IOPOST    = 00000004            PCB$W_ASTCNT     0000003C            PHD$L_R7         000000A4
IPL$_MAILBOX   = 0000000B            PCB$W_BIOCNT     0000003E            PHD$L_R8         000000A8
IPL$_POWER     = 0000001F            PCB$W_BIOLM      00000040            PHD$L_R9         000000AC
IPL$_QUEUEAST  = 00000006            PCB$W_BYTCNT     00000042            PHD$L_SSP        00000080
IPL$_SCHED     = 00000003            PCB$W_BYTLM      00000068            PHD$L_USP        00000084
IPL$_SYNCH     = 00000007            PCB$W_DIOCNT     00000044            PHD$L_WSL        000000D8
IPL$_TIMER     = 00000007            PCB$W_DIOLM      00000046            PHD$M_DALCSTX  = 00000002
MMG$PTEREF       00000000 RG    03   PCB$W_FILCNT     00000048            PHD$M_PFMFLG   = 00000001
PCB$B_ASTACT     0000000C            PCB$W_GPGCNT     00000038            PHD$Q_PRIVMSK    00000000
PCB$B_ASTEN      0000000D            PCB$W_GRP        00000022            PHD$S_ASTLVL   = 00000008
PCB$B_PRI        0000000B            PCB$W_MEM        00000020            PHD$S_P0LR     = 00000018
PCB$B_PRIB       00000033            PCB$W_MTXCNT     0000000E            PHD$V_ASTLVL   = 00000018
PCB$B_TYPE       0000000A            PCB$W_PPGCNT     0000003A            PHD$V_DALCSTX  = 00000001
PCB$B_WEFC       00000032            PCB$W_PRCCNT     0000006A            PHD$V_P0LR     = 00000000
PCB$C_LENGTH     0000007C            PCB$W_SIZE       00000008            PHD$V_PFMFLG   = 00000000
PCB$K_LENGTH     0000007C            PCB$W_STATE      00000030            PHD$W_ASTLM      00000044
PCB$L_ASTQBL     00000014            PCB$W_TMBU       00000036            PHD$W_BAK        00000048
PCB$L_ASTQFL     00000010            PCB$W_TQCNT      0000004A            PHD$W_DFWSCNT    0000001A
PCB$L_EFC2P      00000058            PHD$B_ASTLVL     000000CF            PHD$W_EXTDYNWS   00000076
PCB$L_EFC3P      0000005C            PHD$B_DFPFC      00000038            PHD$W_FILLM      00000060
PCB$L_EFCS       00000050            PHD$B_PAGFIL     0000001F            PHD$W_FLAGS      0000003A
PCB$L_EFCU       00000054            PHD$C_LENGTH     000000D8            PHD$W_PFMFLG     0000003A
PCB$L_EFWM       0000004C            PHD$K_LENGTH     000000D8            PHD$W_PHVINDEX   00000046
PCB$L_OWNER      0000001C            PHD$L_BIOCNT     00000054            PHD$W_PRCLM      00000042
PCB$L_PHD        00000064            PHD$L_CPULIM     00000058            PHD$W_PST        00000020
PCB$L_PHYPCB     00000018            PHD$L_CPUTIM     0000003C            PHD$W_PSTFREE    00000026
PCB$L_PID        00000060            PHD$L_DIOCNT     00000050            PHD$W_PSTLAST    00000024
PCB$L_PQB        0000004C            PHD$L_ESP        0000007C            PHD$W_PTCNTACT   00000070
PCB$L_SQBL       00000004            PHD$L_FREP0VA    00000028            PHD$W_PTCNTLCK   0000006C
PCB$L_SQFL       00000000            PHD$L_FREP1VA    00000030            PHD$W_PTCNTMAX   00000072
PCB$L_STS        00000028            PHD$L_FREPTECNT  0000002C            PHD$W_PTCNTVAL   0000006E
PCB$L_UIC        00000020            PHD$L_KSP        00000078            PHD$W_QUANT      00000040
PCB$L_WSSWP      00000024            PHD$L_P0BR       000000C8            PHD$W_TQLM       00000062
PCB$L_WTIME      0000002C            PHD$L_P0LRASTL   000000CC            PHD$W_WSAUTH     0000000A
PCB$T_LNAME      0000006C            PHD$L_P1BR       000000D0            PHD$W_WSDYN      0000000E
PCB$V_ASTPEN   = 00000011            PHD$L_P1LR       000000D4            PHD$W_WSFLUID    00000074
PCB$V_BATCH    = 0000000E            PHD$L_PAGEFLTS   0000004C            PHD$W_WSLAST     00000012
PCB$V_DELPEN   = 00000001            PHD$L_PAGFIL     0000001C            PHD$W_WSLIST     00000008
PCB$V_FORCPEN  = 00000002            PHD$L_PC         000000C0            PHD$W_WSLOCK     0000000C
PCB$V_HIBER    = 00000013            PHD$L_PCB        00000078            PHD$W_WSLX       0000004A
PCB$V_INQUAN   = 00000003            PHD$L_PGFLCNT    00000034            PHD$W_WSNEXT     00000010
PCB$V_LOGIN    = 00000014            PHD$L_PGFLQUOTA  0000005C            PHD$W_WSQUOTA    00000018
PCB$V_NOACNT   = 0000000F            PHD$L_PSL        000000C4            PR$_ACCR       = 00000029
PCB$V_PHDRES   = 00000012            PHD$L_PSTBASOFF  00000020            PR$_ACCS       = 00000028
PCB$V_PSWAPM   = 00000004            PHD$L_PTWSLELCK  00000064            PR$_ASTLVL     = 00000013
PCB$V_RES      = 00000000            PHD$L_PTWSLEVAL  00000068            PR$_ESP        = 00000001
PCB$V_RESPEN   = 00000005            PHD$L_R0         00000088            PR$_ICCS       = 00000018
PCB$V_SSFEXC   = 00000006            PHD$L_R1         0000008C            PR$_ICR        = 0000001A
PCB$V_SSFEXCE  = 00000007            PHD$L_R10        000000B0            PR$_IPL        = 00000012
PCB$V_SSFEXCS  = 00000008            PHD$L_R11        000000B4            PR$_ISP        = 00000004
PCB$V_SSFEXCU  = 00000009            PHD$L_R12        000000B8            PR$_KSP        = 00000000
PCB$V_SSRWAIT  = 0000000A            PHD$L_R13        000000BC            PR$_MAPEN      = 00000038
SVAPTE          - SYSTEM VIRTUAL ADDRESS OF PAGE TABLE ENTRY     22-AUG-1978 00:18:05   VAX-11 MACRO X0.3-11               Page   6
SYMBOL TABLE                                                                                                                     (4)

PR$_NICR       = 00000019            SS$_CONTROLC   = 00000651            SS$_ILLUSRLBLRD= 00000958
PR$_P0BR       = 00000008            SS$_CONTROLO   = 00000609            SS$_ILLUSRLBLWT= 00000960
PR$_P0LR       = 00000009            SS$_CONTROLY   = 00000611            SS$_INCVOLLABEL= 0000010C
PR$_P1BR       = 0000000A            SS$_CREATED    = 00000619            SS$_INSFARG    = 00000114
PR$_P1LR       = 0000000B            SS$_CTRLERR    = 00000054            SS$_INSFMEM    = 00000124
PR$_PCBB       = 00000010            SS$_DATACHECK  = 0000005C            SS$_INSFRAME   = 0000012C
PR$_RXCS       = 00000020            SS$_DATAOVERUN = 00000838            SS$_INSFWSL    = 0000011C
PR$_RXDB       = 00000021            SS$_DEBUG      = 0000046C            SS$_IVADDR     = 00000134
PR$_SBIER      = 00000034            SS$_DEVACTIVE  = 000002C4            SS$_IVCHAN     = 0000013C
PR$_SBIFS      = 00000030            SS$_DEVALLOC   = 00000840            SS$_IVCHNLSEC  = 0000026C
PR$_SBIMT      = 00000033            SS$_DEVALRALLOC= 00000641            SS$_IVDEVNAM   = 00000144
PR$_SBIQC      = 00000036            SS$_DEVASSIGN  = 00000848            SS$_IVGSDNAM   = 0000014C
PR$_SBIS       = 00000031            SS$_DEVFOREIGN = 00000064            SS$_IVLOGNAM   = 00000154
PR$_SBISC      = 00000032            SS$_DEVICEFULL = 00000850            SS$_IVLOGTAB   = 0000015C
PR$_SBITA      = 00000035            SS$_DEVMOUNT   = 0000006C            SS$_IVPROTECT  = 000002F4
PR$_SBR        = 0000000C            SS$_DEVNOTALLOC= 00000858            SS$_IVQUOTAL   = 00000164
PR$_SCBB       = 00000011            SS$_DEVNOTMBX  = 00000074            SS$_IVSECFLG   = 0000016C
PR$_SID        = 0000003E            SS$_DEVNOTMOUNT= 0000007C            SS$_IVSECIDCTL = 000002E4
PR$_SIRR       = 00000014            SS$_DEVOFFLINE = 00000084            SS$_IVSSRQ     = 00000174
PR$_SISR       = 00000015            SS$_DIRFULL    = 00000860            SS$_IVSTSFLG   = 0000017C
PR$_SLR        = 0000000D            SS$_DRVERR     = 0000008C            SS$_IVTIME     = 00000184
PR$_SSP        = 00000002            SS$_DUPFILENAME= 00000868            SS$_LENVIO     = 0000018C
PR$_TBIA       = 00000039            SS$_DUPLNAM    = 00000094            SS$_LKWSETFUL  = 00000194
PR$_TBIS       = 0000003A            SS$_ENDOFFILE  = 00000870            SS$_MBFULL     = 000008D8
PR$_TODR       = 0000001B            SS$_ENDOFTAPE  = 00000878            SS$_MBTOOSML   = 0000019C
PR$_TXCS       = 00000022            SS$_ENDOFUSRLBL= 00000970            SS$_MCHECK     = 000002BC
PR$_TXDB       = 00000023            SS$_EXQUOTA    = 0000001C            SS$_MEDOFL     = 000001A4
PR$_USP        = 00000003            SS$_EXTIDXFILE = 00000880            SS$_MSGNOTFND  = 00000621
PR$_WCSA       = 0000002C            SS$_FCPREADERR = 00000888            SS$_MUSTCLOSEFL= 00000948
PR$_WCSD       = 0000002D            SS$_FCPREPSTN  = 00000988            SS$_NODATA     = 000001AC
SS$_ABORT      = 0000002C            SS$_FCPREWNDERR= 00000890            SS$_NOHANDLER  = 000008F8
SS$_ACCONFLICT = 00000800            SS$_FCPSPACERR = 00000898            SS$_NOHOMEBLK  = 000008E0
SS$_ACCVIO     = 0000000C            SS$_FCPWRITERR = 000008A0            SS$_NOIOCHAN   = 000001B4
SS$_ARITH      = 00000404            SS$_FILACCERR  = 0000009C            SS$_NOLINKS    = 0000027C
SS$_ASTFLT     = 0000040C            SS$_FILALRACC  = 000000A4            SS$_NOLOGNAM   = 000001BC
SS$_BADATTRIB  = 00000034            SS$_FILELOCKED = 000008A8            SS$_NOMBX      = 00000274
SS$_BADCHKSUM  = 00000808            SS$_FILENUMCHK = 000008B0            SS$_NOMOREFILES= 00000930
SS$_BADESCAPE  = 0000003C            SS$_FILESEQCHK = 000008B8            SS$_NONEXDRV   = 000001C4
SS$_BADFILEHDR = 00000810            SS$_FILESTRUCT = 000008C0            SS$_NONEXPR    = 000008E8
SS$_BADFILENAME= 00000818            SS$_FILNOTACC  = 000000AC            SS$_NONLOCAL   = 000008F0
SS$_BADFILEVER = 00000820            SS$_FILNOTCNTG = 000002AC            SS$_NOPRIV     = 00000024
SS$_BADIMGHDR  = 00000044            SS$_FILNOTEXP  = 000000B4            SS$_NORMAL     = 00000001
SS$_BADIRECTORY= 00000828            SS$_FORMAT     = 000000BC            SS$_NOSIGNAL   = 00000900
SS$_BADPARAM   = 00000014            SS$_GPTFULL    = 000000C4            SS$_NOSOLICIT  = 00000284
SS$_BADSTACK   = 000002B4            SS$_GSDFULL    = 000000CC            SS$_NOSUCHDEV  = 00000908
SS$_BEGOFFILE  = 00000938            SS$_GSDNOTXXX  = 000000D4            SS$_NOSUCHFILE = 00000910
SS$_BLOCKCNTERR= 00000940            SS$_HANGUP     = 000002CC            SS$_NOSUCHNODE = 0000028C
SS$_BREAK      = 00000414            SS$_HEADERFULL = 000008C8            SS$_NOSUCHSEC  = 00000978
SS$_BUFFEROVF  = 00000601            SS$_IDXFILEFULL= 000008D0            SS$_NOTAPEOP   = 00000264
SS$_BUGCHECK   = 000002A4            SS$_ILLBLKNUM  = 000000DC            SS$_NOTFILEDEV = 000001CC
SS$_CANCEL     = 00000830            SS$_ILLCNTRFUNC= 000000E4            SS$_NOTINTBLSZ = 000001D4
SS$_CHANINTLK  = 0000004C            SS$_ILLEFC     = 000000EC            SS$_NOTLABELMT = 000001DC
SS$_CLIFRCEXT  = 00000980            SS$_ILLIOFUNC  = 000000F4            SS$_NOTNETDEV  = 000002EC
SS$_CMODSUPR   = 0000041C            SS$_ILLLBLAST  = 00000968            SS$_NOTRAN     = 00000629
SS$_CMODUSER   = 00000424            SS$_ILLPAGCNT  = 000000FC            SS$_NOTSQDEV   = 000001E4
SS$_COMPAT     = 0000042C            SS$_ILLSEQOP   = 000002DC            SS$_OPCCUS     = 00000434
SS$_CONTINUE   = 00000001            SS$_ILLSER     = 00000104            SS$_OPCDEC     = 0000043C
SVAPTE          - SYSTEM VIRTUAL ADDRESS OF PAGE TABLE ENTRY     22-AUG-1978 00:18:05   VAX-11 MACRO X0.3-11               Page   7
SYMBOL TABLE                                                                                                                     (4)

SS$_OPINCOMPL  = 000002D4
SS$_PAGOWNVIO  = 000001EC
SS$_PAGRDERR   = 00000444
SS$_PARITY     = 000001F4
SS$_PARTESCAPE = 000001FC
SS$_PFMBSY     = 00000204
SS$_PSTFULL    = 0000020C
SS$_RADRMOD    = 0000044C
SS$_REJECT     = 00000294
SS$_REMOTE     = 00000649
SS$_RESIGNAL   = 00000918
SS$_RESULTOVF  = 00000214
SS$_ROPRAND    = 00000454
SS$_SECTBLFUL  = 0000021C
SS$_SSFAIL     = 0000045C
SS$_SUPERSEDE  = 00000631
SS$_TAPEPOSLOST= 00000224
SS$_TBIT       = 00000464
SS$_TIMEOUT    = 0000022C
SS$_TOOMANYVER = 00000990
SS$_TOOMUCHDATA= 0000029C
SS$_UNASEFC    = 00000234
SS$_UNSAFE     = 0000023C
SS$_UNWIND     = 00000920
SS$_UNWINDING  = 00000928
SS$_VASFULL    = 00000244
SS$_VECINUSE   = 0000024C
SS$_VOLINV     = 00000254
SS$_WAITUSRLBL = 00000950
SS$_WASCLR     = 00000001
SS$_WASECC     = 00000639
SS$_WASSET     = 00000009
SS$_WRITLCK    = 0000025C
VA$M_BYTE      = 000001FF
VA$M_P1        = 40000000
VA$M_SYSTEM    = 80000000
VA$M_VPN       = 3FFFFE00
VA$S_BYTE      = 00000009
VA$S_VPN       = 00000015
VA$V_BYTE      = 00000000
VA$V_P1        = 0000001E
VA$V_SYSTEM    = 0000001F
VA$V_VPN       = 00000009


PROGRAM SECTION SYNOPSIS

.  ABS  .        00000000      00     NOPIC   USR   CON   ABS   LCL NOSHR NOEXE NORD  NOWRT BYTE
. BLANK .        00000000      01     NOPIC   USR   CON   REL   LCL NOSHR   EXE   RD    WRT BYTE
$ABS$            000000DC      02     NOPIC   USR   CON   ABS   LCL NOSHR   EXE   RD    WRT BYTE
$MMGCOD          0000001F      03     NOPIC   USR   CON   REL   LCL NOSHR   EXE   RD    WRT BYTE


THERE WERE NO ERRORS OR WARNINGS.
14750. BYTES LEFT IN FREE MEMORY POOL.
3484. BYTES OF RECLAIMED MEMORY.
OBJ$:SVAPTE,LIS$:SVAPTE/-SP=LIB$:LIB/ML,SRC$:SVAPTE
SVAPTE          - SYSTEM VIRTUAL ADDRESS OF PAGE TABLE ENTRY     22-AUG-1978 00:18:05   VAX-11 MACRO X0.3-11               Page   8
PROGRAM SECTION SYNOPSIS                                                                                                         (4)

4 MLB DIR RDS - 663 GETS TO DEFINE 16 MACROS. 43 INTER. FILE WRITES.
