SYSCOMMON       DATA BASES                                       22-AUG-1978 00:20:01   VAX-11 MACRO X0.3-11               Page   0
TABLE OF CONTENTS

   (1)      53  SYSCOMMON
SYSCOMMON       DATA BASES                                       22-AUG-1978 00:20:01   VAX-11 MACRO X0.3-11               Page   1
00                                                                                                                               (1)

                                     0000     1 	.TITLE	SYSCOMMON DATA BASES
                                     0000     2 	.IDENT	/00/
                                     0000     3 ;
                                     0000     4 ; COPYRIGHT (C) 1977
                                     0000     5 ; DIGITAL EQUIPMENT CORPORATION, MAYNARD, MASS.
                                     0000     6 ;
                                     0000     7 ; THIS SOFTWARE IS FURNISHED UNDER  A LICENSE FOR USE ONLY  ON  A
                                     0000     8 ; SINGLE COMPUTER SYSTEM AND MAY BE  COPIED ONLY WITH  THE INCLU-
                                     0000     9 ; SION OF  THE  ABOVE  COPYRIGHT NOTICE.  THIS SOFTWARE,  OR  ANY
                                     0000    10 ; OTHER COPIES THEREOF, MAY NOT BE  PROVIDED  OR  OTHERWISE  MADE
                                     0000    11 ; AVAILABLE TO ANY OTHER PERSON EXCEPT  FOR  USE  ON  SUCH SYSTEM
                                     0000    12 ; AND TO  ONE WHO AGREES  TO  THESE LICENSE  TERMS.  TITLE TO AND
                                     0000    13 ; OWNERSHIP OF THE SOFTWARE SHALL AT ALL TIMES REMAIN IN DEC.
                                     0000    14 ;
                                     0000    15 ; THE INFORMATION IN THIS SOFTWARE  IS  SUBJECT TO CHANGE WITHOUT
                                     0000    16 ; NOTICE AND SHOULD NOT BE CONSTRUED  AS  A COMMITMENT BY DIGITAL
                                     0000    17 ; EQUIPMENT CORPORATION.
                                     0000    18 ;
                                     0000    19 ; DEC ASSUMES NO RESPONSIBILITY FOR THE USE OR RELIABILITY OF ITS
                                     0000    20 ; SOFTWARE ON EQUIPMENT WHICH IS NOT SUPPLIED BY DEC.
                                     0000    21 ;
                                     0000    22 ;++
                                     0000    23 ; SYSTEM COMMON DATA BASES
                                     0000    24 ;--
                                     0000    25 ;
                                     0000    26 ; VERSION X01 (BASE LEVEL 0)
                                     0000    27 ;
                                     0000    28 ; AUTHOR: R. HEINEN 9-AUG-76 (X01)
                                     0000    29 ;
                                     0000    30 ; MODIFIED BY R.HEINEN ON 13-OCT-76; ADD FORK LIST HEADS FOR IPL 7,6
                                     0000    31 ; MODIFIED BY C. MONIA 0N 24-JAN-78; MODIFY FOR STAND-ALONE SYSTEM
                                     0000    32 ;
                                     0000    33 ; MACRO LIBRARY CALLS
                                     0000    34 ;
                                     0000    35
                                     0000    36 	$CADEF				; DEFINE CONDITIONAL ASSEMBLY PARAMETERS
                                     0000    37 	$DYNDEF				; DEFINE DATA STRUCTURE CODES
                                     0000    38 	$LOGDEF				; DEFINE LOG OFFSETS
                                     0000    39 	$SGNDEF				; DEFINE SYSGEN VALUES
                                     0000    40 	$TQEDEF				; DEFINE TQE OFFSETS
                                     0000    41 	$WCBDEF				; DEFINE WCB OFFSETS
                                     0000    42
                                     0000    43 ;
                                     0000    44 ; MACRO DEFINITIONS:
                                     0000    45 ;
                                     0000    46
                                     0000    47 	.MACRO	TIME
                                     0000    48 	.LONG	0			;
                                     0000    49 	.LONG	^X859034		; HIGH ORDER BITS OF TIME
                                     0000    50 	.ENDM	TIME
                                     0000    51
SYSCOMMON       DATA BASES                                       22-AUG-1978 00:20:01   VAX-11 MACRO X0.3-11               Page   2
00              SYSCOMMON                                                                                                        (1)

                                     0000    53 	.SBTTL	SYSCOMMON
                                     0000    54
                                 00000000    55 	.PSECT	$$$260,QUAD,WRT
                                     0000    56 ;+
                                     0000    57 ; SYSTEM COMMON DATA BASES
                                     0000    58 ;
                                     0000    59 ; SYSTEM FILE DESCRIPTORS
                                     0000    60 ;
                                     0000    61
                                     0000    62 EXE$GQ_STAREXE::			; STARLET EXECUTIVE IMAGE
                           00000004  0000    63 	.BLKL	1			; SIZE OF FILE IN PAGES
                           00000008  0004    64 	.BLKL	1			; STARTING LBN OF FILE
                                     0008    65 EXE$GQ_SYSDMP::				; SYSTEM DUMP IMAGE
                           0000000C  0008    66 	.BLKL	1			; SIZE OF FILE IN PAGES
                           00000010  000C    67 	.BLKL	1			; STARTING LBN OF FILE
                                     0010    68 EXE$GQ_SWAPF::				; WORKING SET SWAP FILE
                           00000014  0010    69 	.BLKL	1			; SIZE OF FILE IN PAGES
                           00000018  0014    70 	.BLKL	1			; STARTING LBN OF FILE
                                     0018    71
                                     0018    72 ;
                                     0018    73 ; DEFINE THE CONTROL BITS IN EXE$GL_FLAGS
                                     0018    74 ;
                                     0018    75 	$GBLINI	GLOBAL
                                     0018    76 	$VIELD	EXE,0,<-
                                     0018    77 		SYSWRTABL,-		; LEAVE SYSTEM READ ONLY CODE WRITABLE
                                     0018    78 		NOAUTOCNF,-		; NO AUTOMATIC CONFIGURATION OF UBA
                                     0018    79 		SYSPAGING,-		; ENABLE SYSTEM PAGING
                                     0018    80 		POOLPGING,-		; ENABLE DYNAMIC POOL PAGING
                                     0018    81 		SIMULATOR,-		; RUNNING ON SIMULATOR
                                     0018    82 		NOCLOCK,-		; DO NOT TURN ON CLOCK
                                     0018    83 		CRDENABL,-		; ENABLE CRD ERROR DETECTION
                                     0018    84 		SBIERR,-		; ENABLE SBI ERROR INTERRUPT
                                     0018    85 		INIT,-			; RMS AND FILE SYSTEM INITIALIZED
                                     0018    86 		SETTIME,-		; FORCE SOLICITATION OF TIME
                                     0018    87 		FATAL_BUG,-		; FORCE ALL BUG CHECKS FATAL
                                     0018    88 		MULTACP,-		; USE MULTIPLE FILE ACP'S
                                     0018    89 		NOCLUSTER,-		; TURN OFF PAGE FAULT CLUSTERING
                                     0018    90 		BUGREBOOT,-		; AUTO REBOOT ON BUGCHECK
                                     0018    91 		SYSUAFALT,-		; ALTERNATE LOGICAL NAME FOR SYSUAF
                                     0018    92 	>
                                     0018    93
                                     0018    94 ;
                                     0018    95 ; SYSTEM FLAGS LONG WORD
                                     0018    96 ;
                                     0018    97 ; NOTE: THE ACTUAL DEFAULT SETTING FOR EXE$GL_FLAGS IS IN SYSPARAM IN
                                     0018    98 ;	CELL EXE$GL_DEFFLAGS AND IS COPIED INTO THE WORKING LOCATION,
                                     0018    99 ;	EXE$GL_FLAGS BY INIT.
                                     0018   100 ;
                                     0018   101 EXE$GL_FLAGS::
                           0000048C  0018   102 	.LONG	<1@EXE$V_SYSPAGING>!<1@EXE$V_POOLPGING>- ; SYSTEM CONTROL FLAGS
                                     001C   103 		!<1@EXE$V_SBIERR>!<1@EXE$V_FATAL_BUG> ;
                                     001C   104
                                     001C   105 ;
                                     001C   106 ; ERROR LOG MAILBOX CONTROL
                                     001C   107 ;
                                     001C   108 EXE$GQ_ERLMBX::				;
                               0000  001C   109 	.WORD	0			; UNIT NUMBER (0 => NONE)
SYSCOMMON       DATA BASES                                       22-AUG-1978 00:20:01   VAX-11 MACRO X0.3-11               Page   3
00              SYSCOMMON                                                                                                        (1)

                               0000  001E   110 	.WORD	0			; RESERVED
                           00000000  0020   111 	.LONG	0			; PID OF ASSIGNER
                                     0024   112
                                     0024   113
                                     0024   114 ;
                                     0024   115 ;	VECTORS TO USER SUPPLIED CHANGE MODE HANDLERS
                                     0024   116 ;
                                     0024   117 EXE$GL_USRCHMK::			; VECTOR TO USER SUPPLIED CHANGE MODE
                           00000000  0024   118 	.LONG	0			; TO KERNEL HANDLER
                                     0028   119 EXE$GL_USRCHME::			; VECTOR TO USER SUPPLIED CHANGE MODE
                           00000000  0028   120 	.LONG	0			; TO EXECUTIVE HANDLER
                                     002C   121
                                     002C   122 ;
                                     002C   123 ; FORK QUEUE LISTHEADS
                                     002C   124 ;
                                     002C   125
                                     002C   126 	.ALIGN	QUAD
                                     0030   127 SWI$GL_FQFL::				; FORWARD LINK
                           00000030' 0030   128 A:	.LONG	A			; IPL-6 LISTHEAD
                                     0034   129 SWI$GL_FQBL::				; BACKWARD LINK
                           00000030' 0034   130 	.LONG	A			;
                  00000038'00000038' 0038   131 2$:	.LONG	2$,2$			; IPL-7 LISTHEAD
                  00000040'00000040' 0040   132 3$:	.LONG	3$,3$			; IPL-8 LISTHEAD
                  00000048'00000048' 0048   133 4$:	.LONG	4$,4$			; IPL-9 LISTHEAD
                  00000050'00000050' 0050   134 5$:	.LONG	5$,5$			; IPL-10 LISTHEAD
                  00000058'00000058' 0058   135 6$:	.LONG	6$,6$			; IPL-11 LISTHEAD
                                     0060   136
                                     0060   137 ;
                                     0060   138 ; LOGICAL NAME TABLE ADDRESS TABLE
                                     0060   139 ;
                                     0060   140
                                     0060   141 LOG$AL_LOGTBL::				;
                           00000080' 0060   142 	.LONG	LOG$GL_SLTFL		; SYSTEM NAME TABLE
                           00000078' 0064   143 	.LONG	LOG$GL_GLTFL		; GROUP NAME TABLE
                           00000000' 0068   144 	.LONG	CTL$GL_PLTFL		; PROCESS NAME TABLE
                                     006C   145
                                     006C   146 ;
                                     006C   147 ; LOGICAL NAME TABLE MUTEX TABLE
                                     006C   148 ;
                                     006C   149
                                     006C   150 LOG$AL_MUTEX::				;
                          0000 FFFF  006C   151 	.WORD	-1,0			; SYSTEM NAME TABLE
                          0000 FFFF  0070   152 	.WORD	-1,0			; GROUP NAME TABLE
                                     0074   153
                                     0074   154 ;
                                     0074   155 ; GROUP NAME TABLE LISTHEAD
                                     0074   156 ;
                                     0074   157
                                     0074   158 	.ALIGN	QUAD
                                     0078   159 LOG$GL_GLTFL:				; FORWARD LINK
                           00000078' 0078   160 	.LONG	.			;
                                     007C   161 LOG$GL_GLTBL:				; BACKWARD LINK
                           00000078' 007C   162 	.LONG	.-4			;
                                     0080   163
                                     0080   164 ;
                                     0080   165 ; SYSTEM NAME TABLE LISTHEAD
                                     0080   166 ;
SYSCOMMON       DATA BASES                                       22-AUG-1978 00:20:01   VAX-11 MACRO X0.3-11               Page   4
00              SYSCOMMON                                                                                                        (1)

                                     0080   167
                                     0080   168 	.ALIGN	QUAD
                                     0080   169 LOG$GL_SLTFL::				; FORWARD LINK
                           00000088' 0080   170 	.LONG	DISKLOG			; SYSTEM DEVICE LOGICAL NAME
                                     0084   171 LOG$GL_SLTBL:				; BACKWARD LINK
                           00000088' 0084   172 	.LONG	DISKLOG			; SYSTEM DEVICE LOGICAL NAME
                                     0088   173
                                     0088   174 ;
                                     0088   175 ; SYSTEM DEVICE LOGICAL NAME EQUIVALENCE
                                     0088   176 ;
                                     0088   177
                                     0088   178 	.ALIGN	QUAD
                                     0088   179 DISKLOG:				; SYSTEM DEVICE LOGICAL NAME BLOCK
                           00000080' 0088   180 	.LONG	LOG$GL_SLTFL		; FORWARD LINK
                           00000080' 008C   181 	.LONG	LOG$GL_SLTFL		; BACKWARD LINK
                               001A' 0090   182 	.WORD	DISKEND-DISKLOG		; LENGTH OF LOGICAL NAME BLOCK IN BYTES
                                 0B' 0092   183 	.BYTE	DYN$C_LOG		; DATA STRUCTURE TYPE CODE
                                 00' 0093   184 	.BYTE	LOG$C_SYSTEM		; LOGICAL NAME TABLE NUMBER
                               0001  0094   185 	.WORD	1			; UIC MEMBER NUMBER
                               0001  0096   186 	.WORD	1			; UIC GROUP NUMBER
                                     0098   187 ;EXE$GL_SYSUCB::				; SYSTEM DEVICE UCB ADDRESS
                                     0098   188 ;	.LONG	DBA$UCB0		; RP04 UNIT 0 UCB ADDRESS
                                     0098   189 FIL$GT_DDDEV::				; FILE READ DEFAULT DEVICE STRING
                     4B 53 49 44 04  0098   190 	.ASCII	<4>/DISK/		; LOGICAL NAME STRING
                     3A 30 4B 44 04  009D   191 	.ASCII	<4>/DK0:/		; EQUIVALENCE NAME STRING
                                     00A2   192 DISKEND:				;
                                     00A2   193
                                     00A2   194 ;
                                     00A2   195 ; I/O DONE PACKET QUEUE
                                     00A2   196 ;
                                     00A2   197
                                     00A2   198 	.ALIGN	QUAD
                                     00A8   199 IOC$GL_PSFL::				;
                           000000A8' 00A8   200 B:	.LONG	B			; FORWARD LINK
                                     00AC   201 IOC$GL_PSBL::				;
                           000000A8' 00AC   202 	.LONG	B			; BACKWARD LINK
                                     00B0   203
                                     00B0   204 ;
                                     00B0   205 ; I/O PACKET LOOK ASIDE LISTHEAD
                                     00B0   206 ;
                                     00B0   207
                                     00B0   208 IOC$GL_IRPFL::				;
                           000000B0' 00B0   209 	.LONG	IOC$GL_IRPFL		;
                                     00B4   210 IOC$GL_IRPBL::				;
                           000000B0' 00B4   211 	.LONG	IOC$GL_IRPFL		;
                                     00B8   212 ;
                                     00B8   213 ; SYSTEM AQB LISTHEAD
                                     00B8   214 ;
                                     00B8   215 IOC$GL_AQBLIST::
                           00000000  00B8   216 	.LONG	0			; SINGLE LINK, EMPTY
                                     00BC   217 ;
                                     00BC   218 ; SYSTEM-WIDE MOUNTED VOLUME LIST
                                     00BC   219 ;
                                     00BC   220 IOC$GQ_MOUNTLST::
                           000000BC' 00BC   221 	.LONG	.
                           000000BC' 00C0   222 	.LONG	.-4
                                     00C4   223 ;
SYSCOMMON       DATA BASES                                       22-AUG-1978 00:20:01   VAX-11 MACRO X0.3-11               Page   5
00              SYSCOMMON                                                                                                        (1)

                                     00C4   224 ; TERMINAL DIAL UP ATTENTION LIST HEAD
                                     00C4   225 ;
                                     00C4   226 IOC$GL_DIALUP::				;
                           00000000  00C4   227 	.LONG	0			; SINGLE LINK, EMPTY
                                     00C8   228 ;
                                     00C8   229 ; TERMINAL BROADCAST MESSAGE LIST HEAD
                                     00C8   230 ;
                                     00C8   231 IOC$GQ_BRDCST::				;
                  000000C8'000000C8' 00C8   232 1$:	.LONG	1$,1$			; EMPTY
                                     00D0   233
                                     00D0   234 ;
                                     00D0   235 ; GROUP GLOBAL SECTION DESCRIPTOR LIST HEAD
                                     00D0   236 ;
                                     00D0   237
                                     00D0   238 EXE$GL_GSDGRPFL::			; FORWARD LINK
                           000000D0' 00D0   239 	.LONG	.
                                     00D4   240 EXE$GL_GSDGRPBL::			; BACKWARD LINK
                           000000D0' 00D4   241 	.LONG	.-4
                                     00D8   242
                                     00D8   243 ;
                                     00D8   244 ; SYSTEM GLOBAL SECTION DESCRIPTOR LIST HEAD
                                     00D8   245 ;
                                     00D8   246
                                     00D8   247 EXE$GL_GSDSYSFL::			; FORWARD LINK
                           000000D8' 00D8   248 	.LONG	.
                                     00DC   249 EXE$GL_GSDSYSBL::			; BACKWARD LINK
                           000000D8' 00DC   250 	.LONG	.-4
                                     00E0   251
                                     00E0   252 ;
                                     00E0   253 ; GLOBAL SECTION DESCRIPTOR BLOCK LOOK ASIDE LIST HEAD
                                     00E0   254 ;
                                     00E0   255
                                     00E0   256 EXE$GL_GSDFREFL::			; FORWARD LINK
                           000000E0' 00E0   257 	.LONG	.
                                     00E4   258 EXE$GL_GSDFREBL::			; BACKWARD LINK
                           000000E0' 00E4   259 	.LONG	.-4
                                     00E8   260 ;
                                     00E8   261 ; GLOBAL SECTION DESCRIPTOR DELETE PENDING LIST
                                     00E8   262 ;
                                     00E8   263
                                     00E8   264 EXE$GL_GSDDELFL::			; FORWARD LINK
                           000000E8' 00E8   265 	.LONG	.
                                     00EC   266 EXE$GL_GSDDELBL::			; BACKWARD LINK
                           000000E8' 00EC   267 	.LONG	.-4
                                     00F0   268
                                     00F0   269 ;
                                     00F0   270 ; WINDOW CONTROL BLOCK DELETE QUEUE - GLOBAL SECTION WINDOWS ARE
                                     00F0   271 ;	PLACED HERE WHEN THE SECTION IS DELETED. THEY ARE THEN
                                     00F0   272 ;	REMOVED FROM THIS QUEUE AND DEACCESSED.
                                     00F0   273 ;
                                     00F0   274
                                     00F0   275 EXE$GL_WCBDELFL::			; FORWARD LINK
                           000000F0' 00F0   276 	.LONG	.
                                     00F4   277 EXE$GL_WCBDELBL::			; BACKWARD LINK
                           000000F0' 00F4   278 	.LONG	.-4
                                     00F8   279
                                     00F8   280 ;
SYSCOMMON       DATA BASES                                       22-AUG-1978 00:20:01   VAX-11 MACRO X0.3-11               Page   6
00              SYSCOMMON                                                                                                        (1)

                                     00F8   281 ; SYSTEM WINDOW CONTROL BLOCK LIST - ALL WINDOWS CRAFTED BY MMG$INIWCB
                                     00F8   282 ;	ARE PLACED HERE.
                                     00F8   283 ;
                                     00F8   284
                                     00F8   285 EXE$GL_SYSWCBFL::
                           00000100' 00F8   286 	.LONG	EXE$GL_SYSWCB		; FORWARD LINK
                                     00FC   287 EXE$GL_SYSWCBBL::
                           00000100' 00FC   288 	.LONG	EXE$GL_SYSWCB		; BACKWARD LINK
                                     0100   289
                                     0100   290 ;
                                     0100   291 ; SYSTEM WINDOW CONTROL BLOCK FOR MAPPING THE SYSTEM IMAGE
                                     0100   292 ;
                                     0100   293
                                     0100   294 EXE$GL_SYSWCB::
                           0000012A  0100   295 10$:	.BLKB	WCB$K_LENGTH+6		; FORM A WINDOW WITH 1 RETRIEVAL POINTER
                                     012A   296 20$:
                           00000100  012A   297 	.=10$				; BACK TO THE TOP TO FILL IN THE LINKS
                           000000F8' 0100   298 	.LONG	EXE$GL_SYSWCBFL		; FORWARD LINK
                           000000F8' 0104   299 	.LONG	EXE$GL_SYSWCBFL		; BACKWARD LINK
                           00000108  0108   300 	.=10$+WCB$W_SIZE		; SIZE FIELD
                               002A  0108   301 	.WORD	WCB$K_LENGTH+6		; CONTROL BLOCK SIZE
                           0000010A  010A   302 	.=10$+WCB$B_TYPE		; TYPE FIELD
                                 12  010A   303 	.BYTE	DYN$C_WCB
                           0000010B  010B   304 	.=10$+WCB$B_ACCESS		; ACCESS FIELD
                                 05  010B   305 	.BYTE	WCB$M_READ!WCB$M_NOTFCP ; NOT AN FCP WINDOW
                           00000116  010C   306 	.=10$+WCB$W_NMAP		; NUMBER OF RETRIEVAL POINTERS
                               0001  0116   307 	.WORD	1
                           00000120  0118   308 	.=10$+WCB$L_STVBN		; STARTING VIRTUAL BLOCK NUMBER
                           00000001  0120   309 	.LONG	1
                           0000012A  0124   310 	.=20$				; BACK TO END OF WCB
                                     012A   311 	.ALIGN	LONG
                                     012C   312
                           00000124  012C   313 	EXE$GL_SYSWCBRP==EXE$GL_SYSWCB+WCB$K_LENGTH ; ADR OF 1ST RETRIEVAL POINTER
                           00000110  012C   314 	EXE$GL_SYSWCBUC==EXE$GL_SYSWCB+WCB$L_ORGUCB ; ADR OF UCB ADDRESS
                                     012C   315
                                     012C   316 ;
                                     012C   317 ; MAXIMUM ALLOWABLE BUFFERED I/O REQUEST SIZE
                                     012C   318 ;
                                     012C   319
                                     012C   320 IOC$GW_MAXBUF::				;
                               0400  012C   321 	.WORD	1024			;
                                     012E   322
                                     012E   323 ;
                                     012E   324 ; MAILBOX DEFAULT BUFFER QUOTA
                                     012E   325 ;
                                     012E   326
                                     012E   327 IOC$GW_MBXBFQUO::			;
                               0400  012E   328 	.WORD	1024			;
                                     0130   329
                                     0130   330 ;
                                     0130   331 ; MAILBOX DEFAULT MAXIMUM MESSAGE SIZE
                                     0130   332 ;
                                     0130   333
                                     0130   334 IOC$GW_MBXMXMSG::			;
                               0100  0130   335 	.WORD	256			;
                                     0132   336
                                     0132   337 ;
SYSCOMMON       DATA BASES                                       22-AUG-1978 00:20:01   VAX-11 MACRO X0.3-11               Page   7
00              SYSCOMMON                                                                                                        (1)

                                     0132   338 ; MAILBOX DEFAULT NUMBER OF MESSAGES
                                     0132   339 ;
                                     0132   340
                                     0132   341 IOC$GW_MBXNMMSG::			;
                               0010  0132   342 	.WORD	16			;
                                     0134   343
                                     0134   344 ;
                                     0134   345 ; TIMER PERFORMANCE STATISTICS
                                     0134   346 ;
                                     0134   347
                           00000002  0134   348 	.IF NE	CA$_MEASURE		; CHECK FOR MEASUREMENT ENABLED
                                     0134   349
                                     0134   350 	.ALIGN	LONG
                                     0134   351 PMS$GL_KERNEL::				; TIME IN KERNEL MODE
                           00000000  0134   352 	.LONG	0
                                     0138   353 PMS$GL_EXEC:				; TIME IN EXECUTIVE MOVE
                           00000000  0138   354 	.LONG	0
                                     013C   355 PMS$GL_SUPER:				; TIME IN SUPERVISOR MODE
                           00000000  013C   356 	.LONG	0
                                     0140   357 PMS$GL_USER:				; TIME IN USER MODE
                           00000000  0140   358 	.LONG	0
                                     0144   359 PMS$GL_INTER:				; TIME ON INTERRUPT STACK
                           00000000  0144   360 	.LONG	0
                                     0148   361 PMS$GL_COMPAT::				; TIME IN COMPATIBILITY MODE
                           00000000  0148   362 	.LONG	0
                                     014C   363
                                     014C   364 	.ENDC
                                     014C   365
                                     014C   366 ;
                                     014C   367 ; SYSTEM ABSOLUTE TIME IN SECONDS
                                     014C   368 ;
                                     014C   369
                                     014C   370 	.ALIGN	LONG
                                     014C   371 EXE$GL_ABSTIM::				; ABSOLUTE TIME IN SECONDS
                           00000000  014C   372 	.LONG	0			;
                                     0150   373
                                     0150   374 ;
                                     0150   375 ; SYSTEM ABSOLUTE TIME IN NANOSECONDS
                                     0150   376 ;
                                     0150   377
                                     0150   378 	.ALIGN	QUAD
                                     0150   379 EXE$GQ_SYSTIME::			; SYSTEM ABSOLUTE TIME IN NANOSECONDS
                                     0150   380 	TIME				; QUAD WORD OF INITIAL TIME
                                     0158   381
                                     0158   382 ;
                                     0158   383 ; SYSTEM UIC MAXIMUM GROUP CODE
                                     0158   384 ;
                                     0158   385
                                     0158   386 EXE$GL_SYSUIC::				;
                           00000008  0158   387 	.LONG	8			; SYSTEM UIC'S ARE [1-8,*]
                                     015C   388
                                     015C   389 ;
                                     015C   390 ; TIME DEPENDENT SCHEDULER REQUEST QUEUE
                                     015C   391 ;
                                     015C   392
                                     015C   393 	.ALIGN	QUAD
                                     0160   394 EXE$GL_TQFL::				; FORWARD LINK OF TIME QUEUE LISTHEAD
SYSCOMMON       DATA BASES                                       22-AUG-1978 00:20:01   VAX-11 MACRO X0.3-11               Page   8
00              SYSCOMMON                                                                                                        (1)

                           00000168' 0160   395 	.LONG	DEVICETIM		; LINK TO DEVICE TIME OUT ENTRY
                                     0164   396 EXE$GL_TQBL:				; BACK LINK OF TIME QUEUE LISTHEAD
                           00000198' 0164   397 	.LONG	PERMENTRY		; LINK TO PERMENENT ENTRY
                                     0168   398
                                     0168   399 ;
                                     0168   400 ; DEVICE TIME OUT TIME QUEUE ENTRY
                                     0168   401 ;
                                     0168   402
                                     0168   403 	.ALIGN	QUAD
                                     0168   404 DEVICETIM:				; DEVICE TIME OUT TIME QUEUE ENTRY
                           00000198' 0168   405 	.LONG	PERMENTRY		; FORWARD LINK TO PERMANENT ENTRY
                           00000160' 016C   406 	.LONG	EXE$GL_TQFL		; BACK LINK TO LISTHEAD
                               0000  0170   407 	.WORD	0			; SIZE OF ENTRY
                                 0F' 0172   408 	.BYTE	DYN$C_TQE		; TYPE OF DATA STRUCTURE
                                 05' 0173   409 	.BYTE	TQE$C_SSREPT		; REQUEST TYPE OF ENTRY
                           00000000' 0174   410 	.LONG	EXE$TIMEOUT		; PC OF SYSTEM SUBROUTINE
                           00000000' 0178   411 	.LONG	IOC$GL_DEVLIST		; ADDRESS OF I/O DATA BASE LISTHEAD
                           00000180  017C   412 	.BLKL	1			; ONE UNUSED LONGWORD
                                     0180   413 	TIME				; QUAD WORD OF EXPIRATION TIME
                           00989680  0188   414 	.LONG	100000*100		; DELTA REPEAT TIME OF 1 SECOND
                           00000000  018C   415 	.LONG	0			;
                                     0190   416
                                     0190   417 ;
                                     0190   418 ; TERMINAL TIMER ENTRY
                                     0190   419 ;
                                     0190   420
                                     0190   421 	.ALIGN	QUAD
                                     0190   422 ;TTTIMER:				; TERMINAL TIMER ENTRY
                                     0190   423 ;	.LONG	PERMENTRY		; FORWARD LINK TO PERMENENT ENTRY
                                     0190   424 ;	.LONG	DEVICETIM		; BACKWARD LINK TO DEVICE TIMEOUTENTRY
                                     0190   425 ;	.WORD	0			; SIZE OF ENTRY
                                     0190   426 ;	.BYTE	DYN$C_TQE		; TYPE OF STRUCTURE
                                     0190   427 ;	.BYTE	TQE$C_SSREPT		; TYPE OF TIME ENTRY
                                     0190   428 ;	.LONG	TT$TIMER		; PC OF TIMER SERVICE
                                     0190   429 ;	.LONG	0			; UNUSED LONG WORD
                                     0190   430 ;	.LONG	0
                                     0190   431 ;	TIME				; QUAD WORD OF EXPIRATION TIME
                                     0190   432 TTY$GL_TMRDELTA::
                           00989680  0190   433 	.LONG	100000*100		; DELTA REPEAT TIME OF 1 SECOND
                           00000000  0194   434 	.LONG	0			;
                                     0198   435
                                     0198   436 ;
                                     0198   437 ; PERMANENT TIME QUEUE ENTRY
                                     0198   438 ;
                                     0198   439
                                     0198   440 	.ALIGN	QUAD
                                     0198   441 PERMENTRY:				; PERMENENT TIME QUEUE ENTRY
                           00000160' 0198   442 	.LONG	EXE$GL_TQFL		; FORWARD LINK TO LISTHEAD
                           00000168' 019C   443 	.LONG	DEVICETIM		; BACK LINK TO DEVICE TIME OUT ENTRY
                               0000  01A0   444 	.WORD	0			; SIZE OF ENTRY
                                 0F  01A2   445 	.BYTE	DYN$C_TQE		; TYPE OF DATA STRUCTURE
                                 00  01A3   446 	.BYTE	TQE$C_TMSNGL		; REQUEST TYPE OF ENTRY
                           000001B0  01A4   447 	.BLKL	3			; THREE UNUSED LONGWORDS
                           FFFFFFFF  01B0   448 	.LONG	^X0FFFFFFFF		; INFINITY EXPIRATION TIME
                           FFFFFFFF  01B4   449 	.LONG	^X0FFFFFFFF		;
                                     01B8   450
                                     01B8   451
SYSCOMMON       DATA BASES                                       22-AUG-1978 00:20:01   VAX-11 MACRO X0.3-11               Page   9
00              SYSCOMMON                                                                                                        (1)

                                     01B8   452 ;
                                     01B8   453 ; IOC DATA BASE MUTEX
                                     01B8   454 ;
                                     01B8   455
                                     01B8   456 IOC$GL_MUTEX::				; MUTEX FOR IOC DATA BASE
                               FFFF  01B8   457 	.WORD	-1			; INITIAL COUNT OF -1
                               0000  01BA   458 	.WORD	0			; ALL FLAGS CLEARED
                                     01BC   459
                                     01BC   460
                                     01BC   461 ;
                                     01BC   462 ; COMMON EVENT LIST MUTEX
                                     01BC   463 ;
                                     01BC   464
                                     01BC   465 EXE$GL_CEBMTX::				; MUTEX FOR COMMON EVENT CLUSTER LIST
                               FFFF  01BC   466 	.WORD	-1			; INITIAL COUNT OF -1
                               0000  01BE   467 	.WORD	0			; ALL FLAGS CLEARED
                                     01C0   468
                                     01C0   469 ;
                                     01C0   470 ; DYNAMIC PAGED MEMORY MUTEX
                                     01C0   471 ;
                                     01C0   472
                                     01C0   473 EXE$GL_PGDYNMTX::			; PAGED DYNAMIC MEMORY MUTEX
                               FFFF  01C0   474 	.WORD	-1			; INITIAL COUNT OF -1
                               0000  01C2   475 	.WORD	0			; ALL FLAGS CLEAR
                                     01C4   476 ;
                                     01C4   477 ; GLOBAL SECTION DESCRIPTOR TABLE MUTEX
                                     01C4   478 ;
                                     01C4   479
                                     01C4   480 EXE$GL_GSDMTX::				; GLOBAL SECTION DESCRIPTOR MUTEX
                               FFFF  01C4   481 	.WORD	-1			; INITIAL COUNT OF -1
                               0000  01C6   482 	.WORD	0			; ALL FLAGS CLEAR
                                     01C8   483
                                     01C8   484 ;
                                     01C8   485 ; KNOWN FILE TABLE MUTEX
                                     01C8   486 ;
                                     01C8   487
                                     01C8   488 EXE$GL_KFIMTX::				; KNOWN FILE TABLE MUTEX
                               FFFF  01C8   489 	.WORD	-1			; INITIAL COUNT OF -1
                               0000  01CA   490 	.WORD	0			; ALL FLAGS CLEAR
                                     01CC   491
                                     01CC   492 ;
                                     01CC   493 ; GLOBAL PAGE TABLE
                                     01CC   494 ;
                                     01CC   495
                                     01CC   496 EXE$GL_GPT::
                           00000000  01CC   497 	.LONG	0			; ADDRESS OF FIRST FREE GLOBAL PTE
                                     01D0   498 					; SETUP BY INIT
                           00000000  01D0   499 	.LONG 	0			; NO BYTES IN BLOCK
                                     01D4   500
                                     01D4   501 ;
                                     01D4   502 ; DYNAMIC STORAGE REGION - NONPAGED
                                     01D4   503 ;
                                     01D4   504
                                 000001D4   505 	.PSECT	$$$260,QUAD,WRT
                                     01D4   506 EXE$GL_NONPAGED::			;
                           0000000B  01D4   507 	.LONG	11			; DISABLE ALL FORK INTERRUPTS
                           00000000' 01D8   508 	.LONG	EXE$AL_NPAGEDYN		; ADDRESS OF FIRST FREE BLOCK
SYSCOMMON       DATA BASES                                       22-AUG-1978 00:20:01   VAX-11 MACRO X0.3-11               Page  10
00              SYSCOMMON                                                                                                        (1)

                           00000000  01DC   509 	.LONG	0			; NO BYTES IN BLOCK
                                     01E0   510 EXE$GL_SPLITADR::			; LOOKASIDE I/O PACKET LIST SPLIT ADDRESS
                           FFFFFFFF  01E0   511 	.LONG	-1			; NO LOOKASIDE LIST
                                     01E4   512
                                     01E4   513
                                     01E4   514 ;
                                     01E4   515 ; DYNAMIC STORAGE REGION - PAGED
                                     01E4   516 ;
                                     01E4   517
                                 000001E4   518 	.PSECT	$$$260,QUAD,WRT
                                     01E4   519 EXE$GL_PAGED::				;
                           00000000' 01E4   520 	.LONG	PAGEDMEM		; ADDRESS OF FIRST FREE BLOCK
                           00000000  01E8   521 	.LONG	0			; LENGTH OF BLOCK=0
                                 00000000   522 	.PSECT	Y$EXEPAGED
                                     0000   523 PAGEDMEM:				;
                           00000000  0000   524 	.LONG	0			;
                           00000400  0004   525 	.LONG	2*512			; LENGTH OF THIS BLOCK
                           00000400  0008   526 	.BLKB	2*512-8			;
                                     0400   527
                                     0400   528
                                     0400   529 	.END
SYSCOMMON       DATA BASES                                       22-AUG-1978 00:20:01   VAX-11 MACRO X0.3-11               Page  11
SYMBOL TABLE                                                                                                                     (1)

A                00000030 R     03   EXE$GL_GSDGRPBL  000000D4 RG    03   IOC$GW_MBXMXMSG  00000130 RG    03
B                000000A8 R     03   EXE$GL_GSDGRPFL  000000D0 RG    03   IOC$GW_MBXNMMSG  00000132 RG    03
BIT...         = 0000000F            EXE$GL_GSDMTX    000001C4 RG    03   LOG$AL_LOGTBL    00000060 RG    03
CA$_MEASURE    = 00000002            EXE$GL_GSDSYSBL  000000DC RG    03   LOG$AL_MUTEX     0000006C RG    03
CA$_MEASURE_IOT= 00000004            EXE$GL_GSDSYSFL  000000D8 RG    03   LOG$B_AMOD       0000000E
CA$_SIMULATOR  = 00000001            EXE$GL_KFIMTX    000001C8 RG    03   LOG$B_TABLE      0000000B
CTL$GL_PLTFL     ********   X   03   EXE$GL_NONPAGED  000001D4 RG    03   LOG$B_TYPE       0000000A
DEVICETIM        00000168 R     03   EXE$GL_PAGED     000001E4 RG    03   LOG$C_GROUP    = 00000001
DISKEND          000000A2 R     03   EXE$GL_PGDYNMTX  000001C0 RG    03   LOG$C_LENGTH     00000014
DISKLOG          00000088 R     03   EXE$GL_SPLITADR  000001E0 RG    03   LOG$C_NAMLENGTH= 00000040
DYN$C_ACB      = 00000002            EXE$GL_SYSUIC    00000158 RG    03   LOG$C_PROCESS  = 00000002
DYN$C_ADP      = 00000001            EXE$GL_SYSWCB    00000100 RG    03   LOG$C_SYSTEM   = 00000000
DYN$C_AQB      = 00000003            EXE$GL_SYSWCBBL  000000FC RG    03   LOG$GL_GLTBL     0000007C R     03
DYN$C_BRDCST   = 0000001A            EXE$GL_SYSWCBFL  000000F8 RG    03   LOG$GL_GLTFL     00000078 R     03
DYN$C_BUFIO    = 00000013            EXE$GL_SYSWCBRP= 00000124 RG    03   LOG$GL_SLTBL     00000084 R     03
DYN$C_CEB      = 00000004            EXE$GL_SYSWCBUC= 00000110 RG    03   LOG$GL_SLTFL     00000080 RG    03
DYN$C_CIR      = 0000001E            EXE$GL_TQBL      00000164 R     03   LOG$K_LENGTH     00000014
DYN$C_CRB      = 00000005            EXE$GL_TQFL      00000160 RG    03   LOG$L_LTBL       00000004
DYN$C_CXB      = 0000001B            EXE$GL_USRCHME   00000028 RG    03   LOG$L_LTFL       00000000
DYN$C_DDB      = 00000006            EXE$GL_USRCHMK   00000024 RG    03   LOG$L_MBXUCB     00000010
DYN$C_FCB      = 00000007            EXE$GL_WCBDELBL  000000F4 RG    03   LOG$T_NAME       00000014
DYN$C_FRK      = 00000008            EXE$GL_WCBDELFL  000000F0 RG    03   LOG$W_GROUP      0000000C
DYN$C_GSD      = 00000015            EXE$GQ_ERLMBX    0000001C RG    03   LOG$W_SIZE       00000008
DYN$C_IDB      = 00000009            EXE$GQ_STAREXE   00000000 RG    03   PAGEDMEM         00000000 R     04
DYN$C_IRP      = 0000000A            EXE$GQ_SWAPF     00000010 RG    03   PERMENTRY        00000198 R     03
DYN$C_JPB      = 0000001F            EXE$GQ_SYSDMP    00000008 RG    03   PMS$GL_COMPAT    00000148 RG    03
DYN$C_KFH      = 00000026            EXE$GQ_SYSTIME   00000150 RG    03   PMS$GL_EXEC      00000138 R     03
DYN$C_KFI      = 00000018            EXE$TIMEOUT      ********   X   03   PMS$GL_INTER     00000144 R     03
DYN$C_LOG      = 0000000B            EXE$V_BUGREBOOT= 0000000D  G         PMS$GL_KERNEL    00000134 RG    03
DYN$C_MTL      = 00000019            EXE$V_CRDENABL = 00000006  G         PMS$GL_SUPER     0000013C R     03
DYN$C_MVL      = 00000016            EXE$V_FATAL_BUG= 0000000A  G         PMS$GL_USER      00000140 R     03
DYN$C_NDB      = 0000001C            EXE$V_INIT     = 00000008  G         SGN$C_BALSETCNT= 00000018
DYN$C_NET      = 00000017            EXE$V_MULTACP  = 0000000B  G         SGN$C_DFWSCNT  = 00000064
DYN$C_PBH      = 00000020            EXE$V_NOAUTOCNF= 00000001  G         SGN$C_DFWSQUOTA= 00000078
DYN$C_PCB      = 0000000C            EXE$V_NOCLOCK  = 00000005  G         SGN$C_GBLSECCNT= 00000028
DYN$C_PDB      = 00000021            EXE$V_NOCLUSTER= 0000000C  G         SGN$C_MAXGPGCNT= 00000800
DYN$C_PFL      = 00000023            EXE$V_POOLPGING= 00000003  G         SGN$C_MAXPAGCNT= 00004000
DYN$C_PIB      = 00000022            EXE$V_SBIERR   = 00000007  G         SGN$C_MAXPGFL  = 00001000
DYN$C_PQB      = 0000000D            EXE$V_SETTIME  = 00000009  G         SGN$C_MAXPSTCNT= 00000005
DYN$C_PTR      = 00000025            EXE$V_SIMULATOR= 00000004  G         SGN$C_MAXVPGCNT= 00002000
DYN$C_RVT      = 0000000E            EXE$V_SYSPAGING= 00000002  G         SGN$C_MAXWSCNT = 00000400
DYN$C_SFT      = 00000024            EXE$V_SYSUAFALT= 0000000E  G         SGN$C_MINWSCNT = 0000000A
DYN$C_SSB      = 0000001D            EXE$V_SYSWRTABL= 00000000  G         SGN$C_NPAGEDYN = 00006800
DYN$C_TQE      = 0000000F            FIL$GT_DDDEV     00000098 RG    03   SGN$C_NPROCS   = 00000040
DYN$C_TYPAHD   = 00000014            GBL...         = 00000001            SGN$C_PAGEDYN  = 00004000
DYN$C_UCB      = 00000010            IOC$GL_AQBLIST   000000B8 RG    03   SGN$C_PHYPAGCNT= 00001000
DYN$C_VCB      = 00000011            IOC$GL_DEVLIST   ********   X   03   SGN$C_SFTMAX   = 00000003
DYN$C_WCB      = 00000012            IOC$GL_DIALUP    000000C4 RG    03   SGN$C_SYSDWSCNT= 00000028
EXE$AL_NPAGEDYN  ********   X   03   IOC$GL_IRPBL     000000B4 RG    03   SGN$C_SYSVECPGS= 00000003
EXE$GL_ABSTIM    0000014C RG    03   IOC$GL_IRPFL     000000B0 RG    03   SGN$C_SYSWSCNT = 00000060
EXE$GL_CEBMTX    000001BC RG    03   IOC$GL_MUTEX     000001B8 RG    03   SWI$GL_FQBL      00000034 RG    03
EXE$GL_FLAGS     00000018 RG    03   IOC$GL_PSBL      000000AC RG    03   SWI$GL_FQFL      00000030 RG    03
EXE$GL_GPT       000001CC RG    03   IOC$GL_PSFL      000000A8 RG    03   TQE$B_EFN        00000029
EXE$GL_GSDDELBL  000000EC RG    03   IOC$GQ_BRDCST    000000C8 RG    03   TQE$B_RMOD       00000028
EXE$GL_GSDDELFL  000000E8 RG    03   IOC$GQ_MOUNTLST  000000BC RG    03   TQE$B_RQTYPE     0000000B
EXE$GL_GSDFREBL  000000E4 RG    03   IOC$GW_MAXBUF    0000012C RG    03   TQE$B_TYPE       0000000A
EXE$GL_GSDFREFL  000000E0 RG    03   IOC$GW_MBXBFQUO  0000012E RG    03   TQE$C_LENGTH     00000030
SYSCOMMON       DATA BASES                                       22-AUG-1978 00:20:01   VAX-11 MACRO X0.3-11               Page  12
SYMBOL TABLE                                                                                                                     (1)

TQE$C_SSREPT   = 00000005            WCB$W_P1_COUNT   00000024
TQE$C_SSSNGL   = 00000001            WCB$W_P2_COUNT   0000002A
TQE$C_TMSNGL   = 00000000            WCB$W_PREVCOUNT  FFFFFFFA
TQE$C_WKREPT   = 00000006            WCB$W_REFCNT     0000000E
TQE$C_WKSNGL   = 00000002            WCB$W_SIZE       00000008
TQE$K_LENGTH     00000030
TQE$L_AST        00000010
TQE$L_ASTPRM     00000014
TQE$L_FPC        0000000C
TQE$L_FR3        00000010
TQE$L_FR4        00000014
TQE$L_PID        0000000C
TQE$L_RQPID      0000002C
TQE$L_TQBL       00000004
TQE$L_TQFL       00000000
TQE$M_REPEAT   = 00000004
TQE$Q_DELTA      00000020
TQE$Q_TIME       00000018
TQE$V_REPEAT   = 00000002
TQE$W_SIZE       00000008
TTY$GL_TMRDELTA  00000190 RG    03
WCB$B_ACCESS     0000000B
WCB$B_TYPE       0000000A
WCB$C_LENGTH     00000024
WCB$C_MAP        00000024
WCB$K_LENGTH     00000024
WCB$K_MAP        00000024
WCB$L_FCB        00000018
WCB$L_LBN        00000002
WCB$L_ORGUCB     00000010
WCB$L_P1_LBN     00000026
WCB$L_P2_LBN     0000002C
WCB$L_PID        0000000C
WCB$L_PREVLBN    FFFFFFFC
WCB$L_RVT        0000001C
WCB$L_STVBN      00000020
WCB$L_WLBL       00000004
WCB$L_WLFL       00000000
WCB$M_NOTFCP   = 00000004
WCB$M_READ     = 00000001
WCB$M_SHRWCB   = 00000008
WCB$M_WRITE    = 00000002
WCB$V_DLOCK    = 00000001
WCB$V_NOREAD   = 0000000A
WCB$V_NOTFCP   = 00000002
WCB$V_NOWRITE  = 00000000
WCB$V_READ     = 00000000
WCB$V_READCK   = 00000009
WCB$V_SEQONLY  = 00000006
WCB$V_SHRWCB   = 00000003
WCB$V_SPOOL    = 00000004
WCB$V_WRITE    = 00000001
WCB$V_WRITEAC  = 00000008
WCB$V_WRITECK  = 00000005
WCB$W_ACON       00000014
WCB$W_COUNT      00000000
WCB$W_NMAP       00000016
SYSCOMMON       DATA BASES                                       22-AUG-1978 00:20:01   VAX-11 MACRO X0.3-11               Page  13
PROGRAM SECTION SYNOPSIS                                                                                                         (1)


PROGRAM SECTION SYNOPSIS

.  ABS  .        00000000      00     NOPIC   USR   CON   ABS   LCL NOSHR NOEXE NORD  NOWRT BYTE
. BLANK .        00000000      01     NOPIC   USR   CON   REL   LCL NOSHR   EXE   RD    WRT BYTE
$ABS$            FFFFFFFC      02     NOPIC   USR   CON   ABS   LCL NOSHR   EXE   RD    WRT BYTE
$$$260           000001EC      03     NOPIC   USR   CON   REL   LCL NOSHR   EXE   RD    WRT QUAD
Y$EXEPAGED       00000400      04     NOPIC   USR   CON   REL   LCL NOSHR   EXE   RD    WRT BYTE


THERE WERE NO ERRORS OR WARNINGS.
21238. BYTES LEFT IN FREE MEMORY POOL.
44. BYTES OF RECLAIMED MEMORY.
OBJ$:SYSCOMMON,LIS$:SYSCOMMON/-SP=LIB$:LIB/ML,SRC$:SYSCOMMON
2 MLB DIR RDS - 318 GETS TO DEFINE 15 MACROS. 22 INTER. FILE WRITES.
