SYSCANCEL       - SYSTEM SERVICE CANCEL I/O ON CHANNEL           21-AUG-1978 23:35:10   VAX-11 MACRO X0.3-11               Page   0
TABLE OF CONTENTS

   (1)      54  CANCEL I/O ON CHANNEL
SYSCANCEL       - SYSTEM SERVICE CANCEL I/O ON CHANNEL           21-AUG-1978 23:35:10   VAX-11 MACRO X0.3-11               Page   1
01                                                                                                                               (1)

                                     0000     1 	.TITLE	SYSCANCEL - SYSTEM SERVICE CANCEL I/O ON CHANNEL
                                     0000     2 	.IDENT	/01/
                                     0000     3
                                     0000     4 ;
                                     0000     5 ; COPYRIGHT (C) 1977
                                     0000     6 ; DIGITAL EQUIPMENT CORPORATION, MAYNARD, MASS.
                                     0000     7 ;
                                     0000     8 ; THIS SOFTWARE IS FURNISHED UNDER  A LICENSE FOR USE ONLY  ON  A
                                     0000     9 ; SINGLE COMPUTER SYSTEM AND MAY BE  COPIED ONLY WITH  THE INCLU-
                                     0000    10 ; SION OF  THE  ABOVE  COPYRIGHT NOTICE.  THIS SOFTWARE,  OR  ANY
                                     0000    11 ; OTHER COPIES THEREOF, MAY NOT BE  PROVIDED  OR  OTHERWISE  MADE
                                     0000    12 ; AVAILABLE TO ANY OTHER PERSON EXCEPT  FOR  USE  ON  SUCH SYSTEM
                                     0000    13 ; AND TO  ONE WHO AGREES  TO  THESE LICENSE  TERMS.  TITLE TO AND
                                     0000    14 ; OWNERSHIP OF THE SOFTWARE SHALL AT ALL TIMES REMAIN IN DEC.
                                     0000    15 ;
                                     0000    16 ; THE INFORMATION IN THIS SOFTWARE  IS  SUBJECT TO CHANGE WITHOUT
                                     0000    17 ; NOTICE AND SHOULD NOT BE CONSTRUED  AS  A COMMITMENT BY DIGITAL
                                     0000    18 ; EQUIPMENT CORPORATION.
                                     0000    19 ;
                                     0000    20 ; DEC ASSUMES NO RESPONSIBILITY FOR THE USE OR RELIABILITY OF ITS
                                     0000    21 ; SOFTWARE ON EQUIPMENT WHICH IS NOT SUPPLIED BY DEC.
                                     0000    22 ;
                                     0000    23 ; D. N. CUTLER 4-AUG-77
                                     0000    24 ;
                                     0000    25 ; SYSTEM SERVICE CANCEL I/O ON CHANNEL
                                     0000    26 ;
                                     0000    27 ; MACRO LIBRARY CALLS
                                     0000    28 ;
                                     0000    29
                                     0000    30 	$CADEF				;DEFINE CONDIATIONAL ASSEMBLY PARAMETERS
                                     0000    31 	$CCBDEF				;DEFINE CCB OFFSETS
                                     0000    32 	$DDBDEF				;DEFINE DDB OFFSETS
                                     0000    33 	$DDTDEF				;DEFINE DDT OFFSETS
                                     0000    34 	$DEVDEF				;DEFINE DEVICE CHARACTERISTIC BITS
                                     0000    35 	$DYNDEF				;DEFINE DATA STRUCTURE TYPE CODES
                                     0000    36 	$IODEF				;DEFINE I/O FUNCTION CODES
                                     0000    37 	$IPLDEF				;DEFINE INTERRUPT PRIORITY LEVELS
                                     0000    38 	$IRPDEF				;DEFINE IRP OFFSETS
                                     0000    39 	$PCBDEF				;DEFINE PCB OFFSETS
                                     0000    40 	$PRDEF				;DEFINE PROCESSOR REGISTERS
                                     0000    41 	$RSNDEF				;DEFINE RESOURCE WAIT NUMBERS
                                     0000    42 	$UCBDEF				;DEFINE UCB OFFSETS
                                     0000    43 	$VCBDEF				;DEFINE VCB OFFSETS
                                     0000    44 	$WCBDEF				;DEFINE WCB OFFSETS
                                     0000    45
                                     0000    46 ;
                                     0000    47 ; LOCAL SYMBOLS
                                     0000    48 ;
                                     0000    49 ; ARGUMENT LIST OFFSET DEFINITIONS
                                     0000    50 ;
                                     0000    51
                           00000004  0000    52 CHAN=4					;I/O CHANNEL NUMBER
SYSCANCEL       - SYSTEM SERVICE CANCEL I/O ON CHANNEL           21-AUG-1978 23:35:10   VAX-11 MACRO X0.3-11               Page   2
01              CANCEL I/O ON CHANNEL                                                                                            (1)

                                     0000    54 	.SBTTL	CANCEL I/O ON CHANNEL
                                     0000    55 ;+
                                     0000    56 ; EXE$CANCEL - CANCEL I/O ON CHANNEL
                                     0000    57 ;
                                     0000    58 ; THIS SERVICE CANCELS ALL I/O ISSUED TO A DEVICE FORM THE SPECIFIED CHANNEL.
                                     0000    59 ;
                                     0000    60 ; INPUTS:
                                     0000    61 ;
                                     0000    62 ;	CHAN(AP) = NUMBER OF THE I/O CHANNEL TO CANCEL I/O FOR.
                                     0000    63 ;
                                     0000    64 ;	R4 = CURRENT PROCESS PCB ADDRESS.
                                     0000    65 ;
                                     0000    66 ; OUTPUTS:
                                     0000    67 ;
                                     0000    68 ;	R0 LOW BIT CLEAR INDICATES FAILURE TO CANCEL I/O.
                                     0000    69 ;
                                     0000    70 ;		SS$_EXQUOTA - DIRECT I/O QUOTA EXCEEDED WHILE TRYING TO
                                     0000    71 ;			CANCEL FILE I/O.
                                     0000    72 ;
                                     0000    73 ;		SS$_INSFMEM - INSUFFICIENT MEMORY AVAILABLE TO ALLOCATE I/O
                                     0000    74 ;			PACKET.
                                     0000    75 ;
                                     0000    76 ;		SS$_IVCHAN - INVALID CHANNEL NUMBER SPECIFIED.
                                     0000    77 ;
                                     0000    78 ;		SS$_NOPRIV - SPECIFIED CHANNEL IS NOT ASSIGNED TO A DEVICE
                                     0000    79 ;			OR THE CALLER DOES NOT HAVE SUFFICIENT PRIVILEGE TO
                                     0000    80 ;			ACCESS THE CHANNEL.
                                     0000    81 ;
                                     0000    82 ;	R0 LOW BIT SET INDICATES SUCCESSFUL COMPLETION.
                                     0000    83 ;
                                     0000    84 ;		SS$_NORMAL - NORMAL COMPLETION.
                                     0000    85 ;-
                                     0000    86
                               00FC' 0000    87 	.ENTRY	EXE$CANCEL,^M<R2,R3,R4,R5,R6,R7>
            50         04 AC     3C  0002    88 	MOVZWL	CHAN(AP),R0		;GET I/O CHANNEL NUMBER
                          FFF7'  30  0006    89 	BSBW	IOC$VERIFYCHAN		;VERIFY I/O CHANNEL NUMBER
            57            52     D0  0009    90 	MOVL	R2,R7			;SAVE CHANNEL INDEX
            56            51     D0  000C    91 	MOVL	R1,R6			;SAVE ADDRESS OF CCB
            7F            50     E9  000F    92 	BLBC	R0,70$			;IF LBC INVALID CHANNEL
            55            66     D0  0012    93 	MOVL	CCB$L_UCB(R6),R5	;GET ASSIGNED DEVICE UCB ADDRESS
                          7E     DC  0015    94 10$:	MOVPSL	-(SP)			;SAVE CURRENT PROCESSOR STATUS
                                     0017    95 	SETIPL	#IPL$_ASTDEL		;RAISE TO AST DELIVERY LEVEL
                       0A A6     B5  001A    96 	TSTW	CCB$W_IOC(R6)		;ANY I/O OUTSTANDING?
                          48     13  001D    97 	BEQL	40$			;IF EQL NO
            53         40 A5     9E  001F    98 	MOVAB	UCB$L_IOQFL(R5),R3	;GET ADDRESS OF I/O QUEUE LISTHEAD
            52            53     D0  0023    99 	MOVL	R3,R2			;COPY ADDRESS OF I/O QUEUE LISTHEAD
                                     0026   100 	SETIPL	UCB$B_FIPL(R5)		;RAISE TO DRIVER FORK IPL
            52            62     D0  002A   101 20$:	MOVL	IRP$L_IOQFL(R2),R2	;GET ADDRESS OF NEXT I/O PACKET IN QUEUE
            53            52     D1  002D   102 	CMPL	R2,R3			;END OF QUEUE?
                          35     13  0030   103 	BEQL	40$			;IF EQL YES
         2A A2            04     E0  0032   104 	BBS	#IRP$V_VIRTUAL,IRP$W_STS(R2),20$ ;IF SET, VIRTUAL I/O REQUEST
                          F3         0036
         60 A4         0C A2     D1  0037   105 	CMPL	IRP$L_PID(R2),PCB$L_PID(R4) ;PROCESS ID MATCH?
                          EC     12  003C   106 	BNEQ	20$			;IF NEQ NO
         28 A2            57     B1  003E   107 	CMPW	R7,IRP$W_CHAN(R2)	;I/O CHANNEL NUMBER MATCH?
                          E6     12  0042   108 	BNEQ	20$			;IF NEQ NO
            52         04 A2     D0  0044   109 	MOVL	IRP$L_IOQBL(R2),R2	;GET BACKWARD LINK OF CURRENT ENTRY
SYSCANCEL       - SYSTEM SERVICE CANCEL I/O ON CHANNEL           21-AUG-1978 23:35:10   VAX-11 MACRO X0.3-11               Page   3
01              CANCEL I/O ON CHANNEL                                                                                            (1)

            51         00 B2     0F  0048   110 	REMQUE	@IRP$L_IOQFL(R2),R1	;REMOVE I/O PACKET FROM QUEUE
         2A A1            00     E1  004C   111 	BBC	#IRP$V_BUFIO,IRP$W_STS(R1),30$ ;IF CLR, DIRECT I/O REQUEST
                          04         0050
         2A A1            02     AA  0051   112 	BICW	#IRP$M_FUNC,IRP$W_STS(R1) ;CLEAR BUFFERED READ
         34 A1       0000'8F     3C  0055   113 30$:	MOVZWL	#SS$_CANCEL,IRP$L_MEDIA(R1) ;SET COMPLETION STATUS
       0000'DF            61     0E  005B   114 	INSQUE	IRP$L_IOQFL(R1),@W^IOC$GL_PSBL ;INSERT PACKET IN POST PROCESS QUEUE
                          C8     12  0060   115 	BNEQ	20$			;IF NEQ NOT FIRST ENTRY IN QUEUE
                                     0062   116 	SOFTINT	#IPL$_IOPOST		;INITIATE SOFTWARE INTERRUPT
                          C3     11  0065   117 	BRB	20$			;
                                     0067   118 40$:	SETIPL	UCB$B_FIPL(R5)		;RAISE TO DRIVER FORK LEVEL
            50         24 A5     D0  006B   119 	MOVL	UCB$L_DDB(R5),R0	;GET ADDRESS OF DDB
            50         0C A0     D0  006F   120 	MOVL	DDB$L_DDT(R0),R0	;GET ADDRESS OF DDT
            50         0C A0     D0  0073   121 	MOVL	DDT$L_CANCEL(R0),R0	;GET ADDRESS OF CANCEL I/O ENTRY POINT
                          09     13  0077   122 	BEQL	50$			;IF EQL NONE
            53         4C A5     D0  0079   123 	MOVL	UCB$L_IRP(R5),R3	;GET CURRENT I/O PACKET ADDRESS
            52            57     D0  007D   124 	MOVL	R7,R2			;SET CHANNEL INDEX
                          60     16  0080   125 	JSB	(R0)			;CALL DRIVER AT CANCEL I/O ENTRY POINT
            51            00'    3C  0082   126 50$:	MOVZWL	S^#SS$_NORMAL,R1	;SET NORMAL COMPLETION
            50         04 A6     D0  0085   127 	MOVL	CCB$L_WIND(R6),R0	;FILE ACCESSED?
                          07     19  0089   128 	BLSS	80$			;IF LSS YES
            50            51     D0  008B   129 60$:	MOVL	R1,R0			;SET COMPLETION STATUS
                                     008E   130 	SETIPL	#0			;ALLOW INTERRUPTS
                                 04  0091   131 70$:	RET				;
         0B A0            02     E0  0092   132 80$:	BBS	#WCB$V_NOTFCP,WCB$B_ACCESS(R0),60$ ;IF SET, NOT FCP ACCESS
                          F4         0096
         34 A5            13     E1  0097   133 	BBC	#DEV$V_MNT,UCB$L_DEVCHAR(R5),60$ ;IF CLR, DEVICE DISMOUNTED
                          EF         009B
            51       0000'8F     3C  009C   134 	MOVZWL	#SS$_EXQUOTA,R1		;SET EXCEEDED QUOTA STATUS
            50            01     3C  00A1   135 	MOVZWL	#RSN$_ASTWAIT,R0	;SET AST WAIT RESOURCE WAIT NUMBER
                       44 A4     B5  00A4   136 	TSTW	PCB$W_DIOCNT(R4)	;DIRECT I/O QUOTA EXCEEDED?
                          12     15  00A7   137 	BLEQ	90$			;IF LEQ YES
            51         4C 8F     9A  00A9   138 	MOVZBL	#IRP$C_LENGTH,R1	;SET LENGTH OF I/O PACKET
                          FF50'  30  00AD   139 	BSBW	EXE$ALONONPAGED		;ALLOCATE I/O PACKET
            13            50     E8  00B0   140 	BLBS	R0,100$			;IF LBS SUCCESSFUL ALLOCATION
            51       0000'8F     3C  00B3   141 	MOVZWL	#SS$_INSFMEM,R1		;SET INSUFFICIENT MEMORY STATUS
            50            03     3C  00B8   142 	MOVZWL	#RSN$_NPDYNMEM,R0	;SET NONPAGED DYNAMIC MEMORY RESOURCE NUMBER
         28 A4            0A     E0  00BB   143 90$:	BBS	#PCB$V_SSRWAIT,PCB$L_STS(R4),60$ ;IF SET, NO WAIT
                          CB         00BF
                          FF3D'  30  00C0   144 	BSBW	SCH$RWAIT		;WAIT FOR RESOURCE
                          FF4F   31  00C3   145 	BRW	10$			;TRY AGAIN
                       44 A4     B7  00C6   146 100$:	DECW	PCB$W_DIOCNT(R4)	;UPDATE DIRECT I/O COUNT
                       0A A6     B6  00C9   147 	INCW	CCB$W_IOC(R6)		;INCREMENT I/O COUNT
            53            52     D0  00CC   148 	MOVL	R2,R3			;COPY ADDRESS OF I/O PACKET
            52            08     C0  00CF   149 	ADDL	#IRP$W_SIZE,R2		;CALCULATE ADDRESS OF PACKET SIZE
            82         4C 8F     9B  00D2   150 	MOVZBW	#IRP$C_LENGTH,(R2)+	;INSERT SIZE OF I/O REQUEST PACKET
            82            0A     9B  00D6   151 	MOVZBW	#DYN$C_IRP,(R2)+	;INSERT DATA STRUCTURE TYPE AND ZERO MODE
            82         60 A4     D0  00D9   152 	MOVL	PCB$L_PID(R4),(R2)+	;INSERT CURRENT PROCESS ID
                          82     7C  00DD   153 	CLRQ	(R2)+			;CLEAR AST ADDRESS AND PARAMETER
            82         04 A6     D0  00DF   154 	MOVL	CCB$L_WIND(R6),(R2)+	;INSERT ADDRESS OF WINDOW
            82            55     D0  00E3   155 	MOVL	R5,(R2)+		;INSERT DEVICE UCB ADDRESS
            82            38     B0  00E6   156 	MOVW	#IO$_ACPCONTROL,(R2)+	;INSERT I/O FUNCTION CODE
            82            1F     90  00E9   157 	MOVB	#31,(R2)+		;SET EVENT FLAG NUMBER
            82         33 A4     90  00EC   158 	MOVB	PCB$B_PRIB(R4),(R2)+	;INSERT PROCESS BASE PRIORITY
                          82     D4  00F0   159 	CLRL	(R2)+			;CLEAR I/O STATUS BLOCK ADDRESS
            82            57     3C  00F2   160 	MOVZWL	R7,(R2)+		;INSERT CHANNEL NUMBER AND CLEAR STATUS
                          82     7C  00F5   161 	CLRQ	(R2)+			;CLEAR BUFFER PARAMETERS
            50         30 A5     D0  00F7   162 	MOVL	UCB$L_VCB(R5),R0	;GET ADDRESS OF VCB
SYSCANCEL       - SYSTEM SERVICE CANCEL I/O ON CHANNEL           21-AUG-1978 23:35:10   VAX-11 MACRO X0.3-11               Page   4
01              CANCEL I/O ON CHANNEL                                                                                            (1)

                       0C A0     B6  00FB   163 	INCW	VCB$W_TRANS(R0)		;UPDATE TRANSACTION COUNT
                                     00FE   164
                                     00FE   165 	.IF DF	CA$_MEASURE_IOT
                                     00FE   166
            52            53     D0  00FE   167 	MOVL	R3,R2			;SET ADDRESS OF I/O REQUEST PACKET
                          FEFC'  30  0101   168 	BSBW	PMS$START_RQ		;INSERT START OF I/O REQUEST MESSAGE
                                     0104   169
                                     0104   170 	.ENDC
                                     0104   171
                          FEF9'  31  0104   172 	BRW	EXE$QIOACPPKT		;QUEUE ACP PACKET
                                     0107   173
                                     0107   174 	.END
SYSCANCEL       - SYSTEM SERVICE CANCEL I/O ON CHANNEL           21-AUG-1978 23:35:10   VAX-11 MACRO X0.3-11               Page   5
SYMBOL TABLE                                                                                                                     (1)

BIT...         = 0000000B            DEV$V_AVL      = 00000012            DYN$C_TQE      = 0000000F
CA$_MEASURE    = 00000002            DEV$V_CCL      = 00000001            DYN$C_TYPAHD   = 00000014
CA$_MEASURE_IOT= 00000004            DEV$V_DIR      = 00000003            DYN$C_UCB      = 00000010
CA$_SIMULATOR  = 00000001            DEV$V_DMT      = 00000015            DYN$C_VCB      = 00000011
CCB$B_AMOD       00000009            DEV$V_ELG      = 00000016            DYN$C_WCB      = 00000012
CCB$B_STS        00000008            DEV$V_FOD      = 0000000E            EXE$ALONONPAGED  ********   X   01
CCB$C_LENGTH     00000010            DEV$V_FOR      = 00000018            EXE$CANCEL       00000000 RG    01
CCB$K_LENGTH     00000010            DEV$V_GEN      = 00000011            EXE$QIOACPPKT    ********   X   01
CCB$L_DIRP       0000000C            DEV$V_IDV      = 0000001A            GBL...         = 00000000
CCB$L_UCB        00000000            DEV$V_MBX      = 00000014            IO$M_ABORT     = 00000100
CCB$L_WIND       00000004            DEV$V_MNT      = 00000013            IO$M_ACCESS    = 00000040
CCB$W_IOC        0000000A            DEV$V_NET      = 0000000D            IO$M_ATTNAST   = 00000100
CHAN           = 00000004            DEV$V_ODV      = 0000001B            IO$M_BINARY    = 00000040
DDB$B_ACPCLASS   00000013            DEV$V_RCK      = 0000001E            IO$M_CANCTRLO  = 00000040
DDB$B_TYPE       0000000A            DEV$V_REC      = 00000000            IO$M_COMMOD    = 00000040
DDB$C_LENGTH     00000014            DEV$V_RND      = 0000001C            IO$M_CREATE    = 00000080
DDB$K_LENGTH     00000014            DEV$V_RTM      = 0000001D            IO$M_CTRLCAST  = 00000100
DDB$L_ACPD       00000010            DEV$V_SDI      = 00000004            IO$M_CTRLYAST  = 00000080
DDB$L_DDT        0000000C            DEV$V_SHR      = 00000010            IO$M_CVTLOW    = 00000100
DDB$L_LINK       00000000            DEV$V_SPL      = 00000006            IO$M_DATACHECK = 00004000
DDB$L_UCB        00000004            DEV$V_SQD      = 00000005            IO$M_DELETE    = 00000100
DDB$T_NAME       00000014            DEV$V_SWL      = 00000019            IO$M_DMOUNT    = 00000400
DDB$W_SIZE       00000008            DEV$V_TRM      = 00000002            IO$M_DSABLMBX  = 00000400
DDT$L_CANCEL     0000000C            DEV$V_WCK      = 0000001F            IO$M_ENABLMBX  = 00000080
DDT$L_FDT        00000008            DYN$C_ACB      = 00000002            IO$M_FCODE     = 0000003F
DDT$L_INIT       00000018            DYN$C_ADP      = 00000001            IO$M_HANGUP    = 00000200
DDT$L_REGDUMP    00000010            DYN$C_AQB      = 00000003            IO$M_INHERLOG  = 00000800
DDT$L_START      00000000            DYN$C_BRDCST   = 0000001A            IO$M_INHEXTGAP = 00001000
DDT$L_UNSOLINT   00000004            DYN$C_BUFIO    = 00000013            IO$M_INHRETRY  = 00008000
DDT$W_DIAGBUF    00000014            DYN$C_CEB      = 00000004            IO$M_INHSEEK   = 00001000
DDT$W_ERRORBUF   00000016            DYN$C_CIR      = 0000001E            IO$M_INTERRUPT = 00000040
DEV$M_ALL      = 00800000            DYN$C_CRB      = 00000005            IO$M_MOUNT     = 00000200
DEV$M_AVL      = 00040000            DYN$C_CXB      = 0000001B            IO$M_NOECHO    = 00000040
DEV$M_CCL      = 00000002            DYN$C_DDB      = 00000006            IO$M_NOFILTR   = 00000200
DEV$M_DIR      = 00000008            DYN$C_FCB      = 00000007            IO$M_NOFORMAT  = 00000100
DEV$M_DMT      = 00200000            DYN$C_FRK      = 00000008            IO$M_NOW       = 00000040
DEV$M_ELG      = 00400000            DYN$C_GSD      = 00000015            IO$M_NOWAIT    = 00000080
DEV$M_FOD      = 00004000            DYN$C_IDB      = 00000009            IO$M_PACKED    = 00000080
DEV$M_FOR      = 01000000            DYN$C_IRP      = 0000000A            IO$M_PURGE     = 00000800
DEV$M_GEN      = 00020000            DYN$C_JPB      = 0000001F            IO$M_READATTN  = 00000080
DEV$M_IDV      = 04000000            DYN$C_KFH      = 00000026            IO$M_REVERSE   = 00000040
DEV$M_MBX      = 00100000            DYN$C_KFI      = 00000018            IO$M_SHUTDOWN  = 00000080
DEV$M_MNT      = 00080000            DYN$C_LOG      = 0000000B            IO$M_STARTUP   = 00000040
DEV$M_NET      = 00002000            DYN$C_MTL      = 00000019            IO$M_SYNCH     = 00000200
DEV$M_ODV      = 08000000            DYN$C_MVL      = 00000016            IO$M_TIMED     = 00000080
DEV$M_RCK      = 40000000            DYN$C_NDB      = 0000001C            IO$M_TRMNOECHO = 00001000
DEV$M_REC      = 00000001            DYN$C_NET      = 00000017            IO$M_WRTATTN   = 00000100
DEV$M_RND      = 10000000            DYN$C_PBH      = 00000020            IO$S_FCODE     = 00000006
DEV$M_RTM      = 20000000            DYN$C_PCB      = 0000000C            IO$V_ABORT     = 00000008
DEV$M_SDI      = 00000010            DYN$C_PDB      = 00000021            IO$V_ACCESS    = 00000006
DEV$M_SHR      = 00010000            DYN$C_PFL      = 00000023            IO$V_ATTNAST   = 00000008
DEV$M_SPL      = 00000040            DYN$C_PIB      = 00000022            IO$V_BINARY    = 00000006
DEV$M_SQD      = 00000020            DYN$C_PQB      = 0000000D            IO$V_CANCTRLO  = 00000006
DEV$M_SWL      = 02000000            DYN$C_PTR      = 00000025            IO$V_COMMOD    = 00000006
DEV$M_TRM      = 00000004            DYN$C_RVT      = 0000000E            IO$V_CREATE    = 00000007
DEV$M_WCK      = 80000000            DYN$C_SFT      = 00000024            IO$V_CTRLCAST  = 00000008
DEV$V_ALL      = 00000017            DYN$C_SSB      = 0000001D            IO$V_CTRLYAST  = 00000007
SYSCANCEL       - SYSTEM SERVICE CANCEL I/O ON CHANNEL           21-AUG-1978 23:35:10   VAX-11 MACRO X0.3-11               Page   6
SYMBOL TABLE                                                                                                                     (1)

IO$V_CVTLOW    = 00000008            IO$_SEEK       = 00000002            IRP$M_COMPLX   = 00000008
IO$V_DATACHECK = 0000000E            IO$_SENSECHAR  = 0000001B            IRP$M_DIAGBUF  = 00000080
IO$V_DELETE    = 00000008            IO$_SENSEMODE  = 00000027            IRP$M_FUNC     = 00000002
IO$V_DMOUNT    = 0000000A            IO$_SETCHAR    = 0000001A            IRP$M_PAGIO    = 00000004
IO$V_DSABLMBX  = 0000000A            IO$_SETMODE    = 00000023            IRP$M_PHYSIO   = 00000100
IO$V_ENABLMBX  = 00000007            IO$_SKIPFILE   = 00000025            IRP$M_PRIVIO   = 00000200
IO$V_FCODE     = 00000000            IO$_SKIPRECORD = 00000026            IRP$M_SWAPIO   = 00000040
IO$V_HANGUP    = 00000009            IO$_SPACEFILE  = 00000002            IRP$M_VIRTUAL  = 00000010
IO$V_INHERLOG  = 0000000B            IO$_SPACERECORD= 00000009            IRP$S_FCODE    = 00000006
IO$V_INHEXTGAP = 0000000C            IO$_STARTSPNDL = 00000019            IRP$S_FMOD     = 0000000A
IO$V_INHRETRY  = 0000000F            IO$_UNLOAD     = 00000001            IRP$S_MODE     = 00000002
IO$V_INHSEEK   = 0000000C            IO$_VIRTUAL    = 0000003F            IRP$V_BUFIO    = 00000000
IO$V_INTERRUPT = 00000006            IO$_WRITECHECK = 0000000A            IRP$V_CHAINED  = 00000005
IO$V_MOUNT     = 00000009            IO$_WRITECHECKH= 00000018            IRP$V_COMPLX   = 00000003
IO$V_NOECHO    = 00000006            IO$_WRITEHEAD  = 0000000D            IRP$V_DIAGBUF  = 00000007
IO$V_NOFILTR   = 00000009            IO$_WRITELBLK  = 00000020            IRP$V_FCODE    = 00000000
IO$V_NOFORMAT  = 00000008            IO$_WRITEMARK  = 0000001C            IRP$V_FMOD     = 00000006
IO$V_NOW       = 00000006            IO$_WRITEOF    = 00000028            IRP$V_FUNC     = 00000001
IO$V_NOWAIT    = 00000007            IO$_WRITEPBLK  = 0000000B            IRP$V_MODE     = 00000000
IO$V_PACKED    = 00000007            IO$_WRITETRACKD= 0000000F            IRP$V_PAGIO    = 00000002
IO$V_PURGE     = 0000000B            IO$_WRITEVBLK  = 00000030            IRP$V_PHYSIO   = 00000008
IO$V_READATTN  = 00000007            IOC$GL_PSBL      ********   X   01   IRP$V_PRIVIO   = 00000009
IO$V_REVERSE   = 00000006            IOC$VERIFYCHAN   ********   X   01   IRP$V_SWAPIO   = 00000006
IO$V_SHUTDOWN  = 00000007            IPL$_ASTDEL    = 00000002            IRP$V_VIRTUAL  = 00000004
IO$V_STARTUP   = 00000006            IPL$_HWCLK     = 00000018            IRP$W_ABCNT      0000003C
IO$V_SYNCH     = 00000009            IPL$_IOPOST    = 00000004            IRP$W_BCNT       00000032
IO$V_TIMED     = 00000007            IPL$_MAILBOX   = 0000000B            IRP$W_BOFF       00000030
IO$V_TRMNOECHO = 0000000C            IPL$_POWER     = 0000001F            IRP$W_CHAN       00000028
IO$V_WRTATTN   = 00000008            IPL$_QUEUEAST  = 00000006            IRP$W_FUNC       00000020
IO$_ACCESS     = 00000032            IPL$_SCHED     = 00000003            IRP$W_OBCNT      0000003E
IO$_ACPCONTROL = 00000038            IPL$_SYNCH     = 00000007            IRP$W_SIZE       00000008
IO$_CREATE     = 00000033            IPL$_TIMER     = 00000007            IRP$W_STS        0000002A
IO$_DEACCESS   = 00000034            IRP$B_CARCON     00000038            IRP$W_TT_PRMPT   0000003C
IO$_DELETE     = 00000035            IRP$B_EFN        00000022            PCB$B_ASTACT     0000000C
IO$_DIAGNOSE   = 0000001D            IRP$B_PRI        00000023            PCB$B_ASTEN      0000000D
IO$_DRVCLR     = 00000004            IRP$B_RMOD       0000000B            PCB$B_PRI        0000000B
IO$_ERASETAPE  = 00000006            IRP$B_TYPE       0000000A            PCB$B_PRIB       00000033
IO$_LOGICAL    = 0000002F            IRP$C_LENGTH     0000004C            PCB$B_TYPE       0000000A
IO$_MODIFY     = 00000036            IRP$K_LENGTH     0000004C            PCB$B_WEFC       00000032
IO$_MOUNT      = 00000039            IRP$L_AST        00000010            PCB$C_LENGTH     0000007C
IO$_NOP        = 00000000            IRP$L_ASTPRM     00000014            PCB$K_LENGTH     0000007C
IO$_OFFSET     = 00000006            IRP$L_DIAGBUF    00000044            PCB$L_ASTQBL     00000014
IO$_PACKACK    = 00000008            IRP$L_IOQBL      00000004            PCB$L_ASTQFL     00000010
IO$_PHYSICAL   = 0000001F            IRP$L_IOQFL      00000000            PCB$L_EFC2P      00000058
IO$_READHEAD   = 0000000E            IRP$L_IOSB       00000024            PCB$L_EFC3P      0000005C
IO$_READLBLK   = 00000021            IRP$L_IOST1      00000034            PCB$L_EFCS       00000050
IO$_READPBLK   = 0000000C            IRP$L_IOST2      00000038            PCB$L_EFCU       00000054
IO$_READPRESET = 00000019            IRP$L_MEDIA      00000034            PCB$L_EFWM       0000004C
IO$_READPROMPT = 00000037            IRP$L_PID        0000000C            PCB$L_OWNER      0000001C
IO$_READTRACKD = 00000010            IRP$L_SEGVBN     00000040            PCB$L_PHD        00000064
IO$_READVBLK   = 00000031            IRP$L_SEQNUM     00000048            PCB$L_PHYPCB     00000018
IO$_RECAL      = 00000003            IRP$L_SVAPTE     0000002C            PCB$L_PID        00000060
IO$_RELEASE    = 00000005            IRP$L_TT_TERM    00000038            PCB$L_PQB        0000004C
IO$_RETCENTER  = 00000007            IRP$L_UCB        0000001C            PCB$L_SQBL       00000004
IO$_REWIND     = 00000024            IRP$L_WIND       00000018            PCB$L_SQFL       00000000
IO$_REWINDOFF  = 00000022            IRP$M_BUFIO    = 00000001            PCB$L_STS        00000028
IO$_SEARCH     = 00000009            IRP$M_CHAINED  = 00000020            PCB$L_UIC        00000020
SYSCANCEL       - SYSTEM SERVICE CANCEL I/O ON CHANNEL           21-AUG-1978 23:35:10   VAX-11 MACRO X0.3-11               Page   7
SYMBOL TABLE                                                                                                                     (1)

PCB$L_WSSWP      00000024            PR$_P1BR       = 0000000A            UCB$B_SLAVE      00000074
PCB$L_WTIME      0000002C            PR$_P1LR       = 0000000B            UCB$B_SPR        00000075
PCB$T_LNAME      0000006C            PR$_PCBB       = 00000010            UCB$B_STATE      00000052
PCB$V_ASTPEN   = 00000011            PR$_RXCS       = 00000020            UCB$B_TRACKS     0000003D
PCB$V_BATCH    = 0000000E            PR$_RXDB       = 00000021            UCB$B_TYPE       0000000A
PCB$V_DELPEN   = 00000001            PR$_SBIER      = 00000034            UCB$B_VERTSZ     0000003F
PCB$V_FORCPEN  = 00000002            PR$_SBIFS      = 00000030            UCB$C_LENGTH     00000074
PCB$V_HIBER    = 00000013            PR$_SBIMT      = 00000033            UCB$C_LOGLNK   = 00000001
PCB$V_INQUAN   = 00000003            PR$_SBIQC      = 00000036            UCB$K_LENGTH     00000074
PCB$V_LOGIN    = 00000014            PR$_SBIS       = 00000031            UCB$L_AMB        00000054
PCB$V_NOACNT   = 0000000F            PR$_SBISC      = 00000032            UCB$L_ASTQBL     00000010
PCB$V_PHDRES   = 00000012            PR$_SBITA      = 00000035            UCB$L_ASTQFL     0000000C
PCB$V_PSWAPM   = 00000004            PR$_SBR        = 0000000C            UCB$L_CPID       0000005C
PCB$V_RES      = 00000000            PR$_SCBB       = 00000011            UCB$L_CRB        00000020
PCB$V_RESPEN   = 00000005            PR$_SID        = 0000003E            UCB$L_DDB        00000024
PCB$V_SSFEXC   = 00000006            PR$_SIRR       = 00000014            UCB$L_DEVCHAR    00000034
PCB$V_SSFEXCE  = 00000007            PR$_SISR       = 00000015            UCB$L_DEVDEPEND  0000003C
PCB$V_SSFEXCS  = 00000008            PR$_SLR        = 0000000D            UCB$L_DPC        0000007C
PCB$V_SSFEXCU  = 00000009            PR$_SSP        = 00000002            UCB$L_DUETIM     0000005C
PCB$V_SSRWAIT  = 0000000A            PR$_TBIA       = 00000039            UCB$L_DX_BFPNT   FFFFFFF4
PCB$V_SUSPEN   = 0000000B            PR$_TBIS       = 0000003A            UCB$L_DX_BUF     FFFFFFF0
PCB$V_SWPVBN   = 00000010            PR$_TODR       = 0000001B            UCB$L_DX_RXDB    FFFFFFF8
PCB$V_WAKEPEN  = 0000000C            PR$_TXCS       = 00000022            UCB$L_EMB        00000078
PCB$V_WALL     = 0000000D            PR$_TXDB       = 00000023            UCB$L_FIRST      00000014
PCB$W_APTCNT     00000034            PR$_USP        = 00000003            UCB$L_FPC        0000000C
PCB$W_ASTCNT     0000003C            PR$_WCSA       = 0000002C            UCB$L_FQBL       00000004
PCB$W_BIOCNT     0000003E            PR$_WCSD       = 0000002D            UCB$L_FQFL       00000000
PCB$W_BIOLM      00000040            RSN$_ASTWAIT   = 00000001            UCB$L_FR3        00000010
PCB$W_BYTCNT     00000042            RSN$_BRKTHRU   = 00000006            UCB$L_FR4        00000014
PCB$W_BYTLM      00000068            RSN$_MAILBOX   = 00000002            UCB$L_IOQBL      00000044
PCB$W_DIOCNT     00000044            RSN$_NPDYNMEM  = 00000003            UCB$L_IOQFL      00000040
PCB$W_DIOLM      00000046            RSN$_PGDYNMEM  = 00000005            UCB$L_IRP        0000004C
PCB$W_FILCNT     00000048            RSN$_PGFILE    = 00000004            UCB$L_LINK       0000002C
PCB$W_GPGCNT     00000038            SCH$RWAIT        ********   X   01   UCB$L_LOGADR     00000064
PCB$W_GRP        00000022            SS$_CANCEL       ********   X   01   UCB$L_MAXBLOCK   00000080
PCB$W_MEM        00000020            SS$_EXQUOTA      ********   X   01   UCB$L_MEDIA      00000088
PCB$W_MTXCNT     0000000E            SS$_INSFMEM      ********   X   01   UCB$L_NT_DATSSB  00000074
PCB$W_PPGCNT     0000003A            SS$_NORMAL       ********   X   01   UCB$L_NT_INTSSB  00000078
PCB$W_PRCCNT     0000006A            UCB$B_AMOD       00000053            UCB$L_OPCNT      00000060
PCB$W_SIZE       00000008            UCB$B_CEX        00000077            UCB$L_OWNUIC     0000001C
PCB$W_STATE      00000030            UCB$B_CM1        0000004A            UCB$L_PID        00000028
PCB$W_TMBU       00000036            UCB$B_CM2        0000004B            UCB$L_RQBL       00000004
PCB$W_TQCNT      0000004A            UCB$B_DEVCLASS   00000038            UCB$L_RQFL       00000000
PMS$START_RQ     ********   X   01   UCB$B_DEVTYPE    00000039            UCB$L_SVAPTE     00000068
PR$_ACCR       = 00000029            UCB$B_DIPL       00000052            UCB$L_SVPN       00000064
PR$_ACCS       = 00000028            UCB$B_DX_SCTCNT  FFFFFFFE            UCB$L_TTCHAR     0000003C
PR$_ASTLVL     = 00000013            UCB$B_DX_SPARE   FFFFFFFF            UCB$L_VCB        00000030
PR$_ESP        = 00000001            UCB$B_ERTCNT     00000070            UCB$M_BSY      = 00000100
PR$_ICCS       = 00000018            UCB$B_ERTMAX     00000071            UCB$M_CANCEL   = 00000008
PR$_ICR        = 0000001A            UCB$B_ESCAPE     0000004B            UCB$M_DEADMO   = 00000400
PR$_IPL        = 00000012            UCB$B_FEX        00000076            UCB$M_DELMBX   = 00000002
PR$_ISP        = 00000004            UCB$B_FIPL       0000000B            UCB$M_DIAGBUF  = 00000002
PR$_KSP        = 00000000            UCB$B_LOCSRV     0000003C            UCB$M_DX_WRITE = 00000008
PR$_MAPEN      = 00000038            UCB$B_OFFNDX     00000090            UCB$M_ECC      = 00000001
PR$_NICR       = 00000019            UCB$B_OFFRTC     00000091            UCB$M_ERLOGIP  = 00000004
PR$_P0BR       = 00000008            UCB$B_REMSRV     0000003D            UCB$M_INT      = 00000002
PR$_P0LR       = 00000009            UCB$B_SECTORS    0000003C            UCB$M_INTTYPE  = 00000080
SYSCANCEL       - SYSTEM SERVICE CANCEL I/O ON CHANNEL           21-AUG-1978 23:35:10   VAX-11 MACRO X0.3-11               Page   8
SYMBOL TABLE                                                                                                                     (1)

UCB$M_JOB      = 00000001            UCB$W_CYLINDERS  0000003E            VCB$L_USRLBLAST  00000044
UCB$M_MOUNTING = 00000200            UCB$W_DA         00000088            VCB$L_VPBL       00000040
UCB$M_NOCNVRT  = 00000004            UCB$W_DC         0000008A            VCB$L_VPFL       0000003C
UCB$M_NT_BFROVF= 00000004            UCB$W_DEVBUFSIZ  0000003A            VCB$L_WCB        00000038
UCB$M_NT_BREAK = 00000020            UCB$W_DEVSTS     0000005A            VCB$M_CANCELIO = 00000020
UCB$M_NT_NAME  = 00000010            UCB$W_DSTADDR    00000018            VCB$M_MUSTCLOSE= 00000040
UCB$M_NT_NONTR = 00000040            UCB$W_DX_BCR     FFFFFFFC            VCB$M_WAIMOUVOL= 00000004
UCB$M_NT_SDP   = 00000008            UCB$W_EC1        0000008C            VCB$M_WAIREWIND= 00000008
UCB$M_ONLINE   = 00000010            UCB$W_EC2        0000008E            VCB$M_WAIUSRLBL= 00000010
UCB$M_POWER    = 00000020            UCB$W_ERRCNT     00000072            VCB$T_VOLNAME    00000014
UCB$M_PRMMBX   = 00000001            UCB$W_FUNC       00000084            VCB$V_CANCELIO = 00000005
UCB$M_TIM      = 00000001            UCB$W_MB_SEED    FFFFFFFC            VCB$V_EBCDIC   = 00000005
UCB$M_TIMOUT   = 00000040            UCB$W_MSGCNT     00000016            VCB$V_EXTFID   = 00000005
UCB$M_TT_NOTIF = 00000004            UCB$W_MSGMAX     00000014            VCB$V_GROUP    = 00000006
UCB$M_TT_TIMO  = 00000002            UCB$W_NT_CHAN    0000007C            VCB$V_INTCHG   = 00000004
UCB$M_VALID    = 00000800            UCB$W_OFFSET     00000086            VCB$V_LOGICEOVS= 00000001
UCB$S_LNKPRI   = 00000002            UCB$W_REFC       00000050            VCB$V_MUSTCLOSE= 00000006
UCB$S_LTYPE    = 00000002            UCB$W_SIZE       00000008            VCB$V_OVRACC   = 00000001
UCB$T_PARTNER    0000000C            UCB$W_SRCADDR    0000001A            VCB$V_OVREXP   = 00000000
UCB$V_BACKP    = 00000005            UCB$W_STS        00000058            VCB$V_OVRLBL   = 00000002
UCB$V_BSY      = 00000008            UCB$W_UNIT       00000048            VCB$V_OVRSETID = 00000003
UCB$V_CANCEL   = 00000003            UCB$W_VPROT      0000001A            VCB$V_PARTFILE = 00000000
UCB$V_DEADMO   = 0000000A            VCB$B_CUR_RVN    0000002F            VCB$V_STARFILE = 00000008
UCB$V_DELMBX   = 00000001            VCB$B_EOFDELTA   0000004E            VCB$V_SYSTEM   = 00000007
UCB$V_DIAGBUF  = 00000001            VCB$B_IBMAPSIZE  00000038            VCB$V_WAIMOUVOL= 00000002
UCB$V_DX_WRITE = 00000003            VCB$B_IBMAPVBN   0000003A            VCB$V_WAIREWIND= 00000003
UCB$V_ECC      = 00000000            VCB$B_LRU_LIM    00000049            VCB$V_WAIUSRLBL= 00000004
UCB$V_ERLOGIP  = 00000002            VCB$B_RESFILES   0000004F            VCB$V_WRITE_IF = 00000000
UCB$V_INT      = 00000001            VCB$B_SBMAPSIZE  00000039            VCB$V_WRITE_SM = 00000001
UCB$V_INTTYPE  = 00000007            VCB$B_SBMAPVBN   0000003B            VCB$W_CLUSTER    0000003C
UCB$V_JOB      = 00000000            VCB$B_STATUS     0000000B            VCB$W_CUR_NUM    00000024
UCB$V_LNKPRI   = 00000006            VCB$B_TM         0000002E            VCB$W_CUR_SEQ    00000026
UCB$V_LTYPE    = 00000000            VCB$B_TYPE       0000000A            VCB$W_EXTEND     0000003E
UCB$V_MOUNTING = 00000009            VCB$B_WINDOW     00000048            VCB$W_FILEPROT   0000004A
UCB$V_MSGACK   = 00000004            VCB$C_COMLEN     00000024            VCB$W_MCOUNT     0000004C
UCB$V_MSGFLO   = 00000003            VCB$C_LENGTH     00000050            VCB$W_MODE       0000002C
UCB$V_NOCNVRT  = 00000002            VCB$C_MRKLEN     0000000B            VCB$W_RVN        0000000E
UCB$V_NT_BFROVF= 00000002            VCB$K_COMLEN     00000024            VCB$W_SIZE       00000008
UCB$V_NT_BREAK = 00000005            VCB$K_LENGTH     00000050            VCB$W_START_NUM  00000028
UCB$V_NT_NAME  = 00000004            VCB$K_MRKLEN     0000000B            VCB$W_START_SEQ  0000002A
UCB$V_NT_NONTR = 00000006            VCB$L_AQB        00000010            VCB$W_TRANS      0000000C
UCB$V_NT_SDP   = 00000003            VCB$L_BLOCKBL    00000004            WCB$B_ACCESS     0000000B
UCB$V_ONLINE   = 00000004            VCB$L_BLOCKFL    00000000            WCB$B_TYPE       0000000A
UCB$V_POWER    = 00000005            VCB$L_CUR_FID    00000024            WCB$C_LENGTH     00000024
UCB$V_PRMMBX   = 00000000            VCB$L_FCBBL      00000004            WCB$C_MAP        00000024
UCB$V_SEGFLO   = 00000002            VCB$L_FCBFL      00000000            WCB$K_LENGTH     00000024
UCB$V_TIM      = 00000000            VCB$L_FREE       00000040            WCB$K_MAP        00000024
UCB$V_TIMOUT   = 00000006            VCB$L_HOME2LBN   00000028            WCB$L_FCB        00000018
UCB$V_TT_NOTIF = 00000002            VCB$L_HOMELBN    00000024            WCB$L_LBN        00000002
UCB$V_TT_TIMO  = 00000001            VCB$L_IBMAPLBN   00000030            WCB$L_ORGUCB     00000010
UCB$V_VALID    = 0000000B            VCB$L_IXHDR2LBN  0000002C            WCB$L_P1_LBN     00000026
UCB$W_BCNT       0000006E            VCB$L_MAXFILES   00000044            WCB$L_P2_LBN     0000002C
UCB$W_BCR        00000092            VCB$L_MVL        00000034            WCB$L_PID        0000000C
UCB$W_BOFF       0000006C            VCB$L_RVT        00000020            WCB$L_PREVLBN    FFFFFFFC
UCB$W_BUFQUO     00000018            VCB$L_SBMAPLBN   00000034            WCB$L_RVT        0000001C
UCB$W_BYTESTOGO  0000003E            VCB$L_START_FID  00000028            WCB$L_STVBN      00000020
UCB$W_CHARGE     0000004A            VCB$L_ST_RECORD  00000030            WCB$L_WLBL       00000004
SYSCANCEL       - SYSTEM SERVICE CANCEL I/O ON CHANNEL           21-AUG-1978 23:35:10   VAX-11 MACRO X0.3-11               Page   9
SYMBOL TABLE                                                                                                                     (1)

WCB$L_WLFL       00000000
WCB$M_NOTFCP   = 00000004
WCB$M_READ     = 00000001
WCB$M_SHRWCB   = 00000008
WCB$M_WRITE    = 00000002
WCB$V_DLOCK    = 00000001
WCB$V_NOREAD   = 0000000A
WCB$V_NOTFCP   = 00000002
WCB$V_NOWRITE  = 00000000
WCB$V_READ     = 00000000
WCB$V_READCK   = 00000009
WCB$V_SEQONLY  = 00000006
WCB$V_SHRWCB   = 00000003
WCB$V_SPOOL    = 00000004
WCB$V_WRITE    = 00000001
WCB$V_WRITEAC  = 00000008
WCB$V_WRITECK  = 00000005
WCB$W_ACON       00000014
WCB$W_COUNT      00000000
WCB$W_NMAP       00000016
WCB$W_P1_COUNT   00000024
WCB$W_P2_COUNT   0000002A
WCB$W_PREVCOUNT  FFFFFFFA
WCB$W_REFCNT     0000000E
WCB$W_SIZE       00000008


PROGRAM SECTION SYNOPSIS

.  ABS  .        00000000      00     NOPIC   USR   CON   ABS   LCL NOSHR NOEXE NORD  NOWRT BYTE
. BLANK .        00000107      01     NOPIC   USR   CON   REL   LCL NOSHR   EXE   RD    WRT BYTE
$ABS$            FFFFFFFF      02     NOPIC   USR   CON   ABS   LCL NOSHR   EXE   RD    WRT BYTE


THERE WERE NO ERRORS OR WARNINGS.
6516. BYTES LEFT IN FREE MEMORY POOL.
4234. BYTES OF RECLAIMED MEMORY.
OBJ$:SYSCANCEL,LIS$:SYSCANCEL/-SP=LIB$:LIB/ML,SRC$:SYSCANCEL
10 MLB DIR RDS - 1095 GETS TO DEFINE 26 MACROS. 84 INTER. FILE WRITES.
