SYSEVTSRV       - EVENT FLAG SERVICES ;                          21-AUG-1978 23:39:39   VAX-11 MACRO X0.3-11               Page   0
TABLE OF CONTENTS

   (1)    3500  HISTORY			; DETAILED
   (1)    4500  DECLARATIONS
   (1)    6600  EXE$CLREF - CLEAR EVENT FLAG SERVICE
   (1)   11400  SCH$GETEFC - GET ADDRESS OF EVENT FLAG CLUSTER
   (1)   15800  SCH$CLREF - CLEAR EVENT FLAG (INTERNAL FORM)
   (1)   18700  EXE$READEF - READ EVENT FLAG SYTEM SERVICE
   (1)   23300  EXE$SETEF - SET EVENT FLAG SERVICE
SYSEVTSRV       - EVENT FLAG SERVICES ;                          21-AUG-1978 23:39:39   VAX-11 MACRO X0.3-11               Page   1
01                                                                                                                               (1)

                                     0000   100
                                     0000   200 	.TITLE	SYSEVTSRV - EVENT FLAG SERVICES	;
                                     0000   300 	.IDENT	/01/		;
                                     0000   400
                                     0000   500 ;
                                     0000   600 ; COPYRIGHT (C) 1977
                                     0000   700 ; DIGITAL EQUIPMENT CORPORATION, MAYNARD, MASSACHUSETTS 01754
                                     0000   800 ;
                                     0000   900 ; THIS SOFTWARE IS FURNISHED  UNDER A LICENSE FOR USE ONLY ON A SINGLE
                                     0000  1000 ; COMPUTER  SYSTEM AND  MAY BE  COPIED ONLY WITH  THE INCLUSION OF THE
                                     0000  1100 ; ABOVE COPYRIGHT NOTICE.  THIS SOFTWARE, OR ANY OTHER COPIES THEREOF,
                                     0000  1200 ; MAY NOT BE PROVIDED OR  OTHERWISE MADE AVAILABLE TO ANY OTHER PERSON
                                     0000  1300 ; EXCEPT FOR USE ON SUCH SYSTEM AND TO ONE WHO AGREES TO THESE LICENSE
                                     0000  1400 ; TERMS.  TITLE TO AND  OWNERSHIP OF THE  SOFTWARE  SHALL AT ALL TIMES
                                     0000  1500 ; REMAIN IN DEC.
                                     0000  1600 ;
                                     0000  1700 ; THE INFORMATION IN THIS SOFTWARE IS SUBJECT TO CHANGE WITHOUT NOTICE
                                     0000  1800 ; AND SHOULD  NOT BE CONSTRUED  AS A COMMITMENT  BY DIGITAL  EQUIPMENT
                                     0000  1900 ; CORPORATION.
                                     0000  2000 ;
                                     0000  2100 ; DEC ASSUMES  NO  RESPONSIBILITY  FOR  THE USE OR  RELIABILITY OF ITS
                                     0000  2200 ; SOFTWARE ON EQUIPMENT WHICH IS NOT SUPPLIED BY DEC.
                                     0000  2300
                                     0000  2400 ;++
                                     0000  2500 ; FACILITY: EXECUTIVE, EVENT FLAG SERVICES
                                     0000  2600 ;
                                     0000  2700 ; ABSTRACT: SYSEVTSRV IMPLEMENTS THE CLEAR READ AND SET EVENT FLAG SYSTEM
                                     0000  2800 ;	    SERVICES AND CONTAINS THE INTERNAL CLEAR EVENT FLAG ROUTINE.
                                     0000  2900 ;
                                     0000  3000 ;--
                                     0000  3100 ;
                                     0000  3200 ; VERSION:
                                     0000  3300 ;
                                     0000  3400 ;	.PAGE
                                     0000  3500 	.SBTTL	HISTORY			; DETAILED
                                     0000  3600 ;
                                     0000  3700 ; AUTHOR:
                                     0000  3800 ;	R. HUSTVEDT : VERSION
                                     0000  3900 ;
                                     0000  4000 ; MODIFIED BY:
                                     0000  4100 ;	, : VERSION
                                     0000  4200 ; 01	 -
                                     0000  4300
SYSEVTSRV       - EVENT FLAG SERVICES ;                          21-AUG-1978 23:39:39   VAX-11 MACRO X0.3-11               Page   2
01              DECLARATIONS                                                                                                     (1)

                                     0000  4500 	.SBTTL	DECLARATIONS
                                     0000  4600
                                     0000  4700 ;
                                     0000  4800 ; INCLUDE FILES:
                                     0000  4900 ;
                                     0000  5000
                                     0000  5100 	$CEBDEF				; COMMON EVENT BLOCK DEFINITIONS
                                     0000  5200 	$IPLDEF				; IPL DEFINITIONS
                                     0000  5300 	$PCBDEF				; PCB DEFINITIONS
                                     0000  5400 	$PRIDEF				; PRIORITY INCREMENT DEFINITIONS
                                     0000  5500 	$SSDEF				; STATUS CODE DEFINITIONS
                                     0000  5700 ;
                                     0000  5800 ; EQUATES:
                                     0000  5900 ;
                           00000004  0000  6000 EFN=4					; DISPLACEMENT TO EVENT FLAG NUMBER ARG
                           00000008  0000  6100 MASKP=8					; DISPLACEMENT TO MASK POINTER
                                     0000  6200
                                 00000000  6300 	.PSECT	AEXENONPAGED,BYTE	; NONPAGED EXEC
                                     0000  6400
SYSEVTSRV       - EVENT FLAG SERVICES ;                          21-AUG-1978 23:39:39   VAX-11 MACRO X0.3-11               Page   3
01              EXE$CLREF - CLEAR EVENT FLAG SERVICE                                                                             (1)

                                     0000  6600 	.SBTTL	 EXE$CLREF - CLEAR EVENT FLAG SERVICE
                                     0000  6700
                                     0000  6800 ;++
                                     0000  6900 ; FUNCTIONAL DESCRIPTION:
                                     0000  7000 ;	THE CLEAR EVENT FLAG SYSTEM SERVICE CLEARS THE SPECIFIED
                                     0000  7100 ;	EVENT FLAG.  NO RESCHEDULING IS EVER NECESSARY AFTER CLEARING
                                     0000  7200 ;	AN EVENT FLAG.
                                     0000  7300 ;
                                     0000  7400 ;
                                     0000  7500 ; CALLING SEQUENCE:
                                     0000  7600 ;	CALL	ARGLIST,EXE$CLREF
                                     0000  7700 ;
                                     0000  7800 ;
                                     0000  7900 ; INPUT PARAMETERS:
                                     0000  8000 ;	04(AP) - EVENT FLAG NUMBER TO BE CLEARED
                                     0000  8050 ;	R4 - PCB ADDRESS OF CURRENT PROCESS
                                     0000  8100 ;
                                     0000  8200 ; IMPLICIT INPUTS:
                                     0000  8400 ;
                                     0000  8500 ; OUTPUT PARAMETERS:
                                     0000  8600 ;	R0 - COMPLETION STATUS CODE, ERROR IF BIT 0 IS SET.
                                     0000  8700 ;
                                     0000  8800 ;
                                     0000  8900 ; IMPLICIT OUTPUTS:
                                     0000  9000 ;	THE EVENT FLAG SPECIFIED WITHIN THE CLUSTER SPECIFIED
                                     0000  9100 ;	IS CLEARED.
                                     0000  9200 ;
                                     0000  9300 ; COMPLETION CODES:
                                     0000  9400 ;	SS$_WASCLR - EVENT FLAG WAS ALREADY CLEAR
                                     0000  9500 ;	SS$_WASSET - EVENT FLAG WAS SET
                                     0000  9600 ;	SS$_ILLEFC - ILLEGAL CLUSTER NUMBER (I.E. 4 - 7)
                                     0000  9700 ;	SS$_UNASEFC - UNASSIGNED CLUSTER NUMBER
                                     0000  9800 ;
                                     0000  9900 ; SIDE EFFECTS:
                                     0000 10000 ;	NONE
                                     0000 10100 ;
                                     0000 10200 ;--
                                     0000 10300
                                     0000 10400
                                     0000 10500
                                     0000 10600 EXE$CLREF::				; CLEAR EVENT FLAG SERVICE
                               001C  0000 10700 	.WORD	^M<R2,R3,R4>		; ENTRY MASK SAVING R2,R3,R4
            53         04 AC     9A  0002 10800 	MOVZBL	EFN(AP),R3		; GET EVENT FLAG NUMBER
                          38     10  0006 10900 	BSBB	SCH$CLREF		; CALL INTERNAL ROUTINE
            08            50     E9  0008 10905 	BLBC	R0,10$			; BR IF SOME KIND OF ERROR
            5D         0C AD     D0  000B 10910 	MOVL	12(FP),FP		; RESTORE FRAME POINTER
            5E            00'    C0  000F 10915 	ADDL	S^#EXE$C_CMSTKSZ,SP	; CLEAN STACK BACK TO PC,PSL
                                 02  0012 10920 	REI				; RETURN
                                 04  0013 11000 10$:	RET				; AND RETURN TO CALLER
                                     0014 11100
                                     0014 11200
SYSEVTSRV       - EVENT FLAG SERVICES ;                          21-AUG-1978 23:39:39   VAX-11 MACRO X0.3-11               Page   4
01              SCH$GETEFC - GET ADDRESS OF EVENT FLAG CLUSTER                                                                   (1)

                                     0014 11400 	.SBTTL	SCH$GETEFC - GET ADDRESS OF EVENT FLAG CLUSTER
                                     0014 11500 ;++
                                     0014 11600 ; FUNCTION:
                                     0014 11700 ;	SCH$GETEFC COMPUTES THE ADDRESS OF THE EVENT FLAG CLUSTER
                                     0014 11800 ;	SELECTED BY THE EVENT FLAG NUMBER IN R3.  THE EVENT FLAG CLUSTER
                                     0014 11900 ;	ADDRESS IS RETURNED IN R2.
                                     0014 12000 ;
                                     0014 12100 ; CALLING SEQUENCE:
                                     0014 12200 ;	BSBB/BSBW/JSB	SCH$GETEFC
                                     0014 12300 ;
                                     0014 12400 ; INPUT PARAMETERS:
                                     0014 12500 ;	R3 - EVENT FLAG NUMBER
                                     0014 12550 ;	R4 - PCB ADDRESS
                                     0014 12600 ;
                                     0014 13100 ; OUTPUT PARAMETERS:
                                     0014 13200 ;	R0 - ERROR STATUS CODE
                                     0014 13300 ;	R2 - ADDRESS OF EVENT FLAG CLUSTER
                                     0014 13350 ;	R3 - EVENT FLAG NUMBER WITHIN CLUSTER
                                     0014 13400 ;
                                     0014 13500 ; COMPLETION CODES:
                                     0014 13600 ;	SS$_NORMAL  -  NORMAL COMPLETION STATUS
                                     0014 13700 ;	SS$_ILLEFC  -  ILLEGAL CLUSTER NUMBER
                                     0014 13800 ;	SS$_UNASEFC -  UNASSIGNED CLUSTER NUMBER
                                     0014 13900 ;
                                     0014 14000 ;--
                                     0014 14100
                                     0014 14200 SCH$GETEFC:				; GET ADDRESS OF EVENT FLAG CLUSTER
            50            01     3C  0014 14250 	MOVZWL	#SS$_NORMAL,R0		; ASSUME NORMAL COMPLETION
            03            05     EE  0017 14400 	EXTV	#5,#3,R3,R1		; EXTRACT CLUSTER NUMBER
            51            53         001A
                          1C     19  001C 14500 	BLSS	30$			; ILLEGAL WITH 4,5,6,7
            52         50 A441   DE  001E 14800 	MOVAL	PCB$L_EFCS(R4)[R1],R2	; GET ADDR OF EF VECTOR
            53   FFFFFFE0 8F     CA  0023 14850 	BICL	#^C<^X1F>,R3		; EXTRACT EVENT NUMBER WITHIN CLUSTER
            01            51     F5  002A 14900 	SOBGTR	R1,10$			; BR IF COMMON
                                 05  002D 14950 	RSB				; RETURN WITH SUCCESS
            62            10     C1  002E 15000 10$:	ADDL3	#CEB$L_EFC,(R2),R2	; GET POINTER TO CEB EVENT MASK
                          52         0031
                          05     19  0032 15100 	BLSS	20$			; ASSIGNED
            50       0234 8F     3C  0034 15200 	MOVZWL	#SS$_UNASEFC,R0		; SET ERROR CODE FOR UNASSIGNED
                                 05  0039 15300 20$:	RSB				; AND EXIT
            50       00EC 8F     3C  003A 15400 30$:	MOVZWL	#SS$_ILLEFC,R0		; SET ERROR CODE FOR ILLEGAL EFC
                                 05  003F 15500 	RSB				; AND EXIT
SYSEVTSRV       - EVENT FLAG SERVICES ;                          21-AUG-1978 23:39:39   VAX-11 MACRO X0.3-11               Page   5
01              SCH$CLREF - CLEAR EVENT FLAG (INTERNAL FORM)                                                                     (1)

                                     0040 15800 	.SBTTL	SCH$CLREF - CLEAR EVENT FLAG (INTERNAL FORM)
                                     0040 15900 ;++
                                     0040 16000 ;	SCH$CLREF - CLEAR EVENT FLAG, INTERNAL FORM
                                     0040 16100 ;
                                     0040 16200 ; CALLING SEQUENCE:
                                     0040 16300 ;	JSB/BSB SCH$CLREF
                                     0040 16400 ;
                                     0040 16500 ; INPUT:
                                     0040 16600 ;	R3 - EVENT FLAG NUMBER, ZERO FILLED.
                                     0040 16700 ;
                                     0040 16800 ; OUTPUT:
                                     0040 16900 ;	R0 - COMPLETION STATUS, ERROR IF BIT 0 CLEAR.
                                     0040 17000 ; COMPLETION CODES:
                                     0040 17100 ;	SS$_WASCLR - EVENT FLAG WAS ALREADY CLEAR
                                     0040 17200 ;	SS$_WASSET - EVENT FLAG WAS SET
                                     0040 17300 ;	SS$_ILLEFC - ILLEGAL CLUSTER NUMBER
                                     0040 17400 ;	SS$_UNASEFC - UNASSIGNED CLUSTER NUMBER
                                     0040 17500 ;--
                                     0040 17600
                                     0040 17700
                                     0040 17800 SCH$CLREF::				; CLEAR EVENT FLAG INTERNAL
                          D2     10  0040 17900 	BSBB	SCH$GETEFC		; GET ADDRESS OF EVENT FLAG CLUSTER
            07            50     E9  0042 18000 	BLBC	R0,10$			; EXIT IF ERROR
                                     0045 18200 	ASSUME	SS$_WASCLR EQ SS$_NORMAL
                                     0045 18250 					; SS$_NORMAL RETURNED BY SCH$GETEFC
            62            53     E5  0045 18300 	BBCC	R3,(R2),10$		; CLEAR AND TEST FLAG
                          03         0048
            50            09     D0  0049 18400 	MOVL	#SS$_WASSET,R0		; REPORT STATUS
                                 05  004C 18500 10$:	RSB				; RETURN TO CALLER
SYSEVTSRV       - EVENT FLAG SERVICES ;                          21-AUG-1978 23:39:39   VAX-11 MACRO X0.3-11               Page   6
01              EXE$READEF - READ EVENT FLAG SYTEM SERVICE                                                                       (1)

                                     004D 18700 	.SBTTL	EXE$READEF - READ EVENT FLAG SYTEM SERVICE
                                     004D 18800 ;++
                                     004D 18900 ; FUNCTIONAL DESCRIPTION:
                                     004D 19000 ;	EXE$READEF IMPLEMENTS THE READ EVENT FLAG SYSTEM SERVICE WHICH
                                     004D 19100 ;	RETURNS THE STATE OF THE EVENT FLAG CLUSTER SELECTED BY THE
                                     004D 19200 ;	SPECIFIED EVENT FLAG NUMBER.
                                     004D 19300 ;
                                     004D 19400 ; CALLING SEQUENCE:
                                     004D 19500 ;	CALLG	ARGLIST,EXE$READEF
                                     004D 19600 ;
                                     004D 19700 ; INPUT PARAMETERS:
                                     004D 19800 ;	04(AP) - EVENT FLAG NUMBER TO SELECT PROPER CLUSTER
                                     004D 19900 ;	08(AP) - ADDRESS TO STORE STATE OF EVENT FLAG CLUSTER
                                     004D 20000 ;	R4 - PCB ADDRESS OF CURRENT PROCESS
                                     004D 20300 ;
                                     004D 20400 ; OUTPUT PARAMETERS:
                                     004D 20500 ;	R0 - COMPLETION STATUS CODE
                                     004D 20600 ;	@08(AP) - STATE OF 32 EVENTS IN SPECIFIED CLUSTER
                                     004D 20700 ;
                                     004D 20800 ; COMPLETION CODES:
                                     004D 20900 ;	SS$_WASSET  -  SPECIFIC EVENT FLAG IS CURRENTLY SET
                                     004D 21000 ;	SS$_WASCLR  -  SPECIFIC EVENT FLAG IS CURRENTLY CLEAR
                                     004D 21100 ;	SS$_ILLEFC  -  ILLEGAL EVENT FLAG CLUSTER NUMBER
                                     004D 21200 ;	SS$_UNASEFC -  UNASSIGNED EVENT FLAG CLUSTER
                                     004D 21300 ;	SS$_ACCVIO  -  ACCESS VIOLATION ON WRITE DESTINATION
                                     004D 21400 ;
                                     004D 21500 ;--
                                     004D 21600
                                     004D 21700 EXE$READEF::				; READ EVENT FLAG SYSTEM SERVICE
                               001C  004D 21800 	.WORD	^M<R2,R3,R4>		; ENTRY MASK SAVING R2,R3,R4
            53         04 AC     9A  004F 21900 	MOVZBL	EFN(AP),R3		; GET EVENT FLAG NUMBER
                          BF     10  0053 22000 	BSBB	SCH$GETEFC		; GET EFC ADDRESS AND CONTENT
            18            50     E9  0055 22100 	BLBC	R0,20$			; NO STORE IF ERROR
            51         08 AC     D0  0058 22200 	MOVL	MASKP(AP),R1		; GET ADDRESS OF DESTINATION
                                     005C 22300 	IFNOWRT	#4,(R1),10$		; TEST FOR WRITABLE
            61            62     D0  0062 22400 	MOVL	(R2),(R1)		; STORE EVENT FLAG BIT VECTOR
            61            53     E1  0065 22600 	BBC	R3,(R1),20$		; EXIT IF CLEAR
                          07         0068
            50            09     3C  0069 22700 	MOVZWL	#SS$_WASSET,R0		; RETURN SET STATUS CODE
                                 04  006C 22800 	RET				; AND RETURN
            50            0C     3C  006D 22900 10$:	MOVZWL	#SS$_ACCVIO,R0		; SET ACCESS VIOLATION
                                 04  0070 23000 20$:	RET				; AND RETURN
                                     0071 23100
SYSEVTSRV       - EVENT FLAG SERVICES ;                          21-AUG-1978 23:39:39   VAX-11 MACRO X0.3-11               Page   7
01              EXE$SETEF - SET EVENT FLAG SERVICE                                                                               (1)

                                     0071 23300 	.SBTTL	EXE$SETEF - SET EVENT FLAG SERVICE
                                     0071 23400 ;++
                                     0071 23500 ; FUNCTIONAL DESCRIPTION:
                                     0071 23600 ;	EXE$SETEF IMPLEMENTS THE SET EVENT FLAG SERVICE WHICH SETS
                                     0071 23700 ;	THE SPECIFIED EVENT FLAG AND CAUSES ANY APPROPRIATE RESCHEDULING.
                                     0071 23800 ;
                                     0071 23900 ; CALLING SEQUENCE:
                                     0071 24000 ;	CALLG	EXE$SETEF
                                     0071 24100 ;
                                     0071 24200 ; INPUT PARAMETERS:
                                     0071 24300 ;	04(AP) - EVENT FLAG NUMBER
                                     0071 24350 ;	R4 - PCB ADDRESS OF CURRENT PROCESS
                                     0071 24400 ;
                                     0071 24500 ; IMPLICIT INPUTS:
                                     0071 24600 ;	CURRENT PCB LOCATED VIA SCH$GL_CURPCB
                                     0071 24700 ;
                                     0071 24800 ; OUTPUT PARAMETERS:
                                     0071 24900 ;	R0 - COMPLETION STATUS CODE
                                     0071 25000 ;
                                     0071 25100 ; COMPLETION CODES:
                                     0071 25200 ;	SS$_WASCLR  -  SPECIFIED EVENT WAS CLEAR INITIALLY
                                     0071 25300 ;	SS$_WASSET  -  SPECIFIED EVENT WAS SET INITIALLY
                                     0071 25400 ;	SS$_ILLEFC  -  ILLEGAL CLUSTER NUMBER
                                     0071 25500 ;	SS$_UNASEFC -  UNASSIGNED EVENT FLAG CLUSTER NUMBER
                                     0071 25600 ;
                                     0071 25700 ;--
                                     0071 25800
                                     0071 25900 EXE$SETEF::				; SET EVENT FLAG SYSTEM SERVICE
                               003C  0071 26000 	.WORD	^M<R2,R3,R4,R5>		; ENTRY MASK SAVING R2,R3,R4,R5
            53         04 AC     9A  0073 26100 	MOVZBL	EFN(AP),R3		; GET EVENT FLAG NUMBER
                          9B     10  0077 26200 	BSBB	SCH$GETEFC		; GET EFC ADDRESS AND VALIDATE
            23            50     E9  0079 26300 	BLBC	R0,20$			; EXIT IF ERROR IN EFN
            55            09     D0  007C 26500 	MOVL	#SS$_WASSET,R5		; ASSUME SET
            62            53     E2  007F 26600 	BBSS	R3,(R2),10$		; SET EVENT FLAG
                          03         0082
            55            01     D0  0083 26700 	MOVL	#SS$_WASCLR,R5		; FLAG WAS CLEAR, SET STATUS
            51         60 A4     D0  0086 27000 10$:	MOVL	PCB$L_PID(R4),R1	; AND PROCESS ID (PID)
            52            01     D0  008A 27100 	MOVL	#PRI$_IOCOM,R2		; SET PRIORITY INCREMENT CLASS
            53         04 AC     D0  008D 27200 	MOVL	EFN(AP),R3		; AND RESTORE EVENT FLAG NUMBER
                          FF6C'  30  0091 27300 	BSBW	SCH$POSTEF		; POST EVENT FLAG
            50            55     D0  0094 27400 	MOVL	R5,R0			; RESTORE STATUS
            5D         0C AD     D0  0097 27405 	MOVL	12(FP),FP		; RESTORE FP
            5E            00'    C0  009B 27410 	ADDL	S^#EXE$C_CMSTKSZ,SP	; CLEAN STACK BACK TO PC,PSL
                                 02  009E 27415 	REI				; AND RETURN
                                 04  009F 27500 20$:	RET				; RETURN
                                     00A0 27600 	.END
SYSEVTSRV       - EVENT FLAG SERVICES ;                          21-AUG-1978 23:39:39   VAX-11 MACRO X0.3-11               Page   8
SYMBOL TABLE                                                                                                                     (1)

BIT...         = 00000000            PCB$L_STS        00000028            SS$_ARITH      = 00000404
CEB$B_STS        0000000B            PCB$L_UIC        00000020            SS$_ASTFLT     = 0000040C
CEB$B_TYPE       0000000A            PCB$L_WSSWP      00000024            SS$_BADATTRIB  = 00000034
CEB$L_CEBBL      00000004            PCB$L_WTIME      0000002C            SS$_BADCHKSUM  = 00000808
CEB$L_CEBFL      00000000            PCB$T_LNAME      0000006C            SS$_BADESCAPE  = 0000003C
CEB$L_EFC        00000010            PCB$V_ASTPEN   = 00000011            SS$_BADFILEHDR = 00000810
CEB$L_PID        0000000C            PCB$V_BATCH    = 0000000E            SS$_BADFILENAME= 00000818
CEB$L_UIC        00000020            PCB$V_DELPEN   = 00000001            SS$_BADFILEVER = 00000820
CEB$L_WQBL       00000018            PCB$V_FORCPEN  = 00000002            SS$_BADIMGHDR  = 00000044
CEB$L_WQFL       00000014            PCB$V_HIBER    = 00000013            SS$_BADIRECTORY= 00000828
CEB$T_EFCNAM     00000028            PCB$V_INQUAN   = 00000003            SS$_BADPARAM   = 00000014
CEB$V_NOQUOTA  = 00000000            PCB$V_LOGIN    = 00000014            SS$_BADSTACK   = 000002B4
CEB$V_PERM     = 00000001            PCB$V_NOACNT   = 0000000F            SS$_BEGOFFILE  = 00000938
CEB$W_GRP        00000022            PCB$V_PHDRES   = 00000012            SS$_BLOCKCNTERR= 00000940
CEB$W_PROT       00000024            PCB$V_PSWAPM   = 00000004            SS$_BREAK      = 00000414
CEB$W_REFC       00000026            PCB$V_RES      = 00000000            SS$_BUFFEROVF  = 00000601
CEB$W_SIZE       00000008            PCB$V_RESPEN   = 00000005            SS$_BUGCHECK   = 000002A4
CEB$W_STATE      0000001E            PCB$V_SSFEXC   = 00000006            SS$_CANCEL     = 00000830
CEB$W_WQCNT      0000001C            PCB$V_SSFEXCE  = 00000007            SS$_CHANINTLK  = 0000004C
EFN            = 00000004            PCB$V_SSFEXCS  = 00000008            SS$_CLIFRCEXT  = 00000980
EXE$CLREF        00000000 RG    03   PCB$V_SSFEXCU  = 00000009            SS$_CMODSUPR   = 0000041C
EXE$C_CMSTKSZ    ********   X   03   PCB$V_SSRWAIT  = 0000000A            SS$_CMODUSER   = 00000424
EXE$READEF       0000004D RG    03   PCB$V_SUSPEN   = 0000000B            SS$_COMPAT     = 0000042C
EXE$SETEF        00000071 RG    03   PCB$V_SWPVBN   = 00000010            SS$_CONTINUE   = 00000001
GBL...         = 00000000            PCB$V_WAKEPEN  = 0000000C            SS$_CONTROLC   = 00000651
IPL$_ASTDEL    = 00000002            PCB$V_WALL     = 0000000D            SS$_CONTROLO   = 00000609
IPL$_HWCLK     = 00000018            PCB$W_APTCNT     00000034            SS$_CONTROLY   = 00000611
IPL$_IOPOST    = 00000004            PCB$W_ASTCNT     0000003C            SS$_CREATED    = 00000619
IPL$_MAILBOX   = 0000000B            PCB$W_BIOCNT     0000003E            SS$_CTRLERR    = 00000054
IPL$_POWER     = 0000001F            PCB$W_BIOLM      00000040            SS$_DATACHECK  = 0000005C
IPL$_QUEUEAST  = 00000006            PCB$W_BYTCNT     00000042            SS$_DATAOVERUN = 00000838
IPL$_SCHED     = 00000003            PCB$W_BYTLM      00000068            SS$_DEBUG      = 0000046C
IPL$_SYNCH     = 00000007            PCB$W_DIOCNT     00000044            SS$_DEVACTIVE  = 000002C4
IPL$_TIMER     = 00000007            PCB$W_DIOLM      00000046            SS$_DEVALLOC   = 00000840
MASKP          = 00000008            PCB$W_FILCNT     00000048            SS$_DEVALRALLOC= 00000641
PCB$B_ASTACT     0000000C            PCB$W_GPGCNT     00000038            SS$_DEVASSIGN  = 00000848
PCB$B_ASTEN      0000000D            PCB$W_GRP        00000022            SS$_DEVFOREIGN = 00000064
PCB$B_PRI        0000000B            PCB$W_MEM        00000020            SS$_DEVICEFULL = 00000850
PCB$B_PRIB       00000033            PCB$W_MTXCNT     0000000E            SS$_DEVMOUNT   = 0000006C
PCB$B_TYPE       0000000A            PCB$W_PPGCNT     0000003A            SS$_DEVNOTALLOC= 00000858
PCB$B_WEFC       00000032            PCB$W_PRCCNT     0000006A            SS$_DEVNOTMBX  = 00000074
PCB$C_LENGTH     0000007C            PCB$W_SIZE       00000008            SS$_DEVNOTMOUNT= 0000007C
PCB$K_LENGTH     0000007C            PCB$W_STATE      00000030            SS$_DEVOFFLINE = 00000084
PCB$L_ASTQBL     00000014            PCB$W_TMBU       00000036            SS$_DIRFULL    = 00000860
PCB$L_ASTQFL     00000010            PCB$W_TQCNT      0000004A            SS$_DRVERR     = 0000008C
PCB$L_EFC2P      00000058            PRI$_IOCOM     = 00000001            SS$_DUPFILENAME= 00000868
PCB$L_EFC3P      0000005C            PRI$_NULL      = 00000000            SS$_DUPLNAM    = 00000094
PCB$L_EFCS       00000050            PRI$_RESAVL    = 00000002            SS$_ENDOFFILE  = 00000870
PCB$L_EFCU       00000054            PRI$_TICOM     = 00000004            SS$_ENDOFTAPE  = 00000878
PCB$L_EFWM       0000004C            PRI$_TIMER     = 00000002            SS$_ENDOFUSRLBL= 00000970
PCB$L_OWNER      0000001C            PRI$_TOCOM     = 00000003            SS$_EXQUOTA    = 0000001C
PCB$L_PHD        00000064            SCH$CLREF        00000040 RG    03   SS$_EXTIDXFILE = 00000880
PCB$L_PHYPCB     00000018            SCH$GETEFC       00000014 R     03   SS$_FCPREADERR = 00000888
PCB$L_PID        00000060            SCH$POSTEF       ********   X   03   SS$_FCPREPSTN  = 00000988
PCB$L_PQB        0000004C            SS$_ABORT      = 0000002C            SS$_FCPREWNDERR= 00000890
PCB$L_SQBL       00000004            SS$_ACCONFLICT = 00000800            SS$_FCPSPACERR = 00000898
PCB$L_SQFL       00000000            SS$_ACCVIO     = 0000000C            SS$_FCPWRITERR = 000008A0
SYSEVTSRV       - EVENT FLAG SERVICES ;                          21-AUG-1978 23:39:39   VAX-11 MACRO X0.3-11               Page   9
SYMBOL TABLE                                                                                                                     (1)

SS$_FILACCERR  = 0000009C            SS$_NOLINKS    = 0000027C
SS$_FILALRACC  = 000000A4            SS$_NOLOGNAM   = 000001BC
SS$_FILELOCKED = 000008A8            SS$_NOMBX      = 00000274
SS$_FILENUMCHK = 000008B0            SS$_NOMOREFILES= 00000930
SS$_FILESEQCHK = 000008B8            SS$_NONEXDRV   = 000001C4
SS$_FILESTRUCT = 000008C0            SS$_NONEXPR    = 000008E8
SS$_FILNOTACC  = 000000AC            SS$_NONLOCAL   = 000008F0
SS$_FILNOTCNTG = 000002AC            SS$_NOPRIV     = 00000024
SS$_FILNOTEXP  = 000000B4            SS$_NORMAL     = 00000001
SS$_FORMAT     = 000000BC            SS$_NOSIGNAL   = 00000900
SS$_GPTFULL    = 000000C4            SS$_NOSOLICIT  = 00000284
SS$_GSDFULL    = 000000CC            SS$_NOSUCHDEV  = 00000908
SS$_GSDNOTXXX  = 000000D4            SS$_NOSUCHFILE = 00000910
SS$_HANGUP     = 000002CC            SS$_NOSUCHNODE = 0000028C
SS$_HEADERFULL = 000008C8            SS$_NOSUCHSEC  = 00000978
SS$_IDXFILEFULL= 000008D0            SS$_NOTAPEOP   = 00000264
SS$_ILLBLKNUM  = 000000DC            SS$_NOTFILEDEV = 000001CC
SS$_ILLCNTRFUNC= 000000E4            SS$_NOTINTBLSZ = 000001D4
SS$_ILLEFC     = 000000EC            SS$_NOTLABELMT = 000001DC
SS$_ILLIOFUNC  = 000000F4            SS$_NOTNETDEV  = 000002EC
SS$_ILLLBLAST  = 00000968            SS$_NOTRAN     = 00000629
SS$_ILLPAGCNT  = 000000FC            SS$_NOTSQDEV   = 000001E4
SS$_ILLSEQOP   = 000002DC            SS$_OPCCUS     = 00000434
SS$_ILLSER     = 00000104            SS$_OPCDEC     = 0000043C
SS$_ILLUSRLBLRD= 00000958            SS$_OPINCOMPL  = 000002D4
SS$_ILLUSRLBLWT= 00000960            SS$_PAGOWNVIO  = 000001EC
SS$_INCVOLLABEL= 0000010C            SS$_PAGRDERR   = 00000444
SS$_INSFARG    = 00000114            SS$_PARITY     = 000001F4
SS$_INSFMEM    = 00000124            SS$_PARTESCAPE = 000001FC
SS$_INSFRAME   = 0000012C            SS$_PFMBSY     = 00000204
SS$_INSFWSL    = 0000011C            SS$_PSTFULL    = 0000020C
SS$_IVADDR     = 00000134            SS$_RADRMOD    = 0000044C
SS$_IVCHAN     = 0000013C            SS$_REJECT     = 00000294
SS$_IVCHNLSEC  = 0000026C            SS$_REMOTE     = 00000649
SS$_IVDEVNAM   = 00000144            SS$_RESIGNAL   = 00000918
SS$_IVGSDNAM   = 0000014C            SS$_RESULTOVF  = 00000214
SS$_IVLOGNAM   = 00000154            SS$_ROPRAND    = 00000454
SS$_IVLOGTAB   = 0000015C            SS$_SECTBLFUL  = 0000021C
SS$_IVPROTECT  = 000002F4            SS$_SSFAIL     = 0000045C
SS$_IVQUOTAL   = 00000164            SS$_SUPERSEDE  = 00000631
SS$_IVSECFLG   = 0000016C            SS$_TAPEPOSLOST= 00000224
SS$_IVSECIDCTL = 000002E4            SS$_TBIT       = 00000464
SS$_IVSSRQ     = 00000174            SS$_TIMEOUT    = 0000022C
SS$_IVSTSFLG   = 0000017C            SS$_TOOMANYVER = 00000990
SS$_IVTIME     = 00000184            SS$_TOOMUCHDATA= 0000029C
SS$_LENVIO     = 0000018C            SS$_UNASEFC    = 00000234
SS$_LKWSETFUL  = 00000194            SS$_UNSAFE     = 0000023C
SS$_MBFULL     = 000008D8            SS$_UNWIND     = 00000920
SS$_MBTOOSML   = 0000019C            SS$_UNWINDING  = 00000928
SS$_MCHECK     = 000002BC            SS$_VASFULL    = 00000244
SS$_MEDOFL     = 000001A4            SS$_VECINUSE   = 0000024C
SS$_MSGNOTFND  = 00000621            SS$_VOLINV     = 00000254
SS$_MUSTCLOSEFL= 00000948            SS$_WAITUSRLBL = 00000950
SS$_NODATA     = 000001AC            SS$_WASCLR     = 00000001
SS$_NOHANDLER  = 000008F8            SS$_WASECC     = 00000639
SS$_NOHOMEBLK  = 000008E0            SS$_WASSET     = 00000009
SS$_NOIOCHAN   = 000001B4            SS$_WRITLCK    = 0000025C
SYSEVTSRV       - EVENT FLAG SERVICES ;                          21-AUG-1978 23:39:39   VAX-11 MACRO X0.3-11               Page  10
PROGRAM SECTION SYNOPSIS                                                                                                         (1)


PROGRAM SECTION SYNOPSIS

.  ABS  .        00000000      00     NOPIC   USR   CON   ABS   LCL NOSHR NOEXE NORD  NOWRT BYTE
. BLANK .        00000000      01     NOPIC   USR   CON   REL   LCL NOSHR   EXE   RD    WRT BYTE
$ABS$            0000007C      02     NOPIC   USR   CON   ABS   LCL NOSHR   EXE   RD    WRT BYTE
AEXENONPAGED     000000A0      03     NOPIC   USR   CON   REL   LCL NOSHR   EXE   RD    WRT BYTE


THERE WERE NO ERRORS OR WARNINGS.
16772. BYTES LEFT IN FREE MEMORY POOL.
3288. BYTES OF RECLAIMED MEMORY.
OBJ$:SYSEVTSRV,LIS$:SYSEVTSRV/-SP=LIB$:LIB/ML,SRC$:SYSEVTSRV
3 MLB DIR RDS - 500 GETS TO DEFINE 16 MACROS. 34 INTER. FILE WRITES.
