SYSGETJPP       - SYSTEM SERVICE GET JOB AND PROCESS PARAMETERS  21-AUG-1978 23:42:17   VAX-11 MACRO X0.3-11               Page   0
TABLE OF CONTENTS

   (1)      93  GET JOB AND PROCESS PARAMETERS
SYSGETJPP       - SYSTEM SERVICE GET JOB AND PROCESS PARAMETERS  21-AUG-1978 23:42:17   VAX-11 MACRO X0.3-11               Page   1
01                                                                                                                               (1)

                                     0000     1 	.TITLE	SYSGETJPP - SYSTEM SERVICE GET JOB AND PROCESS PARAMETERS
                                     0000     2 	.IDENT	/01/
                                     0000     3
                                     0000     4 ;
                                     0000     5 ; COPYRIGHT (C) 1977
                                     0000     6 ; DIGITAL EQUIPMENT CORPORATION, MAYNARD, MASS.
                                     0000     7 ;
                                     0000     8 ; THIS SOFTWARE IS FURNISHED UNDER  A LICENSE FOR USE ONLY  ON  A
                                     0000     9 ; SINGLE COMPUTER SYSTEM AND MAY BE  COPIED ONLY WITH  THE INCLU-
                                     0000    10 ; SION OF  THE  ABOVE  COPYRIGHT NOTICE.  THIS SOFTWARE,  OR  ANY
                                     0000    11 ; OTHER COPIES THEREOF, MAY NOT BE  PROVIDED  OR  OTHERWISE  MADE
                                     0000    12 ; AVAILABLE TO ANY OTHER PERSON EXCEPT  FOR  USE  ON  SUCH SYSTEM
                                     0000    13 ; AND TO  ONE WHO AGREES  TO  THESE LICENSE  TERMS.  TITLE TO AND
                                     0000    14 ; OWNERSHIP OF THE SOFTWARE SHALL AT ALL TIMES REMAIN IN DEC.
                                     0000    15 ;
                                     0000    16 ; THE INFORMATION IN THIS SOFTWARE  IS  SUBJECT TO CHANGE WITHOUT
                                     0000    17 ; NOTICE AND SHOULD NOT BE CONSTRUED  AS  A COMMITMENT BY DIGITAL
                                     0000    18 ; EQUIPMENT CORPORATION.
                                     0000    19 ;
                                     0000    20 ; DEC ASSUMES NO RESPONSIBILITY FOR THE USE OR RELIABILITY OF ITS
                                     0000    21 ; SOFTWARE ON EQUIPMENT WHICH IS NOT SUPPLIED BY DEC.
                                     0000    22 ;
                                     0000    23 ; D. N. CUTLER 9-JAN-77
                                     0000    24 ;
                                     0000    25 ; SYSTEM SERVICE GET JOB AND PROCESS PARAMETERS
                                     0000    26 ;
                                     0000    27 ; MACRO LIBRARY CALLS
                                     0000    28 ;
                                     0000    29
                                     0000    30 	$IPLDEF				;DEFINE INTERRUPT PRIORITY LEVELS
                                     0000    31 	$PCBDEF				;DEFINE PCB OFFSETS
                                     0000    32 	$PHDDEF				;DEFINE PHD OFFSETS
                                     0000    33 	$PRDEF				;DEFINE PROCESSOR REGISTERS
                                     0000    34 	$SSDEF				;DEFINE SYSTEM STATUS VALUES
                                     0000    35
                                     0000    36 ;
                                     0000    37 ; LOCAL MACROS
                                     0000    38 ;
                                     0000    39 ; GENERATE OFFSET TABLE ENTRY
                                     0000    40 ;
                                     0000    41
                                     0000    42 	.MACRO	OFFSET DISPL,COUNT
                                     0000    43 		.BYTE	COUNT
                                     0000    44 		.WORD	DISPL
                                     0000    45 	.ENDM
                                     0000    46
                                     0000    47 ;
                                     0000    48 ; LOCAL SYMBOLS
                                     0000    49 ;
                                     0000    50 ; ARGUMENT LIST OFFSET DEFINITIONS
                                     0000    51 ;
                                     0000    52
                           00000004  0000    53 PIDADR=4				;ADDRESS OF PROCESS IDENTIFICATION
                           00000008  0000    54 LOGNAM=8				;ADDRESS OF PROCESS NAME STRING DESCRIPTOR
                           0000000C  0000    55 LENGTH=12				;ADDRESS TO STORE INFORMATION STRING LENGTH
                           00000010  0000    56 BUFFER=16				;ADDRESS OF INFORMATION BUFFER DESCRIPTOR
                                     0000    57
SYSGETJPP       - SYSTEM SERVICE GET JOB AND PROCESS PARAMETERS  21-AUG-1978 23:42:17   VAX-11 MACRO X0.3-11               Page   2
01                                                                                                                               (1)

                                     0000    58 ;
                                     0000    59 ; LOCAL DATA
                                     0000    60 ;
                                     0000    61 ; OFFSET TABLE
                                     0000    62 ;
                                     0000    63
                                     0000    64 OFFSETABLE:				;
                                     0000    65 	OFFSET	PCB$T_LNAME,16		;PROCESS NAME
                                     0003    66 	OFFSET	PCB$L_UIC,4		;USER IDENTIFICATION
                                     0006    67 	OFFSET	PCB$L_PID,4		;PROCESS IDENTIFICATION
                                     0009    68 	OFFSET	PCB$L_OWNER,4		;CREATOR PROCESS IDENTIFICATION
                                     000C    69 	OFFSET	PCB$B_PRI,1		;CURRENT PRIORITY
                                     000F    70 	OFFSET	PCB$B_PRIB,1		;BASE PRIORITY
                                     0012    71 	OFFSET	PCB$B_ASTEN,1		;AST ENABLE
                                     0015    72 	OFFSET	PCB$B_ASTACT,1		;AST ACTIVE
                                     0018    73 	OFFSET	PCB$L_STS,4		;PROCESS STATUS
                                     001B    74 	OFFSET	PCB$L_EFCS,4		;LOCAL EVENT FLAGS 0-31
                                     001E    75 	OFFSET	PCB$L_EFCU,4		;LOCAL EVENT FLAGS 32-63
                                     0021    76 	OFFSET	PCB$W_STATE,2		;PROCESS STATE
                                     0024    77 	OFFSET	PCB$W_TMBU,2		;TERMINATION MAILBOX UNIT NUMBER
                                     0027    78 	OFFSET	PCB$W_PPGCNT,2		;PROCESS PAGES IN WORKING SET
                                     002A    79 	OFFSET	PCB$W_GPGCNT,2		;GLOBAL PAGES IN WORKING SET
                                     002D    80 	OFFSET	PCB$W_ASTCNT,2		;AST COUNT REMAINING
                                     0030    81 	OFFSET	PCB$W_BIOCNT,2		;BUFFERED I/O COUNT REMAINING
                                     0033    82 	OFFSET	PCB$W_BYTCNT,2		;BYTE COUNT REMAINING
                                     0036    83 	OFFSET	PCB$W_DIOCNT,2		;DIRECT I/O COUNT REMAINING
                                     0039    84 	OFFSET	PCB$W_FILCNT,2		;FILE COUNT REMAINING
                                     003C    85 	OFFSET	PCB$W_PRCCNT,2		;SUBPROCESS COUNT REMAINING
                                     003F    86 	OFFSET	PCB$W_TQCNT,2		;TIME QUEUE COUNT REMAINING
                                     0042    87 	OFFSET	PCB$W_BYTLM,2		;BYTE COUNT LIMIT
                                     0045    88 	OFFSET	PCB$L_EFWM,4		;EVENT FLAG WAIT MASK
                                     0048    89 	OFFSET	PCB$L_WTIME,4		;EVENT WAIT START TIME
                                 00  004B    90 	.BYTE	0			;END OF PCB OFFSET INFORMATION
                                 00  004C    91 	.BYTE	0			;END OF PHD OFFSET INFORMATION
SYSGETJPP       - SYSTEM SERVICE GET JOB AND PROCESS PARAMETERS  21-AUG-1978 23:42:17   VAX-11 MACRO X0.3-11               Page   3
01              GET JOB AND PROCESS PARAMETERS                                                                                   (1)

                                     004D    93 	.SBTTL	GET JOB AND PROCESS PARAMETERS
                                     004D    94 ;+
                                     004D    95 ; EXE$GETJPP - GET JOB AND PROCESS PARAMETERS
                                     004D    96 ;
                                     004D    97 ; THIS SERVICE PROVIDES THE CAPABILITY TO RETRIEVE INFORMATION ABOUT A
                                     004D    98 ; PROCESS AND THE JOB IT IS ATTACHED TO. THE INFORMATION IS RETURNED IN
                                     004D    99 ; THE SPECIFED BUFFER.
                                     004D   100 ;
                                     004D   101 ; INPUTS:
                                     004D   102 ;
                                     004D   103 ;	PIDADR(AP) = ADDRESS OF PROCESS IDENTIFICATION.
                                     004D   104 ;	LOGNAM(AP) = ADDRESS OF PROCESS NAME STRING DESCRIPTOR.
                                     004D   105 ;	LENGTH(AP) = ADDRESS TO STORE LENGTH OF INFORMATION STRING.
                                     004D   106 ;	BUFFER(AP) = ADDRESS OF INFORMATION BUFFER DESCRIPTOR.
                                     004D   107 ;
                                     004D   108 ;	R4 = CURRENT PROCESS PCB ADDRESS.
                                     004D   109 ;
                                     004D   110 ; OUTPUTS:
                                     004D   111 ;
                                     004D   112 ;	R0 LOW BIT CLEAR INDICATES FAILURE TO RETURN PROCESS AND JOB INFORMATION.
                                     004D   113 ;
                                     004D   114 ;		R0 = SS$_ACCVIO - INFORMATION BUFFER DESCRIPTOR CANNOT BE
                                     004D   115 ;			READ BY CALLING ACCESS MODE, OR INFORMATION BUFFER
                                     004D   116 ;			OR INFORMATION STRING LENGTH CANNOT BE WRITTEN BY
                                     004D   117 ;			CALLING ACCESS MODE.
                                     004D   118 ;
                                     004D   119 ;		R0 = SS$_IVLOGNAM - ZERO OR GREATER THAN MAXIMUM LENGTH
                                     004D   120 ;			PROCESS NAME STRING SPECIFIED.
                                     004D   121 ;
                                     004D   122 ;		R0 = SS$_NONEXPR - NONEXISTENT PROCESS OR INVALID PROCESS
                                     004D   123 ;			IDENTIFICATION SPECIFIED.
                                     004D   124 ;
                                     004D   125 ;		R0 = SS$_NOPRIV - PROCESS DOES NOT HAVE PRIVILEGE TO GET
                                     004D   126 ;			INFORMATION ABOUT SPECIFIED PROCESS.
                                     004D   127 ;
                                     004D   128 ;	R0 LOW BIT SET INDICATES SUCCESSFUL COMPLETION.
                                     004D   129 ;
                                     004D   130 ;		R0 = SS$_BUFFEROVF - NORMAL COMPLETION, ALL PROCESS/JOB
                                     004D   131 ;			INFORMATION DID NOT FIT IN SPECIFIED BUFFER.
                                     004D   132 ;
                                     004D   133 ;		R0 = SS$_NORMAL - NORMAL COMPLETION, ALL PROCESS/JOB
                                     004D   134 ;			INFORMATION TRANSFERED.
                                     004D   135 ;-
                                     004D   136
                               01FC' 004D   137 	.ENTRY	EXE$GETJPP,^M<R2,R3,R4,R5,R6,R7,R8>
                          FFAE'  30  004F   138 	BSBW	EXE$NAMPID		;GET TARGET PROCESS ID
                                     0052   139 	SETIPL	#0			;ALLOW INTERRUPTS
            4B            50     E9  0055   140 	BLBC	R0,30$			;IF LBC INVALID PROCESS
            57         10 AC     D0  0058   141 	MOVL	BUFFER(AP),R7		;GET ADDRESS OF INFORMATION BUFFER DESCRIPTOR
                                     005C   142 	IFNORD	#8,(R7),40$		;CAN INFORMATION BUFFER DESCRIPTOR BE READ?
            56            67     3C  0062   143 	MOVZWL	(R7),R6			;GET LENGTH OF INFORMATION BUFFER
            58            56     D0  0065   144 	MOVL	R6,R8			;COPY LENGTH OF INFORMATION BUFFER
                          0A     13  0068   145 	BEQL	10$			;IF EQL ZERO LENGTH BUFFER
            57         04 A7     D0  006A   146 	MOVL	4(R7),R7		;GET ADDRESS OF INFORMATION BUFFER
                                     006E   147 	IFNOWRT	R6,(R7),40$		;CAN INFORMATION BUFFER BE WRITTEN?
            50            01     3C  0074   148 10$:	MOVZWL	#SS$_NORMAL,R0		;ASSUME NORMAL COMPLETION
            53       FF85 CF     DE  0077   149 	MOVAL	W^OFFSETABLE,R3		;GET ADDRESS OF OFFSET TABLE
SYSGETJPP       - SYSTEM SERVICE GET JOB AND PROCESS PARAMETERS  21-AUG-1978 23:42:17   VAX-11 MACRO X0.3-11               Page   4
01              GET JOB AND PROCESS PARAMETERS                                                                                   (1)

            55            54     D0  007C   150 	MOVL	R4,R5			;SET BASE ADDRESS OF INFORMATION STRUCTURE
                          27     10  007F   151 	BSBB	FILBUF			;MOVE INFORMATION TO BUFFER
            55       0000'CF     D0  0081   152 	MOVL	W^SCH$GL_CURPCB,R5	;GET CURRENT PROCESS PCB ADDRESS
         60 A5         60 A4     D1  0086   153 	CMPL	PCB$L_PID(R4),PCB$L_PID(R5) ;TARGET AND CURRENT PROCESS SAME?
                          06     12  008B   154 	BNEQ	20$			;IF NEQ NO
                                     008D   155 ;***
                                     008D   156 ; LOCK PHD IN R5
                                     008D   157 ;***
                                     008D   158
            55         64 A4     D0  008D   159 	MOVL	PCB$L_PHD(R4),R5	;SET BASE ADDRESS OF INFORMATION STRUCTURE
                          15     10  0091   160 	BSBB	FILBUF			;MOVE INFORMATION TO BUFFER
                                     0093   161 ;***
                                     0093   162 ; UNLOCK PHD FROM R5
                                     0093   163 ;***
            51         0C AC     D0  0093   164 20$:	MOVL	LENGTH(AP),R1		;GET ADDRESS TO STORE INFORMATION STRING LENGTH
                          0A     13  0097   165 	BEQL	30$			;IF EQL NONE SPECIFIED
                                     0099   166 	IFNOWRT	#2,(R1),40$		;CAN INFORMATION STRING LENGTH BE WRITTEN?
            58            56     A3  009F   167 	SUBW3	R6,R8,(R1)		;STORE LENGTH OF INFORMATION STRING
                          61         00A2
                                 04  00A3   168 30$:	RET				;
            50            0C     3C  00A4   169 40$:	MOVZWL	#SS$_ACCVIO,R0		;SET ACCESS VIOLATION
                                 04  00A7   170 	RET				;
                                     00A8   171
                                     00A8   172 ;
                                     00A8   173 ; SUBROUTINE TO FILL INFORMATION BUFFER
                                     00A8   174 ;
                                     00A8   175
            51            83     9A  00A8   176 FILBUF:	MOVZBL	(R3)+,R1		;GET NUMBER OF BYTES TO MOVE
                          17     13  00AB   177 	BEQL	30$			;IF EQL END OF LIST
            52            83     3C  00AD   178 	MOVZWL	(R3)+,R2		;GET OFFSET TO INFORMATION
                          56     D7  00B0   179 10$:	DECL	R6			;ANY SPACE LEFT IN BUFFER?
                          09     19  00B2   180 	BLSS	20$			;IF LSS NO
            87            8245   90  00B4   181 	MOVB	(R2)+[R5],(R7)+		;MOVE BYTE TO BUFFER
            F5            51     F5  00B8   182 	SOBGTR	R1,10$			;ANY MORE BYTES TO MOVE?
                          EB     11  00BB   183 	BRB	FILBUF			;
                          56     D6  00BD   184 20$:	INCL	R6			;ADJUST COUNT OF REMAINING BYTES
            50       0601 8F     3C  00BF   185 	MOVZWL	#SS$_BUFFEROVF,R0	;SET INFORMATION BUFFER OVERFLOW
                                 05  00C4   186 30$:	RSB				;
                                     00C5   187
                                     00C5   188 	.END
SYSGETJPP       - SYSTEM SERVICE GET JOB AND PROCESS PARAMETERS  21-AUG-1978 23:42:17   VAX-11 MACRO X0.3-11               Page   5
SYMBOL TABLE                                                                                                                     (1)

BIT...         = 00000000            PCB$V_SSFEXC   = 00000006            PHD$L_R1         0000008C
BUFFER         = 00000010            PCB$V_SSFEXCE  = 00000007            PHD$L_R10        000000B0
EXE$GETJPP       0000004D RG    01   PCB$V_SSFEXCS  = 00000008            PHD$L_R11        000000B4
EXE$NAMPID       ********   X   01   PCB$V_SSFEXCU  = 00000009            PHD$L_R12        000000B8
FILBUF           000000A8 R     01   PCB$V_SSRWAIT  = 0000000A            PHD$L_R13        000000BC
GBL...         = 00000000            PCB$V_SUSPEN   = 0000000B            PHD$L_R2         00000090
IPL$_ASTDEL    = 00000002            PCB$V_SWPVBN   = 00000010            PHD$L_R3         00000094
IPL$_HWCLK     = 00000018            PCB$V_WAKEPEN  = 0000000C            PHD$L_R4         00000098
IPL$_IOPOST    = 00000004            PCB$V_WALL     = 0000000D            PHD$L_R5         0000009C
IPL$_MAILBOX   = 0000000B            PCB$W_APTCNT     00000034            PHD$L_R6         000000A0
IPL$_POWER     = 0000001F            PCB$W_ASTCNT     0000003C            PHD$L_R7         000000A4
IPL$_QUEUEAST  = 00000006            PCB$W_BIOCNT     0000003E            PHD$L_R8         000000A8
IPL$_SCHED     = 00000003            PCB$W_BIOLM      00000040            PHD$L_R9         000000AC
IPL$_SYNCH     = 00000007            PCB$W_BYTCNT     00000042            PHD$L_SSP        00000080
IPL$_TIMER     = 00000007            PCB$W_BYTLM      00000068            PHD$L_USP        00000084
LENGTH         = 0000000C            PCB$W_DIOCNT     00000044            PHD$L_WSL        000000D8
LOGNAM         = 00000008            PCB$W_DIOLM      00000046            PHD$M_DALCSTX  = 00000002
OFFSETABLE       00000000 R     01   PCB$W_FILCNT     00000048            PHD$M_PFMFLG   = 00000001
PCB$B_ASTACT     0000000C            PCB$W_GPGCNT     00000038            PHD$Q_PRIVMSK    00000000
PCB$B_ASTEN      0000000D            PCB$W_GRP        00000022            PHD$S_ASTLVL   = 00000008
PCB$B_PRI        0000000B            PCB$W_MEM        00000020            PHD$S_P0LR     = 00000018
PCB$B_PRIB       00000033            PCB$W_MTXCNT     0000000E            PHD$V_ASTLVL   = 00000018
PCB$B_TYPE       0000000A            PCB$W_PPGCNT     0000003A            PHD$V_DALCSTX  = 00000001
PCB$B_WEFC       00000032            PCB$W_PRCCNT     0000006A            PHD$V_P0LR     = 00000000
PCB$C_LENGTH     0000007C            PCB$W_SIZE       00000008            PHD$V_PFMFLG   = 00000000
PCB$K_LENGTH     0000007C            PCB$W_STATE      00000030            PHD$W_ASTLM      00000044
PCB$L_ASTQBL     00000014            PCB$W_TMBU       00000036            PHD$W_BAK        00000048
PCB$L_ASTQFL     00000010            PCB$W_TQCNT      0000004A            PHD$W_DFWSCNT    0000001A
PCB$L_EFC2P      00000058            PHD$B_ASTLVL     000000CF            PHD$W_EXTDYNWS   00000076
PCB$L_EFC3P      0000005C            PHD$B_DFPFC      00000038            PHD$W_FILLM      00000060
PCB$L_EFCS       00000050            PHD$B_PAGFIL     0000001F            PHD$W_FLAGS      0000003A
PCB$L_EFCU       00000054            PHD$C_LENGTH     000000D8            PHD$W_PFMFLG     0000003A
PCB$L_EFWM       0000004C            PHD$K_LENGTH     000000D8            PHD$W_PHVINDEX   00000046
PCB$L_OWNER      0000001C            PHD$L_BIOCNT     00000054            PHD$W_PRCLM      00000042
PCB$L_PHD        00000064            PHD$L_CPULIM     00000058            PHD$W_PST        00000020
PCB$L_PHYPCB     00000018            PHD$L_CPUTIM     0000003C            PHD$W_PSTFREE    00000026
PCB$L_PID        00000060            PHD$L_DIOCNT     00000050            PHD$W_PSTLAST    00000024
PCB$L_PQB        0000004C            PHD$L_ESP        0000007C            PHD$W_PTCNTACT   00000070
PCB$L_SQBL       00000004            PHD$L_FREP0VA    00000028            PHD$W_PTCNTLCK   0000006C
PCB$L_SQFL       00000000            PHD$L_FREP1VA    00000030            PHD$W_PTCNTMAX   00000072
PCB$L_STS        00000028            PHD$L_FREPTECNT  0000002C            PHD$W_PTCNTVAL   0000006E
PCB$L_UIC        00000020            PHD$L_KSP        00000078            PHD$W_QUANT      00000040
PCB$L_WSSWP      00000024            PHD$L_P0BR       000000C8            PHD$W_TQLM       00000062
PCB$L_WTIME      0000002C            PHD$L_P0LRASTL   000000CC            PHD$W_WSAUTH     0000000A
PCB$T_LNAME      0000006C            PHD$L_P1BR       000000D0            PHD$W_WSDYN      0000000E
PCB$V_ASTPEN   = 00000011            PHD$L_P1LR       000000D4            PHD$W_WSFLUID    00000074
PCB$V_BATCH    = 0000000E            PHD$L_PAGEFLTS   0000004C            PHD$W_WSLAST     00000012
PCB$V_DELPEN   = 00000001            PHD$L_PAGFIL     0000001C            PHD$W_WSLIST     00000008
PCB$V_FORCPEN  = 00000002            PHD$L_PC         000000C0            PHD$W_WSLOCK     0000000C
PCB$V_HIBER    = 00000013            PHD$L_PCB        00000078            PHD$W_WSLX       0000004A
PCB$V_INQUAN   = 00000003            PHD$L_PGFLCNT    00000034            PHD$W_WSNEXT     00000010
PCB$V_LOGIN    = 00000014            PHD$L_PGFLQUOTA  0000005C            PHD$W_WSQUOTA    00000018
PCB$V_NOACNT   = 0000000F            PHD$L_PSL        000000C4            PIDADR         = 00000004
PCB$V_PHDRES   = 00000012            PHD$L_PSTBASOFF  00000020            PR$_ACCR       = 00000029
PCB$V_PSWAPM   = 00000004            PHD$L_PTWSLELCK  00000064            PR$_ACCS       = 00000028
PCB$V_RES      = 00000000            PHD$L_PTWSLEVAL  00000068            PR$_ASTLVL     = 00000013
PCB$V_RESPEN   = 00000005            PHD$L_R0         00000088            PR$_ESP        = 00000001
SYSGETJPP       - SYSTEM SERVICE GET JOB AND PROCESS PARAMETERS  21-AUG-1978 23:42:17   VAX-11 MACRO X0.3-11               Page   6
SYMBOL TABLE                                                                                                                     (1)

PR$_ICCS       = 00000018            SS$_CANCEL     = 00000830            SS$_ILLCNTRFUNC= 000000E4
PR$_ICR        = 0000001A            SS$_CHANINTLK  = 0000004C            SS$_ILLEFC     = 000000EC
PR$_IPL        = 00000012            SS$_CLIFRCEXT  = 00000980            SS$_ILLIOFUNC  = 000000F4
PR$_ISP        = 00000004            SS$_CMODSUPR   = 0000041C            SS$_ILLLBLAST  = 00000968
PR$_KSP        = 00000000            SS$_CMODUSER   = 00000424            SS$_ILLPAGCNT  = 000000FC
PR$_MAPEN      = 00000038            SS$_COMPAT     = 0000042C            SS$_ILLSEQOP   = 000002DC
PR$_NICR       = 00000019            SS$_CONTINUE   = 00000001            SS$_ILLSER     = 00000104
PR$_P0BR       = 00000008            SS$_CONTROLC   = 00000651            SS$_ILLUSRLBLRD= 00000958
PR$_P0LR       = 00000009            SS$_CONTROLO   = 00000609            SS$_ILLUSRLBLWT= 00000960
PR$_P1BR       = 0000000A            SS$_CONTROLY   = 00000611            SS$_INCVOLLABEL= 0000010C
PR$_P1LR       = 0000000B            SS$_CREATED    = 00000619            SS$_INSFARG    = 00000114
PR$_PCBB       = 00000010            SS$_CTRLERR    = 00000054            SS$_INSFMEM    = 00000124
PR$_RXCS       = 00000020            SS$_DATACHECK  = 0000005C            SS$_INSFRAME   = 0000012C
PR$_RXDB       = 00000021            SS$_DATAOVERUN = 00000838            SS$_INSFWSL    = 0000011C
PR$_SBIER      = 00000034            SS$_DEBUG      = 0000046C            SS$_IVADDR     = 00000134
PR$_SBIFS      = 00000030            SS$_DEVACTIVE  = 000002C4            SS$_IVCHAN     = 0000013C
PR$_SBIMT      = 00000033            SS$_DEVALLOC   = 00000840            SS$_IVCHNLSEC  = 0000026C
PR$_SBIQC      = 00000036            SS$_DEVALRALLOC= 00000641            SS$_IVDEVNAM   = 00000144
PR$_SBIS       = 00000031            SS$_DEVASSIGN  = 00000848            SS$_IVGSDNAM   = 0000014C
PR$_SBISC      = 00000032            SS$_DEVFOREIGN = 00000064            SS$_IVLOGNAM   = 00000154
PR$_SBITA      = 00000035            SS$_DEVICEFULL = 00000850            SS$_IVLOGTAB   = 0000015C
PR$_SBR        = 0000000C            SS$_DEVMOUNT   = 0000006C            SS$_IVPROTECT  = 000002F4
PR$_SCBB       = 00000011            SS$_DEVNOTALLOC= 00000858            SS$_IVQUOTAL   = 00000164
PR$_SID        = 0000003E            SS$_DEVNOTMBX  = 00000074            SS$_IVSECFLG   = 0000016C
PR$_SIRR       = 00000014            SS$_DEVNOTMOUNT= 0000007C            SS$_IVSECIDCTL = 000002E4
PR$_SISR       = 00000015            SS$_DEVOFFLINE = 00000084            SS$_IVSSRQ     = 00000174
PR$_SLR        = 0000000D            SS$_DIRFULL    = 00000860            SS$_IVSTSFLG   = 0000017C
PR$_SSP        = 00000002            SS$_DRVERR     = 0000008C            SS$_IVTIME     = 00000184
PR$_TBIA       = 00000039            SS$_DUPFILENAME= 00000868            SS$_LENVIO     = 0000018C
PR$_TBIS       = 0000003A            SS$_DUPLNAM    = 00000094            SS$_LKWSETFUL  = 00000194
PR$_TODR       = 0000001B            SS$_ENDOFFILE  = 00000870            SS$_MBFULL     = 000008D8
PR$_TXCS       = 00000022            SS$_ENDOFTAPE  = 00000878            SS$_MBTOOSML   = 0000019C
PR$_TXDB       = 00000023            SS$_ENDOFUSRLBL= 00000970            SS$_MCHECK     = 000002BC
PR$_USP        = 00000003            SS$_EXQUOTA    = 0000001C            SS$_MEDOFL     = 000001A4
PR$_WCSA       = 0000002C            SS$_EXTIDXFILE = 00000880            SS$_MSGNOTFND  = 00000621
PR$_WCSD       = 0000002D            SS$_FCPREADERR = 00000888            SS$_MUSTCLOSEFL= 00000948
SCH$GL_CURPCB    ********   X   01   SS$_FCPREPSTN  = 00000988            SS$_NODATA     = 000001AC
SS$_ABORT      = 0000002C            SS$_FCPREWNDERR= 00000890            SS$_NOHANDLER  = 000008F8
SS$_ACCONFLICT = 00000800            SS$_FCPSPACERR = 00000898            SS$_NOHOMEBLK  = 000008E0
SS$_ACCVIO     = 0000000C            SS$_FCPWRITERR = 000008A0            SS$_NOIOCHAN   = 000001B4
SS$_ARITH      = 00000404            SS$_FILACCERR  = 0000009C            SS$_NOLINKS    = 0000027C
SS$_ASTFLT     = 0000040C            SS$_FILALRACC  = 000000A4            SS$_NOLOGNAM   = 000001BC
SS$_BADATTRIB  = 00000034            SS$_FILELOCKED = 000008A8            SS$_NOMBX      = 00000274
SS$_BADCHKSUM  = 00000808            SS$_FILENUMCHK = 000008B0            SS$_NOMOREFILES= 00000930
SS$_BADESCAPE  = 0000003C            SS$_FILESEQCHK = 000008B8            SS$_NONEXDRV   = 000001C4
SS$_BADFILEHDR = 00000810            SS$_FILESTRUCT = 000008C0            SS$_NONEXPR    = 000008E8
SS$_BADFILENAME= 00000818            SS$_FILNOTACC  = 000000AC            SS$_NONLOCAL   = 000008F0
SS$_BADFILEVER = 00000820            SS$_FILNOTCNTG = 000002AC            SS$_NOPRIV     = 00000024
SS$_BADIMGHDR  = 00000044            SS$_FILNOTEXP  = 000000B4            SS$_NORMAL     = 00000001
SS$_BADIRECTORY= 00000828            SS$_FORMAT     = 000000BC            SS$_NOSIGNAL   = 00000900
SS$_BADPARAM   = 00000014            SS$_GPTFULL    = 000000C4            SS$_NOSOLICIT  = 00000284
SS$_BADSTACK   = 000002B4            SS$_GSDFULL    = 000000CC            SS$_NOSUCHDEV  = 00000908
SS$_BEGOFFILE  = 00000938            SS$_GSDNOTXXX  = 000000D4            SS$_NOSUCHFILE = 00000910
SS$_BLOCKCNTERR= 00000940            SS$_HANGUP     = 000002CC            SS$_NOSUCHNODE = 0000028C
SS$_BREAK      = 00000414            SS$_HEADERFULL = 000008C8            SS$_NOSUCHSEC  = 00000978
SS$_BUFFEROVF  = 00000601            SS$_IDXFILEFULL= 000008D0            SS$_NOTAPEOP   = 00000264
SS$_BUGCHECK   = 000002A4            SS$_ILLBLKNUM  = 000000DC            SS$_NOTFILEDEV = 000001CC
SYSGETJPP       - SYSTEM SERVICE GET JOB AND PROCESS PARAMETERS  21-AUG-1978 23:42:17   VAX-11 MACRO X0.3-11               Page   7
SYMBOL TABLE                                                                                                                     (1)

SS$_NOTINTBLSZ = 000001D4
SS$_NOTLABELMT = 000001DC
SS$_NOTNETDEV  = 000002EC
SS$_NOTRAN     = 00000629
SS$_NOTSQDEV   = 000001E4
SS$_OPCCUS     = 00000434
SS$_OPCDEC     = 0000043C
SS$_OPINCOMPL  = 000002D4
SS$_PAGOWNVIO  = 000001EC
SS$_PAGRDERR   = 00000444
SS$_PARITY     = 000001F4
SS$_PARTESCAPE = 000001FC
SS$_PFMBSY     = 00000204
SS$_PSTFULL    = 0000020C
SS$_RADRMOD    = 0000044C
SS$_REJECT     = 00000294
SS$_REMOTE     = 00000649
SS$_RESIGNAL   = 00000918
SS$_RESULTOVF  = 00000214
SS$_ROPRAND    = 00000454
SS$_SECTBLFUL  = 0000021C
SS$_SSFAIL     = 0000045C
SS$_SUPERSEDE  = 00000631
SS$_TAPEPOSLOST= 00000224
SS$_TBIT       = 00000464
SS$_TIMEOUT    = 0000022C
SS$_TOOMANYVER = 00000990
SS$_TOOMUCHDATA= 0000029C
SS$_UNASEFC    = 00000234
SS$_UNSAFE     = 0000023C
SS$_UNWIND     = 00000920
SS$_UNWINDING  = 00000928
SS$_VASFULL    = 00000244
SS$_VECINUSE   = 0000024C
SS$_VOLINV     = 00000254
SS$_WAITUSRLBL = 00000950
SS$_WASCLR     = 00000001
SS$_WASECC     = 00000639
SS$_WASSET     = 00000009
SS$_WRITLCK    = 0000025C


PROGRAM SECTION SYNOPSIS

.  ABS  .        00000000      00     NOPIC   USR   CON   ABS   LCL NOSHR NOEXE NORD  NOWRT BYTE
. BLANK .        000000C5      01     NOPIC   USR   CON   REL   LCL NOSHR   EXE   RD    WRT BYTE
$ABS$            000000DC      02     NOPIC   USR   CON   ABS   LCL NOSHR   EXE   RD    WRT BYTE


THERE WERE NO ERRORS OR WARNINGS.
14618. BYTES LEFT IN FREE MEMORY POOL.
3348. BYTES OF RECLAIMED MEMORY.
OBJ$:SYSGETJPP,LIS$:SYSGETJPP/-SP=LIB$:LIB/ML,SRC$:SYSGETJPP
4 MLB DIR RDS - 661 GETS TO DEFINE 17 MACROS. 43 INTER. FILE WRITES.
