SYSPARAM        - SYSTEM PARAMETERS                              22-AUG-1978 00:20:19   VAX-11 MACRO X0.3-11               Page   0
TABLE OF CONTENTS

   (1)      41  DECLARATIONS
   (1)      62  SYSTEM TIME VARIABLES
   (1)      73  SYSGEN PARAMETERS
   (1)     139  CONTROL PARAMETERS
   (1)     164  TERMINAL DRIVER SYSTEM PARAMETERS
SYSPARAM        - SYSTEM PARAMETERS                              22-AUG-1978 00:20:19   VAX-11 MACRO X0.3-11               Page   1
00                                                                                                                               (1)

                                     0000     1 	.TITLE	SYSPARAM - SYSTEM PARAMETERS
                                     0000     2 	.IDENT	/00/
                                     0000     3
                                     0000     4 ;
                                     0000     5 ; COPYRIGHT (C) 1978
                                     0000     6 ; DIGITAL EQUIPMENT CORPORATION, MAYNARD, MASSACHUSETTS 01754
                                     0000     7 ;
                                     0000     8 ; THIS SOFTWARE IS FURNISHED  UNDER A LICENSE FOR USE ONLY ON A SINGLE
                                     0000     9 ; COMPUTER  SYSTEM AND  MAY BE  COPIED ONLY WITH  THE INCLUSION OF THE
                                     0000    10 ; ABOVE COPYRIGHT NOTICE.  THIS SOFTWARE, OR ANY OTHER COPIES THEREOF,
                                     0000    11 ; MAY NOT BE PROVIDED OR  OTHERWISE MADE AVAILABLE TO ANY OTHER PERSON
                                     0000    12 ; EXCEPT FOR USE ON SUCH SYSTEM AND TO ONE WHO AGREES TO THESE LICENSE
                                     0000    13 ; TERMS.  TITLE TO AND  OWNERSHIP OF THE  SOFTWARE  SHALL AT ALL TIMES
                                     0000    14 ; REMAIN IN DEC.
                                     0000    15 ;
                                     0000    16 ; THE INFORMATION IN THIS SOFTWARE IS SUBJECT TO CHANGE WITHOUT NOTICE
                                     0000    17 ; AND SHOULD  NOT BE CONSTRUED  AS A COMMITMENT  BY DIGITAL  EQUIPMENT
                                     0000    18 ; CORPORATION.
                                     0000    19 ;
                                     0000    20 ; DEC ASSUMES  NO  RESPONSIBILITY  FOR  THE USE OR  RELIABILITY OF ITS
                                     0000    21 ; SOFTWARE ON EQUIPMENT WHICH IS NOT SUPPLIED BY DEC.
                                     0000    22 ;
                                     0000    23
                                     0000    24 ;++
                                     0000    25 ; FACILITY:  EXECUTIVE DATA BASE
                                     0000    26 ;
                                     0000    27 ; ABSTRACT:
                                     0000    28 ;	SYSPARAM CONTAINS THE EXECUTIVE CONTROL PARAMETERS AND CERTAIN
                                     0000    29 ;	KEY VARIABLES.
                                     0000    30 ;
                                     0000    31 ; ENVIRONMENT:
                                     0000    32 ;
                                     0000    33 ; AUTHOR:  R. I. HUSTVEDT, CREATION DATE:  09-OCT-1977
                                     0000    34 ;
                                     0000    35 ; MODIFIED BY:
                                     0000    36 ;
                                     0000    37 ; C. A. MONIA, : VERSION 00
                                     0000    38 ; 01	- 	MODIFIED FOR STAND-ALONE SYSTEM
                                     0000    39 ;--
SYSPARAM        - SYSTEM PARAMETERS                              22-AUG-1978 00:20:19   VAX-11 MACRO X0.3-11               Page   2
00              DECLARATIONS                                                                                                     (1)

                                     0000    41 	.SBTTL	DECLARATIONS
                                     0000    42 ;
                                     0000    43 ; INCLUDE FILES:
                                     0000    44 ;
                                     0000    45 	$TTDEF				; DEFINE TERMINAL CHARACTERISTICS
                                     0000    46
                                     0000    47 ;
                                     0000    48 ; MACROS:
                                     0000    49 ;
                                     0000    50
                                     0000    51 ;
                                     0000    52 ; EQUATED SYMBOLS:
                                     0000    53 ;
                                     0000    54
                                     0000    55 ;
                                     0000    56 ; OWN STORAGE:
                                     0000    57 ;
                                 00000000    58 	.PSECT	$$$017,PAGE		; PAGE ALIGNED
                                     0000    59 EXE$A_SYSPARAM::			; SYSTEM PARAMETER BASE
                                     0000    60
SYSPARAM        - SYSTEM PARAMETERS                              22-AUG-1978 00:20:19   VAX-11 MACRO X0.3-11               Page   3
00              SYSTEM TIME VARIABLES                                                                                            (1)

                                     0000    62 	.SBTTL	SYSTEM TIME VARIABLES
                                     0000    63 ;
                                     0000    64 ;		SYSTEM TIME VARIABLES
                                     0000    65 ;
                                     0000    66 EXE$GQ_TODCBASE::			; TIME OF DAY CLOCK BASE (BOOT TIME)
                           80FBC500  0000    67 	.LONG	^X80FBC500		; 100 NANO-SECOND UNITS
                           00859034  0004    68 	.LONG	^X00859034		; INITIAL TIME 4-JAN-1978 09:58
                                     0008    69 ;
                                     0008    70 EXE$GL_TODR::				; TIME OF DAY REGISTER VALUE CORRESPONDING
                           11C24C88  0008    71 	.LONG	^X11C24C88		; TO EXE$GQ_TODCBASE
SYSPARAM        - SYSTEM PARAMETERS                              22-AUG-1978 00:20:19   VAX-11 MACRO X0.3-11               Page   4
00              SYSGEN PARAMETERS                                                                                                (1)

                                     000C    73 	.SBTTL	SYSGEN PARAMETERS
                                     000C    74 ;
                                     000C    75 ;	SYSGEN PARAMETERS
                                     000C    76 ;
                                     000C    77 SGN$GW_BALSETCT::			; MAXIMUM BALANCE SET COUNT
                               0000' 000C    78 	.WORD	SGN$C_BALSETCNT		;
                                     000E    79
                                     000E    80 SGN$GW_DFPFC::				; DEFAULT PAGE FAULT CLUSTER
                               0010  000E    81 	.WORD	16			;
                                     0010    82
                                     0010    83 SGN$GW_GBLSECNT::			; MAXIMUM COUNT OF GLOBAL SECTIONS
                               0000' 0010    84 	.WORD	SGN$C_GBLSECCNT		;
                                     0012    85
                                     0012    86 SGN$GW_MAXGPGCT::			; MAXIMUM COUNT OF GLOBAL PAGES
                               0000' 0012    87 	.WORD	SGN$C_MAXGPGCNT		;
                                     0014    88
                                     0014    89 SGN$GW_MAXPRCCT::			; MAXIMUM PROCESS COUNT
                               0000' 0014    90 	.WORD	SCH$C_MAXPIX		;
                                     0016    91
                                     0016    92 SGN$GW_MAXPSTCT::			; GUARANTEED COUNT OF PST ENTRIES
                               0000' 0016    93 	.WORD	SGN$C_MAXPSTCNT		;
                                     0018    94
                                     0018    95 SGN$GW_MAXPIX::				; MAXIMUM PROCESS INDEX
                               0000' 0018    96 	.WORD	SCH$C_MAXPIX		;
                                     001A    97
                                     001A    98 SGN$GW_MAXVPGCT::			; MAXIMUM VIRTUAL ADDRESS SPACE
                               0000' 001A    99 	.WORD	SGN$C_MAXVPGCNT		;
                                     001C   100
                                     001C   101 SGN$GW_MINWSCNT::			; MINIMUM WORKING SET COUNT
                               0000' 001C   102 	.WORD	SGN$C_MINWSCNT		;
                                     001E   103
                                     001E   104 SGN$GW_NPROCS::				; MAXIMUM PROCESSES
                               0000' 001E   105 	.WORD	SGN$C_NPROCS		;
                                     0020   106
                                     0020   107 SGN$GW_PAGFILCT::			; COUNT OF ALLOWED PAGING FILES
                               0000  0020   108 	.WORD	0			;
                                     0022   109
                                     0022   110 SGN$GW_PFLIBAS::			; PAGE FAULT INDEX BASE
                               0000  0022   111 	.WORD	0			;
                                     0024   112
                                     0024   113 SGN$GW_SFTMAX::				; NUMBER OF SWAP FILE TABLE SLOTS
                               0000' 0024   114 	.WORD	SGN$C_SFTMAX		;
                                     0026   115
                                     0026   116 SGN$GW_SYSVECPG::			; COUNT OF SYSTEM VECTOR PAGES
                               0000' 0026   117 	.WORD	SGN$C_SYSVECPGS		;
                                     0028   118
                                     0028   119 SGN$GW_SYSDWSCT::			; DEFAULT SYSTEM WORKING SET COUNT
                               0000' 0028   120 	.WORD	SGN$C_SYSDWSCNT		;
                                     002A   121
                                     002A   122 SGN$GW_SYSWSCNT::			; MAX SYSTEM WORKING SET SIZE
                               0000' 002A   123 	.WORD	SGN$C_SYSWSCNT		;
                                     002C   124
                                     002C   125 	.ALIGN	LONG			; LONGWORDS ON LONGWORD BOUNDARY
                                     002C   126 SGN$GL_IRPCNT::				; COUNT OF I/O PACKETS TO ALLOCATE
                           0000000A  002C   127 	.LONG	10			; (S)WAG
                                     0030   128 SGN$GL_MAXWSCNT::			; MAXIMUM WORKING SET COUNT
                           00000100  0030   129 	.LONG	256			;
SYSPARAM        - SYSTEM PARAMETERS                              22-AUG-1978 00:20:19   VAX-11 MACRO X0.3-11               Page   5
00              SYSGEN PARAMETERS                                                                                                (1)

                                     0034   130 SGN$GL_MAXWSREQ::			; MAXIMUM WORKING SET REQUEST
                           00000100  0034   131 	.LONG	256			;
                                     0038   132
                                     0038   133 SGN$GL_NPAGEDYN::			; NON-PAGED POOL SIZE
                           00000000' 0038   134 	.LONG	SGN$C_NPAGEDYN		;
                                     003C   135 SGN$GL_PAGEDYN::			; PAGED DYNAMIC POOL
                           00000000' 003C   136 	.LONG	SGN$C_PAGEDYN		;
                                     0040   137
SYSPARAM        - SYSTEM PARAMETERS                              22-AUG-1978 00:20:19   VAX-11 MACRO X0.3-11               Page   6
00              CONTROL PARAMETERS                                                                                               (1)

                                     0040   139 	.SBTTL	CONTROL PARAMETERS
                                     0040   140 ;
                                     0040   141 ;	GENERAL SYSTEM CONTROL PARAMETERS
                                     0040   142 ;
                                     0040   143 SCH$GW_QUAN::				; PROCESS QUANTUM
                               FFE2  0040   144 	.WORD	-30			; 30 * 10MS TICKS
                                     0042   145 ;
                                     0042   146 ;	MODIFIED PAGE WRITER CONTROL PARAMETERS
                                     0042   147 ;
                                     0042   148 MPW$AW_INITVAL::
                               0008  0042   149 	.WORD	8			;MODIFIED PAGE LIST CLUSTER SIZE
                               0018  0044   150 	.WORD	24			;MODIFIED PAGE LIST HIGH THRESHOLD
                               000C  0046   151 	.WORD	12			;MODIFIED PAGE LIST LOW THRESHOLD
                                     0048   152
                                     0048   153 	.ALIGN	LONG			;
                                     0048   154 ;
                                     0048   155 ;	PERMANENT DEFAULT SYSTEM FLAGS
                                     0048   156 ;
                                     0048   157 EXE$GL_DEFFLAGS::			;
                                     0048   158 	.LONG	<1@EXE$V_SYSPAGING>-	; ENABLE SYSTEM CODE PAGING
                                     0048   159 		!<1@EXE$V_POOLPGING>-	; ENABLE SYSTEM POOL PAGING
                                     0048   160 		!<1@EXE$V_SBIERR>-	; SBI ERROR DETECTION
                           00000001' 0048   161 		!<1@EXE$V_FATAL_BUG>	; FATAL BUG CHECKS
                                     004C   162
SYSPARAM        - SYSTEM PARAMETERS                              22-AUG-1978 00:20:19   VAX-11 MACRO X0.3-11               Page   7
00              TERMINAL DRIVER SYSTEM PARAMETERS                                                                                (1)

                                     004C   164 	.SBTTL	TERMINAL DRIVER SYSTEM PARAMETERS
                                     004C   165 ;
                                     004C   166 ; DIALUP SUPPORT
                                     004C   167 ;
                                     004C   168 TTY$GL_DELTA::				; DELTA TIME FOR DIALUP TIMER
                           00989680  004C   169 	.LONG	100000*100		; 1 SEC
                                     0050   170 TTY$GB_DIALTYP::			; FLAGS FOR DIALUP TIMER SERACH
                                 00  0050   171 	.BYTE	0			; 0 IS NORMAL, 1 FOR UK
                                     0051   172 ;
                                     0051   173 ; NOTE ALIGNMENT!
                                     0051   174 ;
                                     0051   175 ; REMOTE TERMINAL CANONICAL CHARACTERISTICS
                                     0051   176 ; THESE CHARACTERISTICS ARE SET FOR TERMINALS WITH "TT$M_REMOTE" SET
                                     0051   177 ; WHEN THE TERMINAL LINE IS INITIALIZED.
                                     0051   178 ;
                                     0051   179 TTY$GB_DEFSPEED::			; DEFAULT SPEED FOR TERMINALS
                                 06' 0051   180 	.BYTE	TT$C_BAUD_300		; 300 BAUD
                                     0052   181 TTY$GW_DEFBUF::				; DEFAULT BUFFER SIZE
                               0084  0052   182 	.WORD	132			;
                                     0054   183 TTY$GL_DEFCHAR::			; DEFUALT CHARACTERISTICS
                           100022A0' 0054   184 	.LONG	<16@24>+TT$M_LOWER+TT$M_REMOTE+TT$M_TTSYNC+TT$M_WRAP
                                     0058   185 ;
                                     0058   186 ; END OF TERMINAL SYSTEM PARAMETERS
                                     0058   187 ;
                                     0058   188 ;
                                     0058   189
                                     0058   190 ;
                                     0058   191 ;  RMS DEFAULT PARAMETERS
                                     0058   192 ;
                           00000059  0058   193 SYS$GB_DFMBC::		.BLKB	1	; DEFAULT MULTI-BLOCK COUNT
                           0000005A  0059   194 SYS$GB_DFMBFSDK::	.BLKB	1	; DEFAULT MULTI-BUFFER COUNT SEQ. DISK
                           0000005B  005A   195 SYS$GB_DFMBFSMT::	.BLKB	1	; DEFAULT MULTI-BUFFER COUNT MAGTAPE
                           0000005C  005B   196 SYS$GB_DFMBFSUR::	.BLKB	1	; DEFAULT MULTI-BUFFER COUNT UNIT REC.
                           0000005D  005C   197 SYS$GB_DFMBFREL::	.BLKB	1	; DEFAULT MULTI-BUFFER COUNT RELATIVE
                           0000005E  005D   198 SYS$GB_DFMBFIDX::	.BLKB	1	; DEFAULT MULTI-BUFFER COUNT INDEXED
                           0000005F  005E   199 SYS$GB_DFMBFHSH::	.BLKB	1	; DEFAULT MULTI-BUFFER COUNT HASHED
                                     005F   200 		.ALIGN	LONG
                                     0060   201 ;
                                     0060   202 ;  END OF RMS DEFAULT PARAMETERS
                                     0060   203 ;
                                     0060   204
                           00000060  0060   205 EXE$C_SYSPARSZ==.-EXE$A_SYSPARAM	; SIZE OF SYSTEM PARAMETERS
                                     0060   206
                                     0060   207 	.END
SYSPARAM        - SYSTEM PARAMETERS                              22-AUG-1978 00:20:19   VAX-11 MACRO X0.3-11               Page   8
SYMBOL TABLE                                                                                                                     (1)

BIT...         = 00000008            TT$C_BAUD_134  = 00000004            TT$_LA36       = 00000020
EXE$A_SYSPARAM   00000000 RG    03   TT$C_BAUD_150  = 00000005            TT$_LAX        = 00000020
EXE$C_SYSPARSZ = 00000060  G         TT$C_BAUD_1800 = 00000009            TT$_UNKNOWN    = 00000000
EXE$GL_DEFFLAGS  00000048 RG    03   TT$C_BAUD_2000 = 0000000A            TT$_VT05       = 00000001
EXE$GL_TODR      00000008 RG    03   TT$C_BAUD_2400 = 0000000B            TT$_VT52       = 00000040
EXE$GQ_TODCBASE  00000000 RG    03   TT$C_BAUD_300  = 00000006            TT$_VT55       = 00000041
EXE$V_FATAL_BUG  ********   X   03   TT$C_BAUD_3600 = 0000000C            TT$_VT5X       = 00000040
EXE$V_POOLPGING  ********   X   03   TT$C_BAUD_4800 = 0000000D            TTY$GB_DEFSPEED  00000051 RG    03
EXE$V_SBIERR     ********   X   03   TT$C_BAUD_50   = 00000001            TTY$GB_DIALTYP   00000050 RG    03
EXE$V_SYSPAGING  ********   X   03   TT$C_BAUD_600  = 00000007            TTY$GL_DEFCHAR   00000054 RG    03
GBL...         = 00000000            TT$C_BAUD_7200 = 0000000E            TTY$GL_DELTA     0000004C RG    03
MPW$AW_INITVAL   00000042 RG    03   TT$C_BAUD_75   = 00000002            TTY$GW_DEFBUF    00000052 RG    03
SCH$C_MAXPIX     ********   X   03   TT$C_BAUD_9600 = 0000000F
SCH$GW_QUAN      00000040 RG    03   TT$M_CRFILL    = 00000400
SGN$C_BALSETCNT  ********   X   03   TT$M_EIGHTBIT  = 00008000
SGN$C_GBLSECCNT  ********   X   03   TT$M_ESCAPE    = 00000008
SGN$C_MAXGPGCNT  ********   X   03   TT$M_HOLDSCREEN= 00004000
SGN$C_MAXPSTCNT  ********   X   03   TT$M_HOSTSYNC  = 00000010
SGN$C_MAXVPGCNT  ********   X   03   TT$M_LFFILL    = 00000800
SGN$C_MINWSCNT   ********   X   03   TT$M_LOWER     = 00000080
SGN$C_NPAGEDYN   ********   X   03   TT$M_MBXDSABL  = 00010000
SGN$C_NPROCS     ********   X   03   TT$M_MECHTAB   = 00000100
SGN$C_PAGEDYN    ********   X   03   TT$M_NOBRDCST  = 00020000
SGN$C_SFTMAX     ********   X   03   TT$M_NOECHO    = 00000002
SGN$C_SYSDWSCNT  ********   X   03   TT$M_NOTYPEAHD = 00000004
SGN$C_SYSVECPGS  ********   X   03   TT$M_ODD       = 00000080
SGN$C_SYSWSCNT   ********   X   03   TT$M_PAGE      = FE000000
SGN$GL_IRPCNT    0000002C RG    03   TT$M_PARITY    = 00000040
SGN$GL_MAXWSCNT  00000030 RG    03   TT$M_PASSALL   = 00000001
SGN$GL_MAXWSREQ  00000034 RG    03   TT$M_REMOTE    = 00002000
SGN$GL_NPAGEDYN  00000038 RG    03   TT$M_SCOPE     = 00001000
SGN$GL_PAGEDYN   0000003C RG    03   TT$M_SCRIPT    = 00000040
SGN$GW_BALSETCT  0000000C RG    03   TT$M_TTSYNC    = 00000020
SGN$GW_DFPFC     0000000E RG    03   TT$M_WRAP      = 00000200
SGN$GW_GBLSECNT  00000010 RG    03   TT$S_PAGE      = 00000008
SGN$GW_MAXGPGCT  00000012 RG    03   TT$V_CRFILL    = 0000000A
SGN$GW_MAXPIX    00000018 RG    03   TT$V_EIGHTBIT  = 0000000F
SGN$GW_MAXPRCCT  00000014 RG    03   TT$V_ESCAPE    = 00000003
SGN$GW_MAXPSTCT  00000016 RG    03   TT$V_HOLDSCREEN= 0000000E
SGN$GW_MAXVPGCT  0000001A RG    03   TT$V_HOSTSYNC  = 00000004
SGN$GW_MINWSCNT  0000001C RG    03   TT$V_LFFILL    = 0000000B
SGN$GW_NPROCS    0000001E RG    03   TT$V_LOWER     = 00000007
SGN$GW_PAGFILCT  00000020 RG    03   TT$V_MBXDSABL  = 00000010
SGN$GW_PFLIBAS   00000022 RG    03   TT$V_MECHTAB   = 00000008
SGN$GW_SFTMAX    00000024 RG    03   TT$V_NOBRDCST  = 00000011
SGN$GW_SYSDWSCT  00000028 RG    03   TT$V_NOECHO    = 00000001
SGN$GW_SYSVECPG  00000026 RG    03   TT$V_NOTYPEAHD = 00000002
SGN$GW_SYSWSCNT  0000002A RG    03   TT$V_ODD       = 00000007
SYS$GB_DFMBC     00000058 RG    03   TT$V_PAGE      = 00000019
SYS$GB_DFMBFHSH  0000005E RG    03   TT$V_PARITY    = 00000006
SYS$GB_DFMBFIDX  0000005D RG    03   TT$V_PASSALL   = 00000000
SYS$GB_DFMBFREL  0000005C RG    03   TT$V_REMOTE    = 0000000D
SYS$GB_DFMBFSDK  00000059 RG    03   TT$V_SCOPE     = 0000000C
SYS$GB_DFMBFSMT  0000005A RG    03   TT$V_SCRIPT    = 00000006
SYS$GB_DFMBFSUR  0000005B RG    03   TT$V_TTSYNC    = 00000005
TT$C_BAUD_110  = 00000003            TT$V_WRAP      = 00000009
TT$C_BAUD_1200 = 00000008            TT$_LA120      = 00000021
SYSPARAM        - SYSTEM PARAMETERS                              22-AUG-1978 00:20:19   VAX-11 MACRO X0.3-11               Page   9
PROGRAM SECTION SYNOPSIS                                                                                                         (1)


PROGRAM SECTION SYNOPSIS

.  ABS  .        00000000      00     NOPIC   USR   CON   ABS   LCL NOSHR NOEXE NORD  NOWRT BYTE
. BLANK .        00000000      01     NOPIC   USR   CON   REL   LCL NOSHR   EXE   RD    WRT BYTE
$ABS$            00000000      02     NOPIC   USR   CON   ABS   LCL NOSHR   EXE   RD    WRT BYTE
$$$017           00000060      03     NOPIC   USR   CON   REL   LCL NOSHR   EXE   RD    WRT PAGE


THERE WERE NO ERRORS OR WARNINGS.
24124. BYTES LEFT IN FREE MEMORY POOL.
OBJ$:SYSPARAM,LIS$:SYSPARAM/-SP=LIB$:LIB/ML,SRC$:SYSPARAM
2 MLB DIR RDS - 136 GETS TO DEFINE 9 MACROS. 10 INTER. FILE WRITES.
