SYSQIOFDT       - SYSTEM SERVICE QUEUE I/O FDT SUBROUTINES       21-AUG-1978 23:45:25   VAX-11 MACRO X0.3-11               Page   0
TABLE OF CONTENTS

   (1)      53  PLACE PROCESS IN I/O RESOURCE WAIT
   (1)     110  ONE PARAMETER FUNCTION PROCESSING
   (1)     143  ZERO PARAMETER FUNCTION PROCESSING
   (1)     176  READ AND WRITE FUNCTION PROCESSING
   (1)     224  READ AND WRITE FUNCTION BUFFER CHECK AND LOCK R
   (1)     282  CHECK BUFFER ACCESSIBILITY FOR READ FUNCTION
   (1)     327  CHECK BUFFER ACCESSIBILITY FOR WRITE FUNCTION
   (1)     377  SET DEVICE MODE AND CHARACTERISTICS FUNCTIONS (
   (1)     417  SET DEVICE MODE AND CHARACTERISTICS FUNCTIONS
   (1)     456  SENSE DEVICE MODE AND CHARACTERISTICS FUNCTIONS
SYSQIOFDT       - SYSTEM SERVICE QUEUE I/O FDT SUBROUTINES       21-AUG-1978 23:45:25   VAX-11 MACRO X0.3-11               Page   1
01                                                                                                                               (1)

                                     0000     1 	.TITLE	SYSQIOFDT - SYSTEM SERVICE QUEUE I/O FDT SUBROUTINES
                                     0000     2 	.IDENT	/01/
                                     0000     3
                                     0000     4 ;
                                     0000     5 ; COPYRIGHT (C) 1977
                                     0000     6 ; DIGITAL EQUIPMENT CORPORATION, MAYNARD, MASS.
                                     0000     7 ;
                                     0000     8 ; THIS SOFTWARE IS FURNISHED UNDER  A LICENSE FOR USE ONLY  ON  A
                                     0000     9 ; SINGLE COMPUTER SYSTEM AND MAY BE  COPIED ONLY WITH  THE INCLU-
                                     0000    10 ; SION OF  THE  ABOVE  COPYRIGHT NOTICE.  THIS SOFTWARE,  OR  ANY
                                     0000    11 ; OTHER COPIES THEREOF, MAY NOT BE  PROVIDED  OR  OTHERWISE  MADE
                                     0000    12 ; AVAILABLE TO ANY OTHER PERSON EXCEPT  FOR  USE  ON  SUCH SYSTEM
                                     0000    13 ; AND TO  ONE WHO AGREES  TO  THESE LICENSE  TERMS.  TITLE TO AND
                                     0000    14 ; OWNERSHIP OF THE SOFTWARE SHALL AT ALL TIMES REMAIN IN DEC.
                                     0000    15 ;
                                     0000    16 ; THE INFORMATION IN THIS SOFTWARE  IS  SUBJECT TO CHANGE WITHOUT
                                     0000    17 ; NOTICE AND SHOULD NOT BE CONSTRUED  AS  A COMMITMENT BY DIGITAL
                                     0000    18 ; EQUIPMENT CORPORATION.
                                     0000    19 ;
                                     0000    20 ; DEC ASSUMES NO RESPONSIBILITY FOR THE USE OR RELIABILITY OF ITS
                                     0000    21 ; SOFTWARE ON EQUIPMENT WHICH IS NOT SUPPLIED BY DEC.
                                     0000    22 ;
                                     0000    23 ; D. N. CUTLER 15-SEP-76
                                     0000    24 ;
                                     0000    25 ; SYSTEM SERVICE QUEUE I/O FUNCTION DECISION TABLE SUBROUTINES
                                     0000    26 ;
                                     0000    27 ; MACRO LIBRARY CALLS
                                     0000    28 ;
                                     0000    29
                                     0000    30 	$ACBDEF				;DEFINE ACB OFFSETS
                                     0000    31 	$CCBDEF				;DEFINE CCB OFFSETS
                                     0000    32 	$DEVDEF				;DEFINE DEVICE CHARACTERISTICS
                                     0000    33 	$IODEF				;DEFINE I/O FUNCTION CODES
                                     0000    34 	$IRPDEF				;DEFINE IRP OFFSETS
                                     0000    35 	$PCBDEF				;DEFINE PCB VALUES
                                     0000    36 	$SSDEF				;DEFINE SYSTEM STATUS VALUES
                                     0000    37 	$UCBDEF				;DEFINE UCB OFFSETS
                                     0000    38 	$VADEF				;DEFINE VIRTUAL ADDRESS FIELDS
                                     0000    39
                                     0000    40 ;
                                     0000    41 ; LOCAL SYMBOLS
                                     0000    42 ;
                                     0000    43 ; ARGUMENT LIST OFFSET DEFINITIONS
                                     0000    44 ;
                                     0000    45
                           00000000  0000    46 P1=0					;FIRST FUNCTION DEPENDENT PARAMETER
                           00000004  0000    47 P2=4					;SECOND FUNCTION DEPENDENT PARAMETER
                           00000008  0000    48 P3=8					;THIRD FUNCTION DEPENDENT PARAMETER
                           0000000C  0000    49 P4=12					;FOURTH FUNCTION DEPENDENT PARAMETER
                           00000010  0000    50 P5=16					;FIFTH FUNCTION DEPENDENT PARAMETER
                           00000014  0000    51 P6=20					;SIXTH FUNCTION DEPENDENT PARAMETER
SYSQIOFDT       - SYSTEM SERVICE QUEUE I/O FDT SUBROUTINES       21-AUG-1978 23:45:25   VAX-11 MACRO X0.3-11               Page   2
01              PLACE PROCESS IN I/O RESOURCE WAIT                                                                               (1)

                                     0000    53 	.SBTTL	PLACE PROCESS IN I/O RESOURCE WAIT
                                     0000    54 ;+
                                     0000    55 ; EXE$IORSNWAIT - PLACE PROCESS IN I/O RESOURCE WAIT
                                     0000    56 ;
                                     0000    57 ; FUNCTIONAL DESCRIPTION:
                                     0000    58 ;
                                     0000    59 ; THIS ROUTINE IS USED BY FDT PROCEEDURES TO RE-START A QIO REQUEST
                                     0000    60 ; AFTER A RESOURCE WAIT. THE CURRENT I/O IS CLEANED UP AND THE PRE-QIO
                                     0000    61 ; STACK IS SET UP. THEN THE PROCESS IS PLACED IN THE WAIT STATE.
                                     0000    62 ; IF THE PROCESS DOES NOT HAVE RESOURCE WIAT ENABLED, THE I/O IS ABORTED
                                     0000    63 ; WITH A STATUS SPECIFIED BY THE CALLER.
                                     0000    64 ;
                                     0000    65 ;
                                     0000    66 ; IMPLICIT INPUTS:
                                     0000    67 ;
                                     0000    68 ;	CALLER MUST BE AT IPL=IPL$_SYNCH OR GREATER.
                                     0000    69 ;
                                     0000    70 ; INPUTS:
                                     0000    71 ;
                                     0000    72 ;	R0 = STATUS TO RETURN IF NO WAIT REQUESTED
                                     0000    73 ;	R1 = RESOURCE NUMBER TO WAIT FOR
                                     0000    74 ;	R3 = ADDRESS OF CURRENT PACKET
                                     0000    75 ;	R4 = ADDRESS OF THE CURRENT PCB
                                     0000    76 ;	R6 = ADDRESS OF CHANNEL CONTROL BLOCK
                                     0000    77 ;
                                     0000    78 ; OUTPUTS:
                                     0000    79 ;
                                     0000    80 ;	R0,R1,R2,R3 ARE USED.
                                     0000    81 ;
                                     0000    82 ;	CONTROL IS TRANSFERED TO EXE$ABORTIO IF NO RESOURCE WAIT
                                     0000    83 ;	HAS BEEN REQUESTED,
                                     0000    84 ;
                                     0000    85 ;	OR TO SCH$WAIT IF RESOURCE WAIT IS REQUESTED.
                                     0000    86 ;
                                     0000    87 ;-
                                     0000    88
                                     0000    89 EXE$IORSNWAIT::				;PLACE PROCESS IN RESOURCE WIAT
         28 A4            0A     E0  0000    90 	BBS	#PCB$V_SSRWAIT,PCB$L_STS(R4),20$ ;BR IF NO WAIT REQUEST
                          31         0004
         4C A4            51     9A  0005    91 	MOVZBL	R1,PCB$L_EFWM(R4)	;SET UP WAIT MARKER
                       0A A6     B7  0009    92 	DECW	CCB$W_IOC(R6)		;DECREMENT CHANNEL I/O COUNT
         2A A3            00     E1  000C    93 	BBC	#IRP$V_BUFIO,IRP$W_STS(R3),5$ ;BR IF NOT BUFFERED I/O
                          05         0010
                       3E A4     B6  0011    94 	INCW	PCB$W_BIOCNT(R4)	;ADJUST COUNT OF BUFFERED I/O
                          03     11  0014    95 	BRB	10$			;CONTINUE
                       44 A4     B6  0016    96 5$:	INCW	PCB$W_DIOCNT(R4)	;ADJUST DIRECT I/O COUNT
         0B A3            06     E1  0019    97 10$:	BBC	#ACB$V_QUOTA,IRP$B_RMOD(R3),15$ ;BR IF AST NOT REQUESTED
                          03         001D
                       3C A4     B6  001E    98 	INCW	PCB$W_ASTCNT(R4)	;ADJUST AST COUNT
            50            53     D0  0021    99 15$:	MOVL	R3,R0			;DEALLOCATE PACKET
                          FFD9'  30  0024   100 	BSBW	EXE$DEANONPAGED		;
            5C         08 AD     D0  0027   101 	MOVL	8(FP),AP		;RESTORE THE PRE-QIO STACK
            5E            5D     D0  002B   102 	MOVL	FP,SP			;
            52       0000'CF     7E  002E   103 	MOVAQ	W^SCH$GQ_MWAIT,R2	;ADDRESS WAIT LIST
                          FFCA'  31  0033   104 	BRW	SCH$WAIT		;PLACE PROCESS IN WAIT STATE
                                     0036   105 ;
                                     0036   106 ; NO RESOURCE WIAT REQUESTED - ABORT THE I/O
SYSQIOFDT       - SYSTEM SERVICE QUEUE I/O FDT SUBROUTINES       21-AUG-1978 23:45:25   VAX-11 MACRO X0.3-11               Page   3
01              PLACE PROCESS IN I/O RESOURCE WAIT                                                                               (1)

                                     0036   107 ;
                          FFC7'  31  0036   108 20$:	BRW	EXE$ABORTIO		;
SYSQIOFDT       - SYSTEM SERVICE QUEUE I/O FDT SUBROUTINES       21-AUG-1978 23:45:25   VAX-11 MACRO X0.3-11               Page   4
01              ONE PARAMETER FUNCTION PROCESSING                                                                                (1)

                                     0039   110 	.SBTTL	ONE PARAMETER FUNCTION PROCESSING
                                     0039   111 ;+
                                     0039   112 ; EXE$ONEPARM - ONE PARAMETER FUNCTION PROCESSING
                                     0039   113 ;
                                     0039   114 ; THIS ROUTINE IS CALLED FROM THE FUNCTION DECISION TABLE DISPATCHER TO
                                     0039   115 ; PROCESS A ONE PARAMETER FUNCTION THAT REQUIRES NO SPECIAL CHECKING.
                                     0039   116 ;
                                     0039   117 ; INPUTS:
                                     0039   118 ;
                                     0039   119 ;	R0 = SCRATCH.
                                     0039   120 ;	R1 = SCRATCH.
                                     0039   121 ;	R2 = SCRATCH.
                                     0039   122 ;	R3 = ADDRESS OF I/O REQUEST PACKET.
                                     0039   123 ;	R4 = CURRENT PROCESS PCB ADDRESS.
                                     0039   124 ;	R5 = ASSIGNED DEVICE UCB ADDRESS.
                                     0039   125 ;	R6 = ADDRESS OF CCB.
                                     0039   126 ;	R7 = I/O FUNCTION CODE BIT NUMBER.
                                     0039   127 ;	R8 = FUNCTION DECISION TABLE DISPATCH ADDRESS.
                                     0039   128 ;	R9 = SCRATCH.
                                     0039   129 ;	R10 = SCRATCH.
                                     0039   130 ;	R11 = SCRATCH.
                                     0039   131 ;	AP = ADDRESS OF FIRST FUNCTION DEPENDENT PARAMETER.
                                     0039   132 ;
                                     0039   133 ; OUTPUTS:
                                     0039   134 ;
                                     0039   135 ; ***TBS***
                                     0039   136 ;-
                                     0039   137
                                     0039   138 	.ENABL	LSB
                                     0039   139 EXE$ONEPARM::				;ONE PARAMETER FUNCTION PROCESSING
         34 A3            6C     D0  0039   140 	MOVL	P1(AP),IRP$L_MEDIA(R3)	;STORE PARAMETER IN MEDIA ADDRESS
                          03     11  003D   141 	BRB	10$			;
SYSQIOFDT       - SYSTEM SERVICE QUEUE I/O FDT SUBROUTINES       21-AUG-1978 23:45:25   VAX-11 MACRO X0.3-11               Page   5
01              ZERO PARAMETER FUNCTION PROCESSING                                                                               (1)

                                     003F   143 	.SBTTL	ZERO PARAMETER FUNCTION PROCESSING
                                     003F   144 ;+
                                     003F   145 ; EXE$ZEROPARAM - ZERO PARAMETER FUNCTION PROCESSING
                                     003F   146 ;
                                     003F   147 ; THIS ROUTINE IS CALLED FROM THE FUNCTION DECISION TABLE DISPATCHER TO
                                     003F   148 ; PROCESS A ZERO PARAMETER FUNCTION THAT REQUIRES NO ADDITION CHECKING.
                                     003F   149 ;
                                     003F   150 ; INPUTS:
                                     003F   151 ;
                                     003F   152 ;	R0 = SCRATCH.
                                     003F   153 ;	R1 = SCRATCH.
                                     003F   154 ;	R2 = SCRATCH.
                                     003F   155 ;	R3 = ADDRESS OF I/O REQUEST PACKET.
                                     003F   156 ;	R4 = CURRENT PROCESS PCB ADDRESS.
                                     003F   157 ;	R5 = ASSIGNED DEVICE UCB ADDRESS.
                                     003F   158 ;	R6 = ADDRESS OF CCB.
                                     003F   159 ;	R7 = I/O FUNCTION CODE BIT NUMBER.
                                     003F   160 ;	R8 = FUNCTION DECISION TABLE DISPATCH ADDRESS.
                                     003F   161 ;	R9 = SCRATCH.
                                     003F   162 ;	R10 = SCRATCH.
                                     003F   163 ;	R11 = SCRATCH.
                                     003F   164 ;	AP = ADDRESS OF FIRST FUNCTION DEPENDENT PARAMETER.
                                     003F   165 ;
                                     003F   166 ; OUTPUTS:
                                     003F   167 ;
                                     003F   168 ; ***TBS***
                                     003F   169 ;-
                                     003F   170
                                     003F   171 EXE$ZEROPARM::				;ZERO PARAMETER FUNCTION PROCESSING
                       34 A3     D4  003F   172 	CLRL	IRP$L_MEDIA(R3)		;CLEAR PARAMETER
                          FFBB'  31  0042   173 10$:	BRW	EXE$QIODRVPKT		;QUEUE I/O PACKET TO DRIVER
                                     0045   174 	.DSABL	LSB
SYSQIOFDT       - SYSTEM SERVICE QUEUE I/O FDT SUBROUTINES       21-AUG-1978 23:45:25   VAX-11 MACRO X0.3-11               Page   6
01              READ AND WRITE FUNCTION PROCESSING                                                                               (1)

                                     0045   176 	.SBTTL	READ AND WRITE FUNCTION PROCESSING
                                     0045   177 ;+
                                     0045   178 ; EXE$READ - READ FUNCTION PROCESSING
                                     0045   179 ; EXE$WRITE - WRITE FUNCTION PROCESSING
                                     0045   180 ;
                                     0045   181 ; THESE ROUTINES ARE CALLED FROM THE FUNCTION DECISION TABLE DISPATCHER TO
                                     0045   182 ; PROCESS A READ OR WRITE PHYSICAL OR LOGICAL FUNCTION.
                                     0045   183 ;
                                     0045   184 ; INPUTS:
                                     0045   185 ;
                                     0045   186 ;	R0 = SCRATCH.
                                     0045   187 ;	R1 = SCRATCH.
                                     0045   188 ;	R2 = SCRATCH.
                                     0045   189 ;	R3 = ADDRESS OF I/O REQUEST PACKET.
                                     0045   190 ;	R4 = CURRENT PROCESS PCB ADDRESS.
                                     0045   191 ;	R5 = ASSIGNED DEVICE UCB ADDRESS.
                                     0045   192 ;	R6 = ADDRESS OF CCB.
                                     0045   193 ;	R7 = I/O FUNCTION CODE BIT NUMBER.
                                     0045   194 ;	R8 = FUNCTION DECISION TABLE DISPATCH ADDRESS.
                                     0045   195 ;	R9 = SCRATCH.
                                     0045   196 ;	R10 = SCRATCH.
                                     0045   197 ;	R11 = SCRATCH.
                                     0045   198 ;	AP = ADDRESS OF FIRST FUNCTION DEPENDENT PARAMETER.
                                     0045   199 ;
                                     0045   200 ; OUTPUTS:
                                     0045   201 ;
                                     0045   202 ; ***TBS***
                                     0045   203 ;-
                                     0045   204
                                     0045   205 	.ENABL	LSB
                                     0045   206 EXE$READ::				;READ FUNCTION PROCESSING
            52         71'AF     DE  0045   207 	MOVAL	B^EXE$READLOCK,R2	;SET ADDRESS OF BUFFER CHECK ROUTINE
         2A A3            01     E3  0049   208 	BBCS	#IRP$V_FUNC,IRP$W_STS(R3),10$ ;SET READ FUNCTION STATUS
                          04         004D
                                     004E   209 EXE$WRITE::				;WRITE FUNCTION PROCESSING
            52         75'AF     DE  004E   210 	MOVAL	B^EXE$WRITELOCK,R2	;SET ADDRESS OF BUFFER CHECK ROUTINE
         38 A3         0C AC     D0  0052   211 10$:	MOVL	P4(AP),IRP$B_CARCON(R3)	;INSERT CARRIAGE CONTROL BYTE
                          00     ED  0057   212 	CMPZV	#IRP$V_FCODE,#IRP$S_FCODE,- ;PHYSICAL I/O FUNCTION?
         20 A3            06         0059   213 		IRP$W_FUNC(R3),#IO$_PHYSICAL ;
                          1F         005C
                          04     15  005D   214 	BLEQ	20$			;IF LEQ YES
                                 A2  005F   215 	SUBW	#IO$_READLBLK-IO$_READPBLK,- ;CONVERT TO PHYSICAL FUNCTION
         20 A3            15         0060   216 		IRP$W_FUNC(R3)		;
            51         04 AC     3C  0063   217 20$:	MOVZWL	P2(AP),R1		;GET NUMBER OF BYTES TO TRANSFER
                          05     13  0067   218 	BEQL	30$			;IF EQL NONE
            50            6C     D0  0069   219 	MOVL	P1(AP),R0		;GET STARTING VIRTUAL ADDRESS OF TRANSFER
                          62     16  006C   220 	JSB	(R2)			;CHECK BUFFER AND LOCK IN MEMORY
                          FF8F'  31  006E   221 30$:	BRW	EXE$QIODRVPKT		;QUEUE I/O PACKET TO DRIVER
                                     0071   222 	.DSABL	LSB
SYSQIOFDT       - SYSTEM SERVICE QUEUE I/O FDT SUBROUTINES       21-AUG-1978 23:45:25   VAX-11 MACRO X0.3-11               Page   7
01              READ AND WRITE FUNCTION BUFFER CHECK AND LOCK R                                                                  (1)

                                     0071   224 	.SBTTL	READ AND WRITE FUNCTION BUFFER CHECK AND LOCK ROUTINES
                                     0071   225 ;+
                                     0071   226 ; EXE$READLOCK - CHECK BUFFER FOR READ ACCESSIBILITY AND LOCK
                                     0071   227 ; EXE$WRITELOCK - CHECK BUFFER FOR WRITE ACCESSIBILITY AND LOCK
                                     0071   228 ;
                                     0071   229 ; THESE ROUTINES ARE CALLED TO CHECK THE ACCESSIBILITY OF AN I/O BUFFER AND
                                     0071   230 ; TO LOCK THE BUFFER IN MEMORY FOR A DIRECT MEMORY TRANSFER.
                                     0071   231 ;
                                     0071   232 ; INPUTS:
                                     0071   233 ;
                                     0071   234 ;	R0 = STARTING ADDRESS OF I/O BUFFER.
                                     0071   235 ;	R1 = LENGTH OF TRANSFER IN BYTES.
                                     0071   236 ;	R4 = CURRENT PROCESS PCB ADDRESS.
                                     0071   237 ;	R6 = ADDRESS OF CCB.
                                     0071   238 ;
                                     0071   239 ; OUTPUTS:
                                     0071   240 ;
                                     0071   241 ;	THE I/O BUFFER IS CHECKED FOR THE PROPER ACCESSIBILITY. IF THE
                                     0071   242 ;	CHECK SUCCEEDS, THEN THE BUFFER IS LOCKED IN MEMORY AND THE STARTING
                                     0071   243 ;	ADDRESS OF THE PAGE TABLE ENTRIES THAT MAP THE TRANSFER IS STORED
                                     0071   244 ;	IN THE I/O PACKET. ELSE THE I/O IS COMPLETED WITH A STATUS OF
                                     0071   245 ;	ACCESS VIOLATION.
                                     0071   246 ;-
                                     0071   247
                                     0071   248 	.ENABL	LSB
                                     0071   249 EXE$READLOCK::				;CHECK BUFFER FOR READ FUNCTION AND LOCK
                          50     10  0071   250 	BSBB	EXE$READCHK		;CHECK BUFFER FOR READ FUNCTION
                          02     11  0073   251 	BRB	10$			;
                                     0075   252 EXE$WRITELOCK::				;CHECK BUFFER FOR WRITE FUNCTION AND LOCK
                          77     10  0075   253 	BSBB	EXE$WRITECHK		;CHECK BUFFER FOR WRITE FUNCTION
            50       FE00 8F     AB  0077   254 10$:	BICW3	#^C<VA$M_BYTE>,R0,IRP$W_BOFF(R3) ;SET BYTE OFFSET IN PAGE
                       30 A3         007C
                          53     DD  007E   255 	PUSHL	R3			;SAVE ADDRESS OF I/O PACKET
                          FF7D'  30  0080   256 	BSBW	MMG$IOLOCK		;LOCK PAGES FOR I/O
            53            8E     D0  0083   257 	MOVL	(SP)+,R3		;RETRIEVE ADDRESS OF I/O PACKET
            05            50     E9  0086   258 	BLBC	R0,20$			;IF LBC LOCK FAILURE
         2C A3            51     D0  0089   259 	MOVL	R1,IRP$L_SVAPTE(R3)	;INSERT ADDRESS OF FIRST PTE IN PACKET
                                 05  008D   260 	RSB				;
                          50     D5  008E   261 20$:	TSTL	R0			;ERRORS ENCOUNTERED?
                          2E     12  0090   262 	BNEQ	50$			;IF NEQ YES
                          51     DD  0092   263 	PUSHL	R1			;SAVE VIRTUAL ADDRESS OF PAGE TO FAULT
                       44 A4     B6  0094   264 	INCW	PCB$W_DIOCNT(R4)	;ADJUST DIRECT I/O COUNT
                       0A A6     B7  0097   265 	DECW	CCB$W_IOC(R6)		;DECREMENT CHANNEL I/O COUNT
         0B A3            06     E1  009A   266 	BBC	#ACB$V_QUOTA,IRP$B_RMOD(R3),30$ ;IF CLR, NO AST SPECIFIED
                          03         009E
                       3C A4     B6  009F   267 	INCW	PCB$W_ASTCNT(R4)	;ADJUST AST COUNT
            50            53     D0  00A2   268 30$:	MOVL	R3,R0			;SET ADDRESS OF BLOCK TO DEALLOCATE
                          FF58'  30  00A5   269 	BSBW	EXE$DEANONPAGED		;DEALLOCATE I/O PACKET
                          02     BA  00A8   270 	POPR	#^M<R1>			;RETRIEVE VIRTUAL ADDRESS OF PAGE TO FAULT
            5E            5D     D0  00AA   271 	MOVL	FP,SP			;TRIM STACK BACK TO CHANGE MODE FRAME
            5C         08 AD     7D  00AD   272 	MOVQ	8(FP),AP		;RESTORE USER ARGUMENT AND FRAME POINTERS
            5E            00'    C0  00B1   273 	ADDL	S^#EXE$C_CMSTKSZ,SP	;REMOVE CHANGE MODE CALL FRAME FROM STACK
            8E            04     C3  00B4   274 	SUBL3	#4,(SP)+,R0		;CALCULATE RESTART ADDRESS
                          50         00B7
                       BC'AF     9F  00B8   275 	PUSHAB	B^40$			;SET NEW RETURN ADDRESS
                                 02  00BB   276 	REI				;
                          61     95  00BC   277 40$:	TSTB	(R1)			;FAULT USER BUFFER AGAIN
SYSQIOFDT       - SYSTEM SERVICE QUEUE I/O FDT SUBROUTINES       21-AUG-1978 23:45:25   VAX-11 MACRO X0.3-11               Page   8
01              READ AND WRITE FUNCTION BUFFER CHECK AND LOCK R                                                                  (1)

                          60     17  00BE   278 	JMP	(R0)			;REPEAT SYSTEM SERVICE
                          FF3D'  31  00C0   279 50$:	BRW	EXE$ABORTIO		;ABORT I/O REQUEST
                                     00C3   280 	.DSABL	LSB
SYSQIOFDT       - SYSTEM SERVICE QUEUE I/O FDT SUBROUTINES       21-AUG-1978 23:45:25   VAX-11 MACRO X0.3-11               Page   9
01              CHECK BUFFER ACCESSIBILITY FOR READ FUNCTION                                                                     (1)

                                     00C3   282 	.SBTTL	CHECK BUFFER ACCESSIBILITY FOR READ FUNCTION
                                     00C3   283 ;+
                                     00C3   284 ; EXE$READCHK - CHECK BUFFER ACCESSIBILITY FOR READ FUNCTION
                                     00C3   285 ;
                                     00C3   286 ; THIS ROUTINE IS CALLED TO CHECK BUFFER ACCESSIBILITY FOR A READ I/O
                                     00C3   287 ; FUNCTION.
                                     00C3   288 ;
                                     00C3   289 ; INPUTS:
                                     00C3   290 ;
                                     00C3   291 ;	R0 = ADDRESS OF BUFFER.
                                     00C3   292 ;	R1 = SIZE OF TRANSFER IN BYTES.
                                     00C3   293 ;	R3 = ADDRESS OF I/O REQUEST PACKET.
                                     00C3   294 ;
                                     00C3   295 ; OUTPUTS:
                                     00C3   296 ;
                                     00C3   297 ;	IF BUFFER IS NOT WRITE ACCESSIBLE, THEN THE I/O REQUEST IS TERM-
                                     00C3   298 ;	INATED VIA EXE$IOFINISH WITH A STATUS OF SS$_ACCVIO.
                                     00C3   299 ;
                                     00C3   300 ;	IF BUFFER IS WRITE ACCESSIBLE, THEN THE FOLLOWING VALUES ARE RE-
                                     00C3   301 ;	TURNED:
                                     00C3   302 ;
                                     00C3   303 ;		R0 = ADDRESS OF BUFFER.
                                     00C3   304 ;		R1 = SIZE OF TRANSFER IN BYTES.
                                     00C3   305 ;		R2 = READ FUNCTION INDICATOR (1).
                                     00C3   306 ;		R3 = ADDRESS OF I/O REQUEST PACKET.
                                     00C3   307 ;
                                     00C3   308 ;		IRP$W_BCNT(R3) = SIZE OF TRANSFER IN BYTES.
                                     00C3   309 ;		IRP$W_FUNC(R3) = READ.
                                     00C3   310 ;-
                                     00C3   311
                                     00C3   312 	.ENABL	LSB
                                     00C3   313 EXE$READCHK::				;CHECK BUFFER FOR READ FUNCTION
            7E            50     7D  00C3   314 	MOVQ	R0,-(SP)		;SAVE BUFFER PARAMETERS
            51            50     C0  00C6   315 	ADDL	R0,R1			;CALCULATE ENDING BUFFER ADDRESS
            50       01FF 8F     AA  00C9   316 	BICW	#VA$M_BYTE,R0		;TRUNCATE TO START OF PAGE
            51            50     C2  00CE   317 	SUBL	R0,R1			;CALCULATE LENGTH OF BUFFER TO PROBE
            52       FE00 8F     32  00D1   318 	CVTWL	#-^X200,R2		;SET ADDRESS ADJUSTMENT CONSTANT
                                     00D6   319 10$:	IFNOWRT	R1,(R0),ACCESS		;CAN ENDS OF BUFFER BE WRITTEN?
            50            52     C2  00DC   320 	SUBL	R2,R0			;CALCULATE VIRTUAL ADDRESS OF NEXT PAGE
            51            6142   3E  00DF   321 	MOVAW	(R1)[R2],R1		;CALCULATE NEW LENGTH
                          F1     14  00E3   322 	BGTR	10$			;IF GTR MORE TO TEST
         2A A3            02     A8  00E5   323 	BISW	#IRP$M_FUNC,IRP$W_STS(R3) ;SET READ FUNCTION
            52            01     D0  00E9   324 	MOVL	#1,R2			;SET READ FUNCTION INDICATOR
                          24     11  00EC   325 	BRB	30$			;
SYSQIOFDT       - SYSTEM SERVICE QUEUE I/O FDT SUBROUTINES       21-AUG-1978 23:45:25   VAX-11 MACRO X0.3-11               Page  10
01              CHECK BUFFER ACCESSIBILITY FOR WRITE FUNCTION                                                                    (1)

                                     00EE   327 	.SBTTL	CHECK BUFFER ACCESSIBILITY FOR WRITE FUNCTION
                                     00EE   328 ;+
                                     00EE   329 ; EXE$WRITECHK - CHECK BUFFER ACCESSIBILITY FOR WRITE FUNCTION
                                     00EE   330 ;
                                     00EE   331 ; THIS ROUTINE IS CALLED TO CHECK BUFFER ACCESSIBILITY FOR A WRITE I/O
                                     00EE   332 ; FUNCTION.
                                     00EE   333 ;
                                     00EE   334 ; INPUTS:
                                     00EE   335 ;
                                     00EE   336 ;	R0 = ADDRESS OF BUFFER.
                                     00EE   337 ;	R1 = SIZE OF TRANSFER IN BYTES.
                                     00EE   338 ;	R3 = ADDRESS OF I/O REQUEST PACKET.
                                     00EE   339 ;
                                     00EE   340 ; OUTPUTS:
                                     00EE   341 ;
                                     00EE   342 ;	IF BUFFER IS NOT READ ACCESSIBLE, THEN THE I/O REQUEST IS TERM-
                                     00EE   343 ;	INATED VIA EXE$IOFINISH WITH A STATUS OF SS$_ACCVIO.
                                     00EE   344 ;
                                     00EE   345 ;	IF BUFFER IS READ ACCESSIBLE, THEN THE FOLLOWING VALUES ARE RE-
                                     00EE   346 ;	TURNED:
                                     00EE   347 ;
                                     00EE   348 ;		R0 = ADDRESS OF BUFFER.
                                     00EE   349 ;		R1 = SIZE OF TRANSFER IN BYTES.
                                     00EE   350 ;		R2 = WRITE FUNCTION INDICATOR (0).
                                     00EE   351 ;		R3 = ADDRESS OF I/O REQUEST PACKET.
                                     00EE   352 ;
                                     00EE   353 ;		IRP$W_BCNT(R3) = SIZE OF TRANSFER IN BYTES.
                                     00EE   354 ;		IRP$W_FUNC(R3) = WRITE.
                                     00EE   355 ;-
                                     00EE   356
                                     00EE   357 EXE$WRITECHK::				;CHECK BUFFER FOR WRITE FUNCTION
            7E            50     7D  00EE   358 	MOVQ	R0,-(SP)		;SAVE BUFFER PARAMETERS
            51            50     C0  00F1   359 	ADDL	R0,R1			;CALCULATE ENDING BUFFER ADDRESS
            50       01FF 8F     AA  00F4   360 	BICW	#VA$M_BYTE,R0		;TRUNCATE TO START OF PAGE
            51            50     C2  00F9   361 	SUBL	R0,R1			;CALCULATE LENGTH OF BUFFER TO PROBE
            52       FE00 8F     32  00FC   362 	CVTWL	#-^X200,R2		;GET ADDRESS ADJUSTMENT CONSTANT
                                     0101   363 20$:	IFNORD	R1,(R0),ACCESS		;CAN ENDS OF BUFFER BE READ?
            50            52     C2  0107   364 	SUBL	R2,R0			;CALCULATE VIRTUAL ADDRESS OF NEXT PAGE
            51            6142   3E  010A   365 	MOVAW	(R1)[R2],R1		;CALCULATE NEW LENGTH
                          F1     14  010E   366 	BGTR	20$			;IF GTR MORE TO CHECK
                          52     D4  0110   367 	CLRL	R2			;SET WRITE FUNCTION INDICATOR
            50            8E     7D  0112   368 30$:	MOVQ	(SP)+,R0		;RESTORE BUFFER PARAMETERS
         32 A3            51     B0  0115   369 	MOVW	R1,IRP$W_BCNT(R3)	;INSERT TRANSFER BYTE COUNT IN PACKET
                                 05  0119   370 	RSB				;
                                     011A   371 ACCESS:					;SET ACCESS VIOLATION
            50            0C     3C  011A   372 	MOVZWL	#SS$_ACCVIO,R0		;
                                     011D   373 ABORTIO:				;ABORT I/O OPERATION
                          FEE0'  31  011D   374 	BRW	EXE$ABORTIO		;ABORT I/O OPERATION
                                     0120   375 	.DSABL	LSB
SYSQIOFDT       - SYSTEM SERVICE QUEUE I/O FDT SUBROUTINES       21-AUG-1978 23:45:25   VAX-11 MACRO X0.3-11               Page  11
01              SET DEVICE MODE AND CHARACTERISTICS FUNCTIONS (                                                                  (1)

                                     0120   377 	.SBTTL	SET DEVICE MODE AND CHARACTERISTICS FUNCTIONS (AT FDT LEVEL)
                                     0120   378 ;+
                                     0120   379 ; EXE$SETCHAR - SET DEVICE MODE AND CHARACTERISTICS FUNCTIONS (AT FDT LEVEL)
                                     0120   380 ;
                                     0120   381 ; THIS ROUTINE PLACES THE NEW CHARACTERISTICS SPECIFIED BY THE QUADWORD POINTED
                                     0120   382 ; TO BY P1 INTO THE SECOND AND THIRD LONGWORDS OF THE DEVICE UCB.
                                     0120   383 ;
                                     0120   384 ; INPUTS:
                                     0120   385 ;
                                     0120   386 ;	R0 = SCRATCH.
                                     0120   387 ;	R1 = SCRATCH.
                                     0120   388 ;	R2 = SCRATCH.
                                     0120   389 ;	R3 = ADDRESS OF I/O REQUEST PACKET.
                                     0120   390 ;	R4 = CURRENT PROCESS PCB ADDRESS.
                                     0120   391 ;	R5 = ASSIGNED DEVICE UCB ADDRESS.
                                     0120   392 ;	R6 = ADDRESS OF CCB.
                                     0120   393 ;	R7 = I/O FUNCTION CODE BIT NUMBER.
                                     0120   394 ;	R8 = FUNCTION DECISION TABLE DISPATCH ADDRESS.
                                     0120   395 ;	R9 = SCRATCH.
                                     0120   396 ;	R10 = SCRATCH.
                                     0120   397 ;	R11 = SCRATCH.
                                     0120   398 ;	AP = ADDRESS OF FIRST FUNCTION DEPENDENT PARAMETER.
                                     0120   399 ;
                                     0120   400 ; OUTPUTS:
                                     0120   401 ;
                                     0120   402 ;	THE CHARACTERISTICS SPECIFIED BY THE QUADWORD POINTER TO BY P1 ARE STORED
                                     0120   403 ;	IN THE SECOND AND THIRD LONGWORDS OF THE DEVICE UCB.
                                     0120   404 ;-
                                     0120   405
                                     0120   406 	.ENABL	LSB
                                     0120   407 EXE$SETCHAR::				;SET DEVICE MODE AND CHARACTERISTICS
            51            6C     D0  0120   408 	MOVL	P1(AP),R1		;GET ADDRESS OF CHARACTERISTICS
                                     0123   409 	IFNORD	#8,(R1),ACCESS		;CAN CHARACTERISTICS QUADWORD BE READ?
            57            23     D1  0129   410 	CMPL	#IO$_SETMODE,R7		;SET MODE FUNCTION?
                          04     13  012C   411 	BEQL	10$			;IF EQL YES
         38 A5            61     B0  012E   412 	MOVW	(R1),UCB$B_DEVCLASS(R5)	;SET DEVICE TYPE AND CLASS
         3A A5         02 A1     B0  0132   413 10$:	MOVW	2(R1),UCB$W_DEVBUFSIZ(R5) ;SET DEFAULT BUFFER SIZE
         3C A5         04 A1     D0  0137   414 	MOVL	4(R1),UCB$L_DEVDEPEND(R5) ;SET DEVICE CHARACTERISTICS
                          14     11  013C   415 	BRB	20$			;
SYSQIOFDT       - SYSTEM SERVICE QUEUE I/O FDT SUBROUTINES       21-AUG-1978 23:45:25   VAX-11 MACRO X0.3-11               Page  12
01              SET DEVICE MODE AND CHARACTERISTICS FUNCTIONS                                                                    (1)

                                     013E   417 	.SBTTL	SET DEVICE MODE AND CHARACTERISTICS FUNCTIONS
                                     013E   418 ;+
                                     013E   419 ; EXE$SETMODE - SET DEVICE CHARACTERISTICS AND MODE
                                     013E   420 ;
                                     013E   421 ; FUNCTIONAL DESCRIPTION:
                                     013E   422 ;
                                     013E   423 ; THIS ROUTINE PLACES THE NEW CHARACTERISTICS SPECIFIED BY P1 INTO
                                     013E   424 ; THE I/O PACKET FOR INSERTION INTO THE UCB WHEN THE UNIT IS IDLE.
                                     013E   425 ; THE INPUT DATA IS IN THE FORM RETURNED BY $GTCHAN. THE SPECIFIED BUFFER
                                     013E   426 ; IS ASSUMED TO BE 12 BYTES IN LENGTH. THE P2 LENGTH SPECIFIER IS IGNORED.
                                     013E   427 ;
                                     013E   428 ; THE NEW CHARACTERISTICS ARE PLACED IN IRP$L_MEDIA/MEDIA+4 AND THE
                                     013E   429 ; PACKET IS QUEUED VIA EXE$QIODRVPKT.
                                     013E   430 ;
                                     013E   431 ; INPUTS:
                                     013E   432 ;
                                     013E   433 ;	R3 = I/O PACKET ADDRESS
                                     013E   434 ;	R4 = CURRENT PCB
                                     013E   435 ;	R5 = ACB ADDRESS
                                     013E   436 ;	R6 = ASSIGNED CCB ADDRESS
                                     013E   437 ;	AP = ADDRESS OF THE QIO ARGUMEMT P1
                                     013E   438 ;
                                     013E   439 ; OUTPUTS:
                                     013E   440 ;
                                     013E   441 ;	R0 = STATUS OF THE OPERATION
                                     013E   442 ;	R3+ ARE PRESERVED.
                                     013E   443 ;
                                     013E   444 ; COMPLETION CODES:
                                     013E   445 ;
                                     013E   446 ;	SS$_NORMAL - SUCCESSFUL
                                     013E   447 ;	SS$_ACCVIO - BUFFER ACCESS VIOLATION
                                     013E   448 ;-
                                     013E   449
                                     013E   450 EXE$SETMODE::				;SET DEVICE MODE AND CHARACTERISTICS
            51            6C     D0  013E   451 	MOVL	P1(AP),R1		;ADDRESS BUFFER
                                     0141   452 	IFNORD	#8,(R1),ACCESS		;BR IF NO ACCESS
         34 A3            61     7D  0147   453 	MOVQ	(R1),IRP$L_MEDIA(R3)	;INSERT CHARACTERISTICS IN I/O PACKET
                          FEB2'  31  014B   454 	BRW	EXE$QIODRVPKT		;QUEUE THE PACKET
SYSQIOFDT       - SYSTEM SERVICE QUEUE I/O FDT SUBROUTINES       21-AUG-1978 23:45:25   VAX-11 MACRO X0.3-11               Page  13
01              SENSE DEVICE MODE AND CHARACTERISTICS FUNCTIONS                                                                  (1)

                                     014E   456 	.SBTTL	SENSE DEVICE MODE AND CHARACTERISTICS FUNCTIONS
                                     014E   457 ;+
                                     014E   458 ; EXE$SENSEMODE - SENSE DEVICE MODE AND CHARACTERISTICS FUNCTIONS
                                     014E   459 ;
                                     014E   460 ; THIS ROUTINE OBTAINS THE CURRENT DEVICE MODE/CHARACTERISTICS FROM THE DEVICE
                                     014E   461 ; DEPENDENT CHARACTERISTICS LONGWORD IN THE UCB AND IMMEDIATELY COMPLETES THE
                                     014E   462 ; I/O OPERATION WITH THE SECOND LONGWORD OF THE FINAL I/O STATUS EQUAL TO THE
                                     014E   463 ; DEVICE DEPENDENT CHARACTERSITICS.
                                     014E   464 ;
                                     014E   465 ; INPUTS:
                                     014E   466 ;
                                     014E   467 ;	R0 = SCRATCH.
                                     014E   468 ;	R1 = SCRATCH.
                                     014E   469 ;	R2 = SCRATCH.
                                     014E   470 ;	R3 = ADDRESS OF I/O REQUEST PACKET.
                                     014E   471 ;	R4 = CURRENT PROCESS PCB ADDRESS.
                                     014E   472 ;	R5 = ASSIGNED DEVICE UCB ADDRESS.
                                     014E   473 ;	R6 = ADDRESS OF CCB.
                                     014E   474 ;	R7 = I/O FUNCTION CODE BIT NUMBER.
                                     014E   475 ;	R8 = FUNCTION DECISION TABLE DISPATCH ADDRESS.
                                     014E   476 ;	R9 = SCRATCH.
                                     014E   477 ;	R10 = SCRATCH.
                                     014E   478 ;	R11 = SCRATCH.
                                     014E   479 ;	AP = ADDRESS OF FIRST FUNCTION DEPENDENT PARAMETER.
                                     014E   480 ;
                                     014E   481 ; OUTPUTS:
                                     014E   482 ;
                                     014E   483 ;	THE DEVICE DEPENDENT CHARACTERISTICS ARE OBTAINED FROM THE UCB AND
                                     014E   484 ;	THE I/O IS COMPLETED WITH THE SECOND I/O STATUS LONGWORD EQUAL TO THE
                                     014E   485 ;	DEVICE CHARACTERISTICS.
                                     014E   486 ;-
                                     014E   487
                                     014E   488 EXE$SENSEMODE::				;SENSE DEVICE MODE/CHARACTERISTICS
            51         3C A5     D0  014E   489 	MOVL	UCB$L_DEVDEPEND(R5),R1	;GET DEVICE DEPENDENT CHARACTERSITICS
            50            01     3C  0152   490 20$:	MOVZWL	#SS$_NORMAL,R0		;SET NORMAL COMPLETION STATUS
                          FEA8'  31  0155   491 	BRW	EXE$FINISHIO		;FINISH I/O OPERATION
                                     0158   492 	.DSABL	LSB
                                     0158   493
                                     0158   494 	.END
SYSQIOFDT       - SYSTEM SERVICE QUEUE I/O FDT SUBROUTINES       21-AUG-1978 23:45:25   VAX-11 MACRO X0.3-11               Page  14
SYMBOL TABLE                                                                                                                     (1)

ABORTIO          0000011D R     01   DEV$V_FOR      = 00000018            IO$M_INTERRUPT = 00000040
ACB$B_RMOD       0000000B            DEV$V_GEN      = 00000011            IO$M_MOUNT     = 00000200
ACB$B_TYPE       0000000A            DEV$V_IDV      = 0000001A            IO$M_NOECHO    = 00000040
ACB$L_AST        00000010            DEV$V_MBX      = 00000014            IO$M_NOFILTR   = 00000200
ACB$L_ASTPRM     00000014            DEV$V_MNT      = 00000013            IO$M_NOFORMAT  = 00000100
ACB$L_ASTQBL     00000004            DEV$V_NET      = 0000000D            IO$M_NOW       = 00000040
ACB$L_ASTQFL     00000000            DEV$V_ODV      = 0000001B            IO$M_NOWAIT    = 00000080
ACB$L_KAST       00000018            DEV$V_RCK      = 0000001E            IO$M_PACKED    = 00000080
ACB$L_PID        0000000C            DEV$V_REC      = 00000000            IO$M_PURGE     = 00000800
ACB$M_QUOTA    = 00000040            DEV$V_RND      = 0000001C            IO$M_READATTN  = 00000080
ACB$S_MODE     = 00000002            DEV$V_RTM      = 0000001D            IO$M_REVERSE   = 00000040
ACB$V_KAST     = 00000007            DEV$V_SDI      = 00000004            IO$M_SHUTDOWN  = 00000080
ACB$V_MODE     = 00000000            DEV$V_SHR      = 00000010            IO$M_STARTUP   = 00000040
ACB$V_QUOTA    = 00000006            DEV$V_SPL      = 00000006            IO$M_SYNCH     = 00000200
ACB$W_SIZE       00000008            DEV$V_SQD      = 00000005            IO$M_TIMED     = 00000080
ACCESS           0000011A R     01   DEV$V_SWL      = 00000019            IO$M_TRMNOECHO = 00001000
BIT...         = 00000020            DEV$V_TRM      = 00000002            IO$M_WRTATTN   = 00000100
CCB$B_AMOD       00000009            DEV$V_WCK      = 0000001F            IO$S_FCODE     = 00000006
CCB$B_STS        00000008            EXE$ABORTIO      ********   X   01   IO$V_ABORT     = 00000008
CCB$C_LENGTH     00000010            EXE$C_CMSTKSZ    ********   X   01   IO$V_ACCESS    = 00000006
CCB$K_LENGTH     00000010            EXE$DEANONPAGED  ********   X   01   IO$V_ATTNAST   = 00000008
CCB$L_DIRP       0000000C            EXE$FINISHIO     ********   X   01   IO$V_BINARY    = 00000006
CCB$L_UCB        00000000            EXE$IORSNWAIT    00000000 RG    01   IO$V_CANCTRLO  = 00000006
CCB$L_WIND       00000004            EXE$ONEPARM      00000039 RG    01   IO$V_COMMOD    = 00000006
CCB$W_IOC        0000000A            EXE$QIODRVPKT    ********   X   01   IO$V_CREATE    = 00000007
DEV$M_ALL      = 00800000            EXE$READ         00000045 RG    01   IO$V_CTRLCAST  = 00000008
DEV$M_AVL      = 00040000            EXE$READCHK      000000C3 RG    01   IO$V_CTRLYAST  = 00000007
DEV$M_CCL      = 00000002            EXE$READLOCK     00000071 RG    01   IO$V_CVTLOW    = 00000008
DEV$M_DIR      = 00000008            EXE$SENSEMODE    0000014E RG    01   IO$V_DATACHECK = 0000000E
DEV$M_DMT      = 00200000            EXE$SETCHAR      00000120 RG    01   IO$V_DELETE    = 00000008
DEV$M_ELG      = 00400000            EXE$SETMODE      0000013E RG    01   IO$V_DMOUNT    = 0000000A
DEV$M_FOD      = 00004000            EXE$WRITE        0000004E RG    01   IO$V_DSABLMBX  = 0000000A
DEV$M_FOR      = 01000000            EXE$WRITECHK     000000EE RG    01   IO$V_ENABLMBX  = 00000007
DEV$M_GEN      = 00020000            EXE$WRITELOCK    00000075 RG    01   IO$V_FCODE     = 00000000
DEV$M_IDV      = 04000000            EXE$ZEROPARM     0000003F RG    01   IO$V_HANGUP    = 00000009
DEV$M_MBX      = 00100000            GBL...         = 00000000            IO$V_INHERLOG  = 0000000B
DEV$M_MNT      = 00080000            IO$M_ABORT     = 00000100            IO$V_INHEXTGAP = 0000000C
DEV$M_NET      = 00002000            IO$M_ACCESS    = 00000040            IO$V_INHRETRY  = 0000000F
DEV$M_ODV      = 08000000            IO$M_ATTNAST   = 00000100            IO$V_INHSEEK   = 0000000C
DEV$M_RCK      = 40000000            IO$M_BINARY    = 00000040            IO$V_INTERRUPT = 00000006
DEV$M_REC      = 00000001            IO$M_CANCTRLO  = 00000040            IO$V_MOUNT     = 00000009
DEV$M_RND      = 10000000            IO$M_COMMOD    = 00000040            IO$V_NOECHO    = 00000006
DEV$M_RTM      = 20000000            IO$M_CREATE    = 00000080            IO$V_NOFILTR   = 00000009
DEV$M_SDI      = 00000010            IO$M_CTRLCAST  = 00000100            IO$V_NOFORMAT  = 00000008
DEV$M_SHR      = 00010000            IO$M_CTRLYAST  = 00000080            IO$V_NOW       = 00000006
DEV$M_SPL      = 00000040            IO$M_CVTLOW    = 00000100            IO$V_NOWAIT    = 00000007
DEV$M_SQD      = 00000020            IO$M_DATACHECK = 00004000            IO$V_PACKED    = 00000007
DEV$M_SWL      = 02000000            IO$M_DELETE    = 00000100            IO$V_PURGE     = 0000000B
DEV$M_TRM      = 00000004            IO$M_DMOUNT    = 00000400            IO$V_READATTN  = 00000007
DEV$M_WCK      = 80000000            IO$M_DSABLMBX  = 00000400            IO$V_REVERSE   = 00000006
DEV$V_ALL      = 00000017            IO$M_ENABLMBX  = 00000080            IO$V_SHUTDOWN  = 00000007
DEV$V_AVL      = 00000012            IO$M_FCODE     = 0000003F            IO$V_STARTUP   = 00000006
DEV$V_CCL      = 00000001            IO$M_HANGUP    = 00000200            IO$V_SYNCH     = 00000009
DEV$V_DIR      = 00000003            IO$M_INHERLOG  = 00000800            IO$V_TIMED     = 00000007
DEV$V_DMT      = 00000015            IO$M_INHEXTGAP = 00001000            IO$V_TRMNOECHO = 0000000C
DEV$V_ELG      = 00000016            IO$M_INHRETRY  = 00008000            IO$V_WRTATTN   = 00000008
DEV$V_FOD      = 0000000E            IO$M_INHSEEK   = 00001000            IO$_ACCESS     = 00000032
SYSQIOFDT       - SYSTEM SERVICE QUEUE I/O FDT SUBROUTINES       21-AUG-1978 23:45:25   VAX-11 MACRO X0.3-11               Page  15
SYMBOL TABLE                                                                                                                     (1)

IO$_ACPCONTROL = 00000038            IRP$L_DIAGBUF    00000044            PCB$B_ASTEN      0000000D
IO$_CREATE     = 00000033            IRP$L_IOQBL      00000004            PCB$B_PRI        0000000B
IO$_DEACCESS   = 00000034            IRP$L_IOQFL      00000000            PCB$B_PRIB       00000033
IO$_DELETE     = 00000035            IRP$L_IOSB       00000024            PCB$B_TYPE       0000000A
IO$_DIAGNOSE   = 0000001D            IRP$L_IOST1      00000034            PCB$B_WEFC       00000032
IO$_DRVCLR     = 00000004            IRP$L_IOST2      00000038            PCB$C_LENGTH     0000007C
IO$_ERASETAPE  = 00000006            IRP$L_MEDIA      00000034            PCB$K_LENGTH     0000007C
IO$_LOGICAL    = 0000002F            IRP$L_PID        0000000C            PCB$L_ASTQBL     00000014
IO$_MODIFY     = 00000036            IRP$L_SEGVBN     00000040            PCB$L_ASTQFL     00000010
IO$_MOUNT      = 00000039            IRP$L_SEQNUM     00000048            PCB$L_EFC2P      00000058
IO$_NOP        = 00000000            IRP$L_SVAPTE     0000002C            PCB$L_EFC3P      0000005C
IO$_OFFSET     = 00000006            IRP$L_TT_TERM    00000038            PCB$L_EFCS       00000050
IO$_PACKACK    = 00000008            IRP$L_UCB        0000001C            PCB$L_EFCU       00000054
IO$_PHYSICAL   = 0000001F            IRP$L_WIND       00000018            PCB$L_EFWM       0000004C
IO$_READHEAD   = 0000000E            IRP$M_BUFIO    = 00000001            PCB$L_OWNER      0000001C
IO$_READLBLK   = 00000021            IRP$M_CHAINED  = 00000020            PCB$L_PHD        00000064
IO$_READPBLK   = 0000000C            IRP$M_COMPLX   = 00000008            PCB$L_PHYPCB     00000018
IO$_READPRESET = 00000019            IRP$M_DIAGBUF  = 00000080            PCB$L_PID        00000060
IO$_READPROMPT = 00000037            IRP$M_FUNC     = 00000002            PCB$L_PQB        0000004C
IO$_READTRACKD = 00000010            IRP$M_PAGIO    = 00000004            PCB$L_SQBL       00000004
IO$_READVBLK   = 00000031            IRP$M_PHYSIO   = 00000100            PCB$L_SQFL       00000000
IO$_RECAL      = 00000003            IRP$M_PRIVIO   = 00000200            PCB$L_STS        00000028
IO$_RELEASE    = 00000005            IRP$M_SWAPIO   = 00000040            PCB$L_UIC        00000020
IO$_RETCENTER  = 00000007            IRP$M_VIRTUAL  = 00000010            PCB$L_WSSWP      00000024
IO$_REWIND     = 00000024            IRP$S_FCODE    = 00000006            PCB$L_WTIME      0000002C
IO$_REWINDOFF  = 00000022            IRP$S_FMOD     = 0000000A            PCB$T_LNAME      0000006C
IO$_SEARCH     = 00000009            IRP$S_MODE     = 00000002            PCB$V_ASTPEN   = 00000011
IO$_SEEK       = 00000002            IRP$V_BUFIO    = 00000000            PCB$V_BATCH    = 0000000E
IO$_SENSECHAR  = 0000001B            IRP$V_CHAINED  = 00000005            PCB$V_DELPEN   = 00000001
IO$_SENSEMODE  = 00000027            IRP$V_COMPLX   = 00000003            PCB$V_FORCPEN  = 00000002
IO$_SETCHAR    = 0000001A            IRP$V_DIAGBUF  = 00000007            PCB$V_HIBER    = 00000013
IO$_SETMODE    = 00000023            IRP$V_FCODE    = 00000000            PCB$V_INQUAN   = 00000003
IO$_SKIPFILE   = 00000025            IRP$V_FMOD     = 00000006            PCB$V_LOGIN    = 00000014
IO$_SKIPRECORD = 00000026            IRP$V_FUNC     = 00000001            PCB$V_NOACNT   = 0000000F
IO$_SPACEFILE  = 00000002            IRP$V_MODE     = 00000000            PCB$V_PHDRES   = 00000012
IO$_SPACERECORD= 00000009            IRP$V_PAGIO    = 00000002            PCB$V_PSWAPM   = 00000004
IO$_STARTSPNDL = 00000019            IRP$V_PHYSIO   = 00000008            PCB$V_RES      = 00000000
IO$_UNLOAD     = 00000001            IRP$V_PRIVIO   = 00000009            PCB$V_RESPEN   = 00000005
IO$_VIRTUAL    = 0000003F            IRP$V_SWAPIO   = 00000006            PCB$V_SSFEXC   = 00000006
IO$_WRITECHECK = 0000000A            IRP$V_VIRTUAL  = 00000004            PCB$V_SSFEXCE  = 00000007
IO$_WRITECHECKH= 00000018            IRP$W_ABCNT      0000003C            PCB$V_SSFEXCS  = 00000008
IO$_WRITEHEAD  = 0000000D            IRP$W_BCNT       00000032            PCB$V_SSFEXCU  = 00000009
IO$_WRITELBLK  = 00000020            IRP$W_BOFF       00000030            PCB$V_SSRWAIT  = 0000000A
IO$_WRITEMARK  = 0000001C            IRP$W_CHAN       00000028            PCB$V_SUSPEN   = 0000000B
IO$_WRITEOF    = 00000028            IRP$W_FUNC       00000020            PCB$V_SWPVBN   = 00000010
IO$_WRITEPBLK  = 0000000B            IRP$W_OBCNT      0000003E            PCB$V_WAKEPEN  = 0000000C
IO$_WRITETRACKD= 0000000F            IRP$W_SIZE       00000008            PCB$V_WALL     = 0000000D
IO$_WRITEVBLK  = 00000030            IRP$W_STS        0000002A            PCB$W_APTCNT     00000034
IRP$B_CARCON     00000038            IRP$W_TT_PRMPT   0000003C            PCB$W_ASTCNT     0000003C
IRP$B_EFN        00000022            MMG$IOLOCK       ********   X   01   PCB$W_BIOCNT     0000003E
IRP$B_PRI        00000023            P1             = 00000000            PCB$W_BIOLM      00000040
IRP$B_RMOD       0000000B            P2             = 00000004            PCB$W_BYTCNT     00000042
IRP$B_TYPE       0000000A            P3             = 00000008            PCB$W_BYTLM      00000068
IRP$C_LENGTH     0000004C            P4             = 0000000C            PCB$W_DIOCNT     00000044
IRP$K_LENGTH     0000004C            P5             = 00000010            PCB$W_DIOLM      00000046
IRP$L_AST        00000010            P6             = 00000014            PCB$W_FILCNT     00000048
IRP$L_ASTPRM     00000014            PCB$B_ASTACT     0000000C            PCB$W_GPGCNT     00000038
SYSQIOFDT       - SYSTEM SERVICE QUEUE I/O FDT SUBROUTINES       21-AUG-1978 23:45:25   VAX-11 MACRO X0.3-11               Page  16
SYMBOL TABLE                                                                                                                     (1)

PCB$W_GRP        00000022            SS$_DIRFULL    = 00000860            SS$_IVSTSFLG   = 0000017C
PCB$W_MEM        00000020            SS$_DRVERR     = 0000008C            SS$_IVTIME     = 00000184
PCB$W_MTXCNT     0000000E            SS$_DUPFILENAME= 00000868            SS$_LENVIO     = 0000018C
PCB$W_PPGCNT     0000003A            SS$_DUPLNAM    = 00000094            SS$_LKWSETFUL  = 00000194
PCB$W_PRCCNT     0000006A            SS$_ENDOFFILE  = 00000870            SS$_MBFULL     = 000008D8
PCB$W_SIZE       00000008            SS$_ENDOFTAPE  = 00000878            SS$_MBTOOSML   = 0000019C
PCB$W_STATE      00000030            SS$_ENDOFUSRLBL= 00000970            SS$_MCHECK     = 000002BC
PCB$W_TMBU       00000036            SS$_EXQUOTA    = 0000001C            SS$_MEDOFL     = 000001A4
PCB$W_TQCNT      0000004A            SS$_EXTIDXFILE = 00000880            SS$_MSGNOTFND  = 00000621
SCH$GQ_MWAIT     ********   X   01   SS$_FCPREADERR = 00000888            SS$_MUSTCLOSEFL= 00000948
SCH$WAIT         ********   X   01   SS$_FCPREPSTN  = 00000988            SS$_NODATA     = 000001AC
SS$_ABORT      = 0000002C            SS$_FCPREWNDERR= 00000890            SS$_NOHANDLER  = 000008F8
SS$_ACCONFLICT = 00000800            SS$_FCPSPACERR = 00000898            SS$_NOHOMEBLK  = 000008E0
SS$_ACCVIO     = 0000000C            SS$_FCPWRITERR = 000008A0            SS$_NOIOCHAN   = 000001B4
SS$_ARITH      = 00000404            SS$_FILACCERR  = 0000009C            SS$_NOLINKS    = 0000027C
SS$_ASTFLT     = 0000040C            SS$_FILALRACC  = 000000A4            SS$_NOLOGNAM   = 000001BC
SS$_BADATTRIB  = 00000034            SS$_FILELOCKED = 000008A8            SS$_NOMBX      = 00000274
SS$_BADCHKSUM  = 00000808            SS$_FILENUMCHK = 000008B0            SS$_NOMOREFILES= 00000930
SS$_BADESCAPE  = 0000003C            SS$_FILESEQCHK = 000008B8            SS$_NONEXDRV   = 000001C4
SS$_BADFILEHDR = 00000810            SS$_FILESTRUCT = 000008C0            SS$_NONEXPR    = 000008E8
SS$_BADFILENAME= 00000818            SS$_FILNOTACC  = 000000AC            SS$_NONLOCAL   = 000008F0
SS$_BADFILEVER = 00000820            SS$_FILNOTCNTG = 000002AC            SS$_NOPRIV     = 00000024
SS$_BADIMGHDR  = 00000044            SS$_FILNOTEXP  = 000000B4            SS$_NORMAL     = 00000001
SS$_BADIRECTORY= 00000828            SS$_FORMAT     = 000000BC            SS$_NOSIGNAL   = 00000900
SS$_BADPARAM   = 00000014            SS$_GPTFULL    = 000000C4            SS$_NOSOLICIT  = 00000284
SS$_BADSTACK   = 000002B4            SS$_GSDFULL    = 000000CC            SS$_NOSUCHDEV  = 00000908
SS$_BEGOFFILE  = 00000938            SS$_GSDNOTXXX  = 000000D4            SS$_NOSUCHFILE = 00000910
SS$_BLOCKCNTERR= 00000940            SS$_HANGUP     = 000002CC            SS$_NOSUCHNODE = 0000028C
SS$_BREAK      = 00000414            SS$_HEADERFULL = 000008C8            SS$_NOSUCHSEC  = 00000978
SS$_BUFFEROVF  = 00000601            SS$_IDXFILEFULL= 000008D0            SS$_NOTAPEOP   = 00000264
SS$_BUGCHECK   = 000002A4            SS$_ILLBLKNUM  = 000000DC            SS$_NOTFILEDEV = 000001CC
SS$_CANCEL     = 00000830            SS$_ILLCNTRFUNC= 000000E4            SS$_NOTINTBLSZ = 000001D4
SS$_CHANINTLK  = 0000004C            SS$_ILLEFC     = 000000EC            SS$_NOTLABELMT = 000001DC
SS$_CLIFRCEXT  = 00000980            SS$_ILLIOFUNC  = 000000F4            SS$_NOTNETDEV  = 000002EC
SS$_CMODSUPR   = 0000041C            SS$_ILLLBLAST  = 00000968            SS$_NOTRAN     = 00000629
SS$_CMODUSER   = 00000424            SS$_ILLPAGCNT  = 000000FC            SS$_NOTSQDEV   = 000001E4
SS$_COMPAT     = 0000042C            SS$_ILLSEQOP   = 000002DC            SS$_OPCCUS     = 00000434
SS$_CONTINUE   = 00000001            SS$_ILLSER     = 00000104            SS$_OPCDEC     = 0000043C
SS$_CONTROLC   = 00000651            SS$_ILLUSRLBLRD= 00000958            SS$_OPINCOMPL  = 000002D4
SS$_CONTROLO   = 00000609            SS$_ILLUSRLBLWT= 00000960            SS$_PAGOWNVIO  = 000001EC
SS$_CONTROLY   = 00000611            SS$_INCVOLLABEL= 0000010C            SS$_PAGRDERR   = 00000444
SS$_CREATED    = 00000619            SS$_INSFARG    = 00000114            SS$_PARITY     = 000001F4
SS$_CTRLERR    = 00000054            SS$_INSFMEM    = 00000124            SS$_PARTESCAPE = 000001FC
SS$_DATACHECK  = 0000005C            SS$_INSFRAME   = 0000012C            SS$_PFMBSY     = 00000204
SS$_DATAOVERUN = 00000838            SS$_INSFWSL    = 0000011C            SS$_PSTFULL    = 0000020C
SS$_DEBUG      = 0000046C            SS$_IVADDR     = 00000134            SS$_RADRMOD    = 0000044C
SS$_DEVACTIVE  = 000002C4            SS$_IVCHAN     = 0000013C            SS$_REJECT     = 00000294
SS$_DEVALLOC   = 00000840            SS$_IVCHNLSEC  = 0000026C            SS$_REMOTE     = 00000649
SS$_DEVALRALLOC= 00000641            SS$_IVDEVNAM   = 00000144            SS$_RESIGNAL   = 00000918
SS$_DEVASSIGN  = 00000848            SS$_IVGSDNAM   = 0000014C            SS$_RESULTOVF  = 00000214
SS$_DEVFOREIGN = 00000064            SS$_IVLOGNAM   = 00000154            SS$_ROPRAND    = 00000454
SS$_DEVICEFULL = 00000850            SS$_IVLOGTAB   = 0000015C            SS$_SECTBLFUL  = 0000021C
SS$_DEVMOUNT   = 0000006C            SS$_IVPROTECT  = 000002F4            SS$_SSFAIL     = 0000045C
SS$_DEVNOTALLOC= 00000858            SS$_IVQUOTAL   = 00000164            SS$_SUPERSEDE  = 00000631
SS$_DEVNOTMBX  = 00000074            SS$_IVSECFLG   = 0000016C            SS$_TAPEPOSLOST= 00000224
SS$_DEVNOTMOUNT= 0000007C            SS$_IVSECIDCTL = 000002E4            SS$_TBIT       = 00000464
SS$_DEVOFFLINE = 00000084            SS$_IVSSRQ     = 00000174            SS$_TIMEOUT    = 0000022C
SYSQIOFDT       - SYSTEM SERVICE QUEUE I/O FDT SUBROUTINES       21-AUG-1978 23:45:25   VAX-11 MACRO X0.3-11               Page  17
SYMBOL TABLE                                                                                                                     (1)

SS$_TOOMANYVER = 00000990            UCB$L_FPC        0000000C            UCB$V_DIAGBUF  = 00000001
SS$_TOOMUCHDATA= 0000029C            UCB$L_FQBL       00000004            UCB$V_DX_WRITE = 00000003
SS$_UNASEFC    = 00000234            UCB$L_FQFL       00000000            UCB$V_ECC      = 00000000
SS$_UNSAFE     = 0000023C            UCB$L_FR3        00000010            UCB$V_ERLOGIP  = 00000002
SS$_UNWIND     = 00000920            UCB$L_FR4        00000014            UCB$V_INT      = 00000001
SS$_UNWINDING  = 00000928            UCB$L_IOQBL      00000044            UCB$V_INTTYPE  = 00000007
SS$_VASFULL    = 00000244            UCB$L_IOQFL      00000040            UCB$V_JOB      = 00000000
SS$_VECINUSE   = 0000024C            UCB$L_IRP        0000004C            UCB$V_LNKPRI   = 00000006
SS$_VOLINV     = 00000254            UCB$L_LINK       0000002C            UCB$V_LTYPE    = 00000000
SS$_WAITUSRLBL = 00000950            UCB$L_LOGADR     00000064            UCB$V_MOUNTING = 00000009
SS$_WASCLR     = 00000001            UCB$L_MAXBLOCK   00000080            UCB$V_MSGACK   = 00000004
SS$_WASECC     = 00000639            UCB$L_MEDIA      00000088            UCB$V_MSGFLO   = 00000003
SS$_WASSET     = 00000009            UCB$L_NT_DATSSB  00000074            UCB$V_NOCNVRT  = 00000002
SS$_WRITLCK    = 0000025C            UCB$L_NT_INTSSB  00000078            UCB$V_NT_BFROVF= 00000002
UCB$B_AMOD       00000053            UCB$L_OPCNT      00000060            UCB$V_NT_BREAK = 00000005
UCB$B_CEX        00000077            UCB$L_OWNUIC     0000001C            UCB$V_NT_NAME  = 00000004
UCB$B_CM1        0000004A            UCB$L_PID        00000028            UCB$V_NT_NONTR = 00000006
UCB$B_CM2        0000004B            UCB$L_RQBL       00000004            UCB$V_NT_SDP   = 00000003
UCB$B_DEVCLASS   00000038            UCB$L_RQFL       00000000            UCB$V_ONLINE   = 00000004
UCB$B_DEVTYPE    00000039            UCB$L_SVAPTE     00000068            UCB$V_POWER    = 00000005
UCB$B_DIPL       00000052            UCB$L_SVPN       00000064            UCB$V_PRMMBX   = 00000000
UCB$B_DX_SCTCNT  FFFFFFFE            UCB$L_TTCHAR     0000003C            UCB$V_SEGFLO   = 00000002
UCB$B_DX_SPARE   FFFFFFFF            UCB$L_VCB        00000030            UCB$V_TIM      = 00000000
UCB$B_ERTCNT     00000070            UCB$M_BSY      = 00000100            UCB$V_TIMOUT   = 00000006
UCB$B_ERTMAX     00000071            UCB$M_CANCEL   = 00000008            UCB$V_TT_NOTIF = 00000002
UCB$B_ESCAPE     0000004B            UCB$M_DEADMO   = 00000400            UCB$V_TT_TIMO  = 00000001
UCB$B_FEX        00000076            UCB$M_DELMBX   = 00000002            UCB$V_VALID    = 0000000B
UCB$B_FIPL       0000000B            UCB$M_DIAGBUF  = 00000002            UCB$W_BCNT       0000006E
UCB$B_LOCSRV     0000003C            UCB$M_DX_WRITE = 00000008            UCB$W_BCR        00000092
UCB$B_OFFNDX     00000090            UCB$M_ECC      = 00000001            UCB$W_BOFF       0000006C
UCB$B_OFFRTC     00000091            UCB$M_ERLOGIP  = 00000004            UCB$W_BUFQUO     00000018
UCB$B_REMSRV     0000003D            UCB$M_INT      = 00000002            UCB$W_BYTESTOGO  0000003E
UCB$B_SECTORS    0000003C            UCB$M_INTTYPE  = 00000080            UCB$W_CHARGE     0000004A
UCB$B_SLAVE      00000074            UCB$M_JOB      = 00000001            UCB$W_CYLINDERS  0000003E
UCB$B_SPR        00000075            UCB$M_MOUNTING = 00000200            UCB$W_DA         00000088
UCB$B_STATE      00000052            UCB$M_NOCNVRT  = 00000004            UCB$W_DC         0000008A
UCB$B_TRACKS     0000003D            UCB$M_NT_BFROVF= 00000004            UCB$W_DEVBUFSIZ  0000003A
UCB$B_TYPE       0000000A            UCB$M_NT_BREAK = 00000020            UCB$W_DEVSTS     0000005A
UCB$B_VERTSZ     0000003F            UCB$M_NT_NAME  = 00000010            UCB$W_DSTADDR    00000018
UCB$C_LENGTH     00000074            UCB$M_NT_NONTR = 00000040            UCB$W_DX_BCR     FFFFFFFC
UCB$C_LOGLNK   = 00000001            UCB$M_NT_SDP   = 00000008            UCB$W_EC1        0000008C
UCB$K_LENGTH     00000074            UCB$M_ONLINE   = 00000010            UCB$W_EC2        0000008E
UCB$L_AMB        00000054            UCB$M_POWER    = 00000020            UCB$W_ERRCNT     00000072
UCB$L_ASTQBL     00000010            UCB$M_PRMMBX   = 00000001            UCB$W_FUNC       00000084
UCB$L_ASTQFL     0000000C            UCB$M_TIM      = 00000001            UCB$W_MB_SEED    FFFFFFFC
UCB$L_CPID       0000005C            UCB$M_TIMOUT   = 00000040            UCB$W_MSGCNT     00000016
UCB$L_CRB        00000020            UCB$M_TT_NOTIF = 00000004            UCB$W_MSGMAX     00000014
UCB$L_DDB        00000024            UCB$M_TT_TIMO  = 00000002            UCB$W_NT_CHAN    0000007C
UCB$L_DEVCHAR    00000034            UCB$M_VALID    = 00000800            UCB$W_OFFSET     00000086
UCB$L_DEVDEPEND  0000003C            UCB$S_LNKPRI   = 00000002            UCB$W_REFC       00000050
UCB$L_DPC        0000007C            UCB$S_LTYPE    = 00000002            UCB$W_SIZE       00000008
UCB$L_DUETIM     0000005C            UCB$T_PARTNER    0000000C            UCB$W_SRCADDR    0000001A
UCB$L_DX_BFPNT   FFFFFFF4            UCB$V_BACKP    = 00000005            UCB$W_STS        00000058
UCB$L_DX_BUF     FFFFFFF0            UCB$V_BSY      = 00000008            UCB$W_UNIT       00000048
UCB$L_DX_RXDB    FFFFFFF8            UCB$V_CANCEL   = 00000003            UCB$W_VPROT      0000001A
UCB$L_EMB        00000078            UCB$V_DEADMO   = 0000000A            VA$M_BYTE      = 000001FF
UCB$L_FIRST      00000014            UCB$V_DELMBX   = 00000001            VA$M_P1        = 40000000
SYSQIOFDT       - SYSTEM SERVICE QUEUE I/O FDT SUBROUTINES       21-AUG-1978 23:45:25   VAX-11 MACRO X0.3-11               Page  18
SYMBOL TABLE                                                                                                                     (1)

VA$M_SYSTEM    = 80000000
VA$M_VPN       = 3FFFFE00
VA$S_BYTE      = 00000009
VA$S_VPN       = 00000015
VA$V_BYTE      = 00000000
VA$V_P1        = 0000001E
VA$V_SYSTEM    = 0000001F
VA$V_VPN       = 00000009


PROGRAM SECTION SYNOPSIS

.  ABS  .        00000000      00     NOPIC   USR   CON   ABS   LCL NOSHR NOEXE NORD  NOWRT BYTE
. BLANK .        00000158      01     NOPIC   USR   CON   REL   LCL NOSHR   EXE   RD    WRT BYTE
$ABS$            FFFFFFFF      02     NOPIC   USR   CON   ABS   LCL NOSHR   EXE   RD    WRT BYTE


THERE WERE NO ERRORS OR WARNINGS.
7832. BYTES LEFT IN FREE MEMORY POOL.
3194. BYTES OF RECLAIMED MEMORY.
OBJ$:SYSQIOFDT,LIS$:SYSQIOFDT/-SP=LIB$:LIB/ML,SRC$:SYSQIOFDT
8 MLB DIR RDS - 969 GETS TO DEFINE 20 MACROS. 82 INTER. FILE WRITES.
