SYSRUNDWN       IMAGE RUNDOWN SYSTEM SERVICE                     22-AUG-1978 00:21:23   VAX-11 MACRO X0.3-11               Page   0
TABLE OF CONTENTS

   (1)      34  HISTORY			; DETAILED
   (1)      44  DECLARATIONS
   (1)      65  EXE$RUNDWN - IMAGE RUNDOWN SYSTEM SERVICE
SYSRUNDWN       IMAGE RUNDOWN SYSTEM SERVICE                     22-AUG-1978 00:21:23   VAX-11 MACRO X0.3-11               Page   1
01                                                                                                                               (1)

                                     0000     1
                                     0000     2 	.TITLE	SYSRUNDWN IMAGE RUNDOWN SYSTEM SERVICE
                                     0000     3 	.IDENT	/01/
                                     0000     4
                                     0000     5 ;
                                     0000     6 ; COPYRIGHT (C) 1977
                                     0000     7 ; DIGITAL EQUIPMENT CORPORATION, MAYNARD, MASSACHUSETTS 01754
                                     0000     8 ;
                                     0000     9 ; THIS SOFTWARE IS FURNISHED  UNDER A LICENSE FOR USE ONLY ON A SINGLE
                                     0000    10 ; COMPUTER  SYSTEM AND  MAY BE  COPIED ONLY WITH  THE INCLUSION OF THE
                                     0000    11 ; ABOVE COPYRIGHT NOTICE.  THIS SOFTWARE, OR ANY OTHER COPIES THEREOF,
                                     0000    12 ; MAY NOT BE PROVIDED OR  OTHERWISE MADE AVAILABLE TO ANY OTHER PERSON
                                     0000    13 ; EXCEPT FOR USE ON SUCH SYSTEM AND TO ONE WHO AGREES TO THESE LICENSE
                                     0000    14 ; TERMS.  TITLE TO AND  OWNERSHIP OF THE  SOFTWARE  SHALL AT ALL TIMES
                                     0000    15 ; REMAIN IN DEC.
                                     0000    16 ;
                                     0000    17 ; THE INFORMATION IN THIS SOFTWARE IS SUBJECT TO CHANGE WITHOUT NOTICE
                                     0000    18 ; AND SHOULD  NOT BE CONSTRUED  AS A COMMITMENT  BY DIGITAL  EQUIPMENT
                                     0000    19 ; CORPORATION.
                                     0000    20 ;
                                     0000    21 ; DEC ASSUMES  NO  RESPONSIBILITY  FOR  THE USE OR  RELIABILITY OF ITS
                                     0000    22 ; SOFTWARE ON EQUIPMENT WHICH IS NOT SUPPLIED BY DEC.
                                     0000    23
                                     0000    24 ;++
                                     0000    25 ; FACILITY: EXECUTIVE, SYSTEM SERVICES
                                     0000    26 ;
                                     0000    27 ; ABSTRACT:
                                     0000    28 ;
                                     0000    29 ; ENVIRONMENT:
                                     0000    30 ;
                                     0000    31 ;--
                                     0000    32 ;
                                     0000    33 ;	.PAGE
                                     0000    34 	.SBTTL	HISTORY			; DETAILED
                                     0000    35 ;
                                     0000    36 ; AUTHOR:	R. HUSTVEDT	 CREATION DATE: 10-OCT-76
                                     0000    37 ;
                                     0000    38 ; MODIFIED BY:
                                     0000    39 ; C. MONIA, : VERSION 01
                                     0000    40 ; 01	 -	MODIFIED FOR STAND-ALONE DSC SYSTEM
                                     0000    41 ;
                                     0000    42
SYSRUNDWN       IMAGE RUNDOWN SYSTEM SERVICE                     22-AUG-1978 00:21:23   VAX-11 MACRO X0.3-11               Page   2
01              DECLARATIONS                                                                                                     (1)

                                     0000    44 	.SBTTL	DECLARATIONS
                                     0000    45
                                     0000    46 ;
                                     0000    47 ; INCLUDE FILES:
                                     0000    48 ;
                                     0000    49
                                     0000    50 	$ACBDEF				; DEFINE AST CONTROL BLOCK
                                     0000    51 	$CCBDEF				; DEFINE CHANNEL CONTROL BLOCK
                                     0000    52 	$IPLDEF				; DEFINE INTERRUPT PRIORITIES
                                     0000    53 	$LOGDEF				; DEFINE LOGICAL NAME BLOCK
                                     0000    54 	$PCBDEF				; DEFINE PCB OFFSETS
                                     0000    55 	$PRDEF				; DEFINE PROCESSOR REGISTERS
                                     0000    56 	$SSDEF				; DEFINE STATUS CODES
                                     0000    57
                                     0000    58 ;
                                     0000    59 ; EQUATED SYMBOLS:
                                     0000    60 ;
                           00000004  0000    61 ACMODE=4				; DISPLACEMENT TO ACCESS MODE ARGUMENT
                                     0000    62
                                     0000    63 	.LIST	MEB			; LIST MACRO EXPANSIONS
SYSRUNDWN       IMAGE RUNDOWN SYSTEM SERVICE                     22-AUG-1978 00:21:23   VAX-11 MACRO X0.3-11               Page   3
01              EXE$RUNDWN - IMAGE RUNDOWN SYSTEM SERVICE                                                                        (1)

                                     0000    65 	.SBTTL	EXE$RUNDWN - IMAGE RUNDOWN SYSTEM SERVICE
                                     0000    66
                                     0000    67 ;++
                                     0000    68 ; FUNCTIONAL DESCRIPTION:
                                     0000    69 ;	EXE$RUNDWN TERMINATES ALL PENDING ACTIVITY FOR THE SPECIFIED
                                     0000    70 ;	AND ALL LESS PRIVILEGED ACCESS MODES.  ALL RESOURCES ASSOCIATED
                                     0000    71 ;	WITH THE PENDING ACTIVITY WILL BE RELEASED IF APPROPRIATE
                                     0000    72 ;
                                     0000    73 ; CALLING SEQUENCE:
                                     0000    74 ;	CALLG	ARGLIST,EXE$RUNDWN
                                     0000    75 ;
                                     0000    76 ; INPUT PARAMETERS:
                                     0000    77 ;	ACMODE(AP) - ACCESS MODE BOUNDARY FOR WHICH RUNDOWN IS TO BE PERFORMED
                                     0000    78 ;			(MAXIMIZED WITH THE ACCESS MODE OF THE CALLER)
                                     0000    79 ;
                                     0000    80 ; IMPLICIT INPUTS:
                                     0000    81 ;	R4 - POINTER TO CURRENT PCB
                                     0000    82 ;
                                     0000    83 ; OUTPUT PARAMETERS:
                                     0000    84 ;	NONE
                                     0000    85 ;
                                     0000    86 ; IMPLICIT OUTPUTS:
                                     0000    87 ;	ALL ACTIVITY INITIATED BUT NOT COMPLETED FOR ALL ACCESS MODES
                                     0000    88 ;	HAVING THE SAME OR LESSER PRIVILEGE THAN THAT SPECIFIED WILL
                                     0000    89 ;	BE TERMINATED.
                                     0000    90 ;
                                     0000    91 ; COMPLETION CODES:
                                     0000    92 ;	SS$_NORMAL  -  SUCCESSFUL COMPLETION
                                     0000    93 ;
                                     0000    94 ; SIDE EFFECTS:
                                     0000    95 ;	NONE
                                     0000    96 ;
                                     0000    97 ;--
                                     0000    98
                               00FC' 0000    99 	.ENTRY	EXE$RUNDWN,^M<R2,R3,R4,R5,R6,R7>
            02            00     EF  0002   100 	EXTZV	#0,#2,ACMODE(AP),R0	; FETCH ACCESS MODE ARGUMENT
            50         04 AC         0005
                          FFF5'  30  0008   101 	BSBW	EXE$MAXACMODE		; MAXIMIZE WITH PREVIOUS
            57            50     D0  000B   102 	MOVL	R0,R7			; SAVE IN R7 FOR REFERENCE
                                     000E   103
                                     000E   104 ;-------------------------------------------------------------
                                     000E   105 ;
                                     000E   106 ;	RELEASE MEMORY
                                     000E   107 ;
                                     000E   108 ; NOT INVOKED IN THE CORE-ONLY SYSTEM
                                     000E   109 ;
                                     000E   110 ;
                                     000E   111 ;-------------------------------------------------------------
                                     000E   112
                                     000E   113 ;	BSBW	MMG$IMGRESET		; RELEASE IMAGE PAGES
                                     000E   114 ;**************************************   NEED INTERFACE CHANGE FOR ACMODE
                                     000E   115 ;-------------------------------------------------------------
                                     000E   116 ;
                                     000E   117 ;	DEASSIGN CHANNELS
                                     000E   118 ;
                                     000E   119 ;-------------------------------------------------------------
                                     000E   120
SYSRUNDWN       IMAGE RUNDOWN SYSTEM SERVICE                     22-AUG-1978 00:21:23   VAX-11 MACRO X0.3-11               Page   4
01              EXE$RUNDWN - IMAGE RUNDOWN SYSTEM SERVICE                                                                        (1)

                                     000E   121 IORUNDWN:				;
            56   00000000'9F     3C  000E   122 	MOVZWL	@#CTL$GW_NMIOCH,R6	; GET NUMBER OF I/O CHANNELS
            55   00000000'9F     3C  0015   123 	MOVZWL	@#CTL$GW_CHINDX,R5	; GET MAXIMUM INDEX + 16
            55            55     CE  001C   124 	MNEGL	R5,R5			; INVERT
            55            10     C0  001F   125 10$:	ADDL	#16,R5			; POINT AT NEXT CHANNEL
            53   00000000'FF45   9E  0022   126 	MOVAB	@CTL$GL_CCBBASE[R5],R3	; COMPUTE ADDRESS OF HIGHEST CHANNEL
            57         09 A3     91  002A   127 	CMPB	CCB$B_AMOD(R3),R7	; IS THIS CHANNEL DEASSIGNABLE?
                          0A     15  002E   128 	BLEQ	20$			; NO, ASSIGNED BY LOWER ACMODE
            7E            55     CE  0030   129 	MNEGL	R5,-(SP)		; CHANNEL NUMBER ARGUMENT
   00000000'9F            01     FB  0033   130 	CALLS	#1,@#SYS$DASSGN		; DE-ASSIGN CHANNEL
            E2            56     F4  003A   131 20$:	SOBGEQ	R6,10$			; NEXT CHANNEL
                                     003D   132 	$DALLOC_S	ACMODE=R7	; DE-ALLOCATE AT ACCESS MODE
                          57     DD  003D       		PUSHL	R7
                          00     DD  003F       		PUSHL	#0
   00000000'9F            02     FB  0041       		CALLS	#2,@#SYS$DALLOC
                                     0048   133
                                     0048   134 ;-------------------------------------------------------------
                                     0048   135 ;
                                     0048   136 ;	CANCEL TIMER REQUESTS
                                     0048   137 ;
                                     0048   138 ;-------------------------------------------------------------
                                     0048   139
                          57     DD  0048   140 	PUSHL	R7			; ACCESS MODE ARGUMENT
                          00     DD  004A   141 	PUSHL	#0			; CANCEL ALL INDICATOR
       0000'CF            02     FB  004C   142 	CALLS	#2,W^EXE$CANTIM		; CANCEL TIMER REQUESTS
                                     0051   143
                                     0051   144
                                     0051   145 ;-------------------------------------------------------------
                                     0051   146 ;
                                     0051   147 ;	DISASSOCIATE COMMON EVENT BLOCKS
                                     0051   148 ;
                                     0051   149 ;-------------------------------------------------------------
                                     0051   150
            7E         40 8F     9A  0051   151 	MOVZBL	#64,-(SP)		; PUSHL EFN FOR GROUP #2
       0000'CF            01     FB  0055   152 	CALLS	#1,W^EXE$DACEFC		; DISASSOCIATE
            7E         60 8F     9A  005A   153 	MOVZBL	#96,-(SP)		; PUSH	EFN FOR GROUP #3
       0000'CF            01     FB  005E   154 	CALLS	#1,W^EXE$DACEFC		; DISASSOCIATE
                                     0063   155 ;-------------------------------------------------------------
                                     0063   156 ;
                                     0063   157 ;	PURGE PENDING UNDELIVERED AST CONTROL BLOCKS
                                     0063   158 ;
                                     0063   159 ;-------------------------------------------------------------
                                     0063   160
                                     0063   161 ASTRUNDWN:				;
            56         10 A4     DE  0063   162 	MOVAL	PCB$L_ASTQFL(R4),R6	; COMPUTE ADDRESS OF HEADER
                                     0067   163 	DSBINT	#IPL$_SYNCH		; BLOCK AST ARRIVAL
            7E            12     DB  0067       		MFPR	#PR$_IPL,-(SP)
            12            07     DA  006A       		MTPR	#IPL$_SYNCH,#PR$_IPL
         60 A4       0004'CF     D1  006D   164 	CMPL	W^EXE$GQ_ERLMBX+4,PCB$L_PID(R4)	; CHECK FOR ERROR LOG MAILBOX
                          04     12  0073   165 	BNEQ	10$			; BR IF NO
                     0000'CF     7C  0075   166 	CLRQ	W^EXE$GQ_ERLMBX		; YES, DEASSIGN IT
            50         14 A4     D0  0079   167 10$:	MOVL	PCB$L_ASTQBL(R4),R0	; GET TAIL OF AST QUEUE
            56            50     D1  007D   168 	CMPL	R0,R6			; CHECK FOR EMPTY QUEUE
                          1A     13  0080   169 	BEQL	20$			; YES, DONE WITH ASTS
            02            00     ED  0082   170 	CMPZV	#ACB$V_MODE,#ACB$S_MODE,ACB$B_RMOD(R0),R7 ; CHECK ACCESS MODE OF ACB
            57         0B A0         0085
                          12     19  0088   171 	BLSS	20$			; REACHED THE END OF DELETABLE ASTS
SYSRUNDWN       IMAGE RUNDOWN SYSTEM SERVICE                     22-AUG-1978 00:21:23   VAX-11 MACRO X0.3-11               Page   5
01              EXE$RUNDWN - IMAGE RUNDOWN SYSTEM SERVICE                                                                        (1)

            50            60     0F  008A   172 	REMQUE	(R0),R0			; REMOVE IT FROM AST QUEUE
                          0D     1D  008D   173 	BVS	20$			; EXIT IF QUEUE EMPTY
         0B A0            06     E1  008F   174 	BBC	#ACB$V_QUOTA,ACB$B_RMOD(R0),15$	; SKIP IF NO QUOTA ACCOUNTING
                          03         0093
                       3C A4     B6  0094   175 	INCW	PCB$W_ASTCNT(R4)	; ALLOW ANOTHER AST
                          FF66'  30  0097   176 15$:	BSBW	EXE$DEANONPAGED		; AND RELEASE ITS SPACE
                          DD     11  009A   177 	BRB	10$			; CONTINUE
                                     009C   178
                                     009C   179 ;-------------------------------------------------------------
                                     009C   180 ;
                                     009C   181 ;	RESET AST ACTIVE AND AST ENABLE BITS
                                     009C   182 ;
                                     009C   183 ;-------------------------------------------------------------
                                     009C   184
            55            57     D0  009C   185 20$:	MOVL	R7,R5			; INITIALIZE MODE INDEX
                          13     13  009F   186 	BEQL	40$			; SKIP TERMINATION HANDLER FOR KERNEL
                                     00A1   187 30$:
            55            02     D1  00A1   188 	CMPL	#2,R5			; SUPERVISOR OR USER MODE?
                          07     19  00A4   189 	BLSS	35$			; BRANCH IF NOT
                 FFFFFFF8'9F45   D4  00A6   190 	CLRL	@#CTL$GL_CMSUPR-8[R5]	; CLEAR CHANGE MODE HANDLER
                 FFFFFFFC'9F45   D4  00AD   191 35$:	CLRL	@#CTL$GL_THEXEC-4[R5]	; CLEAR TERMINATION HANDLER
                 00000000'9F45   7C  00B4   192 40$:	CLRQ	@#CTL$AQ_EXCVEC[R5]	; CLEAR EXCEPTION HANDLER ENTRIES
                 00000000'9F45   D4  00BB   193 	CLRL	@#CTL$AL_FINALEXC[R5]	; CLEAR LAST CHANCE EXCEPTION HANDLER
         0D A4            55     E2  00C2   194 	BBSS	R5,PCB$B_ASTEN(R4),50$	; SET ENABLE BIT
                          00         00C6
         0C A4            55     E5  00C7   195 50$:	BBCC	R5,PCB$B_ASTACT(R4),60$	; CLEAR AST ACTIVE
                          00         00CB
            55            06     C1  00CC   196 60$:	ADDL3	#PCB$V_SSFEXC,R5,R0	; COMPUTE SSFAIL ENABLE BIT NUMBER
                          50         00CF
         28 A4            50     E5  00D0   197 	BBCC	R0,PCB$L_STS(R4),70$	; AND CLEAR IT
                          00         00D4
            55            04     F2  00D5   198 70$:	AOBLSS	#4,R5,30$		; DO ALL REQUESTED MODES
                          C8         00D8
                 00000000'9F     D4  00D9   199 	CLRL	@#CTL$GL_CMHANDLR	; CLEAR COMPATIBILITY MODE HANDLER
                          FF1E'  30  00DF   200 	BSBW	SCH$NEWLVL		; COMPUTE NEW ASTLVL
         28 A4            02     E5  00E2   201 	BBCC	#PCB$V_FORCPEN,PCB$L_STS(R4),80$	; CLEAR FORCE EXIT PENDING
                          00         00E6
                                     00E7   202 80$:					;
                                     00E7   203 	ENBINT				; ENABLE AGAIN
            12            8E     DA  00E7       		MTPR	(SP)+,#PR$_IPL
                                     00EA   204 ;-------------------------------------------------------------
                                     00EA   205 ;
                                     00EA   206 ;	DELETE IMAGE LOGICAL NAMES
                                     00EA   207 ;
                                     00EA   208 ;-------------------------------------------------------------
                                     00EA   209
                                     00EA   210 LOGNRUNDWN:				; LOGICAL NAME RUNDOWN
                                     00EA   211 	$DELLOG_S	TBLFLG=#2,-	; DELETE PROCESS LOCAL
                                     00EA   212 			ACMODE=R7	; FOR RUNDOWN MODE
                          57     DD  00EA       		PUSHL	R7
                          00     DD  00EC       		PUSHL	#0
                          02     DD  00EE       		PUSHL	#2
   00000000'9F            03     FB  00F0       		CALLS	#3,@#SYS$DELLOG
                                     00F7   213
                                     00F7   214
            50            01     3C  00F7   215 	MOVZWL	#SS$_NORMAL,R0		; SET NORMAL COMPLETION STATUS
                                 04  00FA   216 	RET				; RETURN
SYSRUNDWN       IMAGE RUNDOWN SYSTEM SERVICE                     22-AUG-1978 00:21:23   VAX-11 MACRO X0.3-11               Page   6
01              EXE$RUNDWN - IMAGE RUNDOWN SYSTEM SERVICE                                                                        (1)

                                     00FB   217
                                     00FB   218 	.END
SYSRUNDWN       IMAGE RUNDOWN SYSTEM SERVICE                     22-AUG-1978 00:21:23   VAX-11 MACRO X0.3-11               Page   7
SYMBOL TABLE                                                                                                                     (1)

ACB$B_RMOD       0000000B            LOG$C_SYSTEM   = 00000000            PCB$W_APTCNT     00000034
ACB$B_TYPE       0000000A            LOG$K_LENGTH     00000014            PCB$W_ASTCNT     0000003C
ACB$L_AST        00000010            LOG$L_LTBL       00000004            PCB$W_BIOCNT     0000003E
ACB$L_ASTPRM     00000014            LOG$L_LTFL       00000000            PCB$W_BIOLM      00000040
ACB$L_ASTQBL     00000004            LOG$L_MBXUCB     00000010            PCB$W_BYTCNT     00000042
ACB$L_ASTQFL     00000000            LOG$T_NAME       00000014            PCB$W_BYTLM      00000068
ACB$L_KAST       00000018            LOG$W_GROUP      0000000C            PCB$W_DIOCNT     00000044
ACB$L_PID        0000000C            LOG$W_SIZE       00000008            PCB$W_DIOLM      00000046
ACB$M_QUOTA    = 00000040            LOGNRUNDWN       000000EA R     01   PCB$W_FILCNT     00000048
ACB$S_MODE     = 00000002            PCB$B_ASTACT     0000000C            PCB$W_GPGCNT     00000038
ACB$V_KAST     = 00000007            PCB$B_ASTEN      0000000D            PCB$W_GRP        00000022
ACB$V_MODE     = 00000000            PCB$B_PRI        0000000B            PCB$W_MEM        00000020
ACB$V_QUOTA    = 00000006            PCB$B_PRIB       00000033            PCB$W_MTXCNT     0000000E
ACB$W_SIZE       00000008            PCB$B_TYPE       0000000A            PCB$W_PPGCNT     0000003A
ACMODE         = 00000004            PCB$B_WEFC       00000032            PCB$W_PRCCNT     0000006A
ASTRUNDWN        00000063 R     01   PCB$C_LENGTH     0000007C            PCB$W_SIZE       00000008
BIT...         = 00000000            PCB$K_LENGTH     0000007C            PCB$W_STATE      00000030
CCB$B_AMOD       00000009            PCB$L_ASTQBL     00000014            PCB$W_TMBU       00000036
CCB$B_STS        00000008            PCB$L_ASTQFL     00000010            PCB$W_TQCNT      0000004A
CCB$C_LENGTH     00000010            PCB$L_EFC2P      00000058            PR$_ACCR       = 00000029
CCB$K_LENGTH     00000010            PCB$L_EFC3P      0000005C            PR$_ACCS       = 00000028
CCB$L_DIRP       0000000C            PCB$L_EFCS       00000050            PR$_ASTLVL     = 00000013
CCB$L_UCB        00000000            PCB$L_EFCU       00000054            PR$_ESP        = 00000001
CCB$L_WIND       00000004            PCB$L_EFWM       0000004C            PR$_ICCS       = 00000018
CCB$W_IOC        0000000A            PCB$L_OWNER      0000001C            PR$_ICR        = 0000001A
CTL$AL_FINALEXC  ********   X   01   PCB$L_PHD        00000064            PR$_IPL        = 00000012
CTL$AQ_EXCVEC    ********   X   01   PCB$L_PHYPCB     00000018            PR$_ISP        = 00000004
CTL$GL_CCBBASE   ********   X   01   PCB$L_PID        00000060            PR$_KSP        = 00000000
CTL$GL_CMHANDLR  ********   X   01   PCB$L_PQB        0000004C            PR$_MAPEN      = 00000038
CTL$GL_CMSUPR    ********   X   01   PCB$L_SQBL       00000004            PR$_NICR       = 00000019
CTL$GL_THEXEC    ********   X   01   PCB$L_SQFL       00000000            PR$_P0BR       = 00000008
CTL$GW_CHINDX    ********   X   01   PCB$L_STS        00000028            PR$_P0LR       = 00000009
CTL$GW_NMIOCH    ********   X   01   PCB$L_UIC        00000020            PR$_P1BR       = 0000000A
EXE$CANTIM       ********   X   01   PCB$L_WSSWP      00000024            PR$_P1LR       = 0000000B
EXE$DACEFC       ********   X   01   PCB$L_WTIME      0000002C            PR$_PCBB       = 00000010
EXE$DEANONPAGED  ********   X   01   PCB$T_LNAME      0000006C            PR$_RXCS       = 00000020
EXE$GQ_ERLMBX    ********   X   01   PCB$V_ASTPEN   = 00000011            PR$_RXDB       = 00000021
EXE$MAXACMODE    ********   X   01   PCB$V_BATCH    = 0000000E            PR$_SBIER      = 00000034
EXE$RUNDWN       00000000 RG    01   PCB$V_DELPEN   = 00000001            PR$_SBIFS      = 00000030
GBL...         = 00000000            PCB$V_FORCPEN  = 00000002            PR$_SBIMT      = 00000033
IORUNDWN         0000000E R     01   PCB$V_HIBER    = 00000013            PR$_SBIQC      = 00000036
IPL$_ASTDEL    = 00000002            PCB$V_INQUAN   = 00000003            PR$_SBIS       = 00000031
IPL$_HWCLK     = 00000018            PCB$V_LOGIN    = 00000014            PR$_SBISC      = 00000032
IPL$_IOPOST    = 00000004            PCB$V_NOACNT   = 0000000F            PR$_SBITA      = 00000035
IPL$_MAILBOX   = 0000000B            PCB$V_PHDRES   = 00000012            PR$_SBR        = 0000000C
IPL$_POWER     = 0000001F            PCB$V_PSWAPM   = 00000004            PR$_SCBB       = 00000011
IPL$_QUEUEAST  = 00000006            PCB$V_RES      = 00000000            PR$_SID        = 0000003E
IPL$_SCHED     = 00000003            PCB$V_RESPEN   = 00000005            PR$_SIRR       = 00000014
IPL$_SYNCH     = 00000007            PCB$V_SSFEXC   = 00000006            PR$_SISR       = 00000015
IPL$_TIMER     = 00000007            PCB$V_SSFEXCE  = 00000007            PR$_SLR        = 0000000D
LOG$B_AMOD       0000000E            PCB$V_SSFEXCS  = 00000008            PR$_SSP        = 00000002
LOG$B_TABLE      0000000B            PCB$V_SSFEXCU  = 00000009            PR$_TBIA       = 00000039
LOG$B_TYPE       0000000A            PCB$V_SSRWAIT  = 0000000A            PR$_TBIS       = 0000003A
LOG$C_GROUP    = 00000001            PCB$V_SUSPEN   = 0000000B            PR$_TODR       = 0000001B
LOG$C_LENGTH     00000014            PCB$V_SWPVBN   = 00000010            PR$_TXCS       = 00000022
LOG$C_NAMLENGTH= 00000040            PCB$V_WAKEPEN  = 0000000C            PR$_TXDB       = 00000023
LOG$C_PROCESS  = 00000002            PCB$V_WALL     = 0000000D            PR$_USP        = 00000003
SYSRUNDWN       IMAGE RUNDOWN SYSTEM SERVICE                     22-AUG-1978 00:21:23   VAX-11 MACRO X0.3-11               Page   8
SYMBOL TABLE                                                                                                                     (1)

PR$_WCSA       = 0000002C            SS$_EXTIDXFILE = 00000880            SS$_MSGNOTFND  = 00000621
PR$_WCSD       = 0000002D            SS$_FCPREADERR = 00000888            SS$_MUSTCLOSEFL= 00000948
SCH$NEWLVL       ********   X   01   SS$_FCPREPSTN  = 00000988            SS$_NODATA     = 000001AC
SS$_ABORT      = 0000002C            SS$_FCPREWNDERR= 00000890            SS$_NOHANDLER  = 000008F8
SS$_ACCONFLICT = 00000800            SS$_FCPSPACERR = 00000898            SS$_NOHOMEBLK  = 000008E0
SS$_ACCVIO     = 0000000C            SS$_FCPWRITERR = 000008A0            SS$_NOIOCHAN   = 000001B4
SS$_ARITH      = 00000404            SS$_FILACCERR  = 0000009C            SS$_NOLINKS    = 0000027C
SS$_ASTFLT     = 0000040C            SS$_FILALRACC  = 000000A4            SS$_NOLOGNAM   = 000001BC
SS$_BADATTRIB  = 00000034            SS$_FILELOCKED = 000008A8            SS$_NOMBX      = 00000274
SS$_BADCHKSUM  = 00000808            SS$_FILENUMCHK = 000008B0            SS$_NOMOREFILES= 00000930
SS$_BADESCAPE  = 0000003C            SS$_FILESEQCHK = 000008B8            SS$_NONEXDRV   = 000001C4
SS$_BADFILEHDR = 00000810            SS$_FILESTRUCT = 000008C0            SS$_NONEXPR    = 000008E8
SS$_BADFILENAME= 00000818            SS$_FILNOTACC  = 000000AC            SS$_NONLOCAL   = 000008F0
SS$_BADFILEVER = 00000820            SS$_FILNOTCNTG = 000002AC            SS$_NOPRIV     = 00000024
SS$_BADIMGHDR  = 00000044            SS$_FILNOTEXP  = 000000B4            SS$_NORMAL     = 00000001
SS$_BADIRECTORY= 00000828            SS$_FORMAT     = 000000BC            SS$_NOSIGNAL   = 00000900
SS$_BADPARAM   = 00000014            SS$_GPTFULL    = 000000C4            SS$_NOSOLICIT  = 00000284
SS$_BADSTACK   = 000002B4            SS$_GSDFULL    = 000000CC            SS$_NOSUCHDEV  = 00000908
SS$_BEGOFFILE  = 00000938            SS$_GSDNOTXXX  = 000000D4            SS$_NOSUCHFILE = 00000910
SS$_BLOCKCNTERR= 00000940            SS$_HANGUP     = 000002CC            SS$_NOSUCHNODE = 0000028C
SS$_BREAK      = 00000414            SS$_HEADERFULL = 000008C8            SS$_NOSUCHSEC  = 00000978
SS$_BUFFEROVF  = 00000601            SS$_IDXFILEFULL= 000008D0            SS$_NOTAPEOP   = 00000264
SS$_BUGCHECK   = 000002A4            SS$_ILLBLKNUM  = 000000DC            SS$_NOTFILEDEV = 000001CC
SS$_CANCEL     = 00000830            SS$_ILLCNTRFUNC= 000000E4            SS$_NOTINTBLSZ = 000001D4
SS$_CHANINTLK  = 0000004C            SS$_ILLEFC     = 000000EC            SS$_NOTLABELMT = 000001DC
SS$_CLIFRCEXT  = 00000980            SS$_ILLIOFUNC  = 000000F4            SS$_NOTNETDEV  = 000002EC
SS$_CMODSUPR   = 0000041C            SS$_ILLLBLAST  = 00000968            SS$_NOTRAN     = 00000629
SS$_CMODUSER   = 00000424            SS$_ILLPAGCNT  = 000000FC            SS$_NOTSQDEV   = 000001E4
SS$_COMPAT     = 0000042C            SS$_ILLSEQOP   = 000002DC            SS$_OPCCUS     = 00000434
SS$_CONTINUE   = 00000001            SS$_ILLSER     = 00000104            SS$_OPCDEC     = 0000043C
SS$_CONTROLC   = 00000651            SS$_ILLUSRLBLRD= 00000958            SS$_OPINCOMPL  = 000002D4
SS$_CONTROLO   = 00000609            SS$_ILLUSRLBLWT= 00000960            SS$_PAGOWNVIO  = 000001EC
SS$_CONTROLY   = 00000611            SS$_INCVOLLABEL= 0000010C            SS$_PAGRDERR   = 00000444
SS$_CREATED    = 00000619            SS$_INSFARG    = 00000114            SS$_PARITY     = 000001F4
SS$_CTRLERR    = 00000054            SS$_INSFMEM    = 00000124            SS$_PARTESCAPE = 000001FC
SS$_DATACHECK  = 0000005C            SS$_INSFRAME   = 0000012C            SS$_PFMBSY     = 00000204
SS$_DATAOVERUN = 00000838            SS$_INSFWSL    = 0000011C            SS$_PSTFULL    = 0000020C
SS$_DEBUG      = 0000046C            SS$_IVADDR     = 00000134            SS$_RADRMOD    = 0000044C
SS$_DEVACTIVE  = 000002C4            SS$_IVCHAN     = 0000013C            SS$_REJECT     = 00000294
SS$_DEVALLOC   = 00000840            SS$_IVCHNLSEC  = 0000026C            SS$_REMOTE     = 00000649
SS$_DEVALRALLOC= 00000641            SS$_IVDEVNAM   = 00000144            SS$_RESIGNAL   = 00000918
SS$_DEVASSIGN  = 00000848            SS$_IVGSDNAM   = 0000014C            SS$_RESULTOVF  = 00000214
SS$_DEVFOREIGN = 00000064            SS$_IVLOGNAM   = 00000154            SS$_ROPRAND    = 00000454
SS$_DEVICEFULL = 00000850            SS$_IVLOGTAB   = 0000015C            SS$_SECTBLFUL  = 0000021C
SS$_DEVMOUNT   = 0000006C            SS$_IVPROTECT  = 000002F4            SS$_SSFAIL     = 0000045C
SS$_DEVNOTALLOC= 00000858            SS$_IVQUOTAL   = 00000164            SS$_SUPERSEDE  = 00000631
SS$_DEVNOTMBX  = 00000074            SS$_IVSECFLG   = 0000016C            SS$_TAPEPOSLOST= 00000224
SS$_DEVNOTMOUNT= 0000007C            SS$_IVSECIDCTL = 000002E4            SS$_TBIT       = 00000464
SS$_DEVOFFLINE = 00000084            SS$_IVSSRQ     = 00000174            SS$_TIMEOUT    = 0000022C
SS$_DIRFULL    = 00000860            SS$_IVSTSFLG   = 0000017C            SS$_TOOMANYVER = 00000990
SS$_DRVERR     = 0000008C            SS$_IVTIME     = 00000184            SS$_TOOMUCHDATA= 0000029C
SS$_DUPFILENAME= 00000868            SS$_LENVIO     = 0000018C            SS$_UNASEFC    = 00000234
SS$_DUPLNAM    = 00000094            SS$_LKWSETFUL  = 00000194            SS$_UNSAFE     = 0000023C
SS$_ENDOFFILE  = 00000870            SS$_MBFULL     = 000008D8            SS$_UNWIND     = 00000920
SS$_ENDOFTAPE  = 00000878            SS$_MBTOOSML   = 0000019C            SS$_UNWINDING  = 00000928
SS$_ENDOFUSRLBL= 00000970            SS$_MCHECK     = 000002BC            SS$_VASFULL    = 00000244
SS$_EXQUOTA    = 0000001C            SS$_MEDOFL     = 000001A4            SS$_VECINUSE   = 0000024C
SYSRUNDWN       IMAGE RUNDOWN SYSTEM SERVICE                     22-AUG-1978 00:21:23   VAX-11 MACRO X0.3-11               Page   9
SYMBOL TABLE                                                                                                                     (1)

SS$_VOLINV     = 00000254
SS$_WAITUSRLBL = 00000950
SS$_WASCLR     = 00000001
SS$_WASECC     = 00000639
SS$_WASSET     = 00000009
SS$_WRITLCK    = 0000025C
SYS$DALLOC       ********   X   01
SYS$DASSGN       ********   X   01
SYS$DELLOG       ********   X   01


PROGRAM SECTION SYNOPSIS

.  ABS  .        00000000      00     NOPIC   USR   CON   ABS   LCL NOSHR NOEXE NORD  NOWRT BYTE
. BLANK .        000000FB      01     NOPIC   USR   CON   REL   LCL NOSHR   EXE   RD    WRT BYTE
$ABS$            0000007C      02     NOPIC   USR   CON   ABS   LCL NOSHR   EXE   RD    WRT BYTE


THERE WERE NO ERRORS OR WARNINGS.
15220. BYTES LEFT IN FREE MEMORY POOL.
2958. BYTES OF RECLAIMED MEMORY.
OBJ$:SYSRUNDWN,LIS$:SYSRUNDWN/-SP=LIB$:LIB/ML,SRC$:SYSRUNDWN
4 MLB DIR RDS - 601 GETS TO DEFINE 21 MACROS. 40 INTER. FILE WRITES.
