SYSSNDMSG       - SEND MESSAGE SYSTEM SERVICES                   21-AUG-1978 23:48:22   VAX-11 MACRO X0.3-11               Page   0
TABLE OF CONTENTS

   (2)      49  EXE$SNDACC - SEND MESSAGE TO ACCOUNT MANAGER
   (3)      88  EXE$SNDSMB - SEND MESSAGE TO SYMBIONT MANAGER
   (4)     127  EXE$SNDOPR - SEND MESSAGE TO OPERATOR MAILBOX
   (5)     166  BUILD MESSAGE SUBROUTINE
   (6)     232  SEND MESSAGE ROUTINE
SYSSNDMSG       - SEND MESSAGE SYSTEM SERVICES                   21-AUG-1978 23:48:22   VAX-11 MACRO X0.3-11               Page   1
X01                                                                                                                              (1)

                                     0000     1 	.TITLE	SYSSNDMSG - SEND MESSAGE SYSTEM SERVICES
                                     0000     2 	.IDENT	/X01/
                                     0000     3
                                     0000     4 ;
                                     0000     5 ;  COPYRIGHT (c) 1977 BY
                                     0000     6 ;	      DIGITAL EQUIPMENT CORPORATION, MAYNARD, MASS.
                                     0000     7 ;
                                     0000     8 ; THIS SOFTWARE IS FURNISHED UNDER A LICENSE AND MAY BE USED AND  COPIED
                                     0000     9 ; ONLY  IN  ACCORDANCE  WITH  THE  TERMS  OF  SUCH  LICENSE AND WITH THE
                                     0000    10 ; INCLUSION OF THE ABOVE COPYRIGHT NOTICE.  THIS SOFTWARE OR  ANY  OTHER
                                     0000    11 ; COPIES  THEREOF MAY NOT BE PROVIDED OR OTHERWISE MADE AVAILABLE TO ANY
                                     0000    12 ; OTHER PERSON.  NO TITLE TO AND OWNERSHIP OF  THE  SOFTWARE  IS  HEREBY
                                     0000    13 ; TRANSFERRED.
                                     0000    14 ;
                                     0000    15 ; THE INFORMATION IN THIS SOFTWARE IS SUBJECT TO CHANGE  WITHOUT  NOTICE
                                     0000    16 ; AND  SHOULD  NOT  BE  CONSTRUED  AS  A COMMITMENT BY DIGITAL EQUIPMENT
                                     0000    17 ; CORPORATION.
                                     0000    18 ;
                                     0000    19 ; DIGITAL ASSUMES NO RESPONSIBILITY FOR THE USE OR  RELIABILITY  OF  ITS
                                     0000    20 ; SOFTWARE ON EQUIPMENT WHICH IS NOT SUPPLIED BY DIGITAL.
                                     0000    21 ;
                                     0000    22
                                     0000    23 ;++
                                     0000    24 ; FACILITY:
                                     0000    25 ;
                                     0000    26 ;	STARLET SYSTEM SERVICE
                                     0000    27 ;
                                     0000    28 ; ABSTRACT:
                                     0000    29 ;
                                     0000    30 ;	COMMON MODULE FOR SEND TO OPERATOR AND SYMBIONT MANAGER.
                                     0000    31 ;
                                     0000    32 ; AUTHOR: R.HEINEN, CREATION DATE: 11-JUL-77
                                     0000    33 ;--
                                     0000    34 ;
                                     0000    35 ; EXTERNAL SYMBOLS
                                     0000    36 ;
                                     0000    37 	$CCBDEF				; DEFINE CHANNEL CONTROL BLOCK
                                     0000    38 	$DEVDEF				; DEFINE DEVICE CHARACTERISTICS
                                     0000    39 	$MSGDEF				; DEFINE MESSAGE TYPES
                                     0000    40 	$PCBDEF				; DEFINE PCB
                                     0000    41 	$SSDEF				; DEFINE SYSTEM STATUS RETURN CODES
                                     0000    42 	$UCBDEF				; DEFINE UCB
                                     0000    43 ;
                                     0000    44 ; LOCAL SYMBOLS
                                     0000    45 ;
                           00000004  0000    46 MSG=4
                           00000008  0000    47 MBX=8
SYSSNDMSG       - SEND MESSAGE SYSTEM SERVICES                   21-AUG-1978 23:48:22   VAX-11 MACRO X0.3-11               Page   2
X01             EXE$SNDACC - SEND MESSAGE TO ACCOUNT MANAGER                                                                     (2)

                                     0000    49 	.SBTTL	EXE$SNDACC - SEND MESSAGE TO ACCOUNT MANAGER
                                     0000    50 ;++
                                     0000    51 ; EXE$SNDACC - SEND MESSAGE TO ACCOUNT MANAGER
                                     0000    52 ;
                                     0000    53 ; FUNCTIONAL DESCRIPTION:
                                     0000    54 ;
                                     0000    55 ; THIS ROUTINE PROVIDES THE SEND TO ACCOUNT MANAGER MAILBOX SYSTEM SERVICE.
                                     0000    56 ; THE ACTION IS TO BUILD A MESSAGE CONSISTING OF A COMMON HEADER
                                     0000    57 ; AND THE USER SPECIFIED TEXT AND THEN SEND IT TO THE JOB CONTROLLER MAILBOX.
                                     0000    58 ; THE SPECIFIED MESSAGE IS ADDRESSED CHECKED AND THE REQUEST REPLY MAILBOX
                                     0000    59 ; IS CHECKED FOR BEING A MAILBOX AND ACCESSIBLE TO THE PROCESS.
                                     0000    60 ;
                                     0000    61 ; INPUTS:
                                     0000    62 ;
                                     0000    63 ;	MSG(AP) = ADDRESS OF THE QUADWORD DESC FOR THE MESSAGE TEXT.
                                     0000    64 ;	MBX(AP) = CHANNEL NUMBER OF THE MAILBOX FOR THE REPLY.
                                     0000    65 ;
                                     0000    66 ; OUTPUTS:
                                     0000    67 ;
                                     0000    68 ;	R0 = STATUS OF THE OPERATION
                                     0000    69 ;
                                     0000    70 ; STATUS CODES RETURNED:
                                     0000    71 ;
                                     0000    72 ;	SS$_NORMAL - SUCCESSFUL OPERATION
                                     0000    73 ;	SS$_INSFMEM - INSUFFICIENT MEMORY FOR THE REQUEST
                                     0000    74 ;	SS$_ACCVIO - ACCESS VIOLATION ON BUFFER
                                     0000    75 ;	SS$_NOPRIV - PROCESS DOES NOT HAVE READ ACCESS TO SPECIFIED MAILBOX
                                     0000    76 ;	SS$_IVCHAN - SPECIFIED CHANNEL INVALID
                                     0000    77 ;	SS$_DEVNOTMBX - SPECIFIED CHANNEL IS NOT TO MAILBOX
                                     0000    78 ;	SS$_BADPARAM - MESSAGE SIZE ERROR
                                     0000    79 ;	SS$_MBTOOSML - MESSAGE EXCEEDS MAILBOX SIZE
                                     0000    80 ;	SS$_DEVOFFLIN - DEVICE OFFLINE
                                     0000    81 ;--
                                     0000    82 EXE$SNDACC::				; SEND TO ACCOUNTING MANAGER
                               0FFC  0000    83 	.WORD	^M<R2,R3,R4,R5,R6,R7,R8,R9,R10,R11>
            5B            0A     9A  0002    84 	MOVZBL	#MSG$_SNDACC,R11	; SET MESSAGE TYPE CODE
            55   00000000'EF     9E  0005    85 	MOVAB	SYS$GL_JOBCTLMB,R5	; ADDRESS TARGET MAILBOX
                          1C     11  000C    86 	BRB	BUILDMSG		; CONTINUE IN COMMON
SYSSNDMSG       - SEND MESSAGE SYSTEM SERVICES                   21-AUG-1978 23:48:22   VAX-11 MACRO X0.3-11               Page   3
X01             EXE$SNDSMB - SEND MESSAGE TO SYMBIONT MANAGER                                                                    (3)

                                     000E    88 	.SBTTL	EXE$SNDSMB - SEND MESSAGE TO SYMBIONT MANAGER
                                     000E    89 ;++
                                     000E    90 ; EXE$SNDSMB - SEND MESSAGE TO SYMBIONT MANAGER
                                     000E    91 ;
                                     000E    92 ; FUNCTIONAL DESCRIPTION:
                                     000E    93 ;
                                     000E    94 ; THIS ROUTINE PROVIDES THE SEND TO SYMBIONT MANAGER MAILBOX SYSTEM SERVICE.
                                     000E    95 ; THE ACTION IS TO BUILD A MESSAGE CONSISTING OF A COMMON HEADER
                                     000E    96 ; AND THE USER SPECIFIED TEXT AND THEN SEND IT TO THE JOB CONTROLLER MAILBOX.
                                     000E    97 ; THE SPECIFIED MESSAGE IS ADDRESSED CHECKED AND THE REQUEST REPLY MAILBOX
                                     000E    98 ; IS CHECKED FOR BEING A MAILBOX AND ACCESSIBLE TO THE PROCESS.
                                     000E    99 ;
                                     000E   100 ; INPUTS:
                                     000E   101 ;
                                     000E   102 ;	MSG(AP) = ADDRESS OF THE QUADWORD DESC FOR THE MESSAGE TEXT.
                                     000E   103 ;	MBX(AP) = CHANNEL NUMBER OF THE MAILBOX FOR THE REPLY.
                                     000E   104 ;
                                     000E   105 ; OUTPUTS:
                                     000E   106 ;
                                     000E   107 ;	R0 = STATUS OF THE OPERATION
                                     000E   108 ;
                                     000E   109 ; STATUS CODES RETURNED:
                                     000E   110 ;
                                     000E   111 ;	SS$_NORMAL - SUCCESSFUL OPERATION
                                     000E   112 ;	SS$_INSFMEM - INSUFFICIENT MEMORY FOR THE REQUEST
                                     000E   113 ;	SS$_ACCVIO - ACCESS VIOLATION ON BUFFER
                                     000E   114 ;	SS$_NOPRIV - PROCESS DOES NOT HAVE READ ACCESS TO SPECIFIED MAILBOX
                                     000E   115 ;	SS$_IVCHAN - SPECIFIED CHANNEL INVALID
                                     000E   116 ;	SS$_DEVNOTMBX - SPECIFIED CHANNEL IS NOT TO MAILBOX
                                     000E   117 ;	SS$_BADPARAM - MESSAGE SIZE ERROR
                                     000E   118 ;	SS$_MBTOOSML - MESSAGE EXCEEDS MAILBOX SIZE
                                     000E   119 ;	SS$_DEVOFFLIN - DEVICE OFFLINE
                                     000E   120 ;--
                                     000E   121 EXE$SNDSMB::				; SEND TO SYMBIONT MANAGER
                               0FFC  000E   122 	.WORD	^M<R2,R3,R4,R5,R6,R7,R8,R9,R10,R11>
            5B            04     9A  0010   123 	MOVZBL	#MSG$_SNDSMB,R11	; SET MESSAGE TYPE CODE
            55   00000000'EF     9E  0013   124 	MOVAB	SYS$GL_JOBCTLMB,R5	; SET ADDRESS OF MAILBOX
                          0E     11  001A   125 	BRB	BUILDMSG		; CONTINUE IN COMMON
SYSSNDMSG       - SEND MESSAGE SYSTEM SERVICES                   21-AUG-1978 23:48:22   VAX-11 MACRO X0.3-11               Page   4
X01             EXE$SNDOPR - SEND MESSAGE TO OPERATOR MAILBOX                                                                    (4)

                                     001C   127 	.SBTTL	EXE$SNDOPR - SEND MESSAGE TO OPERATOR MAILBOX
                                     001C   128 ;++
                                     001C   129 ; EXE$SNDOPR - SEND MESSAGE TO OPERATOR MAILBOX
                                     001C   130 ;
                                     001C   131 ; FUNCTIONAL DESCRIPTION:
                                     001C   132 ;
                                     001C   133 ; THIS ROUTINE PROVIDES THE SEND TO OPERATOR MAILBOX SYSTEM SERVICE.
                                     001C   134 ; THE ACTION IS TO BUILD A MESSAGE CONSISTING OF A COMMON HEADER
                                     001C   135 ; AND THE USER SPECIFIED TEXT AND THEN SEND IT TO THE OPERATOR MAILBOX.
                                     001C   136 ; THE SPECIFIED MESSAGE IS ADDRESSED CHECKED AND THE REQUEST REPLY MAILBOX
                                     001C   137 ; IS CHECKED FOR BEING A MAILBOX AND ACCESSIBLE TO THE PROCESS.
                                     001C   138 ;
                                     001C   139 ; INPUTS:
                                     001C   140 ;
                                     001C   141 ;	MSG(AP) = ADDRESS OF THE QUADWORD DESC FOR THE MESSAGE TEXT.
                                     001C   142 ;	MBX(AP) = CHANNEL NUMBER OF THE MAILBOX FOR THE REPLY.
                                     001C   143 ;
                                     001C   144 ; OUTPUTS:
                                     001C   145 ;
                                     001C   146 ;	R0 = STATUS OF THE OPERATION
                                     001C   147 ;
                                     001C   148 ; STATUS CODES RETURNED:
                                     001C   149 ;
                                     001C   150 ;	SS$_NORMAL - SUCCESSFUL OPERATION
                                     001C   151 ;	SS$_IVCHAN - SPECIFIED CHANNEL INVALID
                                     001C   152 ;	SS$_MBTOOSML - MESSAGE EXCEEDS MAILBOX SIZE
                                     001C   153 ;	SS$_DEVOFFLIN - DEVICE OFFLINE
                                     001C   154 ;	SS$_INSFMEM - INSUFFICIENT MEMORY FOR THE REQUEST
                                     001C   155 ;	SS$_ACCVIO - ACCESS VIOLATION ON BUFFER
                                     001C   156 ;	SS$_NOPRIV - PROCESS DOES NOT HAVE READ ACCESS TO SPECIFIED MAILBOX
                                     001C   157 ;	SS$_DEVNOTMBX - SPECIFIED CHANNEL IS NOT TO MAILBOX
                                     001C   158 ;	SS$_BADPARAM - MESSAGE SIZE ERROR
                                     001C   159 ;--
                                     001C   160 EXE$SNDOPR::				; SEND TO OPERATOR
                               0FFC  001C   161 	.WORD	^M<R2,R3,R4,R5,R6,R7,R8,R9,R10,R11>
            5B            08     9A  001E   162 	MOVZBL	#MSG$_OPRQST,R11	; SET MESSAGE TYPE CODE
            55   00000000'EF     9E  0021   163 	MOVAB	SYS$GL_OPRMBX,R5	; SET ADDRESS OF MAILBOX
                          00     11  0028   164 	BRB	BUILDMSG		; CONTINUE IN COMMON
SYSSNDMSG       - SEND MESSAGE SYSTEM SERVICES                   21-AUG-1978 23:48:22   VAX-11 MACRO X0.3-11               Page   5
X01             BUILD MESSAGE SUBROUTINE                                                                                         (5)

                                     002A   166 	.SBTTL	BUILD MESSAGE SUBROUTINE
                                     002A   167 ;++
                                     002A   168 ; BUILDMSG - BUILD MESSAGE ROUTINE FOR EXE$SNDOPR/EXE$SNDSMB
                                     002A   169 ;
                                     002A   170 ; FUNCTIONAL DESCRIPTION:
                                     002A   171 ;
                                     002A   172 ; THIS ROUTINE BUILDS THE REQUESTED MESSAGE ON THE EXEC STACK
                                     002A   173 ; AND ENTERS A KERNEL MODE ROUTINE TO PERFORM THE MAILBOX VALIDATION
                                     002A   174 ; AND SEND THE MESSAGE.
                                     002A   175 ;
                                     002A   176 ; INPUTS:
                                     002A   177 ;
                                     002A   178 ;	MSG(AP) = ADDRESS OF THE MESSAGE DESCRIPTER
                                     002A   179 ;	MBX(AP) = CHANNEL NUMBER OF THE REPLY MAILBOX IF ANY
                                     002A   180 ;	R5 = MAILBOX UCB ADDRESS
                                     002A   181 ;	R11 = MESSAGE TYPE
                                     002A   182 ;
                                     002A   183 ; OUTPUTS:
                                     002A   184 ;
                                     002A   185 ;	R0 = STATUS OF THE OPERATION
                                     002A   186 ;
                                     002A   187 ; STATUS CODES RETURNED:
                                     002A   188 ;
                                     002A   189 ;	SS$_NORMAL - SUCCESSFUL OPERATION
                                     002A   190 ;	SS$_IVCHAN - SPECIFIED CHANNEL INVALID
                                     002A   191 ;	SS$_MBTOOSML - MESSAGE EXCEEDS MAILBOX SIZE
                                     002A   192 ;	SS$_DEVOFFLIN - DEVICE OFFLINE
                                     002A   193 ;	SS$_INSFMEM - INSUFFICIENT MEMORY FOR THE REQUEST
                                     002A   194 ;	SS$_ACCVIO - ACCESS VIOLATION ON BUFFER
                                     002A   195 ;	SS$_NOPRIV - PROCESS DOES NOT HAVE READ ACCESS TO SPECIFIED MAILBOX
                                     002A   196 ;	SS$_DEVNOTMBX - SPECIFIED CHANNEL IS NOT TO MAILBOX
                                     002A   197 ;	SS$_BADPARAM - MESSAGE SIZE ERROR
                                     002A   198 ;--
                                     002A   199 BUILDMSG:				; BUILD MESSAGE
            50            0C     3C  002A   200 	MOVZWL	#SS$_ACCVIO,R0		; ASSUME ERROR
            59         04 AC     D0  002D   201 	MOVL	MSG(AP),R9		; GET MESSAGE DESCRIPTER
                                     0031   202 	IFNORD	#8,(R9),100$		; BR IF NO READ ACCESS
            58            69     3C  0037   203 	MOVZWL	(R9),R8			; GET SIZE OF MESSAGE
                          6D     13  003A   204 	BEQL	110$			; IF EQL THEN ILLEGAL
       0080 8F            58     B1  003C   205 	CMPW	R8,#128			; LEGAL SIZE?
                          66     1A  0041   206 	BGTRU	110$			; IF GTRU THEN NO
                                     0043   207 	IFNORD	R8,@4(R9),100$		; BR IF NO READ ACCESS
            58            29     C1  004A   208 	ADDL3	#38+3,R8,R1		; CALC SIZE OF TOTAL MESSAGE
                          51         004D
            51            03     8A  004E   209 	BICB	#3,R1			; ROUND DOWN SIZE
            50       0124 8F     3C  0051   210 	MOVZWL	#SS$_INSFMEM,R0		; ASSUME NO STACK
            5E            51     C3  0056   211 	SUBL3	R1,SP,R3		; ADDRESS MESSAGE STORAGE
                          53         0059
   00000000'9F            53     D1  005A   212 	CMPL	R3,@#CTL$AL_STACK	; IN KERNEL STACK?
                          45     1B  0061   213 	BLEQU	100$			; IF LEQU THEN YES
            5E            53     D0  0063   214 	MOVL	R3,SP			; ALLOCATE THE SPACE
                          28     BB  0066   215 	PUSHR	#^M<R3,R5>		; SAVE SIZE AND UCB ADDRESS
            83            5B     B0  0068   216 	MOVW	R11,(R3)+		; INSERT MESAGE TYPE
            83         08 AC     B0  006B   217 	MOVW	MBX(AP),(R3)+		; INSERT REPLY MAILBOX CHANNEL NUMBER
            56       0000'CF     D0  006F   218 	MOVL	W^SCH$GL_CURPCB,R6	; ADDRESS PCB
            83         64 B6     7D  0074   219 	MOVQ	@PCB$L_PHD(R6),(R3)+	; INSERT PRIVILEGE MASK
            83         20 A6     D0  0078   220 	MOVL	PCB$L_UIC(R6),(R3)+	; INSERT UIC
SYSSNDMSG       - SEND MESSAGE SYSTEM SERVICES                   21-AUG-1978 23:48:22   VAX-11 MACRO X0.3-11               Page   6
X01             BUILD MESSAGE SUBROUTINE                                                                                         (5)

   00000000'9F            0C     28  007C   221 	MOVC3	#12,@#CTL$T_USERNAME,(R3); INSERT USER NAME
                          63         0083
   00000000'9F            08     28  0084   222 	MOVC3	#8,@#CTL$T_ACCOUNT,(R3)	; INSERT ACCOUNT NAME
                          63         008B
            1F         33 A6     83  008C   223 	SUBB3	PCB$B_PRIB(R6),#31,(R3)+; INSERT BASE PRIORITY
                          83         0090
                          83     94  0091   224 	CLRB	(R3)+			;
         04 B9            58     28  0093   225 	MOVC3	R8,@4(R9),(R3)		; COPY MESSAGE
                          63         0097
            53            6E     C3  0098   226 	SUBL3	(SP),R3,-(SP)		; CALC MESSAGE SIZE
                          7E         009B
                                     009C   227 	$CMKRNL_S	B^SENDMSG,(SP)	; SEND MESSAGE IN KERNEL MODE
                                 04  00A8   228 100$:	RET				; RETURN AND CLEAN STACK
            50            14     3C  00A9   229 110$:	MOVZWL	#SS$_BADPARAM,R0	; SET BADPARAMETER ERROR
                                 04  00AC   230 	RET				; RETURN AND CLEAN STACK
SYSSNDMSG       - SEND MESSAGE SYSTEM SERVICES                   21-AUG-1978 23:48:22   VAX-11 MACRO X0.3-11               Page   7
X01             SEND MESSAGE ROUTINE                                                                                             (6)

                                     00AD   232 	.SBTTL	SEND MESSAGE ROUTINE
                                     00AD   233 ;++
                                     00AD   234 ; SENDMSG - KERNEL MODE MESSAGE SEND ROUTINE
                                     00AD   235 ;
                                     00AD   236 ; FUNCTIONAL DESCRIPTION:
                                     00AD   237 ;
                                     00AD   238 ; THIS ROUTINE RUNS IN KERNEL MODE AND SENDS THE MESSAGE TO THE
                                     00AD   239 ; TARGET MAILBOX.
                                     00AD   240 ;
                                     00AD   241 ; INPUTS:
                                     00AD   242 ;
                                     00AD   243 ;	R3 = SIZE OF MESSAGE
                                     00AD   244 ;	R4 = ADDRESS OF THE MESSAGE
                                     00AD   245 ;	R5 = MAILBOX UCB ADDRESS
                                     00AD   246 ;
                                     00AD   247 ; OUTPUTS:
                                     00AD   248 ;
                                     00AD   249 ;	R0 = STATUS OF THE OPERTATION
                                     00AD   250 ;
                                     00AD   251 ; STATUS CODES RETURNED:
                                     00AD   252 ;
                                     00AD   253 ;	SS$_NORMAL - SUCCESSFUL OPERATION
                                     00AD   254 ;	SS$_IVCHAN - SPECIFIED CHANNEL INVALID
                                     00AD   255 ;	SS$_MBTOOSML - MESSAGE EXCEEDS MAILBOX SIZE
                                     00AD   256 ;	SS$_DEVOFFLIN - DEVICE OFFLINE
                                     00AD   257 ;	SS$_INSFMEM - INSUFFICIENT MEMORY FOR THE REQUEST
                                     00AD   258 ;	SS$_NOPRIV - PROCESS DOES NOT HAVE READ ACCESS TO SPECIFIED MAILBOX
                                     00AD   259 ;	SS$_DEVNOTMBX - SPECIFIED CHANNEL IS NOT TO MAILBOX
                                     00AD   260 ;--
                                     00AD   261 SENDMSG:				;
                               0000  00AD   262 	.WORD	0			; SAVE NO REGISTERS
            55         04 AC     D0  00AF   263 	MOVL	4(AP),R5		; GET MESSAGE ADDRESS
            50         02 A5     3C  00B3   264 	MOVZWL	2(R5),R0		; GET CHANNEL NUMBER
                          31     13  00B7   265 	BEQL	10$			; IF EQL THEN NO REPLY
            54       0000'CF     D0  00B9   266 	MOVL	W^SCH$GL_CURPCB,R4	; GET CURRENT PCB
                          FF3F'  30  00BE   267 	BSBW	IOC$VERIFYCHAN		; CHECK OUT CHANNEL NUMBER
            30            50     E9  00C1   268 	BLBC	R0,100$			; BR IF ERROR
            51            61     D0  00C4   269 	MOVL	CCB$L_UCB(R1),R1	; GET UCB OF REPLY MAILBOX
         02 A5         48 A1     B0  00C7   270 	MOVW	UCB$W_UNIT(R1),2(R5)	; INSERT UNIT NUMBER OF MAILBOX
            50       0074 8F     3C  00CC   271 	MOVZWL	#SS$_DEVNOTMBX,R0	; ASSUME DEVICE NOT MAILBOX
         34 A1            14     E1  00D1   272 	BBC	#DEV$V_MBX,UCB$L_DEVCHAR(R1),100$; BR IF NOT MAILBOX
                          1E         00D5
            52         1C A1     D0  00D6   273 	MOVL	UCB$L_OWNUIC(R1),R2	; GET UIC OF BOX OWNER
            51         1A A1     3C  00DA   274 	MOVZWL	UCB$W_VPROT(R1),R1	; GET PROTECTION MASK
                          FF1F'  30  00DE   275 	BSBW	EXE$CHKRDACCES		; CHECK ACCESS
            10            50     E9  00E1   276 	BLBC	R0,100$			; BR IF ERROR IN ACCESS
                          FF19'  30  00E4   277 	BSBW	EXE$CHKWRTACCES		; CHECK OUT FOR WRITE
            0A            50     E9  00E7   278 	BLBC	R0,100$			; AND RETURN IF NO ACCESS
            55         08 AC     D0  00EA   279 10$:	MOVL	8(AP),R5		; ADDRESS UCB OF MAILBOX
            53            6C     7D  00EE   280 	MOVQ	(AP),R3			; GET SIZE AND ADDRESS OF MESSAGE
                          FF0C'  30  00F1   281 	BSBW	EXE$WRTMAILBOX		; WRITE MESSAGE
                                 04  00F4   282 100$:	RET				; RETURN
                                     00F5   283 ;
                                     00F5   284 	.END
SYSSNDMSG       - SEND MESSAGE SYSTEM SERVICES                   21-AUG-1978 23:48:22   VAX-11 MACRO X0.3-11               Page   8
SYMBOL TABLE                                                                                                                     (6)

BIT...         = 00000000            DEV$V_SHR      = 00000010            PCB$L_EFC2P      00000058
BUILDMSG         0000002A R     01   DEV$V_SPL      = 00000006            PCB$L_EFC3P      0000005C
CCB$B_AMOD       00000009            DEV$V_SQD      = 00000005            PCB$L_EFCS       00000050
CCB$B_STS        00000008            DEV$V_SWL      = 00000019            PCB$L_EFCU       00000054
CCB$C_LENGTH     00000010            DEV$V_TRM      = 00000002            PCB$L_EFWM       0000004C
CCB$K_LENGTH     00000010            DEV$V_WCK      = 0000001F            PCB$L_OWNER      0000001C
CCB$L_DIRP       0000000C            EXE$CHKRDACCES   ********   X   01   PCB$L_PHD        00000064
CCB$L_UCB        00000000            EXE$CHKWRTACCES  ********   X   01   PCB$L_PHYPCB     00000018
CCB$L_WIND       00000004            EXE$SNDACC       00000000 RG    01   PCB$L_PID        00000060
CCB$W_IOC        0000000A            EXE$SNDOPR       0000001C RG    01   PCB$L_PQB        0000004C
CTL$AL_STACK     ********   X   01   EXE$SNDSMB       0000000E RG    01   PCB$L_SQBL       00000004
CTL$T_ACCOUNT    ********   X   01   EXE$WRTMAILBOX   ********   X   01   PCB$L_SQFL       00000000
CTL$T_USERNAME   ********   X   01   GBL...         = 00000000            PCB$L_STS        00000028
DEV$M_ALL      = 00800000            IOC$VERIFYCHAN   ********   X   01   PCB$L_UIC        00000020
DEV$M_AVL      = 00040000            MBX            = 00000008            PCB$L_WSSWP      00000024
DEV$M_CCL      = 00000002            MSG            = 00000004            PCB$L_WTIME      0000002C
DEV$M_DIR      = 00000008            MSG$_ABOOPR    = 00000011            PCB$T_LNAME      0000006C
DEV$M_DMT      = 00200000            MSG$_ABORT     = 00000030            PCB$V_ASTPEN   = 00000011
DEV$M_ELG      = 00400000            MSG$_CONFIRM   = 00000031            PCB$V_BATCH    = 0000000E
DEV$M_FOD      = 00004000            MSG$_CONNECT   = 00000032            PCB$V_DELPEN   = 00000001
DEV$M_FOR      = 01000000            MSG$_CRUNSOLIC = 00000002            PCB$V_FORCPEN  = 00000002
DEV$M_GEN      = 00020000            MSG$_DELPROC   = 00000003            PCB$V_HIBER    = 00000013
DEV$M_IDV      = 04000000            MSG$_DELSMB    = 00000014            PCB$V_INQUAN   = 00000003
DEV$M_MBX      = 00100000            MSG$_DEVOFFLIN = 00000005            PCB$V_LOGIN    = 00000014
DEV$M_MNT      = 00080000            MSG$_DEVONLIN  = 00000007            PCB$V_NOACNT   = 0000000F
DEV$M_NET      = 00002000            MSG$_DISCON    = 00000033            PCB$V_PHDRES   = 00000012
DEV$M_ODV      = 08000000            MSG$_EXIT      = 00000034            PCB$V_PSWAPM   = 00000004
DEV$M_RCK      = 40000000            MSG$_INIOPR    = 00000010            PCB$V_RES      = 00000000
DEV$M_REC      = 00000001            MSG$_INTMSG    = 00000035            PCB$V_RESPEN   = 00000005
DEV$M_RND      = 10000000            MSG$_OPREPLY   = 00000009            PCB$V_SSFEXC   = 00000006
DEV$M_RTM      = 20000000            MSG$_OPRQST    = 00000008            PCB$V_SSFEXCE  = 00000007
DEV$M_SDI      = 00000010            MSG$_PATHLOST  = 00000036            PCB$V_SSFEXCS  = 00000008
DEV$M_SHR      = 00010000            MSG$_PROTOCOL  = 00000037            PCB$V_SSFEXCU  = 00000009
DEV$M_SPL      = 00000040            MSG$_REJECT    = 00000038            PCB$V_SSRWAIT  = 0000000A
DEV$M_SQD      = 00000020            MSG$_RESOPR    = 00000013            PCB$V_SUSPEN   = 0000000B
DEV$M_SWL      = 02000000            MSG$_SMBDON    = 00000009            PCB$V_SWPVBN   = 00000010
DEV$M_TRM      = 00000004            MSG$_SMBINI    = 00000008            PCB$V_WAKEPEN  = 0000000C
DEV$M_WCK      = 80000000            MSG$_SMBRSP    = 00000020            PCB$V_WALL     = 0000000D
DEV$V_ALL      = 00000017            MSG$_SNDACC    = 0000000A            PCB$W_APTCNT     00000034
DEV$V_AVL      = 00000012            MSG$_SNDSMB    = 00000004            PCB$W_ASTCNT     0000003C
DEV$V_CCL      = 00000001            MSG$_SUSOPR    = 00000012            PCB$W_BIOCNT     0000003E
DEV$V_DIR      = 00000003            MSG$_THIRDPARTY= 00000039            PCB$W_BIOLM      00000040
DEV$V_DMT      = 00000015            MSG$_TRMHANGUP = 00000006            PCB$W_BYTCNT     00000042
DEV$V_ELG      = 00000016            MSG$_TRMUNSOLIC= 00000001            PCB$W_BYTLM      00000068
DEV$V_FOD      = 0000000E            MSG$_XM_ATTN   = 0000000D            PCB$W_DIOCNT     00000044
DEV$V_FOR      = 00000018            MSG$_XM_DATAVL = 0000000B            PCB$W_DIOLM      00000046
DEV$V_GEN      = 00000011            MSG$_XM_SHUTDN = 0000000C            PCB$W_FILCNT     00000048
DEV$V_IDV      = 0000001A            PCB$B_ASTACT     0000000C            PCB$W_GPGCNT     00000038
DEV$V_MBX      = 00000014            PCB$B_ASTEN      0000000D            PCB$W_GRP        00000022
DEV$V_MNT      = 00000013            PCB$B_PRI        0000000B            PCB$W_MEM        00000020
DEV$V_NET      = 0000000D            PCB$B_PRIB       00000033            PCB$W_MTXCNT     0000000E
DEV$V_ODV      = 0000001B            PCB$B_TYPE       0000000A            PCB$W_PPGCNT     0000003A
DEV$V_RCK      = 0000001E            PCB$B_WEFC       00000032            PCB$W_PRCCNT     0000006A
DEV$V_REC      = 00000000            PCB$C_LENGTH     0000007C            PCB$W_SIZE       00000008
DEV$V_RND      = 0000001C            PCB$K_LENGTH     0000007C            PCB$W_STATE      00000030
DEV$V_RTM      = 0000001D            PCB$L_ASTQBL     00000014            PCB$W_TMBU       00000036
DEV$V_SDI      = 00000004            PCB$L_ASTQFL     00000010            PCB$W_TQCNT      0000004A
SYSSNDMSG       - SEND MESSAGE SYSTEM SERVICES                   21-AUG-1978 23:48:22   VAX-11 MACRO X0.3-11               Page   9
SYMBOL TABLE                                                                                                                     (6)

SCH$GL_CURPCB    ********   X   01   SS$_FCPREADERR = 00000888            SS$_MUSTCLOSEFL= 00000948
SENDMSG          000000AD R     01   SS$_FCPREPSTN  = 00000988            SS$_NODATA     = 000001AC
SS$_ABORT      = 0000002C            SS$_FCPREWNDERR= 00000890            SS$_NOHANDLER  = 000008F8
SS$_ACCONFLICT = 00000800            SS$_FCPSPACERR = 00000898            SS$_NOHOMEBLK  = 000008E0
SS$_ACCVIO     = 0000000C            SS$_FCPWRITERR = 000008A0            SS$_NOIOCHAN   = 000001B4
SS$_ARITH      = 00000404            SS$_FILACCERR  = 0000009C            SS$_NOLINKS    = 0000027C
SS$_ASTFLT     = 0000040C            SS$_FILALRACC  = 000000A4            SS$_NOLOGNAM   = 000001BC
SS$_BADATTRIB  = 00000034            SS$_FILELOCKED = 000008A8            SS$_NOMBX      = 00000274
SS$_BADCHKSUM  = 00000808            SS$_FILENUMCHK = 000008B0            SS$_NOMOREFILES= 00000930
SS$_BADESCAPE  = 0000003C            SS$_FILESEQCHK = 000008B8            SS$_NONEXDRV   = 000001C4
SS$_BADFILEHDR = 00000810            SS$_FILESTRUCT = 000008C0            SS$_NONEXPR    = 000008E8
SS$_BADFILENAME= 00000818            SS$_FILNOTACC  = 000000AC            SS$_NONLOCAL   = 000008F0
SS$_BADFILEVER = 00000820            SS$_FILNOTCNTG = 000002AC            SS$_NOPRIV     = 00000024
SS$_BADIMGHDR  = 00000044            SS$_FILNOTEXP  = 000000B4            SS$_NORMAL     = 00000001
SS$_BADIRECTORY= 00000828            SS$_FORMAT     = 000000BC            SS$_NOSIGNAL   = 00000900
SS$_BADPARAM   = 00000014            SS$_GPTFULL    = 000000C4            SS$_NOSOLICIT  = 00000284
SS$_BADSTACK   = 000002B4            SS$_GSDFULL    = 000000CC            SS$_NOSUCHDEV  = 00000908
SS$_BEGOFFILE  = 00000938            SS$_GSDNOTXXX  = 000000D4            SS$_NOSUCHFILE = 00000910
SS$_BLOCKCNTERR= 00000940            SS$_HANGUP     = 000002CC            SS$_NOSUCHNODE = 0000028C
SS$_BREAK      = 00000414            SS$_HEADERFULL = 000008C8            SS$_NOSUCHSEC  = 00000978
SS$_BUFFEROVF  = 00000601            SS$_IDXFILEFULL= 000008D0            SS$_NOTAPEOP   = 00000264
SS$_BUGCHECK   = 000002A4            SS$_ILLBLKNUM  = 000000DC            SS$_NOTFILEDEV = 000001CC
SS$_CANCEL     = 00000830            SS$_ILLCNTRFUNC= 000000E4            SS$_NOTINTBLSZ = 000001D4
SS$_CHANINTLK  = 0000004C            SS$_ILLEFC     = 000000EC            SS$_NOTLABELMT = 000001DC
SS$_CLIFRCEXT  = 00000980            SS$_ILLIOFUNC  = 000000F4            SS$_NOTNETDEV  = 000002EC
SS$_CMODSUPR   = 0000041C            SS$_ILLLBLAST  = 00000968            SS$_NOTRAN     = 00000629
SS$_CMODUSER   = 00000424            SS$_ILLPAGCNT  = 000000FC            SS$_NOTSQDEV   = 000001E4
SS$_COMPAT     = 0000042C            SS$_ILLSEQOP   = 000002DC            SS$_OPCCUS     = 00000434
SS$_CONTINUE   = 00000001            SS$_ILLSER     = 00000104            SS$_OPCDEC     = 0000043C
SS$_CONTROLC   = 00000651            SS$_ILLUSRLBLRD= 00000958            SS$_OPINCOMPL  = 000002D4
SS$_CONTROLO   = 00000609            SS$_ILLUSRLBLWT= 00000960            SS$_PAGOWNVIO  = 000001EC
SS$_CONTROLY   = 00000611            SS$_INCVOLLABEL= 0000010C            SS$_PAGRDERR   = 00000444
SS$_CREATED    = 00000619            SS$_INSFARG    = 00000114            SS$_PARITY     = 000001F4
SS$_CTRLERR    = 00000054            SS$_INSFMEM    = 00000124            SS$_PARTESCAPE = 000001FC
SS$_DATACHECK  = 0000005C            SS$_INSFRAME   = 0000012C            SS$_PFMBSY     = 00000204
SS$_DATAOVERUN = 00000838            SS$_INSFWSL    = 0000011C            SS$_PSTFULL    = 0000020C
SS$_DEBUG      = 0000046C            SS$_IVADDR     = 00000134            SS$_RADRMOD    = 0000044C
SS$_DEVACTIVE  = 000002C4            SS$_IVCHAN     = 0000013C            SS$_REJECT     = 00000294
SS$_DEVALLOC   = 00000840            SS$_IVCHNLSEC  = 0000026C            SS$_REMOTE     = 00000649
SS$_DEVALRALLOC= 00000641            SS$_IVDEVNAM   = 00000144            SS$_RESIGNAL   = 00000918
SS$_DEVASSIGN  = 00000848            SS$_IVGSDNAM   = 0000014C            SS$_RESULTOVF  = 00000214
SS$_DEVFOREIGN = 00000064            SS$_IVLOGNAM   = 00000154            SS$_ROPRAND    = 00000454
SS$_DEVICEFULL = 00000850            SS$_IVLOGTAB   = 0000015C            SS$_SECTBLFUL  = 0000021C
SS$_DEVMOUNT   = 0000006C            SS$_IVPROTECT  = 000002F4            SS$_SSFAIL     = 0000045C
SS$_DEVNOTALLOC= 00000858            SS$_IVQUOTAL   = 00000164            SS$_SUPERSEDE  = 00000631
SS$_DEVNOTMBX  = 00000074            SS$_IVSECFLG   = 0000016C            SS$_TAPEPOSLOST= 00000224
SS$_DEVNOTMOUNT= 0000007C            SS$_IVSECIDCTL = 000002E4            SS$_TBIT       = 00000464
SS$_DEVOFFLINE = 00000084            SS$_IVSSRQ     = 00000174            SS$_TIMEOUT    = 0000022C
SS$_DIRFULL    = 00000860            SS$_IVSTSFLG   = 0000017C            SS$_TOOMANYVER = 00000990
SS$_DRVERR     = 0000008C            SS$_IVTIME     = 00000184            SS$_TOOMUCHDATA= 0000029C
SS$_DUPFILENAME= 00000868            SS$_LENVIO     = 0000018C            SS$_UNASEFC    = 00000234
SS$_DUPLNAM    = 00000094            SS$_LKWSETFUL  = 00000194            SS$_UNSAFE     = 0000023C
SS$_ENDOFFILE  = 00000870            SS$_MBFULL     = 000008D8            SS$_UNWIND     = 00000920
SS$_ENDOFTAPE  = 00000878            SS$_MBTOOSML   = 0000019C            SS$_UNWINDING  = 00000928
SS$_ENDOFUSRLBL= 00000970            SS$_MCHECK     = 000002BC            SS$_VASFULL    = 00000244
SS$_EXQUOTA    = 0000001C            SS$_MEDOFL     = 000001A4            SS$_VECINUSE   = 0000024C
SS$_EXTIDXFILE = 00000880            SS$_MSGNOTFND  = 00000621            SS$_VOLINV     = 00000254
SYSSNDMSG       - SEND MESSAGE SYSTEM SERVICES                   21-AUG-1978 23:48:22   VAX-11 MACRO X0.3-11               Page  10
SYMBOL TABLE                                                                                                                     (6)

SS$_WAITUSRLBL = 00000950            UCB$L_IOQFL      00000040            UCB$V_JOB      = 00000000
SS$_WASCLR     = 00000001            UCB$L_IRP        0000004C            UCB$V_LNKPRI   = 00000006
SS$_WASECC     = 00000639            UCB$L_LINK       0000002C            UCB$V_LTYPE    = 00000000
SS$_WASSET     = 00000009            UCB$L_LOGADR     00000064            UCB$V_MOUNTING = 00000009
SS$_WRITLCK    = 0000025C            UCB$L_MAXBLOCK   00000080            UCB$V_MSGACK   = 00000004
SYS$CMKRNL       ********   X   01   UCB$L_MEDIA      00000088            UCB$V_MSGFLO   = 00000003
SYS$GL_JOBCTLMB  ********   X   01   UCB$L_NT_DATSSB  00000074            UCB$V_NOCNVRT  = 00000002
SYS$GL_OPRMBX    ********   X   01   UCB$L_NT_INTSSB  00000078            UCB$V_NT_BFROVF= 00000002
UCB$B_AMOD       00000053            UCB$L_OPCNT      00000060            UCB$V_NT_BREAK = 00000005
UCB$B_CEX        00000077            UCB$L_OWNUIC     0000001C            UCB$V_NT_NAME  = 00000004
UCB$B_CM1        0000004A            UCB$L_PID        00000028            UCB$V_NT_NONTR = 00000006
UCB$B_CM2        0000004B            UCB$L_RQBL       00000004            UCB$V_NT_SDP   = 00000003
UCB$B_DEVCLASS   00000038            UCB$L_RQFL       00000000            UCB$V_ONLINE   = 00000004
UCB$B_DEVTYPE    00000039            UCB$L_SVAPTE     00000068            UCB$V_POWER    = 00000005
UCB$B_DIPL       00000052            UCB$L_SVPN       00000064            UCB$V_PRMMBX   = 00000000
UCB$B_DX_SCTCNT  FFFFFFFE            UCB$L_TTCHAR     0000003C            UCB$V_SEGFLO   = 00000002
UCB$B_DX_SPARE   FFFFFFFF            UCB$L_VCB        00000030            UCB$V_TIM      = 00000000
UCB$B_ERTCNT     00000070            UCB$M_BSY      = 00000100            UCB$V_TIMOUT   = 00000006
UCB$B_ERTMAX     00000071            UCB$M_CANCEL   = 00000008            UCB$V_TT_NOTIF = 00000002
UCB$B_ESCAPE     0000004B            UCB$M_DEADMO   = 00000400            UCB$V_TT_TIMO  = 00000001
UCB$B_FEX        00000076            UCB$M_DELMBX   = 00000002            UCB$V_VALID    = 0000000B
UCB$B_FIPL       0000000B            UCB$M_DIAGBUF  = 00000002            UCB$W_BCNT       0000006E
UCB$B_LOCSRV     0000003C            UCB$M_DX_WRITE = 00000008            UCB$W_BCR        00000092
UCB$B_OFFNDX     00000090            UCB$M_ECC      = 00000001            UCB$W_BOFF       0000006C
UCB$B_OFFRTC     00000091            UCB$M_ERLOGIP  = 00000004            UCB$W_BUFQUO     00000018
UCB$B_REMSRV     0000003D            UCB$M_INT      = 00000002            UCB$W_BYTESTOGO  0000003E
UCB$B_SECTORS    0000003C            UCB$M_INTTYPE  = 00000080            UCB$W_CHARGE     0000004A
UCB$B_SLAVE      00000074            UCB$M_JOB      = 00000001            UCB$W_CYLINDERS  0000003E
UCB$B_SPR        00000075            UCB$M_MOUNTING = 00000200            UCB$W_DA         00000088
UCB$B_STATE      00000052            UCB$M_NOCNVRT  = 00000004            UCB$W_DC         0000008A
UCB$B_TRACKS     0000003D            UCB$M_NT_BFROVF= 00000004            UCB$W_DEVBUFSIZ  0000003A
UCB$B_TYPE       0000000A            UCB$M_NT_BREAK = 00000020            UCB$W_DEVSTS     0000005A
UCB$B_VERTSZ     0000003F            UCB$M_NT_NAME  = 00000010            UCB$W_DSTADDR    00000018
UCB$C_LENGTH     00000074            UCB$M_NT_NONTR = 00000040            UCB$W_DX_BCR     FFFFFFFC
UCB$C_LOGLNK   = 00000001            UCB$M_NT_SDP   = 00000008            UCB$W_EC1        0000008C
UCB$K_LENGTH     00000074            UCB$M_ONLINE   = 00000010            UCB$W_EC2        0000008E
UCB$L_AMB        00000054            UCB$M_POWER    = 00000020            UCB$W_ERRCNT     00000072
UCB$L_ASTQBL     00000010            UCB$M_PRMMBX   = 00000001            UCB$W_FUNC       00000084
UCB$L_ASTQFL     0000000C            UCB$M_TIM      = 00000001            UCB$W_MB_SEED    FFFFFFFC
UCB$L_CPID       0000005C            UCB$M_TIMOUT   = 00000040            UCB$W_MSGCNT     00000016
UCB$L_CRB        00000020            UCB$M_TT_NOTIF = 00000004            UCB$W_MSGMAX     00000014
UCB$L_DDB        00000024            UCB$M_TT_TIMO  = 00000002            UCB$W_NT_CHAN    0000007C
UCB$L_DEVCHAR    00000034            UCB$M_VALID    = 00000800            UCB$W_OFFSET     00000086
UCB$L_DEVDEPEND  0000003C            UCB$S_LNKPRI   = 00000002            UCB$W_REFC       00000050
UCB$L_DPC        0000007C            UCB$S_LTYPE    = 00000002            UCB$W_SIZE       00000008
UCB$L_DUETIM     0000005C            UCB$T_PARTNER    0000000C            UCB$W_SRCADDR    0000001A
UCB$L_DX_BFPNT   FFFFFFF4            UCB$V_BACKP    = 00000005            UCB$W_STS        00000058
UCB$L_DX_BUF     FFFFFFF0            UCB$V_BSY      = 00000008            UCB$W_UNIT       00000048
UCB$L_DX_RXDB    FFFFFFF8            UCB$V_CANCEL   = 00000003            UCB$W_VPROT      0000001A
UCB$L_EMB        00000078            UCB$V_DEADMO   = 0000000A
UCB$L_FIRST      00000014            UCB$V_DELMBX   = 00000001
UCB$L_FPC        0000000C            UCB$V_DIAGBUF  = 00000001
UCB$L_FQBL       00000004            UCB$V_DX_WRITE = 00000003
UCB$L_FQFL       00000000            UCB$V_ECC      = 00000000
UCB$L_FR3        00000010            UCB$V_ERLOGIP  = 00000002
UCB$L_FR4        00000014            UCB$V_INT      = 00000001
UCB$L_IOQBL      00000044            UCB$V_INTTYPE  = 00000007
SYSSNDMSG       - SEND MESSAGE SYSTEM SERVICES                   21-AUG-1978 23:48:22   VAX-11 MACRO X0.3-11               Page  11
PROGRAM SECTION SYNOPSIS                                                                                                         (6)


PROGRAM SECTION SYNOPSIS

.  ABS  .        00000000      00     NOPIC   USR   CON   ABS   LCL NOSHR NOEXE NORD  NOWRT BYTE
. BLANK .        000000F5      01     NOPIC   USR   CON   REL   LCL NOSHR   EXE   RD    WRT BYTE
$ABS$            FFFFFFFF      02     NOPIC   USR   CON   ABS   LCL NOSHR   EXE   RD    WRT BYTE


THERE WERE NO ERRORS OR WARNINGS.
11668. BYTES LEFT IN FREE MEMORY POOL.
3550. BYTES OF RECLAIMED MEMORY.
OBJ$:SYSSNDMSG,LIS$:SYSSNDMSG/-SP=LIB$:LIB/ML,SRC$:SYSSNDMSG
6 MLB DIR RDS - 761 GETS TO DEFINE 18 MACROS. 58 INTER. FILE WRITES.
