TTLINTDSP       DL TERMINAL INTERRUPT SERVICE ROUTINE            22-AUG-1978 00:03:40   VAX-11 MACRO X0.3-11               Page   0
TABLE OF CONTENTS

   (2)      35  INTERFACE INITIALIZATION
   (3)      68  INTERRUPT SERVICE ROUTINES
   (4)     105  STARTIO  ON DL UNIT
   (5)     143  DL OUTPUT INTERRUPT SERVICE
   (6)     185  OUTPUTCHARACTER
TTLINTDSP       DL TERMINAL INTERRUPT SERVICE ROUTINE            22-AUG-1978 00:03:40   VAX-11 MACRO X0.3-11               Page   1
X02                                                                                                                              (1)

                                     0000     1 	.TITLE	TTLINTDSP DL TERMINAL INTERRUPT SERVICE ROUTINE
                                     0000     2 	.IDENT	/X02/
                                     0000     3 ;
                                     0000     4 ; COPYRIGHT (C) 1976
                                     0000     5 ; DIGITAL EQUIPMENT CORPORATION, MAYNARD, MASS.
                                     0000     6 ;
                                     0000     7 ; THIS SOFTWARE IS FURNISHED UNDER  A LICENSE FOR USE ONLY  ON  A
                                     0000     8 ; SINGLE COMPUTER SYSTEM AND MAY BE  COPIED ONLY WITH  THE INCLU-
                                     0000     9 ; SION OF  THE  ABOVE  COPYRIGHT NOTICE.  THIS SOFTWARE,  OR  ANY
                                     0000    10 ; OTHER COPIES THEREOF, MAY NOT BE  PROVIDED  OR  OTHERWISE  MADE
                                     0000    11 ; AVAILABLE TO ANY OTHER PERSON EXCEPT  FOR  USE  ON  SUCH SYSTEM
                                     0000    12 ; AND TO  ONE WHO AGREES  TO  THESE LICENSE  TERMS.  TITLE TO AND
                                     0000    13 ; OWNERSHIP OF THE SOFTWARE SHALL AT ALL TIMES REMAIN IN DEC.
                                     0000    14 ;
                                     0000    15 ; THE INFORMATION IN THIS SOFTWARE  IS  SUBJECT TO CHANGE WITHOUT
                                     0000    16 ; NOTICE AND SHOULD NOT BE CONSTRUED  AS  A COMMITMENT BY DIGITAL
                                     0000    17 ; EQUIPMENT CORPORATION.
                                     0000    18 ;
                                     0000    19 ; DEC ASSUMES NO RESPONSIBILITY FOR THE USE OR RELIABILITY OF ITS
                                     0000    20 ; SOFTWARE ON EQUIPMENT WHICH IS NOT SUPPLIED BY DEC.
                                     0000    21 ;++
                                     0000    22 ; DL TERMINAL INTERRUPT DISPATCHER AND DEVICE DEPENDENT SUBROUTINES
                                     0000    23 ;--
                                     0000    24 ;
                                     0000    25 ; VERSION X01 ( BASE LEVEL 1 )
                                     0000    26 ;
                                     0000    27 ; AUTHOR: R.HEINEN 14-SEPT-76
                                     0000    28 ;
                                     0000    29 ; EXTERNAL DEFINITIONS
                                     0000    30 ;
                                     0000    31 	$UCBDEF				; DEFINE UCB
                                     0000    32
                                 00000000    33 	.PSECT	WIONONPAGED		; DEFINE DRIVER NON PAGED
TTLINTDSP       DL TERMINAL INTERRUPT SERVICE ROUTINE            22-AUG-1978 00:03:40   VAX-11 MACRO X0.3-11               Page   2
X02             INTERFACE INITIALIZATION                                                                                         (2)

                                     0000    35 	.SBTTL	INTERFACE INITIALIZATION
                                     0000    36 ;++
                                     0000    37 ; TTL$INITIAL -- INITIALIZE INTERFACE
                                     0000    38 ;
                                     0000    39 ; FUNCTIONAL DESCRIPTION:
                                     0000    40 ;
                                     0000    41 ; THIS ROUTINE IS USED AT SYSTEM STARTUP TO INITIALIZE A PARTICULAR
                                     0000    42 ; DL INTERFACE.
                                     0000    43 ;
                                     0000    44 ; RECEIVER AND TRANSMITTER INTERRUPTS ARE ENABLED.
                                     0000    45 ;
                                     0000    46 ; INPUTS:
                                     0000    47 ;
                                     0000    48 ;	R4 = CSR FROM ASSOCIATED CONTROLER.
                                     0000    49 ;	R5 = IDB ADDRESS
                                     0000    50 ;	R9 = CRB ADDRESS
                                     0000    51 ;
                                     0000    52 ;	IPL = IPL$_POWER
                                     0000    53 ;
                                     0000    54 ; THE CSR HAS NOT YET BEEN REFERENCED AND A FAULT CAN RESULT.
                                     0000    55 ;
                                     0000    56 ; OUTPUT:
                                     0000    57 ;
                                     0000    58 ;	ALL REGISTERS ARE PRESERVED.
                                     0000    59 ;--
                                     0000    60 TTL$INITIAL::				;
            64         40 8F     9B  0000    61 	MOVZBW	#^X040,(R4)		; SET INPUT INTERRUPTS ENABLED
         04 A4         40 8F     9B  0004    62 	MOVZBW	#^X040,4(R4)		; SET OUTPUT INTERRUPTS ENABLED
                          64     B5  0009    63 	TSTW	(R4)			; SYNCHRONIZE UBA ACCESS
                                     000B    64 TTL$INITLINE::
                                     000B    65 TTL$DISCONNECT::
                                 05  000B    66 	RSB
TTLINTDSP       DL TERMINAL INTERRUPT SERVICE ROUTINE            22-AUG-1978 00:03:40   VAX-11 MACRO X0.3-11               Page   3
X02             INTERRUPT SERVICE ROUTINES                                                                                       (3)

                                     000C    68 	.SBTTL INTERRUPT SERVICE ROUTINES
                                     000C    69 ;++
                                     000C    70 ; TTL$INTINP -- DL INTERRUPT ON INPUT READY
                                     000C    71 ;
                                     000C    72 ; FUNCTIONAL DESCRIPTION:
                                     000C    73 ;
                                     000C    74 ; THE CHARACTER IS EXTRACTED FROM THE INTERFACE AND A CO-ROUTINE
                                     000C    75 ; IS CALLED (BSB) TO BUFFER IT OR IGNORE IT BASSED ON THE CURRENT
                                     000C    76 ; STATE OF THE UNIT.
                                     000C    77 ;
                                     000C    78 ; INPUTS:
                                     000C    79 ;
                                     000C    80 ;	R2,R3,R4,R5 ARE SAVED ON THE INTERRUPT STACK.
                                     000C    81 ;
                                     000C    82 ;	00(SP) = ADDRESS OF THE IDB
                                     000C    83 ;
                                     000C    84 ; OUTPUTS:
                                     000C    85 ;
                                     000C    86 ;	THE SAVED REGISTERS ARE RESTORED BEFORE REI.
                                     000C    87 ;
                                     000C    88 ; IMPLICIT OUTPUTS:
                                     000C    89 ;
                                     000C    90 ; ON ENTRY TO THE DRIVER,
                                     000C    91 ;
                                     000C    92 ;	R3 = DATA TO BUFFER
                                     000C    93 ;	R5 = UCB ADDRESS
                                     000C    94 ;--
                                     000C    95 TTL$INTINP::
            55            9E     D0  000C    96 	MOVL	@(SP)+,R5		; ADDRESS UCB/CSR BLOCK
            54            65     7D  000F    97 	MOVQ	(R5),R4			; R5= UCB AND R4= CSR
            53         02 A4     9A  0012    98 	MOVZBL	2(R4),R3		; GET 8-BITS FROM INTERFACE
                       5D'AF     9F  0016    99 	PUSHAB	B^DISMIS		; PUSH "NO ECHO TO DO" RETURN ADDRESS
                                     0019   100 ;
                                     0019   101 ; GOTO CHARACTER BUFFER ROUTINE AS CO-ROUTINE
                                     0019   102 ;
                          FFE4'  30  0019   103 	BSBW	TTY$PUTNEXTCHAR		; BUFFER THE CHARACTER
TTLINTDSP       DL TERMINAL INTERRUPT SERVICE ROUTINE            22-AUG-1978 00:03:40   VAX-11 MACRO X0.3-11               Page   4
X02             STARTIO  ON DL UNIT                                                                                              (4)

                                     001C   105 	.SBTTL	STARTIO  ON DL UNIT
                                     001C   106
                                     001C   107 	.ENABL	LSB
                                     001C   108 ;++
                                     001C   109 ; TTL$STARTIO -- START I/O ON DL INTERFACE
                                     001C   110 ;
                                     001C   111 ; FUNCTIONAL DESCRIPTION:
                                     001C   112 ;
                                     001C   113 ; THIS ROUTINE IS CALLED TO START OUTPUT ON A DL UNIT.
                                     001C   114 ;
                                     001C   115 ; IF THE INTERFACE IS READY THE DATA CHARACTER IS OUTPUT, OTHERWISE
                                     001C   116 ; IS IS PLACED IN A HOLDING TANK FOR LATER OUTPUT.
                                     001C   117 ;
                                     001C   118 ; INPUTS:
                                     001C   119 ;
                                     001C   120 ;	R3 = CHARACTER TO OUTPUT
                                     001C   121 ;	R5 = UCB ADDRESS
                                     001C   122 ;
                                     001C   123 ; OUTPUTS:
                                     001C   124 ;
                                     001C   125 ;	R2,R3,R5 ARE PRESERVED.
                                     001C   126 ;--
                                     001C   127 TTL$STARTIO::
                                     001C   128 ;
                                     001C   129 ; GET CSR FOR READY TEST
                                     001C   130 ;
            54         20 B5     D0  001C   131 	MOVL	@UCB$L_CRB(R5),R4	; ADDRESS UNIT CSR
                                     0020   132 ;
                                     0020   133 ; TEST INTERFACE READY
                                     0020   134 ;
         04 A4       0080 8F     B3  0020   135 	BITW	#^X080,4(R4)		; PRINTER READY?
                          23     12  0026   136 	BNEQ	OUTPUTCHARACTER		; IF READY THEN OUTPUT CHARACTER
                                     0028   137 ;
                                     0028   138 ; INTERFACE IS NOT READY - SAVE CHARACTER
                                     0028   139 ;
       0000'C5            53     B0  0028   140 	MOVW	R3,UCB$W_HOLD(R5)	; SAVE THE CHARACTER FOR LATER OUTPUT
                                 05  002D   141 	RSB				; RETURN TO WAIT FOR INTERRUPT
TTLINTDSP       DL TERMINAL INTERRUPT SERVICE ROUTINE            22-AUG-1978 00:03:40   VAX-11 MACRO X0.3-11               Page   5
X02             DL OUTPUT INTERRUPT SERVICE                                                                                      (5)

                                     002E   143 	.SBTTL	DL OUTPUT INTERRUPT SERVICE
                                     002E   144 ;++
                                     002E   145 ; TTL$INTOUT -- OUTPUT DONE INTERRUPT SERVICE FOR DL
                                     002E   146 ;
                                     002E   147 ; FUNCTIONAL DESCRIPTION:
                                     002E   148 ;
                                     002E   149 ; THIS ROUTINE IS ENTERED WHEN A UNIT READY INTERRUPT OCCURS.
                                     002E   150 ; IF THERE IS A CHARACTER IN THE UNIT'S HOLDING TANK, IT IS OUTPUT.
                                     002E   151 ; IF AN INTERRUPT IS NOT EXPECTED THEN IT IS DISMISSED.
                                     002E   152 ; IF THE INTERRUPT IS EXPECTED, THE DEVICE INDEPENDENT DRIVER ROUTINE
                                     002E   153 ; IS CALLED TO FIND THE NEXT AVAILABLE CHARACTER TO OUTPUT. FIND SUCCESS
                                     002E   154 ; CAUSES A DIRECT RETURN TO OUTPUT THE CHARACTER. FIND FAILURE CAUSES
                                     002E   155 ; THE STACK TO BE POPPED AND THE INTERRUPT TO BE DISMISSED.
                                     002E   156 ;
                                     002E   157 ; INPUTS:
                                     002E   158 ;	R2,R3,R4,R5 SAVED ON INTERRUPT STACK
                                     002E   159 ;
                                     002E   160 ;	00(SP)= ADDRESS OF IDB BLOCK
                                     002E   161 ;
                                     002E   162 ; OUTPUTS:
                                     002E   163 ;
                                     002E   164 ;	NONE, THE INTERRUPT IS DISMISSED.
                                     002E   165 ;--
                                     002E   166 TTL$INTOUT::
            55            9E     D0  002E   167 	MOVL	@(SP)+,R5		; GET IDB ADDRESS
            54            65     7D  0031   168 	MOVQ	(R5),R4			; GET CSR AND UCB ADDRESSES
            53       0000'C5     32  0034   169 	CVTWL	UCB$W_HOLD(R5),R3	; GET HOLDING TANK DATA
                          19     18  0039   170 	BGEQ	35$			; OUTPUT CHARACTER DIRECTLY
                                     003B   171 ;
                                     003B   172 ; NOT DATA PRESENT - LOOK FOR NEXT OUTPUT
                                     003B   173 ;
         58 A5            00     E5  003B   174 	BBCC	#UCB$V_TIM,UCB$W_STS(R5),10$; CLEAR TIMEOUT EXPECTED
                          00         003F
         58 A5            01     E5  0040   175 10$:	BBCC	#UCB$V_INT,UCB$W_STS(R5),DISMIS; INTERRUPT EXPECTED?
                          18         0044
                                     0045   176 ;
                                     0045   177 ; INTERRUPT EXPECTED -- GET NEXT CHARACTER TO OUTPUT
                                     0045   178 ;
                       5D'AF     9F  0045   179 	PUSHAB	B^DISMIS		; PUT "NO CHARACTER" RETURN ADDRESS ON STACK
                                     0048   180 ;
                                     0048   181 ; CALL ROUTINE TO GET NEXT CHARACTER
                                     0048   182 ;
                          FFB5'  30  0048   183 20$:	BSBW	TTY$GETNEXTCHAR		; GET NEXT CHARACTER
TTLINTDSP       DL TERMINAL INTERRUPT SERVICE ROUTINE            22-AUG-1978 00:03:40   VAX-11 MACRO X0.3-11               Page   6
X02             OUTPUTCHARACTER                                                                                                  (6)

                                     004B   185 	.SBTTL	OUTPUTCHARACTER
                                     004B   186 ;++
                                     004B   187 ; OUTPUTCHARACTER -- OUTPUT CHARACTER ON INTERFACE
                                     004B   188 ;
                                     004B   189 ; OUTPUTS A CHARACTER TO THE DL INTERFACE
                                     004B   190 ;
                                     004B   191 ; INPUTS:
                                     004B   192 ;	R3 = CHARACTER TO OUTPUT
                                     004B   193 ;	R5 = UCB
                                     004B   194 ;
                                     004B   195 ;
                                     004B   196 ; OUTPUTS:
                                     004B   197 ;
                                     004B   198 ;	NONE
                                     004B   199 ;--
                                     004B   200 OUTPUTCHARACTER:
            54         20 B5     D0  004B   201 	MOVL	@UCB$L_CRB(R5),R4	; GET CSR ADDRESS
         06 A4            53     90  004F   202 	MOVB	R3,6(R4)		; OUTPUT CHARACTER
                                 05  0053   203 30$:	RSB				; RETURN TO CALLER FOR WAIT FOR
                                     0054   204 ;
                                     0054   205 ; OUTPUT THE DATA FROM THE HOLDING TANK
                                     0054   206 ;
         06 A4            53     B0  0054   207 35$:	MOVW	R3,6(R4)		; OUTPUT THE CHARACTER
       0000'C5            01     AE  0058   208 	MNEGW	#1,UCB$W_HOLD(R5)	; INVALIDATE THE HOLDING TANK
                                     005D   209 ;++
                                     005D   210 ; DISMIS -- DISMIS INTERRUPT
                                     005D   211 ;
                                     005D   212 ; INPUTS:
                                     005D   213 ;	R5 = UCB
                                     005D   214 ;
                                     005D   215 ; OUTPUTS:
                                     005D   216 ;	INTERRUPT IS DISMISSED
                                     005D   217 ;--
                                     005D   218 DISMIS:					;
                          3C     BA  005D   219 	POPR	#^M<R2,R3,R4,R5>	;
                                 02  005F   220 	REI				;
                                     0060   221 ;
                                     0060   222 	.END
TTLINTDSP       DL TERMINAL INTERRUPT SERVICE ROUTINE            22-AUG-1978 00:03:40   VAX-11 MACRO X0.3-11               Page   7
SYMBOL TABLE                                                                                                                     (6)

BIT...         = 00000000            UCB$L_FQFL       00000000            UCB$V_ECC      = 00000000
DISMIS           0000005D R     03   UCB$L_FR3        00000010            UCB$V_ERLOGIP  = 00000002
GBL...         = 00000000            UCB$L_FR4        00000014            UCB$V_INT      = 00000001
OUTPUTCHARACTER  0000004B R     03   UCB$L_IOQBL      00000044            UCB$V_INTTYPE  = 00000007
TTL$DISCONNECT   0000000B RG    03   UCB$L_IOQFL      00000040            UCB$V_JOB      = 00000000
TTL$INITIAL      00000000 RG    03   UCB$L_IRP        0000004C            UCB$V_LNKPRI   = 00000006
TTL$INITLINE     0000000B RG    03   UCB$L_LINK       0000002C            UCB$V_LTYPE    = 00000000
TTL$INTINP       0000000C RG    03   UCB$L_LOGADR     00000064            UCB$V_MOUNTING = 00000009
TTL$INTOUT       0000002E RG    03   UCB$L_MAXBLOCK   00000080            UCB$V_MSGACK   = 00000004
TTL$STARTIO      0000001C RG    03   UCB$L_MEDIA      00000088            UCB$V_MSGFLO   = 00000003
TTY$GETNEXTCHAR  ********   X   03   UCB$L_NT_DATSSB  00000074            UCB$V_NOCNVRT  = 00000002
TTY$PUTNEXTCHAR  ********   X   03   UCB$L_NT_INTSSB  00000078            UCB$V_NT_BFROVF= 00000002
UCB$B_AMOD       00000053            UCB$L_OPCNT      00000060            UCB$V_NT_BREAK = 00000005
UCB$B_CEX        00000077            UCB$L_OWNUIC     0000001C            UCB$V_NT_NAME  = 00000004
UCB$B_CM1        0000004A            UCB$L_PID        00000028            UCB$V_NT_NONTR = 00000006
UCB$B_CM2        0000004B            UCB$L_RQBL       00000004            UCB$V_NT_SDP   = 00000003
UCB$B_DEVCLASS   00000038            UCB$L_RQFL       00000000            UCB$V_ONLINE   = 00000004
UCB$B_DEVTYPE    00000039            UCB$L_SVAPTE     00000068            UCB$V_POWER    = 00000005
UCB$B_DIPL       00000052            UCB$L_SVPN       00000064            UCB$V_PRMMBX   = 00000000
UCB$B_DX_SCTCNT  FFFFFFFE            UCB$L_TTCHAR     0000003C            UCB$V_SEGFLO   = 00000002
UCB$B_DX_SPARE   FFFFFFFF            UCB$L_VCB        00000030            UCB$V_TIM      = 00000000
UCB$B_ERTCNT     00000070            UCB$M_BSY      = 00000100            UCB$V_TIMOUT   = 00000006
UCB$B_ERTMAX     00000071            UCB$M_CANCEL   = 00000008            UCB$V_TT_NOTIF = 00000002
UCB$B_ESCAPE     0000004B            UCB$M_DEADMO   = 00000400            UCB$V_TT_TIMO  = 00000001
UCB$B_FEX        00000076            UCB$M_DELMBX   = 00000002            UCB$V_VALID    = 0000000B
UCB$B_FIPL       0000000B            UCB$M_DIAGBUF  = 00000002            UCB$W_BCNT       0000006E
UCB$B_LOCSRV     0000003C            UCB$M_DX_WRITE = 00000008            UCB$W_BCR        00000092
UCB$B_OFFNDX     00000090            UCB$M_ECC      = 00000001            UCB$W_BOFF       0000006C
UCB$B_OFFRTC     00000091            UCB$M_ERLOGIP  = 00000004            UCB$W_BUFQUO     00000018
UCB$B_REMSRV     0000003D            UCB$M_INT      = 00000002            UCB$W_BYTESTOGO  0000003E
UCB$B_SECTORS    0000003C            UCB$M_INTTYPE  = 00000080            UCB$W_CHARGE     0000004A
UCB$B_SLAVE      00000074            UCB$M_JOB      = 00000001            UCB$W_CYLINDERS  0000003E
UCB$B_SPR        00000075            UCB$M_MOUNTING = 00000200            UCB$W_DA         00000088
UCB$B_STATE      00000052            UCB$M_NOCNVRT  = 00000004            UCB$W_DC         0000008A
UCB$B_TRACKS     0000003D            UCB$M_NT_BFROVF= 00000004            UCB$W_DEVBUFSIZ  0000003A
UCB$B_TYPE       0000000A            UCB$M_NT_BREAK = 00000020            UCB$W_DEVSTS     0000005A
UCB$B_VERTSZ     0000003F            UCB$M_NT_NAME  = 00000010            UCB$W_DSTADDR    00000018
UCB$C_LENGTH     00000074            UCB$M_NT_NONTR = 00000040            UCB$W_DX_BCR     FFFFFFFC
UCB$C_LOGLNK   = 00000001            UCB$M_NT_SDP   = 00000008            UCB$W_EC1        0000008C
UCB$K_LENGTH     00000074            UCB$M_ONLINE   = 00000010            UCB$W_EC2        0000008E
UCB$L_AMB        00000054            UCB$M_POWER    = 00000020            UCB$W_ERRCNT     00000072
UCB$L_ASTQBL     00000010            UCB$M_PRMMBX   = 00000001            UCB$W_FUNC       00000084
UCB$L_ASTQFL     0000000C            UCB$M_TIM      = 00000001            UCB$W_HOLD       ********   X   03
UCB$L_CPID       0000005C            UCB$M_TIMOUT   = 00000040            UCB$W_MB_SEED    FFFFFFFC
UCB$L_CRB        00000020            UCB$M_TT_NOTIF = 00000004            UCB$W_MSGCNT     00000016
UCB$L_DDB        00000024            UCB$M_TT_TIMO  = 00000002            UCB$W_MSGMAX     00000014
UCB$L_DEVCHAR    00000034            UCB$M_VALID    = 00000800            UCB$W_NT_CHAN    0000007C
UCB$L_DEVDEPEND  0000003C            UCB$S_LNKPRI   = 00000002            UCB$W_OFFSET     00000086
UCB$L_DPC        0000007C            UCB$S_LTYPE    = 00000002            UCB$W_REFC       00000050
UCB$L_DUETIM     0000005C            UCB$T_PARTNER    0000000C            UCB$W_SIZE       00000008
UCB$L_DX_BFPNT   FFFFFFF4            UCB$V_BACKP    = 00000005            UCB$W_SRCADDR    0000001A
UCB$L_DX_BUF     FFFFFFF0            UCB$V_BSY      = 00000008            UCB$W_STS        00000058
UCB$L_DX_RXDB    FFFFFFF8            UCB$V_CANCEL   = 00000003            UCB$W_UNIT       00000048
UCB$L_EMB        00000078            UCB$V_DEADMO   = 0000000A            UCB$W_VPROT      0000001A
UCB$L_FIRST      00000014            UCB$V_DELMBX   = 00000001
UCB$L_FPC        0000000C            UCB$V_DIAGBUF  = 00000001
UCB$L_FQBL       00000004            UCB$V_DX_WRITE = 00000003
TTLINTDSP       DL TERMINAL INTERRUPT SERVICE ROUTINE            22-AUG-1978 00:03:40   VAX-11 MACRO X0.3-11               Page   8
PROGRAM SECTION SYNOPSIS                                                                                                         (6)


PROGRAM SECTION SYNOPSIS

.  ABS  .        00000000      00     NOPIC   USR   CON   ABS   LCL NOSHR NOEXE NORD  NOWRT BYTE
. BLANK .        00000000      01     NOPIC   USR   CON   REL   LCL NOSHR   EXE   RD    WRT BYTE
$ABS$            FFFFFFFF      02     NOPIC   USR   CON   ABS   LCL NOSHR   EXE   RD    WRT BYTE
WIONONPAGED      00000060      03     NOPIC   USR   CON   REL   LCL NOSHR   EXE   RD    WRT BYTE


THERE WERE NO ERRORS OR WARNINGS.
19668. BYTES LEFT IN FREE MEMORY POOL.
3470. BYTES OF RECLAIMED MEMORY.
OBJ$:TTLINTDSP,LIS$:TTLINTDSP/-SP=LIB$:LIB/ML,SRC$:TTLINTDSP
3 MLB DIR RDS - 313 GETS TO DEFINE 10 MACROS. 18 INTER. FILE WRITES.
