XDSTRING                                                         22-AUG-1978 00:05:55   VAX-11 MACRO X0.3-11               Page   1
0102                                                                                                                             (1)

                                     0000   100 	.TITLE	XDSTRING
                                     0000   200 	.IDENT	/0102/
                                     0000   300
                           0000000D  0000   400 	CR=^O15
                           0000000A  0000   500 	LF=^O12
                                     0000   600
                                 00000000   700 	.PSECT	$$$030NP,BYTE
                                     0000   800
                                     0000   900 XDS$INIT::
                        0D 4C 5B 0D  0000  1000 	.ASCII	<CR>^[L^<CR>
         0D 58 3B 36 2C 51 2F 36 58  0004  1100 	.ASCII	^X6/Q,6;X^<CR>		;SET X REGISTERS 6 THROUGH D
         0D 58 3B 37 2C 51 2F 37 58  000D  1200 	.ASCII	^X7/Q,7;X^<CR>
         0D 58 3B 38 2C 51 2F 38 58  0016  1300 	.ASCII	^X8/Q,8;X^<CR>
         0D 58 3B 39 2C 51 2F 39 58  001F  1400 	.ASCII	^X9/Q,9;X^<CR>
         0D 58 3B 41 2C 51 2F 41 58  0028  1500 	.ASCII	^XA/Q,A;X^<CR>
   0D 4C 5B 22 57 5B 46 36 2B 45 58  0031  1550 	.ASCII	^XE+6F[W"[L^<CR>	;CR, LF
         0D 58 3B 42 2C 51 2F 42 58  003C  1600 	.ASCII	^XB/Q,B;X^<CR>
         0D 58 3B 43 2C 51 2F 43 58  0045  1700 	.ASCII	^XC/Q,C;X^<CR>
         0D 58 3B 44 2C 51 2F 44 58  004E  1710 	.ASCII	^XD/Q,D;X^<CR>
0D 58 3B 45 2C 45 38 2B 51 3D 45 58  0057  1720 	.ASCII	^XE=Q+8E,E;X^<CR>	;XE PRINTS PFN DATA BASE FOR PFN IN X0
0D 58 3B 46 2C 39 37 2B 51 3D 46 58  0063  1730 	.ASCII	^XF=Q+79,F;X^<CR>	;XF PRINTS PFN DATA BASE FOR PFN IN R0
                                     006F  1740
                                     006F  1800 XDS$CRLFMSG:
                              0A 0D  006F  1900 	.BYTE	CR,LF
                                     0071  2000 XDS$PFNMSG:
            41 54 41 44 4E 46 50 20  0071  2100 	.ASCII	^ PFNDATA^
                                     0079  2200
                                     0079  2300 XDS$PFNR0:
                                 0D  0079  2400 	.BYTE	CR
      0D 4C 5B 22 57 5B 41 2D 46 58  007A  2500 	.ASCII	^XF-A[W"[L^<CR>		;CRLF
      58 3B 30 2C 51 2F 57 5B 30 52  0084  2600 	.ASCII	^R0[W/Q,0^ <^X3B> ^X^	;DISPLAY PFN, SET X0
                                     008E  2700 XDS$PFNX0:
                                 0D  008E  2800 	.BYTE	CR
4C 5B 32 2B 2E 22 57 5B 41 2D 46 58  008F  2900 	.ASCII	^XF-A[W".+2[L".+4"^ ;CRLF "PFN DATA"
                     22 34 2B 2E 22  009B
                                 0D  00A0  3000 	.BYTE	CR
                     3D 30 58 57 5B  00A1  3100 	.ASCII	^[WX0=^			;DISPLAY PFN
            2F 42 5B 43 58 2B 30 58  00A6  3200 	.ASCII	^X0+XC[B/^		;DISPLAY STATE
            2F 42 5B 44 58 2B 30 58  00AE  3300 	.ASCII	^X0+XD[B/^		;DISPLAY TYPE
      2F 57 5B 39 58 2B 32 2A 30 58  00B6  3400 	.ASCII	^X0*2+X9[W/^		;DISPLAY REFCOUNT
            2F 42 58 2B 32 2A 30 58  00C0  3500 	.ASCII	^X0*2+XB/^		;DISPLAY BLINK/WSLX
            2F 41 58 2B 32 2A 30 58  00C8  3600 	.ASCII	^X0*2+XA/^		;DISPLAY FLINK/SHRCNT
      2F 4C 5B 37 58 2B 34 2A 30 58  00D0  3700 	.ASCII	^X0*4+X7[L/^		;DISPLAY PTE POINTER
            2F 38 58 2B 34 2A 30 58  00DA  3800 	.ASCII	^X0*4+X8/^		;DISPLAY BACKUP ADDRESS
      2F 57 5B 36 58 2B 32 2A 30 58  00E2  3900 	.ASCII	^X0*2+X6[W/^		;DISPLAY SWAP VBN
      0D 4C 5B 22 57 5B 41 2D 46 58  00EC  4000 	.ASCII	^XF-A[W"[L^<CR>	;FINAL CRLF, SET LONGWORD DISPLAY
                                 00  00F6  4100 	.BYTE	0
                                     00F7  4200
                                     00F7  4300
                                     00F7  4400 	.END
XDSTRING                                                         22-AUG-1978 00:05:55   VAX-11 MACRO X0.3-11               Page   2
SYMBOL TABLE                                                                                                                     (1)

CR             = 0000000D
LF             = 0000000A
XDS$CRLFMSG      0000006F R     02
XDS$INIT         00000000 RG    02
XDS$PFNMSG       00000071 R     02
XDS$PFNR0        00000079 R     02
XDS$PFNX0        0000008E R     02


PROGRAM SECTION SYNOPSIS

.  ABS  .        00000000      00     NOPIC   USR   CON   ABS   LCL NOSHR NOEXE NORD  NOWRT BYTE
. BLANK .        00000000      01     NOPIC   USR   CON   REL   LCL NOSHR   EXE   RD    WRT BYTE
$$$030NP         000000F7      02     NOPIC   USR   CON   REL   LCL NOSHR   EXE   RD    WRT BYTE


THERE WERE NO ERRORS OR WARNINGS.
28440. BYTES LEFT IN FREE MEMORY POOL.
OBJ$:XDSTRING,LIS$:XDSTRING/-SP=LIB$:LIB/ML,SRC$:XDSTRING
0 MLB DIR RDS - 0 GETS TO DEFINE 0 MACROS. 2 INTER. FILE WRITES.
