VFY M0521, VERIFY FILES 11 VOLU	MACRO M1110  22-AUG-78 00:35
TABLE OF CONTENTS

     7-    1	**** VFY VERSION M0521 ****
     7-   29	MACRO INVOCATIONS AND ASSEMBLY PARAMETERS
     8-   78	READ/WRITE STORAGE
     9-  166	READ ONLY TABLES
VFY M0521, VERIFY FILES 11 VOLU	MACRO M1110  22-AUG-78 00:35  PAGE 7


      1						.TITLE	VFY M0521, VERIFY FILES 11 VOLUME
						.SBTTL	**** VFY VERSION M0521 ****
						.IDENT	/M0521/
      2					; ALTERED:
      3					; ANDREW C. GOLDSTEIN  25-JUL-78  23:24
      4					;
      5					;
      6					; COPYRIGHT (C) 1977
      7					; DIGITAL EQUIPMENT CORPORATION, MAYNARD, MASSACHUSETTS 01754
      8					;
      9					; THIS SOFTWARE IS FURNISHED  UNDER A LICENSE FOR USE ONLY ON A SINGLE
     10					; COMPUTER  SYSTEM AND  MAY BE  COPIED ONLY WITH  THE INCLUSION OF THE
     11					; ABOVE COPYRIGHT NOTICE.  THIS SOFTWARE, OR ANY OTHER COPIES THEREOF,
     12					; MAY NOT BE PROVIDED OR  OTHERWISE MADE AVAILABLE TO ANY OTHER PERSON
     13					; EXCEPT FOR USE ON SUCH SYSTEM AND TO ONE WHO AGREES TO THESE LICENSE
     14					; TERMS.  TITLE TO AND  OWNERSHIP OF THE  SOFTWARE  SHALL AT ALL TIMES
     15					; REMAIN IN DEC.
     16					;
     17					; THE INFORMATION IN THIS SOFTWARE IS SUBJECT TO CHANGE WITHOUT NOTICE
     18					; AND SHOULD  NOT BE CONSTRUED  AS A COMMITMENT  BY DIGITAL  EQUIPMENT
     19					; CORPORATION.
     20					;
     21					; DEC ASSUMES  NO  RESPONSIBILITY  FOR  THE USE OR  RELIABILITY OF ITS
     22					; SOFTWARE ON EQUIPMENT WHICH IS NOT SUPPLIED BY DEC.
     23
     24					; PETER H. LIPMAN 12-APRIL-73
     25					;
     26					; ALTERED FRIDAY 10-JAN-75  10:45
     27					;	DHC001	9/6/77	ADD RETURN WITH STATUS
     28					;
     29						.SBTTL	MACRO INVOCATIONS AND ASSEMBLY PARAMETERS
     30					;
     31
     32						.MCALL	FHDL2$,HMBL2$	;FILE HEADER AND HOME BLOCK OFFSETS.
     33	000000					FHDL2$	DEF$L		;DEFINE THE FILE HEADER OFFSETS LOCALLY.
     34	000000					HMBL2$	DEF$L		;DEFINE THE HOME BLOCK OFFSETS LOCALLY.
     35	000000					FLDSOF			;DEFINE THE FILE DESCRIPTOR OFFSETS
     36						.MCALL	CSI$,FCSBT$
     37	000000					CSI$			;DEFINE THE CSI CONTROL BLOCK OFFSETS LOCALLLY
     38	000000					FCSBT$			;DEFINE THE FCS BIT VALUES LOCALLY
     39
     40						.MCALL	FSRSZ$,FDBDF$,FDAT$A,FDRC$A,FDOP$A,GCMLB$
     41						.MCALL	CSI$SW,CSI$SV,CSI$ND
     42
     43					;
     44		000001 				INXFID==1		;FILE ID FOR INDEX FILE
     45		000002 				BITFID==2		;BIT MAP FILE ID
     46		000014 				S.STBK==12.		;SIZE OF STATISTICS BLOCK IN BYTES
     47		000040 				CS.SWF==40		;CSI$2 STATUS BIT FOR "SWITCH FOUND"
     48
     49					; BITS IN VERIFY CONTROL WORD
     50		000001 				UPDATE==1		;SET IF UPDATING THE REAL BIT MAP
     51		000002 				RBUILD==2		;SET IF REBUILDING THE REAL BIT MAP
     52		000004 				FREEBT==4		;SET IF PRINTING OUT FREE BLOCKS
     53		000010 				IDBIT==10		;SET IF IDENTIFYING VERSION
     54		000020 				UPDINX==20		;SET IF UPDATING INDEX FILE
     55		000040 				UNDLBT==40		;SET IF UNDELETING FILES MARKED FOR DEL
VFY M0521, VERIFY FILES 11 VOLU	MACRO M1110  22-AUG-78 00:35  PAGE 7-1
MACRO INVOCATIONS AND ASSEMBLY PARAMETERS

     56		000100 				LOSTBT==100		;SCAN FOR LOST FILES
     57		000200 				LISTBT==200		;LIST THE INDEX FILE
     58		000400 				RDCKBT==400		;SET IF READING ALL BLOCKS OF ALL FILES
     59		100000 				PASS2==100000		;SET IF 2ND PASS OF INDEX/BITMAP CHECK
     60
     61					; BITS IN THE OUTPUT CONTROL WORD - OUTCTL
     62		000001 				HDROK==1			;SET IF HEADER IS IN CORE
     63		000002 				OUTID==2			;IF SET, ID HAS ALREADY BEEN OUTPUT
     64		000004 				DEVATT==4		;IF SET, DEVICE IS ATTACHED
     65					;
     66					; BITS IN THE TEMP FILE CONTROL WORD
     67					;
     68		000001 				DELMAN==1		;FILE MUST BE MANUALLY DELETED
     69		000002 				SAMDEV==2		;FILE IS ON DEVICE BEING VERIFIED
     70					;
     71					; LOGICAL UNIT ASSIGNMENTS
     72		000002 				CMDLUN==2		;COMMAND OUTPUT LOGICAL UNIT
     73		000003 				BITLUN==3		;REAL BIT MAP
     74		000004 				TBTLUN==4		;TEMP BIT MAP
     75		000005 				OUTLUN==5		;LISTING OUTPUT FILE
     76		000006 				INXLUN==6		;LUN FOR INDEX FILE
VFY M0521, VERIFY FILES 11 VOLU	MACRO M1110  22-AUG-78 00:35  PAGE 8
READ/WRITE STORAGE

     78						.SBTTL	READ/WRITE STORAGE
     79					;
     80					; IMPURE (READ/WRITE) STORAGE
     81					;
     82	000000					.PSECT
     83	000000					FSRSZ$	0		;FILE STORAGE REGION SET UP DYNAMICALLY
     84	000000					IMPURE
     85
     86	000000				FDBOUT::FDBDF$
     87	000140					FDAT$A	R.VAR,FD.CR
     88	000140					FDRC$A	FD.PLC,OUTREC,OURCSZ
     89	000140					FDOP$A	OUTLUN,OFNPT,OUDFLT
     90	000140				BITMAP::FDBDF$
     91	000300					FDRC$A	FD.RAN,BITWRD,2
     92	000300					FDOP$A	BITLUN,IFNPT,BITDFN
     93	000300				RDCHK::				;READ CHECK USES TEMP BIT MAP FDB
     94	000300				TBTMAP::FDBDF$
     95	000440					FDAT$A	R.FIX,,2
     96	000440					FDRC$A	FD.RAN,BITWRD,2
     97	000440					FDOP$A	TBTLUN,TBFNPT,TBTDFN
     98	000440				INDEX::FDBDF$
     99	000600					FDRC$A	FD.PLC!FD.RAN,INXBIT,512.
    100	000600					FDOP$A	INXLUN,,INXDFN
    101
    102	000600				GCMLCB::GCMLB$	1,VFY
    103	001210				CSIBLK::.BLKB	C.SIZE
    104					;
    105					; FILE NAME DESCRIPTORS FROM CSI$2
    106	001264				IFNPT::	.BLKB	S.FIDS+S.APPD
    107		001300'				INSPEC==IFNPT+N.SPEC
    108	001310				OFNPT::	.BLKB	S.FIDS+S.APPD
    109		001324'				OUSPEC==OFNPT+N.SPEC
    110	001334				TBFNPT::.BLKB	S.FIDS+S.APPD
    111		001350'				TBSPEC==TBFNPT+N.SPEC
    112
    113					;
    114					; ***** DO NOT REORDER THE FOLLOWING LINES
    115	001360				OUDFLT::NMBLK$	LIST,VFY	;OUTPUT FILE DEFAULT NAME BLOCK
    116					; BUFFERS FOR VARIOUS OPERATIONS
    117	001416				OUTREC::.BLKB	132.		;RECORD BUFFER FOR LISTING FILE
    118		000204 				OURCSZ==.-OUTREC
    119					; ***** DO NOT REORDER THE PRECEEDING LINES
    120					;
    121
    122	001622				TIDEV::	.BLKW	6		;BUFFER FOR TERMINAL DEVICE NAME
    123
    124	001636				SBCLUS::.BLKW	1		;STORAGE BIT MAP CLUSTER FACTOR.
    125	001640				BITWRD::.BLKW	1		;BUFFER FOR BITMAPS, 2 BYTE RECORDS
    126	001642				BITBUF::			;BUFFER FOR COUNTING BITS IN BITMAP
    127	001642				INXBIT::.BLKW	256.		;BUFFER FOR INDEX FILE BIT MAP
    128	002642				STBLK::	.BLKW	S.STBK		;BUFFER FOR STATISTICS BLOCK
    129	002672				MOPRM::	.BLKW	8.		;PARAMETER BLOCK FOR EDMSG
    130
    131					; MISCELLANEOUS STORAGE
    132	002712				VFYCTL::.BLKW	1		;CONTROL BITS, SET BY CSI$2
    133	002714				OUTCTL::.BLKW	1		;CONTROL BITS FOR LISTING FILE
    134	002716				TMPCTL::.BLKW	1		;CONTROL BITS FOR TEMP FILE
VFY M0521, VERIFY FILES 11 VOLU	MACRO M1110  22-AUG-78 00:35  PAGE 8-1
READ/WRITE STORAGE

    135	002720				NXTFID::.BLKW	3
    136	002726				DIRID::	.BLKW	1		;DIRECTORY ID BEING SCANNED IN /LO
    137	002730				LBN::	.BLKW	2		;CURRENT LOGICAL BLOCK NUMBER
    138	002734				MAXLBN::.BLKW	2		;LARGEST POSSIBLE LBN
    139	002740				MAXFNU::.BLKW	2		;LARGEST FILE NO. ON THIS VOLUME
    140	002744				MAPOFF::.BLKW	1		;NO. OF RECORDS BEFORE FIRST BIT WORD
    141	002746				INXOFF::.BLKW	1		;FILE ID +INXOFF ==VBN OF HEADER IN INDEX
    142	002750				NBTBLK::.BLKW	1		;NO. OF BIT MAP BLOCKS
    143	002752				FBTBLK::.BLKW	1		;FIRST VBN OF BIT MAP BLOCKS
    144	002754				IBVBN::.BLKW	1		;FIRST VBN OF INDEX FILE BITMAP.
    145	002756				SINXBT::.BLKW	1		;NO. OF INDEX FILE BIT MAP BLOCKS
    146	002760				SAVSP::	.BLKW	1		;SAVED STACK POINTER
    147	002762				NMULT::	.BLKW	1		;COUNT OF MULTIPLE ALLOC ERRORS
    148	002764				NFREE::	.BLKW	1		;COUNT OF BLOCK FREE ERRORS
    149	002766				NBAD::	.BLKW	1		;COUNT OF BAD LBN'S
    150	002770				LOSTCT::.BLKW	1		;COUNT OF LOST FILES
    151	002772				MLTALC::.BLKW	1		;NO. OF MULTIPLE ALLOCATION ERRORS (VOL)
    152	002774	000000 	000000 		.DYSIZ::.LIMIT			;NO. OF BYTES OF DYNAMIC MEMORY
    153		002776'				.TOPAD==.DYSIZ+2	;ADDRESS OF DYNAMIC MEMORY BUFFERS
    154	003000				.DYBUF::.BLKW	1		;ADDRESS OF CURRENTLY ALLOCATED DYNAMIC BUF
    155	003002				.DYBYT::.BLKW	1		;SIZE OF CURRENTLY ALLOCATED DYNAMIC BUF
    156	003004				.RCBLK::.BLKW	1		;READ CHECK BLOCK COUNT
    157	003006	177777 			.EXSTS::.WORD	-1		; EXECUTION STATUS; SUC, WAR, ERR	;DHC001
    158
    159						.IF	EQ,R$$DYM	;IF NO DYNAMIC MEMORY FACILITY AVAILABLE
    160						.PSECT	$$DYB1,D
    161					.DYB1::
    162						.PSECT	$$DYB2,D
    163					.DYB2::
    164						.ENDC
VFY M0521, VERIFY FILES 11 VOLU	MACRO M1110  22-AUG-78 00:35  PAGE 9
READ ONLY TABLES

    166						.SBTTL	READ ONLY TABLES
    167	003010					PURE.D
    168					;
    169					; SWITCH TABLE
    170	000036				CSISWT::CSI$SW	UP,UPDATE,VFYCTL,SET,,0
    171	000046					CSI$SW	RE,RBUILD!UPDATE,VFYCTL,SET,,0
    172	000056					CSI$SW	FR,FREEBT,VFYCTL,SET,,0
    173	000066					CSI$SW	ID,IDBIT,VFYCTL,SET,,0
    174	000076					CSI$SW	DE,UNDLBT!UPDINX,VFYCTL,SET,,0
    175	000106					CSI$SW	LO,LOSTBT,VFYCTL,SET,,0
    176	000116					CSI$SW	LI,LISTBT,VFYCTL,SET,,0
    177	000126					CSI$SW	RC,RDCKBT,VFYCTL,SET,,RCVAL
    178	000136					CSI$ND
    179					;
    180					; VALUE TABLE FOR READ CHECK BLOCK COUNT
    181					;
    182	000140				RCVAL:	CSI$SV	DECIMAL,.RCBLK,2
    183	000144					CSI$ND
    184
    185
    186					; DEFAULT FILE NAMES
    187	000146				BITDFN::NMBLK$	BITMAP,SYS,1,SY,0
    188	000204				TBTDFN::NMBLK$	BIT,TMP,,SY,0
    189	000242				INXDFN::NMBLK$	INDEXF,SYS,1,SY,0
    190					;
    191	000300	000000 			TYPADR::.WORD	0		; TEMP USED TO HOLD ADDR OF FILE TYP IN DIR ENTRY.
    192	000302	000004'			.ABORT::.WORD	RSTART		;ERROUX RETURN VIA JMP @.ABORT
    193	000304	000000G			.FREP1::.WORD	FREEPR		;XFER VECTOR TO PRINT FREE BLOCKS
    194	000306	000000G			.LOST1::.WORD	LOST		;XFER VECTOR TO LOST FILE SCANNER
    195	000310	000000G			.OPNF1::.WORD	OPENF		;XFER VECTOR TO OPEN ROUTINES
    196					;
    197	000312	000000 			SSTTAB::.WORD	0		;ODD ADDRESS TRAP
    198	000314	000000 				.WORD	0		;MEMORY PROTECTION VIOLATION
    199	000316	000000 				.WORD	0		;T BIT OR BPT INSTRUCTION
    200	000320	000000 				.WORD	0		;IOT INSTRUCTION
    201	000322	000000 				.WORD	0		;RESERVED INSTRUCTION
    202	000324	000000 				.WORD	0		;NON RSX EMT
    203	000326	000000G				.WORD	.ERTRP		;TRAP INSTRUCTION
    204					;
    205					; DIRECTORY NAME FOR THE MFD
    206					;
    207	000000					.PSECT
    208		000001 				MSGBL.=1		;FORCE GLOBAL DEFINITIONS
    209	000000					MSG	MFDN,<[0,0]>
    210						.EVEN
    211	000000					PURE.I
    212	000000	000167 	000000G		START:	JMP	.INIT		;INITIALIZE AND GET COMMAND
    213	000004	000167 	000000G		RSTART::JMP	.RSTAR		;GET NEXT COMMAND
    214					;
    215					;
    216		000000'				.END	START
VFY M0521, VERIFY FILES 11 VOLU	MACRO M1110  22-AUG-78 00:35  PAGE 9-1
SYMBOL TABLE

BITBUF  001642RG    005	FD.FTN= 000001   	F.FNB = 000102   	H.EFSQ= 000020   	INXFID= 000001 G
BITDFN  000146RG    003	FD.F11= 040000   	F.FTYP= 000116   	H.ERVN= 000022   	INXLUN= 000006 G
BITFID= 000002 G 	FD.INS= 000010   	F.FVER= 000120   	H.FCHA= 000064   	INXOFF  002746RG    005
BITLUN= 000003 G 	FD.ISP= 002000   	F.HIBK= 000004   	H.FIEX= 000106   	I.BKDT= 000052
BITMAP  000140RG    005	FD.MNT= 100000   	F.LUN = 000042   	H.FLEV= 000006   	I.CRDT= 000022
BITWRD  001640RG    005	FD.OSP= 004000   	F.MBCT= 000054   	H.FMAX= 000034   	I.EXDT= 000042
CHR$$ = 000103   	FD.PLC= 000004   	F.MBC1= 000055   	H.FNUM= 000010   	I.FNAM= 000000
CH.AND= 000001   	FD.PRN= 000004   	F.MBFG= 000056   	H.FOWN= 000074   	I.RVDT= 000032
CMDLUN= 000002 G 	FD.PSE= 010000   	F.NRBD= 000024   	H.FPRO= 000100   	I.RVNO= 000020
CNT$$ = 000002   	FD.RAH= 000001   	F.NREC= 000030   	H.FRVN= 000014   	I.ULAB= 000062
CSIBLK  001210RG    005	FD.RAN= 000002   	F.OVBS= 000030   	H.FSEG= 000004   	LBN     002730RG    005
CSISWT  000036RG    003	FD.REC= 000001   	F.RACC= 000016   	H.FSEQ= 000012   	LISTBT= 000200 G
CS.DIF= 000002   	FD.RWM= 000001   	F.RATT= 000001   	H.HBLB= 000000   	LOST  = ****** GX
CS.DVF= 000004   	FD.SDI= 000020   	F.RCNM= 000034   	H.HBVB= 000020   	LOSTBT= 000100 G
CS.EQU= 000040   	FD.SQD= 000040   	F.RCTL= 000017   	H.IBLB= 000030   	LOSTCT  002770RG    005
CS.INP= 000001   	FD.TTY= 000004   	F.RSIZ= 000002   	H.IBSZ= 000040   	MAPOFF  002744RG    005
CS.MOR= 000020   	FD.WBH= 000002   	F.RTYP= 000000   	H.IBVB= 000026   	MAXFNU  002740RG    005
CS.NMF= 000001   	FF.CHR= 000005   	F.SEQN= 000100   	H.IDOF= 000000   	MAXLBN  002734RG    005
CS.OUT= 000002   	FF.NV = 000003   	F.SPDV= 000072   	H.IHLB= 000010   	MFDNMG= 000030RG    002
CS.SWF= 000040 G 	FF.POE= 000002   	F.SPUN= 000074   	H.IHVB= 000024   	MFDNSZ= 000005 G
CS.WLD= 000010   	FF.RWD= 000001   	F.STBK= 000036   	H.INDF= 000760   	MLTALC  002772RG    005
C.CMLD= 000002   	FF.RWF= 000006   	F.UNIT= 000136   	H.INDN= 000730   	MOIDMG= 000021RG    002
C.DEVD= 000006   	FF.SPC= 000004   	F.URBD= 000020   	H.INDO= 000744   	MOIDSZ= 000007 G
C.DIRD= 000012   	FO.APD= 000106   	F.VBN = 000064   	H.LRUC= 000105   	MOPRM   002672RG    005
C.DSDS= 000006   	FO.MFY= 000002   	F.VBSZ= 000060   	H.MPOF= 000001   	MSGBL.= 000001
C.FILD= 000016   	FO.RD = 000001   	GCMLCB  000600RG    005	H.NVOL= 000050   	NBAD    002766RG    005
C.MKW1= 000024   	FO.UPD= 000006   	GE.BIF= 177775   	H.PRIV= 000073   	NBTBLK  002750RG    005
C.MKW2= 000026   	FO.WRT= 000016   	GE.CLO= 000004   	H.PROG= 000074   	NB.DEV= 000200
C.SIZE= 000054   	FP.DEL= 000010   	GE.COM= 000001   	H.PROJ= 000076   	NB.DIR= 000100
C.STAT= 000001   	FP.EXE= 000004   	GE.CON= 000020   	H.RPRO= 000102   	NB.NAM= 000004
C.SWAD= 000022   	FP.RDV= 000001   	GE.EOF= 177766   	H.RSOF= 000003   	NB.NXD= 020000
C.TYPR= 000000   	FP.WRV= 000002   	GE.IND= 000002   	H.RSVF= 000042   	NB.SD1= 000400
DELMAN= 000001 G 	FREEBT= 000004 G 	GE.IOR= 177777   	H.RVN = 000046   	NB.SD2= 001000
DEVATT= 000004 G 	FREEPR= ****** GX	GE.LC = 000010   	H.SBCL= 000016   	NB.SNM= 000040
DIRID   002726RG    005	F.ACTL= 000076   	GE.MDE= 177774   	H.SCHA= 000065   	NB.STP= 000020
FA.APD= 000100   	F.ALOC= 000040   	GE.OPR= 177776   	H.SEMK= 000104   	NB.SVR= 000010
FA.CRE= 000010   	F.BBFS= 000062   	GE.RBG= 177730   	H.SMMX= 000110   	NB.TYP= 000002
FA.DLK= 001000   	F.BDB = 000070   	GE.SIZ= 000040   	H.SNAM= 000714   	NB.VER= 000001
FA.ENB= 100000   	F.BGBC= 000057   	G.CMLD= 000146   	H.UCHA= 000064   	NFREE   002764RG    005
FA.EXC= 002000   	F.BKDN= 000026   	G.DPRM= 000160   	H.UFAT= 000024   	NMULT   002762RG    005
FA.EXT= 000004   	F.BKDS= 000020   	G.ERR = 000140   	H.USE = 000072   	NXTFID  002720RG    005
FA.NSP= 000100   	F.BKEF= 000050   	G.ISIZ= 000020   	H.VCHA= 000052   	N.DEVD= 000000
FA.POS= 010000   	F.BKP1= 000051   	G.LPDL= 000040   	H.VDAT= 000074   	N.DID = 000024
FA.RD = 000001   	F.BKST= 000024   	G.MODE= 000141   	H.VLEV= 000014   	N.DIRD= 000004
FA.RWD= 004000   	F.BKVB= 000064   	G.PSDS= 000142   	H.VOWN= 000054   	N.DVNM= 000032
FA.SEQ= 040000   	F.CHR = 000075   	G.SIZE= 000224   	H.VPRO= 000064   	N.FID = 000000
FA.SHR= 000040   	F.CNTG= 000034   	HDROK = 000001 G 	H.VSMX= 000060   	N.FLID= 000016
FA.TMP= 000020   	F.DFNB= 000046   	H.ACOF= 000002   	H.WISZ= 000104   	N.FNAM= 000006
FA.WCK= 020000   	F.DSPT= 000044   	H.AHLB= 000004   	IBVBN   002754RG    005	N.FNMD= 000010
FA.WRT= 000002   	F.DVNM= 000134   	H.AHVB= 000022   	IDBIT = 000010 G 	N.FTYP= 000014
FBTBLK  002752RG    005	F.EFBK= 000010   	H.CHK1= 000072   	IDNTMG= 000000RG    002	N.FVER= 000016
FDBOUT  000000RG    005	F.EFN = 000050   	H.CHK2= 000776   	IDNTSZ= 000021 G 	N.NEXT= 000022
FD.BLK= 000010   	F.EOBB= 000032   	H.CKSM= 000776   	IFNPT   001264RG    005	N.SPEC= 000014
FD.CCL= 000002   	F.ERR = 000052   	H.DFPR= 000066   	INDEX   000440RG    005	N.STAT= 000020
FD.COM= 020000   	F.FACC= 000043   	H.DRPR= 000070   	INSPEC= 001300RG    005	N.UNIT= 000034
FD.CR = 000002   	F.FFBY= 000014   	H.DVTY= 000044   	INXBIT  001642RG    005	OFNPT   001310RG    005
FD.DIR= 000010   	F.FNAM= 000110   	H.EFNU= 000016   	INXDFN  000242RG    003	OPENF = ****** GX
VFY M0521, VERIFY FILES 11 VOLU	MACRO M1110  22-AUG-78 00:35  PAGE 9-2
SYMBOL TABLE

OUDFLT  001360RG    005	R$$11M= 000001   	S.FATT= 000016   	TBTMAP  000300RG    005	.ERTRP= ****** GX
OURCSZ= 000204 G 	R.FIX = 000001   	S.FDB = 000140   	TIDEV   001622RG    005	.EXSTS  003006RG    005
OUSPEC= 001324RG    005	R.SEQ = 000003   	S.FIDS= 000014   	TMPCTL  002716RG    005	.FREP1  000304RG    003
OUTCTL  002714RG    005	R.VAR = 000002   	S.FNAM= 000006   	TYPADR  000300RG    003	.FSRCB= ****** G
OUTID = 000002 G 	SAMDEV= 000002 G 	S.FNB = 000036   	UC.CON= 000200   	.INIT = ****** GX
OUTLUN= 000005 G 	SAVSP   002760RG    005	S.FNBW= 000017   	UC.DLK= 000100   	.LOST1  000306RG    003
OUTREC  001416RG    005	SBCLUS  001636RG    005	S.FNTY= 000004   	UNDLBT= 000040 G 	.MSGFN  000000RG    003
PASS2 = 100000 G 	SC.BAD= 000100   	S.FTYP= 000002   	UPDATE= 000001 G 	.OPNF1  000310RG    003
RBUILD= 000002 G 	SC.DIR= 000040   	S.HDHD= 000114   	UPDINX= 000020 G 	.RCBLK  003004RG    005
RCVAL   000140R     003	SC.MDL= 000200   	S.IDHD= 000202   	VFYCTL  002712RG    005	.RSTAR= ****** GX
RDCHK   000300RG    005	SINXBT  002756RG    005	S.MPHD= 000000   	$$    = 000000   	.TOPAD= 002776RG    005
RDCKBT= 000400 G 	SIZ$$ = 000002   	S.NFEN= 000020   	$$$   = 000760R     005	...GBL= 000000
RSTART  000004RG    006	SSTTAB  000312RG    003	S.STBK= 000014 G 	.ABORT  000302RG    003	...PC1= 000600R     005
R$$DPB= 000001   	START   000000R     006	TBFNPT  001334RG    005	.DYBUF  003000RG    005	...PC2= 000276R     003
R$$DYM= 000001   	STBLK   002642RG    005	TBSPEC= 001350RG    005	.DYBYT  003002RG    005	...PC3= 000600R     005
R$$EIS= 000000   	S.APPD= 000010   	TBTDFN  000204RG    003	.DYSIZ  002774RG    005	...TPC= 000140
R$$MSG= 000000   	S.BFHD= 000020   	TBTLUN= 000004 G

. ABS.	000000	   000
      	000000	   001
MSGSTR	000035	   002
PURE$D	000330	   003
$$FSR1	000000	   004
IMPURE	003010	   005
PURE$I	000010	   006
ERRORS DETECTED:  0

VIRTUAL MEMORY USED:  7043 WORDS  ( 28 PAGES)
DYNAMIC MEMORY:  8052 WORDS  ( 30 PAGES)
ELAPSED TIME:  00:00:53
EXE$:VFY,LIS$:VFY/-SP=SRC$:PIPMAC,VFY
