VFYMSG M0010, ERROR MESSAGES FO	MACRO M1110  22-AUG-78 00:39
TABLE OF CONTENTS

     7-    1	**** VFYMSG VERSION M0010 ****
VFYMSG M0010, ERROR MESSAGES FO	MACRO M1110  22-AUG-78 00:39  PAGE 7


      1						.TITLE	VFYMSG M0010, ERROR MESSAGES FOR VFY
						.SBTTL	**** VFYMSG VERSION M0010 ****
						.IDENT	/M0010/
      2					;
      3					; COPYRIGHT (C) 1977
      4					; DIGITAL EQUIPMENT CORPORATION, MAYNARD, MASSACHUSETTS 01754
      5					;
      6					; THIS SOFTWARE IS FURNISHED  UNDER A LICENSE FOR USE ONLY ON A SINGLE
      7					; COMPUTER  SYSTEM AND  MAY BE  COPIED ONLY WITH  THE INCLUSION OF THE
      8					; ABOVE COPYRIGHT NOTICE.  THIS SOFTWARE, OR ANY OTHER COPIES THEREOF,
      9					; MAY NOT BE PROVIDED OR  OTHERWISE MADE AVAILABLE TO ANY OTHER PERSON
     10					; EXCEPT FOR USE ON SUCH SYSTEM AND TO ONE WHO AGREES TO THESE LICENSE
     11					; TERMS.  TITLE TO AND  OWNERSHIP OF THE  SOFTWARE  SHALL AT ALL TIMES
     12					; REMAIN IN DEC.
     13					;
     14					; THE INFORMATION IN THIS SOFTWARE IS SUBJECT TO CHANGE WITHOUT NOTICE
     15					; AND SHOULD  NOT BE CONSTRUED  AS A COMMITMENT  BY DIGITAL  EQUIPMENT
     16					; CORPORATION.
     17					;
     18					; DEC ASSUMES  NO  RESPONSIBILITY  FOR  THE USE OR  RELIABILITY OF ITS
     19					; SOFTWARE ON EQUIPMENT WHICH IS NOT SUPPLIED BY DEC.
     20
     21					;
     22					; PETER H. LIPMAN 18-SEP-73
     23					; ALTERED TUESDAY 26-NOV-74 14:45
     24					;
     25
     26						.IF	NDF,R$$MSG
     27						.IF	GT,R$$11M
     28						R$$MSG=0		;NO MESSAGE FILE FOR RSX11M
     29						.IFF
     30						R$$MSG=1		;MESSAGE FILE IS SEPARATE FOR 11D
     31						.ENDC
     32						.ENDC
     33					;
     34		000001 				MSGBL.=1		;FORCE GLOBAL DEFINITIONS
     35		000000 				MSGCT.=0		;INIT THE MESSAGE COUNT
     36
     37	000000					MSG	ER01,<ILLEGAL DEVICE>
     38	000000					MSG	ER02,<OPEN FAILURE ON BIT MAP>
     39	000000					MSG	ER03,<OPEN FAILURE ON TEMPORARY FILE>
     40	000000					MSG	ER04,<FAILED TO ALLOCATE SPACE FOR TEMP FILE>
     41	000000					MSG	ER06,<FAILED TO DETACH DEVICE>
     42	000000					MSG	ER07,<FAILED TO ATTACH DEVICE>
     43	000000					MSG	ER10,<COMMAND SYNTAX ERROR>
     44	000000					MSG	ER11,<I/O ERROR ON INPUT FILE>
     45	000000					MSG	ER12,<I/O ERROR ON OUTPUT FILE>
     46	000000					MSG	ER13,<ILLEGAL SWITCH>
     47	000000					MSG	ER14,<OPEN FAILURE ON LISTING FILE>
     48	000000					MSG	ER15,<OPEN FAILURE ON INDEX FILE>
     49	000000					MSG	ER17,<NO DYNAMIC MEMORY AVAILABLE - PARTITION TOO SMALL>
     50	000000					MSG	ER20,<VOLUME HAS WRONG STRUCTURE LEVEL >
     51					;
     52					; THE FOLLOWING MESSAGES ARE RESIDENT EVEN IF USING A MESSAGE FILE
     53					;
     54		000000 				T=R$$MSG
     55		000000 				R$$MSG=0
VFYMSG M0010, ERROR MESSAGES FO	MACRO M1110  22-AUG-78 00:39  PAGE 7-1
**** VFYMSG VERSION M0010 ****

     56	000000					MSG1	DL01,<^TO COMPLETE THE STORAGE MAP UPDATE,^<15><12>>
     57	000000					MSG1	,<^DISMOUNT THE VOLUME IMMEDIATELY.  THEN^<15><12>>
     58		000115 				DL01SZ=DL01SZ+SZ
     59	000000					MSG	,<MOUNT IT AND DELETE THE FOLLOWING FILE:>
     60		000164 				DL01SZ=DL01SZ+SZ
     61		000000 				R$$MSG=T
     62					;
     63					;
     64		000001 				.END
VFYMSG M0010, ERROR MESSAGES FO	MACRO M1110  22-AUG-78 00:39  PAGE 7-2
SYMBOL TABLE

DL01MG= 000560RG    002	ER04SZ= 000046 G 	ER11SZ= 000027 G 	ER15SZ= 000032 G 	NB.NXD= 020000
DL01SZ= 000164 G 	ER06MG= 000151RG    002	ER12MG= 000302RG    002	ER17MG= 000436RG    002	R$$DPB= 000001
ER01MG= 000000RG    002	ER06SZ= 000027 G 	ER12SZ= 000030 G 	ER17SZ= 000061 G 	R$$DYM= 000001
ER01SZ= 000016 G 	ER07MG= 000200RG    002	ER13MG= 000332RG    002	ER20MG= 000517RG    002	R$$EIS= 000000
ER02MG= 000016RG    002	ER07SZ= 000027 G 	ER13SZ= 000016 G 	ER20SZ= 000041 G 	R$$MSG= 000000
ER02SZ= 000027 G 	ER10MG= 000227RG    002	ER14MG= 000350RG    002	MG    = 000675R     002	R$$11M= 000001
ER03MG= 000045RG    002	ER10SZ= 000024 G 	ER14SZ= 000034 G 	MSGBL.= 000001   	SZ    = 000047
ER03SZ= 000036 G 	ER11MG= 000253RG    002	ER15MG= 000404RG    002	MSGCT.= 000000   	T     = 000000
ER04MG= 000103RG    002

. ABS.	000000	   000
      	000000	   001
MSGSTR	000744	   002
ERRORS DETECTED:  0

VIRTUAL MEMORY USED:  2805 WORDS  ( 11 PAGES)
DYNAMIC MEMORY:  3828 WORDS  ( 14 PAGES)
ELAPSED TIME:  00:00:14
EXE$:VFYMSG,LIS$:VFYMSG/-SP=SRC$:PIPMAC,VFYMSG
