TST$DTGLOBAL    - GLOBAL STORAGE SECTION FOR DTS/DTR             22-AUG-1978 01:03:45   VAX-11 MACRO X0.3-11               Page   0
TABLE OF CONTENTS

   (2)      92  DECLARATIONS
TST$DTGLOBAL    - GLOBAL STORAGE SECTION FOR DTS/DTR             22-AUG-1978 01:03:45   VAX-11 MACRO X0.3-11               Page   1
X0.1-9                                                                                                                           (1)

                                     0000     1 	.TITLE	TST$DTGLOBAL - GLOBAL STORAGE SECTION FOR DTS/DTR
                                     0000     2 	.IDENT	/X0.1-9/
                                     0000     3
                                     0000     4 ;
                                     0000     5 ;			  COPYRIGHT (c) 1977, 1978 BY
                                     0000     6 ;	      DIGITAL EQUIPMENT CORPORATION, MAYNARD, MASS.
                                     0000     7 ;
                                     0000     8 ; THIS SOFTWARE IS FURNISHED UNDER A LICENSE AND MAY BE USED AND  COPIED
                                     0000     9 ; ONLY  IN  ACCORDANCE  WITH  THE  TERMS  OF  SUCH  LICENSE AND WITH THE
                                     0000    10 ; INCLUSION OF THE ABOVE COPYRIGHT NOTICE.  THIS SOFTWARE OR  ANY  OTHER
                                     0000    11 ; COPIES  THEREOF MAY NOT BE PROVIDED OR OTHERWISE MADE AVAILABLE TO ANY
                                     0000    12 ; OTHER PERSON.  NO TITLE TO AND OWNERSHIP OF  THE  SOFTWARE  IS  HEREBY
                                     0000    13 ; TRANSFERRED.
                                     0000    14 ;
                                     0000    15 ; THE INFORMATION IN THIS SOFTWARE IS SUBJECT TO CHANGE  WITHOUT  NOTICE
                                     0000    16 ; AND  SHOULD  NOT  BE  CONSTRUED  AS  A COMMITMENT BY DIGITAL EQUIPMENT
                                     0000    17 ; CORPORATION.
                                     0000    18 ;
                                     0000    19 ; DIGITAL ASSUMES NO RESPONSIBILITY FOR THE USE OR  RELIABILITY  OF  ITS
                                     0000    20 ; SOFTWARE ON EQUIPMENT WHICH IS NOT SUPPLIED BY DIGITAL.
                                     0000    21 ;
                                     0000    22
                                     0000    23 ;++
                                     0000    24 ; FACILITY: DTS/DTR DECNET TEST PACKAGE
                                     0000    25 ;
                                     0000    26 ; ABSTRACT: GLOBAL STORAGE SECTION FOR DTS/DTR
                                     0000    27 ;
                                     0000    28 ; ENVIRONMENT: DTS/DTR RUN IN USER MODE AND REQUIRE NETWORK PRIVILEGE.
                                     0000    29 ;
                                     0000    30 ; AUTHOR: JAMES A. KRYCKA,	CREATION DATE: 11-AUG-77
                                     0000    31 ;
                                     0000    32 ; MODIFICATIONS:
                                     0000    33 ;
                                     0000    34 ;--
TST$DTGLOBAL    - GLOBAL STORAGE SECTION FOR DTS/DTR             22-AUG-1978 01:03:45   VAX-11 MACRO X0.3-11               Page   2
X0.1-9          DECLARATIONS                                                                                                     (2)

                                     0000    36 	.SBTTL	DECLARATIONS
                                 00000000    37 	.PSECT	TST$IMPURE	NOEXE,LONG
                                     0000    38
                                     0000    39 ;
                                     0000    40 ; INCLUDE FILES:
                                     0000    41 ;
                                     0000    42 	$IODEF				; DEFINE QIO FUNCTION CODES
                                     0000    43 	EFNDEF				; DEFINE EFN'S AND FUNCTION CODES
                                     0000    44 	CMDDEF				; DEFINE COMMAND LANGUAGE SYMBOLS
                                     0000    45 	.IIF NE	K_LIST_MEB, .LIST MEB	; DEFINED IN DTPREFIX.MAR
                                     0000    46 ;
                                     0000    47 ; MACROS:
                                     0000    48 ;
                                     0000    49 ;	NONE
                                     0000    50 ;
                                     0000    51 ; EQUATED SYMBOLS:
                                     0000    52 ;
                           00000040  0000    53 	TST$K_MAILBUF==64		; MAILBOX BUFFER LENGTH
                           00000200  0000    54 	TST$K_MAILQUOTA==TST$K_MAILBUF*8 ; MAILBOX QUOTA
                           00000000  0000    55 	TST$K_MAILPROT==^X0000		; MAILBOX PROTECTION MASK
                           00001000  0000    56 	TST$K_XMITBUF==MAX_K_SIZE_DA	; TRANSMIT BUFFER LENGTH
                           00001000  0000    57 	TST$K_RECVBUF==MAX_K_SIZE_DA	; RECEIVE BUFFER LENGTH
                           00000010  0000    58 	TST$K_INTEBUF==MAX_K_SIZE_IN	; INTERRUPT BUFFER LENGTH
                           00000084  0000    59 	TST$K_CMDBUF==132		; COMMAND BUFFER LENGTH
                           00000200  0000    60 	TST$K_PRTBUF==512		; PRINT BUFFER LENGTH
                                     0000    61 ;
                                     0000    62 ;WEAKEN DEFINITIONS THAT MAY NOT BE FOUND,DEPENDING ON MODULE
                                     0000    63
                                     0000    64 	.WEAK	TST$XMITAST_DTR,TST$RECVAST_DTR,TST$MAILAST_DTR
                                     0000    65 	.WEAK	TST$INTEAST_DTR,TST$XMITAST_DTS,TST$RECVAST_DTS
                                     0000    66 	.WEAK	TST$MAILAST_DTS,TST$INTEAST_DTS
                                     0000    67 ;
                                     0000    68 ;
                                     0000    69 ;OFFSETS IN AST QUEUE BLOCK
                                     0000    70
                           00000000  0000    71 	TST$QB_FLINK==0
                           00000004  0000    72 	TST$QB_BLINK==4			;BACK LINK
                           00000008  0000    73 	TST$QB_CODE==8			;QIO FUNCTION INDEX
                           0000000C  0000    74 	TST$QB_ASTADR==12		;AST ROUTINE ADDRESS
                           00000010  0000    75 	TST$QB_BUFLEN==16		;BUFFER SIZE
                                     0000    76 ;
                                     0000    77 ; OWN STORAGE:
                                     0000    78 ;
                                     0000    79
                                     0000    80 ;
                                     0000    81 ; QIO PARAMETER BLOCKS FOR FUNCTIONS OVER THE COMMUNICATIONS LINK AND
                                     0000    82 ; FOR THE ASSOCIATED MAILBOX.
                                     0000    83 ;
                                     0000    84
                                     0000    85 ;***********************************************************************
                                     0000    86 ; THESE BLOCKS MUST BE CONTIGUOUS AND IN THE ORDER SPECIFIED SO THAT
                                     0000    87 ; INDEXED ADDRESSING CAN BE USED TO MODIFY THEM.
                                     0000    88 ;***********************************************************************
                                     0000    89
                                     0000    90 TST$PARAMETER::				; START OF 8 CONTIGUOUS QIO
                                     0000    91 					;  PARAMETER BLOCKS
                                     0000    92 ;
TST$DTGLOBAL    - GLOBAL STORAGE SECTION FOR DTS/DTR             22-AUG-1978 01:03:45   VAX-11 MACRO X0.3-11               Page   3
X0.1-9          DECLARATIONS                                                                                                     (2)

                                     0000    93 ; READ THE ASSOCIATED MAILBOX.
                                     0000    94 ;
                                     0000    95 	$QIO	EFN=EFN_K_READ_MAIL-	;
                                     0000    96 		CHAN=0-			; CHANNEL # T.B.S.
                                     0000    97 		FUNC=IO$_READVBLK-	;
                                     0000    98 		IOSB=TST$GQ_MAILIOSB-	;
                                     0000    99 		ASTADR=0-		; MAY BE MODIFIED
                                     0000   100 		ASTPRM=0-		; MAY BE MODIFIED
                                     0000   101 		P1=TST$GB_MAILBUF-	; BUFFER ADDRESS
                                     0000   102 		P2=0			; BUFFER SIZE T.B.S.
                                     0034   103 ;
                                     0034   104 ; ISSUE NSP CONNECT INITIATE OR CONNECT ACCEPT REQUEST.
                                     0034   105 ;
                                     0034   106 	ASSUME	EFN_K_CONN_INIT,EQ,EFN_K_CONN_ACCE ; INITIATE = ACCEPT
                                     0034   107 	$QIO	EFN=EFN_K_CONN_INIT-	;
                                     0034   108 		CHAN=0-			; CHANNEL # T.B.S.
                                     0034   109 		FUNC=IO$_ACCESS!IO$M_ACCESS- ;
                                     0034   110 		IOSB=TST$GQ_LINKIOSB-	;
                                     0034   111 		ASTADR=0-		; MAY BE MODIFIED
                                     0034   112 		ASTPRM=0-		; MAY BE MODIFIED
                                     0034   113 		P1=0-			; MUST BE ZERO
                                     0034   114 		P2=0			; ACCESS DESC BLOCK ADDRESS T.B.S.
                                     0068   115
                                     0068   116 ;
                                     0068   117 ; ISSUE NSP CONNECT REJECT REQUEST.
                                     0068   118 ;
                                     0068   119 	$QIO	EFN=EFN_K_CONN_REJE-	;
                                     0068   120 		CHAN=0-			; CHANNEL # T.B.S.
                                     0068   121 		FUNC=IO$_ACCESS!IO$M_ABORT- ;
                                     0068   122 		IOSB=TST$GQ_LINKIOSB-	;
                                     0068   123 		ASTADR=0-		; MAY BE MODIFIED
                                     0068   124 		ASTPRM=0-		; MAY BE MODIFIED
                                     0068   125 		P1=0-			; MUST BE ZERO
                                     0068   126 		P2=0			; ACCESS DESC BLOCK ADDRESS T.B.S.
                                     009C   127
                                     009C   128 ;
                                     009C   129 ; ISSUE NSP SYNCHRONOUS DISCONNECT REQUEST.
                                     009C   130 ;
                                     009C   131 	$QIO	EFN=EFN_K_DISC_SYNC-	;
                                     009C   132 		CHAN=0-			; CHANNEL # T.B.S.
                                     009C   133 		FUNC=IO$_DEACCESS!IO$M_SYNCH- ;
                                     009C   134 		IOSB=TST$GQ_LINKIOSB-	;
                                     009C   135 		ASTADR=0-		; MAY BE MODIFIED
                                     009C   136 		ASTPRM=0-		; MAY BE MODIFIED
                                     009C   137 		P1=0-			; MUST BE ZERO
                                     009C   138 		P2=0			; DEACCESS DESC BLOCK ADDRESS T.B.S.
                                     00D0   139
                                     00D0   140 ;
                                     00D0   141 ; ISSUE NSP DISCONNECT ABORT REQUEST.
                                     00D0   142 ;
                                     00D0   143 	$QIO	EFN=EFN_K_DISC_ABRT-	;
                                     00D0   144 		CHAN=0-			; CHANNEL # T.B.S.
                                     00D0   145 		FUNC=IO$_DEACCESS!IO$M_ABORT- ;
                                     00D0   146 		IOSB=TST$GQ_LINKIOSB-	;
                                     00D0   147 		ASTADR=0-		; MAY BE MODIFIED
                                     00D0   148 		ASTPRM=0-		; MAY BE MODIFIED
                                     00D0   149 		P1=0-			; MUST BE ZERO
TST$DTGLOBAL    - GLOBAL STORAGE SECTION FOR DTS/DTR             22-AUG-1978 01:03:45   VAX-11 MACRO X0.3-11               Page   4
X0.1-9          DECLARATIONS                                                                                                     (2)

                                     00D0   150 		P2=0			; DEACCESS DESC BLOCK ADDRESS T.B.S.
                                     0104   151
                                     0104   152 ;
                                     0104   153 ; ISSUE NSP TRANSMIT DATA MESSAGE REQUEST.
                                     0104   154 ;
                                     0104   155 	$QIO	EFN=EFN_K_XMIT_DATA-	;
                                     0104   156 		CHAN=0-			; CHANNEL # T.B.S.
                                     0104   157 		FUNC=IO$_WRITEVBLK-	;
                                     0104   158 		IOSB=TST$GQ_XMITIOSB-	;
                                     0104   159 		ASTADR=0-		; MAY BE MODIFIED
                                     0104   160 		ASTPRM=0-		; MAY BE MODIFIED
                                     0104   161 		P1=TST$GB_XMITBUF-	; BUFFER ADDRESS
                                     0104   162 		P2=0			; BUFFER SIZE T.B.S.
                                     0138   163
                                     0138   164 ;
                                     0138   165 ; ISSUE NSP TRANSMIT INTERRUPT DATA REQUEST.
                                     0138   166 ;
                                     0138   167 	$QIO	EFN=EFN_K_XMIT_INTE-	;
                                     0138   168 		CHAN=0-			; CHANNEL # T.B.S.
                                     0138   169 		FUNC=IO$_WRITEVBLK!IO$M_INTERRUPT- ;
                                     0138   170 		IOSB=TST$GQ_INTEIOSB-	;
                                     0138   171 		ASTADR=0-		; MAY BE MODIFIED
                                     0138   172 		ASTPRM=0-		; MAY BE MODIFIED
                                     0138   173 		P1=TST$GB_INTEBUF-	; BUFFER ADDRESS
                                     0138   174 		P2=0			; BUFFER SIZE T.B.S.
                                     016C   175
                                     016C   176 ;
                                     016C   177 ; ISSUE NSP RECEIVE DATA MESSAGE REQUEST.
                                     016C   178 ;
                                     016C   179 	$QIO	EFN=EFN_K_RECV_DATA-	;
                                     016C   180 		CHAN=0-			; CHANNEL # T.B.S.
                                     016C   181 		FUNC=IO$_READVBLK-	;
                                     016C   182 		IOSB=TST$GQ_RECVIOSB-	;
                                     016C   183 		ASTADR=0-		; MAY BE MODIFIED
                                     016C   184 		ASTPRM=0-		; MAY BE MODIFIED
                                     016C   185 		P1=TST$GB_RECVBUF-	; BUFFER ADDRESS
                                     016C   186 		P2=0			; BUFFER SIZE T.B.S.
                                     01A0   187
                                     01A0   188 ;
                                     01A0   189 ; QIO STATUS BLOCK STORAGE
                                     01A0   190 ;
                                     01A0   191
                                     01A0   192 TST$GQ_MAILIOSB::			; MAILBOX I/O STATUS BLOCK
                           000001A8  01A0   193 	.BLKQ	1			;
                                     01A8   194 TST$GQ_LINKIOSB::			; GENERAL LINK I/O STATUS BLOCK
                           000001B0  01A8   195 	.BLKQ	1			;
                                     01B0   196 TST$GQ_XMITIOSB::			; TRANSMIT I/O STATUS BLOCK
                           000001B8  01B0   197 	.BLKQ	1			;
                                     01B8   198 TST$GQ_INTEIOSB::			; INTERRUPT I/O STATUS BLOCK
                           000001C0  01B8   199 	.BLKQ	1			;
                                     01C0   200 TST$GQ_RECVIOSB::			; RECEIVE I/O STATUS BLOCK
                           000001C8  01C0   201 	.BLKQ	1			;
                                     01C8   202
                                     01C8   203 ;
                                     01C8   204 ; MESSAGE BUFFER STORAGE
                                     01C8   205 ;
                                     01C8   206
TST$DTGLOBAL    - GLOBAL STORAGE SECTION FOR DTS/DTR             22-AUG-1978 01:03:45   VAX-11 MACRO X0.3-11               Page   5
X0.1-9          DECLARATIONS                                                                                                     (2)

                                     01C8   207 TST$GB_MAILBUF::			; MAILBOX BUFFER
                           00000208  01C8   208 	.BLKB	TST$K_MAILBUF		;
                                     0208   209 TST$GB_XMITBUF::			; TRANSMIT BUFFER
                           00001208  0208   210 	.BLKB	TST$K_XMITBUF		;
                                     1208   211 TST$GB_RECVBUF::			; RECEIVE BUFFER
                           00002208  1208   212 	.BLKB	TST$K_RECVBUF		;
                                     2208   213 TST$GB_INTEBUF::			; INTERRUPT BUFFER
                           00002218  2208   214 	.BLKB	TST$K_INTEBUF		;
                                     2218   215
                                     2218   216 ;
                                     2218   217 ; CHANNEL NUMBER STORAGE
                                     2218   218 ;
                                     2218   219
                                     2218   220 TST$GW_MAILCHAN::			; MAILBOX CHANNEL NUMBER
                           0000221A  2218   221 	.BLKW	1			;
                                     221A   222 TST$GW_LINKCHAN::			; LINK CHANNEL NUMBER
                           0000221C  221A   223 	.BLKW	1			;
                                     221C   224
                                     221C   225 ;
                                     221C   226 ;FLAGS PASSED FROM AST ROUTINES TO MAINLINE
                                     221C   227 TST$GB_ASTFLAGS::			;BIT FLAGS
                                 00  221C   228 	.BYTE 	0
                                     221D   229 ;
                                     221D   230 ; DEVICE NAME AND LOGICAL NAME DESCRIPTOR BLOCKS WITH TEXT
                                     221D   231 ;
                                     221D   232
                                     221D   233 TST$GQ_MAIL_DTS::			; DEVICE NAME DESCRIPTOR BLOCK
                                     221D   234 	QBLOCK	TEXT=<TST$DTS_MAILBOX>	;  FOR MAILBOX USED BY DTS
                                     2234   235 TST$GQ_MAIL_DTR::			; DEVICE NAME DESCRIPTOR BLOCK
                                     2234   236 	QBLOCK	TEXT=<TST$DTR_MAILBOX>	;  FOR MAILBOX USED BY DTR
                                     224B   237 TST$GQ_LINKNAME::			; DEVICE NAME DESCRIPTOR BLOCK
                                     224B   238 	QBLOCK	TEXT=<_NET:>		;  FOR THE LINK
                                     2258   239 TST$GQ_SYSNAME::			; LOGICAL NAME DESCRIPTOR BLOCK
                                     2258   240 	QBLOCK	TEXT=<SYS$NET>		;  FOR SYS$NET
                                     2267   241
                                     2267   242 ;
                                     2267   243 ;BLOCKS BY DTS TO QUEUE AST REQUESTS TO USER LEVEL
                                     2267   244
                                     2267   245 TST$QB_XMTDATA::
                  00000000 00000000  2267   246 	.LONG	0,0		;LINKS
                           00000005  226F   247 	.LONG	EFN_K_XMIT_DATA	;FUNCTION CODE/INDEX
                           00000000' 2273   248 	.ADDRESS TST$XMITAST_DTS	;ADDESS AST ROUTINE
                                     2277   249 TST$QB_RCVDATA::
                  00000000 00000000  2277   250 	.LONG	0,0		;LINKS
                           00000007' 227F   251 	.LONG	EFN_K_RECV_DATA
                           00000000' 2283   252 	.ADDRESS TST$RECVAST_DTS
                                     2287   253 TST$QB_RCVMAIL::
                  00000000 00000000  2287   254 	.LONG	0,0		;LINKS
                           00000000' 228F   255 	.LONG	EFN_K_READ_MAIL
                           00000000' 2293   256 	.ADDRESS TST$MAILAST_DTS
                                     2297   257 TST$QB_XMTINT::
                  00000000 00000000  2297   258 	.LONG	0,0		;LINKS
                           00000006' 229F   259 	.LONG	EFN_K_XMIT_INTE
                           00000000' 22A3   260 	.ADDRESS TST$INTEAST_DTS
                                     22A7   261 ;
                                     22A7   262 ;QUEUE BLOCKS USED BY DTR FOR PASSING ASTS TO USER LEVEL
                                     22A7   263 TST$QBR_XMTDATA::
TST$DTGLOBAL    - GLOBAL STORAGE SECTION FOR DTS/DTR             22-AUG-1978 01:03:45   VAX-11 MACRO X0.3-11               Page   6
X0.1-9          DECLARATIONS                                                                                                     (2)

                  00000000 00000000  22A7   264 	.LONG	0,0		;LINKS
                           00000005' 22AF   265 	.LONG	EFN_K_XMIT_DATA	;FUNCTION CODE/INDEX
                           00000000' 22B3   266 	.ADDRESS TST$XMITAST_DTR	;ADDESS AST ROUTINE
                           00000000  22B7   267 	.LONG	0		;BUFFER LENGTH
                                     22BB   268 TST$QBR_RCVDATA::
                  00000000 00000000  22BB   269 	.LONG	0,0		;LINKS
                           00000007' 22C3   270 	.LONG	EFN_K_RECV_DATA
                           00000000' 22C7   271 	.ADDRESS TST$RECVAST_DTR
                           00000000  22CB   272 	.LONG	0		;BUFFER SIZE
                                     22CF   273 TST$QBR_RCVMAIL::
                  00000000 00000000  22CF   274 	.LONG	0,0		;LINKS
                           00000000' 22D7   275 	.LONG	EFN_K_READ_MAIL
                           00000000' 22DB   276 	.ADDRESS TST$MAILAST_DTR
                           00000000  22DF   277 	.LONG	0		;BUFFER SIZE
                                     22E3   278 TST$QBR_XMTINT::
                  00000000 00000000  22E3   279 	.LONG	0,0		;LINKS
                           00000006' 22EB   280 	.LONG	EFN_K_XMIT_INTE
                           00000000' 22EF   281 	.ADDRESS TST$INTEAST_DTR
                           00000000  22F3   282 	.LONG	0		;BUFFER SIZE
                                     22F7   283 TST$QB_QHEAD::
                  00000000 00000000  22F7   284 	.QUAD	0
                                     22FF   285 ;
                                     22FF   286 ; DATA STRUCTURES FOR THE COMMAND FILE
                                     22FF   287 ;
                                     22FF   288
                                     22FF   289 	.ALIGN	LONG			; REQUIRED FOR FABS AND RABS
                                     2300   290 TST$CMDFAB::				; FILE ACCESS BLOCK
                                     2300   291 	$FAB	FAC=GET-		;
                                     2300   292 		FNA=TST$GT_CMDNAME-	;
                                     2300   293 		FNS=K_CMDNAME		;
                                     2350   294 TST$CMDRAB::				; RECORD ACCESS BLOCK
                                     2350   295 	$RAB	FAB=TST$CMDFAB-		;
                                     2350   296 		UBF=TST$GB_CMDBUF-	;
                                     2350   297 		USZ=TST$K_CMDBUF-	;
                                     2350   298 		ROP=<PMT,TMO,CVT>-	;
                                     2350   299 		PBF=TST$GB_PMTBUF-	;
                                     2350   300 		PSZ=K_PMTBUF-		;
                                     2350   301 		TMO=120			;
                                     2394   302 TST$GT_CMDNAME::			; COMMAND DEVICE NAME
         54 55 50 4E 49 24 53 59 53  2394   303 	.ASCII	\SYS$INPUT\		;
                           00000009  239D   304 K_CMDNAME=.-TST$GT_CMDNAME		; COMMAND DEVICE NAME LENGTH
                                     239D   305 TST$GB_CMDBUF::				; COMMAND BUFFER
                           00002421  239D   306 	.BLKB	TST$K_CMDBUF		;
                                     2421   307 TST$GB_PMTBUF::				; PROMPT BUFFER
20 20 20 3A 74 73 65 54 5F 0A 0A 0D  2421   308 	.ASCII	<13><10><10>\_Test:   \	; PROMPT MESSAGE
                           0000000C  242D   309 K_PMTBUF=.-TST$GB_PMTBUF		; PROMPT BUFFER LENGTH
                                     242D   310
                                     242D   311 ;
                                     242D   312 ; DATA STRUCTURES FOR THE PRINT FILE
                                     242D   313 ;
                                     242D   314
                                     242D   315 	.ALIGN	LONG			; REQUIRED FOR FABS AND RABS
                                     2430   316 TST$PRTFAB::				; FILE ACCESS BLOCK
                                     2430   317 	$FAB	FAC=PUT-		;
                                     2430   318 		RAT=CR-			;
                                     2430   319 		FNA=TST$GT_PRTNAME-	;
                                     2430   320 		FNS=K_PRTNAME		;
TST$DTGLOBAL    - GLOBAL STORAGE SECTION FOR DTS/DTR             22-AUG-1978 01:03:45   VAX-11 MACRO X0.3-11               Page   7
X0.1-9          DECLARATIONS                                                                                                     (2)

                                     2480   321 TST$PRTRAB::				; RECORD ACCESS BLOCK
                                     2480   322 	$RAB	FAB=TST$PRTFAB-		;
                                     2480   323 		RBF=TST$GB_PRTBUF-	;
                                     2480   324 		RSZ=0			; T.B.S. DYNAMICALLY
                                     24C4   325 TST$GT_PRTNAME::			; PRINT DEVICE NAME
      54 55 50 54 55 4F 24 53 59 53  24C4   326 	.ASCII	\SYS$OUTPUT\		;
                           0000000A  24CE   327 K_PRTNAME=.-TST$GT_PRTNAME		; PRINT DEVICE NAME LENGTH
                                     24CE   328 TST$GQ_PRTBUF::				; OUTPUT STRING DESCRIPTOR FOR FAO
                                     24CE   329 	QBLOCK	SPACE=TST$K_PRTBUF-	; BUFFER SIZE
                                     24CE   330 		BUFADR=TST$GB_PRTBUF	; BUFFER ADDRESS
                                     26D6   331 TST$GW_PRTLEN::				; FORMATTED MESSAGE SIZE FROM FAO
                           000026D8  26D6   332 	.BLKW	1			;
                                     26D8   333
                                     26D8   334 ;
                                     26D8   335 ; FAO RELATED DESCRIPTOR BLOCKS WITH TEXT
                                     26D8   336 ;
                                     26D8   337
                                     26D8   338 TST$GQ_INIT::				; INITIALIZATION MESSAGE
                                     26D8   339 	QBLOCK	TEXT=<<!/!AC!AC initiated on !%D>>
                                     26F9   340 TST$GQ_CALLER::				; REQUESTOR ID MESSAGE
                                     26F9   341 	QBLOCK	TEXT=<<!/!AC!AC was requested by !AD">>
                                     271F   342 TST$GQ_TERM::				; TERMINATION MESSAGE
                                     271F   343 	QBLOCK	TEXT=<<!/!ACterminated on !%D>>
                                     273D   344 TST$GQ_COMPLETE::			; TEST COMPLETE MESSAGE
                                     273D   345 	QBLOCK	TEXT=<<!/!AC!AC test completed on !%T with status of !XL>>
                                     2776   346 TST$GQ_PARSE::				; PARSE ERROR MESSAGE
                                     2776   347 	QBLOCK	TEXT=<<!ACcommand line syntax error>>
                                     279A   348 TST$GQ_DISPLAY::			; PRINT MESSAGE
                                     279A   349 	QBLOCK	TEXT=<<!AC !UW!_-!#(3XB)>>
                                     27B3   350 TST$GQ_STAT1::				; TEXT FOR STATISTICS PART 1
                                     27B3   351 	QBLOCK	TEXT=<!/-
                                     27B3   352 		<Test parameters:!/>-
                                     27B3   353 		<   Test duration (sec)!_!UL!/>-
                                     27B3   354 		<   Target nodename!_"!AC"!/>-
                                     27B3   355 		<   Line speed (baud)!_!UL!/>-
                                     27B3   356 		<   Message size (bytes)!_!UW>-
                                     27B3   357 	>
                                     283E   358 TST$GQ_STAT2::				; TEXT FOR STATISTICS PART 2
                                     283E   359 	QBLOCK	TEXT=<!/-
                                     283E   360 		<Summary statistics:!/>-
                                     283E   361 		<   Total messages XMIT!_!UL!_RECV!_!UL!/>-
                                     283E   362 		<   Total bytes XMIT!_!UL!/>-
                                     283E   363 		<   Messages per second!_!UL.!UB!/>-
                                     283E   364 		<   Bytes per second!_!UL!/>-
                                     283E   365 		<   Line thruput (baud)!_!UL!/>-
                                     283E   366 		<   % Line utilization!_!UL.!UB>-
                                     283E   367 	>
                                     2915   368 TST$GQ_STAT3::				; TEXT FOR DTR PRINT OPTION
                                     2915   369 	QBLOCK	TEXT=<!/-
                                     2915   370 		<Summary statistics:!/>-
                                     2915   371 		<   Message size (bytes)!_!UW!/>-
                                     2915   372 		<   Total messages XMIT!_!UL!_RECV!_!UL!/>-
                                     2915   373 		<   Total bytes XMIT!_!UL>-
                                     2915   374 	>
                                     2992   375 TST$GT_DTS::				; DTS IDENTIFICATION STORED
                     20 53 54 44 00' 2992   376 	.ASCIC	\DTS \			;  AS A COUNTED ASCII STRING
                                 04  2992
TST$DTGLOBAL    - GLOBAL STORAGE SECTION FOR DTS/DTR             22-AUG-1978 01:03:45   VAX-11 MACRO X0.3-11               Page   8
X0.1-9          DECLARATIONS                                                                                                     (2)

                                     2997   377 TST$GT_DTR::				; DTR IDENTIFICATION STORED
                     20 52 54 44 00' 2997   378 	.ASCIC	\DTR \			;  AS A COUNTED ASCII STRING
                                 04  2997
                                     299C   379 ;
                                     299C   380 ;DATA FOR CALLS TO PUTMSG
                                     299C   381
                                     299C   382 TST$GT_DTSMSG::
                               0003  299C   383 	.WORD	3
                               000F  299E   384 	.WORD	15
                                     29A0   385 TST$GL_DTERROR::
                           00000000  29A0   386 	.LONG	0
                               0001  29A4   387 	.WORD	1
                               000F  29A6   388 	.WORD	15
                                     29A8   389 TST$GL_FAOARG::
                           00000000  29A8   390 	.LONG	0
                                     29AC   391 TST$GQ_FACDESC::
                  000029B4'00000003  29AC   392 	.LONG	3,.+4
                           53 54 44  29B4   393 	.ASCII	/DTS/
                                     29B7   394
                                     29B7   395 TST$GQ_DTRDESC::
                  000029BF'00000003  29B7   396 	.LONG	3,.+4
                           52 54 44  29BF   397 	.ASCII	/DTR/
                                     29C2   398 ;
                                     29C2   399 ; COMMUNICATIONS LINK TRANSMISSION AND RECEPTION COUNTERS.
                                     29C2   400 ; NOTE: ENTRIES MUST BE IN THE ORDER SPECIFIED.
                                     29C2   401 ;
                                     29C2   402
                                     29C2   403 TST$GL_XMITDATA::			; NUMBER OF DATA MESSAGES
                           000029C6  29C2   404 	.BLKL	1			;  TRANSMITTED
                                     29C6   405 TST$GL_RECVDATA::			; NUMBER OF DATA MESSAGES
                           000029CA  29C6   406 	.BLKL	1			;  RECEIVED
                                     29CA   407 TST$GL_XMITINTE::			; NUMBER OF INTERRUPT MESSAGES
                           000029CE  29CA   408 	.BLKL	1			;  TRANSMITTED
                                     29CE   409 TST$GL_RECVINTE::			; NUMBER OF INTERRUPT MESSAGES
                           000029D2  29CE   410 	.BLKL	1			;  RECEIVED
                                     29D2   411 TST$GL_STATUS::				; AST ROUTINE STATUS CODE
                           000029D6  29D2   412 	.BLKL	1			;
                                     29D6   413
                                     29D6   414 ;
                                     29D6   415 ; WORK AREA FOR COMMAND PARSE.
                                     29D6   416 ; NOTE: ENTRIES MUST BE IN THE ORDER SPECIFIED.
                                     29D6   417 ;
                                     29D6   418
                                     29D6   419 TST$GT_KEYWORD::			; FIRST 4 CHARACTERS OF PARAMETER
                           000029DA  29D6   420 	.BLKB	4			;  OR QUALIFIER STRING TO PARSE
                                     29DA   421 TST$GT_VALUE::				; FIRST 8 CHARACTERS OF QUALIFIER
                           000029E2  29DA   422 	.BLKB	8			;  VALUE STRING TO PARSE
                                     29E2   423
                                     29E2   424 ;+
                                     29E2   425 ; STORAGE OF THE NETWORK CONNECT BLOCK AND ASSOCIATED DATA. THE NCB
                                     29E2   426 ; IS CONSTRUCTED DYNAMICALLY AND MAY VARY IN SIZE. IT CONTAINS UP TO
                                     29E2   427 ; SIX FIELDS WHOSE ORDER AND SIZE ARE LISTED BELOW:
                                     29E2   428 ;
                                     29E2   429 ;	 8 BYTES MAX FOR <NODENAME>::
                                     29E2   430 ;	16 BYTES MAX FOR <OBJECTTYPE>
                                     29E2   431 ;	 1 BYTE FOR SLASH DELIMITER
                                     29E2   432 ;	 2 BYTES FOR NETACP LINK INDEX
TST$DTGLOBAL    - GLOBAL STORAGE SECTION FOR DTS/DTR             22-AUG-1978 01:03:45   VAX-11 MACRO X0.3-11               Page   9
X0.1-9          DECLARATIONS                                                                                                     (2)

                                     29E2   433 ;	17 BYTES MAX FOR COUNTED USERDATA STRING
                                     29E2   434 ;	19 BYTES FOR ADDITIONAL NETACP DATA
                                     29E2   435 ;-
                                     29E2   436
                                     29E2   437 TST$GQ_NCB::				; NCB DESCRIPTOR BLOCK
                                     29E2   438 	QBLOCK	SPACE=63-		;
                                     29E2   439 		BUFADR=TST$GB_NCB	;
                                     2A29   440 TST$GQ_ACCESS::				; ACCESS FUNC DESCRIPTOR BLOCK
                           00002A31  2A29   441 	.BLKQ	1			;
                                     2A31   442 TST$GQ_DEACCESS::			; DEACCESS FUNC DESCRIPTOR BLOCK
                           00002A39  2A31   443 	.BLKQ	1			;
                                     2A39   444 TST$GT_OBJTYPE::			; NSP OBJECTTYPE FOR DTR STORED
                        3D 33 36 00' 2A39   445 	.ASCIC	\63=\			;  AS A COUNTED ASCII STRING
                                 03  2A39
                                     2A3D   446 TST$GT_OBJTYPE1::			; ALTERNATE OBJECTTYPE STORED
                  52 54 44 3D 30 00' 2A3D   447 	.ASCIC	\0=DTR\			;  AS A COUNTED ASCII STRING
                                 05  2A3D
                                     2A43   448 TST$GT_OBJTYPE2::			; ALTERNATE OBJECTTYPE STORED
         52 54 44 3D 4B 53 41 54 00' 2A43   449 	.ASCIC	\TASK=DTR\		;  AS A COUNTED ASCII STRING
                                 08  2A43
                                     2A4C   450 TST$GT_USERDATA::			; USERDATA STRING FOR DTR STORED
                           00002A5D  2A4C   451 	.BLKB	1+16			;  AS A COUNTED ASCII STRING
                                     2A5D   452 TST$GT_STANDARD::			; "STANDARD" DATA PATTERN
4B 4A 49 48 47 46 45 44 43 42 41 00' 2A5D   453 	.ASCIC	\ABCDEFGHIJKLMNOPQRSTUVWXYZ0123456789\
57 56 55 54 53 52 51 50 4F 4E 4D 4C  2A69
38 37 36 35 34 33 32 31 30 5A 59 58  2A75
                                 39  2A81
                                 24  2A5D
                                     2A82   454 TST$GT_CONN::				; TEXT FOR CONNECT TEST STORED
            54 43 45 4E 4E 4F 43 00' 2A82   455 	.ASCIC	\CONNECT\		;  AS A COUNTED ASCII STRING
                                 07  2A82
                                     2A8A   456 TST$GT_DATA::				; TEXT FOR DATA TEST STORED
                     41 54 41 44 00' 2A8A   457 	.ASCIC	\DATA\			;  AS A COUNTED ASCII STRING
                                 04  2A8A
                                     2A8F   458 TST$GT_DISC::				; TEXT FOR DISCONNECT TEST STORED
   54 43 45 4E 4E 4F 43 53 49 44 00' 2A8F   459 	.ASCIC	\DISCONNECT\		;  AS A COUNTED ASCII STRING
                                 0A  2A8F
                                     2A9A   460 TST$GT_INTE::				; TEXT FOR INTERRUPT TEST STORED
      54 50 55 52 52 45 54 4E 49 00' 2A9A   461 	.ASCIC	\INTERRUPT\		;  AS A COUNTED ASCII STRING
                                 09  2A9A
                                     2AA4   462 TST$GT_MISC::				; TEXT FOR MISCELLANEOUS TEST STORED
4F 45 4E 41 4C 4C 45 43 53 49 4D 00' 2AA4   463 	.ASCIC	\MISCELLANEOUS\		;  AS A COUNTED ASCII STRING
                              53 55  2AB0
                                 0D  2AA4
                                     2AB2   464 TST$GT_ERROR::				; STRING FOR ERROR RESPONSE STORED
                     3F 3F 3F 3F 00' 2AB2   465 	.ASCIC	\????\			;  AS A COUNTED ASCII STRING
                                 04  2AB2
                                     2AB7   466 TST$GT_VERSION::			; DTS/DTR VERSION NUMBER STORED
2E 30 58 20 6E 6F 69 73 72 65 56 00' 2AB7   467 	.ASCIC	\Version X0.4\		;  AS A COUNTED ASCII STRING
                                 34  2AC3
                                 0C  2AB7
                                     2AC4   468 TST$GT_XMIT::				; TEXT FOR DISPLAY STORED
   54 49 4D 58 20 2D 2D 2D 2D 3C 00' 2AC4   469 	.ASCIC	\<---- XMIT\		;  AS A COUNTED ASCII STRING
                                 0A  2AC4
                                     2ACF   470 TST$GT_RECV::				; TEXT FOR DISPLAY STORED
   3E 2D 2D 2D 2D 20 56 43 45 52 00' 2ACF   471 	.ASCIC	\RECV ---->\		;  AS A COUNTED ASCII STRING
                                 0A  2ACF
TST$DTGLOBAL    - GLOBAL STORAGE SECTION FOR DTS/DTR             22-AUG-1978 01:03:45   VAX-11 MACRO X0.3-11               Page  10
X0.1-9          DECLARATIONS                                                                                                     (2)

                                     2ADA   472
                                     2ADA   473 ;
                                     2ADA   474 ; RESULTS OF PARSE OF MAILBOX MESSAGE
                                     2ADA   475 ;
                                     2ADA   476
                                     2ADA   477 TST$GW_MAILCODE::			; MAILBOX MESSAGE CODE
                           00002ADC  2ADA   478 	.BLKW	1			;
                                     2ADC   479 TST$GW_DEV_UNIT::			; DEVICE UNIT NUMBER
                           00002ADE  2ADC   480 	.BLKW	1			;
                                     2ADE   481 TST$GT_DEV_NAME::			; DEVICE NAME STORED AS A
                           00002AEE  2ADE   482 	.BLKB	1+15			;  COUNTED ASCII STRING
                                     2AEE   483 TST$GT_MAILDATA::			; MAILBOX MESSAGE LESS HEADER STORED
                           00002B2E  2AEE   484 	.BLKB	1+63			;  AS A COUNTED ASCII STRING
                                     2B2E   485
                                     2B2E   486 ;
                                     2B2E   487 ; STORAGE OF COMMAND PARAMETER AND COMMAND RELATED VALUES.
                                     2B2E   488 ;
                                     2B2E   489
                                     2B2E   490 TST$GB_TEST::				; TEST PARAMETER (FUNCTION)
                           00002B2F  2B2E   491 	.BLKB	1			;  FOR ALL TESTS
                                     2B2F   492 TST$GL_VALID::				; VALID (PERMITTED) QUALIFIER FLAGS
                           00002B33  2B2F   493 	.BLKL	1			;
                                     2B33   494
                                     2B33   495 ;
                                     2B33   496 ; STORAGE OF COMMAND QUALIFIER VALUES
                                     2B33   497 ;
                                     2B33   498
                                     2B33   499 TST$GB_DISPLAY::			; DISPLAY MESSAGE QUALIFIER
                           00002B34  2B33   500 	.BLKB	1			; N=#BYTES OF MESSAGE TO DISPLAY
                                     2B34   501 TST$GT_NODENAME::			; TARGET NODENAME STORED
                           00002B3B  2B34   502 	.BLKB	1+6			;  AS A COUNTED ASCII STRING
                                     2B3B   503 TST$GB_PRINT::				; [NO]PRINT QUALIFIER
                           00002B3C  2B3B   504 	.BLKB	1			;
                                     2B3C   505 TST$GL_SPEED::				; LINE SPEED IN BAUD
                           00002B40  2B3C   506 	.BLKL	1			; THIS VALUE IS USED ONLY AS INPUT
                                     2B40   507 					;  FOR STATISTICS CALCULATIONS;
                                     2B40   508 					;  I.E., IT DOES NOT SET LINE SPEED!
                                     2B40   509 TST$GB_STAT::				; [NO]STATISTICS QUALIFIER
                           00002B41  2B40   510 	.BLKB	1			;
                                     2B41   511
                                     2B41   512 ;
                                     2B41   513 ; STORAGE OF PARAMETER QUALIFIER AND RELATED VALUES.
                                     2B41   514 ;
                                     2B41   515
                                     2B41   516 TST$GB_TYPE::				; TEST TYPE QUALIFIER (SUBFUNCTION)
                           00002B42  2B41   517 	.BLKB	1			;  FOR ALL TESTS
                                     2B42   518 TST$GB_RETURN::				; RETURN USERDATA QUALIFIER
                           00002B43  2B42   519 	.BLKB	1			;  FOR CONNECT AND DISCONNECT TESTS
                                     2B43   520 TST$GW_SIZE::				; MESSAGE SIZE QUALIFIER
                           00002B45  2B43   521 	.BLKW	1			;  FOR DATA AND INTERRUPT TESTS
                                     2B45   522 TST$GB_RQUEUE::				; DTR QUEUE QUALIFIER
                           00002B46  2B45   523 	.BLKB	1			;  FOR DATA AND INTERRUPT TESTS
                                     2B46   524 TST$GB_SQUEUE::				; DTS QUEUE QUALIFIER
                           00002B47  2B46   525 	.BLKB	1			;  FOR DATA AND INTERRUPT TESTS
                                     2B47   526 TST$GL_SECONDS::			; DURATION OF TEST IN SECONDS
                           00002B4B  2B47   527 	.BLKL	1			;  FOR DATA AND INTERRUPT TESTS
                                     2B4B   528 TST$GL_CLOCK::				;COUNTDOWN LOCATION FOR TIMEOUT AST
TST$DTGLOBAL    - GLOBAL STORAGE SECTION FOR DTS/DTR             22-AUG-1978 01:03:45   VAX-11 MACRO X0.3-11               Page  11
X0.1-9          DECLARATIONS                                                                                                     (2)

                           00002B4F  2B4B   529 	.BLKL	1
                                     2B4F   530 TST$GQ_NANOSEC::			; DURATION OF TEST IN 100
                  FFFFFFFF FF676980  2B4F   531 	.LONG	-10000000,-1			;  NANOSECOND UNITS
                                     2B57   532 TST$GB_FLOW::				; FLOW CONTROL QULAIFIER
                           00002B58  2B57   533 	.BLKB	1			;  FOR DATA TEST
                                     2B58   534 TST$GB_NAK::				; NAK CONTROL QUALIFIER
                           00002B59  2B58   535 	.BLKB	1			;  FOR DATA TEST
                                     2B59   536 TST$GB_BACK::				; BACK PRESSURE CONTROL QUALIFIER
                           00002B5A  2B59   537 	.BLKB	1			;  FOR DATA TEST
                                     2B5A   538 					;  ASSOCIATED QUALIFIER MAY APPEAR
                                     2B5A   539 					;  IN THE COMMAND
                                     2B5A   540
                                     2B5A   541 ;***********************************************************************
                                     2B5A   542 ; THE ORDER OF THE ENTRIES IN THE KEYWORD TABLES BELOW IS SIGNIFICANT!!
                                     2B5A   543 ;***********************************************************************
                                     2B5A   544
                                     2B5A   545 ;
                                     2B5A   546 ; QUALIFIER KEYWORD TABLE
                                     2B5A   547 ;
                                     2B5A   548 ; QUALIFIERS ARE IN ALPHABETICAL ORDER. IF ONE IS INSERTED OR DELETED,
                                     2B5A   549 ; BE SURE TO UPDATE THE APPROPRIATE CASE DISPATCH TABLE IN THE TST$PARSE
                                     2B5A   550 ; MODULE!!!
                                     2B5A   551 ;
                                     2B5A   552
                                     2B5A   553 TST$AZ_QUAL::				; QUALIFIER:
                           41 42 00' 2B5A   554 	.ASCIC	\BA\			; BACK
                                 02  2B5A
                              44 00' 2B5D   555 	.ASCIC	\D\			; DISPLAY
                                 01  2B5D
                              46 00' 2B5F   556 	.ASCIC	\F\			; FLOW
                                 01  2B5F
                              48 00' 2B61   557 	.ASCIC	\H\			; HOURS
                                 01  2B61
                              4D 00' 2B63   558 	.ASCIC	\M\			; MINUTES
                                 01  2B63
                           41 4E 00' 2B65   559 	.ASCIC	\NA\			; NAK
                                 02  2B65
                        42 4F 4E 00' 2B68   560 	.ASCIC	\NOB\			; NOBACK
                                 03  2B68
                     45 44 4F 4E 00' 2B6C   561 	.ASCIC	\NODE\			; NODENAME
                                 04  2B6C
                     49 44 4F 4E 00' 2B71   562 	.ASCIC	\NODI\			; NODISPLAY
                                 04  2B71
                        46 4F 4E 00' 2B76   563 	.ASCIC	\NOF\			; NOFLOW
                                 03  2B76
                        4E 4F 4E 00' 2B7A   564 	.ASCIC	\NON\			; NONAK
                                 03  2B7A
                        50 4F 4E 00' 2B7E   565 	.ASCIC	\NOP\			; NOPRINT
                                 03  2B7E
                        52 4F 4E 00' 2B82   566 	.ASCIC	\NOR\			; NORETURN
                                 03  2B82
                        53 4F 4E 00' 2B86   567 	.ASCIC	\NOS\			; NOSTATISTICS
                                 03  2B86
                              50 00' 2B8A   568 	.ASCIC	\P\			; PRINT
                                 01  2B8A
                           45 52 00' 2B8C   569 	.ASCIC	\RE\			; RETURN
                                 02  2B8C
TST$DTGLOBAL    - GLOBAL STORAGE SECTION FOR DTS/DTR             22-AUG-1978 01:03:45   VAX-11 MACRO X0.3-11               Page  12
X0.1-9          DECLARATIONS                                                                                                     (2)

                           51 52 00' 2B8F   570 	.ASCIC	\RQ\			; RQUEUE
                                 02  2B8F
                           45 53 00' 2B92   571 	.ASCIC	\SE\			; SECONDS
                                 02  2B92
                           49 53 00' 2B95   572 	.ASCIC	\SI\			; SIZE
                                 02  2B95
                           50 53 00' 2B98   573 	.ASCIC	\SP\			; SPEED
                                 02  2B98
                           51 53 00' 2B9B   574 	.ASCIC	\SQ\			; SQUEUE
                                 02  2B9B
                           54 53 00' 2B9E   575 	.ASCIC	\ST\			; STATISTICS
                                 02  2B9E
                              54 00' 2BA1   576 	.ASCIC	\T\			; TYPE
                                 01  2BA1
                                 00' 2BA3   577 	.ASCIC	\\			; END OF TABLE INDICATOR
                                 00  2BA3
                                     2BA4   578
                                     2BA4   579 ;
                                     2BA4   580 ; PARAMETER KEYWORD TABLE
                                     2BA4   581 ;
                                     2BA4   582
                                     2BA4   583 TST$AZ_PARAM::				; TEST TYPE PARAMETER:
                              43 00' 2BA4   584 	.ASCIC	\C\			; CONNECT
                                 01  2BA4
                           41 44 00' 2BA6   585 	.ASCIC	\DA\			; DATA
                                 02  2BA6
                           49 44 00' 2BA9   586 	.ASCIC	\DI\			; DISCONNECT
                                 02  2BA9
                              49 00' 2BAC   587 	.ASCIC	\I\			; INTERRUPT
                                 01  2BAC
                              4D 00' 2BAE   588 	.ASCIC	\M\			; MISCELLANEOUS
                                 01  2BAE
                                 00' 2BB0   589 	.ASCIC	\\			; END OF TABLE INDICATOR
                                 00  2BB0
                                     2BB1   590
                                     2BB1   591 ;
                                     2BB1   592 ; VALUE KEYWORD TABLE FOR TYPE (CONNECT) QUALIFIER
                                     2BB1   593 ;
                                     2BB1   594
                                     2BB1   595 TST$AZ_TYPE_CO::			; VALUE:
                              52 00' 2BB1   596 	.ASCIC	\R\			; REJECT
                                 01  2BB1
                              41 00' 2BB3   597 	.ASCIC	\A\			; ACCEPT
                                 01  2BB3
                                 00' 2BB5   598 	.ASCIC	\\			; END OF TABLE INDICATOR
                                 00  2BB5
                                     2BB6   599
                                     2BB6   600 ;
                                     2BB6   601 ; VALUE KEYWORD TABLE FOR TYPE (DISCONNECT) QUALIFIER
                                     2BB6   602 ;
                                     2BB6   603
                                     2BB6   604 TST$AZ_TYPE_DI::			; VALUE:
                              53 00' 2BB6   605 	.ASCIC	\S\			; SYNCHRONOUS
                                 01  2BB6
                              41 00' 2BB8   606 	.ASCIC	\A\			; ABORT
                                 01  2BB8
                                 00' 2BBA   607 	.ASCIC	\\			; END OF TABLE INDICATOR
TST$DTGLOBAL    - GLOBAL STORAGE SECTION FOR DTS/DTR             22-AUG-1978 01:03:45   VAX-11 MACRO X0.3-11               Page  13
X0.1-9          DECLARATIONS                                                                                                     (2)

                                 00  2BBA
                                     2BBB   608
                                     2BBB   609 ;
                                     2BBB   610 ; VALUE KEYWORD TABLE FOR TYPE (DATA) QUALIFIER
                                     2BBB   611 ;
                                     2BBB   612
                                     2BBB   613 TST$AZ_TYPE_DA::			; VALUE:
                           49 53 00' 2BBB   614 	.ASCIC	\SI\			; SINK
                                 02  2BBB
                           45 53 00' 2BBE   615 	.ASCIC	\SE\			; SEQUENCE
                                 02  2BBE
                              50 00' 2BC1   616 	.ASCIC	\P\			; PATTERN
                                 01  2BC1
                              45 00' 2BC3   617 	.ASCIC	\E\			; ECHO
                                 01  2BC3
                                 00' 2BC5   618 	.ASCIC	\\			; END OF TABLE INDICATOR
                                 00  2BC5
                                     2BC6   619
                                     2BC6   620 ;
                                     2BC6   621 ; VALUE KEYWORD TABLE FOR TYPE (INTERRUPT) QUALIFIER
                                     2BC6   622 ;
                                     2BC6   623
                                     2BC6   624 TST$AZ_TYPE_IN::			; VALUE:
                           49 53 00' 2BC6   625 	.ASCIC	\SI\			; SINK
                                 02  2BC6
                           45 53 00' 2BC9   626 	.ASCIC	\SE\			; SEQUENCE
                                 02  2BC9
                              50 00' 2BCC   627 	.ASCIC	\P\			; PATTERN
                                 01  2BCC
                              45 00' 2BCE   628 	.ASCIC	\E\			; ECHO
                                 01  2BCE
                                 00' 2BD0   629 	.ASCIC	\\			; END OF TABLE INDICATOR
                                 00  2BD0
                                     2BD1   630
                                     2BD1   631 ;
                                     2BD1   632 ; VALUE KEYWORD TABLE FOR TYPE (MISCELLANEOUS) QUALIFIER
                                     2BD1   633 ;
                                     2BD1   634
                                     2BD1   635 TST$AZ_TYPE_MI::			; VALUE:
                              4E 00' 2BD1   636 	.ASCIC	\N\			; ILLEGAL NODENAME
                                 01  2BD1
                              4F 00' 2BD3   637 	.ASCIC	\O\			; NON-EXISTANT OBJECTTYPE
                                 01  2BD3
                              4C 00' 2BD5   638 	.ASCIC	\L\			; INVALID LOGICAL LINK ADDRESS
                                 01  2BD5
                                 00' 2BD7   639 	.ASCIC	\\			; END OF TABLE INDICATOR
                                 00  2BD7
                                     2BD8   640
                                     2BD8   641 ;
                                     2BD8   642 ; VALUE KEYWORD TABLE FOR RETURN QUALIFIER
                                     2BD8   643 ;
                                     2BD8   644
                                     2BD8   645 TST$AZ_RETURN::				; VALUE:
                              53 00' 2BD8   646 	.ASCIC	\S\			; STANDARD
                                 01  2BD8
                              52 00' 2BDA   647 	.ASCIC	\R\			; RECEIVED
                                 01  2BDA
TST$DTGLOBAL    - GLOBAL STORAGE SECTION FOR DTS/DTR             22-AUG-1978 01:03:45   VAX-11 MACRO X0.3-11               Page  14
X0.1-9          DECLARATIONS                                                                                                     (2)

                                 00' 2BDC   648 	.ASCIC	\\			; END OF TABLE INDICATOR
                                 00  2BDC
                                     2BDD   649
                                     2BDD   650 ;
                                     2BDD   651 ; VALUE KEYWORD TABLE FOR FLOW QUALIFIER
                                     2BDD   652 ;
                                     2BDD   653
                                     2BDD   654 TST$AZ_FLOW::				; VALUE:
                              53 00' 2BDD   655 	.ASCIC	\S\			; SEGMENT
                                 01  2BDD
                              4D 00' 2BDF   656 	.ASCIC	\M\			; MESSAGE
                                 01  2BDF
                                 00' 2BE1   657 	.ASCIC	\\			; END OF TABLE INDICATOR
                                 00  2BE1
                                     2BE2   658 	.END
TST$DTGLOBAL    - GLOBAL STORAGE SECTION FOR DTS/DTR             22-AUG-1978 01:03:45   VAX-11 MACRO X0.3-11               Page  15
SYMBOL TABLE                                                                                                                     (2)

$$.TAB         = 00002480 R     02   FAB$C_REL      = 00000010            FAB$M_SHRPUT   = 00000001
$$.TABEND      = 000024C4 R     02   FAB$C_RFM_DFLT = 00000002            FAB$M_SHRUPD   = 00000008
$$.TMP         = 00000000            FAB$C_SEQ      = 00000000            FAB$M_SPL      = 00002000
$$ARGS         = 0000000C            FAB$C_UDF      = 00000000            FAB$M_SQO      = 00000040
$$T1           = 00000034            FAB$C_VAR      = 00000002            FAB$M_SUP      = 00000004
BIT...         = 00000020            FAB$C_VFC      = 00000003            FAB$M_TEF      = 10000000
DFT_K_BACK     = 00000000            FAB$K_BLN        00000050            FAB$M_TMD      = 00000010
DFT_K_DISPLAY  = 00000000            FAB$L_ALQ        00000010            FAB$M_TMP      = 00000008
DFT_K_FLOW     = 00000002            FAB$L_CTX        00000018            FAB$M_TRN      = 00000010
DFT_K_NAK      = 00000000            FAB$L_DEV        00000040            FAB$M_UFM      = 04000000
DFT_K_PRINT    = 00000000            FAB$L_DNA        00000030            FAB$M_UFO      = 00020000
DFT_K_RETURN_CO= 00000000            FAB$L_FNA        0000002C            FAB$M_UPD      = 00000008
DFT_K_RETURN_DI= 00000000            FAB$L_FOP        00000004            FAB$M_UPI      = 00000040
DFT_K_RQUEUE_DA= 00000001            FAB$L_JNL        00000020            FAB$M_WCK      = 00000200
DFT_K_RQUEUE_IN= 00000001            FAB$L_MRN        00000038            FAB$S_ORG      = 00000004
DFT_K_SIZE_DA  = 00000080            FAB$L_NAM        00000028            FAB$S_PPF_RAT  = 00000008
DFT_K_SIZE_IN  = 00000010            FAB$L_SDC        00000044            FAB$V_BIO      = 00000005
DFT_K_SPEED    = 000F4240            FAB$L_STS        00000008            FAB$V_BLK      = 00000003
DFT_K_SQUEUE_DA= 00000001            FAB$L_STV        0000000C            FAB$V_BRO      = 00000006
DFT_K_SQUEUE_IN= 00000001            FAB$L_XAB        00000024            FAB$V_CBT      = 00000015
DFT_K_STAT     = 00000001            FAB$M_BIO      = 00000020            FAB$V_CIF      = 00000019
DFT_K_TIME_DA  = 0000001E            FAB$M_BLK      = 00000008            FAB$V_CR       = 00000001
DFT_K_TIME_IN  = 0000001E            FAB$M_BRO      = 00000040            FAB$V_CTG      = 00000014
DFT_K_TYPE_CO  = 00000001            FAB$M_CBT      = 00200000            FAB$V_DEL      = 00000002
DFT_K_TYPE_DA  = 00000000            FAB$M_CIF      = 02000000            FAB$V_DFW      = 00000005
DFT_K_TYPE_DI  = 00000001            FAB$M_CR       = 00000002            FAB$V_DLT      = 0000000F
DFT_K_TYPE_IN  = 00000000            FAB$M_CTG      = 00100000            FAB$V_DMO      = 0000000C
DFT_K_TYPE_MI  = 00000000            FAB$M_DEL      = 00000004            FAB$V_ESC      = 0000001B
EFN_K_CONN_ACCE= 00000001            FAB$M_DFW      = 00000020            FAB$V_EXE      = 00000007
EFN_K_CONN_INIT= 00000001            FAB$M_DLT      = 00008000            FAB$V_FTN      = 00000000
EFN_K_CONN_REJE= 00000002            FAB$M_DMO      = 00001000            FAB$V_GET      = 00000001
EFN_K_DISC_ABRT= 00000004            FAB$M_ESC      = 08000000            FAB$V_INP      = 00000013
EFN_K_DISC_SYNC= 00000003            FAB$M_EXE      = 00000080            FAB$V_JNL      = 00000016
EFN_K_READ_MAIL= 00000000            FAB$M_FTN      = 00000001            FAB$V_KFO      = 0000001E
EFN_K_RECV_DATA= 00000007            FAB$M_GET      = 00000002            FAB$V_MSE      = 00000004
EFN_K_SIGNAL   = 00000009            FAB$M_INP      = 00080000            FAB$V_MXV      = 00000001
EFN_K_TIMER    = 00000008            FAB$M_JNL      = 00400000            FAB$V_NAM      = 00000018
EFN_K_XMIT_DATA= 00000005            FAB$M_KFO      = 40000000            FAB$V_NEF      = 0000000A
EFN_K_XMIT_INTE= 00000006            FAB$M_MSE      = 00000010            FAB$V_NFS      = 00000010
FAB$B_BID        00000000            FAB$M_MXV      = 00000002            FAB$V_NIL      = 00000005
FAB$B_BKS        0000003E            FAB$M_NAM      = 01000000            FAB$V_OFP      = 0000001D
FAB$B_BLN        00000001            FAB$M_NEF      = 00000400            FAB$V_ORG      = 00000004
FAB$B_DNS        00000035            FAB$M_NFS      = 00010000            FAB$V_POS      = 00000008
FAB$B_FAC        00000016            FAB$M_NIL      = 00000020            FAB$V_PPF      = 00000012
FAB$B_FNS        00000034            FAB$M_OFP      = 20000000            FAB$V_PPF_IND  = 0000000E
FAB$B_FSZ        0000003F            FAB$M_POS      = 00000100            FAB$V_PPF_RAT  = 00000006
FAB$B_ORG        0000001D            FAB$M_PPF      = 00040000            FAB$V_PRN      = 00000002
FAB$B_RAT        0000001E            FAB$M_PPF_IND  = 00004000            FAB$V_PUT      = 00000000
FAB$B_RFM        0000001F            FAB$M_PPF_RAT  = 00003FC0            FAB$V_RCK      = 00000017
FAB$B_RTV        0000001C            FAB$M_PRN      = 00000004            FAB$V_RWC      = 0000000B
FAB$B_SHR        00000017            FAB$M_PUT      = 00000001            FAB$V_RWO      = 00000007
FAB$C_BID      = 00000003            FAB$M_RCK      = 00800000            FAB$V_SCF      = 0000000E
FAB$C_BLN        00000050            FAB$M_RWC      = 00000800            FAB$V_SHRDEL   = 00000002
FAB$C_FIX      = 00000001            FAB$M_RWO      = 00000080            FAB$V_SHRGET   = 00000001
FAB$C_HSH      = 00000030            FAB$M_SCF      = 00004000            FAB$V_SHRPUT   = 00000000
FAB$C_IDX      = 00000020            FAB$M_SHRDEL   = 00000004            FAB$V_SHRUPD   = 00000003
FAB$C_MAXRFM   = 00000003            FAB$M_SHRGET   = 00000002            FAB$V_SPL      = 0000000D
TST$DTGLOBAL    - GLOBAL STORAGE SECTION FOR DTS/DTR             22-AUG-1978 01:03:45   VAX-11 MACRO X0.3-11               Page  16
SYMBOL TABLE                                                                                                                     (2)

FAB$V_SQO      = 00000006            IO$V_ACCESS    = 00000006            IO$_READPROMPT = 00000037
FAB$V_SUP      = 00000002            IO$V_ATTNAST   = 00000008            IO$_READTRACKD = 00000010
FAB$V_TEF      = 0000001C            IO$V_BINARY    = 00000006            IO$_READVBLK   = 00000031
FAB$V_TMD      = 00000004            IO$V_CANCTRLO  = 00000006            IO$_RECAL      = 00000003
FAB$V_TMP      = 00000003            IO$V_COMMOD    = 00000006            IO$_RELEASE    = 00000005
FAB$V_TRN      = 00000004            IO$V_CREATE    = 00000007            IO$_RETCENTER  = 00000007
FAB$V_UFM      = 0000001A            IO$V_CTRLCAST  = 00000008            IO$_REWIND     = 00000024
FAB$V_UFO      = 00000011            IO$V_CTRLYAST  = 00000007            IO$_REWINDOFF  = 00000022
FAB$V_UPD      = 00000003            IO$V_CVTLOW    = 00000008            IO$_SEARCH     = 00000009
FAB$V_UPI      = 00000006            IO$V_DATACHECK = 0000000E            IO$_SEEK       = 00000002
FAB$V_WCK      = 00000009            IO$V_DELETE    = 00000008            IO$_SENSECHAR  = 0000001B
FAB$W_BLS        0000003C            IO$V_DMOUNT    = 0000000A            IO$_SENSEMODE  = 00000027
FAB$W_DEQ        00000014            IO$V_DSABLMBX  = 0000000A            IO$_SETCHAR    = 0000001A
FAB$W_IFI        00000002            IO$V_ENABLMBX  = 00000007            IO$_SETMODE    = 00000023
FAB$W_MRS        00000036            IO$V_FCODE     = 00000000            IO$_SKIPFILE   = 00000025
GBL...         = 00000000            IO$V_HANGUP    = 00000009            IO$_SKIPRECORD = 00000026
IO$M_ABORT     = 00000100            IO$V_INHERLOG  = 0000000B            IO$_SPACEFILE  = 00000002
IO$M_ACCESS    = 00000040            IO$V_INHEXTGAP = 0000000C            IO$_SPACERECORD= 00000009
IO$M_ATTNAST   = 00000100            IO$V_INHRETRY  = 0000000F            IO$_STARTSPNDL = 00000019
IO$M_BINARY    = 00000040            IO$V_INHSEEK   = 0000000C            IO$_UNLOAD     = 00000001
IO$M_CANCTRLO  = 00000040            IO$V_INTERRUPT = 00000006            IO$_VIRTUAL    = 0000003F
IO$M_COMMOD    = 00000040            IO$V_INTSKIP   = 00000008            IO$_WRITECHECK = 0000000A
IO$M_CREATE    = 00000080            IO$V_MOUNT     = 00000009            IO$_WRITECHECKH= 00000018
IO$M_CTRLCAST  = 00000100            IO$V_NOECHO    = 00000006            IO$_WRITEHEAD  = 0000000D
IO$M_CTRLYAST  = 00000080            IO$V_NOFILTR   = 00000009            IO$_WRITELBLK  = 00000020
IO$M_CVTLOW    = 00000100            IO$V_NOFORMAT  = 00000008            IO$_WRITEMARK  = 0000001C
IO$M_DATACHECK = 00004000            IO$V_NOW       = 00000006            IO$_WRITEOF    = 00000028
IO$M_DELETE    = 00000100            IO$V_NOWAIT    = 00000007            IO$_WRITEPBLK  = 0000000B
IO$M_DMOUNT    = 00000400            IO$V_PACKED    = 00000007            IO$_WRITETRACKD= 0000000F
IO$M_DSABLMBX  = 00000400            IO$V_PURGE     = 0000000B            IO$_WRITEVBLK  = 00000030
IO$M_ENABLMBX  = 00000080            IO$V_READATTN  = 00000007            K_CMDNAME      = 00000009
IO$M_FCODE     = 0000003F            IO$V_REVERSE   = 00000006            K_LIST_MEB     = 00000000
IO$M_HANGUP    = 00000200            IO$V_SHUTDOWN  = 00000007            K_PMTBUF       = 0000000C
IO$M_INHERLOG  = 00000800            IO$V_STARTUP   = 00000006            K_PRTNAME      = 0000000A
IO$M_INHEXTGAP = 00001000            IO$V_SYNCH     = 00000009            MAX_K_BACK     = 00000080
IO$M_INHRETRY  = 00008000            IO$V_TIMED     = 00000007            MAX_K_DISPLAY  = 00000026
IO$M_INHSEEK   = 00001000            IO$V_TRMNOECHO = 0000000C            MAX_K_NAK      = 00000080
IO$M_INTERRUPT = 00000040            IO$V_WRTATTN   = 00000008            MAX_K_RQUEUE_DA= 00000008
IO$M_INTSKIP   = 00000100            IO$_ACCESS     = 00000032            MAX_K_RQUEUE_IN= 00000008
IO$M_MOUNT     = 00000200            IO$_ACPCONTROL = 00000038            MAX_K_SIZE_DA  = 00001000
IO$M_NOECHO    = 00000040            IO$_CREATE     = 00000033            MAX_K_SIZE_IN  = 00000010
IO$M_NOFILTR   = 00000200            IO$_DEACCESS   = 00000034            MAX_K_SPEED    = 000F4240
IO$M_NOFORMAT  = 00000100            IO$_DELETE     = 00000035            MAX_K_SQUEUE_DA= 00000008
IO$M_NOW       = 00000040            IO$_DIAGNOSE   = 0000001D            MAX_K_SQUEUE_IN= 00000008
IO$M_NOWAIT    = 00000080            IO$_DRVCLR     = 00000004            MAX_K_TIME_DA  = 00057E40
IO$M_PACKED    = 00000080            IO$_ERASETAPE  = 00000006            MAX_K_TIME_IN  = 00057E40
IO$M_PURGE     = 00000800            IO$_LOGICAL    = 0000002F            QIO$_ASTADR    = 00000014
IO$M_READATTN  = 00000080            IO$_MODIFY     = 00000036            QIO$_ASTPRM    = 00000018
IO$M_REVERSE   = 00000040            IO$_MOUNT      = 00000039            QIO$_CHAN      = 00000008
IO$M_SHUTDOWN  = 00000080            IO$_NOP        = 00000000            QIO$_EFN       = 00000004
IO$M_STARTUP   = 00000040            IO$_OFFSET     = 00000006            QIO$_FUNC      = 0000000C
IO$M_SYNCH     = 00000200            IO$_PACKACK    = 00000008            QIO$_IOSB      = 00000010
IO$M_TIMED     = 00000080            IO$_PHYSICAL   = 0000001F            QIO$_NARGS     = 0000000C
IO$M_TRMNOECHO = 00001000            IO$_READHEAD   = 0000000E            QIO$_P1        = 0000001C
IO$M_WRTATTN   = 00000100            IO$_READLBLK   = 00000021            QIO$_P2        = 00000020
IO$S_FCODE     = 00000006            IO$_READPBLK   = 0000000C            QIO$_P3        = 00000024
IO$V_ABORT     = 00000008            IO$_READPRESET = 00000019            QIO$_P4        = 00000028
TST$DTGLOBAL    - GLOBAL STORAGE SECTION FOR DTS/DTR             22-AUG-1978 01:03:45   VAX-11 MACRO X0.3-11               Page  17
SYMBOL TABLE                                                                                                                     (2)

QIO$_P5        = 0000002C            RAB$M_TPT      = 00000002            TST$GB_MAILBUF   000001C8 RG    02
QIO$_P6        = 00000030            RAB$M_UIF      = 00000010            TST$GB_NAK       00002B58 RG    02
RAB$B_BID        00000000            RAB$M_ULK      = 00040000            TST$GB_NCB     = 000029EA RG    02
RAB$B_BLN        00000001            RAB$M_WAT      = 00020000            TST$GB_PMTBUF    00002421 RG    02
RAB$B_KRF        00000035            RAB$M_WBH      = 00000400            TST$GB_PRINT     00002B3B RG    02
RAB$B_KSZ        00000034            RAB$S_PPF_RAT  = 00000008            TST$GB_PRTBUF  = 000024D6 RG    02
RAB$B_MBC        00000037            RAB$V_ASY      = 00000000            TST$GB_RECVBUF   00001208 RG    02
RAB$B_MBF        00000036            RAB$V_BIO      = 0000000B            TST$GB_RETURN    00002B42 RG    02
RAB$B_PSZ        00000034            RAB$V_CCO      = 0000001F            TST$GB_RQUEUE    00002B45 RG    02
RAB$B_RAC        0000001E            RAB$V_CVT      = 0000001A            TST$GB_SQUEUE    00002B46 RG    02
RAB$B_ROP1       00000005            RAB$V_EOF      = 00000008            TST$GB_STAT      00002B40 RG    02
RAB$B_ROP2       00000006            RAB$V_FDL      = 00000006            TST$GB_TEST      00002B2E RG    02
RAB$B_ROP3       00000007            RAB$V_HSH      = 00000007            TST$GB_TYPE      00002B41 RG    02
RAB$B_TMO        0000001F            RAB$V_KGE      = 00000015            TST$GB_XMITBUF   00000208 RG    02
RAB$C_BID      = 00000001            RAB$V_KGT      = 00000016            TST$GL_CLOCK     00002B4B RG    02
RAB$C_BLN        00000044            RAB$V_LIM      = 0000000E            TST$GL_DTERROR   000029A0 RG    02
RAB$C_KEY      = 00000001            RAB$V_LOA      = 0000000D            TST$GL_FAOARG    000029A8 RG    02
RAB$C_RFA      = 00000002            RAB$V_LOC      = 00000010            TST$GL_RECVDATA  000029C6 RG    02
RAB$C_SEQ      = 00000000            RAB$V_MAS      = 00000005            TST$GL_RECVINTE  000029CE RG    02
RAB$K_BLN        00000044            RAB$V_NLK      = 00000014            TST$GL_SECONDS   00002B47 RG    02
RAB$L_BKT        00000038            RAB$V_NXR      = 00000017            TST$GL_SPEED     00002B3C RG    02
RAB$L_CTX        00000018            RAB$V_PMT      = 0000001E            TST$GL_STATUS    000029D2 RG    02
RAB$L_DCT        00000038            RAB$V_PPF_IND  = 0000000E            TST$GL_VALID     00002B2F RG    02
RAB$L_FAB        0000003C            RAB$V_PPF_RAT  = 00000006            TST$GL_XMITDATA  000029C2 RG    02
RAB$L_KBF        00000030            RAB$V_PTA      = 0000001D            TST$GL_XMITINTE  000029CA RG    02
RAB$L_PBF        00000030            RAB$V_RAH      = 00000009            TST$GQ_ACCESS    00002A29 RG    02
RAB$L_RBF        00000028            RAB$V_RLK      = 00000013            TST$GQ_CALLER    000026F9 RG    02
RAB$L_RFA0       00000010            RAB$V_RNE      = 00000018            TST$GQ_COMPLETE  0000273D RG    02
RAB$L_RHB        0000002C            RAB$V_RNF      = 0000001B            TST$GQ_DEACCESS  00002A31 RG    02
RAB$L_ROP        00000004            RAB$V_TMO      = 00000019            TST$GQ_DISPLAY   0000279A RG    02
RAB$L_STS        00000008            RAB$V_TPT      = 00000001            TST$GQ_DTRDESC   000029B7 RG    02
RAB$L_STV        0000000C            RAB$V_UIF      = 00000004            TST$GQ_FACDESC   000029AC RG    02
RAB$L_UBF        00000024            RAB$V_ULK      = 00000012            TST$GQ_INIT      000026D8 RG    02
RAB$M_ASY      = 00000001            RAB$V_WAT      = 00000011            TST$GQ_INTEIOSB  000001B8 RG    02
RAB$M_BIO      = 00000800            RAB$V_WBH      = 0000000A            TST$GQ_LINKIOSB  000001A8 RG    02
RAB$M_CCO      = 80000000            RAB$W_ISI        00000002            TST$GQ_LINKNAME  0000224B RG    02
RAB$M_CVT      = 04000000            RAB$W_RFA        00000010            TST$GQ_MAILIOSB  000001A0 RG    02
RAB$M_EOF      = 00000100            RAB$W_RFA4       00000014            TST$GQ_MAIL_DTR  00002234 RG    02
RAB$M_FDL      = 00000040            RAB$W_RSZ        00000022            TST$GQ_MAIL_DTS  0000221D RG    02
RAB$M_HSH      = 00000080            RAB$W_USZ        00000020            TST$GQ_NANOSEC   00002B4F RG    02
RAB$M_KGE      = 00200000            TST$AZ_FLOW      00002BDD RG    02   TST$GQ_NCB       000029E2 RG    02
RAB$M_KGT      = 00400000            TST$AZ_PARAM     00002BA4 RG    02   TST$GQ_PARSE     00002776 RG    02
RAB$M_LIM      = 00004000            TST$AZ_QUAL      00002B5A RG    02   TST$GQ_PRTBUF    000024CE RG    02
RAB$M_LOA      = 00002000            TST$AZ_RETURN    00002BD8 RG    02   TST$GQ_RECVIOSB  000001C0 RG    02
RAB$M_LOC      = 00010000            TST$AZ_TYPE_CO   00002BB1 RG    02   TST$GQ_STAT1     000027B3 RG    02
RAB$M_MAS      = 00000020            TST$AZ_TYPE_DA   00002BBB RG    02   TST$GQ_STAT2     0000283E RG    02
RAB$M_NLK      = 00100000            TST$AZ_TYPE_DI   00002BB6 RG    02   TST$GQ_STAT3     00002915 RG    02
RAB$M_NXR      = 00800000            TST$AZ_TYPE_IN   00002BC6 RG    02   TST$GQ_SYSNAME   00002258 RG    02
RAB$M_PMT      = 40000000            TST$AZ_TYPE_MI   00002BD1 RG    02   TST$GQ_TERM      0000271F RG    02
RAB$M_PPF_IND  = 00004000            TST$CMDFAB       00002300 RG    02   TST$GQ_XMITIOSB  000001B0 RG    02
RAB$M_PPF_RAT  = 00003FC0            TST$CMDRAB       00002350 RG    02   TST$GT_CMDNAME   00002394 RG    02
RAB$M_PTA      = 20000000            TST$GB_ASTFLAGS  0000221C RG    02   TST$GT_CONN      00002A82 RG    02
RAB$M_RAH      = 00000200            TST$GB_BACK      00002B59 RG    02   TST$GT_DATA      00002A8A RG    02
RAB$M_RLK      = 00080000            TST$GB_CMDBUF    0000239D RG    02   TST$GT_DEV_NAME  00002ADE RG    02
RAB$M_RNE      = 01000000            TST$GB_DISPLAY   00002B33 RG    02   TST$GT_DISC      00002A8F RG    02
RAB$M_RNF      = 08000000            TST$GB_FLOW      00002B57 RG    02   TST$GT_DTR       00002997 RG    02
RAB$M_TMO      = 02000000            TST$GB_INTEBUF   00002208 RG    02   TST$GT_DTS       00002992 RG    02
TST$DTGLOBAL    - GLOBAL STORAGE SECTION FOR DTS/DTR             22-AUG-1978 01:03:45   VAX-11 MACRO X0.3-11               Page  18
SYMBOL TABLE                                                                                                                     (2)

TST$GT_DTSMSG    0000299C RG    02   VAL_K_DISP_NO  = 00000000
TST$GT_ERROR     00002AB2 RG    02   VAL_K_FLOW_MESS= 00000002
TST$GT_INTE      00002A9A RG    02   VAL_K_FLOW_NO  = 00000000
TST$GT_KEYWORD   000029D6 RG    02   VAL_K_FLOW_SEGM= 00000001
TST$GT_MAILDATA  00002AEE RG    02   VAL_K_NAK_NO   = 00000000
TST$GT_MISC      00002AA4 RG    02   VAL_K_PRIN_NO  = 00000000
TST$GT_NODENAME  00002B34 RG    02   VAL_K_PRIN_YES = 00000080
TST$GT_OBJTYPE   00002A39 RG    02   VAL_K_RETU_NO  = 00000000
TST$GT_OBJTYPE1  00002A3D RG    02   VAL_K_RETU_RECE= 00000004
TST$GT_OBJTYPE2  00002A43 RG    02   VAL_K_RETU_STAN= 00000002
TST$GT_PRTNAME   000024C4 RG    02   VAL_K_STAT_NO  = 00000000
TST$GT_RECV      00002ACF RG    02   VAL_K_STAT_YES = 00000001
TST$GT_STANDARD  00002A5D RG    02   VAL_K_TEST_CONN= 00000000
TST$GT_USERDATA  00002A4C RG    02   VAL_K_TEST_DATA= 00000001
TST$GT_VALUE     000029DA RG    02   VAL_K_TEST_DISC= 00000002
TST$GT_VERSION   00002AB7 RG    02   VAL_K_TEST_INTE= 00000003
TST$GT_XMIT      00002AC4 RG    02   VAL_K_TEST_MISC= 00000004
TST$GW_DEV_UNIT  00002ADC RG    02   VAL_K_TYPE_ABRT= 00000001
TST$GW_LINKCHAN  0000221A RG    02   VAL_K_TYPE_ACCE= 00000001
TST$GW_MAILCHAN  00002218 RG    02   VAL_K_TYPE_ECHO= 00000003
TST$GW_MAILCODE  00002ADA RG    02   VAL_K_TYPE_NAME= 00000000
TST$GW_PRTLEN    000026D6 RG    02   VAL_K_TYPE_PATT= 00000002
TST$GW_SIZE      00002B43 RG    02   VAL_K_TYPE_REJE= 00000000
TST$INTEAST_DTR  ********W G    02   VAL_K_TYPE_SEQU= 00000001
TST$INTEAST_DTS  ********W G    02   VAL_K_TYPE_SINK= 00000000
TST$K_CMDBUF   = 00000084  G         VAL_K_TYPE_SYNC= 00000000
TST$K_INTEBUF  = 00000010  G
TST$K_MAILBUF  = 00000040  G
TST$K_MAILPROT = 00000000  G
TST$K_MAILQUOTA= 00000200  G
TST$K_PRTBUF   = 00000200  G
TST$K_RECVBUF  = 00001000  G
TST$K_XMITBUF  = 00001000  G
TST$MAILAST_DTR  ********W G    02
TST$MAILAST_DTS  ********W G    02
TST$PARAMETER    00000000 RG    02
TST$PRTFAB       00002430 RG    02
TST$PRTRAB       00002480 RG    02
TST$QBR_RCVDATA  000022BB RG    02
TST$QBR_RCVMAIL  000022CF RG    02
TST$QBR_XMTDATA  000022A7 RG    02
TST$QBR_XMTINT   000022E3 RG    02
TST$QB_ASTADR  = 0000000C  G
TST$QB_BLINK   = 00000004  G
TST$QB_BUFLEN  = 00000010  G
TST$QB_CODE    = 00000008  G
TST$QB_FLINK   = 00000000  G
TST$QB_QHEAD     000022F7 RG    02
TST$QB_RCVDATA   00002277 RG    02
TST$QB_RCVMAIL   00002287 RG    02
TST$QB_XMTDATA   00002267 RG    02
TST$QB_XMTINT    00002297 RG    02
TST$RECVAST_DTR  ********W G    02
TST$RECVAST_DTS  ********W G    02
TST$XMITAST_DTR  ********W G    02
TST$XMITAST_DTS  ********W G    02
VAL_K_BACK_NO  = 00000000
TST$DTGLOBAL    - GLOBAL STORAGE SECTION FOR DTS/DTR             22-AUG-1978 01:03:45   VAX-11 MACRO X0.3-11               Page  19
PROGRAM SECTION SYNOPSIS                                                                                                         (2)


PROGRAM SECTION SYNOPSIS

.  ABS  .        00000000      00     NOPIC   USR   CON   ABS   LCL NOSHR NOEXE NORD  NOWRT BYTE
. BLANK .        00000000      01     NOPIC   USR   CON   REL   LCL NOSHR   EXE   RD    WRT BYTE
TST$IMPURE       00002BE2      02     NOPIC   USR   CON   REL   LCL NOSHR NOEXE   RD    WRT LONG
$ABS$            00000050      03     NOPIC   USR   CON   ABS   LCL NOSHR   EXE   RD    WRT BYTE


THERE WERE NO ERRORS OR WARNINGS.
6362. BYTES LEFT IN FREE MEMORY POOL.
28. BYTES OF RECLAIMED MEMORY.
OBJ$:DTGLOBAL,LIS$:DTGLOBAL/-SP=SRC$:DTPREFIX,DTGLOBAL
58 MLB DIR RDS - 810 GETS TO DEFINE 31 MACROS. 85 INTER. FILE WRITES.
