TST$DTRAST      - DTR AST ROUTINES                               22-AUG-1978 01:08:56   VAX-11 MACRO X0.3-11               Page   0
TABLE OF CONTENTS

   (2)      92  DECLARATIONS
   (3)     115  TST$RECVAST_DTR - RECEIVE DATA MESSAGE AST ROUT
   (4)     192  TST$XMITAST_DTR - TRANSMIT DATA MESSAGE AST ROU
   (5)     236  TST$MAILAST_DTR - READ MAILBOX AST ROUTINE
   (6)     320  TST$INTEAST_DTR - TRANSMIT INTERRUPT MESSAGE AS
TST$DTRAST      - DTR AST ROUTINES                               22-AUG-1978 01:08:56   VAX-11 MACRO X0.3-11               Page   1
X0.1-3                                                                                                                           (1)

                                     0000     1 	.TITLE	TST$DTRAST - DTR AST ROUTINES
                                     0000     2 	.IDENT	/X0.1-3/
                                     0000     3
                                     0000     4 ;
                                     0000     5 ;			  COPYRIGHT (c) 1977, 1978 BY
                                     0000     6 ;	      DIGITAL EQUIPMENT CORPORATION, MAYNARD, MASS.
                                     0000     7 ;
                                     0000     8 ; THIS SOFTWARE IS FURNISHED UNDER A LICENSE AND MAY BE USED AND  COPIED
                                     0000     9 ; ONLY  IN  ACCORDANCE  WITH  THE  TERMS  OF  SUCH  LICENSE AND WITH THE
                                     0000    10 ; INCLUSION OF THE ABOVE COPYRIGHT NOTICE.  THIS SOFTWARE OR  ANY  OTHER
                                     0000    11 ; COPIES  THEREOF MAY NOT BE PROVIDED OR OTHERWISE MADE AVAILABLE TO ANY
                                     0000    12 ; OTHER PERSON.  NO TITLE TO AND OWNERSHIP OF  THE  SOFTWARE  IS  HEREBY
                                     0000    13 ; TRANSFERRED.
                                     0000    14 ;
                                     0000    15 ; THE INFORMATION IN THIS SOFTWARE IS SUBJECT TO CHANGE  WITHOUT  NOTICE
                                     0000    16 ; AND  SHOULD  NOT  BE  CONSTRUED  AS  A COMMITMENT BY DIGITAL EQUIPMENT
                                     0000    17 ; CORPORATION.
                                     0000    18 ;
                                     0000    19 ; DIGITAL ASSUMES NO RESPONSIBILITY FOR THE USE OR  RELIABILITY  OF  ITS
                                     0000    20 ; SOFTWARE ON EQUIPMENT WHICH IS NOT SUPPLIED BY DIGITAL.
                                     0000    21 ;
                                     0000    22
                                     0000    23 ;++
                                     0000    24 ; FACILITY: DTS/DTR DECNET TEST PACKAGE
                                     0000    25 ;
                                     0000    26 ; ABSTRACT: THIS MODULE CONTAINS QIO AND TIMER AST ROUTINES FOR DTR.
                                     0000    27 ;
                                     0000    28 ; ENVIRONMENT: DTR RUNS IN USER MODE AND REQUIRES NETWORK PRIVILEGE.
                                     0000    29 ;
                                     0000    30 ; AUTHOR: JAMES A. KRYCKA,	CREATION DATE: 7-DEC-77
                                     0000    31 ;
                                     0000    32 ; MODIFICATIONS:
                                     0000    33 ;
                                     0000    34 ;--
TST$DTRAST      - DTR AST ROUTINES                               22-AUG-1978 01:08:56   VAX-11 MACRO X0.3-11               Page   2
X0.1-3          DECLARATIONS                                                                                                     (2)

                                     0000    36 	.SBTTL	DECLARATIONS
                                     0000    37
                                     0000    38 ;
                                     0000    39 ; INCLUDE FILES:
                                     0000    40 ;
                                     0000    41 	$DTSDEF
                                     0000    42 	CMDDEF				; DEFINE COMMAND LANGUAGE SYMBOLS
                                     0000    43 	EFNDEF				; DEFINE EFN'S AND FUNCTION CODES
                                     0000    44 	$MSGDEF				; DEFINE MAILBOX MESSAGE ID CODES
                                     0000    45 	.IIF NE	K_LIST_MEB, .LIST MEB	; DEFINED IN DTPREFIX.MAR
                                     0000    46 ;
                                     0000    47 ; MACROS:
                                     0000    48 ;
                                     0000    49 ;	NONE
                                     0000    50 ;
                                     0000    51 ; EQUATED SYMBOLS:
                                     0000    52 ;
                                     0000    53 ;	NONE
                                     0000    54 ;
                                     0000    55 ; OWN STORAGE:
                                     0000    56 ;
                                     0000    57 ;	NONE
TST$DTRAST      - DTR AST ROUTINES                               22-AUG-1978 01:08:56   VAX-11 MACRO X0.3-11               Page   3
X0.1-3          TST$RECVAST_DTR - RECEIVE DATA MESSAGE AST ROUT                                                                  (3)

                                     0000    59 	.SBTTL	TST$RECVAST_DTR - RECEIVE DATA MESSAGE AST ROUTINE
                                 00000000    60 	.PSECT	TST$CODE	NOWRT
                                     0000    61 RA::					; SYMBOL FOR DEBUGGING PURPOSES
                                     0000    62
                                     0000    63 ;++
                                     0000    64 ; FUNCTIONAL DESCRIPTION:
                                     0000    65 ;
                                     0000    66 ;	NONE
                                     0000    67 ;
                                     0000    68 ; CALLING SEQUENCE:
                                     0000    69 ;
                                     0000    70 ;	CALL	#5,TST$RECVAST_DTR	(INVOKED BY VAX/VMS AS AN AST)
                                     0000    71 ;
                                     0000    72 ; INPUT PARAMETERS:
                                     0000    73 ;
                                     0000    74 ;	4(AP)	ADDRESS OF QIO PARAMETER BLOCK
                                     0000    75 ;
                                     0000    76 ; IMPLICIT INPUTS:
                                     0000    77 ;
                                     0000    78 ;	NONE
                                     0000    79 ;
                                     0000    80 ; OUTPUT PARAMETERS:
                                     0000    81 ;
                                     0000    82 ;	NONE
                                     0000    83 ;
                                     0000    84 ; IMPLICIT OUTPUTS:
                                     0000    85 ;
                                     0000    86 ;	NONE
                                     0000    87 ;
                                     0000    88 ; COMPLETION CODES:
                                     0000    89 ;
                                     0000    90 ;	NONE
                                     0000    91 ;
                                     0000    92 ; SIDE EFFECTS:
                                     0000    93 ;
                                     0000    94 ;	NONE
                                     0000    95 ;
                                     0000    96 ;--
                                     0000    97
                               003C' 0000    98 	.ENTRY	TST$RECVAST_DTR,^M<R2,R3,R4,R5> ; ENTRY POINT
                                     0002    99 	CHECK_IOSB W^TST$GQ_RECVIOSB	; CHECK I/O STATUS CODE
            5B            51     E9  000A   100 	BLBC	R1,40$			; BRANCH ON FAILURE
                     0000'CF     D6  000D   101 	INCL	W^TST$GL_RECVDATA	; INCREMENT COUNTER
                                     0011   102 	$CASEB	SELECTOR=W^TST$GB_TYPE,DISPL=<-	;
                                     0011   103 		30$-			;  NO ACTION REQUIRED
                                     0011   104 		20$-			;  SEQUENCE CHECK
                                     0011   105 		10$-			;  SEQUENCE AND PATTERN CHECK
                                     0011   106 	>				;  ECHO MESSAGE
                     0000'CF     D6  001D   107 	INCL	W^TST$GB_XMITBUF	; UDPATE MESSAGE SEQUENCE NUMBER
                                 3C  0021   108 	MOVZWL	W^TST$GQ_RECVIOSB+2,-
       0000'CF       0002'CF         0022   109 		W^TST$QBR_XMTDATA+TST$QB_BUFLEN;SET SIZE TO ECHO
                                 0E  0028   110 	INSQUE	W^TST$QBR_XMTDATA,-
       0004'DF       0000'CF         0029   111 		@W^TST$QB_QHEAD+4		;QUEUE XMT REQUEST
                          1B     11  002F   112 	BRB	30$			; JOIN COMMON CODE
            50       0000'CF     3C  0031   113 10$:	MOVZWL	W^TST$GW_SIZE,R0	; GET MESSAGE SIZE
            50            04     C2  0036   114 	SUBL2	#4,R0			; CALCULATE SIZE LESS SEQUENCE #
                          50     29  0039   115 	CMPC3	R0,W^TST$GB_XMITBUF+4,-	; COMPARE EXPECTED PATTERN
TST$DTRAST      - DTR AST ROUTINES                               22-AUG-1978 01:08:56   VAX-11 MACRO X0.3-11               Page   4
X0.1-3          TST$RECVAST_DTR - RECEIVE DATA MESSAGE AST ROUT                                                                  (3)

       0004'CF       0004'CF         003B   116 		W^TST$GB_RECVBUF+4	;  AGAINST ACTUAL PATTERN
                          26     12  0041   117 	BNEQ	RECVAST_ERROR2		; BRANCH ON PATTERN ERROR
                                 D1  0043   118 20$:	CMPL	W^TST$GL_RECVDATA,-	; COMPARE EXPECTED SEQUENCE #
       0000'CF       0000'CF         0044   119 		W^TST$GB_RECVBUF	;  AGAINST ACTUAL SEQUENCE #
                          27     12  004A   120 	BNEQ	RECVAST_ERROR1		; BRANCH ON SEQUENCE ERROR
                                     004C   121 30$:
                                 3C  004C   122 	MOVZWL	W^TST$GW_SIZE,-
       0000'CF       0000'CF         004D   123 		W^TST$QBR_RCVDATA+TST$QB_BUFLEN	;SAVE SIZE OF READ
                                 0E  0053   124 	INSQUE	W^TST$QBR_RCVDATA,-
       0004'DF       0000'CF         0054   125 		@W^TST$QB_QHEAD+4		;QUEUE NEW READ
                                     005A   126 	$WAKE_S				;WAKE USER LEVEL
                                     0065   127 	CHECK_SS			; CHECK STATUS CODE
                                 04  0068   128 40$:	RET				; EXIT
                                     0069   129 RECVAST_ERROR2:				; PATTERN CHECK ERROR
       0000'CF   01F58043 8F     D0  0069   130 	MOVL	#DTS$_BADPAT,W^TST$GL_STATUS
                                 04  0072   131 	RET				; EXIT
                                     0073   132 RECVAST_ERROR1:				; SEQUENCE CHECK ERROR
       0000'CF   01F5804B 8F     D0  0073   133 	MOVL	#DTS$_BADSEQNUM,W^TST$GL_STATUS
                                 04  007C   134 	RET				; EXIT
TST$DTRAST      - DTR AST ROUTINES                               22-AUG-1978 01:08:56   VAX-11 MACRO X0.3-11               Page   5
X0.1-3          TST$XMITAST_DTR - TRANSMIT DATA MESSAGE AST ROU                                                                  (4)

                                     007D   136 	.SBTTL	TST$XMITAST_DTR - TRANSMIT DATA MESSAGE AST ROUTINE
                                 0000007D   137 	.PSECT	TST$CODE	NOWRT
                                     007D   138
                                     007D   139 ;++
                                     007D   140 ; FUNCTIONAL DESCRIPTION:
                                     007D   141 ;
                                     007D   142 ;	NONE
                                     007D   143 ;
                                     007D   144 ; CALLING SEQUENCE:
                                     007D   145 ;
                                     007D   146 ;	CALL	#5,TST$XMITAST_DTR	(INVOKED BY VAX/VMS AS AN AST)
                                     007D   147 ;
                                     007D   148 ; INPUT PARAMETERS:
                                     007D   149 ;
                                     007D   150 ;	4(AP)	ADDRESS OF QIO PARAMETER BLOCK
                                     007D   151 ;
                                     007D   152 ; IMPLICIT INPUTS:
                                     007D   153 ;
                                     007D   154 ;	NONE
                                     007D   155 ;
                                     007D   156 ; OUTPUT PARAMETERS:
                                     007D   157 ;
                                     007D   158 ;	NONE
                                     007D   159 ;
                                     007D   160 ; IMPLICIT OUTPUTS:
                                     007D   161 ;
                                     007D   162 ;	NONE
                                     007D   163 ;
                                     007D   164 ; COMPLETION CODES:
                                     007D   165 ;
                                     007D   166 ;	NONE
                                     007D   167 ;
                                     007D   168 ; SIDE EFFECTS:
                                     007D   169 ;
                                     007D   170 ;	NONE
                                     007D   171 ;
                                     007D   172 ;--
                                     007D   173
                               0004' 007D   174 	.ENTRY	TST$XMITAST_DTR,^M<R2>	; ENTRY POINT
                                     007F   175 	CHECK_IOSB W^TST$GQ_XMITIOSB	; CHECK I/O STATUS CODE
            04            51     E9  0087   176 	BLBC	R1,10$			; BRANCH ON FAILURE
                     0000'CF     D6  008A   177 	INCL	W^TST$GL_XMITDATA	; INCREMENT COUNTER
                                 04  008E   178 10$:	RET				; EXIT
TST$DTRAST      - DTR AST ROUTINES                               22-AUG-1978 01:08:56   VAX-11 MACRO X0.3-11               Page   6
X0.1-3          TST$MAILAST_DTR - READ MAILBOX AST ROUTINE                                                                       (5)

                                     008F   180 	.SBTTL	TST$MAILAST_DTR - READ MAILBOX AST ROUTINE
                                 0000008F   181 	.PSECT	TST$CODE	NOWRT
                                     008F   182
                                     008F   183 ;++
                                     008F   184 ; FUNCTIONAL DESCRIPTION:
                                     008F   185 ;
                                     008F   186 ;	NONE
                                     008F   187 ;
                                     008F   188 ; CALLING SEQUENCE:
                                     008F   189 ;
                                     008F   190 ;	CALL	#5,TST$MAILAST_DTR	(INVOKED BY VAX/VMS AS AN AST)
                                     008F   191 ;
                                     008F   192 ; INPUT PARAMETERS:
                                     008F   193 ;
                                     008F   194 ;	4(AP)	ADDRESS OF QIO PARAMETER BLOCK
                                     008F   195 ;
                                     008F   196 ; IMPLICIT INPUTS:
                                     008F   197 ;
                                     008F   198 ;	NONE
                                     008F   199 ;
                                     008F   200 ; OUTPUT PARAMETERS:
                                     008F   201 ;
                                     008F   202 ;	NONE
                                     008F   203 ;
                                     008F   204 ; IMPLICIT OUTPUTS:
                                     008F   205 ;
                                     008F   206 ;	NONE
                                     008F   207 ;
                                     008F   208 ; COMPLETION CODES:
                                     008F   209 ;
                                     008F   210 ;	NONE
                                     008F   211 ;
                                     008F   212 ; SIDE EFFECTS:
                                     008F   213 ;
                                     008F   214 ;	NONE
                                     008F   215 ;
                                     008F   216 ;--
                                     008F   217
                               00FC' 008F   218 	.ENTRY	TST$MAILAST_DTR,^M<R2,R3,R4,R5,R6,R7> ; ENTRY POINT
                          FF6C'  30  0091   219 	BSBW	TST$EXAM_MAIL		; EXAMINE THE MESSAGE
            35            56     B1  0094   220 	CMPW	R6,#MSG$_INTMSG		; IS IT AN INTERRUPT MESSAGE?
                          58     12  0097   221 	BNEQU	NOT_INTE_MSG		; NO
                     0000'CF     D6  0099   222 	INCL	W^TST$GL_RECVINTE	; YES, INCREMENT COUNTER
                                     009D   223 	$CASEB	SELECTOR=W^TST$GB_TYPE,DISPL=<-	;
                                     009D   224 		30$-			;  NO ACTION REQUIRED
                                     009D   225 		20$-			;  SEQUENCE CHECK
                                     009D   226 		10$-			;  SEQUENCE AND PATTERN CHECK
                                     009D   227 	>				;  ECHO MESSAGE
                     0000'CF     D6  00A9   228 	INCL	W^TST$GB_INTEBUF	; UDPATE MESSAGE SEQUENCE NUMBER
                          67     9A  00AD   229 	MOVZBL	(R7),W^TST$QBR_XMTINT+-
                     0000'CF         00AF   230 		TST$QB_BUFLEN		;SAVE SIZE OF INTERRUPT MESSAGE
                                 0E  00B2   231 	INSQUE	W^TST$QBR_XMTINT,-
       0004'DF       0000'CF         00B3   232 		@W^TST$QB_QHEAD+4		;QUEUE UP INTERRUPT XMT REQUEST
                          17     11  00B9   233 	BRB	30$			; JOIN COMMON CODE
            50            67     9A  00BB   234 10$:	MOVZBL	(R7),R0			; GET INTERRUPT MESSAGE SIZE
            50            04     C2  00BE   235 	SUBL2	#4,R0			; CALCULATE SIZE LESS SEQUENCE #
                          50     29  00C1   236 	CMPC3	R0,W^TST$GB_INTEBUF+4,-	; COMPARE EXPECTED PATTERN
TST$DTRAST      - DTR AST ROUTINES                               22-AUG-1978 01:08:56   VAX-11 MACRO X0.3-11               Page   7
X0.1-3          TST$MAILAST_DTR - READ MAILBOX AST ROUTINE                                                                       (5)

         05 A7       0004'CF         00C3   237 		5(R7)			;  AGAINST ACTUAL PATTERN
                          49     12  00C8   238 	BNEQ	MAILAST_ERROR2		; BRANCH ON PATTERN ERROR
                                 D1  00CA   239 20$:	CMPL	W^TST$GL_RECVINTE,-	; COMPARE EXPECTED SEQUENCE #
         01 A7       0000'CF         00CB   240 		1(R7)			;  AGAINST ACTUAL SEQUENCE #
                          4B     12  00D0   241 	BNEQ	MAILAST_ERROR1		; BRANCH ON SEQUENCE ERROR
                                     00D2   242 30$:
                                 D0  00D2   243 	MOVL	#TST$K_MAILBUF,-
       0000'CF   00000000'8F         00D3   244 		W^TST$QBR_RCVMAIL+TST$QB_BUFLEN	;SET READ SIZE
                                 0E  00DB   245 	INSQUE	W^TST$QBR_RCVMAIL,-
       0004'DF       0000'CF         00DC   246 		@W^TST$QB_QHEAD+4		;QUEUE MAILBOX READ
                                     00E2   247 	$WAKE_S				;WAKE USER LEVEL
                                     00ED   248 	CHECK_SS			; CHECK STATUS CODE
                                 04  00F0   249 	RET				; EXIT
                                     00F1   250 NOT_INTE_MSG:				;
                                     00F1   251 	$CANCEL_S CHAN=W^TST$GW_LINKCHAN ; CANCEL ALL PENDING LINK I/O REQUESTS
                                     00FD   252 	CHECK_SS			; CHECK STATUS CODE
                     0000'CF     96  0100   253 	INCB	W^TST$GB_ASTFLAGS	;NOTE END OF TEST
                                     0104   254 	$WAKE_S				;WAKE USER LEVEL
                                     010F   255 	CHECK_SS			; CHECK STATUS CODE
                                 04  0112   256 	RET				; EXIT
                                     0113   257 MAILAST_ERROR2:				; PATTERN CHECK ERROR
       0000'CF   01F58043 8F     D0  0113   258 	MOVL	#DTS$_BADPAT,W^TST$GL_STATUS
                                 04  011C   259 	RET				; EXIT
                                     011D   260 MAILAST_ERROR1:				; SEQUENCE CHECK ERROR
       0000'CF   01F5804B 8F     D0  011D   261 	MOVL	#DTS$_BADSEQNUM,W^TST$GL_STATUS
                                 04  0126   262 	RET				; EXIT
TST$DTRAST      - DTR AST ROUTINES                               22-AUG-1978 01:08:56   VAX-11 MACRO X0.3-11               Page   8
X0.1-3          TST$INTEAST_DTR - TRANSMIT INTERRUPT MESSAGE AS                                                                  (6)

                                     0127   264 	.SBTTL	TST$INTEAST_DTR - TRANSMIT INTERRUPT MESSAGE AST ROUTINE
                                 00000127   265 	.PSECT	TST$CODE	NOWRT
                                     0127   266
                                     0127   267 ;++
                                     0127   268 ; FUNCTIONAL DESCRIPTION:
                                     0127   269 ;
                                     0127   270 ;	NONE
                                     0127   271 ;
                                     0127   272 ; CALLING SEQUENCE:
                                     0127   273 ;
                                     0127   274 ;	CALL	#5,TST$INTEAST_DTR	(INVOKED BY VAX/VMS AS AN AST)
                                     0127   275 ;
                                     0127   276 ; INPUT PARAMETERS:
                                     0127   277 ;
                                     0127   278 ;	4(AP)	ADDRESS OF QIO PARAMETER BLOCK
                                     0127   279 ;
                                     0127   280 ; IMPLICIT INPUTS:
                                     0127   281 ;
                                     0127   282 ;	NONE
                                     0127   283 ;
                                     0127   284 ; OUTPUT PARAMETERS:
                                     0127   285 ;
                                     0127   286 ;	NONE
                                     0127   287 ;
                                     0127   288 ; IMPLICIT OUTPUTS:
                                     0127   289 ;
                                     0127   290 ;	NONE
                                     0127   291 ;
                                     0127   292 ; COMPLETION CODES:
                                     0127   293 ;
                                     0127   294 ;	NONE
                                     0127   295 ;
                                     0127   296 ; SIDE EFFECTS:
                                     0127   297 ;
                                     0127   298 ;	NONE
                                     0127   299 ;
                                     0127   300 ;--
                                     0127   301
                               0004' 0127   302 	.ENTRY	TST$INTEAST_DTR,^M<R2>	; ENTRY POINT
                                 B1  0129   303 	CMPW	#SS$_NOSOLICIT,-
   00000000'EF       0000'8F         012A   304 		TST$GQ_INTEIOSB		;CHECK FOR REFUSAL DUE TO NO SOLICIT
                          16     12  0132   305 	BNEQU	5$			;SKIP IF NOT THE CASE
                                 0E  0134   306 	INSQUE	W^TST$QBR_XMTINT,-
       0004'DF       0000'CF         0135   307 		@W^TST$QB_QHEAD+4	;REQUEUE REQUEST
                                     013B   308 	$WAKE_S				;TELL MAINLINE ABOUT IT
                                     0146   309 	CHECK_SS
                                 04  0149   310 	RET
                                     014A   311 5$:
                                     014A   312 	CHECK_IOSB W^TST$GQ_INTEIOSB	; CHECK I/O STATUS CODE
            04            51     E9  0152   313 	BLBC	R1,10$			; BRANCH ON FAILURE
                     0000'CF     D6  0155   314 	INCL	W^TST$GL_XMITINTE	; INCREMENT COUNTER
                                 04  0159   315 10$:	RET				; EXIT
                                     015A   316 	.END
TST$DTRAST      - DTR AST ROUTINES                               22-AUG-1978 01:08:56   VAX-11 MACRO X0.3-11               Page   9
SYMBOL TABLE                                                                                                                     (6)

$$COUNT        = 00000003            MAX_K_SIZE_DA  = 00001000            TST$GL_RECVDATA  ********   X   03
BIT...         = 0000003B            MAX_K_SIZE_IN  = 00000010            TST$GL_RECVINTE  ********   X   03
DFT_K_BACK     = 00000000            MAX_K_SPEED    = 000F4240            TST$GL_STATUS    ********   X   03
DFT_K_DISPLAY  = 00000000            MAX_K_SQUEUE_DA= 00000008            TST$GL_XMITDATA  ********   X   03
DFT_K_FLOW     = 00000002            MAX_K_SQUEUE_IN= 00000008            TST$GL_XMITINTE  ********   X   03
DFT_K_NAK      = 00000000            MAX_K_TIME_DA  = 00057E40            TST$GQ_INTEIOSB  ********   X   03
DFT_K_PRINT    = 00000000            MAX_K_TIME_IN  = 00057E40            TST$GQ_RECVIOSB  ********   X   03
DFT_K_RETURN_CO= 00000000            MSG$_ABOOPR    = 00000011            TST$GQ_XMITIOSB  ********   X   03
DFT_K_RETURN_DI= 00000000            MSG$_ABORT     = 00000030            TST$GW_LINKCHAN  ********   X   03
DFT_K_RQUEUE_DA= 00000001            MSG$_ACCRSP    = 00000021            TST$GW_SIZE      ********   X   03
DFT_K_RQUEUE_IN= 00000001            MSG$_CONFIRM   = 00000031            TST$INTEAST_DTR  00000127 RG    03
DFT_K_SIZE_DA  = 00000080            MSG$_CONNECT   = 00000032            TST$K_MAILBUF    ********   X   03
DFT_K_SIZE_IN  = 00000010            MSG$_CRUNSOLIC = 00000002            TST$MAILAST_DTR  0000008F RG    03
DFT_K_SPEED    = 000F4240            MSG$_DELPROC   = 00000003            TST$QBR_RCVDATA  ********   X   03
DFT_K_SQUEUE_DA= 00000001            MSG$_DELSMB    = 00000014            TST$QBR_RCVMAIL  ********   X   03
DFT_K_SQUEUE_IN= 00000001            MSG$_DEVOFFLIN = 00000005            TST$QBR_XMTDATA  ********   X   03
DFT_K_STAT     = 00000001            MSG$_DEVONLIN  = 00000007            TST$QBR_XMTINT   ********   X   03
DFT_K_TIME_DA  = 0000001E            MSG$_DISCON    = 00000033            TST$QB_BUFLEN    ********   X   03
DFT_K_TIME_IN  = 0000001E            MSG$_EXIT      = 00000034            TST$QB_QHEAD     ********   X   03
DFT_K_TYPE_CO  = 00000001            MSG$_INIOPR    = 00000010            TST$RECVAST_DTR  00000000 RG    03
DFT_K_TYPE_DA  = 00000000            MSG$_INTMSG    = 00000035            TST$XMITAST_DTR  0000007D RG    03
DFT_K_TYPE_DI  = 00000001            MSG$_OPREPLY   = 00000009            VAL_K_BACK_NO  = 00000000
DFT_K_TYPE_IN  = 00000000            MSG$_OPRQST    = 00000008            VAL_K_DISP_NO  = 00000000
DFT_K_TYPE_MI  = 00000000            MSG$_PATHLOST  = 00000036            VAL_K_FLOW_MESS= 00000002
DTS$_BADDATDAT = 01F58033            MSG$_PROTOCOL  = 00000037            VAL_K_FLOW_NO  = 00000000
DTS$_BADDATLEN = 01F58023            MSG$_REJECT    = 00000038            VAL_K_FLOW_SEGM= 00000001
DTS$_BADFUNC   = 01F5805B            MSG$_RESOPR    = 00000013            VAL_K_NAK_NO   = 00000000
DTS$_BADMAIL   = 01F5803B            MSG$_SCANBAD   = 00000028            VAL_K_PRIN_NO  = 00000000
DTS$_BADPAT    = 01F58043            MSG$_SCANRSP   = 00000029            VAL_K_PRIN_YES = 00000080
DTS$_BADSEQNUM = 01F5804B            MSG$_SMBDON    = 00000009            VAL_K_RETU_NO  = 00000000
DTS$_BADSUBFCN = 01F58053            MSG$_SMBINI    = 00000008            VAL_K_RETU_RECE= 00000004
DTS$_BADUSRDAT = 01F58013            MSG$_SMBRSP    = 00000020            VAL_K_RETU_STAN= 00000002
DTS$_BADUSRLEN = 01F5800B            MSG$_SNDACC    = 0000000A            VAL_K_STAT_NO  = 00000000
DTS$_CINBAD    = 01F58003            MSG$_SNDSMB    = 00000004            VAL_K_STAT_YES = 00000001
DTS$_CINREJ    = 01F5801B            MSG$_SUSOPR    = 00000012            VAL_K_TEST_CONN= 00000000
DTS$_DISBAD    = 01F5802B            MSG$_THIRDPARTY= 00000039            VAL_K_TEST_DATA= 00000001
DTS$_INVOPTION = 01F58063            MSG$_TIMEOUT   = 0000003A            VAL_K_TEST_DISC= 00000002
EFN_K_CONN_ACCE= 00000001            MSG$_TRMHANGUP = 00000006            VAL_K_TEST_INTE= 00000003
EFN_K_CONN_INIT= 00000001            MSG$_TRMUNSOLIC= 00000001            VAL_K_TEST_MISC= 00000004
EFN_K_CONN_REJE= 00000002            MSG$_XM_ATTN   = 0000000D            VAL_K_TYPE_ABRT= 00000001
EFN_K_DISC_ABRT= 00000004            MSG$_XM_DATAVL = 0000000B            VAL_K_TYPE_ACCE= 00000001
EFN_K_DISC_SYNC= 00000003            MSG$_XM_SHUTDN = 0000000C            VAL_K_TYPE_ECHO= 00000003
EFN_K_READ_MAIL= 00000000            NOT_INTE_MSG     000000F1 R     03   VAL_K_TYPE_NAME= 00000000
EFN_K_RECV_DATA= 00000007            RA               00000000 RG    03   VAL_K_TYPE_PATT= 00000002
EFN_K_SIGNAL   = 00000009            RECVAST_ERROR1   00000073 R     03   VAL_K_TYPE_REJE= 00000000
EFN_K_TIMER    = 00000008            RECVAST_ERROR2   00000069 R     03   VAL_K_TYPE_SEQU= 00000001
EFN_K_XMIT_DATA= 00000005            SS$_NOSOLICIT    ********   X   03   VAL_K_TYPE_SINK= 00000000
EFN_K_XMIT_INTE= 00000006            SYS$CANCEL       ********   X   03   VAL_K_TYPE_SYNC= 00000000
GBL...         = 00000000            SYS$WAKE         ********   X   03
K_LIST_MEB     = 00000000            TST$CHECK_IOSB   ********   X   03
MAILAST_ERROR1   0000011D R     03   TST$CHECK_SS     ********   X   03
MAILAST_ERROR2   00000113 R     03   TST$EXAM_MAIL    ********   X   03
MAX_K_BACK     = 00000080            TST$GB_ASTFLAGS  ********   X   03
MAX_K_DISPLAY  = 00000026            TST$GB_INTEBUF   ********   X   03
MAX_K_NAK      = 00000080            TST$GB_RECVBUF   ********   X   03
MAX_K_RQUEUE_DA= 00000008            TST$GB_TYPE      ********   X   03
MAX_K_RQUEUE_IN= 00000008            TST$GB_XMITBUF   ********   X   03
TST$DTRAST      - DTR AST ROUTINES                               22-AUG-1978 01:08:56   VAX-11 MACRO X0.3-11               Page  10
PROGRAM SECTION SYNOPSIS                                                                                                         (6)


PROGRAM SECTION SYNOPSIS

.  ABS  .        00000000      00     NOPIC   USR   CON   ABS   LCL NOSHR NOEXE NORD  NOWRT BYTE
. BLANK .        00000000      01     NOPIC   USR   CON   REL   LCL NOSHR   EXE   RD    WRT BYTE
$ABS$            00000000      02     NOPIC   USR   CON   ABS   LCL NOSHR   EXE   RD    WRT BYTE
TST$CODE         0000015A      03     NOPIC   USR   CON   REL   LCL NOSHR   EXE   RD  NOWRT BYTE


THERE WERE NO ERRORS OR WARNINGS.
20688. BYTES LEFT IN FREE MEMORY POOL.
20. BYTES OF RECLAIMED MEMORY.
OBJ$:DTRAST,LIS$:DTRAST/-SP=SRC$:DTPREFIX,DTRAST
22 MLB DIR RDS - 259 GETS TO DEFINE 17 MACROS. 19 INTER. FILE WRITES.
