TST$DTSMAIN     - DTS MAINLINE                                   22-AUG-1978 01:05:56   VAX-11 MACRO X0.3-11               Page   0
TABLE OF CONTENTS

   (2)     114  COMMAND LANGUAGE SYNTAX
   (3)     210  DECLARATIONS
   (4)     235  TST$START_DTS - MAINLINE
TST$DTSMAIN     - DTS MAINLINE                                   22-AUG-1978 01:05:56   VAX-11 MACRO X0.3-11               Page   1
X0.1-7                                                                                                                           (1)

                                     0000     1 	.TITLE	TST$DTSMAIN - DTS MAINLINE
                                     0000     2 	.IDENT	/X0.1-7/
                                     0000     3
                                     0000     4 ;
                                     0000     5 ;			  COPYRIGHT (c) 1977, 1978 BY
                                     0000     6 ;	      DIGITAL EQUIPMENT CORPORATION, MAYNARD, MASS.
                                     0000     7 ;
                                     0000     8 ; THIS SOFTWARE IS FURNISHED UNDER A LICENSE AND MAY BE USED AND  COPIED
                                     0000     9 ; ONLY  IN  ACCORDANCE  WITH  THE  TERMS  OF  SUCH  LICENSE AND WITH THE
                                     0000    10 ; INCLUSION OF THE ABOVE COPYRIGHT NOTICE.  THIS SOFTWARE OR  ANY  OTHER
                                     0000    11 ; COPIES  THEREOF MAY NOT BE PROVIDED OR OTHERWISE MADE AVAILABLE TO ANY
                                     0000    12 ; OTHER PERSON.  NO TITLE TO AND OWNERSHIP OF  THE  SOFTWARE  IS  HEREBY
                                     0000    13 ; TRANSFERRED.
                                     0000    14 ;
                                     0000    15 ; THE INFORMATION IN THIS SOFTWARE IS SUBJECT TO CHANGE  WITHOUT  NOTICE
                                     0000    16 ; AND  SHOULD  NOT  BE  CONSTRUED  AS  A COMMITMENT BY DIGITAL EQUIPMENT
                                     0000    17 ; CORPORATION.
                                     0000    18 ;
                                     0000    19 ; DIGITAL ASSUMES NO RESPONSIBILITY FOR THE USE OR  RELIABILITY  OF  ITS
                                     0000    20 ; SOFTWARE ON EQUIPMENT WHICH IS NOT SUPPLIED BY DIGITAL.
                                     0000    21 ;
                                     0000    22
                                     0000    23 ;++
                                     0000    24 ; FACILITY: DTS/DTR DECNET TEST PACKAGE
                                     0000    25 ;
                                     0000    26 ; ABSTRACT:
                                     0000    27 ;
                                     0000    28 ;	DTS/DTR ARE COOPERATING TEST PROGRAMS THAT EXERCISE NSP LEVEL
                                     0000    29 ;	FUNCTIONS ON A DECNET/VAX-11 NODE. DTS (SENDER) INITIATES A TEST
                                     0000    30 ;	SEQUENCE WHILE DTR (RECEIVER) IS THE PASSIVE PARTNER THAT PERFORMS
                                     0000    31 ;	THE REQUESTED FUNCTION. FIVE BASIC TESTS ARE IMPLEMENTED:
                                     0000    32 ;
                                     0000    33 ;	1.  THE CONNECT TEST EXERCISES THE CONNECT ACCEPT/REJECT LOGIC
                                     0000    34 ;	    WITH/WITHOUT OPTIONAL DATA.
                                     0000    35 ;
                                     0000    36 ;	2.  THE DATA TEST TRANSMITS DATA MESSAGES AND OPTIONALLY COMPUTES
                                     0000    37 ;	    THROUGHPUT STATISTICS. VARIOUS DATA VALIDATION CHECKS
                                     0000    38 ;	    AND FLOW CONTROL MECHANISMS MAY BE ENABLED.
                                     0000    39 ;
                                     0000    40 ;	3.  THE DISCONNECT TEST EXERCISES THE DISCONNECT SYNCHRONOUS/ABORT
                                     0000    41 ;	    LOGIC WITH/WITHOUT OPTIONAL DATA.
                                     0000    42 ;
                                     0000    43 ;	4.  THE INTERRUPT TEST TRANSMITS INTERRUPT MESSAGES AND OPTIONALLY
                                     0000    44 ;	    COMPUTES THROUGHPUT STATISTICS. VARIOUS DATA VALIDATION
                                     0000    45 ;	    CHECKS AND FLOW CONTROL MAY BE ENABLED.
                                     0000    46 ;
                                     0000    47 ;	5.  THE MISCELLANEOUS TEST EXERCISES DECNET/VAX-11 SPECIFIC
                                     0000    48 ;	    FUNCTIONS AND VALIDATES ERROR LOGIC.
                                     0000    49 ;
                                     0000    50 ; ENVIRONMENT: DTS RUNS IN USER MODE AND REQUIRES NETWORK PRIVILEGE.
                                     0000    51 ;
                                     0000    52 ; AUTHOR: JAMES A. KRYCKA,	CREATION DATE: 11-AUG-77
                                     0000    53 ;
                                     0000    54 ; MODIFICATIONS:
                                     0000    55 ;
                                     0000    56 ;--
TST$DTSMAIN     - DTS MAINLINE                                   22-AUG-1978 01:05:56   VAX-11 MACRO X0.3-11               Page   2
X0.1-7          COMMAND LANGUAGE SYNTAX                                                                                          (2)

                                     0000    58 	.SBTTL	COMMAND LANGUAGE SYNTAX
                                     0000    59
                                     0000    60 ;++
                                     0000    61 ;
                                     0000    62 ; THE DTS COMMAND (FOR VAX/VMS) HAS THE FOLLOWING FORMAT:
                                     0000    63 ;
                                     0000    64 ; $ DTS[/qualifier,...]    parameter[/qualifier,...]
                                     0000    65 ;
                                     0000    66 ; WHERE THE COMMAND AND COMMAND QUALIFIERS ARE:
                                     0000    67 ;
                                     0000    68 ; $ DTS[/NODENAME=xxxxxx][/SPEED=nnnnnnn][/NOSTATISTICS][/NOPRINT]
                                     0000    69 ;                                        [/STATISTICS  ][/PRINT  ]
                                     0000    70 ;
                                     0000    71 ;      [/NODISPLAY ] ...
                                     0000    72 ;      [/DISPLAY=nn]
                                     0000    73 ;
                                     0000    74 ; AND WHERE THE PARAMETER AND PARAMETER QUALIFIERS ARE ONE OF THE FOLLOWING:
                                     0000    75 ;
                                     0000    76 ; ... CONNECT[/TYPE=REJECT][/NORETURN       ]
                                     0000    77 ;            [/TYPE=ACCEPT][/RETURN=STANDARD]
                                     0000    78 ;                          [/RETURN=RECEIVED]
                                     0000    79 ;
                                     0000    80 ; ... DATA[/TYPE=SINK    ][/SIZE=nnnnn][/HOURS=nnn     ][/SQUEUE=n][RQUEUE=n]
                                     0000    81 ;         [/TYPE=SEQUENCE]             [/MINUTES=nnnn  ]
                                     0000    82 ;         [/TYPE=PATTERN ]             [/SECONDS=nnnnnn]
                                     0000    83 ;         [/TYPE=ECHO    ]
                                     0000    84 ;
                                     0000    85 ;         [/NOFLOW      ][/NONAK  ][/NOBACK  ]
                                     0000    86 ;         [/FLOW=MESSAGE][/NAK=nnn][/BACK=nnn]
                                     0000    87 ;         [/FLOW=SEGMENT]
                                     0000    88 ;
                                     0000    89 ; ... DISCONNECT[/TYPE=SYNCHRONOUS][/NORETURN       ]
                                     0000    90 ;               [/TYPE=ABORT      ][/RETURN=STANDARD]
                                     0000    91 ;                                  [/RETURN=RECEIVED]
                                     0000    92 ;
                                     0000    93 ; ... INTERRUPT[/TYPE=SINK    ][/SIZE=nn][/HOURS=nnn     ][/SQUEUE=n][RQUEUE=n]
                                     0000    94 ;              [/TYPE=SEQUENCE]          [/MINUTES=nnnn  ]
                                     0000    95 ;              [/TYPE=PATTERN ]          [/SECONDS=nnnnnn]
                                     0000    96 ;              [/TYPE=ECHO    ]
                                     0000    97 ;
                                     0000    98 ; ... MISCELLANEOUS[/TYPE=NAME   ]
                                     0000    99 ;                  [/TYPE=OBJECT ]
                                     0000   100 ;                  [/TYPE=LOGICAL]
                                     0000   101 ;
                                     0000   102 ;
                                     0000   103 ; COMMAND QUALIFIER DEFAULTS:
                                     0000   104 ;
                                     0000   105 ; NODE = NULL STRING; I.E., THE LOCAL NODE
                                     0000   106 ; SPEED = 1000000 BAUD (USED FOR STATISTICS)
                                     0000   107 ; STATISTICS
                                     0000   108 ; NOPRINT
                                     0000   109 ; NODISPLAY
                                     0000   110 ;
                                     0000   111 ; CONNECT TEST PARAMETER QUALIFIER DEFAULTS:
                                     0000   112 ;
                                     0000   113 ; TYPE = ACCEPT
                                     0000   114 ; NORETURN
TST$DTSMAIN     - DTS MAINLINE                                   22-AUG-1978 01:05:56   VAX-11 MACRO X0.3-11               Page   3
X0.1-7          COMMAND LANGUAGE SYNTAX                                                                                          (2)

                                     0000   115 ;
                                     0000   116 ; DATA TEST PARAMETER QUALIFIER DEFAULTS:
                                     0000   117 ;
                                     0000   118 ; TYPE = SINK
                                     0000   119 ; SIZE = 128 (BYTES)
                                     0000   120 ; SECONDS = 30
                                     0000   121 ; SQUEUE = 1
                                     0000   122 ; RQUEUE = 1
                                     0000   123 ; NOFLOW
                                     0000   124 ; NONAK
                                     0000   125 ; NOBACK
                                     0000   126 ;
                                     0000   127 ; DISCONNECT TEST PARAMETER QUALIFIER DEFAULTS:
                                     0000   128 ;
                                     0000   129 ; TYPE = ABORT
                                     0000   130 ; NORETURN
                                     0000   131 ;
                                     0000   132 ; INTERRUPT TEST PARAMETER QUALIFIER DEFAULTS:
                                     0000   133 ;
                                     0000   134 ; TYPE = SINK
                                     0000   135 ; SIZE = 16 (BYTES)
                                     0000   136 ; SECONDS = 30
                                     0000   137 ; SQUEUE = 1
                                     0000   138 ; RQUEUE = 1
                                     0000   139 ;
                                     0000   140 ; MISCELLANEOUS TEST PARAMETER QUALIFIER DEFAULTS:
                                     0000   141 ;
                                     0000   142 ; TYPE = NAME
                                     0000   143 ;
                                     0000   144 ; NOTES:
                                     0000   145 ;
                                     0000   146 ; 1.  A COLON MAY BE USED IN PLACE OF THE EQUAL_SIGN TO DELIMIT A
                                     0000   147 ;     QUALIFIER AND ITS VALUE.
                                     0000   148 ;
                                     0000   149 ; 2.  ONLY THE FIRST FOUR CHARACTERS OF A PARAMETER, QUALIFIER, AND
                                     0000   150 ;     A NON-NUMBERIC QUALIFIER VALUE ARE SIGNIFICANT.
                                     0000   151 ;
                                     0000   152 ;--
TST$DTSMAIN     - DTS MAINLINE                                   22-AUG-1978 01:05:56   VAX-11 MACRO X0.3-11               Page   4
X0.1-7          DECLARATIONS                                                                                                     (3)

                                     0000   154 	.SBTTL	DECLARATIONS
                                     0000   155
                                     0000   156 ;
                                     0000   157 ; INCLUDE FILES:
                                     0000   158 ;
                                     0000   159 	$DTSDEF				;DTS ERROR MESSAGES
                                     0000   160 	$DEVDEF				;DEFINE RMS DEVICE CHARS
                                     0000   161 	FLGDEF				; DEFINE COMMAND PARSE FLAGS
                                     0000   162 	CMDDEF				; DEFINE COMMAND LANGUAGE SYMBOLS
                                     0000   163 	VLDDEF				; DEFINE VALID QUALIFIER FLAGS
                                     0000   164 	$RABDEF				; DEFINE RAB OFFSETS
                                     0000   165 	.IIF NE	K_LIST_MEB, .LIST MEB	; DEFINED IN DTPREFIX.MAR
                                     0000   166 ;
                                     0000   167 ; MACROS:
                                     0000   168 ;
                                     0000   169 ;	NONE
                                     0000   170 ;
                                     0000   171 ; EQUATED SYMBOLS:
                                     0000   172 ;
                                     0000   173 ;	NONE
                                     0000   174 ;
                                     0000   175 ; OWN STORAGE:
                                     0000   176 ;
                                     0000   177 ;	NONE
TST$DTSMAIN     - DTS MAINLINE                                   22-AUG-1978 01:05:56   VAX-11 MACRO X0.3-11               Page   5
X0.1-7          TST$START_DTS - MAINLINE                                                                                         (4)

                                     0000   179 	.SBTTL	TST$START_DTS - MAINLINE
                                 00000000   180 	.PSECT	TST$CODE	NOWRT
                                     0000   181 S::					; SYMBOL FOR DEBUGGING PURPOSES
                                     0000   182
                                     0000   183 ;++
                                     0000   184 ; FUNCTIONAL DESCRIPTION:
                                     0000   185 ;
                                     0000   186 ;	NONE
                                     0000   187 ;
                                     0000   188 ; CALLING SEQUENCE:
                                     0000   189 ;
                                     0000   190 ;	$ RUN DTS
                                     0000   191 ;
                                     0000   192 ; INPUT PARAMETERS:
                                     0000   193 ;
                                     0000   194 ;	NONE
                                     0000   195 ;
                                     0000   196 ; IMPLICIT INPUTS:
                                     0000   197 ;
                                     0000   198 ;	NONE
                                     0000   199 ;
                                     0000   200 ; OUTPUT PARAMETERS:
                                     0000   201 ;
                                     0000   202 ;	NONE
                                     0000   203 ;
                                     0000   204 ; IMPLICIT OUTPUTS:
                                     0000   205 ;
                                     0000   206 ;	NONE
                                     0000   207 ;
                                     0000   208 ; COMPLETION CODES:
                                     0000   209 ;
                                     0000   210 ;	NONE
                                     0000   211 ;
                                     0000   212 ; SIDE EFFECTS:
                                     0000   213 ;
                                     0000   214 ;	NONE
                                     0000   215 ;
                                     0000   216 ;--
                                     0000   217
                               0000' 0000   218 	.ENTRY	TST$START_DTS,^M<>	; ENTRY POINT FROM EXECUTIVE
                                     0002   219
                                     0002   220 ;
                                     0002   221 ; OPEN THE PRINT FILE
                                     0002   222 ;
                                     0002   223
                                     0002   224 	$OPEN	FAB=W^TST$PRTFAB	; OPEN THE FILE
                                     000D   225 	CHECK_RMS			; CHECK COMPLETION CODE
                                     0010   226 	$CONNECT RAB=W^TST$PRTRAB	; ESTABLISH A RECORD STREAM
                                     001B   227 	CHECK_RMS			; CHECK COMPLETION CODE
                                     001E   228
                                     001E   229 ;
                                     001E   230 ; OUTPUT INITIALIZATION MESSAGE TO PRINT FILE
                                     001E   231 ;
                                     001E   232
                                     001E   233 	$FAO_S	CTRSTR=W^TST$GQ_INIT-	; FORMAT MESSAGE
                                     001E   234 		OUTLEN=W^TST$GW_PRTLEN-	;
                                     001E   235 		OUTBUF=W^TST$GQ_PRTBUF-	;
TST$DTSMAIN     - DTS MAINLINE                                   22-AUG-1978 01:05:56   VAX-11 MACRO X0.3-11               Page   6
X0.1-7          TST$START_DTS - MAINLINE                                                                                         (4)

                                     001E   236 		P1=#TST$GT_DTS-		; INSERT DTS ID
                                     001E   237 		P2=#TST$GT_VERSION-	; INSERT DTS VERSION NUMBER
                                     001E   238 		P3=#0			; INSERT DATE AND TIME
                                     003F   239 	CHECK_SS			; CHECK STATUS CODE
                          FFBB'  30  0042   240 	BSBW	TST$PRINT_FAO		; PRINT MESSAGE
                                     0045   241
                                     0045   242 ;
                                     0045   243 ; CREATE A TEMPORARY MAILBOX THAT WILL BE USED AS THE ASSOCIATED LINK
                                     0045   244 ; CHANNEL MAILBOX AND ASSIGN A CHANNEL TO IT.
                                     0045   245 ;
                                     0045   246
                                     0045   247 	$CREMBX_S CHAN=W^TST$GW_MAILCHAN- ; STORE CHANNEL #
                                     0045   248 		MAXMSG=#TST$K_MAILBUF-	; SPECIFY LARGEST MESSAGE
                                     0045   249 		BUFQUO=#TST$K_MAILQUOTA- ; SPECIFY BUFFER QUOTA
                                     0045   250 		PROMSK=#TST$K_MAILPROT-	; SPECIFY PROTECTION FOR MAILBOX
                                     0045   251 		LOGNAM=W^TST$GQ_MAIL_DTS ; LOGICAL NAME OF MAILBOX
                                     006A   252 	CHECK_SS			; CHECK STATUS CODE
                                     006D   253
                                     006D   254 ;
                                     006D   255 ; CREATE A CONTROL/INFORMATION PATH TO NETACP IN PREPARATION FOR
                                     006D   256 ; NON-TRANSPARENT NETWORK I/O. ALSO ASSOCIATE A MAILBOX WITH THE
                                     006D   257 ; CHANNEL.
                                     006D   258 ;
                                     006D   259
                                     006D   260 	$ASSIGN_S DEVNAM=W^TST$GQ_LINKNAME- ; "NET0" REFERS TO NETACP
                                     006D   261 		CHAN=W^TST$GW_LINKCHAN-	; STORE CHANNEL #
                                     006D   262 		MBXNAM=W^TST$GQ_MAIL_DTS ; SPECIFY ASSOCIATED MAILBOX
                                     0082   263 	CHECK_SS			; CHECK STATUS CODE
                                     0085   264
                                     0085   265 ;
                                     0085   266 ; OPEN THE COMMAND FILE
                                     0085   267 ;
                                     0085   268
                                     0085   269 	$OPEN	FAB=W^TST$CMDFAB	; OPEN THE FILE
                                     0090   270 	CHECK_RMS			; CHECK COMPLETION CODE
                                     0093   271 	$CONNECT RAB=W^TST$CMDRAB	; ESTABLISH A RECORD STREAM
                                     009E   272 	CHECK_RMS			; CHECK COMPLETION CODE
                                     00A1   273
                                     00A1   274 ;
                                     00A1   275 ; APPLY COMMAND QUALIFIER DEFAULTS (NOT PARAMETER QUALIFIER DEFAULTS).
                                     00A1   276 ; THESE QUALIFIERS ARE "STICKY" IN THE SENSE THAT ONCE MODIFIED BY A
                                     00A1   277 ; COMMAND, THEY RETAIN THEIR NEW SETTING UNTIL MODIFIED AGAIN BY A COMMAND.
                                     00A1   278 ; THIS IS IN CONTRAST TO PARAMETER QUALIFIERS WHICH ARE RESET TO THEIR
                                     00A1   279 ; ORIGINAL DEFAULT VALUES BEFORE PARSING EACH COMMAND.
                                     00A1   280 ;
                                     00A1   281
       0000'CF            00     90  00A1   282 	MOVB	#DFT_K_DISPLAY,W^TST$GB_DISPLAY	; [NO]DISPLAY
                     0000'CF     94  00A6   283 	CLRB	W^TST$GT_NODENAME		; NODENAME IS NULL STRING
       0000'CF            00     90  00AA   284 	MOVB	#DFT_K_PRINT,W^TST$GB_PRINT	; [NO]PRINT
       0000'CF   000F4240 8F     D0  00AF   285 	MOVL	#DFT_K_SPEED,W^TST$GL_SPEED	; LINE SPEED IN BAUD
       0000'CF            01     90  00B8   286 	MOVB	#DFT_K_STAT,W^TST$GB_STAT	; [NO]STATISTICS
                                     00BD   287
                                     00BD   288 ;
                                     00BD   289 ; PROCESS THE NEXT COMMAND
                                     00BD   290 ;
                                     00BD   291
                                     00BD   292 NEXT_COMMAND:				;
TST$DTSMAIN     - DTS MAINLINE                                   22-AUG-1978 01:05:56   VAX-11 MACRO X0.3-11               Page   7
X0.1-7          TST$START_DTS - MAINLINE                                                                                         (4)

                          5B     D4  00BD   293 	CLRL	R11			; CLEAR ALL COMMAND PARSE FLAGS
                     0000'CF     D4  00BF   294 	CLRL	W^TST$GL_VALID		; CLEAR ALL VALID QUALIFIER FLAGS
                                 C8  00C3   295 	BISL2	#VLD_M_DISPLAY-		; DENOTE VALID QUALIFIERS:
                                     00C4   296 		!VLD_M_NODENAME-	;
                                     00C4   297 		!VLD_M_NODISPLAY-	;
                                     00C4   298 		!VLD_M_NOPRINT-		;
                                     00C4   299 		!VLD_M_NOSTAT-		;
                                     00C4   300 		!VLD_M_PRINT-		;
                                     00C4   301 		!VLD_M_SPEED-		;
                                     00C4   302 		!VLD_M_STAT,-		;
       0000'CF   00286982 8F         00C4   303 		W^TST$GL_VALID		;
                                     00CC   304
                                     00CC   305 ;
                                     00CC   306 ; INPUT NEXT LINE OF COMMAND
                                     00CC   307 ;
                                     00CC   308
                                     00CC   309 READ_LINE:				;
                                     00CC   310 	$GET	RAB=W^TST$CMDRAB	; READ NEXT LINE
                                     00D7   311 	CHECK_RMS			; CHECK COMPLETION CODE
            03            51     E8  00DA   312 	BLBS	R1,20$			; WAS IT END-OF-FILE OR TIME-OUT?
                          0177   31  00DD   313 10$:	BRW	TERMINATE		; YES, EXIT
                                     00E0   314
                                     00E0   315 ;
                                     00E0   316 ; PARSE THE COMMAND
                                     00E0   317 ;
                                     00E0   318
            58       0028'CF     D0  00E0   319 20$:	MOVL	W^TST$CMDRAB+RAB$L_RBF,R8 ; GET ADDRESS OF COMMAND STRING
            59       0022'CF     3C  00E5   320 	MOVZWL	W^TST$CMDRAB+RAB$W_RSZ,R9 ; GET LENGTH OF COMMAND STRING
                                     00EA   321 ;
                                     00EA   322 ;ECHO THE COMMAND
                                     00EA   323 ;
                                 E0  00EA   324 	BBS	#DEV$V_TRM,-
                          02         00EB   325 		W^TST$CMDFAB+FAB$L_DEV,-
            14       0000'CF         00EC   326 		25$			;DONT ECHO IF TERMINAL DEVICE
       0000'CF            59     B0  00F0   327 	MOVW	R9,W^TST$GW_PRTLEN
       0028'CF            58     D0  00F5   328 	MOVL	R8,W^TST$PRTRAB+RAB$L_RBF
                          FF03'  30  00FA   329 	BSBW	TST$PRINT_FAO
                                 DE  00FD   330 	MOVAL	W^TST$GB_PRTBUF,-
       0028'CF       0000'CF         00FE   331 		W^TST$PRTRAB+RAB$L_RBF
                                     0104   332 25$:
            59            58     C0  0104   333 	ADDL2	R8,R9			; CALCULATE ADDRESS OF END OF
                                     0107   334 					; COMMAND BUFFER + 1
            68         45 8F     91  0107   335 	CMPB	#^A\E\,(R8)		; IS IT REQUEST TO EXIT?
                          D0     13  010B   336 	BEQL	10$			; BRANCH IF YES
       0000'CF            00     FB  010D   337 	CALLS	#0,W^TST$PARSE		; PARSE THE COMMAND LINE
            5B            00     E5  0112   338 	BBCC	#FLG_V_PARSERROR,R11,30$ ; BRANCH IF PARSE WAS SUCCESSFUL
                          21         0115
                                     0116   339 	$FAO_S	CTRSTR=W^TST$GQ_PARSE-	; FORMAT MESSAGE
                                     0116   340 		OUTLEN=W^TST$GW_PRTLEN-	;
                                     0116   341 		OUTBUF=W^TST$GQ_PRTBUF-	;
                                     0116   342 		P1=#TST$GT_DTS		; INSERT DTS ID
                                     012F   343 	CHECK_SS			; CHECK STATUS CODE
                          FECB'  30  0132   344 	BSBW	TST$PRINT_FAO		; PRINT MESSAGE
                          86     11  0135   345 	BRB	NEXT_COMMAND		; START AGAIN
            5B            01     E4  0137   346 30$:	BBSC	#FLG_V_MULTILINE,R11,-	; GET ANOTHER LINE IF REQUIRED
                          91         013A
                                     013B   347 		READ_LINE		;
TST$DTSMAIN     - DTS MAINLINE                                   22-AUG-1978 01:05:56   VAX-11 MACRO X0.3-11               Page   8
X0.1-7          TST$START_DTS - MAINLINE                                                                                         (4)

                                     013B   348
                                     013B   349 ;
                                     013B   350 ; COMMAND PARSING IS COMPLETE. R10 = COMMAND PARAMETER (TESTTYPE).
                                     013B   351 ;
                                     013B   352 ; START TO BUILD THE TEST REQUEST STRING WHICH WILL BE SENT TO DTR IN
                                     013B   353 ; THE USERDATA FIELD OF THE NSP CONNECT INITIATE MESSAGE. THE REQUEST
                                     013B   354 ; STRING IS ASSEMBLED AS A COUNTED ASCII STRING.
                                     013B   355 ;
                                     013B   356
            5B       0000'CF     DE  013B   357 	MOVAL	W^TST$GT_USERDATA,R11	; GET ADDRESS OF USERDATA STRING
            5A       0000'CF     81  0140   358 	ADDB3	W^TST$GB_PRINT,R10,1(R11) ; UPDATE DTS/R TESTTYPE FIELD
                       01 AB         0145
                                     0147   359 					 ;  WHICH IS DERIVED FROM BOTH
                                     0147   360 					 ;  THE COMMAND PARAMETER AND
                                     0147   361 					 ;  THE /[NO]PRINT QUALIFIER
                                     0147   362
                                     0147   363 ;
                                     0147   364 ; DISPATCH TO APPROPRIATE ROUTINE FOR EXECUTING THE COMMAND
                                     0147   365 ;
                                     0147   366
                       58'AF     9F  0147   367 	PUSHAB	B^TEST_COMPLETE		; PUT RETURN ADDRESS ON STACK
                                     014A   368 					;  SO THAT ROUTINES EXECUTED BY
                                     014A   369 					;  'CASE' CAN EXIT VIA 'RSB'
                                     014A   370 	$CASEB	SELECTOR=R10,DISPL=<-	; DISPATCH TO:
                                     014A   371 			TST$CONN_DTS-	;  CONNECT TEST
                                     014A   372 			TST$DATA_DTS-	;  DATA TEST
                                     014A   373 			TST$DISC_DTS-	;  DISCONNECT TEST
                                     014A   374 			TST$INTE_DTS-	;  INTERRUPT TEST
                                     014A   375 			TST$MISC_DTS-	;  MISCELLANEOUS NSP TEST
                                     014A   376 	>				;
                                     0158   377
                                     0158   378 ;
                                     0158   379 ; OUTPUT END-OF-TEST MESSAGE TO THE PRINT FILE
                                     0158   380 ;
                                     0158   381
                                     0158   382 TEST_COMPLETE:				;
       0000'CF            03     B0  0158   383 	MOVW	#3,W^TST$GT_DTSMSG	;ASSUME THERE IS AN FAO ARG
       0000'CF            50     D0  015D   384 	MOVL	R0,W^TST$GL_DTERROR	;SETUP ERROR CODE
            50            01     D1  0162   385 	CMPL	#1,R0
                          05     12  0165   386 	BNEQU	1$
       0000'CF            01     B0  0167   387 	MOVW	#1,W^TST$GT_DTSMSG
                                     016C   388 1$:
                                     016C   389 	$PUTMSG_S	MSGVEC=W^TST$GT_DTSMSG-
                                     016C   390 			FACNAM=W^TST$GQ_FACDESC
                                     017D   391 	CHECK_SS			; CHECK STATUS CODE
       0000'CF            01     D1  0180   392 	CMPL	#1,W^TST$GL_DTERROR
                          03     13  0185   393 	BEQLU	2$
                          FF33   31  0187   394 	BRW	W^NEXT_COMMAND		;OTHERWISE GET NEXT COMMAND
                                     018A   395 2$:
                                     018A   396
                                     018A   397 ;
                                     018A   398 ; CALCULATE AND PRINT STATISTICS FOR THE DATA AND INTERRUPT TESTS
                                     018A   399 ;
                                     018A   400
            01       0000'CF     91  018A   401 	CMPB	W^TST$GB_STAT,#VAL_K_STAT_YES ; ARE STATISTICS DESIRED?
                          03     13  018F   402 	BEQLU	10$			; BRANCH IF YES
                          FF29   31  0191   403 5$:	BRW	NEXT_COMMAND		; START AGAIN
TST$DTSMAIN     - DTS MAINLINE                                   22-AUG-1978 01:05:56   VAX-11 MACRO X0.3-11               Page   9
X0.1-7          TST$START_DTS - MAINLINE                                                                                         (4)

            01            5A     91  0194   404 10$:	CMPB	R10,#VAL_K_TEST_DATA	; WAS THIS A DATA TEST?
                          0C     13  0197   405 	BEQLU	20$			; BRANCH IF YES
            03            5A     91  0199   406 	CMPB	R10,#VAL_K_TEST_INTE	; WAS THIS AN INTERRUPT TEST?
                          F3     12  019C   407 	BNEQU	5$			; NO, START AGAIN
                                 7D  019E   408 	MOVQ	W^TST$GL_XMITINTE,-	; YES, COPY TRANSMIT AND RECEIVE
       0000'CF       0000'CF         019F   409 		W^TST$GL_XMITDATA	;  INTE COUNTERS TO DATA COUNTERS
                                     01A5   410
                                     01A5   411 ;
                                     01A5   412 ; OUTPUT TEST PARAMETERS TO THE PRINT FILE
                                     01A5   413 ;
                                     01A5   414
            52       0000'CF     3C  01A5   415 20$:	MOVZWL	W^TST$GW_SIZE,R2	; GET MESSAGE SIZE
                                     01AA   416 	$FAO_S	CTRSTR=W^TST$GQ_STAT1-	;
                                     01AA   417 		OUTLEN=W^TST$GW_PRTLEN-	;
                                     01AA   418 		OUTBUF=W^TST$GQ_PRTBUF- ;
                                     01AA   419 		P1=W^TST$GL_SECONDS-	; DURATION OF TEST IN SECONDS
                                     01AA   420 		P2=#TST$GT_NODENAME-	; ADDRESS OF NODENAME STRING
                                     01AA   421 		P3=W^TST$GL_SPEED-	; LINE SPEED (BAUD)
                                     01AA   422 		P4=R2			; MESSAGE SIZE IN BYTES
                                     01CD   423 	CHECK_SS			; CHECK STATUS CODE
                          FE2D'  30  01D0   424 	BSBW	TST$PRINT_FAO		; PRINT MESSAGE
                                     01D3   425
                                     01D3   426 ;
                                     01D3   427 ; CALCULATE DATA TRANSFER TOTALS
                                     01D3   428 ;
                                     01D3   429
                                 C1  01D3   430 	ADDL3	W^TST$GL_XMITDATA,-	; CALCULATE TOTAL NUMBER OF
       0000'CF       0000'CF         01D4   431 		W^TST$GL_RECVDATA,R1	; MESSAGES TRANSFERRED
                          51         01DA
            52            51     C4  01DB   432 	MULL2	R1,R2			; CALCULATE TOTAL NUMBER OF
                                     01DE   433 					; BYTES TRANSFERRED
            52            03     9C  01DE   434 	ROTL	#3,R2,R3		; CALCULATE TOTAL NUMBER OF
                          53         01E1
                                     01E2   435 					; BITS TRANSFERRED
                                     01E2   436 ;
                                     01E2   437 ; CALCULATE DATA RATES WITH ROUNDED RESULTS STORED IN INTEGER FORMAT
                                     01E2   438 ;
                                     01E2   439
            50       0000'CF     4E  01E2   440 	CVTLF	W^TST$GL_SECONDS,R0	; PUT TIME IN FLOATING FORMAT
                                     01E7   441 ; ***** MSG/SEC --> {R4,R5}
            59            51     4E  01E7   442 	CVTLF	R1,R9			; PUT #MSG IN FLOATING FORMAT
            59            22     44  01EA   443 	MULF2	#10,R9			; CALCULATE MESSAGES PER SECOND
            59            50     46  01ED   444 	DIVF2	R0,R9			; X 10
            54            59     4B  01F0   445 	CVTRFL	R9,R4			; ROUND AND STORE AS INTEGER
                          55     D4  01F3   446 	CLRL 	R5			; DOUBLE PRECISION DIVIDE FOLLOWS
            54            0A     7B  01F5   447 	EDIV	#10,R4,R4,R5		; SPLIT RESULT INTO X.Y VALUES
            55            54         01F8
                                     01FA   448 ; ***** BYTES/SEC --> R6
            59            52     4E  01FA   449 	CVTLF	R2,R9			; PUT #BYTES IN FLOATING FORMAT
            59            50     46  01FD   450 	DIVF2	R0,R9			; CALCULATE BYTES PER SECOND
            56            59     4B  0200   451 	CVTRFL	R9,R6			; ROUND AND STORE AS INTEGER
                                     0203   452 ; ***** BITS/SEC --> R7
            59            53     4E  0203   453 	CVTLF	R3,R9			; PUT #BITS IN FLOATING FORMAT
            59            50     46  0206   454 	DIVF2	R0,R9			; CALCULATE BITS PER SECOND
            57            59     4B  0209   455 	CVTRFL	R9,R7			; ROUND AND STORE AS INTEGER
                                     020C   456 ; ***** LINE UTILIZATION --> {R8,R9}
            50       0000'CF     4E  020C   457 	CVTLF	W^TST$GL_SPEED,R0	; PUT SPEED IN FLOATING FORMAT
TST$DTSMAIN     - DTS MAINLINE                                   22-AUG-1978 01:05:56   VAX-11 MACRO X0.3-11               Page  10
X0.1-7          TST$START_DTS - MAINLINE                                                                                         (4)

            59   0000457A 8F     44  0211   458 	MULF2	#1000,R9		; CALCULATE PERCENT OF LINE
            59            50     46  0218   459 	DIVF2	R0,R9			; UTILIZATION X 10
            58            59     4A  021B   460 	CVTFL	R9,R8			; ROUND AND STORE AS INTEGER
                          59     D4  021E   461 	CLRL	R9			; DOUBLE PRECISION DIVIDE FOLLOWS
            58            0A     7B  0220   462 	EDIV	#10,R8,R8,R9		; SPLIT RESULT INTO X.Y VALUES
            59            58         0223
                                     0225   463
                                     0225   464 ;
                                     0225   465 ; OUTPUT TEST STATISTICS TO THE PRINT FILE
                                     0225   466 ;
                                     0225   467
                                     0225   468 	$FAO_S	CTRSTR=W^TST$GQ_STAT2-	;
                                     0225   469 		OUTLEN=W^TST$GW_PRTLEN-	;
                                     0225   470 		OUTBUF=W^TST$GQ_PRTBUF- ;
                                     0225   471 		P1=W^TST$GL_XMITDATA-	; TOTAL # OF MESSAGES TRANSMITTED
                                     0225   472 		P2=W^TST$GL_RECVDATA-	; TOTAL # OF MESSAGES RECEIVED
                                     0225   473 		P3=R2-			; TOTAL # BYTES TRANSFERRED
                                     0225   474 		P4=R4-			; MESSAGES PER SECOND
                                     0225   475 		P5=R5-			; "
                                     0225   476 		P6=R6-			; BYTES PER SECOND
                                     0225   477 		P7=R7-			; LINE THROUGHPUT (BAUD)
                                     0225   478 		P8=R8-			; PERCENT OF LINE UTILIZATION
                                     0225   479 		P9=R9			; "
                                     024E   480 	CHECK_SS			; CHECK STATUS CODE
                          FDAC'  30  0251   481 	BSBW	TST$PRINT_FAO		; PRINT MESSAGE
                          FE66   31  0254   482 	BRW	NEXT_COMMAND		; START AGAIN
                                     0257   483
                                     0257   484 ;
                                     0257   485 ; OUTPUT TERMINATION MESSAGE TO THE PRINT FILE
                                     0257   486 ;
                                     0257   487
                                     0257   488 TERMINATE:				; END OF TEST
                                     0257   489 	$FAO_S	CTRSTR=W^TST$GQ_TERM-	; FORMAT MESSAGE
                                     0257   490 		OUTLEN=W^TST$GW_PRTLEN-	;
                                     0257   491 		OUTBUF=W^TST$GQ_PRTBUF-	;
                                     0257   492 		P1=#TST$GT_DTS-		; INSERT DTS ID
                                     0257   493 		P2=#0			; INSERT DATE AND TIME
                                     0272   494 	CHECK_SS			; CHECK STATUS CODE
                          FD88'  30  0275   495 	BSBW	TST$PRINT_FAO		; PRINT MESSAGE
                                     0278   496 	$EXIT_S				; EXIT TO VMS
                                     0281   497 	.END	TST$START_DTS
TST$DTSMAIN     - DTS MAINLINE                                   22-AUG-1978 01:05:56   VAX-11 MACRO X0.3-11               Page  11
SYMBOL TABLE                                                                                                                     (4)

$$.TMP1        = 00000001            DFT_K_DISPLAY  = 00000000            NEXT_COMMAND     000000BD R     03
$$.TMP2        = 000000CF            DFT_K_FLOW     = 00000002            RAB$B_BID        00000000
$$COUNT        = 00000005            DFT_K_NAK      = 00000000            RAB$B_BLN        00000001
$$T1           = 00000000            DFT_K_PRINT    = 00000000            RAB$B_KRF        00000035
$$T2           = 00000005            DFT_K_RETURN_CO= 00000000            RAB$B_KSZ        00000034
BIT...         = 00000020            DFT_K_RETURN_DI= 00000000            RAB$B_MBC        00000037
DEV$M_ALL      = 00800000            DFT_K_RQUEUE_DA= 00000001            RAB$B_MBF        00000036
DEV$M_AVL      = 00040000            DFT_K_RQUEUE_IN= 00000001            RAB$B_PSZ        00000034
DEV$M_CCL      = 00000002            DFT_K_SIZE_DA  = 00000080            RAB$B_RAC        0000001E
DEV$M_DIR      = 00000008            DFT_K_SIZE_IN  = 00000010            RAB$B_ROP1       00000005
DEV$M_DMT      = 00200000            DFT_K_SPEED    = 000F4240            RAB$B_ROP2       00000006
DEV$M_ELG      = 00400000            DFT_K_SQUEUE_DA= 00000001            RAB$B_ROP3       00000007
DEV$M_FOD      = 00004000            DFT_K_SQUEUE_IN= 00000001            RAB$B_TMO        0000001F
DEV$M_FOR      = 01000000            DFT_K_STAT     = 00000001            RAB$C_BID      = 00000001
DEV$M_GEN      = 00020000            DFT_K_TIME_DA  = 0000001E            RAB$C_BLN        00000044
DEV$M_IDV      = 04000000            DFT_K_TIME_IN  = 0000001E            RAB$C_KEY      = 00000001
DEV$M_MBX      = 00100000            DFT_K_TYPE_CO  = 00000001            RAB$C_RFA      = 00000002
DEV$M_MNT      = 00080000            DFT_K_TYPE_DA  = 00000000            RAB$C_SEQ      = 00000000
DEV$M_NET      = 00002000            DFT_K_TYPE_DI  = 00000001            RAB$K_BLN        00000044
DEV$M_ODV      = 08000000            DFT_K_TYPE_IN  = 00000000            RAB$L_BKT        00000038
DEV$M_RCK      = 40000000            DFT_K_TYPE_MI  = 00000000            RAB$L_CTX        00000018
DEV$M_REC      = 00000001            DTS$_BADDATDAT = 01F58033            RAB$L_DCT        00000038
DEV$M_RND      = 10000000            DTS$_BADDATLEN = 01F58023            RAB$L_FAB        0000003C
DEV$M_RTM      = 20000000            DTS$_BADFUNC   = 01F5805B            RAB$L_KBF        00000030
DEV$M_SDI      = 00000010            DTS$_BADMAIL   = 01F5803B            RAB$L_PBF        00000030
DEV$M_SHR      = 00010000            DTS$_BADPAT    = 01F58043            RAB$L_RBF        00000028
DEV$M_SPL      = 00000040            DTS$_BADSEQNUM = 01F5804B            RAB$L_RFA0       00000010
DEV$M_SQD      = 00000020            DTS$_BADSUBFCN = 01F58053            RAB$L_RHB        0000002C
DEV$M_SWL      = 02000000            DTS$_BADUSRDAT = 01F58013            RAB$L_ROP        00000004
DEV$M_TRM      = 00000004            DTS$_BADUSRLEN = 01F5800B            RAB$L_STS        00000008
DEV$M_WCK      = 80000000            DTS$_CINBAD    = 01F58003            RAB$L_STV        0000000C
DEV$V_ALL      = 00000017            DTS$_CINREJ    = 01F5801B            RAB$L_UBF        00000024
DEV$V_AVL      = 00000012            DTS$_DISBAD    = 01F5802B            RAB$M_ASY      = 00000001
DEV$V_CCL      = 00000001            DTS$_INVOPTION = 01F58063            RAB$M_BIO      = 00000800
DEV$V_DIR      = 00000003            FAB$L_DEV        ********   X   03   RAB$M_CCO      = 80000000
DEV$V_DMT      = 00000015            FLG_M_DELIMITER= 00000008            RAB$M_CVT      = 04000000
DEV$V_ELG      = 00000016            FLG_M_MULTILINE= 00000002            RAB$M_EOF      = 00000100
DEV$V_FOD      = 0000000E            FLG_M_PARAMETER= 00000004            RAB$M_FDL      = 00000040
DEV$V_FOR      = 00000018            FLG_M_PARSERROR= 00000001            RAB$M_HSH      = 00000080
DEV$V_GEN      = 00000011            FLG_V_DELIMITER= 00000003            RAB$M_KGE      = 00200000
DEV$V_IDV      = 0000001A            FLG_V_MULTILINE= 00000001            RAB$M_KGT      = 00400000
DEV$V_MBX      = 00000014            FLG_V_PARAMETER= 00000002            RAB$M_LIM      = 00004000
DEV$V_MNT      = 00000013            FLG_V_PARSERROR= 00000000            RAB$M_LOA      = 00002000
DEV$V_NET      = 0000000D            GBL...         = 00000000            RAB$M_LOC      = 00010000
DEV$V_ODV      = 0000001B            K_LIST_MEB     = 00000000            RAB$M_MAS      = 00000020
DEV$V_RCK      = 0000001E            MAX_K_BACK     = 00000080            RAB$M_NLK      = 00100000
DEV$V_REC      = 00000000            MAX_K_DISPLAY  = 00000026            RAB$M_NXR      = 00800000
DEV$V_RND      = 0000001C            MAX_K_NAK      = 00000080            RAB$M_PMT      = 40000000
DEV$V_RTM      = 0000001D            MAX_K_RQUEUE_DA= 00000008            RAB$M_PPF_IND  = 00004000
DEV$V_SDI      = 00000004            MAX_K_RQUEUE_IN= 00000008            RAB$M_PPF_RAT  = 00003FC0
DEV$V_SHR      = 00000010            MAX_K_SIZE_DA  = 00001000            RAB$M_PTA      = 20000000
DEV$V_SPL      = 00000006            MAX_K_SIZE_IN  = 00000010            RAB$M_RAH      = 00000200
DEV$V_SQD      = 00000005            MAX_K_SPEED    = 000F4240            RAB$M_RLK      = 00080000
DEV$V_SWL      = 00000019            MAX_K_SQUEUE_DA= 00000008            RAB$M_RNE      = 01000000
DEV$V_TRM      = 00000002            MAX_K_SQUEUE_IN= 00000008            RAB$M_RNF      = 08000000
DEV$V_WCK      = 0000001F            MAX_K_TIME_DA  = 00057E40            RAB$M_TMO      = 02000000
DFT_K_BACK     = 00000000            MAX_K_TIME_IN  = 00057E40            RAB$M_TPT      = 00000002
TST$DTSMAIN     - DTS MAINLINE                                   22-AUG-1978 01:05:56   VAX-11 MACRO X0.3-11               Page  12
SYMBOL TABLE                                                                                                                     (4)

RAB$M_UIF      = 00000010            TST$DISC_DTS     ********   X   03   VAL_K_TEST_MISC= 00000004
RAB$M_ULK      = 00040000            TST$GB_DISPLAY   ********   X   03   VAL_K_TYPE_ABRT= 00000001
RAB$M_WAT      = 00020000            TST$GB_PRINT     ********   X   03   VAL_K_TYPE_ACCE= 00000001
RAB$M_WBH      = 00000400            TST$GB_PRTBUF    ********   X   03   VAL_K_TYPE_ECHO= 00000003
RAB$S_PPF_RAT  = 00000008            TST$GB_STAT      ********   X   03   VAL_K_TYPE_NAME= 00000000
RAB$V_ASY      = 00000000            TST$GL_DTERROR   ********   X   03   VAL_K_TYPE_PATT= 00000002
RAB$V_BIO      = 0000000B            TST$GL_RECVDATA  ********   X   03   VAL_K_TYPE_REJE= 00000000
RAB$V_CCO      = 0000001F            TST$GL_SECONDS   ********   X   03   VAL_K_TYPE_SEQU= 00000001
RAB$V_CVT      = 0000001A            TST$GL_SPEED     ********   X   03   VAL_K_TYPE_SINK= 00000000
RAB$V_EOF      = 00000008            TST$GL_VALID     ********   X   03   VAL_K_TYPE_SYNC= 00000000
RAB$V_FDL      = 00000006            TST$GL_XMITDATA  ********   X   03   VLD_M_BACK     = 00000001
RAB$V_HSH      = 00000007            TST$GL_XMITINTE  ********   X   03   VLD_M_DISPLAY  = 00000002
RAB$V_KGE      = 00000015            TST$GQ_FACDESC   ********   X   03   VLD_M_FLOW     = 00000004
RAB$V_KGT      = 00000016            TST$GQ_INIT      ********   X   03   VLD_M_HOURS    = 00000008
RAB$V_LIM      = 0000000E            TST$GQ_LINKNAME  ********   X   03   VLD_M_MINUTES  = 00000010
RAB$V_LOA      = 0000000D            TST$GQ_MAIL_DTS  ********   X   03   VLD_M_NAK      = 00000020
RAB$V_LOC      = 00000010            TST$GQ_PARSE     ********   X   03   VLD_M_NOBACK   = 00000040
RAB$V_MAS      = 00000005            TST$GQ_PRTBUF    ********   X   03   VLD_M_NODENAME = 00000080
RAB$V_NLK      = 00000014            TST$GQ_STAT1     ********   X   03   VLD_M_NODISPLAY= 00000100
RAB$V_NXR      = 00000017            TST$GQ_STAT2     ********   X   03   VLD_M_NOFLOW   = 00000200
RAB$V_PMT      = 0000001E            TST$GQ_TERM      ********   X   03   VLD_M_NONAK    = 00000400
RAB$V_PPF_IND  = 0000000E            TST$GT_DTS       ********   X   03   VLD_M_NOPRINT  = 00000800
RAB$V_PPF_RAT  = 00000006            TST$GT_DTSMSG    ********   X   03   VLD_M_NORETURN = 00001000
RAB$V_PTA      = 0000001D            TST$GT_NODENAME  ********   X   03   VLD_M_NOSTAT   = 00002000
RAB$V_RAH      = 00000009            TST$GT_USERDATA  ********   X   03   VLD_M_PRINT    = 00004000
RAB$V_RLK      = 00000013            TST$GT_VERSION   ********   X   03   VLD_M_RETURN   = 00008000
RAB$V_RNE      = 00000018            TST$GW_LINKCHAN  ********   X   03   VLD_M_RQUEUE   = 00010000
RAB$V_RNF      = 0000001B            TST$GW_MAILCHAN  ********   X   03   VLD_M_SECONDS  = 00020000
RAB$V_TMO      = 00000019            TST$GW_PRTLEN    ********   X   03   VLD_M_SIZE     = 00040000
RAB$V_TPT      = 00000001            TST$GW_SIZE      ********   X   03   VLD_M_SPEED    = 00080000
RAB$V_UIF      = 00000004            TST$INTE_DTS     ********   X   03   VLD_M_SQUEUE   = 00100000
RAB$V_ULK      = 00000012            TST$K_MAILBUF    ********   X   03   VLD_M_STAT     = 00200000
RAB$V_WAT      = 00000011            TST$K_MAILPROT   ********   X   03   VLD_M_TYPE     = 00400000
RAB$V_WBH      = 0000000A            TST$K_MAILQUOTA  ********   X   03   VLD_V_BACK     = 00000000
RAB$W_ISI        00000002            TST$MISC_DTS     ********   X   03   VLD_V_DISPLAY  = 00000001
RAB$W_RFA        00000010            TST$PARSE        ********   X   03   VLD_V_FLOW     = 00000002
RAB$W_RFA4       00000014            TST$PRINT_FAO    ********   X   03   VLD_V_HOURS    = 00000003
RAB$W_RSZ        00000022            TST$PRTFAB       ********   X   03   VLD_V_MINUTES  = 00000004
RAB$W_USZ        00000020            TST$PRTRAB       ********   X   03   VLD_V_NAK      = 00000005
READ_LINE        000000CC R     03   TST$START_DTS    00000000 RG    03   VLD_V_NOBACK   = 00000006
S                00000000 RG    03   VAL_K_BACK_NO  = 00000000            VLD_V_NODENAME = 00000007
SYS$ASSIGN       ********   X   03   VAL_K_DISP_NO  = 00000000            VLD_V_NODISPLAY= 00000008
SYS$CONNECT      ********  GX   03   VAL_K_FLOW_MESS= 00000002            VLD_V_NOFLOW   = 00000009
SYS$CREMBX       ********   X   03   VAL_K_FLOW_NO  = 00000000            VLD_V_NONAK    = 0000000A
SYS$EXIT         ********   X   03   VAL_K_FLOW_SEGM= 00000001            VLD_V_NOPRINT  = 0000000B
SYS$FAO          ********   X   03   VAL_K_NAK_NO   = 00000000            VLD_V_NORETURN = 0000000C
SYS$GET          ********  GX   03   VAL_K_PRIN_NO  = 00000000            VLD_V_NOSTAT   = 0000000D
SYS$OPEN         ********  GX   03   VAL_K_PRIN_YES = 00000080            VLD_V_PRINT    = 0000000E
SYS$PUTMSG       ********   X   03   VAL_K_RETU_NO  = 00000000            VLD_V_RETURN   = 0000000F
TERMINATE        00000257 R     03   VAL_K_RETU_RECE= 00000004            VLD_V_RQUEUE   = 00000010
TEST_COMPLETE    00000158 R     03   VAL_K_RETU_STAN= 00000002            VLD_V_SECONDS  = 00000011
TST$CHECK_RMS    ********   X   03   VAL_K_STAT_NO  = 00000000            VLD_V_SIZE     = 00000012
TST$CHECK_SS     ********   X   03   VAL_K_STAT_YES = 00000001            VLD_V_SPEED    = 00000013
TST$CMDFAB       ********   X   03   VAL_K_TEST_CONN= 00000000            VLD_V_SQUEUE   = 00000014
TST$CMDRAB       ********   X   03   VAL_K_TEST_DATA= 00000001            VLD_V_STAT     = 00000015
TST$CONN_DTS     ********   X   03   VAL_K_TEST_DISC= 00000002            VLD_V_TYPE     = 00000016
TST$DATA_DTS     ********   X   03   VAL_K_TEST_INTE= 00000003
TST$DTSMAIN     - DTS MAINLINE                                   22-AUG-1978 01:05:56   VAX-11 MACRO X0.3-11               Page  13
PROGRAM SECTION SYNOPSIS                                                                                                         (4)


PROGRAM SECTION SYNOPSIS

.  ABS  .        00000000      00     NOPIC   USR   CON   ABS   LCL NOSHR NOEXE NORD  NOWRT BYTE
. BLANK .        00000000      01     NOPIC   USR   CON   REL   LCL NOSHR   EXE   RD    WRT BYTE
$ABS$            00000044      02     NOPIC   USR   CON   ABS   LCL NOSHR   EXE   RD    WRT BYTE
TST$CODE         00000281      03     NOPIC   USR   CON   REL   LCL NOSHR   EXE   RD  NOWRT BYTE


THERE WERE NO ERRORS OR WARNINGS.
13318. BYTES LEFT IN FREE MEMORY POOL.
58. BYTES OF RECLAIMED MEMORY.
OBJ$:DTSMAIN,LIS$:DTSMAIN/-SP=SRC$:DTPREFIX,DTSMAIN
50 MLB DIR RDS - 549 GETS TO DEFINE 32 MACROS. 44 INTER. FILE WRITES.
