AUTOCONFG       - AUTO CONFIGURATION OF DEVICE DATA BASE         21-AUG-1978 22:25:01   VAX-11 MACRO X0.3-11               Page   0
TABLE OF CONTENTS

   (1)    3230  AUTO CONFIGURATION OF DEVICE DATA BASE
   (1)    3600  ACF$MBA - MASSBUS ADAPTER AUTO CONFIGURATION
   (1)    4890  ACF$UBA - UNIBUS ADAPTER AUTO CONFIGURATION
   (1)    6150  SINGLE UNIT DEVICE GENERATOR
   (1)    6470  RK611 MULTIPLE UNIT DEVICE GENERATOR
   (1)    7030  DZ11 MULTIPLE UNIT DEVICE GENERATOR
   (1)    7330  AUTO CONFIGURATION DEVICE DATA BASE RESET
AUTOCONFG       - AUTO CONFIGURATION OF DEVICE DATA BASE         21-AUG-1978 22:25:01   VAX-11 MACRO X0.3-11               Page   1
01                                                                                                                               (1)

                                     0000    10 	.TITLE	AUTOCONFG - AUTO CONFIGURATION OF DEVICE DATA BASE
                                     0000    20 	.IDENT	/01/
                                     0000    30
                                     0000    40 ;
                                     0000    50 ; COPYRIGHT (C) 1978
                                     0000    60 ; DIGITAL EQUIPMENT CORPORATION, MAYNARD, MASS.
                                     0000    70 ;
                                     0000    80 ; THIS SOFTWARE IS FURNISHED UNDER  A LICENSE FOR USE ONLY  ON  A
                                     0000    90 ; SINGLE COMPUTER SYSTEM AND MAY BE  COPIED ONLY WITH  THE INCLU-
                                     0000   100 ; SION OF  THE  ABOVE  COPYRIGHT NOTICE.  THIS SOFTWARE,  OR  ANY
                                     0000   110 ; OTHER COPIES THEREOF, MAY NOT BE  PROVIDED  OR  OTHERWISE  MADE
                                     0000   120 ; AVAILABLE TO ANY OTHER PERSON EXCEPT  FOR  USE  ON  SUCH SYSTEM
                                     0000   130 ; AND TO  ONE WHO AGREES  TO  THESE LICENSE  TERMS.  TITLE TO AND
                                     0000   140 ; OWNERSHIP OF THE SOFTWARE SHALL AT ALL TIMES REMAIN IN DEC.
                                     0000   150 ;
                                     0000   160 ; THE INFORMATION IN THIS SOFTWARE  IS  SUBJECT TO CHANGE WITHOUT
                                     0000   170 ; NOTICE AND SHOULD NOT BE CONSTRUED  AS  A COMMITMENT BY DIGITAL
                                     0000   180 ; EQUIPMENT CORPORATION.
                                     0000   190 ;
                                     0000   200 ; DEC ASSUMES NO RESPONSIBILITY FOR THE USE OR RELIABILITY OF ITS
                                     0000   210 ; SOFTWARE ON EQUIPMENT WHICH IS NOT SUPPLIED BY DEC.
                                     0000   220 ;
                                     0000   230 ; D. N. CUTLER 19-JUN-78
                                     0000   240 ;
                                     0000   250 ; AUTO CONFIGURATION OF DEVICE DATA BASE
                                     0000   260 ;
                                     0000   270 ; MACRO LIBRARY CALLS
                                     0000   280 ;
                                     0000   290
                                     0000   300 	$ACFDEF				;DEFINE ACF OFFSETS
                                     0000   310 	$ADPDEF				;DEFINE ADP OFFSETS
                                     0000   320 	$MBADEF				;DEFINE MBA REGISTER OFFSETS
                                     0000   330 	$UBADEF				;DEFINE UBA REGISTER OFFSETS
                                     0000   340
                                     0000   350 ;
                                     0000   360 ; LOCAL MACROS
                                     0000   370 ;
                                     0000   380 ; GENERATE ADAPTER TYPE CONTROL TABLE ENTRY
                                     0000   390 ;
                                     0000   400 ;	ADAPTER TYPE
                                     0000   410 ;
                                     0000   420
                                     0000   430 	.MACRO	ADAPTER TYPE
                                     0000   440 		.WORD	0
                                     0000   450 		.IRP	X,<UBA,MBA>
                                     0000   460 		.IF IDN	<X>,<TYPE>
                                     0000   470 		.=.-2
                                     0000   480 	$$$=.
                                     0000   490 		.WORD	AT$_'TYPE
                                     0000   500 		.LONG	ACF$'TYPE
                                     0000   510 	ADAPTERLEN=.-$$$
                                     0000   520 		.MEXIT
                                     0000   530 		.ENDC
                                     0000   540 		.ENDM
                                     0000   550 	.ENDM	ADAPTER
                                     0000   560
                                     0000   570 ;
AUTOCONFG       - AUTO CONFIGURATION OF DEVICE DATA BASE         21-AUG-1978 22:25:01   VAX-11 MACRO X0.3-11               Page   2
01                                                                                                                               (1)

                                     0000   580 ; GENERATE MBA DEVICE DESCRIPTOR
                                     0000   590 ;
                                     0000   600 ;	MBADEV	DEVNAME,DRVNAME,TYPES
                                     0000   610 ;
                                     0000   620
                                     0000   630 	.MACRO	MBADEV	DEVNAME,DRVNAME,TYPES
                                     0000   640 		.PSECT	ACF$DEVNAME
                                     0000   650 	$DEVNAME$=.
                                     0000   660 		.ASCIC	\DEVNAME\
                                     0000   670 	$$$=.
                                     0000   680 		.PSECT	ACF$RESET
                                     0000   690 		.ADDRESS $$$
                                     0000   700 		.PSECT	ACF$DRVNAME
                                     0000   710 	$DRVNAME$=.
                                     0000   720 		.ASCIC	\DRVNAME\
                                     0000   730 		.PSECT	ACF$DEVDESC
                                     0000   740 	$DEVDESC$=.
                                     0000   750 		.LONG	$DEVNAME$
                                     0000   760 		.LONG	$DRVNAME$
                                     0000   770 		.IRP	X,<TYPES>
                                     0000   780 		.WORD	X
                                     0000   790 		.ENDM
                                     0000   800 		.WORD	0
                                     0000   810 		.PSECT	ACF$DATA
                                     0000   820 		.LONG	$DEVDESC$
                                     0000   830 	.ENDM	MBADEV
                                     0000   840
                                     0000   850 ;
                                     0000   860 ; GENERATE UBA DEVICE DESCRIPTOR
                                     0000   870 ;
                                     0000   880
                                     0000   890 	.MACRO	UBADEV DEVNAME,DRVNAME,ROUTINE,NUMVECT,CSRTYPE,VECTYPE,-
                                     0000   900 			REGISTER,VECTOR,SUPPORT=SUPPORTED
                                     0000   910 		.PSECT	ACF$DEVNAME
                                     0000   920 	$DEVNAME$=.
                                     0000   930 		.ASCIC	\DEVNAME\
                                     0000   940 	$$$=.
                                     0000   950 		.PSECT	ACF$RESET
                                     0000   960 		.ADDRESS $$$
                                     0000   970 		.PSECT	ACF$DRVNAME
                                     0000   980 	$DRVNAME$=.
                                     0000   990 		.ASCIC	\DRVNAME\
                                     0000  1000 		.PSECT	ACF$DEVDESC
                                     0000  1010 	$DEVDESC$=.
                                     0000  1020 		.LONG	$DEVNAME$
                                     0000  1030 		.LONG	$DRVNAME$
                                     0000  1040 	UBA_M_SUPPORT=1
                                     0000  1050 	UBA_V_SUPPORT=0
                                     0000  1060 	$$$=UBA_M_SUPPORT
                                     0000  1070 		.IF DIF	<SUPPORT>,<SUPPORTED>
                                     0000  1080 	$$$=0
                                     0000  1090 		.LONG	0
                                     0000  1100 		.IFF
                                     0000  1110 		.LONG	ACF$'ROUTINE
                                     0000  1120 		.ENDC
                                     0000  1130 		.BYTE	NUMVECT
                                     0000  1140 	UBA_M_FLOATCSR=2
AUTOCONFG       - AUTO CONFIGURATION OF DEVICE DATA BASE         21-AUG-1978 22:25:01   VAX-11 MACRO X0.3-11               Page   3
01                                                                                                                               (1)

                                     0000  1150 	UBA_V_FLOATCSR=1
                                     0000  1160 	UBA_M_FLOATVEC=4
                                     0000  1170 	UBA_V_FLOATVEC=2
                                     0000  1180 		.IIF IDN <VECTYPE>,<FLOAT>, $$$=$$$!UBA_M_FLOATVEC
                                     0000  1190 		.IF IDN	<CSRTYPE>,<FLOAT>
                                     0000  1200 		.BYTE	$$$!UBA_M_FLOATCSR
                                     0000  1210 		.IF IDN	<VECTYPE>,<FLOAT>
                                     0000  1220 		.WORD	VECTOR-1
                                     0000  1230 		.ENDC
                                     0000  1240 		.WORD	REGISTER-1
                                     0000  1250 		.IFF
                                     0000  1260 		.BYTE	$$$
                                     0000  1270 		.IF IDN	<VECTYPE>,<FLOAT>
                                     0000  1280 		.WORD	VECTOR-1
                                     0000  1290 		.ENDC
                                     0000  1300 		.WORD	0
                                     0000  1310 		.IRP	X,<REGISTER>
                                     0000  1320 		.=.-2
                                     0000  1330 		.WORD	X,0
                                     0000  1340 		.ENDM
                                     0000  1350 		.ENDC
                                     0000  1360 		.PSECT	ACF$DATA
                                     0000  1370 		.LONG	$DEVDESC$
                                     0000  1380 	.ENDM	UBADEV
                                     0000  1390
                                     0000  1400 ;
                                     0000  1410 ; LOCAL SYMBOLS
                                     0000  1420 ;
                                     0000  1430 ; MBA DRIVE REGISTER OFFSET DEFINITIONS
                                     0000  1440 ;
                                     0000  1450
                           00000004  0000  1460 MBA_DS=4				;DRIVE STATUS REGISTER
                           00000018  0000  1470 MBA_DT=24				;DRIVE TYPE REGISTER
                           00000024  0000  1480 MBA_TC=36				;TAPE CONTROL REGISTER
                                     0000  1490
                                     0000  1500 ;
                                     0000  1510 ; RK611 CONTROLLER REGISTER DEFINITIONS
                                     0000  1520 ;
                                     0000  1530
                           00000000  0000  1540 RK_CS1=0				;CONTROL STATUS REGISTER 1
                           00008000  0000  1550 RK_CS1_M_CERR=^X8000			;CONTROLLER ERROR/CLEAR
                           00000008  0000  1560 RK_CS2=8				;CONTROL STATUS REGISTER 2
                           00001000  0000  1570 RK_CS2_M_NED=^X1000			;NONEXISTENT DISK
                                     0000  1580
                                     0000  1590 ;
                                     0000  1600 ; UBA I/O PAGE OFFSET DEFINITION
                                     0000  1610 ;
                                     0000  1620
                           00001000  0000  1630 UBA_IOBASE=8*512			;
                                     0000  1640
                                     0000  1650 ;
                                     0000  1660 ; LOCAL DATA
                                     0000  1670 ;
                                     0000  1680 ; ADAPTER TYPE CONTROL TABLE
                                     0000  1690 ;
                                     0000  1700
                                     0000  1710 	.LIST	MEB
AUTOCONFG       - AUTO CONFIGURATION OF DEVICE DATA BASE         21-AUG-1978 22:25:01   VAX-11 MACRO X0.3-11               Page   4
01                                                                                                                               (1)

                                 00000000  1720 	.PSECT	ACF$DATA
                                     0000  1730 ACF$AB_ADPTYPE:				;
                                     0000  1740 	ADAPTER MBA			;MASSBUS ADAPTER
                               0000  0000       		.WORD	0
                           00000000  0002       		.=.-2
                               0000' 0000       		.WORD	AT$_MBA
                           0000002A' 0002       		.LONG	ACF$MBA
                                     0006  1750 	ADAPTER	UBA			;UNIBUS ADAPTER
                               0000  0006       		.WORD	0
                           00000006  0008       		.=.-2
                               0000' 0006       		.WORD	AT$_UBA
                           0000014B' 0008       		.LONG	ACF$UBA
                                     000C  1760 	ADAPTER	NULL			;
                               0000  000C       		.WORD	0
                                     000E  1770
                                     000E  1780 ;
                                     000E  1790 ; CONTROLLER DESIGNATOR RESET POINTER TABLE
                                     000E  1800 ;
                                     000E  1810
                                 00000000  1820 	.PSECT	ACF$RESET
                                     0000  1830 ACF$AL_RESET:				;TABLE BEGINNING
                                     0000  1840
                                     0000  1850 ;
                                     0000  1860 ; MASSBUS ADAPTER CONFIGURATION CONTROL TABLE
                                     0000  1870 ;
                                     0000  1880
                                 0000000E  1885 	.PSECT	ACF$DATA		;
                                     000E  1890 ACF$AB_MBATABLE:			;
                                     000E  1900 	MBADEV	DBA,DBDRIVER,<<^X10>,<^X11>,<^X12>> ;RP0X
                                 00000000       		.PSECT	ACF$DEVNAME
                        41 42 44 00' 0000       		.ASCIC	\DBA\
                                 03  0000
                                 00000000       		.PSECT	ACF$RESET
                           00000004' 0000       		.ADDRESS $$$
                                 00000000       		.PSECT	ACF$DRVNAME
         52 45 56 49 52 44 42 44 00' 0000       		.ASCIC	\DBDRIVER\
                                 08  0000
                                 00000000       		.PSECT	ACF$DEVDESC
                           00000000' 0000       		.LONG	$DEVNAME$
                           00000000' 0004       		.LONG	$DRVNAME$
                               0010  0008       		.WORD	^X10
                               0011  000A       		.WORD	^X11
                               0012  000C       		.WORD	^X12
                               0000  000E       		.WORD	0
                                 0000000E       		.PSECT	ACF$DATA
                           00000000' 000E       		.LONG	$DEVDESC$
                                     0012  1910 	MBADEV	DRA,DRDRIVER,<<^X14>,<^X20>,<^X21>> ;RM0X
                                 00000004       		.PSECT	ACF$DEVNAME
                        41 52 44 00' 0004       		.ASCIC	\DRA\
                                 03  0004
                                 00000004       		.PSECT	ACF$RESET
                           00000008' 0004       		.ADDRESS $$$
                                 00000009       		.PSECT	ACF$DRVNAME
         52 45 56 49 52 44 52 44 00' 0009       		.ASCIC	\DRDRIVER\
                                 08  0009
                                 00000010       		.PSECT	ACF$DEVDESC
                           00000004' 0010       		.LONG	$DEVNAME$
AUTOCONFG       - AUTO CONFIGURATION OF DEVICE DATA BASE         21-AUG-1978 22:25:01   VAX-11 MACRO X0.3-11               Page   5
01                                                                                                                               (1)

                           00000009' 0014       		.LONG	$DRVNAME$
                               0014  0018       		.WORD	^X14
                               0020  001A       		.WORD	^X20
                               0021  001C       		.WORD	^X21
                               0000  001E       		.WORD	0
                                 00000012       		.PSECT	ACF$DATA
                           00000010' 0012       		.LONG	$DEVDESC$
                                     0016  1920 	MBADEV	MTA,TMDRIVER,<<^XC000>>	;TM0X
                                 00000008       		.PSECT	ACF$DEVNAME
                        41 54 4D 00' 0008       		.ASCIC	\MTA\
                                 03  0008
                                 00000008       		.PSECT	ACF$RESET
                           0000000C' 0008       		.ADDRESS $$$
                                 00000012       		.PSECT	ACF$DRVNAME
         52 45 56 49 52 44 4D 54 00' 0012       		.ASCIC	\TMDRIVER\
                                 08  0012
                                 00000020       		.PSECT	ACF$DEVDESC
                           00000008' 0020       		.LONG	$DEVNAME$
                           00000012' 0024       		.LONG	$DRVNAME$
                               C000  0028       		.WORD	^XC000
                               0000  002A       		.WORD	0
                                 00000016       		.PSECT	ACF$DATA
                           00000020' 0016       		.LONG	$DEVDESC$
                           00000000  001A  1930 	.LONG	0			;
                                     001E  1940
                                     001E  1950 ;
                                     001E  1960 ; ADDRESS OF UBA DEVICE GENERATION ROUTINE AND RETURN
                                     001E  1970 ;
                                     001E  1980
                                     001E  1990 ACF$L_RETURN:				;
                           00000022  001E  2000 	.BLKL	1			;
                                     0022  2010 ACF$L_ROUTINE:				;
                           00000026  0022  2020 	.BLKL	1			;
                                     0026  2030
                                     0026  2040 ;
                                     0026  2050 ; REGISTER SAVE AREA
                                     0026  2060 ;
                                     0026  2070
                                     0026  2080 ACF$L_R0SAVE:				;
                           0000002A  0026  2090 	.BLKL	1			;
                                     002A  2100 ACF$L_R1SAVE:				;
                           0000002E  002A  2110 	.BLKL	1			;
                                     002E  2120 ACF$L_R2SAVE:				;
                           00000032  002E  2130 	.BLKL	1			;
                                     0032  2140 ACF$L_R3SAVE:
                           00000036  0032  2150 	.BLKL	1			;
                                     0036  2160 ACF$L_R4SAVE:				;
                           0000003A  0036  2170 	.BLKL	1			;
                                     003A  2180 ACF$L_R5SAVE:
                           0000003E  003A  2190 	.BLKL	1			;
                                     003E  2200
                                     003E  2210 ;
                                     003E  2220 ; UNIBUS ADAPTER CONFIGURATION CONTROL TABLE
                                     003E  2230 ;
                                     003E  2240 ;	NOTE: ALL FLOATING ADDRESS ENTRIES MUST BE IN PRIORITY ORDER.
                                     003E  2250 ;
                                     003E  2260
AUTOCONFG       - AUTO CONFIGURATION OF DEVICE DATA BASE         21-AUG-1978 22:25:01   VAX-11 MACRO X0.3-11               Page   6
01                                                                                                                               (1)

                                     003E  2270 ACF$AB_UBATABLE:			;
                                     003E  2280 	UBADEV	CRA,CRDRIVER,CR11,1,FIXED,FIXED,<<^O17160,^O230>> ;
                                 0000000C       		.PSECT	ACF$DEVNAME
                        41 52 43 00' 000C       		.ASCIC	\CRA\
                                 03  000C
                                 0000000C       		.PSECT	ACF$RESET
                           00000010' 000C       		.ADDRESS $$$
                                 0000001B       		.PSECT	ACF$DRVNAME
         52 45 56 49 52 44 52 43 00' 001B       		.ASCIC	\CRDRIVER\
                                 08  001B
                                 0000002C       		.PSECT	ACF$DEVDESC
                           0000000C' 002C       		.LONG	$DEVNAME$
                           0000001B' 0030       		.LONG	$DRVNAME$
                           00000297' 0034       		.LONG	ACF$CR11
                                 01  0038       		.BYTE	1
                                 01  0039       		.BYTE	$$$
                               0000  003A       		.WORD	0
                           0000003A  003C       		.=.-2
                     0000 0098 1E70  003A       		.WORD	^O17160,^O230,0
                                 0000003E       		.PSECT	ACF$DATA
                           0000002C' 003E       		.LONG	$DEVDESC$
                                     0042  2290 	UBADEV	DMA,DMDRIVER,RK611,1,FIXED,FIXED,<<^O17440,^O210>> ;
                                 00000010       		.PSECT	ACF$DEVNAME
                        41 4D 44 00' 0010       		.ASCIC	\DMA\
                                 03  0010
                                 00000010       		.PSECT	ACF$RESET
                           00000014' 0010       		.ADDRESS $$$
                                 00000024       		.PSECT	ACF$DRVNAME
         52 45 56 49 52 44 4D 44 00' 0024       		.ASCIC	\DMDRIVER\
                                 08  0024
                                 00000040       		.PSECT	ACF$DEVDESC
                           00000010' 0040       		.LONG	$DEVNAME$
                           00000024' 0044       		.LONG	$DRVNAME$
                           000002A8' 0048       		.LONG	ACF$RK611
                                 01  004C       		.BYTE	1
                                 01  004D       		.BYTE	$$$
                               0000  004E       		.WORD	0
                           0000004E  0050       		.=.-2
                     0000 0088 1F20  004E       		.WORD	^O17440,^O210,0
                                 00000042       		.PSECT	ACF$DATA
                           00000040' 0042       		.LONG	$DEVDESC$
                                     0046  2300 	UBADEV	LPA,LPDRIVER,LP11,1,FIXED,FIXED,<<^O17514,^O200>,<^O14004,^O170>> ;
                                 00000014       		.PSECT	ACF$DEVNAME
                        41 50 4C 00' 0014       		.ASCIC	\LPA\
                                 03  0014
                                 00000014       		.PSECT	ACF$RESET
                           00000018' 0014       		.ADDRESS $$$
                                 0000002D       		.PSECT	ACF$DRVNAME
         52 45 56 49 52 44 50 4C 00' 002D       		.ASCIC	\LPDRIVER\
                                 08  002D
                                 00000054       		.PSECT	ACF$DEVDESC
                           00000014' 0054       		.LONG	$DEVNAME$
                           0000002D' 0058       		.LONG	$DRVNAME$
                           00000297' 005C       		.LONG	ACF$LP11
                                 01  0060       		.BYTE	1
                                 01  0061       		.BYTE	$$$
                               0000  0062       		.WORD	0
AUTOCONFG       - AUTO CONFIGURATION OF DEVICE DATA BASE         21-AUG-1978 22:25:01   VAX-11 MACRO X0.3-11               Page   7
01                                                                                                                               (1)

                           00000062  0064       		.=.-2
                     0000 0080 1F4C  0062       		.WORD	^O17514,^O200,0
                           00000066  0068       		.=.-2
                     0000 0078 1804  0066       		.WORD	^O14004,^O170,0
                                 00000046       		.PSECT	ACF$DATA
                           00000054' 0046       		.LONG	$DEVDESC$
                                     004A  2310 	UBADEV	DCA,DCDRIVER,DC11,2,FIXED,FLOAT,<-
                                     004A  2320 		<^O14000>,<^O14010>,<^O14020>,<^O14030>,-
                                     004A  2330 		<^O14040>,<^O14050>,<^O14060>,<^O14070>,-
                                     004A  2340 		<^O14100>,<^O14110>,<^O14120>,<^O14130>,-
                                     004A  2350 		<^O14140>,<^O14150>,<^O14160>,<^O14170>,-
                                     004A  2360 		<^O14200>,<^O14210>,<^O14220>,<^O14230>,-
                                     004A  2370 		<^O14240>,<^O14250>,<^O14260>,<^O14270>,-
                                     004A  2380 		<^O14300>,<^O14310>,<^O14320>,<^O14330>,-
                                     004A  2390 		<^O14340>,<^O14350>,<^O14360>,<^O14370>>,4,NOSUPPORT
                                 00000018       		.PSECT	ACF$DEVNAME
                        41 43 44 00' 0018       		.ASCIC	\DCA\
                                 03  0018
                                 00000018       		.PSECT	ACF$RESET
                           0000001C' 0018       		.ADDRESS $$$
                                 00000036       		.PSECT	ACF$DRVNAME
         52 45 56 49 52 44 43 44 00' 0036       		.ASCIC	\DCDRIVER\
                                 08  0036
                                 0000006C       		.PSECT	ACF$DEVDESC
                           00000018' 006C       		.LONG	$DEVNAME$
                           00000036' 0070       		.LONG	$DRVNAME$
                           00000000  0074       		.LONG	0
                                 02  0078       		.BYTE	2
                                 04  0079       		.BYTE	$$$
                               0003  007A       		.WORD	4-1
                               0000  007C       		.WORD	0
                           0000007C  007E       		.=.-2
                          0000 1800  007C       		.WORD	^O14000,0
                           0000007E  0080       		.=.-2
                          0000 1808  007E       		.WORD	^O14010,0
                           00000080  0082       		.=.-2
                          0000 1810  0080       		.WORD	^O14020,0
                           00000082  0084       		.=.-2
                          0000 1818  0082       		.WORD	^O14030,0
                           00000084  0086       		.=.-2
                          0000 1820  0084       		.WORD	^O14040,0
                           00000086  0088       		.=.-2
                          0000 1828  0086       		.WORD	^O14050,0
                           00000088  008A       		.=.-2
                          0000 1830  0088       		.WORD	^O14060,0
                           0000008A  008C       		.=.-2
                          0000 1838  008A       		.WORD	^O14070,0
                           0000008C  008E       		.=.-2
                          0000 1840  008C       		.WORD	^O14100,0
                           0000008E  0090       		.=.-2
                          0000 1848  008E       		.WORD	^O14110,0
                           00000090  0092       		.=.-2
                          0000 1850  0090       		.WORD	^O14120,0
                           00000092  0094       		.=.-2
                          0000 1858  0092       		.WORD	^O14130,0
                           00000094  0096       		.=.-2
                          0000 1860  0094       		.WORD	^O14140,0
AUTOCONFG       - AUTO CONFIGURATION OF DEVICE DATA BASE         21-AUG-1978 22:25:01   VAX-11 MACRO X0.3-11               Page   8
01                                                                                                                               (1)

                           00000096  0098       		.=.-2
                          0000 1868  0096       		.WORD	^O14150,0
                           00000098  009A       		.=.-2
                          0000 1870  0098       		.WORD	^O14160,0
                           0000009A  009C       		.=.-2
                          0000 1878  009A       		.WORD	^O14170,0
                           0000009C  009E       		.=.-2
                          0000 1880  009C       		.WORD	^O14200,0
                           0000009E  00A0       		.=.-2
                          0000 1888  009E       		.WORD	^O14210,0
                           000000A0  00A2       		.=.-2
                          0000 1890  00A0       		.WORD	^O14220,0
                           000000A2  00A4       		.=.-2
                          0000 1898  00A2       		.WORD	^O14230,0
                           000000A4  00A6       		.=.-2
                          0000 18A0  00A4       		.WORD	^O14240,0
                           000000A6  00A8       		.=.-2
                          0000 18A8  00A6       		.WORD	^O14250,0
                           000000A8  00AA       		.=.-2
                          0000 18B0  00A8       		.WORD	^O14260,0
                           000000AA  00AC       		.=.-2
                          0000 18B8  00AA       		.WORD	^O14270,0
                           000000AC  00AE       		.=.-2
                          0000 18C0  00AC       		.WORD	^O14300,0
                           000000AE  00B0       		.=.-2
                          0000 18C8  00AE       		.WORD	^O14310,0
                           000000B0  00B2       		.=.-2
                          0000 18D0  00B0       		.WORD	^O14320,0
                           000000B2  00B4       		.=.-2
                          0000 18D8  00B2       		.WORD	^O14330,0
                           000000B4  00B6       		.=.-2
                          0000 18E0  00B4       		.WORD	^O14340,0
                           000000B6  00B8       		.=.-2
                          0000 18E8  00B6       		.WORD	^O14350,0
                           000000B8  00BA       		.=.-2
                          0000 18F0  00B8       		.WORD	^O14360,0
                           000000BA  00BC       		.=.-2
                          0000 18F8  00BA       		.WORD	^O14370,0
                                 0000004A       		.PSECT	ACF$DATA
                           0000006C' 004A       		.LONG	$DEVDESC$
                                     004E  2400 	UBADEV	KLA,KLDRIVER,KL11,2,FIXED,FLOAT,<-
                                     004E  2410 		<^O16500>,<^O16510>,<^O16520>,<^O16530>,-
                                     004E  2420 		<^O16540>,<^O16550>,<^O16560>,<^O16570>,-
                                     004E  2430 		<^O16600>,<^O16610>,<^O16620>,<^O16630>,-
                                     004E  2440 		<^O16640>,<^O16650>,<^O16660>,<^O16670>>,4,NOSUPPORT
                                 0000001C       		.PSECT	ACF$DEVNAME
                        41 4C 4B 00' 001C       		.ASCIC	\KLA\
                                 03  001C
                                 0000001C       		.PSECT	ACF$RESET
                           00000020' 001C       		.ADDRESS $$$
                                 0000003F       		.PSECT	ACF$DRVNAME
         52 45 56 49 52 44 4C 4B 00' 003F       		.ASCIC	\KLDRIVER\
                                 08  003F
                                 000000BE       		.PSECT	ACF$DEVDESC
                           0000001C' 00BE       		.LONG	$DEVNAME$
                           0000003F' 00C2       		.LONG	$DRVNAME$
                           00000000  00C6       		.LONG	0
AUTOCONFG       - AUTO CONFIGURATION OF DEVICE DATA BASE         21-AUG-1978 22:25:01   VAX-11 MACRO X0.3-11               Page   9
01                                                                                                                               (1)

                                 02  00CA       		.BYTE	2
                                 04  00CB       		.BYTE	$$$
                               0003  00CC       		.WORD	4-1
                               0000  00CE       		.WORD	0
                           000000CE  00D0       		.=.-2
                          0000 1D40  00CE       		.WORD	^O16500,0
                           000000D0  00D2       		.=.-2
                          0000 1D48  00D0       		.WORD	^O16510,0
                           000000D2  00D4       		.=.-2
                          0000 1D50  00D2       		.WORD	^O16520,0
                           000000D4  00D6       		.=.-2
                          0000 1D58  00D4       		.WORD	^O16530,0
                           000000D6  00D8       		.=.-2
                          0000 1D60  00D6       		.WORD	^O16540,0
                           000000D8  00DA       		.=.-2
                          0000 1D68  00D8       		.WORD	^O16550,0
                           000000DA  00DC       		.=.-2
                          0000 1D70  00DA       		.WORD	^O16560,0
                           000000DC  00DE       		.=.-2
                          0000 1D78  00DC       		.WORD	^O16570,0
                           000000DE  00E0       		.=.-2
                          0000 1D80  00DE       		.WORD	^O16600,0
                           000000E0  00E2       		.=.-2
                          0000 1D88  00E0       		.WORD	^O16610,0
                           000000E2  00E4       		.=.-2
                          0000 1D90  00E2       		.WORD	^O16620,0
                           000000E4  00E6       		.=.-2
                          0000 1D98  00E4       		.WORD	^O16630,0
                           000000E6  00E8       		.=.-2
                          0000 1DA0  00E6       		.WORD	^O16640,0
                           000000E8  00EA       		.=.-2
                          0000 1DA8  00E8       		.WORD	^O16650,0
                           000000EA  00EC       		.=.-2
                          0000 1DB0  00EA       		.WORD	^O16660,0
                           000000EC  00EE       		.=.-2
                          0000 1DB8  00EC       		.WORD	^O16670,0
                                 0000004E       		.PSECT	ACF$DATA
                           000000BE' 004E       		.LONG	$DEVDESC$
                                     0052  2450 	UBADEV	DPA,DPDRIVER,DP11,2,FIXED,FLOAT,<-
                                     0052  2460 		<^O14400>,<^O14410>,<^O14420>,<^O14430>,-
                                     0052  2470 		<^O14440>,<^O14450>,<^O14460>,<^O14470>,-
                                     0052  2480 		<^O14500>,<^O14510>,<^O14520>,<^O14530>,-
                                     0052  2490 		<^O14540>,<^O14550>,<^O14560>,<^O14570>,-
                                     0052  2500 		<^O14600>,<^O14610>,<^O14620>,<^O14630>,-
                                     0052  2510 		<^O14640>,<^O14650>,<^O14660>,<^O14670>,-
                                     0052  2520 		<^O14700>,<^O14710>,<^O14720>,<^O14730>,-
                                     0052  2530 		<^O14740>,<^O14750>,<^O14760>,<^O14770>>,4,NOSUPPORT
                                 00000020       		.PSECT	ACF$DEVNAME
                        41 50 44 00' 0020       		.ASCIC	\DPA\
                                 03  0020
                                 00000020       		.PSECT	ACF$RESET
                           00000024' 0020       		.ADDRESS $$$
                                 00000048       		.PSECT	ACF$DRVNAME
         52 45 56 49 52 44 50 44 00' 0048       		.ASCIC	\DPDRIVER\
                                 08  0048
                                 000000F0       		.PSECT	ACF$DEVDESC
                           00000020' 00F0       		.LONG	$DEVNAME$
AUTOCONFG       - AUTO CONFIGURATION OF DEVICE DATA BASE         21-AUG-1978 22:25:01   VAX-11 MACRO X0.3-11               Page  10
01                                                                                                                               (1)

                           00000048' 00F4       		.LONG	$DRVNAME$
                           00000000  00F8       		.LONG	0
                                 02  00FC       		.BYTE	2
                                 04  00FD       		.BYTE	$$$
                               0003  00FE       		.WORD	4-1
                               0000  0100       		.WORD	0
                           00000100  0102       		.=.-2
                          0000 1900  0100       		.WORD	^O14400,0
                           00000102  0104       		.=.-2
                          0000 1908  0102       		.WORD	^O14410,0
                           00000104  0106       		.=.-2
                          0000 1910  0104       		.WORD	^O14420,0
                           00000106  0108       		.=.-2
                          0000 1918  0106       		.WORD	^O14430,0
                           00000108  010A       		.=.-2
                          0000 1920  0108       		.WORD	^O14440,0
                           0000010A  010C       		.=.-2
                          0000 1928  010A       		.WORD	^O14450,0
                           0000010C  010E       		.=.-2
                          0000 1930  010C       		.WORD	^O14460,0
                           0000010E  0110       		.=.-2
                          0000 1938  010E       		.WORD	^O14470,0
                           00000110  0112       		.=.-2
                          0000 1940  0110       		.WORD	^O14500,0
                           00000112  0114       		.=.-2
                          0000 1948  0112       		.WORD	^O14510,0
                           00000114  0116       		.=.-2
                          0000 1950  0114       		.WORD	^O14520,0
                           00000116  0118       		.=.-2
                          0000 1958  0116       		.WORD	^O14530,0
                           00000118  011A       		.=.-2
                          0000 1960  0118       		.WORD	^O14540,0
                           0000011A  011C       		.=.-2
                          0000 1968  011A       		.WORD	^O14550,0
                           0000011C  011E       		.=.-2
                          0000 1970  011C       		.WORD	^O14560,0
                           0000011E  0120       		.=.-2
                          0000 1978  011E       		.WORD	^O14570,0
                           00000120  0122       		.=.-2
                          0000 1980  0120       		.WORD	^O14600,0
                           00000122  0124       		.=.-2
                          0000 1988  0122       		.WORD	^O14610,0
                           00000124  0126       		.=.-2
                          0000 1990  0124       		.WORD	^O14620,0
                           00000126  0128       		.=.-2
                          0000 1998  0126       		.WORD	^O14630,0
                           00000128  012A       		.=.-2
                          0000 19A0  0128       		.WORD	^O14640,0
                           0000012A  012C       		.=.-2
                          0000 19A8  012A       		.WORD	^O14650,0
                           0000012C  012E       		.=.-2
                          0000 19B0  012C       		.WORD	^O14660,0
                           0000012E  0130       		.=.-2
                          0000 19B8  012E       		.WORD	^O14670,0
                           00000130  0132       		.=.-2
                          0000 19C0  0130       		.WORD	^O14700,0
                           00000132  0134       		.=.-2
AUTOCONFG       - AUTO CONFIGURATION OF DEVICE DATA BASE         21-AUG-1978 22:25:01   VAX-11 MACRO X0.3-11               Page  11
01                                                                                                                               (1)

                          0000 19C8  0132       		.WORD	^O14710,0
                           00000134  0136       		.=.-2
                          0000 19D0  0134       		.WORD	^O14720,0
                           00000136  0138       		.=.-2
                          0000 19D8  0136       		.WORD	^O14730,0
                           00000138  013A       		.=.-2
                          0000 19E0  0138       		.WORD	^O14740,0
                           0000013A  013C       		.=.-2
                          0000 19E8  013A       		.WORD	^O14750,0
                           0000013C  013E       		.=.-2
                          0000 19F0  013C       		.WORD	^O14760,0
                           0000013E  0140       		.=.-2
                          0000 19F8  013E       		.WORD	^O14770,0
                                 00000052       		.PSECT	ACF$DATA
                           000000F0' 0052       		.LONG	$DEVDESC$
                                     0056  2540 	UBADEV	DNA,DNDRIVER,DN11,1,FIXED,FLOAT,<-
                                     0056  2550 		<^O15200>,<^O15210>,<^O15220>,<^O15230>,-
                                     0056  2560 		<^O15240>,<^O15250>,<^O15260>,<^O15270>,-
                                     0056  2570 		<^O15300>,<^O15310>,<^O15320>,<^O15330>,-
                                     0056  2580 		<^O15340>,<^O15350>,<^O15360>,<^O15370>>,4,NOSUPPORT
                                 00000024       		.PSECT	ACF$DEVNAME
                        41 4E 44 00' 0024       		.ASCIC	\DNA\
                                 03  0024
                                 00000024       		.PSECT	ACF$RESET
                           00000028' 0024       		.ADDRESS $$$
                                 00000051       		.PSECT	ACF$DRVNAME
         52 45 56 49 52 44 4E 44 00' 0051       		.ASCIC	\DNDRIVER\
                                 08  0051
                                 00000142       		.PSECT	ACF$DEVDESC
                           00000024' 0142       		.LONG	$DEVNAME$
                           00000051' 0146       		.LONG	$DRVNAME$
                           00000000  014A       		.LONG	0
                                 01  014E       		.BYTE	1
                                 04  014F       		.BYTE	$$$
                               0003  0150       		.WORD	4-1
                               0000  0152       		.WORD	0
                           00000152  0154       		.=.-2
                          0000 1A80  0152       		.WORD	^O15200,0
                           00000154  0156       		.=.-2
                          0000 1A88  0154       		.WORD	^O15210,0
                           00000156  0158       		.=.-2
                          0000 1A90  0156       		.WORD	^O15220,0
                           00000158  015A       		.=.-2
                          0000 1A98  0158       		.WORD	^O15230,0
                           0000015A  015C       		.=.-2
                          0000 1AA0  015A       		.WORD	^O15240,0
                           0000015C  015E       		.=.-2
                          0000 1AA8  015C       		.WORD	^O15250,0
                           0000015E  0160       		.=.-2
                          0000 1AB0  015E       		.WORD	^O15260,0
                           00000160  0162       		.=.-2
                          0000 1AB8  0160       		.WORD	^O15270,0
                           00000162  0164       		.=.-2
                          0000 1AC0  0162       		.WORD	^O15300,0
                           00000164  0166       		.=.-2
                          0000 1AC8  0164       		.WORD	^O15310,0
                           00000166  0168       		.=.-2
AUTOCONFG       - AUTO CONFIGURATION OF DEVICE DATA BASE         21-AUG-1978 22:25:01   VAX-11 MACRO X0.3-11               Page  12
01                                                                                                                               (1)

                          0000 1AD0  0166       		.WORD	^O15320,0
                           00000168  016A       		.=.-2
                          0000 1AD8  0168       		.WORD	^O15330,0
                           0000016A  016C       		.=.-2
                          0000 1AE0  016A       		.WORD	^O15340,0
                           0000016C  016E       		.=.-2
                          0000 1AE8  016C       		.WORD	^O15350,0
                           0000016E  0170       		.=.-2
                          0000 1AF0  016E       		.WORD	^O15360,0
                           00000170  0172       		.=.-2
                          0000 1AF8  0170       		.WORD	^O15370,0
                                 00000056       		.PSECT	ACF$DATA
                           00000142' 0056       		.LONG	$DEVDESC$
                                     005A  2590 	UBADEV	DMBA,DMBDRIVER,DM11B,1,FIXED,FLOAT,<-
                                     005A  2600 		<^O10500>,<^O10510>,<^O10520>,<^O10530>,-
                                     005A  2610 		<^O10540>,<^O10550>,<^O10560>,<^O10570>,-
                                     005A  2620 		<^O10600>,<^O10610>,<^O10620>,<^O10630>,-
                                     005A  2630 		<^O10640>,<^O10650>,<^O10660>,<^O10670>>,4,NOSUPPORT
                                 00000028       		.PSECT	ACF$DEVNAME
                     41 42 4D 44 00' 0028       		.ASCIC	\DMBA\
                                 04  0028
                                 00000028       		.PSECT	ACF$RESET
                           0000002D' 0028       		.ADDRESS $$$
                                 0000005A       		.PSECT	ACF$DRVNAME
      52 45 56 49 52 44 42 4D 44 00' 005A       		.ASCIC	\DMBDRIVER\
                                 09  005A
                                 00000174       		.PSECT	ACF$DEVDESC
                           00000028' 0174       		.LONG	$DEVNAME$
                           0000005A' 0178       		.LONG	$DRVNAME$
                           00000000  017C       		.LONG	0
                                 01  0180       		.BYTE	1
                                 04  0181       		.BYTE	$$$
                               0003  0182       		.WORD	4-1
                               0000  0184       		.WORD	0
                           00000184  0186       		.=.-2
                          0000 1140  0184       		.WORD	^O10500,0
                           00000186  0188       		.=.-2
                          0000 1148  0186       		.WORD	^O10510,0
                           00000188  018A       		.=.-2
                          0000 1150  0188       		.WORD	^O10520,0
                           0000018A  018C       		.=.-2
                          0000 1158  018A       		.WORD	^O10530,0
                           0000018C  018E       		.=.-2
                          0000 1160  018C       		.WORD	^O10540,0
                           0000018E  0190       		.=.-2
                          0000 1168  018E       		.WORD	^O10550,0
                           00000190  0192       		.=.-2
                          0000 1170  0190       		.WORD	^O10560,0
                           00000192  0194       		.=.-2
                          0000 1178  0192       		.WORD	^O10570,0
                           00000194  0196       		.=.-2
                          0000 1180  0194       		.WORD	^O10600,0
                           00000196  0198       		.=.-2
                          0000 1188  0196       		.WORD	^O10610,0
                           00000198  019A       		.=.-2
                          0000 1190  0198       		.WORD	^O10620,0
                           0000019A  019C       		.=.-2
AUTOCONFG       - AUTO CONFIGURATION OF DEVICE DATA BASE         21-AUG-1978 22:25:01   VAX-11 MACRO X0.3-11               Page  13
01                                                                                                                               (1)

                          0000 1198  019A       		.WORD	^O10630,0
                           0000019C  019E       		.=.-2
                          0000 11A0  019C       		.WORD	^O10640,0
                           0000019E  01A0       		.=.-2
                          0000 11A8  019E       		.WORD	^O10650,0
                           000001A0  01A2       		.=.-2
                          0000 11B0  01A0       		.WORD	^O10660,0
                           000001A2  01A4       		.=.-2
                          0000 11B8  01A2       		.WORD	^O10670,0
                                 0000005A       		.PSECT	ACF$DATA
                           00000174' 005A       		.LONG	$DEVDESC$
                                     005E  2640 	UBADEV	DR1B,DRBDRIVER,DR11B,2,FIXED,FLOAT,<-
                                     005E  2650 		<^O12430>,<^O12450>,<^O12470>>,8,NOSUPPORT
                                 0000002D       		.PSECT	ACF$DEVNAME
                     42 31 52 44 00' 002D       		.ASCIC	\DR1B\
                                 04  002D
                                 0000002C       		.PSECT	ACF$RESET
                           00000032' 002C       		.ADDRESS $$$
                                 00000064       		.PSECT	ACF$DRVNAME
      52 45 56 49 52 44 42 52 44 00' 0064       		.ASCIC	\DRBDRIVER\
                                 09  0064
                                 000001A6       		.PSECT	ACF$DEVDESC
                           0000002D' 01A6       		.LONG	$DEVNAME$
                           00000064' 01AA       		.LONG	$DRVNAME$
                           00000000  01AE       		.LONG	0
                                 02  01B2       		.BYTE	2
                                 04  01B3       		.BYTE	$$$
                               0007  01B4       		.WORD	8-1
                               0000  01B6       		.WORD	0
                           000001B6  01B8       		.=.-2
                          0000 1518  01B6       		.WORD	^O12430,0
                           000001B8  01BA       		.=.-2
                          0000 1528  01B8       		.WORD	^O12450,0
                           000001BA  01BC       		.=.-2
                          0000 1538  01BA       		.WORD	^O12470,0
                                 0000005E       		.PSECT	ACF$DATA
                           000001A6' 005E       		.LONG	$DEVDESC$
                                     0062  2660 	UBADEV	DR1C,DRCDRIVER,DR11C,2,FIXED,FLOAT,<-
                                     0062  2670 		<^O7770>,<^O7760>,<^O7750>,<^O7740>>,8,NOSUPPORT
                                 00000032       		.PSECT	ACF$DEVNAME
                     43 31 52 44 00' 0032       		.ASCIC	\DR1C\
                                 04  0032
                                 00000030       		.PSECT	ACF$RESET
                           00000037' 0030       		.ADDRESS $$$
                                 0000006E       		.PSECT	ACF$DRVNAME
      52 45 56 49 52 44 43 52 44 00' 006E       		.ASCIC	\DRCDRIVER\
                                 09  006E
                                 000001BE       		.PSECT	ACF$DEVDESC
                           00000032' 01BE       		.LONG	$DEVNAME$
                           0000006E' 01C2       		.LONG	$DRVNAME$
                           00000000  01C6       		.LONG	0
                                 02  01CA       		.BYTE	2
                                 04  01CB       		.BYTE	$$$
                               0007  01CC       		.WORD	8-1
                               0000  01CE       		.WORD	0
                           000001CE  01D0       		.=.-2
                          0000 0FF8  01CE       		.WORD	^O7770,0
AUTOCONFG       - AUTO CONFIGURATION OF DEVICE DATA BASE         21-AUG-1978 22:25:01   VAX-11 MACRO X0.3-11               Page  14
01                                                                                                                               (1)

                           000001D0  01D2       		.=.-2
                          0000 0FF0  01D0       		.WORD	^O7760,0
                           000001D2  01D4       		.=.-2
                          0000 0FE8  01D2       		.WORD	^O7750,0
                           000001D4  01D6       		.=.-2
                          0000 0FE0  01D4       		.WORD	^O7740,0
                                 00000062       		.PSECT	ACF$DATA
                           000001BE' 0062       		.LONG	$DEVDESC$
                                     0066  2680 	UBADEV	PRA,PRDRIVER,PR611,1,FIXED,FLOAT,<-
                                     0066  2690 		<^O12600>,<^O12610>,<^O12620>,<^O12630>,-
                                     0066  2700 		<^O12640>,<^O12650>,<^O12660>,<^O12670>>,8,NOSUPPORT
                                 00000037       		.PSECT	ACF$DEVNAME
                        41 52 50 00' 0037       		.ASCIC	\PRA\
                                 03  0037
                                 00000034       		.PSECT	ACF$RESET
                           0000003B' 0034       		.ADDRESS $$$
                                 00000078       		.PSECT	ACF$DRVNAME
         52 45 56 49 52 44 52 50 00' 0078       		.ASCIC	\PRDRIVER\
                                 08  0078
                                 000001D8       		.PSECT	ACF$DEVDESC
                           00000037' 01D8       		.LONG	$DEVNAME$
                           00000078' 01DC       		.LONG	$DRVNAME$
                           00000000  01E0       		.LONG	0
                                 01  01E4       		.BYTE	1
                                 04  01E5       		.BYTE	$$$
                               0007  01E6       		.WORD	8-1
                               0000  01E8       		.WORD	0
                           000001E8  01EA       		.=.-2
                          0000 1580  01E8       		.WORD	^O12600,0
                           000001EA  01EC       		.=.-2
                          0000 1588  01EA       		.WORD	^O12610,0
                           000001EC  01EE       		.=.-2
                          0000 1590  01EC       		.WORD	^O12620,0
                           000001EE  01F0       		.=.-2
                          0000 1598  01EE       		.WORD	^O12630,0
                           000001F0  01F2       		.=.-2
                          0000 15A0  01F0       		.WORD	^O12640,0
                           000001F2  01F4       		.=.-2
                          0000 15A8  01F2       		.WORD	^O12650,0
                           000001F4  01F6       		.=.-2
                          0000 15B0  01F4       		.WORD	^O12660,0
                           000001F6  01F8       		.=.-2
                          0000 15B8  01F6       		.WORD	^O12670,0
                                 00000066       		.PSECT	ACF$DATA
                           000001D8' 0066       		.LONG	$DEVDESC$
                                     006A  2710 	UBADEV	PPA,PPDRIVER,PP611,1,FIXED,FLOAT,<-
                                     006A  2720 		<^O12700>,<^O12710>,<^O12720>,<^O12730>,-
                                     006A  2730 		<^O12740>,<^O12750>,<^O12760>,<^O12770>>,8,NOSUPPORT
                                 0000003B       		.PSECT	ACF$DEVNAME
                        41 50 50 00' 003B       		.ASCIC	\PPA\
                                 03  003B
                                 00000038       		.PSECT	ACF$RESET
                           0000003F' 0038       		.ADDRESS $$$
                                 00000081       		.PSECT	ACF$DRVNAME
         52 45 56 49 52 44 50 50 00' 0081       		.ASCIC	\PPDRIVER\
                                 08  0081
                                 000001FA       		.PSECT	ACF$DEVDESC
AUTOCONFG       - AUTO CONFIGURATION OF DEVICE DATA BASE         21-AUG-1978 22:25:01   VAX-11 MACRO X0.3-11               Page  15
01                                                                                                                               (1)

                           0000003B' 01FA       		.LONG	$DEVNAME$
                           00000081' 01FE       		.LONG	$DRVNAME$
                           00000000  0202       		.LONG	0
                                 01  0206       		.BYTE	1
                                 04  0207       		.BYTE	$$$
                               0007  0208       		.WORD	8-1
                               0000  020A       		.WORD	0
                           0000020A  020C       		.=.-2
                          0000 15C0  020A       		.WORD	^O12700,0
                           0000020C  020E       		.=.-2
                          0000 15C8  020C       		.WORD	^O12710,0
                           0000020E  0210       		.=.-2
                          0000 15D0  020E       		.WORD	^O12720,0
                           00000210  0212       		.=.-2
                          0000 15D8  0210       		.WORD	^O12730,0
                           00000212  0214       		.=.-2
                          0000 15E0  0212       		.WORD	^O12740,0
                           00000214  0216       		.=.-2
                          0000 15E8  0214       		.WORD	^O12750,0
                           00000216  0218       		.=.-2
                          0000 15F0  0216       		.WORD	^O12760,0
                           00000218  021A       		.=.-2
                          0000 15F8  0218       		.WORD	^O12770,0
                                 0000006A       		.PSECT	ACF$DATA
                           000001FA' 006A       		.LONG	$DEVDESC$
                                     006E  2740 	UBADEV	DTA,DTDRIVER,DT11,2,FIXED,FLOAT,<-
                                     006E  2750 		<^O17420>,<^O17422>,<^O17424>,<^O17426>,-
                                     006E  2760 		<^O17430>,<^O17432>,<^O17434>,<^O17436>>,8,NOSUPPORT
                                 0000003F       		.PSECT	ACF$DEVNAME
                        41 54 44 00' 003F       		.ASCIC	\DTA\
                                 03  003F
                                 0000003C       		.PSECT	ACF$RESET
                           00000043' 003C       		.ADDRESS $$$
                                 0000008A       		.PSECT	ACF$DRVNAME
         52 45 56 49 52 44 54 44 00' 008A       		.ASCIC	\DTDRIVER\
                                 08  008A
                                 0000021C       		.PSECT	ACF$DEVDESC
                           0000003F' 021C       		.LONG	$DEVNAME$
                           0000008A' 0220       		.LONG	$DRVNAME$
                           00000000  0224       		.LONG	0
                                 02  0228       		.BYTE	2
                                 04  0229       		.BYTE	$$$
                               0007  022A       		.WORD	8-1
                               0000  022C       		.WORD	0
                           0000022C  022E       		.=.-2
                          0000 1F10  022C       		.WORD	^O17420,0
                           0000022E  0230       		.=.-2
                          0000 1F12  022E       		.WORD	^O17422,0
                           00000230  0232       		.=.-2
                          0000 1F14  0230       		.WORD	^O17424,0
                           00000232  0234       		.=.-2
                          0000 1F16  0232       		.WORD	^O17426,0
                           00000234  0236       		.=.-2
                          0000 1F18  0234       		.WORD	^O17430,0
                           00000236  0238       		.=.-2
                          0000 1F1A  0236       		.WORD	^O17432,0
                           00000238  023A       		.=.-2
AUTOCONFG       - AUTO CONFIGURATION OF DEVICE DATA BASE         21-AUG-1978 22:25:01   VAX-11 MACRO X0.3-11               Page  16
01                                                                                                                               (1)

                          0000 1F1C  0238       		.WORD	^O17434,0
                           0000023A  023C       		.=.-2
                          0000 1F1E  023A       		.WORD	^O17436,0
                                 0000006E       		.PSECT	ACF$DATA
                           0000021C' 006E       		.LONG	$DEVDESC$
                                     0072  2770 	UBADEV	DXAA,DXADRIVER,DX11,2,FIXED,FLOAT,<-
                                     0072  2780 		<^O16200>,<^O16220>,<^O16240>,<^O16260>>,8,NOSUPPORT
                                 00000043       		.PSECT	ACF$DEVNAME
                     41 41 58 44 00' 0043       		.ASCIC	\DXAA\
                                 04  0043
                                 00000040       		.PSECT	ACF$RESET
                           00000048' 0040       		.ADDRESS $$$
                                 00000093       		.PSECT	ACF$DRVNAME
      52 45 56 49 52 44 41 58 44 00' 0093       		.ASCIC	\DXADRIVER\
                                 09  0093
                                 0000023E       		.PSECT	ACF$DEVDESC
                           00000043' 023E       		.LONG	$DEVNAME$
                           00000093' 0242       		.LONG	$DRVNAME$
                           00000000  0246       		.LONG	0
                                 02  024A       		.BYTE	2
                                 04  024B       		.BYTE	$$$
                               0007  024C       		.WORD	8-1
                               0000  024E       		.WORD	0
                           0000024E  0250       		.=.-2
                          0000 1C80  024E       		.WORD	^O16200,0
                           00000250  0252       		.=.-2
                          0000 1C90  0250       		.WORD	^O16220,0
                           00000252  0254       		.=.-2
                          0000 1CA0  0252       		.WORD	^O16240,0
                           00000254  0256       		.=.-2
                          0000 1CB0  0254       		.WORD	^O16260,0
                                 00000072       		.PSECT	ACF$DATA
                           0000023E' 0072       		.LONG	$DEVDESC$
                                     0076  2790 	UBADEV	DLCA,DLCDRIVER,DL11C,2,FIXED,FLOAT,<-
                                     0076  2800 		<^O15610>,<^O15620>,<^O15630>,<^O15640>,-
                                     0076  2810 		<^O15650>,<^O15660>,<^O15670>,<^O15700>,-
                                     0076  2820 		<^O15710>,<^O15720>,<^O15730>,<^O15740>,-
                                     0076  2830 		<^O15750>,<^O15760>,<^O15770>,<^O16000>,-
                                     0076  2840 		<^O16010>,<^O16020>,<^O16030>,<^O16040>,-
                                     0076  2850 		<^O16050>,<^O16060>,<^O16070>,<^O16100>,-
                                     0076  2860 		<^O16110>,<^O16120>,<^O16130>,<^O16140>,-
                                     0076  2870 		<^O16150>,<^O16160>,<^O16170>>,4,NOSUPPORT
                                 00000048       		.PSECT	ACF$DEVNAME
                     41 43 4C 44 00' 0048       		.ASCIC	\DLCA\
                                 04  0048
                                 00000044       		.PSECT	ACF$RESET
                           0000004D' 0044       		.ADDRESS $$$
                                 0000009D       		.PSECT	ACF$DRVNAME
      52 45 56 49 52 44 43 4C 44 00' 009D       		.ASCIC	\DLCDRIVER\
                                 09  009D
                                 00000258       		.PSECT	ACF$DEVDESC
                           00000048' 0258       		.LONG	$DEVNAME$
                           0000009D' 025C       		.LONG	$DRVNAME$
                           00000000  0260       		.LONG	0
                                 02  0264       		.BYTE	2
                                 04  0265       		.BYTE	$$$
                               0003  0266       		.WORD	4-1
AUTOCONFG       - AUTO CONFIGURATION OF DEVICE DATA BASE         21-AUG-1978 22:25:01   VAX-11 MACRO X0.3-11               Page  17
01                                                                                                                               (1)

                               0000  0268       		.WORD	0
                           00000268  026A       		.=.-2
                          0000 1B88  0268       		.WORD	^O15610,0
                           0000026A  026C       		.=.-2
                          0000 1B90  026A       		.WORD	^O15620,0
                           0000026C  026E       		.=.-2
                          0000 1B98  026C       		.WORD	^O15630,0
                           0000026E  0270       		.=.-2
                          0000 1BA0  026E       		.WORD	^O15640,0
                           00000270  0272       		.=.-2
                          0000 1BA8  0270       		.WORD	^O15650,0
                           00000272  0274       		.=.-2
                          0000 1BB0  0272       		.WORD	^O15660,0
                           00000274  0276       		.=.-2
                          0000 1BB8  0274       		.WORD	^O15670,0
                           00000276  0278       		.=.-2
                          0000 1BC0  0276       		.WORD	^O15700,0
                           00000278  027A       		.=.-2
                          0000 1BC8  0278       		.WORD	^O15710,0
                           0000027A  027C       		.=.-2
                          0000 1BD0  027A       		.WORD	^O15720,0
                           0000027C  027E       		.=.-2
                          0000 1BD8  027C       		.WORD	^O15730,0
                           0000027E  0280       		.=.-2
                          0000 1BE0  027E       		.WORD	^O15740,0
                           00000280  0282       		.=.-2
                          0000 1BE8  0280       		.WORD	^O15750,0
                           00000282  0284       		.=.-2
                          0000 1BF0  0282       		.WORD	^O15760,0
                           00000284  0286       		.=.-2
                          0000 1BF8  0284       		.WORD	^O15770,0
                           00000286  0288       		.=.-2
                          0000 1C00  0286       		.WORD	^O16000,0
                           00000288  028A       		.=.-2
                          0000 1C08  0288       		.WORD	^O16010,0
                           0000028A  028C       		.=.-2
                          0000 1C10  028A       		.WORD	^O16020,0
                           0000028C  028E       		.=.-2
                          0000 1C18  028C       		.WORD	^O16030,0
                           0000028E  0290       		.=.-2
                          0000 1C20  028E       		.WORD	^O16040,0
                           00000290  0292       		.=.-2
                          0000 1C28  0290       		.WORD	^O16050,0
                           00000292  0294       		.=.-2
                          0000 1C30  0292       		.WORD	^O16060,0
                           00000294  0296       		.=.-2
                          0000 1C38  0294       		.WORD	^O16070,0
                           00000296  0298       		.=.-2
                          0000 1C40  0296       		.WORD	^O16100,0
                           00000298  029A       		.=.-2
                          0000 1C48  0298       		.WORD	^O16110,0
                           0000029A  029C       		.=.-2
                          0000 1C50  029A       		.WORD	^O16120,0
                           0000029C  029E       		.=.-2
                          0000 1C58  029C       		.WORD	^O16130,0
                           0000029E  02A0       		.=.-2
                          0000 1C60  029E       		.WORD	^O16140,0
AUTOCONFG       - AUTO CONFIGURATION OF DEVICE DATA BASE         21-AUG-1978 22:25:01   VAX-11 MACRO X0.3-11               Page  18
01                                                                                                                               (1)

                           000002A0  02A2       		.=.-2
                          0000 1C68  02A0       		.WORD	^O16150,0
                           000002A2  02A4       		.=.-2
                          0000 1C70  02A2       		.WORD	^O16160,0
                           000002A4  02A6       		.=.-2
                          0000 1C78  02A4       		.WORD	^O16170,0
                                 00000076       		.PSECT	ACF$DATA
                           00000258' 0076       		.LONG	$DEVDESC$
                                     007A  2880 	UBADEV	DJA,DJDRIVER,DJ11,2,FLOAT,FLOAT,8,4,NOSUPPORT ;
                                 0000004D       		.PSECT	ACF$DEVNAME
                        41 4A 44 00' 004D       		.ASCIC	\DJA\
                                 03  004D
                                 00000048       		.PSECT	ACF$RESET
                           00000051' 0048       		.ADDRESS $$$
                                 000000A7       		.PSECT	ACF$DRVNAME
         52 45 56 49 52 44 4A 44 00' 00A7       		.ASCIC	\DJDRIVER\
                                 08  00A7
                                 000002A8       		.PSECT	ACF$DEVDESC
                           0000004D' 02A8       		.LONG	$DEVNAME$
                           000000A7' 02AC       		.LONG	$DRVNAME$
                           00000000  02B0       		.LONG	0
                                 02  02B4       		.BYTE	2
                                 06  02B5       		.BYTE	$$$!UBA_M_FLOATCSR
                               0003  02B6       		.WORD	4-1
                               0007  02B8       		.WORD	8-1
                                 0000007A       		.PSECT	ACF$DATA
                           000002A8' 007A       		.LONG	$DEVDESC$
                                     007E  2890 	UBADEV	DHA,DHDRIVER,DH11,2,FLOAT,FLOAT,16,4,NOSUPPORT ;
                                 00000051       		.PSECT	ACF$DEVNAME
                        41 48 44 00' 0051       		.ASCIC	\DHA\
                                 03  0051
                                 0000004C       		.PSECT	ACF$RESET
                           00000055' 004C       		.ADDRESS $$$
                                 000000B0       		.PSECT	ACF$DRVNAME
         52 45 56 49 52 44 48 44 00' 00B0       		.ASCIC	\DHDRIVER\
                                 08  00B0
                                 000002BA       		.PSECT	ACF$DEVDESC
                           00000051' 02BA       		.LONG	$DEVNAME$
                           000000B0' 02BE       		.LONG	$DRVNAME$
                           00000000  02C2       		.LONG	0
                                 02  02C6       		.BYTE	2
                                 06  02C7       		.BYTE	$$$!UBA_M_FLOATCSR
                               0003  02C8       		.WORD	4-1
                               000F  02CA       		.WORD	16-1
                                 0000007E       		.PSECT	ACF$DATA
                           000002BA' 007E       		.LONG	$DEVDESC$
                                     0082  2900 	UBADEV	GTA,GTDRIVER,GT40,4,FIXED,FLOAT,<<^O12000>,<^O12010>>,4,NOSUPPORT
                                 00000055       		.PSECT	ACF$DEVNAME
                        41 54 47 00' 0055       		.ASCIC	\GTA\
                                 03  0055
                                 00000050       		.PSECT	ACF$RESET
                           00000059' 0050       		.ADDRESS $$$
                                 000000B9       		.PSECT	ACF$DRVNAME
         52 45 56 49 52 44 54 47 00' 00B9       		.ASCIC	\GTDRIVER\
                                 08  00B9
                                 000002CC       		.PSECT	ACF$DEVDESC
                           00000055' 02CC       		.LONG	$DEVNAME$
AUTOCONFG       - AUTO CONFIGURATION OF DEVICE DATA BASE         21-AUG-1978 22:25:01   VAX-11 MACRO X0.3-11               Page  19
01                                                                                                                               (1)

                           000000B9' 02D0       		.LONG	$DRVNAME$
                           00000000  02D4       		.LONG	0
                                 04  02D8       		.BYTE	4
                                 04  02D9       		.BYTE	$$$
                               0003  02DA       		.WORD	4-1
                               0000  02DC       		.WORD	0
                           000002DC  02DE       		.=.-2
                          0000 1400  02DC       		.WORD	^O12000,0
                           000002DE  02E0       		.=.-2
                          0000 1408  02DE       		.WORD	^O12010,0
                                 00000082       		.PSECT	ACF$DATA
                           000002CC' 0082       		.LONG	$DEVDESC$
                                     0086  2910 	UBADEV	LPSA,LPSDRIVER,LPS11,6,FIXED,FLOAT,<<^O10400>>,8,NOSUPPORT
                                 00000059       		.PSECT	ACF$DEVNAME
                     41 53 50 4C 00' 0059       		.ASCIC	\LPSA\
                                 04  0059
                                 00000054       		.PSECT	ACF$RESET
                           0000005E' 0054       		.ADDRESS $$$
                                 000000C2       		.PSECT	ACF$DRVNAME
      52 45 56 49 52 44 53 50 4C 00' 00C2       		.ASCIC	\LPSDRIVER\
                                 09  00C2
                                 000002E2       		.PSECT	ACF$DEVDESC
                           00000059' 02E2       		.LONG	$DEVNAME$
                           000000C2' 02E6       		.LONG	$DRVNAME$
                           00000000  02EA       		.LONG	0
                                 06  02EE       		.BYTE	6
                                 04  02EF       		.BYTE	$$$
                               0007  02F0       		.WORD	8-1
                               0000  02F2       		.WORD	0
                           000002F2  02F4       		.=.-2
                          0000 1100  02F2       		.WORD	^O10400,0
                                 00000086       		.PSECT	ACF$DATA
                           000002E2' 0086       		.LONG	$DEVDESC$
                                     008A  2920 	UBADEV	DQA,DQDRIVER,DQ11,2,FLOAT,FLOAT,8,4,NOSUPPORT ;
                                 0000005E       		.PSECT	ACF$DEVNAME
                        41 51 44 00' 005E       		.ASCIC	\DQA\
                                 03  005E
                                 00000058       		.PSECT	ACF$RESET
                           00000062' 0058       		.ADDRESS $$$
                                 000000CC       		.PSECT	ACF$DRVNAME
         52 45 56 49 52 44 51 44 00' 00CC       		.ASCIC	\DQDRIVER\
                                 08  00CC
                                 000002F6       		.PSECT	ACF$DEVDESC
                           0000005E' 02F6       		.LONG	$DEVNAME$
                           000000CC' 02FA       		.LONG	$DRVNAME$
                           00000000  02FE       		.LONG	0
                                 02  0302       		.BYTE	2
                                 06  0303       		.BYTE	$$$!UBA_M_FLOATCSR
                               0003  0304       		.WORD	4-1
                               0007  0306       		.WORD	8-1
                                 0000008A       		.PSECT	ACF$DATA
                           000002F6' 008A       		.LONG	$DEVDESC$
                                     008E  2930 	UBADEV	KWWA,KWWDRIVER,KW11W,2,FIXED,FLOAT,<<^O12400>>,4,NOSUPPORT
                                 00000062       		.PSECT	ACF$DEVNAME
                     41 57 57 4B 00' 0062       		.ASCIC	\KWWA\
                                 04  0062
                                 0000005C       		.PSECT	ACF$RESET
AUTOCONFG       - AUTO CONFIGURATION OF DEVICE DATA BASE         21-AUG-1978 22:25:01   VAX-11 MACRO X0.3-11               Page  20
01                                                                                                                               (1)

                           00000067' 005C       		.ADDRESS $$$
                                 000000D5       		.PSECT	ACF$DRVNAME
      52 45 56 49 52 44 57 57 4B 00' 00D5       		.ASCIC	\KWWDRIVER\
                                 09  00D5
                                 00000308       		.PSECT	ACF$DEVDESC
                           00000062' 0308       		.LONG	$DEVNAME$
                           000000D5' 030C       		.LONG	$DRVNAME$
                           00000000  0310       		.LONG	0
                                 02  0314       		.BYTE	2
                                 04  0315       		.BYTE	$$$
                               0003  0316       		.WORD	4-1
                               0000  0318       		.WORD	0
                           00000318  031A       		.=.-2
                          0000 1500  0318       		.WORD	^O12400,0
                                 0000008E       		.PSECT	ACF$DATA
                           00000308' 008E       		.LONG	$DEVDESC$
                                     0092  2940 	UBADEV	DUA,DUDRIVER,DU11,2,FLOAT,FLOAT,8,4,NOSUPPORT ;
                                 00000067       		.PSECT	ACF$DEVNAME
                        41 55 44 00' 0067       		.ASCIC	\DUA\
                                 03  0067
                                 00000060       		.PSECT	ACF$RESET
                           0000006B' 0060       		.ADDRESS $$$
                                 000000DF       		.PSECT	ACF$DRVNAME
         52 45 56 49 52 44 55 44 00' 00DF       		.ASCIC	\DUDRIVER\
                                 08  00DF
                                 0000031C       		.PSECT	ACF$DEVDESC
                           00000067' 031C       		.LONG	$DEVNAME$
                           000000DF' 0320       		.LONG	$DRVNAME$
                           00000000  0324       		.LONG	0
                                 02  0328       		.BYTE	2
                                 06  0329       		.BYTE	$$$!UBA_M_FLOATCSR
                               0003  032A       		.WORD	4-1
                               0007  032C       		.WORD	8-1
                                 00000092       		.PSECT	ACF$DATA
                           0000031C' 0092       		.LONG	$DEVDESC$
                                     0096  2950 	UBADEV	DUP,DUPDRIVER,DUP11,2,FLOAT,FLOAT,8,4,NOSUPPORT ;
                                 0000006B       		.PSECT	ACF$DEVNAME
                        50 55 44 00' 006B       		.ASCIC	\DUP\
                                 03  006B
                                 00000064       		.PSECT	ACF$RESET
                           0000006F' 0064       		.ADDRESS $$$
                                 000000E8       		.PSECT	ACF$DRVNAME
      52 45 56 49 52 44 50 55 44 00' 00E8       		.ASCIC	\DUPDRIVER\
                                 09  00E8
                                 0000032E       		.PSECT	ACF$DEVDESC
                           0000006B' 032E       		.LONG	$DEVNAME$
                           000000E8' 0332       		.LONG	$DRVNAME$
                           00000000  0336       		.LONG	0
                                 02  033A       		.BYTE	2
                                 06  033B       		.BYTE	$$$!UBA_M_FLOATCSR
                               0003  033C       		.WORD	4-1
                               0007  033E       		.WORD	8-1
                                 00000096       		.PSECT	ACF$DATA
                           0000032E' 0096       		.LONG	$DEVDESC$
                                     009A  2960 	UBADEV	DVA,DVDRIVER,DV11,4,FIXED,FLOAT,<-
                                     009A  2970 		<^O15000>,<^O15020>,<^O15040>,<^O15060>>,4,NOSUPPORT
                                 0000006F       		.PSECT	ACF$DEVNAME
AUTOCONFG       - AUTO CONFIGURATION OF DEVICE DATA BASE         21-AUG-1978 22:25:01   VAX-11 MACRO X0.3-11               Page  21
01                                                                                                                               (1)

                        41 56 44 00' 006F       		.ASCIC	\DVA\
                                 03  006F
                                 00000068       		.PSECT	ACF$RESET
                           00000073' 0068       		.ADDRESS $$$
                                 000000F2       		.PSECT	ACF$DRVNAME
         52 45 56 49 52 44 56 44 00' 00F2       		.ASCIC	\DVDRIVER\
                                 08  00F2
                                 00000340       		.PSECT	ACF$DEVDESC
                           0000006F' 0340       		.LONG	$DEVNAME$
                           000000F2' 0344       		.LONG	$DRVNAME$
                           00000000  0348       		.LONG	0
                                 04  034C       		.BYTE	4
                                 04  034D       		.BYTE	$$$
                               0003  034E       		.WORD	4-1
                               0000  0350       		.WORD	0
                           00000350  0352       		.=.-2
                          0000 1A00  0350       		.WORD	^O15000,0
                           00000352  0354       		.=.-2
                          0000 1A10  0352       		.WORD	^O15020,0
                           00000354  0356       		.=.-2
                          0000 1A20  0354       		.WORD	^O15040,0
                           00000356  0358       		.=.-2
                          0000 1A30  0356       		.WORD	^O15060,0
                                 0000009A       		.PSECT	ACF$DATA
                           00000340' 009A       		.LONG	$DEVDESC$
                                     009E  2980 	UBADEV	LKA,LKDRIVER,LK11,2,FLOAT,FLOAT,8,4,NOSUPPORT ;
                                 00000073       		.PSECT	ACF$DEVNAME
                        41 4B 4C 00' 0073       		.ASCIC	\LKA\
                                 03  0073
                                 0000006C       		.PSECT	ACF$RESET
                           00000077' 006C       		.ADDRESS $$$
                                 000000FB       		.PSECT	ACF$DRVNAME
         52 45 56 49 52 44 4B 4C 00' 00FB       		.ASCIC	\LKDRIVER\
                                 08  00FB
                                 0000035A       		.PSECT	ACF$DEVDESC
                           00000073' 035A       		.LONG	$DEVNAME$
                           000000FB' 035E       		.LONG	$DRVNAME$
                           00000000  0362       		.LONG	0
                                 02  0366       		.BYTE	2
                                 06  0367       		.BYTE	$$$!UBA_M_FLOATCSR
                               0003  0368       		.WORD	4-1
                               0007  036A       		.WORD	8-1
                                 0000009E       		.PSECT	ACF$DATA
                           0000035A' 009E       		.LONG	$DEVDESC$
                                     00A2  2990 	UBADEV	XMA,XMDRIVER,DMC11,2,FLOAT,FLOAT,8,4 ;
                                 00000077       		.PSECT	ACF$DEVNAME
                        41 4D 58 00' 0077       		.ASCIC	\XMA\
                                 03  0077
                                 00000070       		.PSECT	ACF$RESET
                           0000007B' 0070       		.ADDRESS $$$
                                 00000104       		.PSECT	ACF$DRVNAME
         52 45 56 49 52 44 4D 58 00' 0104       		.ASCIC	\XMDRIVER\
                                 08  0104
                                 0000036C       		.PSECT	ACF$DEVDESC
                           00000077' 036C       		.LONG	$DEVNAME$
                           00000104' 0370       		.LONG	$DRVNAME$
                           00000297' 0374       		.LONG	ACF$DMC11
AUTOCONFG       - AUTO CONFIGURATION OF DEVICE DATA BASE         21-AUG-1978 22:25:01   VAX-11 MACRO X0.3-11               Page  22
01                                                                                                                               (1)

                                 02  0378       		.BYTE	2
                                 07  0379       		.BYTE	$$$!UBA_M_FLOATCSR
                               0003  037A       		.WORD	4-1
                               0007  037C       		.WORD	8-1
                                 000000A2       		.PSECT	ACF$DATA
                           0000036C' 00A2       		.LONG	$DEVDESC$
                                     00A6  3000 	UBADEV	TTA,DZDRIVER,DZ11,2,FLOAT,FLOAT,8,4 ;
                                 0000007B       		.PSECT	ACF$DEVNAME
                        41 54 54 00' 007B       		.ASCIC	\TTA\
                                 03  007B
                                 00000074       		.PSECT	ACF$RESET
                           0000007F' 0074       		.ADDRESS $$$
                                 0000010D       		.PSECT	ACF$DRVNAME
         52 45 56 49 52 44 5A 44 00' 010D       		.ASCIC	\DZDRIVER\
                                 08  010D
                                 0000037E       		.PSECT	ACF$DEVDESC
                           0000007B' 037E       		.LONG	$DEVNAME$
                           0000010D' 0382       		.LONG	$DRVNAME$
                           00000320' 0386       		.LONG	ACF$DZ11
                                 02  038A       		.BYTE	2
                                 07  038B       		.BYTE	$$$!UBA_M_FLOATCSR
                               0003  038C       		.WORD	4-1
                               0007  038E       		.WORD	8-1
                                 000000A6       		.PSECT	ACF$DATA
                           0000037E' 00A6       		.LONG	$DEVDESC$
                                     00AA  3010 	UBADEV	LAA,LADRIVER,LPA11,2,FIXED,FLOAT,<-
                                     00AA  3020 		<^O10460>,<^O10500>,<^O10520>,<^O10540>>,4
                                 0000007F       		.PSECT	ACF$DEVNAME
                        41 41 4C 00' 007F       		.ASCIC	\LAA\
                                 03  007F
                                 00000078       		.PSECT	ACF$RESET
                           00000083' 0078       		.ADDRESS $$$
                                 00000116       		.PSECT	ACF$DRVNAME
         52 45 56 49 52 44 41 4C 00' 0116       		.ASCIC	\LADRIVER\
                                 08  0116
                                 00000390       		.PSECT	ACF$DEVDESC
                           0000007F' 0390       		.LONG	$DEVNAME$
                           00000116' 0394       		.LONG	$DRVNAME$
                           00000297' 0398       		.LONG	ACF$LPA11
                                 02  039C       		.BYTE	2
                                 05  039D       		.BYTE	$$$
                               0003  039E       		.WORD	4-1
                               0000  03A0       		.WORD	0
                           000003A0  03A2       		.=.-2
                          0000 1130  03A0       		.WORD	^O10460,0
                           000003A2  03A4       		.=.-2
                          0000 1140  03A2       		.WORD	^O10500,0
                           000003A4  03A6       		.=.-2
                          0000 1150  03A4       		.WORD	^O10520,0
                           000003A6  03A8       		.=.-2
                          0000 1160  03A6       		.WORD	^O10540,0
                                 000000AA       		.PSECT	ACF$DATA
                           00000390' 00AA       		.LONG	$DEVDESC$
                           00000000  00AE  3030 	.LONG	0		;
                                     00B2  3040
                                     00B2  3050 ;
                                     00B2  3060 ; CONTROLLER DESIGNATOR RESET POINTER TABLE END
AUTOCONFG       - AUTO CONFIGURATION OF DEVICE DATA BASE         21-AUG-1978 22:25:01   VAX-11 MACRO X0.3-11               Page  23
01                                                                                                                               (1)

                                     00B2  3070 ;
                                     00B2  3080
                                 0000007C  3090 	.PSECT	ACF$RESET
                           00000000  007C  3100 	.LONG	0		;
                                     0080  3110
                                     0080  3120 ;
                                     0080  3130 ; UBA VECTOR AND CSR BASE OFFSETS
                                     0080  3140 ;
                                     0080  3150
                                 000000B2  3160 	.PSECT	ACF$DATA
                                     00B2  3170 ACF$W_CSRBASE:				;
                           000000B4  00B2  3180 	.BLKW	1			;
                                     00B4  3190 ACF$W_VECBASE:				;
                           000000B6  00B4  3200 	.BLKW	1			;
                                     00B6  3210 	.NLIST	MEB
AUTOCONFG       - AUTO CONFIGURATION OF DEVICE DATA BASE         21-AUG-1978 22:25:01   VAX-11 MACRO X0.3-11               Page  24
01              AUTO CONFIGURATION OF DEVICE DATA BASE                                                                           (1)

                                     00B6  3230 	.SBTTL	AUTO CONFIGURATION OF DEVICE DATA BASE
                                     00B6  3240 ;+
                                     00B6  3250 ; IOC$AUTOCONFIG - AUTO CONFIGURATION OF DEVICE DATA BASE
                                     00B6  3260 ;
                                     00B6  3270 ; THIS ROUTINE IS CALLED TO AUTO CONFIGURE THE DEVICE DATA BASE FOR A SINGLE ADAPTER
                                     00B6  3280 ;
                                     00B6  3290 ; INPUTS:
                                     00B6  3300 ;
                                     00B6  3310 ;	R6 = ADDRESS OF CONFIGURATION STATUS REGISTER.
                                     00B6  3320 ;	R7 = ADDRESS OF CONFIGURATION CONTROL BLOCK.
                                     00B6  3330 ;	R8 = ADDRESS OF ADAPTER CONTROL BLOCK.
                                     00B6  3340 ;
                                     00B6  3350 ; OUTPUTS:
                                     00B6  3360 ;
                                     00B6  3370 ;-
                                     00B6  3380
                                 00000000  3390 	.PSECT	ACF$CODE
                                     0000  3400 IOC$AUTOCONFIG::		;AUTO CONFIGURE DEVICE DATA BASE
            50       0000'CF     9E  0000  3410 	MOVAB	W^ACF$AB_ADPTYPE,R0	;GET ADDRESS OF ADAPTER TABLE
         0E A8            80     B1  0005  3420 10$:	CMPW	(R0)+,ADP$W_ADPTYPE(R8)	;ADAPTER TYPE MATCH?
                          0A     13  0009  3430 	BEQL	20$		;IF EQL YES
            50            04     C0  000B  3440 	ADDL	#ADAPTERLEN-2,R0	;ADVANCE TO NEXT ENTRY
                          60     B5  000E  3450 	TSTW	(R0)		;ANY MORE ENTRIES IN TABLE?
                          F3     12  0010  3460 	BNEQ	10$		;IF NEQ YES
                          50     D4  0012  3470 	CLRL	R0		;INDICATE NO ADAPTER
                                 05  0014  3480 	RSB			;
                                     0015  3490
                                     0015  3500 ;
                                     0015  3510 ; ADAPTER TYPE MATCH - INITIALIZE CONFIGURATION BLOCK AND DISPATCH TO ADAPTER CODE
                                     0015  3520 ;
                                     0015  3530
            67            58     D0  0015  3540 20$:	MOVL	R8,ACF$L_ADAPTER(R7)	;SET ADDRESS OF ADAPTER CONTROL BLOCK
         04 A7            56     D0  0018  3550 	MOVL	R6,ACF$L_CONFIGREG(R7)	;SET ADDRESS OF CONFIGURATION STATUS REGISTER
         0C A8            04     A5  001C  3560 	MULW3	#4,ADP$W_TR(R8),R1	;CALCULATE OFFSET IN DEVICE VECTOR AREA
                          51         0020
            51       0100 8F     A1  0021  3570 	ADDW3	#^X100,R1,ACF$W_AVECTOR(R7) ;INSERT ADAPTER VECTOR OFFSET
                       08 A7         0026
                          90     17  0028  3580 	JMP	@(R0)+		;DISPATCH TO PROPER ROUTINE
AUTOCONFG       - AUTO CONFIGURATION OF DEVICE DATA BASE         21-AUG-1978 22:25:01   VAX-11 MACRO X0.3-11               Page  25
01              ACF$MBA - MASSBUS ADAPTER AUTO CONFIGURATION                                                                     (1)

                                     002A  3600 	.SBTTL	ACF$MBA - MASSBUS ADAPTER AUTO CONFIGURATION
                                     002A  3610 ;
                                     002A  3620 ; ACF$MBA - MASSBUS ADAPTER AUTO CONFIGURATION
                                     002A  3630 ;
                                     002A  3640 ; THIS ROUTINE IS CALLED TO AUTO CONFIGURE A MASSBUS ADAPTER.
                                     002A  3650 ;
                                     002A  3660 ; INPUTS:
                                     002A  3670 ;
                                     002A  3680 ;	R6 = ADDRESS OF CONFIGURATION STATUS REGISTER.
                                     002A  3690 ;	R7 = ADDRESS OF CONFIGURATION CONTROL BLOCK.
                                     002A  3700 ;	R8 = ADDRESS OF ADAPTER CONTROL BLOCK.
                                     002A  3710 ;
                                     002A  3720 ; OUTPUTS:
                                     002A  3730 ;
                                     002A  3740 ;	A SCAN IS MADE FOR EACH OF THE POSSIBLE DRIVE TYPES THAT CAN BE ATTACHED
                                     002A  3750 ;	TO THE ADAPTER. AS EACH DRIVE TYPE IS ENCOUNTERED, A CO-ROUTINE CALL IS
                                     002A  3760 ;	MADE TO THE CALLER DELIVERING THE DEVICE UNIT DESCRIPTOR.
                                     002A  3770 ;
                                     002A  3780
                                     002A  3790 	.ENABL	LSB
                                     002A  3800 ACF$MBA:				;AUTO CONFIGURE MASSBUS ADAPTER
         13 A7            01     90  002A  3810 	MOVB	#1,ACF$B_CNUMVEC(R7)	;SET NUMBER OF CONTROLLER VECTORS
         10 A7         08 A7     B0  002E  3820 	MOVW	ACF$W_AVECTOR(R7),ACF$W_CVECTOR(R7) ;SET CONTROLLER VECTOR OFFSET
            55       000E'CF     9E  0033  3830 	MOVAB	W^ACF$AB_MBATABLE,R5	;GET ADDRESS OF MBA DRIVER DESCRIPTOR TABLE
            54            85     D0  0038  3840 10$:	MOVL	(R5)+,R4		;GET ADDRESS OF NEXT DRIVER DESCRIPTOR
                          03     12  003B  3850 	BNEQ	20$			;IF NEQ ANOTHER ENTRY TO PROCESS
                          50     D4  003D  3860 	CLRL	R0			;SET END OF SCAN INDICATOR
                                 05  003F  3870 	RSB				;
                                     0040  3880
                                     0040  3890 ;
                                     0040  3900 ; SCAN MBA UNITS FOR DEVICE TYPE MATCH
                                     0040  3910 ;
                                     0040  3920
         14 A7            84     D0  0040  3930 20$:	MOVL	(R4)+,ACF$L_DEVNAME(R7)	;SET ADDRESS OF DEVICE NAME STRING
         18 A7            84     D0  0044  3940 	MOVL	(R4)+,ACF$L_DRVNAME(R7)	;SET ADDRESS OF DRIVER NAME STRING
                          53     D4  0048  3950 	CLRL	R3			;CLEAR DRIVE OFFSET CONSTANT
            52            64     9E  004A  3960 30$:	MOVAB	(R4),R2			;GET STARTING ADDRESS OF DRIVE TYPE TABLE
            51       0418 C643   D0  004D  3970 	MOVL	MBA$L_ERB+MBA_DT(R6)[R3],R1 ;READ DRIVE TYPE REGISTER
            51       3E00 8F     AA  0053  3980 	BICW	#^C<^XC1FF>,R1		;CLEAR EXTRANEOUS BITS
            50         08 A6     D0  0058  3990 	MOVL	MBA$L_SR(R6),R0		;READ MBA STATUS REGISTER
         08 A6            50     D0  005C  4000 	MOVL	R0,MBA$L_SR(R6)		;CLEAR MBA STATUS REGISTER
            50            12     E0  0060  4010 	BBS	#MBA$V_SR_NED,R0,50$	;IF SET, NONEXISTENT DRIVE
                          12         0063
            51            0F     E1  0064  4020 	BBC	#15,R1,40$		;IF CLR, NOT TAPE DEVICE
                          05         0067
            51       3FFF 8F     AA  0068  4030 	BICW	#^C<^XC000>,R1		;CLEAR EXTRANEOUS BITS
            82            51     B1  006D  4040 40$:	CMPW	R1,(R2)+		;DRIVE TYPE MATCH?
                          0E     13  0070  4050 	BEQL	60$			;IF EQL YES
                          62     B5  0072  4060 	TSTW	(R2)			;ANY MORE ENTRIES IN TABLE?
                          F7     12  0074  4070 	BNEQ	40$			;IF NEQ YES
            20       00E0 8F     3D  0076  4080 50$:	ACBW	#^X80/4*7,#^X80/4,R3,30$ ;ANY MORE UNITS TO EXAMINE?
            FFCC          53         007B
                          B8     11  007E  4090 	BRB	10$			;
                                     0080  4100
                                     0080  4110 ;
                                     0080  4120 ; MBA DRIVE TYPE/DEVICE TYPE MATCH - DELIVER ALL UNITS TO CALLER
                                     0080  4130 ;
AUTOCONFG       - AUTO CONFIGURATION OF DEVICE DATA BASE         21-AUG-1978 22:25:01   VAX-11 MACRO X0.3-11               Page  26
01              ACF$MBA - MASSBUS ADAPTER AUTO CONFIGURATION                                                                     (1)

                                     0080  4140
            51            0F     E0  0080  4150 60$:	BBS	#15,R1,ACF$MBATAPE	;IF SET, TAPE DEVICE
                          67         0083
                                     0084  4160
                                     0084  4170 ;
                                     0084  4180 ; DEVICE IS A DISK
                                     0084  4190 ;
                                     0084  4200
                                     0084  4210 ACF$MBADISK:				;
         0C A7            56     D0  0084  4220 	MOVL	R6,ACF$L_CONTRLREG(R7)	;SET ADDRESS OF CONTROL STATUS REGISTER
            51         14 A7     D0  0088  4230 	MOVL	ACF$L_DEVNAME(R7),R1	;GET ADDRESS OF DEVICE NAME STRING
            52            61     9A  008C  4240 	MOVZBL	(R1),R2			;GET LENGTH OF STRING IN BYTES
         41 8F         0B A8     81  008F  4250 	ADDB3	ADP$B_NUMBER(R8),#^A/A/,(R1)[R2] ;CALCULATE LAST BYTE OF DEVICE NAME
                          6142       0094
                                     0096  4260
                                     0096  4270 ;
                                     0096  4280 ; CONSTRUCT UNIT DATA BASE AND DELIVER TO CALLER
                                     0096  4290 ;
                                     0096  4300
            53            20     C7  0096  4310 70$:	DIVL3	#^X80/4,R3,R0		;CALCULATE ADAPTER DRIVE NUMBER
                          50         0099
         0A A7            50     90  009A  4320 	MOVB	R0,ACF$B_AUNIT(R7)	;SET ADAPTER UNIT NUMBER
         12 A7            50     90  009E  4330 	MOVB	R0,ACF$B_CUNIT(R7)	;SET CONTROLLER UNIT NUMBER
       0032'CF            53     7D  00A2  4340 	MOVQ	R3,W^ACF$L_R3SAVE	;SAVE REGISTERS
       003A'CF            55     D0  00A7  4350 	MOVL	R5,W^ACF$L_R5SAVE	;
            50            01     D0  00AC  4360 	MOVL	#1,R0			;SET SUCCESS INDICATOR
                          9E     16  00AF  4370 	JSB	@(SP)+			;DELIVER UNIT TO CALLER
            53       0032'CF     7D  00B1  4380 	MOVQ	W^ACF$L_R3SAVE,R3	;RESTORE REGISTERS
            55       003A'CF     D0  00B6  4390 	MOVL	W^ACF$L_R5SAVE,R5	;
            20       00E0 8F     3D  00BB  4400 80$:	ACBW	#^X80/4*7,#^X80/4,R3,90$ ;ANY MORE DRIVES TO EXAMINE?
            0003          53         00C0
                          FF72   31  00C3  4410 	BRW	10$			;
            52            64     9E  00C6  4420 90$:	MOVAB	(R4),R2			;GET STARTING ADDRESS OF DRIVE TYPE TABLE
            51       0418 C643   D0  00C9  4430 	MOVL	MBA$L_ERB+MBA_DT(R6)[R3],R1 ;READ DRIVE TYPE REGISTER
            51       FE00 8F     AA  00CF  4440 	BICW	#^C<^X1FF>,R1		;CLEAR EXTRANEOUS BITS
            50         08 A6     D0  00D4  4450 	MOVL	MBA$L_SR(R6),R0		;READ MBA STATUS REGISTER
         08 A6            50     D0  00D8  4460 	MOVL	R0,MBA$L_SR(R6)		;CLEAR MBA STATUS REGISTER
            50            12     E0  00DC  4470 	BBS	#MBA$V_SR_NED,R0,80$	;IF SET, NONEXISTENT DRIVE
                          DB         00DF
            82            51     B1  00E0  4480 100$:	CMPW	R1,(R2)+		;DRIVE TYPES MATCH?
                          B1     13  00E3  4490 	BEQL	70$			;IF EQL YES
                          62     B5  00E5  4500 	TSTW	(R2)			;ANY MORE TYPES REMAINING?
                          F7     12  00E7  4510 	BNEQ	100$			;IF NEQ YES
                          D0     11  00E9  4520 	BRB	80$			;
                                     00EB  4530
                                     00EB  4540 ;
                                     00EB  4550 ; DEVICE IS A TAPE
                                     00EB  4560 ;
                                     00EB  4570
                                     00EB  4580 ACF$MBATAPE:				;
            53            20     C7  00EB  4590 	DIVL3	#^X80/4,R3,R0		;CALCULATE ADAPTER UNIT NUMBER
                          50         00EE
         0A A7            50     90  00EF  4600 	MOVB	R0,ACF$B_AUNIT(R7)	;SET ADAPTER UNIT NUMBER
       0032'CF            53     7D  00F3  4610 	MOVQ	R3,W^ACF$L_R3SAVE	;SAVE REGISTERS
       003A'CF            55     D0  00F8  4620 	MOVL	R5,W^ACF$L_R5SAVE	;
            52       0400 C643   DE  00FD  4630 	MOVAL	MBA$L_ERB(R6)[R3],R2	;GET ADDRESS OF DRIVE CONTROL REGISTER
         0C A7            52     D0  0103  4640 	MOVL	R2,ACF$L_CONTRLREG(R7)	;SET ADDRESS OF DRIVE CONTROL REGISTER
AUTOCONFG       - AUTO CONFIGURATION OF DEVICE DATA BASE         21-AUG-1978 22:25:01   VAX-11 MACRO X0.3-11               Page  27
01              ACF$MBA - MASSBUS ADAPTER AUTO CONFIGURATION                                                                     (1)

                          51     D4  0107  4650 	CLRL	R1			;CLEAR STARTING SLAVE DRIVE NUMBER
                                     0109  4660
                                     0109  4670 ;
                                     0109  4680 ; CONSTRUCT UNIT DATA BASE AND DELIVER TO CALLER
                                     0109  4690 ;
                                     0109  4700
         24 A2            51     D0  0109  4710 110$:	MOVL	R1,MBA_TC(R2)		;SELECT SLAVE DRIVE
         18 A2   FFFF01FF 8F     CB  010D  4720 	BICL3	#^C<^XFE00>,MBA_DT(R2),R0 ;CLEAR EXTRANEOUS BITS
                          50         0115
            50       C400 8F     B1  0116  4730 	CMPW	#^XC400,R0		;SLAVE TAPE DRIVE AND PRESENT?
                          13     12  011B  4740 	BNEQ	120$			;IF NEQ NO
       002A'CF            51     7D  011D  4750 	MOVQ	R1,W^ACF$L_R1SAVE	;SAVE REGISTERS
         12 A7            51     90  0122  4760 	MOVB	R1,ACF$B_CUNIT(R7)	;SET CONTROLLER UNIT NUMBER
            50            01     D0  0126  4770 	MOVL	#1,R0			;SET SUCCESS INDICATOR
                          9E     16  0129  4780 	JSB	@(SP)+			;DELIVER UNIT TO CALLER
            51       002A'CF     7D  012B  4790 	MOVQ	W^ACF$L_R1SAVE,R1	;RESTORE REGISTERS
            51            07     F3  0130  4800 120$:	AOBLEQ	#7,R1,110$		;ANY MORE SLAVES TO PROCESS?
                          D5         0133
            52         14 A7     D0  0134  4810 	MOVL	ACF$L_DEVNAME(R7),R2	;GET ADDRESS OF DEVICE NAME STRING
            51            62     9A  0138  4820 	MOVZBL	(R2),R1			;GET LENGHT OF STRING IN BYTES
                          6241   96  013B  4830 	INCB	(R2)[R1]		;INCREMENT CONTROLLER DESIGNATION
            53       0032'CF     7D  013E  4840 	MOVQ	W^ACF$L_R3SAVE,R3	;RESTORE REGISTERS
            55       003A'CF     D0  0143  4850 	MOVL	W^ACF$L_R5SAVE,R5	;
                          FF2B   31  0148  4860 	BRW	50$			;
                                     014B  4870 	.DSABL	LSB
AUTOCONFG       - AUTO CONFIGURATION OF DEVICE DATA BASE         21-AUG-1978 22:25:01   VAX-11 MACRO X0.3-11               Page  28
01              ACF$UBA - UNIBUS ADAPTER AUTO CONFIGURATION                                                                      (1)

                                     014B  4890 	.SBTTL	ACF$UBA - UNIBUS ADAPTER AUTO CONFIGURATION
                                     014B  4900 ;
                                     014B  4910 ; ACF$UBA - UNIBUS ADAPTER AUTO CONFIGURATION
                                     014B  4920 ;
                                     014B  4930 ; THIS ROUTINE IS CALLED TO AUTO CONFIGURE A UNIBUS ADAPTER.
                                     014B  4940 ;
                                     014B  4950 ; INPUTS:
                                     014B  4960 ;
                                     014B  4970 ;	R6 = ADDRESS OF CONFIGURATION CONTROL REGISTER.
                                     014B  4980 ;	R7 = ADDRESS OF CONFIGURATION CONTROL BLOCK.
                                     014B  4990 ;	R8 = ADDRESS OF ADAPTER CONTROL BLOCK.
                                     014B  5000 ;
                                     014B  5010 ; OUTPUTS:
                                     014B  5020 ;
                                     014B  5030 ;	A SCAN IS MADE FOR EACH OF THE POSSIBLE DEVICES THAT CAN BE ATTACHED TO
                                     014B  5040 ;	THE ADAPTER. AS EACH DEVICE IS ENCOUNTERED, A CO-ROUTINE CALL IS MADE TO
                                     014B  5050 ;	THE CALLER DELIVERING THE DEVICE UNIT DESCRIPTOR.
                                     014B  5060 ;
                                     014B  5070
                                     014B  5080 	.ENABL	LSB
                                     014B  5090 ACF$UBA:				;AUTO CONFIGURE UNIBUS ADAPTER
                       0A A7     94  014B  5100 	CLRB	ACF$B_AUNIT(R7)		;CLEAR ADAPTER UNIT NUMBER
       00B2'CF            08     B0  014E  5110 	MOVW	#^O10,W^ACF$W_CSRBASE	;SET INITIAL CSR BASE OFFSET
       00B4'CF       00C0 8F     B0  0153  5120 	MOVW	#^O300,W^ACF$W_VECBASE	;SET INITIAL VECTOR BASE OFFSET
            55       003E'CF     9E  015A  5130 	MOVAB	W^ACF$AB_UBATABLE,R5	;GET ADDRESS OF UBA DRIVER DESCRIPTOR TABLE
            54            85     D0  015F  5140 10$:	MOVL	(R5)+,R4		;GET ADDRESS OF NEXT DRIVER DESCRIPTOR
                          03     12  0162  5150 	BNEQ	20$			;IF NEQ ANOTHER ENTRY TO PROCESS
                          50     D4  0164  5160 	CLRL	R0			;SET END OF SCAN INDICATOR
                                 05  0166  5170 	RSB				;
                                     0167  5180
                                     0167  5190 ;
                                     0167  5200 ; SCAN UBA DEVICE
                                     0167  5210 ;
                                     0167  5220
         14 A7            84     D0  0167  5230 20$:	MOVL	(R4)+,ACF$L_DEVNAME(R7)	;SET ADDRESS OF DEVICE NAME STRING
         18 A7            84     D0  016B  5240 	MOVL	(R4)+,ACF$L_DRVNAME(R7)	;SET ADDRESS OF DRIVER NAME STRING
       0022'CF            84     D0  016F  5250 	MOVL	(R4)+,W^ACF$L_ROUTINE	;SET ADDRESS OF DEVICE GENERATION ROUTINE
         13 A7            84     90  0174  5260 	MOVB	(R4)+,ACF$B_CNUMVEC(R7)	;SET NUMBER OF CONTROLLER INTERRUPT VECTORS
            53            84     9E  0178  5270 	MOVAB	(R4)+,R3		;COPY ADDRESS OF FLAG BYTE
            63            02     E1  017B  5280 	BBC	#UBA_V_FLOATVEC,(R3),25$ ;IF CLR, NO FLOATING VECTOR ASSIGNMENT
                          0B         017E
            51            64     3C  017F  5290 	MOVZWL	(R4),R1			;GET VECTOR MODULO MASK
            51       00B4'CF     A0  0182  5300 	ADDW	W^ACF$W_VECBASE,R1	;ROUND UP TO NEXT VECTOR
            51            84     AA  0187  5310 	BICW	(R4)+,R1		;TRUNCATE TO ACTUAL VECTOR OFFSET
            63            01     E1  018A  5320 25$:	BBC	#UBA_V_FLOATCSR,(R3),ACF$UBAFIXED ;IF CLR, FIXED CSR
                          03         018D
                          007B   31  018E  5330 	BRW	ACF$UBAFLOATING		;
                                     0191  5340
                                     0191  5350 ;
                                     0191  5360 ; FIXED CSR DEVICE
                                     0191  5370 ;
                                     0191  5380
                                     0191  5390 ACF$UBAFIXED:				;
            52            84     3C  0191  5400 30$:	MOVZWL	(R4)+,R2		;GET CSR OFFSET
                          5C     13  0194  5410 	BEQL	37$			;IF EQL NO MORE TO PROCESS
            52       1000 C642   9E  0196  5420 	MOVAB	UBA_IOBASE(R6)[R2],R2	;GET ADDRESS OF CSR
         0C A7            52     D0  019C  5430 	MOVL	R2,ACF$L_CONTRLREG(R7)	;SET ADDRESS OF CONTROL REGISTER
AUTOCONFG       - AUTO CONFIGURATION OF DEVICE DATA BASE         21-AUG-1978 22:25:01   VAX-11 MACRO X0.3-11               Page  29
01              ACF$UBA - UNIBUS ADAPTER AUTO CONFIGURATION                                                                      (1)

            63            02     E0  01A0  5440 	BBS	#UBA_V_FLOATVEC,(R3),31$ ;IF SET, FLOATING VECTOR ASSIGNMENT
                          03         01A3
            51            84     3C  01A4  5450 	MOVZWL	(R4)+,R1		;GET ACTUAL VECTOR ADDRESS
         10 A7            51     B0  01A7  5460 31$:	MOVW	R1,ACF$W_CVECTOR(R7)	;SET ADDRESS OF INTERRUPT VECTOR
                          62     B5  01AB  5470 	TSTW	(R2)			;READ DEVICE CSR
         08 A6         08 A6     D0  01AD  5480 	MOVL	UBA$L_SR(R6),UBA$L_SR(R6) ;DEVICE PRESENT?
                          DD     12  01B2  5490 	BNEQ	30$			;IF NEQ NO
            63            00     E1  01B4  5500 	BBC	#UBA_V_SUPPORT,(R3),35$	;IF CLR, DEVICE NOT SUPPORTED
                          2C         01B7
       002A'CF            51     7D  01B8  5510 	MOVQ	R1,W^ACF$L_R1SAVE	;SAVE REGISTERS
       0032'CF            53     7D  01BD  5520 	MOVQ	R3,W^ACF$L_R3SAVE	;
       003A'CF            55     D0  01C2  5530 	MOVL	R5,W^ACF$L_R5SAVE	;
                     0022'DF     16  01C7  5540 	JSB	@W^ACF$L_ROUTINE	;CALL GENERATION ROUTINE
            51         14 A7     D0  01CB  5550 	MOVL	ACF$L_DEVNAME(R7),R1	;GET ADDRESS OF DEVICE NAME STRING
            50            61     9A  01CF  5560 	MOVZBL	(R1),R0			;GET LENGTH OF STRING IN BYTES
                          6041   96  01D2  5570 	INCB	(R0)[R1]		;UPDATE DEVICE NAME
            51       002A'CF     7D  01D5  5580 	MOVQ	W^ACF$L_R1SAVE,R1	;RESTORE REGISTERS
            53       0032'CF     7D  01DA  5590 	MOVQ	W^ACF$L_R3SAVE,R3	;
            55       003A'CF     D0  01DF  5600 	MOVL	W^ACF$L_R5SAVE,R5	;
            63            02     E1  01E4  5610 35$:	BBC	#UBA_V_FLOATVEC,(R3),30$ ;IF CLR, FIXED VECTOR ASSIGNMENT
                          A9         01E7
            50         13 A7     9A  01E8  5620 	MOVZBL	ACF$B_CNUMVEC(R7),R0	;GET NUMBER OF CONTROLLER INTERRUPT VECTORS
            51            6140   DE  01EC  5630 	MOVAL	(R1)[R0],R1		;CALCULATE ADDRESS OF NEXT VECTOR
                          9F     11  01F0  5640 	BRB	30$			;
            83            02     E1  01F2  5650 37$:	BBC	#UBA_V_FLOATVEC,(R3)+,39$ ;IF CLR, NO FLOATING VECTOR ASSIGNMENT
                          13         01F5
       00B4'CF            63     A1  01F6  5660 	ADDW3	(R3),W^ACF$W_VECBASE,R0	;CALCULATE STARTING VECTOR ADDRESS
                          50         01FB
            50            63     AA  01FC  5670 	BICW	(R3),R0			;
            51            50     B1  01FF  5680 	CMPW	R0,R1			;ANY VECTORS ASSIGNED?
                          05     13  0202  5690 	BEQL	39$			;IF EQL NO
       00B4'CF            51     B0  0204  5700 	MOVW	R1,W^ACF$W_VECBASE	;SET NEW VECTOR BASE ADDRESS
                          FF53   31  0209  5710 39$:	BRW	10$			;
                                     020C  5720
                                     020C  5730 ;
                                     020C  5740 ; FLOATING VECTOR/CSR DEVICE
                                     020C  5750 ;
                                     020C  5760
                                     020C  5770 ACF$UBAFLOATING:			;
            52       00B2'CF     3C  020C  5780 	MOVZWL	W^ACF$W_CSRBASE,R2	;GET BASE CSR OFFSET
            52            64     A0  0211  5790 	ADDW	(R4),R2			;ROUND TO NEXT CSR
            52            64     AA  0214  5800 	BICW	(R4),R2			;TRUNCATE BACK TO CSR OFFSET
            50       1000 C642   9E  0217  5810 	MOVAB	UBA_IOBASE(R6)[R2],R0	;GET ACTUAL CSR ADDRESS
                          60     B5  021D  5820 	TSTW	(R0)			;READ DEVICE CSR
         08 A6         08 A6     D0  021F  5830 	MOVL	UBA$L_SR(R6),UBA$L_SR(R6) ;DEVICE PRESENT?
                          69     12  0224  5840 	BNEQ	70$			;IF NEQ NO
       00B2'CF            52     B0  0226  5850 	MOVW	R2,W^ACF$W_CSRBASE	;SET NEW BASE CSR OFFSET
            50       1000 C642   9E  022B  5860 40$:	MOVAB	UBA_IOBASE(R6)[R2],R0	;GET ACTUAL CSR ADDRESS
                          60     B5  0231  5870 	TSTW	(R0)			;READ DEVICE CSR
         08 A6         08 A6     D0  0233  5880 	MOVL	UBA$L_SR(R6),UBA$L_SR(R6) ;DEVICE PRESENT?
                          4B     12  0238  5890 	BNEQ	60$			;IF NEQ NO
            63            00     E1  023A  5900 	BBC	#UBA_V_SUPPORT,(R3),50$	;IF CLR, DEVICE NOT SUPPORTED
                          34         023D
         0C A7            50     D0  023E  5910 	MOVL	R0,ACF$L_CONTRLREG(R7)	;SET ADDRESS OF CONTROL REGISTER
         10 A7            51     B0  0242  5920 	MOVW	R1,ACF$W_CVECTOR(R7)	;SET ADDRESS OF INTERRUPT VECTOR
       002A'CF            51     7D  0246  5930 	MOVQ	R1,W^ACF$L_R1SAVE	;SAVE REGISTERS
       0032'CF            53     7D  024B  5940 	MOVQ	R3,W^ACF$L_R3SAVE	;
AUTOCONFG       - AUTO CONFIGURATION OF DEVICE DATA BASE         21-AUG-1978 22:25:01   VAX-11 MACRO X0.3-11               Page  30
01              ACF$UBA - UNIBUS ADAPTER AUTO CONFIGURATION                                                                      (1)

       003A'CF            55     D0  0250  5950 	MOVL	R5,W^ACF$L_R5SAVE	;
                     0022'DF     16  0255  5960 	JSB	@W^ACF$L_ROUTINE	;CALL DEVICE GENERATION ROUTINE
            51         14 A7     D0  0259  5970 	MOVL	ACF$L_DEVNAME(R7),R1	;GET ADDRESS OF DEVICE NAME STRING
            50            61     9A  025D  5980 	MOVZBL	(R1),R0			;GET LENGTH OF DEVICE NAME STRING
                          6041   96  0260  5990 	INCB	(R0)[R1]		;UPDATE DEVICE NAME
            51       002A'CF     7D  0263  6000 	MOVQ	W^ACF$L_R1SAVE,R1	;RESTORE REGISTERS
            53       0032'CF     7D  0268  6010 	MOVQ	W^ACF$L_R3SAVE,R3	;
            55       003A'CF     D0  026D  6020 	MOVL	W^ACF$L_R5SAVE,R5	;
            63            02     E1  0272  6030 50$:	BBC	#UBA_V_FLOATVEC,(R3),40$ ;IF CLR, FIXED VECTOR ASSIGNMENT
                          B5         0275
            50         13 A7     9A  0276  6040 	MOVZBL	ACF$B_CNUMVEC(R7),R0	;GET NUMBER OF CONTROLLER INTERRUPT VECTORS
            51            6140   DE  027A  6050 	MOVAL	(R1)[R0],R1		;CALCULATE ADDRESS OF NEXT VECTOR
            52            64     A0  027E  6060 	ADDW	(R4),R2			;CALCULATE ADDRESS OF NEXT CSR
                          52     D6  0281  6070 	INCL	R2			;
                          A6     11  0283  6080 	BRB	40$			;
       00B4'CF            51     B0  0285  6090 60$:	MOVW	R1,W^ACF$W_VECBASE	;SAVE NEW VECTOR OFFSET
       00B2'CF            52     B0  028A  6100 	MOVW	R2,W^ACF$W_CSRBASE	;SAVE NEW CSR OFFSET
       00B2'CF            08     A0  028F  6110 70$:	ADDW	#8,W^ACF$W_CSRBASE	;ADVANCE PAST ONE REGISTER BLOCK
                          FEC8   31  0294  6120 	BRW	10$			;
                                     0297  6130 	.DSABL	LSB
AUTOCONFG       - AUTO CONFIGURATION OF DEVICE DATA BASE         21-AUG-1978 22:25:01   VAX-11 MACRO X0.3-11               Page  31
01              SINGLE UNIT DEVICE GENERATOR                                                                                     (1)

                                     0297  6150 	.SBTTL	SINGLE UNIT DEVICE GENERATOR
                                     0297  6160 ;
                                     0297  6170 ; ACF$CR11 - CR11 CARD READER
                                     0297  6180 ; ACF$LP11 - LP11 LINE PRINTER
                                     0297  6190 ; ACF$LPA11 - LPA11 LABORATORY I/O SUBSYSTEM
                                     0297  6200 ; ACF$DMC11 - DMC11 SYNCHRONOUS COMMUNICATIONS
                                     0297  6210 ;
                                     0297  6220 ; THIS ROUTINE IS CALLED AS AN ACTION ROUTINE FROM THE UBA DEVICE SCAN TO GENERATE
                                     0297  6230 ; A SINGLE UNIT DATA BASE.
                                     0297  6240 ;
                                     0297  6250 ; INPUTS:
                                     0297  6260 ;
                                     0297  6270 ;	R6 = ADDRESS OF CONFIGURATION STATUS REGISTER.
                                     0297  6280 ;	R7 = ADDRESS OF CONFIGURATION CONTROL BLOCK.
                                     0297  6290 ;	R8 = ADDRESS OF ADAPTER CONTROL BLOCK.
                                     0297  6300 ;
                                     0297  6310 ; OUTPUTS:
                                     0297  6320 ;
                                     0297  6330 ;	A CO-ROUTINE CALL IS MADE TO THE ORIGINAL CALLER DELIVERING THE DEVICE UNIT
                                     0297  6340 ;	DESCRIPTOR.
                                     0297  6350 ;
                                     0297  6360
                                     0297  6370 ACF$CR11:				;
                                     0297  6380 ACF$LP11:				;
                                     0297  6390 ACF$LPA11:				;
                                     0297  6400 ACF$DMC11:				;
                     001E'CF   8ED0  0297  6410 	POPL	W^ACF$L_RETURN		;SAVE RETURN ADDRESS
                       12 A7     94  029C  6420 	CLRB	ACF$B_CUNIT(R7)		;CLEAR CONTROLLER UNIT NUMBER
            50            01     D0  029F  6430 	MOVL	#1,R0			;SET SUCCESS INDICATOR
                          9E     16  02A2  6440 	JSB	@(SP)+			;DELIVER UNIT TO CALLER
                     001E'DF     17  02A4  6450 	JMP	@W^ACF$L_RETURN		;
AUTOCONFG       - AUTO CONFIGURATION OF DEVICE DATA BASE         21-AUG-1978 22:25:01   VAX-11 MACRO X0.3-11               Page  32
01              RK611 MULTIPLE UNIT DEVICE GENERATOR                                                                             (1)

                                     02A8  6470 	.SBTTL	RK611 MULTIPLE UNIT DEVICE GENERATOR
                                     02A8  6480 ;
                                     02A8  6490 ; ACF$RK611 - RK611 DISK CONTROLLER
                                     02A8  6500 ;
                                     02A8  6510 ; THIS ROUTINE IS CALLED AS AN ACTION ROUTINE FROM THE UBA DEVICE SCAN TO GENERATE
                                     02A8  6520 ; THE DATA BASE FOR A SINGLE RK611.
                                     02A8  6530 ;
                                     02A8  6540 ; INPUTS:
                                     02A8  6550 ;
                                     02A8  6560 ;	R6 = ADDRESS OF CONFIGURATION STATUS REGISTER.
                                     02A8  6570 ;	R7 = ADDRESS OF CONFIGURATION CONTROL BLOCK.
                                     02A8  6580 ;	R8 = ADDRESS OF ADAPTER CONTROL BLOCK.
                                     02A8  6590 ;
                                     02A8  6600 ; OUTPUTS:
                                     02A8  6610 ;
                                     02A8  6620 ;	A CO-ROUTINE CALL IS MADE TO THE ORIGINAL CALLER DELIVERING EACH DEVICE
                                     02A8  6630 ;	UNIT DESCRIPTOR.
                                     02A8  6640 ;
                                     02A8  6650
                                     02A8  6660 ACF$RK611:				;
                     001E'CF   8ED0  02A8  6670 	POPL	W^ACF$L_RETURN		;SAVE RETURN ADDRESS
                          50     D4  02AD  6680 	CLRL	R0			;SET STARTING UNIT NUMBER
         12 A7            50     90  02AF  6690 10$:	MOVB	R0,ACF$B_CUNIT(R7)	;SET CONTROLLER UNIT NUMBER
            51         0C A7     D0  02B3  6700 	MOVL	ACF$L_CONTRLREG(R7),R1	;GET ADDRESS OF DEVICE CSR
                          52     10  02B7  6710 	BSBB	30$			;WAIT FOR CONTROLLER READY
            61       8000 8F     B0  02B9  6720 	MOVW	#RK_CS1_M_CERR,RK_CS1(R1) ;CLEAR CONTROLLER
         08 A1            50     B0  02BE  6730 	MOVW	R0,RK_CS2(R1)		;SET UNIT NUMBER
            61            01     B0  02C2  6740 	MOVW	#1,RK_CS1(R1)		;SELECT DRIVE AND GET STATUS
                          44     10  02C5  6750 	BSBB	30$			;WAIT FOR CONTROLLER READY
         08 A1       1000 8F     B3  02C7  6760 	BITW	#RK_CS2_M_NED,RK_CS2(R1) ;NONEXISTENT DRIVE?
                          31     12  02CD  6770 	BNEQ	20$			;IF NEQ YES
            61       8000 8F     B0  02CF  6780 	MOVW	#RK_CS1_M_CERR,RK_CS1(R1) ;CLEAR CONTROLLER
         08 A1            50     B0  02D4  6790 	MOVW	R0,RK_CS2(R1)		;SET UNIT NUMBER
            61       0405 8F     B0  02D8  6800 	MOVW	#^X405,RK_CS1(R1)	;CLEAR DRIVE
                          2C     10  02DD  6810 	BSBB	30$			;WAIT FOR FUNCTION TO COMPLETE
                          61     B5  02DF  6820 	TSTW	RK_CS1(R1)		;ANY CONTROLLER ERRORS?
                          0E     18  02E1  6830 	BGEQ	15$			;IF GEQ NO
            61       8000 8F     B0  02E3  6840 	MOVW	#RK_CS1_M_CERR,RK_CS1(R1) ;CLEAR CONTROLLER
         08 A1            50     B0  02E8  6850 	MOVW	R0,RK_CS2(R1)		;SET UNIT NUMBER
            61            05     B0  02EC  6860 	MOVW	#5,RK_CS1(R1)		;CLEAR DRIVE
                          1A     10  02EF  6870 	BSBB	30$			;WAIT FOR FUNCTION TO COMPLETE
       0026'CF            50     D0  02F1  6880 15$:	MOVL	R0,W^ACF$L_R0SAVE	;SAVE REGISTER
            50            01     D0  02F6  6890 	MOVL	#1,R0			;SET SUCCESS INDICATOR
                          9E     16  02F9  6900 	JSB	@(SP)+			;DELIVER UNIT TO CALLER
            50       0026'CF     D0  02FB  6910 	MOVL	W^ACF$L_R0SAVE,R0	;RESTORE REGISTER
            50            07     F3  0300  6920 20$:	AOBLEQ	#7,R0,10$		;ANY MORE UNITS TO PROCESS?
                          AB         0303
            61       8000 8F     B0  0304  6930 	MOVW	#RK_CS1_M_CERR,RK_CS1(R1) ;CLEAR CONTROLLER
                          11     11  0309  6940 	BRB	60$			;
            52   01312D00 8F     D0  030B  6950 30$:	MOVL	#2*500*1000*20,R2	;SET 20 SECOND LOOP COUNT
                          61     95  0312  6960 40$:	TSTB	RK_CS1(R1)		;CONTROLLER READY?
                          01     18  0314  6970 	BGEQ	50$			;IF GEQ NO
                                 05  0316  6980 	RSB				;
            F8            52     F5  0317  6990 50$:	SOBGTR	R2,40$			;ANY MORE TIME?
                          8E     D5  031A  7000 	TSTL	(SP)+			;REMOVE RETURN FROM STACK
                     001E'DF     17  031C  7010 60$:	JMP	@W^ACF$L_RETURN		;
AUTOCONFG       - AUTO CONFIGURATION OF DEVICE DATA BASE         21-AUG-1978 22:25:01   VAX-11 MACRO X0.3-11               Page  33
01              DZ11 MULTIPLE UNIT DEVICE GENERATOR                                                                              (1)

                                     0320  7030 	.SBTTL	DZ11 MULTIPLE UNIT DEVICE GENERATOR
                                     0320  7040 ;
                                     0320  7050 ; ACF$DZ11 - DZ11 ASYNCHRONOUS LINE MULTIPLEXER
                                     0320  7060 ;
                                     0320  7070 ; THIS ROUTINE IS CALLED AS AN ACTION ROUTINE FROM THE UBA DEVICE SCAN TO GENERATE
                                     0320  7080 ; THE DATA BASE FOR A SINGLE DZ11.
                                     0320  7090 ;
                                     0320  7100 ; INPUTS:
                                     0320  7110 ;
                                     0320  7120 ;	R6 = ADDRESS OF CONFIGURATION STATUS REGISTER.
                                     0320  7130 ;	R7 = ADDRESS OF CONFIGURATION CONTROL BLOCK.
                                     0320  7140 ;	R8 = ADDRESS OF ADAPTER CONTROL BLOCK.
                                     0320  7150 ;
                                     0320  7160 ; OUTPUTS:
                                     0320  7170 ;
                                     0320  7180 ;	A CO-ROUTINE CALL IS MADE TO THE ORIGINAL CALLER DELIVERING EACH DEVICE
                                     0320  7190 ;	UNIT DESCRIPTOR.
                                     0320  7200 ;
                                     0320  7210
                                     0320  7220 ACF$DZ11:				;
                     001E'CF   8ED0  0320  7230 	POPL	W^ACF$L_RETURN		;SAVE RETURN ADDRESS
                          50     D4  0325  7240 	CLRL	R0			;SET STARTING UNIT NUMBER
         12 A7            50     90  0327  7250 10$:	MOVB	R0,ACF$B_CUNIT(R7)	;SET CONTROLLER UNIT NUMBER
       0026'CF            50     D0  032B  7260 	MOVL	R0,W^ACF$L_R0SAVE	;SAVE REGISTER
            50            01     D0  0330  7270 	MOVL	#1,R0			;SET SUCCESS INDICATOR
                          9E     16  0333  7280 	JSB	@(SP)+			;DELIVER UNIT TO CALLER
            50       0026'CF     D0  0335  7290 	MOVL	W^ACF$L_R0SAVE,R0	;RESTORE REGISTER
            50            07     F3  033A  7300 	AOBLEQ	#7,R0,10$		;ANY MORE UNITS TO PROCESS?
                          E9         033D
                     001E'DF     17  033E  7310 	JMP	@W^ACF$L_RETURN		;
AUTOCONFG       - AUTO CONFIGURATION OF DEVICE DATA BASE         21-AUG-1978 22:25:01   VAX-11 MACRO X0.3-11               Page  34
01              AUTO CONFIGURATION DEVICE DATA BASE RESET                                                                        (1)

                                     0342  7330 	.SBTTL	AUTO CONFIGURATION DEVICE DATA BASE RESET
                                     0342  7340 ;+
                                     0342  7350 ; IOC$AUTORESET - AUTO CONFIGURATION DEVICE DATA BASE RESET
                                     0342  7360 ;
                                     0342  7370 ; THIS ROUTINE IS CALLED TO RESET THE AUTO CONFIGURATION DEVICE DATA BASE.
                                     0342  7380 ;
                                     0342  7390 ; INPUTS:
                                     0342  7400 ;
                                     0342  7410 ;	NONE.
                                     0342  7420 ;
                                     0342  7430 ; OUTPUTS:
                                     0342  7440 ;
                                     0342  7450 ;	THE CONTROLLER DESIGNATORS ARE ALL RESET TO 'A'.
                                     0342  7460 ;-
                                     0342  7470
                                     0342  7480 IOC$AUTORESET::				;AUTO CONFIGURATION DEVICE DATA BASE RESET
            50   00000000'EF     9E  0342  7490 	MOVAB	ACF$AL_RESET,R0		;GET ADDRESS OF RESET POINTER TABLE
            51            80     D0  0349  7500 10$:	MOVL	(R0)+,R1		;GET ADDRESS OF NEXT CONTROLLER DESIGNATOR
                          06     13  034C  7510 	BEQL	20$			;IF EQL END OF TABLE
            71         41 8F     90  034E  7520 	MOVB	#^A/A/,-(R1)		;RESET CONTROLLER DESIGNATOR
                          F5     11  0352  7530 	BRB	10$			;
                                 05  0354  7540 20$:	RSB				;
                                     0355  7550
                                     0355  7560 	.END
AUTOCONFG       - AUTO CONFIGURATION OF DEVICE DATA BASE         21-AUG-1978 22:25:01   VAX-11 MACRO X0.3-11               Page  35
SYMBOL TABLE                                                                                                                     (1)

$$$            = 00000005            ADP$L_INTD       00000064            MBA$S_CSR_ADCOD= 00000008
$DEVDESC$      = 00000390 R     07   ADP$L_LINK       00000004            MBA$S_ERB_UNIT = 00000003
$DEVNAME$      = 0000007F R     05   ADP$L_MRQBL      00000020            MBA$V_CR_ABORT = 00000001
$DRVNAME$      = 00000116 R     06   ADP$L_MRQFL      0000001C            MBA$V_CR_IE    = 00000002
ACF$AB_ADPTYPE   00000000 R     03   ADP$L_VECTOR     00000010            MBA$V_CR_INIT  = 00000000
ACF$AB_MBATABLE  0000000E R     03   ADP$W_ADPTYPE    0000000E            MBA$V_CSR_ADCOD= 00000000
ACF$AB_UBATABLE  0000003E R     03   ADP$W_DPBITMAP   00000024            MBA$V_CSR_MT   = 0000001B
ACF$AL_RESET     00000000 R     04   ADP$W_MRBITMAP   00000026            MBA$V_CSR_OT   = 00000015
ACF$B_AFLAG      0000000B            ADP$W_SIZE       00000008            MBA$V_CSR_PD   = 00000017
ACF$B_AUNIT      0000000A            ADP$W_TR         0000000C            MBA$V_CSR_PE   = 0000001F
ACF$B_CNUMVEC    00000013            AT$_MBA          ********   X   03   MBA$V_CSR_PU   = 00000016
ACF$B_CUNIT      00000012            AT$_UBA          ********   X   03   MBA$V_CSR_URD  = 0000001D
ACF$CR11         00000297 R     08   BIT...         = 00000020            MBA$V_CSR_WS   = 0000001E
ACF$C_LENGTH     0000001C            GBL...         = 00000000            MBA$V_CSR_XMFLT= 0000001A
ACF$DMC11        00000297 R     08   IOC$AUTOCONFIG   00000000 RG    08   MBA$V_ERB_UNIT = 00000007
ACF$DZ11         00000320 R     08   IOC$AUTORESET    00000342 RG    08   MBA$V_SR_ATTN  = 00000010
ACF$K_LENGTH     0000001C            MBA$L_AS         00000410            MBA$V_SR_CRD   = 0000001D
ACF$LP11         00000297 R     08   MBA$L_BCR        00000010            MBA$V_SR_DLT   = 0000000B
ACF$LPA11        00000297 R     08   MBA$L_CR         00000004            MBA$V_SR_DTABT = 0000000C
ACF$L_ADAPTER    00000000            MBA$L_CSR        00000000            MBA$V_SR_DTBUSY= 0000001F
ACF$L_CONFIGREG  00000004            MBA$L_ERB        00000400            MBA$V_SR_DTCOMP= 0000000D
ACF$L_CONTRLREG  0000000C            MBA$L_MAP        00000800            MBA$V_SR_ERCONF= 00000003
ACF$L_DEVNAME    00000014            MBA$L_SR         00000008            MBA$V_SR_INVMAP= 00000004
ACF$L_DRVNAME    00000018            MBA$L_VAR        0000000C            MBA$V_SR_ISTO  = 00000001
ACF$L_R0SAVE     00000026 R     03   MBA$M_CR_ABORT = 00000002            MBA$V_SR_MAPPE = 00000005
ACF$L_R1SAVE     0000002A R     03   MBA$M_CR_IE    = 00000004            MBA$V_SR_MBEXC = 00000007
ACF$L_R2SAVE     0000002E R     03   MBA$M_CR_INIT  = 00000001            MBA$V_SR_MCPE  = 00000011
ACF$L_R3SAVE     00000032 R     03   MBA$M_CSR_MT   = 08000000            MBA$V_SR_MDPE  = 00000006
ACF$L_R4SAVE     00000036 R     03   MBA$M_CSR_OT   = 00200000            MBA$V_SR_MXF   = 00000008
ACF$L_R5SAVE     0000003A R     03   MBA$M_CSR_PD   = 00800000            MBA$V_SR_NED   = 00000012
ACF$L_RETURN     0000001E R     03   MBA$M_CSR_PE   = 80000000            MBA$V_SR_NRCONF= 0000001E
ACF$L_ROUTINE    00000022 R     03   MBA$M_CSR_PU   = 00400000            MBA$V_SR_PGE   = 00000013
ACF$MBA          0000002A R     08   MBA$M_CSR_URD  = 20000000            MBA$V_SR_RDS   = 00000002
ACF$MBADISK      00000084 R     08   MBA$M_CSR_WS   = 40000000            MBA$V_SR_RDTO  = 00000000
ACF$MBATAPE      000000EB R     08   MBA$M_CSR_XMFLT= 04000000            MBA$V_SR_WCKLWR= 00000009
ACF$M_RELOAD   = 00000001            MBA$M_ERROR    = 000E1FFF            MBA$V_SR_WCKUPR= 0000000A
ACF$RK611        000002A8 R     08   MBA$M_SR_ATTN  = 00010000            MBA_DS         = 00000004
ACF$UBA          0000014B R     08   MBA$M_SR_CRD   = 20000000            MBA_DT         = 00000018
ACF$UBAFIXED     00000191 R     08   MBA$M_SR_DLT   = 00000800            MBA_TC         = 00000024
ACF$UBAFLOATING  0000020C R     08   MBA$M_SR_DTABT = 00001000            RK_CS1         = 00000000
ACF$V_RELOAD   = 00000000            MBA$M_SR_DTBUSY= 80000000            RK_CS1_M_CERR  = 00008000
ACF$W_AVECTOR    00000008            MBA$M_SR_DTCOMP= 00002000            RK_CS2         = 00000008
ACF$W_CSRBASE    000000B2 R     03   MBA$M_SR_ERCONF= 00000008            RK_CS2_M_NED   = 00001000
ACF$W_CVECTOR    00000010            MBA$M_SR_INVMAP= 00000010            UBA$L_BRRVR      00000030
ACF$W_VECBASE    000000B4 R     03   MBA$M_SR_ISTO  = 00000002            UBA$L_BRSVR      00000020
ADAPTERLEN     = 00000006            MBA$M_SR_MAPPE = 00000020            UBA$L_CR         00000004
ADP$B_NUMBER     0000000B            MBA$M_SR_MBEXC = 00000080            UBA$L_CSR        00000000
ADP$B_TYPE       0000000A            MBA$M_SR_MCPE  = 00020000            UBA$L_DCR        0000000C
ADP$C_MBAADPLEN  00000014            MBA$M_SR_MDPE  = 00000040            UBA$L_DPR        00000040
ADP$C_NUMDATAP = 00000010            MBA$M_SR_MXF   = 00000100            UBA$L_FMER       00000010
ADP$C_UBAADPLEN  00000070            MBA$M_SR_NED   = 00040000            UBA$L_FUBAR      00000014
ADP$K_MBAADPLEN  00000014            MBA$M_SR_NRCONF= 40000000            UBA$L_MAP        00000800
ADP$K_UBAADPLEN  00000070            MBA$M_SR_PGE   = 00080000            UBA$L_SR         00000008
ADP$L_CRB        00000010            MBA$M_SR_RDS   = 00000004            UBA$M_BRRVR_AIR= 80000000
ADP$L_CSR        00000000            MBA$M_SR_RDTO  = 00000001            UBA$M_CR_ARLVL = 00000180
ADP$L_DPQBL      00000018            MBA$M_SR_WCKLWR= 00000200            UBA$M_CR_BRIE  = 00000020
ADP$L_DPQFL      00000014            MBA$M_SR_WCKUPR= 00000400            UBA$M_CR_CNFIE = 00000004
AUTOCONFG       - AUTO CONFIGURATION OF DEVICE DATA BASE         21-AUG-1978 22:25:01   VAX-11 MACRO X0.3-11               Page  36
SYMBOL TABLE                                                                                                                     (1)

UBA$M_CR_IFSIE = 00000040            UBA$V_CR_UBPF  = 00000001
UBA$M_CR_INIT  = 00000001            UBA$V_CR_USEFIE= 00000004
UBA$M_CR_SUEFIE= 00000008            UBA$V_CSR_ADCOD= 00000000
UBA$M_CR_UBPF  = 00000002            UBA$V_CSR_IS   = 0000001C
UBA$M_CR_USEFIE= 00000010            UBA$V_CSR_MT   = 0000001B
UBA$M_CSR_IS   = 10000000            UBA$V_CSR_OT   = 00000015
UBA$M_CSR_MT   = 08000000            UBA$V_CSR_PD   = 00000017
UBA$M_CSR_OT   = 00200000            UBA$V_CSR_PE   = 0000001F
UBA$M_CSR_PD   = 00800000            UBA$V_CSR_PU   = 00000016
UBA$M_CSR_PE   = 80000000            UBA$V_CSR_UBIC = 00000010
UBA$M_CSR_PU   = 00400000            UBA$V_CSR_UBIIP= 00000012
UBA$M_CSR_UBIC = 00010000            UBA$V_CSR_UBPDN= 00000011
UBA$M_CSR_UBIIP= 00040000            UBA$V_CSR_URD  = 0000001D
UBA$M_CSR_UBPDN= 00020000            UBA$V_CSR_WS   = 0000001E
UBA$M_CSR_URD  = 20000000            UBA$V_CSR_XMFLT= 0000001A
UBA$M_CSR_WS   = 40000000            UBA$V_DPR_ADDR = 00000000
UBA$M_CSR_XMFLT= 04000000            UBA$V_DPR_BNE  = 0000001F
UBA$M_DPR_BNE  = 80000000            UBA$V_DPR_DPF  = 0000001D
UBA$M_DPR_DPF  = 20000000            UBA$V_DPR_STATE= 00000010
UBA$M_DPR_XMTER= 40000000            UBA$V_DPR_XMTER= 0000001E
UBA$M_MAP_BO   = 02000000            UBA$V_FMER_MRN = 00000000
UBA$M_MAP_VALID= 80000000            UBA$V_FUBAR_ADR= 00000000
UBA$M_SR_BRID  = 00000800            UBA$V_MAP_ADDR = 00000000
UBA$M_SR_BRSVF = 10000000            UBA$V_MAP_BO   = 00000019
UBA$M_SR_CRD   = 00000100            UBA$V_MAP_DPD  = 00000015
UBA$M_SR_CXTER = 00000080            UBA$V_MAP_VALID= 0000001F
UBA$M_SR_CXTMO = 00000040            UBA$V_SR_BRID  = 0000000B
UBA$M_SR_DPPE  = 00000020            UBA$V_SR_BRRVF = 00000018
UBA$M_SR_IVMR  = 00000010            UBA$V_SR_BRSVF = 0000001C
UBA$M_SR_LER   = 00000004            UBA$V_SR_CRD   = 00000008
UBA$M_SR_MRPE  = 00000008            UBA$V_SR_CXTER = 00000007
UBA$M_SR_RDS   = 00000200            UBA$V_SR_CXTMO = 00000006
UBA$M_SR_RDTO  = 00000400            UBA$V_SR_DPPE  = 00000005
UBA$M_SR_RIE   = 20000000            UBA$V_SR_IVMR  = 00000004
UBA$M_SR_SSYNC = 00000001            UBA$V_SR_LER   = 00000002
UBA$M_SR_UBIFS = 40000000            UBA$V_SR_MRPE  = 00000003
UBA$M_SR_UBSTO = 00000002            UBA$V_SR_RDS   = 00000009
UBA$S_BRRVR_IVA= 00000010            UBA$V_SR_RDTO  = 0000000A
UBA$S_CR_ARLVL = 00000002            UBA$V_SR_RIE   = 0000001D
UBA$S_CR_MRDSB = 00000005            UBA$V_SR_SSYNC = 00000000
UBA$S_CSR_ADCOD= 00000008            UBA$V_SR_UBIFS = 0000001E
UBA$S_DPR_ADDR = 00000010            UBA$V_SR_UBSTO = 00000001
UBA$S_DPR_STATE= 00000008            UBA_IOBASE     = 00001000
UBA$S_FMER_MRN = 00000009            UBA_M_FLOATCSR = 00000002
UBA$S_FUBAR_ADR= 00000012            UBA_M_FLOATVEC = 00000004
UBA$S_MAP_ADDR = 00000015            UBA_M_SUPPORT  = 00000001
UBA$S_MAP_DPD  = 00000004            UBA_V_FLOATCSR = 00000001
UBA$S_SR_BRRVF = 00000004            UBA_V_FLOATVEC = 00000002
UBA$V_BRRVR_AIR= 0000001F            UBA_V_SUPPORT  = 00000000
UBA$V_BRRVR_IVA= 00000000
UBA$V_CR_ARLVL = 00000007
UBA$V_CR_BRIE  = 00000005
UBA$V_CR_CNFIE = 00000002
UBA$V_CR_IFSIE = 00000006
UBA$V_CR_INIT  = 00000000
UBA$V_CR_MRDSB = 0000001A
UBA$V_CR_SUEFIE= 00000003
AUTOCONFG       - AUTO CONFIGURATION OF DEVICE DATA BASE         21-AUG-1978 22:25:01   VAX-11 MACRO X0.3-11               Page  37
PROGRAM SECTION SYNOPSIS                                                                                                         (1)


PROGRAM SECTION SYNOPSIS

.  ABS  .        00000000      00     NOPIC   USR   CON   ABS   LCL NOSHR NOEXE NORD  NOWRT BYTE
. BLANK .        00000000      01     NOPIC   USR   CON   REL   LCL NOSHR   EXE   RD    WRT BYTE
$ABS$            00000FC0      02     NOPIC   USR   CON   ABS   LCL NOSHR   EXE   RD    WRT BYTE
ACF$DATA         000000B6      03     NOPIC   USR   CON   REL   LCL NOSHR   EXE   RD    WRT BYTE
ACF$RESET        00000080      04     NOPIC   USR   CON   REL   LCL NOSHR   EXE   RD    WRT BYTE
ACF$DEVNAME      00000083      05     NOPIC   USR   CON   REL   LCL NOSHR   EXE   RD    WRT BYTE
ACF$DRVNAME      0000011F      06     NOPIC   USR   CON   REL   LCL NOSHR   EXE   RD    WRT BYTE
ACF$DEVDESC      000003AA      07     NOPIC   USR   CON   REL   LCL NOSHR   EXE   RD    WRT BYTE
ACF$CODE         00000355      08     NOPIC   USR   CON   REL   LCL NOSHR   EXE   RD    WRT BYTE


THERE WERE NO ERRORS OR WARNINGS.
18186. BYTES LEFT IN FREE MEMORY POOL.
20. BYTES OF RECLAIMED MEMORY.
OBJ$:AUTOCONFG,LIS$:AUTOCONFG/-SP=EXECML$/ML,SRC$:AUTOCONFG
2 MLB DIR RDS - 348 GETS TO DEFINE 13 MACROS. 83 INTER. FILE WRITES.
