SYSBOOCMD       - Command parsing for SYSBOOT and SYSGEN         21-AUG-1978 22:30:28   VAX-11 MACRO X0.3-11               Page   0
TABLE OF CONTENTS

   (1)    3700  PARSE TABLES
   (1)   20150
   (1)   25850  BOO$USECUR - Use parameters from current image
   (1)   28400  BOO$MSGOUT - Output message
   (1)   29100  BOO$SHOWV - Routine to show one parameter value
   (1)   35600  BOO$NOCHECK - Disable value checking
   (1)   36500  BOO$SEARCH - Lookup parameter name
   (1)   38100  BOO$SETVALUE - Store parameter value
   (1)   40850  BOO$SHOVALUE - Action routine to show single va
   (1)   41450  BOO$SHOALL - Action routine to show all paramet
SYSBOOCMD       - Command parsing for SYSBOOT and SYSGEN         21-AUG-1978 22:30:28   VAX-11 MACRO X0.3-11               Page   1
09                                                                                                                               (1)

                                     0000    50 	.TITLE	SYSBOOCMD - Command parsing for SYSBOOT and SYSGEN
                                     0000   100 	.IDENT	/09/
                                     0000   150 ;
                                     0000   200 ; COPYRIGHT (C) 1978
                                     0000   250 ; DIGITAL EQUIPMENT CORPORATION, MAYNARD, MASSACHUSETTS 01754
                                     0000   300 ;
                                     0000   350 ; THIS SOFTWARE IS FURNISHED  UNDER A LICENSE FOR USE ONLY ON A SINGLE
                                     0000   400 ; COMPUTER  SYSTEM AND  MAY BE  COPIED ONLY WITH  THE INCLUSION OF THE
                                     0000   450 ; ABOVE COPYRIGHT NOTICE.  THIS SOFTWARE, OR ANY OTHER COPIES THEREOF,
                                     0000   500 ; MAY NOT BE PROVIDED OR  OTHERWISE MADE AVAILABLE TO ANY OTHER PERSON
                                     0000   550 ; EXCEPT FOR USE ON SUCH SYSTEM AND TO ONE WHO AGREES TO THESE LICENSE
                                     0000   600 ; TERMS.  TITLE TO AND  OWNERSHIP OF THE  SOFTWARE  SHALL AT ALL TIMES
                                     0000   650 ; REMAIN IN DEC.
                                     0000   700 ;
                                     0000   750 ; THE INFORMATION IN THIS SOFTWARE IS SUBJECT TO CHANGE WITHOUT NOTICE
                                     0000   800 ; AND SHOULD  NOT BE CONSTRUED  AS A COMMITMENT  BY DIGITAL  EQUIPMENT
                                     0000   850 ; CORPORATION.
                                     0000   900 ;
                                     0000   950 ; DEC ASSUMES  NO  RESPONSIBILITY  FOR  THE USE OR  RELIABILITY OF ITS
                                     0000  1000 ; SOFTWARE ON EQUIPMENT WHICH IS NOT SUPPLIED BY DEC.
                                     0000  1050
                                     0000  1100 ;++
                                     0000  1150 ;
                                     0000  1200 ; Facility:  System generation and initialization
                                     0000  1250 ;
                                     0000  1300 ; Abstract: SYSBOOCMD is the interpreter for parameter modification
                                     0000  1350 ;	    commands both at bootstrap time and as part of the sysgen utility
                                     0000  1400 ;	    SYSGEN.
                                     0000  1450 ;
                                     0000  1500 ; Environment:
                                     0000  1550 ;
                                     0000  1600 ; Author:  RICHARD I. HUSTVEDT, Creation date:  4-MAY-1978
                                     0000  1650 ;
                                     0000  1700 ; Modified by:
                                     0000  1750 ;
                                     0000  1800 ;  , Version  ,
                                     0000  1850 ; 01	-
                                     0000  1900 ;--
                                     0000  1950
                                     0000  2000 ;
                                     0000  2050 ; Include files:
                                     0000  2100 ;
                                     0000  2150 	$PRMDEF				; Parameter descriptor definitions
                                     0000  2200 	$TPADEF				; Define TPARSE symbols
                                     0000  2250
                                     0000  2300 ;
                                     0000  2350 ; MACROS:
                                     0000  2400 ;
                                     0000  2450 ;
                                     0000  2500 ; Macro to print message
                                     0000  2550 ;
                                     0000  2600 ;	MSG	message_text
                                     0000  2650 ;
                                     0000  2700 	.MACRO	MSG,STR			;
                                     0000  2750 	BSBW	BOO$FACMSG		;
                                     0000  2800 	.ASCIZ	\'STR'\			;
                                     0000  2850 	.ENDM	MSG			;
SYSBOOCMD       - Command parsing for SYSBOOT and SYSGEN         21-AUG-1978 22:30:28   VAX-11 MACRO X0.3-11               Page   2
09                                                                                                                               (1)

                                     0000  2900
                                     0000  2950 ;
                                     0000  3000 ; Equated Symbols:
                                     0000  3050 ;
                           0000000D  0000  3100 	CR=13				; Character value for carriage return
                           0000000C  0000  3150 	FF=12				; Character value for form feed
                           0000000A  0000  3200 	LF=10				; Character value for line feed
                                     0000  3250 	_VIELD	CMD,0,<-		; Command option bit definitions
                                     0000  3300 		<CONT,,M>,-		; Continue
                                     0000  3350 		<CURRENT,,M>,-		; Use current parameter settings
                                     0000  3400 		<FILE,,M>,-		; Parameter file
                                     0000  3450 		<INTERACT,,M>,-		; Interactive
                                     0000  3500 		<DEFAULT,,M>,-		; Default
                                     0000  3550 		>			;
                                     0000  3600
SYSBOOCMD       - Command parsing for SYSBOOT and SYSGEN         21-AUG-1978 22:30:28   VAX-11 MACRO X0.3-11               Page   3
09              PARSE TABLES                                                                                                     (1)

                                     0000  3700 	.SBTTL	PARSE TABLES
                                     0000  3750 ;
                                     0000  3800 ;	DEFINE COMMAND SYNTAX
                                     0000  3850 ;
                                     0000  3900
                                     0000  3950 	$INIT_STATE	STATE1,KEYTBL	;
                                     0000  4000 	$STATE				;
                                     0000  4050 	$TRAN	!ADPCMD,TPA$_EXIT,BOO$SETADP	; Set adapter TR number
                                     0000  4100 	$TRAN	!DISABLCMD,TPA$_EXIT	; Disable option command
                                     0000  4150 	$TRAN	!CONECTCMD,TPA$_EXIT,BOO$CONNECT ; Connect command
                                     0000  4200 	$TRAN	!CREATECMD,TPA$_EXIT,BOO$CREATE	; Create dump/page/swap file
                                     0000  4250 	$TRAN	!ENABLCMD,TPA$_EXIT	; Enable option command
                                     0000  4300 	$TRAN	'HELP',TPA$_EXIT,BOO$GIVEHELP	; Help command
                                     0000  4350 	$TRAN	!INSTALCMD,TPA$_EXIT,BOO$INSTALL; Install swap/page file
                                     0000  4375 	$TRAN	!REMOVECMD,TPA$_EXIT,BOO$REMOVE; Remove swap file
                                     0000  4400 	$TRAN	!LOADCMD,TPA$_EXIT,BOO$LOAD	; Load driver
                                     0000  4450 	$TRAN	!RELOADCMD,TPA$_EXIT,BOO$RELOAD	; Reload driver
                                     0000  4500 	$TRAN	!SETCMD,TPA$_EXIT	; Set specific value
                                     0000  4550 	$TRAN	!SHOCMD,TPA$_EXIT	; Show values
                                     0000  4600 	$TRAN	!USECMD,TPA$_EXIT	; Set background values
                                     0000  4650 	$TRAN	!WRTCMD,TPA$_EXIT	; Write parameter file
                                     0000  4700 	$TRAN	'CONTINUE',TPA$_EXIT,,CMD_M_CONT,CMD_L_OPTIONS	; Continue command
                                     0000  4750 	$TRAN	'EXIT',TPA$_EXIT,,CMD_M_CONT,CMD_L_OPTIONS	; Same as continue
                                     0000  4800 	$TRAN	!AUTOCONFIG,TPA$_EXIT	; Auto-configure command
                                     0000  4850 	$TRAN	TPA$_EOS,TPA$_EXIT	; END OF LINE
                                     0000  4900
                                     0000  4950 ;
                                     0000  5000 ; Adapter command
                                     0000  5050 ;
                                     0000  5100 	$STATE	ADPCMD			; Command to set adapter TR number
                                     0000  5150 	$TRAN	'ADAPTER'		; Command verb
                                     0000  5200 	$STATE				;
                                     0000  5250 	$TRAN	!NUMBER,TPA$_EXIT	; Numeric value
                                     0000  5300 ;
                                     0000  5350 ; Autoconfigure command
                                     0000  5400 ;
                                     0000  5450 	$STATE	AUTOCONFIG		; Auto configure command
                                     0000  5500 	$TRAN	'AUTOCONFIGURE',,BOO$RESETLIST	; Command verb
                                     0000  5550 	$STATE				;
                                     0000  5600 	$TRAN	'ALL',CONFIGALL		; Configure all
                                     0000  5650 	$TRAN	!NUMBER			; Configure one TR number
                                     0000  5700 	$STATE				;
                                     0000  5750 	$TRAN	!SELECT,TPA$_EXIT,BOO$CONFIGONE	;
                                     0000  5800
                                     0000  5850 	$STATE	CONFIGALL		;
                                     0000  5900 	$TRAN	!SELECT,TPA$_EXIT,BOO$CONFIGALL	;
                                     0000  5950
                                     0000  6000 	$STATE	SELECT			; Select option
                                     0000  6050 	$TRAN	'/'			; Switch introducer
                                     0000  6100 	$TRAN	TPA$_LAMBDA,TPA$_EXIT	; Else not specified
                                     0000  6150 	$STATE				;
                                     0000  6200 	$TRAN	'SELECT'		; Option name
                                     0000  6250 	$STATE				;
                                     0000  6300 	$TRAN	!SEPARATOR		; : or =
                                     0000  6350 	$STATE				;
                                     0000  6400 	$TRAN	'('			; Allow parentheses
                                     0000  6450 	$TRAN	TPA$_LAMBDA		; But make it optional
SYSBOOCMD       - Command parsing for SYSBOOT and SYSGEN         21-AUG-1978 22:30:28   VAX-11 MACRO X0.3-11               Page   4
09              PARSE TABLES                                                                                                     (1)

                                     0000  6500 	$STATE	SELECTLIST		; Device selectlist
                                     0000  6550 	$TRAN	TPA$_SYMBOL,,BOO$MAKLIST	; Select string
                                     0000  6600 	$TRAN	TPA$_LAMBDA,TPA$_EXIT	; Else end of list
                                     0000  6650 	$STATE				;
                                     0000  6700 	$TRAN	<','>,SELECTLIST	; Another option in list
                                     0000  6750 	$TRAN	TPA$_LAMBDA,TPA$_EXIT	; Else end
                                     0000  6800
                                     0000  6850 ;
                                     0000  6900 ; Create command - Create contiguous file for paging, swapping or system dump
                                     0000  6950 ;
                                     0000  7000 	$STATE	CREATECMD		;
                                     0000  7050 	$TRAN	'CREATE'		; Command verb
                                     0000  7100 	$STATE				;
                                     0000  7150 	$TRAN	!FILESPEC,,BOO$SETFILNAM; Set name of file
                                     0000  7200 	$STATE				;
                                     0000  7250 	$TRAN	'/'			;
                                     0000  7300 	$STATE				;
                                     0000  7350 	$TRAN	'SIZE'			;
                                     0000  7355 	$STATE				;
                                     0000  7360 	$TRAN	!VALUE,TPA$_EXIT,BOO$FILESIZE;
                                     0000  7400 ;
                                     0000  7450 ; Connect command - Connect specified device and load driver if required
                                     0000  7500 ;
                                     0000  7550 	$STATE	CONECTCMD		;
                                     0000  7600 	$TRAN	'CONNECT',,BOO$CONRESET	; Command verb
                                     0000  7650 	$STATE				;
                                     0000  7700 	$TRAN	TPA$_SYMBOL,,BOO$DEVNAME; Device name
                                     0000  7750 	$STATE	CONOPT			;
                                     0000  7800 	$TRAN	!CONECTOPT,CONOPT	; Connect option
                                     0000  7850 	$TRAN	TPA$_LAMBDA,TPA$_EXIT	;
                                     0000  7900 ;
                                     0000  7950 ; Disable command
                                     0000  8000 ;
                                     0000  8050 	$STATE	DISABLCMD		; Disable command
                                     0000  8100 	$TRAN	'DISABLE'		; Command verb
                                     0000  8150 	$STATE				;
                                     0000  8200 	$TRAN	'CHECKS',TPA$_EXIT,BOO$NOCHECK	; Disable value checking
                                     0000  8250 ;
                                     0000  8300 ;	Recognize ENABLE command
                                     0000  8350 ;
                                     0000  8400 	$STATE	ENABLCMD		; ENABLE command
                                     0000  8450 	$TRAN	'ENABLE'		; Command verb
                                     0000  8500 	$STATE				;
                                     0000  8550 	$TRAN	'CHECKS',TPA$_EXIT,BOO$CHECK	;
                                     0000  8552 ;
                                     0000  8554 ;	Recognize INSTALL command
                                     0000  8556 ;
                                     0000  8558 	$STATE	INSTALCMD		;
                                     0000  8560 	$TRAN	'INSTALL',,BOO$INSRESET	;
                                     0000  8562 	$STATE				;
                                     0000  8564 	$TRAN	!FILESPEC,,BOO$SETFILNAM;
                                     0000  8566 	$STATE	INS1			;
                                     0000  8568 	$TRAN	'/'			; Switch introducer
                                     0000  8570 	$TRAN	TPA$_LAMBDA,TPA$_EXIT	;
                                     0000  8572 	$STATE				;
                                     0000  8574 	$TRAN	'PAGEFILE',INS1,BOO$SETPGFL;
                                     0000  8576 	$TRAN	'SFTX'			;
SYSBOOCMD       - Command parsing for SYSBOOT and SYSGEN         21-AUG-1978 22:30:28   VAX-11 MACRO X0.3-11               Page   5
09              PARSE TABLES                                                                                                     (1)

                                     0000  8578 	$STATE	INS2			;
                                     0000  8580 	$TRAN	!VALUE,INS1,BOO$SETSFTX	;
                                     0000  8600 ;
                                     0000  8650 ;	Recognize LOAD command
                                     0000  8700 ;
                                     0000  8750 	$STATE	LOADCMD			;
                                     0000  8800 	$TRAN	'LOAD',LOAD1,BOO$CONRESET; Command verb
                                     0000  8850 ;
                                     0000  8900 ;	Recognize RELOAD command
                                     0000  8950 ;
                                     0000  9000 	$STATE	RELOADCMD		;
                                     0000  9050 	$TRAN	'RELOAD',LOAD1,BOO$CONRESET; Command verb
                                     0000  9055 ;
                                     0000  9060 ;	Recognize REMOVE command
                                     0000  9065 ;
                                     0000  9070 	$STATE	REMOVECMD		;
                                     0000  9075 	$TRAN	'REMOVE'		; Command verb
                                     0000  9080 	$STATE				;
                                     0000  9085 	$TRAN	'/'			;
                                     0000  9090 	$STATE				;
                                     0000  9092 	$TRAN	'SFTX',INS2		;
                                     0000  9100 ;
                                     0000  9150 ;	Recognize SET Command
                                     0000  9200 ;
                                     0000  9250 	$STATE	SETCMD			; SET command
                                     0000  9300 	$TRAN	'SET'			; Command verb
                                     0000  9350 	$STATE				;
                                     0000  9400 	$TRAN	'/',SETSPEC		;
                                     0000  9425 	$TRAN	'.',,BOO$DOT		; Use last name
                                     0000  9450 	$TRAN	TPA$_SYMBOL,,BOO$SEARCH	; Lookup and verify symbol name
                                     0000  9500 	$STATE				;
                                     0000  9550 	$TRAN	!NUMBER,TPA$_EXIT,BOO$SETVALUE	; Verify and set value
                                     0000  9600 	$TRAN	'DEFAULT',TPA$_EXIT,BOO$SETDEF	; Set to default value
                                     0000  9650 	$STATE	SETSPEC			;
                                     0000  9700 	$TRAN	'STARTUP'		; Set startup file name
                                     0000  9750 	$STATE				;
                                     0000  9800 	$TRAN	!FILESPEC,TPA$_EXIT,BOO$SETSTART	;
                                     0000  9850
                                     0000  9900 ;
                                     0000  9950 ;	Recognize SHOW Command
                                     0000 10000 ;
                                     0000 10050 	$STATE	SHOCMD			; SHOW command
                                     0000 10100 	$TRAN	'SHOW'			; Command verb
                                     0000 10150 	$STATE				;
                                     0000 10200 	$TRAN	'/'			;
                                     0000 10225 	$TRAN	'.',SHOWONE,BOO$DOT	; SHOW .
                                     0000 10250 	$TRAN	TPA$_SYMBOL,SHOWONE,BOO$SEARCH	; Lookup and verify symbol name
                                     0000 10300 	$STATE				;
                                     0000 10350 	$TRAN	'ACP',TPA$_EXIT,BOO$SHOACP	; SHOW/ACP
                                     0000 10400 	$TRAN	'ALL',TPA$_EXIT,BOO$SHOALL	; SHOW/ALL
                                     0000 10450 	$TRAN	'RMS',TPA$_EXIT,BOO$SHORMS	; SHOW/RMS
                                     0000 10500 	$TRAN	'SPECIAL',TPA$_EXIT,BOO$SHOSPECIAL	; SHOW/SPECIAL
                                     0000 10550 	$TRAN	'SYS',TPA$_EXIT,BOO$SHOSYS	; SHOW/SYS
                                     0000 10600 	$TRAN	'GEN',TPA$_EXIT,BOO$SHOGEN	; SHOW/GEN (Sysgen Parameters)
                                     0000 10650 	$TRAN	'JOB',TPA$_EXIT,BOO$SHOJBC	; SHOW/JOB (Job controller)
                                     0000 10700 	$TRAN	'PQL',TPA$_EXIT,BOO$SHOPQL	; SHOW/PQL (Process quota list)
                                     0000 10750 	$TRAN	'NAMES',TPA$_EXIT,BOO$SHONAMES	; SHOW/NAMES show parameter names
SYSBOOCMD       - Command parsing for SYSBOOT and SYSGEN         21-AUG-1978 22:30:28   VAX-11 MACRO X0.3-11               Page   6
09              PARSE TABLES                                                                                                     (1)

                                     0000 10800 	$TRAN	'MAJOR',TPA$_EXIT,BOO$SHOMAJOR	; SHOW/MAJOR show major parameters
                                     0000 10850 	$TRAN	'STARTUP',TPA$_EXIT,BOO$SHOSTART; SHO/STARTUP Show startup file name
                                     0000 10875 	$TRAN	'DEVICES'		; SHO/DEVICES[=devname]
                                     0000 10880 	$STATE				;
                                     0000 10885 	$TRAN	!SEPARATOR		;
                                     0000 10890 	$TRAN	TPA$_LAMBDA,TPA$_EXIT,BOO$SHODEV_ALL	; SHOW ALL
                                     0000 10895 	$STATE				;
                                     0000 10897 	$TRAN	TPA$_STRING,TPA$_EXIT,BOO$SHODEV	; SHOW SPECIFIC DEVICE
                                     0000 10900 	$STATE	SHOWONE			; SHOW value_name
                                     0000 10950 	$TRAN	TPA$_LAMBDA,TPA$_EXIT,BOO$SHOVALUE	;
                                     0000 11000 ;
                                     0000 11050 ; Recognize USE command
                                     0000 11100 ;
                                     0000 11150 	$STATE	USECMD			;
                                     0000 11200 	$TRAN	'USE'			;
                                     0000 11250 	$STATE				;
                                     0000 11300 	$TRAN	'CURRENT',,BOO$USECUR	;
                                     0000 11350 	$TRAN	'DEFAULT',,,CMD_M_DEFAULT,CMD_L_OPTIONS	;
                                     0000 11400 	$TRAN	!FILESPEC,,BOO$USEFILE	;
                                     0000 11450 	$STATE				;
                                     0000 11500 	$TRAN	TPA$_LAMBDA,TPA$_EXIT	;
                                     0000 11550 ;
                                     0000 11600 ; 	Recognize WRITE Command
                                     0000 11650 ;
                                     0000 11700 	$STATE	WRTCMD			;
                                     0000 11750 	$TRAN	'WRITE'			; Command verb
                                     0000 11800 	$STATE				;
                                     0000 11850 	$TRAN	!FILESPEC,TPA$_EXIT,BOO$WRTFILE	;
                                     0000 11900 ;
                                     0000 11950 ; DETECT AND CHECK GENERAL FILE SPECIFICATION
                                     0000 12000 ;
                                     0000 12050 	$STATE	FILESPEC		; GENERAL FILE SPEC CHECK
                                     0000 12100 	$TRAN	!DEVNAME		;
                                     0000 12150 	$TRAN	TPA$_LAMBDA		;
                                     0000 12200 	$STATE	FIL1			;
                                     0000 12250 	$TRAN	!DIRECT			;
                                     0000 12300 	$TRAN	TPA$_LAMBDA		;
                                     0000 12350 	$STATE	FIL2			;
                                     0000 12400 	$TRAN	TPA$_STRING		;
                                     0000 12450 	$STATE				;
                                     0000 12500 	$TRAN	!TYPE			; CHECK FOR TYPE AND VERSION
                                     0000 12550 	$TRAN	TPA$_LAMBDA		;
                                     0000 12600 	$STATE	FIL3			;
                                     0000 12650 	$TRAN	!VERSION,TPA$_EXIT	;
                                     0000 12700 	$TRAN	TPA$_LAMBDA,TPA$_EXIT	;
                                     0000 12750
                                     0000 12800 ;
                                     0000 12850 ; RECOGNIZE DEVICE NAME
                                     0000 12900 ;
                                     0000 12950 	$STATE	DEVNAME			;
                                     0000 13000 	$TRAN	TPA$_SYMBOL		;
                                     0000 13050 	$STATE				;
                                     0000 13100 	$TRAN	':',TPA$_EXIT		;
                                     0000 13150
                                     0000 13200
                                     0000 13250 ;
                                     0000 13300 ; RECOGNIZE DIRECTORY
SYSBOOCMD       - Command parsing for SYSBOOT and SYSGEN         21-AUG-1978 22:30:28   VAX-11 MACRO X0.3-11               Page   7
09              PARSE TABLES                                                                                                     (1)

                                     0000 13350 ;
                                     0000 13400 	$STATE	DIRECT			;
                                     0000 13450 	$TRAN	'['			;
                                     0000 13500 	$STATE				;
                                     0000 13550 	$TRAN	!UFD			; CHECK FOR UIC DIRECTORY NAME
                                     0000 13600 	$TRAN	!DIRSUB			;
                                     0000 13650 	$STATE				;
                                     0000 13700 	$TRAN	']',TPA$_EXIT		;
                                     0000 13750 ;
                                     0000 13800 ; RECOGNIZE STRING DIRECTORIES AND SUBDIRECTORIES
                                     0000 13850 ;
                                     0000 13900 	$STATE	DIRSUB			;
                                     0000 13950 	$TRAN	TPA$_STRING		;
                                     0000 14000 	$TRAN	TPA$_LAMBDA		; ALLOW [.sub.sub]
                                     0000 14050 	$STATE				;
                                     0000 14100 	$TRAN	'.',DIRSUB		; LOOP FOR ANOTHER DIRECTORY NAME
                                     0000 14150 	$TRAN	TPA$_LAMBDA,TPA$_EXIT	;
                                     0000 14200
                                     0000 14250 ;
                                     0000 14300 ; RECOGNIZE UFD DIRECTORY FORMAT
                                     0000 14350 ;
                                     0000 14400 	$STATE	UFD			;
                                     0000 14450 	$TRAN	TPA$_OCTAL		;
                                     0000 14500 	$STATE				;
                                     0000 14550 	$TRAN	<','>			;
                                     0000 14600 	$STATE				;
                                     0000 14650 	$TRAN	TPA$_OCTAL,TPA$_EXIT	;
                                     0000 14700
                                     0000 14750 ;
                                     0000 14800 ; RECOGNIZE FILE TYPE
                                     0000 14850 ;
                                     0000 14900 	$STATE	TYPE			;
                                     0000 14950 	$TRAN	'.'			;
                                     0000 15000 	$STATE				;
                                     0000 15050 	$TRAN	TPA$_STRING,TPA$_EXIT	;
                                     0000 15100 	$TRAN	TPA$_BLANK,TPA$_EXIT	;
                                     0000 15150 	$TRAN	TPA$_LAMBDA,TPA$_EXIT	;
                                     0000 15200
                                     0000 15250 ;
                                     0000 15300 ; RECOGNIZE FILE VERSION
                                     0000 15350 ;
                                     0000 15400 	$STATE	VERSION			;
                                     0000 15450 	$TRAN	<';'>			;
                                     0000 15500 	$STATE				;
                                     0000 15550 	$TRAN	TPA$_DECIMAL,TPA$_EXIT	;
                                     0000 15600 	$TRAN	TPA$_BLANK,TPA$_EXIT	;
                                     0000 15650 	$TRAN	TPA$_LAMBDA,TPA$_EXIT	;
                                     0000 15700
                                     0000 15750 ;
                                     0000 15800 ; RECOGNIZE NUMBER
                                     0000 15850 ;
                                     0000 15900 	$STATE NUMBER			;
                                     0000 15950 	$TRAN	TPA$_DECIMAL,TPA$_EXIT	; DECIMAL NUMBER
                                     0000 16000 	$TRAN	'%'			; BASE PREFIX
                                     0000 16050 	$STATE				;
                                     0000 16100 	$TRAN	'X',HEXNUM		; HEX BASE DESIGNATOR
                                     0000 16150 	$TRAN	'O'			; OCTAL NUMBER
SYSBOOCMD       - Command parsing for SYSBOOT and SYSGEN         21-AUG-1978 22:30:28   VAX-11 MACRO X0.3-11               Page   8
09              PARSE TABLES                                                                                                     (1)

                                     0000 16200 	$STATE				;
                                     0000 16250 	$TRAN	TPA$_OCTAL,TPA$_EXIT	; INTRODUCED OCTAL NUMBER
                                     0000 16300 	$STATE	HEXNUM			; INTRODUCED HEX NUMBER
                                     0000 16350 	$TRAN	TPA$_HEX,TPA$_EXIT	; HEX NUMBER
                                     0000 16400
                                     0000 16450 ;
                                     0000 16500 ; RECOGNIZE SWITCH/VALUE SEPARATOR
                                     0000 16550 ;
                                     0000 16600 	$STATE	SEPARATOR		;
                                     0000 16650 	$TRAN	'=',TPA$_EXIT		;
                                     0000 16700 	$TRAN	':',TPA$_EXIT		;
                                     0000 16750 ;
                                     0000 16800 ; RECOGNIZE CONNECT OPTIONS
                                     0000 16850 ;
                                     0000 16900 	$STATE	CONECTOPT		;
                                     0000 16950 	$TRAN	'/'			; Switch introducer
                                     0000 17000 	$STATE				;
                                     0000 17050 	$TRAN	!CONADP,TPA$_EXIT,BOO$CONADP	; Adapter number
                                     0000 17100 	$TRAN	!CONCREG,TPA$_EXIT,BOO$CONCREG	; Control register (UBA)
                                     0000 17150 	$TRAN	!CONCVECTOR,TPA$_EXIT,BOO$CONCVEC	; Vector (UBA)
                                     0000 17200 	$TRAN	!CONCNUMVEC,TPA$_EXIT,BOO$CONCNUM	; Number of vectors
                                     0000 17250 	$TRAN	!CONAUNIT,TPA$_EXIT,BOO$CONAUNIT; Adapter unit
                                     0000 17300 	$TRAN	'DRIVERNAME'		;
                                     0000 17350 	$STATE				;
                                     0000 17400 	$TRAN	!SEPARATOR		;
                                     0000 17450 	$STATE	LOAD1			;
                                     0000 17500 	$TRAN	!FILESPEC,TPA$_EXIT,BOO$CONDRVNAM	; Driver name
                                     0000 17550
                                     0000 17600 	$STATE	CONADP			; Adapter tr number
                                     0000 17650 	$TRAN	'ADAPTER',VALUE		;
                                     0000 17700
                                     0000 17750 	$STATE	CONCREG			; Control register address
                                     0000 17800 	$TRAN	'CONTROLREGISTER',VALUE	;
                                     0000 17850 	$TRAN	'CSR',VALUE		; Synonym
                                     0000 17900
                                     0000 17950 	$STATE	CONCVECTOR		; Control vector address
                                     0000 18000 	$TRAN	'VECTOR',VALUE		;
                                     0000 18050
                                     0000 18100 	$STATE	CONCNUMVEC		; Number of vectors
                                     0000 18150 	$TRAN	'NUMVEC',VALUE		;
                                     0000 18200
                                     0000 18250 	$STATE	CONAUNIT		; Adapter unit number
                                     0000 18300 	$TRAN	'ADPUNIT',VALUE		;
                                     0000 18350
                                     0000 18400 	$STATE	VALUE			; Get value for option
                                     0000 18450 	$TRAN	!SEPARATOR		;
                                     0000 18500 	$STATE				;
                                     0000 18550 	$TRAN	!NUMBER,TPA$_EXIT	;
                                     0000 18600
                                     0000 18650 	$END_STATE
                                     032A 18700 ;
                                     032A 18750 ; Own Storage:
                                     032A 18800 ;
                                 00000000 18850 	.PSECT	SYSBOOCMD,LONG
                                     0000 18900 PARMBLK:				; TPARSE parameter block
                           00000024  0000 18950 	.BLKB	TPA$K_LENGTH0		;
                                     0024 19000 CMD_L_OPTIONS:				; Command option flags
SYSBOOCMD       - Command parsing for SYSBOOT and SYSGEN         21-AUG-1978 22:30:28   VAX-11 MACRO X0.3-11               Page   9
09              PARSE TABLES                                                                                                     (1)

                           00000000  0024 19050 	.LONG	0			;
                                     0028 19100 BOO$GL_CMDOPT::				; Command options
                           00000000  0028 19150 	.LONG	0			; Default is off
                                     002C 19175 BOO$GL_DOT::				; Last parameter address
                           00000000  002C 19187 	.LONG	0			;
                                     0030 19200 ;
                                     0030 19250 ;	Bit	Meaning
                                     0030 19300 ;	---	-------
                                     0030 19350 ;	 0 	Disable value checking
                                     0030 19400 ;
                           00000001  0030 19450 BOO$M_NOCHECK=1				;
                                     0030 19500 BOO$GQ_FILDESC:				; File name descriptor
                  00000000 00000000  0030 19550 	.LONG	0,0			;
                                     0038 19600 BOO$GT_FILNAME::			; File name buffer
                           00000078  0038 19650 	.BLKB	64			;
                                     0078 19700 BOO$GT_COMBUF::				; Command Line Buffer
                           00000140  0078 19750 	.BLKB	200			;
                           000000C8  0140 19800 BOO$C_COMBUFSZ==.-BOO$GT_COMBUF		; Size of command buffer
                                     0140 19850 BOO$GT_COMSTR::				; Command string
                           00000540  0140 19900 	.BLKB	1024			;
                           00000400  0540 19950 BOO$C_COMSTRLEN==.-BOO$GT_COMSTR	; Length of command string buffer
                                     0540 20000 BOO$GT_SYSNAME::			; System name string
3A 4D 45 54 53 59 53 24 53 59 53 00' 0540 20050 	.ASCIC	\SYS$SYSTEM:SYS.EXE\	; Name of sytem image
               45 58 45 2E 53 59 53  054C
                                 12  0540
SYSBOOCMD       - Command parsing for SYSBOOT and SYSGEN         21-AUG-1978 22:30:28   VAX-11 MACRO X0.3-11               Page  10
09                                                                                                                               (1)

                                     0553 20150 	.SBTTL
                                     0553 20200 ;++
                                     0553 20250 ;
                                     0553 20300 ; Functional Description:
                                     0553 20350 ;
                                     0553 20400 ;
                                     0553 20450 ; Calling Sequence:
                                     0553 20500 ;	NONE
                                     0553 20550 ;
                                     0553 20600 ; Input Parameters:
                                     0553 20650 ;	NONE
                                     0553 20700 ;
                                     0553 20750 ; Implicit Inputs:
                                     0553 20800 ;	NONE
                                     0553 20850 ;
                                     0553 20900 ; Output Parameters:
                                     0553 20950 ;	NONE
                                     0553 21000 ;
                                     0553 21050 ; Implicit Outputs:
                                     0553 21100 ;	NONE
                                     0553 21150 ;
                                     0553 21200 ; Side Effects:
                                     0553 21250 ;	NONE
                                     0553 21300 ;
                                     0553 21350 ;--
                                     0553 21400 	.LIST	MEB			; Show macro expansions
                                     0553 21450
                               0FFC  0553 21500 BOO$GETPARAM::	.WORD	^M<R2,R3,R4,R5,R6,R7,R8,R9,R10,R11>	; Save all registers
                                     0555 21550 READCMD:				;
            57       FAA7 CF     DE  0555 21600 	MOVAL	W^PARMBLK,R7		; Get address of parameter block
                       08 A7     D4  055A 21650 	CLRL	TPA$L_STRINGCNT(R7)	; Initialize string length
         0C A7       FBDF CF     9E  055D 21700 	MOVAB	W^BOO$GT_COMSTR,TPA$L_STRINGPTR(R7)	; And address
                                     0563 21750 READLINE:				;
            52       FB11 CF     9E  0563 21800 	MOVAB	W^BOO$GT_COMBUF,R2	; Set address of buffer
                          52     DD  0568 21850 	PUSHL	R2			; Set buffer address into argument list
            7E         C8 8F     9A  056A 21900 	MOVZBL	#BOO$C_COMBUFSZ,-(SP)	;  and maximum size for read
                 00000000'EF     9F  056E 21950 	PUSHAB	BOO$GT_PROMPT		; Address of prompt string
       0000'CF            03     FB  0574 22000 	CALLS	#3,W^BOO$READPROMPT	; Prompt for and accept command
            01            50     E8  0579 22050 	BLBS	R0,5$			; Exit if end of file.
                                 04  057C 22100 	RET				;
            1D         04 AC     E9  057D 22150 5$:	BLBC	4(AP),10$		; Skip echo if no verify
                          7E     7C  0581 22200 	CLRQ	-(SP)			; Null buffer for read
                       01 A2     9F  0583 22250 	PUSHAB	1(R2)			; Set address of output string
            50            62     9A  0586 22300 	MOVZBL	(R2),R0			; Get length of string
            50         01 A240   9E  0589 22350 	MOVAB	1(R2)[R0],R0		; Point past string
            80            0D     90  058E 22400 	MOVB	#CR,(R0)+		; Set CR
                          60     94  0591 22450 	CLRB	(R0)			; Mark end of string
                          00FD   30  0593 22500 	BSBW	BOO$MSGOUT		; Output CR/LF
                           00 0A 0D  0596 22550 	.ASCIZ	<CR><LF>		;
       0000'CF            03     FB  0599 22600 	CALLS	#3,W^BOO$READPROMPT	; Output buffer string
         08 A7         0C A7     C1  059E 22650 10$:	ADDL3	TPA$L_STRINGPTR(R7),TPA$L_STRINGCNT(R7),R3 ; Get current pointer
                          53         05A3
            50            82     9A  05A4 22700 	MOVZBL	(R2)+,R0		; Get length of input line
                          BA     13  05A7 22750 	BEQL	READLINE		; Ignore null input
            51            52     D0  05A9 22800 	MOVL	R2,R1			; Move to LOCC address register
            52            81     9A  05AC 22850 30$:	MOVZBL	(R1)+,R2		; Get a character
            52            2D     91  05AF 22900 	CMPB	#^A/-/,R2		; Is this a possible continuation?
SYSBOOCMD       - Command parsing for SYSBOOT and SYSGEN         21-AUG-1978 22:30:28   VAX-11 MACRO X0.3-11               Page  11
09                                                                                                                               (1)

                          1D     13  05B2 22950 	BEQL	50$			; Branch if yes
            52            21     91  05B4 23000 	CMPB	#^A/!/,R2		; Is this the start of a comment?
                          0B     13  05B7 23050 	BEQL	40$			; Branch if yes
                       08 A7     D6  05B9 23100 	INCL	TPA$L_STRINGCNT(R7)	; Bump characters in command string
            83            52     90  05BC 23150 	MOVB	R2,(R3)+		; Copy character to command string
            EA            50     F5  05BF 23200 35$:	SOBGTR	R0,30$			; Continue for all characters in put
                          4B     11  05C2 23250 	BRB	PARSE			; Done, parse command
                          50     D7  05C4 23300 40$:	DECL	R0			; One less character
            50            21     3A  05C6 23350 	LOCC	#^A/!/,R0,1(R1)		; Scan remaining string for !
                       01 A1         05C9
                          42     13  05CB 23400 	BEQL	PARSE			; None end of line first
                          51     D6  05CD 23450 	INCL	R1			; Advance to next character
                          EE     11  05CF 23500 	BRB	35$			; Continue with line scan
            54            53     D0  05D1 23550 50$:	MOVL	R3,R4			; Save string insertion pointer
            55         08 A7     D0  05D4 23600 	MOVL	TPA$L_STRINGCNT(R7),R5	; and current length
            83            52     90  05D8 23650 	MOVB	R2,(R3)+		; Copy to buffer anyway
                       08 A7     D6  05DB 23700 	INCL	TPA$L_STRINGCNT(R7)	; Advance counter
                          15     11  05DE 23750 	BRB	65$			; And check for end of string
            52            81     9A  05E0 23800 60$:	MOVZBL	(R1)+,R2		; Get another character
            83            52     90  05E3 23850 	MOVB	R2,(R3)+		; Copy to buffer
                       08 A7     D6  05E6 23900 	INCL	TPA$L_STRINGCNT(R7)	; Bump string count
            52            20     91  05E9 23950 	CMPB	#^A/ /,R2		; Blank?
                          07     13  05EC 24000 	BEQL	65$			; Yes, still might be a continuation
            52            21     91  05EE 24050 	CMPB	#^A/!/,R2		; Is this a comment?
                          0F     13  05F1 24100 	BEQL	80$			; Branch if yes
                          CA     11  05F3 24150 	BRB	35$			; Not a continuation
            E8            50     F5  05F5 24200 65$:	SOBGTR	R0,60$			; Continue to end of line
            53            54     D0  05F8 24250 70$:	MOVL	R4,R3			; Drop everything after continuation
         08 A7            55     D0  05FB 24300 	MOVL	R5,TPA$L_STRINGCNT(R7)	; By restoring count
                          FF61   31  05FF 24350 	BRW	READLINE		; Read another line
                          50     D7  0602 24400 80$:	DECL	R0			; One less character
            50            21     3A  0604 24450 	LOCC	#^A/!/,R0,1(R1)		; Scan for end of comment
                       01 A1         0607
                          ED     13  0609 24500 	BEQL	70$			; None
                          51     D6  060B 24550 	INCL	R1			; Skip trailing !
                          E6     11  060D 24600 	BRB	65$			; and continue scan for end of line
            67            08     D0  060F 24650 PARSE:	MOVL	#TPA$K_COUNT0,TPA$L_COUNT(R7)	; Init count field
         04 A7            02     C8  0612 24700 	BISL	#TPA$M_ABBREV,TPA$L_OPTIONS(R7)	; Permit abbreviations
                     FA0A CF     D4  0616 24750 	CLRL	CMD_L_OPTIONS		; Initialize option flags
                     0000'CF     9F  061A 24800 	PUSHAB	W^KEYTBL		; Pass address of key table
                     0000'CF     9F  061E 24850 	PUSHAB	W^STATE1		;  and state table
                          57     DD  0622 24900 	PUSHL	R7			; Set address of parameter block
       0000'CF            03     FB  0624 24950 	CALLS	#3,W^LIB$TPARSE		; Parse input
            19            50     E8  0629 25000 	BLBS	R0,20$			; Branch if no syntax error
            50            1F     E0  062C 25050 	BBS	#31,R0,15$		; Branch if error already given
                          13         062F
                                     0630 25100 	MSG	<-E-Syntax error>; Give error indication
                          F9CD'  30  0630       	BSBW	BOO$FACMSG		;
72 65 20 78 61 74 6E 79 53 2D 45 2D  0633       	.ASCIZ	\-E-Syntax error\			;
                        00 72 6F 72  063F
                          17     11  0643 25150 15$:	BRB	30$			; and get another command
            56       F9DB CF     D0  0645 25200 20$:	MOVL	CMD_L_OPTIONS,R6	; Get command option flags
            56            00     E0  064A 25250 	BBS	#CMD_V_CONT,R6,EXIT	; Exit if continue flag
                          11         064D
            56            04     E1  064E 25300 	BBC	#CMD_V_DEFAULT,R6,30$	; Read another command if Help
                          0A         0651
                                     0652 25350 ;
SYSBOOCMD       - Command parsing for SYSBOOT and SYSGEN         21-AUG-1978 22:30:28   VAX-11 MACRO X0.3-11               Page  12
09                                                                                                                               (1)

                                     0652 25400 ; The Default values for system parameters are selected and must be copied to
                                     0652 25450 ; the current system parameter area.
                                     0652 25500 ;
       0000'CF       0000'8F     28  0652 25550 	MOVC3	#EXE$C_SYSPARSZ,W^BOO$A_SYSPARAM,W^EXE$A_SYSPARAM	; Copy defaults
                     0000'CF         0659
                          FEF6   31  065C 25600 30$:	BRW	READCMD			; Read more commands
                                     065F 25650
            50            01     D0  065F 25700 EXIT:	MOVL	#1,R0			; Return success
                                 04  0662 25750 	RET				;
SYSBOOCMD       - Command parsing for SYSBOOT and SYSGEN         21-AUG-1978 22:30:28   VAX-11 MACRO X0.3-11               Page  13
09              BOO$USECUR - Use parameters from current image                                                                   (1)

                                     0663 25850 	.SBTTL	BOO$USECUR - Use parameters from current image
                                     0663 25900 BOO$USECUR:				; Set to current system values
                               03FC  0663 25950 	.WORD	^M<R2,R3,R4,R5,R6,R7,R8,R9>;
            50       FED7 CF     9E  0665 26000 	MOVAB	BOO$GT_SYSNAME,R0	; Get address of system file name
            57       F9C2 CF     9E  066A 26050 	MOVAB	BOO$GQ_FILDESC,R7	; Address of file name descriptor
            67            80     9A  066F 26100 	MOVZBL	(R0)+,(R7)		; Set length in descriptor
         04 A7            50     D0  0672 26150 	MOVL	R0,4(R7)		;  and set address
                          F987'  30  0676 26200 	BSBW	BOO$FILOPEN		; Open file
            13            50     E9  0679 26250 	BLBC	R0,10$			;  Exit if error
            59         00'8F     9A  067C 26300 	MOVZBL	#<<EXE$C_SYSPARSZ+511>@-9>,R9	; Set size of read
            58   FFC00001'8F     C0  0680 26350 	ADDL	#<<MMG$A_SYSPARAM-^X80000000+512>@-9>,R8 ; Point to parameters
            56       0000'CF     9E  0687 26400 	MOVAB	W^EXE$A_SYSPARAM,R6	; Set buffer address
                          F971'  30  068C 26450 	BSBW	BOO$READFILE		; Read parameters from current system
            50            01     D0  068F 26500 10$:	MOVL	#1,R0			; Return success
                                 04  0692 26550 	RET				;
                                     0693 26600
SYSBOOCMD       - Command parsing for SYSBOOT and SYSGEN         21-AUG-1978 22:30:28   VAX-11 MACRO X0.3-11               Page  14
09              BOO$MSGOUT - Output message                                                                                      (1)

                                     0693 28400 	.SBTTL	BOO$MSGOUT - Output message
                                     0693 28450 ;
                                     0693 28500 ; Calling Sequence:
                                     0693 28550 ;	BSBW	BOO$MSGOUT
                                     0693 28600 ;	.ASCIZ	message_string
                                     0693 28650 ;
                                     0693 28700 BOO$MSGOUT::				;
                          7E     7C  0693 28750 	CLRQ	-(SP)			; Null read buffer
                       08 AE     DD  0695 28800 	PUSHL	8(SP)			; Address of string
       0000'CF            03     FB  0698 28850 	CALLS	#3,W^BOO$READPROMPT	; Output string
       FA00 8F            00     3A  069D 28900 	LOCC	#0,#64000,@(SP)+	; Find end of string
                          9E         06A2
            50            01     D0  06A3 28950 	MOVL	#1,R0			; Set success code
                       01 A1     17  06A6 29000 	JMP	1(R1)			; Return to caller
SYSBOOCMD       - Command parsing for SYSBOOT and SYSGEN         21-AUG-1978 22:30:28   VAX-11 MACRO X0.3-11               Page  15
09              BOO$SHOWV - Routine to show one parameter value                                                                  (1)

                                     06A9 29100 	.SBTTL	BOO$SHOWV - Routine to show one parameter value
                                     06A9 29150 ;
                                     06A9 29200 ; Input Parameters:
                                     06A9 29250 ;	R4 - Pointer to PRM block to be displayed.
                                     06A9 29300 ;
                                     06A9 29350 ; Output Parameters:
                                     06A9 29400 ;	Content of parameter block is displayed by calling BOO$READPROMPT
                                     06A9 29450 ;
                                     06A9 29500 BOO$SHOWV:				;
            50            64     D0  06A9 29550 	MOVL	(R4),R0			; Get address of value
            50       0000'CF40   9E  06AC 29600 	MOVAB	W^BOO$A_SYSPARAM[R0],R0	; Add current base address
            50   00000000'8F     C2  06B2 29650 	SUBL	#BOO$A_SYSPARAM,R0	;  and subtract link-time value
                          54     10  06B9 29700 	BSBB	GETDATA			; Get data item according to size
                     072F'CF     9F  06BB 29750 	PUSHAB	W^CTRLSTR		; Build descriptor for control string
            7E         18'8F     9A  06BF 29800 	MOVZBL	#CTRLSTRLEN,-(SP)	; Set length into descriptor
                     074B'CF     9F  06C3 29850 	PUSHAB	W^OUTBUF		; Build descriptor for output buffer
            7E         88'8F     9A  06C7 29900 	MOVZBL	#OUTBUFLEN,-(SP)	; Set length into descriptor
            50            5E     D0  06CB 29950 	MOVL	SP,R0			; Save pointer to descriptors
                       24 A4     9F  06CE 30000 	PUSHAB	PRM$T_UNIT(R4)		; Stack address of unit name string
                       0C A4     DD  06D1 30050 	PUSHL	PRM$L_MAX(R4)		; Stack maximum value
                       08 A4     DD  06D4 30100 	PUSHL	PRM$L_MIN(R4)		;  and minimum value
                       04 A4     DD  06D7 30150 	PUSHL	PRM$L_DEFAULT(R4)	; Default value
         10 A4       1000 8F     B3  06DA 30200 	BITW	#PRM$M_NEG,PRM$W_FLAGS(R4)	; check for negated value
                          03     13  06E0 30250 	BEQL	10$			; Branch if not
            6E            6E     CE  06E2 30300 	MNEGL	(SP),(SP)		; Make absolute value
                          51     DD  06E5 30350 10$:	PUSHL	R1			; Current value
                       14 A4     9F  06E7 30400 	PUSHAB	PRM$T_NAME(R4)		; Stack address of parameter name
                          80     7F  06EA 30450 	PUSHAQ	(R0)+			; Stack address of buffer descriptor
                     0747'CF     DF  06EC 30500 	PUSHAL	W^OUTBUFSIZ		; Set address of loc to receive size
                          60     7F  06F0 30550 	PUSHAQ	(R0)			; Stack address of control string descr
   00000000'EF            0D     FB  06F2 30600 	CALLS	#13,SYS$FAO		; Format value for output
            50       0747'CF     D0  06F9 30650 	MOVL	W^OUTBUFSIZ,R0		; Get size of output string
                     074B'CF40   94  06FE 30700 	CLRB	W^OUTBUF[R0]		;  and make ASCIZ string
                          7E     7C  0703 30750 	CLRQ	-(SP)			; Null read buffer
                     074B'CF     9F  0705 30800 	PUSHAB	W^OUTBUF		; Set buffer address
       0000'CF            03     FB  0709 30850 	CALLS	#3,W^BOO$READPROMPT	; Write string
                                 05  070E 30900 	RSB				; and return
                                     070F 30950 GETDATA:				;
            51         13 A4     9A  070F 31000 	MOVZBL	PRM$B_POS(R4),R1	; GET SIZE OF DATUM
         12 A4            51     EF  0713 31050 	EXTZV	R1,PRM$B_SIZE(R4),(R0),R1	; GET DATUM
            51            60         0717
         10 A4       1000 8F     B3  0719 31100 	BITW	#PRM$M_NEG,PRM$W_FLAGS(R4)	; CHECK FOR NEGATED VALUE
                          0D     13  071F 31150 	BEQL	10$			; NO
            51         13 A4     9A  0721 31200 	MOVZBL	PRM$B_POS(R4),R1	; GET POSITION AGAIN
         12 A4            51     EE  0725 31250 	EXTV	R1,PRM$B_SIZE(R4),(R0),R1	; CONVERT TO SIGNED NUMBER
            51            60         0729
            51            51     CE  072B 31300 	MNEGL	R1,R1			; ABSOLUTE VALUE
                                 05  072E 31350 10$:	RSB				;
                                     072F 31400 CTRLSTR:				;
30 31 28 34 21 43 41 35 31 21 20 20  072F 31450 	.ASCII	%  !15AC!4(10SL)  !12AC%<CR><LF>
0A 0D 43 41 32 31 21 20 20 29 4C 53  073B
                           00000018  0747 31500 	CTRLSTRLEN=.-CTRLSTR
                                     0747 31550 OUTBUFSIZ:				; Formatted string length return loc
                           0000074B  0747 31600 	.BLKL	1			;
                           000007D3  074B 31650 OUTBUF:	.BLKB	136			; Output buffer
                           00000088  07D3 31700 OUTBUFLEN=.-OUTBUF			;
                                     07D3 31750
SYSBOOCMD       - Command parsing for SYSBOOT and SYSGEN         21-AUG-1978 22:30:28   VAX-11 MACRO X0.3-11               Page  16
09              BOO$SHOWV - Routine to show one parameter value                                                                  (1)

                                     07D3 31800 ;
                                     07D3 31850 ;	Show names of parameters
                                     07D3 31900 ;
                                     07D3 31950 BOO$SHONAMES:			;
                               00FC  07D3 32000 	.WORD	^M<R2,R3,R4,R5,R6,R7>	;
            56       0000'CF     9E  07D5 32050 	MOVAB	W^BOO$A_PRMBLK,R6	; Set base of parameter blocks
                     085C'CF     9F  07DA 32100 	PUSHAB	W^NCTRLSTR		; Build descriptor for control string
            7E         0D'8F     9A  07DE 32150 	MOVZBL	#NCTRLSTRLEN,-(SP)	; Set length into descriptor
                     FF65 CF     9F  07E2 32200 	PUSHAB	W^OUTBUF		; Build descriptor for output buffer
            7E         88 8F     9A  07E6 32250 	MOVZBL	#OUTBUFLEN,-(SP)	; Set length into descriptor
            50            5E     D0  07EA 32300 10$:	MOVL	SP,R0			; Save pointer to descriptors
            55            5E     D0  07ED 32350 	MOVL	SP,R5			; Save stack marker
            57            05     D0  07F0 32400 	MOVL	#5,R7			; Init argument count
                          66     D5  07F3 32450 	TSTL	(R6)			; At end of list?
                          61     13  07F5 32500 	BEQL	90$			; Yes, finished
            51         14 A6     DE  07F7 32550 	MOVAL	PRM$T_NAME(R6),R1	; Set parameter name address
            56         30 A6     9E  07FB 32600 	MOVAB	PRM$C_LENGTH(R6),R6	; Next parameter block
                          66     D5  07FF 32650 	TSTL	(R6)			; At end of list?
                          26     13  0801 32700 	BEQL	70$			; yes
            52         14 A6     DE  0803 32750 	MOVAL	PRM$T_NAME(R6),R2	; Set second address
                          57     D6  0807 32800 	INCL	R7			; Advance argument count
            56         30 A6     9E  0809 32850 	MOVAB	PRM$C_LENGTH(R6),R6	; Next argument
                          66     D5  080D 32900 	TSTL	(R6)			; At end of list ?
                          18     13  080F 32950 	BEQL	70$			; yes
            53         14 A6     DE  0811 33000 	MOVAL	PRM$T_NAME(R6),R3	; Set third address
                          57     D6  0815 33050 	INCL	R7			; Another argument
            56         30 A6     9E  0817 33100 	MOVAB	PRM$C_LENGTH(R6),R6	; Next parameter block
                          66     D5  081B 33150 	TSTL	(R6)			; At end of list?
                          0A     13  081D 33200 	BEQL	70$			; Yes
                          57     D6  081F 33250 	INCL	R7			; another argument
            54         14 A6     9E  0821 33300 	MOVAB	PRM$T_NAME(R6),R4	; Set fourth address
            56         30 A6     DE  0825 33350 	MOVAL	PRM$C_LENGTH(R6),R6	; Next parameter block
                          1E     BB  0829 33400 70$:	PUSHR	#^M<R1,R2,R3,R4>	; Stack args
            57            04     C3  082B 33450 	SUBL3	#4,R7,-(SP)		; Set number of strings on line
                          7E         082E
                          80     7F  082F 33500 	PUSHAQ	(R0)+			; Stack address of buffer descriptor
                     FF12 CF     DF  0831 33550 	PUSHAL	W^OUTBUFSIZ		; Set address of loc to receive size
                          60     7F  0835 33600 	PUSHAQ	(R0)			; Stack address of control string descr
   00000000'EF            57     FB  0837 33650 	CALLS	R7,SYS$FAO		; Format value for output
            5E            55     D0  083E 33700 	MOVL	R5,SP			; Restore stack
            50       FF02 CF     D0  0841 33750 	MOVL	W^OUTBUFSIZ,R0		; Get size of output string
                     FF00 CF40   94  0846 33800 	CLRB	W^OUTBUF[R0]		;  and make ASCIZ string
                          7E     7C  084B 33850 	CLRQ	-(SP)			; Null read buffer
                     FEFA CF     9F  084D 33900 	PUSHAB	W^OUTBUF		; Set buffer address
       0000'CF            03     FB  0851 33950 	CALLS	#3,W^BOO$READPROMPT	; Write string
                          92     11  0856 34000 	BRB	10$			;
            50            01     D0  0858 34050 90$:	MOVL	#1,R0			; Success status
                                 04  085B 34100 	RET				;
                                     085C 34150 NCTRLSTR:				;
29 43 41 37 31 28 23 21 20 20 2F 21  085C 34200 	.ASCII	%!/  !#(17AC) %
                                 20  0868
                           0000000D  0869 34250 NCTRLSTRLEN=.-NCTRLSTR
                                     0869 34300 ;
                                     0869 34350 ; Show name of Startup command file
                                     0869 34400 ;
                                     0869 34450 BOO$SHOSTART:				;
                               00FC  0869 34500 	.WORD	^M<R2,R3,R4,R5,R6,R7>	;
SYSBOOCMD       - Command parsing for SYSBOOT and SYSGEN         21-AUG-1978 22:30:28   VAX-11 MACRO X0.3-11               Page  17
09              BOO$SHOWV - Routine to show one parameter value                                                                  (1)

                     08AE'CF     9F  086B 34550 	PUSHAB	W^SCTRLSTR		; Set address of control string
                 0000001E'8F     DD  086F 34600 	PUSHL	#SCTRLLEN		; and string length
                     FED2 CF     9F  0875 34650 	PUSHAB	W^OUTBUF		; Set address of output buffer
                 00000088 8F     DD  0879 34700 	PUSHL	#OUTBUFLEN		; and buffer length
            50            5E     D0  087F 34750 	MOVL	SP,R0			; Save pointer
                     0000'CF     9F  0882 34800 	PUSHAB	W^EXE$GT_STARTUP	; Set address of startup string
                          80     7F  0886 34850 	PUSHAQ	(R0)+			; Stack address of buffer descriptor
                     FEBB CF     DF  0888 34900 	PUSHAL	W^OUTBUFSIZ		; Set address of loc to receive size
                          60     7F  088C 34950 	PUSHAQ	(R0)			; Stack address of control string descr
   00000000'EF            08     FB  088E 35000 	CALLS	#8,SYS$FAO		; Format value for output
            50       FEAE CF     D0  0895 35050 	MOVL	W^OUTBUFSIZ,R0		; Get size of output string
                     FEAC CF40   94  089A 35100 	CLRB	W^OUTBUF[R0]		;  and make ASCIZ string
                          7E     7C  089F 35150 	CLRQ	-(SP)			; Null read buffer
                     FEA6 CF     9F  08A1 35200 	PUSHAB	W^OUTBUF		; Set buffer address
       0000'CF            03     FB  08A5 35250 	CALLS	#3,W^BOO$READPROMPT	; Write string
            50            01     D0  08AA 35300 	MOVL	#1,R0			; Success status
                                 04  08AD 35350 	RET				;
                                     08AE 35400 SCTRLSTR:				;
20 70 75 74 72 61 74 53 20 2F 21 20  08AE 35450 	.ASCII	\ !/ Startup command file = !AC\
65 6C 69 66 20 64 6E 61 6D 6D 6F 63  08BA
                  43 41 21 20 3D 20  08C6
                           0000001E  08CC 35500 SCTRLLEN=.-SCTRLSTR			;
SYSBOOCMD       - Command parsing for SYSBOOT and SYSGEN         21-AUG-1978 22:30:28   VAX-11 MACRO X0.3-11               Page  18
09              BOO$NOCHECK - Disable value checking                                                                             (1)

                                     08CC 35600 	.SBTTL	BOO$NOCHECK - Disable value checking
                                     08CC 35650 ;
                                     08CC 35700 ; Disable Value Checking and Limiting
                                     08CC 35750 ;
                               0000  08CC 35800 BOO$NOCHECK:	.WORD	0		;
       F755 CF            01     D0  08CE 35850 	MOVL	#BOO$M_NOCHECK,W^BOO$GL_CMDOPT	; Set value check inhibit
            50            01     D0  08D3 35900 	MOVL	#1,R0			; Return success
                                 04  08D6 35950 	RET				;
                                     08D7 36000
                                     08D7 36050 ;
                                     08D7 36100 ; ENABLE VALUE CHECKING AND LIMITING
                                     08D7 36150 ;
                                     08D7 36200 BOO$CHECK:				;
                               0000  08D7 36250 	.WORD	0			; Null entry mask
       F74A CF            01     CA  08D9 36300 	BICL	#BOO$M_NOCHECK,W^BOO$GL_CMDOPT	; Clear check flag
            50            01     D0  08DE 36350 	MOVL	#1,R0			; Return with success
                                 04  08E1 36400 	RET				;
SYSBOOCMD       - Command parsing for SYSBOOT and SYSGEN         21-AUG-1978 22:30:28   VAX-11 MACRO X0.3-11               Page  19
09              BOO$SEARCH - Lookup parameter name                                                                               (1)

                                     08E2 36500 	.SBTTL	BOO$SEARCH - Lookup parameter name
                                     08E2 36550 ;
                                     08E2 36600 ; Input Parameters:
                                     08E2 36650 ;	TPA$L_TOKENCNT(AP) - Count of characters in token
                                     08E2 36700 ;	TPA$L_TOKENPTR(AP) - Address of token
                                     08E2 36750 ;
                                     08E2 36800 ; Output Parameters:
                                     08E2 36850 ;	TPA$L_PARAM(AP) - Address of PRM block for specified parameter
                                     08E2 36900 ;			  name if found.
                                     08E2 36950 ;	R0	- 0 => Name not found
                                     08E2 37000 ;		  1 => Name found
                                     08E2 37050 ;
                               003C  08E2 37100 BOO$SEARCH::	.WORD	^M<R2,R3,R4,R5>	;
            54       0000'CF     9E  08E4 37150 	MOVAB	W^BOO$A_PRMBLK,R4	; Set base of parameter blocks
                          64     D5  08E9 37200 10$:	TSTL	(R4)			; Check for end of list
                          02     12  08EB 37250 	BNEQ	30$			; Not yet
                          25     11  08ED 37300 	BRB	50$			; Symbol not found error
            55         14 A4     9E  08EF 37350 30$:	MOVAB	PRM$T_NAME(R4),R5	; Get pointer to name string
            85         10 AC     91  08F3 37400 	CMPB	TPA$L_TOKENCNT(AP),(R5)+; Check for too many characters
                          08     14  08F7 37450 	BGTR	35$			; Yes, cant be a match
                                 29  08F9 37500 	CMPC3	TPA$L_TOKENCNT(AP),-	;
         14 BC         10 AC         08FA 37550 		@TPA$L_TOKENPTR(AP),(R5); Is this a match?
                          65         08FE
                          06     13  08FF 37600 	BEQL	40$			; Yes, return PRM pointer
            54         30 A4     9E  0901 37650 35$:	MOVAB	PRM$C_LENGTH(R4),R4	; Advance to nex parameter descriptor
                          E2     11  0905 37700 	BRB	10$			; and try another
         20 AC            54     D0  0907 37750 40$:	MOVL	R4,TPA$L_PARAM(AP)	; Return address of parameter block
       F71C CF            54     D0  090B 37775 	MOVL	R4,BOO$GL_DOT		; And save as dot
            50            01     D0  0910 37800 	MOVL	#1,R0			; Indicate success
                                 04  0913 37850 	RET				;  and return
                                     0914 37900 50$:	MSG	<-E-No such parameter>
                          F6E9'  30  0914       	BSBW	BOO$FACMSG		;
70 20 68 63 75 73 20 6F 4E 2D 45 2D  0917       	.ASCIZ	\-E-No such parameter\			;
         00 72 65 74 65 6D 61 72 61  0923
            50            02     CE  092C 37950 	MNEGL	#2,R0			; Give unique error code
                                 04  092F 38000 	RET				;
                                     0930 38005 ;
                                     0930 38010 ; BOO$DOT - Use last parameter name if any
                                     0930 38015 ;
                               0000  0930 38020 BOO$DOT:.WORD	0			; Null entry mask
         20 AC       F6F6 CF     D0  0932 38025 	MOVL	BOO$GL_DOT,TPA$L_PARAM(AP)	; Get dot address
                          02     12  0938 38030 	BNEQ	10$			; Have pointer
                          50     D4  093A 38035 	CLRL	R0			; Give error status
                                 04  093C 38042 10$:	RET				;
SYSBOOCMD       - Command parsing for SYSBOOT and SYSGEN         21-AUG-1978 22:30:28   VAX-11 MACRO X0.3-11               Page  20
09              BOO$SETVALUE - Store parameter value                                                                             (1)

                                     093D 38100 	.SBTTL	BOO$SETVALUE - Store parameter value
                                     093D 38150 ;
                                     093D 38200 ; Input Parameters:
                                     093D 38250 ;	TPA$L_PARAM - Address of parameter descriptor
                                     093D 38300 ;	TPA$L_NUMBER- Value to be checked and stored
                                     093D 38350 ;
                                     093D 38400 ; Output Parameters:
                                     093D 38450 ;	If value is within bounds set by parameter descriptor, the
                                     093D 38500 ;	value is moved to the address specified by the parameter descriptor
                                     093D 38550 ;	R0 - Completion status 0 => value out of allowable range
                                     093D 38600 ;			       1 => legal value successfully stored
                                     093D 38650 ;
                                     093D 38700 BOO$SETVALUE::				;
                               0010  093D 38750 	.WORD	^M<R4>			; Entry mask
            54         20 AC     D0  093F 38800 	MOVL	TPA$L_PARAM(AP),R4	; Get pointer to parameter descriptor
                          01     DD  0943 38850 	PUSHL	#1			; Assume good value
       F6DE CF            01     D3  0945 38900 	BITL	#BOO$M_NOCHECK,W^BOO$GL_CMDOPT	; Should values be checked
                          25     12  094A 38950 	BNEQ	30$			; No, skip checks
            50         08 A4     D0  094C 39000 	MOVL	PRM$L_MIN(R4),R0	; Get minimum allowable value
                          0D     19  0950 39050 	BLSS	20$			; No minimum
            50         1C AC     D1  0952 39100 	CMPL	TPA$L_NUMBER(AP),R0	; Check input value
                          07     1E  0956 39150 	BGEQU	20$			; Branch if above minimum
         1C AC            50     D0  0958 39200 	MOVL	R0,TPA$L_NUMBER(AP)	; Use minimum value
            6E            02     CE  095C 39250 	MNEGL	#2,(SP)			; Note bad value
            50         0C A4     D0  095F 39300 20$:	MOVL	PRM$L_MAX(R4),R0	; Get maximum allowable value
                          0C     19  0963 39350 	BLSS	30$			; Branch if no maximum
         1C AC            50     D1  0965 39400 	CMPL	R0,TPA$L_NUMBER(AP)	; Check for maximum
                          06     1E  0969 39450 	BGEQU	30$			; Continue if value legal
         1C AC            50     D0  096B 39500 	MOVL	R0,TPA$L_NUMBER(AP)	; Limit to max value
                          6E     D4  096F 39550 	CLRL	(SP)			; Indicate error
            50         20 AC     D0  0971 39600 30$:	MOVL	TPA$L_PARAM(AP),R0	; Get address at which to store
            50            60     D0  0975 39650 	MOVL	PRM$L_ADDR(R0),R0	;
            50       0000'CF40   9E  0978 39700 	MOVAB	W^BOO$A_SYSPARAM[R0],R0	; Add present base of parameters
            50   00000000'8F     C2  097E 39750 	SUBL	#BOO$A_SYSPARAM,R0	; And subtract link-time base
         10 A4       1000 8F     B3  0985 39800 	BITW	#PRM$M_NEG,PRM$W_FLAGS(R4)	; Check for negative
                          05     13  098B 39850 	BEQL	35$			; No
         1C AC         1C AC     CE  098D 39900 	MNEGL	TPA$L_NUMBER(AP),TPA$L_NUMBER(AP)	; Complement
            51         13 A4     9A  0992 39950 35$:	MOVZBL	PRM$B_POS(R4),R1	; Get position
            51         1C AC     F0  0996 40000 	INSV	TPA$L_NUMBER(AP),R1,PRM$B_SIZE(R4),(R0); Set value in field
            60         12 A4         099A
            50            8E     D0  099D 40050 40$:	MOVL	(SP)+,R0		; Get completion status
                          1F     19  09A0 40100 	BLSS	60$			; Low value limit
            1B            50     E8  09A2 40150 	BLBS	R0,50$			; Success, return
                                     09A5 40200 	MSG	<-W-Value set to maximum>
                          F658'  30  09A5       	BSBW	BOO$FACMSG		;
74 65 73 20 65 75 6C 61 56 2D 57 2D  09A8       	.ASCIZ	\-W-Value set to maximum\			;
00 6D 75 6D 69 78 61 6D 20 6F 74 20  09B4
                                 04  09C0 40250 50$:	RET				; and return
                                     09C1 40300 60$:	MSG	<-W-Value set to minimum>
                          F63C'  30  09C1       	BSBW	BOO$FACMSG		;
74 65 73 20 65 75 6C 61 56 2D 57 2D  09C4       	.ASCIZ	\-W-Value set to minimum\			;
00 6D 75 6D 69 6E 69 6D 20 6F 74 20  09D0
                                 04  09DC 40350 	RET				;
                                     09DD 40400 ;
                                     09DD 40450 ; Set to default value
                                     09DD 40500 ;
                                     09DD 40550 BOO$SETDEF:				;
SYSBOOCMD       - Command parsing for SYSBOOT and SYSGEN         21-AUG-1978 22:30:28   VAX-11 MACRO X0.3-11               Page  21
09              BOO$SETVALUE - Store parameter value                                                                             (1)

                               0010  09DD 40600 	.WORD	^M<R4>			;
            54         20 AC     D0  09DF 40650 	MOVL	TPA$L_PARAM(AP),R4	; Get address of parameter block
         1C AC         04 A4     D0  09E3 40700 	MOVL	PRM$L_DEFAULT(R4),TPA$L_NUMBER(AP)	; Set default as value
                          FF54   31  09E8 40750 	BRW	BOO$SETVALUE+2		;
SYSBOOCMD       - Command parsing for SYSBOOT and SYSGEN         21-AUG-1978 22:30:28   VAX-11 MACRO X0.3-11               Page  22
09              BOO$SHOVALUE - Action routine to show single va                                                                  (1)

                                     09EB 40850 	.SBTTL	BOO$SHOVALUE - Action routine to show single value
                                     09EB 40900 ;
                                     09EB 40950 ; Input Parameters:
                                     09EB 41000 ;	TPA$L_PARAMETER(AP) - Address of parameter block
                                     09EB 41050 ;
                                     09EB 41100 BOO$SHOVALUE:				;
                               001C  09EB 41150 	.WORD	^M<R2,R3,R4>		;
            54         20 AC     D0  09ED 41200 	MOVL	TPA$L_PARAM(AP),R4	; Get address of parameter block
                          FCB5   30  09F1 41250 	BSBW	BOO$SHOWV		; Show value
            50            01     D0  09F4 41300 	MOVL	#1,R0			; Return success
                                 04  09F7 41350 	RET				;
SYSBOOCMD       - Command parsing for SYSBOOT and SYSGEN         21-AUG-1978 22:30:28   VAX-11 MACRO X0.3-11               Page  23
09              BOO$SHOALL - Action routine to show all paramet                                                                  (1)

                                     09F8 41450 	.SBTTL	BOO$SHOALL - Action routine to show all parameter values
                                     09F8 41500 ;
                                     09F8 41550 ; Input Parameters:
                                     09F8 41600 ; 	None
                                     09F8 41650 ;
                                     09F8 41700 ; Output Parameters:
                                     09F8 41750 ;	All parameters except special parameters are displayed.
                                     09F8 41800 ;
                                     09F8 41850 BOO$SHOALL:				;
                               00FC  09F8 41900 	.WORD	^M<R2,R3,R4,R5,R6,R7>	;
            55       0878 8F     3C  09FA 41950 	MOVZWL	#PRM$M_SYS!-		; System parameters
                                     09FF 42000 		 PRM$M_ACP!-		; ACP control parameters
                                     09FF 42012 		 PRM$M_JBC!-		; Job control parameters
                                     09FF 42025 		 PRM$M_PQL!-		; PQL default/min values
                                     09FF 42050 		 PRM$M_RMS!-		; RMS control parameters
                                     09FF 42100 		 PRM$M_JBC,R5		; Set mask of acceptable types
                                     09FF 42150 SHOWLOOP:				;
                          FC91   30  09FF 42200 	BSBW	BOO$MSGOUT		; Go to new page
                              00 0C  0A02 42250 	.ASCIZ	<FF>			;
                          FC8C   30  0A04 42300 	BSBW	BOO$MSGOUT		; Output heading
                              0A 0D  0A07 42350 	.ASCII	<CR><LF>		; New line
20 72 65 74 65 6D 61 72 61 50 20 20  0A09 42400 	.ASCII	\  Parameter Name    Current   Default   Minimum   Maximum\
72 72 75 43 20 20 20 20 65 6D 61 4E  0A15
6C 75 61 66 65 44 20 20 20 74 6E 65  0A21
20 6D 75 6D 69 6E 69 4D 20 20 20 74  0A2D
         6D 75 6D 69 78 61 4D 20 20  0A39
            0A 0D 74 69 6E 55 20 20  0A42 42450 	.ASCII	\  Unit\<CR><LF>	;
2D 2D 2D 2D 2D 2D 2D 2D 2D 2D 20 20  0A4A 42500 	.ASCII	\  --------------    -------   -------   -------   -------\
2D 2D 2D 2D 20 20 20 20 2D 2D 2D 2D  0A56
2D 2D 2D 2D 2D 2D 20 20 20 2D 2D 2D  0A62
20 2D 2D 2D 2D 2D 2D 2D 20 20 20 2D  0A6E
         2D 2D 2D 2D 2D 2D 2D 20 20  0A7A
         00 0A 0D 2D 2D 2D 2D 20 20  0A83 42550 	.ASCIZ	\  ----\<CR><LF>	;
            54       0000'CF     9E  0A8C 42600 	MOVAB	W^BOO$A_PRMBLK,R4	; Set starting parameter block address
                          64     D5  0A91 42650 10$:	TSTL	(R4)			; Check for end of list
                          0F     13  0A93 42700 	BEQL	50$			;  yes, done
         10 A4            55     B3  0A95 42750 	BITW	R5,PRM$W_FLAGS(R4)	; Is this one to output?
                          03     13  0A99 42800 	BEQL	40$			; No, try another
                          FC0B   30  0A9B 42850 	BSBW	BOO$SHOWV		; Display values
            54         30 A4     9E  0A9E 42900 40$:	MOVAB	PRM$C_LENGTH(R4),R4	; Next parameter block
                          ED     11  0AA2 42950 	BRB	10$			;
            50            01     D0  0AA4 43000 50$:	MOVL	#1,R0			; Return success
                                 04  0AA7 43050 	RET				;
                                     0AA8 43100 ;
                                     0AA8 43150 ; Show ACP control parameters
                                     0AA8 43200 ;
                                     0AA8 43250 BOO$SHOACP:				;
                               00FC  0AA8 43300 	.WORD	^M<R2,R3,R4,R5,R6,R7>	;
            55            08     D0  0AAA 43350 	MOVL	#PRM$M_ACP,R5		; Set type mask for search
                          FF4F   31  0AAD 43400 	BRW	SHOWLOOP		;
                                     0AB0 43450 ;
                                     0AB0 43500 ; Show RMS control parameters
                                     0AB0 43550 ;
                                     0AB0 43600 BOO$SHORMS:				;
                               00FC  0AB0 43650 	.WORD	^M<R2,R3,R4,R5,R6,R7>	;
            55            20     3C  0AB2 43700 	MOVZWL	#PRM$M_RMS,R5		; Set type mask for search
                          FF47   31  0AB5 43750 	BRW	SHOWLOOP		;
SYSBOOCMD       - Command parsing for SYSBOOT and SYSGEN         21-AUG-1978 22:30:28   VAX-11 MACRO X0.3-11               Page  24
09              BOO$SHOALL - Action routine to show all paramet                                                                  (1)

                                     0AB8 43800
                                     0AB8 43850 ;
                                     0AB8 43900 ; Show System control parameters
                                     0AB8 43950 ;
                                     0AB8 44000 BOO$SHOSYS:				;
                               00FC  0AB8 44050 	.WORD	^M<R2,R3,R4,R5,R6,R7>	;
            55       0040 8F     3C  0ABA 44100 	MOVZWL	#PRM$M_SYS,R5		;
                          FF3D   31  0ABF 44150 	BRW	SHOWLOOP		;
                                     0AC2 44200 ;
                                     0AC2 44250 ; Show Major parameters
                                     0AC2 44300 ;
                                     0AC2 44350 BOO$SHOMAJOR:				;
                               00FC  0AC2 44400 	.WORD	^M<R2,R3,R4,R5,R6,R7>	;
            55       0400 8F     3C  0AC4 44450 	MOVZWL	#PRM$M_MAJOR,R5		; Set type mask for search
                          FF33   31  0AC9 44500 	BRW	SHOWLOOP		;
                                     0ACC 44550 ;
                                     0ACC 44600 ; Show SYSGEN parmaeters
                                     0ACC 44650 ;
                                     0ACC 44700 BOO$SHOGEN:				;
                               00FC  0ACC 44750 	.WORD	^M<R2,R3,R4,R5,R6,R7>	;
            55            04     D0  0ACE 44800 	MOVL	#PRM$M_SYSGEN,R5	; Set type mask for search
                          FF2B   31  0AD1 44850 	BRW	SHOWLOOP		;
                                     0AD4 44900 ;
                                     0AD4 44950 ; Show Special parameters
                                     0AD4 45000 ;
                                     0AD4 45050 BOO$SHOSPECIAL:				;
                               00FC  0AD4 45100 	.WORD	^M<R2,R3,R4,R5,R6,R7>	;
            55       0080 8F     3C  0AD6 45150 	MOVZWL	#PRM$M_SPECIAL,R5	; Set type mask for search
                          FF21   31  0ADB 45200 	BRW	SHOWLOOP		;
                                     0ADE 45250
                                     0ADE 45300 ;
                                     0ADE 45350 ; Show Job controller parameters
                                     0ADE 45400 ;
                                     0ADE 45450 BOO$SHOJBC:				;
                               00FC  0ADE 45500 	.WORD	^M<R2,R3,R4,R5,R6,R7>	;
            55            10     3C  0AE0 45550 	MOVZWL	#PRM$M_JBC,R5		; Set type mask for search
                          FF19   31  0AE3 45600 	BRW	SHOWLOOP		;
                                     0AE6 45650 ;
                                     0AE6 45700 ; Show Process Quota List parameters
                                     0AE6 45750 ;
                                     0AE6 45800 BOO$SHOPQL:				;
                               00FC  0AE6 45850 	.WORD	^M<R2,R3,R4,R5,R6,R7>	;
            55       0800 8F     3C  0AE8 45900 	MOVZWL	#PRM$M_PQL,R5		; Set type mask for search
                          FF0F   31  0AED 45950 	BRW	SHOWLOOP		;
SYSBOOCMD       - Command parsing for SYSBOOT and SYSGEN         21-AUG-1978 22:30:28   VAX-11 MACRO X0.3-11               Page  25
09              BOO$SHOALL - Action routine to show all paramet                                                                  (1)

                                     0AF0 46050 ;
                                     0AF0 46100 ; Set name of startup command file
                                     0AF0 46150 ;
                                     0AF0 46200 BOO$SETSTART:				;
                               00FC  0AF0 46250 	.WORD	^M<R2,R3,R4,R5,R6,R7>	;
            56       0000'CF     9E  0AF2 46300 	MOVAB	W^EXE$GT_STARTUP,R6	; Point to slot for startup file name
                          50     D4  0AF7 46350 	CLRL	R0			; Assume error
         10 AC            1F     91  0AF9 46400 	CMPB	#31,TPA$L_TOKENCNT(AP)	; Check for fit
                          01     18  0AFD 46450 	BGEQ	10$			; Continue if legal size
                                 04  0AFF 46500 	RET				;
            86         10 AC     90  0B00 46550 10$:	MOVB	TPA$L_TOKENCNT(AP),(R6)+; Set count for string
         14 BC         10 AC     28  0B04 46600 	MOVC3	TPA$L_TOKENCNT(AP),@TPA$L_TOKENPTR(AP),(R6)	; Set file name
                          66         0B09
            50            01     3C  0B0A 46650 	MOVZWL	#1,R0			; Return success indication
                                 04  0B0D 46700 	RET				;
                                     0B0E 46750
                                     0B0E 46800 	.END				;
SYSBOOCMD       - Command parsing for SYSBOOT and SYSGEN         21-AUG-1978 22:30:28   VAX-11 MACRO X0.3-11               Page  26
SYMBOL TABLE                                                                                                                     (1)

$$$CNT         = 00000009            BOO$SETSFTX      ********   X   03   FIL3             0000025A R     03
$$$FLG         = FFFFFFFF            BOO$SETSTART     00000AF0 R     06   FILESPEC         00000246 R     03
$$$KEY         = 0000002F            BOO$SETVALUE     0000093D RG    06   GBL...         = 00000000
$$$KFG         = FFFFFFFF            BOO$SHOACP       00000AA8 R     06   GETDATA          0000070F R     06
$$$TMP         = 0000015A R     05   BOO$SHOALL       000009F8 R     06   HEXNUM           000002B8 R     03
$$KEYTAB       = 00000000 R     04   BOO$SHODEV       ********   X   03   INS1             00000130 R     03
ADPCMD           00000094 R     03   BOO$SHODEV_ALL   ********   X   03   INS2             00000140 R     03
AUTOCONFIG       0000009C R     03   BOO$SHOGEN       00000ACC R     06   INSTALCMD        00000122 R     03
BIT...         = 00000005            BOO$SHOJBC       00000ADE R     06   KEYTBL           00000000 RG    04
BOO$A_PRMBLK     ********   X   06   BOO$SHOMAJOR     00000AC2 R     06   LF             = 0000000A
BOO$A_SYSPARAM   ********   X   06   BOO$SHONAMES     000007D3 R     06   LIB$TPARSE       ********   X   06
BOO$CHECK        000008D7 R     06   BOO$SHOPQL       00000AE6 R     06   LOAD1            000002FE R     03
BOO$CONADP       ********   X   03   BOO$SHORMS       00000AB0 R     06   LOADCMD          0000014A R     03
BOO$CONAUNIT     ********   X   03   BOO$SHOSPECIAL   00000AD4 R     06   MMG$A_SYSPARAM   ********   X   06
BOO$CONCNUM      ********   X   03   BOO$SHOSTART     00000869 R     06   NCTRLSTR         0000085C R     06
BOO$CONCREG      ********   X   03   BOO$SHOSYS       00000AB8 R     06   NCTRLSTRLEN    = 0000000D
BOO$CONCVEC      ********   X   03   BOO$SHOVALUE     000009EB R     06   NUMBER           000002A8 R     03
BOO$CONDRVNAM    ********   X   03   BOO$SHOWV        000006A9 R     06   OUTBUF           0000074B R     06
BOO$CONFIGALL    ********   X   03   BOO$USECUR       00000663 R     06   OUTBUFLEN      = 00000088
BOO$CONFIGONE    ********   X   03   BOO$USEFILE      ********   X   03   OUTBUFSIZ        00000747 R     06
BOO$CONNECT      ********   X   03   BOO$WRTFILE      ********   X   03   PARMBLK          00000000 R     06
BOO$CONRESET     ********   X   03   CMD_L_OPTIONS    00000024 R     06   PARSE            0000060F R     06
BOO$CREATE       ********   X   03   CMD_M_CONT     = 00000001            PRM$B_POS        00000013
BOO$C_COMBUFSZ = 000000C8  G         CMD_M_CURRENT  = 00000002            PRM$B_SIZE       00000012
BOO$C_COMSTRLEN= 00000400  G         CMD_M_DEFAULT  = 00000010            PRM$C_BYTE     = 00000008
BOO$DEVNAME      ********   X   03   CMD_M_FILE     = 00000004            PRM$C_LENGTH     00000030
BOO$DOT          00000930 R     06   CMD_M_INTERACT = 00000008            PRM$C_LONG     = 00000020
BOO$FACMSG       ********   X   06   CMD_V_CONT     = 00000000            PRM$C_WORD     = 00000010
BOO$FILESIZE     ********   X   03   CMD_V_CURRENT  = 00000001            PRM$K_LENGTH     00000030
BOO$FILOPEN      ********   X   06   CMD_V_DEFAULT  = 00000004            PRM$L_ADDR       00000000
BOO$GETPARAM     00000553 RG    06   CMD_V_FILE     = 00000002            PRM$L_DEFAULT    00000004
BOO$GIVEHELP     ********   X   03   CMD_V_INTERACT = 00000003            PRM$L_MAX        0000000C
BOO$GL_CMDOPT    00000028 RG    06   CONADP           00000308 R     03   PRM$L_MIN        00000008
BOO$GL_DOT       0000002C RG    06   CONAUNIT         0000031C R     03   PRM$M_ACP      = 00000008
BOO$GQ_FILDESC   00000030 R     06   CONCNUMVEC       00000318 R     03   PRM$M_CONTROL  = 00000200
BOO$GT_COMBUF    00000078 RG    06   CONCREG          0000030C R     03   PRM$M_DISPLAY  = 00000100
BOO$GT_COMSTR    00000140 RG    06   CONCVECTOR       00000314 R     03   PRM$M_DYNAMIC  = 00000001
BOO$GT_FILNAME   00000038 RG    06   CONECTCMD        000000F8 R     03   PRM$M_JBC      = 00000010
BOO$GT_PROMPT    ********   X   06   CONECTOPT        000002C4 R     03   PRM$M_MAJOR    = 00000400
BOO$GT_SYSNAME   00000540 RG    06   CONFIGALL        000000B4 R     03   PRM$M_NEG      = 00001000
BOO$INSRESET     ********   X   03   CONOPT           00000104 R     03   PRM$M_PQL      = 00000800
BOO$INSTALL      ********   X   03   CR             = 0000000D            PRM$M_RMS      = 00000020
BOO$LOAD         ********   X   03   CREATECMD        000000E0 R     03   PRM$M_SPECIAL  = 00000080
BOO$MAKLIST      ********   X   03   CTRLSTR          0000072F R     06   PRM$M_STATIC   = 00000002
BOO$MSGOUT       00000693 RG    06   CTRLSTRLEN     = 00000018            PRM$M_SYS      = 00000040
BOO$M_NOCHECK  = 00000001            DEVNAME          00000264 R     03   PRM$M_SYSGEN   = 00000004
BOO$NOCHECK      000008CC R     06   DIRECT           0000026A R     03   PRM$T_NAME       00000014
BOO$READFILE     ********   X   06   DIRSUB           00000278 R     03   PRM$T_UNIT       00000024
BOO$READPROMPT   ********   X   06   DISABLCMD        0000010E R     03   PRM$V_ACP      = 00000003
BOO$RELOAD       ********   X   03   ENABLCMD         00000118 R     03   PRM$V_CONTROL  = 00000009
BOO$REMOVE       ********   X   03   EXE$A_SYSPARAM   ********   X   06   PRM$V_DISPLAY  = 00000008
BOO$RESETLIST    ********   X   03   EXE$C_SYSPARSZ   ********   X   06   PRM$V_DYNAMIC  = 00000000
BOO$SEARCH       000008E2 RG    06   EXE$GT_STARTUP   ********   X   06   PRM$V_JBC      = 00000004
BOO$SETADP       ********   X   03   EXIT             0000065F R     06   PRM$V_MAJOR    = 0000000A
BOO$SETDEF       000009DD R     06   FF             = 0000000C            PRM$V_NEG      = 0000000C
BOO$SETFILNAM    ********   X   03   FIL1             0000024C R     03   PRM$V_PQL      = 0000000B
BOO$SETPGFL      ********   X   03   FIL2             00000252 R     03   PRM$V_RMS      = 00000005
SYSBOOCMD       - Command parsing for SYSBOOT and SYSGEN         21-AUG-1978 22:30:28   VAX-11 MACRO X0.3-11               Page  27
SYMBOL TABLE                                                                                                                     (1)

PRM$V_SPECIAL  = 00000007            TPA$_SYMBOL    = 000001F1
PRM$V_STATIC   = 00000001            TYPE             0000028C R     03
PRM$V_SYS      = 00000006            UFD              00000284 R     03
PRM$V_SYSGEN   = 00000002            USECMD           0000021C R     03
PRM$W_FLAGS      00000010            VALUE            00000320 R     03
READCMD          00000555 R     06   VERSION          0000029A R     03
READLINE         00000563 R     06   WRTCMD           0000023A R     03
RELOADCMD        00000152 R     03
REMOVECMD        0000015A R     03
SCTRLLEN       = 0000001E
SCTRLSTR         000008AE R     06
SELECT           000000BE R     03
SELECTLIST       000000CE R     03
SEPARATOR        000002BC R     03
SETCMD           00000162 R     03
SETSPEC          00000186 R     03
SHOCMD           00000192 R     03
SHOWLOOP         000009FF R     06
SHOWONE          00000214 R     03
STATE1           00000000 RG    03
SYS$FAO          ********   X   06
TPA$B_MCOUNT     00000007
TPA$C_LENGTH0    00000024
TPA$K_COUNT0   = 00000008
TPA$K_LENGTH0    00000024
TPA$L_CHAR       00000018
TPA$L_COUNT      00000000
TPA$L_NUMBER     0000001C
TPA$L_OPTIONS    00000004
TPA$L_PARAM      00000020
TPA$L_STRINGCNT  00000008
TPA$L_STRINGPTR  0000000C
TPA$L_TOKENCNT   00000010
TPA$L_TOKENPTR   00000014
TPA$M_ABBREV   = 00000002
TPA$M_ABBRFM   = 00000004
TPA$M_AMBIG    = 00010000
TPA$M_BLANKS   = 00000001
TPA$V_ABBREV   = 00000001
TPA$V_ABBRFM   = 00000002
TPA$V_AMBIG    = 00000010
TPA$V_BLANKS   = 00000000
TPA$_ALPHA     = 000001EE
TPA$_ANY       = 000001ED
TPA$_BLANK     = 000001F2
TPA$_DECIMAL   = 000001F3
TPA$_DIGIT     = 000001EF
TPA$_EOS       = 000001F7
TPA$_EXIT      = FFFFFFFF
TPA$_FAIL      = FFFFFFFE
TPA$_HEX       = 000001F5
TPA$_KEYWORD   = 00000100
TPA$_LAMBDA    = 000001F6
TPA$_MAXKEY    = 000000DC
TPA$_OCTAL     = 000001F4
TPA$_STRING    = 000001F0
TPA$_SUBXPR    = 000001F8
SYSBOOCMD       - Command parsing for SYSBOOT and SYSGEN         21-AUG-1978 22:30:28   VAX-11 MACRO X0.3-11               Page  28
PROGRAM SECTION SYNOPSIS                                                                                                         (1)


PROGRAM SECTION SYNOPSIS

.  ABS  .        00000000      00     NOPIC   USR   CON   ABS   LCL NOSHR NOEXE NORD  NOWRT BYTE
. BLANK .        00000000      01     NOPIC   USR   CON   REL   LCL NOSHR   EXE   RD    WRT BYTE
$ABS$            00000030      02     NOPIC   USR   CON   ABS   LCL NOSHR   EXE   RD    WRT BYTE
LIB$STATE$       0000032A      03     NOPIC   USR   CON   REL   LCL   SHR NOEXE   RD  NOWRT BYTE
LIB$KEY0$        00000060      04     NOPIC   USR   CON   REL   LCL   SHR NOEXE   RD  NOWRT WORD
LIB$KEY1$        00000163      05     NOPIC   USR   CON   REL   LCL   SHR NOEXE   RD  NOWRT BYTE
SYSBOOCMD        00000B0E      06     NOPIC   USR   CON   REL   LCL NOSHR   EXE   RD    WRT LONG


THERE WERE NO ERRORS OR WARNINGS.
12480. BYTES LEFT IN FREE MEMORY POOL.
5778. BYTES OF RECLAIMED MEMORY.
OBJ$:SYSBOOCMD,LIS$:SYSBOOCMD/-SP=EXECML$/ML,SRC$:SYSBOOCMD
3 MLB DIR RDS - 351 GETS TO DEFINE 15 MACROS. 183 INTER. FILE WRITES.
