PREFIX          - INPUT SYMBIONT PREFIX FILE                     21-AUG-1978 21:38:59   VAX-11 MACRO X0.3-11               Page   0
TABLE OF CONTENTS

   (1)    3800  DECLARATIONS
   (1)   13500  MAIN ROUTINE
   (1)   32700  SET_ACCNT/UNAME - SET PROCESS ACCOUNT OR USERNA
MAIN            - INPUT SYMBIONT MAIN ROUTINE                    21-AUG-1978 21:38:59   VAX-11 MACRO X0.3-11               Page   1
X0001           DECLARATIONS                                                                                                     (1)

                                     0000   100 	.TITLE	MAIN - INPUT SYMBIONT MAIN ROUTINE
                                     0000   200 	.IDENT	"X0001"
                                     0000   300
                                     0000   400 ;
                                     0000   500 ; COPYRIGHT (C) 1978
                                     0000   600 ; DIGITAL EQUIPMENT CORPORATION, MAYNARD, MASSACHUSETTS 01754
                                     0000   700 ;
                                     0000   800 ; THIS SOFTWARE IS FURNISHED  UNDER A LICENSE FOR USE ONLY ON A SINGLE
                                     0000   900 ; COMPUTER  SYSTEM AND  MAY BE  COPIED ONLY WITH  THE INCLUSION OF THE
                                     0000  1000 ; ABOVE COPYRIGHT NOTICE.  THIS SOFTWARE, OR ANY OTHER COPIES THEREOF,
                                     0000  1100 ; MAY NOT BE PROVIDED OR  OTHERWISE MADE AVAILABLE TO ANY OTHER PERSON
                                     0000  1200 ; EXCEPT FOR USE ON SUCH SYSTEM AND TO ONE WHO AGREES TO THESE LICENSE
                                     0000  1300 ; TERMS.  TITLE TO AND  OWNERSHIP OF THE  SOFTWARE  SHALL AT ALL TIMES
                                     0000  1400 ; REMAIN IN DEC.
                                     0000  1500 ;
                                     0000  1600 ; THE INFORMATION IN THIS SOFTWARE IS SUBJECT TO CHANGE WITHOUT NOTICE
                                     0000  1700 ; AND SHOULD  NOT BE CONSTRUED  AS A COMMITMENT  BY DIGITAL  EQUIPMENT
                                     0000  1800 ; CORPORATION.
                                     0000  1900 ;
                                     0000  2000 ; DEC ASSUMES  NO  RESPONSIBILITY  FOR  THE USE OR  RELIABILITY OF ITS
                                     0000  2100 ; SOFTWARE ON EQUIPMENT WHICH IS NOT SUPPLIED BY DEC.
                                     0000  2200
                                     0000  2300 ;++
                                     0000  2400 ;
                                     0000  2500 ; FACILITY:  VAX/VMS INPUT SYMBIONT
                                     0000  2600 ;
                                     0000  2700 ; ABSTRACT:	THIS MODULE CONTAINS THE MAIN LINE ROUTINE FOR
                                     0000  2800 ;		THE CARD READER INPUT SYMBIONT.
                                     0000  2900 ;
                                     0000  3000 ;
                                     0000  3100 ; ENVIRONMENT:	USER MODE
                                     0000  3200 ;
                                     0000  3300 ;
                                     0000  3400 ; AUTHOR:	LEN KAWELL, CREATION DATE: 8-MAR-78
                                     0000  3500 ;
                                     0000  3600 ; MODIFIED BY:
                                     0000  3700 ;
                                     0000  3800 ;  , VERSION  ,
                                     0000  3900 ; 01	-
                                     0000  4000 ;--
                                     0000  4100
                                     0000  4200 ;
                                     0000  4300 ; INCLUDE FILES:
                                     0000  4400 ;
                                     0000  4500 ;	[INPSMB.SRC]PREFIX.MAR
                                     0000  4600
                                     0000  4700 ;
                                     0000  4800 ; MACROS:
                                     0000  4900 ;
                                     0000  5000
                                     0000  5100 ;
                                     0000  5200 ; EQUATED SYMBOLS:
                                     0000  5300 ;
                                     0000  5400 	$UAFDEF				;USER ACCESS FILE DEFINITIONS
                                     0000  5500 	$SMRDEF				;SYMBIONT MANAGER MESSAGES
                                     0000  5600 	$PCBDEF				;PROCESS CONTROL BLOCK OFFSETS
                                     0000  5700 	$JBCMSGDEF			;JOB CONTROLLER MESSAGES
MAIN            - INPUT SYMBIONT MAIN ROUTINE                    21-AUG-1978 21:38:59   VAX-11 MACRO X0.3-11               Page   2
X0001           DECLARATIONS                                                                                                     (1)

                                     0000  5800 	$SHRDEF				;SHARED MESSAGES
                                     0000  5900 ;
                                     0000  6000 ; OWN STORAGE:
                                     0000  6100 ;
                                     0000  6200 	PURE_SECTION
                                     0000  6300
                                     0000  6400 ;
                                     0000  6500 ; DESCRIPTOR TO UAF BUFFER
                                     0000  6600 ;
                                     0000  6700 UAFBUF_DESC:
                           00000100  0000  6800 	.LONG	INP$K_UAFBUFSZ		;UAF BUFFER SIZE
                           0000045A' 0004  6900 	.LONG	INP$T_UAFBUF		;ADDRESS OF BUFFER
                                     0008  7000
                                     0008  7005 ;
                                     0008  7010 ; READ TIMEOUT TIMES
                                     0008  7015 ;
                                     0008  7020 JOB_TIMEOUT:
                  FFFFFFFF F70F2E80  0008  7025 	.LONG	-15*10000000,-1		;WHILE LOOKING FOR $JOB CARD
                                     0010  7030 DEF_TIMEOUT:
                  FFFFFFFF B8797400  0010  7035 	.LONG	-120*10000000,-1	;WHILE READING ANYTHING ELSE
                                     0018  7100
                                     0018  7200 ;
                                     0018  7300 ; INPUT LOGICAL NAME DESCRIPTOR
                                     0018  7400 ;
                                     0018  7500 INPUT_NAME:
                                     0018  7600 	STRING_DESC	<SYS$INPUT>	;ASSIGNED BY SYMBIONT MANAGER
                                     0029  7700
                                     0029  7800 ;
                                     0029  7900 ; INPUT BUFFER ADDRESS VECTOR
                                     0029  8000 ;
                                     0029  8100 INP$G_INBUF_ADD::
                           000003BA' 0029  8200 	.LONG	INBUF0			;ADDRESS OF BUFFER 0
                           0000040A' 002D  8300 	.LONG	INBUF1			;ADDRESS OF BUFFER 1
                                     0031  8400
                                     0031  8500 ;
                                     0031  8600 ; SYMBIONT DEFAULT USERNAME/ACCOUNT NAME
                                     0031  8700 ;
                                     0031  8800 SYS_UNAME: STRING_DESC <SYSTEM>		;USERNAME/ACCOUNT NAME
                                     003F  8805
                                     003F  8900 ;
                                     003F  9000 ; PARAMETER LIST FOR RESETTING THE SYMBIONT ACCOUNT/UIC
                                     003F  9100 ;
                                     003F  9200 SYS_ACCNT::
                           00000031' 003F  9300 	.LONG	SYS_UNAME		;ADDR OF ACCOUNT NAME DESCIPTOR
                           00010004  0043  9400 	.LONG	1@16+4			;UIC [1,4]
                                     0047  9500
                                     0047  9600 	IMPURE_DATA
                                     0000  9700 ;
                                     0000  9800 ; GLOBAL IMPURE DATA VECTOR
                                     0000  9900 ;
                                     0000 10000 INP$G_DATA::
                           000001D1  0000 10100 	.BLKB	ID_K_SIZE		;SYMBIONT DATA BASE
                                     01D1 10200
                                     01D1 10300 ;
                                     01D1 10400 ; COMMAND FILE RMS DATA BASE
                                     01D1 10500 ;
                                     01D1 10600 	.ALIGN	LONG
MAIN            - INPUT SYMBIONT MAIN ROUTINE                    21-AUG-1978 21:38:59   VAX-11 MACRO X0.3-11               Page   3
X0001           DECLARATIONS                                                                                                     (1)

                                     01D4 10700 INP$G_FAB::
                                     01D4 10800 	$FAB	ORG=SEQ,-		;SEQUENTIAL ORGANIZATION
                                     01D4 10900 		RFM=VAR,-		;VARIABLE LENGTH RECORDS
                                     01D4 11000 		DNM=<BATCH.COM>,-	;DEFAULT FILE NAME
                                     01D4 11100 		NAM=INP$G_NAM,-		;ADDRESS OF NAME BLOCK
                                     01D4 11200 		RAT=CR			;CR/LF CARRIAGE CONTROL
                                     0224 11300
                                     0224 11400 INP$G_RAB::
                                     0224 11500 	$RAB	FAB=INP$G_FAB,-		;ADDRESS OF FAB
                                     0224 11600 		ROP=WBH			;WRITE BEHIND
                                     0268 11700
                                     0268 11800 INP$G_NAM::
                                     0268 11900 	$NAM	ESS=NAM$C_MAXRSS	;EXPANDED STRING BUFFER SIZE
                                     02A0 12100 EXPANDED_DESC:
                           000002A4  02A0 12200 	.BLKL	1			;EXPANDED STRING SIZE
                           000002A8' 02A4 12300 	.LONG	EXPANDED		;EXPANDED STRING ADDRESS
                                     02A8 12400 EXPANDED:
                           00000328  02A8 12500 	.BLKB	NAM$C_MAXRSS		;EXPANDED STRING BUFFER
                                     0328 12600
                                     0328 12700 ;
                                     0328 12800 ; SYMBIONT MANAGER MESSAGE BUFFER VECTOR
                                     0328 12900 ;
                           0000032C  0328 13000 SYMMSG_DESC:	.BLKL	1		;LENGTH OF MESSAGE
                           00000330' 032C 13100 		.LONG	INP$G_SYMMSG	;START OF MESSAGE
                           000003BA  0330 13200 INP$G_SYMMSG::	.BLKB	SM_K_SIZE
                                     03BA 13205
                                     03BA 13210 ;
                                     03BA 13215 ; INPUT BUFFERS
                                     03BA 13220 ;
                           0000040A  03BA 13225 INBUF0:	.BLKB	80
                           0000045A  040A 13230 INBUF1:	.BLKB	80
                                     045A 13235
                                     045A 13240 ;
                                     045A 13245 ; USER ACCESS FILE RECORD BUFFER
                                     045A 13250 ;
                                     045A 13252 INP$T_UAFBUF::
                           0000055A  045A 13255 	.BLKB	INP$K_UAFBUFSZ
                                     055A 13260
                                     055A 13300
MAIN            - INPUT SYMBIONT MAIN ROUTINE                    21-AUG-1978 21:38:59   VAX-11 MACRO X0.3-11               Page   4
X0001           MAIN ROUTINE                                                                                                     (1)

                                     055A 13500 	.SBTTL	MAIN ROUTINE
                                     055A 13600 ;++
                                     055A 13700 ;
                                     055A 13800 ; FUNCTIONAL DESCRIPTION:
                                     055A 13900 ;
                                     055A 14000 ;	ASSIGNS THE INPUT CHANNEL, GETS THE JOB/PASSWORD CARDS,
                                     055A 14100 ;	VALIDATES THE USER'S ACCESS, OPENS THE OUTPUT FILE, READS THE
                                     055A 14200 ;	REST OF THE COMMAND DECK TO THE OUTPUT FILE, CLOSES THE OUTPUT
                                     055A 14300 ;	FILE, AND SENDS THE SYMBIONT MANAGER A MESSAGE TO QUEUE THE
                                     055A 14400 ;	OUTPUT FILE FOR EXECUTION.
                                     055A 14500 ;
                                     055A 14600 ;
                                     055A 14700 ; CALLING SEQUENCE:
                                     055A 14800 ;
                                     055A 14900 ;	MAIN ENTRY POINT
                                     055A 15000 ;
                                     055A 15100 ; INPUT PARAMETERS:
                                     055A 15200 ;
                                     055A 15300 ;	NONE
                                     055A 15400 ;
                                     055A 15500 ; IMPLICIT INPUTS:
                                     055A 15600 ;
                                     055A 15700 ;	SYS$INPUT IS ASSIGNED TO THE CARD READER
                                     055A 15800 ;
                                     055A 15900 ; OUTPUT PARAMETERS:
                                     055A 16000 ;
                                     055A 16100 ;	NONE
                                     055A 16200 ;
                                     055A 16300 ; IMPLICIT OUTPUTS:
                                     055A 16400 ;
                                     055A 16500 ;	NONE
                                     055A 16600 ;
                                     055A 16700 ; ROUTINE VALUE:
                                     055A 16800 ;
                                     055A 16900 ;	NONE
                                     055A 17000 ;
                                     055A 17100 ; SIDE EFFECTS:
                                     055A 17200 ;
                                     055A 17300 ;	JOB WILL BE ENTERED IN BATCH QUEUE
                                     055A 17400 ;
                                     055A 17500 ;--
                                     055A 17600
                                     055A 17700 	PURE_SECTION
                                     0047 17800
                                     0047 17900
                                     0047 18000 INP_START:				;INITIAL ENTRY POINT
                               0000  0047 18100 	.WORD	0			;ENTRY MASK
            6D       0000'CF     DE  0049 18150 	MOVAL	W^INP$HANDLER,(FP)	;SET ADDRESS OF COND HANDLER
            59       01D4'CF     DE  004E 18200 	MOVAL	W^INP$G_FAB,R9		;SET ADDRESS OF FAB
            5A       0224'CF     DE  0053 18300 	MOVAL	W^INP$G_RAB,R10		;SET ADDRESS OF RAB
            5B       0000'CF     DE  0058 18400 	MOVAL	W^INP$G_DATA,R11	;SET ADDRESS OF IMPURE DATA VECTOR
                                     005D 18500 ;
                                     005D 18600 ; CREATE A MAILBOX FOR SYMBIONT MANAGER MESSAGES
                                     005D 18700 ;
                                     005D 18800 	$CREMBX_S CHAN=ID_W_MBCHAN(R11),MAXMSG=#8
                                     0071 18900 	IF_ERROR JBC$_MBASGN		;CHECK FOR ERRORS
                                     0081 19000 ;
MAIN            - INPUT SYMBIONT MAIN ROUTINE                    21-AUG-1978 21:38:59   VAX-11 MACRO X0.3-11               Page   5
X0001           MAIN ROUTINE                                                                                                     (1)

                                     0081 19100 ; ASSIGN CHANNEL TO CARD READER AND INITIALIZE INPUT
                                     0081 19200 ;
                                     0081 19300 	$ASSIGN_S W^INPUT_NAME,ID_W_CRCHAN(R11)
                                     0090 19400 	IF_ERROR JBC$_INPASGN,#0,R0	;ERRORS?
                       45 AB     DF  00A4 19450 	PUSHAL	ID_T_CHAN_INFO(R11)	;CREATE CHANNEL INFO BUFFER
                          0C     DD  00A7 19455 	PUSHL	#3*4			; DESCRIPTOR
            51            5E     D0  00A9 19460 	MOVL	SP,R1			;GET ADDRESS OF DESCRIPTOR
                                     00AC 19465 	$GETCHN_S ID_W_CRCHAN(R11),,(R1);GET CHANNEL INFO
                          52     D4  00BE 19500 	CLRL	R2			;INIT INPUT BUFFER INDEX
                          FF3D'  30  00C0 19600 	BSBW	INP$STARTCARD		;START THE CARD READER
                                     00C3 19750 	IF_ERROR JBC$_INPREAD,#0,R0	;CHECK FOR ERRORS
                                     00D7 19800 	SETBIT	FLAG_V_INITOK,ID_L_FLAGS(R11) ;SET SYMBIONT INIT'ED OK
                                     00DC 19900 ;
                                     00DC 20000 ; GET THE JOB CARD
                                     00DC 20100 ;
                                     00DC 20200 ;	**ALSO THE UNWIND ENTRY-POINT FOR ALL ERRORS**
                                     00DC 20300 ;
                                     00DC 20400 INP$GET_JOB::
         41 AB            10     E1  00DC 20500 	BBC	#FLAG_V_INITOK,ID_L_FLAGS(R11),10$ ;BR IF NOT INITED YET
                          0C         00E0
         33 AB       FF23 CF     7D  00E1 20505 	MOVQ	W^JOB_TIMEOUT,ID_Q_TIMEOUT(R11) ;SET TIMEOUT TIME
                          FF16'  30  00E7 20600 	BSBW	INP$GETCARD		;GET THE $JOB CARD
            04            50     E8  00EA 20700 	BLBS	R0,START_JOB		;BR IF NO ERROR
            50            01     D0  00ED 20750 10$:	MOVL	#1,R0			;SET SUCCESS
                                 04  00F0 20800 	RET				;...STOP THE SYMBIONT IMAGE
                                     00F1 20900
                                     00F1 21000 ;
                                     00F1 21100 ; START NEXT JOB: PARSE JOB AND PASSWORD CARDS
                                     00F1 21200 ;
                                     00F1 21300 START_JOB:
                                     00F1 21350 	CLRBIT	FLAG_V_CREATED,ID_L_FLAGS(R11) ;OUTPUT NOT CREATED YET
         41 AB            01     E5  00F6 21400 	BBCC	#FLAG_V_NAME,ID_L_FLAGS(R11),10$ ;BR IF NO $JOB YET
                          1E         00FA
                                     00FB 21500 	$CMKRNL_S W^INP$SET_UNAME,W^SYS_UNAME ;RESET USER NAME
                                     010A 21600 	$CMKRNL_S W^INP$SET_ACCNT,W^SYS_ACCNT ;RESET ACCOUNT/UIC
                                     0119 21700
                          FEE4'  30  0119 21800 10$:	BSBW	INP$PARSE_JOB		;PARSE THE JOB CARD
            BD            50     E9  011C 21900 	BLBC	R0,INP$GET_JOB		;BR IF INVALID JOB CARD
         33 AB       FEED CF     7D  011F 21905 	MOVQ	W^DEF_TIMEOUT,ID_Q_TIMEOUT(R11) ;SET TIMEOUT TIME
                          FED8'  30  0125 22000 	BSBW	INP$GETCARD		;GET THE $PASSWORD CARD
            B1            50     E9  0128 22100 	BLBC	R0,INP$GET_JOB		;BR IF ERROR OR EOF
                          FED2'  30  012B 22200 	BSBW	INP$PARSE_PASS		;PARSE THE PASSWORD CARD
                                     012E 22400 ;
                                     012E 22500 ; VALIDATE THE USER'S ACCESS
                                     012E 22600 ;
                     FECE CF     DF  012E 22700 	PUSHAL	UAFBUF_DESC		;USER DATA BUFFER DESCRIPTOR
                       0A AB     DF  0132 22800 	PUSHAL	ID_Q_PASSW_DESC(R11)	;PASSWORD DESCRIPTOR
                       12 AB     DF  0135 22900 	PUSHAL	ID_Q_UNAME_DESC(R11)	;USER NAME DESCRIPTOR
       0000'CF            03     FB  0138 23000 	CALLS	#3,W^LGI$VALIDATE		;LOOKUP USER NAME AND VALIDATE
            22            50     E8  013D 23100 	BLBS	R0,30$			;BR IF VALIDATED OK
                          50     D5  0140 23200 	TSTL	R0			;WAS ERROR OPENING ACCESS FILE?
                          0D     18  0142 23300 	BGEQ	20$			;BR IF YES
                                     0144 23400 	SIGNAL	JBC$_USERVAL		;SIGNAL INVALID USER ACCESS
                                     0151 23500 20$:	SIGNAL	JBC$_UAFOPN,#0,R0	;SIGNAL ERROR OPENING ACCESS FILE
                                     0162 23600
                                     0162 23700 ;
                                     0162 23800 ; SET SYMBIONT PROCESS ACCOUNT AND UIC TO USER'S
MAIN            - INPUT SYMBIONT MAIN ROUTINE                    21-AUG-1978 21:38:59   VAX-11 MACRO X0.3-11               Page   6
X0001           MAIN ROUTINE                                                                                                     (1)

                                     0162 23900 ;
                                     0162 24000 30$:
                     0472'CF     DD  0162 24100 	PUSHL	W^UAF$L_UIC+INP$T_UAFBUF ;UIC IS 2ND PARAMETER
                       1A AB     DF  0166 24200 	PUSHAL	ID_Q_ACCNT_DESC(R11)	;ADDR OF ACCNT DESC IS 1ST PARAM
                          5E     DD  0169 24300 	PUSHL	SP			;ADDRESS OF PARAMETERS
                     0306'CF     DF  016B 24400 	PUSHAL	W^INP$SET_ACCNT		;ADDRESS OF SET ROUTINE
   00000000'EF            04     FB  016F 24500 	CALLS	#4,SYS$CMKRNL		;CHANGE MODE TO KERNAL TO SET
                                     0176 24600 ;
                                     0176 24700 ; SET QUEUE PRIORITY IN MESSAGE
                                     0176 24800 ;
                                     0176 24900
            58       045A'CF     DE  0176 24905 	MOVAL	W^INP$T_UAFBUF,R8	;GET ADDR OF USER RECORD
            51       0373'CF     90  017B 25000 	MOVB	W^SM_T_OPTIONS+INP$G_SYMMSG+1,R1 ;WAS A PRIORITY SPECIFIED?
                          07     13  0180 25100 	BEQL	50$			;BR IF NO
       008A C8            51     91  0182 25200 	CMPB	R1,UAF$B_PRI(R8)	;IS PRIORITY VALID?
                          07     15  0187 25300 	BLEQ	60$			;BR IF YES
                                 90  0189 25400 50$:	MOVB	UAF$B_PRI(R8),-		;SET PRIORITY TO BASE PRIORITY
       0373'CF       008A C8         018A 25500 		W^SM_T_OPTIONS+INP$G_SYMMSG+1
                                     0190 25600 ;
                                     0190 25700 ; SETUP DEFAULT DIRECTORY AND FILE TYPE
                                     0190 25800 ;
                                     0190 25900 60$:
         30 A9         51 AB     DE  0190 26100 	MOVAL	ID_T_DEF_DIR(R11),FAB$L_DNA(R9) ;SET ADDR OF DEFAULT DIR
                       1C A8     81  0195 26200 	ADDB3	UAF$T_DEFDIR(R8),UAF$T_DEFDEV(R8),- ;COMPUTE STRING SIZE
         35 A9         3C A8         0198 26300 		FAB$B_DNS(R9)
         35 A9            04     80  019C 26400 	ADDB	#4,FAB$B_DNS(R9)
            57         3C A8     9A  01A0 26500 	MOVZBL	UAF$T_DEFDEV(R8),R7	;GET DIRECTORY STRING SIZE
                          57     28  01A4 26600 	MOVC3	R7,UAF$T_DEFDEV+1(R8),- ;CONCATENATE DEVICE
         51 AB         3D A8         01A6 26700 		ID_T_DEF_DIR(R11)
            57         1C A8     9A  01AA 26800 	MOVZBL	UAF$T_DEFDIR(R8),R7
         1D A8            57     28  01AE 26900 	MOVC3	R7,UAF$T_DEFDIR+1(R8),(R3) ; WITH DIRECTORY
                          63         01B2
            63   4D4F432E 8F     D0  01B3 27000 	MOVL	#^A\.COM\,(R3)	      ; WITH FILE TYPE
                                     01BA 27100 ;
                                     01BA 27200 ; CREATE COMMAND FILE AND CONNECT RAB
                                     01BA 27300 ;
         34 A9         22 AB     90  01BA 27400 	MOVB	ID_Q_JOBNM_DESC(R11),FAB$B_FNS(R9) ;SET LENGTH OF NAME
         2C A9         26 AB     D0  01BF 27500 	MOVL	ID_Q_JOBNM_DESC+4(R11),FAB$L_FNA(R9) ;SET ADDRESS OF NAME
       0274'CF       02A8'CF     9E  01C4 27550 	MOVAB	W^EXPANDED,W^NAM$L_ESA+INP$G_NAM ;SET EXPANDED NAME BUFF ADDR
                                     01CB 27600 	$CREATE	(R9)			;CREATE THE FILE
       02A0'CF       0273'CF     9A  01D4 27800 	MOVZBL	W^NAM$B_ESL+INP$G_NAM,W^EXPANDED_DESC ;SET EXPANDED STRING SIZE
                                     01DB 27900 	IF_ERROR SHR$_OPENOUT!<4@16>,-	;CHECK FOR ERRORS
                                     01DB 28000 		#1,#EXPANDED_DESC,R0,FAB$L_STV(R9)
                                     01F8 28100 	$CONNECT (R10)			;CONNECT THE RAB
                                     0201 28200 	IF_ERROR SHR$_OPENOUT!<4@16>,-	;CHECK FOR ERRORS
                                     0201 28300 		#1,#EXPANDED_DESC,R0,RAB$L_STV(R10)
                                     021E 28350 	SETBIT	FLAG_V_CREATED,ID_L_FLAGS(R11) ;INDICATE CREATED OK
                                     0223 28400 ;
                                     0223 28500 ; READ INPUT DECK FROM READER AND WRITE IT TO THE COMMAND FILE
                                     0223 28600 ;
                                     0223 28700 READ_LOOP:
                          FDDA'  30  0223 28800 	BSBW	INP$GETCARD		;GET THE NEXT CARD
            1C            50     E8  0226 28900 	BLBS	R0,10$			;BR IF NO ERROR
                          50     D5  0229 28905 	TSTL	R0			;DID IT TIME-OUT?
                          4E     13  022B 28910 	BEQL	CLOSE			;BR IF YES
            50       0000'8F     B1  022D 28915 	CMPW	#SS$_ENDOFFILE,R0	;END-OF-FILE CARD?
                          47     13  0232 28920 	BEQLU	CLOSE			;BR IF YES
MAIN            - INPUT SYMBIONT MAIN ROUTINE                    21-AUG-1978 21:38:59   VAX-11 MACRO X0.3-11               Page   7
X0001           MAIN ROUTINE                                                                                                     (1)

                                     0234 28925 	SIGNAL	JBC$_INPREAD,#0,R0	;SIGNAL AN ERROR
                          FDB8'  30  0245 29000 10$:	BSBW	INP$EOJ_JOB		;CHECK IF $EOJ OR $JOB CARD
            30            50     E8  0248 29100 	BLBS	R0,CLOSE		;BR IF YES
         28 AA            57     D0  024B 29200 	MOVL	R7,RAB$L_RBF(R10)	;SET RECORD ADDRESS
         22 AA            56     B0  024F 29300 	MOVW	R6,RAB$W_RSZ(R10)	;SET RECORD SIZE
                                     0253 29400 	$PUT	(R10)			;PUT THE RECORD IN THE FILE
                                     025C 29500 	IF_ERROR SHR$_WRITEERR!<4@16>,- ;CHECK FOR ERRORS
                                     025C 29505 		#1,#EXPANDED_DESC,R0,RAB$L_STV(R10)
                          A8     11  0279 29600 	BRB	READ_LOOP		;GET NEXT CARD
                                     027B 29700 ;
                                     027B 29800 ; CLOSE THE COMMAND FILE AND PASS IT TO THE SYMBIONT MANAGER
                                     027B 29900 ;
                                     027B 30000 CLOSE:
                                     027B 30100 	$DISCONNECT (R10)		;DISCONNECT RAB
                                     0284 30200 	$CLOSE	(R9)			;CLOSE THE FILE
            58       0330'CF     DE  028D 30300 	MOVAL	W^INP$G_SYMMSG,R8	;SET ADDRESS OF MESSAGE BUFFER
            68            08     B0  0292 30400 	MOVW	#SMR$K_ENTER,SM_W_REQUEST(R8) ;SET REQUEST TYPE
                                     0295 30450 	ASSUME	NAM$W_FID EQ NAM$T_DVI+16
                                     0295 30475 	ASSUME	NAM$W_DID EQ NAM$W_FID+6
                          1C     28  0295 30510 	MOVC3	#16+6+6,W^NAM$T_DVI+INP$G_NAM,- ;SET DEV, FILEID, DIR ID
         12 A8       027C'CF         0297 30520 		SM_T_DEVNAME(R8)
         2E A8         22 AB     90  029C 30800 	MOVB	ID_Q_JOBNM_DESC(R11),SM_T_FILENAME(R8) ;JOB NAME LENGTH
                       22 AB     28  02A1 30900 	MOVC3	ID_Q_JOBNM_DESC(R11),@ID_Q_JOBNM_DESC+4(R11),- ;JOB NAME
         2F A8         26 BB         02A4 31000 		SM_T_FILENAME+1(R8)
                     032C'CF     C3  02A8 31100 	SUBL3	W^SYMMSG_DESC+4,ID_L_OPT_PTR(R11),- ;SET MESSAGE LENGTH
       0328'CF         3D AB         02AC 31200 		W^SYMMSG_DESC
                                     02B1 31300 	$SNDSMB_S MSGBUF=SYMMSG_DESC,-	;SEND MESSAGE TO SYMBIONT MANGR
                                     02B1 31400  		  CHAN=ID_W_MBCHAN(R11)
            27            50     E9  02C2 31500 	BLBC	R0,10$			;BR IF ERROR
            50            7E     7E  02C5 31600 	MOVAQ	-(SP),R0		;CREATE A MAILBOX MESSAGE BUFFER
                                     02C8 31700 	$QIOW_S	CHAN=ID_W_MBCHAN(R11),-	;MAILBOX CHANNEL
                                     02C8 31800 		FUNC=#IO$_READVBLK,-	;READ FUNCTION
                                     02C8 31900 		P1=(R0),-		;BUFFER ADDRESS
                                     02C8 32000 		P2=#8			;8 BYTES
            51            8E     D0  02E6 32100 	MOVL	(SP)+,R1		;GET MESSAGE CODE / JOB NUMBER
            50            8E     D0  02E9 32200 	MOVL	(SP)+,R0		;GET STATUS
                                     02EC 32300 10$:	IF_ERROR JBC$_ENTQUE,-		;CHECK FOR ERRORS
                                     02EC 32350 		#1,SM_T_QUEUE(R8),R0
                                     0303 32400
                          FDEB   31  0303 32500 	BRW	START_JOB		;START NEXT JOB
                                     0306 32510
MAIN            - INPUT SYMBIONT MAIN ROUTINE                    21-AUG-1978 21:38:59   VAX-11 MACRO X0.3-11               Page   8
X0001           SET_ACCNT/UNAME - SET PROCESS ACCOUNT OR USERNA                                                                  (1)

                                     0306 32700 	.SBTTL	SET_ACCNT/UNAME - SET PROCESS ACCOUNT OR USERNAME
                                     0306 32800 ;++
                                     0306 32900 ;
                                     0306 33000 ; FUNCTIONAL DESCRIPTION:
                                     0306 33100 ;
                                     0306 33200 ;	KERNAL ACCESS MODE ROUTINE TO SET THE INPUT SYMBIONT'S
                                     0306 33300 ;	ACCOUNT/UIC OR USERNAME
                                     0306 33400 ;
                                     0306 33500 ; CALLING SEQUENCE:
                                     0306 33600 ;
                                     0306 33700 ;	CALLS/CALLG INP$SET_ACCNT
                                     0306 33800 ;	CALLS/CALLG INP$SET_UNAME
                                     0306 33900 ;
                                     0306 34000 ; INPUT PARAMETERS:
                                     0306 34100 ;
                                     0306 34200 ;	FOR SET_ACCNT:	(AP) = ADDRESS OF ACCOUNT DESCRIPTOR
                                     0306 34300 ;		       4(AP) = UIC
                                     0306 34400 ;	FOR SET_UNAME:	(AP) = USERNAME DESCRIPTOR
                                     0306 34500 ;
                                     0306 34600 ; IMPLICIT INPUTS:
                                     0306 34700 ;
                                     0306 34800 ;	NONE
                                     0306 34900 ;
                                     0306 35000 ; OUTPUT PARAMETERS:
                                     0306 35100 ;
                                     0306 35200 ;	NONE
                                     0306 35300 ;
                                     0306 35400 ; IMPLICIT OUTPUTS:
                                     0306 35500 ;
                                     0306 35600 ;	NONE
                                     0306 35700 ;
                                     0306 35800 ; ROUTINE VALUE:
                                     0306 35900 ;
                                     0306 36000 ;	NONE
                                     0306 36100 ;
                                     0306 36200 ; SIDE EFFECTS:
                                     0306 36300 ;
                                     0306 36400 ;	PROCESS ACCOUNT/UIC OR USERNAME WILL BE ALTERED
                                     0306 36500 ;
                                     0306 36600 ;--
                                     0306 36700
                                     0306 36800 	PURE_SECTION
                                     0306 36900
                                     0306 37000 INP$SET_ACCNT::
                               003C  0306 37100 	.WORD	^M<R2,R3,R4,R5>
            50            8C     D0  0308 37200 	MOVL	(AP)+,R0		;GET ADDR OF ACCOUNT DESCRIPTOR
         04 B0            60     2C  030B 37300 	MOVC5	(R0),@4(R0),#^A\ \,-	;SET PROCESS ACCOUNT NAME
                                     030F
            08            20         030F 37400 		#8,@#CTL$T_ACCOUNT
                 00000000'9F         0311
            50   00000000'9F     D0  0316 37500 	MOVL	@#SCH$GL_CURPCB,R0	;GET ADDRESS OF PCB
         20 A0            6C     D0  031D 37600 	MOVL	(AP),PCB$L_UIC(R0)	;SET PROCESS UIC
            50            01     D0  0321 37700 	MOVL	#1,R0			;SET ROUTINE STATUS OK
                                 04  0324 37800 	RET				;RETURN TO USER MODE
                                     0325 37900
                                     0325 38000 INP$SET_UNAME::
                               003C  0325 38100 	.WORD	^M<R2,R3,R4,R5>
MAIN            - INPUT SYMBIONT MAIN ROUTINE                    21-AUG-1978 21:38:59   VAX-11 MACRO X0.3-11               Page   9
X0001           SET_ACCNT/UNAME - SET PROCESS ACCOUNT OR USERNA                                                                  (1)

         04 BC            6C     2C  0327 38200 	MOVC5	(AP),@4(AP),#^A\ \,-	;SET PROCESS USERNAME
                                     032B
            0C            20         032B 38300 		#12,@#CTL$T_USERNAME
                 00000000'9F         032D
            50            01     D0  0332 38400 	MOVL	#1,R0			;SET ROUTINE STATUS OK
                                 04  0335 38500 	RET				;RETURN TO USER MODE
                                     0336 38600
                                     0336 38700
                                     0336 38800 	.END	INP_START
MAIN            - INPUT SYMBIONT MAIN ROUTINE                    21-AUG-1978 21:38:59   VAX-11 MACRO X0.3-11               Page  10
SYMBOL TABLE                                                                                                                     (1)

$$.TAB         = 00000268 R     04   FAB$M_CBT      = 00200000            FAB$V_DEL      = 00000002
$$.TABEND      = 000002A0 R     04   FAB$M_CIF      = 02000000            FAB$V_DFW      = 00000005
$$.TMP         = 00000400            FAB$M_CR       = 00000002            FAB$V_DLT      = 0000000F
$$.TMP1        = 00000001            FAB$M_CTG      = 00100000            FAB$V_DMO      = 0000000C
$$.TMP2        = 00000069            FAB$M_DEL      = 00000004            FAB$V_ESC      = 0000001B
$$.TMPX        = 00000000 R     05   FAB$M_DFW      = 00000020            FAB$V_EXE      = 00000007
$$.TMPX1       = 00000009            FAB$M_DLT      = 00008000            FAB$V_FTN      = 00000000
$$ARGS$$       = 00000004            FAB$M_DMO      = 00001000            FAB$V_GET      = 00000001
$$T1           = 00000001            FAB$M_ESC      = 08000000            FAB$V_INP      = 00000013
BIT...         = 0000001A            FAB$M_EXE      = 00000080            FAB$V_JNL      = 00000016
CLOSE            0000027B R     03   FAB$M_FTN      = 00000001            FAB$V_KFO      = 0000001E
CTL$T_ACCOUNT    ********   X   03   FAB$M_GET      = 00000002            FAB$V_MSE      = 00000004
CTL$T_USERNAME   ********   X   03   FAB$M_INP      = 00080000            FAB$V_MXV      = 00000001
DEF_TIMEOUT      00000010 R     03   FAB$M_JNL      = 00400000            FAB$V_NAM      = 00000018
EXPANDED         000002A8 R     04   FAB$M_KFO      = 40000000            FAB$V_NEF      = 0000000A
EXPANDED_DESC    000002A0 R     04   FAB$M_MSE      = 00000010            FAB$V_NFS      = 00000010
FAB$B_BID        00000000            FAB$M_MXV      = 00000002            FAB$V_NIL      = 00000005
FAB$B_BKS        0000003E            FAB$M_NAM      = 01000000            FAB$V_OFP      = 0000001D
FAB$B_BLN        00000001            FAB$M_NEF      = 00000400            FAB$V_ORG      = 00000004
FAB$B_DNS        00000035            FAB$M_NFS      = 00010000            FAB$V_POS      = 00000008
FAB$B_FAC        00000016            FAB$M_NIL      = 00000020            FAB$V_PPF      = 00000012
FAB$B_FNS        00000034            FAB$M_OFP      = 20000000            FAB$V_PPF_IND  = 0000000E
FAB$B_FSZ        0000003F            FAB$M_POS      = 00000100            FAB$V_PPF_RAT  = 00000006
FAB$B_ORG        0000001D            FAB$M_PPF      = 00040000            FAB$V_PRN      = 00000002
FAB$B_RAT        0000001E            FAB$M_PPF_IND  = 00004000            FAB$V_PUT      = 00000000
FAB$B_RFM        0000001F            FAB$M_PPF_RAT  = 00003FC0            FAB$V_RCK      = 00000017
FAB$B_RTV        0000001C            FAB$M_PRN      = 00000004            FAB$V_RWC      = 0000000B
FAB$B_SHR        00000017            FAB$M_PUT      = 00000001            FAB$V_RWO      = 00000007
FAB$C_BID      = 00000003            FAB$M_RCK      = 00800000            FAB$V_SCF      = 0000000E
FAB$C_BLN        00000050            FAB$M_RWC      = 00000800            FAB$V_SHRDEL   = 00000002
FAB$C_FIX      = 00000001            FAB$M_RWO      = 00000080            FAB$V_SHRGET   = 00000001
FAB$C_HSH      = 00000030            FAB$M_SCF      = 00004000            FAB$V_SHRPUT   = 00000000
FAB$C_IDX      = 00000020            FAB$M_SHRDEL   = 00000004            FAB$V_SHRUPD   = 00000003
FAB$C_MAXRFM   = 00000003            FAB$M_SHRGET   = 00000002            FAB$V_SPL      = 0000000D
FAB$C_REL      = 00000010            FAB$M_SHRPUT   = 00000001            FAB$V_SQO      = 00000006
FAB$C_RFM_DFLT = 00000002            FAB$M_SHRUPD   = 00000008            FAB$V_SUP      = 00000002
FAB$C_SEQ      = 00000000            FAB$M_SPL      = 00002000            FAB$V_TEF      = 0000001C
FAB$C_UDF      = 00000000            FAB$M_SQO      = 00000040            FAB$V_TMD      = 00000004
FAB$C_VAR      = 00000002            FAB$M_SUP      = 00000004            FAB$V_TMP      = 00000003
FAB$C_VFC      = 00000003            FAB$M_TEF      = 10000000            FAB$V_TRN      = 00000004
FAB$K_BLN        00000050            FAB$M_TMD      = 00000010            FAB$V_UFM      = 0000001A
FAB$L_ALQ        00000010            FAB$M_TMP      = 00000008            FAB$V_UFO      = 00000011
FAB$L_CTX        00000018            FAB$M_TRN      = 00000010            FAB$V_UPD      = 00000003
FAB$L_DEV        00000040            FAB$M_UFM      = 04000000            FAB$V_UPI      = 00000006
FAB$L_DNA        00000030            FAB$M_UFO      = 00020000            FAB$V_WCK      = 00000009
FAB$L_FNA        0000002C            FAB$M_UPD      = 00000008            FAB$W_BLS        0000003C
FAB$L_FOP        00000004            FAB$M_UPI      = 00000040            FAB$W_DEQ        00000014
FAB$L_JNL        00000020            FAB$M_WCK      = 00000200            FAB$W_IFI        00000002
FAB$L_MRN        00000038            FAB$S_ORG      = 00000004            FAB$W_MRS        00000036
FAB$L_NAM        00000028            FAB$S_PPF_RAT  = 00000008            FLAG_M_CREATED = 00020000
FAB$L_SDC        00000044            FAB$V_BIO      = 00000005            FLAG_M_INITOK  = 00010000
FAB$L_STS        00000008            FAB$V_BLK      = 00000003            FLAG_M_JOB     = 00000001
FAB$L_STV        0000000C            FAB$V_BRO      = 00000006            FLAG_M_NAME    = 00000002
FAB$L_XAB        00000024            FAB$V_CBT      = 00000015            FLAG_M_NODEL   = 00000004
FAB$M_BIO      = 00000020            FAB$V_CIF      = 00000019            FLAG_M_NOTRAIL = 00000008
FAB$M_BLK      = 00000008            FAB$V_CR       = 00000001            FLAG_V_CREATED = 00000011
FAB$M_BRO      = 00000040            FAB$V_CTG      = 00000014            FLAG_V_INITOK  = 00000010
MAIN            - INPUT SYMBIONT MAIN ROUTINE                    21-AUG-1978 21:38:59   VAX-11 MACRO X0.3-11               Page  11
SYMBOL TABLE                                                                                                                     (1)

FLAG_V_JOB     = 00000000            JBC$_INPASGN   = 00048488            NAM$K_BLN        00000038
FLAG_V_NAME    = 00000001            JBC$_INPREAD   = 00048490            NAM$K_BLN_DIRWC  00000050
FLAG_V_NODEL   = 00000002            JBC$_INVMSG    = 00048418            NAM$L_DIRWCC1    00000040
FLAG_V_NOTRAIL = 00000003            JBC$_INVSCT    = 00048468            NAM$L_DIRWCC2    00000044
GBL...         = 00000000            JBC$_JOBABORT  = 00048080            NAM$L_DIRWCC3    00000048
ID_B_INBUF_INDX  00000032            JBC$_JOBCRD    = 000484B0            NAM$L_DIRWCC4    0000004C
ID_K_SIZE        000001D1            JBC$_LOSTREC   = 00048438            NAM$L_DWC        00000038
ID_L_FLAGS       00000041            JBC$_MBASGN    = 00048400            NAM$L_ESA        0000000C
ID_L_OPT_PTR     0000003D            JBC$_MBDEAS    = 00048460            NAM$L_FNB        00000034
ID_Q_ACCNT_DESC  0000001A            JBC$_MBREAD    = 00048408            NAM$L_RLF        00000010
ID_Q_IOSB        00000002            JBC$_MBSETAST  = 000484C8            NAM$L_RSA        00000004
ID_Q_JOBNM_DESC  00000022            JBC$_MBWRITE   = 000484D0            NAM$L_WCC        00000030
ID_Q_PASSW_DESC  0000000A            JBC$_MULTREC   = 00048430            NAM$M_DIR_LVLS = 00E00000
ID_Q_TIMEOUT     00000033            JBC$_NOOPENJOB = 00048048            NAM$M_EXP_DEV  = 00000080
ID_Q_UNAME_DESC  00000012            JBC$_NOPRIV    = 00048020            NAM$M_EXP_DIR  = 00000040
ID_T_CHAN_INFO   00000045            JBC$_NOQUEHDR  = 00048028            NAM$M_EXP_NAME = 00000004
ID_T_DEF_DIR     00000051            JBC$_NOQUESPACE= 00048030            NAM$M_EXP_TYPE = 00000002
ID_T_JOB_CARD    000000D1            JBC$_NORMAL    = 00040001            NAM$M_EXP_VER  = 00000001
ID_T_PASSWORD    0000002A            JBC$_NOSUCHJOB = 00048040            NAM$M_GRP_MBR  = 00080000
ID_W_CRCHAN      00000000            JBC$_NOSUCHQUE = 00048038            NAM$M_HIGHVER  = 00008000
ID_W_MBCHAN      0000003B            JBC$_PASSCRD   = 000484B8            NAM$M_LOWVER   = 00004000
INBUF0           000003BA R     04   JBC$_PRCREAT   = 00048410            NAM$M_NODE     = 00020000
INBUF1           0000040A R     04   JBC$_PRINTOUT  = 000484E0            NAM$M_PPF      = 00010000
INP$EOJ_JOB      ********   X   03   JBC$_QUECNT    = 00048428            NAM$M_QUOTED   = 00040000
INP$GETCARD      ********   X   03   JBC$_QUEERR    = 00048458            NAM$M_WILDCARD = 00000100
INP$GET_JOB      000000DC RG    03   JBC$_QUENOSTOP = 00048050            NAM$M_WILD_DIR = 00100000
INP$G_DATA       00000000 RG    04   JBC$_QUEUPD    = 000484E8            NAM$M_WILD_GRP = 01000000
INP$G_FAB        000001D4 RG    04   JBC$_SCTERR    = 00048450            NAM$M_WILD_MBR = 02000000
INP$G_INBUF_ADD  00000029 RG    03   JBC$_SMINVOPR  = 00048058            NAM$M_WILD_NAME= 00000020
INP$G_NAM        00000268 RG    04   JBC$_SMINVOPT  = 00048060            NAM$M_WILD_SFD1= 02000000
INP$G_RAB        00000224 RG    04   JBC$_SMINVREQ  = 00048068            NAM$M_WILD_SFD2= 04000000
INP$G_SYMMSG     00000330 RG    04   JBC$_SMZEROJOB = 00048070            NAM$M_WILD_SFD3= 08000000
INP$HANDLER      ********   X   03   JBC$_SNDRESP   = 00048420            NAM$M_WILD_SFD4= 10000000
INP$K_CREFN    = 00000001            JBC$_SYMBASN   = 00048440            NAM$M_WILD_SFD5= 20000000
INP$K_GENEFN   = 00000000            JBC$_SYMBCRE   = 000484D8            NAM$M_WILD_SFD6= 40000000
INP$K_JOBCRDSZ = 00000100            JBC$_SYMBDSAB  = 00048078            NAM$M_WILD_SFD7= 80000000
INP$K_MAXRSS   = 00000080            JBC$_SYMBWRT   = 00048448            NAM$M_WILD_TYPE= 00000010
INP$K_OPTBUFSZ = 00000048            JBC$_SYMDEL    = 00048470            NAM$M_WILD_UFD = 01000000
INP$K_TIMEFN   = 00000002            JBC$_UAFOPN    = 000484A0            NAM$M_WILD_VER = 00000008
INP$K_UAFBUFSZ = 00000100            JBC$_UNESYMMSG = 000484C0            NAM$S_DIR_LVLS = 00000003
INP$PARSE_JOB    ********   X   03   JBC$_USERVAL   = 00048498            NAM$T_DVI        00000014
INP$PARSE_PASS   ********   X   03   JOB_TIMEOUT      00000008 R     03   NAM$V_DIR_LVLS = 00000015
INP$SET_ACCNT    00000306 RG    03   LGI$VALIDATE     ********   X   03   NAM$V_EXP_DEV  = 00000007
INP$SET_UNAME    00000325 RG    03   LIB$SIGNAL       ********   X   03   NAM$V_EXP_DIR  = 00000006
INP$STARTCARD    ********   X   03   NAM$B_BID        00000000            NAM$V_EXP_NAME = 00000002
INP$T_UAFBUF     0000045A RG    04   NAM$B_BLN        00000001            NAM$V_EXP_TYPE = 00000001
INPUT_NAME       00000018 R     03   NAM$B_CURLVL     00000038            NAM$V_EXP_VER  = 00000000
INP_START        00000047 R     03   NAM$B_ESL        0000000B            NAM$V_GRP_MBR  = 00000013
IO$_READVBLK     ********   X   03   NAM$B_ESS        0000000A            NAM$V_HIGHVER  = 0000000F
JBC$_ACMINVOP  = 00048088            NAM$B_RSL        00000003            NAM$V_LOWVER   = 0000000E
JBC$_ACNTOPN   = 00048478            NAM$B_RSS        00000002            NAM$V_NODE     = 00000011
JBC$_ACNTWRT   = 00048480            NAM$C_BID      = 00000002            NAM$V_PPF      = 00000010
JBC$_ENTQUE    = 000484A8            NAM$C_BLN        00000038            NAM$V_QUOTED   = 00000012
JBC$_ILLDEVNAM = 00048000            NAM$C_BLN_DIRWC  00000050            NAM$V_WILDCARD = 00000008
JBC$_ILLDEVTYP = 00048008            NAM$C_DVI      = 00000010            NAM$V_WILD_DIR = 00000014
JBC$_ILLFILNAM = 00048010            NAM$C_MAXRSS   = 00000080            NAM$V_WILD_GRP = 00000018
JBC$_ILLQUENAM = 00048018            NAM$C_MAXRSSLCL= 00000060            NAM$V_WILD_MBR = 00000019
MAIN            - INPUT SYMBIONT MAIN ROUTINE                    21-AUG-1978 21:38:59   VAX-11 MACRO X0.3-11               Page  12
SYMBOL TABLE                                                                                                                     (1)

NAM$V_WILD_NAME= 00000005            PCB$V_PHDRES   = 00000012            RAB$L_RBF        00000028
NAM$V_WILD_SFD1= 00000019            PCB$V_PSWAPM   = 00000004            RAB$L_RFA0       00000010
NAM$V_WILD_SFD2= 0000001A            PCB$V_PWRAST   = 00000016            RAB$L_RHB        0000002C
NAM$V_WILD_SFD3= 0000001B            PCB$V_RES      = 00000000            RAB$L_ROP        00000004
NAM$V_WILD_SFD4= 0000001C            PCB$V_RESPEN   = 00000005            RAB$L_STS        00000008
NAM$V_WILD_SFD5= 0000001D            PCB$V_SSFEXC   = 00000006            RAB$L_STV        0000000C
NAM$V_WILD_SFD6= 0000001E            PCB$V_SSFEXCE  = 00000007            RAB$L_UBF        00000024
NAM$V_WILD_SFD7= 0000001F            PCB$V_SSFEXCS  = 00000008            RAB$M_ASY      = 00000001
NAM$V_WILD_TYPE= 00000004            PCB$V_SSFEXCU  = 00000009            RAB$M_BIO      = 00000800
NAM$V_WILD_UFD = 00000018            PCB$V_SSRWAIT  = 0000000A            RAB$M_CCO      = 80000000
NAM$V_WILD_VER = 00000003            PCB$V_SUSPEN   = 0000000B            RAB$M_CVT      = 04000000
NAM$W_DID        0000002A            PCB$V_SWPVBN   = 00000010            RAB$M_EOF      = 00000100
NAM$W_DID_NUM    0000002A            PCB$V_WAKEPEN  = 0000000C            RAB$M_FDL      = 00000040
NAM$W_DID_RVN    0000002E            PCB$V_WALL     = 0000000D            RAB$M_HSH      = 00000080
NAM$W_DID_SEQ    0000002C            PCB$W_APTCNT     00000034            RAB$M_KGE      = 00200000
NAM$W_FID        00000024            PCB$W_ASTCNT     0000003C            RAB$M_KGT      = 00400000
NAM$W_FID_NUM    00000024            PCB$W_BIOCNT     0000003E            RAB$M_LIM      = 00004000
NAM$W_FID_RVN    00000028            PCB$W_BIOLM      00000040            RAB$M_LOA      = 00002000
NAM$W_FID_SEQ    00000026            PCB$W_BYTCNT     00000042            RAB$M_LOC      = 00010000
NAM$W_PRV_DID    0000003A            PCB$W_BYTLM      00000068            RAB$M_MAS      = 00000020
PCB$B_ASTACT     0000000C            PCB$W_DIOCNT     00000044            RAB$M_NLK      = 00100000
PCB$B_ASTEN      0000000D            PCB$W_DIOLM      00000046            RAB$M_NXR      = 00800000
PCB$B_PRI        0000000B            PCB$W_FILCNT     00000048            RAB$M_PMT      = 40000000
PCB$B_PRIB       00000033            PCB$W_GPGCNT     00000038            RAB$M_PPF_IND  = 00004000
PCB$B_TYPE       0000000A            PCB$W_GRP        00000022            RAB$M_PPF_RAT  = 00003FC0
PCB$B_WEFC       00000032            PCB$W_MEM        00000020            RAB$M_PTA      = 20000000
PCB$C_LENGTH     0000007C            PCB$W_MTXCNT     0000000E            RAB$M_RAH      = 00000200
PCB$K_LENGTH     0000007C            PCB$W_PPGCNT     0000003A            RAB$M_RLK      = 00080000
PCB$L_ASTQBL     00000014            PCB$W_PRCCNT     0000006A            RAB$M_RNE      = 01000000
PCB$L_ASTQFL     00000010            PCB$W_SIZE       00000008            RAB$M_RNF      = 08000000
PCB$L_EFC2P      00000058            PCB$W_STATE      00000030            RAB$M_TMO      = 02000000
PCB$L_EFC3P      0000005C            PCB$W_TMBU       00000036            RAB$M_TPT      = 00000002
PCB$L_EFCS       00000050            PCB$W_TQCNT      0000004A            RAB$M_UIF      = 00000010
PCB$L_EFCU       00000054            RAB$B_BID        00000000            RAB$M_ULK      = 00040000
PCB$L_EFWM       0000004C            RAB$B_BLN        00000001            RAB$M_WAT      = 00020000
PCB$L_OWNER      0000001C            RAB$B_KRF        00000035            RAB$M_WBH      = 00000400
PCB$L_PHD        00000064            RAB$B_KSZ        00000034            RAB$S_PPF_RAT  = 00000008
PCB$L_PHYPCB     00000018            RAB$B_MBC        00000037            RAB$V_ASY      = 00000000
PCB$L_PID        00000060            RAB$B_MBF        00000036            RAB$V_BIO      = 0000000B
PCB$L_PQB        0000004C            RAB$B_PSZ        00000034            RAB$V_CCO      = 0000001F
PCB$L_SQBL       00000004            RAB$B_RAC        0000001E            RAB$V_CVT      = 0000001A
PCB$L_SQFL       00000000            RAB$B_ROP1       00000005            RAB$V_EOF      = 00000008
PCB$L_STS        00000028            RAB$B_ROP2       00000006            RAB$V_FDL      = 00000006
PCB$L_UIC        00000020            RAB$B_ROP3       00000007            RAB$V_HSH      = 00000007
PCB$L_WSSWP      00000024            RAB$B_TMO        0000001F            RAB$V_KGE      = 00000015
PCB$L_WTIME      0000002C            RAB$C_BID      = 00000001            RAB$V_KGT      = 00000016
PCB$T_LNAME      0000006C            RAB$C_BLN        00000044            RAB$V_LIM      = 0000000E
PCB$V_ASTPEN   = 00000011            RAB$C_KEY      = 00000001            RAB$V_LOA      = 0000000D
PCB$V_BATCH    = 0000000E            RAB$C_RFA      = 00000002            RAB$V_LOC      = 00000010
PCB$V_DELPEN   = 00000001            RAB$C_SEQ      = 00000000            RAB$V_MAS      = 00000005
PCB$V_FORCPEN  = 00000002            RAB$K_BLN        00000044            RAB$V_NLK      = 00000014
PCB$V_HIBER    = 00000013            RAB$L_BKT        00000038            RAB$V_NXR      = 00000017
PCB$V_INQUAN   = 00000003            RAB$L_CTX        00000018            RAB$V_PMT      = 0000001E
PCB$V_LOGIN    = 00000014            RAB$L_DCT        00000038            RAB$V_PPF_IND  = 0000000E
PCB$V_NETWRK   = 00000015            RAB$L_FAB        0000003C            RAB$V_PPF_RAT  = 00000006
PCB$V_NOACNT   = 0000000F            RAB$L_KBF        00000030            RAB$V_PTA      = 0000001D
PCB$V_NODELET  = 00000017            RAB$L_PBF        00000030            RAB$V_RAH      = 00000009
MAIN            - INPUT SYMBIONT MAIN ROUTINE                    21-AUG-1978 21:38:59   VAX-11 MACRO X0.3-11               Page  13
SYMBOL TABLE                                                                                                                     (1)

RAB$V_RLK      = 00000013            SHR$_FILNOTPUR = 00001230            SMO$K_NODEFFLAG= 00000049
RAB$V_RNE      = 00000018            SHR$_FILPURGED = 00001250            SMO$K_NOFEED   = 00000008
RAB$V_RNF      = 0000001B            SHR$_HASHCONCAT= 000011D8            SMO$K_NOFLAGPAG= 00000005
RAB$V_TMO      = 00000019            SHR$_HIGHVER   = 00001148            SMO$K_NOGENDEV = 00000045
RAB$V_TPT      = 00000001            SHR$_IDXCONCAT = 00001138            SMO$K_NOGENPRT = 00000042
RAB$V_UIF      = 00000004            SHR$_INCOMPAT  = 000011E0            SMO$K_NOLOWER  = 00000028
RAB$V_ULK      = 00000012            SHR$_NEWFILES  = 00001090            SMO$K_NOTRMDEV = 0000004B
RAB$V_WAT      = 00000011            SHR$_NOFILPURG = 00001228            SMO$K_PAGCNT   = 00000009
RAB$V_WBH      = 0000000A            SHR$_NOJOBID   = 000011A0            SMO$K_PAGHDR   = 00000006
RAB$W_ISI        00000002            SHR$_NOJOBNAME = 000011A8            SMO$K_PARAMS   = 00000026
RAB$W_RFA        00000010            SHR$_NOQUEUE   = 00001198            SMO$K_REQUEUE  = 00000070
RAB$W_RFA4       00000014            SHR$_NOTCMPLT  = 000011C0            SMO$K_RLSTIM   = 00000020
RAB$W_RSZ        00000022            SHR$_NOTCOPIED = 000011B8            SMO$K_SPCCNT   = 00000062
RAB$W_USZ        00000020            SHR$_NOVALUE   = 00001100            SMO$K_TOPOFILE = 00000061
READ_LOOP        00000223 R     03   SHR$_NOWILD    = 00001128            SMO$K_TRMDEV   = 0000004A
SCH$GL_CURPCB    ********   X   03   SHR$_OPENIN    = 00001098            SMR$K_ABORT    = 0000000E
SHR$_ABEND     = 000010D8            SHR$_OPENOUT   = 000010A0            SMR$K_ADDFIL   = 0000000A
SHR$_ABENDD    = 000010E0            SHR$_OVERLAY   = 000010A8            SMR$K_ALTER    = 0000000D
SHR$_ABENDT    = 000010E8            SHR$_PARSEFAIL = 00001248            SMR$K_CLSJOB   = 0000000B
SHR$_APPENDEDB = 00001000            SHR$_PURGEVER  = 00001210            SMR$K_CREJOB   = 00000009
SHR$_APPENDEDR = 00001008            SHR$_READERR   = 000010B0            SMR$K_DELETE   = 00000001
SHR$_ATPC      = 00001158            SHR$_RELCONCAT = 00001140            SMR$K_DETINIT  = 00000010
SHR$_BADBYTE   = 00001010            SHR$_REPLACED  = 000010B8            SMR$K_ENTER    = 00000008
SHR$_BADCOPIES = 00001160            SHR$_RMSERROR  = 000011C8            SMR$K_INITIAL  = 00000000
SHR$_BADDELIM  = 00001118            SHR$_SEARCHFAIL= 00001238            SMR$K_JUSTIFY  = 00000006
SHR$_BADFIELD  = 00001018            SHR$_SYNTAX    = 000010F8            SMR$K_MERGE    = 00000004
SHR$_BADFORM   = 00001168            SHR$_SYSERROR  = 000011B0            SMR$K_PAUSE    = 00000003
SHR$_BADJOBID  = 00001170            SHR$_SYSERRORPC= 000010F0            SMR$K_REDIRECT = 00000005
SHR$_BADJOBNAME= 00001178            SHR$_TEXT      = 00001130            SMR$K_RELEASE  = 0000000F
SHR$_BADKEY    = 00001108            SHR$_UNXPCTSTS = 000011D0            SMR$K_RMVJOB   = 0000000C
SHR$_BADLOGIC  = 00001120            SHR$_VALERR    = 000011E8            SMR$K_START    = 00000002
SHR$_BADLOGICPC= 00001150            SHR$_WILDCONCAT= 000010C0            SMR$K_STOP     = 00000007
SHR$_BADLONG   = 00001020            SHR$_WILDOUTVER= 000010C8            SMR$K_SYNCJOB  = 00000011
SHR$_BADPRTY   = 00001180            SHR$_WRITEERR  = 000010D0            SM_K_SIZE        0000008A
SHR$_BADQNAME  = 00001188            SMO$K_BRSTPAG  = 00000002            SM_T_DEVNAME     00000012
SHR$_BADTIME   = 00001190            SMO$K_COPIES   = 0000000A            SM_T_FILENAME    0000002E
SHR$_BADVALUE  = 00001110            SMO$K_CURFORM  = 00000040            SM_T_OPTIONS     00000042
SHR$_BADWORD   = 00001028            SMO$K_DEFBRST  = 00000046            SM_T_QUEUE       00000002
SHR$_BEGIN     = 00001030            SMO$K_DEFFLAG  = 00000048            SM_W_DIRID       00000028
SHR$_BEGIND    = 00001038            SMO$K_DELETE   = 00000001            SM_W_FILEID      00000022
SHR$_BEGINT    = 00001040            SMO$K_DETJOB   = 00000043            SM_W_REQUEST     00000000
SHR$_CLICB     = 00001048            SMO$K_DISWAP   = 0000004E            SS$_ENDOFFILE    ********   X   03
SHR$_CLOSEDEL  = 00001218            SMO$K_DOUBLE   = 00000007            START_JOB        000000F1 R     03
SHR$_CLOSEIN   = 00001050            SMO$K_FLAGPAG  = 00000004            SYMMSG_DESC      00000328 R     04
SHR$_CLOSEOUT  = 00001058            SMO$K_FORMTYPE = 00000024            SYS$ASSIGN       ********   X   03
SHR$_CONFDEL   = 000011F8            SMO$K_GENDEV   = 00000044            SYS$CLOSE        ********  GX   03
SHR$_COPIEDB   = 00001060            SMO$K_GENPRT   = 00000041            SYS$CMKRNL       ********   X   03
SHR$_COPIEDR   = 00001068            SMO$K_HOLD     = 00000021            SYS$CONNECT      ********  GX   03
SHR$_CREATED   = 00001070            SMO$K_INIPRI   = 0000004D            SYS$CREATE       ********  GX   03
SHR$_DELETED   = 00001200            SMO$K_JOBCOPY  = 00000023            SYS$CREMBX       ********   X   03
SHR$_DELINTERR = 00001240            SMO$K_JOBLIM   = 0000004C            SYS$DISCONNECT   ********  GX   03
SHR$_DELVER    = 00001208            SMO$K_JOBNAME  = 00000027            SYS$GETCHN       ********   X   03
SHR$_DIRTOOBUS = 00001220            SMO$K_JOBPRI   = 00000022            SYS$PUT          ********  GX   03
SHR$_ENDED     = 00001078            SMO$K_LOWER    = 00000025            SYS$QIOW         ********   X   03
SHR$_ENDEDD    = 00001080            SMO$K_NEXTJOB  = 00000060            SYS$SNDSMB       ********   X   03
SHR$_ENDEDT    = 00001088            SMO$K_NOBRSTPAG= 00000003            SYS_ACCNT        0000003F RG    03
SHR$_FILNOTDEL = 000011F0            SMO$K_NODEFBRST= 00000047            SYS_UNAME        00000031 R     03
MAIN            - INPUT SYMBIONT MAIN ROUTINE                    21-AUG-1978 21:38:59   VAX-11 MACRO X0.3-11               Page  14
SYMBOL TABLE                                                                                                                     (1)

UAF$B_FLAGS      0000008B
UAF$B_PRI        0000008A
UAF$C_LENGTH     000000B8
UAF$K_LENGTH     000000B8
UAF$L_CPUTIM     00000054
UAF$L_LEVEL      0000008C
UAF$L_PWD        0000000C
UAF$L_UIC        00000018
UAF$Q_PRIV       00000058
UAF$T_ACCOUNT    00000010
UAF$T_DEFCLI     0000004C
UAF$T_DEFDEV     0000003C
UAF$T_DEFDIR     0000001C
UAF$T_LGICMD     00000090
UAF$T_OWNER      00000074
UAF$T_USERNAME   00000000
UAF$V_DEFCLI   = 00000001
UAF$V_DISCTLY  = 00000000
UAF$W_ASTLM      00000070
UAF$W_BIOLM      00000060
UAF$W_BYTLM      00000062
UAF$W_DFWSCNT    0000006E
UAF$W_DIOLM      00000064
UAF$W_FILLM      00000066
UAF$W_FILPRT     00000088
UAF$W_GRP        0000001A
UAF$W_MEM        00000018
UAF$W_PGFLQUOTA  00000072
UAF$W_PRCCNT     0000006A
UAF$W_TQCNT      00000068
UAF$W_WSQUOTA    0000006C
UAFBUF_DESC      00000000 R     03
_$$_           = 000000EF


PROGRAM SECTION SYNOPSIS

.  ABS  .        00000000      00     NOPIC   USR   CON   ABS   LCL NOSHR NOEXE NORD  NOWRT BYTE
. BLANK .        00000000      01     NOPIC   USR   CON   REL   LCL NOSHR   EXE   RD    WRT BYTE
$ABS$            000001D1      02     NOPIC   USR   CON   ABS   LCL NOSHR   EXE   RD    WRT BYTE
INP_PURE         00000336      03     NOPIC   USR   CON   REL   LCL NOSHR   EXE   RD  NOWRT LONG
INP_RWDATA       0000055A      04     NOPIC   USR   CON   REL   LCL NOSHR NOEXE   RD    WRT LONG
$RMSNAM          00000009      05     NOPIC   USR   CON   REL   LCL NOSHR   EXE   RD    WRT BYTE


THERE WERE NO ERRORS OR WARNINGS.
606. BYTES LEFT IN FREE MEMORY POOL.
772. BYTES OF RECLAIMED MEMORY.
OBJ$:MAIN,LIS$:MAIN/-SP=SRC$:PREFIX,SRC$:MAIN
38 MLB DIR RDS - 1212 GETS TO DEFINE 49 MACROS. 94 INTER. FILE WRITES.
