KF0PARSE        KNOWN FILE PARSE                                 21-AUG-1978 21:13:01   VAX-11 MACRO X0.3-11               Page   0
TABLE OF CONTENTS

   (2)     100  DECLARATIONS
   (3)     100  KNOWN FILE SCANNER
   (5)     100  KFISCN - KERNEL MODE ROUTINE TO SCAN KNOWN FILE
KF0PARSE        KNOWN FILE PARSE                                 21-AUG-1978 21:13:01   VAX-11 MACRO X0.3-11               Page   1
013                                                                                                                              (1)

                                     0000   100 	$BEGIN	KF0PARSE,013,F$RMSOPEN0,<KNOWN FILE PARSE>
                                     0000   200 ;
                                     0000   300 ;			  COPYRIGHT (c) 1978 BY
                                     0000   400 ;	      DIGITAL EQUIPMENT CORPORATION, MAYNARD, MASS.
                                     0000   500 ;
                                     0000   600 ; THIS SOFTWARE IS FURNISHED UNDER A LICENSE AND MAY BE USED AND  COPIED
                                     0000   700 ; ONLY  IN  ACCORDANCE  WITH  THE  TERMS  OF  SUCH  LICENSE AND WITH THE
                                     0000   800 ; INCLUSION OF THE ABOVE COPYRIGHT NOTICE.  THIS SOFTWARE OR  ANY  OTHER
                                     0000   900 ; COPIES  THEREOF MAY NOT BE PROVIDED OR OTHERWISE MADE AVAILABLE TO ANY
                                     0000  1000 ; OTHER PERSON.  NO TITLE TO AND OWNERSHIP OF  THE  SOFTWARE  IS  HEREBY
                                     0000  1100 ; TRANSFERRED.
                                     0000  1200 ;
                                     0000  1300 ; THE INFORMATION IN THIS SOFTWARE IS SUBJECT TO CHANGE  WITHOUT  NOTICE
                                     0000  1400 ; AND  SHOULD  NOT  BE  CONSTRUED  AS  A COMMITMENT BY DIGITAL EQUIPMENT
                                     0000  1500 ; CORPORATION.
                                     0000  1600 ;
                                     0000  1700 ; DIGITAL ASSUMES NO RESPONSIBILITY FOR THE USE OR  RELIABILITY  OF  ITS
                                     0000  1800 ; SOFTWARE ON EQUIPMENT WHICH IS NOT SUPPLIED BY DIGITAL.
                                     0000  1900 ;
                                     0000  2000
                                     0000  2100 ;++
                                     0000  2200 ; FACILITY:
                                     0000  2300 ;
                                     0000  2400 ; ABSTRACT:
                                     0000  2500 ;
                                     0000  2600 ;
                                     0000  2700 ; ENVIRONMENT:
                                     0000  2800 ;	EXEC MODE RMS SUBROUTINE
                                     0000  2900 ;
                                     0000  3000 ; AUTHOR: PETER H. LIPMAN, CREATION DATE: 28-SEP-77
                                     0000  3100 ;
                                     0000  3200 ; MODIFIED BY:
                                     0000  3300 ;
                                     0000  3400 ;	L F LAVERDURE,   27-APR-78  21:54
                                     0000  3450 ;	P H LIPMAN,	15-JUN-78
                                     0000  3500 ; 01	-
                                     0000  3600 ;--
KF0PARSE        KNOWN FILE PARSE                                 21-AUG-1978 21:13:01   VAX-11 MACRO X0.3-11               Page   2
013             DECLARATIONS                                                                                                     (2)

                                     0000   100 	.SBTTL	DECLARATIONS
                                     0000   200 ;
                                     0000   300 ; INCLUDE FILES:
                                     0000   400 ;
                                     0000   500 	$CCBDEF				;CHANNEL CONTROL BLOCK DEFINITIONS
                                     0000   600 	$FABDEF				;FILE ACCESS BLOCK DEFINITIONS
                                     0000   700 	$FCBDEF				;FILE CONTROL BLOCK DEFINITIONS
                                     0000   800 	$FWADEF				;FILE WORK AREA DEFINITIONS
                                     0000   900 	$IFBDEF				;INTERNAL FAB DEFINITIONS
                                     0000  1000 	$KFIDEF				;KNOWN FILE ENTRY DEFINITIONS
                                     0000  1100 	$NAMDEF				;NAME BLOCK DEFINTIONS
                                     0000  1200 	$PCBDEF				;PROCESS CONTROL BLOCK DEFINITIONS
                                     0000  1300 	$RMSDEF				;RMS STATUS DEFINITIONS
                                     0000  1400 	$WCBDEF				;WINDOW CONTROL BLOCK DEFINITIONS
                                     0000  1500 ;
                                     0000  1600 ; MACROS:
                                     0000  1700 ;
                                     0000  1800 ;
                                     0000  1900 ; EQUATED SYMBOLS:
                                     0000  2000 ;
                                     0000  2100 	$OFFSET	0,POSITIVE,<-		;OFFSETS INTO SCRATCH AREA
                                     0000  2200 	ARGLIST,-			;CHANGE MODE TO KERNEL ARG LIST
                                     0000  2300 	FAB,-				;FILE ACCESS BLOCK ADDRESS
                                     0000  2400 	IFB,-				;INTERNAL FAB ADDRESS
                                     0000  2500 	CCB,-				;CHANNEL CONTROL BLOCK ADDRESS
                                     0000  2600 	DEV,-				;DEVICE NAME STRING ADDRESS
                                     0000  2700 	DIR,-				;DIRECTORY NAME STRING ADDRESS
                                     0000  2800 	NAM,-				;FILE NAME STRING ADDRESS (NO TYP OR VER)
                                     0000  2900 	TYP,-				;FILE TYPE STRING ADDRESS
                                     0000  2950 	ZRO,-				;ZERO ADDRESS STOPPER
                                     0000  3000 	STR-				;STRING STORAGE
                                     0000  3100 	>
                                     0000       ARGLIST:
                                     0004       FAB:
                                     0008       IFB:
                                     000C       CCB:
                                     0010       DEV:
                                     0014       DIR:
                                     0018       NAM:
                                     001C       TYP:
                                     0020       ZRO:
                                     0024       STR:
                                     0000  3200
                           00000008  0000  3300 	NARG=<STR-4>/4			;NUMBER OF ARGUMENTS
                                     0000  3400
                                     0000  3500 	$OFFSET 0,NEGATIVE,<-		;FP OFFSETS IN KERNEL MODE KFISCN ROUTINE
                                     0000  3600 		STATUS,-		;RETURN STATUS CODE
                                     0000  3700 		PCB,-			;PROCESS CONTROL BLOCK ADDRESS
                                     0000  3800 		KFIMTX-			;KNOWN FILE MUTEX ADDRESS
                                     0000  3900 		>
                                     FFFC       STATUS:
                                     FFF8       PCB:
                                     FFF4       KFIMTX:
                                     0000  4000 ;
                                     0000  4100 ; OWN STORAGE:
                                     0000  4200 ;
                                     0000  4300
KF0PARSE        KNOWN FILE PARSE                                 21-AUG-1978 21:13:01   VAX-11 MACRO X0.3-11               Page   3
013             KNOWN FILE SCANNER                                                                                               (3)

                                     0000   100 	.SBTTL	KNOWN FILE SCANNER
                                     0000   200 ;++
                                     0000   300 ; FUNCTIONAL DESCRIPTION:
                                     0000   400 ;
                                     0000   500 ;
                                     0000   600 ; CALLING SEQUENCE:
                                     0000   700 ;
                                     0000   800 ;	JSB	RM$KNOWNFILE
                                     0000   900 ;
                                     0000  1000 ; INPUT PARAMETERS:
                                     0000  1100 ;
                                     0000  1200 ;	R8  = FAB ADDRESS
                                     0000  1300 ;	R9  = IFAB ADDRESS
                                     0000  1400 ;	IFB$W_CHNL(R9) = CHANNEL ASSIGNED TO THE DEVICE
                                     0000  1500 ;	R10 = FILE WORK AREA ADDRESS (FWA)
                                     0000  1600 ;
                                     0000  1700 ; IMPLICIT INPUTS:
                                     0000  1800 ;
                                     0000  1900 ;	NONE
                                     0000  2000 ;
                                     0000  2100 ; OUTPUT PARAMETERS:
                                     0000  2200 ;
                                     0000  2300 ;	R0 = STATUS CODE
                                     0000  2400 ;	R1-R7 ALTERED
                                     0000  2500 ;	FAB$L_CTX(R8) = KNOWN FILE ENTRY ADDRESS IF FOUND
                                     0000  2600 ;
                                     0000  2700 ; IMPLICIT OUTPUTS:
                                     0000  2800 ;
                                     0000  2900 ;	NONE
                                     0000  3000 ;
                                     0000  3100 ; COMPLETION CODES:
                                     0000  3200 ;
                                     0000  3300 ;	SS$_NORMAL IF RMS SHOULD CONTINUE WITH THE FILE OPEN
                                     0000  3400 ;	RM$_KFF - KNOWN FILE FOUND, INDICATES TO RMS THAT IT SHOULD
                                     0000  3500 ;		NOT PROCEED WITH THE OPEN. (THIS IS A SUCCESS CODE)
                                     0000  3600 ;
                                     0000  3700 ; SIDE EFFECTS:
                                     0000  3800 ;
                                     0000  3900 ;	NONE
                                     0000  4000 ;
                                     0000  4100 ;--
KF0PARSE        KNOWN FILE PARSE                                 21-AUG-1978 21:13:01   VAX-11 MACRO X0.3-11               Page   4
013             KNOWN FILE SCANNER                                                                                               (4)

                                     0000   100 EXPLICIT_VER:
            50            00'    3C  0000   200 	MOVZWL	S^#SS$_NORMAL,R0
                                 05  0003   300 	RSB
                                     0004   400 RM$KNOWNFILE::
                          10     E0  0004   500 	BBS	#FWA$V_EXP_VER,FWA$Q_FLAGS(R10),- ;EXPLICIT VERS NOT KNOWN FILE
            F8            6A         0006   600 		EXPLICIT_VER
            57       0164 CA     9E  0008   700 	MOVAB	FWA$T_XLTBUFF1(R10),R7	;ADDRESS OF SCRATCH AREA
         04 A7            58     7D  000D   800 	MOVQ	R8,FAB(R7)		;PUT FAB AND IFB ADDRESSES IN ARG LIST
            67            08     D0  0011   900 	MOVL	#NARG,ARGLIST(R7)	;NUMBER OF ARGUMENTS IN ARG LIST
                                     0014  1000 ;
                                     0014  1100 ; GET CCB ADDRESS AND DEVICE NAME FROM THE CHANNEL
                                     0014  1200 ;
            53         24 A7     9E  0014  1300 	MOVAB	STR(R7),R3		;ADDRESS TO STORE DEVICE STRING
         10 A7            53     D0  0018  1400 	MOVL	R3,DEV(R7)		;SET ADDRESS OF DEVICE STRING
                          FFE1'  30  001C  1500 	BSBW	RM$GETDEVNAM		;GET DEVICE NAME STRING
                                     001F  1600 					;R1=CCB ADDRESS, R4=BINARY UNIT #
         0C A7            51     D0  001F  1700 	MOVL	R1,CCB(R7)		;SAVE CCB ADDRESS
            52         10 A7     D0  0023  1800 	MOVL	DEV(R7),R2		;ADDRESS OF DEVICE STRING BYTE COUNT
                          FFD6'  30  0027  1900 	BSBW	RM$GETDEVUNI		;GET DEVICE UNIT IN ASCII
                                     002A  2000 					;APPENDED TO STRING, COUNT BYTE UPDATED
         14 A7            53     D0  002A  2200 	MOVL	R3,DIR(R7)		;POINTER TO DIRECTORY STRING
            56         44 AA     9E  002E  2300 	MOVAB	FWA$Q_DIR1(R10),R6	;ADDRESS OF DIRECTORY DESCRIPTORS
            6A            1B     E1  0032  2400 	BBC	#FWA$V_GRPMBR,FWA$Q_FLAGS(R10),20$ ;BRANCH IF NOT GRP,MBR FORMAT
                          0B         0035
            83            06     90  0036  2500 	MOVB	#6,(R3)+		;SIZE OF GRP, MBR FORMAT STRING
                          FFC4'  30  0039  2600 	BSBW	RM$PREFIX_0		;FORM THE NAME FROM ITS PIECES
                          FFC1'  30  003C  2700 	BSBW	RM$PREFIX_0
                          20     11  003F  2800 	BRB	80$
                                     0041  2900 ;
                                     0041  3000 ; MOVE DIRECTORY NAME(S) TO DIRECTORY STRING
                                     0041  3100 ;
                          1D     EF  0041  3200 20$:	EXTZV	#FWA$V_DIR_LVLS,#FWA$S_DIR_LVLS,- ;# OF DIRECTORY LEVELS - 1
            6A            03         0043  3300 	FWA$Q_FLAGS(R10),-(SP)
                          7E         0045
            50            86     D0  0046  3400 40$:	MOVL	(R6)+,R0		;SIZE OF STRING
            83            2E     90  0049  3500 	MOVB	#^A/./,(R3)+		;PERIODS SEPARATE THE NAMES
            96            50     28  004C  3600 	MOVC3	R0,@(R6)+,(R3)		;MOVE THE DIR STRING
                          63         004F
            F3            6E     F4  0050  3700 	SOBGEQ	(SP),40$		;REPEAT FOR EACH DIRECTORY DESCRIPTOR
                          01     BA  0053  3800 	POPR	#^M<R0>			;CLEAN OFF THE EXHAUSTED COUNT
         14 A7            01     C1  0055  3900 	ADDL3	#1,DIR(R7),R0		;ADDRESS OF FIRST CHARACTER
                          50         0059
            53            50     C3  005A  4000 	SUBL3	R0,R3,R1		;SIZE OF DIRECTORY STRING
                          51         005D
            70            51     90  005E  4100 	MOVB	R1,-(R0)		;STORE THE SIZE (OVER LEADING ".")
                                     0061  4200 ;
                                     0061  4300 ; NOW MOVE THE NAM AND TYP STRINGS INTO THE SCRATCH AREA
                                     0061  4400 ;
         18 A7            53     D0  0061  4500 80$:	MOVL	R3,NAM(R7)		;ADDRESS OF COUNTED NAM STRING
            56       0088 CA     9E  0065  4600 	MOVAB	FWA$Q_NAME+4(R10),R6	;ADDRESS OF NAM STRING IN WORK AREA
            50         18 AA     3C  006A  4700 	MOVZWL	FWA$W_FNAMSIZ(R10),R0	;SIZE OF NAM STRING
            83            50     90  006E  4800 	MOVB	R0,(R3)+		;STORE THE SIZE
            96            50     28  0071  4900 	MOVC3	R0,@(R6)+,(R3)		;AND THE STRING
                          63         0074
         1C A7            53     D0  0075  5000 	MOVL	R3,TYP(R7)		;SET ADDRESS OF COUNTED TYP STRING
            50            86     D0  0079  5100 	MOVL	(R6)+,R0		;SIZE OF TYP STRING IN WORK AREA
            83            50     90  007C  5200 	MOVB	R0,(R3)+		;STORE THE SIZE
KF0PARSE        KNOWN FILE PARSE                                 21-AUG-1978 21:13:01   VAX-11 MACRO X0.3-11               Page   5
013             KNOWN FILE SCANNER                                                                                               (4)

            96            50     28  007F  5300 	MOVC3	R0,@(R6)+,(R3)		;AND THE STRING
                          63         0082
                       20 A7     D4  0083  5350 	CLRL	ZRO(R7)			;SET ZERO STOPPER FOR VECTOR OF STRING ADRS
                                     0086  5400 	$CMKRNL_S B^KFISCN,ARGLIST(R7)	;SCAN THE KNOWN FILE TABLE
                                 05  0092  5500 100$:	RSB
KF0PARSE        KNOWN FILE PARSE                                 21-AUG-1978 21:13:01   VAX-11 MACRO X0.3-11               Page   6
013             KFISCN - KERNEL MODE ROUTINE TO SCAN KNOWN FILE                                                                  (5)

                                     0093   100 	.SBTTL	KFISCN - KERNEL MODE ROUTINE TO SCAN KNOWN FILE TABLE
                                     0093   200 ;
                                     0093   300 ; CALLING SEQUENCE:
                                     0093   400 ;
                                     0093   500 ;	CALLG	ARGLIST,KFISCN
                                     0093   600 ;
                                     0093   700 ;
                                     0093   800 ; INPUT PARAMETERS:
                                     0093   900 ;
                                     0093  1000 ;	FAB (AP) = FILE ACCESS BLOCK ADDRESS
                                     0093  1100 ;	IFB (AP) = INTERNAL FILE ACCESS BLOCK ADDRESS
                                     0093  1200 ;	CCB (AP) = CHANNEL CONTROL BLOCK ADDRESS
                                     0093  1300 ;	DEV (AP) = ADDRESS OF COUNTED ASCII DEVICE NAME (ACTUALLY UCB ADDRESS)
                                     0093  1400 ;	DIR (AP) = ADDRESS OF COUNTED ASCII DIRECTORY STRING
                                     0093  1500 ;	NAM (AP) = ADDRESS OF COUNTED ASCII FILE NAME STRING
                                     0093  1600 ;	TYP (AP) = ADDRESS OF COUNTED ASCII FILE TYPE STRING
                                     0093  1700 ;	      R4 = CURRENT PCB ADDRESS (PROVIDED BY CHANGE MODE DISPATCHER)
                                     0093  1800 ;
                                     0093  1900 ; OUTPUT PARAMETERS:
                                     0093  2000 ;
                                     0093  2100 ;	R0 = STATUS CODE
                                     0093  2200 ;	FAB$L_CTX(R8) = KNOWN FILE ENTRY ADDRESS IF FOUND
                                     0093  2300 ;	IF USING FILE ID, FILE ID SET IN NAME BLOCK, AND
                                     0093  2400 ;		NAM SET IN FOP
                                     0093  2500 ;
                                     0093  2600 KFISCN:
                               07FC  0093  2700 	.WORD	^M<R2,R3,R4,R5,R6,R7,R8,R9,R10>
            50   00000000'GF     DE  0095  2800 	MOVAL	G^EXE$GL_KFIMTX,R0	;ADDRESS OF KNOWN FILE MUTEX
                          00'    DD  009C  2900 	PUSHL	S^#SS$_NORMAL		;SAVE SUCCESS STATUS RETURN
                          11     BB  009E  3000 	PUSHR	#^M<R0,R4>		;AND PARAMETERS TO SCH$UNLOCK
                 00000000'GF     16  00A0  3100 	JSB	G^SCH$LOCKR		;GET THE MUTEX FOR READING, NO WRITERS
                                     00A6  3200 ;
                                     00A6  3300 ; RETURNS WITH IPL = ASTDEL
                                     00A6  3400 ;
            58         10 AC     9E  00A6  3500 	MOVAB	DEV(AP),R8		;ADR OF LIST OF ADDRESSES OF COUNTED STRINGS
                          FF53'  30  00AA  3600 	BSBW	RM$KFISCN		;FIND THE KNOWN FILE ENTRY IF ANY
                          57     D5  00AD  3700 	TSTL	R7			;FOUND A KNOWN FILE ENTRY?
                          30     13  00AF  3800 	BEQL	UNLOCK			;BRANCH IF NOT
            58         04 AC     D0  00B1  7500 	MOVL	FAB(AP),R8		;GET FAB ADDRESS
                          00     EF  00B5  7900 	EXTZV	#KFI$V_KFISEQ,#KFI$S_KFISEQ,-
         13 A7            02         00B7  7950 		KFI$B_KFISEQ(R7),R0	;GET KNOWN FILE ENTRY SEQ NO.
                          50         00BA
            57            50     C9  00BB  8000 	BISL3	R0,R7,FAB$L_CTX(R8)	;STORE KFI ENTRY ADR AND SEQ NO.
                       18 A8         00BE
                       18 A7     D6  00C0  8100 	INCL	KFI$L_USECNT(R7)	;KEEP UTILIZATION STATISTICS
                          02     E0  00C3  8200 	BBS	#KFI$V_DONOTOPEN,KFI$B_KFICTL(R7),-
            24         0B A7         00C5  8300 		DO_NOT_OPEN		;BRANCH IF NOT OPENING FILE
                          01     E1  00C8  8400 	BBC	#KFI$V_FILIDOPEN,KFI$B_KFICTL(R7),-
            14         0B A7         00CA  8500 		UNLOCK			;BRANCH IF NOT OPENING BY FILE ID
            50         28 A8     D0  00CD  8600 	MOVL	FAB$L_NAM(R8),R0	;NAME BLOCK ADDRESS
                          0E     13  00D1  8700 	BEQL	UNLOCK			;BRANCH IF NONE SPECIFIED
         24 A0         1C A7     D0  00D3  8800 	MOVL	KFI$W_FID(R7),NAM$W_FID(R0) ;USE FILE ID IF AVAILABLE
         28 A0         20 A7     B0  00D8  8900 	MOVW	KFI$W_FID_RVN(R7),NAM$W_FID_RVN(R0) ;3RD WORD OF FILE ID
            68            38     E3  00DD  9000 	BBCS	#FAB$V_NAM+<FAB$L_FOP*8>,(R8),UNLOCK ;FORCE OPEN BY NAME BLOCK
                          00         00E0
                                     00E1 10600 UNLOCK:
                          11     BA  00E1 10700 	POPR	#^M<R0,R4>		;RECOVER MUTEX AND PCB ADDRESSES
KF0PARSE        KNOWN FILE PARSE                                 21-AUG-1978 21:13:01   VAX-11 MACRO X0.3-11               Page   7
013             KFISCN - KERNEL MODE ROUTINE TO SCAN KNOWN FILE                                                                  (5)

                 00000000'GF     16  00E3 10800 	JSB	G^SCH$UNLOCK		;RELEASE THE MUTEX
                          01     BA  00E9 10900 	POPR	#^M<R0>			;GET STATUS CODE
                                 04  00EB 11000 	RET				;AND RETURN
                                     00EC 11100 ;
                                     00EC 11200 ; DO NOT OPEN THIS FILE
                                     00EC 11300 ;
                                     00EC 11400 DO_NOT_OPEN:
            54         F8 AD     D0  00EC 11500 	MOVL	PCB(FP),R4		;PROCESS CONTROL BLOCK ADDRESS
                       48 A4     B5  00F0 11600 	TSTW	PCB$W_FILCNT(R4)	;FILE QUOTA EXHAUSTED?
                          4D     13  00F3 11700 	BEQL	40$			;BRANCH IF YES
            51         0C AC     D0  00F5 11800 	MOVL	CCB(AP),R1		;CHANNEL CONTROL BLOCK ADDRESS
            52         1C A7     D0  00F9 11900 	MOVL	KFI$L_WINDOW(R7),R2	;GET WINDOW ADDRESS FROM KNOWN FILE ENTRY
         16 A8            1D     93  00FD 12000 	BITB	#<FAB$M_PUT ! FAB$M_UPD !- ;IF FILE IS SUPPOSED TO BE
                                     0101 12100 		FAB$M_DEL ! FAB$M_TRN>,FAB$B_FAC(R8) ;OPENED FOR WRITING
                          05     13  0101 12200 	BEQL	10$
         0B A2            01     E1  0103 12300 	BBC	#WCB$V_WRITE,WCB$B_ACCESS(R2),60$ ;FILE MUST BE ACCESSED FOR WRITE
                          42         0107
         04 A1            52     D0  0108 12400 10$:	MOVL	R2,CCB$L_WIND(R1)	;STORE WINDOW IN CHANNEL
                       48 A4     B7  010C 12500 	DECW	PCB$W_FILCNT(R4)	;CHARGE THE USER FOR ANOTHER OPEN FILE
                       0E A2     B6  010F 12600 	INCW	WCB$W_REFCNT(R2)	;AND COUNT ANOTHER SHARER OF THE WINDOW
                                     0112 12700
                                     0112 12800 	ASSUME	FAB$V_CTG GE 16
                                     0112 12900 	ASSUME	FAB$V_CTG LT 24
         06 A8            10     88  0112 13000 	BISB	#FAB$M_CTG@-16,FAB$L_FOP+2(R8) ;ASSUME FILE IS CONTIGUOUS
            50         18 A2     D0  0116 13100 	MOVL	WCB$L_FCB(R2),R0	;GET FILE CONTROL BLOCK ADDRESS
                          1C     13  011A 13200 	BEQL	20$			;BRANCH IF NOT AN FCP WINDOW
                       2C A0     D5  011C 13300 	TSTL	FCB$L_STLBN(R0)		;IS FILE CONTIGUOUS?
                          04     12  011F 13400 	BNEQ	15$			;BRANCH IF IT IS
         06 A8            10     8A  0121 13500 	BICB	#FAB$M_CTG@-16,FAB$L_FOP+2(R8) ;NO, CLEAR CONTIG BIT
            51         08 AC     D0  0125 13600 15$:	MOVL	IFB(AP),R1		;INTERNAL FAB ADDRESS
         40 A1         34 A0     D0  0129 13700 	MOVL	FCB$L_FILESIZE(R0),IFB$L_HBK(R1) ;SET HIGH BLOCK, ALQ WILL GET SET
         1E A0            01     E1  012E 13800 	BBC	#FCB$V_MARKDEL,FCB$W_STATUS(R0),20$ ;IS MARKED FOR DELETE
                          05         0132
         0B A7            07     E6  0133 13900 	BBSSI	#KFI$V_MARKDEL,KFI$B_KFICTL(R7),20$ ;INDICATE THAT IT IS
                          00         0137
                                     0138 14000 					;MARKED FOR DELETE IN KFI ENTRY
         FC AD   00018031 8F     D0  0138 14100 20$:	MOVL	#RMS$_KFF,STATUS(FP)	;SET RETURN STATUS
                          9F     11  0140 14200 	BRB	UNLOCK
         FC AD       0000'8F     3C  0142 14300 40$:	MOVZWL	#SS$_EXQUOTA,STATUS(FP)
                          97     11  0148 14400 	BRB	UNLOCK
         FC AD       0000'8F     3C  014A 14500 60$:	MOVZWL	#SS$_NOPRIV,STATUS(FP)	;NO PRIVILEGE FOR THIS OPERATION
                          8F     11  0150 14600 	BRB	UNLOCK
                                     0152 14700
                                     0152 14800
                                     0152 14900 	.END
KF0PARSE        KNOWN FILE PARSE                                 21-AUG-1978 21:13:01   VAX-11 MACRO X0.3-11               Page   8
SYMBOL TABLE                                                                                                                     (5)

$$.PSECT_EP    = 00000000            FAB$L_SDC        00000044            FAB$V_BIO      = 00000005
$$RMSTEST      = 0000001A            FAB$L_STS        00000008            FAB$V_BLK      = 00000003
$$RMS_PBUGCHK  = 00000010            FAB$L_STV        0000000C            FAB$V_BRO      = 00000006
$$RMS_TBUGCHK  = 00000008            FAB$L_XAB        00000024            FAB$V_CBT      = 00000015
$$RMS_UMODE    = 00000004            FAB$M_BIO      = 00000020            FAB$V_CIF      = 00000019
ARGLIST          00000000            FAB$M_BLK      = 00000008            FAB$V_CR       = 00000001
BIT...         = 0000000C            FAB$M_BRO      = 00000040            FAB$V_CTG      = 00000014
CCB              0000000C            FAB$M_CBT      = 00200000            FAB$V_DEL      = 00000002
CCB$B_AMOD       00000009            FAB$M_CIF      = 02000000            FAB$V_DFW      = 00000005
CCB$B_STS        00000008            FAB$M_CR       = 00000002            FAB$V_DLT      = 0000000F
CCB$C_LENGTH     00000010            FAB$M_CTG      = 00100000            FAB$V_DMO      = 0000000C
CCB$K_LENGTH     00000010            FAB$M_DEL      = 00000004            FAB$V_ESC      = 0000001B
CCB$L_DIRP       0000000C            FAB$M_DFW      = 00000020            FAB$V_EXE      = 00000007
CCB$L_UCB        00000000            FAB$M_DLT      = 00008000            FAB$V_FTN      = 00000000
CCB$L_WIND       00000004            FAB$M_DMO      = 00001000            FAB$V_GET      = 00000001
CCB$W_IOC        0000000A            FAB$M_ESC      = 08000000            FAB$V_INP      = 00000013
DEV              00000010            FAB$M_EXE      = 00000080            FAB$V_JNL      = 00000016
DIR              00000014            FAB$M_FTN      = 00000001            FAB$V_KFO      = 0000001E
DIR...         = FFFFFFFF            FAB$M_GET      = 00000002            FAB$V_MSE      = 00000004
DO_NOT_OPEN      000000EC R     02   FAB$M_INP      = 00080000            FAB$V_MXV      = 00000001
EXE$GL_KFIMTX    ********   X   02   FAB$M_JNL      = 00400000            FAB$V_NAM      = 00000018
EXPLICIT_VER     00000000 R     02   FAB$M_KFO      = 40000000            FAB$V_NEF      = 0000000A
FAB              00000004            FAB$M_MSE      = 00000010            FAB$V_NFS      = 00000010
FAB$B_BID        00000000            FAB$M_MXV      = 00000002            FAB$V_NIL      = 00000005
FAB$B_BKS        0000003E            FAB$M_NAM      = 01000000            FAB$V_OFP      = 0000001D
FAB$B_BLN        00000001            FAB$M_NEF      = 00000400            FAB$V_ORG      = 00000004
FAB$B_DNS        00000035            FAB$M_NFS      = 00010000            FAB$V_POS      = 00000008
FAB$B_FAC        00000016            FAB$M_NIL      = 00000020            FAB$V_PPF      = 00000012
FAB$B_FNS        00000034            FAB$M_OFP      = 20000000            FAB$V_PPF_IND  = 0000000E
FAB$B_FSZ        0000003F            FAB$M_POS      = 00000100            FAB$V_PPF_RAT  = 00000006
FAB$B_ORG        0000001D            FAB$M_PPF      = 00040000            FAB$V_PRN      = 00000002
FAB$B_RAT        0000001E            FAB$M_PPF_IND  = 00004000            FAB$V_PUT      = 00000000
FAB$B_RFM        0000001F            FAB$M_PPF_RAT  = 00003FC0            FAB$V_RCK      = 00000017
FAB$B_RTV        0000001C            FAB$M_PRN      = 00000004            FAB$V_RWC      = 0000000B
FAB$B_SHR        00000017            FAB$M_PUT      = 00000001            FAB$V_RWO      = 00000007
FAB$C_BID      = 00000003            FAB$M_RCK      = 00800000            FAB$V_SCF      = 0000000E
FAB$C_BLN        00000050            FAB$M_RWC      = 00000800            FAB$V_SHRDEL   = 00000002
FAB$C_FIX      = 00000001            FAB$M_RWO      = 00000080            FAB$V_SHRGET   = 00000001
FAB$C_HSH      = 00000030            FAB$M_SCF      = 00004000            FAB$V_SHRPUT   = 00000000
FAB$C_IDX      = 00000020            FAB$M_SHRDEL   = 00000004            FAB$V_SHRUPD   = 00000003
FAB$C_MAXRFM   = 00000003            FAB$M_SHRGET   = 00000002            FAB$V_SPL      = 0000000D
FAB$C_REL      = 00000010            FAB$M_SHRPUT   = 00000001            FAB$V_SQO      = 00000006
FAB$C_RFM_DFLT = 00000002            FAB$M_SHRUPD   = 00000008            FAB$V_SUP      = 00000002
FAB$C_SEQ      = 00000000            FAB$M_SPL      = 00002000            FAB$V_TEF      = 0000001C
FAB$C_UDF      = 00000000            FAB$M_SQO      = 00000040            FAB$V_TMD      = 00000004
FAB$C_VAR      = 00000002            FAB$M_SUP      = 00000004            FAB$V_TMP      = 00000003
FAB$C_VFC      = 00000003            FAB$M_TEF      = 10000000            FAB$V_TRN      = 00000004
FAB$K_BLN        00000050            FAB$M_TMD      = 00000010            FAB$V_UFM      = 0000001A
FAB$L_ALQ        00000010            FAB$M_TMP      = 00000008            FAB$V_UFO      = 00000011
FAB$L_CTX        00000018            FAB$M_TRN      = 00000010            FAB$V_UPD      = 00000003
FAB$L_DEV        00000040            FAB$M_UFM      = 04000000            FAB$V_UPI      = 00000006
FAB$L_DNA        00000030            FAB$M_UFO      = 00020000            FAB$V_WCK      = 00000009
FAB$L_FNA        0000002C            FAB$M_UPD      = 00000008            FAB$W_BLS        0000003C
FAB$L_FOP        00000004            FAB$M_UPI      = 00000040            FAB$W_DEQ        00000014
FAB$L_JNL        00000020            FAB$M_WCK      = 00000200            FAB$W_IFI        00000002
FAB$L_MRN        00000038            FAB$S_ORG      = 00000004            FAB$W_MRS        00000036
FAB$L_NAM        00000028            FAB$S_PPF_RAT  = 00000008            FCB$B_DIRIDX     00000048
KF0PARSE        KNOWN FILE PARSE                                 21-AUG-1978 21:13:01   VAX-11 MACRO X0.3-11               Page   9
SYMBOL TABLE                                                                                                                     (5)

FCB$B_FID_NMX    00000025            FWA$C_MAXNAME  = 00000009            FWA$T_DIR1BUF    000000D0
FCB$B_FID_RVN    00000024            FWA$C_MAXNODE  = 00000028            FWA$T_DIR2BUF    000000D9
FCB$B_TYPE       0000000A            FWA$C_MAXQUOTED= 0000007F            FWA$T_FIBBUF     000000A4
FCB$C_LENGTH     00000048            FWA$C_MAXSUBDIR= 00000007            FWA$T_NAMEBUF    00000118
FCB$K_LENGTH     00000048            FWA$C_MAXTYPE  = 00000003            FWA$T_NODEBUF    0000012C
FCB$L_EFBLK      00000040            FWA$C_MAXVER   = 00000006            FWA$T_TYPEBUF    00000122
FCB$L_EXFCB      0000000C            FWA$C_NAMBUFSIZ= 0000000A            FWA$T_VERBUF     00000126
FCB$L_FCBBL      00000004            FWA$C_NODBUFSIZ= 00000028            FWA$T_XLTBUFF1   00000164
FCB$L_FCBFL      00000000            FWA$C_RNSBUFSIZ= 00000014            FWA$T_XLTBUFF2   000001A4
FCB$L_FILEOWNER  00000038            FWA$C_TYPBUFSIZ= 00000004            FWA$V_CUR_VER  = 00000006
FCB$L_FILESIZE   00000034            FWA$C_VERBUFSIZ= 00000006            FWA$V_DEVICE   = 0000000F
FCB$L_HDLBN      00000030            FWA$C_XLTBUFSIZ= 0000003F            FWA$V_DIR      = 0000000E
FCB$L_STLBN      0000002C            FWA$L_BUFFLG     00000014            FWA$V_DIR1     = 00000020
FCB$L_STVBN      00000028            FWA$L_DEVNODADR  00000020            FWA$V_DIR2     = 00000021
FCB$L_WLBL       00000014            FWA$L_ESCSTRING  00000008            FWA$V_DIR_LVLS = 0000001D
FCB$L_WLFL       00000010            FWA$L_HBK        00000098            FWA$V_DUPOK    = 00000000
FCB$V_BADBLK   = 00000002            FWA$L_LOOKUP     0000001C            FWA$V_EXP_DEV  = 00000017
FCB$V_DIR      = 00000000            FWA$L_SBN        00000094            FWA$V_EXP_DIR  = 00000016
FCB$V_EXCL     = 00000003            FWA$L_UIC        0000001C            FWA$V_EXP_NAME = 00000012
FCB$V_MARKDEL  = 00000001            FWA$L_XLTCNT     0000002C            FWA$V_EXP_TYPE = 00000011
FCB$V_SPOOL    = 00000004            FWA$L_XLTSIZ     00000018            FWA$V_EXP_VER  = 00000010
FCB$W_ACNT       00000018            FWA$M_DEVICE   = 00008000            FWA$V_FNA_PASS = 00000004
FCB$W_AMOD       0000003E            FWA$M_DIR      = 00004000            FWA$V_GRPMBR   = 0000001B
FCB$W_DIRSEQ     00000044            FWA$M_DUPOK    = 00000001            FWA$V_LOGNAME  = 00000030
FCB$W_FID        00000020            FWA$M_EXP_DEV  = 00800000            FWA$V_NAME     = 0000000D
FCB$W_FID_NUM    00000020            FWA$M_EXP_DIR  = 00400000            FWA$V_NAMEFLG  = 00000001
FCB$W_FID_RVN    00000024            FWA$M_EXP_NAME = 00040000            FWA$V_NAM_DVI  = 00000005
FCB$W_FID_SEQ    00000022            FWA$M_EXP_TYPE = 00020000            FWA$V_NETSTR   = 00000032
FCB$W_FILEPROT   0000003C            FWA$M_EXP_VER  = 00010000            FWA$V_NODE     = 00000019
FCB$W_LCNT       0000001A            FWA$M_FNA_PASS = 00000010            FWA$V_OBJTYPE  = 00000031
FCB$W_SEGN       00000026            FWA$M_NAME     = 00002000            FWA$V_QUOTED   = 0000001A
FCB$W_SIZE       00000008            FWA$M_NAMEFLG  = 00000002            FWA$V_RLF_PASS = 00000003
FCB$W_STATUS     0000001E            FWA$M_NAM_DVI  = 00000020            FWA$V_TYPE     = 0000000C
FCB$W_TCNT       00000046            FWA$M_RLF_PASS = 00000008            FWA$V_TYPEFLG  = 00000002
FCB$W_UICGROUP   0000003A            FWA$M_TYPE     = 00001000            FWA$V_VERSION  = 0000000B
FCB$W_UICMEMBER  00000038            FWA$M_TYPEFLG  = 00000004            FWA$V_WC_NAME  = 00000015
FCB$W_WCNT       0000001C            FWA$M_VERSION  = 00000800            FWA$V_WC_TYPE  = 00000014
FWA$B_DIRFLGS    00000004            FWA$Q_DEVICE     0000003C            FWA$V_WC_VER   = 00000013
FWA$B_DIRLEN     00000030            FWA$Q_DIR        00000024            FWA$V_WILDCARD = 00000018
FWA$B_DIRTERM    00000007            FWA$Q_DIR1       00000044            FWA$V_WILD_DIR = 0000001C
FWA$B_DIRWCFLGS  00000005            FWA$Q_DIR2       0000004C            FWA$V_WILD_GRP = 00000028
FWA$B_ESCFLG     00000008            FWA$Q_FIB        0000000C            FWA$V_WILD_MBR = 00000029
FWA$B_ESCTYP     00000009            FWA$Q_FLAGS      00000000            FWA$V_WILD_SFD1= 00000029
FWA$B_FLDFLGS    00000001            FWA$Q_LOGNAME    0000001C            FWA$V_WILD_UFD = 00000028
FWA$B_LNFLG      00000006            FWA$Q_NAME       00000084            FWA$W_ESCIFI     0000000A
FWA$B_PARSEFLGS  00000003            FWA$Q_NODE       00000034            FWA$W_FNAMSIZ    00000018
FWA$B_PASSFLGS   00000000            FWA$Q_QUOTED     0000009C            FWA$W_PRO        00000020
FWA$B_UNDERLINE  00000154            FWA$Q_RNS        0000008C            FWA$W_UCHAR      0000002C
FWA$B_WILDFLGS   00000002            FWA$Q_STATBLK    00000094            GBL...         = 00000000
FWA$B_XLTMODE    0000000A            FWA$Q_TYPE       0000008C            IFB              00000008
FWA$B_XLTTBL     0000000B            FWA$Q_VERSION    00000094            IFB$B_AMAX       00000059
FWA$C_ALL      = 000000F8            FWA$Q_XLTBUF1    0000000C            IFB$B_AVBN       00000058
FWA$C_DEVBUFSIZ= 0000000F            FWA$Q_XLTBUF2    00000024            IFB$B_BID        00000008
FWA$C_DIRBUFSIZ= 00000009            FWA$S_DIR_LVLS = 00000003            IFB$B_BKS        0000004A
FWA$C_FIBLEN   = 0000002C            FWA$T_ATR_LIST   00000164            IFB$B_BLN        00000009
FWA$C_MAXDEVICE= 0000000F            FWA$T_DEVICEBUF  00000155            IFB$B_EFN        0000000B
FWA$C_MAXDIRLEN= 0000003C            FWA$T_DIB        00000174            IFB$B_EXTRABUF   0000005D
KF0PARSE        KNOWN FILE PARSE                                 21-AUG-1978 21:13:01   VAX-11 MACRO X0.3-11               Page  10
SYMBOL TABLE                                                                                                                     (5)

IFB$B_FAC        00000022            IFB$S_ORG      = 00000004            KFI$B_KFISEQ     00000013
IFB$B_FSZ        0000004B            IFB$S_RFM      = 00000004            KFI$B_MATCHCTL   0000002C
IFB$B_KBUFSZ     0000005C            IFB$V_ACCESSED = 00000025            KFI$B_TYPE       0000000A
IFB$B_MODE       0000000A            IFB$V_ANSI_D   = 00000026            KFI$B_TYPNAM     0000000F
IFB$B_NUM_KEYS   0000005A            IFB$V_ASYNC    = 00000023            KFI$C_KFIHDLEN   00000014
IFB$B_ORGCASE    00000023            IFB$V_ASYNCWAIT= 00000024            KFI$C_LENGTH     00000034
IFB$B_RAT        0000003D            IFB$V_BIO      = 00000005            KFI$K_KFIHDLEN   00000014
IFB$B_RFMORG     0000003C            IFB$V_BRO      = 00000006            KFI$K_LENGTH     00000034
IFB$B_UBUFSZ     0000005B            IFB$V_BUSY     = 00000020            KFI$L_IDENT      00000030
IFB$C_BID      = 0000000B            IFB$V_CREATE   = 00000032            KFI$L_IMGHDR     00000020
IFB$C_BLN        00000060            IFB$V_DAP      = 0000003E            KFI$L_KFIQBL     00000004
IFB$C_BLN_IDX    00000060            IFB$V_DAP_OPEN = 0000003D            KFI$L_KFIQFL     00000000
IFB$C_BLN_REL    00000060            IFB$V_DEL      = 00000002            KFI$L_USECNT     00000018
IFB$C_BLN_SEQ    0000005C            IFB$V_DFW      = 0000002C            KFI$L_WINDOW     0000001C
IFB$C_DIR      = 00000003            IFB$V_DLT      = 0000002B            KFI$M_COMPATMOD= 00008000
IFB$C_FHAEND     00000050            IFB$V_DMO      = 00000028            KFI$M_DONOTOPEN= 00000004
IFB$C_IDX      = 00000002            IFB$V_EOF      = 00000021            KFI$M_FILIDOPEN= 00000002
IFB$C_MAXORG   = 00000002            IFB$V_EXE      = 00000007            KFI$M_IS_RESHDR= 00000100
IFB$C_REL      = 00000001            IFB$V_GET      = 00000001            KFI$M_IS_SHARED= 00000200
IFB$C_SEQ      = 00000000            IFB$V_MSE      = 00000031            KFI$M_KFIHD    = 00000001
IFB$K_BLN        00000060            IFB$V_NORECLK  = 00000033            KFI$M_KFISEQ   = 00000003
IFB$K_BLN_IDX    00000060            IFB$V_NSP      = 0000003F            KFI$M_KP_OPEN  = 00000001
IFB$K_BLN_REL    00000060            IFB$V_NWA      = 0000003C            KFI$M_KP_RESHDR= 00000002
IFB$K_BLN_SEQ    0000005C            IFB$V_ORG      = 00000004            KFI$M_KP_SHARED= 00000004
IFB$K_FHAEND     00000050            IFB$V_PPF_IMAGE= 00000022            KFI$M_LIM      = 00000040
IFB$L_ARGLST     00000018            IFB$V_PPF_INPUT= 0000002E            KFI$M_MARKDEL  = 00000080
IFB$L_ASBADDR    00000014            IFB$V_PUT      = 00000000            KFI$M_NOREPLACE= 00000040
IFB$L_AS_DEV     00000054            IFB$V_RFM      = 00000000            KFI$M_PROCPRIV = 00000080
IFB$L_BDB_BLNK   00000034            IFB$V_RWC      = 00000027            KFI$Q_PROCPRIV   00000024
IFB$L_BDB_FLNK   00000030            IFB$V_RW_ATTR  = 00000034            KFI$S_KFISEQ   = 00000002
IFB$L_BKPBITS    00000004            IFB$V_SCF      = 0000002A            KFI$V_COMPATMOD= 0000000F
IFB$L_BWB        0000000C            IFB$V_SPL      = 00000029            KFI$V_DONOTOPEN= 00000002
IFB$L_DVBN       00000058            IFB$V_SQO      = 0000002D            KFI$V_FILIDOPEN= 00000001
IFB$L_EBK        00000044            IFB$V_TEF      = 00000036            KFI$V_IS_RESHDR= 00000008
IFB$L_FRB_PTR    00000028            IFB$V_TMP      = 00000035            KFI$V_IS_SHARED= 00000009
IFB$L_FWA_BDB    00000050            IFB$V_TRN      = 00000004            KFI$V_KFIHD    = 00000000
IFB$L_HBK        00000040            IFB$V_UPD      = 00000003            KFI$V_KFISEQ   = 00000000
IFB$L_IDX_PTR    00000054            IFB$V_WRTACC   = 00000030            KFI$V_KP_OPEN  = 00000000
IFB$L_IOS        0000000C            IFB$W_ASDEVBSIZ  0000005A            KFI$V_KP_RESHDR= 00000001
IFB$L_IOS4       00000010            IFB$W_BKS_BYTES  0000005C            KFI$V_KP_SHARED= 00000002
IFB$L_IRAB_LNK   0000001C            IFB$W_BKS_RECS   0000005E            KFI$V_LIM      = 00000006
IFB$L_LAST_FAB   00000024            IFB$W_CHNL       00000020            KFI$V_MARKDEL  = 00000007
IFB$L_LOCK_BDB   00000050            IFB$W_DEQ        0000004E            KFI$V_NOREPLACE= 00000006
IFB$L_MRN        00000054            IFB$W_DEVBUFSIZ  00000038            KFI$V_PROCPRIV = 00000007
IFB$L_NRP_LNK    00000050            IFB$W_EBK0       00000044            KFI$W_FID        0000001C
IFB$L_NWA_PTR    00000028            IFB$W_EBK2       00000046            KFI$W_FID_NUM    0000001C
IFB$L_PRIM_DEV   00000000            IFB$W_FFB        00000048            KFI$W_FID_RVN    00000020
IFB$L_RLB_LNK    0000002C            IFB$W_IOS2       0000000E            KFI$W_FID_SEQ    0000001E
IFB$L_RNS_LEN    00000050            IFB$W_LRL        0000003E            KFI$W_FLAGS      00000014
IFB$M_BIO      = 00000020            IFB$W_MRS        0000004C            KFI$W_GBLSECCNT  00000016
IFB$M_BRO      = 00000040            IFB$W_RTDEQ      0000003A            KFI$W_REFCNT     00000010
IFB$M_DEL      = 00000004            KFI$B_DEVNAM     0000000C            KFI$W_SIZE       00000008
IFB$M_EXE      = 00000080            KFI$B_DEVUCB     0000000C            KFIMTX           FFFFFFF4
IFB$M_GET      = 00000002            KFI$B_DIRNAM     0000000D            KFISCN           00000093 R     02
IFB$M_PUT      = 00000001            KFI$B_FILNAM     0000000E            NAM              00000018
IFB$M_TRN      = 00000010            KFI$B_KFICTL     0000000B            NAM$B_BID        00000000
IFB$M_UPD      = 00000008            KFI$B_KFIQNUM    00000012            NAM$B_BLN        00000001
KF0PARSE        KNOWN FILE PARSE                                 21-AUG-1978 21:13:01   VAX-11 MACRO X0.3-11               Page  11
SYMBOL TABLE                                                                                                                     (5)

NAM$B_CURLVL     00000038            NAM$V_EXP_VER  = 00000000            PCB$L_WSSWP      00000024
NAM$B_ESL        0000000B            NAM$V_GRP_MBR  = 00000013            PCB$L_WTIME      0000002C
NAM$B_ESS        0000000A            NAM$V_HIGHVER  = 0000000F            PCB$T_LNAME      0000006C
NAM$B_RSL        00000003            NAM$V_LOWVER   = 0000000E            PCB$V_ASTPEN   = 00000011
NAM$B_RSS        00000002            NAM$V_NODE     = 00000011            PCB$V_BATCH    = 0000000E
NAM$C_BID      = 00000002            NAM$V_PPF      = 00000010            PCB$V_DELPEN   = 00000001
NAM$C_BLN        00000038            NAM$V_QUOTED   = 00000012            PCB$V_FORCPEN  = 00000002
NAM$C_BLN_DIRWC  00000050            NAM$V_WILDCARD = 00000008            PCB$V_HIBER    = 00000013
NAM$C_DVI      = 00000010            NAM$V_WILD_DIR = 00000014            PCB$V_INQUAN   = 00000003
NAM$C_MAXRSS   = 00000080            NAM$V_WILD_GRP = 00000018            PCB$V_LOGIN    = 00000014
NAM$C_MAXRSSLCL= 00000060            NAM$V_WILD_MBR = 00000019            PCB$V_NETWRK   = 00000015
NAM$K_BLN        00000038            NAM$V_WILD_NAME= 00000005            PCB$V_NOACNT   = 0000000F
NAM$K_BLN_DIRWC  00000050            NAM$V_WILD_SFD1= 00000019            PCB$V_NODELET  = 00000017
NAM$L_DIRWCC1    00000040            NAM$V_WILD_SFD2= 0000001A            PCB$V_PHDRES   = 00000012
NAM$L_DIRWCC2    00000044            NAM$V_WILD_SFD3= 0000001B            PCB$V_PSWAPM   = 00000004
NAM$L_DIRWCC3    00000048            NAM$V_WILD_SFD4= 0000001C            PCB$V_PWRAST   = 00000016
NAM$L_DIRWCC4    0000004C            NAM$V_WILD_SFD5= 0000001D            PCB$V_RES      = 00000000
NAM$L_DWC        00000038            NAM$V_WILD_SFD6= 0000001E            PCB$V_RESPEN   = 00000005
NAM$L_ESA        0000000C            NAM$V_WILD_SFD7= 0000001F            PCB$V_SSFEXC   = 00000006
NAM$L_FNB        00000034            NAM$V_WILD_TYPE= 00000004            PCB$V_SSFEXCE  = 00000007
NAM$L_RLF        00000010            NAM$V_WILD_UFD = 00000018            PCB$V_SSFEXCS  = 00000008
NAM$L_RSA        00000004            NAM$V_WILD_VER = 00000003            PCB$V_SSFEXCU  = 00000009
NAM$L_WCC        00000030            NAM$W_DID        0000002A            PCB$V_SSRWAIT  = 0000000A
NAM$M_DIR_LVLS = 00E00000            NAM$W_DID_NUM    0000002A            PCB$V_SUSPEN   = 0000000B
NAM$M_EXP_DEV  = 00000080            NAM$W_DID_RVN    0000002E            PCB$V_SWPVBN   = 00000010
NAM$M_EXP_DIR  = 00000040            NAM$W_DID_SEQ    0000002C            PCB$V_WAKEPEN  = 0000000C
NAM$M_EXP_NAME = 00000004            NAM$W_FID        00000024            PCB$V_WALL     = 0000000D
NAM$M_EXP_TYPE = 00000002            NAM$W_FID_NUM    00000024            PCB$W_APTCNT     00000034
NAM$M_EXP_VER  = 00000001            NAM$W_FID_RVN    00000028            PCB$W_ASTCNT     0000003C
NAM$M_GRP_MBR  = 00080000            NAM$W_FID_SEQ    00000026            PCB$W_BIOCNT     0000003E
NAM$M_HIGHVER  = 00008000            NAM$W_PRV_DID    0000003A            PCB$W_BIOLM      00000040
NAM$M_LOWVER   = 00004000            NARG           = 00000008            PCB$W_BYTCNT     00000042
NAM$M_NODE     = 00020000            PCB              FFFFFFF8            PCB$W_BYTLM      00000068
NAM$M_PPF      = 00010000            PCB$B_ASTACT     0000000C            PCB$W_DIOCNT     00000044
NAM$M_QUOTED   = 00040000            PCB$B_ASTEN      0000000D            PCB$W_DIOLM      00000046
NAM$M_WILDCARD = 00000100            PCB$B_PRI        0000000B            PCB$W_FILCNT     00000048
NAM$M_WILD_DIR = 00100000            PCB$B_PRIB       00000033            PCB$W_GPGCNT     00000038
NAM$M_WILD_GRP = 01000000            PCB$B_TYPE       0000000A            PCB$W_GRP        00000022
NAM$M_WILD_MBR = 02000000            PCB$B_WEFC       00000032            PCB$W_MEM        00000020
NAM$M_WILD_NAME= 00000020            PCB$C_LENGTH     0000007C            PCB$W_MTXCNT     0000000E
NAM$M_WILD_SFD1= 02000000            PCB$K_LENGTH     0000007C            PCB$W_PPGCNT     0000003A
NAM$M_WILD_SFD2= 04000000            PCB$L_ASTQBL     00000014            PCB$W_PRCCNT     0000006A
NAM$M_WILD_SFD3= 08000000            PCB$L_ASTQFL     00000010            PCB$W_SIZE       00000008
NAM$M_WILD_SFD4= 10000000            PCB$L_EFC2P      00000058            PCB$W_STATE      00000030
NAM$M_WILD_SFD5= 20000000            PCB$L_EFC3P      0000005C            PCB$W_TMBU       00000036
NAM$M_WILD_SFD6= 40000000            PCB$L_EFCS       00000050            PCB$W_TQCNT      0000004A
NAM$M_WILD_SFD7= 80000000            PCB$L_EFCU       00000054            RM$GETDEVNAM     ********   X   02
NAM$M_WILD_TYPE= 00000010            PCB$L_EFWM       0000004C            RM$GETDEVUNI     ********   X   02
NAM$M_WILD_UFD = 01000000            PCB$L_OWNER      0000001C            RM$KFISCN        ********   X   02
NAM$M_WILD_VER = 00000008            PCB$L_PHD        00000064            RM$KNOWNFILE     00000004 RG    02
NAM$S_DIR_LVLS = 00000003            PCB$L_PHYPCB     00000018            RM$PREFIX_0      ********   X   02
NAM$T_DVI        00000014            PCB$L_PID        00000060            RMS$V_STVSTATUS= 0000000E
NAM$V_DIR_LVLS = 00000015            PCB$L_PQB        0000004C            RMS$_ABO       = 000183EC
NAM$V_EXP_DEV  = 00000007            PCB$L_SQBL       00000004            RMS$_ACC       = 0001C002
NAM$V_EXP_DIR  = 00000006            PCB$L_SQFL       00000000            RMS$_ACT       = 0001825A
NAM$V_EXP_NAME = 00000002            PCB$L_STS        00000028            RMS$_AID       = 000183F4
NAM$V_EXP_TYPE = 00000001            PCB$L_UIC        00000020            RMS$_ALN       = 000183FC
KF0PARSE        KNOWN FILE PARSE                                 21-AUG-1978 21:13:01   VAX-11 MACRO X0.3-11               Page  12
SYMBOL TABLE                                                                                                                     (5)

RMS$_ALQ       = 00018404            RMS$_FEX       = 00018282            RMS$_PRV       = 0001829A
RMS$_ANI       = 0001840C            RMS$_FLG       = 0001851C            RMS$_QUO       = 00018634
RMS$_AOP       = 00018414            RMS$_FLK       = 0001828A            RMS$_RAB       = 0001863C
RMS$_ATR       = 0001C0CC            RMS$_FNA       = 00018524            RMS$_RAC       = 00018644
RMS$_ATW       = 0001C0D4            RMS$_FND       = 0001C02A            RMS$_RAT       = 0001864C
RMS$_BKS       = 0001841C            RMS$_FNF       = 00018292            RMS$_RBF       = 00018654
RMS$_BKZ       = 00018424            RMS$_FNM       = 0001852C            RMS$_RER       = 0001C0F4
RMS$_BLN       = 0001842C            RMS$_FOP       = 0001853C            RMS$_REX       = 000182A2
RMS$_BOF       = 00018198            RMS$_FSZ       = 00018534            RMS$_RFA       = 0001865C
RMS$_BUG       = 00018434            RMS$_FUL       = 00018544            RMS$_RFM       = 00018664
RMS$_BUG_DAP   = 00018444            RMS$_IAL       = 0001854C            RMS$_RHB       = 0001866C
RMS$_BUG_DDI   = 0001843C            RMS$_IAN       = 00018554            RMS$_RLF       = 00018674
RMS$_BUG_XX2   = 0001844C            RMS$_IBF       = 00018754            RMS$_RLK       = 000182AA
RMS$_BUG_XX3   = 00018454            RMS$_IDX       = 0001855C            RMS$_RMV       = 0001C0FC
RMS$_BUG_XX4   = 0001845C            RMS$_IFA       = 0001C124            RMS$_RNF       = 000182B2
RMS$_BUG_XX5   = 00018464            RMS$_IFI       = 00018564            RMS$_RNL       = 000181A0
RMS$_BUG_XX6   = 0001846C            RMS$_IMX       = 0001856C            RMS$_ROP       = 0001867C
RMS$_BUG_XX7   = 00018474            RMS$_IOP       = 00018574            RMS$_RPL       = 0001C104
RMS$_BUG_XX8   = 0001847C            RMS$_IRC       = 0001857C            RMS$_RRV       = 00018684
RMS$_BUG_XX9   = 00018484            RMS$_ISI       = 00018584            RMS$_RSA       = 000182DA
RMS$_CAA       = 0001848C            RMS$_KBF       = 0001858C            RMS$_RSL       = 0001873C
RMS$_CCF       = 0001C0DC            RMS$_KEY       = 00018594            RMS$_RSS       = 00018694
RMS$_CCR       = 00018494            RMS$_KFF       = 00018031            RMS$_RST       = 0001869C
RMS$_CDA       = 0001C0E4            RMS$_KRF       = 0001859C            RMS$_RSZ       = 000186A4
RMS$_CHG       = 0001849C            RMS$_KSZ       = 000185A4            RMS$_RTB       = 000181A8
RMS$_CHK       = 000184A4            RMS$_LAN       = 000185AC            RMS$_SEQ       = 000186AC
RMS$_CHN       = 0001C0EC            RMS$_LBL       = 000185B4            RMS$_SHR       = 000186B4
RMS$_COD       = 000184AC            RMS$_LNE       = 000185BC            RMS$_SIZ       = 000186BC
RMS$_CONTROLC  = 00010651            RMS$_LOC       = 000185C4            RMS$_SPL       = 0001C042
RMS$_CONTROLO  = 00010609            RMS$_MBC       = 00018734            RMS$_SQO       = 000186C4
RMS$_CONTROLY  = 00010611            RMS$_MKD       = 0001C032            RMS$_STALL     = 00018001
RMS$_CRE       = 0001C00A            RMS$_MRN       = 000185CC            RMS$_STK       = 000186CC
RMS$_CREATED   = 00010619            RMS$_MRS       = 000185D4            RMS$_SUC       = 00010001
RMS$_CUR       = 000184B4            RMS$_NAM       = 000185DC            RMS$_SUP       = 000182D2
RMS$_DAC       = 0001C012            RMS$_NEF       = 000185E4            RMS$_SUPERSEDE = 00010631
RMS$_DAN       = 000184BC            RMS$_NET       = 0001874C            RMS$_SYN       = 000186D4
RMS$_DEL       = 00018262            RMS$_NID       = 000185EC            RMS$_SYS       = 0001C10C
RMS$_DEV       = 000184C4            RMS$_NMF       = 000182CA            RMS$_TEMP1     = 0001826A
RMS$_DIR       = 000184CC            RMS$_NOD       = 000185F4            RMS$_TEMP2     = 0001868C
RMS$_DME       = 000184D4            RMS$_NORMAL    = 00010001            RMS$_TMO       = 000181B0
RMS$_DNA       = 000184DC            RMS$_NPK       = 000185FC            RMS$_TRE       = 000186DC
RMS$_DNF       = 0001C04A            RMS$_OK_ALK    = 00018039            RMS$_TYP       = 000186E4
RMS$_DNR       = 00018272            RMS$_OK_DEL    = 00018041            RMS$_UBF       = 000186EC
RMS$_DPE       = 0001C03A            RMS$_OK_DUP    = 00018011            RMS$_USZ       = 000186F4
RMS$_DTP       = 000184E4            RMS$_OK_IDX    = 00018019            RMS$_VER       = 000186FC
RMS$_DUP       = 000184EC            RMS$_OK_LIM    = 00018051            RMS$_VOL       = 00018704
RMS$_DVI       = 000184F4            RMS$_OK_RLK    = 00018021            RMS$_WBE       = 0001C12C
RMS$_ENT       = 0001C01A            RMS$_OK_RNF    = 00018049            RMS$_WER       = 0001C114
RMS$_ENV       = 00018724            RMS$_OK_RRV    = 00018029            RMS$_WLD       = 00018744
RMS$_EOF       = 0001827A            RMS$_ORD       = 00018604            RMS$_WLK       = 000182BA
RMS$_ESA       = 000184FC            RMS$_ORG       = 0001860C            RMS$_WPL       = 0001C11C
RMS$_ESL       = 00018714            RMS$_PBF       = 00018614            RMS$_WSF       = 0001871C
RMS$_ESS       = 00018504            RMS$_PENDING   = 00018009            RMS$_XAB       = 0001870C
RMS$_EXP       = 000182C2            RMS$_PLG       = 0001861C            SAVABS...      = FFFFFFF4
RMS$_EXT       = 0001C022            RMS$_PLV       = 0001872C            SCH$LOCKR        ********   X   02
RMS$_FAB       = 0001850C            RMS$_POS       = 00018624            SCH$UNLOCK       ********   X   02
RMS$_FAC       = 00018514            RMS$_PRM       = 0001862C            SS$_EXQUOTA      ********   X   02
KF0PARSE        KNOWN FILE PARSE                                 21-AUG-1978 21:13:01   VAX-11 MACRO X0.3-11               Page  13
SYMBOL TABLE                                                                                                                     (5)

SS$_NOPRIV       ********   X   02
SS$_NORMAL       ********   X   02
STATUS           FFFFFFFC
STR              00000024
SYS$CMKRNL       ********   X   02
TYP              0000001C
UNLOCK           000000E1 R     02
WCB$B_ACCESS     0000000B
WCB$B_TYPE       0000000A
WCB$C_LENGTH     00000024
WCB$C_MAP        00000024
WCB$K_LENGTH     00000024
WCB$K_MAP        00000024
WCB$L_FCB        00000018
WCB$L_LBN        00000002
WCB$L_ORGUCB     00000010
WCB$L_P1_LBN     00000026
WCB$L_P2_LBN     0000002C
WCB$L_PID        0000000C
WCB$L_PREVLBN    FFFFFFFC
WCB$L_RVT        0000001C
WCB$L_STVBN      00000020
WCB$L_WLBL       00000004
WCB$L_WLFL       00000000
WCB$M_NOTFCP   = 00000004
WCB$M_READ     = 00000001
WCB$M_SHRWCB   = 00000008
WCB$M_WRITE    = 00000002
WCB$V_DLOCK    = 00000001
WCB$V_NOREAD   = 0000000A
WCB$V_NOTFCP   = 00000002
WCB$V_NOTRUNC  = 0000000B
WCB$V_NOWRITE  = 00000000
WCB$V_READ     = 00000000
WCB$V_READCK   = 00000009
WCB$V_SEQONLY  = 00000006
WCB$V_SHRWCB   = 00000003
WCB$V_SPOOL    = 00000004
WCB$V_WRITE    = 00000001
WCB$V_WRITEAC  = 00000008
WCB$V_WRITECK  = 00000005
WCB$W_ACON       00000014
WCB$W_COUNT      00000000
WCB$W_NMAP       00000016
WCB$W_P1_COUNT   00000024
WCB$W_P2_COUNT   0000002A
WCB$W_PREVCOUNT  FFFFFFFA
WCB$W_REFCNT     0000000E
WCB$W_SIZE       00000008
ZRO              00000020


PROGRAM SECTION SYNOPSIS

.  ABS  .        00000000      00     NOPIC   USR   CON   ABS   LCL NOSHR NOEXE NORD  NOWRT BYTE
. BLANK .        00000000      01     NOPIC   USR   CON   REL   LCL NOSHR   EXE   RD    WRT BYTE
F$RMSOPEN0       00000152      02     NOPIC   USR   CON   REL   GBL NOSHR   EXE   RD  NOWRT BYTE
KF0PARSE        KNOWN FILE PARSE                                 21-AUG-1978 21:13:01   VAX-11 MACRO X0.3-11               Page  14
PROGRAM SECTION SYNOPSIS                                                                                                         (5)

$ABS$            FFFFFFFC      03     NOPIC   USR   CON   ABS   LCL NOSHR   EXE   RD    WRT BYTE


THERE WERE NO ERRORS OR WARNINGS.
2272. BYTES LEFT IN FREE MEMORY POOL.
3460. BYTES OF RECLAIMED MEMORY.
OBJ$:KF0PARSE,LIS$:KF0PARSE/-SP=EXECML$/ML,LIB$:R/ML,SRC$:KF0PARSE
62 MLB DIR RDS - 1427 GETS TO DEFINE 25 MACROS. 107 INTER. FILE WRITES.
