NT0ACCESS       NETWORK ACCESS/DEACCESS                          21-AUG-1978 22:15:21   VAX-11 MACRO X0.3-11               Page   0
TABLE OF CONTENTS

   (2)      42  DECLARATIONS
   (3)      67  NT$ASSIGN - NETWORK ASSIGN CHANNEL
   (4)     135  NT$ALTER_DEV - ALTER NETWORK DEVICE CHARACTERIS
   (5)     221  NT$ACCESS - PERFORM NETACP ACCESS FUNCTION
   (6)     370  NT$DEACCESS - PERFORM NETACP DEACCESS FUNCTION
NT0ACCESS       NETWORK ACCESS/DEACCESS                          21-AUG-1978 22:15:21   VAX-11 MACRO X0.3-11               Page   1
010                                                                                                                              (1)

                                     0000     1 	$BEGIN	NT0ACCESS,010,NF$NETWORK,<NETWORK ACCESS/DEACCESS>
                                     0000     2
                                     0000     3
                                     0000     4 ;
                                     0000     5 ;			  COPYRIGHT (c) 1977, 1978 BY
                                     0000     6 ;	      DIGITAL EQUIPMENT CORPORATION, MAYNARD, MASS.
                                     0000     7 ;
                                     0000     8 ; THIS SOFTWARE IS FURNISHED UNDER A LICENSE AND MAY BE USED AND  COPIED
                                     0000     9 ; ONLY  IN  ACCORDANCE  WITH  THE  TERMS  OF  SUCH  LICENSE AND WITH THE
                                     0000    10 ; INCLUSION OF THE ABOVE COPYRIGHT NOTICE.  THIS SOFTWARE OR  ANY  OTHER
                                     0000    11 ; COPIES  THEREOF MAY NOT BE PROVIDED OR OTHERWISE MADE AVAILABLE TO ANY
                                     0000    12 ; OTHER PERSON.  NO TITLE TO AND OWNERSHIP OF  THE  SOFTWARE  IS  HEREBY
                                     0000    13 ; TRANSFERRED.
                                     0000    14 ;
                                     0000    15 ; THE INFORMATION IN THIS SOFTWARE IS SUBJECT TO CHANGE  WITHOUT  NOTICE
                                     0000    16 ; AND  SHOULD  NOT  BE  CONSTRUED  AS  A COMMITMENT BY DIGITAL EQUIPMENT
                                     0000    17 ; CORPORATION.
                                     0000    18 ;
                                     0000    19 ; DIGITAL ASSUMES NO RESPONSIBILITY FOR THE USE OR  RELIABILITY  OF  ITS
                                     0000    20 ; SOFTWARE ON EQUIPMENT WHICH IS NOT SUPPLIED BY DIGITAL.
                                     0000    21 ;
                                     0000    22
                                     0000    23 ;++
                                     0000    24 ; FACILITY: RMS32
                                     0000    25 ;
                                     0000    26 ; ABSTRACT:
                                     0000    27 ;	THIS MODULE PERFORMS NETWORK ACCESS/DEACCESS FUNCTIONS INCLUDING
                                     0000    28 ;	ASSIGNING A CHANNEL TO THE NETWORK DEVICE AND ALTERING THE
                                     0000    29 ;	CHARACTERISTICS OF THE NETWORK DEVICE AS APPROPRIATE. THE ACCESS
                                     0000    30 ;	FUNCTION CREATES A LOGICAL LINK BETWEEN THIS PROCESS AND EITHER:
                                     0000    31 ;	1.  THE SPECIFIED TARGET TASK, OR
                                     0000    32 ;	2.  FAL (FILE ACCESS LISTENER) FOR REMOTE FILE ACCESS.
                                     0000    33 ;
                                     0000    34 ; ENVIRONMENT: VAX/VMS
                                     0000    35 ;
                                     0000    36 ; AUTHOR: JAMES A. KRYCKA,	CREATION DATE: 9-DEC-77
                                     0000    37 ;
                                     0000    38 ; MODIFICATIONS:
                                     0000    39 ;
                                     0000    40 ;--
NT0ACCESS       NETWORK ACCESS/DEACCESS                          21-AUG-1978 22:15:21   VAX-11 MACRO X0.3-11               Page   2
010             DECLARATIONS                                                                                                     (2)

                                     0000    42 	.SBTTL	DECLARATIONS
                                     0000    43
                                     0000    44 ;
                                     0000    45 ; INCLUDE FILES:
                                     0000    46 ;
                                     0000    47 	$DEVDEF				; DEFINE DEVICE CHARACTERISTICS
                                     0000    48 	$FWADEF				; DEFINE FILE WORK AREA SYMBOLS
                                     0000    49 	$IFBDEF				; DEFINE IFAB SYMBOLS
                                     0000    50 	$IODEF				; DEFINE I/O FUNCTION CODES
                                     0000    51 	$NWADEF				; DEFINE NETWORK WORK AREA SYMBOLS
                                     0000    52 	$PSLDEF				; DEFINE PROCESS STATUS LONGWORD SYMBOLS
                                     0000    53 	.LIST	MEB
                                     0000    54 ;
                                     0000    55 ; MACROS:
                                     0000    56 ;
                                     0000    57 ;	NONE
                                     0000    58 ;
                                     0000    59 ; EQUATED SYMBOLS:
                                     0000    60 ;
                                     0000    61 ;	NONE
                                     0000    62 ;
                                     0000    63 ; OWN STORAGE:
                                     0000    64 ;
                                     0000    65 ;	NONE
NT0ACCESS       NETWORK ACCESS/DEACCESS                          21-AUG-1978 22:15:21   VAX-11 MACRO X0.3-11               Page   3
010             NT$ASSIGN - NETWORK ASSIGN CHANNEL                                                                               (3)

                                     0000    67 	.SBTTL	NT$ASSIGN - NETWORK ASSIGN CHANNEL
                                     0000    68
                                     0000    69 ;++
                                     0000    70 ; FUNCTIONAL DESCRIPTION:
                                     0000    71 ;
                                     0000    72 ;	NT$ASSIGN ASSIGNS A CHANNEL TO THE NETWORK DEVICE (_NET:).
                                     0000    73 ;
                                     0000    74 ; CALLING SEQUENCE:
                                     0000    75 ;
                                     0000    76 ;	BSBW	NT$ASSIGN
                                     0000    77 ;
                                     0000    78 ; INPUT PARAMETERS:
                                     0000    79 ;
                                     0000    80 ;	R11	IMPURE AREA ADDRESS
                                     0000    81 ;	R10	FWA ADDRESS
                                     0000    82 ;	R9	IFAB ADDRESS
                                     0000    83 ;	R8	FAB ADDRESS
                                     0000    84 ;
                                     0000    85 ; IMPLICIT INPUTS:
                                     0000    86 ;
                                     0000    87 ;	NONE
                                     0000    88 ;
                                     0000    89 ; OUTPUT PARAMETERS:
                                     0000    90 ;
                                     0000    91 ;	R0	STATUS CODE (SYSTEM SERVICE)
                                     0000    92 ;	R1-R3	DESTROYED
                                     0000    93 ;
                                     0000    94 ; IMPLICIT OUTPUTS:
                                     0000    95 ;
                                     0000    96 ;	IFB$W_CHNL
                                     0000    97 ;
                                     0000    98 ; COMPLETION CODES:
                                     0000    99 ;
                                     0000   100 ;	STANDARD SYSTEM SERVICE STATUS CODES.
                                     0000   101 ;
                                     0000   102 ; SIDE EFFECTS:
                                     0000   103 ;
                                     0000   104 ;	NONE
                                     0000   105 ;
                                     0000   106 ;--
                                     0000   107
                                     0000   108 NT$ASSIGN::				; CONTROL POINT
                                     0000   109
                                     0000   110 ;
                                     0000   111 ; SETUP DEVICE NAME DESCRIPTOR AND ASSOCIATED STRING FOR INPUT TO THE
                                     0000   112 ; ASSIGN CHANNEL SYSTEM SERVICE.
                                     0000   113 ;
                                     0000   114
            51         28 A9     D0  0000   115 	MOVL	IFB$L_NWA_PTR(R9),R1	; GET ADDRESS OF NWA
            52       0140 C1     7E  0004   116 	MOVAQ	NWA$Q_BUFFER(R1),R2	; GET ADDRESS OF SCRATCH DESCRIPTOR
            53       0160 C1     9E  0009   117 	MOVAB	NWA$T_BUFFER(R1),R3	; GET ADDRESS OF SCRATCH BUFFER
            62            05     D0  000E   118 	MOVL	#5,(R2)			; FILL IN STRING COUNT
         04 A2            53     D0  0011   119 	MOVL	R3,4(R2)		; FILL IN STRING ADDRESS
            83         5F 8F     90  0015   120 	MOVB	#^A\_\,(R3)+		; STORE '_NET:'
            63   3A54454E 8F     D0  0019   121 	MOVL	#^A\NET:\,(R3)		; "
                                     0020   122
                                     0020   123 ;
NT0ACCESS       NETWORK ACCESS/DEACCESS                          21-AUG-1978 22:15:21   VAX-11 MACRO X0.3-11               Page   4
010             NT$ASSIGN - NETWORK ASSIGN CHANNEL                                                                               (3)

                                     0020   124 ; CREATE A CONTROL/INFORMATION PATH TO NETACP IN PREPARATION FOR
                                     0020   125 ; NON-TRANSPARENT NETWORK I/O. DO NOT ASSOCIATE A MAILBOX WITH THE
                                     0020   126 ; CHANNEL--AS SECONDARY INBOUND CONNECT INITIATES AND INTERRUPT MESSAGES
                                     0020   127 ; ARE NOT SUPPORTED.
                                     0020   128 ;
                                     0020   129
                                     0020   130 	$ASSIGN_S DEVNAM=(R2)-		; ADDRESS OF DEVICE NAME DESCRIPTOR
                                     0020   131 		CHAN=IFB$W_CHNL(R9)-	; STORE CHANNEL # IN IFAB
                                     0020   132 		ACMODE=#PSL$C_EXEC	; EXECUTIVE ACCESS MODE
                          00     DD  0020       		PUSHL	#0
                          01     DD  0022       		PUSHL	#PSL$C_EXEC
                       20 A9     3F  0024       		PUSHAW	IFB$W_CHNL(R9)
                          62     7F  0027       		PUSHAQ	(R2)
   00000000'GF            04     FB  0029       		CALLS	#4,G^SYS$ASSIGN
                                 05  0030   133 	RSB				; EXIT WITH SS STATUS CODE IN R0
NT0ACCESS       NETWORK ACCESS/DEACCESS                          21-AUG-1978 22:15:21   VAX-11 MACRO X0.3-11               Page   5
010             NT$ALTER_DEV - ALTER NETWORK DEVICE CHARACTERIS                                                                  (4)

                                     0031   135 	.SBTTL	NT$ALTER_DEV - ALTER NETWORK DEVICE CHARACTERISTICS
                                     0031   136
                                     0031   137 ;++
                                     0031   138 ; FUNCTIONAL DESCRIPTION:
                                     0031   139 ;
                                     0031   140 ;	NT$ALTER_DEV MODIFIES THE CHARACTERISTICS OF THE NETWORK DEVICE
                                     0031   141 ;	AND DENOTES WHETHER NETWORK I/O WILL BE AT THE DAP OR NSP LEVEL.
                                     0031   142 ;
                                     0031   143 ; CALLING SEQUENCE:
                                     0031   144 ;
                                     0031   145 ;	BSBW	NT$ALTER_DEV
                                     0031   146 ;
                                     0031   147 ; INPUT PARAMETERS:
                                     0031   148 ;
                                     0031   149 ;	R11	IMPURE AREA ADDRESS
                                     0031   150 ;	R10	FWA ADDRESS
                                     0031   151 ;	R9	IFAB ADDRESS
                                     0031   152 ;	R8	FAB ADDRESS
                                     0031   153 ;
                                     0031   154 ; IMPLICIT INPUTS:
                                     0031   155 ;
                                     0031   156 ;	FWA$V_OBJTYPE
                                     0031   157 ;
                                     0031   158 ; OUTPUT PARAMETERS:
                                     0031   159 ;
                                     0031   160 ;	NONE
                                     0031   161
                                     0031   162 ;
                                     0031   163 ; IMPLICIT OUTPUTS:
                                     0031   164 ;
                                     0031   165 ;	IFB$V_DAP
                                     0031   166 ;	IFB$V_NSP
                                     0031   167 ;	IFB$L_PRIM_DEV
                                     0031   168 ;	IFB$W_DEVBUFSIZ
                                     0031   169 ;
                                     0031   170 ; COMPLETION CODES:
                                     0031   171 ;
                                     0031   172 ;	NONE
                                     0031   173 ;
                                     0031   174 ; SIDE EFFECTS:
                                     0031   175 ;
                                     0031   176 ;	NONE
                                     0031   177 ;
                                     0031   178 ;--
                                     0031   179
                                     0031   180 NT$ALTER_DEV::				; CONTROL POINT
                                     0031   181
                                     0031   182 ;
                                     0031   183 ; DETERMINE WHETHER NETWORK REQUEST IF FOR FILE ACCESS VIA A REMOTE FAL
                                     0031   184 ; OR FOR TASK-TO-TASK COMMUNICATION.
                                     0031   185 ;
                                     0031   186
            6A            31     E0  0031   187 	BBS	#FWA$V_OBJTYPE,(R10),10$ ; BRANCH IF DEVICE NAME STRING IS
                          0C         0034
                                     0035   188 					 ;  IN NSP OBJTYPE TYPE FORMAT
                                     0035   189
                                     0035   190 ;
NT0ACCESS       NETWORK ACCESS/DEACCESS                          21-AUG-1978 22:15:21   VAX-11 MACRO X0.3-11               Page   6
010             NT$ALTER_DEV - ALTER NETWORK DEVICE CHARACTERIS                                                                  (4)

                                     0035   191 ; DENOTE THAT NETWORK I/O THRU RMS WILL BE AT THE FILE ACCESS LEVEL USING
                                     0035   192 ; DAP TO COMMUNICATE WITH THE REMOTE FAL.
                                     0035   193 ;
                                     0035   194
                                     0035   195 	SSB	#IFB$V_DAP,(R9)		; SET DAP FLAG
            69            3E     E2  0035       		BBSS	#IFB$V_DAP,(R9),30000$
                          00         0038
                                     0039       30000$:
         38 A9       0200 8F     B0  0039   196 	MOVW	#512,IFB$W_DEVBUFSIZ(R9) ; ESTABLISH DEVICE BUFFER SIZE
                          0A     11  003F   197 	BRB	20$			;
                                     0041   198
                                     0041   199 ;
                                     0041   200 ; DENOTE THAT NETWORK I/O THRU RMS WILL BE AT THE TASK-TO-TASK LEVEL USING
                                     0041   201 ; NSP TO COMMUNICATE WITH THE REMOTE PARTNER PROCESS.
                                     0041   202 ;
                                     0041   203
                                     0041   204 10$:	SSB	#IFB$V_NSP,(R9)		; SET NSP FLAG
            69            3F     E2  0041       		BBSS	#IFB$V_NSP,(R9),30001$
                          00         0044
                                     0045       30001$:
         38 A9       0200 8F     B0  0045   205 	MOVW	#512,IFB$W_DEVBUFSIZ(R9) ; ESTABLISH DEVICE BUFFER SIZE
                                     004B   206
                                     004B   207 ;
                                     004B   208 ; ALTER DEVICE CHARACTERISTICS.
                                     004B   209 ;
                                     004B   210
                                     004B   211 20$:	SSB	#DEV$V_REC,IFB$L_PRIM_DEV(R9)
            69            00     E2  004B       		BBSS	#DEV$V_REC,IFB$L_PRIM_DEV(R9),30002$
                          00         004E
                                     004F       30002$:
                                     004F   212 					; DECLARE LINK TO BE A RECORD
                                     004F   213 					;  ORIENTED DEVICE -- TEMPORARY
                                     004F   214 	CSB	#DEV$V_MBX,IFB$L_PRIM_DEV(R9)
            69            14     E5  004F       		BBCC	#DEV$V_MBX,IFB$L_PRIM_DEV(R9),30003$
                          00         0052
                                     0053       30003$:
                                     0053   215 					; DECLARE LINK NOT TO BE A MAILBOX
                                     0053   216 					;  ORIENTED DEVICE -- TEMPORARY
         54 A9            69     D0  0053   217 	MOVL	IFB$L_PRIM_DEV(R9),IFB$L_AS_DEV(R9)
                                     0057   218 					; COPY DEVICE CHARACTERISTICS
                                 05  0057   219 	RSB				; EXIT
NT0ACCESS       NETWORK ACCESS/DEACCESS                          21-AUG-1978 22:15:21   VAX-11 MACRO X0.3-11               Page   7
010             NT$ACCESS - PERFORM NETACP ACCESS FUNCTION                                                                       (5)

                                     0058   221 	.SBTTL	NT$ACCESS - PERFORM NETACP ACCESS FUNCTION
                                     0058   222
                                     0058   223 ;++
                                     0058   224 ; FUNCTIONAL DESCRIPTION:
                                     0058   225 ;
                                     0058   226 ;	NT$ACCESS CREATES A LOGICAL LINK.
                                     0058   227 ;
                                     0058   228 ; CALLING SEQUENCE:
                                     0058   229 ;
                                     0058   230 ;	BSBW	NT$ACCESS
                                     0058   231 ;
                                     0058   232 ; INPUT PARAMETERS:
                                     0058   233 ;
                                     0058   234 ;	R11	IMPURE AREA ADDRESS
                                     0058   235 ;	R10	FWA ADDRESS
                                     0058   236 ;	R9	IFAB ADDRESS
                                     0058   237 ;	R8	FAB ADDRESS
                                     0058   238 ;
                                     0058   239 ; IMPLICIT INPUTS:
                                     0058   240 ;
                                     0058   241 ;	IFB$V_DAP
                                     0058   242 ;	IFB$W_CHNL
                                     0058   243 ;	FWA$Q_NODE
                                     0058   244 ;	FWA$V_NETSTR
                                     0058   245 ;	NWA$Q_QUOTED
                                     0058   246 ;
                                     0058   247 ; OUTPUT PARAMETERS:
                                     0058   248 ;
                                     0058   249 ;	R0	STATUS CODE (SYSTEM SERVICE)
                                     0058   250 ;	R1-R6	DESTROYED
                                     0058   251 ;	AP	DESTROYED
                                     0058   252 ;
                                     0058   253 ; IMPLICIT OUTPUTS:
                                     0058   254 ;
                                     0058   255 ;	IFB$L_IOS
                                     0058   256 ;	IFB$V_ACCESSED
                                     0058   257 ;	NWA$Q_BUFFER
                                     0058   258 ;	NWA$T_BUFFER
                                     0058   259 ;
                                     0058   260 ; COMPLETION CODES:
                                     0058   261 ;
                                     0058   262 ;	STANDARD SYSTEM SERVICE STATUS CODES.
                                     0058   263 ;
                                     0058   264 ; SIDE EFFECTS:
                                     0058   265 ;
                                     0058   266 ;	NONE
                                     0058   267 ;
                                     0058   268 ;--
                                     0058   269
                                     0058   270 NT$ACCESS::				; CONTROL POINT
                                     0058   271
                                     0058   272 ;
                                     0058   273 ; BUILD A NETWORK CONNECT BLOCK (NCB) TO BE USED AS INPUT FOR THE NETACP
                                     0058   274 ; ACCESS FUNCTION.
                                     0058   275 ;
                                     0058   276 ; THE NCB CONSISTS OF A STRING WITH THE FOLLOWING GENERAL SYNTAX:
                                     0058   277 ;
NT0ACCESS       NETWORK ACCESS/DEACCESS                          21-AUG-1978 22:15:21   VAX-11 MACRO X0.3-11               Page   8
010             NT$ACCESS - PERFORM NETACP ACCESS FUNCTION                                                                       (5)

                                     0058   278 ;	nodename"access_control_string"::"objecttype=taskid/netacp_string"
                                     0058   279 ;
                                     0058   280 ; WHERE:
                                     0058   281 ; 1)	THE ACCESS CONTROL STRING IN THE NODESPEC IS PRESENT ONLY IF
                                     0058   282 ;	PROVIDED BY THE USER (DIRECTLY OR VIA LOGICAL NAME TRANSLATION).
                                     0058   283 ; 2A)	IF THE USER IS ACCESSING A REMOTE FILE, THE QUOTED STRING IS
                                     0058   284 ;	"FAL=" (TO REQUEST THE SERVICES OF THE REMOTE FILE ACCESS LISTENER).
                                     0058   285 ; 2B)	IF THE USER EXPLICITLY SPECIFIES AN OBJECTTYPE (I.E.,"TASK=..."
                                     0058   286 ;	FORM) OR HAS SPECIFIED THE LOGICAL NAME SYS$NET FOR THE FILESPEC
                                     0058   287 ;	STRING, THE QUOTED STRING USED IS THE ONE SUPPLIED WITH THE
                                     0058   288 ;	EXCEPTION THAT THE /NETACP_STRING COMPONENT IS TRUNCATED TO THE
                                     0058   289 ;	SLASH PLUS THE NEXT TWO CHARACTERS.
                                     0058   290 ;
                                     0058   291 ; OBTAIN THE NODESPEC STRING.
                                     0058   292 ;
                                     0058   293
            51         28 A9     D0  0058   294 	MOVL	IFB$L_NWA_PTR(R9),R1	; GET ADDRESS OF NWA
            56       0140 C1     7E  005C   295 	MOVAQ	NWA$Q_BUFFER(R1),R6	; GET ADDRESS OF SCRATCH DESCRIPTOR
            53       0160 C1     9E  0061   296 	MOVAB	NWA$T_BUFFER(R1),R3	; GET ADDRESS OF SCRATCH BUFFER
         04 A6            53     D0  0066   297 	MOVL	R3,4(R6)		; FILL IN DESCRIPTOR ADDRESS
         38 BA         34 AA     28  006A   298 	MOVC3	FWA$Q_NODE(R10),@FWA$Q_NODE+4(R10),(R3)
                          63         006F
                                     0070   299 					; COPY NODENAME STRING TO NCB
                                     0070   300 					;  INCLUDING DOUBLE COLON DELIMITER
                                     0070   301
                                     0070   302 ;
                                     0070   303 ; OBTAIN THE QUOTED STRING.
                                     0070   304 ;
                                     0070   305 ; DETERMINE WHETHER NETWORK REQUEST IF FOR FILE ACCESS VIA A REMOTE FAL
                                     0070   306 ; OR FOR TASK-TO-TASK COMMUNICATION.
                                     0070   307 ;
                                     0070   308
            69            3E     E0  0070   309 	BBS	#IFB$V_DAP,(R9),10$	; BRANCH IF FILE ACCESS REQUEST
                          1E         0073
                                     0074   310
                                     0074   311 ;
                                     0074   312 ; IT IS TASK-TO-TASK COMMUNICATION.
                                     0074   313 ;
                                     0074   314
                                     0074   315 	$TSTPT	NTACC_NSP		;
                 00000200'9F     D6  0074       		INCL	@#PIO$GL_FMLH+512+TPT$L_NTACC_NSP
       00A0 DA       009C CA     28  007A   316 	MOVC3	FWA$Q_QUOTED(R10),@FWA$Q_QUOTED+4(R10),(R3)
                          63         0081
                                     0082   317 					; APPEND QUOTED STRING (LESS ANY
                                     0082   318 					;  /NETACP_STRING COMPONENT)
            6A            32     E1  0082   319 	BBC	#FWA$V_NETSTR,(R10),20$	; BRANCH IF NO /NETACP_STRING COMPONENT
                          1E         0085
         FF A3            2F     90  0086   320 	MOVB	#^A\/\,-1(R3)		; RESTORE SLASH (OVER QUOTE)
            83            61     B0  008A   321 	MOVW	(R1),(R3)+		; APPEND FIRST TWO BYTES OF
            83            22     90  008D   322 	MOVB	#^A\"\,(R3)+		;  /NETACP_STRING PLUS QUOTE
                          12     11  0090   323 	BRB	20$			; FINISHED BUILDING NCB
                                     0092   324
                                     0092   325 ;
                                     0092   326 ; IT IS REMOTE FILE ACCESS.
                                     0092   327 ;
                                     0092   328
                                     0092   329 10$:	$TSTPT	NTACC_DAP		;
NT0ACCESS       NETWORK ACCESS/DEACCESS                          21-AUG-1978 22:15:21   VAX-11 MACRO X0.3-11               Page   9
010             NT$ACCESS - PERFORM NETACP ACCESS FUNCTION                                                                       (5)

                 00000200'9F     D6  0092       		INCL	@#PIO$GL_FMLH+512+TPT$L_NTACC_DAP
            83   4C414622 8F     D0  0098   330 	MOVL	#^A\"FAL\,(R3)+		; REQUEST OBJECT TYPE FAL
            83       223D 8F     B0  009F   331 	MOVW	#^A\="\,(R3)+		; "
                                     00A4   332
                                     00A4   333 ;
                                     00A4   334 ; CALCULATE SIZE OF THE NCB AND STORE IT IN THE NCB DESCRIPTOR BLOCK.
                                     00A4   335 ;
                                     00A4   336
            53         04 A6     C3  00A4   337 20$:	SUBL3	4(R6),R3,(R6)		; FILL IN DESCRIPTOR SIZE
                          66         00A8
                                     00A9   338
                                     00A9   339 ;
                                     00A9   340 ; PERFORM THE NETACP ACCESS FUNCTION. IT WILL BE EITHER AN NSP CONNECT
                                     00A9   341 ; INITIATE OR AN NSP CONNECT CONFIRM FUNCTION. BOTH USE THE SAME FUNCTION
                                     00A9   342 ; AND SUBFUNCTION CODES, BUT NETACP DIFFERENTAITES BASED ON THE CONTEXT
                                     00A9   343 ; OF THE CALL.
                                     00A9   344 ;
                                     00A9   345
                          FF54'  30  00A9   346 	BSBW	RM$SETEFN		; REQUEST EFN # TO USE AND
            52            8E     D0  00AC   347 	MOVL	(SP)+,R2		;  AND STORE IT
            51            56     D0  00AF   348 	MOVL	R6,R1			; COPY ADDRESS OF NCB DESCRIPTOR
                     0040 8F     BA  00B2   349 	POPR	#^M<R6>			; PUT RETURN PC IN R6
                                     00B6   350 	$QIO_S	EFN=R2-			; ISSUE CONNECT INITIATE/CONFIRM
                                     00B6   351 		CHAN=IFB$W_CHNL(R9)-	;
                                     00B6   352 		FUNC=#IO$_ACCESS!IO$M_ACCESS- ;
                                     00B6   353 		IOSB=IFB$L_IOS(R9)-	;
                                     00B6   354 		ASTADR=W^RM$STALLAST-	;
                                     00B6   355 		ASTPRM=R9-		;
                                     00B6   356 		P1=0-			; MUST BE ZERO
                                     00B6   357 		P2=R1			; ADDRESS OF NCB DESCRIPTOR
                          7E     7C  00B6       		CLRQ	-(SP)
                          7E     7C  00B8       		CLRQ	-(SP)
                          51     DD  00BA       		PUSHL	R1
                          00     DD  00BC       		PUSHL	#0
                          59     DD  00BE       		PUSHL	R9
                     0000'CF     DF  00C0       		PUSHAL	W^RM$STALLAST
                       0C A9     7F  00C4       		PUSHAQ	IFB$L_IOS(R9)
            7E       0072 8F     3C  00C7       		MOVZWL	#IO$_ACCESS!IO$M_ACCESS,-(SP)
            7E         20 A9     3C  00CC       		MOVZWL	IFB$W_CHNL(R9),-(SP)
                          52     DD  00D0       		PUSHL	R2
   00000000'GF            0C     FB  00D2       		CALLS	#12,G^SYS$QIO
            0A            50     E9  00D9   358 	BLBC	R0,99$			; BRANCH ON FAILURE
                          FF21'  30  00DC   359 	BSBW	RM$STALL		; AWAIT COMPLETION
            04            50     E9  00DF   360 	BLBC	R0,99$			; BRANCH ON FAILURE
                                     00E2   361
                                     00E2   362 ;
                                     00E2   363 ; STATE THAT ACP ACCESS FUNCTION HAS BEEN PERFORMED SUCCESSFULLY. THIS
                                     00E2   364 ; WILL TRIGGER THE NETWORK DEACCESS CODE AT CLOSE TIME.
                                     00E2   365 ;
                                     00E2   366
                                     00E2   367 	SSB	#IFB$V_ACCESSED,(R9)	; FILE HAS BEEN ACCESSED
            69            25     E2  00E2       		BBSS	#IFB$V_ACCESSED,(R9),30004$
                          00         00E5
                                     00E6       30004$:
                          66     17  00E6   368 99$:	JMP	(R6)			; RETURN TO CALLER
NT0ACCESS       NETWORK ACCESS/DEACCESS                          21-AUG-1978 22:15:21   VAX-11 MACRO X0.3-11               Page  10
010             NT$DEACCESS - PERFORM NETACP DEACCESS FUNCTION                                                                   (6)

                                     00E8   370 	.SBTTL	NT$DEACCESS - PERFORM NETACP DEACCESS FUNCTION
                                     00E8   371
                                     00E8   372 ;++
                                     00E8   373 ; FUNCTIONAL DESCRIPTION:
                                     00E8   374 ;
                                     00E8   375 ;	NT$DEACCESS DESTROYS A LOGICAL LINK.
                                     00E8   376 ;
                                     00E8   377 ; CALLING SEQUENCE:
                                     00E8   378 ;
                                     00E8   379 ;	BSBW	NT$DEACCESS
                                     00E8   380 ;
                                     00E8   381 ; INPUT PARAMETERS:
                                     00E8   382 ;
                                     00E8   383 ;	R11	IMPURE AREA ADDRESS
                                     00E8   384 ;	R10	IFAB ADDRESS
                                     00E8   385 ;	R9	IFAB ADDRESS
                                     00E8   386 ;	R8	FAB ADDRESS
                                     00E8   387 ;
                                     00E8   388 ; IMPLICIT INPUTS:
                                     00E8   389 ;
                                     00E8   390 ;	IFB$W_CHNL
                                     00E8   391 ;
                                     00E8   392 ; OUTPUT PARAMETERS:
                                     00E8   393 ;
                                     00E8   394 ;	R0	STATUS CODE (SYSTEM SERVICE)
                                     00E8   395 ;	R1-R4	DESTROYED
                                     00E8   396 ;	AP	DESTROYED
                                     00E8   397 ;
                                     00E8   398 ; IMPLICIT OUTPUTS:
                                     00E8   399 ;
                                     00E8   400 ;	IFB$L_IOS
                                     00E8   401 ;
                                     00E8   402 ; COMPLETION CODES:
                                     00E8   403 ;
                                     00E8   404 ;	STANDARD SYSTEM SERVICE STATUS CODES.
                                     00E8   405 ;
                                     00E8   406 ; SIDE EFFECTS:
                                     00E8   407 ;
                                     00E8   408 ;	NONE
                                     00E8   409 ;
                                     00E8   410 ;--
                                     00E8   411
                                     00E8   412 NT$DEACCESS::				; CONTROL POINT
                                     00E8   413 	$TSTPT	NTDEACCES		;
                 00000200'9F     D6  00E8       		INCL	@#PIO$GL_FMLH+512+TPT$L_NTDEACCES
                          10     BA  00EE   414 	POPR	#^M<R4>			; SAVE RETURN PC
                          FF0D'  30  00F0   415 	BSBW	RM$SETEFN		; REQUEST EFN # TO USE AND
            52            8E     D0  00F3   416 	MOVL	(SP)+,R2		;  AND STORE IT
                                     00F6   417 	$QIO_S	EFN=R2-			; ISSUE SYNCHRONOUS DISCONNECT
                                     00F6   418 		CHAN=IFB$W_CHNL(R9)-	;
                                     00F6   419 		FUNC=#IO$_DEACCESS!IO$M_SYNCH- ;
                                     00F6   420 		IOSB=IFB$L_IOS(R9)-	;
                                     00F6   421 		ASTADR=W^RM$STALLAST-	;
                                     00F6   422 		ASTPRM=R9-		;
                                     00F6   423 		P1=0-			; MUST BE ZERO
                                     00F6   424 		P2=#0			; SPECIFY NO USERDATA TO RETURN
                          7E     7C  00F6       		CLRQ	-(SP)
NT0ACCESS       NETWORK ACCESS/DEACCESS                          21-AUG-1978 22:15:21   VAX-11 MACRO X0.3-11               Page  11
010             NT$DEACCESS - PERFORM NETACP DEACCESS FUNCTION                                                                   (6)

                          7E     7C  00F8       		CLRQ	-(SP)
                          00     DD  00FA       		PUSHL	#0
                          00     DD  00FC       		PUSHL	#0
                          59     DD  00FE       		PUSHL	R9
                     0000'CF     DF  0100       		PUSHAL	W^RM$STALLAST
                       0C A9     7F  0104       		PUSHAQ	IFB$L_IOS(R9)
            7E       0234 8F     3C  0107       		MOVZWL	#IO$_DEACCESS!IO$M_SYNCH,-(SP)
            7E         20 A9     3C  010C       		MOVZWL	IFB$W_CHNL(R9),-(SP)
                          52     DD  0110       		PUSHL	R2
   00000000'GF            0C     FB  0112       		CALLS	#12,G^SYS$QIO
            03            50     E9  0119   425 	BLBC	R0,99$			; BRANCH ON FAILURE
                          FEE1'  30  011C   426 	BSBW	RM$STALL		; AWAIT COMPLETION
                          64     17  011F   427 99$:	JMP	(R4)			; RETURN TO CALLER
                                     0121   428 	.END
NT0ACCESS       NETWORK ACCESS/DEACCESS                          21-AUG-1978 22:15:21   VAX-11 MACRO X0.3-11               Page  12
SYMBOL TABLE                                                                                                                     (6)

$$.PSECT_EP    = 00000000            FWA$B_DIRFLGS    00000004            FWA$Q_DEVICE     0000003C
$$RMSTEST      = 0000001A            FWA$B_DIRLEN     00000030            FWA$Q_DIR        00000024
$$RMS_PBUGCHK  = 00000010            FWA$B_DIRTERM    00000007            FWA$Q_DIR1       00000044
$$RMS_TBUGCHK  = 00000008            FWA$B_DIRWCFLGS  00000005            FWA$Q_DIR2       0000004C
$$RMS_UMODE    = 00000004            FWA$B_ESCFLG     00000008            FWA$Q_FIB        0000000C
$$T1           = 00000000            FWA$B_ESCTYP     00000009            FWA$Q_FLAGS      00000000
BIT...         = 00000000            FWA$B_FLDFLGS    00000001            FWA$Q_LOGNAME    0000001C
DEV$M_ALL      = 00800000            FWA$B_LNFLG      00000006            FWA$Q_NAME       00000084
DEV$M_AVL      = 00040000            FWA$B_PARSEFLGS  00000003            FWA$Q_NODE       00000034
DEV$M_CCL      = 00000002            FWA$B_PASSFLGS   00000000            FWA$Q_QUOTED     0000009C
DEV$M_DIR      = 00000008            FWA$B_UNDERLINE  00000154            FWA$Q_RNS        0000008C
DEV$M_DMT      = 00200000            FWA$B_WILDFLGS   00000002            FWA$Q_STATBLK    00000094
DEV$M_ELG      = 00400000            FWA$B_XLTMODE    0000000A            FWA$Q_TYPE       0000008C
DEV$M_FOD      = 00004000            FWA$B_XLTTBL     0000000B            FWA$Q_VERSION    00000094
DEV$M_FOR      = 01000000            FWA$C_ALL      = 000000F8            FWA$Q_XLTBUF1    0000000C
DEV$M_GEN      = 00020000            FWA$C_DEVBUFSIZ= 0000000F            FWA$Q_XLTBUF2    00000024
DEV$M_IDV      = 04000000            FWA$C_DIRBUFSIZ= 00000009            FWA$S_DIR_LVLS = 00000003
DEV$M_MBX      = 00100000            FWA$C_FIBLEN   = 0000002C            FWA$T_ATR_LIST   00000164
DEV$M_MNT      = 00080000            FWA$C_MAXDEVICE= 0000000F            FWA$T_DEVICEBUF  00000155
DEV$M_NET      = 00002000            FWA$C_MAXDIRLEN= 0000003C            FWA$T_DIB        00000174
DEV$M_ODV      = 08000000            FWA$C_MAXNAME  = 00000009            FWA$T_DIR1BUF    000000D0
DEV$M_RCK      = 40000000            FWA$C_MAXNODE  = 00000028            FWA$T_DIR2BUF    000000D9
DEV$M_REC      = 00000001            FWA$C_MAXQUOTED= 0000007F            FWA$T_FIBBUF     000000A4
DEV$M_RND      = 10000000            FWA$C_MAXSUBDIR= 00000007            FWA$T_NAMEBUF    00000118
DEV$M_RTM      = 20000000            FWA$C_MAXTYPE  = 00000003            FWA$T_NODEBUF    0000012C
DEV$M_SDI      = 00000010            FWA$C_MAXVER   = 00000006            FWA$T_TYPEBUF    00000122
DEV$M_SHR      = 00010000            FWA$C_NAMBUFSIZ= 0000000A            FWA$T_VERBUF     00000126
DEV$M_SPL      = 00000040            FWA$C_NODBUFSIZ= 00000028            FWA$T_XLTBUFF1   00000164
DEV$M_SQD      = 00000020            FWA$C_RNSBUFSIZ= 00000014            FWA$T_XLTBUFF2   000001A4
DEV$M_SWL      = 02000000            FWA$C_TYPBUFSIZ= 00000004            FWA$V_CUR_VER  = 00000006
DEV$M_TRM      = 00000004            FWA$C_VERBUFSIZ= 00000006            FWA$V_DEVICE   = 0000000F
DEV$M_WCK      = 80000000            FWA$C_XLTBUFSIZ= 0000003F            FWA$V_DIR      = 0000000E
DEV$V_ALL      = 00000017            FWA$L_BUFFLG     00000014            FWA$V_DIR1     = 00000020
DEV$V_AVL      = 00000012            FWA$L_DEVNODADR  00000020            FWA$V_DIR2     = 00000021
DEV$V_CCL      = 00000001            FWA$L_ESCSTRING  00000008            FWA$V_DIR_LVLS = 0000001D
DEV$V_DIR      = 00000003            FWA$L_HBK        00000098            FWA$V_DUPOK    = 00000000
DEV$V_DMT      = 00000015            FWA$L_LOOKUP     0000001C            FWA$V_EXP_DEV  = 00000017
DEV$V_ELG      = 00000016            FWA$L_SBN        00000094            FWA$V_EXP_DIR  = 00000016
DEV$V_FOD      = 0000000E            FWA$L_UIC        0000001C            FWA$V_EXP_NAME = 00000012
DEV$V_FOR      = 00000018            FWA$L_XLTCNT     0000002C            FWA$V_EXP_TYPE = 00000011
DEV$V_GEN      = 00000011            FWA$L_XLTSIZ     00000018            FWA$V_EXP_VER  = 00000010
DEV$V_IDV      = 0000001A            FWA$M_DEVICE   = 00008000            FWA$V_FNA_PASS = 00000004
DEV$V_MBX      = 00000014            FWA$M_DIR      = 00004000            FWA$V_GRPMBR   = 0000001B
DEV$V_MNT      = 00000013            FWA$M_DUPOK    = 00000001            FWA$V_LOGNAME  = 00000030
DEV$V_NET      = 0000000D            FWA$M_EXP_DEV  = 00800000            FWA$V_NAME     = 0000000D
DEV$V_ODV      = 0000001B            FWA$M_EXP_DIR  = 00400000            FWA$V_NAMEFLG  = 00000001
DEV$V_RCK      = 0000001E            FWA$M_EXP_NAME = 00040000            FWA$V_NAM_DVI  = 00000005
DEV$V_REC      = 00000000            FWA$M_EXP_TYPE = 00020000            FWA$V_NETSTR   = 00000032
DEV$V_RND      = 0000001C            FWA$M_EXP_VER  = 00010000            FWA$V_NODE     = 00000019
DEV$V_RTM      = 0000001D            FWA$M_FNA_PASS = 00000010            FWA$V_OBJTYPE  = 00000031
DEV$V_SDI      = 00000004            FWA$M_NAME     = 00002000            FWA$V_QUOTED   = 0000001A
DEV$V_SHR      = 00000010            FWA$M_NAMEFLG  = 00000002            FWA$V_RLF_PASS = 00000003
DEV$V_SPL      = 00000006            FWA$M_NAM_DVI  = 00000020            FWA$V_TYPE     = 0000000C
DEV$V_SQD      = 00000005            FWA$M_RLF_PASS = 00000008            FWA$V_TYPEFLG  = 00000002
DEV$V_SWL      = 00000019            FWA$M_TYPE     = 00001000            FWA$V_VERSION  = 0000000B
DEV$V_TRM      = 00000002            FWA$M_TYPEFLG  = 00000004            FWA$V_WC_NAME  = 00000015
DEV$V_WCK      = 0000001F            FWA$M_VERSION  = 00000800            FWA$V_WC_TYPE  = 00000014
NT0ACCESS       NETWORK ACCESS/DEACCESS                          21-AUG-1978 22:15:21   VAX-11 MACRO X0.3-11               Page  13
SYMBOL TABLE                                                                                                                     (6)

FWA$V_WC_VER   = 00000013            IFB$L_IOS        0000000C            IFB$W_ASDEVBSIZ  0000005A
FWA$V_WILDCARD = 00000018            IFB$L_IOS4       00000010            IFB$W_BKS_BYTES  0000005C
FWA$V_WILD_DIR = 0000001C            IFB$L_IRAB_LNK   0000001C            IFB$W_BKS_RECS   0000005E
FWA$V_WILD_GRP = 00000028            IFB$L_LAST_FAB   00000024            IFB$W_CHNL       00000020
FWA$V_WILD_MBR = 00000029            IFB$L_LOCK_BDB   00000050            IFB$W_DEQ        0000004E
FWA$V_WILD_SFD1= 00000029            IFB$L_MRN        00000054            IFB$W_DEVBUFSIZ  00000038
FWA$V_WILD_UFD = 00000028            IFB$L_NRP_LNK    00000050            IFB$W_EBK0       00000044
FWA$W_ESCIFI     0000000A            IFB$L_NWA_PTR    00000028            IFB$W_EBK2       00000046
FWA$W_FNAMSIZ    00000018            IFB$L_PRIM_DEV   00000000            IFB$W_FFB        00000048
FWA$W_PRO        00000020            IFB$L_RLB_LNK    0000002C            IFB$W_IOS2       0000000E
FWA$W_UCHAR      0000002C            IFB$L_RNS_LEN    00000050            IFB$W_LRL        0000003E
GBL...         = 00000000            IFB$M_BIO      = 00000020            IFB$W_MRS        0000004C
IFB$B_AMAX       00000059            IFB$M_BRO      = 00000040            IFB$W_RTDEQ      0000003A
IFB$B_AVBN       00000058            IFB$M_DEL      = 00000004            IO$M_ABORT     = 00000100
IFB$B_BID        00000008            IFB$M_EXE      = 00000080            IO$M_ACCESS    = 00000040
IFB$B_BKS        0000004A            IFB$M_GET      = 00000002            IO$M_ATTNAST   = 00000100
IFB$B_BLN        00000009            IFB$M_PUT      = 00000001            IO$M_BINARY    = 00000040
IFB$B_EFN        0000000B            IFB$M_TRN      = 00000010            IO$M_CANCTRLO  = 00000040
IFB$B_EXTRABUF   0000005D            IFB$M_UPD      = 00000008            IO$M_COMMOD    = 00000040
IFB$B_FAC        00000022            IFB$S_ORG      = 00000004            IO$M_CREATE    = 00000080
IFB$B_FSZ        0000004B            IFB$S_RFM      = 00000004            IO$M_CTRLCAST  = 00000100
IFB$B_KBUFSZ     0000005C            IFB$V_ACCESSED = 00000025            IO$M_CTRLYAST  = 00000080
IFB$B_MODE       0000000A            IFB$V_ANSI_D   = 00000026            IO$M_CVTLOW    = 00000100
IFB$B_NUM_KEYS   0000005A            IFB$V_ASYNC    = 00000023            IO$M_DATACHECK = 00004000
IFB$B_ORGCASE    00000023            IFB$V_ASYNCWAIT= 00000024            IO$M_DELETE    = 00000100
IFB$B_RAT        0000003D            IFB$V_BIO      = 00000005            IO$M_DMOUNT    = 00000400
IFB$B_RFMORG     0000003C            IFB$V_BRO      = 00000006            IO$M_DSABLMBX  = 00000400
IFB$B_UBUFSZ     0000005B            IFB$V_BUSY     = 00000020            IO$M_ENABLMBX  = 00000080
IFB$C_BID      = 0000000B            IFB$V_CREATE   = 00000032            IO$M_FCODE     = 0000003F
IFB$C_BLN        00000060            IFB$V_DAP      = 0000003E            IO$M_HANGUP    = 00000200
IFB$C_BLN_IDX    00000060            IFB$V_DAP_OPEN = 0000003D            IO$M_INHERLOG  = 00000800
IFB$C_BLN_REL    00000060            IFB$V_DEL      = 00000002            IO$M_INHEXTGAP = 00001000
IFB$C_BLN_SEQ    0000005C            IFB$V_DFW      = 0000002C            IO$M_INHRETRY  = 00008000
IFB$C_DIR      = 00000003            IFB$V_DLT      = 0000002B            IO$M_INHSEEK   = 00001000
IFB$C_FHAEND     00000050            IFB$V_DMO      = 00000028            IO$M_INTERRUPT = 00000040
IFB$C_IDX      = 00000002            IFB$V_EOF      = 00000021            IO$M_INTSKIP   = 00000100
IFB$C_MAXORG   = 00000002            IFB$V_EXE      = 00000007            IO$M_MOUNT     = 00000200
IFB$C_REL      = 00000001            IFB$V_GET      = 00000001            IO$M_NOECHO    = 00000040
IFB$C_SEQ      = 00000000            IFB$V_MSE      = 00000031            IO$M_NOFILTR   = 00000200
IFB$K_BLN        00000060            IFB$V_NORECLK  = 00000033            IO$M_NOFORMAT  = 00000100
IFB$K_BLN_IDX    00000060            IFB$V_NSP      = 0000003F            IO$M_NOW       = 00000040
IFB$K_BLN_REL    00000060            IFB$V_NWA      = 0000003C            IO$M_NOWAIT    = 00000080
IFB$K_BLN_SEQ    0000005C            IFB$V_ORG      = 00000004            IO$M_PACKED    = 00000080
IFB$K_FHAEND     00000050            IFB$V_PPF_IMAGE= 00000022            IO$M_PURGE     = 00000800
IFB$L_ARGLST     00000018            IFB$V_PPF_INPUT= 0000002E            IO$M_READATTN  = 00000080
IFB$L_ASBADDR    00000014            IFB$V_PUT      = 00000000            IO$M_REVERSE   = 00000040
IFB$L_AS_DEV     00000054            IFB$V_RFM      = 00000000            IO$M_SHUTDOWN  = 00000080
IFB$L_BDB_BLNK   00000034            IFB$V_RWC      = 00000027            IO$M_STARTUP   = 00000040
IFB$L_BDB_FLNK   00000030            IFB$V_RW_ATTR  = 00000034            IO$M_SYNCH     = 00000200
IFB$L_BKPBITS    00000004            IFB$V_SCF      = 0000002A            IO$M_TIMED     = 00000080
IFB$L_BWB        0000000C            IFB$V_SPL      = 00000029            IO$M_TRMNOECHO = 00001000
IFB$L_DVBN       00000058            IFB$V_SQO      = 0000002D            IO$M_WRTATTN   = 00000100
IFB$L_EBK        00000044            IFB$V_TEF      = 00000036            IO$S_FCODE     = 00000006
IFB$L_FRB_PTR    00000028            IFB$V_TMP      = 00000035            IO$V_ABORT     = 00000008
IFB$L_FWA_BDB    00000050            IFB$V_TRN      = 00000004            IO$V_ACCESS    = 00000006
IFB$L_HBK        00000040            IFB$V_UPD      = 00000003            IO$V_ATTNAST   = 00000008
IFB$L_IDX_PTR    00000054            IFB$V_WRTACC   = 00000030            IO$V_BINARY    = 00000006
NT0ACCESS       NETWORK ACCESS/DEACCESS                          21-AUG-1978 22:15:21   VAX-11 MACRO X0.3-11               Page  14
SYMBOL TABLE                                                                                                                     (6)

IO$V_CANCTRLO  = 00000006            IO$_RECAL      = 00000003            PSL$M_PRVMOD   = 00C00000
IO$V_COMMOD    = 00000006            IO$_RELEASE    = 00000005            PSL$M_SAFBITS  = 000037FF
IO$V_CREATE    = 00000007            IO$_RETCENTER  = 00000007            PSL$M_TBIT     = 00000010
IO$V_CTRLCAST  = 00000008            IO$_REWIND     = 00000024            PSL$M_TP       = 40000000
IO$V_CTRLYAST  = 00000007            IO$_REWINDOFF  = 00000022            PSL$S_CURMOD   = 00000002
IO$V_CVTLOW    = 00000008            IO$_SEARCH     = 00000009            PSL$S_IPL      = 00000005
IO$V_DATACHECK = 0000000E            IO$_SEEK       = 00000002            PSL$S_PRVMOD   = 00000002
IO$V_DELETE    = 00000008            IO$_SENSECHAR  = 0000001B            PSL$V_CM       = 0000001F
IO$V_DMOUNT    = 0000000A            IO$_SENSEMODE  = 00000027            PSL$V_CURMOD   = 00000018
IO$V_DSABLMBX  = 0000000A            IO$_SETCHAR    = 0000001A            PSL$V_DV       = 00000007
IO$V_ENABLMBX  = 00000007            IO$_SETMODE    = 00000023            PSL$V_FPD      = 0000001B
IO$V_FCODE     = 00000000            IO$_SKIPFILE   = 00000025            PSL$V_FU       = 00000006
IO$V_HANGUP    = 00000009            IO$_SKIPRECORD = 00000026            PSL$V_IPL      = 00000010
IO$V_INHERLOG  = 0000000B            IO$_SPACEFILE  = 00000002            PSL$V_IS       = 0000001A
IO$V_INHEXTGAP = 0000000C            IO$_SPACERECORD= 00000009            PSL$V_IV       = 00000005
IO$V_INHRETRY  = 0000000F            IO$_STARTSPNDL = 00000019            PSL$V_PRVMOD   = 00000016
IO$V_INHSEEK   = 0000000C            IO$_UNLOAD     = 00000001            PSL$V_TBIT     = 00000004
IO$V_INTERRUPT = 00000006            IO$_VIRTUAL    = 0000003F            PSL$V_TP       = 0000001E
IO$V_INTSKIP   = 00000008            IO$_WRITECHECK = 0000000A            RM$SETEFN        ********   X   02
IO$V_MOUNT     = 00000009            IO$_WRITECHECKH= 00000018            RM$STALL         ********   X   02
IO$V_NOECHO    = 00000006            IO$_WRITEHEAD  = 0000000D            RM$STALLAST      ********   X   02
IO$V_NOFILTR   = 00000009            IO$_WRITELBLK  = 00000020            SYS$ASSIGN       ********   X   02
IO$V_NOFORMAT  = 00000008            IO$_WRITEMARK  = 0000001C            SYS$QIO          ********   X   02
IO$V_NOW       = 00000006            IO$_WRITEOF    = 00000028            TPT$L_NTACC_DAP  ********   X   02
IO$V_NOWAIT    = 00000007            IO$_WRITEPBLK  = 0000000B            TPT$L_NTACC_NSP  ********   X   02
IO$V_PACKED    = 00000007            IO$_WRITETRACKD= 0000000F            TPT$L_NTDEACCES  ********   X   02
IO$V_PURGE     = 0000000B            IO$_WRITEVBLK  = 00000030
IO$V_READATTN  = 00000007            NT$ACCESS        00000058 RG    02
IO$V_REVERSE   = 00000006            NT$ALTER_DEV     00000031 RG    02
IO$V_SHUTDOWN  = 00000007            NT$ASSIGN        00000000 RG    02
IO$V_STARTUP   = 00000006            NT$DEACCESS      000000E8 RG    02
IO$V_SYNCH     = 00000009            NWA$B_QUOTEDTRN  0000013F
IO$V_TIMED     = 00000007            NWA$C_BLN        00000400
IO$V_TRMNOECHO = 0000000C            NWA$C_BUFFERSIZ= 000002A0
IO$V_WRTATTN   = 00000008            NWA$C_DAPSIZ   = 000000C0
IO$_ACCESS     = 00000032            NWA$K_BLN        00000400
IO$_ACPCONTROL = 00000038            NWA$Q_BUFFER     00000140
IO$_CREATE     = 00000033            NWA$Q_BUFFER2    00000148
IO$_DEACCESS   = 00000034            NWA$Q_FLG        00000000
IO$_DELETE     = 00000035            NWA$T_BUFFER     00000160
IO$_DIAGNOSE   = 0000001D            NWA$T_DAP        00000000
IO$_DRVCLR     = 00000004            NWA$T_FILESPEC   000000C0
IO$_ERASETAPE  = 00000006            NWA$T_QUOTEDBUF  000000C0
IO$_LOGICAL    = 0000002F            NWA$T_SPARE      00000150
IO$_MODIFY     = 00000036            PIO$GL_FMLH      ********   X   02
IO$_MOUNT      = 00000039            PSL$C_EXEC     = 00000001
IO$_NOP        = 00000000            PSL$C_KERNEL   = 00000000
IO$_OFFSET     = 00000006            PSL$C_SUPER    = 00000002
IO$_PACKACK    = 00000008            PSL$C_USER     = 00000003
IO$_PHYSICAL   = 0000001F            PSL$M_CM       = 80000000
IO$_READHEAD   = 0000000E            PSL$M_CURMOD   = 03000000
IO$_READLBLK   = 00000021            PSL$M_DV       = 00000080
IO$_READPBLK   = 0000000C            PSL$M_FPD      = 08000000
IO$_READPRESET = 00000019            PSL$M_FU       = 00000040
IO$_READPROMPT = 00000037            PSL$M_IPL      = 001F0000
IO$_READTRACKD = 00000010            PSL$M_IS       = 04000000
IO$_READVBLK   = 00000031            PSL$M_IV       = 00000020
NT0ACCESS       NETWORK ACCESS/DEACCESS                          21-AUG-1978 22:15:21   VAX-11 MACRO X0.3-11               Page  15
PROGRAM SECTION SYNOPSIS                                                                                                         (6)


PROGRAM SECTION SYNOPSIS

.  ABS  .        00000000      00     NOPIC   USR   CON   ABS   LCL NOSHR NOEXE NORD  NOWRT BYTE
. BLANK .        00000000      01     NOPIC   USR   CON   REL   LCL NOSHR   EXE   RD    WRT BYTE
NF$NETWORK       00000121      02     NOPIC   USR   CON   REL   GBL NOSHR   EXE   RD  NOWRT BYTE
$ABS$            00000400      03     NOPIC   USR   CON   ABS   LCL NOSHR   EXE   RD    WRT BYTE


THERE WERE NO ERRORS OR WARNINGS.
11054. BYTES LEFT IN FREE MEMORY POOL.
2860. BYTES OF RECLAIMED MEMORY.
OBJ$:NT0ACCESS,LIS$:NT0ACCESS/-SP=LIB$:N/ML,R/ML,SRC$:NT0ACCESS
57 MLB DIR RDS - 797 GETS TO DEFINE 25 MACROS. 66 INTER. FILE WRITES.
