NT0DAPRMS       DAP TO RMS ERROR CONVERSION                      21-AUG-1978 22:20:01   VAX-11 MACRO X0.3-11               Page   0
TABLE OF CONTENTS

   (2)      39  DECLARATIONS
   (3)      80  NT$DAP_RMS_TBL - DAP/RMS STATUS TABLE
NT0DAPRMS       DAP TO RMS ERROR CONVERSION                      21-AUG-1978 22:20:01   VAX-11 MACRO X0.3-11               Page   1
004                                                                                                                              (1)

                                     0000     1 	$BEGIN	NT0DAPRMS,004,NF$NETWORK,<DAP TO RMS ERROR CONVERSION>
                                     0000     2
                                     0000     3
                                     0000     4 ;
                                     0000     5 ;			  COPYRIGHT (c) 1977, 1978 BY
                                     0000     6 ;	      DIGITAL EQUIPMENT CORPORATION, MAYNARD, MASS.
                                     0000     7 ;
                                     0000     8 ; THIS SOFTWARE IS FURNISHED UNDER A LICENSE AND MAY BE USED AND  COPIED
                                     0000     9 ; ONLY  IN  ACCORDANCE  WITH  THE  TERMS  OF  SUCH  LICENSE AND WITH THE
                                     0000    10 ; INCLUSION OF THE ABOVE COPYRIGHT NOTICE.  THIS SOFTWARE OR  ANY  OTHER
                                     0000    11 ; COPIES  THEREOF MAY NOT BE PROVIDED OR OTHERWISE MADE AVAILABLE TO ANY
                                     0000    12 ; OTHER PERSON.  NO TITLE TO AND OWNERSHIP OF  THE  SOFTWARE  IS  HEREBY
                                     0000    13 ; TRANSFERRED.
                                     0000    14 ;
                                     0000    15 ; THE INFORMATION IN THIS SOFTWARE IS SUBJECT TO CHANGE  WITHOUT  NOTICE
                                     0000    16 ; AND  SHOULD  NOT  BE  CONSTRUED  AS  A COMMITMENT BY DIGITAL EQUIPMENT
                                     0000    17 ; CORPORATION.
                                     0000    18 ;
                                     0000    19 ; DIGITAL ASSUMES NO RESPONSIBILITY FOR THE USE OR  RELIABILITY  OF  ITS
                                     0000    20 ; SOFTWARE ON EQUIPMENT WHICH IS NOT SUPPLIED BY DIGITAL.
                                     0000    21 ;
                                     0000    22
                                     0000    23 ;++
                                     0000    24 ; FACILITY: RMS32
                                     0000    25 ;
                                     0000    26 ; ABSTRACT:
                                     0000    27
                                     0000    28 ;	THIS MODULE CONTAINS THE DAP/RMS STATUS CODE CONVERSION TABLE
                                     0000    29 ;	ORGANIZED BY ASCENDING DAP STATUS CODE VALUES.
                                     0000    30 ;
                                     0000    31 ; ENVIRONMENT: VAX/VMS
                                     0000    32 ;
                                     0000    33 ; AUTHOR: JAMES A. KRYCKA,	CREATION DATE: 7-DEC-77
                                     0000    34 ;
                                     0000    35 ; MODIFICATIONS:
                                     0000    36 ;
                                     0000    37 ;--
NT0DAPRMS       DAP TO RMS ERROR CONVERSION                      21-AUG-1978 22:20:01   VAX-11 MACRO X0.3-11               Page   2
004             DECLARATIONS                                                                                                     (2)

                                     0000    39 	.SBTTL	DECLARATIONS
                                     0000    40
                                     0000    41 ;
                                     0000    42 ; INCLUDE FILES:
                                     0000    43 ;
                                     0000    44 	$RMSDEF				; DEFINE RMS COMPLETION CODES
                                     0000    45 ;
                                     0000    46 ; MACROS:
                                     0000    47 ;
                                     0000    48 ;++
                                     0000    49 ; DAPRMS_INIT INITIALIZES THE DAP/RMS STATUS CODE CONVERSION TABLE WHERE:
                                     0000    50 ;	MAXDAP	= THE LARGEST DAP STATUS CODE VALUE
                                     0000    51 ;	DEFAULT	= THE DEFAULT RMS COMPLETION CODE
                                     0000    52 ;--
                                     0000    53
                                     0000    54 	.MACRO	DAPRMS_INIT	MAXDAP,DEFAULT
                                     0000    55 	.REPT	<MAXDAP+1>
                                     0000    56 	.WORD	<RMS$_'DEFAULT&^XFFFF>
                                     0000    57 	.ENDR
                                     0000    58 	.ENDM	DAPRMS_INIT
                                     0000    59
                                     0000    60 ;++
                                     0000    61 ; DAPRMS DEFINES AN ENTRY IN THE DAP/RMS STATUS CODE CONVERSION TABLE WHERE:
                                     0000    62 ;	DAPCODE	= THE DAP STATUS CODE
                                     0000    63 ;	RMSCODE	= THE RMS COMPLETION CODE
                                     0000    64 ;--
                                     0000    65
                                     0000    66 	.MACRO	DAPRMS	DAPCODE,RMSCODE
                                     0000    67 	.=<DAPCODE*2>
                                     0000    68 	.WORD	<RMS$_'RMSCODE&^XFFFF>
                                     0000    69 	.ENDM	DAPRMS
                                     0000    70
                                     0000    71 ;
                                     0000    72 ; EQUATED SYMBOLS:
                                     0000    73 ;
                                     0000    74 ;	NONE
                                     0000    75 ;
                                     0000    76 ; OWN STORAGE:
                                     0000    77 ;
                                     0000    78 ;	NONE
NT0DAPRMS       DAP TO RMS ERROR CONVERSION                      21-AUG-1978 22:20:01   VAX-11 MACRO X0.3-11               Page   3
004             NT$DAP_RMS_TBL - DAP/RMS STATUS TABLE                                                                            (3)

                                     0000    80 	.SBTTL	NT$DAP_RMS_TBL - DAP/RMS STATUS TABLE
                                     0000    81
                                     0000    82 ;+
                                     0000    83 ; NOTE: THE DEFINITION OF THE SYMBOLIC RMS COMPLETION CODES ARE DOCUMENTED
                                     0000    84 ; IN THE RMS-32 SPECIFICATION AND IN THE VAX MANUAL SET; THEREFORE, THE
                                     0000    85 ; EXPLANATIONS WILL NOT BE DUPLICATED HERE.
                                     0000    86 ;-
                                     0000    87
                                     0000    88 NT$DAP_TO_RMS::				; START OF DAP/RMS CONVERSION TABLE
                                     0000    89
                                     0000    90 	DAPRMS_INIT	MAXDAP=199,DEFAULT=NET
                                     0190    91
                                     0190    92 	DAPRMS	1,ABO			; CURRENTLY UNUSED BY RMS-32
                                     0004    93 	DAPRMS	2,ACC
                                     0006    94 	DAPRMS	3,ACT
                                     0008    95 	DAPRMS	4,AID
                                     000A    96 	DAPRMS	5,ALN
                                     000C    97 	DAPRMS	6,ALQ
                                     000E    98 	DAPRMS	7,ANI
                                     0010    99 	DAPRMS	8,AOP
                                     0012   100 	DAPRMS	10,ATR
                                     0016   101 	DAPRMS	11,ATW
                                     0018   102 	DAPRMS	12,BKS
                                     001A   103 	DAPRMS	13,BKZ
                                     001C   104 	DAPRMS	14,BLN
                                     001E   105 	DAPRMS	15,BOF
                                     0020   106 	DAPRMS	18,BUG
                                     0026   107 	DAPRMS	19,CCR
                                     0028   108 	DAPRMS	20,CHG			; CURRENTLY UNUSED BY RMS-32
                                     002A   109 	DAPRMS	21,CHK
                                     002C   110 	DAPRMS	23,COD
                                     0030   111 	DAPRMS	24,CRE
                                     0032   112 	DAPRMS	25,CUR
                                     0034   113 	DAPRMS	26,DAC
                                     0036   114 	DAPRMS	27,DAN			; CURRENTLY UNUSED BY RMS-32
                                     0038   115 	DAPRMS	28,DEL
                                     003A   116 	DAPRMS	29,DEV
                                     003C   117 	DAPRMS	30,DIR
                                     003E   118 	DAPRMS	31,DME
                                     0040   119 	DAPRMS	32,DNF
                                     0042   120 	DAPRMS	33,DNR
                                     0044   121 	DAPRMS	34,DPE
                                     0046   122 	DAPRMS	35,DTP			; CURRENTLY UNUSED BY RMS-32
                                     0048   123 	DAPRMS	36,DUP			; CURRENTLY UNUSED BY RMS-32
                                     004A   124 	DAPRMS	37,ENT
                                     004C   125 	DAPRMS	38,ENV
                                     004E   126 	DAPRMS	39,EOF
                                     0050   127 	DAPRMS	40,ESS
                                     0052   128 	DAPRMS	41,EXP
                                     0054   129 	DAPRMS	42,EXT
                                     0056   130 	DAPRMS	43,FAB
                                     0058   131 	DAPRMS	44,FAC
                                     005A   132 	DAPRMS	45,FEX
                                     005C   133 	DAPRMS	47,FLG			; CURRENTLY UNUSED BY RMS-32
                                     0060   134 	DAPRMS	48,FLK
                                     0062   135 	DAPRMS	49,FND
                                     0064   136 	DAPRMS	50,FNF
NT0DAPRMS       DAP TO RMS ERROR CONVERSION                      21-AUG-1978 22:20:01   VAX-11 MACRO X0.3-11               Page   4
004             NT$DAP_RMS_TBL - DAP/RMS STATUS TABLE                                                                            (3)

                                     0066   137 	DAPRMS	51,FNM
                                     0068   138 	DAPRMS	52,FOP
                                     006A   139 	DAPRMS	53,FUL
                                     006C   140 	DAPRMS	54,IAN			; CURRENTLY UNUSED BY RMS-32
                                     006E   141 	DAPRMS	55,IFI
                                     0070   142 	DAPRMS	56,IMX
                                     0072   143 	DAPRMS	58,IOP
                                     0076   144 	DAPRMS	59,IRC
                                     0078   145 	DAPRMS	60,ISI
                                     007A   146 	DAPRMS	61,KBF
                                     007C   147 	DAPRMS	62,KEY
                                     007E   148 	DAPRMS	63,KRF			; CURRENTLY UNUSED BY RMS-32
                                     0080   149 	DAPRMS	64,KSZ
                                     0082   150 	DAPRMS	65,LAN			; CURRENTLY UNUSED BY RMS-32
                                     0084   151 	DAPRMS	66,LBL			; CURRENTLY UNUSED BY RMS-32
                                     0086   152 	DAPRMS	70,LOC			; CURRENTLY UNUSED BY RMS-32
                                     008E   153 	DAPRMS	72,MKD
                                     0092   154 	DAPRMS	73,MRN
                                     0094   155 	DAPRMS	74,MRS
                                     0096   156 	DAPRMS	75,NAM
                                     0098   157 	DAPRMS	76,NEF
                                     009A   158 	DAPRMS	77,NID			; CURRENTLY UNUSED BY RMS-32
                                     009C   159 	DAPRMS	78,NPK			; CURRENTLY UNUSED BY RMS-32
                                     009E   160 	DAPRMS	80,ORD			; CURRENTLY UNUSED BY RMS-32
                                     00A2   161 	DAPRMS	81,ORG
                                     00A4   162 	DAPRMS	82,PLG
                                     00A6   163 	DAPRMS	83,POS			; CURRENTLY UNUSED BY RMS-32
                                     00A8   164 	DAPRMS	84,PRM			; CURRENTLY UNUSED BY RMS-32
                                     00AA   165 	DAPRMS	85,PRV
                                     00AC   166 	DAPRMS	86,RAB
                                     00AE   167 	DAPRMS	87,RAC
                                     00B0   168 	DAPRMS	88,RAT
                                     00B2   169 	DAPRMS	89,RBF
                                     00B4   170 	DAPRMS	90,RER
                                     00B6   171 	DAPRMS	91,REX
                                     00B8   172 	DAPRMS	92,RFA
                                     00BA   173 	DAPRMS	93,RFM
                                     00BC   174 	DAPRMS	94,RLK
                                     00BE   175 	DAPRMS	95,RMV
                                     00C0   176 	DAPRMS	96,RNF
                                     00C2   177 	DAPRMS	97,RNL
                                     00C4   178 	DAPRMS	98,ROP			; CURRENTLY UNUSED BY RMS-32
                                     00C6   179 	DAPRMS	99,RPL
                                     00C8   180 	DAPRMS	100,RRV			; CURRENTLY UNUSED BY RMS-32
                                     00CA   181 	DAPRMS	101,RSA
                                     00CC   182 	DAPRMS	102,RSZ
                                     00CE   183 	DAPRMS	103,RTB
                                     00D0   184 	DAPRMS	104,SEQ			; CURRENTLY UNUSED BY RMS-32
                                     00D2   185 	DAPRMS	105,SHR
                                     00D4   186 	DAPRMS	106,SIZ			; CURRENTLY UNUSED BY RMS-32
                                     00D6   187 	DAPRMS	107,STK			; CURRENTLY UNUSED BY RMS-32
                                     00D8   188 	DAPRMS	108,SYS
                                     00DA   189 	DAPRMS	109,TRE			; CURRENTLY UNUSED BY RMS-32
                                     00DC   190 	DAPRMS	110,TYP
                                     00DE   191 	DAPRMS	111,UBF
                                     00E0   192 	DAPRMS	112,USZ
                                     00E2   193 	DAPRMS	113,VER
NT0DAPRMS       DAP TO RMS ERROR CONVERSION                      21-AUG-1978 22:20:01   VAX-11 MACRO X0.3-11               Page   5
004             NT$DAP_RMS_TBL - DAP/RMS STATUS TABLE                                                                            (3)

                                     00E4   194 	DAPRMS	114,VOL			; CURRENTLY UNUSED BY RMS-32
                                     00E6   195 	DAPRMS	115,WER
                                     00E8   196 	DAPRMS	116,WLK
                                     00EA   197 	DAPRMS	117,WPL
                                     00EC   198 	DAPRMS	118,XAB
                                     00EE   199 	DAPRMS	119,BUG_DDI
                                     00F0   200 	DAPRMS	120,CAA
                                     00F2   201 	DAPRMS	121,CCF			; CURRENTLY UNUSED BY RMS-32
                                     00F4   202 	DAPRMS	122,CDA
                                     00F6   203 	DAPRMS	123,CHN
                                     00F8   204 	DAPRMS	124,CONTROLO
                                     00FA   205 	DAPRMS	125,CONTROLY
                                     00FC   206 	DAPRMS	126,DNA
                                     00FE   207 	DAPRMS	127,DVI
                                     0100   208 	DAPRMS	128,ESA
                                     0102   209 	DAPRMS	129,FNA
                                     0104   210 	DAPRMS	130,FSZ
                                     0106   211 	DAPRMS	131,IAL
                                     0108   212 	DAPRMS	132,KFF
                                     010A   213 	DAPRMS	133,LNE
                                     010C   214 	DAPRMS	134,NOD
                                     010E   215 	DAPRMS	135,NORMAL
                                     0110   216 	DAPRMS	136,OK_DUP
                                     0112   217 	DAPRMS	137,OK_IDX
                                     0114   218 	DAPRMS	138,OK_RLK
                                     0116   219 	DAPRMS	139,OK_RRV
                                     0118   220 	DAPRMS	140,CREATED
                                     011A   221 	DAPRMS	141,PBF
                                     011C   222 	DAPRMS	142,PENDING
                                     011E   223 	DAPRMS	143,QUO
                                     0120   224 	DAPRMS	144,RHB
                                     0122   225 	DAPRMS	145,RLF
                                     0124   226 	DAPRMS	146,RSS
                                     0126   227 	DAPRMS	147,RST
                                     0128   228 	DAPRMS	148,SQO
                                     012A   229 	DAPRMS	149,SUC
                                     012C   230 	DAPRMS	150,SUPERSEDE
                                     012E   231 	DAPRMS	151,SYN
                                     0130   232 	DAPRMS	152,TMO
                                     0132   233 	DAPRMS	199,NMF
                                     0190   234 ;
                                     0190   235 ; THE FOLLOWING RMS CODES HAVE NO CORRESPONDING DAP CODES IN THE DAP
                                     0190   236 ; SPECIFICATION.
                                     0190   237 ;
                                     0190   238 ;	DAPRMS	???,OK_ALK
                                     0190   239 ;	DAPRMS	???,OK_DEL
                                     0190   240 ;	DAPRMS	???,OK_RNF
                                     0190   241 ;	DAPRMS	???,CONTROLC
                                     0190   242 ;	DAPRMS	???,IDX			; CURRENTLY UNUSED BY RMS-32
                                     0190   243 ;	DAPRMS	???,ESL
                                     0190   244 ;	DAPRMS	???,PLV
                                     0190   245 ;	DAPRMS	???,MBC
                                     0190   246 ;	DAPRMS	???,RSL
                                     0190   247 ;	DAPRMS	???,IFA
                                     0190   248 	.END
NT0DAPRMS       DAP TO RMS ERROR CONVERSION                      21-AUG-1978 22:20:01   VAX-11 MACRO X0.3-11               Page   6
SYMBOL TABLE                                                                                                                     (3)

$$.PSECT_EP    = 00000000            RMS$_DPE       = 0001C03A            RMS$_OK_DUP    = 00018011
$$RMSTEST      = 0000001A            RMS$_DTP       = 000184E4            RMS$_OK_IDX    = 00018019
$$RMS_PBUGCHK  = 00000010            RMS$_DUP       = 000184EC            RMS$_OK_LIM    = 00018051
$$RMS_TBUGCHK  = 00000008            RMS$_DVI       = 000184F4            RMS$_OK_RLK    = 00018021
$$RMS_UMODE    = 00000004            RMS$_ENT       = 0001C01A            RMS$_OK_RNF    = 00018049
BIT...         = 0001C134            RMS$_ENV       = 00018724            RMS$_OK_RRV    = 00018029
GBL...         = 00000000            RMS$_EOF       = 0001827A            RMS$_ORD       = 00018604
NT$DAP_TO_RMS    00000000 RG    02   RMS$_ESA       = 000184FC            RMS$_ORG       = 0001860C
RMS$V_STVSTATUS= 0000000E            RMS$_ESL       = 00018714            RMS$_PBF       = 00018614
RMS$_ABO       = 000183EC            RMS$_ESS       = 00018504            RMS$_PENDING   = 00018009
RMS$_ACC       = 0001C002            RMS$_EXP       = 000182C2            RMS$_PLG       = 0001861C
RMS$_ACT       = 0001825A            RMS$_EXT       = 0001C022            RMS$_PLV       = 0001872C
RMS$_AID       = 000183F4            RMS$_FAB       = 0001850C            RMS$_POS       = 00018624
RMS$_ALN       = 000183FC            RMS$_FAC       = 00018514            RMS$_PRM       = 0001862C
RMS$_ALQ       = 00018404            RMS$_FEX       = 00018282            RMS$_PRV       = 0001829A
RMS$_ANI       = 0001840C            RMS$_FLG       = 0001851C            RMS$_QUO       = 00018634
RMS$_AOP       = 00018414            RMS$_FLK       = 0001828A            RMS$_RAB       = 0001863C
RMS$_ATR       = 0001C0CC            RMS$_FNA       = 00018524            RMS$_RAC       = 00018644
RMS$_ATW       = 0001C0D4            RMS$_FND       = 0001C02A            RMS$_RAT       = 0001864C
RMS$_BKS       = 0001841C            RMS$_FNF       = 00018292            RMS$_RBF       = 00018654
RMS$_BKZ       = 00018424            RMS$_FNM       = 0001852C            RMS$_RER       = 0001C0F4
RMS$_BLN       = 0001842C            RMS$_FOP       = 0001853C            RMS$_REX       = 000182A2
RMS$_BOF       = 00018198            RMS$_FSZ       = 00018534            RMS$_RFA       = 0001865C
RMS$_BUG       = 00018434            RMS$_FUL       = 00018544            RMS$_RFM       = 00018664
RMS$_BUG_DAP   = 00018444            RMS$_IAL       = 0001854C            RMS$_RHB       = 0001866C
RMS$_BUG_DDI   = 0001843C            RMS$_IAN       = 00018554            RMS$_RLF       = 00018674
RMS$_BUG_XX2   = 0001844C            RMS$_IBF       = 00018754            RMS$_RLK       = 000182AA
RMS$_BUG_XX3   = 00018454            RMS$_IDX       = 0001855C            RMS$_RMV       = 0001C0FC
RMS$_BUG_XX4   = 0001845C            RMS$_IFA       = 0001C124            RMS$_RNF       = 000182B2
RMS$_BUG_XX5   = 00018464            RMS$_IFI       = 00018564            RMS$_RNL       = 000181A0
RMS$_BUG_XX6   = 0001846C            RMS$_IMX       = 0001856C            RMS$_ROP       = 0001867C
RMS$_BUG_XX7   = 00018474            RMS$_IOP       = 00018574            RMS$_RPL       = 0001C104
RMS$_BUG_XX8   = 0001847C            RMS$_IRC       = 0001857C            RMS$_RRV       = 00018684
RMS$_BUG_XX9   = 00018484            RMS$_ISI       = 00018584            RMS$_RSA       = 000182DA
RMS$_CAA       = 0001848C            RMS$_KBF       = 0001858C            RMS$_RSL       = 0001873C
RMS$_CCF       = 0001C0DC            RMS$_KEY       = 00018594            RMS$_RSS       = 00018694
RMS$_CCR       = 00018494            RMS$_KFF       = 00018031            RMS$_RST       = 0001869C
RMS$_CDA       = 0001C0E4            RMS$_KRF       = 0001859C            RMS$_RSZ       = 000186A4
RMS$_CHG       = 0001849C            RMS$_KSZ       = 000185A4            RMS$_RTB       = 000181A8
RMS$_CHK       = 000184A4            RMS$_LAN       = 000185AC            RMS$_SEQ       = 000186AC
RMS$_CHN       = 0001C0EC            RMS$_LBL       = 000185B4            RMS$_SHR       = 000186B4
RMS$_COD       = 000184AC            RMS$_LNE       = 000185BC            RMS$_SIZ       = 000186BC
RMS$_CONTROLC  = 00010651            RMS$_LOC       = 000185C4            RMS$_SPL       = 0001C042
RMS$_CONTROLO  = 00010609            RMS$_MBC       = 00018734            RMS$_SQO       = 000186C4
RMS$_CONTROLY  = 00010611            RMS$_MKD       = 0001C032            RMS$_STALL     = 00018001
RMS$_CRE       = 0001C00A            RMS$_MRN       = 000185CC            RMS$_STK       = 000186CC
RMS$_CREATED   = 00010619            RMS$_MRS       = 000185D4            RMS$_SUC       = 00010001
RMS$_CUR       = 000184B4            RMS$_NAM       = 000185DC            RMS$_SUP       = 000182D2
RMS$_DAC       = 0001C012            RMS$_NEF       = 000185E4            RMS$_SUPERSEDE = 00010631
RMS$_DAN       = 000184BC            RMS$_NET       = 0001874C            RMS$_SYN       = 000186D4
RMS$_DEL       = 00018262            RMS$_NID       = 000185EC            RMS$_SYS       = 0001C10C
RMS$_DEV       = 000184C4            RMS$_NMF       = 000182CA            RMS$_TEMP1     = 0001826A
RMS$_DIR       = 000184CC            RMS$_NOD       = 000185F4            RMS$_TEMP2     = 0001868C
RMS$_DME       = 000184D4            RMS$_NORMAL    = 00010001            RMS$_TMO       = 000181B0
RMS$_DNA       = 000184DC            RMS$_NPK       = 000185FC            RMS$_TRE       = 000186DC
RMS$_DNF       = 0001C04A            RMS$_OK_ALK    = 00018039            RMS$_TYP       = 000186E4
RMS$_DNR       = 00018272            RMS$_OK_DEL    = 00018041            RMS$_UBF       = 000186EC
NT0DAPRMS       DAP TO RMS ERROR CONVERSION                      21-AUG-1978 22:20:01   VAX-11 MACRO X0.3-11               Page   7
SYMBOL TABLE                                                                                                                     (3)

RMS$_USZ       = 000186F4
RMS$_VER       = 000186FC
RMS$_VOL       = 00018704
RMS$_WBE       = 0001C12C
RMS$_WER       = 0001C114
RMS$_WLD       = 00018744
RMS$_WLK       = 000182BA
RMS$_WPL       = 0001C11C
RMS$_WSF       = 0001871C
RMS$_XAB       = 0001870C


PROGRAM SECTION SYNOPSIS

.  ABS  .        00000000      00     NOPIC   USR   CON   ABS   LCL NOSHR NOEXE NORD  NOWRT BYTE
. BLANK .        00000000      01     NOPIC   USR   CON   REL   LCL NOSHR   EXE   RD    WRT BYTE
NF$NETWORK       00000190      02     NOPIC   USR   CON   REL   GBL NOSHR   EXE   RD  NOWRT BYTE
$ABS$            00000000      03     NOPIC   USR   CON   ABS   LCL NOSHR   EXE   RD    WRT BYTE


THERE WERE NO ERRORS OR WARNINGS.
19866. BYTES LEFT IN FREE MEMORY POOL.
3178. BYTES OF RECLAIMED MEMORY.
OBJ$:NT0DAPRMS,LIS$:NT0DAPRMS/-SP=LIB$:N/ML,R/ML,SRC$:NT0DAPRMS
27 MLB DIR RDS - 359 GETS TO DEFINE 10 MACROS. 30 INTER. FILE WRITES.
