NT0ERASE        NETWORK ERASE FILE                               21-AUG-1978 22:21:56   VAX-11 MACRO X0.3-11               Page   0
TABLE OF CONTENTS

   (2)      38  DECLARATIONS
   (3)      60  NT$ERASE - PERFORM NETWORK ERASE FUNCTION
NT0ERASE        NETWORK ERASE FILE                               21-AUG-1978 22:21:56   VAX-11 MACRO X0.3-11               Page   1
007                                                                                                                              (1)

                                     0000     1 	$BEGIN	NT0ERASE,007,NF$NETWORK,<NETWORK ERASE FILE>
                                     0000     2
                                     0000     3
                                     0000     4 ;
                                     0000     5 ;			  COPYRIGHT (c) 1977, 1978 BY
                                     0000     6 ;	      DIGITAL EQUIPMENT CORPORATION, MAYNARD, MASS.
                                     0000     7 ;
                                     0000     8 ; THIS SOFTWARE IS FURNISHED UNDER A LICENSE AND MAY BE USED AND  COPIED
                                     0000     9 ; ONLY  IN  ACCORDANCE  WITH  THE  TERMS  OF  SUCH  LICENSE AND WITH THE
                                     0000    10 ; INCLUSION OF THE ABOVE COPYRIGHT NOTICE.  THIS SOFTWARE OR  ANY  OTHER
                                     0000    11 ; COPIES  THEREOF MAY NOT BE PROVIDED OR OTHERWISE MADE AVAILABLE TO ANY
                                     0000    12 ; OTHER PERSON.  NO TITLE TO AND OWNERSHIP OF  THE  SOFTWARE  IS  HEREBY
                                     0000    13 ; TRANSFERRED.
                                     0000    14 ;
                                     0000    15 ; THE INFORMATION IN THIS SOFTWARE IS SUBJECT TO CHANGE  WITHOUT  NOTICE
                                     0000    16 ; AND  SHOULD  NOT  BE  CONSTRUED  AS  A COMMITMENT BY DIGITAL EQUIPMENT
                                     0000    17 ; CORPORATION.
                                     0000    18 ;
                                     0000    19 ; DIGITAL ASSUMES NO RESPONSIBILITY FOR THE USE OR  RELIABILITY  OF  ITS
                                     0000    20 ; SOFTWARE ON EQUIPMENT WHICH IS NOT SUPPLIED BY DIGITAL.
                                     0000    21 ;
                                     0000    22
                                     0000    23 ;++
                                     0000    24 ; FACILITY: RMS32
                                     0000    25 ;
                                     0000    26 ; ABSTRACT:
                                     0000    27 ;	THIS MODULE COMMUNICATES WITH THE FILE ACCESS LISTENER AT THE
                                     0000    28 ;	REMOTE NODE TO ERASE THE SPECIFIED FILE.
                                     0000    29 ;
                                     0000    30 ; ENVIRONMENT: VAX/VMS
                                     0000    31 ;
                                     0000    32 ; AUTHOR: JAMES A. KRYCKA,	CREATION DATE: 9-DEC-77
                                     0000    33 ;
                                     0000    34 ; MODIFICATIONS:
                                     0000    35 ;
                                     0000    36 ;--
NT0ERASE        NETWORK ERASE FILE                               21-AUG-1978 22:21:56   VAX-11 MACRO X0.3-11               Page   2
007             DECLARATIONS                                                                                                     (2)

                                     0000    38 	.SBTTL	DECLARATIONS
                                     0000    39
                                     0000    40 ;
                                     0000    41 ; INCLUDE FILES:
                                     0000    42 ;
                                     0000    43 	$DAPDEF				; DEFINE DAP CONTROL BLOCK SYMBOLS
                                     0000    44 	$IFBDEF				; DEFINE IFAB CONTROL BLOCK SYMBOLS
                                     0000    45 	$NWADEF				; DEFINE NETWORK WORK AREA SYMBOLS
                                     0000    46 	.LIST	MEB
                                     0000    47 ;
                                     0000    48 ; MACROS:
                                     0000    49 ;
                                     0000    50 ;	NONE
                                     0000    51 ;
                                     0000    52 ; EQUATED SYMBOLS:
                                     0000    53 ;
                                     0000    54 ;	NONE
                                     0000    55 ;
                                     0000    56 ; OWN STORAGE:
                                     0000    57 ;
                                     0000    58 ;	NONE
NT0ERASE        NETWORK ERASE FILE                               21-AUG-1978 22:21:56   VAX-11 MACRO X0.3-11               Page   3
007             NT$ERASE - PERFORM NETWORK ERASE FUNCTION                                                                        (3)

                                     0000    60 	.SBTTL	NT$ERASE - PERFORM NETWORK ERASE FUNCTION
                                     0000    61
                                     0000    62 ;++
                                     0000    63 ; FUNCTIONAL DESCRIPTION:
                                     0000    64 ;
                                     0000    65 ;	NT$ERASE ENGAGES IN A DAP DIALOGUE WITH THE REMOTE FAL TO ERASE
                                     0000    66 ;	THE SPECIFIED FILE.
                                     0000    67 ;
                                     0000    68 ; CALLING SEQUENCE:
                                     0000    69 ;
                                     0000    70 ;	BSBW	NT$ERASE
                                     0000    71 ;
                                     0000    72 ; INPUT PARAMETERS:
                                     0000    73 ;
                                     0000    74 ;	R11	IMPURE AREA ADDRESS
                                     0000    75 ;	R10	FWA ADDRESS
                                     0000    76 ;	R9	IFAB ADDRESS
                                     0000    77 ;	R8	FAB ADDRESS
                                     0000    78 ;
                                     0000    79 ; IMPLICIT INPUTS:
                                     0000    80 ;
                                     0000    81 ;
                                     0000    82 ; OUTPUT PARAMETERS:
                                     0000    83 ;
                                     0000    84 ;	R0	STATUS CODE (RMS)
                                     0000    85 ;	R1-R7	DESTROYED
                                     0000    86 ;	AP	DESTROYED
                                     0000    87 ;
                                     0000    88 ; IMPLICIT OUTPUTS:
                                     0000    89 ;
                                     0000    90 ;	NONE
                                     0000    91 ;
                                     0000    92 ; COMPLETION CODES:
                                     0000    93 ;
                                     0000    94 ;	STANDARD RMS COMPLETION CODES.
                                     0000    95 ;
                                     0000    96 ; SIDE EFFECTS:
                                     0000    97 ;
                                     0000    98 ;	NONE
                                     0000    99 ;
                                     0000   100 ;--
                                     0000   101
                                     0000   102 NT$ERASE::				; CONTROL POINT
                                     0000   103 	$TSTPT	NTERASE			;
                 00000200'9F     D6  0000       		INCL	@#PIO$GL_FMLH+512+TPT$L_NTERASE
            57         28 A9     D0  0006   104 	MOVL	IFB$L_NWA_PTR(R9),R7	; GET ADDRESS OF NWA
                          FFF3'  30  000A   105 	BSBW	NT$EXCH_CNF_ALT		; EXCHANGE CONFIGURATION MESSAGES
                                     000D   106 					;  WITH FAL
            32            50     E9  000D   107 	BLBC	R0,90$			; BRANCH ON FAILURE
            54       0144 C7     D0  0010   108 	MOVL	NWA$Q_BUFFER+4(R7),R4	; GET ADDRESS OF BUFFER
            55            54     D0  0015   109 	MOVL	R4,R5			; INITIALIZE NEXT BYTE POINTER
            85            03     90  0018   110 	MOVB	#DAP$K_ACC_MSG,(R5)+	; DAP MESSAGE TYPE FIELD
                          85     94  001B   111 	CLRB	(R5)+			; DAP FLAGS FIELD
            85            04     90  001D   112 	MOVB	#DAP$K_ERASE,(R5)+	; ACCFUNC FIELD
            85            01     90  0020   113 	MOVB	#DAP$M_NONFATAL,(R5)+	; ACCOPT FIELD
                          FFDA'  30  0023   114 	BSBW	NT$GET_FILESPEC		; STORE FILESPEC AS A COUNTED
                                     0026   115 					;  ASCII STRING
NT0ERASE        NETWORK ERASE FILE                               21-AUG-1978 22:21:56   VAX-11 MACRO X0.3-11               Page   4
007             NT$ERASE - PERFORM NETWORK ERASE FUNCTION                                                                        (3)

            55            54     C2  0026   116 	SUBL2	R4,R5			; CALCULATE SIZE OF THE MESSAGE
                          FFD4'  30  0029   117 	BSBW	NT$TRANSMIT_ALT		; SEND ACCESS MESSAGE TO FAL
            13            50     E9  002C   118 	BLBC	R0,90$			; BRANCH ON FAILURE
            55       0140 C7     D0  002F   119 	MOVL	NWA$Q_BUFFER(R7),R5	; GET RCV BUFFER SIZE
                                     0034   120 	SSB	#DAP$K_CMP_MSG,DAP$L_MSG_MASK(R7)
         0C A7            07     E2  0034       		BBSS	#DAP$K_CMP_MSG,DAP$L_MSG_MASK(R7),30000$
                          00         0038
                                     0039       30000$:
                                     0039   121 					; EXPECT RESPONSE OF ACCESS COMPLETE MSG
                          FFC4'  30  0039   122 	BSBW	NT$RECEIVE_ALT		; GET REPLY FROM FAL
            03            50     E9  003C   123 	BLBC	R0,90$			; BRANCH ON FAILURE
                                     003F   124 	RMSSUC				; RETURN SUCCESS
            50            01     D0  003F       		MOVL	#1,R0
                                 05  0042   125 90$:	RSB				; EXIT WITH RMS CODE IN R0
                                     0043   126 	.END
NT0ERASE        NETWORK ERASE FILE                               21-AUG-1978 22:21:56   VAX-11 MACRO X0.3-11               Page   5
SYMBOL TABLE                                                                                                                     (3)

$$.PSECT_EP    = 00000000            DAP$K_DELETE   = 00000005            DAP$M_ALQ      = 00000040
$$RMSTEST      = 0000001A            DAP$K_DEV_I    = 04000040            DAP$M_BKS      = 00000080
$$RMS_PBUGCHK  = 00000010            DAP$K_DISCON   = 00000004            DAP$M_BLS      = 00000010
$$RMS_TBUGCHK  = 00000008            DAP$K_ECONUM_V = 00000002            DAP$M_CBT      = 00800000
$$RMS_UMODE    = 00000004            DAP$K_ERASE    = 00000004            DAP$M_CIF      = 00010000
BIT...         = 00000008            DAP$K_EXECUTE  = 00000008            DAP$M_CTG      = 00000080
DAP$B_ACCFUNC    00000060            DAP$K_FAC_I    = 00000040            DAP$M_DATATYPE = 00000001
DAP$B_ACCOPT     00000061            DAP$K_FIND     = 0000000E            DAP$M_DEQ      = 00000800
DAP$B_BKS        00000048            DAP$K_FIX      = 00000001            DAP$M_DEV      = 00004000
DAP$B_CMPFUNC    00000080            DAP$K_FLAGS_I  = 00000004            DAP$M_DLK      = 00000010
DAP$B_CONFUNC    0000007C            DAP$K_FOP_I    = 01020024            DAP$M_DLT      = 00400000
DAP$B_CTLFUNC    0000006C            DAP$K_GET_READ = 00000001            DAP$M_DMO      = 00002000
DAP$B_CTLMENU    0000006D            DAP$K_IDX      = 00000020            DAP$M_EMBEDDED = 00000010
DAP$B_DATATYPE   0000003C            DAP$K_KEY_ACC  = 00000001            DAP$M_FID      = 00001000
DAP$B_ECONUM     00000029            DAP$K_LSA      = 00000005            DAP$M_FOP      = 00001000
DAP$B_FAC        00000062            DAP$K_OPEN     = 00000001            DAP$M_FSZ      = 00000100
DAP$B_FIELD_ID   00000009            DAP$K_PURGE    = 00000003            DAP$M_GET      = 00000002
DAP$B_FILESYS    00000027            DAP$K_PUT_WRITE= 00000004            DAP$M_IMAGE    = 00000002
DAP$B_FLAGS      00000021            DAP$K_RAT_I    = 00000020            DAP$M_KEY      = 00000002
DAP$B_FSZ        00000049            DAP$K_REL      = 00000010            DAP$M_MRN      = 00000200
DAP$B_LENGTH     00000023            DAP$K_RESPONSE = 00000002            DAP$M_MRS      = 00000020
DAP$B_MAC_CODE   0000000B            DAP$K_RETRY    = 00000001            DAP$M_MXV      = 00080000
DAP$B_MSG_TYPE   0000000A            DAP$K_REWIND   = 00000006            DAP$M_NEF      = 00000200
DAP$B_ORG        0000003D            DAP$K_RFA_ACC  = 00000002            DAP$M_NIL      = 00000040
DAP$B_OSTYPE     00000026            DAP$K_RMS32    = 00000003            DAP$M_NONFATAL = 00000001
DAP$B_RAC        0000006E            DAP$K_ROP_I    = 00000802            DAP$M_ORG      = 00000002
DAP$B_RAT        0000003F            DAP$K_SEQ      = 00000000            DAP$M_POS      = 00000008
DAP$B_RFM        0000003E            DAP$K_SEQ_ACC  = 00000000            DAP$M_RAC      = 00000001
DAP$B_SHR        00000063            DAP$K_SEQ_FILE = 00000003            DAP$M_RAT      = 00000008
DAP$B_SOFTVER    0000002B            DAP$K_SHR_I    = 00000090            DAP$M_RCK      = 00008000
DAP$B_STREAMID   00000022            DAP$K_SKIP_REC = 00000002            DAP$M_RFM      = 00000004
DAP$B_TYPE       00000020            DAP$K_SOFTVER_V= 00000001            DAP$M_ROP      = 00000008
DAP$B_USRNUM     0000002A            DAP$K_SPACE    = 0000000B            DAP$M_RUNSYS   = 00000400
DAP$B_USRSOFT    0000002C            DAP$K_STM      = 00000004            DAP$M_RWC      = 00000002
DAP$B_VERNUM     00000028            DAP$K_STS_MSG  = 00000009            DAP$M_RWO      = 00000001
DAP$C_BLN        000000C0            DAP$K_SUBMIT   = 00000007            DAP$M_SCF      = 00200000
DAP$K_ABORT    = 00000003            DAP$K_SYSCAP_V = E00660E7            DAP$M_SPL      = 00100000
DAP$K_ACCOPT_I = 00000008            DAP$K_UDF      = 00000000            DAP$M_SQO      = 00040000
DAP$K_ACC_MSG  = 00000003            DAP$K_UPDATE   = 00000003            DAP$M_SUP      = 00000100
DAP$K_ACK_MSG  = 00000006            DAP$K_USRNUM_V = 00000000            DAP$M_TMD      = 00000800
DAP$K_ATTMENU_I= 0001A000            DAP$K_USRSOFT_V= 00000000            DAP$M_TMP      = 00000400
DAP$K_ATT_MSG  = 00000002            DAP$K_VAR      = 00000002            DAP$M_WCK      = 00004000
DAP$K_BLK_FILE = 00000005            DAP$K_VAXVMS   = 00000007            DAP$Q_DCODE_FLG  00000000
DAP$K_BLK_VBN  = 00000004            DAP$K_VERNUM_V = 00000004            DAP$Q_FILEDATA   00000090
DAP$K_BLN        000000C0            DAP$K_VFC      = 00000003            DAP$Q_FILESPEC   00000064
DAP$K_BLS_D    = 00000200            DAP$L_ALQ        00000044            DAP$Q_KEY        00000070
DAP$K_BUFSIZ_V = 00001100            DAP$L_ATTMENU    00000038            DAP$Q_MSG_BUF1   00000010
DAP$K_CLOSE    = 00000001            DAP$L_DCODE_STS  00000008            DAP$Q_MSG_BUF2   00000018
DAP$K_CMP_MSG  = 00000007            DAP$L_DEV        0000005C            DAP$Q_NUMBER     00000088
DAP$K_CNF_MSG  = 00000001            DAP$L_FOP        00000058            DAP$Q_RFA        0000009C
DAP$K_CONNECT  = 00000002            DAP$L_FOP2       00000084            DAP$Q_RUNSYS     00000050
DAP$K_CON_MSG  = 00000005            DAP$L_MRN        0000004C            DAP$Q_SYSCAP     00000030
DAP$K_CREATE   = 00000002            DAP$L_MSG_MASK   0000000C            DAP$Q_VERSION    00000028
DAP$K_CTLMENU_I= 00000054            DAP$L_OPERATOR   00000020            DAP$S_TMP1..   = 0000000A
DAP$K_CTL_MSG  = 00000004            DAP$L_RECNUM     000000A4            DAP$S_TMP2..   = 00000015
DAP$K_DATATYP_I= 00000084            DAP$L_ROP        00000078            DAP$S_TMP3..   = 00000002
DAP$K_DAT_MSG  = 00000008            DAP$L_STV        000000A8            DAP$S_TMP4..   = 00000008
NT0ERASE        NETWORK ERASE FILE                               21-AUG-1978 22:21:56   VAX-11 MACRO X0.3-11               Page   6
SYMBOL TABLE                                                                                                                     (3)

DAP$V_AFTER_V41= 00000020            DAP$V_KEY      = 00000001            DAP$_PENDING   = 00000000
DAP$V_ALQ      = 00000006            DAP$V_LENGTH   = 00000001            DAP$_SUCCESS   = 00000001
DAP$V_APPEND   = 0000000D            DAP$V_MRN      = 00000009            DAP$_UNSUPPORT = 00000002
DAP$V_ASCII    = 00000000            DAP$V_MRS      = 00000005            GBL...         = 00000000
DAP$V_BIO      = 00000005            DAP$V_MSGBLK   = 00000012            IFB$B_AMAX       00000059
DAP$V_BKS      = 00000007            DAP$V_MXV      = 00000013            IFB$B_AVBN       00000058
DAP$V_BLK      = 00000003            DAP$V_NEF      = 00000009            IFB$B_BID        00000008
DAP$V_BLS      = 00000004            DAP$V_NIL      = 00000006            IFB$B_BKS        0000004A
DAP$V_CBT      = 00000017            DAP$V_NONFATAL = 00000000            IFB$B_BLN        00000009
DAP$V_CIF      = 00000010            DAP$V_ORG      = 00000001            IFB$B_EFN        0000000B
DAP$V_CR       = 00000001            DAP$V_POS      = 00000003            IFB$B_EXTRABUF   0000005D
DAP$V_CTG      = 00000007            DAP$V_PRIV     = 00000005            IFB$B_FAC        00000022
DAP$V_DATATYPE = 00000000            DAP$V_PRN      = 00000002            IFB$B_FSZ        0000004B
DAP$V_DEL      = 00000002            DAP$V_PUT      = 00000000            IFB$B_KBUFSZ     0000005C
DAP$V_DEQ      = 0000000B            DAP$V_RAC      = 00000000            IFB$B_MODE       0000000A
DAP$V_DEV      = 0000000E            DAP$V_RANREC   = 00000006            IFB$B_NUM_KEYS   0000005A
DAP$V_DEVALL   = 0000000C            DAP$V_RANVBN   = 00000007            IFB$B_ORGCASE    00000023
DAP$V_DEVAVL   = 00000010            DAP$V_RAT      = 00000003            IFB$B_RAT        0000003D
DAP$V_DEVCCL   = 00000001            DAP$V_RCK      = 0000000F            IFB$B_RFMORG     0000003C
DAP$V_DEVDIR   = 00000003            DAP$V_RELORG   = 00000002            IFB$B_UBUFSZ     0000005B
DAP$V_DEVDMT   = 0000000B            DAP$V_RFM      = 00000002            IFB$C_BID      = 0000000B
DAP$V_DEVELG   = 00000011            DAP$V_ROP      = 00000003            IFB$C_BLN        00000060
DAP$V_DEVFOD   = 00000007            DAP$V_RUNSYS   = 0000000A            IFB$C_BLN_IDX    00000060
DAP$V_DEVFOR   = 00000017            DAP$V_RWC      = 00000001            IFB$C_BLN_REL    00000060
DAP$V_DEVGEN   = 00000019            DAP$V_RWO      = 00000000            IFB$C_BLN_SEQ    0000005C
DAP$V_DEVIDV   = 0000000D            DAP$V_SCF      = 00000015            IFB$C_DIR      = 00000003
DAP$V_DEVMBX   = 00000012            DAP$V_SEQORG   = 00000001            IFB$C_FHAEND     00000050
DAP$V_DEVMNT   = 0000000A            DAP$V_SEQREC   = 00000005            IFB$C_IDX      = 00000002
DAP$V_DEVNET   = 00000018            DAP$V_SPL      = 00000014            IFB$C_MAXORG   = 00000002
DAP$V_DEVODV   = 0000000E            DAP$V_SQO      = 00000012            IFB$C_REL      = 00000001
DAP$V_DEVRCK   = 00000015            DAP$V_STREAMID = 00000000            IFB$C_SEQ      = 00000000
DAP$V_DEVREC   = 00000000            DAP$V_STSRTN   = 00000011            IFB$K_BLN        00000060
DAP$V_DEVRND   = 00000014            DAP$V_STS_RETRV= 00000002            IFB$K_BLN_IDX    00000060
DAP$V_DEVRTM   = 00000013            DAP$V_STS_STORE= 00000001            IFB$K_BLN_REL    00000060
DAP$V_DEVSDI   = 00000004            DAP$V_SUBMIT   = 0000000E            IFB$K_BLN_SEQ    0000005C
DAP$V_DEVSHR   = 00000008            DAP$V_SUP      = 00000008            IFB$K_FHAEND     00000050
DAP$V_DEVSPL   = 00000009            DAP$V_TMD      = 0000000B            IFB$L_ARGLST     00000018
DAP$V_DEVSQD   = 00000005            DAP$V_TMP      = 0000000A            IFB$L_ASBADDR    00000014
DAP$V_DEVSWL   = 0000000F            DAP$V_TMP1..   = 00000001            IFB$L_AS_DEV     00000054
DAP$V_DEVTRM   = 00000002            DAP$V_TMP2..   = 0000000B            IFB$L_BDB_BLNK   00000034
DAP$V_DEVWCK   = 00000016            DAP$V_TMP3..   = 00000006            IFB$L_BDB_FLNK   00000030
DAP$V_DLK      = 00000004            DAP$V_TMP4..   = 00000018            IFB$L_BKPBITS    00000004
DAP$V_DLT      = 00000016            DAP$V_TRN      = 00000004            IFB$L_BWB        0000000C
DAP$V_DMO      = 0000000D            DAP$V_UPD      = 00000003            IFB$L_DVBN       00000058
DAP$V_EMBEDDED = 00000004            DAP$V_VAXVMS   = 00000021            IFB$L_EBK        00000044
DAP$V_EOF      = 00000000            DAP$V_WCK      = 0000000E            IFB$L_FRB_PTR    00000028
DAP$V_EXEC     = 00000004            DAP$W_BLS        00000040            IFB$L_FWA_BDB    00000050
DAP$V_FID      = 0000000C            DAP$W_BUFSIZ     00000024            IFB$L_HBK        00000040
DAP$V_FILALL   = 00000000            DAP$W_DEQ        0000004A            IFB$L_IDX_PTR    00000054
DAP$V_FOP      = 0000000C            DAP$W_MRS        00000042            IFB$L_IOS        0000000C
DAP$V_FOPDLT   = 0000001F            DAP$W_STSCODE    00000098            IFB$L_IOS4       00000010
DAP$V_FOPSCF   = 0000001E            DAP$_FILE_CLOS = 00000007            IFB$L_IRAB_LNK   0000001C
DAP$V_FOPSPL   = 0000001D            DAP$_FILE_OPEN = 00000004            IFB$L_LAST_FAB   00000024
DAP$V_FSZ      = 00000008            DAP$_FILE_XFER = 00000005            IFB$L_LOCK_BDB   00000050
DAP$V_FTN      = 00000000            DAP$_FORMAT    = 00000008            IFB$L_MRN        00000054
DAP$V_GET      = 00000001            DAP$_INVALID   = 00000009            IFB$L_NRP_LNK    00000050
DAP$V_IMAGE    = 00000001            DAP$_MSG_SYNC  = 0000000A            IFB$L_NWA_PTR    00000028
NT0ERASE        NETWORK ERASE FILE                               21-AUG-1978 22:21:56   VAX-11 MACRO X0.3-11               Page   7
SYMBOL TABLE                                                                                                                     (3)

IFB$L_PRIM_DEV   00000000            IFB$W_FFB        00000048
IFB$L_RLB_LNK    0000002C            IFB$W_IOS2       0000000E
IFB$L_RNS_LEN    00000050            IFB$W_LRL        0000003E
IFB$M_BIO      = 00000020            IFB$W_MRS        0000004C
IFB$M_BRO      = 00000040            IFB$W_RTDEQ      0000003A
IFB$M_DEL      = 00000004            NT$ERASE         00000000 RG    02
IFB$M_EXE      = 00000080            NT$EXCH_CNF_ALT  ********   X   02
IFB$M_GET      = 00000002            NT$GET_FILESPEC  ********   X   02
IFB$M_PUT      = 00000001            NT$RECEIVE_ALT   ********   X   02
IFB$M_TRN      = 00000010            NT$TRANSMIT_ALT  ********   X   02
IFB$M_UPD      = 00000008            NWA$B_QUOTEDTRN  0000013F
IFB$S_ORG      = 00000004            NWA$C_BLN        00000400
IFB$S_RFM      = 00000004            NWA$C_BUFFERSIZ= 000002A0
IFB$V_ACCESSED = 00000025            NWA$C_DAPSIZ   = 000000C0
IFB$V_ANSI_D   = 00000026            NWA$K_BLN        00000400
IFB$V_ASYNC    = 00000023            NWA$Q_BUFFER     00000140
IFB$V_ASYNCWAIT= 00000024            NWA$Q_BUFFER2    00000148
IFB$V_BIO      = 00000005            NWA$Q_FLG        00000000
IFB$V_BRO      = 00000006            NWA$T_BUFFER     00000160
IFB$V_BUSY     = 00000020            NWA$T_DAP        00000000
IFB$V_CREATE   = 00000032            NWA$T_FILESPEC   000000C0
IFB$V_DAP      = 0000003E            NWA$T_QUOTEDBUF  000000C0
IFB$V_DAP_OPEN = 0000003D            NWA$T_SPARE      00000150
IFB$V_DEL      = 00000002            PIO$GL_FMLH      ********   X   02
IFB$V_DFW      = 0000002C            TPT$L_NTERASE    ********   X   02
IFB$V_DLT      = 0000002B
IFB$V_DMO      = 00000028
IFB$V_EOF      = 00000021
IFB$V_EXE      = 00000007
IFB$V_GET      = 00000001
IFB$V_MSE      = 00000031
IFB$V_NORECLK  = 00000033
IFB$V_NSP      = 0000003F
IFB$V_NWA      = 0000003C
IFB$V_ORG      = 00000004
IFB$V_PPF_IMAGE= 00000022
IFB$V_PPF_INPUT= 0000002E
IFB$V_PUT      = 00000000
IFB$V_RFM      = 00000000
IFB$V_RWC      = 00000027
IFB$V_RW_ATTR  = 00000034
IFB$V_SCF      = 0000002A
IFB$V_SPL      = 00000029
IFB$V_SQO      = 0000002D
IFB$V_TEF      = 00000036
IFB$V_TMP      = 00000035
IFB$V_TRN      = 00000004
IFB$V_UPD      = 00000003
IFB$V_WRTACC   = 00000030
IFB$W_ASDEVBSIZ  0000005A
IFB$W_BKS_BYTES  0000005C
IFB$W_BKS_RECS   0000005E
IFB$W_CHNL       00000020
IFB$W_DEQ        0000004E
IFB$W_DEVBUFSIZ  00000038
IFB$W_EBK0       00000044
IFB$W_EBK2       00000046
NT0ERASE        NETWORK ERASE FILE                               21-AUG-1978 22:21:56   VAX-11 MACRO X0.3-11               Page   8
PROGRAM SECTION SYNOPSIS                                                                                                         (3)


PROGRAM SECTION SYNOPSIS

.  ABS  .        00000000      00     NOPIC   USR   CON   ABS   LCL NOSHR NOEXE NORD  NOWRT BYTE
. BLANK .        00000000      01     NOPIC   USR   CON   REL   LCL NOSHR   EXE   RD    WRT BYTE
NF$NETWORK       00000043      02     NOPIC   USR   CON   REL   GBL NOSHR   EXE   RD  NOWRT BYTE
$ABS$            00000400      03     NOPIC   USR   CON   ABS   LCL NOSHR   EXE   RD    WRT BYTE


THERE WERE NO ERRORS OR WARNINGS.
6848. BYTES LEFT IN FREE MEMORY POOL.
9992. BYTES OF RECLAIMED MEMORY.
OBJ$:NT0ERASE,LIS$:NT0ERASE/-SP=LIB$:N/ML,R/ML,SRC$:NT0ERASE
34 MLB DIR RDS - 902 GETS TO DEFINE 16 MACROS. 60 INTER. FILE WRITES.
