NT0PUT          NETWORK PUT/UPDATE/DELETE RECORD                 21-AUG-1978 22:24:10   VAX-11 MACRO X0.3-11               Page   0
TABLE OF CONTENTS

   (2)      38  DECLARATIONS
   (3)      62  NT$PUT1 - PERFORM NETWORK PUT FUNCTION
   (4)     147  NT$PUT2 - PERFORM NETWORK PUT FUNCTION
   (5)     229  NT$UPDATE1 - PERFORM NETWORK UPDATE FUNCTION
   (6)     308  NT$UPDATE2 - PERFORM NETWORK UPDATE FUNCTION
   (7)     358  NT$DELETE2 - PERFORM NETWORK DELETE FUNCTION
NT0PUT          NETWORK PUT/UPDATE/DELETE RECORD                 21-AUG-1978 22:24:10   VAX-11 MACRO X0.3-11               Page   1
010                                                                                                                              (1)

                                     0000     1 	$BEGIN	NT0PUT,010,NF$NETWORK,<NETWORK PUT/UPDATE/DELETE RECORD>
                                     0000     2
                                     0000     3
                                     0000     4 ;
                                     0000     5 ;			  COPYRIGHT (c) 1977, 1978 BY
                                     0000     6 ;	      DIGITAL EQUIPMENT CORPORATION, MAYNARD, MASS.
                                     0000     7 ;
                                     0000     8 ; THIS SOFTWARE IS FURNISHED UNDER A LICENSE AND MAY BE USED AND  COPIED
                                     0000     9 ; ONLY  IN  ACCORDANCE  WITH  THE  TERMS  OF  SUCH  LICENSE AND WITH THE
                                     0000    10 ; INCLUSION OF THE ABOVE COPYRIGHT NOTICE.  THIS SOFTWARE OR  ANY  OTHER
                                     0000    11 ; COPIES  THEREOF MAY NOT BE PROVIDED OR OTHERWISE MADE AVAILABLE TO ANY
                                     0000    12 ; OTHER PERSON.  NO TITLE TO AND OWNERSHIP OF  THE  SOFTWARE  IS  HEREBY
                                     0000    13 ; TRANSFERRED.
                                     0000    14 ;
                                     0000    15 ; THE INFORMATION IN THIS SOFTWARE IS SUBJECT TO CHANGE  WITHOUT  NOTICE
                                     0000    16 ; AND  SHOULD  NOT  BE  CONSTRUED  AS  A COMMITMENT BY DIGITAL EQUIPMENT
                                     0000    17 ; CORPORATION.
                                     0000    18 ;
                                     0000    19 ; DIGITAL ASSUMES NO RESPONSIBILITY FOR THE USE OR  RELIABILITY  OF  ITS
                                     0000    20 ; SOFTWARE ON EQUIPMENT WHICH IS NOT SUPPLIED BY DIGITAL.
                                     0000    21 ;
                                     0000    22
                                     0000    23 ;++
                                     0000    24 ; FACILITY: RMS32
                                     0000    25 ;
                                     0000    26 ; ABSTRACT:
                                     0000    27 ;	THIS MODULE COMMUNICATES WITH THE FILE ACCESS LISTENER AT THE
                                     0000    28 ;	REMOTE NODE TO PERFORM THE PUT, UDPATE, AND DELETE FUNCTIONS.
                                     0000    29 ;
                                     0000    30 ; ENVIRONMENT: VAX/VMS
                                     0000    31 ;
                                     0000    32 ; AUTHOR: JAMES A. KRYCKA,	CREATION DATE: 9-DEC-77
                                     0000    33 ;
                                     0000    34 ; MODIFICATIONS:
                                     0000    35 ;
                                     0000    36 ;--
NT0PUT          NETWORK PUT/UPDATE/DELETE RECORD                 21-AUG-1978 22:24:10   VAX-11 MACRO X0.3-11               Page   2
010             DECLARATIONS                                                                                                     (2)

                                     0000    38 	.SBTTL	DECLARATIONS
                                     0000    39
                                     0000    40 ;
                                     0000    41 ; INCLUDE FILES:
                                     0000    42 ;
                                     0000    43 	$BDBDEF				; DEFINE BDB SYMBOLS
                                     0000    44 	$DAPDEF				; DEFINE DAP CONTROL BLOCK SYMBOLS
                                     0000    45 	$IRBDEF				; DEFINE IRAB SYMBOLS
                                     0000    46 	$IFBDEF				; DEFINE IFAB SYMBOLS
                                     0000    47 	$NWADEF				; DEFINE NETWORK WORK AREA SYMBOLS
                                     0000    48 	.LIST	MEB
                                     0000    49 ;
                                     0000    50 ; MACROS:
                                     0000    51 ;
                                     0000    52 ;	NONE
                                     0000    53 ;
                                     0000    54 ; EQUATED SYMBOLS:
                                     0000    55 ;
                                     0000    56 ;	NONE
                                     0000    57 ;
                                     0000    58 ; OWN STORAGE:
                                     0000    59 ;
                                     0000    60 ;	NONE
NT0PUT          NETWORK PUT/UPDATE/DELETE RECORD                 21-AUG-1978 22:24:10   VAX-11 MACRO X0.3-11               Page   3
010             NT$PUT1 - PERFORM NETWORK PUT FUNCTION                                                                           (3)

                                     0000    62 	.SBTTL	NT$PUT1 - PERFORM NETWORK PUT FUNCTION
                                     0000    63
                                     0000    64 ;++
                                     0000    65 ; FUNCTIONAL DESCRIPTION:
                                     0000    66 ;
                                     0000    67 ;	NT$PUT1 ENGAGES IN A DAP DIALOGUE WITH THE REMOTE FAL TO PUT
                                     0000    68 ;	THE SPECIFIED RECORD OF A SEQUENTIAL FILE.
                                     0000    69 ;
                                     0000    70 ; CALLING SEQUENCE:
                                     0000    71 ;
                                     0000    72 ;	BSBW	NT$PUT1
                                     0000    73 ;
                                     0000    74 ; INPUT PARAMETERS:
                                     0000    75 ;
                                     0000    76 ;	R11	IMPURE AREA ADDRESS
                                     0000    77 ;	R10	IFAB ADDRESS
                                     0000    78 ;	R9	IRAB ADDRESS
                                     0000    79 ;	R8	RAB ADDRESS
                                     0000    80 ;	R4	BDB ADDRESS
                                     0000    81 ;
                                     0000    82 ; IMPLICIT INPUTS:
                                     0000    83 ;
                                     0000    84 ;	NONE
                                     0000    85 ;
                                     0000    86 ; OUTPUT PARAMETERS:
                                     0000    87 ;
                                     0000    88 ;	R0	STATUS CODE (RMS)
                                     0000    89 ;	R1-R3	DESTROYED
                                     0000    90 ;	AP	DESTROYED
                                     0000    91 ;
                                     0000    92 ; IMPLICIT OUTPUTS:
                                     0000    93 ;
                                     0000    94 ;	NONE
                                     0000    95 ;
                                     0000    96 ; COMPLETION CODES:
                                     0000    97 ;
                                     0000    98 ;	STANDARD RMS COMPLETION CODES.
                                     0000    99 ;
                                     0000   100 ; SIDE EFFECTS:
                                     0000   101 ;
                                     0000   102 ;	NONE
                                     0000   103 ;
                                     0000   104 ;--
                                     0000   105
                                     0000   106 NT$PUT1::				; CONTROL POINT
                                     0000   107 	$TSTPT	NTPUT1			;
                 00000200'9F     D6  0000       		INCL	@#PIO$GL_FMLH+512+TPT$L_NTPUT1
                     00F0 8F     BB  0006   108 	PUSHR	#^M<R4,R5,R6,R7>	; SAVE REGISTERS
            56            54     D0  000A   109 	MOVL	R4,R6			; COPY BDB ADDRESS
            57         28 AA     D0  000D   110 	MOVL	IFB$L_NWA_PTR(R10),R7	; GET ADDRESS OF NWA
            54       0144 C7     D0  0011   111 	MOVL	NWA$Q_BUFFER+4(R7),R4	; GET ADDRESS OF BUFFER
                          3F     E5  0016   112 	BBCC	#IRB$V_DAP_FMODE,(R9),-	; TURN OFF SINGLE-SHOT FLAG
            1A            69         0018   113 		PUT_REC			;
            55            54     D0  001A   114 	MOVL	R4,R5			; INITIALIZE NEXT BYTE POINTER
            85            04     90  001D   115 	MOVB	#DAP$K_CTL_MSG,(R5)+	; DAP MESSAGE TYPE FIELD
                          85     94  0020   116 	CLRB	(R5)+			; FLAGS FIELD
            85            04     90  0022   117 	MOVB	#DAP$K_PUT_WRITE,(R5)+	; CTLFUNC FIELD
NT0PUT          NETWORK PUT/UPDATE/DELETE RECORD                 21-AUG-1978 22:24:10   VAX-11 MACRO X0.3-11               Page   4
010             NT$PUT1 - PERFORM NETWORK PUT FUNCTION                                                                           (3)

            85            01     90  0025   118 	MOVB	#DAP$M_RAC,(R5)+	; CTLMENU FIELD
            85            03     90  0028   119 	MOVB	#DAP$K_SEQ_FILE,(R5)+	; RAC FIELD
            55            54     C2  002B   120 	SUBL2	R4,R5			; CALCULATE SIZE OF THE MESSAGE
                          FFCF'  30  002E   121 	BSBW	NT$TRANSMIT		; SEND CONTROL MESSAGE TO FAL
            34            50     E9  0031   122 	BLBC	R0,PUT_EXIT		; BRANCH ON FAILURE
                                     0034   123 PUT_REC:				;
            55            54     D0  0034   124 	MOVL	R4,R5			; INITIALIZE NEXT BYTE POINTER
            85            08     90  0037   125 	MOVB	#DAP$K_DAT_MSG,(R5)+	; DAP MESSAGE TYPE FIELD
                          85     94  003A   126 	CLRB	(R5)+			; FLAGS FIELD
                          85     94  003C   127 	CLRB	(R5)+			; RECNUM FIELD
            53            55     D0  003E   128 	MOVL	R5,R3			; SAVE NEXT BYTE POINTER
            52         10 A6     3C  0041   129 	MOVZWL	BDB$W_NUMB(R6),R2	; GET RECORD SIZE
            55            54     C2  0045   130 	SUBL2	R4,R5			; COMPUTE # DAP OVERHEAD BYTES IN MSG
            55            52     C0  0048   131 	ADDL2	R2,R5			; COMPUTE PROJECTED SIZE OF DAP MESSAGE
       0140 C7            55     D1  004B   132 	CMPL	R5,NWA$Q_BUFFER(R7)	; MAKE SURE RECORD WILL FIT IN BUFFER
                          1B     1A  0050   133 	BGTRU	ERRRTB			; BRANCH IF RECORD IS TOO BIG
                          30     BB  0052   134 	PUSHR	#^M<R4,R5>		; SAVE DAP MESSAGE DESCRIPTOR
         14 B6            52     28  0054   135 	MOVC3	R2,@BDB$L_ADDR(R6),(R3)	; MOVE RECORD INTO DAP MESSAGE
                          63         0058
                          30     BA  0059   136 	POPR	#^M<R4,R5>		; RESTORE DAP MESSAGE DESCRIPTOR
                          FFA2'  30  005B   137 	BSBW	NT$TRANSMIT		; PUT RECORD
            07            50     E9  005E   138 	BLBC	R0,PUT_EXIT		; BRANCH ON FAILURE
         0A A6            02     8A  0061   139 	BICB2	#<1@BDB$V_DRT>,BDB$B_FLGS(R6) ; SAY NOT DIRTY ANYMORE
                                     0065   140 	RMSSUC				; RETURN SUCCESS
            50            01     D0  0065       		MOVL	#1,R0
                                     0068   141 PUT_EXIT:				;
                     00F0 8F     BA  0068   142 	POPR	#^M<R4,R5,R6,R7>	; RESTORE REGISTERS
                                 05  006C   143 	RSB				; EXIT WITH RMS CODE IN R0
                                     006D   144 ERRRTB:	RMSERR	RTB			; RECORD TOO BIG
            50       0000'8F     3C  006D       		MOVZWL	#<RMS$_RTB&^XFFFF>,R0
                          F4     11  0072   145 	BRB	PUT_EXIT		;
NT0PUT          NETWORK PUT/UPDATE/DELETE RECORD                 21-AUG-1978 22:24:10   VAX-11 MACRO X0.3-11               Page   5
010             NT$PUT2 - PERFORM NETWORK PUT FUNCTION                                                                           (4)

                                     0074   147 	.SBTTL	NT$PUT2 - PERFORM NETWORK PUT FUNCTION
                                     0074   148
                                     0074   149 ;++
                                     0074   150 ; FUNCTIONAL DESCRIPTION:
                                     0074   151 ;
                                     0074   152 ;	NT$PUT2 ENGAGES IN A DAP DIALOGUE WITH THE REMOTE FAL TO PUT
                                     0074   153 ;	THE SPECIFIED RECORD OF A RELATIVE FILE.
                                     0074   154 ;
                                     0074   155 ; CALLING SEQUENCE:
                                     0074   156 ;
                                     0074   157 ;	BSBW	NT$PUT2
                                     0074   158 ;
                                     0074   159 ; INPUT PARAMETERS:
                                     0074   160 ;
                                     0074   161 ;	R11	IMPURE AREA ADDRESS
                                     0074   162 ;	R10	IFAB ADDRESS
                                     0074   163 ;	R9	IRAB ADDRESS
                                     0074   164 ;	R8	RAB ADDRESS
                                     0074   165 ;	R4	BDB ADDRESS
                                     0074   166 ;
                                     0074   167 ; IMPLICIT INPUTS:
                                     0074   168 ;
                                     0074   169 ;	NONE
                                     0074   170 ;
                                     0074   171 ; OUTPUT PARAMETERS:
                                     0074   172 ;
                                     0074   173 ;	R0	STATUS CODE (RMS)
                                     0074   174 ;	R1-R7	DESTROYED
                                     0074   175 ;	AP	DESTROYED
                                     0074   176 ;
                                     0074   177 ; IMPLICIT OUTPUTS:
                                     0074   178 ;
                                     0074   179 ;	NONE
                                     0074   180 ;
                                     0074   181 ; COMPLETION CODES:
                                     0074   182 ;
                                     0074   183 ;	STANDARD RMS COMPLETION CODES.
                                     0074   184 ;
                                     0074   185 ; SIDE EFFECTS:
                                     0074   186 ;
                                     0074   187 ;	NONE
                                     0074   188 ;
                                     0074   189 ;--
                                     0074   190
                                     0074   191 NT$PUT2::				; CONTROL POINT
                                     0074   192 	$TSTPT	NTPUT2			;
                 00000200'9F     D6  0074       		INCL	@#PIO$GL_FMLH+512+TPT$L_NTPUT2
                                     007A   193 	RMSERR	SUP			; UNSUPPORTED FUNCTION
            50       0000'8F     3C  007A       		MOVZWL	#<RMS$_SUP&^XFFFF>,R0
                                 05  007F   194 	RSB				; EXIT WITH RMS CODE IN R0
                     00F0 8F     BB  0080   195 	PUSHR	#^M<R4,R5,R6,R7>	; SAVE REGISTERS
            56            54     D0  0084   196 	MOVL	R4,R6			; COPY BDB ADDRESS
            57         28 AA     D0  0087   197 	MOVL	IFB$L_NWA_PTR(R10),R7	; GET ADDRESS OF NWA
                          3F     E5  008B   198 	BBCC	#IRB$V_DAP_FMODE,(R9),-	; TURN OFF SINGLE-SHOT FLAG
            1F            69         008D   199 		PUT2_REC		;
            54       0160 C7     9E  008F   200 	MOVAB	NWA$T_BUFFER(R7),R4	; GET ADDRESS OF SCRATCH BUFFER
            55            54     D0  0094   201 	MOVL	R4,R5			; INITIALIZE NEXT BYTE POINTER
NT0PUT          NETWORK PUT/UPDATE/DELETE RECORD                 21-AUG-1978 22:24:10   VAX-11 MACRO X0.3-11               Page   6
010             NT$PUT2 - PERFORM NETWORK PUT FUNCTION                                                                           (4)

            85            04     90  0097   202 	MOVB	#DAP$K_CTL_MSG,(R5)+	; DAP MESSAGE TYPE FIELD
                          85     94  009A   203 	CLRB	(R5)+			; FLAGS FIELD
            85            04     90  009C   204 	MOVB	#DAP$K_PUT_WRITE,(R5)+	; CTLFUNC FIELD
            85            01     90  009F   205 	MOVB	#DAP$M_RAC,(R5)+	; CTLMENU FIELD
            85            03     90  00A2   206 	MOVB	#DAP$K_SEQ_FILE,(R5)+	; RAC FIELD
            55            54     C2  00A5   207 	SUBL2	R4,R5			; CALCULATE SIZE OF THE MESSAGE
                          FF55'  30  00A8   208 	BSBW	NT$TRANSMIT		; SEND CONTROL MESSAGE TO FAL
            2F            50     E9  00AB   209 	BLBC	R0,PUT2_EXIT		; BRANCH ON FAILURE
                                     00AE   210 PUT2_REC:				;
            50         10 A6     3C  00AE   211 	MOVZWL	BDB$W_NUMB(R6),R0	;
            51         14 A6     D0  00B2   212 	MOVL	BDB$L_ADDR(R6),R1	;
            61            50     28  00B6   213 	MOVC3	R0,(R1),3(R1)		;
                       03 A1         00B9
            54         14 A6     D0  00BB   214 	MOVL	BDB$L_ADDR(R6),R4	; GET BUFFER ADDRESS
            55            54     D0  00BF   215 	MOVL	R4,R5			; INITIALIZE NEXT BYTE POINTER
            85            08     90  00C2   216 	MOVB	#DAP$K_DAT_MSG,(R5)+	; DAP MESSAGE TYPE FIELD
                          85     94  00C5   217 	CLRB	(R5)+			; FLAGS FIELD
                          85     94  00C7   218 	CLRB	(R5)+			; RECNUM FIELD
            55         10 A6     3C  00C9   219 	MOVZWL	BDB$W_NUMB(R6),R5	; GET RECORD SIZE
            55            03     C0  00CD   220 	ADDL2	#3,R5			; CALCULATE MESSAGE SIZE
                          FF2D'  30  00D0   221 	BSBW	NT$TRANSMIT		; PUT RECORD
            07            50     E9  00D3   222 	BLBC	R0,PUT2_EXIT		; BRANCH ON FAILURE
         0A A6            02     8A  00D6   223 	BICB2	#<1@BDB$V_DRT>,BDB$B_FLGS(R6) ; SAY NOT DIRTY ANYMORE
                                     00DA   224 	RMSSUC				; RETURN SUCCESS
            50            01     D0  00DA       		MOVL	#1,R0
                                     00DD   225 PUT2_EXIT:				;
                     00F0 8F     BA  00DD   226 	POPR	#^M<R4,R5,R6,R7>	; RESTORE REGISTERS
                                 05  00E1   227 	RSB				; EXIT WITH RMS CODE IN R0
NT0PUT          NETWORK PUT/UPDATE/DELETE RECORD                 21-AUG-1978 22:24:10   VAX-11 MACRO X0.3-11               Page   7
010             NT$UPDATE1 - PERFORM NETWORK UPDATE FUNCTION                                                                     (5)

                                     00E2   229 	.SBTTL	NT$UPDATE1 - PERFORM NETWORK UPDATE FUNCTION
                                     00E2   230
                                     00E2   231 ;++
                                     00E2   232 ; FUNCTIONAL DESCRIPTION:
                                     00E2   233 ;
                                     00E2   234 ;	NT$UPDATE1 ENGAGES IN A DAP DIALOGUE WITH THE REMOTE FAL TO UPDATE
                                     00E2   235 ;	THE SPECIFIED RECORD OF A SEQUENTIAL FILE.
                                     00E2   236 ;
                                     00E2   237 ; CALLING SEQUENCE:
                                     00E2   238 ;
                                     00E2   239 ;	BSBW	NT$UPDATE1
                                     00E2   240 ;
                                     00E2   241 ; INPUT PARAMETERS:
                                     00E2   242 ;
                                     00E2   243 ;	R11	IMPURE AREA ADDRESS
                                     00E2   244 ;	R10	IFAB ADDRESS
                                     00E2   245 ;	R9	IRAB ADDRESS
                                     00E2   246 ;	R8	RAB ADDRESS
                                     00E2   247 ;	R4	BDB ADDRESS
                                     00E2   248 ;
                                     00E2   249 ; IMPLICIT INPUTS:
                                     00E2   250 ;
                                     00E2   251 ;	NONE
                                     00E2   252 ;
                                     00E2   253 ; OUTPUT PARAMETERS:
                                     00E2   254 ;
                                     00E2   255 ;	R0	STATUS CODE (RMS)
                                     00E2   256 ;	R1-R7	DESTROYED
                                     00E2   257 ;	AP	DESTROYED
                                     00E2   258 ;
                                     00E2   259 ; IMPLICIT OUTPUTS:
                                     00E2   260 ;
                                     00E2   261 ;	NONE
                                     00E2   262 ;
                                     00E2   263 ; COMPLETION CODES:
                                     00E2   264 ;
                                     00E2   265 ;	STANDARD RMS COMPLETION CODES.
                                     00E2   266 ;
                                     00E2   267 ; SIDE EFFECTS:
                                     00E2   268 ;
                                     00E2   269 ;	NONE
                                     00E2   270 ;
                                     00E2   271 ;--
                                     00E2   272
                                     00E2   273 NT$UPDATE1::				; CONTROL POINT
                                     00E2   274 	$TSTPT	NTUPDATE1		;
                 00000200'9F     D6  00E2       		INCL	@#PIO$GL_FMLH+512+TPT$L_NTUPDATE1
                                     00E8   275 	RMSERR	SUP			; UNSUPPORTED FUNCTION
            50       0000'8F     3C  00E8       		MOVZWL	#<RMS$_SUP&^XFFFF>,R0
                                 05  00ED   276 	RSB				; UPDATE_EXIT WITH RMS CODE IN R0
                     00F0 8F     BB  00EE   277 	PUSHR	#^M<R4,R5,R6,R7>	; SAVE REGISTERS
            56            54     D0  00F2   278 	MOVL	R4,R6			; COPY BDB ADDRESS
            57         28 AA     D0  00F5   279 	MOVL	IFB$L_NWA_PTR(R10),R7	; GET ADDRESS OF NWA
            54       0160 C7     9E  00F9   280 	MOVAB	NWA$T_BUFFER(R7),R4	; GET ADDRESS OF SCRATCH BUFFER
            55            54     D0  00FE   281 	MOVL	R4,R5			; INITIALIZE NEXT BYTE POINTER
            85            04     90  0101   282 	MOVB	#DAP$K_CTL_MSG,(R5)+	; DAP MESSAGE TYPE FIELD
                          85     94  0104   283 	CLRB	(R5)+			; FLAGS FIELD
NT0PUT          NETWORK PUT/UPDATE/DELETE RECORD                 21-AUG-1978 22:24:10   VAX-11 MACRO X0.3-11               Page   8
010             NT$UPDATE1 - PERFORM NETWORK UPDATE FUNCTION                                                                     (5)

            85            03     90  0106   284 	MOVB	#DAP$K_UPDATE,(R5)+	; CTLFUNC FIELD
            85            03     90  0109   285 	MOVB	#<DAP$M_RAC!DAP$M_KEY>,(R5)+ ; CTLMENU FIELD
            85            00     90  010C   286 	MOVB	#DAP$K_SEQ_ACC,(R5)+	; RAC FIELD
            55            54     C2  010F   287 	SUBL2	R4,R5			; CALCULATE SIZE OF THE MESSAGE
                          FEEB'  30  0112   288 	BSBW	NT$TRANSMIT		; SEND CONTROL MESSAGE TO FAL
            2F            50     E9  0115   289 	BLBC	R0,UPDATE_EXIT		; BRANCH ON FAILURE
            50         10 A6     3C  0118   290 	MOVZWL	BDB$W_NUMB(R6),R0	;
            51         14 A6     D0  011C   291 	MOVL	BDB$L_ADDR(R6),R1	;
            61            50     28  0120   292 	MOVC3	R0,(R1),3(R1)		;
                       03 A1         0123
            54         14 A6     D0  0125   293 	MOVL	BDB$L_ADDR(R6),R4	; GET BUFFER ADDRESS
            55            54     D0  0129   294 	MOVL	R4,R5			; INITIALIZE NEXT BYTE POINTER
            85            08     90  012C   295 	MOVB	#DAP$K_DAT_MSG,(R5)+	; DAP MESSAGE TYPE FIELD
                          85     94  012F   296 	CLRB	(R5)+			; FLAGS FIELD
                          85     94  0131   297 	CLRB	(R5)+			; RECNUM FIELD
            55         10 A6     3C  0133   298 	MOVZWL	BDB$W_NUMB(R6),R5	; GET RECORD SIZE
            55            03     C0  0137   299 	ADDL2	#3,R5			; CALCULATE MESSAGE SIZE
                          FEC3'  30  013A   300 	BSBW	NT$TRANSMIT		; PUT RECORD
            07            50     E9  013D   301 	BLBC	R0,UPDATE_EXIT		; BRANCH ON FAILURE
         0A A6            02     8A  0140   302 	BICB2	#<1@BDB$V_DRT>,BDB$B_FLGS(R6) ; SAY NOT DIRTY ANYMORE
                                     0144   303 	RMSSUC				; RETURN SUCCESS
            50            01     D0  0144       		MOVL	#1,R0
                                     0147   304 UPDATE_EXIT:				;
                     00F0 8F     BA  0147   305 	POPR	#^M<R4,R5,R6,R7>	; RESTORE REGISTERS
                                 05  014B   306 	RSB				; EXIT WITH RMS CODE IN R0
NT0PUT          NETWORK PUT/UPDATE/DELETE RECORD                 21-AUG-1978 22:24:10   VAX-11 MACRO X0.3-11               Page   9
010             NT$UPDATE2 - PERFORM NETWORK UPDATE FUNCTION                                                                     (6)

                                     014C   308 	.SBTTL	NT$UPDATE2 - PERFORM NETWORK UPDATE FUNCTION
                                     014C   309
                                     014C   310 ;++
                                     014C   311 ; FUNCTIONAL DESCRIPTION:
                                     014C   312 ;
                                     014C   313 ;	NT$UPDATE2 ENGAGES IN A DAP DIALOGUE WITH THE REMOTE FAL TO UPDATE
                                     014C   314 ;	THE SPECIFIED RECORD OF A RELATIVE FILE.
                                     014C   315 ;
                                     014C   316 ; CALLING SEQUENCE:
                                     014C   317 ;
                                     014C   318 ;	BSBW	NT$UPDATE2
                                     014C   319 ;
                                     014C   320 ; INPUT PARAMETERS:
                                     014C   321 ;
                                     014C   322 ;	R11	IMPURE AREA ADDRESS
                                     014C   323 ;	R10	IFAB ADDRESS
                                     014C   324 ;	R9	IRAB ADDRESS
                                     014C   325 ;	R8	RAB ADDRESS
                                     014C   326 ;	R4	BDB ADDRESS
                                     014C   327 ;
                                     014C   328 ; IMPLICIT INPUTS:
                                     014C   329 ;
                                     014C   330 ;	NONE
                                     014C   331 ;
                                     014C   332 ; OUTPUT PARAMETERS:
                                     014C   333 ;
                                     014C   334 ;	R0	STATUS CODE (RMS)
                                     014C   335 ;	R1-R7	DESTROYED
                                     014C   336 ;	AP	DESTROYED
                                     014C   337 ;
                                     014C   338 ; IMPLICIT OUTPUTS:
                                     014C   339 ;
                                     014C   340 ;	NONE
                                     014C   341 ;
                                     014C   342 ; COMPLETION CODES:
                                     014C   343 ;
                                     014C   344 ;	STANDARD RMS COMPLETION CODES.
                                     014C   345 ;
                                     014C   346 ; SIDE EFFECTS:
                                     014C   347 ;
                                     014C   348 ;	NONE
                                     014C   349 ;
                                     014C   350 ;--
                                     014C   351
                                     014C   352 NT$UPDATE2::				; CONTROL POINT
                                     014C   353 	$TSTPT	NTUPDATE2		;
                 00000200'9F     D6  014C       		INCL	@#PIO$GL_FMLH+512+TPT$L_NTUPDATE2
                                     0152   354 	RMSERR	SUP			; UNSUPPORTED FUNCTION
            50       0000'8F     3C  0152       		MOVZWL	#<RMS$_SUP&^XFFFF>,R0
                                 05  0157   355 	RSB				; EXIT WITH RMS CODE IN R0
                          FF87   31  0158   356 	BRW	NT$UPDATE1		;
NT0PUT          NETWORK PUT/UPDATE/DELETE RECORD                 21-AUG-1978 22:24:10   VAX-11 MACRO X0.3-11               Page  10
010             NT$DELETE2 - PERFORM NETWORK DELETE FUNCTION                                                                     (7)

                                     015B   358 	.SBTTL	NT$DELETE2 - PERFORM NETWORK DELETE FUNCTION
                                     015B   359
                                     015B   360 ;++
                                     015B   361 ; FUNCTIONAL DESCRIPTION:
                                     015B   362 ;
                                     015B   363 ;	NT$DELETE2 ENGAGES IN A DAP DIALOGUE WITH THE REMOTE FAL TO DELETE
                                     015B   364 ;	THE SPECIFIED RECORD OF A RELATIVE FILE.
                                     015B   365 ;
                                     015B   366 ; CALLING SEQUENCE:
                                     015B   367 ;
                                     015B   368 ;	BSBW	NT$DELETE2
                                     015B   369 ;
                                     015B   370 ; INPUT PARAMETERS:
                                     015B   371 ;
                                     015B   372 ;	R11	IMPURE AREA ADDRESS
                                     015B   373 ;	R10	IFAB ADDRESS
                                     015B   374 ;	R9	IRAB ADDRESS
                                     015B   375 ;	R8	RAB ADDRESS
                                     015B   376 ;	R4	BDB ADDRESS
                                     015B   377 ;
                                     015B   378 ; IMPLICIT INPUTS:
                                     015B   379 ;
                                     015B   380 ;	NONE
                                     015B   381 ;
                                     015B   382 ; OUTPUT PARAMETERS:
                                     015B   383 ;
                                     015B   384 ;	R0	STATUS CODE (RMS)
                                     015B   385 ;	R1-R7	DESTROYED
                                     015B   386 ;	AP	DESTROYED
                                     015B   387 ;
                                     015B   388 ; IMPLICIT OUTPUTS:
                                     015B   389 ;
                                     015B   390 ;	NONE
                                     015B   391 ;
                                     015B   392 ; COMPLETION CODES:
                                     015B   393 ;
                                     015B   394 ;	STANDARD RMS COMPLETION CODES.
                                     015B   395 ;
                                     015B   396 ; SIDE EFFECTS:
                                     015B   397 ;
                                     015B   398 ;	NONE
                                     015B   399 ;
                                     015B   400 ;--
                                     015B   401
                                     015B   402 NT$DELETE2::				; CONTROL POINT
                                     015B   403 	$TSTPT	NTDELETE2		;
                 00000200'9F     D6  015B       		INCL	@#PIO$GL_FMLH+512+TPT$L_NTDELETE2
                                     0161   404 	RMSERR	SUP			; UNSUPPORTED FUNCTION
            50       0000'8F     3C  0161       		MOVZWL	#<RMS$_SUP&^XFFFF>,R0
                                 05  0166   405 	RSB				; EXIT WITH RMS CODE IN R0
                     00F0 8F     BB  0167   406 	PUSHR	#^M<R4,R5,R6,R7>	; SAVE REGISTERS
            56            54     D0  016B   407 	MOVL	R4,R6			; COPY BDB ADDRESS
            57         28 AA     D0  016E   408 	MOVL	IFB$L_NWA_PTR(R10),R7	; GET ADDRESS OF NWA
            54       0160 C7     9E  0172   409 	MOVAB	NWA$T_BUFFER(R7),R4	; GET ADDRESS OF SCRATCH BUFFER
            55            54     D0  0177   410 	MOVL	R4,R5			; INITIALIZE NEXT BYTE POINTER
            85            04     90  017A   411 	MOVB	#DAP$K_CTL_MSG,(R5)+	; DAP MESSAGE TYPE FIELD
                          85     94  017D   412 	CLRB	(R5)+			; FLAGS FIELD
NT0PUT          NETWORK PUT/UPDATE/DELETE RECORD                 21-AUG-1978 22:24:10   VAX-11 MACRO X0.3-11               Page  11
010             NT$DELETE2 - PERFORM NETWORK DELETE FUNCTION                                                                     (7)

            85            05     90  017F   413 	MOVB	#DAP$K_DELETE,(R5)+	; CTLFUNC FIELD
            85            03     90  0182   414 	MOVB	#<DAP$M_RAC!DAP$M_KEY>,(R5)+ ; CTLMENU FIELD
            85            00     90  0185   415 	MOVB	#DAP$K_SEQ_ACC,(R5)+	; RAC FIELD
            55            54     C2  0188   416 	SUBL2	R4,R5			; CALCULATE SIZE OF THE MESSAGE
                          FE72'  30  018B   417 	BSBW	NT$TRANSMIT		; SEND CONTROL MESSAGE TO FAL
            2F            50     E9  018E   418 	BLBC	R0,DELETE_EXIT		; BRANCH ON FAILURE
            50         10 A6     3C  0191   419 	MOVZWL	BDB$W_NUMB(R6),R0	;
            51         14 A6     D0  0195   420 	MOVL	BDB$L_ADDR(R6),R1	;
            61            50     28  0199   421 	MOVC3	R0,(R1),3(R1)		;
                       03 A1         019C
            54         14 A6     D0  019E   422 	MOVL	BDB$L_ADDR(R6),R4	; GET BUFFER ADDRESS
            55            54     D0  01A2   423 	MOVL	R4,R5			; INITIALIZE NEXT BYTE POINTER
            85            08     90  01A5   424 	MOVB	#DAP$K_DAT_MSG,(R5)+	; DAP MESSAGE TYPE FIELD
                          85     94  01A8   425 	CLRB	(R5)+			; FLAGS FIELD
                          85     94  01AA   426 	CLRB	(R5)+			; RECNUM FIELD
            55         10 A6     3C  01AC   427 	MOVZWL	BDB$W_NUMB(R6),R5	; GET RECORD SIZE
            55            03     C0  01B0   428 	ADDL2	#3,R5			; CALCULATE MESSAGE SIZE
                          FE4A'  30  01B3   429 	BSBW	NT$TRANSMIT		; PUT RECORD
            07            50     E9  01B6   430 	BLBC	R0,DELETE_EXIT		; BRANCH ON FAILURE
         0A A6            02     8A  01B9   431 	BICB2	#<1@BDB$V_DRT>,BDB$B_FLGS(R6) ; SAY NOT DIRTY ANYMORE
                                     01BD   432 	RMSSUC				; RETURN SUCCESS
            50            01     D0  01BD       		MOVL	#1,R0
                                     01C0   433 DELETE_EXIT:				;
                     00F0 8F     BA  01C0   434 	POPR	#^M<R4,R5,R6,R7>	; RESTORE REGISTERS
                                 05  01C4   435 	RSB				; EXIT WITH RMS CODE IN R0
                                     01C5   436 	.END
NT0PUT          NETWORK PUT/UPDATE/DELETE RECORD                 21-AUG-1978 22:24:10   VAX-11 MACRO X0.3-11               Page  12
SYMBOL TABLE                                                                                                                     (7)

$$.PSECT_EP    = 00000000            DAP$B_FSZ        00000049            DAP$K_REL      = 00000010
$$RMSTEST      = 0000001A            DAP$B_LENGTH     00000023            DAP$K_RESPONSE = 00000002
$$RMS_PBUGCHK  = 00000010            DAP$B_MAC_CODE   0000000B            DAP$K_RETRY    = 00000001
$$RMS_TBUGCHK  = 00000008            DAP$B_MSG_TYPE   0000000A            DAP$K_REWIND   = 00000006
$$RMS_UMODE    = 00000004            DAP$B_ORG        0000003D            DAP$K_RFA_ACC  = 00000002
BDB$B_BID        00000008            DAP$B_OSTYPE     00000026            DAP$K_RMS32    = 00000003
BDB$B_BLN        00000009            DAP$B_RAC        0000006E            DAP$K_ROP_I    = 00000802
BDB$B_FLGS       0000000A            DAP$B_RAT        0000003F            DAP$K_SEQ      = 00000000
BDB$B_POST_CCTL  00000023            DAP$B_RFM        0000003E            DAP$K_SEQ_ACC  = 00000000
BDB$B_PRE_CCTL   00000022            DAP$B_SHR        00000063            DAP$K_SEQ_FILE = 00000003
BDB$B_REL_VBN    00000020            DAP$B_SOFTVER    0000002B            DAP$K_SHR_I    = 00000090
BDB$B_USECNT     0000000B            DAP$B_STREAMID   00000022            DAP$K_SKIP_REC = 00000002
BDB$B_VAL_VBNS   00000021            DAP$B_TYPE       00000020            DAP$K_SOFTVER_V= 00000001
BDB$C_BID      = 0000000C            DAP$B_USRNUM     0000002A            DAP$K_SPACE    = 0000000B
BDB$C_BLN        00000028            DAP$B_USRSOFT    0000002C            DAP$K_STM      = 00000004
BDB$K_BLN        00000028            DAP$B_VERNUM     00000028            DAP$K_STS_MSG  = 00000009
BDB$L_ADDR       00000014            DAP$C_BLN        000000C0            DAP$K_SUBMIT   = 00000007
BDB$L_BLINK      00000004            DAP$K_ABORT    = 00000003            DAP$K_SYSCAP_V = E00660E7
BDB$L_CURBUFADR  00000024            DAP$K_ACCOPT_I = 00000008            DAP$K_UDF      = 00000000
BDB$L_FLINK      00000000            DAP$K_ACC_MSG  = 00000003            DAP$K_UPDATE   = 00000003
BDB$L_IOSB       00000020            DAP$K_ACK_MSG  = 00000006            DAP$K_USRNUM_V = 00000000
BDB$L_OWN        0000000C            DAP$K_ATTMENU_I= 0001A000            DAP$K_USRSOFT_V= 00000000
BDB$L_VBN        00000018            DAP$K_ATT_MSG  = 00000002            DAP$K_VAR      = 00000002
BDB$L_WAIT       0000001C            DAP$K_BLK_FILE = 00000005            DAP$K_VAXVMS   = 00000007
BDB$L_WK1        00000020            DAP$K_BLK_VBN  = 00000004            DAP$K_VERNUM_V = 00000004
BDB$M_AST_DCL  = 00000040            DAP$K_BLN        000000C0            DAP$K_VFC      = 00000003
BDB$M_DRT      = 00000002            DAP$K_BLS_D    = 00000200            DAP$L_ALQ        00000044
BDB$M_IOP      = 00000004            DAP$K_BUFSIZ_V = 00001100            DAP$L_ATTMENU    00000038
BDB$M_LKDINWS  = 00000080            DAP$K_CLOSE    = 00000001            DAP$L_DCODE_STS  00000008
BDB$M_NOLOCATE = 00000010            DAP$K_CMP_MSG  = 00000007            DAP$L_DEV        0000005C
BDB$M_PRM      = 00000008            DAP$K_CNF_MSG  = 00000001            DAP$L_FOP        00000058
BDB$M_VAL      = 00000001            DAP$K_CONNECT  = 00000002            DAP$L_FOP2       00000084
BDB$M_WFO      = 00000020            DAP$K_CON_MSG  = 00000005            DAP$L_MRN        0000004C
BDB$V_AST_DCL  = 00000006            DAP$K_CREATE   = 00000002            DAP$L_MSG_MASK   0000000C
BDB$V_DRT      = 00000001            DAP$K_CTLMENU_I= 00000054            DAP$L_OPERATOR   00000020
BDB$V_IOP      = 00000002            DAP$K_CTL_MSG  = 00000004            DAP$L_RECNUM     000000A4
BDB$V_LKDINWS  = 00000007            DAP$K_DATATYP_I= 00000084            DAP$L_ROP        00000078
BDB$V_NOLOCATE = 00000004            DAP$K_DAT_MSG  = 00000008            DAP$L_STV        000000A8
BDB$V_PRM      = 00000003            DAP$K_DELETE   = 00000005            DAP$M_ALQ      = 00000040
BDB$V_VAL      = 00000000            DAP$K_DEV_I    = 04000040            DAP$M_BKS      = 00000080
BDB$V_WFO      = 00000005            DAP$K_DISCON   = 00000004            DAP$M_BLS      = 00000010
BDB$W_NUMB       00000010            DAP$K_ECONUM_V = 00000002            DAP$M_CBT      = 00800000
BDB$W_SIZE       00000012            DAP$K_ERASE    = 00000004            DAP$M_CIF      = 00010000
BIT...         = 00000008            DAP$K_EXECUTE  = 00000008            DAP$M_CTG      = 00000080
DAP$B_ACCFUNC    00000060            DAP$K_FAC_I    = 00000040            DAP$M_DATATYPE = 00000001
DAP$B_ACCOPT     00000061            DAP$K_FIND     = 0000000E            DAP$M_DEQ      = 00000800
DAP$B_BKS        00000048            DAP$K_FIX      = 00000001            DAP$M_DEV      = 00004000
DAP$B_CMPFUNC    00000080            DAP$K_FLAGS_I  = 00000004            DAP$M_DLK      = 00000010
DAP$B_CONFUNC    0000007C            DAP$K_FOP_I    = 01020024            DAP$M_DLT      = 00400000
DAP$B_CTLFUNC    0000006C            DAP$K_GET_READ = 00000001            DAP$M_DMO      = 00002000
DAP$B_CTLMENU    0000006D            DAP$K_IDX      = 00000020            DAP$M_EMBEDDED = 00000010
DAP$B_DATATYPE   0000003C            DAP$K_KEY_ACC  = 00000001            DAP$M_FID      = 00001000
DAP$B_ECONUM     00000029            DAP$K_LSA      = 00000005            DAP$M_FOP      = 00001000
DAP$B_FAC        00000062            DAP$K_OPEN     = 00000001            DAP$M_FSZ      = 00000100
DAP$B_FIELD_ID   00000009            DAP$K_PURGE    = 00000003            DAP$M_GET      = 00000002
DAP$B_FILESYS    00000027            DAP$K_PUT_WRITE= 00000004            DAP$M_IMAGE    = 00000002
DAP$B_FLAGS      00000021            DAP$K_RAT_I    = 00000020            DAP$M_KEY      = 00000002
NT0PUT          NETWORK PUT/UPDATE/DELETE RECORD                 21-AUG-1978 22:24:10   VAX-11 MACRO X0.3-11               Page  13
SYMBOL TABLE                                                                                                                     (7)

DAP$M_MRN      = 00000200            DAP$V_DEVDIR   = 00000003            DAP$V_RELORG   = 00000002
DAP$M_MRS      = 00000020            DAP$V_DEVDMT   = 0000000B            DAP$V_RFM      = 00000002
DAP$M_MXV      = 00080000            DAP$V_DEVELG   = 00000011            DAP$V_ROP      = 00000003
DAP$M_NEF      = 00000200            DAP$V_DEVFOD   = 00000007            DAP$V_RUNSYS   = 0000000A
DAP$M_NIL      = 00000040            DAP$V_DEVFOR   = 00000017            DAP$V_RWC      = 00000001
DAP$M_NONFATAL = 00000001            DAP$V_DEVGEN   = 00000019            DAP$V_RWO      = 00000000
DAP$M_ORG      = 00000002            DAP$V_DEVIDV   = 0000000D            DAP$V_SCF      = 00000015
DAP$M_POS      = 00000008            DAP$V_DEVMBX   = 00000012            DAP$V_SEQORG   = 00000001
DAP$M_RAC      = 00000001            DAP$V_DEVMNT   = 0000000A            DAP$V_SEQREC   = 00000005
DAP$M_RAT      = 00000008            DAP$V_DEVNET   = 00000018            DAP$V_SPL      = 00000014
DAP$M_RCK      = 00008000            DAP$V_DEVODV   = 0000000E            DAP$V_SQO      = 00000012
DAP$M_RFM      = 00000004            DAP$V_DEVRCK   = 00000015            DAP$V_STREAMID = 00000000
DAP$M_ROP      = 00000008            DAP$V_DEVREC   = 00000000            DAP$V_STSRTN   = 00000011
DAP$M_RUNSYS   = 00000400            DAP$V_DEVRND   = 00000014            DAP$V_STS_RETRV= 00000002
DAP$M_RWC      = 00000002            DAP$V_DEVRTM   = 00000013            DAP$V_STS_STORE= 00000001
DAP$M_RWO      = 00000001            DAP$V_DEVSDI   = 00000004            DAP$V_SUBMIT   = 0000000E
DAP$M_SCF      = 00200000            DAP$V_DEVSHR   = 00000008            DAP$V_SUP      = 00000008
DAP$M_SPL      = 00100000            DAP$V_DEVSPL   = 00000009            DAP$V_TMD      = 0000000B
DAP$M_SQO      = 00040000            DAP$V_DEVSQD   = 00000005            DAP$V_TMP      = 0000000A
DAP$M_SUP      = 00000100            DAP$V_DEVSWL   = 0000000F            DAP$V_TMP1..   = 00000001
DAP$M_TMD      = 00000800            DAP$V_DEVTRM   = 00000002            DAP$V_TMP2..   = 0000000B
DAP$M_TMP      = 00000400            DAP$V_DEVWCK   = 00000016            DAP$V_TMP3..   = 00000006
DAP$M_WCK      = 00004000            DAP$V_DLK      = 00000004            DAP$V_TMP4..   = 00000018
DAP$Q_DCODE_FLG  00000000            DAP$V_DLT      = 00000016            DAP$V_TRN      = 00000004
DAP$Q_FILEDATA   00000090            DAP$V_DMO      = 0000000D            DAP$V_UPD      = 00000003
DAP$Q_FILESPEC   00000064            DAP$V_EMBEDDED = 00000004            DAP$V_VAXVMS   = 00000021
DAP$Q_KEY        00000070            DAP$V_EOF      = 00000000            DAP$V_WCK      = 0000000E
DAP$Q_MSG_BUF1   00000010            DAP$V_EXEC     = 00000004            DAP$W_BLS        00000040
DAP$Q_MSG_BUF2   00000018            DAP$V_FID      = 0000000C            DAP$W_BUFSIZ     00000024
DAP$Q_NUMBER     00000088            DAP$V_FILALL   = 00000000            DAP$W_DEQ        0000004A
DAP$Q_RFA        0000009C            DAP$V_FOP      = 0000000C            DAP$W_MRS        00000042
DAP$Q_RUNSYS     00000050            DAP$V_FOPDLT   = 0000001F            DAP$W_STSCODE    00000098
DAP$Q_SYSCAP     00000030            DAP$V_FOPSCF   = 0000001E            DAP$_FILE_CLOS = 00000007
DAP$Q_VERSION    00000028            DAP$V_FOPSPL   = 0000001D            DAP$_FILE_OPEN = 00000004
DAP$S_TMP1..   = 0000000A            DAP$V_FSZ      = 00000008            DAP$_FILE_XFER = 00000005
DAP$S_TMP2..   = 00000015            DAP$V_FTN      = 00000000            DAP$_FORMAT    = 00000008
DAP$S_TMP3..   = 00000002            DAP$V_GET      = 00000001            DAP$_INVALID   = 00000009
DAP$S_TMP4..   = 00000008            DAP$V_IMAGE    = 00000001            DAP$_MSG_SYNC  = 0000000A
DAP$V_AFTER_V41= 00000020            DAP$V_KEY      = 00000001            DAP$_PENDING   = 00000000
DAP$V_ALQ      = 00000006            DAP$V_LENGTH   = 00000001            DAP$_SUCCESS   = 00000001
DAP$V_APPEND   = 0000000D            DAP$V_MRN      = 00000009            DAP$_UNSUPPORT = 00000002
DAP$V_ASCII    = 00000000            DAP$V_MRS      = 00000005            DELETE_EXIT      000001C0 R     02
DAP$V_BIO      = 00000005            DAP$V_MSGBLK   = 00000012            ERRRTB           0000006D R     02
DAP$V_BKS      = 00000007            DAP$V_MXV      = 00000013            GBL...         = 00000000
DAP$V_BLK      = 00000003            DAP$V_NEF      = 00000009            IFB$B_AMAX       00000059
DAP$V_BLS      = 00000004            DAP$V_NIL      = 00000006            IFB$B_AVBN       00000058
DAP$V_CBT      = 00000017            DAP$V_NONFATAL = 00000000            IFB$B_BID        00000008
DAP$V_CIF      = 00000010            DAP$V_ORG      = 00000001            IFB$B_BKS        0000004A
DAP$V_CR       = 00000001            DAP$V_POS      = 00000003            IFB$B_BLN        00000009
DAP$V_CTG      = 00000007            DAP$V_PRIV     = 00000005            IFB$B_EFN        0000000B
DAP$V_DATATYPE = 00000000            DAP$V_PRN      = 00000002            IFB$B_EXTRABUF   0000005D
DAP$V_DEL      = 00000002            DAP$V_PUT      = 00000000            IFB$B_FAC        00000022
DAP$V_DEQ      = 0000000B            DAP$V_RAC      = 00000000            IFB$B_FSZ        0000004B
DAP$V_DEV      = 0000000E            DAP$V_RANREC   = 00000006            IFB$B_KBUFSZ     0000005C
DAP$V_DEVALL   = 0000000C            DAP$V_RANVBN   = 00000007            IFB$B_MODE       0000000A
DAP$V_DEVAVL   = 00000010            DAP$V_RAT      = 00000003            IFB$B_NUM_KEYS   0000005A
DAP$V_DEVCCL   = 00000001            DAP$V_RCK      = 0000000F            IFB$B_ORGCASE    00000023
NT0PUT          NETWORK PUT/UPDATE/DELETE RECORD                 21-AUG-1978 22:24:10   VAX-11 MACRO X0.3-11               Page  14
SYMBOL TABLE                                                                                                                     (7)

IFB$B_RAT        0000003D            IFB$V_BIO      = 00000005            IRB$B_PRE_CCTL   00000044
IFB$B_RFMORG     0000003C            IFB$V_BRO      = 00000006            IRB$B_RFA_ID     00000058
IFB$B_UBUFSZ     0000005B            IFB$V_BUSY     = 00000020            IRB$B_RP_ID      00000038
IFB$C_BID      = 0000000B            IFB$V_CREATE   = 00000032            IRB$B_RP_KREF    00000039
IFB$C_BLN        00000060            IFB$V_DAP      = 0000003E            IRB$B_RRV_ID     00000050
IFB$C_BLN_IDX    00000060            IFB$V_DAP_OPEN = 0000003D            IRB$B_SRCHFLAGS  00000043
IFB$C_BLN_REL    00000060            IFB$V_DEL      = 00000002            IRB$B_STOPLEVEL  00000042
IFB$C_BLN_SEQ    0000005C            IFB$V_DFW      = 0000002C            IRB$C_BID      = 0000000A
IFB$C_DIR      = 00000003            IFB$V_DLT      = 0000002B            IRB$C_BLN_IDX    0000006C
IFB$C_FHAEND     00000050            IFB$V_DMO      = 00000028            IRB$C_BLN_REL    00000048
IFB$C_IDX      = 00000002            IFB$V_EOF      = 00000021            IRB$C_BLN_SEQ    0000004C
IFB$C_MAXORG   = 00000002            IFB$V_EXE      = 00000007            IRB$K_BLN_IDX    0000006C
IFB$C_REL      = 00000001            IFB$V_GET      = 00000001            IRB$K_BLN_REL    00000048
IFB$C_SEQ      = 00000000            IFB$V_MSE      = 00000031            IRB$K_BLN_SEQ    0000004C
IFB$K_BLN        00000060            IFB$V_NORECLK  = 00000033            IRB$L_ARGLST     00000018
IFB$K_BLN_IDX    00000060            IFB$V_NSP      = 0000003F            IRB$L_ASBADDR    00000014
IFB$K_BLN_REL    00000060            IFB$V_NWA      = 0000003C            IRB$L_BKPBITS    00000004
IFB$K_BLN_SEQ    0000005C            IFB$V_ORG      = 00000004            IRB$L_BWB        0000000C
IFB$K_FHAEND     00000050            IFB$V_PPF_IMAGE= 00000022            IRB$L_CURBDB     00000020
IFB$L_ARGLST     00000018            IFB$V_PPF_INPUT= 0000002E            IRB$L_CURVBN     00000030
IFB$L_ASBADDR    00000014            IFB$V_PUT      = 00000000            IRB$L_IFAB_LNK   00000000
IFB$L_AS_DEV     00000054            IFB$V_RFM      = 00000000            IRB$L_IOS        0000000C
IFB$L_BDB_BLNK   00000034            IFB$V_RWC      = 00000027            IRB$L_IOS4       00000010
IFB$L_BDB_FLNK   00000030            IFB$V_RW_ATTR  = 00000034            IRB$L_IRAB_LNK   0000001C
IFB$L_BKPBITS    00000004            IFB$V_SCF      = 0000002A            IRB$L_KEYBUF     00000048
IFB$L_BWB        0000000C            IFB$V_SPL      = 00000029            IRB$L_LAST_RAB   00000024
IFB$L_DVBN       00000058            IFB$V_SQO      = 0000002D            IRB$L_LOCK_BDB   0000005C
IFB$L_EBK        00000044            IFB$V_TEF      = 00000036            IRB$L_NRP        0000002C
IFB$L_FRB_PTR    00000028            IFB$V_TMP      = 00000035            IRB$L_NRP_OFF    00000030
IFB$L_FWA_BDB    00000050            IFB$V_TRN      = 00000004            IRB$L_NRP_VBN    0000002C
IFB$L_HBK        00000040            IFB$V_UPD      = 00000003            IRB$L_NXTBDB     00000028
IFB$L_IDX_PTR    00000054            IFB$V_WRTACC   = 00000030            IRB$L_OWNER_ID   0000003C
IFB$L_IOS        0000000C            IFB$W_ASDEVBSIZ  0000005A            IRB$L_RFA_VBN    00000054
IFB$L_IOS4       00000010            IFB$W_BKS_BYTES  0000005C            IRB$L_RLB_ADDR   00000044
IFB$L_IRAB_LNK   0000001C            IFB$W_BKS_RECS   0000005E            IRB$L_RP         00000034
IFB$L_LAST_FAB   00000024            IFB$W_CHNL       00000020            IRB$L_RP_OFF     00000038
IFB$L_LOCK_BDB   00000050            IFB$W_DEQ        0000004E            IRB$L_RP_VBN     00000034
IFB$L_MRN        00000054            IFB$W_DEVBUFSIZ  00000038            IRB$L_RRV_VBN    0000004C
IFB$L_NRP_LNK    00000050            IFB$W_EBK0       00000044            IRB$L_TEMP0      00000044
IFB$L_NWA_PTR    00000028            IFB$W_EBK2       00000046            IRB$L_TEMP1      00000048
IFB$L_PRIM_DEV   00000000            IFB$W_FFB        00000048            IRB$V_ASYNC    = 00000023
IFB$L_RLB_LNK    0000002C            IFB$W_IOS2       0000000E            IRB$V_ASYNCWAIT= 00000024
IFB$L_RNS_LEN    00000050            IFB$W_LRL        0000003E            IRB$V_BIO_LAST = 00000027
IFB$M_BIO      = 00000020            IFB$W_MRS        0000004C            IRB$V_BRO_SW   = 00000028
IFB$M_BRO      = 00000040            IFB$W_RTDEQ      0000003A            IRB$V_BUSY     = 00000020
IFB$M_DEL      = 00000004            IRB$B_BCNT       00000040            IRB$V_DAP_CONN = 0000003E
IFB$M_EXE      = 00000080            IRB$B_BID        00000008            IRB$V_DAP_FMODE= 0000003F
IFB$M_GET      = 00000002            IRB$B_BLN        00000009            IRB$V_DUP      = 0000002C
IFB$M_PUT      = 00000001            IRB$B_EFN        0000000B            IRB$V_EOF      = 00000021
IFB$M_TRN      = 00000010            IRB$B_KEYSZ      00000051            IRB$V_FIND     = 00000029
IFB$M_UPD      = 00000008            IRB$B_MBC        00000041            IRB$V_FIND_LAST= 00000025
IFB$S_ORG      = 00000004            IRB$B_MODE       0000000A            IRB$V_IDX_ERR  = 00000031
IFB$S_RFM      = 00000004            IRB$B_NRP_ID     00000030            IRB$V_LOCKABOVE= 00000002
IFB$V_ACCESSED = 00000025            IRB$B_NRP_KREF   00000031            IRB$V_NEW_IDX  = 00000003
IFB$V_ANSI_D   = 00000026            IRB$B_NVBNS      00000048            IRB$V_POSINSERT= 00000000
IFB$V_ASYNC    = 00000023            IRB$B_POST_CCTL  00000045            IRB$V_PPF_EOF  = 0000002E
IFB$V_ASYNCWAIT= 00000024            IRB$B_PPF_ISI    0000003E            IRB$V_PPF_FNDSV= 00000030
NT0PUT          NETWORK PUT/UPDATE/DELETE RECORD                 21-AUG-1978 22:24:10   VAX-11 MACRO X0.3-11               Page  15
SYMBOL TABLE                                                                                                                     (7)

IRB$V_PPF_IMAGE= 00000022
IRB$V_PPF_SKIP = 0000002F
IRB$V_PUTS_LAST= 00000026
IRB$V_RAHWBH   = 0000002A
IRB$V_SKIP_NEXT= 0000002B
IRB$V_SRCHGT   = 00000001
IRB$V_UNLOCK_RP= 0000002D
IRB$V_WRITE    = 00000029
IRB$W_CSIZ       00000042
IRB$W_DUP_POS    00000032
IRB$W_IOS2       0000000E
IRB$W_NRP_OFF    00000030
IRB$W_OWN_ID     0000003C
IRB$W_OWN_ISI    0000003E
IRB$W_ROVHDSZ    00000044
IRB$W_RP_OFF     00000038
IRB$W_RTOTLSZ    00000046
IRB$W_SAVE_POS   00000052
NT$DELETE2       0000015B RG    02
NT$PUT1          00000000 RG    02
NT$PUT2          00000074 RG    02
NT$TRANSMIT      ********   X   02
NT$UPDATE1       000000E2 RG    02
NT$UPDATE2       0000014C RG    02
NWA$B_QUOTEDTRN  0000013F
NWA$C_BLN        00000400
NWA$C_BUFFERSIZ= 000002A0
NWA$C_DAPSIZ   = 000000C0
NWA$K_BLN        00000400
NWA$Q_BUFFER     00000140
NWA$Q_BUFFER2    00000148
NWA$Q_FLG        00000000
NWA$T_BUFFER     00000160
NWA$T_DAP        00000000
NWA$T_FILESPEC   000000C0
NWA$T_QUOTEDBUF  000000C0
NWA$T_SPARE      00000150
PIO$GL_FMLH      ********   X   02
PUT2_EXIT        000000DD R     02
PUT2_REC         000000AE R     02
PUT_EXIT         00000068 R     02
PUT_REC          00000034 R     02
RMS$_RTB         ********   X   02
RMS$_SUP         ********   X   02
TPT$L_NTDELETE2  ********   X   02
TPT$L_NTPUT1     ********   X   02
TPT$L_NTPUT2     ********   X   02
TPT$L_NTUPDATE1  ********   X   02
TPT$L_NTUPDATE2  ********   X   02
UPDATE_EXIT      00000147 R     02


PROGRAM SECTION SYNOPSIS

.  ABS  .        00000000      00     NOPIC   USR   CON   ABS   LCL NOSHR NOEXE NORD  NOWRT BYTE
. BLANK .        00000000      01     NOPIC   USR   CON   REL   LCL NOSHR   EXE   RD    WRT BYTE
NF$NETWORK       000001C5      02     NOPIC   USR   CON   REL   GBL NOSHR   EXE   RD  NOWRT BYTE
NT0PUT          NETWORK PUT/UPDATE/DELETE RECORD                 21-AUG-1978 22:24:10   VAX-11 MACRO X0.3-11               Page  16
PROGRAM SECTION SYNOPSIS                                                                                                         (7)

$ABS$            00000400      03     NOPIC   USR   CON   ABS   LCL NOSHR   EXE   RD    WRT BYTE


THERE WERE NO ERRORS OR WARNINGS.
3032. BYTES LEFT IN FREE MEMORY POOL.
10478. BYTES OF RECLAIMED MEMORY.
OBJ$:NT0PUT,LIS$:NT0PUT/-SP=LIB$:N/ML,R/ML,SRC$:NT0PUT
39 MLB DIR RDS - 1141 GETS TO DEFINE 19 MACROS. 79 INTER. FILE WRITES.
