RM0COMCLN       COMMON CLEAN UP ON CONNECT - DISCONNECT          21-AUG-1978 21:17:23   VAX-11 MACRO X0.3-11               Page   0
TABLE OF CONTENTS

   (1)      41  DECLARATIONS
   (1)      70  RM$DISCOMMON  -  COMMON CLEANUP ON CONNECT-DISC
RM0COMCLN       COMMON CLEAN UP ON CONNECT - DISCONNECT          21-AUG-1978 21:17:23   VAX-11 MACRO X0.3-11               Page   1
015                                                                                                                              (1)

                                     0000     1 	$BEGIN	RM0COMCLN,015,F$RMSCLOSE0,<COMMON CLEAN UP ON CONNECT - DISCONNECT>
                                     0000     2 ;
                                     0000     3 ;
                                     0000     4 ; COPYRIGHT (C) 1977, 1978
                                     0000     5 ; DIGITAL EQUIPMENT CORPORATION, MAYNARD, MASSACHUSETTS 01754
                                     0000     6 ;
                                     0000     7 ; THIS SOFTWARE IS FURNISHED  UNDER A LICENSE FOR USE ONLY ON A SINGLE
                                     0000     8 ; COMPUTER  SYSTEM AND  MAY BE  COPIED ONLY WITH  THE INCLUSION OF THE
                                     0000     9 ; ABOVE COPYRIGHT NOTICE.  THIS SOFTWARE, OR ANY OTHER COPIES THEREOF,
                                     0000    10 ; MAY NOT BE PROVIDED OR  OTHERWISE MADE AVAILABLE TO ANY OTHER PERSON
                                     0000    11 ; EXCEPT FOR USE ON SUCH SYSTEM AND TO ONE WHO AGREES TO THESE LICENSE
                                     0000    12 ; TERMS.  TITLE TO AND  OWNERSHIP OF THE  SOFTWARE  SHALL AT ALL TIMES
                                     0000    13 ; REMAIN IN DEC.
                                     0000    14 ;
                                     0000    15 ; THE INFORMATION IN THIS SOFTWARE IS SUBJECT TO CHANGE WITHOUT NOTICE
                                     0000    16 ; AND SHOULD  NOT BE CONSTRUED  AS A COMMITMENT  BY DIGITAL  EQUIPMENT
                                     0000    17 ; CORPORATION.
                                     0000    18 ;
                                     0000    19 ; DEC ASSUMES  NO  RESPONSIBILITY  FOR  THE USE OR  RELIABILITY OF ITS
                                     0000    20 ; SOFTWARE ON EQUIPMENT WHICH IS NOT SUPPLIED BY DEC.
                                     0000    21 ;
                                     0000    22 ;++
                                     0000    23 ; FACILITY: RMS32
                                     0000    24 ;
                                     0000    25 ; ABSTRACT:
                                     0000    26 ;		THIS MODULE PROVIDES FOUR ENTRY POINTS TO PROVIDE COMMON
                                     0000    27 ;		CLEAN UP ON CONNECT - DISCONNECT.
                                     0000    28 ;
                                     0000    29 ; ENVIRONMENT:
                                     0000    30 ;		STAR PROCESSOR RUNNING STARLET EXEC.
                                     0000    31 ;
                                     0000    32 ; AUTHOR: L F LAVERDURE,	 CREATION DATE: 31-MAR-77
                                     0000    33 ;
                                     0000    34 ; MODIFIED BY:
                                     0000    35 ;
                                     0000    36 ;	L F LAVERDURE,   26-JUN-78  19:03
                                     0000    37 ;	J A KRYCKA,	 14-AUG-78  07:20
                                     0000    38 ; 01	-
                                     0000    39 ;--
RM0COMCLN       COMMON CLEAN UP ON CONNECT - DISCONNECT          21-AUG-1978 21:17:23   VAX-11 MACRO X0.3-11               Page   2
015             DECLARATIONS                                                                                                     (1)

                                     0000    41 	.SBTTL	DECLARATIONS
                                     0000    42 ;
                                     0000    43 ; INCLUDE FILES:
                                     0000    44 ;
                                     0000    45
                                     0000    46 ;
                                     0000    47 ; MACROS:
                                     0000    48 ;
                                     0000    49 	$IFBDEF
                                     0000    50 	$DEVDEF
                                     0000    51 	$IRBDEF
                                     0000    52 	$CSHDEF
                                     0000    53 	$RLSDEF
                                     0000    54 	$FABDEF
                                     0000    55 	$RABDEF
                                     0000    56 	$PIODEF
                                     0000    57 	$IMPDEF
                                     0000    58 	$PSLDEF
                                     0000    59 	$RMSDEF
                                     0000    60 	.LIST	MEB
                                     0000    61 ;
                                     0000    62 ; EQUATED SYMBOLS:
                                     0000    63 ;
                                     0000    64
                                     0000    65 ;
                                     0000    66 ; OWN STORAGE:
                                     0000    67 ;
                                     0000    68
RM0COMCLN       COMMON CLEAN UP ON CONNECT - DISCONNECT          21-AUG-1978 21:17:23   VAX-11 MACRO X0.3-11               Page   3
015             RM$DISCOMMON  -  COMMON CLEANUP ON CONNECT-DISC                                                                  (1)

                                     0000    70 	.SBTTL RM$DISCOMMON  -  COMMON CLEANUP ON CONNECT-DISCONNECTT ROUTINES
                                     0000    71 ;++
                                     0000    72 ; FUNCTIONAL DESCRIPTION:
                                     0000    73 ;
                                     0000    74 ; THE FOUR ENTRY POINTS OF THIS MODULE
                                     0000    75 ; PROVIDE COMMON CONNECT - DISCONNECT CLEANUP
                                     0000    76 ; FUNCTIONS. SEE DESCRIPTION OF THE ENTRY POINTS.
                                     0000    77 ;
                                     0000    78 ; CALLING SEQUENCE:
                                     0000    79 ;
                                     0000    80 ;	BSBW	RM$DISCOMMONSUC - SETS R0 TO RM$_SUC AND FALLS
                                     0000    81 ;				  THRU TO RM$DISCOMMON
                                     0000    82 ;	BSBW	RM$DISCOMMON    - RELEASE CURRENT BDB AND FALLS
                                     0000    83 ;			   	  THRU TO RM$COMCLNUP
                                     0000    84 ;	BSBW	RM$COMCLNUP     - RETURN ALL BDB'S AND BUFFERS FOR STREAM
                                     0000    85 ;			          AND FALL THRU TO RM$CCLN1
                                     0000    86 ;	BSBW	RM$CCLN1	- DEALLOCATE IRAB AND ZERO ISI
                                     0000    87 ;				  AND IRAB TABLE ENTRY
                                     0000    88 ;
                                     0000    89 ; INPUT PARAMETERS:
                                     0000    90 ;
                                     0000    91 ;	R11	IMPURE AREA ADDRESS
                                     0000    92 ;	R10	IFAB ADDRESS
                                     0000    93 ;	R9	IRAB ADDRESS
                                     0000    94 ;	R8	RAB ADDRESS
                                     0000    95 ;	R0	STATUS CODE (EXCEPT FOR ENTRY AT RM$DISCOMMONSUC)
                                     0000    96 ;
                                     0000    97 ; IMPLICIT INPUTS:
                                     0000    98 ;
                                     0000    99 ;   FOR ENTRY AT RM$DISCOMMON:
                                     0000   100 ;	IRB$L_CURBDB & OTHER RM$RELEASE IMPLICIT INPUTS
                                     0000   101 ;   FOR ENTRY AT RM$COMCLNUP:
                                     0000   102 ;	IRB$B_BCNT & BDB CHAIN
                                     0000   103 ;   FOR ENTRY AT RM$CCLN1:
                                     0000   104 ;	IRB$L_IRAB_LNK
                                     0000   105 ;
                                     0000   106 ; OUTPUT PARAMETERS:
                                     0000   107 ;
                                     0000   108 ;	R0	STATUS CODE
                                     0000   109 ;	R7	SET FROM IRB$B_MODE
                                     0000   110 ;	R9	ZEROED
                                     0000   111 ;	AP	SET FROM IRB$L_ARGLST
                                     0000   112 ;	R1-R6	DESTROYED
                                     0000   113 ;
                                     0000   114 ; IMPLICIT OUTPUTS:
                                     0000   115 ;
                                     0000   116 ;	RAB$W_ISI ZEROED
                                     0000   117 ;	RAB$L_STV POSSIBLY UPDATED
                                     0000   118 ;	IRAB, ALL BDB'S AND RELATED BUFFERS DEALLOCATED
                                     0000   119 ;
                                     0000   120 ; COMPLETION CODES:
                                     0000   121 ;
                                     0000   122 ;	STANDARD RMS. IF AN ERROR OCCURS IT WILL REPLACE
                                     0000   123 ;	THE STATUS CODE INPUT IN R0, OTHERWISE THE CODE INPUT
                                     0000   124 ;	IN R0 WILL BE USED.
                                     0000   125 ;
                                     0000   126 ; SIDE EFFECTS:
RM0COMCLN       COMMON CLEAN UP ON CONNECT - DISCONNECT          21-AUG-1978 21:17:23   VAX-11 MACRO X0.3-11               Page   4
015             RM$DISCOMMON  -  COMMON CLEANUP ON CONNECT-DISC                                                                  (1)

                                     0000   127 ;
                                     0000   128 ;	NONE
                                     0000   129 ;--
RM0COMCLN       COMMON CLEAN UP ON CONNECT - DISCONNECT          21-AUG-1978 21:17:23   VAX-11 MACRO X0.3-11               Page   5
015             RM$DISCOMMON  -  COMMON CLEANUP ON CONNECT-DISC                                                                  (1)

                                     0000   131 ;
                                     0000   132 ; ENTRY POINT TO SET R0 = RM$_SUC AND
                                     0000   133 ; FALL THRU INTO RM$DISCOMMON
                                     0000   134 ;
                                     0000   135 RM$DISCOMMONSUC::
                                     0000   136 	RMSSUC
            50            01     D0  0000       		MOVL	#1,R0
                                     0003   137 ;
                                     0003   138 ; FALL THROUGH INTO RM$COMCLNUP
                                     0003   139 ;
                                     0003   140 RM$DISCOMMON::
                          50     DD  0003   141 	PUSHL	R0				; SAVE STATUS
            69            3E     E4  0005   142 	BBSC	#IRB$V_DAP_CONN,(R9),NTDISC	; BRANCH IF RECORD STREAM
                          66         0008
                                     0009   143 						; IS ACTIVE AT REMOTE NODE
                          02     11  0009   144 	BRB	RTNBDB				;
                                     000B   145 ;
                                     000B   146 ; ENTRY POINT TO RETURN ALL BDB'S AND BUFFERS FOR STREAM
                                     000B   147 ;
                                     000B   148 RM$COMCLNUP::
                          50     DD  000B   149 	PUSHL	R0				; SAVE STATUS
                                     000D   150 RTNBDB:	$TSTPT	COMCLNU
                 00000200'9F     D6  000D       		INCL	@#PIO$GL_FMLH+512+TPT$L_COMCLNU
            69            22     E0  0013   151 	BBS	#IRB$V_PPF_IMAGE,(R9),IND_FILE	;BRANCH IF INDIRECT ACCESS TO PPF
                          5B         0016
            6A            2E     E1  0017   152 	BBC	#IFB$V_PPF_INPUT,(R10),10$	;BRANCH IF NOT SYS$INPUT
                          10         001A
   00000000'9F       2401 8F     B0  001B   153 	MOVW	#1+<^A/$/@8>,@#PIO$GT_ENDSTR	;RESET EOD STRING TO '$'
   00000000'9F            02     8A  0024   154 	BICB2	#1@PIO$V_EOD,@#PIO$GW_STATUS	; AND CLEAR EOD FLAG
                       40 A9     97  002B   155 10$:	DECB	IRB$B_BCNT(R9)			; DECREMENT BUFFER COUNT
                          1C     19  002E   156 	BLSS	20$				; BRANCH IF NO MORE
                                     0030   157 	$CACHE	VBN=#0,SIZE=#1,FLAGS=<NOREAD>,ERR=20$	; GET ANY NON-0 SIZE BUFFER
                          51     D4  0030       		CLRL	R1
            52            01     3C  0032       		.IIF DIF <#1><R2>,	MOVZWL	#1,R2
            53            04     D0  0035       		MOVL #$$.TMP,R3
                          FFC5'  30  0038       		BSBW	RM$CACHE
            0E            50     E9  003B       		.IIF NB <20$>,	BLBC	R0,20$
            53            01     D0  003E   158 	MOVL	#RLS$M_RETURN,R3		; SET RETURN FLAG
                          FFBC'  30  0041   159 	BSBW	RM$RELEASE			; RELEASE BDB & BUFFER
            E4            50     E8  0044   160 	BLBS	R0,10$				; LOOP ON SUCCESS
            6E            50     D0  0047   161 	MOVL	R0,(SP)				; SAVE ERROR CODE
                          DF     11  004A   162 	BRB	10$				; & LOOP
                                     004C   163 ;
                                     004C   164 ; GIVE BACK BLOCK I/O BDB IF FILE IS BLOCK - I/O ACCESSED
                                     004C   165 ;
         22 AA            05     E1  004C   166 20$:	BBC	#FAB$V_BIO,IFB$B_FAC(R10),30$	; BRANCH IF NOT BLOCK I/O
                          19         0050
                                     0051   167 	$CACHE	VBN=#0,SIZE=#0,FLAGS=<NOREAD,NOBUFFER>,ERR=30$	; GET BDB WITHOUT
                          51     D4  0051       		CLRL	R1
                          52     D4  0053       		CLRL	R2
            53            14     D0  0055       		MOVL #$$.TMP,R3
                          FFA5'  30  0058       		BSBW	RM$CACHE
            0C            50     E9  005B       		.IIF NB <30$>,	BLBC	R0,30$
                                     005E   168 								; A BUFFER
            53            01     D0  005E   169 	MOVL	#RLS$M_RETURN,R3		; SET RETURN FLAG
                          FF9C'  30  0061   170 	BSBW	RM$RELEASE			; RELEASE BDB AND BUFFER
            03            50     E8  0064   171 	BLBS	R0,30$				; CONTINUE IF O.K.
RM0COMCLN       COMMON CLEAN UP ON CONNECT - DISCONNECT          21-AUG-1978 21:17:23   VAX-11 MACRO X0.3-11               Page   6
015             RM$DISCOMMON  -  COMMON CLEANUP ON CONNECT-DISC                                                                  (1)

            6E            50     D0  0067   172 	MOVL	R0,(SP)				; SHOW ERROR
                                     006A   173 30$:
                                     006A   174 ;
                                     006A   175 ;  UNLOCK ALL LOCKED RECORDS FOR THIS STREAM
                                     006A   176 ;
                          FF93'  30  006A   177 	BSBW	RM$UNLOCKALL
                          12     11  006D   178 	BRB	RTNIRB
                                     006F   179 ;++
                                     006F   180 ;
                                     006F   181 ;  PERFORM NETWORK DISCONNECT FUNCTION
                                     006F   182 ;
                                     006F   183 ;--
                                     006F   184 NTDISC:	$PSECT_BR	NF$NETWORK
                          FF8E'  31  006F       		BRW	NF$NETWORK0
                                     0072       		.SAVE
                                 00000000       		.PSECT	NF$NETWORK,GBL,NOWRT
                                     0000       NF$NETWORK0:
            6B            04     E0  0000   185 	BBS	#IMP$V_IORUNDOWN,(R11),10$	; BRANCH IF I/O RUNDOWN IN PROGRESS
                          09         0003
                          FFF9'  30  0004   186 	BSBW	NT$DISCONNECT			; DISCONNECT AT REMOTE NODE
            03            50     E8  0007   187 	BLBS	R0,10$				; BRANCH IF SUCCESSFUL
            6E            50     D0  000A   188 	MOVL	R0,(SP)				; SAVE ERROR CODE
                          FFFD'  31  000D   189 10$:	BRW	RTNBDB				; REJOIN MAINLINE
                                     0010   190 	$PSECT_RESTORE
                                 00000072       		.RESTORE
RM0COMCLN       COMMON CLEAN UP ON CONNECT - DISCONNECT          21-AUG-1978 21:17:23   VAX-11 MACRO X0.3-11               Page   7
015             RM$DISCOMMON  -  COMMON CLEANUP ON CONNECT-DISC                                                                  (1)

                                     0072   192 ;
                                     0072   193 ;  THIS IS A DISCONNECT OF AN INDIRECTLY CONNECTED IRAB (I.E., FOR THE IMAGE)
                                     0072   194 ;
                                     0072   195 ;  JUST ZERO ISI AND CLEAR EOF IF UNIT RECORD DEVICE
                                     0072   196 ;
                                     0072   197 IND_FILE:
                       02 A8     B4  0072   198 	CLRW	RAB$W_ISI(R8)			; CLEAR ISI
            6A            00     E1  0075   199 	BBC	#DEV$V_REC,IFB$L_PRIM_DEV(R10),EXIT	;BRANCH IF NOT UNIT RECORD DEVICE
                          3E         0078
                                     0079   200 	CSB	#IRB$V_EOF,(R9)			;RESET EOF FLAG
            69            21     E5  0079       		BBCC	#IRB$V_EOF,(R9),30000$
                          00         007C
                                     007D       30000$:
                          38     11  007D   201 	BRB	EXIT
RM0COMCLN       COMMON CLEAN UP ON CONNECT - DISCONNECT          21-AUG-1978 21:17:23   VAX-11 MACRO X0.3-11               Page   8
015             RM$DISCOMMON  -  COMMON CLEANUP ON CONNECT-DISC                                                                  (1)

                                     007F   203 ;
                                     007F   204 ; ENTRY POINT FOR WHEN NO BDB'S OR BUFFERS ALLOCATED.
                                     007F   205 ; SIMPLY DEALLOCATE THE IRAB AND ZEROES ISI.
                                     007F   206 ;
                                     007F   207 RM$CCLN1::
                          50     DD  007F   208 	PUSHL	R0				; SAVE ERROR CODE
                                     0081   209 ;
                                     0081   210 ; FIND THIS IRAB IN IRAB CHAIN
                                     0081   211 ;
            53            5A     D0  0081   212 RTNIRB:	MOVL	R10,R3				; GET IFAB ADDR
                                     0084   213 	ASSUME	IRB$L_IRAB_LNK EQ IFB$L_IRAB_LNK
            56         1C A3     D0  0084   214 10$:	MOVL	IRB$L_IRAB_LNK(R3),R6;		; GET NEXT IRAB
            59            56     D1  0088   215 	CMPL	R6,R9				; IS THIS THE ONE?
                          05     13  008B   216 	BEQL	20$				; BRANCH IF YES
            53            56     D0  008D   217 	MOVL	R6,R3				; MOVE PTR TO OTHER REG
                          F2     11  0090   218 	BRB	10$				; & KEEP SEARCHING
                                     0092   219 ;
                                     0092   220 ; GOT THE IRAB  -  CLOSE UP CHAIN AND DEALLOCATE THE IRAB
                                     0092   221 ;
         1C A3         1C A6     D0  0092   222 20$:	MOVL	IRB$L_IRAB_LNK(R6),IRB$L_IRAB_LNK(R3)
                          0044   30  0097   223 	BSBW	RM$DEALLEFN			; DEALLOCATE EVENT FLAG
                                     009A   224 ;
                                     009A   225 ;  RESTORE THE USER'S MODE AND ARG LIST POINTER FROM THE IRAB BEFORE
                                     009A   226 ;  DEALLOCATING IT.
                                     009A   227 ;
            57         0A A9     9A  009A   228 	MOVZBL	IRB$B_MODE(R9),R7
            54         14 A9     D0  009E   229 	MOVL	IRB$L_ASBADDR(R9),R4		; GET ASB/IRAB ADDR
            5C         18 A9     D0  00A2   230 	MOVL	IRB$L_ARGLST(R9),AP
                                     00A6   231 ;
                                     00A6   232 ; DEALLOCATE ASB/IRAB
                                     00A6   233 ;
         09 A4         09 A9     90  00A6   234 	MOVB	IRB$B_BLN(R9),9(R4)		; COPY LENGTH IN LONGWORDS
            53            5A     D0  00AB   235 	MOVL	R10,R3				; GET SPACE HEADER PAGE
                          FF4F'  30  00AE   236 	BSBW	RM$RETBLK			; DEALLOCATE IRAB
            51         1C AB     D0  00B1   237 	MOVL	IMP$L_IRABTBL(R11),R1		; GET IRAB TABLE ADDR
                          07     10  00B5   238 	BSBB	ZAPCOM				; ZERO ISI & ISI TABLE ENTRY
                          01     BA  00B7   239 EXIT:	POPR	#^M<R0>				; RESTORE STATUS
                                 05  00B9   240 	RSB					; & RETURN
RM0COMCLN       COMMON CLEAN UP ON CONNECT - DISCONNECT          21-AUG-1978 21:17:23   VAX-11 MACRO X0.3-11               Page   9
015             RM$DISCOMMON  -  COMMON CLEANUP ON CONNECT-DISC                                                                  (1)

                                     00BA   242 ;++
                                     00BA   243 ; SUBROUTINE TO CLEAR THE IFAB OR IRAB TABLE
                                     00BA   244 ; ENTRY FOR THE IFAB OR IRAB WHOSE ADDRESS IS IN R9.
                                     00BA   245 ; ALSO ZEROS THE IFI OR ISI AND R9
                                     00BA   246 ;
                                     00BA   247 ; INPUTS:
                                     00BA   248 ;	R11	IMPURE AREA ADDRESS
                                     00BA   249 ;	R9	IFAB/IRAB ADDRESS
                                     00BA   250 ;	R8	FAB/RAB ADDRESS
                                     00BA   251 ;
                                     00BA   252 ; OUTPUTS:
                                     00BA   253 ;	IFAB/IRAB TABLE POINTER ZEROED.
                                     00BA   254 ;	IFAB/IRAB ADDRESS IN R9 ZEROED.
                                     00BA   255 ;	FAB$W_IFI/RAB$W_ISI ZEROED
                                     00BA   256 ;	R0-R2 DESTROYED
                                     00BA   257 ;--
                                     00BA   258 RM$ZAPIFI::
            51         18 AB     DE  00BA   259 	MOVAL	IMP$L_IFABTBL(R11),R1		; GET IFAB TABLE ADDR
                                     00BE   260 ZAPCOM:
            52         04 A1     DE  00BE   261 	MOVAL	4(R1),R2			; LEAVE R1 POINTING TO LINK
                                     00C2   262 						; POINT R2 TO 1ST ENTRY
            50         20 AB     3C  00C2   263 	MOVZWL	IMP$W_ENTPERSEG(R11),R0		; # ENTRIES PER TABLE SEGMENT.
            59            82     D1  00C6   264 10$:	CMPL	(R2)+,R9			; IS THIS DESIRED ENTRY?
                          08     13  00C9   265 	BEQL	20$				; BRANCH IF YES
            F8            50     F5  00CB   266 	SOBGTR	R0,10$				; KEEP TRYING
            51            61     D0  00CE   267 	MOVL	(R1),R1				; NEXT SEGMENT
                          EB     11  00D1   268 	BRB	ZAPCOM
                                     00D3   269 ;
                                     00D3   270 ; THIS IS THE SOUGHT-FOR TABLE ENTRY  -  ZERO IT
                                     00D3   271 ;
                          72     D4  00D3   272 20$:	CLRL	-(R2)
                                     00D5   273 	ASSUME	RAB$W_ISI EQ FAB$W_IFI
                       02 A8     B4  00D5   274 	CLRW	RAB$W_ISI(R8)			; ZERO ISI (OR IFI)
                       22 AB     B7  00D8   275 	DECW	IMP$W_NUM_IFABS(R11)		; DECREMENT COUNT OF ALLOCATED IFABS
                          59     D4  00DB   276 	CLRL	R9				; ZERO IFAB OR IRAB ADDRESS
                                 05  00DD   277 	RSB
RM0COMCLN       COMMON CLEAN UP ON CONNECT - DISCONNECT          21-AUG-1978 21:17:23   VAX-11 MACRO X0.3-11               Page  10
015             RM$DISCOMMON  -  COMMON CLEANUP ON CONNECT-DISC                                                                  (1)

                                     00DE   279 ;++
                                     00DE   280 ;
                                     00DE   281 ;  SUBROUTINE TO DEALLOCATE ANY SYNCHRONOUS EFN
                                     00DE   282 ;
                                     00DE   283 ;  INPUTS:
                                     00DE   284 ;	R11	IMPURE AREA ADDR
                                     00DE   285 ;	R9	IFAB OR IRAB ADDR
                                     00DE   286 ;	IRB$B_EFN
                                     00DE   287 ;--
                                     00DE   288 	ASSUME	IRB$B_EFN EQ IFB$B_EFN
                                     00DE   289 RM$DEALLEFN::
            1B         0B A9     91  00DE   290 	CMPB	IRB$B_EFN(R9),#IMP$C_SYNCEFN
                          07     13  00E2   291 	BEQL	10$
            1C         0B A9     91  00E4   292 	CMPB	IRB$B_EFN(R9),#IMP$C_SYNCEFN+1
                          09     13  00E8   293 	BEQL	20$
                                 05  00EA   294 	RSB
                                     00EB   295 ;
   00000000'9F            04     8A  00EB   296 10$:	BICB2	#1@PIO$V_SYNC1,@#PIO$GW_STATUS	;DEALLOCATE EFN
                                 05  00F2   297 	RSB
   00000000'9F            08     8A  00F3   298 20$:	BICB2	#1@PIO$V_SYNC2,@#PIO$GW_STATUS	; "
                                 05  00FA   299 	RSB
                                     00FB   300
                                     00FB   301 	.END
RM0COMCLN       COMMON CLEAN UP ON CONNECT - DISCONNECT          21-AUG-1978 21:17:23   VAX-11 MACRO X0.3-11               Page  11
SYMBOL TABLE                                                                                                                     (1)

$$.PSECT_EP    = 00000001            DEV$V_REC      = 00000000            FAB$M_DFW      = 00000020
$$.TMP         = 00000014            DEV$V_RND      = 0000001C            FAB$M_DLT      = 00008000
$$RMSTEST      = 0000001A            DEV$V_RTM      = 0000001D            FAB$M_DMO      = 00001000
$$RMS_PBUGCHK  = 00000010            DEV$V_SDI      = 00000004            FAB$M_ESC      = 08000000
$$RMS_TBUGCHK  = 00000008            DEV$V_SHR      = 00000010            FAB$M_EXE      = 00000080
$$RMS_UMODE    = 00000004            DEV$V_SPL      = 00000006            FAB$M_FTN      = 00000001
BIT...         = 0001C134            DEV$V_SQD      = 00000005            FAB$M_GET      = 00000002
CSH$M_LOCK     = 00000001            DEV$V_SWL      = 00000019            FAB$M_INP      = 00080000
CSH$M_NOBUFFER = 00000010            DEV$V_TRM      = 00000002            FAB$M_JNL      = 00400000
CSH$M_NOREAD   = 00000004            DEV$V_WCK      = 0000001F            FAB$M_KFO      = 40000000
CSH$M_NOWAIT   = 00000002            EXIT             000000B7 R     02   FAB$M_MSE      = 00000010
CSH$M_READAHEAD= 00000008            FAB$B_BID        00000000            FAB$M_MXV      = 00000002
CSH$V_LOCK     = 00000000            FAB$B_BKS        0000003E            FAB$M_NAM      = 01000000
CSH$V_NOBUFFER = 00000004            FAB$B_BLN        00000001            FAB$M_NEF      = 00000400
CSH$V_NOREAD   = 00000002            FAB$B_DNS        00000035            FAB$M_NFS      = 00010000
CSH$V_NOWAIT   = 00000001            FAB$B_FAC        00000016            FAB$M_NIL      = 00000020
CSH$V_READAHEAD= 00000003            FAB$B_FNS        00000034            FAB$M_OFP      = 20000000
DEV$M_ALL      = 00800000            FAB$B_FSZ        0000003F            FAB$M_POS      = 00000100
DEV$M_AVL      = 00040000            FAB$B_ORG        0000001D            FAB$M_PPF      = 00040000
DEV$M_CCL      = 00000002            FAB$B_RAT        0000001E            FAB$M_PPF_IND  = 00004000
DEV$M_DIR      = 00000008            FAB$B_RFM        0000001F            FAB$M_PPF_RAT  = 00003FC0
DEV$M_DMT      = 00200000            FAB$B_RTV        0000001C            FAB$M_PRN      = 00000004
DEV$M_ELG      = 00400000            FAB$B_SHR        00000017            FAB$M_PUT      = 00000001
DEV$M_FOD      = 00004000            FAB$C_BID      = 00000003            FAB$M_RCK      = 00800000
DEV$M_FOR      = 01000000            FAB$C_BLN        00000050            FAB$M_RWC      = 00000800
DEV$M_GEN      = 00020000            FAB$C_FIX      = 00000001            FAB$M_RWO      = 00000080
DEV$M_IDV      = 04000000            FAB$C_HSH      = 00000030            FAB$M_SCF      = 00004000
DEV$M_MBX      = 00100000            FAB$C_IDX      = 00000020            FAB$M_SHRDEL   = 00000004
DEV$M_MNT      = 00080000            FAB$C_MAXRFM   = 00000003            FAB$M_SHRGET   = 00000002
DEV$M_NET      = 00002000            FAB$C_REL      = 00000010            FAB$M_SHRPUT   = 00000001
DEV$M_ODV      = 08000000            FAB$C_RFM_DFLT = 00000002            FAB$M_SHRUPD   = 00000008
DEV$M_RCK      = 40000000            FAB$C_SEQ      = 00000000            FAB$M_SPL      = 00002000
DEV$M_REC      = 00000001            FAB$C_UDF      = 00000000            FAB$M_SQO      = 00000040
DEV$M_RND      = 10000000            FAB$C_VAR      = 00000002            FAB$M_SUP      = 00000004
DEV$M_RTM      = 20000000            FAB$C_VFC      = 00000003            FAB$M_TEF      = 10000000
DEV$M_SDI      = 00000010            FAB$K_BLN        00000050            FAB$M_TMD      = 00000010
DEV$M_SHR      = 00010000            FAB$L_ALQ        00000010            FAB$M_TMP      = 00000008
DEV$M_SPL      = 00000040            FAB$L_CTX        00000018            FAB$M_TRN      = 00000010
DEV$M_SQD      = 00000020            FAB$L_DEV        00000040            FAB$M_UFM      = 04000000
DEV$M_SWL      = 02000000            FAB$L_DNA        00000030            FAB$M_UFO      = 00020000
DEV$M_TRM      = 00000004            FAB$L_FNA        0000002C            FAB$M_UPD      = 00000008
DEV$M_WCK      = 80000000            FAB$L_FOP        00000004            FAB$M_UPI      = 00000040
DEV$V_ALL      = 00000017            FAB$L_JNL        00000020            FAB$M_WCK      = 00000200
DEV$V_AVL      = 00000012            FAB$L_MRN        00000038            FAB$S_ORG      = 00000004
DEV$V_CCL      = 00000001            FAB$L_NAM        00000028            FAB$S_PPF_RAT  = 00000008
DEV$V_DIR      = 00000003            FAB$L_SDC        00000044            FAB$V_BIO      = 00000005
DEV$V_DMT      = 00000015            FAB$L_STS        00000008            FAB$V_BLK      = 00000003
DEV$V_ELG      = 00000016            FAB$L_STV        0000000C            FAB$V_BRO      = 00000006
DEV$V_FOD      = 0000000E            FAB$L_XAB        00000024            FAB$V_CBT      = 00000015
DEV$V_FOR      = 00000018            FAB$M_BIO      = 00000020            FAB$V_CIF      = 00000019
DEV$V_GEN      = 00000011            FAB$M_BLK      = 00000008            FAB$V_CR       = 00000001
DEV$V_IDV      = 0000001A            FAB$M_BRO      = 00000040            FAB$V_CTG      = 00000014
DEV$V_MBX      = 00000014            FAB$M_CBT      = 00200000            FAB$V_DEL      = 00000002
DEV$V_MNT      = 00000013            FAB$M_CIF      = 02000000            FAB$V_DFW      = 00000005
DEV$V_NET      = 0000000D            FAB$M_CR       = 00000002            FAB$V_DLT      = 0000000F
DEV$V_ODV      = 0000001B            FAB$M_CTG      = 00100000            FAB$V_DMO      = 0000000C
DEV$V_RCK      = 0000001E            FAB$M_DEL      = 00000004            FAB$V_ESC      = 0000001B
RM0COMCLN       COMMON CLEAN UP ON CONNECT - DISCONNECT          21-AUG-1978 21:17:23   VAX-11 MACRO X0.3-11               Page  12
SYMBOL TABLE                                                                                                                     (1)

FAB$V_EXE      = 00000007            IFB$B_ORGCASE    00000023            IFB$V_ASYNCWAIT= 00000024
FAB$V_FTN      = 00000000            IFB$B_RAT        0000003D            IFB$V_BIO      = 00000005
FAB$V_GET      = 00000001            IFB$B_RFMORG     0000003C            IFB$V_BRO      = 00000006
FAB$V_INP      = 00000013            IFB$B_UBUFSZ     0000005B            IFB$V_BUSY     = 00000020
FAB$V_JNL      = 00000016            IFB$C_BID      = 0000000B            IFB$V_CREATE   = 00000032
FAB$V_KFO      = 0000001E            IFB$C_BLN        00000060            IFB$V_DAP      = 0000003E
FAB$V_MSE      = 00000004            IFB$C_BLN_IDX    00000060            IFB$V_DAP_OPEN = 0000003D
FAB$V_MXV      = 00000001            IFB$C_BLN_REL    00000060            IFB$V_DEL      = 00000002
FAB$V_NAM      = 00000018            IFB$C_BLN_SEQ    0000005C            IFB$V_DFW      = 0000002C
FAB$V_NEF      = 0000000A            IFB$C_DIR      = 00000003            IFB$V_DLT      = 0000002B
FAB$V_NFS      = 00000010            IFB$C_FHAEND     00000050            IFB$V_DMO      = 00000028
FAB$V_NIL      = 00000005            IFB$C_IDX      = 00000002            IFB$V_EOF      = 00000021
FAB$V_OFP      = 0000001D            IFB$C_MAXORG   = 00000002            IFB$V_EXE      = 00000007
FAB$V_ORG      = 00000004            IFB$C_REL      = 00000001            IFB$V_GET      = 00000001
FAB$V_POS      = 00000008            IFB$C_SEQ      = 00000000            IFB$V_MSE      = 00000031
FAB$V_PPF      = 00000012            IFB$K_BLN        00000060            IFB$V_NORECLK  = 00000033
FAB$V_PPF_IND  = 0000000E            IFB$K_BLN_IDX    00000060            IFB$V_NSP      = 0000003F
FAB$V_PPF_RAT  = 00000006            IFB$K_BLN_REL    00000060            IFB$V_NWA      = 0000003C
FAB$V_PRN      = 00000002            IFB$K_BLN_SEQ    0000005C            IFB$V_ORG      = 00000004
FAB$V_PUT      = 00000000            IFB$K_FHAEND     00000050            IFB$V_PPF_IMAGE= 00000022
FAB$V_RCK      = 00000017            IFB$L_ARGLST     00000018            IFB$V_PPF_INPUT= 0000002E
FAB$V_RWC      = 0000000B            IFB$L_ASBADDR    00000014            IFB$V_PUT      = 00000000
FAB$V_RWO      = 00000007            IFB$L_AS_DEV     00000054            IFB$V_RFM      = 00000000
FAB$V_SCF      = 0000000E            IFB$L_BDB_BLNK   00000034            IFB$V_RWC      = 00000027
FAB$V_SHRDEL   = 00000002            IFB$L_BDB_FLNK   00000030            IFB$V_RW_ATTR  = 00000034
FAB$V_SHRGET   = 00000001            IFB$L_BKPBITS    00000004            IFB$V_SCF      = 0000002A
FAB$V_SHRPUT   = 00000000            IFB$L_BWB        0000000C            IFB$V_SPL      = 00000029
FAB$V_SHRUPD   = 00000003            IFB$L_DVBN       00000058            IFB$V_SQO      = 0000002D
FAB$V_SPL      = 0000000D            IFB$L_EBK        00000044            IFB$V_TEF      = 00000036
FAB$V_SQO      = 00000006            IFB$L_FRB_PTR    00000028            IFB$V_TMP      = 00000035
FAB$V_SUP      = 00000002            IFB$L_FWA_BDB    00000050            IFB$V_TRN      = 00000004
FAB$V_TEF      = 0000001C            IFB$L_HBK        00000040            IFB$V_UPD      = 00000003
FAB$V_TMD      = 00000004            IFB$L_IDX_PTR    00000054            IFB$V_WRTACC   = 00000030
FAB$V_TMP      = 00000003            IFB$L_IOS        0000000C            IFB$W_ASDEVBSIZ  0000005A
FAB$V_TRN      = 00000004            IFB$L_IOS4       00000010            IFB$W_BKS_BYTES  0000005C
FAB$V_UFM      = 0000001A            IFB$L_IRAB_LNK   0000001C            IFB$W_BKS_RECS   0000005E
FAB$V_UFO      = 00000011            IFB$L_LAST_FAB   00000024            IFB$W_CHNL       00000020
FAB$V_UPD      = 00000003            IFB$L_LOCK_BDB   00000050            IFB$W_DEQ        0000004E
FAB$V_UPI      = 00000006            IFB$L_MRN        00000054            IFB$W_DEVBUFSIZ  00000038
FAB$V_WCK      = 00000009            IFB$L_NRP_LNK    00000050            IFB$W_EBK0       00000044
FAB$W_BLS        0000003C            IFB$L_NWA_PTR    00000028            IFB$W_EBK2       00000046
FAB$W_DEQ        00000014            IFB$L_PRIM_DEV   00000000            IFB$W_FFB        00000048
FAB$W_IFI        00000002            IFB$L_RLB_LNK    0000002C            IFB$W_IOS2       0000000E
FAB$W_MRS        00000036            IFB$L_RNS_LEN    00000050            IFB$W_LRL        0000003E
GBL...         = 00000000            IFB$M_BIO      = 00000020            IFB$W_MRS        0000004C
IFB$B_AMAX       00000059            IFB$M_BRO      = 00000040            IFB$W_RTDEQ      0000003A
IFB$B_AVBN       00000058            IFB$M_DEL      = 00000004            IMP$B_PROT       00000002
IFB$B_BID        00000008            IFB$M_EXE      = 00000080            IMP$C_ASYEFN   = 0000001E
IFB$B_BKS        0000004A            IFB$M_GET      = 00000002            IMP$C_ASYQIOEFN= 0000001F
IFB$B_BLN        00000009            IFB$M_PUT      = 00000001            IMP$C_ENTPERSEG= 0000000F
IFB$B_EFN        0000000B            IFB$M_TRN      = 00000010            IMP$C_IOREFN   = 0000001E
IFB$B_EXTRABUF   0000005D            IFB$M_UPD      = 00000008            IMP$C_MBXEFN   = 0000001A
IFB$B_FAC        00000022            IFB$S_ORG      = 00000004            IMP$C_NPIOFILES= 0000000C
IFB$B_FSZ        0000004B            IFB$S_RFM      = 00000004            IMP$C_SYNCEFN  = 0000001B
IFB$B_KBUFSZ     0000005C            IFB$V_ACCESSED = 00000025            IMP$L_FREEPGLH   0000000C
IFB$B_MODE       0000000A            IFB$V_ANSI_D   = 00000026            IMP$L_IFABTBL    00000018
IFB$B_NUM_KEYS   0000005A            IFB$V_ASYNC    = 00000023            IMP$L_IFBTBLINK  00000024
RM0COMCLN       COMMON CLEAN UP ON CONNECT - DISCONNECT          21-AUG-1978 21:17:23   VAX-11 MACRO X0.3-11               Page  13
SYMBOL TABLE                                                                                                                     (1)

IMP$L_IOSEGADDR  00000004            IRB$L_NXTBDB     00000028            PSL$C_SUPER    = 00000002
IMP$L_IOSEGLEN   00000008            IRB$L_OWNER_ID   0000003C            PSL$C_USER     = 00000003
IMP$L_IRABTBL    0000001C            IRB$L_RFA_VBN    00000054            PSL$M_CM       = 80000000
IMP$L_IRBTBLINK  00000064            IRB$L_RLB_ADDR   00000044            PSL$M_CURMOD   = 03000000
IMP$L_SAVED_SP   00000014            IRB$L_RP         00000034            PSL$M_DV       = 00000080
IMP$V_AST      = 00000001            IRB$L_RP_OFF     00000038            PSL$M_FPD      = 08000000
IMP$V_IIOS     = 00000000            IRB$L_RP_VBN     00000034            PSL$M_FU       = 00000040
IMP$V_IORUNDOWN= 00000004            IRB$L_RRV_VBN    0000004C            PSL$M_IPL      = 001F0000
IMP$V_NOP0BUFS = 00000005            IRB$L_TEMP0      00000044            PSL$M_IS       = 04000000
IMP$V_TEMP1    = 00000002            IRB$L_TEMP1      00000048            PSL$M_IV       = 00000020
IMP$V_TEMP2    = 00000003            IRB$V_ASYNC    = 00000023            PSL$M_PRVMOD   = 00C00000
IMP$W_ENTPERSEG  00000020            IRB$V_ASYNCWAIT= 00000024            PSL$M_SAFBITS  = 000037FF
IMP$W_NUM_IFABS  00000022            IRB$V_BIO_LAST = 00000027            PSL$M_TBIT     = 00000010
IMP$W_RMSSTATUS  00000000            IRB$V_BRO_SW   = 00000028            PSL$M_TP       = 40000000
IND_FILE         00000072 R     02   IRB$V_BUSY     = 00000020            PSL$S_CURMOD   = 00000002
IRB$B_BCNT       00000040            IRB$V_DAP_CONN = 0000003E            PSL$S_IPL      = 00000005
IRB$B_BID        00000008            IRB$V_DAP_FMODE= 0000003F            PSL$S_PRVMOD   = 00000002
IRB$B_BLN        00000009            IRB$V_DUP      = 0000002C            PSL$V_CM       = 0000001F
IRB$B_EFN        0000000B            IRB$V_EOF      = 00000021            PSL$V_CURMOD   = 00000018
IRB$B_KEYSZ      00000051            IRB$V_FIND     = 00000029            PSL$V_DV       = 00000007
IRB$B_MBC        00000041            IRB$V_FIND_LAST= 00000025            PSL$V_FPD      = 0000001B
IRB$B_MODE       0000000A            IRB$V_IDX_ERR  = 00000031            PSL$V_FU       = 00000006
IRB$B_NRP_ID     00000030            IRB$V_LOCKABOVE= 00000002            PSL$V_IPL      = 00000010
IRB$B_NRP_KREF   00000031            IRB$V_NEW_IDX  = 00000003            PSL$V_IS       = 0000001A
IRB$B_NVBNS      00000048            IRB$V_POSINSERT= 00000000            PSL$V_IV       = 00000005
IRB$B_POST_CCTL  00000045            IRB$V_PPF_EOF  = 0000002E            PSL$V_PRVMOD   = 00000016
IRB$B_PPF_ISI    0000003E            IRB$V_PPF_FNDSV= 00000030            PSL$V_TBIT     = 00000004
IRB$B_PRE_CCTL   00000044            IRB$V_PPF_IMAGE= 00000022            PSL$V_TP       = 0000001E
IRB$B_RFA_ID     00000058            IRB$V_PPF_SKIP = 0000002F            RAB$B_BID        00000000
IRB$B_RP_ID      00000038            IRB$V_PUTS_LAST= 00000026            RAB$B_BLN        00000001
IRB$B_RP_KREF    00000039            IRB$V_RAHWBH   = 0000002A            RAB$B_KRF        00000035
IRB$B_RRV_ID     00000050            IRB$V_SKIP_NEXT= 0000002B            RAB$B_KSZ        00000034
IRB$B_SRCHFLAGS  00000043            IRB$V_SRCHGT   = 00000001            RAB$B_MBC        00000037
IRB$B_STOPLEVEL  00000042            IRB$V_UNLOCK_RP= 0000002D            RAB$B_MBF        00000036
IRB$C_BID      = 0000000A            IRB$V_WRITE    = 00000029            RAB$B_PSZ        00000034
IRB$C_BLN_IDX    0000006C            IRB$W_CSIZ       00000042            RAB$B_RAC        0000001E
IRB$C_BLN_REL    00000048            IRB$W_DUP_POS    00000032            RAB$B_ROP1       00000005
IRB$C_BLN_SEQ    0000004C            IRB$W_IOS2       0000000E            RAB$B_ROP2       00000006
IRB$K_BLN_IDX    0000006C            IRB$W_NRP_OFF    00000030            RAB$B_ROP3       00000007
IRB$K_BLN_REL    00000048            IRB$W_OWN_ID     0000003C            RAB$B_TMO        0000001F
IRB$K_BLN_SEQ    0000004C            IRB$W_OWN_ISI    0000003E            RAB$C_BID      = 00000001
IRB$L_ARGLST     00000018            IRB$W_ROVHDSZ    00000044            RAB$C_BLN        00000044
IRB$L_ASBADDR    00000014            IRB$W_RP_OFF     00000038            RAB$C_KEY      = 00000001
IRB$L_BKPBITS    00000004            IRB$W_RTOTLSZ    00000046            RAB$C_RFA      = 00000002
IRB$L_BWB        0000000C            IRB$W_SAVE_POS   00000052            RAB$C_SEQ      = 00000000
IRB$L_CURBDB     00000020            NF$NETWORK0      00000000 R     04   RAB$K_BLN        00000044
IRB$L_CURVBN     00000030            NT$DISCONNECT    ********   X   04   RAB$L_BKT        00000038
IRB$L_IFAB_LNK   00000000            NTDISC           0000006F R     02   RAB$L_CTX        00000018
IRB$L_IOS        0000000C            PIO$GL_FMLH      ********   X   02   RAB$L_DCT        00000038
IRB$L_IOS4       00000010            PIO$GT_ENDSTR    ********   X   02   RAB$L_FAB        0000003C
IRB$L_IRAB_LNK   0000001C            PIO$GW_STATUS    ********   X   02   RAB$L_KBF        00000030
IRB$L_KEYBUF     00000048            PIO$V_EOD      = 00000001            RAB$L_PBF        00000030
IRB$L_LAST_RAB   00000024            PIO$V_INHAST   = 00000000            RAB$L_RBF        00000028
IRB$L_LOCK_BDB   0000005C            PIO$V_SYNC1    = 00000002            RAB$L_RFA0       00000010
IRB$L_NRP        0000002C            PIO$V_SYNC2    = 00000003            RAB$L_RHB        0000002C
IRB$L_NRP_OFF    00000030            PSL$C_EXEC     = 00000001            RAB$L_ROP        00000004
IRB$L_NRP_VBN    0000002C            PSL$C_KERNEL   = 00000000            RAB$L_STS        00000008
RM0COMCLN       COMMON CLEAN UP ON CONNECT - DISCONNECT          21-AUG-1978 21:17:23   VAX-11 MACRO X0.3-11               Page  14
SYMBOL TABLE                                                                                                                     (1)

RAB$L_STV        0000000C            RAB$V_UIF      = 00000004            RMS$_CHG       = 0001849C
RAB$L_UBF        00000024            RAB$V_ULK      = 00000012            RMS$_CHK       = 000184A4
RAB$M_ASY      = 00000001            RAB$V_WAT      = 00000011            RMS$_CHN       = 0001C0EC
RAB$M_BIO      = 00000800            RAB$V_WBH      = 0000000A            RMS$_COD       = 000184AC
RAB$M_CCO      = 80000000            RAB$W_ISI        00000002            RMS$_CONTROLC  = 00010651
RAB$M_CVT      = 04000000            RAB$W_RFA        00000010            RMS$_CONTROLO  = 00010609
RAB$M_EOF      = 00000100            RAB$W_RFA4       00000014            RMS$_CONTROLY  = 00010611
RAB$M_FDL      = 00000040            RAB$W_RSZ        00000022            RMS$_CRE       = 0001C00A
RAB$M_HSH      = 00000080            RAB$W_USZ        00000020            RMS$_CREATED   = 00010619
RAB$M_KGE      = 00200000            RLS$M_KEEP_ACC = 00000008            RMS$_CUR       = 000184B4
RAB$M_KGT      = 00400000            RLS$M_KEEP_LOCK= 00000004            RMS$_DAC       = 0001C012
RAB$M_LIM      = 00004000            RLS$M_RETURN   = 00000001            RMS$_DAN       = 000184BC
RAB$M_LOA      = 00002000            RLS$M_WRT_THRU = 00000002            RMS$_DEL       = 00018262
RAB$M_LOC      = 00010000            RLS$V_KEEP_ACC = 00000003            RMS$_DEV       = 000184C4
RAB$M_MAS      = 00000020            RLS$V_KEEP_LOCK= 00000002            RMS$_DIR       = 000184CC
RAB$M_NLK      = 00100000            RLS$V_RETURN   = 00000000            RMS$_DME       = 000184D4
RAB$M_NXR      = 00800000            RLS$V_WRT_THRU = 00000001            RMS$_DNA       = 000184DC
RAB$M_PMT      = 40000000            RM$CACHE         ********   X   02   RMS$_DNF       = 0001C04A
RAB$M_PPF_IND  = 00004000            RM$CCLN1         0000007F RG    02   RMS$_DNR       = 00018272
RAB$M_PPF_RAT  = 00003FC0            RM$COMCLNUP      0000000B RG    02   RMS$_DPE       = 0001C03A
RAB$M_PTA      = 20000000            RM$DEALLEFN      000000DE RG    02   RMS$_DTP       = 000184E4
RAB$M_RAH      = 00000200            RM$DISCOMMON     00000003 RG    02   RMS$_DUP       = 000184EC
RAB$M_RLK      = 00080000            RM$DISCOMMONSUC  00000000 RG    02   RMS$_DVI       = 000184F4
RAB$M_RNE      = 01000000            RM$RELEASE       ********   X   02   RMS$_ENT       = 0001C01A
RAB$M_RNF      = 08000000            RM$RETBLK        ********   X   02   RMS$_ENV       = 00018724
RAB$M_TMO      = 02000000            RM$UNLOCKALL     ********   X   02   RMS$_EOF       = 0001827A
RAB$M_TPT      = 00000002            RM$ZAPIFI        000000BA RG    02   RMS$_ESA       = 000184FC
RAB$M_UIF      = 00000010            RMS$V_STVSTATUS= 0000000E            RMS$_ESL       = 00018714
RAB$M_ULK      = 00040000            RMS$_ABO       = 000183EC            RMS$_ESS       = 00018504
RAB$M_WAT      = 00020000            RMS$_ACC       = 0001C002            RMS$_EXP       = 000182C2
RAB$M_WBH      = 00000400            RMS$_ACT       = 0001825A            RMS$_EXT       = 0001C022
RAB$S_PPF_RAT  = 00000008            RMS$_AID       = 000183F4            RMS$_FAB       = 0001850C
RAB$V_ASY      = 00000000            RMS$_ALN       = 000183FC            RMS$_FAC       = 00018514
RAB$V_BIO      = 0000000B            RMS$_ALQ       = 00018404            RMS$_FEX       = 00018282
RAB$V_CCO      = 0000001F            RMS$_ANI       = 0001840C            RMS$_FLG       = 0001851C
RAB$V_CVT      = 0000001A            RMS$_AOP       = 00018414            RMS$_FLK       = 0001828A
RAB$V_EOF      = 00000008            RMS$_ATR       = 0001C0CC            RMS$_FNA       = 00018524
RAB$V_FDL      = 00000006            RMS$_ATW       = 0001C0D4            RMS$_FND       = 0001C02A
RAB$V_HSH      = 00000007            RMS$_BKS       = 0001841C            RMS$_FNF       = 00018292
RAB$V_KGE      = 00000015            RMS$_BKZ       = 00018424            RMS$_FNM       = 0001852C
RAB$V_KGT      = 00000016            RMS$_BLN       = 0001842C            RMS$_FOP       = 0001853C
RAB$V_LIM      = 0000000E            RMS$_BOF       = 00018198            RMS$_FSZ       = 00018534
RAB$V_LOA      = 0000000D            RMS$_BUG       = 00018434            RMS$_FUL       = 00018544
RAB$V_LOC      = 00000010            RMS$_BUG_DAP   = 00018444            RMS$_IAL       = 0001854C
RAB$V_MAS      = 00000005            RMS$_BUG_DDI   = 0001843C            RMS$_IAN       = 00018554
RAB$V_NLK      = 00000014            RMS$_BUG_XX2   = 0001844C            RMS$_IBF       = 00018754
RAB$V_NXR      = 00000017            RMS$_BUG_XX3   = 00018454            RMS$_IDX       = 0001855C
RAB$V_PMT      = 0000001E            RMS$_BUG_XX4   = 0001845C            RMS$_IFA       = 0001C124
RAB$V_PPF_IND  = 0000000E            RMS$_BUG_XX5   = 00018464            RMS$_IFI       = 00018564
RAB$V_PPF_RAT  = 00000006            RMS$_BUG_XX6   = 0001846C            RMS$_IMX       = 0001856C
RAB$V_PTA      = 0000001D            RMS$_BUG_XX7   = 00018474            RMS$_IOP       = 00018574
RAB$V_RAH      = 00000009            RMS$_BUG_XX8   = 0001847C            RMS$_IRC       = 0001857C
RAB$V_RLK      = 00000013            RMS$_BUG_XX9   = 00018484            RMS$_ISI       = 00018584
RAB$V_RNE      = 00000018            RMS$_CAA       = 0001848C            RMS$_KBF       = 0001858C
RAB$V_RNF      = 0000001B            RMS$_CCF       = 0001C0DC            RMS$_KEY       = 00018594
RAB$V_TMO      = 00000019            RMS$_CCR       = 00018494            RMS$_KFF       = 00018031
RAB$V_TPT      = 00000001            RMS$_CDA       = 0001C0E4            RMS$_KRF       = 0001859C
RM0COMCLN       COMMON CLEAN UP ON CONNECT - DISCONNECT          21-AUG-1978 21:17:23   VAX-11 MACRO X0.3-11               Page  15
SYMBOL TABLE                                                                                                                     (1)

RMS$_KSZ       = 000185A4            RMS$_RTB       = 000181A8
RMS$_LAN       = 000185AC            RMS$_SEQ       = 000186AC
RMS$_LBL       = 000185B4            RMS$_SHR       = 000186B4
RMS$_LNE       = 000185BC            RMS$_SIZ       = 000186BC
RMS$_LOC       = 000185C4            RMS$_SPL       = 0001C042
RMS$_MBC       = 00018734            RMS$_SQO       = 000186C4
RMS$_MKD       = 0001C032            RMS$_STALL     = 00018001
RMS$_MRN       = 000185CC            RMS$_STK       = 000186CC
RMS$_MRS       = 000185D4            RMS$_SUC       = 00010001
RMS$_NAM       = 000185DC            RMS$_SUP       = 000182D2
RMS$_NEF       = 000185E4            RMS$_SUPERSEDE = 00010631
RMS$_NET       = 0001874C            RMS$_SYN       = 000186D4
RMS$_NID       = 000185EC            RMS$_SYS       = 0001C10C
RMS$_NMF       = 000182CA            RMS$_TEMP1     = 0001826A
RMS$_NOD       = 000185F4            RMS$_TEMP2     = 0001868C
RMS$_NORMAL    = 00010001            RMS$_TMO       = 000181B0
RMS$_NPK       = 000185FC            RMS$_TRE       = 000186DC
RMS$_OK_ALK    = 00018039            RMS$_TYP       = 000186E4
RMS$_OK_DEL    = 00018041            RMS$_UBF       = 000186EC
RMS$_OK_DUP    = 00018011            RMS$_USZ       = 000186F4
RMS$_OK_IDX    = 00018019            RMS$_VER       = 000186FC
RMS$_OK_LIM    = 00018051            RMS$_VOL       = 00018704
RMS$_OK_RLK    = 00018021            RMS$_WBE       = 0001C12C
RMS$_OK_RNF    = 00018049            RMS$_WER       = 0001C114
RMS$_OK_RRV    = 00018029            RMS$_WLD       = 00018744
RMS$_ORD       = 00018604            RMS$_WLK       = 000182BA
RMS$_ORG       = 0001860C            RMS$_WPL       = 0001C11C
RMS$_PBF       = 00018614            RMS$_WSF       = 0001871C
RMS$_PENDING   = 00018009            RMS$_XAB       = 0001870C
RMS$_PLG       = 0001861C            RTNBDB           0000000D R     02
RMS$_PLV       = 0001872C            RTNIRB           00000081 R     02
RMS$_POS       = 00018624            TPT$L_COMCLNU    ********   X   02
RMS$_PRM       = 0001862C            ZAPCOM           000000BE R     02
RMS$_PRV       = 0001829A
RMS$_QUO       = 00018634
RMS$_RAB       = 0001863C
RMS$_RAC       = 00018644
RMS$_RAT       = 0001864C
RMS$_RBF       = 00018654
RMS$_RER       = 0001C0F4
RMS$_REX       = 000182A2
RMS$_RFA       = 0001865C
RMS$_RFM       = 00018664
RMS$_RHB       = 0001866C
RMS$_RLF       = 00018674
RMS$_RLK       = 000182AA
RMS$_RMV       = 0001C0FC
RMS$_RNF       = 000182B2
RMS$_RNL       = 000181A0
RMS$_ROP       = 0001867C
RMS$_RPL       = 0001C104
RMS$_RRV       = 00018684
RMS$_RSA       = 000182DA
RMS$_RSL       = 0001873C
RMS$_RSS       = 00018694
RMS$_RST       = 0001869C
RMS$_RSZ       = 000186A4
RM0COMCLN       COMMON CLEAN UP ON CONNECT - DISCONNECT          21-AUG-1978 21:17:23   VAX-11 MACRO X0.3-11               Page  16
PROGRAM SECTION SYNOPSIS                                                                                                         (1)


PROGRAM SECTION SYNOPSIS

.  ABS  .        00000000      00     NOPIC   USR   CON   ABS   LCL NOSHR NOEXE NORD  NOWRT BYTE
. BLANK .        00000000      01     NOPIC   USR   CON   REL   LCL NOSHR   EXE   RD    WRT BYTE
F$RMSCLOSE0      000000FB      02     NOPIC   USR   CON   REL   GBL NOSHR   EXE   RD  NOWRT BYTE
$ABS$            0000006C      03     NOPIC   USR   CON   ABS   LCL NOSHR   EXE   RD    WRT BYTE
NF$NETWORK       00000010      04     NOPIC   USR   CON   REL   GBL NOSHR   EXE   RD  NOWRT BYTE


THERE WERE NO ERRORS OR WARNINGS.
5706. BYTES LEFT IN FREE MEMORY POOL.
2644. BYTES OF RECLAIMED MEMORY.
OBJ$:RM0COMCLN,LIS$:RM0COMCLN/-SP=EXECML$/ML,LIB$:R/ML,SRC$:RM0COMCLN
31 MLB DIR RDS - 1221 GETS TO DEFINE 30 MACROS. 96 INTER. FILE WRITES.
