RM0DUMMY        DUMMY ROUTINES                                   21-AUG-1978 21:12:38   VAX-11 MACRO X0.3-11               Page   1
029                                                                                                                              (1)

                                     0000     1 	$BEGIN RM0DUMMY,029,L$RMS0DUMMY,<DUMMY ROUTINES>,<NOWRT,QUAD>
                                     0000     2 ;
                                     0000     3 ;	MODIFIED BY:
                                     0000     4 ;
                                     0000     5 ;	L F LAVERDURE,      11-AUG-78  19:09	; ADD PATCH SPACE
                                     0000     6 ;	L F LAVERDURE,   24-MAY-78  15:12
                                     0000     7 ;	J A KRYCKA,	 03-AUG-78  11:17
                                     0000     8 ;
                                     0000     9 	$RMSDEF
                                     0000    10 	.LIST MEB
                                     0000    11 ;
                                     0000    12 ;  RMS BUGCHK ROUTINE
                                     0000    13 ;
                                     0000    14 ;  NOTE: THE ALIGNMENT OF THIS CODE IS CRITICAL IN THAT THE BUGCHECK
                                     0000    15 ;	 CODES ARE NOT ALLOWED TO CAUSE A PAGE FAULT.
                                     0000    16 ;
                                     0000    17 RM$BUG::
                          52     DD  0000    18 	PUSHL	R2				; FREE UP A REGISTER
            52         04 BE     98  0002    19 	CVTBL	@4(SP),R2			; GET RMS BUG CODE
                          04     14  0006    20 	BGTR	10$				; BRANCH IF NOT FATAL
                                     0008    21 	BUG_CHECK	RMSBUG,FATAL		; TAKE THE SYSTEM DOWN
                               FEFF  0008       		.WORD	^XFEFF
                               0004' 000A       		.IIF IDN <FATAL>,<FATAL> , .WORD	BUG$_RMSBUG!4
                                     000C    22 10$:	BUG_CHECK	RMSBUG,WARN		; LOG THE ERROR
                               FEFF  000C       		.WORD	^XFEFF
                               0000' 000E       		.IIF DIF <WARN>,<FATAL> , .WORD	BUG$_RMSBUG
                          04     BA  0010    23 	POPR	#^M<R2>				; RESTORE R2
                          6E     D6  0012    24 	INCL	(SP)				; SKIP PAST BUG CODE
                                 05  0014    25 	RSB					; BACK TO CALLER
                                     0015    26 ;
                                     0015    27 ;  MISCELLANEOUS DUMMY ROUTINES
                                     0015    28 ;
                                     0015    29
                                     0015    30 RM$DPYCM::
                                     0015    31 	RMSSUC
            50            01     D0  0015       		MOVL	#1,R0
                                 05  0018    32 	RSB
                                     0019    33 ;
                                     0019    34 ;  HANDLE ORGANIZATION NOT SUPPORTED ERRORS
                                     0019    35 ;
                                     0019    36 RM$CREATE3::
                          15     10  0019    37 	BSBB	ENVERR				; SET DEFAULT ERROR CODE
                          FFE2'  31  001B    38 	BRW	RM$CHKBIOCRE			; DO CREATE ONLY IF BIO OR BRO
                                     001E    39 RM$OPEN3::
                          10     10  001E    40 	BSBB	ENVERR				; SET DEFAULT ERROR CODE
                          FFDD'  31  0020    41 	BRW	RM$CHKBIOOPEN			; DO OPEN ONLY IF BIO OR BRO
                                     0023    42 ;
                                     0023    43 ;
                                     0023    44 ;
                                     0023    45 ;  ENCOUNTERED A BAD ORG_CASE VALUE FOR DISPATCH
                                     0023    46 ;
                                     0023    47 RM$FIND3::
                                     0023    48 RM$GET3::
                                     0023    49 RM$PUT3::
                                     0023    50 RM$UPDATE3::
                                     0023    51 RM$DELETE3::
                                     0023    52 RM$ERRORG::	RMSTBUG	FTL$_BADORGCASE
RM0DUMMY        DUMMY ROUTINES                                   21-AUG-1978 21:12:38   VAX-11 MACRO X0.3-11               Page   2
029                                                                                                                              (1)

                                     0023       	.SAVE
                                 00000000       	.PSECT	$ABS$,ABS
                                 00000023       	.RESTORE
                          FFDA   30  0023       		BSBW	RM$BUG
                                 FB  0026       		.BYTE	FTL$_BADORGCASE
                                     0027    53 RM$CLOSE3::
                                 05  0027    54 	RSB					; MERELY CONTINUE WITH CLOSE
                                     0028    55 RM$DISCONNECT3::
                          FFD5'  31  0028    56 	BRW	RM$DISCOMMONSUC			; GO DO DISCONNECT
                                     002B    57 RM$CONNECT3::
                          03     10  002B    58 	BSBB	ENVERR				; SET DEFAULT ERROR CODE
                          FFD0'  31  002D    59 	BRW	RM$CHKBIOCONN			; DO CONNECT ONLY IF BIO
                                     0030    60 ;
                                     0030    61 ;  SET DEFAULT ERROR CODE TO RMS$_ENV
                                     0030    62 ;
                                     0030    63 ENVERR:	RMSERR	ENV
            50       8724 8F     3C  0030       		MOVZWL	#<RMS$_ENV&^XFFFF>,R0
                                 05  0035    64 	RSB
RM0DUMMY        DUMMY ROUTINES                                   21-AUG-1978 21:12:38   VAX-11 MACRO X0.3-11               Page   3
029                                                                                                                              (1)

                                     0036    66 ;++
                                     0036    67 ;
                                     0036    68 ;  PATCH SPACE
                                     0036    69 ;
                                     0036    70 ;--
                                 00000000    71 	.PSECT	ZZZZ,PAGE,NOWRT
                                     0000    72 RMS$GQ_PATCH::
                           000007F8  0000    73 	.LONG	<4*512>-8		; 4 PAGES WORTH
                           00000008' 0004    74 	.LONG	.+4			; STARTING IMMEDIATELY
                           00000800  0008    75 	.BLKB	<4*512>-8
RM0DUMMY        DUMMY ROUTINES                                   21-AUG-1978 21:12:38   VAX-11 MACRO X0.3-11               Page   4
029                                                                                                                              (1)

                                     0800    77 ;
                                     0800    78 ;	DEFINE TESTPOINT OFFSETS FOR COUNTERS IN PIO SEGMENT
                                     0800    79 ;
                                     0800    80 	.MACRO	F	NAM
                                     0800    81 TPT$L_'NAM==..CNT
                                     0800    82 ..CNT=..CNT+4
                                     0800    83 	.ENDM	F
                           00000000  0800    84 ..CNT=0
                                     0800    85 ;
                                     0800    86 	F ACCESS	; # OF FILE ACCESS CALLS
                                     0800    87 	F ASTDSA	; # OF TIMES ASTS DISABLED
                                     0800    88 	F CLOSE		; # OF TIMES CLOSE FUNCTION CALLED
                                     0800    89 	F COMCLNU	; # OF DISCONNECT CLEANUPS
                                     0800    90 	F CONNECT	; # OF TIMES CONNECT FUNCTION CALLED
                                     0800    91 	F CREATE	; # OF TIMES CREATE FUNCTION CALLED
                                     0800    92 	F CREATE1	; # OF CALLS TO RM$CREATE1
                                     0800    93 	F CREATE2	; # OF CALLS TO RM$CREATE2
                                     0800    94 	F DEACCES	; # OF FILE DEACCESS CALLS
                                     0800    95 	F DELETE	; # OF TIMES DISCONNECT FUNCTION CALLED
                                     0800    96 	F DELETE2	; # OF CALLS TO RM$DELETE2
                                     0800    97 	F DISCON0	; # OF TIMES DISCONNECT FUNCTION CALLED
                                     0800    98 	F DISCON1	; # OF CALLS TO RM$DISCONNECT1
                                     0800    99 	F DISCON2	; # OF CALLS TO RM$DISCONNECT2
                                     0800   100 	F ERASE		; # OF TIMES ERASE FUNCTION CALLED
                                     0800   101 	F FCPEXT	; # OF FCP EXTENDS
                                     0800   102 	F FCPFNC	; # OF FCP FUNCTIONS REQUESTED
                                     0800   103 	F FCPFNCA	; # OF FCP FUNCTIONS (ALTERNATE ENTRY PT)
                                     0800   104 	F FIND		; # OF TIMES SYS$FIND FUNCTION CALLED
                                     0800   105 	F FIND1		; # OF SEQUENTIAL ORG FINDS
                                     0800   106 	F FIND2		; # OF RELATIVE ORG FINDS
                                     0800   107 	F GET		; # OF TIMES GET FUNCTION CALLED
                                     0800   108 	F GET1		; # OF SEQUENTIAL ORG GETS
                                     0800   109 	F GET2		; # OF RELATIVE ORG GETS
                                     0800   110 	F GETBLKD	; # OF SEQUENTIAL ORG GETS TO BLOCK DEVICES
                                     0800   111 	F INDPPF	; # OF INDIRECT OPENS OF PPF'S
                                     0800   112 	F MODIFY2	; # OF CALLS TO 'ESCAPE' MODIFY
                                     0800   113 	F NXTBLK1	; # OF CALLS TO RM$NXTBLK1
                                     0800   114 	F OPEN		; # OF TIMES OPEN FUNCTION CALLED
                                     0800   115 	F OPEN1		; # OF SEQUENTIAL FILE ORGANIZATION OPENS
                                     0800   116 	F OPEN2		; # OF RELATIVE FILE ORGANIZATION OPENS
                                     0800   117 	F PARSE		; # OF TIMES PARSE FUNCTION CALLED
                                     0800   118 	F PARSES	; # OF CALLS TO PARSE_STRING ROUTINE (XPFN)
                                     0800   119 	F PUT		; # OF TIMES PUT FUNCTION CALLED
                                     0800   120 	F PUT1		; # OF SEQ. ORG. PUTS
                                     0800   121 	F PUT2		; # OF REL. ORG. PUTS
                                     0800   122 	F PUTBLD	; # OF SEQ. ORG. PUTS TO BLOCK DEVICES
                                     0800   123 	F PUTREC1	; # OR SEQ. ORG. PUTS TO UNIT RECORD DEVICES
                                     0800   124 	F PUTSET1	; # OF CALLS TO RM$PUTSET1
                                     0800   125 	F PUTSET2	; # OF CALLS TO RM$PUTSET2
                                     0800   126 	F READ		; # OF TIMES SYS$READ FUNCTION CALLED
                                     0800   127 	F RELBLK1	; # OF CALLS TO RM$RELBLK1
                                     0800   128 	F RELEASE	; # OF BUFFER RELEASES
                                     0800   129 	F RUNDWN	; # OF TIMES SYS$RMSRUNDWN CALLED
                                     0800   130 	F SEARCH	; # OF TIMES SEARCH, REMOVE AND ENTER FUNCTIONS CALLED
                                     0800   131 	F SEQRD		; # OF SEQ. ORG. READ QIO'S
                                     0800   132 	F SEQWTBD	; # OF SEQ. ORG. WRITE QIO'S FOR DLOCK DEVICES
                                     0800   133 	F SEQWTUR	; # OF SEQ. ORG. WRITES TO UNIT RECORD DEVICES
RM0DUMMY        DUMMY ROUTINES                                   21-AUG-1978 21:12:38   VAX-11 MACRO X0.3-11               Page   5
029                                                                                                                              (1)

                                     0800   134 	F SETDDIR	; # OF TIMES SET DEFAULT DIRECTORY FUNCTION CALLED
                                     0800   135 	F SETDFPROT	; # OF TIMES SYS$SETDFPROT FUNCTION CALLED
                                     0800   136 	F SETDID	; # OF CALLS TO RM$SETDID ROUTINE (DIRECTORY ID)
                                     0800   137 	F STALAST	; # OF ASTS PROCESSED AT RM$THREADGO
                                     0800   138 	F STALL		; # OF RMS STALLS
                                     0800   139 	F STALLAL	; # OF RMS STALLS REQUIRING ASB ALLOCATION
                                     0800   140 	F UPDATE	; # OF TIMES $PUT FUNCTION CALLED
                                     0800   141 	F UPDATE1	; # OF SEQ. ORG UPDATES
                                     0800   142 	F UPDATE2	; # OF REL. ORG UPDATES
                                     0800   143 	F WAIT		; # OF TIMES WAIT FUNCTION CALLED
                                     0800   144 	F WRITE		; # OF TIMES SYS$WRITE FUNCTION CALLED
                                     0800   145 	F WTLST1	; # OF CALLS TO RM$WTLST1
                                     0800   146 	F XLATLOG	; # OF RMS LOGICAL NAME XLATIONS (XPFN)
                                     0800   147 	F XPFN		; # OF CALLS TO RM$XPFN
                                     0800   148 ;
                                     0800   149 ;  THE FOLLOWING OFFSETS NEED TO BE MERGED IN SEQUENCE WHEN
                                     0800   150 ;  REASSEMBLING ALL OF RMS
                                     0800   151 ;
                                     0800   152 	F CONNECT2	; # OF CALLS TO RM$CONNECT2
                                     0800   153 	F FLUSH		; # OF TIMES SYS$FLUSH FUNCTION CALLED
                                     0800   154 	F FREE		; # OF TIMES SYS$FREE FUNCTION CALLED
                                     0800   155 	F RELEASE0	; # OF TIMES SYS$RELEASE FUNCTION CALLED
                                     0800   156 	F REWIND	; # OF TIMES SYS$REWIND FUNCTION CALLED
                                     0800   157 	F NXTVOL	; # OF TIMES SYS$NXTVOL FUNCTION CALLED
                                     0800   158 	F SPACE		; # OF TIMES SYS$SPACE FUNCTION CALLED
                                     0800   159 	F TRUNCATE	; # OF TIMES SYS$TRUNCATE FUNCTION CALLED
                                     0800   160 	F DISPLAY	; # OF TIMES SYS$DISPLAY FUNCTION CALLED
                                     0800   161 	F EXTEND	; # OF TIMES SYS$EXTEND FUNCTION CALLED
                                     0800   162 	F RENAME	; # OF TIMES SYS$RENAME FUNCTION CALLED
                                     0800   163 	F MODIFY	; # OF TIMES SYS$MODIFY FUNCTION CALLED
                                     0800   164 	F NTACC_DAP	; # OF NETWORK ACCESS CALLS AT THE DAP LEVEL
                                     0800   165 	F NTACC_NSP	; # OF NETWORK ACCESS CALLS AT THE NSP LEVEL
                                     0800   166 	F NTCLOSE	; # OF NETWORK CLOSE FUNCTION CALLS
                                     0800   167 	F NTCONN1	; # OF NETWORK SEQ. ORG. CONNECTS
                                     0800   168 	F NTCREATE	; # OF NETWORK CREATE FUNCTION CALLS
                                     0800   169 	F NTDAP_RCV	; # OF NETWORK DAP MESSAGE RECEIVE QIO'S
                                     0800   170 	F NTDAP_XMT	; # OF NETWORK DAP MESSAGE TRANSMIT QIO'S
                                     0800   171 	F NTDEACCES	; # OF NETWORK DEACCESS CALLS
                                     0800   172 	F NTDISCON	; # OF NETWORK DISCONNECT FUNCTION CALLS
                                     0800   173 	F NTERASE	; # OF NETWORK ERASE FUNCTION CALLS
                                     0800   174 	F NTGET1	; # OF NETWORK SEQ. ORG. GETS
                                     0800   175 	F NTOPEN1	; # OF NETWORK SEQ. ORG. OPENS
                                     0800   176 	F NTPUT1	; # OF NETWORK SEQ. ORG. PUTS
                                     0800   177 	F NTCONN2	; # OF NETWORK REL. ORG. CONNECTS
                                     0800   178 	F NTDELETE2	; # OF NETWORK REL. ORG. DELETES
                                     0800   179 	F NTGET2	; # OF NETWORK REL. ORG. GETS
                                     0800   180 	F NTOPEN2	; # OF NETWORK REL. ORG. OPENS
                                     0800   181 	F NTPUT2	; # OF NETWORK REL. ORG. PUTS
                                     0800   182 	F NTREAD	; # OF NETWORK READS
                                     0800   183 	F NTREWIND	; $ OF NETWORK REWIND FUNCTION CALLS
                                     0800   184 	F NTSPACE	; # OF NETWORK SPACE FUNCTION CALLS
                                     0800   185 	F NTUPDATE1	; # OF NETWORK SEQ. ORG. UPDATES
                                     0800   186 	F NTUPDATE2	; # OF NETWORK REL. ORG. UPDATES
                                     0800   187 	F NTWRITE	; # OF NETWORK WRITES
                                     0800   188 	.END
RM0DUMMY        DUMMY ROUTINES                                   21-AUG-1978 21:12:38   VAX-11 MACRO X0.3-11               Page   6
SYMBOL TABLE                                                                                                                     (1)

$$.PSECT_EP    = 00000000            RMS$_ALQ       = 00018404            RMS$_FEX       = 00018282
$$RMSTEST      = 0000001A            RMS$_ANI       = 0001840C            RMS$_FLG       = 0001851C
$$RMS_PBUGCHK  = 00000010            RMS$_AOP       = 00018414            RMS$_FLK       = 0001828A
$$RMS_TBUGCHK  = 00000008            RMS$_ATR       = 0001C0CC            RMS$_FNA       = 00018524
$$RMS_UMODE    = 00000004            RMS$_ATW       = 0001C0D4            RMS$_FND       = 0001C02A
..CNT          = 00000188            RMS$_BKS       = 0001841C            RMS$_FNF       = 00018292
BIT...         = 00000000            RMS$_BKZ       = 00018424            RMS$_FNM       = 0001852C
BUG$_RMSBUG      ********   X   02   RMS$_BLN       = 0001842C            RMS$_FOP       = 0001853C
ENVERR           00000030 R     02   RMS$_BOF       = 00018198            RMS$_FSZ       = 00018534
FTL$_ASBALLFAIL= FFFFFFF9            RMS$_BUG       = 00018434            RMS$_FUL       = 00018544
FTL$_BADASTPRM = FFFFFFF8            RMS$_BUG_DAP   = 00018444            RMS$_IAL       = 0001854C
FTL$_BADBDB    = FFFFFFFA            RMS$_BUG_DDI   = 0001843C            RMS$_IAN       = 00018554
FTL$_BADBUFSIZ = FFFFFFF3            RMS$_BUG_XX2   = 0001844C            RMS$_IBF       = 00018754
FTL$_BADIFAB   = FFFFFFFD            RMS$_BUG_XX3   = 00018454            RMS$_IDX       = 0001855C
FTL$_BADLEVEL  = FFFFFFE6            RMS$_BUG_XX4   = 0001845C            RMS$_IFA       = 0001C124
FTL$_BADORGCASE= FFFFFFFB            RMS$_BUG_XX5   = 00018464            RMS$_IFI       = 00018564
FTL$_CANTDOAST = FFFFFFF7            RMS$_BUG_XX6   = 0001846C            RMS$_IMX       = 0001856C
FTL$_DEALLERR  = FFFFFFEF            RMS$_BUG_XX7   = 00018474            RMS$_IOP       = 00018574
FTL$_GTCHNFAIL = FFFFFFFC            RMS$_BUG_XX8   = 0001847C            RMS$_IRC       = 0001857C
FTL$_IORNDN    = FFFFFFEE            RMS$_BUG_XX9   = 00018484            RMS$_ISI       = 00018584
FTL$_LOCKFAILED= FFFFFFE7            RMS$_CAA       = 0001848C            RMS$_KBF       = 0001858C
FTL$_NOASB     = FFFFFFF5            RMS$_CCF       = 0001C0DC            RMS$_KEY       = 00018594
FTL$_NODIDORFID= FFFFFFEB            RMS$_CCR       = 00018494            RMS$_KFF       = 00018031
FTL$_NOLOCKBDB = FFFFFFE9            RMS$_CDA       = 0001C0E4            RMS$_KRF       = 0001859C
FTL$_NONETWORK = FFFFFFE8            RMS$_CHG       = 0001849C            RMS$_KSZ       = 000185A4
FTL$_NONXTBDB  = FFFFFFF4            RMS$_CHK       = 000184A4            RMS$_LAN       = 000185AC
FTL$_NOSTRUCT  = FFFFFFF6            RMS$_CHN       = 0001C0EC            RMS$_LBL       = 000185B4
FTL$_NOTLOCKED = FFFFFFEC            RMS$_COD       = 000184AC            RMS$_LNE       = 000185BC
FTL$_RELEASFAIL= FFFFFFEA            RMS$_CONTROLC  = 00010651            RMS$_LOC       = 000185C4
FTL$_SETPRTFAIL= FFFFFFFF            RMS$_CONTROLO  = 00010609            RMS$_MBC       = 00018734
FTL$_STKTOOBIG = FFFFFFFE            RMS$_CONTROLY  = 00010611            RMS$_MKD       = 0001C032
FTL$_XFERSIZE  = FFFFFFED            RMS$_CRE       = 0001C00A            RMS$_MRN       = 000185CC
GBL...         = 00000000            RMS$_CREATED   = 00010619            RMS$_MRS       = 000185D4
RM$BUG           00000000 RG    02   RMS$_CUR       = 000184B4            RMS$_NAM       = 000185DC
RM$CHKBIOCONN    ********   X   02   RMS$_DAC       = 0001C012            RMS$_NEF       = 000185E4
RM$CHKBIOCRE     ********   X   02   RMS$_DAN       = 000184BC            RMS$_NET       = 0001874C
RM$CHKBIOOPEN    ********   X   02   RMS$_DEL       = 00018262            RMS$_NID       = 000185EC
RM$CLOSE3        00000027 RG    02   RMS$_DEV       = 000184C4            RMS$_NMF       = 000182CA
RM$CONNECT3      0000002B RG    02   RMS$_DIR       = 000184CC            RMS$_NOD       = 000185F4
RM$CREATE3       00000019 RG    02   RMS$_DME       = 000184D4            RMS$_NORMAL    = 00010001
RM$DELETE3       00000023 RG    02   RMS$_DNA       = 000184DC            RMS$_NPK       = 000185FC
RM$DISCOMMONSUC  ********   X   02   RMS$_DNF       = 0001C04A            RMS$_OK_ALK    = 00018039
RM$DISCONNECT3   00000028 RG    02   RMS$_DNR       = 00018272            RMS$_OK_DEL    = 00018041
RM$DPYCM         00000015 RG    02   RMS$_DPE       = 0001C03A            RMS$_OK_DUP    = 00018011
RM$ERRORG        00000023 RG    02   RMS$_DTP       = 000184E4            RMS$_OK_IDX    = 00018019
RM$FIND3         00000023 RG    02   RMS$_DUP       = 000184EC            RMS$_OK_LIM    = 00018051
RM$GET3          00000023 RG    02   RMS$_DVI       = 000184F4            RMS$_OK_RLK    = 00018021
RM$OPEN3         0000001E RG    02   RMS$_ENT       = 0001C01A            RMS$_OK_RNF    = 00018049
RM$PUT3          00000023 RG    02   RMS$_ENV       = 00018724            RMS$_OK_RRV    = 00018029
RM$UPDATE3       00000023 RG    02   RMS$_EOF       = 0001827A            RMS$_ORD       = 00018604
RMS$GQ_PATCH     00000000 RG    04   RMS$_ESA       = 000184FC            RMS$_ORG       = 0001860C
RMS$V_STVSTATUS= 0000000E            RMS$_ESL       = 00018714            RMS$_PBF       = 00018614
RMS$_ABO       = 000183EC            RMS$_ESS       = 00018504            RMS$_PENDING   = 00018009
RMS$_ACC       = 0001C002            RMS$_EXP       = 000182C2            RMS$_PLG       = 0001861C
RMS$_ACT       = 0001825A            RMS$_EXT       = 0001C022            RMS$_PLV       = 0001872C
RMS$_AID       = 000183F4            RMS$_FAB       = 0001850C            RMS$_POS       = 00018624
RMS$_ALN       = 000183FC            RMS$_FAC       = 00018514            RMS$_PRM       = 0001862C
RM0DUMMY        DUMMY ROUTINES                                   21-AUG-1978 21:12:38   VAX-11 MACRO X0.3-11               Page   7
SYMBOL TABLE                                                                                                                     (1)

RMS$_PRV       = 0001829A            TPT$L_CONNECT  = 00000010  G         TPT$L_OPEN2    = 00000078  G
RMS$_QUO       = 00018634            TPT$L_CONNECT2 = 000000F8  G         TPT$L_PARSE    = 0000007C  G
RMS$_RAB       = 0001863C            TPT$L_CREATE   = 00000014  G         TPT$L_PARSES   = 00000080  G
RMS$_RAC       = 00018644            TPT$L_CREATE1  = 00000018  G         TPT$L_PUT      = 00000084  G
RMS$_RAT       = 0001864C            TPT$L_CREATE2  = 0000001C  G         TPT$L_PUT1     = 00000088  G
RMS$_RBF       = 00018654            TPT$L_DEACCES  = 00000020  G         TPT$L_PUT2     = 0000008C  G
RMS$_RER       = 0001C0F4            TPT$L_DELETE   = 00000024  G         TPT$L_PUTBLD   = 00000090  G
RMS$_REX       = 000182A2            TPT$L_DELETE2  = 00000028  G         TPT$L_PUTREC1  = 00000094  G
RMS$_RFA       = 0001865C            TPT$L_DISCON0  = 0000002C  G         TPT$L_PUTSET1  = 00000098  G
RMS$_RFM       = 00018664            TPT$L_DISCON1  = 00000030  G         TPT$L_PUTSET2  = 0000009C  G
RMS$_RHB       = 0001866C            TPT$L_DISCON2  = 00000034  G         TPT$L_READ     = 000000A0  G
RMS$_RLF       = 00018674            TPT$L_DISPLAY  = 00000118  G         TPT$L_RELBLK1  = 000000A4  G
RMS$_RLK       = 000182AA            TPT$L_ERASE    = 00000038  G         TPT$L_RELEASE  = 000000A8  G
RMS$_RMV       = 0001C0FC            TPT$L_EXTEND   = 0000011C  G         TPT$L_RELEASE0 = 00000104  G
RMS$_RNF       = 000182B2            TPT$L_FCPEXT   = 0000003C  G         TPT$L_RENAME   = 00000120  G
RMS$_RNL       = 000181A0            TPT$L_FCPFNC   = 00000040  G         TPT$L_REWIND   = 00000108  G
RMS$_ROP       = 0001867C            TPT$L_FCPFNCA  = 00000044  G         TPT$L_RUNDWN   = 000000AC  G
RMS$_RPL       = 0001C104            TPT$L_FIND     = 00000048  G         TPT$L_SEARCH   = 000000B0  G
RMS$_RRV       = 00018684            TPT$L_FIND1    = 0000004C  G         TPT$L_SEQRD    = 000000B4  G
RMS$_RSA       = 000182DA            TPT$L_FIND2    = 00000050  G         TPT$L_SEQWTBD  = 000000B8  G
RMS$_RSL       = 0001873C            TPT$L_FLUSH    = 000000FC  G         TPT$L_SEQWTUR  = 000000BC  G
RMS$_RSS       = 00018694            TPT$L_FREE     = 00000100  G         TPT$L_SETDDIR  = 000000C0  G
RMS$_RST       = 0001869C            TPT$L_GET      = 00000054  G         TPT$L_SETDFPROT= 000000C4  G
RMS$_RSZ       = 000186A4            TPT$L_GET1     = 00000058  G         TPT$L_SETDID   = 000000C8  G
RMS$_RTB       = 000181A8            TPT$L_GET2     = 0000005C  G         TPT$L_SPACE    = 00000110  G
RMS$_SEQ       = 000186AC            TPT$L_GETBLKD  = 00000060  G         TPT$L_STALAST  = 000000CC  G
RMS$_SHR       = 000186B4            TPT$L_INDPPF   = 00000064  G         TPT$L_STALL    = 000000D0  G
RMS$_SIZ       = 000186BC            TPT$L_MODIFY   = 00000124  G         TPT$L_STALLAL  = 000000D4  G
RMS$_SPL       = 0001C042            TPT$L_MODIFY2  = 00000068  G         TPT$L_TRUNCATE = 00000114  G
RMS$_SQO       = 000186C4            TPT$L_NTACC_DAP= 00000128  G         TPT$L_UPDATE   = 000000D8  G
RMS$_STALL     = 00018001            TPT$L_NTACC_NSP= 0000012C  G         TPT$L_UPDATE1  = 000000DC  G
RMS$_STK       = 000186CC            TPT$L_NTCLOSE  = 00000130  G         TPT$L_UPDATE2  = 000000E0  G
RMS$_SUC       = 00010001            TPT$L_NTCONN1  = 00000134  G         TPT$L_WAIT     = 000000E4  G
RMS$_SUP       = 000182D2            TPT$L_NTCONN2  = 0000015C  G         TPT$L_WRITE    = 000000E8  G
RMS$_SUPERSEDE = 00010631            TPT$L_NTCREATE = 00000138  G         TPT$L_WTLST1   = 000000EC  G
RMS$_SYN       = 000186D4            TPT$L_NTDAP_RCV= 0000013C  G         TPT$L_XLATLOG  = 000000F0  G
RMS$_SYS       = 0001C10C            TPT$L_NTDAP_XMT= 00000140  G         TPT$L_XPFN     = 000000F4  G
RMS$_TEMP1     = 0001826A            TPT$L_NTDEACCES= 00000144  G
RMS$_TEMP2     = 0001868C            TPT$L_NTDELETE2= 00000160  G
RMS$_TMO       = 000181B0            TPT$L_NTDISCON = 00000148  G
RMS$_TRE       = 000186DC            TPT$L_NTERASE  = 0000014C  G
RMS$_TYP       = 000186E4            TPT$L_NTGET1   = 00000150  G
RMS$_UBF       = 000186EC            TPT$L_NTGET2   = 00000164  G
RMS$_USZ       = 000186F4            TPT$L_NTOPEN1  = 00000154  G
RMS$_VER       = 000186FC            TPT$L_NTOPEN2  = 00000168  G
RMS$_VOL       = 00018704            TPT$L_NTPUT1   = 00000158  G
RMS$_WBE       = 0001C12C            TPT$L_NTPUT2   = 0000016C  G
RMS$_WER       = 0001C114            TPT$L_NTREAD   = 00000170  G
RMS$_WLD       = 00018744            TPT$L_NTREWIND = 00000174  G
RMS$_WLK       = 000182BA            TPT$L_NTSPACE  = 00000178  G
RMS$_WPL       = 0001C11C            TPT$L_NTUPDATE1= 0000017C  G
RMS$_WSF       = 0001871C            TPT$L_NTUPDATE2= 00000180  G
RMS$_XAB       = 0001870C            TPT$L_NTWRITE  = 00000184  G
TPT$L_ACCESS   = 00000000  G         TPT$L_NXTBLK1  = 0000006C  G
TPT$L_ASTDSA   = 00000004  G         TPT$L_NXTVOL   = 0000010C  G
TPT$L_CLOSE    = 00000008  G         TPT$L_OPEN     = 00000070  G
TPT$L_COMCLNU  = 0000000C  G         TPT$L_OPEN1    = 00000074  G
RM0DUMMY        DUMMY ROUTINES                                   21-AUG-1978 21:12:38   VAX-11 MACRO X0.3-11               Page   8
PROGRAM SECTION SYNOPSIS                                                                                                         (1)


PROGRAM SECTION SYNOPSIS

.  ABS  .        00000000      00     NOPIC   USR   CON   ABS   LCL NOSHR NOEXE NORD  NOWRT BYTE
. BLANK .        00000000      01     NOPIC   USR   CON   REL   LCL NOSHR   EXE   RD    WRT BYTE
L$RMS0DUMMY      00000036      02     NOPIC   USR   CON   REL   GBL NOSHR   EXE   RD  NOWRT QUAD
$ABS$            00000000      03     NOPIC   USR   CON   ABS   LCL NOSHR   EXE   RD    WRT BYTE
ZZZZ             00000800      04     NOPIC   USR   CON   REL   LCL NOSHR   EXE   RD  NOWRT PAGE


THERE WERE NO ERRORS OR WARNINGS.
18602. BYTES LEFT IN FREE MEMORY POOL.
604. BYTES OF RECLAIMED MEMORY.
OBJ$:RM0DUMMY,LIS$:RM0DUMMY/-SP=EXECML$/ML,LIB$:R/ML,SRC$:RM0DUMMY
21 MLB DIR RDS - 435 GETS TO DEFINE 16 MACROS. 36 INTER. FILE WRITES.
