RM0FSET         SETUP FOR A FAB FUNCTION                         21-AUG-1978 21:23:12   VAX-11 MACRO X0.3-11               Page   0
TABLE OF CONTENTS

   (1)      40  DECLARATIONS
   (1)      63  RM$FSET  -  COMMON SETUP FOR FAB FUNCTION ROUTI
RM0FSET         SETUP FOR A FAB FUNCTION                         21-AUG-1978 21:23:12   VAX-11 MACRO X0.3-11               Page   1
007                                                                                                                              (1)

                                     0000     1 	$BEGIN RM0FSET,007,F$RMSCOM,<SETUP FOR A FAB FUNCTION>
                                     0000     2
                                     0000     3
                                     0000     4 ;
                                     0000     5 ; COPYRIGHT (C) 1977
                                     0000     6 ; DIGITAL EQUIPMENT CORPORATION, MAYNARD, MASSACHUSETTS 01754
                                     0000     7 ;
                                     0000     8 ; THIS SOFTWARE IS FURNISHED  UNDER A LICENSE FOR USE ONLY ON A SINGLE
                                     0000     9 ; COMPUTER  SYSTEM AND  MAY BE  COPIED ONLY WITH  THE INCLUSION OF THE
                                     0000    10 ; ABOVE COPYRIGHT NOTICE.  THIS SOFTWARE, OR ANY OTHER COPIES THEREOF,
                                     0000    11 ; MAY NOT BE PROVIDED OR  OTHERWISE MADE AVAILABLE TO ANY OTHER PERSON
                                     0000    12 ; EXCEPT FOR USE ON SUCH SYSTEM AND TO ONE WHO AGREES TO THESE LICENSE
                                     0000    13 ; TERMS.  TITLE TO AND  OWNERSHIP OF THE  SOFTWARE  SHALL AT ALL TIMES
                                     0000    14 ; REMAIN IN DEC.
                                     0000    15 ;
                                     0000    16 ; THE INFORMATION IN THIS SOFTWARE IS SUBJECT TO CHANGE WITHOUT NOTICE
                                     0000    17 ; AND SHOULD  NOT BE CONSTRUED  AS A COMMITMENT  BY DIGITAL  EQUIPMENT
                                     0000    18 ; CORPORATION.
                                     0000    19 ;
                                     0000    20 ; DEC ASSUMES  NO  RESPONSIBILITY  FOR  THE USE OR  RELIABILITY OF ITS
                                     0000    21 ; SOFTWARE ON EQUIPMENT WHICH IS NOT SUPPLIED BY DEC.
                                     0000    22
                                     0000    23 ;++
                                     0000    24 ; FACILITY: RMS32
                                     0000    25 ;
                                     0000    26 ; ABSTRACT:
                                     0000    27 ;		ROUTINE TO PERFORM COMMON SETUP FOR A FAB FUNCTION
                                     0000    28 ;
                                     0000    29 ; ENVIRONMENT:
                                     0000    30 ;		STAR PROCESSOR RUNNING STARLET EXEC.
                                     0000    31 ;
                                     0000    32 ; AUTHOR: L F LAVERDURE,	 CREATION DATE: 4-JAN-77
                                     0000    33 ;
                                     0000    34 ; MODIFIED BY:
                                     0000    35 ;
                                     0000    36 ;	L F LAVERDURE,   9-AUG-77  14:06
                                     0000    37 ; 01	-
                                     0000    38 ;--
RM0FSET         SETUP FOR A FAB FUNCTION                         21-AUG-1978 21:23:12   VAX-11 MACRO X0.3-11               Page   2
007             DECLARATIONS                                                                                                     (1)

                                     0000    40 	.SBTTL	DECLARATIONS
                                     0000    41 ;
                                     0000    42 ; INCLUDE FILES:
                                     0000    43 ;
                                     0000    44
                                     0000    45 ;
                                     0000    46 ; MACROS:
                                     0000    47 ;
                                     0000    48 	$IMPDEF
                                     0000    49 	$FABDEF
                                     0000    50 	$IFBDEF
                                     0000    51 	$RMSDEF
                                     0000    52 	.LIST MEB
                                     0000    53
                                     0000    54 ;
                                     0000    55 ; EQUATED SYMBOLS:
                                     0000    56 ;
                                     0000    57
                                     0000    58 ;
                                     0000    59 ; OWN STORAGE:
                                     0000    60 ;
                                     0000    61
RM0FSET         SETUP FOR A FAB FUNCTION                         21-AUG-1978 21:23:12   VAX-11 MACRO X0.3-11               Page   3
007             RM$FSET  -  COMMON SETUP FOR FAB FUNCTION ROUTI                                                                  (1)

                                     0000    63 	.SBTTL RM$FSET  -  COMMON SETUP FOR FAB FUNCTION ROUTINE
                                     0000    64 ;++
                                     0000    65 ; FUNCTIONAL DESCRIPTION:
                                     0000    66 ;
                                     0000    67 ;  THIS ROUTINE PERFORMS COMMON SETUP FOR A FAB FUNCTION CALL
                                     0000    68 ;  INCLUDING THE FOLLOWING:
                                     0000    69 ;
                                     0000    70 ;	1. CALL RM$FABCHK TO CHECK ARGLIST, SET BASE REGS,
                                     0000    71 ;	   AND ZERO STS AND STV FIELDS IN FAB
                                     0000    72 ;	2. CHECK FOR VALID IFI AND SET IFAB ADDR
                                     0000    73 ;	3. CHECK FOR STREAM IDLE AND SET TO BUSY
                                     0000    74 ;	4. STORE THE ARGLIST ADDR AND CALLER'S MODE IN THE IFAB
                                     0000    75 ;	5. SAVE SP ENTRY VALUE IN IMP$L_SAVED_SP
                                     0000    76 ;
                                     0000    77 ;
                                     0000    78 ; CALLING SEQUENCE:
                                     0000    79 ;
                                     0000    80 ;	BSBW	RM$FSET
                                     0000    81 ;
                                     0000    82 ;  ALTERNATE ENTRY AT RM$FSET_ALT TO PERFORM FUNCTIONS 3, 4, & 5 ONLY
                                     0000    83 ;	R7, R8, R9, AND R11 MUST BE SET AS PER OUTPUT PRIOR TO CALL.
                                     0000    84 ;
                                     0000    85 ;
                                     0000    86 ; INPUT PARAMETERS:
                                     0000    87 ;
                                     0000    88 ;	SP	STACK POINTER
                                     0000    89 ;	AP	ARGUMENT LIST ADDR
                                     0000    90 ;
                                     0000    91 ; IMPLICIT INPUTS:
                                     0000    92 ;
                                     0000    93 ;	THE CONTENTS OF THE FAB
                                     0000    94 ;
                                     0000    95 ; OUTPUT PARAMETERS:
                                     0000    96 ;
                                     0000    97 ;	R11	IMPURE AREA ADDRESS
                                     0000    98 ;	R10	IFAB ADDRESS
                                     0000    99 ;	R9	IFAB ADDRESS
                                     0000   100 ;	R8	FAB ADDRESS
                                     0000   101 ;	R7	CALLER'S MODE
                                     0000   102 ;	R0 THRU R5 DESTROYED
                                     0000   103 ;
                                     0000   104 ; IMPLICIT OUTPUTS:
                                     0000   105 ;
                                     0000   106 ;	IMP$L_SAVED_SP IS SET TO VALUE OF SP+4
                                     0000   107 ;
                                     0000   108 ; COMPLETION CODES:
                                     0000   109 ;
                                     0000   110 ;	NONE.  IF AN ERROR IS DETECTED RETURNS TO USER (NOT CALLER)
                                     0000   111 ;	AFTER APPROPRIATE CLEANUP.  THE USER RECEIVES A STANDARD
                                     0000   112 ;	RMS ERROR CODE, IN PARTICULAR, IFI AND THOSE RETURNED BY
                                     0000   113 ;	RM$FABCHK.
                                     0000   114 ;
                                     0000   115 ; SIDE EFFECTS:
                                     0000   116 ;
                                     0000   117 ;	NONE
                                     0000   118 ;
                                     0000   119 ;--
RM0FSET         SETUP FOR A FAB FUNCTION                         21-AUG-1978 21:23:12   VAX-11 MACRO X0.3-11               Page   4
007             RM$FSET  -  COMMON SETUP FOR FAB FUNCTION ROUTI                                                                  (1)

                                     0000   121 RM$FSET::
                          FFFD'  30  0000   122 	BSBW	RM$FABCHK		;VALID FAB?
                                     0003   123 					;RETURNS ONLY IF O.K.
                                     0003   124 					;NOTE: SETS R11 TO IMPURE ADDR
                                     0003   125 					;     R9 TO IFI
                                     0003   126 					;     R8 TO FAB ADDR
                                     0003   127 					;     R7 TO CALLER'S MODE
                                     0003   128 ;
                                     0003   129 ;  GET THE IFAB ADDRESS AND CHECK FOR A VALID IFAB
                                     0003   130 ;
            50            06     D0  0003   131 	MOVL	#IMP$L_IFABTBL/4,R0	;IFAB TABLE OFFSET DIVIDED BY 4
                          FFF7'  30  0006   132 	BSBW	RM$GTIADR		;GET IFAB ADDR
                          2F     13  0009   133 	BEQL	ERRIFI			;BRANCH IF BAD
                                     000B   134 	ASSUME	IFB$B_BID EQ IFB$B_BLN-1
                           00000008  000B   135 	.IF NE $$RMSTEST&$$RMS_TBUGCHK
       180B 8F         08 A9     B1  000B   136 	CMPW	IFB$B_BID(R9),#IFB$C_BID+<<IFB$C_BLN/4>*256>
                          2D     12  0011   137 	BNEQ	ERRBUG			;BRANCH IF NOT A VALID IFAB
                                     0013   138 	.ENDC
                                     0013   139 ;
                                     0013   140 ;
                                     0013   141 ;  ALTERNATE ENTRY FROM FSETI HERE
                                     0013   142 ;
                                     0013   143 ;  SET BUSY, CHECKING IF ALREADY ACTIVE
                                     0013   144 ;  STORE CALLER'S MODE AND ARGLIST ADDR IN IFAB
                                     0013   145 ;
                                     0013   146 RM$FSET_ALT::
            69            20     E2  0013   147 	BBSS	#IFB$V_BUSY,(R9),ERRACT
                          26         0016
            68            1E     E0  0017   148 	BBS	#FAB$V_PPF_IND+<FAB$W_IFI*8>,(R8),CHKIND ;BRANCH IF INDIRECT PPF
                          19         001A
                                     001B   149 	CSB	#IFB$V_PPF_IMAGE,(R9)	;MAKE SURE INDIRECT BIT OFF
            69            22     E5  001B       		BBCC	#IFB$V_PPF_IMAGE,(R9),30000$
                          00         001E
                                     001F       30000$:
         0A A9            57     90  001F   150 SETMOD:	MOVB	R7,IFB$B_MODE(R9)	;SAVE CALLER'S MODE
         18 A9            5C     D0  0023   151 	MOVL	AP,IFB$L_ARGLST(R9)	;SAVE POINTER TO ARGLIST
            5A            59     D0  0027   152 	MOVL	R9,R10			;COPY IFAB ADDR
            5E            04     C1  002A   153 	ADDL3	#4,SP,IMP$L_SAVED_SP(R11)	;SAVE STACK ENTRY VALUE
                       14 AB         002D
                                     002F   154 						; (LESS RETURN PC)
                           00000008  002F   155 	.IF NE $$RMSTEST&$$RMS_TBUGCHK
         24 A9            58     D0  002F   156 	MOVL	R8,IFB$L_LAST_FAB(R9)	;SAVE ADDR THIS FAB
                                     0033   157 	.ENDC
                                 05  0033   158 	RSB
                                     0034   159 ;
                                     0034   160 ;  THE IFI VALUE INDICATES INDIRECT PROCESSING OF A PROCESS PERMANENT FILE
                                     0034   161 ;
                                     0034   162 ;  SET PPF_IMAGE FLAG
                                     0034   163 ;
                                     0034   164 CHKIND:	SSB	#IFB$V_PPF_IMAGE,(R9)	;SET INDIRECT OPERATION FLAG
            69            22     E2  0034       		BBSS	#IFB$V_PPF_IMAGE,(R9),30001$
                          00         0037
                                     0038       30001$:
                          E5     11  0038   165 	BRB	SETMOD				; AND CONTINUE
RM0FSET         SETUP FOR A FAB FUNCTION                         21-AUG-1978 21:23:12   VAX-11 MACRO X0.3-11               Page   5
007             RM$FSET  -  COMMON SETUP FOR FAB FUNCTION ROUTI                                                                  (1)

                                     003A   167 ;
                                     003A   168 ;  ERROR RETURNS
                                     003A   169 ;
                                     003A   170 ERRIFI:	$PSECT_BR	L$RMS0
                          FFC3'  31  003A       		BRW	L$RMS00
                                     003D       		.SAVE
                                 00000000       		.PSECT	L$RMS0,GBL,NOWRT
                                     0000       L$RMS00:
                                     0000   171 	RMSERR	IFI			;INVALID IFI VALUE
            50       8564 8F     3C  0000       		MOVZWL	#<RMS$_IFI&^XFFFF>,R0
                          FFF8'  31  0005   172 ERROR:	BRW	RM$EX_NOSTR
                                     0008   173 	$PSECT_RESTORE
                                 0000003D       		.RESTORE
                                     003D   174 ;
                                     003D   175 ERRACT:	$PSECT_BR	L$RMS0
                          FFC8'  31  003D       		BRW	L$RMS01
                                     0040       		.SAVE
                                 00000008       		.PSECT	L$RMS0,GBL,NOWRT
                                     0008       L$RMS01:
                                     0008   176 	RMSERR	ACT			;STREAM ALREADY ACTIVE
            50       825A 8F     3C  0008       		MOVZWL	#<RMS$_ACT&^XFFFF>,R0
                          F6     11  000D   177 	BRB	ERROR
                                     000F   178 	$PSECT_RESTORE
                                 00000040       		.RESTORE
                                     0040   179 ;
                                     0040   180 ;  INTERNAL RMS PROBLEM  -  IFAB TABLE POINTED TO AN INVALID IFAB!
                                     0040   181 ;
                                     0040   182 ERRBUG:	RMSTBUG	FTL$_BADIFAB
                                     0040       	.SAVE
                                 00000068       	.PSECT	$ABS$,ABS
                           00000000  0068       	.=0
                                 00000040       	.RESTORE
                          FFBD'  30  0040       		BSBW	RM$BUG
                                 FD  0043       		.BYTE	FTL$_BADIFAB
                                     0044   183
                                     0044   184
                                     0044   185 	.END
RM0FSET         SETUP FOR A FAB FUNCTION                         21-AUG-1978 21:23:12   VAX-11 MACRO X0.3-11               Page   6
SYMBOL TABLE                                                                                                                     (1)

$$.PSECT_EP    = 00000002            FAB$M_DFW      = 00000020            FAB$V_EXE      = 00000007
$$RMSTEST      = 0000001A            FAB$M_DLT      = 00008000            FAB$V_FTN      = 00000000
$$RMS_PBUGCHK  = 00000010            FAB$M_DMO      = 00001000            FAB$V_GET      = 00000001
$$RMS_TBUGCHK  = 00000008            FAB$M_ESC      = 08000000            FAB$V_INP      = 00000013
$$RMS_UMODE    = 00000004            FAB$M_EXE      = 00000080            FAB$V_JNL      = 00000016
BIT...         = 00000000            FAB$M_FTN      = 00000001            FAB$V_KFO      = 0000001E
CHKIND           00000034 R     02   FAB$M_GET      = 00000002            FAB$V_MSE      = 00000004
ERRACT           0000003D R     02   FAB$M_INP      = 00080000            FAB$V_MXV      = 00000001
ERRBUG           00000040 R     02   FAB$M_JNL      = 00400000            FAB$V_NAM      = 00000018
ERRIFI           0000003A R     02   FAB$M_KFO      = 40000000            FAB$V_NEF      = 0000000A
ERROR            00000005 R     04   FAB$M_MSE      = 00000010            FAB$V_NFS      = 00000010
FAB$B_BID        00000000            FAB$M_MXV      = 00000002            FAB$V_NIL      = 00000005
FAB$B_BKS        0000003E            FAB$M_NAM      = 01000000            FAB$V_OFP      = 0000001D
FAB$B_BLN        00000001            FAB$M_NEF      = 00000400            FAB$V_ORG      = 00000004
FAB$B_DNS        00000035            FAB$M_NFS      = 00010000            FAB$V_POS      = 00000008
FAB$B_FAC        00000016            FAB$M_NIL      = 00000020            FAB$V_PPF      = 00000012
FAB$B_FNS        00000034            FAB$M_OFP      = 20000000            FAB$V_PPF_IND  = 0000000E
FAB$B_FSZ        0000003F            FAB$M_POS      = 00000100            FAB$V_PPF_RAT  = 00000006
FAB$B_ORG        0000001D            FAB$M_PPF      = 00040000            FAB$V_PRN      = 00000002
FAB$B_RAT        0000001E            FAB$M_PPF_IND  = 00004000            FAB$V_PUT      = 00000000
FAB$B_RFM        0000001F            FAB$M_PPF_RAT  = 00003FC0            FAB$V_RCK      = 00000017
FAB$B_RTV        0000001C            FAB$M_PRN      = 00000004            FAB$V_RWC      = 0000000B
FAB$B_SHR        00000017            FAB$M_PUT      = 00000001            FAB$V_RWO      = 00000007
FAB$C_BID      = 00000003            FAB$M_RCK      = 00800000            FAB$V_SCF      = 0000000E
FAB$C_BLN        00000050            FAB$M_RWC      = 00000800            FAB$V_SHRDEL   = 00000002
FAB$C_FIX      = 00000001            FAB$M_RWO      = 00000080            FAB$V_SHRGET   = 00000001
FAB$C_HSH      = 00000030            FAB$M_SCF      = 00004000            FAB$V_SHRPUT   = 00000000
FAB$C_IDX      = 00000020            FAB$M_SHRDEL   = 00000004            FAB$V_SHRUPD   = 00000003
FAB$C_MAXRFM   = 00000003            FAB$M_SHRGET   = 00000002            FAB$V_SPL      = 0000000D
FAB$C_REL      = 00000010            FAB$M_SHRPUT   = 00000001            FAB$V_SQO      = 00000006
FAB$C_RFM_DFLT = 00000002            FAB$M_SHRUPD   = 00000008            FAB$V_SUP      = 00000002
FAB$C_SEQ      = 00000000            FAB$M_SPL      = 00002000            FAB$V_TEF      = 0000001C
FAB$C_UDF      = 00000000            FAB$M_SQO      = 00000040            FAB$V_TMD      = 00000004
FAB$C_VAR      = 00000002            FAB$M_SUP      = 00000004            FAB$V_TMP      = 00000003
FAB$C_VFC      = 00000003            FAB$M_TEF      = 10000000            FAB$V_TRN      = 00000004
FAB$K_BLN        00000050            FAB$M_TMD      = 00000010            FAB$V_UFM      = 0000001A
FAB$L_ALQ        00000010            FAB$M_TMP      = 00000008            FAB$V_UFO      = 00000011
FAB$L_CTX        00000018            FAB$M_TRN      = 00000010            FAB$V_UPD      = 00000003
FAB$L_DEV        00000040            FAB$M_UFM      = 04000000            FAB$V_UPI      = 00000006
FAB$L_DNA        00000030            FAB$M_UFO      = 00020000            FAB$V_WCK      = 00000009
FAB$L_FNA        0000002C            FAB$M_UPD      = 00000008            FAB$W_BLS        0000003C
FAB$L_FOP        00000004            FAB$M_UPI      = 00000040            FAB$W_DEQ        00000014
FAB$L_JNL        00000020            FAB$M_WCK      = 00000200            FAB$W_IFI        00000002
FAB$L_MRN        00000038            FAB$S_ORG      = 00000004            FAB$W_MRS        00000036
FAB$L_NAM        00000028            FAB$S_PPF_RAT  = 00000008            FTL$_ASBALLFAIL= FFFFFFF9
FAB$L_SDC        00000044            FAB$V_BIO      = 00000005            FTL$_BADASTPRM = FFFFFFF8
FAB$L_STS        00000008            FAB$V_BLK      = 00000003            FTL$_BADBDB    = FFFFFFFA
FAB$L_STV        0000000C            FAB$V_BRO      = 00000006            FTL$_BADBUFSIZ = FFFFFFF3
FAB$L_XAB        00000024            FAB$V_CBT      = 00000015            FTL$_BADIFAB   = FFFFFFFD
FAB$M_BIO      = 00000020            FAB$V_CIF      = 00000019            FTL$_BADLEVEL  = FFFFFFE6
FAB$M_BLK      = 00000008            FAB$V_CR       = 00000001            FTL$_BADORGCASE= FFFFFFFB
FAB$M_BRO      = 00000040            FAB$V_CTG      = 00000014            FTL$_CANTDOAST = FFFFFFF7
FAB$M_CBT      = 00200000            FAB$V_DEL      = 00000002            FTL$_DEALLERR  = FFFFFFEF
FAB$M_CIF      = 02000000            FAB$V_DFW      = 00000005            FTL$_GTCHNFAIL = FFFFFFFC
FAB$M_CR       = 00000002            FAB$V_DLT      = 0000000F            FTL$_IORNDN    = FFFFFFEE
FAB$M_CTG      = 00100000            FAB$V_DMO      = 0000000C            FTL$_LOCKFAILED= FFFFFFE7
FAB$M_DEL      = 00000004            FAB$V_ESC      = 0000001B            FTL$_NOASB     = FFFFFFF5
RM0FSET         SETUP FOR A FAB FUNCTION                         21-AUG-1978 21:23:12   VAX-11 MACRO X0.3-11               Page   7
SYMBOL TABLE                                                                                                                     (1)

FTL$_NODIDORFID= FFFFFFEB            IFB$L_IOS4       00000010            IFB$W_BKS_BYTES  0000005C
FTL$_NOLOCKBDB = FFFFFFE9            IFB$L_IRAB_LNK   0000001C            IFB$W_BKS_RECS   0000005E
FTL$_NONETWORK = FFFFFFE8            IFB$L_LAST_FAB   00000024            IFB$W_CHNL       00000020
FTL$_NONXTBDB  = FFFFFFF4            IFB$L_LOCK_BDB   00000050            IFB$W_DEQ        0000004E
FTL$_NOSTRUCT  = FFFFFFF6            IFB$L_MRN        00000054            IFB$W_DEVBUFSIZ  00000038
FTL$_NOTLOCKED = FFFFFFEC            IFB$L_NRP_LNK    00000050            IFB$W_EBK0       00000044
FTL$_RELEASFAIL= FFFFFFEA            IFB$L_NWA_PTR    00000028            IFB$W_EBK2       00000046
FTL$_SETPRTFAIL= FFFFFFFF            IFB$L_PRIM_DEV   00000000            IFB$W_FFB        00000048
FTL$_STKTOOBIG = FFFFFFFE            IFB$L_RLB_LNK    0000002C            IFB$W_IOS2       0000000E
FTL$_XFERSIZE  = FFFFFFED            IFB$L_RNS_LEN    00000050            IFB$W_LRL        0000003E
GBL...         = 00000000            IFB$M_BIO      = 00000020            IFB$W_MRS        0000004C
IFB$B_AMAX       00000059            IFB$M_BRO      = 00000040            IFB$W_RTDEQ      0000003A
IFB$B_AVBN       00000058            IFB$M_DEL      = 00000004            IMP$B_PROT       00000002
IFB$B_BID        00000008            IFB$M_EXE      = 00000080            IMP$C_ASYEFN   = 0000001E
IFB$B_BKS        0000004A            IFB$M_GET      = 00000002            IMP$C_ASYQIOEFN= 0000001F
IFB$B_BLN        00000009            IFB$M_PUT      = 00000001            IMP$C_ENTPERSEG= 0000000F
IFB$B_EFN        0000000B            IFB$M_TRN      = 00000010            IMP$C_IOREFN   = 0000001E
IFB$B_EXTRABUF   0000005D            IFB$M_UPD      = 00000008            IMP$C_MBXEFN   = 0000001A
IFB$B_FAC        00000022            IFB$S_ORG      = 00000004            IMP$C_NPIOFILES= 0000000C
IFB$B_FSZ        0000004B            IFB$S_RFM      = 00000004            IMP$C_SYNCEFN  = 0000001B
IFB$B_KBUFSZ     0000005C            IFB$V_ACCESSED = 00000025            IMP$L_FREEPGLH   0000000C
IFB$B_MODE       0000000A            IFB$V_ANSI_D   = 00000026            IMP$L_IFABTBL    00000018
IFB$B_NUM_KEYS   0000005A            IFB$V_ASYNC    = 00000023            IMP$L_IFBTBLINK  00000024
IFB$B_ORGCASE    00000023            IFB$V_ASYNCWAIT= 00000024            IMP$L_IOSEGADDR  00000004
IFB$B_RAT        0000003D            IFB$V_BIO      = 00000005            IMP$L_IOSEGLEN   00000008
IFB$B_RFMORG     0000003C            IFB$V_BRO      = 00000006            IMP$L_IRABTBL    0000001C
IFB$B_UBUFSZ     0000005B            IFB$V_BUSY     = 00000020            IMP$L_IRBTBLINK  00000064
IFB$C_BID      = 0000000B            IFB$V_CREATE   = 00000032            IMP$L_SAVED_SP   00000014
IFB$C_BLN        00000060            IFB$V_DAP      = 0000003E            IMP$V_AST      = 00000001
IFB$C_BLN_IDX    00000060            IFB$V_DAP_OPEN = 0000003D            IMP$V_IIOS     = 00000000
IFB$C_BLN_REL    00000060            IFB$V_DEL      = 00000002            IMP$V_IORUNDOWN= 00000004
IFB$C_BLN_SEQ    0000005C            IFB$V_DFW      = 0000002C            IMP$V_NOP0BUFS = 00000005
IFB$C_DIR      = 00000003            IFB$V_DLT      = 0000002B            IMP$V_TEMP1    = 00000002
IFB$C_FHAEND     00000050            IFB$V_DMO      = 00000028            IMP$V_TEMP2    = 00000003
IFB$C_IDX      = 00000002            IFB$V_EOF      = 00000021            IMP$W_ENTPERSEG  00000020
IFB$C_MAXORG   = 00000002            IFB$V_EXE      = 00000007            IMP$W_NUM_IFABS  00000022
IFB$C_REL      = 00000001            IFB$V_GET      = 00000001            IMP$W_RMSSTATUS  00000000
IFB$C_SEQ      = 00000000            IFB$V_MSE      = 00000031            L$RMS00          00000000 R     04
IFB$K_BLN        00000060            IFB$V_NORECLK  = 00000033            L$RMS01          00000008 R     04
IFB$K_BLN_IDX    00000060            IFB$V_NSP      = 0000003F            RM$BUG           ********   X   02
IFB$K_BLN_REL    00000060            IFB$V_NWA      = 0000003C            RM$EX_NOSTR      ********   X   04
IFB$K_BLN_SEQ    0000005C            IFB$V_ORG      = 00000004            RM$FABCHK        ********   X   02
IFB$K_FHAEND     00000050            IFB$V_PPF_IMAGE= 00000022            RM$FSET          00000000 RG    02
IFB$L_ARGLST     00000018            IFB$V_PPF_INPUT= 0000002E            RM$FSET_ALT      00000013 RG    02
IFB$L_ASBADDR    00000014            IFB$V_PUT      = 00000000            RM$GTIADR        ********   X   02
IFB$L_AS_DEV     00000054            IFB$V_RFM      = 00000000            RMS$V_STVSTATUS= 0000000E
IFB$L_BDB_BLNK   00000034            IFB$V_RWC      = 00000027            RMS$_ABO       = 000183EC
IFB$L_BDB_FLNK   00000030            IFB$V_RW_ATTR  = 00000034            RMS$_ACC       = 0001C002
IFB$L_BKPBITS    00000004            IFB$V_SCF      = 0000002A            RMS$_ACT       = 0001825A
IFB$L_BWB        0000000C            IFB$V_SPL      = 00000029            RMS$_AID       = 000183F4
IFB$L_DVBN       00000058            IFB$V_SQO      = 0000002D            RMS$_ALN       = 000183FC
IFB$L_EBK        00000044            IFB$V_TEF      = 00000036            RMS$_ALQ       = 00018404
IFB$L_FRB_PTR    00000028            IFB$V_TMP      = 00000035            RMS$_ANI       = 0001840C
IFB$L_FWA_BDB    00000050            IFB$V_TRN      = 00000004            RMS$_AOP       = 00018414
IFB$L_HBK        00000040            IFB$V_UPD      = 00000003            RMS$_ATR       = 0001C0CC
IFB$L_IDX_PTR    00000054            IFB$V_WRTACC   = 00000030            RMS$_ATW       = 0001C0D4
IFB$L_IOS        0000000C            IFB$W_ASDEVBSIZ  0000005A            RMS$_BKS       = 0001841C
RM0FSET         SETUP FOR A FAB FUNCTION                         21-AUG-1978 21:23:12   VAX-11 MACRO X0.3-11               Page   8
SYMBOL TABLE                                                                                                                     (1)

RMS$_BKZ       = 00018424            RMS$_FNM       = 0001852C            RMS$_RER       = 0001C0F4
RMS$_BLN       = 0001842C            RMS$_FOP       = 0001853C            RMS$_REX       = 000182A2
RMS$_BOF       = 00018198            RMS$_FSZ       = 00018534            RMS$_RFA       = 0001865C
RMS$_BUG       = 00018434            RMS$_FUL       = 00018544            RMS$_RFM       = 00018664
RMS$_BUG_DAP   = 00018444            RMS$_IAL       = 0001854C            RMS$_RHB       = 0001866C
RMS$_BUG_DDI   = 0001843C            RMS$_IAN       = 00018554            RMS$_RLF       = 00018674
RMS$_BUG_XX2   = 0001844C            RMS$_IBF       = 00018754            RMS$_RLK       = 000182AA
RMS$_BUG_XX3   = 00018454            RMS$_IDX       = 0001855C            RMS$_RMV       = 0001C0FC
RMS$_BUG_XX4   = 0001845C            RMS$_IFA       = 0001C124            RMS$_RNF       = 000182B2
RMS$_BUG_XX5   = 00018464            RMS$_IFI       = 00018564            RMS$_RNL       = 000181A0
RMS$_BUG_XX6   = 0001846C            RMS$_IMX       = 0001856C            RMS$_ROP       = 0001867C
RMS$_BUG_XX7   = 00018474            RMS$_IOP       = 00018574            RMS$_RPL       = 0001C104
RMS$_BUG_XX8   = 0001847C            RMS$_IRC       = 0001857C            RMS$_RRV       = 00018684
RMS$_BUG_XX9   = 00018484            RMS$_ISI       = 00018584            RMS$_RSA       = 000182DA
RMS$_CAA       = 0001848C            RMS$_KBF       = 0001858C            RMS$_RSL       = 0001873C
RMS$_CCF       = 0001C0DC            RMS$_KEY       = 00018594            RMS$_RSS       = 00018694
RMS$_CCR       = 00018494            RMS$_KFF       = 00018031            RMS$_RST       = 0001869C
RMS$_CDA       = 0001C0E4            RMS$_KRF       = 0001859C            RMS$_RSZ       = 000186A4
RMS$_CHG       = 0001849C            RMS$_KSZ       = 000185A4            RMS$_RTB       = 000181A8
RMS$_CHK       = 000184A4            RMS$_LAN       = 000185AC            RMS$_SEQ       = 000186AC
RMS$_CHN       = 0001C0EC            RMS$_LBL       = 000185B4            RMS$_SHR       = 000186B4
RMS$_COD       = 000184AC            RMS$_LNE       = 000185BC            RMS$_SIZ       = 000186BC
RMS$_CONTROLC  = 00010651            RMS$_LOC       = 000185C4            RMS$_SPL       = 0001C042
RMS$_CONTROLO  = 00010609            RMS$_MBC       = 00018734            RMS$_SQO       = 000186C4
RMS$_CONTROLY  = 00010611            RMS$_MKD       = 0001C032            RMS$_STALL     = 00018001
RMS$_CRE       = 0001C00A            RMS$_MRN       = 000185CC            RMS$_STK       = 000186CC
RMS$_CREATED   = 00010619            RMS$_MRS       = 000185D4            RMS$_SUC       = 00010001
RMS$_CUR       = 000184B4            RMS$_NAM       = 000185DC            RMS$_SUP       = 000182D2
RMS$_DAC       = 0001C012            RMS$_NEF       = 000185E4            RMS$_SUPERSEDE = 00010631
RMS$_DAN       = 000184BC            RMS$_NET       = 0001874C            RMS$_SYN       = 000186D4
RMS$_DEL       = 00018262            RMS$_NID       = 000185EC            RMS$_SYS       = 0001C10C
RMS$_DEV       = 000184C4            RMS$_NMF       = 000182CA            RMS$_TEMP1     = 0001826A
RMS$_DIR       = 000184CC            RMS$_NOD       = 000185F4            RMS$_TEMP2     = 0001868C
RMS$_DME       = 000184D4            RMS$_NORMAL    = 00010001            RMS$_TMO       = 000181B0
RMS$_DNA       = 000184DC            RMS$_NPK       = 000185FC            RMS$_TRE       = 000186DC
RMS$_DNF       = 0001C04A            RMS$_OK_ALK    = 00018039            RMS$_TYP       = 000186E4
RMS$_DNR       = 00018272            RMS$_OK_DEL    = 00018041            RMS$_UBF       = 000186EC
RMS$_DPE       = 0001C03A            RMS$_OK_DUP    = 00018011            RMS$_USZ       = 000186F4
RMS$_DTP       = 000184E4            RMS$_OK_IDX    = 00018019            RMS$_VER       = 000186FC
RMS$_DUP       = 000184EC            RMS$_OK_LIM    = 00018051            RMS$_VOL       = 00018704
RMS$_DVI       = 000184F4            RMS$_OK_RLK    = 00018021            RMS$_WBE       = 0001C12C
RMS$_ENT       = 0001C01A            RMS$_OK_RNF    = 00018049            RMS$_WER       = 0001C114
RMS$_ENV       = 00018724            RMS$_OK_RRV    = 00018029            RMS$_WLD       = 00018744
RMS$_EOF       = 0001827A            RMS$_ORD       = 00018604            RMS$_WLK       = 000182BA
RMS$_ESA       = 000184FC            RMS$_ORG       = 0001860C            RMS$_WPL       = 0001C11C
RMS$_ESL       = 00018714            RMS$_PBF       = 00018614            RMS$_WSF       = 0001871C
RMS$_ESS       = 00018504            RMS$_PENDING   = 00018009            RMS$_XAB       = 0001870C
RMS$_EXP       = 000182C2            RMS$_PLG       = 0001861C            SETMOD           0000001F R     02
RMS$_EXT       = 0001C022            RMS$_PLV       = 0001872C
RMS$_FAB       = 0001850C            RMS$_POS       = 00018624
RMS$_FAC       = 00018514            RMS$_PRM       = 0001862C
RMS$_FEX       = 00018282            RMS$_PRV       = 0001829A
RMS$_FLG       = 0001851C            RMS$_QUO       = 00018634
RMS$_FLK       = 0001828A            RMS$_RAB       = 0001863C
RMS$_FNA       = 00018524            RMS$_RAC       = 00018644
RMS$_FND       = 0001C02A            RMS$_RAT       = 0001864C
RMS$_FNF       = 00018292            RMS$_RBF       = 00018654
RM0FSET         SETUP FOR A FAB FUNCTION                         21-AUG-1978 21:23:12   VAX-11 MACRO X0.3-11               Page   9
PROGRAM SECTION SYNOPSIS                                                                                                         (1)


PROGRAM SECTION SYNOPSIS

.  ABS  .        00000000      00     NOPIC   USR   CON   ABS   LCL NOSHR NOEXE NORD  NOWRT BYTE
. BLANK .        00000000      01     NOPIC   USR   CON   REL   LCL NOSHR   EXE   RD    WRT BYTE
F$RMSCOM         00000044      02     NOPIC   USR   CON   REL   GBL NOSHR   EXE   RD  NOWRT BYTE
$ABS$            00000068      03     NOPIC   USR   CON   ABS   LCL NOSHR   EXE   RD    WRT BYTE
L$RMS0           0000000F      04     NOPIC   USR   CON   REL   GBL NOSHR   EXE   RD  NOWRT BYTE


THERE WERE NO ERRORS OR WARNINGS.
11992. BYTES LEFT IN FREE MEMORY POOL.
3032. BYTES OF RECLAIMED MEMORY.
OBJ$:RM0FSET,LIS$:RM0FSET/-SP=EXECML$/ML,LIB$:R/ML,SRC$:RM0FSET
27 MLB DIR RDS - 845 GETS TO DEFINE 24 MACROS. 63 INTER. FILE WRITES.
