RM0FABCHK       COMMON FAB CHECKING                              21-AUG-1978 21:21:22   VAX-11 MACRO X0.3-11               Page   0
TABLE OF CONTENTS

   (1)      41  DECLARATIONS
   (1)      64  RM$FABCHK  -  COMMON ARGLIST AND FAB VALIDATION
RM0FABCHK       COMMON FAB CHECKING                              21-AUG-1978 21:21:22   VAX-11 MACRO X0.3-11               Page   1
006                                                                                                                              (1)

                                     0000     1 	$BEGIN RM0FABCHK,006,F$RMSCOM,<COMMON FAB CHECKING>
                                     0000     2
                                     0000     3
                                     0000     4 ;
                                     0000     5 ; COPYRIGHT (C) 1977
                                     0000     6 ; DIGITAL EQUIPMENT CORPORATION, MAYNARD, MASSACHUSETTS 01754
                                     0000     7 ;
                                     0000     8 ; THIS SOFTWARE IS FURNISHED  UNDER A LICENSE FOR USE ONLY ON A SINGLE
                                     0000     9 ; COMPUTER  SYSTEM AND  MAY BE  COPIED ONLY WITH  THE INCLUSION OF THE
                                     0000    10 ; ABOVE COPYRIGHT NOTICE.  THIS SOFTWARE, OR ANY OTHER COPIES THEREOF,
                                     0000    11 ; MAY NOT BE PROVIDED OR  OTHERWISE MADE AVAILABLE TO ANY OTHER PERSON
                                     0000    12 ; EXCEPT FOR USE ON SUCH SYSTEM AND TO ONE WHO AGREES TO THESE LICENSE
                                     0000    13 ; TERMS.  TITLE TO AND  OWNERSHIP OF THE  SOFTWARE  SHALL AT ALL TIMES
                                     0000    14 ; REMAIN IN DEC.
                                     0000    15 ;
                                     0000    16 ; THE INFORMATION IN THIS SOFTWARE IS SUBJECT TO CHANGE WITHOUT NOTICE
                                     0000    17 ; AND SHOULD  NOT BE CONSTRUED  AS A COMMITMENT  BY DIGITAL  EQUIPMENT
                                     0000    18 ; CORPORATION.
                                     0000    19 ;
                                     0000    20 ; DEC ASSUMES  NO  RESPONSIBILITY  FOR  THE USE OR  RELIABILITY OF ITS
                                     0000    21 ; SOFTWARE ON EQUIPMENT WHICH IS NOT SUPPLIED BY DEC.
                                     0000    22
                                     0000    23 ;++
                                     0000    24 ; FACILITY: RMS32
                                     0000    25 ;
                                     0000    26 ; ABSTRACT:
                                     0000    27 ;		THIS ROUTINE PERFORMS COMMON FAB CALL ARGUMENT
                                     0000    28 ;		LIST AND FAB VALIDATION.
                                     0000    29 ;
                                     0000    30 ; ENVIRONMENT:
                                     0000    31 ;		STAR PROCESSOR RUNNING STARLET EXEC.
                                     0000    32 ;
                                     0000    33 ; AUTHOR: L F LAVERDURE,	 CREATION DATE: 4-JAN-77
                                     0000    34 ;
                                     0000    35 ; MODIFIED BY:
                                     0000    36 ;
                                     0000    37 ;	L F LAVERDURE,   9-AUG-77  12:13
                                     0000    38 ; 01	-
                                     0000    39 ;--
RM0FABCHK       COMMON FAB CHECKING                              21-AUG-1978 21:21:22   VAX-11 MACRO X0.3-11               Page   2
006             DECLARATIONS                                                                                                     (1)

                                     0000    41 	.SBTTL	DECLARATIONS
                                     0000    42 ;
                                     0000    43 ; INCLUDE FILES:
                                     0000    44 ;
                                     0000    45
                                     0000    46 ;
                                     0000    47 ; MACROS:
                                     0000    48 ;
                                     0000    49 	$FABDEF
                                     0000    50 	$PIODEF
                                     0000    51 	$PSLDEF
                                     0000    52 	$RMSDEF
                                     0000    53 	.LIST MEB
                                     0000    54
                                     0000    55 ;
                                     0000    56 ; EQUATED SYMBOLS:
                                     0000    57 ;
                                     0000    58
                                     0000    59 ;
                                     0000    60 ; OWN STORAGE:
                                     0000    61 ;
                                     0000    62
RM0FABCHK       COMMON FAB CHECKING                              21-AUG-1978 21:21:22   VAX-11 MACRO X0.3-11               Page   3
006             RM$FABCHK  -  COMMON ARGLIST AND FAB VALIDATION                                                                  (1)

                                     0000    64 	.SBTTL RM$FABCHK  -  COMMON ARGLIST AND FAB VALIDATION ROUTINE
                                     0000    65 ;++
                                     0000    66 ; FUNCTIONAL DESCRIPTION:
                                     0000    67 ;
                                     0000    68 ;  THIS ROUTINE PERFORMS THE FOLLOWING FUNCTIONS:
                                     0000    69 ;
                                     0000    70 ;	1. SETUP R11 TO POINT TO THE IMAGE I/O IMPURE AREA
                                     0000    71 ;	   (IT MAY BE CHANGED IN FSET TO THE PROCESS I/O IMPURE AREA)
                                     0000    72 ;	2. CHECK ARGUMENT LIST FOR ACCESSIBILITY AND VALIDITY
                                     0000    73 ;	3. CHECK FAB FOR ACCESSIBILITY AND VALIDITY
                                     0000    74 ;	4. SET R8 TO ADDRESS OF FAB
                                     0000    75 ;	5. CLEAR STS AND STV
                                     0000    76 ;	6. INHIBIT RMS INTERNAL ASTS
                                     0000    77 ;	7. SET R9 TO THE VALUE OF IFI
                                     0000    78 ;
                                     0000    79 ;
                                     0000    80 ;
                                     0000    81 ; CALLING SEQUENCE:
                                     0000    82 ;
                                     0000    83 ;	BSBW	RM$FABCHK
                                     0000    84 ;
                                     0000    85 ; INPUT PARAMETERS:
                                     0000    86 ;
                                     0000    87 ;	AP	ARGLIST ADDR
                                     0000    88 ;
                                     0000    89 ; IMPLICIT INPUTS:
                                     0000    90 ;
                                     0000    91 ;	THE CONTENTS OF THE ARGLIST AND THE BID, BLN, AND IFI FIELDS
                                     0000    92 ;	OF THE FAB.
                                     0000    93 ;
                                     0000    94 ; OUTPUT PARAMETERS:
                                     0000    95 ;
                                     0000    96 ;	R11	IMPURE AREA ADDRESS
                                     0000    97 ;	R9	IFI VALUE
                                     0000    98 ;	R8	FAB ADDRESS
                                     0000    99 ;	R7	MODE OF CALLER
                                     0000   100 ;
                                     0000   101 ; IMPLICIT OUTPUTS:
                                     0000   102 ;
                                     0000   103 ;	THE STS AND STV FIELDS OF THE FAB ARE ZEROED.
                                     0000   104 ;
                                     0000   105 ; COMPLETION CODES:
                                     0000   106 ;
                                     0000   107 ;	Z-BIT SET IF IFI = ZERO, ELSE CLEAR.
                                     0000   108 ;	IF ANY ERRORS, THE RMS ERROR CODE IS SET INTO R0
                                     0000   109 ;	AND RETURN IS MADE TO THE USER (NOT CALLER).
                                     0000   110 ;
                                     0000   111 ; SIDE EFFECTS:
                                     0000   112 ;
                                     0000   113 ;	RMS INTERNAL ASTS ARE INHIBITED.
                                     0000   114 ;
                                     0000   115 ;--
RM0FABCHK       COMMON FAB CHECKING                              21-AUG-1978 21:21:22   VAX-11 MACRO X0.3-11               Page   4
006             RM$FABCHK  -  COMMON ARGLIST AND FAB VALIDATION                                                                  (1)

                                     0000   117 ;
                                     0000   118 ;  SET UP POINTER TO IMPURE AREA BASED ON THE MODE OF THE CALLER
                                     0000   119 ;
                                     0000   120 RM$FABCHK::
                          5B     DC  0000   121 	MOVPSL	R11			;GET PSL
            02            16     EF  0002   122 	EXTZV	#PSL$V_PRVMOD,#PSL$S_PRVMOD,R11,R7
            57            5B         0005
                                     0007   123 					;EXTRACT THE PREVIOUS MODE
            5B   00000000'9F     DE  0007   124 	MOVAL	@#PIO$GW_IIOIMPA,R11	;IMAGE IO IMPURE AREA ADDR
                                     000E   125 ;
                                     000E   126 ;  PERFORM ACCESSIBILITY CHECKS
                                     000E   127 ;
            58         04 AC     D0  000E   128 	MOVL	4(AP),R8		;GET FAB ADDRESS
                                     0012   129 	IFNOWRT	#FAB$C_BLN,(R8),ERRFAB	;FAB WRITEABLE?
       0050 8F            00     0D  0012       		PROBEW	#0,#FAB$C_BLN,(R8)
                          68         0017
                          1B     13  0018       		BEQL	ERRFAB
                                     001A   130 	ASSUME	FAB$B_BID EQ 0
            03            68     91  001A   131 	CMPB	(R8),#FAB$C_BID		;IS IT A FAB?
                          16     12  001D   132 	BNEQ	ERRFAB
         50 8F         01 A8     91  001F   133 	CMPB	FAB$B_BLN(R8),#FAB$C_BLN ;IS IT LONG ENOUGH?
                          12     1F  0024   134 	BLSSU	ERRBLN
                                     0026   135 ;
                                     0026   136 ;  ZERO THE STS AND STV FAB FIELDS
                                     0026   137 ;
                                     0026   138 	ASSUME	FAB$L_STS+4 EQ FAB$L_STV
                       08 A8     7C  0026   139 	CLRQ	FAB$L_STS(R8)
   00000000'9F            01     A8  0029   140 	BISW2	S^#1@PIO$V_INHAST,@#PIO$GW_STATUS ;DISABLE ASTS
            59         02 A8     3C  0030   141 	MOVZWL	FAB$W_IFI(R8),R9	;SET R9 = IFI VALUE
                                 05  0034   142 	RSB
RM0FABCHK       COMMON FAB CHECKING                              21-AUG-1978 21:21:22   VAX-11 MACRO X0.3-11               Page   5
006             RM$FABCHK  -  COMMON ARGLIST AND FAB VALIDATION                                                                  (1)

                                     0035   144
                                     0035   145 ;
                                     0035   146 ;  AN ERROR HAS OCCURRED IN VALIDATING THE ARGUMENT LIST OR FAB
                                     0035   147 ;
                                     0035   148 ;  SINCE AN ERROR CODE CANNOT BE SAFELY STORED IN THE FAB,
                                     0035   149 ;  NO ATTEMPT TO GENERATE AN ERR= AST WILL BE MADE.
                                     0035   150 ;  R0 WILL BE SET TO THE APPROPRIATE ERROR CODE AND AN
                                     0035   151 ;  EXCEPTION, IF ENABLED, WILL BE GENERATED UPON RET.
                                     0035   152 ;
                                     0035   153 ;
                                     0035   154 ERRFAB:	$PSECT_BR	L$RMS0
                          FFC8'  31  0035       		BRW	L$RMS00
                                     0038       		.SAVE
                                 00000000       		.PSECT	L$RMS0,GBL,NOWRT
                                     0000       L$RMS00:
                          06     10  0000   155 	BSBB	ERR
                                     0002   156 	RMSERR_WORD	FAB			;INVALID FAB
                               850C  0002       		.WORD	RMS$_FAB&^XFFFF
                                     0004   157 	$PSECT_RESTORE
                                 00000038       		.RESTORE
                                     0038   158 ERRBLN:	$PSECT_BR	L$RMS0
                          FFC9'  31  0038       		BRW	L$RMS01
                                     003B       		.SAVE
                                 00000004       		.PSECT	L$RMS0,GBL,NOWRT
                                     0004       L$RMS01:
                          02     10  0004   159 	BSBB	ERR
                                     0006   160 	RMSERR_WORD	BLN			;INVALID BLOCK LENGTH
                               842C  0006       		.WORD	RMS$_BLN&^XFFFF
                                     0008   161 ;
                          FFF5'  31  0008   162 ERR:	BRW	RM$BASIC_ERR		;GO RETURN TO USER
                                     000B   163 	$PSECT_RESTORE
                                 0000003B       		.RESTORE
                                     003B   164
                                     003B   165 	.END
RM0FABCHK       COMMON FAB CHECKING                              21-AUG-1978 21:21:22   VAX-11 MACRO X0.3-11               Page   6
SYMBOL TABLE                                                                                                                     (1)

$$.PSECT_EP    = 00000002            FAB$M_DMO      = 00001000            FAB$V_GET      = 00000001
$$RMSTEST      = 0000001A            FAB$M_ESC      = 08000000            FAB$V_INP      = 00000013
$$RMS_PBUGCHK  = 00000010            FAB$M_EXE      = 00000080            FAB$V_JNL      = 00000016
$$RMS_TBUGCHK  = 00000008            FAB$M_FTN      = 00000001            FAB$V_KFO      = 0000001E
$$RMS_UMODE    = 00000004            FAB$M_GET      = 00000002            FAB$V_MSE      = 00000004
BIT...         = 0001C134            FAB$M_INP      = 00080000            FAB$V_MXV      = 00000001
ERR              00000008 R     04   FAB$M_JNL      = 00400000            FAB$V_NAM      = 00000018
ERRBLN           00000038 R     02   FAB$M_KFO      = 40000000            FAB$V_NEF      = 0000000A
ERRFAB           00000035 R     02   FAB$M_MSE      = 00000010            FAB$V_NFS      = 00000010
FAB$B_BID        00000000            FAB$M_MXV      = 00000002            FAB$V_NIL      = 00000005
FAB$B_BKS        0000003E            FAB$M_NAM      = 01000000            FAB$V_OFP      = 0000001D
FAB$B_BLN        00000001            FAB$M_NEF      = 00000400            FAB$V_ORG      = 00000004
FAB$B_DNS        00000035            FAB$M_NFS      = 00010000            FAB$V_POS      = 00000008
FAB$B_FAC        00000016            FAB$M_NIL      = 00000020            FAB$V_PPF      = 00000012
FAB$B_FNS        00000034            FAB$M_OFP      = 20000000            FAB$V_PPF_IND  = 0000000E
FAB$B_FSZ        0000003F            FAB$M_POS      = 00000100            FAB$V_PPF_RAT  = 00000006
FAB$B_ORG        0000001D            FAB$M_PPF      = 00040000            FAB$V_PRN      = 00000002
FAB$B_RAT        0000001E            FAB$M_PPF_IND  = 00004000            FAB$V_PUT      = 00000000
FAB$B_RFM        0000001F            FAB$M_PPF_RAT  = 00003FC0            FAB$V_RCK      = 00000017
FAB$B_RTV        0000001C            FAB$M_PRN      = 00000004            FAB$V_RWC      = 0000000B
FAB$B_SHR        00000017            FAB$M_PUT      = 00000001            FAB$V_RWO      = 00000007
FAB$C_BID      = 00000003            FAB$M_RCK      = 00800000            FAB$V_SCF      = 0000000E
FAB$C_BLN        00000050            FAB$M_RWC      = 00000800            FAB$V_SHRDEL   = 00000002
FAB$C_FIX      = 00000001            FAB$M_RWO      = 00000080            FAB$V_SHRGET   = 00000001
FAB$C_HSH      = 00000030            FAB$M_SCF      = 00004000            FAB$V_SHRPUT   = 00000000
FAB$C_IDX      = 00000020            FAB$M_SHRDEL   = 00000004            FAB$V_SHRUPD   = 00000003
FAB$C_MAXRFM   = 00000003            FAB$M_SHRGET   = 00000002            FAB$V_SPL      = 0000000D
FAB$C_REL      = 00000010            FAB$M_SHRPUT   = 00000001            FAB$V_SQO      = 00000006
FAB$C_RFM_DFLT = 00000002            FAB$M_SHRUPD   = 00000008            FAB$V_SUP      = 00000002
FAB$C_SEQ      = 00000000            FAB$M_SPL      = 00002000            FAB$V_TEF      = 0000001C
FAB$C_UDF      = 00000000            FAB$M_SQO      = 00000040            FAB$V_TMD      = 00000004
FAB$C_VAR      = 00000002            FAB$M_SUP      = 00000004            FAB$V_TMP      = 00000003
FAB$C_VFC      = 00000003            FAB$M_TEF      = 10000000            FAB$V_TRN      = 00000004
FAB$K_BLN        00000050            FAB$M_TMD      = 00000010            FAB$V_UFM      = 0000001A
FAB$L_ALQ        00000010            FAB$M_TMP      = 00000008            FAB$V_UFO      = 00000011
FAB$L_CTX        00000018            FAB$M_TRN      = 00000010            FAB$V_UPD      = 00000003
FAB$L_DEV        00000040            FAB$M_UFM      = 04000000            FAB$V_UPI      = 00000006
FAB$L_DNA        00000030            FAB$M_UFO      = 00020000            FAB$V_WCK      = 00000009
FAB$L_FNA        0000002C            FAB$M_UPD      = 00000008            FAB$W_BLS        0000003C
FAB$L_FOP        00000004            FAB$M_UPI      = 00000040            FAB$W_DEQ        00000014
FAB$L_JNL        00000020            FAB$M_WCK      = 00000200            FAB$W_IFI        00000002
FAB$L_MRN        00000038            FAB$S_ORG      = 00000004            FAB$W_MRS        00000036
FAB$L_NAM        00000028            FAB$S_PPF_RAT  = 00000008            GBL...         = 00000000
FAB$L_SDC        00000044            FAB$V_BIO      = 00000005            L$RMS00          00000000 R     04
FAB$L_STS        00000008            FAB$V_BLK      = 00000003            L$RMS01          00000004 R     04
FAB$L_STV        0000000C            FAB$V_BRO      = 00000006            PIO$GW_IIOIMPA   ********   X   02
FAB$L_XAB        00000024            FAB$V_CBT      = 00000015            PIO$GW_STATUS    ********   X   02
FAB$M_BIO      = 00000020            FAB$V_CIF      = 00000019            PIO$V_EOD      = 00000001
FAB$M_BLK      = 00000008            FAB$V_CR       = 00000001            PIO$V_INHAST   = 00000000
FAB$M_BRO      = 00000040            FAB$V_CTG      = 00000014            PIO$V_SYNC1    = 00000002
FAB$M_CBT      = 00200000            FAB$V_DEL      = 00000002            PIO$V_SYNC2    = 00000003
FAB$M_CIF      = 02000000            FAB$V_DFW      = 00000005            PSL$C_EXEC     = 00000001
FAB$M_CR       = 00000002            FAB$V_DLT      = 0000000F            PSL$C_KERNEL   = 00000000
FAB$M_CTG      = 00100000            FAB$V_DMO      = 0000000C            PSL$C_SUPER    = 00000002
FAB$M_DEL      = 00000004            FAB$V_ESC      = 0000001B            PSL$C_USER     = 00000003
FAB$M_DFW      = 00000020            FAB$V_EXE      = 00000007            PSL$M_CM       = 80000000
FAB$M_DLT      = 00008000            FAB$V_FTN      = 00000000            PSL$M_CURMOD   = 03000000
RM0FABCHK       COMMON FAB CHECKING                              21-AUG-1978 21:21:22   VAX-11 MACRO X0.3-11               Page   7
SYMBOL TABLE                                                                                                                     (1)

PSL$M_DV       = 00000080            RMS$_CHK       = 000184A4            RMS$_LAN       = 000185AC
PSL$M_FPD      = 08000000            RMS$_CHN       = 0001C0EC            RMS$_LBL       = 000185B4
PSL$M_FU       = 00000040            RMS$_COD       = 000184AC            RMS$_LNE       = 000185BC
PSL$M_IPL      = 001F0000            RMS$_CONTROLC  = 00010651            RMS$_LOC       = 000185C4
PSL$M_IS       = 04000000            RMS$_CONTROLO  = 00010609            RMS$_MBC       = 00018734
PSL$M_IV       = 00000020            RMS$_CONTROLY  = 00010611            RMS$_MKD       = 0001C032
PSL$M_PRVMOD   = 00C00000            RMS$_CRE       = 0001C00A            RMS$_MRN       = 000185CC
PSL$M_SAFBITS  = 000037FF            RMS$_CREATED   = 00010619            RMS$_MRS       = 000185D4
PSL$M_TBIT     = 00000010            RMS$_CUR       = 000184B4            RMS$_NAM       = 000185DC
PSL$M_TP       = 40000000            RMS$_DAC       = 0001C012            RMS$_NEF       = 000185E4
PSL$S_CURMOD   = 00000002            RMS$_DAN       = 000184BC            RMS$_NET       = 0001874C
PSL$S_IPL      = 00000005            RMS$_DEL       = 00018262            RMS$_NID       = 000185EC
PSL$S_PRVMOD   = 00000002            RMS$_DEV       = 000184C4            RMS$_NMF       = 000182CA
PSL$V_CM       = 0000001F            RMS$_DIR       = 000184CC            RMS$_NOD       = 000185F4
PSL$V_CURMOD   = 00000018            RMS$_DME       = 000184D4            RMS$_NORMAL    = 00010001
PSL$V_DV       = 00000007            RMS$_DNA       = 000184DC            RMS$_NPK       = 000185FC
PSL$V_FPD      = 0000001B            RMS$_DNF       = 0001C04A            RMS$_OK_ALK    = 00018039
PSL$V_FU       = 00000006            RMS$_DNR       = 00018272            RMS$_OK_DEL    = 00018041
PSL$V_IPL      = 00000010            RMS$_DPE       = 0001C03A            RMS$_OK_DUP    = 00018011
PSL$V_IS       = 0000001A            RMS$_DTP       = 000184E4            RMS$_OK_IDX    = 00018019
PSL$V_IV       = 00000005            RMS$_DUP       = 000184EC            RMS$_OK_LIM    = 00018051
PSL$V_PRVMOD   = 00000016            RMS$_DVI       = 000184F4            RMS$_OK_RLK    = 00018021
PSL$V_TBIT     = 00000004            RMS$_ENT       = 0001C01A            RMS$_OK_RNF    = 00018049
PSL$V_TP       = 0000001E            RMS$_ENV       = 00018724            RMS$_OK_RRV    = 00018029
RM$BASIC_ERR     ********   X   04   RMS$_EOF       = 0001827A            RMS$_ORD       = 00018604
RM$FABCHK        00000000 RG    02   RMS$_ESA       = 000184FC            RMS$_ORG       = 0001860C
RMS$V_STVSTATUS= 0000000E            RMS$_ESL       = 00018714            RMS$_PBF       = 00018614
RMS$_ABO       = 000183EC            RMS$_ESS       = 00018504            RMS$_PENDING   = 00018009
RMS$_ACC       = 0001C002            RMS$_EXP       = 000182C2            RMS$_PLG       = 0001861C
RMS$_ACT       = 0001825A            RMS$_EXT       = 0001C022            RMS$_PLV       = 0001872C
RMS$_AID       = 000183F4            RMS$_FAB       = 0001850C            RMS$_POS       = 00018624
RMS$_ALN       = 000183FC            RMS$_FAC       = 00018514            RMS$_PRM       = 0001862C
RMS$_ALQ       = 00018404            RMS$_FEX       = 00018282            RMS$_PRV       = 0001829A
RMS$_ANI       = 0001840C            RMS$_FLG       = 0001851C            RMS$_QUO       = 00018634
RMS$_AOP       = 00018414            RMS$_FLK       = 0001828A            RMS$_RAB       = 0001863C
RMS$_ATR       = 0001C0CC            RMS$_FNA       = 00018524            RMS$_RAC       = 00018644
RMS$_ATW       = 0001C0D4            RMS$_FND       = 0001C02A            RMS$_RAT       = 0001864C
RMS$_BKS       = 0001841C            RMS$_FNF       = 00018292            RMS$_RBF       = 00018654
RMS$_BKZ       = 00018424            RMS$_FNM       = 0001852C            RMS$_RER       = 0001C0F4
RMS$_BLN       = 0001842C            RMS$_FOP       = 0001853C            RMS$_REX       = 000182A2
RMS$_BOF       = 00018198            RMS$_FSZ       = 00018534            RMS$_RFA       = 0001865C
RMS$_BUG       = 00018434            RMS$_FUL       = 00018544            RMS$_RFM       = 00018664
RMS$_BUG_DAP   = 00018444            RMS$_IAL       = 0001854C            RMS$_RHB       = 0001866C
RMS$_BUG_DDI   = 0001843C            RMS$_IAN       = 00018554            RMS$_RLF       = 00018674
RMS$_BUG_XX2   = 0001844C            RMS$_IBF       = 00018754            RMS$_RLK       = 000182AA
RMS$_BUG_XX3   = 00018454            RMS$_IDX       = 0001855C            RMS$_RMV       = 0001C0FC
RMS$_BUG_XX4   = 0001845C            RMS$_IFA       = 0001C124            RMS$_RNF       = 000182B2
RMS$_BUG_XX5   = 00018464            RMS$_IFI       = 00018564            RMS$_RNL       = 000181A0
RMS$_BUG_XX6   = 0001846C            RMS$_IMX       = 0001856C            RMS$_ROP       = 0001867C
RMS$_BUG_XX7   = 00018474            RMS$_IOP       = 00018574            RMS$_RPL       = 0001C104
RMS$_BUG_XX8   = 0001847C            RMS$_IRC       = 0001857C            RMS$_RRV       = 00018684
RMS$_BUG_XX9   = 00018484            RMS$_ISI       = 00018584            RMS$_RSA       = 000182DA
RMS$_CAA       = 0001848C            RMS$_KBF       = 0001858C            RMS$_RSL       = 0001873C
RMS$_CCF       = 0001C0DC            RMS$_KEY       = 00018594            RMS$_RSS       = 00018694
RMS$_CCR       = 00018494            RMS$_KFF       = 00018031            RMS$_RST       = 0001869C
RMS$_CDA       = 0001C0E4            RMS$_KRF       = 0001859C            RMS$_RSZ       = 000186A4
RMS$_CHG       = 0001849C            RMS$_KSZ       = 000185A4            RMS$_RTB       = 000181A8
RM0FABCHK       COMMON FAB CHECKING                              21-AUG-1978 21:21:22   VAX-11 MACRO X0.3-11               Page   8
SYMBOL TABLE                                                                                                                     (1)

RMS$_SEQ       = 000186AC
RMS$_SHR       = 000186B4
RMS$_SIZ       = 000186BC
RMS$_SPL       = 0001C042
RMS$_SQO       = 000186C4
RMS$_STALL     = 00018001
RMS$_STK       = 000186CC
RMS$_SUC       = 00010001
RMS$_SUP       = 000182D2
RMS$_SUPERSEDE = 00010631
RMS$_SYN       = 000186D4
RMS$_SYS       = 0001C10C
RMS$_TEMP1     = 0001826A
RMS$_TEMP2     = 0001868C
RMS$_TMO       = 000181B0
RMS$_TRE       = 000186DC
RMS$_TYP       = 000186E4
RMS$_UBF       = 000186EC
RMS$_USZ       = 000186F4
RMS$_VER       = 000186FC
RMS$_VOL       = 00018704
RMS$_WBE       = 0001C12C
RMS$_WER       = 0001C114
RMS$_WLD       = 00018744
RMS$_WLK       = 000182BA
RMS$_WPL       = 0001C11C
RMS$_WSF       = 0001871C
RMS$_XAB       = 0001870C


PROGRAM SECTION SYNOPSIS

.  ABS  .        00000000      00     NOPIC   USR   CON   ABS   LCL NOSHR NOEXE NORD  NOWRT BYTE
. BLANK .        00000000      01     NOPIC   USR   CON   REL   LCL NOSHR   EXE   RD    WRT BYTE
F$RMSCOM         0000003B      02     NOPIC   USR   CON   REL   GBL NOSHR   EXE   RD  NOWRT BYTE
$ABS$            00000050      03     NOPIC   USR   CON   ABS   LCL NOSHR   EXE   RD    WRT BYTE
L$RMS0           0000000B      04     NOPIC   USR   CON   REL   GBL NOSHR   EXE   RD  NOWRT BYTE


THERE WERE NO ERRORS OR WARNINGS.
15474. BYTES LEFT IN FREE MEMORY POOL.
3032. BYTES OF RECLAIMED MEMORY.
OBJ$:RM0FABCHK,LIS$:RM0FABCHK/-SP=EXECML$/ML,LIB$:R/ML,SRC$:RM0FABCHK
27 MLB DIR RDS - 590 GETS TO DEFINE 20 MACROS. 45 INTER. FILE WRITES.
