RM0IFISI        IFAB AND IRAB INDEX TABLE ROUTINES               21-AUG-1978 21:25:45   VAX-11 MACRO X0.3-11               Page   0
TABLE OF CONTENTS

   (1)      45  DECLARATIONS
   (1)      69  RM$GTIADR  -  INDEX TO TABLE ADDRESS CONVERSION
   (1)     156  RM$GTSLT  -  INDEX TABLE SLOT ALLOCATION ROUTIN
RM0IFISI        IFAB AND IRAB INDEX TABLE ROUTINES               21-AUG-1978 21:25:45   VAX-11 MACRO X0.3-11               Page   1
011                                                                                                                              (1)

                                     0000     1 	$BEGIN	RM0IFISI,011,$RMS0A,<IFAB AND IRAB INDEX TABLE ROUTINES>,-
                                     0000     2 		<NOWRT,QUAD>
                                     0000     3
                                     0000     4
                                     0000     5 ;
                                     0000     6 ; COPYRIGHT (C) 1976
                                     0000     7 ; DIGITAL EQUIPMENT CORPORATION, MAYNARD, MASSACHUSETTS 01754
                                     0000     8 ;
                                     0000     9 ; THIS SOFTWARE IS FURNISHED  UNDER A LICENSE FOR USE ONLY ON A SINGLE
                                     0000    10 ; COMPUTER  SYSTEM AND  MAY BE  COPIED ONLY WITH  THE INCLUSION OF THE
                                     0000    11 ; ABOVE COPYRIGHT NOTICE.  THIS SOFTWARE, OR ANY OTHER COPIES THEREOF,
                                     0000    12 ; MAY NOT BE PROVIDED OR  OTHERWISE MADE AVAILABLE TO ANY OTHER PERSON
                                     0000    13 ; EXCEPT FOR USE ON SUCH SYSTEM AND TO ONE WHO AGREES TO THESE LICENSE
                                     0000    14 ; TERMS.  TITLE TO AND  OWNERSHIP OF THE  SOFTWARE  SHALL AT ALL TIMES
                                     0000    15 ; REMAIN IN DEC.
                                     0000    16 ;
                                     0000    17 ; THE INFORMATION IN THIS SOFTWARE IS SUBJECT TO CHANGE WITHOUT NOTICE
                                     0000    18 ; AND SHOULD  NOT BE CONSTRUED  AS A COMMITMENT  BY DIGITAL  EQUIPMENT
                                     0000    19 ; CORPORATION.
                                     0000    20 ;
                                     0000    21 ; DEC ASSUMES  NO  RESPONSIBILITY  FOR  THE USE OR  RELIABILITY OF ITS
                                     0000    22 ; SOFTWARE ON EQUIPMENT WHICH IS NOT SUPPLIED BY DEC.
                                     0000    23
                                     0000    24 ;++
                                     0000    25 ; FACILITY: RMS32
                                     0000    26 ;
                                     0000    27 ; ABSTRACT:
                                     0000    28 ;		THIS MODULE CONTAINS THE ROUTINES TO ALLOCATE
                                     0000    29 ;		IFAB AND IRAB INDEX TABLE SLOTS AND TO RETURN
                                     0000    30 ;		THE IFAB OR IRAB ADDRESS FROM AN IFI OR ISI
                                     0000    31 ;		VALUE RESPECTIVELY.
                                     0000    32 ;
                                     0000    33 ; ENVIRONMENT:
                                     0000    34 ;		STAR PROCESSOR RUNNING STARLET EXEC.
                                     0000    35 ;
                                     0000    36 ; AUTHOR: L F LAVERDURE	,CREATION DATE: 3-JAN-77
                                     0000    37 ;
                                     0000    38 ; MODIFIED BY:
                                     0000    39 ;
                                     0000    40 ;	L F LAVERDURE,      11-AUG-78  18:38	; QUAD-WORD ALIGN PSECT
                                     0000    41 ;	L F LAVERDURE,   11-MAY-78  13:57
                                     0000    42 ; 01	-
                                     0000    43 ;--
RM0IFISI        IFAB AND IRAB INDEX TABLE ROUTINES               21-AUG-1978 21:25:45   VAX-11 MACRO X0.3-11               Page   2
011             DECLARATIONS                                                                                                     (1)

                                     0000    45 	.SBTTL	DECLARATIONS
                                     0000    46 ;
                                     0000    47 ; INCLUDE FILES:
                                     0000    48 ;
                                     0000    49
                                     0000    50 ;
                                     0000    51 ; MACROS:
                                     0000    52 ;
                                     0000    53 	$FABDEF
                                     0000    54 	$RABDEF
                                     0000    55 	$IMPDEF
                                     0000    56 	$PSLDEF
                                     0000    57 	$RMSDEF
                                     0000    58 	.LIST MEB
                                     0000    59
                                     0000    60 ;
                                     0000    61 ; EQUATED SYMBOLS:
                                     0000    62 ;
                                     0000    63
                                     0000    64 ;
                                     0000    65 ; OWN STORAGE:
                                     0000    66 ;
                                     0000    67
RM0IFISI        IFAB AND IRAB INDEX TABLE ROUTINES               21-AUG-1978 21:25:45   VAX-11 MACRO X0.3-11               Page   3
011             RM$GTIADR  -  INDEX TO TABLE ADDRESS CONVERSION                                                                  (1)

                                     0000    69 	.SBTTL	RM$GTIADR  -  INDEX TO TABLE ADDRESS CONVERSION ROUTINE
                                     0000    70 ;++
                                     0000    71 ; FUNCTIONAL DESCRIPTION:
                                     0000    72 ;
                                     0000    73 ;  THIS SUBROUTINE CONVERTS AN IFI OR ISI TABLE INDEX VALUE
                                     0000    74 ;  INTO THE ADDRESS OF THE RELATED IFAB OR IRAB RESPECTIVELY.
                                     0000    75 ;
                                     0000    76 ; CALLING SEQUENCE:
                                     0000    77 ;
                                     0000    78 ;	BSBW	RM$GTIADR
                                     0000    79 ;
                                     0000    80 ; INPUT PARAMETERS:
                                     0000    81 ;
                                     0000    82 ;	R11	IMAGE IMPURE AREA ADDRESS
                                     0000    83 ;	R9	INDEX VALUE (IFI OR ISI)
                                     0000    84 ;	R7	MODE OF CALLER (ONLY IF IFI OR ISI INDICATES DIRECT
                                     0000    85 ;				ACCESS TO A PROCESS PERMANENT FILE)
                                     0000    86 ;	R0	IFAB OR IRAB INDEX TABLE OFFSET / 4
                                     0000    87 ;
                                     0000    88 ; IMPLICIT INPUTS:
                                     0000    89 ;
                                     0000    90 ;	NONE
                                     0000    91 ;
                                     0000    92 ; OUTPUT PARAMETERS:
                                     0000    93 ;
                                     0000    94 ;	R9	IFAB OR IRAB ADDRESS
                                     0000    95 ;	R0	DESTROYED
                                     0000    96 ;
                                     0000    97 ;    IF IFI OR ISI < 0 AND NOT USER MODE:
                                     0000    98 ;
                                     0000    99 ;	R11	PROCESS I/O IMPURE AREA ADDR
                                     0000   100 ;
                                     0000   101 ; IMPLICIT OUTPUTS:
                                     0000   102 ;
                                     0000   103 ;	NONE
                                     0000   104 ;
                                     0000   105 ; COMPLETION CODES:
                                     0000   106 ;
                                     0000   107 ;	Z-BIT SET IF INVALID IFI OR ISI, CLEAR OTHERWISE.
                                     0000   108 ;
                                     0000   109 ; SIDE EFFECTS:
                                     0000   110 ;
                                     0000   111 ;	NONE
                                     0000   112 ;
                                     0000   113 ;--
                                     0000   114 RM$GTIADR::
                          59     B5  0000   115 	TSTW	R9			;NON-STANDARD IFI/ISI?
                          19     15  0002   116 	BLEQ	50$			;BRANCH IF PPF FORMAT OR ZERO
            50            6B40   D0  0004   117 5$:	MOVL	(R11)[R0],R0		;GET TABLE ADDR
         20 AB            59     B1  0008   118 10$:	CMPW	R9,IMP$W_ENTPERSEG(R11)	;IN THIS TABLE SEGMENT?
                          05     1A  000C   119 	BGTRU	30$			;BRANCH IF NOT
            59            6049   D0  000E   120 	MOVL	(R0)[R9],R9		;SET IFAB/IRAB ADDR
                                     0012   121 					;NOTE: MAY BE ZERO.
                                 05  0012   122 	RSB
                                     0013   123 ;
                                     0013   124 ;  THE INPUT IFI/ISI VALUE DOES NOT MAP TO THIS SEGMENT
                                     0013   125 ;  OF THE INDEX TABLE  -  TRY THE NEXT SEGMENT
RM0IFISI        IFAB AND IRAB INDEX TABLE ROUTINES               21-AUG-1978 21:25:45   VAX-11 MACRO X0.3-11               Page   4
011             RM$GTIADR  -  INDEX TO TABLE ADDRESS CONVERSION                                                                  (1)

                                     0013   126 ;
            59         20 AB     A2  0013   127 30$:	SUBW2	IMP$W_ENTPERSEG(R11),R9	;REDUCE THE INDEX VALUE
            50            60     D0  0017   128 	MOVL	(R0),R0			;GET LINK TO NEXT TABLE SEG
                          EC     12  001A   129 	BNEQ	10$			;AND KEEP TRYING, IF ANY MORE
                                 05  001C   130 40$:	RSB				;RETURN WITH Z-BIT SET
                                     001D   131 ;
                                     001D   132 ;  A NEGATIVE ISI OR IFI HAS BEEN INPUT.
                                     001D   133 ;
                                     001D   134 ;  2 VALID CASES EXIST, DEPENDING UPON THE STATE OF BIT 14:
                                     001D   135 ;	- (BIT 14=0) - A NON-USER MODE CALLER DESIRES TO OPERATE
                                     001D   136 ;		       ON THE PPF DIRECTLY
                                     001D   137 ;	- (BIT 14=1) - A CALLER DESIRES TO OPERATE ON THE PPF INDIRECTLY
                                     001D   138 ;
                                     001D   139 ;  IF ACCESS ALLOWED SWITCH TO THE PROCESS PERMANENT FILES IFAB OR
                                     001D   140 ;  IRAB TABLE IN THE PROCESS I/O SEGMENT.
                                     001D   141 ;
                          FD     13  001D   142 50$:	BEQL	40$			;BRANCH IF ZERO IFI/ISI (ERROR)
            59            0E     E0  001F   143 	BBS	#FAB$V_PPF_IND,R9,55$	;BRANCH IF INDIRECT ACCESS
                          05         0022
            03            57     91  0023   144 	CMPB	R7,#PSL$C_USER		;DIRECT ACCESS ATTEMPT FROM USER MODE?
                          0E     13  0026   145 	BEQL	60$			;ERROR IF USER
            5B   00000000'9F     DE  0028   146 55$:	MOVAL	@#PIO$GW_PIOIMPA,R11	;SWITCH IMPURE POINTERS
            59       FFC0 8F     AA  002F   147 	BICW2	#<<1@RAB$V_PPF_RAT>-1> \ <<1@16>-1>,R9 ;CLEAR ALL BUT TABLE INDEX
                          CE     12  0034   148 	BNEQ	5$			;AND CONTINUE IF NON-ZERO
                                     0036   149 ;
                                     0036   150 ;  USER ATTEMPTING DIRECT ACCESS TO A PROCESS PERMANENT FILE
                                     0036   151 ;  OR HAS A BAD ISI VALUE
                                     0036   152 ;
                          59     D4  0036   153 60$:	CLRL	R9			;IT'S A NO-NO
                                 05  0038   154 	RSB
RM0IFISI        IFAB AND IRAB INDEX TABLE ROUTINES               21-AUG-1978 21:25:45   VAX-11 MACRO X0.3-11               Page   5
011             RM$GTSLT  -  INDEX TABLE SLOT ALLOCATION ROUTIN                                                                  (1)

                                     0039   156 	.SBTTL RM$GTSLT  -  INDEX TABLE SLOT ALLOCATION ROUTINE
                                     0039   157 ;++
                                     0039   158 ;  FUNCTIONAL DESCRIPTION:
                                     0039   159 ;
                                     0039   160 ;  THIS ROUTINE SCANS THE IFAB OR IRAB INDEX TABLE FOR
                                     0039   161 ;  AN EMPTY SLOT AND IF FOUND SETS THE SLOT TO THE ASSOCIATED
                                     0039   162 ;  IFAB OR IRAB ADDRESS, RETURNING THE INDEX VALUE OF THE SLOT.
                                     0039   163 ;
                                     0039   164 ;  CALLING SEQUENCE:
                                     0039   165 ;
                                     0039   166 ;	BSBW	RM$GTSLT
                                     0039   167 ;
                                     0039   168 ;  INPUT PARAMETERS:
                                     0039   169 ;
                                     0039   170 ;	R11	PROCESS OR IMAGE IMPURE AREA ADDRESS
                                     0039   171 ;	R9	IFAB OR IRAB ADDRESS
                                     0039   172 ;	R5	IFAB OR IRAB INDEX TABLE START ADDRESS
                                     0039   173 ;
                                     0039   174 ;  IMPLICIT INPUTS:
                                     0039   175 ;
                                     0039   176 ;	NONE
                                     0039   177 ;
                                     0039   178 ;  OUTPUT PARAMETERS:
                                     0039   179 ;
                                     0039   180 ;	R6	TABLE INDEX VALUE (I.E., IFI OR ISI)
                                     0039   181 ;	R0	STATUS CODE
                                     0039   182 ;	R1,R2,R3,R4,R5 DESTROYED
                                     0039   183 ;
                                     0039   184 ;  IMPLICIT OUTPUTS:
                                     0039   185 ;
                                     0039   186 ;	THE ALLOCATED TABLE SLOT IS SET TO THE CONTENTS OF R9.
                                     0039   187 ;
                                     0039   188 ;  COMPLETION CODES:
                                     0039   189 ;
                                     0039   190 ;	STANDARD RMS, IN PARTICULAR, SUCCESS OR DME.
                                     0039   191 ;
                                     0039   192 ;  SIDE EFFECTS:
                                     0039   193 ;
                                     0039   194 ;	NONE
                                     0039   195 ;
                                     0039   196 ;--
                                 00000000   197 	.PSECT	F$RMSOPEN0,GBL,NOWRT
                                     0000   198
                                     0000   199 RM$GTSLT::
                          56     D4  0000   200 	CLRL	R6			;BUILD INDEX VALUE HERE
            51            55     D0  0002   201 10$:	MOVL	R5,R1			;LEAVE R5 POINTING TO LINK
            50         20 AB     3C  0005   202 	MOVZWL	IMP$W_ENTPERSEG(R11),R0	;# ENTRIES PER TABLE SEGMENT
                          81     D5  0009   203 15$:	TSTL	(R1)+			;SKIP LINK
                          56     D6  000B   204 20$:	INCL	R6			;BUMP INDEX
                          81     D5  000D   205 	TSTL	(R1)+			;ZERO SLOT?
                          2B     13  000F   206 	BEQL	50$			;BRANCH IF YES - GO USE IT
            F7            50     F5  0011   207 	SOBGTR	R0,20$			;KEEP SCANNING SEGMENT
                                     0014   208 ;
                                     0014   209 ;  NO FREE SLOTS THIS TABLE SEGMENT  -  TRY NEXT IF ANY
                                     0014   210 ;
                          65     D5  0014   211 	TSTL	(R5)			;ANOTHER SEGMENT?
                          05     13  0016   212 	BEQL	30$			;BRANCH IF NONE
RM0IFISI        IFAB AND IRAB INDEX TABLE ROUTINES               21-AUG-1978 21:25:45   VAX-11 MACRO X0.3-11               Page   6
011             RM$GTSLT  -  INDEX TABLE SLOT ALLOCATION ROUTIN                                                                  (1)

            55            65     D0  0018   213 	MOVL	(R5),R5			;UPDATE LINK
                          E5     11  001B   214 	BRB	10$
RM0IFISI        IFAB AND IRAB INDEX TABLE ROUTINES               21-AUG-1978 21:25:45   VAX-11 MACRO X0.3-11               Page   7
011             RM$GTSLT  -  INDEX TABLE SLOT ALLOCATION ROUTIN                                                                  (1)

                                     001D   216 ;
                                     001D   217 ;  NO FREE SLOTS IN EXISTING SEGMENTS.
                                     001D   218 ;  IF PROCESS I/O SEGMENT, RETURN AN ERROR, OTHERWISE
                                     001D   219 ;  ADD A SEGMENT TO THE TABLE.
                                     001D   220 ;
                                     001D   221 	ASSUME	IMP$W_RMSSTATUS EQ 0
                                     001D   222 	ASSUME	IMP$V_IIOS EQ 0
            2D            6B     E9  001D   223 30$:	BLBC	(R11),ERRDME		;BRANCH IF PIO SEGMENT
            51   00000000'9F     DE  0020   224 	MOVAL	@#PIO$GL_IIOFSPLH,R1	;IMPURE AREA ADDR
            52         20 AB     3C  0027   225 	MOVZWL	IMP$W_ENTPERSEG(R11),R2	;# ENTRIES
                          52     D6  002B   226 	INCL	R2			;+1 = # LONGWORDS
            52            02     78  002D   227 	ASHL	#2,R2,R2		;= # BYTES REQUIRED
                          52         0030
                          FFCC'  30  0031   228 	BSBW	RM$GETSPC_ALT		;GET THIS MUCH SPACE
            15            50     E9  0034   229 	BLBC	R0,RETURN		;BRANCH IF NO SPACE
                                     0037   230 ;
                                     0037   231 ;  LINK IN THE NEW SEGMENT AND GO BACK AND USE IT
                                     0037   232 ;
            65            51     D0  0037   233 	MOVL	R1,(R5)			;UPDATE THE OLD LINK
                          CD     11  003A   234 	BRB	15$			;AND GO USE
                                     003C   235 ;
                                     003C   236 ;
                                     003C   237 ;  FOUND A FREE SLOT
                                     003C   238 ;  STORE THE IFAB OR IRAB ADDRESS IN THE SLOT AND RETURN
                                     003C   239 ;
            71            59     D0  003C   240 50$:	MOVL	R9,-(R1)		;STORE STRUCTURE ADDRESS
                       22 AB     B6  003F   241 	INCW	IMP$W_NUM_IFABS(R11)	;COUNT # IFABS IN USE
                                     0042   242 ;
                                     0042   243 ;  FLAG THE IFI OR ISI VALUE IF THIS IS THE PROCESS I/O SEGMENT
                                     0042   244 ;
                                     0042   245 	ASSUME	IMP$W_RMSSTATUS EQ 0
                                     0042   246 	ASSUME	IMP$V_IIOS EQ 0
            04            6B     E8  0042   247 	BLBS	(R11),60$		;BRANCH IF IMAGE I/O SEGMENT
                                     0045   248 	SSB	#15,R6			;SET PIO SEGMENT FLAG
            56            0F     E2  0045       		BBSS	#15,R6,30000$
                          00         0048
                                     0049       30000$:
                                     0049   249 60$:	RMSSUC
            50            01     D0  0049       		MOVL	#1,R0
                                 05  004C   250 RETURN:	RSB
                                     004D   251 ;
                                     004D   252 ;
                                     004D   253 ;
                                     004D   254 ;  COULDN'T ALLOCATE ANOTHER PAGE FOR NEW IRAB OR IFAB
                                     004D   255 ;  TABLE SEGMENT BECAUSE IN PROCESS I/O SEGMENT
                                     004D   256 ;
                                     004D   257 ERRDME:	$PSECT_BR	L$RMS0
                          FFB0'  31  004D       		BRW	L$RMS00
                                     0050       		.SAVE
                                 00000000       		.PSECT	L$RMS0,GBL,NOWRT
                                     0000       L$RMS00:
                                     0000   258 	RMSERR	DME
            50       84D4 8F     3C  0000       		MOVZWL	#<RMS$_DME&^XFFFF>,R0
                                 05  0005   259 	RSB
                                     0006   260 	$PSECT_RESTORE
                                 00000050       		.RESTORE
                                     0050   261
RM0IFISI        IFAB AND IRAB INDEX TABLE ROUTINES               21-AUG-1978 21:25:45   VAX-11 MACRO X0.3-11               Page   8
011             RM$GTSLT  -  INDEX TABLE SLOT ALLOCATION ROUTIN                                                                  (1)

                                     0050   262 	.END
RM0IFISI        IFAB AND IRAB INDEX TABLE ROUTINES               21-AUG-1978 21:25:45   VAX-11 MACRO X0.3-11               Page   9
SYMBOL TABLE                                                                                                                     (1)

$$.PSECT_EP    = 00000001            FAB$M_EXE      = 00000080            FAB$V_JNL      = 00000016
$$RMSTEST      = 0000001A            FAB$M_FTN      = 00000001            FAB$V_KFO      = 0000001E
$$RMS_PBUGCHK  = 00000010            FAB$M_GET      = 00000002            FAB$V_MSE      = 00000004
$$RMS_TBUGCHK  = 00000008            FAB$M_INP      = 00080000            FAB$V_MXV      = 00000001
$$RMS_UMODE    = 00000004            FAB$M_JNL      = 00400000            FAB$V_NAM      = 00000018
BIT...         = 0001C134            FAB$M_KFO      = 40000000            FAB$V_NEF      = 0000000A
ERRDME           0000004D R     04   FAB$M_MSE      = 00000010            FAB$V_NFS      = 00000010
FAB$B_BID        00000000            FAB$M_MXV      = 00000002            FAB$V_NIL      = 00000005
FAB$B_BKS        0000003E            FAB$M_NAM      = 01000000            FAB$V_OFP      = 0000001D
FAB$B_BLN        00000001            FAB$M_NEF      = 00000400            FAB$V_ORG      = 00000004
FAB$B_DNS        00000035            FAB$M_NFS      = 00010000            FAB$V_POS      = 00000008
FAB$B_FAC        00000016            FAB$M_NIL      = 00000020            FAB$V_PPF      = 00000012
FAB$B_FNS        00000034            FAB$M_OFP      = 20000000            FAB$V_PPF_IND  = 0000000E
FAB$B_FSZ        0000003F            FAB$M_POS      = 00000100            FAB$V_PPF_RAT  = 00000006
FAB$B_ORG        0000001D            FAB$M_PPF      = 00040000            FAB$V_PRN      = 00000002
FAB$B_RAT        0000001E            FAB$M_PPF_IND  = 00004000            FAB$V_PUT      = 00000000
FAB$B_RFM        0000001F            FAB$M_PPF_RAT  = 00003FC0            FAB$V_RCK      = 00000017
FAB$B_RTV        0000001C            FAB$M_PRN      = 00000004            FAB$V_RWC      = 0000000B
FAB$B_SHR        00000017            FAB$M_PUT      = 00000001            FAB$V_RWO      = 00000007
FAB$C_BID      = 00000003            FAB$M_RCK      = 00800000            FAB$V_SCF      = 0000000E
FAB$C_BLN        00000050            FAB$M_RWC      = 00000800            FAB$V_SHRDEL   = 00000002
FAB$C_FIX      = 00000001            FAB$M_RWO      = 00000080            FAB$V_SHRGET   = 00000001
FAB$C_HSH      = 00000030            FAB$M_SCF      = 00004000            FAB$V_SHRPUT   = 00000000
FAB$C_IDX      = 00000020            FAB$M_SHRDEL   = 00000004            FAB$V_SHRUPD   = 00000003
FAB$C_MAXRFM   = 00000003            FAB$M_SHRGET   = 00000002            FAB$V_SPL      = 0000000D
FAB$C_REL      = 00000010            FAB$M_SHRPUT   = 00000001            FAB$V_SQO      = 00000006
FAB$C_RFM_DFLT = 00000002            FAB$M_SHRUPD   = 00000008            FAB$V_SUP      = 00000002
FAB$C_SEQ      = 00000000            FAB$M_SPL      = 00002000            FAB$V_TEF      = 0000001C
FAB$C_UDF      = 00000000            FAB$M_SQO      = 00000040            FAB$V_TMD      = 00000004
FAB$C_VAR      = 00000002            FAB$M_SUP      = 00000004            FAB$V_TMP      = 00000003
FAB$C_VFC      = 00000003            FAB$M_TEF      = 10000000            FAB$V_TRN      = 00000004
FAB$K_BLN        00000050            FAB$M_TMD      = 00000010            FAB$V_UFM      = 0000001A
FAB$L_ALQ        00000010            FAB$M_TMP      = 00000008            FAB$V_UFO      = 00000011
FAB$L_CTX        00000018            FAB$M_TRN      = 00000010            FAB$V_UPD      = 00000003
FAB$L_DEV        00000040            FAB$M_UFM      = 04000000            FAB$V_UPI      = 00000006
FAB$L_DNA        00000030            FAB$M_UFO      = 00020000            FAB$V_WCK      = 00000009
FAB$L_FNA        0000002C            FAB$M_UPD      = 00000008            FAB$W_BLS        0000003C
FAB$L_FOP        00000004            FAB$M_UPI      = 00000040            FAB$W_DEQ        00000014
FAB$L_JNL        00000020            FAB$M_WCK      = 00000200            FAB$W_IFI        00000002
FAB$L_MRN        00000038            FAB$S_ORG      = 00000004            FAB$W_MRS        00000036
FAB$L_NAM        00000028            FAB$S_PPF_RAT  = 00000008            GBL...         = 00000000
FAB$L_SDC        00000044            FAB$V_BIO      = 00000005            IMP$B_PROT       00000002
FAB$L_STS        00000008            FAB$V_BLK      = 00000003            IMP$C_ASYEFN   = 0000001E
FAB$L_STV        0000000C            FAB$V_BRO      = 00000006            IMP$C_ASYQIOEFN= 0000001F
FAB$L_XAB        00000024            FAB$V_CBT      = 00000015            IMP$C_ENTPERSEG= 0000000F
FAB$M_BIO      = 00000020            FAB$V_CIF      = 00000019            IMP$C_IOREFN   = 0000001E
FAB$M_BLK      = 00000008            FAB$V_CR       = 00000001            IMP$C_MBXEFN   = 0000001A
FAB$M_BRO      = 00000040            FAB$V_CTG      = 00000014            IMP$C_NPIOFILES= 0000000C
FAB$M_CBT      = 00200000            FAB$V_DEL      = 00000002            IMP$C_SYNCEFN  = 0000001B
FAB$M_CIF      = 02000000            FAB$V_DFW      = 00000005            IMP$L_FREEPGLH   0000000C
FAB$M_CR       = 00000002            FAB$V_DLT      = 0000000F            IMP$L_IFABTBL    00000018
FAB$M_CTG      = 00100000            FAB$V_DMO      = 0000000C            IMP$L_IFBTBLINK  00000024
FAB$M_DEL      = 00000004            FAB$V_ESC      = 0000001B            IMP$L_IOSEGADDR  00000004
FAB$M_DFW      = 00000020            FAB$V_EXE      = 00000007            IMP$L_IOSEGLEN   00000008
FAB$M_DLT      = 00008000            FAB$V_FTN      = 00000000            IMP$L_IRABTBL    0000001C
FAB$M_DMO      = 00001000            FAB$V_GET      = 00000001            IMP$L_IRBTBLINK  00000064
FAB$M_ESC      = 08000000            FAB$V_INP      = 00000013            IMP$L_SAVED_SP   00000014
RM0IFISI        IFAB AND IRAB INDEX TABLE ROUTINES               21-AUG-1978 21:25:45   VAX-11 MACRO X0.3-11               Page  10
SYMBOL TABLE                                                                                                                     (1)

IMP$V_AST      = 00000001            RAB$C_RFA      = 00000002            RAB$V_LOC      = 00000010
IMP$V_IIOS     = 00000000            RAB$C_SEQ      = 00000000            RAB$V_MAS      = 00000005
IMP$V_IORUNDOWN= 00000004            RAB$K_BLN        00000044            RAB$V_NLK      = 00000014
IMP$V_NOP0BUFS = 00000005            RAB$L_BKT        00000038            RAB$V_NXR      = 00000017
IMP$V_TEMP1    = 00000002            RAB$L_CTX        00000018            RAB$V_PMT      = 0000001E
IMP$V_TEMP2    = 00000003            RAB$L_DCT        00000038            RAB$V_PPF_IND  = 0000000E
IMP$W_ENTPERSEG  00000020            RAB$L_FAB        0000003C            RAB$V_PPF_RAT  = 00000006
IMP$W_NUM_IFABS  00000022            RAB$L_KBF        00000030            RAB$V_PTA      = 0000001D
IMP$W_RMSSTATUS  00000000            RAB$L_PBF        00000030            RAB$V_RAH      = 00000009
L$RMS00          00000000 R     05   RAB$L_RBF        00000028            RAB$V_RLK      = 00000013
PIO$GL_IIOFSPLH  ********   X   04   RAB$L_RFA0       00000010            RAB$V_RNE      = 00000018
PIO$GW_PIOIMPA   ********   X   02   RAB$L_RHB        0000002C            RAB$V_RNF      = 0000001B
PSL$C_EXEC     = 00000001            RAB$L_ROP        00000004            RAB$V_TMO      = 00000019
PSL$C_KERNEL   = 00000000            RAB$L_STS        00000008            RAB$V_TPT      = 00000001
PSL$C_SUPER    = 00000002            RAB$L_STV        0000000C            RAB$V_UIF      = 00000004
PSL$C_USER     = 00000003            RAB$L_UBF        00000024            RAB$V_ULK      = 00000012
PSL$M_CM       = 80000000            RAB$M_ASY      = 00000001            RAB$V_WAT      = 00000011
PSL$M_CURMOD   = 03000000            RAB$M_BIO      = 00000800            RAB$V_WBH      = 0000000A
PSL$M_DV       = 00000080            RAB$M_CCO      = 80000000            RAB$W_ISI        00000002
PSL$M_FPD      = 08000000            RAB$M_CVT      = 04000000            RAB$W_RFA        00000010
PSL$M_FU       = 00000040            RAB$M_EOF      = 00000100            RAB$W_RFA4       00000014
PSL$M_IPL      = 001F0000            RAB$M_FDL      = 00000040            RAB$W_RSZ        00000022
PSL$M_IS       = 04000000            RAB$M_HSH      = 00000080            RAB$W_USZ        00000020
PSL$M_IV       = 00000020            RAB$M_KGE      = 00200000            RETURN           0000004C R     04
PSL$M_PRVMOD   = 00C00000            RAB$M_KGT      = 00400000            RM$GETSPC_ALT    ********   X   04
PSL$M_SAFBITS  = 000037FF            RAB$M_LIM      = 00004000            RM$GTIADR        00000000 RG    02
PSL$M_TBIT     = 00000010            RAB$M_LOA      = 00002000            RM$GTSLT         00000000 RG    04
PSL$M_TP       = 40000000            RAB$M_LOC      = 00010000            RMS$V_STVSTATUS= 0000000E
PSL$S_CURMOD   = 00000002            RAB$M_MAS      = 00000020            RMS$_ABO       = 000183EC
PSL$S_IPL      = 00000005            RAB$M_NLK      = 00100000            RMS$_ACC       = 0001C002
PSL$S_PRVMOD   = 00000002            RAB$M_NXR      = 00800000            RMS$_ACT       = 0001825A
PSL$V_CM       = 0000001F            RAB$M_PMT      = 40000000            RMS$_AID       = 000183F4
PSL$V_CURMOD   = 00000018            RAB$M_PPF_IND  = 00004000            RMS$_ALN       = 000183FC
PSL$V_DV       = 00000007            RAB$M_PPF_RAT  = 00003FC0            RMS$_ALQ       = 00018404
PSL$V_FPD      = 0000001B            RAB$M_PTA      = 20000000            RMS$_ANI       = 0001840C
PSL$V_FU       = 00000006            RAB$M_RAH      = 00000200            RMS$_AOP       = 00018414
PSL$V_IPL      = 00000010            RAB$M_RLK      = 00080000            RMS$_ATR       = 0001C0CC
PSL$V_IS       = 0000001A            RAB$M_RNE      = 01000000            RMS$_ATW       = 0001C0D4
PSL$V_IV       = 00000005            RAB$M_RNF      = 08000000            RMS$_BKS       = 0001841C
PSL$V_PRVMOD   = 00000016            RAB$M_TMO      = 02000000            RMS$_BKZ       = 00018424
PSL$V_TBIT     = 00000004            RAB$M_TPT      = 00000002            RMS$_BLN       = 0001842C
PSL$V_TP       = 0000001E            RAB$M_UIF      = 00000010            RMS$_BOF       = 00018198
RAB$B_BID        00000000            RAB$M_ULK      = 00040000            RMS$_BUG       = 00018434
RAB$B_BLN        00000001            RAB$M_WAT      = 00020000            RMS$_BUG_DAP   = 00018444
RAB$B_KRF        00000035            RAB$M_WBH      = 00000400            RMS$_BUG_DDI   = 0001843C
RAB$B_KSZ        00000034            RAB$S_PPF_RAT  = 00000008            RMS$_BUG_XX2   = 0001844C
RAB$B_MBC        00000037            RAB$V_ASY      = 00000000            RMS$_BUG_XX3   = 00018454
RAB$B_MBF        00000036            RAB$V_BIO      = 0000000B            RMS$_BUG_XX4   = 0001845C
RAB$B_PSZ        00000034            RAB$V_CCO      = 0000001F            RMS$_BUG_XX5   = 00018464
RAB$B_RAC        0000001E            RAB$V_CVT      = 0000001A            RMS$_BUG_XX6   = 0001846C
RAB$B_ROP1       00000005            RAB$V_EOF      = 00000008            RMS$_BUG_XX7   = 00018474
RAB$B_ROP2       00000006            RAB$V_FDL      = 00000006            RMS$_BUG_XX8   = 0001847C
RAB$B_ROP3       00000007            RAB$V_HSH      = 00000007            RMS$_BUG_XX9   = 00018484
RAB$B_TMO        0000001F            RAB$V_KGE      = 00000015            RMS$_CAA       = 0001848C
RAB$C_BID      = 00000001            RAB$V_KGT      = 00000016            RMS$_CCF       = 0001C0DC
RAB$C_BLN        00000044            RAB$V_LIM      = 0000000E            RMS$_CCR       = 00018494
RAB$C_KEY      = 00000001            RAB$V_LOA      = 0000000D            RMS$_CDA       = 0001C0E4
RM0IFISI        IFAB AND IRAB INDEX TABLE ROUTINES               21-AUG-1978 21:25:45   VAX-11 MACRO X0.3-11               Page  11
SYMBOL TABLE                                                                                                                     (1)

RMS$_CHG       = 0001849C            RMS$_KSZ       = 000185A4            RMS$_RTB       = 000181A8
RMS$_CHK       = 000184A4            RMS$_LAN       = 000185AC            RMS$_SEQ       = 000186AC
RMS$_CHN       = 0001C0EC            RMS$_LBL       = 000185B4            RMS$_SHR       = 000186B4
RMS$_COD       = 000184AC            RMS$_LNE       = 000185BC            RMS$_SIZ       = 000186BC
RMS$_CONTROLC  = 00010651            RMS$_LOC       = 000185C4            RMS$_SPL       = 0001C042
RMS$_CONTROLO  = 00010609            RMS$_MBC       = 00018734            RMS$_SQO       = 000186C4
RMS$_CONTROLY  = 00010611            RMS$_MKD       = 0001C032            RMS$_STALL     = 00018001
RMS$_CRE       = 0001C00A            RMS$_MRN       = 000185CC            RMS$_STK       = 000186CC
RMS$_CREATED   = 00010619            RMS$_MRS       = 000185D4            RMS$_SUC       = 00010001
RMS$_CUR       = 000184B4            RMS$_NAM       = 000185DC            RMS$_SUP       = 000182D2
RMS$_DAC       = 0001C012            RMS$_NEF       = 000185E4            RMS$_SUPERSEDE = 00010631
RMS$_DAN       = 000184BC            RMS$_NET       = 0001874C            RMS$_SYN       = 000186D4
RMS$_DEL       = 00018262            RMS$_NID       = 000185EC            RMS$_SYS       = 0001C10C
RMS$_DEV       = 000184C4            RMS$_NMF       = 000182CA            RMS$_TEMP1     = 0001826A
RMS$_DIR       = 000184CC            RMS$_NOD       = 000185F4            RMS$_TEMP2     = 0001868C
RMS$_DME       = 000184D4            RMS$_NORMAL    = 00010001            RMS$_TMO       = 000181B0
RMS$_DNA       = 000184DC            RMS$_NPK       = 000185FC            RMS$_TRE       = 000186DC
RMS$_DNF       = 0001C04A            RMS$_OK_ALK    = 00018039            RMS$_TYP       = 000186E4
RMS$_DNR       = 00018272            RMS$_OK_DEL    = 00018041            RMS$_UBF       = 000186EC
RMS$_DPE       = 0001C03A            RMS$_OK_DUP    = 00018011            RMS$_USZ       = 000186F4
RMS$_DTP       = 000184E4            RMS$_OK_IDX    = 00018019            RMS$_VER       = 000186FC
RMS$_DUP       = 000184EC            RMS$_OK_LIM    = 00018051            RMS$_VOL       = 00018704
RMS$_DVI       = 000184F4            RMS$_OK_RLK    = 00018021            RMS$_WBE       = 0001C12C
RMS$_ENT       = 0001C01A            RMS$_OK_RNF    = 00018049            RMS$_WER       = 0001C114
RMS$_ENV       = 00018724            RMS$_OK_RRV    = 00018029            RMS$_WLD       = 00018744
RMS$_EOF       = 0001827A            RMS$_ORD       = 00018604            RMS$_WLK       = 000182BA
RMS$_ESA       = 000184FC            RMS$_ORG       = 0001860C            RMS$_WPL       = 0001C11C
RMS$_ESL       = 00018714            RMS$_PBF       = 00018614            RMS$_WSF       = 0001871C
RMS$_ESS       = 00018504            RMS$_PENDING   = 00018009            RMS$_XAB       = 0001870C
RMS$_EXP       = 000182C2            RMS$_PLG       = 0001861C
RMS$_EXT       = 0001C022            RMS$_PLV       = 0001872C
RMS$_FAB       = 0001850C            RMS$_POS       = 00018624
RMS$_FAC       = 00018514            RMS$_PRM       = 0001862C
RMS$_FEX       = 00018282            RMS$_PRV       = 0001829A
RMS$_FLG       = 0001851C            RMS$_QUO       = 00018634
RMS$_FLK       = 0001828A            RMS$_RAB       = 0001863C
RMS$_FNA       = 00018524            RMS$_RAC       = 00018644
RMS$_FND       = 0001C02A            RMS$_RAT       = 0001864C
RMS$_FNF       = 00018292            RMS$_RBF       = 00018654
RMS$_FNM       = 0001852C            RMS$_RER       = 0001C0F4
RMS$_FOP       = 0001853C            RMS$_REX       = 000182A2
RMS$_FSZ       = 00018534            RMS$_RFA       = 0001865C
RMS$_FUL       = 00018544            RMS$_RFM       = 00018664
RMS$_IAL       = 0001854C            RMS$_RHB       = 0001866C
RMS$_IAN       = 00018554            RMS$_RLF       = 00018674
RMS$_IBF       = 00018754            RMS$_RLK       = 000182AA
RMS$_IDX       = 0001855C            RMS$_RMV       = 0001C0FC
RMS$_IFA       = 0001C124            RMS$_RNF       = 000182B2
RMS$_IFI       = 00018564            RMS$_RNL       = 000181A0
RMS$_IMX       = 0001856C            RMS$_ROP       = 0001867C
RMS$_IOP       = 00018574            RMS$_RPL       = 0001C104
RMS$_IRC       = 0001857C            RMS$_RRV       = 00018684
RMS$_ISI       = 00018584            RMS$_RSA       = 000182DA
RMS$_KBF       = 0001858C            RMS$_RSL       = 0001873C
RMS$_KEY       = 00018594            RMS$_RSS       = 00018694
RMS$_KFF       = 00018031            RMS$_RST       = 0001869C
RMS$_KRF       = 0001859C            RMS$_RSZ       = 000186A4
RM0IFISI        IFAB AND IRAB INDEX TABLE ROUTINES               21-AUG-1978 21:25:45   VAX-11 MACRO X0.3-11               Page  12
PROGRAM SECTION SYNOPSIS                                                                                                         (1)


PROGRAM SECTION SYNOPSIS

.  ABS  .        00000000      00     NOPIC   USR   CON   ABS   LCL NOSHR NOEXE NORD  NOWRT BYTE
. BLANK .        00000000      01     NOPIC   USR   CON   REL   LCL NOSHR   EXE   RD    WRT BYTE
$RMS0A           00000039      02     NOPIC   USR   CON   REL   GBL NOSHR   EXE   RD  NOWRT QUAD
$ABS$            00000068      03     NOPIC   USR   CON   ABS   LCL NOSHR   EXE   RD    WRT BYTE
F$RMSOPEN0       00000050      04     NOPIC   USR   CON   REL   GBL NOSHR   EXE   RD  NOWRT BYTE
L$RMS0           00000006      05     NOPIC   USR   CON   REL   GBL NOSHR   EXE   RD  NOWRT BYTE


THERE WERE NO ERRORS OR WARNINGS.
12692. BYTES LEFT IN FREE MEMORY POOL.
2816. BYTES OF RECLAIMED MEMORY.
OBJ$:RM0IFISI,LIS$:RM0IFISI/-SP=EXECML$/ML,LIB$:R/ML,SRC$:RM0IFISI
28 MLB DIR RDS - 767 GETS TO DEFINE 23 MACROS. 59 INTER. FILE WRITES.
