RM0RABCHK       COMMON RAB CHECKING                              21-AUG-1978 21:27:35   VAX-11 MACRO X0.3-11               Page   0
TABLE OF CONTENTS

   (1)      41  DECLARATIONS
   (1)      64  RM$RABCHK  -  COMMON ARGLIST AND RAB VALIDATION
RM0RABCHK       COMMON RAB CHECKING                              21-AUG-1978 21:27:35   VAX-11 MACRO X0.3-11               Page   1
008                                                                                                                              (1)

                                     0000     1 	$BEGIN RM0RABCHK,008,$RMS0B,<COMMON RAB CHECKING>,<NOWRT,QUAD>
                                     0000     2
                                     0000     3
                                     0000     4 ;
                                     0000     5 ; COPYRIGHT (C) 1977
                                     0000     6 ; DIGITAL EQUIPMENT CORPORATION, MAYNARD, MASSACHUSETTS 01754
                                     0000     7 ;
                                     0000     8 ; THIS SOFTWARE IS FURNISHED  UNDER A LICENSE FOR USE ONLY ON A SINGLE
                                     0000     9 ; COMPUTER  SYSTEM AND  MAY BE  COPIED ONLY WITH  THE INCLUSION OF THE
                                     0000    10 ; ABOVE COPYRIGHT NOTICE.  THIS SOFTWARE, OR ANY OTHER COPIES THEREOF,
                                     0000    11 ; MAY NOT BE PROVIDED OR  OTHERWISE MADE AVAILABLE TO ANY OTHER PERSON
                                     0000    12 ; EXCEPT FOR USE ON SUCH SYSTEM AND TO ONE WHO AGREES TO THESE LICENSE
                                     0000    13 ; TERMS.  TITLE TO AND  OWNERSHIP OF THE  SOFTWARE  SHALL AT ALL TIMES
                                     0000    14 ; REMAIN IN DEC.
                                     0000    15 ;
                                     0000    16 ; THE INFORMATION IN THIS SOFTWARE IS SUBJECT TO CHANGE WITHOUT NOTICE
                                     0000    17 ; AND SHOULD  NOT BE CONSTRUED  AS A COMMITMENT  BY DIGITAL  EQUIPMENT
                                     0000    18 ; CORPORATION.
                                     0000    19 ;
                                     0000    20 ; DEC ASSUMES  NO  RESPONSIBILITY  FOR  THE USE OR  RELIABILITY OF ITS
                                     0000    21 ; SOFTWARE ON EQUIPMENT WHICH IS NOT SUPPLIED BY DEC.
                                     0000    22
                                     0000    23 ;++
                                     0000    24 ; FACILITY: RMS32
                                     0000    25 ;
                                     0000    26 ; ABSTRACT:
                                     0000    27 ;		THIS ROUTINE PERFORMS COMMON RAB CALL ARGUMENT
                                     0000    28 ;		LIST AND RAB VALIDATION.
                                     0000    29 ;
                                     0000    30 ; ENVIRONMENT:
                                     0000    31 ;		STAR PROCESSOR RUNNING STARLET EXEC.
                                     0000    32 ;
                                     0000    33 ; AUTHOR: L F LAVERDURE,	 CREATION DATE: 4-JAN-77
                                     0000    34 ;
                                     0000    35 ; MODIFIED BY:
                                     0000    36 ;
                                     0000    37 ;	L F LAVERDURE,   11-MAY-78  13:57
                                     0000    38 ; 01	-
                                     0000    39 ;--
RM0RABCHK       COMMON RAB CHECKING                              21-AUG-1978 21:27:35   VAX-11 MACRO X0.3-11               Page   2
008             DECLARATIONS                                                                                                     (1)

                                     0000    41 	.SBTTL	DECLARATIONS
                                     0000    42 ;
                                     0000    43 ; INCLUDE FILES:
                                     0000    44 ;
                                     0000    45
                                     0000    46 ;
                                     0000    47 ; MACROS:
                                     0000    48 ;
                                     0000    49 	$PIODEF
                                     0000    50 	$PSLDEF
                                     0000    51 	$RABDEF
                                     0000    52 	$RMSDEF
                                     0000    53 	.LIST MEB
                                     0000    54
                                     0000    55 ;
                                     0000    56 ; EQUATED SYMBOLS:
                                     0000    57 ;
                                     0000    58
                                     0000    59 ;
                                     0000    60 ; OWN STORAGE:
                                     0000    61 ;
                                     0000    62
RM0RABCHK       COMMON RAB CHECKING                              21-AUG-1978 21:27:35   VAX-11 MACRO X0.3-11               Page   3
008             RM$RABCHK  -  COMMON ARGLIST AND RAB VALIDATION                                                                  (1)

                                     0000    64 	.SBTTL RM$RABCHK  -  COMMON ARGLIST AND RAB VALIDATION ROUTINE
                                     0000    65 ;++
                                     0000    66 ; FUNCTIONAL DESCRIPTION:
                                     0000    67 ;
                                     0000    68 ;  THIS ROUTINE PERFORMS THE FOLLOWING FUNCTIONS:
                                     0000    69 ;
                                     0000    70 ;	1. SETUP R11 TO POINT TO THE IMAGE I/O IMPURE AREA
                                     0000    71 ;	   (MAY BE CHANGED BY RMS0CONN OR RM0IFISI)
                                     0000    72 ;	2. CHECK ARGUMENT LIST FOR ACCESSIBILITY AND VALIDITY
                                     0000    73 ;	3. CHECK RAB FOR ACCESSIBILITY AND VALIDITY
                                     0000    74 ;	4. SET R8 TO ADDRESS OF RAB
                                     0000    75 ;	5. INHIBIT RMS INTERNAL ASTS
                                     0000    76 ;	6. SET R9 TO THE VALUE OF ISI
                                     0000    77 ;
                                     0000    78 ;
                                     0000    79 ;
                                     0000    80 ; CALLING SEQUENCE:
                                     0000    81 ;
                                     0000    82 ;	BSBW	RM$RABCHK
                                     0000    83 ;
                                     0000    84 ; INPUT PARAMETERS:
                                     0000    85 ;
                                     0000    86 ;	AP	ARGLIST ADDR
                                     0000    87 ;
                                     0000    88 ; IMPLICIT INPUTS:
                                     0000    89 ;
                                     0000    90 ;	THE CONTENTS OF THE ARGLIST AND THE BID, BLN, AND ISI FIELDS
                                     0000    91 ;	OF THE RAB.
                                     0000    92 ;
                                     0000    93 ; OUTPUT PARAMETERS:
                                     0000    94 ;
                                     0000    95 ;	R11	IMPURE AREA ADDRESS
                                     0000    96 ;	R9	ISI VALUE
                                     0000    97 ;	R8	RAB ADDRESS
                                     0000    98 ;	R7	MODE OF CALLER
                                     0000    99 ;
                                     0000   100 ; IMPLICIT OUTPUTS:
                                     0000   101 ;
                                     0000   102 ;	NONE
                                     0000   103 ;
                                     0000   104 ; COMPLETION CODES:
                                     0000   105 ;
                                     0000   106 ;	Z-BIT SET IF ISI = ZERO, ELSE CLEAR.
                                     0000   107 ;	IF ANY ERRORS, THE RMS ERROR CODE IS SET INTO R0
                                     0000   108 ;	AND RETURN IS MADE TO THE USER (NOT CALLER).
                                     0000   109 ;
                                     0000   110 ; SIDE EFFECTS:
                                     0000   111 ;
                                     0000   112 ;	RMS INTERNAL ASTS ARE INHIBITED.
                                     0000   113 ;
                                     0000   114 ;--
RM0RABCHK       COMMON RAB CHECKING                              21-AUG-1978 21:27:35   VAX-11 MACRO X0.3-11               Page   4
008             RM$RABCHK  -  COMMON ARGLIST AND RAB VALIDATION                                                                  (1)

                                     0000   116 ;++
                                     0000   117 ;
                                     0000   118 ;  SET UP POINTER TO IMAGE I/O IMPURE AREA AND SET R7 TO THE MODE OF THE CALLER
                                     0000   119 ;
                                     0000   120 ;--
                                     0000   121 RM$RABCHK::
                          5B     DC  0000   122 	MOVPSL	R11				;GET PSL
            02            16     EF  0002   123 	EXTZV	#PSL$V_PRVMOD,#PSL$S_PRVMOD,R11,R7
            57            5B         0005
                                     0007   124 						;EXTRACT THE PREVIOUS MODE
            5B   00000000'9F     DE  0007   125 	MOVAL	@#PIO$GW_IIOIMPA,R11		;IMAGE IO IMPURE AREA ADDR
                                     000E   126 ;++
                                     000E   127 ;
                                     000E   128 ;  PERFORM ACCESSIBILITY CHECKS
                                     000E   129 ;
                                     000E   130 ;--
            58         04 AC     D0  000E   131 	MOVL	4(AP),R8			;GET RAB ADDRESS
                                     0012   132 	IFNOWRT	#RAB$C_BLN,(R8),ERRRAB		;RAB WRITEABLE?
       0044 8F            00     0D  0012       		PROBEW	#0,#RAB$C_BLN,(R8)
                          68         0017
                          22     13  0018       		BEQL	ERRRAB
                                     001A   133 	ASSUME	RAB$B_BID EQ 0
                                     001A   134 	ASSUME	RAB$B_BLN EQ 1
       4401 8F            68     B1  001A   135 	CMPW	(R8),#RAB$C_BID+<RAB$C_BLN@8>	;RAB BLOCK ID & LENGTH?
                          0A     12  001F   136 	BNEQ	CHKRAB				;BRANCH IF PERHAPS NOT
       0000'CB            01     A8  0021   137 INHAST:	BISW2	S^#1@PIO$V_INHAST,W^<PIO$GW_STATUS-PIO$GW_IIOIMPA>(R11)
                                     0026   138 						;DISABLE ASTS
            59         02 A8     3C  0026   139 	MOVZWL	RAB$W_ISI(R8),R9		;SET R9 = ISI VALUE
                                     002A   140 ;++
                                     002A   141 ;
                                     002A   142 ;  DUMMY ROUTINE TO SIMPLY RETURN VIA AN RSB
                                     002A   143 ;
                                     002A   144 ;--
                                     002A   145 RM$NULL::
                                 05  002A   146 	RSB
                                     002B   147
                                     002B   148 ;++
                                     002B   149 ;
                                     002B   150 ;  MAKE LONGER VERSION OF RAB VALIDITY CHECK
                                     002B   151 ;
                                     002B   152 ;--
            01            68     91  002B   153 CHKRAB:	CMPB	(R8),#RAB$C_BID			;IS IT A RAB?
                          0C     12  002E   154 	BNEQ	ERRRAB
         44 8F         01 A8     91  0030   155 	CMPB	RAB$B_BLN(R8),#RAB$C_BLN	;IS IT LONG ENOUGH?
                          EA     1E  0035   156 	BGEQU	INHAST				;CONTINUE IF YES
                                     0037   157 						;ELSE FALL THRU TO ERROR
                          00     1F  0037   158 	BLSSU	ERRBLN
RM0RABCHK       COMMON RAB CHECKING                              21-AUG-1978 21:27:35   VAX-11 MACRO X0.3-11               Page   5
008             RM$RABCHK  -  COMMON ARGLIST AND RAB VALIDATION                                                                  (1)

                                     0039   160 ;++
                                     0039   161 ;
                                     0039   162 ;  AN ERROR HAS OCCURRED IN VALIDATING THE ARGUMENT LIST OR RAB
                                     0039   163 ;
                                     0039   164 ;  SINCE AN ERROR CODE CANNOT BE SAFELY STORED IN THE RAB,
                                     0039   165 ;  NO ATTEMPT TO GENERATE AN ERR= AST WILL BE MADE.
                                     0039   166 ;  R0 WILL BE SET TO THE APPROPRIATE ERROR CODE AND AN
                                     0039   167 ;  EXCEPTION, IF ENABLED, WILL BE GENERATED UPON RET.
                                     0039   168 ;
                                     0039   169 ;--
                                     0039   170 ERRBLN:	$PSECT_BR	L$RMS0
                          FFC4'  31  0039       		BRW	L$RMS00
                                     003C       		.SAVE
                                 00000000       		.PSECT	L$RMS0,GBL,NOWRT
                                     0000       L$RMS00:
                          06     10  0000   171 	BSBB	RM$BASIC_ERR
                                     0002   172 	RMSERR_WORD	BLN			;INVALID BLOCK LENGTH
                               842C  0002       		.WORD	RMS$_BLN&^XFFFF
                                     0004   173 	$PSECT_RESTORE
                                 0000003C       		.RESTORE
                                     003C   174 ;
                                     003C   175 ERRRAB:	$PSECT_BR	L$RMS0
                          FFC5'  31  003C       		BRW	L$RMS01
                                     003F       		.SAVE
                                 00000004       		.PSECT	L$RMS0,GBL,NOWRT
                                     0004       L$RMS01:
                          02     10  0004   176 	BSBB	RM$BASIC_ERR
                                     0006   177 	RMSERR_WORD	RAB			;INVALID RAB
                               863C  0006       		.WORD	RMS$_RAB&^XFFFF
                                     0008   178 ;
                                     0008   179 RM$BASIC_ERR::
            50            9E     3C  0008   180 	MOVZWL	@(SP)+,R0			;PICK UP ERROR CODE
                                     000B   181 	SSB	#16,R0				;AND PREFIX THE FACILITY CODE
            50            10     E2  000B       		BBSS	#16,R0,30000$
                          00         000E
                                     000F       30000$:
                                     000F   182 						;... TO THE ERROR CODE
                                 04  000F   183 	RET					;AND RETURN TO CALLER
                                     0010   184 						;EVERYTHING CLEANED UP MAGICALLY!
                                     0010   185 	$PSECT_RESTORE
                                 0000003F       		.RESTORE
                                     003F   186
                                     003F   187 	.END
RM0RABCHK       COMMON RAB CHECKING                              21-AUG-1978 21:27:35   VAX-11 MACRO X0.3-11               Page   6
SYMBOL TABLE                                                                                                                     (1)

$$.PSECT_EP    = 00000002            RAB$B_ROP1       00000005            RAB$V_EOF      = 00000008
$$RMSTEST      = 0000001A            RAB$B_ROP2       00000006            RAB$V_FDL      = 00000006
$$RMS_PBUGCHK  = 00000010            RAB$B_ROP3       00000007            RAB$V_HSH      = 00000007
$$RMS_TBUGCHK  = 00000008            RAB$B_TMO        0000001F            RAB$V_KGE      = 00000015
$$RMS_UMODE    = 00000004            RAB$C_BID      = 00000001            RAB$V_KGT      = 00000016
BIT...         = 0001C134            RAB$C_BLN        00000044            RAB$V_LIM      = 0000000E
CHKRAB           0000002B R     02   RAB$C_KEY      = 00000001            RAB$V_LOA      = 0000000D
ERRBLN           00000039 R     02   RAB$C_RFA      = 00000002            RAB$V_LOC      = 00000010
ERRRAB           0000003C R     02   RAB$C_SEQ      = 00000000            RAB$V_MAS      = 00000005
GBL...         = 00000000            RAB$K_BLN        00000044            RAB$V_NLK      = 00000014
INHAST           00000021 R     02   RAB$L_BKT        00000038            RAB$V_NXR      = 00000017
L$RMS00          00000000 R     04   RAB$L_CTX        00000018            RAB$V_PMT      = 0000001E
L$RMS01          00000004 R     04   RAB$L_DCT        00000038            RAB$V_PPF_IND  = 0000000E
PIO$GW_IIOIMPA   ********   X   02   RAB$L_FAB        0000003C            RAB$V_PPF_RAT  = 00000006
PIO$GW_STATUS    ********   X   02   RAB$L_KBF        00000030            RAB$V_PTA      = 0000001D
PIO$V_EOD      = 00000001            RAB$L_PBF        00000030            RAB$V_RAH      = 00000009
PIO$V_INHAST   = 00000000            RAB$L_RBF        00000028            RAB$V_RLK      = 00000013
PIO$V_SYNC1    = 00000002            RAB$L_RFA0       00000010            RAB$V_RNE      = 00000018
PIO$V_SYNC2    = 00000003            RAB$L_RHB        0000002C            RAB$V_RNF      = 0000001B
PSL$C_EXEC     = 00000001            RAB$L_ROP        00000004            RAB$V_TMO      = 00000019
PSL$C_KERNEL   = 00000000            RAB$L_STS        00000008            RAB$V_TPT      = 00000001
PSL$C_SUPER    = 00000002            RAB$L_STV        0000000C            RAB$V_UIF      = 00000004
PSL$C_USER     = 00000003            RAB$L_UBF        00000024            RAB$V_ULK      = 00000012
PSL$M_CM       = 80000000            RAB$M_ASY      = 00000001            RAB$V_WAT      = 00000011
PSL$M_CURMOD   = 03000000            RAB$M_BIO      = 00000800            RAB$V_WBH      = 0000000A
PSL$M_DV       = 00000080            RAB$M_CCO      = 80000000            RAB$W_ISI        00000002
PSL$M_FPD      = 08000000            RAB$M_CVT      = 04000000            RAB$W_RFA        00000010
PSL$M_FU       = 00000040            RAB$M_EOF      = 00000100            RAB$W_RFA4       00000014
PSL$M_IPL      = 001F0000            RAB$M_FDL      = 00000040            RAB$W_RSZ        00000022
PSL$M_IS       = 04000000            RAB$M_HSH      = 00000080            RAB$W_USZ        00000020
PSL$M_IV       = 00000020            RAB$M_KGE      = 00200000            RM$BASIC_ERR     00000008 RG    04
PSL$M_PRVMOD   = 00C00000            RAB$M_KGT      = 00400000            RM$NULL          0000002A RG    02
PSL$M_SAFBITS  = 000037FF            RAB$M_LIM      = 00004000            RM$RABCHK        00000000 RG    02
PSL$M_TBIT     = 00000010            RAB$M_LOA      = 00002000            RMS$V_STVSTATUS= 0000000E
PSL$M_TP       = 40000000            RAB$M_LOC      = 00010000            RMS$_ABO       = 000183EC
PSL$S_CURMOD   = 00000002            RAB$M_MAS      = 00000020            RMS$_ACC       = 0001C002
PSL$S_IPL      = 00000005            RAB$M_NLK      = 00100000            RMS$_ACT       = 0001825A
PSL$S_PRVMOD   = 00000002            RAB$M_NXR      = 00800000            RMS$_AID       = 000183F4
PSL$V_CM       = 0000001F            RAB$M_PMT      = 40000000            RMS$_ALN       = 000183FC
PSL$V_CURMOD   = 00000018            RAB$M_PPF_IND  = 00004000            RMS$_ALQ       = 00018404
PSL$V_DV       = 00000007            RAB$M_PPF_RAT  = 00003FC0            RMS$_ANI       = 0001840C
PSL$V_FPD      = 0000001B            RAB$M_PTA      = 20000000            RMS$_AOP       = 00018414
PSL$V_FU       = 00000006            RAB$M_RAH      = 00000200            RMS$_ATR       = 0001C0CC
PSL$V_IPL      = 00000010            RAB$M_RLK      = 00080000            RMS$_ATW       = 0001C0D4
PSL$V_IS       = 0000001A            RAB$M_RNE      = 01000000            RMS$_BKS       = 0001841C
PSL$V_IV       = 00000005            RAB$M_RNF      = 08000000            RMS$_BKZ       = 00018424
PSL$V_PRVMOD   = 00000016            RAB$M_TMO      = 02000000            RMS$_BLN       = 0001842C
PSL$V_TBIT     = 00000004            RAB$M_TPT      = 00000002            RMS$_BOF       = 00018198
PSL$V_TP       = 0000001E            RAB$M_UIF      = 00000010            RMS$_BUG       = 00018434
RAB$B_BID        00000000            RAB$M_ULK      = 00040000            RMS$_BUG_DAP   = 00018444
RAB$B_BLN        00000001            RAB$M_WAT      = 00020000            RMS$_BUG_DDI   = 0001843C
RAB$B_KRF        00000035            RAB$M_WBH      = 00000400            RMS$_BUG_XX2   = 0001844C
RAB$B_KSZ        00000034            RAB$S_PPF_RAT  = 00000008            RMS$_BUG_XX3   = 00018454
RAB$B_MBC        00000037            RAB$V_ASY      = 00000000            RMS$_BUG_XX4   = 0001845C
RAB$B_MBF        00000036            RAB$V_BIO      = 0000000B            RMS$_BUG_XX5   = 00018464
RAB$B_PSZ        00000034            RAB$V_CCO      = 0000001F            RMS$_BUG_XX6   = 0001846C
RAB$B_RAC        0000001E            RAB$V_CVT      = 0000001A            RMS$_BUG_XX7   = 00018474
RM0RABCHK       COMMON RAB CHECKING                              21-AUG-1978 21:27:35   VAX-11 MACRO X0.3-11               Page   7
SYMBOL TABLE                                                                                                                     (1)

RMS$_BUG_XX8   = 0001847C            RMS$_IRC       = 0001857C            RMS$_RRV       = 00018684
RMS$_BUG_XX9   = 00018484            RMS$_ISI       = 00018584            RMS$_RSA       = 000182DA
RMS$_CAA       = 0001848C            RMS$_KBF       = 0001858C            RMS$_RSL       = 0001873C
RMS$_CCF       = 0001C0DC            RMS$_KEY       = 00018594            RMS$_RSS       = 00018694
RMS$_CCR       = 00018494            RMS$_KFF       = 00018031            RMS$_RST       = 0001869C
RMS$_CDA       = 0001C0E4            RMS$_KRF       = 0001859C            RMS$_RSZ       = 000186A4
RMS$_CHG       = 0001849C            RMS$_KSZ       = 000185A4            RMS$_RTB       = 000181A8
RMS$_CHK       = 000184A4            RMS$_LAN       = 000185AC            RMS$_SEQ       = 000186AC
RMS$_CHN       = 0001C0EC            RMS$_LBL       = 000185B4            RMS$_SHR       = 000186B4
RMS$_COD       = 000184AC            RMS$_LNE       = 000185BC            RMS$_SIZ       = 000186BC
RMS$_CONTROLC  = 00010651            RMS$_LOC       = 000185C4            RMS$_SPL       = 0001C042
RMS$_CONTROLO  = 00010609            RMS$_MBC       = 00018734            RMS$_SQO       = 000186C4
RMS$_CONTROLY  = 00010611            RMS$_MKD       = 0001C032            RMS$_STALL     = 00018001
RMS$_CRE       = 0001C00A            RMS$_MRN       = 000185CC            RMS$_STK       = 000186CC
RMS$_CREATED   = 00010619            RMS$_MRS       = 000185D4            RMS$_SUC       = 00010001
RMS$_CUR       = 000184B4            RMS$_NAM       = 000185DC            RMS$_SUP       = 000182D2
RMS$_DAC       = 0001C012            RMS$_NEF       = 000185E4            RMS$_SUPERSEDE = 00010631
RMS$_DAN       = 000184BC            RMS$_NET       = 0001874C            RMS$_SYN       = 000186D4
RMS$_DEL       = 00018262            RMS$_NID       = 000185EC            RMS$_SYS       = 0001C10C
RMS$_DEV       = 000184C4            RMS$_NMF       = 000182CA            RMS$_TEMP1     = 0001826A
RMS$_DIR       = 000184CC            RMS$_NOD       = 000185F4            RMS$_TEMP2     = 0001868C
RMS$_DME       = 000184D4            RMS$_NORMAL    = 00010001            RMS$_TMO       = 000181B0
RMS$_DNA       = 000184DC            RMS$_NPK       = 000185FC            RMS$_TRE       = 000186DC
RMS$_DNF       = 0001C04A            RMS$_OK_ALK    = 00018039            RMS$_TYP       = 000186E4
RMS$_DNR       = 00018272            RMS$_OK_DEL    = 00018041            RMS$_UBF       = 000186EC
RMS$_DPE       = 0001C03A            RMS$_OK_DUP    = 00018011            RMS$_USZ       = 000186F4
RMS$_DTP       = 000184E4            RMS$_OK_IDX    = 00018019            RMS$_VER       = 000186FC
RMS$_DUP       = 000184EC            RMS$_OK_LIM    = 00018051            RMS$_VOL       = 00018704
RMS$_DVI       = 000184F4            RMS$_OK_RLK    = 00018021            RMS$_WBE       = 0001C12C
RMS$_ENT       = 0001C01A            RMS$_OK_RNF    = 00018049            RMS$_WER       = 0001C114
RMS$_ENV       = 00018724            RMS$_OK_RRV    = 00018029            RMS$_WLD       = 00018744
RMS$_EOF       = 0001827A            RMS$_ORD       = 00018604            RMS$_WLK       = 000182BA
RMS$_ESA       = 000184FC            RMS$_ORG       = 0001860C            RMS$_WPL       = 0001C11C
RMS$_ESL       = 00018714            RMS$_PBF       = 00018614            RMS$_WSF       = 0001871C
RMS$_ESS       = 00018504            RMS$_PENDING   = 00018009            RMS$_XAB       = 0001870C
RMS$_EXP       = 000182C2            RMS$_PLG       = 0001861C
RMS$_EXT       = 0001C022            RMS$_PLV       = 0001872C
RMS$_FAB       = 0001850C            RMS$_POS       = 00018624
RMS$_FAC       = 00018514            RMS$_PRM       = 0001862C
RMS$_FEX       = 00018282            RMS$_PRV       = 0001829A
RMS$_FLG       = 0001851C            RMS$_QUO       = 00018634
RMS$_FLK       = 0001828A            RMS$_RAB       = 0001863C
RMS$_FNA       = 00018524            RMS$_RAC       = 00018644
RMS$_FND       = 0001C02A            RMS$_RAT       = 0001864C
RMS$_FNF       = 00018292            RMS$_RBF       = 00018654
RMS$_FNM       = 0001852C            RMS$_RER       = 0001C0F4
RMS$_FOP       = 0001853C            RMS$_REX       = 000182A2
RMS$_FSZ       = 00018534            RMS$_RFA       = 0001865C
RMS$_FUL       = 00018544            RMS$_RFM       = 00018664
RMS$_IAL       = 0001854C            RMS$_RHB       = 0001866C
RMS$_IAN       = 00018554            RMS$_RLF       = 00018674
RMS$_IBF       = 00018754            RMS$_RLK       = 000182AA
RMS$_IDX       = 0001855C            RMS$_RMV       = 0001C0FC
RMS$_IFA       = 0001C124            RMS$_RNF       = 000182B2
RMS$_IFI       = 00018564            RMS$_RNL       = 000181A0
RMS$_IMX       = 0001856C            RMS$_ROP       = 0001867C
RMS$_IOP       = 00018574            RMS$_RPL       = 0001C104
RM0RABCHK       COMMON RAB CHECKING                              21-AUG-1978 21:27:35   VAX-11 MACRO X0.3-11               Page   8
PROGRAM SECTION SYNOPSIS                                                                                                         (1)


PROGRAM SECTION SYNOPSIS

.  ABS  .        00000000      00     NOPIC   USR   CON   ABS   LCL NOSHR NOEXE NORD  NOWRT BYTE
. BLANK .        00000000      01     NOPIC   USR   CON   REL   LCL NOSHR   EXE   RD    WRT BYTE
$RMS0B           0000003F      02     NOPIC   USR   CON   REL   GBL NOSHR   EXE   RD  NOWRT QUAD
$ABS$            00000044      03     NOPIC   USR   CON   ABS   LCL NOSHR   EXE   RD    WRT BYTE
L$RMS0           00000010      04     NOPIC   USR   CON   REL   GBL NOSHR   EXE   RD  NOWRT BYTE


THERE WERE NO ERRORS OR WARNINGS.
16434. BYTES LEFT IN FREE MEMORY POOL.
2996. BYTES OF RECLAIMED MEMORY.
OBJ$:RM0RABCHK,LIS$:RM0RABCHK/-SP=EXECML$/ML,LIB$:R/ML,SRC$:RM0RABCHK
27 MLB DIR RDS - 570 GETS TO DEFINE 21 MACROS. 39 INTER. FILE WRITES.
