RM1CREATE       SEQUENTIAL-SPECIFIC CREATE                       21-AUG-1978 21:38:11   VAX-11 MACRO X0.3-11               Page   0
TABLE OF CONTENTS

   (1)      43  DECLARATIONS
   (1)      67  RM$CREATE1  -  SEQUENTIAL CREATE ROUTINE
RM1CREATE       SEQUENTIAL-SPECIFIC CREATE                       21-AUG-1978 21:38:11   VAX-11 MACRO X0.3-11               Page   1
012                                                                                                                              (1)

                                     0000     1 	$BEGIN	RM1CREATE,012,F$RMSOPEN1C,<SEQUENTIAL-SPECIFIC CREATE>
                                     0000     2
                                     0000     3
                                     0000     4 ;
                                     0000     5 ; COPYRIGHT (C) 1977
                                     0000     6 ; DIGITAL EQUIPMENT CORPORATION, MAYNARD, MASSACHUSETTS 01754
                                     0000     7 ;
                                     0000     8 ; THIS SOFTWARE IS FURNISHED  UNDER A LICENSE FOR USE ONLY ON A SINGLE
                                     0000     9 ; COMPUTER  SYSTEM AND  MAY BE  COPIED ONLY WITH  THE INCLUSION OF THE
                                     0000    10 ; ABOVE COPYRIGHT NOTICE.  THIS SOFTWARE, OR ANY OTHER COPIES THEREOF,
                                     0000    11 ; MAY NOT BE PROVIDED OR  OTHERWISE MADE AVAILABLE TO ANY OTHER PERSON
                                     0000    12 ; EXCEPT FOR USE ON SUCH SYSTEM AND TO ONE WHO AGREES TO THESE LICENSE
                                     0000    13 ; TERMS.  TITLE TO AND  OWNERSHIP OF THE  SOFTWARE  SHALL AT ALL TIMES
                                     0000    14 ; REMAIN IN DEC.
                                     0000    15 ;
                                     0000    16 ; THE INFORMATION IN THIS SOFTWARE IS SUBJECT TO CHANGE WITHOUT NOTICE
                                     0000    17 ; AND SHOULD  NOT BE CONSTRUED  AS A COMMITMENT  BY DIGITAL  EQUIPMENT
                                     0000    18 ; CORPORATION.
                                     0000    19 ;
                                     0000    20 ; DEC ASSUMES  NO  RESPONSIBILITY  FOR  THE USE OR  RELIABILITY OF ITS
                                     0000    21 ; SOFTWARE ON EQUIPMENT WHICH IS NOT SUPPLIED BY DEC.
                                     0000    22 ;
                                     0000    23 ;++
                                     0000    24 ; FACILITY: RMS32
                                     0000    25 ;
                                     0000    26 ; ABSTRACT:
                                     0000    27 ;
                                     0000    28 ;	THIS ROUTINE PERFORMS THE SEQUENTIAL FILE
                                     0000    29 ;	ORGANIZATION-SPECIFIC CREATE PROCESSING.
                                     0000    30 ;
                                     0000    31 ; ENVIRONMENT:
                                     0000    32 ;		STAR PROCESSOR RUNNING STARLET EXEC.
                                     0000    33 ;
                                     0000    34 ; AUTHOR: L F LAVERDURE,	 CREATION DATE: 11-MAY-77
                                     0000    35 ;
                                     0000    36 ; MODIFIED BY:
                                     0000    37 ;
                                     0000    38 ;	R A NEWELL,      16-AUG-78  15:24	; PRESERVE 'BLK' RAT BIT ON MAGTAPE
                                     0000    39 ;	L F LAVERDURE,   16-JUN-78  10:26
                                     0000    40 ; 01	-
                                     0000    41 ;--
RM1CREATE       SEQUENTIAL-SPECIFIC CREATE                       21-AUG-1978 21:38:11   VAX-11 MACRO X0.3-11               Page   2
012             DECLARATIONS                                                                                                     (1)

                                     0000    43 	.SBTTL	DECLARATIONS
                                     0000    44 ;
                                     0000    45 ; INCLUDE FILES:
                                     0000    46 ;
                                     0000    47
                                     0000    48 ;
                                     0000    49 ; MACROS:
                                     0000    50 ;
                                     0000    51 	$FABDEF
                                     0000    52 	$IFBDEF
                                     0000    53 	$DEVDEF
                                     0000    54 	$RMSDEF
                                     0000    55 	.LIST MEB
                                     0000    56
                                     0000    57 ;
                                     0000    58 ; EQUATED SYMBOLS:
                                     0000    59 ;
                           00000020  0000    60 	FOP=FAB$L_FOP*8		; BIT OFFSET TO FOP
                                     0000    61
                                     0000    62 ;
                                     0000    63 ; OWN STORAGE:
                                     0000    64 ;
                                     0000    65
RM1CREATE       SEQUENTIAL-SPECIFIC CREATE                       21-AUG-1978 21:38:11   VAX-11 MACRO X0.3-11               Page   3
012             RM$CREATE1  -  SEQUENTIAL CREATE ROUTINE                                                                         (1)

                                     0000    67 	.SBTTL RM$CREATE1  -  SEQUENTIAL CREATE ROUTINE
                                     0000    68 ;++
                                     0000    69 ; FUNCTIONAL DESCRIPTION:
                                     0000    70 ;
                                     0000    71 ;	THIS ROUTINE PERFORMS ALL OF THE FILE CREATE
                                     0000    72 ;	FUNCTIONS THAT ARE SPECIFIC TO THE SEQUENTIAL
                                     0000    73 ;	FILE ORGANIZATION, INCLUDING:
                                     0000    74 ;
                                     0000    75 ;	1.  CHECKING THAT WRITE-SHARING HAS NOT BEEN SPECIFIED
                                     0000    76 ;	2.  CHECKING THAT RFM IS NOT STREAM FOR NON-DISK DEVICES
                                     0000    77 ;	3.  ALLOWING USER TO OVERRIDE DEFAULT BLOCK SIZE FOR MAGTAPE
                                     0000    78 ;	4.  PERFORMING EOF POSITIONING TO START OF FILE
                                     0000    79 ;	5.  CHECKING XAB CHAIN VALIDITY
                                     0000    80 ;	6.  CALLING THE COMMON CREATE ROUTINE
                                     0000    81 ;
                                     0000    82 ; CALLING SEQUENCE:
                                     0000    83 ;
                                     0000    84 ;	ENTERED VIA CASE BRANCH FROM RM$OPEN
                                     0000    85 ;	RETURNS BY JUMPING TO RM$CREATEXIT
                                     0000    86 ;
                                     0000    87 ; INPUT PARAMETERS:
                                     0000    88 ;
                                     0000    89 ;	R11	IMPURE AREA ADDRESS
                                     0000    90 ;	R10	FWA ADDRESS
                                     0000    91 ;	R9	IFAB ADDRESS
                                     0000    92 ;	R8	FAB ADDRESS
                                     0000    93 ;
                                     0000    94 ; IMPLICIT INPUTS:
                                     0000    95 ;
                                     0000    96 ;	THE CONTENTS OF THE FAB, IFAB, & FWA.
                                     0000    97 ;
                                     0000    98 ; OUTPUT PARAMETERS:
                                     0000    99 ;
                                     0000   100 ;	R0	STATUS CODE
                                     0000   101 ;	R1-R7	DESTROYED
                                     0000   102 ;
                                     0000   103 ; IMPLICIT OUTPUTS:
                                     0000   104 ;
                                     0000   105 ;	VARIOUS FIELDS IN THE IFAB & FAB ARE INITIALIZED.
                                     0000   106 ;
                                     0000   107 ; COMPLETION CODES:
                                     0000   108 ;
                                     0000   109 ;	STANDARD RMS
                                     0000   110 ;
                                     0000   111 ; SIDE EFFECTS:
                                     0000   112 ;
                                     0000   113 ;	NONE
                                     0000   114 ;
                                     0000   115 ;--
RM1CREATE       SEQUENTIAL-SPECIFIC CREATE                       21-AUG-1978 21:38:11   VAX-11 MACRO X0.3-11               Page   4
012             RM$CREATE1  -  SEQUENTIAL CREATE ROUTINE                                                                         (1)

                                     0000   117 RM$CREATE1::
                                     0000   118 	$TSTPT	CREATE1
                 00000200'9F     D6  0000       		INCL	@#PIO$GL_FMLH+512+TPT$L_CREATE1
                                     0006   119 ;
                                     0006   120 ;  SINCE CREATE IMPLIES PUT ACCESS, CHECK THAT SHARING HAS NOT BEEN SPECIFIED
                                     0006   121 ;  UNLESS USER IS PREPARED TO PROVIDE HIS OWN INTERLOCKING
                                     0006   122 ;
         17 A8            0B     93  0006   123 	BITB	#FAB$M_GET!FAB$M_PUT!FAB$M_UPD,FAB$B_SHR(R8)	; ANY SHARING?
                          05     13  000A   124 	BEQL	5$					; BRANCH IF NONE
         17 A8            06     E1  000C   125 	BBC	#FAB$V_UPI,FAB$B_SHR(R8),ERRSHR		; BRANCH IF USER NOT
                          70         0010
                                     0011   126 							; PROVIDING INTERLOCKING
            69            1C     E0  0011   127 5$:	BBS	#DEV$V_RND,IFB$L_PRIM_DEV(R9),SETBL1	; BRANCH IF DISK
                          38         0014
                                     0015   128 ;
                                     0015   129 ; CHECK THAT RFM IS NOT STREAM
                                     0015   130 ;
                                     0015   131 	ASSUME	FAB$C_UDF EQ 0
                                     0015   132 	ASSUME 	FAB$C_FIX EQ 1
                                     0015   133 	ASSUME	FAB$C_VAR EQ 2
                                     0015   134 	ASSUME	FAB$C_VFC EQ 3
            03         1F A8     91  0015   135 	CMPB	FAB$B_RFM(R8),#FAB$C_VFC		; RFM IN RANGE?
                          69     1A  0019   136 	BGTRU	ERRRFM					; BRANCH IF NOT
         3D A9            08     8A  001B   137 	BICB2	#FAB$M_BLK,IFB$B_RAT(R9)		; CLEAR BLK FOR UNIT REC DEVICES
            69            05     E1  001F   138 	BBC	#DEV$V_SQD,IFB$L_PRIM_DEV(R9),SETBLS	; BRANCH IF NOT MT
                          22         0022
                                     0023   139 ;
                                     0023   140 ; FORCE 'RECORDS CAN'T CROSS BLOCK BOUNDARIES' AND
                                     0023   141 ; CHECK FOR DEFAULT BLOCK SIZE OVERRIDE FOR MAGTAPE
                                     0023   142 ;
            51         3C A8     B0  0023   143 	MOVW	FAB$W_BLS(R8),R1			; GET BLOCK SIZE
                          0C     13  0027   144 	BEQL	20$					; BRANCH IF NOT  SPECED
            12            51     B1  0029   145 	CMPW	R1,#18					; IS BLOCK SIZE GE MIN.
                          03     1E  002C   146 	BGEQU	10$					; BRANCH IF YES
            51            12     B0  002E   147 	MOVW	#18,R1					; MINIMUM RECORD SIZE
         38 A9            51     B0  0031   148 10$:	MOVW	R1,IFB$W_DEVBUFSIZ(R9)			; SET DEVICE BUFFER SIZE
                                     0035   149 ;
                                     0035   150 ; IF MAGTAPE HAS FIXED LENGTH RFM, DISALLOW
                                     0035   151 ; RECORDS LESS THAN 18 BYTES LONG AS
                                     0035   152 ; THIS COULD CAUSE AN ILLEGAL EOF BLOCK
                                     0035   153 ;
            01         3C A9     91  0035   154 20$:	CMPB	IFB$B_RFMORG(R9),#FAB$C_FIX		; FIXED RFM?
                          06     12  0039   155 	BNEQ	30$					; BRANCH IF NOT
            12         3E A9     B1  003B   156 	CMPW	IFB$W_LRL(R9),#18			; RECORD > MIN SIZE?
                          46     1F  003F   157 	BLSSU	ERRMRS					; BRANCH IF SO
                                     0041   158 30$:	SSB	#IFB$V_ANSI_D,(R9)			; FLAG AS ANSI
            69            26     E2  0041       		BBSS	#IFB$V_ANSI_D,(R9),30000$
                          00         0044
                                     0045       30000$:
                                     0045   159 ;
                                     0045   160 ; ROUND UP BLS & RETURN IT
                                     0045   161 ;
                                     0045   162 SETBLS:
         38 A9            03     A0  0045   163 	ADDW2	#3,IFB$W_DEVBUFSIZ(R9)
         38 A9            03     AA  0049   164 	BICW2	#3,IFB$W_DEVBUFSIZ(R9)
         3C A8         38 A9     B0  004D   165 SETBL1:	MOVW	IFB$W_DEVBUFSIZ(R9),FAB$W_BLS(R8)
         54 A9            06     E1  0052   166 	BBC	#DEV$V_SPL,IFB$L_AS_DEV(R9),SETEOF	; BRANCH IF DEVICE NOT SPOOLED
RM1CREATE       SEQUENTIAL-SPECIFIC CREATE                       21-AUG-1978 21:38:11   VAX-11 MACRO X0.3-11               Page   5
012             RM$CREATE1  -  SEQUENTIAL CREATE ROUTINE                                                                         (1)

                          05         0056
         3C A8         5A A9     B0  0057   167 	MOVW	IFB$W_ASDEVBSIZ(R9),FAB$W_BLS(R8)	; RETURN ASSIGNED DEVICE BUF SIZE
                                     005C   168 ;
                                     005C   169 ; SET EOF BLOCK TO VBN 1 AND FIRST FREE BYTE TO 0.
                                     005C   170 ;
                       44 A9     D6  005C   171 SETEOF:	INCL	IFB$L_EBK(R9)				; EOF AT VBN 1
                                     005F   172 ;
                                     005F   173 ; IF FIXED RECORD FORMAT AND 'BLK' SET IN RAT,
                                     005F   174 ; MAKE SURE RECORD SIZE IS LESS THAN 1 BLOCK
                                     005F   175 ;
            01         3C A9     91  005F   176 	CMPB	IFB$B_RFMORG(R9),#FAB$C_FIX		; FIXED RFM?
                          0C     12  0063   177 	BNEQ	CHKXAB					; BRANCH IF NOT
         3D A9            03     E1  0065   178 	BBC	#FAB$V_BLK,IFB$B_RAT(R9),CHKXAB		; BRANCH IF 'BLK' NOT SPECED
                          07         0069
         38 A9         4C A9     B1  006A   179 	CMPW	IFB$W_MRS(R9),IFB$W_DEVBUFSIZ(R9)	; DOES RECORD FIT?
                          16     1A  006F   180 	BGTRU	ERRMRS					; BRANCH IF NOT
                                     0071   181 ;++
                                     0071   182 ;
                                     0071   183 ;  ENTRY POINT FOR BLOCK I/O CREATE FOR UNKNOWN FILE ORG
                                     0071   184 ;
                                     0071   185 ;--
                                     0071   186 RM$BIO_CREATE::
                                     0071   187 ;
                                     0071   188 ;  PROCESS ALLOCATION XAB IF PRESENT, AND SET DEQ AND RTDEQ
                                     0071   189 ;
                                     0071   190 CHKXAB:
                          FF8C'  30  0071   191 	BSBW	RM$SETALLOC
            07            50     E9  0074   192 	BLBC	R0,EXIT
                                     0077   193 ;
                                     0077   194 ; CALL THE COMMON CREATE FILE ROUTINE
                                     0077   195 ;
                          FF86'  30  0077   196 	BSBW	RM$CREATECOM
                                     007A   197 ;
                                     007A   198 ; NOTE THAT FILE IS POSITIONED AT EOF IN THE IFAB
                                     007A   199 ; SO THAT CONNECT WILL BE SET UP FOR $PUT.
                                     007A   200 ;
                                     007A   201 	SSB	#IFB$V_EOF,(R9)				; FLAG EOF
            69            21     E2  007A       		BBSS	#IFB$V_EOF,(R9),30001$
                          00         007D
                                     007E       30001$:
                          FF7F'  31  007E   202 EXIT:	BRW	RM$CREATEXIT
RM1CREATE       SEQUENTIAL-SPECIFIC CREATE                       21-AUG-1978 21:38:11   VAX-11 MACRO X0.3-11               Page   6
012             RM$CREATE1  -  SEQUENTIAL CREATE ROUTINE                                                                         (1)

                                     0081   204 ;
                                     0081   205 ; HANDLE ERRORS
                                     0081   206 ;
                                     0081   207 ERRSHR:	$PSECT_BR	L$RMS1
                          FF7C'  31  0081       		BRW	L$RMS10
                                     0084       		.SAVE
                                 00000000       		.PSECT	L$RMS1,GBL,NOWRT
                                     0000       L$RMS10:
                                     0000   208 RM$CRE_ERRSHR::
                          0A     10  0000   209 	BSBB	ERROR			; WRITE SHARING SPECIFIED
                                     0002   210 	RMSERR_WORD	SHR
                               86B4  0002       		.WORD	RMS$_SHR&^XFFFF
                                     0004   211 	$PSECT_RESTORE
                                 00000084       		.RESTORE
                                     0084   212 ;
                                     0084   213 ERRRFM:	$PSECT_BR	L$RMS1
                          FF7D'  31  0084       		BRW	L$RMS11
                                     0087       		.SAVE
                                 00000004       		.PSECT	L$RMS1,GBL,NOWRT
                                     0004       L$RMS11:
                                     0004   214 RM$CRE_ERRRFM::
                          06     10  0004   215 	BSBB	ERROR			; RFM NOT UDF,FIX,VAR, OR VFC
                                     0006   216 	RMSERR_WORD	RFM		; FOR NON-DISK DEVICE
                               8664  0006       		.WORD	RMS$_RFM&^XFFFF
                                     0008   217 	$PSECT_RESTORE
                                 00000087       		.RESTORE
                                     0087   218 ;
                                     0087   219 ERRMRS:	$PSECT_BR	L$RMS1
                          FF7E'  31  0087       		BRW	L$RMS12
                                     008A       		.SAVE
                                 00000008       		.PSECT	L$RMS1,GBL,NOWRT
                                     0008       L$RMS12:
                                     0008   220 RM$CRE_ERRMRS::
                          02     10  0008   221 	BSBB	ERROR			; FIXED RECORD LENGTH <18
                                     000A   222 	RMSERR_WORD	MRS		; FOR MAGTAPE OR > BLS AND 'BLK' SET
                               85D4  000A       		.WORD	RMS$_MRS&^XFFFF
                                     000C   223 ;
            50            9E     3C  000C   224 ERROR:	MOVZWL	@(SP)+,R0				; PICK UP ERROR CODE
                          FFEE'  31  000F   225 	BRW	RM$CREATEXIT		; AND GET OUT
                                     0012   226 	$PSECT_RESTORE
                                 0000008A       		.RESTORE
                                     008A   227 	.END
RM1CREATE       SEQUENTIAL-SPECIFIC CREATE                       21-AUG-1978 21:38:11   VAX-11 MACRO X0.3-11               Page   7
SYMBOL TABLE                                                                                                                     (1)

$$.PSECT_EP    = 00000003            ERRMRS           00000087 R     02   FAB$M_GET      = 00000002
$$RMSTEST      = 0000001A            ERROR            0000000C R     04   FAB$M_INP      = 00080000
$$RMS_PBUGCHK  = 00000010            ERRRFM           00000084 R     02   FAB$M_JNL      = 00400000
$$RMS_TBUGCHK  = 00000008            ERRSHR           00000081 R     02   FAB$M_KFO      = 40000000
$$RMS_UMODE    = 00000004            EXIT             0000007E R     02   FAB$M_MSE      = 00000010
BIT...         = 0001C134            FAB$B_BID        00000000            FAB$M_MXV      = 00000002
CHKXAB           00000071 R     02   FAB$B_BKS        0000003E            FAB$M_NAM      = 01000000
DEV$M_ALL      = 00800000            FAB$B_BLN        00000001            FAB$M_NEF      = 00000400
DEV$M_AVL      = 00040000            FAB$B_DNS        00000035            FAB$M_NFS      = 00010000
DEV$M_CCL      = 00000002            FAB$B_FAC        00000016            FAB$M_NIL      = 00000020
DEV$M_DIR      = 00000008            FAB$B_FNS        00000034            FAB$M_OFP      = 20000000
DEV$M_DMT      = 00200000            FAB$B_FSZ        0000003F            FAB$M_POS      = 00000100
DEV$M_ELG      = 00400000            FAB$B_ORG        0000001D            FAB$M_PPF      = 00040000
DEV$M_FOD      = 00004000            FAB$B_RAT        0000001E            FAB$M_PPF_IND  = 00004000
DEV$M_FOR      = 01000000            FAB$B_RFM        0000001F            FAB$M_PPF_RAT  = 00003FC0
DEV$M_GEN      = 00020000            FAB$B_RTV        0000001C            FAB$M_PRN      = 00000004
DEV$M_IDV      = 04000000            FAB$B_SHR        00000017            FAB$M_PUT      = 00000001
DEV$M_MBX      = 00100000            FAB$C_BID      = 00000003            FAB$M_RCK      = 00800000
DEV$M_MNT      = 00080000            FAB$C_BLN        00000050            FAB$M_RWC      = 00000800
DEV$M_NET      = 00002000            FAB$C_FIX      = 00000001            FAB$M_RWO      = 00000080
DEV$M_ODV      = 08000000            FAB$C_HSH      = 00000030            FAB$M_SCF      = 00004000
DEV$M_RCK      = 40000000            FAB$C_IDX      = 00000020            FAB$M_SHRDEL   = 00000004
DEV$M_REC      = 00000001            FAB$C_MAXRFM   = 00000003            FAB$M_SHRGET   = 00000002
DEV$M_RND      = 10000000            FAB$C_REL      = 00000010            FAB$M_SHRPUT   = 00000001
DEV$M_RTM      = 20000000            FAB$C_RFM_DFLT = 00000002            FAB$M_SHRUPD   = 00000008
DEV$M_SDI      = 00000010            FAB$C_SEQ      = 00000000            FAB$M_SPL      = 00002000
DEV$M_SHR      = 00010000            FAB$C_UDF      = 00000000            FAB$M_SQO      = 00000040
DEV$M_SPL      = 00000040            FAB$C_VAR      = 00000002            FAB$M_SUP      = 00000004
DEV$M_SQD      = 00000020            FAB$C_VFC      = 00000003            FAB$M_TEF      = 10000000
DEV$M_SWL      = 02000000            FAB$K_BLN        00000050            FAB$M_TMD      = 00000010
DEV$M_TRM      = 00000004            FAB$L_ALQ        00000010            FAB$M_TMP      = 00000008
DEV$M_WCK      = 80000000            FAB$L_CTX        00000018            FAB$M_TRN      = 00000010
DEV$V_ALL      = 00000017            FAB$L_DEV        00000040            FAB$M_UFM      = 04000000
DEV$V_AVL      = 00000012            FAB$L_DNA        00000030            FAB$M_UFO      = 00020000
DEV$V_CCL      = 00000001            FAB$L_FNA        0000002C            FAB$M_UPD      = 00000008
DEV$V_DIR      = 00000003            FAB$L_FOP        00000004            FAB$M_UPI      = 00000040
DEV$V_DMT      = 00000015            FAB$L_JNL        00000020            FAB$M_WCK      = 00000200
DEV$V_ELG      = 00000016            FAB$L_MRN        00000038            FAB$S_ORG      = 00000004
DEV$V_FOD      = 0000000E            FAB$L_NAM        00000028            FAB$S_PPF_RAT  = 00000008
DEV$V_FOR      = 00000018            FAB$L_SDC        00000044            FAB$V_BIO      = 00000005
DEV$V_GEN      = 00000011            FAB$L_STS        00000008            FAB$V_BLK      = 00000003
DEV$V_IDV      = 0000001A            FAB$L_STV        0000000C            FAB$V_BRO      = 00000006
DEV$V_MBX      = 00000014            FAB$L_XAB        00000024            FAB$V_CBT      = 00000015
DEV$V_MNT      = 00000013            FAB$M_BIO      = 00000020            FAB$V_CIF      = 00000019
DEV$V_NET      = 0000000D            FAB$M_BLK      = 00000008            FAB$V_CR       = 00000001
DEV$V_ODV      = 0000001B            FAB$M_BRO      = 00000040            FAB$V_CTG      = 00000014
DEV$V_RCK      = 0000001E            FAB$M_CBT      = 00200000            FAB$V_DEL      = 00000002
DEV$V_REC      = 00000000            FAB$M_CIF      = 02000000            FAB$V_DFW      = 00000005
DEV$V_RND      = 0000001C            FAB$M_CR       = 00000002            FAB$V_DLT      = 0000000F
DEV$V_RTM      = 0000001D            FAB$M_CTG      = 00100000            FAB$V_DMO      = 0000000C
DEV$V_SDI      = 00000004            FAB$M_DEL      = 00000004            FAB$V_ESC      = 0000001B
DEV$V_SHR      = 00000010            FAB$M_DFW      = 00000020            FAB$V_EXE      = 00000007
DEV$V_SPL      = 00000006            FAB$M_DLT      = 00008000            FAB$V_FTN      = 00000000
DEV$V_SQD      = 00000005            FAB$M_DMO      = 00001000            FAB$V_GET      = 00000001
DEV$V_SWL      = 00000019            FAB$M_ESC      = 08000000            FAB$V_INP      = 00000013
DEV$V_TRM      = 00000002            FAB$M_EXE      = 00000080            FAB$V_JNL      = 00000016
DEV$V_WCK      = 0000001F            FAB$M_FTN      = 00000001            FAB$V_KFO      = 0000001E
RM1CREATE       SEQUENTIAL-SPECIFIC CREATE                       21-AUG-1978 21:38:11   VAX-11 MACRO X0.3-11               Page   8
SYMBOL TABLE                                                                                                                     (1)

FAB$V_MSE      = 00000004            IFB$C_BLN        00000060            IFB$V_DAP      = 0000003E
FAB$V_MXV      = 00000001            IFB$C_BLN_IDX    00000060            IFB$V_DAP_OPEN = 0000003D
FAB$V_NAM      = 00000018            IFB$C_BLN_REL    00000060            IFB$V_DEL      = 00000002
FAB$V_NEF      = 0000000A            IFB$C_BLN_SEQ    0000005C            IFB$V_DFW      = 0000002C
FAB$V_NFS      = 00000010            IFB$C_DIR      = 00000003            IFB$V_DLT      = 0000002B
FAB$V_NIL      = 00000005            IFB$C_FHAEND     00000050            IFB$V_DMO      = 00000028
FAB$V_OFP      = 0000001D            IFB$C_IDX      = 00000002            IFB$V_EOF      = 00000021
FAB$V_ORG      = 00000004            IFB$C_MAXORG   = 00000002            IFB$V_EXE      = 00000007
FAB$V_POS      = 00000008            IFB$C_REL      = 00000001            IFB$V_GET      = 00000001
FAB$V_PPF      = 00000012            IFB$C_SEQ      = 00000000            IFB$V_MSE      = 00000031
FAB$V_PPF_IND  = 0000000E            IFB$K_BLN        00000060            IFB$V_NORECLK  = 00000033
FAB$V_PPF_RAT  = 00000006            IFB$K_BLN_IDX    00000060            IFB$V_NSP      = 0000003F
FAB$V_PRN      = 00000002            IFB$K_BLN_REL    00000060            IFB$V_NWA      = 0000003C
FAB$V_PUT      = 00000000            IFB$K_BLN_SEQ    0000005C            IFB$V_ORG      = 00000004
FAB$V_RCK      = 00000017            IFB$K_FHAEND     00000050            IFB$V_PPF_IMAGE= 00000022
FAB$V_RWC      = 0000000B            IFB$L_ARGLST     00000018            IFB$V_PPF_INPUT= 0000002E
FAB$V_RWO      = 00000007            IFB$L_ASBADDR    00000014            IFB$V_PUT      = 00000000
FAB$V_SCF      = 0000000E            IFB$L_AS_DEV     00000054            IFB$V_RFM      = 00000000
FAB$V_SHRDEL   = 00000002            IFB$L_BDB_BLNK   00000034            IFB$V_RWC      = 00000027
FAB$V_SHRGET   = 00000001            IFB$L_BDB_FLNK   00000030            IFB$V_RW_ATTR  = 00000034
FAB$V_SHRPUT   = 00000000            IFB$L_BKPBITS    00000004            IFB$V_SCF      = 0000002A
FAB$V_SHRUPD   = 00000003            IFB$L_BWB        0000000C            IFB$V_SPL      = 00000029
FAB$V_SPL      = 0000000D            IFB$L_DVBN       00000058            IFB$V_SQO      = 0000002D
FAB$V_SQO      = 00000006            IFB$L_EBK        00000044            IFB$V_TEF      = 00000036
FAB$V_SUP      = 00000002            IFB$L_FRB_PTR    00000028            IFB$V_TMP      = 00000035
FAB$V_TEF      = 0000001C            IFB$L_FWA_BDB    00000050            IFB$V_TRN      = 00000004
FAB$V_TMD      = 00000004            IFB$L_HBK        00000040            IFB$V_UPD      = 00000003
FAB$V_TMP      = 00000003            IFB$L_IDX_PTR    00000054            IFB$V_WRTACC   = 00000030
FAB$V_TRN      = 00000004            IFB$L_IOS        0000000C            IFB$W_ASDEVBSIZ  0000005A
FAB$V_UFM      = 0000001A            IFB$L_IOS4       00000010            IFB$W_BKS_BYTES  0000005C
FAB$V_UFO      = 00000011            IFB$L_IRAB_LNK   0000001C            IFB$W_BKS_RECS   0000005E
FAB$V_UPD      = 00000003            IFB$L_LAST_FAB   00000024            IFB$W_CHNL       00000020
FAB$V_UPI      = 00000006            IFB$L_LOCK_BDB   00000050            IFB$W_DEQ        0000004E
FAB$V_WCK      = 00000009            IFB$L_MRN        00000054            IFB$W_DEVBUFSIZ  00000038
FAB$W_BLS        0000003C            IFB$L_NRP_LNK    00000050            IFB$W_EBK0       00000044
FAB$W_DEQ        00000014            IFB$L_NWA_PTR    00000028            IFB$W_EBK2       00000046
FAB$W_IFI        00000002            IFB$L_PRIM_DEV   00000000            IFB$W_FFB        00000048
FAB$W_MRS        00000036            IFB$L_RLB_LNK    0000002C            IFB$W_IOS2       0000000E
FOP            = 00000020            IFB$L_RNS_LEN    00000050            IFB$W_LRL        0000003E
GBL...         = 00000000            IFB$M_BIO      = 00000020            IFB$W_MRS        0000004C
IFB$B_AMAX       00000059            IFB$M_BRO      = 00000040            IFB$W_RTDEQ      0000003A
IFB$B_AVBN       00000058            IFB$M_DEL      = 00000004            L$RMS10          00000000 R     04
IFB$B_BID        00000008            IFB$M_EXE      = 00000080            L$RMS11          00000004 R     04
IFB$B_BKS        0000004A            IFB$M_GET      = 00000002            L$RMS12          00000008 R     04
IFB$B_BLN        00000009            IFB$M_PUT      = 00000001            PIO$GL_FMLH      ********   X   02
IFB$B_EFN        0000000B            IFB$M_TRN      = 00000010            RM$BIO_CREATE    00000071 RG    02
IFB$B_EXTRABUF   0000005D            IFB$M_UPD      = 00000008            RM$CREATE1       00000000 RG    02
IFB$B_FAC        00000022            IFB$S_ORG      = 00000004            RM$CREATECOM     ********   X   02
IFB$B_FSZ        0000004B            IFB$S_RFM      = 00000004            RM$CREATEXIT     ********   X   02
IFB$B_KBUFSZ     0000005C            IFB$V_ACCESSED = 00000025            RM$CRE_ERRMRS    00000008 RG    04
IFB$B_MODE       0000000A            IFB$V_ANSI_D   = 00000026            RM$CRE_ERRRFM    00000004 RG    04
IFB$B_NUM_KEYS   0000005A            IFB$V_ASYNC    = 00000023            RM$CRE_ERRSHR    00000000 RG    04
IFB$B_ORGCASE    00000023            IFB$V_ASYNCWAIT= 00000024            RM$SETALLOC      ********   X   02
IFB$B_RAT        0000003D            IFB$V_BIO      = 00000005            RMS$V_STVSTATUS= 0000000E
IFB$B_RFMORG     0000003C            IFB$V_BRO      = 00000006            RMS$_ABO       = 000183EC
IFB$B_UBUFSZ     0000005B            IFB$V_BUSY     = 00000020            RMS$_ACC       = 0001C002
IFB$C_BID      = 0000000B            IFB$V_CREATE   = 00000032            RMS$_ACT       = 0001825A
RM1CREATE       SEQUENTIAL-SPECIFIC CREATE                       21-AUG-1978 21:38:11   VAX-11 MACRO X0.3-11               Page   9
SYMBOL TABLE                                                                                                                     (1)

RMS$_AID       = 000183F4            RMS$_FAB       = 0001850C            RMS$_POS       = 00018624
RMS$_ALN       = 000183FC            RMS$_FAC       = 00018514            RMS$_PRM       = 0001862C
RMS$_ALQ       = 00018404            RMS$_FEX       = 00018282            RMS$_PRV       = 0001829A
RMS$_ANI       = 0001840C            RMS$_FLG       = 0001851C            RMS$_QUO       = 00018634
RMS$_AOP       = 00018414            RMS$_FLK       = 0001828A            RMS$_RAB       = 0001863C
RMS$_ATR       = 0001C0CC            RMS$_FNA       = 00018524            RMS$_RAC       = 00018644
RMS$_ATW       = 0001C0D4            RMS$_FND       = 0001C02A            RMS$_RAT       = 0001864C
RMS$_BKS       = 0001841C            RMS$_FNF       = 00018292            RMS$_RBF       = 00018654
RMS$_BKZ       = 00018424            RMS$_FNM       = 0001852C            RMS$_RER       = 0001C0F4
RMS$_BLN       = 0001842C            RMS$_FOP       = 0001853C            RMS$_REX       = 000182A2
RMS$_BOF       = 00018198            RMS$_FSZ       = 00018534            RMS$_RFA       = 0001865C
RMS$_BUG       = 00018434            RMS$_FUL       = 00018544            RMS$_RFM       = 00018664
RMS$_BUG_DAP   = 00018444            RMS$_IAL       = 0001854C            RMS$_RHB       = 0001866C
RMS$_BUG_DDI   = 0001843C            RMS$_IAN       = 00018554            RMS$_RLF       = 00018674
RMS$_BUG_XX2   = 0001844C            RMS$_IBF       = 00018754            RMS$_RLK       = 000182AA
RMS$_BUG_XX3   = 00018454            RMS$_IDX       = 0001855C            RMS$_RMV       = 0001C0FC
RMS$_BUG_XX4   = 0001845C            RMS$_IFA       = 0001C124            RMS$_RNF       = 000182B2
RMS$_BUG_XX5   = 00018464            RMS$_IFI       = 00018564            RMS$_RNL       = 000181A0
RMS$_BUG_XX6   = 0001846C            RMS$_IMX       = 0001856C            RMS$_ROP       = 0001867C
RMS$_BUG_XX7   = 00018474            RMS$_IOP       = 00018574            RMS$_RPL       = 0001C104
RMS$_BUG_XX8   = 0001847C            RMS$_IRC       = 0001857C            RMS$_RRV       = 00018684
RMS$_BUG_XX9   = 00018484            RMS$_ISI       = 00018584            RMS$_RSA       = 000182DA
RMS$_CAA       = 0001848C            RMS$_KBF       = 0001858C            RMS$_RSL       = 0001873C
RMS$_CCF       = 0001C0DC            RMS$_KEY       = 00018594            RMS$_RSS       = 00018694
RMS$_CCR       = 00018494            RMS$_KFF       = 00018031            RMS$_RST       = 0001869C
RMS$_CDA       = 0001C0E4            RMS$_KRF       = 0001859C            RMS$_RSZ       = 000186A4
RMS$_CHG       = 0001849C            RMS$_KSZ       = 000185A4            RMS$_RTB       = 000181A8
RMS$_CHK       = 000184A4            RMS$_LAN       = 000185AC            RMS$_SEQ       = 000186AC
RMS$_CHN       = 0001C0EC            RMS$_LBL       = 000185B4            RMS$_SHR       = 000186B4
RMS$_COD       = 000184AC            RMS$_LNE       = 000185BC            RMS$_SIZ       = 000186BC
RMS$_CONTROLC  = 00010651            RMS$_LOC       = 000185C4            RMS$_SPL       = 0001C042
RMS$_CONTROLO  = 00010609            RMS$_MBC       = 00018734            RMS$_SQO       = 000186C4
RMS$_CONTROLY  = 00010611            RMS$_MKD       = 0001C032            RMS$_STALL     = 00018001
RMS$_CRE       = 0001C00A            RMS$_MRN       = 000185CC            RMS$_STK       = 000186CC
RMS$_CREATED   = 00010619            RMS$_MRS       = 000185D4            RMS$_SUC       = 00010001
RMS$_CUR       = 000184B4            RMS$_NAM       = 000185DC            RMS$_SUP       = 000182D2
RMS$_DAC       = 0001C012            RMS$_NEF       = 000185E4            RMS$_SUPERSEDE = 00010631
RMS$_DAN       = 000184BC            RMS$_NET       = 0001874C            RMS$_SYN       = 000186D4
RMS$_DEL       = 00018262            RMS$_NID       = 000185EC            RMS$_SYS       = 0001C10C
RMS$_DEV       = 000184C4            RMS$_NMF       = 000182CA            RMS$_TEMP1     = 0001826A
RMS$_DIR       = 000184CC            RMS$_NOD       = 000185F4            RMS$_TEMP2     = 0001868C
RMS$_DME       = 000184D4            RMS$_NORMAL    = 00010001            RMS$_TMO       = 000181B0
RMS$_DNA       = 000184DC            RMS$_NPK       = 000185FC            RMS$_TRE       = 000186DC
RMS$_DNF       = 0001C04A            RMS$_OK_ALK    = 00018039            RMS$_TYP       = 000186E4
RMS$_DNR       = 00018272            RMS$_OK_DEL    = 00018041            RMS$_UBF       = 000186EC
RMS$_DPE       = 0001C03A            RMS$_OK_DUP    = 00018011            RMS$_USZ       = 000186F4
RMS$_DTP       = 000184E4            RMS$_OK_IDX    = 00018019            RMS$_VER       = 000186FC
RMS$_DUP       = 000184EC            RMS$_OK_LIM    = 00018051            RMS$_VOL       = 00018704
RMS$_DVI       = 000184F4            RMS$_OK_RLK    = 00018021            RMS$_WBE       = 0001C12C
RMS$_ENT       = 0001C01A            RMS$_OK_RNF    = 00018049            RMS$_WER       = 0001C114
RMS$_ENV       = 00018724            RMS$_OK_RRV    = 00018029            RMS$_WLD       = 00018744
RMS$_EOF       = 0001827A            RMS$_ORD       = 00018604            RMS$_WLK       = 000182BA
RMS$_ESA       = 000184FC            RMS$_ORG       = 0001860C            RMS$_WPL       = 0001C11C
RMS$_ESL       = 00018714            RMS$_PBF       = 00018614            RMS$_WSF       = 0001871C
RMS$_ESS       = 00018504            RMS$_PENDING   = 00018009            RMS$_XAB       = 0001870C
RMS$_EXP       = 000182C2            RMS$_PLG       = 0001861C            SETBL1           0000004D R     02
RMS$_EXT       = 0001C022            RMS$_PLV       = 0001872C            SETBLS           00000045 R     02
RM1CREATE       SEQUENTIAL-SPECIFIC CREATE                       21-AUG-1978 21:38:11   VAX-11 MACRO X0.3-11               Page  10
SYMBOL TABLE                                                                                                                     (1)

SETEOF           0000005C R     02
TPT$L_CREATE1    ********   X   02


PROGRAM SECTION SYNOPSIS

.  ABS  .        00000000      00     NOPIC   USR   CON   ABS   LCL NOSHR NOEXE NORD  NOWRT BYTE
. BLANK .        00000000      01     NOPIC   USR   CON   REL   LCL NOSHR   EXE   RD    WRT BYTE
F$RMSOPEN1C      0000008A      02     NOPIC   USR   CON   REL   GBL NOSHR   EXE   RD  NOWRT BYTE
$ABS$            00000060      03     NOPIC   USR   CON   ABS   LCL NOSHR   EXE   RD    WRT BYTE
L$RMS1           00000012      04     NOPIC   USR   CON   REL   GBL NOSHR   EXE   RD  NOWRT BYTE


THERE WERE NO ERRORS OR WARNINGS.
12574. BYTES LEFT IN FREE MEMORY POOL.
2670. BYTES OF RECLAIMED MEMORY.
OBJ$:RM1CREATE,LIS$:RM1CREATE/-SP=EXECML$/ML,LIB$:R/ML,SRC$:RM1CREATE
26 MLB DIR RDS - 775 GETS TO DEFINE 21 MACROS. 62 INTER. FILE WRITES.
