RM1PUT          SEQUENTIAL SPECIFIC PUT                          21-AUG-1978 21:44:27   VAX-11 MACRO X0.3-11               Page   0
TABLE OF CONTENTS

   (1)      40  DECLARATIONS
   (1)      66  RM$PUT1 - HIGH LEVEL SEQUENTIAL $PUT
RM1PUT          SEQUENTIAL SPECIFIC PUT                          21-AUG-1978 21:44:27   VAX-11 MACRO X0.3-11               Page   1
012                                                                                                                              (1)

                                     0000     1 	$BEGIN	RM1PUT,012,$RMS1,<SEQUENTIAL SPECIFIC PUT>
                                     0000     2 ;
                                     0000     3 ; COPYRIGHT (C) 1977
                                     0000     4 ; DIGITAL EQUIPMENT CORPORATION, MAYNARD, MASSACHUSETTS 01754
                                     0000     5 ;
                                     0000     6 ; THIS SOFTWARE IS FURNISHED  UNDER A LICENSE FOR USE ONLY ON A SINGLE
                                     0000     7 ; COMPUTER  SYSTEM AND  MAY BE  COPIED ONLY WITH  THE INCLUSION OF THE
                                     0000     8 ; ABOVE COPYRIGHT NOTICE.  THIS SOFTWARE, OR ANY OTHER COPIES THEREOF,
                                     0000     9 ; MAY NOT BE PROVIDED OR  OTHERWISE MADE AVAILABLE TO ANY OTHER PERSON
                                     0000    10 ; EXCEPT FOR USE ON SUCH SYSTEM AND TO ONE WHO AGREES TO THESE LICENSE
                                     0000    11 ; TERMS.  TITLE TO AND  OWNERSHIP OF THE  SOFTWARE  SHALL AT ALL TIMES
                                     0000    12 ; REMAIN IN DEC.
                                     0000    13 ;
                                     0000    14 ; THE INFORMATION IN THIS SOFTWARE IS SUBJECT TO CHANGE WITHOUT NOTICE
                                     0000    15 ; AND SHOULD  NOT BE CONSTRUED  AS A COMMITMENT  BY DIGITAL  EQUIPMENT
                                     0000    16 ; CORPORATION.
                                     0000    17 ;
                                     0000    18 ; DEC ASSUMES  NO  RESPONSIBILITY  FOR  THE USE OR  RELIABILITY OF ITS
                                     0000    19 ; SOFTWARE ON EQUIPMENT WHICH IS NOT SUPPLIED BY DEC.
                                     0000    20 ;
                                     0000    21 ;++
                                     0000    22 ; FACILITY: RMS32
                                     0000    23 ;
                                     0000    24 ; ABSTRACT:
                                     0000    25 ;		THIS MODULE PROVIDES SEQUENTIAL FILE ORGANIZATION
                                     0000    26 ;		SPECIFIC PROCESSING FOR THE $PUT FUNCTION.
                                     0000    27 ;
                                     0000    28 ;
                                     0000    29 ; ENVIRONMENT:
                                     0000    30 ;		STAR PROCESSOR RUNNING STARLET EXEC.
                                     0000    31 ;
                                     0000    32 ; AUTHOR: L F LAVERDURE,	 CREATION DATE: 17-FEB-77
                                     0000    33 ;
                                     0000    34 ; MODIFIED BY:
                                     0000    35 ;
                                     0000    36 ;	L F LAVERDURE,   14-JUL-78  19:16
                                     0000    37 ; 01	-
                                     0000    38 ;--
RM1PUT          SEQUENTIAL SPECIFIC PUT                          21-AUG-1978 21:44:27   VAX-11 MACRO X0.3-11               Page   2
012             DECLARATIONS                                                                                                     (1)

                                     0000    40 	.SBTTL	DECLARATIONS
                                     0000    41 ;
                                     0000    42 ; INCLUDE FILES:
                                     0000    43 ;
                                     0000    44
                                     0000    45 ;
                                     0000    46 ; MACROS:
                                     0000    47 ;
                                     0000    48 	$IFBDEF
                                     0000    49 	$DEVDEF
                                     0000    50 	$FABDEF
                                     0000    51 	$RABDEF
                                     0000    52 	$IRBDEF
                                     0000    53 	$RMSDEF
                                     0000    54 	.LIST MEB
                                     0000    55
                                     0000    56 ;
                                     0000    57 ; EQUATED SYMBOLS:
                                     0000    58 ;
                           00000020  0000    59 	ROP=RAB$L_ROP*8			;BIT OFFSET TO ROP FIELD
                                     0000    60
                                     0000    61 ;
                                     0000    62 ; OWN STORAGE:
                                     0000    63 ;
                                     0000    64
RM1PUT          SEQUENTIAL SPECIFIC PUT                          21-AUG-1978 21:44:27   VAX-11 MACRO X0.3-11               Page   3
012             RM$PUT1 - HIGH LEVEL SEQUENTIAL $PUT                                                                             (1)

                                     0000    66 	.SBTTL RM$PUT1 - HIGH LEVEL SEQUENTIAL $PUT
                                     0000    67 ;++
                                     0000    68 ; FUNCTIONAL DESCRIPTION:
                                     0000    69 ;
                                     0000    70 ; THIS MODULE PERFORMS THE FOLLOWING FUNCTIONS:
                                     0000    71 ;
                                     0000    72 ;	1.  CALLS RM$PUTSETUP1 TO PERFORM VARIOUS SETUPS
                                     0000    73 ;	2.  INITIALIZES THE CURRENT RECORD SIZE TO ZERO
                                     0000    74 ;	3.  VERIFIES THAT RAC = SEQUENTIAL OR KEY (IF RFM=FIX)
                                     0000    75 ;	4.  IF DEVICE IS UNIT RECORD CALLS RM$PUT_UNIT_REC
                                     0000    76 ;	    OTHERWISE, VERIFIES POSITIONING AT EOF
                                     0000    77 ;	    AND CALLS RM$PUT_BLK_DEV UNLESS RAC=KEY IN WHICH CASE CALLS
                                     0000    78 ;	    RM$UPDATE_ALT
                                     0000    79 ;
                                     0000    80 ;
                                     0000    81 ; CALLING SEQUENCE:
                                     0000    82 ;
                                     0000    83 ; ENTERED VIA CASE BRANCH FROM RM$PUT AT RM$PUT1.
                                     0000    84 ;
                                     0000    85 ; INPUT PARAMETERS:
                                     0000    86 ;
                                     0000    87 ;	R11	IMPURE AREA ADDRESS
                                     0000    88 ;	R10	IFAB ADDR
                                     0000    89 ;	R9	IRAB ADDR
                                     0000    90 ;	R8	RAB ADDR
                                     0000    91 ;
                                     0000    92 ; IMPLICIT INPUTS:
                                     0000    93 ;
                                     0000    94 ;	THE CONTENTS OF THE RAB AND RELATED IRAB AND IFAB.
                                     0000    95 ;
                                     0000    96 ; OUTPUT PARAMETERS:
                                     0000    97 ;
                                     0000    98 ;	R7 THRU R1	DESTROYED
                                     0000    99 ;	R0		STATUS
                                     0000   100 ;
                                     0000   101 ; IMPLICIT OUTPUTS:
                                     0000   102 ;
                                     0000   103 ;	VARIOUS FIELDS OF THE RAB ARE FILLED IN TO REFLECT
                                     0000   104 ;	THE STATUS OF THE OPERATION (SEE FUNCTIONAL SPEC
                                     0000   105 ;	FOR DETAILS).
                                     0000   106 ;
                                     0000   107 ;	THE IRAB IS SIMILARLY UPDATED.
                                     0000   108 ;
                                     0000   109 ; COMPLETION CODES:
                                     0000   110 ;
                                     0000   111 ;	STANDARD RMS (SEE FUNCTIONAL SPEC).
                                     0000   112 ;
                                     0000   113 ; SIDE EFFECTS:
                                     0000   114 ;
                                     0000   115 ;	NONE
                                     0000   116 ;
                                     0000   117 ;--
RM1PUT          SEQUENTIAL SPECIFIC PUT                          21-AUG-1978 21:44:27   VAX-11 MACRO X0.3-11               Page   4
012             RM$PUT1 - HIGH LEVEL SEQUENTIAL $PUT                                                                             (1)

                                     0000   119 RM$PUT1::
                                     0000   120 	$TSTPT	PUT1
                 00000200'9F     D6  0000       		INCL	@#PIO$GL_FMLH+512+TPT$L_PUT1
                          FFF7'  30  0006   121 	BSBW	RM$PUTSETUP1			; PERFORM VARIOUS PUT SETUPS
                       42 A9     B4  0009   122 	CLRW	IRB$W_CSIZ(R9)			; INDICATE NO CURRENT RECORD
            53            50     E9  000C   123 	BLBC	R0,EXIT
                                     000F   124 ;
                                     000F   125 ; VERIFY THAT RECORD ACCESS MODE IS SEQUENTIAL
                                     000F   126 ;
                                     000F   127 	ASSUME	RAB$C_SEQ EQ 0
                       1E A8     95  000F   128 	TSTB	RAB$B_RAC(R8)
                          10     12  0012   129 	BNEQ	CHKRRN
                                     0014   130 	ASSUME	DEV$V_REC EQ 0
            03            6A     E9  0014   131 	BLBC	IFB$L_PRIM_DEV(R10),BLKDEV	; BRANCH IF NOT UNIT RECORD DEVICE
                                     0017   132 ;
                                     0017   133 ; $PUT TO A UNIT RECORD DEVICE
                                     0017   134 ;
                          FFE6'  31  0017   135 	BRW	RM$PUT_UNIT_REC
                                     001A   136 ;
                                     001A   137 ;  SEQUENTIAL $PUT TO A BLOCK DEVICE
                                     001A   138 ;  MUST BE POSITIONED AT EOF
                                     001A   139 ;
                          FFE3'  30  001A   140 BLKDEV:	BSBW	RM$CHKEOF1			; GET EOF BIT SET IF AT END
            69            21     E1  001D   141 	BBC	#IRB$V_EOF,(R9),ERRNEF		; BRANCH IF NOT EOF
                          44         0020
                          FFDC'  31  0021   142 PUTBLK:	BRW	RM$PUT_BLK_DEV			; DO THE PUT
                                     0024   143 ;
                                     0024   144 ;  CODE TO PERFORM RANDOM MODE $PUT BY RELATIVE RECORD #
                                     0024   145 ;
                                     0024   146 CHKRRN:
            01         1E A8     91  0024   147 	CMPB	RAB$B_RAC(R8),#RAB$C_KEY	; KEYED ACCESS?
                          4E     12  0028   148 	BNEQ	ERRRAC				; NO - IT'S A PROBLEM
            6A            1C     E1  002A   149 	BBC	#DEV$V_RND,IFB$L_PRIM_DEV(R10),ERRRAC	;BRANCH IF NOT DISK
                          4A         002D
            6A            2D     E0  002E   150 	BBS	#IFB$V_SQO,(R10),ERRSQO		;BRANCH IF SQO SET
                          49         0031
                          FFCB'  30  0032   151 	BSBW	RM$SEQKEY			;CONVERT RRN TO RFA
            2A            50     E9  0035   152 	BLBC	R0,EXIT				;GET OUT ON ERRORS
            68            24     E0  0038   153 	BBS	#RAB$V_UIF+ROP,(R8),10$		;BRANCH IF PUT ANYWHERE IS OK
                          14         003B
            6A            18     E0  003C   154 	BBS	#DEV$V_FOR,IFB$L_PRIM_DEV(R10),10$	; BRANCH IF FOREIGN DEVICE
                          10         003F
         44 AA         10 A8     D1  0040   155 	CMPL	RAB$W_RFA(R8),IFB$L_EBK(R10)	;CHECK FOR ATTEMPT TO PUT
                                     0045   156 						;BEYOND EOF
                          2E     1F  0045   157 	BLSSU	ERRNEF1				;BRANCH IF BEFORE EOF (ERROR)
                          07     1A  0047   158 	BGTRU	10$				;BRANCH IF BEYOND
         48 AA         14 A8     B1  0049   159 	CMPW	RAB$W_RFA+4(R8),IFB$W_FFB(R10)	;IN EOF BLK - CHECK OFFSET
                          25     1F  004E   160 	BLSSU	ERRNEF1				;BRANCH IF BEFORE EOF
         42 A9            56     B0  0050   161 10$:	MOVW	R6,IRB$W_CSIZ(R9)		;SET CURRENT RECORD SIZE
            51            56     D0  0054   162 	MOVL	R6,R1				;RESTORE RECORD SIZE
         34 A9         10 A8     7D  0057   163 	MOVQ	RAB$W_RFA(R8),IRB$L_RP_VBN(R9)	;SET RP FROM RFA
                       3A A9     B4  005C   164 	CLRW	IRB$L_RP_OFF+2(R9)		; INSURE VALID LONG WORD OFFSET
                          FF9E'  31  005F   165 	BRW	RM$UPDATE_ALT			;GO DO THE RANDOM PUT
                          FF9B'  31  0062   166 EXIT:	BRW	RM$EXRMS			; RETURN TO THE USER
RM1PUT          SEQUENTIAL SPECIFIC PUT                          21-AUG-1978 21:44:27   VAX-11 MACRO X0.3-11               Page   5
012             RM$PUT1 - HIGH LEVEL SEQUENTIAL $PUT                                                                             (1)

                                     0065   168 ;++
                                     0065   169 ;
                                     0065   170 ; ERROR PROCESSORS
                                     0065   171 ;
                                     0065   172 ;--
            6A            18     E0  0065   173 ERRNEF:	BBS	#DEV$V_FOR,IFB$L_PRIM_DEV(R10),PUTBLK	; ALLOW WRITE ANY WHERE IF NFS
                          B8         0068
            68            21     E1  0069   174 	BBC	#RAB$V_TPT+ROP,(R8),ERRNEF1	;ERROR IF TRUNCATE PUT NOT SPECED
                          08         006C
         22 AA            04     E0  006D   175 	BBS	#FAB$V_TRN,IFB$B_FAC(R10),PUTBLK ;CONTINUE IF TRUNCATE ACCESSED
                          AF         0071
                          FF8B'  31  0072   176 	BRW	RM$ERRFAC			;GO REPORT ERROR
                                     0075   177 ERRNEF1:
                                     0075   178 	$PSECT_BR	L$RMS1
                          FF88'  31  0075       		BRW	L$RMS10
                                     0078       		.SAVE
                                 00000000       		.PSECT	L$RMS1,GBL,NOWRT
                                     0000       L$RMS10:
                                     0000   179 	RMSERR	NEF			; PUT NOT AT END OF FILE
            50       85E4 8F     3C  0000       		MOVZWL	#<RMS$_NEF&^XFFFF>,R0
                          0C     11  0005   180 	BRB	ERROR
                                     0007   181 	$PSECT_RESTORE
                                 00000078       		.RESTORE
                                     0078   182 ERRRAC:	$PSECT_BR	L$RMS1
                          FF8C'  31  0078       		BRW	L$RMS11
                                     007B       		.SAVE
                                 00000007       		.PSECT	L$RMS1,GBL,NOWRT
                                     0007       L$RMS11:
                                     0007   183
                                     0007   184 	RMSERR	RAC				; BAD RECORD ACCESS VALUE
            50       8644 8F     3C  0007       		MOVZWL	#<RMS$_RAC&^XFFFF>,R0
                          05     11  000C   185 	BRB	ERROR
                                     000E   186 	$PSECT_RESTORE
                                 0000007B       		.RESTORE
                                     007B   187 ERRSQO:	$PSECT_BR	L$RMS1
                          FF90'  31  007B       		BRW	L$RMS12
                                     007E       		.SAVE
                                 0000000E       		.PSECT	L$RMS1,GBL,NOWRT
                                     000E       L$RMS12:
                                     000E   188
                                     000E   189 	RMSERR	SQO				; SEQ OUTPUT ONLY AND USER
            50       86C4 8F     3C  000E       		MOVZWL	#<RMS$_SQO&^XFFFF>,R0
                                     0013   190 						; WANTS RANDOM PUT
                          FFEA'  31  0013   191 ERROR:	BRW	RM$EXRMS			; GET OUT
                                     0016   192 	$PSECT_RESTORE
                                 0000007E       		.RESTORE
                                     007E   193 	.END
RM1PUT          SEQUENTIAL SPECIFIC PUT                          21-AUG-1978 21:44:27   VAX-11 MACRO X0.3-11               Page   6
SYMBOL TABLE                                                                                                                     (1)

$$.PSECT_EP    = 00000003            DEV$V_WCK      = 0000001F            FAB$M_EXE      = 00000080
$$RMSTEST      = 0000001A            ERRNEF           00000065 R     02   FAB$M_FTN      = 00000001
$$RMS_PBUGCHK  = 00000010            ERRNEF1          00000075 R     02   FAB$M_GET      = 00000002
$$RMS_TBUGCHK  = 00000008            ERROR            00000013 R     04   FAB$M_INP      = 00080000
$$RMS_UMODE    = 00000004            ERRRAC           00000078 R     02   FAB$M_JNL      = 00400000
BIT...         = 0001C134            ERRSQO           0000007B R     02   FAB$M_KFO      = 40000000
BLKDEV           0000001A R     02   EXIT             00000062 R     02   FAB$M_MSE      = 00000010
CHKRRN           00000024 R     02   FAB$B_BID        00000000            FAB$M_MXV      = 00000002
DEV$M_ALL      = 00800000            FAB$B_BKS        0000003E            FAB$M_NAM      = 01000000
DEV$M_AVL      = 00040000            FAB$B_BLN        00000001            FAB$M_NEF      = 00000400
DEV$M_CCL      = 00000002            FAB$B_DNS        00000035            FAB$M_NFS      = 00010000
DEV$M_DIR      = 00000008            FAB$B_FAC        00000016            FAB$M_NIL      = 00000020
DEV$M_DMT      = 00200000            FAB$B_FNS        00000034            FAB$M_OFP      = 20000000
DEV$M_ELG      = 00400000            FAB$B_FSZ        0000003F            FAB$M_POS      = 00000100
DEV$M_FOD      = 00004000            FAB$B_ORG        0000001D            FAB$M_PPF      = 00040000
DEV$M_FOR      = 01000000            FAB$B_RAT        0000001E            FAB$M_PPF_IND  = 00004000
DEV$M_GEN      = 00020000            FAB$B_RFM        0000001F            FAB$M_PPF_RAT  = 00003FC0
DEV$M_IDV      = 04000000            FAB$B_RTV        0000001C            FAB$M_PRN      = 00000004
DEV$M_MBX      = 00100000            FAB$B_SHR        00000017            FAB$M_PUT      = 00000001
DEV$M_MNT      = 00080000            FAB$C_BID      = 00000003            FAB$M_RCK      = 00800000
DEV$M_NET      = 00002000            FAB$C_BLN        00000050            FAB$M_RWC      = 00000800
DEV$M_ODV      = 08000000            FAB$C_FIX      = 00000001            FAB$M_RWO      = 00000080
DEV$M_RCK      = 40000000            FAB$C_HSH      = 00000030            FAB$M_SCF      = 00004000
DEV$M_REC      = 00000001            FAB$C_IDX      = 00000020            FAB$M_SHRDEL   = 00000004
DEV$M_RND      = 10000000            FAB$C_MAXRFM   = 00000003            FAB$M_SHRGET   = 00000002
DEV$M_RTM      = 20000000            FAB$C_REL      = 00000010            FAB$M_SHRPUT   = 00000001
DEV$M_SDI      = 00000010            FAB$C_RFM_DFLT = 00000002            FAB$M_SHRUPD   = 00000008
DEV$M_SHR      = 00010000            FAB$C_SEQ      = 00000000            FAB$M_SPL      = 00002000
DEV$M_SPL      = 00000040            FAB$C_UDF      = 00000000            FAB$M_SQO      = 00000040
DEV$M_SQD      = 00000020            FAB$C_VAR      = 00000002            FAB$M_SUP      = 00000004
DEV$M_SWL      = 02000000            FAB$C_VFC      = 00000003            FAB$M_TEF      = 10000000
DEV$M_TRM      = 00000004            FAB$K_BLN        00000050            FAB$M_TMD      = 00000010
DEV$M_WCK      = 80000000            FAB$L_ALQ        00000010            FAB$M_TMP      = 00000008
DEV$V_ALL      = 00000017            FAB$L_CTX        00000018            FAB$M_TRN      = 00000010
DEV$V_AVL      = 00000012            FAB$L_DEV        00000040            FAB$M_UFM      = 04000000
DEV$V_CCL      = 00000001            FAB$L_DNA        00000030            FAB$M_UFO      = 00020000
DEV$V_DIR      = 00000003            FAB$L_FNA        0000002C            FAB$M_UPD      = 00000008
DEV$V_DMT      = 00000015            FAB$L_FOP        00000004            FAB$M_UPI      = 00000040
DEV$V_ELG      = 00000016            FAB$L_JNL        00000020            FAB$M_WCK      = 00000200
DEV$V_FOD      = 0000000E            FAB$L_MRN        00000038            FAB$S_ORG      = 00000004
DEV$V_FOR      = 00000018            FAB$L_NAM        00000028            FAB$S_PPF_RAT  = 00000008
DEV$V_GEN      = 00000011            FAB$L_SDC        00000044            FAB$V_BIO      = 00000005
DEV$V_IDV      = 0000001A            FAB$L_STS        00000008            FAB$V_BLK      = 00000003
DEV$V_MBX      = 00000014            FAB$L_STV        0000000C            FAB$V_BRO      = 00000006
DEV$V_MNT      = 00000013            FAB$L_XAB        00000024            FAB$V_CBT      = 00000015
DEV$V_NET      = 0000000D            FAB$M_BIO      = 00000020            FAB$V_CIF      = 00000019
DEV$V_ODV      = 0000001B            FAB$M_BLK      = 00000008            FAB$V_CR       = 00000001
DEV$V_RCK      = 0000001E            FAB$M_BRO      = 00000040            FAB$V_CTG      = 00000014
DEV$V_REC      = 00000000            FAB$M_CBT      = 00200000            FAB$V_DEL      = 00000002
DEV$V_RND      = 0000001C            FAB$M_CIF      = 02000000            FAB$V_DFW      = 00000005
DEV$V_RTM      = 0000001D            FAB$M_CR       = 00000002            FAB$V_DLT      = 0000000F
DEV$V_SDI      = 00000004            FAB$M_CTG      = 00100000            FAB$V_DMO      = 0000000C
DEV$V_SHR      = 00000010            FAB$M_DEL      = 00000004            FAB$V_ESC      = 0000001B
DEV$V_SPL      = 00000006            FAB$M_DFW      = 00000020            FAB$V_EXE      = 00000007
DEV$V_SQD      = 00000005            FAB$M_DLT      = 00008000            FAB$V_FTN      = 00000000
DEV$V_SWL      = 00000019            FAB$M_DMO      = 00001000            FAB$V_GET      = 00000001
DEV$V_TRM      = 00000002            FAB$M_ESC      = 08000000            FAB$V_INP      = 00000013
RM1PUT          SEQUENTIAL SPECIFIC PUT                          21-AUG-1978 21:44:27   VAX-11 MACRO X0.3-11               Page   7
SYMBOL TABLE                                                                                                                     (1)

FAB$V_JNL      = 00000016            IFB$C_BID      = 0000000B            IFB$V_CREATE   = 00000032
FAB$V_KFO      = 0000001E            IFB$C_BLN        00000060            IFB$V_DAP      = 0000003E
FAB$V_MSE      = 00000004            IFB$C_BLN_IDX    00000060            IFB$V_DAP_OPEN = 0000003D
FAB$V_MXV      = 00000001            IFB$C_BLN_REL    00000060            IFB$V_DEL      = 00000002
FAB$V_NAM      = 00000018            IFB$C_BLN_SEQ    0000005C            IFB$V_DFW      = 0000002C
FAB$V_NEF      = 0000000A            IFB$C_DIR      = 00000003            IFB$V_DLT      = 0000002B
FAB$V_NFS      = 00000010            IFB$C_FHAEND     00000050            IFB$V_DMO      = 00000028
FAB$V_NIL      = 00000005            IFB$C_IDX      = 00000002            IFB$V_EOF      = 00000021
FAB$V_OFP      = 0000001D            IFB$C_MAXORG   = 00000002            IFB$V_EXE      = 00000007
FAB$V_ORG      = 00000004            IFB$C_REL      = 00000001            IFB$V_GET      = 00000001
FAB$V_POS      = 00000008            IFB$C_SEQ      = 00000000            IFB$V_MSE      = 00000031
FAB$V_PPF      = 00000012            IFB$K_BLN        00000060            IFB$V_NORECLK  = 00000033
FAB$V_PPF_IND  = 0000000E            IFB$K_BLN_IDX    00000060            IFB$V_NSP      = 0000003F
FAB$V_PPF_RAT  = 00000006            IFB$K_BLN_REL    00000060            IFB$V_NWA      = 0000003C
FAB$V_PRN      = 00000002            IFB$K_BLN_SEQ    0000005C            IFB$V_ORG      = 00000004
FAB$V_PUT      = 00000000            IFB$K_FHAEND     00000050            IFB$V_PPF_IMAGE= 00000022
FAB$V_RCK      = 00000017            IFB$L_ARGLST     00000018            IFB$V_PPF_INPUT= 0000002E
FAB$V_RWC      = 0000000B            IFB$L_ASBADDR    00000014            IFB$V_PUT      = 00000000
FAB$V_RWO      = 00000007            IFB$L_AS_DEV     00000054            IFB$V_RFM      = 00000000
FAB$V_SCF      = 0000000E            IFB$L_BDB_BLNK   00000034            IFB$V_RWC      = 00000027
FAB$V_SHRDEL   = 00000002            IFB$L_BDB_FLNK   00000030            IFB$V_RW_ATTR  = 00000034
FAB$V_SHRGET   = 00000001            IFB$L_BKPBITS    00000004            IFB$V_SCF      = 0000002A
FAB$V_SHRPUT   = 00000000            IFB$L_BWB        0000000C            IFB$V_SPL      = 00000029
FAB$V_SHRUPD   = 00000003            IFB$L_DVBN       00000058            IFB$V_SQO      = 0000002D
FAB$V_SPL      = 0000000D            IFB$L_EBK        00000044            IFB$V_TEF      = 00000036
FAB$V_SQO      = 00000006            IFB$L_FRB_PTR    00000028            IFB$V_TMP      = 00000035
FAB$V_SUP      = 00000002            IFB$L_FWA_BDB    00000050            IFB$V_TRN      = 00000004
FAB$V_TEF      = 0000001C            IFB$L_HBK        00000040            IFB$V_UPD      = 00000003
FAB$V_TMD      = 00000004            IFB$L_IDX_PTR    00000054            IFB$V_WRTACC   = 00000030
FAB$V_TMP      = 00000003            IFB$L_IOS        0000000C            IFB$W_ASDEVBSIZ  0000005A
FAB$V_TRN      = 00000004            IFB$L_IOS4       00000010            IFB$W_BKS_BYTES  0000005C
FAB$V_UFM      = 0000001A            IFB$L_IRAB_LNK   0000001C            IFB$W_BKS_RECS   0000005E
FAB$V_UFO      = 00000011            IFB$L_LAST_FAB   00000024            IFB$W_CHNL       00000020
FAB$V_UPD      = 00000003            IFB$L_LOCK_BDB   00000050            IFB$W_DEQ        0000004E
FAB$V_UPI      = 00000006            IFB$L_MRN        00000054            IFB$W_DEVBUFSIZ  00000038
FAB$V_WCK      = 00000009            IFB$L_NRP_LNK    00000050            IFB$W_EBK0       00000044
FAB$W_BLS        0000003C            IFB$L_NWA_PTR    00000028            IFB$W_EBK2       00000046
FAB$W_DEQ        00000014            IFB$L_PRIM_DEV   00000000            IFB$W_FFB        00000048
FAB$W_IFI        00000002            IFB$L_RLB_LNK    0000002C            IFB$W_IOS2       0000000E
FAB$W_MRS        00000036            IFB$L_RNS_LEN    00000050            IFB$W_LRL        0000003E
GBL...         = 00000000            IFB$M_BIO      = 00000020            IFB$W_MRS        0000004C
IFB$B_AMAX       00000059            IFB$M_BRO      = 00000040            IFB$W_RTDEQ      0000003A
IFB$B_AVBN       00000058            IFB$M_DEL      = 00000004            IRB$B_BCNT       00000040
IFB$B_BID        00000008            IFB$M_EXE      = 00000080            IRB$B_BID        00000008
IFB$B_BKS        0000004A            IFB$M_GET      = 00000002            IRB$B_BLN        00000009
IFB$B_BLN        00000009            IFB$M_PUT      = 00000001            IRB$B_EFN        0000000B
IFB$B_EFN        0000000B            IFB$M_TRN      = 00000010            IRB$B_KEYSZ      00000051
IFB$B_EXTRABUF   0000005D            IFB$M_UPD      = 00000008            IRB$B_MBC        00000041
IFB$B_FAC        00000022            IFB$S_ORG      = 00000004            IRB$B_MODE       0000000A
IFB$B_FSZ        0000004B            IFB$S_RFM      = 00000004            IRB$B_NRP_ID     00000030
IFB$B_KBUFSZ     0000005C            IFB$V_ACCESSED = 00000025            IRB$B_NRP_KREF   00000031
IFB$B_MODE       0000000A            IFB$V_ANSI_D   = 00000026            IRB$B_NVBNS      00000048
IFB$B_NUM_KEYS   0000005A            IFB$V_ASYNC    = 00000023            IRB$B_POST_CCTL  00000045
IFB$B_ORGCASE    00000023            IFB$V_ASYNCWAIT= 00000024            IRB$B_PPF_ISI    0000003E
IFB$B_RAT        0000003D            IFB$V_BIO      = 00000005            IRB$B_PRE_CCTL   00000044
IFB$B_RFMORG     0000003C            IFB$V_BRO      = 00000006            IRB$B_RFA_ID     00000058
IFB$B_UBUFSZ     0000005B            IFB$V_BUSY     = 00000020            IRB$B_RP_ID      00000038
RM1PUT          SEQUENTIAL SPECIFIC PUT                          21-AUG-1978 21:44:27   VAX-11 MACRO X0.3-11               Page   8
SYMBOL TABLE                                                                                                                     (1)

IRB$B_RP_KREF    00000039            IRB$V_RAHWBH   = 0000002A            RAB$M_HSH      = 00000080
IRB$B_RRV_ID     00000050            IRB$V_SKIP_NEXT= 0000002B            RAB$M_KGE      = 00200000
IRB$B_SRCHFLAGS  00000043            IRB$V_SRCHGT   = 00000001            RAB$M_KGT      = 00400000
IRB$B_STOPLEVEL  00000042            IRB$V_UNLOCK_RP= 0000002D            RAB$M_LIM      = 00004000
IRB$C_BID      = 0000000A            IRB$V_WRITE    = 00000029            RAB$M_LOA      = 00002000
IRB$C_BLN_IDX    0000006C            IRB$W_CSIZ       00000042            RAB$M_LOC      = 00010000
IRB$C_BLN_REL    00000048            IRB$W_DUP_POS    00000032            RAB$M_MAS      = 00000020
IRB$C_BLN_SEQ    0000004C            IRB$W_IOS2       0000000E            RAB$M_NLK      = 00100000
IRB$K_BLN_IDX    0000006C            IRB$W_NRP_OFF    00000030            RAB$M_NXR      = 00800000
IRB$K_BLN_REL    00000048            IRB$W_OWN_ID     0000003C            RAB$M_PMT      = 40000000
IRB$K_BLN_SEQ    0000004C            IRB$W_OWN_ISI    0000003E            RAB$M_PPF_IND  = 00004000
IRB$L_ARGLST     00000018            IRB$W_ROVHDSZ    00000044            RAB$M_PPF_RAT  = 00003FC0
IRB$L_ASBADDR    00000014            IRB$W_RP_OFF     00000038            RAB$M_PTA      = 20000000
IRB$L_BKPBITS    00000004            IRB$W_RTOTLSZ    00000046            RAB$M_RAH      = 00000200
IRB$L_BWB        0000000C            IRB$W_SAVE_POS   00000052            RAB$M_RLK      = 00080000
IRB$L_CURBDB     00000020            L$RMS10          00000000 R     04   RAB$M_RNE      = 01000000
IRB$L_CURVBN     00000030            L$RMS11          00000007 R     04   RAB$M_RNF      = 08000000
IRB$L_IFAB_LNK   00000000            L$RMS12          0000000E R     04   RAB$M_TMO      = 02000000
IRB$L_IOS        0000000C            PIO$GL_FMLH      ********   X   02   RAB$M_TPT      = 00000002
IRB$L_IOS4       00000010            PUTBLK           00000021 R     02   RAB$M_UIF      = 00000010
IRB$L_IRAB_LNK   0000001C            RAB$B_BID        00000000            RAB$M_ULK      = 00040000
IRB$L_KEYBUF     00000048            RAB$B_BLN        00000001            RAB$M_WAT      = 00020000
IRB$L_LAST_RAB   00000024            RAB$B_KRF        00000035            RAB$M_WBH      = 00000400
IRB$L_LOCK_BDB   0000005C            RAB$B_KSZ        00000034            RAB$S_PPF_RAT  = 00000008
IRB$L_NRP        0000002C            RAB$B_MBC        00000037            RAB$V_ASY      = 00000000
IRB$L_NRP_OFF    00000030            RAB$B_MBF        00000036            RAB$V_BIO      = 0000000B
IRB$L_NRP_VBN    0000002C            RAB$B_PSZ        00000034            RAB$V_CCO      = 0000001F
IRB$L_NXTBDB     00000028            RAB$B_RAC        0000001E            RAB$V_CVT      = 0000001A
IRB$L_OWNER_ID   0000003C            RAB$B_ROP1       00000005            RAB$V_EOF      = 00000008
IRB$L_RFA_VBN    00000054            RAB$B_ROP2       00000006            RAB$V_FDL      = 00000006
IRB$L_RLB_ADDR   00000044            RAB$B_ROP3       00000007            RAB$V_HSH      = 00000007
IRB$L_RP         00000034            RAB$B_TMO        0000001F            RAB$V_KGE      = 00000015
IRB$L_RP_OFF     00000038            RAB$C_BID      = 00000001            RAB$V_KGT      = 00000016
IRB$L_RP_VBN     00000034            RAB$C_BLN        00000044            RAB$V_LIM      = 0000000E
IRB$L_RRV_VBN    0000004C            RAB$C_KEY      = 00000001            RAB$V_LOA      = 0000000D
IRB$L_TEMP0      00000044            RAB$C_RFA      = 00000002            RAB$V_LOC      = 00000010
IRB$L_TEMP1      00000048            RAB$C_SEQ      = 00000000            RAB$V_MAS      = 00000005
IRB$V_ASYNC    = 00000023            RAB$K_BLN        00000044            RAB$V_NLK      = 00000014
IRB$V_ASYNCWAIT= 00000024            RAB$L_BKT        00000038            RAB$V_NXR      = 00000017
IRB$V_BIO_LAST = 00000027            RAB$L_CTX        00000018            RAB$V_PMT      = 0000001E
IRB$V_BRO_SW   = 00000028            RAB$L_DCT        00000038            RAB$V_PPF_IND  = 0000000E
IRB$V_BUSY     = 00000020            RAB$L_FAB        0000003C            RAB$V_PPF_RAT  = 00000006
IRB$V_DAP_CONN = 0000003E            RAB$L_KBF        00000030            RAB$V_PTA      = 0000001D
IRB$V_DAP_FMODE= 0000003F            RAB$L_PBF        00000030            RAB$V_RAH      = 00000009
IRB$V_DUP      = 0000002C            RAB$L_RBF        00000028            RAB$V_RLK      = 00000013
IRB$V_EOF      = 00000021            RAB$L_RFA0       00000010            RAB$V_RNE      = 00000018
IRB$V_FIND     = 00000029            RAB$L_RHB        0000002C            RAB$V_RNF      = 0000001B
IRB$V_FIND_LAST= 00000025            RAB$L_ROP        00000004            RAB$V_TMO      = 00000019
IRB$V_IDX_ERR  = 00000031            RAB$L_STS        00000008            RAB$V_TPT      = 00000001
IRB$V_LOCKABOVE= 00000002            RAB$L_STV        0000000C            RAB$V_UIF      = 00000004
IRB$V_NEW_IDX  = 00000003            RAB$L_UBF        00000024            RAB$V_ULK      = 00000012
IRB$V_POSINSERT= 00000000            RAB$M_ASY      = 00000001            RAB$V_WAT      = 00000011
IRB$V_PPF_EOF  = 0000002E            RAB$M_BIO      = 00000800            RAB$V_WBH      = 0000000A
IRB$V_PPF_FNDSV= 00000030            RAB$M_CCO      = 80000000            RAB$W_ISI        00000002
IRB$V_PPF_IMAGE= 00000022            RAB$M_CVT      = 04000000            RAB$W_RFA        00000010
IRB$V_PPF_SKIP = 0000002F            RAB$M_EOF      = 00000100            RAB$W_RFA4       00000014
IRB$V_PUTS_LAST= 00000026            RAB$M_FDL      = 00000040            RAB$W_RSZ        00000022
RM1PUT          SEQUENTIAL SPECIFIC PUT                          21-AUG-1978 21:44:27   VAX-11 MACRO X0.3-11               Page   9
SYMBOL TABLE                                                                                                                     (1)

RAB$W_USZ        00000020            RMS$_DNF       = 0001C04A            RMS$_OK_ALK    = 00018039
RM$CHKEOF1       ********   X   02   RMS$_DNR       = 00018272            RMS$_OK_DEL    = 00018041
RM$ERRFAC        ********   X   02   RMS$_DPE       = 0001C03A            RMS$_OK_DUP    = 00018011
RM$EXRMS         ********   X   02   RMS$_DTP       = 000184E4            RMS$_OK_IDX    = 00018019
RM$PUT1          00000000 RG    02   RMS$_DUP       = 000184EC            RMS$_OK_LIM    = 00018051
RM$PUTSETUP1     ********   X   02   RMS$_DVI       = 000184F4            RMS$_OK_RLK    = 00018021
RM$PUT_BLK_DEV   ********   X   02   RMS$_ENT       = 0001C01A            RMS$_OK_RNF    = 00018049
RM$PUT_UNIT_REC  ********   X   02   RMS$_ENV       = 00018724            RMS$_OK_RRV    = 00018029
RM$SEQKEY        ********   X   02   RMS$_EOF       = 0001827A            RMS$_ORD       = 00018604
RM$UPDATE_ALT    ********   X   02   RMS$_ESA       = 000184FC            RMS$_ORG       = 0001860C
RMS$V_STVSTATUS= 0000000E            RMS$_ESL       = 00018714            RMS$_PBF       = 00018614
RMS$_ABO       = 000183EC            RMS$_ESS       = 00018504            RMS$_PENDING   = 00018009
RMS$_ACC       = 0001C002            RMS$_EXP       = 000182C2            RMS$_PLG       = 0001861C
RMS$_ACT       = 0001825A            RMS$_EXT       = 0001C022            RMS$_PLV       = 0001872C
RMS$_AID       = 000183F4            RMS$_FAB       = 0001850C            RMS$_POS       = 00018624
RMS$_ALN       = 000183FC            RMS$_FAC       = 00018514            RMS$_PRM       = 0001862C
RMS$_ALQ       = 00018404            RMS$_FEX       = 00018282            RMS$_PRV       = 0001829A
RMS$_ANI       = 0001840C            RMS$_FLG       = 0001851C            RMS$_QUO       = 00018634
RMS$_AOP       = 00018414            RMS$_FLK       = 0001828A            RMS$_RAB       = 0001863C
RMS$_ATR       = 0001C0CC            RMS$_FNA       = 00018524            RMS$_RAC       = 00018644
RMS$_ATW       = 0001C0D4            RMS$_FND       = 0001C02A            RMS$_RAT       = 0001864C
RMS$_BKS       = 0001841C            RMS$_FNF       = 00018292            RMS$_RBF       = 00018654
RMS$_BKZ       = 00018424            RMS$_FNM       = 0001852C            RMS$_RER       = 0001C0F4
RMS$_BLN       = 0001842C            RMS$_FOP       = 0001853C            RMS$_REX       = 000182A2
RMS$_BOF       = 00018198            RMS$_FSZ       = 00018534            RMS$_RFA       = 0001865C
RMS$_BUG       = 00018434            RMS$_FUL       = 00018544            RMS$_RFM       = 00018664
RMS$_BUG_DAP   = 00018444            RMS$_IAL       = 0001854C            RMS$_RHB       = 0001866C
RMS$_BUG_DDI   = 0001843C            RMS$_IAN       = 00018554            RMS$_RLF       = 00018674
RMS$_BUG_XX2   = 0001844C            RMS$_IBF       = 00018754            RMS$_RLK       = 000182AA
RMS$_BUG_XX3   = 00018454            RMS$_IDX       = 0001855C            RMS$_RMV       = 0001C0FC
RMS$_BUG_XX4   = 0001845C            RMS$_IFA       = 0001C124            RMS$_RNF       = 000182B2
RMS$_BUG_XX5   = 00018464            RMS$_IFI       = 00018564            RMS$_RNL       = 000181A0
RMS$_BUG_XX6   = 0001846C            RMS$_IMX       = 0001856C            RMS$_ROP       = 0001867C
RMS$_BUG_XX7   = 00018474            RMS$_IOP       = 00018574            RMS$_RPL       = 0001C104
RMS$_BUG_XX8   = 0001847C            RMS$_IRC       = 0001857C            RMS$_RRV       = 00018684
RMS$_BUG_XX9   = 00018484            RMS$_ISI       = 00018584            RMS$_RSA       = 000182DA
RMS$_CAA       = 0001848C            RMS$_KBF       = 0001858C            RMS$_RSL       = 0001873C
RMS$_CCF       = 0001C0DC            RMS$_KEY       = 00018594            RMS$_RSS       = 00018694
RMS$_CCR       = 00018494            RMS$_KFF       = 00018031            RMS$_RST       = 0001869C
RMS$_CDA       = 0001C0E4            RMS$_KRF       = 0001859C            RMS$_RSZ       = 000186A4
RMS$_CHG       = 0001849C            RMS$_KSZ       = 000185A4            RMS$_RTB       = 000181A8
RMS$_CHK       = 000184A4            RMS$_LAN       = 000185AC            RMS$_SEQ       = 000186AC
RMS$_CHN       = 0001C0EC            RMS$_LBL       = 000185B4            RMS$_SHR       = 000186B4
RMS$_COD       = 000184AC            RMS$_LNE       = 000185BC            RMS$_SIZ       = 000186BC
RMS$_CONTROLC  = 00010651            RMS$_LOC       = 000185C4            RMS$_SPL       = 0001C042
RMS$_CONTROLO  = 00010609            RMS$_MBC       = 00018734            RMS$_SQO       = 000186C4
RMS$_CONTROLY  = 00010611            RMS$_MKD       = 0001C032            RMS$_STALL     = 00018001
RMS$_CRE       = 0001C00A            RMS$_MRN       = 000185CC            RMS$_STK       = 000186CC
RMS$_CREATED   = 00010619            RMS$_MRS       = 000185D4            RMS$_SUC       = 00010001
RMS$_CUR       = 000184B4            RMS$_NAM       = 000185DC            RMS$_SUP       = 000182D2
RMS$_DAC       = 0001C012            RMS$_NEF       = 000185E4            RMS$_SUPERSEDE = 00010631
RMS$_DAN       = 000184BC            RMS$_NET       = 0001874C            RMS$_SYN       = 000186D4
RMS$_DEL       = 00018262            RMS$_NID       = 000185EC            RMS$_SYS       = 0001C10C
RMS$_DEV       = 000184C4            RMS$_NMF       = 000182CA            RMS$_TEMP1     = 0001826A
RMS$_DIR       = 000184CC            RMS$_NOD       = 000185F4            RMS$_TEMP2     = 0001868C
RMS$_DME       = 000184D4            RMS$_NORMAL    = 00010001            RMS$_TMO       = 000181B0
RMS$_DNA       = 000184DC            RMS$_NPK       = 000185FC            RMS$_TRE       = 000186DC
RM1PUT          SEQUENTIAL SPECIFIC PUT                          21-AUG-1978 21:44:27   VAX-11 MACRO X0.3-11               Page  10
SYMBOL TABLE                                                                                                                     (1)

RMS$_TYP       = 000186E4
RMS$_UBF       = 000186EC
RMS$_USZ       = 000186F4
RMS$_VER       = 000186FC
RMS$_VOL       = 00018704
RMS$_WBE       = 0001C12C
RMS$_WER       = 0001C114
RMS$_WLD       = 00018744
RMS$_WLK       = 000182BA
RMS$_WPL       = 0001C11C
RMS$_WSF       = 0001871C
RMS$_XAB       = 0001870C
ROP            = 00000020
TPT$L_PUT1       ********   X   02


PROGRAM SECTION SYNOPSIS

.  ABS  .        00000000      00     NOPIC   USR   CON   ABS   LCL NOSHR NOEXE NORD  NOWRT BYTE
. BLANK .        00000000      01     NOPIC   USR   CON   REL   LCL NOSHR   EXE   RD    WRT BYTE
$RMS1            0000007E      02     NOPIC   USR   CON   REL   GBL NOSHR   EXE   RD  NOWRT BYTE
$ABS$            0000006C      03     NOPIC   USR   CON   ABS   LCL NOSHR   EXE   RD    WRT BYTE
L$RMS1           00000016      04     NOPIC   USR   CON   REL   GBL NOSHR   EXE   RD  NOWRT BYTE


THERE WERE NO ERRORS OR WARNINGS.
8436. BYTES LEFT IN FREE MEMORY POOL.
2752. BYTES OF RECLAIMED MEMORY.
OBJ$:RM1PUT,LIS$:RM1PUT/-SP=EXECML$/ML,LIB$:R/ML,SRC$:RM1PUT
27 MLB DIR RDS - 1076 GETS TO DEFINE 23 MACROS. 83 INTER. FILE WRITES.
