RM1WTLST        WRITE LAST BLOCK SEQ.                            21-AUG-1978 21:50:26   VAX-11 MACRO X0.3-11               Page   0
TABLE OF CONTENTS

   (1)      44  DECLARATIONS
   (1)      67  RM$WTLST1  -  WRITE LAST BLOCK, PADDING IF AT E
RM1WTLST        WRITE LAST BLOCK SEQ.                            21-AUG-1978 21:50:26   VAX-11 MACRO X0.3-11               Page   1
009                                                                                                                              (1)

                                     0000     1 	$BEGIN	RM1WTLST,009,F$RMSCLOSE1,<WRITE LAST BLOCK SEQ.>
                                     0000     2 ;
                                     0000     3 ; COPYRIGHT (C) 1977
                                     0000     4 ; DIGITAL EQUIPMENT CORPORATION, MAYNARD, MASSACHUSETTS 01754
                                     0000     5 ;
                                     0000     6 ; THIS SOFTWARE IS FURNISHED  UNDER A LICENSE FOR USE ONLY ON A SINGLE
                                     0000     7 ; COMPUTER  SYSTEM AND  MAY BE  COPIED ONLY WITH  THE INCLUSION OF THE
                                     0000     8 ; ABOVE COPYRIGHT NOTICE.  THIS SOFTWARE, OR ANY OTHER COPIES THEREOF,
                                     0000     9 ; MAY NOT BE PROVIDED OR  OTHERWISE MADE AVAILABLE TO ANY OTHER PERSON
                                     0000    10 ; EXCEPT FOR USE ON SUCH SYSTEM AND TO ONE WHO AGREES TO THESE LICENSE
                                     0000    11 ; TERMS.  TITLE TO AND  OWNERSHIP OF THE  SOFTWARE  SHALL AT ALL TIMES
                                     0000    12 ; REMAIN IN DEC.
                                     0000    13 ;
                                     0000    14 ; THE INFORMATION IN THIS SOFTWARE IS SUBJECT TO CHANGE WITHOUT NOTICE
                                     0000    15 ; AND SHOULD  NOT BE CONSTRUED  AS A COMMITMENT  BY DIGITAL  EQUIPMENT
                                     0000    16 ; CORPORATION.
                                     0000    17 ;
                                     0000    18 ; DEC ASSUMES  NO  RESPONSIBILITY  FOR  THE USE OR  RELIABILITY OF ITS
                                     0000    19 ; SOFTWARE ON EQUIPMENT WHICH IS NOT SUPPLIED BY DEC.
                                     0000    20 ;
                                     0000    21 ;++
                                     0000    22 ; FACILITY: RMS32
                                     0000    23 ;
                                     0000    24 ; ABSTRACT:
                                     0000    25 ;
                                     0000    26 ;	THIS MODULE WRITES OUT THE LAST BLOCK
                                     0000    27 ;	OF A SEQUENTIAL FILE IF AT EOF AND DIRTY.
                                     0000    28 ;
                                     0000    29 ; ENVIRONMENT:
                                     0000    30 ;		STAR PROCESSOR RUNNING STARLET EXEC.
                                     0000    31 ;
                                     0000    32 ; AUTHOR: L F LAVERDURE,	 CREATION DATE: 29-MARCH-77
                                     0000    33 ;
                                     0000    34 ; MODIFIED BY:
                                     0000    35 ;
                                     0000    36 ;	L F LAVERDURE,      8-AUG-78  17:10
                                     0000    37 ;	R A NEWELL,      3-AUG-78  17:33
                                     0000    38 ;	R A NEWELL,      26-JUL-78  16:30
                                     0000    39 ;	E H MARISON,   7-JUN-78  12:56
                                     0000    40 ;			ADD MBF QUIET LOGIC
                                     0000    41 ; 01	-
                                     0000    42 ;--
RM1WTLST        WRITE LAST BLOCK SEQ.                            21-AUG-1978 21:50:26   VAX-11 MACRO X0.3-11               Page   2
009             DECLARATIONS                                                                                                     (1)

                                     0000    44 	.SBTTL	DECLARATIONS
                                     0000    45 ;
                                     0000    46 ; INCLUDE FILES:
                                     0000    47 ;
                                     0000    48
                                     0000    49 ;
                                     0000    50 ; MACROS:
                                     0000    51 ;
                                     0000    52 	$IFBDEF
                                     0000    53 	$IRBDEF
                                     0000    54 	$BDBDEF
                                     0000    55 	$FABDEF
                                     0000    56 	$RABDEF
                                     0000    57 	$DEVDEF
                                     0000    58
                                     0000    59 ;
                                     0000    60 ; EQUATED SYMBOLS:
                                     0000    61 ;
                                     0000    62 ;
                                     0000    63 ; OWN STORAGE:
                                     0000    64 ;
                                     0000    65
RM1WTLST        WRITE LAST BLOCK SEQ.                            21-AUG-1978 21:50:26   VAX-11 MACRO X0.3-11               Page   3
009             RM$WTLST1  -  WRITE LAST BLOCK, PADDING IF AT E                                                                  (1)

                                     0000    67 	.SBTTL RM$WTLST1  -  WRITE LAST BLOCK, PADDING IF AT EOF
                                     0000    68 ;++
                                     0000    69 ; FUNCTIONAL DESCRIPTION:
                                     0000    70 ;
                                     0000    71 ; IF THERE IS A CURRENT BDB, RELEASE IT, WRITING IF DIRTY AND PADDING IF AT EOF.
                                     0000    72 ;
                                     0000    73 ; CALLING SEQUENCE:
                                     0000    74 ;
                                     0000    75 ;	BSBW	RM$WTLST1
                                     0000    76 ;
                                     0000    77 ; INPUT PARAMETERS:
                                     0000    78 ;
                                     0000    79 ;	R11	IMPURE AREA ADDRESS
                                     0000    80 ;	R10	IFAB ADDRESS
                                     0000    81 ;	R9	IRAB ADDRESS
                                     0000    82 ;	R8	RAB ADDRESS
                                     0000    83 ;
                                     0000    84 ; IMPLICIT INPUTS:
                                     0000    85 ;
                                     0000    86 ; THE CONTENTS OF THE VARIOUS INTERNAL STRUCTURES,
                                     0000    87 ; IN PARTICULAR:
                                     0000    88 ;
                                     0000    89 ;	IRB$L_CURBDB
                                     0000    90 ;	IRB$V_EOF
                                     0000    91 ;	IRB$W_NRP_OFF
                                     0000    92 ;	BDB$V_DRT
                                     0000    93 ;	BDB$W_NUMB
                                     0000    94 ;	IFB$B_RFM
                                     0000    95 ;	IFB$V_ANSI_D
                                     0000    96 ;	IFB$L_PRIM_DEV
                                     0000    97 ;	THE VARIOUS INPUTS TO RM$RELBLK1 AND RM$MAPBLK1
                                     0000    98 ;
                                     0000    99 ; OUTPUT PARAMETERS:
                                     0000   100 ;
                                     0000   101 ;	R0	STATUS CODE
                                     0000   102 ;	R1-R4,AP DESTROYED
                                     0000   103 ;
                                     0000   104 ; IMPLICIT OUTPUTS:
                                     0000   105 ;
                                     0000   106 ;	THE CURRENT BDB IS RELEASED, WITH
                                     0000   107 ;	PADDING AND WRITING IF NECESSARY.
                                     0000   108 ;
                                     0000   109 ; COMPLETION CODES:
                                     0000   110 ;
                                     0000   111 ;	STANDARD RMS, AS PER RM$RELBLK1.
                                     0000   112 ;
                                     0000   113 ; SIDE EFFECTS:
                                     0000   114 ;
                                     0000   115 ;	MAY HAVE SWITCHED TO RUNNING AT AST LEVEL.
                                     0000   116 ;
                                     0000   117 ;--
RM1WTLST        WRITE LAST BLOCK SEQ.                            21-AUG-1978 21:50:26   VAX-11 MACRO X0.3-11               Page   4
009             RM$WTLST1  -  WRITE LAST BLOCK, PADDING IF AT E                                                                  (1)

                                     0000   119 RM$WTLST1::
                                     0000   120 	$TSTPT	WTLST1
            54         20 A9     D0  0006   121 	MOVL	IRB$L_CURBDB(R9),R4	; GET CURRENT BDB
                          51     13  000A   122 	BEQL	WTLXIT			; BRANCH IF NONE
            69            21     E1  000C   123 	BBC	#IRB$V_EOF,(R9),REL1	  ; BRANCH IF NOT EOF
                          39         000F
         0A A4            01     E1  0010   124 	BBC	#BDB$V_DRT,BDB$B_FLGS(R4),REL1	; OR IF BUFFER NOT DIRTY
                          34         0014
                                     0015   125 ;
                                     0015   126 ; PAD OUT LAST BLOCK IF NOT FULL OR MAKE
                                     0015   127 ; IT A SHORT WRITE IF APPROPRIATE
                                     0015   128 ; (NOTE: UNIT RECORD DEVICE WILL NOT BE DIRTY, HENCE WON'T COME HERE).
                                     0015   129 ;
                          57     DD  0015   130 	PUSHL	R7
                          FFE6'  30  0017   131 	BSBW	RM$MAPBLK1		; MAP THE BUFFER
                                     001A   132 					; R1 = BUFFER ADDR
                                     001A   133 					; R7 = BUFFER END ADDR+1
            52         30 A9     3C  001A   134 	MOVZWL	IRB$W_NRP_OFF(R9),R2	; GET OFFSET IN BLOCK
                          04     12  001E   135 	BNEQ	10$			; BRANCH IF NON-ZERO
            6A            05     E1  0020   136 	BBC	#DEV$V_SQD,IFB$L_PRIM_DEV(R10),RELEASE	; BRANCH IF NOT MAGTAPE
                          22         0023
                                     0024   137 ;!!!!!
                                     0024   138 ;
                                     0024   139 ;  NOTE:
                                     0024   140 ;	THE ABOVE TEST CAUSES A MAGTAPE THAT HAS BEEN TRUNCATED (THE ONLY CASE
                                     0024   141 ;	THAT COULD LEAVE A ZERO LENGTH BUFFER DIRTY) TO HAVE A BLOCK WRITTEN
                                     0024   142 ;	BACK OUT SO THAT THE TRUNCATE REALLY TAKES EFFECT.  FOR VARIABLE LENGTH
                                     0024   143 ;	RECORDS AN ENTIRE BLOCK OF PAD CHARACTERS IS WRITTEN.  FOR FIXED LENGTH
                                     0024   144 ;	RECORDS AN ATTEMPT IS MADE TO WRITE A ZERO LENGTH BLOCK, WHICH EVENTUALLY
                                     0024   145 ;	FAILS.  THIS IS A LEGITIMATE BUG, WHICH SHOULD BE FIXED IN TRUNCATE BY
                                     0024   146 ;	TELLING THE MAGTAPE ACP THAT THE FUNCTION IS TRUNCATE, NOT BACKSPACE,
                                     0024   147 ;	IF AND WHEN THE ACP GETS THE FUNCTION.  WHEN THIS OCCURS THE ABOVE CODE
                                     0024   148 ;	TO SPECIAL CASE FOR MAGTAPE CAN BE REWORKED.
                                     0024   149 ;
                                     0024   150 ;!!!!!
            51            52     C0  0024   151 10$:	ADDL2	R2,R1			; GET ADDR OF NEXT BYTE
            57            51     C3  0027   152 	SUBL3	R1,R7,R0		; GET # BYTES LEFT
                          50         002A
            01         3C AA     91  002B   153 	CMPB	IFB$B_RFMORG(R10),#FAB$C_FIX	; FIXED LENGTH RECORDS?
                          0A     13  002F   154 	BEQL	SHORT_BLK		; BRANCH IF YES
         3D AA            03     E1  0031   155 	BBC	#FAB$V_BLK,IFB$B_RAT(R10),RELEASE  ; PAD NOT NEEDED IF RECS
                          10         0035
                          FFC7'  30  0036   156 	BSBW	RM$PADBLK1ALT		; PAD OUT THE BLOCK
                          0B     11  0039   157 	BRB	RELEASE
                                     003B   158 ;
                                     003B   159 ; FIXED LENGTH RECORDS.
                                     003B   160 ; IF NOT DISK, WRITE A SHORT BLOCK.
                                     003B   161 ;
                                     003B   162 SHORT_BLK:
            6A            05     E1  003B   163 	BBC	#DEV$V_SQD,IFB$L_PRIM_DEV(R10),RELEASE ; BRANCH IF NOT MAGTAPE
                          07         003E
                          52     D6  003F   164 	INCL	R2			; ROUND UP # BYTES USED FOR MAGTAPE
            52            01     AB  0041   165 	BICW3	#1,R2,BDB$W_NUMB(R4)	; AND SET LENGTH OF BUFFER
                       10 A4         0044
                                     0046   166 ;
                                     0046   167 ; RELEASE BUFFER, WRITING AND EXTENDING IF NEEDED
                                     0046   168 ;
RM1WTLST        WRITE LAST BLOCK SEQ.                            21-AUG-1978 21:50:26   VAX-11 MACRO X0.3-11               Page   5
009             RM$WTLST1  -  WRITE LAST BLOCK, PADDING IF AT E                                                                  (1)

                                     0046   169 RELEASE:
            57            8E     D0  0046   170 	MOVL	(SP)+,R7
                          FFB4'  30  0049   171 REL1:	BSBW	RM$RELBLK1
            0E            50     E8  004C   172 	BLBS	R0,WTLXIT		; BRANCH IF ALL OK
                          50     DD  004F   173 	PUSHL	R0			; SAVE STATUS
                       0C A8     DD  0051   174 	PUSHL	RAB$L_STV(R8)
                          07     10  0054   175 	BSBB	WTLXIT			; QUIET ALL OTHER IO IF ANY
         0C A8            8E     D0  0056   176 	MOVL	(SP)+,RAB$L_STV(R8)	; RESTORE STATUS
                          01     BA  005A   177 	POPR	#^M<R0>
                                 05  005C   178 	RSB
                                     005D   179 ;
                                     005D   180 ;  QUIET ALL RAH/WBH IO IF ANY AND EXIT
                                     005D   181 ;
                          FFA0'  31  005D   182 WTLXIT:	BRW	RM$QUIET_SEQMBF		; MAKE SURE ALL IO IS DONE AND RETURN
                                     0060   183 	.END
RM1WTLST        WRITE LAST BLOCK SEQ.                            21-AUG-1978 21:50:26   VAX-11 MACRO X0.3-11               Page   6
SYMBOL TABLE                                                                                                                     (1)

$$.PSECT_EP    = 00000000            DEV$M_ODV      = 08000000            FAB$C_SEQ      = 00000000
$$RMSTEST      = 0000001A            DEV$M_RCK      = 40000000            FAB$C_UDF      = 00000000
$$RMS_PBUGCHK  = 00000010            DEV$M_REC      = 00000001            FAB$C_VAR      = 00000002
$$RMS_TBUGCHK  = 00000008            DEV$M_RND      = 10000000            FAB$C_VFC      = 00000003
$$RMS_UMODE    = 00000004            DEV$M_RTM      = 20000000            FAB$K_BLN        00000050
BDB$B_BID        00000008            DEV$M_SDI      = 00000010            FAB$L_ALQ        00000010
BDB$B_BLN        00000009            DEV$M_SHR      = 00010000            FAB$L_CTX        00000018
BDB$B_FLGS       0000000A            DEV$M_SPL      = 00000040            FAB$L_DEV        00000040
BDB$B_POST_CCTL  00000023            DEV$M_SQD      = 00000020            FAB$L_DNA        00000030
BDB$B_PRE_CCTL   00000022            DEV$M_SWL      = 02000000            FAB$L_FNA        0000002C
BDB$B_REL_VBN    00000020            DEV$M_TRM      = 00000004            FAB$L_FOP        00000004
BDB$B_USECNT     0000000B            DEV$M_WCK      = 80000000            FAB$L_JNL        00000020
BDB$B_VAL_VBNS   00000021            DEV$V_ALL      = 00000017            FAB$L_MRN        00000038
BDB$C_BID      = 0000000C            DEV$V_AVL      = 00000012            FAB$L_NAM        00000028
BDB$C_BLN        00000028            DEV$V_CCL      = 00000001            FAB$L_SDC        00000044
BDB$K_BLN        00000028            DEV$V_DIR      = 00000003            FAB$L_STS        00000008
BDB$L_ADDR       00000014            DEV$V_DMT      = 00000015            FAB$L_STV        0000000C
BDB$L_BLINK      00000004            DEV$V_ELG      = 00000016            FAB$L_XAB        00000024
BDB$L_CURBUFADR  00000024            DEV$V_FOD      = 0000000E            FAB$M_BIO      = 00000020
BDB$L_FLINK      00000000            DEV$V_FOR      = 00000018            FAB$M_BLK      = 00000008
BDB$L_IOSB       00000020            DEV$V_GEN      = 00000011            FAB$M_BRO      = 00000040
BDB$L_OWN        0000000C            DEV$V_IDV      = 0000001A            FAB$M_CBT      = 00200000
BDB$L_VBN        00000018            DEV$V_MBX      = 00000014            FAB$M_CIF      = 02000000
BDB$L_WAIT       0000001C            DEV$V_MNT      = 00000013            FAB$M_CR       = 00000002
BDB$L_WK1        00000020            DEV$V_NET      = 0000000D            FAB$M_CTG      = 00100000
BDB$M_AST_DCL  = 00000040            DEV$V_ODV      = 0000001B            FAB$M_DEL      = 00000004
BDB$M_DRT      = 00000002            DEV$V_RCK      = 0000001E            FAB$M_DFW      = 00000020
BDB$M_IOP      = 00000004            DEV$V_REC      = 00000000            FAB$M_DLT      = 00008000
BDB$M_LKDINWS  = 00000080            DEV$V_RND      = 0000001C            FAB$M_DMO      = 00001000
BDB$M_NOLOCATE = 00000010            DEV$V_RTM      = 0000001D            FAB$M_ESC      = 08000000
BDB$M_PRM      = 00000008            DEV$V_SDI      = 00000004            FAB$M_EXE      = 00000080
BDB$M_VAL      = 00000001            DEV$V_SHR      = 00000010            FAB$M_FTN      = 00000001
BDB$M_WFO      = 00000020            DEV$V_SPL      = 00000006            FAB$M_GET      = 00000002
BDB$V_AST_DCL  = 00000006            DEV$V_SQD      = 00000005            FAB$M_INP      = 00080000
BDB$V_DRT      = 00000001            DEV$V_SWL      = 00000019            FAB$M_JNL      = 00400000
BDB$V_IOP      = 00000002            DEV$V_TRM      = 00000002            FAB$M_KFO      = 40000000
BDB$V_LKDINWS  = 00000007            DEV$V_WCK      = 0000001F            FAB$M_MSE      = 00000010
BDB$V_NOLOCATE = 00000004            FAB$B_BID        00000000            FAB$M_MXV      = 00000002
BDB$V_PRM      = 00000003            FAB$B_BKS        0000003E            FAB$M_NAM      = 01000000
BDB$V_VAL      = 00000000            FAB$B_BLN        00000001            FAB$M_NEF      = 00000400
BDB$V_WFO      = 00000005            FAB$B_DNS        00000035            FAB$M_NFS      = 00010000
BDB$W_NUMB       00000010            FAB$B_FAC        00000016            FAB$M_NIL      = 00000020
BDB$W_SIZE       00000012            FAB$B_FNS        00000034            FAB$M_OFP      = 20000000
BIT...         = 00000020            FAB$B_FSZ        0000003F            FAB$M_POS      = 00000100
DEV$M_ALL      = 00800000            FAB$B_ORG        0000001D            FAB$M_PPF      = 00040000
DEV$M_AVL      = 00040000            FAB$B_RAT        0000001E            FAB$M_PPF_IND  = 00004000
DEV$M_CCL      = 00000002            FAB$B_RFM        0000001F            FAB$M_PPF_RAT  = 00003FC0
DEV$M_DIR      = 00000008            FAB$B_RTV        0000001C            FAB$M_PRN      = 00000004
DEV$M_DMT      = 00200000            FAB$B_SHR        00000017            FAB$M_PUT      = 00000001
DEV$M_ELG      = 00400000            FAB$C_BID      = 00000003            FAB$M_RCK      = 00800000
DEV$M_FOD      = 00004000            FAB$C_BLN        00000050            FAB$M_RWC      = 00000800
DEV$M_FOR      = 01000000            FAB$C_FIX      = 00000001            FAB$M_RWO      = 00000080
DEV$M_GEN      = 00020000            FAB$C_HSH      = 00000030            FAB$M_SCF      = 00004000
DEV$M_IDV      = 04000000            FAB$C_IDX      = 00000020            FAB$M_SHRDEL   = 00000004
DEV$M_MBX      = 00100000            FAB$C_MAXRFM   = 00000003            FAB$M_SHRGET   = 00000002
DEV$M_MNT      = 00080000            FAB$C_REL      = 00000010            FAB$M_SHRPUT   = 00000001
DEV$M_NET      = 00002000            FAB$C_RFM_DFLT = 00000002            FAB$M_SHRUPD   = 00000008
RM1WTLST        WRITE LAST BLOCK SEQ.                            21-AUG-1978 21:50:26   VAX-11 MACRO X0.3-11               Page   7
SYMBOL TABLE                                                                                                                     (1)

FAB$M_SPL      = 00002000            FAB$V_TEF      = 0000001C            IFB$L_HBK        00000040
FAB$M_SQO      = 00000040            FAB$V_TMD      = 00000004            IFB$L_IDX_PTR    00000054
FAB$M_SUP      = 00000004            FAB$V_TMP      = 00000003            IFB$L_IOS        0000000C
FAB$M_TEF      = 10000000            FAB$V_TRN      = 00000004            IFB$L_IOS4       00000010
FAB$M_TMD      = 00000010            FAB$V_UFM      = 0000001A            IFB$L_IRAB_LNK   0000001C
FAB$M_TMP      = 00000008            FAB$V_UFO      = 00000011            IFB$L_LAST_FAB   00000024
FAB$M_TRN      = 00000010            FAB$V_UPD      = 00000003            IFB$L_LOCK_BDB   00000050
FAB$M_UFM      = 04000000            FAB$V_UPI      = 00000006            IFB$L_MRN        00000054
FAB$M_UFO      = 00020000            FAB$V_WCK      = 00000009            IFB$L_NRP_LNK    00000050
FAB$M_UPD      = 00000008            FAB$W_BLS        0000003C            IFB$L_NWA_PTR    00000028
FAB$M_UPI      = 00000040            FAB$W_DEQ        00000014            IFB$L_PRIM_DEV   00000000
FAB$M_WCK      = 00000200            FAB$W_IFI        00000002            IFB$L_RLB_LNK    0000002C
FAB$S_ORG      = 00000004            FAB$W_MRS        00000036            IFB$L_RNS_LEN    00000050
FAB$S_PPF_RAT  = 00000008            GBL...         = 00000000            IFB$M_BIO      = 00000020
FAB$V_BIO      = 00000005            IFB$B_AMAX       00000059            IFB$M_BRO      = 00000040
FAB$V_BLK      = 00000003            IFB$B_AVBN       00000058            IFB$M_DEL      = 00000004
FAB$V_BRO      = 00000006            IFB$B_BID        00000008            IFB$M_EXE      = 00000080
FAB$V_CBT      = 00000015            IFB$B_BKS        0000004A            IFB$M_GET      = 00000002
FAB$V_CIF      = 00000019            IFB$B_BLN        00000009            IFB$M_PUT      = 00000001
FAB$V_CR       = 00000001            IFB$B_EFN        0000000B            IFB$M_TRN      = 00000010
FAB$V_CTG      = 00000014            IFB$B_EXTRABUF   0000005D            IFB$M_UPD      = 00000008
FAB$V_DEL      = 00000002            IFB$B_FAC        00000022            IFB$S_ORG      = 00000004
FAB$V_DFW      = 00000005            IFB$B_FSZ        0000004B            IFB$S_RFM      = 00000004
FAB$V_DLT      = 0000000F            IFB$B_KBUFSZ     0000005C            IFB$V_ACCESSED = 00000025
FAB$V_DMO      = 0000000C            IFB$B_MODE       0000000A            IFB$V_ANSI_D   = 00000026
FAB$V_ESC      = 0000001B            IFB$B_NUM_KEYS   0000005A            IFB$V_ASYNC    = 00000023
FAB$V_EXE      = 00000007            IFB$B_ORGCASE    00000023            IFB$V_ASYNCWAIT= 00000024
FAB$V_FTN      = 00000000            IFB$B_RAT        0000003D            IFB$V_BIO      = 00000005
FAB$V_GET      = 00000001            IFB$B_RFMORG     0000003C            IFB$V_BRO      = 00000006
FAB$V_INP      = 00000013            IFB$B_UBUFSZ     0000005B            IFB$V_BUSY     = 00000020
FAB$V_JNL      = 00000016            IFB$C_BID      = 0000000B            IFB$V_CREATE   = 00000032
FAB$V_KFO      = 0000001E            IFB$C_BLN        00000060            IFB$V_DAP      = 0000003E
FAB$V_MSE      = 00000004            IFB$C_BLN_IDX    00000060            IFB$V_DAP_OPEN = 0000003D
FAB$V_MXV      = 00000001            IFB$C_BLN_REL    00000060            IFB$V_DEL      = 00000002
FAB$V_NAM      = 00000018            IFB$C_BLN_SEQ    0000005C            IFB$V_DFW      = 0000002C
FAB$V_NEF      = 0000000A            IFB$C_DIR      = 00000003            IFB$V_DLT      = 0000002B
FAB$V_NFS      = 00000010            IFB$C_FHAEND     00000050            IFB$V_DMO      = 00000028
FAB$V_NIL      = 00000005            IFB$C_IDX      = 00000002            IFB$V_EOF      = 00000021
FAB$V_OFP      = 0000001D            IFB$C_MAXORG   = 00000002            IFB$V_EXE      = 00000007
FAB$V_ORG      = 00000004            IFB$C_REL      = 00000001            IFB$V_GET      = 00000001
FAB$V_POS      = 00000008            IFB$C_SEQ      = 00000000            IFB$V_MSE      = 00000031
FAB$V_PPF      = 00000012            IFB$K_BLN        00000060            IFB$V_NORECLK  = 00000033
FAB$V_PPF_IND  = 0000000E            IFB$K_BLN_IDX    00000060            IFB$V_NSP      = 0000003F
FAB$V_PPF_RAT  = 00000006            IFB$K_BLN_REL    00000060            IFB$V_NWA      = 0000003C
FAB$V_PRN      = 00000002            IFB$K_BLN_SEQ    0000005C            IFB$V_ORG      = 00000004
FAB$V_PUT      = 00000000            IFB$K_FHAEND     00000050            IFB$V_PPF_IMAGE= 00000022
FAB$V_RCK      = 00000017            IFB$L_ARGLST     00000018            IFB$V_PPF_INPUT= 0000002E
FAB$V_RWC      = 0000000B            IFB$L_ASBADDR    00000014            IFB$V_PUT      = 00000000
FAB$V_RWO      = 00000007            IFB$L_AS_DEV     00000054            IFB$V_RFM      = 00000000
FAB$V_SCF      = 0000000E            IFB$L_BDB_BLNK   00000034            IFB$V_RWC      = 00000027
FAB$V_SHRDEL   = 00000002            IFB$L_BDB_FLNK   00000030            IFB$V_RW_ATTR  = 00000034
FAB$V_SHRGET   = 00000001            IFB$L_BKPBITS    00000004            IFB$V_SCF      = 0000002A
FAB$V_SHRPUT   = 00000000            IFB$L_BWB        0000000C            IFB$V_SPL      = 00000029
FAB$V_SHRUPD   = 00000003            IFB$L_DVBN       00000058            IFB$V_SQO      = 0000002D
FAB$V_SPL      = 0000000D            IFB$L_EBK        00000044            IFB$V_TEF      = 00000036
FAB$V_SQO      = 00000006            IFB$L_FRB_PTR    00000028            IFB$V_TMP      = 00000035
FAB$V_SUP      = 00000002            IFB$L_FWA_BDB    00000050            IFB$V_TRN      = 00000004
RM1WTLST        WRITE LAST BLOCK SEQ.                            21-AUG-1978 21:50:26   VAX-11 MACRO X0.3-11               Page   8
SYMBOL TABLE                                                                                                                     (1)

IFB$V_UPD      = 00000003            IRB$L_NXTBDB     00000028            RAB$B_TMO        0000001F
IFB$V_WRTACC   = 00000030            IRB$L_OWNER_ID   0000003C            RAB$C_BID      = 00000001
IFB$W_ASDEVBSIZ  0000005A            IRB$L_RFA_VBN    00000054            RAB$C_BLN        00000044
IFB$W_BKS_BYTES  0000005C            IRB$L_RLB_ADDR   00000044            RAB$C_KEY      = 00000001
IFB$W_BKS_RECS   0000005E            IRB$L_RP         00000034            RAB$C_RFA      = 00000002
IFB$W_CHNL       00000020            IRB$L_RP_OFF     00000038            RAB$C_SEQ      = 00000000
IFB$W_DEQ        0000004E            IRB$L_RP_VBN     00000034            RAB$K_BLN        00000044
IFB$W_DEVBUFSIZ  00000038            IRB$L_RRV_VBN    0000004C            RAB$L_BKT        00000038
IFB$W_EBK0       00000044            IRB$L_TEMP0      00000044            RAB$L_CTX        00000018
IFB$W_EBK2       00000046            IRB$L_TEMP1      00000048            RAB$L_DCT        00000038
IFB$W_FFB        00000048            IRB$V_ASYNC    = 00000023            RAB$L_FAB        0000003C
IFB$W_IOS2       0000000E            IRB$V_ASYNCWAIT= 00000024            RAB$L_KBF        00000030
IFB$W_LRL        0000003E            IRB$V_BIO_LAST = 00000027            RAB$L_PBF        00000030
IFB$W_MRS        0000004C            IRB$V_BRO_SW   = 00000028            RAB$L_RBF        00000028
IFB$W_RTDEQ      0000003A            IRB$V_BUSY     = 00000020            RAB$L_RFA0       00000010
IRB$B_BCNT       00000040            IRB$V_DAP_CONN = 0000003E            RAB$L_RHB        0000002C
IRB$B_BID        00000008            IRB$V_DAP_FMODE= 0000003F            RAB$L_ROP        00000004
IRB$B_BLN        00000009            IRB$V_DUP      = 0000002C            RAB$L_STS        00000008
IRB$B_EFN        0000000B            IRB$V_EOF      = 00000021            RAB$L_STV        0000000C
IRB$B_KEYSZ      00000051            IRB$V_FIND     = 00000029            RAB$L_UBF        00000024
IRB$B_MBC        00000041            IRB$V_FIND_LAST= 00000025            RAB$M_ASY      = 00000001
IRB$B_MODE       0000000A            IRB$V_IDX_ERR  = 00000031            RAB$M_BIO      = 00000800
IRB$B_NRP_ID     00000030            IRB$V_LOCKABOVE= 00000002            RAB$M_CCO      = 80000000
IRB$B_NRP_KREF   00000031            IRB$V_NEW_IDX  = 00000003            RAB$M_CVT      = 04000000
IRB$B_NVBNS      00000048            IRB$V_POSINSERT= 00000000            RAB$M_EOF      = 00000100
IRB$B_POST_CCTL  00000045            IRB$V_PPF_EOF  = 0000002E            RAB$M_FDL      = 00000040
IRB$B_PPF_ISI    0000003E            IRB$V_PPF_FNDSV= 00000030            RAB$M_HSH      = 00000080
IRB$B_PRE_CCTL   00000044            IRB$V_PPF_IMAGE= 00000022            RAB$M_KGE      = 00200000
IRB$B_RFA_ID     00000058            IRB$V_PPF_SKIP = 0000002F            RAB$M_KGT      = 00400000
IRB$B_RP_ID      00000038            IRB$V_PUTS_LAST= 00000026            RAB$M_LIM      = 00004000
IRB$B_RP_KREF    00000039            IRB$V_RAHWBH   = 0000002A            RAB$M_LOA      = 00002000
IRB$B_RRV_ID     00000050            IRB$V_SKIP_NEXT= 0000002B            RAB$M_LOC      = 00010000
IRB$B_SRCHFLAGS  00000043            IRB$V_SRCHGT   = 00000001            RAB$M_MAS      = 00000020
IRB$B_STOPLEVEL  00000042            IRB$V_UNLOCK_RP= 0000002D            RAB$M_NLK      = 00100000
IRB$C_BID      = 0000000A            IRB$V_WRITE    = 00000029            RAB$M_NXR      = 00800000
IRB$C_BLN_IDX    0000006C            IRB$W_CSIZ       00000042            RAB$M_PMT      = 40000000
IRB$C_BLN_REL    00000048            IRB$W_DUP_POS    00000032            RAB$M_PPF_IND  = 00004000
IRB$C_BLN_SEQ    0000004C            IRB$W_IOS2       0000000E            RAB$M_PPF_RAT  = 00003FC0
IRB$K_BLN_IDX    0000006C            IRB$W_NRP_OFF    00000030            RAB$M_PTA      = 20000000
IRB$K_BLN_REL    00000048            IRB$W_OWN_ID     0000003C            RAB$M_RAH      = 00000200
IRB$K_BLN_SEQ    0000004C            IRB$W_OWN_ISI    0000003E            RAB$M_RLK      = 00080000
IRB$L_ARGLST     00000018            IRB$W_ROVHDSZ    00000044            RAB$M_RNE      = 01000000
IRB$L_ASBADDR    00000014            IRB$W_RP_OFF     00000038            RAB$M_RNF      = 08000000
IRB$L_BKPBITS    00000004            IRB$W_RTOTLSZ    00000046            RAB$M_TMO      = 02000000
IRB$L_BWB        0000000C            IRB$W_SAVE_POS   00000052            RAB$M_TPT      = 00000002
IRB$L_CURBDB     00000020            PIO$GL_FMLH      ********   X   02   RAB$M_UIF      = 00000010
IRB$L_CURVBN     00000030            RAB$B_BID        00000000            RAB$M_ULK      = 00040000
IRB$L_IFAB_LNK   00000000            RAB$B_BLN        00000001            RAB$M_WAT      = 00020000
IRB$L_IOS        0000000C            RAB$B_KRF        00000035            RAB$M_WBH      = 00000400
IRB$L_IOS4       00000010            RAB$B_KSZ        00000034            RAB$S_PPF_RAT  = 00000008
IRB$L_IRAB_LNK   0000001C            RAB$B_MBC        00000037            RAB$V_ASY      = 00000000
IRB$L_KEYBUF     00000048            RAB$B_MBF        00000036            RAB$V_BIO      = 0000000B
IRB$L_LAST_RAB   00000024            RAB$B_PSZ        00000034            RAB$V_CCO      = 0000001F
IRB$L_LOCK_BDB   0000005C            RAB$B_RAC        0000001E            RAB$V_CVT      = 0000001A
IRB$L_NRP        0000002C            RAB$B_ROP1       00000005            RAB$V_EOF      = 00000008
IRB$L_NRP_OFF    00000030            RAB$B_ROP2       00000006            RAB$V_FDL      = 00000006
IRB$L_NRP_VBN    0000002C            RAB$B_ROP3       00000007            RAB$V_HSH      = 00000007
RM1WTLST        WRITE LAST BLOCK SEQ.                            21-AUG-1978 21:50:26   VAX-11 MACRO X0.3-11               Page   9
SYMBOL TABLE                                                                                                                     (1)

RAB$V_KGE      = 00000015
RAB$V_KGT      = 00000016
RAB$V_LIM      = 0000000E
RAB$V_LOA      = 0000000D
RAB$V_LOC      = 00000010
RAB$V_MAS      = 00000005
RAB$V_NLK      = 00000014
RAB$V_NXR      = 00000017
RAB$V_PMT      = 0000001E
RAB$V_PPF_IND  = 0000000E
RAB$V_PPF_RAT  = 00000006
RAB$V_PTA      = 0000001D
RAB$V_RAH      = 00000009
RAB$V_RLK      = 00000013
RAB$V_RNE      = 00000018
RAB$V_RNF      = 0000001B
RAB$V_TMO      = 00000019
RAB$V_TPT      = 00000001
RAB$V_UIF      = 00000004
RAB$V_ULK      = 00000012
RAB$V_WAT      = 00000011
RAB$V_WBH      = 0000000A
RAB$W_ISI        00000002
RAB$W_RFA        00000010
RAB$W_RFA4       00000014
RAB$W_RSZ        00000022
RAB$W_USZ        00000020
REL1             00000049 R     02
RELEASE          00000046 R     02
RM$MAPBLK1       ********   X   02
RM$PADBLK1ALT    ********   X   02
RM$QUIET_SEQMBF  ********   X   02
RM$RELBLK1       ********   X   02
RM$WTLST1        00000000 RG    02
SHORT_BLK        0000003B R     02
TPT$L_WTLST1     ********   X   02
WTLXIT           0000005D R     02


PROGRAM SECTION SYNOPSIS

.  ABS  .        00000000      00     NOPIC   USR   CON   ABS   LCL NOSHR NOEXE NORD  NOWRT BYTE
. BLANK .        00000000      01     NOPIC   USR   CON   REL   LCL NOSHR   EXE   RD    WRT BYTE
F$RMSCLOSE1      00000060      02     NOPIC   USR   CON   REL   GBL NOSHR   EXE   RD  NOWRT BYTE
$ABS$            0000006C      03     NOPIC   USR   CON   ABS   LCL NOSHR   EXE   RD    WRT BYTE


THERE WERE NO ERRORS OR WARNINGS.
12950. BYTES LEFT IN FREE MEMORY POOL.
2002. BYTES OF RECLAIMED MEMORY.
OBJ$:RM1WTLST,LIS$:RM1WTLST/-SP=EXECML$/ML,LIB$:R/ML,SRC$:RM1WTLST
19 MLB DIR RDS - 813 GETS TO DEFINE 15 MACROS. 65 INTER. FILE WRITES.
