RM2FMTBKT       RELATIVE-SPECIFIC EXTEND                         21-AUG-1978 21:52:49   VAX-11 MACRO X0.3-11               Page   0
TABLE OF CONTENTS

   (1)      42  DECLARATIONS
   (1)      64  RM$FMT_BKT2  -  RELATIVE FILE BUCKET FORMAT ROU
RM2FMTBKT       RELATIVE-SPECIFIC EXTEND                         21-AUG-1978 21:52:49   VAX-11 MACRO X0.3-11               Page   1
002                                                                                                                              (1)

                                     0000     1 	$BEGIN	RM2FMTBKT,002,F$RMSEXTEND2,<RELATIVE-SPECIFIC EXTEND>
                                     0000     2
                                     0000     3
                                     0000     4 ;
                                     0000     5 ; COPYRIGHT (C) 1977
                                     0000     6 ; DIGITAL EQUIPMENT CORPORATION, MAYNARD, MASSACHUSETTS 01754
                                     0000     7 ;
                                     0000     8 ; THIS SOFTWARE IS FURNISHED  UNDER A LICENSE FOR USE ONLY ON A SINGLE
                                     0000     9 ; COMPUTER  SYSTEM AND  MAY BE  COPIED ONLY WITH  THE INCLUSION OF THE
                                     0000    10 ; ABOVE COPYRIGHT NOTICE.  THIS SOFTWARE, OR ANY OTHER COPIES THEREOF,
                                     0000    11 ; MAY NOT BE PROVIDED OR  OTHERWISE MADE AVAILABLE TO ANY OTHER PERSON
                                     0000    12 ; EXCEPT FOR USE ON SUCH SYSTEM AND TO ONE WHO AGREES TO THESE LICENSE
                                     0000    13 ; TERMS.  TITLE TO AND  OWNERSHIP OF THE  SOFTWARE  SHALL AT ALL TIMES
                                     0000    14 ; REMAIN IN DEC.
                                     0000    15 ;
                                     0000    16 ; THE INFORMATION IN THIS SOFTWARE IS SUBJECT TO CHANGE WITHOUT NOTICE
                                     0000    17 ; AND SHOULD  NOT BE CONSTRUED  AS A COMMITMENT  BY DIGITAL  EQUIPMENT
                                     0000    18 ; CORPORATION.
                                     0000    19 ;
                                     0000    20 ; DEC ASSUMES  NO  RESPONSIBILITY  FOR  THE USE OR  RELIABILITY OF ITS
                                     0000    21 ; SOFTWARE ON EQUIPMENT WHICH IS NOT SUPPLIED BY DEC.
                                     0000    22 ;
                                     0000    23 ;++
                                     0000    24 ; FACILITY: RMS32
                                     0000    25 ;
                                     0000    26 ; ABSTRACT:
                                     0000    27 ;	ROUTINE TO PERFORM RELATIVE FILE ORGANIZATION SPECIFIC
                                     0000    28 ;	EXTEND PROCESSING, THAT IS, THE FORMATING OF THE DATA BUCKETS
                                     0000    29 ;	BY WRITING THEM WITH ZEROES.
                                     0000    30 ;
                                     0000    31 ; ENVIRONMENT:
                                     0000    32 ;		STAR PROCESSOR RUNNING STARLET EXEC.
                                     0000    33 ;
                                     0000    34 ; AUTHOR: L F LAVERDURE,	 CREATION DATE: 1-DEC-77
                                     0000    35 ;
                                     0000    36 ; MODIFIED BY:
                                     0000    37 ;
                                     0000    38 ;	L F LAVERDURE,   14-MAR-78  16:26
                                     0000    39 ; 01	-
                                     0000    40 ;--
RM2FMTBKT       RELATIVE-SPECIFIC EXTEND                         21-AUG-1978 21:52:49   VAX-11 MACRO X0.3-11               Page   2
002             DECLARATIONS                                                                                                     (1)

                                     0000    42 	.SBTTL	DECLARATIONS
                                     0000    43 ;
                                     0000    44 ; INCLUDE FILES:
                                     0000    45 ;
                                     0000    46
                                     0000    47 ;
                                     0000    48 ; MACROS:
                                     0000    49 ;
                                     0000    50 	$BDBDEF
                                     0000    51 	$CSHDEF
                                     0000    52 	$IFBDEF
                                     0000    53 	$RMSDEF
                                     0000    54
                                     0000    55 ;
                                     0000    56 ; EQUATED SYMBOLS:
                                     0000    57 ;
                                     0000    58
                                     0000    59 ;
                                     0000    60 ; OWN STORAGE:
                                     0000    61 ;
                                     0000    62
RM2FMTBKT       RELATIVE-SPECIFIC EXTEND                         21-AUG-1978 21:52:49   VAX-11 MACRO X0.3-11               Page   3
002             RM$FMT_BKT2  -  RELATIVE FILE BUCKET FORMAT ROU                                                                  (1)

                                     0000    64 	.SBTTL	RM$FMT_BKT2  -  RELATIVE FILE BUCKET FORMAT ROUTINE
                                     0000    65 ;++
                                     0000    66 ; FUNCTIONAL DESCRIPTION:
                                     0000    67 ;
                                     0000    68 ;  THIS MODULE CAUSES THE BLOCKS OF A NEW EXTENT OF A RELATIVE FILE
                                     0000    69 ;  TO BE WRITTEN WITH ZEROES.
                                     0000    70 ;
                                     0000    71 ; CALLING SEQUENCE:
                                     0000    72 ;
                                     0000    73 ;	BSBW	RM$FMT_BKT2
                                     0000    74 ;
                                     0000    75 ; INPUT PARAMETERS:
                                     0000    76 ;
                                     0000    77 ;	R11	IMPURE AREA ADDRESS
                                     0000    78 ;	R10	IFAB/SIFAB ADDRESS
                                     0000    79 ;	R9	IRAB/IFAB ADDRESS
                                     0000    80 ;	R8	RAB/FAB ADDRESS
                                     0000    81 ;	R6	END VBN OF EXTENT +1
                                     0000    82 ;	R1	FIRST VBN OF EXTENT
                                     0000    83 ;
                                     0000    84 ; IMPLICIT INPUTS:
                                     0000    85 ;
                                     0000    86 ;	IT IS ASSUMED THAT THE PROLOG IS LOCKED.
                                     0000    87 ;	IF IFB$L_EBK IS LESS THAN R1, ZEROING WILL START WITH VBN IFB$L_EBK.
                                     0000    88 ;
                                     0000    89 ; OUTPUT PARAMETERS:
                                     0000    90 ;
                                     0000    91 ;	R0		STATUS
                                     0000    92 ;	R1-R5,AP	DESTROYED
                                     0000    93 ;
                                     0000    94 ; IMPLICIT OUTPUTS:
                                     0000    95 ;
                                     0000    96 ;	NONE
                                     0000    97 ;
                                     0000    98 ; COMPLETION CODES:
                                     0000    99 ;
                                     0000   100 ;	STANDARD RMS.
                                     0000   101 ;
                                     0000   102 ; SIDE EFFECTS:
                                     0000   103 ;
                                     0000   104 ;	NONE
                                     0000   105 ;
                                     0000   106 ;--
RM2FMTBKT       RELATIVE-SPECIFIC EXTEND                         21-AUG-1978 21:52:49   VAX-11 MACRO X0.3-11               Page   4
002             RM$FMT_BKT2  -  RELATIVE FILE BUCKET FORMAT ROU                                                                  (1)

                                     0000   108 ;
                                     0000   109 ;  GET A BUFFER TO ZERO THE EXTENT.
                                     0000   110 ;  NOTE: BY ASKING FOR A 1-BYTE BUFFER WILL GET MINIMUM OF 1 BLOCK
                                     0000   111 ;	 (WILL ACTUALLY GET AN ENTIRE BUCKET).
                                     0000   112 ;
                                     0000   113 RM$FMT_BKT2::
            51         44 AA     D1  0000   114 	CMPL	IFB$L_EBK(R10),R1		; EOF LESS THAN START OF EXTENT?
                          04     1E  0004   115 	BGEQU	5$				; BRANCH IF NOT
            51         44 AA     D0  0006   116 	MOVL	IFB$L_EBK(R10),R1		; YES - START ZEROING WITH EBK
                                     000A   117 5$:	$CACHE	VBN=R1,SIZE=#1,FLAGS=<LOCK,NOREAD>,ERR=EXIT
            50         12 A4     3C  0016   118 	MOVZWL	BDB$W_SIZE(R4),R0		; GET BUFFER LENGTH
         10 A4            50     B0  001A   119 	MOVW	R0,BDB$W_NUMB(R4)		; USE ENTIRE BUFFER FOR ZEROING
            50            17     9C  001E   120 	ROTL	#23,R0,-(SP)			; GET # OF BLOCKS IN BUFFER
                          7E         0021
                          54     DD  0022   121 	PUSHL	R4				; SAVE BDB ADDRESS
            6E            00     2C  0024   122 	MOVC5	#0,(SP),#0,R0,(R5)		; ZERO THE BUFFER
            50            00         0027
                          65         0029
                          30     BA  002A   123 	POPR	#^M<R4,R5>			; RESTORE BDB ADDR & # BLOCKS
                                     002C   124 ;
                                     002C   125 ;  LOOP WRITING A BUFFER-FULL OF ZEROES EACH TIME THRU
                                     002C   126 ;
            55         18 A4     C1  002C   127 10$:	ADDL3	BDB$L_VBN(R4),R5,-(SP)		; COMPUTE END VBN + 1 OF BLOCKS
                          7E         0030
                                     0031   128 						; TO BE ZEROED THIS WRITE
            56            6E     D1  0031   129 	CMPL	(SP),R6				; WOULD THIS BE PAST END OF EXTENT?
                          0C     1B  0034   130 	BLEQU	20$				; BRANCH IF NOT
            56         18 A4     C3  0036   131 	SUBL3	BDB$L_VBN(R4),R6,R0		; COMPUTE # BLOCKS FOR LAST XFER
                          50         003A
       0200 8F            50     A5  003B   132 	MULW3	R0,#512,BDB$W_NUMB(R4)		; AND MAKE INTO # BYTES
                       10 A4         0040
                          FFBB'  30  0042   133 20$:	BSBW	RM$SEQWTBD			; GO WRITE THE BLOCKS
         18 A4            8E     D0  0045   134 	MOVL	(SP)+,BDB$L_VBN(R4)		; SET START VBN FOR NEXT XFER
            0A            50     E9  0049   135 	BLBC	R0,ERRXFR			; BRANCH IF WRITE FAILED
            56         18 A4     D1  004C   136 	CMPL	BDB$L_VBN(R4),R6		; ALL DONE?
                          DA     1F  0050   137 	BLSSU	10$				; BRANCH IF NOT
                                     0052   138 ;
                                     0052   139 ;  ALL SET.  RELEASE THE BUFFER AND RETURN TO CALLER.
                                     0052   140 ;
                          FFAB'  31  0052   141 	BRW	RM$RLNERR
                                 05  0055   142 EXIT:	RSB
                                     0056   143
                                     0056   144
                                     0056   145 ;
                                     0056   146 ;  AN ERROR OCCURRED ON THE WRITE TO THE FILE.
                                     0056   147 ;  RELEASE THE BUFFER AND RETURN.
                                     0056   148 ;
                                     0056   149 ERRXFR:	$PSECT_BR	L$RMS2
                          50     DD  0000   150 	PUSHL	R0				; SAVE STATUS
                          FFFB'  30  0002   151 	BSBW	RM$RLNERR			; RELEASE THE BUFFER
                          01     BA  0005   152 	POPR	#^M<R0>				; RESTORE STATUS
                                 05  0007   153 	RSB
                                     0008   154 	$PSECT_RESTORE
                                     0059   155
                                     0059   156
                                     0059   157 	.END
RM2FMTBKT       RELATIVE-SPECIFIC EXTEND                         21-AUG-1978 21:52:49   VAX-11 MACRO X0.3-11               Page   5
SYMBOL TABLE                                                                                                                     (1)

$$.PSECT_EP    = 00000001            GBL...         = 00000000            IFB$M_BIO      = 00000020
$$.TMP         = 00000005            IFB$B_AMAX       00000059            IFB$M_BRO      = 00000040
$$RMSTEST      = 0000001A            IFB$B_AVBN       00000058            IFB$M_DEL      = 00000004
$$RMS_PBUGCHK  = 00000010            IFB$B_BID        00000008            IFB$M_EXE      = 00000080
$$RMS_TBUGCHK  = 00000008            IFB$B_BKS        0000004A            IFB$M_GET      = 00000002
$$RMS_UMODE    = 00000004            IFB$B_BLN        00000009            IFB$M_PUT      = 00000001
BDB$B_BID        00000008            IFB$B_EFN        0000000B            IFB$M_TRN      = 00000010
BDB$B_BLN        00000009            IFB$B_EXTRABUF   0000005D            IFB$M_UPD      = 00000008
BDB$B_FLGS       0000000A            IFB$B_FAC        00000022            IFB$S_ORG      = 00000004
BDB$B_POST_CCTL  00000023            IFB$B_FSZ        0000004B            IFB$S_RFM      = 00000004
BDB$B_PRE_CCTL   00000022            IFB$B_KBUFSZ     0000005C            IFB$V_ACCESSED = 00000025
BDB$B_REL_VBN    00000020            IFB$B_MODE       0000000A            IFB$V_ANSI_D   = 00000026
BDB$B_USECNT     0000000B            IFB$B_NUM_KEYS   0000005A            IFB$V_ASYNC    = 00000023
BDB$B_VAL_VBNS   00000021            IFB$B_ORGCASE    00000023            IFB$V_ASYNCWAIT= 00000024
BDB$C_BID      = 0000000C            IFB$B_RAT        0000003D            IFB$V_BIO      = 00000005
BDB$C_BLN        00000028            IFB$B_RFMORG     0000003C            IFB$V_BRO      = 00000006
BDB$K_BLN        00000028            IFB$B_UBUFSZ     0000005B            IFB$V_BUSY     = 00000020
BDB$L_ADDR       00000014            IFB$C_BID      = 0000000B            IFB$V_CREATE   = 00000032
BDB$L_BLINK      00000004            IFB$C_BLN        00000060            IFB$V_DAP      = 0000003E
BDB$L_CURBUFADR  00000024            IFB$C_BLN_IDX    00000060            IFB$V_DAP_OPEN = 0000003D
BDB$L_FLINK      00000000            IFB$C_BLN_REL    00000060            IFB$V_DEL      = 00000002
BDB$L_IOSB       00000020            IFB$C_BLN_SEQ    0000005C            IFB$V_DFW      = 0000002C
BDB$L_OWN        0000000C            IFB$C_DIR      = 00000003            IFB$V_DLT      = 0000002B
BDB$L_VBN        00000018            IFB$C_FHAEND     00000050            IFB$V_DMO      = 00000028
BDB$L_WAIT       0000001C            IFB$C_IDX      = 00000002            IFB$V_EOF      = 00000021
BDB$L_WK1        00000020            IFB$C_MAXORG   = 00000002            IFB$V_EXE      = 00000007
BDB$M_AST_DCL  = 00000040            IFB$C_REL      = 00000001            IFB$V_GET      = 00000001
BDB$M_DRT      = 00000002            IFB$C_SEQ      = 00000000            IFB$V_MSE      = 00000031
BDB$M_IOP      = 00000004            IFB$K_BLN        00000060            IFB$V_NORECLK  = 00000033
BDB$M_LKDINWS  = 00000080            IFB$K_BLN_IDX    00000060            IFB$V_NSP      = 0000003F
BDB$M_NOLOCATE = 00000010            IFB$K_BLN_REL    00000060            IFB$V_NWA      = 0000003C
BDB$M_PRM      = 00000008            IFB$K_BLN_SEQ    0000005C            IFB$V_ORG      = 00000004
BDB$M_VAL      = 00000001            IFB$K_FHAEND     00000050            IFB$V_PPF_IMAGE= 00000022
BDB$M_WFO      = 00000020            IFB$L_ARGLST     00000018            IFB$V_PPF_INPUT= 0000002E
BDB$V_AST_DCL  = 00000006            IFB$L_ASBADDR    00000014            IFB$V_PUT      = 00000000
BDB$V_DRT      = 00000001            IFB$L_AS_DEV     00000054            IFB$V_RFM      = 00000000
BDB$V_IOP      = 00000002            IFB$L_BDB_BLNK   00000034            IFB$V_RWC      = 00000027
BDB$V_LKDINWS  = 00000007            IFB$L_BDB_FLNK   00000030            IFB$V_RW_ATTR  = 00000034
BDB$V_NOLOCATE = 00000004            IFB$L_BKPBITS    00000004            IFB$V_SCF      = 0000002A
BDB$V_PRM      = 00000003            IFB$L_BWB        0000000C            IFB$V_SPL      = 00000029
BDB$V_VAL      = 00000000            IFB$L_DVBN       00000058            IFB$V_SQO      = 0000002D
BDB$V_WFO      = 00000005            IFB$L_EBK        00000044            IFB$V_TEF      = 00000036
BDB$W_NUMB       00000010            IFB$L_FRB_PTR    00000028            IFB$V_TMP      = 00000035
BDB$W_SIZE       00000012            IFB$L_FWA_BDB    00000050            IFB$V_TRN      = 00000004
BIT...         = 0001C134            IFB$L_HBK        00000040            IFB$V_UPD      = 00000003
CSH$M_LOCK     = 00000001            IFB$L_IDX_PTR    00000054            IFB$V_WRTACC   = 00000030
CSH$M_NOBUFFER = 00000010            IFB$L_IOS        0000000C            IFB$W_ASDEVBSIZ  0000005A
CSH$M_NOREAD   = 00000004            IFB$L_IOS4       00000010            IFB$W_BKS_BYTES  0000005C
CSH$M_NOWAIT   = 00000002            IFB$L_IRAB_LNK   0000001C            IFB$W_BKS_RECS   0000005E
CSH$M_READAHEAD= 00000008            IFB$L_LAST_FAB   00000024            IFB$W_CHNL       00000020
CSH$V_LOCK     = 00000000            IFB$L_LOCK_BDB   00000050            IFB$W_DEQ        0000004E
CSH$V_NOBUFFER = 00000004            IFB$L_MRN        00000054            IFB$W_DEVBUFSIZ  00000038
CSH$V_NOREAD   = 00000002            IFB$L_NRP_LNK    00000050            IFB$W_EBK0       00000044
CSH$V_NOWAIT   = 00000001            IFB$L_NWA_PTR    00000028            IFB$W_EBK2       00000046
CSH$V_READAHEAD= 00000003            IFB$L_PRIM_DEV   00000000            IFB$W_FFB        00000048
ERRXFR           00000056 R     02   IFB$L_RLB_LNK    0000002C            IFB$W_IOS2       0000000E
EXIT             00000055 R     02   IFB$L_RNS_LEN    00000050            IFB$W_LRL        0000003E
RM2FMTBKT       RELATIVE-SPECIFIC EXTEND                         21-AUG-1978 21:52:49   VAX-11 MACRO X0.3-11               Page   6
SYMBOL TABLE                                                                                                                     (1)

IFB$W_MRS        0000004C            RMS$_DTP       = 000184E4            RMS$_OK_IDX    = 00018019
IFB$W_RTDEQ      0000003A            RMS$_DUP       = 000184EC            RMS$_OK_LIM    = 00018051
L$RMS20          00000000 R     04   RMS$_DVI       = 000184F4            RMS$_OK_RLK    = 00018021
RM$CACHE         ********   X   02   RMS$_ENT       = 0001C01A            RMS$_OK_RNF    = 00018049
RM$FMT_BKT2      00000000 RG    02   RMS$_ENV       = 00018724            RMS$_OK_RRV    = 00018029
RM$RLNERR        ********   X   02   RMS$_EOF       = 0001827A            RMS$_ORD       = 00018604
RM$SEQWTBD       ********   X   02   RMS$_ESA       = 000184FC            RMS$_ORG       = 0001860C
RMS$V_STVSTATUS= 0000000E            RMS$_ESL       = 00018714            RMS$_PBF       = 00018614
RMS$_ABO       = 000183EC            RMS$_ESS       = 00018504            RMS$_PENDING   = 00018009
RMS$_ACC       = 0001C002            RMS$_EXP       = 000182C2            RMS$_PLG       = 0001861C
RMS$_ACT       = 0001825A            RMS$_EXT       = 0001C022            RMS$_PLV       = 0001872C
RMS$_AID       = 000183F4            RMS$_FAB       = 0001850C            RMS$_POS       = 00018624
RMS$_ALN       = 000183FC            RMS$_FAC       = 00018514            RMS$_PRM       = 0001862C
RMS$_ALQ       = 00018404            RMS$_FEX       = 00018282            RMS$_PRV       = 0001829A
RMS$_ANI       = 0001840C            RMS$_FLG       = 0001851C            RMS$_QUO       = 00018634
RMS$_AOP       = 00018414            RMS$_FLK       = 0001828A            RMS$_RAB       = 0001863C
RMS$_ATR       = 0001C0CC            RMS$_FNA       = 00018524            RMS$_RAC       = 00018644
RMS$_ATW       = 0001C0D4            RMS$_FND       = 0001C02A            RMS$_RAT       = 0001864C
RMS$_BKS       = 0001841C            RMS$_FNF       = 00018292            RMS$_RBF       = 00018654
RMS$_BKZ       = 00018424            RMS$_FNM       = 0001852C            RMS$_RER       = 0001C0F4
RMS$_BLN       = 0001842C            RMS$_FOP       = 0001853C            RMS$_REX       = 000182A2
RMS$_BOF       = 00018198            RMS$_FSZ       = 00018534            RMS$_RFA       = 0001865C
RMS$_BUG       = 00018434            RMS$_FUL       = 00018544            RMS$_RFM       = 00018664
RMS$_BUG_DAP   = 00018444            RMS$_IAL       = 0001854C            RMS$_RHB       = 0001866C
RMS$_BUG_DDI   = 0001843C            RMS$_IAN       = 00018554            RMS$_RLF       = 00018674
RMS$_BUG_XX2   = 0001844C            RMS$_IBF       = 00018754            RMS$_RLK       = 000182AA
RMS$_BUG_XX3   = 00018454            RMS$_IDX       = 0001855C            RMS$_RMV       = 0001C0FC
RMS$_BUG_XX4   = 0001845C            RMS$_IFA       = 0001C124            RMS$_RNF       = 000182B2
RMS$_BUG_XX5   = 00018464            RMS$_IFI       = 00018564            RMS$_RNL       = 000181A0
RMS$_BUG_XX6   = 0001846C            RMS$_IMX       = 0001856C            RMS$_ROP       = 0001867C
RMS$_BUG_XX7   = 00018474            RMS$_IOP       = 00018574            RMS$_RPL       = 0001C104
RMS$_BUG_XX8   = 0001847C            RMS$_IRC       = 0001857C            RMS$_RRV       = 00018684
RMS$_BUG_XX9   = 00018484            RMS$_ISI       = 00018584            RMS$_RSA       = 000182DA
RMS$_CAA       = 0001848C            RMS$_KBF       = 0001858C            RMS$_RSL       = 0001873C
RMS$_CCF       = 0001C0DC            RMS$_KEY       = 00018594            RMS$_RSS       = 00018694
RMS$_CCR       = 00018494            RMS$_KFF       = 00018031            RMS$_RST       = 0001869C
RMS$_CDA       = 0001C0E4            RMS$_KRF       = 0001859C            RMS$_RSZ       = 000186A4
RMS$_CHG       = 0001849C            RMS$_KSZ       = 000185A4            RMS$_RTB       = 000181A8
RMS$_CHK       = 000184A4            RMS$_LAN       = 000185AC            RMS$_SEQ       = 000186AC
RMS$_CHN       = 0001C0EC            RMS$_LBL       = 000185B4            RMS$_SHR       = 000186B4
RMS$_COD       = 000184AC            RMS$_LNE       = 000185BC            RMS$_SIZ       = 000186BC
RMS$_CONTROLC  = 00010651            RMS$_LOC       = 000185C4            RMS$_SPL       = 0001C042
RMS$_CONTROLO  = 00010609            RMS$_MBC       = 00018734            RMS$_SQO       = 000186C4
RMS$_CONTROLY  = 00010611            RMS$_MKD       = 0001C032            RMS$_STALL     = 00018001
RMS$_CRE       = 0001C00A            RMS$_MRN       = 000185CC            RMS$_STK       = 000186CC
RMS$_CREATED   = 00010619            RMS$_MRS       = 000185D4            RMS$_SUC       = 00010001
RMS$_CUR       = 000184B4            RMS$_NAM       = 000185DC            RMS$_SUP       = 000182D2
RMS$_DAC       = 0001C012            RMS$_NEF       = 000185E4            RMS$_SUPERSEDE = 00010631
RMS$_DAN       = 000184BC            RMS$_NET       = 0001874C            RMS$_SYN       = 000186D4
RMS$_DEL       = 00018262            RMS$_NID       = 000185EC            RMS$_SYS       = 0001C10C
RMS$_DEV       = 000184C4            RMS$_NMF       = 000182CA            RMS$_TEMP1     = 0001826A
RMS$_DIR       = 000184CC            RMS$_NOD       = 000185F4            RMS$_TEMP2     = 0001868C
RMS$_DME       = 000184D4            RMS$_NORMAL    = 00010001            RMS$_TMO       = 000181B0
RMS$_DNA       = 000184DC            RMS$_NPK       = 000185FC            RMS$_TRE       = 000186DC
RMS$_DNF       = 0001C04A            RMS$_OK_ALK    = 00018039            RMS$_TYP       = 000186E4
RMS$_DNR       = 00018272            RMS$_OK_DEL    = 00018041            RMS$_UBF       = 000186EC
RMS$_DPE       = 0001C03A            RMS$_OK_DUP    = 00018011            RMS$_USZ       = 000186F4
RM2FMTBKT       RELATIVE-SPECIFIC EXTEND                         21-AUG-1978 21:52:49   VAX-11 MACRO X0.3-11               Page   7
SYMBOL TABLE                                                                                                                     (1)

RMS$_VER       = 000186FC
RMS$_VOL       = 00018704
RMS$_WBE       = 0001C12C
RMS$_WER       = 0001C114
RMS$_WLD       = 00018744
RMS$_WLK       = 000182BA
RMS$_WPL       = 0001C11C
RMS$_WSF       = 0001871C
RMS$_XAB       = 0001870C


PROGRAM SECTION SYNOPSIS

.  ABS  .        00000000      00     NOPIC   USR   CON   ABS   LCL NOSHR NOEXE NORD  NOWRT BYTE
. BLANK .        00000000      01     NOPIC   USR   CON   REL   LCL NOSHR   EXE   RD    WRT BYTE
F$RMSEXTEND2     00000059      02     NOPIC   USR   CON   REL   GBL NOSHR   EXE   RD  NOWRT BYTE
$ABS$            00000060      03     NOPIC   USR   CON   ABS   LCL NOSHR   EXE   RD    WRT BYTE
L$RMS2           00000008      04     NOPIC   USR   CON   REL   GBL NOSHR   EXE   RD  NOWRT BYTE


THERE WERE NO ERRORS OR WARNINGS.
15086. BYTES LEFT IN FREE MEMORY POOL.
3014. BYTES OF RECLAIMED MEMORY.
OBJ$:RM2FMTBKT,LIS$:RM2FMTBKT/-SP=EXECML$/ML,LIB$:R/ML,SRC$:RM2FMTBKT
21 MLB DIR RDS - 683 GETS TO DEFINE 19 MACROS. 42 INTER. FILE WRITES.
