RMS0CREAT       DISPATCH FOR CREATE OPERATION                    21-AUG-1978 21:59:43   VAX-11 MACRO X0.3-11               Page   0
TABLE OF CONTENTS

   (1)      41  DECLARATIONS
   (1)      70  RMS$CREATE  -  $CREATE ROUTINE
RMS0CREAT       DISPATCH FOR CREATE OPERATION                    21-AUG-1978 21:59:43   VAX-11 MACRO X0.3-11               Page   1
009                                                                                                                              (1)

                                     0000     1 	$BEGIN RMS0CREAT,009,F$RMSOPEN0C,<DISPATCH FOR CREATE OPERATION>
                                     0000     2
                                     0000     3
                                     0000     4 ;
                                     0000     5 ; COPYRIGHT (C) 1977
                                     0000     6 ; DIGITAL EQUIPMENT CORPORATION, MAYNARD, MASSACHUSETTS 01754
                                     0000     7 ;
                                     0000     8 ; THIS SOFTWARE IS FURNISHED  UNDER A LICENSE FOR USE ONLY ON A SINGLE
                                     0000     9 ; COMPUTER  SYSTEM AND  MAY BE  COPIED ONLY WITH  THE INCLUSION OF THE
                                     0000    10 ; ABOVE COPYRIGHT NOTICE.  THIS SOFTWARE, OR ANY OTHER COPIES THEREOF,
                                     0000    11 ; MAY NOT BE PROVIDED OR  OTHERWISE MADE AVAILABLE TO ANY OTHER PERSON
                                     0000    12 ; EXCEPT FOR USE ON SUCH SYSTEM AND TO ONE WHO AGREES TO THESE LICENSE
                                     0000    13 ; TERMS.  TITLE TO AND  OWNERSHIP OF THE  SOFTWARE  SHALL AT ALL TIMES
                                     0000    14 ; REMAIN IN DEC.
                                     0000    15 ;
                                     0000    16 ; THE INFORMATION IN THIS SOFTWARE IS SUBJECT TO CHANGE WITHOUT NOTICE
                                     0000    17 ; AND SHOULD  NOT BE CONSTRUED  AS A COMMITMENT  BY DIGITAL  EQUIPMENT
                                     0000    18 ; CORPORATION.
                                     0000    19 ;
                                     0000    20 ; DEC ASSUMES  NO  RESPONSIBILITY  FOR  THE USE OR  RELIABILITY OF ITS
                                     0000    21 ; SOFTWARE ON EQUIPMENT WHICH IS NOT SUPPLIED BY DEC.
                                     0000    22 ;
                                     0000    23 ;++
                                     0000    24 ; FACILITY: RMS32
                                     0000    25 ;
                                     0000    26 ; ABSTRACT:
                                     0000    27 ;		THIS MODULE IS THE HIGHEST LEVEL CONTROL ROUTINE
                                     0000    28 ;		TO PERFORM THE $CREATE FUNCTION.
                                     0000    29 ;
                                     0000    30 ; ENVIRONMENT:
                                     0000    31 ;		STAR PROCESSOR RUNNING STARLET EXEC.
                                     0000    32 ;
                                     0000    33 ; AUTHOR: L F LAVERDURE,	 CREATION DATE: 8-MAY-77
                                     0000    34 ;
                                     0000    35 ; MODIFIED BY:
                                     0000    36 ;
                                     0000    37 ;	L F LAVERDURE,   8-MAY-78  12:58
                                     0000    38 ; 01	-
                                     0000    39 ;--
RMS0CREAT       DISPATCH FOR CREATE OPERATION                    21-AUG-1978 21:59:43   VAX-11 MACRO X0.3-11               Page   2
009             DECLARATIONS                                                                                                     (1)

                                     0000    41 	.SBTTL	DECLARATIONS
                                     0000    42 ;
                                     0000    43 ; INCLUDE FILES:
                                     0000    44 ;
                                     0000    45
                                     0000    46 ;
                                     0000    47 ; MACROS:
                                     0000    48 ;
                                     0000    49
                                     0000    50 	$IFBDEF
                                     0000    51 	$FIBDEF
                                     0000    52 	$FABDEF
                                     0000    53 	$FWADEF
                                     0000    54 	$RMSDEF
                                     0000    55 	.LIST MEB
                                     0000    56 ;
                                     0000    57 ; EQUATED SYMBOLS:
                                     0000    58 ;
                           00000020  0000    59 	FOP=	FAB$L_FOP*8		;BIT OFFSET TO FILE OPTIONS LONGWORD
                           00000010  0000    60 	WV=	FWA$B_WILDFLGS*8	;BIT OFFSET TO WILD CARD BYTE
                                     0000    61 	WC_MASK=<1@<FWA$V_WC_NAME-WV>>!-
                                     0000    62 		<1@<FWA$V_WC_TYPE-WV>>!-
                           00000038  0000    63 		<1@<FWA$V_WC_VER-WV>>	;MASK TO CHECK FOR WILD CARD
                                     0000    64 					;IN FILE NAME, TYPE OR VERSION
                                     0000    65
                                     0000    66 ;
                                     0000    67 ; OWN STORAGE:
                                     0000    68 ;
RMS0CREAT       DISPATCH FOR CREATE OPERATION                    21-AUG-1978 21:59:43   VAX-11 MACRO X0.3-11               Page   3
009             RMS$CREATE  -  $CREATE ROUTINE                                                                                   (1)

                                     0000    70 	.SBTTL RMS$CREATE  -  $CREATE ROUTINE
                                     0000    71
                                     0000    72 ;++
                                     0000    73 ; FUNCTIONAL DESCRIPTION:
                                     0000    74 ;
                                     0000    75 ;  THIS ROUTINE PERFORMS THE HIGHEST LEVEL $CREATE PROCESSING.
                                     0000    76 ;  ITS FUNCTIONS INCLUDE:
                                     0000    77 ;
                                     0000    78 ;	1. COMMON SETUP AND CHECKS
                                     0000    79 ;	2. DISPATCH TO ORGANIZATION-DEPENDENT CODE
                                     0000    80 ;	   WHICH CALLS COMMON CREATE ROUTINES
                                     0000    81 ;
                                     0000    82 ;
                                     0000    83 ; CALLING SEQUENCE:
                                     0000    84 ;
                                     0000    85 ;	ENTERED FROM EXEC AS A RESULT OF USER'S CALLING SYS$CREATE
                                     0000    86 ;	(E.G., BY USING THE $CREATE MACRO).
                                     0000    87 ;
                                     0000    88 ; INPUT PARAMETERS:
                                     0000    89 ;
                                     0000    90 ;	AP	USER'S ARGUMENT LIST ADDR
                                     0000    91 ;
                                     0000    92 ; IMPLICIT INPUTS:
                                     0000    93 ;
                                     0000    94 ;	THE CONTENTS OF THE FAB AND POSSIBLE RELATED USER INTERFACE
                                     0000    95 ;	BLOCKS.
                                     0000    96 ;
                                     0000    97 ; OUTPUT PARAMETERS:
                                     0000    98 ;
                                     0000    99 ;	R0	STATUS CODE
                                     0000   100 ;	R1	DESTROYED
                                     0000   101 ;
                                     0000   102 ; IMPLICIT OUTPUTS:
                                     0000   103 ;
                                     0000   104 ;	THE VARIOUS FIELDS OF THE FAB ARE FILLED IN TO REFLECT
                                     0000   105 ;	THE STATUS OF THE CREATED OPEN FILE. (SEE RMS FUNCTIONAL SPEC FOR
                                     0000   106 ;	A COMPLETE LIST.)
                                     0000   107 ;	AN IFAB IS INITIALIZED TO REFLECT THE CREATED FILE.
                                     0000   108 ;
                                     0000   109 ;	A COMPLETION AST IS QUEUED IF SO SPECIFIED BY THE USER.
                                     0000   110 ;
                                     0000   111 ; COMPLETION CODES:
                                     0000   112 ;
                                     0000   113 ;	STANDARD RMS (SEE FUNCTIONAL SPEC FOR LIST).
                                     0000   114 ;
                                     0000   115 ; SIDE EFFECTS:
                                     0000   116 ;
                                     0000   117 ;	NONE
                                     0000   118 ;
                                     0000   119 ;--
RMS0CREAT       DISPATCH FOR CREATE OPERATION                    21-AUG-1978 21:59:43   VAX-11 MACRO X0.3-11               Page   4
009             RMS$CREATE  -  $CREATE ROUTINE                                                                                   (1)

                                     0000   121 	$ENTRY	RMS$CREATE
                                 00000000       	.PSECT	F$RMSOPEN0C,GBL,NOWRT
                                     0000   122 	$TSTPT	CREATE
                 00000200'9F     D6  0000       		INCL	@#PIO$GL_FMLH+512+TPT$L_CREATE
                          FFF7'  30  0006   123 	BSBW	RM$FSETI			;DO COMMON SETUP
                                     0009   124 						;NOTE: DOES NOT RETURN ON ERROR
                                     0009   125 ;
                                     0009   126 ;  AN IFAB HAS BEEN SET UP
                                     0009   127 ;  PERFORM VARIOUS CHECKS
                                     0009   128 ;
                                     0009   129 	SSB	#IFB$V_CREATE,(R9)		; REMEMBER WE'RE DOING CREATE
            69            32     E2  0009       		BBSS	#IFB$V_CREATE,(R9),30000$
                          00         000C
                                     000D       30000$:
         16 A8            01     89  000D   130 	BISB3	#FAB$M_PUT,FAB$B_FAC(R8),IFB$B_FAC(R9)	;IMPLY PUT ACCESS
                       22 A9         0011
                                     0013   131 	ASSUME	FAB$V_BRO EQ FAB$V_BIO+1
            02            05     ED  0013   132 	CMPZV	#FAB$V_BIO,#2,IFB$B_FAC(R9),#3	;BOTH BRO & BIO SET?
            03         22 A9         0016
                          04     12  0019   133 	BNEQ	5$				;BRANCH IF NOT
         22 A9            20     8A  001B   134 	BICB2	#FAB$M_BIO,IFB$B_FAC(R9)	;CLEAR BIO (IMPLIED
                                     001F   135 						;BY BRO WITHOUT RESTRICTIONS)
                                     001F   136 5$:
                                     001F   137 ;
                                     001F   138 ;  VALIDATE RFM
                                     001F   139 ;
                                     001F   140 	ASSUME	IFB$V_RFM EQ 0
                                     001F   141 	ASSUME	IFB$S_RFM EQ 4
         3C A9         1F A8     90  001F   142 	MOVB	FAB$B_RFM(R8),IFB$B_RFMORG(R9)	;SAVE RFM IN RFMORG
                                     0024   143 ;
                                     0024   144 ;  CHECK FOR RFM IN SUPPORTED RANGE
                                     0024   145 ;
            03         1F A8     91  0024   146 10$:	CMPB	FAB$B_RFM(R8),#FAB$C_MAXRFM
                          75     1A  0028   147 	BGTRU	ERRRFM
                                     002A   148 ;
                                     002A   149 ;  SET MRS, LRL, RAT, AND FSZ FROM FAB
                                     002A   150 ;
         4C A9         36 A8     B0  002A   151 	MOVW	FAB$W_MRS(R8),IFB$W_MRS(R9)	;SAVE MRS
            01         1F A8     91  002F   152 	CMPB	FAB$B_RFM(R8),#FAB$C_FIX	;FIXED LENGTH RFM?
                          07     12  0033   153 	BNEQ	20$				;BRANCH IF NOT
         3E A9         36 A8     B0  0035   154 	MOVW	FAB$W_MRS(R8),IFB$W_LRL(R9)	;SAVE FIXED LENGTH
                          69     15  003A   155 	BLEQ	ERRMRS				;BRANCH IF NOT > 0
         3D A9         1E A8     90  003C   156 20$:	MOVB	FAB$B_RAT(R8),IFB$B_RAT(R9)	;SAVE RAT
                                     0041   157 ;
                                     0041   158 ;  CHECK THAT ONLY ONE OF 'PRN', 'CR' AND 'FTN' RAT BITS ARE ON
                                     0041   159 ;
         1E A8         F8 8F     8B  0041   160 	BICB3	#255\<FAB$M_CR!FAB$M_FTN!FAB$M_PRN>,FAB$B_RAT(R8),R1
                          51         0046
                          17     13  0047   161 	BEQL	25$
            51            02     E1  0049   162 	BBC	#FAB$V_PRN,R1,23$		;BRANCH IF NOT PRN
                          06         004C
            03         1F A8     91  004D   163 	CMPB	FAB$B_RFM(R8),#FAB$C_VFC	;RFM = VFC?
                          55     12  0051   164 	BNEQ	ERRRAT				;BRANCH IF NOT
                                     0053   165 	ASSUME	FAB$V_CR EQ FAB$V_FTN+1
                                     0053   166 	ASSUME	FAB$V_PRN EQ FAB$V_CR+1
            03            00     EA  0053   167 23$:	FFS	#FAB$V_FTN,#3,R1,R0		;FIND FIRST BIT SET
            50            51         0056
RMS0CREAT       DISPATCH FOR CREATE OPERATION                    21-AUG-1978 21:59:43   VAX-11 MACRO X0.3-11               Page   5
009             RMS$CREATE  -  $CREATE ROUTINE                                                                                   (1)

                                     0058   168 	CSB	R0,R1				;TURN IT OFF
            51            50     E5  0058       		BBCC	R0,R1,30001$
                          00         005B
                                     005C       30001$:
                          51     95  005C   169 	TSTB	R1				;OTHER BIT(S) SET?
                          48     12  005E   170 	BNEQ	ERRRAT				;BRANCH IF YES
                                     0060   171 25$:
RMS0CREAT       DISPATCH FOR CREATE OPERATION                    21-AUG-1978 21:59:43   VAX-11 MACRO X0.3-11               Page   6
009             RMS$CREATE  -  $CREATE ROUTINE                                                                                   (1)

                                     0060   173 ;
                                     0060   174 ;  IF VFC RECORD FORMAT, CHECK FOR 0 FIXED HEADER SIZE AND IF
                                     0060   175 ;  FOUND MAKE IT 2 BYTES
                                     0060   176 ;
            03         1F A8     91  0060   177 	CMPB	FAB$B_RFM(R8),#FAB$C_VFC
                          16     12  0064   178 	BNEQ	30$				;OMIT CHECK IF NOT VFC
         4B A9         3F A8     90  0066   179 	MOVB	FAB$B_FSZ(R8),IFB$B_FSZ(R9)	;SAVE FSZ VALUE
                          04     12  006B   180 	BNEQ	29$				;BRANCH IF VALUE SPECIFIED
         4B A9            02     90  006D   181 	MOVB	#2,IFB$B_FSZ(R9)		;ELSE SET DEFAULT VALUE
         3D A9            02     E1  0071   182 29$:	BBC	#FAB$V_PRN,IFB$B_RAT(R9),30$	;BRANCH IF NOT PRN
                          06         0075
            02         4B A9     91  0076   183 	CMPB	IFB$B_FSZ(R9),#2		;FSZ > 1?
                          26     1F  007A   184 	BLSSU	ERRFSZ				;BRANCH IF NOT
                                     007C   185 30$:
                          FF81'  30  007C   186 	BSBW	RM$PRFLNMALT			;PROCESS FILE NAME
            30            50     E9  007F   187 	BLBC	R0,EXIT				;EXIT ON ERROR
         02 AA            38     93  0082   188 	BITB	#WC_MASK,FWA$B_WILDFLGS(R10)	;ANY WILD CARDS?
                          23     12  0086   189 	BNEQ	ERRSYN				;BRANCH IF YES
                                     0088   190 ;
                                     0088   191 ;  DISPATCH TO ORGANIZATION-DEPENDENT CREATE CODE
                                     0088   192 ;
            04            04     EF  0088   193 SETORG:	EXTZV	#FAB$V_ORG,#FAB$S_ORG,FAB$B_ORG(R8),R0	;GET ORGANIZATION CODE
            50         1D A8         008B
         23 A9            50     90  008E   194 	MOVB	R0,IFB$B_ORGCASE(R9)			;AND SAVE FOR DISPATCHING
                                     0092   195 	CASE	TYPE=B,SRC=R0,-
                                     0092   196 		DISPLIST=<RM$CREATE1,RM$CREATE2,RM$CREATE3>
            00            50     8F  0092       	CASEB	R0,#0,S^#<<30003$-30002$>/2>-1
                          02'        0095
                                     0096       30002$:
                               FF6A' 0096       	.WORD	RM$CREATE1-30002$
                               FF6A' 0098       	.WORD	RM$CREATE2-30002$
                               FF6A' 009A       	.WORD	RM$CREATE3-30002$
                                     009C       30003$:
                                     009C   197 						;PICK UP CORRECT ROUTINE
                                     009C   198 ;
                                     009C   199 ;
                                     009C   200 ;  ERROR RETURNS
                                     009C   201 ;
                                     009C   202 	$PSECT_BR	L$RMS0
                          FF61'  31  009C       		BRW	L$RMS00
                                     009F       		.SAVE
                                 00000000       		.PSECT	L$RMS0,GBL,NOWRT
                                     0000       L$RMS00:
                                     0000   203 	RMSERR	ORG				;ORG NOT SUPPORTED
            50       860C 8F     3C  0000       		MOVZWL	#<RMS$_ORG&^XFFFF>,R0
                                     0005   204 RM$CHKBIOCRE::
         22 A9         60 8F     93  0005   205 	BITB	#FAB$M_BIO!FAB$M_BRO,IFB$B_FAC(R9)	;EITHER BIO OR BRO SET?
                          1A     13  000A   206 	BEQL	EXIT1				;BRANCH IF NOT (ERROR)
                          FFF1'  31  000C   207 	BRW	RM$BIO_CREATE			;GO DO BLOCK I/O CREATE
                                     000F   208 	$PSECT_RESTORE
                                 0000009F       		.RESTORE
                                     009F   209 ;
                                     009F   210 ERRRFM:	$PSECT_BR	L$RMS0
                          FF6D'  31  009F       		BRW	L$RMS01
                                     00A2       		.SAVE
                                 0000000F       		.PSECT	L$RMS0,GBL,NOWRT
                                     000F       L$RMS01:
RMS0CREAT       DISPATCH FOR CREATE OPERATION                    21-AUG-1978 21:59:43   VAX-11 MACRO X0.3-11               Page   7
009             RMS$CREATE  -  $CREATE ROUTINE                                                                                   (1)

                          12     10  000F   211 	BSBB	ERROR
                                     0011   212 	RMSERR_WORD	RFM			;BAD RFM FIELD
                               8664  0011       		.WORD	RMS$_RFM&^XFFFF
                                     0013   213 	$PSECT_RESTORE
                                 000000A2       		.RESTORE
                                     00A2   214 ;
                                     00A2   215 ERRFSZ:	$PSECT_BR	L$RMS0
                          FF6E'  31  00A2       		BRW	L$RMS02
                                     00A5       		.SAVE
                                 00000013       		.PSECT	L$RMS0,GBL,NOWRT
                                     0013       L$RMS02:
                          0E     10  0013   216 	BSBB	ERROR
                                     0015   217 	RMSERR_WORD	FSZ			; FSZ DOESN'T SPECIFY 'PUT'
                               8534  0015       		.WORD	RMS$_FSZ&^XFFFF
                                     0017   218 	$PSECT_RESTORE
                                 000000A5       		.RESTORE
                                     00A5   219 ;
                                     00A5   220 ERRMRS:	$PSECT_BR	L$RMS0
                          FF6F'  31  00A5       		BRW	L$RMS03
                                     00A8       		.SAVE
                                 00000017       		.PSECT	L$RMS0,GBL,NOWRT
                                     0017       L$RMS03:
                          0A     10  0017   221 	BSBB	ERROR
                                     0019   222 	RMSERR_WORD	MRS			; MRS ZERO FOR FIXED LENGTH RFM
                               85D4  0019       		.WORD	RMS$_MRS&^XFFFF
                                     001B   223 	$PSECT_RESTORE
                                 000000A8       		.RESTORE
                                     00A8   224 ;
                                     00A8   225 ERRRAT:	$PSECT_BR	L$RMS0
                          FF70'  31  00A8       		BRW	L$RMS04
                                     00AB       		.SAVE
                                 0000001B       		.PSECT	L$RMS0,GBL,NOWRT
                                     001B       L$RMS04:
                          06     10  001B   226 	BSBB	ERROR
                                     001D   227 	RMSERR_WORD	RAT			; BOTH 'CR' AND 'FTN' BITS ON
                               864C  001D       		.WORD	RMS$_RAT&^XFFFF
                                     001F   228 	$PSECT_RESTORE
                                 000000AB       		.RESTORE
                                     00AB   229 ;
            68            3D     E0  00AB   230 ERRSYN:	BBS	#FAB$V_OFP+FOP,(R8),SETORG	; WILD CARD O.K. IF OFP SET
                          D9         00AE
                                     00AF   231 	$PSECT_BR	L$RMS0
                          FF6D'  31  00AF       		BRW	L$RMS05
                                     00B2       		.SAVE
                                 0000001F       		.PSECT	L$RMS0,GBL,NOWRT
                                     001F       L$RMS05:
                          02     10  001F   232 	BSBB	ERROR
                                     0021   233 	RMSERR_WORD	SYN			; WILD CARD SEEN
                               86D4  0021       		.WORD	RMS$_SYN&^XFFFF
                                     0023   234 ;
            50            9E     3C  0023   235 ERROR:	MOVZWL	@(SP)+,R0			; PICK UP IN-LINE ERROR CODE
                          FFD7'  31  0026   236 EXIT1:	BRW	RM$CLSCU			; AND CLEAN UP AND RETURN
                                     0029   237 	$PSECT_RESTORE
                                 000000B2       		.RESTORE
                          FF4B'  31  00B2   238 EXIT:	BRW	RM$CLSCU			; CLEAN UP AND RETURN TO USER
                                     00B5   239
                                     00B5   240
RMS0CREAT       DISPATCH FOR CREATE OPERATION                    21-AUG-1978 21:59:43   VAX-11 MACRO X0.3-11               Page   8
009             RMS$CREATE  -  $CREATE ROUTINE                                                                                   (1)

                                     00B5   241 	.END
RMS0CREAT       DISPATCH FOR CREATE OPERATION                    21-AUG-1978 21:59:43   VAX-11 MACRO X0.3-11               Page   9
SYMBOL TABLE                                                                                                                     (1)

$$.PSECT_EP    = 00000006            FAB$M_CR       = 00000002            FAB$V_DLT      = 0000000F
$$RMSTEST      = 0000001A            FAB$M_CTG      = 00100000            FAB$V_DMO      = 0000000C
$$RMS_PBUGCHK  = 00000010            FAB$M_DEL      = 00000004            FAB$V_ESC      = 0000001B
$$RMS_TBUGCHK  = 00000008            FAB$M_DFW      = 00000020            FAB$V_EXE      = 00000007
$$RMS_UMODE    = 00000004            FAB$M_DLT      = 00008000            FAB$V_FTN      = 00000000
BIT...         = 0001C134            FAB$M_DMO      = 00001000            FAB$V_GET      = 00000001
ERRFSZ           000000A2 R     02   FAB$M_ESC      = 08000000            FAB$V_INP      = 00000013
ERRMRS           000000A5 R     02   FAB$M_EXE      = 00000080            FAB$V_JNL      = 00000016
ERROR            00000023 R     04   FAB$M_FTN      = 00000001            FAB$V_KFO      = 0000001E
ERRRAT           000000A8 R     02   FAB$M_GET      = 00000002            FAB$V_MSE      = 00000004
ERRRFM           0000009F R     02   FAB$M_INP      = 00080000            FAB$V_MXV      = 00000001
ERRSYN           000000AB R     02   FAB$M_JNL      = 00400000            FAB$V_NAM      = 00000018
EXIT             000000B2 R     02   FAB$M_KFO      = 40000000            FAB$V_NEF      = 0000000A
EXIT1            00000026 R     04   FAB$M_MSE      = 00000010            FAB$V_NFS      = 00000010
FAB$B_BID        00000000            FAB$M_MXV      = 00000002            FAB$V_NIL      = 00000005
FAB$B_BKS        0000003E            FAB$M_NAM      = 01000000            FAB$V_OFP      = 0000001D
FAB$B_BLN        00000001            FAB$M_NEF      = 00000400            FAB$V_ORG      = 00000004
FAB$B_DNS        00000035            FAB$M_NFS      = 00010000            FAB$V_POS      = 00000008
FAB$B_FAC        00000016            FAB$M_NIL      = 00000020            FAB$V_PPF      = 00000012
FAB$B_FNS        00000034            FAB$M_OFP      = 20000000            FAB$V_PPF_IND  = 0000000E
FAB$B_FSZ        0000003F            FAB$M_POS      = 00000100            FAB$V_PPF_RAT  = 00000006
FAB$B_ORG        0000001D            FAB$M_PPF      = 00040000            FAB$V_PRN      = 00000002
FAB$B_RAT        0000001E            FAB$M_PPF_IND  = 00004000            FAB$V_PUT      = 00000000
FAB$B_RFM        0000001F            FAB$M_PPF_RAT  = 00003FC0            FAB$V_RCK      = 00000017
FAB$B_RTV        0000001C            FAB$M_PRN      = 00000004            FAB$V_RWC      = 0000000B
FAB$B_SHR        00000017            FAB$M_PUT      = 00000001            FAB$V_RWO      = 00000007
FAB$C_BID      = 00000003            FAB$M_RCK      = 00800000            FAB$V_SCF      = 0000000E
FAB$C_BLN        00000050            FAB$M_RWC      = 00000800            FAB$V_SHRDEL   = 00000002
FAB$C_FIX      = 00000001            FAB$M_RWO      = 00000080            FAB$V_SHRGET   = 00000001
FAB$C_HSH      = 00000030            FAB$M_SCF      = 00004000            FAB$V_SHRPUT   = 00000000
FAB$C_IDX      = 00000020            FAB$M_SHRDEL   = 00000004            FAB$V_SHRUPD   = 00000003
FAB$C_MAXRFM   = 00000003            FAB$M_SHRGET   = 00000002            FAB$V_SPL      = 0000000D
FAB$C_REL      = 00000010            FAB$M_SHRPUT   = 00000001            FAB$V_SQO      = 00000006
FAB$C_RFM_DFLT = 00000002            FAB$M_SHRUPD   = 00000008            FAB$V_SUP      = 00000002
FAB$C_SEQ      = 00000000            FAB$M_SPL      = 00002000            FAB$V_TEF      = 0000001C
FAB$C_UDF      = 00000000            FAB$M_SQO      = 00000040            FAB$V_TMD      = 00000004
FAB$C_VAR      = 00000002            FAB$M_SUP      = 00000004            FAB$V_TMP      = 00000003
FAB$C_VFC      = 00000003            FAB$M_TEF      = 10000000            FAB$V_TRN      = 00000004
FAB$K_BLN        00000050            FAB$M_TMD      = 00000010            FAB$V_UFM      = 0000001A
FAB$L_ALQ        00000010            FAB$M_TMP      = 00000008            FAB$V_UFO      = 00000011
FAB$L_CTX        00000018            FAB$M_TRN      = 00000010            FAB$V_UPD      = 00000003
FAB$L_DEV        00000040            FAB$M_UFM      = 04000000            FAB$V_UPI      = 00000006
FAB$L_DNA        00000030            FAB$M_UFO      = 00020000            FAB$V_WCK      = 00000009
FAB$L_FNA        0000002C            FAB$M_UPD      = 00000008            FAB$W_BLS        0000003C
FAB$L_FOP        00000004            FAB$M_UPI      = 00000040            FAB$W_DEQ        00000014
FAB$L_JNL        00000020            FAB$M_WCK      = 00000200            FAB$W_IFI        00000002
FAB$L_MRN        00000038            FAB$S_ORG      = 00000004            FAB$W_MRS        00000036
FAB$L_NAM        00000028            FAB$S_PPF_RAT  = 00000008            FIB$B_ALALIGN    00000021
FAB$L_SDC        00000044            FAB$V_BIO      = 00000005            FIB$B_ALOPTS     00000020
FAB$L_STS        00000008            FAB$V_BLK      = 00000003            FIB$B_DID_NMX    0000000F
FAB$L_STV        0000000C            FAB$V_BRO      = 00000006            FIB$B_DID_RVN    0000000E
FAB$L_XAB        00000024            FAB$V_CBT      = 00000015            FIB$B_FID_NMX    00000009
FAB$M_BIO      = 00000020            FAB$V_CIF      = 00000019            FIB$B_FID_RVN    00000008
FAB$M_BLK      = 00000008            FAB$V_CR       = 00000001            FIB$B_LOC_NMX    00000027
FAB$M_BRO      = 00000040            FAB$V_CTG      = 00000014            FIB$B_LOC_RVN    00000026
FAB$M_CBT      = 00200000            FAB$V_DEL      = 00000002            FIB$B_WSIZE      00000003
FAB$M_CIF      = 02000000            FAB$V_DFW      = 00000005            FIB$C_ACCDATA    0000000A
RMS0CREAT       DISPATCH FOR CREATE OPERATION                    21-AUG-1978 21:59:43   VAX-11 MACRO X0.3-11               Page  10
SYMBOL TABLE                                                                                                                     (1)

FIB$C_ALCDATA    0000002C            FIB$M_WILD     = 00000100            FWA$B_ESCFLG     00000008
FIB$C_CYL      = 00000001            FIB$M_WRITE    = 00000100            FWA$B_ESCTYP     00000009
FIB$C_DIRDATA    00000016            FIB$M_WRITECK  = 00000020            FWA$B_FLDFLGS    00000001
FIB$C_EXTDATA    00000020            FIB$V_ALCON    = 00000000            FWA$B_LNFLG      00000006
FIB$C_ILLEGAL  = 00000005            FIB$V_ALCONB   = 00000001            FWA$B_PARSEFLGS  00000003
FIB$C_LBN      = 00000002            FIB$V_ALDEF    = 00000003            FWA$B_PASSFLGS   00000000
FIB$C_LENGTH     0000002C            FIB$V_ALLNAM   = 00000005            FWA$B_UNDERLINE  00000154
FIB$C_MTALEN     0000001C            FIB$V_ALLTYP   = 00000004            FWA$B_WILDFLGS   00000002
FIB$C_NEXTVOL  = 00000003            FIB$V_ALLVER   = 00000003            FWA$B_XLTMODE    0000000A
FIB$C_POSEND   = 00000002            FIB$V_CURPOS   = 00000004            FWA$B_XLTTBL     0000000B
FIB$C_REWINDFIL= 00000006            FIB$V_DLOCK    = 00000001            FWA$C_ALL      = 000000F8
FIB$C_REWINDVOL= 00000001            FIB$V_EXACT    = 00000000            FWA$C_DEVBUFSIZ= 0000000F
FIB$C_RFI      = 00000004            FIB$V_EXECUTE  = 00000010            FWA$C_DIRBUFSIZ= 00000009
FIB$C_SPACE    = 00000004            FIB$V_EXTEND   = 00000007            FWA$C_FIBLEN   = 0000002C
FIB$C_VBN      = 00000003            FIB$V_FILCON   = 00000002            FWA$C_MAXDEVICE= 0000000F
FIB$K_ACCDATA    0000000A            FIB$V_FINDFID  = 0000000B            FWA$C_MAXDIRLEN= 0000003C
FIB$K_ALCDATA    0000002C            FIB$V_HIGHVER  = 0000000F            FWA$C_MAXNAME  = 00000009
FIB$K_DIRDATA    00000016            FIB$V_LOWVER   = 0000000E            FWA$C_MAXNODE  = 00000028
FIB$K_EXTDATA    00000020            FIB$V_MARKBAD  = 0000000A            FWA$C_MAXQUOTED= 0000007F
FIB$K_LENGTH     0000002C            FIB$V_NEWVER   = 00000009            FWA$C_MAXSUBDIR= 00000007
FIB$K_MTALEN     0000001C            FIB$V_NOHDREXT = 00000009            FWA$C_MAXTYPE  = 00000003
FIB$L_ACCTL      00000000            FIB$V_NOREAD   = 0000000A            FWA$C_MAXVER   = 00000006
FIB$L_CNTRLVAL   00000018            FIB$V_NOTRUNC  = 0000000B            FWA$C_NAMBUFSIZ= 0000000A
FIB$L_EXSZ       00000018            FIB$V_NOWRITE  = 00000000            FWA$C_NODBUFSIZ= 00000028
FIB$L_EXVBN      0000001C            FIB$V_ONCYL    = 00000001            FWA$C_RNSBUFSIZ= 00000014
FIB$L_LOC_ADDR   00000028            FIB$V_PRSRV_ATR= 00000011            FWA$C_TYPBUFSIZ= 00000004
FIB$L_WCC        00000010            FIB$V_READCK   = 00000009            FWA$C_VERBUFSIZ= 00000006
FIB$M_ALCON    = 00000001            FIB$V_REWIND   = 00000003            FWA$C_XLTBUFSIZ= 0000003F
FIB$M_ALCONB   = 00000002            FIB$V_SEQONLY  = 00000006            FWA$L_BUFFLG     00000014
FIB$M_ALDEF    = 00000008            FIB$V_SPOOL    = 00000004            FWA$L_DEVNODADR  00000020
FIB$M_ALLNAM   = 00000020            FIB$V_SUPERSEDE= 0000000A            FWA$L_ESCSTRING  00000008
FIB$M_ALLTYP   = 00000010            FIB$V_TRUNC    = 00000008            FWA$L_HBK        00000098
FIB$M_ALLVER   = 00000008            FIB$V_UPDATE   = 00000006            FWA$L_LOOKUP     0000001C
FIB$M_CURPOS   = 00000010            FIB$V_WILD     = 00000008            FWA$L_SBN        00000094
FIB$M_DLOCK    = 00000002            FIB$V_WRITE    = 00000008            FWA$L_UIC        0000001C
FIB$M_EXACT    = 00000001            FIB$V_WRITECK  = 00000005            FWA$L_XLTCNT     0000002C
FIB$M_EXECUTE  = 00010000            FIB$W_ALLOC      00000022            FWA$L_XLTSIZ     00000018
FIB$M_EXTEND   = 00000080            FIB$W_CNTRLFUNC  00000016            FWA$M_DEVICE   = 00008000
FIB$M_FILCON   = 00000004            FIB$W_DID        0000000A            FWA$M_DIR      = 00004000
FIB$M_FINDFID  = 00000800            FIB$W_DID_NUM    0000000A            FWA$M_DUPOK    = 00000001
FIB$M_HIGHVER  = 00008000            FIB$W_DID_RVN    0000000E            FWA$M_EXP_DEV  = 00800000
FIB$M_LOWVER   = 00004000            FIB$W_DID_SEQ    0000000C            FWA$M_EXP_DIR  = 00400000
FIB$M_MARKBAD  = 00000400            FIB$W_EXCTL      00000016            FWA$M_EXP_NAME = 00040000
FIB$M_NEWVER   = 00000200            FIB$W_FID        00000004            FWA$M_EXP_TYPE = 00020000
FIB$M_NOHDREXT = 00000200            FIB$W_FID_NUM    00000004            FWA$M_EXP_VER  = 00010000
FIB$M_NOREAD   = 00000400            FIB$W_FID_RVN    00000008            FWA$M_FNA_PASS = 00000010
FIB$M_NOTRUNC  = 00000800            FIB$W_FID_SEQ    00000006            FWA$M_NAME     = 00002000
FIB$M_NOWRITE  = 00000001            FIB$W_LOC_FID    00000022            FWA$M_NAMEFLG  = 00000002
FIB$M_ONCYL    = 00000002            FIB$W_LOC_NUM    00000022            FWA$M_NAM_DVI  = 00000020
FIB$M_PRSRV_ATR= 00020000            FIB$W_LOC_RVN    00000026            FWA$M_RLF_PASS = 00000008
FIB$M_READCK   = 00000200            FIB$W_LOC_SEQ    00000024            FWA$M_TYPE     = 00001000
FIB$M_REWIND   = 00000008            FIB$W_NMCTL      00000014            FWA$M_TYPEFLG  = 00000004
FIB$M_SEQONLY  = 00000040            FOP            = 00000020            FWA$M_VERSION  = 00000800
FIB$M_SPOOL    = 00000010            FWA$B_DIRFLGS    00000004            FWA$Q_DEVICE     0000003C
FIB$M_SUPERSEDE= 00000400            FWA$B_DIRLEN     00000030            FWA$Q_DIR        00000024
FIB$M_TRUNC    = 00000100            FWA$B_DIRTERM    00000007            FWA$Q_DIR1       00000044
FIB$M_UPDATE   = 00000040            FWA$B_DIRWCFLGS  00000005            FWA$Q_DIR2       0000004C
RMS0CREAT       DISPATCH FOR CREATE OPERATION                    21-AUG-1978 21:59:43   VAX-11 MACRO X0.3-11               Page  11
SYMBOL TABLE                                                                                                                     (1)

FWA$Q_FIB        0000000C            FWA$V_WILD_MBR = 00000029            IFB$L_LOCK_BDB   00000050
FWA$Q_FLAGS      00000000            FWA$V_WILD_SFD1= 00000029            IFB$L_MRN        00000054
FWA$Q_LOGNAME    0000001C            FWA$V_WILD_UFD = 00000028            IFB$L_NRP_LNK    00000050
FWA$Q_NAME       00000084            FWA$W_ESCIFI     0000000A            IFB$L_NWA_PTR    00000028
FWA$Q_NODE       00000034            FWA$W_FNAMSIZ    00000018            IFB$L_PRIM_DEV   00000000
FWA$Q_QUOTED     0000009C            FWA$W_PRO        00000020            IFB$L_RLB_LNK    0000002C
FWA$Q_RNS        0000008C            FWA$W_UCHAR      0000002C            IFB$L_RNS_LEN    00000050
FWA$Q_STATBLK    00000094            GBL...         = 00000000            IFB$M_BIO      = 00000020
FWA$Q_TYPE       0000008C            IFB$B_AMAX       00000059            IFB$M_BRO      = 00000040
FWA$Q_VERSION    00000094            IFB$B_AVBN       00000058            IFB$M_DEL      = 00000004
FWA$Q_XLTBUF1    0000000C            IFB$B_BID        00000008            IFB$M_EXE      = 00000080
FWA$Q_XLTBUF2    00000024            IFB$B_BKS        0000004A            IFB$M_GET      = 00000002
FWA$S_DIR_LVLS = 00000003            IFB$B_BLN        00000009            IFB$M_PUT      = 00000001
FWA$T_ATR_LIST   00000164            IFB$B_EFN        0000000B            IFB$M_TRN      = 00000010
FWA$T_DEVICEBUF  00000155            IFB$B_EXTRABUF   0000005D            IFB$M_UPD      = 00000008
FWA$T_DIB        00000174            IFB$B_FAC        00000022            IFB$S_ORG      = 00000004
FWA$T_DIR1BUF    000000D0            IFB$B_FSZ        0000004B            IFB$S_RFM      = 00000004
FWA$T_DIR2BUF    000000D9            IFB$B_KBUFSZ     0000005C            IFB$V_ACCESSED = 00000025
FWA$T_FIBBUF     000000A4            IFB$B_MODE       0000000A            IFB$V_ANSI_D   = 00000026
FWA$T_NAMEBUF    00000118            IFB$B_NUM_KEYS   0000005A            IFB$V_ASYNC    = 00000023
FWA$T_NODEBUF    0000012C            IFB$B_ORGCASE    00000023            IFB$V_ASYNCWAIT= 00000024
FWA$T_TYPEBUF    00000122            IFB$B_RAT        0000003D            IFB$V_BIO      = 00000005
FWA$T_VERBUF     00000126            IFB$B_RFMORG     0000003C            IFB$V_BRO      = 00000006
FWA$T_XLTBUFF1   00000164            IFB$B_UBUFSZ     0000005B            IFB$V_BUSY     = 00000020
FWA$T_XLTBUFF2   000001A4            IFB$C_BID      = 0000000B            IFB$V_CREATE   = 00000032
FWA$V_CUR_VER  = 00000006            IFB$C_BLN        00000060            IFB$V_DAP      = 0000003E
FWA$V_DEVICE   = 0000000F            IFB$C_BLN_IDX    00000060            IFB$V_DAP_OPEN = 0000003D
FWA$V_DIR      = 0000000E            IFB$C_BLN_REL    00000060            IFB$V_DEL      = 00000002
FWA$V_DIR1     = 00000020            IFB$C_BLN_SEQ    0000005C            IFB$V_DFW      = 0000002C
FWA$V_DIR2     = 00000021            IFB$C_DIR      = 00000003            IFB$V_DLT      = 0000002B
FWA$V_DIR_LVLS = 0000001D            IFB$C_FHAEND     00000050            IFB$V_DMO      = 00000028
FWA$V_DUPOK    = 00000000            IFB$C_IDX      = 00000002            IFB$V_EOF      = 00000021
FWA$V_EXP_DEV  = 00000017            IFB$C_MAXORG   = 00000002            IFB$V_EXE      = 00000007
FWA$V_EXP_DIR  = 00000016            IFB$C_REL      = 00000001            IFB$V_GET      = 00000001
FWA$V_EXP_NAME = 00000012            IFB$C_SEQ      = 00000000            IFB$V_MSE      = 00000031
FWA$V_EXP_TYPE = 00000011            IFB$K_BLN        00000060            IFB$V_NORECLK  = 00000033
FWA$V_EXP_VER  = 00000010            IFB$K_BLN_IDX    00000060            IFB$V_NSP      = 0000003F
FWA$V_FNA_PASS = 00000004            IFB$K_BLN_REL    00000060            IFB$V_NWA      = 0000003C
FWA$V_GRPMBR   = 0000001B            IFB$K_BLN_SEQ    0000005C            IFB$V_ORG      = 00000004
FWA$V_LOGNAME  = 00000030            IFB$K_FHAEND     00000050            IFB$V_PPF_IMAGE= 00000022
FWA$V_NAME     = 0000000D            IFB$L_ARGLST     00000018            IFB$V_PPF_INPUT= 0000002E
FWA$V_NAMEFLG  = 00000001            IFB$L_ASBADDR    00000014            IFB$V_PUT      = 00000000
FWA$V_NAM_DVI  = 00000005            IFB$L_AS_DEV     00000054            IFB$V_RFM      = 00000000
FWA$V_NETSTR   = 00000032            IFB$L_BDB_BLNK   00000034            IFB$V_RWC      = 00000027
FWA$V_NODE     = 00000019            IFB$L_BDB_FLNK   00000030            IFB$V_RW_ATTR  = 00000034
FWA$V_OBJTYPE  = 00000031            IFB$L_BKPBITS    00000004            IFB$V_SCF      = 0000002A
FWA$V_QUOTED   = 0000001A            IFB$L_BWB        0000000C            IFB$V_SPL      = 00000029
FWA$V_RLF_PASS = 00000003            IFB$L_DVBN       00000058            IFB$V_SQO      = 0000002D
FWA$V_TYPE     = 0000000C            IFB$L_EBK        00000044            IFB$V_TEF      = 00000036
FWA$V_TYPEFLG  = 00000002            IFB$L_FRB_PTR    00000028            IFB$V_TMP      = 00000035
FWA$V_VERSION  = 0000000B            IFB$L_FWA_BDB    00000050            IFB$V_TRN      = 00000004
FWA$V_WC_NAME  = 00000015            IFB$L_HBK        00000040            IFB$V_UPD      = 00000003
FWA$V_WC_TYPE  = 00000014            IFB$L_IDX_PTR    00000054            IFB$V_WRTACC   = 00000030
FWA$V_WC_VER   = 00000013            IFB$L_IOS        0000000C            IFB$W_ASDEVBSIZ  0000005A
FWA$V_WILDCARD = 00000018            IFB$L_IOS4       00000010            IFB$W_BKS_BYTES  0000005C
FWA$V_WILD_DIR = 0000001C            IFB$L_IRAB_LNK   0000001C            IFB$W_BKS_RECS   0000005E
FWA$V_WILD_GRP = 00000028            IFB$L_LAST_FAB   00000024            IFB$W_CHNL       00000020
RMS0CREAT       DISPATCH FOR CREATE OPERATION                    21-AUG-1978 21:59:43   VAX-11 MACRO X0.3-11               Page  12
SYMBOL TABLE                                                                                                                     (1)

IFB$W_DEQ        0000004E            RMS$_CHN       = 0001C0EC            RMS$_LBL       = 000185B4
IFB$W_DEVBUFSIZ  00000038            RMS$_COD       = 000184AC            RMS$_LNE       = 000185BC
IFB$W_EBK0       00000044            RMS$_CONTROLC  = 00010651            RMS$_LOC       = 000185C4
IFB$W_EBK2       00000046            RMS$_CONTROLO  = 00010609            RMS$_MBC       = 00018734
IFB$W_FFB        00000048            RMS$_CONTROLY  = 00010611            RMS$_MKD       = 0001C032
IFB$W_IOS2       0000000E            RMS$_CRE       = 0001C00A            RMS$_MRN       = 000185CC
IFB$W_LRL        0000003E            RMS$_CREATED   = 00010619            RMS$_MRS       = 000185D4
IFB$W_MRS        0000004C            RMS$_CUR       = 000184B4            RMS$_NAM       = 000185DC
IFB$W_RTDEQ      0000003A            RMS$_DAC       = 0001C012            RMS$_NEF       = 000185E4
L$RMS00          00000000 R     04   RMS$_DAN       = 000184BC            RMS$_NET       = 0001874C
L$RMS01          0000000F R     04   RMS$_DEL       = 00018262            RMS$_NID       = 000185EC
L$RMS02          00000013 R     04   RMS$_DEV       = 000184C4            RMS$_NMF       = 000182CA
L$RMS03          00000017 R     04   RMS$_DIR       = 000184CC            RMS$_NOD       = 000185F4
L$RMS04          0000001B R     04   RMS$_DME       = 000184D4            RMS$_NORMAL    = 00010001
L$RMS05          0000001F R     04   RMS$_DNA       = 000184DC            RMS$_NPK       = 000185FC
PIO$GL_FMLH      ********   X   02   RMS$_DNF       = 0001C04A            RMS$_OK_ALK    = 00018039
RM$BIO_CREATE    ********   X   04   RMS$_DNR       = 00018272            RMS$_OK_DEL    = 00018041
RM$CHKBIOCRE     00000005 RG    04   RMS$_DPE       = 0001C03A            RMS$_OK_DUP    = 00018011
RM$CLSCU         ********   X   04   RMS$_DTP       = 000184E4            RMS$_OK_IDX    = 00018019
RM$CREATE1       ********   X   02   RMS$_DUP       = 000184EC            RMS$_OK_LIM    = 00018051
RM$CREATE2       ********   X   02   RMS$_DVI       = 000184F4            RMS$_OK_RLK    = 00018021
RM$CREATE3       ********   X   02   RMS$_ENT       = 0001C01A            RMS$_OK_RNF    = 00018049
RM$FSETI         ********   X   02   RMS$_ENV       = 00018724            RMS$_OK_RRV    = 00018029
RM$PRFLNMALT     ********   X   02   RMS$_EOF       = 0001827A            RMS$_ORD       = 00018604
RMS$CREATE     = FFFFFFFE RG    02   RMS$_ESA       = 000184FC            RMS$_ORG       = 0001860C
RMS$V_STVSTATUS= 0000000E            RMS$_ESL       = 00018714            RMS$_PBF       = 00018614
RMS$_ABO       = 000183EC            RMS$_ESS       = 00018504            RMS$_PENDING   = 00018009
RMS$_ACC       = 0001C002            RMS$_EXP       = 000182C2            RMS$_PLG       = 0001861C
RMS$_ACT       = 0001825A            RMS$_EXT       = 0001C022            RMS$_PLV       = 0001872C
RMS$_AID       = 000183F4            RMS$_FAB       = 0001850C            RMS$_POS       = 00018624
RMS$_ALN       = 000183FC            RMS$_FAC       = 00018514            RMS$_PRM       = 0001862C
RMS$_ALQ       = 00018404            RMS$_FEX       = 00018282            RMS$_PRV       = 0001829A
RMS$_ANI       = 0001840C            RMS$_FLG       = 0001851C            RMS$_QUO       = 00018634
RMS$_AOP       = 00018414            RMS$_FLK       = 0001828A            RMS$_RAB       = 0001863C
RMS$_ATR       = 0001C0CC            RMS$_FNA       = 00018524            RMS$_RAC       = 00018644
RMS$_ATW       = 0001C0D4            RMS$_FND       = 0001C02A            RMS$_RAT       = 0001864C
RMS$_BKS       = 0001841C            RMS$_FNF       = 00018292            RMS$_RBF       = 00018654
RMS$_BKZ       = 00018424            RMS$_FNM       = 0001852C            RMS$_RER       = 0001C0F4
RMS$_BLN       = 0001842C            RMS$_FOP       = 0001853C            RMS$_REX       = 000182A2
RMS$_BOF       = 00018198            RMS$_FSZ       = 00018534            RMS$_RFA       = 0001865C
RMS$_BUG       = 00018434            RMS$_FUL       = 00018544            RMS$_RFM       = 00018664
RMS$_BUG_DAP   = 00018444            RMS$_IAL       = 0001854C            RMS$_RHB       = 0001866C
RMS$_BUG_DDI   = 0001843C            RMS$_IAN       = 00018554            RMS$_RLF       = 00018674
RMS$_BUG_XX2   = 0001844C            RMS$_IBF       = 00018754            RMS$_RLK       = 000182AA
RMS$_BUG_XX3   = 00018454            RMS$_IDX       = 0001855C            RMS$_RMV       = 0001C0FC
RMS$_BUG_XX4   = 0001845C            RMS$_IFA       = 0001C124            RMS$_RNF       = 000182B2
RMS$_BUG_XX5   = 00018464            RMS$_IFI       = 00018564            RMS$_RNL       = 000181A0
RMS$_BUG_XX6   = 0001846C            RMS$_IMX       = 0001856C            RMS$_ROP       = 0001867C
RMS$_BUG_XX7   = 00018474            RMS$_IOP       = 00018574            RMS$_RPL       = 0001C104
RMS$_BUG_XX8   = 0001847C            RMS$_IRC       = 0001857C            RMS$_RRV       = 00018684
RMS$_BUG_XX9   = 00018484            RMS$_ISI       = 00018584            RMS$_RSA       = 000182DA
RMS$_CAA       = 0001848C            RMS$_KBF       = 0001858C            RMS$_RSL       = 0001873C
RMS$_CCF       = 0001C0DC            RMS$_KEY       = 00018594            RMS$_RSS       = 00018694
RMS$_CCR       = 00018494            RMS$_KFF       = 00018031            RMS$_RST       = 0001869C
RMS$_CDA       = 0001C0E4            RMS$_KRF       = 0001859C            RMS$_RSZ       = 000186A4
RMS$_CHG       = 0001849C            RMS$_KSZ       = 000185A4            RMS$_RTB       = 000181A8
RMS$_CHK       = 000184A4            RMS$_LAN       = 000185AC            RMS$_SEQ       = 000186AC
RMS0CREAT       DISPATCH FOR CREATE OPERATION                    21-AUG-1978 21:59:43   VAX-11 MACRO X0.3-11               Page  13
SYMBOL TABLE                                                                                                                     (1)

RMS$_SHR       = 000186B4
RMS$_SIZ       = 000186BC
RMS$_SPL       = 0001C042
RMS$_SQO       = 000186C4
RMS$_STALL     = 00018001
RMS$_STK       = 000186CC
RMS$_SUC       = 00010001
RMS$_SUP       = 000182D2
RMS$_SUPERSEDE = 00010631
RMS$_SYN       = 000186D4
RMS$_SYS       = 0001C10C
RMS$_TEMP1     = 0001826A
RMS$_TEMP2     = 0001868C
RMS$_TMO       = 000181B0
RMS$_TRE       = 000186DC
RMS$_TYP       = 000186E4
RMS$_UBF       = 000186EC
RMS$_USZ       = 000186F4
RMS$_VER       = 000186FC
RMS$_VOL       = 00018704
RMS$_WBE       = 0001C12C
RMS$_WER       = 0001C114
RMS$_WLD       = 00018744
RMS$_WLK       = 000182BA
RMS$_WPL       = 0001C11C
RMS$_WSF       = 0001871C
RMS$_XAB       = 0001870C
SETORG           00000088 R     02
TPT$L_CREATE     ********   X   02
WC_MASK        = 00000038
WV             = 00000010


PROGRAM SECTION SYNOPSIS

.  ABS  .        00000000      00     NOPIC   USR   CON   ABS   LCL NOSHR NOEXE NORD  NOWRT BYTE
. BLANK .        00000000      01     NOPIC   USR   CON   REL   LCL NOSHR   EXE   RD    WRT BYTE
F$RMSOPEN0C      000000B5      02     NOPIC   USR   CON   REL   GBL NOSHR   EXE   RD  NOWRT BYTE
$ABS$            000001E4      03     NOPIC   USR   CON   ABS   LCL NOSHR   EXE   RD    WRT BYTE
L$RMS0           00000029      04     NOPIC   USR   CON   REL   GBL NOSHR   EXE   RD  NOWRT BYTE


THERE WERE NO ERRORS OR WARNINGS.
7050. BYTES LEFT IN FREE MEMORY POOL.
2636. BYTES OF RECLAIMED MEMORY.
OBJ$:RMS0CREAT,LIS$:RMS0CREAT/-SP=EXECML$/ML,LIB$:R/ML,SRC$:RMS0CREAT
30 MLB DIR RDS - 1113 GETS TO DEFINE 27 MACROS. 85 INTER. FILE WRITES.
