RMS0PARSE       PARSE OPERATION                                  21-AUG-1978 22:07:54   VAX-11 MACRO X0.3-11               Page   0
TABLE OF CONTENTS

   (1)      42  DECLARATIONS
   (1)      66  RMS$PARSE  -  PARSE FILENAME STRING ROUTINE
RMS0PARSE       PARSE OPERATION                                  21-AUG-1978 22:07:54   VAX-11 MACRO X0.3-11               Page   1
009                                                                                                                              (1)

                                     0000     1
                                     0000     2
                                     0000     3 	$BEGIN	RMS0PARSE,009,F$RMS0MISC,<PARSE OPERATION>
                                     0000     4 ; COPYRIGHT (C) 1977, 1978
                                     0000     5 ; DIGITAL EQUIPMENT CORPORATION, MAYNARD, MASSACHUSETTS 01754
                                     0000     6 ;
                                     0000     7 ; THIS SOFTWARE IS FURNISHED  UNDER A LICENSE FOR USE ONLY ON A SINGLE
                                     0000     8 ; COMPUTER  SYSTEM AND  MAY BE  COPIED ONLY WITH  THE INCLUSION OF THE
                                     0000     9 ; ABOVE COPYRIGHT NOTICE.  THIS SOFTWARE, OR ANY OTHER COPIES THEREOF,
                                     0000    10 ; MAY NOT BE PROVIDED OR  OTHERWISE MADE AVAILABLE TO ANY OTHER PERSON
                                     0000    11 ; EXCEPT FOR USE ON SUCH SYSTEM AND TO ONE WHO AGREES TO THESE LICENSE
                                     0000    12 ; TERMS.  TITLE TO AND  OWNERSHIP OF THE  SOFTWARE  SHALL AT ALL TIMES
                                     0000    13 ; REMAIN IN DEC.
                                     0000    14 ;
                                     0000    15 ; THE INFORMATION IN THIS SOFTWARE IS SUBJECT TO CHANGE WITHOUT NOTICE
                                     0000    16 ; AND SHOULD  NOT BE CONSTRUED  AS A COMMITMENT  BY DIGITAL  EQUIPMENT
                                     0000    17 ; CORPORATION.
                                     0000    18 ;
                                     0000    19 ; DEC ASSUMES  NO  RESPONSIBILITY  FOR  THE USE OR  RELIABILITY OF ITS
                                     0000    20 ; SOFTWARE ON EQUIPMENT WHICH IS NOT SUPPLIED BY DEC.
                                     0000    21 ;
                                     0000    22 ;++
                                     0000    23 ; FACILITY: RMS32
                                     0000    24 ;
                                     0000    25 ; ABSTRACT:
                                     0000    26 ;		THIS ROUTINE IS THE HIGHEST LEVEL CONTROL
                                     0000    27 ;		ROUTINE TO PERFORM THE $PARSE FUNCTION.
                                     0000    28
                                     0000    29 ;
                                     0000    30 ; ENVIRONMENT:
                                     0000    31 ;		STAR PROCESSOR RUNNING STARLET EXEC.
                                     0000    32 ;
                                     0000    33 ; AUTHOR: L F LAVERDURE,	 CREATION DATE: 11-APR-77
                                     0000    34 ;
                                     0000    35 ; MODIFIED BY:
                                     0000    36 ;
                                     0000    37 ;	L F LAVERDURE,      9-AUG-78  16:25	; RETURN DEV FAB FIELD
                                     0000    38 ;	L F LAVERDURE,   24-MAY-78  14:09
                                     0000    39 ;	J A KRYCKA,	 16-MAY-78  15:20
                                     0000    40 ;--
RMS0PARSE       PARSE OPERATION                                  21-AUG-1978 22:07:54   VAX-11 MACRO X0.3-11               Page   2
009             DECLARATIONS                                                                                                     (1)

                                     0000    42 	.SBTTL	DECLARATIONS
                                     0000    43 ;
                                     0000    44 ; INCLUDE FILES:
                                     0000    45 ;
                                     0000    46
                                     0000    47 ;
                                     0000    48 ; MACROS:
                                     0000    49 ;
                                     0000    50 	$FABDEF
                                     0000    51 	$NAMDEF
                                     0000    52 	$IFBDEF
                                     0000    53 	$FWADEF
                                     0000    54 	$FIBDEF
                                     0000    55 	$RMSDEF
                                     0000    56 	.LIST MEB
                                     0000    57 ;
                                     0000    58 ; EQUATED SYMBOLS:
                                     0000    59 ;
                                     0000    60
                                     0000    61 ;
                                     0000    62 ; OWN STORAGE:
                                     0000    63 ;
                                     0000    64
RMS0PARSE       PARSE OPERATION                                  21-AUG-1978 22:07:54   VAX-11 MACRO X0.3-11               Page   3
009             RMS$PARSE  -  PARSE FILENAME STRING ROUTINE                                                                      (1)

                                     0000    66 	.SBTTL	RMS$PARSE  -  PARSE FILENAME STRING ROUTINE
                                     0000    67 ;++
                                     0000    68 ; FUNCTIONAL DESCRIPTION:
                                     0000    69 ;
                                     0000    70 ; THIS ROUTINE CREATES AN IFAB, CALLS THE VARIOUS ROUTINES TO
                                     0000    71 ; PARSE THE FILENAME RETURNING THE VARIOUS RESULTS IN THE NAM BLOCK,
                                     0000    72 ; THEN DELETES THE IFAB.
                                     0000    73 ;
                                     0000    74 ; CALLING SEQUENCE:
                                     0000    75 ;
                                     0000    76 ;	ENTERED FROM EXEC AS A RESULT OF USER'S CALLING SYS$PARSE
                                     0000    77 ;
                                     0000    78 ; INPUT PARAMETERS:
                                     0000    79 ;
                                     0000    80 ;	AP	USER'S ARGUMENT LIST ADDR
                                     0000    81 ;
                                     0000    82 ; IMPLICIT INPUTS:
                                     0000    83 ;
                                     0000    84 ;	THE CONTENTS OF THE FAB (FNA, FNS, DNA, DNS) AND RELATED NAM BLOCK.
                                     0000    85 ;
                                     0000    86 ; OUTPUT PARAMETERS:
                                     0000    87 ;
                                     0000    88 ;	R1	DESTROYED
                                     0000    89 ;	R0	STATUS CODE
                                     0000    90 ;
                                     0000    91 ; IMPLICIT OUTPUTS:
                                     0000    92 ;
                                     0000    93 ;	THE STS AND STV FIELDS OF THE FAB ARE OUTPUT ALONG WITH THE
                                     0000    94 ;	VARIOUS FIELDS OF THE NAM BLOCK (FID, DID, ESL AND THE BUFFER AT ESA)
                                     0000    95 ;	 TO REFLECT THE STATUS OF THE $PARSE OPERATION. (SEE RMS FUNCTIONAL
                                     0000    96 ; 	SPEC FOR A COMPLETE LIST.)
                                     0000    97 ;
                                     0000    98 ;	A COMPLETION AST IS QUEUED IF SPECIFIED IN THE USER ARGLIST.
                                     0000    99 ;
                                     0000   100 ; COMPLETION CODES:
                                     0000   101 ;
                                     0000   102 ;	STANDARD RMS (SEE FUNCTIONAL SPEC FOR LIST).
                                     0000   103 ;
                                     0000   104 ; SIDE EFFECTS:
                                     0000   105 ;
                                     0000   106 ;	NONE
                                     0000   107 ;
                                     0000   108 ;--
                                     0000   109 	$ENTRY	RMS$PARSE
                                 00000000       	.PSECT	F$RMS0MISC,GBL,NOWRT
                                     0000   110 	$TSTPT	PARSE
                 00000200'9F     D6  0000       		INCL	@#PIO$GL_FMLH+512+TPT$L_PARSE
                          FFF7'  30  0006   111 	BSBW	RM$FSETI			;CREATE AN IFAB
                                     0009   112 						; RETURNS TO USER ON ERROR
                          08     10  0009   113 	BSBB	RM$PARSE_FILE			; GO DO THE PARSE
         40 A8         54 A9     D0  000B   114 	MOVL	IFB$L_AS_DEV(R9),FAB$L_DEV(R8)	; FILL IN THE DEVICE CHARACTERISTICS
                          FFED'  31  0010   115 	BRW	RM$CLSCU			;ALL DONE - EVAPORATE IFAB
RMS0PARSE       PARSE OPERATION                                  21-AUG-1978 22:07:54   VAX-11 MACRO X0.3-11               Page   4
009             RMS$PARSE  -  PARSE FILENAME STRING ROUTINE                                                                      (1)

                                     0013   117 ;++
                                     0013   118 ;
                                     0013   119 ;  RM$PARSE_FILE SUBROUTINE TO PARSE A FILE SPEC.
                                     0013   120 ;
                                     0013   121 ;  ALSO CALLED BY RMS$RENAME.
                                     0013   122 ;
                                     0013   123 ;  PARSE THE FILE SPEC AND, UNLESS A CHANNEL IS ALREADY ASSIGNED, ASSIGNS
                                     0013   124 ;  A CHANNEL, SETS THE DIRECTORY ID, AND FILLS IN VARIOUS NAM BLOCK FIELDS.
                                     0013   125 ;
                                     0013   126 ;  INPUTS:
                                     0013   127 ;
                                     0013   128 ;	R8		FAB ADDRESS
                                     0013   129 ;	R9		IFAB ADDRESS
                                     0013   130 ;	R11		IMPURE AREAD ADDRESS
                                     0013   131 ;
                                     0013   132 ;  OUTPUTS:
                                     0013   133 ;
                                     0013   134 ;	R0		STATUS
                                     0013   135 ;	R10		FWA ADDRESS
                                     0013   136 ;	R1-R7,AP	DESTROYED
                                     0013   137 ;
                                     0013   138 ;--
                                     0013   139 RM$PARSE_FILE::
                                     0013   140 ;
                                     0013   141 ;  ZERO THE FILE AND DIRECTORY I.D.'S, IF ANY
                                     0013   142 ;
            57         28 A8     D0  0013   143 	MOVL	FAB$L_NAM(R8),R7		;GET NAM BLK ADDR
                          02     13  0017   144 	BEQL	10$				;BRANCH IF NONE
                          25     10  0019   145 	BSBB	ZERO_FID
                          FFE2'  30  001B   146 10$:	BSBW	RM$XPFN				;EXPAND FILE NAME
            1E            50     E9  001E   147 	BLBC	R0,EXIT				;GET OUT ON ERROR
                       20 A9     B5  0021   148 	TSTW	IFB$W_CHNL(R9)			;CHANNEL ALREADY ASSIGNED? ($RENAME)
                          19     12  0024   149 	BNEQ	EXIT				;BRANCH IF YES
                       08 AA     95  0026   150 	TSTB	FWA$B_ESCFLG(R10)		;PPF INDICATED?
                          0C     12  0029   151 	BNEQ	CHKNAM				;BRANCH IF YES
                          FFD2'  30  002B   152 	BSBW	RM$ASSIGN			;ASSIGN CHANNNEL TO DEVICE
            0E            50     E9  002E   153 	BLBC	R0,EXIT
                                     0031   154 ;!!!!!
                                     0031   155 ;  MUST INCLUDE CODE HERE TO PROCESS WILD CARD DIRECTORIES.
                                     0031   156 ;!!!!!
                          FFCC'  30  0031   157 	BSBW	RM$SETDID			;LOOKUP THE DIRECTORY NAME
            08            50     E9  0034   158 	BLBC	R0,EXIT
            57         28 A8     D0  0037   159 CHKNAM:	MOVL	FAB$L_NAM(R8),R7		;PICK UP THE NAM BLK AGAIN
                          02     13  003B   160 	BEQL	EXIT				;BRANCH IF NONE
                          0E     10  003D   161 	BSBB	PROCESS_NAMBLK			;GO PROCESS NAM BLK
                                 05  003F   162 EXIT:	RSB
RMS0PARSE       PARSE OPERATION                                  21-AUG-1978 22:07:54   VAX-11 MACRO X0.3-11               Page   5
009             RMS$PARSE  -  PARSE FILENAME STRING ROUTINE                                                                      (1)

                                     0040   164 ;++
                                     0040   165 ;
                                     0040   166 ;  SUBROUTINE TO ZERO THE FILE AND DIRECTORY ID
                                     0040   167 ;  (NOTE: THIS NEEDS TO BE A SUBROUTINE BECAUSE OF THE WAY RM$CHKNAMBLK
                                     0040   168 ;	WORKS, I.E., IT POPS A RETURN PC AND RETURNS TO THE PREVIOUS
                                     0040   169 ;	CALLER)
                                     0040   170 ;
                                     0040   171 ;--
                                     0040   172 ZERO_FID:
                          FFBD'  30  0040   173 	BSBW	RM$CHKNAMBLK			;CHECK GOODNESS OF NAM BLK
                                     0043   174 						;(NOTE: RETURNS TO CALLER
                                     0043   175 						; OF ZERO_FID IF IN ERROR)
                       14 A7     94  0043   176 	CLRB	NAM$T_DVI(R7)
                                     0046   177 	ASSUME	NAM$W_DID EQ NAM$W_FID+6
                       24 A7     7C  0046   178 	CLRQ	NAM$W_FID(R7)
                       2C A7     D4  0049   179 	CLRL	NAM$W_DID+2(R7)
                                 05  004C   180 	RSB
                                     004D   181 ;++
                                     004D   182 ;
                                     004D   183 ; SUBROUTINE TO COPY THE DID AND DVI FIELDS TO THE NAM BLK AND ZERO
                                     004D   184 ; THE WCC AND RSL FIELDS
                                     004D   185 ;
                                     004D   186 ;--
                                     004D   187 PROCESS_NAMBLK:
                          FFB0'  30  004D   188 	BSBW	RM$CHKNAMBLK			;CHECK GOODNESS
                                     0050   189 						; (SEE NOTE ABOVE)
            6A            19     E0  0050   190 	BBS	#FWA$V_NODE,(R10),10$	; IF NODENAME WAS FOUND,
                          12         0053
                                     0054   191 					; SKIP OVER DVI & DID FIELDS
         14 A7         3C AA     90  0054   192 	MOVB	FWA$Q_DEVICE(R10),NAM$T_DVI(R7)	;SAVE DVI LEN. CODE
         40 BA         3C AA     28  0059   193 	MOVC3	FWA$Q_DEVICE(R10),@FWA$Q_DEVICE+4(R10),NAM$T_DVI+1(R7)
                       15 A7         005E
                                     0060   194 						;COPY DEVICE I.D. STRING
                                     0060   195 	ASSUME	NAM$L_WCC EQ NAM$W_DID+6
         2A A7       00AE CA     7D  0060   196 	MOVQ	FWA$T_FIBBUF+FIB$W_DID(R10),NAM$W_DID(R7) ;COPY DID
                       30 A7     D4  0066   197 10$:	CLRL	NAM$L_WCC(R7)			;CLEAR WILD CARD CONTEXT
                       03 A7     94  0069   198 	CLRB	NAM$B_RSL(R7)			;INDICATE NO RESLT. STRING
                                     006C   199 	RMSSUC
            50            01     D0  006C       		MOVL	#1,R0
                                 05  006F   200 	RSB
                                     0070   201 	.END
RMS0PARSE       PARSE OPERATION                                  21-AUG-1978 22:07:54   VAX-11 MACRO X0.3-11               Page   6
SYMBOL TABLE                                                                                                                     (1)

$$.PSECT_EP    = 00000000            FAB$M_ESC      = 08000000            FAB$V_INP      = 00000013
$$RMSTEST      = 0000001A            FAB$M_EXE      = 00000080            FAB$V_JNL      = 00000016
$$RMS_PBUGCHK  = 00000010            FAB$M_FTN      = 00000001            FAB$V_KFO      = 0000001E
$$RMS_TBUGCHK  = 00000008            FAB$M_GET      = 00000002            FAB$V_MSE      = 00000004
$$RMS_UMODE    = 00000004            FAB$M_INP      = 00080000            FAB$V_MXV      = 00000001
BIT...         = 0001C134            FAB$M_JNL      = 00400000            FAB$V_NAM      = 00000018
CHKNAM           00000037 R     02   FAB$M_KFO      = 40000000            FAB$V_NEF      = 0000000A
EXIT             0000003F R     02   FAB$M_MSE      = 00000010            FAB$V_NFS      = 00000010
FAB$B_BID        00000000            FAB$M_MXV      = 00000002            FAB$V_NIL      = 00000005
FAB$B_BKS        0000003E            FAB$M_NAM      = 01000000            FAB$V_OFP      = 0000001D
FAB$B_BLN        00000001            FAB$M_NEF      = 00000400            FAB$V_ORG      = 00000004
FAB$B_DNS        00000035            FAB$M_NFS      = 00010000            FAB$V_POS      = 00000008
FAB$B_FAC        00000016            FAB$M_NIL      = 00000020            FAB$V_PPF      = 00000012
FAB$B_FNS        00000034            FAB$M_OFP      = 20000000            FAB$V_PPF_IND  = 0000000E
FAB$B_FSZ        0000003F            FAB$M_POS      = 00000100            FAB$V_PPF_RAT  = 00000006
FAB$B_ORG        0000001D            FAB$M_PPF      = 00040000            FAB$V_PRN      = 00000002
FAB$B_RAT        0000001E            FAB$M_PPF_IND  = 00004000            FAB$V_PUT      = 00000000
FAB$B_RFM        0000001F            FAB$M_PPF_RAT  = 00003FC0            FAB$V_RCK      = 00000017
FAB$B_RTV        0000001C            FAB$M_PRN      = 00000004            FAB$V_RWC      = 0000000B
FAB$B_SHR        00000017            FAB$M_PUT      = 00000001            FAB$V_RWO      = 00000007
FAB$C_BID      = 00000003            FAB$M_RCK      = 00800000            FAB$V_SCF      = 0000000E
FAB$C_BLN        00000050            FAB$M_RWC      = 00000800            FAB$V_SHRDEL   = 00000002
FAB$C_FIX      = 00000001            FAB$M_RWO      = 00000080            FAB$V_SHRGET   = 00000001
FAB$C_HSH      = 00000030            FAB$M_SCF      = 00004000            FAB$V_SHRPUT   = 00000000
FAB$C_IDX      = 00000020            FAB$M_SHRDEL   = 00000004            FAB$V_SHRUPD   = 00000003
FAB$C_MAXRFM   = 00000003            FAB$M_SHRGET   = 00000002            FAB$V_SPL      = 0000000D
FAB$C_REL      = 00000010            FAB$M_SHRPUT   = 00000001            FAB$V_SQO      = 00000006
FAB$C_RFM_DFLT = 00000002            FAB$M_SHRUPD   = 00000008            FAB$V_SUP      = 00000002
FAB$C_SEQ      = 00000000            FAB$M_SPL      = 00002000            FAB$V_TEF      = 0000001C
FAB$C_UDF      = 00000000            FAB$M_SQO      = 00000040            FAB$V_TMD      = 00000004
FAB$C_VAR      = 00000002            FAB$M_SUP      = 00000004            FAB$V_TMP      = 00000003
FAB$C_VFC      = 00000003            FAB$M_TEF      = 10000000            FAB$V_TRN      = 00000004
FAB$K_BLN        00000050            FAB$M_TMD      = 00000010            FAB$V_UFM      = 0000001A
FAB$L_ALQ        00000010            FAB$M_TMP      = 00000008            FAB$V_UFO      = 00000011
FAB$L_CTX        00000018            FAB$M_TRN      = 00000010            FAB$V_UPD      = 00000003
FAB$L_DEV        00000040            FAB$M_UFM      = 04000000            FAB$V_UPI      = 00000006
FAB$L_DNA        00000030            FAB$M_UFO      = 00020000            FAB$V_WCK      = 00000009
FAB$L_FNA        0000002C            FAB$M_UPD      = 00000008            FAB$W_BLS        0000003C
FAB$L_FOP        00000004            FAB$M_UPI      = 00000040            FAB$W_DEQ        00000014
FAB$L_JNL        00000020            FAB$M_WCK      = 00000200            FAB$W_IFI        00000002
FAB$L_MRN        00000038            FAB$S_ORG      = 00000004            FAB$W_MRS        00000036
FAB$L_NAM        00000028            FAB$S_PPF_RAT  = 00000008            FIB$B_ALALIGN    00000021
FAB$L_SDC        00000044            FAB$V_BIO      = 00000005            FIB$B_ALOPTS     00000020
FAB$L_STS        00000008            FAB$V_BLK      = 00000003            FIB$B_DID_NMX    0000000F
FAB$L_STV        0000000C            FAB$V_BRO      = 00000006            FIB$B_DID_RVN    0000000E
FAB$L_XAB        00000024            FAB$V_CBT      = 00000015            FIB$B_FID_NMX    00000009
FAB$M_BIO      = 00000020            FAB$V_CIF      = 00000019            FIB$B_FID_RVN    00000008
FAB$M_BLK      = 00000008            FAB$V_CR       = 00000001            FIB$B_LOC_NMX    00000027
FAB$M_BRO      = 00000040            FAB$V_CTG      = 00000014            FIB$B_LOC_RVN    00000026
FAB$M_CBT      = 00200000            FAB$V_DEL      = 00000002            FIB$B_WSIZE      00000003
FAB$M_CIF      = 02000000            FAB$V_DFW      = 00000005            FIB$C_ACCDATA    0000000A
FAB$M_CR       = 00000002            FAB$V_DLT      = 0000000F            FIB$C_ALCDATA    0000002C
FAB$M_CTG      = 00100000            FAB$V_DMO      = 0000000C            FIB$C_CYL      = 00000001
FAB$M_DEL      = 00000004            FAB$V_ESC      = 0000001B            FIB$C_DIRDATA    00000016
FAB$M_DFW      = 00000020            FAB$V_EXE      = 00000007            FIB$C_EXTDATA    00000020
FAB$M_DLT      = 00008000            FAB$V_FTN      = 00000000            FIB$C_ILLEGAL  = 00000005
FAB$M_DMO      = 00001000            FAB$V_GET      = 00000001            FIB$C_LBN      = 00000002
RMS0PARSE       PARSE OPERATION                                  21-AUG-1978 22:07:54   VAX-11 MACRO X0.3-11               Page   7
SYMBOL TABLE                                                                                                                     (1)

FIB$C_LENGTH     0000002C            FIB$V_ALLNAM   = 00000005            FWA$B_WILDFLGS   00000002
FIB$C_MTALEN     0000001C            FIB$V_ALLTYP   = 00000004            FWA$B_XLTMODE    0000000A
FIB$C_NEXTVOL  = 00000003            FIB$V_ALLVER   = 00000003            FWA$B_XLTTBL     0000000B
FIB$C_POSEND   = 00000002            FIB$V_CURPOS   = 00000004            FWA$C_ALL      = 000000F8
FIB$C_REWINDFIL= 00000006            FIB$V_DLOCK    = 00000001            FWA$C_DEVBUFSIZ= 0000000F
FIB$C_REWINDVOL= 00000001            FIB$V_EXACT    = 00000000            FWA$C_DIRBUFSIZ= 00000009
FIB$C_RFI      = 00000004            FIB$V_EXECUTE  = 00000010            FWA$C_FIBLEN   = 0000002C
FIB$C_SPACE    = 00000004            FIB$V_EXTEND   = 00000007            FWA$C_MAXDEVICE= 0000000F
FIB$C_VBN      = 00000003            FIB$V_FILCON   = 00000002            FWA$C_MAXDIRLEN= 0000003C
FIB$K_ACCDATA    0000000A            FIB$V_FINDFID  = 0000000B            FWA$C_MAXNAME  = 00000009
FIB$K_ALCDATA    0000002C            FIB$V_HIGHVER  = 0000000F            FWA$C_MAXNODE  = 00000028
FIB$K_DIRDATA    00000016            FIB$V_LOWVER   = 0000000E            FWA$C_MAXQUOTED= 0000007F
FIB$K_EXTDATA    00000020            FIB$V_MARKBAD  = 0000000A            FWA$C_MAXSUBDIR= 00000007
FIB$K_LENGTH     0000002C            FIB$V_NEWVER   = 00000009            FWA$C_MAXTYPE  = 00000003
FIB$K_MTALEN     0000001C            FIB$V_NOHDREXT = 00000009            FWA$C_MAXVER   = 00000006
FIB$L_ACCTL      00000000            FIB$V_NOREAD   = 0000000A            FWA$C_NAMBUFSIZ= 0000000A
FIB$L_CNTRLVAL   00000018            FIB$V_NOTRUNC  = 0000000B            FWA$C_NODBUFSIZ= 00000028
FIB$L_EXSZ       00000018            FIB$V_NOWRITE  = 00000000            FWA$C_RNSBUFSIZ= 00000014
FIB$L_EXVBN      0000001C            FIB$V_ONCYL    = 00000001            FWA$C_TYPBUFSIZ= 00000004
FIB$L_LOC_ADDR   00000028            FIB$V_PRSRV_ATR= 00000011            FWA$C_VERBUFSIZ= 00000006
FIB$L_WCC        00000010            FIB$V_READCK   = 00000009            FWA$C_XLTBUFSIZ= 0000003F
FIB$M_ALCON    = 00000001            FIB$V_REWIND   = 00000003            FWA$L_BUFFLG     00000014
FIB$M_ALCONB   = 00000002            FIB$V_SEQONLY  = 00000006            FWA$L_DEVNODADR  00000020
FIB$M_ALDEF    = 00000008            FIB$V_SPOOL    = 00000004            FWA$L_ESCSTRING  00000008
FIB$M_ALLNAM   = 00000020            FIB$V_SUPERSEDE= 0000000A            FWA$L_HBK        00000098
FIB$M_ALLTYP   = 00000010            FIB$V_TRUNC    = 00000008            FWA$L_LOOKUP     0000001C
FIB$M_ALLVER   = 00000008            FIB$V_UPDATE   = 00000006            FWA$L_SBN        00000094
FIB$M_CURPOS   = 00000010            FIB$V_WILD     = 00000008            FWA$L_UIC        0000001C
FIB$M_DLOCK    = 00000002            FIB$V_WRITE    = 00000008            FWA$L_XLTCNT     0000002C
FIB$M_EXACT    = 00000001            FIB$V_WRITECK  = 00000005            FWA$L_XLTSIZ     00000018
FIB$M_EXECUTE  = 00010000            FIB$W_ALLOC      00000022            FWA$M_DEVICE   = 00008000
FIB$M_EXTEND   = 00000080            FIB$W_CNTRLFUNC  00000016            FWA$M_DIR      = 00004000
FIB$M_FILCON   = 00000004            FIB$W_DID        0000000A            FWA$M_DUPOK    = 00000001
FIB$M_FINDFID  = 00000800            FIB$W_DID_NUM    0000000A            FWA$M_EXP_DEV  = 00800000
FIB$M_HIGHVER  = 00008000            FIB$W_DID_RVN    0000000E            FWA$M_EXP_DIR  = 00400000
FIB$M_LOWVER   = 00004000            FIB$W_DID_SEQ    0000000C            FWA$M_EXP_NAME = 00040000
FIB$M_MARKBAD  = 00000400            FIB$W_EXCTL      00000016            FWA$M_EXP_TYPE = 00020000
FIB$M_NEWVER   = 00000200            FIB$W_FID        00000004            FWA$M_EXP_VER  = 00010000
FIB$M_NOHDREXT = 00000200            FIB$W_FID_NUM    00000004            FWA$M_FNA_PASS = 00000010
FIB$M_NOREAD   = 00000400            FIB$W_FID_RVN    00000008            FWA$M_NAME     = 00002000
FIB$M_NOTRUNC  = 00000800            FIB$W_FID_SEQ    00000006            FWA$M_NAMEFLG  = 00000002
FIB$M_NOWRITE  = 00000001            FIB$W_LOC_FID    00000022            FWA$M_NAM_DVI  = 00000020
FIB$M_ONCYL    = 00000002            FIB$W_LOC_NUM    00000022            FWA$M_RLF_PASS = 00000008
FIB$M_PRSRV_ATR= 00020000            FIB$W_LOC_RVN    00000026            FWA$M_TYPE     = 00001000
FIB$M_READCK   = 00000200            FIB$W_LOC_SEQ    00000024            FWA$M_TYPEFLG  = 00000004
FIB$M_REWIND   = 00000008            FIB$W_NMCTL      00000014            FWA$M_VERSION  = 00000800
FIB$M_SEQONLY  = 00000040            FWA$B_DIRFLGS    00000004            FWA$Q_DEVICE     0000003C
FIB$M_SPOOL    = 00000010            FWA$B_DIRLEN     00000030            FWA$Q_DIR        00000024
FIB$M_SUPERSEDE= 00000400            FWA$B_DIRTERM    00000007            FWA$Q_DIR1       00000044
FIB$M_TRUNC    = 00000100            FWA$B_DIRWCFLGS  00000005            FWA$Q_DIR2       0000004C
FIB$M_UPDATE   = 00000040            FWA$B_ESCFLG     00000008            FWA$Q_FIB        0000000C
FIB$M_WILD     = 00000100            FWA$B_ESCTYP     00000009            FWA$Q_FLAGS      00000000
FIB$M_WRITE    = 00000100            FWA$B_FLDFLGS    00000001            FWA$Q_LOGNAME    0000001C
FIB$M_WRITECK  = 00000020            FWA$B_LNFLG      00000006            FWA$Q_NAME       00000084
FIB$V_ALCON    = 00000000            FWA$B_PARSEFLGS  00000003            FWA$Q_NODE       00000034
FIB$V_ALCONB   = 00000001            FWA$B_PASSFLGS   00000000            FWA$Q_QUOTED     0000009C
FIB$V_ALDEF    = 00000003            FWA$B_UNDERLINE  00000154            FWA$Q_RNS        0000008C
RMS0PARSE       PARSE OPERATION                                  21-AUG-1978 22:07:54   VAX-11 MACRO X0.3-11               Page   8
SYMBOL TABLE                                                                                                                     (1)

FWA$Q_STATBLK    00000094            GBL...         = 00000000            IFB$M_BIO      = 00000020
FWA$Q_TYPE       0000008C            IFB$B_AMAX       00000059            IFB$M_BRO      = 00000040
FWA$Q_VERSION    00000094            IFB$B_AVBN       00000058            IFB$M_DEL      = 00000004
FWA$Q_XLTBUF1    0000000C            IFB$B_BID        00000008            IFB$M_EXE      = 00000080
FWA$Q_XLTBUF2    00000024            IFB$B_BKS        0000004A            IFB$M_GET      = 00000002
FWA$S_DIR_LVLS = 00000003            IFB$B_BLN        00000009            IFB$M_PUT      = 00000001
FWA$T_ATR_LIST   00000164            IFB$B_EFN        0000000B            IFB$M_TRN      = 00000010
FWA$T_DEVICEBUF  00000155            IFB$B_EXTRABUF   0000005D            IFB$M_UPD      = 00000008
FWA$T_DIB        00000174            IFB$B_FAC        00000022            IFB$S_ORG      = 00000004
FWA$T_DIR1BUF    000000D0            IFB$B_FSZ        0000004B            IFB$S_RFM      = 00000004
FWA$T_DIR2BUF    000000D9            IFB$B_KBUFSZ     0000005C            IFB$V_ACCESSED = 00000025
FWA$T_FIBBUF     000000A4            IFB$B_MODE       0000000A            IFB$V_ANSI_D   = 00000026
FWA$T_NAMEBUF    00000118            IFB$B_NUM_KEYS   0000005A            IFB$V_ASYNC    = 00000023
FWA$T_NODEBUF    0000012C            IFB$B_ORGCASE    00000023            IFB$V_ASYNCWAIT= 00000024
FWA$T_TYPEBUF    00000122            IFB$B_RAT        0000003D            IFB$V_BIO      = 00000005
FWA$T_VERBUF     00000126            IFB$B_RFMORG     0000003C            IFB$V_BRO      = 00000006
FWA$T_XLTBUFF1   00000164            IFB$B_UBUFSZ     0000005B            IFB$V_BUSY     = 00000020
FWA$T_XLTBUFF2   000001A4            IFB$C_BID      = 0000000B            IFB$V_CREATE   = 00000032
FWA$V_CUR_VER  = 00000006            IFB$C_BLN        00000060            IFB$V_DAP      = 0000003E
FWA$V_DEVICE   = 0000000F            IFB$C_BLN_IDX    00000060            IFB$V_DAP_OPEN = 0000003D
FWA$V_DIR      = 0000000E            IFB$C_BLN_REL    00000060            IFB$V_DEL      = 00000002
FWA$V_DIR1     = 00000020            IFB$C_BLN_SEQ    0000005C            IFB$V_DFW      = 0000002C
FWA$V_DIR2     = 00000021            IFB$C_DIR      = 00000003            IFB$V_DLT      = 0000002B
FWA$V_DIR_LVLS = 0000001D            IFB$C_FHAEND     00000050            IFB$V_DMO      = 00000028
FWA$V_DUPOK    = 00000000            IFB$C_IDX      = 00000002            IFB$V_EOF      = 00000021
FWA$V_EXP_DEV  = 00000017            IFB$C_MAXORG   = 00000002            IFB$V_EXE      = 00000007
FWA$V_EXP_DIR  = 00000016            IFB$C_REL      = 00000001            IFB$V_GET      = 00000001
FWA$V_EXP_NAME = 00000012            IFB$C_SEQ      = 00000000            IFB$V_MSE      = 00000031
FWA$V_EXP_TYPE = 00000011            IFB$K_BLN        00000060            IFB$V_NORECLK  = 00000033
FWA$V_EXP_VER  = 00000010            IFB$K_BLN_IDX    00000060            IFB$V_NSP      = 0000003F
FWA$V_FNA_PASS = 00000004            IFB$K_BLN_REL    00000060            IFB$V_NWA      = 0000003C
FWA$V_GRPMBR   = 0000001B            IFB$K_BLN_SEQ    0000005C            IFB$V_ORG      = 00000004
FWA$V_LOGNAME  = 00000030            IFB$K_FHAEND     00000050            IFB$V_PPF_IMAGE= 00000022
FWA$V_NAME     = 0000000D            IFB$L_ARGLST     00000018            IFB$V_PPF_INPUT= 0000002E
FWA$V_NAMEFLG  = 00000001            IFB$L_ASBADDR    00000014            IFB$V_PUT      = 00000000
FWA$V_NAM_DVI  = 00000005            IFB$L_AS_DEV     00000054            IFB$V_RFM      = 00000000
FWA$V_NETSTR   = 00000032            IFB$L_BDB_BLNK   00000034            IFB$V_RWC      = 00000027
FWA$V_NODE     = 00000019            IFB$L_BDB_FLNK   00000030            IFB$V_RW_ATTR  = 00000034
FWA$V_OBJTYPE  = 00000031            IFB$L_BKPBITS    00000004            IFB$V_SCF      = 0000002A
FWA$V_QUOTED   = 0000001A            IFB$L_BWB        0000000C            IFB$V_SPL      = 00000029
FWA$V_RLF_PASS = 00000003            IFB$L_DVBN       00000058            IFB$V_SQO      = 0000002D
FWA$V_TYPE     = 0000000C            IFB$L_EBK        00000044            IFB$V_TEF      = 00000036
FWA$V_TYPEFLG  = 00000002            IFB$L_FRB_PTR    00000028            IFB$V_TMP      = 00000035
FWA$V_VERSION  = 0000000B            IFB$L_FWA_BDB    00000050            IFB$V_TRN      = 00000004
FWA$V_WC_NAME  = 00000015            IFB$L_HBK        00000040            IFB$V_UPD      = 00000003
FWA$V_WC_TYPE  = 00000014            IFB$L_IDX_PTR    00000054            IFB$V_WRTACC   = 00000030
FWA$V_WC_VER   = 00000013            IFB$L_IOS        0000000C            IFB$W_ASDEVBSIZ  0000005A
FWA$V_WILDCARD = 00000018            IFB$L_IOS4       00000010            IFB$W_BKS_BYTES  0000005C
FWA$V_WILD_DIR = 0000001C            IFB$L_IRAB_LNK   0000001C            IFB$W_BKS_RECS   0000005E
FWA$V_WILD_GRP = 00000028            IFB$L_LAST_FAB   00000024            IFB$W_CHNL       00000020
FWA$V_WILD_MBR = 00000029            IFB$L_LOCK_BDB   00000050            IFB$W_DEQ        0000004E
FWA$V_WILD_SFD1= 00000029            IFB$L_MRN        00000054            IFB$W_DEVBUFSIZ  00000038
FWA$V_WILD_UFD = 00000028            IFB$L_NRP_LNK    00000050            IFB$W_EBK0       00000044
FWA$W_ESCIFI     0000000A            IFB$L_NWA_PTR    00000028            IFB$W_EBK2       00000046
FWA$W_FNAMSIZ    00000018            IFB$L_PRIM_DEV   00000000            IFB$W_FFB        00000048
FWA$W_PRO        00000020            IFB$L_RLB_LNK    0000002C            IFB$W_IOS2       0000000E
FWA$W_UCHAR      0000002C            IFB$L_RNS_LEN    00000050            IFB$W_LRL        0000003E
RMS0PARSE       PARSE OPERATION                                  21-AUG-1978 22:07:54   VAX-11 MACRO X0.3-11               Page   9
SYMBOL TABLE                                                                                                                     (1)

IFB$W_MRS        0000004C            NAM$V_EXP_DEV  = 00000007            RMS$_BKZ       = 00018424
IFB$W_RTDEQ      0000003A            NAM$V_EXP_DIR  = 00000006            RMS$_BLN       = 0001842C
NAM$B_BID        00000000            NAM$V_EXP_NAME = 00000002            RMS$_BOF       = 00018198
NAM$B_BLN        00000001            NAM$V_EXP_TYPE = 00000001            RMS$_BUG       = 00018434
NAM$B_CURLVL     00000038            NAM$V_EXP_VER  = 00000000            RMS$_BUG_DAP   = 00018444
NAM$B_ESL        0000000B            NAM$V_GRP_MBR  = 00000013            RMS$_BUG_DDI   = 0001843C
NAM$B_ESS        0000000A            NAM$V_HIGHVER  = 0000000F            RMS$_BUG_XX2   = 0001844C
NAM$B_RSL        00000003            NAM$V_LOWVER   = 0000000E            RMS$_BUG_XX3   = 00018454
NAM$B_RSS        00000002            NAM$V_NODE     = 00000011            RMS$_BUG_XX4   = 0001845C
NAM$C_BID      = 00000002            NAM$V_PPF      = 00000010            RMS$_BUG_XX5   = 00018464
NAM$C_BLN        00000038            NAM$V_QUOTED   = 00000012            RMS$_BUG_XX6   = 0001846C
NAM$C_BLN_DIRWC  00000050            NAM$V_WILDCARD = 00000008            RMS$_BUG_XX7   = 00018474
NAM$C_DVI      = 00000010            NAM$V_WILD_DIR = 00000014            RMS$_BUG_XX8   = 0001847C
NAM$C_MAXRSS   = 00000080            NAM$V_WILD_GRP = 00000018            RMS$_BUG_XX9   = 00018484
NAM$C_MAXRSSLCL= 00000060            NAM$V_WILD_MBR = 00000019            RMS$_CAA       = 0001848C
NAM$K_BLN        00000038            NAM$V_WILD_NAME= 00000005            RMS$_CCF       = 0001C0DC
NAM$K_BLN_DIRWC  00000050            NAM$V_WILD_SFD1= 00000019            RMS$_CCR       = 00018494
NAM$L_DIRWCC1    00000040            NAM$V_WILD_SFD2= 0000001A            RMS$_CDA       = 0001C0E4
NAM$L_DIRWCC2    00000044            NAM$V_WILD_SFD3= 0000001B            RMS$_CHG       = 0001849C
NAM$L_DIRWCC3    00000048            NAM$V_WILD_SFD4= 0000001C            RMS$_CHK       = 000184A4
NAM$L_DIRWCC4    0000004C            NAM$V_WILD_SFD5= 0000001D            RMS$_CHN       = 0001C0EC
NAM$L_DWC        00000038            NAM$V_WILD_SFD6= 0000001E            RMS$_COD       = 000184AC
NAM$L_ESA        0000000C            NAM$V_WILD_SFD7= 0000001F            RMS$_CONTROLC  = 00010651
NAM$L_FNB        00000034            NAM$V_WILD_TYPE= 00000004            RMS$_CONTROLO  = 00010609
NAM$L_RLF        00000010            NAM$V_WILD_UFD = 00000018            RMS$_CONTROLY  = 00010611
NAM$L_RSA        00000004            NAM$V_WILD_VER = 00000003            RMS$_CRE       = 0001C00A
NAM$L_WCC        00000030            NAM$W_DID        0000002A            RMS$_CREATED   = 00010619
NAM$M_DIR_LVLS = 00E00000            NAM$W_DID_NUM    0000002A            RMS$_CUR       = 000184B4
NAM$M_EXP_DEV  = 00000080            NAM$W_DID_RVN    0000002E            RMS$_DAC       = 0001C012
NAM$M_EXP_DIR  = 00000040            NAM$W_DID_SEQ    0000002C            RMS$_DAN       = 000184BC
NAM$M_EXP_NAME = 00000004            NAM$W_FID        00000024            RMS$_DEL       = 00018262
NAM$M_EXP_TYPE = 00000002            NAM$W_FID_NUM    00000024            RMS$_DEV       = 000184C4
NAM$M_EXP_VER  = 00000001            NAM$W_FID_RVN    00000028            RMS$_DIR       = 000184CC
NAM$M_GRP_MBR  = 00080000            NAM$W_FID_SEQ    00000026            RMS$_DME       = 000184D4
NAM$M_HIGHVER  = 00008000            NAM$W_PRV_DID    0000003A            RMS$_DNA       = 000184DC
NAM$M_LOWVER   = 00004000            PIO$GL_FMLH      ********   X   02   RMS$_DNF       = 0001C04A
NAM$M_NODE     = 00020000            PROCESS_NAMBLK   0000004D R     02   RMS$_DNR       = 00018272
NAM$M_PPF      = 00010000            RM$ASSIGN        ********   X   02   RMS$_DPE       = 0001C03A
NAM$M_QUOTED   = 00040000            RM$CHKNAMBLK     ********   X   02   RMS$_DTP       = 000184E4
NAM$M_WILDCARD = 00000100            RM$CLSCU         ********   X   02   RMS$_DUP       = 000184EC
NAM$M_WILD_DIR = 00100000            RM$FSETI         ********   X   02   RMS$_DVI       = 000184F4
NAM$M_WILD_GRP = 01000000            RM$PARSE_FILE    00000013 RG    02   RMS$_ENT       = 0001C01A
NAM$M_WILD_MBR = 02000000            RM$SETDID        ********   X   02   RMS$_ENV       = 00018724
NAM$M_WILD_NAME= 00000020            RM$XPFN          ********   X   02   RMS$_EOF       = 0001827A
NAM$M_WILD_SFD1= 02000000            RMS$PARSE      = FFFFFFFE RG    02   RMS$_ESA       = 000184FC
NAM$M_WILD_SFD2= 04000000            RMS$V_STVSTATUS= 0000000E            RMS$_ESL       = 00018714
NAM$M_WILD_SFD3= 08000000            RMS$_ABO       = 000183EC            RMS$_ESS       = 00018504
NAM$M_WILD_SFD4= 10000000            RMS$_ACC       = 0001C002            RMS$_EXP       = 000182C2
NAM$M_WILD_SFD5= 20000000            RMS$_ACT       = 0001825A            RMS$_EXT       = 0001C022
NAM$M_WILD_SFD6= 40000000            RMS$_AID       = 000183F4            RMS$_FAB       = 0001850C
NAM$M_WILD_SFD7= 80000000            RMS$_ALN       = 000183FC            RMS$_FAC       = 00018514
NAM$M_WILD_TYPE= 00000010            RMS$_ALQ       = 00018404            RMS$_FEX       = 00018282
NAM$M_WILD_UFD = 01000000            RMS$_ANI       = 0001840C            RMS$_FLG       = 0001851C
NAM$M_WILD_VER = 00000008            RMS$_AOP       = 00018414            RMS$_FLK       = 0001828A
NAM$S_DIR_LVLS = 00000003            RMS$_ATR       = 0001C0CC            RMS$_FNA       = 00018524
NAM$T_DVI        00000014            RMS$_ATW       = 0001C0D4            RMS$_FND       = 0001C02A
NAM$V_DIR_LVLS = 00000015            RMS$_BKS       = 0001841C            RMS$_FNF       = 00018292
RMS0PARSE       PARSE OPERATION                                  21-AUG-1978 22:07:54   VAX-11 MACRO X0.3-11               Page  10
SYMBOL TABLE                                                                                                                     (1)

RMS$_FNM       = 0001852C            RMS$_RER       = 0001C0F4
RMS$_FOP       = 0001853C            RMS$_REX       = 000182A2
RMS$_FSZ       = 00018534            RMS$_RFA       = 0001865C
RMS$_FUL       = 00018544            RMS$_RFM       = 00018664
RMS$_IAL       = 0001854C            RMS$_RHB       = 0001866C
RMS$_IAN       = 00018554            RMS$_RLF       = 00018674
RMS$_IBF       = 00018754            RMS$_RLK       = 000182AA
RMS$_IDX       = 0001855C            RMS$_RMV       = 0001C0FC
RMS$_IFA       = 0001C124            RMS$_RNF       = 000182B2
RMS$_IFI       = 00018564            RMS$_RNL       = 000181A0
RMS$_IMX       = 0001856C            RMS$_ROP       = 0001867C
RMS$_IOP       = 00018574            RMS$_RPL       = 0001C104
RMS$_IRC       = 0001857C            RMS$_RRV       = 00018684
RMS$_ISI       = 00018584            RMS$_RSA       = 000182DA
RMS$_KBF       = 0001858C            RMS$_RSL       = 0001873C
RMS$_KEY       = 00018594            RMS$_RSS       = 00018694
RMS$_KFF       = 00018031            RMS$_RST       = 0001869C
RMS$_KRF       = 0001859C            RMS$_RSZ       = 000186A4
RMS$_KSZ       = 000185A4            RMS$_RTB       = 000181A8
RMS$_LAN       = 000185AC            RMS$_SEQ       = 000186AC
RMS$_LBL       = 000185B4            RMS$_SHR       = 000186B4
RMS$_LNE       = 000185BC            RMS$_SIZ       = 000186BC
RMS$_LOC       = 000185C4            RMS$_SPL       = 0001C042
RMS$_MBC       = 00018734            RMS$_SQO       = 000186C4
RMS$_MKD       = 0001C032            RMS$_STALL     = 00018001
RMS$_MRN       = 000185CC            RMS$_STK       = 000186CC
RMS$_MRS       = 000185D4            RMS$_SUC       = 00010001
RMS$_NAM       = 000185DC            RMS$_SUP       = 000182D2
RMS$_NEF       = 000185E4            RMS$_SUPERSEDE = 00010631
RMS$_NET       = 0001874C            RMS$_SYN       = 000186D4
RMS$_NID       = 000185EC            RMS$_SYS       = 0001C10C
RMS$_NMF       = 000182CA            RMS$_TEMP1     = 0001826A
RMS$_NOD       = 000185F4            RMS$_TEMP2     = 0001868C
RMS$_NORMAL    = 00010001            RMS$_TMO       = 000181B0
RMS$_NPK       = 000185FC            RMS$_TRE       = 000186DC
RMS$_OK_ALK    = 00018039            RMS$_TYP       = 000186E4
RMS$_OK_DEL    = 00018041            RMS$_UBF       = 000186EC
RMS$_OK_DUP    = 00018011            RMS$_USZ       = 000186F4
RMS$_OK_IDX    = 00018019            RMS$_VER       = 000186FC
RMS$_OK_LIM    = 00018051            RMS$_VOL       = 00018704
RMS$_OK_RLK    = 00018021            RMS$_WBE       = 0001C12C
RMS$_OK_RNF    = 00018049            RMS$_WER       = 0001C114
RMS$_OK_RRV    = 00018029            RMS$_WLD       = 00018744
RMS$_ORD       = 00018604            RMS$_WLK       = 000182BA
RMS$_ORG       = 0001860C            RMS$_WPL       = 0001C11C
RMS$_PBF       = 00018614            RMS$_WSF       = 0001871C
RMS$_PENDING   = 00018009            RMS$_XAB       = 0001870C
RMS$_PLG       = 0001861C            TPT$L_PARSE      ********   X   02
RMS$_PLV       = 0001872C            ZERO_FID         00000040 R     02
RMS$_POS       = 00018624
RMS$_PRM       = 0001862C
RMS$_PRV       = 0001829A
RMS$_QUO       = 00018634
RMS$_RAB       = 0001863C
RMS$_RAC       = 00018644
RMS$_RAT       = 0001864C
RMS$_RBF       = 00018654
RMS0PARSE       PARSE OPERATION                                  21-AUG-1978 22:07:54   VAX-11 MACRO X0.3-11               Page  11
PROGRAM SECTION SYNOPSIS                                                                                                         (1)


PROGRAM SECTION SYNOPSIS

.  ABS  .        00000000      00     NOPIC   USR   CON   ABS   LCL NOSHR NOEXE NORD  NOWRT BYTE
. BLANK .        00000000      01     NOPIC   USR   CON   REL   LCL NOSHR   EXE   RD    WRT BYTE
F$RMS0MISC       00000070      02     NOPIC   USR   CON   REL   GBL NOSHR   EXE   RD  NOWRT BYTE
$ABS$            000001E4      03     NOPIC   USR   CON   ABS   LCL NOSHR   EXE   RD    WRT BYTE


THERE WERE NO ERRORS OR WARNINGS.
5946. BYTES LEFT IN FREE MEMORY POOL.
2954. BYTES OF RECLAIMED MEMORY.
OBJ$:RMS0PARSE,LIS$:RMS0PARSE/-SP=EXECML$/ML,LIB$:R/ML,SRC$:RMS0PARSE
29 MLB DIR RDS - 1172 GETS TO DEFINE 20 MACROS. 93 INTER. FILE WRITES.
