RMS0ERASE       DELETE FILE OPERATION                            21-AUG-1978 22:01:38   VAX-11 MACRO X0.3-11               Page   0
TABLE OF CONTENTS

   (1)      39  DECLARATIONS
   (1)      64  RMS$ERASE  -  ERASE FILENAME STRING ROUTINE
RMS0ERASE       DELETE FILE OPERATION                            21-AUG-1978 22:01:38   VAX-11 MACRO X0.3-11               Page   1
005                                                                                                                              (1)

                                     0000     1 	$BEGIN	RMS0ERASE,005,F$RMS0MISC,<DELETE FILE OPERATION>
                                     0000     2 ;
                                     0000     3 ; COPYRIGHT (C) 1977, 1978
                                     0000     4 ; DIGITAL EQUIPMENT CORPORATION, MAYNARD, MASSACHUSETTS 01754
                                     0000     5 ;
                                     0000     6 ; THIS SOFTWARE IS FURNISHED  UNDER A LICENSE FOR USE ONLY ON A SINGLE
                                     0000     7 ; COMPUTER  SYSTEM AND  MAY BE  COPIED ONLY WITH  THE INCLUSION OF THE
                                     0000     8 ; ABOVE COPYRIGHT NOTICE.  THIS SOFTWARE, OR ANY OTHER COPIES THEREOF,
                                     0000     9 ; MAY NOT BE PROVIDED OR  OTHERWISE MADE AVAILABLE TO ANY OTHER PERSON
                                     0000    10 ; EXCEPT FOR USE ON SUCH SYSTEM AND TO ONE WHO AGREES TO THESE LICENSE
                                     0000    11 ; TERMS.  TITLE TO AND  OWNERSHIP OF THE  SOFTWARE  SHALL AT ALL TIMES
                                     0000    12 ; REMAIN IN DEC.
                                     0000    13 ;
                                     0000    14 ; THE INFORMATION IN THIS SOFTWARE IS SUBJECT TO CHANGE WITHOUT NOTICE
                                     0000    15 ; AND SHOULD  NOT BE CONSTRUED  AS A COMMITMENT  BY DIGITAL  EQUIPMENT
                                     0000    16 ; CORPORATION.
                                     0000    17 ;
                                     0000    18 ; DEC ASSUMES  NO  RESPONSIBILITY  FOR  THE USE OR  RELIABILITY OF ITS
                                     0000    19 ; SOFTWARE ON EQUIPMENT WHICH IS NOT SUPPLIED BY DEC.
                                     0000    20 ;
                                     0000    21 ;++
                                     0000    22 ; FACILITY: RMS32
                                     0000    23 ;
                                     0000    24 ; ABSTRACT:
                                     0000    25 ;		THIS ROUTINE IS THE HIGHEST LEVEL CONTROL
                                     0000    26 ;		ROUTINE TO PERFORM THE $ERASE FUNCTION.
                                     0000    27 ;
                                     0000    28 ; ENVIRONMENT:
                                     0000    29 ;		STAR PROCESSOR RUNNING STARLET EXEC.
                                     0000    30 ;
                                     0000    31 ; AUTHOR: L F LAVERDURE,	 CREATION DATE: 27-SEP-77
                                     0000    32 ;
                                     0000    33 ; MODIFIED BY:
                                     0000    34 ;
                                     0000    35 ;	J A KRYCKA,	08-AUG-78  18:24
                                     0000    36 ; 01	-
                                     0000    37 ;--
RMS0ERASE       DELETE FILE OPERATION                            21-AUG-1978 22:01:38   VAX-11 MACRO X0.3-11               Page   2
005             DECLARATIONS                                                                                                     (1)

                                     0000    39 	.SBTTL	DECLARATIONS
                                     0000    40 ;
                                     0000    41 ; INCLUDE FILES:
                                     0000    42 ;
                                     0000    43
                                     0000    44 ;
                                     0000    45 ; MACROS:
                                     0000    46 ;
                                     0000    47 	$IFBDEF
                                     0000    48 	$DEVDEF
                                     0000    49 	$NAMDEF
                                     0000    50 	$FWADEF
                                     0000    51 	$FIBDEF
                                     0000    52 	$IODEF
                                     0000    53 	$RMSDEF
                                     0000    54 	.LIST MEB
                                     0000    55 ;
                                     0000    56 ; EQUATED SYMBOLS:
                                     0000    57 ;
                                     0000    58
                                     0000    59 ;
                                     0000    60 ; OWN STORAGE:
                                     0000    61 ;
                                     0000    62
RMS0ERASE       DELETE FILE OPERATION                            21-AUG-1978 22:01:38   VAX-11 MACRO X0.3-11               Page   3
005             RMS$ERASE  -  ERASE FILENAME STRING ROUTINE                                                                      (1)

                                     0000    64 	.SBTTL	RMS$ERASE  -  ERASE FILENAME STRING ROUTINE
                                     0000    65 ;++
                                     0000    66 ; FUNCTIONAL DESCRIPTION:
                                     0000    67 ;
                                     0000    68 ;	L F LAVERDURE,   22-MAR-78  15:36
                                     0000    69 ; THE FILENAME, ISSUES THE ACP QIO FUNCTION TO DELETE THE FILE, AND
                                     0000    70 ; THEN DELETES THE IFAB.
                                     0000    71 ;
                                     0000    72 ; CALLING SEQUENCE:
                                     0000    73 ;
                                     0000    74 ;	ENTERED FROM EXEC AS A RESULT OF USER'S CALLING SYS$ERASE
                                     0000    75 ;
                                     0000    76 ; INPUT PARAMETERS:
                                     0000    77 ;
                                     0000    78 ;	AP	USER'S ARGUMENT LIST ADDR
                                     0000    79 ;
                                     0000    80 ; IMPLICIT INPUTS:
                                     0000    81 ;
                                     0000    82 ;	THE CONTENTS OF THE FAB (FNA, FNS, DNA, DNS) AND RELATED NAM BLOCK.
                                     0000    83 ;
                                     0000    84 ; OUTPUT PARAMETERS:
                                     0000    85 ;
                                     0000    86 ;	R1	DESTROYED
                                     0000    87 ;	R0	STATUS CODE
                                     0000    88 ;
                                     0000    89 ; IMPLICIT OUTPUTS:
                                     0000    90 ;
                                     0000    91 ;	THE STS AND STV FIELDS OF THE FAB ARE OUTPUT ALONG WITH THE
                                     0000    92 ;	VARIOUS FIELDS OF THE NAM BLOCK (DVI, FID, DID, ESL AND THE BUFFER AT ESA,
                                     0000    93 ;	 RSL AND THE BUFFER AT RSA)
                                     0000    94 ;	 TO REFLECT THE STATUS OF THE $ERASE OPERATION. (SEE RMS FUNCTIONAL
                                     0000    95 ; 	SPEC FOR A COMPLETE LIST.)
                                     0000    96 ;
                                     0000    97 ;	A COMPLETION AST IS QUEUED IF SPECIFIED IN THE USER ARGLIST.
                                     0000    98 ;
                                     0000    99 ; COMPLETION CODES:
                                     0000   100 ;
                                     0000   101 ;	STANDARD RMS (SEE FUNCTIONAL SPEC FOR LIST).
                                     0000   102 ;
                                     0000   103 ; SIDE EFFECTS:
                                     0000   104 ;
                                     0000   105 ;	NONE
                                     0000   106 ;
                                     0000   107 ;--
                                     0000   108 	$ENTRY	RMS$ERASE
                                 00000000       	.PSECT	F$RMS0MISC,GBL,NOWRT
                                     0000   109 	$TSTPT	ERASE
                 00000200'9F     D6  0000       		INCL	@#PIO$GL_FMLH+512+TPT$L_ERASE
                          FFF7'  30  0006   110 	BSBW	RM$FSETI			;CREATE AN IFAB
                                     0009   111 						; RETURNS TO USER ON ERROR
                          FFF4'  30  0009   112 	BSBW	RM$XPFN				;EXPAND FILE NAME
            50            50     E9  000C   113 	BLBC	R0,CLEANUP			;GET OUT ON ERROR
                       08 AA     95  000F   114 	TSTB	FWA$B_ESCFLG(R10)		;PPF INDICATED?
                          51     12  0012   115 	BNEQ	ERRIOP				;BRANCH IF YES
            6A            18     E0  0014   116 	BBS	#FWA$V_WILDCARD,(R10),ERRWLD	;BRANCH IF WILD CARD SEEN
                          57         0017
                          FFE5'  30  0018   117 	BSBW	RM$ASSIGN			;ASSIGN CHANNNEL TO DEVICE
RMS0ERASE       DELETE FILE OPERATION                            21-AUG-1978 22:01:38   VAX-11 MACRO X0.3-11               Page   4
005             RMS$ERASE  -  ERASE FILENAME STRING ROUTINE                                                                      (1)

            41            50     E9  001B   118 	BLBC	R0,CLEANUP
            69            3E     E0  001E   119 	BBS	#IFB$V_DAP,(R9),NTERASE		; BRANCH IF NETWORK FILE OPER
                          40         0021
            69            1C     E1  0022   120 	BBC	#DEV$V_RND,IFB$L_PRIM_DEV(R9),ERRIOP	;BRANCH IF NOT DISK
                          3F         0025
                          FFD7'  30  0026   121 	BSBW	RM$SETDID			;LOOKUP THE DIRECTORY NAME
            33            50     E9  0029   122 	BLBC	R0,CLEANUP
                                     002C   123 						;NOTE: R7 SET TO NAM BLK ADDR
                     00AE CA     D5  002C   124 	TSTL	FIB$W_DID+FWA$T_FIBBUF(R10)	;DID SPECIFIED?
                          1A     12  0030   125 	BNEQ	DELETE				;BRANCH IF YES (IMPLIES FID=0)
                           00000008  0032   126 	.IF NE $$RMSTEST&$$RMS_TBUGCHK
                     00A8 CA     D5  0032   127 	TSTL	FIB$W_FID+FWA$T_FIBBUF(R10)	;FID SPECIFIED?
                          30     13  0036   128 	BEQL	ERRBUG				;BRANCH IF NONE
                                     0038   129 	.ENDC
                                     0038   130 ;
                                     0038   131 ;  SINCE FID IS SET, THERE MUST BE A NAM BLK.  SET DID FROM THE NAM BLK.
                                     0038   132 ;
       00AE CA         2A A7     B0  0038   133 	MOVW	NAM$W_DID(R7),FIB$W_DID_NUM+FWA$T_FIBBUF(R10)
                          0C     13  003E   134 	BEQL	DELETE				;BRANCH IF NONE
       00B0 CA         2C A7     D0  0040   135 	MOVL	NAM$W_DID_SEQ(R7),FIB$W_DID_SEQ+FWA$T_FIBBUF(R10)
                                     0046   136 	SSB	#FIB$V_FINDFID,FIB$W_NMCTL+FWA$T_FIBBUF(R10)	;FLAG FIND BY FILE ID
       00B8 CA            0B     E2  0046       		BBSS	#FIB$V_FINDFID,FIB$W_NMCTL+FWA$T_FIBBUF(R10),30000$
                          00         004B
                                     004C       30000$:
                                     004C   137 ;
                                     004C   138 ;  SET UP THE QIO PARAMETERS AND ISSUE THE DELETE QIO
                                     004C   139 ;
                          7E     7C  004C   140 DELETE:	CLRQ	-(SP)				; P6=P5=0
                          FFAF'  30  004E   141 	BSBW	RM$FCP_P4_P2			; BUILD P4 THRU P2
                                     0051   142 						; (RESULTANT NAME, NAME STRING)
            50       0135 8F     3C  0051   143 	MOVZWL	#IO$_DELETE!IO$M_DELETE,R0	; FUNCTION CODE
                          FFA7'  30  0056   144 	BSBW	RM$FCPFNC			; DO THE DELETE
            10            50     E9  0059   145 	BLBC	R0,ERRDLT			; BRANCH ON ERROR
                          FFA1'  30  005C   146 	BSBW	RM$FILLNAM			; FILL IN NAM BLK, IF ANY
                                     005F   147 CLEANUP:
                          FF9E'  31  005F   148 	BRW	RM$CLSCU			;ALL DONE - EVAPORATE IFAB
                                     0062   149 ;++
                                     0062   150 ;
                                     0062   151 ;  PROCESS NETWORK ERASE FUNCTION
                                     0062   152 ;
                                     0062   153 ;--
                                     0062   154 NTERASE:$PSECT_BR	NF$NETWORK
                          FF9B'  31  0062       		BRW	NF$NETWORK0
                                     0065       		.SAVE
                                 00000000       		.PSECT	NF$NETWORK,GBL,NOWRT
                                     0000       NF$NETWORK0:
                          FFFD'  30  0000   155 	BSBW	NT$ACCESS			; ESTABLISH LOGICAL LINK WITH FAL
            0C            50     E9  0003   156 	BLBC	R0,20$				; BRANCH ON FAILURE
                          FFF7'  30  0006   157 	BSBW	NT$ERASE			; ERASE FILE AT REMOTE NODE
            03            50     E9  0009   158 	BLBC	R0,10$				; BRANCH ON FAILURE
                          FFF1'  30  000C   159 	BSBW	RM$FILLNAM			; FILL IN NAM BLK, IF ANY
                          FFEE'  31  000F   160 10$:	BRW	RM$CLSCU			; ALL DONE - EVAPORATE IFAB
                          0057'  31  0012   161 20$:	BRW	ERRDLT				; BRANCH AID
                                     0015   162 	$PSECT_RESTORE
                                 00000065       		.RESTORE
                                     0065   163
                                     0065   164 ;++
RMS0ERASE       DELETE FILE OPERATION                            21-AUG-1978 22:01:38   VAX-11 MACRO X0.3-11               Page   5
005             RMS$ERASE  -  ERASE FILENAME STRING ROUTINE                                                                      (1)

                                     0065   165 ;  PROCESS ERRORS
                                     0065   166 ;
                                     0065   167 ERRIOP:	$PSECT_BR	L$RMS0
                          FF98'  31  0065       		BRW	L$RMS01
                                     0068       		.SAVE
                                 00000000       		.PSECT	L$RMS0,GBL,NOWRT
                                     0000       L$RMS01:
                                     0000   168 	RMSERR	IOP				;CAN'T DELETE NON-DISK FILE
            50       8574 8F     3C  0000       		MOVZWL	#<RMS$_IOP&^XFFFF>,R0
                          FFF8'  31  0005   169 CLSCU:	BRW	RM$CLSCU			;GO EVAPORATE IFAB
                                     0008   170 	$PSECT_RESTORE
                                 00000068       		.RESTORE
                                     0068   171 ;
                                     0068   172 ERRBUG:	RMSTBUG	FTL$_NODIDORFID			;NO DID OR FID
                                     0068       	.SAVE
                                 000001E4       	.PSECT	$ABS$,ABS
                           00000000  01E4       	.=0
                                 00000068       	.RESTORE
                          FF95'  30  0068       		BSBW	RM$BUG
                                 EB  006B       		.BYTE	FTL$_NODIDORFID
                                     006C   173 ;
                                     006C   174 ERRDLT:	$PSECT_BR	L$RMS0
                          FF99'  31  006C       		BRW	L$RMS02
                                     006F       		.SAVE
                                 00000008       		.PSECT	L$RMS0,GBL,NOWRT
                                     0008       L$RMS02:
                                     0008   175 	RMSERR	MKD,R1
            51       C032 8F     3C  0008       		MOVZWL	#<RMS$_MKD&^XFFFF>,R1
                          FFF0'  30  000D   176 	BSBW	RM$MAPERR
                          F3     11  0010   177 	BRB	CLSCU
                                     0012   178 	$PSECT_RESTORE
                                 0000006F       		.RESTORE
                                     006F   179 ;
                                     006F   180 ERRWLD:	$PSECT_BR	L$RMS0			;WILD CARD OPERATION NOT SUPPORTED
                          FFA0'  31  006F       		BRW	L$RMS03
                                     0072       		.SAVE
                                 00000012       		.PSECT	L$RMS0,GBL,NOWRT
                                     0012       L$RMS03:
                                     0012   181 	RMSERR	WLD
            50       8744 8F     3C  0012       		MOVZWL	#<RMS$_WLD&^XFFFF>,R0
                          EC     11  0017   182 	BRB	CLSCU
                                     0019   183 	$PSECT_RESTORE
                                 00000072       		.RESTORE
                                     0072   184 	.END
RMS0ERASE       DELETE FILE OPERATION                            21-AUG-1978 22:01:38   VAX-11 MACRO X0.3-11               Page   6
SYMBOL TABLE                                                                                                                     (1)

$$.PSECT_EP    = 00000004            DEV$V_TRM      = 00000002            FIB$M_LOWVER   = 00004000
$$RMSTEST      = 0000001A            DEV$V_WCK      = 0000001F            FIB$M_MARKBAD  = 00000400
$$RMS_PBUGCHK  = 00000010            ERRBUG           00000068 R     02   FIB$M_NEWVER   = 00000200
$$RMS_TBUGCHK  = 00000008            ERRDLT           0000006C R     02   FIB$M_NOHDREXT = 00000200
$$RMS_UMODE    = 00000004            ERRIOP           00000065 R     02   FIB$M_NOREAD   = 00000400
BIT...         = 00000000            ERRWLD           0000006F R     02   FIB$M_NOTRUNC  = 00000800
CLEANUP          0000005F R     02   FIB$B_ALALIGN    00000021            FIB$M_NOWRITE  = 00000001
CLSCU            00000005 R     05   FIB$B_ALOPTS     00000020            FIB$M_ONCYL    = 00000002
DELETE           0000004C R     02   FIB$B_DID_NMX    0000000F            FIB$M_PRSRV_ATR= 00020000
DEV$M_ALL      = 00800000            FIB$B_DID_RVN    0000000E            FIB$M_READCK   = 00000200
DEV$M_AVL      = 00040000            FIB$B_FID_NMX    00000009            FIB$M_REWIND   = 00000008
DEV$M_CCL      = 00000002            FIB$B_FID_RVN    00000008            FIB$M_SEQONLY  = 00000040
DEV$M_DIR      = 00000008            FIB$B_LOC_NMX    00000027            FIB$M_SPOOL    = 00000010
DEV$M_DMT      = 00200000            FIB$B_LOC_RVN    00000026            FIB$M_SUPERSEDE= 00000400
DEV$M_ELG      = 00400000            FIB$B_WSIZE      00000003            FIB$M_TRUNC    = 00000100
DEV$M_FOD      = 00004000            FIB$C_ACCDATA    0000000A            FIB$M_UPDATE   = 00000040
DEV$M_FOR      = 01000000            FIB$C_ALCDATA    0000002C            FIB$M_WILD     = 00000100
DEV$M_GEN      = 00020000            FIB$C_CYL      = 00000001            FIB$M_WRITE    = 00000100
DEV$M_IDV      = 04000000            FIB$C_DIRDATA    00000016            FIB$M_WRITECK  = 00000020
DEV$M_MBX      = 00100000            FIB$C_EXTDATA    00000020            FIB$V_ALCON    = 00000000
DEV$M_MNT      = 00080000            FIB$C_ILLEGAL  = 00000005            FIB$V_ALCONB   = 00000001
DEV$M_NET      = 00002000            FIB$C_LBN      = 00000002            FIB$V_ALDEF    = 00000003
DEV$M_ODV      = 08000000            FIB$C_LENGTH     0000002C            FIB$V_ALLNAM   = 00000005
DEV$M_RCK      = 40000000            FIB$C_MTALEN     0000001C            FIB$V_ALLTYP   = 00000004
DEV$M_REC      = 00000001            FIB$C_NEXTVOL  = 00000003            FIB$V_ALLVER   = 00000003
DEV$M_RND      = 10000000            FIB$C_POSEND   = 00000002            FIB$V_CURPOS   = 00000004
DEV$M_RTM      = 20000000            FIB$C_REWINDFIL= 00000006            FIB$V_DLOCK    = 00000001
DEV$M_SDI      = 00000010            FIB$C_REWINDVOL= 00000001            FIB$V_EXACT    = 00000000
DEV$M_SHR      = 00010000            FIB$C_RFI      = 00000004            FIB$V_EXECUTE  = 00000010
DEV$M_SPL      = 00000040            FIB$C_SPACE    = 00000004            FIB$V_EXTEND   = 00000007
DEV$M_SQD      = 00000020            FIB$C_VBN      = 00000003            FIB$V_FILCON   = 00000002
DEV$M_SWL      = 02000000            FIB$K_ACCDATA    0000000A            FIB$V_FINDFID  = 0000000B
DEV$M_TRM      = 00000004            FIB$K_ALCDATA    0000002C            FIB$V_HIGHVER  = 0000000F
DEV$M_WCK      = 80000000            FIB$K_DIRDATA    00000016            FIB$V_LOWVER   = 0000000E
DEV$V_ALL      = 00000017            FIB$K_EXTDATA    00000020            FIB$V_MARKBAD  = 0000000A
DEV$V_AVL      = 00000012            FIB$K_LENGTH     0000002C            FIB$V_NEWVER   = 00000009
DEV$V_CCL      = 00000001            FIB$K_MTALEN     0000001C            FIB$V_NOHDREXT = 00000009
DEV$V_DIR      = 00000003            FIB$L_ACCTL      00000000            FIB$V_NOREAD   = 0000000A
DEV$V_DMT      = 00000015            FIB$L_CNTRLVAL   00000018            FIB$V_NOTRUNC  = 0000000B
DEV$V_ELG      = 00000016            FIB$L_EXSZ       00000018            FIB$V_NOWRITE  = 00000000
DEV$V_FOD      = 0000000E            FIB$L_EXVBN      0000001C            FIB$V_ONCYL    = 00000001
DEV$V_FOR      = 00000018            FIB$L_LOC_ADDR   00000028            FIB$V_PRSRV_ATR= 00000011
DEV$V_GEN      = 00000011            FIB$L_WCC        00000010            FIB$V_READCK   = 00000009
DEV$V_IDV      = 0000001A            FIB$M_ALCON    = 00000001            FIB$V_REWIND   = 00000003
DEV$V_MBX      = 00000014            FIB$M_ALCONB   = 00000002            FIB$V_SEQONLY  = 00000006
DEV$V_MNT      = 00000013            FIB$M_ALDEF    = 00000008            FIB$V_SPOOL    = 00000004
DEV$V_NET      = 0000000D            FIB$M_ALLNAM   = 00000020            FIB$V_SUPERSEDE= 0000000A
DEV$V_ODV      = 0000001B            FIB$M_ALLTYP   = 00000010            FIB$V_TRUNC    = 00000008
DEV$V_RCK      = 0000001E            FIB$M_ALLVER   = 00000008            FIB$V_UPDATE   = 00000006
DEV$V_REC      = 00000000            FIB$M_CURPOS   = 00000010            FIB$V_WILD     = 00000008
DEV$V_RND      = 0000001C            FIB$M_DLOCK    = 00000002            FIB$V_WRITE    = 00000008
DEV$V_RTM      = 0000001D            FIB$M_EXACT    = 00000001            FIB$V_WRITECK  = 00000005
DEV$V_SDI      = 00000004            FIB$M_EXECUTE  = 00010000            FIB$W_ALLOC      00000022
DEV$V_SHR      = 00000010            FIB$M_EXTEND   = 00000080            FIB$W_CNTRLFUNC  00000016
DEV$V_SPL      = 00000006            FIB$M_FILCON   = 00000004            FIB$W_DID        0000000A
DEV$V_SQD      = 00000005            FIB$M_FINDFID  = 00000800            FIB$W_DID_NUM    0000000A
DEV$V_SWL      = 00000019            FIB$M_HIGHVER  = 00008000            FIB$W_DID_RVN    0000000E
RMS0ERASE       DELETE FILE OPERATION                            21-AUG-1978 22:01:38   VAX-11 MACRO X0.3-11               Page   7
SYMBOL TABLE                                                                                                                     (1)

FIB$W_DID_SEQ    0000000C            FWA$C_MAXSUBDIR= 00000007            FWA$T_NAMEBUF    00000118
FIB$W_EXCTL      00000016            FWA$C_MAXTYPE  = 00000003            FWA$T_NODEBUF    0000012C
FIB$W_FID        00000004            FWA$C_MAXVER   = 00000006            FWA$T_TYPEBUF    00000122
FIB$W_FID_NUM    00000004            FWA$C_NAMBUFSIZ= 0000000A            FWA$T_VERBUF     00000126
FIB$W_FID_RVN    00000008            FWA$C_NODBUFSIZ= 00000028            FWA$T_XLTBUFF1   00000164
FIB$W_FID_SEQ    00000006            FWA$C_RNSBUFSIZ= 00000014            FWA$T_XLTBUFF2   000001A4
FIB$W_LOC_FID    00000022            FWA$C_TYPBUFSIZ= 00000004            FWA$V_CUR_VER  = 00000006
FIB$W_LOC_NUM    00000022            FWA$C_VERBUFSIZ= 00000006            FWA$V_DEVICE   = 0000000F
FIB$W_LOC_RVN    00000026            FWA$C_XLTBUFSIZ= 0000003F            FWA$V_DIR      = 0000000E
FIB$W_LOC_SEQ    00000024            FWA$L_BUFFLG     00000014            FWA$V_DIR1     = 00000020
FIB$W_NMCTL      00000014            FWA$L_DEVNODADR  00000020            FWA$V_DIR2     = 00000021
FTL$_ASBALLFAIL= FFFFFFF9            FWA$L_ESCSTRING  00000008            FWA$V_DIR_LVLS = 0000001D
FTL$_BADASTPRM = FFFFFFF8            FWA$L_HBK        00000098            FWA$V_DUPOK    = 00000000
FTL$_BADBDB    = FFFFFFFA            FWA$L_LOOKUP     0000001C            FWA$V_EXP_DEV  = 00000017
FTL$_BADBUFSIZ = FFFFFFF3            FWA$L_SBN        00000094            FWA$V_EXP_DIR  = 00000016
FTL$_BADIFAB   = FFFFFFFD            FWA$L_UIC        0000001C            FWA$V_EXP_NAME = 00000012
FTL$_BADLEVEL  = FFFFFFE6            FWA$L_XLTCNT     0000002C            FWA$V_EXP_TYPE = 00000011
FTL$_BADORGCASE= FFFFFFFB            FWA$L_XLTSIZ     00000018            FWA$V_EXP_VER  = 00000010
FTL$_CANTDOAST = FFFFFFF7            FWA$M_DEVICE   = 00008000            FWA$V_FNA_PASS = 00000004
FTL$_DEALLERR  = FFFFFFEF            FWA$M_DIR      = 00004000            FWA$V_GRPMBR   = 0000001B
FTL$_GTCHNFAIL = FFFFFFFC            FWA$M_DUPOK    = 00000001            FWA$V_LOGNAME  = 00000030
FTL$_IORNDN    = FFFFFFEE            FWA$M_EXP_DEV  = 00800000            FWA$V_NAME     = 0000000D
FTL$_LOCKFAILED= FFFFFFE7            FWA$M_EXP_DIR  = 00400000            FWA$V_NAMEFLG  = 00000001
FTL$_NOASB     = FFFFFFF5            FWA$M_EXP_NAME = 00040000            FWA$V_NAM_DVI  = 00000005
FTL$_NODIDORFID= FFFFFFEB            FWA$M_EXP_TYPE = 00020000            FWA$V_NETSTR   = 00000032
FTL$_NOLOCKBDB = FFFFFFE9            FWA$M_EXP_VER  = 00010000            FWA$V_NODE     = 00000019
FTL$_NONETWORK = FFFFFFE8            FWA$M_FNA_PASS = 00000010            FWA$V_OBJTYPE  = 00000031
FTL$_NONXTBDB  = FFFFFFF4            FWA$M_NAME     = 00002000            FWA$V_QUOTED   = 0000001A
FTL$_NOSTRUCT  = FFFFFFF6            FWA$M_NAMEFLG  = 00000002            FWA$V_RLF_PASS = 00000003
FTL$_NOTLOCKED = FFFFFFEC            FWA$M_NAM_DVI  = 00000020            FWA$V_TYPE     = 0000000C
FTL$_RELEASFAIL= FFFFFFEA            FWA$M_RLF_PASS = 00000008            FWA$V_TYPEFLG  = 00000002
FTL$_SETPRTFAIL= FFFFFFFF            FWA$M_TYPE     = 00001000            FWA$V_VERSION  = 0000000B
FTL$_STKTOOBIG = FFFFFFFE            FWA$M_TYPEFLG  = 00000004            FWA$V_WC_NAME  = 00000015
FTL$_XFERSIZE  = FFFFFFED            FWA$M_VERSION  = 00000800            FWA$V_WC_TYPE  = 00000014
FWA$B_DIRFLGS    00000004            FWA$Q_DEVICE     0000003C            FWA$V_WC_VER   = 00000013
FWA$B_DIRLEN     00000030            FWA$Q_DIR        00000024            FWA$V_WILDCARD = 00000018
FWA$B_DIRTERM    00000007            FWA$Q_DIR1       00000044            FWA$V_WILD_DIR = 0000001C
FWA$B_DIRWCFLGS  00000005            FWA$Q_DIR2       0000004C            FWA$V_WILD_GRP = 00000028
FWA$B_ESCFLG     00000008            FWA$Q_FIB        0000000C            FWA$V_WILD_MBR = 00000029
FWA$B_ESCTYP     00000009            FWA$Q_FLAGS      00000000            FWA$V_WILD_SFD1= 00000029
FWA$B_FLDFLGS    00000001            FWA$Q_LOGNAME    0000001C            FWA$V_WILD_UFD = 00000028
FWA$B_LNFLG      00000006            FWA$Q_NAME       00000084            FWA$W_ESCIFI     0000000A
FWA$B_PARSEFLGS  00000003            FWA$Q_NODE       00000034            FWA$W_FNAMSIZ    00000018
FWA$B_PASSFLGS   00000000            FWA$Q_QUOTED     0000009C            FWA$W_PRO        00000020
FWA$B_UNDERLINE  00000154            FWA$Q_RNS        0000008C            FWA$W_UCHAR      0000002C
FWA$B_WILDFLGS   00000002            FWA$Q_STATBLK    00000094            GBL...         = 00000000
FWA$B_XLTMODE    0000000A            FWA$Q_TYPE       0000008C            IFB$B_AMAX       00000059
FWA$B_XLTTBL     0000000B            FWA$Q_VERSION    00000094            IFB$B_AVBN       00000058
FWA$C_ALL      = 000000F8            FWA$Q_XLTBUF1    0000000C            IFB$B_BID        00000008
FWA$C_DEVBUFSIZ= 0000000F            FWA$Q_XLTBUF2    00000024            IFB$B_BKS        0000004A
FWA$C_DIRBUFSIZ= 00000009            FWA$S_DIR_LVLS = 00000003            IFB$B_BLN        00000009
FWA$C_FIBLEN   = 0000002C            FWA$T_ATR_LIST   00000164            IFB$B_EFN        0000000B
FWA$C_MAXDEVICE= 0000000F            FWA$T_DEVICEBUF  00000155            IFB$B_EXTRABUF   0000005D
FWA$C_MAXDIRLEN= 0000003C            FWA$T_DIB        00000174            IFB$B_FAC        00000022
FWA$C_MAXNAME  = 00000009            FWA$T_DIR1BUF    000000D0            IFB$B_FSZ        0000004B
FWA$C_MAXNODE  = 00000028            FWA$T_DIR2BUF    000000D9            IFB$B_KBUFSZ     0000005C
FWA$C_MAXQUOTED= 0000007F            FWA$T_FIBBUF     000000A4            IFB$B_MODE       0000000A
RMS0ERASE       DELETE FILE OPERATION                            21-AUG-1978 22:01:38   VAX-11 MACRO X0.3-11               Page   8
SYMBOL TABLE                                                                                                                     (1)

IFB$B_NUM_KEYS   0000005A            IFB$V_ASYNC    = 00000023            IO$M_DATACHECK = 00004000
IFB$B_ORGCASE    00000023            IFB$V_ASYNCWAIT= 00000024            IO$M_DELETE    = 00000100
IFB$B_RAT        0000003D            IFB$V_BIO      = 00000005            IO$M_DMOUNT    = 00000400
IFB$B_RFMORG     0000003C            IFB$V_BRO      = 00000006            IO$M_DSABLMBX  = 00000400
IFB$B_UBUFSZ     0000005B            IFB$V_BUSY     = 00000020            IO$M_ENABLMBX  = 00000080
IFB$C_BID      = 0000000B            IFB$V_CREATE   = 00000032            IO$M_FCODE     = 0000003F
IFB$C_BLN        00000060            IFB$V_DAP      = 0000003E            IO$M_HANGUP    = 00000200
IFB$C_BLN_IDX    00000060            IFB$V_DAP_OPEN = 0000003D            IO$M_INHERLOG  = 00000800
IFB$C_BLN_REL    00000060            IFB$V_DEL      = 00000002            IO$M_INHEXTGAP = 00001000
IFB$C_BLN_SEQ    0000005C            IFB$V_DFW      = 0000002C            IO$M_INHRETRY  = 00008000
IFB$C_DIR      = 00000003            IFB$V_DLT      = 0000002B            IO$M_INHSEEK   = 00001000
IFB$C_FHAEND     00000050            IFB$V_DMO      = 00000028            IO$M_INTERRUPT = 00000040
IFB$C_IDX      = 00000002            IFB$V_EOF      = 00000021            IO$M_INTSKIP   = 00000100
IFB$C_MAXORG   = 00000002            IFB$V_EXE      = 00000007            IO$M_MOUNT     = 00000200
IFB$C_REL      = 00000001            IFB$V_GET      = 00000001            IO$M_NOECHO    = 00000040
IFB$C_SEQ      = 00000000            IFB$V_MSE      = 00000031            IO$M_NOFILTR   = 00000200
IFB$K_BLN        00000060            IFB$V_NORECLK  = 00000033            IO$M_NOFORMAT  = 00000100
IFB$K_BLN_IDX    00000060            IFB$V_NSP      = 0000003F            IO$M_NOW       = 00000040
IFB$K_BLN_REL    00000060            IFB$V_NWA      = 0000003C            IO$M_NOWAIT    = 00000080
IFB$K_BLN_SEQ    0000005C            IFB$V_ORG      = 00000004            IO$M_PACKED    = 00000080
IFB$K_FHAEND     00000050            IFB$V_PPF_IMAGE= 00000022            IO$M_PURGE     = 00000800
IFB$L_ARGLST     00000018            IFB$V_PPF_INPUT= 0000002E            IO$M_READATTN  = 00000080
IFB$L_ASBADDR    00000014            IFB$V_PUT      = 00000000            IO$M_REVERSE   = 00000040
IFB$L_AS_DEV     00000054            IFB$V_RFM      = 00000000            IO$M_SHUTDOWN  = 00000080
IFB$L_BDB_BLNK   00000034            IFB$V_RWC      = 00000027            IO$M_STARTUP   = 00000040
IFB$L_BDB_FLNK   00000030            IFB$V_RW_ATTR  = 00000034            IO$M_SYNCH     = 00000200
IFB$L_BKPBITS    00000004            IFB$V_SCF      = 0000002A            IO$M_TIMED     = 00000080
IFB$L_BWB        0000000C            IFB$V_SPL      = 00000029            IO$M_TRMNOECHO = 00001000
IFB$L_DVBN       00000058            IFB$V_SQO      = 0000002D            IO$M_WRTATTN   = 00000100
IFB$L_EBK        00000044            IFB$V_TEF      = 00000036            IO$S_FCODE     = 00000006
IFB$L_FRB_PTR    00000028            IFB$V_TMP      = 00000035            IO$V_ABORT     = 00000008
IFB$L_FWA_BDB    00000050            IFB$V_TRN      = 00000004            IO$V_ACCESS    = 00000006
IFB$L_HBK        00000040            IFB$V_UPD      = 00000003            IO$V_ATTNAST   = 00000008
IFB$L_IDX_PTR    00000054            IFB$V_WRTACC   = 00000030            IO$V_BINARY    = 00000006
IFB$L_IOS        0000000C            IFB$W_ASDEVBSIZ  0000005A            IO$V_CANCTRLO  = 00000006
IFB$L_IOS4       00000010            IFB$W_BKS_BYTES  0000005C            IO$V_COMMOD    = 00000006
IFB$L_IRAB_LNK   0000001C            IFB$W_BKS_RECS   0000005E            IO$V_CREATE    = 00000007
IFB$L_LAST_FAB   00000024            IFB$W_CHNL       00000020            IO$V_CTRLCAST  = 00000008
IFB$L_LOCK_BDB   00000050            IFB$W_DEQ        0000004E            IO$V_CTRLYAST  = 00000007
IFB$L_MRN        00000054            IFB$W_DEVBUFSIZ  00000038            IO$V_CVTLOW    = 00000008
IFB$L_NRP_LNK    00000050            IFB$W_EBK0       00000044            IO$V_DATACHECK = 0000000E
IFB$L_NWA_PTR    00000028            IFB$W_EBK2       00000046            IO$V_DELETE    = 00000008
IFB$L_PRIM_DEV   00000000            IFB$W_FFB        00000048            IO$V_DMOUNT    = 0000000A
IFB$L_RLB_LNK    0000002C            IFB$W_IOS2       0000000E            IO$V_DSABLMBX  = 0000000A
IFB$L_RNS_LEN    00000050            IFB$W_LRL        0000003E            IO$V_ENABLMBX  = 00000007
IFB$M_BIO      = 00000020            IFB$W_MRS        0000004C            IO$V_FCODE     = 00000000
IFB$M_BRO      = 00000040            IFB$W_RTDEQ      0000003A            IO$V_HANGUP    = 00000009
IFB$M_DEL      = 00000004            IO$M_ABORT     = 00000100            IO$V_INHERLOG  = 0000000B
IFB$M_EXE      = 00000080            IO$M_ACCESS    = 00000040            IO$V_INHEXTGAP = 0000000C
IFB$M_GET      = 00000002            IO$M_ATTNAST   = 00000100            IO$V_INHRETRY  = 0000000F
IFB$M_PUT      = 00000001            IO$M_BINARY    = 00000040            IO$V_INHSEEK   = 0000000C
IFB$M_TRN      = 00000010            IO$M_CANCTRLO  = 00000040            IO$V_INTERRUPT = 00000006
IFB$M_UPD      = 00000008            IO$M_COMMOD    = 00000040            IO$V_INTSKIP   = 00000008
IFB$S_ORG      = 00000004            IO$M_CREATE    = 00000080            IO$V_MOUNT     = 00000009
IFB$S_RFM      = 00000004            IO$M_CTRLCAST  = 00000100            IO$V_NOECHO    = 00000006
IFB$V_ACCESSED = 00000025            IO$M_CTRLYAST  = 00000080            IO$V_NOFILTR   = 00000009
IFB$V_ANSI_D   = 00000026            IO$M_CVTLOW    = 00000100            IO$V_NOFORMAT  = 00000008
RMS0ERASE       DELETE FILE OPERATION                            21-AUG-1978 22:01:38   VAX-11 MACRO X0.3-11               Page   9
SYMBOL TABLE                                                                                                                     (1)

IO$V_NOW       = 00000006            IO$_WRITEOF    = 00000028            NAM$M_WILD_UFD = 01000000
IO$V_NOWAIT    = 00000007            IO$_WRITEPBLK  = 0000000B            NAM$M_WILD_VER = 00000008
IO$V_PACKED    = 00000007            IO$_WRITETRACKD= 0000000F            NAM$S_DIR_LVLS = 00000003
IO$V_PURGE     = 0000000B            IO$_WRITEVBLK  = 00000030            NAM$T_DVI        00000014
IO$V_READATTN  = 00000007            L$RMS01          00000000 R     05   NAM$V_DIR_LVLS = 00000015
IO$V_REVERSE   = 00000006            L$RMS02          00000008 R     05   NAM$V_EXP_DEV  = 00000007
IO$V_SHUTDOWN  = 00000007            L$RMS03          00000012 R     05   NAM$V_EXP_DIR  = 00000006
IO$V_STARTUP   = 00000006            NAM$B_BID        00000000            NAM$V_EXP_NAME = 00000002
IO$V_SYNCH     = 00000009            NAM$B_BLN        00000001            NAM$V_EXP_TYPE = 00000001
IO$V_TIMED     = 00000007            NAM$B_CURLVL     00000038            NAM$V_EXP_VER  = 00000000
IO$V_TRMNOECHO = 0000000C            NAM$B_ESL        0000000B            NAM$V_GRP_MBR  = 00000013
IO$V_WRTATTN   = 00000008            NAM$B_ESS        0000000A            NAM$V_HIGHVER  = 0000000F
IO$_ACCESS     = 00000032            NAM$B_RSL        00000003            NAM$V_LOWVER   = 0000000E
IO$_ACPCONTROL = 00000038            NAM$B_RSS        00000002            NAM$V_NODE     = 00000011
IO$_CREATE     = 00000033            NAM$C_BID      = 00000002            NAM$V_PPF      = 00000010
IO$_DEACCESS   = 00000034            NAM$C_BLN        00000038            NAM$V_QUOTED   = 00000012
IO$_DELETE     = 00000035            NAM$C_BLN_DIRWC  00000050            NAM$V_WILDCARD = 00000008
IO$_DIAGNOSE   = 0000001D            NAM$C_DVI      = 00000010            NAM$V_WILD_DIR = 00000014
IO$_DRVCLR     = 00000004            NAM$C_MAXRSS   = 00000080            NAM$V_WILD_GRP = 00000018
IO$_ERASETAPE  = 00000006            NAM$C_MAXRSSLCL= 00000060            NAM$V_WILD_MBR = 00000019
IO$_LOGICAL    = 0000002F            NAM$K_BLN        00000038            NAM$V_WILD_NAME= 00000005
IO$_MODIFY     = 00000036            NAM$K_BLN_DIRWC  00000050            NAM$V_WILD_SFD1= 00000019
IO$_MOUNT      = 00000039            NAM$L_DIRWCC1    00000040            NAM$V_WILD_SFD2= 0000001A
IO$_NOP        = 00000000            NAM$L_DIRWCC2    00000044            NAM$V_WILD_SFD3= 0000001B
IO$_OFFSET     = 00000006            NAM$L_DIRWCC3    00000048            NAM$V_WILD_SFD4= 0000001C
IO$_PACKACK    = 00000008            NAM$L_DIRWCC4    0000004C            NAM$V_WILD_SFD5= 0000001D
IO$_PHYSICAL   = 0000001F            NAM$L_DWC        00000038            NAM$V_WILD_SFD6= 0000001E
IO$_READHEAD   = 0000000E            NAM$L_ESA        0000000C            NAM$V_WILD_SFD7= 0000001F
IO$_READLBLK   = 00000021            NAM$L_FNB        00000034            NAM$V_WILD_TYPE= 00000004
IO$_READPBLK   = 0000000C            NAM$L_RLF        00000010            NAM$V_WILD_UFD = 00000018
IO$_READPRESET = 00000019            NAM$L_RSA        00000004            NAM$V_WILD_VER = 00000003
IO$_READPROMPT = 00000037            NAM$L_WCC        00000030            NAM$W_DID        0000002A
IO$_READTRACKD = 00000010            NAM$M_DIR_LVLS = 00E00000            NAM$W_DID_NUM    0000002A
IO$_READVBLK   = 00000031            NAM$M_EXP_DEV  = 00000080            NAM$W_DID_RVN    0000002E
IO$_RECAL      = 00000003            NAM$M_EXP_DIR  = 00000040            NAM$W_DID_SEQ    0000002C
IO$_RELEASE    = 00000005            NAM$M_EXP_NAME = 00000004            NAM$W_FID        00000024
IO$_RETCENTER  = 00000007            NAM$M_EXP_TYPE = 00000002            NAM$W_FID_NUM    00000024
IO$_REWIND     = 00000024            NAM$M_EXP_VER  = 00000001            NAM$W_FID_RVN    00000028
IO$_REWINDOFF  = 00000022            NAM$M_GRP_MBR  = 00080000            NAM$W_FID_SEQ    00000026
IO$_SEARCH     = 00000009            NAM$M_HIGHVER  = 00008000            NAM$W_PRV_DID    0000003A
IO$_SEEK       = 00000002            NAM$M_LOWVER   = 00004000            NF$NETWORK0      00000000 R     04
IO$_SENSECHAR  = 0000001B            NAM$M_NODE     = 00020000            NT$ACCESS        ********   X   04
IO$_SENSEMODE  = 00000027            NAM$M_PPF      = 00010000            NT$ERASE         ********   X   04
IO$_SETCHAR    = 0000001A            NAM$M_QUOTED   = 00040000            NTERASE          00000062 R     02
IO$_SETMODE    = 00000023            NAM$M_WILDCARD = 00000100            PIO$GL_FMLH      ********   X   02
IO$_SKIPFILE   = 00000025            NAM$M_WILD_DIR = 00100000            RM$ASSIGN        ********   X   02
IO$_SKIPRECORD = 00000026            NAM$M_WILD_GRP = 01000000            RM$BUG           ********   X   02
IO$_SPACEFILE  = 00000002            NAM$M_WILD_MBR = 02000000            RM$CLSCU         ********   X   02
IO$_SPACERECORD= 00000009            NAM$M_WILD_NAME= 00000020            RM$FCPFNC        ********   X   02
IO$_STARTSPNDL = 00000019            NAM$M_WILD_SFD1= 02000000            RM$FCP_P4_P2     ********   X   02
IO$_UNLOAD     = 00000001            NAM$M_WILD_SFD2= 04000000            RM$FILLNAM       ********   X   02
IO$_VIRTUAL    = 0000003F            NAM$M_WILD_SFD3= 08000000            RM$FSETI         ********   X   02
IO$_WRITECHECK = 0000000A            NAM$M_WILD_SFD4= 10000000            RM$MAPERR        ********   X   05
IO$_WRITECHECKH= 00000018            NAM$M_WILD_SFD5= 20000000            RM$SETDID        ********   X   02
IO$_WRITEHEAD  = 0000000D            NAM$M_WILD_SFD6= 40000000            RM$XPFN          ********   X   02
IO$_WRITELBLK  = 00000020            NAM$M_WILD_SFD7= 80000000            RMS$ERASE      = FFFFFFFE RG    02
IO$_WRITEMARK  = 0000001C            NAM$M_WILD_TYPE= 00000010            RMS$V_STVSTATUS= 0000000E
RMS0ERASE       DELETE FILE OPERATION                            21-AUG-1978 22:01:38   VAX-11 MACRO X0.3-11               Page  10
SYMBOL TABLE                                                                                                                     (1)

RMS$_ABO       = 000183EC            RMS$_ESS       = 00018504            RMS$_PENDING   = 00018009
RMS$_ACC       = 0001C002            RMS$_EXP       = 000182C2            RMS$_PLG       = 0001861C
RMS$_ACT       = 0001825A            RMS$_EXT       = 0001C022            RMS$_PLV       = 0001872C
RMS$_AID       = 000183F4            RMS$_FAB       = 0001850C            RMS$_POS       = 00018624
RMS$_ALN       = 000183FC            RMS$_FAC       = 00018514            RMS$_PRM       = 0001862C
RMS$_ALQ       = 00018404            RMS$_FEX       = 00018282            RMS$_PRV       = 0001829A
RMS$_ANI       = 0001840C            RMS$_FLG       = 0001851C            RMS$_QUO       = 00018634
RMS$_AOP       = 00018414            RMS$_FLK       = 0001828A            RMS$_RAB       = 0001863C
RMS$_ATR       = 0001C0CC            RMS$_FNA       = 00018524            RMS$_RAC       = 00018644
RMS$_ATW       = 0001C0D4            RMS$_FND       = 0001C02A            RMS$_RAT       = 0001864C
RMS$_BKS       = 0001841C            RMS$_FNF       = 00018292            RMS$_RBF       = 00018654
RMS$_BKZ       = 00018424            RMS$_FNM       = 0001852C            RMS$_RER       = 0001C0F4
RMS$_BLN       = 0001842C            RMS$_FOP       = 0001853C            RMS$_REX       = 000182A2
RMS$_BOF       = 00018198            RMS$_FSZ       = 00018534            RMS$_RFA       = 0001865C
RMS$_BUG       = 00018434            RMS$_FUL       = 00018544            RMS$_RFM       = 00018664
RMS$_BUG_DAP   = 00018444            RMS$_IAL       = 0001854C            RMS$_RHB       = 0001866C
RMS$_BUG_DDI   = 0001843C            RMS$_IAN       = 00018554            RMS$_RLF       = 00018674
RMS$_BUG_XX2   = 0001844C            RMS$_IBF       = 00018754            RMS$_RLK       = 000182AA
RMS$_BUG_XX3   = 00018454            RMS$_IDX       = 0001855C            RMS$_RMV       = 0001C0FC
RMS$_BUG_XX4   = 0001845C            RMS$_IFA       = 0001C124            RMS$_RNF       = 000182B2
RMS$_BUG_XX5   = 00018464            RMS$_IFI       = 00018564            RMS$_RNL       = 000181A0
RMS$_BUG_XX6   = 0001846C            RMS$_IMX       = 0001856C            RMS$_ROP       = 0001867C
RMS$_BUG_XX7   = 00018474            RMS$_IOP       = 00018574            RMS$_RPL       = 0001C104
RMS$_BUG_XX8   = 0001847C            RMS$_IRC       = 0001857C            RMS$_RRV       = 00018684
RMS$_BUG_XX9   = 00018484            RMS$_ISI       = 00018584            RMS$_RSA       = 000182DA
RMS$_CAA       = 0001848C            RMS$_KBF       = 0001858C            RMS$_RSL       = 0001873C
RMS$_CCF       = 0001C0DC            RMS$_KEY       = 00018594            RMS$_RSS       = 00018694
RMS$_CCR       = 00018494            RMS$_KFF       = 00018031            RMS$_RST       = 0001869C
RMS$_CDA       = 0001C0E4            RMS$_KRF       = 0001859C            RMS$_RSZ       = 000186A4
RMS$_CHG       = 0001849C            RMS$_KSZ       = 000185A4            RMS$_RTB       = 000181A8
RMS$_CHK       = 000184A4            RMS$_LAN       = 000185AC            RMS$_SEQ       = 000186AC
RMS$_CHN       = 0001C0EC            RMS$_LBL       = 000185B4            RMS$_SHR       = 000186B4
RMS$_COD       = 000184AC            RMS$_LNE       = 000185BC            RMS$_SIZ       = 000186BC
RMS$_CONTROLC  = 00010651            RMS$_LOC       = 000185C4            RMS$_SPL       = 0001C042
RMS$_CONTROLO  = 00010609            RMS$_MBC       = 00018734            RMS$_SQO       = 000186C4
RMS$_CONTROLY  = 00010611            RMS$_MKD       = 0001C032            RMS$_STALL     = 00018001
RMS$_CRE       = 0001C00A            RMS$_MRN       = 000185CC            RMS$_STK       = 000186CC
RMS$_CREATED   = 00010619            RMS$_MRS       = 000185D4            RMS$_SUC       = 00010001
RMS$_CUR       = 000184B4            RMS$_NAM       = 000185DC            RMS$_SUP       = 000182D2
RMS$_DAC       = 0001C012            RMS$_NEF       = 000185E4            RMS$_SUPERSEDE = 00010631
RMS$_DAN       = 000184BC            RMS$_NET       = 0001874C            RMS$_SYN       = 000186D4
RMS$_DEL       = 00018262            RMS$_NID       = 000185EC            RMS$_SYS       = 0001C10C
RMS$_DEV       = 000184C4            RMS$_NMF       = 000182CA            RMS$_TEMP1     = 0001826A
RMS$_DIR       = 000184CC            RMS$_NOD       = 000185F4            RMS$_TEMP2     = 0001868C
RMS$_DME       = 000184D4            RMS$_NORMAL    = 00010001            RMS$_TMO       = 000181B0
RMS$_DNA       = 000184DC            RMS$_NPK       = 000185FC            RMS$_TRE       = 000186DC
RMS$_DNF       = 0001C04A            RMS$_OK_ALK    = 00018039            RMS$_TYP       = 000186E4
RMS$_DNR       = 00018272            RMS$_OK_DEL    = 00018041            RMS$_UBF       = 000186EC
RMS$_DPE       = 0001C03A            RMS$_OK_DUP    = 00018011            RMS$_USZ       = 000186F4
RMS$_DTP       = 000184E4            RMS$_OK_IDX    = 00018019            RMS$_VER       = 000186FC
RMS$_DUP       = 000184EC            RMS$_OK_LIM    = 00018051            RMS$_VOL       = 00018704
RMS$_DVI       = 000184F4            RMS$_OK_RLK    = 00018021            RMS$_WBE       = 0001C12C
RMS$_ENT       = 0001C01A            RMS$_OK_RNF    = 00018049            RMS$_WER       = 0001C114
RMS$_ENV       = 00018724            RMS$_OK_RRV    = 00018029            RMS$_WLD       = 00018744
RMS$_EOF       = 0001827A            RMS$_ORD       = 00018604            RMS$_WLK       = 000182BA
RMS$_ESA       = 000184FC            RMS$_ORG       = 0001860C            RMS$_WPL       = 0001C11C
RMS$_ESL       = 00018714            RMS$_PBF       = 00018614            RMS$_WSF       = 0001871C
RMS0ERASE       DELETE FILE OPERATION                            21-AUG-1978 22:01:38   VAX-11 MACRO X0.3-11               Page  11
SYMBOL TABLE                                                                                                                     (1)

RMS$_XAB       = 0001870C
TPT$L_ERASE      ********   X   02


PROGRAM SECTION SYNOPSIS

.  ABS  .        00000000      00     NOPIC   USR   CON   ABS   LCL NOSHR NOEXE NORD  NOWRT BYTE
. BLANK .        00000000      01     NOPIC   USR   CON   REL   LCL NOSHR   EXE   RD    WRT BYTE
F$RMS0MISC       00000072      02     NOPIC   USR   CON   REL   GBL NOSHR   EXE   RD  NOWRT BYTE
$ABS$            000001E4      03     NOPIC   USR   CON   ABS   LCL NOSHR   EXE   RD    WRT BYTE
NF$NETWORK       00000015      04     NOPIC   USR   CON   REL   GBL NOSHR   EXE   RD  NOWRT BYTE
L$RMS0           00000019      05     NOPIC   USR   CON   REL   GBL NOSHR   EXE   RD  NOWRT BYTE


THERE WERE NO ERRORS OR WARNINGS.
3780. BYTES LEFT IN FREE MEMORY POOL.
2770. BYTES OF RECLAIMED MEMORY.
OBJ$:RMS0ERASE,LIS$:RMS0ERASE/-SP=EXECML$/ML,LIB$:R/ML,SRC$:RMS0ERASE
29 MLB DIR RDS - 1271 GETS TO DEFINE 27 MACROS. 108 INTER. FILE WRITES.
