RMS0DISPL       DISPATCH FOR DISPLAY OPERATION                   21-AUG-1978 22:01:00   VAX-11 MACRO X0.3-11               Page   0
TABLE OF CONTENTS

   (1)      42  DECLARATIONS
   (1)      93  RMS$DISPLAY  -  $DISPLAY ROUTINE
   (1)     219  RM$READ_ATTR  -  SUBROUTINE TO READ FILE ATTRIB
RMS0DISPL       DISPATCH FOR DISPLAY OPERATION                   21-AUG-1978 22:01:00   VAX-11 MACRO X0.3-11               Page   1
003                                                                                                                              (1)

                                     0000     1 	$BEGIN RMS0DISPL,003,F$RMSDISPLAY0,<DISPATCH FOR DISPLAY OPERATION>
                                     0000     2
                                     0000     3
                                     0000     4 ;
                                     0000     5 ; COPYRIGHT (C) 1977, 1978
                                     0000     6 ; DIGITAL EQUIPMENT CORPORATION, MAYNARD, MASSACHUSETTS 01754
                                     0000     7 ;
                                     0000     8 ; THIS SOFTWARE IS FURNISHED  UNDER A LICENSE FOR USE ONLY ON A SINGLE
                                     0000     9 ; COMPUTER  SYSTEM AND  MAY BE  COPIED ONLY WITH  THE INCLUSION OF THE
                                     0000    10 ; ABOVE COPYRIGHT NOTICE.  THIS SOFTWARE, OR ANY OTHER COPIES THEREOF,
                                     0000    11 ; MAY NOT BE PROVIDED OR  OTHERWISE MADE AVAILABLE TO ANY OTHER PERSON
                                     0000    12 ; EXCEPT FOR USE ON SUCH SYSTEM AND TO ONE WHO AGREES TO THESE LICENSE
                                     0000    13 ; TERMS.  TITLE TO AND  OWNERSHIP OF THE  SOFTWARE  SHALL AT ALL TIMES
                                     0000    14 ; REMAIN IN DEC.
                                     0000    15 ;
                                     0000    16 ; THE INFORMATION IN THIS SOFTWARE IS SUBJECT TO CHANGE WITHOUT NOTICE
                                     0000    17 ; AND SHOULD  NOT BE CONSTRUED  AS A COMMITMENT  BY DIGITAL  EQUIPMENT
                                     0000    18 ; CORPORATION.
                                     0000    19 ;
                                     0000    20 ; DEC ASSUMES  NO  RESPONSIBILITY  FOR  THE USE OR  RELIABILITY OF ITS
                                     0000    21 ; SOFTWARE ON EQUIPMENT WHICH IS NOT SUPPLIED BY DEC.
                                     0000    22 ;
                                     0000    23 ;++
                                     0000    24 ; FACILITY: RMS32
                                     0000    25 ;
                                     0000    26 ; ABSTRACT:
                                     0000    27 ;		THIS MODULE IS THE HIGHEST LEVEL CONTROL ROUTINE
                                     0000    28 ;		TO PERFORM THE $DISPLAY FUNCTION.
                                     0000    29 ;
                                     0000    30 ; ENVIRONMENT:
                                     0000    31 ;		STAR PROCESSOR RUNNING STARLET EXEC.
                                     0000    32 ;
                                     0000    33 ; AUTHOR: L F LAVERDURE,	 CREATION DATE: 19-JAN-78
                                     0000    34 ;
                                     0000    35 ; MODIFIED BY:
                                     0000    36 ;
                                     0000    37 ;	L F LAVERDURE,      11-AUG-78  16:47	; RETURN REAL BLK RAT BIT FOR MT
                                     0000    38 ;	J A KRYCKA,	 20-JUN-78  10:00
                                     0000    39 ; 01	-
                                     0000    40 ;--
RMS0DISPL       DISPATCH FOR DISPLAY OPERATION                   21-AUG-1978 22:01:00   VAX-11 MACRO X0.3-11               Page   2
003             DECLARATIONS                                                                                                     (1)

                                     0000    42 	.SBTTL	DECLARATIONS
                                     0000    43 ;
                                     0000    44 ; INCLUDE FILES:
                                     0000    45 ;
                                     0000    46
                                     0000    47 ;
                                     0000    48 ; MACROS:
                                     0000    49 ;
                                     0000    50
                                     0000    51 	$IFBDEF
                                     0000    52 	$IODEF
                                     0000    53 	$DEVDEF
                                     0000    54 	$FIBDEF
                                     0000    55 	$XABDEF
                                     0000    56 	$XABALLDEF
                                     0000    57 	$XABDATDEF
                                     0000    58 	$XABFHCDEF
                                     0000    59 	$XABPRODEF
                                     0000    60 	$XABRDTDEF
                                     0000    61 	.LIST MEB
                                     0000    62 ;
                                     0000    63 ; EQUATED SYMBOLS:
                                     0000    64 ;
                           0000000C  0000    65 	C_MAXATTR=12			; MAX. # ATTRIBUTE LIST ENTRIES / QIO
                                     0000    66
                                     0000    67 ;
                                     0000    68 ; OWN STORAGE:
                                     0000    69 ;
                                     0000    70 ;
                                     0000    71 ;  ARGUMENT LIST FOR XAB CHAIN PROCESSING (ALLOCATION XABS ONLY)
                                     0000    72 ;
                                     0000    73 ALL_XAB_ARGS:
                           00'20 14  0000    74 	.BYTE	XAB$C_ALL,XAB$C_ALLLEN,XBC$C_DSPALL
                           00'24'12' 0003    75 	.BYTE	XAB$C_DAT,XAB$C_DATLEN,XBC$C_OPNDAT	; (TEMPORARILY HERE)
                                 00  0006    76 	.BYTE	0
                                     0007    77 ;
                                     0007    78 ;  XAB SCAN ARGS FOR OTHER XABS REQUIRING A READ ATTRIBUTES
                                     0007    79 ;
                                     0007    80 DSP_XAB_ARGS:
                           00'2C'1D' 0007    81 	.BYTE	XAB$C_FHC,XAB$C_FHCLEN,XBC$C_DSPFHC
                           00'10'13' 000A    82 	.BYTE	XAB$C_PRO,XAB$C_PROLEN,XBC$C_OPNPRO
                           00'14'1E' 000D    83 	.BYTE	XAB$C_RDT,XAB$C_RDTLEN,XBC$C_OPNRDT
                                 00  0010    84 	.BYTE	0
                                     0011    85 ;
                                     0011    86 ;  XAB SCAN ARGS FOR XABS REQUIRING MODIFICATION AFTER A READ ATTRIBUTES
                                     0011    87 ;
                                     0011    88 DSP_XAB_ARGS1:
                           00'2C'1D' 0011    89 	.BYTE	XAB$C_FHC,XAB$C_FHCLEN,XBC$C_DSPFHC1
                           00'20'14' 0014    90 	.BYTE	XAB$C_ALL,XAB$C_ALLLEN,XBC$C_DSPALL1
                                 00  0017    91 	.BYTE	0
RMS0DISPL       DISPATCH FOR DISPLAY OPERATION                   21-AUG-1978 22:01:00   VAX-11 MACRO X0.3-11               Page   3
003             RMS$DISPLAY  -  $DISPLAY ROUTINE                                                                                 (1)

                                     0018    93 	.SBTTL RMS$DISPLAY  -  $DISPLAY ROUTINE
                                     0018    94
                                     0018    95 ;++
                                     0018    96 ; FUNCTIONAL DESCRIPTION:
                                     0018    97 ;
                                     0018    98 ;  THIS ROUTINE PERFORMS THE HIGHEST LEVEL $DISPLAY PROCESSING.
                                     0018    99 ;  ITS FUNCTIONS INCLUDE:
                                     0018   100 ;
                                     0018   101 ;	1. COMMON SETUP
                                     0018   102 ;	2. CHECK FOR ALL STREAMS IDLE, EXITING IF NOT
                                     0018   103 ;	3. ALLOCATE AN ATTRIBUTE LIST WORK AREA AND PROCESS THE XAB CHAIN
                                     0018   104 ;	4. DO A READ OF THE FILE ATTRIBUTES
                                     0018   105 ;	5. REPROCESS THE XAB CHAIN FOR ANY XABS REQUIRING MODIFICATION
                                     0018   106 ;	   AFTER THE READ ATTRIBUTES.
                                     0018   107 ;	6. DEALLOCATE THE ATTRIBUTE LIST WORK AREA
                                     0018   108 ;	7. EXIT TO THE USER, GENERATING AN AST IF REQUESTED
                                     0018   109 ;
                                     0018   110 ;
                                     0018   111 ; CALLING SEQUENCE:
                                     0018   112 ;
                                     0018   113 ;	ENTERED FROM EXEC AS A RESULT OF USER'S CALLING SYS$DISPLAY
                                     0018   114 ;	(E.G., BY USING THE $DISPLAY MACRO).
                                     0018   115 ;
                                     0018   116 ; INPUT PARAMETERS:
                                     0018   117 ;
                                     0018   118 ;	AP	USER'S ARGUMENT LIST ADDR
                                     0018   119 ;
                                     0018   120 ; IMPLICIT INPUTS:
                                     0018   121 ;
                                     0018   122 ;	THE CONTENTS OF THE FAB AND RELATED XABS.
                                     0018   123 ;
                                     0018   124 ; OUTPUT PARAMETERS:
                                     0018   125 ;
                                     0018   126 ;	R0	STATUS CODE
                                     0018   127 ;	R1	DESTROYED
                                     0018   128 ;
                                     0018   129 ; IMPLICIT OUTPUTS:
                                     0018   130 ;
                                     0018   131 ;	THE VARIOUS FIELDS OF THE RELATED XABS ARE FILLED IN.
                                     0018   132 ;
                                     0018   133 ;	A COMPLETION AST IS QUEUED IF SO SPECIFIED BY THE USER.
                                     0018   134 ;
                                     0018   135 ; COMPLETION CODES:
                                     0018   136 ;
                                     0018   137 ;	STANDARD RMS (SEE FUNCTIONAL SPEC FOR LIST).
                                     0018   138 ;
                                     0018   139 ; SIDE EFFECTS:
                                     0018   140 ;
                                     0018   141 ;	NONE.
                                     0018   142 ;
                                     0018   143 ;--
RMS0DISPL       DISPATCH FOR DISPLAY OPERATION                   21-AUG-1978 22:01:00   VAX-11 MACRO X0.3-11               Page   4
003             RMS$DISPLAY  -  $DISPLAY ROUTINE                                                                                 (1)

                                     0018   145 ;++
                                     0018   146 ;
                                     0018   147 ;  ENTRY POINT FOR $DISPLAY SERVICE
                                     0018   148 ;
                                     0018   149 ;--
                                     0018   150 	$ENTRY	RMS$DISPLAY
                                 00000018       	.PSECT	F$RMSDISPLAY0,GBL,NOWRT
                                     0018   151 	$TSTPT	DISPLAY
                 00000200'9F     D6  0018       		INCL	@#PIO$GL_FMLH+512+TPT$L_DISPLAY
                          FFDF'  30  001E   152 	BSBW	RM$FSET				; DO COMMON SETUP
                                     0021   153 						; NOTE: DOES NOT RETURN ON ERROR
                          FFDC'  30  0021   154 	BSBW	RM$CHK_IDLE			; CHECK ALL STREAMS INACTIVE
                                     0024   155 						; NOTE: DOES NOT RETURN ON ERROR
            6A            0D     E0  0024   156 	BBS	#DEV$V_NET,IFB$L_PRIM_DEV(R10),RM$ERRSUP
                          57         0027
                                     0028   157 						; BRANCH IF NETWROK FUNCTION
                                     0028   158 	RMSSUC					; ANTICIPATE SUCCESS
            50            01     D0  0028       		MOVL	#1,R0
            6A            03     E1  002B   159 	BBC	#DEV$V_DIR,IFB$L_PRIM_DEV(R10),DSPXIT
                          4D         002E
                                     002F   160 						; BRANCH IF NOT FILE STRUCTURED
                                     002F   161 ;
                                     002F   162 ;  ALLOCATE ATTRIBUTE LIST WORK AREA
                                     002F   163 ;
            52         60 8F     9A  002F   164 	MOVZBL	#C_MAXATTR*8,R2			; SIZE FOR ATTR. LIST WORK AREA
                          FFCA'  30  0033   165 	BSBW	RM$GETSPC1			; ALLOCATE ATTR. LIST WORK AREA
            43            50     E9  0036   166 	BLBC	R0,DSPXIT			; GET OUT ON ERRORS
            55            51     D0  0039   167 	MOVL	R1,R5				; SAVE ATTR. LIST AREA ADDR
                          55     DD  003C   168 	PUSHL	R5				;      "
                                     003E   169 ;
                                     003E   170 ;  !!!  \NOTE: MUST ADD CODE TO HANDLE INDEXED FILE ORG.\ !!!
                                     003E   171 ;
                                     003E   172 ;  PROCESS ALLOCATION XAB, IF ANY.
                                     003E   173 ;
            5C         BF AF     9E  003E   174 	MOVAB	ALL_XAB_ARGS,AP			; XAB SCAN ARG. LIST ADDR
                          FFBB'  30  0042   175 	BSBW	RM$XAB_SCAN			; PROCESS ANY ALLOCATION XAB
            27            50     E9  0045   176 	BLBC	R0,DSPCLN			; GET OUT ON ERROR
                                     0048   177 ;++!!! TEMPORARY CODE !!!
                          54     D5  0048   178 	TSTL	R4				; ANY XAB PROCESSED?
                          08     13  004A   179 	BEQL	9$				; BRANCH IF NONE
                          34     10  004C   180 	BSBB	RM$READ_ATTR			; GO READ ATTRIBUTES
            1E            50     E9  004E   181 	BLBC	R0,DSPCLN			; GET OUT ON ERROR
            55            6E     D0  0051   182 	MOVL	(SP),R5				; RESTORE ATTR LIST WORK AREA ADDR
                                     0054   183 9$:
                                     0054   184 ;--!!! END OF TEMPORARY CODE !!!
                                     0054   185 ;
                                     0054   186 ;  PROCESS OTHER XABS, IF ANY
                                     0054   187 ;
            5C         B0 AF     9E  0054   188 	MOVAB	DSP_XAB_ARGS,AP			; XAB SCAN ARG. LIST ADDR
                          FFA5'  30  0058   189 	BSBW	RM$XAB_SCAN			; PROCESS THE XABS
            11            50     E9  005B   190 	BLBC	R0,DSPCLN			; GET OUT ON ERROR
            6E            55     D1  005E   191 	CMPL	R5,(SP)				; ANY NEED TO READ ATTRIBUTES?
                          0C     13  0061   192 	BEQL	DSPCLN				; BRANCH IF NOT
                          1D     10  0063   193 	BSBB	RM$READ_ATTR			; READ FILE ATTRIBUTES
            07            50     E9  0065   194 	BLBC	R0,DSPCLN			; GET OUT ON ERROR
            5C         A6 AF     9E  0068   195 	MOVAB	DSP_XAB_ARGS1,AP		; FHC & ALLOCATION XAB SCAN ARGS
                          FF91'  30  006C   196 	BSBW	RM$XAB_SCAN			; PROCESS 2ND HALF OF ALL OR FHC XAB
RMS0DISPL       DISPATCH FOR DISPLAY OPERATION                   21-AUG-1978 22:01:00   VAX-11 MACRO X0.3-11               Page   5
003             RMS$DISPLAY  -  $DISPLAY ROUTINE                                                                                 (1)

                                     006F   197 ;
                                     006F   198 ;  DEALLOCATE ATTRIBUTE LIST WORK AREA AND EXIT RMS
                                     006F   199 ;
                          10     BA  006F   200 DSPCLN:	POPR	#^M<R4>				; GET ADDR OF ATTR. LIST WORK AREA
            52         60 8F     9A  0071   201 	MOVZBL	#C_MAXATTR*8,R2			; AND SIZE
                          50     DD  0075   202 	PUSHL	R0				; SAVE STATUS
                          FF86'  30  0077   203 	BSBW	RM$RETSPC1			; DEALLOCATE WORK SPACE
                          01     BA  007A   204 	POPR	#^M<R0>				; RESTORE STATUS
                          FF81'  31  007C   205 DSPXIT:	BRW	RM$EXRMS			; EXIT RMS
                                     007F   206
                                     007F   207 ;++
                                     007F   208 ;
                                     007F   209 ; HANDLE ERROR CONDITIONS
                                     007F   210 ;
                                     007F   211 ;--
                                     007F   212 RM$ERRSUP::
                                     007F   213 	$PSECT_BR	L$RMS0
                          FF7E'  31  007F       		BRW	L$RMS00
                                     0082       		.SAVE
                                 00000000       		.PSECT	L$RMS0,GBL,NOWRT
                                     0000       L$RMS00:
                                     0000   214 	RMSERR	SUP				; UNSUPPORTED NETWORK FUNCTION
            50       0000'8F     3C  0000       		MOVZWL	#<RMS$_SUP&^XFFFF>,R0
                     0000'C8     D4  0005   215 	CLRL	FAB$L_STV(R8)			; RETURN CATCH-ALL DAP CODE IN STV
                          FFF4'  31  0009   216 	BRW	RM$EXRMS			; EXIT RMS
                                     000C   217 	$PSECT_RESTORE
                                 00000082       		.RESTORE
RMS0DISPL       DISPATCH FOR DISPLAY OPERATION                   21-AUG-1978 22:01:00   VAX-11 MACRO X0.3-11               Page   6
003             RM$READ_ATTR  -  SUBROUTINE TO READ FILE ATTRIB                                                                  (1)

                                     0082   219 	.SBTTL	RM$READ_ATTR  -  SUBROUTINE TO READ FILE ATTRIBUTES
                                     0082   220 ;++
                                     0082   221 ;  FUNCTIONAL DESCRIPTION:
                                     0082   222 ;
                                     0082   223 ;	THIS ROUTINE PERFORMS AN IO$_ACCESS QIO TO READ THE FILE ATTRIBUTES
                                     0082   224 ;
                                     0082   225 ;  INPUTS:
                                     0082   226 ;
                                     0082   227 ;	R11	IMPURE AREA ADDR
                                     0082   228 ;	R10	IFAB ADDR
                                     0082   229 ;	R9	IFAB ADDR
                                     0082   230 ;	R8	FAB ADDR
                                     0082   231 ;	R5	ATTRIBUTE LIST END ADDR (A ZERO LONGWORD WILL BE STORE HERE)
                                     0082   232 ;	4(SP)	ATTRIBUTE LIST START ADDR
                                     0082   233 ;
                                     0082   234 ;  OUTPUTS:
                                     0082   235 ;
                                     0082   236 ;	R0		STATUS
                                     0082   237 ;	R1-R5,AP	DESTROYED
                                     0082   238 ;
                                     0082   239 ;--
                                     0082   240 RM$READ_ATTR::
                          65     D4  0082   241 	CLRL	(R5)				; FLAG END OF ATTR. LIST
                                     0084   242 ;
                                     0084   243 ;  ALLOCATE AND INITIALIZE FIB
                                     0084   244 ;
            52            0A     D0  0084   245 	MOVL	#FIB$C_ACCDATA,R2		; MINIMUM SIZE FIB TO ALLOCATE
                          FF76'  30  0087   246 	BSBW	RM$GETSPC1			; ALLOCATE FIB
            1C            50     E9  008A   247 	BLBC	R0,10$				; GET OUT ON ERROR
                          51     DD  008D   248 	PUSHL	R1				; BUILD FIB DESCRIPTOR (ADDR)
                          0A     DD  008F   249 	PUSHL	#FIB$C_ACCDATA			;	"		(LEN)
                                     0091   250 	SSB	#FIB$V_PRSRV_ATR,FIB$L_ACCTL(R1); SPECIFY REAL ATTRIBUTES (BLK)
            61            11     E2  0091       		BBSS	#FIB$V_PRSRV_ATR,FIB$L_ACCTL(R1),30000$
                          00         0094
                                     0095       30000$:
                                     0095   251 ;
                                     0095   252 ;  PUSH P6 AND P5 QIO PARAMETERS ON THE STACK AND DO THE ACCESS QIO FUNCTION
                                     0095   253 ;
                          00     DD  0095   254 	PUSHL	#0				; P6 = 0
                       10 AE     DD  0097   255 	PUSHL	16(SP)				; P5 = ATTR. LIST ADDR
            50            32     9A  009A   256 	MOVZBL	#IO$_ACCESS,R0			; I/O FUNCTION CODE
                          FF60'  30  009D   257 	BSBW	RM$FCPFNC_ALT5			; READ ATTRIBUTES
                          14     BA  00A0   258 	POPR	#^M<R2,R4>			; GET FIB SIZE AND ADDRESS
                          50     DD  00A2   259 	PUSHL	R0				; SAVE STATUS CODE
                          FF59'  30  00A4   260 	BSBW	RM$RETSPC1			; DEALLOCATE FIB
                          01     BA  00A7   261 	POPR	#^M<R0>				; RESTORE STATUS
                                 05  00A9   262 10$:	RSB
                                     00AA   263
                                     00AA   264
                                     00AA   265 	.END
RMS0DISPL       DISPATCH FOR DISPLAY OPERATION                   21-AUG-1978 22:01:00   VAX-11 MACRO X0.3-11               Page   7
SYMBOL TABLE                                                                                                                     (1)

$$.PSECT_EP    = 00000001            DEV$V_WCK      = 0000001F            FIB$M_LOWVER   = 00004000
$$RMSTEST      = 0000001A            DSPCLN           0000006F R     02   FIB$M_MARKBAD  = 00000400
$$RMS_PBUGCHK  = 00000010            DSPXIT           0000007C R     02   FIB$M_NEWVER   = 00000200
$$RMS_TBUGCHK  = 00000008            DSP_XAB_ARGS     00000007 R     02   FIB$M_NOHDREXT = 00000200
$$RMS_UMODE    = 00000004            DSP_XAB_ARGS1    00000011 R     02   FIB$M_NOREAD   = 00000400
ALL_XAB_ARGS     00000000 R     02   FAB$L_STV        ********   X   04   FIB$M_NOTRUNC  = 00000800
BIT...         = 00000004            FIB$B_ALALIGN    00000021            FIB$M_NOWRITE  = 00000001
C_MAXATTR      = 0000000C            FIB$B_ALOPTS     00000020            FIB$M_ONCYL    = 00000002
DEV$M_ALL      = 00800000            FIB$B_DID_NMX    0000000F            FIB$M_PRSRV_ATR= 00020000
DEV$M_AVL      = 00040000            FIB$B_DID_RVN    0000000E            FIB$M_READCK   = 00000200
DEV$M_CCL      = 00000002            FIB$B_FID_NMX    00000009            FIB$M_REWIND   = 00000008
DEV$M_DIR      = 00000008            FIB$B_FID_RVN    00000008            FIB$M_SEQONLY  = 00000040
DEV$M_DMT      = 00200000            FIB$B_LOC_NMX    00000027            FIB$M_SPOOL    = 00000010
DEV$M_ELG      = 00400000            FIB$B_LOC_RVN    00000026            FIB$M_SUPERSEDE= 00000400
DEV$M_FOD      = 00004000            FIB$B_WSIZE      00000003            FIB$M_TRUNC    = 00000100
DEV$M_FOR      = 01000000            FIB$C_ACCDATA    0000000A            FIB$M_UPDATE   = 00000040
DEV$M_GEN      = 00020000            FIB$C_ALCDATA    0000002C            FIB$M_WILD     = 00000100
DEV$M_IDV      = 04000000            FIB$C_CYL      = 00000001            FIB$M_WRITE    = 00000100
DEV$M_MBX      = 00100000            FIB$C_DIRDATA    00000016            FIB$M_WRITECK  = 00000020
DEV$M_MNT      = 00080000            FIB$C_EXTDATA    00000020            FIB$V_ALCON    = 00000000
DEV$M_NET      = 00002000            FIB$C_ILLEGAL  = 00000005            FIB$V_ALCONB   = 00000001
DEV$M_ODV      = 08000000            FIB$C_LBN      = 00000002            FIB$V_ALDEF    = 00000003
DEV$M_RCK      = 40000000            FIB$C_LENGTH     0000002C            FIB$V_ALLNAM   = 00000005
DEV$M_REC      = 00000001            FIB$C_MTALEN     0000001C            FIB$V_ALLTYP   = 00000004
DEV$M_RND      = 10000000            FIB$C_NEXTVOL  = 00000003            FIB$V_ALLVER   = 00000003
DEV$M_RTM      = 20000000            FIB$C_POSEND   = 00000002            FIB$V_CURPOS   = 00000004
DEV$M_SDI      = 00000010            FIB$C_REWINDFIL= 00000006            FIB$V_DLOCK    = 00000001
DEV$M_SHR      = 00010000            FIB$C_REWINDVOL= 00000001            FIB$V_EXACT    = 00000000
DEV$M_SPL      = 00000040            FIB$C_RFI      = 00000004            FIB$V_EXECUTE  = 00000010
DEV$M_SQD      = 00000020            FIB$C_SPACE    = 00000004            FIB$V_EXTEND   = 00000007
DEV$M_SWL      = 02000000            FIB$C_VBN      = 00000003            FIB$V_FILCON   = 00000002
DEV$M_TRM      = 00000004            FIB$K_ACCDATA    0000000A            FIB$V_FINDFID  = 0000000B
DEV$M_WCK      = 80000000            FIB$K_ALCDATA    0000002C            FIB$V_HIGHVER  = 0000000F
DEV$V_ALL      = 00000017            FIB$K_DIRDATA    00000016            FIB$V_LOWVER   = 0000000E
DEV$V_AVL      = 00000012            FIB$K_EXTDATA    00000020            FIB$V_MARKBAD  = 0000000A
DEV$V_CCL      = 00000001            FIB$K_LENGTH     0000002C            FIB$V_NEWVER   = 00000009
DEV$V_DIR      = 00000003            FIB$K_MTALEN     0000001C            FIB$V_NOHDREXT = 00000009
DEV$V_DMT      = 00000015            FIB$L_ACCTL      00000000            FIB$V_NOREAD   = 0000000A
DEV$V_ELG      = 00000016            FIB$L_CNTRLVAL   00000018            FIB$V_NOTRUNC  = 0000000B
DEV$V_FOD      = 0000000E            FIB$L_EXSZ       00000018            FIB$V_NOWRITE  = 00000000
DEV$V_FOR      = 00000018            FIB$L_EXVBN      0000001C            FIB$V_ONCYL    = 00000001
DEV$V_GEN      = 00000011            FIB$L_LOC_ADDR   00000028            FIB$V_PRSRV_ATR= 00000011
DEV$V_IDV      = 0000001A            FIB$L_WCC        00000010            FIB$V_READCK   = 00000009
DEV$V_MBX      = 00000014            FIB$M_ALCON    = 00000001            FIB$V_REWIND   = 00000003
DEV$V_MNT      = 00000013            FIB$M_ALCONB   = 00000002            FIB$V_SEQONLY  = 00000006
DEV$V_NET      = 0000000D            FIB$M_ALDEF    = 00000008            FIB$V_SPOOL    = 00000004
DEV$V_ODV      = 0000001B            FIB$M_ALLNAM   = 00000020            FIB$V_SUPERSEDE= 0000000A
DEV$V_RCK      = 0000001E            FIB$M_ALLTYP   = 00000010            FIB$V_TRUNC    = 00000008
DEV$V_REC      = 00000000            FIB$M_ALLVER   = 00000008            FIB$V_UPDATE   = 00000006
DEV$V_RND      = 0000001C            FIB$M_CURPOS   = 00000010            FIB$V_WILD     = 00000008
DEV$V_RTM      = 0000001D            FIB$M_DLOCK    = 00000002            FIB$V_WRITE    = 00000008
DEV$V_SDI      = 00000004            FIB$M_EXACT    = 00000001            FIB$V_WRITECK  = 00000005
DEV$V_SHR      = 00000010            FIB$M_EXECUTE  = 00010000            FIB$W_ALLOC      00000022
DEV$V_SPL      = 00000006            FIB$M_EXTEND   = 00000080            FIB$W_CNTRLFUNC  00000016
DEV$V_SQD      = 00000005            FIB$M_FILCON   = 00000004            FIB$W_DID        0000000A
DEV$V_SWL      = 00000019            FIB$M_FINDFID  = 00000800            FIB$W_DID_NUM    0000000A
DEV$V_TRM      = 00000002            FIB$M_HIGHVER  = 00008000            FIB$W_DID_RVN    0000000E
RMS0DISPL       DISPATCH FOR DISPLAY OPERATION                   21-AUG-1978 22:01:00   VAX-11 MACRO X0.3-11               Page   8
SYMBOL TABLE                                                                                                                     (1)

FIB$W_DID_SEQ    0000000C            IFB$L_IOS        0000000C            IFB$W_ASDEVBSIZ  0000005A
FIB$W_EXCTL      00000016            IFB$L_IOS4       00000010            IFB$W_BKS_BYTES  0000005C
FIB$W_FID        00000004            IFB$L_IRAB_LNK   0000001C            IFB$W_BKS_RECS   0000005E
FIB$W_FID_NUM    00000004            IFB$L_LAST_FAB   00000024            IFB$W_CHNL       00000020
FIB$W_FID_RVN    00000008            IFB$L_LOCK_BDB   00000050            IFB$W_DEQ        0000004E
FIB$W_FID_SEQ    00000006            IFB$L_MRN        00000054            IFB$W_DEVBUFSIZ  00000038
FIB$W_LOC_FID    00000022            IFB$L_NRP_LNK    00000050            IFB$W_EBK0       00000044
FIB$W_LOC_NUM    00000022            IFB$L_NWA_PTR    00000028            IFB$W_EBK2       00000046
FIB$W_LOC_RVN    00000026            IFB$L_PRIM_DEV   00000000            IFB$W_FFB        00000048
FIB$W_LOC_SEQ    00000024            IFB$L_RLB_LNK    0000002C            IFB$W_IOS2       0000000E
FIB$W_NMCTL      00000014            IFB$L_RNS_LEN    00000050            IFB$W_LRL        0000003E
GBL...         = 00000000            IFB$M_BIO      = 00000020            IFB$W_MRS        0000004C
IFB$B_AMAX       00000059            IFB$M_BRO      = 00000040            IFB$W_RTDEQ      0000003A
IFB$B_AVBN       00000058            IFB$M_DEL      = 00000004            IO$M_ABORT     = 00000100
IFB$B_BID        00000008            IFB$M_EXE      = 00000080            IO$M_ACCESS    = 00000040
IFB$B_BKS        0000004A            IFB$M_GET      = 00000002            IO$M_ATTNAST   = 00000100
IFB$B_BLN        00000009            IFB$M_PUT      = 00000001            IO$M_BINARY    = 00000040
IFB$B_EFN        0000000B            IFB$M_TRN      = 00000010            IO$M_CANCTRLO  = 00000040
IFB$B_EXTRABUF   0000005D            IFB$M_UPD      = 00000008            IO$M_COMMOD    = 00000040
IFB$B_FAC        00000022            IFB$S_ORG      = 00000004            IO$M_CREATE    = 00000080
IFB$B_FSZ        0000004B            IFB$S_RFM      = 00000004            IO$M_CTRLCAST  = 00000100
IFB$B_KBUFSZ     0000005C            IFB$V_ACCESSED = 00000025            IO$M_CTRLYAST  = 00000080
IFB$B_MODE       0000000A            IFB$V_ANSI_D   = 00000026            IO$M_CVTLOW    = 00000100
IFB$B_NUM_KEYS   0000005A            IFB$V_ASYNC    = 00000023            IO$M_DATACHECK = 00004000
IFB$B_ORGCASE    00000023            IFB$V_ASYNCWAIT= 00000024            IO$M_DELETE    = 00000100
IFB$B_RAT        0000003D            IFB$V_BIO      = 00000005            IO$M_DMOUNT    = 00000400
IFB$B_RFMORG     0000003C            IFB$V_BRO      = 00000006            IO$M_DSABLMBX  = 00000400
IFB$B_UBUFSZ     0000005B            IFB$V_BUSY     = 00000020            IO$M_ENABLMBX  = 00000080
IFB$C_BID      = 0000000B            IFB$V_CREATE   = 00000032            IO$M_FCODE     = 0000003F
IFB$C_BLN        00000060            IFB$V_DAP      = 0000003E            IO$M_HANGUP    = 00000200
IFB$C_BLN_IDX    00000060            IFB$V_DAP_OPEN = 0000003D            IO$M_INHERLOG  = 00000800
IFB$C_BLN_REL    00000060            IFB$V_DEL      = 00000002            IO$M_INHEXTGAP = 00001000
IFB$C_BLN_SEQ    0000005C            IFB$V_DFW      = 0000002C            IO$M_INHRETRY  = 00008000
IFB$C_DIR      = 00000003            IFB$V_DLT      = 0000002B            IO$M_INHSEEK   = 00001000
IFB$C_FHAEND     00000050            IFB$V_DMO      = 00000028            IO$M_INTERRUPT = 00000040
IFB$C_IDX      = 00000002            IFB$V_EOF      = 00000021            IO$M_INTSKIP   = 00000100
IFB$C_MAXORG   = 00000002            IFB$V_EXE      = 00000007            IO$M_MOUNT     = 00000200
IFB$C_REL      = 00000001            IFB$V_GET      = 00000001            IO$M_NOECHO    = 00000040
IFB$C_SEQ      = 00000000            IFB$V_MSE      = 00000031            IO$M_NOFILTR   = 00000200
IFB$K_BLN        00000060            IFB$V_NORECLK  = 00000033            IO$M_NOFORMAT  = 00000100
IFB$K_BLN_IDX    00000060            IFB$V_NSP      = 0000003F            IO$M_NOW       = 00000040
IFB$K_BLN_REL    00000060            IFB$V_NWA      = 0000003C            IO$M_NOWAIT    = 00000080
IFB$K_BLN_SEQ    0000005C            IFB$V_ORG      = 00000004            IO$M_PACKED    = 00000080
IFB$K_FHAEND     00000050            IFB$V_PPF_IMAGE= 00000022            IO$M_PURGE     = 00000800
IFB$L_ARGLST     00000018            IFB$V_PPF_INPUT= 0000002E            IO$M_READATTN  = 00000080
IFB$L_ASBADDR    00000014            IFB$V_PUT      = 00000000            IO$M_REVERSE   = 00000040
IFB$L_AS_DEV     00000054            IFB$V_RFM      = 00000000            IO$M_SHUTDOWN  = 00000080
IFB$L_BDB_BLNK   00000034            IFB$V_RWC      = 00000027            IO$M_STARTUP   = 00000040
IFB$L_BDB_FLNK   00000030            IFB$V_RW_ATTR  = 00000034            IO$M_SYNCH     = 00000200
IFB$L_BKPBITS    00000004            IFB$V_SCF      = 0000002A            IO$M_TIMED     = 00000080
IFB$L_BWB        0000000C            IFB$V_SPL      = 00000029            IO$M_TRMNOECHO = 00001000
IFB$L_DVBN       00000058            IFB$V_SQO      = 0000002D            IO$M_WRTATTN   = 00000100
IFB$L_EBK        00000044            IFB$V_TEF      = 00000036            IO$S_FCODE     = 00000006
IFB$L_FRB_PTR    00000028            IFB$V_TMP      = 00000035            IO$V_ABORT     = 00000008
IFB$L_FWA_BDB    00000050            IFB$V_TRN      = 00000004            IO$V_ACCESS    = 00000006
IFB$L_HBK        00000040            IFB$V_UPD      = 00000003            IO$V_ATTNAST   = 00000008
IFB$L_IDX_PTR    00000054            IFB$V_WRTACC   = 00000030            IO$V_BINARY    = 00000006
RMS0DISPL       DISPATCH FOR DISPLAY OPERATION                   21-AUG-1978 22:01:00   VAX-11 MACRO X0.3-11               Page   9
SYMBOL TABLE                                                                                                                     (1)

IO$V_CANCTRLO  = 00000006            IO$_RECAL      = 00000003            XAB$C_FHCLEN     0000002C
IO$V_COMMOD    = 00000006            IO$_RELEASE    = 00000005            XAB$C_LBN      = 00000002
IO$V_CREATE    = 00000007            IO$_RETCENTER  = 00000007            XAB$C_PRO      = 00000013
IO$V_CTRLCAST  = 00000008            IO$_REWIND     = 00000024            XAB$C_PROLEN     00000010
IO$V_CTRLYAST  = 00000007            IO$_REWINDOFF  = 00000022            XAB$C_RDT      = 0000001E
IO$V_CVTLOW    = 00000008            IO$_SEARCH     = 00000009            XAB$C_RDTLEN     00000014
IO$V_DATACHECK = 0000000E            IO$_SEEK       = 00000002            XAB$C_RFI      = 00000004
IO$V_DELETE    = 00000008            IO$_SENSECHAR  = 0000001B            XAB$C_VBN      = 00000003
IO$V_DMOUNT    = 0000000A            IO$_SENSEMODE  = 00000027            XAB$K_ALLLEN     00000020
IO$V_DSABLMBX  = 0000000A            IO$_SETCHAR    = 0000001A            XAB$K_DATLEN     00000024
IO$V_ENABLMBX  = 00000007            IO$_SETMODE    = 00000023            XAB$K_FHCLEN     0000002C
IO$V_FCODE     = 00000000            IO$_SKIPFILE   = 00000025            XAB$K_PROLEN     00000010
IO$V_HANGUP    = 00000009            IO$_SKIPRECORD = 00000026            XAB$K_RDTLEN     00000014
IO$V_INHERLOG  = 0000000B            IO$_SPACEFILE  = 00000002            XAB$L_ALQ        00000010
IO$V_INHEXTGAP = 0000000C            IO$_SPACERECORD= 00000009            XAB$L_CDT0       00000014
IO$V_INHRETRY  = 0000000F            IO$_STARTSPNDL = 00000019            XAB$L_CDT4       00000018
IO$V_INHSEEK   = 0000000C            IO$_UNLOAD     = 00000001            XAB$L_EBK        00000010
IO$V_INTERRUPT = 00000006            IO$_VIRTUAL    = 0000003F            XAB$L_EDT0       0000001C
IO$V_INTSKIP   = 00000008            IO$_WRITECHECK = 0000000A            XAB$L_EDT4       00000020
IO$V_MOUNT     = 00000009            IO$_WRITECHECKH= 00000018            XAB$L_HBK        0000000C
IO$V_NOECHO    = 00000006            IO$_WRITEHEAD  = 0000000D            XAB$L_LOC        0000000C
IO$V_NOFILTR   = 00000009            IO$_WRITELBLK  = 00000020            XAB$L_NXT        00000004
IO$V_NOFORMAT  = 00000008            IO$_WRITEMARK  = 0000001C            XAB$L_RDT0       0000000C
IO$V_NOW       = 00000006            IO$_WRITEOF    = 00000028            XAB$L_RDT4       00000010
IO$V_NOWAIT    = 00000007            IO$_WRITEPBLK  = 0000000B            XAB$L_SBN        00000028
IO$V_PACKED    = 00000007            IO$_WRITETRACKD= 0000000F            XAB$L_UIC        0000000C
IO$V_PURGE     = 0000000B            IO$_WRITEVBLK  = 00000030            XAB$M_CBT      = 00000020
IO$V_READATTN  = 00000007            L$RMS00          00000000 R     04   XAB$M_CTG      = 00000080
IO$V_REVERSE   = 00000006            PIO$GL_FMLH      ********   X   02   XAB$M_HRD      = 00000001
IO$V_SHUTDOWN  = 00000007            RM$CHK_IDLE      ********   X   02   XAB$M_NODEL    = 00000008
IO$V_STARTUP   = 00000006            RM$ERRSUP        0000007F RG    02   XAB$M_NOEXE    = 00000004
IO$V_SYNCH     = 00000009            RM$EXRMS         ********   X   02   XAB$M_NOREAD   = 00000001
IO$V_TIMED     = 00000007            RM$FCPFNC_ALT5   ********   X   02   XAB$M_NOWRITE  = 00000002
IO$V_TRMNOECHO = 0000000C            RM$FSET          ********   X   02   XAB$M_ONC      = 00000002
IO$V_WRTATTN   = 00000008            RM$GETSPC1       ********   X   02   XAB$Q_CDT        00000014
IO$_ACCESS     = 00000032            RM$READ_ATTR     00000082 RG    02   XAB$Q_EDT        0000001C
IO$_ACPCONTROL = 00000038            RM$RETSPC1       ********   X   02   XAB$Q_RDT        0000000C
IO$_CREATE     = 00000033            RM$XAB_SCAN      ********   X   02   XAB$S_GRP      = 00000004
IO$_DEACCESS   = 00000034            RMS$DISPLAY    = 00000016 RG    02   XAB$S_OWN      = 00000004
IO$_DELETE     = 00000035            RMS$_SUP         ********   X   04   XAB$S_SYS      = 00000004
IO$_DIAGNOSE   = 0000001D            TPT$L_DISPLAY    ********   X   02   XAB$S_WLD      = 00000004
IO$_DRVCLR     = 00000004            XAB$B_AID        00000017            XAB$V_CBT      = 00000005
IO$_ERASETAPE  = 00000006            XAB$B_ALN        00000009            XAB$V_CTG      = 00000007
IO$_LOGICAL    = 0000002F            XAB$B_AOP        00000008            XAB$V_GRP      = 00000008
IO$_MODIFY     = 00000036            XAB$B_ATR        00000009            XAB$V_HRD      = 00000000
IO$_MOUNT      = 00000039            XAB$B_BKZ        00000016            XAB$V_NODEL    = 00000003
IO$_NOP        = 00000000            XAB$B_BLN        00000001            XAB$V_NOEXE    = 00000002
IO$_OFFSET     = 00000006            XAB$B_COD        00000000            XAB$V_NOREAD   = 00000000
IO$_PACKACK    = 00000008            XAB$B_HSZ        00000017            XAB$V_NOWRITE  = 00000001
IO$_PHYSICAL   = 0000001F            XAB$B_RFO        00000008            XAB$V_ONC      = 00000001
IO$_READHEAD   = 0000000E            XAB$C_ALL      = 00000014            XAB$V_OWN      = 00000004
IO$_READLBLK   = 00000021            XAB$C_ALLLEN     00000020            XAB$V_SYS      = 00000000
IO$_READPBLK   = 0000000C            XAB$C_ANY      = 00000000            XAB$V_WLD      = 0000000C
IO$_READPRESET = 00000019            XAB$C_CYL      = 00000001            XAB$W_DEQ        00000014
IO$_READPROMPT = 00000037            XAB$C_DAT      = 00000012            XAB$W_DXQ        0000001A
IO$_READTRACKD = 00000010            XAB$C_DATLEN     00000024            XAB$W_EBK0       00000010
IO$_READVBLK   = 00000031            XAB$C_FHC      = 0000001D            XAB$W_EBK2       00000012
RMS0DISPL       DISPATCH FOR DISPLAY OPERATION                   21-AUG-1978 22:01:00   VAX-11 MACRO X0.3-11               Page  10
SYMBOL TABLE                                                                                                                     (1)

XAB$W_FFB        00000014
XAB$W_GRP        0000000E
XAB$W_HBK0       0000000C
XAB$W_HBK2       0000000E
XAB$W_LRL        0000000A
XAB$W_MBM        0000000C
XAB$W_MRZ        00000018
XAB$W_PRO        00000008
XAB$W_RFI        00000018
XAB$W_RFI0       00000018
XAB$W_RFI2       0000001A
XAB$W_RFI4       0000001C
XAB$W_RVN        00000008
XAB$W_VOL        0000000A
XBC$C_DSPALL     ********   X   02
XBC$C_DSPALL1    ********   X   02
XBC$C_DSPFHC     ********   X   02
XBC$C_DSPFHC1    ********   X   02
XBC$C_OPNDAT     ********   X   02
XBC$C_OPNPRO     ********   X   02
XBC$C_OPNRDT     ********   X   02


PROGRAM SECTION SYNOPSIS

.  ABS  .        00000000      00     NOPIC   USR   CON   ABS   LCL NOSHR NOEXE NORD  NOWRT BYTE
. BLANK .        00000000      01     NOPIC   USR   CON   REL   LCL NOSHR   EXE   RD    WRT BYTE
F$RMSDISPLAY0    000000AA      02     NOPIC   USR   CON   REL   GBL NOSHR   EXE   RD  NOWRT BYTE
$ABS$            00000060      03     NOPIC   USR   CON   ABS   LCL NOSHR   EXE   RD    WRT BYTE
L$RMS0           0000000C      04     NOPIC   USR   CON   REL   GBL NOSHR   EXE   RD  NOWRT BYTE


THERE WERE NO ERRORS OR WARNINGS.
10532. BYTES LEFT IN FREE MEMORY POOL.
2860. BYTES OF RECLAIMED MEMORY.
OBJ$:RMS0DISPL,LIS$:RMS0DISPL/-SP=EXECML$/ML,LIB$:R/ML,SRC$:RMS0DISPL
27 MLB DIR RDS - 845 GETS TO DEFINE 29 MACROS. 65 INTER. FILE WRITES.
