RMS0REWIN       FILE REWIND OPERATION                            21-AUG-1978 22:09:55   VAX-11 MACRO X0.3-11               Page   0
TABLE OF CONTENTS

   (1)      42  DECLARATIONS
   (1)      69  RMS$REWIND  -  $REWIND FILE ROUTINE
RMS0REWIN       FILE REWIND OPERATION                            21-AUG-1978 22:09:55   VAX-11 MACRO X0.3-11               Page   1
007                                                                                                                              (1)

                                     0000     1 	$BEGIN	RMS0REWIN,007,F$RMSCLOSE0,<FILE REWIND OPERATION>
                                     0000     2
                                     0000     3
                                     0000     4 ;
                                     0000     5 ; COPYRIGHT (C) 1977, 1978
                                     0000     6 ; DIGITAL EQUIPMENT CORPORATION, MAYNARD, MASSACHUSETTS 01754
                                     0000     7 ;
                                     0000     8 ; THIS SOFTWARE IS FURNISHED  UNDER A LICENSE FOR USE ONLY ON A SINGLE
                                     0000     9 ; COMPUTER  SYSTEM AND  MAY BE  COPIED ONLY WITH  THE INCLUSION OF THE
                                     0000    10 ; ABOVE COPYRIGHT NOTICE.  THIS SOFTWARE, OR ANY OTHER COPIES THEREOF,
                                     0000    11 ; MAY NOT BE PROVIDED OR  OTHERWISE MADE AVAILABLE TO ANY OTHER PERSON
                                     0000    12 ; EXCEPT FOR USE ON SUCH SYSTEM AND TO ONE WHO AGREES TO THESE LICENSE
                                     0000    13 ; TERMS.  TITLE TO AND  OWNERSHIP OF THE  SOFTWARE  SHALL AT ALL TIMES
                                     0000    14 ; REMAIN IN DEC.
                                     0000    15 ;
                                     0000    16 ; THE INFORMATION IN THIS SOFTWARE IS SUBJECT TO CHANGE WITHOUT NOTICE
                                     0000    17 ; AND SHOULD  NOT BE CONSTRUED  AS A COMMITMENT  BY DIGITAL  EQUIPMENT
                                     0000    18 ; CORPORATION.
                                     0000    19 ;
                                     0000    20 ; DEC ASSUMES  NO  RESPONSIBILITY  FOR  THE USE OR  RELIABILITY OF ITS
                                     0000    21 ; SOFTWARE ON EQUIPMENT WHICH IS NOT SUPPLIED BY DEC.
                                     0000    22 ;
                                     0000    23 ;++
                                     0000    24 ; FACILITY: RMS32
                                     0000    25 ;
                                     0000    26 ; ABSTRACT:
                                     0000    27 ;		THIS ROUTINE IS THE HIGHEST LEVEL CONTROL
                                     0000    28 ;		ROUTINE TO PERFORM THE $REWIND FUNCTION.
                                     0000    29 ;
                                     0000    30 ; ENVIRONMENT:
                                     0000    31 ;		STAR PROCESSOR RUNNING STARLET EXEC.
                                     0000    32 ;
                                     0000    33 ; AUTHOR: L F LAVERDURE,	 CREATION DATE: 24-OCT-77
                                     0000    34 ;
                                     0000    35 ; MODIFIED BY:
                                     0000    36 ;
                                     0000    37 ;	L F LAVERDURE,   13-JUN-78  17:14
                                     0000    38 ;	J A KRYCKA,	 28-JUL-78  13:00
                                     0000    39 ; 01	-
                                     0000    40 ;--
RMS0REWIN       FILE REWIND OPERATION                            21-AUG-1978 22:09:55   VAX-11 MACRO X0.3-11               Page   2
007             DECLARATIONS                                                                                                     (1)

                                     0000    42 	.SBTTL	DECLARATIONS
                                     0000    43 ;
                                     0000    44 ; INCLUDE FILES:
                                     0000    45 ;
                                     0000    46
                                     0000    47 ;
                                     0000    48 ; MACROS:
                                     0000    49 ;
                                     0000    50 	$DEVDEF
                                     0000    51 	$IFBDEF
                                     0000    52 	$IRBDEF
                                     0000    53 	$RMSDEF
                                     0000    54 	.LIST MEB
                                     0000    55 ;
                                     0000    56 ; EQUATED SYMBOLS:
                                     0000    57 ;
                           00000020  0000    58 	BKP=IRB$L_BKPBITS*8		;BIT OFFSET TO BOOKKEEPING BITS
                                     0000    59 	BKPMASK=^C<<1@<IRB$V_BUSY-BKP>>!-
                                     0000    60 		   <1@<IRB$V_ASYNC-BKP>>!-
                                     0000    61 		   <1@<IRB$V_ASYNCWAIT-BKP>>!-
                           FFFFFBE6  0000    62 		   <1@<IRB$V_RAHWBH-BKP>>>	;MASK TO RESET BITS
                                     0000    63
                                     0000    64 ;
                                     0000    65 ; OWN STORAGE:
                                     0000    66 ;
                                     0000    67
RMS0REWIN       FILE REWIND OPERATION                            21-AUG-1978 22:09:55   VAX-11 MACRO X0.3-11               Page   3
007             RMS$REWIND  -  $REWIND FILE ROUTINE                                                                              (1)

                                     0000    69 	.SBTTL	RMS$REWIND  -  $REWIND FILE ROUTINE
                                     0000    70 ;++
                                     0000    71 ; FUNCTIONAL DESCRIPTION:
                                     0000    72 ;
                                     0000    73 ; THIS ROUTINE PERFORMS COMMON RAB FUNCTION SETUP FOLLOWED BY AN
                                     0000    74 ; IMPLICIT $FREE AND $FLUSH AND THEN BY DISPATCH TO ORGANIZATION-DEPENDENT
                                     0000    75 ; $REWIND CODE
                                     0000    76 ;
                                     0000    77 ; CALLING SEQUENCE:
                                     0000    78 ;
                                     0000    79 ;	ENTERED FROM EXEC AS A RESULT OF USER'S CALLING SYS$REWIND
                                     0000    80 ;	(E.G., BY USING THE $REWIND MACRO)
                                     0000    81 ;
                                     0000    82 ; INPUT PARAMETERS:
                                     0000    83 ;
                                     0000    84 ;	AP	USER'S ARGUMENT LIST ADDR
                                     0000    85 ;
                                     0000    86 ; IMPLICIT INPUTS:
                                     0000    87 ;
                                     0000    88 ;	THE CONTENTS OF THE RAB AND RELATED IRAB AND IFAB.
                                     0000    89 ;
                                     0000    90 ; OUTPUT PARAMETERS:
                                     0000    91 ;
                                     0000    92 ;	R1	DESTROYED
                                     0000    93 ;	R0	STATUS CODE
                                     0000    94 ;
                                     0000    95 ; IMPLICIT OUTPUTS:
                                     0000    96 ;
                                     0000    97 ;	ALL LOCKED RECORDS FOR THE STREAM ARE FREED, AND THE STREAM IS
                                     0000    98 ;	REPOSITIONED AT THE START OF THE FILE.  THE FILE ATTRIBUTES ARE ALSO
                                     0000    99 ;	REWRITTEN.
                                     0000   100 ;	FOR THE SEQUENTIAL ORG., ALL BDB'S AND BUFFERS ARE RELEASED.
                                     0000   101 ;	RAB$L_STS AND RAB$L_STV REFLECT THE STATUS OF THE REWIND.
                                     0000   102 ;
                                     0000   103 ;	A COMPLETION AST IS QUEUED IF SPECIFIED IN THE USER ARGLIST.
                                     0000   104 ;
                                     0000   105 ; COMPLETION CODES:
                                     0000   106 ;
                                     0000   107 ;	STANDARD RMS (SEE FUNCTIONAL SPEC FOR LIST).
                                     0000   108 ;
                                     0000   109 ; SIDE EFFECTS:
                                     0000   110 ;
                                     0000   111 ;	NONE
                                     0000   112 ;
                                     0000   113 ;--
RMS0REWIN       FILE REWIND OPERATION                            21-AUG-1978 22:09:55   VAX-11 MACRO X0.3-11               Page   4
007             RMS$REWIND  -  $REWIND FILE ROUTINE                                                                              (1)

                                     0000   115 	$ENTRY	RMS$REWIND
                                 00000000       	.PSECT	F$RMSCLOSE0,GBL,NOWRT
                                     0000   116 	$TSTPT	REWIND
                 00000200'9F     D6  0000       		INCL	@#PIO$GL_FMLH+512+TPT$L_REWIND
                                     0006   117 	$RABSET			;DO COMMON SETUP WITH NO SPECIFIC CHECKS
                          FFF7'  30  0006       		BSBW	RM$RSET
                                 00  0009       		.BYTE	<0 @ 5>!<0 @ 4>!<0 @ 3>!0
                                     000A   118 				; RETURNS TO USER ON ERROR
            6A            3E     E0  000A   119 	BBS	#IFB$V_DAP,(R10),NTRWND		; BRANCH IF NETWORK OPERATION
                          51         000D
            6A            2D     E1  000E   120 	BBC	#IFB$V_SQO,(R10),5$		; BRANCH IF SQO OFF
                          04         0011
            69            22     E0  0012   121 	BBS	#IRB$V_PPF_IMAGE,(R9),ERRIOP	; BRANCH IF INDIRECT PPF
                          4C         0015
            6A            0E     E1  0016   122 5$:	BBC	#DEV$V_FOD,IFB$L_PRIM_DEV(R10),ERRIOP	; OR IF UNIT REC DEVICE
                          48         0019
            6A            33     E0  001A   123 	BBS	#IFB$V_NORECLK,(R10),10$	; OMIT RECORD UNLOCK IF NO LOCKING
                          03         001D
                          FFDF'  30  001E   124 	BSBW	RM$UNLOCKALL			; FREE ANY LOCKED RECORDS
                                     0021   125 						; (IGNORE POSSIBLE ERROR)
                                     0021   126 10$:
                                     0021   127 ;
                                     0021   128 ; DISPATCH TO ORG-DEPENDENT CODE
                                     0021   129 ;
                                     0021   130 	CASE	TYPE=B, SRC=IFB$B_ORGCASE(R10),-	;AND DISPATCH
                                     0021   131 		DISPLIST=<RWSEQ,RWREL>
            00         23 AA     8F  0021       	CASEB	IFB$B_ORGCASE(R10),#0,S^#<<30001$-30000$>/2>-1
                          01'        0025
                                     0026       30000$:
                               0004' 0026       	.WORD	RWSEQ-30000$
                               001E' 0028       	.WORD	RWREL-30000$
                                     002A       30001$:
                                     002A   132 ;
                                     002A   133 ;  INDEX FILE REWIND FALLS THRU
                                     002A   134 ;  !!!!! CODE MISSING !!!!!
                                     002A   135 ;
                                     002A   136 ;****************************************************************************
                                     002A   137 ;
                                     002A   138 ;  SEQUENTIAL FILE ORG REWIND
                                     002A   139 ;
                                     002A   140 ;****************************************************************************
                          FFD3'  30  002A   141 RWSEQ:	BSBW	RM$FLUSH			; WRITE AND RELEASE ANY BDBS
                                     002D   142 						; REWRITING FILE ATTRIBUTES
            2C            50     E9  002D   143 	BLBC	R0,EXIT				; GET OUT ON ERROR
                       42 A9     B4  0030   144 	CLRW	IRB$W_CSIZ(R9)			; RESET TO NO CURRENT RECORD
            6A            05     E1  0033   145 	BBC	#DEV$V_SQD,IFB$L_PRIM_DEV(R10),RWREL	; BRANCH IF NOT MAGTAPE
                          0D         0036
                                     0037   146 ;
                                     0037   147 ;  MAGTAPE SUPPORT
                                     0037   148 ;
         44 AA            01     CE  0037   149 	MNEGL	#1,IFB$L_EBK(R10)		; SET EOF BLOCK TO MAX VALUE
                       48 AA     B4  003B   150 	CLRW	IFB$W_FFB(R10)			; RESET EOF OFFSET
                          FFBF'  30  003E   151 	BSBW	RM$REWIND_MT			; DO REWIND
            18            50     E9  0041   152 	BLBC	R0,EXIT				; GET OUT ON ERROR
                                     0044   153 						; ELSE FALL THRU
                                     0044   154 ;***************************************************************************
                                     0044   155 ;
RMS0REWIN       FILE REWIND OPERATION                            21-AUG-1978 22:09:55   VAX-11 MACRO X0.3-11               Page   5
007             RMS$REWIND  -  $REWIND FILE ROUTINE                                                                              (1)

                                     0044   156 ;  RELATIVE FILE ORG REWIND
                                     0044   157 ;
                                     0044   158 ;***************************************************************************
                                     0044   159 	ASSUME	 IRB$L_NRP_OFF EQ IRB$L_NRP_VBN+4
                       2C A9     7C  0044   160 RWREL:	CLRQ	IRB$L_NRP_VBN(R9)		; RESET NRP
            6A            18     E0  0047   161 	BBS	#DEV$V_FOR,IFB$L_PRIM_DEV(R10),10$	; BRANCH IF NON-FILE-STRUC.
                          03         004A
                       2C A9     96  004B   162 	INCB	IRB$L_NRP_VBN(R9)		; NRP = VBN 1
                                     004E   163 10$:
                                     004E   164 	ASSUME	IRB$L_RP_OFF EQ IRB$L_RP_VBN+4
                       34 A9     7C  004E   165 	CLRQ	IRB$L_RP_VBN(R9)
                                     0051   166 ;
                                     0051   167 ;  CLEAR ALL IRAB BOOKKEEPING BITS EXCEPT BUSY, ASYNC, AND ASYNCWAIT
                                     0051   168 ;
         04 A9   FFFFFBE6 8F     CA  0051   169 DONE:	BICL	#BKPMASK,IRB$L_BKPBITS(R9)
                                     0059   170 	RMSSUC
            50            01     D0  0059       		MOVL	#1,R0
                          FFA1'  31  005C   171 EXIT:	BRW	RM$EXRMS			; RETURN TO CALLER
                                     005F   172 ;++
                                     005F   173 ;
                                     005F   174 ;  PERFORM NETWORK REWIND FUNCTION
                                     005F   175 ;
                                     005F   176 ;--
                                     005F   177 NTRWND:	$PSECT_BR	NF$NETWORK
                          FF9E'  31  005F       		BRW	NF$NETWORK0
                                     0062       		.SAVE
                                 00000000       		.PSECT	NF$NETWORK,GBL,NOWRT
                                     0000       NF$NETWORK0:
                          FFFD'  30  0000   178 	BSBW	NT$REWIND			; REWIND THE FILE
            03            50     E9  0003   179 	BLBC	R0,10$				; BRANCH ON ERROR
                          0048'  31  0006   180 	BRW	DONE				; REJOIN MAINLINE
                          FFF4'  31  0009   181 10$:	BRW	RM$EXRMS			; RETURN TO CALLER
                                     000C   182 	$PSECT_RESTORE
                                 00000062       		.RESTORE
                                     0062   183 ;
                                     0062   184 ;
                                     0062   185 ;  HANDLE ERROR
                                     0062   186 ;
                                     0062   187 ERRIOP:	$PSECT_BR	L$RMS0
                          FF9B'  31  0062       		BRW	L$RMS01
                                     0065       		.SAVE
                                 00000000       		.PSECT	L$RMS0,GBL,NOWRT
                                     0000       L$RMS01:
                                     0000   188 	RMSERR	IOP				; CAN'T REWIND UNIT REC DEV. OR
            50       8574 8F     3C  0000       		MOVZWL	#<RMS$_IOP&^XFFFF>,R0
                                     0005   189 						; PROCESS PERM. FILE IF INDIRECTLY
                                     0005   190 						; CONNECTED
                          FFF8'  31  0005   191 	BRW	RM$EXRMS
                                     0008   192 	$PSECT_RESTORE
                                 00000065       		.RESTORE
                                     0065   193 	.END
RMS0REWIN       FILE REWIND OPERATION                            21-AUG-1978 22:09:55   VAX-11 MACRO X0.3-11               Page   6
SYMBOL TABLE                                                                                                                     (1)

$$.PSECT_EP    = 00000002            DEV$V_WCK      = 0000001F            IFB$L_NWA_PTR    00000028
$$RMSTEST      = 0000001A            DONE             00000051 R     02   IFB$L_PRIM_DEV   00000000
$$RMS_PBUGCHK  = 00000010            ERRIOP           00000062 R     02   IFB$L_RLB_LNK    0000002C
$$RMS_TBUGCHK  = 00000008            EXIT             0000005C R     02   IFB$L_RNS_LEN    00000050
$$RMS_UMODE    = 00000004            GBL...         = 00000000            IFB$M_BIO      = 00000020
BIT...         = 0001C134            IFB$B_AMAX       00000059            IFB$M_BRO      = 00000040
BKP            = 00000020            IFB$B_AVBN       00000058            IFB$M_DEL      = 00000004
BKPMASK        = FFFFFBE6            IFB$B_BID        00000008            IFB$M_EXE      = 00000080
DEV$M_ALL      = 00800000            IFB$B_BKS        0000004A            IFB$M_GET      = 00000002
DEV$M_AVL      = 00040000            IFB$B_BLN        00000009            IFB$M_PUT      = 00000001
DEV$M_CCL      = 00000002            IFB$B_EFN        0000000B            IFB$M_TRN      = 00000010
DEV$M_DIR      = 00000008            IFB$B_EXTRABUF   0000005D            IFB$M_UPD      = 00000008
DEV$M_DMT      = 00200000            IFB$B_FAC        00000022            IFB$S_ORG      = 00000004
DEV$M_ELG      = 00400000            IFB$B_FSZ        0000004B            IFB$S_RFM      = 00000004
DEV$M_FOD      = 00004000            IFB$B_KBUFSZ     0000005C            IFB$V_ACCESSED = 00000025
DEV$M_FOR      = 01000000            IFB$B_MODE       0000000A            IFB$V_ANSI_D   = 00000026
DEV$M_GEN      = 00020000            IFB$B_NUM_KEYS   0000005A            IFB$V_ASYNC    = 00000023
DEV$M_IDV      = 04000000            IFB$B_ORGCASE    00000023            IFB$V_ASYNCWAIT= 00000024
DEV$M_MBX      = 00100000            IFB$B_RAT        0000003D            IFB$V_BIO      = 00000005
DEV$M_MNT      = 00080000            IFB$B_RFMORG     0000003C            IFB$V_BRO      = 00000006
DEV$M_NET      = 00002000            IFB$B_UBUFSZ     0000005B            IFB$V_BUSY     = 00000020
DEV$M_ODV      = 08000000            IFB$C_BID      = 0000000B            IFB$V_CREATE   = 00000032
DEV$M_RCK      = 40000000            IFB$C_BLN        00000060            IFB$V_DAP      = 0000003E
DEV$M_REC      = 00000001            IFB$C_BLN_IDX    00000060            IFB$V_DAP_OPEN = 0000003D
DEV$M_RND      = 10000000            IFB$C_BLN_REL    00000060            IFB$V_DEL      = 00000002
DEV$M_RTM      = 20000000            IFB$C_BLN_SEQ    0000005C            IFB$V_DFW      = 0000002C
DEV$M_SDI      = 00000010            IFB$C_DIR      = 00000003            IFB$V_DLT      = 0000002B
DEV$M_SHR      = 00010000            IFB$C_FHAEND     00000050            IFB$V_DMO      = 00000028
DEV$M_SPL      = 00000040            IFB$C_IDX      = 00000002            IFB$V_EOF      = 00000021
DEV$M_SQD      = 00000020            IFB$C_MAXORG   = 00000002            IFB$V_EXE      = 00000007
DEV$M_SWL      = 02000000            IFB$C_REL      = 00000001            IFB$V_GET      = 00000001
DEV$M_TRM      = 00000004            IFB$C_SEQ      = 00000000            IFB$V_MSE      = 00000031
DEV$M_WCK      = 80000000            IFB$K_BLN        00000060            IFB$V_NORECLK  = 00000033
DEV$V_ALL      = 00000017            IFB$K_BLN_IDX    00000060            IFB$V_NSP      = 0000003F
DEV$V_AVL      = 00000012            IFB$K_BLN_REL    00000060            IFB$V_NWA      = 0000003C
DEV$V_CCL      = 00000001            IFB$K_BLN_SEQ    0000005C            IFB$V_ORG      = 00000004
DEV$V_DIR      = 00000003            IFB$K_FHAEND     00000050            IFB$V_PPF_IMAGE= 00000022
DEV$V_DMT      = 00000015            IFB$L_ARGLST     00000018            IFB$V_PPF_INPUT= 0000002E
DEV$V_ELG      = 00000016            IFB$L_ASBADDR    00000014            IFB$V_PUT      = 00000000
DEV$V_FOD      = 0000000E            IFB$L_AS_DEV     00000054            IFB$V_RFM      = 00000000
DEV$V_FOR      = 00000018            IFB$L_BDB_BLNK   00000034            IFB$V_RWC      = 00000027
DEV$V_GEN      = 00000011            IFB$L_BDB_FLNK   00000030            IFB$V_RW_ATTR  = 00000034
DEV$V_IDV      = 0000001A            IFB$L_BKPBITS    00000004            IFB$V_SCF      = 0000002A
DEV$V_MBX      = 00000014            IFB$L_BWB        0000000C            IFB$V_SPL      = 00000029
DEV$V_MNT      = 00000013            IFB$L_DVBN       00000058            IFB$V_SQO      = 0000002D
DEV$V_NET      = 0000000D            IFB$L_EBK        00000044            IFB$V_TEF      = 00000036
DEV$V_ODV      = 0000001B            IFB$L_FRB_PTR    00000028            IFB$V_TMP      = 00000035
DEV$V_RCK      = 0000001E            IFB$L_FWA_BDB    00000050            IFB$V_TRN      = 00000004
DEV$V_REC      = 00000000            IFB$L_HBK        00000040            IFB$V_UPD      = 00000003
DEV$V_RND      = 0000001C            IFB$L_IDX_PTR    00000054            IFB$V_WRTACC   = 00000030
DEV$V_RTM      = 0000001D            IFB$L_IOS        0000000C            IFB$W_ASDEVBSIZ  0000005A
DEV$V_SDI      = 00000004            IFB$L_IOS4       00000010            IFB$W_BKS_BYTES  0000005C
DEV$V_SHR      = 00000010            IFB$L_IRAB_LNK   0000001C            IFB$W_BKS_RECS   0000005E
DEV$V_SPL      = 00000006            IFB$L_LAST_FAB   00000024            IFB$W_CHNL       00000020
DEV$V_SQD      = 00000005            IFB$L_LOCK_BDB   00000050            IFB$W_DEQ        0000004E
DEV$V_SWL      = 00000019            IFB$L_MRN        00000054            IFB$W_DEVBUFSIZ  00000038
DEV$V_TRM      = 00000002            IFB$L_NRP_LNK    00000050            IFB$W_EBK0       00000044
RMS0REWIN       FILE REWIND OPERATION                            21-AUG-1978 22:09:55   VAX-11 MACRO X0.3-11               Page   7
SYMBOL TABLE                                                                                                                     (1)

IFB$W_EBK2       00000046            IRB$L_TEMP1      00000048            RMS$_ATW       = 0001C0D4
IFB$W_FFB        00000048            IRB$V_ASYNC    = 00000023            RMS$_BKS       = 0001841C
IFB$W_IOS2       0000000E            IRB$V_ASYNCWAIT= 00000024            RMS$_BKZ       = 00018424
IFB$W_LRL        0000003E            IRB$V_BIO_LAST = 00000027            RMS$_BLN       = 0001842C
IFB$W_MRS        0000004C            IRB$V_BRO_SW   = 00000028            RMS$_BOF       = 00018198
IFB$W_RTDEQ      0000003A            IRB$V_BUSY     = 00000020            RMS$_BUG       = 00018434
IRB$B_BCNT       00000040            IRB$V_DAP_CONN = 0000003E            RMS$_BUG_DAP   = 00018444
IRB$B_BID        00000008            IRB$V_DAP_FMODE= 0000003F            RMS$_BUG_DDI   = 0001843C
IRB$B_BLN        00000009            IRB$V_DUP      = 0000002C            RMS$_BUG_XX2   = 0001844C
IRB$B_EFN        0000000B            IRB$V_EOF      = 00000021            RMS$_BUG_XX3   = 00018454
IRB$B_KEYSZ      00000051            IRB$V_FIND     = 00000029            RMS$_BUG_XX4   = 0001845C
IRB$B_MBC        00000041            IRB$V_FIND_LAST= 00000025            RMS$_BUG_XX5   = 00018464
IRB$B_MODE       0000000A            IRB$V_IDX_ERR  = 00000031            RMS$_BUG_XX6   = 0001846C
IRB$B_NRP_ID     00000030            IRB$V_LOCKABOVE= 00000002            RMS$_BUG_XX7   = 00018474
IRB$B_NRP_KREF   00000031            IRB$V_NEW_IDX  = 00000003            RMS$_BUG_XX8   = 0001847C
IRB$B_NVBNS      00000048            IRB$V_POSINSERT= 00000000            RMS$_BUG_XX9   = 00018484
IRB$B_POST_CCTL  00000045            IRB$V_PPF_EOF  = 0000002E            RMS$_CAA       = 0001848C
IRB$B_PPF_ISI    0000003E            IRB$V_PPF_FNDSV= 00000030            RMS$_CCF       = 0001C0DC
IRB$B_PRE_CCTL   00000044            IRB$V_PPF_IMAGE= 00000022            RMS$_CCR       = 00018494
IRB$B_RFA_ID     00000058            IRB$V_PPF_SKIP = 0000002F            RMS$_CDA       = 0001C0E4
IRB$B_RP_ID      00000038            IRB$V_PUTS_LAST= 00000026            RMS$_CHG       = 0001849C
IRB$B_RP_KREF    00000039            IRB$V_RAHWBH   = 0000002A            RMS$_CHK       = 000184A4
IRB$B_RRV_ID     00000050            IRB$V_SKIP_NEXT= 0000002B            RMS$_CHN       = 0001C0EC
IRB$B_SRCHFLAGS  00000043            IRB$V_SRCHGT   = 00000001            RMS$_COD       = 000184AC
IRB$B_STOPLEVEL  00000042            IRB$V_UNLOCK_RP= 0000002D            RMS$_CONTROLC  = 00010651
IRB$C_BID      = 0000000A            IRB$V_WRITE    = 00000029            RMS$_CONTROLO  = 00010609
IRB$C_BLN_IDX    0000006C            IRB$W_CSIZ       00000042            RMS$_CONTROLY  = 00010611
IRB$C_BLN_REL    00000048            IRB$W_DUP_POS    00000032            RMS$_CRE       = 0001C00A
IRB$C_BLN_SEQ    0000004C            IRB$W_IOS2       0000000E            RMS$_CREATED   = 00010619
IRB$K_BLN_IDX    0000006C            IRB$W_NRP_OFF    00000030            RMS$_CUR       = 000184B4
IRB$K_BLN_REL    00000048            IRB$W_OWN_ID     0000003C            RMS$_DAC       = 0001C012
IRB$K_BLN_SEQ    0000004C            IRB$W_OWN_ISI    0000003E            RMS$_DAN       = 000184BC
IRB$L_ARGLST     00000018            IRB$W_ROVHDSZ    00000044            RMS$_DEL       = 00018262
IRB$L_ASBADDR    00000014            IRB$W_RP_OFF     00000038            RMS$_DEV       = 000184C4
IRB$L_BKPBITS    00000004            IRB$W_RTOTLSZ    00000046            RMS$_DIR       = 000184CC
IRB$L_BWB        0000000C            IRB$W_SAVE_POS   00000052            RMS$_DME       = 000184D4
IRB$L_CURBDB     00000020            L$RMS01          00000000 R     05   RMS$_DNA       = 000184DC
IRB$L_CURVBN     00000030            NF$NETWORK0      00000000 R     04   RMS$_DNF       = 0001C04A
IRB$L_IFAB_LNK   00000000            NT$REWIND        ********   X   04   RMS$_DNR       = 00018272
IRB$L_IOS        0000000C            NTRWND           0000005F R     02   RMS$_DPE       = 0001C03A
IRB$L_IOS4       00000010            PIO$GL_FMLH      ********   X   02   RMS$_DTP       = 000184E4
IRB$L_IRAB_LNK   0000001C            RM$EXRMS         ********   X   02   RMS$_DUP       = 000184EC
IRB$L_KEYBUF     00000048            RM$FLUSH         ********   X   02   RMS$_DVI       = 000184F4
IRB$L_LAST_RAB   00000024            RM$REWIND_MT     ********   X   02   RMS$_ENT       = 0001C01A
IRB$L_LOCK_BDB   0000005C            RM$RSET          ********   X   02   RMS$_ENV       = 00018724
IRB$L_NRP        0000002C            RM$UNLOCKALL     ********   X   02   RMS$_EOF       = 0001827A
IRB$L_NRP_OFF    00000030            RMS$REWIND     = FFFFFFFE RG    02   RMS$_ESA       = 000184FC
IRB$L_NRP_VBN    0000002C            RMS$V_STVSTATUS= 0000000E            RMS$_ESL       = 00018714
IRB$L_NXTBDB     00000028            RMS$_ABO       = 000183EC            RMS$_ESS       = 00018504
IRB$L_OWNER_ID   0000003C            RMS$_ACC       = 0001C002            RMS$_EXP       = 000182C2
IRB$L_RFA_VBN    00000054            RMS$_ACT       = 0001825A            RMS$_EXT       = 0001C022
IRB$L_RLB_ADDR   00000044            RMS$_AID       = 000183F4            RMS$_FAB       = 0001850C
IRB$L_RP         00000034            RMS$_ALN       = 000183FC            RMS$_FAC       = 00018514
IRB$L_RP_OFF     00000038            RMS$_ALQ       = 00018404            RMS$_FEX       = 00018282
IRB$L_RP_VBN     00000034            RMS$_ANI       = 0001840C            RMS$_FLG       = 0001851C
IRB$L_RRV_VBN    0000004C            RMS$_AOP       = 00018414            RMS$_FLK       = 0001828A
IRB$L_TEMP0      00000044            RMS$_ATR       = 0001C0CC            RMS$_FNA       = 00018524
RMS0REWIN       FILE REWIND OPERATION                            21-AUG-1978 22:09:55   VAX-11 MACRO X0.3-11               Page   8
SYMBOL TABLE                                                                                                                     (1)

RMS$_FND       = 0001C02A            RMS$_RAT       = 0001864C
RMS$_FNF       = 00018292            RMS$_RBF       = 00018654
RMS$_FNM       = 0001852C            RMS$_RER       = 0001C0F4
RMS$_FOP       = 0001853C            RMS$_REX       = 000182A2
RMS$_FSZ       = 00018534            RMS$_RFA       = 0001865C
RMS$_FUL       = 00018544            RMS$_RFM       = 00018664
RMS$_IAL       = 0001854C            RMS$_RHB       = 0001866C
RMS$_IAN       = 00018554            RMS$_RLF       = 00018674
RMS$_IBF       = 00018754            RMS$_RLK       = 000182AA
RMS$_IDX       = 0001855C            RMS$_RMV       = 0001C0FC
RMS$_IFA       = 0001C124            RMS$_RNF       = 000182B2
RMS$_IFI       = 00018564            RMS$_RNL       = 000181A0
RMS$_IMX       = 0001856C            RMS$_ROP       = 0001867C
RMS$_IOP       = 00018574            RMS$_RPL       = 0001C104
RMS$_IRC       = 0001857C            RMS$_RRV       = 00018684
RMS$_ISI       = 00018584            RMS$_RSA       = 000182DA
RMS$_KBF       = 0001858C            RMS$_RSL       = 0001873C
RMS$_KEY       = 00018594            RMS$_RSS       = 00018694
RMS$_KFF       = 00018031            RMS$_RST       = 0001869C
RMS$_KRF       = 0001859C            RMS$_RSZ       = 000186A4
RMS$_KSZ       = 000185A4            RMS$_RTB       = 000181A8
RMS$_LAN       = 000185AC            RMS$_SEQ       = 000186AC
RMS$_LBL       = 000185B4            RMS$_SHR       = 000186B4
RMS$_LNE       = 000185BC            RMS$_SIZ       = 000186BC
RMS$_LOC       = 000185C4            RMS$_SPL       = 0001C042
RMS$_MBC       = 00018734            RMS$_SQO       = 000186C4
RMS$_MKD       = 0001C032            RMS$_STALL     = 00018001
RMS$_MRN       = 000185CC            RMS$_STK       = 000186CC
RMS$_MRS       = 000185D4            RMS$_SUC       = 00010001
RMS$_NAM       = 000185DC            RMS$_SUP       = 000182D2
RMS$_NEF       = 000185E4            RMS$_SUPERSEDE = 00010631
RMS$_NET       = 0001874C            RMS$_SYN       = 000186D4
RMS$_NID       = 000185EC            RMS$_SYS       = 0001C10C
RMS$_NMF       = 000182CA            RMS$_TEMP1     = 0001826A
RMS$_NOD       = 000185F4            RMS$_TEMP2     = 0001868C
RMS$_NORMAL    = 00010001            RMS$_TMO       = 000181B0
RMS$_NPK       = 000185FC            RMS$_TRE       = 000186DC
RMS$_OK_ALK    = 00018039            RMS$_TYP       = 000186E4
RMS$_OK_DEL    = 00018041            RMS$_UBF       = 000186EC
RMS$_OK_DUP    = 00018011            RMS$_USZ       = 000186F4
RMS$_OK_IDX    = 00018019            RMS$_VER       = 000186FC
RMS$_OK_LIM    = 00018051            RMS$_VOL       = 00018704
RMS$_OK_RLK    = 00018021            RMS$_WBE       = 0001C12C
RMS$_OK_RNF    = 00018049            RMS$_WER       = 0001C114
RMS$_OK_RRV    = 00018029            RMS$_WLD       = 00018744
RMS$_ORD       = 00018604            RMS$_WLK       = 000182BA
RMS$_ORG       = 0001860C            RMS$_WPL       = 0001C11C
RMS$_PBF       = 00018614            RMS$_WSF       = 0001871C
RMS$_PENDING   = 00018009            RMS$_XAB       = 0001870C
RMS$_PLG       = 0001861C            RWREL            00000044 R     02
RMS$_PLV       = 0001872C            RWSEQ            0000002A R     02
RMS$_POS       = 00018624            TPT$L_REWIND     ********   X   02
RMS$_PRM       = 0001862C
RMS$_PRV       = 0001829A
RMS$_QUO       = 00018634
RMS$_RAB       = 0001863C
RMS$_RAC       = 00018644
RMS0REWIN       FILE REWIND OPERATION                            21-AUG-1978 22:09:55   VAX-11 MACRO X0.3-11               Page   9
PROGRAM SECTION SYNOPSIS                                                                                                         (1)


PROGRAM SECTION SYNOPSIS

.  ABS  .        00000000      00     NOPIC   USR   CON   ABS   LCL NOSHR NOEXE NORD  NOWRT BYTE
. BLANK .        00000000      01     NOPIC   USR   CON   REL   LCL NOSHR   EXE   RD    WRT BYTE
F$RMSCLOSE0      00000065      02     NOPIC   USR   CON   REL   GBL NOSHR   EXE   RD  NOWRT BYTE
$ABS$            0000006C      03     NOPIC   USR   CON   ABS   LCL NOSHR   EXE   RD    WRT BYTE
NF$NETWORK       0000000C      04     NOPIC   USR   CON   REL   GBL NOSHR   EXE   RD  NOWRT BYTE
L$RMS0           00000008      05     NOPIC   USR   CON   REL   GBL NOSHR   EXE   RD  NOWRT BYTE


THERE WERE NO ERRORS OR WARNINGS.
12390. BYTES LEFT IN FREE MEMORY POOL.
3102. BYTES OF RECLAIMED MEMORY.
OBJ$:RMS0REWIN,LIS$:RMS0REWIN/-SP=EXECML$/ML,LIB$:R/ML,SRC$:RMS0REWIN
29 MLB DIR RDS - 832 GETS TO DEFINE 25 MACROS. 55 INTER. FILE WRITES.
