RMSGBL                                                           21-AUG-1978 22:14:39   VAX-11 MACRO X0.3-11               Page   1
                                                                                                                                 (1)

                                     0000     1 	.TITLE	RMSGBL
                                     0000     2 	$RMSDEF	GLOBAL
                                     0000     3 	$FABDEF	GLOBAL
                                     0000     4 	$RABDEF	GLOBAL
                                     0000     5 	$NAMDEF	GLOBAL
                                     0000     6 	$XABDEF	GLOBAL
                                     0000     7 	$XABALLDEF	GLOBAL
                                     0000     8 	$XABDATDEF	GLOBAL
                                     0000     9 	$XABFHCDEF	GLOBAL
                                     0000    10 	$XABPRODEF	GLOBAL
                                     0000    11 	$XABRDTDEF	GLOBAL
                                     0000    12 	$XABTRMDEF	GLOBAL
                                     0000    13 	.END
RMSGBL                                                           21-AUG-1978 22:14:39   VAX-11 MACRO X0.3-11               Page   2
SYMBOL TABLE                                                                                                                     (1)

BIT...         = 00000001            FAB$M_MSE      = 00000010  G         FAB$V_NFS      = 00000010  G
FAB$B_BID        00000000  G         FAB$M_MXV      = 00000002  G         FAB$V_NIL      = 00000005  G
FAB$B_BKS        0000003E  G         FAB$M_NAM      = 01000000  G         FAB$V_OFP      = 0000001D  G
FAB$B_BLN        00000001  G         FAB$M_NEF      = 00000400  G         FAB$V_ORG      = 00000004  G
FAB$B_DNS        00000035  G         FAB$M_NFS      = 00010000  G         FAB$V_POS      = 00000008  G
FAB$B_FAC        00000016  G         FAB$M_NIL      = 00000020  G         FAB$V_PPF      = 00000012  G
FAB$B_FNS        00000034  G         FAB$M_OFP      = 20000000  G         FAB$V_PPF_IND  = 0000000E  G
FAB$B_FSZ        0000003F  G         FAB$M_POS      = 00000100  G         FAB$V_PPF_RAT  = 00000006  G
FAB$B_ORG        0000001D  G         FAB$M_PPF      = 00040000  G         FAB$V_PRN      = 00000002  G
FAB$B_RAT        0000001E  G         FAB$M_PPF_IND  = 00004000  G         FAB$V_PUT      = 00000000  G
FAB$B_RFM        0000001F  G         FAB$M_PPF_RAT  = 00003FC0  G         FAB$V_RCK      = 00000017  G
FAB$B_RTV        0000001C  G         FAB$M_PRN      = 00000004  G         FAB$V_RWC      = 0000000B  G
FAB$B_SHR        00000017  G         FAB$M_PUT      = 00000001  G         FAB$V_RWO      = 00000007  G
FAB$C_BID      = 00000003  G         FAB$M_RCK      = 00800000  G         FAB$V_SCF      = 0000000E  G
FAB$C_BLN        00000050  G         FAB$M_RWC      = 00000800  G         FAB$V_SHRDEL   = 00000002  G
FAB$C_FIX      = 00000001  G         FAB$M_RWO      = 00000080  G         FAB$V_SHRGET   = 00000001  G
FAB$C_HSH      = 00000030  G         FAB$M_SCF      = 00004000  G         FAB$V_SHRPUT   = 00000000  G
FAB$C_IDX      = 00000020  G         FAB$M_SHRDEL   = 00000004  G         FAB$V_SHRUPD   = 00000003  G
FAB$C_MAXRFM   = 00000003  G         FAB$M_SHRGET   = 00000002  G         FAB$V_SPL      = 0000000D  G
FAB$C_REL      = 00000010  G         FAB$M_SHRPUT   = 00000001  G         FAB$V_SQO      = 00000006  G
FAB$C_RFM_DFLT = 00000002  G         FAB$M_SHRUPD   = 00000008  G         FAB$V_SUP      = 00000002  G
FAB$C_SEQ      = 00000000  G         FAB$M_SPL      = 00002000  G         FAB$V_TEF      = 0000001C  G
FAB$C_UDF      = 00000000  G         FAB$M_SQO      = 00000040  G         FAB$V_TMD      = 00000004  G
FAB$C_VAR      = 00000002  G         FAB$M_SUP      = 00000004  G         FAB$V_TMP      = 00000003  G
FAB$C_VFC      = 00000003  G         FAB$M_TEF      = 10000000  G         FAB$V_TRN      = 00000004  G
FAB$K_BLN        00000050  G         FAB$M_TMD      = 00000010  G         FAB$V_UFM      = 0000001A  G
FAB$L_ALQ        00000010  G         FAB$M_TMP      = 00000008  G         FAB$V_UFO      = 00000011  G
FAB$L_CTX        00000018  G         FAB$M_TRN      = 00000010  G         FAB$V_UPD      = 00000003  G
FAB$L_DEV        00000040  G         FAB$M_UFM      = 04000000  G         FAB$V_UPI      = 00000006  G
FAB$L_DNA        00000030  G         FAB$M_UFO      = 00020000  G         FAB$V_WCK      = 00000009  G
FAB$L_FNA        0000002C  G         FAB$M_UPD      = 00000008  G         FAB$W_BLS        0000003C  G
FAB$L_FOP        00000004  G         FAB$M_UPI      = 00000040  G         FAB$W_DEQ        00000014  G
FAB$L_JNL        00000020  G         FAB$M_WCK      = 00000200  G         FAB$W_IFI        00000002  G
FAB$L_MRN        00000038  G         FAB$S_ORG      = 00000004  G         FAB$W_MRS        00000036  G
FAB$L_NAM        00000028  G         FAB$S_PPF_RAT  = 00000008  G         GBL...         = 00000001
FAB$L_SDC        00000044  G         FAB$V_BIO      = 00000005  G         NAM$B_BID        00000000  G
FAB$L_STS        00000008  G         FAB$V_BLK      = 00000003  G         NAM$B_BLN        00000001  G
FAB$L_STV        0000000C  G         FAB$V_BRO      = 00000006  G         NAM$B_CURLVL     00000038  G
FAB$L_XAB        00000024  G         FAB$V_CBT      = 00000015  G         NAM$B_ESL        0000000B  G
FAB$M_BIO      = 00000020  G         FAB$V_CIF      = 00000019  G         NAM$B_ESS        0000000A  G
FAB$M_BLK      = 00000008  G         FAB$V_CR       = 00000001  G         NAM$B_RSL        00000003  G
FAB$M_BRO      = 00000040  G         FAB$V_CTG      = 00000014  G         NAM$B_RSS        00000002  G
FAB$M_CBT      = 00200000  G         FAB$V_DEL      = 00000002  G         NAM$C_BID      = 00000002  G
FAB$M_CIF      = 02000000  G         FAB$V_DFW      = 00000005  G         NAM$C_BLN        00000038  G
FAB$M_CR       = 00000002  G         FAB$V_DLT      = 0000000F  G         NAM$C_BLN_DIRWC  00000050  G
FAB$M_CTG      = 00100000  G         FAB$V_DMO      = 0000000C  G         NAM$C_DVI      = 00000010  G
FAB$M_DEL      = 00000004  G         FAB$V_ESC      = 0000001B  G         NAM$C_MAXRSS   = 00000080  G
FAB$M_DFW      = 00000020  G         FAB$V_EXE      = 00000007  G         NAM$C_MAXRSSLCL= 00000060  G
FAB$M_DLT      = 00008000  G         FAB$V_FTN      = 00000000  G         NAM$K_BLN        00000038  G
FAB$M_DMO      = 00001000  G         FAB$V_GET      = 00000001  G         NAM$K_BLN_DIRWC  00000050  G
FAB$M_ESC      = 08000000  G         FAB$V_INP      = 00000013  G         NAM$L_DIRWCC1    00000040  G
FAB$M_EXE      = 00000080  G         FAB$V_JNL      = 00000016  G         NAM$L_DIRWCC2    00000044  G
FAB$M_FTN      = 00000001  G         FAB$V_KFO      = 0000001E  G         NAM$L_DIRWCC3    00000048  G
FAB$M_GET      = 00000002  G         FAB$V_MSE      = 00000004  G         NAM$L_DIRWCC4    0000004C  G
FAB$M_INP      = 00080000  G         FAB$V_MXV      = 00000001  G         NAM$L_DWC        00000038  G
FAB$M_JNL      = 00400000  G         FAB$V_NAM      = 00000018  G         NAM$L_ESA        0000000C  G
FAB$M_KFO      = 40000000  G         FAB$V_NEF      = 0000000A  G         NAM$L_FNB        00000034  G
RMSGBL                                                           21-AUG-1978 22:14:39   VAX-11 MACRO X0.3-11               Page   3
SYMBOL TABLE                                                                                                                     (1)

NAM$L_RLF        00000010  G         NAM$V_WILD_UFD = 00000018  G         RAB$M_PMT      = 40000000  G
NAM$L_RSA        00000004  G         NAM$V_WILD_VER = 00000003  G         RAB$M_PPF_IND  = 00004000  G
NAM$L_WCC        00000030  G         NAM$W_DID        0000002A  G         RAB$M_PPF_RAT  = 00003FC0  G
NAM$M_DIR_LVLS = 00E00000  G         NAM$W_DID_NUM    0000002A  G         RAB$M_PTA      = 20000000  G
NAM$M_EXP_DEV  = 00000080  G         NAM$W_DID_RVN    0000002E  G         RAB$M_RAH      = 00000200  G
NAM$M_EXP_DIR  = 00000040  G         NAM$W_DID_SEQ    0000002C  G         RAB$M_RLK      = 00080000  G
NAM$M_EXP_NAME = 00000004  G         NAM$W_FID        00000024  G         RAB$M_RNE      = 01000000  G
NAM$M_EXP_TYPE = 00000002  G         NAM$W_FID_NUM    00000024  G         RAB$M_RNF      = 08000000  G
NAM$M_EXP_VER  = 00000001  G         NAM$W_FID_RVN    00000028  G         RAB$M_TMO      = 02000000  G
NAM$M_GRP_MBR  = 00080000  G         NAM$W_FID_SEQ    00000026  G         RAB$M_TPT      = 00000002  G
NAM$M_HIGHVER  = 00008000  G         NAM$W_PRV_DID    0000003A  G         RAB$M_UIF      = 00000010  G
NAM$M_LOWVER   = 00004000  G         RAB$B_BID        00000000  G         RAB$M_ULK      = 00040000  G
NAM$M_NODE     = 00020000  G         RAB$B_BLN        00000001  G         RAB$M_WAT      = 00020000  G
NAM$M_PPF      = 00010000  G         RAB$B_KRF        00000035  G         RAB$M_WBH      = 00000400  G
NAM$M_QUOTED   = 00040000  G         RAB$B_KSZ        00000034  G         RAB$S_PPF_RAT  = 00000008  G
NAM$M_WILDCARD = 00000100  G         RAB$B_MBC        00000037  G         RAB$V_ASY      = 00000000  G
NAM$M_WILD_DIR = 00100000  G         RAB$B_MBF        00000036  G         RAB$V_BIO      = 0000000B  G
NAM$M_WILD_GRP = 01000000  G         RAB$B_PSZ        00000034  G         RAB$V_CCO      = 0000001F  G
NAM$M_WILD_MBR = 02000000  G         RAB$B_RAC        0000001E  G         RAB$V_CVT      = 0000001A  G
NAM$M_WILD_NAME= 00000020  G         RAB$B_ROP1       00000005  G         RAB$V_EOF      = 00000008  G
NAM$M_WILD_SFD1= 02000000  G         RAB$B_ROP2       00000006  G         RAB$V_FDL      = 00000006  G
NAM$M_WILD_SFD2= 04000000  G         RAB$B_ROP3       00000007  G         RAB$V_HSH      = 00000007  G
NAM$M_WILD_SFD3= 08000000  G         RAB$B_TMO        0000001F  G         RAB$V_KGE      = 00000015  G
NAM$M_WILD_SFD4= 10000000  G         RAB$C_BID      = 00000001  G         RAB$V_KGT      = 00000016  G
NAM$M_WILD_SFD5= 20000000  G         RAB$C_BLN        00000044  G         RAB$V_LIM      = 0000000E  G
NAM$M_WILD_SFD6= 40000000  G         RAB$C_KEY      = 00000001  G         RAB$V_LOA      = 0000000D  G
NAM$M_WILD_SFD7= 80000000  G         RAB$C_RFA      = 00000002  G         RAB$V_LOC      = 00000010  G
NAM$M_WILD_TYPE= 00000010  G         RAB$C_SEQ      = 00000000  G         RAB$V_MAS      = 00000005  G
NAM$M_WILD_UFD = 01000000  G         RAB$K_BLN        00000044  G         RAB$V_NLK      = 00000014  G
NAM$M_WILD_VER = 00000008  G         RAB$L_BKT        00000038  G         RAB$V_NXR      = 00000017  G
NAM$S_DIR_LVLS = 00000003  G         RAB$L_CTX        00000018  G         RAB$V_PMT      = 0000001E  G
NAM$T_DVI        00000014  G         RAB$L_DCT        00000038  G         RAB$V_PPF_IND  = 0000000E  G
NAM$V_DIR_LVLS = 00000015  G         RAB$L_FAB        0000003C  G         RAB$V_PPF_RAT  = 00000006  G
NAM$V_EXP_DEV  = 00000007  G         RAB$L_KBF        00000030  G         RAB$V_PTA      = 0000001D  G
NAM$V_EXP_DIR  = 00000006  G         RAB$L_PBF        00000030  G         RAB$V_RAH      = 00000009  G
NAM$V_EXP_NAME = 00000002  G         RAB$L_RBF        00000028  G         RAB$V_RLK      = 00000013  G
NAM$V_EXP_TYPE = 00000001  G         RAB$L_RFA0       00000010  G         RAB$V_RNE      = 00000018  G
NAM$V_EXP_VER  = 00000000  G         RAB$L_RHB        0000002C  G         RAB$V_RNF      = 0000001B  G
NAM$V_GRP_MBR  = 00000013  G         RAB$L_ROP        00000004  G         RAB$V_TMO      = 00000019  G
NAM$V_HIGHVER  = 0000000F  G         RAB$L_STS        00000008  G         RAB$V_TPT      = 00000001  G
NAM$V_LOWVER   = 0000000E  G         RAB$L_STV        0000000C  G         RAB$V_UIF      = 00000004  G
NAM$V_NODE     = 00000011  G         RAB$L_UBF        00000024  G         RAB$V_ULK      = 00000012  G
NAM$V_PPF      = 00000010  G         RAB$M_ASY      = 00000001  G         RAB$V_WAT      = 00000011  G
NAM$V_QUOTED   = 00000012  G         RAB$M_BIO      = 00000800  G         RAB$V_WBH      = 0000000A  G
NAM$V_WILDCARD = 00000008  G         RAB$M_CCO      = 80000000  G         RAB$W_ISI        00000002  G
NAM$V_WILD_DIR = 00000014  G         RAB$M_CVT      = 04000000  G         RAB$W_RFA        00000010  G
NAM$V_WILD_GRP = 00000018  G         RAB$M_EOF      = 00000100  G         RAB$W_RFA4       00000014  G
NAM$V_WILD_MBR = 00000019  G         RAB$M_FDL      = 00000040  G         RAB$W_RSZ        00000022  G
NAM$V_WILD_NAME= 00000005  G         RAB$M_HSH      = 00000080  G         RAB$W_USZ        00000020  G
NAM$V_WILD_SFD1= 00000019  G         RAB$M_KGE      = 00200000  G         RMS$V_STVSTATUS= 0000000E  G
NAM$V_WILD_SFD2= 0000001A  G         RAB$M_KGT      = 00400000  G         RMS$_ABO       = 000183EC  G
NAM$V_WILD_SFD3= 0000001B  G         RAB$M_LIM      = 00004000  G         RMS$_ACC       = 0001C002  G
NAM$V_WILD_SFD4= 0000001C  G         RAB$M_LOA      = 00002000  G         RMS$_ACT       = 0001825A  G
NAM$V_WILD_SFD5= 0000001D  G         RAB$M_LOC      = 00010000  G         RMS$_AID       = 000183F4  G
NAM$V_WILD_SFD6= 0000001E  G         RAB$M_MAS      = 00000020  G         RMS$_ALN       = 000183FC  G
NAM$V_WILD_SFD7= 0000001F  G         RAB$M_NLK      = 00100000  G         RMS$_ALQ       = 00018404  G
NAM$V_WILD_TYPE= 00000004  G         RAB$M_NXR      = 00800000  G         RMS$_ANI       = 0001840C  G
RMSGBL                                                           21-AUG-1978 22:14:39   VAX-11 MACRO X0.3-11               Page   4
SYMBOL TABLE                                                                                                                     (1)

RMS$_AOP       = 00018414  G         RMS$_FLK       = 0001828A  G         RMS$_RAB       = 0001863C  G
RMS$_ATR       = 0001C0CC  G         RMS$_FNA       = 00018524  G         RMS$_RAC       = 00018644  G
RMS$_ATW       = 0001C0D4  G         RMS$_FND       = 0001C02A  G         RMS$_RAT       = 0001864C  G
RMS$_BKS       = 0001841C  G         RMS$_FNF       = 00018292  G         RMS$_RBF       = 00018654  G
RMS$_BKZ       = 00018424  G         RMS$_FNM       = 0001852C  G         RMS$_RER       = 0001C0F4  G
RMS$_BLN       = 0001842C  G         RMS$_FOP       = 0001853C  G         RMS$_REX       = 000182A2  G
RMS$_BOF       = 00018198  G         RMS$_FSZ       = 00018534  G         RMS$_RFA       = 0001865C  G
RMS$_BUG       = 00018434  G         RMS$_FUL       = 00018544  G         RMS$_RFM       = 00018664  G
RMS$_BUG_DAP   = 00018444  G         RMS$_IAL       = 0001854C  G         RMS$_RHB       = 0001866C  G
RMS$_BUG_DDI   = 0001843C  G         RMS$_IAN       = 00018554  G         RMS$_RLF       = 00018674  G
RMS$_BUG_XX2   = 0001844C  G         RMS$_IBF       = 00018754  G         RMS$_RLK       = 000182AA  G
RMS$_BUG_XX3   = 00018454  G         RMS$_IDX       = 0001855C  G         RMS$_RMV       = 0001C0FC  G
RMS$_BUG_XX4   = 0001845C  G         RMS$_IFA       = 0001C124  G         RMS$_RNF       = 000182B2  G
RMS$_BUG_XX5   = 00018464  G         RMS$_IFI       = 00018564  G         RMS$_RNL       = 000181A0  G
RMS$_BUG_XX6   = 0001846C  G         RMS$_IMX       = 0001856C  G         RMS$_ROP       = 0001867C  G
RMS$_BUG_XX7   = 00018474  G         RMS$_IOP       = 00018574  G         RMS$_RPL       = 0001C104  G
RMS$_BUG_XX8   = 0001847C  G         RMS$_IRC       = 0001857C  G         RMS$_RRV       = 00018684  G
RMS$_BUG_XX9   = 00018484  G         RMS$_ISI       = 00018584  G         RMS$_RSA       = 000182DA  G
RMS$_CAA       = 0001848C  G         RMS$_KBF       = 0001858C  G         RMS$_RSL       = 0001873C  G
RMS$_CCF       = 0001C0DC  G         RMS$_KEY       = 00018594  G         RMS$_RSS       = 00018694  G
RMS$_CCR       = 00018494  G         RMS$_KFF       = 00018031  G         RMS$_RST       = 0001869C  G
RMS$_CDA       = 0001C0E4  G         RMS$_KRF       = 0001859C  G         RMS$_RSZ       = 000186A4  G
RMS$_CHG       = 0001849C  G         RMS$_KSZ       = 000185A4  G         RMS$_RTB       = 000181A8  G
RMS$_CHK       = 000184A4  G         RMS$_LAN       = 000185AC  G         RMS$_SEQ       = 000186AC  G
RMS$_CHN       = 0001C0EC  G         RMS$_LBL       = 000185B4  G         RMS$_SHR       = 000186B4  G
RMS$_COD       = 000184AC  G         RMS$_LNE       = 000185BC  G         RMS$_SIZ       = 000186BC  G
RMS$_CONTROLC  = 00010651  G         RMS$_LOC       = 000185C4  G         RMS$_SPL       = 0001C042  G
RMS$_CONTROLO  = 00010609  G         RMS$_MBC       = 00018734  G         RMS$_SQO       = 000186C4  G
RMS$_CONTROLY  = 00010611  G         RMS$_MKD       = 0001C032  G         RMS$_STALL     = 00018001  G
RMS$_CRE       = 0001C00A  G         RMS$_MRN       = 000185CC  G         RMS$_STK       = 000186CC  G
RMS$_CREATED   = 00010619  G         RMS$_MRS       = 000185D4  G         RMS$_SUC       = 00010001  G
RMS$_CUR       = 000184B4  G         RMS$_NAM       = 000185DC  G         RMS$_SUP       = 000182D2  G
RMS$_DAC       = 0001C012  G         RMS$_NEF       = 000185E4  G         RMS$_SUPERSEDE = 00010631  G
RMS$_DAN       = 000184BC  G         RMS$_NET       = 0001874C  G         RMS$_SYN       = 000186D4  G
RMS$_DEL       = 00018262  G         RMS$_NID       = 000185EC  G         RMS$_SYS       = 0001C10C  G
RMS$_DEV       = 000184C4  G         RMS$_NMF       = 000182CA  G         RMS$_TEMP1     = 0001826A  G
RMS$_DIR       = 000184CC  G         RMS$_NOD       = 000185F4  G         RMS$_TEMP2     = 0001868C  G
RMS$_DME       = 000184D4  G         RMS$_NORMAL    = 00010001  G         RMS$_TMO       = 000181B0  G
RMS$_DNA       = 000184DC  G         RMS$_NPK       = 000185FC  G         RMS$_TRE       = 000186DC  G
RMS$_DNF       = 0001C04A  G         RMS$_OK_ALK    = 00018039  G         RMS$_TYP       = 000186E4  G
RMS$_DNR       = 00018272  G         RMS$_OK_DEL    = 00018041  G         RMS$_UBF       = 000186EC  G
RMS$_DPE       = 0001C03A  G         RMS$_OK_DUP    = 00018011  G         RMS$_USZ       = 000186F4  G
RMS$_DTP       = 000184E4  G         RMS$_OK_IDX    = 00018019  G         RMS$_VER       = 000186FC  G
RMS$_DUP       = 000184EC  G         RMS$_OK_LIM    = 00018051  G         RMS$_VOL       = 00018704  G
RMS$_DVI       = 000184F4  G         RMS$_OK_RLK    = 00018021  G         RMS$_WBE       = 0001C12C  G
RMS$_ENT       = 0001C01A  G         RMS$_OK_RNF    = 00018049  G         RMS$_WER       = 0001C114  G
RMS$_ENV       = 00018724  G         RMS$_OK_RRV    = 00018029  G         RMS$_WLD       = 00018744  G
RMS$_EOF       = 0001827A  G         RMS$_ORD       = 00018604  G         RMS$_WLK       = 000182BA  G
RMS$_ESA       = 000184FC  G         RMS$_ORG       = 0001860C  G         RMS$_WPL       = 0001C11C  G
RMS$_ESL       = 00018714  G         RMS$_PBF       = 00018614  G         RMS$_WSF       = 0001871C  G
RMS$_ESS       = 00018504  G         RMS$_PENDING   = 00018009  G         RMS$_XAB       = 0001870C  G
RMS$_EXP       = 000182C2  G         RMS$_PLG       = 0001861C  G         XAB$B_AID        00000017  G
RMS$_EXT       = 0001C022  G         RMS$_PLV       = 0001872C  G         XAB$B_ALN        00000009  G
RMS$_FAB       = 0001850C  G         RMS$_POS       = 00018624  G         XAB$B_AOP        00000008  G
RMS$_FAC       = 00018514  G         RMS$_PRM       = 0001862C  G         XAB$B_ATR        00000009  G
RMS$_FEX       = 00018282  G         RMS$_PRV       = 0001829A  G         XAB$B_BKZ        00000016  G
RMS$_FLG       = 0001851C  G         RMS$_QUO       = 00018634  G         XAB$B_BLN        00000001  G
RMSGBL                                                           21-AUG-1978 22:14:39   VAX-11 MACRO X0.3-11               Page   5
SYMBOL TABLE                                                                                                                     (1)

XAB$B_COD        00000000  G         XAB$S_WLD      = 00000004  G
XAB$B_FLAGS      00000012  G         XAB$V_CBT      = 00000005  G
XAB$B_HSZ        00000017  G         XAB$V_CTG      = 00000007  G
XAB$B_RFO        00000008  G         XAB$V_DSABL_AST= 00000000  G
XAB$C_ALL      = 00000014  G         XAB$V_GRP      = 00000008  G
XAB$C_ALLLEN     00000020  G         XAB$V_HRD      = 00000000  G
XAB$C_ANY      = 00000000  G         XAB$V_NODEL    = 00000003  G
XAB$C_CYL      = 00000001  G         XAB$V_NOEXE    = 00000002  G
XAB$C_DAT      = 00000012  G         XAB$V_NOREAD   = 00000000  G
XAB$C_DATLEN     00000024  G         XAB$V_NOWRITE  = 00000001  G
XAB$C_FHC      = 0000001D  G         XAB$V_ONC      = 00000001  G
XAB$C_FHCLEN     0000002C  G         XAB$V_OWN      = 00000004  G
XAB$C_LBN      = 00000002  G         XAB$V_SYS      = 00000000  G
XAB$C_PRO      = 00000013  G         XAB$V_WLD      = 0000000C  G
XAB$C_PROLEN     00000010  G         XAB$W_DEQ        00000014  G
XAB$C_RDT      = 0000001E  G         XAB$W_DXQ        0000001A  G
XAB$C_RDTLEN     00000014  G         XAB$W_EBK0       00000010  G
XAB$C_RFI      = 00000004  G         XAB$W_EBK2       00000012  G
XAB$C_TRM      = 0000001F  G         XAB$W_FFB        00000014  G
XAB$C_TRMLEN     00000018  G         XAB$W_GRP        0000000E  G
XAB$C_VBN      = 00000003  G         XAB$W_HBK0       0000000C  G
XAB$K_ALLLEN     00000020  G         XAB$W_HBK2       0000000E  G
XAB$K_DATLEN     00000024  G         XAB$W_LRL        0000000A  G
XAB$K_FHCLEN     0000002C  G         XAB$W_MBM        0000000C  G
XAB$K_PROLEN     00000010  G         XAB$W_MBX_CHAN   00000010  G
XAB$K_RDTLEN     00000014  G         XAB$W_MRZ        00000018  G
XAB$K_TRMLEN     00000018  G         XAB$W_PRO        00000008  G
XAB$L_ALQ        00000010  G         XAB$W_RFI        00000018  G
XAB$L_AST_ADDR   00000008  G         XAB$W_RFI0       00000018  G
XAB$L_AST_PARM   0000000C  G         XAB$W_RFI2       0000001A  G
XAB$L_CDT0       00000014  G         XAB$W_RFI4       0000001C  G
XAB$L_CDT4       00000018  G         XAB$W_RVN        00000008  G
XAB$L_EBK        00000010  G         XAB$W_VOL        0000000A  G
XAB$L_EDT0       0000001C  G
XAB$L_EDT4       00000020  G
XAB$L_HBK        0000000C  G
XAB$L_LOC        0000000C  G
XAB$L_NXT        00000004  G
XAB$L_RDT0       0000000C  G
XAB$L_RDT4       00000010  G
XAB$L_SBN        00000028  G
XAB$L_UIC        0000000C  G
XAB$M_CBT      = 00000020  G
XAB$M_CTG      = 00000080  G
XAB$M_DSABL_AST= 00000001  G
XAB$M_HRD      = 00000001  G
XAB$M_NODEL    = 00000008  G
XAB$M_NOEXE    = 00000004  G
XAB$M_NOREAD   = 00000001  G
XAB$M_NOWRITE  = 00000002  G
XAB$M_ONC      = 00000002  G
XAB$Q_CDT        00000014  G
XAB$Q_EDT        0000001C  G
XAB$Q_RDT        0000000C  G
XAB$S_GRP      = 00000004  G
XAB$S_OWN      = 00000004  G
XAB$S_SYS      = 00000004  G
RMSGBL                                                           21-AUG-1978 22:14:39   VAX-11 MACRO X0.3-11               Page   6
PROGRAM SECTION SYNOPSIS                                                                                                         (1)


PROGRAM SECTION SYNOPSIS

.  ABS  .        00000000      00     NOPIC   USR   CON   ABS   LCL NOSHR NOEXE NORD  NOWRT BYTE
. BLANK .        00000000      01     NOPIC   USR   CON   REL   LCL NOSHR   EXE   RD    WRT BYTE
$ABS$            00000050      02     NOPIC   USR   CON   ABS   LCL NOSHR   EXE   RD    WRT BYTE


THERE WERE NO ERRORS OR WARNINGS.
11000. BYTES LEFT IN FREE MEMORY POOL.
3240. BYTES OF RECLAIMED MEMORY.
OBJ$:RMSGBL,LIS$:RMSGBL/-SP=EXECML$/ML,LIB$:R/ML,SRC$:RMSGBL
21 MLB DIR RDS - 939 GETS TO DEFINE 20 MACROS. 70 INTER. FILE WRITES.
