DSPDAT          - Data Structures For DISPLAY Program            21-AUG-1978 22:36:22   VAX-11 MACRO X0.3-11               Page   0
TABLE OF CONTENTS

   (2)      39  DECLARATIONS
DSPDAT          - Data Structures For DISPLAY Program            21-AUG-1978 22:36:22   VAX-11 MACRO X0.3-11               Page   1
X01                                                                                                                              (1)

                                     0000     1
                                     0000     2 	.TITLE	DSPDAT - Data Structures For DISPLAY Program
                                     0000     3 	.IDENT	/X01/
                                     0000     4
                                     0000     5 ;
                                     0000     6 ; COPYRIGHT (C) 1977
                                     0000     7 ; DIGITAL EQUIPMENT CORPORATION, MAYNARD, MASSACHUSETTS 01754
                                     0000     8 ;
                                     0000     9 ; THIS SOFTWARE IS FURNISHED  UNDER A LICENSE FOR USE ONLY ON A SINGLE
                                     0000    10 ; COMPUTER  SYSTEM AND  MAY BE  COPIED ONLY WITH  THE INCLUSION OF THE
                                     0000    11 ; ABOVE COPYRIGHT NOTICE.  THIS SOFTWARE, OR ANY OTHER COPIES THEREOF,
                                     0000    12 ; MAY NOT BE PROVIDED OR  OTHERWISE MADE AVAILABLE TO ANY OTHER PERSON
                                     0000    13 ; EXCEPT FOR USE ON SUCH SYSTEM AND TO ONE WHO AGREES TO THESE LICENSE
                                     0000    14 ; TERMS.  TITLE TO AND  OWNERSHIP OF THE  SOFTWARE  SHALL AT ALL TIMES
                                     0000    15 ; REMAIN IN DEC.
                                     0000    16 ;
                                     0000    17 ; THE INFORMATION IN THIS SOFTWARE IS SUBJECT TO CHANGE WITHOUT NOTICE
                                     0000    18 ; AND SHOULD  NOT BE CONSTRUED  AS A COMMITMENT  BY DIGITAL  EQUIPMENT
                                     0000    19 ; CORPORATION.
                                     0000    20 ;
                                     0000    21 ; DEC ASSUMES  NO  RESPONSIBILITY  FOR  THE USE OR  RELIABILITY OF ITS
                                     0000    22 ; SOFTWARE ON EQUIPMENT WHICH IS NOT SUPPLIED BY DEC.
                                     0000    23
                                     0000    24 ;++
                                     0000    25 ; FACILITY:
                                     0000    26 ;
                                     0000    27 ; ABSTRACT:
                                     0000    28 ;
                                     0000    29 ; ENVIRONMENT:
                                     0000    30 ;
                                     0000    31 ; AUTHOR: H. M. Levy	, CREATION DATE: 2-May-1977
                                     0000    32 ;
                                     0000    33 ; MODIFIED BY:
                                     0000    34 ;
                                     0000    35 ;	, : VERSION
                                     0000    36 ; 01	-
                                     0000    37 ;--
DSPDAT          - Data Structures For DISPLAY Program            21-AUG-1978 22:36:22   VAX-11 MACRO X0.3-11               Page   2
X01             DECLARATIONS                                                                                                     (2)

                                     0000    39 	.SBTTL	DECLARATIONS
                                     0000    40 ;
                                     0000    41 ; INCLUDE FILES:
                                     0000    42 ;
                                     0000    43
                                     0000    44 ;
                                     0000    45 ; MACROS:
                                     0000    46 ;
                                     0000    47
                                     0000    48 	$DCBDEF
                                     0000    49 	$IDBDEF
                                     0000    50 	$PFNDEF				; page frame data base
                                     0000    51 	$PHDDEF				; define process header
                                     0000    52 	$PMSDEF				; define data items
                                     0000    53
                                     0000    54 ;
                                     0000    55 ; Macros to define data structures
                                     0000    56 ;
                                     0000    57
                                     0000    58 ;
                                     0000    59 ; EQUATED SYMBOLS:
                                     0000    60 ;
                                     0000    61
                                     0000    62
                                     0000    63 ;
                                     0000    64 ; The following size indicators specify how many bits should be
                                     0000    65 ; fetched for each data item.
                                     0000    66 ; The types specify what transformations should be performed on the
                                     0000    67 ; data once it is fetched.  For example, if the data is an accumulated
                                     0000    68 ; time, it is usually subtracted from the previous value to compute
                                     0000    69 ; the time spent during the interval.
                                     0000    70 ;
                                     0000    71
                           00000000  0000    72 	BYTE_SIZE == 0 			; indicator for BYTE datum
                           00000001  0000    73 	WORD_SIZE == 1			; indicator for WORD datum
                           00000002  0000    74 	LONG_SIZE == 2			; indicator for LONG datum
                                     0000    75
                           00000000  0000    76 	VALUE_TYPE == 0			; indicates value is complete as is
                           00000001  0000    77 	DIFF_TYPE == 1			; indicates difference must be taken
                           00000002  0000    78 	OWN_TYPE == 2			; do nothing with value
                                     0000    79
                           00000000  0000    80 	AVG_DISP == 0			; display of current and mean value
                           00000001  0000    81 	HHIST_DISP == 1			; display for horizontal bar graphs
                           00000002  0000    82 	OWN_DISP == 2			; own display, handled by collector
                                     0000    83
                                     0000    84 ;
                                     0000    85 ; OWN STORAGE:
                                     0000    86 ;
                                     0000    87
                                     0000    88 ;
                                     0000    89 ; Display Control Block for MODES display.
                                     0000    90 ;
                                     0000    91
                                     0000    92 MODEDCB::
                           0000001C' 0000    93 	.LONG	MODETITLE		; title string
                           00000007  0004    94 	.LONG	7			; items to display
                           00000070' 0008    95 	.LONG	MODESTR			; item string
DSPDAT          - Data Structures For DISPLAY Program            21-AUG-1978 22:36:22   VAX-11 MACRO X0.3-11               Page   3
X01             DECLARATIONS                                                                                                     (2)

                           00000000' 000C    96 	.LONG	AVGINI			; initialization routine
                           00000000' 0010    97 	.LONG	GETMODE			; normal collecton routine
                           00000000' 0014    98 	.LONG	PRINTAVG		; display routine
                               0000  0018    99 	.WORD	0			; min value for graph
                               0064  001A   100 	.WORD	100			; range for graph
                                     001C   101 MODETITLE::
                                     001C   102 	CSTRING	<TIME IN PROCESSOR MODES (%)>
                                     0038   103 ;
                                     0038   104 ; DCB for modes display with horizontal graph
                                     0038   105 ;
                                     0038   106
                                     0038   107 MODE2DCB::
                           0000001C' 0038   108 	.LONG	MODETITLE
                           00000007  003C   109 	.LONG	7			; number of items to display
                           00000070' 0040   110 	.LONG	MODESTR			; item string
                           00000000' 0044   111 	.LONG	HHISTINI		; initialization routine
                           00000000' 0048   112 	.LONG	GETMODE			; normal collection routine
                           00000000' 004C   113 	.LONG	HHIST			; display routine
                               0000  0050   114 	.WORD	0			; min value for graph
                               0064  0052   115 	.WORD	100			; range for graph
                                     0054   116 MODE3DCB::
                           0000001C' 0054   117 	.LONG	MODETITLE
                           00000007  0058   118 	.LONG	7
                           00000070' 005C   119 	.LONG	MODESTR
                           00000000' 0060   120 	.LONG	VHISTINI
                           00000000' 0064   121 	.LONG	GETMODE
                           00000000' 0068   122 	.LONG	VHIST
                               0000  006C   123 	.WORD	0
                               0064  006E   124 	.WORD	100
                                     0070   125 MODESTR::
                                 00' 0070   126 	.BYTE	PMS$C_INTERRUPT
                                 01' 0071   127 	.BYTE	PMS$C_KERNEL
                                 02' 0072   128 	.BYTE	PMS$C_EXEC
                                 03' 0073   129 	.BYTE	PMS$C_SUPER
                                 04' 0074   130 	.BYTE	PMS$C_USER
                                 05' 0075   131 	.BYTE	PMS$C_COMPAT
                                 06' 0076   132 	.BYTE	PMS$C_IDLE
                                     0077   133
                                     0077   134 ;
                                     0077   135 ; DCB for TOPTEN display
                                     0077   136 ;
                                     0077   137
                                     0077   138 TOPTENDCB::
                           00000093' 0077   139 	.LONG	TOPTENTITLE		; title string
                           00000000  007B   140 	.LONG	0			; not items
                           00000000  007F   141 	.LONG	0			; no item string
                           00000000' 0083   142 	.LONG	TOPTENINI		; initialization routine
                           00000000' 0087   143 	.LONG	TOPTEN			; collection and display routine
                           00000000' 008B   144 	.LONG	NULL			; no separate display routine
                               0000  008F   145 	.WORD	0			; min
                               0064  0091   146 	.WORD	100			; max
                                     0093   147 TOPTENTITLE::
                                     0093   148 	CSTRING <TOP CPU TIME USERS (%)>
                                     00AA   149
                                     00AA   150 ;
                                     00AA   151 ; DCB for users display
                                     00AA   152 ;
DSPDAT          - Data Structures For DISPLAY Program            21-AUG-1978 22:36:22   VAX-11 MACRO X0.3-11               Page   4
X01             DECLARATIONS                                                                                                     (2)

                                     00AA   153
                                     00AA   154 USERDCB::
                           00000000  00AA   155 	.LONG	0			; title string
                           00000000  00AE   156 	.LONG	0			; no items
                           00000000  00B2   157 	.LONG	0			; no items
                           00000000' 00B6   158 	.LONG	USERINI			; init routine
                           00000000' 00BA   159 	.LONG	USERS			; collection and display routine
                           00000000' 00BE   160 	.LONG	NULL			; own display routine
                           00000000  00C2   161 	.LONG	0			; no min or max value
                                     00C6   162
                                     00C6   163 ;
                                     00C6   164 ; DCB for File Control Primitives display
                                     00C6   165 ;
                                     00C6   166
                                     00C6   167 FCPDCB::
                           000000E2' 00C6   168 	.LONG	FCPTITLE		; title string address
                           0000000A  00CA   169 	.LONG	10			; number of items
                           000000FC' 00CE   170 	.LONG	FCPSTR			; item string
                           00000000' 00D2   171 	.LONG	TWOCOLINI		; initialization routine
                           00000000' 00D6   172 	.LONG	GETFCP			; collection routine
                           00000000' 00DA   173 	.LONG	PRINTRATE		; display routine
                          0000 0000  00DE   174 	.WORD	0,0			; no min or max
                                     00E2   175 FCPTITLE:
                                     00E2   176 	CSTRING <FILE PRIMITIVE STATISTICS>
                                     00FC   177 FCPSTR:
                                 2D' 00FC   178 	.BYTE	PMS$C_FCPCALLS
                                 2C' 00FD   179 	.BYTE	PMS$C_ALLOC
                                 2E' 00FE   180 	.BYTE	PMS$C_FCPCREATE
                                 2F' 00FF   181 	.BYTE	PMS$C_FCPREAD
                                 30' 0100   182 	.BYTE	PMS$C_FCPWRITE
                                 31' 0101   183 	.BYTE	PMS$C_FCPCACHE
                                 32' 0102   184 	.BYTE	PMS$C_FCPCPU
                                 33' 0103   185 	.BYTE	PMS$C_FCPTURN
                                 2B' 0104   186 	.BYTE	PMS$C_ACCESS
                                 36' 0105   187 	.BYTE	PMS$C_OPENS
                                     0106   188 ;
                                     0106   189 ; DCB for page fault stats display
                                     0106   190 ;
                                     0106   191
                                     0106   192 PAGEDCB::
                           0000012C' 0106   193 	.LONG	PAGETITLE		; title string
                           0000000A  010A   194 	.LONG	10			; number of items
                           00000122' 010E   195 	.LONG	PAGESTR			; item string
                           00000000' 0112   196 	.LONG	TWOCOLINI		; two column display
                           00000000' 0116   197 	.LONG	GETPAGE			; collection routine
                           00000000' 011A   198 	.LONG	PRINTRATE		; display routine
                          0000 0000  011E   199 	.WORD	0,0			; no min or max
                                     0122   200 PAGESTR:
                                 15' 0122   201 	.BYTE	PMS$C_FAULTS
                                 16' 0123   202 	.BYTE	PMS$C_PREADS
                                 19' 0124   203 	.BYTE	PMS$C_PREADIO
                                 17' 0125   204 	.BYTE	PMS$C_PWRITES
                                 18' 0126   205 	.BYTE	PMS$C_PWRITIO
                                 1B' 0127   206 	.BYTE	PMS$C_FREFLTS
                                 1C' 0128   207 	.BYTE	PMS$C_MFYFLTS
                                 1D' 0129   208 	.BYTE	PMS$C_DZROFLTS
                                 1A' 012A   209 	.BYTE	PMS$C_WRTINPROG
DSPDAT          - Data Structures For DISPLAY Program            21-AUG-1978 22:36:22   VAX-11 MACRO X0.3-11               Page   5
X01             DECLARATIONS                                                                                                     (2)

                                 1E' 012B   210 	.BYTE	PMS$C_SYSFAULTS
                                     012C   211 PAGETITLE:
                                 51' 012C   212 	.BYTE	10$-5$
3A 54 53 49 4C 20 45 45 52 46 20 20  012D   213 5$:	.ASCII	\  FREE LIST:               \
20 20 20 20 20 20 20 20 20 20 20 20  0139
                           20 20 20  0145
4D 45 47 41 4E 41 4D 20 45 47 41 50  0148   214 	.ASCII	\PAGE MANAGEMENT STATISTICS\
49 54 53 49 54 41 54 53 20 54 4E 45  0154
                              53 43  0160
44 4F 4D 20 20 20 20 20 20 20 20 20  0162   215 	.ASCII	\         MODIFY LIST:       \
20 20 20 3A 54 53 49 4C 20 59 46 49  016E
                        20 20 20 20  017A
                                     017E   216 10$:
                                     017E   217
                                     017E   218 ;
                                     017E   219 ; DCB for POOL usage display
                                     017E   220 ;
                                     017E   221
                                     017E   222 POOLDCB::
                           000001A0' 017E   223 	.LONG	POOLTITLE		; title string
                           00000006  0182   224 	.LONG	6			; number of items
                           0000019A' 0186   225 	.LONG	POOLSTR			; item string
                           00000000' 018A   226 	.LONG	AVGINI			; initialization routine
                           00000000' 018E   227 	.LONG	GETPOOL			; pool data collection routine
                           00000000' 0192   228 	.LONG	PRINTAVG		; display routine
                          0000 0000  0196   229 	.WORD	0,0			; no min or max
                                     019A   230 POOLSTR:
                                 1F' 019A   231 	.BYTE	PMS$C_IRPCNT
                                 20' 019B   232 	.BYTE	PMS$C_HOLECNT
                                 23' 019C   233 	.BYTE	PMS$C_HOLESUM
                                 21' 019D   234 	.BYTE	PMS$C_BIGHOLE
                                 22' 019E   235 	.BYTE	PMS$C_SMALLHOLE
                                 24' 019F   236 	.BYTE	PMS$C_SMALLCNT
                                     01A0   237 POOLTITLE:
                                     01A0   238 	CSTRING	<NONPAGED POOL STATISTICS>
                                     01B9   239 ;
                                     01B9   240 ; DCB for RATES display
                                     01B9   241 ;
                                     01B9   242
                                     01B9   243 RATEDCB::
                           000001D5' 01B9   244 	.LONG	RATETITLE		; title string
                           00000006  01BD   245 	.LONG	6			; number of items
                           00000122' 01C1   246 	.LONG	PAGESTR			; item string (temp)
                           00000000' 01C5   247 	.LONG	GRAPH6INI		; initialization
                           00000000' 01C9   248 	.LONG	NULL			; collection (temp)
                           00000000' 01CD   249 	.LONG	NULL			; display (temp)
                          0000 0000  01D1   250 	.WORD	0,0			; min and max (temp)
                                     01D5   251 RATETITLE:
                                     01D5   252 	CSTRING	<SYSTEM RATES (PER SECOND)>
                                     01EF   253
                                     01EF   254
                                     01EF   255 ;
                                     01EF   256 ; DCB for state display
                                     01EF   257 ;
                                     01EF   258
                                     01EF   259
                                     01EF   260 STATEDCB::
DSPDAT          - Data Structures For DISPLAY Program            21-AUG-1978 22:36:22   VAX-11 MACRO X0.3-11               Page   6
X01             DECLARATIONS                                                                                                     (2)

                           00000227' 01EF   261 	.LONG	STATETITLE		; title string
                           0000000E  01F3   262 	.LONG	14			; number of items in display
                           0000024F' 01F7   263 	.LONG	STATESTR		; item string
                           00000000' 01FB   264 	.LONG	VHISTINI		; initialization routine
                           00000000' 01FF   265 	.LONG	GETSTATES		; collection routine
                           00000000' 0203   266 	.LONG	VHIST			; display type
                               0000  0207   267 	.WORD	0			; min value for graph
                               0014  0209   268 	.WORD	20			; range for graph
                                     020B   269 S2DCB::
                           00000227' 020B   270 	.LONG	STATETITLE		; title string
                           0000000E  020F   271 	.LONG	14			; number of items
                           0000024F' 0213   272 	.LONG	STATESTR		; item string
                           00000000' 0217   273 	.LONG	HHISTINI		; initilization routine
                           00000000' 021B   274 	.LONG	GETSTATES		; collection routine
                           00000000' 021F   275 	.LONG	HHIST			; display routine
                          0028 0000  0223   276 	.WORD	0,40			; min and range for graph
                                     0227   277 STATETITLE:
                                     0227   278 	CSTRING	<NUMBER OF PROCESSES IN SCHEDULER STATES>
                                     024F   279 STATESTR:
                                 07' 024F   280 	.BYTE	PMS$C_COLPG
                                 08' 0250   281 	.BYTE	PMS$C_MWAIT
                                 09' 0251   282 	.BYTE	PMS$C_CEF
                                 0A' 0252   283 	.BYTE	PMS$C_PFW
                                 0B' 0253   284 	.BYTE	PMS$C_LEF
                                 0C' 0254   285 	.BYTE	PMS$C_LEFO
                                 0D' 0255   286 	.BYTE	PMS$C_HIB
                                 0E' 0256   287 	.BYTE	PMS$C_HIBO
                                 0F' 0257   288 	.BYTE	PMS$C_SUSP
                                 10' 0258   289 	.BYTE	PMS$C_SUSPO
                                 11' 0259   290 	.BYTE	PMS$C_FPG
                                 12' 025A   291 	.BYTE	PMS$C_COM
                                 13' 025B   292 	.BYTE	PMS$C_COMO
                                 14' 025C   293 	.BYTE	PMS$C_CUR
                                     025D   294
                                     025D   295 ;
                                     025D   296 ; DCB for IO rates display
                                     025D   297 ;
                                     025D   298
                                     025D   299 IORATEDCB::
                           00000279' 025D   300 	.LONG	IORATETITLE		; title string
                           0000000C  0261   301 	.LONG	12			; number of items
                           000002CB' 0265   302 	.LONG	IORATESTR		; item string
                           00000000' 0269   303 	.LONG	TWOCOLINI		; initialization routine
                           00000000' 026D   304 	.LONG	GETPAGE			; collection routine
                                     0271   305 					;... updates free and modify list sizes
                                     0271   306 					;... and then does normal GETVAL
                           00000000' 0271   307 	.LONG	PRINTRATE		; display routine
                          0000 0000  0275   308 	.WORD	0,0			; no min or range
                                     0279   309 IORATETITLE:
                                 51' 0279   310 	.BYTE	10$-5$
3A 54 53 49 4C 20 45 45 52 46 20 20  027A   311 5$:.ASCII	\  FREE LIST:                \
20 20 20 20 20 20 20 20 20 20 20 20  0286
                        20 20 20 20  0292
54 53 59 53 20 4F 2F 49 20 20 20 20  0296   312 	.ASCII	\    I/O SYSTEM RATES      \
20 20 20 20 53 45 54 41 52 20 4D 45  02A2
                              20 20  02AE
49 44 4F 4D 20 20 20 20 20 20 20 20  02B0   313 	.ASCII	\        MODIFY LIST:       \
DSPDAT          - Data Structures For DISPLAY Program            21-AUG-1978 22:36:22   VAX-11 MACRO X0.3-11               Page   7
X01             DECLARATIONS                                                                                                     (2)

20 20 20 20 3A 54 53 49 4C 20 59 46  02BC
                           20 20 20  02C8
                                     02CB   314 10$:
                                     02CB   315 IORATESTR:
                                 26' 02CB   316 	.BYTE	PMS$C_DIRIO
                                 27' 02CC   317 	.BYTE	PMS$C_BUFIO
                                 29' 02CD   318 	.BYTE	PMS$C_MBWRITES
                                 33' 02CE   319 	.BYTE	PMS$C_FCPTURN
                                 2A' 02CF   320 	.BYTE	PMS$C_LOGNAM
                                 36' 02D0   321 	.BYTE	PMS$C_OPENS
                                 15' 02D1   322 	.BYTE	PMS$C_FAULTS
                                 16' 02D2   323 	.BYTE	PMS$C_PREADS
                                 19' 02D3   324 	.BYTE	PMS$C_PREADIO
                                 17' 02D4   325 	.BYTE	PMS$C_PWRITES
                                 18' 02D5   326 	.BYTE	PMS$C_PWRITIO
                                 25' 02D6   327 	.BYTE	PMS$C_ISWPCNT
                                     02D7   328
                                     02D7   329 ;
                                     02D7   330 ; The following table contains one item descriptor block for
                                     02D7   331 ; each possible piece of data.  The blocks are indexed by
                                     02D7   332 ; data key values.
                                     02D7   333 ;
                                     02D7   334
                                     02D7   335 PERFTABLE::
                           00000647  02D7   336 	.BLKB	PMS$C_TABLESIZE*IDB$C_ILENGTH	; allocate table space
                                     0647   337
                                     0647   338 ;
                                     0647   339 ; Define the entries in the table.
                                     0647   340 ;
                                     0647   341
                                     0647   342 	BLDIDB	NAME=INTERRUPT,-
                                     0647   343 		SSTRING=<INTER>,-
                                     0647   344 		LSTRING=<TIME ON INTERRUPT STACK>,-
                                     0647   345 		SIZE=LONG,-
                                     0647   346 		TYPE=DIFF,-
                                     0647   347 		ADDR=PMS$GL_KERNEL+<4*4>
                                     0647   348
                                     0647   349 	BLDIDB	NAME=KERNEL,-
                                     0647   350 		SSTRING=<KERNEL>,-
                                     0647   351 		LSTRING=<TIME IN KERNEL MODE>,-
                                     0647   352 		SIZE=LONG,-
                                     0647   353 		TYPE=DIFF,-
                                     0647   354 		ADDR=PMS$GL_KERNEL
                                     0647   355
                                     0647   356 	BLDIDB	NAME=EXEC,-
                                     0647   357 		SSTRING=< EXEC>,-
                                     0647   358 		LSTRING=<TIME IN EXEC MODE>,-
                                     0647   359 		SIZE=LONG,-
                                     0647   360 		TYPE=DIFF,-
                                     0647   361 		ADDR=PMS$GL_KERNEL+<4*1>
                                     0647   362
                                     0647   363 	BLDIDB	NAME=SUPER,-
                                     0647   364 		SSTRING=< SUPER>,-
                                     0647   365 		LSTRING=<TIME IN SUPER MODE>,-
                                     0647   366 		SIZE=LONG,-
                                     0647   367 		TYPE=DIFF,-
                                     0647   368 		ADDR=PMS$GL_KERNEL+<4*2>
DSPDAT          - Data Structures For DISPLAY Program            21-AUG-1978 22:36:22   VAX-11 MACRO X0.3-11               Page   8
X01             DECLARATIONS                                                                                                     (2)

                                     0647   369
                                     0647   370 	BLDIDB	NAME=USER,-
                                     0647   371 		SSTRING=< USER>,-
                                     0647   372 		LSTRING=<TIME IN USER MODE>,-
                                     0647   373 		SIZE=LONG,-
                                     0647   374 		TYPE=DIFF,-
                                     0647   375 		ADDR=PMS$GL_KERNEL+<4*3>
                                     0647   376
                                     0647   377 	BLDIDB	NAME=COMPAT,-
                                     0647   378 		SSTRING=< COMPAT>,-
                                     0647   379 		LSTRING=<TIME IN COMPATIBILITY MODE>,-
                                     0647   380 		SIZE=LONG,-
                                     0647   381 		TYPE=DIFF,-
                                     0647   382 		ADDR=PMS$GL_COMPAT
                                     0647   383
                                     0647   384 	BLDIDB	NAME=IDLE,-
                                     0647   385 		SSTRING=< IDLE>,-
                                     0647   386 		LSTRING=<IDLE TIME>,-
                                     0647   387 		SIZE=LONG,-
                                     0647   388 		TYPE=OWN,-
                                     0647   389 		ADDR=PMS$GL_COMPAT		; phony address
                                     0647   390
                                     0647   391 ;
                                     0647   392 ; Entries for state display
                                     0647   393 ;
                                     0647   394
                                     0647   395 	BLDIDB 	NAME=COLPG,-
                                     0647   396 		SSTRING=<CPG>,-
                                     0647   397 		LSTRING=<COLLIDED PAGE WAIT>,-
                                     0647   398 		SIZE=LONG,-
                                     0647   399 		TYPE=OWN,-
                                     0647   400 		ADDR=0
                                     0647   401
                                     0647   402 	BLDIDB	NAME=MWAIT,-
                                     0647   403 		SSTRING=<MWT>,-
                                     0647   404 		LSTRING=<MUTEX AND MISC. RESOURCE WAIT>,-
                                     0647   405 		SIZE=LONG,-
                                     0647   406 		TYPE=OWN,-
                                     0647   407 		ADDR=0
                                     0647   408
                                     0647   409 	BLDIDB	NAME=CEF,-
                                     0647   410 		SSTRING=<CEF>,-
                                     0647   411 		LSTRING=<COMMON EVENT FLAG WAIT>,-
                                     0647   412 		SIZE=LONG,-
                                     0647   413 		TYPE=OWN,-
                                     0647   414 		ADDR=0
                                     0647   415
                                     0647   416 	BLDIDB 	NAME=PFW,-
                                     0647   417 		SSTRING=<PFW>,-
                                     0647   418 		LSTRING=<PAGE FAULT WAIT>,-
                                     0647   419 		SIZE=LONG,-
                                     0647   420 		TYPE=OWN,-
                                     0647   421 		ADDR=0
                                     0647   422
                                     0647   423 	BLDIDB 	NAME=LEF,-
                                     0647   424 		SSTRING=<LEF>,-
                                     0647   425 		LSTRING=<LOCAL EVENT FLAG WAIT>,-
DSPDAT          - Data Structures For DISPLAY Program            21-AUG-1978 22:36:22   VAX-11 MACRO X0.3-11               Page   9
X01             DECLARATIONS                                                                                                     (2)

                                     0647   426 		SIZE=LONG,-
                                     0647   427 		TYPE=OWN,-
                                     0647   428 		ADDR=0
                                     0647   429
                                     0647   430 	BLDIDB	NAME=LEFO,-
                                     0647   431 		SSTRING=<LFO>,-
                                     0647   432 		LSTRING=<LOCAL EVENT FLAG (OUT OF BALANCE SET)>,-
                                     0647   433 		SIZE=LONG,-
                                     0647   434 		TYPE=OWN,-
                                     0647   435 		ADDR=0
                                     0647   436
                                     0647   437 	BLDIDB	NAME=HIB,-
                                     0647   438 		SSTRING=<HIB>,-
                                     0647   439 		LSTRING=<HIBERNATE WAIT>,-
                                     0647   440 		SIZE=LONG,-
                                     0647   441 		TYPE=OWN,-
                                     0647   442 		ADDR=0
                                     0647   443
                                     0647   444 	BLDIDB	NAME=HIBO,-
                                     0647   445 		SSTRING=<HBO>,-
                                     0647   446 		LSTRING=<HIBERNATE WAIT (OUT OF BALANCE SET)>,-
                                     0647   447 		SIZE=LONG,-
                                     0647   448 		TYPE=OWN,-
                                     0647   449 		ADDR=0
                                     0647   450
                                     0647   451 	BLDIDB	NAME=SUSP,-
                                     0647   452 		SSTRING=<SSP>,-
                                     0647   453 		LSTRING=<SUSPENDED WAIT>,-
                                     0647   454 		SIZE=LONG,-
                                     0647   455 		TYPE=OWN,-
                                     0647   456 		ADDR=0
                                     0647   457
                                     0647   458 	BLDIDB	NAME=SUSPO,-
                                     0647   459 		SSTRING=<SPO>,-
                                     0647   460 		LSTRING=<SUSPENDED WAIT (OUT OF BALANCE SET)>,-
                                     0647   461 		SIZE=LONG,-
                                     0647   462 		TYPE=OWN,-
                                     0647   463 		ADDR=0
                                     0647   464
                                     0647   465 	BLDIDB	NAME=FPG,-
                                     0647   466 		SSTRING=<FPG>,-
                                     0647   467 		LSTRING=<FREE PAGE WAIT>,-
                                     0647   468 		SIZE=LONG,-
                                     0647   469 		TYPE=OWN,-
                                     0647   470 		ADDR=0
                                     0647   471
                                     0647   472 	BLDIDB	NAME=COM,-
                                     0647   473 		SSTRING=<COM>,-
                                     0647   474 		LSTRING=<COMPUTE >,-
                                     0647   475 		SIZE=LONG,-
                                     0647   476 		TYPE=OWN,-
                                     0647   477 		ADDR=0
                                     0647   478
                                     0647   479 	BLDIDB	NAME=COMO,-
                                     0647   480 		SSTRING=<CMO>,-
                                     0647   481 		LSTRING=<COMPUTE (OUT OF BALANCE SET)>,-
                                     0647   482 		SIZE=LONG,-
DSPDAT          - Data Structures For DISPLAY Program            21-AUG-1978 22:36:22   VAX-11 MACRO X0.3-11               Page  10
X01             DECLARATIONS                                                                                                     (2)

                                     0647   483 		TYPE=OWN,-
                                     0647   484 		ADDR=0
                                     0647   485
                                     0647   486 	BLDIDB	NAME=CUR,-
                                     0647   487 		SSTRING=<CUR>,-
                                     0647   488 		LSTRING=<CURRENT PROCESS>,-
                                     0647   489 		SIZE=LONG,-
                                     0647   490 		TYPE=OWN,-
                                     0647   491 		ADDR=0
                                     0647   492
                                     0647   493 ;
                                     0647   494 ; Entries for page statistics display
                                     0647   495 ;
                                     0647   496
                                     0647   497 	BLDIDB	NAME=FAULTS,-
                                     0647   498 		SSTRING=<FAULTS>,-
                                     0647   499 		LSTRING=<PAGE FAULTS>,-
                                     0647   500 		SIZE=LONG,-
                                     0647   501 		TYPE=DIFF,-
                                     0647   502 		ADDR=PMS$GL_FAULTS
                                     0647   503
                                     0647   504 	BLDIDB	NAME=PREADS,-
                                     0647   505 		SSTRING=<RDFLTS>,-
                                     0647   506 		LSTRING=<PAGES READ>,-
                                     0647   507 		SIZE=LONG,-
                                     0647   508 		TYPE=DIFF,-
                                     0647   509 		ADDR=PMS$GL_RDFLTS
                                     0647   510
                                     0647   511 	BLDIDB	NAME=PWRITES,-
                                     0647   512 		SSTRING=<PWRITES>,-
                                     0647   513 		LSTRING=<PAGES WRITTEN>,-
                                     0647   514 		SIZE=LONG,-
                                     0647   515 		TYPE=DIFF,-
                                     0647   516 		ADDR=PMS$GL_PWRITES
                                     0647   517
                                     0647   518 	BLDIDB 	NAME=FREFLTS,-
                                     0647   519 		SSTRING=<FREFLTS>,-
                                     0647   520 		LSTRING=<FREE LIST>,-
                                     0647   521 		SIZE=LONG,-
                                     0647   522 		TYPE=DIFF,-
                                     0647   523 		ADDR=PMS$AL_TRANSFLT+<4*PFN$C_FREPAGLST>
                                     0647   524
                                     0647   525 	BLDIDB	NAME=MFYFLTS,-
                                     0647   526 		SSTRING=<MFYLST>,-
                                     0647   527 		LSTRING=<MODIFIED LIST>,-
                                     0647   528 		SIZE=LONG,-
                                     0647   529 		TYPE=DIFF,-
                                     0647   530 		ADDR=PMS$AL_TRANSFLT+<4*PFN$C_MFYPAGLST>
                                     0647   531
                                     0647   532 	BLDIDB	NAME=DZROFLTS,-
                                     0647   533 		SSTRING=<DZRO>,-
                                     0647   534 		LSTRING=<DEMAND ZERO>,-
                                     0647   535 		SIZE=LONG,-
                                     0647   536 		TYPE=DIFF,-
                                     0647   537 		ADDR=PMS$GL_DZROFLTS
                                     0647   538
                                     0647   539 	BLDIDB	NAME=WRTINPROG,-
DSPDAT          - Data Structures For DISPLAY Program            21-AUG-1978 22:36:22   VAX-11 MACRO X0.3-11               Page  11
X01             DECLARATIONS                                                                                                     (2)

                                     0647   540 		SSTRING=<WRTINPRG>,-
                                     0647   541 		LSTRING=<WRITE IN PROG>,-
                                     0647   542 		SIZE=LONG,-
                                     0647   543 		TYPE=DIFF,-
                                     0647   544 		ADDR=PMS$AL_TRANSFLT+<4*PFN$C_WRTINPROG>
                                     0647   545
                                     0647   546 	BLDIDB	NAME=PWRITIO,-
                                     0647   547 		SSTRING=<PWRITIO>,-
                                     0647   548 		LSTRING=<WRITE I/Os>,-
                                     0647   549 		SIZE=LONG,-
                                     0647   550 		TYPE=DIFF,-
                                     0647   551 		ADDR=PMS$GL_PWRITIO
                                     0647   552
                                     0647   553 	BLDIDB	NAME=PREADIO,-
                                     0647   554 		SSTRING=<PREADIO>,-
                                     0647   555 		LSTRING=<READ I/Os>,-
                                     0647   556 		SIZE=LONG,-
                                     0647   557 		TYPE=DIFF,-
                                     0647   558 		ADDR=PMS$GL_PREADIO
                                     0647   559
                                     0647   560 	BLDIDB	NAME=SYSFAULTS,-
                                     0647   561 		SSTRING=<SYSFLTS>,-
                                     0647   562 		LSTRING=<SYSTEM FAULTS>,-
                                     0647   563 		SIZE=LONG,-
                                     0647   564 		TYPE=DIFF,-
                                     0647   565 		ADDR=SYSFAULTS
                                     0647   566
                                     0647   567 ;
                                     0647   568 ; Entries for Pool display
                                     0647   569 ;
                                     0647   570
                                     0647   571 	BLDIDB	NAME=IRPCNT,-
                                     0647   572 		SSTRING=<IRPCNT>,-
                                     0647   573 		LSTRING=<I/O REQUEST PACKETS LEFT>,-
                                     0647   574 		SIZE=LONG,-
                                     0647   575 		TYPE=VALUE,-
                                     0647   576 		ADDR=IRPCNT
                                     0647   577
                                     0647   578 	BLDIDB	NAME=HOLECNT,-
                                     0647   579 		SSTRING=<HOLES>,-
                                     0647   580 		LSTRING=<NUMBER OF HOLES IN POOL>,-
                                     0647   581 		SIZE=LONG,-
                                     0647   582 		TYPE=VALUE,-
                                     0647   583 		ADDR=HOLECNT
                                     0647   584
                                     0647   585 	BLDIDB	NAME=HOLESUM,-
                                     0647   586 		SSTRING=<SPACE>,-
                                     0647   587 		LSTRING=<TOTAL SPACE LEFT>,-
                                     0647   588 		SIZE=LONG,-
                                     0647   589 		TYPE=VALUE,-
                                     0647   590 		ADDR=HOLESUM
                                     0647   591
                                     0647   592 	BLDIDB	NAME=BIGHOLE,-
                                     0647   593 		SSTRING=<LARGEST>,-
                                     0647   594 		LSTRING=<LARGEST BLOCK>,-
                                     0647   595 		SIZE=LONG,-
                                     0647   596 		TYPE=VALUE,-
DSPDAT          - Data Structures For DISPLAY Program            21-AUG-1978 22:36:22   VAX-11 MACRO X0.3-11               Page  12
X01             DECLARATIONS                                                                                                     (2)

                                     0647   597 		ADDR=BIGHOLE
                                     0647   598
                                     0647   599 	BLDIDB	NAME=SMALLHOLE,-
                                     0647   600 		SSTRING=<SMALLEST>,-
                                     0647   601 		LSTRING=<SMALLEST BLOCK>,-
                                     0647   602 		SIZE=LONG,-
                                     0647   603 		TYPE=VALUE,-
                                     0647   604 		ADDR=SMALLHOLE
                                     0647   605
                                     0647   606 	BLDIDB	NAME=SMALLCNT,-
                                     0647   607 		SSTRING=<# LEQ 32>,-
                                     0647   608 		LSTRING=<NUMBER OF BLOCKS LEQ 32 BYTES>,-
                                     0647   609 		SIZE=LONG,-
                                     0647   610 		TYPE=VALUE,-
                                     0647   611 		ADDR=SMALLCNT
                                     0647   612
                                     0647   613
                                     0647   614
                                     0647   615
                                     0647   616 ;
                                     0647   617 ; Entries for I/O rates display
                                     0647   618 ;
                                     0647   619
                                     0647   620 	BLDIDB	NAME=ISWPCNT,-
                                     0647   621 		SSTRING=<INSWAP>,-
                                     0647   622 		LSTRING=<TOTAL INSWAPS>,-
                                     0647   623 		SIZE=LONG,-
                                     0647   624 		TYPE=DIFF,-
                                     0647   625 		ADDR=SWP$GL_ISWPCNT
                                     0647   626
                                     0647   627 	BLDIDB	NAME=DIRIO,-
                                     0647   628 		SSTRING=<DIRIO>,-
                                     0647   629 		LSTRING=<DIRECT I/Os>,-
                                     0647   630 		SIZE=LONG,-
                                     0647   631 		TYPE=DIFF,-
                                     0647   632 		ADDR=PMS$GL_DIRIO
                                     0647   633
                                     0647   634 	BLDIDB	NAME=BUFIO,-
                                     0647   635 		SSTRING=<BUFIO>,-
                                     0647   636 		LSTRING=<BUFFERED I/Os>,-
                                     0647   637 		SIZE=LONG,-
                                     0647   638 		TYPE=DIFF,-
                                     0647   639 		ADDR=PMS$GL_BUFIO
                                     0647   640
                                     0647   641 	BLDIDB	NAME=MBREADS,-
                                     0647   642 		SSTRING=<MBREADS>,-
                                     0647   643 		LSTRING=<MAILBOX READS>,-
                                     0647   644 		SIZE=LONG,-
                                     0647   645 		TYPE=DIFF,-
                                     0647   646 		ADDR=PMS$GL_MBREADS
                                     0647   647
                                     0647   648 	BLDIDB	NAME=MBWRITES,-
                                     0647   649 		SSTRING=<MBWRITES>,-
                                     0647   650 		LSTRING=<MAILBOX WRITES>,-
                                     0647   651 		SIZE=LONG,-
                                     0647   652 		TYPE=DIFF,-
                                     0647   653 		ADDR=PMS$GL_MBWRITES
DSPDAT          - Data Structures For DISPLAY Program            21-AUG-1978 22:36:22   VAX-11 MACRO X0.3-11               Page  13
X01             DECLARATIONS                                                                                                     (2)

                                     0647   654
                                     0647   655 	BLDIDB	NAME=LOGNAM,-
                                     0647   656 		SSTRING=<LOGNAM>,-
                                     0647   657 		LSTRING=<LOGNAME TRANS>,-
                                     0647   658 		SIZE=LONG,-
                                     0647   659 		TYPE=DIFF,-
                                     0647   660 		ADDR=PMS$GL_LOGNAM
                                     0647   661
                                     0647   662 	BLDIDB	NAME=ACCESS,-
                                     0647   663 		SSTRING=<ACCESS>,-
                                     0647   664 		LSTRING=<FILE LOOKUPS>,-
                                     0647   665 		SIZE=LONG,-
                                     0647   666 		TYPE=DIFF,-
                                     0647   667 		ADDR=PMS$GL_FCP2
                                     0647   668
                                     0647   669 ;
                                     0647   670 ; IDBs for FCP display
                                     0647   671 ;
                                     0647   672
                                     0647   673 	BLDIDB	NAME=FCPCALLS,-
                                     0647   674 		SSTRING=<CALLS>,-
                                     0647   675 		LSTRING=<FCP CALLS>,-
                                     0647   676 		SIZE=LONG,-
                                     0647   677 		TYPE=DIFF,-
                                     0647   678 		ADDR=FCPCALLS
                                     0647   679
                                     0647   680 	BLDIDB	NAME=ALLOC,-
                                     0647   681 		SSTRING=<ALLOC>,-
                                     0647   682 		LSTRING=<ALLOCATIONS>,-
                                     0647   683 		SIZE=LONG,-
                                     0647   684 		TYPE=DIFF,-
                                     0647   685 		ADDR=PMS$GL_FCP2+<4*8>
                                     0647   686
                                     0647   687 	BLDIDB	NAME=FCPCREATE,-
                                     0647   688 		SSTRING=<CREATES>,-
                                     0647   689 		LSTRING=<CREATES>,-
                                     0647   690 		SIZE=LONG,-
                                     0647   691 		TYPE=DIFF,-
                                     0647   692 		ADDR=PMS$GL_FCP2+44
                                     0647   693
                                     0647   694
                                     0647   695 	BLDIDB	NAME=FCPREAD,-
                                     0647   696 		SSTRING=<READS>,-
                                     0647   697 		LSTRING=<DISK READS>,-
                                     0647   698 		SIZE=LONG,-
                                     0647   699 		TYPE=DIFF,-
                                     0647   700 		ADDR=FCPREAD
                                     0647   701
                                     0647   702 	BLDIDB	NAME=FCPWRITE,-
                                     0647   703 		SSTRING=<WRITES>,-
                                     0647   704 		LSTRING=<DISK WRITES>,-
                                     0647   705 		SIZE=LONG,-
                                     0647   706 		TYPE=DIFF,-
                                     0647   707 		ADDR=FCPWRITE
                                     0647   708
                                     0647   709 	BLDIDB	NAME=FCPCACHE,-
                                     0647   710 		SSTRING=<CACHE>,-
DSPDAT          - Data Structures For DISPLAY Program            21-AUG-1978 22:36:22   VAX-11 MACRO X0.3-11               Page  14
X01             DECLARATIONS                                                                                                     (2)

                                     0647   711 		LSTRING=<CACHE HITS>,-
                                     0647   712 		SIZE=LONG,-
                                     0647   713 		TYPE=DIFF,-
                                     0647   714 		ADDR=FCPCACHE
                                     0647   715
                                     0647   716 	BLDIDB	NAME=FCPCPU,-
                                     0647   717 		SSTRING=<CPUTIM>,-
                                     0647   718 		LSTRING=<CPU TICS>,-
                                     0647   719 		SIZE=LONG,-
                                     0647   720 		TYPE=DIFF,-
                                     0647   721 		ADDR=FCPCPU
                                     0647   722
                                     0647   723 	BLDIDB	NAME=FCPTURN,-
                                     0647   724 		SSTRING=<TURNS>,-
                                     0647   725 		LSTRING=<WINDOW TURNS>,-
                                     0647   726 		SIZE=LONG,-
                                     0647   727 		TYPE=DIFF,-
                                     0647   728 		ADDR=PMS$GL_TURN
                                     0647   729
                                     0647   730 	BLDIDB	NAME=FCPSPLIT,-
                                     0647   731 		SSTRING=<SPLIT TRANS.>,-
                                     0647   732 		LSTRING=<SPLIT TRANSFERS>,-
                                     0647   733 		SIZE=LONG,-
                                     0647   734 		TYPE=DIFF,-
                                     0647   735 		ADDR=PMS$GL_SPLIT
                                     0647   736
                                     0647   737 	BLDIDB	NAME=FCPHIT,-
                                     0647   738 		SSTRING=<HITS>,-
                                     0647   739 		LSTRING=<WINDOW HITS>,-
                                     0647   740 		SIZE=LONG,-
                                     0647   741 		TYPE=DIFF,-
                                     0647   742 		ADDR=PMS$GL_HIT
                                     0647   743
                                     0647   744 	BLDIDB	NAME=OPENS,-
                                     0647   745 		SSTRING=<OPENS>,-
                                     0647   746 		LSTRING=<FILE OPENS>,-
                                     0647   747 		SIZE=LONG,-
                                     0647   748 		TYPE=DIFF,-
                                     0647   749 		ADDR=PMS$GL_OPENS
                                     0647   750
                                     0647   751
                                     0647   752 		.END
DSPDAT          - Data Structures For DISPLAY Program            21-AUG-1978 22:36:22   VAX-11 MACRO X0.3-11               Page  15
SYMBOL TABLE                                                                                                                     (2)

$$T1           = 00000647 R     01   OWN_TYPE       = 00000002  G         PHD$L_FREP1VA    00000030
$$VAL          = 00000360            PAGEDCB          00000106 RG    01   PHD$L_FREPTECNT  0000002C
AVGINI           ********   X   01   PAGESTR          00000122 R     01   PHD$L_KSP        00000078
AVG_DISP       = 00000000  G         PAGETITLE        0000012C R     01   PHD$L_P0BR       000000C8
BIGHOLE          ********   X   01   PERFTABLE        000002D7 RG    01   PHD$L_P0LRASTL   000000CC
BIT...         = 00000038            PFN$C_ACTIVE   = 00000007            PHD$L_P1BR       000000D0
BYTE_SIZE      = 00000000  G         PFN$C_BADPAGLST= 00000002            PHD$L_P1LR       000000D4
DCB$C_LENGTH     0000001C            PFN$C_FREPAGLST= 00000000            PHD$L_PAGEFLTS   0000004C
DCB$K_LENGTH     0000001C            PFN$C_GBLWRT   = 00000003            PHD$L_PAGFIL     0000001C
DCB$L_COLLECT    00000010            PFN$C_GLOBAL   = 00000002            PHD$L_PC         000000C0
DCB$L_COUNT      00000004            PFN$C_GPGTBL   = 00000005            PHD$L_PCB        00000078
DCB$L_DISPLAY    00000014            PFN$C_MFYPAGLST= 00000001            PHD$L_PGFLCNT    00000034
DCB$L_INIT       0000000C            PFN$C_PPGTBL   = 00000004            PHD$L_PGFLQUOTA  0000005C
DCB$L_ITMSTR     00000008            PFN$C_PROCESS  = 00000000            PHD$L_PSL        000000C4
DCB$L_TITLE      00000000            PFN$C_RDERR    = 00000004            PHD$L_PSTBASOFF  00000020
DCB$W_MIN        00000018            PFN$C_RDINPROG = 00000006            PHD$L_PTWSLELCK  00000064
DCB$W_RANGE      0000001A            PFN$C_RELPEND  = 00000003            PHD$L_PTWSLEVAL  00000068
DIFF_TYPE      = 00000001  G         PFN$C_SYSTEM   = 00000001            PHD$L_R0         00000088
FCPCACHE         ********   X   01   PFN$C_WRTINPROG= 00000005            PHD$L_R1         0000008C
FCPCALLS         ********   X   01   PFN$M_BADPAG   = 00000020            PHD$L_R10        000000B0
FCPCPU           ********   X   01   PFN$M_BAK      = 007FFFFF            PHD$L_R11        000000B4
FCPDCB           000000C6 RG    01   PFN$M_COLLISION= 00000010            PHD$L_R12        000000B8
FCPREAD          ********   X   01   PFN$M_DELCON   = 00000010            PHD$L_R13        000000BC
FCPSTR           000000FC R     01   PFN$M_GBLBAK   = 00800000            PHD$L_R2         00000090
FCPTITLE         000000E2 R     01   PFN$M_LOC      = 00000007            PHD$L_R3         00000094
FCPWRITE         ********   X   01   PFN$M_MODIFY   = 00000080            PHD$L_R4         00000098
GBL...         = 00000000            PFN$M_PAGTYP   = 00000007            PHD$L_R5         0000009C
GETFCP           ********   X   01   PFN$M_PGFLX    = FF000000            PHD$L_R6         000000A0
GETMODE          ********   X   01   PFN$M_RPTEVT   = 00000040            PHD$L_R7         000000A4
GETPAGE          ********   X   01   PFN$S_BAK      = 00000017            PHD$L_R8         000000A8
GETPOOL          ********   X   01   PFN$S_GBLBAK   = 00000001            PHD$L_R9         000000AC
GETSTATES        ********   X   01   PFN$S_LOC      = 00000003            PHD$L_REFERFLT   00000014
GRAPH6INI        ********   X   01   PFN$S_PAGTYP   = 00000003            PHD$L_SSP        00000080
HHIST            ********   X   01   PFN$S_PGFLX    = 00000008            PHD$L_USP        00000084
HHISTINI         ********   X   01   PFN$V_BADPAG   = 00000005            PHD$L_WSL        00000118
HHIST_DISP     = 00000001  G         PFN$V_BAK      = 00000000            PHD$M_DALCSTX  = 00000002
HOLECNT          ********   X   01   PFN$V_COLLISION= 00000004            PHD$M_PFMFLG   = 00000001
HOLESUM          ********   X   01   PFN$V_DELCON   = 00000004            PHD$M_WSPEAKCHK= 00000004
IDB$C_ILENGTH    00000010            PFN$V_GBLBAK   = 00000017            PHD$Q_PRIVMSK    00000000
IDB$K_ILENGTH    00000010            PFN$V_LOC      = 00000000            PHD$S_ASTLVL   = 00000008
IDB$L_ADDR       0000000C            PFN$V_MODIFY   = 00000007            PHD$S_P0LR     = 00000018
IDB$L_LNAME      00000004            PFN$V_PAGTYP   = 00000000            PHD$V_ASTLVL   = 00000018
IDB$L_SNAME      00000000            PFN$V_PGFLX    = 00000018            PHD$V_DALCSTX  = 00000001
IDB$W_ISIZE      00000008            PFN$V_RPTEVT   = 00000006            PHD$V_P0LR     = 00000000
IDB$W_TYPE       0000000A            PHD$B_ASTLVL     000000CF            PHD$V_PFMFLG   = 00000000
IORATEDCB        0000025D RG    01   PHD$B_DFPFC      00000038            PHD$V_WSPEAKCHK= 00000002
IORATESTR        000002CB R     01   PHD$B_PAGFIL     0000001F            PHD$W_ASTLM      00000044
IORATETITLE      00000279 R     01   PHD$B_PGTBPFC    00000039            PHD$W_BAK        00000048
IRPCNT           ********   X   01   PHD$C_LENGTH     00000118            PHD$W_DFWSCNT    0000001A
LONG_SIZE      = 00000002  G         PHD$C_PHDPAGCTX= 00000008            PHD$W_EMPTPG     000000D8
MODE2DCB         00000038 RG    01   PHD$K_LENGTH     00000118            PHD$W_EXTDYNWS   00000076
MODE3DCB         00000054 RG    01   PHD$L_BIOCNT     00000054            PHD$W_FILLM      00000060
MODEDCB          00000000 RG    01   PHD$L_CPULIM     00000058            PHD$W_FLAGS      0000003A
MODESTR          00000070 RG    01   PHD$L_CPUTIM     0000003C            PHD$W_PHVINDEX   00000046
MODETITLE        0000001C RG    01   PHD$L_DIOCNT     00000050            PHD$W_PRCLM      00000042
NULL             ********   X   01   PHD$L_ESP        0000007C            PHD$W_PST        00000020
OWN_DISP       = 00000002  G         PHD$L_FREP0VA    00000028            PHD$W_PSTBASMAX  0000004A
DSPDAT          - Data Structures For DISPLAY Program            21-AUG-1978 22:36:22   VAX-11 MACRO X0.3-11               Page  16
SYMBOL TABLE                                                                                                                     (2)

PHD$W_PSTFREE    00000026            PMS$C_MFYFLTS  = 0000001C            USERS            ********   X   01
PHD$W_PSTLAST    00000024            PMS$C_MWAIT    = 00000008            VALUE_TYPE     = 00000000  G
PHD$W_PTCNTACT   00000070            PMS$C_OPENS    = 00000036            VHIST            ********   X   01
PHD$W_PTCNTLCK   0000006C            PMS$C_PFW      = 0000000A            VHISTINI         ********   X   01
PHD$W_PTCNTMAX   00000072            PMS$C_PREADIO  = 00000019            WORD_SIZE      = 00000001  G
PHD$W_PTCNTVAL   0000006E            PMS$C_PREADS   = 00000016
PHD$W_QUANT      00000040            PMS$C_PWRITES  = 00000017
PHD$W_TQLM       00000062            PMS$C_PWRITIO  = 00000018
PHD$W_WSAUTH     0000000A            PMS$C_SMALLCNT = 00000024
PHD$W_WSDYN      0000000E            PMS$C_SMALLHOLE= 00000022
PHD$W_WSFLUID    00000074            PMS$C_SUPER    = 00000003
PHD$W_WSLAST     00000012            PMS$C_SUSP     = 0000000F
PHD$W_WSLIST     00000008            PMS$C_SUSPO    = 00000010
PHD$W_WSLOCK     0000000C            PMS$C_SYSFAULTS= 0000001E
PHD$W_WSLX       0000004A            PMS$C_TABLESIZE= 00000037
PHD$W_WSNEXT     00000010            PMS$C_USER     = 00000004
PHD$W_WSQUOTA    00000018            PMS$C_WRTINPROG= 0000001A
PMS$AL_TRANSFLT  ********   X   01   PMS$GL_BUFIO     ********   X   01
PMS$C_ACCESS   = 0000002B            PMS$GL_COMPAT    ********   X   01
PMS$C_ALLOC    = 0000002C            PMS$GL_DIRIO     ********   X   01
PMS$C_BIGHOLE  = 00000021            PMS$GL_DZROFLTS  ********   X   01
PMS$C_BUFIO    = 00000027            PMS$GL_FAULTS    ********   X   01
PMS$C_CEF      = 00000009            PMS$GL_FCP2      ********   X   01
PMS$C_COLPG    = 00000007            PMS$GL_HIT       ********   X   01
PMS$C_COM      = 00000012            PMS$GL_KERNEL    ********   X   01
PMS$C_COMO     = 00000013            PMS$GL_LOGNAM    ********   X   01
PMS$C_COMPAT   = 00000005            PMS$GL_MBREADS   ********   X   01
PMS$C_CUR      = 00000014            PMS$GL_MBWRITES  ********   X   01
PMS$C_DIRIO    = 00000026            PMS$GL_OPENS     ********   X   01
PMS$C_DZROFLTS = 0000001D            PMS$GL_PREADIO   ********   X   01
PMS$C_EXEC     = 00000002            PMS$GL_PWRITES   ********   X   01
PMS$C_FAULTS   = 00000015            PMS$GL_PWRITIO   ********   X   01
PMS$C_FCPCACHE = 00000031            PMS$GL_RDFLTS    ********   X   01
PMS$C_FCPCALLS = 0000002D            PMS$GL_SPLIT     ********   X   01
PMS$C_FCPCPU   = 00000032            PMS$GL_TURN      ********   X   01
PMS$C_FCPCREATE= 0000002E            POOLDCB          0000017E RG    01
PMS$C_FCPHIT   = 00000034            POOLSTR          0000019A R     01
PMS$C_FCPREAD  = 0000002F            POOLTITLE        000001A0 R     01
PMS$C_FCPSPLIT = 00000035            PRINTAVG         ********   X   01
PMS$C_FCPTURN  = 00000033            PRINTRATE        ********   X   01
PMS$C_FCPWRITE = 00000030            RATEDCB          000001B9 RG    01
PMS$C_FPG      = 00000011            RATETITLE        000001D5 R     01
PMS$C_FREFLTS  = 0000001B            S2DCB            0000020B RG    01
PMS$C_HIB      = 0000000D            SMALLCNT         ********   X   01
PMS$C_HIBO     = 0000000E            SMALLHOLE        ********   X   01
PMS$C_HOLECNT  = 00000020            STATEDCB         000001EF RG    01
PMS$C_HOLESUM  = 00000023            STATESTR         0000024F R     01
PMS$C_IDLE     = 00000006            STATETITLE       00000227 R     01
PMS$C_INTERRUPT= 00000000            SWP$GL_ISWPCNT   ********   X   01
PMS$C_IRPCNT   = 0000001F            SYSFAULTS        ********   X   01
PMS$C_ISWPCNT  = 00000025            TOPTEN           ********   X   01
PMS$C_KERNEL   = 00000001            TOPTENDCB        00000077 RG    01
PMS$C_LEF      = 0000000B            TOPTENINI        ********   X   01
PMS$C_LEFO     = 0000000C            TOPTENTITLE      00000093 RG    01
PMS$C_LOGNAM   = 0000002A            TWOCOLINI        ********   X   01
PMS$C_MBREADS  = 00000028            USERDCB          000000AA RG    01
PMS$C_MBWRITES = 00000029            USERINI          ********   X   01
DSPDAT          - Data Structures For DISPLAY Program            21-AUG-1978 22:36:22   VAX-11 MACRO X0.3-11               Page  17
PROGRAM SECTION SYNOPSIS                                                                                                         (2)


PROGRAM SECTION SYNOPSIS

.  ABS  .        00000000      00     NOPIC   USR   CON   ABS   LCL NOSHR NOEXE NORD  NOWRT BYTE
. BLANK .        00000647      01     NOPIC   USR   CON   REL   LCL NOSHR   EXE   RD    WRT BYTE
$ABS$            0000011C      02     NOPIC   USR   CON   ABS   LCL NOSHR   EXE   RD    WRT BYTE
$$STRINGS        000004F7      03     NOPIC   USR   CON   REL   LCL NOSHR   EXE   RD    WRT BYTE


THERE WERE NO ERRORS OR WARNINGS.
15178. BYTES LEFT IN FREE MEMORY POOL.
20. BYTES OF RECLAIMED MEMORY.
OBJ$:DSPDAT,LIS$:DSPDAT/-SP=EXECML$/ML,LIB$:DSPLIB/ML,SRC$:DSPDAT
25 MLB DIR RDS - 449 GETS TO DEFINE 16 MACROS. 44 INTER. FILE WRITES.
