PIPMSG M0022, ERROR MESSAGES FO	MACRO M1110  22-AUG-78 01:34
TABLE OF CONTENTS

     7-    1	**** PIPMSG VERSION M0022 ****
PIPMSG M0022, ERROR MESSAGES FO	MACRO M1110  22-AUG-78 01:34  PAGE 7


      1						.TITLE	PIPMSG M0022, ERROR MESSAGES FOR PIP
						.SBTTL	**** PIPMSG VERSION M0022 ****
						.IDENT	/M0022/
      2					; ALTERED:
      3					; DEBORAH HOLTZ GILLESPIE 9 JAN 76 11:30 A. M.(***)
      4					; ANDREW C. GOLDSTEIN  26-JAN-78  3:00
      5					;
      6					;	B. SCHREIBER	BLS034	CHANGE MSG TO "DEVICE NOT
      7					;				MOUNTED/ALLOCATED"
      8					;
      9					; COPYRIGHT (C) 1977, DIGITAL EQUIPMENT CORP., MAYNARD, MASS.
     10					; COPYRIGHT 1975, DIGITAL EQUIPMENT CORP., MAYNARD MASS.
     11					; COPYRIGHT 1973, DIGITAL EQUIPMENT CORP., MAYNARD MASS.
     12
     13					; THIS SOFTWARE IS FURNISHED TO PURCHASER UNDER A LICENSE FOR USE
     14					; ON A SINGLE COMPUTER SYSTEM AND CAN BE COPIED (WITH INCLUSION
     15					; OF DEC'S COPYRIGHT NOTICE) ONLY FOR USE IN SUCH SYSTEM, EXCEPT
     16					; AS MAY OTHERWISE BE PROVIDED IN WRITING BY DEC.
     17
     18					; THE INFORMATION IN THIS DOCUMENT IS SUBJECT TO CHANGE WITHOUT
     19					; NOTICE AND SHOULD NOT BE CONSTRUED AS A COMMITMENT BY DIGITAL
     20					; EQUIPMENT CORPORATION.
     21
     22					; DEC ASSUMES NO RESPONSIBILITY FOR THE USE OR RELIABILITY
     23					; OF ITS SOFTWARE ON EQUIPMENT WHICH IS NOT SUPPLIED BY DEC.
     24					;
     25					; PETER H. LIPMAN 18-SEP-73
     26					;
     27						.ENABL	LC
     28						.IF	NDF,R$$MSG
     29						.IF	EQ,R$$11M
     30						R$$MSG=1		;SEPARATE MESSAGE FILE FOR RSX11D
     31						.IFF
     32						R$$MSG=0		;MESSAGES IN CORE IMAGE FOR RSX11M
     33						.ENDC
     34						.ENDC
     35		000014 				FF=14
     36		000001 				MSGBL.=1		;FORCE GLOBAL DEFINITIONS
     37		000000 				MSGCT.=0		;INITIALIZE MESSAGE COUNTER
     38					;
     39					; NOTE: THE MESSAGE NAMES ARE 4 CHARACTERS. APPEND "MG"
     40					; TO THE NAME TO GET THE SYMBOLLIC ADDRESS OF THE MESSAGE.
     41					; APPEND "SZ" TO THE NAME TO GET THE SYMBOLLIC SIZE
     42
     43
     44					; COMMAND RECEIVER AND DISPATCHER ERRORS
     45	000000					MSG	CR01,<command syntax error>
     46	000000					MSG	CR02,<illegal switch>
     47	000000					MSG	CR03,<too many command switches - ambiguous>
     48
     49					; COPY FILE ERRORS
     50	000000					MSG	CP01,<only [*,*] is legal as destination UIC>
     51	000000					MSG	CP02,<illegal command>
     52	000000					MSG	CP03,<illegal "*" copy to same device and directory>
     53	000000					MSG	CP04,<bad use of wild cards in destination file name>
     54	000000					MSG	CP05,<explicit output file name required>
     55	000000					MSG	CP10,<allocation failure - no contiguous space>
PIPMSG M0022, ERROR MESSAGES FO	MACRO M1110  22-AUG-78 01:34  PAGE 7-1
**** PIPMSG VERSION M0022 ****

     56	000000					MSG	CP11,<allocation failure - no space available>
     57	000000					MSG	CP12,<allocation failure on output file>
     58	000000					MSG	CP13,<I/O error on input file>
     59	000000					MSG	CP14,<I/O error on output file>
     60	000000					MSG	CP15,<illegal use of wild card version or latest version>
     61	000000					MSG	CP16,<failed to create output UFD>
     62	000000					MSG	CP17,<input files have conflicting attributes>
     63					;
     64					; OPEN OR CLOSE FILE ERROR MESSAGES
     65	000000					MSG	OP01,<open failure on input file>
     66	000000					MSG	OP02,<open failure on output file>
     67	000000					MSG	OP04,<close failure on input file>
     68	000000					MSG	OP05,<close failure on output file>
     69	000000					MSG	OP06,<failed to detach output device>
     70	000000					MSG	OP07,<device not mounted/allocated>
     71	000000					MSG	OP08,<output file already exists - not superseded>
     72					;
     73					; DELETE ERROR MESSAGES
     74	000000					MSG	DE01,<failed to mark file for delete>
     75	000000					MSG	DE02,<file is lost>
     76	000000					MSG	DE04,<version must be explicit or "*">
     77	000000					MSG	DE08,<error from parse>
     78	000000					MSG	DE09,<failed to delete file>
     79					;
     80					; SET UIC ERROR MESSAGES
     81		000000'				UI01MG==CR01MG
     82		000024 				UI01SZ==CR01SZ
     83					;
     84					; SET DEFAULT DEVICE OR UIC ERROR MESSAGES
     85		000000'				DF01MG==CR01MG
     86		000024 				DF01SZ==CR01SZ
     87					;
     88					; DIRECTORY LISTING ERRORS
     89	000000					MSG	DI05,<cannot find directory file>
     90	000000					MSG	DI06,<failed to attach output device>
     91	000000					MSG	DI07,<failed to get time parameters>
     92	000000					MSG	DI08,<not a directory device>
     93					;
     94					; UNLOCK ERROR MESSAGES
     95	000000					MSG	UN01,<failed to write attributes>
     96	000000					MSG	UN02,<failed to read attributes>
     97	000000					MSG	UN03,<file not locked>
     98		000000'				UN04MG==CR01MG
     99		000024 				UN04SZ==CR01SZ
    100					;
    101					; RENAME ERROR MESSAGES
    102	000000					MSG	RE02,<failed to enter new file name>
    103	000000					MSG	RE03,<failed to restore original directory entry - file is lost>
    104	000000					MSG	RE04,<cannot rename from one device to another>
    105					;
    106					; SPOOL ERROR MESSAGES
    107	000000					MSG	SP01,<failed to spool file for printing>
    108	000000					MSG	SP02,<cannot spool by file ID>
    109					;
    110					; FREE BLOCKS ERROR MESSAGES
    111	000000					MSG	FR01,<failed to open storage bitmap file>
    112					;
PIPMSG M0022, ERROR MESSAGES FO	MACRO M1110  22-AUG-78 01:34  PAGE 7-2
**** PIPMSG VERSION M0022 ****

    113					; FIND ERROR MESSAGES
    114	000000					MSG	FI01,<failed to find file(s)>
    115	000000					MSG	FI02,<cannot find file(s)>
    116	000000					MSG	FI03,<no such file(s)>
    117					;
    118					; REMOVE ERROR MESSAGES
    119	000000					MSG	RM01,<failed to remove directory entry>
    120	000000					MSG	RM02,<directory write protected>
    121					;
    122					; DYNAMIC MEMORY ERROR MESSAGES
    123					;
    124	000000					MSG	DY01,<not enough buffer space available>
    125					;
    126					; TRUNCATE ERROR MESSAGES
    127					;
    128	000000					MSG	TR01,<failed to truncate file>
    129					;
    130					;
    131		000001 				.END
PIPMSG M0022, ERROR MESSAGES FO	MACRO M1110  22-AUG-78 01:34  PAGE 7-3
SYMBOL TABLE

AB.CDT  000105   	CP12MG= 000510RG    002	DE08SZ= 000020 G 	MSGCT.= 000000   	RM01SZ= 000040 G
AB.CHU  000064   	CP12SZ= 000041 G 	DE09MG= 001466RG    002	NB.NXD= 020000   	RM02MG= 002450RG    002
AB.EXP  000122   	CP13MG= 000551RG    002	DE09SZ= 000025 G 	NB.WLV= 010000   	RM02SZ= 000031 G
AB.FNU  000000   	CP13SZ= 000027 G 	DF01MG= 000000RG    002	OP01MG= 001014RG    002	R$$DPB= 000001
AB.FP   000062   	CP14MG= 000600RG    002	DF01SZ= 000024 G 	OP01SZ= 000032 G 	R$$DYM= 000001
AB.FSQ  000002   	CP14SZ= 000030 G 	DI05MG= 001513RG    002	OP02MG= 001046RG    002	R$$EIS= 000000
AB.GC   000061   	CP15MG= 000630RG    002	DI05SZ= 000032 G 	OP02SZ= 000033 G 	R$$MSG= 000000
AB.NAM  000006   	CP15SZ= 000062 G 	DI06MG= 001545RG    002	OP04MG= 001101RG    002	R$$VMS= 000001
AB.PC   000060   	CP16MG= 000712RG    002	DI06SZ= 000036 G 	OP04SZ= 000033 G 	R$$11M= 000001
AB.RDT  000070   	CP16SZ= 000033 G 	DI07MG= 001603RG    002	OP05MG= 001134RG    002	SP01MG= 002166RG    002
AB.REV  000066   	CP17MG= 000745RG    002	DI07SZ= 000035 G 	OP05SZ= 000034 G 	SP01SZ= 000041 G
AB.UAT  000020   	CP17SZ= 000047 G 	DI08MG= 001640RG    002	OP06MG= 001170RG    002	SP02MG= 002227RG    002
CP01MG= 000107RG    002	CR01MG= 000000RG    002	DI08SZ= 000026 G 	OP06SZ= 000036 G 	SP02SZ= 000027 G
CP01SZ= 000046 G 	CR01SZ= 000024 G 	DY01MG= 002501RG    002	OP07MG= 001226RG    002	TR01MG= 002542RG    002
CP02MG= 000155RG    002	CR02MG= 000024RG    002	DY01SZ= 000041 G 	OP07SZ= 000034 G 	TR01SZ= 000027 G
CP02SZ= 000017 G 	CR02SZ= 000016 G 	FF    = 000014   	OP08MG= 001262RG    002	UI01MG= 000000RG    002
CP03MG= 000174RG    002	CR03MG= 000042RG    002	FI01MG= 002320RG    002	OP08SZ= 000053 G 	UI01SZ= 000024 G
CP03SZ= 000055 G 	CR03SZ= 000045 G 	FI01SZ= 000026 G 	O$$DS2= 000001   	UN01MG= 001666RG    002
CP04MG= 000251RG    002	DE01MG= 001335RG    002	FI02MG= 002346RG    002	RE02MG= 001770RG    002	UN01SZ= 000032 G
CP04SZ= 000056 G 	DE01SZ= 000036 G 	FI02SZ= 000023 G 	RE02SZ= 000035 G 	UN02MG= 001720RG    002
CP05MG= 000327RG    002	DE02MG= 001373RG    002	FI03MG= 002371RG    002	RE03MG= 002025RG    002	UN02SZ= 000031 G
CP05SZ= 000042 G 	DE02SZ= 000014 G 	FI03SZ= 000017 G 	RE03SZ= 000071 G 	UN03MG= 001751RG    002
CP10MG= 000371RG    002	DE04MG= 001407RG    002	FR01MG= 002256RG    002	RE04MG= 002116RG    002	UN03SZ= 000017 G
CP10SZ= 000050 G 	DE04SZ= 000037 G 	FR01SZ= 000042 G 	RE04SZ= 000050 G 	UN04MG= 000000RG    002
CP11MG= 000441RG    002	DE08MG= 001446RG    002	MSGBL.= 000001   	RM01MG= 002410RG    002	UN04SZ= 000024 G
CP11SZ= 000047 G

. ABS.	000131	   000
      	000000	   001
MSGSTR	002571	   002
ERRORS DETECTED:  0

VIRTUAL MEMORY USED:  3291 WORDS  ( 13 PAGES)
DYNAMIC MEMORY:  3828 WORDS  ( 14 PAGES)
ELAPSED TIME:  00:00:25
OBJ$:PIPMSG,LIS$:PIPMSG/-SP=SRC$:PIPMAC,PIPMSGVAX
