PIPREN M0213, RENAME AND ENTER 	MACRO M1110  22-AUG-78 01:35
TABLE OF CONTENTS

     7-    1	**** PIPREN VERSION M0213 ****
PIPREN M0213, RENAME AND ENTER 	MACRO M1110  22-AUG-78 01:35  PAGE 7


      1						.TITLE	PIPREN M0213, RENAME AND ENTER COMMAND - PIP
						.SBTTL	**** PIPREN VERSION M0213 ****
						.IDENT	/M0213/
      2					; ALTERED:
      3					; ANDREW C. GOLDSTEIN  2-AUG-78  10:26
      4					; B. SCHREIBER	27-AUG-77
      5					;
      6					;	BLS025 -- ADD EXIT WITH STATUS
      7					;
      8					; B. SCHREIBER	7-JUN-78
      9					;
     10					;	BLS052 -- INTEGRATE ODS-2 CHANGES FROM A. GOLDSTEIN AND E.
     11					;		MARISON.
     12					;
     13					; COPYRIGHT (C) 1978, DIGITAL EQUIPMENT CORP., MAYNARD, MASS.
     14					; COPYRIGHT (C) 1977, DIGITAL EQUIPMENT CORP., MAYNARD, MASS.
     15					; COPYRIGHT 1975, DIGITAL EQUIPMENT CORP., MAYNARD MASS.
     16					; COPYRIGHT 1974, DIGITAL EQUIPMENT CORP., MAYNARD MASS.
     17
     18					; THIS SOFTWARE IS FURNISHED TO PURCHASER UNDER A LICENSE FOR USE
     19					; ON A SINGLE COMPUTER SYSTEM AND CAN BE COPIED (WITH INCLUSION
     20					; OF DEC'S COPYRIGHT NOTICE) ONLY FOR USE IN SUCH SYSTEM, EXCEPT
     21					; AS MAY OTHERWISE BE PROVIDED IN WRITING BY DEC.
     22
     23					; THE INFORMATION IN THIS DOCUMENT IS SUBJECT TO CHANGE WITHOUT
     24					; NOTICE AND SHOULD NOT BE CONSTRUED AS A COMMITMENT BY DIGITAL
     25					; EQUIPMENT CORPORATION.
     26
     27					; DEC ASSUMES NO RESPONSIBILITY FOR THE USE OR RELIABILITY
     28					; OF ITS SOFTWARE ON EQUIPMENT WHICH IS NOT SUPPLIED BY DEC.
     29					;
     30
     31					; PETER H. LIPMAN	2-MAY-74
     32	000000					FLDSOF
     33						.MCALL	CSI$,FDOF$L,FCSBT$,IOERR$
     34	000000					CSI$
     35	000000					FDOF$L			;DEFINE THE FDB OFFSETS LOCALLY
     36	000000					FCSBT$			;DEFINE THE FDB BITS AND VALUES LOCALLY
     37	000000					IOERR$			;DEFINE THE I/O ERROR CODES LOCALLY
     38
     39						.MCALL	CALL,RETURN,FDOP$R
     40
     41
     42	000000					PURE.I
     43
     44					; RENAME INPUT FILE TO OUTPUT NAME
     45	000000				ENTER::
     46	000000	016767 	000000G	000000G	RENAME::MOV	.OULCL,.LCLSW	;LOCAL SWITCHES ON OUTSPEC ARE STICKY
     47	000006	005767 	000000G			TST	INSPEC		;REQUIRE AN INPUT SPECIFIER
     48	000012	001003 				BNE	10$
     49	000014					ERROUX	CP02		;ILLEGAL COMMAND
	000014	104403 				TRAP	X
	000016	000000G				.WORD	CP02SZ
	000020	000000G				.WORD	CP02MG
     50	000022	005767 	000000G		10$:	TST	OFNPT+N.DEVD	;IF NO EXPLICIT OUTPUT DEVICE
     51	000026	001006 				BNE	30$
     52	000030	016767 	000000G	000000G		MOV	IFNPT+N.DEVD,OFNPT+N.DEVD ;USE THE INPUT DEV SPEC
PIPREN M0213, RENAME AND ENTER 	MACRO M1110  22-AUG-78 01:35  PAGE 7-1
**** PIPREN VERSION M0213 ****

     53	000036	016767 	000002G	000002G		MOV	IFNPT+N.DEVD+2,OFNPT+N.DEVD+2
     54	000044	012700 	000000G		30$:	MOV	#SYDFLT,R0
     55	000050	005001 				CLR	R1
     56	000052	005002 				CLR	R2
     57	000054					CALL	STNBK1		;INIT SYSDFLT NAMBLK
     58	000060					FDOP$R	#FDBOUT,,#OFNPT,#SYDFLT
     59	000100					CALL	PARSE
     60	000104	103007 				BCC	40$
     61	000106					CALL	PRSERR		;ERROR FROM PARSE
     62	000112	012767 	000000G	000000G		MOV	#EX$ERR,.EXSTS	;MAKE IT AN ERROR
     63	000120	000167 	000000G			JMP	CLOSX
     64	000124	032767 	000001 	000000G	40$:	BIT	#CS.NMF,OUSPEC	;NULL FILE NAME = *.*;*
     65	000132	001007 				BNE	45$
     66						.IF DF	O$$DS2								;BLS052
     67	000134	032761 	000007 	000020 		BIT	#NB.NAM!NB.TYP!NB.VER,N.STAT(R1) ; DID NAME COME FROM		;BLS052
     68	000142	001003 				BNE	45$		; LOGICAL NAME BRANCH IF SO			;BLS052
     69						.ENDC									;BLS052
     70	000144	052761 	000000G	000020 		BIS	#NB.SFN,N.STAT(R1)
     71	000152				45$:	CALL	CWLDUI		;CHECK FOR LEGAL WILD CARD UIC
     72	000156	103003 				BCC	50$
     73	000160					ERROUX	CP01
	000160	104403 				TRAP	X
	000162	000000G				.WORD	CP01SZ
	000164	000000G				.WORD	CP01MG
     74	000166	032761 	000010 	000020 	50$:	BIT	#NB.SVR,N.STAT(R1) ;IF NOT WILD CARD
     75	000174	001012 				BNE	60$
     76	000176	005761 	000016 			TST	N.FVER(R1)	;AND IF 0 VERSION NUMBER
     77	000202	001007 				BNE	60$
     78	000204	032761 	000001 	000020 		BIT	#NB.VER,N.STAT(R1) ;AND EXPLICITLY 0
     79	000212	001403 				BEQ	60$
     80	000214	052767 	000000G	000000G		BIS	#NVERBT,CPYCTL ;FORCE NEW VERSION BIT
     81	000222				60$:	FDOP$R	#FDBIN,,#IFNPT,#NAMBLK
     82	000242	005001 				CLR	R1
     83	000244	005002 				CLR	R2
     84	000246					CALL	STNMBK		;INIT DEFAULT NAMBLK
     85	000252	005767 	000000G			TST	IFNPT+N.DEVD	;IF NO EXPLICIT INPUT DEVICE
     86	000256	001006 				BNE	RENAM1
     87	000260	016767 	000134G	000032G		MOV	FDBOUT+F.DVNM,NAMBLK+N.DVNM ;USE OUTPUT DEVICE
     88	000266	016767 	000136G	000034G		MOV	FDBOUT+F.UNIT,NAMBLK+N.UNIT
     89	000274	052767 	000000G	000000G	RENAM1:	BIS	#FRSTIM,CPYCTL
     90	000302					CALL	PARSE		;PARSE THE INPUT SPEC
     91	000306	103004 				BCC	1$
     92	000310					CALL	PRSERR
     93	000314	000167 	000576 			JMP	RNMNXT
     94	000320	132760 	000010 	000017 	1$:	BITB	#FD.DIR,F.RCTL(R0) ;MUST BE A DIRECTORY DEVICE
     95	000326	001003 				BNE	2$		;BRANCH IF IT IS
     96	000330					ERROUX	DI08,1		;ERROR
	000330	104413 				TRAP	X
	000332	000000G				.WORD	DI08SZ
	000334	000000G				.WORD	DI08MG
     97	000336	016067 	000120 	000000G	2$:	MOV	F.FVER(R0),VERSAV
     98	000344	026767 	000134G	000134G		CMP	FDBIN+F.DVNM,FDBOUT+F.DVNM
     99	000352	001004 				BNE	3$		;BRANCH IF DEVICES ARE DIFFERENT
    100	000354	026767 	000136G	000136G		CMP	FDBIN+F.UNIT,FDBOUT+F.UNIT
    101	000362	001407 				BEQ	4$
    102					; DEVICES ARE DIFFERENT - ERROR
    103	000364				3$:	ERROUT	RE04,0
PIPREN M0213, RENAME AND ENTER 	MACRO M1110  22-AUG-78 01:35  PAGE 7-2
**** PIPREN VERSION M0213 ****

	000364	104406 				TRAP	X
	000366	000000G				.WORD	RE04SZ
	000370	000000G				.WORD	RE04MG
    104	000372					CALL	SETWAR		;SET WARNING STATUS
    105	000376	000167 	000514 			JMP	RNMNXT
    106	000402	032767 	000000G	000002G	4$:	BIT	#ENTRBT,CMDWRD+2
    107	000410	001011 				BNE	5$
    108						.IF DF	O$$DS2								;BLS052
    109	000412	032761 	000001 	000020 		BIT	#NB.VER,N.STAT(R1) ;VERSION MUST BE EXPLICIT IF WILD NAME	;BLS052
    110	000420	001005 				BNE	5$								;BLS052
    111						.ENDC									;BLS052
    112	000422					CALL	WLDVER		;WILD CARD VERSION CHECK IF RENAME
    113	000426	103002 				BCC	5$
    114	000430	000167 	000462 			JMP	RNMNXT
    115	000434	032767 	000001 	000000G	5$:	BIT	#CS.NMF,INSPEC	;NULL INPUT FILE NAME = *.*;*
    116	000442	001012 				BNE	8$
    117	000444	005762 	000016 			TST	N.FLID(R2)	;R2 FROM PARSE, FILE ID SPECIFIED?
    118	000450	001007 				BNE	8$		;BRANCH IF YES
    119						.IF DF	O$$DS2								;BLS052
    120	000452	032761 	000007 	000020 		BIT	#NB.NAM!NB.TYP!NB.VER,N.STAT(R1) ; IF FILE NAME FROM		;BLS052
    121	000460	001003 				BNE	8$		; PARSE LOGICAL NAME THEN BRANCH		;BLS052
    122						.ENDC									;BLS052
    123	000462	052761 	000000G	000020 		BIS	#NB.SFN,N.STAT(R1) ;R1 FROM PARSE, SET WILD CARDS
    124	000470	032767 	000000G	000002G	8$:	BIT	#ENTRBT,CMDWRD+2
    125	000476	001004 				BNE	10$		;BRANCH IF ENTER RATHER THAN RENAME
    126	000500					CALL	RMVNXT
    127	000504	103577 				BCS	70$
    128	000506	000403 				BR	15$
    129	000510				10$:										;BLS052
    130						.IF NDF	O$$DS2								;BLS052
    131						MOV	VERSAV,F.FVER(R0)						;BLS052
    132						.ENDC									;BLS052
    133	000510					CALL	FNDNXT		;FIND NEXT IF ENTERING				;**-1
    134	000514	103576 				BCS	75$
    135	000516	042767 	000000G	000000G	15$:	BIC	#FRSTIM,CPYCTL
    136					;
    137					; SET WILD CARD OR UNSPECIFIED FIELDS OF OUTPUT FILE NAME BLOCK TO
    138					; EQUIVALENT INPUT FILE NAME BLOCK FIELDS
    139	000524	012701 	000102G			MOV	#FDBOUT+F.FNB,R1
    140	000530	016102 	000020 			MOV	N.STAT(R1),R2
    141	000534	012703 	000004 			MOV	#NB.NAM,R3
    142
    143						.IF	GT,R$$EIS
    144						XOR	R3,R2
    145						.IFF
    146	000540					CALL	XOR
    147						.ENDC
    148
    149	000544	032702 	000044 			BIT	#NB.NAM!NB.SNM,R2 ;WILD CARD OR UNSPECIFIED NAME?
    150	000550	001411 				BEQ	20$		;BRANCH IF NO
    151	000552	016061 	000110 	000006 		MOV	F.FNAM(R0),N.FNAM(R1) ;USE DEFAULT NAME
    152	000560	016061 	000112 	000010 		MOV	F.FNAM+2(R0),N.FNAM+2(R1)
    153	000566	016061 	000114 	000012 		MOV	F.FNAM+4(R0),N.FNAM+4(R1)
    154	000574	012703 	000002 		20$:	MOV	#NB.TYP,R3
    155						.IF	GT,R$$EIS
    156						XOR	R3,R2
    157						.IFF
PIPREN M0213, RENAME AND ENTER 	MACRO M1110  22-AUG-78 01:35  PAGE 7-3
**** PIPREN VERSION M0213 ****

    158	000600					CALL	XOR
    159						.ENDC
    160
    161	000604	032702 	000022 			BIT	#NB.TYP!NB.STP,R2 ;WILD CARD OR UNSPECIFIED TYPE?
    162	000610	001403 				BEQ	30$		;BRANCH IF NO
    163	000612	016061 	000116 	000014 		MOV	F.FTYP(R0),N.FTYP(R1) ;USE DEFAULT TYPE
    164	000620	012703 	000001 		30$:	MOV	#NB.VER,R3
    165
    166						.IF	GT,R$$EIS
    167						XOR	R3,R2
    168						.IFF
    169	000624					CALL	XOR
    170						.ENDC
    171
    172	000630	032702 	000011 			BIT	#NB.VER!NB.SVR,R2 ;WILD CARD OR UNSPECIFIED VERSION?
    173	000634	001415 				BEQ	40$		;BRANCH IF NO
    174						.IF	DF,R$$VMS
    175	000636	005061 	000120 			CLR	F.FVER(R1)	;ASSUME NEW VERSION
    176	000642	032760 	000010 	000122 		BIT	#NB.SVR,F.FNB+N.STAT(R0) ;SEE IF WILD CARD INPUT VERSION
    177	000650	001004 				BNE	35$		;BRANCH IF YES - USE INPUT VERSION
    178	000652	032767 	000000G	000000G		BIT	#NVERBT,CPYCTL	;SEE IF /NV SPECIFIED
    179	000660	001003 				BNE	40$		;BRANCH IF YES - LEAVE OUTPUT VERSION 0
    180						.ENDC
    181	000662	016061 	000120 	000016 	35$:	MOV	F.FVER(R0),N.FVER(R1) ;USE DEFAULT VERSION
    182					;
    183					; FOR ENTER, IF OUTPUT DIRECTORY IS WILD CARD, AND FOR RENAME,
    184					; IF OUTPUT DIRECTORY IS WILD CARD OR NULL, USE INPUT DIRECTORY
    185	000670	012703 	000100 		40$:	MOV	#NB.DIR,R3
    186						.IF	GT,R$$EIS
    187						XOR	R3,R2
    188						.IFF
    189	000674					CALL	XOR
    190						.ENDC
    191	000700	032767 	000000G	000002G		BIT	#ENTRBT,CMDWRD+2 ; SEE IF THIS IS AN ENTER
    192	000706	001403 				BEQ	41$		; NO
    193	000710	032702 	000000G			BIT	#NB.SDI,R2	; CHECK FOR WILD CARD UIC ONLY
    194	000714	000402 				BR	43$
    195	000716	032702 	000000C		41$:	BIT	#NB.DIR!NB.SDI,R2 ; CHECK FOR WILD OR DEFAULT UIC
    196	000722	001411 			43$:	BEQ	42$
    197	000724	016061 	000126 	000024 		MOV	F.FNB+N.DID(R0),N.DID(R1)
    198	000732	016061 	000130 	000026 		MOV	F.FNB+N.DID+2(R0),N.DID+2(R1)
    199	000740	016061 	000132 	000030 		MOV	F.FNB+N.DID+4(R0),N.DID+4(R1)
    200	000746	016061 	000102 	000000 	42$:	MOV	F.FNB+N.FID(R0),N.FID(R1) ;SET FILE ID TO ENTER
    201	000754	016061 	000104 	000002 		MOV	F.FNB+N.FID+2(R0),N.FID+2(R1)
    202	000762	016061 	000106 	000004 		MOV	F.FNB+N.FID+4(R0),N.FID+4(R1)
    203	000770	012700 	000000G			MOV	#FDBOUT,R0
    204						.IF	NDF,R$$VMS
    205						BIT	#NVERBT,CPYCTL	;IF NEW VERSION DESIRED
    206						BEQ	44$
    207						CLR	N.FVER(R1)	;ZERO THE VERSION TO BE ENTERED
    208						.ENDC
    209	000774				44$:	CALL	.ENTER
    210	001000	103032 				BCC	50$
    211					;
    212					; ERROR FROM ENTER, IF RENAMING, MUST REENTER THE ORIGINAL NAME
    213	001002	116004 	000052 			MOVB	F.ERR(R0),R4
    214	001006	022704 	177707 			CMP	#IE.DUP,R4	;IF DUPLICATE ENTRY
PIPREN M0213, RENAME AND ENTER 	MACRO M1110  22-AUG-78 01:35  PAGE 7-4
**** PIPREN VERSION M0213 ****

    215	001012	001002 				BNE	45$
    216	001014	012704 	177717 			MOV	#IE.FEX,R4	;USE FILE ALREADY EXITS ERROR
    217	001020				45$:	ERROUT	RE02,0,R4
	001020	104446 				TRAP	X
	001022	000000G				.WORD	RE02SZ
	001024	000000G				.WORD	RE02MG
    218	001026	032767 	000000G	000002G		BIT	#ENTRBT,CMDWRD+2
    219	001034	001014 				BNE	50$
    220	001036	012700 	000000G			MOV	#FDBIN,R0
    221	001042	012701 	000102G			MOV	#FDBIN+F.FNB,R1
    222	001046					CALL	.ENTER		;REENTER THE REMOVED ENTRY
    223	001052	103005 				BCC	50$
    224	001054					ERROUT	RE03,0,0	;FILE IS LOST
	001054	104426 				TRAP	X
	001056	000000G				.WORD	RE03SZ
	001060	000000G				.WORD	RE03MG
    225	001062					CALL	SETWAR		;MAKE IT A WARNING
    226	001066	012700 	000000G		50$:	MOV	#FDBIN,R0
    227	001072					CALL	NXTFIL		;ANY MORE FILES IN THIS FILE SPECIFIER?
    228	001076	103407 				BCS	RNMNXT		;BRANCH IF NO
    229	001100	000167 	177364 			JMP	8$
    230					;
    231					; ERROR FROM REMOVE NEXT
    232	001104				70$:	CALL	RMVERR
    233	001110	000402 				BR	RNMNXT
    234					;
    235					; ERROR FROM FIND NEXT
    236	001112				75$:	CALL	FNDERR		;OTHERWISE, NORMAL FIND ERROR
    237					;
    238					; GET NEXT INPUT FILE SPECIFIER TO RENAME
    239	001116				RNMNXT:	CALL	NXTIN
    240	001122	103002 				BCC	10$
    241	001124	000167 	000000G			JMP	CLOSX
    242	001130	000167 	177140 		10$:	JMP	RENAM1
    243						.IF	EQ,R$$EIS
    244					;
    245					; ROUTINE TO DO XOR R3,R2 ON NON-EIS MACHINES
    246					;
    247	001134	010246 			XOR:	MOV	R2,-(SP)
    248	001136	040302 				BIC	R3,R2
    249	001140	042603 				BIC	(SP)+,R3
    250	001142	050302 				BIS	R3,R2
    251	001144					RETURN
    252
    253						.ENDC
    254
    255					;
    256					;
    257		000001 				.END
PIPREN M0213, RENAME AND ENTER 	MACRO M1110  22-AUG-78 01:35  PAGE 7-5
SYMBOL TABLE

AB.CDT  000105   	FA.TMP= 000020   	F.EFBK= 000010   	IE.DNA= 177771   	IE.WER= 177737
AB.CHU  000064   	FA.WCK= 020000   	F.EFN = 000050   	IE.DNR= 177775   	IE.WLK= 177764
AB.EXP  000122   	FA.WRT= 000002   	F.EOBB= 000032   	IE.DUN= 177767   	IE.2DV= 177720
AB.FNU  000000   	FDBIN = ****** GX	F.ERR = 000052   	IE.DUP= 177707   	IFNPT = ****** GX
AB.FP   000062   	FDBOUT= ****** GX	F.FACC= 000043   	IE.EOF= 177766   	INSPEC= ****** GX
AB.FSQ  000002   	FD.BLK= 000010   	F.FFBY= 000014   	IE.EOT= 177702   	IS.BV = 000005
AB.GC   000061   	FD.CCL= 000002   	F.FNAM= 000110   	IE.EOV= 177765   	IS.CC = 001401
AB.NAM  000006   	FD.COM= 020000   	F.FNB = 000102   	IE.EXP= 177665   	IS.CR = 006401
AB.PC   000060   	FD.CR = 000002   	F.FTYP= 000116   	IE.FEX= 177717   	IS.EOT= 002001
AB.RDT  000070   	FD.DIR= 000010   	F.FVER= 000120   	IE.FHE= 177705   	IS.ESC= 015401
AB.REV  000066   	FD.FTN= 000001   	F.HIBK= 000004   	IE.FLN= 177657   	IS.ESQ= 115401
AB.UAT  000020   	FD.F11= 040000   	F.LUN = 000042   	IE.FOP= 177713   	IS.PES= 100001
CH.AND= 000001   	FD.INS= 000010   	F.MBCT= 000054   	IE.HFU= 177744   	IS.PND= 000000
CLOSX = ****** GX	FD.ISP= 002000   	F.MBC1= 000055   	IE.IES= 177656   	IS.RDD= 000002
CMDWRD= ****** GX	FD.MNT= 100000   	F.MBFG= 000056   	IE.IFC= 177776   	IS.SUC= 000001
CPYCTL= ****** GX	FD.OSP= 004000   	F.NRBD= 000024   	IE.IFU= 177747   	IS.TAB= 004401
CP01MG= ****** GX	FD.PLC= 000004   	F.NREC= 000030   	IE.ILL= 177726   	IS.TMO= 000002
CP01SZ= ****** GX	FD.PRN= 000004   	F.OVBS= 000030   	IE.ISQ= 177703   	NAMBLK= ****** GX
CP02MG= ****** GX	FD.PSE= 010000   	F.RACC= 000016   	IE.LCK= 177745   	NB.DEV= 000200
CP02SZ= ****** GX	FD.RAH= 000001   	F.RATT= 000001   	IE.MOD= 177753   	NB.DIR= 000100
CS.DIF= 000002   	FD.RAN= 000002   	F.RCNM= 000034   	IE.NBF= 177731   	NB.NAM= 000004
CS.DVF= 000004   	FD.REC= 000001   	F.RCTL= 000017   	IE.NBK= 177727   	NB.NXD= 020000
CS.EQU= 000040   	FD.RWM= 000001   	F.RSIZ= 000002   	IE.NDR= 177670   	NB.SDI= ****** GX
CS.INP= 000001   	FD.SDI= 000020   	F.RTYP= 000000   	IE.NFI= 177704   	NB.SD1= 000400
CS.MOR= 000020   	FD.SQD= 000040   	F.SEQN= 000100   	IE.NFW= 177673   	NB.SD2= 001000
CS.NMF= 000001   	FD.TTY= 000004   	F.SPDV= 000072   	IE.NLK= 177661   	NB.SFN= ****** GX
CS.OUT= 000002   	FD.WBH= 000002   	F.SPUN= 000074   	IE.NLN= 177733   	NB.SNM= 000040
CS.WLD= 000010   	FF.CHR= 000005   	F.STBK= 000036   	IE.NNC= 177663   	NB.STP= 000020
CWLDUI= ****** GX	FF.NV = 000003   	F.UNIT= 000136   	IE.NNL= 177662   	NB.SVR= 000010
C.CMLD= 000002   	FF.POE= 000002   	F.URBD= 000020   	IE.NNN= 177674   	NB.TYP= 000002
C.DEVD= 000006   	FF.RWD= 000001   	F.VBN = 000064   	IE.NOD= 177751   	NB.VER= 000001
C.DIRD= 000012   	FF.RWF= 000006   	F.VBSZ= 000060   	IE.NSF= 177746   	NB.WLV= 010000
C.DSDS= 000006   	FF.SPC= 000004   	IE.ABO= 177761   	IE.NST= 177660   	NVERBT= ****** GX
C.FILD= 000016   	FNDERR= ****** GX	IE.ALC= 177654   	IE.OFL= 177677   	NXTFIL= ****** GX
C.MKW1= 000024   	FNDNXT= ****** GX	IE.ALN= 177736   	IE.ONP= 177773   	NXTIN = ****** GX
C.MKW2= 000026   	FO.APD= 000106   	IE.AST= 177660   	IE.OVR= 177756   	N.DEVD= 000000
C.SIZE= 000054   	FO.MFY= 000002   	IE.BAD= 177777   	IE.PES= 177655   	N.DID = 000024
C.STAT= 000001   	FO.RD = 000001   	IE.BBE= 177710   	IE.PRI= 177760   	N.DIRD= 000004
C.SWAD= 000022   	FO.UPD= 000006   	IE.BCC= 177676   	IE.RAC= 177724   	N.DVNM= 000032
C.TYPR= 000000   	FO.WRT= 000016   	IE.BDI= 177714   	IE.RAT= 177723   	N.FID = 000000
DI08MG= ****** GX	FRSTIM= ****** GX	IE.BDR= 177716   	IE.RBG= 177730   	N.FLID= 000016
DI08SZ= ****** GX	F.ACTL= 000076   	IE.BDV= 177711   	IE.RCN= 177722   	N.FNAM= 000006
ENTER   000000RG    002	F.ALOC= 000040   	IE.BHD= 177700   	IE.RER= 177740   	N.FNMD= 000010
ENTRBT= ****** GX	F.BBFS= 000062   	IE.BLB= 177672   	IE.RNM= 177715   	N.FTYP= 000014
EX$ERR= ****** GX	F.BDB = 000070   	IE.BLK= 177754   	IE.RSU= 177757   	N.FVER= 000016
FA.APD= 000100   	F.BGBC= 000057   	IE.BNM= 177712   	IE.SNC= 177735   	N.NEXT= 000022
FA.CRE= 000010   	F.BKDN= 000026   	IE.BTF= 177664   	IE.SPC= 177772   	N.SPEC= 000014
FA.DLK= 001000   	F.BKDS= 000020   	IE.BTP= 177725   	IE.SQC= 177734   	N.STAT= 000020
FA.ENB= 100000   	F.BKEF= 000050   	IE.BVR= 177701   	IE.SRE= 177762   	N.UNIT= 000034
FA.EXC= 002000   	F.BKP1= 000051   	IE.BYT= 177755   	IE.STK= 177706   	OFNPT = ****** GX
FA.EXT= 000004   	F.BKST= 000024   	IE.CKS= 177742   	IE.TMM= 177671   	OUSPEC= ****** GX
FA.NSP= 000100   	F.BKVB= 000064   	IE.CLO= 177732   	IE.TMO= 177666   	O$$DS2= 000001
FA.POS= 010000   	F.CHR = 000075   	IE.CNR= 177667   	IE.ULK= 177653   	PARSE = ****** GX
FA.RD = 000001   	F.CNTG= 000034   	IE.CON= 177752   	IE.VER= 177774   	PAR$$$= 000027
FA.RWD= 004000   	F.DFNB= 000046   	IE.DAA= 177770   	IE.WAC= 177743   	PRSERR= ****** GX
FA.SEQ= 040000   	F.DSPT= 000044   	IE.DAO= 177763   	IE.WAT= 177741   	RENAME  000000RG    002
FA.SHR= 000040   	F.DVNM= 000134   	IE.DFU= 177750   	IE.WCK= 177652   	RENAM1  000274R     002
PIPREN M0213, RENAME AND ENTER 	MACRO M1110  22-AUG-78 01:35  PAGE 7-6
SYMBOL TABLE

RE02MG= ****** GX	R$$DPB= 000001   	STNBK1= ****** GX	S.FNB = 000036   	XOR     001134R     002
RE02SZ= ****** GX	R$$DYM= 000001   	STNMBK= ****** GX	S.FNBW= 000017   	$$MSG = 000000
RE03MG= ****** GX	R$$EIS= 000000   	SYDFLT= ****** GX	S.FNTY= 000004   	.ENTER= ****** GX
RE03SZ= ****** GX	R$$VMS= 000001   	S.APPD= 000010   	S.FTYP= 000002   	.EXSTS= ****** GX
RE04MG= ****** GX	R$$11M= 000001   	S.FATT= 000016   	S.NFEN= 000020   	.LCLSW= ****** GX
RE04SZ= ****** GX	R.FIX = 000001   	S.FDB = 000140   	VERSAV= ****** GX	.OULCL= ****** GX
RMVERR= ****** GX	R.SEQ = 000003   	S.FIDS= 000014   	WLDVER= ****** GX	...GBL= 000000
RMVNXT= ****** GX	R.VAR = 000002   	S.FNAM= 000006   	X     = 000026   	...TPC= 000140
RNMNXT  001116R     002	SETWAR= ****** GX

. ABS.	000131	   000
      	000000	   001
PURE$I	001146	   002
ERRORS DETECTED:  0

VIRTUAL MEMORY USED:  6786 WORDS  ( 27 PAGES)
DYNAMIC MEMORY:  8052 WORDS  ( 30 PAGES)
ELAPSED TIME:  00:00:32
OBJ$:PIPREN,LIS$:PIPREN/-SP=SRC$:PIPMAC,PIPREN
