ALLGBL          - Define all GLOBAL entry points available to u  22-AUG-1978 06:28:08   VAX-11 MACRO X0.3-11               Page   1
0-29                                                                                                                             (1)

                                     0000   100 .IF NDF	RTLVECTOR
                                     0000   200 	.TITLE	ALLGBL - Define all GLOBAL entry points available to users
                                     0000   300 .IFF
                                     0000   400 	.TITLE	RTLVECTOR - Define entry vectors for RTL
                                     0000   500 .ENDC
                                     0000   600 	.IDENT	/0-29/		; File: ALLGBL.MAR or RTLVECTOR.MAR+ALLGBL.MAR
                                     0000   700
                                     0000   800 ; 0-1	- Remove all internal entry points.  TNH 23-June-78
                                     0000   900 ; 0-2	- Define entry vector macro.  TNH 23-June-78
                                     0000  1000 ; 0-6	- Remove LIB$INITIALIZE, change INI_DEC to JSB.  TNH 26-June-78
                                     0000  1100 ; 0-7	- Make 8 byte vectors.  TNH 27-June-78
                                     0000  1200 ; 0-8	- Add PSECTs.  TNH 28-June-78
                                     0000  1300 ; 0-9	- Add FUTURE.  TNH 28-June-78
                                     0000  1400 ; 0-10	- Add LIB$CVT_ATx.  TNH 28-June-78
                                     0000  1500 ; 0-11	- Rearrange contents of vector for FORTRAN.  TNH 4-July-78
                                     0000  1600 ;	- NOTE: incompatible with 0-10.!!!!
                                     0000  1700 ; 0-14	- Make vector be contiguous.  TNH 7-July-78
                                     0000  1800 ; 0-16	- Change LIB$SCOPY, OTS$SCOPY.  TNH 10-July-78
                                     0000  1900 ; 0-17	- Remove user vector page.  TNH 27-July-78
                                     0000  2000 ;	NOTE: Incompatible with 0-16!!!!!!!!!!!!!
                                     0000  2100 ; 0-19	- Remove LIB$K_VERSION.  TNH 1-Aug-78
                                     0000  2200 ; 0-20	- Make DXDD and R_DD FUTURE.  TNH 1-Aug-78
                                     0000  2300 ; 0-21	- Fix FURURE to FUTURE.  TNH 1-Aug-78
                                     0000  2400 ; 0-22	- Add FOR$$CB_PUSH, FOR$$CB_POP, FOR$$ERRSNS_SAV vectors. TNH 1-Aug-78
                                     0000  2500 ; 0-25	- Declare .PSECT with proper attributes.  TNH 2-Aug-78
                                     0000  2600 ; 0-26	- Remove FOR$$CLOSE_FILE entry vector.  TNH 2-Aug-78
                                     0000  2700 ; 0-27	- Include FOR$$CB_RET, called from FOR$$ERROR which is loaded
                                     0000  2800 ;	  from default OBJ library if compatibility routines.  TNH 2-Aug-78
                                     0000  2900 ; 0-28	- Add FOR$$CB_GET and remove LIB$SCOPY_xxDDn FUTUREs.  TNH 2-Aug-78
                                     0000  3000 ; 0-29	- Add comments about $$ entry points.  TNH 3-Aug-78
ALLGBL          - Define all GLOBAL entry points available to u  22-AUG-1978 06:28:08   VAX-11 MACRO X0.3-11               Page   2
0-29                                                                                                                             (2)

                                     0000   100 ;+
                                     0000   200 ; Define MAC to either generate .EXTRN declarations or entry vector
                                     0000   300 ; depending on whether the symbol RTLVECTOR is defined or not.
                                     0000   400 ;
                                     0000   500 ; To assemble RTLVECTOR, use @MARVECTOR.COM.
                                     0000   600 ;
                                     0000   700 ;
                                     0000   800 ; call:	MAC	VEC_TYPE, VEC_AREA, SYMBOL, MASK
                                     0000   900 ;
                                     0000  1000 ; where	VEC_TYPE is:	CALL	- call entry point transfer vector
                                     0000  1100 ;			JSB	- JSB entry point transfer vector
                                     0000  1200 ;			NOVECT	- do not have a transfer vector
                                     0000  1300 ;			SYM	- this is a symbol, not an entry point
                                     0000  1400 ;			FUTURE	- this is a proposed entry point, not yet
                                     0000  1500 ;				implemented, but space reserved.
                                     0000  1600 ;	VEC_AREA is:	FOR	- FORTRAN entry points
                                     0000  1700 ;			LIB	- library entry points
                                     0000  1800 ;			MTH	- Math library entry points
                                     0000  1900 ;			OTS	- Language independent entry points
                                     0000  2000 ;	SYMBOL is:	any entry point symbol
                                     0000  2100 ;	MASK is:	optional entry mask if not same as SYMBOL
                                     0000  2200 ;
                                     0000  2300 ;	Each entry vector is 8 bytes long for speed and for future
                                     0000  2400 ;	where we may need to branch more than 32K away or may need to
                                     0000  2500 ;	dispatch to another global section.
                                     0000  2600 ;
                                     0000  2700 ;	ALLOCATION OF VECTOR SPACE:
                                     0000  2800
                                     0000  2900 ;	Vector space is allocated primarily by facility, with each
                                     0000  3000 ;	facility packed adjacent to the next.
                                     0000  3100 ;	In future releases, the facilities will be come more mixed up.
                                     0000  3200 ;	However, this is not problem, since the RTL will be one
                                     0000  3300 ;	shared image section now and forever, since it is attached
                                     0000  3400 ;	to the end of the user program and is therefore able
                                     0000  3500 ;	to grow indefinitely in future releases without requiring
                                     0000  3600 ;	re-linking of user programs because of  help from
                                     0000  3700 ;	its friends (the LINKER and image activator).
                                     0000  3800 ;
                                     0000  3900 ;	The order and size of vector space is:
                                     0000  4000 ;
                                     0000  4100 ;	FOR$	69 entry points
                                     0000  4200 ;	MTH$	53 entry points
                                     0000  4300 ;	OTS$	14 entry points
                                     0000  4400 ;	LIB$	35 entry points
                                     0000  4500 ;
                                     0000  4600 ;	PSECT names are of form $$VEC_n_fac
                                     0000  4700 ;	where: n is increasing number for alphabetic sorting by linker
                                     0000  4800 ;		and fac is facility prefix.
                                     0000  4900 ;-
                                     0000  5000
ALLGBL          - Define all GLOBAL entry points available to u  22-AUG-1978 06:28:08   VAX-11 MACRO X0.3-11               Page   3
0-29                                                                                                                             (3)

                                     0000   100 .MACRO	MAC	VEC_TYPE, VEC_AREA, SYMBOL, MASK
                                     0000   200 .IF NDF	RTLVECTOR			; Just generate .EXTRN references?
                                     0000   300     .IF DIF VEC_TYPE, FUTURE		; except if future entry point
                                     0000   400 	.EXTRN	SYMBOL			; yes
                                     0000   500     .ENDC
                                     0000   600 .IFF					; or generate entry VECTOR?
                                     0000   700     .IF IDN	VEC_TYPE, JSB
                                     0000   800 	.TRANSFER	SYMBOL
                                     0000   900 	BRW	SYMBOL			; branch to JSB routine
                                     0000  1000 	.BYTE	0,0,0,0,0		; fill out to 8 bytes
                                     0000  1100     .ENDC
                                     0000  1200
                                     0000  1300     .IF IDN	VEC_TYPE, CALL
                                     0000  1400 	.TRANSFER	SYMBOL
                                     0000  1500       .IF B MASK
                                     0000  1600 	.MASK	SYMBOL
                                     0000  1700       .IFF
                                     0000  1800 	.MASK	MASK			; get mask from other name
                                     0000  1900       .ENDC
                                     0000  2000 	BRW	SYMBOL+2		; branch to CALL+2 routine
                                     0000  2100 	.BYTE	0,0,0			; fill out to 8 bytes
                                     0000  2200     .ENDC
                                     0000  2300
                                     0000  2400     .IF IDN	VEC_TYPE, FUTURE	; Reserve space for future vector?
                                     0000  2500 	.BYTE	0,0,0,0,0,0,0,0		; leave 8 bytes
                                     0000  2600     .ENDC
                                     0000  2700
                                     0000  2800 .ENDC
                                     0000  2900 .ENDM
                                     0000  3000
                                     0000  3100 	.LIST	MEB			; generate listing for code generated
                                     0000  3200
                                     0000  3300
                                     0000  3400 .IF NDF	RTLVECTOR
                               0000' 0000  3500 	.ENTRY	START, ^M<>
                                 04  0002  3600 	RET
                                     0003  3700 .IFF					; RTLVECTOR
                                     0003  3800 	.PSECT	RTL$$VECTOR PIC,USR,CON,REL,LCL,SHR,EXE,RD,NOWRT,PAGE
                                     0003  3900 START:					; always define START for .END
                                     0003  4000 .ENDC
                                     0003  4100
                                     0003  4200
                                     0003  4300
ALLGBL          - Define all GLOBAL entry points available to u  22-AUG-1978 06:28:08   VAX-11 MACRO X0.3-11               Page   4
0-29                                                                                                                             (4)

                                     0003   100 ;+
                                     0003   200 ; FORTRAN compatibility routines - do not VECTOR
                                     0003   300 ;-
                                     0003   400
                                     0003   500
                                     0003   600 ; MODULE:COM$ASSIGN
                                     0003   700 	MAC	NOVECT	COM	ASSIGN
                                     0003   800
                                     0003   900 ; MODULE:COM$CLOSE
                                     0003  1000 	MAC	NOVECT	COM	CLOSE
                                     0003  1100
                                     0003  1200 ; MODULE:COM$ERRSET
                                     0003  1300 	MAC	NOVECT	COM	ERRSET
                                     0003  1400
                                     0003  1500 ; MODULE:COM$ERRTST
                                     0003  1600 	MAC	NOVECT	COM	ERRTST
                                     0003  1700
                                     0003  1800 ; MODULE:COM$FDBSET
                                     0003  1900 	MAC	NOVECT	COM	FDBSET
                                     0003  2000
                                     0003  2100 ; MODULE:COM$IRAD50
                                     0003  2200 	MAC	NOVECT	COM	IRAD50
                                     0003  2300
                                     0003  2400 ; MODULE:COM$R50ASC
                                     0003  2500 	MAC	NOVECT	COM	R50ASC
                                     0003  2600
                                     0003  2700 ; MODULE:COM$RAD50
                                     0003  2800 	MAC	NOVECT	COM	RAD50
                                     0003  2900
                                     0003  3000 ; MODULE:COM$USEREX
                                     0003  3100 	MAC	NOVECT	COM	USEREX
ALLGBL          - Define all GLOBAL entry points available to u  22-AUG-1978 06:28:08   VAX-11 MACRO X0.3-11               Page   5
0-29                                                                                                                             (5)

                                     0003   100 ;+
                                     0003   200 ; FORTRAN entry points
                                     0003   300 ; Put most frequently used FORTRAN entry points together first,
                                     0003   400 ; ie. I/O and OPEN and CLOSE.
                                     0003   500 ;-
                                     0003   600
                                     0003   700 ; MODULE:FOR$CLOSE
                                     0003   800 	MAC	CALL	FOR	FOR$CLOSE
                                     0003   900 ; MODULE:FOR$ENTRY
                                     0003  1000 	MAC	CALL	FOR	FOR$DECODE_MF	FOR$$IO_BEG
                                     0003  1100
                                     0003  1200 	MAC	CALL	FOR	FOR$DECODE_MO	FOR$$IO_BEG
                                     0003  1300 	MAC	CALL	FOR	FOR$ENCODE_MF	FOR$$IO_BEG
                                     0003  1400 	MAC	CALL	FOR	FOR$ENCODE_MO	FOR$$IO_BEG
                                     0003  1500
                                     0003  1600 ;+
                                     0003  1700 ; ***************************************************************
                                     0003  1800 ; The following 32 entry points are arranged so that the compiler
                                     0003  1900 ; could load a base register with the address of FOR$IO_END
                                     0003  2000 ; and reach the initialization and element transmit routines
                                     0003  2100 ; using byte displacement.
                                     0003  2200 ;-
                                     0003  2300
                                     0003  2400 	MAC	FUTURE	FOR
                                     0003  2500 	MAC	FUTURE	FOR
                                     0003  2600 	MAC	CALL	FOR	FOR$READ_DF	FOR$$IO_BEG
                                     0003  2700
                                     0003  2800 	MAC	CALL	FOR	FOR$READ_DO	FOR$$IO_BEG
                                     0003  2900 	MAC	CALL	FOR	FOR$READ_DU	FOR$$IO_BEG
                                     0003  3000 	MAC	CALL	FOR	FOR$READ_SF	FOR$$IO_BEG
                                     0003  3100 	MAC	CALL	FOR	FOR$READ_SL	FOR$$IO_BEG
                                     0003  3200
                                     0003  3300 	MAC	CALL	FOR	FOR$READ_SO	FOR$$IO_BEG
                                     0003  3400 	MAC	CALL	FOR	FOR$READ_SU	FOR$$IO_BEG
                                     0003  3500 	MAC	CALL	FOR	FOR$WRITE_DF	FOR$$IO_BEG
                                     0003  3600 	MAC	CALL	FOR	FOR$WRITE_DO	FOR$$IO_BEG
                                     0003  3700
                                     0003  3800 	MAC	CALL	FOR	FOR$WRITE_DU	FOR$$IO_BEG
                                     0003  3900 	MAC	CALL	FOR	FOR$WRITE_SF	FOR$$IO_BEG
                                     0003  4000 	MAC	CALL	FOR	FOR$WRITE_SL	FOR$$IO_BEG
                                     0003  4100 	MAC	CALL	FOR	FOR$WRITE_SO	FOR$$IO_BEG
                                     0003  4200
                                     0003  4300 	MAC	CALL	FOR	FOR$WRITE_SU	FOR$$IO_BEG
                                     0003  4400
                                     0003  4500 ; MODULE:FOR$IO_END
                                     0003  4600 	MAC	CALL	FOR	FOR$IO_END
                                     0003  4700
                                     0003  4800 ; MODULE:FOR$IO_ELEM
                                     0003  4900
                                     0003  5000 	MAC	CALL	FOR	FOR$IO_F_R
                                     0003  5100 	MAC	CALL	FOR	FOR$IO_F_V
                                     0003  5200 	MAC	CALL	FOR	FOR$IO_D_R
                                     0003  5300 	MAC	CALL	FOR	FOR$IO_D_V
                                     0003  5400
                                     0003  5500 	MAC	CALL	FOR	FOR$IO_L_R
                                     0003  5600 	MAC	CALL	FOR	FOR$IO_L_V
                                     0003  5700 	MAC	CALL	FOR	FOR$IO_B_R
ALLGBL          - Define all GLOBAL entry points available to u  22-AUG-1978 06:28:08   VAX-11 MACRO X0.3-11               Page   6
0-29                                                                                                                             (5)

                                     0003  5800 	MAC	CALL	FOR	FOR$IO_B_V
                                     0003  5900
                                     0003  6000 	MAC	CALL	FOR	FOR$IO_T_DS
                                     0003  6100
                                     0003  6200 	MAC	CALL	FOR	FOR$IO_W_R
                                     0003  6300 	MAC	CALL	FOR	FOR$IO_W_V
                                     0003  6400 	MAC	FUTURE	FOR
                                     0003  6500 	MAC	FUTURE	FOR
                                     0003  6600 	MAC	FUTURE	FOR
                                     0003  6700 	MAC	FUTURE	FOR
                                     0003  6800 ;+
                                     0003  6900 ; End of 32 entry region with FOR$IO_END as middle.
                                     0003  7000 ; *************************************************
                                     0003  7100 ;-
                                     0003  7200
                                     0003  7300 	MAC	FUTURE	FOR
                                     0003  7400 	MAC	FUTURE	FOR
                                     0003  7500 	MAC	CALL	FOR	FOR$IO_T_V_DS
                                     0003  7600 	MAC	CALL	FOR	FOR$IO_FC_R
                                     0003  7700 	MAC	CALL	FOR	FOR$IO_FC_V
                                     0003  7800 	MAC	CALL	FOR	FOR$IO_LU_R
                                     0003  7900 	MAC	CALL	FOR	FOR$IO_LU_V
                                     0003  8000 	MAC	CALL	FOR	FOR$IO_WU_R
                                     0003  8100 	MAC	CALL	FOR	FOR$IO_WU_V
                                     0003  8200 	MAC	CALL	FOR	FOR$IO_X_DA
                                     0003  8300
                                     0003  8400 ; MODULE:FOR$OPEN
                                     0003  8500 	MAC	CALL	FOR	FOR$OPEN
                                     0003  8600
                                     0003  8700 ;+
                                     0003  8800 ; Rest of FOR$ entries alphabetical order
                                     0003  8900 ;-
                                     0003  9000
                                     0003  9100 ; MODULE:FOR$BACKSPACE
                                     0003  9200 	MAC	CALL	FOR	FOR$BACKSPACE
                                     0003  9300
                                     0003  9400 ; MODULE:FOR$CNVOI
                                     0003  9500 	MAC	CALL	FOR	FOR$CNV_OUT_I
                                     0003  9600 	MAC	CALL	FOR	FOR$CNV_OUT_L
                                     0003  9700 	MAC	CALL	FOR	FOR$CNV_OUT_O
                                     0003  9800 	MAC	CALL	FOR	FOR$CNV_OUT_Z
                                     0003  9900
                                     0003 10000 ; MODULE:FOR$CNV_OUT
                                     0003 10100 	MAC	CALL	FOR	FOR$CNV_OUT_D
                                     0003 10200 	MAC	CALL	FOR	FOR$CNV_OUT_E
                                     0003 10300 	MAC	CALL	FOR	FOR$CNV_OUT_F
                                     0003 10400 	MAC	CALL	FOR	FOR$CNV_OUT_G
                                     0003 10500
                                     0003 10600 ; MODULE:FOR$DATE
                                     0003 10700 	MAC	NOVECT	FOR	FOR$DATE
                                     0003 10800
                                     0003 10900 ; MODULE:FOR$DATE_T_DS
                                     0003 11000 	MAC	NOVECT	FOR	FOR$DATE_T_DS
                                     0003 11100
                                     0003 11200 ; MODULE:FOR$DEFINE_FILE
                                     0003 11300 	MAC	CALL	FOR	FOR$DEF_FILE
                                     0003 11400 	MAC	CALL	FOR	FOR$DEF_FILE_W
ALLGBL          - Define all GLOBAL entry points available to u  22-AUG-1978 06:28:08   VAX-11 MACRO X0.3-11               Page   7
0-29                                                                                                                             (5)

                                     0003 11500
                                     0003 11600 ; MOUDLE FOR$ENDFILE
                                     0003 11700 	MAC	CALL	FOR	FOR$ENDFILE
                                     0003 11800
                                     0003 11900 ; MODULE:FOR$ENODEF
                                     0003 12000 	MAC	SYM	FOR	FOR$K_ADJARRDIM
                                     0003 12100 	MAC	SYM	FOR	FOR$K_ARRREFOUT
                                     0003 12200 	MAC	SYM	FOR	FOR$K_ATTREANON
                                     0003 12300 	MAC	SYM	FOR	FOR$K_BACERR
                                     0003 12400
                                     0003 12500 	MAC	SYM	FOR	FOR$K_CLOERR
                                     0003 12600 	MAC	SYM	FOR	FOR$K_DECSTROVE
                                     0003 12700 	MAC	SYM	FOR	FOR$K_DUPFILSPE
                                     0003 12800 	MAC	SYM	FOR	FOR$K_ENDDURREA
                                     0003 12900 	MAC	SYM	FOR	FOR$K_ENDFILERR
                                     0003 13000 	MAC	SYM	FOR	FOR$K_ERRDURREA
                                     0003 13100 	MAC	SYM	FOR	FOR$K_ERRDURWRI
                                     0003 13200 	MAC	SYM	FOR	FOR$K_FAC_NO
                                     0003 13300
                                     0003 13400 	MAC	SYM	FOR	FOR$K_FILNAMSPE
                                     0003 13500 	MAC	SYM	FOR	FOR$K_FILNOTFOU
                                     0003 13600 	MAC	SYM	FOR	FOR$K_FLOOVE
                                     0003 13700 	MAC	SYM	FOR	FOR$K_FLOUND
                                     0003 13800
                                     0003 13900 	MAC	SYM	FOR	FOR$K_FLOZERDIV
                                     0003 14000 	MAC	SYM	FOR	FOR$K_FORVARMIS
                                     0003 14100 	MAC	SYM	FOR	FOR$K_INCOPECLO
                                     0003 14200 	MAC	SYM	FOR	FOR$K_INCRECLEN
                                     0003 14300 	MAC	SYM	FOR	FOR$K_INFFORLOO
                                     0003 14400 	MAC	SYM	FOR	FOR$K_INPCONERR
                                     0003 14500 	MAC	SYM	FOR	FOR$K_INPRECTOO
                                     0003 14600 	MAC	SYM	FOR	FOR$K_INPSTAREQ
                                     0003 14700 	MAC	SYM	FOR	FOR$K_INSVIRMEM
                                     0003 14800 	MAC	SYM	FOR	FOR$K_INTOVF
                                     0003 14900 	MAC	SYM	FOR	FOR$K_INTZERDIV
                                     0003 15000 	MAC	SYM	FOR	FOR$K_INVARGFOR
                                     0003 15100 	MAC	SYM	FOR	FOR$K_INVLOGUNI
                                     0003 15200 	MAC	SYM	FOR	FOR$K_KEYVALERR
                                     0003 15300 	MAC	SYM	FOR	FOR$K_LISIO_SYN
                                     0003 15400 	MAC	SYM	FOR	FOR$K_MAXLUNERR
                                     0003 15500 	MAC	SYM	FOR	FOR$K_MAX_ERR
                                     0003 15600 	MAC	SYM	FOR	FOR$K_MINLUNERR
                                     0003 15700 	MAC	SYM	FOR	FOR$K_MIXFILACC
                                     0003 15800 	MAC	SYM	FOR	FOR$K_MORONEREC
                                     0003 15900 	MAC	SYM	FOR	FOR$K_NOTFORSPE
                                     0003 16000 	MAC	SYM	FOR	FOR$K_NO_SUCDEV
                                     0003 16100 	MAC	SYM	FOR	FOR$K_OPEDEFREQ
                                     0003 16200 	MAC	SYM	FOR	FOR$K_OPEFAI
                                     0003 16300
                                     0003 16400 	MAC	SYM	FOR	FOR$K_OUTCONERR
                                     0003 16500 	MAC	SYM	FOR	FOR$K_OUTSTAOVE
                                     0003 16600 	MAC	SYM	FOR	FOR$K_RECIO_OPE
                                     0003 16700 	MAC	SYM	FOR	FOR$K_RECNUMOUT
                                     0003 16800 	MAC	SYM	FOR	FOR$K_RECSPEERR
                                     0003 16900 	MAC	SYM	FOR	FOR$K_REWERR
                                     0003 17000 	MAC	SYM	FOR	FOR$K_SEGRECFOR
                                     0003 17100 	MAC	SYM	FOR	FOR$K_SYNERRFOR
ALLGBL          - Define all GLOBAL entry points available to u  22-AUG-1978 06:28:08   VAX-11 MACRO X0.3-11               Page   8
0-29                                                                                                                             (5)

                                     0003 17200 	MAC	SYM	FOR	FOR$K_UNIALROPE
                                     0003 17300 	MAC	SYM	FOR	FOR$K_VFEVALERR
                                     0003 17400 	MAC	SYM	FOR	FOR$K_WRIREAFIL
                                     0003 17500
                                     0003 17600 ; MODULE:FOR$ERRSNS		; See also end where FOR$$ERRSNS_SAV declared
                                     0003 17700 	MAC	CALL	FOR	FOR$ERRSNS
                                     0003 17800 	MAC	CALL	FOR	FOR$ERRSNS_W
                                     0003 17900
                                     0003 18000 ; MODULE:FOR$EXIT
                                     0003 18100 	MAC	CALL	FOR	FOR$EXIT
                                     0003 18200 	MAC	CALL	FOR	FOR$EXIT_W
                                     0003 18300
                                     0003 18400 ; MODULE:FOR$FCNVIR
                                     0003 18500 	MAC	CALL	FOR	FOR$CNV_IN_DEFG
                                     0003 18600
                                     0003 18700 ; MODULE:FOR$FIND
                                     0003 18800 	MAC	CALL	FOR	FOR$FIND
                                     0003 18900
                                     0003 19000 ; MODULE:FOR$FORCNVII
                                     0003 19100 	MAC	CALL	FOR	FOR$CNV_IN_I
                                     0003 19200 	MAC	CALL	FOR	FOR$CNV_IN_L
                                     0003 19300 	MAC	CALL	FOR	FOR$CNV_IN_O
                                     0003 19400 	MAC	CALL	FOR	FOR$CNV_IN_Z
                                     0003 19500
                                     0003 19600 ; MODULE:FOR$IDATE
                                     0003 19700 	MAC	NOVECT	FOR	FOR$IDATE
                                     0003 19800
                                     0003 19900 ; MODULE:FOR$INI_DES
                                     0003 20000 	MAC	JSB	FOR	FOR$INI_DES1_R2
                                     0003 20100 	MAC	JSB	FOR	FOR$INI_DES2_R3
                                     0003 20200 	MAC	JSB	FOR	FOR$INI_DESC_R6
                                     0003 20300
                                     0003 20400 ; MODULE:FOR$JDATE
                                     0003 20500 	MAC	NOVECT	FOR	FOR$JDATE
                                     0003 20600
                                     0003 20700 ; MODULE:FOR$MSGDEF
                                     0003 20800 	MAC	SYM	FOR	FOR$_ADJARRDIM
                                     0003 20900 	MAC	SYM	FOR	FOR$_ATTREANON
                                     0003 21000 	MAC	SYM	FOR	FOR$_BACERR
                                     0003 21100 	MAC	SYM	FOR	FOR$_CLOERR
                                     0003 21200
                                     0003 21300 	MAC	SYM	FOR	FOR$_DUPFILSPE
                                     0003 21400 	MAC	SYM	FOR	FOR$_ENDDURREA
                                     0003 21500 	MAC	SYM	FOR	FOR$_ENDFILERR
                                     0003 21600 	MAC	SYM	FOR	FOR$_ERRDURREA
                                     0003 21700
                                     0003 21800 	MAC	SYM	FOR	FOR$_ERRDURWRI
                                     0003 21900 	MAC	SYM	FOR	FOR$_FILNAMSPE
                                     0003 22000 	MAC	SYM	FOR	FOR$_FILNOTFOU
                                     0003 22100 	MAC	SYM	FOR	FOR$_FORVARMIS
                                     0003 22200
                                     0003 22300 	MAC	SYM	FOR	FOR$_INCOPECLO
                                     0003 22400 	MAC	SYM	FOR	FOR$_INCRECLEN
                                     0003 22500 	MAC	SYM	FOR	FOR$_INFFORLOO
                                     0003 22600 	MAC	SYM	FOR	FOR$_INPCONERR
                                     0003 22700
                                     0003 22800 	MAC	SYM	FOR	FOR$_INPRECTOO
ALLGBL          - Define all GLOBAL entry points available to u  22-AUG-1978 06:28:08   VAX-11 MACRO X0.3-11               Page   9
0-29                                                                                                                             (5)

                                     0003 22900 	MAC	SYM	FOR	FOR$_INPSTAREQ
                                     0003 23000 	MAC	SYM	FOR	FOR$_INSVIRMEM
                                     0003 23100 	MAC	SYM	FOR	FOR$_INVARGFOR
                                     0003 23200
                                     0003 23300 	MAC	SYM	FOR	FOR$_INVLOGUNI
                                     0003 23400 	MAC	SYM	FOR	FOR$_KEYVALERR
                                     0003 23500 	MAC	SYM	FOR	FOR$_LISIO_SYN
                                     0003 23600 	MAC	SYM	FOR	FOR$_MIXFILACC
                                     0003 23700
                                     0003 23800 	MAC	SYM	FOR	FOR$_MORONEREC
                                     0003 23900 	MAC	SYM	FOR	FOR$_NOTFORSPE
                                     0003 24000 	MAC	SYM	FOR	FOR$_NO_SUCDEV
                                     0003 24100 	MAC	SYM	FOR	FOR$_OPEDEFREQ
                                     0003 24200
                                     0003 24300 	MAC	SYM	FOR	FOR$_OPEFAI
                                     0003 24400 	MAC	SYM	FOR	FOR$_OUTCONERR
                                     0003 24500 	MAC	SYM	FOR	FOR$_OUTSTAOVE
                                     0003 24600 	MAC	SYM	FOR	FOR$_RECIO_OPE
                                     0003 24700
                                     0003 24800 	MAC	SYM	FOR	FOR$_RECNUMOUT
                                     0003 24900 	MAC	SYM	FOR	FOR$_RECSPEERR
                                     0003 25000 	MAC	SYM	FOR	FOR$_REWERR
                                     0003 25100 	MAC	SYM	FOR	FOR$_SEGRECFOR
                                     0003 25200
                                     0003 25300 	MAC	SYM	FOR	FOR$_SYNERRFOR
                                     0003 25400 	MAC	SYM	FOR	FOR$_UNIALROPE
                                     0003 25500 	MAC	SYM	FOR	FOR$_VFEVALERR
                                     0003 25600 	MAC	SYM	FOR	FOR$_WRIREAFIL
                                     0003 25700
                                     0003 25800 ; MODULE:FOR$PAUSE
                                     0003 25900 	MAC	CALL	FOR	FOR$PAUSE
                                     0003 26000
                                     0003 26100 ; MODULE:FOR$RANDOM
                                     0003 26200 	MAC	NOVECT	FOR	FOR$IRAN
                                     0003 26300 	MAC	NOVECT	FOR	FOR$RANDU
                                     0003 26400 	MAC	NOVECT	FOR	FOR$RANDU_W
                                     0003 26500
                                     0003 26600 ; MODULE:FOR$REWIND
                                     0003 26700 	MAC	CALL	FOR	FOR$REWIND
                                     0003 26800
                                     0003 26900 ; MODULE:FOR$SECNDS
                                     0003 27000 	MAC	CALL	FOR	FOR$SECNDS
                                     0003 27100
                                     0003 27200 ; MODULE:FOR$STOP
                                     0003 27300 	MAC	CALL	FOR	FOR$STOP
                                     0003 27400
                                     0003 27500 ; MODULE:FOR$TIME
                                     0003 27600 	MAC	NOVECT	FOR	FOR$TIME
                                     0003 27700
                                     0003 27800 ; MODULE:FOR$TIME_T_DS
                                     0003 27900 	MAC	NOVECT	FOR	FOR$TIME_T_DS
                                     0003 28000
ALLGBL          - Define all GLOBAL entry points available to u  22-AUG-1978 06:28:08   VAX-11 MACRO X0.3-11               Page  10
0-29                                                                                                                             (6)

                                     0003   100 ;+
                                     0003   200 ; Mathematical library entry points
                                     0003   300 ; Include the frequently used ones first (ones with JSBs)
                                     0003   400 ;-
                                     0003   500
                                     0003   600 ; MODULE:MTH$ACOS
                                     0003   700 	MAC	CALL	MTH	MTH$ACOS
                                     0003   800 	MAC	JSB	MTH	MTH$ACOS_R5
                                     0003   900
                                     0003  1000 ; MODULE:MTH$ALOG
                                     0003  1100 	MAC	CALL	MTH	MTH$ALOG
                                     0003  1200 	MAC	CALL	MTH	MTH$ALOG10
                                     0003  1300 	MAC	JSB	MTH	MTH$ALOG10_R5
                                     0003  1400 	MAC	JSB	MTH	MTH$ALOG_R5
                                     0003  1500
                                     0003  1600 ; MODULE:MTH$ASIN
                                     0003  1700 	MAC	CALL	MTH	MTH$ASIN
                                     0003  1800 	MAC	JSB	MTH	MTH$ASIN_R5
                                     0003  1900
                                     0003  2000 ; MODULE:MTH$ATAN
                                     0003  2100 	MAC	CALL	MTH	MTH$ATAN
                                     0003  2200 	MAC	CALL	MTH	MTH$ATAN2
                                     0003  2300 	MAC	JSB	MTH	MTH$ATAN_R4
                                     0003  2400
                                     0003  2500 ; MODULE:MTH$DACOS
                                     0003  2600 	MAC	CALL	MTH	MTH$DACOS
                                     0003  2700 	MAC	JSB	MTH	MTH$DACOS_R9
                                     0003  2800
                                     0003  2900 ; MODULE:MTH$DASIN
                                     0003  3000 	MAC	CALL	MTH	MTH$DASIN
                                     0003  3100 	MAC	JSB	MTH	MTH$DASIN_R9
                                     0003  3200
                                     0003  3300 ; MODULE:MTH$DATAN
                                     0003  3400 	MAC	CALL	MTH	MTH$DATAN
                                     0003  3500 	MAC	CALL	MTH	MTH$DATAN2
                                     0003  3600 	MAC	JSB	MTH	MTH$DATAN_R7
                                     0003  3700
                                     0003  3800 ; MODULE:MTH$DEXP
                                     0003  3900 	MAC	CALL	MTH	MTH$DEXP
                                     0003  4000 	MAC	JSB	MTH	MTH$DEXP_R7
ALLGBL          - Define all GLOBAL entry points available to u  22-AUG-1978 06:28:08   VAX-11 MACRO X0.3-11               Page  11
0-29                                                                                                                             (7)

                                     0003   100 ; MODULE:MTH$DLOG
                                     0003   200 	MAC	CALL	MTH	MTH$DLOG
                                     0003   300 	MAC	CALL	MTH	MTH$DLOG10
                                     0003   400 	MAC	JSB	MTH	MTH$DLOG10_R8
                                     0003   500 	MAC	JSB	MTH	MTH$DLOG_R8
                                     0003   600
                                     0003   700 ; MODULE:MTH$DSINCOS
                                     0003   800 	MAC	CALL	MTH	MTH$DCOS
                                     0003   900 	MAC	JSB	MTH	MTH$DCOS_R7
                                     0003  1000 	MAC	CALL	MTH	MTH$DSIN
                                     0003  1100 	MAC	JSB	MTH	MTH$DSIN_R7
                                     0003  1200
                                     0003  1300 ; MODULE:MTH$DSQRT
                                     0003  1400 	MAC	CALL	MTH	MTH$DSQRT
                                     0003  1500 	MAC	JSB	MTH	MTH$DSQRT_R5
                                     0003  1600
                                     0003  1700 ; MODULE:MTH$EXP
                                     0003  1800 	MAC	CALL	MTH	MTH$EXP
                                     0003  1900 	MAC	JSB	MTH	MTH$EXP_R4
                                     0003  2000
                                     0003  2100 ; MODULE:MTH$SINCOS
                                     0003  2200 	MAC	CALL	MTH	MTH$COS
                                     0003  2300 	MAC	JSB	MTH	MTH$COS_R4
                                     0003  2400 	MAC	CALL	MTH	MTH$SIN
                                     0003  2500 	MAC	JSB	MTH	MTH$SIN_R4
                                     0003  2600
                                     0003  2700 ; MODULE:MTH$SQRT
                                     0003  2800 	MAC	CALL	MTH	MTH$SQRT
                                     0003  2900 	MAC	JSB	MTH	MTH$SQRT_R2
                                     0003  3000
ALLGBL          - Define all GLOBAL entry points available to u  22-AUG-1978 06:28:08   VAX-11 MACRO X0.3-11               Page  12
0-29                                                                                                                             (8)

                                     0003   100 ;+
                                     0003   200 ; Language independent support entry points
                                     0003   300 ; Include them after frequently used math routines, since
                                     0003   400 ; they have the power routines.
                                     0003   500 ;-
                                     0003   600
                                     0003   700
                                     0003   800 ; MODULE:OTS$DIVC
                                     0003   900 	MAC	CALL	OTS	OTS$DIVC
                                     0003  1000
                                     0003  1100 ; MODULE:OTS$LINKAGE
                                     0003  1200 	MAC	SYM	OTS	OTS$LINKAGE
                                     0003  1300
                                     0003  1400 ; MODULE:OTS$MSGDEF
                                     0003  1500 	MAC	SYM	OTS	OTS$_FATINTERR
                                     0003  1600 	MAC	SYM	OTS	OTS$_INTDATCOR
                                     0003  1700 	MAC	SYM	OTS	OTS$_INVSTRDES
                                     0003  1800 	MAC	SYM	OTS	OTS$_USEFLORES
                                     0003  1900
                                     0003  2000 ; MODULE:OTS$POWCJ
                                     0003  2100 	MAC	CALL	OTS	OTS$POWCJ
                                     0003  2200
                                     0003  2300 ; MODULE:OTS$POWDD
                                     0003  2400 	MAC	CALL	OTS	OTS$POWDD
                                     0003  2500 	MAC	CALL	OTS	OTS$POWDR
                                     0003  2600 	MAC	CALL	OTS	OTS$POWRD
                                     0003  2700
                                     0003  2800 ; MODULE:OTS$POWDJ
                                     0003  2900 	MAC	CALL	OTS	OTS$POWDJ
                                     0003  3000
                                     0003  3100 ; MODULE:OTS$POWII
                                     0003  3200 	MAC	CALL	OTS	OTS$POWII
                                     0003  3300
                                     0003  3400 ; MODULE:OTS$POWJJ
                                     0003  3500 	MAC	CALL	OTS	OTS$POWJJ
                                     0003  3600
                                     0003  3700 ; MODULE:OTS$POWRJ
                                     0003  3800 	MAC	CALL	OTS	OTS$POWRJ
                                     0003  3900
                                     0003  4000 ; MODULE:OTS$POWRR
                                     0003  4100 	MAC	CALL	OTS	OTS$POWRR
                                     0003  4200
                                     0003  4300 ; MODULE:OTS$SCOPY
                                     0003  4400 	MAC	CALL	OTS	OTS$SCOPY_DXDX
                                     0003  4500 	MAC	JSB	OTS	OTS$SCOPY_DXDX6
                                     0003  4600 	MAC	CALL	OTS	OTS$SCOPY_R_DX
                                     0003  4700 	MAC	JSB	OTS	OTS$SCOPY_R_DX6
                                     0003  4800 	MAC	CALL	OTS	OTS$SGET1_DD
                                     0003  4900 	MAC	JSB	OTS	OTS$SGET1_DD_R6
                                     0003  5000 	MAC	CALL	OTS	OTS$SFREE1_DD
                                     0003  5100 	MAC	JSB	OTS	OTS$SFREE1_DD6
                                     0003  5200 	MAC	CALL	OTS	OTS$SFREEN_DD
                                     0003  5300 	MAC	JSB	OTS	OTS$SFREEN_DD6
ALLGBL          - Define all GLOBAL entry points available to u  22-AUG-1978 06:28:08   VAX-11 MACRO X0.3-11               Page  13
0-29                                                                                                                             (9)

                                     0003   100 ;+
                                     0003   200 ; Now define the rest of the Math entry points
                                     0003   300 ;-
                                     0003   400
                                     0003   500 ; MODULE:MTH$ABS
                                     0003   600 	MAC	NOVECT	MTH	MTH$ABS
                                     0003   700 	MAC	NOVECT	MTH	MTH$DABS
                                     0003   800 	MAC	NOVECT	MTH	MTH$IIABS
                                     0003   900 	MAC	NOVECT	MTH	MTH$JIABS
                                     0003  1000
                                     0003  1100 ; MODULE:MTH$AINT
                                     0003  1200 	MAC	NOVECT	MTH	MTH$AINT
                                     0003  1300
                                     0003  1400 ; MODULE:MTH$AMOD
                                     0003  1500 	MAC	NOVECT	MTH	MTH$AMOD
                                     0003  1600
                                     0003  1700 ; MODULE:MTH$ANINT
                                     0003  1800 	MAC	NOVECT	MTH	MTH$ANINT
                                     0003  1900
                                     0003  2000 ; MODULE:MTH$BITOPS
                                     0003  2100 	MAC	NOVECT	MTH	MTH$IIAND
                                     0003  2200 	MAC	NOVECT	MTH	MTH$IIEOR
                                     0003  2300 	MAC	NOVECT	MTH	MTH$IIOR
                                     0003  2400 	MAC	NOVECT	MTH	MTH$IISHFT
                                     0003  2500
                                     0003  2600 	MAC	NOVECT	MTH	MTH$INOT
                                     0003  2700 	MAC	NOVECT	MTH	MTH$JIAND
                                     0003  2800 	MAC	NOVECT	MTH	MTH$JIEOR
                                     0003  2900 	MAC	NOVECT	MTH	MTH$JIOR
                                     0003  3000
                                     0003  3100 	MAC	NOVECT	MTH	MTH$JISHFT
                                     0003  3200 	MAC	NOVECT	MTH	MTH$JNOT
                                     0003  3300
                                     0003  3400 ; MODULE:MTH$CABS
                                     0003  3500 	MAC	CALL	MTH	MTH$CABS
                                     0003  3600
                                     0003  3700 ; MODULE:MTH$CEXP
                                     0003  3800 	MAC	CALL	MTH	MTH$CEXP
                                     0003  3900
                                     0003  4000 ; MODULE:MTH$CLOG
                                     0003  4100 	MAC	CALL	MTH	MTH$CLOG
                                     0003  4200
                                     0003  4300 ; MODULE:MTH$CONJG
                                     0003  4400 	MAC	NOVECT	MTH	MTH$CONJG
                                     0003  4500
                                     0003  4600 ; MODULE:MTH$CONVER
                                     0003  4700 	MAC	NOVECT	MTH	MTH$AIMAG
                                     0003  4800 	MAC	NOVECT	MTH	MTH$CMPLX
                                     0003  4900 	MAC	NOVECT	MTH	MTH$DBLE
                                     0003  5000 	MAC	NOVECT	MTH	MTH$DFLOTI
                                     0003  5100
                                     0003  5200 	MAC	NOVECT	MTH	MTH$DFLOTJ
                                     0003  5300 	MAC	NOVECT	MTH	MTH$FLOATI
                                     0003  5400 	MAC	NOVECT	MTH	MTH$FLOATJ
                                     0003  5500 	MAC	NOVECT	MTH	MTH$IIDINT
                                     0003  5600
                                     0003  5700 	MAC	NOVECT	MTH	MTH$IIFIX
ALLGBL          - Define all GLOBAL entry points available to u  22-AUG-1978 06:28:08   VAX-11 MACRO X0.3-11               Page  14
0-29                                                                                                                             (9)

                                     0003  5800 	MAC	NOVECT	MTH	MTH$IINT
                                     0003  5900 	MAC	NOVECT	MTH	MTH$JIDINT
                                     0003  6000 	MAC	NOVECT	MTH	MTH$JIFIX
                                     0003  6100
                                     0003  6200 	MAC	NOVECT	MTH	MTH$JINT
                                     0003  6300 	MAC	NOVECT	MTH	MTH$REAL
                                     0003  6400 	MAC	NOVECT	MTH	MTH$SNGL
                                     0003  6500
                                     0003  6600 ; MODULE:MTH$COSH
                                     0003  6700 	MAC	CALL	MTH	MTH$COSH
                                     0003  6800
                                     0003  6900 ; MODULE:MTH$CSINCOS
                                     0003  7000 	MAC	CALL	MTH	MTH$CCOS
                                     0003  7100 	MAC	CALL	MTH	MTH$CSIN
                                     0003  7200
                                     0003  7300 ; MODULE:MTH$CSQRT
                                     0003  7400 	MAC	CALL	MTH	MTH$CSQRT
                                     0003  7500
                                     0003  7600 ; MODULE:MTH$DCOSH
                                     0003  7700 	MAC	CALL	MTH	MTH$DCOSH
                                     0003  7800
                                     0003  7900 ; MODULE:MTH$DIM
                                     0003  8000 	MAC	NOVECT	MTH	MTH$DDIM
                                     0003  8100 	MAC	NOVECT	MTH	MTH$DIM
                                     0003  8200 	MAC	NOVECT	MTH	MTH$IIDIM
                                     0003  8300 	MAC	NOVECT	MTH	MTH$JIDIM
                                     0003  8400
                                     0003  8500 ; MODULE:MTH$DINT
                                     0003  8600 	MAC	NOVECT	MTH	MTH$DINT
ALLGBL          - Define all GLOBAL entry points available to u  22-AUG-1978 06:28:08   VAX-11 MACRO X0.3-11               Page  15
0-29                                                                                                                            (11)

                                     0003   100
                                     0003   200 ; MODULE:MTH$DMAX1
                                     0003   300 	MAC	NOVECT	MTH	MTH$DMAX1
                                     0003   400
                                     0003   500 ; MODULE:MTH$DMIN1
                                     0003   600 	MAC	NOVECT	MTH	MTH$DMIN1
                                     0003   700
                                     0003   800 ; MODULE:MTH$DMOD
                                     0003   900 	MAC	NOVECT	MTH	MTH$DMOD
                                     0003  1000
                                     0003  1100 ; MODULE:MTH$DNINT
                                     0003  1200 	MAC	NOVECT	MTH	MTH$DNINT
                                     0003  1300
                                     0003  1400 ; MODULE:MTH$DPROD
                                     0003  1500 	MAC	NOVECT	MTH	MTH$DPROD
                                     0003  1600
                                     0003  1700 ; MODULE:MTH$DSIGN
                                     0003  1800 	MAC	NOVECT	MTH	MTH$DSIGN
                                     0003  1900
                                     0003  2000 ; MODULE:MTH$DSINH
                                     0003  2100 	MAC	CALL	MTH	MTH$DSINH
                                     0003  2200
                                     0003  2300 ; MODULE:MTH$DTAN
                                     0003  2400 	MAC	CALL	MTH	MTH$DTAN
                                     0003  2500
                                     0003  2600 ; MODULE:MTH$DTANH
                                     0003  2700 	MAC	CALL	MTH	MTH$DTANH
                                     0003  2800
                                     0003  2900 ; MODULE:MTH$IIDNNT
                                     0003  3000 	MAC	NOVECT	MTH	MTH$IIDNNT
                                     0003  3100
                                     0003  3200 ; MODULE:MTH$IISIGN
                                     0003  3300 	MAC	NOVECT	MTH	MTH$IISIGN
                                     0003  3400
                                     0003  3500 ; MODULE:MTH$IMAX0
                                     0003  3600 	MAC	NOVECT	MTH	MTH$AIMAX0
                                     0003  3700 	MAC	NOVECT	MTH	MTH$IMAX0
                                     0003  3800
                                     0003  3900 ; MODULE:MTH$IMIN0
                                     0003  4000 	MAC	NOVECT	MTH	MTH$AIMIN0
                                     0003  4100 	MAC	NOVECT	MTH	MTH$IMIN0
                                     0003  4200
                                     0003  4300 ; MODULE:MTH$ININT
                                     0003  4400 	MAC	NOVECT	MTH	MTH$ININT
                                     0003  4500
                                     0003  4600 ; MODULE:MTH$JIDNNT
                                     0003  4700 	MAC	NOVECT	MTH	MTH$JIDNNT
                                     0003  4800
                                     0003  4900 ; MODULE:MTH$JISIGN
                                     0003  5000 	MAC	NOVECT	MTH	MTH$JISIGN
                                     0003  5100
                                     0003  5200 ; MODULE:MTH$JMAX0
                                     0003  5300 	MAC	NOVECT	MTH	MTH$AJMAX0
                                     0003  5400 	MAC	NOVECT	MTH	MTH$JMAX0
                                     0003  5500
                                     0003  5600 ; MODULE:MTH$JMIN0
                                     0003  5700 	MAC	NOVECT	MTH	MTH$AJMIN0
ALLGBL          - Define all GLOBAL entry points available to u  22-AUG-1978 06:28:08   VAX-11 MACRO X0.3-11               Page  16
0-29                                                                                                                            (11)

                                     0003  5800 	MAC	NOVECT	MTH	MTH$JMIN0
                                     0003  5900
                                     0003  6000 ; MODULE:MTH$JNINT
                                     0003  6100 	MAC	NOVECT	MTH	MTH$JNINT
                                     0003  6200
                                     0003  6300 ; MODULE:MTH$MAX1
                                     0003  6400 	MAC	NOVECT	MTH	MTH$AMAX1
                                     0003  6500 	MAC	NOVECT	MTH	MTH$IMAX1
                                     0003  6600 	MAC	NOVECT	MTH	MTH$JMAX1
                                     0003  6700
                                     0003  6800 ; MODULE:MTH$MIN1
                                     0003  6900 	MAC	NOVECT	MTH	MTH$AMIN1
                                     0003  7000 	MAC	NOVECT	MTH	MTH$IMIN1
                                     0003  7100 	MAC	NOVECT	MTH	MTH$JMIN1
                                     0003  7200
                                     0003  7300 ; MODULE:MTH$MOD
                                     0003  7400 	MAC	NOVECT	MTH	MTH$IMOD
                                     0003  7500 	MAC	NOVECT	MTH	MTH$JMOD
                                     0003  7600
                                     0003  7700 ; MODULE:MTH$MSGDEF
                                     0003  7800 	MAC	SYM	MTH	MTH$_FLOOVEMAT
                                     0003  7900 	MAC	SYM	MTH	MTH$_FLOUNDMAT
                                     0003  8000 	MAC	SYM	MTH	MTH$_INVARGMAT
                                     0003  8100 	MAC	SYM	MTH	MTH$_LOGZERNEG
                                     0003  8200
                                     0003  8300 	MAC	SYM	MTH	MTH$_SINCOSSIG
                                     0003  8400 	MAC	SYM	MTH	MTH$_SQUROONEG
                                     0003  8500 	MAC	SYM	MTH	MTH$_UNDEXP
                                     0003  8600 	MAC	SYM	MTH	MTH$_WRONUMARG
                                     0003  8700
                                     0003  8800 ; MODULE:MTH$RANDOM
                                     0003  8900 	MAC	CALL	MTH	MTH$RANDOM
                                     0003  9000
                                     0003  9100 ; MODULE:MTH$SIGN
                                     0003  9200 	MAC	NOVECT	MTH	MTH$SIGN
                                     0003  9300
                                     0003  9400 ; MODULE:MTH$SINH
                                     0003  9500 	MAC	CALL	MTH	MTH$SINH
                                     0003  9600
                                     0003  9700 ; MODULE:MTH$TAN
                                     0003  9800 	MAC	CALL	MTH	MTH$TAN
                                     0003  9900
                                     0003 10000 ; MODULE:MTH$TANH
                                     0003 10100 	MAC	CALL	MTH	MTH$TANH
                                     0003 10200
ALLGBL          - Define all GLOBAL entry points available to u  22-AUG-1978 06:28:08   VAX-11 MACRO X0.3-11               Page  17
0-29                                                                                                                            (12)

                                     0003   100 ;+
                                     0003   200 ; General library entry points LIB$
                                     0003   300 ;-
                                     0003   400
                                     0003   500
                                     0003   600 ; MODULE:LIB$AST_IN_PROG
                                     0003   700 	MAC	CALL	LIB	LIB$AST_IN_PROG
                                     0003   800 ; MODULE:LIB$CHAR
                                     0003   900 	MAC	NOVECT	LIB	LIB$CHAR
                                     0003  1000
                                     0003  1100 ; MODULE:LIB$CRC
                                     0003  1200 	MAC	CALL	LIB	LIB$CRC
                                     0003  1300
                                     0003  1400 ; MODULE:LIB$CRC_TABLE
                                     0003  1500 	MAC	CALL	LIB	LIB$CRC_TABLE
                                     0003  1600
                                     0003  1700 ; MODULE:LIB$CVTDF
                                     0003  1800 	MAC	NOVECT	LIB	LIB$CVTDF
                                     0003  1900
                                     0003  2000 ; MODULE:LIB$CVT_ATx			; NOTE: part of VMS exec sources
                                     0003  2100 ; so make sure .EXTRN finds, since documented in RTL Reference manual
                                     0003  2200 ; but do not put in sharable image section.
                                     0003  2300 	MAC	NOVECT	LIB	LIB$CVT_DTB
                                     0003  2400 	MAC	NOVECT	LIB	LIB$CVT_HTB
                                     0003  2500 	MAC	NOVECT	LIB	LIB$CVT_OTB
                                     0003  2600
                                     0003  2700 ; MODULE:LIB$DEC_OVER
                                     0003  2800 	MAC	CALL	LIB	LIB$DEC_OVER
                                     0003  2900
                                     0003  3000 ; MODULE:LIB$ESTABLISH
                                     0003  3100 	MAC	CALL	LIB	LIB$ESTABLISH
                                     0003  3200
                                     0003  3300 ; MODULE:LIB$EXTV
                                     0003  3400 	MAC	CALL	LIB	LIB$EXTV
                                     0003  3500
                                     0003  3600 ; MODULE:LIB$EXTZV
                                     0003  3700 	MAC	CALL	LIB	LIB$EXTZV
                                     0003  3800
                                     0003  3900 ; MODULE:LIB$FFC
                                     0003  4000 	MAC	CALL	LIB	LIB$FFC
                                     0003  4100
                                     0003  4200 ; MODULE:LIB$FFS
                                     0003  4300 	MAC	CALL	LIB	LIB$FFS
                                     0003  4400
                                     0003  4500 ; MODULE:LIB$FIXUP_FLT
                                     0003  4600 	MAC	CALL	LIB	LIB$FIXUP_FLT
                                     0003  4700
                                     0003  4800 ; MODULE:LIB$FLT_UNDER
                                     0003  4900 	MAC	CALL	LIB	LIB$FLT_UNDER
                                     0003  5000
                                     0003  5100 ; MODULE:LIB$GET_INPUT
                                     0003  5200 	MAC	CALL	LIB	LIB$GET_INPUT
                                     0003  5300 	MAC	CALL	LIB	LIB$GET_COMMAND
                                     0003  5400
                                     0003  5500 ; MODULE:LIB$ICHAR
                                     0003  5600 	MAC	NOVECT	LIB	LIB$ICHAR
                                     0003  5700
ALLGBL          - Define all GLOBAL entry points available to u  22-AUG-1978 06:28:08   VAX-11 MACRO X0.3-11               Page  18
0-29                                                                                                                            (12)

                                     0003  5800 ; MODULE:LIB$INDEX
                                     0003  5900 	MAC	CALL	LIB	LIB$INDEX
                                     0003  6000
                                     0003  6100 ; MODULE:LIB$INITIALIZE
                                     0003  6200 	MAC	NOVECT	LIB	LIB$INITIALIZE
                                     0003  6300
                                     0003  6400 ; MODULE:LIB$INSV
                                     0003  6500 	MAC	CALL	LIB	LIB$INSV
                                     0003  6600
                                     0003  6700 ; MODULE:LIB$INT_OVER
                                     0003  6800 	MAC	CALL	LIB	LIB$INT_OVER
                                     0003  6900
                                     0003  7000 ; MODULE:LIB$LEN
                                     0003  7100 	MAC	NOVECT	LIB	LIB$LEN
                                     0003  7200
                                     0003  7300 ; MODULE:LIB$LOCC
                                     0003  7400 	MAC	CALL	LIB	LIB$LOCC
                                     0003  7500
                                     0003  7600 ; MODULE:LIB$LOOKUP_KEY
                                     0003  7700 	MAC	NOVECT	LIB	LIB$LOOKUP_KEY
                                     0003  7800
                                     0003  7900 ; MODULE:LIB$MATCHC
                                     0003  8000 	MAC	CALL	LIB	LIB$MATCHC
                                     0003  8100
                                     0003  8200 ; MODULE:LIB$MATCH_COND
                                     0003  8300 	MAC	CALL	LIB	LIB$MATCH_COND
                                     0003  8400
                                     0003  8500 ; MODULE:LIB$MOVTC
                                     0003  8600 	MAC	CALL	LIB	LIB$MOVTC
                                     0003  8700
                                     0003  8800 ; MODULE:LIB$MOVTUC
                                     0003  8900 	MAC	CALL	LIB	LIB$MOVTUC
                                     0003  9000
                                     0003  9100 ; MODULE:LIB$MSGDEF
                                     0003  9200 	MAC	SYM	LIB	LIB$_AMBKEY
                                     0003  9300 	MAC	SYM	LIB	LIB$_ATTCONSTO
                                     0003  9400 	MAC	SYM	LIB	LIB$_BADBLOADR
                                     0003  9500 	MAC	SYM	LIB	LIB$_BADBLOSIZ
                                     0003  9600
                                     0003  9700 	MAC	SYM	LIB	LIB$_BADSTA
                                     0003  9800 	MAC	SYM	LIB	LIB$_FATERRLIB
                                     0003  9900 	MAC	SYM	LIB	LIB$_INPSTRTRU
                                     0003 10000 	MAC	SYM	LIB	LIB$_INSVIRMEM
                                     0003 10100
                                     0003 10200 	MAC	SYM	LIB	LIB$_INTLOGERR
                                     0003 10300 	MAC	SYM	LIB	LIB$_INVARG
                                     0003 10400 	MAC	SYM	LIB	LIB$_INVSTRDES
                                     0003 10500 	MAC	SYM	LIB	LIB$_NORMAL
                                     0003 10600
                                     0003 10700 	MAC	SYM	LIB	LIB$_NOTFOU
                                     0003 10800 	MAC	SYM	LIB	LIB$_PUSSTAOVE
                                     0003 10900 	MAC	SYM	LIB	LIB$_SIGNO_ARG
                                     0003 11000 	MAC	SYM	LIB	LIB$_STRTRU
                                     0003 11100
                                     0003 11200 	MAC	SYM	LIB	LIB$_UNRKEY
                                     0003 11300 	MAC	SYM	LIB	LIB$_USEFLORES
                                     0003 11400
ALLGBL          - Define all GLOBAL entry points available to u  22-AUG-1978 06:28:08   VAX-11 MACRO X0.3-11               Page  19
0-29                                                                                                                            (12)

                                     0003 11500 ; MODULE:LIB$PUT_OUTPUT
                                     0003 11600 	MAC	CALL	LIB	LIB$PUT_OUTPUT
                                     0003 11700
                                     0003 11800 ; MODULE:LIB$REVERT
                                     0003 11900 	MAC	CALL	LIB	LIB$REVERT
                                     0003 12000
                                     0003 12100 ; MODULE:LIB$SCANC
                                     0003 12200 	MAC	CALL	LIB	LIB$SCANC
                                     0003 12300
                                     0003 12400 ; MODULE:LIB$SCOPY
                                     0003 12500 	MAC	CALL	LIB	LIB$SCOPY_DXDX
                                     0003 12600 	MAC	JSB	LIB	LIB$SCOPY_DXDX6
                                     0003 12700 	MAC	CALL	LIB	LIB$SCOPY_R_DX
                                     0003 12800 	MAC	JSB	LIB	LIB$SCOPY_R_DX6
                                     0003 12900 	MAC	CALL	LIB	LIB$SGET1_DD
                                     0003 13000 	MAC	JSB	LIB	LIB$SGET1_DD_R6
                                     0003 13100 	MAC	CALL	LIB	LIB$SFREE1_DD
                                     0003 13200 	MAC	JSB	LIB	LIB$SFREE1_DD6
                                     0003 13300 	MAC	CALL	LIB	LIB$SFREEN_DD
                                     0003 13400 	MAC	JSB	LIB	LIB$SFREEN_DD6
                                     0003 13500 	MAC	FUTURE	LIB	LIB$SHOW_SCOPY
                                     0003 13600
                                     0003 13700 ; MODULE:LIB$SIGNAL
                                     0003 13800 	MAC	CALL	LIB	LIB$SIGNAL
                                     0003 13900 	MAC	CALL	LIB	LIB$STOP
                                     0003 14000
                                     0003 14100 ; MODULE:LIB$SIG_TO_RET
                                     0003 14200
                                     0003 14300 	MAC	CALL	LIB	LIB$SIG_TO_RET
                                     0003 14400
                                     0003 14500 ; MODULE:LIB$SKPC
                                     0003 14600 	MAC	CALL	LIB	LIB$SKPC
                                     0003 14700
                                     0003 14800 ; MODULE:LIB$SPANC
                                     0003 14900 	MAC	CALL	LIB	LIB$SPANC
                                     0003 15000
                                     0003 15100 ; MODULE:LIB$TPARSE
                                     0003 15200 	MAC	NOVECT	LIB	LIB$TPARSE
                                     0003 15300
                                     0003 15400 ; MODULE:LIB$VM
                                     0003 15500 	MAC	CALL	LIB	LIB$FREE_VM
                                     0003 15600 	MAC	CALL	LIB	LIB$GET_VM
                                     0003 15700 	MAC	FUTURE	LIB	LIB$SHOW_VM
                                     0003 15800
ALLGBL          - Define all GLOBAL entry points available to u  22-AUG-1978 06:28:08   VAX-11 MACRO X0.3-11               Page  20
0-29                                                                                                                            (13)

                                     0003   100 ;+
                                     0003   200 ; Internal entry points which need vectors because the non-shared
                                     0003   300 ; library must call these procedures in shared library, rather
                                     0003   400 ; than getting a copy of the procedure from the object library.
                                     0003   500 ; Note: the instances of $$ entry vectors is to be minimized.
                                     0003   600 ; The only cases where it hurts to have two copies of a procedure
                                     0003   700 ; is when the procedure has statically allocated (OWN) data
                                     0003   800 ; which is used as a process-wide resource.
                                     0003   810 ; Note: in order to prevent linker data truncation errors, all modules
                                     0003   820 ; which are shared and are also linked in as private copies when
                                     0003   830 ; $$entry points are referenced by non-shared routines called by the user
                                     0003   840 ; must declare external references to code as general (not word dispalcement)
                                     0003   850 ; even if the reference is to the same PSECT!!!!!
                                     0003   860 ; Modules which have this dual life are: FOR$$ERROR, FOR$$VM, FOR$$SIGNAL.
                                     0003   870 ; ******************************************************************
                                     0003   880 ; MAINTENANCE NOTE: The following $$ entry vectors can not have their
                                     0003   890 ; specs changed, even though $$, since that would cause user programs
                                     0003   892 ; with compatibility (unshared) routines to have to re-link in order to
                                     0003   894 ; work correctly.  Worse we would not want to increase the major ID in
                                     0003   896 ; order for the image activator to catch the incompatibility, since
                                     0003   898 ; that would cause all users to have to relink.
                                     0003   900 ;-
                                     0003  1000
                                     0003  1100 ; MODULE:FOR$$CB
                                     0003  1200 	MAC	JSB	FOR	FOR$$CB_PUSH
                                     0003  1300 	MAC	JSB	FOR	FOR$$CB_POP
                                     0003  1400 	MAC	JSB	FOR	FOR$$CB_RET
                                     0003  1500 	MAC	JSB	FOR	FOR$$CB_GET	; Added for non-shared code
                                     0003  1600 						; to load CCB from OTS$$A_CUR_LUB
                                     0003  1700
                                     0003  1800
                                     0003  1900 ; MODULE:FOR$ERRSNS			; See also above FOR$ERRSNS, FOR$ERRSNS_W
                                     0003  2000 	MAC	CALL	FOR	FOR$$ERRSNS_SAV
                                     0003  2100
ALLGBL          - Define all GLOBAL entry points available to u  22-AUG-1978 06:28:08   VAX-11 MACRO X0.3-11               Page  21
0-29                                                                                                                            (15)

                                     0003   100
                                     0003   200
                                     0003   300 	.END	START			; start address
ALLGBL          - Define all GLOBAL entry points available to u  22-AUG-1978 06:28:08   VAX-11 MACRO X0.3-11               Page  22
SYMBOL TABLE                                                                                                                    (15)

ASSIGN           ********   X   01   FOR$IO_T_V_DS    ********   X   01   FOR$K_VFEVALERR  ********   X   01
CLOSE            ********   X   01   FOR$IO_WU_R      ********   X   01   FOR$K_WRIREAFIL  ********   X   01
ERRSET           ********   X   01   FOR$IO_WU_V      ********   X   01   FOR$OPEN         ********   X   01
ERRTST           ********   X   01   FOR$IO_W_R       ********   X   01   FOR$PAUSE        ********   X   01
FDBSET           ********   X   01   FOR$IO_W_V       ********   X   01   FOR$RANDU        ********   X   01
FOR$$CB_GET      ********   X   01   FOR$IO_X_DA      ********   X   01   FOR$RANDU_W      ********   X   01
FOR$$CB_POP      ********   X   01   FOR$IRAN         ********   X   01   FOR$READ_DF      ********   X   01
FOR$$CB_PUSH     ********   X   01   FOR$JDATE        ********   X   01   FOR$READ_DO      ********   X   01
FOR$$CB_RET      ********   X   01   FOR$K_ADJARRDIM  ********   X   01   FOR$READ_DU      ********   X   01
FOR$$ERRSNS_SAV  ********   X   01   FOR$K_ARRREFOUT  ********   X   01   FOR$READ_SF      ********   X   01
FOR$BACKSPACE    ********   X   01   FOR$K_ATTREANON  ********   X   01   FOR$READ_SL      ********   X   01
FOR$CLOSE        ********   X   01   FOR$K_BACERR     ********   X   01   FOR$READ_SO      ********   X   01
FOR$CNV_IN_DEFG  ********   X   01   FOR$K_CLOERR     ********   X   01   FOR$READ_SU      ********   X   01
FOR$CNV_IN_I     ********   X   01   FOR$K_DECSTROVE  ********   X   01   FOR$REWIND       ********   X   01
FOR$CNV_IN_L     ********   X   01   FOR$K_DUPFILSPE  ********   X   01   FOR$SECNDS       ********   X   01
FOR$CNV_IN_O     ********   X   01   FOR$K_ENDDURREA  ********   X   01   FOR$STOP         ********   X   01
FOR$CNV_IN_Z     ********   X   01   FOR$K_ENDFILERR  ********   X   01   FOR$TIME         ********   X   01
FOR$CNV_OUT_D    ********   X   01   FOR$K_ERRDURREA  ********   X   01   FOR$TIME_T_DS    ********   X   01
FOR$CNV_OUT_E    ********   X   01   FOR$K_ERRDURWRI  ********   X   01   FOR$WRITE_DF     ********   X   01
FOR$CNV_OUT_F    ********   X   01   FOR$K_FAC_NO     ********   X   01   FOR$WRITE_DO     ********   X   01
FOR$CNV_OUT_G    ********   X   01   FOR$K_FILNAMSPE  ********   X   01   FOR$WRITE_DU     ********   X   01
FOR$CNV_OUT_I    ********   X   01   FOR$K_FILNOTFOU  ********   X   01   FOR$WRITE_SF     ********   X   01
FOR$CNV_OUT_L    ********   X   01   FOR$K_FLOOVE     ********   X   01   FOR$WRITE_SL     ********   X   01
FOR$CNV_OUT_O    ********   X   01   FOR$K_FLOUND     ********   X   01   FOR$WRITE_SO     ********   X   01
FOR$CNV_OUT_Z    ********   X   01   FOR$K_FLOZERDIV  ********   X   01   FOR$WRITE_SU     ********   X   01
FOR$DATE         ********   X   01   FOR$K_FORVARMIS  ********   X   01   FOR$_ADJARRDIM   ********   X   01
FOR$DATE_T_DS    ********   X   01   FOR$K_INCOPECLO  ********   X   01   FOR$_ATTREANON   ********   X   01
FOR$DECODE_MF    ********   X   01   FOR$K_INCRECLEN  ********   X   01   FOR$_BACERR      ********   X   01
FOR$DECODE_MO    ********   X   01   FOR$K_INFFORLOO  ********   X   01   FOR$_CLOERR      ********   X   01
FOR$DEF_FILE     ********   X   01   FOR$K_INPCONERR  ********   X   01   FOR$_DUPFILSPE   ********   X   01
FOR$DEF_FILE_W   ********   X   01   FOR$K_INPRECTOO  ********   X   01   FOR$_ENDDURREA   ********   X   01
FOR$ENCODE_MF    ********   X   01   FOR$K_INPSTAREQ  ********   X   01   FOR$_ENDFILERR   ********   X   01
FOR$ENCODE_MO    ********   X   01   FOR$K_INSVIRMEM  ********   X   01   FOR$_ERRDURREA   ********   X   01
FOR$ENDFILE      ********   X   01   FOR$K_INTOVF     ********   X   01   FOR$_ERRDURWRI   ********   X   01
FOR$ERRSNS       ********   X   01   FOR$K_INTZERDIV  ********   X   01   FOR$_FILNAMSPE   ********   X   01
FOR$ERRSNS_W     ********   X   01   FOR$K_INVARGFOR  ********   X   01   FOR$_FILNOTFOU   ********   X   01
FOR$EXIT         ********   X   01   FOR$K_INVLOGUNI  ********   X   01   FOR$_FORVARMIS   ********   X   01
FOR$EXIT_W       ********   X   01   FOR$K_KEYVALERR  ********   X   01   FOR$_INCOPECLO   ********   X   01
FOR$FIND         ********   X   01   FOR$K_LISIO_SYN  ********   X   01   FOR$_INCRECLEN   ********   X   01
FOR$IDATE        ********   X   01   FOR$K_MAXLUNERR  ********   X   01   FOR$_INFFORLOO   ********   X   01
FOR$INI_DES1_R2  ********   X   01   FOR$K_MAX_ERR    ********   X   01   FOR$_INPCONERR   ********   X   01
FOR$INI_DES2_R3  ********   X   01   FOR$K_MINLUNERR  ********   X   01   FOR$_INPRECTOO   ********   X   01
FOR$INI_DESC_R6  ********   X   01   FOR$K_MIXFILACC  ********   X   01   FOR$_INPSTAREQ   ********   X   01
FOR$IO_B_R       ********   X   01   FOR$K_MORONEREC  ********   X   01   FOR$_INSVIRMEM   ********   X   01
FOR$IO_B_V       ********   X   01   FOR$K_NOTFORSPE  ********   X   01   FOR$_INVARGFOR   ********   X   01
FOR$IO_D_R       ********   X   01   FOR$K_NO_SUCDEV  ********   X   01   FOR$_INVLOGUNI   ********   X   01
FOR$IO_D_V       ********   X   01   FOR$K_OPEDEFREQ  ********   X   01   FOR$_KEYVALERR   ********   X   01
FOR$IO_END       ********   X   01   FOR$K_OPEFAI     ********   X   01   FOR$_LISIO_SYN   ********   X   01
FOR$IO_FC_R      ********   X   01   FOR$K_OUTCONERR  ********   X   01   FOR$_MIXFILACC   ********   X   01
FOR$IO_FC_V      ********   X   01   FOR$K_OUTSTAOVE  ********   X   01   FOR$_MORONEREC   ********   X   01
FOR$IO_F_R       ********   X   01   FOR$K_RECIO_OPE  ********   X   01   FOR$_NOTFORSPE   ********   X   01
FOR$IO_F_V       ********   X   01   FOR$K_RECNUMOUT  ********   X   01   FOR$_NO_SUCDEV   ********   X   01
FOR$IO_LU_R      ********   X   01   FOR$K_RECSPEERR  ********   X   01   FOR$_OPEDEFREQ   ********   X   01
FOR$IO_LU_V      ********   X   01   FOR$K_REWERR     ********   X   01   FOR$_OPEFAI      ********   X   01
FOR$IO_L_R       ********   X   01   FOR$K_SEGRECFOR  ********   X   01   FOR$_OUTCONERR   ********   X   01
FOR$IO_L_V       ********   X   01   FOR$K_SYNERRFOR  ********   X   01   FOR$_OUTSTAOVE   ********   X   01
FOR$IO_T_DS      ********   X   01   FOR$K_UNIALROPE  ********   X   01   FOR$_RECIO_OPE   ********   X   01
ALLGBL          - Define all GLOBAL entry points available to u  22-AUG-1978 06:28:08   VAX-11 MACRO X0.3-11               Page  23
SYMBOL TABLE                                                                                                                    (15)

FOR$_RECNUMOUT   ********   X   01   LIB$SPANC        ********   X   01   MTH$DASIN        ********   X   01
FOR$_RECSPEERR   ********   X   01   LIB$STOP         ********   X   01   MTH$DASIN_R9     ********   X   01
FOR$_REWERR      ********   X   01   LIB$TPARSE       ********   X   01   MTH$DATAN        ********   X   01
FOR$_SEGRECFOR   ********   X   01   LIB$_AMBKEY      ********   X   01   MTH$DATAN2       ********   X   01
FOR$_SYNERRFOR   ********   X   01   LIB$_ATTCONSTO   ********   X   01   MTH$DATAN_R7     ********   X   01
FOR$_UNIALROPE   ********   X   01   LIB$_BADBLOADR   ********   X   01   MTH$DBLE         ********   X   01
FOR$_VFEVALERR   ********   X   01   LIB$_BADBLOSIZ   ********   X   01   MTH$DCOS         ********   X   01
FOR$_WRIREAFIL   ********   X   01   LIB$_BADSTA      ********   X   01   MTH$DCOSH        ********   X   01
IRAD50           ********   X   01   LIB$_FATERRLIB   ********   X   01   MTH$DCOS_R7      ********   X   01
LIB$AST_IN_PROG  ********   X   01   LIB$_INPSTRTRU   ********   X   01   MTH$DDIM         ********   X   01
LIB$CHAR         ********   X   01   LIB$_INSVIRMEM   ********   X   01   MTH$DEXP         ********   X   01
LIB$CRC          ********   X   01   LIB$_INTLOGERR   ********   X   01   MTH$DEXP_R7      ********   X   01
LIB$CRC_TABLE    ********   X   01   LIB$_INVARG      ********   X   01   MTH$DFLOTI       ********   X   01
LIB$CVTDF        ********   X   01   LIB$_INVSTRDES   ********   X   01   MTH$DFLOTJ       ********   X   01
LIB$CVT_DTB      ********   X   01   LIB$_NORMAL      ********   X   01   MTH$DIM          ********   X   01
LIB$CVT_HTB      ********   X   01   LIB$_NOTFOU      ********   X   01   MTH$DINT         ********   X   01
LIB$CVT_OTB      ********   X   01   LIB$_PUSSTAOVE   ********   X   01   MTH$DLOG         ********   X   01
LIB$DEC_OVER     ********   X   01   LIB$_SIGNO_ARG   ********   X   01   MTH$DLOG10       ********   X   01
LIB$ESTABLISH    ********   X   01   LIB$_STRTRU      ********   X   01   MTH$DLOG10_R8    ********   X   01
LIB$EXTV         ********   X   01   LIB$_UNRKEY      ********   X   01   MTH$DLOG_R8      ********   X   01
LIB$EXTZV        ********   X   01   LIB$_USEFLORES   ********   X   01   MTH$DMAX1        ********   X   01
LIB$FFC          ********   X   01   MTH$ABS          ********   X   01   MTH$DMIN1        ********   X   01
LIB$FFS          ********   X   01   MTH$ACOS         ********   X   01   MTH$DMOD         ********   X   01
LIB$FIXUP_FLT    ********   X   01   MTH$ACOS_R5      ********   X   01   MTH$DNINT        ********   X   01
LIB$FLT_UNDER    ********   X   01   MTH$AIMAG        ********   X   01   MTH$DPROD        ********   X   01
LIB$FREE_VM      ********   X   01   MTH$AIMAX0       ********   X   01   MTH$DSIGN        ********   X   01
LIB$GET_COMMAND  ********   X   01   MTH$AIMIN0       ********   X   01   MTH$DSIN         ********   X   01
LIB$GET_INPUT    ********   X   01   MTH$AINT         ********   X   01   MTH$DSINH        ********   X   01
LIB$GET_VM       ********   X   01   MTH$AJMAX0       ********   X   01   MTH$DSIN_R7      ********   X   01
LIB$ICHAR        ********   X   01   MTH$AJMIN0       ********   X   01   MTH$DSQRT        ********   X   01
LIB$INDEX        ********   X   01   MTH$ALOG         ********   X   01   MTH$DSQRT_R5     ********   X   01
LIB$INITIALIZE   ********   X   01   MTH$ALOG10       ********   X   01   MTH$DTAN         ********   X   01
LIB$INSV         ********   X   01   MTH$ALOG10_R5    ********   X   01   MTH$DTANH        ********   X   01
LIB$INT_OVER     ********   X   01   MTH$ALOG_R5      ********   X   01   MTH$EXP          ********   X   01
LIB$LEN          ********   X   01   MTH$AMAX1        ********   X   01   MTH$EXP_R4       ********   X   01
LIB$LOCC         ********   X   01   MTH$AMIN1        ********   X   01   MTH$FLOATI       ********   X   01
LIB$LOOKUP_KEY   ********   X   01   MTH$AMOD         ********   X   01   MTH$FLOATJ       ********   X   01
LIB$MATCHC       ********   X   01   MTH$ANINT        ********   X   01   MTH$IIABS        ********   X   01
LIB$MATCH_COND   ********   X   01   MTH$ASIN         ********   X   01   MTH$IIAND        ********   X   01
LIB$MOVTC        ********   X   01   MTH$ASIN_R5      ********   X   01   MTH$IIDIM        ********   X   01
LIB$MOVTUC       ********   X   01   MTH$ATAN         ********   X   01   MTH$IIDINT       ********   X   01
LIB$PUT_OUTPUT   ********   X   01   MTH$ATAN2        ********   X   01   MTH$IIDNNT       ********   X   01
LIB$REVERT       ********   X   01   MTH$ATAN_R4      ********   X   01   MTH$IIEOR        ********   X   01
LIB$SCANC        ********   X   01   MTH$CABS         ********   X   01   MTH$IIFIX        ********   X   01
LIB$SCOPY_DXDX   ********   X   01   MTH$CCOS         ********   X   01   MTH$IINT         ********   X   01
LIB$SCOPY_DXDX6  ********   X   01   MTH$CEXP         ********   X   01   MTH$IIOR         ********   X   01
LIB$SCOPY_R_DX   ********   X   01   MTH$CLOG         ********   X   01   MTH$IISHFT       ********   X   01
LIB$SCOPY_R_DX6  ********   X   01   MTH$CMPLX        ********   X   01   MTH$IISIGN       ********   X   01
LIB$SFREE1_DD    ********   X   01   MTH$CONJG        ********   X   01   MTH$IMAX0        ********   X   01
LIB$SFREE1_DD6   ********   X   01   MTH$COS          ********   X   01   MTH$IMAX1        ********   X   01
LIB$SFREEN_DD    ********   X   01   MTH$COSH         ********   X   01   MTH$IMIN0        ********   X   01
LIB$SFREEN_DD6   ********   X   01   MTH$COS_R4       ********   X   01   MTH$IMIN1        ********   X   01
LIB$SGET1_DD     ********   X   01   MTH$CSIN         ********   X   01   MTH$IMOD         ********   X   01
LIB$SGET1_DD_R6  ********   X   01   MTH$CSQRT        ********   X   01   MTH$ININT        ********   X   01
LIB$SIGNAL       ********   X   01   MTH$DABS         ********   X   01   MTH$INOT         ********   X   01
LIB$SIG_TO_RET   ********   X   01   MTH$DACOS        ********   X   01   MTH$JIABS        ********   X   01
LIB$SKPC         ********   X   01   MTH$DACOS_R9     ********   X   01   MTH$JIAND        ********   X   01
ALLGBL          - Define all GLOBAL entry points available to u  22-AUG-1978 06:28:08   VAX-11 MACRO X0.3-11               Page  24
SYMBOL TABLE                                                                                                                    (15)

MTH$JIDIM        ********   X   01   OTS$_INTDATCOR   ********   X   01
MTH$JIDINT       ********   X   01   OTS$_INVSTRDES   ********   X   01
MTH$JIDNNT       ********   X   01   OTS$_USEFLORES   ********   X   01
MTH$JIEOR        ********   X   01   R50ASC           ********   X   01
MTH$JIFIX        ********   X   01   RAD50            ********   X   01
MTH$JINT         ********   X   01   START            00000000 RG    01
MTH$JIOR         ********   X   01   USEREX           ********   X   01
MTH$JISHFT       ********   X   01
MTH$JISIGN       ********   X   01
MTH$JMAX0        ********   X   01
MTH$JMAX1        ********   X   01
MTH$JMIN0        ********   X   01
MTH$JMIN1        ********   X   01
MTH$JMOD         ********   X   01
MTH$JNINT        ********   X   01
MTH$JNOT         ********   X   01
MTH$RANDOM       ********   X   01
MTH$REAL         ********   X   01
MTH$SIGN         ********   X   01
MTH$SIN          ********   X   01
MTH$SINH         ********   X   01
MTH$SIN_R4       ********   X   01
MTH$SNGL         ********   X   01
MTH$SQRT         ********   X   01
MTH$SQRT_R2      ********   X   01
MTH$TAN          ********   X   01
MTH$TANH         ********   X   01
MTH$_FLOOVEMAT   ********   X   01
MTH$_FLOUNDMAT   ********   X   01
MTH$_INVARGMAT   ********   X   01
MTH$_LOGZERNEG   ********   X   01
MTH$_SINCOSSIG   ********   X   01
MTH$_SQUROONEG   ********   X   01
MTH$_UNDEXP      ********   X   01
MTH$_WRONUMARG   ********   X   01
OTS$DIVC         ********   X   01
OTS$LINKAGE      ********   X   01
OTS$POWCJ        ********   X   01
OTS$POWDD        ********   X   01
OTS$POWDJ        ********   X   01
OTS$POWDR        ********   X   01
OTS$POWII        ********   X   01
OTS$POWJJ        ********   X   01
OTS$POWRD        ********   X   01
OTS$POWRJ        ********   X   01
OTS$POWRR        ********   X   01
OTS$SCOPY_DXDX   ********   X   01
OTS$SCOPY_DXDX6  ********   X   01
OTS$SCOPY_R_DX   ********   X   01
OTS$SCOPY_R_DX6  ********   X   01
OTS$SFREE1_DD    ********   X   01
OTS$SFREE1_DD6   ********   X   01
OTS$SFREEN_DD    ********   X   01
OTS$SFREEN_DD6   ********   X   01
OTS$SGET1_DD     ********   X   01
OTS$SGET1_DD_R6  ********   X   01
OTS$_FATINTERR   ********   X   01
ALLGBL          - Define all GLOBAL entry points available to u  22-AUG-1978 06:28:08   VAX-11 MACRO X0.3-11               Page  25
PROGRAM SECTION SYNOPSIS                                                                                                        (15)


PROGRAM SECTION SYNOPSIS

.  ABS  .        00000000      00     NOPIC   USR   CON   ABS   LCL NOSHR NOEXE NORD  NOWRT BYTE
. BLANK .        00000003      01     NOPIC   USR   CON   REL   LCL NOSHR   EXE   RD    WRT BYTE


THERE WERE NO ERRORS OR WARNINGS.
19036. BYTES LEFT IN FREE MEMORY POOL.
OBJ$:ALLGBL,LIS$:ALLGBL/-SP=SRC$:ALLGBL
0 MLB DIR RDS - 0 GETS TO DEFINE 0 MACROS. 250 INTER. FILE WRITES.
