COM$IRAD50      ; FORTRAN COMPATIBILITY - ASCII to RAD50 conver  21-AUG-1978 18:53:20   VAX-11 MACRO X0.3-11               Page   0
TABLE OF CONTENTS

   (2)      90  HISTORY		; Detailed Current Edit History
   (3)     103  DECLARATIONS
   (4)     132  IRAD50 - CONVERT HOLLERITH STRINGS TO RADIX-50
COM$IRAD50      ; FORTRAN COMPATIBILITY - ASCII to RAD50 conver  21-AUG-1978 18:53:20   VAX-11 MACRO X0.3-11               Page   1
1-1                                                                                                                              (1)

                                     0000     1 	.TITLE	COM$IRAD50	; FORTRAN COMPATIBILITY - ASCII to RAD50 conversion
                                     0000     2 	.IDENT	/1-1/		; File: COMIRAD50.MAR
                                     0000     3
                                     0000     4 ;
                                     0000     5 ; Copyright (C) 1977
                                     0000     6 ; Digital Equipment Corporation, Maynard, Massachusetts 01754
                                     0000     7 ;
                                     0000     8 ; This software is furnished under a license for use only on a single
                                     0000     9 ; computer  system  and  may be copied only with the inclusion of the
                                     0000    10 ; above copyright notice. This software, or any other copies thereof,
                                     0000    11 ; may not be provided or otherwise made available to any other person
                                     0000    12 ; except for use on such system and to one who agree to these license
                                     0000    13 ; terms.  Title to  and  ownership of the software shall at all times
                                     0000    14 ; remain in DEC.
                                     0000    15 ;
                                     0000    16 ; The information in the software is subject to change without notice
                                     0000    17 ; and should  not  be construed  as a commitment by Digital Equipment
                                     0000    18 ; Corporation.
                                     0000    19 ;
                                     0000    20 ; DEC assumes  no  responsibility  for the use or  reliability of its
                                     0000    21 ; software on equipment which is not supplied by DEC.
                                     0000    22 ;
                                     0000    23 ;
                                     0000    24 ; FACILITY: FORTRAN COMPATABILITY LIBRARY
                                     0000    25 ;++
                                     0000    26 ; ABSTRACT:
                                     0000    27 ;
                                     0000    28 ;	FORTRAN COMPATABILITY LIBRARY routine IRAD50 converts a stream
                                     0000    29 ;	of ASCII characters to RAD50 words.
                                     0000    30 ;
                                     0000    31 ;--
                                     0000    32 ;
                                     0000    33 ; VERSION: 0
                                     0000    34 ;
                                     0000    35 ; HISTORY:
                                     0000    36 ;
                                     0000    37 ; AUTHOR:
                                     0000    38 ;	Peter Yuo, 12-Sep-77: Version 0
                                     0000    39 ;
                                     0000    40 ; MODIFIED BY:
                                     0000    41 ;
                                     0000    42 ;
COM$IRAD50      ; FORTRAN COMPATIBILITY - ASCII to RAD50 conver  21-AUG-1978 18:53:20   VAX-11 MACRO X0.3-11               Page   2
1-1             HISTORY  ; Detailed Current Edit History                                                                         (2)

                                     0000    44 	.SBTTL	HISTORY		; Detailed Current Edit History
                                     0000    45
                                     0000    46 ; Edit History for Version 01 of ASCR5O
                                     0000    47 ;
                                     0000    48 ; 00-06	- Define formal for RAD50 so no access vio.  TNH 5-Jan-78
                                     0000    49 ; 00-07	- Make PSECT be F4PCOMPAT$CODE.  TNH 5-Jan-78
                                     0000    50 ; 0-8	- Bug fix for RAD50.  JMT 5-Jan-78
                                     0000    51 ; 0-9	- Another bug fix for RAD50.  JMT 9-Jan-77
                                     0000    52 ; 1-1	- Break module COM$ASCR50 into 3 modules:
                                     0000    53 ;		COM$RAD50 - routine RAD50
                                     0000    54 ;		COM$IRAD50 - routine IRAD50
                                     0000    55 ;		COM$$R50WD - common ASCII to RAD50 conversion routine
COM$IRAD50      ; FORTRAN COMPATIBILITY - ASCII to RAD50 conver  21-AUG-1978 18:53:20   VAX-11 MACRO X0.3-11               Page   3
1-1             DECLARATIONS                                                                                                     (3)

                                     0000    57 	.SBTTL	DECLARATIONS
                                     0000    58
                                     0000    59 ;
                                     0000    60 ; INCLUDE FILES:
                                     0000    61 ;
                                     0000    62
                                     0000    63 ;
                                     0000    64 ; EXTERNAL SYMBOLS:
                                     0000    65 ;
                                     0000    66 	.DSABL	GBL
                                     0000    67 	.EXTRN	COM$$R50WD_R6
                                     0000    68
                                     0000    69 ;
                                     0000    70 ; MACROS:
                                     0000    71 ;
                                     0000    72
                                     0000    73 ;
                                     0000    74 ; PSECT DECLARATIONS:
                                     0000    75 ;
                                 00000000    76 	.PSECT	F4PCOMPAT$CODE	PIC,USR,CON,REL,LCL,SHR,EXE,RD,NOWRT
                                     0000    77
                                     0000    78 ;
                                     0000    79 ; EQUATED SYMBOLS:
                                     0000    80 ;
                                     0000    81
                                     0000    82 ;
                                     0000    83 ; OWN STORAGE:
                                     0000    84 ;
COM$IRAD50      ; FORTRAN COMPATIBILITY - ASCII to RAD50 conver  21-AUG-1978 18:53:20   VAX-11 MACRO X0.3-11               Page   4
1-1             IRAD50 - CONVERT HOLLERITH STRINGS TO RADIX-50                                                                   (4)

                                     0000    86 	.SBTTL	IRAD50 - CONVERT HOLLERITH STRINGS TO RADIX-50 REPRESATATION
                                     0000    87
                                     0000    88 ;++
                                     0000    89 ; FUNCTIONAL DESCRIPTION:
                                     0000    90 ;
                                     0000    91 ; 	Algorithmic steps:
                                     0000    92 ;	1) Initialization
                                     0000    93 ;	   CHARS_REM = max_char_cnt.rbu.ra
                                     0000    94 ;	   NEXT_INPUT_POSITION = char_array.rbu.ra
                                     0000    95 ;	   NEXT_OUTPUT_POSITION = radix50_array.rbu.ra
                                     0000    96 ;	   ACTUAL_CHAR_COUNT = 0
                                     0000    97 ;	2) Call COM$$R50WD_R6 to convert one word at a time.
                                     0000    98 ;	   If CHARS_REM =< 0 then return with function_value = ACTUAL_CHAR_COUNT,
                                     0000    99 ;	NOTE: Three characters of ASCII input are packed into each word
                                     0000   100 ;	of output in radix-50 format. The number of output word modified
                                     0000   101 ;	is computed by the expression (in integer mode) (ICNT+2)/3.
                                     0000   102 ;
; CALLING SEQUENCE:
                                     0000   103 ;
                                     0000   104 ;	[no_char_conv.ww.v] = IRAD50 (max_char_cnt.rw.r, char_array.rbu.ra,
                                     0000   105 ;				radix50_array.wbu.ra)
                                     0000   106
                           00000004  0000   107 	max_char_cnt	= 4		; max_char_cnt.rw.r
                           00000008  0000   108 	char_array	= 8		; char_array.rbu.ra
                           0000000C  0000   109 	radix50_array	= 12		; radix50_array.rbu.ra
                                     0000   110 ;
                                     0000   111
                                     0000   112 ;
                                     0000   113 ; INPUT PARAMETERS:
                                     0000   114
                                     0000   115 ;	max_char_cnt.rw.r		; maximum number of chars to convert
                                     0000   116 ;	char_array.rbu.ra		; ascii string to be converted
                                     0000   117 ;
                                     0000   118 ; IMPLICIT INPUTS:
                                     0000   119 ;	NONE
                                     0000   120 ;
                                     0000   121 ; OUTPUT PARAMETERS:
                                     0000   122 ;
                                     0000   123 ;	radix50_array.wbu.ra		; output location for the result
                                     0000   124 ;					; of the conversion
                                     0000   125 ;
                                     0000   126 ; IMPLICIT OUTPUTS:
                                     0000   127 ;	NONE
                                     0000   128 ;
                                     0000   129 ; COMPLETION CODES:
                                     0000   130 ;	NONE
                                     0000   131 ;
                                     0000   132 ; SIDE EFFECTS:
                                     0000   133 ;	NONE
                                     0000   134 ;
                                     0000   135 ;--
                                     0000   136
                                     0000   137
                                     0000   138
                               007C' 0000   139 	.ENTRY	IRAD50, ^M<R2, R3, R4, R5, R6>
                                     0002   140 					; standard call-by-reference entry
                                     0002   141
                                     0002   142 ;
COM$IRAD50      ; FORTRAN COMPATIBILITY - ASCII to RAD50 conver  21-AUG-1978 18:53:20   VAX-11 MACRO X0.3-11               Page   5
1-1             IRAD50 - CONVERT HOLLERITH STRINGS TO RADIX-50                                                                   (4)

                                     0002   143 ; Initialization
                                     0002   144 ;
                                     0002   145
            55         04 BC     3C  0002   146 	MOVZWL	@max_char_cnt(AP), R5	; R5 = maximum number of chars
                                     0006   147 					; to be converted
            52         08 AC     D0  0006   148 	MOVL	char_array(AP), R2	; R2 = address of input string
            54         0C AC     D0  000A   149 	MOVL	radix50_array(AP), R4	; R4 = address of the output location
                          50     D4  000E   150 	CLRL	R0			; R0 = ACTUAL_CHAR_COUNT = 0
                                     0010   151
                                     0010   152 ;
                                     0010   153 ; If CHARS_REM =< 0 then return with function_value equal to ACTUAL_CHAR_COUNT
                                     0010   154 ; else call R50WD_R5 to convert one word at a time.
                                     0010   155 ;
                                     0010   156
                                     0010   157 10$:
                 00000000'EF     16  0010   158 	JSB	COM$$R50WD_R6		; convert one word at a time
            84            51     B0  0016   159 	MOVW	R1, (R4)+		; output one word at a time
                          55     D5  0019   160 	TSTL	R5			; any more?
                          F3     14  001B   161 	BGTR	10$			; branch if so
                                 04  001D   162 	RET				; return with R0 = ACTUAL_CHAR_COUNT
                                     001E   163
                                     001E   164
                                     001E   165 	.END
COM$IRAD50      ; FORTRAN COMPATIBILITY - ASCII to RAD50 conver  21-AUG-1978 18:53:20   VAX-11 MACRO X0.3-11               Page   6
SYMBOL TABLE                                                                                                                     (4)

CHAR_ARRAY     = 00000008
COM$$R50WD_R6    ********   X   01
FOR$K_ERR_PREFX= 00000018
IRAD50           00000000 RG    02
MAX_CHAR_CNT   = 00000004
MTH$K_ERR_PREFX= 00000016
MTH__FLOOVEMAT = 00000058
MTH__FLOUNDMAT = 00000059
MTH__INVARG    = 00000051
MTH__LOGZERNEG = 00000053
MTH__SINSIGLOS = 00000057
MTH__SQUROONEG = 00000054
MTH__UNDEXP    = 00000052
MTH__WRONUMARG = 00000050
RADIX50_ARRAY  = 0000000C


PROGRAM SECTION SYNOPSIS

.  ABS  .        00000000      00     NOPIC   USR   CON   ABS   LCL NOSHR NOEXE NORD  NOWRT BYTE
. BLANK .        00000000      01     NOPIC   USR   CON   REL   LCL NOSHR   EXE   RD    WRT BYTE
F4PCOMPAT$CODE   0000001E      02       PIC   USR   CON   REL   LCL   SHR   EXE   RD  NOWRT BYTE


THERE WERE NO ERRORS OR WARNINGS.
27956. BYTES LEFT IN FREE MEMORY POOL.
OBJ$:COMIRAD50,LIS$:COMIRAD50/-SP=LIB$:S/ML,SRC$:P,COMIRAD50
0 MLB DIR RDS - 0 GETS TO DEFINE 0 MACROS. 2 INTER. FILE WRITES.
