FOR$DATE_T_DS   ; return system date to FORTRAN                  21-AUG-1978 18:54:47   VAX-11 MACRO X0.3-11               Page   0
TABLE OF CONTENTS

   (2)     100  HISTORY		; Detailed Current Edit History
   (3)     100  DECLARATIONS
   (4)     100  FOR$DATE_T_DS - return system date to FORTRAN s
FOR$DATE_T_DS   ; return system date to FORTRAN                  21-AUG-1978 18:54:47   VAX-11 MACRO X0.3-11               Page   1
0-3                                                                                                                              (1)

                                     0000   100 	.TITLE	FOR$DATE_T_DS	; return system date to FORTRAN
                                     0000   200 				; character string
                                     0000   300 	.IDENT	/0-3/		; File: FORDATEDS.MAR
                                     0000   400
                                     0000   500 ;
                                     0000   600 ; Copyright (C) 1977
                                     0000   700 ; Digital Equipment Corporation, Maynard, Massachusetts 01754
                                     0000   800 ;
                                     0000   900 ; This software is furnished under a license for use only on a single
                                     0000  1000 ; computer  system  and  may be copied only with the inclusion of the
                                     0000  1100 ; above copyright notice. This software, or any other copies thereof,
                                     0000  1200 ; may not be provided or otherwise made available to any other person
                                     0000  1300 ; except for use on such system and to one who agree to these license
                                     0000  1400 ; terms.  Title to  and  ownership of the software shall at all times
                                     0000  1500 ; remain in DEC.
                                     0000  1600 ;
                                     0000  1700 ; The information in the software is subject to change without notice
                                     0000  1800 ; and should  not  be construed  as a commitment by Digital Equipment
                                     0000  1900 ; Corporation.
                                     0000  2000 ;
                                     0000  2100 ; DEC assumes  no  responsibility  for the use or  reliability of its
                                     0000  2200 ; software on equipment which is not supplied by DEC.
                                     0000  2300 ;
                                     0000  2400 ;
                                     0000  2500 ; FACILITY: FORTRAN SYSTEM ROUTINE - FORTRAN LIBRARY
                                     0000  2600 ;++
                                     0000  2700 ; ABSTRACT:
                                     0000  2800 ;	Return system date in the form DD-MMM-YY to a FORTRAN (fixed-len)
                                     0000  2900 ;	string.
                                     0000  3000 ;
                                     0000  3100 ;--
                                     0000  3200 ;
                                     0000  3300 ; VERSION: 0
                                     0000  3400 ;
                                     0000  3500 ; HISTORY:
                                     0000  3600 ;
                                     0000  3700 ; AUTHOR:
                                     0000  3800 ;	Jonathan M. Taylor, 23-Aug-77: Version 0
                                     0000  3900 ;
                                     0000  4000 ; MODIFIED BY:
                                     0000  4100 ;
                                     0000  4200 ; 0-1	original  JMT 23-Aug-77
                                     0000  4300 ; 0-2	squeezed a byte out.  JMT 29-Jan-78
                                     0000  4400 ;
                                     0000  4500 ;
FOR$DATE_T_DS   ; return system date to FORTRAN                  21-AUG-1978 18:54:47   VAX-11 MACRO X0.3-11               Page   2
0-3             HISTORY  ; Detailed Current Edit History                                                                         (2)

                                     0000   100 	.SBTTL	HISTORY		; Detailed Current Edit History
                                     0000   200
                                     0000   300
                                     0000   400 ; Edit History for Version 0 of FOR$DATE_T_DS
                                     0000   500 ;
                                     0000   600
                                     0000   700 ; 0-3	- Remove FOR$FLAG_JACKET.  TNH 11-July-78
FOR$DATE_T_DS   ; return system date to FORTRAN                  21-AUG-1978 18:54:47   VAX-11 MACRO X0.3-11               Page   3
0-3             DECLARATIONS                                                                                                     (3)

                                     0000   100 	.SBTTL	DECLARATIONS
                                     0000   200
                                     0000   300 ;
                                     0000   400 ; INCLUDE FILES:
                                     0000   500 ;	oerr.mar
                                     0000   600
                                     0000   700 ;
                                     0000   800 ; EXTERNAL SYMBOLS:
                                     0000   900 ;	none
                                     0000  1000
                                     0000  1100 ;
                                     0000  1200 ; MACROS:
                                     0000  1300 ;	none
                                     0000  1400
                                     0000  1500 ;
                                     0000  1600 ; PSECT DECLARATIONS:
                                 00000000  1700 	.PSECT	FOR$CODE	LONG, EXE, NOWRT, PIC, SHR
                                     0000  1800
                                     0000  1900 ;
                                     0000  2000 ; EQUATED SYMBOLS:
                                     0000  2100 ;	none
                                     0000  2200
                                     0000  2300 ;
                                     0000  2400 ; OWN STORAGE:
                                     0000  2500 ;	none
                                     0000  2600
FOR$DATE_T_DS   ; return system date to FORTRAN                  21-AUG-1978 18:54:47   VAX-11 MACRO X0.3-11               Page   4
0-3             FOR$DATE_T_DS - return system date to FORTRAN s                                                                  (4)

                                     0000   100 	.SBTTL	FOR$DATE_T_DS - return system date to FORTRAN string
                                     0000   200
                                     0000   300 ;++
                                     0000   400 ; FUNCTIONAL DESCRIPTION:
                                     0000   500 ;	Use system service ASCTIM to move system date to a local (stack)
                                     0000   600 ;	buffer.  Move the last 2 digits of date on top of 1st 2 -
                                     0000   700 ;	"1977" -> "7777".  Return this date to user string.
                                     0000   800 ;
                                     0000   900 ; CALLING SEQUENCE:
                                     0000  1000 ;	CALL	FOR$DATE_T_DS (date_string.wt.ds)
                                     0000  1100 ;
                                     0000  1200 ;
                                     0000  1300 ; INPUT PARAMETERS:
                                     0000  1400 ;	date_string is the address of a fixed-len string.
                                     0000  1500 ;
                                     0000  1600 ; IMPLICIT INPUTS:
                                     0000  1700 ;	NONE
                                     0000  1800 ;
                                     0000  1900 ; OUTPUT PARAMETERS:
                                     0000  2000 ;	NONE
                                     0000  2100 ;
                                     0000  2200 ; IMPLICIT OUTPUTS:
                                     0000  2300 ;	NONE
                                     0000  2400 ;
                                     0000  2500 ; COMPLETION CODES:
                                     0000  2600 ;	NONE
                                     0000  2700 ;
                                     0000  2800 ; SIDE EFFECTS:
                                     0000  2900 ;	NONE
                                     0000  3000 ;
                                     0000  3100 ;--
                                     0000  3200
                                     0000  3300
                                     0000  3400
                               003C' 0000  3500 	.ENTRY	FOR$DATE_T_DS,	^M<R2,R3,R4,R5>
            5E            0C     C2  0002  3700 	SUBL	#12, SP			; make room for date string
            52            5E     D0  0005  3800 	MOVL	SP, R2			; R2 -> room
            7E            52     D0  0008  3900 	MOVL	R2, -(SP)		; build a string descriptor for room
            7E   010E000B 8F     D0  000B  4000 	MOVL	#^X10E000B, -(SP)	; len = 11
            50            5E     D0  0012  4100 	MOVL	SP, R0			; R0 -> src descriptor
                                     0015  4200 	$ASCTIM_S	, (R0)		; R2 -> date string
         07 A2         09 A2     B0  0024  4300 	MOVW	9(R2), 7(R2)		; mung up year
            50         04 BC     7D  0029  4400 	MOVQ	@4(AP), R0		; R0/R1 = string descriptor
            62            09     2C  002D  4500 	MOVC5	#9, (R2), #^A/ /, R0, (R1)
            50            20         0030
                          61         0032
                                     0033  4600 					; move into dest buffer
                                 04  0033  4700 	RET
                                     0034  4800
                                     0034  4900
                                     0034  5000 	.END
FOR$DATE_T_DS   ; return system date to FORTRAN                  21-AUG-1978 18:54:47   VAX-11 MACRO X0.3-11               Page   5
SYMBOL TABLE                                                                                                                     (4)

FOR$DATE_T_DS    00000000 RG    02
FOR$K_ERR_PREFX= 00000018
MTH$K_ERR_PREFX= 00000016
MTH__FLOOVEMAT = 00000058
MTH__FLOUNDMAT = 00000059
MTH__INVARG    = 00000051
MTH__LOGZERNEG = 00000053
MTH__SINSIGLOS = 00000057
MTH__SQUROONEG = 00000054
MTH__UNDEXP    = 00000052
MTH__WRONUMARG = 00000050
SYS$ASCTIM       ********   X   02


PROGRAM SECTION SYNOPSIS

.  ABS  .        00000000      00     NOPIC   USR   CON   ABS   LCL NOSHR NOEXE NORD  NOWRT BYTE
. BLANK .        00000000      01     NOPIC   USR   CON   REL   LCL NOSHR   EXE   RD    WRT BYTE
FOR$CODE         00000034      02       PIC   USR   CON   REL   LCL   SHR   EXE   RD  NOWRT LONG


THERE WERE NO ERRORS OR WARNINGS.
27692. BYTES LEFT IN FREE MEMORY POOL.
OBJ$:FORDATEDS,LIS$:FORDATEDS/-SP=LIB$:S/ML,SRC$:P,FORDATEDS
6 MLB DIR RDS - 14 GETS TO DEFINE 2 MACROS. 2 INTER. FILE WRITES.
