FOR$EXIT        - FORTRAN CALL EXIT                              21-AUG-1978 18:55:13   VAX-11 MACRO X0.3-11               Page   0
TABLE OF CONTENTS

   (2)      81  Version History
   (3)      91  DECLARATIONS
   (4)     112  FOR$EXIT	- exit program
FOR$EXIT        - FORTRAN CALL EXIT                              21-AUG-1978 18:55:13   VAX-11 MACRO X0.3-11               Page   1
0-3                                                                                                                              (1)

                                     0000     1 	.TITLE	FOR$EXIT - FORTRAN CALL EXIT
                                     0000     2 	.IDENT /0-3/			; File: FOREXIT.MAR
                                     0000     3
                                     0000     4
                                     0000     5
                                     0000     6 ;			  COPYRIGHT (c) 1977 BY
                                     0000     7 ;	      DIGITAL EQUIPMENT CORPORATION, MAYNARD, MASS.
                                     0000     8 ;
                                     0000     9 ; THIS SOFTWARE IS FURNISHED UNDER A LICENSE AND MAY BE USED AND  COPIED
                                     0000    10 ; ONLY  IN  ACCORDANCE  WITH  THE  TERMS  OF  SUCH  LICENSE AND WITH THE
                                     0000    11 ; INCLUSION OF THE ABOVE COPYRIGHT NOTICE.  THIS SOFTWARE OR  ANY  OTHER
                                     0000    12 ; COPIES  THEREOF MAY NOT BE PROVIDED OR OTHERWISE MADE AVAILABLE TO ANY
                                     0000    13 ; OTHER PERSON.  NO TITLE TO AND OWNERSHIP OF  THE  SOFTWARE  IS  HEREBY
                                     0000    14 ; TRANSFERRED.
                                     0000    15 ;
                                     0000    16 ; THE INFORMATION IN THIS SOFTWARE IS SUBJECT TO CHANGE  WITHOUT  NOTICE
                                     0000    17 ; AND  SHOULD  NOT  BE  CONSTRUED  AS  A COMMITMENT BY DIGITAL EQUIPMENT
                                     0000    18 ; CORPORATION.
                                     0000    19 ;
                                     0000    20 ; DIGITAL ASSUMES NO RESPONSIBILITY FOR THE USE OR  RELIABILITY  OF  ITS
                                     0000    21 ; SOFTWARE ON EQUIPMENT WHICH IS NOT SUPPLIED BY DIGITAL.
                                     0000    22 ;
                                     0000    23
                                     0000    24 ;++
                                     0000    25 ; FACILITY: FORTRAN Support Library
                                     0000    26 ;
                                     0000    27 ; ABSTRACT:
                                     0000    28 ;
                                     0000    29 ;	Call system service $EXIT to exit program.
                                     0000    30 ;
                                     0000    31 ; ENVIRONMENT: User Mode, AST Reentrant
                                     0000    32 ;
                                     0000    33 ;--
FOR$EXIT        - FORTRAN CALL EXIT                              21-AUG-1978 18:55:13   VAX-11 MACRO X0.3-11               Page   2
0-3             Version History                                                                                                  (2)

                                     0000    35 	.SBTTL	Version History
                                     0000    36
                                     0000    37 ;	VERSION 0
                                     0000    38 ; AUTHOR: Jonathan M. Taylor, CREATION DATE: 25-Jan-78
                                     0000    39 ;
                                     0000    40 ;	JMT, 25-Jan-78 : VERSION 0
                                     0000    41 ;
                                     0000    42 ; 0-1	- Original
                                     0000    43 ; 0-2	- Pass optional user parameter as completion code.  JMT 27-Jan-78
FOR$EXIT        - FORTRAN CALL EXIT                              21-AUG-1978 18:55:13   VAX-11 MACRO X0.3-11               Page   3
0-3             DECLARATIONS                                                                                                     (3)

                                     0000    45 	.SBTTL	DECLARATIONS
                                     0000    46 ;
                                     0000    47 ; INCLUDE FILES:
                                     0000    48 ;
                                     0000    49
                                     0000    50 ;
                                     0000    51 ; MACROS:
                                     0000    52 ;
                                     0000    53
                                     0000    54 ;
                                     0000    55 ; EQUATED SYMBOLS:
                                     0000    56 ;
                                     0000    57 ;
                                     0000    58 ; OWN STORAGE:
                                     0000    59 ;
                                     0000    60
                                     0000    61 ;
                                     0000    62 ; PSECT DECLARATIONS:
                                     0000    63 ;
                                 00000000    64 	.PSECT FOR$CODE PIC, SHR, LONG, EXE, NOWRT
FOR$EXIT        - FORTRAN CALL EXIT                              21-AUG-1978 18:55:13   VAX-11 MACRO X0.3-11               Page   4
0-3             FOR$EXIT - exit program                                                                                          (4)

                                     0000    66 	.SBTTL	FOR$EXIT	- exit program
                                     0000    67
                                     0000    68 ;++
                                     0000    69 ; FUNCTIONAL DESCRIPTION:
                                     0000    70 ;
                                     0000    71 ;	Call system service EXIT to exit to CLI.  Completion code value
                                     0000    72 ;	is 1 unless user provided one as an optional argument.
                                     0000    73 ;
                                     0000    74 ; CALLING SEQUENCE:
                                     0000    75 ;
                                     0000    76 ;	FOR$EXIT [(completion_code)]
                                     0000    77 ;
                                     0000    78 ; INPUT PARAMETERS:
                                     0000    79 ;
                                     0000    80 ;	NONE
                                     0000    81 ;
                                     0000    82 ; IMPLICIT INPUTS:
                                     0000    83 ;
                                     0000    84 ;	NONE
                                     0000    85 ;
                                     0000    86 ; OUTPUT PARAMETERS:
                                     0000    87 ;
                                     0000    88 ;	NONE
                                     0000    89 ;
                                     0000    90 ; IMPLICIT OUTPUTS:
                                     0000    91 ;
                                     0000    92 ;	NONE
                                     0000    93 ;
                                     0000    94 ; FUNCTION VALUE:
                                     0000    95 ;
                                     0000    96 ;
                                     0000    97 ; SIDE EFFECTS:
                                     0000    98 ;
                                     0000    99 ;	NONE
                                     0000   100 ;
                                     0000   101 ;--
                                     0000   102
                               0000' 0000   103 	.ENTRY	FOR$EXIT_W, 0
                          6C     95  0002   104 	TSTB	(AP)
                          16     13  0004   105 	BEQL	CALL_1
                       04 BC     DD  0006   106 	PUSHL	@4(AP)
                          0A     11  0009   107 	BRB	CALLIT
                                     000B   108
                               0000' 000B   109 	.ENTRY	FOR$EXIT, 0
                          6C     95  000D   110 	TSTB	(AP)
                          0B     13  000F   111 	BEQL	CALL_1
            7E         04 BC     3C  0011   112 	MOVZWL	@4(AP), -(SP)
                                     0015   113 CALLIT:
   00000000'9F            01     FB  0015   114 	CALLS	#1, @#SYS$EXIT
                                     001C   115 CALL_1:
                          01     DD  001C   116 	PUSHL	#1
                          F5     11  001E   117 	BRB	CALLIT
                                     0020   118
                                     0020   119
                                     0020   120 	.END
FOR$EXIT        - FORTRAN CALL EXIT                              21-AUG-1978 18:55:13   VAX-11 MACRO X0.3-11               Page   5
SYMBOL TABLE                                                                                                                     (4)

CALLIT           00000015 R     02
CALL_1           0000001C R     02
FOR$EXIT         0000000B RG    02
FOR$EXIT_W       00000000 RG    02
FOR$K_ERR_PREFX= 00000018
MTH$K_ERR_PREFX= 00000016
MTH__FLOOVEMAT = 00000058
MTH__FLOUNDMAT = 00000059
MTH__INVARG    = 00000051
MTH__LOGZERNEG = 00000053
MTH__SINSIGLOS = 00000057
MTH__SQUROONEG = 00000054
MTH__UNDEXP    = 00000052
MTH__WRONUMARG = 00000050
SYS$EXIT         ********   X   02


PROGRAM SECTION SYNOPSIS

.  ABS  .        00000000      00     NOPIC   USR   CON   ABS   LCL NOSHR NOEXE NORD  NOWRT BYTE
. BLANK .        00000000      01     NOPIC   USR   CON   REL   LCL NOSHR   EXE   RD    WRT BYTE
FOR$CODE         00000020      02       PIC   USR   CON   REL   LCL   SHR   EXE   RD  NOWRT LONG


THERE WERE NO ERRORS OR WARNINGS.
27996. BYTES LEFT IN FREE MEMORY POOL.
OBJ$:FOREXIT,LIS$:FOREXIT/-SP=LIB$:S/ML,SRC$:P,FOREXIT
0 MLB DIR RDS - 0 GETS TO DEFINE 0 MACROS. 2 INTER. FILE WRITES.
