FOR$IDATE                                                        21-AUG-1978 18:55:18   VAX-11 MACRO X0.3-11               Page   0
TABLE OF CONTENTS

   (2)     100  HISTORY		; Detailed Current Edit History
   (3)     100  DECLARATIONS
   (4)     100  FOR$IDATE - return month, day, year as INTEGER*
FOR$IDATE                                                        21-AUG-1978 18:55:18   VAX-11 MACRO X0.3-11               Page   1
0-2                                                                                                                              (1)

                                     0000   100 	.TITLE	FOR$IDATE
                                     0000   200 	.IDENT	/0-2/		; File: FORIDATE.MAR
                                     0000   300
                                     0000   400 ;
                                     0000   500 ; Copyright (C) 1977
                                     0000   600 ; Digital Equipment Corporation, Maynard, Massachusetts 01754
                                     0000   700 ;
                                     0000   800 ; This software is furnished under a license for use only on a single
                                     0000   900 ; computer  system  and  may be copied only with the inclusion of the
                                     0000  1000 ; above copyright notice. This software, or any other copies thereof,
                                     0000  1100 ; may not be provided or otherwise made available to any other person
                                     0000  1200 ; except for use on such system and to one who agree to these license
                                     0000  1300 ; terms.  Title to  and  ownership of the software shall at all times
                                     0000  1400 ; remain in DEC.
                                     0000  1500 ;
                                     0000  1600 ; The information in the software is subject to change without notice
                                     0000  1700 ; and should  not  be construed  as a commitment by Digital Equipment
                                     0000  1800 ; Corporation.
                                     0000  1900 ;
                                     0000  2000 ; DEC assumes  no  responsibility  for the use or  reliability of its
                                     0000  2100 ; software on equipment which is not supplied by DEC.
                                     0000  2200 ;
                                     0000  2300 ;
                                     0000  2400 ; FACILITY: FORTRAN SYSTEM LIBRARY
                                     0000  2500 ;++
                                     0000  2600 ; ABSTRACT:
                                     0000  2700 ;
                                     0000  2800 ;	Return current month, day, and year as one-word integer values.
                                     0000  2900
                                     0000  3000 ;--
                                     0000  3100 ;
                                     0000  3200 ; VERSION: 0
                                     0000  3300 ;
                                     0000  3400 ; HISTORY:
                                     0000  3500 ;
                                     0000  3600 ; AUTHOR:
                                     0000  3700 ;	Jonathan M. Taylor, 17-Aug-77: Version 0
                                     0000  3800 ;
                                     0000  3900 ; MODIFIED BY:
                                     0000  4000 ;
                                     0000  4100 ;
                                     0000  4200 ;
FOR$IDATE                                                        21-AUG-1978 18:55:18   VAX-11 MACRO X0.3-11               Page   2
0-2             HISTORY  ; Detailed Current Edit History                                                                         (2)

                                     0000   100 	.SBTTL	HISTORY		; Detailed Current Edit History
                                     0000   200
                                     0000   300
                                     0000   400 ; Edit History for Version 0 of FOR$IDATE
                                     0000   500 ;
                                     0000   600 ; 0-2	- Remove FOR$FLAG_JACKET.  TNH 11-July-78
FOR$IDATE                                                        21-AUG-1978 18:55:18   VAX-11 MACRO X0.3-11               Page   3
0-2             DECLARATIONS                                                                                                     (3)

                                     0000   100 	.SBTTL	DECLARATIONS
                                     0000   200
                                     0000   300 ;
                                     0000   400 ; INCLUDE FILES:
                                     0000   500 ;	oerr.mar
                                     0000   600
                                     0000   700 ;
                                     0000   800 ; EXTERNAL SYMBOLS:
                                     0000   900 ;
                                     0000  1000
                                     0000  1100 ;
                                     0000  1200 ; MACROS:
                                     0000  1300 ;
                                     0000  1400
                                     0000  1500 ;
                                     0000  1600 ; PSECT DECLARATIONS:
                                 00000000  1700 	.PSECT	FOR$CODE	PIC, SHR, LONG, EXE, NOWRT
                                     0000  1800
                                     0000  1900 ;
                                     0000  2000 ; EQUATED SYMBOLS:
                                     0000  2100 ;
                                     0000  2200
                                     0000  2300 ;
                                     0000  2400 ; OWN STORAGE:
                                     0000  2500 ;	none
FOR$IDATE                                                        21-AUG-1978 18:55:18   VAX-11 MACRO X0.3-11               Page   4
0-2             FOR$IDATE - return month, day, year as INTEGER*                                                                  (4)

                                     0000   100 	.SBTTL	FOR$IDATE - return month, day, year as INTEGER*2
                                     0000   200
                                     0000   300 ;++
                                     0000   400 ; FUNCTIONAL DESCRIPTION:
                                     0000   500 ;
                                     0000   600 ;	FOR$IDATE uses system service $NUMTIM to get date information.
                                     0000   700 ;	This information is converted to the appropriate type and stored
                                     0000   800 ;	through the addresses passed as parameters.
                                     0000   900 ;
                                     0000  1000 ; CALLING SEQUENCE:
                                     0000  1100 ;
                                     0000  1200 ;	CALL FOR$IDATE (month.ww.r, day.ww.r, year.ww.r)
                                     0000  1300 ;
                                     0000  1400 ; INPUT PARAMETERS:
                                     0000  1500 ;
                                     0000  1600 ;	month.ww.r	adr of word to place month (1-12) integer
                                     0000  1700 ;	day.ww.r	adr of word to place day (1-31) integer
                                     0000  1800 ;	year.ww.r	adr of word to place year (0-99)integer
                                     0000  1900 ;
                                     0000  2000 ; IMPLICIT INPUTS:
                                     0000  2100 ;	NONE
                                     0000  2200 ;
                                     0000  2300 ; OUTPUT PARAMETERS:
                                     0000  2400 ;	NONE
                                     0000  2500 ;
                                     0000  2600 ; IMPLICIT OUTPUTS:
                                     0000  2700 ;	NONE
                                     0000  2800 ;
                                     0000  2900 ; COMPLETION CODES:
                                     0000  3000 ;	NONE
                                     0000  3100 ;
                                     0000  3200 ; SIDE EFFECTS:
                                     0000  3300 ;	SIGNALs Integer Overflow (this should never happen)
                                     0000  3400 ;
                                     0000  3500 ;--
                                     0000  3600
                                     0000  3700
                                     0000  3800
                               4000' 0000  3900 	.ENTRY	FOR$IDATE,	^M<IV>
            5E            10     C2  0002  4100 	SUBL	#16, SP			; save 8 words for $NUMTIM
            50            5E     D0  0005  4200 	MOVL	SP, R0			; R0 -> data area
                                     0008  4300 	$NUMTIM_S	(R0)		; get system time values
            50            8E     3C  0013  4400 	MOVZWL	(SP)+, R0		; R0 = "year since 0"
                          51     D4  0016  4500 	CLRL	R1			; R0 is now a quadword value
            50   00000064 8F     7B  0018  4600 	EDIV	#100, R0, R0, R0	; R0 = two digit year value
            50            50         001F
         0C BC            50     B0  0021  4700 	MOVW	R0, @12(AP)		; return year
         04 BC            8E     B0  0025  4800 	MOVW	(SP)+, @4(AP)		; return month
         08 BC            6E     B0  0029  4900 	MOVW	(SP), @8(AP)		; return day
                                 04  002D  5000 	RET				; return
                                     002E  5100
                                     002E  5200
                                     002E  5300 	.END
FOR$IDATE                                                        21-AUG-1978 18:55:18   VAX-11 MACRO X0.3-11               Page   5
SYMBOL TABLE                                                                                                                     (4)

FOR$IDATE        00000000 RG    02
FOR$K_ERR_PREFX= 00000018
MTH$K_ERR_PREFX= 00000016
MTH__FLOOVEMAT = 00000058
MTH__FLOUNDMAT = 00000059
MTH__INVARG    = 00000051
MTH__LOGZERNEG = 00000053
MTH__SINSIGLOS = 00000057
MTH__SQUROONEG = 00000054
MTH__UNDEXP    = 00000052
MTH__WRONUMARG = 00000050
SYS$NUMTIM       ********   X   02


PROGRAM SECTION SYNOPSIS

.  ABS  .        00000000      00     NOPIC   USR   CON   ABS   LCL NOSHR NOEXE NORD  NOWRT BYTE
. BLANK .        00000000      01     NOPIC   USR   CON   REL   LCL NOSHR   EXE   RD    WRT BYTE
FOR$CODE         0000002E      02       PIC   USR   CON   REL   LCL   SHR   EXE   RD  NOWRT LONG


THERE WERE NO ERRORS OR WARNINGS.
27788. BYTES LEFT IN FREE MEMORY POOL.
OBJ$:FORIDATE,LIS$:FORIDATE/-SP=LIB$:S/ML,SRC$:P,FORIDATE
6 MLB DIR RDS - 12 GETS TO DEFINE 2 MACROS. 2 INTER. FILE WRITES.
