FOR$MSGDEF      ; FORTRAN library error codes/messages as globa  21-AUG-1978 18:56:14   VAX-11 MACRO X0.3-11               Page   0
TABLE OF CONTENTS

   (2)     100  HISTORY		; Detailed Current Edit History
   (3)     100  DECLARATIONS
FOR$MSGDEF      ; FORTRAN library error codes/messages as globa  21-AUG-1978 18:56:14   VAX-11 MACRO X0.3-11               Page   1
2-1                                                                                                                              (1)

                                     0000   100 	.TITLE	FOR$MSGDEF		; FORTRAN library error codes/messages as globals
                                     0000   200 	.IDENT	/2-1/			; File: FORMSGDEF.MAR
                                     0000   300
                                     0000   400 ;
                                     0000   500 ; Copyright (C) 1977
                                     0000   600 ; Digital Equipment Corporation, Maynard, Massachusetts 01754
                                     0000   700 ;
                                     0000   800 ; This software is furnished under a license for use only on a single
                                     0000   900 ; computer  system  and  may be copied only with the inclusion of the
                                     0000  1000 ; above copyright notice. This software, or any other copies thereof,
                                     0000  1100 ; may not be provided or otherwise made available to any other person
                                     0000  1200 ; except for use on such system and to one who agree to these license
                                     0000  1300 ; terms.  Title to  and  ownership of the software shall at all times
                                     0000  1400 ; remain in DEC.
                                     0000  1500 ;
                                     0000  1600 ; The information in the software is subject to change without notice
                                     0000  1700 ; and should  not  be construed  as a commitment by Digital Equipment
                                     0000  1800 ; Corporation.
                                     0000  1900 ;
                                     0000  2000 ; DEC assumes  no  responsibility  for the use or  reliability of its
                                     0000  2100 ; software on equipment which is not supplied by DEC.
                                     0000  2200 ;
                                     0000  2300 ;
                                     0000  2400 ; FACILITY: FORTRAN SUPPORT LIBRARY
                                     0000  2500 ;++
                                     0000  2600 ; ABSTRACT:
                                     0000  2700 ;
                                     0000  2800 ;	Define all completion codes used by FOR$ facility.
                                     0000  2900 ;
                                     0000  3000 ;--
                                     0000  3100 ;
                                     0000  3200 ; VERSION: 0
                                     0000  3300 ;
                                     0000  3400 ; HISTORY:
                                     0000  3500 ;
                                     0000  3600 ; AUTHOR:
                                     0000  3700 ;	Thomas N. Hastings, 8-Sep-77: Version 0
                                     0000  3800 ;
                                     0000  3900 ; MODIFIED BY:
                                     0000  4000 ;
                                     0000  4100 ;
                                     0000  4200 ;
FOR$MSGDEF      ; FORTRAN library error codes/messages as globa  21-AUG-1978 18:56:14   VAX-11 MACRO X0.3-11               Page   2
2-1             HISTORY  ; Detailed Current Edit History                                                                         (2)

                                     0000   100 	.SBTTL	HISTORY		; Detailed Current Edit History
                                     0000   200
                                     0000   300
                                     0000   400 ; Edit History for Version 0
                                     0000   500 ;
                                     0000   600 ; Edit History for Version 1
                                     0000   700 ;
                                     0000   800 ; 1-1	Created FORMSGDEF from RTLMSGDEF.  JMT 10-Jan-78
                                     0000   900 ; 1-2	- Call $FORDEF to define messages.  TNH 26-Jan-78
FOR$MSGDEF      ; FORTRAN library error codes/messages as globa  21-AUG-1978 18:56:14   VAX-11 MACRO X0.3-11               Page   3
2-1             DECLARATIONS                                                                                                     (3)

                                     0000   100 	.SBTTL	DECLARATIONS
                                     0000   200
                                     0000   300 ;
                                     0000   400 ; INCLUDE FILES:
                                     0000   500 ;
                                     0000   600 ;	File RTLMSG.MAR is MDL output which has all Run-time library symbols defined
                                     0000   700 ;	For simplicity, it is copied into library file S.MLB along with others
                                     0000   800 	$FORDEF GLOBAL	; FOR$ codes
                                     0000   900
                                     0000  1000 ;
                                     0000  1100 ; EXTERNAL SYMBOLS:
                                     0000  1200 ;
                                     0000  1300
                                     0000  1400 ;
                                     0000  1500 ; MACROS:
                                     0000  1600 ;
                                     0000  1700
                                     0000  1800 ;
                                     0000  1900 ; PSECT DECLARATIONS:
                                     0000  2000 ;
                                     0000  2100 ;
                                     0000  2200 ; EQUATED SYMBOLS:
                                     0000  2300 ;
                                     0000  2400
                                     0000  2500 ;
                                     0000  2600 ; OWN STORAGE:
                                     0000  2700 ;
                                     0000  2800
                                     0000  2900
                                     0000  3000 	.END				; End of module
FOR$MSGDEF      ; FORTRAN library error codes/messages as globa  21-AUG-1978 18:56:14   VAX-11 MACRO X0.3-11               Page   4
SYMBOL TABLE                                                                                                                     (3)

BIT...         = 001882F4
FOR$K_ERR_PREFX= 00000018
FOR$_ADJARRDIM = 001882EC  G
FOR$_ATTREANON = 00188124  G
FOR$_BACERR    = 001880BC  G
FOR$_CLOERR    = 001880E4  G
FOR$_DUPFILSPE = 001880AC  G
FOR$_ENDDURREA = 001880C4  G
FOR$_ENDFILERR = 0018810C  G
FOR$_ERRDURREA = 0018813C  G
FOR$_ERRDURWRI = 00188134  G
FOR$_FILNAMSPE = 0018815C  G
FOR$_FILNOTFOU = 001880EC  G
FOR$_FORVARMIS = 001881EC  G
FOR$_INCOPECLO = 00188174  G
FOR$_INCRECLEN = 0018812C  G
FOR$_INFFORLOO = 001881E4  G
FOR$_INPCONERR = 00188204  G
FOR$_INPRECTOO = 001880B4  G
FOR$_INPSTAREQ = 0018821C  G
FOR$_INSVIRMEM = 0018814C  G
FOR$_INVARGFOR = 00188184  G
FOR$_INVLOGUNI = 00188104  G
FOR$_KEYVALERR = 0018816C  G
FOR$_LISIO_SYN = 001881DC  G
FOR$_MIXFILACC = 001880FC  G
FOR$_MORONEREC = 001880DC  G
FOR$_NOTFORSPE = 0018800C  G
FOR$_NO_SUCDEV = 00188154  G
FOR$_OPEDEFREQ = 001880D4  G
FOR$_OPEFAI    = 001880F4  G
FOR$_OUTCONERR = 001881FA  G
FOR$_OUTSTAOVE = 00188214  G
FOR$_RECIO_OPE = 00188144  G
FOR$_RECNUMOUT = 001880CC  G
FOR$_RECSPEERR = 00188164  G
FOR$_REWERR    = 001880A4  G
FOR$_SEGRECFOR = 0018811C  G
FOR$_SYNERRFOR = 001881F4  G
FOR$_UNIALROPE = 00188114  G
FOR$_VFEVALERR = 00188224  G
FOR$_WRIREAFIL = 0018817C  G
GBL...         = 00000001
MTH$K_ERR_PREFX= 00000016
MTH__FLOOVEMAT = 00000058
MTH__FLOUNDMAT = 00000059
MTH__INVARG    = 00000051
MTH__LOGZERNEG = 00000053
MTH__SINSIGLOS = 00000057
MTH__SQUROONEG = 00000054
MTH__UNDEXP    = 00000052
MTH__WRONUMARG = 00000050


PROGRAM SECTION SYNOPSIS

.  ABS  .        00000000      00     NOPIC   USR   CON   ABS   LCL NOSHR NOEXE NORD  NOWRT BYTE
FOR$MSGDEF      ; FORTRAN library error codes/messages as globa  21-AUG-1978 18:56:14   VAX-11 MACRO X0.3-11               Page   5
PROGRAM SECTION SYNOPSIS                                                                                                         (3)

. BLANK .        00000000      01     NOPIC   USR   CON   REL   LCL NOSHR   EXE   RD    WRT BYTE
$ABS$            00000000      02     NOPIC   USR   CON   ABS   LCL NOSHR   EXE   RD    WRT BYTE


THERE WERE NO ERRORS OR WARNINGS.
24956. BYTES LEFT IN FREE MEMORY POOL.
1216. BYTES OF RECLAIMED MEMORY.
OBJ$:FORMSGDEF,LIS$:FORMSGDEF/-SP=LIB$:S/ML,SRC$:P,FORMSGDEF
2 MLB DIR RDS - 121 GETS TO DEFINE 7 MACROS. 7 INTER. FILE WRITES.
