FOR$SECNDS      - GET DELTA TIME                                 21-AUG-1978 18:56:31   VAX-11 MACRO X0.3-11               Page   0
TABLE OF CONTENTS

   (2)     100  HISTORY		; Detailed Current Edit History
   (3)     100  DECLARATIONS
   (4)     100  FOR$SECNDS - get delta system time
FOR$SECNDS      - GET DELTA TIME                                 21-AUG-1978 18:56:31   VAX-11 MACRO X0.3-11               Page   1
0-6                                                                                                                              (1)

                                     0000   100 	.TITLE	FOR$SECNDS - GET DELTA TIME
                                     0000   200 	.IDENT	/0-6/		; File: FORSECNDS.MAR
                                     0000   300
                                     0000   400 ;
                                     0000   500 ; Copyright (C) 1977
                                     0000   600 ; Digital Equipment Corporation, Maynard, Massachusetts 01754
                                     0000   700 ;
                                     0000   800 ; This software is furnished under a license for use only on a single
                                     0000   900 ; computer  system  and  may be copied only with the inclusion of the
                                     0000  1000 ; above copyright notice. This software, or any other copies thereof,
                                     0000  1100 ; may not be provided or otherwise made available to any other person
                                     0000  1200 ; except for use on such system and to one who agree to these license
                                     0000  1300 ; terms.  Title to  and  ownership of the software shall at all times
                                     0000  1400 ; remain in DEC.
                                     0000  1500 ;
                                     0000  1600 ; The information in the software is subject to change without notice
                                     0000  1700 ; and should  not  be construed  as a commitment by Digital Equipment
                                     0000  1800 ; Corporation.
                                     0000  1900 ;
                                     0000  2000 ; DEC assumes  no  responsibility  for the use or  reliability of its
                                     0000  2100 ; software on equipment which is not supplied by DEC.
                                     0000  2200 ;
                                     0000  2300 ;
                                     0000  2400 ; FACILITY: MATH LIBRARY
                                     0000  2500 ;++
                                     0000  2600 ; ABSTRACT:
                                     0000  2700 ;
                                     0000  2800 ;
                                     0000  2900 ;--
                                     0000  3000 ;
                                     0000  3100 ; VERSION: 0
                                     0000  3200 ;
                                     0000  3300 ; HISTORY:
                                     0000  3400 ;
                                     0000  3500 ; AUTHOR:
                                     0000  3600 ;	Jonathan Taylor, 29-Jun-77 : Version 0
                                     0000  3700 ;
                                     0000  3800 ; MODIFIED BY:
                                     0000  3900 ;
                                     0000  4000 ;
                                     0000  4100 ;
FOR$SECNDS      - GET DELTA TIME                                 21-AUG-1978 18:56:31   VAX-11 MACRO X0.3-11               Page   2
0-6             HISTORY  ; Detailed Current Edit History                                                                         (2)

                                     0000   100 	.SBTTL	HISTORY		; Detailed Current Edit History
                                     0000   200
                                     0000   300
                                     0000   400 ; Edit History for Version 0 of FOR$SECNDS
                                     0000   500 ;
                                     0000   600
                                     0000   700 ; 0-5	- Add 86400 if negative for midnight.  TNH 7-June-78
                                     0000   800 ; 0-6	- Remove FOR$FLAG_JACKET.  TNH 11-July-78
FOR$SECNDS      - GET DELTA TIME                                 21-AUG-1978 18:56:31   VAX-11 MACRO X0.3-11               Page   3
0-6             DECLARATIONS                                                                                                     (3)

                                     0000   100 	.SBTTL	DECLARATIONS
                                     0000   200
                                     0000   300 ;
                                     0000   400 ; INCLUDE FILES:
                                     0000   500 ;	NONE
                                     0000   600
                                     0000   700 ;
                                     0000   800 ; EXTERNAL SYMBOLS:
                                     0000   900 ;	NONE
                                     0000  1000
                                     0000  1100 ;
                                     0000  1200 ; MACROS:
                                     0000  1300 ;	NONE
                                     0000  1400
                                     0000  1500 ;
                                     0000  1600 ; PSECT DECLARATIONS:
                                     0000  1700 ;
                                 00000000  1800 	.PSECT	FOR$CODE	PIC, SHR, LONG, EXE, NOWRT
                                     0000  1900 					; FOR$ code section
                                     0000  2000
                                     0000  2100 ;
                                     0000  2200 ; EQUATED SYMBOLS:
                                     0000  2300 ;
                           00000004  0000  2400 	arg	= 4			; offset of addr of users' arg
                                     0000  2500
                                     0000  2600 ;
                                     0000  2700 ; OWN STORAGE:
                                     0000  2800 ;
                                     0000  2900
FOR$SECNDS      - GET DELTA TIME                                 21-AUG-1978 18:56:31   VAX-11 MACRO X0.3-11               Page   4
0-6             FOR$SECNDS - get delta system time                                                                               (4)

                                     0000   100 	.SBTTL	FOR$SECNDS - get delta system time
                                     0000   200
                                     0000   300 ;++
                                     0000   400 ; FUNCTIONAL DESCRIPTION:
                                     0000   500 ;
                                     0000   600 ;	Routine FOR$SECNDS returns the system time in seconds as
                                     0000   700 ;	a single precision floating point value minus the value
                                     0000   800 ;	of its single real argument.
                                     0000   900
                                     0000  1000 ; CALLING SEQUENCE:
                                     0000  1100 ;
                                     0000  1200 ;	Time_difference.wf.v = FOR$SECNDS( time_origin.rf.r)
                                     0000  1300 ;
                                     0000  1400 ; INPUT PARAMETERS:
                                     0000  1500 ;
                                     0000  1600 ;	The time_origin parameter is single precision floating point
                                     0000  1700 ;	and called by reference.
                                     0000  1800 ;
                                     0000  1900 ; IMPLICIT INPUTS:
                                     0000  2000 ;	NONE
                                     0000  2100 ;
                                     0000  2200 ; OUTPUT PARAMETERS:
                                     0000  2300 ;	NONE
                                     0000  2400 ;
                                     0000  2500 ; IMPLICIT OUTPUTS:
                                     0000  2600 ;	NONE
                                     0000  2700 ;
                                     0000  2800 ; COMPLETION CODES:
                                     0000  2900 ;	NONE
                                     0000  3000 ;
                                     0000  3100 ; SIDE EFFECTS:
                                     0000  3200 ;
                                     0000  3300 ;	Integer Overflow can occur (but it shouldn't)
                                     0000  3400 ;	Floating Underflow and Overflow can occur.
                                     0000  3500 ;
                                     0000  3600 ;--
FOR$SECNDS      - GET DELTA TIME                                 21-AUG-1978 18:56:31   VAX-11 MACRO X0.3-11               Page   5
0-6             FOR$SECNDS - get delta system time                                                                               (5)

                               4000' 0000   100 	.ENTRY	FOR$SECNDS,	^M<IV>
            5E            10     C2  0002   400 	SUBL	#2*8, SP		; make an 8 word work space
                                     0005   500 					; for $NUMTIM
            50            5E     D0  0005   600 	MOVL	SP, R0			; R0 -> work space
                                     0008   700 	$NUMTIM_S	(R0)		; get system time values
            5E            06     C0  0013   800 	ADDL	#2*3, SP			; SP -> "hour of day"
            3C            8E     A5  0016   900 	MULW3	(SP)+, #60, R0		; R0 = hours * 60
                          50         0019
            50            8E     A0  001A  1000 	ADDW	(SP)+, R0		; add in "minutes of hour"
            50            50     3C  001D  1100 	MOVZWL	R0, R0			; get more precision
            50            3C     C4  0020  1200 	MULL	#60, R0			; so this doesn't overflow
            51            8E     3C  0023  1300 	MOVZWL	(SP)+, R1		; convert "seconds of minute"
            50            51     C0  0026  1400 	ADDL	R1, R0			; and add to total time
            50            50     4E  0029  1500 	CVTLF	R0, R0			; convert to floating
            51            6E     4D  002C  1600 	CVTWF	(SP), R1		; R1 = "hundredths of seconds"
            51   000043C8 8F     46  002F  1700 	DIVF	#100, R1		; make a fraction
            50            51     40  0036  1800 	ADDF	R1, R0			; add in hundredths
            50         04 BC     42  0039  1900 	SUBF	@arg(AP), R0		; and get delta time from
                                     003D  2000 					; users' argument
                          07     18  003D  2010 	BGEQ	10$			; branch if not negative
            50   C00048A8 8F     40  003F  2020 	ADDF	#86400., R0		; must have gone by midnight
                                     0046  2030 					; so add # of seconds in 1 day.
                                 04  0046  2100 10$:	RET				; R0 = delta time
                                     0047  2200
                                     0047  2300 	.END
FOR$SECNDS      - GET DELTA TIME                                 21-AUG-1978 18:56:31   VAX-11 MACRO X0.3-11               Page   6
SYMBOL TABLE                                                                                                                     (5)

ARG            = 00000004
FOR$K_ERR_PREFX= 00000018
FOR$SECNDS       00000000 RG    02
MTH$K_ERR_PREFX= 00000016
MTH__FLOOVEMAT = 00000058
MTH__FLOUNDMAT = 00000059
MTH__INVARG    = 00000051
MTH__LOGZERNEG = 00000053
MTH__SINSIGLOS = 00000057
MTH__SQUROONEG = 00000054
MTH__UNDEXP    = 00000052
MTH__WRONUMARG = 00000050
SYS$NUMTIM       ********   X   02


PROGRAM SECTION SYNOPSIS

.  ABS  .        00000000      00     NOPIC   USR   CON   ABS   LCL NOSHR NOEXE NORD  NOWRT BYTE
. BLANK .        00000000      01     NOPIC   USR   CON   REL   LCL NOSHR   EXE   RD    WRT BYTE
FOR$CODE         00000047      02       PIC   USR   CON   REL   LCL   SHR   EXE   RD  NOWRT LONG


THERE WERE NO ERRORS OR WARNINGS.
27760. BYTES LEFT IN FREE MEMORY POOL.
OBJ$:FORSECNDS,LIS$:FORSECNDS/-SP=LIB$:S/ML,SRC$:P,FORSECNDS
6 MLB DIR RDS - 12 GETS TO DEFINE 2 MACROS. 2 INTER. FILE WRITES.
