FOR$TIME        ; return system time in 8-byte array             21-AUG-1978 18:56:39   VAX-11 MACRO X0.3-11               Page   0
TABLE OF CONTENTS

   (2)     100  HISTORY		; Detailed Current Edit History
   (3)     100  DECLARATIONS
   (4)     100  FOR$TIME - return system as an 8 byte string
FOR$TIME        ; return system time in 8-byte array             21-AUG-1978 18:56:39   VAX-11 MACRO X0.3-11               Page   1
0-4                                                                                                                              (1)

                                     0000   100 	.TITLE	FOR$TIME	; return system time in 8-byte array
                                     0000   200 	.IDENT	/0-4/		; File: FORTIME.MAR
                                     0000   300
                                     0000   400 ;
                                     0000   500 ; Copyright (C) 1977
                                     0000   600 ; Digital Equipment Corporation, Maynard, Massachusetts 01754
                                     0000   700 ;
                                     0000   800 ; This software is furnished under a license for use only on a single
                                     0000   900 ; computer  system  and  may be copied only with the inclusion of the
                                     0000  1000 ; above copyright notice. This software, or any other copies thereof,
                                     0000  1100 ; may not be provided or otherwise made available to any other person
                                     0000  1200 ; except for use on such system and to one who agree to these license
                                     0000  1300 ; terms.  Title to  and  ownership of the software shall at all times
                                     0000  1400 ; remain in DEC.
                                     0000  1500 ;
                                     0000  1600 ; The information in the software is subject to change without notice
                                     0000  1700 ; and should  not  be construed  as a commitment by Digital Equipment
                                     0000  1800 ; Corporation.
                                     0000  1900 ;
                                     0000  2000 ; DEC assumes  no  responsibility  for the use or  reliability of its
                                     0000  2100 ; software on equipment which is not supplied by DEC.
                                     0000  2200 ;
                                     0000  2300 ;
                                     0000  2400 ; FACILITY: FORTRAN SUPPORT LIBRARY
                                     0000  2500 ;++
                                     0000  2600 ; ABSTRACT:
                                     0000  2700 ;
                                     0000  2800 ;	Call system service $ASCTIM to return system time to user
                                     0000  2900 ;	area.
                                     0000  3000 ;
                                     0000  3100 ;--
                                     0000  3200 ;
                                     0000  3300 ; VERSION: 0
                                     0000  3400 ;
                                     0000  3500 ; HISTORY:
                                     0000  3600 ;
                                     0000  3700 ; AUTHOR:
                                     0000  3800 ;	Jonathan M. Taylor, 18-Aug-77: Version 0
                                     0000  3900 ;
                                     0000  4000 ; MODIFIED BY:
                                     0000  4100 ;
                                     0000  4200 ;
                                     0000  4300 ;
FOR$TIME        ; return system time in 8-byte array             21-AUG-1978 18:56:39   VAX-11 MACRO X0.3-11               Page   2
0-4             HISTORY  ; Detailed Current Edit History                                                                         (2)

                                     0000   100 	.SBTTL	HISTORY		; Detailed Current Edit History
                                     0000   200
                                     0000   300
                                     0000   400 ; Edit History for Version 0 of FOR$TIME
                                     0000   500 ;
                                     0000   600
                                     0000   700 ; 0-3	- Remopve FOR$FLAG_JACKET.  TNH 11-July-78
                                     0000   800 ; 0-4	- remove MTH$$JACKET_HND references.  TNH 26-July-78
FOR$TIME        ; return system time in 8-byte array             21-AUG-1978 18:56:39   VAX-11 MACRO X0.3-11               Page   3
0-4             DECLARATIONS                                                                                                     (3)

                                     0000   100 	.SBTTL	DECLARATIONS
                                     0000   200
                                     0000   300 ;
                                     0000   400 ; INCLUDE FILES:
                                     0000   500 ;	oerr.mar
                                     0000   600
                                     0000   700 ;
                                     0000   800 ; EXTERNAL SYMBOLS:
                                     0000   900 	.GLOBL	SYS$ASCTIM
                                     0000  1000
                                     0000  1100 ;
                                     0000  1200 ; MACROS:
                                     0000  1300 ;	NONE
                                     0000  1400
                                     0000  1500 ;
                                     0000  1600 ; PSECT DECLARATIONS:
                                 00000000  1700 	.PSECT	FOR$CODE	PIC, SHR, LONG, EXE, NOWRT
                                     0000  1800
                                     0000  1900 ;
                                     0000  2000 ; EQUATED SYMBOLS:
                                     0000  2100 ;	NONE
                                     0000  2200
                                     0000  2300 ;
                                     0000  2400 ; OWN STORAGE:
                                     0000  2500 ;	NONE
                                     0000  2600
FOR$TIME        ; return system time in 8-byte array             21-AUG-1978 18:56:39   VAX-11 MACRO X0.3-11               Page   4
0-4             FOR$TIME - return system as an 8 byte string                                                                     (4)

                                     0000   100 	.SBTTL	FOR$TIME - return system as an 8 byte string
                                     0000   200
                                     0000   300 ;++
                                     0000   400 ; FUNCTIONAL DESCRIPTION:
                                     0000   500 ;	Returns system time as an 8 byte string in the form
                                     0000   600 ;	HH:MM:SS.  Build a string descriptor on the stack that points
                                     0000   700 ;	to the users area.  Call system service $ASCTIM to do all
                                     0000   800 ;	the work.
                                     0000   900 ;
                                     0000  1000 ; CALLING SEQUENCE:
                                     0000  1100 ;	CALL	FOR$TIME (8_byte_array.wb.ra)
                                     0000  1200 ;
                                     0000  1300 ;
                                     0000  1400 ; INPUT PARAMETERS:
                                     0000  1500 ;	8_byte_array		the addr of 8 bytes into which the
                                     0000  1600 ;				string is to be placed
                                     0000  1700 ;
                                     0000  1800 ; IMPLICIT INPUTS:
                                     0000  1900 ;	NONE
                                     0000  2000 ;
                                     0000  2100 ; OUTPUT PARAMETERS:
                                     0000  2200 ;	NONE
                                     0000  2300 ;
                                     0000  2400 ; IMPLICIT OUTPUTS:
                                     0000  2500 ;	NONE
                                     0000  2600 ;
                                     0000  2700 ; COMPLETION CODES:
                                     0000  2800 ;	NONE
                                     0000  2900 ;
                                     0000  3000 ; SIDE EFFECTS:
                                     0000  3100 ;	NONE
                                     0000  3200 ;
                                     0000  3300 ;--
                                     0000  3400
                                     0000  3500
                               0000' 0000  3600 	.ENTRY	FOR$TIME,	^M<>
            7E         04 AC     D0  0002  3800 	MOVL	4(AP), -(SP)		; build a string descriptor
            7E   010E0008 8F     D0  0006  3900 	MOVL	#^X10E0008, -(SP)	; len=8
            50            5E     D0  000D  4000 	MOVL	SP, R0			; R0 -> string descriptor
                                     0010  4100 	$ASCTIM_S	,(R0),,#1	; get time info only
                                 04  001F  4200 	RET				; return to user
                                     0020  4300
                                     0020  4400
                                     0020  4500 	.END
FOR$TIME        ; return system time in 8-byte array             21-AUG-1978 18:56:39   VAX-11 MACRO X0.3-11               Page   5
SYMBOL TABLE                                                                                                                     (4)

FOR$K_ERR_PREFX= 00000018
FOR$TIME         00000000 RG    02
MTH$K_ERR_PREFX= 00000016
MTH__FLOOVEMAT = 00000058
MTH__FLOUNDMAT = 00000059
MTH__INVARG    = 00000051
MTH__LOGZERNEG = 00000053
MTH__SINSIGLOS = 00000057
MTH__SQUROONEG = 00000054
MTH__UNDEXP    = 00000052
MTH__WRONUMARG = 00000050
SYS$ASCTIM       ********  GX   01


PROGRAM SECTION SYNOPSIS

.  ABS  .        00000000      00     NOPIC   USR   CON   ABS   LCL NOSHR NOEXE NORD  NOWRT BYTE
. BLANK .        00000000      01     NOPIC   USR   CON   REL   LCL NOSHR   EXE   RD    WRT BYTE
FOR$CODE         00000020      02       PIC   USR   CON   REL   LCL   SHR   EXE   RD  NOWRT LONG


THERE WERE NO ERRORS OR WARNINGS.
27704. BYTES LEFT IN FREE MEMORY POOL.
OBJ$:FORTIME,LIS$:FORTIME/-SP=LIB$:S/ML,SRC$:P,FORTIME
6 MLB DIR RDS - 14 GETS TO DEFINE 2 MACROS. 2 INTER. FILE WRITES.
