FOR$TIME_T_DS   ; return system time to FORTRAN                  21-AUG-1978 18:56:46   VAX-11 MACRO X0.3-11               Page   0
TABLE OF CONTENTS

   (2)     100  HISTORY		; Detailed Current Edit History
   (3)     100  DECLARATIONS
   (4)     100  FOR$TIME_T_DS - return system time to FORTRAN s
FOR$TIME_T_DS   ; return system time to FORTRAN                  21-AUG-1978 18:56:46   VAX-11 MACRO X0.3-11               Page   1
0-2                                                                                                                              (1)

                                     0000   100 	.TITLE	FOR$TIME_T_DS	; return system time to FORTRAN
                                     0000   200 				; character string
                                     0000   300 	.IDENT	/0-2/		; File: FORTIMEDS.MAR
                                     0000   400
                                     0000   500 ;
                                     0000   600 ; Copyright (C) 1977
                                     0000   700 ; Digital Equipment Corporation, Maynard, Massachusetts 01754
                                     0000   800 ;
                                     0000   900 ; This software is furnished under a license for use only on a single
                                     0000  1000 ; computer  system  and  may be copied only with the inclusion of the
                                     0000  1100 ; above copyright notice. This software, or any other copies thereof,
                                     0000  1200 ; may not be provided or otherwise made available to any other person
                                     0000  1300 ; except for use on such system and to one who agree to these license
                                     0000  1400 ; terms.  Title to  and  ownership of the software shall at all times
                                     0000  1500 ; remain in DEC.
                                     0000  1600 ;
                                     0000  1700 ; The information in the software is subject to change without notice
                                     0000  1800 ; and should  not  be construed  as a commitment by Digital Equipment
                                     0000  1900 ; Corporation.
                                     0000  2000 ;
                                     0000  2100 ; DEC assumes  no  responsibility  for the use or  reliability of its
                                     0000  2200 ; software on equipment which is not supplied by DEC.
                                     0000  2300 ;
                                     0000  2400 ;
                                     0000  2500 ; FACILITY: FORTRAN SYSTEM ROUTINE - FORTRAN LIBRARY
                                     0000  2600 ;++
                                     0000  2700 ; ABSTRACT:
                                     0000  2800 ;	Return system time in the form HH:MM:SS to a FORTRAN (fixed-len)
                                     0000  2900 ;	string.  Blank pad if necessary.
                                     0000  3000 ;
                                     0000  3100 ;--
                                     0000  3200 ;
                                     0000  3300 ; VERSION: 0
                                     0000  3400 ;
                                     0000  3500 ; HISTORY:
                                     0000  3600 ;
                                     0000  3700 ; AUTHOR:
                                     0000  3800 ;	Jonathan M. Taylor, 23-Aug-77: Version 0
                                     0000  3900 ;
                                     0000  4000 ; MODIFIED BY:
                                     0000  4100 ;
                                     0000  4200 ;
                                     0000  4300 ;
FOR$TIME_T_DS   ; return system time to FORTRAN                  21-AUG-1978 18:56:46   VAX-11 MACRO X0.3-11               Page   2
0-2             HISTORY  ; Detailed Current Edit History                                                                         (2)

                                     0000   100 	.SBTTL	HISTORY		; Detailed Current Edit History
                                     0000   200
                                     0000   300
                                     0000   400 ; Edit History for Version 0 of FOR$TIME_T_DS
                                     0000   500 ;
                                     0000   600
                                     0000   700 ; 0-2	- Remove FOR$FLAG_JACKET.  TNH 11-July-78
FOR$TIME_T_DS   ; return system time to FORTRAN                  21-AUG-1978 18:56:46   VAX-11 MACRO X0.3-11               Page   3
0-2             DECLARATIONS                                                                                                     (3)

                                     0000   100 	.SBTTL	DECLARATIONS
                                     0000   200
                                     0000   300 ;
                                     0000   400 ; INCLUDE FILES:
                                     0000   500 ;	oerr.mar
                                     0000   600
                                     0000   700 ;
                                     0000   800 ; EXTERNAL SYMBOLS:
                                     0000   900 ;	none
                                     0000  1000
                                     0000  1100 ;
                                     0000  1200 ; MACROS:
                                     0000  1300 ;	none
                                     0000  1400
                                     0000  1500 ;
                                     0000  1600 ; PSECT DECLARATIONS:
                                 00000000  1700 	.PSECT	FOR$CODE	LONG, EXE, NOWRT, PIC, SHR
                                     0000  1800
                                     0000  1900 ;
                                     0000  2000 ; EQUATED SYMBOLS:
                                     0000  2100 ;	none
                                     0000  2200
                                     0000  2300 ;
                                     0000  2400 ; OWN STORAGE:
                                     0000  2500 ;	none
                                     0000  2600
FOR$TIME_T_DS   ; return system time to FORTRAN                  21-AUG-1978 18:56:46   VAX-11 MACRO X0.3-11               Page   4
0-2             FOR$TIME_T_DS - return system time to FORTRAN s                                                                  (4)

                                     0000   100 	.SBTTL	FOR$TIME_T_DS - return system time to FORTRAN string
                                     0000   200
                                     0000   300 ;++
                                     0000   400 ; FUNCTIONAL DESCRIPTION:
                                     0000   500 ;	Use system service ASCTIM to move system time directly to the
                                     0000   600 ;	caller.  Pad the rest of the string with blanks if necessary.
                                     0000   700 ;
                                     0000   800 ; CALLING SEQUENCE:
                                     0000   900 ;	CALL	FOR$TIME_T_DS (time_string.wt.ds)
                                     0000  1000 ;
                                     0000  1100 ;
                                     0000  1200 ; INPUT PARAMETERS:
                                     0000  1300 ;	time_string is the address of a fixed-len string.
                                     0000  1400 ;
                                     0000  1500 ; IMPLICIT INPUTS:
                                     0000  1600 ;	NONE
                                     0000  1700 ;
                                     0000  1800 ; OUTPUT PARAMETERS:
                                     0000  1900 ;	NONE
                                     0000  2000 ;
                                     0000  2100 ; IMPLICIT OUTPUTS:
                                     0000  2200 ;	NONE
                                     0000  2300 ;
                                     0000  2400 ; COMPLETION CODES:
                                     0000  2500 ;	NONE
                                     0000  2600 ;
                                     0000  2700 ; SIDE EFFECTS:
                                     0000  2800 ;	NONE
                                     0000  2900 ;
                                     0000  3000 ;--
                                     0000  3100
                                     0000  3200
                                     0000  3300
                               003C' 0000  3400 	.ENTRY	FOR$TIME_T_DS,	^M<R2,R3,R4,R5>
            53         04 AC     D0  0002  3600 	MOVL	4(AP), R3		; R3 -> string desc. of users string
                                     0006  3700 	$ASCTIM_S	,(R3),,#1	; put ASCII info in users string
            08            63     B1  0015  3800 	CMPW	(R3), #8		; if users string size is 8 bytes
                                     0018  3900 					; or less, then no padding
                          0F     15  0018  4000 	BLEQ	1$			; is necessary
         04 A3            08     C1  001A  4100 	ADDL3	#8, 4(R3), R0		; R0 -> where to pad with blanks
                          50         001E
            63            08     A3  001F  4200 	SUBW3	#8, (R3), R1		; R1 = # bytes to blank pad
                          51         0022
            60            00     2C  0023  4300 	MOVC5	#0, (R0), #^A/ /, R1, (R0)
            51            20         0026
                          60         0028
                                     0029  4400 					; pad rest of users string
                                 04  0029  4500 1$:	RET				; back to caller
                                     002A  4600
                                     002A  4700
                                     002A  4800 	.END
FOR$TIME_T_DS   ; return system time to FORTRAN                  21-AUG-1978 18:56:46   VAX-11 MACRO X0.3-11               Page   5
SYMBOL TABLE                                                                                                                     (4)

FOR$K_ERR_PREFX= 00000018
FOR$TIME_T_DS    00000000 RG    02
MTH$K_ERR_PREFX= 00000016
MTH__FLOOVEMAT = 00000058
MTH__FLOUNDMAT = 00000059
MTH__INVARG    = 00000051
MTH__LOGZERNEG = 00000053
MTH__SINSIGLOS = 00000057
MTH__SQUROONEG = 00000054
MTH__UNDEXP    = 00000052
MTH__WRONUMARG = 00000050
SYS$ASCTIM       ********   X   02


PROGRAM SECTION SYNOPSIS

.  ABS  .        00000000      00     NOPIC   USR   CON   ABS   LCL NOSHR NOEXE NORD  NOWRT BYTE
. BLANK .        00000000      01     NOPIC   USR   CON   REL   LCL NOSHR   EXE   RD    WRT BYTE
FOR$CODE         0000002A      02       PIC   USR   CON   REL   LCL   SHR   EXE   RD  NOWRT LONG


THERE WERE NO ERRORS OR WARNINGS.
27678. BYTES LEFT IN FREE MEMORY POOL.
OBJ$:FORTIMEDS,LIS$:FORTIMEDS/-SP=LIB$:S/ML,SRC$:P,FORTIMEDS
6 MLB DIR RDS - 14 GETS TO DEFINE 2 MACROS. 2 INTER. FILE WRITES.
