LIB$INSV        - insert a variable length bit field             21-AUG-1978 18:58:33   VAX-11 MACRO X0.3-11               Page   0
TABLE OF CONTENTS

   (2)      87  DECLARATIONS
   (3)     110  LIB$INSV  - insert a field
LIB$INSV        - insert a variable length bit field             21-AUG-1978 18:58:33   VAX-11 MACRO X0.3-11               Page   1
00-01                                                                                                                            (1)

                                     0000     1 	.TITLE	LIB$INSV - insert a variable length bit field
                                     0000     2 	.IDENT	/00-01/			; File: LIBINSV.MAR
                                     0000     3
                                     0000     4 ;
                                     0000     5 ;			  COPYRIGHT (c) 1977 BY
                                     0000     6 ;	      DIGITAL EQUIPMENT CORPORATION, MAYNARD, MASS.
                                     0000     7 ;
                                     0000     8 ; THIS SOFTWARE IS FURNISHED UNDER A LICENSE AND MAY BE USED AND  COPIED
                                     0000     9 ; ONLY  IN  ACCORDANCE  WITH  THE  TERMS  OF  SUCH  LICENSE AND WITH THE
                                     0000    10 ; INCLUSION OF THE ABOVE COPYRIGHT NOTICE.  THIS SOFTWARE OR  ANY  OTHER
                                     0000    11 ; COPIES  THEREOF MAY NOT BE PROVIDED OR OTHERWISE MADE AVAILABLE TO ANY
                                     0000    12 ; OTHER PERSON.  NO TITLE TO AND OWNERSHIP OF  THE  SOFTWARE  IS  HEREBY
                                     0000    13 ; TRANSFERRED.
                                     0000    14 ;
                                     0000    15 ; THE INFORMATION IN THIS SOFTWARE IS SUBJECT TO CHANGE  WITHOUT  NOTICE
                                     0000    16 ; AND  SHOULD  NOT  BE  CONSTRUED  AS  A COMMITMENT BY DIGITAL EQUIPMENT
                                     0000    17 ; CORPORATION.
                                     0000    18 ;
                                     0000    19 ; DIGITAL ASSUMES NO RESPONSIBILITY FOR THE USE OR  RELIABILITY  OF  ITS
                                     0000    20 ; SOFTWARE ON EQUIPMENT WHICH IS NOT SUPPLIED BY DIGITAL.
                                     0000    21 ;
                                     0000    22
                                     0000    23 ;++
                                     0000    24 ; FACILITY: General Utility Library
                                     0000    25 ;
                                     0000    26 ; ABSTRACT:
                                     0000    27 ;
                                     0000    28 ;	Insert a portion of the source into an area determined by the base,
                                     0000    29 ;	position, and size.
                                     0000    30 ;
                                     0000    31 ; ENVIRONMENT: User Mode, AST Reentrant
                                     0000    32 ;
                                     0000    33 ;--
                                     0000    34 ; AUTHOR: Donald G. Petersen, CREATION DATE: 30-Dec-77
                                     0000    35 ;
                                     0000    36 ; MODIFIED BY:
                                     0000    37 ;
                                     0000    38 ;	DGP, 30-Dec-77 : VERSION 00
                                     0000    39 ; 01	- Original
LIB$INSV        - insert a variable length bit field             21-AUG-1978 18:58:33   VAX-11 MACRO X0.3-11               Page   2
00-01           DECLARATIONS                                                                                                     (2)

                                     0000    41 	.SBTTL	DECLARATIONS
                                     0000    42 ;
                                     0000    43 ; INCLUDE FILES:
                                     0000    44 ;
                                     0000    45
                                     0000    46 ;
                                     0000    47 ; MACROS:
                                     0000    48 ;
                                     0000    49
                                     0000    50 ;
                                     0000    51 ; EQUATED SYMBOLS:
                                     0000    52 ;
                                     0000    53
                                     0000    54 ;
                                     0000    55 ; OWN STORAGE:
                                     0000    56 ;
                                     0000    57
                                     0000    58 ;
                                     0000    59 ; PSECT DECLARATIONS:
                                     0000    60 ;
                                 00000000    61 	.PSECT LIB$CODE PIC, SHR, LONG, EXE, NOWRT
                                     0000    62
LIB$INSV        - insert a variable length bit field             21-AUG-1978 18:58:33   VAX-11 MACRO X0.3-11               Page   3
00-01           LIB$INSV  - insert a field                                                                                       (3)

                                     0000    64 	.SBTTL	LIB$INSV  - insert a field
                                     0000    65 ;++
                                     0000    66 ; FUNCTIONAL DESCRIPTION:
                                     0000    67 ;
                                     0000    68 ;	The field specified by the base, position, and size is replaced by bits
                                     0000    69 ;	size-1 : 0 of the source.  If the size is zero, no insertion is performed.
                                     0000    70 ;	A reserved operand fault occurs if a size greater than 32 is specified.
                                     0000    71 ;
                                     0000    72 ; CALLING SEQUENCE:
                                     0000    73 ;
                                     0000    74 ;	CALL LIB$INSV (src.rl.r, pos.rl.r, size.rbu.r, base.wv.r)
                                     0000    75 ;
                           00000004  0000    76 	SOURCE = 4				; Adr. of source
                           00000008  0000    77 	POSITION = 8				; Adr. of beginning position
                           0000000C  0000    78 	SIZE = 12				; Adr. of size to insert
                           00000010  0000    79 	BASE = 16				; Adr. of base to insert into
                                     0000    80 ; INPUT PARAMETERS:
                                     0000    81 ;
                                     0000    82 ;	NONE
                                     0000    83 ;
                                     0000    84 ; IMPLICIT INPUTS:
                                     0000    85 ;
                                     0000    86 ;	NONE
                                     0000    87 ;
                                     0000    88 ; OUTPUT PARAMETERS:
                                     0000    89 ;
                                     0000    90 ;	NONE
                                     0000    91 ;
                                     0000    92 ; IMPLICIT OUTPUTS:
                                     0000    93 ;
                                     0000    94 ;	NONE
                                     0000    95 ;
                                     0000    96 ; COMPLETION CODES:
                                     0000    97 ;
                                     0000    98 ;	NONE
                                     0000    99 ;
                                     0000   100 ; SIDE EFFECTS:
                                     0000   101 ;
                                     0000   102 ;	SS$_ROPRAND - a reserved operand fault occurs if:
                                     0000   103 ;		    1.) a size greater than 32 is specified
                                     0000   104 ;		    2.) a position greater is greater than 31 and the field is in
                                     0000   105 ;			registers
                                     0000   106 ;
                                     0000   107 ;--
                                     0000   108
                               0000' 0000   109 	.ENTRY LIB$INSV , ^M< >		; Entry point
                                     0002   110
         08 BC         04 BC     F0  0002   111 	INSV	@SOURCE(AP), @POSITION(AP), -
         10 BC         0C BC         0007
                                     000B   112 		@SIZE(AP), @BASE(AP)		; insert source field
                                 04  000B   113 	RET
                                     000C   114 	.END
LIB$INSV        - insert a variable length bit field             21-AUG-1978 18:58:33   VAX-11 MACRO X0.3-11               Page   4
SYMBOL TABLE                                                                                                                     (3)

BASE           = 00000010
FOR$K_ERR_PREFX= 00000018
LIB$INSV         00000000 RG    02
MTH$K_ERR_PREFX= 00000016
MTH__FLOOVEMAT = 00000058
MTH__FLOUNDMAT = 00000059
MTH__INVARG    = 00000051
MTH__LOGZERNEG = 00000053
MTH__SINSIGLOS = 00000057
MTH__SQUROONEG = 00000054
MTH__UNDEXP    = 00000052
MTH__WRONUMARG = 00000050
POSITION       = 00000008
SIZE           = 0000000C
SOURCE         = 00000004


PROGRAM SECTION SYNOPSIS

.  ABS  .        00000000      00     NOPIC   USR   CON   ABS   LCL NOSHR NOEXE NORD  NOWRT BYTE
. BLANK .        00000000      01     NOPIC   USR   CON   REL   LCL NOSHR   EXE   RD    WRT BYTE
LIB$CODE         0000000C      02       PIC   USR   CON   REL   LCL   SHR   EXE   RD  NOWRT LONG


THERE WERE NO ERRORS OR WARNINGS.
28002. BYTES LEFT IN FREE MEMORY POOL.
OBJ$:LIBINSV,LIS$:LIBINSV/-SP=LIB$:S/ML,SRC$:P,LIBINSV
0 MLB DIR RDS - 0 GETS TO DEFINE 0 MACROS. 1 INTER. FILE WRITES.
