LIB$MATCHC      - match character                                21-AUG-1978 18:58:49   VAX-11 MACRO X0.3-11               Page   0
TABLE OF CONTENTS

   (2)      87  DECLARATIONS
   (3)     110  LIB$MATCHC  - match characters
LIB$MATCHC      - match character                                21-AUG-1978 18:58:49   VAX-11 MACRO X0.3-11               Page   1
00-02                                                                                                                            (1)

                                     0000     1 	.TITLE	LIB$MATCHC - match character
                                     0000     2 	.IDENT	/00-02/			; File: LIBMATCHC.MAR
                                     0000     3
                                     0000     4 ;
                                     0000     5 ;			  COPYRIGHT (c) 1977 BY
                                     0000     6 ;	      DIGITAL EQUIPMENT CORPORATION, MAYNARD, MASS.
                                     0000     7 ;
                                     0000     8 ; THIS SOFTWARE IS FURNISHED UNDER A LICENSE AND MAY BE USED AND  COPIED
                                     0000     9 ; ONLY  IN  ACCORDANCE  WITH  THE  TERMS  OF  SUCH  LICENSE AND WITH THE
                                     0000    10 ; INCLUSION OF THE ABOVE COPYRIGHT NOTICE.  THIS SOFTWARE OR  ANY  OTHER
                                     0000    11 ; COPIES  THEREOF MAY NOT BE PROVIDED OR OTHERWISE MADE AVAILABLE TO ANY
                                     0000    12 ; OTHER PERSON.  NO TITLE TO AND OWNERSHIP OF  THE  SOFTWARE  IS  HEREBY
                                     0000    13 ; TRANSFERRED.
                                     0000    14 ;
                                     0000    15 ; THE INFORMATION IN THIS SOFTWARE IS SUBJECT TO CHANGE  WITHOUT  NOTICE
                                     0000    16 ; AND  SHOULD  NOT  BE  CONSTRUED  AS  A COMMITMENT BY DIGITAL EQUIPMENT
                                     0000    17 ; CORPORATION.
                                     0000    18 ;
                                     0000    19 ; DIGITAL ASSUMES NO RESPONSIBILITY FOR THE USE OR  RELIABILITY  OF  ITS
                                     0000    20 ; SOFTWARE ON EQUIPMENT WHICH IS NOT SUPPLIED BY DIGITAL.
                                     0000    21 ;
                                     0000    22
                                     0000    23 ;++
                                     0000    24 ; FACILITY: General Utility Library
                                     0000    25 ;
                                     0000    26 ; ABSTRACT:
                                     0000    27 ;
                                     0000    28 ;	search a string for the first occurrence of a substring
                                     0000    29 ;
                                     0000    30 ; ENVIRONMENT: User Mode, AST Reentrant
                                     0000    31 ;
                                     0000    32 ;--
                                     0000    33 ; AUTHOR: Donald G. Petersen, CREATION DATE: 03-Jan-78
                                     0000    34 ;
                                     0000    35 ; MODIFIED BY:
                                     0000    36 ;
                                     0000    37 ;	DGP, 03-Jan-78 : VERSION 00
                                     0000    38 ; 01	- Original
                                     0000    39 ; 00-02	- DGP 06-Jan-78 - Change MATCHC operands
LIB$MATCHC      - match character                                21-AUG-1978 18:58:49   VAX-11 MACRO X0.3-11               Page   2
00-02           DECLARATIONS                                                                                                     (2)

                                     0000    41 	.SBTTL	DECLARATIONS
                                     0000    42 ;
                                     0000    43 ; INCLUDE FILES:
                                     0000    44 ;
                                     0000    45
                                     0000    46 ;
                                     0000    47 ; MACROS:
                                     0000    48 ;
                                     0000    49
                                     0000    50 ;
                                     0000    51 ; EQUATED SYMBOLS:
                                     0000    52 ;
                                     0000    53
                                     0000    54 ;
                                     0000    55 ; OWN STORAGE:
                                     0000    56 ;
                                     0000    57
                                     0000    58 ;
                                     0000    59 ; PSECT DECLARATIONS:
                                     0000    60 ;
                                 00000000    61 	.PSECT LIB$CODE PIC, SHR, LONG, EXE, NOWRT
                                     0000    62
LIB$MATCHC      - match character                                21-AUG-1978 18:58:49   VAX-11 MACRO X0.3-11               Page   3
00-02           LIB$MATCHC  - match characters                                                                                   (3)

                                     0000    64 	.SBTTL	LIB$MATCHC  - match characters
                                     0000    65 ;++
                                     0000    66 ; FUNCTIONAL DESCRIPTION:
                                     0000    67 ;
                                     0000    68 ;	The character string supplied is searched for the first incidence of
                                     0000    69 ;	the substring specified.  An index is returned which is the relative
                                     0000    70 ;	position of the first character of the substring within the string or
                                     0000    71 ;	zero if no occurrence of the substring was encountered.  If both strings have
                                     0000    72 ;	zero length or if the substring has a zero length, then the routine returns
                                     0000    73 ;	as if the substring has been found at the first character position.  If the
                                     0000    74 ;	source string has a zero length and the substring a non-zero length, then
                                     0000    75 ;	a zero is returned.
                                     0000    76 ;
                                     0000    77 ; CALLING SEQUENCE:
                                     0000    78 ;
                                     0000    79 ;	index.wlu.v = LIB$MATCHC(sub_str.rt.dx,string.rt.dx)
                                     0000    80 ;
                           00000004  0000    81 	SUB = 4					; Adr of substring desc
                           00000008  0000    82 	STRING = 8				; Adr of string desc
                                     0000    83
                                     0000    84 ; INPUT PARAMETERS:
                                     0000    85 ;
                                     0000    86 ;	NONE
                                     0000    87 ;
                                     0000    88 ; IMPLICIT INPUTS:
                                     0000    89 ;
                                     0000    90 ;	NONE
                                     0000    91 ;
                                     0000    92 ; OUTPUT PARAMETERS:
                                     0000    93 ;
                                     0000    94 ;	NONE
                                     0000    95 ;
                                     0000    96 ; IMPLICIT OUTPUTS:
                                     0000    97 ;
                                     0000    98 ;	NONE
                                     0000    99 ;
                                     0000   100 ; FUNCTION VALUE:
                                     0000   101 ;
                                     0000   102 ;	index.wlu.v
                                     0000   103 ;
                                     0000   104 ; SIDE EFFECTS:
                                     0000   105 ;
                                     0000   106 ;	NONE
                                     0000   107 ;
                                     0000   108 ;--
                                     0000   109
                               0030' 0000   110 	.ENTRY LIB$MATCHC , ^M<R4, R5>		; Entry point
                                     0002   111
            54         04 AC     D0  0002   112 	MOVL	SUB(AP), R4			; R4 points to substring desc
            55         08 AC     D0  0006   113 	MOVL	STRING(AP), R5			; R5 points to string desc
         04 B4            64     39  000A   114 	MATCHC	(R4), @4(R4), (R5), @4(R5)	; match characters
         04 B5            65         000E
                          0A     12  0011   115 	BNEQ	10$				; branch if no match
            65            64     C2  0013   116 	SUBL2	(R4), (R5)			; R5 = difference of source length
                                     0016   117 						; and substring length
            65            52     C3  0016   118 	SUBL3	R2, (R5), R0			; R0 = first char. position
                          50         0019
LIB$MATCHC      - match character                                21-AUG-1978 18:58:49   VAX-11 MACRO X0.3-11               Page   4
00-02           LIB$MATCHC  - match characters                                                                                   (3)

                          50     D6  001A   119 	INCL	R0				; one origin
                                 04  001C   120 	RET
                          50     D4  001D   121 10$:	CLRL	R0				; clear R0
                                 04  001F   122 	RET
                                     0020   123 	.END
LIB$MATCHC      - match character                                21-AUG-1978 18:58:49   VAX-11 MACRO X0.3-11               Page   5
SYMBOL TABLE                                                                                                                     (3)

FOR$K_ERR_PREFX= 00000018
LIB$MATCHC       00000000 RG    02
MTH$K_ERR_PREFX= 00000016
MTH__FLOOVEMAT = 00000058
MTH__FLOUNDMAT = 00000059
MTH__INVARG    = 00000051
MTH__LOGZERNEG = 00000053
MTH__SINSIGLOS = 00000057
MTH__SQUROONEG = 00000054
MTH__UNDEXP    = 00000052
MTH__WRONUMARG = 00000050
STRING         = 00000008
SUB            = 00000004


PROGRAM SECTION SYNOPSIS

.  ABS  .        00000000      00     NOPIC   USR   CON   ABS   LCL NOSHR NOEXE NORD  NOWRT BYTE
. BLANK .        00000000      01     NOPIC   USR   CON   REL   LCL NOSHR   EXE   RD    WRT BYTE
LIB$CODE         00000020      02       PIC   USR   CON   REL   LCL   SHR   EXE   RD  NOWRT LONG


THERE WERE NO ERRORS OR WARNINGS.
28016. BYTES LEFT IN FREE MEMORY POOL.
OBJ$:LIBMATCHC,LIS$:LIBMATCHC/-SP=LIB$:S/ML,SRC$:P,LIBMATCHC
0 MLB DIR RDS - 0 GETS TO DEFINE 0 MACROS. 2 INTER. FILE WRITES.
