LIB$SKPC        - skip characters in a character string          21-AUG-1978 19:01:01   VAX-11 MACRO X0.3-11               Page   0
TABLE OF CONTENTS

   (2)      87  DECLARATIONS
   (3)     110  LIB$SKPC  - skip characters
LIB$SKPC        - skip characters in a character string          21-AUG-1978 19:01:01   VAX-11 MACRO X0.3-11               Page   1
00-02                                                                                                                            (1)

                                     0000     1 	.TITLE	LIB$SKPC - skip characters in a character string
                                     0000     2 	.IDENT	/00-02/			; File: LIBSKPC.MAR
                                     0000     3
                                     0000     4 ;
                                     0000     5 ;			  COPYRIGHT (c) 1977 BY
                                     0000     6 ;	      DIGITAL EQUIPMENT CORPORATION, MAYNARD, MASS.
                                     0000     7 ;
                                     0000     8 ; THIS SOFTWARE IS FURNISHED UNDER A LICENSE AND MAY BE USED AND  COPIED
                                     0000     9 ; ONLY  IN  ACCORDANCE  WITH  THE  TERMS  OF  SUCH  LICENSE AND WITH THE
                                     0000    10 ; INCLUSION OF THE ABOVE COPYRIGHT NOTICE.  THIS SOFTWARE OR  ANY  OTHER
                                     0000    11 ; COPIES  THEREOF MAY NOT BE PROVIDED OR OTHERWISE MADE AVAILABLE TO ANY
                                     0000    12 ; OTHER PERSON.  NO TITLE TO AND OWNERSHIP OF  THE  SOFTWARE  IS  HEREBY
                                     0000    13 ; TRANSFERRED.
                                     0000    14 ;
                                     0000    15 ; THE INFORMATION IN THIS SOFTWARE IS SUBJECT TO CHANGE  WITHOUT  NOTICE
                                     0000    16 ; AND  SHOULD  NOT  BE  CONSTRUED  AS  A COMMITMENT BY DIGITAL EQUIPMENT
                                     0000    17 ; CORPORATION.
                                     0000    18 ;
                                     0000    19 ; DIGITAL ASSUMES NO RESPONSIBILITY FOR THE USE OR  RELIABILITY  OF  ITS
                                     0000    20 ; SOFTWARE ON EQUIPMENT WHICH IS NOT SUPPLIED BY DIGITAL.
                                     0000    21 ;
                                     0000    22
                                     0000    23 ;++
                                     0000    24 ; FACILITY: General Utility Library
                                     0000    25 ;
                                     0000    26 ; ABSTRACT:
                                     0000    27 ;
                                     0000    28 ;	return the relative position of the non-matching character or zero.
                                     0000    29 ;
                                     0000    30 ; ENVIRONMENT: User Mode, AST Reentrant
                                     0000    31 ;
                                     0000    32 ;--
                                     0000    33 ; AUTHOR: Donald G. Petersen, CREATION DATE: 03-Jan-78
                                     0000    34 ;
                                     0000    35 ; MODIFIED BY:
                                     0000    36 ;
                                     0000    37 ;	DGP, 03-Jan-78 : VERSION 00
                                     0000    38 ; 01	- Original
                                     0000    39 ; 00-02	- DGP 06-Jan-78 Relative position not found properly
LIB$SKPC        - skip characters in a character string          21-AUG-1978 19:01:01   VAX-11 MACRO X0.3-11               Page   2
00-02           DECLARATIONS                                                                                                     (2)

                                     0000    41 	.SBTTL	DECLARATIONS
                                     0000    42 ;
                                     0000    43 ; INCLUDE FILES:
                                     0000    44 ;
                                     0000    45
                                     0000    46 ;
                                     0000    47 ; MACROS:
                                     0000    48 ;
                                     0000    49
                                     0000    50 ;
                                     0000    51 ; EQUATED SYMBOLS:
                                     0000    52 ;
                                     0000    53
                                     0000    54 ;
                                     0000    55 ; OWN STORAGE:
                                     0000    56 ;
                                     0000    57
                                     0000    58 ;
                                     0000    59 ; PSECT DECLARATIONS:
                                     0000    60 ;
                                 00000000    61 	.PSECT LIB$CODE PIC, SHR, LONG, EXE, NOWRT
                                     0000    62
LIB$SKPC        - skip characters in a character string          21-AUG-1978 19:01:01   VAX-11 MACRO X0.3-11               Page   3
00-02           LIB$SKPC  - skip characters                                                                                      (3)

                                     0000    64 	.SBTTL	LIB$SKPC  - skip characters
                                     0000    65 ;++
                                     0000    66 ; FUNCTIONAL DESCRIPTION:
                                     0000    67 ;
                                     0000    68 ;	The character is compared with successive bytes of the string specified by
                                     0000    69 ;	the string descriptor until an inequality is found or the string is exhausted.
                                     0000    70 ;	The relative position of the unequal byte or zero is returned.  If the string
                                     0000    71 ;	has a length of zero then a zero is returned.
                                     0000    72 ;
                                     0000    73 ; CALLING SEQUENCE:
                                     0000    74 ;
                                     0000    75 ;	index.wlu.v = LIB$SKPC (char.rt.dx, string.rt.dx)
                                     0000    76 ;
                           00000004  0000    77 	CHAR = 4				; Adr of character desc
                           00000008  0000    78 	STRING = 8				; Adr of string desc
                                     0000    79
                                     0000    80 ; INPUT PARAMETERS:
                                     0000    81 ;
                                     0000    82 ;	NONE
                                     0000    83 ;
                                     0000    84 ; IMPLICIT INPUTS:
                                     0000    85 ;
                                     0000    86 ;	NONE
                                     0000    87 ;
                                     0000    88 ; OUTPUT PARAMETERS:
                                     0000    89 ;
                                     0000    90 ;	NONE
                                     0000    91 ;
                                     0000    92 ; IMPLICIT OUTPUTS:
                                     0000    93 ;
                                     0000    94 ;	NONE
                                     0000    95 ;
                                     0000    96 ; FUNCTION VALUE:
                                     0000    97 ;
                                     0000    98 ;	index.wlu.v
                                     0000    99 ;
                                     0000   100 ; SIDE EFFECTS:
                                     0000   101 ;
                                     0000   102 ;	NONE
                                     0000   103 ;
                                     0000   104 ;--
                                     0000   105
                               000C' 0000   106 	.ENTRY LIB$SKPC , ^M<R2, R3>		; Entry point
                                     0002   107
            50         04 AC     D0  0002   108 	MOVL	CHAR(AP), R0			; R0 points to character desc
            52         08 BC     7D  0006   109 	MOVQ	@STRING(AP), R2			; R2/R3 = len and adr of string
            52         04 B0     3B  000A   110 	SKPC	@4(R0), R2, (R3)		; skip characters
                          63         000E
                          06     13  000F   111 	BEQL	10$				; branch if none found
            52            50     A3  0011   112 	SUBW3	R0, R2, R0			; get relative position
                          50         0014
                          50     D6  0015   113 	INCL	R0				; one origin
                                 04  0017   114 10$:	RET
                                     0018   115 	.END
LIB$SKPC        - skip characters in a character string          21-AUG-1978 19:01:01   VAX-11 MACRO X0.3-11               Page   4
SYMBOL TABLE                                                                                                                     (3)

CHAR           = 00000004
FOR$K_ERR_PREFX= 00000018
LIB$SKPC         00000000 RG    02
MTH$K_ERR_PREFX= 00000016
MTH__FLOOVEMAT = 00000058
MTH__FLOUNDMAT = 00000059
MTH__INVARG    = 00000051
MTH__LOGZERNEG = 00000053
MTH__SINSIGLOS = 00000057
MTH__SQUROONEG = 00000054
MTH__UNDEXP    = 00000052
MTH__WRONUMARG = 00000050
STRING         = 00000008


PROGRAM SECTION SYNOPSIS

.  ABS  .        00000000      00     NOPIC   USR   CON   ABS   LCL NOSHR NOEXE NORD  NOWRT BYTE
. BLANK .        00000000      01     NOPIC   USR   CON   REL   LCL NOSHR   EXE   RD    WRT BYTE
LIB$CODE         00000018      02       PIC   USR   CON   REL   LCL   SHR   EXE   RD  NOWRT LONG


THERE WERE NO ERRORS OR WARNINGS.
28020. BYTES LEFT IN FREE MEMORY POOL.
OBJ$:LIBSKPC,LIS$:LIBSKPC/-SP=LIB$:S/ML,SRC$:P,LIBSKPC
0 MLB DIR RDS - 0 GETS TO DEFINE 0 MACROS. 2 INTER. FILE WRITES.
