MTH$AMOD                                                         21-AUG-1978 19:01:42   VAX-11 MACRO X0.3-11               Page   0
TABLE OF CONTENTS

   (2)     100  HISTORY		; Detailed Current Edit History
   (3)     100  DECLARATIONS
   (4)     100  MTH$AMOD - REAL remainder
MTH$AMOD                                                         21-AUG-1978 19:01:42   VAX-11 MACRO X0.3-11               Page   1
0-5                                                                                                                              (1)

                                     0000   100 	.TITLE	MTH$AMOD
                                     0000   200 	.IDENT	/0-5/		; File: MTHAMOD.MAR
                                     0000   300
                                     0000   400 ;
                                     0000   500 ; Copyright (C) 1977
                                     0000   600 ; Digital Equipment Corporation, Maynard, Massachusetts 01754
                                     0000   700 ;
                                     0000   800 ; This software is furnished under a license for use only on a single
                                     0000   900 ; computer  system  and  may be copied only with the inclusion of the
                                     0000  1000 ; above copyright notice. This software, or any other copies thereof,
                                     0000  1100 ; may not be provided or otherwise made available to any other person
                                     0000  1200 ; except for use on such system and to one who agree to these license
                                     0000  1300 ; terms.  Title to  and  ownership of the software shall at all times
                                     0000  1400 ; remain in DEC.
                                     0000  1500 ;
                                     0000  1600 ; The information in the software is subject to change without notice
                                     0000  1700 ; and should  not  be construed  as a commitment by Digital Equipment
                                     0000  1800 ; Corporation.
                                     0000  1900 ;
                                     0000  2000 ; DEC assumes  no  responsibility  for the use or  reliability of its
                                     0000  2100 ; software on equipment which is not supplied by DEC.
                                     0000  2200 ;
                                     0000  2300 ;
                                     0000  2400 ; FACILITY: MATH LIBRARY
                                     0000  2500 ;++
                                     0000  2600 ; ABSTRACT:
                                     0000  2700 ;	This module contains routine MTH$AMOD:
                                     0000  2800 ;	Returns the value:
                                     0000  2900 ;		arg1 - (int(arg1/arg2))*arg2
                                     0000  3000 ;
                                     0000  3100 ;
                                     0000  3200 ;--
                                     0000  3300 ;
                                     0000  3400 ; VERSION: 0
                                     0000  3500 ;
                                     0000  3600 ; HISTORY:
                                     0000  3700 ;
                                     0000  3800 ; AUTHOR:
                                     0000  3900 ;	Jonathan M. Taylor, 4-Aug-77: Version 0
                                     0000  4000 ;
                                     0000  4100 ; MODIFIED BY:
                                     0000  4200 ;	R. Schaefer, 10-Nov-77
                                     0000  4300 ;
                                     0000  4400 ;
                                     0000  4500 ;
MTH$AMOD                                                         21-AUG-1978 19:01:42   VAX-11 MACRO X0.3-11               Page   2
0-5             HISTORY  ; Detailed Current Edit History                                                                         (2)

                                     0000   100 	.SBTTL	HISTORY		; Detailed Current Edit History
                                     0000   200
                                     0000   300
                                     0000   400 ; Edit History for Version 0 of MTH$AMOD
                                     0000   500 ;
                                     0000   600 ; 0-3	R. Schaefer	Alter algorithm to ignore integer part from EMODF
                                     0000   700 ; 0-4	- Interchange EMODF 1st and 3rd operands FPA bug.  TNH 28-Dec-77
                                     0000   800 ; 0-5	- Remove MTH$FLAG_JACKET.  TNH 4-July-78
MTH$AMOD                                                         21-AUG-1978 19:01:42   VAX-11 MACRO X0.3-11               Page   3
0-5             DECLARATIONS                                                                                                     (3)

                                     0000   100 	.SBTTL	DECLARATIONS
                                     0000   200
                                     0000   300 ;
                                     0000   400 ; INCLUDE FILES:
                                     0000   500 ;	oerr.mar
                                     0000   600 ;
                                     0000   700
                                     0000   800 ;
                                     0000   900 ; EXTERNAL SYMBOLS:
                                     0000  1000 ;	NONE
                                     0000  1100 ;
                                     0000  1200
                                     0000  1300 ;
                                     0000  1400 ; MACROS:
                                     0000  1500 ;	NONE
                                     0000  1600 ;
                                     0000  1700
                                     0000  1800 ;
                                     0000  1900 ; PSECT DECLARATIONS:
                                 00000000  2000 	.PSECT	MTH$CODE	PIC, SHR, LONG, EXE, NOWRT
                                     0000  2100
                                     0000  2200 ;
                                     0000  2300 ; EQUATED SYMBOLS:
                                     0000  2400 ;	NONE
                                     0000  2500 ;
                                     0000  2600
                                     0000  2700 ;
                                     0000  2800 ; OWN STORAGE:
                                     0000  2900 ;	NONE
                                     0000  3000 ;
MTH$AMOD                                                         21-AUG-1978 19:01:42   VAX-11 MACRO X0.3-11               Page   4
0-5             MTH$AMOD - REAL remainder                                                                                        (4)

                                     0000   100 	.SBTTL	MTH$AMOD - REAL remainder
                                     0000   200
                                     0000   300 ;++
                                     0000   400 ; FUNCTIONAL DESCRIPTION:
                                     0000   500 ;	Return the remainder of arg1/arg2 in floating format
                                     0000   600 ;	Remainder = arg1 - (int(arg1/arg2))*arg2
                                     0000   700 ;
                                     0000   800 ;
                                     0000   900 ; CALLING SEQUENCE:
                                     0000  1000 ;	Remainder.wf.v =MTH$AMOD (dividend.rf.r, divisor.rf.r)
                                     0000  1100 ;
                                     0000  1200 ;
                                     0000  1300 ;
                                     0000  1400 ; INPUT PARAMETERS:
                                     0000  1500 ;	The two arguments are single-precision floating-point values
                                     0000  1600 ;	and are call-by-reference.
                                     0000  1700 ;
                                     0000  1800 ;
                                     0000  1900 ; IMPLICIT INPUTS:
                                     0000  2000 ;	NONE
                                     0000  2100 ;
                                     0000  2200 ; OUTPUT PARAMETERS:
                                     0000  2300 ;	NONE
                                     0000  2400 ;
                                     0000  2500 ; IMPLICIT OUTPUTS:
                                     0000  2600 ;	NONE
                                     0000  2700 ;
                                     0000  2800 ; COMPLETION CODES:
                                     0000  2900 ;	NONE
                                     0000  3000 ;
                                     0000  3100 ; SIDE EFFECTS:
                                     0000  3200 ;	Reserved Operand and Floating Overflow exceptions can occur.
                                     0000  3300 ;
                                     0000  3400 ;
                                     0000  3500 ;--
                                     0000  3600
                                     0000  3700
                                     0000  3800
                               0000' 0000  3900 	.ENTRY	MTH$AMOD,	^M<>
         04 BC         08 BC     47  0002  4100 	DIVF3	@8(AP), @4(AP), R0	; R0 = arg1/arg2
                          50         0007
            00            08     54  0008  4200 	EMODF	#1, #0, R0, R1, R1	; R1 = fract(arg1/arg2)
            51            50         000B
                          51         000D
            50            51     42  000E  4300 	SUBF2	R1, R0			; R0 = int(arg1/arg2)
            50         08 BC     44  0011  4400 	MULF	@8(AP), R0		; R0 = int(arg1/arg2)*arg2
         04 BC            50     43  0015  4500 	SUBF3	R0, @4(AP), R0		; R0 = arg1 - int(arg1/arg2)*arg2
                          50         0019
                                 04  001A  4600 	RET
                                     001B  4700
                                     001B  4800
                                     001B  4900 	.END
MTH$AMOD                                                         21-AUG-1978 19:01:42   VAX-11 MACRO X0.3-11               Page   5
SYMBOL TABLE                                                                                                                     (4)

FOR$K_ERR_PREFX= 00000018
MTH$AMOD         00000000 RG    02
MTH$K_ERR_PREFX= 00000016
MTH__FLOOVEMAT = 00000058
MTH__FLOUNDMAT = 00000059
MTH__INVARG    = 00000051
MTH__LOGZERNEG = 00000053
MTH__SINSIGLOS = 00000057
MTH__SQUROONEG = 00000054
MTH__UNDEXP    = 00000052
MTH__WRONUMARG = 00000050


PROGRAM SECTION SYNOPSIS

.  ABS  .        00000000      00     NOPIC   USR   CON   ABS   LCL NOSHR NOEXE NORD  NOWRT BYTE
. BLANK .        00000000      01     NOPIC   USR   CON   REL   LCL NOSHR   EXE   RD    WRT BYTE
MTH$CODE         0000001B      02       PIC   USR   CON   REL   LCL   SHR   EXE   RD  NOWRT LONG


THERE WERE NO ERRORS OR WARNINGS.
28066. BYTES LEFT IN FREE MEMORY POOL.
OBJ$:MTHAMOD,LIS$:MTHAMOD/-SP=LIB$:S/ML,SRC$:P,MTHAMOD
0 MLB DIR RDS - 0 GETS TO DEFINE 0 MACROS. 2 INTER. FILE WRITES.
