MTH$ABS         The ABS functions                                21-AUG-1978 19:01:13   VAX-11 MACRO X0.3-11               Page   0
TABLE OF CONTENTS

   (2)     100  HISTORY		; Detailed Current Edit History
   (3)     100  DECLARATIONS
   (4)     100  MTH$IIABS
   (5)     100  MTH$JIABS
   (6)     100  MTH$ABS
   (7)     100  MTH$DABS
MTH$ABS         The ABS functions                                21-AUG-1978 19:01:13   VAX-11 MACRO X0.3-11               Page   1
0-4                                                                                                                              (1)

                                     0000   100 	.TITLE	MTH$ABS		The ABS functions
                                     0000   200 	.IDENT	/0-4/		; File: MTHABS.MAR
                                     0000   300
                                     0000   400 ;
                                     0000   500 ; Copyright (C) 1977
                                     0000   600 ; Digital Equipment Corporation, Maynard, Massachusetts 01754
                                     0000   700 ;
                                     0000   800 ; This software is furnished under a license for use only on a single
                                     0000   900 ; computer  system  and  may be copied only with the inclusion of the
                                     0000  1000 ; above copyright notice. This software, or any other copies thereof,
                                     0000  1100 ; may not be provided or otherwise made available to any other person
                                     0000  1200 ; except for use on such system and to one who agree to these license
                                     0000  1300 ; terms.  Title to  and  ownership of the software shall at all times
                                     0000  1400 ; remain in DEC.
                                     0000  1500 ;
                                     0000  1600 ; The information in the software is subject to change without notice
                                     0000  1700 ; and should  not  be construed  as a commitment by Digital Equipment
                                     0000  1800 ; Corporation.
                                     0000  1900 ;
                                     0000  2000 ; DEC assumes  no  responsibility  for the use or  reliability of its
                                     0000  2100 ; software on equipment which is not supplied by DEC.
                                     0000  2200 ;
                                     0000  2300 ;
                                     0000  2400 ; FACILITY: MATH LIBRARY
                                     0000  2500 ;++
                                     0000  2600 ; ABSTRACT:
                                     0000  2700 ;	This module contains routines for the absolute value of
                                     0000  2800 ;	INTEGER*2, INTEGER*4, REAL*4, and REAL*8 values.
                                     0000  2900 ;
                                     0000  3000 ;
                                     0000  3100 ;--
                                     0000  3200 ;
                                     0000  3300 ; VERSION: 0
                                     0000  3400 ;
                                     0000  3500 ; HISTORY:
                                     0000  3600 ;
                                     0000  3700 ; AUTHOR:
                                     0000  3800 ;	Jonathan M. Taylor, 14-JUL-77: Version 0
                                     0000  3900 ;
                                     0000  4000 ; MODIFIED BY:
                                     0000  4100 ;
                                     0000  4200 ;
                                     0000  4300 ;
MTH$ABS         The ABS functions                                21-AUG-1978 19:01:13   VAX-11 MACRO X0.3-11               Page   2
0-4             HISTORY  ; Detailed Current Edit History                                                                         (2)

                                     0000   100 	.SBTTL	HISTORY		; Detailed Current Edit History
                                     0000   200
                                     0000   300
                                     0000   400 ; Edit History for Version 0 of MTH$ABS
                                     0000   500 ;
                                     0000   600 ; 0-3	- REMOVE MTH$FLAG_JACKET.  TNH 5-July-78
                                     0000   700 ; 0-4	- remove MTH$JACKET_HND.  TNH 26-July-78
MTH$ABS         The ABS functions                                21-AUG-1978 19:01:13   VAX-11 MACRO X0.3-11               Page   3
0-4             DECLARATIONS                                                                                                     (3)

                                     0000   100 	.SBTTL	DECLARATIONS
                                     0000   200
                                     0000   300 ;
                                     0000   400 ; INCLUDE FILES:
                                     0000   500 ;	oerr.mar
                                     0000   600 ;
                                     0000   700
                                     0000   800 ;
                                     0000   900 ; EXTERNAL SYMBOLS:
                                     0000  1000 ;	NONE
                                     0000  1100 ;
                                     0000  1200
                                     0000  1300 ;
                                     0000  1400 ; MACROS:
                                     0000  1500 ;	NONE
                                     0000  1600 ;
                                     0000  1700
                                     0000  1800 ;
                                     0000  1900 ; PSECT DECLARATIONS:
                                 00000000  2000 	.PSECT	MTH$CODE	PIC, SHR, LONG, EXE, NOWRT
                                     0000  2100
                                     0000  2200 ;
                                     0000  2300 ; EQUATED SYMBOLS:
                                     0000  2400 ;	NONE
                                     0000  2500 ;
                                     0000  2600
                                     0000  2700 ;
                                     0000  2800 ; OWN STORAGE:
                                     0000  2900 ;	NONE
                                     0000  3000 ;
MTH$ABS         The ABS functions                                21-AUG-1978 19:01:13   VAX-11 MACRO X0.3-11               Page   4
0-4             MTH$IIABS                                                                                                        (4)

                                     0000   100 	.SBTTL	MTH$IIABS
                                     0000   200
                                     0000   300 ;++
                                     0000   400 ; FUNCTIONAL DESCRIPTION:
                                     0000   500 ;	Returns the absolute value of the argument.
                                     0000   600 ;
                                     0000   700 ;
                                     0000   800 ; CALLING SEQUENCE:
                                     0000   900 ;	Absolute_value.WW.V = MTH$IIABS (arg.rw.r)
                                     0000  1000 ;
                                     0000  1100 ;
                                     0000  1200 ;
                                     0000  1300 ; INPUT PARAMETERS:
                                     0000  1400 ;	The one parameter is a one-word value and is call-by-reference.
                                     0000  1500 ;
                                     0000  1600 ;
                                     0000  1700 ; IMPLICIT INPUTS:
                                     0000  1800 ;	NONE
                                     0000  1900 ;
                                     0000  2000 ; OUTPUT PARAMETERS:
                                     0000  2100 ;	NONE
                                     0000  2200 ;
                                     0000  2300 ; IMPLICIT OUTPUTS:
                                     0000  2400 ;	NONE
                                     0000  2500 ;
                                     0000  2600 ; COMPLETION CODES:
                                     0000  2700 ;	NONE
                                     0000  2800 ;
                                     0000  2900 ; SIDE EFFECTS:
                                     0000  3000 ;	Integer Overflow exception can occur.
                                     0000  3100 ;
                                     0000  3200 ;
                                     0000  3300 ;--
                                     0000  3400
                               4000' 0000  3500 	.ENTRY	MTH$IIABS,	^M<IV>
            50         04 BC     B0  0002  3700 	MOVW	@4(AP), R0	; R0 = arg
                          03     18  0006  3800 	BGEQ	1$		; return if positive
            50            50     AE  0008  3900 	MNEGW	R0, R0		; make positive
                                 04  000B  4000 1$:	RET
MTH$ABS         The ABS functions                                21-AUG-1978 19:01:13   VAX-11 MACRO X0.3-11               Page   5
0-4             MTH$JIABS                                                                                                        (5)

                                     000C   100 	.SBTTL	MTH$JIABS
                                     000C   200
                                     000C   300 ;++
                                     000C   400 ; FUNCTIONAL DESCRIPTION:
                                     000C   500 ;	Returns the absolute value of the argument.
                                     000C   600 ;
                                     000C   700 ;
                                     000C   800 ; CALLING SEQUENCE:
                                     000C   900 ;	Absolute_value.wl.v =MTH$JIABS (arg.rl.r)
                                     000C  1000 ;
                                     000C  1100 ;
                                     000C  1200 ;
                                     000C  1300 ; INPUT PARAMETERS:
                                     000C  1400 ;	The one parameter is a longword value and is call-by-reference.
                                     000C  1500 ;
                                     000C  1600 ;
                                     000C  1700 ; IMPLICIT INPUTS:
                                     000C  1800 ;	NONE
                                     000C  1900 ;
                                     000C  2000 ; OUTPUT PARAMETERS:
                                     000C  2100 ;	NONE
                                     000C  2200 ;
                                     000C  2300 ; IMPLICIT OUTPUTS:
                                     000C  2400 ;	NONE
                                     000C  2500 ;
                                     000C  2600 ; COMPLETION CODES:
                                     000C  2700 ;	NONE
                                     000C  2800 ;
                                     000C  2900 ; SIDE EFFECTS:
                                     000C  3000 ;	Integer Overflow exception can occur.
                                     000C  3100 ;
                                     000C  3200 ;
                                     000C  3300 ;--
                                     000C  3400
                                     000C  3500
                               4000' 000C  3600 	.ENTRY	MTH$JIABS,	^M<IV>
            50         04 BC     D0  000E  3800 	MOVL	@4(AP), R0	; R0 = arg
                          03     18  0012  3900 	BGEQ	1$		; return if positive
            50            50     CE  0014  4000 	MNEGL	R0, R0		; make positive
                                 04  0017  4100 1$:	RET
MTH$ABS         The ABS functions                                21-AUG-1978 19:01:13   VAX-11 MACRO X0.3-11               Page   6
0-4             MTH$ABS                                                                                                          (6)

                                     0018   100 	.SBTTL	MTH$ABS
                                     0018   200
                                     0018   300 ;++
                                     0018   400 ; FUNCTIONAL DESCRIPTION:
                                     0018   500 ;	Returns the absolute value of the argument.
                                     0018   600 ;
                                     0018   700 ;
                                     0018   800 ; CALLING SEQUENCE:
                                     0018   900 ;	Absolute_value.wf.v = MTH$ABS (arg.rf.r)
                                     0018  1000 ;
                                     0018  1100 ;
                                     0018  1200 ;
                                     0018  1300 ; INPUT PARAMETERS:
                                     0018  1400 ;	The one argument is a single-precision floating-point value
                                     0018  1500 ;	and is call-by-reference.
                                     0018  1600 ;
                                     0018  1700 ;
                                     0018  1800 ; IMPLICIT INPUTS:
                                     0018  1900 ;	NONE
                                     0018  2000 ;
                                     0018  2100 ; OUTPUT PARAMETERS:
                                     0018  2200 ;	NONE
                                     0018  2300 ;
                                     0018  2400 ; IMPLICIT OUTPUTS:
                                     0018  2500 ;	NONE
                                     0018  2600 ;
                                     0018  2700 ; COMPLETION CODES:
                                     0018  2800 ;	NONE
                                     0018  2900 ;
                                     0018  3000 ; SIDE EFFECTS:
                                     0018  3100 ;	Reserved Operand exception can occur.
                                     0018  3200 ;
                                     0018  3300 ;
                                     0018  3400 ;--
                                     0018  3500
                                     0018  3600
                               0000' 0018  3700 	.ENTRY	MTH$ABS,	^M<>
            50         04 BC     50  001A  3900 	MOVF	@4(AP), R0	; R0 = arg
            50       8000 8F     AA  001E  4000 	BICW	#^X8000, R0	; force positive
                                 04  0023  4100 	RET
MTH$ABS         The ABS functions                                21-AUG-1978 19:01:13   VAX-11 MACRO X0.3-11               Page   7
0-4             MTH$DABS                                                                                                         (7)

                                     0024   100 	.SBTTL	MTH$DABS
                                     0024   200
                                     0024   300 ;++
                                     0024   400 ; FUNCTIONAL DESCRIPTION:
                                     0024   500 ;	Return the absolute value of the argument.
                                     0024   600 ;
                                     0024   700 ;
                                     0024   800 ; CALLING SEQUENCE:
                                     0024   900 ;	Absolute_value.wd.v =MTH$DABS (arg.rd.r)
                                     0024  1000 ;
                                     0024  1100 ;
                                     0024  1200 ;
                                     0024  1300 ; INPUT PARAMETERS:
                                     0024  1400 ;	The one parameter is a double-precision floating-point value
                                     0024  1500 ;	and is call-by-reference.
                                     0024  1600 ;
                                     0024  1700 ;
                                     0024  1800 ; IMPLICIT INPUTS:
                                     0024  1900 ;	NONE
                                     0024  2000 ;
                                     0024  2100 ; OUTPUT PARAMETERS:
                                     0024  2200 ;	NONE
                                     0024  2300 ;
                                     0024  2400 ; IMPLICIT OUTPUTS:
                                     0024  2500 ;	NONE
                                     0024  2600 ;
                                     0024  2700 ; COMPLETION CODES:
                                     0024  2800 ;	NONE
                                     0024  2900 ;
                                     0024  3000 ; SIDE EFFECTS:
                                     0024  3100 ;	Reserved Operand exception can occur.
                                     0024  3200 ;
                                     0024  3300 ;
                                     0024  3400 ;--
                                     0024  3500
                                     0024  3600
                               0000' 0024  3700 	.ENTRY	MTH$DABS,	^M<>
            50         04 BC     70  0026  3900 	MOVD	@4(AP), R0	; R0/R1 = arg
            50       8000 8F     AA  002A  4000 	BICW	#^X8000, R0	; force positive
                                 04  002F  4100 	RET
                                     0030  4200
                                     0030  4300
                                     0030  4400 	.END
MTH$ABS         The ABS functions                                21-AUG-1978 19:01:13   VAX-11 MACRO X0.3-11               Page   8
SYMBOL TABLE                                                                                                                     (7)

FOR$K_ERR_PREFX= 00000018
MTH$ABS          00000018 RG    02
MTH$DABS         00000024 RG    02
MTH$IIABS        00000000 RG    02
MTH$JIABS        0000000C RG    02
MTH$K_ERR_PREFX= 00000016
MTH__FLOOVEMAT = 00000058
MTH__FLOUNDMAT = 00000059
MTH__INVARG    = 00000051
MTH__LOGZERNEG = 00000053
MTH__SINSIGLOS = 00000057
MTH__SQUROONEG = 00000054
MTH__UNDEXP    = 00000052
MTH__WRONUMARG = 00000050


PROGRAM SECTION SYNOPSIS

.  ABS  .        00000000      00     NOPIC   USR   CON   ABS   LCL NOSHR NOEXE NORD  NOWRT BYTE
. BLANK .        00000000      01     NOPIC   USR   CON   REL   LCL NOSHR   EXE   RD    WRT BYTE
MTH$CODE         00000030      02       PIC   USR   CON   REL   LCL   SHR   EXE   RD  NOWRT LONG


THERE WERE NO ERRORS OR WARNINGS.
27980. BYTES LEFT IN FREE MEMORY POOL.
OBJ$:MTHABS,LIS$:MTHABS/-SP=LIB$:S/ML,SRC$:P,MTHABS
0 MLB DIR RDS - 0 GETS TO DEFINE 0 MACROS. 2 INTER. FILE WRITES.
