MTH$CEXP        COMPLEX EXPONENTIATION                           21-AUG-1978 19:02:24   VAX-11 MACRO X0.3-11               Page   0
TABLE OF CONTENTS

   (2)      90  HISTORY		; Detailed Current Edit History
   (3)      96  DECLARATIONS
   (4)     124  MTH$CEXP - perform COMPLEX exponentiation
MTH$CEXP        COMPLEX EXPONENTIATION                           21-AUG-1978 19:02:24   VAX-11 MACRO X0.3-11               Page   1
0-4                                                                                                                              (1)

                                     0000     1 	.TITLE	MTH$CEXP	COMPLEX EXPONENTIATION
                                     0000     2 	.IDENT	/0-4/		; File: MTHCEXP.MAR
                                     0000     3
                                     0000     4 ;
                                     0000     5 ; Copyright (C) 1977
                                     0000     6 ; Digital Equipment Corporation, Maynard, Massachusetts 01754
                                     0000     7 ;
                                     0000     8 ; This software is furnished under a license for use only on a single
                                     0000     9 ; computer  system  and  may be copied only with the inclusion of the
                                     0000    10 ; above copyright notice. This software, or any other copies thereof,
                                     0000    11 ; may not be provided or otherwise made available to any other person
                                     0000    12 ; except for use on such system and to one who agree to these license
                                     0000    13 ; terms.  Title to  and  ownership of the software shall at all times
                                     0000    14 ; remain in DEC.
                                     0000    15 ;
                                     0000    16 ; The information in the software is subject to change without notice
                                     0000    17 ; and should  not  be construed  as a commitment by Digital Equipment
                                     0000    18 ; Corporation.
                                     0000    19 ;
                                     0000    20 ; DEC assumes  no  responsibility  for the use or  reliability of its
                                     0000    21 ; software on equipment which is not supplied by DEC.
                                     0000    22 ;
                                     0000    23 ;
                                     0000    24 ; FACILITY: MATH LIBRARY
                                     0000    25 ;++
                                     0000    26 ; ABSTRACT:
                                     0000    27 ;	Perform complex exponentiation: e**(r,i)
                                     0000    28 ;
                                     0000    29 ;
                                     0000    30 ;--
                                     0000    31 ;
                                     0000    32 ; VERSION: 0
                                     0000    33 ;
                                     0000    34 ; HISTORY:
                                     0000    35 ;
                                     0000    36 ; AUTHOR:
                                     0000    37 ;	Jonathan M. Taylor, 19-JUL-77: Version 0
                                     0000    38 ;
                                     0000    39 ; MODIFIED BY:
                                     0000    40 ;
                                     0000    41 ;
                                     0000    42 ;
MTH$CEXP        COMPLEX EXPONENTIATION                           21-AUG-1978 19:02:24   VAX-11 MACRO X0.3-11               Page   2
0-4             HISTORY  ; Detailed Current Edit History                                                                         (2)

                                     0000    44 	.SBTTL	HISTORY		; Detailed Current Edit History
                                     0000    45
                                     0000    46
                                     0000    47 ; Edit History for Version 0 of MTH$CEXP
                                     0000    48 ;
MTH$CEXP        COMPLEX EXPONENTIATION                           21-AUG-1978 19:02:24   VAX-11 MACRO X0.3-11               Page   3
0-4             DECLARATIONS                                                                                                     (3)

                                     0000    50 	.SBTTL	DECLARATIONS
                                     0000    51
                                     0000    52 ;
                                     0000    53 ; INCLUDE FILES:
                                     0000    54 ;	OERR.MAR
                                     0000    55
                                     0000    56 ;
                                     0000    57 ; EXTERNAL SYMBOLS:
                                     0000    58 	.GLOBL	MTH$SIN_R4
                                     0000    59 	.GLOBL	MTH$COS_R4
                                     0000    60 	.GLOBL	MTH$EXP_R4
                                     0000    61
                                     0000    62 ;
                                     0000    63 ; MACROS:
                                     0000    64 ;	NONE
                                     0000    65
                                     0000    66 ;
                                     0000    67 ; PSECT DECLARATIONS:
                                 00000000    68 	.PSECT	MTH$CODE	PIC, SHR, LONG, EXE, NOWRT
                                     0000    69
                                     0000    70 ;
                                     0000    71 ; EQUATED SYMBOLS:
                           00000004  0000    72 	argadr	=	4	; offset from AP of arg adr
                                     0000    73
                                     0000    74 ;
                                     0000    75 ; OWN STORAGE:
                                     0000    76 ;	NONE
MTH$CEXP        COMPLEX EXPONENTIATION                           21-AUG-1978 19:02:24   VAX-11 MACRO X0.3-11               Page   4
0-4             MTH$CEXP - perform COMPLEX exponentiation                                                                        (4)

                                     0000    78 	.SBTTL	MTH$CEXP - perform COMPLEX exponentiation
                                     0000    79
                                     0000    80 ;++
                                     0000    81 ; FUNCTIONAL DESCRIPTION:
                                     0000    82 ;
                                     0000    83 ;	The result of the operation e ** (r, i) is computed
                                     0000    84 ;	by:
                                     0000    85 ;
                                     0000    86 ;	result = (EXP(r) * COS(i), EXP(r) * SIN(i))
                                     0000    87 ;
                                     0000    88 ; CALLING SEQUENCE:
                                     0000    89 ;	Exponential.wfc.v	= MTH$CEXP(arg.rfc.r)
                                     0000    90 ;
                                     0000    91 ;
                                     0000    92 ; INPUT PARAMETERS:
                                     0000    93 ;	The one input parameter is the address of COMPLEX number (r, i),
                                     0000    94 ;	where r and i are both single-precision floating point values.
                                     0000    95 ;
                                     0000    96 ; IMPLICIT INPUTS:
                                     0000    97 ;	NONE
                                     0000    98 ;
                                     0000    99 ; OUTPUT PARAMETERS:
                                     0000   100 ;	NONE
                                     0000   101 ;
                                     0000   102 ; IMPLICIT OUTPUTS:
                                     0000   103 ;	NONE
                                     0000   104 ;
                                     0000   105 ; COMPLETION CODES:
                                     0000   106 ;	NONE
                                     0000   107 ;
                                     0000   108 ; SIDE EFFECTS:
                                     0000   109 ;	Signals:	MTH$_SINSIGLOS	if |i| > 2*PI*2**31.
                                     0000   110 ;			Floating Overflow if r > 88.028
                                     0000   111 ;
                                     0000   112 ;--
                                     0000   113
                                     0000   114
                               00FC' 0000   115 	.ENTRY	MTH$CEXP,	^M<R2,R3,R4,R5,R6,R7>
                                     0002   116 	MTH$FLAG_JACKET			; resignal
                                     0002
            6D       0000'CF     3E  0002       	MOVAW	W^MTH$$JACKET_HND, (FP)
                                     0007       					; set handler address to jacket
                                     0007       					; handler
                                     0007
                                     0007   117
            50         04 BC     D0  0007   118 	MOVL	@argadr(AP), R0		; R0 = r
                 00000000'EF     16  000B   119 	JSB	MTH$EXP_R4		; R0 = EXP(r)
            55            50     D0  0011   120 	MOVL	R0, R5			; R5 = EXP(r)
                                     0014   121
            56         04 AC     D0  0014   122 	MOVL	argadr(AP), R6		; R6 -> (r, i)
                                     0018   123
            50         04 A6     D0  0018   124 	MOVL	4(R6), R0		; R0 = i
                 00000000'EF     16  001C   125 	JSB	MTH$SIN_R4		; R0 = SIN(i)
            57            50     D0  0022   126 	MOVL	R0, R7			; R7 = SIN(i)
                                     0025   127
            50         04 A6     D0  0025   128 	MOVL	4(R6), R0		; R0 = i
                 00000000'EF     16  0029   129 	JSB	MTH$COS_R4		; R0 = COS(i)
MTH$CEXP        COMPLEX EXPONENTIATION                           21-AUG-1978 19:02:24   VAX-11 MACRO X0.3-11               Page   5
0-4             MTH$CEXP - perform COMPLEX exponentiation                                                                        (4)

                                     002F   130
            50            55     44  002F   131 	MULF	R5, R0			; R0 = COS(i) * EXP(r)
            55            57     45  0032   132 	MULF3	R7, R5, R1		; R1 = SIN(i) * EXP(r)
                          51         0035
                                 04  0036   133 	RET
                                     0037   134
                                     0037   135
                                     0037   136 	.END
MTH$CEXP        COMPLEX EXPONENTIATION                           21-AUG-1978 19:02:24   VAX-11 MACRO X0.3-11               Page   6
SYMBOL TABLE                                                                                                                     (4)

ARGADR         = 00000004
FOR$K_ERR_PREFX= 00000018
MTH$$JACKET_HND  ********   X   02
MTH$CEXP         00000000 RG    02
MTH$COS_R4       ********  GX   01
MTH$EXP_R4       ********  GX   01
MTH$K_ERR_PREFX= 00000016
MTH$SIN_R4       ********  GX   01
MTH__FLOOVEMAT = 00000058
MTH__FLOUNDMAT = 00000059
MTH__INVARG    = 00000051
MTH__LOGZERNEG = 00000053
MTH__SINSIGLOS = 00000057
MTH__SQUROONEG = 00000054
MTH__UNDEXP    = 00000052
MTH__WRONUMARG = 00000050


PROGRAM SECTION SYNOPSIS

.  ABS  .        00000000      00     NOPIC   USR   CON   ABS   LCL NOSHR NOEXE NORD  NOWRT BYTE
. BLANK .        00000000      01     NOPIC   USR   CON   REL   LCL NOSHR   EXE   RD    WRT BYTE
MTH$CODE         00000037      02       PIC   USR   CON   REL   LCL   SHR   EXE   RD  NOWRT LONG


THERE WERE NO ERRORS OR WARNINGS.
27964. BYTES LEFT IN FREE MEMORY POOL.
OBJ$:MTHCEXP,LIS$:MTHCEXP/-SP=LIB$:S/ML,SRC$:P,MTHCEXP
0 MLB DIR RDS - 0 GETS TO DEFINE 0 MACROS. 2 INTER. FILE WRITES.
