MTH$CONVER      type conversions (FLOAT, FIX, INT)               21-AUG-1978 19:02:42   VAX-11 MACRO X0.3-11               Page   0
TABLE OF CONTENTS

   (2)     100  HISTORY		; Detailed Current Edit History
   (3)     100  DECLARATIONS
   (4)     100  MTH$DFLOTI
   (5)     100  MTH$DFLOTJ
   (6)     100  MTH$IINT, MTH$IIFIX
   (7)     100  MTH$JINT, MTH$JIFIX
   (8)     100  MTH$IIDINT
   (9)     100  MTH$JIDINT
   (10)    100  MTH$REAL
   (11)    100  MTH$AIMAG
   (12)    100  MTH$CMPLX
   (13)    100  MTH$DBLE
   (14)    100  MTH$SNGL
   (15)    100  MTH$FLOATI
   (16)    100  MTH$FLOATJ
MTH$CONVER      type conversions (FLOAT, FIX, INT)               21-AUG-1978 19:02:42   VAX-11 MACRO X0.3-11               Page   1
0-3                                                                                                                              (1)

                                     0000   100 	.TITLE	MTH$CONVER	type conversions (FLOAT, FIX, INT)
                                     0000   200 	.IDENT	/0-3/		; File: MTHCONVER.MAR
                                     0000   300
                                     0000   400 ;
                                     0000   500 ; Copyright (C) 1977
                                     0000   600 ; Digital Equipment Corporation, Maynard, Massachusetts 01754
                                     0000   700 ;
                                     0000   800 ; This software is furnished under a license for use only on a single
                                     0000   900 ; computer  system  and  may be copied only with the inclusion of the
                                     0000  1000 ; above copyright notice. This software, or any other copies thereof,
                                     0000  1100 ; may not be provided or otherwise made available to any other person
                                     0000  1200 ; except for use on such system and to one who agree to these license
                                     0000  1300 ; terms.  Title to  and  ownership of the software shall at all times
                                     0000  1400 ; remain in DEC.
                                     0000  1500 ;
                                     0000  1600 ; The information in the software is subject to change without notice
                                     0000  1700 ; and should  not  be construed  as a commitment by Digital Equipment
                                     0000  1800 ; Corporation.
                                     0000  1900 ;
                                     0000  2000 ; DEC assumes  no  responsibility  for the use or  reliability of its
                                     0000  2100 ; software on equipment which is not supplied by DEC.
                                     0000  2200 ;
                                     0000  2300 ;
                                     0000  2400 ; FACILITY: MATH LIBRARY
                                     0000  2500 ;++
                                     0000  2600 ; ABSTRACT:
                                     0000  2700 ;	This module contains all of the one or two instruction type
                                     0000  2800 ;	conversion routines.
                                     0000  2900 ;
                                     0000  3000 ;
                                     0000  3100 ;--
                                     0000  3200 ;
                                     0000  3300 ; VERSION: 0
                                     0000  3400 ;
                                     0000  3500 ; HISTORY:
                                     0000  3600 ;
                                     0000  3700 ; AUTHOR:
                                     0000  3800 ;	Jonathan M. Taylor, 14-JUL-77: Version 0
                                     0000  3900 ;
                                     0000  4000 ; MODIFIED BY:
                                     0000  4100 ;
                                     0000  4200 ;
                                     0000  4300 ;
MTH$CONVER      type conversions (FLOAT, FIX, INT)               21-AUG-1978 19:02:42   VAX-11 MACRO X0.3-11               Page   2
0-3             HISTORY  ; Detailed Current Edit History                                                                         (2)

                                     0000   100 	.SBTTL	HISTORY		; Detailed Current Edit History
                                     0000   200
                                     0000   300
                                     0000   400 ; Edit History for Version 0 of MTH$CONVER
                                     0000   500 ;
                                     0000   600 ; 0-3	- Remove MTH$FLAG_JACKET.  TNH 26-July-78
MTH$CONVER      type conversions (FLOAT, FIX, INT)               21-AUG-1978 19:02:42   VAX-11 MACRO X0.3-11               Page   3
0-3             DECLARATIONS                                                                                                     (3)

                                     0000   100 	.SBTTL	DECLARATIONS
                                     0000   200
                                     0000   300 ;
                                     0000   400 ; INCLUDE FILES:
                                     0000   500 ;	oerr.mar
                                     0000   600 ;
                                     0000   700
                                     0000   800 ;
                                     0000   900 ; EXTERNAL SYMBOLS:
                                     0000  1000 ;	NONE
                                     0000  1100 ;
                                     0000  1200
                                     0000  1300 ;
                                     0000  1400 ; MACROS:
                                     0000  1500 ;	NONE
                                     0000  1600 ;
                                     0000  1700
                                     0000  1800 ;
                                     0000  1900 ; PSECT DECLARATIONS:
                                 00000000  2000 	.PSECT	MTH$CODE	PIC, SHR, LONG, EXE, NOWRT
                                     0000  2100
                                     0000  2200 ;
                                     0000  2300 ; EQUATED SYMBOLS:
                                     0000  2400 ;	NONE
                                     0000  2500 ;
                                     0000  2600
                                     0000  2700 ;
                                     0000  2800 ; OWN STORAGE:
                                     0000  2900 ;	NONE
                                     0000  3000 ;
MTH$CONVER      type conversions (FLOAT, FIX, INT)               21-AUG-1978 19:02:42   VAX-11 MACRO X0.3-11               Page   4
0-3             MTH$DFLOTI                                                                                                       (4)

                                     0000   100 	.SBTTL	MTH$DFLOTI
                                     0000   200
                                     0000   300 ;++
                                     0000   400 ; FUNCTIONAL DESCRIPTION:
                                     0000   500 ;	Convert INTEGER*2 to REAL*8 (exact).
                                     0000   600 ;
                                     0000   700 ;
                                     0000   800 ; CALLING SEQUENCE:
                                     0000   900 ;	Float.wd.v = MTH$DFLOTI (arg.rw.r)
                                     0000  1000 ;
                                     0000  1100 ;
                                     0000  1200 ;
                                     0000  1300 ; INPUT PARAMETERS:
                                     0000  1400 ;	The input parameter is a one-word value and is call-by-reference.
                                     0000  1500 ;
                                     0000  1600 ;
                                     0000  1700 ; IMPLICIT INPUTS:
                                     0000  1800 ;	NONE
                                     0000  1900 ;
                                     0000  2000 ; OUTPUT PARAMETERS:
                                     0000  2100 ;	NONE
                                     0000  2200 ;
                                     0000  2300 ; IMPLICIT OUTPUTS:
                                     0000  2400 ;	NONE
                                     0000  2500 ;
                                     0000  2600 ; COMPLETION CODES:
                                     0000  2700 ;	NONE
                                     0000  2800 ;
                                     0000  2900 ; SIDE EFFECTS:
                                     0000  3000 ;	NONE
                                     0000  3100 ;
                                     0000  3200 ;--
                                     0000  3300
                               0000' 0000  3400 	.ENTRY	MTH$DFLOTI,	^M<>
            50         04 BC     6D  0002  3500 	CVTWD	@4(AP), R0	; convert INTEGER*2 to REAL*8
                                 04  0006  3600 	RET
MTH$CONVER      type conversions (FLOAT, FIX, INT)               21-AUG-1978 19:02:42   VAX-11 MACRO X0.3-11               Page   5
0-3             MTH$DFLOTJ                                                                                                       (5)

                                     0007   100 	.SBTTL	MTH$DFLOTJ
                                     0007   200
                                     0007   300 ;++
                                     0007   400 ; FUNCTIONAL DESCRIPTION:
                                     0007   500 ;	Convert INTEGER*4 to REAL*8 (exact).
                                     0007   600 ;
                                     0007   700 ;
                                     0007   800 ; CALLING SEQUENCE:
                                     0007   900 ;	Float.wd.v = MTH$DFLOTJ (arg.rl.r)
                                     0007  1000 ;
                                     0007  1100 ;
                                     0007  1200 ;
                                     0007  1300 ; INPUT PARAMETERS:
                                     0007  1400 ;	The one input parameter is a longword value and is
                                     0007  1500 ;	call-by-reference.
                                     0007  1600 ;
                                     0007  1700 ;
                                     0007  1800 ; IMPLICIT INPUTS:
                                     0007  1900 ;	NONE
                                     0007  2000 ;
                                     0007  2100 ; OUTPUT PARAMETERS:
                                     0007  2200 ;	NONE
                                     0007  2300 ;
                                     0007  2400 ; IMPLICIT OUTPUTS:
                                     0007  2500 ;	NONE
                                     0007  2600 ;
                                     0007  2700 ; COMPLETION CODES:
                                     0007  2800 ;	NONE
                                     0007  2900 ;
                                     0007  3000 ; SIDE EFFECTS:
                                     0007  3100 ;	NONE
                                     0007  3200 ;
                                     0007  3300 ;--
                                     0007  3400
                                     0007  3500
                               0000' 0007  3600 	.ENTRY	MTH$DFLOTJ,	^M<>
            50         04 BC     6E  0009  3700 	CVTLD	@4(AP), R0	; convert INTEGER*4 to REAL*8
                                 04  000D  3800 	RET
MTH$CONVER      type conversions (FLOAT, FIX, INT)               21-AUG-1978 19:02:42   VAX-11 MACRO X0.3-11               Page   6
0-3             MTH$IINT, MTH$IIFIX                                                                                              (6)

                                     000E   100 	.SBTTL	MTH$IINT, MTH$IIFIX
                                     000E   200
                                     000E   300 ;++
                                     000E   400 ; FUNCTIONAL DESCRIPTION:
                                     000E   500 ;	Convert REAL*4 to INTEGER*2 (truncated).
                                     000E   600 ;
                                     000E   700 ;
                                     000E   800 ; CALLING SEQUENCE:
                                     000E   900 ;	Truncation.ww.v = MTH$IINT (arg.rf.r)
                                     000E  1000 ;	Integer.ww.v = MTH$IIFIX (arg.rf.r)
                                     000E  1100 ;
                                     000E  1200 ;
                                     000E  1300 ;
                                     000E  1400 ; INPUT PARAMETERS:
                                     000E  1500 ;
                                     000E  1600 ;
                                     000E  1700 ; IMPLICIT INPUTS:
                                     000E  1800 ;	NONE
                                     000E  1900 ;
                                     000E  2000 ; OUTPUT PARAMETERS:
                                     000E  2100 ;	NONE
                                     000E  2200 ;
                                     000E  2300 ; IMPLICIT OUTPUTS:
                                     000E  2400 ;	NONE
                                     000E  2500 ;
                                     000E  2600 ; COMPLETION CODES:
                                     000E  2700 ;	NONE
                                     000E  2800 ;
                                     000E  2900 ; SIDE EFFECTS:
                                     000E  3000 ;	Integer Overflow and Reserved Operand exceptions can occur.
                                     000E  3100 ;
                                     000E  3200 ;
                                     000E  3300 ;--
                                     000E  3400
                                     000E  3500
                                     000E  3600 MTH$IINT::
                               4000' 000E  3700 	.ENTRY	MTH$IIFIX,	^M<IV> ; enable integer overflow
            50         04 BC     49  0010  3900 	CVTFW	@4(AP), R0	; convert REAL*4 to INTEGER*2
                                 04  0014  4000 	RET
MTH$CONVER      type conversions (FLOAT, FIX, INT)               21-AUG-1978 19:02:42   VAX-11 MACRO X0.3-11               Page   7
0-3             MTH$JINT, MTH$JIFIX                                                                                              (7)

                                     0015   100 	.SBTTL	MTH$JINT, MTH$JIFIX
                                     0015   200
                                     0015   300 ;++
                                     0015   400 ; FUNCTIONAL DESCRIPTION:
                                     0015   500 ;	Convert REAL*4 to INTEGER*4 (truncated).
                                     0015   600 ;
                                     0015   700 ;
                                     0015   800 ; CALLING SEQUENCE:
                                     0015   900 ;	Truncation.wl.v = MTH$JINT (arg.rf.r)
                                     0015  1000 ;	Integer.wl.v = MTH$JIFIX (arg.rf.r)
                                     0015  1100 ;
                                     0015  1200 ;
                                     0015  1300 ;
                                     0015  1400 ; INPUT PARAMETERS:
                                     0015  1500 ;	The one input parameter is a single-precision floating-point
                                     0015  1600 ;	value and is call-by-reference.
                                     0015  1700 ;
                                     0015  1800 ;
                                     0015  1900 ; IMPLICIT INPUTS:
                                     0015  2000 ;	NONE
                                     0015  2100 ;
                                     0015  2200 ; OUTPUT PARAMETERS:
                                     0015  2300 ;	NONE
                                     0015  2400 ;
                                     0015  2500 ; IMPLICIT OUTPUTS:
                                     0015  2600 ;	NONE
                                     0015  2700 ;
                                     0015  2800 ; COMPLETION CODES:
                                     0015  2900 ;	NONE
                                     0015  3000 ;
                                     0015  3100 ; SIDE EFFECTS:
                                     0015  3200 ;	Reserved Operand and Integer Overflow exceptions can occur.
                                     0015  3300 ;
                                     0015  3400 ;
                                     0015  3500 ;--
                                     0015  3600
                                     0015  3700
                                     0015  3800 MTH$JINT::
                               4000' 0015  3900 	.ENTRY	MTH$JIFIX,	^M<IV> ; enable integer overflow
            50         04 BC     4A  0017  4100 	CVTFL	@4(AP), R0	; convert REAL*4 to INTEGER*4
                                 04  001B  4200 	RET
MTH$CONVER      type conversions (FLOAT, FIX, INT)               21-AUG-1978 19:02:42   VAX-11 MACRO X0.3-11               Page   8
0-3             MTH$IIDINT                                                                                                       (8)

                                     001C   100 	.SBTTL	MTH$IIDINT
                                     001C   200
                                     001C   300 ;++
                                     001C   400 ; FUNCTIONAL DESCRIPTION:
                                     001C   500 ;	Convert REAL*8 to INTEGER*2 (truncated).
                                     001C   600 ;
                                     001C   700 ;
                                     001C   800 ; CALLING SEQUENCE:
                                     001C   900 ;	Truncation.ww.v = MTH$IIDINT (arg.rd.r)
                                     001C  1000 ;
                                     001C  1100 ;
                                     001C  1200 ;
                                     001C  1300 ; INPUT PARAMETERS:
                                     001C  1400 ;	The one input parameter is a double-precision floating-point
                                     001C  1500 ;	value and is call-by-reference.
                                     001C  1600 ;
                                     001C  1700 ;
                                     001C  1800 ; IMPLICIT INPUTS:
                                     001C  1900 ;	NONE
                                     001C  2000 ;
                                     001C  2100 ; OUTPUT PARAMETERS:
                                     001C  2200 ;	NONE
                                     001C  2300 ;
                                     001C  2400 ; IMPLICIT OUTPUTS:
                                     001C  2500 ;	NONE
                                     001C  2600 ;
                                     001C  2700 ; COMPLETION CODES:
                                     001C  2800 ;	NONE
                                     001C  2900 ;
                                     001C  3000 ; SIDE EFFECTS:
                                     001C  3100 ;	Reserved Operand and Integer Overflow exceptions can occur.
                                     001C  3200 ;
                                     001C  3300 ;
                                     001C  3400 ;--
                                     001C  3500
                                     001C  3600
                               4000' 001C  3700 	.ENTRY	MTH$IIDINT,	^M<IV> ; enable integer overflow
            50         04 BC     69  001E  3900 	CVTDW	@4(AP), R0	; REAL*8 to INTEGER*2
                                 04  0022  4000 	RET
MTH$CONVER      type conversions (FLOAT, FIX, INT)               21-AUG-1978 19:02:42   VAX-11 MACRO X0.3-11               Page   9
0-3             MTH$JIDINT                                                                                                       (9)

                                     0023   100 	.SBTTL	MTH$JIDINT
                                     0023   200
                                     0023   300 ;++
                                     0023   400 ; FUNCTIONAL DESCRIPTION:
                                     0023   500 ;	Convert REAL*8 to INTEGER*4 (truncated).
                                     0023   600 ;
                                     0023   700 ;
                                     0023   800 ; CALLING SEQUENCE:
                                     0023   900 ;	Truncation.wl.v = MTH$JIDINT (arg.rd.r)
                                     0023  1000 ;
                                     0023  1100 ;
                                     0023  1200 ;
                                     0023  1300 ; INPUT PARAMETERS:
                                     0023  1400 ;	The one input parameter is double-precision floating-point value
                                     0023  1500 ;	and is call-by-reference.
                                     0023  1600 ;
                                     0023  1700 ;
                                     0023  1800 ; IMPLICIT INPUTS:
                                     0023  1900 ;	NONE
                                     0023  2000 ;
                                     0023  2100 ; OUTPUT PARAMETERS:
                                     0023  2200 ;	NONE
                                     0023  2300 ;
                                     0023  2400 ; IMPLICIT OUTPUTS:
                                     0023  2500 ;	NONE
                                     0023  2600 ;
                                     0023  2700 ; COMPLETION CODES:
                                     0023  2800 ;	NONE
                                     0023  2900 ;
                                     0023  3000 ; SIDE EFFECTS:
                                     0023  3100 ;	Reserved Operand and Integer Overflow exceptions can occur.
                                     0023  3200 ;
                                     0023  3300 ;
                                     0023  3400 ;--
                                     0023  3500
                                     0023  3600
                               4000' 0023  3700 	.ENTRY	MTH$JIDINT,	^M<IV> ; enable integer overflow
            50         04 BC     6A  0025  3900 	CVTDL	@4(AP), R0	; REAL*8 to INTEGER*4
                                 04  0029  4000 	RET
MTH$CONVER      type conversions (FLOAT, FIX, INT)               21-AUG-1978 19:02:42   VAX-11 MACRO X0.3-11               Page  10
0-3             MTH$REAL                                                                                                        (10)

                                     002A   100 	.SBTTL	MTH$REAL
                                     002A   200
                                     002A   300 ;++
                                     002A   400 ; FUNCTIONAL DESCRIPTION:
                                     002A   500 ;	Return the REAL part of the COMPLEX argument.
                                     002A   600 ;
                                     002A   700 ;
                                     002A   800 ; CALLING SEQUENCE:
                                     002A   900 ;	Real_part.wf.v = MTH$REAL (complex_arg.rfc.r)
                                     002A  1000 ;
                                     002A  1100 ;
                                     002A  1200 ;
                                     002A  1300 ; INPUT PARAMETERS:
                                     002A  1400 ;	The one argument is a COMPLEX*8 number and is call-by-reference.
                                     002A  1500 ;
                                     002A  1600 ;
                                     002A  1700 ; IMPLICIT INPUTS:
                                     002A  1800 ;	NONE
                                     002A  1900 ;
                                     002A  2000 ; OUTPUT PARAMETERS:
                                     002A  2100 ;	NONE
                                     002A  2200 ;
                                     002A  2300 ; IMPLICIT OUTPUTS:
                                     002A  2400 ;	NONE
                                     002A  2500 ;
                                     002A  2600 ; COMPLETION CODES:
                                     002A  2700 ;	NONE
                                     002A  2800 ;
                                     002A  2900 ; SIDE EFFECTS:
                                     002A  3000 ;	Reserved Operand exception can occur.
                                     002A  3100 ;
                                     002A  3200 ;
                                     002A  3300 ;--
                                     002A  3400
                                     002A  3500
                               0000' 002A  3600 	.ENTRY	MTH$REAL,	^M<>
            50         04 BC     50  002C  3800 	MOVF	@4(AP), R0	; get 1st half of COMPLEX number
                                 04  0030  3900 	RET
MTH$CONVER      type conversions (FLOAT, FIX, INT)               21-AUG-1978 19:02:42   VAX-11 MACRO X0.3-11               Page  11
0-3             MTH$AIMAG                                                                                                       (11)

                                     0031   100 	.SBTTL	MTH$AIMAG
                                     0031   200
                                     0031   300 ;++
                                     0031   400 ; FUNCTIONAL DESCRIPTION:
                                     0031   500 ;	Returns the IMAGINARY part of a COMPLEX*8 argument.
                                     0031   600 ;
                                     0031   700 ;
                                     0031   800 ; CALLING SEQUENCE:
                                     0031   900 ;	Imaginary_part.wf.v = MTH$AIMAG (complex_arg.rfc.r)
                                     0031  1000 ;
                                     0031  1100 ;
                                     0031  1200 ;
                                     0031  1300 ; INPUT PARAMETERS:
                                     0031  1400 ;	The one argument is a COMPLEX*8 value and is call-by-reference.
                                     0031  1500 ;
                                     0031  1600 ;
                                     0031  1700 ; IMPLICIT INPUTS:
                                     0031  1800 ;	NONE
                                     0031  1900 ;
                                     0031  2000 ; OUTPUT PARAMETERS:
                                     0031  2100 ;	NONE
                                     0031  2200 ;
                                     0031  2300 ; IMPLICIT OUTPUTS:
                                     0031  2400 ;	NONE
                                     0031  2500 ;
                                     0031  2600 ; COMPLETION CODES:
                                     0031  2700 ;	NONE
                                     0031  2800 ;
                                     0031  2900 ; SIDE EFFECTS:
                                     0031  3000 ;	Reserved Operand exception can occur.
                                     0031  3100 ;
                                     0031  3200 ;
                                     0031  3300 ;--
                                     0031  3400
                                     0031  3500
                               0000' 0031  3600 	.ENTRY	MTH$AIMAG,	^M<>
            50         04 AC     D0  0033  3800 	MOVL	4(AP), R0	; R0 -> COMPLEX number
            50         04 A0     50  0037  3900 	MOVF	4(R0), R0	; R0 = imaginary part of COMPLEX number
                                 04  003B  4000 	RET
MTH$CONVER      type conversions (FLOAT, FIX, INT)               21-AUG-1978 19:02:42   VAX-11 MACRO X0.3-11               Page  12
0-3             MTH$CMPLX                                                                                                       (12)

                                     003C   100 	.SBTTL	MTH$CMPLX
                                     003C   200
                                     003C   300 ;++
                                     003C   400 ; FUNCTIONAL DESCRIPTION:
                                     003C   500 ;	Return a COMPLEX*8 number from two single-precision
                                     003C   600 ;	floating-point values.
                                     003C   700 ;
                                     003C   800 ;
                                     003C   900 ; CALLING SEQUENCE:
                                     003C  1000 ;	Complex_from_two_reals.wfc.v = MTH$CMPLX
                                     003C  1100 ;	(real_part.rf.r, imaginary_part.rf.r)
                                     003C  1200 ;
                                     003C  1300 ;
                                     003C  1400 ;
                                     003C  1500 ; INPUT PARAMETERS:
                                     003C  1600 ;	The two input parameters are single-precision floating-point
                                     003C  1700 ;	values and are call-by-reference.
                                     003C  1800 ;
                                     003C  1900 ;
                                     003C  2000 ; IMPLICIT INPUTS:
                                     003C  2100 ;	NONE
                                     003C  2200 ;
                                     003C  2300 ; OUTPUT PARAMETERS:
                                     003C  2400 ;	NONE
                                     003C  2500 ;
                                     003C  2600 ; IMPLICIT OUTPUTS:
                                     003C  2700 ;	NONE
                                     003C  2800 ;
                                     003C  2900 ; COMPLETION CODES:
                                     003C  3000 ;	NONE
                                     003C  3100 ;
                                     003C  3200 ; SIDE EFFECTS:
                                     003C  3300 ;	Reserved Operand exception can occur.
                                     003C  3400 ;
                                     003C  3500 ;
                                     003C  3600 ;--
                                     003C  3700
                                     003C  3800
                               0000' 003C  3900 	.ENTRY	MTH$CMPLX,	^M<>
            50         04 BC     50  003E  4100 	MOVF	@4(AP), R0	; real part = 1st arg
            51         08 BC     50  0042  4200 	MOVF	@8(AP), R1	; imag part = 2nd arg
                                 04  0046  4300 	RET
MTH$CONVER      type conversions (FLOAT, FIX, INT)               21-AUG-1978 19:02:42   VAX-11 MACRO X0.3-11               Page  13
0-3             MTH$DBLE                                                                                                        (13)

                                     0047   100 	.SBTTL	MTH$DBLE
                                     0047   200
                                     0047   300 ;++
                                     0047   400 ; FUNCTIONAL DESCRIPTION:
                                     0047   500 ;	Convert REAL*4 to REAL*8 (exact).
                                     0047   600 ;
                                     0047   700 ;
                                     0047   800 ; CALLING SEQUENCE:
                                     0047   900 ;	Conversion.wd.v = MTH$DBLE (arg.rf.r)
                                     0047  1000 ;
                                     0047  1100 ;
                                     0047  1200 ;
                                     0047  1300 ; INPUT PARAMETERS:
                                     0047  1400 ;	The one parameter is a single-precision floating-point value
                                     0047  1500 ;	and is call-by-reference.
                                     0047  1600 ;
                                     0047  1700 ;
                                     0047  1800 ; IMPLICIT INPUTS:
                                     0047  1900 ;	NONE
                                     0047  2000 ;
                                     0047  2100 ; OUTPUT PARAMETERS:
                                     0047  2200 ;	NONE
                                     0047  2300 ;
                                     0047  2400 ; IMPLICIT OUTPUTS:
                                     0047  2500 ;	NONE
                                     0047  2600 ;
                                     0047  2700 ; COMPLETION CODES:
                                     0047  2800 ;	NONE
                                     0047  2900 ;
                                     0047  3000 ; SIDE EFFECTS:
                                     0047  3100 ;	Reserved Operand exception can occur.
                                     0047  3200 ;
                                     0047  3300 ;
                                     0047  3400 ;--
                                     0047  3500
                                     0047  3600
                               0000' 0047  3700 	.ENTRY	MTH$DBLE,	^M<>
            50         04 BC     56  0049  3900 	CVTFD	@4(AP), R0	; REAL*4 to REAL*8 in R0/R1
                                 04  004D  4000 	RET
MTH$CONVER      type conversions (FLOAT, FIX, INT)               21-AUG-1978 19:02:42   VAX-11 MACRO X0.3-11               Page  14
0-3             MTH$SNGL                                                                                                        (14)

                                     004E   100 	.SBTTL	MTH$SNGL
                                     004E   200
                                     004E   300 ;++
                                     004E   400 ; FUNCTIONAL DESCRIPTION:
                                     004E   500 ;	Convert REAL*8 to REAL*4 (rounded)
                                     004E   600 ;
                                     004E   700 ;
                                     004E   800 ; CALLING SEQUENCE:
                                     004E   900 ;	Conversion.wf.v = MTH$SNGL (arg.rd.r)
                                     004E  1000 ;
                                     004E  1100 ;
                                     004E  1200 ;
                                     004E  1300 ; INPUT PARAMETERS:
                                     004E  1400 ;	The one parameter is a double-precision floating-point value
                                     004E  1500 ;	and is call-by-reference.
                                     004E  1600 ;
                                     004E  1700 ;
                                     004E  1800 ; IMPLICIT INPUTS:
                                     004E  1900 ;	NONE
                                     004E  2000 ;
                                     004E  2100 ; OUTPUT PARAMETERS:
                                     004E  2200 ;	NONE
                                     004E  2300 ;
                                     004E  2400 ; IMPLICIT OUTPUTS:
                                     004E  2500 ;	NONE
                                     004E  2600 ;
                                     004E  2700 ; COMPLETION CODES:
                                     004E  2800 ;	NONE
                                     004E  2900 ;
                                     004E  3000 ; SIDE EFFECTS:
                                     004E  3100 ;	Reserved Operand and Floating Overflow exceptions can occur.
                                     004E  3200 ;
                                     004E  3300 ;
                                     004E  3400 ;--
                                     004E  3500
                                     004E  3600
                               0000' 004E  3700 	.ENTRY	MTH$SNGL,	^M<>
            50         04 BC     76  0050  3900 	CVTDF	@4(AP), R0	; REAL*8 to REAL*4 in R0
                                 04  0054  4000 	RET
MTH$CONVER      type conversions (FLOAT, FIX, INT)               21-AUG-1978 19:02:42   VAX-11 MACRO X0.3-11               Page  15
0-3             MTH$FLOATI                                                                                                      (15)

                                     0055   100 	.SBTTL	MTH$FLOATI
                                     0055   200
                                     0055   300 ;++
                                     0055   400 ; FUNCTIONAL DESCRIPTION:
                                     0055   500 ;	Convert INTEGER*2 to REAL*4 (exact).
                                     0055   600 ;
                                     0055   700 ;
                                     0055   800 ; CALLING SEQUENCE:
                                     0055   900 ;	Float.wf.v = MTH$FLOATI (arg.rw.r)
                                     0055  1000 ;
                                     0055  1100 ;
                                     0055  1200 ;
                                     0055  1300 ; INPUT PARAMETERS:
                                     0055  1400 ;	The one parameter is a one-word value and is call-by-reference.
                                     0055  1500 ;
                                     0055  1600 ;
                                     0055  1700 ; IMPLICIT INPUTS:
                                     0055  1800 ;	NONE
                                     0055  1900 ;
                                     0055  2000 ; OUTPUT PARAMETERS:
                                     0055  2100 ;	NONE
                                     0055  2200 ;
                                     0055  2300 ; IMPLICIT OUTPUTS:
                                     0055  2400 ;	NONE
                                     0055  2500 ;
                                     0055  2600 ; COMPLETION CODES:
                                     0055  2700 ;	NONE
                                     0055  2800 ;
                                     0055  2900 ; SIDE EFFECTS:
                                     0055  3000 ;	NONE
                                     0055  3100 ;
                                     0055  3200 ;--
                                     0055  3300
                                     0055  3400
                               0000' 0055  3500 	.ENTRY	MTH$FLOATI,	^M<>
            50         04 BC     4D  0057  3600 	CVTWF	@4(AP), R0	; INTEGER*2 to REAL*4
                                 04  005B  3700 	RET
MTH$CONVER      type conversions (FLOAT, FIX, INT)               21-AUG-1978 19:02:42   VAX-11 MACRO X0.3-11               Page  16
0-3             MTH$FLOATJ                                                                                                      (16)

                                     005C   100 	.SBTTL	MTH$FLOATJ
                                     005C   200
                                     005C   300 ;++
                                     005C   400 ; FUNCTIONAL DESCRIPTION:
                                     005C   500 ;	Convert INTEGER*4 to REAL*4 (rounded).
                                     005C   600 ;
                                     005C   700 ;
                                     005C   800 ; CALLING SEQUENCE:
                                     005C   900 ;	Float.wf.v = MTH$FLOATJ (arg.rl.r)
                                     005C  1000 ;
                                     005C  1100 ;
                                     005C  1200 ;
                                     005C  1300 ; INPUT PARAMETERS:
                                     005C  1400 ;	The one parameter is a longword value and is call-by-reference.
                                     005C  1500 ;
                                     005C  1600 ;
                                     005C  1700 ; IMPLICIT INPUTS:
                                     005C  1800 ;	NONE
                                     005C  1900 ;
                                     005C  2000 ; OUTPUT PARAMETERS:
                                     005C  2100 ;	NONE
                                     005C  2200 ;
                                     005C  2300 ; IMPLICIT OUTPUTS:
                                     005C  2400 ;	NONE
                                     005C  2500 ;
                                     005C  2600 ; COMPLETION CODES:
                                     005C  2700 ;	NONE
                                     005C  2800 ;
                                     005C  2900 ; SIDE EFFECTS:
                                     005C  3000 ;	NONE
                                     005C  3100 ;
                                     005C  3200 ;--
                                     005C  3300
                                     005C  3400
                               0000' 005C  3500 	.ENTRY	MTH$FLOATJ,	^M<>
            50         04 BC     4E  005E  3600 	CVTLF	@4(AP), R0	; INTEGER*4 to REAL*4 in R0
                                 04  0062  3700 	RET
                                     0063  3800
                                     0063  3900
                                     0063  4000 	.END
MTH$CONVER      type conversions (FLOAT, FIX, INT)               21-AUG-1978 19:02:42   VAX-11 MACRO X0.3-11               Page  17
SYMBOL TABLE                                                                                                                    (16)

FOR$K_ERR_PREFX= 00000018
MTH$AIMAG        00000031 RG    02
MTH$CMPLX        0000003C RG    02
MTH$DBLE         00000047 RG    02
MTH$DFLOTI       00000000 RG    02
MTH$DFLOTJ       00000007 RG    02
MTH$FLOATI       00000055 RG    02
MTH$FLOATJ       0000005C RG    02
MTH$IIDINT       0000001C RG    02
MTH$IIFIX        0000000E RG    02
MTH$IINT         0000000E RG    02
MTH$JIDINT       00000023 RG    02
MTH$JIFIX        00000015 RG    02
MTH$JINT         00000015 RG    02
MTH$K_ERR_PREFX= 00000016
MTH$REAL         0000002A RG    02
MTH$SNGL         0000004E RG    02
MTH__FLOOVEMAT = 00000058
MTH__FLOUNDMAT = 00000059
MTH__INVARG    = 00000051
MTH__LOGZERNEG = 00000053
MTH__SINSIGLOS = 00000057
MTH__SQUROONEG = 00000054
MTH__UNDEXP    = 00000052
MTH__WRONUMARG = 00000050


PROGRAM SECTION SYNOPSIS

.  ABS  .        00000000      00     NOPIC   USR   CON   ABS   LCL NOSHR NOEXE NORD  NOWRT BYTE
. BLANK .        00000000      01     NOPIC   USR   CON   REL   LCL NOSHR   EXE   RD    WRT BYTE
MTH$CODE         00000063      02       PIC   USR   CON   REL   LCL   SHR   EXE   RD  NOWRT LONG


THERE WERE NO ERRORS OR WARNINGS.
27792. BYTES LEFT IN FREE MEMORY POOL.
OBJ$:MTHCONVER,LIS$:MTHCONVER/-SP=LIB$:S/ML,SRC$:P,MTHCONVER
0 MLB DIR RDS - 0 GETS TO DEFINE 0 MACROS. 4 INTER. FILE WRITES.
