MTH$CABS        COMPLEX ABSOLUTE VALUE                           21-AUG-1978 19:02:18   VAX-11 MACRO X0.3-11               Page   0
TABLE OF CONTENTS

   (2)     100  HISTORY		; Detailed Current Edit History
   (3)     100  DECLARATIONS
   (3)    2700  MTH$CABS - COMPLEX absolute value
MTH$CABS        COMPLEX ABSOLUTE VALUE                           21-AUG-1978 19:02:18   VAX-11 MACRO X0.3-11               Page   1
0-4                                                                                                                              (1)

                                     0000   100 	.TITLE	MTH$CABS	COMPLEX ABSOLUTE VALUE
                                     0000   200 	.IDENT	/0-4/		; File: MTHCABS.MAR
                                     0000   300
                                     0000   400 ;
                                     0000   500 ; Copyright (C) 1977
                                     0000   600 ; Digital Equipment Corporation, Maynard, Massachusetts 01754
                                     0000   700 ;
                                     0000   800 ; This software is furnished under a license for use only on a single
                                     0000   900 ; computer  system  and  may be copied only with the inclusion of the
                                     0000  1000 ; above copyright notice. This software, or any other copies thereof,
                                     0000  1100 ; may not be provided or otherwise made available to any other person
                                     0000  1200 ; except for use on such system and to one who agree to these license
                                     0000  1300 ; terms.  Title to  and  ownership of the software shall at all times
                                     0000  1400 ; remain in DEC.
                                     0000  1500 ;
                                     0000  1600 ; The information in the software is subject to change without notice
                                     0000  1700 ; and should  not  be construed  as a commitment by Digital Equipment
                                     0000  1800 ; Corporation.
                                     0000  1900 ;
                                     0000  2000 ; DEC assumes  no  responsibility  for the use or  reliability of its
                                     0000  2100 ; software on equipment which is not supplied by DEC.
                                     0000  2200 ;
                                     0000  2300 ;
                                     0000  2400 ; FACILITY: MATH LIBRARY
                                     0000  2500 ;++
                                     0000  2600 ; ABSTRACT:
                                     0000  2700 ;	Return the absolute value of the COMPLEX number.
                                     0000  2800 ;
                                     0000  2900 ;
                                     0000  3000 ;--
                                     0000  3100 ;
                                     0000  3200 ; VERSION: 0
                                     0000  3300 ;
                                     0000  3400 ; HISTORY:
                                     0000  3500 ;
                                     0000  3600 ; AUTHOR:
                                     0000  3700 ;	Jonathan M. Taylor, 19-JUL-77: Version 0
                                     0000  3800 ;
                                     0000  3900 ; MODIFIED BY:
                                     0000  4000 ;
                                     0000  4100 ;
                                     0000  4200 ;
MTH$CABS        COMPLEX ABSOLUTE VALUE                           21-AUG-1978 19:02:18   VAX-11 MACRO X0.3-11               Page   2
0-4             HISTORY  ; Detailed Current Edit History                                                                         (2)

                                     0000   100 	.SBTTL	HISTORY		; Detailed Current Edit History
                                     0000   200
                                     0000   300
                                     0000   400 ; Edit History for Version 0 of MTH$CABS
                                     0000   500 ;
                                     0000   600 ; 0-4	- Add comment about floating overflow.  TNH 13-June-78
MTH$CABS        COMPLEX ABSOLUTE VALUE                           21-AUG-1978 19:02:18   VAX-11 MACRO X0.3-11               Page   3
0-4             DECLARATIONS                                                                                                     (3)

                                     0000   100 	.SBTTL	DECLARATIONS
                                     0000   200
                                     0000   300 ;
                                     0000   400 ; INCLUDE FILES:
                                     0000   500 ;	OERR.MAR
                                     0000   600
                                     0000   700 ;
                                     0000   800 ; EXTERNAL SYMBOLS:
                                     0000   900 	.GLOBL	MTH$SQRT_R2
                                     0000  1000
                                     0000  1100 ;
                                     0000  1200 ; MACROS:
                                     0000  1300 ;	NONE
                                     0000  1400
                                     0000  1500 ;
                                     0000  1600 ; PSECT DECLARATIONS:
                                 00000000  1700 	.PSECT	MTH$CODE	PIC, SHR, LONG, EXE, NOWRT
                                     0000  1800
                                     0000  1900 ;
                                     0000  2000 ; EQUATED SYMBOLS:
                           00000004  0000  2100 	argadr	=	4	; offset from AP of arg addr
                                     0000  2200
                                     0000  2300 ;
                                     0000  2400 ; OWN STORAGE:
                                     0000  2500 ;	NONE
                                     0000  2600
                                     0000  2700 	.SBTTL	MTH$CABS - COMPLEX absolute value
                                     0000  2800
                                     0000  2900 ;++
                                     0000  3000 ; FUNCTIONAL DESCRIPTION:
                                     0000  3100 ;
                                     0000  3200 ;	MTH$CABS computes the absolute value of a COMPLEX number (r, i)
                                     0000  3300 ;	as follows:
                                     0000  3400 ;
                                     0000  3500 ;	result = (ABS(MAX*SQRT((MIN/MAX)**2 + 1)), MAX)
                                     0000  3600 ;
                                     0000  3700 ; CALLING SEQUENCE:
                                     0000  3800 ;	Absolute_value.wf.v	= MTH$CABS (arg.rfc.r)
                                     0000  3900 ;
                                     0000  4000 ;
                                     0000  4100 ; INPUT PARAMETERS:
                                     0000  4200 ;	The one input parameter is the address of a COMPLEX number (r, i),
                                     0000  4300 ;	where r and i are both single-precision floating values.
                                     0000  4400 ;
                                     0000  4500 ; IMPLICIT INPUTS:
                                     0000  4600 ;	NONE
                                     0000  4700 ;
                                     0000  4800 ; OUTPUT PARAMETERS:
                                     0000  4900 ;	NONE
                                     0000  5000 ;
                                     0000  5100 ; IMPLICIT OUTPUTS:
                                     0000  5200 ;	NONE
                                     0000  5300 ;
                                     0000  5400 ; COMPLETION CODES:
                                     0000  5500 ;	NONE
                                     0000  5600 ;
                                     0000  5700 ; SIDE EFFECTS:
MTH$CABS        COMPLEX ABSOLUTE VALUE                           21-AUG-1978 19:02:18   VAX-11 MACRO X0.3-11               Page   4
0-4             MTH$CABS - COMPLEX absolute value                                                                                (3)

                                     0000  5800 ;	Signals:	Invalid Operand if r or i are undefined (-0.0).
                                     0000  5900 ;			Floating overflow if r and i are both large.
                                     0000  6000 ;--
                                     0000  6100
                                     0000  6200
                               000C' 0000  6300 	.ENTRY	MTH$CABS,	^M<R2,R3>
                                     0002  6400 	MTH$FLAG_JACKET			; resignal
                                     0002
            6D       0000'CF     3E  0002       	MOVAW	W^MTH$$JACKET_HND, (FP)
                                     0007       					; set handler address to jacket
                                     0007       					; handler
                                     0007
            50         04 BC     7D  0007  6500 	MOVQ	@argadr(AP), R0		; R0/R1 = (r, i)
            50       8000 8F     AB  000B  6600 	BICW3	#^X8000, R0, R2		; R2 = ABS(r)
                          52         0010
            51       8000 8F     AB  0011  6700 	BICW3	#^X8000, R1, R3		; R3 = ABS(i)
                          53         0016
            53            52     B1  0017  6800 	CMPW	R2, R3			; compare the magnitudes of r and i
                          0D     19  001A  6900 	BLSS	REALLO			; and branch if r is smaller
                          52     53  001C  7000 	TSTF	R2			; quit if r = 0
                          27     13  001E  7100 	BEQL	ZERO
            52            51     D0  0020  7200 	MOVL	R1, R2			; else swap so R0 is smaller
            51            50     D0  0023  7300 	MOVL	R0, R1			; R1 = larger part (r)
            50            52     D0  0026  7400 	MOVL	R2, R0			; R0 = smaller part (i)
                                     0029  7500
                                     0029  7600 REALLO:
                                     0029  7700
                                     0029  7800 ; at this point R0 contains MIN (the smaller of |r| and |i|), and
                                     0029  7900 ; R1 contains MAX (the larger of |r| and |i|).
                                     0029  8000 ;
            50            51     46  0029  8100 	DIVF	R1, R0			; R0 = MIN/MAX
            50            50     44  002C  8200 	MULF	R0, R0			; R0 = (MIN/MAX)**2
            50            08     40  002F  8300 	ADDF	#1.0, R0		; R0 = (MIN/MAX)**2 + 1
            53            51     D0  0032  8400 	MOVL	R1, R3			; R3 = MAX
                 00000000'EF     16  0035  8500 	JSB	MTH$SQRT_R2		; R0 = SQRT((MIN/MAX)**2 + 1)
            50            53     44  003B  8600 	MULF	R3, R0			; R0 = MAX*SQRT((MIN/MAX)**2 + 1)
                                     003E  8650 					; Floating overflow could happen
            50       8000 8F     AA  003E  8700 	BICW	#^X8000, R0		; R0 = ABS(....)
            51            53     D0  0043  8800 	MOVL	R3, R1			; R1 = MAX
                                 04  0046  8900 	RET
                                     0047  9000
                                     0047  9100 ZERO:
                          50     7C  0047  9200 	CLRQ	R0			; answer is 0
                                 04  0049  9300 	RET
                                     004A  9400
                                     004A  9500
                                     004A  9600
                                     004A  9700 	.END
MTH$CABS        COMPLEX ABSOLUTE VALUE                           21-AUG-1978 19:02:18   VAX-11 MACRO X0.3-11               Page   5
SYMBOL TABLE                                                                                                                     (3)

ARGADR         = 00000004
FOR$K_ERR_PREFX= 00000018
MTH$$JACKET_HND  ********   X   02
MTH$CABS         00000000 RG    02
MTH$K_ERR_PREFX= 00000016
MTH$SQRT_R2      ********  GX   01
MTH__FLOOVEMAT = 00000058
MTH__FLOUNDMAT = 00000059
MTH__INVARG    = 00000051
MTH__LOGZERNEG = 00000053
MTH__SINSIGLOS = 00000057
MTH__SQUROONEG = 00000054
MTH__UNDEXP    = 00000052
MTH__WRONUMARG = 00000050
REALLO           00000029 R     02
ZERO             00000047 R     02


PROGRAM SECTION SYNOPSIS

.  ABS  .        00000000      00     NOPIC   USR   CON   ABS   LCL NOSHR NOEXE NORD  NOWRT BYTE
. BLANK .        00000000      01     NOPIC   USR   CON   REL   LCL NOSHR   EXE   RD    WRT BYTE
MTH$CODE         0000004A      02       PIC   USR   CON   REL   LCL   SHR   EXE   RD  NOWRT LONG


THERE WERE NO ERRORS OR WARNINGS.
27972. BYTES LEFT IN FREE MEMORY POOL.
OBJ$:MTHCABS,LIS$:MTHCABS/-SP=LIB$:S/ML,SRC$:P,MTHCABS
0 MLB DIR RDS - 0 GETS TO DEFINE 0 MACROS. 2 INTER. FILE WRITES.
