MTH$DASIN       ; Double Precision Floating Point Sine routine   21-AUG-1978 19:03:22   VAX-11 MACRO X0.3-11               Page   0
TABLE OF CONTENTS

   (2)      91  HISTORY	; Detailed Current Edit History
   (3)     104  DECLARATIONS	; Declarative Part of Module
   (4)     137  MTH$DASIN  - Standard Double Precision Floating
   (5)     197  MTH$DASIN_R9 - Special DASIN routine
MTH$DASIN       ; Double Precision Floating Point Sine routine   21-AUG-1978 19:03:22   VAX-11 MACRO X0.3-11               Page   1
0-4                                                                                                                              (1)

                                     0000     1 	.TITLE	MTH$DASIN 	; Double Precision Floating Point Sine routine
                                     0000     2 				; (DASIN)
                                     0000     3 	.IDENT /0-4/		; File: MTHDASIN.MAR
                                     0000     4 ;
                                     0000     5 ; Copyright (C) 1977
                                     0000     6 ; Digital Equipment Corporation, Maynard, Massachusetts 01754
                                     0000     7 ;
                                     0000     8 ; This  software  is furnished under a license for use only on a single
                                     0000     9 ; computer  system  and  may  be  copied only with the inclusion of the
                                     0000    10 ; above copyright notice.  This software, or  any other copies thereof,
                                     0000    11 ; may not  be  provided or otherwise made available to any other person
                                     0000    12 ; except  for  use on such system and to one who agree to these license
                                     0000    13 ; terms.  Title  to  and  ownership of the software shall  at all times
                                     0000    14 ; remain in DEC.
                                     0000    15 ;
                                     0000    16 ; The information  in  the software is subject to change without notice
                                     0000    17 ; and should  not  be  construed  as  a commitment by Digital Equipment
                                     0000    18 ; Corporation.
                                     0000    19 ;
                                     0000    20 ; DEC assumes  no  responsibility  for  the use  or  reliability of its
                                     0000    21 ; software on equipment which is not supplied by DEC.
                                     0000    22 ;
                                     0000    23 ;
                                     0000    24 ; FACILITY: MATH LIBRARY
                                     0000    25 ;++
                                     0000    26 ; ABSTRACT:
                                     0000    27 ;
                                     0000    28 ; MTH$DASIN is a function which returns the double precision floating point
                                     0000    29 ; arcsine of its double precision floating point argument. The call is standard
                                     0000    30 ; call-by-reference.
                                     0000    31 ;
                                     0000    32 ;--
                                     0000    33 ;
                                     0000    34 ; VERSION: 01
                                     0000    35 ;
                                     0000    36 ; HISTORY:
                                     0000    37 ; AUTHOR:
                                     0000    38 ;	Peter Yuo, 29-Jun-77: Version 01
                                     0000    39 ;
                                     0000    40 ; MODIFIED BY:
                                     0000    41 ;
                                     0000    42 ;
                                     0000    43 ;
MTH$DASIN       ; Double Precision Floating Point Sine routine   21-AUG-1978 19:03:22   VAX-11 MACRO X0.3-11               Page   2
0-4             HISTORY ; Detailed Current Edit History                                                                          (2)

                                     0000    45 	.SBTTL	HISTORY	; Detailed Current Edit History
                                     0000    46
                                     0000    47
                                     0000    48 ; ALGORITHMIC DIFFERENCES FROM FP-11/C ROUTINE:	none
                                     0000    49 ;
                                     0000    50 ; Edit History for Version 01 of MTH$DASIN
                                     0000    51 ;
                                     0000    52 ; 0-2	MTH$$ERROR changed to MTH$$SIGNAL.
                                     0000    53 ;	MTH$_... changed to MTH__....
                                     0000    54 ;	Changed error handling mechanism. Put error result in R0:R1 before
                                     0000    55 ;	calling MTH$$SIGNAL in order to allow user modify error result.
                                     0000    56 ; 0-3	Fix bug involving wrong addressing mode.  JMT 9-Nov-77
MTH$DASIN       ; Double Precision Floating Point Sine routine   21-AUG-1978 19:03:22   VAX-11 MACRO X0.3-11               Page   3
0-4             DECLARATIONS ; Declarative Part of Module                                                                        (3)

                                     0000    58 	.SBTTL	DECLARATIONS	; Declarative Part of Module
                                     0000    59
                                     0000    60 ;
                                     0000    61 ; INCLUDE FILES:	OTSPARAMS.MAR
                                     0000    62 ;
                                     0000    63 ; EXTERNAL SYMBOLS:	MTH$JACKET_HDLR
                                     0000    64 ;
                                     0000    65 ; EQUATED SYMBOLS:
                                     0000    66
                           00004080  0000    67 	SD_1.0	= ^F1.0			; 1.0
                           00000004  0000    68 	value	= 4			; value.rd.r
                                     0000    69
                                     0000    70 ;
                                     0000    71 ; MACROS:	none
                                     0000    72 ;
                                     0000    73 ; PSECT DECLARATIONS:
                                     0000    74
                                 00000000    75 	.PSECT	MTH$CODE	PIC,SHR,LONG,EXE,NOWRT
                                     0000    76 					; program section for math routines
                                     0000    77 ;
                                     0000    78 ; OWN STORAGE:	none
                                     0000    79 ;
                                     0000    80 ;
                                     0000    81 ; CONSTANTS:
                                     0000    82 ;
                                     0000    83
                                     0000    84 D_PI_OVER_2:
                68C2 A221 0FDA 40C9  0000    85 	.WORD	^O040311, ^O007732, ^O121041, ^O064302
                                     0008    86 					; PI/2
                                     0008    87 D_PI:
                68C2 A221 0FDA 4149  0008    88 	.WORD	^O040511, ^O007732, ^O121041, ^O064302
                                     0010    89 					; PI
MTH$DASIN       ; Double Precision Floating Point Sine routine   21-AUG-1978 19:03:22   VAX-11 MACRO X0.3-11               Page   4
0-4             MTH$DASIN  - Standard Double Precision Floating                                                                  (4)

                                     0010    91 	.SBTTL	MTH$DASIN  - Standard Double Precision Floating DASIN
                                     0010    92
                                     0010    93
                                     0010    94 ;++
                                     0010    95 ; FUNCTIONAL DESCRIPTION:
                                     0010    96 ;
                                     0010    97 ; DASIN  - double precision floating point function
                                     0010    98 ;
                                     0010    99 ; DASIN(X) is computed as:
                                     0010   100 ;
                                     0010   101 ;	If X = 0, then DASIN(X) = 0.
                                     0010   102 ;	If X = 1, then DASIN(X) = PI/2.
                                     0010   103 ;	If X = -1, then DASIN(X) = -PI/2.
                                     0010   104 ;	If 0 < |X| < 1, then DASIN(X) = ATAN(X/SQRT(1-X**2)).
                                     0010   105 ;	If 1 < |X|, error.
                                     0010   106 ;
                                     0010   107 ; CALLING SEQUENCE:
                                     0010   108 ;
                                     0010   109 ;	DASIN.wd.v = MTH$DASIN(x.rd.r)
                                     0010   110 ;
                                     0010   111 ; INPUT PARAMETERS:
                                     0010   112
                           00000004  0010   113 	LONG = 4			; define longword multiplier
                           00000004  0010   114 	x = 1 * LONG			; Contents of x is the argument
                                     0010   115
                                     0010   116 ; IMPLICIT INPUTS:	none
                                     0010   117 ;
                                     0010   118 ; OUTPUT PARAMETERS:
                                     0010   119 ;
                                     0010   120 ;	VALUE:	double precision floating arcsine of the argument
                                     0010   121 ;
                                     0010   122 ; IMPLICIT OUTPUTS:	none
                                     0010   123 ;
                                     0010   124 ; COMPLETION CODES:	none
                                     0010   125 ;
                                     0010   126 ; SIDE EFFECTS:
                                     0010   127 ;
                                     0010   128 ; Signals: MTH$_INVARG if |X| > 1 with reserved operand in R0/R1
                                     0010   129 ; (copied to the signal mechanism vector CHF$L_MCH_R0/R1 by LIB$SIGNAL).
                                     0010   130 ; Associated message is: "INVALID ARGUMENT". Result is reserved
                                     0010   131 ; operand -0.0 unless a user supplied (or any) error handler changes CHF$L_MCH_R0/R1
                                     0010   132 ;
                                     0010   133 ; NOTE: This procedure disables floating point underflow, enables integer
                                     0010   134 ; overflow.
                                     0010   135 ;
                                     0010   136 ;---
                                     0010   137
                                     0010   138
                               43FC' 0010   139 	.ENTRY	MTH$DASIN, ^M<IV, R2, R3, R4, R5, R6, R7, R8, R9>
                                     0012   140 					; standard call-by-reference entry
                                     0012   141 					; disable DV (and FU), enable IV
                                     0012   142 	MTH$FLAG_JACKET			; flag that this is a jacket procedure in
                                     0012
            6D       0000'CF     3E  0012       	MOVAW	W^MTH$$JACKET_HND, (FP)
                                     0017       					; set handler address to jacket
                                     0017       					; handler
                                     0017
MTH$DASIN       ; Double Precision Floating Point Sine routine   21-AUG-1978 19:03:22   VAX-11 MACRO X0.3-11               Page   5
0-4             MTH$DASIN  - Standard Double Precision Floating                                                                  (4)

                                     0017   143 					; case of an error in routine
                                     0017   144 					; If an error, convert signal to user PC
                                     0017   145 					; and resignal
            50         04 BC     70  0017   146 	MOVD	@value(AP), R0		; R0/R1 = |X| = @value(AP)
                          01     10  001B   147 	BSBB	MTH$DASIN_R9		; call special DASIN routine
                                 04  001D   148 	RET				; return with result in R0/R1
                                     001E   149
MTH$DASIN       ; Double Precision Floating Point Sine routine   21-AUG-1978 19:03:22   VAX-11 MACRO X0.3-11               Page   6
0-4             MTH$DASIN_R9 - Special DASIN routine                                                                             (5)

                                     001E   151 	.SBTTL	MTH$DASIN_R9 - Special DASIN routine
                                     001E   152
                                     001E   153 ; Special DASIN - used by the stnadard routine and direct JSB call.
                                     001E   154 ;
                                     001E   155 ; CALLING SEQUENCE:
                                     001E   156 ;	save anything needed in R0:R9
                                     001E   157 ;	MOVD	..., R0			; input in R0/R1
                                     001E   158 ;	JSB	MTH$DASIN_R9
                                     001E   159 ;	RSB				; return with result in R0/R1
                                     001E   160 ;
                                     001E   161
                                     001E   162 MTH$DASIN_R9::				; special DASIN routine
            58            50     70  001E   163 	MOVD	R0, R8			; save X in R8/R9
            50       8000 8F     AA  0021   164 	BICW	#^X8000, R0		; R0/R1 = |X|
                          50     73  0026   165 	TSTD	R0			; test if |X| > 0
                          01     14  0028   166 	BGTR	TEST_FOR_1.0		; branch if |X| > 0
                                     002A   167
                                     002A   168 ;
                                     002A   169 ; X = 0
                                     002A   170 ;
                                     002A   171
                                 05  002A   172 	RSB				; return 0 if |X| = 0
                                     002B   173
                                     002B   174 ;
                                     002B   175 ; 0 < |X|
                                     002B   176 ;
                                     002B   177
                                     002B   178 TEST_FOR_1.0:
            08            50     71  002B   179 	CMPD	R0, S^#SD_1.0		; compare |X| with 1.0
                          19     18  002E   180 	BGEQ	GEQ_TO_1.0		; branch if |X| >= 1.0
                                     0030   181
                                     0030   182 ;
                                     0030   183 ; 0 < |X| < 1.0
                                     0030   184 ;
                                     0030   185
            58            58     65  0030   186 	MULD3	R8, R8, R0		; R0/R1 = X**2
                          50         0033
            08            50     63  0034   187 	SUBD3	R0, S^#SD_1.0, R0	; R0/R1 = 1.0 - X**2
                          50         0037
                 00000000'EF     16  0038   188 	JSB	MTH$DSQRT_R5		; R0/R1 = DSQRT(1-X**2)
            58            50     67  003E   189 	DIVD3	R0, R8, R0		; R0/R1 = X/DSQRT(1-X**2)
                          50         0041
                 00000000'EF     16  0042   190 	JSB	MTH$DATAN_R7		; R0/R1 = DATAN(X/DSQRT(1-X**2))
                                 05  0048   191 	RSB				; return with result in R0/R1
                                     0049   192
                                     0049   193
                                     0049   194 ;
                                     0049   195 ; 1 =< |X|
                                     0049   196 ;
                                     0049   197
                                     0049   198 GEQ_TO_1.0:
                          0C     14  0049   199 	BGTR	ERROR			; branch to ERROR if |X| > 1.0
                                     004B   200
                                     004B   201
                                     004B   202 ;
                                     004B   203 ; |X| = 1.0
                                     004B   204 ;
MTH$DASIN       ; Double Precision Floating Point Sine routine   21-AUG-1978 19:03:22   VAX-11 MACRO X0.3-11               Page   7
0-4             MTH$DASIN_R9 - Special DASIN routine                                                                             (5)

                                     004B   205
            50         B2 AF     70  004B   206 	MOVD	D_PI_OVER_2, R0		; R0/R1 = PI/2
                          58     73  004F   207 	TSTD	R8			; test the sign of X
                          03     18  0051   208 	BGEQ	10$			; branch if X > 0
            50            50     72  0053   209 	MNEGD	R0, R0			; R0/R1 = -PI/2
                                 05  0056   210 10$:	RSB				; return with result in R0/R1
                                     0057   211
                                     0057   212 ;
                                     0057   213 ; 1 < |X|, error
                                     0057   214 ;
                                     0057   215
                          6E     DD  0057   216 ERROR:	PUSHL	(SP)			; return PC from JSB routine
            7E         51 8F     9A  0059   217 	MOVZBL	#MTH__INVARG, -(SP)	; condition value
            01            0F     79  005D   218 	ASHQ	#15, #1, R0		; R0 = result = reserved operand -0.0
                          50         0060
                                     0061   219 					; goes to signal mechanism vector
                                     0061   220 					; (CHF$L_MCH_R0/R1) so error handler
                                     0061   221 					; can modify the result.
       0000'CF            02     FB  0061   222 	CALLS	#2, W^MTH$$SIGNAL	; signal error and use real user's PC
                                     0066   223 					; independent of CALL vs JSB
                                 05  0066   224 	RSB				; return - R0 restored from CHF$L_MCH_R0/R1
                                     0067   225
                                     0067   226
                                     0067   227
                                     0067   228
                                     0067   229 	.END
MTH$DASIN       ; Double Precision Floating Point Sine routine   21-AUG-1978 19:03:22   VAX-11 MACRO X0.3-11               Page   8
SYMBOL TABLE                                                                                                                     (5)

D_PI             00000008 R     02
D_PI_OVER_2      00000000 R     02
ERROR            00000057 R     02
FOR$K_ERR_PREFX= 00000018
GEQ_TO_1.0       00000049 R     02
LONG           = 00000004
MTH$$JACKET_HND  ********   X   02
MTH$$SIGNAL      ********   X   02
MTH$DASIN        00000010 RG    02
MTH$DASIN_R9     0000001E RG    02
MTH$DATAN_R7     ********   X   02
MTH$DSQRT_R5     ********   X   02
MTH$K_ERR_PREFX= 00000016
MTH__FLOOVEMAT = 00000058
MTH__FLOUNDMAT = 00000059
MTH__INVARG    = 00000051
MTH__LOGZERNEG = 00000053
MTH__SINSIGLOS = 00000057
MTH__SQUROONEG = 00000054
MTH__UNDEXP    = 00000052
MTH__WRONUMARG = 00000050
SD_1.0         = 00004080
TEST_FOR_1.0     0000002B R     02
VALUE          = 00000004
X              = 00000004


PROGRAM SECTION SYNOPSIS

.  ABS  .        00000000      00     NOPIC   USR   CON   ABS   LCL NOSHR NOEXE NORD  NOWRT BYTE
. BLANK .        00000000      01     NOPIC   USR   CON   REL   LCL NOSHR   EXE   RD    WRT BYTE
MTH$CODE         00000067      02       PIC   USR   CON   REL   LCL   SHR   EXE   RD  NOWRT LONG


THERE WERE NO ERRORS OR WARNINGS.
27782. BYTES LEFT IN FREE MEMORY POOL.
OBJ$:MTHDASIN,LIS$:MTHDASIN/-SP=LIB$:S/ML,SRC$:P,MTHDASIN
0 MLB DIR RDS - 0 GETS TO DEFINE 0 MACROS. 3 INTER. FILE WRITES.
