MTH$DINT        - FLOATING TRUNCATION                            21-AUG-1978 19:04:11   VAX-11 MACRO X0.3-11               Page   0
TABLE OF CONTENTS

   (2)     100  HISTORY		; Detailed Current Edit History
   (3)     100  DECLARATIONS
   (4)     100  MTH$DINT	Double to Double truncation
MTH$DINT        - FLOATING TRUNCATION                            21-AUG-1978 19:04:11   VAX-11 MACRO X0.3-11               Page   1
0-3                                                                                                                              (1)

                                     0000   100 	.TITLE	MTH$DINT - FLOATING TRUNCATION
                                     0000   200 	.IDENT	/0-3/		; File: MTHDINT.MAR
                                     0000   300
                                     0000   400 ;
                                     0000   500 ; Copyright (C) 1977
                                     0000   600 ; Digital Equipment Corporation, Maynard, Massachusetts 01754
                                     0000   700 ;
                                     0000   800 ; This software is furnished under a license for use only on a single
                                     0000   900 ; computer  system  and  may be copied only with the inclusion of the
                                     0000  1000 ; above copyright notice. This software, or any other copies thereof,
                                     0000  1100 ; may not be provided or otherwise made available to any other person
                                     0000  1200 ; except for use on such system and to one who agree to these license
                                     0000  1300 ; terms.  Title to  and  ownership of the software shall at all times
                                     0000  1400 ; remain in DEC.
                                     0000  1500 ;
                                     0000  1600 ; The information in the software is subject to change without notice
                                     0000  1700 ; and should  not  be construed  as a commitment by Digital Equipment
                                     0000  1800 ; Corporation.
                                     0000  1900 ;
                                     0000  2000 ; DEC assumes  no  responsibility  for the use or  reliability of its
                                     0000  2100 ; software on equipment which is not supplied by DEC.
                                     0000  2200 ;
                                     0000  2300 ;
                                     0000  2400 ; FACILITY: MATH LIBRARY
                                     0000  2500 ;++
                                     0000  2600 ; ABSTRACT:
                                     0000  2700 ;	This module contains routine MTH$DINT:
                                     0000  2800 ;	Return truncated double-precision argument.
                                     0000  2900 ;
                                     0000  3000 ;
                                     0000  3100 ;--
                                     0000  3200 ;
                                     0000  3300 ; VERSION: 0
                                     0000  3400 ;
                                     0000  3500 ; HISTORY:
                                     0000  3600 ;
                                     0000  3700 ; AUTHOR:
                                     0000  3800 ;	Jonathan M. Taylor, 30-Jul-77: Version 0
                                     0000  3900 ;
                                     0000  4000 ; MODIFIED BY:
                                     0000  4100 ;
                                     0000  4200 ;
                                     0000  4300 ;
MTH$DINT        - FLOATING TRUNCATION                            21-AUG-1978 19:04:11   VAX-11 MACRO X0.3-11               Page   2
0-3             HISTORY  ; Detailed Current Edit History                                                                         (2)

                                     0000   100 	.SBTTL	HISTORY		; Detailed Current Edit History
                                     0000   200
                                     0000   300
                                     0000   400 ; Edit History for Version 0 of MTH$DINT
                                     0000   500 ;
                                     0000   600 ; 0-3	- Remove MTH$FLAG_JACKET.  TNH 5-July-78
MTH$DINT        - FLOATING TRUNCATION                            21-AUG-1978 19:04:11   VAX-11 MACRO X0.3-11               Page   3
0-3             DECLARATIONS                                                                                                     (3)

                                     0000   100 	.SBTTL	DECLARATIONS
                                     0000   200
                                     0000   300 ;
                                     0000   400 ; INCLUDE FILES:
                                     0000   500 ;	oerr.mar
                                     0000   600 ;
                                     0000   700
                                     0000   800 ;
                                     0000   900 ; EXTERNAL SYMBOLS:
                                     0000  1000 ;	NONE
                                     0000  1100 ;
                                     0000  1200
                                     0000  1300 ;
                                     0000  1400 ; MACROS:
                                     0000  1500 ;	NONE
                                     0000  1600 ;
                                     0000  1700
                                     0000  1800 ;
                                     0000  1900 ; PSECT DECLARATIONS:
                                 00000000  2000 	.PSECT	MTH$CODE	PIC, SHR, LONG, EXE, NOWRT
                                     0000  2100
                                     0000  2200 ;
                                     0000  2300 ; EQUATED SYMBOLS:
                                     0000  2400 ;	NONE
                                     0000  2500 ;
                                     0000  2600
                                     0000  2700 ;
                                     0000  2800 ; OWN STORAGE:
                                     0000  2900 ;	NONE
                                     0000  3000 ;
MTH$DINT        - FLOATING TRUNCATION                            21-AUG-1978 19:04:11   VAX-11 MACRO X0.3-11               Page   4
0-3             MTH$DINT Double to Double truncation                                                                             (4)

                                     0000   100 	.SBTTL	MTH$DINT	Double to Double truncation
                                     0000   200
                                     0000   300 ;++
                                     0000   400 ; FUNCTIONAL DESCRIPTION:
                                     0000   500 ;	Returns the argument with all zeroes to the right of the decimal
                                     0000   600 ;	point.
                                     0000   700 ;
                                     0000   800 ;
                                     0000   900 ; CALLING SEQUENCE:
                                     0000  1000 ;	Truncation.wd.v = MTH$DINT (arg.rd.r)
                                     0000  1100 ;
                                     0000  1200 ;
                                     0000  1300 ; INPUT PARAMETERS:
                                     0000  1400 ;	The one argument is a double-precision floating-point value
                                     0000  1500 ;	and is call-by-reference.
                                     0000  1600 ;
                                     0000  1700 ; IMPLICIT INPUTS:
                                     0000  1800 ;	NONE
                                     0000  1900 ;
                                     0000  2000 ; OUTPUT PARAMETERS:
                                     0000  2100 ;	NONE
                                     0000  2200 ;
                                     0000  2300 ; IMPLICIT OUTPUTS:
                                     0000  2400 ;	NONE
                                     0000  2500 ;
                                     0000  2600 ; COMPLETION CODES:
                                     0000  2700 ;	NONE
                                     0000  2800 ;
                                     0000  2900 ; SIDE EFFECTS:
                                     0000  3000 ;	Reserved Operand exception can occur.
                                     0000  3100 ;
                                     0000  3200 ;
                                     0000  3300 ;--
                                     0000  3400
                                     0000  3500
                               0000' 0000  3600 	.ENTRY	MTH$DINT,	^M<>
            00         04 BC     74  0002  3800 	EMODD	@4(AP), #0, #1, R0, R0	; R0/R1 = fraction_part(arg)
            50            08         0006
                          50         0008
         04 BC            50     63  0009  3900 	SUBD3	R0, @4(AP), R0		; R0/R1 = integer_part(arg)
                          50         000D
                                 04  000E  4000 	RET
                                     000F  4100
                                     000F  4200
                                     000F  4300 	.END
MTH$DINT        - FLOATING TRUNCATION                            21-AUG-1978 19:04:11   VAX-11 MACRO X0.3-11               Page   5
SYMBOL TABLE                                                                                                                     (4)

FOR$K_ERR_PREFX= 00000018
MTH$DINT         00000000 RG    02
MTH$K_ERR_PREFX= 00000016
MTH__FLOOVEMAT = 00000058
MTH__FLOUNDMAT = 00000059
MTH__INVARG    = 00000051
MTH__LOGZERNEG = 00000053
MTH__SINSIGLOS = 00000057
MTH__SQUROONEG = 00000054
MTH__UNDEXP    = 00000052
MTH__WRONUMARG = 00000050


PROGRAM SECTION SYNOPSIS

.  ABS  .        00000000      00     NOPIC   USR   CON   ABS   LCL NOSHR NOEXE NORD  NOWRT BYTE
. BLANK .        00000000      01     NOPIC   USR   CON   REL   LCL NOSHR   EXE   RD    WRT BYTE
MTH$CODE         0000000F      02       PIC   USR   CON   REL   LCL   SHR   EXE   RD  NOWRT LONG


THERE WERE NO ERRORS OR WARNINGS.
28066. BYTES LEFT IN FREE MEMORY POOL.
OBJ$:MTHDINT,LIS$:MTHDINT/-SP=LIB$:S/ML,SRC$:P,MTHDINT
0 MLB DIR RDS - 0 GETS TO DEFINE 0 MACROS. 1 INTER. FILE WRITES.
