MTH$DMIN1       DMIN1 function                                   21-AUG-1978 19:04:32   VAX-11 MACRO X0.3-11               Page   0
TABLE OF CONTENTS

   (2)     100  HISTORY		; Detailed Current Edit History
   (3)     100  DECLARATIONS
   (4)     100  MTH$DMIN1
MTH$DMIN1       DMIN1 function                                   21-AUG-1978 19:04:32   VAX-11 MACRO X0.3-11               Page   1
0-4                                                                                                                              (1)

                                     0000   100 	.TITLE	MTH$DMIN1	DMIN1 function
                                     0000   200 	.IDENT	/0-4/		; File: MTHDMIM1.MAR
                                     0000   300
                                     0000   400 ;
                                     0000   500 ; Copyright (C) 1977
                                     0000   600 ; Digital Equipment Corporation, Maynard, Massachusetts 01754
                                     0000   700 ;
                                     0000   800 ; This software is furnished under a license for use only on a single
                                     0000   900 ; computer  system  and  may be copied only with the inclusion of the
                                     0000  1000 ; above copyright notice. This software, or any other copies thereof,
                                     0000  1100 ; may not be provided or otherwise made available to any other person
                                     0000  1200 ; except for use on such system and to one who agree to these license
                                     0000  1300 ; terms.  Title to  and  ownership of the software shall at all times
                                     0000  1400 ; remain in DEC.
                                     0000  1500 ;
                                     0000  1600 ; The information in the software is subject to change without notice
                                     0000  1700 ; and should  not  be construed  as a commitment by Digital Equipment
                                     0000  1800 ; Corporation.
                                     0000  1900 ;
                                     0000  2000 ; DEC assumes  no  responsibility  for the use or  reliability of its
                                     0000  2100 ; software on equipment which is not supplied by DEC.
                                     0000  2200 ;
                                     0000  2300 ;
                                     0000  2400 ; FACILITY: MATH LIBRARY
                                     0000  2500 ;++
                                     0000  2600 ; ABSTRACT:
                                     0000  2700 ;	This module contains routine MTH$DMIN1:
                                     0000  2800 ;	Return the smaller of n double-precision floating-point
                                     0000  2900 ;	numbers.
                                     0000  3000 ;
                                     0000  3100 ;
                                     0000  3200 ;
                                     0000  3300 ;--
                                     0000  3400 ;
                                     0000  3500 ; VERSION: 0
                                     0000  3600 ;
                                     0000  3700 ; HISTORY:
                                     0000  3800 ;
                                     0000  3900 ; AUTHOR:
                                     0000  4000 ;	Jonathan M. Taylor, 14-JUL-77: Version 0
                                     0000  4100 ;
                                     0000  4200 ; MODIFIED BY:
                                     0000  4300 ;
                                     0000  4400 ;
                                     0000  4500 ;
MTH$DMIN1       DMIN1 function                                   21-AUG-1978 19:04:32   VAX-11 MACRO X0.3-11               Page   2
0-4             HISTORY  ; Detailed Current Edit History                                                                         (2)

                                     0000   100 	.SBTTL	HISTORY		; Detailed Current Edit History
                                     0000   200
                                     0000   300
                                     0000   400 ; Edit History for Version 0 of MTH$DMIN1
                                     0000   500 ;
                                     0000   600 ; 0-4	- Remove MTH$FLAG_JACKET.  TNH 26-July-78
MTH$DMIN1       DMIN1 function                                   21-AUG-1978 19:04:32   VAX-11 MACRO X0.3-11               Page   3
0-4             DECLARATIONS                                                                                                     (3)

                                     0000   100 	.SBTTL	DECLARATIONS
                                     0000   200
                                     0000   300 ;
                                     0000   400 ; INCLUDE FILES:
                                     0000   500 ;	oerr.mar
                                     0000   600 ;
                                     0000   700
                                     0000   800 ;
                                     0000   900 ; EXTERNAL SYMBOLS:
                                     0000  1000 ;	NONE
                                     0000  1100 ;
                                     0000  1200
                                     0000  1300 ;
                                     0000  1400 ; MACROS:
                                     0000  1500 ;	NONE
                                     0000  1600 ;
                                     0000  1700
                                     0000  1800 ;
                                     0000  1900 ; PSECT DECLARATIONS:
                                 00000000  2000 	.PSECT	MTH$CODE	PIC, SHR, LONG, EXE, NOWRT
                                     0000  2100
                                     0000  2200 ;
                                     0000  2300 ; EQUATED SYMBOLS:
                                     0000  2400 ;	NONE
                                     0000  2500 ;
                                     0000  2600
                                     0000  2700 ;
                                     0000  2800 ; OWN STORAGE:
                                     0000  2900 ;	NONE
                                     0000  3000 ;
MTH$DMIN1       DMIN1 function                                   21-AUG-1978 19:04:32   VAX-11 MACRO X0.3-11               Page   4
0-4             MTH$DMIN1                                                                                                        (4)

                                     0000   100 	.SBTTL	MTH$DMIN1
                                     0000   200
                                     0000   300 ;++
                                     0000   400 ; FUNCTIONAL DESCRIPTION:
                                     0000   500 ;	Return the minimum of n arguments, n is greater than or equal
                                     0000   600 ;	to 1.
                                     0000   700 ;
                                     0000   800 ;
                                     0000   900 ; CALLING SEQUENCE:
                                     0000  1000 ;	Minimum.wd.v = MTH$DMIN1 ({arg.rd.r})
                                     0000  1100 ;
                                     0000  1200 ;
                                     0000  1300 ;
                                     0000  1400 ; INPUT PARAMETERS:
                                     0000  1500 ;	The n parameters are double-precision floating point values
                                     0000  1600 ;	and are call-by-reference.
                                     0000  1700 ;
                                     0000  1800 ;
                                     0000  1900 ; IMPLICIT INPUTS:
                                     0000  2000 ;	NONE
                                     0000  2100 ;
                                     0000  2200 ; OUTPUT PARAMETERS:
                                     0000  2300 ;	NONE
                                     0000  2400 ;
                                     0000  2500 ; IMPLICIT OUTPUTS:
                                     0000  2600 ;	NONE
                                     0000  2700 ;
                                     0000  2800 ; COMPLETION CODES:
                                     0000  2900 ;	NONE
                                     0000  3000 ;
                                     0000  3100 ; SIDE EFFECTS:
                                     0000  3200 ;	Reserved Operand exception can occur.
                                     0000  3300 ;
                                     0000  3400 ;
                                     0000  3500 ;--
                                     0000  3600
                               0004' 0000  3700 	.ENTRY	MTH$DMIN1,	^M<R2>
            52            6C     9A  0002  3900 	MOVZBL	(AP), R2	; R2 = arg count
                          8C     D5  0005  4000 	TSTL	(AP)+		; AP -> first arg
            50            9C     70  0007  4100 1$:	MOVD	@(AP)+, R0	; R0/R1 = trial min
                          08     11  000A  4200 	BRB	3$		; check arg count
            50         00 BC     71  000C  4300 2$:	CMPD	@0(AP), R0	; if this arg is less than trial min
                          F5     19  0010  4400 	BLSS	1$		; then it becomes new trial min
                          8C     D5  0012  4500 	TSTL	(AP)+		; else ignore it
            F5            52     F5  0014  4600 3$:	SOBGTR	R2, 2$		; return if arg count exausted
                                 04  0017  4700 	RET			; with min in R0/R1
                                     0018  4800
                                     0018  4900
                                     0018  5000 	.END
MTH$DMIN1       DMIN1 function                                   21-AUG-1978 19:04:32   VAX-11 MACRO X0.3-11               Page   5
SYMBOL TABLE                                                                                                                     (4)

FOR$K_ERR_PREFX= 00000018
MTH$DMIN1        00000000 RG    02
MTH$K_ERR_PREFX= 00000016
MTH__FLOOVEMAT = 00000058
MTH__FLOUNDMAT = 00000059
MTH__INVARG    = 00000051
MTH__LOGZERNEG = 00000053
MTH__SINSIGLOS = 00000057
MTH__SQUROONEG = 00000054
MTH__UNDEXP    = 00000052
MTH__WRONUMARG = 00000050


PROGRAM SECTION SYNOPSIS

.  ABS  .        00000000      00     NOPIC   USR   CON   ABS   LCL NOSHR NOEXE NORD  NOWRT BYTE
. BLANK .        00000000      01     NOPIC   USR   CON   REL   LCL NOSHR   EXE   RD    WRT BYTE
MTH$CODE         00000018      02       PIC   USR   CON   REL   LCL   SHR   EXE   RD  NOWRT LONG


THERE WERE NO ERRORS OR WARNINGS.
28020. BYTES LEFT IN FREE MEMORY POOL.
OBJ$:MTHDMIN1,LIS$:MTHDMIN1/-SP=LIB$:S/ML,SRC$:P,MTHDMIN1
0 MLB DIR RDS - 0 GETS TO DEFINE 0 MACROS. 2 INTER. FILE WRITES.
