MTH$IMIN0       IMIN0 and AIMIN0 functions                       21-AUG-1978 19:06:26   VAX-11 MACRO X0.3-11               Page   0
TABLE OF CONTENTS

   (2)     100  HISTORY		; Detailed Current Edit History
   (3)     100  DECLARATIONS
   (4)     100  MTH$IMIN0, MTH$AIMIN0
MTH$IMIN0       IMIN0 and AIMIN0 functions                       21-AUG-1978 19:06:26   VAX-11 MACRO X0.3-11               Page   1
0-2                                                                                                                              (1)

                                     0000   100 	.TITLE	MTH$IMIN0	IMIN0 and AIMIN0 functions
                                     0000   200 	.IDENT	/0-2/		; File: MTHIMIN0.MAR
                                     0000   300
                                     0000   400 ;
                                     0000   500 ; Copyright (C) 1977
                                     0000   600 ; Digital Equipment Corporation, Maynard, Massachusetts 01754
                                     0000   700 ;
                                     0000   800 ; This software is furnished under a license for use only on a single
                                     0000   900 ; computer  system  and  may be copied only with the inclusion of the
                                     0000  1000 ; above copyright notice. This software, or any other copies thereof,
                                     0000  1100 ; may not be provided or otherwise made available to any other person
                                     0000  1200 ; except for use on such system and to one who agree to these license
                                     0000  1300 ; terms.  Title to  and  ownership of the software shall at all times
                                     0000  1400 ; remain in DEC.
                                     0000  1500 ;
                                     0000  1600 ; The information in the software is subject to change without notice
                                     0000  1700 ; and should  not  be construed  as a commitment by Digital Equipment
                                     0000  1800 ; Corporation.
                                     0000  1900 ;
                                     0000  2000 ; DEC assumes  no  responsibility  for the use or  reliability of its
                                     0000  2100 ; software on equipment which is not supplied by DEC.
                                     0000  2200 ;
                                     0000  2300 ;
                                     0000  2400 ; FACILITY: MATH LIBRARY
                                     0000  2500 ;++
                                     0000  2600 ; ABSTRACT:
                                     0000  2700 ;
                                     0000  2800 ;
                                     0000  2900 ;--
                                     0000  3000 ;
                                     0000  3100 ; VERSION: 0
                                     0000  3200 ;
                                     0000  3300 ; HISTORY:
                                     0000  3400 ;
                                     0000  3500 ; AUTHOR:
                                     0000  3600 ;	Jonathan M. Taylor, 12-JUL-77: Version 0
                                     0000  3700 ;
                                     0000  3800 ; MODIFIED BY:
                                     0000  3900 ;
                                     0000  4000 ;
                                     0000  4100 ;
MTH$IMIN0       IMIN0 and AIMIN0 functions                       21-AUG-1978 19:06:26   VAX-11 MACRO X0.3-11               Page   2
0-2             HISTORY  ; Detailed Current Edit History                                                                         (2)

                                     0000   100 	.SBTTL	HISTORY		; Detailed Current Edit History
                                     0000   200
                                     0000   300
                                     0000   400 ; Edit History for Version 0 of MTHIMIN0
                                     0000   500 ;
                                     0000   600 ; 0-2	- Fix access viol. and increment by 2 bug.  TNH 21-Aug-78
MTH$IMIN0       IMIN0 and AIMIN0 functions                       21-AUG-1978 19:06:26   VAX-11 MACRO X0.3-11               Page   3
0-2             DECLARATIONS                                                                                                     (3)

                                     0000   100 	.SBTTL	DECLARATIONS
                                     0000   200
                                     0000   300 ;
                                     0000   400 ; INCLUDE FILES:
                                     0000   500 ;
                                     0000   600
                                     0000   700 ;
                                     0000   800 ; EXTERNAL SYMBOLS:
                                     0000   900 ;
                                     0000  1000
                                     0000  1100 ;
                                     0000  1200 ; MACROS:
                                     0000  1300 ;
                                     0000  1400
                                     0000  1500 ;
                                     0000  1600 ; PSECT DECLARATIONS:
                                 00000000  1700 	.PSECT	MTH$CODE	PIC, SHR, LONG, EXE, NOWRT
                                     0000  1800
                                     0000  1900 ;
                                     0000  2000 ; EQUATED SYMBOLS:
                                     0000  2100 ;
                                     0000  2200
                                     0000  2300 ;
                                     0000  2400 ; OWN STORAGE:
                                     0000  2500 ;
MTH$IMIN0       IMIN0 and AIMIN0 functions                       21-AUG-1978 19:06:26   VAX-11 MACRO X0.3-11               Page   4
0-2             MTH$IMIN0, MTH$AIMIN0                                                                                            (4)

                                     0000   100 	.SBTTL	MTH$IMIN0, MTH$AIMIN0
                                     0000   200
                                     0000   300 ;++
                                     0000   400 ; FUNCTIONAL DESCRIPTION:
                                     0000   500 ;
                                     0000   600 ;
                                     0000   700 ; CALLING SEQUENCE:
                                     0000   800 ;	NONE
                                     0000   900 ;
                                     0000  1000 ;
                                     0000  1100 ; INPUT PARAMETERS:
                                     0000  1200 ;	NONE
                                     0000  1300 ;
                                     0000  1400 ; IMPLICIT INPUTS:
                                     0000  1500 ;	NONE
                                     0000  1600 ;
                                     0000  1700 ; OUTPUT PARAMETERS:
                                     0000  1800 ;	NONE
                                     0000  1900 ;
                                     0000  2000 ; IMPLICIT OUTPUTS:
                                     0000  2100 ;	NONE
                                     0000  2200 ;
                                     0000  2300 ; COMPLETION CODES:
                                     0000  2400 ;	NONE
                                     0000  2500 ;
                                     0000  2600 ; SIDE EFFECTS:
                                     0000  2700 ;	NONE
                                     0000  2800 ;
                                     0000  2900 ;--
                                     0000  3000
                                     0000  3100
                                     0000  3200
                                     0000  3300
                               0000' 0000  3400 	.ENTRY	MTH$IMIN0,	^M<>
                          09     10  0002  3500 	BSB	MINW		; R0 = min arg
                                 04  0004  3600 	RET
                                     0005  3700
                               0000' 0005  3800 	.ENTRY	MTH$AIMIN0,	^M<>
                          04     10  0007  3900 	BSB	MINW		; R0 = min arg
            50            50     4D  0009  4000 	CVTWF	R0, R0		; REAL*4 min arg
                                 04  000C  4100 	RET
                                     000D  4200
                                     000D  4300 MINW:
            51            6C     9A  000D  4400 	MOVZBL	(AP), R1		; R1 = number of args
                          8C     D5  0010  4500 	TSTL	(AP)+			; AP -> first arg adr
            50            9C     B0  0012  4600 1$:	MOVW	@(AP)+, R0		; get trial min
                          08     11  0015  4700 	BRB	3$			; check arg count
            50         00 BC     B1  0017  4800 2$:	CMPW	@0(AP),R0		; if this arg is less then trial min
                          F5     19  001B  4900 	BLSS	1$			; then it becomes trial min
                          8C     D5  001D  5000 	TSTL	(AP)+			; else ignore it
            F5            51     F5  001F  5100 3$:	SOBGTR	R1, 2$			; check arg count
                                 05  0022  5200 	RSB
                                     0023  5300
                                     0023  5400
                                     0023  5500 	.END
MTH$IMIN0       IMIN0 and AIMIN0 functions                       21-AUG-1978 19:06:26   VAX-11 MACRO X0.3-11               Page   5
SYMBOL TABLE                                                                                                                     (4)

FOR$K_ERR_PREFX= 00000018
MINW             0000000D R     02
MTH$AIMIN0       00000005 RG    02
MTH$IMIN0        00000000 RG    02
MTH$K_ERR_PREFX= 00000016
MTH__FLOOVEMAT = 00000058
MTH__FLOUNDMAT = 00000059
MTH__INVARG    = 00000051
MTH__LOGZERNEG = 00000053
MTH__SINSIGLOS = 00000057
MTH__SQUROONEG = 00000054
MTH__UNDEXP    = 00000052
MTH__WRONUMARG = 00000050


PROGRAM SECTION SYNOPSIS

.  ABS  .        00000000      00     NOPIC   USR   CON   ABS   LCL NOSHR NOEXE NORD  NOWRT BYTE
. BLANK .        00000000      01     NOPIC   USR   CON   REL   LCL NOSHR   EXE   RD    WRT BYTE
MTH$CODE         00000023      02       PIC   USR   CON   REL   LCL   SHR   EXE   RD  NOWRT LONG


THERE WERE NO ERRORS OR WARNINGS.
27986. BYTES LEFT IN FREE MEMORY POOL.
OBJ$:MTHIMIN0,LIS$:MTHIMIN0/-SP=LIB$:S/ML,SRC$:P,MTHIMIN0
0 MLB DIR RDS - 0 GETS TO DEFINE 0 MACROS. 2 INTER. FILE WRITES.
