MTH$MSGDEF      ; Math library error codes/messages as globals   21-AUG-1978 19:07:46   VAX-11 MACRO X0.3-11               Page   0
TABLE OF CONTENTS

   (2)     100  HISTORY		; Detailed Current Edit History
   (3)     100  DECLARATIONS
MTH$MSGDEF      ; Math library error codes/messages as globals   21-AUG-1978 19:07:46   VAX-11 MACRO X0.3-11               Page   1
1-2                                                                                                                              (1)

                                     0000   100 	.TITLE	MTH$MSGDEF		; Math library error codes/messages as globals
                                     0000   200 	.IDENT	/1-2/			; File: MTHMSGDEF.MAR
                                     0000   300
                                     0000   400 ;
                                     0000   500 ; Copyright (C) 1977
                                     0000   600 ; Digital Equipment Corporation, Maynard, Massachusetts 01754
                                     0000   700 ;
                                     0000   800 ; This software is furnished under a license for use only on a single
                                     0000   900 ; computer  system  and  may be copied only with the inclusion of the
                                     0000  1000 ; above copyright notice. This software, or any other copies thereof,
                                     0000  1100 ; may not be provided or otherwise made available to any other person
                                     0000  1200 ; except for use on such system and to one who agree to these license
                                     0000  1300 ; terms.  Title to  and  ownership of the software shall at all times
                                     0000  1400 ; remain in DEC.
                                     0000  1500 ;
                                     0000  1600 ; The information in the software is subject to change without notice
                                     0000  1700 ; and should  not  be construed  as a commitment by Digital Equipment
                                     0000  1800 ; Corporation.
                                     0000  1900 ;
                                     0000  2000 ; DEC assumes  no  responsibility  for the use or  reliability of its
                                     0000  2100 ; software on equipment which is not supplied by DEC.
                                     0000  2200 ;
                                     0000  2300 ;
                                     0000  2400 ; FACILITY: MATH LIBRARY
                                     0000  2500 ;++
                                     0000  2600 ; ABSTRACT:
                                     0000  2700 ;
                                     0000  2800 ;	Define all completion codes used by Math library.
                                     0000  2900 ;
                                     0000  3000 ;--
                                     0000  3100 ;
                                     0000  3200 ; VERSION: 0
                                     0000  3300 ;
                                     0000  3400 ; HISTORY:
                                     0000  3500 ;
                                     0000  3600 ; AUTHOR:
                                     0000  3700 ;	Thomas N. Hastings, 8-Sep-77: Version 0
                                     0000  3800 ;
                                     0000  3900 ; MODIFIED BY:
                                     0000  4000 ;
                                     0000  4100 ;
                                     0000  4200 ;
MTH$MSGDEF      ; Math library error codes/messages as globals   21-AUG-1978 19:07:46   VAX-11 MACRO X0.3-11               Page   2
1-2             HISTORY  ; Detailed Current Edit History                                                                         (2)

                                     0000   100 	.SBTTL	HISTORY		; Detailed Current Edit History
                                     0000   200
                                     0000   300
                                     0000   400 ; Edit History for Version 0
                                     0000   500 ;
                                     0000   600
                                     0000   700 ; Edit History for Verison 1
                                     0000   800 ;
                                     0000   900 ; 1-1	Made MTHMSGDEF from RTLMSGDEF.  JMT 10-Jan-78
                                     0000  1000 ; 1-2	- Call $MTHDEF, not $MTHMSG.  TNH 26-Jan-78
MTH$MSGDEF      ; Math library error codes/messages as globals   21-AUG-1978 19:07:46   VAX-11 MACRO X0.3-11               Page   3
1-2             DECLARATIONS                                                                                                     (3)

                                     0000   100 	.SBTTL	DECLARATIONS
                                     0000   200
                                     0000   300 ;
                                     0000   400 ; INCLUDE FILES:
                                     0000   500 ;
                                     0000   600 ;	File RTLMSG.MAR is MDL output which has all Run-time library symbols defined
                                     0000   700 ;	For simplicity, it is copied into library file S.MLB along with others
                                     0000   800 	$MTHDEF GLOBAL	; MTH$ codes
                                     0000   900
                                     0000  1000 ;
                                     0000  1100 ; EXTERNAL SYMBOLS:
                                     0000  1200 ;
                                     0000  1300
                                     0000  1400 ;
                                     0000  1500 ; MACROS:
                                     0000  1600 ;
                                     0000  1700
                                     0000  1800 ;
                                     0000  1900 ; PSECT DECLARATIONS:
                                     0000  2000 ;
                                     0000  2100 ;
                                     0000  2200 ; EQUATED SYMBOLS:
                                     0000  2300 ;
                                     0000  2400
                                     0000  2500 ;
                                     0000  2600 ; OWN STORAGE:
                                     0000  2700 ;
                                     0000  2800
                                     0000  2900
                                     0000  3000 	.END				; End of module
MTH$MSGDEF      ; Math library error codes/messages as globals   21-AUG-1978 19:07:46   VAX-11 MACRO X0.3-11               Page   4
SYMBOL TABLE                                                                                                                     (3)

BIT...         = 001682D4
FOR$K_ERR_PREFX= 00000018
GBL...         = 00000001
MTH$K_ERR_PREFX= 00000016
MTH$_FLOOVEMAT = 001682C4  G
MTH$_FLOUNDMAT = 001682CC  G
MTH$_INVARGMAT = 0016828C  G
MTH$_LOGZERNEG = 0016829C  G
MTH$_SINCOSSIG = 001682BC  G
MTH$_SQUROONEG = 001682A4  G
MTH$_UNDEXP    = 00168294  G
MTH$_WRONUMARG = 00168284  G
MTH__FLOOVEMAT = 00000058
MTH__FLOUNDMAT = 00000059
MTH__INVARG    = 00000051
MTH__LOGZERNEG = 00000053
MTH__SINSIGLOS = 00000057
MTH__SQUROONEG = 00000054
MTH__UNDEXP    = 00000052
MTH__WRONUMARG = 00000050


PROGRAM SECTION SYNOPSIS

.  ABS  .        00000000      00     NOPIC   USR   CON   ABS   LCL NOSHR NOEXE NORD  NOWRT BYTE
. BLANK .        00000000      01     NOPIC   USR   CON   REL   LCL NOSHR   EXE   RD    WRT BYTE
$ABS$            00000000      02     NOPIC   USR   CON   ABS   LCL NOSHR   EXE   RD    WRT BYTE


THERE WERE NO ERRORS OR WARNINGS.
26618. BYTES LEFT IN FREE MEMORY POOL.
316. BYTES OF RECLAIMED MEMORY.
OBJ$:MTHMSGDEF,LIS$:MTHMSGDEF/-SP=LIB$:S/ML,SRC$:P,MTHMSGDEF
2 MLB DIR RDS - 64 GETS TO DEFINE 7 MACROS. 2 INTER. FILE WRITES.
