MTH$MAX1        IMAX1 JMAX1, and AMAX1 functions                 21-AUG-1978 19:07:26   VAX-11 MACRO X0.3-11               Page   0
TABLE OF CONTENTS

   (2)     100  HISTORY		; Detailed Current Edit History
   (3)     100  DECLARATIONS
   (4)     100  MTH$IMAX1, MTH$JMAX1, MTH$AMAX1
MTH$MAX1        IMAX1 JMAX1, and AMAX1 functions                 21-AUG-1978 19:07:26   VAX-11 MACRO X0.3-11               Page   1
0-5                                                                                                                              (1)

                                     0000   100 	.TITLE	MTH$MAX1	IMAX1 JMAX1, and AMAX1 functions
                                     0000   200 	.IDENT	/0-5/		; File: MTHMAX1
                                     0000   300
                                     0000   400 ;
                                     0000   500 ; Copyright (C) 1977
                                     0000   600 ; Digital Equipment Corporation, Maynard, Massachusetts 01754
                                     0000   700 ;
                                     0000   800 ; This software is furnished under a license for use only on a single
                                     0000   900 ; computer  system  and  may be copied only with the inclusion of the
                                     0000  1000 ; above copyright notice. This software, or any other copies thereof,
                                     0000  1100 ; may not be provided or otherwise made available to any other person
                                     0000  1200 ; except for use on such system and to one who agree to these license
                                     0000  1300 ; terms.  Title to  and  ownership of the software shall at all times
                                     0000  1400 ; remain in DEC.
                                     0000  1500 ;
                                     0000  1600 ; The information in the software is subject to change without notice
                                     0000  1700 ; and should  not  be construed  as a commitment by Digital Equipment
                                     0000  1800 ; Corporation.
                                     0000  1900 ;
                                     0000  2000 ; DEC assumes  no  responsibility  for the use or  reliability of its
                                     0000  2100 ; software on equipment which is not supplied by DEC.
                                     0000  2200 ;
                                     0000  2300 ;
                                     0000  2400 ; FACILITY: MATH LIBRARY
                                     0000  2500 ;++
                                     0000  2600 ; ABSTRACT:
                                     0000  2700 ;	This module contains maximum value functions which take
                                     0000  2800 ;	floating-point values as arguments.
                                     0000  2900 ;
                                     0000  3000 ;
                                     0000  3100 ;--
                                     0000  3200 ;
                                     0000  3300 ; VERSION: 0
                                     0000  3400 ;
                                     0000  3500 ; HISTORY:
                                     0000  3600 ;
                                     0000  3700 ; AUTHOR:
                                     0000  3800 ;	Jonathan M. Taylor, 12-JUL-77: Version 0
                                     0000  3900 ;
                                     0000  4000 ; MODIFIED BY:
                                     0000  4100 ;
                                     0000  4200 ;
                                     0000  4300 ;
MTH$MAX1        IMAX1 JMAX1, and AMAX1 functions                 21-AUG-1978 19:07:26   VAX-11 MACRO X0.3-11               Page   2
0-5             HISTORY  ; Detailed Current Edit History                                                                         (2)

                                     0000   100 	.SBTTL	HISTORY		; Detailed Current Edit History
                                     0000   200
                                     0000   300
                                     0000   400 ; Edit History for Version 0 of MTHMAX1
                                     0000   500 ;
                                     0000   600 ; 0-4	- Remove MTH$FLAG_JACKET.  TNH 26-July-78
                                     0000   700 ; 0-5	- Fix access violation.  TNH 16-Aug-78
MTH$MAX1        IMAX1 JMAX1, and AMAX1 functions                 21-AUG-1978 19:07:26   VAX-11 MACRO X0.3-11               Page   3
0-5             DECLARATIONS                                                                                                     (3)

                                     0000   100 	.SBTTL	DECLARATIONS
                                     0000   200
                                     0000   300 ;
                                     0000   400 ; INCLUDE FILES:
                                     0000   500 ;	oerr.mar
                                     0000   600 ;
                                     0000   700
                                     0000   800 ;
                                     0000   900 ; EXTERNAL SYMBOLS:
                                     0000  1000 ;	NONE
                                     0000  1100 ;
                                     0000  1200
                                     0000  1300 ;
                                     0000  1400 ; MACROS:
                                     0000  1500 ;	NONE
                                     0000  1600 ;
                                     0000  1700
                                     0000  1800 ;
                                     0000  1900 ; PSECT DECLARATIONS:
                                 00000000  2000 	.PSECT	MTH$CODE	PIC, SHR, LONG, EXE, NOWRT
                                     0000  2100
                                     0000  2200 ;
                                     0000  2300 ; EQUATED SYMBOLS:
                                     0000  2400 ;	NONE
                                     0000  2500 ;
                                     0000  2600
                                     0000  2700 ;
                                     0000  2800 ; OWN STORAGE:
                                     0000  2900 ;	NONE
                                     0000  3000 ;
MTH$MAX1        IMAX1 JMAX1, and AMAX1 functions                 21-AUG-1978 19:07:26   VAX-11 MACRO X0.3-11               Page   4
0-5             MTH$IMAX1, MTH$JMAX1, MTH$AMAX1                                                                                  (4)

                                     0000   100 	.SBTTL	MTH$IMAX1, MTH$JMAX1, MTH$AMAX1
                                     0000   200
                                     0000   300 ;++
                                     0000   400 ; FUNCTIONAL DESCRIPTION:
                                     0000   500 ;	Call routine MAXF to compute the maximum of n arguments, n is
                                     0000   600 ;	greater than or equal to 1.
                                     0000   700 ;	Return result converted to the proper type.
                                     0000   800
                                     0000   900 ;
                                     0000  1000 ;
                                     0000  1100 ; CALLING SEQUENCE:
                                     0000  1200 ;	Maximum.ww.v =MTH$IMAX1 ({arg.rf.r})
                                     0000  1300 ;	Maximum.wl.v =MTH$JMAX1 ({arg.rf.r})
                                     0000  1400 ;	Maximum.wf.v =MTH$AMAX1 ({arg.rf.r})
                                     0000  1500 ;
                                     0000  1600 ;
                                     0000  1700 ;
                                     0000  1800 ; INPUT PARAMETERS:
                                     0000  1900 ;	The n parameters are single-precision floating-point values
                                     0000  2000 ;	and are call-by-reference.
                                     0000  2100 ;
                                     0000  2200 ;
                                     0000  2300 ; IMPLICIT INPUTS:
                                     0000  2400 ;	NONE
                                     0000  2500 ;
                                     0000  2600 ; OUTPUT PARAMETERS:
                                     0000  2700 ;	NONE
                                     0000  2800 ;
                                     0000  2900 ; IMPLICIT OUTPUTS:
                                     0000  3000 ;	NONE
                                     0000  3100 ;
                                     0000  3200 ; COMPLETION CODES:
                                     0000  3300 ;	NONE
                                     0000  3400 ;
                                     0000  3500 ; SIDE EFFECTS:
                                     0000  3600 ;	Reserved Operand and Integer Overflow exceptions can occur.
                                     0000  3700 ;
                                     0000  3800 ;
                                     0000  3900 ;--
                                     0000  4000
                                     0000  4100
                                     0000  4200
                                     0000  4300
                               4000' 0000  4400 	.ENTRY	MTH$IMAX1,	^M<IV>
                          11     10  0002  4500 	BSB	MAXF		; R0 = max arg
            50            50     49  0004  4600 	CVTFW	R0, R0		; INTEGER*2 it
                                 04  0007  4700 	RET
                                     0008  4800
                               4000' 0008  4900 	.ENTRY	MTH$JMAX1,	^M<IV>
                          09     10  000A  5000 	BSB	MAXF		; R0 = max arg
            50            50     4A  000C  5100 	CVTFL	R0, R0		; INTEGER*4 it
                                 04  000F  5200 	RET
                                     0010  5300
                               0000' 0010  5400 	.ENTRY	MTH$AMAX1,	^M<>
                          01     10  0012  5500 	BSB	MAXF		; R0 = max arg
                                 04  0014  5600 	RET
                                     0015  5700
MTH$MAX1        IMAX1 JMAX1, and AMAX1 functions                 21-AUG-1978 19:07:26   VAX-11 MACRO X0.3-11               Page   5
0-5             MTH$IMAX1, MTH$JMAX1, MTH$AMAX1                                                                                  (4)

                                     0015  5800 ;+
                                     0015  5900 ; MAXF returns the largest of the REAL*4 args.
                                     0015  6000 ;-
                                     0015  6100
                                     0015  6200 MAXF:
            51            6C     9A  0015  6400 	MOVZBL	(AP), R1		; R1 = number of args
                          8C     D5  0018  6500 	TSTL	(AP)+			; Ap -> first arg adr
            50            9C     50  001A  6600 1$:	MOVF	@(AP)+, R0		; get trial max
                          08     11  001D  6700 	BRB	3$			; check arg count
            50         00 BC     51  001F  6800 2$:	CMPF	@0(AP),R0		; if this arg is greater then trial max
                          F5     14  0023  6900 	BGTR	1$			; then it becomes trial max
                          8C     D5  0025  7000 	TSTL	(AP)+			; else ignore it
            F5            51     F5  0027  7100 3$:	SOBGTR	R1, 2$			; check arg count
                                 05  002A  7200 	RSB
                                     002B  7300
                                     002B  7400
                                     002B  7500 	.END
MTH$MAX1        IMAX1 JMAX1, and AMAX1 functions                 21-AUG-1978 19:07:26   VAX-11 MACRO X0.3-11               Page   6
SYMBOL TABLE                                                                                                                     (4)

FOR$K_ERR_PREFX= 00000018
MAXF             00000015 R     02
MTH$AMAX1        00000010 RG    02
MTH$IMAX1        00000000 RG    02
MTH$JMAX1        00000008 RG    02
MTH$K_ERR_PREFX= 00000016
MTH__FLOOVEMAT = 00000058
MTH__FLOUNDMAT = 00000059
MTH__INVARG    = 00000051
MTH__LOGZERNEG = 00000053
MTH__SINSIGLOS = 00000057
MTH__SQUROONEG = 00000054
MTH__UNDEXP    = 00000052
MTH__WRONUMARG = 00000050


PROGRAM SECTION SYNOPSIS

.  ABS  .        00000000      00     NOPIC   USR   CON   ABS   LCL NOSHR NOEXE NORD  NOWRT BYTE
. BLANK .        00000000      01     NOPIC   USR   CON   REL   LCL NOSHR   EXE   RD    WRT BYTE
MTH$CODE         0000002B      02       PIC   USR   CON   REL   LCL   SHR   EXE   RD  NOWRT LONG


THERE WERE NO ERRORS OR WARNINGS.
27968. BYTES LEFT IN FREE MEMORY POOL.
OBJ$:MTHMAX1,LIS$:MTHMAX1/-SP=LIB$:S/ML,SRC$:P,MTHMAX1
0 MLB DIR RDS - 0 GETS TO DEFINE 0 MACROS. 2 INTER. FILE WRITES.
