MTH$RANDOM      - General Purpose Random Number Generator        21-AUG-1978 19:07:53   VAX-11 MACRO X0.3-11               Page   0
TABLE OF CONTENTS

   (2)      94  DECLARATIONS
   (3)     121  MTH$RANDOM - CALLable function
MTH$RANDOM      - General Purpose Random Number Generator        21-AUG-1978 19:07:53   VAX-11 MACRO X0.3-11               Page   1
1-4                                                                                                                              (1)

                                     0000     1 	.TITLE	MTH$RANDOM - General Purpose Random Number Generator
                                     0000     2 	.IDENT	/1-4/		; File: MTHRANDOM.MAR
                                     0000     3
                                     0000     4 ;
                                     0000     5 ;			  COPYRIGHT (c) 1978 BY
                                     0000     6 ;	      DIGITAL EQUIPMENT CORPORATION, MAYNARD, MASS.
                                     0000     7 ;
                                     0000     8 ; THIS SOFTWARE IS FURNISHED UNDER A LICENSE AND MAY BE USED AND  COPIED
                                     0000     9 ; ONLY  IN  ACCORDANCE  WITH  THE  TERMS  OF  SUCH  LICENSE AND WITH THE
                                     0000    10 ; INCLUSION OF THE ABOVE COPYRIGHT NOTICE.  THIS SOFTWARE OR  ANY  OTHER
                                     0000    11 ; COPIES  THEREOF MAY NOT BE PROVIDED OR OTHERWISE MADE AVAILABLE TO ANY
                                     0000    12 ; OTHER PERSON.  NO TITLE TO AND OWNERSHIP OF  THE  SOFTWARE  IS  HEREBY
                                     0000    13 ; TRANSFERRED.
                                     0000    14 ;
                                     0000    15 ; THE INFORMATION IN THIS SOFTWARE IS SUBJECT TO CHANGE  WITHOUT  NOTICE
                                     0000    16 ; AND  SHOULD  NOT  BE  CONSTRUED  AS  A COMMITMENT BY DIGITAL EQUIPMENT
                                     0000    17 ; CORPORATION.
                                     0000    18 ;
                                     0000    19 ; DIGITAL ASSUMES NO RESPONSIBILITY FOR THE USE OR  RELIABILITY  OF  ITS
                                     0000    20 ; SOFTWARE ON EQUIPMENT WHICH IS NOT SUPPLIED BY DIGITAL.
                                     0000    21 ;
                                     0000    22
                                     0000    23 ;++
                                     0000    24 ; FACILITY: Mathematics Library
                                     0000    25 ;
                                     0000    26 ; ABSTRACT:
                                     0000    27 ;
                                     0000    28 ;	This is a general random number generator. It is
                                     0000    29 ;	of the multiplicative congruential type, and hence
                                     0000    30 ;	is fast, although prone to certain classes of
                                     0000    31 ;	non-random sequences.
                                     0000    32 ;
                                     0000    33 ; ENVIRONMENT:	any access mode, normally user mode
                                     0000    34 ;		modular, AST reentrant procedure
                                     0000    35 ;--
                                     0000    36 ;+
                                     0000    37 ; AUTHOR: Peter F. Conklin, CREATION DATE: 28-Dec-77
                                     0000    38 ;
                                     0000    39 ; MODIFIED BY:
                                     0000    40 ;
                                     0000    41 ;	Peter F. Conklin, 1-Feb-78: VERSION 01
                                     0000    42 ; 01	- Original creation.
                                     0000    43 ; 02	- Change to LIB$ rather than MTH$.
                                     0000    44 ; 03	- Change back to MTH$.  Some more comments.  JMT 4-Jan-78
                                     0000    45 ; 04	- Correct documentation on usage.
                                     0000    46 ;-
MTH$RANDOM      - General Purpose Random Number Generator        21-AUG-1978 19:07:53   VAX-11 MACRO X0.3-11               Page   2
1-4             DECLARATIONS                                                                                                     (2)

                                     0000    48 	.SBTTL	DECLARATIONS
                                     0000    49
                                     0000    50 ;
                                     0000    51 ; INCLUDE FILES:
                                     0000    52 ;
                                     0000    53 ;	NONE
                                     0000    54 ;
                                     0000    55 ; MACROS:
                                     0000    56 ;
                                     0000    57 ;	NONE
                                     0000    58 ;
                                     0000    59 ; EQUATED SYMBOLS:
                                     0000    60 ;
                                     0000    61
                           00000004  0000    62 	SEED=4					; Only argument is the seed
                                     0000    63
                                     0000    64 ;
                                     0000    65 ; OWN STORAGE:
                                     0000    66 ;
                                     0000    67 ;	NONE
                                     0000    68 ;
                                     0000    69
                                     0000    70 ;
                                     0000    71 ; PSECT DECLARATIONS:
                                     0000    72 ;
                                 00000000    73 	.PSECT	MTH$CODE,PIC,SHR,NOWRT,LONG,EXE
MTH$RANDOM      - General Purpose Random Number Generator        21-AUG-1978 19:07:53   VAX-11 MACRO X0.3-11               Page   3
1-4             MTH$RANDOM - CALLable function                                                                                   (3)

                                     0000    75 	.SBTTL	MTH$RANDOM - CALLable function
                                     0000    76 ;++
                                     0000    77 ; FUNCTIONAL DESCRIPTION:
                                     0000    78 ;
                                     0000    79 ; RANDOM - General Purpose Pseudo Random Number Generator
                                     0000    80 ;
                                     0000    81 ;	Call the function MTH$RANDOM (seed) to obtain the
                                     0000    82 ;	next pseudo-random number. The seed is updated by
                                     0000    83 ;	the function automatically as a side effect. The
                                     0000    84 ;	result is a floating point number that is uniformly
                                     0000    85 ;	distributed in the range 0.0 inclusive to 1.0 exclusive.
                                     0000    86 ;	There are no restrictions on the seed, although
                                     0000    87 ;	it should be initialized to different values on
                                     0000    88 ;	separate runs.
                                     0000    89 ;
                                     0000    90 ;	The algorithm used is to update the seed as:
                                     0000    91 ;
                                     0000    92 ;		seed = 69069. * seed + 1    (mod 2**32)
                                     0000    93 ;
                                     0000    94 ;	and then to convert the seed to floating point.
                                     0000    95 ;
                                     0000    96 ;	Note, because the result is never 1.0, a simple
                                     0000    97 ;	way to get a uniform random integer selector is
                                     0000    98 ;	to multiply by the number of cases. For example
                                     0000    99 ;	if a uniform choice among 5 situations is to be
                                     0000   100 ;	made, then the following FORTRAN statement will
                                     0000   101 ;	work:
                                     0000   102 ;		GO TO (1,2,3,4,5) 1+IFIX(5.*MTH$RANDOM(seed))
                                     0000   103 ;
                                     0000   104 ;	Note that the explicit IFIX is necessary before
                                     0000   105 ;	adding 1 in order to avoid a possible rounding
                                     0000   106 ;	during the normalization after the floating add.
                                     0000   107 ;
                                     0000   108 ;	This is a general random number generator. It is
                                     0000   109 ;	of the multiplicative congruential type, and hence
                                     0000   110 ;	is fast, although prone to certain classes of
                                     0000   111 ;	non-random sequences. This non-random behavior
                                     0000   112 ;	typically arises when considering triples of
                                     0000   113 ;	numbers generated by this method.
                                     0000   114 ;
                                     0000   115 ;	For more information on congruential generators,
                                     0000   116 ;	see:
                                     0000   117 ;		Random Number Generation (pp. 1192-1197)
                                     0000   118 ;		  by G. Marsaglia
                                     0000   119 ;
                                     0000   120 ;	in:	Encyclopedia of Computer Science
                                     0000   121 ;		  edited by Anthony Ralston
                                     0000   122 ;		  Petrocelli (New York, 1976)
                                     0000   123 ;
                                     0000   124 ; CALLING SEQUENCE:
                                     0000   125 ;
                                     0000   126 ;	result.wf.v = MTH$RANDOM (seed.mlu.r)
MTH$RANDOM      - General Purpose Random Number Generator        21-AUG-1978 19:07:53   VAX-11 MACRO X0.3-11               Page   4
1-4             MTH$RANDOM - CALLable function                                                                                   (4)

                                     0000   128 ;
                                     0000   129 ; INPUT PARAMETERS:
                                     0000   130 ;
                                     0000   131 ;	SEED.mlu.r		Longword seed is modified each call
                                     0000   132 ;
                                     0000   133 ; IMPLICIT INPUTS:
                                     0000   134 ;
                                     0000   135 ;	NONE
                                     0000   136 ;
                                     0000   137 ; OUTPUT PARAMETERS:
                                     0000   138 ;
                                     0000   139 ;	NONE
                                     0000   140 ;
                                     0000   141 ; IMPLICIT OUTPUTS:
                                     0000   142 ;
                                     0000   143 ;	NONE
                                     0000   144 ;
                                     0000   145 ; FUNCTION VALUE
                                     0000   146 ;
                                     0000   147 ;	Returns in R0 a single-precision floating point value between
                                     0000   148 ;	0.0 inclusive and 1.0 exclusive.
                                     0000   149 ;
                                     0000   150 ; SIDE EFFECTS:
                                     0000   151 ;
                                     0000   152 ;	NONE
                                     0000   153 ;
                                     0000   154 ;--
MTH$RANDOM      - General Purpose Random Number Generator        21-AUG-1978 19:07:53   VAX-11 MACRO X0.3-11               Page   5
1-4             MTH$RANDOM - CALLable function                                                                                   (5)

                               0000' 0000   156 	.ENTRY	MTH$RANDOM,0		;no registers save, clear IV
                                     0002   157
                                     0002   158 ;-
                                     0002   159 ; If this were to be placed as an inline expansion, then
                                     0002   160 ; EMUL SEED,#69069,#1,R0 should replace the next two
                                     0002   161 ; instructions because this would prevent the possibility
                                     0002   162 ; of integer overflow trapping.
                                     0002   163 ;-
                                     0002   164
         04 BC   00010DCD 8F     C4  0002   165 	MULL2	#69069,@SEED(AP)	;update seed with multiplier
                       04 BC     D6  000A   166 	INCL	@SEED(AP)		;increment seed to protect
                                     000D   167 					; against strange seeds
                                     000D   168
                                     000D   169 ;
                                     000D   170 ; The next instructions convert the seed from unsigned integer
                                     000D   171 ; to floating point in the range 0.0 to 1.0 exclusive.
                                     000D   172 ;
                                     000D   173
            18            08     EF  000D   174 	EXTZV	#8,#24,@SEED(AP),R0	;Get the most significant bits
            50         04 BC         0010
                                     0013   175 					; of the seed in the range
                                     0013   176 					; 0 .. (2**24)-1
            50            50     4E  0013   177 	CVTLF	R0,R0			;Convert to floating without
                                     0016   178 					; rounding. The result is
                                     0016   179 					; positive and in the range
                                     0016   180 					; 0.0 .. (2.0**24)-1.0
                                     0016   181
                                     0016   182 ;
                                     0016   183 ; If this were to be placed as an inline expansion, then
                                     0016   184 ; MULF #^X00003480,R0 could replace the next two instructions.
                                     0016   185 ;
                                     0016   186
                          05     13  0016   187 	BEQL	10$			;If zero, already correct
            50       0C00 8F     A2  0018   188 	SUBW	#24@7,R0		;DIVF #^F2.0**24
                                     001D   189 					; the result is now in the
                                     001D   190 					; range 0.0 .. 1.0 exclusive
                                     001D   191
                                 04  001D   192 10$:	RET
                                     001E   193
                                     001E   194 	.END
MTH$RANDOM      - General Purpose Random Number Generator        21-AUG-1978 19:07:53   VAX-11 MACRO X0.3-11               Page   6
SYMBOL TABLE                                                                                                                     (5)

FOR$K_ERR_PREFX= 00000018
MTH$K_ERR_PREFX= 00000016
MTH$RANDOM       00000000 RG    02
MTH__FLOOVEMAT = 00000058
MTH__FLOUNDMAT = 00000059
MTH__INVARG    = 00000051
MTH__LOGZERNEG = 00000053
MTH__SINSIGLOS = 00000057
MTH__SQUROONEG = 00000054
MTH__UNDEXP    = 00000052
MTH__WRONUMARG = 00000050
SEED           = 00000004


PROGRAM SECTION SYNOPSIS

.  ABS  .        00000000      00     NOPIC   USR   CON   ABS   LCL NOSHR NOEXE NORD  NOWRT BYTE
. BLANK .        00000000      01     NOPIC   USR   CON   REL   LCL NOSHR   EXE   RD    WRT BYTE
MTH$CODE         0000001E      02       PIC   USR   CON   REL   LCL   SHR   EXE   RD  NOWRT LONG


THERE WERE NO ERRORS OR WARNINGS.
28034. BYTES LEFT IN FREE MEMORY POOL.
OBJ$:MTHRANDOM,LIS$:MTHRANDOM/-SP=LIB$:S/ML,SRC$:P,MTHRANDOM
0 MLB DIR RDS - 0 GETS TO DEFINE 0 MACROS. 2 INTER. FILE WRITES.
