MTH$SIGN        SIGN function                                    21-AUG-1978 19:07:59   VAX-11 MACRO X0.3-11               Page   0
TABLE OF CONTENTS

   (2)     100  HISTORY		; Detailed Current Edit History
   (3)     100  DECLARATIONS
   (4)     100  MTH$SIGN
MTH$SIGN        SIGN function                                    21-AUG-1978 19:07:59   VAX-11 MACRO X0.3-11               Page   1
0-3                                                                                                                              (1)

                                     0000   100 	.TITLE	MTH$SIGN	SIGN function
                                     0000   200 	.IDENT	/0-3/		; File: MTHSIGN.MAR
                                     0000   300
                                     0000   400 ;
                                     0000   500 ; Copyright (C) 1977
                                     0000   600 ; Digital Equipment Corporation, Maynard, Massachusetts 01754
                                     0000   700 ;
                                     0000   800 ; This software is furnished under a license for use only on a single
                                     0000   900 ; computer  system  and  may be copied only with the inclusion of the
                                     0000  1000 ; above copyright notice. This software, or any other copies thereof,
                                     0000  1100 ; may not be provided or otherwise made available to any other person
                                     0000  1200 ; except for use on such system and to one who agree to these license
                                     0000  1300 ; terms.  Title to  and  ownership of the software shall at all times
                                     0000  1400 ; remain in DEC.
                                     0000  1500 ;
                                     0000  1600 ; The information in the software is subject to change without notice
                                     0000  1700 ; and should  not  be construed  as a commitment by Digital Equipment
                                     0000  1800 ; Corporation.
                                     0000  1900 ;
                                     0000  2000 ; DEC assumes  no  responsibility  for the use or  reliability of its
                                     0000  2100 ; software on equipment which is not supplied by DEC.
                                     0000  2200 ;
                                     0000  2300 ;
                                     0000  2400 ; FACILITY: MATH LIBRARY
                                     0000  2500 ;++
                                     0000  2600 ; ABSTRACT:
                                     0000  2700 ;	This module contains routine MTH$SIGN
                                     0000  2800 ;
                                     0000  2900 ;
                                     0000  3000 ;--
                                     0000  3100 ;
                                     0000  3200 ; VERSION: 0
                                     0000  3300 ;
                                     0000  3400 ; HISTORY:
                                     0000  3500 ;
                                     0000  3600 ; AUTHOR:
                                     0000  3700 ;	Jonathan M. Taylor, 14-JUL-77: Version 0
                                     0000  3800 ;
                                     0000  3900 ; MODIFIED BY:
                                     0000  4000 ;
                                     0000  4100 ;
                                     0000  4200 ;
MTH$SIGN        SIGN function                                    21-AUG-1978 19:07:59   VAX-11 MACRO X0.3-11               Page   2
0-3             HISTORY  ; Detailed Current Edit History                                                                         (2)

                                     0000   100 	.SBTTL	HISTORY		; Detailed Current Edit History
                                     0000   200
                                     0000   300
                                     0000   400 ; Edit History for Version 0 of MTH$SIGN
                                     0000   500 ;
                                     0000   600 ; 0-3	- Remove MTH$FLAG_JACKET.  TNH 5-July-78
MTH$SIGN        SIGN function                                    21-AUG-1978 19:07:59   VAX-11 MACRO X0.3-11               Page   3
0-3             DECLARATIONS                                                                                                     (3)

                                     0000   100 	.SBTTL	DECLARATIONS
                                     0000   200
                                     0000   300 ;
                                     0000   400 ; INCLUDE FILES:
                                     0000   500 ;	oerr.mar
                                     0000   600 ;
                                     0000   700
                                     0000   800 ;
                                     0000   900 ; EXTERNAL SYMBOLS:
                                     0000  1000 ;	NONE
                                     0000  1100 ;
                                     0000  1200
                                     0000  1300 ;
                                     0000  1400 ; MACROS:
                                     0000  1500 ;	NONE
                                     0000  1600 ;
                                     0000  1700
                                     0000  1800 ;
                                     0000  1900 ; PSECT DECLARATIONS:
                                 00000000  2000 	.PSECT	MTH$CODE	PIC, SHR, LONG, EXE, NOWRT
                                     0000  2100
                                     0000  2200 ;
                                     0000  2300 ; EQUATED SYMBOLS:
                                     0000  2400 ;	NONE
                                     0000  2500 ;
                                     0000  2600
                                     0000  2700 ;
                                     0000  2800 ; OWN STORAGE:
                                     0000  2900 ;	NONE
                                     0000  3000 ;
MTH$SIGN        SIGN function                                    21-AUG-1978 19:07:59   VAX-11 MACRO X0.3-11               Page   4
0-3             MTH$SIGN                                                                                                         (4)

                                     0000   100 	.SBTTL	MTH$SIGN
                                     0000   200
                                     0000   300 ;++
                                     0000   400 ; FUNCTIONAL DESCRIPTION:
                                     0000   500 ;	Return arg1 with sign of arg2.
                                     0000   600 ;
                                     0000   700 ;
                                     0000   800 ; CALLING SEQUENCE:
                                     0000   900 ;	Transfer_of_sign.wf.v = MTH$SIGN (arg1.rf.r, arg2.rf.r)
                                     0000  1000 ;
                                     0000  1100 ;
                                     0000  1200 ;
                                     0000  1300 ; INPUT PARAMETERS:
                                     0000  1400 ;	The two parameters are single-precision floating-point values
                                     0000  1500 ;	and are call-by-reference.
                                     0000  1600 ;
                                     0000  1700 ;
                                     0000  1800 ; IMPLICIT INPUTS:
                                     0000  1900 ;	NONE
                                     0000  2000 ;
                                     0000  2100 ; OUTPUT PARAMETERS:
                                     0000  2200 ;	NONE
                                     0000  2300 ;
                                     0000  2400 ; IMPLICIT OUTPUTS:
                                     0000  2500 ;	NONE
                                     0000  2600 ;
                                     0000  2700 ; COMPLETION CODES:
                                     0000  2800 ;	NONE
                                     0000  2900 ;
                                     0000  3000 ; SIDE EFFECTS:
                                     0000  3100 ;	Reserved Operand exception can occur.
                                     0000  3200 ;
                                     0000  3300 ;
                                     0000  3400 ;--
                                     0000  3500
                               0000' 0000  3600 	.ENTRY	MTH$SIGN,	^M<>
                                     0002  3800
            50         04 BC     50  0002  3900 	MOVF	@4(AP), R0	; R0 = arg1
                          09     19  0006  4000 	BLSS	NEGARG		; branch if negative arg1
                                     0008  4100
                                     0008  4200 ; arg1 is non-negative, check sign of arg2
                                     0008  4300 ;
                       08 BC     53  0008  4400 	TSTF	@8(AP)
                          03     18  000B  4500 	BGEQ	EXIT		; both args positive, nothing to do
                                     000D  4600 NEGATE:
            50            50     52  000D  4700 	MNEGF	R0, R0		; negate arg1
                                     0010  4800 EXIT:
                                 04  0010  4900 	RET
                                     0011  5000
                                     0011  5100 ; arg1 is negative, check sign of arg2
                                     0011  5200 ;
                                     0011  5300 NEGARG:
                       08 BC     53  0011  5400 	TSTF	@8(AP)
                          F7     18  0014  5500 	BGEQ	NEGATE		; arg2 positive negate arg1
                                 04  0016  5600 	RET
                                     0017  5700
                                     0017  5800
MTH$SIGN        SIGN function                                    21-AUG-1978 19:07:59   VAX-11 MACRO X0.3-11               Page   5
0-3             MTH$SIGN                                                                                                         (4)

                                     0017  5900 	.END
MTH$SIGN        SIGN function                                    21-AUG-1978 19:07:59   VAX-11 MACRO X0.3-11               Page   6
SYMBOL TABLE                                                                                                                     (4)

EXIT             00000010 R     02
FOR$K_ERR_PREFX= 00000018
MTH$K_ERR_PREFX= 00000016
MTH$SIGN         00000000 RG    02
MTH__FLOOVEMAT = 00000058
MTH__FLOUNDMAT = 00000059
MTH__INVARG    = 00000051
MTH__LOGZERNEG = 00000053
MTH__SINSIGLOS = 00000057
MTH__SQUROONEG = 00000054
MTH__UNDEXP    = 00000052
MTH__WRONUMARG = 00000050
NEGARG           00000011 R     02
NEGATE           0000000D R     02


PROGRAM SECTION SYNOPSIS

.  ABS  .        00000000      00     NOPIC   USR   CON   ABS   LCL NOSHR NOEXE NORD  NOWRT BYTE
. BLANK .        00000000      01     NOPIC   USR   CON   REL   LCL NOSHR   EXE   RD    WRT BYTE
MTH$CODE         00000017      02       PIC   USR   CON   REL   LCL   SHR   EXE   RD  NOWRT LONG


THERE WERE NO ERRORS OR WARNINGS.
28020. BYTES LEFT IN FREE MEMORY POOL.
OBJ$:MTHSIGN,LIS$:MTHSIGN/-SP=LIB$:S/ML,SRC$:P,MTHSIGN
0 MLB DIR RDS - 0 GETS TO DEFINE 0 MACROS. 2 INTER. FILE WRITES.
