OTS$LINKAGE     - Pull in anything required by compilers         21-AUG-1978 19:09:30   VAX-11 MACRO X0.3-11               Page   0
TABLE OF CONTENTS

   (2)     100  DECLARATIONS
   (3)     100  OTS$LINKAGE	- pull in stuff required by compile
OTS$LINKAGE     - Pull in anything required by compilers         21-AUG-1978 19:09:30   VAX-11 MACRO X0.3-11               Page   1
0-4                                                                                                                              (1)

                                     0000   100 	.TITLE	OTS$LINKAGE - Pull in anything required by compilers
                                     0000   200 	.IDENT	/0-4/			; File: OTSLINKAG.MAR
                                     0000   300
                                     0000   400 ;
                                     0000   500 ;			  COPYRIGHT (c) 1977 BY
                                     0000   600 ;	      DIGITAL EQUIPMENT CORPORATION, MAYNARD, MASS.
                                     0000   700 ;
                                     0000   800 ; THIS SOFTWARE IS FURNISHED UNDER A LICENSE AND MAY BE USED AND  COPIED
                                     0000   900 ; ONLY  IN  ACCORDANCE  WITH  THE  TERMS  OF  SUCH  LICENSE AND WITH THE
                                     0000  1000 ; INCLUSION OF THE ABOVE COPYRIGHT NOTICE.  THIS SOFTWARE OR  ANY  OTHER
                                     0000  1100 ; COPIES  THEREOF MAY NOT BE PROVIDED OR OTHERWISE MADE AVAILABLE TO ANY
                                     0000  1200 ; OTHER PERSON.  NO TITLE TO AND OWNERSHIP OF  THE  SOFTWARE  IS  HEREBY
                                     0000  1300 ; TRANSFERRED.
                                     0000  1400 ;
                                     0000  1500 ; THE INFORMATION IN THIS SOFTWARE IS SUBJECT TO CHANGE  WITHOUT  NOTICE
                                     0000  1600 ; AND  SHOULD  NOT  BE  CONSTRUED  AS  A COMMITMENT BY DIGITAL EQUIPMENT
                                     0000  1700 ; CORPORATION.
                                     0000  1800 ;
                                     0000  1900 ; DIGITAL ASSUMES NO RESPONSIBILITY FOR THE USE OR  RELIABILITY  OF  ITS
                                     0000  2000 ; SOFTWARE ON EQUIPMENT WHICH IS NOT SUPPLIED BY DIGITAL.
                                     0000  2100 ;
                                     0000  2200
                                     0000  2300 ;++
                                     0000  2400 ; FACILITY: General Utility Library
                                     0000  2500 ;
                                     0000  2600 ; ABSTRACT:
                                     0000  2700 ;
                                     0000  2800 ;	Pull in any code, constants, etc. required by compilers.
                                     0000  2810 ;	(Currently there is nothing, but compiler outputs reference anyway).
                                     0000  2900 ;
                                     0000  3000 ; ENVIRONMENT: User Mode, AST Reentrant
                                     0000  3100 ;
                                     0000  3200 ;--
                                     0000  3300 ; AUTHOR: Jonathan M. Taylor, CREATION DATE: 23-Jan-78
                                     0000  3400 ;
                                     0000  3500 ; MODIFIED BY:
                                     0000  3600 ;
                                     0000  3700 ;	JMT, 23-Jan-78 : VERSION 0
                                     0000  3800 ; 0-1	- Original
                                     0000  3900 ; 0-4	- Remove LIB$K_VERSION (use major,minor id in MAP).  TNH 29-July-78
OTS$LINKAGE     - Pull in anything required by compilers         21-AUG-1978 19:09:30   VAX-11 MACRO X0.3-11               Page   2
0-4             DECLARATIONS                                                                                                     (2)

                                     0000   100 	.SBTTL	DECLARATIONS
                                     0000   200 ;
                                     0000   300 ; INCLUDE FILES:
                                     0000   400 ;
                                     0000   500
                                     0000   600 ;
                                     0000   700 ; MACROS:
                                     0000   800 ;
                                     0000   900
                                     0000  1000 ;
                                     0000  1100 ; EQUATED SYMBOLS:
                                     0000  1200 ;
                                     0000  1400
                                     0000  1500 ;
                                     0000  1600 ; OWN STORAGE:
                                     0000  1700 ;
                                     0000  1800
                                     0000  1900 ;
                                     0000  2000 ; PSECT DECLARATIONS:
                                     0000  2100 ;
                                 00000000  2200 	.PSECT OTS$CODE PIC, SHR, LONG, EXE, NOWRT
                                     0000  2300
OTS$LINKAGE     - Pull in anything required by compilers         21-AUG-1978 19:09:30   VAX-11 MACRO X0.3-11               Page   3
0-4             OTS$LINKAGE - pull in stuff required by compile                                                                  (3)

                                     0000   100 	.SBTTL	OTS$LINKAGE	- pull in stuff required by compilers
                                     0000   200
                                     0000   300 ;++
                                     0000   400 ; FUNCTIONAL DESCRIPTION:
                                     0000   500 ;
                                     0000   600 ;
                                     0000   700 ; CALLING SEQUENCE:
                                     0000   800 ;
                                     0000   900 ; INPUT PARAMETERS:
                                     0000  1000 ;
                                     0000  1100 ;	NONE
                                     0000  1200 ;
                                     0000  1300 ; IMPLICIT INPUTS:
                                     0000  1400 ;
                                     0000  1500 ;	NONE
                                     0000  1600 ;
                                     0000  1700 ; OUTPUT PARAMETERS:
                                     0000  1800 ;
                                     0000  1900 ;	NONE
                                     0000  2000 ;
                                     0000  2100 ; IMPLICIT OUTPUTS:
                                     0000  2200 ;
                                     0000  2300 ;	NONE
                                     0000  2400 ;
                                     0000  2500 ; FUNCTION VALUE:
                                     0000  2600 ;
                                     0000  2700 ;
                                     0000  2800 ; SIDE EFFECTS:
                                     0000  2900 ;
                                     0000  3000 ;	NONE
                                     0000  3100 ;
                                     0000  3200 ;--
                               0000' 0000  3300 	.ENTRY	OTS$LINKAGE, 0
                                 00  0002  3400 	HALT				; in case a user tries to call it
                                     0003  3500
                                     0003  3600
                                     0003  3700 	.END
OTS$LINKAGE     - Pull in anything required by compilers         21-AUG-1978 19:09:30   VAX-11 MACRO X0.3-11               Page   4
SYMBOL TABLE                                                                                                                     (3)

FOR$K_ERR_PREFX= 00000018
MTH$K_ERR_PREFX= 00000016
MTH__FLOOVEMAT = 00000058
MTH__FLOUNDMAT = 00000059
MTH__INVARG    = 00000051
MTH__LOGZERNEG = 00000053
MTH__SINSIGLOS = 00000057
MTH__SQUROONEG = 00000054
MTH__UNDEXP    = 00000052
MTH__WRONUMARG = 00000050
OTS$LINKAGE      00000000 RG    02


PROGRAM SECTION SYNOPSIS

.  ABS  .        00000000      00     NOPIC   USR   CON   ABS   LCL NOSHR NOEXE NORD  NOWRT BYTE
. BLANK .        00000000      01     NOPIC   USR   CON   REL   LCL NOSHR   EXE   RD    WRT BYTE
OTS$CODE         00000003      02       PIC   USR   CON   REL   LCL   SHR   EXE   RD  NOWRT LONG


THERE WERE NO ERRORS OR WARNINGS.
28058. BYTES LEFT IN FREE MEMORY POOL.
OBJ$:OTSLINKAG,LIS$:OTSLINKAG/-SP=LIB$:S/ML,SRC$:P,OTSLINKAG
0 MLB DIR RDS - 0 GETS TO DEFINE 0 MACROS. 1 INTER. FILE WRITES.
