OTS$MSGDEF      ; OTS library error codes/messages as globals    21-AUG-1978 19:09:37   VAX-11 MACRO X0.3-11               Page   0
TABLE OF CONTENTS

   (2)      90  HISTORY		; Detailed Current Edit History
   (3)     101  DECLARATIONS
OTS$MSGDEF      ; OTS library error codes/messages as globals    21-AUG-1978 19:09:37   VAX-11 MACRO X0.3-11               Page   1
1-2                                                                                                                              (1)

                                     0000     1 	.TITLE	OTS$MSGDEF		; OTS library error codes/messages as globals
                                     0000     2 	.IDENT	/1-2/			; File: OTSMSGDEF.MAR
                                     0000     3
                                     0000     4 ;
                                     0000     5 ; Copyright (C) 1977
                                     0000     6 ; Digital Equipment Corporation, Maynard, Massachusetts 01754
                                     0000     7 ;
                                     0000     8 ; This software is furnished under a license for use only on a single
                                     0000     9 ; computer  system  and  may be copied only with the inclusion of the
                                     0000    10 ; above copyright notice. This software, or any other copies thereof,
                                     0000    11 ; may not be provided or otherwise made available to any other person
                                     0000    12 ; except for use on such system and to one who agree to these license
                                     0000    13 ; terms.  Title to  and  ownership of the software shall at all times
                                     0000    14 ; remain in DEC.
                                     0000    15 ;
                                     0000    16 ; The information in the software is subject to change without notice
                                     0000    17 ; and should  not  be construed  as a commitment by Digital Equipment
                                     0000    18 ; Corporation.
                                     0000    19 ;
                                     0000    20 ; DEC assumes  no  responsibility  for the use or  reliability of its
                                     0000    21 ; software on equipment which is not supplied by DEC.
                                     0000    22 ;
                                     0000    23 ;
                                     0000    24 ; FACILITY: VAX-11 COMMON RUN-TIME PROCEDURE  LIBRARY
                                     0000    25 ;++
                                     0000    26 ; ABSTRACT:
                                     0000    27 ;
                                     0000    28 ;	Define all completion codes used by OTS$ facility.
                                     0000    29 ;
                                     0000    30 ;--
                                     0000    31 ;
                                     0000    32 ; VERSION: 0
                                     0000    33 ;
                                     0000    34 ; HISTORY:
                                     0000    35 ;
                                     0000    36 ; AUTHOR:
                                     0000    37 ;	Thomas N. Hastings, 8-Sep-77: Version 0
                                     0000    38 ;
                                     0000    39 ; MODIFIED BY:
                                     0000    40 ;
                                     0000    41 ;
                                     0000    42 ;
OTS$MSGDEF      ; OTS library error codes/messages as globals    21-AUG-1978 19:09:37   VAX-11 MACRO X0.3-11               Page   2
1-2             HISTORY  ; Detailed Current Edit History                                                                         (2)

                                     0000    44 	.SBTTL	HISTORY		; Detailed Current Edit History
                                     0000    45
                                     0000    46
                                     0000    47 ; Edit History for Version 0
                                     0000    48 ;
                                     0000    49
                                     0000    50 ; Edit History for Version 1
                                     0000    51 ;
                                     0000    52 ; 1-1	Made OTSMSGDEF from RTLMSGDEF.  JMT 10-Jan-78
                                     0000    53 ; 1-2	- Call $OTSDEF, not $OTSMSG.  TNH 26-Jan-78
OTS$MSGDEF      ; OTS library error codes/messages as globals    21-AUG-1978 19:09:37   VAX-11 MACRO X0.3-11               Page   3
1-2             DECLARATIONS                                                                                                     (3)

                                     0000    55 	.SBTTL	DECLARATIONS
                                     0000    56
                                     0000    57 ;
                                     0000    58 ; INCLUDE FILES:
                                     0000    59 ;
                                     0000    60 ;	File RTLMSG.MAR is MDL output which has all Run-time library symbols defined
                                     0000    61 ;	For simplicity, it is copied into library file S.MLB along with others
                                     0000    62 	$OTSDEF GLOBAL	; OTS$ codes
                                     0000    63
                                     0000    64 ;
                                     0000    65 ; EXTERNAL SYMBOLS:
                                     0000    66 ;
                                     0000    67
                                     0000    68 ;
                                     0000    69 ; MACROS:
                                     0000    70 ;
                                     0000    71
                                     0000    72 ;
                                     0000    73 ; PSECT DECLARATIONS:
                                     0000    74 ;
                                     0000    75 ;
                                     0000    76 ; EQUATED SYMBOLS:
                                     0000    77 ;
                                     0000    78
                                     0000    79 ;
                                     0000    80 ; OWN STORAGE:
                                     0000    81 ;
                                     0000    82
                                     0000    83
                                     0000    84 	.END				; End of module
OTS$MSGDEF      ; OTS library error codes/messages as globals    21-AUG-1978 19:09:37   VAX-11 MACRO X0.3-11               Page   4
SYMBOL TABLE                                                                                                                     (3)

BIT...         = 00178408
FOR$K_ERR_PREFX= 00000018
GBL...         = 00000001
MTH$K_ERR_PREFX= 00000016
MTH__FLOOVEMAT = 00000058
MTH__FLOUNDMAT = 00000059
MTH__INVARG    = 00000051
MTH__LOGZERNEG = 00000053
MTH__SINSIGLOS = 00000057
MTH__SQUROONEG = 00000054
MTH__UNDEXP    = 00000052
MTH__WRONUMARG = 00000050
OTS$_FATINTERR = 00178014  G
OTS$_INTDATCOR = 0017801C  G
OTS$_INVSTRDES = 0017800C  G
OTS$_USEFLORES = 00178400  G


PROGRAM SECTION SYNOPSIS

.  ABS  .        00000000      00     NOPIC   USR   CON   ABS   LCL NOSHR NOEXE NORD  NOWRT BYTE
. BLANK .        00000000      01     NOPIC   USR   CON   REL   LCL NOSHR   EXE   RD    WRT BYTE
$ABS$            00000000      02     NOPIC   USR   CON   ABS   LCL NOSHR   EXE   RD    WRT BYTE


THERE WERE NO ERRORS OR WARNINGS.
26768. BYTES LEFT IN FREE MEMORY POOL.
260. BYTES OF RECLAIMED MEMORY.
OBJ$:OTSMSGDEF,LIS$:OTSMSGDEF/-SP=LIB$:S/ML,SRC$:P,OTSMSGDEF
2 MLB DIR RDS - 64 GETS TO DEFINE 7 MACROS. 2 INTER. FILE WRITES.
