SATSSF06        - SATS SYSTEM SERVICE TESTS  (FAILING S.C.)      22-AUG-1978 03:43:59   VAX-11 MACRO X0.3-11               Page   0
TABLE OF CONTENTS

   (1)      46  DECLARATIONS
   (1)     239  SATSSF06
   (1)     339  SFFEX10
   (1)     361  SFFEX11
   (1)     383  SFFEX12
   (1)     406  SFFEX13
   (1)     430  SFFEX14
   (1)     454  SFFEX20
   (1)     478  SFFEX21
   (1)     502  SFFEX22
   (1)     527  SFFEX23
   (1)     552  SFFEX24
   (1)     575
   (1)     578  SFFEX25
   (1)     602  SFFEX26
   (1)     625  SFFEX27
   (1)     648  SFFEX28
   (1)     671  SFFEX29
   (1)     698
   (1)     702  SFDEH10
   (1)     725  SFDEH11
   (1)     747  SFDEH12
   (1)     770
   (1)     774  SFSPN10
   (1)     797  SFSPN11
   (1)     820  SFSPN12
   (1)     844  SFSPN13
   (1)     868  SFSPN14
   (1)     890
   (1)     893  SFSPN15
   (1)     916  SFSPN16
   (1)     939  SFSPN17
   (1)     961  SFSPN18
   (1)     983
   (1)     986  SFSPR10
   (1)    1008  SFSPR11
   (1)    1030  SFSPR12
   (1)    1053  SFSPR13
   (1)    1077  SFSPR14
   (1)    1101  SFSPR20
   (1)    1125  SFSPR21
   (1)    1149  SFSPR22
   (1)    1174  SFSPR23
   (1)    1199  SFSPR24
   (1)    1222  SFSPR40
   (1)    1245  SFSPR41
   (1)    1268  SFSPR42
   (1)    1291
   (1)    1294  SFSPR25
   (1)    1318  SFSPR26
   (1)    1341  SFSPR27
   (1)    1364  SFSPR28
   (1)    1387  SFSPR29
   (1)    1414
   (1)    1539  EXECUTE & CLEANUP
   (1)    1558  TC_CONTROL
   (1)    1639  SUBROUTINES
SATSSF06        - SATS SYSTEM SERVICE TESTS  (FAILING S.C.)      22-AUG-1978 03:43:59   VAX-11 MACRO X0.3-11               Page   1
1.0                                                                                                                              (1)

                                     0000     1 	.TITLE	SATSSF06 - SATS SYSTEM SERVICE TESTS  (FAILING S.C.)
                                     0000     2 	.IDENT	/1.0/
                                     0000     3
                                     0000     4 ;
                                     0000     5 ;			  COPYRIGHT (c) 1977,1978 BY
                                     0000     6 ;	      DIGITAL EQUIPMENT CORPORATION, MAYNARD, MASS.
                                     0000     7 ;
                                     0000     8 ; THIS SOFTWARE IS FURNISHED UNDER A LICENSE AND MAY BE USED AND  COPIED
                                     0000     9 ; ONLY  IN  ACCORDANCE  WITH  THE  TERMS  OF  SUCH  LICENSE AND WITH THE
                                     0000    10 ; INCLUSION OF THE ABOVE COPYRIGHT NOTICE.  THIS SOFTWARE OR  ANY  OTHER
                                     0000    11 ; COPIES  THEREOF MAY NOT BE PROVIDED OR OTHERWISE MADE AVAILABLE TO ANY
                                     0000    12 ; OTHER PERSON.  NO TITLE TO AND OWNERSHIP OF  THE  SOFTWARE  IS  HEREBY
                                     0000    13 ; TRANSFERRED.
                                     0000    14 ;
                                     0000    15 ; THE INFORMATION IN THIS SOFTWARE IS SUBJECT TO CHANGE  WITHOUT  NOTICE
                                     0000    16 ; AND  SHOULD  NOT  BE  CONSTRUED  AS  A COMMITMENT BY DIGITAL EQUIPMENT
                                     0000    17 ; CORPORATION.
                                     0000    18 ;
                                     0000    19 ; DIGITAL ASSUMES NO RESPONSIBILITY FOR THE USE OR  RELIABILITY  OF  ITS
                                     0000    20 ; SOFTWARE ON EQUIPMENT WHICH IS NOT SUPPLIED BY DIGITAL.
                                     0000    21 ;
                                     0000    22
                                     0000    23 ;++
                                     0000    24 ; FACILITY:	SATS SYSTEM SERVICE TESTS
                                     0000    25 ;
                                     0000    26 ; ABSTRACT:	THE SATSSF06 MODULE TESTS THE EXECUTION OF CERTAIN
                                     0000    27 ; VMS SYSTEM SERVICES, INVOKED IN SUCH A WAY AS TO EXPECT FAILING
                                     0000    28 ; STATUS CODES. THE SYSTEM SERVICES TESTED AND THE STATUS CODES
                                     0000    29 ; EXPECTED ARE SUMMARIZED AS ARGUMENTS TO THE TESTSERV MACROS
                                     0000    30 ; WHICH APPEAR NEAR THE END OF THIS LISTING. SUCCESSFUL STATUS
                                     0000    31 ; CODES ARE TESTED IN OTHER MODULES.
                                     0000    32 ;
                                     0000    33 ;
                                     0000    34 ; ENVIRONMENT:	USER MODE IMAGE; NEEDS CMKRNL PRIVILEGE,
                                     0000    35 ;		DYNAMICALLY ACQUIRES OTHER PRIVILEGES, AS NEEDED.
                                     0000    36 ;
                                     0000    37 ; AUTHOR: THOMAS L. CAFARELLA,		CREATION DATE: MMM, 1978
                                     0000    38 ;	  PAUL D. FAY (DISPSERV & TESTSERV MACROS)
                                     0000    39 ;
                                     0000    40 ; MODIFIED BY:
                                     0000    41 ;
                                     0000    42 ;	, : VERSION
                                     0000    43 ; 01	-
                                     0000    44 ;--
SATSSF06        - SATS SYSTEM SERVICE TESTS  (FAILING S.C.)      22-AUG-1978 03:43:59   VAX-11 MACRO X0.3-11               Page   2
1.0             DECLARATIONS                                                                                                     (1)

                                     0000    46 	.SBTTL	DECLARATIONS
                                     0000    47 ;
                                     0000    48 ; INCLUDE FILES:
                                     0000    49 ;
                                     0000    50 	$PRVDEF				; SYMBOL DEFS FOR PRIVILEGES
                                     0000    51 	$UETPDEF			; UETP MSG CODE DEFINITIONS
                                     0000    52 	$SHR_MESSAGES UETP,116,<<TEXT,INFO>>
                                     0000    53 					; DEFINE UETP$_TEXT
                           00000004  0000    54 	.MDELETE ($PRVDEF,$UETPDEF,$SHR_MESSAGES,$SHRDEF)
                                     0000    55 					; GET RID OF MACRO DEFINITIONS
                                     0000    56 	$DIBDEF				; DEFINE DEVICE INFO BLOCK OFFSETS
                           00000001  0000    57 	.MDELETE ($DIBDEF)		; ... DELETE MACRO DEFINITION
                                     0000    58 ;
                                     0000    59 ; MACROS:
                                     0000    60 ;
                                     0000    61 ;
                                     0000    62 ; EQUATED SYMBOLS:
                                     0000    63 ;
                           00000000  0000    64 WARNING		= 0			; WARNING SEVERITY VALUE FOR MSGS
                           00000001  0000    65 SUCCESS		= 1			; SUCCESS SEVERITY VALUE FOR MSGS
                           00000002  0000    66 ERROR		= 2			; ERROR SEVERITY VALUE FOR MSGS
                           00000003  0000    67 INFO		= 3			; INFORMATIONAL SEV VALUE FOR MSGS
                           00000004  0000    68 SEVERE		= 4			; SEVERE (FATAL) SEV VALUE FOR MSGS
                           00000000  0000    69 TCG_NO		=  0			; INITIALIZE TEST CASE GROUP NUMBER
                           00000000  0000    70 GRP_TOTAL	=  0			; INITIALIZE TEST CASE GROUP TOTAL
                           00007FFF  0000    71 R0_THRU_SP	= ^M<R0,R1,R2,R3,R4,R5,R6,R7,R8,R9,R10,R11,AP,FP,SP>
                           00000040  0000    72 DETFLAG		= 64			; EVENT FLAG NO. FOR DETACHED PROC
                           00000001  0000    73 PIDADR_FEX10	= 1			; PIDADR ARG FOR FORCEX (LOCATION 1)
                           00000000  0000    74 DESBLK_DEH10	= 0			; DESBLK ARG FOR DCLEXH (LOCATION 0)
                           00000001  0000    75 PIDADR_SPR10	= 1			; PIDADR ARG FOR SETPRI (LOCATION 1)
                           00000001  0000    76 PRVPRI_SPR40	= 1			; PRVPRI ARG FOR SETPRI (LOCATION 1)
                                     0000    77 ;
                                     0000    78 ; ****** THE FOLLOWING ASSIGNMENTS (IN PHD, PCB, STS) ARE BEING MADE
                                     0000    79 ; ****** WITHOUT REFERENCE TO $PHDDEF, $PCBDEF, $STSDEF BECAUSE OF
                                     0000    80 ; ****** SYMBOL TABLE OVERFLOW. FIX THIS WHEN MORE TABLE SPACE AVAILABLE.
                                     0000    81 ;
                           00000000  0000    82 PHD$Q_PRIVMSK	= 0			; PRIV MASK OFFSET INTO PHD
                           00000020  0000    83 PCB$L_UIC	= ^X20			; UIC OFFSET INTO PCB
                           0000001C  0000    84 STS$V_INHIB_MSG	= ^X1C			; INHIBIT_MSG BIT NUMBER IN MSG CODE
                                     0000    85 ;
                                     0000    86 ; OWN STORAGE:
                                     0000    87 ;
SATSSF06        - SATS SYSTEM SERVICE TESTS  (FAILING S.C.)      22-AUG-1978 03:43:59   VAX-11 MACRO X0.3-11               Page   3
1.0             DECLARATIONS                                                                                                     (1)

                                 00000000    89 	.PSECT	RODATA,RD,NOWRT,NOEXE,LONG
                                     0000    90 REG_COMP_MASK:	.WORD	^M<R2,R3,R4,R5,R6,R7,R8,R9,R10,R11,AP,FP> ! ^X8000 -
                               BFFC  0000    91 					; REG COMPARE MASK (HIGH-ORDER ...
                                     0002    92 					; ... BIT MUST BE ON
                                     0002    93 ERR_MSG_FAOCTL:	STRING	I,<!/!AC!1ZB!1ZB: REGISTER !2UW CONTENTS ALTERED>, -
                                     0002    94 		<;  BEFORE SERVICE CALL: !8XL   AFTER SERVICE CALL: !8XL>
                                     006E    95 TEST_MOD_NAME:	STRING	C,<SATSSF06>	; TEST MODULE NAME
                                     0077    96 TEST_MOD_BEG:	STRING	C,<begun>	; DISPOSITION FIELD OF TEST MOD MSG
                                     007D    97 TEST_MOD_SUCC:	STRING	C,<successful>	; DISPOSITION FIELD OF TEST MOD MSG
                                     0088    98 TEST_MOD_FAIL:	STRING	C,<failed>	; DISPOSITION FIELD OF TEST MOD MSG
                                     008F    99 TEST_MOD_NAME_D: STRING	I,<SATSSF06>	; TEST MODULE NAME DESCRIPTOR
                                     009F   100 TTNAME:     	STRING  I,<TT>		; TERMINAL LOGICAL NAME
                  00000000'00000000' 00A9   101 INADR:		.LONG	NOACCESS,NOACCESS ; PAGE ADDRESS OF NOACCESS PSECT
                           00000000' 00B1   102 PROT:		.LONG	PRT$C_NA	; PROTECTION CODE FOR NOACCESS PSECT
                  FFFFFFFF FFFFFFFF  00B5   103 ONES:		.LONG	-1,-1		; A QUADWORD OF 1-BITS
                                     00BD   104 DETIMAGE:	STRING	I,<SYSTST$RES:SATSUT01.EXE>
                                     00DC   105 					; IMAGE NAME FOR DETACHED PROCESS
                                     00DC   106 DETNAME:	STRING	I,<SATSSF06_DET> ; PRCNAM & MBOX NAME FOR DET PROC
                           000000DC  00F0   107 PRCNAM_FEX29	= DETNAME		; PRCNAM ARGUMENT FOR FORCEX
                           000000DC  00F0   108 PRCNAM_SPN16	= DETNAME		; PRCNAM ARGUMENT FOR SETPRN
                           000000DC  00F0   109 PRCNAM_SPR29	= DETNAME		; PRCNAM ARGUMENT FOR SETPRI
                                     00F0   110 PRCNAM_FEX:	STRING	I,<SATSSF06>	; PRCNAM ARGUMENT FOR FORCEX
                           00000001  0100   111 PRCNAM_FEX24:	.LONG	1		; PRCNAM ARGUMENT FOR FORCEX
                           00000000' 0104   112 		.ADDRESS NOACCESS	; ......
                                     0108   113 PRCNAM_FEX26:	STRING	I,<SFFEX26>	; PRCNAM ARGUMENT FOR FORCEX
                           00000000  0117   114 PRCNAM_FEX27:	.LONG	0		; PRCNAM ARGUMENT FOR FORCEX
                                     011B   115 PRCNAM_FEX28:	STRING	I,<SIXTEEN CHARS$$$>
                                     0133   116 					; PRCNAM ARGUMENT FOR FORCEX
                           00000005  0133   117 CODE_FEX:	.LONG	5		; CODE ARGUMENT FOR FORCEX
                                     0137   118 DESBLK_DEH11:				; DESBLK ARGUMENT FOR DCLEXH
                           0000013F  0137   119 		.BLKQ	1		; EXIT CONTROL BLOCK .....
                           00000001  013F   120 		.LONG	1		; ..... # OF ARGUMENTS
                           00000000' 0143   121 		.ADDRESS EMPTY		; ADDRESS OF FIELD FOR EXIT REASON
                                     0147   122 PRCNAM_SPN:	STRING	I,<PRCNAM_SPN>	; PRCNAM ARGUMENT FOR SETPRN
                           00000001  0159   123 PRCNAM_SPN14:	.LONG	1		; PRCNAM ARGUMENT FOR SETPRN
                           00000000' 015D   124 		.ADDRESS NOACCESS 	; .......
                           00000000  0161   125 PRCNAM_SPN17:	.LONG	0		; PRCNAM ARGUMENT FOR SETPRN
                                     0165   126 PRCNAM_SPN18:	STRING	I,<SIXTEEN CHARS$$$> ; PRCNAM ARGUMENT FOR SETPRN
                                     017D   127 PRCNAM_SPR:	STRING	I,<SATSSF06>	; PRCNAM ARGUMENT FOR SETPRI
                           00000001  018D   128 PRCNAM_SPR24:	.LONG	1		; PRCNAM ARGUMENT FOR SETPRI
                           00000000' 0191   129 		.ADDRESS NOACCESS	; ......
                                     0195   130 PRCNAM_SPR26:	STRING	I,<SFSPR26>	; PRCNAM ARGUMENT FOR SETPRI
                           00000000  01A4   131 PRCNAM_SPR27:	.LONG	0		; PRCNAM ARGUMENT FOR SETPRI
                                     01A8   132 PRCNAM_SPR28:	STRING	I,<SIXTEEN CHARS$$$>
                                     01C0   133 					; PRCNAM ARGUMENT FOR SETPRI
                           00000000  01C0   134 PRI_SPR:	.LONG	0		; PRI ARGUMENT FOR SETPRI
                           000001C8  01C4   135 PRVPRI_SPR41:	.BLKL	1		; PRVPRI ARGUMENT FOR SETPRI
SATSSF06        - SATS SYSTEM SERVICE TESTS  (FAILING S.C.)      22-AUG-1978 03:43:59   VAX-11 MACRO X0.3-11               Page   4
1.0             DECLARATIONS                                                                                                     (1)

                                 00000000   137 	.PSECT	RWDATA,RD,WRT,NOEXE
                           00000004  0000   138 TPID:		.BLKL	1		; PROCESS ID FOR THIS PROCESS
                           00000008  0004   139 CURRENT_TC:	.BLKL	1 		; PTR TO CURRENT TEST CASE
                           00000044  0008   140 REG_SAVE_AREA:	.BLKL	15		; SAVE AREA FOR ALL REGS (SANS PC)
                           007480D9  0044   141 MOD_MSG_CODE:	.LONG	UETP$_SATSMS	; TEST MODULE MSG CODE FOR PUTMSG
                           0000004C  0048   142 CLOB_REG_NO:	.BLKL	1		; CLOBBERED REG NO (FOR FAO ERR MSG)
                           00000050  004C   143 REG_BEFORE_SS:	.BLKL	1		; REG CONTENTS BEFORE S.S.
                                     0050   144 					; ... (FOR FAO ERROR MSG)
                           00000054  0050   145 REG_AFTER_SS:	.BLKL	1		; REG CONTENTS AFTER S.S.
                                     0054   146 					; ... (FOR FAO ERROR MSG)
                                     0054   147 $$TSTN$$:	STRING	C,<  SF   >	; ASCII PORTION OF TEST CASE NAME
                           0000006E' 005C   148 TMN_ADDR:	.ADDRESS TEST_MOD_NAME	; ADDR OF TEST MOD NAME FOR FAO
                           00000077' 0060   149 TMD_ADDR:	.ADDRESS TEST_MOD_BEG	; ADDR OF T.M. DISP FIELD FOR FAO
                           00000068  0064   150 TS_EP:		.BLKL	1		; ENTRY PNT FOR CURR TESTSERV MACRO
                           00000070  0068   151 RETADR:		.BLKL	2		; RETURN LONGWORDS FOR SETPRT
                           00000071  0070   152 PRVPRT:		.BLKB	1		; PROT RETURN BYTE FOR SETPRT
                           00000079  0071   153 PRIVMASK:	.BLKQ	1		; ADDR OF PRIVILEGE MASK (IN PHD)
                           0000007D  0079   154 CHM_CONT:	.BLKL	1		; CHANGE MODE CONTINUE ADDRESS
                           00000091  007D   155 REGS:		.BLKL	5		; AREA FOR COND INDEX REGS (R2-R6)
                           00000095  0091   156 DETUIC:		.BLKL	1		; UIC FOR DETACHED PROCESS
                           00000099  0095   157 MBXCHAN:	.BLKL	1		; CHAN NO. FOR MBOX FOR CREATED PROC
                                     0099   158 MBXCHANINFO:	STRING	O,75		; CHANNEL INFO RETURNED BY GETCHN
                           000000F0  00EC   159 MBXUNIT:	.BLKL	1		; SAVE AREA FOR MAILBOX UNIT NUMBER
                                     00F0   160 MBXBUFF:	STRING	O,120		; MAILBOX BUFFER FOR CREATED PROC
                           00000174  0170   161 PIDADR_FEX:	.BLKL	1		; PIDADR ARGUMENT FOR FORCEX
                           00000178  0174   162 PIDADR_FEX13:	.BLKL	1		; PIDADR ARGUMENT FOR FORCEX
                           0000017C  0178   163 PIDADR_FEX14:	.BLKL	1		; PIDADR ARGUMENT FOR FORCEX
                                     017C   164 DESBLK_DEH:				; DESBLK ARGUMENT FOR DCLEXH
                           00000184  017C   165 		.BLKQ	1		; EXIT CONTROL BLOCK .....
                           00000001  0184   166 		.LONG	1		; ..... # OF ARGUMENTS
                           00000188' 0188   167 		.ADDRESS .		; ADDRESS OF FIELD FOR EXIT REASON
                           00000190  018C   168 PIDADR_SPR:	.BLKL	1		; PIDADR ARGUMENT FOR SETPRI
                           00000194  0190   169 PIDADR_SPR13:	.BLKL	1		; PIDADR ARGUMENT FOR SETPRI
                           00000198  0194   170 PIDADR_SPR14:	.BLKL	1		; PIDADR ARGUMENT FOR SETPRI
                           0000019C  0198   171 PRVPRI_SPR:	.BLKL	1		; PRVPRI ARGUMENT FOR SETPRI
SATSSF06        - SATS SYSTEM SERVICE TESTS  (FAILING S.C.)      22-AUG-1978 03:43:59   VAX-11 MACRO X0.3-11               Page   5
1.0             DECLARATIONS                                                                                                     (1)

                                 00000000   173 	.PSECT	SATS_ACCVIO_1,RD,WRT,NOEXE,PAGE
                           00000200  0000   174 EMPTY:		.BLKB	512	; RESERVE A PAGE OF SPACE
                                     0200   175 ;
                                     0200   176 ; +
                                     0200   177 ; ******************************************************************
                                     0200   178 ; *                                                                *
                                     0200   179 ; * 	THE ORDER OF STATEMENTS IN THIS PSECT IS CRITICAL.         *
                                     0200   180 ; *	DO NOT RE-ARRANGE THE VARIABLES. CONSULT SATS              *
                                     0200   181 ; *	FUNCTIONAL SPECIFICATION FOR A DESCRIPTION OF THE USE      *
                                     0200   182 ; *	OF THE EMPTY PSECT (AND ITS COMPANION PSECT, NOACCESS).    *
                                     0200   183 ; *                                                                *
                                     0200   184 ; ******************************************************************
                                     0200   185 ; -
                                     0200   186 ;
                                     0200   187 ; TYPE AAAAA_SSSX1 (TYPE AAAAA_SSSX2 IF NOT DESC) GO HERE:
                           000001FF  0200   188 PIDADR_FEX12	= . - 1		; PIDADR ARGUMENT FOR FORCEX (LAST BYTE IN PAGE)
                           000001FF  0200   189 PRCNAM_FEX21	= . - 1		; PRCNAM ARGUMENT FOR FORCEX (LAST BYTE IN PAGE)
                           000001FF  0200   190 DESBLK_DEH12	= . - 1		; DESBLK ARGUMENT FOR DCLEXH (LAST BYTE IN PAGE)
                           000001FF  0200   191 PRCNAM_SPN11	= . - 1		; PRCNAM ARGUMENT FOR SETPRN (LAST BYTE IN PAGE)
                           000001FF  0200   192 PIDADR_SPR12	= . - 1		; PIDADR ARGUMENT FOR SETPRI (LAST BYTE IN PAGE)
                           000001FF  0200   193 PRCNAM_SPR21	= . - 1		; PRCNAM ARGUMENT FOR SETPRI (LAST BYTE IN PAGE)
                           000001FF  0200   194 PRVPRI_SPR42	= . - 1		; PRVPRI ARGUMENT FOR SETPR (LAST BYTE IN PAGE)
                           000001F3  0200   195 		. = . - 13	; ALLOW ROOM FOR STRING DESCRIPTOR
                                     01F3   196 ; TYPE AAAAA_SSSX5 GO HERE:
                                     01F3   197 PRCNAM_FEX25:			; PRCNAM ARGUMENT FOR FORCEX
                                     01F3   198 PRCNAM_SPN15:			; PRCNAM ARGUMENT FOR SETPRN
                                     01F3   199 PRCNAM_SPR25:			; PRCNAM ARGUMENT FOR SETPRI
                           00000006  01F3   200 		.LONG	6	; STRING LENGTH (WILL CROSS PSECT BOUNDARY)
                           000001FB' 01F7   201 		.ADDRESS .+4	; STRING ADDRESS
                                     01FB   202 ; TYPE AAAAA_SSSX3 GO HERE:
                                     01FB   203 PRCNAM_FEX23:			; PRCNAM ARGUMENT FOR FORCEX
                                     01FB   204 PRCNAM_SPN13:			; PRCNAM ARGUMENT FOR SETPRN
                                     01FB   205 PRCNAM_SPR23:			; PRCNAM ARGUMENT FOR SETPRI
                           000001FC  01FB   206 		.BLKB	1	; LOW-ORDER BYTE OF STRING LENGTH
                                     01FC   207 ; TYPE AAAAA_SSSX2 GO HERE:
                                     01FC   208 PRCNAM_FEX22:			; PRCNAM ARGUMENT FOR FORCEX
                                     01FC   209 PRCNAM_SPN12:			; PRCNAM ARGUMENT FOR SETPRN
                                     01FC   210 PRCNAM_SPR22:			; PRCNAM ARGUMENT FOR SETPRI
                           00000200  01FC   211 		.BLKL	1	; STRING LENGTH
                                     0200   212 ;
                                     0200   213 ;
                                     0200   214 ;
                                     0200   215 ;
                                 00000000   216 	.PSECT	SATS_ACCVIO_2,RD,WRT,NOEXE,PAGE
                           00000200  0000   217 NOACCESS:	.BLKB	512	; RESERVE A PAGE OF SPACE
                           00000000  0200   218 		. = . - 512	; RETURN LOC CTR TO BEGINNING OF PSECT
                           00000000' 0000   219 		.ADDRESS EMPTY	; ADDRESS OF ACCESSIBLE STRING
                           00000000' 0004   220 		.ADDRESS EMPTY/^X100 ; ADDRESS OF ACCESSIBLE STRING
                                     0008   221 ;+
                                     0008   222 ; *** NOTE -- DO NOT CHANGE LOCATION OR SEQUENCE OF ABOVE STATEMENTS!
                                     0008   223 ; ***         THIS PSECT (NOACCESS) MUST APPEAR IN MEMORY IMMEDIATELY
                                     0008   224 ; ***         FOLLOWING THE EMPTY PSECT. PSECT NAMES AND OPTIONS WILL BE
                                     0008   225 ; ***         CHOSEN TO FORCE THE DESIRED PSECT ORDERING.
                                     0008   226 ;-
                                     0008   227 ;
                                     0008   228 ;
                                     0008   229 ;
SATSSF06        - SATS SYSTEM SERVICE TESTS  (FAILING S.C.)      22-AUG-1978 03:43:59   VAX-11 MACRO X0.3-11               Page   6
1.0             DECLARATIONS                                                                                                     (1)

                                     0008   230 ;
                           00000000  0008   231 PIDADR_FEX11:	.LONG	0	; PIDADR ARGUMENT FOR FORCEX
                                     000C   232 PRCNAM_FEX20:	STRING	I,<SFFEX20> ; PRCNAM ARGUMENT FOR FORCEX
                                     001B   233 PRCNAM_SPN10:	STRING	I,<SFSPN10> ; PRCNAM ARGUMENT FOR SETPRN
                           00000000  002A   234 PIDADR_SPR11:	.LONG	0	; PIDADR ARGUMENT FOR SETPRI
                                     002E   235 PRCNAM_SPR20:	STRING	I,<SFSPR20> ; PRCNAM ARGUMENT FOR SETPRI
                           00000001  003D   236 	.MDELETE (STRING)		; NO LONGER NEED MACRO DEFINITION
                                 00000000   237 	.PSECT	SATSSF06,RD,WRT,EXE,LONG
SATSSF06        - SATS SYSTEM SERVICE TESTS  (FAILING S.C.)      22-AUG-1978 03:43:59   VAX-11 MACRO X0.3-11               Page   7
1.0             SATSSF06                                                                                                         (1)

                                     0000   239 	.SBTTL	SATSSF06
                                     0000   240 ;++
                                     0000   241 ; FUNCTIONAL DESCRIPTION:
                                     0000   242 ;
                                     0000   243 ;		AFTER PERFORMING SOME INITIAL HOUSEKEEPING, SUCH AS
                                     0000   244 ; PRINTING THE MODULE BEGIN MESSAGE AND ACQUIRING ALL PRIVILEGES,
                                     0000   245 ; THE SATSSF06 ROUTINE EXECUTES THE TEST_SERV_EXEC MACRO TO RUN
                                     0000   246 ; ALL TEST CASES. WHEN THE MACRO COMPLETES ITS EXECUTION, SATSSF06
                                     0000   247 ; PRINTS A TEST MODULE SUCCESS OR FAIL MESSAGE AND EXITS TO THE
                                     0000   248 ; OPERATING SYSTEM. TEST_SERV_EXEC CALLS THE TC_CONTROL/TESTSERV
                                     0000   249 ; CO-ROUTINE PAIR ONCE PER TEST CASE GROUP TO EXECUTE ALL TEST
                                     0000   250 ; CASES IN THAT GROUP. EACH TEST CASE GROUP IS DEFINED BY BOUNDING
                                     0000   251 ; ITS TEST CASES WITH A TC_GROUP MACRO BEFORE THE FIRST TEST CASE
                                     0000   252 ; AND A TCEND MACRO AFTER THE LAST ONE. THE TEST CASES THEMSELVES
                                     0000   253 ; ARE DEFINED WITHIN THESE BOUNDS BY PRECEDING EACH WITH A
                                     0000   254 ; NEXT_TEST_CASE MACRO. TC_CONTROL/TESTSERV EXECUTES THE CODE
                                     0000   255 ; FOLLOWING EACH NEXT_TEST_CASE MACRO IMMEDIATELY BEFORE ISSUING
                                     0000   256 ; THE SYSTEM SERVICE AS REQUESTED IN THE TESTSERV MACRO. TC_CONTROL/
                                     0000   257 ; TESTSERV ALSO CHECKS THE RESULTS OF THE SERVICE WITH RESPECT
                                     0000   258 ; TO ITS EXPECTED STATUS CODE AND PRINTS ANY REQUIRED FAILURE
                                     0000   259 ; MESSAGES FOR THE TEST CASE. THE CODE APPEARING AFTER EACH
                                     0000   260 ; NEXT_TEST_CASE MACRO IS MERELY TO SET UP CONDITIONS REQUIRED
                                     0000   261 ; FOR THE SYSTEM SERVICE AND TO CLEAN UP ANY RESOURCES ACQUIRED
                                     0000   262 ; BY THE PREVIOUS TEST CASE.
                                     0000   263 ;
                                     0000   264 ; CALLING SEQUENCE:
                                     0000   265 ;
                                     0000   266 ;	$ RUN SATSSF06  ...  (DCL COMMAND)
                                     0000   267 ;
                                     0000   268 ; INPUT PARAMETERS:
                                     0000   269 ;
                                     0000   270 ;	NONE
                                     0000   271 ;
                                     0000   272 ; IMPLICIT INPUTS:
                                     0000   273 ;
                                     0000   274 ;	NONE
                                     0000   275 ;
                                     0000   276 ; OUTPUT PARAMETERS:
                                     0000   277 ;
                                     0000   278 ;	NONE
                                     0000   279 ;
                                     0000   280 ; IMPLICIT OUTPUTS:
                                     0000   281 ;
                                     0000   282 ;	MESSAGES TO SYS$OUTPUT ARE THE ONLY OUTPUT FROM SATSSF06.
                                     0000   283 ;	THEY ARE OF THE FORM:
                                     0000   284 ;
                                     0000   285 ;		%UETP-S-SATSMS, TEST MODULE SATSSF06 BEGUN ... (BEGIN MSG)
                                     0000   286 ;		%UETP-S-SATSMS, TEST MODULE SATSSF06 SUCCESSFUL ... (END MSG)
                                     0000   287 ;		%UETP-E-SATSMS, TEST MODULE SATSSF06 FAILED ... (END MSG)
                                     0000   288 ;		%UETP-I-TEXT, ... (VARIABLE INFORMATION ABOUT A TEST MODULE FAILURE)
                                     0000   289 ;
                                     0000   290 ; COMPLETION CODES:
                                     0000   291 ;
                                     0000   292 ;	THE SATSSF06 ROUTINE TERMINATES WITH A $EXIT TO THE
                                     0000   293 ;	OPERATING SYSTEM WITH A STATUS CODE DEFINED BY UETP$_SATSMS.
                                     0000   294 ;
                                     0000   295 ; SIDE EFFECTS:
SATSSF06        - SATS SYSTEM SERVICE TESTS  (FAILING S.C.)      22-AUG-1978 03:43:59   VAX-11 MACRO X0.3-11               Page   8
1.0             SATSSF06                                                                                                         (1)

                                     0000   296 ;
                                     0000   297 ;	NONE
                                     0000   298 ;
                                     0000   299 ;--
                                     0000   300
                                     0000   301
                                     0000   302
                                     0000   303 SATSSF06:
                               0FFC  0000   304 	.WORD	^M<R2,R3,R4,R5,R6,R7,R8,R9,R10,R11>
                                     0002   305 					; ENTRY MASK
                                     0002   306 	$WAKE_S  TPID			; GET PID OF THIS PROCESS
                                     0011   307 	$HIBER_S			; UNDO WAKE
                                     0018   308 	$SETPRN_S TEST_MOD_NAME_D 	; SET PROCESS NAME
                          165C   30  0025   309 	BSBW	MOD_MSG_PRINT		; PRINT TEST MODULE BEGIN MSG
   00000060'EF   0000007D'EF     DE  0028   310 	MOVAL	TEST_MOD_SUCC,TMD_ADDR	; ASSUME END MSG WILL SHOW SUCCESS
            00            01     F0  0033   311 	INSV	#SUCCESS,#0,#3,MOD_MSG_CODE ; ADJUST STATUS CODE FOR SUCCESS
   00000044'EF            03         0036
                                     003C   312 	MODE	TO,10$,KRNL,NOREGS 	; KERNEL MODE TO ACCESS PHD
            59   00000000'9F     D0  0059   313 	MOVL	@#CTL$GL_PHD,R9		; GET PROCESS HEADER ADDRESS
   00000071'EF            69     DE  0060   314 	MOVAL	PHD$Q_PRIVMSK(R9),PRIVMASK ; GET PRIV MASK ADDRESS
                                     0067   315 	MODE	FROM,10$		; GET BACK TO USER MODE
                                     0068   316 	PRIV	ADD,ALL			; GET ALL PRIVILEGES
                                     0091   317 	$CREMBX_S CHAN=MBXCHAN, LOGNAM=DETNAME, -
                                     0091   318 		  MAXMSG=#120, PROMSK=#0, BUFQUO=#240
                                     00B4   319 					; GET MAILBOX FOR PROCESS
                                     00B4   320 	$GETCHN_S CHAN=MBXCHAN, PRIBUF=MBXCHANINFO
                                     00CE   321 					; GET CHAN INFO (UNIT NUMBER)
   000000EC'EF   000000AD'EF     3C  00CE   322 	MOVZWL	MBXCHANINFO+8+DIB$W_UNIT,MBXUNIT
                                     00D9   323 					; SAVE MAILBOX UNIT NUMBER
                                     00D9   324 	MODE	TO,20$,KRNL,NOREGS 	; KERNEL MODE TO ACCESS PCB
            59   00000000'9F     D0  00F6   325 	MOVL	@#SCH$GL_CURPCB,R9 	; GET CURRENT PCB ADDRESS
   00000091'EF         20 A9     D0  00FD   326 	MOVL	PCB$L_UIC(R9),DETUIC 	; PICK UP UIC FROM PCB
                                     0105   327 	MODE	FROM,20$		; ... AND GET BACK TO USER MODE
                                     0106   328 	$CREPRC_S IMAGE=DETIMAGE, PRCNAM=DETNAME, -
                                     0106   329 		  UIC=DETUIC, MBXUNT=MBXUNIT
                                     0136   330 					; CREATE DETACHED PROC WITH SAME UIC
                                     0136   331 	DISPSERV			; SET UP DISPLAY INFO FOR TESTSERV
                                     02CB   332 	$SETPRT_S INADR=INADR, RETADR=RETADR, -
                                     02CB   333 		  PROT=PROT, PRVPRT=PRVPRT
                                     02EC   334 					; SET NOACCESS PSECT ...
                                     02EC   335 					; ... FOR NO USER ACCESS
                          11A5   31  02EC   336 	BRW	EXECUTE			; GO EXECUTE ALL TEST CASES
                                     02EF   337 	TC_GROUP	FEX,1,TS1
                                     0316   338 ;
                                     0316   339 	NEXT_TEST_CASE	SFFEX10
SATSSF06        - SATS SYSTEM SERVICE TESTS  (FAILING S.C.)      22-AUG-1978 03:43:59   VAX-11 MACRO X0.3-11               Page   9
1.0             SFFEX10                                                                                                          (1)

                                     0316   340 ;
                                     0316   341 ;++
                                     0316   342 ; ******************************************************
                                     0316   343 ; *
                                     0316   344 ; *  TEST CASE NAME:		SFFEX10
                                     0316   345 ; *
                                     0316   346 ; *  SYSTEM SERVICE:		FORCEX
                                     0316   347 ; *
                                     0316   348 ; *  ARGUMENT UNDER TEST: 	PIDADR_FEX10
                                     0316   349 ; *
                                     0316   350 ; *  INPUT CONDITIONS:
                                     0316   351 ; *	PIDADR FIELD AT LOCATION 1
                                     0316   352 ; *
                                     0316   353 ; *  EXPECTED RESULTS:
                                     0316   354 ; *	1) SYSTEM STATUS CODE:	ACCVIO
                                     0316   355 ; *	2) REGISTERS R2 THROUGH FP UNCHANGED
                                     0316   356 ; *
                                     0316   357 ; ******************************************************
                                     0316   358 ;--
                                     0316   359 ;
                                     0316   360 ;
                                     0316   361 	NEXT_TEST_CASE	SFFEX11
SATSSF06        - SATS SYSTEM SERVICE TESTS  (FAILING S.C.)      22-AUG-1978 03:43:59   VAX-11 MACRO X0.3-11               Page  10
1.0             SFFEX11                                                                                                          (1)

                                     0322   362 ;
                                     0322   363 ;++
                                     0322   364 ; ******************************************************
                                     0322   365 ; *
                                     0322   366 ; *  TEST CASE NAME:		SFFEX11
                                     0322   367 ; *
                                     0322   368 ; *  SYSTEM SERVICE:		FORCEX
                                     0322   369 ; *
                                     0322   370 ; *  ARGUMENT UNDER TEST: 	PIDADR_FEX11
                                     0322   371 ; *
                                     0322   372 ; *  INPUT CONDITIONS:
                                     0322   373 ; *	PIDADR FIELD IN NON-ACCESSIBLE PSECT
                                     0322   374 ; *
                                     0322   375 ; *  EXPECTED RESULTS:
                                     0322   376 ; *	1) SYSTEM STATUS CODE:	ACCVIO
                                     0322   377 ; *	2) REGISTERS R2 THROUGH FP UNCHANGED
                                     0322   378 ; *
                                     0322   379 ; ******************************************************
                                     0322   380 ;--
                                     0322   381 ;
                                     0322   382 ;
                                     0322   383 	NEXT_TEST_CASE	SFFEX12
SATSSF06        - SATS SYSTEM SERVICE TESTS  (FAILING S.C.)      22-AUG-1978 03:43:59   VAX-11 MACRO X0.3-11               Page  11
1.0             SFFEX12                                                                                                          (1)

                                     032E   384 ;
                                     032E   385 ;++
                                     032E   386 ; ******************************************************
                                     032E   387 ; *
                                     032E   388 ; *  TEST CASE NAME:		SFFEX12
                                     032E   389 ; *
                                     032E   390 ; *  SYSTEM SERVICE:		FORCEX
                                     032E   391 ; *
                                     032E   392 ; *  ARGUMENT UNDER TEST: 	PIDADR_FEX12
                                     032E   393 ; *
                                     032E   394 ; *  INPUT CONDITIONS:
                                     032E   395 ; *	PIDADR FIELD BEGINS IN ACCESSIBLE PSECT, ENDS
                                     032E   396 ; *	  IN NON-ACCESSIBLE PSECT.
                                     032E   397 ; *
                                     032E   398 ; *  EXPECTED RESULTS:
                                     032E   399 ; *	1) SYSTEM STATUS CODE:	ACCVIO
                                     032E   400 ; *	2) REGISTERS R2 THROUGH FP UNCHANGED
                                     032E   401 ; *
                                     032E   402 ; ******************************************************
                                     032E   403 ;--
                                     032E   404 ;
                                     032E   405 ;
                                     032E   406 	NEXT_TEST_CASE	SFFEX13
SATSSF06        - SATS SYSTEM SERVICE TESTS  (FAILING S.C.)      22-AUG-1978 03:43:59   VAX-11 MACRO X0.3-11               Page  12
1.0             SFFEX13                                                                                                          (1)

                                     033A   407 ;
                                     033A   408 ;++
                                     033A   409 ; ******************************************************
                                     033A   410 ; *
                                     033A   411 ; *  TEST CASE NAME:		SFFEX13
                                     033A   412 ; *
                                     033A   413 ; *  SYSTEM SERVICE:		FORCEX
                                     033A   414 ; *
                                     033A   415 ; *  ARGUMENT UNDER TEST: 	PIDADR_FEX13
                                     033A   416 ; *
                                     033A   417 ; *  INPUT CONDITIONS:
                                     033A   418 ; *	INVALID PROCESS ID
                                     033A   419 ; *
                                     033A   420 ; *  EXPECTED RESULTS:
                                     033A   421 ; *	1) SYSTEM STATUS CODE:	NONEXPR
                                     033A   422 ; *	2) REGISTERS R2 THROUGH FP UNCHANGED
                                     033A   423 ; *
                                     033A   424 ; ******************************************************
                                     033A   425 ;--
                                     033A   426 ;
   00000174'EF   00000000'EF     D0  033A   427 	MOVL	TPID,PIDADR_FEX13 ; GET A VALID PID
   00000174'EF         FF 8F     99  0345   428 	CVTBW	#-1,PIDADR_FEX13  ; MAKE IT INVALID
                                     034D   429 ;
                                     034D   430 	NEXT_TEST_CASE	SFFEX14
SATSSF06        - SATS SYSTEM SERVICE TESTS  (FAILING S.C.)      22-AUG-1978 03:43:59   VAX-11 MACRO X0.3-11               Page  13
1.0             SFFEX14                                                                                                          (1)

                                     0359   431 ;
                                     0359   432 ;++
                                     0359   433 ; ******************************************************
                                     0359   434 ; *
                                     0359   435 ; *  TEST CASE NAME:		SFFEX14
                                     0359   436 ; *
                                     0359   437 ; *  SYSTEM SERVICE:		FORCEX
                                     0359   438 ; *
                                     0359   439 ; *  ARGUMENT UNDER TEST: 	PIDADR_FEX14
                                     0359   440 ; *
                                     0359   441 ; *  INPUT CONDITIONS:
                                     0359   442 ; *	VALID, NON-EXISTENT PROCESS ID
                                     0359   443 ; *
                                     0359   444 ; *  EXPECTED RESULTS:
                                     0359   445 ; *	1) SYSTEM STATUS CODE:	NONEXPR
                                     0359   446 ; *	2) REGISTERS R2 THROUGH FP UNCHANGED
                                     0359   447 ; *
                                     0359   448 ; ******************************************************
                                     0359   449 ;--
                                     0359   450 ;
   00000178'EF   00000000'EF     D0  0359   451 	MOVL	TPID,PIDADR_FEX14 ; GET AN EXISTENT PID
   0000017A'EF       1770 8F     B0  0364   452 	MOVW	#6000,PIDADR_FEX14+2 ; MAKE IT NON-EXISTENT
                                     036D   453 ;
                                     036D   454 	NEXT_TEST_CASE	SFFEX20
SATSSF06        - SATS SYSTEM SERVICE TESTS  (FAILING S.C.)      22-AUG-1978 03:43:59   VAX-11 MACRO X0.3-11               Page  14
1.0             SFFEX20                                                                                                          (1)

                                     0379   455 ;
                                     0379   456 ;++
                                     0379   457 ; ******************************************************
                                     0379   458 ; *
                                     0379   459 ; *  TEST CASE NAME:		SFFEX20
                                     0379   460 ; *
                                     0379   461 ; *  SYSTEM SERVICE:		FORCEX
                                     0379   462 ; *
                                     0379   463 ; *  ARGUMENT UNDER TEST: 	PRCNAM_FEX20
                                     0379   464 ; *
                                     0379   465 ; *  INPUT CONDITIONS:
                                     0379   466 ; *	PRCNAM STRING DESCRIPTOR LENGTH FIELD IN
                                     0379   467 ; *	  NON-ACCESSIBLE PSECT.
                                     0379   468 ; *
                                     0379   469 ; *  EXPECTED RESULTS:
                                     0379   470 ; *	1) SYSTEM STATUS CODE:	ACCVIO
                                     0379   471 ; *	2) REGISTERS R2 THROUGH FP UNCHANGED
                                     0379   472 ; *
                                     0379   473 ; ******************************************************
                                     0379   474 ;--
                                     0379   475 ;
                 00000170'EF     D4  0379   476 	CLRL	PIDADR_FEX	; MAKE SURE PRCNAM IS USED BY FORCEX
                                     037F   477 ;
                                     037F   478 	NEXT_TEST_CASE	SFFEX21
SATSSF06        - SATS SYSTEM SERVICE TESTS  (FAILING S.C.)      22-AUG-1978 03:43:59   VAX-11 MACRO X0.3-11               Page  15
1.0             SFFEX21                                                                                                          (1)

                                     038B   479 ;
                                     038B   480 ;++
                                     038B   481 ; ******************************************************
                                     038B   482 ; *
                                     038B   483 ; *  TEST CASE NAME:		SFFEX21
                                     038B   484 ; *
                                     038B   485 ; *  SYSTEM SERVICE:		FORCEX
                                     038B   486 ; *
                                     038B   487 ; *  ARGUMENT UNDER TEST: 	PRCNAM_FEX21
                                     038B   488 ; *
                                     038B   489 ; *  INPUT CONDITIONS:
                                     038B   490 ; *	PRCNAM STRING DESCRIPTOR LENGTH FIELD BEGINS IN
                                     038B   491 ; *	  ACCESSIBLE PSECT, ENDS IN NON-ACCESSIBLE PSECT.
                                     038B   492 ; *
                                     038B   493 ; *  EXPECTED RESULTS:
                                     038B   494 ; *	1) SYSTEM STATUS CODE:	ACCVIO
                                     038B   495 ; *	2) REGISTERS R2 THROUGH FP UNCHANGED
                                     038B   496 ; *
                                     038B   497 ; ******************************************************
                                     038B   498 ;--
                                     038B   499 ;
                 00000170'EF     D4  038B   500 	CLRL	PIDADR_FEX	; MAKE SURE PRCNAM IS USED BY FORCEX
                                     0391   501 ;
                                     0391   502 	NEXT_TEST_CASE	SFFEX22
SATSSF06        - SATS SYSTEM SERVICE TESTS  (FAILING S.C.)      22-AUG-1978 03:43:59   VAX-11 MACRO X0.3-11               Page  16
1.0             SFFEX22                                                                                                          (1)

                                     039D   503 ;
                                     039D   504 ;++
                                     039D   505 ; ******************************************************
                                     039D   506 ; *
                                     039D   507 ; *  TEST CASE NAME:		SFFEX22
                                     039D   508 ; *
                                     039D   509 ; *  SYSTEM SERVICE:		FORCEX
                                     039D   510 ; *
                                     039D   511 ; *  ARGUMENT UNDER TEST: 	PRCNAM_FEX22
                                     039D   512 ; *
                                     039D   513 ; *  INPUT CONDITIONS:
                                     039D   514 ; *	PRCNAM STRING DESCRIPTOR ADDRESS FIELD IN
                                     039D   515 ; *	  NON-ACCESSIBLE PSECT.
                                     039D   516 ; *
                                     039D   517 ; *  EXPECTED RESULTS:
                                     039D   518 ; *	1) SYSTEM STATUS CODE:	ACCVIO
                                     039D   519 ; *	2) REGISTERS R2 THROUGH FP UNCHANGED
                                     039D   520 ; *
                                     039D   521 ; ******************************************************
                                     039D   522 ;--
                                     039D   523 ;
                 00000170'EF     D4  039D   524 	CLRL	PIDADR_FEX	; MAKE SURE PRCNAM IS USED BY FORCEX
   000001FC'EF            03     9A  03A3   525 	MOVZBL	#3,PRCNAM_FEX22	; ESTABLISH PRCNAM STRING LENGTH
                                     03AA   526 ;
                                     03AA   527 	NEXT_TEST_CASE	SFFEX23
SATSSF06        - SATS SYSTEM SERVICE TESTS  (FAILING S.C.)      22-AUG-1978 03:43:59   VAX-11 MACRO X0.3-11               Page  17
1.0             SFFEX23                                                                                                          (1)

                                     03B6   528 ;
                                     03B6   529 ;++
                                     03B6   530 ; ******************************************************
                                     03B6   531 ; *
                                     03B6   532 ; *  TEST CASE NAME:		SFFEX23
                                     03B6   533 ; *
                                     03B6   534 ; *  SYSTEM SERVICE:		FORCEX
                                     03B6   535 ; *
                                     03B6   536 ; *  ARGUMENT UNDER TEST: 	PRCNAM_FEX23
                                     03B6   537 ; *
                                     03B6   538 ; *  INPUT CONDITIONS:
                                     03B6   539 ; *	PRCNAM STRING DESCRIPTOR ADDRESS FIELD BEGINS IN
                                     03B6   540 ; *	  ACCESSIBLE PSECT, ENDS IN NON-ACCESSIBLE PSECT.
                                     03B6   541 ; *
                                     03B6   542 ; *  EXPECTED RESULTS:
                                     03B6   543 ; *	1) SYSTEM STATUS CODE:	ACCVIO
                                     03B6   544 ; *	2) REGISTERS R2 THROUGH FP UNCHANGED
                                     03B6   545 ; *
                                     03B6   546 ; ******************************************************
                                     03B6   547 ;--
                                     03B6   548 ;
                 00000170'EF     D4  03B6   549 	CLRL	PIDADR_FEX	; MAKE SURE PRCNAM IS USED BY FORCEX
   000001FB'EF            03     9A  03BC   550 	MOVZBL	#3,PRCNAM_FEX23	; ESTABLISH PRCNAM STRING LENGTH
                                     03C3   551 ;
                                     03C3   552 	NEXT_TEST_CASE	SFFEX24
SATSSF06        - SATS SYSTEM SERVICE TESTS  (FAILING S.C.)      22-AUG-1978 03:43:59   VAX-11 MACRO X0.3-11               Page  18
1.0             SFFEX24                                                                                                          (1)

                                     03CF   553 ;
                                     03CF   554 ;++
                                     03CF   555 ; ******************************************************
                                     03CF   556 ; *
                                     03CF   557 ; *  TEST CASE NAME:		SFFEX24
                                     03CF   558 ; *
                                     03CF   559 ; *  SYSTEM SERVICE:		FORCEX
                                     03CF   560 ; *
                                     03CF   561 ; *  ARGUMENT UNDER TEST: 	PRCNAM_FEX24
                                     03CF   562 ; *
                                     03CF   563 ; *  INPUT CONDITIONS:
                                     03CF   564 ; *	PRCNAM STRING IN NON-ACCESSIBLE PSECT
                                     03CF   565 ; *
                                     03CF   566 ; *  EXPECTED RESULTS:
                                     03CF   567 ; *	1) SYSTEM STATUS CODE:	ACCVIO
                                     03CF   568 ; *	2) REGISTERS R2 THROUGH FP UNCHANGED
                                     03CF   569 ; *
                                     03CF   570 ; ******************************************************
                                     03CF   571 ;--
                                     03CF   572 ;
                 00000170'EF     D4  03CF   573 	CLRL	PIDADR_FEX	; MAKE SURE PRCNAM IS USED BY FORCEX
                                     03D5   574 ;
                                     03D5   575 	TCEND
SATSSF06        - SATS SYSTEM SERVICE TESTS  (FAILING S.C.)      22-AUG-1978 03:43:59   VAX-11 MACRO X0.3-11               Page  19
1.0                                                                                                                              (1)

                                     03D6   576 	TC_GROUP	FEX,2,TS2
                                     03FD   577 ;
                                     03FD   578 	NEXT_TEST_CASE	SFFEX25
SATSSF06        - SATS SYSTEM SERVICE TESTS  (FAILING S.C.)      22-AUG-1978 03:43:59   VAX-11 MACRO X0.3-11               Page  20
1.0             SFFEX25                                                                                                          (1)

                                     03FD   579 ;
                                     03FD   580 ;++
                                     03FD   581 ; ******************************************************
                                     03FD   582 ; *
                                     03FD   583 ; *  TEST CASE NAME:		SFFEX25
                                     03FD   584 ; *
                                     03FD   585 ; *  SYSTEM SERVICE:		FORCEX
                                     03FD   586 ; *
                                     03FD   587 ; *  ARGUMENT UNDER TEST: 	PRCNAM_FEX25
                                     03FD   588 ; *
                                     03FD   589 ; *  INPUT CONDITIONS:
                                     03FD   590 ; *	PRCNAM STRING BEGINS IN ACCESSIBLE PSECT,
                                     03FD   591 ; *	  ENDS IN NON-ACCESSIBLE PSECT.
                                     03FD   592 ; *
                                     03FD   593 ; *  EXPECTED RESULTS:
                                     03FD   594 ; *	1) SYSTEM STATUS CODE:	ACCVIO
                                     03FD   595 ; *	2) REGISTERS R2 THROUGH FP UNCHANGED
                                     03FD   596 ; *
                                     03FD   597 ; ******************************************************
                                     03FD   598 ;--
                                     03FD   599 ;
                 00000170'EF     D4  03FD   600 	CLRL	PIDADR_FEX	; MAKE SURE PRCNAM IS USED BY FORCEX
                                     0403   601 ;
                                     0403   602 	NEXT_TEST_CASE	SFFEX26
SATSSF06        - SATS SYSTEM SERVICE TESTS  (FAILING S.C.)      22-AUG-1978 03:43:59   VAX-11 MACRO X0.3-11               Page  21
1.0             SFFEX26                                                                                                          (1)

                                     040F   603 ;
                                     040F   604 ;++
                                     040F   605 ; ******************************************************
                                     040F   606 ; *
                                     040F   607 ; *  TEST CASE NAME:		SFFEX26
                                     040F   608 ; *
                                     040F   609 ; *  SYSTEM SERVICE:		FORCEX
                                     040F   610 ; *
                                     040F   611 ; *  ARGUMENT UNDER TEST: 	PRCNAM_FEX26
                                     040F   612 ; *
                                     040F   613 ; *  INPUT CONDITIONS:
                                     040F   614 ; *	NON-EXISTENT PROCESS NAME
                                     040F   615 ; *
                                     040F   616 ; *  EXPECTED RESULTS:
                                     040F   617 ; *	1) SYSTEM STATUS CODE:	NONEXPR
                                     040F   618 ; *	2) REGISTERS R2 THROUGH FP UNCHANGED
                                     040F   619 ; *
                                     040F   620 ; ******************************************************
                                     040F   621 ;--
                                     040F   622 ;
                 00000170'EF     D4  040F   623 	CLRL	PIDADR_FEX	; MAKE SURE PRCNAM IS USED BY FORCEX
                                     0415   624 ;
                                     0415   625 	NEXT_TEST_CASE	SFFEX27
SATSSF06        - SATS SYSTEM SERVICE TESTS  (FAILING S.C.)      22-AUG-1978 03:43:59   VAX-11 MACRO X0.3-11               Page  22
1.0             SFFEX27                                                                                                          (1)

                                     0421   626 ;
                                     0421   627 ;++
                                     0421   628 ; ******************************************************
                                     0421   629 ; *
                                     0421   630 ; *  TEST CASE NAME:		SFFEX27
                                     0421   631 ; *
                                     0421   632 ; *  SYSTEM SERVICE:		FORCEX
                                     0421   633 ; *
                                     0421   634 ; *  ARGUMENT UNDER TEST: 	PRCNAM_FEX27
                                     0421   635 ; *
                                     0421   636 ; *  INPUT CONDITIONS:
                                     0421   637 ; *	INVALID PROCESS NAME (LENGTH 0)
                                     0421   638 ; *
                                     0421   639 ; *  EXPECTED RESULTS:
                                     0421   640 ; *	1) SYSTEM STATUS CODE:	IVLOGNAM
                                     0421   641 ; *	2) REGISTERS R2 THROUGH FP UNCHANGED
                                     0421   642 ; *
                                     0421   643 ; ******************************************************
                                     0421   644 ;--
                                     0421   645 ;
                 00000170'EF     D4  0421   646 	CLRL	PIDADR_FEX	; MAKE SURE PRCNAM IS USED BY FORCEX
                                     0427   647 ;
                                     0427   648 	NEXT_TEST_CASE	SFFEX28
SATSSF06        - SATS SYSTEM SERVICE TESTS  (FAILING S.C.)      22-AUG-1978 03:43:59   VAX-11 MACRO X0.3-11               Page  23
1.0             SFFEX28                                                                                                          (1)

                                     0433   649 ;
                                     0433   650 ;++
                                     0433   651 ; ******************************************************
                                     0433   652 ; *
                                     0433   653 ; *  TEST CASE NAME:		SFFEX28
                                     0433   654 ; *
                                     0433   655 ; *  SYSTEM SERVICE:		FORCEX
                                     0433   656 ; *
                                     0433   657 ; *  ARGUMENT UNDER TEST: 	PRCNAM_FEX28
                                     0433   658 ; *
                                     0433   659 ; *  INPUT CONDITIONS:
                                     0433   660 ; *	INVALID PROCESS NAME (LENGTH 16)
                                     0433   661 ; *
                                     0433   662 ; *  EXPECTED RESULTS:
                                     0433   663 ; *	1) SYSTEM STATUS CODE:	IVLOGNAM
                                     0433   664 ; *	2) REGISTERS R2 THROUGH FP UNCHANGED
                                     0433   665 ; *
                                     0433   666 ; ******************************************************
                                     0433   667 ;--
                                     0433   668 ;
                 00000170'EF     D4  0433   669 	CLRL	PIDADR_FEX	; MAKE SURE PRCNAM IS USED BY FORCEX
                                     0439   670 ;
                                     0439   671 	NEXT_TEST_CASE	SFFEX29
SATSSF06        - SATS SYSTEM SERVICE TESTS  (FAILING S.C.)      22-AUG-1978 03:43:59   VAX-11 MACRO X0.3-11               Page  24
1.0             SFFEX29                                                                                                          (1)

                                     0445   672 ;
                                     0445   673 ;++
                                     0445   674 ; ******************************************************
                                     0445   675 ; *
                                     0445   676 ; *  TEST CASE NAME:		SFFEX29
                                     0445   677 ; *
                                     0445   678 ; *  SYSTEM SERVICE:		FORCEX
                                     0445   679 ; *
                                     0445   680 ; *  ARGUMENT UNDER TEST: 	PRCNAM_FEX29
                                     0445   681 ; *
                                     0445   682 ; *  INPUT CONDITIONS:
                                     0445   683 ; *	FORCEX ISSUED FOR EXISTING PROCESS WHICH IS NOT A
                                     0445   684 ; *	  SUBPROCESS OF THIS PROCESS, AND THIS PROCESS HAS
                                     0445   685 ; *	  NO GROUP OR WORLD PRIVILEGE.
                                     0445   686 ; *
                                     0445   687 ; *  EXPECTED RESULTS:
                                     0445   688 ; *	1) SYSTEM STATUS CODE:	NOPRIV
                                     0445   689 ; *	2) REGISTERS R2 THROUGH FP UNCHANGED
                                     0445   690 ; *
                                     0445   691 ; ******************************************************
                                     0445   692 ;--
                                     0445   693 ;
                                     0445   694 	PRIV	REM,GROUP	; REMOVE GROUP PRIVILEGE
                                     046C   695 	PRIV	REM,WORLD	; REMOVE WORLD PRIVILEGE
                 00000170'EF     D4  0493   696 	CLRL	PIDADR_FEX	; MAKE SURE PRCNAM IS USED BY FORCEX
                                     0499   697 ;
                                     0499   698 	TCEND
SATSSF06        - SATS SYSTEM SERVICE TESTS  (FAILING S.C.)      22-AUG-1978 03:43:59   VAX-11 MACRO X0.3-11               Page  25
1.0                                                                                                                              (1)

                                     049A   699 ;
                                     049A   700 	TC_GROUP	DEH,1,TS3
                                     04C1   701 ;
                                     04C1   702 	NEXT_TEST_CASE	SFDEH10
SATSSF06        - SATS SYSTEM SERVICE TESTS  (FAILING S.C.)      22-AUG-1978 03:43:59   VAX-11 MACRO X0.3-11               Page  26
1.0             SFDEH10                                                                                                          (1)

                                     04C1   703 ;
                                     04C1   704 ;++
                                     04C1   705 ; ******************************************************
                                     04C1   706 ; *
                                     04C1   707 ; *  TEST CASE NAME:		SFDEH10
                                     04C1   708 ; *
                                     04C1   709 ; *  SYSTEM SERVICE:		DCLEXH
                                     04C1   710 ; *
                                     04C1   711 ; *  ARGUMENT UNDER TEST: 	DESBLK_DEH10
                                     04C1   712 ; *
                                     04C1   713 ; *  INPUT CONDITIONS:
                                     04C1   714 ; *	EXIT CONTROL BLOCK AT LOCATION 0
                                     04C1   715 ; *
                                     04C1   716 ; *  EXPECTED RESULTS:
                                     04C1   717 ; *	1) SYSTEM STATUS CODE:	NOHANDLER
                                     04C1   718 ; *	2) REGISTERS R2 THROUGH FP UNCHANGED
                                     04C1   719 ; *
                                     04C1   720 ; ******************************************************
                                     04C1   721 ;--
                                     04C1   722 ;
                                     04C1   723 	PRIV	ADD,ALL		; GET BACK SOME PRIVS REMOVED BY PRIOR T.C.
                                     04EA   724 ;
                                     04EA   725 	NEXT_TEST_CASE	SFDEH11
SATSSF06        - SATS SYSTEM SERVICE TESTS  (FAILING S.C.)      22-AUG-1978 03:43:59   VAX-11 MACRO X0.3-11               Page  27
1.0             SFDEH11                                                                                                          (1)

                                     04F6   726 ;
                                     04F6   727 ;++
                                     04F6   728 ; ******************************************************
                                     04F6   729 ; *
                                     04F6   730 ; *  TEST CASE NAME:		SFDEH11
                                     04F6   731 ; *
                                     04F6   732 ; *  SYSTEM SERVICE:		DCLEXH
                                     04F6   733 ; *
                                     04F6   734 ; *  ARGUMENT UNDER TEST: 	DESBLK_DEH11
                                     04F6   735 ; *
                                     04F6   736 ; *  INPUT CONDITIONS:
                                     04F6   737 ; *	EXIT CONTROL BLOCK IN NON-ACCESSIBLE PSECT
                                     04F6   738 ; *
                                     04F6   739 ; *  EXPECTED RESULTS:
                                     04F6   740 ; *	1) SYSTEM STATUS CODE:	ACCVIO
                                     04F6   741 ; *	2) REGISTERS R2 THROUGH FP UNCHANGED
                                     04F6   742 ; *
                                     04F6   743 ; ******************************************************
                                     04F6   744 ;--
                                     04F6   745 ;
                                     04F6   746 ;
                                     04F6   747 	NEXT_TEST_CASE	SFDEH12
SATSSF06        - SATS SYSTEM SERVICE TESTS  (FAILING S.C.)      22-AUG-1978 03:43:59   VAX-11 MACRO X0.3-11               Page  28
1.0             SFDEH12                                                                                                          (1)

                                     0502   748 ;
                                     0502   749 ;++
                                     0502   750 ; ******************************************************
                                     0502   751 ; *
                                     0502   752 ; *  TEST CASE NAME:		SFDEH12
                                     0502   753 ; *
                                     0502   754 ; *  SYSTEM SERVICE:		DCLEXH
                                     0502   755 ; *
                                     0502   756 ; *  ARGUMENT UNDER TEST: 	DESBLK_DEH12
                                     0502   757 ; *
                                     0502   758 ; *  INPUT CONDITIONS:
                                     0502   759 ; *	EXIT CONTROL BLOCK BEGINS IN ACCESSIBLE
                                     0502   760 ; *	  PSECT, ENDS IN NON-ACCESSIBLE PSECT.
                                     0502   761 ; *
                                     0502   762 ; *  EXPECTED RESULTS:
                                     0502   763 ; *	1) SYSTEM STATUS CODE:	ACCVIO
                                     0502   764 ; *	2) REGISTERS R2 THROUGH FP UNCHANGED
                                     0502   765 ; *
                                     0502   766 ; ******************************************************
                                     0502   767 ;--
                                     0502   768 ;
                                     0502   769 ;
                                     0502   770 	TCEND
SATSSF06        - SATS SYSTEM SERVICE TESTS  (FAILING S.C.)      22-AUG-1978 03:43:59   VAX-11 MACRO X0.3-11               Page  29
1.0                                                                                                                              (1)

                                     0503   771 ;
                                     0503   772 	TC_GROUP	SPN,1,TS4
                                     052A   773 ;
                                     052A   774 	NEXT_TEST_CASE	SFSPN10
SATSSF06        - SATS SYSTEM SERVICE TESTS  (FAILING S.C.)      22-AUG-1978 03:43:59   VAX-11 MACRO X0.3-11               Page  30
1.0             SFSPN10                                                                                                          (1)

                                     052A   775 ;
                                     052A   776 ;++
                                     052A   777 ; ******************************************************
                                     052A   778 ; *
                                     052A   779 ; *  TEST CASE NAME:		SFSPN10
                                     052A   780 ; *
                                     052A   781 ; *  SYSTEM SERVICE:		SETPRN
                                     052A   782 ; *
                                     052A   783 ; *  ARGUMENT UNDER TEST: 	PRCNAM_SPN10
                                     052A   784 ; *
                                     052A   785 ; *  INPUT CONDITIONS:
                                     052A   786 ; *	PRCNAM STRING DESCRIPTOR LENGTH FIELD IN
                                     052A   787 ; *	  NON-ACCESSIBLE PSECT.
                                     052A   788 ; *
                                     052A   789 ; *  EXPECTED RESULTS:
                                     052A   790 ; *	1) SYSTEM STATUS CODE:	ACCVIO
                                     052A   791 ; *	2) REGISTERS R2 THROUGH FP UNCHANGED
                                     052A   792 ; *
                                     052A   793 ; ******************************************************
                                     052A   794 ;--
                                     052A   795 ;
                                     052A   796 ;
                                     052A   797 	NEXT_TEST_CASE	SFSPN11
SATSSF06        - SATS SYSTEM SERVICE TESTS  (FAILING S.C.)      22-AUG-1978 03:43:59   VAX-11 MACRO X0.3-11               Page  31
1.0             SFSPN11                                                                                                          (1)

                                     0536   798 ;
                                     0536   799 ;++
                                     0536   800 ; ******************************************************
                                     0536   801 ; *
                                     0536   802 ; *  TEST CASE NAME:		SFSPN11
                                     0536   803 ; *
                                     0536   804 ; *  SYSTEM SERVICE:		SETPRN
                                     0536   805 ; *
                                     0536   806 ; *  ARGUMENT UNDER TEST: 	PRCNAM_SPN11
                                     0536   807 ; *
                                     0536   808 ; *  INPUT CONDITIONS:
                                     0536   809 ; *	PRCNAM STRING DESCRIPTOR LENGTH FIELD BEGINS IN
                                     0536   810 ; *	  ACCESSIBLE PSECT, ENDS IN NON-ACCESSIBLE PSECT.
                                     0536   811 ; *
                                     0536   812 ; *  EXPECTED RESULTS:
                                     0536   813 ; *	1) SYSTEM STATUS CODE:	ACCVIO
                                     0536   814 ; *	2) REGISTERS R2 THROUGH FP UNCHANGED
                                     0536   815 ; *
                                     0536   816 ; ******************************************************
                                     0536   817 ;--
                                     0536   818 ;
                                     0536   819 ;
                                     0536   820 	NEXT_TEST_CASE	SFSPN12
SATSSF06        - SATS SYSTEM SERVICE TESTS  (FAILING S.C.)      22-AUG-1978 03:43:59   VAX-11 MACRO X0.3-11               Page  32
1.0             SFSPN12                                                                                                          (1)

                                     0542   821 ;
                                     0542   822 ;++
                                     0542   823 ; ******************************************************
                                     0542   824 ; *
                                     0542   825 ; *  TEST CASE NAME:		SFSPN12
                                     0542   826 ; *
                                     0542   827 ; *  SYSTEM SERVICE:		SETPRN
                                     0542   828 ; *
                                     0542   829 ; *  ARGUMENT UNDER TEST: 	PRCNAM_SPN12
                                     0542   830 ; *
                                     0542   831 ; *  INPUT CONDITIONS:
                                     0542   832 ; *	PRCNAM STRING DESCRIPTOR ADDRESS FIELD IN
                                     0542   833 ; *	  NON-ACCESSIBLE PSECT.
                                     0542   834 ; *
                                     0542   835 ; *  EXPECTED RESULTS:
                                     0542   836 ; *	1) SYSTEM STATUS CODE:	ACCVIO
                                     0542   837 ; *	2) REGISTERS R2 THROUGH FP UNCHANGED
                                     0542   838 ; *
                                     0542   839 ; ******************************************************
                                     0542   840 ;--
                                     0542   841 ;
   000001FC'EF            03     9A  0542   842 	MOVZBL	#3,PRCNAM_SPN12		; ESTABLISH STRING LENGTH
                                     0549   843 ;
                                     0549   844 	NEXT_TEST_CASE	SFSPN13
SATSSF06        - SATS SYSTEM SERVICE TESTS  (FAILING S.C.)      22-AUG-1978 03:43:59   VAX-11 MACRO X0.3-11               Page  33
1.0             SFSPN13                                                                                                          (1)

                                     0555   845 ;
                                     0555   846 ;++
                                     0555   847 ; ******************************************************
                                     0555   848 ; *
                                     0555   849 ; *  TEST CASE NAME:		SFSPN13
                                     0555   850 ; *
                                     0555   851 ; *  SYSTEM SERVICE:		SETPRN
                                     0555   852 ; *
                                     0555   853 ; *  ARGUMENT UNDER TEST: 	PRCNAM_SPN13
                                     0555   854 ; *
                                     0555   855 ; *  INPUT CONDITIONS:
                                     0555   856 ; *	PRCNAM STRING DESCRIPTOR ADDRESS FIELD BEGINS IN
                                     0555   857 ; *	  ACCESSIBLE PSECT, ENDS IN NON-ACCESSIBLE PSECT.
                                     0555   858 ; *
                                     0555   859 ; *  EXPECTED RESULTS:
                                     0555   860 ; *	1) SYSTEM STATUS CODE:	ACCVIO
                                     0555   861 ; *	2) REGISTERS R2 THROUGH FP UNCHANGED
                                     0555   862 ; *
                                     0555   863 ; ******************************************************
                                     0555   864 ;--
                                     0555   865 ;
   000001FB'EF            03     9A  0555   866 	MOVZBL	#3,PRCNAM_SPN13		; ESTABLISH STRING LENGTH
                                     055C   867 ;
                                     055C   868 	NEXT_TEST_CASE	SFSPN14
SATSSF06        - SATS SYSTEM SERVICE TESTS  (FAILING S.C.)      22-AUG-1978 03:43:59   VAX-11 MACRO X0.3-11               Page  34
1.0             SFSPN14                                                                                                          (1)

                                     0568   869 ;
                                     0568   870 ;++
                                     0568   871 ; ******************************************************
                                     0568   872 ; *
                                     0568   873 ; *  TEST CASE NAME:		SFSPN14
                                     0568   874 ; *
                                     0568   875 ; *  SYSTEM SERVICE:		SETPRN
                                     0568   876 ; *
                                     0568   877 ; *  ARGUMENT UNDER TEST: 	PRCNAM_SPN14
                                     0568   878 ; *
                                     0568   879 ; *  INPUT CONDITIONS:
                                     0568   880 ; *	PRCNAM STRING IN NON-ACCESSIBLE PSECT
                                     0568   881 ; *
                                     0568   882 ; *  EXPECTED RESULTS:
                                     0568   883 ; *	1) SYSTEM STATUS CODE:	ACCVIO
                                     0568   884 ; *	2) REGISTERS R2 THROUGH FP UNCHANGED
                                     0568   885 ; *
                                     0568   886 ; ******************************************************
                                     0568   887 ;--
                                     0568   888 ;
                                     0568   889 ;
                                     0568   890 	TCEND
SATSSF06        - SATS SYSTEM SERVICE TESTS  (FAILING S.C.)      22-AUG-1978 03:43:59   VAX-11 MACRO X0.3-11               Page  35
1.0                                                                                                                              (1)

                                     0569   891 	TC_GROUP	SPN,2,TS5
                                     0590   892 ;
                                     0590   893 	NEXT_TEST_CASE	SFSPN15
SATSSF06        - SATS SYSTEM SERVICE TESTS  (FAILING S.C.)      22-AUG-1978 03:43:59   VAX-11 MACRO X0.3-11               Page  36
1.0             SFSPN15                                                                                                          (1)

                                     0590   894 ;
                                     0590   895 ;++
                                     0590   896 ; ******************************************************
                                     0590   897 ; *
                                     0590   898 ; *  TEST CASE NAME:		SFSPN15
                                     0590   899 ; *
                                     0590   900 ; *  SYSTEM SERVICE:		SETPRN
                                     0590   901 ; *
                                     0590   902 ; *  ARGUMENT UNDER TEST: 	PRCNAM_SPN15
                                     0590   903 ; *
                                     0590   904 ; *  INPUT CONDITIONS:
                                     0590   905 ; *	PRCNAM STRING BEGINS IN ACCESSIBLE PSECT,
                                     0590   906 ; *	  ENDS IN NON-ACCESSIBLE PSECT.
                                     0590   907 ; *
                                     0590   908 ; *  EXPECTED RESULTS:
                                     0590   909 ; *	1) SYSTEM STATUS CODE:	ACCVIO
                                     0590   910 ; *	2) REGISTERS R2 THROUGH FP UNCHANGED
                                     0590   911 ; *
                                     0590   912 ; ******************************************************
                                     0590   913 ;--
                                     0590   914 ;
                                     0590   915 ;
                                     0590   916 	NEXT_TEST_CASE	SFSPN16
SATSSF06        - SATS SYSTEM SERVICE TESTS  (FAILING S.C.)      22-AUG-1978 03:43:59   VAX-11 MACRO X0.3-11               Page  37
1.0             SFSPN16                                                                                                          (1)

                                     059C   917 ;
                                     059C   918 ;++
                                     059C   919 ; ******************************************************
                                     059C   920 ; *
                                     059C   921 ; *  TEST CASE NAME:		SFSPN16
                                     059C   922 ; *
                                     059C   923 ; *  SYSTEM SERVICE:		SETPRN
                                     059C   924 ; *
                                     059C   925 ; *  ARGUMENT UNDER TEST: 	PRCNAM_SPN16
                                     059C   926 ; *
                                     059C   927 ; *  INPUT CONDITIONS:
                                     059C   928 ; *	SET PROCESS NAME TO THAT ALREADY IN EXISTENCE
                                     059C   929 ; *	  FOR ANOTHER PROCESS WITHIN THIS GROUP.
                                     059C   930 ; *
                                     059C   931 ; *  EXPECTED RESULTS:
                                     059C   932 ; *	1) SYSTEM STATUS CODE:	DUPLNAM
                                     059C   933 ; *	2) REGISTERS R2 THROUGH FP UNCHANGED
                                     059C   934 ; *
                                     059C   935 ; ******************************************************
                                     059C   936 ;--
                                     059C   937 ;
                                     059C   938 ;
                                     059C   939 	NEXT_TEST_CASE	SFSPN17
SATSSF06        - SATS SYSTEM SERVICE TESTS  (FAILING S.C.)      22-AUG-1978 03:43:59   VAX-11 MACRO X0.3-11               Page  38
1.0             SFSPN17                                                                                                          (1)

                                     05A8   940 ;
                                     05A8   941 ;++
                                     05A8   942 ; ******************************************************
                                     05A8   943 ; *
                                     05A8   944 ; *  TEST CASE NAME:		SFSPN17
                                     05A8   945 ; *
                                     05A8   946 ; *  SYSTEM SERVICE:		SETPRN
                                     05A8   947 ; *
                                     05A8   948 ; *  ARGUMENT UNDER TEST: 	PRCNAM_SPN17
                                     05A8   949 ; *
                                     05A8   950 ; *  INPUT CONDITIONS:
                                     05A8   951 ; *	INVALID PROCESS NAME (LENGTH 0)
                                     05A8   952 ; *
                                     05A8   953 ; *  EXPECTED RESULTS:
                                     05A8   954 ; *	1) SYSTEM STATUS CODE:	IVLOGNAM
                                     05A8   955 ; *	2) REGISTERS R2 THROUGH FP UNCHANGED
                                     05A8   956 ; *
                                     05A8   957 ; ******************************************************
                                     05A8   958 ;--
                                     05A8   959 ;
                                     05A8   960 ;
                                     05A8   961 	NEXT_TEST_CASE	SFSPN18
SATSSF06        - SATS SYSTEM SERVICE TESTS  (FAILING S.C.)      22-AUG-1978 03:43:59   VAX-11 MACRO X0.3-11               Page  39
1.0             SFSPN18                                                                                                          (1)

                                     05B4   962 ;
                                     05B4   963 ;++
                                     05B4   964 ; ******************************************************
                                     05B4   965 ; *
                                     05B4   966 ; *  TEST CASE NAME:		SFSPN18
                                     05B4   967 ; *
                                     05B4   968 ; *  SYSTEM SERVICE:		SETPRN
                                     05B4   969 ; *
                                     05B4   970 ; *  ARGUMENT UNDER TEST: 	PRCNAM_SPN18
                                     05B4   971 ; *
                                     05B4   972 ; *  INPUT CONDITIONS:
                                     05B4   973 ; *	INVALID PROCESS NAME (LENGTH 16)
                                     05B4   974 ; *
                                     05B4   975 ; *  EXPECTED RESULTS:
                                     05B4   976 ; *	1) SYSTEM STATUS CODE:	IVLOGNAM
                                     05B4   977 ; *	2) REGISTERS R2 THROUGH FP UNCHANGED
                                     05B4   978 ; *
                                     05B4   979 ; ******************************************************
                                     05B4   980 ;--
                                     05B4   981 ;
                                     05B4   982 ;
                                     05B4   983 	TCEND
SATSSF06        - SATS SYSTEM SERVICE TESTS  (FAILING S.C.)      22-AUG-1978 03:43:59   VAX-11 MACRO X0.3-11               Page  40
1.0                                                                                                                              (1)

                                     05B5   984 	TC_GROUP	SPR,1,TS6
                                     05DC   985 ;
                                     05DC   986 	NEXT_TEST_CASE	SFSPR10
SATSSF06        - SATS SYSTEM SERVICE TESTS  (FAILING S.C.)      22-AUG-1978 03:43:59   VAX-11 MACRO X0.3-11               Page  41
1.0             SFSPR10                                                                                                          (1)

                                     05DC   987 ;
                                     05DC   988 ;++
                                     05DC   989 ; ******************************************************
                                     05DC   990 ; *
                                     05DC   991 ; *  TEST CASE NAME:		SFSPR10
                                     05DC   992 ; *
                                     05DC   993 ; *  SYSTEM SERVICE:		SETPRI
                                     05DC   994 ; *
                                     05DC   995 ; *  ARGUMENT UNDER TEST: 	PIDADR_SPR10
                                     05DC   996 ; *
                                     05DC   997 ; *  INPUT CONDITIONS:
                                     05DC   998 ; *	PIDADR FIELD AT LOCATION 1
                                     05DC   999 ; *
                                     05DC  1000 ; *  EXPECTED RESULTS:
                                     05DC  1001 ; *	1) SYSTEM STATUS CODE:	ACCVIO
                                     05DC  1002 ; *	2) REGISTERS R2 THROUGH FP UNCHANGED
                                     05DC  1003 ; *
                                     05DC  1004 ; ******************************************************
                                     05DC  1005 ;--
                                     05DC  1006 ;
                                     05DC  1007 ;
                                     05DC  1008 	NEXT_TEST_CASE	SFSPR11
SATSSF06        - SATS SYSTEM SERVICE TESTS  (FAILING S.C.)      22-AUG-1978 03:43:59   VAX-11 MACRO X0.3-11               Page  42
1.0             SFSPR11                                                                                                          (1)

                                     05E8  1009 ;
                                     05E8  1010 ;++
                                     05E8  1011 ; ******************************************************
                                     05E8  1012 ; *
                                     05E8  1013 ; *  TEST CASE NAME:		SFSPR11
                                     05E8  1014 ; *
                                     05E8  1015 ; *  SYSTEM SERVICE:		SETPRI
                                     05E8  1016 ; *
                                     05E8  1017 ; *  ARGUMENT UNDER TEST: 	PIDADR_SPR11
                                     05E8  1018 ; *
                                     05E8  1019 ; *  INPUT CONDITIONS:
                                     05E8  1020 ; *	PIDADR FIELD IN NON-ACCESSIBLE PSECT
                                     05E8  1021 ; *
                                     05E8  1022 ; *  EXPECTED RESULTS:
                                     05E8  1023 ; *	1) SYSTEM STATUS CODE:	ACCVIO
                                     05E8  1024 ; *	2) REGISTERS R2 THROUGH FP UNCHANGED
                                     05E8  1025 ; *
                                     05E8  1026 ; ******************************************************
                                     05E8  1027 ;--
                                     05E8  1028 ;
                                     05E8  1029 ;
                                     05E8  1030 	NEXT_TEST_CASE	SFSPR12
SATSSF06        - SATS SYSTEM SERVICE TESTS  (FAILING S.C.)      22-AUG-1978 03:43:59   VAX-11 MACRO X0.3-11               Page  43
1.0             SFSPR12                                                                                                          (1)

                                     05F4  1031 ;
                                     05F4  1032 ;++
                                     05F4  1033 ; ******************************************************
                                     05F4  1034 ; *
                                     05F4  1035 ; *  TEST CASE NAME:		SFSPR12
                                     05F4  1036 ; *
                                     05F4  1037 ; *  SYSTEM SERVICE:		SETPRI
                                     05F4  1038 ; *
                                     05F4  1039 ; *  ARGUMENT UNDER TEST: 	PIDADR_SPR12
                                     05F4  1040 ; *
                                     05F4  1041 ; *  INPUT CONDITIONS:
                                     05F4  1042 ; *	PIDADR FIELD BEGINS IN ACCESSIBLE PSECT, ENDS
                                     05F4  1043 ; *	  IN NON-ACCESSIBLE PSECT.
                                     05F4  1044 ; *
                                     05F4  1045 ; *  EXPECTED RESULTS:
                                     05F4  1046 ; *	1) SYSTEM STATUS CODE:	ACCVIO
                                     05F4  1047 ; *	2) REGISTERS R2 THROUGH FP UNCHANGED
                                     05F4  1048 ; *
                                     05F4  1049 ; ******************************************************
                                     05F4  1050 ;--
                                     05F4  1051 ;
                                     05F4  1052 ;
                                     05F4  1053 	NEXT_TEST_CASE	SFSPR13
SATSSF06        - SATS SYSTEM SERVICE TESTS  (FAILING S.C.)      22-AUG-1978 03:43:59   VAX-11 MACRO X0.3-11               Page  44
1.0             SFSPR13                                                                                                          (1)

                                     0600  1054 ;
                                     0600  1055 ;++
                                     0600  1056 ; ******************************************************
                                     0600  1057 ; *
                                     0600  1058 ; *  TEST CASE NAME:		SFSPR13
                                     0600  1059 ; *
                                     0600  1060 ; *  SYSTEM SERVICE:		SETPRI
                                     0600  1061 ; *
                                     0600  1062 ; *  ARGUMENT UNDER TEST: 	PIDADR_SPR13
                                     0600  1063 ; *
                                     0600  1064 ; *  INPUT CONDITIONS:
                                     0600  1065 ; *	INVALID PROCESS ID
                                     0600  1066 ; *
                                     0600  1067 ; *  EXPECTED RESULTS:
                                     0600  1068 ; *	1) SYSTEM STATUS CODE:	NONEXPR
                                     0600  1069 ; *	2) REGISTERS R2 THROUGH FP UNCHANGED
                                     0600  1070 ; *
                                     0600  1071 ; ******************************************************
                                     0600  1072 ;--
                                     0600  1073 ;
   00000190'EF   00000000'EF     D0  0600  1074 	MOVL	TPID,PIDADR_SPR13 ; GET A VALID PID
   00000190'EF         FF 8F     99  060B  1075 	CVTBW	#-1,PIDADR_SPR13  ; MAKE IT INVALID
                                     0613  1076 ;
                                     0613  1077 	NEXT_TEST_CASE	SFSPR14
SATSSF06        - SATS SYSTEM SERVICE TESTS  (FAILING S.C.)      22-AUG-1978 03:43:59   VAX-11 MACRO X0.3-11               Page  45
1.0             SFSPR14                                                                                                          (1)

                                     061F  1078 ;
                                     061F  1079 ;++
                                     061F  1080 ; ******************************************************
                                     061F  1081 ; *
                                     061F  1082 ; *  TEST CASE NAME:		SFSPR14
                                     061F  1083 ; *
                                     061F  1084 ; *  SYSTEM SERVICE:		SETPRI
                                     061F  1085 ; *
                                     061F  1086 ; *  ARGUMENT UNDER TEST: 	PIDADR_SPR14
                                     061F  1087 ; *
                                     061F  1088 ; *  INPUT CONDITIONS:
                                     061F  1089 ; *	VALID, NON-EXISTENT PROCESS ID
                                     061F  1090 ; *
                                     061F  1091 ; *  EXPECTED RESULTS:
                                     061F  1092 ; *	1) SYSTEM STATUS CODE:	NONEXPR
                                     061F  1093 ; *	2) REGISTERS R2 THROUGH FP UNCHANGED
                                     061F  1094 ; *
                                     061F  1095 ; ******************************************************
                                     061F  1096 ;--
                                     061F  1097 ;
   00000194'EF   00000000'EF     D0  061F  1098 	MOVL	TPID,PIDADR_SPR14 ; GET AN EXISTENT PID
   00000196'EF       1770 8F     B0  062A  1099 	MOVW	#6000,PIDADR_SPR14+2 ; MAKE IT NON-EXISTENT
                                     0633  1100 ;
                                     0633  1101 	NEXT_TEST_CASE	SFSPR20
SATSSF06        - SATS SYSTEM SERVICE TESTS  (FAILING S.C.)      22-AUG-1978 03:43:59   VAX-11 MACRO X0.3-11               Page  46
1.0             SFSPR20                                                                                                          (1)

                                     063F  1102 ;
                                     063F  1103 ;++
                                     063F  1104 ; ******************************************************
                                     063F  1105 ; *
                                     063F  1106 ; *  TEST CASE NAME:		SFSPR20
                                     063F  1107 ; *
                                     063F  1108 ; *  SYSTEM SERVICE:		SETPRI
                                     063F  1109 ; *
                                     063F  1110 ; *  ARGUMENT UNDER TEST: 	PRCNAM_SPR20
                                     063F  1111 ; *
                                     063F  1112 ; *  INPUT CONDITIONS:
                                     063F  1113 ; *	PRCNAM STRING DESCRIPTOR LENGTH FIELD IN
                                     063F  1114 ; *	  NON-ACCESSIBLE PSECT.
                                     063F  1115 ; *
                                     063F  1116 ; *  EXPECTED RESULTS:
                                     063F  1117 ; *	1) SYSTEM STATUS CODE:	ACCVIO
                                     063F  1118 ; *	2) REGISTERS R2 THROUGH FP UNCHANGED
                                     063F  1119 ; *
                                     063F  1120 ; ******************************************************
                                     063F  1121 ;--
                                     063F  1122 ;
                 0000018C'EF     D4  063F  1123 	CLRL	PIDADR_SPR	; MAKE SURE PRCNAM IS USED BY SETPRI
                                     0645  1124 ;
                                     0645  1125 	NEXT_TEST_CASE	SFSPR21
SATSSF06        - SATS SYSTEM SERVICE TESTS  (FAILING S.C.)      22-AUG-1978 03:43:59   VAX-11 MACRO X0.3-11               Page  47
1.0             SFSPR21                                                                                                          (1)

                                     0651  1126 ;
                                     0651  1127 ;++
                                     0651  1128 ; ******************************************************
                                     0651  1129 ; *
                                     0651  1130 ; *  TEST CASE NAME:		SFSPR21
                                     0651  1131 ; *
                                     0651  1132 ; *  SYSTEM SERVICE:		SETPRI
                                     0651  1133 ; *
                                     0651  1134 ; *  ARGUMENT UNDER TEST: 	PRCNAM_SPR21
                                     0651  1135 ; *
                                     0651  1136 ; *  INPUT CONDITIONS:
                                     0651  1137 ; *	PRCNAM STRING DESCRIPTOR LENGTH FIELD BEGINS IN
                                     0651  1138 ; *	  ACCESSIBLE PSECT, ENDS IN NON-ACCESSIBLE PSECT.
                                     0651  1139 ; *
                                     0651  1140 ; *  EXPECTED RESULTS:
                                     0651  1141 ; *	1) SYSTEM STATUS CODE:	ACCVIO
                                     0651  1142 ; *	2) REGISTERS R2 THROUGH FP UNCHANGED
                                     0651  1143 ; *
                                     0651  1144 ; ******************************************************
                                     0651  1145 ;--
                                     0651  1146 ;
                 0000018C'EF     D4  0651  1147 	CLRL	PIDADR_SPR	; MAKE SURE PRCNAM IS USED BY SETPRI
                                     0657  1148 ;
                                     0657  1149 	NEXT_TEST_CASE	SFSPR22
SATSSF06        - SATS SYSTEM SERVICE TESTS  (FAILING S.C.)      22-AUG-1978 03:43:59   VAX-11 MACRO X0.3-11               Page  48
1.0             SFSPR22                                                                                                          (1)

                                     0663  1150 ;
                                     0663  1151 ;++
                                     0663  1152 ; ******************************************************
                                     0663  1153 ; *
                                     0663  1154 ; *  TEST CASE NAME:		SFSPR22
                                     0663  1155 ; *
                                     0663  1156 ; *  SYSTEM SERVICE:		SETPRI
                                     0663  1157 ; *
                                     0663  1158 ; *  ARGUMENT UNDER TEST: 	PRCNAM_SPR22
                                     0663  1159 ; *
                                     0663  1160 ; *  INPUT CONDITIONS:
                                     0663  1161 ; *	PRCNAM STRING DESCRIPTOR ADDRESS FIELD IN
                                     0663  1162 ; *	  NON-ACCESSIBLE PSECT.
                                     0663  1163 ; *
                                     0663  1164 ; *  EXPECTED RESULTS:
                                     0663  1165 ; *	1) SYSTEM STATUS CODE:	ACCVIO
                                     0663  1166 ; *	2) REGISTERS R2 THROUGH FP UNCHANGED
                                     0663  1167 ; *
                                     0663  1168 ; ******************************************************
                                     0663  1169 ;--
                                     0663  1170 ;
                 0000018C'EF     D4  0663  1171 	CLRL	PIDADR_SPR	; MAKE SURE PRCNAM IS USED BY SETPRI
   000001FC'EF            03     9A  0669  1172 	MOVZBL	#3,PRCNAM_SPR22	; ESTABLISH PRCNAM STRING LENGTH
                                     0670  1173 ;
                                     0670  1174 	NEXT_TEST_CASE	SFSPR23
SATSSF06        - SATS SYSTEM SERVICE TESTS  (FAILING S.C.)      22-AUG-1978 03:43:59   VAX-11 MACRO X0.3-11               Page  49
1.0             SFSPR23                                                                                                          (1)

                                     067C  1175 ;
                                     067C  1176 ;++
                                     067C  1177 ; ******************************************************
                                     067C  1178 ; *
                                     067C  1179 ; *  TEST CASE NAME:		SFSPR23
                                     067C  1180 ; *
                                     067C  1181 ; *  SYSTEM SERVICE:		SETPRI
                                     067C  1182 ; *
                                     067C  1183 ; *  ARGUMENT UNDER TEST: 	PRCNAM_SPR23
                                     067C  1184 ; *
                                     067C  1185 ; *  INPUT CONDITIONS:
                                     067C  1186 ; *	PRCNAM STRING DESCRIPTOR ADDRESS FIELD BEGINS IN
                                     067C  1187 ; *	  ACCESSIBLE PSECT, ENDS IN NON-ACCESSIBLE PSECT.
                                     067C  1188 ; *
                                     067C  1189 ; *  EXPECTED RESULTS:
                                     067C  1190 ; *	1) SYSTEM STATUS CODE:	ACCVIO
                                     067C  1191 ; *	2) REGISTERS R2 THROUGH FP UNCHANGED
                                     067C  1192 ; *
                                     067C  1193 ; ******************************************************
                                     067C  1194 ;--
                                     067C  1195 ;
                 0000018C'EF     D4  067C  1196 	CLRL	PIDADR_SPR	; MAKE SURE PRCNAM IS USED BY SETPRI
   000001FB'EF            03     9A  0682  1197 	MOVZBL	#3,PRCNAM_SPR23	; ESTABLISH PRCNAM STRING LENGTH
                                     0689  1198 ;
                                     0689  1199 	NEXT_TEST_CASE	SFSPR24
SATSSF06        - SATS SYSTEM SERVICE TESTS  (FAILING S.C.)      22-AUG-1978 03:43:59   VAX-11 MACRO X0.3-11               Page  50
1.0             SFSPR24                                                                                                          (1)

                                     0695  1200 ;
                                     0695  1201 ;++
                                     0695  1202 ; ******************************************************
                                     0695  1203 ; *
                                     0695  1204 ; *  TEST CASE NAME:		SFSPR24
                                     0695  1205 ; *
                                     0695  1206 ; *  SYSTEM SERVICE:		SETPRI
                                     0695  1207 ; *
                                     0695  1208 ; *  ARGUMENT UNDER TEST: 	PRCNAM_SPR24
                                     0695  1209 ; *
                                     0695  1210 ; *  INPUT CONDITIONS:
                                     0695  1211 ; *	PRCNAM STRING IN NON-ACCESSIBLE PSECT
                                     0695  1212 ; *
                                     0695  1213 ; *  EXPECTED RESULTS:
                                     0695  1214 ; *	1) SYSTEM STATUS CODE:	ACCVIO
                                     0695  1215 ; *	2) REGISTERS R2 THROUGH FP UNCHANGED
                                     0695  1216 ; *
                                     0695  1217 ; ******************************************************
                                     0695  1218 ;--
                                     0695  1219 ;
                 0000018C'EF     D4  0695  1220 	CLRL	PIDADR_SPR	; MAKE SURE PRCNAM IS USED BY SETPRI
                                     069B  1221 ;
                                     069B  1222 	NEXT_TEST_CASE	SFSPR40
SATSSF06        - SATS SYSTEM SERVICE TESTS  (FAILING S.C.)      22-AUG-1978 03:43:59   VAX-11 MACRO X0.3-11               Page  51
1.0             SFSPR40                                                                                                          (1)

                                     06A7  1223 ;
                                     06A7  1224 ;++
                                     06A7  1225 ; ******************************************************
                                     06A7  1226 ; *
                                     06A7  1227 ; *  TEST CASE NAME:		SFSPR40
                                     06A7  1228 ; *
                                     06A7  1229 ; *  SYSTEM SERVICE:		SETPRI
                                     06A7  1230 ; *
                                     06A7  1231 ; *  ARGUMENT UNDER TEST: 	PRVPRI_SPR40
                                     06A7  1232 ; *
                                     06A7  1233 ; *  INPUT CONDITIONS:
                                     06A7  1234 ; *	PREVIOUS PRIORITY FIELD AT LOCATION 1
                                     06A7  1235 ; *
                                     06A7  1236 ; *  EXPECTED RESULTS:
                                     06A7  1237 ; *	1) SYSTEM STATUS CODE:	ACCVIO
                                     06A7  1238 ; *	2) REGISTERS R2 THROUGH FP UNCHANGED
                                     06A7  1239 ; *
                                     06A7  1240 ; ******************************************************
                                     06A7  1241 ;--
                                     06A7  1242 ;
                                     06A7  1243 	PRIV	ADD,SETPRI	; GET SETPRI PRIVILEGE BACK (FROM PREV T.C.)
                                     06CE  1244 ;
                                     06CE  1245 	NEXT_TEST_CASE	SFSPR41
SATSSF06        - SATS SYSTEM SERVICE TESTS  (FAILING S.C.)      22-AUG-1978 03:43:59   VAX-11 MACRO X0.3-11               Page  52
1.0             SFSPR41                                                                                                          (1)

                                     06DA  1246 ;
                                     06DA  1247 ;++
                                     06DA  1248 ; ******************************************************
                                     06DA  1249 ; *
                                     06DA  1250 ; *  TEST CASE NAME:		SFSPR41
                                     06DA  1251 ; *
                                     06DA  1252 ; *  SYSTEM SERVICE:		SETPRI
                                     06DA  1253 ; *
                                     06DA  1254 ; *  ARGUMENT UNDER TEST: 	PRVPRI_SPR41
                                     06DA  1255 ; *
                                     06DA  1256 ; *  INPUT CONDITIONS:
                                     06DA  1257 ; *	PREVIOUS PRIORITY FIELD IN
                                     06DA  1258 ; *	  NON-ACCESSIBLE PSECT.
                                     06DA  1259 ; *
                                     06DA  1260 ; *  EXPECTED RESULTS:
                                     06DA  1261 ; *	1) SYSTEM STATUS CODE:	ACCVIO
                                     06DA  1262 ; *	2) REGISTERS R2 THROUGH FP UNCHANGED
                                     06DA  1263 ; *
                                     06DA  1264 ; ******************************************************
                                     06DA  1265 ;--
                                     06DA  1266 ;
                                     06DA  1267 ;
                                     06DA  1268 	NEXT_TEST_CASE	SFSPR42
SATSSF06        - SATS SYSTEM SERVICE TESTS  (FAILING S.C.)      22-AUG-1978 03:43:59   VAX-11 MACRO X0.3-11               Page  53
1.0             SFSPR42                                                                                                          (1)

                                     06E6  1269 ;
                                     06E6  1270 ;++
                                     06E6  1271 ; ******************************************************
                                     06E6  1272 ; *
                                     06E6  1273 ; *  TEST CASE NAME:		SFSPR42
                                     06E6  1274 ; *
                                     06E6  1275 ; *  SYSTEM SERVICE:		SETPRI
                                     06E6  1276 ; *
                                     06E6  1277 ; *  ARGUMENT UNDER TEST: 	PRVPRI_SPR42
                                     06E6  1278 ; *
                                     06E6  1279 ; *  INPUT CONDITIONS:
                                     06E6  1280 ; *	PREVIOUS PRIORITY FIELD BEGINS IN ACCESSIBLE
                                     06E6  1281 ; *	  PSECT, ENDS IN NON-ACCESSIBLE PSECT.
                                     06E6  1282 ; *
                                     06E6  1283 ; *  EXPECTED RESULTS:
                                     06E6  1284 ; *	1) SYSTEM STATUS CODE:	ACCVIO
                                     06E6  1285 ; *	2) REGISTERS R2 THROUGH FP UNCHANGED
                                     06E6  1286 ; *
                                     06E6  1287 ; ******************************************************
                                     06E6  1288 ;--
                                     06E6  1289 ;
                                     06E6  1290 ;
                                     06E6  1291 	TCEND
SATSSF06        - SATS SYSTEM SERVICE TESTS  (FAILING S.C.)      22-AUG-1978 03:43:59   VAX-11 MACRO X0.3-11               Page  54
1.0                                                                                                                              (1)

                                     06E7  1292 	TC_GROUP	SPR,2,TS7
                                     070E  1293 ;
                                     070E  1294 	NEXT_TEST_CASE	SFSPR25
SATSSF06        - SATS SYSTEM SERVICE TESTS  (FAILING S.C.)      22-AUG-1978 03:43:59   VAX-11 MACRO X0.3-11               Page  55
1.0             SFSPR25                                                                                                          (1)

                                     070E  1295 ;
                                     070E  1296 ;++
                                     070E  1297 ; ******************************************************
                                     070E  1298 ; *
                                     070E  1299 ; *  TEST CASE NAME:		SFSPR25
                                     070E  1300 ; *
                                     070E  1301 ; *  SYSTEM SERVICE:		SETPRI
                                     070E  1302 ; *
                                     070E  1303 ; *  ARGUMENT UNDER TEST: 	PRCNAM_SPR25
                                     070E  1304 ; *
                                     070E  1305 ; *  INPUT CONDITIONS:
                                     070E  1306 ; *	PRCNAM STRING BEGINS IN ACCESSIBLE PSECT,
                                     070E  1307 ; *	  ENDS IN NON-ACCESSIBLE PSECT.
                                     070E  1308 ; *
                                     070E  1309 ; *  EXPECTED RESULTS:
                                     070E  1310 ; *	1) SYSTEM STATUS CODE:	ACCVIO
                                     070E  1311 ; *	2) REGISTERS R2 THROUGH FP UNCHANGED
                                     070E  1312 ; *
                                     070E  1313 ; ******************************************************
                                     070E  1314 ;--
                                     070E  1315 ;
                 0000018C'EF     D4  070E  1316 	CLRL	PIDADR_SPR	; MAKE SURE PRCNAM IS USED BY SETPRI
                                     0714  1317 ;
                                     0714  1318 	NEXT_TEST_CASE	SFSPR26
SATSSF06        - SATS SYSTEM SERVICE TESTS  (FAILING S.C.)      22-AUG-1978 03:43:59   VAX-11 MACRO X0.3-11               Page  56
1.0             SFSPR26                                                                                                          (1)

                                     0720  1319 ;
                                     0720  1320 ;++
                                     0720  1321 ; ******************************************************
                                     0720  1322 ; *
                                     0720  1323 ; *  TEST CASE NAME:		SFSPR26
                                     0720  1324 ; *
                                     0720  1325 ; *  SYSTEM SERVICE:		SETPRI
                                     0720  1326 ; *
                                     0720  1327 ; *  ARGUMENT UNDER TEST: 	PRCNAM_SPR26
                                     0720  1328 ; *
                                     0720  1329 ; *  INPUT CONDITIONS:
                                     0720  1330 ; *	NON-EXISTENT PROCESS NAME
                                     0720  1331 ; *
                                     0720  1332 ; *  EXPECTED RESULTS:
                                     0720  1333 ; *	1) SYSTEM STATUS CODE:	NONEXPR
                                     0720  1334 ; *	2) REGISTERS R2 THROUGH FP UNCHANGED
                                     0720  1335 ; *
                                     0720  1336 ; ******************************************************
                                     0720  1337 ;--
                                     0720  1338 ;
                 0000018C'EF     D4  0720  1339 	CLRL	PIDADR_SPR	; MAKE SURE PRCNAM IS USED BY SETPRI
                                     0726  1340 ;
                                     0726  1341 	NEXT_TEST_CASE	SFSPR27
SATSSF06        - SATS SYSTEM SERVICE TESTS  (FAILING S.C.)      22-AUG-1978 03:43:59   VAX-11 MACRO X0.3-11               Page  57
1.0             SFSPR27                                                                                                          (1)

                                     0732  1342 ;
                                     0732  1343 ;++
                                     0732  1344 ; ******************************************************
                                     0732  1345 ; *
                                     0732  1346 ; *  TEST CASE NAME:		SFSPR27
                                     0732  1347 ; *
                                     0732  1348 ; *  SYSTEM SERVICE:		SETPRI
                                     0732  1349 ; *
                                     0732  1350 ; *  ARGUMENT UNDER TEST: 	PRCNAM_SPR27
                                     0732  1351 ; *
                                     0732  1352 ; *  INPUT CONDITIONS:
                                     0732  1353 ; *	INVALID PROCESS NAME (LENGTH 0)
                                     0732  1354 ; *
                                     0732  1355 ; *  EXPECTED RESULTS:
                                     0732  1356 ; *	1) SYSTEM STATUS CODE:	IVLOGNAM
                                     0732  1357 ; *	2) REGISTERS R2 THROUGH FP UNCHANGED
                                     0732  1358 ; *
                                     0732  1359 ; ******************************************************
                                     0732  1360 ;--
                                     0732  1361 ;
                 0000018C'EF     D4  0732  1362 	CLRL	PIDADR_SPR	; MAKE SURE PRCNAM IS USED BY SETPRI
                                     0738  1363 ;
                                     0738  1364 	NEXT_TEST_CASE	SFSPR28
SATSSF06        - SATS SYSTEM SERVICE TESTS  (FAILING S.C.)      22-AUG-1978 03:43:59   VAX-11 MACRO X0.3-11               Page  58
1.0             SFSPR28                                                                                                          (1)

                                     0744  1365 ;
                                     0744  1366 ;++
                                     0744  1367 ; ******************************************************
                                     0744  1368 ; *
                                     0744  1369 ; *  TEST CASE NAME:		SFSPR28
                                     0744  1370 ; *
                                     0744  1371 ; *  SYSTEM SERVICE:		SETPRI
                                     0744  1372 ; *
                                     0744  1373 ; *  ARGUMENT UNDER TEST: 	PRCNAM_SPR28
                                     0744  1374 ; *
                                     0744  1375 ; *  INPUT CONDITIONS:
                                     0744  1376 ; *	INVALID PROCESS NAME (LENGTH 16)
                                     0744  1377 ; *
                                     0744  1378 ; *  EXPECTED RESULTS:
                                     0744  1379 ; *	1) SYSTEM STATUS CODE:	IVLOGNAM
                                     0744  1380 ; *	2) REGISTERS R2 THROUGH FP UNCHANGED
                                     0744  1381 ; *
                                     0744  1382 ; ******************************************************
                                     0744  1383 ;--
                                     0744  1384 ;
                 0000018C'EF     D4  0744  1385 	CLRL	PIDADR_SPR	; MAKE SURE PRCNAM IS USED BY SETPRI
                                     074A  1386 ;
                                     074A  1387 	NEXT_TEST_CASE	SFSPR29
SATSSF06        - SATS SYSTEM SERVICE TESTS  (FAILING S.C.)      22-AUG-1978 03:43:59   VAX-11 MACRO X0.3-11               Page  59
1.0             SFSPR29                                                                                                          (1)

                                     0756  1388 ;
                                     0756  1389 ;++
                                     0756  1390 ; ******************************************************
                                     0756  1391 ; *
                                     0756  1392 ; *  TEST CASE NAME:		SFSPR29
                                     0756  1393 ; *
                                     0756  1394 ; *  SYSTEM SERVICE:		SETPRI
                                     0756  1395 ; *
                                     0756  1396 ; *  ARGUMENT UNDER TEST: 	PRCNAM_SPR29
                                     0756  1397 ; *
                                     0756  1398 ; *  INPUT CONDITIONS:
                                     0756  1399 ; *	SETPRI ISSUED FOR EXISTING PROCESS WHICH IS NOT A
                                     0756  1400 ; *	  SUBPROCESS OF THIS PROCESS, AND THIS PROCESS HAS
                                     0756  1401 ; *	  NO GROUP OR WORLD PRIVILEGE.
                                     0756  1402 ; *
                                     0756  1403 ; *  EXPECTED RESULTS:
                                     0756  1404 ; *	1) SYSTEM STATUS CODE:	NOPRIV
                                     0756  1405 ; *	2) REGISTERS R2 THROUGH FP UNCHANGED
                                     0756  1406 ; *
                                     0756  1407 ; ******************************************************
                                     0756  1408 ;--
                                     0756  1409 ;
                                     0756  1410 	PRIV	REM,GROUP	; REMOVE GROUP PRIVILEGE
                                     077D  1411 	PRIV	REM,WORLD	; REMOVE WORLD PRIVILEGE
                 0000018C'EF     D4  07A4  1412 	CLRL	PIDADR_SPR	; MAKE SURE PRCNAM IS USED BY SETPRI
                                     07AA  1413 ;
                                     07AA  1414 	TCEND
SATSSF06        - SATS SYSTEM SERVICE TESTS  (FAILING S.C.)      22-AUG-1978 03:43:59   VAX-11 MACRO X0.3-11               Page  60
1.0                                                                                                                              (1)

                                     07AB  1415 TS1:
                                     07AB  1416 	TESTSERV	FORCEX,ERR,SATS,				-
                                     07AB  1417                                           				-
                                     07AB  1418 	   <1,PIDADR_FEX,						-
                                     07AB  1419 	        	PIDADR_FEX10,ACCVIO,	-  ; SFFEX10
                                     07AB  1420 	        	PIDADR_FEX11,ACCVIO,	-  ; SFFEX11
                                     07AB  1421 	        	PIDADR_FEX12,ACCVIO,	-  ; SFFEX12
                                     07AB  1422 	        	PIDADR_FEX13,NONEXPR,	-  ; SFFEX13
                                     07AB  1423 	        	PIDADR_FEX14,NONEXPR,	-  ; SFFEX14
                                     07AB  1424                                                   >,			-
                                     07AB  1425                                           				-
                                     07AB  1426 	   <1,PRCNAM_FEX,						-
                                     07AB  1427 	        	PRCNAM_FEX20,ACCVIO,	-  ; SFFEX20
                                     07AB  1428 	        	PRCNAM_FEX21,ACCVIO,	-  ; SFFEX21
                                     07AB  1429 	        	PRCNAM_FEX22,ACCVIO,	-  ; SFFEX22
                                     07AB  1430 	        	PRCNAM_FEX23,ACCVIO,	-  ; SFFEX23
                                     07AB  1431 	        	PRCNAM_FEX24,ACCVIO,	-  ; SFFEX24
                                     07AB  1432                                                   >,			-
                                     07AB  1433                                           				-
                                     07AB  1434 	   <1,CODE_FEX,						-
                                     07AB  1435                                                   >,			-
                                     07AB  1436
                                     09CD  1437 	TS_CLEANUP		; CLEAN UP & RETURN TO TEST_SERV_EXEC
SATSSF06        - SATS SYSTEM SERVICE TESTS  (FAILING S.C.)      22-AUG-1978 03:43:59   VAX-11 MACRO X0.3-11               Page  61
1.0                                                                                                                              (1)

                                     09ED  1438 TS2:
                                     09ED  1439 	TESTSERV	FORCEX,ERR,SATS,				-
                                     09ED  1440                                           				-
                                     09ED  1441 	   <1,PIDADR_FEX,						-
                                     09ED  1442                                                   >,			-
                                     09ED  1443                                           				-
                                     09ED  1444 	   <1,PRCNAM_FEX,						-
                                     09ED  1445 	        	PRCNAM_FEX25,ACCVIO,	-  ; SFFEX25
                                     09ED  1446 	        	PRCNAM_FEX26,NONEXPR,	-  ; SFFEX26
                                     09ED  1447 	        	PRCNAM_FEX27,IVLOGNAM,	-  ; SFFEX27
                                     09ED  1448 	        	PRCNAM_FEX28,IVLOGNAM,	-  ; SFFEX28
                                     09ED  1449 	        	PRCNAM_FEX29,NOPRIV,	-  ; SFFEX29
                                     09ED  1450                                                   >,			-
                                     09ED  1451                                           				-
                                     09ED  1452 	   <1,CODE_FEX,						-
                                     09ED  1453                                                   >,			-
                                     09ED  1454
                                     0BE7  1455 	TS_CLEANUP		; CLEAN UP & RETURN TO TEST_SERV_EXEC
SATSSF06        - SATS SYSTEM SERVICE TESTS  (FAILING S.C.)      22-AUG-1978 03:43:59   VAX-11 MACRO X0.3-11               Page  62
1.0                                                                                                                              (1)

                                     0C07  1456 TS3:
                                     0C07  1457 	TESTSERV	DCLEXH,ERR,SATS,				-
                                     0C07  1458                                           				-
                                     0C07  1459 	   <1,DESBLK_DEH,						-
                                     0C07  1460 	        	DESBLK_DEH10,NOHANDLER,	-  ; SFDEH10
                                     0C07  1461 	        	DESBLK_DEH11,ACCVIO,	-  ; SFDEH11
                                     0C07  1462 	        	DESBLK_DEH12,ACCVIO,	-  ; SFDEH12
                                     0C07  1463                                                   >,			-
                                     0C07  1464
                                     0CDA  1465 	TS_CLEANUP		; CLEAN UP & RETURN TO TEST_SERV_EXEC
SATSSF06        - SATS SYSTEM SERVICE TESTS  (FAILING S.C.)      22-AUG-1978 03:43:59   VAX-11 MACRO X0.3-11               Page  63
1.0                                                                                                                              (1)

                                     0CFA  1466 TS4:
                                     0CFA  1467 	TESTSERV	SETPRN,ERR,SATS,				-
                                     0CFA  1468                                           				-
                                     0CFA  1469 	   <1,PRCNAM_SPN,						-
                                     0CFA  1470 	        	PRCNAM_SPN10,ACCVIO,	-  ; SFSPN10
                                     0CFA  1471 	        	PRCNAM_SPN11,ACCVIO,	-  ; SFSPN11
                                     0CFA  1472 	        	PRCNAM_SPN12,ACCVIO,	-  ; SFSPN12
                                     0CFA  1473 	        	PRCNAM_SPN13,ACCVIO,	-  ; SFSPN13
                                     0CFA  1474 	        	PRCNAM_SPN14,ACCVIO,	-  ; SFSPN14
                                     0CFA  1475                                                   >,			-
                                     0CFA  1476
                                     0DDD  1477 	TS_CLEANUP		; CLEAN UP & RETURN TO TEST_SERV_EXEC
SATSSF06        - SATS SYSTEM SERVICE TESTS  (FAILING S.C.)      22-AUG-1978 03:43:59   VAX-11 MACRO X0.3-11               Page  64
1.0                                                                                                                              (1)

                                     0DFD  1478 TS5:
                                     0DFD  1479 	TESTSERV	SETPRN,ERR,SATS,				-
                                     0DFD  1480                                           				-
                                     0DFD  1481 	   <1,PRCNAM_SPN,						-
                                     0DFD  1482 	        	PRCNAM_SPN15,ACCVIO,	-  ; SFSPN15
                                     0DFD  1483 	        	PRCNAM_SPN16,DUPLNAM,	-  ; SFSPN16
                                     0DFD  1484 	        	PRCNAM_SPN17,IVLOGNAM,	-  ; SFSPN17
                                     0DFD  1485 	        	PRCNAM_SPN18,IVLOGNAM,	-  ; SFSPN18
                                     0DFD  1486                                                   >,			-
                                     0DFD  1487
                                     0ED8  1488 	TS_CLEANUP		; CLEAN UP & RETURN TO TEST_SERV_EXEC
SATSSF06        - SATS SYSTEM SERVICE TESTS  (FAILING S.C.)      22-AUG-1978 03:43:59   VAX-11 MACRO X0.3-11               Page  65
1.0                                                                                                                              (1)

                                     0EF8  1489 TS6:
                                     0EF8  1490 	TESTSERV	SETPRI,ERR,SATS,				-
                                     0EF8  1491                                           				-
                                     0EF8  1492 	   <1,PIDADR_SPR,						-
                                     0EF8  1493 	        	PIDADR_SPR10,ACCVIO,	-  ; SFSPR10
                                     0EF8  1494 	        	PIDADR_SPR11,ACCVIO,	-  ; SFSPR11
                                     0EF8  1495 	        	PIDADR_SPR12,ACCVIO,	-  ; SFSPR12
                                     0EF8  1496 	        	PIDADR_SPR13,NONEXPR,	-  ; SFSPR13
                                     0EF8  1497 	        	PIDADR_SPR14,NONEXPR,	-  ; SFSPR14
                                     0EF8  1498                                                   >,			-
                                     0EF8  1499                                           				-
                                     0EF8  1500 	   <1,PRCNAM_SPR,						-
                                     0EF8  1501 	        	PRCNAM_SPR20,ACCVIO,	-  ; SFSPR20
                                     0EF8  1502 	        	PRCNAM_SPR21,ACCVIO,	-  ; SFSPR21
                                     0EF8  1503 	        	PRCNAM_SPR22,ACCVIO,	-  ; SFSPR22
                                     0EF8  1504 	        	PRCNAM_SPR23,ACCVIO,	-  ; SFSPR23
                                     0EF8  1505 	        	PRCNAM_SPR24,ACCVIO,	-  ; SFSPR24
                                     0EF8  1506                                                   >,			-
                                     0EF8  1507                                           				-
                                     0EF8  1508 	   <1,PRI_SPR,						-
                                     0EF8  1509                                                   >,			-
                                     0EF8  1510                                           				-
                                     0EF8  1511 	   <1,PRVPRI_SPR,						-
                                     0EF8  1512 	        	PRVPRI_SPR40,ACCVIO,	-  ; SFSPR40
                                     0EF8  1513 	        	PRVPRI_SPR41,ACCVIO,	-  ; SFSPR41
                                     0EF8  1514 	        	PRVPRI_SPR42,ACCVIO,	-  ; SFSPR42
                                     0EF8  1515                                                   >,			-
                                     0EF8  1516
                                     11C6  1517 	TS_CLEANUP		; CLEAN UP & RETURN TO TEST_SERV_EXEC
SATSSF06        - SATS SYSTEM SERVICE TESTS  (FAILING S.C.)      22-AUG-1978 03:43:59   VAX-11 MACRO X0.3-11               Page  66
1.0                                                                                                                              (1)

                                     11E6  1518 TS7:
                                     11E6  1519 	TESTSERV	SETPRI,ERR,SATS,				-
                                     11E6  1520                                           				-
                                     11E6  1521 	   <1,PIDADR_SPR,						-
                                     11E6  1522                                                   >,			-
                                     11E6  1523                                           				-
                                     11E6  1524 	   <1,PRCNAM_SPR,						-
                                     11E6  1525 	        	PRCNAM_SPR25,ACCVIO,	-  ; SFSPR25
                                     11E6  1526 	        	PRCNAM_SPR26,NONEXPR,	-  ; SFSPR26
                                     11E6  1527 	        	PRCNAM_SPR27,IVLOGNAM,	-  ; SFSPR27
                                     11E6  1528 	        	PRCNAM_SPR28,IVLOGNAM,	-  ; SFSPR28
                                     11E6  1529 	        	PRCNAM_SPR29,NOPRIV,	-  ; SFSPR29
                                     11E6  1530                                                   >,			-
                                     11E6  1531                                           				-
                                     11E6  1532 	   <1,PRI_SPR,						-
                                     11E6  1533                                                   >,			-
                                     11E6  1534                                           				-
                                     11E6  1535 	   <1,PRVPRI_SPR,						-
                                     11E6  1536                                                   >,			-
                                     11E6  1537
                                     1474  1538 	TS_CLEANUP		; CLEAN UP & RETURN TO TEST_SERV_EXEC
SATSSF06        - SATS SYSTEM SERVICE TESTS  (FAILING S.C.)      22-AUG-1978 03:43:59   VAX-11 MACRO X0.3-11               Page  67
1.0             EXECUTE & CLEANUP                                                                                                (1)

                                     1494  1539 	.SBTTL	EXECUTE & CLEANUP
                                     1494  1540 EXECUTE:
                                     1494  1541 	TEST_SERV_EXEC			; EXECUTE ALL T. CASES IN ALL GROUPS
                                     14DA  1542 	.MDELETE (PRIV,TC_GROUP,NEXT_TEST_CASE, -
                           0000000D  14DA  1543 		  TCEND,TESTSERV,TS_CLEANUP,TEST_SERV_EXEC)
                                     14DA  1544 					; DELETE MACRO DEFINITIONS
                                     14DA  1545 CLEANUP:
                                     14DA  1546 	PRIV	ADD,ALL			; ENSURE THAT ALL PRIVS ARE PRESENT
                                     1503  1547 	$WAKE_S	PRCNAM=DETNAME		; WAKE DETACHED PROCESS ...
                                     1512  1548 					; ... TO ALLOW HIS EXIT
                                     1512  1549 	$QIOW_S	CHAN=MBXCHAN, FUNC=#IO$_READVBLK, -
                                     1512  1550 		P1=MBXBUFF+8, P2=MBXBUFF
                                     153B  1551 					; ... AND WAIT 4 PROC TO BE DELETED
                                     153B  1552 	$DELMBX_S  MBXCHAN		; DELETE TERMINATION MAILBOX
                          0138   30  1549  1553 	BSBW	MOD_MSG_PRINT		; PRINT TEST MODULE END MSG
            1C            01     F0  154C  1554 	INSV	#1,#STS$V_INHIB_MSG,#1,MOD_MSG_CODE
   00000044'EF            01         154F
                                     1555  1555 					; INHIBIT PRINTING
                                     1555  1556 	$EXIT_S	MOD_MSG_CODE		; EXIT TO OP SYS WITH MSG CODE
SATSSF06        - SATS SYSTEM SERVICE TESTS  (FAILING S.C.)      22-AUG-1978 03:43:59   VAX-11 MACRO X0.3-11               Page  68
1.0             TC_CONTROL                                                                                                       (1)

                                     1562  1558 	.SBTTL	TC_CONTROL
                                     1562  1559 ;++
                                     1562  1560 ; FUNCTIONAL DESCRIPTION:
                                     1562  1561 ;
                                     1562  1562 ;		THE TC_CONTROL SUBROUTINE IS CALLED BY THE TEST_SERV_EXEC
                                     1562  1563 ; MACRO TO EXECUTE A GROUP OF TEST CASES. A GROUP IS DEFINED BY A TC_GROUP
                                     1562  1564 ; MACRO. FOR EACH TC_GROUP MACRO, THERE IS A CORRESPONDING TESTSERV MACRO.
                                     1562  1565 ; TESTSERV CONTAINS CODE TO EXECUTE SYSTEM SERVICES AND CHECK THE RETURNED
                                     1562  1566 ; STATUS CODE VALUES. TESTSERV ARGUMENTS ARE CODED TO SPECIFY ALL THE SYSTEM
                                     1562  1567 ; SERVICE ARGUMENT VALUES AND THE EXPECTED STATUS CODE FOR EACH TEST CASE
                                     1562  1568 ; DEFINED BY A NEXT_TEST_CASE MACRO WITHIN THE GROUP. TC_CONTROL USES A
                                     1562  1569 ; CO-ROUTINE INTERFACE TO ENTER THE CODE OF THE APPROPRIATE TESTSERV MACRO
                                     1562  1570 ; IN VARIOUS PLACES. THE FIRST ENTRY OCCURS ONCE PER GROUP TO ALLOW TESTSERV
                                     1562  1571 ; TO DO SOME INITIALIZATION. THEN TWO ENTRIES ARE MADE FOR EACH TEST CASE IN
                                     1562  1572 ; THE GROUP. THE FIRST ALLOWS TESTSERV TO ISSUE THE SUBJECT SYSTEM SERVICE.
                                     1562  1573 ; THE SECOND ENTRY FOR THE TEST CASE CAUSES TESTSERV TO CHECK THE RETURNED
                                     1562  1574 ; STATUS CODE, PRINTING A FAILURE MESSAGE IF IT IS NOT THE EXPECTED CODE.
                                     1562  1575 ; IF THERE ARE NO MORE TEST CASES IN THE CURRENT GROUP, TESTSERV (NOT TC_CONTROL)
                                     1562  1576 ; RETURNS DIRECTLY TO TEST_SERV_EXEC (RSB ACTUALLY ISSUED IN TS_CLEANUP MACRO)
                                     1562  1577 ; FROM THIS SECOND ENTRY; OTHERWISE, CONTROL RETURNS TO TC_CONTROL WHICH
                                     1562  1578 ; IN TURN ENTERS TESTSERV AGAIN FOR THE NEXT TEST CASE. THE FAILURE OF A
                                     1562  1579 ; TEST CASE DOES NOT CAUSE TERMINATION OF THE TEST MODULE.
                                     1562  1580 ;
                                     1562  1581 ; CALLING SEQUENCE:
                                     1562  1582 ;
                                     1562  1583 ;	BSBW TC_CONTROL (ISSUED WITHIN THE TEST_SERV_EXEC MACRO)
                                     1562  1584 ;			(RSB IS ISSUED WITHIN THE TS_CLEANUP MACRO)
                                     1562  1585 ;
                                     1562  1586 ; INPUT PARAMETERS:
                                     1562  1587 ;
                                     1562  1588 ;	NONE
                                     1562  1589 ;
                                     1562  1590 ; IMPLICIT INPUTS:
                                     1562  1591 ;
                                     1562  1592 ;	ARGUMENTS SPECIFIED ON EACH TESTSERV MACRO MAY BE VIEWED AS
                                     1562  1593 ;	INPUTS, SINCE TC_CONTROL AND TESTSERV ACT AS CO-ROUTINES.
                                     1562  1594 ;
                                     1562  1595 ; OUTPUT PARAMETERS:
                                     1562  1596 ;
                                     1562  1597 ;	SEVERITY CODE FIELD OF MOD_MSG_CODE (BITS 0,1,2) IS SET TO ERROR
                                     1562  1598 ;	IF ANY TEST CASE IN THE CURRENT GROUP FAILS; OTHERWISE IT REMAINS
                                     1562  1599 ;	SET TO SUCCESSFUL.
                                     1562  1600 ;
                                     1562  1601 ; IMPLICIT OUTPUTS:
                                     1562  1602 ;
                                     1562  1603 ;	%UETP-I-TEXT,   ERROR MESSAGES ARE WRITTEN TO SYS$OUTPUT BY
                                     1562  1604 ;			THE TESTSERV MACRO (CO-ROUTINE WITH TC_CONTROL)
                                     1562  1605 ;
                                     1562  1606 ; COMPLETION CODES:
                                     1562  1607 ;
                                     1562  1608 ;	NONE
                                     1562  1609 ;
                                     1562  1610 ; SIDE EFFECTS:
                                     1562  1611 ;
                                     1562  1612 ;	NONE
                                     1562  1613 ;
                                     1562  1614 ;--
SATSSF06        - SATS SYSTEM SERVICE TESTS  (FAILING S.C.)      22-AUG-1978 03:43:59   VAX-11 MACRO X0.3-11               Page  69
1.0             TC_CONTROL                                                                                                       (1)

                                     1562  1615
                                     1562  1616
                                     1562  1617
                                     1562  1618 TC_CONTROL:
                 00000064'EF     DD  1562  1619 	PUSHL	TS_EP			; PUSH TESTSERV ENTRY POINT
                          9E     16  1568  1620 	JSB	@(SP)+			; ENTER TESTSERV INITIALIZATION
                                     156A  1621 10$:					; PROCESS NEXT TEST CASE
   00000056'EF            20     90  156A  1622 	MOVB	#^A/ /,$$TSTN$$+2 	; MAKE SURE T.C. NAME HAS A BLANK
                          002F   30  1571  1623 	BSBW	REG_SAVE		; SAVE REGISTERS
                 00000004'FF     16  1574  1624 	JSB	@CURRENT_TC		; JUMP TO CURRENT TEST CASE
                          0037   30  157A  1625 	BSBW	REG_REST		; RESTORE REGS FOR TESTSERV
                          9E     16  157D  1626 	JSB	@(SP)+			; LET TESTSERV ISSUE SYSTEM SERVICE
                          0042   30  157F  1627 	BSBW	REG_COMP		; COMPARE REGS TO SEE IF ...
                                     1582  1628 					; ... SYSTEM SERVICE CHANGED ANY
                          9E     16  1582  1629 	JSB	@(SP)+			; LET TESTSERV CHEK S.S. STATUS CODE
   00000056'EF            2A     91  1584  1630 	CMPB	#^A/*/,$$TSTN$$+2	; HAS TESTSERV INDICATED FAILURE ?
                          DD     12  158B  1631 	BNEQU	10$			; NO -- PROCESS NEXT TEST CASE
   00000060'EF   00000088'EF     DE  158D  1632 	MOVAL	TEST_MOD_FAIL,TMD_ADDR	; YES -- INDICATE FAILED IN END MSG
            00            02     F0  1598  1633 	INSV	#ERROR,#0,#3,MOD_MSG_CODE ; ADJUST STATUS CODE FOR ERROR
   00000044'EF            03         159B
                          C7     11  15A1  1634 	BRB	10$			; LOOP BAK TO PROCESS NEXT TEST CASE
                                     15A3  1635 ;
                                     15A3  1636 ;   TC_CONTROL RETURNS TO TEST_SERV_EXEC VIA TESTSERV (IN TS_CLEANUP MACRO)
                                     15A3  1637 ;
SATSSF06        - SATS SYSTEM SERVICE TESTS  (FAILING S.C.)      22-AUG-1978 03:43:59   VAX-11 MACRO X0.3-11               Page  70
1.0             SUBROUTINES                                                                                                      (1)

                                     15A3  1639 	.SBTTL	SUBROUTINES
                                     15A3  1640 REG_SAVE:
                                     15A3  1641 ;
                                     15A3  1642 ;  *****************************************************************
                                     15A3  1643 ;  *                                                               *
                                     15A3  1644 ;  *  SAVES R0 THRU SP IN REG_SAVE_AREA                            *
                                     15A3  1645 ;  *                                                               *
                                     15A3  1646 ;  *****************************************************************
                                     15A3  1647 ;
                     7FFF 8F     BB  15A3  1648 	PUSHR	#R0_THRU_SP		; SAVE ALL REGS ON STACK
            6E            3C     28  15A7  1649 	MOVC3	#60,(SP),REG_SAVE_AREA	; SAVE REGS (BEFORE S.S.)
                 00000008'EF         15AA
                     7FFF 8F     BA  15AF  1650 	POPR	#R0_THRU_SP		; CLEAN UP STACK
                                 05  15B3  1651 	RSB				; .... AND RETURN
                                     15B4  1652 ;
                                     15B4  1653 ;
                                     15B4  1654 ;
                                     15B4  1655 ;
                                     15B4  1656 REG_REST:
                                     15B4  1657 ;
                                     15B4  1658 ;
                                     15B4  1659 ;  *****************************************************************
                                     15B4  1660 ;  *                                                               *
                                     15B4  1661 ;  *  RESTORES R0 THRU SP FROM REG_SAVE_AREA                       *
                                     15B4  1662 ;  *                                                               *
                                     15B4  1663 ;  *****************************************************************
                                     15B4  1664 ;
            5E            3C     C2  15B4  1665 	SUBL2	#60,SP			; MOVE SP TO MAKE ROOM FOR REGS
   00000008'EF            3C     28  15B7  1666 	MOVC3	#60,REG_SAVE_AREA,(SP)	; MOVE REGS ONTO STACK FOR POP
                          6E         15BE
                     7FFF 8F     BA  15BF  1667 	POPR	#R0_THRU_SP		; RESTORE ALL REGS FOR TESTSERV
                                 05  15C3  1668 	RSB				; ... AND RETURN
SATSSF06        - SATS SYSTEM SERVICE TESTS  (FAILING S.C.)      22-AUG-1978 03:43:59   VAX-11 MACRO X0.3-11               Page  71
1.0             SUBROUTINES                                                                                                      (1)

                                     15C4  1670 REG_COMP:
                                     15C4  1671 ;
                                     15C4  1672 ;  *****************************************************************
                                     15C4  1673 ;  *                                                               *
                                     15C4  1674 ;  *  1) PUSHES ALL REGS ONTO STACK                                *
                                     15C4  1675 ;  *  2) COMPARES REGISTER IMAGES FROM STACK WITH CORRESPONDING    *
                                     15C4  1676 ;  *       IMAGES FROM REG_SAVE_AREA FOR ALL REGISTERS SPECIFIED   *
                                     15C4  1677 ;  *       IN REG_COMP_MASK.                                       *
                                     15C4  1678 ;  *  3) FOR EACH UNEQUAL COMPARE, AN ERROR MESSAGE IS PRINTED     *
                                     15C4  1679 ;  *       (USING $FAO AND $OUTPUT SYSTEM SERVICES).               *
                                     15C4  1680 ;  *  4) POPS ALL REGS OFF OF STACK                                *
                                     15C4  1681 ;  *                                                               *
                                     15C4  1682 ;  *****************************************************************
                                     15C4  1683 ;
                     7FFF 8F     BB  15C4  1684 	PUSHR	#R0_THRU_SP		; SAVE ALL REGISTERS ON STACK
            56   00000008'EF     DE  15C8  1685 	MOVAL	REG_SAVE_AREA,R6 	; POINT R6 TO BEG OF ...
                                     15CF  1686 					; ... REGS (BEFORE S.S.)
            54            5E     D0  15CF  1687 	MOVL	SP,R4			; POINT R4 TO BEG OF
                                     15D2  1688 					; ... REGS (AFTER S.S.)
            53         FF 8F     98  15D2  1689 	CVTBL	#-1,R3			; INITIALIZE REG_COMP_MASK INDEX
                                     15D6  1690 REG_COMP_NEXT:
                          53     D6  15D6  1691 	INCL	R3			; POINT TO NEXT BIT IN MASK
            53            0F     91  15D8  1692 	CMPB	#15,R3			; END OF THE MASK ?
                          03     1A  15DB  1693 	BGTRU	REG_COMP_CONT		; NO -- CONTINUE
                          009F   31  15DD  1694 	BRW	REG_COMP_RSB		; YES -- GO TO COMMON RETURN
                                     15E0  1695 REG_COMP_CONT:
            84            86     D1  15E0  1696 	CMPL	(R6)+,(R4)+		; REG BEFORE = REG AFTER ?
                          F1     13  15E3  1697 	BEQLU	REG_COMP_NEXT		; YES -- LOOK FOR NEXT REG
   00000000'EF            53     E1  15E5  1698 	BBC	R3,REG_COMP_MASK,REG_COMP_NEXT
                          E9         15EC
                                     15ED  1699 					; NO -- GET NEXT IF BIT NOT SET
   00000048'EF            53     D0  15ED  1700 	MOVL	R3,CLOB_REG_NO		; NO -- GIVE REG NUMBER TO FAO
   0000004C'EF         FC A6     D0  15F4  1701 	MOVL	-4(R6),REG_BEFORE_SS 	; GIVE "BEFORE" CONTENTS TO FAO
   00000050'EF         FC A4     D0  15FC  1702 	MOVL	-4(R4),REG_AFTER_SS  	; GIVE "AFTER" CONTENTS TO FAO
   00000056'EF            2A     90  1604  1703 	MOVB	#^A/*/,$$TSTN$$+2 	; GIVE FAILURE INDIC'N IN ERROR MSG
                                     160B  1704 ;
                                     160B  1705 	$FAO_S	ERR_MSG_FAOCTL,OUTL,OUTD,$$SNAD$$,  -
                                     160B  1706 		$$ASEQ$$,$$PSEQ$$,CLOB_REG_NO,REG_BEFORE_SS,REG_AFTER_SS
                                     163E  1707 ;
       EB7D CF       EB47 CF     B0  163E  1708 	MOVW	OUTL,OUTD		; ACTUAL OUTPUT LEN IN STRING DESC'R
                                     1645  1709 	PUTMSG	<#UETP$_TEXT,#1,#OUTD>	; PRINT THE MSG
       EB61 CF       0084 8F     B0  165A  1710 	MOVW	#OUTE-OUTB,OUTD		; GET MAX LEN BACK INTO DESCRIPTOR
   00000056'EF            20     90  1661  1711 	MOVB	#^A/ /,$$TSTN$$+2 	; REMOVE FAIL INDIC'N FOR NEXT MSG
   00000060'EF   00000088'EF     DE  1668  1712 	MOVAL	TEST_MOD_FAIL,TMD_ADDR	; INDICATE FAILED IN END MSG
            00            02     F0  1673  1713 	INSV	#ERROR,#0,#3,MOD_MSG_CODE ; ADJUST STATUS CODE FOR ERROR
   00000044'EF            03         1676
                          FF57   31  167C  1714 	BRW	REG_COMP_NEXT		; GO LOOK FOR NEXT REG TO COMPARE
                                     167F  1715 REG_COMP_RSB:
                     7FFF 8F     BA  167F  1716 	POPR	#R0_THRU_SP		; CLEAN UP STACK
                                 05  1683  1717 	RSB				; RETURN TO CALLER
SATSSF06        - SATS SYSTEM SERVICE TESTS  (FAILING S.C.)      22-AUG-1978 03:43:59   VAX-11 MACRO X0.3-11               Page  72
1.0             SUBROUTINES                                                                                                      (1)

                                     1684  1719 MOD_MSG_PRINT:
                                     1684  1720 ;
                                     1684  1721 ;  *****************************************************************
                                     1684  1722 ;  *                                                               *
                                     1684  1723 ;  *  PRINTS THE TEST MODULE BEGUN/SUCCESSFUL/FAILED MESSAGES      *
                                     1684  1724 ;  *	   (USING THE PUTMSG MACRO).                               *
                                     1684  1725 ;  *                                                               *
                                     1684  1726 ;  *****************************************************************
                                     1684  1727 ;
                                     1684  1728 	PUTMSG	<MOD_MSG_CODE,#2,TMN_ADDR,TMD_ADDR> ; PRINT MSG
                                 05  169F  1729 	RSB				; ... AND RETURN TO CALLER
                                     16A0  1730 ;
                                     16A0  1731 CHMRTN:
                                     16A0  1732 ; **********************************************************
                                     16A0  1733 ; *
                                     16A0  1734 ; *	CHANGE MODE ROUTINE. THIS ROUTINE GETS CONTROL WHENEVER
                                     16A0  1735 ; *	A CMKRNL, CMEXEC, OR CMSUP SYSTEM SERVICE IS ISSUED
                                     16A0  1736 ; *	BY THE MODE MACRO ('TO' OPTION).  IT MERELY DOES
                                     16A0  1737 ; *	A JUMP INDIRECT ON A FIELD SET UP BY MODE. IT HAS
                                     16A0  1738 ; *	THE EFFECT OF RETURNING TO THE END OF THE MODE
                                     16A0  1739 ; *	MACRO EXPANSION.
                                     16A0  1740 ; *
                                     16A0  1741 ; *************************************************************
                                     16A0  1742 ;
                               0000  16A0  1743 	.WORD	0			; ENTRY MASK
                 00000079'FF     17  16A2  1744 	JMP	@CHM_CONT		; RETURN TO MODE MACRO IN NEW MODE
                                     16A8  1745 ;
                                     16A8  1746 ; *	RET INSTR WILL BE ISSUED IN EXPANSION OF 'MODE FROM, ....' MACRO
                                     16A8  1747 ;
                                     16A8  1748 	.END	SATSSF06
SATSSF06        - SATS SYSTEM SERVICE TESTS  (FAILING S.C.)      22-AUG-1978 03:43:59   VAX-11 MACRO X0.3-11               Page  73
SYMBOL TABLE                                                                                                                     (1)

$$$CHARS       = 00000048            IO$_READVBLK     ********   X   07   PRCNAM_SPR25     000001F3 R     05
$$$FIRSTTC$$$  = 00000000            LIB$SIGNAL       ********   X   07   PRCNAM_SPR26     00000195 R     03
$$$STRINGS     = 00000000            MBXBUFF          000000F0 R     04   PRCNAM_SPR27     000001A4 R     03
$$ACT$$          000001A1 R     07   MBXCHAN          00000095 R     04   PRCNAM_SPR28     000001A8 R     03
$$ARG$$          000001A9 R     07   MBXCHANINFO      00000099 R     04   PRCNAM_SPR29   = 000000DC R     03
$$ASEQ$$         00000199 R     07   MBXUNIT          000000EC R     04   PRIVMASK         00000071 R     04
$$CALL$$         0000018D R     07   MEXIT          = 00000000            PRI_SPR          000001C0 R     03
$$DISP$$         00000294 R     07   MOD_MSG_CODE     00000044 R     04   PROT             000000B1 R     03
$$ERR$$          0000024E R     07   MOD_MSG_PRINT    00001684 R     07   PRT$C_NA         ********   X   03
$$EXP$$          000001A5 R     07   NARGS          = 0000000E            PRV$V_ALLSPOOL = 00000004
$$INIT$$         00000191 R     07   NOACCESS         00000000 R     06   PRV$V_BUGCHK   = 00000017
$$MAXP$$       = 00000005            ONES             000000B5 R     03   PRV$V_CMEXEC   = 00000001
$$PSEQ$$         0000019D R     07   OUTB             000001CA R     07   PRV$V_CMKRNL   = 00000000
$$SNAD$$         00000195 R     07   OUTD             000001C2 R     07   PRV$V_DETACH   = 00000005
$$T1           = 00000004            OUTE             0000024E R     07   PRV$V_DIAGNOSE = 00000006
$$T2           = 00000009            OUTL             00000189 R     07   PRV$V_EXQUOTA  = 00000013
$$TSTN$$         00000054 R     04   PCB$L_UIC      = 00000020            PRV$V_GROUP    = 00000008
BIT...         = 00001258            PHD$Q_PRIVMSK  = 00000000            PRV$V_GRPNAM   = 00000003
CHMRTN           000016A0 R     07   PIDADR_FEX       00000170 R     04   PRV$V_LOG_IO   = 00000007
CHM_CONT         00000079 R     04   PIDADR_FEX10   = 00000001            PRV$V_MOUNT    = 00000011
CLEANUP          000014DA R     07   PIDADR_FEX11     00000008 R     06   PRV$V_NETMBX   = 00000014
CLOB_REG_NO      00000048 R     04   PIDADR_FEX12   = 000001FF R     05   PRV$V_NOACNT   = 00000009
CODE_FEX         00000133 R     03   PIDADR_FEX13     00000174 R     04   PRV$V_OPER     = 00000012
CTL$GL_PHD       ********   X   07   PIDADR_FEX14     00000178 R     04   PRV$V_PHY_IO   = 00000016
CURRENT_TC       00000004 R     04   PIDADR_SPR       0000018C R     04   PRV$V_PRMCEB   = 0000000A
DESBLK_DEH       0000017C R     04   PIDADR_SPR10   = 00000001            PRV$V_PRMGBL   = 00000018
DESBLK_DEH10   = 00000000            PIDADR_SPR11     0000002A R     06   PRV$V_PRMMBX   = 0000000B
DESBLK_DEH11     00000137 R     03   PIDADR_SPR12   = 000001FF R     05   PRV$V_PSWAPM   = 0000000C
DESBLK_DEH12   = 000001FF R     05   PIDADR_SPR13     00000190 R     04   PRV$V_SETPRI   = 0000000D
DETFLAG        = 00000040            PIDADR_SPR14     00000194 R     04   PRV$V_SETPRV   = 0000000E
DETIMAGE         000000BD R     03   PRCNAM_FEX       000000F0 R     03   PRV$V_SYSGBL   = 00000019
DETNAME          000000DC R     03   PRCNAM_FEX20     0000000C R     06   PRV$V_SYSNAM   = 00000002
DETUIC           00000091 R     04   PRCNAM_FEX21   = 000001FF R     05   PRV$V_TMPMBX   = 0000000F
DIB$B_DEVCLASS   00000004            PRCNAM_FEX22     000001FC R     05   PRV$V_VOLPRO   = 00000015
DIB$B_DEVTYPE    00000005            PRCNAM_FEX23     000001FB R     05   PRV$V_WORLD    = 00000010
DIB$C_LENGTH     00000024            PRCNAM_FEX24     00000100 R     03   PRVPRI_SPR       00000198 R     04
DIB$K_LENGTH     00000024            PRCNAM_FEX25     000001F3 R     05   PRVPRI_SPR40   = 00000001
DIB$L_DEVCHAR    00000000            PRCNAM_FEX26     00000108 R     03   PRVPRI_SPR41     000001C4 R     03
DIB$L_DEVDEPEND  00000008            PRCNAM_FEX27     00000117 R     03   PRVPRI_SPR42   = 000001FF R     05
DIB$L_OPCNT      0000001C            PRCNAM_FEX28     0000011B R     03   PRVPRT           00000070 R     04
DIB$L_OWNUIC     00000014            PRCNAM_FEX29   = 000000DC R     03   R0_THRU_SP     = 00007FFF
DIB$L_PID        00000010            PRCNAM_SPN       00000147 R     03   REGS             0000007D R     04
DIB$W_DEVBUFSIZ  00000006            PRCNAM_SPN10     0000001B R     06   REG_AFTER_SS     00000050 R     04
DIB$W_DEVNAMOFF  0000000E            PRCNAM_SPN11   = 000001FF R     05   REG_BEFORE_SS    0000004C R     04
DIB$W_ERRCNT     0000001A            PRCNAM_SPN12     000001FC R     05   REG_COMP         000015C4 R     07
DIB$W_RECSIZ     00000022            PRCNAM_SPN13     000001FB R     05   REG_COMP_CONT    000015E0 R     07
DIB$W_UNIT       0000000C            PRCNAM_SPN14     00000159 R     03   REG_COMP_MASK    00000000 R     03
DIB$W_VOLNAMOFF  00000020            PRCNAM_SPN15     000001F3 R     05   REG_COMP_NEXT    000015D6 R     07
DIB$W_VPROT      00000018            PRCNAM_SPN16   = 000000DC R     03   REG_COMP_RSB     0000167F R     07
EMPTY            00000000 R     05   PRCNAM_SPN17     00000161 R     03   REG_REST         000015B4 R     07
ERROR          = 00000002            PRCNAM_SPN18     00000165 R     03   REG_SAVE         000015A3 R     07
ERR_MSG_FAOCTL   00000002 R     03   PRCNAM_SPR       0000017D R     03   REG_SAVE_AREA    00000008 R     04
EXECUTE          00001494 R     07   PRCNAM_SPR20     0000002E R     06   RETADR           00000068 R     04
GBL...         = 00000000            PRCNAM_SPR21   = 000001FF R     05   SATSSF06         00000000 R     07
GRP_TOTAL      = 00000007            PRCNAM_SPR22     000001FC R     05   SCH$GL_CURPCB    ********   X   07
INADR            000000A9 R     03   PRCNAM_SPR23     000001FB R     05   SEVERE         = 00000004
INFO           = 00000003            PRCNAM_SPR24     0000018D R     03   SHR$K_SHRDEF   = 00000001
SATSSF06        - SATS SYSTEM SERVICE TESTS  (FAILING S.C.)      22-AUG-1978 03:43:59   VAX-11 MACRO X0.3-11               Page  74
SYMBOL TABLE                                                                                                                     (1)

SHR$_ABEND     = 000010D8            SHR$_OPENOUT   = 000010A0            TMN_ADDR         0000005C R     04
SHR$_ABENDD    = 000010E0            SHR$_OVERLAY   = 000010A8            TPID             00000000 R     04
SHR$_ABENDT    = 000010E8            SHR$_PARSEFAIL = 00001248            TS1              000007AB R     07
SHR$_APPENDEDB = 00001000            SHR$_PURGEVER  = 00001210            TS2              000009ED R     07
SHR$_APPENDEDR = 00001008            SHR$_READERR   = 000010B0            TS3              00000C07 R     07
SHR$_ATPC      = 00001158            SHR$_RELCONCAT = 00001140            TS4              00000CFA R     07
SHR$_BADBYTE   = 00001010            SHR$_REPLACED  = 000010B8            TS5              00000DFD R     07
SHR$_BADCOPIES = 00001160            SHR$_RMSERROR  = 000011C8            TS6              00000EF8 R     07
SHR$_BADDELIM  = 00001118            SHR$_SEARCHFAIL= 00001238            TS7              000011E6 R     07
SHR$_BADFIELD  = 00001018            SHR$_SYNTAX    = 000010F8            TS_EP            00000064 R     04
SHR$_BADFORM   = 00001168            SHR$_SYSERROR  = 000011B0            TTNAME           0000009F R     03
SHR$_BADJOBID  = 00001170            SHR$_SYSERRORPC= 000010F0            UETP$_ABORTC   = 0074832B
SHR$_BADJOBNAME= 00001178            SHR$_TEXT      = 00001130            UETP$_CONF     = 007480D1
SHR$_BADKEY    = 00001108            SHR$_UNXPCTSTS = 000011D0            UETP$_DATAER   = 00748010
SHR$_BADLOGIC  = 00001120            SHR$_VALERR    = 000011E8            UETP$_DDB      = 007480E1
SHR$_BADLOGICPC= 00001150            SHR$_WILDCONCAT= 000010C0            UETP$_DENOSU   = 00748333
SHR$_BADLONG   = 00001020            SHR$_WILDOUTVER= 000010C8            UETP$_DESTP    = 007481A2
SHR$_BADPRTY   = 00001180            SHR$_WRITEERR  = 000010D0            UETP$_DEUNUS   = 0074819A
SHR$_BADQNAME  = 00001188            SS$_ACCVIO       ********   X   07   UETP$_ERBOX    = 00748008
SHR$_BADTIME   = 00001190            SS$_DUPLNAM      ********   X   07   UETP$_SATSMS   = 007480D9
SHR$_BADVALUE  = 00001110            SS$_IVLOGNAM     ********   X   07   UETP$_TEXT     = 00741133
SHR$_BADWORD   = 00001028            SS$_NOHANDLER    ********   X   07   UETP$_UCB      = 007480E9
SHR$_BEGIN     = 00001030            SS$_NONEXPR      ********   X   07   UETP$_USER     = 0074833B
SHR$_BEGIND    = 00001038            SS$_NOPRIV       ********   X   07   WARNING        = 00000000
SHR$_BEGINT    = 00001040            STS$V_INHIB_MSG= 0000001C
SHR$_CLICB     = 00001048            SUCCESS        = 00000001
SHR$_CLOSEDEL  = 00001218            SYS$CMKRNL       ********   X   07
SHR$_CLOSEIN   = 00001050            SYS$CREMBX       ********   X   07
SHR$_CLOSEOUT  = 00001058            SYS$CREPRC       ********   X   07
SHR$_CONFDEL   = 000011F8            SYS$DCLEXH       ********   X   07
SHR$_COPIEDB   = 00001060            SYS$DELMBX       ********   X   07
SHR$_COPIEDR   = 00001068            SYS$EXIT         ********   X   07
SHR$_CREATED   = 00001070            SYS$FAO          ********   X   07
SHR$_DELETED   = 00001200            SYS$FAOL         ********   X   07
SHR$_DELINTERR = 00001240            SYS$FORCEX       ********   X   07
SHR$_DELVER    = 00001208            SYS$GETCHN       ********   X   07
SHR$_DIRTOOBUS = 00001220            SYS$HIBER        ********   X   07
SHR$_ENDED     = 00001078            SYS$QIOW         ********   X   07
SHR$_ENDEDD    = 00001080            SYS$SETPRI       ********   X   07
SHR$_ENDEDT    = 00001088            SYS$SETPRN       ********   X   07
SHR$_FILNOTDEL = 000011F0            SYS$SETPRT       ********   X   07
SHR$_FILNOTPUR = 00001230            SYS$WAKE         ********   X   07
SHR$_FILPURGED = 00001250            TC1              000002EF R     07
SHR$_HASHCONCAT= 000011D8            TC2              000003D6 R     07
SHR$_HIGHVER   = 00001148            TC3              0000049A R     07
SHR$_IDXCONCAT = 00001138            TC4              00000503 R     07
SHR$_INCOMPAT  = 000011E0            TC5              00000569 R     07
SHR$_NEWFILES  = 00001090            TC6              000005B5 R     07
SHR$_NOFILPURG = 00001228            TC7              000006E7 R     07
SHR$_NOJOBID   = 000011A0            TCG_NO         = 00000007
SHR$_NOJOBNAME = 000011A8            TC_CONTROL       00001562 R     07
SHR$_NOQUEUE   = 00001198            TEST_MOD_BEG     00000077 R     03
SHR$_NOTCMPLT  = 000011C0            TEST_MOD_FAIL    00000088 R     03
SHR$_NOTCOPIED = 000011B8            TEST_MOD_NAME    0000006E R     03
SHR$_NOVALUE   = 00001100            TEST_MOD_NAME_D  0000008F R     03
SHR$_NOWILD    = 00001128            TEST_MOD_SUCC    0000007D R     03
SHR$_OPENIN    = 00001098            TMD_ADDR         00000060 R     04
SATSSF06        - SATS SYSTEM SERVICE TESTS  (FAILING S.C.)      22-AUG-1978 03:43:59   VAX-11 MACRO X0.3-11               Page  75
PROGRAM SECTION SYNOPSIS                                                                                                         (1)


PROGRAM SECTION SYNOPSIS

.  ABS  .        00000000      00     NOPIC   USR   CON   ABS   LCL NOSHR NOEXE NORD  NOWRT BYTE
. BLANK .        00000000      01     NOPIC   USR   CON   REL   LCL NOSHR   EXE   RD    WRT BYTE
$ABS$            00000024      02     NOPIC   USR   CON   ABS   LCL NOSHR   EXE   RD    WRT BYTE
RODATA           000001C8      03     NOPIC   USR   CON   REL   LCL NOSHR NOEXE   RD  NOWRT LONG
RWDATA           0000019C      04     NOPIC   USR   CON   REL   LCL NOSHR NOEXE   RD    WRT BYTE
SATS_ACCVIO_1    00000200      05     NOPIC   USR   CON   REL   LCL NOSHR NOEXE   RD    WRT PAGE
SATS_ACCVIO_2    00000200      06     NOPIC   USR   CON   REL   LCL NOSHR NOEXE   RD    WRT PAGE
SATSSF06         000016A8      07     NOPIC   USR   CON   REL   LCL NOSHR   EXE   RD    WRT LONG


THERE WERE NO ERRORS OR WARNINGS.
3426. BYTES LEFT IN FREE MEMORY POOL.
3066. BYTES OF RECLAIMED MEMORY.
OBJ$:SATSSF06,LIS$:SATSSF06/-SP=EXECML$/ML,LIB$:SYSTST.MLB/ML,SRC$:SATSSF06
73 MLB DIR RDS - 1034 GETS TO DEFINE 52 MACROS. 91 INTER. FILE WRITES.
