SATSSF15        - SATS SYSTEM SERVICE TESTS  (FAILING S.C.)      22-AUG-1978 03:55:46   VAX-11 MACRO X0.3-11               Page   0
TABLE OF CONTENTS

   (1)      46  DECLARATIONS
   (1)     183  SATSSF15
   (1)     270  SFDCH20
   (1)     292  SFDCH21
   (1)     314  SFDCH22
   (1)     337
   (1)     341  SFCEH10
   (1)     364
   (1)     368  SFADS10
   (1)     390  SFADS11
   (1)     412  SFADS12
   (1)     434
   (1)     475  EXECUTE & CLEANUP
   (1)     487  TC_CONTROL
   (1)     568  SUBROUTINES
SATSSF15        - SATS SYSTEM SERVICE TESTS  (FAILING S.C.)      22-AUG-1978 03:55:46   VAX-11 MACRO X0.3-11               Page   1
1.0                                                                                                                              (1)

                                     0000     1 	.TITLE	SATSSF15 - SATS SYSTEM SERVICE TESTS  (FAILING S.C.)
                                     0000     2 	.IDENT	/1.0/
                                     0000     3
                                     0000     4 ;
                                     0000     5 ;			  COPYRIGHT (c) 1977,1978 BY
                                     0000     6 ;	      DIGITAL EQUIPMENT CORPORATION, MAYNARD, MASS.
                                     0000     7 ;
                                     0000     8 ; THIS SOFTWARE IS FURNISHED UNDER A LICENSE AND MAY BE USED AND  COPIED
                                     0000     9 ; ONLY  IN  ACCORDANCE  WITH  THE  TERMS  OF  SUCH  LICENSE AND WITH THE
                                     0000    10 ; INCLUSION OF THE ABOVE COPYRIGHT NOTICE.  THIS SOFTWARE OR  ANY  OTHER
                                     0000    11 ; COPIES  THEREOF MAY NOT BE PROVIDED OR OTHERWISE MADE AVAILABLE TO ANY
                                     0000    12 ; OTHER PERSON.  NO TITLE TO AND OWNERSHIP OF  THE  SOFTWARE  IS  HEREBY
                                     0000    13 ; TRANSFERRED.
                                     0000    14 ;
                                     0000    15 ; THE INFORMATION IN THIS SOFTWARE IS SUBJECT TO CHANGE  WITHOUT  NOTICE
                                     0000    16 ; AND  SHOULD  NOT  BE  CONSTRUED  AS  A COMMITMENT BY DIGITAL EQUIPMENT
                                     0000    17 ; CORPORATION.
                                     0000    18 ;
                                     0000    19 ; DIGITAL ASSUMES NO RESPONSIBILITY FOR THE USE OR  RELIABILITY  OF  ITS
                                     0000    20 ; SOFTWARE ON EQUIPMENT WHICH IS NOT SUPPLIED BY DIGITAL.
                                     0000    21 ;
                                     0000    22
                                     0000    23 ;++
                                     0000    24 ; FACILITY:	SATS SYSTEM SERVICE TESTS
                                     0000    25 ;
                                     0000    26 ; ABSTRACT:	THE SATSSF15 MODULE TESTS THE EXECUTION OF CERTAIN
                                     0000    27 ; VMS SYSTEM SERVICES, INVOKED IN SUCH A WAY AS TO EXPECT FAILING
                                     0000    28 ; STATUS CODES. THE SYSTEM SERVICES TESTED AND THE STATUS CODES
                                     0000    29 ; EXPECTED ARE SUMMARIZED AS ARGUMENTS TO THE TESTSERV MACROS
                                     0000    30 ; WHICH APPEAR NEAR THE END OF THIS LISTING. SUCCESSFUL STATUS
                                     0000    31 ; CODES ARE TESTED IN OTHER MODULES.
                                     0000    32 ;
                                     0000    33 ;
                                     0000    34 ; ENVIRONMENT:	USER MODE IMAGE; NEEDS CMKRNL PRIVILEGE,
                                     0000    35 ;		DYNAMICALLY ACQUIRES OTHER PRIVILEGES, AS NEEDED.
                                     0000    36 ;
                                     0000    37 ; AUTHOR: THOMAS L. CAFARELLA,		CREATION DATE: MMM, 1978
                                     0000    38 ;	  PAUL D. FAY (DISPSERV & TESTSERV MACROS)
                                     0000    39 ;
                                     0000    40 ; MODIFIED BY:
                                     0000    41 ;
                                     0000    42 ;	, : VERSION
                                     0000    43 ; 01	-
                                     0000    44 ;--
SATSSF15        - SATS SYSTEM SERVICE TESTS  (FAILING S.C.)      22-AUG-1978 03:55:46   VAX-11 MACRO X0.3-11               Page   2
1.0             DECLARATIONS                                                                                                     (1)

                                     0000    46 	.SBTTL	DECLARATIONS
                                     0000    47 ;
                                     0000    48 ; INCLUDE FILES:
                                     0000    49 ;
                                     0000    50 	$PHDDEF				; PROCESS HEADER OFFSET SYMBOLS
                                     0000    51 	$PCBDEF				; PROCESS CONTROL BLOCK OFFSET SYMBS
                                     0000    52 	$STSDEF				; STATUS MESSAGE SYMBOLS
                           00000003  0000    53 	.MDELETE ($PHDDEF,$PCBDEF,$STSDEF) ; GET RID OF MACRO DEFINITIONS
                                     0000    54 	$PRVDEF				; SYMBOL DEFS FOR PRIVILEGES
                                     0000    55 	$UETPDEF			; UETP MSG CODE DEFINITIONS
                                     0000    56 	$SHR_MESSAGES UETP,116,<<TEXT,INFO>>
                                     0000    57 					; DEFINE UETP$_TEXT
                           00000004  0000    58 	.MDELETE ($PRVDEF,$UETPDEF,$SHR_MESSAGES,$SHRDEF)
                                     0000    59 					; GET RID OF MACRO DEFINITIONS
                                     0000    60 	$PSLDEF				; ACCESS MODE SYMBOLS
                                     0000    61 ;
                                     0000    62 ; MACROS:
                                     0000    63 ;
                                     0000    64 ;
                                     0000    65 ; EQUATED SYMBOLS:
                                     0000    66 ;
                           00000000  0000    67 WARNING		= 0			; WARNING SEVERITY VALUE FOR MSGS
                           00000001  0000    68 SUCCESS		= 1			; SUCCESS SEVERITY VALUE FOR MSGS
                           00000002  0000    69 ERROR		= 2			; ERROR SEVERITY VALUE FOR MSGS
                           00000003  0000    70 INFO		= 3			; INFORMATIONAL SEV VALUE FOR MSGS
                           00000004  0000    71 SEVERE		= 4			; SEVERE (FATAL) SEV VALUE FOR MSGS
                           00000000  0000    72 TCG_NO		=  0			; INITIALIZE TEST CASE GROUP NUMBER
                           00000000  0000    73 GRP_TOTAL	=  0			; INITIALIZE TEST CASE GROUP TOTAL
                           00007FFF  0000    74 R0_THRU_SP	= ^M<R0,R1,R2,R3,R4,R5,R6,R7,R8,R9,R10,R11,AP,FP,SP>
                           00000001  0000    75 PRVHND_DCH20	= 1			; PRVHND ARG FOR DCLCMH (LOCATION 1)
                                     0000    76 ;
                                     0000    77 ; OWN STORAGE:
                                     0000    78 ;
SATSSF15        - SATS SYSTEM SERVICE TESTS  (FAILING S.C.)      22-AUG-1978 03:55:46   VAX-11 MACRO X0.3-11               Page   3
1.0             DECLARATIONS                                                                                                     (1)

                                 00000000    80 	.PSECT	RODATA,RD,NOWRT,NOEXE,LONG
                                     0000    81 REG_COMP_MASK:	.WORD	^M<R2,R3,R4,R5,R6,R7,R8,R9,R10,R11,AP,FP> ! ^X8000 -
                               BFFC  0000    82 					; REG COMPARE MASK (HIGH-ORDER ...
                                     0002    83 					; ... BIT MUST BE ON
                                     0002    84 ERR_MSG_FAOCTL:	STRING	I,<!/!AC!1ZB!1ZB: REGISTER !2UW CONTENTS ALTERED>, -
                                     0002    85 		<;  BEFORE SERVICE CALL: !8XL   AFTER SERVICE CALL: !8XL>
                                     006E    86 TEST_MOD_NAME:	STRING	C,<SATSSF15>	; TEST MODULE NAME
                                     0077    87 TEST_MOD_BEG:	STRING	C,<begun>	; DISPOSITION FIELD OF TEST MOD MSG
                                     007D    88 TEST_MOD_SUCC:	STRING	C,<successful>	; DISPOSITION FIELD OF TEST MOD MSG
                                     0088    89 TEST_MOD_FAIL:	STRING	C,<failed>	; DISPOSITION FIELD OF TEST MOD MSG
                                     008F    90 TEST_MOD_NAME_D: STRING	I,<SATSSF15>	; TEST MODULE NAME DESCRIPTOR
                                     009F    91 TTNAME:     	STRING  I,<TT>		; TERMINAL LOGICAL NAME
                  00000000'00000000' 00A9    92 INADR:		.LONG	NOACCESS,NOACCESS ; PAGE ADDRESS OF NOACCESS PSECT
                           00000000' 00B1    93 PROT:		.LONG	PRT$C_NA	; PROTECTION CODE FOR NOACCESS PSECT
                  FFFFFFFF FFFFFFFF  00B5    94 ONES:		.LONG	-1,-1		; A QUADWORD OF 1-BITS
                                     00BD    95 ADDRES_DCH:				; ADDRES ARGUMENT FOR DCLCMH
                               0000  00BD    96 		.WORD	0		; ENTRY MASK FOR DCLCMH SERVICE
                                 02  00BF    97 		REI			; RETURN INSTRUCTION FOR DCLCMH SERV
                           000000C4  00C0    98 PRVHND_DCH21:	.BLKL	1		; PRVHND ARGUMENT FOR DCLCMH
                           00000000  00C4    99 TYPE_DCH:	.LONG	0		; TYPE ARGUMENT FOR DCLCMH SERVICE
                           00000003  00C8   100 ACMODE_ADS:	.LONG	PSL$C_USER	; ACMODE ARGUMENT FOR ADJSTK
                           00000002  00CC   101 ACMODE_ADS10:	.LONG	PSL$C_SUPER	; ACMODE ARGUMENT FOR ADJSTK
                           00000001  00D0   102 ACMODE_ADS11:	.LONG	PSL$C_EXEC	; ACMODE ARGUMENT FOR ADJSTK
                           00000000  00D4   103 ACMODE_ADS12:	.LONG	PSL$C_KERNEL	; ACMODE ARGUMENT FOR ADJSTK
                           00000000  00D8   104 ADJUST_ADS:	.LONG	0		; ADJUST ARGUMENT FOR ADJSTK
SATSSF15        - SATS SYSTEM SERVICE TESTS  (FAILING S.C.)      22-AUG-1978 03:55:46   VAX-11 MACRO X0.3-11               Page   4
1.0             DECLARATIONS                                                                                                     (1)

                                 00000000   106 	.PSECT	RWDATA,RD,WRT,NOEXE
                           00000004  0000   107 TPID:		.BLKL	1		; PROCESS ID FOR THIS PROCESS
                           00000008  0004   108 CURRENT_TC:	.BLKL	1 		; PTR TO CURRENT TEST CASE
                           00000044  0008   109 REG_SAVE_AREA:	.BLKL	15		; SAVE AREA FOR ALL REGS (SANS PC)
                           007480D9  0044   110 MOD_MSG_CODE:	.LONG	UETP$_SATSMS	; TEST MODULE MSG CODE FOR PUTMSG
                           0000004C  0048   111 CLOB_REG_NO:	.BLKL	1		; CLOBBERED REG NO (FOR FAO ERR MSG)
                           00000050  004C   112 REG_BEFORE_SS:	.BLKL	1		; REG CONTENTS BEFORE S.S.
                                     0050   113 					; ... (FOR FAO ERROR MSG)
                           00000054  0050   114 REG_AFTER_SS:	.BLKL	1		; REG CONTENTS AFTER S.S.
                                     0054   115 					; ... (FOR FAO ERROR MSG)
                                     0054   116 $$TSTN$$:	STRING	C,<  SF   >	; ASCII PORTION OF TEST CASE NAME
                           0000006E' 005C   117 TMN_ADDR:	.ADDRESS TEST_MOD_NAME	; ADDR OF TEST MOD NAME FOR FAO
                           00000077' 0060   118 TMD_ADDR:	.ADDRESS TEST_MOD_BEG	; ADDR OF T.M. DISP FIELD FOR FAO
                           00000068  0064   119 TS_EP:		.BLKL	1		; ENTRY PNT FOR CURR TESTSERV MACRO
                           00000070  0068   120 RETADR:		.BLKL	2		; RETURN LONGWORDS FOR SETPRT
                           00000071  0070   121 PRVPRT:		.BLKB	1		; PROT RETURN BYTE FOR SETPRT
                           00000079  0071   122 PRIVMASK:	.BLKQ	1		; ADDR OF PRIVILEGE MASK (IN PHD)
                           0000007D  0079   123 CHM_CONT:	.BLKL	1		; CHANGE MODE CONTINUE ADDRESS
                           00000091  007D   124 REGS:		.BLKL	5		; AREA FOR COND INDEX REGS (R2-R6)
                           00000095  0091   125 PRVHND_DCH:	.BLKL	1		; PRVHND ARGUMENT FOR DCLCMH SERVICE
                                     0095   126 DESBLK_CEH:				; DESBLK ARGUMENT FOR CANEXH
                                     0095   127 DESBLK_CEH10:				; DESBLK ARGUMENT FOR CANEXH
                           00000099  0095   128 		.BLKL	1		; EXIT CONTROL BLOCK (LINK PTR)
                           000000A9' 0099   129 		.ADDRESS 20$		; ADDRESS OF ROUTINE ENTRY MASK
                           00000001  009D   130 		.LONG	1		; ARGUMENT COUNT
                           000000A5' 00A1   131 		.ADDRESS 10$		; ADDR OF REASON CODE FIELD
                           000000A9  00A5   132 10$:		.BLKL	1		; REASON CODE FIELD
                               0000  00A9   133 20$:		.WORD	0		; EXIT HANDLER ENTRY MASK
                                 04  00AB   134 		RET			; EXIT HANDLER RETURN INSTR
                           00000000  00AC   135 NEWADR_ADS:	.LONG	0		; NEWADR ARGUMENT FOR ADJSTK SERVICE
SATSSF15        - SATS SYSTEM SERVICE TESTS  (FAILING S.C.)      22-AUG-1978 03:55:46   VAX-11 MACRO X0.3-11               Page   5
1.0             DECLARATIONS                                                                                                     (1)

                                 00000000   137 	.PSECT	SATS_ACCVIO_1,RD,WRT,NOEXE,PAGE
                           00000200  0000   138 EMPTY:		.BLKB	512	; RESERVE A PAGE OF SPACE
                                     0200   139 ;
                                     0200   140 ; +
                                     0200   141 ; ******************************************************************
                                     0200   142 ; *                                                                *
                                     0200   143 ; * 	THE ORDER OF STATEMENTS IN THIS PSECT IS CRITICAL.         *
                                     0200   144 ; *	DO NOT RE-ARRANGE THE VARIABLES. CONSULT SATS              *
                                     0200   145 ; *	FUNCTIONAL SPECIFICATION FOR A DESCRIPTION OF THE USE      *
                                     0200   146 ; *	OF THE EMPTY PSECT (AND ITS COMPANION PSECT, NOACCESS).    *
                                     0200   147 ; *                                                                *
                                     0200   148 ; ******************************************************************
                                     0200   149 ; -
                                     0200   150 ;
                                     0200   151 ; TYPE AAAAA_SSSX1 (TYPE AAAAA_SSSX2 IF NOT DESC) GO HERE:
                           000001FF  0200   152 PRVHND_DCH22	= . - 1		; PRVHND ARG FOR DCLCMH (LAST BYTE IN PAGE
                           000001F3  0200   153 		. = . - 13	; ALLOW ROOM FOR STRING DESCRIPTOR
                                     01F3   154 ; TYPE AAAAA_SSSX5 GO HERE:
                           00000006  01F3   155 		.LONG	6	; STRING LENGTH (WILL CROSS PSECT BOUNDARY)
                           000001FB' 01F7   156 		.ADDRESS .+4	; STRING ADDRESS
                                     01FB   157 ; TYPE AAAAA_SSSX3 GO HERE:
                           000001FC  01FB   158 		.BLKB	1	; LOW-ORDER BYTE OF STRING LENGTH
                                     01FC   159 ; TYPE AAAAA_SSSX2 GO HERE:
                           00000200  01FC   160 		.BLKL	1	; STRING LENGTH
                                     0200   161 ;
                                     0200   162 ;
                                     0200   163 ;
                                     0200   164 ;
                                 00000000   165 	.PSECT	SATS_ACCVIO_2,RD,WRT,NOEXE,PAGE
                           00000200  0000   166 NOACCESS:	.BLKB	512	; RESERVE A PAGE OF SPACE
                           00000000  0200   167 		. = . - 512	; RETURN LOC CTR TO BEGINNING OF PSECT
                           00000000' 0000   168 		.ADDRESS EMPTY	; ADDRESS OF ACCESSIBLE STRING
                           00000000' 0004   169 		.ADDRESS EMPTY/^X100 ; ADDRESS OF ACCESSIBLE STRING
                                     0008   170 ;+
                                     0008   171 ; *** NOTE -- DO NOT CHANGE LOCATION OR SEQUENCE OF ABOVE STATEMENTS!
                                     0008   172 ; ***         THIS PSECT (NOACCESS) MUST APPEAR IN MEMORY IMMEDIATELY
                                     0008   173 ; ***         FOLLOWING THE EMPTY PSECT. PSECT NAMES AND OPTIONS WILL BE
                                     0008   174 ; ***         CHOSEN TO FORCE THE DESIRED PSECT ORDERING.
                                     0008   175 ;-
                                     0008   176 ;
                                     0008   177 ;
                                     0008   178 ;
                                     0008   179 ;
                           00000001  0008   180 	.MDELETE (STRING)		; NO LONGER NEED MACRO DEFINITION
                                 00000000   181 	.PSECT	SATSSF15,RD,WRT,EXE,LONG
SATSSF15        - SATS SYSTEM SERVICE TESTS  (FAILING S.C.)      22-AUG-1978 03:55:46   VAX-11 MACRO X0.3-11               Page   6
1.0             SATSSF15                                                                                                         (1)

                                     0000   183 	.SBTTL	SATSSF15
                                     0000   184 ;++
                                     0000   185 ; FUNCTIONAL DESCRIPTION:
                                     0000   186 ;
                                     0000   187 ;		AFTER PERFORMING SOME INITIAL HOUSEKEEPING, SUCH AS
                                     0000   188 ; PRINTING THE MODULE BEGIN MESSAGE AND ACQUIRING ALL PRIVILEGES,
                                     0000   189 ; THE SATSSF15 ROUTINE EXECUTES THE TEST_SERV_EXEC MACRO TO RUN
                                     0000   190 ; ALL TEST CASES. WHEN THE MACRO COMPLETES ITS EXECUTION, SATSSF15
                                     0000   191 ; PRINTS A TEST MODULE SUCCESS OR FAIL MESSAGE AND EXITS TO THE
                                     0000   192 ; OPERATING SYSTEM. TEST_SERV_EXEC CALLS THE TC_CONTROL/TESTSERV
                                     0000   193 ; CO-ROUTINE PAIR ONCE PER TEST CASE GROUP TO EXECUTE ALL TEST
                                     0000   194 ; CASES IN THAT GROUP. EACH TEST CASE GROUP IS DEFINED BY BOUNDING
                                     0000   195 ; ITS TEST CASES WITH A TC_GROUP MACRO BEFORE THE FIRST TEST CASE
                                     0000   196 ; AND A TCEND MACRO AFTER THE LAST ONE. THE TEST CASES THEMSELVES
                                     0000   197 ; ARE DEFINED WITHIN THESE BOUNDS BY PRECEDING EACH WITH A
                                     0000   198 ; NEXT_TEST_CASE MACRO. TC_CONTROL/TESTSERV EXECUTES THE CODE
                                     0000   199 ; FOLLOWING EACH NEXT_TEST_CASE MACRO IMMEDIATELY BEFORE ISSUING
                                     0000   200 ; THE SYSTEM SERVICE AS REQUESTED IN THE TESTSERV MACRO. TC_CONTROL/
                                     0000   201 ; TESTSERV ALSO CHECKS THE RESULTS OF THE SERVICE WITH RESPECT
                                     0000   202 ; TO ITS EXPECTED STATUS CODE AND PRINTS ANY REQUIRED FAILURE
                                     0000   203 ; MESSAGES FOR THE TEST CASE. THE CODE APPEARING AFTER EACH
                                     0000   204 ; NEXT_TEST_CASE MACRO IS MERELY TO SET UP CONDITIONS REQUIRED
                                     0000   205 ; FOR THE SYSTEM SERVICE AND TO CLEAN UP ANY RESOURCES ACQUIRED
                                     0000   206 ; BY THE PREVIOUS TEST CASE.
                                     0000   207 ;
                                     0000   208 ; CALLING SEQUENCE:
                                     0000   209 ;
                                     0000   210 ;	$ RUN SATSSF15  ...  (DCL COMMAND)
                                     0000   211 ;
                                     0000   212 ; INPUT PARAMETERS:
                                     0000   213 ;
                                     0000   214 ;	NONE
                                     0000   215 ;
                                     0000   216 ; IMPLICIT INPUTS:
                                     0000   217 ;
                                     0000   218 ;	NONE
                                     0000   219 ;
                                     0000   220 ; OUTPUT PARAMETERS:
                                     0000   221 ;
                                     0000   222 ;	NONE
                                     0000   223 ;
                                     0000   224 ; IMPLICIT OUTPUTS:
                                     0000   225 ;
                                     0000   226 ;	MESSAGES TO SYS$OUTPUT ARE THE ONLY OUTPUT FROM SATSSF15.
                                     0000   227 ;	THEY ARE OF THE FORM:
                                     0000   228 ;
                                     0000   229 ;		%UETP-S-SATSMS, TEST MODULE SATSSF15 BEGUN ... (BEGIN MSG)
                                     0000   230 ;		%UETP-S-SATSMS, TEST MODULE SATSSF15 SUCCESSFUL ... (END MSG)
                                     0000   231 ;		%UETP-E-SATSMS, TEST MODULE SATSSF15 FAILED ... (END MSG)
                                     0000   232 ;		%UETP-I-TEXT, ... (VARIABLE INFORMATION ABOUT A TEST MODULE FAILURE)
                                     0000   233 ;
                                     0000   234 ; COMPLETION CODES:
                                     0000   235 ;
                                     0000   236 ;	THE SATSSF15 ROUTINE TERMINATES WITH A $EXIT TO THE
                                     0000   237 ;	OPERATING SYSTEM WITH A STATUS CODE DEFINED BY UETP$_SATSMS.
                                     0000   238 ;
                                     0000   239 ; SIDE EFFECTS:
SATSSF15        - SATS SYSTEM SERVICE TESTS  (FAILING S.C.)      22-AUG-1978 03:55:46   VAX-11 MACRO X0.3-11               Page   7
1.0             SATSSF15                                                                                                         (1)

                                     0000   240 ;
                                     0000   241 ;	NONE
                                     0000   242 ;
                                     0000   243 ;--
                                     0000   244
                                     0000   245
                                     0000   246
                                     0000   247 SATSSF15:
                               0FFC  0000   248 	.WORD	^M<R2,R3,R4,R5,R6,R7,R8,R9,R10,R11>
                                     0002   249 					; ENTRY MASK
                                     0002   250 	$WAKE_S  TPID			; GET PID OF THIS PROCESS
                                     0011   251 	$HIBER_S			; UNDO WAKE
                                     0018   252 	$SETPRN_S TEST_MOD_NAME_D 	; SET PROCESS NAME
                          091D   30  0025   253 	BSBW	MOD_MSG_PRINT		; PRINT TEST MODULE BEGIN MSG
   00000060'EF   0000007D'EF     DE  0028   254 	MOVAL	TEST_MOD_SUCC,TMD_ADDR	; ASSUME END MSG WILL SHOW SUCCESS
            00            01     F0  0033   255 	INSV	#SUCCESS,#0,#3,MOD_MSG_CODE ; ADJUST STATUS CODE FOR SUCCESS
   00000044'EF            03         0036
                                     003C   256 	MODE	TO,10$,KRNL,NOREGS 	; KERNEL MODE TO ACCESS PHD
            59   00000000'9F     D0  0059   257 	MOVL	@#CTL$GL_PHD,R9		; GET PROCESS HEADER ADDRESS
   00000071'EF            69     DE  0060   258 	MOVAL	PHD$Q_PRIVMSK(R9),PRIVMASK ; GET PRIV MASK ADDRESS
                                     0067   259 	MODE	FROM,10$		; GET BACK TO USER MODE
                                     0068   260 	PRIV	ADD,ALL			; GET ALL PRIVILEGES
                                     0091   261 	DISPSERV			; SET UP DISPLAY INFO FOR TESTSERV
                                     0226   262 	$SETPRT_S INADR=INADR, RETADR=RETADR, -
                                     0226   263 		  PROT=PROT, PRVPRT=PRVPRT
                                     0247   264 					; SET NOACCESS PSECT ...
                                     0247   265 					; ... FOR NO USER ACCESS
                          05A2   31  0247   266 	BRW	EXECUTE			; GO EXECUTE ALL TEST CASES
                                     024A   267 ;
                                     024A   268 	TC_GROUP	DCH,1,TS1
                                     0271   269 ;
                                     0271   270 	NEXT_TEST_CASE	SFDCH20
SATSSF15        - SATS SYSTEM SERVICE TESTS  (FAILING S.C.)      22-AUG-1978 03:55:46   VAX-11 MACRO X0.3-11               Page   8
1.0             SFDCH20                                                                                                          (1)

                                     0271   271 ;
                                     0271   272 ;++
                                     0271   273 ; ******************************************************
                                     0271   274 ; *
                                     0271   275 ; *  TEST CASE NAME:		SFDCH20
                                     0271   276 ; *
                                     0271   277 ; *  SYSTEM SERVICE:		DCLCMH
                                     0271   278 ; *
                                     0271   279 ; *  ARGUMENT UNDER TEST: 	PRVHND_DCH20
                                     0271   280 ; *
                                     0271   281 ; *  INPUT CONDITIONS:
                                     0271   282 ; *	PREVIOUS HANDLER ADDRESS BUFFER AT LOCATION 1.
                                     0271   283 ; *
                                     0271   284 ; *  EXPECTED RESULTS:
                                     0271   285 ; *	1) SYSTEM STATUS CODE:	ACCVIO
                                     0271   286 ; *	2) REGISTERS R2 THROUGH FP UNCHANGED
                                     0271   287 ; *
                                     0271   288 ; ******************************************************
                                     0271   289 ;--
                                     0271   290 ;
                                     0271   291 ;
                                     0271   292 	NEXT_TEST_CASE	SFDCH21
SATSSF15        - SATS SYSTEM SERVICE TESTS  (FAILING S.C.)      22-AUG-1978 03:55:46   VAX-11 MACRO X0.3-11               Page   9
1.0             SFDCH21                                                                                                          (1)

                                     027D   293 ;
                                     027D   294 ;++
                                     027D   295 ; ******************************************************
                                     027D   296 ; *
                                     027D   297 ; *  TEST CASE NAME:		SFDCH21
                                     027D   298 ; *
                                     027D   299 ; *  SYSTEM SERVICE:		DCLCMH
                                     027D   300 ; *
                                     027D   301 ; *  ARGUMENT UNDER TEST: 	PRVHND_DCH21
                                     027D   302 ; *
                                     027D   303 ; *  INPUT CONDITIONS:
                                     027D   304 ; *	PREVIOUS HANDLER ADDRESS BUFFER IN READ-ONLY PSECT.
                                     027D   305 ; *
                                     027D   306 ; *  EXPECTED RESULTS:
                                     027D   307 ; *	1) SYSTEM STATUS CODE:	ACCVIO
                                     027D   308 ; *	2) REGISTERS R2 THROUGH FP UNCHANGED
                                     027D   309 ; *
                                     027D   310 ; ******************************************************
                                     027D   311 ;--
                                     027D   312 ;
                                     027D   313 ;
                                     027D   314 	NEXT_TEST_CASE	SFDCH22
SATSSF15        - SATS SYSTEM SERVICE TESTS  (FAILING S.C.)      22-AUG-1978 03:55:46   VAX-11 MACRO X0.3-11               Page  10
1.0             SFDCH22                                                                                                          (1)

                                     0289   315 ;
                                     0289   316 ;++
                                     0289   317 ; ******************************************************
                                     0289   318 ; *
                                     0289   319 ; *  TEST CASE NAME:		SFDCH22
                                     0289   320 ; *
                                     0289   321 ; *  SYSTEM SERVICE:		DCLCMH
                                     0289   322 ; *
                                     0289   323 ; *  ARGUMENT UNDER TEST: 	PRVHND_DCH22
                                     0289   324 ; *
                                     0289   325 ; *  INPUT CONDITIONS:
                                     0289   326 ; *	PREVIOUS HANDLER ADDRESS BUFFER BEGINS IN ACCESSIBLE
                                     0289   327 ; *	  PSECT, ENDS IN NON-ACCESSIBLE PSECT.
                                     0289   328 ; *
                                     0289   329 ; *  EXPECTED RESULTS:
                                     0289   330 ; *	1) SYSTEM STATUS CODE:	ACCVIO
                                     0289   331 ; *	2) REGISTERS R2 THROUGH FP UNCHANGED
                                     0289   332 ; *
                                     0289   333 ; ******************************************************
                                     0289   334 ;--
                                     0289   335 ;
                                     0289   336 ;
                                     0289   337 	TCEND
SATSSF15        - SATS SYSTEM SERVICE TESTS  (FAILING S.C.)      22-AUG-1978 03:55:46   VAX-11 MACRO X0.3-11               Page  11
1.0                                                                                                                              (1)

                                     028A   338 ;
                                     028A   339 	TC_GROUP	CEH,1,TS2
                                     02B1   340 ;
                                     02B1   341 	NEXT_TEST_CASE	SFCEH10
SATSSF15        - SATS SYSTEM SERVICE TESTS  (FAILING S.C.)      22-AUG-1978 03:55:46   VAX-11 MACRO X0.3-11               Page  12
1.0             SFCEH10                                                                                                          (1)

                                     02B1   342 ;
                                     02B1   343 ;++
                                     02B1   344 ; ******************************************************
                                     02B1   345 ; *
                                     02B1   346 ; *  TEST CASE NAME:		SFCEH10
                                     02B1   347 ; *
                                     02B1   348 ; *  SYSTEM SERVICE:		CANEXH
                                     02B1   349 ; *
                                     02B1   350 ; *  ARGUMENT UNDER TEST: 	DESBLK_CEH10
                                     02B1   351 ; *
                                     02B1   352 ; *  INPUT CONDITIONS:
                                     02B1   353 ; *	SPECIFIED EXIT HANDLER NEVER DECLARED
                                     02B1   354 ; *	  WITH A $DCLEXH SYSTEM SERVICE.
                                     02B1   355 ; *
                                     02B1   356 ; *  EXPECTED RESULTS:
                                     02B1   357 ; *	1) SYSTEM STATUS CODE:	NOHANDLER
                                     02B1   358 ; *	2) REGISTERS R2 THROUGH FP UNCHANGED
                                     02B1   359 ; *
                                     02B1   360 ; ******************************************************
                                     02B1   361 ;--
                                     02B1   362 ;
                                     02B1   363 ;
                                     02B1   364 	TCEND
SATSSF15        - SATS SYSTEM SERVICE TESTS  (FAILING S.C.)      22-AUG-1978 03:55:46   VAX-11 MACRO X0.3-11               Page  13
1.0                                                                                                                              (1)

                                     02B2   365 ;
                                     02B2   366 	TC_GROUP	ADS,1,TS3
                                     02D9   367 ;
                                     02D9   368 	NEXT_TEST_CASE	SFADS10
SATSSF15        - SATS SYSTEM SERVICE TESTS  (FAILING S.C.)      22-AUG-1978 03:55:46   VAX-11 MACRO X0.3-11               Page  14
1.0             SFADS10                                                                                                          (1)

                                     02D9   369 ;
                                     02D9   370 ;++
                                     02D9   371 ; ******************************************************
                                     02D9   372 ; *
                                     02D9   373 ; *  TEST CASE NAME:		SFADS10
                                     02D9   374 ; *
                                     02D9   375 ; *  SYSTEM SERVICE:		ADJSTK
                                     02D9   376 ; *
                                     02D9   377 ; *  ARGUMENT UNDER TEST: 	ACMODE_ADS10
                                     02D9   378 ; *
                                     02D9   379 ; *  INPUT CONDITIONS:
                                     02D9   380 ; *	ATTEMPT TO ADJUST SUPERVISOR STACK
                                     02D9   381 ; *
                                     02D9   382 ; *  EXPECTED RESULTS:
                                     02D9   383 ; *	1) SYSTEM STATUS CODE:	NOPRIV
                                     02D9   384 ; *	2) REGISTERS R2 THROUGH FP UNCHANGED
                                     02D9   385 ; *
                                     02D9   386 ; ******************************************************
                                     02D9   387 ;--
                                     02D9   388 ;
                                     02D9   389 ;
                                     02D9   390 	NEXT_TEST_CASE	SFADS11
SATSSF15        - SATS SYSTEM SERVICE TESTS  (FAILING S.C.)      22-AUG-1978 03:55:46   VAX-11 MACRO X0.3-11               Page  15
1.0             SFADS11                                                                                                          (1)

                                     02E5   391 ;
                                     02E5   392 ;++
                                     02E5   393 ; ******************************************************
                                     02E5   394 ; *
                                     02E5   395 ; *  TEST CASE NAME:		SFADS11
                                     02E5   396 ; *
                                     02E5   397 ; *  SYSTEM SERVICE:		ADJSTK
                                     02E5   398 ; *
                                     02E5   399 ; *  ARGUMENT UNDER TEST: 	ACMODE_ADS11
                                     02E5   400 ; *
                                     02E5   401 ; *  INPUT CONDITIONS:
                                     02E5   402 ; *	ATTEMPT TO ADJUST EXECUTIVE STACK.
                                     02E5   403 ; *
                                     02E5   404 ; *  EXPECTED RESULTS:
                                     02E5   405 ; *	1) SYSTEM STATUS CODE:	NOPRIV
                                     02E5   406 ; *	2) REGISTERS R2 THROUGH FP UNCHANGED
                                     02E5   407 ; *
                                     02E5   408 ; ******************************************************
                                     02E5   409 ;--
                                     02E5   410 ;
                                     02E5   411 ;
                                     02E5   412 	NEXT_TEST_CASE	SFADS12
SATSSF15        - SATS SYSTEM SERVICE TESTS  (FAILING S.C.)      22-AUG-1978 03:55:46   VAX-11 MACRO X0.3-11               Page  16
1.0             SFADS12                                                                                                          (1)

                                     02F1   413 ;
                                     02F1   414 ;++
                                     02F1   415 ; ******************************************************
                                     02F1   416 ; *
                                     02F1   417 ; *  TEST CASE NAME:		SFADS12
                                     02F1   418 ; *
                                     02F1   419 ; *  SYSTEM SERVICE:		ADJSTK
                                     02F1   420 ; *
                                     02F1   421 ; *  ARGUMENT UNDER TEST: 	ACMODE_ADS12
                                     02F1   422 ; *
                                     02F1   423 ; *  INPUT CONDITIONS:
                                     02F1   424 ; *	ATTEMPT TO ADJUST KERNEL STACK.
                                     02F1   425 ; *
                                     02F1   426 ; *  EXPECTED RESULTS:
                                     02F1   427 ; *	1) SYSTEM STATUS CODE:	NOPRIV
                                     02F1   428 ; *	2) REGISTERS R2 THROUGH FP UNCHANGED
                                     02F1   429 ; *
                                     02F1   430 ; ******************************************************
                                     02F1   431 ;--
                                     02F1   432 ;
                                     02F1   433 ;
                                     02F1   434 	TCEND
SATSSF15        - SATS SYSTEM SERVICE TESTS  (FAILING S.C.)      22-AUG-1978 03:55:46   VAX-11 MACRO X0.3-11               Page  17
1.0                                                                                                                              (1)

                                     02F2   435 TS1:
                                     02F2   436 	TESTSERV	DCLCMH,ERR,SATS,				-
                                     02F2   437                                           				-
                                     02F2   438 	   <1,ADDRES_DCH,						-
                                     02F2   439                                                   >,			-
                                     02F2   440                                           				-
                                     02F2   441 	   <1,PRVHND_DCH,						-
                                     02F2   442 	        	PRVHND_DCH20,ACCVIO,	-  ; SFDCH20
                                     02F2   443 	        	PRVHND_DCH21,ACCVIO,	-  ; SFDCH21
                                     02F2   444 	        	PRVHND_DCH22,ACCVIO,	-  ; SFDCH22
                                     02F2   445                                                   >,			-
                                     02F2   446                                           				-
                                     02F2   447 	   <1,TYPE_DCH,						-
                                     02F2   448                                                   >,			-
                                     02F2   449
                                     04DC   450 	TS_CLEANUP		; CLEAN UP & RETURN TO TEST_SERV_EXEC
SATSSF15        - SATS SYSTEM SERVICE TESTS  (FAILING S.C.)      22-AUG-1978 03:55:46   VAX-11 MACRO X0.3-11               Page  18
1.0                                                                                                                              (1)

                                     04FC   451 TS2:
                                     04FC   452 	TESTSERV	CANEXH,ERR,SATS,				-
                                     04FC   453                                           				-
                                     04FC   454 	   <1,DESBLK_CEH,						-
                                     04FC   455 	        	DESBLK_CEH10,NOHANDLER,	-  ; SFCEH10
                                     04FC   456                                                   >,			-
                                     04FC   457
                                     05BF   458 	TS_CLEANUP		; CLEAN UP & RETURN TO TEST_SERV_EXEC
SATSSF15        - SATS SYSTEM SERVICE TESTS  (FAILING S.C.)      22-AUG-1978 03:55:46   VAX-11 MACRO X0.3-11               Page  19
1.0                                                                                                                              (1)

                                     05DF   459 TS3:
                                     05DF   460 	TESTSERV	ADJSTK,ERR,SATS,				-
                                     05DF   461                                           				-
                                     05DF   462 	   <1,ACMODE_ADS,						-
                                     05DF   463 	        	ACMODE_ADS10,NOPRIV,	-  ; SFADS10
                                     05DF   464 	        	ACMODE_ADS11,NOPRIV,	-  ; SFADS11
                                     05DF   465 	        	ACMODE_ADS12,NOPRIV,	-  ; SFADS12
                                     05DF   466                                                   >,			-
                                     05DF   467                                           				-
                                     05DF   468 	   <1,ADJUST_ADS,						-
                                     05DF   469                                                   >,			-
                                     05DF   470                                           				-
                                     05DF   471 	   <1,NEWADR_ADS,						-
                                     05DF   472                                                   >,			-
                                     05DF   473
                                     07CC   474 	TS_CLEANUP		; CLEAN UP & RETURN TO TEST_SERV_EXEC
SATSSF15        - SATS SYSTEM SERVICE TESTS  (FAILING S.C.)      22-AUG-1978 03:55:46   VAX-11 MACRO X0.3-11               Page  20
1.0             EXECUTE & CLEANUP                                                                                                (1)

                                     07EC   475 	.SBTTL	EXECUTE & CLEANUP
                                     07EC   476 EXECUTE:
                                     07EC   477 	TEST_SERV_EXEC			; EXECUTE ALL T. CASES IN ALL GROUPS
                                     080A   478 	.MDELETE (PRIV,TC_GROUP,NEXT_TEST_CASE, -
                           0000000D  080A   479 		  TCEND,TESTSERV,TS_CLEANUP,TEST_SERV_EXEC)
                                     080A   480 					; DELETE MACRO DEFINITIONS
                                     080A   481 CLEANUP:
                          0138   30  080A   482 	BSBW	MOD_MSG_PRINT		; PRINT TEST MODULE END MSG
            1C            01     F0  080D   483 	INSV	#1,#STS$V_INHIB_MSG,#1,MOD_MSG_CODE
   00000044'EF            01         0810
                                     0816   484 					; INHIBIT PRINTING
                                     0816   485 	$EXIT_S	MOD_MSG_CODE		; EXIT TO OP SYS WITH MSG CODE
SATSSF15        - SATS SYSTEM SERVICE TESTS  (FAILING S.C.)      22-AUG-1978 03:55:46   VAX-11 MACRO X0.3-11               Page  21
1.0             TC_CONTROL                                                                                                       (1)

                                     0823   487 	.SBTTL	TC_CONTROL
                                     0823   488 ;++
                                     0823   489 ; FUNCTIONAL DESCRIPTION:
                                     0823   490 ;
                                     0823   491 ;		THE TC_CONTROL SUBROUTINE IS CALLED BY THE TEST_SERV_EXEC
                                     0823   492 ; MACRO TO EXECUTE A GROUP OF TEST CASES. A GROUP IS DEFINED BY A TC_GROUP
                                     0823   493 ; MACRO. FOR EACH TC_GROUP MACRO, THERE IS A CORRESPONDING TESTSERV MACRO.
                                     0823   494 ; TESTSERV CONTAINS CODE TO EXECUTE SYSTEM SERVICES AND CHECK THE RETURNED
                                     0823   495 ; STATUS CODE VALUES. TESTSERV ARGUMENTS ARE CODED TO SPECIFY ALL THE SYSTEM
                                     0823   496 ; SERVICE ARGUMENT VALUES AND THE EXPECTED STATUS CODE FOR EACH TEST CASE
                                     0823   497 ; DEFINED BY A NEXT_TEST_CASE MACRO WITHIN THE GROUP. TC_CONTROL USES A
                                     0823   498 ; CO-ROUTINE INTERFACE TO ENTER THE CODE OF THE APPROPRIATE TESTSERV MACRO
                                     0823   499 ; IN VARIOUS PLACES. THE FIRST ENTRY OCCURS ONCE PER GROUP TO ALLOW TESTSERV
                                     0823   500 ; TO DO SOME INITIALIZATION. THEN TWO ENTRIES ARE MADE FOR EACH TEST CASE IN
                                     0823   501 ; THE GROUP. THE FIRST ALLOWS TESTSERV TO ISSUE THE SUBJECT SYSTEM SERVICE.
                                     0823   502 ; THE SECOND ENTRY FOR THE TEST CASE CAUSES TESTSERV TO CHECK THE RETURNED
                                     0823   503 ; STATUS CODE, PRINTING A FAILURE MESSAGE IF IT IS NOT THE EXPECTED CODE.
                                     0823   504 ; IF THERE ARE NO MORE TEST CASES IN THE CURRENT GROUP, TESTSERV (NOT TC_CONTROL)
                                     0823   505 ; RETURNS DIRECTLY TO TEST_SERV_EXEC (RSB ACTUALLY ISSUED IN TS_CLEANUP MACRO)
                                     0823   506 ; FROM THIS SECOND ENTRY; OTHERWISE, CONTROL RETURNS TO TC_CONTROL WHICH
                                     0823   507 ; IN TURN ENTERS TESTSERV AGAIN FOR THE NEXT TEST CASE. THE FAILURE OF A
                                     0823   508 ; TEST CASE DOES NOT CAUSE TERMINATION OF THE TEST MODULE.
                                     0823   509 ;
                                     0823   510 ; CALLING SEQUENCE:
                                     0823   511 ;
                                     0823   512 ;	BSBW TC_CONTROL (ISSUED WITHIN THE TEST_SERV_EXEC MACRO)
                                     0823   513 ;			(RSB IS ISSUED WITHIN THE TS_CLEANUP MACRO)
                                     0823   514 ;
                                     0823   515 ; INPUT PARAMETERS:
                                     0823   516 ;
                                     0823   517 ;	NONE
                                     0823   518 ;
                                     0823   519 ; IMPLICIT INPUTS:
                                     0823   520 ;
                                     0823   521 ;	ARGUMENTS SPECIFIED ON EACH TESTSERV MACRO MAY BE VIEWED AS
                                     0823   522 ;	INPUTS, SINCE TC_CONTROL AND TESTSERV ACT AS CO-ROUTINES.
                                     0823   523 ;
                                     0823   524 ; OUTPUT PARAMETERS:
                                     0823   525 ;
                                     0823   526 ;	SEVERITY CODE FIELD OF MOD_MSG_CODE (BITS 0,1,2) IS SET TO ERROR
                                     0823   527 ;	IF ANY TEST CASE IN THE CURRENT GROUP FAILS; OTHERWISE IT REMAINS
                                     0823   528 ;	SET TO SUCCESSFUL.
                                     0823   529 ;
                                     0823   530 ; IMPLICIT OUTPUTS:
                                     0823   531 ;
                                     0823   532 ;	%UETP-I-TEXT,   ERROR MESSAGES ARE WRITTEN TO SYS$OUTPUT BY
                                     0823   533 ;			THE TESTSERV MACRO (CO-ROUTINE WITH TC_CONTROL)
                                     0823   534 ;
                                     0823   535 ; COMPLETION CODES:
                                     0823   536 ;
                                     0823   537 ;	NONE
                                     0823   538 ;
                                     0823   539 ; SIDE EFFECTS:
                                     0823   540 ;
                                     0823   541 ;	NONE
                                     0823   542 ;
                                     0823   543 ;--
SATSSF15        - SATS SYSTEM SERVICE TESTS  (FAILING S.C.)      22-AUG-1978 03:55:46   VAX-11 MACRO X0.3-11               Page  22
1.0             TC_CONTROL                                                                                                       (1)

                                     0823   544
                                     0823   545
                                     0823   546
                                     0823   547 TC_CONTROL:
                 00000064'EF     DD  0823   548 	PUSHL	TS_EP			; PUSH TESTSERV ENTRY POINT
                          9E     16  0829   549 	JSB	@(SP)+			; ENTER TESTSERV INITIALIZATION
                                     082B   550 10$:					; PROCESS NEXT TEST CASE
   00000056'EF            20     90  082B   551 	MOVB	#^A/ /,$$TSTN$$+2 	; MAKE SURE T.C. NAME HAS A BLANK
                          002F   30  0832   552 	BSBW	REG_SAVE		; SAVE REGISTERS
                 00000004'FF     16  0835   553 	JSB	@CURRENT_TC		; JUMP TO CURRENT TEST CASE
                          0037   30  083B   554 	BSBW	REG_REST		; RESTORE REGS FOR TESTSERV
                          9E     16  083E   555 	JSB	@(SP)+			; LET TESTSERV ISSUE SYSTEM SERVICE
                          0042   30  0840   556 	BSBW	REG_COMP		; COMPARE REGS TO SEE IF ...
                                     0843   557 					; ... SYSTEM SERVICE CHANGED ANY
                          9E     16  0843   558 	JSB	@(SP)+			; LET TESTSERV CHEK S.S. STATUS CODE
   00000056'EF            2A     91  0845   559 	CMPB	#^A/*/,$$TSTN$$+2	; HAS TESTSERV INDICATED FAILURE ?
                          DD     12  084C   560 	BNEQU	10$			; NO -- PROCESS NEXT TEST CASE
   00000060'EF   00000088'EF     DE  084E   561 	MOVAL	TEST_MOD_FAIL,TMD_ADDR	; YES -- INDICATE FAILED IN END MSG
            00            02     F0  0859   562 	INSV	#ERROR,#0,#3,MOD_MSG_CODE ; ADJUST STATUS CODE FOR ERROR
   00000044'EF            03         085C
                          C7     11  0862   563 	BRB	10$			; LOOP BAK TO PROCESS NEXT TEST CASE
                                     0864   564 ;
                                     0864   565 ;   TC_CONTROL RETURNS TO TEST_SERV_EXEC VIA TESTSERV (IN TS_CLEANUP MACRO)
                                     0864   566 ;
SATSSF15        - SATS SYSTEM SERVICE TESTS  (FAILING S.C.)      22-AUG-1978 03:55:46   VAX-11 MACRO X0.3-11               Page  23
1.0             SUBROUTINES                                                                                                      (1)

                                     0864   568 	.SBTTL	SUBROUTINES
                                     0864   569 REG_SAVE:
                                     0864   570 ;
                                     0864   571 ;  *****************************************************************
                                     0864   572 ;  *                                                               *
                                     0864   573 ;  *  SAVES R0 THRU SP IN REG_SAVE_AREA                            *
                                     0864   574 ;  *                                                               *
                                     0864   575 ;  *****************************************************************
                                     0864   576 ;
                     7FFF 8F     BB  0864   577 	PUSHR	#R0_THRU_SP		; SAVE ALL REGS ON STACK
            6E            3C     28  0868   578 	MOVC3	#60,(SP),REG_SAVE_AREA	; SAVE REGS (BEFORE S.S.)
                 00000008'EF         086B
                     7FFF 8F     BA  0870   579 	POPR	#R0_THRU_SP		; CLEAN UP STACK
                                 05  0874   580 	RSB				; .... AND RETURN
                                     0875   581 ;
                                     0875   582 ;
                                     0875   583 ;
                                     0875   584 ;
                                     0875   585 REG_REST:
                                     0875   586 ;
                                     0875   587 ;
                                     0875   588 ;  *****************************************************************
                                     0875   589 ;  *                                                               *
                                     0875   590 ;  *  RESTORES R0 THRU SP FROM REG_SAVE_AREA                       *
                                     0875   591 ;  *                                                               *
                                     0875   592 ;  *****************************************************************
                                     0875   593 ;
            5E            3C     C2  0875   594 	SUBL2	#60,SP			; MOVE SP TO MAKE ROOM FOR REGS
   00000008'EF            3C     28  0878   595 	MOVC3	#60,REG_SAVE_AREA,(SP)	; MOVE REGS ONTO STACK FOR POP
                          6E         087F
                     7FFF 8F     BA  0880   596 	POPR	#R0_THRU_SP		; RESTORE ALL REGS FOR TESTSERV
                                 05  0884   597 	RSB				; ... AND RETURN
SATSSF15        - SATS SYSTEM SERVICE TESTS  (FAILING S.C.)      22-AUG-1978 03:55:46   VAX-11 MACRO X0.3-11               Page  24
1.0             SUBROUTINES                                                                                                      (1)

                                     0885   599 REG_COMP:
                                     0885   600 ;
                                     0885   601 ;  *****************************************************************
                                     0885   602 ;  *                                                               *
                                     0885   603 ;  *  1) PUSHES ALL REGS ONTO STACK                                *
                                     0885   604 ;  *  2) COMPARES REGISTER IMAGES FROM STACK WITH CORRESPONDING    *
                                     0885   605 ;  *       IMAGES FROM REG_SAVE_AREA FOR ALL REGISTERS SPECIFIED   *
                                     0885   606 ;  *       IN REG_COMP_MASK.                                       *
                                     0885   607 ;  *  3) FOR EACH UNEQUAL COMPARE, AN ERROR MESSAGE IS PRINTED     *
                                     0885   608 ;  *       (USING $FAO AND $OUTPUT SYSTEM SERVICES).               *
                                     0885   609 ;  *  4) POPS ALL REGS OFF OF STACK                                *
                                     0885   610 ;  *                                                               *
                                     0885   611 ;  *****************************************************************
                                     0885   612 ;
                     7FFF 8F     BB  0885   613 	PUSHR	#R0_THRU_SP		; SAVE ALL REGISTERS ON STACK
            56   00000008'EF     DE  0889   614 	MOVAL	REG_SAVE_AREA,R6 	; POINT R6 TO BEG OF ...
                                     0890   615 					; ... REGS (BEFORE S.S.)
            54            5E     D0  0890   616 	MOVL	SP,R4			; POINT R4 TO BEG OF
                                     0893   617 					; ... REGS (AFTER S.S.)
            53         FF 8F     98  0893   618 	CVTBL	#-1,R3			; INITIALIZE REG_COMP_MASK INDEX
                                     0897   619 REG_COMP_NEXT:
                          53     D6  0897   620 	INCL	R3			; POINT TO NEXT BIT IN MASK
            53            0F     91  0899   621 	CMPB	#15,R3			; END OF THE MASK ?
                          03     1A  089C   622 	BGTRU	REG_COMP_CONT		; NO -- CONTINUE
                          009F   31  089E   623 	BRW	REG_COMP_RSB		; YES -- GO TO COMMON RETURN
                                     08A1   624 REG_COMP_CONT:
            84            86     D1  08A1   625 	CMPL	(R6)+,(R4)+		; REG BEFORE = REG AFTER ?
                          F1     13  08A4   626 	BEQLU	REG_COMP_NEXT		; YES -- LOOK FOR NEXT REG
   00000000'EF            53     E1  08A6   627 	BBC	R3,REG_COMP_MASK,REG_COMP_NEXT
                          E9         08AD
                                     08AE   628 					; NO -- GET NEXT IF BIT NOT SET
   00000048'EF            53     D0  08AE   629 	MOVL	R3,CLOB_REG_NO		; NO -- GIVE REG NUMBER TO FAO
   0000004C'EF         FC A6     D0  08B5   630 	MOVL	-4(R6),REG_BEFORE_SS 	; GIVE "BEFORE" CONTENTS TO FAO
   00000050'EF         FC A4     D0  08BD   631 	MOVL	-4(R4),REG_AFTER_SS  	; GIVE "AFTER" CONTENTS TO FAO
   00000056'EF            2A     90  08C5   632 	MOVB	#^A/*/,$$TSTN$$+2 	; GIVE FAILURE INDIC'N IN ERROR MSG
                                     08CC   633 ;
                                     08CC   634 	$FAO_S	ERR_MSG_FAOCTL,OUTL,OUTD,$$SNAD$$,  -
                                     08CC   635 		$$ASEQ$$,$$PSEQ$$,CLOB_REG_NO,REG_BEFORE_SS,REG_AFTER_SS
                                     08FF   636 ;
       F817 CF       F7E1 CF     B0  08FF   637 	MOVW	OUTL,OUTD		; ACTUAL OUTPUT LEN IN STRING DESC'R
                                     0906   638 	PUTMSG	<#UETP$_TEXT,#1,#OUTD>	; PRINT THE MSG
       F7FB CF       0084 8F     B0  091B   639 	MOVW	#OUTE-OUTB,OUTD		; GET MAX LEN BACK INTO DESCRIPTOR
   00000056'EF            20     90  0922   640 	MOVB	#^A/ /,$$TSTN$$+2 	; REMOVE FAIL INDIC'N FOR NEXT MSG
   00000060'EF   00000088'EF     DE  0929   641 	MOVAL	TEST_MOD_FAIL,TMD_ADDR	; INDICATE FAILED IN END MSG
            00            02     F0  0934   642 	INSV	#ERROR,#0,#3,MOD_MSG_CODE ; ADJUST STATUS CODE FOR ERROR
   00000044'EF            03         0937
                          FF57   31  093D   643 	BRW	REG_COMP_NEXT		; GO LOOK FOR NEXT REG TO COMPARE
                                     0940   644 REG_COMP_RSB:
                     7FFF 8F     BA  0940   645 	POPR	#R0_THRU_SP		; CLEAN UP STACK
                                 05  0944   646 	RSB				; RETURN TO CALLER
SATSSF15        - SATS SYSTEM SERVICE TESTS  (FAILING S.C.)      22-AUG-1978 03:55:46   VAX-11 MACRO X0.3-11               Page  25
1.0             SUBROUTINES                                                                                                      (1)

                                     0945   648 MOD_MSG_PRINT:
                                     0945   649 ;
                                     0945   650 ;  *****************************************************************
                                     0945   651 ;  *                                                               *
                                     0945   652 ;  *  PRINTS THE TEST MODULE BEGUN/SUCCESSFUL/FAILED MESSAGES      *
                                     0945   653 ;  *	   (USING THE PUTMSG MACRO).                               *
                                     0945   654 ;  *                                                               *
                                     0945   655 ;  *****************************************************************
                                     0945   656 ;
                                     0945   657 	PUTMSG	<MOD_MSG_CODE,#2,TMN_ADDR,TMD_ADDR> ; PRINT MSG
                                 05  0960   658 	RSB				; ... AND RETURN TO CALLER
                                     0961   659 ;
                                     0961   660 CHMRTN:
                                     0961   661 ; **********************************************************
                                     0961   662 ; *
                                     0961   663 ; *	CHANGE MODE ROUTINE. THIS ROUTINE GETS CONTROL WHENEVER
                                     0961   664 ; *	A CMKRNL, CMEXEC, OR CMSUP SYSTEM SERVICE IS ISSUED
                                     0961   665 ; *	BY THE MODE MACRO ('TO' OPTION).  IT MERELY DOES
                                     0961   666 ; *	A JUMP INDIRECT ON A FIELD SET UP BY MODE. IT HAS
                                     0961   667 ; *	THE EFFECT OF RETURNING TO THE END OF THE MODE
                                     0961   668 ; *	MACRO EXPANSION.
                                     0961   669 ; *
                                     0961   670 ; *************************************************************
                                     0961   671 ;
                               0000  0961   672 	.WORD	0			; ENTRY MASK
                 00000079'FF     17  0963   673 	JMP	@CHM_CONT		; RETURN TO MODE MACRO IN NEW MODE
                                     0969   674 ;
                                     0969   675 ; *	RET INSTR WILL BE ISSUED IN EXPANSION OF 'MODE FROM, ....' MACRO
                                     0969   676 ;
                                     0969   677 	.END	SATSSF15
SATSSF15        - SATS SYSTEM SERVICE TESTS  (FAILING S.C.)      22-AUG-1978 03:55:46   VAX-11 MACRO X0.3-11               Page  26
SYMBOL TABLE                                                                                                                     (1)

$$$CHARS       = 00000048            PCB$B_WEFC       00000032            PCB$W_MEM        00000020
$$$FIRSTTC$$$  = 00000000            PCB$C_LENGTH     0000007C            PCB$W_MTXCNT     0000000E
$$$STRINGS     = 00000000            PCB$K_LENGTH     0000007C            PCB$W_PPGCNT     0000003A
$$ACT$$          000000FC R     07   PCB$L_ASTQBL     00000014            PCB$W_PRCCNT     0000006A
$$ARG$$          00000104 R     07   PCB$L_ASTQFL     00000010            PCB$W_SIZE       00000008
$$ASEQ$$         000000F4 R     07   PCB$L_EFC2P      00000058            PCB$W_STATE      00000030
$$CALL$$         000000E8 R     07   PCB$L_EFC3P      0000005C            PCB$W_TMBU       00000036
$$DISP$$         000001EF R     07   PCB$L_EFCS       00000050            PCB$W_TQCNT      0000004A
$$ERR$$          000001A9 R     07   PCB$L_EFCU       00000054            PHD$B_ASTLVL     000000CF
$$EXP$$          00000100 R     07   PCB$L_EFWM       0000004C            PHD$B_DFPFC      00000038
$$INIT$$         000000EC R     07   PCB$L_OWNER      0000001C            PHD$B_PAGFIL     0000001F
$$MAXP$$       = 00000005            PCB$L_PHD        00000064            PHD$B_PGTBPFC    00000039
$$PSEQ$$         000000F8 R     07   PCB$L_PHYPCB     00000018            PHD$C_LENGTH     00000118
$$SNAD$$         000000F0 R     07   PCB$L_PID        00000060            PHD$C_PHDPAGCTX= 00000008
$$T1           = 00000004            PCB$L_PQB        0000004C            PHD$K_LENGTH     00000118
$$T2           = 00000009            PCB$L_SQBL       00000004            PHD$L_BIOCNT     00000054
$$TSTN$$         00000054 R     04   PCB$L_SQFL       00000000            PHD$L_CPULIM     00000058
ACMODE_ADS       000000C8 R     03   PCB$L_STS        00000028            PHD$L_CPUTIM     0000003C
ACMODE_ADS10     000000CC R     03   PCB$L_UIC        00000020            PHD$L_DIOCNT     00000050
ACMODE_ADS11     000000D0 R     03   PCB$L_WSSWP      00000024            PHD$L_ESP        0000007C
ACMODE_ADS12     000000D4 R     03   PCB$L_WTIME      0000002C            PHD$L_FREP0VA    00000028
ADDRES_DCH       000000BD R     03   PCB$T_LNAME      0000006C            PHD$L_FREP1VA    00000030
ADJUST_ADS       000000D8 R     03   PCB$V_ASTPEN   = 00000011            PHD$L_FREPTECNT  0000002C
BIT...         = 00000000            PCB$V_BATCH    = 0000000E            PHD$L_KSP        00000078
CHMRTN           00000961 R     07   PCB$V_DELPEN   = 00000001            PHD$L_P0BR       000000C8
CHM_CONT         00000079 R     04   PCB$V_FORCPEN  = 00000002            PHD$L_P0LRASTL   000000CC
CLEANUP          0000080A R     07   PCB$V_HIBER    = 00000013            PHD$L_P1BR       000000D0
CLOB_REG_NO      00000048 R     04   PCB$V_INQUAN   = 00000003            PHD$L_P1LR       000000D4
CTL$GL_PHD       ********   X   07   PCB$V_LOGIN    = 00000014            PHD$L_PAGEFLTS   0000004C
CURRENT_TC       00000004 R     04   PCB$V_NETWRK   = 00000015            PHD$L_PAGFIL     0000001C
DESBLK_CEH       00000095 R     04   PCB$V_NOACNT   = 0000000F            PHD$L_PC         000000C0
DESBLK_CEH10     00000095 R     04   PCB$V_NODELET  = 00000017            PHD$L_PCB        00000078
EMPTY            00000000 R     05   PCB$V_PHDRES   = 00000012            PHD$L_PGFLCNT    00000034
ERROR          = 00000002            PCB$V_PSWAPM   = 00000004            PHD$L_PGFLQUOTA  0000005C
ERR_MSG_FAOCTL   00000002 R     03   PCB$V_PWRAST   = 00000016            PHD$L_PSL        000000C4
EXECUTE          000007EC R     07   PCB$V_RES      = 00000000            PHD$L_PSTBASOFF  00000020
GBL...         = 00000000            PCB$V_RESPEN   = 00000005            PHD$L_PTWSLELCK  00000064
GRP_TOTAL      = 00000003            PCB$V_SSFEXC   = 00000006            PHD$L_PTWSLEVAL  00000068
INADR            000000A9 R     03   PCB$V_SSFEXCE  = 00000007            PHD$L_R0         00000088
INFO           = 00000003            PCB$V_SSFEXCS  = 00000008            PHD$L_R1         0000008C
LIB$SIGNAL       ********   X   07   PCB$V_SSFEXCU  = 00000009            PHD$L_R10        000000B0
MEXIT          = 00000000            PCB$V_SSRWAIT  = 0000000A            PHD$L_R11        000000B4
MOD_MSG_CODE     00000044 R     04   PCB$V_SUSPEN   = 0000000B            PHD$L_R12        000000B8
MOD_MSG_PRINT    00000945 R     07   PCB$V_SWPVBN   = 00000010            PHD$L_R13        000000BC
NARGS          = 0000000E            PCB$V_WAKEPEN  = 0000000C            PHD$L_R2         00000090
NEWADR_ADS       000000AC R     04   PCB$V_WALL     = 0000000D            PHD$L_R3         00000094
NOACCESS         00000000 R     06   PCB$W_APTCNT     00000034            PHD$L_R4         00000098
ONES             000000B5 R     03   PCB$W_ASTCNT     0000003C            PHD$L_R5         0000009C
OUTB             00000125 R     07   PCB$W_BIOCNT     0000003E            PHD$L_R6         000000A0
OUTD             0000011D R     07   PCB$W_BIOLM      00000040            PHD$L_R7         000000A4
OUTE             000001A9 R     07   PCB$W_BYTCNT     00000042            PHD$L_R8         000000A8
OUTL             000000E4 R     07   PCB$W_BYTLM      00000068            PHD$L_R9         000000AC
PCB$B_ASTACT     0000000C            PCB$W_DIOCNT     00000044            PHD$L_REFERFLT   00000014
PCB$B_ASTEN      0000000D            PCB$W_DIOLM      00000046            PHD$L_SSP        00000080
PCB$B_PRI        0000000B            PCB$W_FILCNT     00000048            PHD$L_USP        00000084
PCB$B_PRIB       00000033            PCB$W_GPGCNT     00000038            PHD$L_WSL        00000118
PCB$B_TYPE       0000000A            PCB$W_GRP        00000022            PHD$M_DALCSTX  = 00000002
SATSSF15        - SATS SYSTEM SERVICE TESTS  (FAILING S.C.)      22-AUG-1978 03:55:46   VAX-11 MACRO X0.3-11               Page  27
SYMBOL TABLE                                                                                                                     (1)

PHD$M_PFMFLG   = 00000001            PRV$V_PRMGBL   = 00000018            RETADR           00000068 R     04
PHD$M_WSPEAKCHK= 00000004            PRV$V_PRMMBX   = 0000000B            SATSSF15         00000000 R     07
PHD$Q_PRIVMSK    00000000            PRV$V_PSWAPM   = 0000000C            SEVERE         = 00000004
PHD$S_ASTLVL   = 00000008            PRV$V_SETPRI   = 0000000D            SHR$K_SHRDEF   = 00000001
PHD$S_P0LR     = 00000018            PRV$V_SETPRV   = 0000000E            SHR$_ABEND     = 000010D8
PHD$V_ASTLVL   = 00000018            PRV$V_SYSGBL   = 00000019            SHR$_ABENDD    = 000010E0
PHD$V_DALCSTX  = 00000001            PRV$V_SYSNAM   = 00000002            SHR$_ABENDT    = 000010E8
PHD$V_P0LR     = 00000000            PRV$V_TMPMBX   = 0000000F            SHR$_APPENDEDB = 00001000
PHD$V_PFMFLG   = 00000000            PRV$V_VOLPRO   = 00000015            SHR$_APPENDEDR = 00001008
PHD$V_WSPEAKCHK= 00000002            PRV$V_WORLD    = 00000010            SHR$_ATPC      = 00001158
PHD$W_ASTLM      00000044            PRVHND_DCH       00000091 R     04   SHR$_BADBYTE   = 00001010
PHD$W_BAK        00000048            PRVHND_DCH20   = 00000001            SHR$_BADCOPIES = 00001160
PHD$W_DFWSCNT    0000001A            PRVHND_DCH21     000000C0 R     03   SHR$_BADDELIM  = 00001118
PHD$W_EMPTPG     000000D8            PRVHND_DCH22   = 000001FF R     05   SHR$_BADFIELD  = 00001018
PHD$W_EXTDYNWS   00000076            PRVPRT           00000070 R     04   SHR$_BADFORM   = 00001168
PHD$W_FILLM      00000060            PSL$C_EXEC     = 00000001            SHR$_BADJOBID  = 00001170
PHD$W_FLAGS      0000003A            PSL$C_KERNEL   = 00000000            SHR$_BADJOBNAME= 00001178
PHD$W_PHVINDEX   00000046            PSL$C_SUPER    = 00000002            SHR$_BADKEY    = 00001108
PHD$W_PRCLM      00000042            PSL$C_USER     = 00000003            SHR$_BADLOGIC  = 00001120
PHD$W_PST        00000020            PSL$M_CM       = 80000000            SHR$_BADLOGICPC= 00001150
PHD$W_PSTBASMAX  0000004A            PSL$M_CURMOD   = 03000000            SHR$_BADLONG   = 00001020
PHD$W_PSTFREE    00000026            PSL$M_DV       = 00000080            SHR$_BADPRTY   = 00001180
PHD$W_PSTLAST    00000024            PSL$M_FPD      = 08000000            SHR$_BADQNAME  = 00001188
PHD$W_PTCNTACT   00000070            PSL$M_FU       = 00000040            SHR$_BADTIME   = 00001190
PHD$W_PTCNTLCK   0000006C            PSL$M_IPL      = 001F0000            SHR$_BADVALUE  = 00001110
PHD$W_PTCNTMAX   00000072            PSL$M_IS       = 04000000            SHR$_BADWORD   = 00001028
PHD$W_PTCNTVAL   0000006E            PSL$M_IV       = 00000020            SHR$_BEGIN     = 00001030
PHD$W_QUANT      00000040            PSL$M_PRVMOD   = 00C00000            SHR$_BEGIND    = 00001038
PHD$W_TQLM       00000062            PSL$M_SAFBITS  = 000037FF            SHR$_BEGINT    = 00001040
PHD$W_WSAUTH     0000000A            PSL$M_TBIT     = 00000010            SHR$_CLICB     = 00001048
PHD$W_WSDYN      0000000E            PSL$M_TP       = 40000000            SHR$_CLOSEDEL  = 00001218
PHD$W_WSFLUID    00000074            PSL$S_CURMOD   = 00000002            SHR$_CLOSEIN   = 00001050
PHD$W_WSLAST     00000012            PSL$S_IPL      = 00000005            SHR$_CLOSEOUT  = 00001058
PHD$W_WSLIST     00000008            PSL$S_PRVMOD   = 00000002            SHR$_CONFDEL   = 000011F8
PHD$W_WSLOCK     0000000C            PSL$V_CM       = 0000001F            SHR$_COPIEDB   = 00001060
PHD$W_WSLX       0000004A            PSL$V_CURMOD   = 00000018            SHR$_COPIEDR   = 00001068
PHD$W_WSNEXT     00000010            PSL$V_DV       = 00000007            SHR$_CREATED   = 00001070
PHD$W_WSQUOTA    00000018            PSL$V_FPD      = 0000001B            SHR$_DELETED   = 00001200
PRIVMASK         00000071 R     04   PSL$V_FU       = 00000006            SHR$_DELINTERR = 00001240
PROT             000000B1 R     03   PSL$V_IPL      = 00000010            SHR$_DELVER    = 00001208
PRT$C_NA         ********   X   03   PSL$V_IS       = 0000001A            SHR$_DIRTOOBUS = 00001220
PRV$V_ALLSPOOL = 00000004            PSL$V_IV       = 00000005            SHR$_ENDED     = 00001078
PRV$V_BUGCHK   = 00000017            PSL$V_PRVMOD   = 00000016            SHR$_ENDEDD    = 00001080
PRV$V_CMEXEC   = 00000001            PSL$V_TBIT     = 00000004            SHR$_ENDEDT    = 00001088
PRV$V_CMKRNL   = 00000000            PSL$V_TP       = 0000001E            SHR$_FILNOTDEL = 000011F0
PRV$V_DETACH   = 00000005            R0_THRU_SP     = 00007FFF            SHR$_FILNOTPUR = 00001230
PRV$V_DIAGNOSE = 00000006            REGS             0000007D R     04   SHR$_FILPURGED = 00001250
PRV$V_EXQUOTA  = 00000013            REG_AFTER_SS     00000050 R     04   SHR$_HASHCONCAT= 000011D8
PRV$V_GROUP    = 00000008            REG_BEFORE_SS    0000004C R     04   SHR$_HIGHVER   = 00001148
PRV$V_GRPNAM   = 00000003            REG_COMP         00000885 R     07   SHR$_IDXCONCAT = 00001138
PRV$V_LOG_IO   = 00000007            REG_COMP_CONT    000008A1 R     07   SHR$_INCOMPAT  = 000011E0
PRV$V_MOUNT    = 00000011            REG_COMP_MASK    00000000 R     03   SHR$_NEWFILES  = 00001090
PRV$V_NETMBX   = 00000014            REG_COMP_NEXT    00000897 R     07   SHR$_NOFILPURG = 00001228
PRV$V_NOACNT   = 00000009            REG_COMP_RSB     00000940 R     07   SHR$_NOJOBID   = 000011A0
PRV$V_OPER     = 00000012            REG_REST         00000875 R     07   SHR$_NOJOBNAME = 000011A8
PRV$V_PHY_IO   = 00000016            REG_SAVE         00000864 R     07   SHR$_NOQUEUE   = 00001198
PRV$V_PRMCEB   = 0000000A            REG_SAVE_AREA    00000008 R     04   SHR$_NOTCMPLT  = 000011C0
SATSSF15        - SATS SYSTEM SERVICE TESTS  (FAILING S.C.)      22-AUG-1978 03:55:46   VAX-11 MACRO X0.3-11               Page  28
SYMBOL TABLE                                                                                                                     (1)

SHR$_NOTCOPIED = 000011B8            STS$V_MSG_NO   = 00000003
SHR$_NOVALUE   = 00001100            STS$V_SEVERITY = 00000000
SHR$_NOWILD    = 00001128            STS$V_SUCCESS  = 00000000
SHR$_OPENIN    = 00001098            SUCCESS        = 00000001
SHR$_OPENOUT   = 000010A0            SYS$ADJSTK       ********   X   07
SHR$_OVERLAY   = 000010A8            SYS$CANEXH       ********   X   07
SHR$_PARSEFAIL = 00001248            SYS$CMKRNL       ********   X   07
SHR$_PURGEVER  = 00001210            SYS$DCLCMH       ********   X   07
SHR$_READERR   = 000010B0            SYS$EXIT         ********   X   07
SHR$_RELCONCAT = 00001140            SYS$FAO          ********   X   07
SHR$_REPLACED  = 000010B8            SYS$FAOL         ********   X   07
SHR$_RMSERROR  = 000011C8            SYS$HIBER        ********   X   07
SHR$_SEARCHFAIL= 00001238            SYS$SETPRN       ********   X   07
SHR$_SYNTAX    = 000010F8            SYS$SETPRT       ********   X   07
SHR$_SYSERROR  = 000011B0            SYS$WAKE         ********   X   07
SHR$_SYSERRORPC= 000010F0            TC1              0000024A R     07
SHR$_TEXT      = 00001130            TC2              0000028A R     07
SHR$_UNXPCTSTS = 000011D0            TC3              000002B2 R     07
SHR$_VALERR    = 000011E8            TCG_NO         = 00000003
SHR$_WILDCONCAT= 000010C0            TC_CONTROL       00000823 R     07
SHR$_WILDOUTVER= 000010C8            TEST_MOD_BEG     00000077 R     03
SHR$_WRITEERR  = 000010D0            TEST_MOD_FAIL    00000088 R     03
SS$_ACCVIO       ********   X   07   TEST_MOD_NAME    0000006E R     03
SS$_NOHANDLER    ********   X   07   TEST_MOD_NAME_D  0000008F R     03
SS$_NOPRIV       ********   X   07   TEST_MOD_SUCC    0000007D R     03
STS$K_ERROR    = 00000002            TMD_ADDR         00000060 R     04
STS$K_INFO     = 00000003            TMN_ADDR         0000005C R     04
STS$K_SEVERE   = 00000004            TPID             00000000 R     04
STS$K_SUCCESS  = 00000001            TS1              000002F2 R     07
STS$K_WARNING  = 00000000            TS2              000004FC R     07
STS$M_CODE     = 00007FF8            TS3              000005DF R     07
STS$M_COND_ID  = 0FFFFFF8            TS_EP            00000064 R     04
STS$M_CONTROL  = F0000000            TTNAME           0000009F R     03
STS$M_CUST_DEF = 08000000            TYPE_DCH         000000C4 R     03
STS$M_FAC_NO   = 0FFF0000            UETP$_ABORTC   = 0074832B
STS$M_FAC_SP   = 00008000            UETP$_CONF     = 007480D1
STS$M_INHIB_MSG= 10000000            UETP$_DATAER   = 00748010
STS$M_MSG_NO   = 0000FFF8            UETP$_DDB      = 007480E1
STS$M_SEVERITY = 00000007            UETP$_DENOSU   = 00748333
STS$M_SUCCESS  = 00000001            UETP$_DESTP    = 007481A2
STS$S_CODE     = 0000000C            UETP$_DEUNUS   = 0074819A
STS$S_COND_ID  = 00000019            UETP$_ERBOX    = 00748008
STS$S_CONTROL  = 00000004            UETP$_SATSMS   = 007480D9
STS$S_CUST_DEF = 00000001            UETP$_TEXT     = 00741133
STS$S_FAC_NO   = 0000000C            UETP$_UCB      = 007480E9
STS$S_FAC_SP   = 00000001            UETP$_USER     = 0074833B
STS$S_INHIB_MSG= 00000001            WARNING        = 00000000
STS$S_MSG_NO   = 0000000D
STS$S_SEVERITY = 00000003
STS$S_SUCCESS  = 00000001
STS$V_CODE     = 00000003
STS$V_COND_ID  = 00000003
STS$V_CONTROL  = 0000001C
STS$V_CUST_DEF = 0000001B
STS$V_FAC_NO   = 00000010
STS$V_FAC_SP   = 0000000F
STS$V_INHIB_MSG= 0000001C
SATSSF15        - SATS SYSTEM SERVICE TESTS  (FAILING S.C.)      22-AUG-1978 03:55:46   VAX-11 MACRO X0.3-11               Page  29
PROGRAM SECTION SYNOPSIS                                                                                                         (1)


PROGRAM SECTION SYNOPSIS

.  ABS  .        00000000      00     NOPIC   USR   CON   ABS   LCL NOSHR NOEXE NORD  NOWRT BYTE
. BLANK .        00000000      01     NOPIC   USR   CON   REL   LCL NOSHR   EXE   RD    WRT BYTE
$ABS$            0000011C      02     NOPIC   USR   CON   ABS   LCL NOSHR   EXE   RD    WRT BYTE
RODATA           000000DC      03     NOPIC   USR   CON   REL   LCL NOSHR NOEXE   RD  NOWRT LONG
RWDATA           000000B0      04     NOPIC   USR   CON   REL   LCL NOSHR NOEXE   RD    WRT BYTE
SATS_ACCVIO_1    00000200      05     NOPIC   USR   CON   REL   LCL NOSHR NOEXE   RD    WRT PAGE
SATS_ACCVIO_2    00000200      06     NOPIC   USR   CON   REL   LCL NOSHR NOEXE   RD    WRT PAGE
SATSSF15         00000969      07     NOPIC   USR   CON   REL   LCL NOSHR   EXE   RD    WRT LONG


THERE WERE NO ERRORS OR WARNINGS.
4842. BYTES LEFT IN FREE MEMORY POOL.
3248. BYTES OF RECLAIMED MEMORY.
OBJ$:SATSSF15,LIS$:SATSSF15/-SP=EXECML$/ML,LIB$:SYSTST.MLB/ML,SRC$:SATSSF15
59 MLB DIR RDS - 1255 GETS TO DEFINE 47 MACROS. 72 INTER. FILE WRITES.
