SATSSF04        - SATS SYSTEM SERVICE TESTS  (FAILING S.C.)      22-AUG-1978 03:41:40   VAX-11 MACRO X0.3-11               Page   0
TABLE OF CONTENTS

   (1)      46  DECLARATIONS
   (1)     201  SATSSF04
   (1)     286  SFSTM10
   (1)     308  SFSTM11
   (1)     331  SFSTM12
   (1)     354  SFSTM13
   (1)     377  SFSTM14
   (1)     400  SFSTM20
   (1)     421  SFSTM21
   (1)     442  SFSTM22
   (1)     464
   (1)     466  SFGTT10
   (1)     487  SFGTT11
   (1)     508  SFGTT12
   (1)     530
   (1)     532  SFNMT10
   (1)     553  SFNMT11
   (1)     574  SFNMT12
   (1)     596  SFNMT20
   (1)     617  SFNMT21
   (1)     638  SFNMT22
   (1)     660  SFNMT23
   (1)     681
   (1)     685  SFATM30
   (1)     707
   (1)     710  SFBTM10
   (1)     733  SFBTM11
   (1)     756  SFBTM12
   (1)     778  SFBTM13
   (1)     801
   (1)     884  EXECUTE & CLEANUP
   (1)     896  TC_CONTROL
   (1)     977  SUBROUTINES
SATSSF04        - SATS SYSTEM SERVICE TESTS  (FAILING S.C.)      22-AUG-1978 03:41:40   VAX-11 MACRO X0.3-11               Page   1
1.0                                                                                                                              (1)

                                     0000     1 	.TITLE	SATSSF04 - SATS SYSTEM SERVICE TESTS  (FAILING S.C.)
                                     0000     2 	.IDENT	/1.0/
                                     0000     3
                                     0000     4 ;
                                     0000     5 ;			  COPYRIGHT (c) 1977,1978 BY
                                     0000     6 ;	      DIGITAL EQUIPMENT CORPORATION, MAYNARD, MASS.
                                     0000     7 ;
                                     0000     8 ; THIS SOFTWARE IS FURNISHED UNDER A LICENSE AND MAY BE USED AND  COPIED
                                     0000     9 ; ONLY  IN  ACCORDANCE  WITH  THE  TERMS  OF  SUCH  LICENSE AND WITH THE
                                     0000    10 ; INCLUSION OF THE ABOVE COPYRIGHT NOTICE.  THIS SOFTWARE OR  ANY  OTHER
                                     0000    11 ; COPIES  THEREOF MAY NOT BE PROVIDED OR OTHERWISE MADE AVAILABLE TO ANY
                                     0000    12 ; OTHER PERSON.  NO TITLE TO AND OWNERSHIP OF  THE  SOFTWARE  IS  HEREBY
                                     0000    13 ; TRANSFERRED.
                                     0000    14 ;
                                     0000    15 ; THE INFORMATION IN THIS SOFTWARE IS SUBJECT TO CHANGE  WITHOUT  NOTICE
                                     0000    16 ; AND  SHOULD  NOT  BE  CONSTRUED  AS  A COMMITMENT BY DIGITAL EQUIPMENT
                                     0000    17 ; CORPORATION.
                                     0000    18 ;
                                     0000    19 ; DIGITAL ASSUMES NO RESPONSIBILITY FOR THE USE OR  RELIABILITY  OF  ITS
                                     0000    20 ; SOFTWARE ON EQUIPMENT WHICH IS NOT SUPPLIED BY DIGITAL.
                                     0000    21 ;
                                     0000    22
                                     0000    23 ;++
                                     0000    24 ; FACILITY:	SATS SYSTEM SERVICE TESTS
                                     0000    25 ;
                                     0000    26 ; ABSTRACT:	THE SATSSF04 MODULE TESTS THE EXECUTION OF CERTAIN
                                     0000    27 ; VMS SYSTEM SERVICES, INVOKED IN SUCH A WAY AS TO EXPECT FAILING
                                     0000    28 ; STATUS CODES. THE SYSTEM SERVICES TESTED AND THE STATUS CODES
                                     0000    29 ; EXPECTED ARE SUMMARIZED AS ARGUMENTS TO THE TESTSERV MACROS
                                     0000    30 ; WHICH APPEAR NEAR THE END OF THIS LISTING. SUCCESSFUL STATUS
                                     0000    31 ; CODES ARE TESTED IN OTHER MODULES.
                                     0000    32 ;
                                     0000    33 ;
                                     0000    34 ; ENVIRONMENT:	USER MODE IMAGE; NEEDS CMKRNL PRIVILEGE,
                                     0000    35 ;		DYNAMICALLY ACQUIRES OTHER PRIVILEGES, AS NEEDED.
                                     0000    36 ;
                                     0000    37 ; AUTHOR: THOMAS L. CAFARELLA,		CREATION DATE: MMM, 1978
                                     0000    38 ;	  PAUL D. FAY (DISPSERV & TESTSERV MACROS)
                                     0000    39 ;
                                     0000    40 ; MODIFIED BY:
                                     0000    41 ;
                                     0000    42 ;	, : VERSION
                                     0000    43 ; 01	-
                                     0000    44 ;--
SATSSF04        - SATS SYSTEM SERVICE TESTS  (FAILING S.C.)      22-AUG-1978 03:41:40   VAX-11 MACRO X0.3-11               Page   2
1.0             DECLARATIONS                                                                                                     (1)

                                     0000    46 	.SBTTL	DECLARATIONS
                                     0000    47 ;
                                     0000    48 ; INCLUDE FILES:
                                     0000    49 ;
                                     0000    50 	$PRVDEF				; SYMBOL DEFS FOR PRIVILEGES
                                     0000    51 	$UETPDEF			; UETP MSG CODE DEFINITIONS
                                     0000    52 	$SHR_MESSAGES UETP,116,<<TEXT,INFO>>
                                     0000    53 					; DEFINE UETP$_TEXT
                           00000004  0000    54 	.MDELETE ($PRVDEF,$UETPDEF,$SHR_MESSAGES,$SHRDEF)
                                     0000    55 					; GET RID OF MACRO DEFINITIONS
                                     0000    56 ;
                                     0000    57 ; MACROS:
                                     0000    58 ;
                                     0000    59 ;
                                     0000    60 ; EQUATED SYMBOLS:
                                     0000    61 ;
                           00000000  0000    62 WARNING		= 0			; WARNING SEVERITY VALUE FOR MSGS
                           00000001  0000    63 SUCCESS		= 1			; SUCCESS SEVERITY VALUE FOR MSGS
                           00000002  0000    64 ERROR		= 2			; ERROR SEVERITY VALUE FOR MSGS
                           00000003  0000    65 INFO		= 3			; INFORMATIONAL SEV VALUE FOR MSGS
                           00000004  0000    66 SEVERE		= 4			; SEVERE (FATAL) SEV VALUE FOR MSGS
                           00000000  0000    67 TCG_NO		=  0			; INITIALIZE TEST CASE GROUP NUMBER
                           00000000  0000    68 GRP_TOTAL	=  0			; INITIALIZE TEST CASE GROUP TOTAL
                           00007FFF  0000    69 R0_THRU_SP	= ^M<R0,R1,R2,R3,R4,R5,R6,R7,R8,R9,R10,R11,AP,FP,SP>
                           00000000  0000    70 ASTADR_STM	= 0			; ASTADR ARG 4 SETIMR (INDIC NO AST)
                           00000000  0000    71 DAYTIM_STM20	= 0			; DAYTIM ARG FOR SETIMR (LOCATION 0)
                           00000001  0000    72 TIMADR_GTT10	= 1			; TIMADR ARG FOR GETTIM (LOCATION 1)
                           00000001  0000    73 TIMBUF_NMT10	= 1			; TIMBUF ARG FOR NUMTIM (LOCATION 1)
                           00000001  0000    74 TIMADR_NMT20	= 1			; TIMADR ARG FOR NUMTIM (LOCATION 1)
                                     0000    75 ;
                                     0000    76 ; ****** THE FOLLOWING ASSIGNMENTS (IN PHD, PCB, STS) ARE BEING MADE
                                     0000    77 ; ****** WITHOUT REFERENCE TO $PHDDEF, $PCBDEF, $STSDEF BECAUSE OF
                                     0000    78 ; ****** SYMBOL TABLE OVERFLOW. FIX THIS WHEN MORE TABLE SPACE AVAILABLE.
                                     0000    79 ;
                           00000000  0000    80 PHD$Q_PRIVMSK	= 0			; PRIV MASK OFFSET INTO PHD
                           00000020  0000    81 PCB$L_UIC	= ^X20			; UIC OFFSET INTO PCB
                           0000001C  0000    82 STS$V_INHIB_MSG	= ^X1C			; INHIBIT_MSG BIT NUMBER IN MSG CODE
                                     0000    83 ;
                                     0000    84 ; OWN STORAGE:
                                     0000    85 ;
SATSSF04        - SATS SYSTEM SERVICE TESTS  (FAILING S.C.)      22-AUG-1978 03:41:40   VAX-11 MACRO X0.3-11               Page   3
1.0             DECLARATIONS                                                                                                     (1)

                                 00000000    87 	.PSECT	RODATA,RD,NOWRT,NOEXE,LONG
                                     0000    88 REG_COMP_MASK:	.WORD	^M<R2,R3,R4,R5,R6,R7,R8,R9,R10,R11,AP,FP> ! ^X8000 -
                               BFFC  0000    89 					; REG COMPARE MASK (HIGH-ORDER ...
                                     0002    90 					; ... BIT MUST BE ON
                                     0002    91 ERR_MSG_FAOCTL:	STRING	I,<!/!AC!1ZB!1ZB: REGISTER !2UW CONTENTS ALTERED>, -
                                     0002    92 		<;  BEFORE SERVICE CALL: !8XL   AFTER SERVICE CALL: !8XL>
                                     006E    93 TEST_MOD_NAME:	STRING	C,<SATSSF04>	; TEST MODULE NAME
                                     0077    94 TEST_MOD_BEG:	STRING	C,<begun>	; DISPOSITION FIELD OF TEST MOD MSG
                                     007D    95 TEST_MOD_SUCC:	STRING	C,<successful>	; DISPOSITION FIELD OF TEST MOD MSG
                                     0088    96 TEST_MOD_FAIL:	STRING	C,<failed>	; DISPOSITION FIELD OF TEST MOD MSG
                                     008F    97 TEST_MOD_NAME_D: STRING	I,<SATSSF04>	; TEST MODULE NAME DESCRIPTOR
                                     009F    98 TTNAME:     	STRING  I,<TT>		; TERMINAL LOGICAL NAME
                  00000000'00000000' 00A9    99 INADR:		.LONG	NOACCESS,NOACCESS ; PAGE ADDRESS OF NOACCESS PSECT
                           00000000' 00B1   100 PROT:		.LONG	PRT$C_NA	; PROTECTION CODE FOR NOACCESS PSECT
                  FFFFFFFF FFFFFFFF  00B5   101 ONES:		.LONG	-1,-1		; A QUADWORD OF 1-BITS
                           0000002B  00BD   102 EFN_STM:	.LONG	43		; EFN ARGUMENT FOR SETIMR
                           FFFFFFFF  00C1   103 EFN_STM10:	.LONG	^XFFFFFFFF 	; EFN ARGUMENT FOR SETIMR
                  00000000 00000000  00C5   104 DAYTIM_STM:	.LONG	0,0		; DAYTIM ARGUMENT FOR SETIMR
                           00000000  00CD   105 REQIDT_STM:	.LONG	0		; REQIDT ARGUMENT FOR SETIMR
                           000000D9  00D1   106 TIMADR_GTT11:	.BLKQ	1		; TIMADR ARGUMENT FOR GETTIM
                           000000E7  00D9   107 TIMBUF_NMT11:	.BLKW	7		; TIMBUF ARGUMENT FOR NUMTIM
                  00000000 00000000  00E7   108 TIMADR_NMT:	.LONG	0,0		; TIMADR ARGUMENT FOR NUMTIM
                  FFE09C4A FFFFFFFF  00EF   109 TIMADR_NMT23:	.LONG	-1,-<60*24*10000>/7
                                     00F7   110 					; TIMADR ARGUMENT FOR NUMTIM
                                     00F7   111 					; (10,000 DAYS IN ...
                                     00F7   112 					; ... 100-NANOSECOND UNITS)
                  00000000 00000000  00F7   113 TIMADR_ATM:	.LONG	0,0		; TIMADR ARGUMENT FOR ASCTIM
                  FFE09C4A FFFFFFFF  00FF   114 TIMADR_ATM30:	.LONG	-1,-<60*24*10000>/7
                                     0107   115 					; TIMADR ARGUMENT FOR ASCTIM
                                     0107   116 					; (10,000 DAYS IN ...
                                     0107   117 					; ... 100-NANOSECOND UNITS)
                           00000001  0107   118 CVTFLG_ATM:	.LONG 1			; CVTFLG ARGUMENT FOR ASCTIM
                                     010B   119 TIMBUF_BTM:	STRING	I,<25-DEC-1973  21:46:00.00>
                                     012B   120 					; TIMBUF ARGUMENT FOR BINTIM
                                     012B   121 TIMBUF_BTM10:	STRING	I,<25-DEC-0001  21:46:00.00>
                                     014B   122 					; TIMBUF ARGUMENT FOR BINTIM
                                     014B   123 TIMBUF_BTM11:	STRING	I,<25-DEC-1973  21:61:00.00>
                                     016B   124 					; TIMBUF ARGUMENT FOR BINTIM
                                     016B   125 TIMBUF_BTM12:	STRING	I,<29-FEB-1973  09:14:21.33>
                                     018B   126 					; TIMBUF ARGUMENT FOR BINTIM
                                     018B   127 TIMBUF_BTM13:	STRING	I,<0347  25:10:20.31>
                                     01A4   128 					; TIMBUF ARGUMENT FOR BINTIM
SATSSF04        - SATS SYSTEM SERVICE TESTS  (FAILING S.C.)      22-AUG-1978 03:41:40   VAX-11 MACRO X0.3-11               Page   4
1.0             DECLARATIONS                                                                                                     (1)

                                 00000000   130 	.PSECT	RWDATA,RD,WRT,NOEXE
                           00000004  0000   131 TPID:		.BLKL	1		; PROCESS ID FOR THIS PROCESS
                           00000008  0004   132 CURRENT_TC:	.BLKL	1 		; PTR TO CURRENT TEST CASE
                           00000044  0008   133 REG_SAVE_AREA:	.BLKL	15		; SAVE AREA FOR ALL REGS (SANS PC)
                           007480D9  0044   134 MOD_MSG_CODE:	.LONG	UETP$_SATSMS	; TEST MODULE MSG CODE FOR PUTMSG
                           0000004C  0048   135 CLOB_REG_NO:	.BLKL	1		; CLOBBERED REG NO (FOR FAO ERR MSG)
                           00000050  004C   136 REG_BEFORE_SS:	.BLKL	1		; REG CONTENTS BEFORE S.S.
                                     0050   137 					; ... (FOR FAO ERROR MSG)
                           00000054  0050   138 REG_AFTER_SS:	.BLKL	1		; REG CONTENTS AFTER S.S.
                                     0054   139 					; ... (FOR FAO ERROR MSG)
                                     0054   140 $$TSTN$$:	STRING	C,<  SF   >	; ASCII PORTION OF TEST CASE NAME
                           0000006E' 005C   141 TMN_ADDR:	.ADDRESS TEST_MOD_NAME	; ADDR OF TEST MOD NAME FOR FAO
                           00000077' 0060   142 TMD_ADDR:	.ADDRESS TEST_MOD_BEG	; ADDR OF T.M. DISP FIELD FOR FAO
                           00000068  0064   143 TS_EP:		.BLKL	1		; ENTRY PNT FOR CURR TESTSERV MACRO
                           00000070  0068   144 RETADR:		.BLKL	2		; RETURN LONGWORDS FOR SETPRT
                           00000071  0070   145 PRVPRT:		.BLKB	1		; PROT RETURN BYTE FOR SETPRT
                           00000079  0071   146 PRIVMASK:	.BLKQ	1		; ADDR OF PRIVILEGE MASK (IN PHD)
                           0000007D  0079   147 CHM_CONT:	.BLKL	1		; CHANGE MODE CONTINUE ADDRESS
                           00000091  007D   148 REGS:		.BLKL	5		; AREA FOR COND INDEX REGS (R2-R6)
                           00000095  0091   149 EFN_STM11:	.BLKL 1			; EFN ARGUMENT FOR SETIMR
                           00000099  0095   150 EFN_STM12:	.BLKL 1			; EFN ARGUMENT FOR SETIMR
                           0000009D  0099   151 EFN_STM13:	.BLKL 1			; EFN ARGUMENT FOR SETIMR
                           000000A1  009D   152 EFN_STM14:	.BLKL 1			; EFN ARGUMENT FOR SETIMR
                           000000A9  00A1   153 TIMADR_GTT:	.BLKQ	1		; TIMADR ARGUMENT FOR GETTIM
                           000000B7  00A9   154 TIMBUF_NMT:	.BLKW	7		; TIMBUF ARGUMENT FOR NUMTIM
                           000000B9  00B7   155 TIMLEN_ATM:	.BLKW	1		; TIMLEN ARGUMENT FOR ASCTIM
                                     00B9   156 TIMBUF_ATM:	STRING	O,24		; TIMBUF ARGUMENT FOR ASCTIM
                           000000E1  00D9   157 TIMADR_BTM:	.BLKQ	1		; TIMADR ARGUMENT FOR BINTIM
SATSSF04        - SATS SYSTEM SERVICE TESTS  (FAILING S.C.)      22-AUG-1978 03:41:40   VAX-11 MACRO X0.3-11               Page   5
1.0             DECLARATIONS                                                                                                     (1)

                                 00000000   159 	.PSECT	SATS_ACCVIO_1,RD,WRT,NOEXE,PAGE
                           00000200  0000   160 EMPTY:		.BLKB	512	; RESERVE A PAGE OF SPACE
                                     0200   161 ;
                                     0200   162 ; +
                                     0200   163 ; ******************************************************************
                                     0200   164 ; *                                                                *
                                     0200   165 ; * 	THE ORDER OF STATEMENTS IN THIS PSECT IS CRITICAL.         *
                                     0200   166 ; *	DO NOT RE-ARRANGE THE VARIABLES. CONSULT SATS              *
                                     0200   167 ; *	FUNCTIONAL SPECIFICATION FOR A DESCRIPTION OF THE USE      *
                                     0200   168 ; *	OF THE EMPTY PSECT (AND ITS COMPANION PSECT, NOACCESS).    *
                                     0200   169 ; *                                                                *
                                     0200   170 ; ******************************************************************
                                     0200   171 ; -
                                     0200   172 ;
                           000001FF  0200   173 DAYTIM_STM22	= . - 1		; DAYTIM ARG FOR SETIMR (LAST BYTE IN PAGE)
                           000001FF  0200   174 TIMADR_GTT12	= . - 1		; TIMADR ARG FOR GETTIM (LAST BYTE IN PAGE)
                           000001FF  0200   175 TIMBUF_NMT12	= . - 1		; TIMBUF ARG FOR NUMTIM (LAST BYTE IN PAGE)
                           000001FF  0200   176 TIMADR_NMT22	= . - 1		; TIMADR ARG FOR NUMTIM (LAST BYTE IN PAGE)
                                     0200   177 ;
                                     0200   178 ;
                                     0200   179 ;
                                     0200   180 ;
                                 00000000   181 	.PSECT	SATS_ACCVIO_2,RD,WRT,NOEXE,PAGE
                           00000200  0000   182 NOACCESS:	.BLKB	512	; RESERVE A PAGE OF SPACE
                           00000000  0200   183 		. = . - 512	; RETURN LOC CTR TO BEGINNING OF PSECT
                           00000000' 0000   184 		.ADDRESS EMPTY	; ADDRESS OF ACCESSIBLE STRING
                           00000000' 0004   185 		.ADDRESS EMPTY/^X100 ; ADDRESS OF ACCESSIBLE STRING
                                     0008   186 ;+
                                     0008   187 ; *** NOTE -- DO NOT CHANGE LOCATION OR SEQUENCE OF ABOVE STATEMENTS!
                                     0008   188 ; ***         THIS PSECT (NOACCESS) MUST APPEAR IN MEMORY IMMEDIATELY
                                     0008   189 ; ***         FOLLOWING THE EMPTY PSECT. PSECT NAMES AND OPTIONS WILL BE
                                     0008   190 ; ***         CHOSEN TO FORCE THE DESIRED PSECT ORDERING.
                                     0008   191 ;-
                           00000010  0008   192 DAYTIM_STM21:	.BLKQ	1	; DAYTIM ARGUMENT FOR SETIMR
                           00000018  0010   193 TIMADR_NMT21:	.BLKQ	1	; TIMADR ARGUMENT FOR NUMTIM
                                     0018   194 ;
                                     0018   195 ;
                                     0018   196 ;
                                     0018   197 ;
                           00000001  0018   198 	.MDELETE (STRING)		; NO LONGER NEED MACRO DEFINITION
                                 00000000   199 	.PSECT	SATSSF04,RD,WRT,EXE,LONG
SATSSF04        - SATS SYSTEM SERVICE TESTS  (FAILING S.C.)      22-AUG-1978 03:41:40   VAX-11 MACRO X0.3-11               Page   6
1.0             SATSSF04                                                                                                         (1)

                                     0000   201 	.SBTTL	SATSSF04
                                     0000   202 ;++
                                     0000   203 ; FUNCTIONAL DESCRIPTION:
                                     0000   204 ;
                                     0000   205 ;		AFTER PERFORMING SOME INITIAL HOUSEKEEPING, SUCH AS
                                     0000   206 ; PRINTING THE MODULE BEGIN MESSAGE AND ACQUIRING ALL PRIVILEGES,
                                     0000   207 ; THE SATSSF04 ROUTINE EXECUTES THE TEST_SERV_EXEC MACRO TO RUN
                                     0000   208 ; ALL TEST CASES. WHEN THE MACRO COMPLETES ITS EXECUTION, SATSSF04
                                     0000   209 ; PRINTS A TEST MODULE SUCCESS OR FAIL MESSAGE AND EXITS TO THE
                                     0000   210 ; OPERATING SYSTEM. TEST_SERV_EXEC CALLS THE TC_CONTROL/TESTSERV
                                     0000   211 ; CO-ROUTINE PAIR ONCE PER TEST CASE GROUP TO EXECUTE ALL TEST
                                     0000   212 ; CASES IN THAT GROUP. EACH TEST CASE GROUP IS DEFINED BY BOUNDING
                                     0000   213 ; ITS TEST CASES WITH A TC_GROUP MACRO BEFORE THE FIRST TEST CASE
                                     0000   214 ; AND A TCEND MACRO AFTER THE LAST ONE. THE TEST CASES THEMSELVES
                                     0000   215 ; ARE DEFINED WITHIN THESE BOUNDS BY PRECEDING EACH WITH A
                                     0000   216 ; NEXT_TEST_CASE MACRO. TC_CONTROL/TESTSERV EXECUTES THE CODE
                                     0000   217 ; FOLLOWING EACH NEXT_TEST_CASE MACRO IMMEDIATELY BEFORE ISSUING
                                     0000   218 ; THE SYSTEM SERVICE AS REQUESTED IN THE TESTSERV MACRO. TC_CONTROL/
                                     0000   219 ; TESTSERV ALSO CHECKS THE RESULTS OF THE SERVICE WITH RESPECT
                                     0000   220 ; TO ITS EXPECTED STATUS CODE AND PRINTS ANY REQUIRED FAILURE
                                     0000   221 ; MESSAGES FOR THE TEST CASE. THE CODE APPEARING AFTER EACH
                                     0000   222 ; NEXT_TEST_CASE MACRO IS MERELY TO SET UP CONDITIONS REQUIRED
                                     0000   223 ; FOR THE SYSTEM SERVICE AND TO CLEAN UP ANY RESOURCES ACQUIRED
                                     0000   224 ; BY THE PREVIOUS TEST CASE.
                                     0000   225 ;
                                     0000   226 ; CALLING SEQUENCE:
                                     0000   227 ;
                                     0000   228 ;	$ RUN SATSSF04  ...  (DCL COMMAND)
                                     0000   229 ;
                                     0000   230 ; INPUT PARAMETERS:
                                     0000   231 ;
                                     0000   232 ;	NONE
                                     0000   233 ;
                                     0000   234 ; IMPLICIT INPUTS:
                                     0000   235 ;
                                     0000   236 ;	NONE
                                     0000   237 ;
                                     0000   238 ; OUTPUT PARAMETERS:
                                     0000   239 ;
                                     0000   240 ;	NONE
                                     0000   241 ;
                                     0000   242 ; IMPLICIT OUTPUTS:
                                     0000   243 ;
                                     0000   244 ;	MESSAGES TO SYS$OUTPUT ARE THE ONLY OUTPUT FROM SATSSF04.
                                     0000   245 ;	THEY ARE OF THE FORM:
                                     0000   246 ;
                                     0000   247 ;		%UETP-S-SATSMS, TEST MODULE SATSSF04 BEGUN ... (BEGIN MSG)
                                     0000   248 ;		%UETP-S-SATSMS, TEST MODULE SATSSF04 SUCCESSFUL ... (END MSG)
                                     0000   249 ;		%UETP-E-SATSMS, TEST MODULE SATSSF04 FAILED ... (END MSG)
                                     0000   250 ;		%UETP-I-TEXT, ... (VARIABLE INFORMATION ABOUT A TEST MODULE FAILURE)
                                     0000   251 ;
                                     0000   252 ; COMPLETION CODES:
                                     0000   253 ;
                                     0000   254 ;	THE SATSSF04 ROUTINE TERMINATES WITH A $EXIT TO THE
                                     0000   255 ;	OPERATING SYSTEM WITH A STATUS CODE DEFINED BY UETP$_SATSMS.
                                     0000   256 ;
                                     0000   257 ; SIDE EFFECTS:
SATSSF04        - SATS SYSTEM SERVICE TESTS  (FAILING S.C.)      22-AUG-1978 03:41:40   VAX-11 MACRO X0.3-11               Page   7
1.0             SATSSF04                                                                                                         (1)

                                     0000   258 ;
                                     0000   259 ;	NONE
                                     0000   260 ;
                                     0000   261 ;--
                                     0000   262
                                     0000   263
                                     0000   264
                                     0000   265 SATSSF04:
                               0FFC  0000   266 	.WORD	^M<R2,R3,R4,R5,R6,R7,R8,R9,R10,R11>
                                     0002   267 					; ENTRY MASK
                                     0002   268 	$WAKE_S  TPID			; GET PID OF THIS PROCESS
                                     0011   269 	$HIBER_S			; UNDO WAKE
                                     0018   270 	$SETPRN_S TEST_MOD_NAME_D 	; SET PROCESS NAME
                          0EB8   30  0025   271 	BSBW	MOD_MSG_PRINT		; PRINT TEST MODULE BEGIN MSG
   00000060'EF   0000007D'EF     DE  0028   272 	MOVAL	TEST_MOD_SUCC,TMD_ADDR	; ASSUME END MSG WILL SHOW SUCCESS
            00            01     F0  0033   273 	INSV	#SUCCESS,#0,#3,MOD_MSG_CODE ; ADJUST STATUS CODE FOR SUCCESS
   00000044'EF            03         0036
                                     003C   274 	MODE	TO,10$,KRNL,NOREGS 	; KERNEL MODE TO ACCESS PHD
            59   00000000'9F     D0  0059   275 	MOVL	@#CTL$GL_PHD,R9		; GET PROCESS HEADER ADDRESS
   00000071'EF            69     DE  0060   276 	MOVAL	PHD$Q_PRIVMSK(R9),PRIVMASK ; GET PRIV MASK ADDRESS
                                     0067   277 	MODE	FROM,10$		; GET BACK TO USER MODE
                                     0068   278 	PRIV	ADD,ALL			; GET ALL PRIVILEGES
                                     0091   279 	DISPSERV			; SET UP DISPLAY INFO FOR TESTSERV
                                     0226   280 	$SETPRT_S INADR=INADR, RETADR=RETADR, -
                                     0226   281 		  PROT=PROT, PRVPRT=PRVPRT
                                     0247   282 					; SET NOACCESS PSECT ...
                                     0247   283 					; ... FOR NO USER ACCESS
                          0B29   31  0247   284 	BRW	EXECUTE			; GO EXECUTE ALL TEST CASES
                                     024A   285 	TC_GROUP	STM,1,TS1
                                     0271   286 	NEXT_TEST_CASE	SFSTM10
SATSSF04        - SATS SYSTEM SERVICE TESTS  (FAILING S.C.)      22-AUG-1978 03:41:40   VAX-11 MACRO X0.3-11               Page   8
1.0             SFSTM10                                                                                                          (1)

                                     0271   287 ;
                                     0271   288 ;++
                                     0271   289 ; ******************************************************
                                     0271   290 ; *
                                     0271   291 ; *  TEST CASE NAME:		SFSTM10
                                     0271   292 ; *
                                     0271   293 ; *  SYSTEM SERVICE:		SETIMR
                                     0271   294 ; *
                                     0271   295 ; *  ARGUMENT UNDER TEST: 	EFN_STM10
                                     0271   296 ; *
                                     0271   297 ; *  INPUT CONDITIONS:
                                     0271   298 ; *     ILLEGAL EVENT FLAG NUMBER
                                     0271   299 ; *
                                     0271   300 ; *  EXPECTED RESULTS:
                                     0271   301 ; *	1) SYSTEM STATUS CODE:	ILLEFC
                                     0271   302 ; *	2) REGISTERS R2 THROUGH FP UNCHANGED
                                     0271   303 ; *
                                     0271   304 ; ******************************************************
                                     0271   305 ;--
                                     0271   306 ;
                                     0271   307 ;
                                     0271   308 	NEXT_TEST_CASE	SFSTM11
SATSSF04        - SATS SYSTEM SERVICE TESTS  (FAILING S.C.)      22-AUG-1978 03:41:40   VAX-11 MACRO X0.3-11               Page   9
1.0             SFSTM11                                                                                                          (1)

                                     027D   309 ;
                                     027D   310 ;++
                                     027D   311 ; ******************************************************
                                     027D   312 ; *
                                     027D   313 ; *  TEST CASE NAME:		SFSTM11
                                     027D   314 ; *
                                     027D   315 ; *  SYSTEM SERVICE:		SETIMR
                                     027D   316 ; *
                                     027D   317 ; *  ARGUMENT UNDER TEST: 	EFN_STM11
                                     027D   318 ; *
                                     027D   319 ; *  INPUT CONDITIONS:
                                     027D   320 ; *     ILLEGAL EVENT FLAG NUMBER
                                     027D   321 ; *
                                     027D   322 ; *  EXPECTED RESULTS:
                                     027D   323 ; *	1) SYSTEM STATUS CODE:	ILLEFC
                                     027D   324 ; *	2) REGISTERS R2 THROUGH FP UNCHANGED
                                     027D   325 ; *
                                     027D   326 ; ******************************************************
                                     027D   327 ;--
                                     027D   328 ;
   00000091'EF         FF 8F     98  027D   329 	CVTBL	#-1,EFN_STM11	; ILLEGAL EVENT FLAG NUMBER
                                     0285   330 ;
                                     0285   331 	NEXT_TEST_CASE	SFSTM12
SATSSF04        - SATS SYSTEM SERVICE TESTS  (FAILING S.C.)      22-AUG-1978 03:41:40   VAX-11 MACRO X0.3-11               Page  10
1.0             SFSTM12                                                                                                          (1)

                                     0291   332 ;
                                     0291   333 ;++
                                     0291   334 ; ******************************************************
                                     0291   335 ; *
                                     0291   336 ; *  TEST CASE NAME:		SFSTM12
                                     0291   337 ; *
                                     0291   338 ; *  SYSTEM SERVICE:		SETIMR
                                     0291   339 ; *
                                     0291   340 ; *  ARGUMENT UNDER TEST: 	EFN_STM12
                                     0291   341 ; *
                                     0291   342 ; *  INPUT CONDITIONS:
                                     0291   343 ; *     ILLEGAL EVENT FLAG NUMBER
                                     0291   344 ; *
                                     0291   345 ; *  EXPECTED RESULTS:
                                     0291   346 ; *	1) SYSTEM STATUS CODE:	ILLEFC
                                     0291   347 ; *	2) REGISTERS R2 THROUGH FP UNCHANGED
                                     0291   348 ; *
                                     0291   349 ; ******************************************************
                                     0291   350 ;--
                                     0291   351 ;
   00000095'EF         80 8F     9A  0291   352 	MOVZBL	#128,EFN_STM12	; ILLEGAL EVENT FLAG NUMBER
                                     0299   353 ;
                                     0299   354 	NEXT_TEST_CASE	SFSTM13
SATSSF04        - SATS SYSTEM SERVICE TESTS  (FAILING S.C.)      22-AUG-1978 03:41:40   VAX-11 MACRO X0.3-11               Page  11
1.0             SFSTM13                                                                                                          (1)

                                     02A5   355 ;
                                     02A5   356 ;++
                                     02A5   357 ; ******************************************************
                                     02A5   358 ; *
                                     02A5   359 ; *  TEST CASE NAME:		SFSTM13
                                     02A5   360 ; *
                                     02A5   361 ; *  SYSTEM SERVICE:		SETIMR
                                     02A5   362 ; *
                                     02A5   363 ; *  ARGUMENT UNDER TEST: 	EFN_STM13
                                     02A5   364 ; *
                                     02A5   365 ; *  INPUT CONDITIONS:
                                     02A5   366 ; *     ILLEGAL EVENT FLAG NUMBER
                                     02A5   367 ; *
                                     02A5   368 ; *  EXPECTED RESULTS:
                                     02A5   369 ; *	1) SYSTEM STATUS CODE:	ILLEFC
                                     02A5   370 ; *	2) REGISTERS R2 THROUGH FP UNCHANGED
                                     02A5   371 ; *
                                     02A5   372 ; ******************************************************
                                     02A5   373 ;--
                                     02A5   374 ;
   00000099'EF   000000FF 8F     D0  02A5   375 	MOVL	#255,EFN_STM13	; ILLEGAL EVENT FLAG NUMBER
                                     02B0   376 ;
                                     02B0   377 	NEXT_TEST_CASE	SFSTM14
SATSSF04        - SATS SYSTEM SERVICE TESTS  (FAILING S.C.)      22-AUG-1978 03:41:40   VAX-11 MACRO X0.3-11               Page  12
1.0             SFSTM14                                                                                                          (1)

                                     02BC   378 ;
                                     02BC   379 ;++
                                     02BC   380 ; ******************************************************
                                     02BC   381 ; *
                                     02BC   382 ; *  TEST CASE NAME:		SFSTM14
                                     02BC   383 ; *
                                     02BC   384 ; *  SYSTEM SERVICE:		SETIMR
                                     02BC   385 ; *
                                     02BC   386 ; *  ARGUMENT UNDER TEST: 	EFN_STM14
                                     02BC   387 ; *
                                     02BC   388 ; *  INPUT CONDITIONS:
                                     02BC   389 ; *     PROCESS NEVER ASSOCIATED WITH SPECIFIED CLUSTER (3).
                                     02BC   390 ; *
                                     02BC   391 ; *  EXPECTED RESULTS:
                                     02BC   392 ; *	1) SYSTEM STATUS CODE:	UNASEFC
                                     02BC   393 ; *	2) REGISTERS R2 THROUGH FP UNCHANGED
                                     02BC   394 ; *
                                     02BC   395 ; ******************************************************
                                     02BC   396 ;--
                                     02BC   397 ;
   0000009D'EF         64 8F     9A  02BC   398 	MOVZBL	#100,EFN_STM14	; EVENT FLAG IN UNASSOCIATED CLUSTER
                                     02C4   399 ;
                                     02C4   400 	NEXT_TEST_CASE	SFSTM20
SATSSF04        - SATS SYSTEM SERVICE TESTS  (FAILING S.C.)      22-AUG-1978 03:41:40   VAX-11 MACRO X0.3-11               Page  13
1.0             SFSTM20                                                                                                          (1)

                                     02D0   401 ;
                                     02D0   402 ;++
                                     02D0   403 ; ******************************************************
                                     02D0   404 ; *
                                     02D0   405 ; *  TEST CASE NAME:		SFSTM20
                                     02D0   406 ; *
                                     02D0   407 ; *  SYSTEM SERVICE:		SETIMR
                                     02D0   408 ; *
                                     02D0   409 ; *  ARGUMENT UNDER TEST: 	DAYTIM_STM20
                                     02D0   410 ; *
                                     02D0   411 ; *  INPUT CONDITIONS:
                                     02D0   412 ; *     EXPIRATION TIME AT LOCATION 0
                                     02D0   413 ; *
                                     02D0   414 ; *  EXPECTED RESULTS:
                                     02D0   415 ; *	1) SYSTEM STATUS CODE:	ACCVIO
                                     02D0   416 ; *	2) REGISTERS R2 THROUGH FP UNCHANGED
                                     02D0   417 ; *
                                     02D0   418 ; ******************************************************
                                     02D0   419 ;--
                                     02D0   420 ;
                                     02D0   421 	NEXT_TEST_CASE	SFSTM21
SATSSF04        - SATS SYSTEM SERVICE TESTS  (FAILING S.C.)      22-AUG-1978 03:41:40   VAX-11 MACRO X0.3-11               Page  14
1.0             SFSTM21                                                                                                          (1)

                                     02DC   422 ;
                                     02DC   423 ;++
                                     02DC   424 ; ******************************************************
                                     02DC   425 ; *
                                     02DC   426 ; *  TEST CASE NAME:		SFSTM21
                                     02DC   427 ; *
                                     02DC   428 ; *  SYSTEM SERVICE:		SETIMR
                                     02DC   429 ; *
                                     02DC   430 ; *  ARGUMENT UNDER TEST: 	DAYTIM_STM21
                                     02DC   431 ; *
                                     02DC   432 ; *  INPUT CONDITIONS:
                                     02DC   433 ; *     EXPIRATION TIME IN NON-ACCESSIBLE PSECT
                                     02DC   434 ; *
                                     02DC   435 ; *  EXPECTED RESULTS:
                                     02DC   436 ; *	1) SYSTEM STATUS CODE:	ACCVIO
                                     02DC   437 ; *	2) REGISTERS R2 THROUGH FP UNCHANGED
                                     02DC   438 ; *
                                     02DC   439 ; ******************************************************
                                     02DC   440 ;--
                                     02DC   441 ;
                                     02DC   442 	NEXT_TEST_CASE	SFSTM22
SATSSF04        - SATS SYSTEM SERVICE TESTS  (FAILING S.C.)      22-AUG-1978 03:41:40   VAX-11 MACRO X0.3-11               Page  15
1.0             SFSTM22                                                                                                          (1)

                                     02E8   443 ;
                                     02E8   444 ;++
                                     02E8   445 ; ******************************************************
                                     02E8   446 ; *
                                     02E8   447 ; *  TEST CASE NAME:		SFSTM22
                                     02E8   448 ; *
                                     02E8   449 ; *  SYSTEM SERVICE:		SETIMR
                                     02E8   450 ; *
                                     02E8   451 ; *  ARGUMENT UNDER TEST: 	DAYTIM_STM22
                                     02E8   452 ; *
                                     02E8   453 ; *  INPUT CONDITIONS:
                                     02E8   454 ; *     EXPIRATION TIME FIELD BEGINS IN ACCESSIBLE PSECT, ENDS
                                     02E8   455 ; *       IN NON-ACCESSIBLE PSECT.
                                     02E8   456 ; *
                                     02E8   457 ; *  EXPECTED RESULTS:
                                     02E8   458 ; *	1) SYSTEM STATUS CODE:	ACCVIO
                                     02E8   459 ; *	2) REGISTERS R2 THROUGH FP UNCHANGED
                                     02E8   460 ; *
                                     02E8   461 ; ******************************************************
                                     02E8   462 ;--
                                     02E8   463 ;
                                     02E8   464 	TCEND
SATSSF04        - SATS SYSTEM SERVICE TESTS  (FAILING S.C.)      22-AUG-1978 03:41:40   VAX-11 MACRO X0.3-11               Page  16
1.0                                                                                                                              (1)

                                     02E9   465 	TC_GROUP	GTT,1,TS2
                                     0310   466 	NEXT_TEST_CASE	SFGTT10
SATSSF04        - SATS SYSTEM SERVICE TESTS  (FAILING S.C.)      22-AUG-1978 03:41:40   VAX-11 MACRO X0.3-11               Page  17
1.0             SFGTT10                                                                                                          (1)

                                     0310   467 ;
                                     0310   468 ;++
                                     0310   469 ; ******************************************************
                                     0310   470 ; *
                                     0310   471 ; *  TEST CASE NAME:		SFGTT10
                                     0310   472 ; *
                                     0310   473 ; *  SYSTEM SERVICE:		GETTIM
                                     0310   474 ; *
                                     0310   475 ; *  ARGUMENT UNDER TEST: 	TIMADR_GTT10
                                     0310   476 ; *
                                     0310   477 ; *  INPUT CONDITIONS:
                                     0310   478 ; *     TIME OUTPUT FIELD AT LOCATION 1
                                     0310   479 ; *
                                     0310   480 ; *  EXPECTED RESULTS:
                                     0310   481 ; *	1) SYSTEM STATUS CODE:	ACCVIO
                                     0310   482 ; *	2) REGISTERS R2 THROUGH FP UNCHANGED
                                     0310   483 ; *
                                     0310   484 ; ******************************************************
                                     0310   485 ;--
                                     0310   486 ;
                                     0310   487 	NEXT_TEST_CASE	SFGTT11
SATSSF04        - SATS SYSTEM SERVICE TESTS  (FAILING S.C.)      22-AUG-1978 03:41:40   VAX-11 MACRO X0.3-11               Page  18
1.0             SFGTT11                                                                                                          (1)

                                     031C   488 ;
                                     031C   489 ;++
                                     031C   490 ; ******************************************************
                                     031C   491 ; *
                                     031C   492 ; *  TEST CASE NAME:		SFGTT11
                                     031C   493 ; *
                                     031C   494 ; *  SYSTEM SERVICE:		GETTIM
                                     031C   495 ; *
                                     031C   496 ; *  ARGUMENT UNDER TEST: 	TIMADR_GTT11
                                     031C   497 ; *
                                     031C   498 ; *  INPUT CONDITIONS:
                                     031C   499 ; *     TIME OUTPUT FIELD IN READ/ONLY PSECT
                                     031C   500 ; *
                                     031C   501 ; *  EXPECTED RESULTS:
                                     031C   502 ; *	1) SYSTEM STATUS CODE:	ACCVIO
                                     031C   503 ; *	2) REGISTERS R2 THROUGH FP UNCHANGED
                                     031C   504 ; *
                                     031C   505 ; ******************************************************
                                     031C   506 ;--
                                     031C   507 ;
                                     031C   508 	NEXT_TEST_CASE	SFGTT12
SATSSF04        - SATS SYSTEM SERVICE TESTS  (FAILING S.C.)      22-AUG-1978 03:41:40   VAX-11 MACRO X0.3-11               Page  19
1.0             SFGTT12                                                                                                          (1)

                                     0328   509 ;
                                     0328   510 ;++
                                     0328   511 ; ******************************************************
                                     0328   512 ; *
                                     0328   513 ; *  TEST CASE NAME:		SFGTT12
                                     0328   514 ; *
                                     0328   515 ; *  SYSTEM SERVICE:		GETTIM
                                     0328   516 ; *
                                     0328   517 ; *  ARGUMENT UNDER TEST: 	TIMADR_GTT12
                                     0328   518 ; *
                                     0328   519 ; *  INPUT CONDITIONS:
                                     0328   520 ; *     TIME OUTPUT FIELD BEGINS IN ACCESSIBLE PSECT, ENDS
                                     0328   521 ; *       IN NON-ACCESSIBLE PSECT.
                                     0328   522 ; *
                                     0328   523 ; *  EXPECTED RESULTS:
                                     0328   524 ; *	1) SYSTEM STATUS CODE:	ACCVIO
                                     0328   525 ; *	2) REGISTERS R2 THROUGH FP UNCHANGED
                                     0328   526 ; *
                                     0328   527 ; ******************************************************
                                     0328   528 ;--
                                     0328   529 ;
                                     0328   530 	TCEND
SATSSF04        - SATS SYSTEM SERVICE TESTS  (FAILING S.C.)      22-AUG-1978 03:41:40   VAX-11 MACRO X0.3-11               Page  20
1.0                                                                                                                              (1)

                                     0329   531 	TC_GROUP	NMT,1,TS3
                                     0350   532 	NEXT_TEST_CASE	SFNMT10
SATSSF04        - SATS SYSTEM SERVICE TESTS  (FAILING S.C.)      22-AUG-1978 03:41:40   VAX-11 MACRO X0.3-11               Page  21
1.0             SFNMT10                                                                                                          (1)

                                     0350   533 ;
                                     0350   534 ;++
                                     0350   535 ; ******************************************************
                                     0350   536 ; *
                                     0350   537 ; *  TEST CASE NAME:		SFNMT10
                                     0350   538 ; *
                                     0350   539 ; *  SYSTEM SERVICE:		NUMTIM
                                     0350   540 ; *
                                     0350   541 ; *  ARGUMENT UNDER TEST: 	TIMBUF_NMT10
                                     0350   542 ; *
                                     0350   543 ; *  INPUT CONDITIONS:
                                     0350   544 ; *     TIME BUFFER AT LOCATION 1
                                     0350   545 ; *
                                     0350   546 ; *  EXPECTED RESULTS:
                                     0350   547 ; *	1) SYSTEM STATUS CODE:	ACCVIO
                                     0350   548 ; *	2) REGISTERS R2 THROUGH FP UNCHANGED
                                     0350   549 ; *
                                     0350   550 ; ******************************************************
                                     0350   551 ;--
                                     0350   552 ;
                                     0350   553 	NEXT_TEST_CASE	SFNMT11
SATSSF04        - SATS SYSTEM SERVICE TESTS  (FAILING S.C.)      22-AUG-1978 03:41:40   VAX-11 MACRO X0.3-11               Page  22
1.0             SFNMT11                                                                                                          (1)

                                     035C   554 ;
                                     035C   555 ;++
                                     035C   556 ; ******************************************************
                                     035C   557 ; *
                                     035C   558 ; *  TEST CASE NAME:		SFNMT11
                                     035C   559 ; *
                                     035C   560 ; *  SYSTEM SERVICE:		NUMTIM
                                     035C   561 ; *
                                     035C   562 ; *  ARGUMENT UNDER TEST: 	TIMBUF_NMT11
                                     035C   563 ; *
                                     035C   564 ; *  INPUT CONDITIONS:
                                     035C   565 ; *     TIME BUFFER IN READ/ONLY PSECT
                                     035C   566 ; *
                                     035C   567 ; *  EXPECTED RESULTS:
                                     035C   568 ; *	1) SYSTEM STATUS CODE:	ACCVIO
                                     035C   569 ; *	2) REGISTERS R2 THROUGH FP UNCHANGED
                                     035C   570 ; *
                                     035C   571 ; ******************************************************
                                     035C   572 ;--
                                     035C   573 ;
                                     035C   574 	NEXT_TEST_CASE	SFNMT12
SATSSF04        - SATS SYSTEM SERVICE TESTS  (FAILING S.C.)      22-AUG-1978 03:41:40   VAX-11 MACRO X0.3-11               Page  23
1.0             SFNMT12                                                                                                          (1)

                                     0368   575 ;
                                     0368   576 ;++
                                     0368   577 ; ******************************************************
                                     0368   578 ; *
                                     0368   579 ; *  TEST CASE NAME:		SFNMT12
                                     0368   580 ; *
                                     0368   581 ; *  SYSTEM SERVICE:		NUMTIM
                                     0368   582 ; *
                                     0368   583 ; *  ARGUMENT UNDER TEST: 	TIMBUF_NMT12
                                     0368   584 ; *
                                     0368   585 ; *  INPUT CONDITIONS:
                                     0368   586 ; *     TIME BUFFER BEGINS IN ACCESSIBLE PSECT, ENDS IN
                                     0368   587 ; *       NON-ACCESSIBLE PSECT.
                                     0368   588 ; *
                                     0368   589 ; *  EXPECTED RESULTS:
                                     0368   590 ; *	1) SYSTEM STATUS CODE:	ACCVIO
                                     0368   591 ; *	2) REGISTERS R2 THROUGH FP UNCHANGED
                                     0368   592 ; *
                                     0368   593 ; ******************************************************
                                     0368   594 ;--
                                     0368   595 ;
                                     0368   596 	NEXT_TEST_CASE	SFNMT20
SATSSF04        - SATS SYSTEM SERVICE TESTS  (FAILING S.C.)      22-AUG-1978 03:41:40   VAX-11 MACRO X0.3-11               Page  24
1.0             SFNMT20                                                                                                          (1)

                                     0374   597 ;
                                     0374   598 ;++
                                     0374   599 ; ******************************************************
                                     0374   600 ; *
                                     0374   601 ; *  TEST CASE NAME:		SFNMT20
                                     0374   602 ; *
                                     0374   603 ; *  SYSTEM SERVICE:		NUMTIM
                                     0374   604 ; *
                                     0374   605 ; *  ARGUMENT UNDER TEST: 	TIMADR_NMT20
                                     0374   606 ; *
                                     0374   607 ; *  INPUT CONDITIONS:
                                     0374   608 ; *     TIME VALUE AT LOCATION 0
                                     0374   609 ; *
                                     0374   610 ; *  EXPECTED RESULTS:
                                     0374   611 ; *	1) SYSTEM STATUS CODE:	ACCVIO
                                     0374   612 ; *	2) REGISTERS R2 THROUGH FP UNCHANGED
                                     0374   613 ; *
                                     0374   614 ; ******************************************************
                                     0374   615 ;--
                                     0374   616 ;
                                     0374   617 	NEXT_TEST_CASE	SFNMT21
SATSSF04        - SATS SYSTEM SERVICE TESTS  (FAILING S.C.)      22-AUG-1978 03:41:40   VAX-11 MACRO X0.3-11               Page  25
1.0             SFNMT21                                                                                                          (1)

                                     0380   618 ;
                                     0380   619 ;++
                                     0380   620 ; ******************************************************
                                     0380   621 ; *
                                     0380   622 ; *  TEST CASE NAME:		SFNMT21
                                     0380   623 ; *
                                     0380   624 ; *  SYSTEM SERVICE:		NUMTIM
                                     0380   625 ; *
                                     0380   626 ; *  ARGUMENT UNDER TEST: 	TIMADR_NMT21
                                     0380   627 ; *
                                     0380   628 ; *  INPUT CONDITIONS:
                                     0380   629 ; *     TIME VALUE IN NON-ACCESSIBLE PSECT
                                     0380   630 ; *
                                     0380   631 ; *  EXPECTED RESULTS:
                                     0380   632 ; *	1) SYSTEM STATUS CODE:	ACCVIO
                                     0380   633 ; *	2) REGISTERS R2 THROUGH FP UNCHANGED
                                     0380   634 ; *
                                     0380   635 ; ******************************************************
                                     0380   636 ;--
                                     0380   637 ;
                                     0380   638 	NEXT_TEST_CASE	SFNMT22
SATSSF04        - SATS SYSTEM SERVICE TESTS  (FAILING S.C.)      22-AUG-1978 03:41:40   VAX-11 MACRO X0.3-11               Page  26
1.0             SFNMT22                                                                                                          (1)

                                     038C   639 ;
                                     038C   640 ;++
                                     038C   641 ; ******************************************************
                                     038C   642 ; *
                                     038C   643 ; *  TEST CASE NAME:		SFNMT22
                                     038C   644 ; *
                                     038C   645 ; *  SYSTEM SERVICE:		NUMTIM
                                     038C   646 ; *
                                     038C   647 ; *  ARGUMENT UNDER TEST: 	TIMADR_NMT22
                                     038C   648 ; *
                                     038C   649 ; *  INPUT CONDITIONS:
                                     038C   650 ; *     TIME VALUE BEGINS IN ACCESSIBLE PSECT, ENDS
                                     038C   651 ; *       IN NON-ACCESSIBLE PSECT.
                                     038C   652 ; *
                                     038C   653 ; *  EXPECTED RESULTS:
                                     038C   654 ; *	1) SYSTEM STATUS CODE:	ACCVIO
                                     038C   655 ; *	2) REGISTERS R2 THROUGH FP UNCHANGED
                                     038C   656 ; *
                                     038C   657 ; ******************************************************
                                     038C   658 ;--
                                     038C   659 ;
                                     038C   660 	NEXT_TEST_CASE	SFNMT23
SATSSF04        - SATS SYSTEM SERVICE TESTS  (FAILING S.C.)      22-AUG-1978 03:41:40   VAX-11 MACRO X0.3-11               Page  27
1.0             SFNMT23                                                                                                          (1)

                                     0398   661 ;
                                     0398   662 ;++
                                     0398   663 ; ******************************************************
                                     0398   664 ; *
                                     0398   665 ; *  TEST CASE NAME:		SFNMT23
                                     0398   666 ; *
                                     0398   667 ; *  SYSTEM SERVICE:		NUMTIM
                                     0398   668 ; *
                                     0398   669 ; *  ARGUMENT UNDER TEST: 	TIMADR_NMT23
                                     0398   670 ; *
                                     0398   671 ; *  INPUT CONDITIONS:
                                     0398   672 ; *     DELTA TIME VALUE EXCEEDS 9999 DAYS
                                     0398   673 ; *
                                     0398   674 ; *  EXPECTED RESULTS:
                                     0398   675 ; *	1) SYSTEM STATUS CODE:	IVTIME
                                     0398   676 ; *	2) REGISTERS R2 THROUGH FP UNCHANGED
                                     0398   677 ; *
                                     0398   678 ; ******************************************************
                                     0398   679 ;--
                                     0398   680 ;
                                     0398   681 	TCEND
SATSSF04        - SATS SYSTEM SERVICE TESTS  (FAILING S.C.)      22-AUG-1978 03:41:40   VAX-11 MACRO X0.3-11               Page  28
1.0                                                                                                                              (1)

                                     0399   682 ;
                                     0399   683 	TC_GROUP	ATM,1,TS4
                                     03C0   684 ;
                                     03C0   685 	NEXT_TEST_CASE	SFATM30
SATSSF04        - SATS SYSTEM SERVICE TESTS  (FAILING S.C.)      22-AUG-1978 03:41:40   VAX-11 MACRO X0.3-11               Page  29
1.0             SFATM30                                                                                                          (1)

                                     03C0   686 ;
                                     03C0   687 ;++
                                     03C0   688 ; ******************************************************
                                     03C0   689 ; *
                                     03C0   690 ; *  TEST CASE NAME:		SFATM30
                                     03C0   691 ; *
                                     03C0   692 ; *  SYSTEM SERVICE:		ASCTIM
                                     03C0   693 ; *
                                     03C0   694 ; *  ARGUMENT UNDER TEST: 	TIMADR_ATM30
                                     03C0   695 ; *
                                     03C0   696 ; *  INPUT CONDITIONS:
                                     03C0   697 ; *	DELTA TIME VALUE EXCEEDS 9999 DAYS
                                     03C0   698 ; *
                                     03C0   699 ; *  EXPECTED RESULTS:
                                     03C0   700 ; *	1) SYSTEM STATUS CODE:	IVTIME
                                     03C0   701 ; *	2) REGISTERS R2 THROUGH FP UNCHANGED
                                     03C0   702 ; *
                                     03C0   703 ; ******************************************************
                                     03C0   704 ;--
                                     03C0   705 ;
                                     03C0   706 ;
                                     03C0   707 	TCEND
SATSSF04        - SATS SYSTEM SERVICE TESTS  (FAILING S.C.)      22-AUG-1978 03:41:40   VAX-11 MACRO X0.3-11               Page  30
1.0                                                                                                                              (1)

                                     03C1   708 	TC_GROUP	BTM,1,TS5
                                     03E8   709 ;
                                     03E8   710 	NEXT_TEST_CASE	SFBTM10
SATSSF04        - SATS SYSTEM SERVICE TESTS  (FAILING S.C.)      22-AUG-1978 03:41:40   VAX-11 MACRO X0.3-11               Page  31
1.0             SFBTM10                                                                                                          (1)

                                     03E8   711 ;
                                     03E8   712 ;++
                                     03E8   713 ; ******************************************************
                                     03E8   714 ; *
                                     03E8   715 ; *  TEST CASE NAME:		SFBTM10
                                     03E8   716 ; *
                                     03E8   717 ; *  SYSTEM SERVICE:		BINTIM
                                     03E8   718 ; *
                                     03E8   719 ; *  ARGUMENT UNDER TEST: 	TIMBUF_BTM10
                                     03E8   720 ; *
                                     03E8   721 ; *  INPUT CONDITIONS:
                                     03E8   722 ; *	INVALID ABSOLUTE TIME (YEAR SPECIFIED IS
                                     03E8   723 ; *	  EARLIER THAN SYSTEM BASE).
                                     03E8   724 ; *
                                     03E8   725 ; *  EXPECTED RESULTS:
                                     03E8   726 ; *	1) SYSTEM STATUS CODE:	IVTIME
                                     03E8   727 ; *	2) REGISTERS R2 THROUGH FP UNCHANGED
                                     03E8   728 ; *
                                     03E8   729 ; ******************************************************
                                     03E8   730 ;--
                                     03E8   731 ;
                                     03E8   732 ;
                                     03E8   733 	NEXT_TEST_CASE	SFBTM11
SATSSF04        - SATS SYSTEM SERVICE TESTS  (FAILING S.C.)      22-AUG-1978 03:41:40   VAX-11 MACRO X0.3-11               Page  32
1.0             SFBTM11                                                                                                          (1)

                                     03F4   734 ;
                                     03F4   735 ;++
                                     03F4   736 ; ******************************************************
                                     03F4   737 ; *
                                     03F4   738 ; *  TEST CASE NAME:		SFBTM11
                                     03F4   739 ; *
                                     03F4   740 ; *  SYSTEM SERVICE:		BINTIM
                                     03F4   741 ; *
                                     03F4   742 ; *  ARGUMENT UNDER TEST: 	TIMBUF_BTM11
                                     03F4   743 ; *
                                     03F4   744 ; *  INPUT CONDITIONS:
                                     03F4   745 ; *	INVALID ABSOLUTE TIME (MINUTES FIELD
                                     03F4   746 ; *	  OUT OF RANGE).
                                     03F4   747 ; *
                                     03F4   748 ; *  EXPECTED RESULTS:
                                     03F4   749 ; *	1) SYSTEM STATUS CODE:	IVTIME
                                     03F4   750 ; *	2) REGISTERS R2 THROUGH FP UNCHANGED
                                     03F4   751 ; *
                                     03F4   752 ; ******************************************************
                                     03F4   753 ;--
                                     03F4   754 ;
                                     03F4   755 ;
                                     03F4   756 	NEXT_TEST_CASE	SFBTM12
SATSSF04        - SATS SYSTEM SERVICE TESTS  (FAILING S.C.)      22-AUG-1978 03:41:40   VAX-11 MACRO X0.3-11               Page  33
1.0             SFBTM12                                                                                                          (1)

                                     0400   757 ;
                                     0400   758 ;++
                                     0400   759 ; ******************************************************
                                     0400   760 ; *
                                     0400   761 ; *  TEST CASE NAME:		SFBTM12
                                     0400   762 ; *
                                     0400   763 ; *  SYSTEM SERVICE:		BINTIM
                                     0400   764 ; *
                                     0400   765 ; *  ARGUMENT UNDER TEST: 	TIMBUF_BTM12
                                     0400   766 ; *
                                     0400   767 ; *  INPUT CONDITIONS:
                                     0400   768 ; *	INVALID ABSOLUTE TIME (NON-EXISTENT DATE).
                                     0400   769 ; *
                                     0400   770 ; *  EXPECTED RESULTS:
                                     0400   771 ; *	1) SYSTEM STATUS CODE:	IVTIME
                                     0400   772 ; *	2) REGISTERS R2 THROUGH FP UNCHANGED
                                     0400   773 ; *
                                     0400   774 ; ******************************************************
                                     0400   775 ;--
                                     0400   776 ;
                                     0400   777 ;
                                     0400   778 	NEXT_TEST_CASE	SFBTM13
SATSSF04        - SATS SYSTEM SERVICE TESTS  (FAILING S.C.)      22-AUG-1978 03:41:40   VAX-11 MACRO X0.3-11               Page  34
1.0             SFBTM13                                                                                                          (1)

                                     040C   779 ;
                                     040C   780 ;++
                                     040C   781 ; ******************************************************
                                     040C   782 ; *
                                     040C   783 ; *  TEST CASE NAME:		SFBTM13
                                     040C   784 ; *
                                     040C   785 ; *  SYSTEM SERVICE:		BINTIM
                                     040C   786 ; *
                                     040C   787 ; *  ARGUMENT UNDER TEST: 	TIMBUF_BTM13
                                     040C   788 ; *
                                     040C   789 ; *  INPUT CONDITIONS:
                                     040C   790 ; *	INVALID DELTA TIME (HOURS FIELD
                                     040C   791 ; *	  OUT OF RANGE).
                                     040C   792 ; *
                                     040C   793 ; *  EXPECTED RESULTS:
                                     040C   794 ; *	1) SYSTEM STATUS CODE:	IVTIME
                                     040C   795 ; *	2) REGISTERS R2 THROUGH FP UNCHANGED
                                     040C   796 ; *
                                     040C   797 ; ******************************************************
                                     040C   798 ;--
                                     040C   799 ;
                                     040C   800 ;
                                     040C   801 	TCEND
SATSSF04        - SATS SYSTEM SERVICE TESTS  (FAILING S.C.)      22-AUG-1978 03:41:40   VAX-11 MACRO X0.3-11               Page  35
1.0                                                                                                                              (1)

                                     040D   802 TS1:
                                     040D   803 	TESTSERV	SETIMR,ERR,SATS,				-
                                     040D   804                                           				-
                                     040D   805 	   <1,EFN_STM,						-
                                     040D   806 	        	EFN_STM10,ILLEFC,	-  ; SFSTM10
                                     040D   807 	        	EFN_STM11,ILLEFC,	-  ; SFSTM11
                                     040D   808 	        	EFN_STM12,ILLEFC,	-  ; SFSTM12
                                     040D   809 	        	EFN_STM13,ILLEFC,	-  ; SFSTM13
                                     040D   810 	        	EFN_STM14,UNASEFC,	-  ; SFSTM14
                                     040D   811                                                   >,			-
                                     040D   812                                           				-
                                     040D   813 	   <1,DAYTIM_STM,						-
                                     040D   814 	        	DAYTIM_STM20,ACCVIO,	-  ; SFSTM20
                                     040D   815 	        	DAYTIM_STM21,ACCVIO,	-  ; SFSTM21
                                     040D   816 	        	DAYTIM_STM22,ACCVIO,	-  ; SFSTM22
                                     040D   817                                                   >,			-
                                     040D   818                                           				-
                                     040D   819 	   <1,ASTADR_STM,						-
                                     040D   820                                                   >,			-
                                     040D   821                                           				-
                                     040D   822 	   <1,REQIDT_STM,						-
                                     040D   823                                                   >,			-
                                     040D   824
                                     06B3   825 	TS_CLEANUP		; CLEAN UP & RETURN TO TEST_SERV_EXEC
SATSSF04        - SATS SYSTEM SERVICE TESTS  (FAILING S.C.)      22-AUG-1978 03:41:40   VAX-11 MACRO X0.3-11               Page  36
1.0                                                                                                                              (1)

                                     06D3   826 TS2:
                                     06D3   827 	TESTSERV	GETTIM,ERR,SATS,				-
                                     06D3   828                                           				-
                                     06D3   829 	   <1,TIMADR_GTT,						-
                                     06D3   830 	        	TIMADR_GTT10,ACCVIO,	-  ; SFGTT10
                                     06D3   831 	        	TIMADR_GTT11,ACCVIO,	-  ; SFGTT11
                                     06D3   832 	        	TIMADR_GTT12,ACCVIO,	-  ; SFGTT12
                                     06D3   833                                                   >,			-
                                     06D3   834
                                     07A6   835 	TS_CLEANUP		; CLEAN UP & RETURN TO TEST_SERV_EXEC
SATSSF04        - SATS SYSTEM SERVICE TESTS  (FAILING S.C.)      22-AUG-1978 03:41:40   VAX-11 MACRO X0.3-11               Page  37
1.0                                                                                                                              (1)

                                     07C6   836 TS3:
                                     07C6   837 	TESTSERV	NUMTIM,ERR,SATS,				-
                                     07C6   838                                           				-
                                     07C6   839 	   <1,TIMBUF_NMT,						-
                                     07C6   840 	        	TIMBUF_NMT10,ACCVIO,	-  ; SFNMT10
                                     07C6   841 	        	TIMBUF_NMT11,ACCVIO,	-  ; SFNMT11
                                     07C6   842 	        	TIMBUF_NMT12,ACCVIO,	-  ; SFNMT12
                                     07C6   843                                                   >,			-
                                     07C6   844                                           				-
                                     07C6   845 	   <1,TIMADR_NMT,						-
                                     07C6   846 	        	TIMADR_NMT20,ACCVIO,	-  ; SFNMT20
                                     07C6   847 	        	TIMADR_NMT21,ACCVIO,	-  ; SFNMT21
                                     07C6   848 	        	TIMADR_NMT22,ACCVIO,	-  ; SFNMT22
                                     07C6   849 	        	TIMADR_NMT23,IVTIME,	-  ; SFNMT23
                                     07C6   850                                                   >,			-
                                     07C6   851
                                     0942   852 	TS_CLEANUP		; CLEAN UP & RETURN TO TEST_SERV_EXEC
SATSSF04        - SATS SYSTEM SERVICE TESTS  (FAILING S.C.)      22-AUG-1978 03:41:40   VAX-11 MACRO X0.3-11               Page  38
1.0                                                                                                                              (1)

                                     0962   853 TS4:
                                     0962   854 	TESTSERV	ASCTIM,ERR,SATS,				-
                                     0962   855                                           				-
                                     0962   856 	   <1,TIMLEN_ATM,						-
                                     0962   857                                                   >,			-
                                     0962   858                                           				-
                                     0962   859 	   <1,TIMBUF_ATM,						-
                                     0962   860                                                   >,			-
                                     0962   861                                           				-
                                     0962   862 	   <1,TIMADR_ATM,						-
                                     0962   863 	        	TIMADR_ATM30,IVTIME,	-  ; SFATM30
                                     0962   864                                                   >,			-
                                     0962   865                                           				-
                                     0962   866 	   <1,CVTFLG_ATM,						-
                                     0962   867                                                   >,			-
                                     0962   868
                                     0BD0   869 	TS_CLEANUP		; CLEAN UP & RETURN TO TEST_SERV_EXEC
SATSSF04        - SATS SYSTEM SERVICE TESTS  (FAILING S.C.)      22-AUG-1978 03:41:40   VAX-11 MACRO X0.3-11               Page  39
1.0                                                                                                                              (1)

                                     0BF0   870 TS5:
                                     0BF0   871 	TESTSERV	BINTIM,ERR,SATS,				-
                                     0BF0   872                                           				-
                                     0BF0   873 	   <1,TIMBUF_BTM,						-
                                     0BF0   874 	        	TIMBUF_BTM10,IVTIME,	-  ; SFBTM10
                                     0BF0   875 	        	TIMBUF_BTM11,IVTIME,	-  ; SFBTM11
                                     0BF0   876 	        	TIMBUF_BTM12,IVTIME,	-  ; SFBTM12
                                     0BF0   877 	        	TIMBUF_BTM13,IVTIME,	-  ; SFBTM13
                                     0BF0   878                                                   >,			-
                                     0BF0   879                                           				-
                                     0BF0   880 	   <1,TIMADR_BTM,						-
                                     0BF0   881                                                   >,			-
                                     0BF0   882
                                     0D53   883 	TS_CLEANUP		; CLEAN UP & RETURN TO TEST_SERV_EXEC
SATSSF04        - SATS SYSTEM SERVICE TESTS  (FAILING S.C.)      22-AUG-1978 03:41:40   VAX-11 MACRO X0.3-11               Page  40
1.0             EXECUTE & CLEANUP                                                                                                (1)

                                     0D73   884 	.SBTTL	EXECUTE & CLEANUP
                                     0D73   885 EXECUTE:
                                     0D73   886 	TEST_SERV_EXEC			; EXECUTE ALL T. CASES IN ALL GROUPS
                                     0DA5   887 	.MDELETE (PRIV,TC_GROUP,NEXT_TEST_CASE, -
                           0000000D  0DA5   888 		  TCEND,TESTSERV,TS_CLEANUP,TEST_SERV_EXEC)
                                     0DA5   889 					; DELETE MACRO DEFINITIONS
                                     0DA5   890 CLEANUP:
                          0138   30  0DA5   891 	BSBW	MOD_MSG_PRINT		; PRINT TEST MODULE END MSG
            1C            01     F0  0DA8   892 	INSV	#1,#STS$V_INHIB_MSG,#1,MOD_MSG_CODE
   00000044'EF            01         0DAB
                                     0DB1   893 					; INHIBIT PRINTING
                                     0DB1   894 	$EXIT_S	MOD_MSG_CODE		; EXIT TO OP SYS WITH MSG CODE
SATSSF04        - SATS SYSTEM SERVICE TESTS  (FAILING S.C.)      22-AUG-1978 03:41:40   VAX-11 MACRO X0.3-11               Page  41
1.0             TC_CONTROL                                                                                                       (1)

                                     0DBE   896 	.SBTTL	TC_CONTROL
                                     0DBE   897 ;++
                                     0DBE   898 ; FUNCTIONAL DESCRIPTION:
                                     0DBE   899 ;
                                     0DBE   900 ;		THE TC_CONTROL SUBROUTINE IS CALLED BY THE TEST_SERV_EXEC
                                     0DBE   901 ; MACRO TO EXECUTE A GROUP OF TEST CASES. A GROUP IS DEFINED BY A TC_GROUP
                                     0DBE   902 ; MACRO. FOR EACH TC_GROUP MACRO, THERE IS A CORRESPONDING TESTSERV MACRO.
                                     0DBE   903 ; TESTSERV CONTAINS CODE TO EXECUTE SYSTEM SERVICES AND CHECK THE RETURNED
                                     0DBE   904 ; STATUS CODE VALUES. TESTSERV ARGUMENTS ARE CODED TO SPECIFY ALL THE SYSTEM
                                     0DBE   905 ; SERVICE ARGUMENT VALUES AND THE EXPECTED STATUS CODE FOR EACH TEST CASE
                                     0DBE   906 ; DEFINED BY A NEXT_TEST_CASE MACRO WITHIN THE GROUP. TC_CONTROL USES A
                                     0DBE   907 ; CO-ROUTINE INTERFACE TO ENTER THE CODE OF THE APPROPRIATE TESTSERV MACRO
                                     0DBE   908 ; IN VARIOUS PLACES. THE FIRST ENTRY OCCURS ONCE PER GROUP TO ALLOW TESTSERV
                                     0DBE   909 ; TO DO SOME INITIALIZATION. THEN TWO ENTRIES ARE MADE FOR EACH TEST CASE IN
                                     0DBE   910 ; THE GROUP. THE FIRST ALLOWS TESTSERV TO ISSUE THE SUBJECT SYSTEM SERVICE.
                                     0DBE   911 ; THE SECOND ENTRY FOR THE TEST CASE CAUSES TESTSERV TO CHECK THE RETURNED
                                     0DBE   912 ; STATUS CODE, PRINTING A FAILURE MESSAGE IF IT IS NOT THE EXPECTED CODE.
                                     0DBE   913 ; IF THERE ARE NO MORE TEST CASES IN THE CURRENT GROUP, TESTSERV (NOT TC_CONTROL)
                                     0DBE   914 ; RETURNS DIRECTLY TO TEST_SERV_EXEC (RSB ACTUALLY ISSUED IN TS_CLEANUP MACRO)
                                     0DBE   915 ; FROM THIS SECOND ENTRY; OTHERWISE, CONTROL RETURNS TO TC_CONTROL WHICH
                                     0DBE   916 ; IN TURN ENTERS TESTSERV AGAIN FOR THE NEXT TEST CASE. THE FAILURE OF A
                                     0DBE   917 ; TEST CASE DOES NOT CAUSE TERMINATION OF THE TEST MODULE.
                                     0DBE   918 ;
                                     0DBE   919 ; CALLING SEQUENCE:
                                     0DBE   920 ;
                                     0DBE   921 ;	BSBW TC_CONTROL (ISSUED WITHIN THE TEST_SERV_EXEC MACRO)
                                     0DBE   922 ;			(RSB IS ISSUED WITHIN THE TS_CLEANUP MACRO)
                                     0DBE   923 ;
                                     0DBE   924 ; INPUT PARAMETERS:
                                     0DBE   925 ;
                                     0DBE   926 ;	NONE
                                     0DBE   927 ;
                                     0DBE   928 ; IMPLICIT INPUTS:
                                     0DBE   929 ;
                                     0DBE   930 ;	ARGUMENTS SPECIFIED ON EACH TESTSERV MACRO MAY BE VIEWED AS
                                     0DBE   931 ;	INPUTS, SINCE TC_CONTROL AND TESTSERV ACT AS CO-ROUTINES.
                                     0DBE   932 ;
                                     0DBE   933 ; OUTPUT PARAMETERS:
                                     0DBE   934 ;
                                     0DBE   935 ;	SEVERITY CODE FIELD OF MOD_MSG_CODE (BITS 0,1,2) IS SET TO ERROR
                                     0DBE   936 ;	IF ANY TEST CASE IN THE CURRENT GROUP FAILS; OTHERWISE IT REMAINS
                                     0DBE   937 ;	SET TO SUCCESSFUL.
                                     0DBE   938 ;
                                     0DBE   939 ; IMPLICIT OUTPUTS:
                                     0DBE   940 ;
                                     0DBE   941 ;	%UETP-I-TEXT,   ERROR MESSAGES ARE WRITTEN TO SYS$OUTPUT BY
                                     0DBE   942 ;			THE TESTSERV MACRO (CO-ROUTINE WITH TC_CONTROL)
                                     0DBE   943 ;
                                     0DBE   944 ; COMPLETION CODES:
                                     0DBE   945 ;
                                     0DBE   946 ;	NONE
                                     0DBE   947 ;
                                     0DBE   948 ; SIDE EFFECTS:
                                     0DBE   949 ;
                                     0DBE   950 ;	NONE
                                     0DBE   951 ;
                                     0DBE   952 ;--
SATSSF04        - SATS SYSTEM SERVICE TESTS  (FAILING S.C.)      22-AUG-1978 03:41:40   VAX-11 MACRO X0.3-11               Page  42
1.0             TC_CONTROL                                                                                                       (1)

                                     0DBE   953
                                     0DBE   954
                                     0DBE   955
                                     0DBE   956 TC_CONTROL:
                 00000064'EF     DD  0DBE   957 	PUSHL	TS_EP			; PUSH TESTSERV ENTRY POINT
                          9E     16  0DC4   958 	JSB	@(SP)+			; ENTER TESTSERV INITIALIZATION
                                     0DC6   959 10$:					; PROCESS NEXT TEST CASE
   00000056'EF            20     90  0DC6   960 	MOVB	#^A/ /,$$TSTN$$+2 	; MAKE SURE T.C. NAME HAS A BLANK
                          002F   30  0DCD   961 	BSBW	REG_SAVE		; SAVE REGISTERS
                 00000004'FF     16  0DD0   962 	JSB	@CURRENT_TC		; JUMP TO CURRENT TEST CASE
                          0037   30  0DD6   963 	BSBW	REG_REST		; RESTORE REGS FOR TESTSERV
                          9E     16  0DD9   964 	JSB	@(SP)+			; LET TESTSERV ISSUE SYSTEM SERVICE
                          0042   30  0DDB   965 	BSBW	REG_COMP		; COMPARE REGS TO SEE IF ...
                                     0DDE   966 					; ... SYSTEM SERVICE CHANGED ANY
                          9E     16  0DDE   967 	JSB	@(SP)+			; LET TESTSERV CHEK S.S. STATUS CODE
   00000056'EF            2A     91  0DE0   968 	CMPB	#^A/*/,$$TSTN$$+2	; HAS TESTSERV INDICATED FAILURE ?
                          DD     12  0DE7   969 	BNEQU	10$			; NO -- PROCESS NEXT TEST CASE
   00000060'EF   00000088'EF     DE  0DE9   970 	MOVAL	TEST_MOD_FAIL,TMD_ADDR	; YES -- INDICATE FAILED IN END MSG
            00            02     F0  0DF4   971 	INSV	#ERROR,#0,#3,MOD_MSG_CODE ; ADJUST STATUS CODE FOR ERROR
   00000044'EF            03         0DF7
                          C7     11  0DFD   972 	BRB	10$			; LOOP BAK TO PROCESS NEXT TEST CASE
                                     0DFF   973 ;
                                     0DFF   974 ;   TC_CONTROL RETURNS TO TEST_SERV_EXEC VIA TESTSERV (IN TS_CLEANUP MACRO)
                                     0DFF   975 ;
SATSSF04        - SATS SYSTEM SERVICE TESTS  (FAILING S.C.)      22-AUG-1978 03:41:40   VAX-11 MACRO X0.3-11               Page  43
1.0             SUBROUTINES                                                                                                      (1)

                                     0DFF   977 	.SBTTL	SUBROUTINES
                                     0DFF   978 REG_SAVE:
                                     0DFF   979 ;
                                     0DFF   980 ;  *****************************************************************
                                     0DFF   981 ;  *                                                               *
                                     0DFF   982 ;  *  SAVES R0 THRU SP IN REG_SAVE_AREA                            *
                                     0DFF   983 ;  *                                                               *
                                     0DFF   984 ;  *****************************************************************
                                     0DFF   985 ;
                     7FFF 8F     BB  0DFF   986 	PUSHR	#R0_THRU_SP		; SAVE ALL REGS ON STACK
            6E            3C     28  0E03   987 	MOVC3	#60,(SP),REG_SAVE_AREA	; SAVE REGS (BEFORE S.S.)
                 00000008'EF         0E06
                     7FFF 8F     BA  0E0B   988 	POPR	#R0_THRU_SP		; CLEAN UP STACK
                                 05  0E0F   989 	RSB				; .... AND RETURN
                                     0E10   990 ;
                                     0E10   991 ;
                                     0E10   992 ;
                                     0E10   993 ;
                                     0E10   994 REG_REST:
                                     0E10   995 ;
                                     0E10   996 ;
                                     0E10   997 ;  *****************************************************************
                                     0E10   998 ;  *                                                               *
                                     0E10   999 ;  *  RESTORES R0 THRU SP FROM REG_SAVE_AREA                       *
                                     0E10  1000 ;  *                                                               *
                                     0E10  1001 ;  *****************************************************************
                                     0E10  1002 ;
            5E            3C     C2  0E10  1003 	SUBL2	#60,SP			; MOVE SP TO MAKE ROOM FOR REGS
   00000008'EF            3C     28  0E13  1004 	MOVC3	#60,REG_SAVE_AREA,(SP)	; MOVE REGS ONTO STACK FOR POP
                          6E         0E1A
                     7FFF 8F     BA  0E1B  1005 	POPR	#R0_THRU_SP		; RESTORE ALL REGS FOR TESTSERV
                                 05  0E1F  1006 	RSB				; ... AND RETURN
SATSSF04        - SATS SYSTEM SERVICE TESTS  (FAILING S.C.)      22-AUG-1978 03:41:40   VAX-11 MACRO X0.3-11               Page  44
1.0             SUBROUTINES                                                                                                      (1)

                                     0E20  1008 REG_COMP:
                                     0E20  1009 ;
                                     0E20  1010 ;  *****************************************************************
                                     0E20  1011 ;  *                                                               *
                                     0E20  1012 ;  *  1) PUSHES ALL REGS ONTO STACK                                *
                                     0E20  1013 ;  *  2) COMPARES REGISTER IMAGES FROM STACK WITH CORRESPONDING    *
                                     0E20  1014 ;  *       IMAGES FROM REG_SAVE_AREA FOR ALL REGISTERS SPECIFIED   *
                                     0E20  1015 ;  *       IN REG_COMP_MASK.                                       *
                                     0E20  1016 ;  *  3) FOR EACH UNEQUAL COMPARE, AN ERROR MESSAGE IS PRINTED     *
                                     0E20  1017 ;  *       (USING $FAO AND $OUTPUT SYSTEM SERVICES).               *
                                     0E20  1018 ;  *  4) POPS ALL REGS OFF OF STACK                                *
                                     0E20  1019 ;  *                                                               *
                                     0E20  1020 ;  *****************************************************************
                                     0E20  1021 ;
                     7FFF 8F     BB  0E20  1022 	PUSHR	#R0_THRU_SP		; SAVE ALL REGISTERS ON STACK
            56   00000008'EF     DE  0E24  1023 	MOVAL	REG_SAVE_AREA,R6 	; POINT R6 TO BEG OF ...
                                     0E2B  1024 					; ... REGS (BEFORE S.S.)
            54            5E     D0  0E2B  1025 	MOVL	SP,R4			; POINT R4 TO BEG OF
                                     0E2E  1026 					; ... REGS (AFTER S.S.)
            53         FF 8F     98  0E2E  1027 	CVTBL	#-1,R3			; INITIALIZE REG_COMP_MASK INDEX
                                     0E32  1028 REG_COMP_NEXT:
                          53     D6  0E32  1029 	INCL	R3			; POINT TO NEXT BIT IN MASK
            53            0F     91  0E34  1030 	CMPB	#15,R3			; END OF THE MASK ?
                          03     1A  0E37  1031 	BGTRU	REG_COMP_CONT		; NO -- CONTINUE
                          009F   31  0E39  1032 	BRW	REG_COMP_RSB		; YES -- GO TO COMMON RETURN
                                     0E3C  1033 REG_COMP_CONT:
            84            86     D1  0E3C  1034 	CMPL	(R6)+,(R4)+		; REG BEFORE = REG AFTER ?
                          F1     13  0E3F  1035 	BEQLU	REG_COMP_NEXT		; YES -- LOOK FOR NEXT REG
   00000000'EF            53     E1  0E41  1036 	BBC	R3,REG_COMP_MASK,REG_COMP_NEXT
                          E9         0E48
                                     0E49  1037 					; NO -- GET NEXT IF BIT NOT SET
   00000048'EF            53     D0  0E49  1038 	MOVL	R3,CLOB_REG_NO		; NO -- GIVE REG NUMBER TO FAO
   0000004C'EF         FC A6     D0  0E50  1039 	MOVL	-4(R6),REG_BEFORE_SS 	; GIVE "BEFORE" CONTENTS TO FAO
   00000050'EF         FC A4     D0  0E58  1040 	MOVL	-4(R4),REG_AFTER_SS  	; GIVE "AFTER" CONTENTS TO FAO
   00000056'EF            2A     90  0E60  1041 	MOVB	#^A/*/,$$TSTN$$+2 	; GIVE FAILURE INDIC'N IN ERROR MSG
                                     0E67  1042 ;
                                     0E67  1043 	$FAO_S	ERR_MSG_FAOCTL,OUTL,OUTD,$$SNAD$$,  -
                                     0E67  1044 		$$ASEQ$$,$$PSEQ$$,CLOB_REG_NO,REG_BEFORE_SS,REG_AFTER_SS
                                     0E9A  1045 ;
       F27C CF       F246 CF     B0  0E9A  1046 	MOVW	OUTL,OUTD		; ACTUAL OUTPUT LEN IN STRING DESC'R
                                     0EA1  1047 	PUTMSG	<#UETP$_TEXT,#1,#OUTD>	; PRINT THE MSG
       F260 CF       0084 8F     B0  0EB6  1048 	MOVW	#OUTE-OUTB,OUTD		; GET MAX LEN BACK INTO DESCRIPTOR
   00000056'EF            20     90  0EBD  1049 	MOVB	#^A/ /,$$TSTN$$+2 	; REMOVE FAIL INDIC'N FOR NEXT MSG
   00000060'EF   00000088'EF     DE  0EC4  1050 	MOVAL	TEST_MOD_FAIL,TMD_ADDR	; INDICATE FAILED IN END MSG
            00            02     F0  0ECF  1051 	INSV	#ERROR,#0,#3,MOD_MSG_CODE ; ADJUST STATUS CODE FOR ERROR
   00000044'EF            03         0ED2
                          FF57   31  0ED8  1052 	BRW	REG_COMP_NEXT		; GO LOOK FOR NEXT REG TO COMPARE
                                     0EDB  1053 REG_COMP_RSB:
                     7FFF 8F     BA  0EDB  1054 	POPR	#R0_THRU_SP		; CLEAN UP STACK
                                 05  0EDF  1055 	RSB				; RETURN TO CALLER
SATSSF04        - SATS SYSTEM SERVICE TESTS  (FAILING S.C.)      22-AUG-1978 03:41:40   VAX-11 MACRO X0.3-11               Page  45
1.0             SUBROUTINES                                                                                                      (1)

                                     0EE0  1057 MOD_MSG_PRINT:
                                     0EE0  1058 ;
                                     0EE0  1059 ;  *****************************************************************
                                     0EE0  1060 ;  *                                                               *
                                     0EE0  1061 ;  *  PRINTS THE TEST MODULE BEGUN/SUCCESSFUL/FAILED MESSAGES      *
                                     0EE0  1062 ;  *	   (USING THE PUTMSG MACRO).                               *
                                     0EE0  1063 ;  *                                                               *
                                     0EE0  1064 ;  *****************************************************************
                                     0EE0  1065 ;
                                     0EE0  1066 	PUTMSG	<MOD_MSG_CODE,#2,TMN_ADDR,TMD_ADDR> ; PRINT MSG
                                 05  0EFB  1067 	RSB				; ... AND RETURN TO CALLER
                                     0EFC  1068 ;
                                     0EFC  1069 CHMRTN:
                                     0EFC  1070 ; **********************************************************
                                     0EFC  1071 ; *
                                     0EFC  1072 ; *	CHANGE MODE ROUTINE. THIS ROUTINE GETS CONTROL WHENEVER
                                     0EFC  1073 ; *	A CMKRNL, CMEXEC, OR CMSUP SYSTEM SERVICE IS ISSUED
                                     0EFC  1074 ; *	BY THE MODE MACRO ('TO' OPTION).  IT MERELY DOES
                                     0EFC  1075 ; *	A JUMP INDIRECT ON A FIELD SET UP BY MODE. IT HAS
                                     0EFC  1076 ; *	THE EFFECT OF RETURNING TO THE END OF THE MODE
                                     0EFC  1077 ; *	MACRO EXPANSION.
                                     0EFC  1078 ; *
                                     0EFC  1079 ; *************************************************************
                                     0EFC  1080 ;
                               0000  0EFC  1081 	.WORD	0			; ENTRY MASK
                 00000079'FF     17  0EFE  1082 	JMP	@CHM_CONT		; RETURN TO MODE MACRO IN NEW MODE
                                     0F04  1083 ;
                                     0F04  1084 ; *	RET INSTR WILL BE ISSUED IN EXPANSION OF 'MODE FROM, ....' MACRO
                                     0F04  1085 ;
                                     0F04  1086 	.END	SATSSF04
SATSSF04        - SATS SYSTEM SERVICE TESTS  (FAILING S.C.)      22-AUG-1978 03:41:40   VAX-11 MACRO X0.3-11               Page  46
SYMBOL TABLE                                                                                                                     (1)

$$$CHARS       = 00000048            PRIVMASK         00000071 R     04   SHR$_BADFORM   = 00001168
$$$FIRSTTC$$$  = 00000000            PROT             000000B1 R     03   SHR$_BADJOBID  = 00001170
$$$STRINGS     = 00000000            PRT$C_NA         ********   X   03   SHR$_BADJOBNAME= 00001178
$$ACT$$          000000FC R     07   PRV$V_ALLSPOOL = 00000004            SHR$_BADKEY    = 00001108
$$ARG$$          00000104 R     07   PRV$V_BUGCHK   = 00000017            SHR$_BADLOGIC  = 00001120
$$ASEQ$$         000000F4 R     07   PRV$V_CMEXEC   = 00000001            SHR$_BADLOGICPC= 00001150
$$CALL$$         000000E8 R     07   PRV$V_CMKRNL   = 00000000            SHR$_BADLONG   = 00001020
$$DISP$$         000001EF R     07   PRV$V_DETACH   = 00000005            SHR$_BADPRTY   = 00001180
$$ERR$$          000001A9 R     07   PRV$V_DIAGNOSE = 00000006            SHR$_BADQNAME  = 00001188
$$EXP$$          00000100 R     07   PRV$V_EXQUOTA  = 00000013            SHR$_BADTIME   = 00001190
$$INIT$$         000000EC R     07   PRV$V_GROUP    = 00000008            SHR$_BADVALUE  = 00001110
$$MAXP$$       = 00000005            PRV$V_GRPNAM   = 00000003            SHR$_BADWORD   = 00001028
$$PSEQ$$         000000F8 R     07   PRV$V_LOG_IO   = 00000007            SHR$_BEGIN     = 00001030
$$SNAD$$         000000F0 R     07   PRV$V_MOUNT    = 00000011            SHR$_BEGIND    = 00001038
$$T1           = 00000004            PRV$V_NETMBX   = 00000014            SHR$_BEGINT    = 00001040
$$T2           = 00000009            PRV$V_NOACNT   = 00000009            SHR$_CLICB     = 00001048
$$TSTN$$         00000054 R     04   PRV$V_OPER     = 00000012            SHR$_CLOSEDEL  = 00001218
ASTADR_STM     = 00000000            PRV$V_PHY_IO   = 00000016            SHR$_CLOSEIN   = 00001050
BIT...         = 00001258            PRV$V_PRMCEB   = 0000000A            SHR$_CLOSEOUT  = 00001058
CHMRTN           00000EFC R     07   PRV$V_PRMGBL   = 00000018            SHR$_CONFDEL   = 000011F8
CHM_CONT         00000079 R     04   PRV$V_PRMMBX   = 0000000B            SHR$_COPIEDB   = 00001060
CLEANUP          00000DA5 R     07   PRV$V_PSWAPM   = 0000000C            SHR$_COPIEDR   = 00001068
CLOB_REG_NO      00000048 R     04   PRV$V_SETPRI   = 0000000D            SHR$_CREATED   = 00001070
CTL$GL_PHD       ********   X   07   PRV$V_SETPRV   = 0000000E            SHR$_DELETED   = 00001200
CURRENT_TC       00000004 R     04   PRV$V_SYSGBL   = 00000019            SHR$_DELINTERR = 00001240
CVTFLG_ATM       00000107 R     03   PRV$V_SYSNAM   = 00000002            SHR$_DELVER    = 00001208
DAYTIM_STM       000000C5 R     03   PRV$V_TMPMBX   = 0000000F            SHR$_DIRTOOBUS = 00001220
DAYTIM_STM20   = 00000000            PRV$V_VOLPRO   = 00000015            SHR$_ENDED     = 00001078
DAYTIM_STM21     00000008 R     06   PRV$V_WORLD    = 00000010            SHR$_ENDEDD    = 00001080
DAYTIM_STM22   = 000001FF R     05   PRVPRT           00000070 R     04   SHR$_ENDEDT    = 00001088
EFN_STM          000000BD R     03   R0_THRU_SP     = 00007FFF            SHR$_FILNOTDEL = 000011F0
EFN_STM10        000000C1 R     03   REGS             0000007D R     04   SHR$_FILNOTPUR = 00001230
EFN_STM11        00000091 R     04   REG_AFTER_SS     00000050 R     04   SHR$_FILPURGED = 00001250
EFN_STM12        00000095 R     04   REG_BEFORE_SS    0000004C R     04   SHR$_HASHCONCAT= 000011D8
EFN_STM13        00000099 R     04   REG_COMP         00000E20 R     07   SHR$_HIGHVER   = 00001148
EFN_STM14        0000009D R     04   REG_COMP_CONT    00000E3C R     07   SHR$_IDXCONCAT = 00001138
EMPTY            00000000 R     05   REG_COMP_MASK    00000000 R     03   SHR$_INCOMPAT  = 000011E0
ERROR          = 00000002            REG_COMP_NEXT    00000E32 R     07   SHR$_NEWFILES  = 00001090
ERR_MSG_FAOCTL   00000002 R     03   REG_COMP_RSB     00000EDB R     07   SHR$_NOFILPURG = 00001228
EXECUTE          00000D73 R     07   REG_REST         00000E10 R     07   SHR$_NOJOBID   = 000011A0
GBL...         = 00000000            REG_SAVE         00000DFF R     07   SHR$_NOJOBNAME = 000011A8
GRP_TOTAL      = 00000005            REG_SAVE_AREA    00000008 R     04   SHR$_NOQUEUE   = 00001198
INADR            000000A9 R     03   REQIDT_STM       000000CD R     03   SHR$_NOTCMPLT  = 000011C0
INFO           = 00000003            RETADR           00000068 R     04   SHR$_NOTCOPIED = 000011B8
LIB$SIGNAL       ********   X   07   SATSSF04         00000000 R     07   SHR$_NOVALUE   = 00001100
MEXIT          = 00000000            SEVERE         = 00000004            SHR$_NOWILD    = 00001128
MOD_MSG_CODE     00000044 R     04   SHR$K_SHRDEF   = 00000001            SHR$_OPENIN    = 00001098
MOD_MSG_PRINT    00000EE0 R     07   SHR$_ABEND     = 000010D8            SHR$_OPENOUT   = 000010A0
NARGS          = 0000000E            SHR$_ABENDD    = 000010E0            SHR$_OVERLAY   = 000010A8
NOACCESS         00000000 R     06   SHR$_ABENDT    = 000010E8            SHR$_PARSEFAIL = 00001248
ONES             000000B5 R     03   SHR$_APPENDEDB = 00001000            SHR$_PURGEVER  = 00001210
OUTB             00000125 R     07   SHR$_APPENDEDR = 00001008            SHR$_READERR   = 000010B0
OUTD             0000011D R     07   SHR$_ATPC      = 00001158            SHR$_RELCONCAT = 00001140
OUTE             000001A9 R     07   SHR$_BADBYTE   = 00001010            SHR$_REPLACED  = 000010B8
OUTL             000000E4 R     07   SHR$_BADCOPIES = 00001160            SHR$_RMSERROR  = 000011C8
PCB$L_UIC      = 00000020            SHR$_BADDELIM  = 00001118            SHR$_SEARCHFAIL= 00001238
PHD$Q_PRIVMSK  = 00000000            SHR$_BADFIELD  = 00001018            SHR$_SYNTAX    = 000010F8
SATSSF04        - SATS SYSTEM SERVICE TESTS  (FAILING S.C.)      22-AUG-1978 03:41:40   VAX-11 MACRO X0.3-11               Page  47
SYMBOL TABLE                                                                                                                     (1)

SHR$_SYSERROR  = 000011B0            TIMBUF_NMT       000000A9 R     04
SHR$_SYSERRORPC= 000010F0            TIMBUF_NMT10   = 00000001
SHR$_TEXT      = 00001130            TIMBUF_NMT11     000000D9 R     03
SHR$_UNXPCTSTS = 000011D0            TIMBUF_NMT12   = 000001FF R     05
SHR$_VALERR    = 000011E8            TIMLEN_ATM       000000B7 R     04
SHR$_WILDCONCAT= 000010C0            TMD_ADDR         00000060 R     04
SHR$_WILDOUTVER= 000010C8            TMN_ADDR         0000005C R     04
SHR$_WRITEERR  = 000010D0            TPID             00000000 R     04
SS$_ACCVIO       ********   X   07   TS1              0000040D R     07
SS$_ILLEFC       ********   X   07   TS2              000006D3 R     07
SS$_IVTIME       ********   X   07   TS3              000007C6 R     07
SS$_UNASEFC      ********   X   07   TS4              00000962 R     07
STS$V_INHIB_MSG= 0000001C            TS5              00000BF0 R     07
SUCCESS        = 00000001            TS_EP            00000064 R     04
SYS$ASCTIM       ********   X   07   TTNAME           0000009F R     03
SYS$BINTIM       ********   X   07   UETP$_ABORTC   = 0074832B
SYS$CMKRNL       ********   X   07   UETP$_CONF     = 007480D1
SYS$EXIT         ********   X   07   UETP$_DATAER   = 00748010
SYS$FAO          ********   X   07   UETP$_DDB      = 007480E1
SYS$FAOL         ********   X   07   UETP$_DENOSU   = 00748333
SYS$GETTIM       ********   X   07   UETP$_DESTP    = 007481A2
SYS$HIBER        ********   X   07   UETP$_DEUNUS   = 0074819A
SYS$NUMTIM       ********   X   07   UETP$_ERBOX    = 00748008
SYS$SETIMR       ********   X   07   UETP$_SATSMS   = 007480D9
SYS$SETPRN       ********   X   07   UETP$_TEXT     = 00741133
SYS$SETPRT       ********   X   07   UETP$_UCB      = 007480E9
SYS$WAKE         ********   X   07   UETP$_USER     = 0074833B
TC1              0000024A R     07   WARNING        = 00000000
TC2              000002E9 R     07
TC3              00000329 R     07
TC4              00000399 R     07
TC5              000003C1 R     07
TCG_NO         = 00000005
TC_CONTROL       00000DBE R     07
TEST_MOD_BEG     00000077 R     03
TEST_MOD_FAIL    00000088 R     03
TEST_MOD_NAME    0000006E R     03
TEST_MOD_NAME_D  0000008F R     03
TEST_MOD_SUCC    0000007D R     03
TIMADR_ATM       000000F7 R     03
TIMADR_ATM30     000000FF R     03
TIMADR_BTM       000000D9 R     04
TIMADR_GTT       000000A1 R     04
TIMADR_GTT10   = 00000001
TIMADR_GTT11     000000D1 R     03
TIMADR_GTT12   = 000001FF R     05
TIMADR_NMT       000000E7 R     03
TIMADR_NMT20   = 00000001
TIMADR_NMT21     00000010 R     06
TIMADR_NMT22   = 000001FF R     05
TIMADR_NMT23     000000EF R     03
TIMBUF_ATM       000000B9 R     04
TIMBUF_BTM       0000010B R     03
TIMBUF_BTM10     0000012B R     03
TIMBUF_BTM11     0000014B R     03
TIMBUF_BTM12     0000016B R     03
TIMBUF_BTM13     0000018B R     03
SATSSF04        - SATS SYSTEM SERVICE TESTS  (FAILING S.C.)      22-AUG-1978 03:41:40   VAX-11 MACRO X0.3-11               Page  48
PROGRAM SECTION SYNOPSIS                                                                                                         (1)


PROGRAM SECTION SYNOPSIS

.  ABS  .        00000000      00     NOPIC   USR   CON   ABS   LCL NOSHR NOEXE NORD  NOWRT BYTE
. BLANK .        00000000      01     NOPIC   USR   CON   REL   LCL NOSHR   EXE   RD    WRT BYTE
$ABS$            00000000      02     NOPIC   USR   CON   ABS   LCL NOSHR   EXE   RD    WRT BYTE
RODATA           000001A4      03     NOPIC   USR   CON   REL   LCL NOSHR NOEXE   RD  NOWRT LONG
RWDATA           000000E1      04     NOPIC   USR   CON   REL   LCL NOSHR NOEXE   RD    WRT BYTE
SATS_ACCVIO_1    00000200      05     NOPIC   USR   CON   REL   LCL NOSHR NOEXE   RD    WRT PAGE
SATS_ACCVIO_2    00000200      06     NOPIC   USR   CON   REL   LCL NOSHR NOEXE   RD    WRT PAGE
SATSSF04         00000F04      07     NOPIC   USR   CON   REL   LCL NOSHR   EXE   RD    WRT LONG


THERE WERE NO ERRORS OR WARNINGS.
8000. BYTES LEFT IN FREE MEMORY POOL.
3082. BYTES OF RECLAIMED MEMORY.
OBJ$:SATSSF04,LIS$:SATSSF04/-SP=EXECML$/ML,LIB$:SYSTST.MLB/ML,SRC$:SATSSF04
51 MLB DIR RDS - 893 GETS TO DEFINE 44 MACROS. 66 INTER. FILE WRITES.
