SATSSS39        SATS SYSTEM SERVICE TESTS  $HIBER (SUCC S.C.)    22-AUG-1978 04:05:02   VAX-11 MACRO X0.3-11               Page   0
TABLE OF CONTENTS

   (1)      48  DECLARATIONS
   (1)      76  CONDITION TABLES
   (1)      94  TM_SETUP, TM_CLEANUP
   (1)     157  CONDITION SUBROUTINES - SETUP AND CLEANUP
   (1)     227  FORM_CONDS
   (1)     320  VERIFY
   (1)     429  VFY_CLEANUP
   (1)     484  WAKAST
SATSSS39        SATS SYSTEM SERVICE TESTS  $HIBER (SUCC S.C.)    22-AUG-1978 04:05:02   VAX-11 MACRO X0.3-11               Page   1
1.0                                                                                                                              (1)

                                     0000     1 	.TITLE	SATSSS39 SATS SYSTEM SERVICE TESTS  $HIBER (SUCC S.C.)
                                     0000     2 	.IDENT	/1.0/
                                     0000     3
                                     0000     4 ;
                                     0000     5 ;			  COPYRIGHT (c) 1977,1978 BY
                                     0000     6 ;	      DIGITAL EQUIPMENT CORPORATION, MAYNARD, MASS.
                                     0000     7 ;
                                     0000     8 ; THIS SOFTWARE IS FURNISHED UNDER A LICENSE AND MAY BE USED AND  COPIED
                                     0000     9 ; ONLY  IN  ACCORDANCE  WITH  THE  TERMS  OF  SUCH  LICENSE AND WITH THE
                                     0000    10 ; INCLUSION OF THE ABOVE COPYRIGHT NOTICE.  THIS SOFTWARE OR  ANY  OTHER
                                     0000    11 ; COPIES  THEREOF MAY NOT BE PROVIDED OR OTHERWISE MADE AVAILABLE TO ANY
                                     0000    12 ; OTHER PERSON.  NO TITLE TO AND OWNERSHIP OF  THE  SOFTWARE  IS  HEREBY
                                     0000    13 ; TRANSFERRED.
                                     0000    14 ;
                                     0000    15 ; THE INFORMATION IN THIS SOFTWARE IS SUBJECT TO CHANGE  WITHOUT  NOTICE
                                     0000    16 ; AND  SHOULD  NOT  BE  CONSTRUED  AS  A COMMITMENT BY DIGITAL EQUIPMENT
                                     0000    17 ; CORPORATION.
                                     0000    18 ;
                                     0000    19 ; DIGITAL ASSUMES NO RESPONSIBILITY FOR THE USE OR  RELIABILITY  OF  ITS
                                     0000    20 ; SOFTWARE ON EQUIPMENT WHICH IS NOT SUPPLIED BY DIGITAL.
                                     0000    21 ;
                                     0000    22
                                     0000    23 ;++
                                     0000    24 ; FACILITY:	SYSTST (SATS SYSTEM SERVICE TESTS)
                                     0000    25 ;
                                     0000    26 ; ABSTRACT:
                                     0000    27 ;
                                     0000    28 ;		THIS MODULE CONTAINS SUBROUTINES WHICH, WHEN LINKED
                                     0000    29 ; WITH SUCCOMMON.OBJ, FORM TEST MODULE SATSSS39 TO TEST SUCCESSFUL
                                     0000    30 ; OPERATION OF THE $HIBER SYSTEM SERVICE. THE SERVICE IS INVOKED
                                     0000    31 ; UNDER VARIOUS INPUT CONDITIONS WITH VARYING INPUT PARAMETERS. ONLY
                                     0000    32 ; SUCCESSFUL STATUS CODES ARE EXPECTED IN THIS TEST MODULE.  CORRECT
                                     0000    33 ; OPERATION OF THE SERVICE FOR EACH OF ITS ISSUANCES IS VERIFIED BY
                                     0000    34 ; CHECKING FOR AN SS$_NORMAL STATUS CODE, EXPECTED RETURN ARGUMENTS
                                     0000    35 ; AND EXPECTED FUNCTIONALITY PERFORMED.
                                     0000    36 ;
                                     0000    37 ; ENVIRONMENT:	USER MODE IMAGE; NEEDS CMKRNL PRIVILEGE,
                                     0000    38 ;		DYNAMICALLY ACQUIRES OTHER PRIVILEGES, AS NEEDED.
                                     0000    39 ;
                                     0000    40 ; AUTHOR: THOMAS L. CAFARELLA,		CREATION DATE: FEB, 1977
                                     0000    41 ;
                                     0000    42 ; MODIFIED BY:
                                     0000    43 ;
                                     0000    44 ;	, : VERSION
                                     0000    45 ; 01	-
                                     0000    46 ;--
SATSSS39        SATS SYSTEM SERVICE TESTS  $HIBER (SUCC S.C.)    22-AUG-1978 04:05:02   VAX-11 MACRO X0.3-11               Page   2
1.0             DECLARATIONS                                                                                                     (1)

                                     0000    48 	.SBTTL	DECLARATIONS
                                     0000    49 ;
                                     0000    50 ; INCLUDE FILES:
                                     0000    51 ;
                                     0000    52 	$PRVDEF				; PRIVILEGE BIT DEFINITIONS
                                     0000    53 	$PHDDEF				; PROCESS HEADER OFFSETS
                                     0000    54 ;
                                     0000    55 ; MACROS:
                                     0000    56 ;
                                     0000    57 ;
                                     0000    58 ; EQUATED SYMBOLS:
                                     0000    59 ;
                                     0000    60 ;
                                     0000    61 ; OWN STORAGE:
                                     0000    62 ;
SATSSS39        SATS SYSTEM SERVICE TESTS  $HIBER (SUCC S.C.)    22-AUG-1978 04:05:02   VAX-11 MACRO X0.3-11               Page   3
1.0             DECLARATIONS                                                                                                     (1)

                                 00000000    64 	.PSECT	RODATA,RD,NOWRT,NOEXE,LONG
                                     0000    65 TEST_MOD_NAME::	STRING	C,<SATSSS39>	; TEST MODULE NAME
                                     0009    66 TEST_MOD_NAME_D: STRING	I,<SATSSS39>	; TEST MODULE NAME DESCRIPTOR
                                     0019    67 MSG1_INP_CTL:	STRING	I,<  SSHIB!4ZW: CONDITIONS:>
                                     0039    68 					; FAO CTL STRING FOR MSG1 IN SUCCOMMON.MAR
                                     0039    69 MSG3_ERR_CTL::	STRING	I,< *SSHIB!4ZW: !AS>
                                     0051    70 					; FAO CTL STRING FOR MSG3 IN SUCCOMMON.MAR
                  FFFFFFFF F70F2E80  0051    71 DAYTIM_STM:	.LONG	-10*1000*1000*15,-1 ; 15 SECONDS IN 100-NANOSECOND UNITS
SATSSS39        SATS SYSTEM SERVICE TESTS  $HIBER (SUCC S.C.)    22-AUG-1978 04:05:02   VAX-11 MACRO X0.3-11               Page   4
1.0             DECLARATIONS                                                                                                     (1)

                                 00000000    73 	.PSECT	RWDATA,RD,WRT,NOEXE,LONG
                           00000008  0000    74 PRIVMASK:	.BLKQ	1		; ADDR OF PRIVILEGE MASK (IN PHD)
SATSSS39        SATS SYSTEM SERVICE TESTS  $HIBER (SUCC S.C.)    22-AUG-1978 04:05:02   VAX-11 MACRO X0.3-11               Page   5
1.0             CONDITION TABLES                                                                                                 (1)

                                     0008    76 	.SBTTL	CONDITION TABLES
                                     0008    77 ;
                                     0008    78 ;	***** CONDITION TABLES FOR HIBER SYSTEM SERVICE *****
                                     0008    79 ;
                                     0008    80 	COND	1,NOTARG,<ORDER OF WAKE & HIBER>,-
                                     0008    81 		  <WAKE BEFORE HIBER>,-
                                     0008    82 		  <HIBER BEFORE WAKE>,-
                                     0008    83
                                     004B    84 	COND	2,NULL
                                     004C    85
                                     004C    86 	COND	3,NULL
                                     004D    87
                                     004D    88 	COND	4,NULL
                                     004E    89
                                     004E    90 	COND	5,NULL
                                     004F    91
                                 00000000    92 	.PSECT	SATSSS39,RD,WRT,EXE
SATSSS39        SATS SYSTEM SERVICE TESTS  $HIBER (SUCC S.C.)    22-AUG-1978 04:05:02   VAX-11 MACRO X0.3-11               Page   6
1.0             TM_SETUP, TM_CLEANUP                                                                                             (1)

                                     0000    94 	.SBTTL	TM_SETUP, TM_CLEANUP
                                     0000    95 ;++
                                     0000    96 ; FUNCTIONAL DESCRIPTION:
                                     0000    97 ;
                                     0000    98 ;		TM_SETUP AND TM_CLEANUP ARE CALLED TO PERFORM
                                     0000    99 ; REQUIRED HOUSEKEEPING AT THE BEGINNING AND END, RESPECTIVELY, OF
                                     0000   100 ; TEST MODULE EXECUTION.
                                     0000   101 ;
                                     0000   102 ; CALLING SEQUENCE:
                                     0000   103 ;
                                     0000   104 ;	BSBW TM_SETUP   BSBW TM_CLEANUP
                                     0000   105 ;
                                     0000   106 ; INPUT PARAMETERS:
                                     0000   107 ;
                                     0000   108 ;	NONE
                                     0000   109 ;
                                     0000   110 ; IMPLICIT INPUTS:
                                     0000   111 ;
                                     0000   112 ;	NONE
                                     0000   113 ;
                                     0000   114 ; OUTPUT PARAMETERS:
                                     0000   115 ;
                                     0000   116 ;	NONE
                                     0000   117 ;
                                     0000   118 ; IMPLICIT OUTPUTS:
                                     0000   119 ;
                                     0000   120 ;	TM_SETUP:  COND TABLE INDEX REGISTERS (R2,3,4,5,6) CLEARED;
                                     0000   121 ;		   ALL PRIVILEGES ACQUIRED.
                                     0000   122 ;
                                     0000   123 ; COMPLETION CODES:
                                     0000   124 ;
                                     0000   125 ;	EFLAG SET TO NON-ZERO IF ERROR ENCOUNTERED.
                                     0000   126 ;
                                     0000   127 ; SIDE EFFECTS:
                                     0000   128 ;
                                     0000   129 ;	SS_CHECK AND ERR_EXIT MACROS CAUSE PREMATURE EXIT
                                     0000   130 ;	(VIA RSB) IF ERROR ENCOUNTERED.
                                     0000   131 ;
                                     0000   132 ;--
                                     0000   133
                                     0000   134
                                     0000   135
                                     0000   136 TM_SETUP::
                          52     D4  0000   137 	CLRL	R2			; INITIALIZE
                          53     D4  0002   138 	CLRL	R3			; .. CONDITION
                          54     D4  0004   139 	CLRL	R4			; .... TABLE
                          55     D4  0006   140 	CLRL	R5			; ...... INDEX
                          56     D4  0008   141 	CLRL	R6			; ........ REGISTERS
                          FFF3'  30  000A   142 	BSBW	MOD_MSG_PRINT		; PRINT TEST MODULE BEGIN MSG
   00000000'EF   00000000'EF     DE  000D   143 	MOVAL	TEST_MOD_SUCC,TMD_ADDR	; ASSUME END MSG WILL SHOW SUCCESS
            00   00000000'8F     F0  0018   144 	INSV	#SUCCESS,#0,#3,MOD_MSG_CODE ; ADJUST STATUS CODE FOR SUCCESS
   00000000'EF            03         001F
                                     0025   145 	MODE	TO,5$,KRNL		; KERNEL MODE TO ACCESS PHD
            59   00000000'9F     D0  0048   146 	MOVL	@#CTL$GL_PHD,R9		; GET PROCESS HEADER ADDRESS
   00000000'EF            69     DE  004F   147 	MOVAL	PHD$Q_PRIVMSK(R9),PRIVMASK ; GET PRIV MASK ADDRESS
                                     0056   148 	MODE	FROM,5$	; BACK TO USER MODE
                                     0057   149 	PRIV	ADD,ALL			; GET ALL PRIVILEGES
SATSSS39        SATS SYSTEM SERVICE TESTS  $HIBER (SUCC S.C.)    22-AUG-1978 04:05:02   VAX-11 MACRO X0.3-11               Page   7
1.0             TM_SETUP, TM_CLEANUP                                                                                             (1)

                                     0080   150 	$SETPRN_S TEST_MOD_NAME_D 	; SET PROCESS NAME
                                     008D   151 	SS_CHECK  NORMAL		; CHECK STATUS CODE RETURNED FROM SETPRN
                                 05  00BB   152 	RSB				; RETURN TO MAIN ROUTINE
                                     00BC   153 TM_CLEANUP::
                          FF41'  30  00BC   154 	BSBW	MOD_MSG_PRINT		; PRINT TEST MODULE END MSG
                                 05  00BF   155 	RSB				; RETURN TO MAIN ROUTINE
SATSSS39        SATS SYSTEM SERVICE TESTS  $HIBER (SUCC S.C.)    22-AUG-1978 04:05:02   VAX-11 MACRO X0.3-11               Page   8
1.0             CONDITION SUBROUTINES - SETUP AND CLEANUP                                                                        (1)

                                     00C0   157 	.SBTTL	CONDITION SUBROUTINES - SETUP AND CLEANUP
                                     00C0   158 ;++
                                     00C0   159 ; FUNCTIONAL DESCRIPTION:
                                     00C0   160 ;
                                     00C0   161 ;		CONDX AND CONDX_CLEANUP ARE SUBROUTINES WHICH ARE EXECUTED
                                     00C0   162 ; BEFORE AND AFTER THE VERIFY SUBROUTINE, RESPECTIVELY, WHENEVER A NEW
                                     00C0   163 ; CONDITION X VALUE IS SELECTED (SEE FUNCTIONAL DESCRIPTION OF SUCCOMMON
                                     00C0   164 ; ROUTINE IN SUCCOMMON.MAR). ANY SETUP FUNCTION PARTICULAR TO THE
                                     00C0   165 ; CONDITION X TABLE IS INCLUDED IN THE CONDX SUBROUTINE AND CLEANED
                                     00C0   166 ; UP, IF NECESSARY, IN THE CONDX_CLEANUP SUBROUTINE. THIS INCLUDES,
                                     00C0   167 ; ESPECIALLY, CODE TO DETECT CONFLICTS AMONG CURRENT ENTRIES IN TWO
                                     00C0   168 ; OR MORE CONDITION TABLES. IF A CONFLICT IS DETECTED, A NON-ZERO
                                     00C0   169 ; VALUE IS STORED INTO CONFLICT, WHICH CAUSES THE CALLING ROUTINE
                                     00C0   170 ; (SUCCOMMON) TO SKIP THE CURRENT ENTRY IN THE CONDITION X TABLE.
                                     00C0   171 ;
                                     00C0   172 ; CALLING SEQUENCE:
                                     00C0   173 ;
                                     00C0   174 ;	BSBW CONDX   BSBW CONDX_CLEANUP
                                     00C0   175 ;	  WHERE X = 1,2,3,4,5
                                     00C0   176 ;
                                     00C0   177 ; INPUT PARAMETERS:
                                     00C0   178 ;
                                     00C0   179 ;	CONFLICT = 0
                                     00C0   180 ;
                                     00C0   181 ; IMPLICIT INPUTS:
                                     00C0   182 ;
                                     00C0   183 ;	R2,3,4,5,6 CONTAIN CURRENT CONDITION TABLE INDEX VALUES
                                     00C0   184 ;	  FOR COND TABLES 1,2,3,4,5, RESPECTIVELY.
                                     00C0   185 ;
                                     00C0   186 ; OUTPUT PARAMETERS:
                                     00C0   187 ;
                                     00C0   188 ;	CONFLICT SET TO NON-ZERO IF COND TABLE CONFLICT DETECTED.
                                     00C0   189 ;
                                     00C0   190 ; IMPLICIT OUTPUTS:
                                     00C0   191 ;
                                     00C0   192 ;	R2,3,4,5,6 PRESERVED
                                     00C0   193 ;
                                     00C0   194 ; COMPLETION CODES:
                                     00C0   195 ;
                                     00C0   196 ;	NONE
                                     00C0   197 ;
                                     00C0   198 ; SIDE EFFECTS:
                                     00C0   199 ;
                                     00C0   200 ;	NONE
                                     00C0   201 ;
                                     00C0   202 ;--
                                     00C0   203
                                     00C0   204
                                     00C0   205
                                     00C0   206 COND1::
                                 05  00C0   207 	RSB				; RETURN TO MAIN ROUTINE
                                     00C1   208 COND1_CLEANUP::
                                 05  00C1   209 	RSB				; RETURN TO MAIN ROUTINE
                                     00C2   210 COND2::
                                 05  00C2   211 	RSB				; RETURN TO MAIN ROUTINE
                                     00C3   212 COND2_CLEANUP::
                                 05  00C3   213 	RSB				; RETURN TO MAIN ROUTINE
SATSSS39        SATS SYSTEM SERVICE TESTS  $HIBER (SUCC S.C.)    22-AUG-1978 04:05:02   VAX-11 MACRO X0.3-11               Page   9
1.0             CONDITION SUBROUTINES - SETUP AND CLEANUP                                                                        (1)

                                     00C4   214 COND3::
                                 05  00C4   215 	RSB				; RETURN TO MAIN ROUTINE
                                     00C5   216 COND3_CLEANUP::
                                 05  00C5   217 	RSB				; RETURN TO MAIN ROUTINE
                                     00C6   218 COND4::
                                 05  00C6   219 	RSB				; RETURN TO MAIN ROUTINE
                                     00C7   220 COND4_CLEANUP::
                                 05  00C7   221 	RSB				; RETURN TO MAIN ROUTINE
                                     00C8   222 COND5::
                                 05  00C8   223 	RSB				; RETURN TO MAIN ROUTINE
                                     00C9   224 COND5_CLEANUP::
                                 05  00C9   225 	RSB				; RETURN TO MAIN ROUTINE
SATSSS39        SATS SYSTEM SERVICE TESTS  $HIBER (SUCC S.C.)    22-AUG-1978 04:05:02   VAX-11 MACRO X0.3-11               Page  10
1.0             FORM_CONDS                                                                                                       (1)

                                     00CA   227 	.SBTTL	FORM_CONDS
                                     00CA   228 ;++
                                     00CA   229 ; FUNCTIONAL DESCRIPTION:
                                     00CA   230 ;
                                     00CA   231 ; 		FORM_CONDS FORMATS AND PRINTS INFORMATION ABOUT
                                     00CA   232 ;  THE CURRENT ELEMENT IN EACH OF THE CONDITION TABLES.
                                     00CA   233 ;
                                     00CA   234 ; CALLING SEQUENCE:
                                     00CA   235 ;
                                     00CA   236 ;	BSBW FORM_CONDS
                                     00CA   237 ;
                                     00CA   238 ; INPUT PARAMETERS:
                                     00CA   239 ;
                                     00CA   240 ;	NONE
                                     00CA   241 ;
                                     00CA   242 ; IMPLICIT INPUTS:
                                     00CA   243 ;
                                     00CA   244 ;	R2,3,4,5,6 CONTAIN CURRENT CONDITION TABLE INDEX VALUES
                                     00CA   245 ;	  FOR COND TABLES 1,2,3,4,5, RESPECTIVELY.
                                     00CA   246 ;	FOR X = 1,2,3,4,5 :
                                     00CA   247 ;		CONDX_T - TITLE TEXT FOR CONDX TABLE
                                     00CA   248 ;		CONDX_TAB - ELEMENT TEXT FOR CONDX TABLE
                                     00CA   249 ;		CONDX_C - CONTEXT OF THE CONDX TABLE
                                     00CA   250 ;		CONDX_E - DATA ELEMENTS OF THE CONDX TABLE
                                     00CA   251 ;
                                     00CA   252 ; OUTPUT PARAMETERS:
                                     00CA   253 ;
                                     00CA   254 ;	NONE
                                     00CA   255 ;
                                     00CA   256 ; IMPLICIT OUTPUTS:
                                     00CA   257 ;
                                     00CA   258 ;	NONE
                                     00CA   259 ;
                                     00CA   260 ; COMPLETION CODES:
                                     00CA   261 ;
                                     00CA   262 ;	NONE
                                     00CA   263 ;
                                     00CA   264 ; SIDE EFFECTS:
                                     00CA   265 ;
                                     00CA   266 ;	NONE
                                     00CA   267 ;
                                     00CA   268 ;--
                                     00CA   269
                                     00CA   270
                                     00CA   271
                                     00CA   272 FORM_CONDS::
                                     00CA   273 	$FAO_S	MSG1_INP_CTL,FAO_LEN,FAO_DESC,TESTNUM
                                     00E9   274 					; FORMAT CONDITIONS HEADER MSG
                          FF14'  30  00E9   275 	BSBW	OUTPUT_MSG		; ... AND PRINT IT
            14            00     91  00EC   276 	CMPB	#COND1_C,#NULL		; IS CONDITION 1 NULL ?
                          03     12  00EF   277 	BNEQU	10$			; NO -- CONTINUE
                          00BF   31  00F1   278 	BRW	FORM_CONDSX		; YES -- SUBROUTINE IS FINISHED
                                     00F4   279 10$:
   00000000'EF   00000008'EF     DE  00F4   280 	MOVAL	COND1_T,MSG_A		; SAVE ADDRESS OF CONDITION 1 TITLE FOR FAO
   00000000'EF   0000001F'EF42   D0  00FF   281 	MOVL	COND1_TAB[R2],MSG_B 	; SAVE ADDR OF COND 1 CURR TEXT ELT FOR FAO
   00000000'EF            00     90  010B   282 	MOVB	#COND1_C,MSG_CTXT 	; SAVE CONDITION 1 CONTEXT FOR FAO
                                     0112   283 	MOV_VAL	COND1_C,COND1_E[R2],MSG_DATA1 ; GIVE COND 1 DATA VALUE TO FAO
SATSSS39        SATS SYSTEM SERVICE TESTS  $HIBER (SUCC S.C.)    22-AUG-1978 04:05:02   VAX-11 MACRO X0.3-11               Page  11
1.0             FORM_CONDS                                                                                                       (1)

                          FEEB'  30  0112   284 	BSBW	WRITE_MSG2		; FORMAT AND WRITE CONDITION 1 MSG
            14            14     91  0115   285 	CMPB	#COND2_C,#NULL		; IS CONDITION 2 NULL ?
                          03     12  0118   286 	BNEQU	20$			; NO -- CONTINUE
                          0096   31  011A   287 	BRW	FORM_CONDSX		; YES -- SUBROUTINE IS FINISHED
                                     011D   288 20$:
   00000000'EF   0000004B'EF     DE  011D   289 	MOVAL	COND2_T,MSG_A		; SAVE ADDRESS OF CONDITION 2 TITLE FOR FAO
   00000000'EF   0000004B'EF43   D0  0128   290 	MOVL	COND2_TAB[R3],MSG_B 	; SAVE ADDR OF COND 2 CURR TEXT ELT FOR FAO
   00000000'EF            14     90  0134   291 	MOVB	#COND2_C,MSG_CTXT 	; SAVE CONDITION 2 CONTEXT FOR FAO
                                     013B   292 	MOV_VAL	COND2_C,COND2_E[R3],MSG_DATA1 ; GIVE COND 2 DATA VALUE TO FAO
                          FEC2'  30  013B   293 	BSBW	WRITE_MSG2		; FORMAT AND WRITE CONDITION 2 MSG
            14            14     91  013E   294 	CMPB	#COND3_C,#NULL		; IS CONDITION 3 NULL ?
                          03     12  0141   295 	BNEQU	30$			; NO -- CONTINUE
                          006D   31  0143   296 	BRW	FORM_CONDSX		; YES -- SUBROUTINE IS FINISHED
                                     0146   297 30$:
   00000000'EF   0000004C'EF     DE  0146   298 	MOVAL	COND3_T,MSG_A		; SAVE ADDRESS OF CONDITION 3 TITLE FOR FAO
   00000000'EF   0000004C'EF44   D0  0151   299 	MOVL	COND3_TAB[R4],MSG_B 	; SAVE ADDR OF COND 3 CURR TEXT ELT FOR FAO
   00000000'EF            14     90  015D   300 	MOVB	#COND3_C,MSG_CTXT 	; SAVE CONDITION 3 CONTEXT FOR FAO
                                     0164   301 	MOV_VAL	COND3_C,COND3_E[R4],MSG_DATA1 ; GIVE COND 3 DATA VALUE TO FAO
                          FE99'  30  0164   302 	BSBW	WRITE_MSG2		; FORMAT AND WRITE CONDITION 3 MSG
            14            14     91  0167   303 	CMPB	#COND4_C,#NULL		; IS CONDITION 4 NULL ?
                          47     13  016A   304 	BEQLU	FORM_CONDSX		; YES -- SUBROUTINE IS FINISHED
   00000000'EF   0000004D'EF     DE  016C   305 	MOVAL	COND4_T,MSG_A		; SAVE ADDRESS OF CONDITION 4 TITLE FOR FAO
   00000000'EF   0000004D'EF45   D0  0177   306 	MOVL	COND4_TAB[R5],MSG_B 	; SAVE ADDR OF COND 4 CURR TEXT ELT FOR FAO
   00000000'EF            14     90  0183   307 	MOVB	#COND4_C,MSG_CTXT 	; SAVE CONDITION 4 CONTEXT FOR FAO
                                     018A   308 	MOV_VAL	COND4_C,COND4_E[R5],MSG_DATA1 ; GIVE COND 4 DATA VALUE TO FAO
                          FE73'  30  018A   309 	BSBW	WRITE_MSG2		; FORMAT AND WRITE CONDITION 4 MSG
            14            14     91  018D   310 	CMPB	#COND5_C,#NULL		; IS CONDITION 5 NULL ?
                          21     13  0190   311 	BEQLU	FORM_CONDSX		; YES -- SUBROUTINE IS FINISHED
   00000000'EF   0000004E'EF     DE  0192   312 	MOVAL	COND5_T,MSG_A		; SAVE ADDRESS OF CONDITION 5 TITLE FOR FAO
   00000000'EF   0000004E'EF46   D0  019D   313 	MOVL	COND5_TAB[R6],MSG_B 	; SAVE ADDR OF COND 5 CURR TEXT ELT FOR FAO
   00000000'EF            14     90  01A9   314 	MOVB	#COND5_C,MSG_CTXT 	; SAVE CONDITION 5 CONTEXT FOR FAO
                                     01B0   315 	MOV_VAL	COND5_C,COND5_E[R6],MSG_DATA1 ; GIVE COND 5 DATA VALUE TO FAO
                          FE4D'  30  01B0   316 	BSBW	WRITE_MSG2		; FORMAT AND WRITE CONDITION 5 MSG
                                     01B3   317 FORM_CONDSX:
                                 05  01B3   318 	RSB				; RETURN TO CALLER
SATSSS39        SATS SYSTEM SERVICE TESTS  $HIBER (SUCC S.C.)    22-AUG-1978 04:05:02   VAX-11 MACRO X0.3-11               Page  12
1.0             VERIFY                                                                                                           (1)

                                     01B4   320 	.SBTTL	VERIFY
                                     01B4   321 ;++
                                     01B4   322 ; FUNCTIONAL DESCRIPTION:
                                     01B4   323 ;
                                     01B4   324 ;		VERIFY IS CALLED ONCE FOR EACH COMBINATION OF CONDITION
                                     01B4   325 ; TABLE VALUES (AS DETERMINED BY THE INDEX REGISTERS R2,3,4,5,6 FOR
                                     01B4   326 ; COND TABLES 1,2,3,4,5, RESPECTIVELY). VERIFY ESTABLISHES THE CONDITIONS
                                     01B4   327 ; SPECIFIED BY THE COND TABLES AND ISSUES THE SUBJECT SYSTEM SERVICE
                                     01B4   328 ; ($HIBER). THEN, THE SUCCESSFUL OPERATION OF THE SERVICE IS VERIFIED
                                     01B4   329 ; BY EXAMINING THE STATUS CODE RETURNED, THE VALUES FOR RETURN ARGUMENTS
                                     01B4   330 ; AND THE FUNCTIONALITY PERFORMED. THE EXAMINATIONS TAKE THE FORM OF
                                     01B4   331 ; COMPARISONS AGAINST EXPECTED VALUES. ANY FAILING COMPARISON CAUSES AN
                                     01B4   332 ; ERR_EXIT MACRO TO BE EXECUTED (EITHER DIRECTLY, OR INDIRECTLY,
                                     01B4   333 ; THROUGH THE SS_CHECK MACRO); ERR_EXIT SETS EFLAG TO NON-ZERO,
                                     01B4   334 ; PRINTS ERROR MESSAGES AND CAUSES AN IMMEDIATE RSB TO CALLER.
                                     01B4   335 ; WHEN ERR_EXIT IS EXECUTED, FURTHER CALLS TO VERIFY ARE SUPPRESSED,
                                     01B4   336 ; AND, AFTER EXECUTING CLEANUP SUBROUTINES, THE IMAGE EXITS.
                                     01B4   337 ;
                                     01B4   338 ; CALLING SEQUENCE:
                                     01B4   339 ;
                                     01B4   340 ;	BSBW VERIFY
                                     01B4   341 ;
                                     01B4   342 ; INPUT PARAMETERS:
                                     01B4   343 ;
                                     01B4   344 ;	NONE
                                     01B4   345 ;
                                     01B4   346 ; IMPLICIT INPUTS:
                                     01B4   347 ;
                                     01B4   348 ;	R2,3,4,5,6 CONTAIN CURRENT CONDITION TABLE INDEX VALUES
                                     01B4   349 ;	  FOR COND TABLES 1,2,3,4,5, RESPECTIVELY.
                                     01B4   350 ;	FOR X = 1,2,3,4,5 :
                                     01B4   351 ;		CONDX_E - ADDRESS OF TABLE OF DATA VALUES FOR CONDX
                                     01B4   352 ;		  TABLE. IF THE CONTEXT OF TABLE X IS A SYSTEM SERVICE
                                     01B4   353 ;		  ARGUMENT, THE ARGUMENT NAME MAY BE USED AS A SYNONYM
                                     01B4   354 ;		  FOR CONDX_E.
                                     01B4   355 ;
                                     01B4   356 ; OUTPUT PARAMETERS:
                                     01B4   357 ;
                                     01B4   358 ;	NONE
                                     01B4   359 ;
                                     01B4   360 ; IMPLICIT OUTPUTS:
                                     01B4   361 ;
                                     01B4   362 ;	VERIFY HAS NO OUTPUT. SINCE ITS PURPOSE IS TO TEST FOR ERRORS,
                                     01B4   363 ;	IT MERELY RETURNS TO CALLER NORMALLY AFTER THE TESTS, PROVIDING
                                     01B4   364 ;	ALL WERE SUCCESSFUL; IF AN ERROR IS DISCOVERED, RETURN IS VIA
                                     01B4   365 ;	AN ERR_EXIT OR SS_CHECK MACRO, BOTH OF WHICH DOCUMENT DETECTED
                                     01B4   366 ;	ERRORS.
                                     01B4   367 ;
                                     01B4   368 ; COMPLETION CODES:
                                     01B4   369 ;
                                     01B4   370 ;	EFLAG SET TO NON-ZERO IF ERROR ENCOUNTERED.
                                     01B4   371 ;
                                     01B4   372 ; SIDE EFFECTS:
                                     01B4   373 ;
                                     01B4   374 ;	SS_CHECK AND ERR_EXIT MACROS CAUSE PREMATURE EXIT
                                     01B4   375 ;	(VIA RSB) IF ERROR ENCOUNTERED.
                                     01B4   376 ;
SATSSS39        SATS SYSTEM SERVICE TESTS  $HIBER (SUCC S.C.)    22-AUG-1978 04:05:02   VAX-11 MACRO X0.3-11               Page  13
1.0             VERIFY                                                                                                           (1)

                                     01B4   377 ;--
                                     01B4   378
                                     01B4   379
                                     01B4   380
                                     01B4   381 VERIFY::
                 00000000'EF     95  01B4   382 	TSTB	CFLAG			; SHOULD CONDITIONS BE PRINTED ?
                          03     13  01BA   383 	BEQL	5$			; NO -- CONTINUE
                          FF0B   30  01BC   384 	BSBW	FORM_CONDS		; YES -- FMT & PRINT ALL CONDS FOR THIS T.C.
                                     01BF   385 5$:
                          52     95  01BF   386 	TSTB	R2			; FIRST CONDITION 1 ELEMENT ?
                          03     13  01C1   387 	BEQL	40$			; YES -- PROCESS IT
                          0190   31  01C3   388 	BRW	50$			; NO -- GO PROCESS 2ND ELEMENT
                                     01C6   389 40$:
                                     01C6   390 	$WAKE_S				; A SERIES OF WAKES BEFORE HIBER
                                     01D1   391 	SS_CHECK NORMAL			; CHECK FOR NORMAL RETURN
                                     01FF   392 	$WAKE_S				; ONLY ONE WAKE SHOULD REMAIN OUTSTANDING
                                     020A   393 	SS_CHECK NORMAL			; .....
                                     0238   394 	$WAKE_S				; .....
                                     0243   395 	SS_CHECK NORMAL			; .....
                                     0271   396 	$WAKE_S				; .....
                                     027C   397 	SS_CHECK NORMAL			; .....
                                     02AA   398 	$WAKE_S				; .....
                                     02B5   399 	SS_CHECK NORMAL			; .....
                                     02E3   400 ;
                                     02E3   401 ; ****** SYSTEM SERVICE CALL WHICH IS THE SUBJECT OF THIS TEST CASE ******
                                     02E3   402 ;
                                     02E3   403 	$HIBER_S
   00000000'8F            50     D1  02EA   404 	CMPL	R0,#SS$_NORMAL		; DID IT RETURN NORMALLY ?
                          03     12  02F1   405 	BNEQU	10$			; NO -- PROCESS ERROR
                          0121   31  02F3   406 	BRW	VERIFYX			; YES -- TIME TO LEAVE
                                     02F6   407 10$:
   00000000'EF   00000000'8F     D0  02F6   408 	MOVL	#SS$_NORMAL,EXPV 	; LOAD UP EXPECTED AND
   00000000'EF            50     D0  0301   409 	MOVL	R0,RECV			; ... RECEIVED VALUES, THEN EXIT
                                     0308   410 	ERR_EXIT LONG,<INCORRECT STATUS CODE RETURNED FROM HIBER>
                                     0356   411 50$:
                                     0356   412 	$SETAST_S	#1		; ENABLE USER MODE AST'S
                                     035F   413 	$SETIMR_S ,DAYTIM_STM,WAKAST 	; SCHEDULE AST IN 15 SECONDS
                                     0376   414 	SS_CHECK NORMAL			; CHECK SETIMR RETURN
                                     03A4   415 ;
                                     03A4   416 ; ****** SYSTEM SERVICE CALL WHICH IS THE SUBJECT OF THIS TEST CASE ******
                                     03A4   417 ;
                                     03A4   418 	$HIBER_S
   00000000'8F            50     D1  03AB   419 	CMPL	R0,#SS$_NORMAL		; DID IT RETURN NORMALLY ?
                          03     12  03B2   420 	BNEQU	60$			; NO -- PROCESS ERROR
                          0060   31  03B4   421 	BRW	VERIFYX			; YES -- TIME TO LEAVE
                                     03B7   422 60$:
   00000000'EF   00000000'8F     D0  03B7   423 	MOVL	#SS$_NORMAL,EXPV 	; LOAD UP EXPECTED AND
   00000000'EF            50     D0  03C2   424 	MOVL	R0,RECV			; ... RECEIVED VALUES, THEN EXIT
                                     03C9   425 	ERR_EXIT LONG,<INCORRECT STATUS CODE RETURNED FROM HIBER>
                                     0417   426 VERIFYX:
                                 05  0417   427 	RSB				; RETURN TO CALLER
SATSSS39        SATS SYSTEM SERVICE TESTS  $HIBER (SUCC S.C.)    22-AUG-1978 04:05:02   VAX-11 MACRO X0.3-11               Page  14
1.0             VFY_CLEANUP                                                                                                      (1)

                                     0418   429 	.SBTTL	VFY_CLEANUP
                                     0418   430 ;++
                                     0418   431 ; FUNCTIONAL DESCRIPTION:
                                     0418   432 ;
                                     0418   433 ;		VFY_CLEANUP EXECUTES SYSTEM SERVICES TO UNDO THE
                                     0418   434 ; EFFECT OF THOSE ISSUED IN THE VERIFY SUBROUTINE. VFY_CLEANUP MUST
                                     0418   435 ; ASSUME THAT VERIFY MAY NOT HAVE EXECUTED IN ITS ENTIRETY (IF AN
                                     0418   436 ; ERROR IS FOUND). ALSO, VFY_CLEANUP MAY ISSUE SS_CHECK OR ERR_EXIT
                                     0418   437 ; ONLY AFTER PERFORMING ALL OF ITS CLEANUP OPERATIONS; THIS IS REQUIRED
                                     0418   438 ; IN THE EVENT THAT VFY_CLEANUP IS CALLED DURING ERROR PROCESSING,
                                     0418   439 ; WHEN PERFORMING THE REQUIRED CLEANUP IS MORE IMPORTANT THAN
                                     0418   440 ; POSSIBLY DISCOVERING A SECOND ERROR.
                                     0418   441 ;
                                     0418   442 ; CALLING SEQUENCE:
                                     0418   443 ;
                                     0418   444 ;	BSBW VFY_CLEANUP
                                     0418   445 ;
                                     0418   446 ; INPUT PARAMETERS:
                                     0418   447 ;
                                     0418   448 ;	NONE
                                     0418   449 ;
                                     0418   450 ; IMPLICIT INPUTS:
                                     0418   451 ;
                                     0418   452 ;	R2,3,4,5,6 CONTAIN CURRENT CONDITION TABLE INDEX VALUES
                                     0418   453 ;	  FOR COND TABLES 1,2,3,4,5, RESPECTIVELY.
                                     0418   454 ;	FOR X = 1,2,3,4,5 :
                                     0418   455 ;		CONDX_E - ADDRESS OF TABLE OF DATA VALUES FOR CONDX
                                     0418   456 ;		  TABLE. IF THE CONTEXT OF TABLE X IS A SYSTEM SERVICE
                                     0418   457 ;		  ARGUMENT, THE ARGUMENT NAME MAY BE USED AS A SYNONYM
                                     0418   458 ;		  FOR CONDX_E.
                                     0418   459 ;
                                     0418   460 ; OUTPUT PARAMETERS:
                                     0418   461 ;
                                     0418   462 ;	NONE
                                     0418   463 ;
                                     0418   464 ; IMPLICIT OUTPUTS:
                                     0418   465 ;
                                     0418   466 ;	NONE
                                     0418   467 ;
                                     0418   468 ; COMPLETION CODES:
                                     0418   469 ;
                                     0418   470 ;	EFLAG SET TO NON-ZERO IF ERROR ENCOUNTERED.
                                     0418   471 ;
                                     0418   472 ; SIDE EFFECTS:
                                     0418   473 ;
                                     0418   474 ;	SS_CHECK AND ERR_EXIT MACROS CAUSE PREMATURE EXIT
                                     0418   475 ;	(VIA RSB) IF ERROR ENCOUNTERED.
                                     0418   476 ;
                                     0418   477 ;--
                                     0418   478
                                     0418   479
                                     0418   480
                                     0418   481 VFY_CLEANUP::
                                 05  0418   482 	RSB				; RETURN TO CALLER
SATSSS39        SATS SYSTEM SERVICE TESTS  $HIBER (SUCC S.C.)    22-AUG-1978 04:05:02   VAX-11 MACRO X0.3-11               Page  15
1.0             WAKAST                                                                                                           (1)

                                     0419   484 	.SBTTL	WAKAST
                                     0419   485 WAKAST:
                               0000  0419   486 	.WORD	0			; ENTRY MASK TO WAKAST
                          0001   30  041B   487 	BSBW	10$			; EXECUTE AST -- SS_CHECK MUST BE IN SUBRTN
                                 04  041E   488 	RET				; RETURN FROM AST
                                     041F   489 10$:
                                     041F   490 	$WAKE_S				; WAKE UP HIBERNATING TEST MODULE
                                     042A   491 	SS_CHECK NORMAL			; CHECK WAKE RETURN
                                 05  0458   492 	RSB				; RETURN TO CALLER
                                     0459   493 	.END
SATSSS39        SATS SYSTEM SERVICE TESTS  $HIBER (SUCC S.C.)    22-AUG-1978 04:05:02   VAX-11 MACRO X0.3-11               Page  16
SYMBOL TABLE                                                                                                                     (1)

$$$$           = 000003D3 R     05   GBL...         = 00000000            PHD$L_R9         000000AC
$$$CHARS       = 00000029            LONG           = 00000004  G         PHD$L_REFERFLT   00000014
$$$CHARS1      = 00000011            MOD_MSG_CODE     ********   X   05   PHD$L_SSP        00000080
$$$CHARS2      = 00000011            MOD_MSG_PRINT    ********   X   05   PHD$L_USP        00000084
$$$CHARS3      = 00000000            MSG1_INP_CTL     00000019 R     03   PHD$L_WSL        00000118
$$$CHARS4      = 00000000            MSG3_ERR_CTL     00000039 RG    03   PHD$M_DALCSTX  = 00000002
$$$CHARS5      = 00000000            MSG_A            ********   X   05   PHD$M_PFMFLG   = 00000001
$$$COND_A      = 00000001            MSG_B            ********   X   05   PHD$M_WSPEAKCHK= 00000004
$$$STRINGS     = 00000001            MSG_CTXT         ********   X   05   PHD$Q_PRIVMSK    00000000
$$$STRINGS2    = 00000005            NOTARG         = 00000000  G         PHD$S_ASTLVL   = 00000008
$$T2           = 00000004            NULL           = 00000014  G         PHD$S_P0LR     = 00000018
BIT...         = 00000020            ONES             ********   X   05   PHD$V_ASTLVL   = 00000018
BYTE           = 00000001  G         OUTPUT_MSG       ********   X   05   PHD$V_DALCSTX  = 00000001
CFLAG            ********   X   05   PCV              ********   X   05   PHD$V_P0LR     = 00000000
CHMRTN           ********   X   05   PHD$B_ASTLVL     000000CF            PHD$V_PFMFLG   = 00000000
CHM_CONT         ********   X   05   PHD$B_DFPFC      00000038            PHD$V_WSPEAKCHK= 00000002
COMP_SC          ********   X   05   PHD$B_PAGFIL     0000001F            PHD$W_ASTLM      00000044
COND1            000000C0 RG    05   PHD$B_PGTBPFC    00000039            PHD$W_BAK        00000048
COND1_C        = 00000000            PHD$C_LENGTH     00000118            PHD$W_DFWSCNT    0000001A
COND1_CLEANUP    000000C1 RG    05   PHD$C_PHDPAGCTX= 00000008            PHD$W_EMPTPG     000000D8
COND1_E          0000004B R     04   PHD$K_LENGTH     00000118            PHD$W_EXTDYNWS   00000076
COND1_H          0000001E RG    04   PHD$L_BIOCNT     00000054            PHD$W_FILLM      00000060
COND1_T          00000008 R     04   PHD$L_CPULIM     00000058            PHD$W_FLAGS      0000003A
COND1_TAB        0000001F R     04   PHD$L_CPUTIM     0000003C            PHD$W_PHVINDEX   00000046
COND2            000000C2 RG    05   PHD$L_DIOCNT     00000050            PHD$W_PRCLM      00000042
COND2_C        = 00000014            PHD$L_ESP        0000007C            PHD$W_PST        00000020
COND2_CLEANUP    000000C3 RG    05   PHD$L_FREP0VA    00000028            PHD$W_PSTBASMAX  0000004A
COND2_H          0000004B RG    04   PHD$L_FREP1VA    00000030            PHD$W_PSTFREE    00000026
COND2_T          0000004B R     04   PHD$L_FREPTECNT  0000002C            PHD$W_PSTLAST    00000024
COND2_TAB        0000004B R     04   PHD$L_KSP        00000078            PHD$W_PTCNTACT   00000070
COND3            000000C4 RG    05   PHD$L_P0BR       000000C8            PHD$W_PTCNTLCK   0000006C
COND3_C        = 00000014            PHD$L_P0LRASTL   000000CC            PHD$W_PTCNTMAX   00000072
COND3_CLEANUP    000000C5 RG    05   PHD$L_P1BR       000000D0            PHD$W_PTCNTVAL   0000006E
COND3_H          0000004C RG    04   PHD$L_P1LR       000000D4            PHD$W_QUANT      00000040
COND3_T          0000004C R     04   PHD$L_PAGEFLTS   0000004C            PHD$W_TQLM       00000062
COND3_TAB        0000004C R     04   PHD$L_PAGFIL     0000001C            PHD$W_WSAUTH     0000000A
COND4            000000C6 RG    05   PHD$L_PC         000000C0            PHD$W_WSDYN      0000000E
COND4_C        = 00000014            PHD$L_PCB        00000078            PHD$W_WSFLUID    00000074
COND4_CLEANUP    000000C7 RG    05   PHD$L_PGFLCNT    00000034            PHD$W_WSLAST     00000012
COND4_H          0000004D RG    04   PHD$L_PGFLQUOTA  0000005C            PHD$W_WSLIST     00000008
COND4_T          0000004D R     04   PHD$L_PSL        000000C4            PHD$W_WSLOCK     0000000C
COND4_TAB        0000004D R     04   PHD$L_PSTBASOFF  00000020            PHD$W_WSLX       0000004A
COND5            000000C8 RG    05   PHD$L_PTWSLELCK  00000064            PHD$W_WSNEXT     00000010
COND5_C        = 00000014            PHD$L_PTWSLEVAL  00000068            PHD$W_WSQUOTA    00000018
COND5_CLEANUP    000000C9 RG    05   PHD$L_R0         00000088            PRIVMASK         00000000 R     04
COND5_H          0000004E RG    04   PHD$L_R1         0000008C            PROCESS_ERR      ********   X   05
COND5_T          0000004E R     04   PHD$L_R10        000000B0            PRV$V_ALLSPOOL = 00000004
COND5_TAB        0000004E R     04   PHD$L_R11        000000B4            PRV$V_BUGCHK   = 00000017
CTL$GL_PHD       ********   X   05   PHD$L_R12        000000B8            PRV$V_CMEXEC   = 00000001
DAYTIM_STM       00000051 R     03   PHD$L_R13        000000BC            PRV$V_CMKRNL   = 00000000
DESC           = 00000010  G         PHD$L_R2         00000090            PRV$V_DETACH   = 00000005
EFLAG            ********   X   05   PHD$L_R3         00000094            PRV$V_DIAGNOSE = 00000006
EXPV             ********   X   05   PHD$L_R4         00000098            PRV$V_EXQUOTA  = 00000013
FAO_DESC         ********   X   05   PHD$L_R5         0000009C            PRV$V_GROUP    = 00000008
FAO_LEN          ********   X   05   PHD$L_R6         000000A0            PRV$V_GRPNAM   = 00000003
FORM_CONDS       000000CA RG    05   PHD$L_R7         000000A4            PRV$V_LOG_IO   = 00000007
FORM_CONDSX      000001B3 R     05   PHD$L_R8         000000A8            PRV$V_MOUNT    = 00000011
SATSSS39        SATS SYSTEM SERVICE TESTS  $HIBER (SUCC S.C.)    22-AUG-1978 04:05:02   VAX-11 MACRO X0.3-11               Page  17
SYMBOL TABLE                                                                                                                     (1)

PRV$V_NETMBX   = 00000014
PRV$V_NOACNT   = 00000009
PRV$V_OPER     = 00000012
PRV$V_PHY_IO   = 00000016
PRV$V_PRMCEB   = 0000000A
PRV$V_PRMGBL   = 00000018
PRV$V_PRMMBX   = 0000000B
PRV$V_PSWAPM   = 0000000C
PRV$V_SETPRI   = 0000000D
PRV$V_SETPRV   = 0000000E
PRV$V_SYSGBL   = 00000019
PRV$V_SYSNAM   = 00000002
PRV$V_TMPMBX   = 0000000F
PRV$V_VOLPRO   = 00000015
PRV$V_WORLD    = 00000010
QUAD           = 00000008  G
RECV             ********   X   05
REST_REGS        ********   X   05
SAVE_REGS        ********   X   05
SS$_NORMAL       ********   X   05
SUCCESS          ********   X   05
SYS$CMKRNL       ********   X   05
SYS$FAO          ********   X   05
SYS$HIBER        ********   X   05
SYS$SETAST       ********   X   05
SYS$SETIMR       ********   X   05
SYS$SETPRN       ********   X   05
SYS$WAKE         ********   X   05
TESTNUM          ********   X   05
TEST_MOD_NAME    00000000 RG    03
TEST_MOD_NAME_D  00000009 R     03
TEST_MOD_SUCC    ********   X   05
TMD_ADDR         ********   X   05
TM_CLEANUP       000000BC RG    05
TM_SETUP         00000000 RG    05
VERIFY           000001B4 RG    05
VERIFYX          00000417 R     05
VFY_CLEANUP      00000418 RG    05
WAKAST           00000419 R     05
WORD           = 00000002  G
WRITE_MSG2       ********   X   05


PROGRAM SECTION SYNOPSIS

.  ABS  .        00000000      00     NOPIC   USR   CON   ABS   LCL NOSHR NOEXE NORD  NOWRT BYTE
. BLANK .        00000000      01     NOPIC   USR   CON   REL   LCL NOSHR   EXE   RD    WRT BYTE
$ABS$            0000011C      02     NOPIC   USR   CON   ABS   LCL NOSHR   EXE   RD    WRT BYTE
RODATA           00000059      03     NOPIC   USR   CON   REL   LCL NOSHR NOEXE   RD  NOWRT LONG
RWDATA           0000004F      04     NOPIC   USR   CON   REL   LCL NOSHR NOEXE   RD    WRT LONG
SATSSS39         00000459      05     NOPIC   USR   CON   REL   LCL NOSHR   EXE   RD    WRT BYTE


THERE WERE NO ERRORS OR WARNINGS.
15598. BYTES LEFT IN FREE MEMORY POOL.
636. BYTES OF RECLAIMED MEMORY.
OBJ$:SATSSS39,LIS$:SATSSS39/-SP=EXECML$/ML,LIB$:SYSTST.MLB/ML,SRC$:SATSSS39
SATSSS39        SATS SYSTEM SERVICE TESTS  $HIBER (SUCC S.C.)    22-AUG-1978 04:05:02   VAX-11 MACRO X0.3-11               Page  18
PROGRAM SECTION SYNOPSIS                                                                                                         (1)

36 MLB DIR RDS - 616 GETS TO DEFINE 25 MACROS. 27 INTER. FILE WRITES.
