SATSSF01        - SATS SYSTEM SERVICE TESTS  (FAILING S.C.)      22-AUG-1978 03:38:34   VAX-11 MACRO X0.3-11               Page   0
TABLE OF CONTENTS

   (1)      46  DECLARATIONS
   (1)     178  SATSSF01
   (1)     263  SFDEF10
   (1)     265  SFDEF11
   (1)     267  SFDEF12
   (1)     269  SFDEF13
   (1)     271
   (1)     273  SFDLC10
   (1)     274  SFDLC11
   (1)     275
   (1)     277  SFSXV40
   (1)     279  SFSXV41
   (1)     280  SFSXV42
   (1)     281
   (1)     321  EXECUTE & CLEANUP
   (1)     333  TC_CONTROL
   (1)     414  SUBROUTINES
SATSSF01        - SATS SYSTEM SERVICE TESTS  (FAILING S.C.)      22-AUG-1978 03:38:34   VAX-11 MACRO X0.3-11               Page   1
1.0                                                                                                                              (1)

                                     0000     1 	.TITLE	SATSSF01 - SATS SYSTEM SERVICE TESTS  (FAILING S.C.)
                                     0000     2 	.IDENT	/1.0/
                                     0000     3
                                     0000     4 ;
                                     0000     5 ;			  COPYRIGHT (c) 1977,1978 BY
                                     0000     6 ;	      DIGITAL EQUIPMENT CORPORATION, MAYNARD, MASS.
                                     0000     7 ;
                                     0000     8 ; THIS SOFTWARE IS FURNISHED UNDER A LICENSE AND MAY BE USED AND  COPIED
                                     0000     9 ; ONLY  IN  ACCORDANCE  WITH  THE  TERMS  OF  SUCH  LICENSE AND WITH THE
                                     0000    10 ; INCLUSION OF THE ABOVE COPYRIGHT NOTICE.  THIS SOFTWARE OR  ANY  OTHER
                                     0000    11 ; COPIES  THEREOF MAY NOT BE PROVIDED OR OTHERWISE MADE AVAILABLE TO ANY
                                     0000    12 ; OTHER PERSON.  NO TITLE TO AND OWNERSHIP OF  THE  SOFTWARE  IS  HEREBY
                                     0000    13 ; TRANSFERRED.
                                     0000    14 ;
                                     0000    15 ; THE INFORMATION IN THIS SOFTWARE IS SUBJECT TO CHANGE  WITHOUT  NOTICE
                                     0000    16 ; AND  SHOULD  NOT  BE  CONSTRUED  AS  A COMMITMENT BY DIGITAL EQUIPMENT
                                     0000    17 ; CORPORATION.
                                     0000    18 ;
                                     0000    19 ; DIGITAL ASSUMES NO RESPONSIBILITY FOR THE USE OR  RELIABILITY  OF  ITS
                                     0000    20 ; SOFTWARE ON EQUIPMENT WHICH IS NOT SUPPLIED BY DIGITAL.
                                     0000    21 ;
                                     0000    22
                                     0000    23 ;++
                                     0000    24 ; FACILITY:	SATS SYSTEM SERVICE TESTS
                                     0000    25 ;
                                     0000    26 ; ABSTRACT:	THE SATSSF01 MODULE TESTS THE EXECUTION OF CERTAIN
                                     0000    27 ; VMS SYSTEM SERVICES, INVOKED IN SUCH A WAY AS TO EXPECT FAILING
                                     0000    28 ; STATUS CODES. THE SYSTEM SERVICES TESTED AND THE STATUS CODES
                                     0000    29 ; EXPECTED ARE SUMMARIZED AS ARGUMENTS TO THE TESTSERV MACROS
                                     0000    30 ; WHICH APPEAR NEAR THE END OF THIS LISTING. SUCCESSFUL STATUS
                                     0000    31 ; CODES ARE TESTED IN OTHER MODULES.
                                     0000    32 ;
                                     0000    33 ;
                                     0000    34 ; ENVIRONMENT:	USER MODE IMAGE; NEEDS CMKRNL PRIVILEGE,
                                     0000    35 ;		DYNAMICALLY ACQUIRES OTHER PRIVILEGES, AS NEEDED.
                                     0000    36 ;
                                     0000    37 ; AUTHOR: THOMAS L. CAFARELLA,		CREATION DATE: MMM, 1978
                                     0000    38 ;	  PAUL D. FAY (DISPSERV & TESTSERV MACROS)
                                     0000    39 ;
                                     0000    40 ; MODIFIED BY:
                                     0000    41 ;
                                     0000    42 ;	, : VERSION
                                     0000    43 ; 01	-
                                     0000    44 ;--
SATSSF01        - SATS SYSTEM SERVICE TESTS  (FAILING S.C.)      22-AUG-1978 03:38:34   VAX-11 MACRO X0.3-11               Page   2
1.0             DECLARATIONS                                                                                                     (1)

                                     0000    46 	.SBTTL	DECLARATIONS
                                     0000    47 ;
                                     0000    48 ; INCLUDE FILES:
                                     0000    49 ;
                                     0000    50 	$PRVDEF				; SYMBOL DEFS FOR PRIVILEGES
                                     0000    51 	$UETPDEF			; UETP MSG CODE DEFINITIONS
                                     0000    52 	$SHR_MESSAGES UETP,116,<<TEXT,INFO>>
                                     0000    53 					; DEFINE UETP$_TEXT
                           00000004  0000    54 	.MDELETE ($PRVDEF,$UETPDEF,$SHR_MESSAGES,$SHRDEF)
                                     0000    55 					; GET RID OF MACRO DEFINITIONS
                                     0000    56 ;
                                     0000    57 ; MACROS:
                                     0000    58 ;
                                     0000    59 ;
                                     0000    60 ; EQUATED SYMBOLS:
                                     0000    61 ;
                           00000000  0000    62 WARNING		= 0			; WARNING SEVERITY VALUE FOR MSGS
                           00000001  0000    63 SUCCESS		= 1			; SUCCESS SEVERITY VALUE FOR MSGS
                           00000002  0000    64 ERROR		= 2			; ERROR SEVERITY VALUE FOR MSGS
                           00000003  0000    65 INFO		= 3			; INFORMATIONAL SEV VALUE FOR MSGS
                           00000004  0000    66 SEVERE		= 4			; SEVERE (FATAL) SEV VALUE FOR MSGS
                           00000000  0000    67 TCG_NO		=  0			; INITIALIZE TEST CASE GROUP NUMBER
                           00000000  0000    68 GRP_TOTAL	=  0			; INITIALIZE TEST CASE GROUP TOTAL
                           00007FFF  0000    69 R0_THRU_SP	= ^M<R0,R1,R2,R3,R4,R5,R6,R7,R8,R9,R10,R11,AP,FP,SP>
                           00000001  0000    70 PRVHND_SXV40	= 1
                                     0000    71 ;
                                     0000    72 ; ****** THE FOLLOWING ASSIGNMENTS (IN PHD, PCB, STS) ARE BEING MADE
                                     0000    73 ; ****** WITHOUT REFERENCE TO $PHDDEF, $PCBDEF, $STSDEF BECAUSE OF
                                     0000    74 ; ****** SYMBOL TABLE OVERFLOW. FIX THIS WHEN MORE TABLE SPACE AVAILABLE.
                                     0000    75 ;
                           00000000  0000    76 PHD$Q_PRIVMSK	= 0			; PRIV MASK OFFSET INTO PHD
                           00000020  0000    77 PCB$L_UIC	= ^X20			; UIC OFFSET INTO PCB
                           0000001C  0000    78 STS$V_INHIB_MSG	= ^X1C			; INHIBIT_MSG BIT NUMBER IN MSG CODE
                                     0000    79 ;
                                     0000    80 ; OWN STORAGE:
                                     0000    81 ;
SATSSF01        - SATS SYSTEM SERVICE TESTS  (FAILING S.C.)      22-AUG-1978 03:38:34   VAX-11 MACRO X0.3-11               Page   3
1.0             DECLARATIONS                                                                                                     (1)

                                 00000000    83 	.PSECT	RODATA,RD,NOWRT,NOEXE,LONG
                                     0000    84 REG_COMP_MASK:	.WORD	^M<R2,R3,R4,R5,R6,R7,R8,R9,R10,R11,AP,FP> ! ^X8000 -
                               BFFC  0000    85 					; REG COMPARE MASK (HIGH-ORDER ...
                                     0002    86 					; ... BIT MUST BE ON
                                     0002    87 ERR_MSG_FAOCTL:	STRING	I,<!/!AC!1ZB!1ZB: REGISTER !2UW CONTENTS ALTERED>, -
                                     0002    88 		<;  BEFORE SERVICE CALL: !8XL   AFTER SERVICE CALL: !8XL>
                                     006E    89 TEST_MOD_NAME:	STRING	C,<SATSSF01>	; TEST MODULE NAME
                                     0077    90 TEST_MOD_BEG:	STRING	C,<begun>	; DISPOSITION FIELD OF TEST MOD MSG
                                     007D    91 TEST_MOD_SUCC:	STRING	C,<successful>	; DISPOSITION FIELD OF TEST MOD MSG
                                     0088    92 TEST_MOD_FAIL:	STRING	C,<failed>	; DISPOSITION FIELD OF TEST MOD MSG
                                     008F    93 TEST_MOD_NAME_D: STRING	I,<SATSSF01>	; TEST MODULE NAME DESCRIPTOR
                                     009F    94 TTNAME:     	STRING  I,<TT>		; TERMINAL LOGICAL NAME
                  00000000'00000000' 00A9    95 INADR:		.LONG	NOACCESS,NOACCESS ; PAGE ADDRESS OF NOACCESS PSECT
                           00000000' 00B1    96 PROT:		.LONG	PRT$C_NA	; PROTECTION CODE FOR NOACCESS PSECT
                  FFFFFFFF FFFFFFFF  00B5    97 ONES:		.LONG	-1,-1		; A QUADWORD OF 1-BITS
                           00000040  00BD    98 EFN_DEF:	.LONG	64
                                     00C1    99 NAME_DLC:	STRING	I,<SFDLC>
                                     00CE   100 NAME_DLC10:	STRING	I,<MORE THAN 15 CHARACTERS>
                           00000000  00ED   101 NAME_DLC11:	.LONG	0
                           000000F1' 00F1   102 NAME_DLC11_A:	.ADDRESS .
                           00000000  00F5   103 VECTOR_SXV:	.LONG	0
                           00000001  00F9   104 ACMODE_SXV:	.LONG	1
                           00000101  00FD   105 PRVHND_SXV41:	.BLKL	1
SATSSF01        - SATS SYSTEM SERVICE TESTS  (FAILING S.C.)      22-AUG-1978 03:38:34   VAX-11 MACRO X0.3-11               Page   4
1.0             DECLARATIONS                                                                                                     (1)

                                 00000000   107 	.PSECT	RWDATA,RD,WRT,NOEXE
                           00000004  0000   108 TPID:		.BLKL	1		; PROCESS ID FOR THIS PROCESS
                           00000008  0004   109 CURRENT_TC:	.BLKL	1 		; PTR TO CURRENT TEST CASE
                           00000044  0008   110 REG_SAVE_AREA:	.BLKL	15		; SAVE AREA FOR ALL REGS (SANS PC)
                           007480D9  0044   111 MOD_MSG_CODE:	.LONG	UETP$_SATSMS	; TEST MODULE MSG CODE FOR PUTMSG
                           0000004C  0048   112 CLOB_REG_NO:	.BLKL	1		; CLOBBERED REG NO (FOR FAO ERR MSG)
                           00000050  004C   113 REG_BEFORE_SS:	.BLKL	1		; REG CONTENTS BEFORE S.S.
                                     0050   114 					; ... (FOR FAO ERROR MSG)
                           00000054  0050   115 REG_AFTER_SS:	.BLKL	1		; REG CONTENTS AFTER S.S.
                                     0054   116 					; ... (FOR FAO ERROR MSG)
                                     0054   117 $$TSTN$$:	STRING	C,<  SF   >	; ASCII PORTION OF TEST CASE NAME
                           0000006E' 005C   118 TMN_ADDR:	.ADDRESS TEST_MOD_NAME	; ADDR OF TEST MOD NAME FOR FAO
                           00000077' 0060   119 TMD_ADDR:	.ADDRESS TEST_MOD_BEG	; ADDR OF T.M. DISP FIELD FOR FAO
                           00000068  0064   120 TS_EP:		.BLKL	1		; ENTRY PNT FOR CURR TESTSERV MACRO
                           00000070  0068   121 RETADR:		.BLKL	2		; RETURN LONGWORDS FOR SETPRT
                           00000071  0070   122 PRVPRT:		.BLKB	1		; PROT RETURN BYTE FOR SETPRT
                           00000079  0071   123 PRIVMASK:	.BLKQ	1		; ADDR OF PRIVILEGE MASK (IN PHD)
                           0000007D  0079   124 CHM_CONT:	.BLKL	1		; CHANGE MODE CONTINUE ADDRESS
                           00000091  007D   125 REGS:		.BLKL	5		; AREA FOR COND INDEX REGS (R2-R6)
                           00000095  0091   126 EFN_DEF10:	.BLKL	1
                           00000099  0095   127 EFN_DEF11:	.BLKL	1
                           0000009D  0099   128 EFN_DEF12:	.BLKL	1
                           000000A1  009D   129 EFN_DEF13:	.BLKL	1
                           000000A5  00A1   130 ADDRES_SXV:	.BLKL	1
                           000000A9  00A5   131 PRVHND_SXV:	.BLKL	1
SATSSF01        - SATS SYSTEM SERVICE TESTS  (FAILING S.C.)      22-AUG-1978 03:38:34   VAX-11 MACRO X0.3-11               Page   5
1.0             DECLARATIONS                                                                                                     (1)

                                 00000000   133 	.PSECT	SATS_ACCVIO_1,RD,WRT,NOEXE,PAGE
                           00000200  0000   134 EMPTY:		.BLKB	512	; RESERVE A PAGE OF SPACE
                                     0200   135 ;
                                     0200   136 ; +
                                     0200   137 ; ******************************************************************
                                     0200   138 ; *                                                                *
                                     0200   139 ; * 	THE ORDER OF STATEMENTS IN THIS PSECT IS CRITICAL.         *
                                     0200   140 ; *	DO NOT RE-ARRANGE THE VARIABLES. CONSULT SATS              *
                                     0200   141 ; *	FUNCTIONAL SPECIFICATION FOR A DESCRIPTION OF THE USE      *
                                     0200   142 ; *	OF THE EMPTY PSECT (AND ITS COMPANION PSECT, NOACCESS).    *
                                     0200   143 ; *                                                                *
                                     0200   144 ; ******************************************************************
                                     0200   145 ; -
                                     0200   146 ;
                           000001FF  0200   147 PRVHND_SXV42	= . - 1		; PRVHND ARG FOR SETEXV (LAST BYTE IN THE PAGE)
                           000001F3  0200   148 		. = . - 13	; ALLOW ROOM FOR STRING DESCRIPTOR
                                     01F3   149 ; TYPE AAAAA_SSSX5 GO HERE:
                           00000006  01F3   150 		.LONG	6	; STRING LENGTH (WILL CROSS PSECT BOUNDARY)
                           000001FB' 01F7   151 		.ADDRESS .+4	; STRING ADDRESS
                                     01FB   152 ; TYPE AAAAA_SSSX3 GO HERE:
                           000001FC  01FB   153 		.BLKB	1	; LOW-ORDER BYTE OF STRING LENGTH
                                     01FC   154 ; TYPE AAAAA_SSSX2 GO HERE:
                           00000200  01FC   155 		.BLKL	1	; STRING LENGTH
                                     0200   156 ;
                                     0200   157 ;
                                     0200   158 ;
                                     0200   159 ;
                                 00000000   160 	.PSECT	SATS_ACCVIO_2,RD,WRT,NOEXE,PAGE
                           00000200  0000   161 NOACCESS:	.BLKB	512	; RESERVE A PAGE OF SPACE
                           00000000  0200   162 		. = . - 512	; RETURN LOC CTR TO BEGINNING OF PSECT
                           00000000' 0000   163 		.ADDRESS EMPTY	; ADDRESS OF ACCESSIBLE STRING
                           00000000' 0004   164 		.ADDRESS EMPTY/^X100 ; ADDRESS OF ACCESSIBLE STRING
                                     0008   165 ;+
                                     0008   166 ; *** NOTE -- DO NOT CHANGE LOCATION OR SEQUENCE OF ABOVE STATEMENTS!
                                     0008   167 ; ***         THIS PSECT (NOACCESS) MUST APPEAR IN MEMORY IMMEDIATELY
                                     0008   168 ; ***         FOLLOWING THE EMPTY PSECT. PSECT NAMES AND OPTIONS WILL BE
                                     0008   169 ; ***         CHOSEN TO FORCE THE DESIRED PSECT ORDERING.
                                     0008   170 ;-
                                     0008   171 ;
                                     0008   172 ;
                                     0008   173 ;
                                     0008   174 ;
                           00000001  0008   175 	.MDELETE (STRING)		; NO LONGER NEED MACRO DEFINITION
                                 00000000   176 	.PSECT	SATSSF01,RD,WRT,EXE,LONG
SATSSF01        - SATS SYSTEM SERVICE TESTS  (FAILING S.C.)      22-AUG-1978 03:38:34   VAX-11 MACRO X0.3-11               Page   6
1.0             SATSSF01                                                                                                         (1)

                                     0000   178 	.SBTTL	SATSSF01
                                     0000   179 ;++
                                     0000   180 ; FUNCTIONAL DESCRIPTION:
                                     0000   181 ;
                                     0000   182 ;		AFTER PERFORMING SOME INITIAL HOUSEKEEPING, SUCH AS
                                     0000   183 ; PRINTING THE MODULE BEGIN MESSAGE AND ACQUIRING ALL PRIVILEGES,
                                     0000   184 ; THE SATSSF01 ROUTINE EXECUTES THE TEST_SERV_EXEC MACRO TO RUN
                                     0000   185 ; ALL TEST CASES. WHEN THE MACRO COMPLETES ITS EXECUTION, SATSSF01
                                     0000   186 ; PRINTS A TEST MODULE SUCCESS OR FAIL MESSAGE AND EXITS TO THE
                                     0000   187 ; OPERATING SYSTEM. TEST_SERV_EXEC CALLS THE TC_CONTROL/TESTSERV
                                     0000   188 ; CO-ROUTINE PAIR ONCE PER TEST CASE GROUP TO EXECUTE ALL TEST
                                     0000   189 ; CASES IN THAT GROUP. EACH TEST CASE GROUP IS DEFINED BY BOUNDING
                                     0000   190 ; ITS TEST CASES WITH A TC_GROUP MACRO BEFORE THE FIRST TEST CASE
                                     0000   191 ; AND A TCEND MACRO AFTER THE LAST ONE. THE TEST CASES THEMSELVES
                                     0000   192 ; ARE DEFINED WITHIN THESE BOUNDS BY PRECEDING EACH WITH A
                                     0000   193 ; NEXT_TEST_CASE MACRO. TC_CONTROL/TESTSERV EXECUTES THE CODE
                                     0000   194 ; FOLLOWING EACH NEXT_TEST_CASE MACRO IMMEDIATELY BEFORE ISSUING
                                     0000   195 ; THE SYSTEM SERVICE AS REQUESTED IN THE TESTSERV MACRO. TC_CONTROL/
                                     0000   196 ; TESTSERV ALSO CHECKS THE RESULTS OF THE SERVICE WITH RESPECT
                                     0000   197 ; TO ITS EXPECTED STATUS CODE AND PRINTS ANY REQUIRED FAILURE
                                     0000   198 ; MESSAGES FOR THE TEST CASE. THE CODE APPEARING AFTER EACH
                                     0000   199 ; NEXT_TEST_CASE MACRO IS MERELY TO SET UP CONDITIONS REQUIRED
                                     0000   200 ; FOR THE SYSTEM SERVICE AND TO CLEAN UP ANY RESOURCES ACQUIRED
                                     0000   201 ; BY THE PREVIOUS TEST CASE.
                                     0000   202 ;
                                     0000   203 ; CALLING SEQUENCE:
                                     0000   204 ;
                                     0000   205 ;	$ RUN SATSSF01  ...  (DCL COMMAND)
                                     0000   206 ;
                                     0000   207 ; INPUT PARAMETERS:
                                     0000   208 ;
                                     0000   209 ;	NONE
                                     0000   210 ;
                                     0000   211 ; IMPLICIT INPUTS:
                                     0000   212 ;
                                     0000   213 ;	NONE
                                     0000   214 ;
                                     0000   215 ; OUTPUT PARAMETERS:
                                     0000   216 ;
                                     0000   217 ;	NONE
                                     0000   218 ;
                                     0000   219 ; IMPLICIT OUTPUTS:
                                     0000   220 ;
                                     0000   221 ;	MESSAGES TO SYS$OUTPUT ARE THE ONLY OUTPUT FROM SATSSF01.
                                     0000   222 ;	THEY ARE OF THE FORM:
                                     0000   223 ;
                                     0000   224 ;		%UETP-S-SATSMS, TEST MODULE SATSSF01 BEGUN ... (BEGIN MSG)
                                     0000   225 ;		%UETP-S-SATSMS, TEST MODULE SATSSF01 SUCCESSFUL ... (END MSG)
                                     0000   226 ;		%UETP-E-SATSMS, TEST MODULE SATSSF01 FAILED ... (END MSG)
                                     0000   227 ;		%UETP-I-TEXT, ... (VARIABLE INFORMATION ABOUT A TEST MODULE FAILURE)
                                     0000   228 ;
                                     0000   229 ; COMPLETION CODES:
                                     0000   230 ;
                                     0000   231 ;	THE SATSSF01 ROUTINE TERMINATES WITH A $EXIT TO THE
                                     0000   232 ;	OPERATING SYSTEM WITH A STATUS CODE DEFINED BY UETP$_SATSMS.
                                     0000   233 ;
                                     0000   234 ; SIDE EFFECTS:
SATSSF01        - SATS SYSTEM SERVICE TESTS  (FAILING S.C.)      22-AUG-1978 03:38:34   VAX-11 MACRO X0.3-11               Page   7
1.0             SATSSF01                                                                                                         (1)

                                     0000   235 ;
                                     0000   236 ;	NONE
                                     0000   237 ;
                                     0000   238 ;--
                                     0000   239
                                     0000   240
                                     0000   241
                                     0000   242 SATSSF01:
                               0FFC  0000   243 	.WORD	^M<R2,R3,R4,R5,R6,R7,R8,R9,R10,R11>
                                     0002   244 					; ENTRY MASK
                                     0002   245 	$WAKE_S  TPID			; GET PID OF THIS PROCESS
                                     0011   246 	$HIBER_S			; UNDO WAKE
                                     0018   247 	$SETPRN_S TEST_MOD_NAME_D 	; SET PROCESS NAME
                          08E7   30  0025   248 	BSBW	MOD_MSG_PRINT		; PRINT TEST MODULE BEGIN MSG
   00000060'EF   0000007D'EF     DE  0028   249 	MOVAL	TEST_MOD_SUCC,TMD_ADDR	; ASSUME END MSG WILL SHOW SUCCESS
            00            01     F0  0033   250 	INSV	#SUCCESS,#0,#3,MOD_MSG_CODE ; ADJUST STATUS CODE FOR SUCCESS
   00000044'EF            03         0036
                                     003C   251 	MODE	TO,10$,KRNL,NOREGS 	; KERNEL MODE TO ACCESS PHD
            59   00000000'9F     D0  0059   252 	MOVL	@#CTL$GL_PHD,R9		; GET PROCESS HEADER ADDRESS
   00000071'EF            69     DE  0060   253 	MOVAL	PHD$Q_PRIVMSK(R9),PRIVMASK ; GET PRIV MASK ADDRESS
                                     0067   254 	MODE	FROM,10$		; GET BACK TO USER MODE
                                     0068   255 	PRIV	ADD,ALL			; GET ALL PRIVILEGES
                                     0091   256 	DISPSERV			; SET UP DISPLAY INFO FOR TESTSERV
                                     0226   257 	$SETPRT_S INADR=INADR, RETADR=RETADR, -
                                     0226   258 		  PROT=PROT, PRVPRT=PRVPRT
                                     0247   259 					; SET NOACCESS PSECT ...
                                     0247   260 					; ... FOR NO USER ACCESS
                          056C   31  0247   261 	BRW	EXECUTE			; GO EXECUTE ALL TEST CASES
                                     024A   262 	TC_GROUP	DEF,1,TS1
                                     0271   263 	NEXT_TEST_CASE	SFDEF10
SATSSF01        - SATS SYSTEM SERVICE TESTS  (FAILING S.C.)      22-AUG-1978 03:38:34   VAX-11 MACRO X0.3-11               Page   8
1.0             SFDEF10                                                                                                          (1)

                 00000091'EF     D4  0271   264 	CLRL		EFN_DEF10
                                     0277   265 	NEXT_TEST_CASE	SFDEF11
SATSSF01        - SATS SYSTEM SERVICE TESTS  (FAILING S.C.)      22-AUG-1978 03:38:34   VAX-11 MACRO X0.3-11               Page   9
1.0             SFDEF11                                                                                                          (1)

   00000095'EF            3F     9A  0283   266 	MOVZBL		#63,EFN_DEF11
                                     028A   267 	NEXT_TEST_CASE	SFDEF12
SATSSF01        - SATS SYSTEM SERVICE TESTS  (FAILING S.C.)      22-AUG-1978 03:38:34   VAX-11 MACRO X0.3-11               Page  10
1.0             SFDEF12                                                                                                          (1)

   00000099'EF         80 8F     9A  0296   268 	MOVZBL		#128,EFN_DEF12
                                     029E   269 	NEXT_TEST_CASE	SFDEF13
SATSSF01        - SATS SYSTEM SERVICE TESTS  (FAILING S.C.)      22-AUG-1978 03:38:34   VAX-11 MACRO X0.3-11               Page  11
1.0             SFDEF13                                                                                                          (1)

   0000009D'EF   00007D00 8F     D0  02AA   270 	MOVL		#32000,EFN_DEF13
                                     02B5   271 	TCEND
SATSSF01        - SATS SYSTEM SERVICE TESTS  (FAILING S.C.)      22-AUG-1978 03:38:34   VAX-11 MACRO X0.3-11               Page  12
1.0                                                                                                                              (1)

                                     02B6   272 	TC_GROUP	DLC,1,TS2
                                     02DD   273 	NEXT_TEST_CASE	SFDLC10
SATSSF01        - SATS SYSTEM SERVICE TESTS  (FAILING S.C.)      22-AUG-1978 03:38:34   VAX-11 MACRO X0.3-11               Page  13
1.0             SFDLC10                                                                                                          (1)

                                     02DD   274 	NEXT_TEST_CASE	SFDLC11
SATSSF01        - SATS SYSTEM SERVICE TESTS  (FAILING S.C.)      22-AUG-1978 03:38:34   VAX-11 MACRO X0.3-11               Page  14
1.0             SFDLC11                                                                                                          (1)

                                     02E9   275 	TCEND
SATSSF01        - SATS SYSTEM SERVICE TESTS  (FAILING S.C.)      22-AUG-1978 03:38:34   VAX-11 MACRO X0.3-11               Page  15
1.0                                                                                                                              (1)

                                     02EA   276 	TC_GROUP	SXV,1,TS3
                                     0311   277 	NEXT_TEST_CASE	SFSXV40
SATSSF01        - SATS SYSTEM SERVICE TESTS  (FAILING S.C.)      22-AUG-1978 03:38:34   VAX-11 MACRO X0.3-11               Page  16
1.0             SFSXV40                                                                                                          (1)

   000000A1'EF         FE AF     DE  0311   278 	MOVAL	.,ADDRES_SXV
                                     0319   279 	NEXT_TEST_CASE	SFSXV41
SATSSF01        - SATS SYSTEM SERVICE TESTS  (FAILING S.C.)      22-AUG-1978 03:38:34   VAX-11 MACRO X0.3-11               Page  17
1.0             SFSXV41                                                                                                          (1)

                                     0325   280 	NEXT_TEST_CASE	SFSXV42
SATSSF01        - SATS SYSTEM SERVICE TESTS  (FAILING S.C.)      22-AUG-1978 03:38:34   VAX-11 MACRO X0.3-11               Page  18
1.0             SFSXV42                                                                                                          (1)

                                     0331   281 	TCEND
SATSSF01        - SATS SYSTEM SERVICE TESTS  (FAILING S.C.)      22-AUG-1978 03:38:34   VAX-11 MACRO X0.3-11               Page  19
1.0                                                                                                                              (1)

                                     0332   282 TS1:
                                     0332   283 	TESTSERV	DACEFC,ERR,SATS,				-
                                     0332   284                                           				-
                                     0332   285 	   <1,EFN_DEF,						-
                                     0332   286 	        	EFN_DEF10,ILLEFC,	-  ; SFDEF10
                                     0332   287 	        	EFN_DEF11,ILLEFC,	-  ; SFDEF11
                                     0332   288 	        	EFN_DEF12,ILLEFC,	-  ; SFDEF12
                                     0332   289 	        	EFN_DEF13,ILLEFC,	-  ; SFDEF13
                                     0332   290                                                   >,			-
                                     0332   291
                                     040D   292 	TS_CLEANUP		; CLEAN UP & RETURN TO TEST_SERV_EXEC
SATSSF01        - SATS SYSTEM SERVICE TESTS  (FAILING S.C.)      22-AUG-1978 03:38:34   VAX-11 MACRO X0.3-11               Page  20
1.0                                                                                                                              (1)

                                     042D   293 TS2:
                                     042D   294 	TESTSERV	DLCEFC,ERR,SATS,				-
                                     042D   295                                           				-
                                     042D   296 	   <1,NAME_DLC,						-
                                     042D   297 	        	NAME_DLC10,IVLOGNAM,	-  ; SFDLC10
                                     042D   298 	        	NAME_DLC11,IVLOGNAM,	-  ; SFDLC11
                                     042D   299                                                   >,			-
                                     042D   300
                                     04F8   301 	TS_CLEANUP		; CLEAN UP & RETURN TO TEST_SERV_EXEC
SATSSF01        - SATS SYSTEM SERVICE TESTS  (FAILING S.C.)      22-AUG-1978 03:38:34   VAX-11 MACRO X0.3-11               Page  21
1.0                                                                                                                              (1)

                                     0518   302 TS3:
                                     0518   303 	TESTSERV	SETEXV,ERR,SATS,				-
                                     0518   304                                           				-
                                     0518   305 	   <1,VECTOR_SXV,						-
                                     0518   306                                                   >,			-
                                     0518   307                                           				-
                                     0518   308 	   <1,ADDRES_SXV,						-
                                     0518   309                                                   >,			-
                                     0518   310                                           				-
                                     0518   311 	   <1,ACMODE_SXV,						-
                                     0518   312                                                   >,			-
                                     0518   313                                           				-
                                     0518   314 	   <1,PRVHND_SXV,						-
                                     0518   315 	        	PRVHND_SXV40,ACCVIO,	-  ; SFSXV40
                                     0518   316 	        	PRVHND_SXV41,ACCVIO,	-  ; SFSXV41
                                     0518   317 	        	PRVHND_SXV42,ACCVIO,	-  ; SFSXV42
                                     0518   318                                                   >,			-
                                     0518   319
                                     0796   320 	TS_CLEANUP		; CLEAN UP & RETURN TO TEST_SERV_EXEC
SATSSF01        - SATS SYSTEM SERVICE TESTS  (FAILING S.C.)      22-AUG-1978 03:38:34   VAX-11 MACRO X0.3-11               Page  22
1.0             EXECUTE & CLEANUP                                                                                                (1)

                                     07B6   321 	.SBTTL	EXECUTE & CLEANUP
                                     07B6   322 EXECUTE:
                                     07B6   323 	TEST_SERV_EXEC			; EXECUTE ALL T. CASES IN ALL GROUPS
                                     07D4   324 	.MDELETE (PRIV,TC_GROUP,NEXT_TEST_CASE, -
                           0000000D  07D4   325 		  TCEND,TESTSERV,TS_CLEANUP,TEST_SERV_EXEC)
                                     07D4   326 					; DELETE MACRO DEFINITIONS
                                     07D4   327 CLEANUP:
                          0138   30  07D4   328 	BSBW	MOD_MSG_PRINT		; PRINT TEST MODULE END MSG
            1C            01     F0  07D7   329 	INSV	#1,#STS$V_INHIB_MSG,#1,MOD_MSG_CODE
   00000044'EF            01         07DA
                                     07E0   330 					; INHIBIT PRINTING
                                     07E0   331 	$EXIT_S	MOD_MSG_CODE		; EXIT TO OP SYS WITH MSG CODE
SATSSF01        - SATS SYSTEM SERVICE TESTS  (FAILING S.C.)      22-AUG-1978 03:38:34   VAX-11 MACRO X0.3-11               Page  23
1.0             TC_CONTROL                                                                                                       (1)

                                     07ED   333 	.SBTTL	TC_CONTROL
                                     07ED   334 ;++
                                     07ED   335 ; FUNCTIONAL DESCRIPTION:
                                     07ED   336 ;
                                     07ED   337 ;		THE TC_CONTROL SUBROUTINE IS CALLED BY THE TEST_SERV_EXEC
                                     07ED   338 ; MACRO TO EXECUTE A GROUP OF TEST CASES. A GROUP IS DEFINED BY A TC_GROUP
                                     07ED   339 ; MACRO. FOR EACH TC_GROUP MACRO, THERE IS A CORRESPONDING TESTSERV MACRO.
                                     07ED   340 ; TESTSERV CONTAINS CODE TO EXECUTE SYSTEM SERVICES AND CHECK THE RETURNED
                                     07ED   341 ; STATUS CODE VALUES. TESTSERV ARGUMENTS ARE CODED TO SPECIFY ALL THE SYSTEM
                                     07ED   342 ; SERVICE ARGUMENT VALUES AND THE EXPECTED STATUS CODE FOR EACH TEST CASE
                                     07ED   343 ; DEFINED BY A NEXT_TEST_CASE MACRO WITHIN THE GROUP. TC_CONTROL USES A
                                     07ED   344 ; CO-ROUTINE INTERFACE TO ENTER THE CODE OF THE APPROPRIATE TESTSERV MACRO
                                     07ED   345 ; IN VARIOUS PLACES. THE FIRST ENTRY OCCURS ONCE PER GROUP TO ALLOW TESTSERV
                                     07ED   346 ; TO DO SOME INITIALIZATION. THEN TWO ENTRIES ARE MADE FOR EACH TEST CASE IN
                                     07ED   347 ; THE GROUP. THE FIRST ALLOWS TESTSERV TO ISSUE THE SUBJECT SYSTEM SERVICE.
                                     07ED   348 ; THE SECOND ENTRY FOR THE TEST CASE CAUSES TESTSERV TO CHECK THE RETURNED
                                     07ED   349 ; STATUS CODE, PRINTING A FAILURE MESSAGE IF IT IS NOT THE EXPECTED CODE.
                                     07ED   350 ; IF THERE ARE NO MORE TEST CASES IN THE CURRENT GROUP, TESTSERV (NOT TC_CONTROL)
                                     07ED   351 ; RETURNS DIRECTLY TO TEST_SERV_EXEC (RSB ACTUALLY ISSUED IN TS_CLEANUP MACRO)
                                     07ED   352 ; FROM THIS SECOND ENTRY; OTHERWISE, CONTROL RETURNS TO TC_CONTROL WHICH
                                     07ED   353 ; IN TURN ENTERS TESTSERV AGAIN FOR THE NEXT TEST CASE. THE FAILURE OF A
                                     07ED   354 ; TEST CASE DOES NOT CAUSE TERMINATION OF THE TEST MODULE.
                                     07ED   355 ;
                                     07ED   356 ; CALLING SEQUENCE:
                                     07ED   357 ;
                                     07ED   358 ;	BSBW TC_CONTROL (ISSUED WITHIN THE TEST_SERV_EXEC MACRO)
                                     07ED   359 ;			(RSB IS ISSUED WITHIN THE TS_CLEANUP MACRO)
                                     07ED   360 ;
                                     07ED   361 ; INPUT PARAMETERS:
                                     07ED   362 ;
                                     07ED   363 ;	NONE
                                     07ED   364 ;
                                     07ED   365 ; IMPLICIT INPUTS:
                                     07ED   366 ;
                                     07ED   367 ;	ARGUMENTS SPECIFIED ON EACH TESTSERV MACRO MAY BE VIEWED AS
                                     07ED   368 ;	INPUTS, SINCE TC_CONTROL AND TESTSERV ACT AS CO-ROUTINES.
                                     07ED   369 ;
                                     07ED   370 ; OUTPUT PARAMETERS:
                                     07ED   371 ;
                                     07ED   372 ;	SEVERITY CODE FIELD OF MOD_MSG_CODE (BITS 0,1,2) IS SET TO ERROR
                                     07ED   373 ;	IF ANY TEST CASE IN THE CURRENT GROUP FAILS; OTHERWISE IT REMAINS
                                     07ED   374 ;	SET TO SUCCESSFUL.
                                     07ED   375 ;
                                     07ED   376 ; IMPLICIT OUTPUTS:
                                     07ED   377 ;
                                     07ED   378 ;	%UETP-I-TEXT,   ERROR MESSAGES ARE WRITTEN TO SYS$OUTPUT BY
                                     07ED   379 ;			THE TESTSERV MACRO (CO-ROUTINE WITH TC_CONTROL)
                                     07ED   380 ;
                                     07ED   381 ; COMPLETION CODES:
                                     07ED   382 ;
                                     07ED   383 ;	NONE
                                     07ED   384 ;
                                     07ED   385 ; SIDE EFFECTS:
                                     07ED   386 ;
                                     07ED   387 ;	NONE
                                     07ED   388 ;
                                     07ED   389 ;--
SATSSF01        - SATS SYSTEM SERVICE TESTS  (FAILING S.C.)      22-AUG-1978 03:38:34   VAX-11 MACRO X0.3-11               Page  24
1.0             TC_CONTROL                                                                                                       (1)

                                     07ED   390
                                     07ED   391
                                     07ED   392
                                     07ED   393 TC_CONTROL:
                 00000064'EF     DD  07ED   394 	PUSHL	TS_EP			; PUSH TESTSERV ENTRY POINT
                          9E     16  07F3   395 	JSB	@(SP)+			; ENTER TESTSERV INITIALIZATION
                                     07F5   396 10$:					; PROCESS NEXT TEST CASE
   00000056'EF            20     90  07F5   397 	MOVB	#^A/ /,$$TSTN$$+2 	; MAKE SURE T.C. NAME HAS A BLANK
                          002F   30  07FC   398 	BSBW	REG_SAVE		; SAVE REGISTERS
                 00000004'FF     16  07FF   399 	JSB	@CURRENT_TC		; JUMP TO CURRENT TEST CASE
                          0037   30  0805   400 	BSBW	REG_REST		; RESTORE REGS FOR TESTSERV
                          9E     16  0808   401 	JSB	@(SP)+			; LET TESTSERV ISSUE SYSTEM SERVICE
                          0042   30  080A   402 	BSBW	REG_COMP		; COMPARE REGS TO SEE IF ...
                                     080D   403 					; ... SYSTEM SERVICE CHANGED ANY
                          9E     16  080D   404 	JSB	@(SP)+			; LET TESTSERV CHEK S.S. STATUS CODE
   00000056'EF            2A     91  080F   405 	CMPB	#^A/*/,$$TSTN$$+2	; HAS TESTSERV INDICATED FAILURE ?
                          DD     12  0816   406 	BNEQU	10$			; NO -- PROCESS NEXT TEST CASE
   00000060'EF   00000088'EF     DE  0818   407 	MOVAL	TEST_MOD_FAIL,TMD_ADDR	; YES -- INDICATE FAILED IN END MSG
            00            02     F0  0823   408 	INSV	#ERROR,#0,#3,MOD_MSG_CODE ; ADJUST STATUS CODE FOR ERROR
   00000044'EF            03         0826
                          C7     11  082C   409 	BRB	10$			; LOOP BAK TO PROCESS NEXT TEST CASE
                                     082E   410 ;
                                     082E   411 ;   TC_CONTROL RETURNS TO TEST_SERV_EXEC VIA TESTSERV (IN TS_CLEANUP MACRO)
                                     082E   412 ;
SATSSF01        - SATS SYSTEM SERVICE TESTS  (FAILING S.C.)      22-AUG-1978 03:38:34   VAX-11 MACRO X0.3-11               Page  25
1.0             SUBROUTINES                                                                                                      (1)

                                     082E   414 	.SBTTL	SUBROUTINES
                                     082E   415 REG_SAVE:
                                     082E   416 ;
                                     082E   417 ;  *****************************************************************
                                     082E   418 ;  *                                                               *
                                     082E   419 ;  *  SAVES R0 THRU SP IN REG_SAVE_AREA                            *
                                     082E   420 ;  *                                                               *
                                     082E   421 ;  *****************************************************************
                                     082E   422 ;
                     7FFF 8F     BB  082E   423 	PUSHR	#R0_THRU_SP		; SAVE ALL REGS ON STACK
            6E            3C     28  0832   424 	MOVC3	#60,(SP),REG_SAVE_AREA	; SAVE REGS (BEFORE S.S.)
                 00000008'EF         0835
                     7FFF 8F     BA  083A   425 	POPR	#R0_THRU_SP		; CLEAN UP STACK
                                 05  083E   426 	RSB				; .... AND RETURN
                                     083F   427 ;
                                     083F   428 ;
                                     083F   429 ;
                                     083F   430 ;
                                     083F   431 REG_REST:
                                     083F   432 ;
                                     083F   433 ;
                                     083F   434 ;  *****************************************************************
                                     083F   435 ;  *                                                               *
                                     083F   436 ;  *  RESTORES R0 THRU SP FROM REG_SAVE_AREA                       *
                                     083F   437 ;  *                                                               *
                                     083F   438 ;  *****************************************************************
                                     083F   439 ;
            5E            3C     C2  083F   440 	SUBL2	#60,SP			; MOVE SP TO MAKE ROOM FOR REGS
   00000008'EF            3C     28  0842   441 	MOVC3	#60,REG_SAVE_AREA,(SP)	; MOVE REGS ONTO STACK FOR POP
                          6E         0849
                     7FFF 8F     BA  084A   442 	POPR	#R0_THRU_SP		; RESTORE ALL REGS FOR TESTSERV
                                 05  084E   443 	RSB				; ... AND RETURN
SATSSF01        - SATS SYSTEM SERVICE TESTS  (FAILING S.C.)      22-AUG-1978 03:38:34   VAX-11 MACRO X0.3-11               Page  26
1.0             SUBROUTINES                                                                                                      (1)

                                     084F   445 REG_COMP:
                                     084F   446 ;
                                     084F   447 ;  *****************************************************************
                                     084F   448 ;  *                                                               *
                                     084F   449 ;  *  1) PUSHES ALL REGS ONTO STACK                                *
                                     084F   450 ;  *  2) COMPARES REGISTER IMAGES FROM STACK WITH CORRESPONDING    *
                                     084F   451 ;  *       IMAGES FROM REG_SAVE_AREA FOR ALL REGISTERS SPECIFIED   *
                                     084F   452 ;  *       IN REG_COMP_MASK.                                       *
                                     084F   453 ;  *  3) FOR EACH UNEQUAL COMPARE, AN ERROR MESSAGE IS PRINTED     *
                                     084F   454 ;  *       (USING $FAO AND $OUTPUT SYSTEM SERVICES).               *
                                     084F   455 ;  *  4) POPS ALL REGS OFF OF STACK                                *
                                     084F   456 ;  *                                                               *
                                     084F   457 ;  *****************************************************************
                                     084F   458 ;
                     7FFF 8F     BB  084F   459 	PUSHR	#R0_THRU_SP		; SAVE ALL REGISTERS ON STACK
            56   00000008'EF     DE  0853   460 	MOVAL	REG_SAVE_AREA,R6 	; POINT R6 TO BEG OF ...
                                     085A   461 					; ... REGS (BEFORE S.S.)
            54            5E     D0  085A   462 	MOVL	SP,R4			; POINT R4 TO BEG OF
                                     085D   463 					; ... REGS (AFTER S.S.)
            53         FF 8F     98  085D   464 	CVTBL	#-1,R3			; INITIALIZE REG_COMP_MASK INDEX
                                     0861   465 REG_COMP_NEXT:
                          53     D6  0861   466 	INCL	R3			; POINT TO NEXT BIT IN MASK
            53            0F     91  0863   467 	CMPB	#15,R3			; END OF THE MASK ?
                          03     1A  0866   468 	BGTRU	REG_COMP_CONT		; NO -- CONTINUE
                          009F   31  0868   469 	BRW	REG_COMP_RSB		; YES -- GO TO COMMON RETURN
                                     086B   470 REG_COMP_CONT:
            84            86     D1  086B   471 	CMPL	(R6)+,(R4)+		; REG BEFORE = REG AFTER ?
                          F1     13  086E   472 	BEQLU	REG_COMP_NEXT		; YES -- LOOK FOR NEXT REG
   00000000'EF            53     E1  0870   473 	BBC	R3,REG_COMP_MASK,REG_COMP_NEXT
                          E9         0877
                                     0878   474 					; NO -- GET NEXT IF BIT NOT SET
   00000048'EF            53     D0  0878   475 	MOVL	R3,CLOB_REG_NO		; NO -- GIVE REG NUMBER TO FAO
   0000004C'EF         FC A6     D0  087F   476 	MOVL	-4(R6),REG_BEFORE_SS 	; GIVE "BEFORE" CONTENTS TO FAO
   00000050'EF         FC A4     D0  0887   477 	MOVL	-4(R4),REG_AFTER_SS  	; GIVE "AFTER" CONTENTS TO FAO
   00000056'EF            2A     90  088F   478 	MOVB	#^A/*/,$$TSTN$$+2 	; GIVE FAILURE INDIC'N IN ERROR MSG
                                     0896   479 ;
                                     0896   480 	$FAO_S	ERR_MSG_FAOCTL,OUTL,OUTD,$$SNAD$$,  -
                                     0896   481 		$$ASEQ$$,$$PSEQ$$,CLOB_REG_NO,REG_BEFORE_SS,REG_AFTER_SS
                                     08C9   482 ;
       F84D CF       F817 CF     B0  08C9   483 	MOVW	OUTL,OUTD		; ACTUAL OUTPUT LEN IN STRING DESC'R
                                     08D0   484 	PUTMSG	<#UETP$_TEXT,#1,#OUTD>	; PRINT THE MSG
       F831 CF       0084 8F     B0  08E5   485 	MOVW	#OUTE-OUTB,OUTD		; GET MAX LEN BACK INTO DESCRIPTOR
   00000056'EF            20     90  08EC   486 	MOVB	#^A/ /,$$TSTN$$+2 	; REMOVE FAIL INDIC'N FOR NEXT MSG
   00000060'EF   00000088'EF     DE  08F3   487 	MOVAL	TEST_MOD_FAIL,TMD_ADDR	; INDICATE FAILED IN END MSG
            00            02     F0  08FE   488 	INSV	#ERROR,#0,#3,MOD_MSG_CODE ; ADJUST STATUS CODE FOR ERROR
   00000044'EF            03         0901
                          FF57   31  0907   489 	BRW	REG_COMP_NEXT		; GO LOOK FOR NEXT REG TO COMPARE
                                     090A   490 REG_COMP_RSB:
                     7FFF 8F     BA  090A   491 	POPR	#R0_THRU_SP		; CLEAN UP STACK
                                 05  090E   492 	RSB				; RETURN TO CALLER
SATSSF01        - SATS SYSTEM SERVICE TESTS  (FAILING S.C.)      22-AUG-1978 03:38:34   VAX-11 MACRO X0.3-11               Page  27
1.0             SUBROUTINES                                                                                                      (1)

                                     090F   494 MOD_MSG_PRINT:
                                     090F   495 ;
                                     090F   496 ;  *****************************************************************
                                     090F   497 ;  *                                                               *
                                     090F   498 ;  *  PRINTS THE TEST MODULE BEGUN/SUCCESSFUL/FAILED MESSAGES      *
                                     090F   499 ;  *	   (USING THE PUTMSG MACRO).                               *
                                     090F   500 ;  *                                                               *
                                     090F   501 ;  *****************************************************************
                                     090F   502 ;
                                     090F   503 	PUTMSG	<MOD_MSG_CODE,#2,TMN_ADDR,TMD_ADDR> ; PRINT MSG
                                 05  092A   504 	RSB				; ... AND RETURN TO CALLER
                                     092B   505 ;
                                     092B   506 CHMRTN:
                                     092B   507 ; **********************************************************
                                     092B   508 ; *
                                     092B   509 ; *	CHANGE MODE ROUTINE. THIS ROUTINE GETS CONTROL WHENEVER
                                     092B   510 ; *	A CMKRNL, CMEXEC, OR CMSUP SYSTEM SERVICE IS ISSUED
                                     092B   511 ; *	BY THE MODE MACRO ('TO' OPTION).  IT MERELY DOES
                                     092B   512 ; *	A JUMP INDIRECT ON A FIELD SET UP BY MODE. IT HAS
                                     092B   513 ; *	THE EFFECT OF RETURNING TO THE END OF THE MODE
                                     092B   514 ; *	MACRO EXPANSION.
                                     092B   515 ; *
                                     092B   516 ; *************************************************************
                                     092B   517 ;
                               0000  092B   518 	.WORD	0			; ENTRY MASK
                 00000079'FF     17  092D   519 	JMP	@CHM_CONT		; RETURN TO MODE MACRO IN NEW MODE
                                     0933   520 ;
                                     0933   521 ; *	RET INSTR WILL BE ISSUED IN EXPANSION OF 'MODE FROM, ....' MACRO
                                     0933   522 ;
                                     0933   523 	.END	SATSSF01
SATSSF01        - SATS SYSTEM SERVICE TESTS  (FAILING S.C.)      22-AUG-1978 03:38:34   VAX-11 MACRO X0.3-11               Page  28
SYMBOL TABLE                                                                                                                     (1)

$$$CHARS       = 00000048            PROT             000000B1 R     03   SHR$_BADDELIM  = 00001118
$$$FIRSTTC$$$  = 00000000            PRT$C_NA         ********   X   03   SHR$_BADFIELD  = 00001018
$$$STRINGS     = 00000000            PRV$V_ALLSPOOL = 00000004            SHR$_BADFORM   = 00001168
$$ACT$$          000000FC R     07   PRV$V_BUGCHK   = 00000017            SHR$_BADJOBID  = 00001170
$$ARG$$          00000104 R     07   PRV$V_CMEXEC   = 00000001            SHR$_BADJOBNAME= 00001178
$$ASEQ$$         000000F4 R     07   PRV$V_CMKRNL   = 00000000            SHR$_BADKEY    = 00001108
$$CALL$$         000000E8 R     07   PRV$V_DETACH   = 00000005            SHR$_BADLOGIC  = 00001120
$$DISP$$         000001EF R     07   PRV$V_DIAGNOSE = 00000006            SHR$_BADLOGICPC= 00001150
$$ERR$$          000001A9 R     07   PRV$V_EXQUOTA  = 00000013            SHR$_BADLONG   = 00001020
$$EXP$$          00000100 R     07   PRV$V_GROUP    = 00000008            SHR$_BADPRTY   = 00001180
$$INIT$$         000000EC R     07   PRV$V_GRPNAM   = 00000003            SHR$_BADQNAME  = 00001188
$$MAXP$$       = 00000005            PRV$V_LOG_IO   = 00000007            SHR$_BADTIME   = 00001190
$$PSEQ$$         000000F8 R     07   PRV$V_MOUNT    = 00000011            SHR$_BADVALUE  = 00001110
$$SNAD$$         000000F0 R     07   PRV$V_NETMBX   = 00000014            SHR$_BADWORD   = 00001028
$$T1           = 00000004            PRV$V_NOACNT   = 00000009            SHR$_BEGIN     = 00001030
$$T2           = 00000009            PRV$V_OPER     = 00000012            SHR$_BEGIND    = 00001038
$$TSTN$$         00000054 R     04   PRV$V_PHY_IO   = 00000016            SHR$_BEGINT    = 00001040
ACMODE_SXV       000000F9 R     03   PRV$V_PRMCEB   = 0000000A            SHR$_CLICB     = 00001048
ADDRES_SXV       000000A1 R     04   PRV$V_PRMGBL   = 00000018            SHR$_CLOSEDEL  = 00001218
BIT...         = 00001258            PRV$V_PRMMBX   = 0000000B            SHR$_CLOSEIN   = 00001050
CHMRTN           0000092B R     07   PRV$V_PSWAPM   = 0000000C            SHR$_CLOSEOUT  = 00001058
CHM_CONT         00000079 R     04   PRV$V_SETPRI   = 0000000D            SHR$_CONFDEL   = 000011F8
CLEANUP          000007D4 R     07   PRV$V_SETPRV   = 0000000E            SHR$_COPIEDB   = 00001060
CLOB_REG_NO      00000048 R     04   PRV$V_SYSGBL   = 00000019            SHR$_COPIEDR   = 00001068
CTL$GL_PHD       ********   X   07   PRV$V_SYSNAM   = 00000002            SHR$_CREATED   = 00001070
CURRENT_TC       00000004 R     04   PRV$V_TMPMBX   = 0000000F            SHR$_DELETED   = 00001200
EFN_DEF          000000BD R     03   PRV$V_VOLPRO   = 00000015            SHR$_DELINTERR = 00001240
EFN_DEF10        00000091 R     04   PRV$V_WORLD    = 00000010            SHR$_DELVER    = 00001208
EFN_DEF11        00000095 R     04   PRVHND_SXV       000000A5 R     04   SHR$_DIRTOOBUS = 00001220
EFN_DEF12        00000099 R     04   PRVHND_SXV40   = 00000001            SHR$_ENDED     = 00001078
EFN_DEF13        0000009D R     04   PRVHND_SXV41     000000FD R     03   SHR$_ENDEDD    = 00001080
EMPTY            00000000 R     05   PRVHND_SXV42   = 000001FF R     05   SHR$_ENDEDT    = 00001088
ERROR          = 00000002            PRVPRT           00000070 R     04   SHR$_FILNOTDEL = 000011F0
ERR_MSG_FAOCTL   00000002 R     03   R0_THRU_SP     = 00007FFF            SHR$_FILNOTPUR = 00001230
EXECUTE          000007B6 R     07   REGS             0000007D R     04   SHR$_FILPURGED = 00001250
GBL...         = 00000000            REG_AFTER_SS     00000050 R     04   SHR$_HASHCONCAT= 000011D8
GRP_TOTAL      = 00000003            REG_BEFORE_SS    0000004C R     04   SHR$_HIGHVER   = 00001148
INADR            000000A9 R     03   REG_COMP         0000084F R     07   SHR$_IDXCONCAT = 00001138
INFO           = 00000003            REG_COMP_CONT    0000086B R     07   SHR$_INCOMPAT  = 000011E0
LIB$SIGNAL       ********   X   07   REG_COMP_MASK    00000000 R     03   SHR$_NEWFILES  = 00001090
MEXIT          = 00000000            REG_COMP_NEXT    00000861 R     07   SHR$_NOFILPURG = 00001228
MOD_MSG_CODE     00000044 R     04   REG_COMP_RSB     0000090A R     07   SHR$_NOJOBID   = 000011A0
MOD_MSG_PRINT    0000090F R     07   REG_REST         0000083F R     07   SHR$_NOJOBNAME = 000011A8
NAME_DLC         000000C1 R     03   REG_SAVE         0000082E R     07   SHR$_NOQUEUE   = 00001198
NAME_DLC10       000000CE R     03   REG_SAVE_AREA    00000008 R     04   SHR$_NOTCMPLT  = 000011C0
NAME_DLC11       000000ED R     03   RETADR           00000068 R     04   SHR$_NOTCOPIED = 000011B8
NAME_DLC11_A     000000F1 R     03   SATSSF01         00000000 R     07   SHR$_NOVALUE   = 00001100
NARGS          = 00000014            SEVERE         = 00000004            SHR$_NOWILD    = 00001128
NOACCESS         00000000 R     06   SHR$K_SHRDEF   = 00000001            SHR$_OPENIN    = 00001098
ONES             000000B5 R     03   SHR$_ABEND     = 000010D8            SHR$_OPENOUT   = 000010A0
OUTB             00000125 R     07   SHR$_ABENDD    = 000010E0            SHR$_OVERLAY   = 000010A8
OUTD             0000011D R     07   SHR$_ABENDT    = 000010E8            SHR$_PARSEFAIL = 00001248
OUTE             000001A9 R     07   SHR$_APPENDEDB = 00001000            SHR$_PURGEVER  = 00001210
OUTL             000000E4 R     07   SHR$_APPENDEDR = 00001008            SHR$_READERR   = 000010B0
PCB$L_UIC      = 00000020            SHR$_ATPC      = 00001158            SHR$_RELCONCAT = 00001140
PHD$Q_PRIVMSK  = 00000000            SHR$_BADBYTE   = 00001010            SHR$_REPLACED  = 000010B8
PRIVMASK         00000071 R     04   SHR$_BADCOPIES = 00001160            SHR$_RMSERROR  = 000011C8
SATSSF01        - SATS SYSTEM SERVICE TESTS  (FAILING S.C.)      22-AUG-1978 03:38:34   VAX-11 MACRO X0.3-11               Page  29
SYMBOL TABLE                                                                                                                     (1)

SHR$_SEARCHFAIL= 00001238            WARNING        = 00000000
SHR$_SYNTAX    = 000010F8
SHR$_SYSERROR  = 000011B0
SHR$_SYSERRORPC= 000010F0
SHR$_TEXT      = 00001130
SHR$_UNXPCTSTS = 000011D0
SHR$_VALERR    = 000011E8
SHR$_WILDCONCAT= 000010C0
SHR$_WILDOUTVER= 000010C8
SHR$_WRITEERR  = 000010D0
SS$_ACCVIO       ********   X   07
SS$_ILLEFC       ********   X   07
SS$_IVLOGNAM     ********   X   07
STS$V_INHIB_MSG= 0000001C
SUCCESS        = 00000001
SYS$CMKRNL       ********   X   07
SYS$DACEFC       ********   X   07
SYS$DLCEFC       ********   X   07
SYS$EXIT         ********   X   07
SYS$FAO          ********   X   07
SYS$FAOL         ********   X   07
SYS$HIBER        ********   X   07
SYS$SETEXV       ********   X   07
SYS$SETPRN       ********   X   07
SYS$SETPRT       ********   X   07
SYS$WAKE         ********   X   07
TC1              0000024A R     07
TC2              000002B6 R     07
TC3              000002EA R     07
TCG_NO         = 00000003
TC_CONTROL       000007ED R     07
TEST_MOD_BEG     00000077 R     03
TEST_MOD_FAIL    00000088 R     03
TEST_MOD_NAME    0000006E R     03
TEST_MOD_NAME_D  0000008F R     03
TEST_MOD_SUCC    0000007D R     03
TMD_ADDR         00000060 R     04
TMN_ADDR         0000005C R     04
TPID             00000000 R     04
TS1              00000332 R     07
TS2              0000042D R     07
TS3              00000518 R     07
TS_EP            00000064 R     04
TTNAME           0000009F R     03
UETP$_ABORTC   = 0074832B
UETP$_CONF     = 007480D1
UETP$_DATAER   = 00748010
UETP$_DDB      = 007480E1
UETP$_DENOSU   = 00748333
UETP$_DESTP    = 007481A2
UETP$_DEUNUS   = 0074819A
UETP$_ERBOX    = 00748008
UETP$_SATSMS   = 007480D9
UETP$_TEXT     = 00741133
UETP$_UCB      = 007480E9
UETP$_USER     = 0074833B
VECTOR_SXV       000000F5 R     03
SATSSF01        - SATS SYSTEM SERVICE TESTS  (FAILING S.C.)      22-AUG-1978 03:38:34   VAX-11 MACRO X0.3-11               Page  30
PROGRAM SECTION SYNOPSIS                                                                                                         (1)


PROGRAM SECTION SYNOPSIS

.  ABS  .        00000000      00     NOPIC   USR   CON   ABS   LCL NOSHR NOEXE NORD  NOWRT BYTE
. BLANK .        00000000      01     NOPIC   USR   CON   REL   LCL NOSHR   EXE   RD    WRT BYTE
$ABS$            00000000      02     NOPIC   USR   CON   ABS   LCL NOSHR   EXE   RD    WRT BYTE
RODATA           00000101      03     NOPIC   USR   CON   REL   LCL NOSHR NOEXE   RD  NOWRT LONG
RWDATA           000000A9      04     NOPIC   USR   CON   REL   LCL NOSHR NOEXE   RD    WRT BYTE
SATS_ACCVIO_1    00000200      05     NOPIC   USR   CON   REL   LCL NOSHR NOEXE   RD    WRT PAGE
SATS_ACCVIO_2    00000200      06     NOPIC   USR   CON   REL   LCL NOSHR NOEXE   RD    WRT PAGE
SATSSF01         00000933      07     NOPIC   USR   CON   REL   LCL NOSHR   EXE   RD    WRT LONG


THERE WERE NO ERRORS OR WARNINGS.
9962. BYTES LEFT IN FREE MEMORY POOL.
3192. BYTES OF RECLAIMED MEMORY.
OBJ$:SATSSF01,LIS$:SATSSF01/-SP=EXECML$/ML,LIB$:SYSTST.MLB/ML,SRC$:SATSSF01
47 MLB DIR RDS - 880 GETS TO DEFINE 42 MACROS. 46 INTER. FILE WRITES.
