SATSSS82        SATS SYSTEM SERVICE TESTS  $SETPRT (SUCC S.C.)   22-AUG-1978 04:19:22   VAX-11 MACRO X0.3-11               Page   0
TABLE OF CONTENTS

   (1)      48  DECLARATIONS
   (1)      85  CONDITION TABLES
   (1)     127  TM_SETUP, TM_CLEANUP
   (1)     190  CONDITION SUBROUTINES - SETUP AND CLEANUP
   (1)     267  FORM_CONDS
   (1)     360  VERIFY
   (1)     485  VFY_CLEANUP
SATSSS82        SATS SYSTEM SERVICE TESTS  $SETPRT (SUCC S.C.)   22-AUG-1978 04:19:22   VAX-11 MACRO X0.3-11               Page   1
1.0                                                                                                                              (1)

                                     0000     1 	.TITLE	SATSSS82 SATS SYSTEM SERVICE TESTS  $SETPRT (SUCC S.C.)
                                     0000     2 	.IDENT	/1.0/
                                     0000     3
                                     0000     4 ;
                                     0000     5 ;			  COPYRIGHT (c) 1977,1978 BY
                                     0000     6 ;	      DIGITAL EQUIPMENT CORPORATION, MAYNARD, MASS.
                                     0000     7 ;
                                     0000     8 ; THIS SOFTWARE IS FURNISHED UNDER A LICENSE AND MAY BE USED AND  COPIED
                                     0000     9 ; ONLY  IN  ACCORDANCE  WITH  THE  TERMS  OF  SUCH  LICENSE AND WITH THE
                                     0000    10 ; INCLUSION OF THE ABOVE COPYRIGHT NOTICE.  THIS SOFTWARE OR  ANY  OTHER
                                     0000    11 ; COPIES  THEREOF MAY NOT BE PROVIDED OR OTHERWISE MADE AVAILABLE TO ANY
                                     0000    12 ; OTHER PERSON.  NO TITLE TO AND OWNERSHIP OF  THE  SOFTWARE  IS  HEREBY
                                     0000    13 ; TRANSFERRED.
                                     0000    14 ;
                                     0000    15 ; THE INFORMATION IN THIS SOFTWARE IS SUBJECT TO CHANGE  WITHOUT  NOTICE
                                     0000    16 ; AND  SHOULD  NOT  BE  CONSTRUED  AS  A COMMITMENT BY DIGITAL EQUIPMENT
                                     0000    17 ; CORPORATION.
                                     0000    18 ;
                                     0000    19 ; DIGITAL ASSUMES NO RESPONSIBILITY FOR THE USE OR  RELIABILITY  OF  ITS
                                     0000    20 ; SOFTWARE ON EQUIPMENT WHICH IS NOT SUPPLIED BY DIGITAL.
                                     0000    21 ;
                                     0000    22
                                     0000    23 ;++
                                     0000    24 ; FACILITY:	SYSTST (SATS SYSTEM SERVICE TESTS)
                                     0000    25 ;
                                     0000    26 ; ABSTRACT:
                                     0000    27 ;
                                     0000    28 ;		THIS MODULE CONTAINS SUBROUTINES WHICH, WHEN LINKED
                                     0000    29 ; WITH SUCCOMMON.OBJ, FORM TEST MODULE SATSSS82 TO TEST SUCCESSFUL
                                     0000    30 ; OPERATION OF THE $SETPRT SYSTEM SERVICE. THE SERVICE IS INVOKED
                                     0000    31 ; UNDER VARIOUS INPUT CONDITIONS WITH VARYING INPUT PARAMETERS. ONLY
                                     0000    32 ; SUCCESSFUL STATUS CODES ARE EXPECTED IN THIS TEST MODULE.  CORRECT
                                     0000    33 ; OPERATION OF THE SERVICE FOR EACH OF ITS ISSUANCES IS VERIFIED BY
                                     0000    34 ; CHECKING FOR AN SS$_NORMAL STATUS CODE, EXPECTED RETURN ARGUMENTS
                                     0000    35 ; AND EXPECTED FUNCTIONALITY PERFORMED.
                                     0000    36 ;
                                     0000    37 ; ENVIRONMENT:	USER MODE IMAGE; NEEDS CMKRNL PRIVILEGE,
                                     0000    38 ;		DYNAMICALLY ACQUIRES OTHER PRIVILEGES, AS NEEDED.
                                     0000    39 ;
                                     0000    40 ; AUTHOR: THOMAS L. CAFARELLA,		CREATION DATE: JUL, 1977
                                     0000    41 ;
                                     0000    42 ; MODIFIED BY:
                                     0000    43 ;
                                     0000    44 ;	, : VERSION
                                     0000    45 ; 01	-
                                     0000    46 ;--
SATSSS82        SATS SYSTEM SERVICE TESTS  $SETPRT (SUCC S.C.)   22-AUG-1978 04:19:22   VAX-11 MACRO X0.3-11               Page   2
1.0             DECLARATIONS                                                                                                     (1)

                                     0000    48 	.SBTTL	DECLARATIONS
                                     0000    49 ;
                                     0000    50 ; INCLUDE FILES:
                                     0000    51 ;
                                     0000    52 	$PRVDEF				; PRIVILEGE BIT DEFINITIONS
                                     0000    53 	$PHDDEF				; PROCESS HEADER OFFSETS
                                     0000    54 	$PSLDEF				; PROCESSOR STATUS LONGWORD DEFINITIONS
                                     0000    55 ;
                                     0000    56 ; MACROS:
                                     0000    57 ;
                                     0000    58 ;
                                     0000    59 ; EQUATED SYMBOLS:
                                     0000    60 ;
                                     0000    61 ;
                                     0000    62 ; OWN STORAGE:
                                     0000    63 ;
SATSSS82        SATS SYSTEM SERVICE TESTS  $SETPRT (SUCC S.C.)   22-AUG-1978 04:19:22   VAX-11 MACRO X0.3-11               Page   3
1.0             DECLARATIONS                                                                                                     (1)

                                 00000000    65 	.PSECT	RODATA,RD,NOWRT,NOEXE,LONG
                                     0000    66 TEST_MOD_NAME::	STRING	C,<SATSSS82>	; TEST MODULE NAME
                                     0009    67 TEST_MOD_NAME_D: STRING	I,<SATSSS82>	; TEST MODULE NAME DESCRIPTOR
                                     0019    68 MSG1_INP_CTL:	STRING	I,<  SSSPT!4ZW: CONDITIONS:>
                                     0039    69 					; FAO CTL STRING FOR MSG1 IN SUCCOMMON.MAR
                                     0039    70 MSG3_ERR_CTL::	STRING	I,< *SSSPT!4ZW: !AS>
                                     0051    71 					; FAO CTL STRING FOR MSG3 IN SUCCOMMON.MAR
                                 00' 0051    72 RWMODES:	.BYTE	PRT$C_KW, - 	; READ/WRITE
                                 00' 0052    73 			PRT$C_EW, - 	; .. PROT CODE
                                 00' 0053    74 			PRT$C_SW, - 	; .... FOR EACH
                                 00' 0054    75 			PRT$C_UW    	; ...... ACCESS MODE
SATSSS82        SATS SYSTEM SERVICE TESTS  $SETPRT (SUCC S.C.)   22-AUG-1978 04:19:22   VAX-11 MACRO X0.3-11               Page   4
1.0             DECLARATIONS                                                                                                     (1)

                                 00000000    77 	.PSECT	RWDATA,RD,WRT,NOEXE,LONG
                           00000008  0000    78 PRIVMASK:	.BLKQ	1		; ADDR OF PRIVILEGE MASK (IN PHD)
                           0000000C  0008    79 PROT:		.BLKL	1		; PROT ARGUMENT FOR SETPRT
                           00000014  000C    80 RETADR:		.BLKQ	1		; RETADR ARGUMENT FOR SETPRT
                           0000001C  0014    81 INADR:		.BLKQ	1		; INADR ARGUMENT FOR SETPRT
                           0000001D  001C    82 PRVPRT:		.BLKB	1		; PRVPRT ARGUMENT FOR SETPRT
                           00000025  001D    83 INADR2:		.BLKQ	1		; INADR ARGUMENT FOR NON-SUBJECT SETPRT
SATSSS82        SATS SYSTEM SERVICE TESTS  $SETPRT (SUCC S.C.)   22-AUG-1978 04:19:22   VAX-11 MACRO X0.3-11               Page   5
1.0             CONDITION TABLES                                                                                                 (1)

                                     0025    85 	.SBTTL	CONDITION TABLES
                                     0025    86 ;
                                     0025    87 ;	***** CONDITION TABLES FOR SETPRT SYSTEM SERVICE *****
                                     0025    88 ;
                                     0025    89 	COND	1,NOTARG,<REGION>,-
                                     0025    90 		  <PROGRAM>,-
                                     0025    91 		  <CONTROL>,-
                                     0025    92
                           00000000  0045    93 		    .LONG	0	; PROGRAM
                           00000001  0049    94 		    .LONG	1	; CONTROL
                                     004D    95 ;
                                     004D    96 	COND	2,LONG,<ACMODE>,-
                                     004D    97 		  <KERNEL>,-
                                     004D    98 		  <EXEC>,-
                                     004D    99 		  <SUPER>,-
                                     004D   100 		  <USER>,-
                                     004D   101
                           00000000  007C   102 		    .LONG	PSL$C_KERNEL
                           00000001  0080   103 		    .LONG	PSL$C_EXEC
                           00000002  0084   104 		    .LONG	PSL$C_SUPER
                           00000003  0088   105 		    .LONG	PSL$C_USER
                                     008C   106 ;
                                     008C   107 	COND	3,NOTARG,<HIGH-ORDER 2 BITS OF PROT CODE>,-
                                     008C   108 		  <NA, RESERVED, KW, OR KR>,-
                                     008C   109 		  <UW, EW, ERKW, OR ER>,-
                                     008C   110 		  <SW, SREW, SRKW, OR SR>,-
                                     008C   111 		  <URSW, UREW, URKW, OR UR>,-
                                     008C   112
                        03 02 01 00  0116   113 		    .BYTE	0,1,2,3
                                     011A   114 ;
                                     011A   115 	COND	4,NOTARG,<LOW-ORDER 2 BITS OF PROT CODE>,-
                                     011A   116 		  <NA, UW, SW, OR URSW>,-
                                     011A   117 		  <RESERVED, EW, SREW, OR UREW>,-
                                     011A   118 		  <KW, ERKW, SRKW, OR URKW>,-
                                     011A   119 		  <KR, ER, SR, OR UR>,-
                                     011A   120
                        03 02 01 00  01A3   121 		    .BYTE	0,1,2,3
                                     01A7   122 ;
                                     01A7   123 	COND	5,NULL
                                     01A8   124
                                 00000000   125 	.PSECT	SATSSS82,RD,WRT,EXE
SATSSS82        SATS SYSTEM SERVICE TESTS  $SETPRT (SUCC S.C.)   22-AUG-1978 04:19:22   VAX-11 MACRO X0.3-11               Page   6
1.0             TM_SETUP, TM_CLEANUP                                                                                             (1)

                                     0000   127 	.SBTTL	TM_SETUP, TM_CLEANUP
                                     0000   128 ;++
                                     0000   129 ; FUNCTIONAL DESCRIPTION:
                                     0000   130 ;
                                     0000   131 ;		TM_SETUP AND TM_CLEANUP ARE CALLED TO PERFORM
                                     0000   132 ; REQUIRED HOUSEKEEPING AT THE BEGINNING AND END, RESPECTIVELY, OF
                                     0000   133 ; TEST MODULE EXECUTION.
                                     0000   134 ;
                                     0000   135 ; CALLING SEQUENCE:
                                     0000   136 ;
                                     0000   137 ;	BSBW TM_SETUP   BSBW TM_CLEANUP
                                     0000   138 ;
                                     0000   139 ; INPUT PARAMETERS:
                                     0000   140 ;
                                     0000   141 ;	NONE
                                     0000   142 ;
                                     0000   143 ; IMPLICIT INPUTS:
                                     0000   144 ;
                                     0000   145 ;	NONE
                                     0000   146 ;
                                     0000   147 ; OUTPUT PARAMETERS:
                                     0000   148 ;
                                     0000   149 ;	NONE
                                     0000   150 ;
                                     0000   151 ; IMPLICIT OUTPUTS:
                                     0000   152 ;
                                     0000   153 ;	TM_SETUP:  COND TABLE INDEX REGISTERS (R2,3,4,5,6) CLEARED;
                                     0000   154 ;		   ALL PRIVILEGES ACQUIRED.
                                     0000   155 ;
                                     0000   156 ; COMPLETION CODES:
                                     0000   157 ;
                                     0000   158 ;	EFLAG SET TO NON-ZERO IF ERROR ENCOUNTERED.
                                     0000   159 ;
                                     0000   160 ; SIDE EFFECTS:
                                     0000   161 ;
                                     0000   162 ;	SS_CHECK AND ERR_EXIT MACROS CAUSE PREMATURE EXIT
                                     0000   163 ;	(VIA RSB) IF ERROR ENCOUNTERED.
                                     0000   164 ;
                                     0000   165 ;--
                                     0000   166
                                     0000   167
                                     0000   168
                                     0000   169 TM_SETUP::
                          52     D4  0000   170 	CLRL	R2			; INITIALIZE
                          53     D4  0002   171 	CLRL	R3			; .. CONDITION
                          54     D4  0004   172 	CLRL	R4			; .... TABLE
                          55     D4  0006   173 	CLRL	R5			; ...... INDEX
                          56     D4  0008   174 	CLRL	R6			; ........ REGISTERS
                          FFF3'  30  000A   175 	BSBW	MOD_MSG_PRINT		; PRINT TEST MODULE BEGIN MSG
   00000000'EF   00000000'EF     DE  000D   176 	MOVAL	TEST_MOD_SUCC,TMD_ADDR	; ASSUME END MSG WILL SHOW SUCCESS
            00   00000000'8F     F0  0018   177 	INSV	#SUCCESS,#0,#3,MOD_MSG_CODE ; ADJUST STATUS CODE FOR SUCCESS
   00000000'EF            03         001F
                                     0025   178 	MODE	TO,5$,KRNL		; KERNEL MODE TO ACCESS PHD
            59   00000000'9F     D0  0048   179 	MOVL	@#CTL$GL_PHD,R9		; GET PROCESS HEADER ADDRESS
   00000000'EF            69     DE  004F   180 	MOVAL	PHD$Q_PRIVMSK(R9),PRIVMASK ; GET PRIV MASK ADDRESS
                                     0056   181 	MODE	FROM,5$	; BACK TO USER MODE
                                     0057   182 	PRIV	ADD,ALL			; GET ALL PRIVILEGES
SATSSS82        SATS SYSTEM SERVICE TESTS  $SETPRT (SUCC S.C.)   22-AUG-1978 04:19:22   VAX-11 MACRO X0.3-11               Page   7
1.0             TM_SETUP, TM_CLEANUP                                                                                             (1)

                                     0080   183 	$SETPRN_S TEST_MOD_NAME_D 	; SET PROCESS NAME
                                     008D   184 	SS_CHECK  NORMAL		; CHECK STATUS CODE RETURNED FROM SETPRN
                                 05  00BB   185 	RSB				; RETURN TO MAIN ROUTINE
                                     00BC   186 TM_CLEANUP::
                          FF41'  30  00BC   187 	BSBW	MOD_MSG_PRINT		; PRINT TEST MODULE END MSG
                                 05  00BF   188 	RSB				; RETURN TO MAIN ROUTINE
SATSSS82        SATS SYSTEM SERVICE TESTS  $SETPRT (SUCC S.C.)   22-AUG-1978 04:19:22   VAX-11 MACRO X0.3-11               Page   8
1.0             CONDITION SUBROUTINES - SETUP AND CLEANUP                                                                        (1)

                                     00C0   190 	.SBTTL	CONDITION SUBROUTINES - SETUP AND CLEANUP
                                     00C0   191 ;++
                                     00C0   192 ; FUNCTIONAL DESCRIPTION:
                                     00C0   193 ;
                                     00C0   194 ;		CONDX AND CONDX_CLEANUP ARE SUBROUTINES WHICH ARE EXECUTED
                                     00C0   195 ; BEFORE AND AFTER THE VERIFY SUBROUTINE, RESPECTIVELY, WHENEVER A NEW
                                     00C0   196 ; CONDITION X VALUE IS SELECTED (SEE FUNCTIONAL DESCRIPTION OF SUCCOMMON
                                     00C0   197 ; ROUTINE IN SUCCOMMON.MAR). ANY SETUP FUNCTION PARTICULAR TO THE
                                     00C0   198 ; CONDITION X TABLE IS INCLUDED IN THE CONDX SUBROUTINE AND CLEANED
                                     00C0   199 ; UP, IF NECESSARY, IN THE CONDX_CLEANUP SUBROUTINE. THIS INCLUDES,
                                     00C0   200 ; ESPECIALLY, CODE TO DETECT CONFLICTS AMONG CURRENT ENTRIES IN TWO
                                     00C0   201 ; OR MORE CONDITION TABLES. IF A CONFLICT IS DETECTED, A NON-ZERO
                                     00C0   202 ; VALUE IS STORED INTO CONFLICT, WHICH CAUSES THE CALLING ROUTINE
                                     00C0   203 ; (SUCCOMMON) TO SKIP THE CURRENT ENTRY IN THE CONDITION X TABLE.
                                     00C0   204 ;
                                     00C0   205 ; CALLING SEQUENCE:
                                     00C0   206 ;
                                     00C0   207 ;	BSBW CONDX   BSBW CONDX_CLEANUP
                                     00C0   208 ;	  WHERE X = 1,2,3,4,5
                                     00C0   209 ;
                                     00C0   210 ; INPUT PARAMETERS:
                                     00C0   211 ;
                                     00C0   212 ;	CONFLICT = 0
                                     00C0   213 ;
                                     00C0   214 ; IMPLICIT INPUTS:
                                     00C0   215 ;
                                     00C0   216 ;	R2,3,4,5,6 CONTAIN CURRENT CONDITION TABLE INDEX VALUES
                                     00C0   217 ;	  FOR COND TABLES 1,2,3,4,5, RESPECTIVELY.
                                     00C0   218 ;
                                     00C0   219 ; OUTPUT PARAMETERS:
                                     00C0   220 ;
                                     00C0   221 ;	CONFLICT SET TO NON-ZERO IF COND TABLE CONFLICT DETECTED.
                                     00C0   222 ;
                                     00C0   223 ; IMPLICIT OUTPUTS:
                                     00C0   224 ;
                                     00C0   225 ;	R2,3,4,5,6 PRESERVED
                                     00C0   226 ;
                                     00C0   227 ; COMPLETION CODES:
                                     00C0   228 ;
                                     00C0   229 ;	NONE
                                     00C0   230 ;
                                     00C0   231 ; SIDE EFFECTS:
                                     00C0   232 ;
                                     00C0   233 ;	NONE
                                     00C0   234 ;
                                     00C0   235 ;--
                                     00C0   236
                                     00C0   237
                                     00C0   238
                                     00C0   239 COND1::
                                 05  00C0   240 	RSB				; RETURN TO MAIN ROUTINE
                                     00C1   241 COND1_CLEANUP::
                                 05  00C1   242 	RSB				; RETURN TO MAIN ROUTINE
                                     00C2   243 COND2::
                                 05  00C2   244 	RSB				; RETURN TO MAIN ROUTINE
                                     00C3   245 COND2_CLEANUP::
                                 05  00C3   246 	RSB				; RETURN TO MAIN ROUTINE
SATSSS82        SATS SYSTEM SERVICE TESTS  $SETPRT (SUCC S.C.)   22-AUG-1978 04:19:22   VAX-11 MACRO X0.3-11               Page   9
1.0             CONDITION SUBROUTINES - SETUP AND CLEANUP                                                                        (1)

                                     00C4   247 COND3::
                                 05  00C4   248 	RSB				; RETURN TO MAIN ROUTINE
                                     00C5   249 COND3_CLEANUP::
                                 05  00C5   250 	RSB				; RETURN TO MAIN ROUTINE
                                     00C6   251 COND4::
                 00000116'EF44   95  00C6   252 	TSTB	COND3_E[R4]		; FIRST CONDITION 3 ELEMENT ?
                          15     12  00CD   253 	BNEQ	COND4X			; NO -- ALL IS OK
            01   000001A3'EF45   91  00CF   254 	CMPB	COND4_E[R5],#1		; 2ND CONDITION 4 ELEMENT ?
                          0B     12  00D7   255 	BNEQ	COND4X			; NO -- ALL IS OK
                                     00D9   256 					; YES -- THIS PROT CODE RESERVED
   00000000'EF   00000000'EF     90  00D9   257 	MOVB	ONES,CONFLICT		; INDICATE CONFLICT
                                     00E4   258 COND4X:
                                 05  00E4   259 	RSB				; RETURN TO MAIN ROUTINE
                                     00E5   260 COND4_CLEANUP::
                                 05  00E5   261 	RSB				; RETURN TO MAIN ROUTINE
                                     00E6   262 COND5::
                                 05  00E6   263 	RSB				; RETURN TO MAIN ROUTINE
                                     00E7   264 COND5_CLEANUP::
                                 05  00E7   265 	RSB				; RETURN TO MAIN ROUTINE
SATSSS82        SATS SYSTEM SERVICE TESTS  $SETPRT (SUCC S.C.)   22-AUG-1978 04:19:22   VAX-11 MACRO X0.3-11               Page  10
1.0             FORM_CONDS                                                                                                       (1)

                                     00E8   267 	.SBTTL	FORM_CONDS
                                     00E8   268 ;++
                                     00E8   269 ; FUNCTIONAL DESCRIPTION:
                                     00E8   270 ;
                                     00E8   271 ; 		FORM_CONDS FORMATS AND PRINTS INFORMATION ABOUT
                                     00E8   272 ;  THE CURRENT ELEMENT IN EACH OF THE CONDITION TABLES.
                                     00E8   273 ;
                                     00E8   274 ; CALLING SEQUENCE:
                                     00E8   275 ;
                                     00E8   276 ;	BSBW FORM_CONDS
                                     00E8   277 ;
                                     00E8   278 ; INPUT PARAMETERS:
                                     00E8   279 ;
                                     00E8   280 ;	NONE
                                     00E8   281 ;
                                     00E8   282 ; IMPLICIT INPUTS:
                                     00E8   283 ;
                                     00E8   284 ;	R2,3,4,5,6 CONTAIN CURRENT CONDITION TABLE INDEX VALUES
                                     00E8   285 ;	  FOR COND TABLES 1,2,3,4,5, RESPECTIVELY.
                                     00E8   286 ;	FOR X = 1,2,3,4,5 :
                                     00E8   287 ;		CONDX_T - TITLE TEXT FOR CONDX TABLE
                                     00E8   288 ;		CONDX_TAB - ELEMENT TEXT FOR CONDX TABLE
                                     00E8   289 ;		CONDX_C - CONTEXT OF THE CONDX TABLE
                                     00E8   290 ;		CONDX_E - DATA ELEMENTS OF THE CONDX TABLE
                                     00E8   291 ;
                                     00E8   292 ; OUTPUT PARAMETERS:
                                     00E8   293 ;
                                     00E8   294 ;	NONE
                                     00E8   295 ;
                                     00E8   296 ; IMPLICIT OUTPUTS:
                                     00E8   297 ;
                                     00E8   298 ;	NONE
                                     00E8   299 ;
                                     00E8   300 ; COMPLETION CODES:
                                     00E8   301 ;
                                     00E8   302 ;	NONE
                                     00E8   303 ;
                                     00E8   304 ; SIDE EFFECTS:
                                     00E8   305 ;
                                     00E8   306 ;	NONE
                                     00E8   307 ;
                                     00E8   308 ;--
                                     00E8   309
                                     00E8   310
                                     00E8   311
                                     00E8   312 FORM_CONDS::
                                     00E8   313 	$FAO_S	MSG1_INP_CTL,FAO_LEN,FAO_DESC,TESTNUM
                                     0107   314 					; FORMAT CONDITIONS HEADER MSG
                          FEF6'  30  0107   315 	BSBW	OUTPUT_MSG		; ... AND PRINT IT
            14            00     91  010A   316 	CMPB	#COND1_C,#NULL		; IS CONDITION 1 NULL ?
                          03     12  010D   317 	BNEQU	10$			; NO -- CONTINUE
                          00CB   31  010F   318 	BRW	FORM_CONDSX		; YES -- SUBROUTINE IS FINISHED
                                     0112   319 10$:
   00000000'EF   00000025'EF     DE  0112   320 	MOVAL	COND1_T,MSG_A		; SAVE ADDRESS OF CONDITION 1 TITLE FOR FAO
   00000000'EF   0000002D'EF42   D0  011D   321 	MOVL	COND1_TAB[R2],MSG_B 	; SAVE ADDR OF COND 1 CURR TEXT ELT FOR FAO
   00000000'EF            00     90  0129   322 	MOVB	#COND1_C,MSG_CTXT 	; SAVE CONDITION 1 CONTEXT FOR FAO
                                     0130   323 	MOV_VAL	COND1_C,COND1_E[R2],MSG_DATA1 ; GIVE COND 1 DATA VALUE TO FAO
SATSSS82        SATS SYSTEM SERVICE TESTS  $SETPRT (SUCC S.C.)   22-AUG-1978 04:19:22   VAX-11 MACRO X0.3-11               Page  11
1.0             FORM_CONDS                                                                                                       (1)

                          FECD'  30  0130   324 	BSBW	WRITE_MSG2		; FORMAT AND WRITE CONDITION 1 MSG
            14            04     91  0133   325 	CMPB	#COND2_C,#NULL		; IS CONDITION 2 NULL ?
                          03     12  0136   326 	BNEQU	20$			; NO -- CONTINUE
                          00A2   31  0138   327 	BRW	FORM_CONDSX		; YES -- SUBROUTINE IS FINISHED
                                     013B   328 20$:
   00000000'EF   0000004D'EF     DE  013B   329 	MOVAL	COND2_T,MSG_A		; SAVE ADDRESS OF CONDITION 2 TITLE FOR FAO
   00000000'EF   00000055'EF43   D0  0146   330 	MOVL	COND2_TAB[R3],MSG_B 	; SAVE ADDR OF COND 2 CURR TEXT ELT FOR FAO
   00000000'EF            04     90  0152   331 	MOVB	#COND2_C,MSG_CTXT 	; SAVE CONDITION 2 CONTEXT FOR FAO
                                     0159   332 	MOV_VAL	COND2_C,COND2_E[R3],MSG_DATA1 ; GIVE COND 2 DATA VALUE TO FAO
                          FE98'  30  0165   333 	BSBW	WRITE_MSG2		; FORMAT AND WRITE CONDITION 2 MSG
            14            00     91  0168   334 	CMPB	#COND3_C,#NULL		; IS CONDITION 3 NULL ?
                          03     12  016B   335 	BNEQU	30$			; NO -- CONTINUE
                          006D   31  016D   336 	BRW	FORM_CONDSX		; YES -- SUBROUTINE IS FINISHED
                                     0170   337 30$:
   00000000'EF   0000008C'EF     DE  0170   338 	MOVAL	COND3_T,MSG_A		; SAVE ADDRESS OF CONDITION 3 TITLE FOR FAO
   00000000'EF   000000AC'EF44   D0  017B   339 	MOVL	COND3_TAB[R4],MSG_B 	; SAVE ADDR OF COND 3 CURR TEXT ELT FOR FAO
   00000000'EF            00     90  0187   340 	MOVB	#COND3_C,MSG_CTXT 	; SAVE CONDITION 3 CONTEXT FOR FAO
                                     018E   341 	MOV_VAL	COND3_C,COND3_E[R4],MSG_DATA1 ; GIVE COND 3 DATA VALUE TO FAO
                          FE6F'  30  018E   342 	BSBW	WRITE_MSG2		; FORMAT AND WRITE CONDITION 3 MSG
            14            00     91  0191   343 	CMPB	#COND4_C,#NULL		; IS CONDITION 4 NULL ?
                          47     13  0194   344 	BEQLU	FORM_CONDSX		; YES -- SUBROUTINE IS FINISHED
   00000000'EF   0000011A'EF     DE  0196   345 	MOVAL	COND4_T,MSG_A		; SAVE ADDRESS OF CONDITION 4 TITLE FOR FAO
   00000000'EF   00000139'EF45   D0  01A1   346 	MOVL	COND4_TAB[R5],MSG_B 	; SAVE ADDR OF COND 4 CURR TEXT ELT FOR FAO
   00000000'EF            00     90  01AD   347 	MOVB	#COND4_C,MSG_CTXT 	; SAVE CONDITION 4 CONTEXT FOR FAO
                                     01B4   348 	MOV_VAL	COND4_C,COND4_E[R5],MSG_DATA1 ; GIVE COND 4 DATA VALUE TO FAO
                          FE49'  30  01B4   349 	BSBW	WRITE_MSG2		; FORMAT AND WRITE CONDITION 4 MSG
            14            14     91  01B7   350 	CMPB	#COND5_C,#NULL		; IS CONDITION 5 NULL ?
                          21     13  01BA   351 	BEQLU	FORM_CONDSX		; YES -- SUBROUTINE IS FINISHED
   00000000'EF   000001A7'EF     DE  01BC   352 	MOVAL	COND5_T,MSG_A		; SAVE ADDRESS OF CONDITION 5 TITLE FOR FAO
   00000000'EF   000001A7'EF46   D0  01C7   353 	MOVL	COND5_TAB[R6],MSG_B 	; SAVE ADDR OF COND 5 CURR TEXT ELT FOR FAO
   00000000'EF            14     90  01D3   354 	MOVB	#COND5_C,MSG_CTXT 	; SAVE CONDITION 5 CONTEXT FOR FAO
                                     01DA   355 	MOV_VAL	COND5_C,COND5_E[R6],MSG_DATA1 ; GIVE COND 5 DATA VALUE TO FAO
                          FE23'  30  01DA   356 	BSBW	WRITE_MSG2		; FORMAT AND WRITE CONDITION 5 MSG
                                     01DD   357 FORM_CONDSX:
                                 05  01DD   358 	RSB				; RETURN TO CALLER
SATSSS82        SATS SYSTEM SERVICE TESTS  $SETPRT (SUCC S.C.)   22-AUG-1978 04:19:22   VAX-11 MACRO X0.3-11               Page  12
1.0             VERIFY                                                                                                           (1)

                                     01DE   360 	.SBTTL	VERIFY
                                     01DE   361 ;++
                                     01DE   362 ; FUNCTIONAL DESCRIPTION:
                                     01DE   363 ;
                                     01DE   364 ;		VERIFY IS CALLED ONCE FOR EACH COMBINATION OF CONDITION
                                     01DE   365 ; TABLE VALUES (AS DETERMINED BY THE INDEX REGISTERS R2,3,4,5,6 FOR
                                     01DE   366 ; COND TABLES 1,2,3,4,5, RESPECTIVELY). VERIFY ESTABLISHES THE CONDITIONS
                                     01DE   367 ; SPECIFIED BY THE COND TABLES AND ISSUES THE SUBJECT SYSTEM SERVICE
                                     01DE   368 ; ($SETPRT). THEN, THE SUCCESSFUL OPERATION OF THE SERVICE IS VERIFIED
                                     01DE   369 ; BY EXAMINING THE STATUS CODE RETURNED, THE VALUES FOR RETURN ARGUMENTS
                                     01DE   370 ; AND THE FUNCTIONALITY PERFORMED. THE EXAMINATIONS TAKE THE FORM OF
                                     01DE   371 ; COMPARISONS AGAINST EXPECTED VALUES. ANY FAILING COMPARISON CAUSES AN
                                     01DE   372 ; ERR_EXIT MACRO TO BE EXECUTED (EITHER DIRECTLY, OR INDIRECTLY,
                                     01DE   373 ; THROUGH THE SS_CHECK MACRO); ERR_EXIT SETS EFLAG TO NON-ZERO,
                                     01DE   374 ; PRINTS ERROR MESSAGES AND CAUSES AN IMMEDIATE RSB TO CALLER.
                                     01DE   375 ; WHEN ERR_EXIT IS EXECUTED, FURTHER CALLS TO VERIFY ARE SUPPRESSED,
                                     01DE   376 ; AND, AFTER EXECUTING CLEANUP SUBROUTINES, THE IMAGE EXITS.
                                     01DE   377 ;
                                     01DE   378 ; CALLING SEQUENCE:
                                     01DE   379 ;
                                     01DE   380 ;	BSBW VERIFY
                                     01DE   381 ;
                                     01DE   382 ; INPUT PARAMETERS:
                                     01DE   383 ;
                                     01DE   384 ;	NONE
                                     01DE   385 ;
                                     01DE   386 ; IMPLICIT INPUTS:
                                     01DE   387 ;
                                     01DE   388 ;	R2,3,4,5,6 CONTAIN CURRENT CONDITION TABLE INDEX VALUES
                                     01DE   389 ;	  FOR COND TABLES 1,2,3,4,5, RESPECTIVELY.
                                     01DE   390 ;	FOR X = 1,2,3,4,5 :
                                     01DE   391 ;		CONDX_E - ADDRESS OF TABLE OF DATA VALUES FOR CONDX
                                     01DE   392 ;		  TABLE. IF THE CONTEXT OF TABLE X IS A SYSTEM SERVICE
                                     01DE   393 ;		  ARGUMENT, THE ARGUMENT NAME MAY BE USED AS A SYNONYM
                                     01DE   394 ;		  FOR CONDX_E.
                                     01DE   395 ;
                                     01DE   396 ; OUTPUT PARAMETERS:
                                     01DE   397 ;
                                     01DE   398 ;	NONE
                                     01DE   399 ;
                                     01DE   400 ; IMPLICIT OUTPUTS:
                                     01DE   401 ;
                                     01DE   402 ;	VERIFY HAS NO OUTPUT. SINCE ITS PURPOSE IS TO TEST FOR ERRORS,
                                     01DE   403 ;	IT MERELY RETURNS TO CALLER NORMALLY AFTER THE TESTS, PROVIDING
                                     01DE   404 ;	ALL WERE SUCCESSFUL; IF AN ERROR IS DISCOVERED, RETURN IS VIA
                                     01DE   405 ;	AN ERR_EXIT OR SS_CHECK MACRO, BOTH OF WHICH DOCUMENT DETECTED
                                     01DE   406 ;	ERRORS.
                                     01DE   407 ;
                                     01DE   408 ; COMPLETION CODES:
                                     01DE   409 ;
                                     01DE   410 ;	EFLAG SET TO NON-ZERO IF ERROR ENCOUNTERED.
                                     01DE   411 ;
                                     01DE   412 ; SIDE EFFECTS:
                                     01DE   413 ;
                                     01DE   414 ;	SS_CHECK AND ERR_EXIT MACROS CAUSE PREMATURE EXIT
                                     01DE   415 ;	(VIA RSB) IF ERROR ENCOUNTERED.
                                     01DE   416 ;
SATSSS82        SATS SYSTEM SERVICE TESTS  $SETPRT (SUCC S.C.)   22-AUG-1978 04:19:22   VAX-11 MACRO X0.3-11               Page  13
1.0             VERIFY                                                                                                           (1)

                                     01DE   417 ;--
                                     01DE   418
                                     01DE   419
                                     01DE   420
                                     01DE   421 VERIFY::
                 00000000'EF     95  01DE   422 	TSTB	CFLAG			; SHOULD CONDITIONS BE PRINTED ?
                          03     13  01E4   423 	BEQL	5$			; NO -- CONTINUE
                          FEFF   30  01E6   424 	BSBW	FORM_CONDS		; YES -- FMT & PRINT ALL CONDS FOR THIS T.C.
                                     01E9   425 5$:
                 00000014'EF     7C  01E9   426 	CLRQ	INADR			; CLEAR TO INDICATE EXPREG NOT ISSUED YET
                                     01EF   427 	MODE	TO,7$,KRNL		; LET ACMODE ARGUMENT CONTROL MODE
                                     0212   428 	$EXPREG_S PAGCNT=#25, RETADR=INADR, ACMODE=ACMODE[R3], -
                                     0212   429 		  REGION=COND1_E[R2] 	; GRAB A HUNK OF SPACE
                                     022F   430 	MODE	FROM,7$			; BACK TO USER MODE
                                     0230   431 	SS_CHECK NORMAL			; CHECK NORMAL COMPLETION
   00000008'EF         FF 8F     98  025E   432 	CVTBL	#-1,PROT		; TRY TO CONFUSE SETPRT WITH HI-ORDER BITS
   00000008'EF   000001A3'EF45   90  0266   433 	MOVB	COND4_E[R5],PROT 	; GET 2 LOW-ORDER BITS OF PROT CODE
            59   00000116'EF44   90  0272   434 	MOVB	COND3_E[R4],R9		; PICK UP 2 HI-ORDER BITS ...
            02            59     F0  027A   435 	INSV	R9,#2,#2,PROT		; ... AND FORM A COMPLETE CODE
   00000008'EF            02         027D
                                     0283   436 	MODE	TO,10$,KRNL		; LET ACMODE ARGUMENT CONTROL MODE
                                     02A6   437 ;
                                     02A6   438 ; ****** SYSTEM SERVICE CALL WHICH IS THE SUBJECT OF THIS TEST CASE ******
                                     02A6   439 ;
                                     02A6   440 	$SETPRT_S INADR,RETADR,ACMODE[R3],PROT,PRVPRT
                                     02CC   441 	MODE	FROM,10$		; BACK TO USER MODE
   00000000'8F            50     D1  02CD   442 	CMPL	R0,#SS$_NORMAL		; CODE RECEIVED = CODE EXPECTED ?
                          03     12  02D4   443 	BNEQU	20$			; NO -- GO PROCESS ERROR
                          0061   31  02D6   444 	BRW	30$			; YES -- CONTINUE
                                     02D9   445 20$:
   00000000'EF   00000000'8F     D0  02D9   446 	MOVL	#SS$_NORMAL,EXPV 	; LOAD UP EXPECTED AND ...
   00000000'EF            50     D0  02E4   447 	MOVL	R0,RECV			; ... RECEIVED VALUES, THEN EXIT
                                     02EB   448 	ERR_EXIT LONG,<INCORRECT STATUS CODE RETURNED FROM SETPRT>
                                     033A   449 30$:
   0000000C'EF   00000014'EF     D1  033A   450 	CMPL	INADR,RETADR		; DID SETPRT BEGIN AT RIGHT PLACE ?
                          0F     12  0345   451 	BNEQU	35$			; NO -- ERROR
   00000010'EF   00000018'EF     D1  0347   452 	CMPL	INADR+4,RETADR+4 	; DID IT DO ALL OF THE PAGES ?
                          02     12  0352   453 	BNEQU	35$			; NO -- THAT'S NO GOOD EITHER
                          6E     11  0354   454 	BRB	40$			; YES -- ALL IS OK, SO FAR
                                     0356   455 35$:
   00000000'EF   00000014'EF     7D  0356   456 	MOVQ	INADR,EXPV		; LOAD UP PAIR OF EXPECTED ...
   00000000'EF   0000000C'EF     7D  0361   457 	MOVQ	RETADR,RECV		; ... AND RECEIVED VALUES, THEN EXIT
                                     036C   458 	ERR_EXIT QUAD,<SETPRT DID NOT FUNCTION >, -
                                     036C   459 		      <ON REQUESTED RANGE OF PAGES>
                                     03C4   460 40$:
   00000051'EF43 0000001C'EF     91  03C4   461 	CMPB	PRVPRT,RWMODES[R3] 	; WAS PREV PROT R/W ?
                          65     13  03D0   462 	BEQLU	60$			; YES -- DO MORE CHECKING
   00000000'EF   00000051'EF43   90  03D2   463 	MOVB	RWMODES[R3],EXPV 	; NO -- LOAD UP EXPECTED AND ...
   00000000'EF   0000001C'EF     90  03DE   464 	MOVB	PRVPRT,RECV		; ... RECEIVED VALUES, THEN EXIT
                                     03E9   465 	ERR_EXIT BYTE,<INCORRECT PRVPRT VALUE RETURNED BY SETPRT>
                                     0437   466 60$:
         00'8F   00000008'EF     91  0437   467 	CMPB	PROT,#PRT$C_NA		; IS PROT CODE NO-ACCESS ?
                          08     12  043F   468 	BNEQU	70$			; NO -- CONTINUE
   00000008'EF         00'8F     90  0441   469 	MOVB	#PRT$C_KR,PROT		; YES -- NA IS CHANGED TO KR
                                     0449   470 70$:
   0000001D'EF   00000014'EF     D0  0449   471 	MOVL	INADR,INADR2		; REQUEST A SETPRT ON 1 PAGE ...
   00000021'EF   00000014'EF     D0  0454   472 	MOVL	INADR,INADR2+4		; ... TO VERIFY PROT CODE
SATSSS82        SATS SYSTEM SERVICE TESTS  $SETPRT (SUCC S.C.)   22-AUG-1978 04:19:22   VAX-11 MACRO X0.3-11               Page  14
1.0             VERIFY                                                                                                           (1)

                                     045F   473 	MODE	TO,65$,KRNL		; GET KERNEL MODE
                                     0482   474 	$SETPRT_S INADR2,RETADR,ACMODE[R3],PROT,PRVPRT
                                     04A8   475 	MODE	FROM,65$		; BACK TO USER MODE
                                     04A9   476 	SS_CHECK NORMAL			; CHECK FOR NORMAL RETURN
   00000008'EF   0000001C'EF     91  04D7   477 	CMPB	PRVPRT,PROT		; DID SETPRT RETURN SAME PROT VALUE ?
                          5C     13  04E2   478 	BEQLU	VERIFYX			; YES -- OK
   00000000'EF   00000008'EF     90  04E4   479 	MOVB	PROT,EXPV		; NO -- LOAD UP EXPECTED AND ...
   00000000'EF   0000001C'EF     90  04EF   480 	MOVB	PRVPRT,RECV		; ... RECEIVED VALUES, THEN EXIT
                                     04FA   481 	ERR_EXIT BYTE,<PROT CODE NOT PRESERVED BY SETPRT>
                                     0540   482 VERIFYX:
                                 05  0540   483 	RSB				; RETURN TO CALLER
SATSSS82        SATS SYSTEM SERVICE TESTS  $SETPRT (SUCC S.C.)   22-AUG-1978 04:19:22   VAX-11 MACRO X0.3-11               Page  15
1.0             VFY_CLEANUP                                                                                                      (1)

                                     0541   485 	.SBTTL	VFY_CLEANUP
                                     0541   486 ;++
                                     0541   487 ; FUNCTIONAL DESCRIPTION:
                                     0541   488 ;
                                     0541   489 ;		VFY_CLEANUP EXECUTES SYSTEM SERVICES TO UNDO THE
                                     0541   490 ; EFFECT OF THOSE ISSUED IN THE VERIFY SUBROUTINE. VFY_CLEANUP MUST
                                     0541   491 ; ASSUME THAT VERIFY MAY NOT HAVE EXECUTED IN ITS ENTIRETY (IF AN
                                     0541   492 ; ERROR IS FOUND). ALSO, VFY_CLEANUP MAY ISSUE SS_CHECK OR ERR_EXIT
                                     0541   493 ; ONLY AFTER PERFORMING ALL OF ITS CLEANUP OPERATIONS; THIS IS REQUIRED
                                     0541   494 ; IN THE EVENT THAT VFY_CLEANUP IS CALLED DURING ERROR PROCESSING,
                                     0541   495 ; WHEN PERFORMING THE REQUIRED CLEANUP IS MORE IMPORTANT THAN
                                     0541   496 ; POSSIBLY DISCOVERING A SECOND ERROR.
                                     0541   497 ;
                                     0541   498 ; CALLING SEQUENCE:
                                     0541   499 ;
                                     0541   500 ;	BSBW VFY_CLEANUP
                                     0541   501 ;
                                     0541   502 ; INPUT PARAMETERS:
                                     0541   503 ;
                                     0541   504 ;	NONE
                                     0541   505 ;
                                     0541   506 ; IMPLICIT INPUTS:
                                     0541   507 ;
                                     0541   508 ;	R2,3,4,5,6 CONTAIN CURRENT CONDITION TABLE INDEX VALUES
                                     0541   509 ;	  FOR COND TABLES 1,2,3,4,5, RESPECTIVELY.
                                     0541   510 ;	FOR X = 1,2,3,4,5 :
                                     0541   511 ;		CONDX_E - ADDRESS OF TABLE OF DATA VALUES FOR CONDX
                                     0541   512 ;		  TABLE. IF THE CONTEXT OF TABLE X IS A SYSTEM SERVICE
                                     0541   513 ;		  ARGUMENT, THE ARGUMENT NAME MAY BE USED AS A SYNONYM
                                     0541   514 ;		  FOR CONDX_E.
                                     0541   515 ;
                                     0541   516 ; OUTPUT PARAMETERS:
                                     0541   517 ;
                                     0541   518 ;	NONE
                                     0541   519 ;
                                     0541   520 ; IMPLICIT OUTPUTS:
                                     0541   521 ;
                                     0541   522 ;	NONE
                                     0541   523 ;
                                     0541   524 ; COMPLETION CODES:
                                     0541   525 ;
                                     0541   526 ;	EFLAG SET TO NON-ZERO IF ERROR ENCOUNTERED.
                                     0541   527 ;
                                     0541   528 ; SIDE EFFECTS:
                                     0541   529 ;
                                     0541   530 ;	SS_CHECK AND ERR_EXIT MACROS CAUSE PREMATURE EXIT
                                     0541   531 ;	(VIA RSB) IF ERROR ENCOUNTERED.
                                     0541   532 ;
                                     0541   533 ;--
                                     0541   534
                                     0541   535
                                     0541   536
                                     0541   537 VFY_CLEANUP::
                 00000014'EF     D5  0541   538 	TSTL	INADR			; DID EXPREG GET ISSUED SUCCESSFULLY ?
                          03     12  0547   539 	BNEQ	10$			; YES -- CONTINUE
                          0068   31  0549   540 	BRW	VFY_CLEANUPX		; NO -- JUST EXIT
                                     054C   541 10$:
SATSSS82        SATS SYSTEM SERVICE TESTS  $SETPRT (SUCC S.C.)   22-AUG-1978 04:19:22   VAX-11 MACRO X0.3-11               Page  16
1.0             VFY_CLEANUP                                                                                                      (1)

                                     054C   542 	MODE	TO,20$,KRNL		; NEED KERNEL TO SPECIFY MODE
                                     056F   543 	$DELTVA_S INADR,,ACMODE[R3] 	; GET RID OF EXPANDED REGION
                                     0585   544 	MODE	FROM,20$		; BACK TO USER MODE
                                     0586   545 	SS_CHECK NORMAL			; CHECK RETURN FROM DELTVA
                                     05B4   546 VFY_CLEANUPX:
                                 05  05B4   547 	RSB				; RETURN TO CALLER
                                     05B5   548 	.END
SATSSS82        SATS SYSTEM SERVICE TESTS  $SETPRT (SUCC S.C.)   22-AUG-1978 04:19:22   VAX-11 MACRO X0.3-11               Page  17
SYMBOL TABLE                                                                                                                     (1)

$$$$           = 00000504 R     05   EXPV             ********   X   05   PHD$L_R13        000000BC
$$$CHARS       = 00000021            FAO_DESC         ********   X   05   PHD$L_R2         00000090
$$$CHARS1      = 00000013            FAO_LEN          ********   X   05   PHD$L_R3         00000094
$$$CHARS2      = 0000001B            FORM_CONDS       000000E8 RG    05   PHD$L_R4         00000098
$$$CHARS3      = 00000017            FORM_CONDSX      000001DD R     05   PHD$L_R5         0000009C
$$$CHARS4      = 00000011            GBL...         = 00000000            PHD$L_R6         000000A0
$$$CHARS5      = 00000000            INADR            00000014 R     04   PHD$L_R7         000000A4
$$$COND_A      = 00000003            INADR2           0000001D R     04   PHD$L_R8         000000A8
$$$STRINGS     = 00000001            LONG           = 00000004  G         PHD$L_R9         000000AC
$$$STRINGS2    = 00000005            MOD_MSG_CODE     ********   X   05   PHD$L_REFERFLT   00000014
$$T2           = 00000004            MOD_MSG_PRINT    ********   X   05   PHD$L_SSP        00000080
ACMODE           0000007C R     04   MSG1_INP_CTL     00000019 R     03   PHD$L_USP        00000084
BIT...         = 00000000            MSG3_ERR_CTL     00000039 RG    03   PHD$L_WSL        00000118
BYTE           = 00000001  G         MSG_A            ********   X   05   PHD$M_DALCSTX  = 00000002
CFLAG            ********   X   05   MSG_B            ********   X   05   PHD$M_PFMFLG   = 00000001
CHMRTN           ********   X   05   MSG_CTXT         ********   X   05   PHD$M_WSPEAKCHK= 00000004
CHM_CONT         ********   X   05   MSG_DATA1        ********   X   05   PHD$Q_PRIVMSK    00000000
COMP_SC          ********   X   05   NOTARG         = 00000000  G         PHD$S_ASTLVL   = 00000008
COND1            000000C0 RG    05   NULL           = 00000014  G         PHD$S_P0LR     = 00000018
COND1_C        = 00000000            ONES             ********   X   05   PHD$V_ASTLVL   = 00000018
COND1_CLEANUP    000000C1 RG    05   OUTPUT_MSG       ********   X   05   PHD$V_DALCSTX  = 00000001
COND1_E          00000045 R     04   PCV              ********   X   05   PHD$V_P0LR     = 00000000
COND1_H          0000002C RG    04   PHD$B_ASTLVL     000000CF            PHD$V_PFMFLG   = 00000000
COND1_T          00000025 R     04   PHD$B_DFPFC      00000038            PHD$V_WSPEAKCHK= 00000002
COND1_TAB        0000002D R     04   PHD$B_PAGFIL     0000001F            PHD$W_ASTLM      00000044
COND2            000000C2 RG    05   PHD$B_PGTBPFC    00000039            PHD$W_BAK        00000048
COND2_C        = 00000004            PHD$C_LENGTH     00000118            PHD$W_DFWSCNT    0000001A
COND2_CLEANUP    000000C3 RG    05   PHD$C_PHDPAGCTX= 00000008            PHD$W_EMPTPG     000000D8
COND2_E          0000007C R     04   PHD$K_LENGTH     00000118            PHD$W_EXTDYNWS   00000076
COND2_H          00000054 RG    04   PHD$L_BIOCNT     00000054            PHD$W_FILLM      00000060
COND2_T          0000004D R     04   PHD$L_CPULIM     00000058            PHD$W_FLAGS      0000003A
COND2_TAB        00000055 R     04   PHD$L_CPUTIM     0000003C            PHD$W_PHVINDEX   00000046
COND3            000000C4 RG    05   PHD$L_DIOCNT     00000050            PHD$W_PRCLM      00000042
COND3_C        = 00000000            PHD$L_ESP        0000007C            PHD$W_PST        00000020
COND3_CLEANUP    000000C5 RG    05   PHD$L_FREP0VA    00000028            PHD$W_PSTBASMAX  0000004A
COND3_E          00000116 R     04   PHD$L_FREP1VA    00000030            PHD$W_PSTFREE    00000026
COND3_H          000000AB RG    04   PHD$L_FREPTECNT  0000002C            PHD$W_PSTLAST    00000024
COND3_T          0000008C R     04   PHD$L_KSP        00000078            PHD$W_PTCNTACT   00000070
COND3_TAB        000000AC R     04   PHD$L_P0BR       000000C8            PHD$W_PTCNTLCK   0000006C
COND4            000000C6 RG    05   PHD$L_P0LRASTL   000000CC            PHD$W_PTCNTMAX   00000072
COND4X           000000E4 R     05   PHD$L_P1BR       000000D0            PHD$W_PTCNTVAL   0000006E
COND4_C        = 00000000            PHD$L_P1LR       000000D4            PHD$W_QUANT      00000040
COND4_CLEANUP    000000E5 RG    05   PHD$L_PAGEFLTS   0000004C            PHD$W_TQLM       00000062
COND4_E          000001A3 R     04   PHD$L_PAGFIL     0000001C            PHD$W_WSAUTH     0000000A
COND4_H          00000138 RG    04   PHD$L_PC         000000C0            PHD$W_WSDYN      0000000E
COND4_T          0000011A R     04   PHD$L_PCB        00000078            PHD$W_WSFLUID    00000074
COND4_TAB        00000139 R     04   PHD$L_PGFLCNT    00000034            PHD$W_WSLAST     00000012
COND5            000000E6 RG    05   PHD$L_PGFLQUOTA  0000005C            PHD$W_WSLIST     00000008
COND5_C        = 00000014            PHD$L_PSL        000000C4            PHD$W_WSLOCK     0000000C
COND5_CLEANUP    000000E7 RG    05   PHD$L_PSTBASOFF  00000020            PHD$W_WSLX       0000004A
COND5_H          000001A7 RG    04   PHD$L_PTWSLELCK  00000064            PHD$W_WSNEXT     00000010
COND5_T          000001A7 R     04   PHD$L_PTWSLEVAL  00000068            PHD$W_WSQUOTA    00000018
COND5_TAB        000001A7 R     04   PHD$L_R0         00000088            PRIVMASK         00000000 R     04
CONFLICT         ********   X   05   PHD$L_R1         0000008C            PROCESS_ERR      ********   X   05
CTL$GL_PHD       ********   X   05   PHD$L_R10        000000B0            PROT             00000008 R     04
DESC           = 00000010  G         PHD$L_R11        000000B4            PRT$C_EW         ********   X   03
EFLAG            ********   X   05   PHD$L_R12        000000B8            PRT$C_KR         ********   X   05
SATSSS82        SATS SYSTEM SERVICE TESTS  $SETPRT (SUCC S.C.)   22-AUG-1978 04:19:22   VAX-11 MACRO X0.3-11               Page  18
SYMBOL TABLE                                                                                                                     (1)

PRT$C_KW         ********   X   03   PSL$V_IV       = 00000005
PRT$C_NA         ********   X   05   PSL$V_PRVMOD   = 00000016
PRT$C_SW         ********   X   03   PSL$V_TBIT     = 00000004
PRT$C_UW         ********   X   03   PSL$V_TP       = 0000001E
PRV$V_ALLSPOOL = 00000004            QUAD           = 00000008  G
PRV$V_BUGCHK   = 00000017            RECV             ********   X   05
PRV$V_CMEXEC   = 00000001            REST_REGS        ********   X   05
PRV$V_CMKRNL   = 00000000            RETADR           0000000C R     04
PRV$V_DETACH   = 00000005            RWMODES          00000051 R     03
PRV$V_DIAGNOSE = 00000006            SAVE_REGS        ********   X   05
PRV$V_EXQUOTA  = 00000013            SS$_NORMAL       ********   X   05
PRV$V_GROUP    = 00000008            SUCCESS          ********   X   05
PRV$V_GRPNAM   = 00000003            SYS$CMKRNL       ********   X   05
PRV$V_LOG_IO   = 00000007            SYS$DELTVA       ********   X   05
PRV$V_MOUNT    = 00000011            SYS$EXPREG       ********   X   05
PRV$V_NETMBX   = 00000014            SYS$FAO          ********   X   05
PRV$V_NOACNT   = 00000009            SYS$SETPRN       ********   X   05
PRV$V_OPER     = 00000012            SYS$SETPRT       ********   X   05
PRV$V_PHY_IO   = 00000016            TESTNUM          ********   X   05
PRV$V_PRMCEB   = 0000000A            TEST_MOD_NAME    00000000 RG    03
PRV$V_PRMGBL   = 00000018            TEST_MOD_NAME_D  00000009 R     03
PRV$V_PRMMBX   = 0000000B            TEST_MOD_SUCC    ********   X   05
PRV$V_PSWAPM   = 0000000C            TMD_ADDR         ********   X   05
PRV$V_SETPRI   = 0000000D            TM_CLEANUP       000000BC RG    05
PRV$V_SETPRV   = 0000000E            TM_SETUP         00000000 RG    05
PRV$V_SYSGBL   = 00000019            VERIFY           000001DE RG    05
PRV$V_SYSNAM   = 00000002            VERIFYX          00000540 R     05
PRV$V_TMPMBX   = 0000000F            VFY_CLEANUP      00000541 RG    05
PRV$V_VOLPRO   = 00000015            VFY_CLEANUPX     000005B4 R     05
PRV$V_WORLD    = 00000010            WORD           = 00000002  G
PRVPRT           0000001C R     04   WRITE_MSG2       ********   X   05
PSL$C_EXEC     = 00000001
PSL$C_KERNEL   = 00000000
PSL$C_SUPER    = 00000002
PSL$C_USER     = 00000003
PSL$M_CM       = 80000000
PSL$M_CURMOD   = 03000000
PSL$M_DV       = 00000080
PSL$M_FPD      = 08000000
PSL$M_FU       = 00000040
PSL$M_IPL      = 001F0000
PSL$M_IS       = 04000000
PSL$M_IV       = 00000020
PSL$M_PRVMOD   = 00C00000
PSL$M_SAFBITS  = 000037FF
PSL$M_TBIT     = 00000010
PSL$M_TP       = 40000000
PSL$S_CURMOD   = 00000002
PSL$S_IPL      = 00000005
PSL$S_PRVMOD   = 00000002
PSL$V_CM       = 0000001F
PSL$V_CURMOD   = 00000018
PSL$V_DV       = 00000007
PSL$V_FPD      = 0000001B
PSL$V_FU       = 00000006
PSL$V_IPL      = 00000010
PSL$V_IS       = 0000001A
SATSSS82        SATS SYSTEM SERVICE TESTS  $SETPRT (SUCC S.C.)   22-AUG-1978 04:19:22   VAX-11 MACRO X0.3-11               Page  19
PROGRAM SECTION SYNOPSIS                                                                                                         (1)


PROGRAM SECTION SYNOPSIS

.  ABS  .        00000000      00     NOPIC   USR   CON   ABS   LCL NOSHR NOEXE NORD  NOWRT BYTE
. BLANK .        00000000      01     NOPIC   USR   CON   REL   LCL NOSHR   EXE   RD    WRT BYTE
$ABS$            0000011C      02     NOPIC   USR   CON   ABS   LCL NOSHR   EXE   RD    WRT BYTE
RODATA           00000055      03     NOPIC   USR   CON   REL   LCL NOSHR NOEXE   RD  NOWRT LONG
RWDATA           000001A8      04     NOPIC   USR   CON   REL   LCL NOSHR NOEXE   RD    WRT LONG
SATSSS82         000005B5      05     NOPIC   USR   CON   REL   LCL NOSHR   EXE   RD    WRT BYTE


THERE WERE NO ERRORS OR WARNINGS.
14464. BYTES LEFT IN FREE MEMORY POOL.
24. BYTES OF RECLAIMED MEMORY.
OBJ$:SATSSS82,LIS$:SATSSS82/-SP=EXECML$/ML,LIB$:SYSTST.MLB/ML,SRC$:SATSSS82
40 MLB DIR RDS - 666 GETS TO DEFINE 28 MACROS. 39 INTER. FILE WRITES.
