SATSSS83        SATS SYSTEM SERVICE TESTS  $SETSWM (SUCC S.C.)   22-AUG-1978 04:19:56   VAX-11 MACRO X0.3-11               Page   0
TABLE OF CONTENTS

   (1)      48  DECLARATIONS
   (1)      77  CONDITION TABLES
   (1)     103  TM_SETUP, TM_CLEANUP
   (1)     166  CONDITION SUBROUTINES - SETUP AND CLEANUP
   (1)     236  FORM_CONDS
   (1)     329  VERIFY
   (1)     411  VFY_CLEANUP
SATSSS83        SATS SYSTEM SERVICE TESTS  $SETSWM (SUCC S.C.)   22-AUG-1978 04:19:56   VAX-11 MACRO X0.3-11               Page   1
1.0                                                                                                                              (1)

                                     0000     1 	.TITLE	SATSSS83 SATS SYSTEM SERVICE TESTS  $SETSWM (SUCC S.C.)
                                     0000     2 	.IDENT	/1.0/
                                     0000     3
                                     0000     4 ;
                                     0000     5 ;			  COPYRIGHT (c) 1977,1978 BY
                                     0000     6 ;	      DIGITAL EQUIPMENT CORPORATION, MAYNARD, MASS.
                                     0000     7 ;
                                     0000     8 ; THIS SOFTWARE IS FURNISHED UNDER A LICENSE AND MAY BE USED AND  COPIED
                                     0000     9 ; ONLY  IN  ACCORDANCE  WITH  THE  TERMS  OF  SUCH  LICENSE AND WITH THE
                                     0000    10 ; INCLUSION OF THE ABOVE COPYRIGHT NOTICE.  THIS SOFTWARE OR  ANY  OTHER
                                     0000    11 ; COPIES  THEREOF MAY NOT BE PROVIDED OR OTHERWISE MADE AVAILABLE TO ANY
                                     0000    12 ; OTHER PERSON.  NO TITLE TO AND OWNERSHIP OF  THE  SOFTWARE  IS  HEREBY
                                     0000    13 ; TRANSFERRED.
                                     0000    14 ;
                                     0000    15 ; THE INFORMATION IN THIS SOFTWARE IS SUBJECT TO CHANGE  WITHOUT  NOTICE
                                     0000    16 ; AND  SHOULD  NOT  BE  CONSTRUED  AS  A COMMITMENT BY DIGITAL EQUIPMENT
                                     0000    17 ; CORPORATION.
                                     0000    18 ;
                                     0000    19 ; DIGITAL ASSUMES NO RESPONSIBILITY FOR THE USE OR  RELIABILITY  OF  ITS
                                     0000    20 ; SOFTWARE ON EQUIPMENT WHICH IS NOT SUPPLIED BY DIGITAL.
                                     0000    21 ;
                                     0000    22
                                     0000    23 ;++
                                     0000    24 ; FACILITY:	SYSTST (SATS SYSTEM SERVICE TESTS)
                                     0000    25 ;
                                     0000    26 ; ABSTRACT:
                                     0000    27 ;
                                     0000    28 ;		THIS MODULE CONTAINS SUBROUTINES WHICH, WHEN LINKED
                                     0000    29 ; WITH SUCCOMMON.OBJ, FORM TEST MODULE SATSSS83 TO TEST SUCCESSFUL
                                     0000    30 ; OPERATION OF THE $SETSWM SYSTEM SERVICE. THE SERVICE IS INVOKED
                                     0000    31 ; UNDER VARIOUS INPUT CONDITIONS WITH VARYING INPUT PARAMETERS. ONLY
                                     0000    32 ; SUCCESSFUL STATUS CODES ARE EXPECTED IN THIS TEST MODULE.  CORRECT
                                     0000    33 ; OPERATION OF THE SERVICE FOR EACH OF ITS ISSUANCES IS VERIFIED BY
                                     0000    34 ; CHECKING FOR AN SS$_NORMAL STATUS CODE, EXPECTED RETURN ARGUMENTS
                                     0000    35 ; AND EXPECTED FUNCTIONALITY PERFORMED.
                                     0000    36 ;
                                     0000    37 ; ENVIRONMENT:	USER MODE IMAGE; NEEDS CMKRNL PRIVILEGE,
                                     0000    38 ;		DYNAMICALLY ACQUIRES OTHER PRIVILEGES, AS NEEDED.
                                     0000    39 ;
                                     0000    40 ; AUTHOR: THOMAS L. CAFARELLA,		CREATION DATE: JUL, 1977
                                     0000    41 ;
                                     0000    42 ; MODIFIED BY:
                                     0000    43 ;
                                     0000    44 ;	, : VERSION
                                     0000    45 ; 01	-
                                     0000    46 ;--
SATSSS83        SATS SYSTEM SERVICE TESTS  $SETSWM (SUCC S.C.)   22-AUG-1978 04:19:56   VAX-11 MACRO X0.3-11               Page   2
1.0             DECLARATIONS                                                                                                     (1)

                                     0000    48 	.SBTTL	DECLARATIONS
                                     0000    49 ;
                                     0000    50 ; INCLUDE FILES:
                                     0000    51 ;
                                     0000    52 	$PRVDEF				; PRIVILEGE BIT DEFINITIONS
                                     0000    53 	$PHDDEF				; PROCESS HEADER OFFSETS
                                     0000    54 ;
                                     0000    55 ; MACROS:
                                     0000    56 ;
                                     0000    57 ;
                                     0000    58 ; EQUATED SYMBOLS:
                                     0000    59 ;
                                     0000    60 ;
                                     0000    61 ; OWN STORAGE:
                                     0000    62 ;
SATSSS83        SATS SYSTEM SERVICE TESTS  $SETSWM (SUCC S.C.)   22-AUG-1978 04:19:56   VAX-11 MACRO X0.3-11               Page   3
1.0             DECLARATIONS                                                                                                     (1)

                                 00000000    64 	.PSECT	RODATA,RD,NOWRT,NOEXE,LONG
                                     0000    65 TEST_MOD_NAME::	STRING	C,<SATSSS83>	; TEST MODULE NAME
                                     0009    66 TEST_MOD_NAME_D: STRING	I,<SATSSS83>	; TEST MODULE NAME DESCRIPTOR
                                     0019    67 MSG1_INP_CTL:	STRING	I,<  SSSSM!4ZW: CONDITIONS:>
                                     0039    68 					; FAO CTL STRING FOR MSG1 IN SUCCOMMON.MAR
                                     0039    69 MSG3_ERR_CTL::	STRING	I,< *SSSSM!4ZW: !AS>
                                     0051    70 					; FAO CTL STRING FOR MSG3 IN SUCCOMMON.MAR
SATSSS83        SATS SYSTEM SERVICE TESTS  $SETSWM (SUCC S.C.)   22-AUG-1978 04:19:56   VAX-11 MACRO X0.3-11               Page   4
1.0             DECLARATIONS                                                                                                     (1)

                                 00000000    72 	.PSECT	RWDATA,RD,WRT,NOEXE,LONG
                           00000008  0000    73 PRIVMASK:	.BLKQ	1		; ADDR OF PRIVILEGE MASK (IN PHD)
                                 00' 0008    74 STATCODES:	.BYTE	SS$_WASCLR, - 	; EXPECTED
                                 00' 0009    75 			SS$_WASSET    	; ... STATUS CODES
SATSSS83        SATS SYSTEM SERVICE TESTS  $SETSWM (SUCC S.C.)   22-AUG-1978 04:19:56   VAX-11 MACRO X0.3-11               Page   5
1.0             CONDITION TABLES                                                                                                 (1)

                                     000A    77 	.SBTTL	CONDITION TABLES
                                     000A    78 ;
                                     000A    79 ;	***** CONDITION TABLES FOR SETSWM SYSTEM SERVICE *****
                                     000A    80 ;
                                     000A    81 	COND	1,LONG,<SWPFLG>,-
                                     000A    82 		  <SWAPPING DISABLED>,-
                                     000A    83 		  <SWAPPING ENABLED>,-
                                     000A    84
                           00000000  003D    85 		    .LONG	0	; DISABLED
                           00000001  0041    86 		    .LONG	1	; ENABLED
                                     0045    87 ;
                                     0045    88 	COND	2,NOTARG,<PREVIOUS SWAP MODE>,-
                                     0045    89 		  <SWAPPING PREVIOUSLY DISABLED>,-
                                     0045    90 		  <SWAPPING PREVIOUSLY ENABLED>,-
                                     0045    91
                           00000000  009A    92 		    .LONG	0	; DISABLED
                           00000001  009E    93 		    .LONG	1	; ENABLED
                                     00A2    94 ;
                                     00A2    95 	COND	3,NULL
                                     00A3    96
                                     00A3    97 	COND	4,NULL
                                     00A4    98
                                     00A4    99 	COND	5,NULL
                                     00A5   100
                                 00000000   101 	.PSECT	SATSSS83,RD,WRT,EXE
SATSSS83        SATS SYSTEM SERVICE TESTS  $SETSWM (SUCC S.C.)   22-AUG-1978 04:19:56   VAX-11 MACRO X0.3-11               Page   6
1.0             TM_SETUP, TM_CLEANUP                                                                                             (1)

                                     0000   103 	.SBTTL	TM_SETUP, TM_CLEANUP
                                     0000   104 ;++
                                     0000   105 ; FUNCTIONAL DESCRIPTION:
                                     0000   106 ;
                                     0000   107 ;		TM_SETUP AND TM_CLEANUP ARE CALLED TO PERFORM
                                     0000   108 ; REQUIRED HOUSEKEEPING AT THE BEGINNING AND END, RESPECTIVELY, OF
                                     0000   109 ; TEST MODULE EXECUTION.
                                     0000   110 ;
                                     0000   111 ; CALLING SEQUENCE:
                                     0000   112 ;
                                     0000   113 ;	BSBW TM_SETUP   BSBW TM_CLEANUP
                                     0000   114 ;
                                     0000   115 ; INPUT PARAMETERS:
                                     0000   116 ;
                                     0000   117 ;	NONE
                                     0000   118 ;
                                     0000   119 ; IMPLICIT INPUTS:
                                     0000   120 ;
                                     0000   121 ;	NONE
                                     0000   122 ;
                                     0000   123 ; OUTPUT PARAMETERS:
                                     0000   124 ;
                                     0000   125 ;	NONE
                                     0000   126 ;
                                     0000   127 ; IMPLICIT OUTPUTS:
                                     0000   128 ;
                                     0000   129 ;	TM_SETUP:  COND TABLE INDEX REGISTERS (R2,3,4,5,6) CLEARED;
                                     0000   130 ;		   ALL PRIVILEGES ACQUIRED.
                                     0000   131 ;
                                     0000   132 ; COMPLETION CODES:
                                     0000   133 ;
                                     0000   134 ;	EFLAG SET TO NON-ZERO IF ERROR ENCOUNTERED.
                                     0000   135 ;
                                     0000   136 ; SIDE EFFECTS:
                                     0000   137 ;
                                     0000   138 ;	SS_CHECK AND ERR_EXIT MACROS CAUSE PREMATURE EXIT
                                     0000   139 ;	(VIA RSB) IF ERROR ENCOUNTERED.
                                     0000   140 ;
                                     0000   141 ;--
                                     0000   142
                                     0000   143
                                     0000   144
                                     0000   145 TM_SETUP::
                          52     D4  0000   146 	CLRL	R2			; INITIALIZE
                          53     D4  0002   147 	CLRL	R3			; .. CONDITION
                          54     D4  0004   148 	CLRL	R4			; .... TABLE
                          55     D4  0006   149 	CLRL	R5			; ...... INDEX
                          56     D4  0008   150 	CLRL	R6			; ........ REGISTERS
                          FFF3'  30  000A   151 	BSBW	MOD_MSG_PRINT		; PRINT TEST MODULE BEGIN MSG
   00000000'EF   00000000'EF     DE  000D   152 	MOVAL	TEST_MOD_SUCC,TMD_ADDR	; ASSUME END MSG WILL SHOW SUCCESS
            00   00000000'8F     F0  0018   153 	INSV	#SUCCESS,#0,#3,MOD_MSG_CODE ; ADJUST STATUS CODE FOR SUCCESS
   00000000'EF            03         001F
                                     0025   154 	MODE	TO,5$,KRNL		; KERNEL MODE TO ACCESS PHD
            59   00000000'9F     D0  0048   155 	MOVL	@#CTL$GL_PHD,R9		; GET PROCESS HEADER ADDRESS
   00000000'EF            69     DE  004F   156 	MOVAL	PHD$Q_PRIVMSK(R9),PRIVMASK ; GET PRIV MASK ADDRESS
                                     0056   157 	MODE	FROM,5$	; BACK TO USER MODE
                                     0057   158 	PRIV	ADD,ALL			; GET ALL PRIVILEGES
SATSSS83        SATS SYSTEM SERVICE TESTS  $SETSWM (SUCC S.C.)   22-AUG-1978 04:19:56   VAX-11 MACRO X0.3-11               Page   7
1.0             TM_SETUP, TM_CLEANUP                                                                                             (1)

                                     0080   159 	$SETPRN_S TEST_MOD_NAME_D 	; SET PROCESS NAME
                                     008D   160 	SS_CHECK  NORMAL		; CHECK STATUS CODE RETURNED FROM SETPRN
                                 05  00BB   161 	RSB				; RETURN TO MAIN ROUTINE
                                     00BC   162 TM_CLEANUP::
                          FF41'  30  00BC   163 	BSBW	MOD_MSG_PRINT		; PRINT TEST MODULE END MSG
                                 05  00BF   164 	RSB				; RETURN TO MAIN ROUTINE
SATSSS83        SATS SYSTEM SERVICE TESTS  $SETSWM (SUCC S.C.)   22-AUG-1978 04:19:56   VAX-11 MACRO X0.3-11               Page   8
1.0             CONDITION SUBROUTINES - SETUP AND CLEANUP                                                                        (1)

                                     00C0   166 	.SBTTL	CONDITION SUBROUTINES - SETUP AND CLEANUP
                                     00C0   167 ;++
                                     00C0   168 ; FUNCTIONAL DESCRIPTION:
                                     00C0   169 ;
                                     00C0   170 ;		CONDX AND CONDX_CLEANUP ARE SUBROUTINES WHICH ARE EXECUTED
                                     00C0   171 ; BEFORE AND AFTER THE VERIFY SUBROUTINE, RESPECTIVELY, WHENEVER A NEW
                                     00C0   172 ; CONDITION X VALUE IS SELECTED (SEE FUNCTIONAL DESCRIPTION OF SUCCOMMON
                                     00C0   173 ; ROUTINE IN SUCCOMMON.MAR). ANY SETUP FUNCTION PARTICULAR TO THE
                                     00C0   174 ; CONDITION X TABLE IS INCLUDED IN THE CONDX SUBROUTINE AND CLEANED
                                     00C0   175 ; UP, IF NECESSARY, IN THE CONDX_CLEANUP SUBROUTINE. THIS INCLUDES,
                                     00C0   176 ; ESPECIALLY, CODE TO DETECT CONFLICTS AMONG CURRENT ENTRIES IN TWO
                                     00C0   177 ; OR MORE CONDITION TABLES. IF A CONFLICT IS DETECTED, A NON-ZERO
                                     00C0   178 ; VALUE IS STORED INTO CONFLICT, WHICH CAUSES THE CALLING ROUTINE
                                     00C0   179 ; (SUCCOMMON) TO SKIP THE CURRENT ENTRY IN THE CONDITION X TABLE.
                                     00C0   180 ;
                                     00C0   181 ; CALLING SEQUENCE:
                                     00C0   182 ;
                                     00C0   183 ;	BSBW CONDX   BSBW CONDX_CLEANUP
                                     00C0   184 ;	  WHERE X = 1,2,3,4,5
                                     00C0   185 ;
                                     00C0   186 ; INPUT PARAMETERS:
                                     00C0   187 ;
                                     00C0   188 ;	CONFLICT = 0
                                     00C0   189 ;
                                     00C0   190 ; IMPLICIT INPUTS:
                                     00C0   191 ;
                                     00C0   192 ;	R2,3,4,5,6 CONTAIN CURRENT CONDITION TABLE INDEX VALUES
                                     00C0   193 ;	  FOR COND TABLES 1,2,3,4,5, RESPECTIVELY.
                                     00C0   194 ;
                                     00C0   195 ; OUTPUT PARAMETERS:
                                     00C0   196 ;
                                     00C0   197 ;	CONFLICT SET TO NON-ZERO IF COND TABLE CONFLICT DETECTED.
                                     00C0   198 ;
                                     00C0   199 ; IMPLICIT OUTPUTS:
                                     00C0   200 ;
                                     00C0   201 ;	R2,3,4,5,6 PRESERVED
                                     00C0   202 ;
                                     00C0   203 ; COMPLETION CODES:
                                     00C0   204 ;
                                     00C0   205 ;	NONE
                                     00C0   206 ;
                                     00C0   207 ; SIDE EFFECTS:
                                     00C0   208 ;
                                     00C0   209 ;	NONE
                                     00C0   210 ;
                                     00C0   211 ;--
                                     00C0   212
                                     00C0   213
                                     00C0   214
                                     00C0   215 COND1::
                                 05  00C0   216 	RSB				; RETURN TO MAIN ROUTINE
                                     00C1   217 COND1_CLEANUP::
                                 05  00C1   218 	RSB				; RETURN TO MAIN ROUTINE
                                     00C2   219 COND2::
                                 05  00C2   220 	RSB				; RETURN TO MAIN ROUTINE
                                     00C3   221 COND2_CLEANUP::
                                 05  00C3   222 	RSB				; RETURN TO MAIN ROUTINE
SATSSS83        SATS SYSTEM SERVICE TESTS  $SETSWM (SUCC S.C.)   22-AUG-1978 04:19:56   VAX-11 MACRO X0.3-11               Page   9
1.0             CONDITION SUBROUTINES - SETUP AND CLEANUP                                                                        (1)

                                     00C4   223 COND3::
                                 05  00C4   224 	RSB				; RETURN TO MAIN ROUTINE
                                     00C5   225 COND3_CLEANUP::
                                 05  00C5   226 	RSB				; RETURN TO MAIN ROUTINE
                                     00C6   227 COND4::
                                 05  00C6   228 	RSB				; RETURN TO MAIN ROUTINE
                                     00C7   229 COND4_CLEANUP::
                                 05  00C7   230 	RSB				; RETURN TO MAIN ROUTINE
                                     00C8   231 COND5::
                                 05  00C8   232 	RSB				; RETURN TO MAIN ROUTINE
                                     00C9   233 COND5_CLEANUP::
                                 05  00C9   234 	RSB				; RETURN TO MAIN ROUTINE
SATSSS83        SATS SYSTEM SERVICE TESTS  $SETSWM (SUCC S.C.)   22-AUG-1978 04:19:56   VAX-11 MACRO X0.3-11               Page  10
1.0             FORM_CONDS                                                                                                       (1)

                                     00CA   236 	.SBTTL	FORM_CONDS
                                     00CA   237 ;++
                                     00CA   238 ; FUNCTIONAL DESCRIPTION:
                                     00CA   239 ;
                                     00CA   240 ; 		FORM_CONDS FORMATS AND PRINTS INFORMATION ABOUT
                                     00CA   241 ;  THE CURRENT ELEMENT IN EACH OF THE CONDITION TABLES.
                                     00CA   242 ;
                                     00CA   243 ; CALLING SEQUENCE:
                                     00CA   244 ;
                                     00CA   245 ;	BSBW FORM_CONDS
                                     00CA   246 ;
                                     00CA   247 ; INPUT PARAMETERS:
                                     00CA   248 ;
                                     00CA   249 ;	NONE
                                     00CA   250 ;
                                     00CA   251 ; IMPLICIT INPUTS:
                                     00CA   252 ;
                                     00CA   253 ;	R2,3,4,5,6 CONTAIN CURRENT CONDITION TABLE INDEX VALUES
                                     00CA   254 ;	  FOR COND TABLES 1,2,3,4,5, RESPECTIVELY.
                                     00CA   255 ;	FOR X = 1,2,3,4,5 :
                                     00CA   256 ;		CONDX_T - TITLE TEXT FOR CONDX TABLE
                                     00CA   257 ;		CONDX_TAB - ELEMENT TEXT FOR CONDX TABLE
                                     00CA   258 ;		CONDX_C - CONTEXT OF THE CONDX TABLE
                                     00CA   259 ;		CONDX_E - DATA ELEMENTS OF THE CONDX TABLE
                                     00CA   260 ;
                                     00CA   261 ; OUTPUT PARAMETERS:
                                     00CA   262 ;
                                     00CA   263 ;	NONE
                                     00CA   264 ;
                                     00CA   265 ; IMPLICIT OUTPUTS:
                                     00CA   266 ;
                                     00CA   267 ;	NONE
                                     00CA   268 ;
                                     00CA   269 ; COMPLETION CODES:
                                     00CA   270 ;
                                     00CA   271 ;	NONE
                                     00CA   272 ;
                                     00CA   273 ; SIDE EFFECTS:
                                     00CA   274 ;
                                     00CA   275 ;	NONE
                                     00CA   276 ;
                                     00CA   277 ;--
                                     00CA   278
                                     00CA   279
                                     00CA   280
                                     00CA   281 FORM_CONDS::
                                     00CA   282 	$FAO_S	MSG1_INP_CTL,FAO_LEN,FAO_DESC,TESTNUM
                                     00E9   283 					; FORMAT CONDITIONS HEADER MSG
                          FF14'  30  00E9   284 	BSBW	OUTPUT_MSG		; ... AND PRINT IT
            14            04     91  00EC   285 	CMPB	#COND1_C,#NULL		; IS CONDITION 1 NULL ?
                          03     12  00EF   286 	BNEQU	10$			; NO -- CONTINUE
                          00CB   31  00F1   287 	BRW	FORM_CONDSX		; YES -- SUBROUTINE IS FINISHED
                                     00F4   288 10$:
   00000000'EF   0000000A'EF     DE  00F4   289 	MOVAL	COND1_T,MSG_A		; SAVE ADDRESS OF CONDITION 1 TITLE FOR FAO
   00000000'EF   00000012'EF42   D0  00FF   290 	MOVL	COND1_TAB[R2],MSG_B 	; SAVE ADDR OF COND 1 CURR TEXT ELT FOR FAO
   00000000'EF            04     90  010B   291 	MOVB	#COND1_C,MSG_CTXT 	; SAVE CONDITION 1 CONTEXT FOR FAO
                                     0112   292 	MOV_VAL	COND1_C,COND1_E[R2],MSG_DATA1 ; GIVE COND 1 DATA VALUE TO FAO
SATSSS83        SATS SYSTEM SERVICE TESTS  $SETSWM (SUCC S.C.)   22-AUG-1978 04:19:56   VAX-11 MACRO X0.3-11               Page  11
1.0             FORM_CONDS                                                                                                       (1)

                          FEDF'  30  011E   293 	BSBW	WRITE_MSG2		; FORMAT AND WRITE CONDITION 1 MSG
            14            00     91  0121   294 	CMPB	#COND2_C,#NULL		; IS CONDITION 2 NULL ?
                          03     12  0124   295 	BNEQU	20$			; NO -- CONTINUE
                          0096   31  0126   296 	BRW	FORM_CONDSX		; YES -- SUBROUTINE IS FINISHED
                                     0129   297 20$:
   00000000'EF   00000045'EF     DE  0129   298 	MOVAL	COND2_T,MSG_A		; SAVE ADDRESS OF CONDITION 2 TITLE FOR FAO
   00000000'EF   00000059'EF43   D0  0134   299 	MOVL	COND2_TAB[R3],MSG_B 	; SAVE ADDR OF COND 2 CURR TEXT ELT FOR FAO
   00000000'EF            00     90  0140   300 	MOVB	#COND2_C,MSG_CTXT 	; SAVE CONDITION 2 CONTEXT FOR FAO
                                     0147   301 	MOV_VAL	COND2_C,COND2_E[R3],MSG_DATA1 ; GIVE COND 2 DATA VALUE TO FAO
                          FEB6'  30  0147   302 	BSBW	WRITE_MSG2		; FORMAT AND WRITE CONDITION 2 MSG
            14            14     91  014A   303 	CMPB	#COND3_C,#NULL		; IS CONDITION 3 NULL ?
                          03     12  014D   304 	BNEQU	30$			; NO -- CONTINUE
                          006D   31  014F   305 	BRW	FORM_CONDSX		; YES -- SUBROUTINE IS FINISHED
                                     0152   306 30$:
   00000000'EF   000000A2'EF     DE  0152   307 	MOVAL	COND3_T,MSG_A		; SAVE ADDRESS OF CONDITION 3 TITLE FOR FAO
   00000000'EF   000000A2'EF44   D0  015D   308 	MOVL	COND3_TAB[R4],MSG_B 	; SAVE ADDR OF COND 3 CURR TEXT ELT FOR FAO
   00000000'EF            14     90  0169   309 	MOVB	#COND3_C,MSG_CTXT 	; SAVE CONDITION 3 CONTEXT FOR FAO
                                     0170   310 	MOV_VAL	COND3_C,COND3_E[R4],MSG_DATA1 ; GIVE COND 3 DATA VALUE TO FAO
                          FE8D'  30  0170   311 	BSBW	WRITE_MSG2		; FORMAT AND WRITE CONDITION 3 MSG
            14            14     91  0173   312 	CMPB	#COND4_C,#NULL		; IS CONDITION 4 NULL ?
                          47     13  0176   313 	BEQLU	FORM_CONDSX		; YES -- SUBROUTINE IS FINISHED
   00000000'EF   000000A3'EF     DE  0178   314 	MOVAL	COND4_T,MSG_A		; SAVE ADDRESS OF CONDITION 4 TITLE FOR FAO
   00000000'EF   000000A3'EF45   D0  0183   315 	MOVL	COND4_TAB[R5],MSG_B 	; SAVE ADDR OF COND 4 CURR TEXT ELT FOR FAO
   00000000'EF            14     90  018F   316 	MOVB	#COND4_C,MSG_CTXT 	; SAVE CONDITION 4 CONTEXT FOR FAO
                                     0196   317 	MOV_VAL	COND4_C,COND4_E[R5],MSG_DATA1 ; GIVE COND 4 DATA VALUE TO FAO
                          FE67'  30  0196   318 	BSBW	WRITE_MSG2		; FORMAT AND WRITE CONDITION 4 MSG
            14            14     91  0199   319 	CMPB	#COND5_C,#NULL		; IS CONDITION 5 NULL ?
                          21     13  019C   320 	BEQLU	FORM_CONDSX		; YES -- SUBROUTINE IS FINISHED
   00000000'EF   000000A4'EF     DE  019E   321 	MOVAL	COND5_T,MSG_A		; SAVE ADDRESS OF CONDITION 5 TITLE FOR FAO
   00000000'EF   000000A4'EF46   D0  01A9   322 	MOVL	COND5_TAB[R6],MSG_B 	; SAVE ADDR OF COND 5 CURR TEXT ELT FOR FAO
   00000000'EF            14     90  01B5   323 	MOVB	#COND5_C,MSG_CTXT 	; SAVE CONDITION 5 CONTEXT FOR FAO
                                     01BC   324 	MOV_VAL	COND5_C,COND5_E[R6],MSG_DATA1 ; GIVE COND 5 DATA VALUE TO FAO
                          FE41'  30  01BC   325 	BSBW	WRITE_MSG2		; FORMAT AND WRITE CONDITION 5 MSG
                                     01BF   326 FORM_CONDSX:
                                 05  01BF   327 	RSB				; RETURN TO CALLER
SATSSS83        SATS SYSTEM SERVICE TESTS  $SETSWM (SUCC S.C.)   22-AUG-1978 04:19:56   VAX-11 MACRO X0.3-11               Page  12
1.0             VERIFY                                                                                                           (1)

                                     01C0   329 	.SBTTL	VERIFY
                                     01C0   330 ;++
                                     01C0   331 ; FUNCTIONAL DESCRIPTION:
                                     01C0   332 ;
                                     01C0   333 ;		VERIFY IS CALLED ONCE FOR EACH COMBINATION OF CONDITION
                                     01C0   334 ; TABLE VALUES (AS DETERMINED BY THE INDEX REGISTERS R2,3,4,5,6 FOR
                                     01C0   335 ; COND TABLES 1,2,3,4,5, RESPECTIVELY). VERIFY ESTABLISHES THE CONDITIONS
                                     01C0   336 ; SPECIFIED BY THE COND TABLES AND ISSUES THE SUBJECT SYSTEM SERVICE
                                     01C0   337 ; ($SETSWM). THEN, THE SUCCESSFUL OPERATION OF THE SERVICE IS VERIFIED
                                     01C0   338 ; BY EXAMINING THE STATUS CODE RETURNED, THE VALUES FOR RETURN ARGUMENTS
                                     01C0   339 ; AND THE FUNCTIONALITY PERFORMED. THE EXAMINATIONS TAKE THE FORM OF
                                     01C0   340 ; COMPARISONS AGAINST EXPECTED VALUES. ANY FAILING COMPARISON CAUSES AN
                                     01C0   341 ; ERR_EXIT MACRO TO BE EXECUTED (EITHER DIRECTLY, OR INDIRECTLY,
                                     01C0   342 ; THROUGH THE SS_CHECK MACRO); ERR_EXIT SETS EFLAG TO NON-ZERO,
                                     01C0   343 ; PRINTS ERROR MESSAGES AND CAUSES AN IMMEDIATE RSB TO CALLER.
                                     01C0   344 ; WHEN ERR_EXIT IS EXECUTED, FURTHER CALLS TO VERIFY ARE SUPPRESSED,
                                     01C0   345 ; AND, AFTER EXECUTING CLEANUP SUBROUTINES, THE IMAGE EXITS.
                                     01C0   346 ;
                                     01C0   347 ; CALLING SEQUENCE:
                                     01C0   348 ;
                                     01C0   349 ;	BSBW VERIFY
                                     01C0   350 ;
                                     01C0   351 ; INPUT PARAMETERS:
                                     01C0   352 ;
                                     01C0   353 ;	NONE
                                     01C0   354 ;
                                     01C0   355 ; IMPLICIT INPUTS:
                                     01C0   356 ;
                                     01C0   357 ;	R2,3,4,5,6 CONTAIN CURRENT CONDITION TABLE INDEX VALUES
                                     01C0   358 ;	  FOR COND TABLES 1,2,3,4,5, RESPECTIVELY.
                                     01C0   359 ;	FOR X = 1,2,3,4,5 :
                                     01C0   360 ;		CONDX_E - ADDRESS OF TABLE OF DATA VALUES FOR CONDX
                                     01C0   361 ;		  TABLE. IF THE CONTEXT OF TABLE X IS A SYSTEM SERVICE
                                     01C0   362 ;		  ARGUMENT, THE ARGUMENT NAME MAY BE USED AS A SYNONYM
                                     01C0   363 ;		  FOR CONDX_E.
                                     01C0   364 ;
                                     01C0   365 ; OUTPUT PARAMETERS:
                                     01C0   366 ;
                                     01C0   367 ;	NONE
                                     01C0   368 ;
                                     01C0   369 ; IMPLICIT OUTPUTS:
                                     01C0   370 ;
                                     01C0   371 ;	VERIFY HAS NO OUTPUT. SINCE ITS PURPOSE IS TO TEST FOR ERRORS,
                                     01C0   372 ;	IT MERELY RETURNS TO CALLER NORMALLY AFTER THE TESTS, PROVIDING
                                     01C0   373 ;	ALL WERE SUCCESSFUL; IF AN ERROR IS DISCOVERED, RETURN IS VIA
                                     01C0   374 ;	AN ERR_EXIT OR SS_CHECK MACRO, BOTH OF WHICH DOCUMENT DETECTED
                                     01C0   375 ;	ERRORS.
                                     01C0   376 ;
                                     01C0   377 ; COMPLETION CODES:
                                     01C0   378 ;
                                     01C0   379 ;	EFLAG SET TO NON-ZERO IF ERROR ENCOUNTERED.
                                     01C0   380 ;
                                     01C0   381 ; SIDE EFFECTS:
                                     01C0   382 ;
                                     01C0   383 ;	SS_CHECK AND ERR_EXIT MACROS CAUSE PREMATURE EXIT
                                     01C0   384 ;	(VIA RSB) IF ERROR ENCOUNTERED.
                                     01C0   385 ;
SATSSS83        SATS SYSTEM SERVICE TESTS  $SETSWM (SUCC S.C.)   22-AUG-1978 04:19:56   VAX-11 MACRO X0.3-11               Page  13
1.0             VERIFY                                                                                                           (1)

                                     01C0   386 ;--
                                     01C0   387
                                     01C0   388
                                     01C0   389
                                     01C0   390 VERIFY::
                 00000000'EF     95  01C0   391 	TSTB	CFLAG			; SHOULD CONDITIONS BE PRINTED ?
                          03     13  01C6   392 	BEQL	5$			; NO -- CONTINUE
                          FEFF   30  01C8   393 	BSBW	FORM_CONDS		; YES -- FMT & PRINT ALL CONDS FOR THIS T.C.
                                     01CB   394 5$:
                                     01CB   395 	$SETSWM_S COND2_E[R3]		; ISSU PRELIM SERV TO ESTAB "PREV" CONDITION
                                     01D9   396 ;
                                     01D9   397 ; ****** SYSTEM SERVICE CALL WHICH IS THE SUBJECT OF THIS TEST CASE ******
                                     01D9   398 ;
                                     01D9   399 	$SETSWM_S SWPFLG[R2]		; ISSUE SUBJECT SERVICE
            59   00000008'EF43   9A  01E7   400 	MOVZBL	STATCODES[R3],R9 	; GET EXPECTED STATUS CODE
            59            50     D1  01EF   401 	CMPL	R0,R9			; CODE RECEIVED = CODE EXPECTED ?
                          03     12  01F2   402 	BNEQ	10$			; NO -- GO PROCESS ERROR
                          005B   31  01F4   403 	BRW	VERIFYX			; YES -- ALL FINISHED
                                     01F7   404 10$:
   00000000'EF            59     D0  01F7   405 	MOVL	R9,EXPV			; LOAD UP EXPECTED AND
   00000000'EF            50     D0  01FE   406 	MOVL	R0,RECV			; ... RECEIVED VALUES, THEN EXIT
                                     0205   407 	ERR_EXIT LONG,<INCORRECT STATUS CODE RETURNED BY SETSWM>
                                     0252   408 VERIFYX:
                                 05  0252   409 	RSB				; RETURN TO CALLER
SATSSS83        SATS SYSTEM SERVICE TESTS  $SETSWM (SUCC S.C.)   22-AUG-1978 04:19:56   VAX-11 MACRO X0.3-11               Page  14
1.0             VFY_CLEANUP                                                                                                      (1)

                                     0253   411 	.SBTTL	VFY_CLEANUP
                                     0253   412 ;++
                                     0253   413 ; FUNCTIONAL DESCRIPTION:
                                     0253   414 ;
                                     0253   415 ;		VFY_CLEANUP EXECUTES SYSTEM SERVICES TO UNDO THE
                                     0253   416 ; EFFECT OF THOSE ISSUED IN THE VERIFY SUBROUTINE. VFY_CLEANUP MUST
                                     0253   417 ; ASSUME THAT VERIFY MAY NOT HAVE EXECUTED IN ITS ENTIRETY (IF AN
                                     0253   418 ; ERROR IS FOUND). ALSO, VFY_CLEANUP MAY ISSUE SS_CHECK OR ERR_EXIT
                                     0253   419 ; ONLY AFTER PERFORMING ALL OF ITS CLEANUP OPERATIONS; THIS IS REQUIRED
                                     0253   420 ; IN THE EVENT THAT VFY_CLEANUP IS CALLED DURING ERROR PROCESSING,
                                     0253   421 ; WHEN PERFORMING THE REQUIRED CLEANUP IS MORE IMPORTANT THAN
                                     0253   422 ; POSSIBLY DISCOVERING A SECOND ERROR.
                                     0253   423 ;
                                     0253   424 ; CALLING SEQUENCE:
                                     0253   425 ;
                                     0253   426 ;	BSBW VFY_CLEANUP
                                     0253   427 ;
                                     0253   428 ; INPUT PARAMETERS:
                                     0253   429 ;
                                     0253   430 ;	NONE
                                     0253   431 ;
                                     0253   432 ; IMPLICIT INPUTS:
                                     0253   433 ;
                                     0253   434 ;	R2,3,4,5,6 CONTAIN CURRENT CONDITION TABLE INDEX VALUES
                                     0253   435 ;	  FOR COND TABLES 1,2,3,4,5, RESPECTIVELY.
                                     0253   436 ;	FOR X = 1,2,3,4,5 :
                                     0253   437 ;		CONDX_E - ADDRESS OF TABLE OF DATA VALUES FOR CONDX
                                     0253   438 ;		  TABLE. IF THE CONTEXT OF TABLE X IS A SYSTEM SERVICE
                                     0253   439 ;		  ARGUMENT, THE ARGUMENT NAME MAY BE USED AS A SYNONYM
                                     0253   440 ;		  FOR CONDX_E.
                                     0253   441 ;
                                     0253   442 ; OUTPUT PARAMETERS:
                                     0253   443 ;
                                     0253   444 ;	NONE
                                     0253   445 ;
                                     0253   446 ; IMPLICIT OUTPUTS:
                                     0253   447 ;
                                     0253   448 ;	NONE
                                     0253   449 ;
                                     0253   450 ; COMPLETION CODES:
                                     0253   451 ;
                                     0253   452 ;	EFLAG SET TO NON-ZERO IF ERROR ENCOUNTERED.
                                     0253   453 ;
                                     0253   454 ; SIDE EFFECTS:
                                     0253   455 ;
                                     0253   456 ;	SS_CHECK AND ERR_EXIT MACROS CAUSE PREMATURE EXIT
                                     0253   457 ;	(VIA RSB) IF ERROR ENCOUNTERED.
                                     0253   458 ;
                                     0253   459 ;--
                                     0253   460
                                     0253   461
                                     0253   462
                                     0253   463 VFY_CLEANUP::
                                     0253   464 	$SETSWM_S  #1			; MAKE SURE SWAPPING IS ENABLED
                                 05  025C   465 	RSB				; RETURN TO CALLER
                                     025D   466 	.END
SATSSS83        SATS SYSTEM SERVICE TESTS  $SETSWM (SUCC S.C.)   22-AUG-1978 04:19:56   VAX-11 MACRO X0.3-11               Page  15
SYMBOL TABLE                                                                                                                     (1)

$$$$           = 0000020F R     05   GBL...         = 00000000            PHD$L_R8         000000A8
$$$CHARS       = 00000028            LONG           = 00000004  G         PHD$L_R9         000000AC
$$$CHARS1      = 0000001C            MOD_MSG_CODE     ********   X   05   PHD$L_REFERFLT   00000014
$$$CHARS2      = 0000001B            MOD_MSG_PRINT    ********   X   05   PHD$L_SSP        00000080
$$$CHARS3      = 00000000            MSG1_INP_CTL     00000019 R     03   PHD$L_USP        00000084
$$$CHARS4      = 00000000            MSG3_ERR_CTL     00000039 RG    03   PHD$L_WSL        00000118
$$$CHARS5      = 00000000            MSG_A            ********   X   05   PHD$M_DALCSTX  = 00000002
$$$COND_A      = 00000001            MSG_B            ********   X   05   PHD$M_PFMFLG   = 00000001
$$$STRINGS     = 00000001            MSG_CTXT         ********   X   05   PHD$M_WSPEAKCHK= 00000004
$$$STRINGS2    = 00000005            MSG_DATA1        ********   X   05   PHD$Q_PRIVMSK    00000000
$$T2           = 00000004            NOTARG         = 00000000  G         PHD$S_ASTLVL   = 00000008
BIT...         = 00000020            NULL           = 00000014  G         PHD$S_P0LR     = 00000018
BYTE           = 00000001  G         ONES             ********   X   05   PHD$V_ASTLVL   = 00000018
CFLAG            ********   X   05   OUTPUT_MSG       ********   X   05   PHD$V_DALCSTX  = 00000001
CHMRTN           ********   X   05   PCV              ********   X   05   PHD$V_P0LR     = 00000000
CHM_CONT         ********   X   05   PHD$B_ASTLVL     000000CF            PHD$V_PFMFLG   = 00000000
COMP_SC          ********   X   05   PHD$B_DFPFC      00000038            PHD$V_WSPEAKCHK= 00000002
COND1            000000C0 RG    05   PHD$B_PAGFIL     0000001F            PHD$W_ASTLM      00000044
COND1_C        = 00000004            PHD$B_PGTBPFC    00000039            PHD$W_BAK        00000048
COND1_CLEANUP    000000C1 RG    05   PHD$C_LENGTH     00000118            PHD$W_DFWSCNT    0000001A
COND1_E          0000003D R     04   PHD$C_PHDPAGCTX= 00000008            PHD$W_EMPTPG     000000D8
COND1_H          00000011 RG    04   PHD$K_LENGTH     00000118            PHD$W_EXTDYNWS   00000076
COND1_T          0000000A R     04   PHD$L_BIOCNT     00000054            PHD$W_FILLM      00000060
COND1_TAB        00000012 R     04   PHD$L_CPULIM     00000058            PHD$W_FLAGS      0000003A
COND2            000000C2 RG    05   PHD$L_CPUTIM     0000003C            PHD$W_PHVINDEX   00000046
COND2_C        = 00000000            PHD$L_DIOCNT     00000050            PHD$W_PRCLM      00000042
COND2_CLEANUP    000000C3 RG    05   PHD$L_ESP        0000007C            PHD$W_PST        00000020
COND2_E          0000009A R     04   PHD$L_FREP0VA    00000028            PHD$W_PSTBASMAX  0000004A
COND2_H          00000058 RG    04   PHD$L_FREP1VA    00000030            PHD$W_PSTFREE    00000026
COND2_T          00000045 R     04   PHD$L_FREPTECNT  0000002C            PHD$W_PSTLAST    00000024
COND2_TAB        00000059 R     04   PHD$L_KSP        00000078            PHD$W_PTCNTACT   00000070
COND3            000000C4 RG    05   PHD$L_P0BR       000000C8            PHD$W_PTCNTLCK   0000006C
COND3_C        = 00000014            PHD$L_P0LRASTL   000000CC            PHD$W_PTCNTMAX   00000072
COND3_CLEANUP    000000C5 RG    05   PHD$L_P1BR       000000D0            PHD$W_PTCNTVAL   0000006E
COND3_H          000000A2 RG    04   PHD$L_P1LR       000000D4            PHD$W_QUANT      00000040
COND3_T          000000A2 R     04   PHD$L_PAGEFLTS   0000004C            PHD$W_TQLM       00000062
COND3_TAB        000000A2 R     04   PHD$L_PAGFIL     0000001C            PHD$W_WSAUTH     0000000A
COND4            000000C6 RG    05   PHD$L_PC         000000C0            PHD$W_WSDYN      0000000E
COND4_C        = 00000014            PHD$L_PCB        00000078            PHD$W_WSFLUID    00000074
COND4_CLEANUP    000000C7 RG    05   PHD$L_PGFLCNT    00000034            PHD$W_WSLAST     00000012
COND4_H          000000A3 RG    04   PHD$L_PGFLQUOTA  0000005C            PHD$W_WSLIST     00000008
COND4_T          000000A3 R     04   PHD$L_PSL        000000C4            PHD$W_WSLOCK     0000000C
COND4_TAB        000000A3 R     04   PHD$L_PSTBASOFF  00000020            PHD$W_WSLX       0000004A
COND5            000000C8 RG    05   PHD$L_PTWSLELCK  00000064            PHD$W_WSNEXT     00000010
COND5_C        = 00000014            PHD$L_PTWSLEVAL  00000068            PHD$W_WSQUOTA    00000018
COND5_CLEANUP    000000C9 RG    05   PHD$L_R0         00000088            PRIVMASK         00000000 R     04
COND5_H          000000A4 RG    04   PHD$L_R1         0000008C            PROCESS_ERR      ********   X   05
COND5_T          000000A4 R     04   PHD$L_R10        000000B0            PRV$V_ALLSPOOL = 00000004
COND5_TAB        000000A4 R     04   PHD$L_R11        000000B4            PRV$V_BUGCHK   = 00000017
CTL$GL_PHD       ********   X   05   PHD$L_R12        000000B8            PRV$V_CMEXEC   = 00000001
DESC           = 00000010  G         PHD$L_R13        000000BC            PRV$V_CMKRNL   = 00000000
EFLAG            ********   X   05   PHD$L_R2         00000090            PRV$V_DETACH   = 00000005
EXPV             ********   X   05   PHD$L_R3         00000094            PRV$V_DIAGNOSE = 00000006
FAO_DESC         ********   X   05   PHD$L_R4         00000098            PRV$V_EXQUOTA  = 00000013
FAO_LEN          ********   X   05   PHD$L_R5         0000009C            PRV$V_GROUP    = 00000008
FORM_CONDS       000000CA RG    05   PHD$L_R6         000000A0            PRV$V_GRPNAM   = 00000003
FORM_CONDSX      000001BF R     05   PHD$L_R7         000000A4            PRV$V_LOG_IO   = 00000007
SATSSS83        SATS SYSTEM SERVICE TESTS  $SETSWM (SUCC S.C.)   22-AUG-1978 04:19:56   VAX-11 MACRO X0.3-11               Page  16
SYMBOL TABLE                                                                                                                     (1)

PRV$V_MOUNT    = 00000011
PRV$V_NETMBX   = 00000014
PRV$V_NOACNT   = 00000009
PRV$V_OPER     = 00000012
PRV$V_PHY_IO   = 00000016
PRV$V_PRMCEB   = 0000000A
PRV$V_PRMGBL   = 00000018
PRV$V_PRMMBX   = 0000000B
PRV$V_PSWAPM   = 0000000C
PRV$V_SETPRI   = 0000000D
PRV$V_SETPRV   = 0000000E
PRV$V_SYSGBL   = 00000019
PRV$V_SYSNAM   = 00000002
PRV$V_TMPMBX   = 0000000F
PRV$V_VOLPRO   = 00000015
PRV$V_WORLD    = 00000010
QUAD           = 00000008  G
RECV             ********   X   05
REST_REGS        ********   X   05
SAVE_REGS        ********   X   05
SS$_NORMAL       ********   X   05
SS$_WASCLR       ********   X   04
SS$_WASSET       ********   X   04
STATCODES        00000008 R     04
SUCCESS          ********   X   05
SWPFLG           0000003D R     04
SYS$CMKRNL       ********   X   05
SYS$FAO          ********   X   05
SYS$SETPRN       ********   X   05
SYS$SETSWM       ********   X   05
TESTNUM          ********   X   05
TEST_MOD_NAME    00000000 RG    03
TEST_MOD_NAME_D  00000009 R     03
TEST_MOD_SUCC    ********   X   05
TMD_ADDR         ********   X   05
TM_CLEANUP       000000BC RG    05
TM_SETUP         00000000 RG    05
VERIFY           000001C0 RG    05
VERIFYX          00000252 R     05
VFY_CLEANUP      00000253 RG    05
WORD           = 00000002  G
WRITE_MSG2       ********   X   05


PROGRAM SECTION SYNOPSIS

.  ABS  .        00000000      00     NOPIC   USR   CON   ABS   LCL NOSHR NOEXE NORD  NOWRT BYTE
. BLANK .        00000000      01     NOPIC   USR   CON   REL   LCL NOSHR   EXE   RD    WRT BYTE
$ABS$            0000011C      02     NOPIC   USR   CON   ABS   LCL NOSHR   EXE   RD    WRT BYTE
RODATA           00000051      03     NOPIC   USR   CON   REL   LCL NOSHR NOEXE   RD  NOWRT LONG
RWDATA           000000A5      04     NOPIC   USR   CON   REL   LCL NOSHR NOEXE   RD    WRT LONG
SATSSS83         0000025D      05     NOPIC   USR   CON   REL   LCL NOSHR   EXE   RD    WRT BYTE


THERE WERE NO ERRORS OR WARNINGS.
15872. BYTES LEFT IN FREE MEMORY POOL.
854. BYTES OF RECLAIMED MEMORY.
SATSSS83        SATS SYSTEM SERVICE TESTS  $SETSWM (SUCC S.C.)   22-AUG-1978 04:19:56   VAX-11 MACRO X0.3-11               Page  17
PROGRAM SECTION SYNOPSIS                                                                                                         (1)

OBJ$:SATSSS83,LIS$:SATSSS83/-SP=EXECML$/ML,LIB$:SYSTST.MLB/ML,SRC$:SATSSS83
31 MLB DIR RDS - 604 GETS TO DEFINE 23 MACROS. 25 INTER. FILE WRITES.
