SATSSS46        SATS SYSTEM SERVICE TESTS  $SETRWM (SUCC S.C.)   22-AUG-1978 04:09:14   VAX-11 MACRO X0.3-11               Page   0
TABLE OF CONTENTS

   (1)      48  DECLARATIONS
   (1)      84  CONDITION TABLES
   (1)     100  TM_SETUP, TM_CLEANUP
   (1)     163  CONDITION SUBROUTINES - SETUP AND CLEANUP
   (1)     233  FORM_CONDS
   (1)     326  VERIFY
   (1)     463  VFY_CLEANUP
   (1)     521  CANTIM AST ROUTINE
SATSSS46        SATS SYSTEM SERVICE TESTS  $SETRWM (SUCC S.C.)   22-AUG-1978 04:09:14   VAX-11 MACRO X0.3-11               Page   1
1.0                                                                                                                              (1)

                                     0000     1 	.TITLE	SATSSS46 SATS SYSTEM SERVICE TESTS  $SETRWM (SUCC S.C.)
                                     0000     2 	.IDENT	/1.0/
                                     0000     3
                                     0000     4 ;
                                     0000     5 ;			  COPYRIGHT (c) 1977,1978 BY
                                     0000     6 ;	      DIGITAL EQUIPMENT CORPORATION, MAYNARD, MASS.
                                     0000     7 ;
                                     0000     8 ; THIS SOFTWARE IS FURNISHED UNDER A LICENSE AND MAY BE USED AND  COPIED
                                     0000     9 ; ONLY  IN  ACCORDANCE  WITH  THE  TERMS  OF  SUCH  LICENSE AND WITH THE
                                     0000    10 ; INCLUSION OF THE ABOVE COPYRIGHT NOTICE.  THIS SOFTWARE OR  ANY  OTHER
                                     0000    11 ; COPIES  THEREOF MAY NOT BE PROVIDED OR OTHERWISE MADE AVAILABLE TO ANY
                                     0000    12 ; OTHER PERSON.  NO TITLE TO AND OWNERSHIP OF  THE  SOFTWARE  IS  HEREBY
                                     0000    13 ; TRANSFERRED.
                                     0000    14 ;
                                     0000    15 ; THE INFORMATION IN THIS SOFTWARE IS SUBJECT TO CHANGE  WITHOUT  NOTICE
                                     0000    16 ; AND  SHOULD  NOT  BE  CONSTRUED  AS  A COMMITMENT BY DIGITAL EQUIPMENT
                                     0000    17 ; CORPORATION.
                                     0000    18 ;
                                     0000    19 ; DIGITAL ASSUMES NO RESPONSIBILITY FOR THE USE OR  RELIABILITY  OF  ITS
                                     0000    20 ; SOFTWARE ON EQUIPMENT WHICH IS NOT SUPPLIED BY DIGITAL.
                                     0000    21 ;
                                     0000    22
                                     0000    23 ;++
                                     0000    24 ; FACILITY:	SYSTST (SATS SYSTEM SERVICE TESTS)
                                     0000    25 ;
                                     0000    26 ; ABSTRACT:
                                     0000    27 ;
                                     0000    28 ;		THIS MODULE CONTAINS SUBROUTINES WHICH, WHEN LINKED
                                     0000    29 ; WITH SUCCOMMON.OBJ, FORM TEST MODULE SATSSS46 TO TEST SUCCESSFUL
                                     0000    30 ; OPERATION OF THE $SETRWM SYSTEM SERVICE. THE SERVICE IS INVOKED
                                     0000    31 ; UNDER VARIOUS INPUT CONDITIONS WITH VARYING INPUT PARAMETERS. ONLY
                                     0000    32 ; SUCCESSFUL STATUS CODES ARE EXPECTED IN THIS TEST MODULE.  CORRECT
                                     0000    33 ; OPERATION OF THE SERVICE FOR EACH OF ITS ISSUANCES IS VERIFIED BY
                                     0000    34 ; CHECKING FOR AN SS$_NORMAL STATUS CODE, EXPECTED RETURN ARGUMENTS
                                     0000    35 ; AND EXPECTED FUNCTIONALITY PERFORMED.
                                     0000    36 ;
                                     0000    37 ; ENVIRONMENT:	USER MODE IMAGE; NEEDS CMKRNL PRIVILEGE,
                                     0000    38 ;		DYNAMICALLY ACQUIRES OTHER PRIVILEGES, AS NEEDED.
                                     0000    39 ;
                                     0000    40 ; AUTHOR: THOMAS L. CAFARELLA,		CREATION DATE: APR, 1978
                                     0000    41 ;
                                     0000    42 ; MODIFIED BY:
                                     0000    43 ;
                                     0000    44 ;	, : VERSION
                                     0000    45 ; 01	-
                                     0000    46 ;--
SATSSS46        SATS SYSTEM SERVICE TESTS  $SETRWM (SUCC S.C.)   22-AUG-1978 04:09:14   VAX-11 MACRO X0.3-11               Page   2
1.0             DECLARATIONS                                                                                                     (1)

                                     0000    48 	.SBTTL	DECLARATIONS
                                     0000    49 ;
                                     0000    50 ; INCLUDE FILES:
                                     0000    51 ;
                                     0000    52 	$PRVDEF				; PRIVILEGE BIT DEFINITIONS
                                     0000    53 	$PHDDEF				; PROCESS HEADER OFFSETS
                                     0000    54 ;
                                     0000    55 ; MACROS:
                                     0000    56 ;
                                     0000    57 ;
                                     0000    58 ; EQUATED SYMBOLS:
                                     0000    59 ;
                           00000000  0000    60 ENABLE		= 0			; RESOURCE WAIT MODE ENABLE FLAG
                           00000001  0000    61 DISABLE		= 1			; RESOURCE WAIT MODE DISABLE FLAG
                           00000001  0000    62 SPECIAL_TQE	= 1			; REQIDT VALUE FOR $SETIMR SERVICE
                           00000002  0000    63 LOOP_TQE	= 2			; REQIDT VALUE FOR $SETIMR SERVICE
                                     0000    64 ;
                                     0000    65 ; OWN STORAGE:
                                     0000    66 ;
SATSSS46        SATS SYSTEM SERVICE TESTS  $SETRWM (SUCC S.C.)   22-AUG-1978 04:09:14   VAX-11 MACRO X0.3-11               Page   3
1.0             DECLARATIONS                                                                                                     (1)

                                 00000000    68 	.PSECT	RODATA,RD,NOWRT,NOEXE,LONG
                                     0000    69 TEST_MOD_NAME::	STRING	C,<SATSSS46>	; TEST MODULE NAME
                                     0009    70 TEST_MOD_NAME_D: STRING	I,<SATSSS46>	; TEST MODULE NAME DESCRIPTOR
                                     0019    71 MSG1_INP_CTL:	STRING	I,<  SSSRW!4ZW: CONDITIONS:>
                                     0039    72 					; FAO CTL STRING FOR MSG1 IN SUCCOMMON.MAR
                                     0039    73 MSG3_ERR_CTL::	STRING	I,< *SSSRW!4ZW: !AS>
                                     0051    74 					; FAO CTL STRING FOR MSG3 IN SUCCOMMON.MAR
                  FFFFFFFF DC3CBA00  0051    75 ONE_MIN:	.LONG	-10*1000*1000*60,-1  ; ONE MINUTE ($SETIMR DELTA)
                  FFFFFFFF 4D2FA200  0059    76 FIV_MINS:	.LONG	-10*1000*1000*60*5,-1  ; 5 MINUTES ($SETIMR DELTA)
SATSSS46        SATS SYSTEM SERVICE TESTS  $SETRWM (SUCC S.C.)   22-AUG-1978 04:09:14   VAX-11 MACRO X0.3-11               Page   4
1.0             DECLARATIONS                                                                                                     (1)

                                 00000000    78 	.PSECT	RWDATA,RD,WRT,NOEXE,LONG
                           00000008  0000    79 PRIVMASK:	.BLKQ	1		; ADDR OF PRIVILEGE MASK (IN PHD)
                           0000000A  0008    80 ASTSYNCH:	.BLKW	1		; CONTAINS TESTNUM AFTER AST RTN ENTERED
                                     000A    81 					; ... USED TO VERIFY RES. WAIT REALLY OCCURS
                           0000000E  000A    82 TQECNT:		.BLKL	1		; CNT OF TIMER REQUESTS (AND, HENCE, TQE'S)
SATSSS46        SATS SYSTEM SERVICE TESTS  $SETRWM (SUCC S.C.)   22-AUG-1978 04:09:14   VAX-11 MACRO X0.3-11               Page   5
1.0             CONDITION TABLES                                                                                                 (1)

                                     000E    84 	.SBTTL	CONDITION TABLES
                                     000E    85 ;
                                     000E    86 ;	***** CONDITION TABLES FOR SETRWM SYSTEM SERVICE *****
                                     000E    87 ;
                                     000E    88 	COND	1,NULL
                                     000F    89
                                     000F    90 	COND	2,NULL
                                     0010    91
                                     0010    92 	COND	3,NULL
                                     0011    93
                                     0011    94 	COND	4,NULL
                                     0012    95
                                     0012    96 	COND	5,NULL
                                     0013    97
                                 00000000    98 	.PSECT	SATSSS46,RD,WRT,EXE
SATSSS46        SATS SYSTEM SERVICE TESTS  $SETRWM (SUCC S.C.)   22-AUG-1978 04:09:14   VAX-11 MACRO X0.3-11               Page   6
1.0             TM_SETUP, TM_CLEANUP                                                                                             (1)

                                     0000   100 	.SBTTL	TM_SETUP, TM_CLEANUP
                                     0000   101 ;++
                                     0000   102 ; FUNCTIONAL DESCRIPTION:
                                     0000   103 ;
                                     0000   104 ;		TM_SETUP AND TM_CLEANUP ARE CALLED TO PERFORM
                                     0000   105 ; REQUIRED HOUSEKEEPING AT THE BEGINNING AND END, RESPECTIVELY, OF
                                     0000   106 ; TEST MODULE EXECUTION.
                                     0000   107 ;
                                     0000   108 ; CALLING SEQUENCE:
                                     0000   109 ;
                                     0000   110 ;	BSBW TM_SETUP   BSBW TM_CLEANUP
                                     0000   111 ;
                                     0000   112 ; INPUT PARAMETERS:
                                     0000   113 ;
                                     0000   114 ;	NONE
                                     0000   115 ;
                                     0000   116 ; IMPLICIT INPUTS:
                                     0000   117 ;
                                     0000   118 ;	NONE
                                     0000   119 ;
                                     0000   120 ; OUTPUT PARAMETERS:
                                     0000   121 ;
                                     0000   122 ;	NONE
                                     0000   123 ;
                                     0000   124 ; IMPLICIT OUTPUTS:
                                     0000   125 ;
                                     0000   126 ;	TM_SETUP:  COND TABLE INDEX REGISTERS (R2,3,4,5,6) CLEARED;
                                     0000   127 ;		   ALL PRIVILEGES ACQUIRED.
                                     0000   128 ;
                                     0000   129 ; COMPLETION CODES:
                                     0000   130 ;
                                     0000   131 ;	EFLAG SET TO NON-ZERO IF ERROR ENCOUNTERED.
                                     0000   132 ;
                                     0000   133 ; SIDE EFFECTS:
                                     0000   134 ;
                                     0000   135 ;	SS_CHECK AND ERR_EXIT MACROS CAUSE PREMATURE EXIT
                                     0000   136 ;	(VIA RSB) IF ERROR ENCOUNTERED.
                                     0000   137 ;
                                     0000   138 ;--
                                     0000   139
                                     0000   140
                                     0000   141
                                     0000   142 TM_SETUP::
                          52     D4  0000   143 	CLRL	R2			; INITIALIZE
                          53     D4  0002   144 	CLRL	R3			; .. CONDITION
                          54     D4  0004   145 	CLRL	R4			; .... TABLE
                          55     D4  0006   146 	CLRL	R5			; ...... INDEX
                          56     D4  0008   147 	CLRL	R6			; ........ REGISTERS
                          FFF3'  30  000A   148 	BSBW	MOD_MSG_PRINT		; PRINT TEST MODULE BEGIN MSG
   00000000'EF   00000000'EF     DE  000D   149 	MOVAL	TEST_MOD_SUCC,TMD_ADDR	; ASSUME END MSG WILL SHOW SUCCESS
            00   00000000'8F     F0  0018   150 	INSV	#SUCCESS,#0,#3,MOD_MSG_CODE ; ADJUST STATUS CODE FOR SUCCESS
   00000000'EF            03         001F
                                     0025   151 	MODE	TO,5$,KRNL		; KERNEL MODE TO ACCESS PHD
            59   00000000'9F     D0  0048   152 	MOVL	@#CTL$GL_PHD,R9		; GET PROCESS HEADER ADDRESS
   00000000'EF            69     DE  004F   153 	MOVAL	PHD$Q_PRIVMSK(R9),PRIVMASK ; GET PRIV MASK ADDRESS
                                     0056   154 	MODE	FROM,5$	; BACK TO USER MODE
                                     0057   155 	PRIV	ADD,ALL			; GET ALL PRIVILEGES
SATSSS46        SATS SYSTEM SERVICE TESTS  $SETRWM (SUCC S.C.)   22-AUG-1978 04:09:14   VAX-11 MACRO X0.3-11               Page   7
1.0             TM_SETUP, TM_CLEANUP                                                                                             (1)

                                     0080   156 	$SETPRN_S TEST_MOD_NAME_D 	; SET PROCESS NAME
                                     008D   157 	SS_CHECK  NORMAL		; CHECK STATUS CODE RETURNED FROM SETPRN
                                 05  00BB   158 	RSB				; RETURN TO MAIN ROUTINE
                                     00BC   159 TM_CLEANUP::
                          FF41'  30  00BC   160 	BSBW	MOD_MSG_PRINT		; PRINT TEST MODULE END MSG
                                 05  00BF   161 	RSB				; RETURN TO MAIN ROUTINE
SATSSS46        SATS SYSTEM SERVICE TESTS  $SETRWM (SUCC S.C.)   22-AUG-1978 04:09:14   VAX-11 MACRO X0.3-11               Page   8
1.0             CONDITION SUBROUTINES - SETUP AND CLEANUP                                                                        (1)

                                     00C0   163 	.SBTTL	CONDITION SUBROUTINES - SETUP AND CLEANUP
                                     00C0   164 ;++
                                     00C0   165 ; FUNCTIONAL DESCRIPTION:
                                     00C0   166 ;
                                     00C0   167 ;		CONDX AND CONDX_CLEANUP ARE SUBROUTINES WHICH ARE EXECUTED
                                     00C0   168 ; BEFORE AND AFTER THE VERIFY SUBROUTINE, RESPECTIVELY, WHENEVER A NEW
                                     00C0   169 ; CONDITION X VALUE IS SELECTED (SEE FUNCTIONAL DESCRIPTION OF SUCCOMMON
                                     00C0   170 ; ROUTINE IN SUCCOMMON.MAR). ANY SETUP FUNCTION PARTICULAR TO THE
                                     00C0   171 ; CONDITION X TABLE IS INCLUDED IN THE CONDX SUBROUTINE AND CLEANED
                                     00C0   172 ; UP, IF NECESSARY, IN THE CONDX_CLEANUP SUBROUTINE. THIS INCLUDES,
                                     00C0   173 ; ESPECIALLY, CODE TO DETECT CONFLICTS AMONG CURRENT ENTRIES IN TWO
                                     00C0   174 ; OR MORE CONDITION TABLES. IF A CONFLICT IS DETECTED, A NON-ZERO
                                     00C0   175 ; VALUE IS STORED INTO CONFLICT, WHICH CAUSES THE CALLING ROUTINE
                                     00C0   176 ; (SUCCOMMON) TO SKIP THE CURRENT ENTRY IN THE CONDITION X TABLE.
                                     00C0   177 ;
                                     00C0   178 ; CALLING SEQUENCE:
                                     00C0   179 ;
                                     00C0   180 ;	BSBW CONDX   BSBW CONDX_CLEANUP
                                     00C0   181 ;	  WHERE X = 1,2,3,4,5
                                     00C0   182 ;
                                     00C0   183 ; INPUT PARAMETERS:
                                     00C0   184 ;
                                     00C0   185 ;	CONFLICT = 0
                                     00C0   186 ;
                                     00C0   187 ; IMPLICIT INPUTS:
                                     00C0   188 ;
                                     00C0   189 ;	R2,3,4,5,6 CONTAIN CURRENT CONDITION TABLE INDEX VALUES
                                     00C0   190 ;	  FOR COND TABLES 1,2,3,4,5, RESPECTIVELY.
                                     00C0   191 ;
                                     00C0   192 ; OUTPUT PARAMETERS:
                                     00C0   193 ;
                                     00C0   194 ;	CONFLICT SET TO NON-ZERO IF COND TABLE CONFLICT DETECTED.
                                     00C0   195 ;
                                     00C0   196 ; IMPLICIT OUTPUTS:
                                     00C0   197 ;
                                     00C0   198 ;	R2,3,4,5,6 PRESERVED
                                     00C0   199 ;
                                     00C0   200 ; COMPLETION CODES:
                                     00C0   201 ;
                                     00C0   202 ;	NONE
                                     00C0   203 ;
                                     00C0   204 ; SIDE EFFECTS:
                                     00C0   205 ;
                                     00C0   206 ;	NONE
                                     00C0   207 ;
                                     00C0   208 ;--
                                     00C0   209
                                     00C0   210
                                     00C0   211
                                     00C0   212 COND1::
                                 05  00C0   213 	RSB				; RETURN TO MAIN ROUTINE
                                     00C1   214 COND1_CLEANUP::
                                 05  00C1   215 	RSB				; RETURN TO MAIN ROUTINE
                                     00C2   216 COND2::
                                 05  00C2   217 	RSB				; RETURN TO MAIN ROUTINE
                                     00C3   218 COND2_CLEANUP::
                                 05  00C3   219 	RSB				; RETURN TO MAIN ROUTINE
SATSSS46        SATS SYSTEM SERVICE TESTS  $SETRWM (SUCC S.C.)   22-AUG-1978 04:09:14   VAX-11 MACRO X0.3-11               Page   9
1.0             CONDITION SUBROUTINES - SETUP AND CLEANUP                                                                        (1)

                                     00C4   220 COND3::
                                 05  00C4   221 	RSB				; RETURN TO MAIN ROUTINE
                                     00C5   222 COND3_CLEANUP::
                                 05  00C5   223 	RSB				; RETURN TO MAIN ROUTINE
                                     00C6   224 COND4::
                                 05  00C6   225 	RSB				; RETURN TO MAIN ROUTINE
                                     00C7   226 COND4_CLEANUP::
                                 05  00C7   227 	RSB				; RETURN TO MAIN ROUTINE
                                     00C8   228 COND5::
                                 05  00C8   229 	RSB				; RETURN TO MAIN ROUTINE
                                     00C9   230 COND5_CLEANUP::
                                 05  00C9   231 	RSB				; RETURN TO MAIN ROUTINE
SATSSS46        SATS SYSTEM SERVICE TESTS  $SETRWM (SUCC S.C.)   22-AUG-1978 04:09:14   VAX-11 MACRO X0.3-11               Page  10
1.0             FORM_CONDS                                                                                                       (1)

                                     00CA   233 	.SBTTL	FORM_CONDS
                                     00CA   234 ;++
                                     00CA   235 ; FUNCTIONAL DESCRIPTION:
                                     00CA   236 ;
                                     00CA   237 ; 		FORM_CONDS FORMATS AND PRINTS INFORMATION ABOUT
                                     00CA   238 ;  THE CURRENT ELEMENT IN EACH OF THE CONDITION TABLES.
                                     00CA   239 ;
                                     00CA   240 ; CALLING SEQUENCE:
                                     00CA   241 ;
                                     00CA   242 ;	BSBW FORM_CONDS
                                     00CA   243 ;
                                     00CA   244 ; INPUT PARAMETERS:
                                     00CA   245 ;
                                     00CA   246 ;	NONE
                                     00CA   247 ;
                                     00CA   248 ; IMPLICIT INPUTS:
                                     00CA   249 ;
                                     00CA   250 ;	R2,3,4,5,6 CONTAIN CURRENT CONDITION TABLE INDEX VALUES
                                     00CA   251 ;	  FOR COND TABLES 1,2,3,4,5, RESPECTIVELY.
                                     00CA   252 ;	FOR X = 1,2,3,4,5 :
                                     00CA   253 ;		CONDX_T - TITLE TEXT FOR CONDX TABLE
                                     00CA   254 ;		CONDX_TAB - ELEMENT TEXT FOR CONDX TABLE
                                     00CA   255 ;		CONDX_C - CONTEXT OF THE CONDX TABLE
                                     00CA   256 ;		CONDX_E - DATA ELEMENTS OF THE CONDX TABLE
                                     00CA   257 ;
                                     00CA   258 ; OUTPUT PARAMETERS:
                                     00CA   259 ;
                                     00CA   260 ;	NONE
                                     00CA   261 ;
                                     00CA   262 ; IMPLICIT OUTPUTS:
                                     00CA   263 ;
                                     00CA   264 ;	NONE
                                     00CA   265 ;
                                     00CA   266 ; COMPLETION CODES:
                                     00CA   267 ;
                                     00CA   268 ;	NONE
                                     00CA   269 ;
                                     00CA   270 ; SIDE EFFECTS:
                                     00CA   271 ;
                                     00CA   272 ;	NONE
                                     00CA   273 ;
                                     00CA   274 ;--
                                     00CA   275
                                     00CA   276
                                     00CA   277
                                     00CA   278 FORM_CONDS::
                                     00CA   279 	$FAO_S	MSG1_INP_CTL,FAO_LEN,FAO_DESC,TESTNUM
                                     00E9   280 					; FORMAT CONDITIONS HEADER MSG
                          FF14'  30  00E9   281 	BSBW	OUTPUT_MSG		; ... AND PRINT IT
            14            14     91  00EC   282 	CMPB	#COND1_C,#NULL		; IS CONDITION 1 NULL ?
                          03     12  00EF   283 	BNEQU	10$			; NO -- CONTINUE
                          00BF   31  00F1   284 	BRW	FORM_CONDSX		; YES -- SUBROUTINE IS FINISHED
                                     00F4   285 10$:
   00000000'EF   0000000E'EF     DE  00F4   286 	MOVAL	COND1_T,MSG_A		; SAVE ADDRESS OF CONDITION 1 TITLE FOR FAO
   00000000'EF   0000000E'EF42   D0  00FF   287 	MOVL	COND1_TAB[R2],MSG_B 	; SAVE ADDR OF COND 1 CURR TEXT ELT FOR FAO
   00000000'EF            14     90  010B   288 	MOVB	#COND1_C,MSG_CTXT 	; SAVE CONDITION 1 CONTEXT FOR FAO
                                     0112   289 	MOV_VAL	COND1_C,COND1_E[R2],MSG_DATA1 ; GIVE COND 1 DATA VALUE TO FAO
SATSSS46        SATS SYSTEM SERVICE TESTS  $SETRWM (SUCC S.C.)   22-AUG-1978 04:09:14   VAX-11 MACRO X0.3-11               Page  11
1.0             FORM_CONDS                                                                                                       (1)

                          FEEB'  30  0112   290 	BSBW	WRITE_MSG2		; FORMAT AND WRITE CONDITION 1 MSG
            14            14     91  0115   291 	CMPB	#COND2_C,#NULL		; IS CONDITION 2 NULL ?
                          03     12  0118   292 	BNEQU	20$			; NO -- CONTINUE
                          0096   31  011A   293 	BRW	FORM_CONDSX		; YES -- SUBROUTINE IS FINISHED
                                     011D   294 20$:
   00000000'EF   0000000F'EF     DE  011D   295 	MOVAL	COND2_T,MSG_A		; SAVE ADDRESS OF CONDITION 2 TITLE FOR FAO
   00000000'EF   0000000F'EF43   D0  0128   296 	MOVL	COND2_TAB[R3],MSG_B 	; SAVE ADDR OF COND 2 CURR TEXT ELT FOR FAO
   00000000'EF            14     90  0134   297 	MOVB	#COND2_C,MSG_CTXT 	; SAVE CONDITION 2 CONTEXT FOR FAO
                                     013B   298 	MOV_VAL	COND2_C,COND2_E[R3],MSG_DATA1 ; GIVE COND 2 DATA VALUE TO FAO
                          FEC2'  30  013B   299 	BSBW	WRITE_MSG2		; FORMAT AND WRITE CONDITION 2 MSG
            14            14     91  013E   300 	CMPB	#COND3_C,#NULL		; IS CONDITION 3 NULL ?
                          03     12  0141   301 	BNEQU	30$			; NO -- CONTINUE
                          006D   31  0143   302 	BRW	FORM_CONDSX		; YES -- SUBROUTINE IS FINISHED
                                     0146   303 30$:
   00000000'EF   00000010'EF     DE  0146   304 	MOVAL	COND3_T,MSG_A		; SAVE ADDRESS OF CONDITION 3 TITLE FOR FAO
   00000000'EF   00000010'EF44   D0  0151   305 	MOVL	COND3_TAB[R4],MSG_B 	; SAVE ADDR OF COND 3 CURR TEXT ELT FOR FAO
   00000000'EF            14     90  015D   306 	MOVB	#COND3_C,MSG_CTXT 	; SAVE CONDITION 3 CONTEXT FOR FAO
                                     0164   307 	MOV_VAL	COND3_C,COND3_E[R4],MSG_DATA1 ; GIVE COND 3 DATA VALUE TO FAO
                          FE99'  30  0164   308 	BSBW	WRITE_MSG2		; FORMAT AND WRITE CONDITION 3 MSG
            14            14     91  0167   309 	CMPB	#COND4_C,#NULL		; IS CONDITION 4 NULL ?
                          47     13  016A   310 	BEQLU	FORM_CONDSX		; YES -- SUBROUTINE IS FINISHED
   00000000'EF   00000011'EF     DE  016C   311 	MOVAL	COND4_T,MSG_A		; SAVE ADDRESS OF CONDITION 4 TITLE FOR FAO
   00000000'EF   00000011'EF45   D0  0177   312 	MOVL	COND4_TAB[R5],MSG_B 	; SAVE ADDR OF COND 4 CURR TEXT ELT FOR FAO
   00000000'EF            14     90  0183   313 	MOVB	#COND4_C,MSG_CTXT 	; SAVE CONDITION 4 CONTEXT FOR FAO
                                     018A   314 	MOV_VAL	COND4_C,COND4_E[R5],MSG_DATA1 ; GIVE COND 4 DATA VALUE TO FAO
                          FE73'  30  018A   315 	BSBW	WRITE_MSG2		; FORMAT AND WRITE CONDITION 4 MSG
            14            14     91  018D   316 	CMPB	#COND5_C,#NULL		; IS CONDITION 5 NULL ?
                          21     13  0190   317 	BEQLU	FORM_CONDSX		; YES -- SUBROUTINE IS FINISHED
   00000000'EF   00000012'EF     DE  0192   318 	MOVAL	COND5_T,MSG_A		; SAVE ADDRESS OF CONDITION 5 TITLE FOR FAO
   00000000'EF   00000012'EF46   D0  019D   319 	MOVL	COND5_TAB[R6],MSG_B 	; SAVE ADDR OF COND 5 CURR TEXT ELT FOR FAO
   00000000'EF            14     90  01A9   320 	MOVB	#COND5_C,MSG_CTXT 	; SAVE CONDITION 5 CONTEXT FOR FAO
                                     01B0   321 	MOV_VAL	COND5_C,COND5_E[R6],MSG_DATA1 ; GIVE COND 5 DATA VALUE TO FAO
                          FE4D'  30  01B0   322 	BSBW	WRITE_MSG2		; FORMAT AND WRITE CONDITION 5 MSG
                                     01B3   323 FORM_CONDSX:
                                 05  01B3   324 	RSB				; RETURN TO CALLER
SATSSS46        SATS SYSTEM SERVICE TESTS  $SETRWM (SUCC S.C.)   22-AUG-1978 04:09:14   VAX-11 MACRO X0.3-11               Page  12
1.0             VERIFY                                                                                                           (1)

                                     01B4   326 	.SBTTL	VERIFY
                                     01B4   327 ;++
                                     01B4   328 ; FUNCTIONAL DESCRIPTION:
                                     01B4   329 ;
                                     01B4   330 ;		VERIFY IS CALLED ONCE FOR EACH COMBINATION OF CONDITION
                                     01B4   331 ; TABLE VALUES (AS DETERMINED BY THE INDEX REGISTERS R2,3,4,5,6 FOR
                                     01B4   332 ; COND TABLES 1,2,3,4,5, RESPECTIVELY). VERIFY ESTABLISHES THE CONDITIONS
                                     01B4   333 ; SPECIFIED BY THE COND TABLES AND ISSUES THE SUBJECT SYSTEM SERVICE
                                     01B4   334 ; ($SETRWM). THEN, THE SUCCESSFUL OPERATION OF THE SERVICE IS VERIFIED
                                     01B4   335 ; BY EXAMINING THE STATUS CODE RETURNED, THE VALUES FOR RETURN ARGUMENTS
                                     01B4   336 ; AND THE FUNCTIONALITY PERFORMED. THE EXAMINATIONS TAKE THE FORM OF
                                     01B4   337 ; COMPARISONS AGAINST EXPECTED VALUES. ANY FAILING COMPARISON CAUSES AN
                                     01B4   338 ; ERR_EXIT MACRO TO BE EXECUTED (EITHER DIRECTLY, OR INDIRECTLY,
                                     01B4   339 ; THROUGH THE SS_CHECK MACRO); ERR_EXIT SETS EFLAG TO NON-ZERO,
                                     01B4   340 ; PRINTS ERROR MESSAGES AND CAUSES AN IMMEDIATE RSB TO CALLER.
                                     01B4   341 ; WHEN ERR_EXIT IS EXECUTED, FURTHER CALLS TO VERIFY ARE SUPPRESSED,
                                     01B4   342 ; AND, AFTER EXECUTING CLEANUP SUBROUTINES, THE IMAGE EXITS.
                                     01B4   343 ;
                                     01B4   344 ; CALLING SEQUENCE:
                                     01B4   345 ;
                                     01B4   346 ;	BSBW VERIFY
                                     01B4   347 ;
                                     01B4   348 ; INPUT PARAMETERS:
                                     01B4   349 ;
                                     01B4   350 ;	NONE
                                     01B4   351 ;
                                     01B4   352 ; IMPLICIT INPUTS:
                                     01B4   353 ;
                                     01B4   354 ;	R2,3,4,5,6 CONTAIN CURRENT CONDITION TABLE INDEX VALUES
                                     01B4   355 ;	  FOR COND TABLES 1,2,3,4,5, RESPECTIVELY.
                                     01B4   356 ;	FOR X = 1,2,3,4,5 :
                                     01B4   357 ;		CONDX_E - ADDRESS OF TABLE OF DATA VALUES FOR CONDX
                                     01B4   358 ;		  TABLE. IF THE CONTEXT OF TABLE X IS A SYSTEM SERVICE
                                     01B4   359 ;		  ARGUMENT, THE ARGUMENT NAME MAY BE USED AS A SYNONYM
                                     01B4   360 ;		  FOR CONDX_E.
                                     01B4   361 ;
                                     01B4   362 ; OUTPUT PARAMETERS:
                                     01B4   363 ;
                                     01B4   364 ;	NONE
                                     01B4   365 ;
                                     01B4   366 ; IMPLICIT OUTPUTS:
                                     01B4   367 ;
                                     01B4   368 ;	VERIFY HAS NO OUTPUT. SINCE ITS PURPOSE IS TO TEST FOR ERRORS,
                                     01B4   369 ;	IT MERELY RETURNS TO CALLER NORMALLY AFTER THE TESTS, PROVIDING
                                     01B4   370 ;	ALL WERE SUCCESSFUL; IF AN ERROR IS DISCOVERED, RETURN IS VIA
                                     01B4   371 ;	AN ERR_EXIT OR SS_CHECK MACRO, BOTH OF WHICH DOCUMENT DETECTED
                                     01B4   372 ;	ERRORS.
                                     01B4   373 ;
                                     01B4   374 ; COMPLETION CODES:
                                     01B4   375 ;
                                     01B4   376 ;	EFLAG SET TO NON-ZERO IF ERROR ENCOUNTERED.
                                     01B4   377 ;
                                     01B4   378 ; SIDE EFFECTS:
                                     01B4   379 ;
                                     01B4   380 ;	SS_CHECK AND ERR_EXIT MACROS CAUSE PREMATURE EXIT
                                     01B4   381 ;	(VIA RSB) IF ERROR ENCOUNTERED.
                                     01B4   382 ;
SATSSS46        SATS SYSTEM SERVICE TESTS  $SETRWM (SUCC S.C.)   22-AUG-1978 04:09:14   VAX-11 MACRO X0.3-11               Page  13
1.0             VERIFY                                                                                                           (1)

                                     01B4   383 ;--
                                     01B4   384
                                     01B4   385
                                     01B4   386
                                     01B4   387 VERIFY::
                 00000000'EF     95  01B4   388 	TSTB	CFLAG			; SHOULD CONDITIONS BE PRINTED ?
                          03     13  01BA   389 	BEQL	5$			; NO -- CONTINUE
                          FF0B   30  01BC   390 	BSBW	FORM_CONDS		; YES -- FMT & PRINT ALL CONDS FOR THIS T.C.
                                     01BF   391 5$:
   00000008'EF   00000000'EF     B0  01BF   392 	MOVW	ONES,ASTSYNCH		; INDICATE AST RTN NOT YET EXECUTED
                 0000000A'EF     D4  01CA   393 	CLRL	TQECNT			; INIT TIMER COUNT FOR THIS TEST CASE
                                     01D0   394 ;
                                     01D0   395 ; * THE FOLLOWING $SETIMR IS ISSUED TO ALLOCATE (RESERVE) A TIMER
                                     01D0   396 ; * QUEUE ENTRY SO THAT IT IS AVAILABLE FOR LATER USE.
                                     01D0   397 ;
                                     01D0   398 	$SETIMR_S DAYTIM=FIV_MINS, REQIDT=#SPECIAL_TQE
                                     01E3   399 					; ALLOCATE A TQE BY REQUESTING A TIMER
                                     01E3   400 	SS_CHECK NORMAL			; CHECK FOR NORMAL RETURN
                                     0211   401 	$SETRWM_S #DISABLE		; DISABLE RESOURCE WAIT MODE
   00000000'8F            50     D1  021A   402 	CMPL	R0,#SS$_WASCLR		; WAS WAIT MODE PREVIOUSLY ENABLED ?
                          03     12  0221   403 	BNEQU	10$			; NO -- GO PROCESS ERROR
                          0063   31  0223   404 	BRW	TMRLOOP			; YES -- CONTINUE
                                     0226   405 10$:
   00000000'EF   00000000'8F     D0  0226   406 	MOVL	#SS$_WASCLR,EXPV 	; LOAD UP EXPECTED AND ...
   00000000'EF            50     D0  0231   407 	MOVL	R0,RECV			; ... RECEIVED VALUES, THEN EXIT
                                     0238   408 	ERR_EXIT LONG,<RESOURCE WAIT MODE WAS NOT INITIALLY ENABLED>
                                     0289   409 ;
                                     0289   410 ; * THE FOLLOWING LOOP USES TIMER QUEUE ENTRIES UNTIL QUOTA
                                     0289   411 ; * IS EXHAUSTED, AT WHICH TIME $SETIMR WILL RETURN EXQUOTA.
                                     0289   412 ;
                                     0289   413 TMRLOOP:
                 0000000A'EF     D6  0289   414 	INCL	TQECNT			; INCREMENT COUNT OF TIMER REQUESTS
                                     028F   415 	$SETIMR_S DAYTIM=FIV_MINS, REQIDT=#LOOP_TQE
                                     02A2   416 					; ENTER A TIMER REQUEST
   00000000'8F            50     D1  02A2   417 	CMPL	R0,#SS$_NORMAL		; TIMER REQUEST ACCEPTED ?
                          DE     13  02A9   418 	BEQLU	TMRLOOP			; YES -- GO DO ANOTHER
                                     02AB   419 	SS_CHECK EXQUOTA		; NO -- TERMINATE TEST MODULE IF NOT EXQUOTA
                                     02D9   420 ;
                                     02D9   421 ; * AT THIS POINT THE TIMER QUEUE ENTRY QUOTA SHOULD BE EXHAUSTED.
                                     02D9   422 ; * NOW, WE WILL ENABLE RESOURCE WAIT MODE AND RE-ISSUE THE $SETIMR
                                     02D9   423 ; * WHICH FAILED ABOVE. THIS TIME, A RESOURCE WAIT WILL ENSUE; IT
                                     02D9   424 ; * WILL BE RESOLVED IN AN AST ROUTINE BY CANCELING ALL TIMER REQUESTS.
                                     02D9   425 ;
                                     02D9   426 	$CANTIM_S REQIDT=#SPECIAL_TQE 	; FREE UP SPECIAL RESERVED TQE FOR RE-USE BELOW
                                     02E4   427 	SS_CHECK NORMAL			; CHECK FOR NORMAL RETURN
                                     0312   428 	$SETIMR_S DAYTIM=ONE_MIN, ASTADR=CANTIM_AST, -
                                     0312   429 		  REQIDT=#SPECIAL_TQE  	; SCHEDULE AST TO FREE RESOURCE WAIT
                                     0329   430 	SS_CHECK NORMAL			; CHECK FOR NORMAL RETURN
                                     0357   431 ;
                                     0357   432 ; ****** SYSTEM SERVICE CALL WHICH IS THE SUBJECT OF THIS TEST CASE ******
                                     0357   433 ;
                                     0357   434 	$SETRWM_S #ENABLE		; ENABLE RESOURCE WAIT MODE
   00000000'8F            50     D1  0360   435 	CMPL	R0,#SS$_WASSET		; WAS WAIT MODE PREVIOUSLY DISABLED ?
                          03     12  0367   436 	BNEQU	20$			; NO -- IT SHOULD HAVE BEEN
                          0061   31  0369   437 	BRW	30$			; YES -- CONTINUE
                                     036C   438 20$:
   00000000'EF   00000000'8F     D0  036C   439 	MOVL	#SS$_WASSET,EXPV 	; LOAD UP EXPECTED AND ...
SATSSS46        SATS SYSTEM SERVICE TESTS  $SETRWM (SUCC S.C.)   22-AUG-1978 04:09:14   VAX-11 MACRO X0.3-11               Page  14
1.0             VERIFY                                                                                                           (1)

   00000000'EF            50     D0  0377   440 	MOVL	R0,RECV			; ... RECEIVED VALUES, THEN EXIT
                                     037E   441 	ERR_EXIT LONG,<INCORRECT STATUS CODE RETURNED FROM SETRWM>
                                     03CD   442 30$:
                                     03CD   443 ;
                                     03CD   444 ; * THE FOLLOWING CODE ISSUES ONE MORE SETIMR, WHICH SHOULD
                                     03CD   445 ; * HAVE TO WAIT FOR RESOURCES, SINCE WE HAVE JUST GOBBLED THEM
                                     03CD   446 ; * UP. TO ENSURE THAT THE SETIMR DOES NOT WAIT FOREVER, AN
                                     03CD   447 ; * AST ROUTINE WAS SCHEDULED (ABOVE) TO BE DELIVERED IN 1 MINUTE;
                                     03CD   448 ; * IT WILL CANCEL ALL ACTIVE TIMER REQUESTS; THIS SHOULD
                                     03CD   449 ; * FREE THE RESOURCES NEEDED BY OUR SETIMR, WHICH SHOULD,
                                     03CD   450 ; * IN TURN, COMPLETE NORMALLY.
                                     03CD   451 ;
                                     03CD   452 	$SETIMR_S DAYTIM=FIV_MINS, REQIDT=#LOOP_TQE
                                     03E0   453 					; TRY TO REQUEST A TIMER
   00000008'EF   00000000'EF     B1  03E0   454 	CMPW	TESTNUM,ASTSYNCH 	; WAS AST ROUTINE ENTERED ?
                          62     13  03EB   455 	BEQLU	40$			; YES -- GO CHECK RETURN FROM SETIMR
   00000000'EF   00000000'EF     B0  03ED   456 	MOVW	TESTNUM,EXPV		; NO -- LOAD UP EXPECTED AND ...
   00000000'EF   00000008'EF     B0  03F8   457 	MOVW	ASTSYNCH,RECV		; ... RECEIVED VALUES, THEN EXIT
                                     0403   458 	ERR_EXIT WORD,<RESOURCE WAIT DID NOT OCCUR AS EXPECTED>
                                     044F   459 40$:
                                     044F   460 	SS_CHECK NORMAL			; SETIMR SHOULD EVENTUALLY FINISH NORMALLY
                                 05  047D   461 	RSB				; RETURN TO CALLER
SATSSS46        SATS SYSTEM SERVICE TESTS  $SETRWM (SUCC S.C.)   22-AUG-1978 04:09:14   VAX-11 MACRO X0.3-11               Page  15
1.0             VFY_CLEANUP                                                                                                      (1)

                                     047E   463 	.SBTTL	VFY_CLEANUP
                                     047E   464 ;++
                                     047E   465 ; FUNCTIONAL DESCRIPTION:
                                     047E   466 ;
                                     047E   467 ;		VFY_CLEANUP EXECUTES SYSTEM SERVICES TO UNDO THE
                                     047E   468 ; EFFECT OF THOSE ISSUED IN THE VERIFY SUBROUTINE. VFY_CLEANUP MUST
                                     047E   469 ; ASSUME THAT VERIFY MAY NOT HAVE EXECUTED IN ITS ENTIRETY (IF AN
                                     047E   470 ; ERROR IS FOUND). ALSO, VFY_CLEANUP MAY ISSUE SS_CHECK OR ERR_EXIT
                                     047E   471 ; ONLY AFTER PERFORMING ALL OF ITS CLEANUP OPERATIONS; THIS IS REQUIRED
                                     047E   472 ; IN THE EVENT THAT VFY_CLEANUP IS CALLED DURING ERROR PROCESSING,
                                     047E   473 ; WHEN PERFORMING THE REQUIRED CLEANUP IS MORE IMPORTANT THAN
                                     047E   474 ; POSSIBLY DISCOVERING A SECOND ERROR.
                                     047E   475 ;
                                     047E   476 ; CALLING SEQUENCE:
                                     047E   477 ;
                                     047E   478 ;	BSBW VFY_CLEANUP
                                     047E   479 ;
                                     047E   480 ; INPUT PARAMETERS:
                                     047E   481 ;
                                     047E   482 ;	NONE
                                     047E   483 ;
                                     047E   484 ; IMPLICIT INPUTS:
                                     047E   485 ;
                                     047E   486 ;	R2,3,4,5,6 CONTAIN CURRENT CONDITION TABLE INDEX VALUES
                                     047E   487 ;	  FOR COND TABLES 1,2,3,4,5, RESPECTIVELY.
                                     047E   488 ;	FOR X = 1,2,3,4,5 :
                                     047E   489 ;		CONDX_E - ADDRESS OF TABLE OF DATA VALUES FOR CONDX
                                     047E   490 ;		  TABLE. IF THE CONTEXT OF TABLE X IS A SYSTEM SERVICE
                                     047E   491 ;		  ARGUMENT, THE ARGUMENT NAME MAY BE USED AS A SYNONYM
                                     047E   492 ;		  FOR CONDX_E.
                                     047E   493 ;
                                     047E   494 ; OUTPUT PARAMETERS:
                                     047E   495 ;
                                     047E   496 ;	NONE
                                     047E   497 ;
                                     047E   498 ; IMPLICIT OUTPUTS:
                                     047E   499 ;
                                     047E   500 ;	NONE
                                     047E   501 ;
                                     047E   502 ; COMPLETION CODES:
                                     047E   503 ;
                                     047E   504 ;	EFLAG SET TO NON-ZERO IF ERROR ENCOUNTERED.
                                     047E   505 ;
                                     047E   506 ; SIDE EFFECTS:
                                     047E   507 ;
                                     047E   508 ;	SS_CHECK AND ERR_EXIT MACROS CAUSE PREMATURE EXIT
                                     047E   509 ;	(VIA RSB) IF ERROR ENCOUNTERED.
                                     047E   510 ;
                                     047E   511 ;--
                                     047E   512
                                     047E   513
                                     047E   514
                                     047E   515 VFY_CLEANUP::
                                     047E   516 	$CANTIM_S REQIDT=#SPECIAL_TQE 	; CANCEL AST TIMER IF STILL PENDING
                                     0489   517 	$CANTIM_S REQIDT=#LOOP_TQE 	; MAKE SURE ALL OTHER TIMER REQ'STS ARE GONE
                                     0494   518 	SS_CHECK NORMAL			; ... AND CHECK FOR NORMAL COMPLETION
                                 05  04C2   519 	RSB				; RETURN TO CALLER
SATSSS46        SATS SYSTEM SERVICE TESTS  $SETRWM (SUCC S.C.)   22-AUG-1978 04:09:14   VAX-11 MACRO X0.3-11               Page  16
1.0             CANTIM AST ROUTINE                                                                                               (1)

                                     04C3   521 	.SBTTL	CANTIM AST ROUTINE
                                     04C3   522 ;
                                     04C3   523 ;	THE AST ROUTINE IS SCHEDULED AFTER IT IS DISCOVERED
                                     04C3   524 ;	THROUGH A FAILING $SETIMR THAT THE TIMER QUEUE
                                     04C3   525 ;	ENTRY QUOTA HAS BEEN EXHAUSTED BY REPEATED
                                     04C3   526 ;	SETIMR'S. THEN, WITH RESOURCE WAIT MODE
                                     04C3   527 ;	ENABLED, THE SETIMR IS REPEATED; A RESOURCE WAIT
                                     04C3   528 ;	IS EXPECTED. THIS AST ROUTINE SHOULD BE DELIVERED
                                     04C3   529 ;	DURING THE RESOURCE WAIT; IT WILL CANCEL ALL ACTIVE
                                     04C3   530 ;	TIMER REQUESTS IN ORDER TO CLEAR THE RESOURCE WAIT
                                     04C3   531 ;	CONDITION. THE "SUSPENDED" SETIMR SHOULD THEN FINISH
                                     04C3   532 ;	NORMALLY. THE ASTSYNCH DATA BASE IS SET TO TESTNUM
                                     04C3   533 ;	IN THIS ROUTINE TO INDICATE THAT DELIVERY HAS OCCURRED.
                                     04C3   534 ;	THIS IS VERIFIED IN THE MAIN ROUTINE TO GUARANTEE
                                     04C3   535 ;	THAT A WAIT DID INDEED OCCUR -- I.E., THE SETIMR DID
                                     04C3   536 ;	NOT COMPLETE IMMEDIATELY, BUT INSTEAD WAITED ONE
                                     04C3   537 ;	MINUTE UNTIL THE AST WAS DELIVERED.
                                     04C3   538 ;
                               0000  04C3   539 CANTIM_AST:	.WORD	0
   00000008'EF   00000000'EF     B0  04C5   540 	MOVW	TESTNUM,ASTSYNCH 	; INDICATE AST RTN EXECUTED FOR THIS T.C.
                                     04D0   541 	$CANTIM_S REQIDT=#LOOP_TQE 	; CANCEL ALL OUTSTANDING TIMER REQUESTS
                                 04  04DB   542 	RET				; RETURN TO MAIN ROUTINE
                                     04DC   543 	.END
SATSSS46        SATS SYSTEM SERVICE TESTS  $SETRWM (SUCC S.C.)   22-AUG-1978 04:09:14   VAX-11 MACRO X0.3-11               Page  17
SYMBOL TABLE                                                                                                                     (1)

$$$$           = 0000040D R     05   MOD_MSG_PRINT    ********   X   05   PHD$L_SSP        00000080
$$$CHARS       = 00000027            MSG1_INP_CTL     00000019 R     03   PHD$L_USP        00000084
$$$STRINGS     = 00000001            MSG3_ERR_CTL     00000039 RG    03   PHD$L_WSL        00000118
$$T2           = 00000004            MSG_A            ********   X   05   PHD$M_DALCSTX  = 00000002
ASTSYNCH         00000008 R     04   MSG_B            ********   X   05   PHD$M_PFMFLG   = 00000001
BIT...         = 00000020            MSG_CTXT         ********   X   05   PHD$M_WSPEAKCHK= 00000004
BYTE           = 00000001  G         NOTARG         = 00000000  G         PHD$Q_PRIVMSK    00000000
CANTIM_AST       000004C3 R     05   NULL           = 00000014  G         PHD$S_ASTLVL   = 00000008
CFLAG            ********   X   05   ONES             ********   X   05   PHD$S_P0LR     = 00000018
CHMRTN           ********   X   05   ONE_MIN          00000051 R     03   PHD$V_ASTLVL   = 00000018
CHM_CONT         ********   X   05   OUTPUT_MSG       ********   X   05   PHD$V_DALCSTX  = 00000001
COMP_SC          ********   X   05   PCV              ********   X   05   PHD$V_P0LR     = 00000000
COND1            000000C0 RG    05   PHD$B_ASTLVL     000000CF            PHD$V_PFMFLG   = 00000000
COND1_C        = 00000014            PHD$B_DFPFC      00000038            PHD$V_WSPEAKCHK= 00000002
COND1_CLEANUP    000000C1 RG    05   PHD$B_PAGFIL     0000001F            PHD$W_ASTLM      00000044
COND1_H          0000000E RG    04   PHD$B_PGTBPFC    00000039            PHD$W_BAK        00000048
COND1_T          0000000E R     04   PHD$C_LENGTH     00000118            PHD$W_DFWSCNT    0000001A
COND1_TAB        0000000E R     04   PHD$C_PHDPAGCTX= 00000008            PHD$W_EMPTPG     000000D8
COND2            000000C2 RG    05   PHD$K_LENGTH     00000118            PHD$W_EXTDYNWS   00000076
COND2_C        = 00000014            PHD$L_BIOCNT     00000054            PHD$W_FILLM      00000060
COND2_CLEANUP    000000C3 RG    05   PHD$L_CPULIM     00000058            PHD$W_FLAGS      0000003A
COND2_H          0000000F RG    04   PHD$L_CPUTIM     0000003C            PHD$W_PHVINDEX   00000046
COND2_T          0000000F R     04   PHD$L_DIOCNT     00000050            PHD$W_PRCLM      00000042
COND2_TAB        0000000F R     04   PHD$L_ESP        0000007C            PHD$W_PST        00000020
COND3            000000C4 RG    05   PHD$L_FREP0VA    00000028            PHD$W_PSTBASMAX  0000004A
COND3_C        = 00000014            PHD$L_FREP1VA    00000030            PHD$W_PSTFREE    00000026
COND3_CLEANUP    000000C5 RG    05   PHD$L_FREPTECNT  0000002C            PHD$W_PSTLAST    00000024
COND3_H          00000010 RG    04   PHD$L_KSP        00000078            PHD$W_PTCNTACT   00000070
COND3_T          00000010 R     04   PHD$L_P0BR       000000C8            PHD$W_PTCNTLCK   0000006C
COND3_TAB        00000010 R     04   PHD$L_P0LRASTL   000000CC            PHD$W_PTCNTMAX   00000072
COND4            000000C6 RG    05   PHD$L_P1BR       000000D0            PHD$W_PTCNTVAL   0000006E
COND4_C        = 00000014            PHD$L_P1LR       000000D4            PHD$W_QUANT      00000040
COND4_CLEANUP    000000C7 RG    05   PHD$L_PAGEFLTS   0000004C            PHD$W_TQLM       00000062
COND4_H          00000011 RG    04   PHD$L_PAGFIL     0000001C            PHD$W_WSAUTH     0000000A
COND4_T          00000011 R     04   PHD$L_PC         000000C0            PHD$W_WSDYN      0000000E
COND4_TAB        00000011 R     04   PHD$L_PCB        00000078            PHD$W_WSFLUID    00000074
COND5            000000C8 RG    05   PHD$L_PGFLCNT    00000034            PHD$W_WSLAST     00000012
COND5_C        = 00000014            PHD$L_PGFLQUOTA  0000005C            PHD$W_WSLIST     00000008
COND5_CLEANUP    000000C9 RG    05   PHD$L_PSL        000000C4            PHD$W_WSLOCK     0000000C
COND5_H          00000012 RG    04   PHD$L_PSTBASOFF  00000020            PHD$W_WSLX       0000004A
COND5_T          00000012 R     04   PHD$L_PTWSLELCK  00000064            PHD$W_WSNEXT     00000010
COND5_TAB        00000012 R     04   PHD$L_PTWSLEVAL  00000068            PHD$W_WSQUOTA    00000018
CTL$GL_PHD       ********   X   05   PHD$L_R0         00000088            PRIVMASK         00000000 R     04
DESC           = 00000010  G         PHD$L_R1         0000008C            PROCESS_ERR      ********   X   05
DISABLE        = 00000001            PHD$L_R10        000000B0            PRV$V_ALLSPOOL = 00000004
EFLAG            ********   X   05   PHD$L_R11        000000B4            PRV$V_BUGCHK   = 00000017
ENABLE         = 00000000            PHD$L_R12        000000B8            PRV$V_CMEXEC   = 00000001
EXPV             ********   X   05   PHD$L_R13        000000BC            PRV$V_CMKRNL   = 00000000
FAO_DESC         ********   X   05   PHD$L_R2         00000090            PRV$V_DETACH   = 00000005
FAO_LEN          ********   X   05   PHD$L_R3         00000094            PRV$V_DIAGNOSE = 00000006
FIV_MINS         00000059 R     03   PHD$L_R4         00000098            PRV$V_EXQUOTA  = 00000013
FORM_CONDS       000000CA RG    05   PHD$L_R5         0000009C            PRV$V_GROUP    = 00000008
FORM_CONDSX      000001B3 R     05   PHD$L_R6         000000A0            PRV$V_GRPNAM   = 00000003
GBL...         = 00000000            PHD$L_R7         000000A4            PRV$V_LOG_IO   = 00000007
LONG           = 00000004  G         PHD$L_R8         000000A8            PRV$V_MOUNT    = 00000011
LOOP_TQE       = 00000002            PHD$L_R9         000000AC            PRV$V_NETMBX   = 00000014
MOD_MSG_CODE     ********   X   05   PHD$L_REFERFLT   00000014            PRV$V_NOACNT   = 00000009
SATSSS46        SATS SYSTEM SERVICE TESTS  $SETRWM (SUCC S.C.)   22-AUG-1978 04:09:14   VAX-11 MACRO X0.3-11               Page  18
SYMBOL TABLE                                                                                                                     (1)

PRV$V_OPER     = 00000012
PRV$V_PHY_IO   = 00000016
PRV$V_PRMCEB   = 0000000A
PRV$V_PRMGBL   = 00000018
PRV$V_PRMMBX   = 0000000B
PRV$V_PSWAPM   = 0000000C
PRV$V_SETPRI   = 0000000D
PRV$V_SETPRV   = 0000000E
PRV$V_SYSGBL   = 00000019
PRV$V_SYSNAM   = 00000002
PRV$V_TMPMBX   = 0000000F
PRV$V_VOLPRO   = 00000015
PRV$V_WORLD    = 00000010
QUAD           = 00000008  G
RECV             ********   X   05
REST_REGS        ********   X   05
SAVE_REGS        ********   X   05
SPECIAL_TQE    = 00000001
SS$_EXQUOTA      ********   X   05
SS$_NORMAL       ********   X   05
SS$_WASCLR       ********   X   05
SS$_WASSET       ********   X   05
SUCCESS          ********   X   05
SYS$CANTIM       ********   X   05
SYS$CMKRNL       ********   X   05
SYS$FAO          ********   X   05
SYS$SETIMR       ********   X   05
SYS$SETPRN       ********   X   05
SYS$SETRWM       ********   X   05
TESTNUM          ********   X   05
TEST_MOD_NAME    00000000 RG    03
TEST_MOD_NAME_D  00000009 R     03
TEST_MOD_SUCC    ********   X   05
TMD_ADDR         ********   X   05
TMRLOOP          00000289 R     05
TM_CLEANUP       000000BC RG    05
TM_SETUP         00000000 RG    05
TQECNT           0000000A R     04
VERIFY           000001B4 RG    05
VFY_CLEANUP      0000047E RG    05
WORD           = 00000002  G
WRITE_MSG2       ********   X   05


PROGRAM SECTION SYNOPSIS

.  ABS  .        00000000      00     NOPIC   USR   CON   ABS   LCL NOSHR NOEXE NORD  NOWRT BYTE
. BLANK .        00000000      01     NOPIC   USR   CON   REL   LCL NOSHR   EXE   RD    WRT BYTE
$ABS$            0000011C      02     NOPIC   USR   CON   ABS   LCL NOSHR   EXE   RD    WRT BYTE
RODATA           00000061      03     NOPIC   USR   CON   REL   LCL NOSHR NOEXE   RD  NOWRT LONG
RWDATA           00000013      04     NOPIC   USR   CON   REL   LCL NOSHR NOEXE   RD    WRT LONG
SATSSS46         000004DC      05     NOPIC   USR   CON   REL   LCL NOSHR   EXE   RD    WRT BYTE


THERE WERE NO ERRORS OR WARNINGS.
17560. BYTES LEFT IN FREE MEMORY POOL.
680. BYTES OF RECLAIMED MEMORY.
SATSSS46        SATS SYSTEM SERVICE TESTS  $SETRWM (SUCC S.C.)   22-AUG-1978 04:09:14   VAX-11 MACRO X0.3-11               Page  19
PROGRAM SECTION SYNOPSIS                                                                                                         (1)

OBJ$:SATSSS46,LIS$:SATSSS46/-SP=EXECML$/ML,LIB$:SYSTST.MLB/ML,SRC$:SATSSS46
34 MLB DIR RDS - 498 GETS TO DEFINE 23 MACROS. 27 INTER. FILE WRITES.
