SATSSF05        - SATS SYSTEM SERVICE TESTS  (FAILING S.C.)      22-AUG-1978 03:42:37   VAX-11 MACRO X0.3-11               Page   0
TABLE OF CONTENTS

   (1)      46  DECLARATIONS
   (1)     242  SATSSF05
   (1)     342  SFSUS10
   (1)     364  SFSUS11
   (1)     386  SFSUS12
   (1)     409  SFSUS13
   (1)     433  SFSUS14
   (1)     457  SFSUS20
   (1)     481  SFSUS21
   (1)     505  SFSUS22
   (1)     530  SFSUS23
   (1)     555  SFSUS24
   (1)     578
   (1)     581  SFSUS25
   (1)     605  SFSUS26
   (1)     628  SFSUS27
   (1)     651  SFSUS28
   (1)     674  SFSUS29
   (1)     701
   (1)     704  SFRES10
   (1)     727  SFRES11
   (1)     749  SFRES12
   (1)     772  SFRES13
   (1)     796  SFRES14
   (1)     820  SFRES20
   (1)     844  SFRES21
   (1)     868  SFRES22
   (1)     893  SFRES23
   (1)     918  SFRES24
   (1)     941
   (1)     944  SFRES25
   (1)     968  SFRES26
   (1)     991  SFRES27
   (1)    1014  SFRES28
   (1)    1037  SFRES29
   (1)    1064
   (1)    1067  SFSWK10
   (1)    1090  SFSWK11
   (1)    1112  SFSWK12
   (1)    1135  SFSWK13
   (1)    1159  SFSWK14
   (1)    1183  SFSWK20
   (1)    1207  SFSWK21
   (1)    1231  SFSWK22
   (1)    1256  SFSWK23
   (1)    1281  SFSWK24
   (1)    1304  SFSWK30
   (1)    1327  SFSWK31
   (1)    1350  SFSWK32
   (1)    1374  SFSWK40
   (1)    1397  SFSWK41
   (1)    1420  SFSWK42
   (1)    1444  SFSWK43
   (1)    1467  SFSWK44
   (1)    1490
   (1)    1493  SFSWK25
   (1)    1517  SFSWK26
SATSSF05        - SATS SYSTEM SERVICE TESTS  (FAILING S.C.)      22-AUG-1978 03:42:37   VAX-11 MACRO X0.3-11               Page   0
TABLE OF CONTENTS

   (1)    1540  SFSWK27
   (1)    1563  SFSWK28
   (1)    1586  SFSWK29
   (1)    1613
   (1)    1739  EXECUTE & CLEANUP
   (1)    1758  TC_CONTROL
   (1)    1839  SUBROUTINES
SATSSF05        - SATS SYSTEM SERVICE TESTS  (FAILING S.C.)      22-AUG-1978 03:42:37   VAX-11 MACRO X0.3-11               Page   1
1.0                                                                                                                              (1)

                                     0000     1 	.TITLE	SATSSF05 - SATS SYSTEM SERVICE TESTS  (FAILING S.C.)
                                     0000     2 	.IDENT	/1.0/
                                     0000     3
                                     0000     4 ;
                                     0000     5 ;			  COPYRIGHT (c) 1977,1978 BY
                                     0000     6 ;	      DIGITAL EQUIPMENT CORPORATION, MAYNARD, MASS.
                                     0000     7 ;
                                     0000     8 ; THIS SOFTWARE IS FURNISHED UNDER A LICENSE AND MAY BE USED AND  COPIED
                                     0000     9 ; ONLY  IN  ACCORDANCE  WITH  THE  TERMS  OF  SUCH  LICENSE AND WITH THE
                                     0000    10 ; INCLUSION OF THE ABOVE COPYRIGHT NOTICE.  THIS SOFTWARE OR  ANY  OTHER
                                     0000    11 ; COPIES  THEREOF MAY NOT BE PROVIDED OR OTHERWISE MADE AVAILABLE TO ANY
                                     0000    12 ; OTHER PERSON.  NO TITLE TO AND OWNERSHIP OF  THE  SOFTWARE  IS  HEREBY
                                     0000    13 ; TRANSFERRED.
                                     0000    14 ;
                                     0000    15 ; THE INFORMATION IN THIS SOFTWARE IS SUBJECT TO CHANGE  WITHOUT  NOTICE
                                     0000    16 ; AND  SHOULD  NOT  BE  CONSTRUED  AS  A COMMITMENT BY DIGITAL EQUIPMENT
                                     0000    17 ; CORPORATION.
                                     0000    18 ;
                                     0000    19 ; DIGITAL ASSUMES NO RESPONSIBILITY FOR THE USE OR  RELIABILITY  OF  ITS
                                     0000    20 ; SOFTWARE ON EQUIPMENT WHICH IS NOT SUPPLIED BY DIGITAL.
                                     0000    21 ;
                                     0000    22
                                     0000    23 ;++
                                     0000    24 ; FACILITY:	SATS SYSTEM SERVICE TESTS
                                     0000    25 ;
                                     0000    26 ; ABSTRACT:	THE SATSSF05 MODULE TESTS THE EXECUTION OF CERTAIN
                                     0000    27 ; VMS SYSTEM SERVICES, INVOKED IN SUCH A WAY AS TO EXPECT FAILING
                                     0000    28 ; STATUS CODES. THE SYSTEM SERVICES TESTED AND THE STATUS CODES
                                     0000    29 ; EXPECTED ARE SUMMARIZED AS ARGUMENTS TO THE TESTSERV MACROS
                                     0000    30 ; WHICH APPEAR NEAR THE END OF THIS LISTING. SUCCESSFUL STATUS
                                     0000    31 ; CODES ARE TESTED IN OTHER MODULES.
                                     0000    32 ;
                                     0000    33 ;
                                     0000    34 ; ENVIRONMENT:	USER MODE IMAGE; NEEDS CMKRNL PRIVILEGE,
                                     0000    35 ;		DYNAMICALLY ACQUIRES OTHER PRIVILEGES, AS NEEDED.
                                     0000    36 ;
                                     0000    37 ; AUTHOR: THOMAS L. CAFARELLA,		CREATION DATE: MMM, 1978
                                     0000    38 ;	  PAUL D. FAY (DISPSERV & TESTSERV MACROS)
                                     0000    39 ;
                                     0000    40 ; MODIFIED BY:
                                     0000    41 ;
                                     0000    42 ;	, : VERSION
                                     0000    43 ; 01	-
                                     0000    44 ;--
SATSSF05        - SATS SYSTEM SERVICE TESTS  (FAILING S.C.)      22-AUG-1978 03:42:37   VAX-11 MACRO X0.3-11               Page   2
1.0             DECLARATIONS                                                                                                     (1)

                                     0000    46 	.SBTTL	DECLARATIONS
                                     0000    47 ;
                                     0000    48 ; INCLUDE FILES:
                                     0000    49 ;
                                     0000    50 	$PRVDEF				; SYMBOL DEFS FOR PRIVILEGES
                                     0000    51 	$UETPDEF			; UETP MSG CODE DEFINITIONS
                                     0000    52 	$SHR_MESSAGES UETP,116,<<TEXT,INFO>>
                                     0000    53 					; DEFINE UETP$_TEXT
                           00000004  0000    54 	.MDELETE ($PRVDEF,$UETPDEF,$SHR_MESSAGES,$SHRDEF)
                                     0000    55 					; GET RID OF MACRO DEFINITIONS
                                     0000    56 	$DIBDEF				; DEFINE DEVICE INFO BLOCK OFFSETS
                           00000001  0000    57 	.MDELETE ($DIBDEF)		; ... DELETE MACRO DEFINITION
                                     0000    58 ;
                                     0000    59 ; MACROS:
                                     0000    60 ;
                                     0000    61 ;
                                     0000    62 ; EQUATED SYMBOLS:
                                     0000    63 ;
                           00000000  0000    64 WARNING		= 0			; WARNING SEVERITY VALUE FOR MSGS
                           00000001  0000    65 SUCCESS		= 1			; SUCCESS SEVERITY VALUE FOR MSGS
                           00000002  0000    66 ERROR		= 2			; ERROR SEVERITY VALUE FOR MSGS
                           00000003  0000    67 INFO		= 3			; INFORMATIONAL SEV VALUE FOR MSGS
                           00000004  0000    68 SEVERE		= 4			; SEVERE (FATAL) SEV VALUE FOR MSGS
                           00000000  0000    69 TCG_NO		=  0			; INITIALIZE TEST CASE GROUP NUMBER
                           00000000  0000    70 GRP_TOTAL	=  0			; INITIALIZE TEST CASE GROUP TOTAL
                           00007FFF  0000    71 R0_THRU_SP	= ^M<R0,R1,R2,R3,R4,R5,R6,R7,R8,R9,R10,R11,AP,FP,SP>
                           00000040  0000    72 DETFLAG		= 64			; EVENT FLAG NO. FOR DETACHED PROC
                           00000001  0000    73 PIDADR_SUS10	= 1			; PIDADR ARG FOR SUSPND (LOCATION 1)
                           00000001  0000    74 PIDADR_RES10	= 1			; PIDADR ARG FOR RESUME (LOCATION 1)
                           00000001  0000    75 PIDADR_SWK10	= 1			; PIDADR ARG FOR SCHDWK (LOCATION 1)
                           00000000  0000    76 DAYTIM_SWK30	= 0			; DAYTIM ARG FOR SCHDWK (LOCATION 0)
                           00000001  0000    77 REPTIM_SWK40	= 1			; REPTIM ARG FOR SCHDWK (LOCATION 1)
                                     0000    78 ;
                                     0000    79 ; ****** THE FOLLOWING ASSIGNMENTS (IN PHD, PCB, STS) ARE BEING MADE
                                     0000    80 ; ****** WITHOUT REFERENCE TO $PHDDEF, $PCBDEF, $STSDEF BECAUSE OF
                                     0000    81 ; ****** SYMBOL TABLE OVERFLOW. FIX THIS WHEN MORE TABLE SPACE AVAILABLE.
                                     0000    82 ;
                           00000000  0000    83 PHD$Q_PRIVMSK	= 0			; PRIV MASK OFFSET INTO PHD
                           00000020  0000    84 PCB$L_UIC	= ^X20			; UIC OFFSET INTO PCB
                           0000001C  0000    85 STS$V_INHIB_MSG	= ^X1C			; INHIBIT_MSG BIT NUMBER IN MSG CODE
                                     0000    86 ;
                                     0000    87 ; OWN STORAGE:
                                     0000    88 ;
SATSSF05        - SATS SYSTEM SERVICE TESTS  (FAILING S.C.)      22-AUG-1978 03:42:37   VAX-11 MACRO X0.3-11               Page   3
1.0             DECLARATIONS                                                                                                     (1)

                                 00000000    90 	.PSECT	RODATA,RD,NOWRT,NOEXE,LONG
                                     0000    91 REG_COMP_MASK:	.WORD	^M<R2,R3,R4,R5,R6,R7,R8,R9,R10,R11,AP,FP> ! ^X8000 -
                               BFFC  0000    92 					; REG COMPARE MASK (HIGH-ORDER ...
                                     0002    93 					; ... BIT MUST BE ON
                                     0002    94 ERR_MSG_FAOCTL:	STRING	I,<!/!AC!1ZB!1ZB: REGISTER !2UW CONTENTS ALTERED>, -
                                     0002    95 		<;  BEFORE SERVICE CALL: !8XL   AFTER SERVICE CALL: !8XL>
                                     006E    96 TEST_MOD_NAME:	STRING	C,<SATSSF05>	; TEST MODULE NAME
                                     0077    97 TEST_MOD_BEG:	STRING	C,<begun>	; DISPOSITION FIELD OF TEST MOD MSG
                                     007D    98 TEST_MOD_SUCC:	STRING	C,<successful>	; DISPOSITION FIELD OF TEST MOD MSG
                                     0088    99 TEST_MOD_FAIL:	STRING	C,<failed>	; DISPOSITION FIELD OF TEST MOD MSG
                                     008F   100 TEST_MOD_NAME_D: STRING	I,<SATSSF05>	; TEST MODULE NAME DESCRIPTOR
                                     009F   101 TTNAME:     	STRING  I,<TT>		; TERMINAL LOGICAL NAME
                  00000000'00000000' 00A9   102 INADR:		.LONG	NOACCESS,NOACCESS ; PAGE ADDRESS OF NOACCESS PSECT
                           00000000' 00B1   103 PROT:		.LONG	PRT$C_NA	; PROTECTION CODE FOR NOACCESS PSECT
                  FFFFFFFF FFFFFFFF  00B5   104 ONES:		.LONG	-1,-1		; A QUADWORD OF 1-BITS
                                     00BD   105 DETIMAGE:	STRING	I,<SYSTST$RES:SATSUT01.EXE>
                                     00DC   106 					; IMAGE NAME FOR DETACHED PROCESS
                                     00DC   107 DETNAME:	STRING	I,<SATSSF05_DET> ; PROC & MBX NAME FOR DET PROCESS
                           000000DC  00F0   108 PRCNAM_SUS29	= DETNAME		; PRCNAM ARGUMENT FOR SUSPND
                           000000DC  00F0   109 PRCNAM_RES29	= DETNAME		; PRCNAM ARGUMENT FOR RESUME
                           000000DC  00F0   110 PRCNAM_SWK29	= DETNAME		; PRCNAM ARGUMENT FOR SCHDWK
                                     00F0   111 PRCNAM_SUS:	STRING	I,<SATSSF05>	; PRCNAM ARGUMENT FOR SUSPND
                           00000001  0100   112 PRCNAM_SUS24:	.LONG	1		; PRCNAM ARGUMENT FOR SUSPND
                           00000000' 0104   113 		.ADDRESS NOACCESS	; ......
                                     0108   114 PRCNAM_SUS26:	STRING	I,<SFSUS26>	; PRCNAM ARGUMENT FOR SUSPND
                           00000000  0117   115 PRCNAM_SUS27:	.LONG	0		; PRCNAM ARGUMENT FOR SUSPND
                                     011B   116 PRCNAM_SUS28:	STRING	I,<SIXTEEN CHARS$$$>
                                     0133   117 					; PRCNAM ARGUMENT FOR SUSPND
                                     0133   118 PRCNAM_RES:	STRING	I,<SATSSF05>	; PRCNAM ARGUMENT FOR RESUME
                           00000001  0143   119 PRCNAM_RES24:	.LONG	1		; PRCNAM ARGUMENT FOR RESUME
                           00000000' 0147   120 		.ADDRESS NOACCESS	; ......
                                     014B   121 PRCNAM_RES26:	STRING	I,<SFRES26>	; PRCNAM ARGUMENT FOR RESUME
                           00000000  015A   122 PRCNAM_RES27:	.LONG	0		; PRCNAM ARGUMENT FOR RESUME
                                     015E   123 PRCNAM_RES28:	STRING	I,<SIXTEEN CHARS$$$>
                                     0176   124 					; PRCNAM ARGUMENT FOR RESUME
                                     0176   125 PRCNAM_SWK:	STRING	I,<SATSSF05>	; PRCNAM ARGUMENT FOR SCHDWK
                           00000001  0186   126 PRCNAM_SWK24:	.LONG	1		; PRCNAM ARGUMENT FOR SCHDWK
                           00000000' 018A   127 		.ADDRESS NOACCESS	; ......
                                     018E   128 PRCNAM_SWK26:	STRING	I,<SFSWK26>	; PRCNAM ARGUMENT FOR SCHDWK
                           00000000  019D   129 PRCNAM_SWK27:	.LONG	0		; PRCNAM ARGUMENT FOR SCHDWK
                                     01A1   130 PRCNAM_SWK28:	STRING	I,<SIXTEEN CHARS$$$>
                                     01B9   131 					; PRCNAM ARGUMENT FOR SCHDWK
                  00000000 00000000  01B9   132 DAYTIM_SWK:	.LONG	0,0		; DAYTIM ARGUMENT FOR SCHDWK
                  00000000 00000000  01C1   133 REPTIM_SWK:	.LONG	0,0		; REPTIM ARGUMENT FOR SCHDWK
                  00000000 00000001  01C9   134 REPTIM_SWK43:	.LONG	1,0		; REPTIM ARGUMENT FOR SCHDWK
                  0FFFFFFF FFFFFFFF  01D1   135 REPTIM_SWK44:	.LONG	^XFFFFFFFF,^X0FFFFFFF
                                     01D9   136 					; REPTIM ARGUMENT FOR SCHDWK
SATSSF05        - SATS SYSTEM SERVICE TESTS  (FAILING S.C.)      22-AUG-1978 03:42:37   VAX-11 MACRO X0.3-11               Page   4
1.0             DECLARATIONS                                                                                                     (1)

                                 00000000   138 	.PSECT	RWDATA,RD,WRT,NOEXE
                           00000004  0000   139 TPID:		.BLKL	1		; PROCESS ID FOR THIS PROCESS
                           00000008  0004   140 CURRENT_TC:	.BLKL	1 		; PTR TO CURRENT TEST CASE
                           00000044  0008   141 REG_SAVE_AREA:	.BLKL	15		; SAVE AREA FOR ALL REGS (SANS PC)
                           007480D9  0044   142 MOD_MSG_CODE:	.LONG	UETP$_SATSMS	; TEST MODULE MSG CODE FOR PUTMSG
                           0000004C  0048   143 CLOB_REG_NO:	.BLKL	1		; CLOBBERED REG NO (FOR FAO ERR MSG)
                           00000050  004C   144 REG_BEFORE_SS:	.BLKL	1		; REG CONTENTS BEFORE S.S.
                                     0050   145 					; ... (FOR FAO ERROR MSG)
                           00000054  0050   146 REG_AFTER_SS:	.BLKL	1		; REG CONTENTS AFTER S.S.
                                     0054   147 					; ... (FOR FAO ERROR MSG)
                                     0054   148 $$TSTN$$:	STRING	C,<  SF   >	; ASCII PORTION OF TEST CASE NAME
                           0000006E' 005C   149 TMN_ADDR:	.ADDRESS TEST_MOD_NAME	; ADDR OF TEST MOD NAME FOR FAO
                           00000077' 0060   150 TMD_ADDR:	.ADDRESS TEST_MOD_BEG	; ADDR OF T.M. DISP FIELD FOR FAO
                           00000068  0064   151 TS_EP:		.BLKL	1		; ENTRY PNT FOR CURR TESTSERV MACRO
                           00000070  0068   152 RETADR:		.BLKL	2		; RETURN LONGWORDS FOR SETPRT
                           00000071  0070   153 PRVPRT:		.BLKB	1		; PROT RETURN BYTE FOR SETPRT
                           00000079  0071   154 PRIVMASK:	.BLKQ	1		; ADDR OF PRIVILEGE MASK (IN PHD)
                           0000007D  0079   155 CHM_CONT:	.BLKL	1		; CHANGE MODE CONTINUE ADDRESS
                           00000091  007D   156 REGS:		.BLKL	5		; AREA FOR COND INDEX REGS (R2-R6)
                           00000095  0091   157 DETUIC:		.BLKL	1		; UIC FOR DETACHED PROCESS
                           00000099  0095   158 MBXCHAN:	.BLKL	1		; CHAN NO. FOR MBOX FOR CREATED PROC
                                     0099   159 MBXCHANINFO:	STRING	O,75		; CHANNEL INFO RETURNED BY GETCHN
                           000000F0  00EC   160 MBXUNIT:	.BLKL	1		; SAVE AREA FOR MAILBOX UNIT NUMBER
                                     00F0   161 MBXBUFF:	STRING	O,120		; MAILBOX BUFFER FOR CREATED PROCESS
                           00000174  0170   162 PIDADR_SUS:	.BLKL	1		; PIDADR ARGUMENT FOR SUSPND
                           00000178  0174   163 PIDADR_SUS13:	.BLKL	1		; PIDADR ARGUMENT FOR SUSPND
                           0000017C  0178   164 PIDADR_SUS14:	.BLKL	1		; PIDADR ARGUMENT FOR SUSPND
                           00000180  017C   165 PIDADR_RES:	.BLKL	1		; PIDADR ARGUMENT FOR RESUME
                           00000184  0180   166 PIDADR_RES13:	.BLKL	1		; PIDADR ARGUMENT FOR RESUME
                           00000188  0184   167 PIDADR_RES14:	.BLKL	1		; PIDADR ARGUMENT FOR RESUME
                           0000018C  0188   168 PIDADR_SWK:	.BLKL	1		; PIDADR ARGUMENT FOR SCHDWK
                           00000190  018C   169 PIDADR_SWK13:	.BLKL	1		; PIDADR ARGUMENT FOR SCHDWK
                           00000194  0190   170 PIDADR_SWK14:	.BLKL	1		; PIDADR ARGUMENT FOR SCHDWK
SATSSF05        - SATS SYSTEM SERVICE TESTS  (FAILING S.C.)      22-AUG-1978 03:42:37   VAX-11 MACRO X0.3-11               Page   5
1.0             DECLARATIONS                                                                                                     (1)

                                 00000000   172 	.PSECT	SATS_ACCVIO_1,RD,WRT,NOEXE,PAGE
                           00000200  0000   173 EMPTY:		.BLKB	512	; RESERVE A PAGE OF SPACE
                                     0200   174 ;
                                     0200   175 ; +
                                     0200   176 ; ******************************************************************
                                     0200   177 ; *                                                                *
                                     0200   178 ; * 	THE ORDER OF STATEMENTS IN THIS PSECT IS CRITICAL.         *
                                     0200   179 ; *	DO NOT RE-ARRANGE THE VARIABLES. CONSULT SATS              *
                                     0200   180 ; *	FUNCTIONAL SPECIFICATION FOR A DESCRIPTION OF THE USE      *
                                     0200   181 ; *	OF THE EMPTY PSECT (AND ITS COMPANION PSECT, NOACCESS).    *
                                     0200   182 ; *                                                                *
                                     0200   183 ; ******************************************************************
                                     0200   184 ; -
                                     0200   185 ;
                                     0200   186 ; TYPE AAAAA_SSSX1 (TYPE AAAAA_SSSX2 IF NOT DESC) GO HERE:
                           000001FF  0200   187 PIDADR_SUS12	= . - 1		; PIDADR ARGUMENT FOR SUSPND (LAST BYTE IN PAGE)
                           000001FF  0200   188 PRCNAM_SUS21	= . - 1		; PRCNAM ARGUMENT FOR SUSPND (LAST BYTE IN PAGE)
                           000001FF  0200   189 PIDADR_RES12	= . - 1		; PIDADR ARGUMENT FOR RESUME (LAST BYTE IN PAGE)
                           000001FF  0200   190 PRCNAM_RES21	= . - 1		; PRCNAM ARGUMENT FOR RESUME (LAST BYTE IN PAGE)
                           000001FF  0200   191 PIDADR_SWK12	= . - 1		; PIDADR ARGUMENT FOR SCHDWK (LAST BYTE IN PAGE)
                           000001FF  0200   192 PRCNAM_SWK21	= . - 1		; PRCNAM ARGUMENT FOR SCHDWK (LAST BYTE IN PAGE)
                           000001FF  0200   193 DAYTIM_SWK32	= . - 1		; DAYTIM ARGUMENT FOR SCHDWK (LAST BYTE IN PAGE)
                           000001FF  0200   194 REPTIM_SWK42	= . - 1		; REPTIM ARGUMENT FOR SCHDWK (LAST BYTE IN PAGE)
                           000001F3  0200   195 		. = . - 13	; ALLOW ROOM FOR STRING DESCRIPTOR
                                     01F3   196 ; TYPE AAAAA_SSSX5 GO HERE:
                                     01F3   197 PRCNAM_SUS25:			; PRCNAM ARGUMENT FOR SUSPND
                                     01F3   198 PRCNAM_RES25:			; PRCNAM ARGUMENT FOR RESUME
                                     01F3   199 PRCNAM_SWK25:			; PRCNAM ARGUMENT FOR SCHDWK
                           00000006  01F3   200 		.LONG	6	; STRING LENGTH (WILL CROSS PSECT BOUNDARY)
                           000001FB' 01F7   201 		.ADDRESS .+4	; STRING ADDRESS
                                     01FB   202 ; TYPE AAAAA_SSSX3 GO HERE:
                                     01FB   203 PRCNAM_SUS23:			; PRCNAM ARGUMENT FOR SUSPND
                                     01FB   204 PRCNAM_RES23:			; PRCNAM ARGUMENT FOR RESUME
                                     01FB   205 PRCNAM_SWK23:			; PRCNAM ARGUMENT FOR SCHDWK
                           000001FC  01FB   206 		.BLKB	1	; LOW-ORDER BYTE OF STRING LENGTH
                                     01FC   207 ; TYPE AAAAA_SSSX2 GO HERE:
                                     01FC   208 PRCNAM_SUS22:			; PRCNAM ARGUMENT FOR SUSPND
                                     01FC   209 PRCNAM_RES22:			; PRCNAM ARGUMENT FOR RESUME
                                     01FC   210 PRCNAM_SWK22:			; PRCNAM ARGUMENT FOR SCHDWK
                           00000200  01FC   211 		.BLKL	1	; STRING LENGTH
                                     0200   212 ;
                                     0200   213 ;
                                     0200   214 ;
                                     0200   215 ;
                                 00000000   216 	.PSECT	SATS_ACCVIO_2,RD,WRT,NOEXE,PAGE
                           00000200  0000   217 NOACCESS:	.BLKB	512	; RESERVE A PAGE OF SPACE
                           00000000  0200   218 		. = . - 512	; RETURN LOC CTR TO BEGINNING OF PSECT
                           00000000' 0000   219 		.ADDRESS EMPTY	; ADDRESS OF ACCESSIBLE STRING
                           00000000' 0004   220 		.ADDRESS EMPTY/^X100 ; ADDRESS OF ACCESSIBLE STRING
                                     0008   221 ;+
                                     0008   222 ; *** NOTE -- DO NOT CHANGE LOCATION OR SEQUENCE OF ABOVE STATEMENTS!
                                     0008   223 ; ***         THIS PSECT (NOACCESS) MUST APPEAR IN MEMORY IMMEDIATELY
                                     0008   224 ; ***         FOLLOWING THE EMPTY PSECT. PSECT NAMES AND OPTIONS WILL BE
                                     0008   225 ; ***         CHOSEN TO FORCE THE DESIRED PSECT ORDERING.
                                     0008   226 ;-
                                     0008   227 ;
                                     0008   228 ;
SATSSF05        - SATS SYSTEM SERVICE TESTS  (FAILING S.C.)      22-AUG-1978 03:42:37   VAX-11 MACRO X0.3-11               Page   6
1.0             DECLARATIONS                                                                                                     (1)

                                     0008   229 ;
                                     0008   230 ;
                           00000000  0008   231 PIDADR_SUS11:	.LONG	0	; PIDADR ARGUMENT FOR SUSPND
                                     000C   232 PRCNAM_SUS20:	STRING	I,<SFSUS20> ; PRCNAM ARGUMENT FOR SUSPND
                           00000000  001B   233 PIDADR_RES11:	.LONG	0	; PIDADR ARGUMENT FOR RESUME
                                     001F   234 PRCNAM_RES20:	STRING	I,<SFRES20> ; PRCNAM ARGUMENT FOR RESUME
                           00000000  002E   235 PIDADR_SWK11:	.LONG	0	; PIDADR ARGUMENT FOR SCHDWK
                                     0032   236 PRCNAM_SWK20:	STRING	I,<SFSWK20> ; PRCNAM ARGUMENT FOR SCHDWK
                  00000000 00000000  0041   237 DAYTIM_SWK31:	.LONG	0,0	; DAYTIM ARGUMENT FOR SCHDWK
                  00000000 00000000  0049   238 REPTIM_SWK41:	.LONG	0,0	; REPTIM ARGUMENT FOR SCHDWK
                           00000001  0051   239 	.MDELETE (STRING)		; NO LONGER NEED MACRO DEFINITION
                                 00000000   240 	.PSECT	SATSSF05,RD,WRT,EXE,LONG
SATSSF05        - SATS SYSTEM SERVICE TESTS  (FAILING S.C.)      22-AUG-1978 03:42:37   VAX-11 MACRO X0.3-11               Page   7
1.0             SATSSF05                                                                                                         (1)

                                     0000   242 	.SBTTL	SATSSF05
                                     0000   243 ;++
                                     0000   244 ; FUNCTIONAL DESCRIPTION:
                                     0000   245 ;
                                     0000   246 ;		AFTER PERFORMING SOME INITIAL HOUSEKEEPING, SUCH AS
                                     0000   247 ; PRINTING THE MODULE BEGIN MESSAGE AND ACQUIRING ALL PRIVILEGES,
                                     0000   248 ; THE SATSSF05 ROUTINE EXECUTES THE TEST_SERV_EXEC MACRO TO RUN
                                     0000   249 ; ALL TEST CASES. WHEN THE MACRO COMPLETES ITS EXECUTION, SATSSF05
                                     0000   250 ; PRINTS A TEST MODULE SUCCESS OR FAIL MESSAGE AND EXITS TO THE
                                     0000   251 ; OPERATING SYSTEM. TEST_SERV_EXEC CALLS THE TC_CONTROL/TESTSERV
                                     0000   252 ; CO-ROUTINE PAIR ONCE PER TEST CASE GROUP TO EXECUTE ALL TEST
                                     0000   253 ; CASES IN THAT GROUP. EACH TEST CASE GROUP IS DEFINED BY BOUNDING
                                     0000   254 ; ITS TEST CASES WITH A TC_GROUP MACRO BEFORE THE FIRST TEST CASE
                                     0000   255 ; AND A TCEND MACRO AFTER THE LAST ONE. THE TEST CASES THEMSELVES
                                     0000   256 ; ARE DEFINED WITHIN THESE BOUNDS BY PRECEDING EACH WITH A
                                     0000   257 ; NEXT_TEST_CASE MACRO. TC_CONTROL/TESTSERV EXECUTES THE CODE
                                     0000   258 ; FOLLOWING EACH NEXT_TEST_CASE MACRO IMMEDIATELY BEFORE ISSUING
                                     0000   259 ; THE SYSTEM SERVICE AS REQUESTED IN THE TESTSERV MACRO. TC_CONTROL/
                                     0000   260 ; TESTSERV ALSO CHECKS THE RESULTS OF THE SERVICE WITH RESPECT
                                     0000   261 ; TO ITS EXPECTED STATUS CODE AND PRINTS ANY REQUIRED FAILURE
                                     0000   262 ; MESSAGES FOR THE TEST CASE. THE CODE APPEARING AFTER EACH
                                     0000   263 ; NEXT_TEST_CASE MACRO IS MERELY TO SET UP CONDITIONS REQUIRED
                                     0000   264 ; FOR THE SYSTEM SERVICE AND TO CLEAN UP ANY RESOURCES ACQUIRED
                                     0000   265 ; BY THE PREVIOUS TEST CASE.
                                     0000   266 ;
                                     0000   267 ; CALLING SEQUENCE:
                                     0000   268 ;
                                     0000   269 ;	$ RUN SATSSF05  ...  (DCL COMMAND)
                                     0000   270 ;
                                     0000   271 ; INPUT PARAMETERS:
                                     0000   272 ;
                                     0000   273 ;	NONE
                                     0000   274 ;
                                     0000   275 ; IMPLICIT INPUTS:
                                     0000   276 ;
                                     0000   277 ;	NONE
                                     0000   278 ;
                                     0000   279 ; OUTPUT PARAMETERS:
                                     0000   280 ;
                                     0000   281 ;	NONE
                                     0000   282 ;
                                     0000   283 ; IMPLICIT OUTPUTS:
                                     0000   284 ;
                                     0000   285 ;	MESSAGES TO SYS$OUTPUT ARE THE ONLY OUTPUT FROM SATSSF05.
                                     0000   286 ;	THEY ARE OF THE FORM:
                                     0000   287 ;
                                     0000   288 ;		%UETP-S-SATSMS, TEST MODULE SATSSF05 BEGUN ... (BEGIN MSG)
                                     0000   289 ;		%UETP-S-SATSMS, TEST MODULE SATSSF05 SUCCESSFUL ... (END MSG)
                                     0000   290 ;		%UETP-E-SATSMS, TEST MODULE SATSSF05 FAILED ... (END MSG)
                                     0000   291 ;		%UETP-I-TEXT, ... (VARIABLE INFORMATION ABOUT A TEST MODULE FAILURE)
                                     0000   292 ;
                                     0000   293 ; COMPLETION CODES:
                                     0000   294 ;
                                     0000   295 ;	THE SATSSF05 ROUTINE TERMINATES WITH A $EXIT TO THE
                                     0000   296 ;	OPERATING SYSTEM WITH A STATUS CODE DEFINED BY UETP$_SATSMS.
                                     0000   297 ;
                                     0000   298 ; SIDE EFFECTS:
SATSSF05        - SATS SYSTEM SERVICE TESTS  (FAILING S.C.)      22-AUG-1978 03:42:37   VAX-11 MACRO X0.3-11               Page   8
1.0             SATSSF05                                                                                                         (1)

                                     0000   299 ;
                                     0000   300 ;	NONE
                                     0000   301 ;
                                     0000   302 ;--
                                     0000   303
                                     0000   304
                                     0000   305
                                     0000   306 SATSSF05:
                               0FFC  0000   307 	.WORD	^M<R2,R3,R4,R5,R6,R7,R8,R9,R10,R11>
                                     0002   308 					; ENTRY MASK
                                     0002   309 	$WAKE_S  TPID			; GET PID OF THIS PROCESS
                                     0011   310 	$HIBER_S			; UNDO WAKE
                                     0018   311 	$SETPRN_S TEST_MOD_NAME_D 	; SET PROCESS NAME
                          16D2   30  0025   312 	BSBW	MOD_MSG_PRINT		; PRINT TEST MODULE BEGIN MSG
   00000060'EF   0000007D'EF     DE  0028   313 	MOVAL	TEST_MOD_SUCC,TMD_ADDR	; ASSUME END MSG WILL SHOW SUCCESS
            00            01     F0  0033   314 	INSV	#SUCCESS,#0,#3,MOD_MSG_CODE ; ADJUST STATUS CODE FOR SUCCESS
   00000044'EF            03         0036
                                     003C   315 	MODE	TO,10$,KRNL,NOREGS 	; KERNEL MODE TO ACCESS PHD
            59   00000000'9F     D0  0059   316 	MOVL	@#CTL$GL_PHD,R9		; GET PROCESS HEADER ADDRESS
   00000071'EF            69     DE  0060   317 	MOVAL	PHD$Q_PRIVMSK(R9),PRIVMASK ; GET PRIV MASK ADDRESS
                                     0067   318 	MODE	FROM,10$		; GET BACK TO USER MODE
                                     0068   319 	PRIV	ADD,ALL			; GET ALL PRIVILEGES
                                     0091   320 	$CREMBX_S CHAN=MBXCHAN, LOGNAM=DETNAME, -
                                     0091   321 		  MAXMSG=#120, PROMSK=#0, BUFQUO=#240
                                     00B4   322 					; GET MAILBOX FOR PROCESS
                                     00B4   323 	$GETCHN_S CHAN=MBXCHAN, PRIBUF=MBXCHANINFO
                                     00CE   324 					; GET CHAN INFO (UNIT NUMBER)
   000000EC'EF   000000AD'EF     3C  00CE   325 	MOVZWL	MBXCHANINFO+8+DIB$W_UNIT,MBXUNIT
                                     00D9   326 					; SAVE MAILBOX UNIT NUMBER
                                     00D9   327 	MODE	TO,20$,KRNL,NOREGS 	; KERNEL MODE TO ACCESS PCB
            59   00000000'9F     D0  00F6   328 	MOVL	@#SCH$GL_CURPCB,R9 	; GET CURRENT PCB ADDRESS
   00000091'EF         20 A9     D0  00FD   329 	MOVL	PCB$L_UIC(R9),DETUIC 	; PICK UP UIC FROM PCB
                                     0105   330 	MODE	FROM,20$		; ... AND GET BACK TO USER MODE
                                     0106   331 	$CREPRC_S IMAGE=DETIMAGE, PRCNAM=DETNAME, -
                                     0106   332 		  UIC=DETUIC, MBXUNT=MBXUNIT
                                     0136   333 					; CREATE DETACHED PROC WITH SAME UIC
                                     0136   334 	DISPSERV			; SET UP DISPLAY INFO FOR TESTSERV
                                     02CB   335 	$SETPRT_S INADR=INADR, RETADR=RETADR, -
                                     02CB   336 		  PROT=PROT, PRVPRT=PRVPRT
                                     02EC   337 					; SET NOACCESS PSECT ...
                                     02EC   338 					; ... FOR NO USER ACCESS
                          1225   31  02EC   339 	BRW	EXECUTE			; GO EXECUTE ALL TEST CASES
                                     02EF   340 	TC_GROUP	SUS,1,TS1
                                     0316   341 ;
                                     0316   342 	NEXT_TEST_CASE	SFSUS10
SATSSF05        - SATS SYSTEM SERVICE TESTS  (FAILING S.C.)      22-AUG-1978 03:42:37   VAX-11 MACRO X0.3-11               Page   9
1.0             SFSUS10                                                                                                          (1)

                                     0316   343 ;
                                     0316   344 ;++
                                     0316   345 ; ******************************************************
                                     0316   346 ; *
                                     0316   347 ; *  TEST CASE NAME:		SFSUS10
                                     0316   348 ; *
                                     0316   349 ; *  SYSTEM SERVICE:		SUSPND
                                     0316   350 ; *
                                     0316   351 ; *  ARGUMENT UNDER TEST: 	PIDADR_SUS10
                                     0316   352 ; *
                                     0316   353 ; *  INPUT CONDITIONS:
                                     0316   354 ; *	PIDADR FIELD AT LOCATION 1
                                     0316   355 ; *
                                     0316   356 ; *  EXPECTED RESULTS:
                                     0316   357 ; *	1) SYSTEM STATUS CODE:	ACCVIO
                                     0316   358 ; *	2) REGISTERS R2 THROUGH FP UNCHANGED
                                     0316   359 ; *
                                     0316   360 ; ******************************************************
                                     0316   361 ;--
                                     0316   362 ;
                                     0316   363 ;
                                     0316   364 	NEXT_TEST_CASE	SFSUS11
SATSSF05        - SATS SYSTEM SERVICE TESTS  (FAILING S.C.)      22-AUG-1978 03:42:37   VAX-11 MACRO X0.3-11               Page  10
1.0             SFSUS11                                                                                                          (1)

                                     0322   365 ;
                                     0322   366 ;++
                                     0322   367 ; ******************************************************
                                     0322   368 ; *
                                     0322   369 ; *  TEST CASE NAME:		SFSUS11
                                     0322   370 ; *
                                     0322   371 ; *  SYSTEM SERVICE:		SUSPND
                                     0322   372 ; *
                                     0322   373 ; *  ARGUMENT UNDER TEST: 	PIDADR_SUS11
                                     0322   374 ; *
                                     0322   375 ; *  INPUT CONDITIONS:
                                     0322   376 ; *	PIDADR FIELD IN NON-ACCESSIBLE PSECT
                                     0322   377 ; *
                                     0322   378 ; *  EXPECTED RESULTS:
                                     0322   379 ; *	1) SYSTEM STATUS CODE:	ACCVIO
                                     0322   380 ; *	2) REGISTERS R2 THROUGH FP UNCHANGED
                                     0322   381 ; *
                                     0322   382 ; ******************************************************
                                     0322   383 ;--
                                     0322   384 ;
                                     0322   385 ;
                                     0322   386 	NEXT_TEST_CASE	SFSUS12
SATSSF05        - SATS SYSTEM SERVICE TESTS  (FAILING S.C.)      22-AUG-1978 03:42:37   VAX-11 MACRO X0.3-11               Page  11
1.0             SFSUS12                                                                                                          (1)

                                     032E   387 ;
                                     032E   388 ;++
                                     032E   389 ; ******************************************************
                                     032E   390 ; *
                                     032E   391 ; *  TEST CASE NAME:		SFSUS12
                                     032E   392 ; *
                                     032E   393 ; *  SYSTEM SERVICE:		SUSPND
                                     032E   394 ; *
                                     032E   395 ; *  ARGUMENT UNDER TEST: 	PIDADR_SUS12
                                     032E   396 ; *
                                     032E   397 ; *  INPUT CONDITIONS:
                                     032E   398 ; *	PIDADR FIELD BEGINS IN ACCESSIBLE PSECT, ENDS
                                     032E   399 ; *	  IN NON-ACCESSIBLE PSECT.
                                     032E   400 ; *
                                     032E   401 ; *  EXPECTED RESULTS:
                                     032E   402 ; *	1) SYSTEM STATUS CODE:	ACCVIO
                                     032E   403 ; *	2) REGISTERS R2 THROUGH FP UNCHANGED
                                     032E   404 ; *
                                     032E   405 ; ******************************************************
                                     032E   406 ;--
                                     032E   407 ;
                                     032E   408 ;
                                     032E   409 	NEXT_TEST_CASE	SFSUS13
SATSSF05        - SATS SYSTEM SERVICE TESTS  (FAILING S.C.)      22-AUG-1978 03:42:37   VAX-11 MACRO X0.3-11               Page  12
1.0             SFSUS13                                                                                                          (1)

                                     033A   410 ;
                                     033A   411 ;++
                                     033A   412 ; ******************************************************
                                     033A   413 ; *
                                     033A   414 ; *  TEST CASE NAME:		SFSUS13
                                     033A   415 ; *
                                     033A   416 ; *  SYSTEM SERVICE:		SUSPND
                                     033A   417 ; *
                                     033A   418 ; *  ARGUMENT UNDER TEST: 	PIDADR_SUS13
                                     033A   419 ; *
                                     033A   420 ; *  INPUT CONDITIONS:
                                     033A   421 ; *	INVALID PROCESS ID
                                     033A   422 ; *
                                     033A   423 ; *  EXPECTED RESULTS:
                                     033A   424 ; *	1) SYSTEM STATUS CODE:	NONEXPR
                                     033A   425 ; *	2) REGISTERS R2 THROUGH FP UNCHANGED
                                     033A   426 ; *
                                     033A   427 ; ******************************************************
                                     033A   428 ;--
                                     033A   429 ;
   00000174'EF   00000000'EF     D0  033A   430 	MOVL	TPID,PIDADR_SUS13 ; GET A VALID PID
   00000174'EF         FF 8F     99  0345   431 	CVTBW	#-1,PIDADR_SUS13  ; MAKE IT INVALID
                                     034D   432 ;
                                     034D   433 	NEXT_TEST_CASE	SFSUS14
SATSSF05        - SATS SYSTEM SERVICE TESTS  (FAILING S.C.)      22-AUG-1978 03:42:37   VAX-11 MACRO X0.3-11               Page  13
1.0             SFSUS14                                                                                                          (1)

                                     0359   434 ;
                                     0359   435 ;++
                                     0359   436 ; ******************************************************
                                     0359   437 ; *
                                     0359   438 ; *  TEST CASE NAME:		SFSUS14
                                     0359   439 ; *
                                     0359   440 ; *  SYSTEM SERVICE:		SUSPND
                                     0359   441 ; *
                                     0359   442 ; *  ARGUMENT UNDER TEST: 	PIDADR_SUS14
                                     0359   443 ; *
                                     0359   444 ; *  INPUT CONDITIONS:
                                     0359   445 ; *	VALID, NON-EXISTENT PROCESS ID
                                     0359   446 ; *
                                     0359   447 ; *  EXPECTED RESULTS:
                                     0359   448 ; *	1) SYSTEM STATUS CODE:	NONEXPR
                                     0359   449 ; *	2) REGISTERS R2 THROUGH FP UNCHANGED
                                     0359   450 ; *
                                     0359   451 ; ******************************************************
                                     0359   452 ;--
                                     0359   453 ;
   00000178'EF   00000000'EF     D0  0359   454 	MOVL	TPID,PIDADR_SUS14 ; GET AN EXISTENT PID
   0000017A'EF       1770 8F     B0  0364   455 	MOVW	#6000,PIDADR_SUS14+2 ; MAKE IT NON-EXISTENT
                                     036D   456 ;
                                     036D   457 	NEXT_TEST_CASE	SFSUS20
SATSSF05        - SATS SYSTEM SERVICE TESTS  (FAILING S.C.)      22-AUG-1978 03:42:37   VAX-11 MACRO X0.3-11               Page  14
1.0             SFSUS20                                                                                                          (1)

                                     0379   458 ;
                                     0379   459 ;++
                                     0379   460 ; ******************************************************
                                     0379   461 ; *
                                     0379   462 ; *  TEST CASE NAME:		SFSUS20
                                     0379   463 ; *
                                     0379   464 ; *  SYSTEM SERVICE:		SUSPND
                                     0379   465 ; *
                                     0379   466 ; *  ARGUMENT UNDER TEST: 	PRCNAM_SUS20
                                     0379   467 ; *
                                     0379   468 ; *  INPUT CONDITIONS:
                                     0379   469 ; *	PRCNAM STRING DESCRIPTOR LENGTH FIELD IN
                                     0379   470 ; *	  NON-ACCESSIBLE PSECT.
                                     0379   471 ; *
                                     0379   472 ; *  EXPECTED RESULTS:
                                     0379   473 ; *	1) SYSTEM STATUS CODE:	ACCVIO
                                     0379   474 ; *	2) REGISTERS R2 THROUGH FP UNCHANGED
                                     0379   475 ; *
                                     0379   476 ; ******************************************************
                                     0379   477 ;--
                                     0379   478 ;
                 00000170'EF     D4  0379   479 	CLRL	PIDADR_SUS	; MAKE SURE PRCNAM IS USED BY SUSPND
                                     037F   480 ;
                                     037F   481 	NEXT_TEST_CASE	SFSUS21
SATSSF05        - SATS SYSTEM SERVICE TESTS  (FAILING S.C.)      22-AUG-1978 03:42:37   VAX-11 MACRO X0.3-11               Page  15
1.0             SFSUS21                                                                                                          (1)

                                     038B   482 ;
                                     038B   483 ;++
                                     038B   484 ; ******************************************************
                                     038B   485 ; *
                                     038B   486 ; *  TEST CASE NAME:		SFSUS21
                                     038B   487 ; *
                                     038B   488 ; *  SYSTEM SERVICE:		SUSPND
                                     038B   489 ; *
                                     038B   490 ; *  ARGUMENT UNDER TEST: 	PRCNAM_SUS21
                                     038B   491 ; *
                                     038B   492 ; *  INPUT CONDITIONS:
                                     038B   493 ; *	PRCNAM STRING DESCRIPTOR LENGTH FIELD BEGINS IN
                                     038B   494 ; *	  ACCESSIBLE PSECT, ENDS IN NON-ACCESSIBLE PSECT.
                                     038B   495 ; *
                                     038B   496 ; *  EXPECTED RESULTS:
                                     038B   497 ; *	1) SYSTEM STATUS CODE:	ACCVIO
                                     038B   498 ; *	2) REGISTERS R2 THROUGH FP UNCHANGED
                                     038B   499 ; *
                                     038B   500 ; ******************************************************
                                     038B   501 ;--
                                     038B   502 ;
                 00000170'EF     D4  038B   503 	CLRL	PIDADR_SUS	; MAKE SURE PRCNAM IS USED BY SUSPND
                                     0391   504 ;
                                     0391   505 	NEXT_TEST_CASE	SFSUS22
SATSSF05        - SATS SYSTEM SERVICE TESTS  (FAILING S.C.)      22-AUG-1978 03:42:37   VAX-11 MACRO X0.3-11               Page  16
1.0             SFSUS22                                                                                                          (1)

                                     039D   506 ;
                                     039D   507 ;++
                                     039D   508 ; ******************************************************
                                     039D   509 ; *
                                     039D   510 ; *  TEST CASE NAME:		SFSUS22
                                     039D   511 ; *
                                     039D   512 ; *  SYSTEM SERVICE:		SUSPND
                                     039D   513 ; *
                                     039D   514 ; *  ARGUMENT UNDER TEST: 	PRCNAM_SUS22
                                     039D   515 ; *
                                     039D   516 ; *  INPUT CONDITIONS:
                                     039D   517 ; *	PRCNAM STRING DESCRIPTOR ADDRESS FIELD IN
                                     039D   518 ; *	  NON-ACCESSIBLE PSECT.
                                     039D   519 ; *
                                     039D   520 ; *  EXPECTED RESULTS:
                                     039D   521 ; *	1) SYSTEM STATUS CODE:	ACCVIO
                                     039D   522 ; *	2) REGISTERS R2 THROUGH FP UNCHANGED
                                     039D   523 ; *
                                     039D   524 ; ******************************************************
                                     039D   525 ;--
                                     039D   526 ;
                 00000170'EF     D4  039D   527 	CLRL	PIDADR_SUS	; MAKE SURE PRCNAM IS USED BY SUSPND
   000001FC'EF            03     9A  03A3   528 	MOVZBL	#3,PRCNAM_SUS22	; ESTABLISH PRCNAM STRING LENGTH
                                     03AA   529 ;
                                     03AA   530 	NEXT_TEST_CASE	SFSUS23
SATSSF05        - SATS SYSTEM SERVICE TESTS  (FAILING S.C.)      22-AUG-1978 03:42:37   VAX-11 MACRO X0.3-11               Page  17
1.0             SFSUS23                                                                                                          (1)

                                     03B6   531 ;
                                     03B6   532 ;++
                                     03B6   533 ; ******************************************************
                                     03B6   534 ; *
                                     03B6   535 ; *  TEST CASE NAME:		SFSUS23
                                     03B6   536 ; *
                                     03B6   537 ; *  SYSTEM SERVICE:		SUSPND
                                     03B6   538 ; *
                                     03B6   539 ; *  ARGUMENT UNDER TEST: 	PRCNAM_SUS23
                                     03B6   540 ; *
                                     03B6   541 ; *  INPUT CONDITIONS:
                                     03B6   542 ; *	PRCNAM STRING DESCRIPTOR ADDRESS FIELD BEGINS IN
                                     03B6   543 ; *	  ACCESSIBLE PSECT, ENDS IN NON-ACCESSIBLE PSECT.
                                     03B6   544 ; *
                                     03B6   545 ; *  EXPECTED RESULTS:
                                     03B6   546 ; *	1) SYSTEM STATUS CODE:	ACCVIO
                                     03B6   547 ; *	2) REGISTERS R2 THROUGH FP UNCHANGED
                                     03B6   548 ; *
                                     03B6   549 ; ******************************************************
                                     03B6   550 ;--
                                     03B6   551 ;
                 00000170'EF     D4  03B6   552 	CLRL	PIDADR_SUS	; MAKE SURE PRCNAM IS USED BY SUSPND
   000001FB'EF            03     9A  03BC   553 	MOVZBL	#3,PRCNAM_SUS23	; ESTABLISH PRCNAM STRING LENGTH
                                     03C3   554 ;
                                     03C3   555 	NEXT_TEST_CASE	SFSUS24
SATSSF05        - SATS SYSTEM SERVICE TESTS  (FAILING S.C.)      22-AUG-1978 03:42:37   VAX-11 MACRO X0.3-11               Page  18
1.0             SFSUS24                                                                                                          (1)

                                     03CF   556 ;
                                     03CF   557 ;++
                                     03CF   558 ; ******************************************************
                                     03CF   559 ; *
                                     03CF   560 ; *  TEST CASE NAME:		SFSUS24
                                     03CF   561 ; *
                                     03CF   562 ; *  SYSTEM SERVICE:		SUSPND
                                     03CF   563 ; *
                                     03CF   564 ; *  ARGUMENT UNDER TEST: 	PRCNAM_SUS24
                                     03CF   565 ; *
                                     03CF   566 ; *  INPUT CONDITIONS:
                                     03CF   567 ; *	PRCNAM STRING IN NON-ACCESSIBLE PSECT
                                     03CF   568 ; *
                                     03CF   569 ; *  EXPECTED RESULTS:
                                     03CF   570 ; *	1) SYSTEM STATUS CODE:	ACCVIO
                                     03CF   571 ; *	2) REGISTERS R2 THROUGH FP UNCHANGED
                                     03CF   572 ; *
                                     03CF   573 ; ******************************************************
                                     03CF   574 ;--
                                     03CF   575 ;
                 00000170'EF     D4  03CF   576 	CLRL	PIDADR_SUS	; MAKE SURE PRCNAM IS USED BY SUSPND
                                     03D5   577 ;
                                     03D5   578 	TCEND
SATSSF05        - SATS SYSTEM SERVICE TESTS  (FAILING S.C.)      22-AUG-1978 03:42:37   VAX-11 MACRO X0.3-11               Page  19
1.0                                                                                                                              (1)

                                     03D6   579 	TC_GROUP	SUS,2,TS2
                                     03FD   580 ;
                                     03FD   581 	NEXT_TEST_CASE	SFSUS25
SATSSF05        - SATS SYSTEM SERVICE TESTS  (FAILING S.C.)      22-AUG-1978 03:42:37   VAX-11 MACRO X0.3-11               Page  20
1.0             SFSUS25                                                                                                          (1)

                                     03FD   582 ;
                                     03FD   583 ;++
                                     03FD   584 ; ******************************************************
                                     03FD   585 ; *
                                     03FD   586 ; *  TEST CASE NAME:		SFSUS25
                                     03FD   587 ; *
                                     03FD   588 ; *  SYSTEM SERVICE:		SUSPND
                                     03FD   589 ; *
                                     03FD   590 ; *  ARGUMENT UNDER TEST: 	PRCNAM_SUS25
                                     03FD   591 ; *
                                     03FD   592 ; *  INPUT CONDITIONS:
                                     03FD   593 ; *	PRCNAM STRING BEGINS IN ACCESSIBLE PSECT,
                                     03FD   594 ; *	  ENDS IN NON-ACCESSIBLE PSECT.
                                     03FD   595 ; *
                                     03FD   596 ; *  EXPECTED RESULTS:
                                     03FD   597 ; *	1) SYSTEM STATUS CODE:	ACCVIO
                                     03FD   598 ; *	2) REGISTERS R2 THROUGH FP UNCHANGED
                                     03FD   599 ; *
                                     03FD   600 ; ******************************************************
                                     03FD   601 ;--
                                     03FD   602 ;
                 00000170'EF     D4  03FD   603 	CLRL	PIDADR_SUS	; MAKE SURE PRCNAM IS USED BY SUSPND
                                     0403   604 ;
                                     0403   605 	NEXT_TEST_CASE	SFSUS26
SATSSF05        - SATS SYSTEM SERVICE TESTS  (FAILING S.C.)      22-AUG-1978 03:42:37   VAX-11 MACRO X0.3-11               Page  21
1.0             SFSUS26                                                                                                          (1)

                                     040F   606 ;
                                     040F   607 ;++
                                     040F   608 ; ******************************************************
                                     040F   609 ; *
                                     040F   610 ; *  TEST CASE NAME:		SFSUS26
                                     040F   611 ; *
                                     040F   612 ; *  SYSTEM SERVICE:		SUSPND
                                     040F   613 ; *
                                     040F   614 ; *  ARGUMENT UNDER TEST: 	PRCNAM_SUS26
                                     040F   615 ; *
                                     040F   616 ; *  INPUT CONDITIONS:
                                     040F   617 ; *	NON-EXISTENT PROCESS NAME
                                     040F   618 ; *
                                     040F   619 ; *  EXPECTED RESULTS:
                                     040F   620 ; *	1) SYSTEM STATUS CODE:	NONEXPR
                                     040F   621 ; *	2) REGISTERS R2 THROUGH FP UNCHANGED
                                     040F   622 ; *
                                     040F   623 ; ******************************************************
                                     040F   624 ;--
                                     040F   625 ;
                 00000170'EF     D4  040F   626 	CLRL	PIDADR_SUS	; MAKE SURE PRCNAM IS USED BY SUSPND
                                     0415   627 ;
                                     0415   628 	NEXT_TEST_CASE	SFSUS27
SATSSF05        - SATS SYSTEM SERVICE TESTS  (FAILING S.C.)      22-AUG-1978 03:42:37   VAX-11 MACRO X0.3-11               Page  22
1.0             SFSUS27                                                                                                          (1)

                                     0421   629 ;
                                     0421   630 ;++
                                     0421   631 ; ******************************************************
                                     0421   632 ; *
                                     0421   633 ; *  TEST CASE NAME:		SFSUS27
                                     0421   634 ; *
                                     0421   635 ; *  SYSTEM SERVICE:		SUSPND
                                     0421   636 ; *
                                     0421   637 ; *  ARGUMENT UNDER TEST: 	PRCNAM_SUS27
                                     0421   638 ; *
                                     0421   639 ; *  INPUT CONDITIONS:
                                     0421   640 ; *	INVALID PROCESS NAME (LENGTH 0)
                                     0421   641 ; *
                                     0421   642 ; *  EXPECTED RESULTS:
                                     0421   643 ; *	1) SYSTEM STATUS CODE:	IVLOGNAM
                                     0421   644 ; *	2) REGISTERS R2 THROUGH FP UNCHANGED
                                     0421   645 ; *
                                     0421   646 ; ******************************************************
                                     0421   647 ;--
                                     0421   648 ;
                 00000170'EF     D4  0421   649 	CLRL	PIDADR_SUS	; MAKE SURE PRCNAM IS USED BY SUSPND
                                     0427   650 ;
                                     0427   651 	NEXT_TEST_CASE	SFSUS28
SATSSF05        - SATS SYSTEM SERVICE TESTS  (FAILING S.C.)      22-AUG-1978 03:42:37   VAX-11 MACRO X0.3-11               Page  23
1.0             SFSUS28                                                                                                          (1)

                                     0433   652 ;
                                     0433   653 ;++
                                     0433   654 ; ******************************************************
                                     0433   655 ; *
                                     0433   656 ; *  TEST CASE NAME:		SFSUS28
                                     0433   657 ; *
                                     0433   658 ; *  SYSTEM SERVICE:		SUSPND
                                     0433   659 ; *
                                     0433   660 ; *  ARGUMENT UNDER TEST: 	PRCNAM_SUS28
                                     0433   661 ; *
                                     0433   662 ; *  INPUT CONDITIONS:
                                     0433   663 ; *	INVALID PROCESS NAME (LENGTH 16)
                                     0433   664 ; *
                                     0433   665 ; *  EXPECTED RESULTS:
                                     0433   666 ; *	1) SYSTEM STATUS CODE:	IVLOGNAM
                                     0433   667 ; *	2) REGISTERS R2 THROUGH FP UNCHANGED
                                     0433   668 ; *
                                     0433   669 ; ******************************************************
                                     0433   670 ;--
                                     0433   671 ;
                 00000170'EF     D4  0433   672 	CLRL	PIDADR_SUS	; MAKE SURE PRCNAM IS USED BY SUSPND
                                     0439   673 ;
                                     0439   674 	NEXT_TEST_CASE	SFSUS29
SATSSF05        - SATS SYSTEM SERVICE TESTS  (FAILING S.C.)      22-AUG-1978 03:42:37   VAX-11 MACRO X0.3-11               Page  24
1.0             SFSUS29                                                                                                          (1)

                                     0445   675 ;
                                     0445   676 ;++
                                     0445   677 ; ******************************************************
                                     0445   678 ; *
                                     0445   679 ; *  TEST CASE NAME:		SFSUS29
                                     0445   680 ; *
                                     0445   681 ; *  SYSTEM SERVICE:		SUSPND
                                     0445   682 ; *
                                     0445   683 ; *  ARGUMENT UNDER TEST: 	PRCNAM_SUS29
                                     0445   684 ; *
                                     0445   685 ; *  INPUT CONDITIONS:
                                     0445   686 ; *	SUSPND ISSUED FOR EXISTING PROCESS WHICH IS NOT A
                                     0445   687 ; *	  SUBPROCESS OF THIS PROCESS, AND THIS PROCESS HAS
                                     0445   688 ; *	  NO GROUP OR WORLD PRIVILEGE.
                                     0445   689 ; *
                                     0445   690 ; *  EXPECTED RESULTS:
                                     0445   691 ; *	1) SYSTEM STATUS CODE:	NOPRIV
                                     0445   692 ; *	2) REGISTERS R2 THROUGH FP UNCHANGED
                                     0445   693 ; *
                                     0445   694 ; ******************************************************
                                     0445   695 ;--
                                     0445   696 ;
                                     0445   697 	PRIV	REM,GROUP	; REMOVE GROUP PRIVILEGE
                                     046C   698 	PRIV	REM,WORLD	; REMOVE WORLD PRIVILEGE
                 00000170'EF     D4  0493   699 	CLRL	PIDADR_SUS	; MAKE SURE PRCNAM IS USED BY SUSPND
                                     0499   700 ;
                                     0499   701 	TCEND
SATSSF05        - SATS SYSTEM SERVICE TESTS  (FAILING S.C.)      22-AUG-1978 03:42:37   VAX-11 MACRO X0.3-11               Page  25
1.0                                                                                                                              (1)

                                     049A   702 	TC_GROUP	RES,1,TS3
                                     04C1   703 ;
                                     04C1   704 	NEXT_TEST_CASE	SFRES10
SATSSF05        - SATS SYSTEM SERVICE TESTS  (FAILING S.C.)      22-AUG-1978 03:42:37   VAX-11 MACRO X0.3-11               Page  26
1.0             SFRES10                                                                                                          (1)

                                     04C1   705 ;
                                     04C1   706 ;++
                                     04C1   707 ; ******************************************************
                                     04C1   708 ; *
                                     04C1   709 ; *  TEST CASE NAME:		SFRES10
                                     04C1   710 ; *
                                     04C1   711 ; *  SYSTEM SERVICE:		RESUME
                                     04C1   712 ; *
                                     04C1   713 ; *  ARGUMENT UNDER TEST: 	PIDADR_RES10
                                     04C1   714 ; *
                                     04C1   715 ; *  INPUT CONDITIONS:
                                     04C1   716 ; *	PIDADR FIELD AT LOCATION 1
                                     04C1   717 ; *
                                     04C1   718 ; *  EXPECTED RESULTS:
                                     04C1   719 ; *	1) SYSTEM STATUS CODE:	ACCVIO
                                     04C1   720 ; *	2) REGISTERS R2 THROUGH FP UNCHANGED
                                     04C1   721 ; *
                                     04C1   722 ; ******************************************************
                                     04C1   723 ;--
                                     04C1   724 ;
                                     04C1   725 	PRIV	ADD,ALL		; GET BACK SOME PRIVS REMOVED IN PRIOR T.C.
                                     04EA   726 ;
                                     04EA   727 	NEXT_TEST_CASE	SFRES11
SATSSF05        - SATS SYSTEM SERVICE TESTS  (FAILING S.C.)      22-AUG-1978 03:42:37   VAX-11 MACRO X0.3-11               Page  27
1.0             SFRES11                                                                                                          (1)

                                     04F6   728 ;
                                     04F6   729 ;++
                                     04F6   730 ; ******************************************************
                                     04F6   731 ; *
                                     04F6   732 ; *  TEST CASE NAME:		SFRES11
                                     04F6   733 ; *
                                     04F6   734 ; *  SYSTEM SERVICE:		RESUME
                                     04F6   735 ; *
                                     04F6   736 ; *  ARGUMENT UNDER TEST: 	PIDADR_RES11
                                     04F6   737 ; *
                                     04F6   738 ; *  INPUT CONDITIONS:
                                     04F6   739 ; *	PIDADR FIELD IN NON-ACCESSIBLE PSECT
                                     04F6   740 ; *
                                     04F6   741 ; *  EXPECTED RESULTS:
                                     04F6   742 ; *	1) SYSTEM STATUS CODE:	ACCVIO
                                     04F6   743 ; *	2) REGISTERS R2 THROUGH FP UNCHANGED
                                     04F6   744 ; *
                                     04F6   745 ; ******************************************************
                                     04F6   746 ;--
                                     04F6   747 ;
                                     04F6   748 ;
                                     04F6   749 	NEXT_TEST_CASE	SFRES12
SATSSF05        - SATS SYSTEM SERVICE TESTS  (FAILING S.C.)      22-AUG-1978 03:42:37   VAX-11 MACRO X0.3-11               Page  28
1.0             SFRES12                                                                                                          (1)

                                     0502   750 ;
                                     0502   751 ;++
                                     0502   752 ; ******************************************************
                                     0502   753 ; *
                                     0502   754 ; *  TEST CASE NAME:		SFRES12
                                     0502   755 ; *
                                     0502   756 ; *  SYSTEM SERVICE:		RESUME
                                     0502   757 ; *
                                     0502   758 ; *  ARGUMENT UNDER TEST: 	PIDADR_RES12
                                     0502   759 ; *
                                     0502   760 ; *  INPUT CONDITIONS:
                                     0502   761 ; *	PIDADR FIELD BEGINS IN ACCESSIBLE PSECT, ENDS
                                     0502   762 ; *	  IN NON-ACCESSIBLE PSECT.
                                     0502   763 ; *
                                     0502   764 ; *  EXPECTED RESULTS:
                                     0502   765 ; *	1) SYSTEM STATUS CODE:	ACCVIO
                                     0502   766 ; *	2) REGISTERS R2 THROUGH FP UNCHANGED
                                     0502   767 ; *
                                     0502   768 ; ******************************************************
                                     0502   769 ;--
                                     0502   770 ;
                                     0502   771 ;
                                     0502   772 	NEXT_TEST_CASE	SFRES13
SATSSF05        - SATS SYSTEM SERVICE TESTS  (FAILING S.C.)      22-AUG-1978 03:42:37   VAX-11 MACRO X0.3-11               Page  29
1.0             SFRES13                                                                                                          (1)

                                     050E   773 ;
                                     050E   774 ;++
                                     050E   775 ; ******************************************************
                                     050E   776 ; *
                                     050E   777 ; *  TEST CASE NAME:		SFRES13
                                     050E   778 ; *
                                     050E   779 ; *  SYSTEM SERVICE:		RESUME
                                     050E   780 ; *
                                     050E   781 ; *  ARGUMENT UNDER TEST: 	PIDADR_RES13
                                     050E   782 ; *
                                     050E   783 ; *  INPUT CONDITIONS:
                                     050E   784 ; *	INVALID PROCESS ID
                                     050E   785 ; *
                                     050E   786 ; *  EXPECTED RESULTS:
                                     050E   787 ; *	1) SYSTEM STATUS CODE:	NONEXPR
                                     050E   788 ; *	2) REGISTERS R2 THROUGH FP UNCHANGED
                                     050E   789 ; *
                                     050E   790 ; ******************************************************
                                     050E   791 ;--
                                     050E   792 ;
   00000180'EF   00000000'EF     D0  050E   793 	MOVL	TPID,PIDADR_RES13 ; GET A VALID PID
   00000180'EF         FF 8F     99  0519   794 	CVTBW	#-1,PIDADR_RES13  ; MAKE IT INVALID
                                     0521   795 ;
                                     0521   796 	NEXT_TEST_CASE	SFRES14
SATSSF05        - SATS SYSTEM SERVICE TESTS  (FAILING S.C.)      22-AUG-1978 03:42:37   VAX-11 MACRO X0.3-11               Page  30
1.0             SFRES14                                                                                                          (1)

                                     052D   797 ;
                                     052D   798 ;++
                                     052D   799 ; ******************************************************
                                     052D   800 ; *
                                     052D   801 ; *  TEST CASE NAME:		SFRES14
                                     052D   802 ; *
                                     052D   803 ; *  SYSTEM SERVICE:		RESUME
                                     052D   804 ; *
                                     052D   805 ; *  ARGUMENT UNDER TEST: 	PIDADR_RES14
                                     052D   806 ; *
                                     052D   807 ; *  INPUT CONDITIONS:
                                     052D   808 ; *	VALID, NON-EXISTENT PROCESS ID
                                     052D   809 ; *
                                     052D   810 ; *  EXPECTED RESULTS:
                                     052D   811 ; *	1) SYSTEM STATUS CODE:	NONEXPR
                                     052D   812 ; *	2) REGISTERS R2 THROUGH FP UNCHANGED
                                     052D   813 ; *
                                     052D   814 ; ******************************************************
                                     052D   815 ;--
                                     052D   816 ;
   00000184'EF   00000000'EF     D0  052D   817 	MOVL	TPID,PIDADR_RES14 ; GET AN EXISTENT PID
   00000186'EF       1770 8F     B0  0538   818 	MOVW	#6000,PIDADR_RES14+2 ; MAKE IT NON-EXISTENT
                                     0541   819 ;
                                     0541   820 	NEXT_TEST_CASE	SFRES20
SATSSF05        - SATS SYSTEM SERVICE TESTS  (FAILING S.C.)      22-AUG-1978 03:42:37   VAX-11 MACRO X0.3-11               Page  31
1.0             SFRES20                                                                                                          (1)

                                     054D   821 ;
                                     054D   822 ;++
                                     054D   823 ; ******************************************************
                                     054D   824 ; *
                                     054D   825 ; *  TEST CASE NAME:		SFRES20
                                     054D   826 ; *
                                     054D   827 ; *  SYSTEM SERVICE:		RESUME
                                     054D   828 ; *
                                     054D   829 ; *  ARGUMENT UNDER TEST: 	PRCNAM_RES20
                                     054D   830 ; *
                                     054D   831 ; *  INPUT CONDITIONS:
                                     054D   832 ; *	PRCNAM STRING DESCRIPTOR LENGTH FIELD IN
                                     054D   833 ; *	  NON-ACCESSIBLE PSECT.
                                     054D   834 ; *
                                     054D   835 ; *  EXPECTED RESULTS:
                                     054D   836 ; *	1) SYSTEM STATUS CODE:	ACCVIO
                                     054D   837 ; *	2) REGISTERS R2 THROUGH FP UNCHANGED
                                     054D   838 ; *
                                     054D   839 ; ******************************************************
                                     054D   840 ;--
                                     054D   841 ;
                 0000017C'EF     D4  054D   842 	CLRL	PIDADR_RES	; MAKE SURE PRCNAM IS USED BY RESUME
                                     0553   843 ;
                                     0553   844 	NEXT_TEST_CASE	SFRES21
SATSSF05        - SATS SYSTEM SERVICE TESTS  (FAILING S.C.)      22-AUG-1978 03:42:37   VAX-11 MACRO X0.3-11               Page  32
1.0             SFRES21                                                                                                          (1)

                                     055F   845 ;
                                     055F   846 ;++
                                     055F   847 ; ******************************************************
                                     055F   848 ; *
                                     055F   849 ; *  TEST CASE NAME:		SFRES21
                                     055F   850 ; *
                                     055F   851 ; *  SYSTEM SERVICE:		RESUME
                                     055F   852 ; *
                                     055F   853 ; *  ARGUMENT UNDER TEST: 	PRCNAM_RES21
                                     055F   854 ; *
                                     055F   855 ; *  INPUT CONDITIONS:
                                     055F   856 ; *	PRCNAM STRING DESCRIPTOR LENGTH FIELD BEGINS IN
                                     055F   857 ; *	  ACCESSIBLE PSECT, ENDS IN NON-ACCESSIBLE PSECT.
                                     055F   858 ; *
                                     055F   859 ; *  EXPECTED RESULTS:
                                     055F   860 ; *	1) SYSTEM STATUS CODE:	ACCVIO
                                     055F   861 ; *	2) REGISTERS R2 THROUGH FP UNCHANGED
                                     055F   862 ; *
                                     055F   863 ; ******************************************************
                                     055F   864 ;--
                                     055F   865 ;
                 0000017C'EF     D4  055F   866 	CLRL	PIDADR_RES	; MAKE SURE PRCNAM IS USED BY RESUME
                                     0565   867 ;
                                     0565   868 	NEXT_TEST_CASE	SFRES22
SATSSF05        - SATS SYSTEM SERVICE TESTS  (FAILING S.C.)      22-AUG-1978 03:42:37   VAX-11 MACRO X0.3-11               Page  33
1.0             SFRES22                                                                                                          (1)

                                     0571   869 ;
                                     0571   870 ;++
                                     0571   871 ; ******************************************************
                                     0571   872 ; *
                                     0571   873 ; *  TEST CASE NAME:		SFRES22
                                     0571   874 ; *
                                     0571   875 ; *  SYSTEM SERVICE:		RESUME
                                     0571   876 ; *
                                     0571   877 ; *  ARGUMENT UNDER TEST: 	PRCNAM_RES22
                                     0571   878 ; *
                                     0571   879 ; *  INPUT CONDITIONS:
                                     0571   880 ; *	PRCNAM STRING DESCRIPTOR ADDRESS FIELD IN
                                     0571   881 ; *	  NON-ACCESSIBLE PSECT.
                                     0571   882 ; *
                                     0571   883 ; *  EXPECTED RESULTS:
                                     0571   884 ; *	1) SYSTEM STATUS CODE:	ACCVIO
                                     0571   885 ; *	2) REGISTERS R2 THROUGH FP UNCHANGED
                                     0571   886 ; *
                                     0571   887 ; ******************************************************
                                     0571   888 ;--
                                     0571   889 ;
                 0000017C'EF     D4  0571   890 	CLRL	PIDADR_RES	; MAKE SURE PRCNAM IS USED BY RESUME
   000001FC'EF            03     9A  0577   891 	MOVZBL	#3,PRCNAM_RES22	; ESTABLISH PRCNAM STRING LENGTH
                                     057E   892 ;
                                     057E   893 	NEXT_TEST_CASE	SFRES23
SATSSF05        - SATS SYSTEM SERVICE TESTS  (FAILING S.C.)      22-AUG-1978 03:42:37   VAX-11 MACRO X0.3-11               Page  34
1.0             SFRES23                                                                                                          (1)

                                     058A   894 ;
                                     058A   895 ;++
                                     058A   896 ; ******************************************************
                                     058A   897 ; *
                                     058A   898 ; *  TEST CASE NAME:		SFRES23
                                     058A   899 ; *
                                     058A   900 ; *  SYSTEM SERVICE:		RESUME
                                     058A   901 ; *
                                     058A   902 ; *  ARGUMENT UNDER TEST: 	PRCNAM_RES23
                                     058A   903 ; *
                                     058A   904 ; *  INPUT CONDITIONS:
                                     058A   905 ; *	PRCNAM STRING DESCRIPTOR ADDRESS FIELD BEGINS IN
                                     058A   906 ; *	  ACCESSIBLE PSECT, ENDS IN NON-ACCESSIBLE PSECT.
                                     058A   907 ; *
                                     058A   908 ; *  EXPECTED RESULTS:
                                     058A   909 ; *	1) SYSTEM STATUS CODE:	ACCVIO
                                     058A   910 ; *	2) REGISTERS R2 THROUGH FP UNCHANGED
                                     058A   911 ; *
                                     058A   912 ; ******************************************************
                                     058A   913 ;--
                                     058A   914 ;
                 0000017C'EF     D4  058A   915 	CLRL	PIDADR_RES	; MAKE SURE PRCNAM IS USED BY RESUME
   000001FB'EF            03     9A  0590   916 	MOVZBL	#3,PRCNAM_RES23	; ESTABLISH PRCNAM STRING LENGTH
                                     0597   917 ;
                                     0597   918 	NEXT_TEST_CASE	SFRES24
SATSSF05        - SATS SYSTEM SERVICE TESTS  (FAILING S.C.)      22-AUG-1978 03:42:37   VAX-11 MACRO X0.3-11               Page  35
1.0             SFRES24                                                                                                          (1)

                                     05A3   919 ;
                                     05A3   920 ;++
                                     05A3   921 ; ******************************************************
                                     05A3   922 ; *
                                     05A3   923 ; *  TEST CASE NAME:		SFRES24
                                     05A3   924 ; *
                                     05A3   925 ; *  SYSTEM SERVICE:		RESUME
                                     05A3   926 ; *
                                     05A3   927 ; *  ARGUMENT UNDER TEST: 	PRCNAM_RES24
                                     05A3   928 ; *
                                     05A3   929 ; *  INPUT CONDITIONS:
                                     05A3   930 ; *	PRCNAM STRING IN NON-ACCESSIBLE PSECT
                                     05A3   931 ; *
                                     05A3   932 ; *  EXPECTED RESULTS:
                                     05A3   933 ; *	1) SYSTEM STATUS CODE:	ACCVIO
                                     05A3   934 ; *	2) REGISTERS R2 THROUGH FP UNCHANGED
                                     05A3   935 ; *
                                     05A3   936 ; ******************************************************
                                     05A3   937 ;--
                                     05A3   938 ;
                 0000017C'EF     D4  05A3   939 	CLRL	PIDADR_RES	; MAKE SURE PRCNAM IS USED BY RESUME
                                     05A9   940 ;
                                     05A9   941 	TCEND
SATSSF05        - SATS SYSTEM SERVICE TESTS  (FAILING S.C.)      22-AUG-1978 03:42:37   VAX-11 MACRO X0.3-11               Page  36
1.0                                                                                                                              (1)

                                     05AA   942 	TC_GROUP	RES,2,TS4
                                     05D1   943 ;
                                     05D1   944 	NEXT_TEST_CASE	SFRES25
SATSSF05        - SATS SYSTEM SERVICE TESTS  (FAILING S.C.)      22-AUG-1978 03:42:37   VAX-11 MACRO X0.3-11               Page  37
1.0             SFRES25                                                                                                          (1)

                                     05D1   945 ;
                                     05D1   946 ;++
                                     05D1   947 ; ******************************************************
                                     05D1   948 ; *
                                     05D1   949 ; *  TEST CASE NAME:		SFRES25
                                     05D1   950 ; *
                                     05D1   951 ; *  SYSTEM SERVICE:		RESUME
                                     05D1   952 ; *
                                     05D1   953 ; *  ARGUMENT UNDER TEST: 	PRCNAM_RES25
                                     05D1   954 ; *
                                     05D1   955 ; *  INPUT CONDITIONS:
                                     05D1   956 ; *	PRCNAM STRING BEGINS IN ACCESSIBLE PSECT,
                                     05D1   957 ; *	  ENDS IN NON-ACCESSIBLE PSECT.
                                     05D1   958 ; *
                                     05D1   959 ; *  EXPECTED RESULTS:
                                     05D1   960 ; *	1) SYSTEM STATUS CODE:	ACCVIO
                                     05D1   961 ; *	2) REGISTERS R2 THROUGH FP UNCHANGED
                                     05D1   962 ; *
                                     05D1   963 ; ******************************************************
                                     05D1   964 ;--
                                     05D1   965 ;
                 0000017C'EF     D4  05D1   966 	CLRL	PIDADR_RES	; MAKE SURE PRCNAM IS USED BY RESUME
                                     05D7   967 ;
                                     05D7   968 	NEXT_TEST_CASE	SFRES26
SATSSF05        - SATS SYSTEM SERVICE TESTS  (FAILING S.C.)      22-AUG-1978 03:42:37   VAX-11 MACRO X0.3-11               Page  38
1.0             SFRES26                                                                                                          (1)

                                     05E3   969 ;
                                     05E3   970 ;++
                                     05E3   971 ; ******************************************************
                                     05E3   972 ; *
                                     05E3   973 ; *  TEST CASE NAME:		SFRES26
                                     05E3   974 ; *
                                     05E3   975 ; *  SYSTEM SERVICE:		RESUME
                                     05E3   976 ; *
                                     05E3   977 ; *  ARGUMENT UNDER TEST: 	PRCNAM_RES26
                                     05E3   978 ; *
                                     05E3   979 ; *  INPUT CONDITIONS:
                                     05E3   980 ; *	NON-EXISTENT PROCESS NAME
                                     05E3   981 ; *
                                     05E3   982 ; *  EXPECTED RESULTS:
                                     05E3   983 ; *	1) SYSTEM STATUS CODE:	NONEXPR
                                     05E3   984 ; *	2) REGISTERS R2 THROUGH FP UNCHANGED
                                     05E3   985 ; *
                                     05E3   986 ; ******************************************************
                                     05E3   987 ;--
                                     05E3   988 ;
                 0000017C'EF     D4  05E3   989 	CLRL	PIDADR_RES	; MAKE SURE PRCNAM IS USED BY RESUME
                                     05E9   990 ;
                                     05E9   991 	NEXT_TEST_CASE	SFRES27
SATSSF05        - SATS SYSTEM SERVICE TESTS  (FAILING S.C.)      22-AUG-1978 03:42:37   VAX-11 MACRO X0.3-11               Page  39
1.0             SFRES27                                                                                                          (1)

                                     05F5   992 ;
                                     05F5   993 ;++
                                     05F5   994 ; ******************************************************
                                     05F5   995 ; *
                                     05F5   996 ; *  TEST CASE NAME:		SFRES27
                                     05F5   997 ; *
                                     05F5   998 ; *  SYSTEM SERVICE:		RESUME
                                     05F5   999 ; *
                                     05F5  1000 ; *  ARGUMENT UNDER TEST: 	PRCNAM_RES27
                                     05F5  1001 ; *
                                     05F5  1002 ; *  INPUT CONDITIONS:
                                     05F5  1003 ; *	INVALID PROCESS NAME (LENGTH 0)
                                     05F5  1004 ; *
                                     05F5  1005 ; *  EXPECTED RESULTS:
                                     05F5  1006 ; *	1) SYSTEM STATUS CODE:	IVLOGNAM
                                     05F5  1007 ; *	2) REGISTERS R2 THROUGH FP UNCHANGED
                                     05F5  1008 ; *
                                     05F5  1009 ; ******************************************************
                                     05F5  1010 ;--
                                     05F5  1011 ;
                 0000017C'EF     D4  05F5  1012 	CLRL	PIDADR_RES	; MAKE SURE PRCNAM IS USED BY RESUME
                                     05FB  1013 ;
                                     05FB  1014 	NEXT_TEST_CASE	SFRES28
SATSSF05        - SATS SYSTEM SERVICE TESTS  (FAILING S.C.)      22-AUG-1978 03:42:37   VAX-11 MACRO X0.3-11               Page  40
1.0             SFRES28                                                                                                          (1)

                                     0607  1015 ;
                                     0607  1016 ;++
                                     0607  1017 ; ******************************************************
                                     0607  1018 ; *
                                     0607  1019 ; *  TEST CASE NAME:		SFRES28
                                     0607  1020 ; *
                                     0607  1021 ; *  SYSTEM SERVICE:		RESUME
                                     0607  1022 ; *
                                     0607  1023 ; *  ARGUMENT UNDER TEST: 	PRCNAM_RES28
                                     0607  1024 ; *
                                     0607  1025 ; *  INPUT CONDITIONS:
                                     0607  1026 ; *	INVALID PROCESS NAME (LENGTH 16)
                                     0607  1027 ; *
                                     0607  1028 ; *  EXPECTED RESULTS:
                                     0607  1029 ; *	1) SYSTEM STATUS CODE:	IVLOGNAM
                                     0607  1030 ; *	2) REGISTERS R2 THROUGH FP UNCHANGED
                                     0607  1031 ; *
                                     0607  1032 ; ******************************************************
                                     0607  1033 ;--
                                     0607  1034 ;
                 0000017C'EF     D4  0607  1035 	CLRL	PIDADR_RES	; MAKE SURE PRCNAM IS USED BY RESUME
                                     060D  1036 ;
                                     060D  1037 	NEXT_TEST_CASE	SFRES29
SATSSF05        - SATS SYSTEM SERVICE TESTS  (FAILING S.C.)      22-AUG-1978 03:42:37   VAX-11 MACRO X0.3-11               Page  41
1.0             SFRES29                                                                                                          (1)

                                     0619  1038 ;
                                     0619  1039 ;++
                                     0619  1040 ; ******************************************************
                                     0619  1041 ; *
                                     0619  1042 ; *  TEST CASE NAME:		SFRES29
                                     0619  1043 ; *
                                     0619  1044 ; *  SYSTEM SERVICE:		RESUME
                                     0619  1045 ; *
                                     0619  1046 ; *  ARGUMENT UNDER TEST: 	PRCNAM_RES29
                                     0619  1047 ; *
                                     0619  1048 ; *  INPUT CONDITIONS:
                                     0619  1049 ; *	RESUME ISSUED FOR EXISTING PROCESS WHICH IS NOT A
                                     0619  1050 ; *	  SUBPROCESS OF THIS PROCESS, AND THIS PROCESS HAS
                                     0619  1051 ; *	  NO GROUP OR WORLD PRIVILEGE.
                                     0619  1052 ; *
                                     0619  1053 ; *  EXPECTED RESULTS:
                                     0619  1054 ; *	1) SYSTEM STATUS CODE:	NOPRIV
                                     0619  1055 ; *	2) REGISTERS R2 THROUGH FP UNCHANGED
                                     0619  1056 ; *
                                     0619  1057 ; ******************************************************
                                     0619  1058 ;--
                                     0619  1059 ;
                                     0619  1060 	PRIV	REM,GROUP	; REMOVE GROUP PRIVILEGE
                                     0640  1061 	PRIV	REM,WORLD	; REMOVE WORLD PRIVILEGE
                 0000017C'EF     D4  0667  1062 	CLRL	PIDADR_RES	; MAKE SURE PRCNAM IS USED BY RESUME
                                     066D  1063 ;
                                     066D  1064 	TCEND
SATSSF05        - SATS SYSTEM SERVICE TESTS  (FAILING S.C.)      22-AUG-1978 03:42:37   VAX-11 MACRO X0.3-11               Page  42
1.0                                                                                                                              (1)

                                     066E  1065 	TC_GROUP	SWK,1,TS5
                                     0695  1066 ;
                                     0695  1067 	NEXT_TEST_CASE	SFSWK10
SATSSF05        - SATS SYSTEM SERVICE TESTS  (FAILING S.C.)      22-AUG-1978 03:42:37   VAX-11 MACRO X0.3-11               Page  43
1.0             SFSWK10                                                                                                          (1)

                                     0695  1068 ;
                                     0695  1069 ;++
                                     0695  1070 ; ******************************************************
                                     0695  1071 ; *
                                     0695  1072 ; *  TEST CASE NAME:		SFSWK10
                                     0695  1073 ; *
                                     0695  1074 ; *  SYSTEM SERVICE:		SCHDWK
                                     0695  1075 ; *
                                     0695  1076 ; *  ARGUMENT UNDER TEST: 	PIDADR_SWK10
                                     0695  1077 ; *
                                     0695  1078 ; *  INPUT CONDITIONS:
                                     0695  1079 ; *	PIDADR FIELD AT LOCATION 1
                                     0695  1080 ; *
                                     0695  1081 ; *  EXPECTED RESULTS:
                                     0695  1082 ; *	1) SYSTEM STATUS CODE:	ACCVIO
                                     0695  1083 ; *	2) REGISTERS R2 THROUGH FP UNCHANGED
                                     0695  1084 ; *
                                     0695  1085 ; ******************************************************
                                     0695  1086 ;--
                                     0695  1087 ;
                                     0695  1088 	PRIV	ADD,ALL		; GET BACK SOME PRIVS REMOVED BY PRIOR T.C.
                                     06BE  1089 ;
                                     06BE  1090 	NEXT_TEST_CASE	SFSWK11
SATSSF05        - SATS SYSTEM SERVICE TESTS  (FAILING S.C.)      22-AUG-1978 03:42:37   VAX-11 MACRO X0.3-11               Page  44
1.0             SFSWK11                                                                                                          (1)

                                     06CA  1091 ;
                                     06CA  1092 ;++
                                     06CA  1093 ; ******************************************************
                                     06CA  1094 ; *
                                     06CA  1095 ; *  TEST CASE NAME:		SFSWK11
                                     06CA  1096 ; *
                                     06CA  1097 ; *  SYSTEM SERVICE:		SCHDWK
                                     06CA  1098 ; *
                                     06CA  1099 ; *  ARGUMENT UNDER TEST: 	PIDADR_SWK11
                                     06CA  1100 ; *
                                     06CA  1101 ; *  INPUT CONDITIONS:
                                     06CA  1102 ; *	PIDADR FIELD IN NON-ACCESSIBLE PSECT
                                     06CA  1103 ; *
                                     06CA  1104 ; *  EXPECTED RESULTS:
                                     06CA  1105 ; *	1) SYSTEM STATUS CODE:	ACCVIO
                                     06CA  1106 ; *	2) REGISTERS R2 THROUGH FP UNCHANGED
                                     06CA  1107 ; *
                                     06CA  1108 ; ******************************************************
                                     06CA  1109 ;--
                                     06CA  1110 ;
                                     06CA  1111 ;
                                     06CA  1112 	NEXT_TEST_CASE	SFSWK12
SATSSF05        - SATS SYSTEM SERVICE TESTS  (FAILING S.C.)      22-AUG-1978 03:42:37   VAX-11 MACRO X0.3-11               Page  45
1.0             SFSWK12                                                                                                          (1)

                                     06D6  1113 ;
                                     06D6  1114 ;++
                                     06D6  1115 ; ******************************************************
                                     06D6  1116 ; *
                                     06D6  1117 ; *  TEST CASE NAME:		SFSWK12
                                     06D6  1118 ; *
                                     06D6  1119 ; *  SYSTEM SERVICE:		SCHDWK
                                     06D6  1120 ; *
                                     06D6  1121 ; *  ARGUMENT UNDER TEST: 	PIDADR_SWK12
                                     06D6  1122 ; *
                                     06D6  1123 ; *  INPUT CONDITIONS:
                                     06D6  1124 ; *	PIDADR FIELD BEGINS IN ACCESSIBLE PSECT, ENDS
                                     06D6  1125 ; *	  IN NON-ACCESSIBLE PSECT.
                                     06D6  1126 ; *
                                     06D6  1127 ; *  EXPECTED RESULTS:
                                     06D6  1128 ; *	1) SYSTEM STATUS CODE:	ACCVIO
                                     06D6  1129 ; *	2) REGISTERS R2 THROUGH FP UNCHANGED
                                     06D6  1130 ; *
                                     06D6  1131 ; ******************************************************
                                     06D6  1132 ;--
                                     06D6  1133 ;
                                     06D6  1134 ;
                                     06D6  1135 	NEXT_TEST_CASE	SFSWK13
SATSSF05        - SATS SYSTEM SERVICE TESTS  (FAILING S.C.)      22-AUG-1978 03:42:37   VAX-11 MACRO X0.3-11               Page  46
1.0             SFSWK13                                                                                                          (1)

                                     06E2  1136 ;
                                     06E2  1137 ;++
                                     06E2  1138 ; ******************************************************
                                     06E2  1139 ; *
                                     06E2  1140 ; *  TEST CASE NAME:		SFSWK13
                                     06E2  1141 ; *
                                     06E2  1142 ; *  SYSTEM SERVICE:		SCHDWK
                                     06E2  1143 ; *
                                     06E2  1144 ; *  ARGUMENT UNDER TEST: 	PIDADR_SWK13
                                     06E2  1145 ; *
                                     06E2  1146 ; *  INPUT CONDITIONS:
                                     06E2  1147 ; *	INVALID PROCESS ID
                                     06E2  1148 ; *
                                     06E2  1149 ; *  EXPECTED RESULTS:
                                     06E2  1150 ; *	1) SYSTEM STATUS CODE:	NONEXPR
                                     06E2  1151 ; *	2) REGISTERS R2 THROUGH FP UNCHANGED
                                     06E2  1152 ; *
                                     06E2  1153 ; ******************************************************
                                     06E2  1154 ;--
                                     06E2  1155 ;
   0000018C'EF   00000000'EF     D0  06E2  1156 	MOVL	TPID,PIDADR_SWK13 ; GET A VALID PID
   0000018C'EF         FF 8F     99  06ED  1157 	CVTBW	#-1,PIDADR_SWK13  ; MAKE IT INVALID
                                     06F5  1158 ;
                                     06F5  1159 	NEXT_TEST_CASE	SFSWK14
SATSSF05        - SATS SYSTEM SERVICE TESTS  (FAILING S.C.)      22-AUG-1978 03:42:37   VAX-11 MACRO X0.3-11               Page  47
1.0             SFSWK14                                                                                                          (1)

                                     0701  1160 ;
                                     0701  1161 ;++
                                     0701  1162 ; ******************************************************
                                     0701  1163 ; *
                                     0701  1164 ; *  TEST CASE NAME:		SFSWK14
                                     0701  1165 ; *
                                     0701  1166 ; *  SYSTEM SERVICE:		SCHDWK
                                     0701  1167 ; *
                                     0701  1168 ; *  ARGUMENT UNDER TEST: 	PIDADR_SWK14
                                     0701  1169 ; *
                                     0701  1170 ; *  INPUT CONDITIONS:
                                     0701  1171 ; *	VALID, NON-EXISTENT PROCESS ID
                                     0701  1172 ; *
                                     0701  1173 ; *  EXPECTED RESULTS:
                                     0701  1174 ; *	1) SYSTEM STATUS CODE:	NONEXPR
                                     0701  1175 ; *	2) REGISTERS R2 THROUGH FP UNCHANGED
                                     0701  1176 ; *
                                     0701  1177 ; ******************************************************
                                     0701  1178 ;--
                                     0701  1179 ;
   00000190'EF   00000000'EF     D0  0701  1180 	MOVL	TPID,PIDADR_SWK14 ; GET AN EXISTENT PID
   00000192'EF       1770 8F     B0  070C  1181 	MOVW	#6000,PIDADR_SWK14+2 ; MAKE IT NON-EXISTENT
                                     0715  1182 ;
                                     0715  1183 	NEXT_TEST_CASE	SFSWK20
SATSSF05        - SATS SYSTEM SERVICE TESTS  (FAILING S.C.)      22-AUG-1978 03:42:37   VAX-11 MACRO X0.3-11               Page  48
1.0             SFSWK20                                                                                                          (1)

                                     0721  1184 ;
                                     0721  1185 ;++
                                     0721  1186 ; ******************************************************
                                     0721  1187 ; *
                                     0721  1188 ; *  TEST CASE NAME:		SFSWK20
                                     0721  1189 ; *
                                     0721  1190 ; *  SYSTEM SERVICE:		SCHDWK
                                     0721  1191 ; *
                                     0721  1192 ; *  ARGUMENT UNDER TEST: 	PRCNAM_SWK20
                                     0721  1193 ; *
                                     0721  1194 ; *  INPUT CONDITIONS:
                                     0721  1195 ; *	PRCNAM STRING DESCRIPTOR LENGTH FIELD IN
                                     0721  1196 ; *	  NON-ACCESSIBLE PSECT.
                                     0721  1197 ; *
                                     0721  1198 ; *  EXPECTED RESULTS:
                                     0721  1199 ; *	1) SYSTEM STATUS CODE:	ACCVIO
                                     0721  1200 ; *	2) REGISTERS R2 THROUGH FP UNCHANGED
                                     0721  1201 ; *
                                     0721  1202 ; ******************************************************
                                     0721  1203 ;--
                                     0721  1204 ;
                 00000188'EF     D4  0721  1205 	CLRL	PIDADR_SWK	; MAKE SURE PRCNAM IS USED BY SCHDWK
                                     0727  1206 ;
                                     0727  1207 	NEXT_TEST_CASE	SFSWK21
SATSSF05        - SATS SYSTEM SERVICE TESTS  (FAILING S.C.)      22-AUG-1978 03:42:37   VAX-11 MACRO X0.3-11               Page  49
1.0             SFSWK21                                                                                                          (1)

                                     0733  1208 ;
                                     0733  1209 ;++
                                     0733  1210 ; ******************************************************
                                     0733  1211 ; *
                                     0733  1212 ; *  TEST CASE NAME:		SFSWK21
                                     0733  1213 ; *
                                     0733  1214 ; *  SYSTEM SERVICE:		SCHDWK
                                     0733  1215 ; *
                                     0733  1216 ; *  ARGUMENT UNDER TEST: 	PRCNAM_SWK21
                                     0733  1217 ; *
                                     0733  1218 ; *  INPUT CONDITIONS:
                                     0733  1219 ; *	PRCNAM STRING DESCRIPTOR LENGTH FIELD BEGINS IN
                                     0733  1220 ; *	  ACCESSIBLE PSECT, ENDS IN NON-ACCESSIBLE PSECT.
                                     0733  1221 ; *
                                     0733  1222 ; *  EXPECTED RESULTS:
                                     0733  1223 ; *	1) SYSTEM STATUS CODE:	ACCVIO
                                     0733  1224 ; *	2) REGISTERS R2 THROUGH FP UNCHANGED
                                     0733  1225 ; *
                                     0733  1226 ; ******************************************************
                                     0733  1227 ;--
                                     0733  1228 ;
                 00000188'EF     D4  0733  1229 	CLRL	PIDADR_SWK	; MAKE SURE PRCNAM IS USED BY SCHDWK
                                     0739  1230 ;
                                     0739  1231 	NEXT_TEST_CASE	SFSWK22
SATSSF05        - SATS SYSTEM SERVICE TESTS  (FAILING S.C.)      22-AUG-1978 03:42:37   VAX-11 MACRO X0.3-11               Page  50
1.0             SFSWK22                                                                                                          (1)

                                     0745  1232 ;
                                     0745  1233 ;++
                                     0745  1234 ; ******************************************************
                                     0745  1235 ; *
                                     0745  1236 ; *  TEST CASE NAME:		SFSWK22
                                     0745  1237 ; *
                                     0745  1238 ; *  SYSTEM SERVICE:		SCHDWK
                                     0745  1239 ; *
                                     0745  1240 ; *  ARGUMENT UNDER TEST: 	PRCNAM_SWK22
                                     0745  1241 ; *
                                     0745  1242 ; *  INPUT CONDITIONS:
                                     0745  1243 ; *	PRCNAM STRING DESCRIPTOR ADDRESS FIELD IN
                                     0745  1244 ; *	  NON-ACCESSIBLE PSECT.
                                     0745  1245 ; *
                                     0745  1246 ; *  EXPECTED RESULTS:
                                     0745  1247 ; *	1) SYSTEM STATUS CODE:	ACCVIO
                                     0745  1248 ; *	2) REGISTERS R2 THROUGH FP UNCHANGED
                                     0745  1249 ; *
                                     0745  1250 ; ******************************************************
                                     0745  1251 ;--
                                     0745  1252 ;
                 00000188'EF     D4  0745  1253 	CLRL	PIDADR_SWK	; MAKE SURE PRCNAM IS USED BY SCHDWK
   000001FC'EF            03     9A  074B  1254 	MOVZBL	#3,PRCNAM_SWK22		; ESTABLISH PRCNAM STRING LENGTH
                                     0752  1255 ;
                                     0752  1256 	NEXT_TEST_CASE	SFSWK23
SATSSF05        - SATS SYSTEM SERVICE TESTS  (FAILING S.C.)      22-AUG-1978 03:42:37   VAX-11 MACRO X0.3-11               Page  51
1.0             SFSWK23                                                                                                          (1)

                                     075E  1257 ;
                                     075E  1258 ;++
                                     075E  1259 ; ******************************************************
                                     075E  1260 ; *
                                     075E  1261 ; *  TEST CASE NAME:		SFSWK23
                                     075E  1262 ; *
                                     075E  1263 ; *  SYSTEM SERVICE:		SCHDWK
                                     075E  1264 ; *
                                     075E  1265 ; *  ARGUMENT UNDER TEST: 	PRCNAM_SWK23
                                     075E  1266 ; *
                                     075E  1267 ; *  INPUT CONDITIONS:
                                     075E  1268 ; *	PRCNAM STRING DESCRIPTOR ADDRESS FIELD BEGINS IN
                                     075E  1269 ; *	  ACCESSIBLE PSECT, ENDS IN NON-ACCESSIBLE PSECT.
                                     075E  1270 ; *
                                     075E  1271 ; *  EXPECTED RESULTS:
                                     075E  1272 ; *	1) SYSTEM STATUS CODE:	ACCVIO
                                     075E  1273 ; *	2) REGISTERS R2 THROUGH FP UNCHANGED
                                     075E  1274 ; *
                                     075E  1275 ; ******************************************************
                                     075E  1276 ;--
                                     075E  1277 ;
                 00000188'EF     D4  075E  1278 	CLRL	PIDADR_SWK	; MAKE SURE PRCNAM IS USED BY SCHDWK
   000001FB'EF            03     9A  0764  1279 	MOVZBL	#3,PRCNAM_SWK23		; ESTABLISH PRCNAM STRING LENGTH
                                     076B  1280 ;
                                     076B  1281 	NEXT_TEST_CASE	SFSWK24
SATSSF05        - SATS SYSTEM SERVICE TESTS  (FAILING S.C.)      22-AUG-1978 03:42:37   VAX-11 MACRO X0.3-11               Page  52
1.0             SFSWK24                                                                                                          (1)

                                     0777  1282 ;
                                     0777  1283 ;++
                                     0777  1284 ; ******************************************************
                                     0777  1285 ; *
                                     0777  1286 ; *  TEST CASE NAME:		SFSWK24
                                     0777  1287 ; *
                                     0777  1288 ; *  SYSTEM SERVICE:		SCHDWK
                                     0777  1289 ; *
                                     0777  1290 ; *  ARGUMENT UNDER TEST: 	PRCNAM_SWK24
                                     0777  1291 ; *
                                     0777  1292 ; *  INPUT CONDITIONS:
                                     0777  1293 ; *	PRCNAM STRING IN NON-ACCESSIBLE PSECT
                                     0777  1294 ; *
                                     0777  1295 ; *  EXPECTED RESULTS:
                                     0777  1296 ; *	1) SYSTEM STATUS CODE:	ACCVIO
                                     0777  1297 ; *	2) REGISTERS R2 THROUGH FP UNCHANGED
                                     0777  1298 ; *
                                     0777  1299 ; ******************************************************
                                     0777  1300 ;--
                                     0777  1301 ;
                 00000188'EF     D4  0777  1302 	CLRL	PIDADR_SWK	; MAKE SURE PRCNAM IS USED BY SCHDWK
                                     077D  1303 ;
                                     077D  1304 	NEXT_TEST_CASE	SFSWK30
SATSSF05        - SATS SYSTEM SERVICE TESTS  (FAILING S.C.)      22-AUG-1978 03:42:37   VAX-11 MACRO X0.3-11               Page  53
1.0             SFSWK30                                                                                                          (1)

                                     0789  1305 ;
                                     0789  1306 ;++
                                     0789  1307 ; ******************************************************
                                     0789  1308 ; *
                                     0789  1309 ; *  TEST CASE NAME:		SFSWK30
                                     0789  1310 ; *
                                     0789  1311 ; *  SYSTEM SERVICE:		SCHDWK
                                     0789  1312 ; *
                                     0789  1313 ; *  ARGUMENT UNDER TEST: 	DAYTIM_SWK30
                                     0789  1314 ; *
                                     0789  1315 ; *  INPUT CONDITIONS:
                                     0789  1316 ; *	EXPIRATION TIME FIELD AT LOCATION 0
                                     0789  1317 ; *
                                     0789  1318 ; *  EXPECTED RESULTS:
                                     0789  1319 ; *	1) SYSTEM STATUS CODE:	ACCVIO
                                     0789  1320 ; *	2) REGISTERS R2 THROUGH FP UNCHANGED
                                     0789  1321 ; *
                                     0789  1322 ; ******************************************************
                                     0789  1323 ;--
                                     0789  1324 ;
                 00000188'EF     D4  0789  1325 	CLRL	PIDADR_SWK	; LET SCHDWK USE PRCNAM
                                     078F  1326 ;
                                     078F  1327 	NEXT_TEST_CASE	SFSWK31
SATSSF05        - SATS SYSTEM SERVICE TESTS  (FAILING S.C.)      22-AUG-1978 03:42:37   VAX-11 MACRO X0.3-11               Page  54
1.0             SFSWK31                                                                                                          (1)

                                     079B  1328 ;
                                     079B  1329 ;++
                                     079B  1330 ; ******************************************************
                                     079B  1331 ; *
                                     079B  1332 ; *  TEST CASE NAME:		SFSWK31
                                     079B  1333 ; *
                                     079B  1334 ; *  SYSTEM SERVICE:		SCHDWK
                                     079B  1335 ; *
                                     079B  1336 ; *  ARGUMENT UNDER TEST: 	DAYTIM_SWK31
                                     079B  1337 ; *
                                     079B  1338 ; *  INPUT CONDITIONS:
                                     079B  1339 ; *	EXPIRATION TIME FIELD IN NON-ACCESSIBLE PSECT
                                     079B  1340 ; *
                                     079B  1341 ; *  EXPECTED RESULTS:
                                     079B  1342 ; *	1) SYSTEM STATUS CODE:	ACCVIO
                                     079B  1343 ; *	2) REGISTERS R2 THROUGH FP UNCHANGED
                                     079B  1344 ; *
                                     079B  1345 ; ******************************************************
                                     079B  1346 ;--
                                     079B  1347 ;
                 00000188'EF     D4  079B  1348 	CLRL	PIDADR_SWK	; LET SCHDWK USE PRCNAM
                                     07A1  1349 ;
                                     07A1  1350 	NEXT_TEST_CASE	SFSWK32
SATSSF05        - SATS SYSTEM SERVICE TESTS  (FAILING S.C.)      22-AUG-1978 03:42:37   VAX-11 MACRO X0.3-11               Page  55
1.0             SFSWK32                                                                                                          (1)

                                     07AD  1351 ;
                                     07AD  1352 ;++
                                     07AD  1353 ; ******************************************************
                                     07AD  1354 ; *
                                     07AD  1355 ; *  TEST CASE NAME:		SFSWK32
                                     07AD  1356 ; *
                                     07AD  1357 ; *  SYSTEM SERVICE:		SCHDWK
                                     07AD  1358 ; *
                                     07AD  1359 ; *  ARGUMENT UNDER TEST: 	DAYTIM_SWK32
                                     07AD  1360 ; *
                                     07AD  1361 ; *  INPUT CONDITIONS:
                                     07AD  1362 ; *	EXPIRATION TIME FIELD BEGINS IN ACCESSIBLE PSECT,
                                     07AD  1363 ; *	  ENDS IN NON-ACCESSIBLE PSECT.
                                     07AD  1364 ; *
                                     07AD  1365 ; *  EXPECTED RESULTS:
                                     07AD  1366 ; *	1) SYSTEM STATUS CODE:	ACCVIO
                                     07AD  1367 ; *	2) REGISTERS R2 THROUGH FP UNCHANGED
                                     07AD  1368 ; *
                                     07AD  1369 ; ******************************************************
                                     07AD  1370 ;--
                                     07AD  1371 ;
                 00000188'EF     D4  07AD  1372 	CLRL	PIDADR_SWK	; LET SCHDWK USE PRCNAM
                                     07B3  1373 ;
                                     07B3  1374 	NEXT_TEST_CASE	SFSWK40
SATSSF05        - SATS SYSTEM SERVICE TESTS  (FAILING S.C.)      22-AUG-1978 03:42:37   VAX-11 MACRO X0.3-11               Page  56
1.0             SFSWK40                                                                                                          (1)

                                     07BF  1375 ;
                                     07BF  1376 ;++
                                     07BF  1377 ; ******************************************************
                                     07BF  1378 ; *
                                     07BF  1379 ; *  TEST CASE NAME:		SFSWK40
                                     07BF  1380 ; *
                                     07BF  1381 ; *  SYSTEM SERVICE:		SCHDWK
                                     07BF  1382 ; *
                                     07BF  1383 ; *  ARGUMENT UNDER TEST: 	REPTIM_SWK40
                                     07BF  1384 ; *
                                     07BF  1385 ; *  INPUT CONDITIONS:
                                     07BF  1386 ; *	REPEAT TIME FIELD AT LOCATION 1
                                     07BF  1387 ; *
                                     07BF  1388 ; *  EXPECTED RESULTS:
                                     07BF  1389 ; *	1) SYSTEM STATUS CODE:	ACCVIO
                                     07BF  1390 ; *	2) REGISTERS R2 THROUGH FP UNCHANGED
                                     07BF  1391 ; *
                                     07BF  1392 ; ******************************************************
                                     07BF  1393 ;--
                                     07BF  1394 ;
                 00000188'EF     D4  07BF  1395 	CLRL	PIDADR_SWK	; LET SCHDWK USE PRCNAM
                                     07C5  1396 ;
                                     07C5  1397 	NEXT_TEST_CASE	SFSWK41
SATSSF05        - SATS SYSTEM SERVICE TESTS  (FAILING S.C.)      22-AUG-1978 03:42:37   VAX-11 MACRO X0.3-11               Page  57
1.0             SFSWK41                                                                                                          (1)

                                     07D1  1398 ;
                                     07D1  1399 ;++
                                     07D1  1400 ; ******************************************************
                                     07D1  1401 ; *
                                     07D1  1402 ; *  TEST CASE NAME:		SFSWK41
                                     07D1  1403 ; *
                                     07D1  1404 ; *  SYSTEM SERVICE:		SCHDWK
                                     07D1  1405 ; *
                                     07D1  1406 ; *  ARGUMENT UNDER TEST: 	REPTIM_SWK41
                                     07D1  1407 ; *
                                     07D1  1408 ; *  INPUT CONDITIONS:
                                     07D1  1409 ; *	REPEAT TIME FIELD IN NON-ACCESSIBLE PSECT
                                     07D1  1410 ; *
                                     07D1  1411 ; *  EXPECTED RESULTS:
                                     07D1  1412 ; *	1) SYSTEM STATUS CODE:	ACCVIO
                                     07D1  1413 ; *	2) REGISTERS R2 THROUGH FP UNCHANGED
                                     07D1  1414 ; *
                                     07D1  1415 ; ******************************************************
                                     07D1  1416 ;--
                                     07D1  1417 ;
                 00000188'EF     D4  07D1  1418 	CLRL	PIDADR_SWK	; LET SCHDWK USE PRCNAM
                                     07D7  1419 ;
                                     07D7  1420 	NEXT_TEST_CASE	SFSWK42
SATSSF05        - SATS SYSTEM SERVICE TESTS  (FAILING S.C.)      22-AUG-1978 03:42:37   VAX-11 MACRO X0.3-11               Page  58
1.0             SFSWK42                                                                                                          (1)

                                     07E3  1421 ;
                                     07E3  1422 ;++
                                     07E3  1423 ; ******************************************************
                                     07E3  1424 ; *
                                     07E3  1425 ; *  TEST CASE NAME:		SFSWK42
                                     07E3  1426 ; *
                                     07E3  1427 ; *  SYSTEM SERVICE:		SCHDWK
                                     07E3  1428 ; *
                                     07E3  1429 ; *  ARGUMENT UNDER TEST: 	REPTIM_SWK42
                                     07E3  1430 ; *
                                     07E3  1431 ; *  INPUT CONDITIONS:
                                     07E3  1432 ; *	REPEAT TIME FIELD BEGINS IN ACCESSIBLE PSECT,
                                     07E3  1433 ; *	  ENDS IN NON-ACCESSIBLE PSECT.
                                     07E3  1434 ; *
                                     07E3  1435 ; *  EXPECTED RESULTS:
                                     07E3  1436 ; *	1) SYSTEM STATUS CODE:	ACCVIO
                                     07E3  1437 ; *	2) REGISTERS R2 THROUGH FP UNCHANGED
                                     07E3  1438 ; *
                                     07E3  1439 ; ******************************************************
                                     07E3  1440 ;--
                                     07E3  1441 ;
                 00000188'EF     D4  07E3  1442 	CLRL	PIDADR_SWK	; LET SCHDWK USE PRCNAM
                                     07E9  1443 ;
                                     07E9  1444 	NEXT_TEST_CASE	SFSWK43
SATSSF05        - SATS SYSTEM SERVICE TESTS  (FAILING S.C.)      22-AUG-1978 03:42:37   VAX-11 MACRO X0.3-11               Page  59
1.0             SFSWK43                                                                                                          (1)

                                     07F5  1445 ;
                                     07F5  1446 ;++
                                     07F5  1447 ; ******************************************************
                                     07F5  1448 ; *
                                     07F5  1449 ; *  TEST CASE NAME:		SFSWK43
                                     07F5  1450 ; *
                                     07F5  1451 ; *  SYSTEM SERVICE:		SCHDWK
                                     07F5  1452 ; *
                                     07F5  1453 ; *  ARGUMENT UNDER TEST: 	REPTIM_SWK43
                                     07F5  1454 ; *
                                     07F5  1455 ; *  INPUT CONDITIONS:
                                     07F5  1456 ; *	INVALID (POSITIVE) REPEAT TIME VALUE (= 1)
                                     07F5  1457 ; *
                                     07F5  1458 ; *  EXPECTED RESULTS:
                                     07F5  1459 ; *	1) SYSTEM STATUS CODE:	IVTIME
                                     07F5  1460 ; *	2) REGISTERS R2 THROUGH FP UNCHANGED
                                     07F5  1461 ; *
                                     07F5  1462 ; ******************************************************
                                     07F5  1463 ;--
                                     07F5  1464 ;
                 00000188'EF     D4  07F5  1465 	CLRL	PIDADR_SWK	; LET SCHDWK USE PRCNAM
                                     07FB  1466 ;
                                     07FB  1467 	NEXT_TEST_CASE	SFSWK44
SATSSF05        - SATS SYSTEM SERVICE TESTS  (FAILING S.C.)      22-AUG-1978 03:42:37   VAX-11 MACRO X0.3-11               Page  60
1.0             SFSWK44                                                                                                          (1)

                                     0807  1468 ;
                                     0807  1469 ;++
                                     0807  1470 ; ******************************************************
                                     0807  1471 ; *
                                     0807  1472 ; *  TEST CASE NAME:		SFSWK44
                                     0807  1473 ; *
                                     0807  1474 ; *  SYSTEM SERVICE:		SCHDWK
                                     0807  1475 ; *
                                     0807  1476 ; *  ARGUMENT UNDER TEST: 	REPTIM_SWK44
                                     0807  1477 ; *
                                     0807  1478 ; *  INPUT CONDITIONS:
                                     0807  1479 ; *	INVALID (LARGE POSITIVE) REPEAT TIME VALUE
                                     0807  1480 ; *
                                     0807  1481 ; *  EXPECTED RESULTS:
                                     0807  1482 ; *	1) SYSTEM STATUS CODE:	IVTIME
                                     0807  1483 ; *	2) REGISTERS R2 THROUGH FP UNCHANGED
                                     0807  1484 ; *
                                     0807  1485 ; ******************************************************
                                     0807  1486 ;--
                                     0807  1487 ;
                 00000188'EF     D4  0807  1488 	CLRL	PIDADR_SWK	; LET SCHDWK USE PRCNAM
                                     080D  1489 ;
                                     080D  1490 	TCEND
SATSSF05        - SATS SYSTEM SERVICE TESTS  (FAILING S.C.)      22-AUG-1978 03:42:37   VAX-11 MACRO X0.3-11               Page  61
1.0                                                                                                                              (1)

                                     080E  1491 	TC_GROUP	SWK,2,TS6
                                     0835  1492 ;
                                     0835  1493 	NEXT_TEST_CASE	SFSWK25
SATSSF05        - SATS SYSTEM SERVICE TESTS  (FAILING S.C.)      22-AUG-1978 03:42:37   VAX-11 MACRO X0.3-11               Page  62
1.0             SFSWK25                                                                                                          (1)

                                     0835  1494 ;
                                     0835  1495 ;++
                                     0835  1496 ; ******************************************************
                                     0835  1497 ; *
                                     0835  1498 ; *  TEST CASE NAME:		SFSWK25
                                     0835  1499 ; *
                                     0835  1500 ; *  SYSTEM SERVICE:		SCHDWK
                                     0835  1501 ; *
                                     0835  1502 ; *  ARGUMENT UNDER TEST: 	PRCNAM_SWK25
                                     0835  1503 ; *
                                     0835  1504 ; *  INPUT CONDITIONS:
                                     0835  1505 ; *	PRCNAM STRING BEGINS IN ACCESSIBLE PSECT,
                                     0835  1506 ; *	  ENDS IN NON-ACCESSIBLE PSECT.
                                     0835  1507 ; *
                                     0835  1508 ; *  EXPECTED RESULTS:
                                     0835  1509 ; *	1) SYSTEM STATUS CODE:	ACCVIO
                                     0835  1510 ; *	2) REGISTERS R2 THROUGH FP UNCHANGED
                                     0835  1511 ; *
                                     0835  1512 ; ******************************************************
                                     0835  1513 ;--
                                     0835  1514 ;
                 00000188'EF     D4  0835  1515 	CLRL	PIDADR_SWK	; MAKE SURE PRCNAM IS USED BY SCHDWK
                                     083B  1516 ;
                                     083B  1517 	NEXT_TEST_CASE	SFSWK26
SATSSF05        - SATS SYSTEM SERVICE TESTS  (FAILING S.C.)      22-AUG-1978 03:42:37   VAX-11 MACRO X0.3-11               Page  63
1.0             SFSWK26                                                                                                          (1)

                                     0847  1518 ;
                                     0847  1519 ;++
                                     0847  1520 ; ******************************************************
                                     0847  1521 ; *
                                     0847  1522 ; *  TEST CASE NAME:		SFSWK26
                                     0847  1523 ; *
                                     0847  1524 ; *  SYSTEM SERVICE:		SCHDWK
                                     0847  1525 ; *
                                     0847  1526 ; *  ARGUMENT UNDER TEST: 	PRCNAM_SWK26
                                     0847  1527 ; *
                                     0847  1528 ; *  INPUT CONDITIONS:
                                     0847  1529 ; *	NON-EXISTENT PROCESS NAME
                                     0847  1530 ; *
                                     0847  1531 ; *  EXPECTED RESULTS:
                                     0847  1532 ; *	1) SYSTEM STATUS CODE:	NONEXPR
                                     0847  1533 ; *	2) REGISTERS R2 THROUGH FP UNCHANGED
                                     0847  1534 ; *
                                     0847  1535 ; ******************************************************
                                     0847  1536 ;--
                                     0847  1537 ;
                 00000188'EF     D4  0847  1538 	CLRL	PIDADR_SWK	; MAKE SURE PRCNAM IS USED BY SCHDWK
                                     084D  1539 ;
                                     084D  1540 	NEXT_TEST_CASE	SFSWK27
SATSSF05        - SATS SYSTEM SERVICE TESTS  (FAILING S.C.)      22-AUG-1978 03:42:37   VAX-11 MACRO X0.3-11               Page  64
1.0             SFSWK27                                                                                                          (1)

                                     0859  1541 ;
                                     0859  1542 ;++
                                     0859  1543 ; ******************************************************
                                     0859  1544 ; *
                                     0859  1545 ; *  TEST CASE NAME:		SFSWK27
                                     0859  1546 ; *
                                     0859  1547 ; *  SYSTEM SERVICE:		SCHDWK
                                     0859  1548 ; *
                                     0859  1549 ; *  ARGUMENT UNDER TEST: 	PRCNAM_SWK27
                                     0859  1550 ; *
                                     0859  1551 ; *  INPUT CONDITIONS:
                                     0859  1552 ; *	INVALID PROCESS NAME (LENGTH 0)
                                     0859  1553 ; *
                                     0859  1554 ; *  EXPECTED RESULTS:
                                     0859  1555 ; *	1) SYSTEM STATUS CODE:	IVLOGNAM
                                     0859  1556 ; *	2) REGISTERS R2 THROUGH FP UNCHANGED
                                     0859  1557 ; *
                                     0859  1558 ; ******************************************************
                                     0859  1559 ;--
                                     0859  1560 ;
                 00000188'EF     D4  0859  1561 	CLRL	PIDADR_SWK	; MAKE SURE PRCNAM IS USED BY SCHDWK
                                     085F  1562 ;
                                     085F  1563 	NEXT_TEST_CASE	SFSWK28
SATSSF05        - SATS SYSTEM SERVICE TESTS  (FAILING S.C.)      22-AUG-1978 03:42:37   VAX-11 MACRO X0.3-11               Page  65
1.0             SFSWK28                                                                                                          (1)

                                     086B  1564 ;
                                     086B  1565 ;++
                                     086B  1566 ; ******************************************************
                                     086B  1567 ; *
                                     086B  1568 ; *  TEST CASE NAME:		SFSWK28
                                     086B  1569 ; *
                                     086B  1570 ; *  SYSTEM SERVICE:		SCHDWK
                                     086B  1571 ; *
                                     086B  1572 ; *  ARGUMENT UNDER TEST: 	PRCNAM_SWK28
                                     086B  1573 ; *
                                     086B  1574 ; *  INPUT CONDITIONS:
                                     086B  1575 ; *	INVALID PROCESS NAME (LENGTH 16)
                                     086B  1576 ; *
                                     086B  1577 ; *  EXPECTED RESULTS:
                                     086B  1578 ; *	1) SYSTEM STATUS CODE:	IVLOGNAM
                                     086B  1579 ; *	2) REGISTERS R2 THROUGH FP UNCHANGED
                                     086B  1580 ; *
                                     086B  1581 ; ******************************************************
                                     086B  1582 ;--
                                     086B  1583 ;
                 00000188'EF     D4  086B  1584 	CLRL	PIDADR_SWK	; MAKE SURE PRCNAM IS USED BY SCHDWK
                                     0871  1585 ;
                                     0871  1586 	NEXT_TEST_CASE	SFSWK29
SATSSF05        - SATS SYSTEM SERVICE TESTS  (FAILING S.C.)      22-AUG-1978 03:42:37   VAX-11 MACRO X0.3-11               Page  66
1.0             SFSWK29                                                                                                          (1)

                                     087D  1587 ;
                                     087D  1588 ;++
                                     087D  1589 ; ******************************************************
                                     087D  1590 ; *
                                     087D  1591 ; *  TEST CASE NAME:		SFSWK29
                                     087D  1592 ; *
                                     087D  1593 ; *  SYSTEM SERVICE:		SCHDWK
                                     087D  1594 ; *
                                     087D  1595 ; *  ARGUMENT UNDER TEST: 	PRCNAM_SWK29
                                     087D  1596 ; *
                                     087D  1597 ; *  INPUT CONDITIONS:
                                     087D  1598 ; *	SCHDWK ISSUED FOR EXISTING PROCESS WHICH IS NOT A
                                     087D  1599 ; *	  SUBPROCESS OF THIS PROCESS, AND THIS PROCESS HAS
                                     087D  1600 ; *	  NO GROUP OR WORLD PRIVILEGE.
                                     087D  1601 ; *
                                     087D  1602 ; *  EXPECTED RESULTS:
                                     087D  1603 ; *	1) SYSTEM STATUS CODE:	NOPRIV
                                     087D  1604 ; *	2) REGISTERS R2 THROUGH FP UNCHANGED
                                     087D  1605 ; *
                                     087D  1606 ; ******************************************************
                                     087D  1607 ;--
                                     087D  1608 ;
                                     087D  1609 	PRIV	REM,GROUP	; REMOVE GROUP PRIVILEGE
                                     08A4  1610 	PRIV	REM,WORLD	; REMOVE WORLD PRIVILEGE
                 00000188'EF     D4  08CB  1611 	CLRL	PIDADR_SWK	; MAKE SURE PRCNAM IS USED BY SCHDWK
                                     08D1  1612 ;
                                     08D1  1613 	TCEND
SATSSF05        - SATS SYSTEM SERVICE TESTS  (FAILING S.C.)      22-AUG-1978 03:42:37   VAX-11 MACRO X0.3-11               Page  67
1.0                                                                                                                              (1)

                                     08D2  1614 TS1:
                                     08D2  1615 	TESTSERV	SUSPND,ERR,SATS,				-
                                     08D2  1616                                           				-
                                     08D2  1617 	   <1,PIDADR_SUS,						-
                                     08D2  1618 	        	PIDADR_SUS10,ACCVIO,	-  ; SFSUS10
                                     08D2  1619 	        	PIDADR_SUS11,ACCVIO,	-  ; SFSUS11
                                     08D2  1620 	        	PIDADR_SUS12,ACCVIO,	-  ; SFSUS12
                                     08D2  1621 	        	PIDADR_SUS13,NONEXPR,	-  ; SFSUS13
                                     08D2  1622 	        	PIDADR_SUS14,NONEXPR,	-  ; SFSUS14
                                     08D2  1623                                                   >,			-
                                     08D2  1624                                           				-
                                     08D2  1625 	   <1,PRCNAM_SUS,						-
                                     08D2  1626 	        	PRCNAM_SUS20,ACCVIO,	-  ; SFSUS20
                                     08D2  1627 	        	PRCNAM_SUS21,ACCVIO,	-  ; SFSUS21
                                     08D2  1628 	        	PRCNAM_SUS22,ACCVIO,	-  ; SFSUS22
                                     08D2  1629 	        	PRCNAM_SUS23,ACCVIO,	-  ; SFSUS23
                                     08D2  1630 	        	PRCNAM_SUS24,ACCVIO,	-  ; SFSUS24
                                     08D2  1631                                                   >,			-
                                     08D2  1632
                                     0A66  1633 	TS_CLEANUP		; CLEAN UP & RETURN TO TEST_SERV_EXEC
SATSSF05        - SATS SYSTEM SERVICE TESTS  (FAILING S.C.)      22-AUG-1978 03:42:37   VAX-11 MACRO X0.3-11               Page  68
1.0                                                                                                                              (1)

                                     0A86  1634 TS2:
                                     0A86  1635 	TESTSERV	SUSPND,ERR,SATS,				-
                                     0A86  1636                                           				-
                                     0A86  1637 	   <1,PIDADR_SUS,						-
                                     0A86  1638                                                   >,			-
                                     0A86  1639                                           				-
                                     0A86  1640 	   <1,PRCNAM_SUS,						-
                                     0A86  1641 	        	PRCNAM_SUS25,ACCVIO,	-  ; SFSUS25
                                     0A86  1642 	        	PRCNAM_SUS26,NONEXPR,	-  ; SFSUS26
                                     0A86  1643 	        	PRCNAM_SUS27,IVLOGNAM,	-  ; SFSUS27
                                     0A86  1644 	        	PRCNAM_SUS28,IVLOGNAM,	-  ; SFSUS28
                                     0A86  1645 	        	PRCNAM_SUS29,NOPRIV,	-  ; SFSUS29
                                     0A86  1646                                                   >,			-
                                     0A86  1647
                                     0BF1  1648 	TS_CLEANUP		; CLEAN UP & RETURN TO TEST_SERV_EXEC
SATSSF05        - SATS SYSTEM SERVICE TESTS  (FAILING S.C.)      22-AUG-1978 03:42:37   VAX-11 MACRO X0.3-11               Page  69
1.0                                                                                                                              (1)

                                     0C11  1649 TS3:
                                     0C11  1650 	TESTSERV	RESUME,ERR,SATS,				-
                                     0C11  1651                                           				-
                                     0C11  1652 	   <1,PIDADR_RES,						-
                                     0C11  1653 	        	PIDADR_RES10,ACCVIO,	-  ; SFRES10
                                     0C11  1654 	        	PIDADR_RES11,ACCVIO,	-  ; SFRES11
                                     0C11  1655 	        	PIDADR_RES12,ACCVIO,	-  ; SFRES12
                                     0C11  1656 	        	PIDADR_RES13,NONEXPR,	-  ; SFRES13
                                     0C11  1657 	        	PIDADR_RES14,NONEXPR,	-  ; SFRES14
                                     0C11  1658                                                   >,			-
                                     0C11  1659                                           				-
                                     0C11  1660 	   <1,PRCNAM_RES,						-
                                     0C11  1661 	        	PRCNAM_RES20,ACCVIO,	-  ; SFRES20
                                     0C11  1662 	        	PRCNAM_RES21,ACCVIO,	-  ; SFRES21
                                     0C11  1663 	        	PRCNAM_RES22,ACCVIO,	-  ; SFRES22
                                     0C11  1664 	        	PRCNAM_RES23,ACCVIO,	-  ; SFRES23
                                     0C11  1665 	        	PRCNAM_RES24,ACCVIO,	-  ; SFRES24
                                     0C11  1666                                                   >,			-
                                     0C11  1667
                                     0DA5  1668 	TS_CLEANUP		; CLEAN UP & RETURN TO TEST_SERV_EXEC
SATSSF05        - SATS SYSTEM SERVICE TESTS  (FAILING S.C.)      22-AUG-1978 03:42:37   VAX-11 MACRO X0.3-11               Page  70
1.0                                                                                                                              (1)

                                     0DC5  1669 TS4:
                                     0DC5  1670 	TESTSERV	RESUME,ERR,SATS,				-
                                     0DC5  1671                                           				-
                                     0DC5  1672 	   <1,PIDADR_RES,						-
                                     0DC5  1673                                                   >,			-
                                     0DC5  1674                                           				-
                                     0DC5  1675 	   <1,PRCNAM_RES,						-
                                     0DC5  1676 	        	PRCNAM_RES25,ACCVIO,	-  ; SFRES25
                                     0DC5  1677 	        	PRCNAM_RES26,NONEXPR,	-  ; SFRES26
                                     0DC5  1678 	        	PRCNAM_RES27,IVLOGNAM,	-  ; SFRES27
                                     0DC5  1679 	        	PRCNAM_RES28,IVLOGNAM,	-  ; SFRES28
                                     0DC5  1680 	        	PRCNAM_RES29,NOPRIV,	-  ; SFRES29
                                     0DC5  1681                                                   >,			-
                                     0DC5  1682
                                     0F30  1683 	TS_CLEANUP		; CLEAN UP & RETURN TO TEST_SERV_EXEC
SATSSF05        - SATS SYSTEM SERVICE TESTS  (FAILING S.C.)      22-AUG-1978 03:42:37   VAX-11 MACRO X0.3-11               Page  71
1.0                                                                                                                              (1)

                                     0F50  1684 TS5:
                                     0F50  1685 	TESTSERV	SCHDWK,ERR,SATS,				-
                                     0F50  1686                                           				-
                                     0F50  1687 	   <1,PIDADR_SWK,						-
                                     0F50  1688 	        	PIDADR_SWK10,ACCVIO,	-  ; SFSWK10
                                     0F50  1689 	        	PIDADR_SWK11,ACCVIO,	-  ; SFSWK11
                                     0F50  1690 	        	PIDADR_SWK12,ACCVIO,	-  ; SFSWK12
                                     0F50  1691 	        	PIDADR_SWK13,NONEXPR,	-  ; SFSWK13
                                     0F50  1692 	        	PIDADR_SWK14,NONEXPR,	-  ; SFSWK14
                                     0F50  1693                                                   >,			-
                                     0F50  1694                                           				-
                                     0F50  1695 	   <1,PRCNAM_SWK,						-
                                     0F50  1696 	        	PRCNAM_SWK20,ACCVIO,	-  ; SFSWK20
                                     0F50  1697 	        	PRCNAM_SWK21,ACCVIO,	-  ; SFSWK21
                                     0F50  1698 	        	PRCNAM_SWK22,ACCVIO,	-  ; SFSWK22
                                     0F50  1699 	        	PRCNAM_SWK23,ACCVIO,	-  ; SFSWK23
                                     0F50  1700 	        	PRCNAM_SWK24,ACCVIO,	-  ; SFSWK24
                                     0F50  1701                                                   >,			-
                                     0F50  1702                                           				-
                                     0F50  1703 	   <1,DAYTIM_SWK,						-
                                     0F50  1704 	        	DAYTIM_SWK30,ACCVIO,	-  ; SFSWK30
                                     0F50  1705 	        	DAYTIM_SWK31,ACCVIO,	-  ; SFSWK31
                                     0F50  1706 	        	DAYTIM_SWK32,ACCVIO,	-  ; SFSWK32
                                     0F50  1707                                                   >,			-
                                     0F50  1708                                           				-
                                     0F50  1709 	   <1,REPTIM_SWK,						-
                                     0F50  1710 	        	REPTIM_SWK40,ACCVIO,	-  ; SFSWK40
                                     0F50  1711 	        	REPTIM_SWK41,ACCVIO,	-  ; SFSWK41
                                     0F50  1712 	        	REPTIM_SWK42,ACCVIO,	-  ; SFSWK42
                                     0F50  1713 	        	REPTIM_SWK43,IVTIME,	-  ; SFSWK43
                                     0F50  1714 	        	REPTIM_SWK44,IVTIME,	-  ; SFSWK44
                                     0F50  1715                                                   >,			-
                                     0F50  1716
                                     1246  1717 	TS_CLEANUP		; CLEAN UP & RETURN TO TEST_SERV_EXEC
SATSSF05        - SATS SYSTEM SERVICE TESTS  (FAILING S.C.)      22-AUG-1978 03:42:37   VAX-11 MACRO X0.3-11               Page  72
1.0                                                                                                                              (1)

                                     1266  1718 TS6:
                                     1266  1719 	TESTSERV	SCHDWK,ERR,SATS,				-
                                     1266  1720                                           				-
                                     1266  1721 	   <1,PIDADR_SWK,						-
                                     1266  1722                                                   >,			-
                                     1266  1723                                           				-
                                     1266  1724 	   <1,PRCNAM_SWK,						-
                                     1266  1725 	        	PRCNAM_SWK25,ACCVIO,	-  ; SFSWK25
                                     1266  1726 	        	PRCNAM_SWK26,NONEXPR,	-  ; SFSWK26
                                     1266  1727 	        	PRCNAM_SWK27,IVLOGNAM,	-  ; SFSWK27
                                     1266  1728 	        	PRCNAM_SWK28,IVLOGNAM,	-  ; SFSWK28
                                     1266  1729 	        	PRCNAM_SWK29,NOPRIV,	-  ; SFSWK29
                                     1266  1730                                                   >,			-
                                     1266  1731                                           				-
                                     1266  1732 	   <1,DAYTIM_SWK,						-
                                     1266  1733                                                   >,			-
                                     1266  1734                                           				-
                                     1266  1735 	   <1,REPTIM_SWK,						-
                                     1266  1736                                                   >,			-
                                     1266  1737
                                     14F4  1738 	TS_CLEANUP		; CLEAN UP & RETURN TO TEST_SERV_EXEC
SATSSF05        - SATS SYSTEM SERVICE TESTS  (FAILING S.C.)      22-AUG-1978 03:42:37   VAX-11 MACRO X0.3-11               Page  73
1.0             EXECUTE & CLEANUP                                                                                                (1)

                                     1514  1739 	.SBTTL	EXECUTE & CLEANUP
                                     1514  1740 EXECUTE:
                                     1514  1741 	TEST_SERV_EXEC			; EXECUTE ALL T. CASES IN ALL GROUPS
                                     1550  1742 	.MDELETE (PRIV,TC_GROUP,NEXT_TEST_CASE, -
                           0000000D  1550  1743 		  TCEND,TESTSERV,TS_CLEANUP,TEST_SERV_EXEC)
                                     1550  1744 					; DELETE MACRO DEFINITIONS
                                     1550  1745 CLEANUP:
                                     1550  1746 	PRIV	ADD,ALL			; ENSURE THAT ALL PRIVS ARE PRESENT
                                     1579  1747 	$WAKE_S	PRCNAM=DETNAME		; WAKE DETACHED PROCESS ...
                                     1588  1748 					; ... TO ALLOW HIS EXIT
                                     1588  1749 	$QIOW_S	CHAN=MBXCHAN, FUNC=#IO$_READVBLK, -
                                     1588  1750 		P1=MBXBUFF+8, P2=MBXBUFF
                                     15B1  1751 					; ... AND WAIT 4 PROC TO BE DELETED
                                     15B1  1752 	$DELMBX_S  MBXCHAN		; DELETE TERMINATION MAILBOX
                          0138   30  15BF  1753 	BSBW	MOD_MSG_PRINT		; PRINT TEST MODULE END MSG
            1C            01     F0  15C2  1754 	INSV	#1,#STS$V_INHIB_MSG,#1,MOD_MSG_CODE
   00000044'EF            01         15C5
                                     15CB  1755 					; INHIBIT PRINTING
                                     15CB  1756 	$EXIT_S	MOD_MSG_CODE		; EXIT TO OP SYS WITH MSG CODE
SATSSF05        - SATS SYSTEM SERVICE TESTS  (FAILING S.C.)      22-AUG-1978 03:42:37   VAX-11 MACRO X0.3-11               Page  74
1.0             TC_CONTROL                                                                                                       (1)

                                     15D8  1758 	.SBTTL	TC_CONTROL
                                     15D8  1759 ;++
                                     15D8  1760 ; FUNCTIONAL DESCRIPTION:
                                     15D8  1761 ;
                                     15D8  1762 ;		THE TC_CONTROL SUBROUTINE IS CALLED BY THE TEST_SERV_EXEC
                                     15D8  1763 ; MACRO TO EXECUTE A GROUP OF TEST CASES. A GROUP IS DEFINED BY A TC_GROUP
                                     15D8  1764 ; MACRO. FOR EACH TC_GROUP MACRO, THERE IS A CORRESPONDING TESTSERV MACRO.
                                     15D8  1765 ; TESTSERV CONTAINS CODE TO EXECUTE SYSTEM SERVICES AND CHECK THE RETURNED
                                     15D8  1766 ; STATUS CODE VALUES. TESTSERV ARGUMENTS ARE CODED TO SPECIFY ALL THE SYSTEM
                                     15D8  1767 ; SERVICE ARGUMENT VALUES AND THE EXPECTED STATUS CODE FOR EACH TEST CASE
                                     15D8  1768 ; DEFINED BY A NEXT_TEST_CASE MACRO WITHIN THE GROUP. TC_CONTROL USES A
                                     15D8  1769 ; CO-ROUTINE INTERFACE TO ENTER THE CODE OF THE APPROPRIATE TESTSERV MACRO
                                     15D8  1770 ; IN VARIOUS PLACES. THE FIRST ENTRY OCCURS ONCE PER GROUP TO ALLOW TESTSERV
                                     15D8  1771 ; TO DO SOME INITIALIZATION. THEN TWO ENTRIES ARE MADE FOR EACH TEST CASE IN
                                     15D8  1772 ; THE GROUP. THE FIRST ALLOWS TESTSERV TO ISSUE THE SUBJECT SYSTEM SERVICE.
                                     15D8  1773 ; THE SECOND ENTRY FOR THE TEST CASE CAUSES TESTSERV TO CHECK THE RETURNED
                                     15D8  1774 ; STATUS CODE, PRINTING A FAILURE MESSAGE IF IT IS NOT THE EXPECTED CODE.
                                     15D8  1775 ; IF THERE ARE NO MORE TEST CASES IN THE CURRENT GROUP, TESTSERV (NOT TC_CONTROL)
                                     15D8  1776 ; RETURNS DIRECTLY TO TEST_SERV_EXEC (RSB ACTUALLY ISSUED IN TS_CLEANUP MACRO)
                                     15D8  1777 ; FROM THIS SECOND ENTRY; OTHERWISE, CONTROL RETURNS TO TC_CONTROL WHICH
                                     15D8  1778 ; IN TURN ENTERS TESTSERV AGAIN FOR THE NEXT TEST CASE. THE FAILURE OF A
                                     15D8  1779 ; TEST CASE DOES NOT CAUSE TERMINATION OF THE TEST MODULE.
                                     15D8  1780 ;
                                     15D8  1781 ; CALLING SEQUENCE:
                                     15D8  1782 ;
                                     15D8  1783 ;	BSBW TC_CONTROL (ISSUED WITHIN THE TEST_SERV_EXEC MACRO)
                                     15D8  1784 ;			(RSB IS ISSUED WITHIN THE TS_CLEANUP MACRO)
                                     15D8  1785 ;
                                     15D8  1786 ; INPUT PARAMETERS:
                                     15D8  1787 ;
                                     15D8  1788 ;	NONE
                                     15D8  1789 ;
                                     15D8  1790 ; IMPLICIT INPUTS:
                                     15D8  1791 ;
                                     15D8  1792 ;	ARGUMENTS SPECIFIED ON EACH TESTSERV MACRO MAY BE VIEWED AS
                                     15D8  1793 ;	INPUTS, SINCE TC_CONTROL AND TESTSERV ACT AS CO-ROUTINES.
                                     15D8  1794 ;
                                     15D8  1795 ; OUTPUT PARAMETERS:
                                     15D8  1796 ;
                                     15D8  1797 ;	SEVERITY CODE FIELD OF MOD_MSG_CODE (BITS 0,1,2) IS SET TO ERROR
                                     15D8  1798 ;	IF ANY TEST CASE IN THE CURRENT GROUP FAILS; OTHERWISE IT REMAINS
                                     15D8  1799 ;	SET TO SUCCESSFUL.
                                     15D8  1800 ;
                                     15D8  1801 ; IMPLICIT OUTPUTS:
                                     15D8  1802 ;
                                     15D8  1803 ;	%UETP-I-TEXT,   ERROR MESSAGES ARE WRITTEN TO SYS$OUTPUT BY
                                     15D8  1804 ;			THE TESTSERV MACRO (CO-ROUTINE WITH TC_CONTROL)
                                     15D8  1805 ;
                                     15D8  1806 ; COMPLETION CODES:
                                     15D8  1807 ;
                                     15D8  1808 ;	NONE
                                     15D8  1809 ;
                                     15D8  1810 ; SIDE EFFECTS:
                                     15D8  1811 ;
                                     15D8  1812 ;	NONE
                                     15D8  1813 ;
                                     15D8  1814 ;--
SATSSF05        - SATS SYSTEM SERVICE TESTS  (FAILING S.C.)      22-AUG-1978 03:42:37   VAX-11 MACRO X0.3-11               Page  75
1.0             TC_CONTROL                                                                                                       (1)

                                     15D8  1815
                                     15D8  1816
                                     15D8  1817
                                     15D8  1818 TC_CONTROL:
                 00000064'EF     DD  15D8  1819 	PUSHL	TS_EP			; PUSH TESTSERV ENTRY POINT
                          9E     16  15DE  1820 	JSB	@(SP)+			; ENTER TESTSERV INITIALIZATION
                                     15E0  1821 10$:					; PROCESS NEXT TEST CASE
   00000056'EF            20     90  15E0  1822 	MOVB	#^A/ /,$$TSTN$$+2 	; MAKE SURE T.C. NAME HAS A BLANK
                          002F   30  15E7  1823 	BSBW	REG_SAVE		; SAVE REGISTERS
                 00000004'FF     16  15EA  1824 	JSB	@CURRENT_TC		; JUMP TO CURRENT TEST CASE
                          0037   30  15F0  1825 	BSBW	REG_REST		; RESTORE REGS FOR TESTSERV
                          9E     16  15F3  1826 	JSB	@(SP)+			; LET TESTSERV ISSUE SYSTEM SERVICE
                          0042   30  15F5  1827 	BSBW	REG_COMP		; COMPARE REGS TO SEE IF ...
                                     15F8  1828 					; ... SYSTEM SERVICE CHANGED ANY
                          9E     16  15F8  1829 	JSB	@(SP)+			; LET TESTSERV CHEK S.S. STATUS CODE
   00000056'EF            2A     91  15FA  1830 	CMPB	#^A/*/,$$TSTN$$+2	; HAS TESTSERV INDICATED FAILURE ?
                          DD     12  1601  1831 	BNEQU	10$			; NO -- PROCESS NEXT TEST CASE
   00000060'EF   00000088'EF     DE  1603  1832 	MOVAL	TEST_MOD_FAIL,TMD_ADDR	; YES -- INDICATE FAILED IN END MSG
            00            02     F0  160E  1833 	INSV	#ERROR,#0,#3,MOD_MSG_CODE ; ADJUST STATUS CODE FOR ERROR
   00000044'EF            03         1611
                          C7     11  1617  1834 	BRB	10$			; LOOP BAK TO PROCESS NEXT TEST CASE
                                     1619  1835 ;
                                     1619  1836 ;   TC_CONTROL RETURNS TO TEST_SERV_EXEC VIA TESTSERV (IN TS_CLEANUP MACRO)
                                     1619  1837 ;
SATSSF05        - SATS SYSTEM SERVICE TESTS  (FAILING S.C.)      22-AUG-1978 03:42:37   VAX-11 MACRO X0.3-11               Page  76
1.0             SUBROUTINES                                                                                                      (1)

                                     1619  1839 	.SBTTL	SUBROUTINES
                                     1619  1840 REG_SAVE:
                                     1619  1841 ;
                                     1619  1842 ;  *****************************************************************
                                     1619  1843 ;  *                                                               *
                                     1619  1844 ;  *  SAVES R0 THRU SP IN REG_SAVE_AREA                            *
                                     1619  1845 ;  *                                                               *
                                     1619  1846 ;  *****************************************************************
                                     1619  1847 ;
                     7FFF 8F     BB  1619  1848 	PUSHR	#R0_THRU_SP		; SAVE ALL REGS ON STACK
            6E            3C     28  161D  1849 	MOVC3	#60,(SP),REG_SAVE_AREA	; SAVE REGS (BEFORE S.S.)
                 00000008'EF         1620
                     7FFF 8F     BA  1625  1850 	POPR	#R0_THRU_SP		; CLEAN UP STACK
                                 05  1629  1851 	RSB				; .... AND RETURN
                                     162A  1852 ;
                                     162A  1853 ;
                                     162A  1854 ;
                                     162A  1855 ;
                                     162A  1856 REG_REST:
                                     162A  1857 ;
                                     162A  1858 ;
                                     162A  1859 ;  *****************************************************************
                                     162A  1860 ;  *                                                               *
                                     162A  1861 ;  *  RESTORES R0 THRU SP FROM REG_SAVE_AREA                       *
                                     162A  1862 ;  *                                                               *
                                     162A  1863 ;  *****************************************************************
                                     162A  1864 ;
            5E            3C     C2  162A  1865 	SUBL2	#60,SP			; MOVE SP TO MAKE ROOM FOR REGS
   00000008'EF            3C     28  162D  1866 	MOVC3	#60,REG_SAVE_AREA,(SP)	; MOVE REGS ONTO STACK FOR POP
                          6E         1634
                     7FFF 8F     BA  1635  1867 	POPR	#R0_THRU_SP		; RESTORE ALL REGS FOR TESTSERV
                                 05  1639  1868 	RSB				; ... AND RETURN
SATSSF05        - SATS SYSTEM SERVICE TESTS  (FAILING S.C.)      22-AUG-1978 03:42:37   VAX-11 MACRO X0.3-11               Page  77
1.0             SUBROUTINES                                                                                                      (1)

                                     163A  1870 REG_COMP:
                                     163A  1871 ;
                                     163A  1872 ;  *****************************************************************
                                     163A  1873 ;  *                                                               *
                                     163A  1874 ;  *  1) PUSHES ALL REGS ONTO STACK                                *
                                     163A  1875 ;  *  2) COMPARES REGISTER IMAGES FROM STACK WITH CORRESPONDING    *
                                     163A  1876 ;  *       IMAGES FROM REG_SAVE_AREA FOR ALL REGISTERS SPECIFIED   *
                                     163A  1877 ;  *       IN REG_COMP_MASK.                                       *
                                     163A  1878 ;  *  3) FOR EACH UNEQUAL COMPARE, AN ERROR MESSAGE IS PRINTED     *
                                     163A  1879 ;  *       (USING $FAO AND $OUTPUT SYSTEM SERVICES).               *
                                     163A  1880 ;  *  4) POPS ALL REGS OFF OF STACK                                *
                                     163A  1881 ;  *                                                               *
                                     163A  1882 ;  *****************************************************************
                                     163A  1883 ;
                     7FFF 8F     BB  163A  1884 	PUSHR	#R0_THRU_SP		; SAVE ALL REGISTERS ON STACK
            56   00000008'EF     DE  163E  1885 	MOVAL	REG_SAVE_AREA,R6 	; POINT R6 TO BEG OF ...
                                     1645  1886 					; ... REGS (BEFORE S.S.)
            54            5E     D0  1645  1887 	MOVL	SP,R4			; POINT R4 TO BEG OF
                                     1648  1888 					; ... REGS (AFTER S.S.)
            53         FF 8F     98  1648  1889 	CVTBL	#-1,R3			; INITIALIZE REG_COMP_MASK INDEX
                                     164C  1890 REG_COMP_NEXT:
                          53     D6  164C  1891 	INCL	R3			; POINT TO NEXT BIT IN MASK
            53            0F     91  164E  1892 	CMPB	#15,R3			; END OF THE MASK ?
                          03     1A  1651  1893 	BGTRU	REG_COMP_CONT		; NO -- CONTINUE
                          009F   31  1653  1894 	BRW	REG_COMP_RSB		; YES -- GO TO COMMON RETURN
                                     1656  1895 REG_COMP_CONT:
            84            86     D1  1656  1896 	CMPL	(R6)+,(R4)+		; REG BEFORE = REG AFTER ?
                          F1     13  1659  1897 	BEQLU	REG_COMP_NEXT		; YES -- LOOK FOR NEXT REG
   00000000'EF            53     E1  165B  1898 	BBC	R3,REG_COMP_MASK,REG_COMP_NEXT
                          E9         1662
                                     1663  1899 					; NO -- GET NEXT IF BIT NOT SET
   00000048'EF            53     D0  1663  1900 	MOVL	R3,CLOB_REG_NO		; NO -- GIVE REG NUMBER TO FAO
   0000004C'EF         FC A6     D0  166A  1901 	MOVL	-4(R6),REG_BEFORE_SS 	; GIVE "BEFORE" CONTENTS TO FAO
   00000050'EF         FC A4     D0  1672  1902 	MOVL	-4(R4),REG_AFTER_SS  	; GIVE "AFTER" CONTENTS TO FAO
   00000056'EF            2A     90  167A  1903 	MOVB	#^A/*/,$$TSTN$$+2 	; GIVE FAILURE INDIC'N IN ERROR MSG
                                     1681  1904 ;
                                     1681  1905 	$FAO_S	ERR_MSG_FAOCTL,OUTL,OUTD,$$SNAD$$,  -
                                     1681  1906 		$$ASEQ$$,$$PSEQ$$,CLOB_REG_NO,REG_BEFORE_SS,REG_AFTER_SS
                                     16B4  1907 ;
       EB07 CF       EAD1 CF     B0  16B4  1908 	MOVW	OUTL,OUTD		; ACTUAL OUTPUT LEN IN STRING DESC'R
                                     16BB  1909 	PUTMSG	<#UETP$_TEXT,#1,#OUTD>	; PRINT THE MSG
       EAEB CF       0084 8F     B0  16D0  1910 	MOVW	#OUTE-OUTB,OUTD		; GET MAX LEN BACK INTO DESCRIPTOR
   00000056'EF            20     90  16D7  1911 	MOVB	#^A/ /,$$TSTN$$+2 	; REMOVE FAIL INDIC'N FOR NEXT MSG
   00000060'EF   00000088'EF     DE  16DE  1912 	MOVAL	TEST_MOD_FAIL,TMD_ADDR	; INDICATE FAILED IN END MSG
            00            02     F0  16E9  1913 	INSV	#ERROR,#0,#3,MOD_MSG_CODE ; ADJUST STATUS CODE FOR ERROR
   00000044'EF            03         16EC
                          FF57   31  16F2  1914 	BRW	REG_COMP_NEXT		; GO LOOK FOR NEXT REG TO COMPARE
                                     16F5  1915 REG_COMP_RSB:
                     7FFF 8F     BA  16F5  1916 	POPR	#R0_THRU_SP		; CLEAN UP STACK
                                 05  16F9  1917 	RSB				; RETURN TO CALLER
SATSSF05        - SATS SYSTEM SERVICE TESTS  (FAILING S.C.)      22-AUG-1978 03:42:37   VAX-11 MACRO X0.3-11               Page  78
1.0             SUBROUTINES                                                                                                      (1)

                                     16FA  1919 MOD_MSG_PRINT:
                                     16FA  1920 ;
                                     16FA  1921 ;  *****************************************************************
                                     16FA  1922 ;  *                                                               *
                                     16FA  1923 ;  *  PRINTS THE TEST MODULE BEGUN/SUCCESSFUL/FAILED MESSAGES      *
                                     16FA  1924 ;  *	   (USING THE PUTMSG MACRO).                               *
                                     16FA  1925 ;  *                                                               *
                                     16FA  1926 ;  *****************************************************************
                                     16FA  1927 ;
                                     16FA  1928 	PUTMSG	<MOD_MSG_CODE,#2,TMN_ADDR,TMD_ADDR> ; PRINT MSG
                                 05  1715  1929 	RSB				; ... AND RETURN TO CALLER
                                     1716  1930 ;
                                     1716  1931 CHMRTN:
                                     1716  1932 ; **********************************************************
                                     1716  1933 ; *
                                     1716  1934 ; *	CHANGE MODE ROUTINE. THIS ROUTINE GETS CONTROL WHENEVER
                                     1716  1935 ; *	A CMKRNL, CMEXEC, OR CMSUP SYSTEM SERVICE IS ISSUED
                                     1716  1936 ; *	BY THE MODE MACRO ('TO' OPTION).  IT MERELY DOES
                                     1716  1937 ; *	A JUMP INDIRECT ON A FIELD SET UP BY MODE. IT HAS
                                     1716  1938 ; *	THE EFFECT OF RETURNING TO THE END OF THE MODE
                                     1716  1939 ; *	MACRO EXPANSION.
                                     1716  1940 ; *
                                     1716  1941 ; *************************************************************
                                     1716  1942 ;
                               0000  1716  1943 	.WORD	0			; ENTRY MASK
                 00000079'FF     17  1718  1944 	JMP	@CHM_CONT		; RETURN TO MODE MACRO IN NEW MODE
                                     171E  1945 ;
                                     171E  1946 ; *	RET INSTR WILL BE ISSUED IN EXPANSION OF 'MODE FROM, ....' MACRO
                                     171E  1947 ;
                                     171E  1948 	.END	SATSSF05
SATSSF05        - SATS SYSTEM SERVICE TESTS  (FAILING S.C.)      22-AUG-1978 03:42:37   VAX-11 MACRO X0.3-11               Page  79
SYMBOL TABLE                                                                                                                     (1)

$$$CHARS       = 00000048            LIB$SIGNAL       ********   X   07   PRCNAM_SWK       00000176 R     03
$$$FIRSTTC$$$  = 00000000            MBXBUFF          000000F0 R     04   PRCNAM_SWK20     00000032 R     06
$$$STRINGS     = 00000000            MBXCHAN          00000095 R     04   PRCNAM_SWK21   = 000001FF R     05
$$ACT$$          000001A1 R     07   MBXCHANINFO      00000099 R     04   PRCNAM_SWK22     000001FC R     05
$$ARG$$          000001A9 R     07   MBXUNIT          000000EC R     04   PRCNAM_SWK23     000001FB R     05
$$ASEQ$$         00000199 R     07   MEXIT          = 00000000            PRCNAM_SWK24     00000186 R     03
$$CALL$$         0000018D R     07   MOD_MSG_CODE     00000044 R     04   PRCNAM_SWK25     000001F3 R     05
$$DISP$$         00000294 R     07   MOD_MSG_PRINT    000016FA R     07   PRCNAM_SWK26     0000018E R     03
$$ERR$$          0000024E R     07   NARGS          = 0000000E            PRCNAM_SWK27     0000019D R     03
$$EXP$$          000001A5 R     07   NOACCESS         00000000 R     06   PRCNAM_SWK28     000001A1 R     03
$$INIT$$         00000191 R     07   ONES             000000B5 R     03   PRCNAM_SWK29   = 000000DC R     03
$$MAXP$$       = 00000005            OUTB             000001CA R     07   PRIVMASK         00000071 R     04
$$PSEQ$$         0000019D R     07   OUTD             000001C2 R     07   PROT             000000B1 R     03
$$SNAD$$         00000195 R     07   OUTE             0000024E R     07   PRT$C_NA         ********   X   03
$$T1           = 00000004            OUTL             00000189 R     07   PRV$V_ALLSPOOL = 00000004
$$T2           = 00000009            PCB$L_UIC      = 00000020            PRV$V_BUGCHK   = 00000017
$$TSTN$$         00000054 R     04   PHD$Q_PRIVMSK  = 00000000            PRV$V_CMEXEC   = 00000001
BIT...         = 00001258            PIDADR_RES       0000017C R     04   PRV$V_CMKRNL   = 00000000
CHMRTN           00001716 R     07   PIDADR_RES10   = 00000001            PRV$V_DETACH   = 00000005
CHM_CONT         00000079 R     04   PIDADR_RES11     0000001B R     06   PRV$V_DIAGNOSE = 00000006
CLEANUP          00001550 R     07   PIDADR_RES12   = 000001FF R     05   PRV$V_EXQUOTA  = 00000013
CLOB_REG_NO      00000048 R     04   PIDADR_RES13     00000180 R     04   PRV$V_GROUP    = 00000008
CTL$GL_PHD       ********   X   07   PIDADR_RES14     00000184 R     04   PRV$V_GRPNAM   = 00000003
CURRENT_TC       00000004 R     04   PIDADR_SUS       00000170 R     04   PRV$V_LOG_IO   = 00000007
DAYTIM_SWK       000001B9 R     03   PIDADR_SUS10   = 00000001            PRV$V_MOUNT    = 00000011
DAYTIM_SWK30   = 00000000            PIDADR_SUS11     00000008 R     06   PRV$V_NETMBX   = 00000014
DAYTIM_SWK31     00000041 R     06   PIDADR_SUS12   = 000001FF R     05   PRV$V_NOACNT   = 00000009
DAYTIM_SWK32   = 000001FF R     05   PIDADR_SUS13     00000174 R     04   PRV$V_OPER     = 00000012
DETFLAG        = 00000040            PIDADR_SUS14     00000178 R     04   PRV$V_PHY_IO   = 00000016
DETIMAGE         000000BD R     03   PIDADR_SWK       00000188 R     04   PRV$V_PRMCEB   = 0000000A
DETNAME          000000DC R     03   PIDADR_SWK10   = 00000001            PRV$V_PRMGBL   = 00000018
DETUIC           00000091 R     04   PIDADR_SWK11     0000002E R     06   PRV$V_PRMMBX   = 0000000B
DIB$B_DEVCLASS   00000004            PIDADR_SWK12   = 000001FF R     05   PRV$V_PSWAPM   = 0000000C
DIB$B_DEVTYPE    00000005            PIDADR_SWK13     0000018C R     04   PRV$V_SETPRI   = 0000000D
DIB$C_LENGTH     00000024            PIDADR_SWK14     00000190 R     04   PRV$V_SETPRV   = 0000000E
DIB$K_LENGTH     00000024            PRCNAM_RES       00000133 R     03   PRV$V_SYSGBL   = 00000019
DIB$L_DEVCHAR    00000000            PRCNAM_RES20     0000001F R     06   PRV$V_SYSNAM   = 00000002
DIB$L_DEVDEPEND  00000008            PRCNAM_RES21   = 000001FF R     05   PRV$V_TMPMBX   = 0000000F
DIB$L_OPCNT      0000001C            PRCNAM_RES22     000001FC R     05   PRV$V_VOLPRO   = 00000015
DIB$L_OWNUIC     00000014            PRCNAM_RES23     000001FB R     05   PRV$V_WORLD    = 00000010
DIB$L_PID        00000010            PRCNAM_RES24     00000143 R     03   PRVPRT           00000070 R     04
DIB$W_DEVBUFSIZ  00000006            PRCNAM_RES25     000001F3 R     05   R0_THRU_SP     = 00007FFF
DIB$W_DEVNAMOFF  0000000E            PRCNAM_RES26     0000014B R     03   REGS             0000007D R     04
DIB$W_ERRCNT     0000001A            PRCNAM_RES27     0000015A R     03   REG_AFTER_SS     00000050 R     04
DIB$W_RECSIZ     00000022            PRCNAM_RES28     0000015E R     03   REG_BEFORE_SS    0000004C R     04
DIB$W_UNIT       0000000C            PRCNAM_RES29   = 000000DC R     03   REG_COMP         0000163A R     07
DIB$W_VOLNAMOFF  00000020            PRCNAM_SUS       000000F0 R     03   REG_COMP_CONT    00001656 R     07
DIB$W_VPROT      00000018            PRCNAM_SUS20     0000000C R     06   REG_COMP_MASK    00000000 R     03
EMPTY            00000000 R     05   PRCNAM_SUS21   = 000001FF R     05   REG_COMP_NEXT    0000164C R     07
ERROR          = 00000002            PRCNAM_SUS22     000001FC R     05   REG_COMP_RSB     000016F5 R     07
ERR_MSG_FAOCTL   00000002 R     03   PRCNAM_SUS23     000001FB R     05   REG_REST         0000162A R     07
EXECUTE          00001514 R     07   PRCNAM_SUS24     00000100 R     03   REG_SAVE         00001619 R     07
GBL...         = 00000000            PRCNAM_SUS25     000001F3 R     05   REG_SAVE_AREA    00000008 R     04
GRP_TOTAL      = 00000006            PRCNAM_SUS26     00000108 R     03   REPTIM_SWK       000001C1 R     03
INADR            000000A9 R     03   PRCNAM_SUS27     00000117 R     03   REPTIM_SWK40   = 00000001
INFO           = 00000003            PRCNAM_SUS28     0000011B R     03   REPTIM_SWK41     00000049 R     06
IO$_READVBLK     ********   X   07   PRCNAM_SUS29   = 000000DC R     03   REPTIM_SWK42   = 000001FF R     05
SATSSF05        - SATS SYSTEM SERVICE TESTS  (FAILING S.C.)      22-AUG-1978 03:42:37   VAX-11 MACRO X0.3-11               Page  80
SYMBOL TABLE                                                                                                                     (1)

REPTIM_SWK43     000001C9 R     03   SHR$_NOJOBNAME = 000011A8            TEST_MOD_FAIL    00000088 R     03
REPTIM_SWK44     000001D1 R     03   SHR$_NOQUEUE   = 00001198            TEST_MOD_NAME    0000006E R     03
RETADR           00000068 R     04   SHR$_NOTCMPLT  = 000011C0            TEST_MOD_NAME_D  0000008F R     03
SATSSF05         00000000 R     07   SHR$_NOTCOPIED = 000011B8            TEST_MOD_SUCC    0000007D R     03
SCH$GL_CURPCB    ********   X   07   SHR$_NOVALUE   = 00001100            TMD_ADDR         00000060 R     04
SEVERE         = 00000004            SHR$_NOWILD    = 00001128            TMN_ADDR         0000005C R     04
SHR$K_SHRDEF   = 00000001            SHR$_OPENIN    = 00001098            TPID             00000000 R     04
SHR$_ABEND     = 000010D8            SHR$_OPENOUT   = 000010A0            TS1              000008D2 R     07
SHR$_ABENDD    = 000010E0            SHR$_OVERLAY   = 000010A8            TS2              00000A86 R     07
SHR$_ABENDT    = 000010E8            SHR$_PARSEFAIL = 00001248            TS3              00000C11 R     07
SHR$_APPENDEDB = 00001000            SHR$_PURGEVER  = 00001210            TS4              00000DC5 R     07
SHR$_APPENDEDR = 00001008            SHR$_READERR   = 000010B0            TS5              00000F50 R     07
SHR$_ATPC      = 00001158            SHR$_RELCONCAT = 00001140            TS6              00001266 R     07
SHR$_BADBYTE   = 00001010            SHR$_REPLACED  = 000010B8            TS_EP            00000064 R     04
SHR$_BADCOPIES = 00001160            SHR$_RMSERROR  = 000011C8            TTNAME           0000009F R     03
SHR$_BADDELIM  = 00001118            SHR$_SEARCHFAIL= 00001238            UETP$_ABORTC   = 0074832B
SHR$_BADFIELD  = 00001018            SHR$_SYNTAX    = 000010F8            UETP$_CONF     = 007480D1
SHR$_BADFORM   = 00001168            SHR$_SYSERROR  = 000011B0            UETP$_DATAER   = 00748010
SHR$_BADJOBID  = 00001170            SHR$_SYSERRORPC= 000010F0            UETP$_DDB      = 007480E1
SHR$_BADJOBNAME= 00001178            SHR$_TEXT      = 00001130            UETP$_DENOSU   = 00748333
SHR$_BADKEY    = 00001108            SHR$_UNXPCTSTS = 000011D0            UETP$_DESTP    = 007481A2
SHR$_BADLOGIC  = 00001120            SHR$_VALERR    = 000011E8            UETP$_DEUNUS   = 0074819A
SHR$_BADLOGICPC= 00001150            SHR$_WILDCONCAT= 000010C0            UETP$_ERBOX    = 00748008
SHR$_BADLONG   = 00001020            SHR$_WILDOUTVER= 000010C8            UETP$_SATSMS   = 007480D9
SHR$_BADPRTY   = 00001180            SHR$_WRITEERR  = 000010D0            UETP$_TEXT     = 00741133
SHR$_BADQNAME  = 00001188            SS$_ACCVIO       ********   X   07   UETP$_UCB      = 007480E9
SHR$_BADTIME   = 00001190            SS$_IVLOGNAM     ********   X   07   UETP$_USER     = 0074833B
SHR$_BADVALUE  = 00001110            SS$_IVTIME       ********   X   07   WARNING        = 00000000
SHR$_BADWORD   = 00001028            SS$_NONEXPR      ********   X   07
SHR$_BEGIN     = 00001030            SS$_NOPRIV       ********   X   07
SHR$_BEGIND    = 00001038            STS$V_INHIB_MSG= 0000001C
SHR$_BEGINT    = 00001040            SUCCESS        = 00000001
SHR$_CLICB     = 00001048            SYS$CMKRNL       ********   X   07
SHR$_CLOSEDEL  = 00001218            SYS$CREMBX       ********   X   07
SHR$_CLOSEIN   = 00001050            SYS$CREPRC       ********   X   07
SHR$_CLOSEOUT  = 00001058            SYS$DELMBX       ********   X   07
SHR$_CONFDEL   = 000011F8            SYS$EXIT         ********   X   07
SHR$_COPIEDB   = 00001060            SYS$FAO          ********   X   07
SHR$_COPIEDR   = 00001068            SYS$FAOL         ********   X   07
SHR$_CREATED   = 00001070            SYS$GETCHN       ********   X   07
SHR$_DELETED   = 00001200            SYS$HIBER        ********   X   07
SHR$_DELINTERR = 00001240            SYS$QIOW         ********   X   07
SHR$_DELVER    = 00001208            SYS$RESUME       ********   X   07
SHR$_DIRTOOBUS = 00001220            SYS$SCHDWK       ********   X   07
SHR$_ENDED     = 00001078            SYS$SETPRN       ********   X   07
SHR$_ENDEDD    = 00001080            SYS$SETPRT       ********   X   07
SHR$_ENDEDT    = 00001088            SYS$SUSPND       ********   X   07
SHR$_FILNOTDEL = 000011F0            SYS$WAKE         ********   X   07
SHR$_FILNOTPUR = 00001230            TC1              000002EF R     07
SHR$_FILPURGED = 00001250            TC2              000003D6 R     07
SHR$_HASHCONCAT= 000011D8            TC3              0000049A R     07
SHR$_HIGHVER   = 00001148            TC4              000005AA R     07
SHR$_IDXCONCAT = 00001138            TC5              0000066E R     07
SHR$_INCOMPAT  = 000011E0            TC6              0000080E R     07
SHR$_NEWFILES  = 00001090            TCG_NO         = 00000006
SHR$_NOFILPURG = 00001228            TC_CONTROL       000015D8 R     07
SHR$_NOJOBID   = 000011A0            TEST_MOD_BEG     00000077 R     03
SATSSF05        - SATS SYSTEM SERVICE TESTS  (FAILING S.C.)      22-AUG-1978 03:42:37   VAX-11 MACRO X0.3-11               Page  81
PROGRAM SECTION SYNOPSIS                                                                                                         (1)


PROGRAM SECTION SYNOPSIS

.  ABS  .        00000000      00     NOPIC   USR   CON   ABS   LCL NOSHR NOEXE NORD  NOWRT BYTE
. BLANK .        00000000      01     NOPIC   USR   CON   REL   LCL NOSHR   EXE   RD    WRT BYTE
$ABS$            00000024      02     NOPIC   USR   CON   ABS   LCL NOSHR   EXE   RD    WRT BYTE
RODATA           000001D9      03     NOPIC   USR   CON   REL   LCL NOSHR NOEXE   RD  NOWRT LONG
RWDATA           00000194      04     NOPIC   USR   CON   REL   LCL NOSHR NOEXE   RD    WRT BYTE
SATS_ACCVIO_1    00000200      05     NOPIC   USR   CON   REL   LCL NOSHR NOEXE   RD    WRT PAGE
SATS_ACCVIO_2    00000200      06     NOPIC   USR   CON   REL   LCL NOSHR NOEXE   RD    WRT PAGE
SATSSF05         0000171E      07     NOPIC   USR   CON   REL   LCL NOSHR   EXE   RD    WRT LONG


THERE WERE NO ERRORS OR WARNINGS.
3292. BYTES LEFT IN FREE MEMORY POOL.
3058. BYTES OF RECLAIMED MEMORY.
OBJ$:SATSSF05,LIS$:SATSSF05/-SP=EXECML$/ML,LIB$:SYSTST.MLB/ML,SRC$:SATSSF05
75 MLB DIR RDS - 1034 GETS TO DEFINE 52 MACROS. 92 INTER. FILE WRITES.
