SATSSS44        SATS SYSTEM SERVICE TESTS  $SETPRN (SUCC S.C.)   22-AUG-1978 04:07:57   VAX-11 MACRO X0.3-11               Page   0
TABLE OF CONTENTS

   (1)      48  DECLARATIONS
   (1)      85  CONDITION TABLES
   (1)     112  TM_SETUP, TM_CLEANUP
   (1)     179  CONDITION SUBROUTINES - SETUP AND CLEANUP
   (1)     249  FORM_CONDS
   (1)     342  VERIFY
   (1)     448  VFY_CLEANUP
SATSSS44        SATS SYSTEM SERVICE TESTS  $SETPRN (SUCC S.C.)   22-AUG-1978 04:07:57   VAX-11 MACRO X0.3-11               Page   1
1.0                                                                                                                              (1)

                                     0000     1 	.TITLE	SATSSS44 SATS SYSTEM SERVICE TESTS  $SETPRN (SUCC S.C.)
                                     0000     2 	.IDENT	/1.0/
                                     0000     3
                                     0000     4 ;
                                     0000     5 ;			  COPYRIGHT (c) 1977,1978 BY
                                     0000     6 ;	      DIGITAL EQUIPMENT CORPORATION, MAYNARD, MASS.
                                     0000     7 ;
                                     0000     8 ; THIS SOFTWARE IS FURNISHED UNDER A LICENSE AND MAY BE USED AND  COPIED
                                     0000     9 ; ONLY  IN  ACCORDANCE  WITH  THE  TERMS  OF  SUCH  LICENSE AND WITH THE
                                     0000    10 ; INCLUSION OF THE ABOVE COPYRIGHT NOTICE.  THIS SOFTWARE OR  ANY  OTHER
                                     0000    11 ; COPIES  THEREOF MAY NOT BE PROVIDED OR OTHERWISE MADE AVAILABLE TO ANY
                                     0000    12 ; OTHER PERSON.  NO TITLE TO AND OWNERSHIP OF  THE  SOFTWARE  IS  HEREBY
                                     0000    13 ; TRANSFERRED.
                                     0000    14 ;
                                     0000    15 ; THE INFORMATION IN THIS SOFTWARE IS SUBJECT TO CHANGE  WITHOUT  NOTICE
                                     0000    16 ; AND  SHOULD  NOT  BE  CONSTRUED  AS  A COMMITMENT BY DIGITAL EQUIPMENT
                                     0000    17 ; CORPORATION.
                                     0000    18 ;
                                     0000    19 ; DIGITAL ASSUMES NO RESPONSIBILITY FOR THE USE OR  RELIABILITY  OF  ITS
                                     0000    20 ; SOFTWARE ON EQUIPMENT WHICH IS NOT SUPPLIED BY DIGITAL.
                                     0000    21 ;
                                     0000    22
                                     0000    23 ;++
                                     0000    24 ; FACILITY:	SYSTST (SATS SYSTEM SERVICE TESTS)
                                     0000    25 ;
                                     0000    26 ; ABSTRACT:
                                     0000    27 ;
                                     0000    28 ;		THIS MODULE CONTAINS SUBROUTINES WHICH, WHEN LINKED
                                     0000    29 ; WITH SUCCOMMON.OBJ, FORM TEST MODULE SATSSS44 TO TEST SUCCESSFUL
                                     0000    30 ; OPERATION OF THE $SETPRN SYSTEM SERVICE. THE SERVICE IS INVOKED
                                     0000    31 ; UNDER VARIOUS INPUT CONDITIONS WITH VARYING INPUT PARAMETERS. ONLY
                                     0000    32 ; SUCCESSFUL STATUS CODES ARE EXPECTED IN THIS TEST MODULE.  CORRECT
                                     0000    33 ; OPERATION OF THE SERVICE FOR EACH OF ITS ISSUANCES IS VERIFIED BY
                                     0000    34 ; CHECKING FOR AN SS$_NORMAL STATUS CODE, EXPECTED RETURN ARGUMENTS
                                     0000    35 ; AND EXPECTED FUNCTIONALITY PERFORMED.
                                     0000    36 ;
                                     0000    37 ; ENVIRONMENT:	USER MODE IMAGE; NEEDS CMKRNL PRIVILEGE,
                                     0000    38 ;		DYNAMICALLY ACQUIRES OTHER PRIVILEGES, AS NEEDED.
                                     0000    39 ;
                                     0000    40 ; AUTHOR: THOMAS L. CAFARELLA,		CREATION DATE: JUN, 1977
                                     0000    41 ;
                                     0000    42 ; MODIFIED BY:
                                     0000    43 ;
                                     0000    44 ;	, : VERSION
                                     0000    45 ; 01	-
                                     0000    46 ;--
SATSSS44        SATS SYSTEM SERVICE TESTS  $SETPRN (SUCC S.C.)   22-AUG-1978 04:07:57   VAX-11 MACRO X0.3-11               Page   2
1.0             DECLARATIONS                                                                                                     (1)

                                     0000    48 	.SBTTL	DECLARATIONS
                                     0000    49 ;
                                     0000    50 ; INCLUDE FILES:
                                     0000    51 ;
                                     0000    52 	$PRVDEF				; PRIVILEGE BIT DEFINITIONS
                                     0000    53 	$PHDDEF				; PROCESS HEADER OFFSETS
                                     0000    54 ;
                                     0000    55 ; MACROS:
                                     0000    56 ;
                                     0000    57 ;
                                     0000    58 ; EQUATED SYMBOLS:
                                     0000    59 ;
                                     0000    60 ;
                                     0000    61 ; OWN STORAGE:
                                     0000    62 ;
SATSSS44        SATS SYSTEM SERVICE TESTS  $SETPRN (SUCC S.C.)   22-AUG-1978 04:07:57   VAX-11 MACRO X0.3-11               Page   3
1.0             DECLARATIONS                                                                                                     (1)

                                 00000000    64 	.PSECT	RODATA,RD,NOWRT,NOEXE,LONG
                                     0000    65 TEST_MOD_NAME::	STRING	C,<SATSSS44>	; TEST MODULE NAME
                                     0009    66 TEST_MOD_NAME_D: STRING	I,<SATSSS44>	; TEST MODULE NAME DESCRIPTOR
                                     0019    67 MSG1_INP_CTL:	STRING	I,<  SSSPN!4ZW: CONDITIONS:>
                                     0039    68 					; FAO CTL STRING FOR MSG1 IN SUCCOMMON.MAR
                                     0039    69 MSG3_ERR_CTL::	STRING	I,< *SSSPN!4ZW: !AS>
                                     0051    70 					; FAO CTL STRING FOR MSG3 IN SUCCOMMON.MAR
                           00000004  0051    71 PREVNAME:	.LONG	4		; PREVIOUS PROCESS NAME STRING DESCRIPTOR
                           00000008' 0055    72 		.ADDRESS THISPID 	; ........ (USE PID TO MAKE PRCNAM UNIQUE)
                           00000001  0059    73 CHAR1:		.LONG	1		; PROCESS NAME STRING DESCRIPTOR (LENGTH 1)
                           0000000C' 005D    74 		.ADDRESS PROCNAME 	; .........
                           00000007  0061    75 CHAR7:		.LONG	7		; PROCESS NAME STRING DESCRIPTOR (LENGTH 7)
                           0000000C' 0065    76 		.ADDRESS PROCNAME 	; .......
                           0000000F  0069    77 CHAR15:		.LONG	15		; PROCESS NAME STRING DESCRIPTOR (LENGTH 15)
                           0000000C' 006D    78 		.ADDRESS PROCNAME 	; ........
SATSSS44        SATS SYSTEM SERVICE TESTS  $SETPRN (SUCC S.C.)   22-AUG-1978 04:07:57   VAX-11 MACRO X0.3-11               Page   4
1.0             DECLARATIONS                                                                                                     (1)

                                 00000000    80 	.PSECT	RWDATA,RD,WRT,NOEXE,LONG
                           00000008  0000    81 PRIVMASK:	.BLKQ	1		; ADDR OF PRIVILEGE MASK (IN PHD)
                           00000000  0008    82 THISPID:	.LONG	0		; PROCESS ID FOR THIS PROCESS
                           0000001B  000C    83 PROCNAME:	.BLKB	15		; PROCESS NAME FOR THIS PROCESS
SATSSS44        SATS SYSTEM SERVICE TESTS  $SETPRN (SUCC S.C.)   22-AUG-1978 04:07:57   VAX-11 MACRO X0.3-11               Page   5
1.0             CONDITION TABLES                                                                                                 (1)

                                     001B    85 	.SBTTL	CONDITION TABLES
                                     001B    86 ;
                                     001B    87 ;	***** CONDITION TABLES FOR SETPRN SYSTEM SERVICE *****
                                     001B    88 ;
                                     001B    89 	COND	1,NOTARG,<PROCESS NAME SPECIFICATION>,-
                                     001B    90 		  <SPECIFIED, 1 CHAR>,-
                                     001B    91 		  <SPECIFIED, 7 CHARS>,-
                                     001B    92 		  <SPECIFIED, 15 CHARS>,-
                                     001B    93 		  <NOT SPECIFIED>,-
                                     001B    94
                           00000059' 008E    95 		    .ADDRESS	CHAR1
                           00000061' 0092    96 		    .ADDRESS	CHAR7
                           00000069' 0096    97 		    .ADDRESS	CHAR15
                           00000000' 009A    98 		    .ADDRESS	0
                                     009E    99 ;
                                     009E   100 	COND	2,NOTARG,<PROCESS NAME EXISTENCE>,-
                                     009E   101 		  <NAME PREVIOUSLY EXISTED>,-
                                     009E   102 		  <NAME DID NOT EXIST PREVIOUSLY>,-
                                     009E   103
                                     00F4   104 	COND	3,NULL
                                     00F5   105
                                     00F5   106 	COND	4,NULL
                                     00F6   107
                                     00F6   108 	COND	5,NULL
                                     00F7   109
                                 00000000   110 	.PSECT	SATSSS44,RD,WRT,EXE
SATSSS44        SATS SYSTEM SERVICE TESTS  $SETPRN (SUCC S.C.)   22-AUG-1978 04:07:57   VAX-11 MACRO X0.3-11               Page   6
1.0             TM_SETUP, TM_CLEANUP                                                                                             (1)

                                     0000   112 	.SBTTL	TM_SETUP, TM_CLEANUP
                                     0000   113 ;++
                                     0000   114 ; FUNCTIONAL DESCRIPTION:
                                     0000   115 ;
                                     0000   116 ;		TM_SETUP AND TM_CLEANUP ARE CALLED TO PERFORM
                                     0000   117 ; REQUIRED HOUSEKEEPING AT THE BEGINNING AND END, RESPECTIVELY, OF
                                     0000   118 ; TEST MODULE EXECUTION.
                                     0000   119 ;
                                     0000   120 ; CALLING SEQUENCE:
                                     0000   121 ;
                                     0000   122 ;	BSBW TM_SETUP   BSBW TM_CLEANUP
                                     0000   123 ;
                                     0000   124 ; INPUT PARAMETERS:
                                     0000   125 ;
                                     0000   126 ;	NONE
                                     0000   127 ;
                                     0000   128 ; IMPLICIT INPUTS:
                                     0000   129 ;
                                     0000   130 ;	NONE
                                     0000   131 ;
                                     0000   132 ; OUTPUT PARAMETERS:
                                     0000   133 ;
                                     0000   134 ;	NONE
                                     0000   135 ;
                                     0000   136 ; IMPLICIT OUTPUTS:
                                     0000   137 ;
                                     0000   138 ;	TM_SETUP:  COND TABLE INDEX REGISTERS (R2,3,4,5,6) CLEARED;
                                     0000   139 ;		   ALL PRIVILEGES ACQUIRED.
                                     0000   140 ;
                                     0000   141 ; COMPLETION CODES:
                                     0000   142 ;
                                     0000   143 ;	EFLAG SET TO NON-ZERO IF ERROR ENCOUNTERED.
                                     0000   144 ;
                                     0000   145 ; SIDE EFFECTS:
                                     0000   146 ;
                                     0000   147 ;	SS_CHECK AND ERR_EXIT MACROS CAUSE PREMATURE EXIT
                                     0000   148 ;	(VIA RSB) IF ERROR ENCOUNTERED.
                                     0000   149 ;
                                     0000   150 ;--
                                     0000   151
                                     0000   152
                                     0000   153
                                     0000   154 TM_SETUP::
                          52     D4  0000   155 	CLRL	R2			; INITIALIZE
                          53     D4  0002   156 	CLRL	R3			; .. CONDITION
                          54     D4  0004   157 	CLRL	R4			; .... TABLE
                          55     D4  0006   158 	CLRL	R5			; ...... INDEX
                          56     D4  0008   159 	CLRL	R6			; ........ REGISTERS
                          FFF3'  30  000A   160 	BSBW	MOD_MSG_PRINT		; PRINT TEST MODULE BEGIN MSG
   00000000'EF   00000000'EF     DE  000D   161 	MOVAL	TEST_MOD_SUCC,TMD_ADDR	; ASSUME END MSG WILL SHOW SUCCESS
            00   00000000'8F     F0  0018   162 	INSV	#SUCCESS,#0,#3,MOD_MSG_CODE ; ADJUST STATUS CODE FOR SUCCESS
   00000000'EF            03         001F
                                     0025   163 	MODE	TO,5$,KRNL		; KERNEL MODE TO ACCESS PHD
            59   00000000'9F     D0  0048   164 	MOVL	@#CTL$GL_PHD,R9		; GET PROCESS HEADER ADDRESS
   00000000'EF            69     DE  004F   165 	MOVAL	PHD$Q_PRIVMSK(R9),PRIVMASK ; GET PRIV MASK ADDRESS
                                     0056   166 	MODE	FROM,5$	; BACK TO USER MODE
                                     0057   167 	PRIV	ADD,ALL			; GET ALL PRIVILEGES
SATSSS44        SATS SYSTEM SERVICE TESTS  $SETPRN (SUCC S.C.)   22-AUG-1978 04:07:57   VAX-11 MACRO X0.3-11               Page   7
1.0             TM_SETUP, TM_CLEANUP                                                                                             (1)

                                     0080   168 	$SETPRN_S TEST_MOD_NAME_D 	; SET PROCESS NAME
                                     008D   169 	SS_CHECK  NORMAL		; CHECK STATUS CODE RETURNED FROM SETPRN
                                     00BB   170 	$WAKE_S	THISPID			; GET "MY" PID FOR LATER USE
                                     00CA   171 	SS_CHECK NORMAL			; CHECK NORMAL RETURN
                                     00F8   172 	$HIBER_S			; UNDO WAKE
                                     00FF   173 	SS_CHECK NORMAL			; CHECK NORMAL RETURN
                                 05  012D   174 	RSB				; RETURN TO MAIN ROUTINE
                                     012E   175 TM_CLEANUP::
                          FECF'  30  012E   176 	BSBW	MOD_MSG_PRINT		; PRINT TEST MODULE END MSG
                                 05  0131   177 	RSB				; RETURN TO MAIN ROUTINE
SATSSS44        SATS SYSTEM SERVICE TESTS  $SETPRN (SUCC S.C.)   22-AUG-1978 04:07:57   VAX-11 MACRO X0.3-11               Page   8
1.0             CONDITION SUBROUTINES - SETUP AND CLEANUP                                                                        (1)

                                     0132   179 	.SBTTL	CONDITION SUBROUTINES - SETUP AND CLEANUP
                                     0132   180 ;++
                                     0132   181 ; FUNCTIONAL DESCRIPTION:
                                     0132   182 ;
                                     0132   183 ;		CONDX AND CONDX_CLEANUP ARE SUBROUTINES WHICH ARE EXECUTED
                                     0132   184 ; BEFORE AND AFTER THE VERIFY SUBROUTINE, RESPECTIVELY, WHENEVER A NEW
                                     0132   185 ; CONDITION X VALUE IS SELECTED (SEE FUNCTIONAL DESCRIPTION OF SUCCOMMON
                                     0132   186 ; ROUTINE IN SUCCOMMON.MAR). ANY SETUP FUNCTION PARTICULAR TO THE
                                     0132   187 ; CONDITION X TABLE IS INCLUDED IN THE CONDX SUBROUTINE AND CLEANED
                                     0132   188 ; UP, IF NECESSARY, IN THE CONDX_CLEANUP SUBROUTINE. THIS INCLUDES,
                                     0132   189 ; ESPECIALLY, CODE TO DETECT CONFLICTS AMONG CURRENT ENTRIES IN TWO
                                     0132   190 ; OR MORE CONDITION TABLES. IF A CONFLICT IS DETECTED, A NON-ZERO
                                     0132   191 ; VALUE IS STORED INTO CONFLICT, WHICH CAUSES THE CALLING ROUTINE
                                     0132   192 ; (SUCCOMMON) TO SKIP THE CURRENT ENTRY IN THE CONDITION X TABLE.
                                     0132   193 ;
                                     0132   194 ; CALLING SEQUENCE:
                                     0132   195 ;
                                     0132   196 ;	BSBW CONDX   BSBW CONDX_CLEANUP
                                     0132   197 ;	  WHERE X = 1,2,3,4,5
                                     0132   198 ;
                                     0132   199 ; INPUT PARAMETERS:
                                     0132   200 ;
                                     0132   201 ;	CONFLICT = 0
                                     0132   202 ;
                                     0132   203 ; IMPLICIT INPUTS:
                                     0132   204 ;
                                     0132   205 ;	R2,3,4,5,6 CONTAIN CURRENT CONDITION TABLE INDEX VALUES
                                     0132   206 ;	  FOR COND TABLES 1,2,3,4,5, RESPECTIVELY.
                                     0132   207 ;
                                     0132   208 ; OUTPUT PARAMETERS:
                                     0132   209 ;
                                     0132   210 ;	CONFLICT SET TO NON-ZERO IF COND TABLE CONFLICT DETECTED.
                                     0132   211 ;
                                     0132   212 ; IMPLICIT OUTPUTS:
                                     0132   213 ;
                                     0132   214 ;	R2,3,4,5,6 PRESERVED
                                     0132   215 ;
                                     0132   216 ; COMPLETION CODES:
                                     0132   217 ;
                                     0132   218 ;	NONE
                                     0132   219 ;
                                     0132   220 ; SIDE EFFECTS:
                                     0132   221 ;
                                     0132   222 ;	NONE
                                     0132   223 ;
                                     0132   224 ;--
                                     0132   225
                                     0132   226
                                     0132   227
                                     0132   228 COND1::
                                 05  0132   229 	RSB				; RETURN TO MAIN ROUTINE
                                     0133   230 COND1_CLEANUP::
                                 05  0133   231 	RSB				; RETURN TO MAIN ROUTINE
                                     0134   232 COND2::
                                 05  0134   233 	RSB				; RETURN TO MAIN ROUTINE
                                     0135   234 COND2_CLEANUP::
                                 05  0135   235 	RSB				; RETURN TO MAIN ROUTINE
SATSSS44        SATS SYSTEM SERVICE TESTS  $SETPRN (SUCC S.C.)   22-AUG-1978 04:07:57   VAX-11 MACRO X0.3-11               Page   9
1.0             CONDITION SUBROUTINES - SETUP AND CLEANUP                                                                        (1)

                                     0136   236 COND3::
                                 05  0136   237 	RSB				; RETURN TO MAIN ROUTINE
                                     0137   238 COND3_CLEANUP::
                                 05  0137   239 	RSB				; RETURN TO MAIN ROUTINE
                                     0138   240 COND4::
                                 05  0138   241 	RSB				; RETURN TO MAIN ROUTINE
                                     0139   242 COND4_CLEANUP::
                                 05  0139   243 	RSB				; RETURN TO MAIN ROUTINE
                                     013A   244 COND5::
                                 05  013A   245 	RSB				; RETURN TO MAIN ROUTINE
                                     013B   246 COND5_CLEANUP::
                                 05  013B   247 	RSB				; RETURN TO MAIN ROUTINE
SATSSS44        SATS SYSTEM SERVICE TESTS  $SETPRN (SUCC S.C.)   22-AUG-1978 04:07:57   VAX-11 MACRO X0.3-11               Page  10
1.0             FORM_CONDS                                                                                                       (1)

                                     013C   249 	.SBTTL	FORM_CONDS
                                     013C   250 ;++
                                     013C   251 ; FUNCTIONAL DESCRIPTION:
                                     013C   252 ;
                                     013C   253 ; 		FORM_CONDS FORMATS AND PRINTS INFORMATION ABOUT
                                     013C   254 ;  THE CURRENT ELEMENT IN EACH OF THE CONDITION TABLES.
                                     013C   255 ;
                                     013C   256 ; CALLING SEQUENCE:
                                     013C   257 ;
                                     013C   258 ;	BSBW FORM_CONDS
                                     013C   259 ;
                                     013C   260 ; INPUT PARAMETERS:
                                     013C   261 ;
                                     013C   262 ;	NONE
                                     013C   263 ;
                                     013C   264 ; IMPLICIT INPUTS:
                                     013C   265 ;
                                     013C   266 ;	R2,3,4,5,6 CONTAIN CURRENT CONDITION TABLE INDEX VALUES
                                     013C   267 ;	  FOR COND TABLES 1,2,3,4,5, RESPECTIVELY.
                                     013C   268 ;	FOR X = 1,2,3,4,5 :
                                     013C   269 ;		CONDX_T - TITLE TEXT FOR CONDX TABLE
                                     013C   270 ;		CONDX_TAB - ELEMENT TEXT FOR CONDX TABLE
                                     013C   271 ;		CONDX_C - CONTEXT OF THE CONDX TABLE
                                     013C   272 ;		CONDX_E - DATA ELEMENTS OF THE CONDX TABLE
                                     013C   273 ;
                                     013C   274 ; OUTPUT PARAMETERS:
                                     013C   275 ;
                                     013C   276 ;	NONE
                                     013C   277 ;
                                     013C   278 ; IMPLICIT OUTPUTS:
                                     013C   279 ;
                                     013C   280 ;	NONE
                                     013C   281 ;
                                     013C   282 ; COMPLETION CODES:
                                     013C   283 ;
                                     013C   284 ;	NONE
                                     013C   285 ;
                                     013C   286 ; SIDE EFFECTS:
                                     013C   287 ;
                                     013C   288 ;	NONE
                                     013C   289 ;
                                     013C   290 ;--
                                     013C   291
                                     013C   292
                                     013C   293
                                     013C   294 FORM_CONDS::
                                     013C   295 	$FAO_S	MSG1_INP_CTL,FAO_LEN,FAO_DESC,TESTNUM
                                     015B   296 					; FORMAT CONDITIONS HEADER MSG
                          FEA2'  30  015B   297 	BSBW	OUTPUT_MSG		; ... AND PRINT IT
            14            00     91  015E   298 	CMPB	#COND1_C,#NULL		; IS CONDITION 1 NULL ?
                          03     12  0161   299 	BNEQU	10$			; NO -- CONTINUE
                          00BF   31  0163   300 	BRW	FORM_CONDSX		; YES -- SUBROUTINE IS FINISHED
                                     0166   301 10$:
   00000000'EF   0000001B'EF     DE  0166   302 	MOVAL	COND1_T,MSG_A		; SAVE ADDRESS OF CONDITION 1 TITLE FOR FAO
   00000000'EF   00000037'EF42   D0  0171   303 	MOVL	COND1_TAB[R2],MSG_B 	; SAVE ADDR OF COND 1 CURR TEXT ELT FOR FAO
   00000000'EF            00     90  017D   304 	MOVB	#COND1_C,MSG_CTXT 	; SAVE CONDITION 1 CONTEXT FOR FAO
                                     0184   305 	MOV_VAL	COND1_C,COND1_E[R2],MSG_DATA1 ; GIVE COND 1 DATA VALUE TO FAO
SATSSS44        SATS SYSTEM SERVICE TESTS  $SETPRN (SUCC S.C.)   22-AUG-1978 04:07:57   VAX-11 MACRO X0.3-11               Page  11
1.0             FORM_CONDS                                                                                                       (1)

                          FE79'  30  0184   306 	BSBW	WRITE_MSG2		; FORMAT AND WRITE CONDITION 1 MSG
            14            00     91  0187   307 	CMPB	#COND2_C,#NULL		; IS CONDITION 2 NULL ?
                          03     12  018A   308 	BNEQU	20$			; NO -- CONTINUE
                          0096   31  018C   309 	BRW	FORM_CONDSX		; YES -- SUBROUTINE IS FINISHED
                                     018F   310 20$:
   00000000'EF   0000009E'EF     DE  018F   311 	MOVAL	COND2_T,MSG_A		; SAVE ADDRESS OF CONDITION 2 TITLE FOR FAO
   00000000'EF   000000B6'EF43   D0  019A   312 	MOVL	COND2_TAB[R3],MSG_B 	; SAVE ADDR OF COND 2 CURR TEXT ELT FOR FAO
   00000000'EF            00     90  01A6   313 	MOVB	#COND2_C,MSG_CTXT 	; SAVE CONDITION 2 CONTEXT FOR FAO
                                     01AD   314 	MOV_VAL	COND2_C,COND2_E[R3],MSG_DATA1 ; GIVE COND 2 DATA VALUE TO FAO
                          FE50'  30  01AD   315 	BSBW	WRITE_MSG2		; FORMAT AND WRITE CONDITION 2 MSG
            14            14     91  01B0   316 	CMPB	#COND3_C,#NULL		; IS CONDITION 3 NULL ?
                          03     12  01B3   317 	BNEQU	30$			; NO -- CONTINUE
                          006D   31  01B5   318 	BRW	FORM_CONDSX		; YES -- SUBROUTINE IS FINISHED
                                     01B8   319 30$:
   00000000'EF   000000F4'EF     DE  01B8   320 	MOVAL	COND3_T,MSG_A		; SAVE ADDRESS OF CONDITION 3 TITLE FOR FAO
   00000000'EF   000000F4'EF44   D0  01C3   321 	MOVL	COND3_TAB[R4],MSG_B 	; SAVE ADDR OF COND 3 CURR TEXT ELT FOR FAO
   00000000'EF            14     90  01CF   322 	MOVB	#COND3_C,MSG_CTXT 	; SAVE CONDITION 3 CONTEXT FOR FAO
                                     01D6   323 	MOV_VAL	COND3_C,COND3_E[R4],MSG_DATA1 ; GIVE COND 3 DATA VALUE TO FAO
                          FE27'  30  01D6   324 	BSBW	WRITE_MSG2		; FORMAT AND WRITE CONDITION 3 MSG
            14            14     91  01D9   325 	CMPB	#COND4_C,#NULL		; IS CONDITION 4 NULL ?
                          47     13  01DC   326 	BEQLU	FORM_CONDSX		; YES -- SUBROUTINE IS FINISHED
   00000000'EF   000000F5'EF     DE  01DE   327 	MOVAL	COND4_T,MSG_A		; SAVE ADDRESS OF CONDITION 4 TITLE FOR FAO
   00000000'EF   000000F5'EF45   D0  01E9   328 	MOVL	COND4_TAB[R5],MSG_B 	; SAVE ADDR OF COND 4 CURR TEXT ELT FOR FAO
   00000000'EF            14     90  01F5   329 	MOVB	#COND4_C,MSG_CTXT 	; SAVE CONDITION 4 CONTEXT FOR FAO
                                     01FC   330 	MOV_VAL	COND4_C,COND4_E[R5],MSG_DATA1 ; GIVE COND 4 DATA VALUE TO FAO
                          FE01'  30  01FC   331 	BSBW	WRITE_MSG2		; FORMAT AND WRITE CONDITION 4 MSG
            14            14     91  01FF   332 	CMPB	#COND5_C,#NULL		; IS CONDITION 5 NULL ?
                          21     13  0202   333 	BEQLU	FORM_CONDSX		; YES -- SUBROUTINE IS FINISHED
   00000000'EF   000000F6'EF     DE  0204   334 	MOVAL	COND5_T,MSG_A		; SAVE ADDRESS OF CONDITION 5 TITLE FOR FAO
   00000000'EF   000000F6'EF46   D0  020F   335 	MOVL	COND5_TAB[R6],MSG_B 	; SAVE ADDR OF COND 5 CURR TEXT ELT FOR FAO
   00000000'EF            14     90  021B   336 	MOVB	#COND5_C,MSG_CTXT 	; SAVE CONDITION 5 CONTEXT FOR FAO
                                     0222   337 	MOV_VAL	COND5_C,COND5_E[R6],MSG_DATA1 ; GIVE COND 5 DATA VALUE TO FAO
                          FDDB'  30  0222   338 	BSBW	WRITE_MSG2		; FORMAT AND WRITE CONDITION 5 MSG
                                     0225   339 FORM_CONDSX:
                                 05  0225   340 	RSB				; RETURN TO CALLER
SATSSS44        SATS SYSTEM SERVICE TESTS  $SETPRN (SUCC S.C.)   22-AUG-1978 04:07:57   VAX-11 MACRO X0.3-11               Page  12
1.0             VERIFY                                                                                                           (1)

                                     0226   342 	.SBTTL	VERIFY
                                     0226   343 ;++
                                     0226   344 ; FUNCTIONAL DESCRIPTION:
                                     0226   345 ;
                                     0226   346 ;		VERIFY IS CALLED ONCE FOR EACH COMBINATION OF CONDITION
                                     0226   347 ; TABLE VALUES (AS DETERMINED BY THE INDEX REGISTERS R2,3,4,5,6 FOR
                                     0226   348 ; COND TABLES 1,2,3,4,5, RESPECTIVELY). VERIFY ESTABLISHES THE CONDITIONS
                                     0226   349 ; SPECIFIED BY THE COND TABLES AND ISSUES THE SUBJECT SYSTEM SERVICE
                                     0226   350 ; ($SETPRN). THEN, THE SUCCESSFUL OPERATION OF THE SERVICE IS VERIFIED
                                     0226   351 ; BY EXAMINING THE STATUS CODE RETURNED, THE VALUES FOR RETURN ARGUMENTS
                                     0226   352 ; AND THE FUNCTIONALITY PERFORMED. THE EXAMINATIONS TAKE THE FORM OF
                                     0226   353 ; COMPARISONS AGAINST EXPECTED VALUES. ANY FAILING COMPARISON CAUSES AN
                                     0226   354 ; ERR_EXIT MACRO TO BE EXECUTED (EITHER DIRECTLY, OR INDIRECTLY,
                                     0226   355 ; THROUGH THE SS_CHECK MACRO); ERR_EXIT SETS EFLAG TO NON-ZERO,
                                     0226   356 ; PRINTS ERROR MESSAGES AND CAUSES AN IMMEDIATE RSB TO CALLER.
                                     0226   357 ; WHEN ERR_EXIT IS EXECUTED, FURTHER CALLS TO VERIFY ARE SUPPRESSED,
                                     0226   358 ; AND, AFTER EXECUTING CLEANUP SUBROUTINES, THE IMAGE EXITS.
                                     0226   359 ;
                                     0226   360 ; CALLING SEQUENCE:
                                     0226   361 ;
                                     0226   362 ;	BSBW VERIFY
                                     0226   363 ;
                                     0226   364 ; INPUT PARAMETERS:
                                     0226   365 ;
                                     0226   366 ;	NONE
                                     0226   367 ;
                                     0226   368 ; IMPLICIT INPUTS:
                                     0226   369 ;
                                     0226   370 ;	R2,3,4,5,6 CONTAIN CURRENT CONDITION TABLE INDEX VALUES
                                     0226   371 ;	  FOR COND TABLES 1,2,3,4,5, RESPECTIVELY.
                                     0226   372 ;	FOR X = 1,2,3,4,5 :
                                     0226   373 ;		CONDX_E - ADDRESS OF TABLE OF DATA VALUES FOR CONDX
                                     0226   374 ;		  TABLE. IF THE CONTEXT OF TABLE X IS A SYSTEM SERVICE
                                     0226   375 ;		  ARGUMENT, THE ARGUMENT NAME MAY BE USED AS A SYNONYM
                                     0226   376 ;		  FOR CONDX_E.
                                     0226   377 ;
                                     0226   378 ; OUTPUT PARAMETERS:
                                     0226   379 ;
                                     0226   380 ;	NONE
                                     0226   381 ;
                                     0226   382 ; IMPLICIT OUTPUTS:
                                     0226   383 ;
                                     0226   384 ;	VERIFY HAS NO OUTPUT. SINCE ITS PURPOSE IS TO TEST FOR ERRORS,
                                     0226   385 ;	IT MERELY RETURNS TO CALLER NORMALLY AFTER THE TESTS, PROVIDING
                                     0226   386 ;	ALL WERE SUCCESSFUL; IF AN ERROR IS DISCOVERED, RETURN IS VIA
                                     0226   387 ;	AN ERR_EXIT OR SS_CHECK MACRO, BOTH OF WHICH DOCUMENT DETECTED
                                     0226   388 ;	ERRORS.
                                     0226   389 ;
                                     0226   390 ; COMPLETION CODES:
                                     0226   391 ;
                                     0226   392 ;	EFLAG SET TO NON-ZERO IF ERROR ENCOUNTERED.
                                     0226   393 ;
                                     0226   394 ; SIDE EFFECTS:
                                     0226   395 ;
                                     0226   396 ;	SS_CHECK AND ERR_EXIT MACROS CAUSE PREMATURE EXIT
                                     0226   397 ;	(VIA RSB) IF ERROR ENCOUNTERED.
                                     0226   398 ;
SATSSS44        SATS SYSTEM SERVICE TESTS  $SETPRN (SUCC S.C.)   22-AUG-1978 04:07:57   VAX-11 MACRO X0.3-11               Page  13
1.0             VERIFY                                                                                                           (1)

                                     0226   399 ;--
                                     0226   400
                                     0226   401
                                     0226   402
                                     0226   403 VERIFY::
                 00000000'EF     95  0226   404 	TSTB	CFLAG			; SHOULD CONDITIONS BE PRINTED ?
                          03     13  022C   405 	BEQL	5$			; NO -- CONTINUE
                          FF0B   30  022E   406 	BSBW	FORM_CONDS		; YES -- FMT & PRINT ALL CONDS FOR THIS T.C.
                                     0231   407 5$:
   0000000C'EF   00000000'EF     B0  0231   408 	MOVW	TESTNUM,PROCNAME 	; MAKE PROCESS NAME UNIQUE FOR EACH T.C.
                          53     D5  023C   409 	TSTL	R3			; FIRST CONDITION 2 ELEMENT ?
                          3D     12  023E   410 	BNEQ	10$			; NO -- GO PROCESS 2ND ELEMENT
                                     0240   411 	$SETPRN_S PREVNAME		; YES -- ESTABLISH A "PREVIOUS" NAME
                                     024D   412 	SS_CHECK NORMAL			; ... AND CHECK COMPLETION
                          37     11  027B   413 	BRB	20$			; ... CONTINUE
                                     027D   414 10$:
                                     027D   415 	$SETPRN_S			; DELETE ANY POSSIBLE NAME
                                     0286   416 	SS_CHECK NORMAL			; ... CHECK IT
                                     02B4   417 20$:
            58   0000008E'EF42   D0  02B4   418 	MOVL	COND1_E[R2],R8		; GET PRCNAM ADDRESS OUT OF TABLE
                                     02BC   419 ;
                                     02BC   420 ; ****** SYSTEM SERVICE CALL WHICH IS THE SUBJECT OF THIS TEST CASE ******
                                     02BC   421 ;
                                     02BC   422 	$SETPRN_S	(R8)		; ISSUE SUBJECT SETPRN
   00000000'8F            50     D1  02C5   423 	CMPL	R0,#SS$_NORMAL		; CODE RECEIVED = CODE EXPECTED ?
                          03     12  02CC   424 	BNEQU	23$			; NO -- GO PROCESS ERROR
                          0061   31  02CE   425 	BRW	27$			; YES -- CONTINUE
                                     02D1   426 23$:
   00000000'EF   00000000'8F     D0  02D1   427 	MOVL	#SS$_NORMAL,EXPV 	; LOAD UP EXPECTED AND ...
   00000000'EF            50     D0  02DC   428 	MOVL	R0,RECV			; ... RECEIVED VALUES, THEN EXIT
                                     02E3   429 	ERR_EXIT LONG,<INCORRECT STATUS CODE RETURNED FROM SETPRN>
                                     0332   430 27$:
                          58     D5  0332   431 	TSTL	R8			; WAS PROCESS NAME SPECIFIED ?
                          78     13  0334   432 	BEQL	40$			; NO -- GO DO SOME CHECKING
                                     0336   433 ; *
                                     0336   434 ; * IF FOLLOWING RESUME & SUSPND WORK TOGETHER, THEN PROCESS
                                     0336   435 ; * NAME WAS ESTABLISHED CORRECTLY.
                                     0336   436 ; *
                                     0336   437 	$RESUME_S PRCNAM=(R8)		; RESUME USING PROCESS NAME
                                     0341   438 	SS_CHECK NORMAL			; ... AND CHECK RETURN
                                     036F   439 	$SUSPND_S THISPID		; SUSPND THIS PROCESS USING PID
                                     037E   440 	SS_CHECK NORMAL			; ... CHECK RETURN
                          3D     11  03AC   441 	BRB	VERIFYX			; ... AND EXIT
                                     03AE   442 40$:
                                     03AE   443 	$WAKE_S PRCNAM=PREVNAME		; PRCNAM SHOULD NOT EXIST
                                     03BD   444 	SS_CHECK NONEXPR		; CHECK THAT IT DOESN'T
                                     03EB   445 VERIFYX:
                                 05  03EB   446 	RSB				; RETURN TO CALLER
SATSSS44        SATS SYSTEM SERVICE TESTS  $SETPRN (SUCC S.C.)   22-AUG-1978 04:07:57   VAX-11 MACRO X0.3-11               Page  14
1.0             VFY_CLEANUP                                                                                                      (1)

                                     03EC   448 	.SBTTL	VFY_CLEANUP
                                     03EC   449 ;++
                                     03EC   450 ; FUNCTIONAL DESCRIPTION:
                                     03EC   451 ;
                                     03EC   452 ;		VFY_CLEANUP EXECUTES SYSTEM SERVICES TO UNDO THE
                                     03EC   453 ; EFFECT OF THOSE ISSUED IN THE VERIFY SUBROUTINE. VFY_CLEANUP MUST
                                     03EC   454 ; ASSUME THAT VERIFY MAY NOT HAVE EXECUTED IN ITS ENTIRETY (IF AN
                                     03EC   455 ; ERROR IS FOUND). ALSO, VFY_CLEANUP MAY ISSUE SS_CHECK OR ERR_EXIT
                                     03EC   456 ; ONLY AFTER PERFORMING ALL OF ITS CLEANUP OPERATIONS; THIS IS REQUIRED
                                     03EC   457 ; IN THE EVENT THAT VFY_CLEANUP IS CALLED DURING ERROR PROCESSING,
                                     03EC   458 ; WHEN PERFORMING THE REQUIRED CLEANUP IS MORE IMPORTANT THAN
                                     03EC   459 ; POSSIBLY DISCOVERING A SECOND ERROR.
                                     03EC   460 ;
                                     03EC   461 ; CALLING SEQUENCE:
                                     03EC   462 ;
                                     03EC   463 ;	BSBW VFY_CLEANUP
                                     03EC   464 ;
                                     03EC   465 ; INPUT PARAMETERS:
                                     03EC   466 ;
                                     03EC   467 ;	NONE
                                     03EC   468 ;
                                     03EC   469 ; IMPLICIT INPUTS:
                                     03EC   470 ;
                                     03EC   471 ;	R2,3,4,5,6 CONTAIN CURRENT CONDITION TABLE INDEX VALUES
                                     03EC   472 ;	  FOR COND TABLES 1,2,3,4,5, RESPECTIVELY.
                                     03EC   473 ;	FOR X = 1,2,3,4,5 :
                                     03EC   474 ;		CONDX_E - ADDRESS OF TABLE OF DATA VALUES FOR CONDX
                                     03EC   475 ;		  TABLE. IF THE CONTEXT OF TABLE X IS A SYSTEM SERVICE
                                     03EC   476 ;		  ARGUMENT, THE ARGUMENT NAME MAY BE USED AS A SYNONYM
                                     03EC   477 ;		  FOR CONDX_E.
                                     03EC   478 ;
                                     03EC   479 ; OUTPUT PARAMETERS:
                                     03EC   480 ;
                                     03EC   481 ;	NONE
                                     03EC   482 ;
                                     03EC   483 ; IMPLICIT OUTPUTS:
                                     03EC   484 ;
                                     03EC   485 ;	NONE
                                     03EC   486 ;
                                     03EC   487 ; COMPLETION CODES:
                                     03EC   488 ;
                                     03EC   489 ;	EFLAG SET TO NON-ZERO IF ERROR ENCOUNTERED.
                                     03EC   490 ;
                                     03EC   491 ; SIDE EFFECTS:
                                     03EC   492 ;
                                     03EC   493 ;	SS_CHECK AND ERR_EXIT MACROS CAUSE PREMATURE EXIT
                                     03EC   494 ;	(VIA RSB) IF ERROR ENCOUNTERED.
                                     03EC   495 ;
                                     03EC   496 ;--
                                     03EC   497
                                     03EC   498
                                     03EC   499
                                     03EC   500 VFY_CLEANUP::
                                 05  03EC   501 	RSB				; RETURN TO CALLER
                                     03ED   502 	.END
SATSSS44        SATS SYSTEM SERVICE TESTS  $SETPRN (SUCC S.C.)   22-AUG-1978 04:07:57   VAX-11 MACRO X0.3-11               Page  15
SYMBOL TABLE                                                                                                                     (1)

$$$$           = 000002ED R     05   FAO_LEN          ********   X   05   PHD$L_R6         000000A0
$$$CHARS       = 0000002A            FORM_CONDS       0000013C RG    05   PHD$L_R7         000000A4
$$$CHARS1      = 00000017            FORM_CONDSX      00000225 R     05   PHD$L_R8         000000A8
$$$CHARS2      = 0000001D            GBL...         = 00000000            PHD$L_R9         000000AC
$$$CHARS3      = 00000000            LONG           = 00000004  G         PHD$L_REFERFLT   00000014
$$$CHARS4      = 00000000            MOD_MSG_CODE     ********   X   05   PHD$L_SSP        00000080
$$$CHARS5      = 00000000            MOD_MSG_PRINT    ********   X   05   PHD$L_USP        00000084
$$$COND_A      = 00000001            MSG1_INP_CTL     00000019 R     03   PHD$L_WSL        00000118
$$$STRINGS     = 00000001            MSG3_ERR_CTL     00000039 RG    03   PHD$M_DALCSTX  = 00000002
$$$STRINGS2    = 00000005            MSG_A            ********   X   05   PHD$M_PFMFLG   = 00000001
$$T2           = 00000004            MSG_B            ********   X   05   PHD$M_WSPEAKCHK= 00000004
BIT...         = 00000020            MSG_CTXT         ********   X   05   PHD$Q_PRIVMSK    00000000
BYTE           = 00000001  G         NOTARG         = 00000000  G         PHD$S_ASTLVL   = 00000008
CFLAG            ********   X   05   NULL           = 00000014  G         PHD$S_P0LR     = 00000018
CHAR1            00000059 R     03   ONES             ********   X   05   PHD$V_ASTLVL   = 00000018
CHAR15           00000069 R     03   OUTPUT_MSG       ********   X   05   PHD$V_DALCSTX  = 00000001
CHAR7            00000061 R     03   PCV              ********   X   05   PHD$V_P0LR     = 00000000
CHMRTN           ********   X   05   PHD$B_ASTLVL     000000CF            PHD$V_PFMFLG   = 00000000
CHM_CONT         ********   X   05   PHD$B_DFPFC      00000038            PHD$V_WSPEAKCHK= 00000002
COMP_SC          ********   X   05   PHD$B_PAGFIL     0000001F            PHD$W_ASTLM      00000044
COND1            00000132 RG    05   PHD$B_PGTBPFC    00000039            PHD$W_BAK        00000048
COND1_C        = 00000000            PHD$C_LENGTH     00000118            PHD$W_DFWSCNT    0000001A
COND1_CLEANUP    00000133 RG    05   PHD$C_PHDPAGCTX= 00000008            PHD$W_EMPTPG     000000D8
COND1_E          0000008E R     04   PHD$K_LENGTH     00000118            PHD$W_EXTDYNWS   00000076
COND1_H          00000036 RG    04   PHD$L_BIOCNT     00000054            PHD$W_FILLM      00000060
COND1_T          0000001B R     04   PHD$L_CPULIM     00000058            PHD$W_FLAGS      0000003A
COND1_TAB        00000037 R     04   PHD$L_CPUTIM     0000003C            PHD$W_PHVINDEX   00000046
COND2            00000134 RG    05   PHD$L_DIOCNT     00000050            PHD$W_PRCLM      00000042
COND2_C        = 00000000            PHD$L_ESP        0000007C            PHD$W_PST        00000020
COND2_CLEANUP    00000135 RG    05   PHD$L_FREP0VA    00000028            PHD$W_PSTBASMAX  0000004A
COND2_E          000000F4 R     04   PHD$L_FREP1VA    00000030            PHD$W_PSTFREE    00000026
COND2_H          000000B5 RG    04   PHD$L_FREPTECNT  0000002C            PHD$W_PSTLAST    00000024
COND2_T          0000009E R     04   PHD$L_KSP        00000078            PHD$W_PTCNTACT   00000070
COND2_TAB        000000B6 R     04   PHD$L_P0BR       000000C8            PHD$W_PTCNTLCK   0000006C
COND3            00000136 RG    05   PHD$L_P0LRASTL   000000CC            PHD$W_PTCNTMAX   00000072
COND3_C        = 00000014            PHD$L_P1BR       000000D0            PHD$W_PTCNTVAL   0000006E
COND3_CLEANUP    00000137 RG    05   PHD$L_P1LR       000000D4            PHD$W_QUANT      00000040
COND3_H          000000F4 RG    04   PHD$L_PAGEFLTS   0000004C            PHD$W_TQLM       00000062
COND3_T          000000F4 R     04   PHD$L_PAGFIL     0000001C            PHD$W_WSAUTH     0000000A
COND3_TAB        000000F4 R     04   PHD$L_PC         000000C0            PHD$W_WSDYN      0000000E
COND4            00000138 RG    05   PHD$L_PCB        00000078            PHD$W_WSFLUID    00000074
COND4_C        = 00000014            PHD$L_PGFLCNT    00000034            PHD$W_WSLAST     00000012
COND4_CLEANUP    00000139 RG    05   PHD$L_PGFLQUOTA  0000005C            PHD$W_WSLIST     00000008
COND4_H          000000F5 RG    04   PHD$L_PSL        000000C4            PHD$W_WSLOCK     0000000C
COND4_T          000000F5 R     04   PHD$L_PSTBASOFF  00000020            PHD$W_WSLX       0000004A
COND4_TAB        000000F5 R     04   PHD$L_PTWSLELCK  00000064            PHD$W_WSNEXT     00000010
COND5            0000013A RG    05   PHD$L_PTWSLEVAL  00000068            PHD$W_WSQUOTA    00000018
COND5_C        = 00000014            PHD$L_R0         00000088            PREVNAME         00000051 R     03
COND5_CLEANUP    0000013B RG    05   PHD$L_R1         0000008C            PRIVMASK         00000000 R     04
COND5_H          000000F6 RG    04   PHD$L_R10        000000B0            PROCESS_ERR      ********   X   05
COND5_T          000000F6 R     04   PHD$L_R11        000000B4            PROCNAME         0000000C R     04
COND5_TAB        000000F6 R     04   PHD$L_R12        000000B8            PRV$V_ALLSPOOL = 00000004
CTL$GL_PHD       ********   X   05   PHD$L_R13        000000BC            PRV$V_BUGCHK   = 00000017
DESC           = 00000010  G         PHD$L_R2         00000090            PRV$V_CMEXEC   = 00000001
EFLAG            ********   X   05   PHD$L_R3         00000094            PRV$V_CMKRNL   = 00000000
EXPV             ********   X   05   PHD$L_R4         00000098            PRV$V_DETACH   = 00000005
FAO_DESC         ********   X   05   PHD$L_R5         0000009C            PRV$V_DIAGNOSE = 00000006
SATSSS44        SATS SYSTEM SERVICE TESTS  $SETPRN (SUCC S.C.)   22-AUG-1978 04:07:57   VAX-11 MACRO X0.3-11               Page  16
SYMBOL TABLE                                                                                                                     (1)

PRV$V_EXQUOTA  = 00000013
PRV$V_GROUP    = 00000008
PRV$V_GRPNAM   = 00000003
PRV$V_LOG_IO   = 00000007
PRV$V_MOUNT    = 00000011
PRV$V_NETMBX   = 00000014
PRV$V_NOACNT   = 00000009
PRV$V_OPER     = 00000012
PRV$V_PHY_IO   = 00000016
PRV$V_PRMCEB   = 0000000A
PRV$V_PRMGBL   = 00000018
PRV$V_PRMMBX   = 0000000B
PRV$V_PSWAPM   = 0000000C
PRV$V_SETPRI   = 0000000D
PRV$V_SETPRV   = 0000000E
PRV$V_SYSGBL   = 00000019
PRV$V_SYSNAM   = 00000002
PRV$V_TMPMBX   = 0000000F
PRV$V_VOLPRO   = 00000015
PRV$V_WORLD    = 00000010
QUAD           = 00000008  G
RECV             ********   X   05
REST_REGS        ********   X   05
SAVE_REGS        ********   X   05
SS$_NONEXPR      ********   X   05
SS$_NORMAL       ********   X   05
SUCCESS          ********   X   05
SYS$CMKRNL       ********   X   05
SYS$FAO          ********   X   05
SYS$HIBER        ********   X   05
SYS$RESUME       ********   X   05
SYS$SETPRN       ********   X   05
SYS$SUSPND       ********   X   05
SYS$WAKE         ********   X   05
TESTNUM          ********   X   05
TEST_MOD_NAME    00000000 RG    03
TEST_MOD_NAME_D  00000009 R     03
TEST_MOD_SUCC    ********   X   05
THISPID          00000008 R     04
TMD_ADDR         ********   X   05
TM_CLEANUP       0000012E RG    05
TM_SETUP         00000000 RG    05
VERIFY           00000226 RG    05
VERIFYX          000003EB R     05
VFY_CLEANUP      000003EC RG    05
WORD           = 00000002  G
WRITE_MSG2       ********   X   05


PROGRAM SECTION SYNOPSIS

.  ABS  .        00000000      00     NOPIC   USR   CON   ABS   LCL NOSHR NOEXE NORD  NOWRT BYTE
. BLANK .        00000000      01     NOPIC   USR   CON   REL   LCL NOSHR   EXE   RD    WRT BYTE
$ABS$            0000011C      02     NOPIC   USR   CON   ABS   LCL NOSHR   EXE   RD    WRT BYTE
RODATA           00000071      03     NOPIC   USR   CON   REL   LCL NOSHR NOEXE   RD  NOWRT LONG
RWDATA           000000F7      04     NOPIC   USR   CON   REL   LCL NOSHR NOEXE   RD    WRT LONG
SATSSS44         000003ED      05     NOPIC   USR   CON   REL   LCL NOSHR   EXE   RD    WRT BYTE
SATSSS44        SATS SYSTEM SERVICE TESTS  $SETPRN (SUCC S.C.)   22-AUG-1978 04:07:57   VAX-11 MACRO X0.3-11               Page  17
PROGRAM SECTION SYNOPSIS                                                                                                         (1)


THERE WERE NO ERRORS OR WARNINGS.
15592. BYTES LEFT IN FREE MEMORY POOL.
488. BYTES OF RECLAIMED MEMORY.
OBJ$:SATSSS44,LIS$:SATSSS44/-SP=EXECML$/ML,LIB$:SYSTST.MLB/ML,SRC$:SATSSS44
36 MLB DIR RDS - 615 GETS TO DEFINE 25 MACROS. 28 INTER. FILE WRITES.
