SATSSS78        SATS SYSTEM SERV TESTS  $LK/ULWSET (SUCC S.C.)   22-AUG-1978 04:17:43   VAX-11 MACRO X0.3-11               Page   0
TABLE OF CONTENTS

   (1)      48  DECLARATIONS
   (1)      79  CONDITION TABLES
   (1)     121  TM_SETUP, TM_CLEANUP
   (1)     184  CONDITION SUBROUTINES - SETUP AND CLEANUP
   (1)     266  FORM_CONDS
   (1)     359  VERIFY
   (1)     515  VFY_CLEANUP
SATSSS78        SATS SYSTEM SERV TESTS  $LK/ULWSET (SUCC S.C.)   22-AUG-1978 04:17:43   VAX-11 MACRO X0.3-11               Page   1
1.0                                                                                                                              (1)

                                     0000     1 	.TITLE	SATSSS78 SATS SYSTEM SERV TESTS  $LK/ULWSET (SUCC S.C.)
                                     0000     2 	.IDENT	/1.0/
                                     0000     3
                                     0000     4 ;
                                     0000     5 ;			  COPYRIGHT (c) 1977,1978 BY
                                     0000     6 ;	      DIGITAL EQUIPMENT CORPORATION, MAYNARD, MASS.
                                     0000     7 ;
                                     0000     8 ; THIS SOFTWARE IS FURNISHED UNDER A LICENSE AND MAY BE USED AND  COPIED
                                     0000     9 ; ONLY  IN  ACCORDANCE  WITH  THE  TERMS  OF  SUCH  LICENSE AND WITH THE
                                     0000    10 ; INCLUSION OF THE ABOVE COPYRIGHT NOTICE.  THIS SOFTWARE OR  ANY  OTHER
                                     0000    11 ; COPIES  THEREOF MAY NOT BE PROVIDED OR OTHERWISE MADE AVAILABLE TO ANY
                                     0000    12 ; OTHER PERSON.  NO TITLE TO AND OWNERSHIP OF  THE  SOFTWARE  IS  HEREBY
                                     0000    13 ; TRANSFERRED.
                                     0000    14 ;
                                     0000    15 ; THE INFORMATION IN THIS SOFTWARE IS SUBJECT TO CHANGE  WITHOUT  NOTICE
                                     0000    16 ; AND  SHOULD  NOT  BE  CONSTRUED  AS  A COMMITMENT BY DIGITAL EQUIPMENT
                                     0000    17 ; CORPORATION.
                                     0000    18 ;
                                     0000    19 ; DIGITAL ASSUMES NO RESPONSIBILITY FOR THE USE OR  RELIABILITY  OF  ITS
                                     0000    20 ; SOFTWARE ON EQUIPMENT WHICH IS NOT SUPPLIED BY DIGITAL.
                                     0000    21 ;
                                     0000    22
                                     0000    23 ;++
                                     0000    24 ; FACILITY:	SYSTST (SATS SYSTEM SERVICE TESTS)
                                     0000    25 ;
                                     0000    26 ; ABSTRACT:
                                     0000    27 ;
                                     0000    28 ;		THIS MODULE CONTAINS SUBROUTINES WHICH, WHEN LINKED
                                     0000    29 ; WITH SUCCOMMON.OBJ, FORM TEST MODULE SATSSS78 TO TEST SUCCESSFUL
                                     0000    30 ; OPERATION OF THE $LK/ULWSET SYSTEM SERVICES. EACH SERVICE IS INVOKED
                                     0000    31 ; UNDER VARIOUS INPUT CONDITIONS WITH VARYING INPUT PARAMETERS. ONLY
                                     0000    32 ; SUCCESSFUL STATUS CODES ARE EXPECTED IN THIS TEST MODULE.  CORRECT
                                     0000    33 ; OPERATION OF EACH SERVICE FOR EACH OF ITS ISSUANCES IS VERIFIED BY
                                     0000    34 ; CHECKING FOR AN SS$_NORMAL STATUS CODE, EXPECTED RETURN ARGUMENTS
                                     0000    35 ; AND EXPECTED FUNCTIONALITY PERFORMED.
                                     0000    36 ;
                                     0000    37 ; ENVIRONMENT:	USER MODE IMAGE; NEEDS CMKRNL PRIVILEGE,
                                     0000    38 ;		DYNAMICALLY ACQUIRES OTHER PRIVILEGES, AS NEEDED.
                                     0000    39 ;
                                     0000    40 ; AUTHOR: THOMAS L. CAFARELLA,		CREATION DATE: APR, 1978
                                     0000    41 ;
                                     0000    42 ; MODIFIED BY:
                                     0000    43 ;
                                     0000    44 ;	, : VERSION
                                     0000    45 ; 01	-
                                     0000    46 ;--
SATSSS78        SATS SYSTEM SERV TESTS  $LK/ULWSET (SUCC S.C.)   22-AUG-1978 04:17:43   VAX-11 MACRO X0.3-11               Page   2
1.0             DECLARATIONS                                                                                                     (1)

                                     0000    48 	.SBTTL	DECLARATIONS
                                     0000    49 ;
                                     0000    50 ; INCLUDE FILES:
                                     0000    51 ;
                                     0000    52 	$PRVDEF				; PRIVILEGE BIT DEFINITIONS
                                     0000    53 	$PHDDEF				; PROCESS HEADER OFFSETS
                                     0000    54 	$PSLDEF				; PROCESSOR STATUS LONGWORD DEFINITIONS
                                     0000    55 ;
                                     0000    56 ; MACROS:
                                     0000    57 ;
                                     0000    58 ;
                                     0000    59 ; EQUATED SYMBOLS:
                                     0000    60 ;
                                     0000    61 ;
                                     0000    62 ; OWN STORAGE:
                                     0000    63 ;
SATSSS78        SATS SYSTEM SERV TESTS  $LK/ULWSET (SUCC S.C.)   22-AUG-1978 04:17:43   VAX-11 MACRO X0.3-11               Page   3
1.0             DECLARATIONS                                                                                                     (1)

                                 00000000    65 	.PSECT	RODATA,RD,NOWRT,NOEXE,LONG
                                     0000    66 TEST_MOD_NAME::	STRING	C,<SATSSS78>	; TEST MODULE NAME
                                     0009    67 TEST_MOD_NAME_D: STRING	I,<SATSSS78>	; TEST MODULE NAME DESCRIPTOR
                                     0019    68 MSG1_INP_CTL:	STRING	I,<  SSLUW!4ZW: CONDITIONS:>
                                     0039    69 					; FAO CTL STRING FOR MSG1 IN SUCCOMMON.MAR
                                     0039    70 MSG3_ERR_CTL::	STRING	I,< *SSLUW!4ZW: !AS>
                                     0051    71 					; FAO CTL STRING FOR MSG3 IN SUCCOMMON.MAR
SATSSS78        SATS SYSTEM SERV TESTS  $LK/ULWSET (SUCC S.C.)   22-AUG-1978 04:17:43   VAX-11 MACRO X0.3-11               Page   4
1.0             DECLARATIONS                                                                                                     (1)

                                 00000000    73 	.PSECT	RWDATA,RD,WRT,NOEXE,LONG
                           00000008  0000    74 PRIVMASK:	.BLKQ	1		; ADDR OF PRIVILEGE MASK (IN PHD)
                           0000000C  0008    75 PAGCNT_ERG:	.BLKL	1		; PAGCNT ARGUMENT FOR EXPREG
                           00000010  000C    76 REGION_ERG:	.BLKL	1		; REGION ARGUMENT FOR EXPREG
                           00000018  0010    77 RETADR:		.BLKQ	1		; RETADR ARG FOR SUBJ $LKWSET & $ULWSET
SATSSS78        SATS SYSTEM SERV TESTS  $LK/ULWSET (SUCC S.C.)   22-AUG-1978 04:17:43   VAX-11 MACRO X0.3-11               Page   5
1.0             CONDITION TABLES                                                                                                 (1)

                                     0018    79 	.SBTTL	CONDITION TABLES
                                     0018    80 ;
                                     0018    81 ;	***** CONDITION TABLES FOR LKWSET/ULWSET SYSTEM SERVICES *****
                                     0018    82 ;
                                     0018    83 	COND	1,QUAD,<INADR>,-
                                     0018    84 		  <CURRENT IMAGE PAGE>,-
                                     0018    85 		  <PROGRAM REGION -- SINGLE PAGE>,-
                                     0018    86 		  <PROGRAM REGION -- MULTIPLE PAGES>,-
                                     0018    87 		  <CONTROL REGION -- SINGLE PAGE>,-
                                     0018    88 		  <CONTROL REGION -- MULTIPLE PAGES>,-
                                     0018    89
                  00000000'00000000' 00C4    90 		    .LONG	TM_SETUP,TM_SETUP
00000000'00000000'00000000'00000000' 00CC    91 		    .LONG	0[8]
00000000'00000000'00000000'00000000' 00DC
                                     00EC    92 ;
                                     00EC    93 	COND	2,NOTARG,<PAGE OWNER ACCESS MODE>,-
                                     00EC    94 		  <KERNEL>,-
                                     00EC    95 		  <EXECUTIVE>,-
                                     00EC    96 		  <SUPERVISOR>,-
                                     00EC    97 		  <USER>,-
                                     00EC    98
                           00000000  0135    99 		    .LONG	PSL$C_KERNEL
                           00000001  0139   100 		    .LONG	PSL$C_EXEC
                           00000002  013D   101 		    .LONG	PSL$C_SUPER
                           00000003  0141   102 		    .LONG	PSL$C_USER
                                     0145   103 ;
                                     0145   104 	COND	3,LONG,<ACMODE>,-
                                     0145   105 		  <KERNEL>,-
                                     0145   106 		  <EXECUTIVE>,-
                                     0145   107 		  <SUPERVISOR>,-
                                     0145   108 		  <USER>,-
                                     0145   109
                           00000000  017E   110 		    .LONG	PSL$C_KERNEL
                           00000001  0182   111 		    .LONG	PSL$C_EXEC
                           00000002  0186   112 		    .LONG	PSL$C_SUPER
                           00000003  018A   113 		    .LONG	PSL$C_USER
                                     018E   114 ;
                                     018E   115 	COND	4,NULL
                                     018F   116
                                     018F   117 	COND	5,NULL
                                     0190   118
                                 00000000   119 	.PSECT	SATSSS78,RD,WRT,EXE
SATSSS78        SATS SYSTEM SERV TESTS  $LK/ULWSET (SUCC S.C.)   22-AUG-1978 04:17:43   VAX-11 MACRO X0.3-11               Page   6
1.0             TM_SETUP, TM_CLEANUP                                                                                             (1)

                                     0000   121 	.SBTTL	TM_SETUP, TM_CLEANUP
                                     0000   122 ;++
                                     0000   123 ; FUNCTIONAL DESCRIPTION:
                                     0000   124 ;
                                     0000   125 ;		TM_SETUP AND TM_CLEANUP ARE CALLED TO PERFORM
                                     0000   126 ; REQUIRED HOUSEKEEPING AT THE BEGINNING AND END, RESPECTIVELY, OF
                                     0000   127 ; TEST MODULE EXECUTION.
                                     0000   128 ;
                                     0000   129 ; CALLING SEQUENCE:
                                     0000   130 ;
                                     0000   131 ;	BSBW TM_SETUP   BSBW TM_CLEANUP
                                     0000   132 ;
                                     0000   133 ; INPUT PARAMETERS:
                                     0000   134 ;
                                     0000   135 ;	NONE
                                     0000   136 ;
                                     0000   137 ; IMPLICIT INPUTS:
                                     0000   138 ;
                                     0000   139 ;	NONE
                                     0000   140 ;
                                     0000   141 ; OUTPUT PARAMETERS:
                                     0000   142 ;
                                     0000   143 ;	NONE
                                     0000   144 ;
                                     0000   145 ; IMPLICIT OUTPUTS:
                                     0000   146 ;
                                     0000   147 ;	TM_SETUP:  COND TABLE INDEX REGISTERS (R2,3,4,5,6) CLEARED;
                                     0000   148 ;		   ALL PRIVILEGES ACQUIRED.
                                     0000   149 ;
                                     0000   150 ; COMPLETION CODES:
                                     0000   151 ;
                                     0000   152 ;	EFLAG SET TO NON-ZERO IF ERROR ENCOUNTERED.
                                     0000   153 ;
                                     0000   154 ; SIDE EFFECTS:
                                     0000   155 ;
                                     0000   156 ;	SS_CHECK AND ERR_EXIT MACROS CAUSE PREMATURE EXIT
                                     0000   157 ;	(VIA RSB) IF ERROR ENCOUNTERED.
                                     0000   158 ;
                                     0000   159 ;--
                                     0000   160
                                     0000   161
                                     0000   162
                                     0000   163 TM_SETUP::
                          52     D4  0000   164 	CLRL	R2			; INITIALIZE
                          53     D4  0002   165 	CLRL	R3			; .. CONDITION
                          54     D4  0004   166 	CLRL	R4			; .... TABLE
                          55     D4  0006   167 	CLRL	R5			; ...... INDEX
                          56     D4  0008   168 	CLRL	R6			; ........ REGISTERS
                          FFF3'  30  000A   169 	BSBW	MOD_MSG_PRINT		; PRINT TEST MODULE BEGIN MSG
   00000000'EF   00000000'EF     DE  000D   170 	MOVAL	TEST_MOD_SUCC,TMD_ADDR	; ASSUME END MSG WILL SHOW SUCCESS
            00   00000000'8F     F0  0018   171 	INSV	#SUCCESS,#0,#3,MOD_MSG_CODE ; ADJUST STATUS CODE FOR SUCCESS
   00000000'EF            03         001F
                                     0025   172 	MODE	TO,5$,KRNL		; KERNEL MODE TO ACCESS PHD
            59   00000000'9F     D0  0048   173 	MOVL	@#CTL$GL_PHD,R9		; GET PROCESS HEADER ADDRESS
   00000000'EF            69     DE  004F   174 	MOVAL	PHD$Q_PRIVMSK(R9),PRIVMASK ; GET PRIV MASK ADDRESS
                                     0056   175 	MODE	FROM,5$	; BACK TO USER MODE
                                     0057   176 	PRIV	ADD,ALL			; GET ALL PRIVILEGES
SATSSS78        SATS SYSTEM SERV TESTS  $LK/ULWSET (SUCC S.C.)   22-AUG-1978 04:17:43   VAX-11 MACRO X0.3-11               Page   7
1.0             TM_SETUP, TM_CLEANUP                                                                                             (1)

                                     0080   177 	$SETPRN_S TEST_MOD_NAME_D 	; SET PROCESS NAME
                                     008D   178 	SS_CHECK  NORMAL		; CHECK STATUS CODE RETURNED FROM SETPRN
                                 05  00BB   179 	RSB				; RETURN TO MAIN ROUTINE
                                     00BC   180 TM_CLEANUP::
                          FF41'  30  00BC   181 	BSBW	MOD_MSG_PRINT		; PRINT TEST MODULE END MSG
                                 05  00BF   182 	RSB				; RETURN TO MAIN ROUTINE
SATSSS78        SATS SYSTEM SERV TESTS  $LK/ULWSET (SUCC S.C.)   22-AUG-1978 04:17:43   VAX-11 MACRO X0.3-11               Page   8
1.0             CONDITION SUBROUTINES - SETUP AND CLEANUP                                                                        (1)

                                     00C0   184 	.SBTTL	CONDITION SUBROUTINES - SETUP AND CLEANUP
                                     00C0   185 ;++
                                     00C0   186 ; FUNCTIONAL DESCRIPTION:
                                     00C0   187 ;
                                     00C0   188 ;		CONDX AND CONDX_CLEANUP ARE SUBROUTINES WHICH ARE EXECUTED
                                     00C0   189 ; BEFORE AND AFTER THE VERIFY SUBROUTINE, RESPECTIVELY, WHENEVER A NEW
                                     00C0   190 ; CONDITION X VALUE IS SELECTED (SEE FUNCTIONAL DESCRIPTION OF SUCCOMMON
                                     00C0   191 ; ROUTINE IN SUCCOMMON.MAR). ANY SETUP FUNCTION PARTICULAR TO THE
                                     00C0   192 ; CONDITION X TABLE IS INCLUDED IN THE CONDX SUBROUTINE AND CLEANED
                                     00C0   193 ; UP, IF NECESSARY, IN THE CONDX_CLEANUP SUBROUTINE. THIS INCLUDES,
                                     00C0   194 ; ESPECIALLY, CODE TO DETECT CONFLICTS AMONG CURRENT ENTRIES IN TWO
                                     00C0   195 ; OR MORE CONDITION TABLES. IF A CONFLICT IS DETECTED, A NON-ZERO
                                     00C0   196 ; VALUE IS STORED INTO CONFLICT, WHICH CAUSES THE CALLING ROUTINE
                                     00C0   197 ; (SUCCOMMON) TO SKIP THE CURRENT ENTRY IN THE CONDITION X TABLE.
                                     00C0   198 ;
                                     00C0   199 ; CALLING SEQUENCE:
                                     00C0   200 ;
                                     00C0   201 ;	BSBW CONDX   BSBW CONDX_CLEANUP
                                     00C0   202 ;	  WHERE X = 1,2,3,4,5
                                     00C0   203 ;
                                     00C0   204 ; INPUT PARAMETERS:
                                     00C0   205 ;
                                     00C0   206 ;	CONFLICT = 0
                                     00C0   207 ;
                                     00C0   208 ; IMPLICIT INPUTS:
                                     00C0   209 ;
                                     00C0   210 ;	R2,3,4,5,6 CONTAIN CURRENT CONDITION TABLE INDEX VALUES
                                     00C0   211 ;	  FOR COND TABLES 1,2,3,4,5, RESPECTIVELY.
                                     00C0   212 ;
                                     00C0   213 ; OUTPUT PARAMETERS:
                                     00C0   214 ;
                                     00C0   215 ;	CONFLICT SET TO NON-ZERO IF COND TABLE CONFLICT DETECTED.
                                     00C0   216 ;
                                     00C0   217 ; IMPLICIT OUTPUTS:
                                     00C0   218 ;
                                     00C0   219 ;	R2,3,4,5,6 PRESERVED
                                     00C0   220 ;
                                     00C0   221 ; COMPLETION CODES:
                                     00C0   222 ;
                                     00C0   223 ;	NONE
                                     00C0   224 ;
                                     00C0   225 ; SIDE EFFECTS:
                                     00C0   226 ;
                                     00C0   227 ;	NONE
                                     00C0   228 ;
                                     00C0   229 ;--
                                     00C0   230
                                     00C0   231
                                     00C0   232
                                     00C0   233 COND1::
                                 05  00C0   234 	RSB				; RETURN TO MAIN ROUTINE
                                     00C1   235 COND1_CLEANUP::
                                 05  00C1   236 	RSB				; RETURN TO MAIN ROUTINE
                                     00C2   237 COND2::
                          52     D5  00C2   238 	TSTL	R2			; FIRST COND 1 ELEMENT ??
                          15     12  00C4   239 	BNEQ	COND2X			; NO -- NO CONFLICT
            03   00000135'EF43   D1  00C6   240 	CMPL	COND2_E[R3],#PSL$C_USER ; IS PAGE-OWNER USER MODE ??
SATSSS78        SATS SYSTEM SERV TESTS  $LK/ULWSET (SUCC S.C.)   22-AUG-1978 04:17:43   VAX-11 MACRO X0.3-11               Page   9
1.0             CONDITION SUBROUTINES - SETUP AND CLEANUP                                                                        (1)

                          0B     13  00CE   241 	BEQL	COND2X			; YES -- NO CONFLICT
   00000000'EF   00000000'EF     90  00D0   242 	MOVB	ONES,CONFLICT		; NO -- INDICATE CONFLICT BECAUSE ...
                                     00DB   243 					; ... CURRENT IMAGE PAGE MUST BE USER
                                     00DB   244 COND2X:
                                 05  00DB   245 	RSB				; RETURN TO MAIN ROUTINE
                                     00DC   246 COND2_CLEANUP::
                                 05  00DC   247 	RSB				; RETURN TO MAIN ROUTINE
                                     00DD   248 COND3::
   00000135'EF43 0000017E'EF44   D1  00DD   249 	CMPL	ACMODE[R4],COND2_E[R3] 	; IS LOCKER AT LEAST AS ...
                                     00EA   250 				       	; ... PRIVILEGED AS OWNER ??
                          0B     15  00EA   251 	BLEQ	COND3X			; YES -- THAT'S OK
   00000000'EF   00000000'EF     90  00EC   252 	MOVB	ONES,CONFLICT		; NO -- INDICATE CONFLICT
                                     00F7   253 COND3X:
                                 05  00F7   254 	RSB				; RETURN TO MAIN ROUTINE
                                     00F8   255 COND3_CLEANUP::
                                 05  00F8   256 	RSB				; RETURN TO MAIN ROUTINE
                                     00F9   257 COND4::
                                 05  00F9   258 	RSB				; RETURN TO MAIN ROUTINE
                                     00FA   259 COND4_CLEANUP::
                                 05  00FA   260 	RSB				; RETURN TO MAIN ROUTINE
                                     00FB   261 COND5::
                                 05  00FB   262 	RSB				; RETURN TO MAIN ROUTINE
                                     00FC   263 COND5_CLEANUP::
                                 05  00FC   264 	RSB				; RETURN TO MAIN ROUTINE
SATSSS78        SATS SYSTEM SERV TESTS  $LK/ULWSET (SUCC S.C.)   22-AUG-1978 04:17:43   VAX-11 MACRO X0.3-11               Page  10
1.0             FORM_CONDS                                                                                                       (1)

                                     00FD   266 	.SBTTL	FORM_CONDS
                                     00FD   267 ;++
                                     00FD   268 ; FUNCTIONAL DESCRIPTION:
                                     00FD   269 ;
                                     00FD   270 ; 		FORM_CONDS FORMATS AND PRINTS INFORMATION ABOUT
                                     00FD   271 ;  THE CURRENT ELEMENT IN EACH OF THE CONDITION TABLES.
                                     00FD   272 ;
                                     00FD   273 ; CALLING SEQUENCE:
                                     00FD   274 ;
                                     00FD   275 ;	BSBW FORM_CONDS
                                     00FD   276 ;
                                     00FD   277 ; INPUT PARAMETERS:
                                     00FD   278 ;
                                     00FD   279 ;	NONE
                                     00FD   280 ;
                                     00FD   281 ; IMPLICIT INPUTS:
                                     00FD   282 ;
                                     00FD   283 ;	R2,3,4,5,6 CONTAIN CURRENT CONDITION TABLE INDEX VALUES
                                     00FD   284 ;	  FOR COND TABLES 1,2,3,4,5, RESPECTIVELY.
                                     00FD   285 ;	FOR X = 1,2,3,4,5 :
                                     00FD   286 ;		CONDX_T - TITLE TEXT FOR CONDX TABLE
                                     00FD   287 ;		CONDX_TAB - ELEMENT TEXT FOR CONDX TABLE
                                     00FD   288 ;		CONDX_C - CONTEXT OF THE CONDX TABLE
                                     00FD   289 ;		CONDX_E - DATA ELEMENTS OF THE CONDX TABLE
                                     00FD   290 ;
                                     00FD   291 ; OUTPUT PARAMETERS:
                                     00FD   292 ;
                                     00FD   293 ;	NONE
                                     00FD   294 ;
                                     00FD   295 ; IMPLICIT OUTPUTS:
                                     00FD   296 ;
                                     00FD   297 ;	NONE
                                     00FD   298 ;
                                     00FD   299 ; COMPLETION CODES:
                                     00FD   300 ;
                                     00FD   301 ;	NONE
                                     00FD   302 ;
                                     00FD   303 ; SIDE EFFECTS:
                                     00FD   304 ;
                                     00FD   305 ;	NONE
                                     00FD   306 ;
                                     00FD   307 ;--
                                     00FD   308
                                     00FD   309
                                     00FD   310
                                     00FD   311 FORM_CONDS::
                                     00FD   312 	$FAO_S	MSG1_INP_CTL,FAO_LEN,FAO_DESC,TESTNUM
                                     011C   313 					; FORMAT CONDITIONS HEADER MSG
                          FEE1'  30  011C   314 	BSBW	OUTPUT_MSG		; ... AND PRINT IT
            14            08     91  011F   315 	CMPB	#COND1_C,#NULL		; IS CONDITION 1 NULL ?
                          03     12  0122   316 	BNEQU	10$			; NO -- CONTINUE
                          00D7   31  0124   317 	BRW	FORM_CONDSX		; YES -- SUBROUTINE IS FINISHED
                                     0127   318 10$:
   00000000'EF   00000018'EF     DE  0127   319 	MOVAL	COND1_T,MSG_A		; SAVE ADDRESS OF CONDITION 1 TITLE FOR FAO
   00000000'EF   0000001F'EF42   D0  0132   320 	MOVL	COND1_TAB[R2],MSG_B 	; SAVE ADDR OF COND 1 CURR TEXT ELT FOR FAO
   00000000'EF            08     90  013E   321 	MOVB	#COND1_C,MSG_CTXT 	; SAVE CONDITION 1 CONTEXT FOR FAO
                                     0145   322 	MOV_VAL	COND1_C,COND1_E[R2],MSG_DATA1 ; GIVE COND 1 DATA VALUE TO FAO
SATSSS78        SATS SYSTEM SERV TESTS  $LK/ULWSET (SUCC S.C.)   22-AUG-1978 04:17:43   VAX-11 MACRO X0.3-11               Page  11
1.0             FORM_CONDS                                                                                                       (1)

                          FEAC'  30  0151   323 	BSBW	WRITE_MSG2		; FORMAT AND WRITE CONDITION 1 MSG
            14            00     91  0154   324 	CMPB	#COND2_C,#NULL		; IS CONDITION 2 NULL ?
                          03     12  0157   325 	BNEQU	20$			; NO -- CONTINUE
                          00A2   31  0159   326 	BRW	FORM_CONDSX		; YES -- SUBROUTINE IS FINISHED
                                     015C   327 20$:
   00000000'EF   000000EC'EF     DE  015C   328 	MOVAL	COND2_T,MSG_A		; SAVE ADDRESS OF CONDITION 2 TITLE FOR FAO
   00000000'EF   00000104'EF43   D0  0167   329 	MOVL	COND2_TAB[R3],MSG_B 	; SAVE ADDR OF COND 2 CURR TEXT ELT FOR FAO
   00000000'EF            00     90  0173   330 	MOVB	#COND2_C,MSG_CTXT 	; SAVE CONDITION 2 CONTEXT FOR FAO
                                     017A   331 	MOV_VAL	COND2_C,COND2_E[R3],MSG_DATA1 ; GIVE COND 2 DATA VALUE TO FAO
                          FE83'  30  017A   332 	BSBW	WRITE_MSG2		; FORMAT AND WRITE CONDITION 2 MSG
            14            04     91  017D   333 	CMPB	#COND3_C,#NULL		; IS CONDITION 3 NULL ?
                          03     12  0180   334 	BNEQU	30$			; NO -- CONTINUE
                          0079   31  0182   335 	BRW	FORM_CONDSX		; YES -- SUBROUTINE IS FINISHED
                                     0185   336 30$:
   00000000'EF   00000145'EF     DE  0185   337 	MOVAL	COND3_T,MSG_A		; SAVE ADDRESS OF CONDITION 3 TITLE FOR FAO
   00000000'EF   0000014D'EF44   D0  0190   338 	MOVL	COND3_TAB[R4],MSG_B 	; SAVE ADDR OF COND 3 CURR TEXT ELT FOR FAO
   00000000'EF            04     90  019C   339 	MOVB	#COND3_C,MSG_CTXT 	; SAVE CONDITION 3 CONTEXT FOR FAO
                                     01A3   340 	MOV_VAL	COND3_C,COND3_E[R4],MSG_DATA1 ; GIVE COND 3 DATA VALUE TO FAO
                          FE4E'  30  01AF   341 	BSBW	WRITE_MSG2		; FORMAT AND WRITE CONDITION 3 MSG
            14            14     91  01B2   342 	CMPB	#COND4_C,#NULL		; IS CONDITION 4 NULL ?
                          47     13  01B5   343 	BEQLU	FORM_CONDSX		; YES -- SUBROUTINE IS FINISHED
   00000000'EF   0000018E'EF     DE  01B7   344 	MOVAL	COND4_T,MSG_A		; SAVE ADDRESS OF CONDITION 4 TITLE FOR FAO
   00000000'EF   0000018E'EF45   D0  01C2   345 	MOVL	COND4_TAB[R5],MSG_B 	; SAVE ADDR OF COND 4 CURR TEXT ELT FOR FAO
   00000000'EF            14     90  01CE   346 	MOVB	#COND4_C,MSG_CTXT 	; SAVE CONDITION 4 CONTEXT FOR FAO
                                     01D5   347 	MOV_VAL	COND4_C,COND4_E[R5],MSG_DATA1 ; GIVE COND 4 DATA VALUE TO FAO
                          FE28'  30  01D5   348 	BSBW	WRITE_MSG2		; FORMAT AND WRITE CONDITION 4 MSG
            14            14     91  01D8   349 	CMPB	#COND5_C,#NULL		; IS CONDITION 5 NULL ?
                          21     13  01DB   350 	BEQLU	FORM_CONDSX		; YES -- SUBROUTINE IS FINISHED
   00000000'EF   0000018F'EF     DE  01DD   351 	MOVAL	COND5_T,MSG_A		; SAVE ADDRESS OF CONDITION 5 TITLE FOR FAO
   00000000'EF   0000018F'EF46   D0  01E8   352 	MOVL	COND5_TAB[R6],MSG_B 	; SAVE ADDR OF COND 5 CURR TEXT ELT FOR FAO
   00000000'EF            14     90  01F4   353 	MOVB	#COND5_C,MSG_CTXT 	; SAVE CONDITION 5 CONTEXT FOR FAO
                                     01FB   354 	MOV_VAL	COND5_C,COND5_E[R6],MSG_DATA1 ; GIVE COND 5 DATA VALUE TO FAO
                          FE02'  30  01FB   355 	BSBW	WRITE_MSG2		; FORMAT AND WRITE CONDITION 5 MSG
                                     01FE   356 FORM_CONDSX:
                                 05  01FE   357 	RSB				; RETURN TO CALLER
SATSSS78        SATS SYSTEM SERV TESTS  $LK/ULWSET (SUCC S.C.)   22-AUG-1978 04:17:43   VAX-11 MACRO X0.3-11               Page  12
1.0             VERIFY                                                                                                           (1)

                                     01FF   359 	.SBTTL	VERIFY
                                     01FF   360 ;++
                                     01FF   361 ; FUNCTIONAL DESCRIPTION:
                                     01FF   362 ;
                                     01FF   363 ;		VERIFY IS CALLED ONCE FOR EACH COMBINATION OF CONDITION
                                     01FF   364 ; TABLE VALUES (AS DETERMINED BY THE INDEX REGISTERS R2,3,4,5,6 FOR
                                     01FF   365 ; COND TABLES 1,2,3,4,5, RESPECTIVELY). VERIFY ESTABLISHES THE CONDITIONS
                                     01FF   366 ; SPECIFIED BY THE COND TABLES AND ISSUES THE SUBJECT SYSTEM SERVICES
                                     01FF   367 ; ($LKWSET & $ULWSET). THEN, THE SUCCESSFUL OPERATION OF THE SERVICES IS
                                     01FF   368 ; VERIFIED BY EXAMINING THE STATUS CODES RETURNED, THE VALUES FOR RETURN ARGS
                                     01FF   369 ; AND THE FUNCTIONALITY PERFORMED. THE EXAMINATIONS TAKE THE FORM OF
                                     01FF   370 ; COMPARISONS AGAINST EXPECTED VALUES. ANY FAILING COMPARISON CAUSES AN
                                     01FF   371 ; ERR_EXIT MACRO TO BE EXECUTED (EITHER DIRECTLY, OR INDIRECTLY,
                                     01FF   372 ; THROUGH THE SS_CHECK MACRO); ERR_EXIT SETS EFLAG TO NON-ZERO,
                                     01FF   373 ; PRINTS ERROR MESSAGES AND CAUSES AN IMMEDIATE RSB TO CALLER.
                                     01FF   374 ; WHEN ERR_EXIT IS EXECUTED, FURTHER CALLS TO VERIFY ARE SUPPRESSED,
                                     01FF   375 ; AND, AFTER EXECUTING CLEANUP SUBROUTINES, THE IMAGE EXITS.
                                     01FF   376 ;
                                     01FF   377 ; CALLING SEQUENCE:
                                     01FF   378 ;
                                     01FF   379 ;	BSBW VERIFY
                                     01FF   380 ;
                                     01FF   381 ; INPUT PARAMETERS:
                                     01FF   382 ;
                                     01FF   383 ;	NONE
                                     01FF   384 ;
                                     01FF   385 ; IMPLICIT INPUTS:
                                     01FF   386 ;
                                     01FF   387 ;	R2,3,4,5,6 CONTAIN CURRENT CONDITION TABLE INDEX VALUES
                                     01FF   388 ;	  FOR COND TABLES 1,2,3,4,5, RESPECTIVELY.
                                     01FF   389 ;	FOR X = 1,2,3,4,5 :
                                     01FF   390 ;		CONDX_E - ADDRESS OF TABLE OF DATA VALUES FOR CONDX
                                     01FF   391 ;		  TABLE. IF THE CONTEXT OF TABLE X IS A SYSTEM SERVICE
                                     01FF   392 ;		  ARGUMENT, THE ARGUMENT NAME MAY BE USED AS A SYNONYM
                                     01FF   393 ;		  FOR CONDX_E.
                                     01FF   394 ;
                                     01FF   395 ; OUTPUT PARAMETERS:
                                     01FF   396 ;
                                     01FF   397 ;	NONE
                                     01FF   398 ;
                                     01FF   399 ; IMPLICIT OUTPUTS:
                                     01FF   400 ;
                                     01FF   401 ;	VERIFY HAS NO OUTPUT. SINCE ITS PURPOSE IS TO TEST FOR ERRORS,
                                     01FF   402 ;	IT MERELY RETURNS TO CALLER NORMALLY AFTER THE TESTS, PROVIDING
                                     01FF   403 ;	ALL WERE SUCCESSFUL; IF AN ERROR IS DISCOVERED, RETURN IS VIA
                                     01FF   404 ;	AN ERR_EXIT OR SS_CHECK MACRO, BOTH OF WHICH DOCUMENT DETECTED
                                     01FF   405 ;	ERRORS.
                                     01FF   406 ;
                                     01FF   407 ; COMPLETION CODES:
                                     01FF   408 ;
                                     01FF   409 ;	EFLAG SET TO NON-ZERO IF ERROR ENCOUNTERED.
                                     01FF   410 ;
                                     01FF   411 ; SIDE EFFECTS:
                                     01FF   412 ;
                                     01FF   413 ;	SS_CHECK AND ERR_EXIT MACROS CAUSE PREMATURE EXIT
                                     01FF   414 ;	(VIA RSB) IF ERROR ENCOUNTERED.
                                     01FF   415 ;
SATSSS78        SATS SYSTEM SERV TESTS  $LK/ULWSET (SUCC S.C.)   22-AUG-1978 04:17:43   VAX-11 MACRO X0.3-11               Page  13
1.0             VERIFY                                                                                                           (1)

                                     01FF   416 ;--
                                     01FF   417
                                     01FF   418
                                     01FF   419
                                     01FF   420 VERIFY::
                 00000000'EF     95  01FF   421 	TSTB	CFLAG			; SHOULD CONDITIONS BE PRINTED ?
                          03     13  0205   422 	BEQL	5$			; NO -- CONTINUE
                          FEF3   30  0207   423 	BSBW	FORM_CONDS		; YES -- FMT & PRINT ALL CONDS FOR THIS T.C.
                                     020A   424 5$:
                                     020A   425 ;
                                     020A   426 ; SET UP INADR ARGUMENT IN COND 1 TABLE BY ISSUING $EXPREG
                                     020A   427 ;
                          52     D5  020A   428 	TSTL	R2			; FIRST COND 1 ELEMENT ??
                          03     12  020C   429 	BNEQ	10$			; NO -- CONTINUE
                          00A4   31  020E   430 	BRW	40$			; YES -- INADR ALREADY SET UP
                                     0211   431 10$:
                 000000C4'EF42   7C  0211   432 	CLRQ	INADR[R2]		; CLEAR $EXPREG RETURN AREA
                 0000000C'EF     D4  0218   433 	CLRL	REGION_ERG		; ASSUME PROGRAM REGION
   00000008'EF            01     9A  021E   434 	MOVZBL	#1,PAGCNT_ERG		; ... AND SINGLE PAGE COUNT
            02            52     D1  0225   435 	CMPL	R2,#2			; IS IT PROGRAM REGION ??
                          07     15  0228   436 	BLEQ	15$			; YES -- GO CHECK PAGE COUNT
   0000000C'EF            01     9A  022A   437 	MOVZBL	#1,REGION_ERG		; NO -- MUST BE CONTROL REGION
                                     0231   438 15$:
            01            52     D1  0231   439 	CMPL	R2,#1			; IS IT SINGLE PAGE ??
                          0C     13  0234   440 	BEQL	20$			; YES -- GO ESTABLISH MODE
            03            52     D1  0236   441 	CMPL	R2,#3			; COULD STILL BE SINGLE PAGE
                          07     13  0239   442 	BEQL	20$			; IT IS -- GO ESTABLISH MODE
   00000008'EF            0A     9A  023B   443 	MOVZBL	#10,PAGCNT_ERG		; MULTIPLE PAGES
                                     0242   444 20$:
                                     0242   445 	MODE	TO,30$,KRNL		; GET KERNEL MODE, SO ACMODE ARG WORKS
                                     0265   446 	$EXPREG_S REGION=REGION_ERG, PAGCNT=PAGCNT_ERG, -
                                     0265   447 		  ACMODE=COND2_E[R3], RETADR=INADR[R2]
                                     0286   448 	MODE	FROM,30$		; BACK TO USER MODE
                                     0287   449 	SS_CHECK NORMAL			; CHECK FOR NORMAL STATUS RETURN
                                     02B5   450 40$:
                                     02B5   451 ;
                                     02B5   452 ; ****** SYSTEM SERVICE CALLS WHICH ARE THE SUBJECT OF THIS TEST CASE ******
                                     02B5   453 ;
                                     02B5   454 	MODE	TO,50$,KRNL		; GET KERNEL MODE, SO ACMODE ARG WORKS
                                     02D8   455 	$LKWSET_S INADR=INADR[R2], RETADR=RETADR,-
                                     02D8   456 		  ACMODE=ACMODE[R4]	; ISSUE SUBJECT SERVICE
                                     02F3   457 	MODE	FROM,50$		; BACK TO USER MODE
   00000000'8F            50     D1  02F4   458 	CMPL	R0,#SS$_WASCLR		; CODE RECEIVED = CODE EXPECTED ?
                          61     13  02FB   459 	BEQLU	60$			; YES -- CONTINUE
   00000000'EF   00000000'8F     D0  02FD   460 	MOVL	#SS$_WASCLR,EXPV 	; NO -- LOAD UP EXPECTED AND ...
   00000000'EF            50     D0  0308   461 	MOVL	R0,RECV			; ... RECEIVED VALUES, THEN EXIT
                                     030F   462 	ERR_EXIT LONG,<INCORRECT STATUS CODE RETURNED FROM LKWSET>
                                     035E   463 60$:
                                     035E   464 ;
                                     035E   465 ; COMPARE INADR AGAINST RETADR (EXCEPT LOW-ORDER 9 BITS) AND,
                                     035E   466 ; IF OK, GO ISSUE $ULWSET.
                                     035E   467 ;
            57   000000C4'EF42   7D  035E   468 	MOVQ	INADR[R2],R7		; GET INADR PAIR INTO REGS
            17            09     EF  0366   469 	EXTZV	#9,#23,R7,R7		; SHIFT RIGHT 9 BITS
            57            57         0369
            17            09     ED  036B   470 	CMPZV	#9,#23,RETADR,R7 	; INADR = RETADR (FIRST OF PAIR) ??
            57   00000010'EF         036E
SATSSS78        SATS SYSTEM SERV TESTS  $LK/ULWSET (SUCC S.C.)   22-AUG-1978 04:17:43   VAX-11 MACRO X0.3-11               Page  14
1.0             VERIFY                                                                                                           (1)

                          13     12  0374   471 	BNEQU	70$			; NO -- ERROR
            17            09     EF  0376   472 	EXTZV	#9,#23,R8,R8		; SHIFT RIGHT 9 BITS
            58            58         0379
            17            09     ED  037B   473 	CMPZV	#9,#23,RETADR+4,R8 	; INADR = RETADR (2ND OF PAIR) ??
            58   00000014'EF         037E
                          03     12  0384   474 	BNEQU	70$			; NO -- ERROR
                          0068   31  0386   475 	BRW	80$			; YES -- SKIP ERROR PROCESSING
                                     0389   476 70$:
   00000000'EF   000000C4'EF42   7D  0389   477 	MOVQ	INADR[R2],EXPV		; LOAD UP EXPECTED AND ...
   00000000'EF   00000010'EF     7D  0395   478 	MOVQ	RETADR,RECV		; ... RECEIVED VALUES, THEN EXIT
                                     03A0   479 	ERR_EXIT QUAD,<UNEXPECTED VALUE FROM LKWSET FOR>,-
                                     03A0   480 		      < RETADR PAIR>
                                     03F1   481 80$:
                                     03F1   482 ;
                                     03F1   483 ; SET UP TO ISSUE $ULWSET
                                     03F1   484 ;
                                     03F1   485 	MODE	TO,90$,KRNL		; GET KERNEL MODE, SO ACMODE ARG WORKS
                                     0414   486 	$ULWSET_S INADR=INADR[R2], RETADR=RETADR,-
                                     0414   487 		  ACMODE=ACMODE[R4]	; ISSUE SUBJECT SERVICE
                                     042F   488 	MODE	FROM,90$		; BACK TO USER MODE
   00000000'8F            50     D1  0430   489 	CMPL	R0,#SS$_WASSET		; CODE RECEIVED = CODE EXPECTED ?
                          61     13  0437   490 	BEQLU	100$			; YES -- CONTINUE
   00000000'EF   00000000'8F     D0  0439   491 	MOVL	#SS$_WASSET,EXPV 	; NO -- LOAD UP EXPECTED AND ...
   00000000'EF            50     D0  0444   492 	MOVL	R0,RECV			; ... RECEIVED VALUES, THEN EXIT
                                     044B   493 	ERR_EXIT LONG,<INCORRECT STATUS CODE RETURNED FROM ULWSET>
                                     049A   494 100$:
                                     049A   495 ;
                                     049A   496 ; COMPARE INADR AGAINST RETADR (EXCEPT LOW-ORDER 9 BITS) AND,
                                     049A   497 ; IF OK, VERIFY ROUTINE IS COMPLETE, GO DO ANOTHER TEST CASE.
                                     049A   498 ;
            57   000000C4'EF42   7D  049A   499 	MOVQ	INADR[R2],R7		; GET INADR PAIR INTO REGS
            17            09     EF  04A2   500 	EXTZV	#9,#23,R7,R7		; SHIFT RIGHT 9 BITS
            57            57         04A5
            17            09     ED  04A7   501 	CMPZV	#9,#23,RETADR,R7 	; INADR = RETADR (FIRST OF PAIR) ??
            57   00000010'EF         04AA
                          13     12  04B0   502 	BNEQU	110$			; NO -- ERROR
            17            09     EF  04B2   503 	EXTZV	#9,#23,R8,R8		; SHIFT RIGHT 9 BITS
            58            58         04B5
            17            09     ED  04B7   504 	CMPZV	#9,#23,RETADR+4,R8 	; INADR = RETADR (2ND OF PAIR) ??
            58   00000014'EF         04BA
                          03     12  04C0   505 	BNEQU	110$			; NO -- ERROR
                          0068   31  04C2   506 	BRW	VERIFYX			; YES -- SKIP ERROR PROCESSING
                                     04C5   507 110$:
   00000000'EF   000000C4'EF42   7D  04C5   508 	MOVQ	INADR[R2],EXPV		; LOAD UP EXPECTED AND ...
   00000000'EF   00000010'EF     7D  04D1   509 	MOVQ	RETADR,RECV		; ... RECEIVED VALUES, THEN EXIT
                                     04DC   510 	ERR_EXIT QUAD,<UNEXPECTED VALUE FROM ULWSET FOR>,-
                                     04DC   511 		      < RETADR PAIR>
                                     052D   512 VERIFYX:
                                 05  052D   513 	RSB				; RETURN TO CALLER
SATSSS78        SATS SYSTEM SERV TESTS  $LK/ULWSET (SUCC S.C.)   22-AUG-1978 04:17:43   VAX-11 MACRO X0.3-11               Page  15
1.0             VFY_CLEANUP                                                                                                      (1)

                                     052E   515 	.SBTTL	VFY_CLEANUP
                                     052E   516 ;++
                                     052E   517 ; FUNCTIONAL DESCRIPTION:
                                     052E   518 ;
                                     052E   519 ;		VFY_CLEANUP EXECUTES SYSTEM SERVICES TO UNDO THE
                                     052E   520 ; EFFECT OF THOSE ISSUED IN THE VERIFY SUBROUTINE. VFY_CLEANUP MUST
                                     052E   521 ; ASSUME THAT VERIFY MAY NOT HAVE EXECUTED IN ITS ENTIRETY (IF AN
                                     052E   522 ; ERROR IS FOUND). ALSO, VFY_CLEANUP MAY ISSUE SS_CHECK OR ERR_EXIT
                                     052E   523 ; ONLY AFTER PERFORMING ALL OF ITS CLEANUP OPERATIONS; THIS IS REQUIRED
                                     052E   524 ; IN THE EVENT THAT VFY_CLEANUP IS CALLED DURING ERROR PROCESSING,
                                     052E   525 ; WHEN PERFORMING THE REQUIRED CLEANUP IS MORE IMPORTANT THAN
                                     052E   526 ; POSSIBLY DISCOVERING A SECOND ERROR.
                                     052E   527 ;
                                     052E   528 ; CALLING SEQUENCE:
                                     052E   529 ;
                                     052E   530 ;	BSBW VFY_CLEANUP
                                     052E   531 ;
                                     052E   532 ; INPUT PARAMETERS:
                                     052E   533 ;
                                     052E   534 ;	NONE
                                     052E   535 ;
                                     052E   536 ; IMPLICIT INPUTS:
                                     052E   537 ;
                                     052E   538 ;	R2,3,4,5,6 CONTAIN CURRENT CONDITION TABLE INDEX VALUES
                                     052E   539 ;	  FOR COND TABLES 1,2,3,4,5, RESPECTIVELY.
                                     052E   540 ;	FOR X = 1,2,3,4,5 :
                                     052E   541 ;		CONDX_E - ADDRESS OF TABLE OF DATA VALUES FOR CONDX
                                     052E   542 ;		  TABLE. IF THE CONTEXT OF TABLE X IS A SYSTEM SERVICE
                                     052E   543 ;		  ARGUMENT, THE ARGUMENT NAME MAY BE USED AS A SYNONYM
                                     052E   544 ;		  FOR CONDX_E.
                                     052E   545 ;
                                     052E   546 ; OUTPUT PARAMETERS:
                                     052E   547 ;
                                     052E   548 ;	NONE
                                     052E   549 ;
                                     052E   550 ; IMPLICIT OUTPUTS:
                                     052E   551 ;
                                     052E   552 ;	NONE
                                     052E   553 ;
                                     052E   554 ; COMPLETION CODES:
                                     052E   555 ;
                                     052E   556 ;	EFLAG SET TO NON-ZERO IF ERROR ENCOUNTERED.
                                     052E   557 ;
                                     052E   558 ; SIDE EFFECTS:
                                     052E   559 ;
                                     052E   560 ;	SS_CHECK AND ERR_EXIT MACROS CAUSE PREMATURE EXIT
                                     052E   561 ;	(VIA RSB) IF ERROR ENCOUNTERED.
                                     052E   562 ;
                                     052E   563 ;--
                                     052E   564
                                     052E   565
                                     052E   566
                                     052E   567 VFY_CLEANUP::
                          52     D5  052E   568 	TSTL	R2			; FIRST COND 1 ELEMENT ??
                          03     12  0530   569 	BNEQ	10$			; NO -- CONTINUE
                          0078   31  0532   570 	BRW	VFY_CLEANUPX		; YES -- NO PAGES TO DELETE
                                     0535   571 10$:
SATSSS78        SATS SYSTEM SERV TESTS  $LK/ULWSET (SUCC S.C.)   22-AUG-1978 04:17:43   VAX-11 MACRO X0.3-11               Page  16
1.0             VFY_CLEANUP                                                                                                      (1)

            57   000000C4'EF42   7D  0535   572 	MOVQ	INADR[R2],R7		; AVOID INDEX MODE, USE REGS
                          57     D5  053D   573 	TSTL	R7			; DID $EXPREG GET SOME SPACE ABOVE ??
                          03     12  053F   574 	BNEQU	20$			; YES -- CONTINUE
                          0069   31  0541   575 	BRW	VFY_CLEANUPX		; NO -- NO PAGES TO DELETE
                                     0544   576 20$:
                                     0544   577 	MODE TO,30$,KRNL		; KRNL MODE TO DELETE ACQUIRED PAGES
                                     0567   578 	$DELTVA_S INADR=INADR[R2], -
                                     0567   579 		  ACMODE=COND2_E[R3]	; ....
                                     057E   580 	MODE FROM,30$			; BACK TO USER MODE
                                     057F   581 	SS_CHECK NORMAL			; CHECK RETURN STATUS VALUE
                                     05AD   582 VFY_CLEANUPX:
                                 05  05AD   583 	RSB				; RETURN TO CALLER
                                     05AE   584 	.END
SATSSS78        SATS SYSTEM SERV TESTS  $LK/ULWSET (SUCC S.C.)   22-AUG-1978 04:17:43   VAX-11 MACRO X0.3-11               Page  17
SYMBOL TABLE                                                                                                                     (1)

$$$$           = 000004E6 R     05   EXPV             ********   X   05   PHD$L_R13        000000BC
$$$CHARS       = 0000002C            FAO_DESC         ********   X   05   PHD$L_R2         00000090
$$$CHARS1      = 00000006            FAO_LEN          ********   X   05   PHD$L_R3         00000094
$$$CHARS2      = 00000009            FORM_CONDS       000000FD RG    05   PHD$L_R4         00000098
$$$CHARS3      = 0000000A            FORM_CONDSX      000001FE R     05   PHD$L_R5         0000009C
$$$CHARS4      = 00000004            GBL...         = 00000000            PHD$L_R6         000000A0
$$$CHARS5      = 00000000            INADR            000000C4 R     04   PHD$L_R7         000000A4
$$$COND_A      = 00000003            LONG           = 00000004  G         PHD$L_R8         000000A8
$$$STRINGS     = 00000001            MOD_MSG_CODE     ********   X   05   PHD$L_R9         000000AC
$$$STRINGS2    = 00000005            MOD_MSG_PRINT    ********   X   05   PHD$L_REFERFLT   00000014
$$T2           = 00000004            MSG1_INP_CTL     00000019 R     03   PHD$L_SSP        00000080
ACMODE           0000017E R     04   MSG3_ERR_CTL     00000039 RG    03   PHD$L_USP        00000084
BIT...         = 00000000            MSG_A            ********   X   05   PHD$L_WSL        00000118
BYTE           = 00000001  G         MSG_B            ********   X   05   PHD$M_DALCSTX  = 00000002
CFLAG            ********   X   05   MSG_CTXT         ********   X   05   PHD$M_PFMFLG   = 00000001
CHMRTN           ********   X   05   MSG_DATA1        ********   X   05   PHD$M_WSPEAKCHK= 00000004
CHM_CONT         ********   X   05   NOTARG         = 00000000  G         PHD$Q_PRIVMSK    00000000
COMP_SC          ********   X   05   NULL           = 00000014  G         PHD$S_ASTLVL   = 00000008
COND1            000000C0 RG    05   ONES             ********   X   05   PHD$S_P0LR     = 00000018
COND1_C        = 00000008            OUTPUT_MSG       ********   X   05   PHD$V_ASTLVL   = 00000018
COND1_CLEANUP    000000C1 RG    05   PAGCNT_ERG       00000008 R     04   PHD$V_DALCSTX  = 00000001
COND1_E          000000C4 R     04   PCV              ********   X   05   PHD$V_P0LR     = 00000000
COND1_H          0000001E RG    04   PHD$B_ASTLVL     000000CF            PHD$V_PFMFLG   = 00000000
COND1_T          00000018 R     04   PHD$B_DFPFC      00000038            PHD$V_WSPEAKCHK= 00000002
COND1_TAB        0000001F R     04   PHD$B_PAGFIL     0000001F            PHD$W_ASTLM      00000044
COND2            000000C2 RG    05   PHD$B_PGTBPFC    00000039            PHD$W_BAK        00000048
COND2X           000000DB R     05   PHD$C_LENGTH     00000118            PHD$W_DFWSCNT    0000001A
COND2_C        = 00000000            PHD$C_PHDPAGCTX= 00000008            PHD$W_EMPTPG     000000D8
COND2_CLEANUP    000000DC RG    05   PHD$K_LENGTH     00000118            PHD$W_EXTDYNWS   00000076
COND2_E          00000135 R     04   PHD$L_BIOCNT     00000054            PHD$W_FILLM      00000060
COND2_H          00000103 RG    04   PHD$L_CPULIM     00000058            PHD$W_FLAGS      0000003A
COND2_T          000000EC R     04   PHD$L_CPUTIM     0000003C            PHD$W_PHVINDEX   00000046
COND2_TAB        00000104 R     04   PHD$L_DIOCNT     00000050            PHD$W_PRCLM      00000042
COND3            000000DD RG    05   PHD$L_ESP        0000007C            PHD$W_PST        00000020
COND3X           000000F7 R     05   PHD$L_FREP0VA    00000028            PHD$W_PSTBASMAX  0000004A
COND3_C        = 00000004            PHD$L_FREP1VA    00000030            PHD$W_PSTFREE    00000026
COND3_CLEANUP    000000F8 RG    05   PHD$L_FREPTECNT  0000002C            PHD$W_PSTLAST    00000024
COND3_E          0000017E R     04   PHD$L_KSP        00000078            PHD$W_PTCNTACT   00000070
COND3_H          0000014C RG    04   PHD$L_P0BR       000000C8            PHD$W_PTCNTLCK   0000006C
COND3_T          00000145 R     04   PHD$L_P0LRASTL   000000CC            PHD$W_PTCNTMAX   00000072
COND3_TAB        0000014D R     04   PHD$L_P1BR       000000D0            PHD$W_PTCNTVAL   0000006E
COND4            000000F9 RG    05   PHD$L_P1LR       000000D4            PHD$W_QUANT      00000040
COND4_C        = 00000014            PHD$L_PAGEFLTS   0000004C            PHD$W_TQLM       00000062
COND4_CLEANUP    000000FA RG    05   PHD$L_PAGFIL     0000001C            PHD$W_WSAUTH     0000000A
COND4_H          0000018E RG    04   PHD$L_PC         000000C0            PHD$W_WSDYN      0000000E
COND4_T          0000018E R     04   PHD$L_PCB        00000078            PHD$W_WSFLUID    00000074
COND4_TAB        0000018E R     04   PHD$L_PGFLCNT    00000034            PHD$W_WSLAST     00000012
COND5            000000FB RG    05   PHD$L_PGFLQUOTA  0000005C            PHD$W_WSLIST     00000008
COND5_C        = 00000014            PHD$L_PSL        000000C4            PHD$W_WSLOCK     0000000C
COND5_CLEANUP    000000FC RG    05   PHD$L_PSTBASOFF  00000020            PHD$W_WSLX       0000004A
COND5_H          0000018F RG    04   PHD$L_PTWSLELCK  00000064            PHD$W_WSNEXT     00000010
COND5_T          0000018F R     04   PHD$L_PTWSLEVAL  00000068            PHD$W_WSQUOTA    00000018
COND5_TAB        0000018F R     04   PHD$L_R0         00000088            PRIVMASK         00000000 R     04
CONFLICT         ********   X   05   PHD$L_R1         0000008C            PROCESS_ERR      ********   X   05
CTL$GL_PHD       ********   X   05   PHD$L_R10        000000B0            PRV$V_ALLSPOOL = 00000004
DESC           = 00000010  G         PHD$L_R11        000000B4            PRV$V_BUGCHK   = 00000017
EFLAG            ********   X   05   PHD$L_R12        000000B8            PRV$V_CMEXEC   = 00000001
SATSSS78        SATS SYSTEM SERV TESTS  $LK/ULWSET (SUCC S.C.)   22-AUG-1978 04:17:43   VAX-11 MACRO X0.3-11               Page  18
SYMBOL TABLE                                                                                                                     (1)

PRV$V_CMKRNL   = 00000000            RETADR           00000010 R     04
PRV$V_DETACH   = 00000005            SAVE_REGS        ********   X   05
PRV$V_DIAGNOSE = 00000006            SS$_NORMAL       ********   X   05
PRV$V_EXQUOTA  = 00000013            SS$_WASCLR       ********   X   05
PRV$V_GROUP    = 00000008            SS$_WASSET       ********   X   05
PRV$V_GRPNAM   = 00000003            SUCCESS          ********   X   05
PRV$V_LOG_IO   = 00000007            SYS$CMKRNL       ********   X   05
PRV$V_MOUNT    = 00000011            SYS$DELTVA       ********   X   05
PRV$V_NETMBX   = 00000014            SYS$EXPREG       ********   X   05
PRV$V_NOACNT   = 00000009            SYS$FAO          ********   X   05
PRV$V_OPER     = 00000012            SYS$LKWSET       ********   X   05
PRV$V_PHY_IO   = 00000016            SYS$SETPRN       ********   X   05
PRV$V_PRMCEB   = 0000000A            SYS$ULWSET       ********   X   05
PRV$V_PRMGBL   = 00000018            TESTNUM          ********   X   05
PRV$V_PRMMBX   = 0000000B            TEST_MOD_NAME    00000000 RG    03
PRV$V_PSWAPM   = 0000000C            TEST_MOD_NAME_D  00000009 R     03
PRV$V_SETPRI   = 0000000D            TEST_MOD_SUCC    ********   X   05
PRV$V_SETPRV   = 0000000E            TMD_ADDR         ********   X   05
PRV$V_SYSGBL   = 00000019            TM_CLEANUP       000000BC RG    05
PRV$V_SYSNAM   = 00000002            TM_SETUP         00000000 RG    05
PRV$V_TMPMBX   = 0000000F            VERIFY           000001FF RG    05
PRV$V_VOLPRO   = 00000015            VERIFYX          0000052D R     05
PRV$V_WORLD    = 00000010            VFY_CLEANUP      0000052E RG    05
PSL$C_EXEC     = 00000001            VFY_CLEANUPX     000005AD R     05
PSL$C_KERNEL   = 00000000            WORD           = 00000002  G
PSL$C_SUPER    = 00000002            WRITE_MSG2       ********   X   05
PSL$C_USER     = 00000003
PSL$M_CM       = 80000000
PSL$M_CURMOD   = 03000000
PSL$M_DV       = 00000080
PSL$M_FPD      = 08000000
PSL$M_FU       = 00000040
PSL$M_IPL      = 001F0000
PSL$M_IS       = 04000000
PSL$M_IV       = 00000020
PSL$M_PRVMOD   = 00C00000
PSL$M_SAFBITS  = 000037FF
PSL$M_TBIT     = 00000010
PSL$M_TP       = 40000000
PSL$S_CURMOD   = 00000002
PSL$S_IPL      = 00000005
PSL$S_PRVMOD   = 00000002
PSL$V_CM       = 0000001F
PSL$V_CURMOD   = 00000018
PSL$V_DV       = 00000007
PSL$V_FPD      = 0000001B
PSL$V_FU       = 00000006
PSL$V_IPL      = 00000010
PSL$V_IS       = 0000001A
PSL$V_IV       = 00000005
PSL$V_PRVMOD   = 00000016
PSL$V_TBIT     = 00000004
PSL$V_TP       = 0000001E
QUAD           = 00000008  G
RECV             ********   X   05
REGION_ERG       0000000C R     04
REST_REGS        ********   X   05
SATSSS78        SATS SYSTEM SERV TESTS  $LK/ULWSET (SUCC S.C.)   22-AUG-1978 04:17:43   VAX-11 MACRO X0.3-11               Page  19
PROGRAM SECTION SYNOPSIS                                                                                                         (1)


PROGRAM SECTION SYNOPSIS

.  ABS  .        00000000      00     NOPIC   USR   CON   ABS   LCL NOSHR NOEXE NORD  NOWRT BYTE
. BLANK .        00000000      01     NOPIC   USR   CON   REL   LCL NOSHR   EXE   RD    WRT BYTE
$ABS$            0000011C      02     NOPIC   USR   CON   ABS   LCL NOSHR   EXE   RD    WRT BYTE
RODATA           00000051      03     NOPIC   USR   CON   REL   LCL NOSHR NOEXE   RD  NOWRT LONG
RWDATA           00000190      04     NOPIC   USR   CON   REL   LCL NOSHR NOEXE   RD    WRT LONG
SATSSS78         000005AE      05     NOPIC   USR   CON   REL   LCL NOSHR   EXE   RD    WRT BYTE


THERE WERE NO ERRORS OR WARNINGS.
14380. BYTES LEFT IN FREE MEMORY POOL.
56. BYTES OF RECLAIMED MEMORY.
OBJ$:SATSSS78,LIS$:SATSSS78/-SP=EXECML$/ML,LIB$:SYSTST.MLB/ML,SRC$:SATSSS78
42 MLB DIR RDS - 670 GETS TO DEFINE 29 MACROS. 37 INTER. FILE WRITES.
