SATSSF03        - SATS SYSTEM SERVICE TESTS  (FAILING S.C.)      22-AUG-1978 03:40:12   VAX-11 MACRO X0.3-11               Page   0
TABLE OF CONTENTS

   (1)      46  DECLARATIONS
   (1)     249  SATSSF03
   (1)     336  SFCLN10
   (1)     359  SFCLN11
   (1)     382  SFCLN12
   (1)     405  SFCLN13
   (1)     428  SFCLN20
   (1)     451  SFCLN21
   (1)     474  SFCLN22
   (1)     498  SFCLN23
   (1)     522  SFCLN24
   (1)     544  SFCLN30
   (1)     567  SFCLN31
   (1)     590  SFCLN32
   (1)     614  SFCLN33
   (1)     638  SFCLN34
   (1)     660
   (1)     663  SFCLN25
   (1)     686  SFCLN26
   (1)     708  SFCLN27
   (1)     730  SFCLN35
   (1)     753  SFCLN36
   (1)     775  SFCLN37
   (1)     797
   (1)     801  SFDLN10
   (1)     824  SFDLN11
   (1)     847  SFDLN12
   (1)     870  SFDLN13
   (1)     893  SFDLN20
   (1)     916  SFDLN21
   (1)     939  SFDLN22
   (1)     963  SFDLN23
   (1)     987  SFDLN24
   (1)    1009
   (1)    1012  SFDLN25
   (1)    1035  SFDLN26
   (1)    1057  SFDLN27
   (1)    1079  SFDLN28
   (1)    1101  SFDLN29
   (1)    1124
   (1)    1128  SFTLN10
   (1)    1151  SFTLN11
   (1)    1174  SFTLN12
   (1)    1198  SFTLN13
   (1)    1222  SFTLN14
   (1)    1244  SFTLN20
   (1)    1266  SFTLN21
   (1)    1288  SFTLN22
   (1)    1311  SFTLN30
   (1)    1334  SFTLN31
   (1)    1357  SFTLN32
   (1)    1381  SFTLN33
   (1)    1405  SFTLN34
   (1)    1427  SFTLN40
   (1)    1449  SFTLN41
   (1)    1471  SFTLN50
   (1)    1493  SFTLN51
SATSSF03        - SATS SYSTEM SERVICE TESTS  (FAILING S.C.)      22-AUG-1978 03:40:12   VAX-11 MACRO X0.3-11               Page   0
TABLE OF CONTENTS

   (1)    1515
   (1)    1518  SFTLN15
   (1)    1541  SFTLN16
   (1)    1564  SFTLN35
   (1)    1587  SFTLN36
   (1)    1609  SFTLN37
   (1)    1632
   (1)    1779  EXECUTE & CLEANUP
   (1)    1791  TC_CONTROL
   (1)    1872  SUBROUTINES
SATSSF03        - SATS SYSTEM SERVICE TESTS  (FAILING S.C.)      22-AUG-1978 03:40:12   VAX-11 MACRO X0.3-11               Page   1
1.0                                                                                                                              (1)

                                     0000     1 	.TITLE	SATSSF03 - SATS SYSTEM SERVICE TESTS  (FAILING S.C.)
                                     0000     2 	.IDENT	/1.0/
                                     0000     3
                                     0000     4 ;
                                     0000     5 ;			  COPYRIGHT (c) 1977,1978 BY
                                     0000     6 ;	      DIGITAL EQUIPMENT CORPORATION, MAYNARD, MASS.
                                     0000     7 ;
                                     0000     8 ; THIS SOFTWARE IS FURNISHED UNDER A LICENSE AND MAY BE USED AND  COPIED
                                     0000     9 ; ONLY  IN  ACCORDANCE  WITH  THE  TERMS  OF  SUCH  LICENSE AND WITH THE
                                     0000    10 ; INCLUSION OF THE ABOVE COPYRIGHT NOTICE.  THIS SOFTWARE OR  ANY  OTHER
                                     0000    11 ; COPIES  THEREOF MAY NOT BE PROVIDED OR OTHERWISE MADE AVAILABLE TO ANY
                                     0000    12 ; OTHER PERSON.  NO TITLE TO AND OWNERSHIP OF  THE  SOFTWARE  IS  HEREBY
                                     0000    13 ; TRANSFERRED.
                                     0000    14 ;
                                     0000    15 ; THE INFORMATION IN THIS SOFTWARE IS SUBJECT TO CHANGE  WITHOUT  NOTICE
                                     0000    16 ; AND  SHOULD  NOT  BE  CONSTRUED  AS  A COMMITMENT BY DIGITAL EQUIPMENT
                                     0000    17 ; CORPORATION.
                                     0000    18 ;
                                     0000    19 ; DIGITAL ASSUMES NO RESPONSIBILITY FOR THE USE OR  RELIABILITY  OF  ITS
                                     0000    20 ; SOFTWARE ON EQUIPMENT WHICH IS NOT SUPPLIED BY DIGITAL.
                                     0000    21 ;
                                     0000    22
                                     0000    23 ;++
                                     0000    24 ; FACILITY:	SATS SYSTEM SERVICE TESTS
                                     0000    25 ;
                                     0000    26 ; ABSTRACT:	THE SATSSF03 MODULE TESTS THE EXECUTION OF CERTAIN
                                     0000    27 ; VMS SYSTEM SERVICES, INVOKED IN SUCH A WAY AS TO EXPECT FAILING
                                     0000    28 ; STATUS CODES. THE SYSTEM SERVICES TESTED AND THE STATUS CODES
                                     0000    29 ; EXPECTED ARE SUMMARIZED AS ARGUMENTS TO THE TESTSERV MACROS
                                     0000    30 ; WHICH APPEAR NEAR THE END OF THIS LISTING. SUCCESSFUL STATUS
                                     0000    31 ; CODES ARE TESTED IN OTHER MODULES.
                                     0000    32 ;
                                     0000    33 ;
                                     0000    34 ; ENVIRONMENT:	USER MODE IMAGE; NEEDS CMKRNL PRIVILEGE,
                                     0000    35 ;		DYNAMICALLY ACQUIRES OTHER PRIVILEGES, AS NEEDED.
                                     0000    36 ;
                                     0000    37 ; AUTHOR: THOMAS L. CAFARELLA,		CREATION DATE: MMM, 1978
                                     0000    38 ;	  PAUL D. FAY (DISPSERV & TESTSERV MACROS)
                                     0000    39 ;
                                     0000    40 ; MODIFIED BY:
                                     0000    41 ;
                                     0000    42 ;	, : VERSION
                                     0000    43 ; 01	-
                                     0000    44 ;--
SATSSF03        - SATS SYSTEM SERVICE TESTS  (FAILING S.C.)      22-AUG-1978 03:40:12   VAX-11 MACRO X0.3-11               Page   2
1.0             DECLARATIONS                                                                                                     (1)

                                     0000    46 	.SBTTL	DECLARATIONS
                                     0000    47 ;
                                     0000    48 ; INCLUDE FILES:
                                     0000    49 ;
                                     0000    50 	$PRVDEF				; SYMBOL DEFS FOR PRIVILEGES
                                     0000    51 	$UETPDEF			; UETP MSG CODE DEFINITIONS
                                     0000    52 	$SHR_MESSAGES UETP,116,<<TEXT,INFO>>
                                     0000    53 					; DEFINE UETP$_TEXT
                           00000004  0000    54 	.MDELETE ($PRVDEF,$UETPDEF,$SHR_MESSAGES,$SHRDEF)
                                     0000    55 					; GET RID OF MACRO DEFINITIONS
                                     0000    56 ;
                                     0000    57 ; MACROS:
                                     0000    58 ;
                                     0000    59 ;
                                     0000    60 ; EQUATED SYMBOLS:
                                     0000    61 ;
                           00000000  0000    62 WARNING		= 0			; WARNING SEVERITY VALUE FOR MSGS
                           00000001  0000    63 SUCCESS		= 1			; SUCCESS SEVERITY VALUE FOR MSGS
                           00000002  0000    64 ERROR		= 2			; ERROR SEVERITY VALUE FOR MSGS
                           00000003  0000    65 INFO		= 3			; INFORMATIONAL SEV VALUE FOR MSGS
                           00000004  0000    66 SEVERE		= 4			; SEVERE (FATAL) SEV VALUE FOR MSGS
                           00000000  0000    67 TCG_NO		=  0			; INITIALIZE TEST CASE GROUP NUMBER
                           00000000  0000    68 GRP_TOTAL	=  0			; INITIALIZE TEST CASE GROUP TOTAL
                           00007FFF  0000    69 R0_THRU_SP	= ^M<R0,R1,R2,R3,R4,R5,R6,R7,R8,R9,R10,R11,AP,FP,SP>
                           00000001  0000    70 RSLLEN_TLN20	= 1			; RSLLEN ARG FOR TRNLOG (LOCATION 1)
                           00000001  0000    71 TABLE_TLN40	= 1			; TABLE ARG FOR TRNLOG (LOCATION 1)
                           00000001  0000    72 ACMODE_TLN50	= 1			; ACMODE ARG FOR TRNLOG (LOCATION 1)
                                     0000    73 ;
                                     0000    74 ; ****** THE FOLLOWING ASSIGNMENTS (IN PHD, PCB, STS) ARE BEING MADE
                                     0000    75 ; ****** WITHOUT REFERENCE TO $PHDDEF, $PCBDEF, $STSDEF BECAUSE OF
                                     0000    76 ; ****** SYMBOL TABLE OVERFLOW. FIX THIS WHEN MORE TABLE SPACE AVAILABLE.
                                     0000    77 ;
                           00000000  0000    78 PHD$Q_PRIVMSK	= 0			; PRIV MASK OFFSET INTO PHD
                           00000020  0000    79 PCB$L_UIC	= ^X20			; UIC OFFSET INTO PCB
                           0000001C  0000    80 STS$V_INHIB_MSG	= ^X1C			; INHIBIT_MSG BIT NUMBER IN MSG CODE
                                     0000    81 ;
                                     0000    82 ; OWN STORAGE:
                                     0000    83 ;
SATSSF03        - SATS SYSTEM SERVICE TESTS  (FAILING S.C.)      22-AUG-1978 03:40:12   VAX-11 MACRO X0.3-11               Page   3
1.0             DECLARATIONS                                                                                                     (1)

                                 00000000    85 	.PSECT	RODATA,RD,NOWRT,NOEXE,LONG
                                     0000    86 REG_COMP_MASK:	.WORD	^M<R2,R3,R4,R5,R6,R7,R8,R9,R10,R11,AP,FP> ! ^X8000 -
                               BFFC  0000    87 					; REG COMPARE MASK (HIGH-ORDER ...
                                     0002    88 					; ... BIT MUST BE ON
                                     0002    89 ERR_MSG_FAOCTL:	STRING	I,<!/!AC!1ZB!1ZB: REGISTER !2UW CONTENTS ALTERED>, -
                                     0002    90 		<;  BEFORE SERVICE CALL: !8XL   AFTER SERVICE CALL: !8XL>
                                     006E    91 TEST_MOD_NAME:	STRING	C,<SATSSF03>	; TEST MODULE NAME
                                     0077    92 TEST_MOD_BEG:	STRING	C,<begun>	; DISPOSITION FIELD OF TEST MOD MSG
                                     007D    93 TEST_MOD_SUCC:	STRING	C,<successful>	; DISPOSITION FIELD OF TEST MOD MSG
                                     0088    94 TEST_MOD_FAIL:	STRING	C,<failed>	; DISPOSITION FIELD OF TEST MOD MSG
                                     008F    95 TEST_MOD_NAME_D: STRING	I,<SATSSF03>	; TEST MODULE NAME DESCRIPTOR
                                     009F    96 TTNAME:     	STRING  I,<TT>		; TERMINAL LOGICAL NAME
                  00000000'00000000' 00A9    97 INADR:		.LONG	NOACCESS,NOACCESS ; PAGE ADDRESS OF NOACCESS PSECT
                           00000000' 00B1    98 PROT:		.LONG	PRT$C_NA	; PROTECTION CODE FOR NOACCESS PSECT
                  FFFFFFFF FFFFFFFF  00B5    99 ONES:		.LONG	-1,-1		; A QUADWORD OF 1-BITS
                                     00BD   100 ; TBLFLG_CLN:	.LONG	LOG$C_PROCESS ; TBLFLG ARGUMENT FOR CRELOG
                                     00BD   101 ; ****** TEMPORARILY USE CONSTANT 2 FOR LOG$C_PROCESS ****
                           00000002  00BD   102 TBLFLG_CLN:	.LONG	2		; TBLFLG ARGUMENT FOR CRELOG
                                     00C1   103 LOGNAM_CLN:	STRING	I,<LOGNAM_CLN>	; LOGNAM ARGUMENT FOR CRELOG
                           00000001  00D3   104 LOGNAM_CLN24:	.LONG	1		; LOGNAM ARGUMENT FOR CRELOG
                           00000000' 00D7   105 		.ADDRESS NOACCESS 	; ........
                                     00DB   106 LOGNAM_CLN26:	STRING	I,   -		; LOGNAM ARGUMENT FOR CRELOG
                                     00DB   107 		  <SIXTY-FOUR CHARACTERS>,  -
                                     00DB   108 		  <$$$$$$$$$$$$$$$$$$$$$$>, -
                                     00DB   109 		  <$$$$$$$$$$$$$$$$$$$$$>
                           00000000  0123   110 LOGNAM_CLN27:	.LONG	0		; LOGNAM ARGUMENT FOR CRELOG
                           00000127' 0127   111 		.ADDRESS .		; ...........
                                     012B   112 EQLNAM_CLN:	STRING	I,<EQLNAM_CLN>	; EQLNAM ARGUMENT FOR CRELOG
                           00000001  013D   113 EQLNAM_CLN34:	.LONG	1		; EQLNAM ARGUMENT FOR CRELOG
                           00000000' 0141   114 		.ADDRESS NOACCESS 	; ........
                                     0145   115 EQLNAM_CLN36:	STRING	I,   -		; EQLNAM ARGUMENT FOR CRELOG
                                     0145   116 		  <SIXTY-FOUR CHARACTERS>,  -
                                     0145   117 		  <$$$$$$$$$$$$$$$$$$$$$$>, -
                                     0145   118 		  <$$$$$$$$$$$$$$$$$$$$$>
                           00000000  018D   119 EQLNAM_CLN37:	.LONG	0		; EQLNAM ARGUMENT FOR CRELOG
                           00000191' 0191   120 		.ADDRESS .		; ...........
                                     0195   121 ; ACMODE_CLN:	.LONG	PSL$C_KERNEL	; ACMODE ARGUMENT FOR CRELOG
                                     0195   122 ; **** TEMPORARILY USE CONSTANT VALUE FOR PSL$C_KERNEL  ****
                           00000000  0195   123 ACMODE_CLN:	.LONG	0		; ACMODE ARGUMENT FOR CRELOG
                                     0199   124 ; TBLFLG_DLN:	.LONG	LOG$C_PROCESS	; TBLFLG ARGUMENT FOR DELLOG
                                     0199   125 ; ***** TEMPORARILY USE CONSTANT 2 FOR LOG$C_PROCESS ****
                           00000002  0199   126 TBLFLG_DLN:	.LONG	2		; TBLFLG ARGUMENT FOR DELLOG
                                     019D   127 LOGNAM_DLN:	STRING	I,<LOGNAM_DLN>	; LOGNAM ARGUMENT FOR DELLOG
                           00000001  01AF   128 LOGNAM_DLN24:	.LONG	1		; LOGNAM ARGUMENT FOR DELLOG
                           00000000' 01B3   129 		.ADDRESS NOACCESS 	; ........
                                     01B7   130 LOGNAM_DLN26:	STRING	I,   -		; LOGNAM ARGUMENT FOR DELLOG
                                     01B7   131 		  <SIXTY-FOUR CHARACTERS>,  -
                                     01B7   132 		  <$$$$$$$$$$$$$$$$$$$$$$>, -
                                     01B7   133 		  <$$$$$$$$$$$$$$$$$$$$$>
                           00000000  01FF   134 LOGNAM_DLN27:	.LONG	0		; LOGNAM ARGUMENT FOR DELLOG
                           00000203' 0203   135 		.ADDRESS .		; ...........
                                     0207   136 LOGNAM_DLN28:	STRING	I,<SFDLN28>	; LOGNAM ARGUMENT FOR DELLOG
                                     0216   137 LOGNAM_DLN29:	STRING	I,<SFDLN29>	; LOGNAM ARGUMENT FOR DELLOG
                                     0225   138 LOGNAM_TLN:	STRING	I,<LOGNAM_TLN>	; LOGNAM ARGUMENT FOR TRNLOG
                           00000001  0237   139 LOGNAM_TLN14:	.LONG	1		; LOGNAM ARGUMENT FOR TRNLOG
                           00000000' 023B   140 		.ADDRESS NOACCESS 	; .........
                                     023F   141 LOGNAM_TLN16:	STRING	I,<_LOGNAM_TLN16> ; LOGNAM ARGUMENT FOR TRNLOG
SATSSF03        - SATS SYSTEM SERVICE TESTS  (FAILING S.C.)      22-AUG-1978 03:40:12   VAX-11 MACRO X0.3-11               Page   4
1.0             DECLARATIONS                                                                                                     (1)

                           00000256  0254   142 RSLLEN_TLN21:	.BLKW	1		; RSLLEN ARGUMENT FOR TRNLOG
                           00000001  0256   143 RSLBUF_TLN34:	.LONG	1		; RSLBUF ARGUMENT FOR TRNLOG
                           00000000' 025A   144 		.ADDRESS NOACCESS 	; ..........
                           0000025F  025E   145 TABLE_TLN41:	.BLKB	1		; TABLE ARGUMENT FOR TRNLOG
                           00000260  025F   146 ACMODE_TLN51:	.BLKB	1		; ACMODE ARGUMENT FOR TRNLOG
SATSSF03        - SATS SYSTEM SERVICE TESTS  (FAILING S.C.)      22-AUG-1978 03:40:12   VAX-11 MACRO X0.3-11               Page   5
1.0             DECLARATIONS                                                                                                     (1)

                                 00000000   148 	.PSECT	RWDATA,RD,WRT,NOEXE
                           00000004  0000   149 TPID:		.BLKL	1		; PROCESS ID FOR THIS PROCESS
                           00000008  0004   150 CURRENT_TC:	.BLKL	1 		; PTR TO CURRENT TEST CASE
                           00000044  0008   151 REG_SAVE_AREA:	.BLKL	15		; SAVE AREA FOR ALL REGS (SANS PC)
                           007480D9  0044   152 MOD_MSG_CODE:	.LONG	UETP$_SATSMS	; TEST MODULE MSG CODE FOR PUTMSG
                           0000004C  0048   153 CLOB_REG_NO:	.BLKL	1		; CLOBBERED REG NO (FOR FAO ERR MSG)
                           00000050  004C   154 REG_BEFORE_SS:	.BLKL	1		; REG CONTENTS BEFORE S.S.
                                     0050   155 					; ... (FOR FAO ERROR MSG)
                           00000054  0050   156 REG_AFTER_SS:	.BLKL	1		; REG CONTENTS AFTER S.S.
                                     0054   157 					; ... (FOR FAO ERROR MSG)
                                     0054   158 $$TSTN$$:	STRING	C,<  SF   >	; ASCII PORTION OF TEST CASE NAME
                           0000006E' 005C   159 TMN_ADDR:	.ADDRESS TEST_MOD_NAME	; ADDR OF TEST MOD NAME FOR FAO
                           00000077' 0060   160 TMD_ADDR:	.ADDRESS TEST_MOD_BEG	; ADDR OF T.M. DISP FIELD FOR FAO
                           00000068  0064   161 TS_EP:		.BLKL	1		; ENTRY PNT FOR CURR TESTSERV MACRO
                           00000070  0068   162 RETADR:		.BLKL	2		; RETURN LONGWORDS FOR SETPRT
                           00000071  0070   163 PRVPRT:		.BLKB	1		; PROT RETURN BYTE FOR SETPRT
                           00000079  0071   164 PRIVMASK:	.BLKQ	1		; ADDR OF PRIVILEGE MASK (IN PHD)
                           0000007D  0079   165 CHM_CONT:	.BLKL	1		; CHANGE MODE CONTINUE ADDRESS
                           00000091  007D   166 REGS:		.BLKL	5		; AREA FOR COND INDEX REGS (R2-R6)
                           00000095  0091   167 TBLFLG_CLN10:	.BLKL	1		; TBLFLG ARGUMENT FOR CRELOG
                           00000099  0095   168 TBLFLG_CLN11:	.BLKL	1		; TBLFLG ARGUMENT FOR CRELOG
                           0000009D  0099   169 TBLFLG_CLN12:	.BLKL	1		; TBLFLG ARGUMENT FOR CRELOG
                           000000A1  009D   170 TBLFLG_CLN13:	.BLKL	1		; TBLFLG ARGUMENT FOR CRELOG
                           000000A5  00A1   171 TBLFLG_DLN10:	.BLKL	1		; TBLFLG ARGUMENT FOR DELLOG
                           000000A9  00A5   172 TBLFLG_DLN11:	.BLKL	1		; TBLFLG ARGUMENT FOR DELLOG
                           000000AD  00A9   173 TBLFLG_DLN12:	.BLKL	1		; TBLFLG ARGUMENT FOR DELLOG
                           000000B1  00AD   174 TBLFLG_DLN13:	.BLKL	1		; TBLFLG ARGUMENT FOR DELLOG
                           000000B3  00B1   175 RSLLEN_TLN:	.BLKW	1		; RSLLEN ARGUMENT FOR TRNLOG
                                     00B3   176 RSLBUF_TLN:	STRING	O,11		; RSLBUF ARGUMENT FOR TRNLOG
                           00000000  00C6   177 RSLBUF_TLN36:	.LONG	0		; RSLBUF ARGUMENT FOR TRNLOG
                                     00CA   178 RSLBUF_TLN37:	STRING	O,9		; RSLBUF ARGUMENT FOR TRNLOG
                           000000DC  00DB   179 TABLE_TLN:	.BLKB	1		; TABLE ARGUMENT FOR TRNLOG
                           000000DD  00DC   180 ACMODE_TLN:	.BLKB	1		; ACMODE ARGUMENT FOR TRNLOG
SATSSF03        - SATS SYSTEM SERVICE TESTS  (FAILING S.C.)      22-AUG-1978 03:40:12   VAX-11 MACRO X0.3-11               Page   6
1.0             DECLARATIONS                                                                                                     (1)

                                 00000000   182 	.PSECT	SATS_ACCVIO_1,RD,WRT,NOEXE,PAGE
                           00000200  0000   183 EMPTY:		.BLKB	512	; RESERVE A PAGE OF SPACE
                                     0200   184 ;
                                     0200   185 ; +
                                     0200   186 ; ******************************************************************
                                     0200   187 ; *                                                                *
                                     0200   188 ; * 	THE ORDER OF STATEMENTS IN THIS PSECT IS CRITICAL.         *
                                     0200   189 ; *	DO NOT RE-ARRANGE THE VARIABLES. CONSULT SATS              *
                                     0200   190 ; *	FUNCTIONAL SPECIFICATION FOR A DESCRIPTION OF THE USE      *
                                     0200   191 ; *	OF THE EMPTY PSECT (AND ITS COMPANION PSECT, NOACCESS).    *
                                     0200   192 ; *                                                                *
                                     0200   193 ; ******************************************************************
                                     0200   194 ; -
                                     0200   195 ;
                           000001FF  0200   196 LOGNAM_CLN21	= . - 1		; LOGNAM ARG FOR CRELOG (LAST BYTE IN PAGE)
                           000001FF  0200   197 EQLNAM_CLN31	= . - 1		; EQLNAM ARG FOR CRELOG (LAST BYTE IN PAGE)
                           000001FF  0200   198 LOGNAM_DLN21	= . - 1		; LOGNAM ARG FOR DELLOG (LAST BYTE IN PAGE)
                           000001FF  0200   199 LOGNAM_TLN11	= . - 1		; LOGNAM ARG FOR TRNLOG (LAST BYTE IN PAGE)
                           000001FF  0200   200 RSLLEN_TLN22	= . - 1		; RSLLEN ARG FOR TRNLOG (LAST BYTE IN PAGE)
                           000001FF  0200   201 RSLBUF_TLN31	= . - 1		; RSLBUF ARG FOR TRNLOG (LAST BYTE IN PAGE)
                           000001F3  0200   202 		. = . - 13	; ALLOW ROOM FOR STRING DESCRIPTOR
                                     01F3   203 LOGNAM_CLN25:			; LOGNAM ARGUMENT FOR CRELOG
                                     01F3   204 EQLNAM_CLN35:			; EQLNAM ARGUMENT FOR CRELOG
                                     01F3   205 LOGNAM_DLN25:			; LOGNAM ARGUMENT FOR DELLOG
                                     01F3   206 LOGNAM_TLN15:			; LOGNAM ARGUMENT FOR TRNLOG
                                     01F3   207 RSLBUF_TLN35:			; RSLBUF ARGUMENT FOR TRNLOG
                           00000006  01F3   208 		.LONG	6	; STRING LENGTH (WILL CROSS PSECT BOUNDARY)
                           000001FB' 01F7   209 		.ADDRESS .+4	; STRING ADDRESS
                                     01FB   210 LOGNAM_CLN23:			; LOGNAM ARGUMENT FOR CRELOG
                                     01FB   211 EQLNAM_CLN33:			; EQLNAM ARGUMENT FOR CRELOG
                                     01FB   212 LOGNAM_DLN23:			; LOGNAM ARGUMENT FOR DELLOG
                                     01FB   213 LOGNAM_TLN13:			; LOGNAM ARGUMENT FOR TRNLOG
                                     01FB   214 RSLBUF_TLN33:			; RSLBUF ARGUMENT FOR TRNLOG
                           000001FC  01FB   215 		.BLKB	1	; LOW-ORDER BYTE OF STRING LENGTH
                                     01FC   216 LOGNAM_CLN22:			; LOGNAM ARGUMENT FOR CRELOG
                                     01FC   217 EQLNAM_CLN32:			; EQLNAM ARGUMENT FOR CRELOG
                                     01FC   218 LOGNAM_DLN22:			; LOGNAM ARGUMENT FOR DELLOG
                                     01FC   219 LOGNAM_TLN12:			; LOGNAM ARGUMENT FOR TRNLOG
                                     01FC   220 RSLBUF_TLN32:			; RSLBUF ARGUMENT FOR TRNLOG
                           00000200  01FC   221 		.BLKL	1	; STRING LENGTH
                                     0200   222 ;
                                     0200   223 ;
                                     0200   224 ;
                                     0200   225 ;
                                 00000000   226 	.PSECT	SATS_ACCVIO_2,RD,WRT,NOEXE,PAGE
                           00000200  0000   227 NOACCESS:	.BLKB	512	; RESERVE A PAGE OF SPACE
                           00000000  0200   228 		. = . - 512	; RETURN LOC CTR TO BEGINNING OF PSECT
                           00000000' 0000   229 		.ADDRESS EMPTY	; ADDRESS OF ACCESSIBLE STRING
                           00000000' 0004   230 		.ADDRESS EMPTY/^X100 ; ADDRESS OF ACCESSIBLE STRING
                                     0008   231 ;+
                                     0008   232 ; *** NOTE -- DO NOT CHANGE LOCATION OR SEQUENCE OF ABOVE STATEMENTS!
                                     0008   233 ; ***         THIS PSECT (NOACCESS) MUST APPEAR IN MEMORY IMMEDIATELY
                                     0008   234 ; ***         FOLLOWING THE EMPTY PSECT. PSECT NAMES AND OPTIONS WILL BE
                                     0008   235 ; ***         CHOSEN TO FORCE THE DESIRED PSECT ORDERING.
                                     0008   236 ;-
                                     0008   237 LOGNAM_CLN20:	STRING	I,<SFCLN20> ; LOGNAM ARGUMENT FOR CRELOG
                                     0017   238 EQLNAM_CLN30:	STRING	I,<SFCLN30> ; EQLNAM ARGUMENT FOR CRELOG
SATSSF03        - SATS SYSTEM SERVICE TESTS  (FAILING S.C.)      22-AUG-1978 03:40:12   VAX-11 MACRO X0.3-11               Page   7
1.0             DECLARATIONS                                                                                                     (1)

                                     0026   239 LOGNAM_DLN20:	STRING	I,<SFDLN20> ; LOGNAM ARGUMENT FOR DELLOG
                                     0035   240 LOGNAM_TLN10:	STRING	I,<SFTLN10> ; LOGNAM ARGUMENT FOR TRNLOG
                                     0044   241 RSLBUF_TLN30:	STRINGO	15	; RSLBUF ARGUMENT FOR TRNLOG
                                     005B   242 ;
                                     005B   243 ;
                                     005B   244 ;
                                     005B   245 ;
                           00000001  005B   246 	.MDELETE (STRING)		; NO LONGER NEED MACRO DEFINITION
                                 00000000   247 	.PSECT	SATSSF03,RD,WRT,EXE,LONG
SATSSF03        - SATS SYSTEM SERVICE TESTS  (FAILING S.C.)      22-AUG-1978 03:40:12   VAX-11 MACRO X0.3-11               Page   8
1.0             SATSSF03                                                                                                         (1)

                                     0000   249 	.SBTTL	SATSSF03
                                     0000   250 ;++
                                     0000   251 ; FUNCTIONAL DESCRIPTION:
                                     0000   252 ;
                                     0000   253 ;		AFTER PERFORMING SOME INITIAL HOUSEKEEPING, SUCH AS
                                     0000   254 ; PRINTING THE MODULE BEGIN MESSAGE AND ACQUIRING ALL PRIVILEGES,
                                     0000   255 ; THE SATSSF03 ROUTINE EXECUTES THE TEST_SERV_EXEC MACRO TO RUN
                                     0000   256 ; ALL TEST CASES. WHEN THE MACRO COMPLETES ITS EXECUTION, SATSSF03
                                     0000   257 ; PRINTS A TEST MODULE SUCCESS OR FAIL MESSAGE AND EXITS TO THE
                                     0000   258 ; OPERATING SYSTEM. TEST_SERV_EXEC CALLS THE TC_CONTROL/TESTSERV
                                     0000   259 ; CO-ROUTINE PAIR ONCE PER TEST CASE GROUP TO EXECUTE ALL TEST
                                     0000   260 ; CASES IN THAT GROUP. EACH TEST CASE GROUP IS DEFINED BY BOUNDING
                                     0000   261 ; ITS TEST CASES WITH A TC_GROUP MACRO BEFORE THE FIRST TEST CASE
                                     0000   262 ; AND A TCEND MACRO AFTER THE LAST ONE. THE TEST CASES THEMSELVES
                                     0000   263 ; ARE DEFINED WITHIN THESE BOUNDS BY PRECEDING EACH WITH A
                                     0000   264 ; NEXT_TEST_CASE MACRO. TC_CONTROL/TESTSERV EXECUTES THE CODE
                                     0000   265 ; FOLLOWING EACH NEXT_TEST_CASE MACRO IMMEDIATELY BEFORE ISSUING
                                     0000   266 ; THE SYSTEM SERVICE AS REQUESTED IN THE TESTSERV MACRO. TC_CONTROL/
                                     0000   267 ; TESTSERV ALSO CHECKS THE RESULTS OF THE SERVICE WITH RESPECT
                                     0000   268 ; TO ITS EXPECTED STATUS CODE AND PRINTS ANY REQUIRED FAILURE
                                     0000   269 ; MESSAGES FOR THE TEST CASE. THE CODE APPEARING AFTER EACH
                                     0000   270 ; NEXT_TEST_CASE MACRO IS MERELY TO SET UP CONDITIONS REQUIRED
                                     0000   271 ; FOR THE SYSTEM SERVICE AND TO CLEAN UP ANY RESOURCES ACQUIRED
                                     0000   272 ; BY THE PREVIOUS TEST CASE.
                                     0000   273 ;
                                     0000   274 ; CALLING SEQUENCE:
                                     0000   275 ;
                                     0000   276 ;	$ RUN SATSSF03  ...  (DCL COMMAND)
                                     0000   277 ;
                                     0000   278 ; INPUT PARAMETERS:
                                     0000   279 ;
                                     0000   280 ;	NONE
                                     0000   281 ;
                                     0000   282 ; IMPLICIT INPUTS:
                                     0000   283 ;
                                     0000   284 ;	NONE
                                     0000   285 ;
                                     0000   286 ; OUTPUT PARAMETERS:
                                     0000   287 ;
                                     0000   288 ;	NONE
                                     0000   289 ;
                                     0000   290 ; IMPLICIT OUTPUTS:
                                     0000   291 ;
                                     0000   292 ;	MESSAGES TO SYS$OUTPUT ARE THE ONLY OUTPUT FROM SATSSF03.
                                     0000   293 ;	THEY ARE OF THE FORM:
                                     0000   294 ;
                                     0000   295 ;		%UETP-S-SATSMS, TEST MODULE SATSSF03 BEGUN ... (BEGIN MSG)
                                     0000   296 ;		%UETP-S-SATSMS, TEST MODULE SATSSF03 SUCCESSFUL ... (END MSG)
                                     0000   297 ;		%UETP-E-SATSMS, TEST MODULE SATSSF03 FAILED ... (END MSG)
                                     0000   298 ;		%UETP-I-TEXT, ... (VARIABLE INFORMATION ABOUT A TEST MODULE FAILURE)
                                     0000   299 ;
                                     0000   300 ; COMPLETION CODES:
                                     0000   301 ;
                                     0000   302 ;	THE SATSSF03 ROUTINE TERMINATES WITH A $EXIT TO THE
                                     0000   303 ;	OPERATING SYSTEM WITH A STATUS CODE DEFINED BY UETP$_SATSMS.
                                     0000   304 ;
                                     0000   305 ; SIDE EFFECTS:
SATSSF03        - SATS SYSTEM SERVICE TESTS  (FAILING S.C.)      22-AUG-1978 03:40:12   VAX-11 MACRO X0.3-11               Page   9
1.0             SATSSF03                                                                                                         (1)

                                     0000   306 ;
                                     0000   307 ;	NONE
                                     0000   308 ;
                                     0000   309 ;--
                                     0000   310
                                     0000   311
                                     0000   312
                                     0000   313 SATSSF03:
                               0FFC  0000   314 	.WORD	^M<R2,R3,R4,R5,R6,R7,R8,R9,R10,R11>
                                     0002   315 					; ENTRY MASK
                                     0002   316 	$WAKE_S  TPID			; GET PID OF THIS PROCESS
                                     0011   317 	$HIBER_S			; UNDO WAKE
                                     0018   318 	$SETPRN_S TEST_MOD_NAME_D 	; SET PROCESS NAME
                          175A   30  0025   319 	BSBW	MOD_MSG_PRINT		; PRINT TEST MODULE BEGIN MSG
   00000060'EF   0000007D'EF     DE  0028   320 	MOVAL	TEST_MOD_SUCC,TMD_ADDR	; ASSUME END MSG WILL SHOW SUCCESS
            00            01     F0  0033   321 	INSV	#SUCCESS,#0,#3,MOD_MSG_CODE ; ADJUST STATUS CODE FOR SUCCESS
   00000044'EF            03         0036
                                     003C   322 	MODE	TO,10$,KRNL,NOREGS 	; KERNEL MODE TO ACCESS PHD
            59   00000000'9F     D0  0059   323 	MOVL	@#CTL$GL_PHD,R9		; GET PROCESS HEADER ADDRESS
   00000071'EF            69     DE  0060   324 	MOVAL	PHD$Q_PRIVMSK(R9),PRIVMASK ; GET PRIV MASK ADDRESS
                                     0067   325 	MODE	FROM,10$		; GET BACK TO USER MODE
                                     0068   326 	PRIV	ADD,ALL			; GET ALL PRIVILEGES
                                     0091   327 	DISPSERV			; SET UP DISPLAY INFO FOR TESTSERV
                                     0226   328 	$SETPRT_S INADR=INADR, RETADR=RETADR, -
                                     0226   329 		  PROT=PROT, PRVPRT=PRVPRT
                                     0247   330 					; SET NOACCESS PSECT ...
                                     0247   331 					; ... FOR NO USER ACCESS
                          13C1   31  0247   332 	BRW	EXECUTE			; GO EXECUTE ALL TEST CASES
                                     024A   333 ;
                                     024A   334 	TC_GROUP	CLN,1,TS1
                                     0271   335 ;
                                     0271   336 	NEXT_TEST_CASE	SFCLN10
SATSSF03        - SATS SYSTEM SERVICE TESTS  (FAILING S.C.)      22-AUG-1978 03:40:12   VAX-11 MACRO X0.3-11               Page  10
1.0             SFCLN10                                                                                                          (1)

                                     0271   337 ;
                                     0271   338 ;++
                                     0271   339 ; ******************************************************
                                     0271   340 ; *
                                     0271   341 ; *  TEST CASE NAME:		SFCLN10
                                     0271   342 ; *
                                     0271   343 ; *  SYSTEM SERVICE:		CRELOG
                                     0271   344 ; *
                                     0271   345 ; *  ARGUMENT UNDER TEST: 	TBLFLG_CLN10
                                     0271   346 ; *
                                     0271   347 ; *  INPUT CONDITIONS:
                                     0271   348 ; *	ILLEGAL TABLE NUMBER
                                     0271   349 ; *
                                     0271   350 ; *  EXPECTED RESULTS:
                                     0271   351 ; *	1) SYSTEM STATUS CODE:	IVLOGTAB
                                     0271   352 ; *	2) REGISTERS R2 THROUGH FP UNCHANGED
                                     0271   353 ; *
                                     0271   354 ; ******************************************************
                                     0271   355 ;--
                                     0271   356 ;
   00000091'EF         CE 8F     98  0271   357 	CVTBL	#-50,TBLFLG_CLN10 ; ILLEGAL TABLE NUMBER
                                     0279   358 ;
                                     0279   359 	NEXT_TEST_CASE	SFCLN11
SATSSF03        - SATS SYSTEM SERVICE TESTS  (FAILING S.C.)      22-AUG-1978 03:40:12   VAX-11 MACRO X0.3-11               Page  11
1.0             SFCLN11                                                                                                          (1)

                                     0285   360 ;
                                     0285   361 ;++
                                     0285   362 ; ******************************************************
                                     0285   363 ; *
                                     0285   364 ; *  TEST CASE NAME:		SFCLN11
                                     0285   365 ; *
                                     0285   366 ; *  SYSTEM SERVICE:		CRELOG
                                     0285   367 ; *
                                     0285   368 ; *  ARGUMENT UNDER TEST: 	TBLFLG_CLN11
                                     0285   369 ; *
                                     0285   370 ; *  INPUT CONDITIONS:
                                     0285   371 ; *	ILLEGAL TABLE NUMBER
                                     0285   372 ; *
                                     0285   373 ; *  EXPECTED RESULTS:
                                     0285   374 ; *	1) SYSTEM STATUS CODE:	IVLOGTAB
                                     0285   375 ; *	2) REGISTERS R2 THROUGH FP UNCHANGED
                                     0285   376 ; *
                                     0285   377 ; ******************************************************
                                     0285   378 ;--
                                     0285   379 ;
   00000095'EF         FF 8F     98  0285   380 	CVTBL	#-1,TBLFLG_CLN11 ; ILLEGAL TABLE NUMBER
                                     028D   381 ;
                                     028D   382 	NEXT_TEST_CASE	SFCLN12
SATSSF03        - SATS SYSTEM SERVICE TESTS  (FAILING S.C.)      22-AUG-1978 03:40:12   VAX-11 MACRO X0.3-11               Page  12
1.0             SFCLN12                                                                                                          (1)

                                     0299   383 ;
                                     0299   384 ;++
                                     0299   385 ; ******************************************************
                                     0299   386 ; *
                                     0299   387 ; *  TEST CASE NAME:		SFCLN12
                                     0299   388 ; *
                                     0299   389 ; *  SYSTEM SERVICE:		CRELOG
                                     0299   390 ; *
                                     0299   391 ; *  ARGUMENT UNDER TEST: 	TBLFLG_CLN12
                                     0299   392 ; *
                                     0299   393 ; *  INPUT CONDITIONS:
                                     0299   394 ; *	ILLEGAL TABLE NUMBER
                                     0299   395 ; *
                                     0299   396 ; *  EXPECTED RESULTS:
                                     0299   397 ; *	1) SYSTEM STATUS CODE:	IVLOGTAB
                                     0299   398 ; *	2) REGISTERS R2 THROUGH FP UNCHANGED
                                     0299   399 ; *
                                     0299   400 ; ******************************************************
                                     0299   401 ;--
                                     0299   402 ;
   00000099'EF            03     98  0299   403 	CVTBL	#3,TBLFLG_CLN12	; ILLEGAL TABLE NUMBER
                                     02A0   404 ;
                                     02A0   405 	NEXT_TEST_CASE	SFCLN13
SATSSF03        - SATS SYSTEM SERVICE TESTS  (FAILING S.C.)      22-AUG-1978 03:40:12   VAX-11 MACRO X0.3-11               Page  13
1.0             SFCLN13                                                                                                          (1)

                                     02AC   406 ;
                                     02AC   407 ;++
                                     02AC   408 ; ******************************************************
                                     02AC   409 ; *
                                     02AC   410 ; *  TEST CASE NAME:		SFCLN13
                                     02AC   411 ; *
                                     02AC   412 ; *  SYSTEM SERVICE:		CRELOG
                                     02AC   413 ; *
                                     02AC   414 ; *  ARGUMENT UNDER TEST: 	TBLFLG_CLN13
                                     02AC   415 ; *
                                     02AC   416 ; *  INPUT CONDITIONS:
                                     02AC   417 ; *	ILLEGAL TABLE NUMBER
                                     02AC   418 ; *
                                     02AC   419 ; *  EXPECTED RESULTS:
                                     02AC   420 ; *	1) SYSTEM STATUS CODE:	IVLOGTAB
                                     02AC   421 ; *	2) REGISTERS R2 THROUGH FP UNCHANGED
                                     02AC   422 ; *
                                     02AC   423 ; ******************************************************
                                     02AC   424 ;--
                                     02AC   425 ;
   0000009D'EF       2710 8F     32  02AC   426 	CVTWL	#10000,TBLFLG_CLN13 ; ILLEGAL TABLE NUMBER
                                     02B5   427 ;
                                     02B5   428 	NEXT_TEST_CASE	SFCLN20
SATSSF03        - SATS SYSTEM SERVICE TESTS  (FAILING S.C.)      22-AUG-1978 03:40:12   VAX-11 MACRO X0.3-11               Page  14
1.0             SFCLN20                                                                                                          (1)

                                     02C1   429 ;
                                     02C1   430 ;++
                                     02C1   431 ; ******************************************************
                                     02C1   432 ; *
                                     02C1   433 ; *  TEST CASE NAME:		SFCLN20
                                     02C1   434 ; *
                                     02C1   435 ; *  SYSTEM SERVICE:		CRELOG
                                     02C1   436 ; *
                                     02C1   437 ; *  ARGUMENT UNDER TEST: 	LOGNAM_CLN20
                                     02C1   438 ; *
                                     02C1   439 ; *  INPUT CONDITIONS:
                                     02C1   440 ; *	LOGNAM STRING DESCRIPTOR LENGTH FIELD IN
                                     02C1   441 ; *	  NON-ACCESSIBLE PSECT.
                                     02C1   442 ; *
                                     02C1   443 ; *  EXPECTED RESULTS:
                                     02C1   444 ; *	1) SYSTEM STATUS CODE:	ACCVIO
                                     02C1   445 ; *	2) REGISTERS R2 THROUGH FP UNCHANGED
                                     02C1   446 ; *
                                     02C1   447 ; ******************************************************
                                     02C1   448 ;--
                                     02C1   449 ;
                                     02C1   450 ;
                                     02C1   451 	NEXT_TEST_CASE	SFCLN21
SATSSF03        - SATS SYSTEM SERVICE TESTS  (FAILING S.C.)      22-AUG-1978 03:40:12   VAX-11 MACRO X0.3-11               Page  15
1.0             SFCLN21                                                                                                          (1)

                                     02CD   452 ;
                                     02CD   453 ;++
                                     02CD   454 ; ******************************************************
                                     02CD   455 ; *
                                     02CD   456 ; *  TEST CASE NAME:		SFCLN21
                                     02CD   457 ; *
                                     02CD   458 ; *  SYSTEM SERVICE:		CRELOG
                                     02CD   459 ; *
                                     02CD   460 ; *  ARGUMENT UNDER TEST: 	LOGNAM_CLN21
                                     02CD   461 ; *
                                     02CD   462 ; *  INPUT CONDITIONS:
                                     02CD   463 ; *	LOGNAM STRING DESCRIPTOR LENGTH FIELD BEGINS IN
                                     02CD   464 ; *	  ACCESSIBLE PSECT, ENDS IN NON-ACCESSIBLE PSECT.
                                     02CD   465 ; *
                                     02CD   466 ; *  EXPECTED RESULTS:
                                     02CD   467 ; *	1) SYSTEM STATUS CODE:	ACCVIO
                                     02CD   468 ; *	2) REGISTERS R2 THROUGH FP UNCHANGED
                                     02CD   469 ; *
                                     02CD   470 ; ******************************************************
                                     02CD   471 ;--
                                     02CD   472 ;
                                     02CD   473 ;
                                     02CD   474 	NEXT_TEST_CASE	SFCLN22
SATSSF03        - SATS SYSTEM SERVICE TESTS  (FAILING S.C.)      22-AUG-1978 03:40:12   VAX-11 MACRO X0.3-11               Page  16
1.0             SFCLN22                                                                                                          (1)

                                     02D9   475 ;
                                     02D9   476 ;++
                                     02D9   477 ; ******************************************************
                                     02D9   478 ; *
                                     02D9   479 ; *  TEST CASE NAME:		SFCLN22
                                     02D9   480 ; *
                                     02D9   481 ; *  SYSTEM SERVICE:		CRELOG
                                     02D9   482 ; *
                                     02D9   483 ; *  ARGUMENT UNDER TEST: 	LOGNAM_CLN22
                                     02D9   484 ; *
                                     02D9   485 ; *  INPUT CONDITIONS:
                                     02D9   486 ; *	LOGNAM STRING DESCRIPTOR ADDRESS FIELD IN
                                     02D9   487 ; *	  NON-ACCESSIBLE PSECT.
                                     02D9   488 ; *
                                     02D9   489 ; *  EXPECTED RESULTS:
                                     02D9   490 ; *	1) SYSTEM STATUS CODE:	ACCVIO
                                     02D9   491 ; *	2) REGISTERS R2 THROUGH FP UNCHANGED
                                     02D9   492 ; *
                                     02D9   493 ; ******************************************************
                                     02D9   494 ;--
                                     02D9   495 ;
   000001FC'EF            03     9A  02D9   496 	MOVZBL	#3,LOGNAM_CLN22	; ESTABLISH STRING LENGTH
                                     02E0   497 ;
                                     02E0   498 	NEXT_TEST_CASE	SFCLN23
SATSSF03        - SATS SYSTEM SERVICE TESTS  (FAILING S.C.)      22-AUG-1978 03:40:12   VAX-11 MACRO X0.3-11               Page  17
1.0             SFCLN23                                                                                                          (1)

                                     02EC   499 ;
                                     02EC   500 ;++
                                     02EC   501 ; ******************************************************
                                     02EC   502 ; *
                                     02EC   503 ; *  TEST CASE NAME:		SFCLN23
                                     02EC   504 ; *
                                     02EC   505 ; *  SYSTEM SERVICE:		CRELOG
                                     02EC   506 ; *
                                     02EC   507 ; *  ARGUMENT UNDER TEST: 	LOGNAM_CLN23
                                     02EC   508 ; *
                                     02EC   509 ; *  INPUT CONDITIONS:
                                     02EC   510 ; *	LOGNAM STRING DESCRIPTOR ADDRESS FIELD BEGINS IN
                                     02EC   511 ; *	  ACCESSIBLE PSECT, ENDS IN NON-ACCESSIBLE PSECT.
                                     02EC   512 ; *
                                     02EC   513 ; *  EXPECTED RESULTS:
                                     02EC   514 ; *	1) SYSTEM STATUS CODE:	ACCVIO
                                     02EC   515 ; *	2) REGISTERS R2 THROUGH FP UNCHANGED
                                     02EC   516 ; *
                                     02EC   517 ; ******************************************************
                                     02EC   518 ;--
                                     02EC   519 ;
   000001FB'EF            03     9A  02EC   520 	MOVZBL	#3,LOGNAM_CLN23	; ESTABLISH STRING LENGTH
                                     02F3   521 ;
                                     02F3   522 	NEXT_TEST_CASE	SFCLN24
SATSSF03        - SATS SYSTEM SERVICE TESTS  (FAILING S.C.)      22-AUG-1978 03:40:12   VAX-11 MACRO X0.3-11               Page  18
1.0             SFCLN24                                                                                                          (1)

                                     02FF   523 ;
                                     02FF   524 ;++
                                     02FF   525 ; ******************************************************
                                     02FF   526 ; *
                                     02FF   527 ; *  TEST CASE NAME:		SFCLN24
                                     02FF   528 ; *
                                     02FF   529 ; *  SYSTEM SERVICE:		CRELOG
                                     02FF   530 ; *
                                     02FF   531 ; *  ARGUMENT UNDER TEST: 	LOGNAM_CLN24
                                     02FF   532 ; *
                                     02FF   533 ; *  INPUT CONDITIONS:
                                     02FF   534 ; *	LOGNAM STRING IN NON-ACCESSIBLE PSECT
                                     02FF   535 ; *
                                     02FF   536 ; *  EXPECTED RESULTS:
                                     02FF   537 ; *	1) SYSTEM STATUS CODE:	ACCVIO
                                     02FF   538 ; *	2) REGISTERS R2 THROUGH FP UNCHANGED
                                     02FF   539 ; *
                                     02FF   540 ; ******************************************************
                                     02FF   541 ;--
                                     02FF   542 ;
                                     02FF   543 ;
                                     02FF   544 	NEXT_TEST_CASE	SFCLN30
SATSSF03        - SATS SYSTEM SERVICE TESTS  (FAILING S.C.)      22-AUG-1978 03:40:12   VAX-11 MACRO X0.3-11               Page  19
1.0             SFCLN30                                                                                                          (1)

                                     030B   545 ;
                                     030B   546 ;++
                                     030B   547 ; ******************************************************
                                     030B   548 ; *
                                     030B   549 ; *  TEST CASE NAME:		SFCLN30
                                     030B   550 ; *
                                     030B   551 ; *  SYSTEM SERVICE:		CRELOG
                                     030B   552 ; *
                                     030B   553 ; *  ARGUMENT UNDER TEST: 	EQLNAM_CLN30
                                     030B   554 ; *
                                     030B   555 ; *  INPUT CONDITIONS:
                                     030B   556 ; *	EQLNAM STRING DESCRIPTOR LENGTH FIELD IN
                                     030B   557 ; *	  NON-ACCESSIBLE PSECT.
                                     030B   558 ; *
                                     030B   559 ; *  EXPECTED RESULTS:
                                     030B   560 ; *	1) SYSTEM STATUS CODE:	ACCVIO
                                     030B   561 ; *	2) REGISTERS R2 THROUGH FP UNCHANGED
                                     030B   562 ; *
                                     030B   563 ; ******************************************************
                                     030B   564 ;--
                                     030B   565 ;
                                     030B   566 ;
                                     030B   567 	NEXT_TEST_CASE	SFCLN31
SATSSF03        - SATS SYSTEM SERVICE TESTS  (FAILING S.C.)      22-AUG-1978 03:40:12   VAX-11 MACRO X0.3-11               Page  20
1.0             SFCLN31                                                                                                          (1)

                                     0317   568 ;
                                     0317   569 ;++
                                     0317   570 ; ******************************************************
                                     0317   571 ; *
                                     0317   572 ; *  TEST CASE NAME:		SFCLN31
                                     0317   573 ; *
                                     0317   574 ; *  SYSTEM SERVICE:		CRELOG
                                     0317   575 ; *
                                     0317   576 ; *  ARGUMENT UNDER TEST: 	EQLNAM_CLN31
                                     0317   577 ; *
                                     0317   578 ; *  INPUT CONDITIONS:
                                     0317   579 ; *	EQLNAM STRING DESCRIPTOR LENGTH FIELD BEGINS IN
                                     0317   580 ; *	  ACCESSIBLE PSECT, ENDS IN NON-ACCESSIBLE PSECT.
                                     0317   581 ; *
                                     0317   582 ; *  EXPECTED RESULTS:
                                     0317   583 ; *	1) SYSTEM STATUS CODE:	ACCVIO
                                     0317   584 ; *	2) REGISTERS R2 THROUGH FP UNCHANGED
                                     0317   585 ; *
                                     0317   586 ; ******************************************************
                                     0317   587 ;--
                                     0317   588 ;
                                     0317   589 ;
                                     0317   590 	NEXT_TEST_CASE	SFCLN32
SATSSF03        - SATS SYSTEM SERVICE TESTS  (FAILING S.C.)      22-AUG-1978 03:40:12   VAX-11 MACRO X0.3-11               Page  21
1.0             SFCLN32                                                                                                          (1)

                                     0323   591 ;
                                     0323   592 ;++
                                     0323   593 ; ******************************************************
                                     0323   594 ; *
                                     0323   595 ; *  TEST CASE NAME:		SFCLN32
                                     0323   596 ; *
                                     0323   597 ; *  SYSTEM SERVICE:		CRELOG
                                     0323   598 ; *
                                     0323   599 ; *  ARGUMENT UNDER TEST: 	EQLNAM_CLN32
                                     0323   600 ; *
                                     0323   601 ; *  INPUT CONDITIONS:
                                     0323   602 ; *	EQLNAM STRING DESCRIPTOR ADDRESS FIELD IN
                                     0323   603 ; *	  NON-ACCESSIBLE PSECT.
                                     0323   604 ; *
                                     0323   605 ; *  EXPECTED RESULTS:
                                     0323   606 ; *	1) SYSTEM STATUS CODE:	ACCVIO
                                     0323   607 ; *	2) REGISTERS R2 THROUGH FP UNCHANGED
                                     0323   608 ; *
                                     0323   609 ; ******************************************************
                                     0323   610 ;--
                                     0323   611 ;
   000001FC'EF            03     9A  0323   612 	MOVZBL	#3,EQLNAM_CLN32	; ESTABLISH STRING LENGTH
                                     032A   613 ;
                                     032A   614 	NEXT_TEST_CASE	SFCLN33
SATSSF03        - SATS SYSTEM SERVICE TESTS  (FAILING S.C.)      22-AUG-1978 03:40:12   VAX-11 MACRO X0.3-11               Page  22
1.0             SFCLN33                                                                                                          (1)

                                     0336   615 ;
                                     0336   616 ;++
                                     0336   617 ; ******************************************************
                                     0336   618 ; *
                                     0336   619 ; *  TEST CASE NAME:		SFCLN33
                                     0336   620 ; *
                                     0336   621 ; *  SYSTEM SERVICE:		CRELOG
                                     0336   622 ; *
                                     0336   623 ; *  ARGUMENT UNDER TEST: 	EQLNAM_CLN33
                                     0336   624 ; *
                                     0336   625 ; *  INPUT CONDITIONS:
                                     0336   626 ; *	EQLNAM STRING DESCRIPTOR ADDRESS FIELD BEGINS IN
                                     0336   627 ; *	  ACCESSIBLE PSECT, ENDS IN NON-ACCESSIBLE PSECT.
                                     0336   628 ; *
                                     0336   629 ; *  EXPECTED RESULTS:
                                     0336   630 ; *	1) SYSTEM STATUS CODE:	ACCVIO
                                     0336   631 ; *	2) REGISTERS R2 THROUGH FP UNCHANGED
                                     0336   632 ; *
                                     0336   633 ; ******************************************************
                                     0336   634 ;--
                                     0336   635 ;
   000001FB'EF            03     9A  0336   636 	MOVZBL	#3,EQLNAM_CLN33	; ESTABLISH STRING LENGTH
                                     033D   637 ;
                                     033D   638 	NEXT_TEST_CASE	SFCLN34
SATSSF03        - SATS SYSTEM SERVICE TESTS  (FAILING S.C.)      22-AUG-1978 03:40:12   VAX-11 MACRO X0.3-11               Page  23
1.0             SFCLN34                                                                                                          (1)

                                     0349   639 ;
                                     0349   640 ;++
                                     0349   641 ; ******************************************************
                                     0349   642 ; *
                                     0349   643 ; *  TEST CASE NAME:		SFCLN34
                                     0349   644 ; *
                                     0349   645 ; *  SYSTEM SERVICE:		CRELOG
                                     0349   646 ; *
                                     0349   647 ; *  ARGUMENT UNDER TEST: 	EQLNAM_CLN34
                                     0349   648 ; *
                                     0349   649 ; *  INPUT CONDITIONS:
                                     0349   650 ; *	EQLNAM STRING IN NON-ACCESSIBLE PSECT
                                     0349   651 ; *
                                     0349   652 ; *  EXPECTED RESULTS:
                                     0349   653 ; *	1) SYSTEM STATUS CODE:	ACCVIO
                                     0349   654 ; *	2) REGISTERS R2 THROUGH FP UNCHANGED
                                     0349   655 ; *
                                     0349   656 ; ******************************************************
                                     0349   657 ;--
                                     0349   658 ;
                                     0349   659 ;
                                     0349   660 	TCEND
SATSSF03        - SATS SYSTEM SERVICE TESTS  (FAILING S.C.)      22-AUG-1978 03:40:12   VAX-11 MACRO X0.3-11               Page  24
1.0                                                                                                                              (1)

                                     034A   661 	TC_GROUP	CLN,2,TS2
                                     0371   662 ;
                                     0371   663 	NEXT_TEST_CASE	SFCLN25
SATSSF03        - SATS SYSTEM SERVICE TESTS  (FAILING S.C.)      22-AUG-1978 03:40:12   VAX-11 MACRO X0.3-11               Page  25
1.0             SFCLN25                                                                                                          (1)

                                     0371   664 ;
                                     0371   665 ;++
                                     0371   666 ; ******************************************************
                                     0371   667 ; *
                                     0371   668 ; *  TEST CASE NAME:		SFCLN25
                                     0371   669 ; *
                                     0371   670 ; *  SYSTEM SERVICE:		CRELOG
                                     0371   671 ; *
                                     0371   672 ; *  ARGUMENT UNDER TEST: 	LOGNAM_CLN25
                                     0371   673 ; *
                                     0371   674 ; *  INPUT CONDITIONS:
                                     0371   675 ; *	LOGNAM STRING BEGINS IN ACCESSIBLE PSECT,
                                     0371   676 ; *	  ENDS IN NON-ACCESSIBLE PSECT.
                                     0371   677 ; *
                                     0371   678 ; *  EXPECTED RESULTS:
                                     0371   679 ; *	1) SYSTEM STATUS CODE:	ACCVIO
                                     0371   680 ; *	2) REGISTERS R2 THROUGH FP UNCHANGED
                                     0371   681 ; *
                                     0371   682 ; ******************************************************
                                     0371   683 ;--
                                     0371   684 ;
                                     0371   685 ;
                                     0371   686 	NEXT_TEST_CASE	SFCLN26
SATSSF03        - SATS SYSTEM SERVICE TESTS  (FAILING S.C.)      22-AUG-1978 03:40:12   VAX-11 MACRO X0.3-11               Page  26
1.0             SFCLN26                                                                                                          (1)

                                     037D   687 ;
                                     037D   688 ;++
                                     037D   689 ; ******************************************************
                                     037D   690 ; *
                                     037D   691 ; *  TEST CASE NAME:		SFCLN26
                                     037D   692 ; *
                                     037D   693 ; *  SYSTEM SERVICE:		CRELOG
                                     037D   694 ; *
                                     037D   695 ; *  ARGUMENT UNDER TEST: 	LOGNAM_CLN26
                                     037D   696 ; *
                                     037D   697 ; *  INPUT CONDITIONS:
                                     037D   698 ; *	LOGNAM STRING LONGER THAN 63 CHARACTERS
                                     037D   699 ; *
                                     037D   700 ; *  EXPECTED RESULTS:
                                     037D   701 ; *	1) SYSTEM STATUS CODE:	IVLOGNAM
                                     037D   702 ; *	2) REGISTERS R2 THROUGH FP UNCHANGED
                                     037D   703 ; *
                                     037D   704 ; ******************************************************
                                     037D   705 ;--
                                     037D   706 ;
                                     037D   707 ;
                                     037D   708 	NEXT_TEST_CASE	SFCLN27
SATSSF03        - SATS SYSTEM SERVICE TESTS  (FAILING S.C.)      22-AUG-1978 03:40:12   VAX-11 MACRO X0.3-11               Page  27
1.0             SFCLN27                                                                                                          (1)

                                     0389   709 ;
                                     0389   710 ;++
                                     0389   711 ; ******************************************************
                                     0389   712 ; *
                                     0389   713 ; *  TEST CASE NAME:		SFCLN27
                                     0389   714 ; *
                                     0389   715 ; *  SYSTEM SERVICE:		CRELOG
                                     0389   716 ; *
                                     0389   717 ; *  ARGUMENT UNDER TEST: 	LOGNAM_CLN27
                                     0389   718 ; *
                                     0389   719 ; *  INPUT CONDITIONS:
                                     0389   720 ; *	LOGNAM STRING OF LENGTH ZERO
                                     0389   721 ; *
                                     0389   722 ; *  EXPECTED RESULTS:
                                     0389   723 ; *	1) SYSTEM STATUS CODE:	IVLOGNAM
                                     0389   724 ; *	2) REGISTERS R2 THROUGH FP UNCHANGED
                                     0389   725 ; *
                                     0389   726 ; ******************************************************
                                     0389   727 ;--
                                     0389   728 ;
                                     0389   729 ;
                                     0389   730 	NEXT_TEST_CASE	SFCLN35
SATSSF03        - SATS SYSTEM SERVICE TESTS  (FAILING S.C.)      22-AUG-1978 03:40:12   VAX-11 MACRO X0.3-11               Page  28
1.0             SFCLN35                                                                                                          (1)

                                     0395   731 ;
                                     0395   732 ;++
                                     0395   733 ; ******************************************************
                                     0395   734 ; *
                                     0395   735 ; *  TEST CASE NAME:		SFCLN35
                                     0395   736 ; *
                                     0395   737 ; *  SYSTEM SERVICE:		CRELOG
                                     0395   738 ; *
                                     0395   739 ; *  ARGUMENT UNDER TEST: 	EQLNAM_CLN35
                                     0395   740 ; *
                                     0395   741 ; *  INPUT CONDITIONS:
                                     0395   742 ; *	EQLNAM STRING BEGINS IN ACCESSIBLE PSECT,
                                     0395   743 ; *	  ENDS IN NON-ACCESSIBLE PSECT.
                                     0395   744 ; *
                                     0395   745 ; *  EXPECTED RESULTS:
                                     0395   746 ; *	1) SYSTEM STATUS CODE:	ACCVIO
                                     0395   747 ; *	2) REGISTERS R2 THROUGH FP UNCHANGED
                                     0395   748 ; *
                                     0395   749 ; ******************************************************
                                     0395   750 ;--
                                     0395   751 ;
                                     0395   752 ;
                                     0395   753 	NEXT_TEST_CASE	SFCLN36
SATSSF03        - SATS SYSTEM SERVICE TESTS  (FAILING S.C.)      22-AUG-1978 03:40:12   VAX-11 MACRO X0.3-11               Page  29
1.0             SFCLN36                                                                                                          (1)

                                     03A1   754 ;
                                     03A1   755 ;++
                                     03A1   756 ; ******************************************************
                                     03A1   757 ; *
                                     03A1   758 ; *  TEST CASE NAME:		SFCLN36
                                     03A1   759 ; *
                                     03A1   760 ; *  SYSTEM SERVICE:		CRELOG
                                     03A1   761 ; *
                                     03A1   762 ; *  ARGUMENT UNDER TEST: 	EQLNAM_CLN36
                                     03A1   763 ; *
                                     03A1   764 ; *  INPUT CONDITIONS:
                                     03A1   765 ; *	EQLNAM STRING LONGER THAN 63 CHARACTERS
                                     03A1   766 ; *
                                     03A1   767 ; *  EXPECTED RESULTS:
                                     03A1   768 ; *	1) SYSTEM STATUS CODE:	IVLOGNAM
                                     03A1   769 ; *	2) REGISTERS R2 THROUGH FP UNCHANGED
                                     03A1   770 ; *
                                     03A1   771 ; ******************************************************
                                     03A1   772 ;--
                                     03A1   773 ;
                                     03A1   774 ;
                                     03A1   775 	NEXT_TEST_CASE	SFCLN37
SATSSF03        - SATS SYSTEM SERVICE TESTS  (FAILING S.C.)      22-AUG-1978 03:40:12   VAX-11 MACRO X0.3-11               Page  30
1.0             SFCLN37                                                                                                          (1)

                                     03AD   776 ;
                                     03AD   777 ;++
                                     03AD   778 ; ******************************************************
                                     03AD   779 ; *
                                     03AD   780 ; *  TEST CASE NAME:		SFCLN37
                                     03AD   781 ; *
                                     03AD   782 ; *  SYSTEM SERVICE:		CRELOG
                                     03AD   783 ; *
                                     03AD   784 ; *  ARGUMENT UNDER TEST: 	EQLNAM_CLN37
                                     03AD   785 ; *
                                     03AD   786 ; *  INPUT CONDITIONS:
                                     03AD   787 ; *	EQLNAM STRING OF LENGTH ZERO
                                     03AD   788 ; *
                                     03AD   789 ; *  EXPECTED RESULTS:
                                     03AD   790 ; *	1) SYSTEM STATUS CODE:	IVLOGNAM
                                     03AD   791 ; *	2) REGISTERS R2 THROUGH FP UNCHANGED
                                     03AD   792 ; *
                                     03AD   793 ; ******************************************************
                                     03AD   794 ;--
                                     03AD   795 ;
                                     03AD   796 ;
                                     03AD   797 	TCEND
SATSSF03        - SATS SYSTEM SERVICE TESTS  (FAILING S.C.)      22-AUG-1978 03:40:12   VAX-11 MACRO X0.3-11               Page  31
1.0                                                                                                                              (1)

                                     03AE   798 ;
                                     03AE   799 	TC_GROUP	DLN,1,TS3
                                     03D5   800 ;
                                     03D5   801 	NEXT_TEST_CASE	SFDLN10
SATSSF03        - SATS SYSTEM SERVICE TESTS  (FAILING S.C.)      22-AUG-1978 03:40:12   VAX-11 MACRO X0.3-11               Page  32
1.0             SFDLN10                                                                                                          (1)

                                     03D5   802 ;
                                     03D5   803 ;++
                                     03D5   804 ; ******************************************************
                                     03D5   805 ; *
                                     03D5   806 ; *  TEST CASE NAME:		SFDLN10
                                     03D5   807 ; *
                                     03D5   808 ; *  SYSTEM SERVICE:		DELLOG
                                     03D5   809 ; *
                                     03D5   810 ; *  ARGUMENT UNDER TEST: 	TBLFLG_DLN10
                                     03D5   811 ; *
                                     03D5   812 ; *  INPUT CONDITIONS:
                                     03D5   813 ; *	ILLEGAL TABLE NUMBER
                                     03D5   814 ; *
                                     03D5   815 ; *  EXPECTED RESULTS:
                                     03D5   816 ; *	1) SYSTEM STATUS CODE:	IVLOGTAB
                                     03D5   817 ; *	2) REGISTERS R2 THROUGH FP UNCHANGED
                                     03D5   818 ; *
                                     03D5   819 ; ******************************************************
                                     03D5   820 ;--
                                     03D5   821 ;
   000000A1'EF         CE 8F     98  03D5   822 	CVTBL	#-50,TBLFLG_DLN10 ; ILLEGAL TABLE NUMBER
                                     03DD   823 ;
                                     03DD   824 	NEXT_TEST_CASE	SFDLN11
SATSSF03        - SATS SYSTEM SERVICE TESTS  (FAILING S.C.)      22-AUG-1978 03:40:12   VAX-11 MACRO X0.3-11               Page  33
1.0             SFDLN11                                                                                                          (1)

                                     03E9   825 ;
                                     03E9   826 ;++
                                     03E9   827 ; ******************************************************
                                     03E9   828 ; *
                                     03E9   829 ; *  TEST CASE NAME:		SFDLN11
                                     03E9   830 ; *
                                     03E9   831 ; *  SYSTEM SERVICE:		DELLOG
                                     03E9   832 ; *
                                     03E9   833 ; *  ARGUMENT UNDER TEST: 	TBLFLG_DLN11
                                     03E9   834 ; *
                                     03E9   835 ; *  INPUT CONDITIONS:
                                     03E9   836 ; *	ILLEGAL TABLE NUMBER
                                     03E9   837 ; *
                                     03E9   838 ; *  EXPECTED RESULTS:
                                     03E9   839 ; *	1) SYSTEM STATUS CODE:	IVLOGTAB
                                     03E9   840 ; *	2) REGISTERS R2 THROUGH FP UNCHANGED
                                     03E9   841 ; *
                                     03E9   842 ; ******************************************************
                                     03E9   843 ;--
                                     03E9   844 ;
   000000A5'EF         FF 8F     98  03E9   845 	CVTBL	#-1,TBLFLG_DLN11 ; ILLEGAL TABLE NUMBER
                                     03F1   846 ;
                                     03F1   847 	NEXT_TEST_CASE	SFDLN12
SATSSF03        - SATS SYSTEM SERVICE TESTS  (FAILING S.C.)      22-AUG-1978 03:40:12   VAX-11 MACRO X0.3-11               Page  34
1.0             SFDLN12                                                                                                          (1)

                                     03FD   848 ;
                                     03FD   849 ;++
                                     03FD   850 ; ******************************************************
                                     03FD   851 ; *
                                     03FD   852 ; *  TEST CASE NAME:		SFDLN12
                                     03FD   853 ; *
                                     03FD   854 ; *  SYSTEM SERVICE:		DELLOG
                                     03FD   855 ; *
                                     03FD   856 ; *  ARGUMENT UNDER TEST: 	TBLFLG_DLN12
                                     03FD   857 ; *
                                     03FD   858 ; *  INPUT CONDITIONS:
                                     03FD   859 ; *	ILLEGAL TABLE NUMBER
                                     03FD   860 ; *
                                     03FD   861 ; *  EXPECTED RESULTS:
                                     03FD   862 ; *	1) SYSTEM STATUS CODE:	IVLOGTAB
                                     03FD   863 ; *	2) REGISTERS R2 THROUGH FP UNCHANGED
                                     03FD   864 ; *
                                     03FD   865 ; ******************************************************
                                     03FD   866 ;--
                                     03FD   867 ;
   000000A9'EF            03     98  03FD   868 	CVTBL	#3,TBLFLG_DLN12	; ILLEGAL TABLE NUMBER
                                     0404   869 ;
                                     0404   870 	NEXT_TEST_CASE	SFDLN13
SATSSF03        - SATS SYSTEM SERVICE TESTS  (FAILING S.C.)      22-AUG-1978 03:40:12   VAX-11 MACRO X0.3-11               Page  35
1.0             SFDLN13                                                                                                          (1)

                                     0410   871 ;
                                     0410   872 ;++
                                     0410   873 ; ******************************************************
                                     0410   874 ; *
                                     0410   875 ; *  TEST CASE NAME:		SFDLN13
                                     0410   876 ; *
                                     0410   877 ; *  SYSTEM SERVICE:		DELLOG
                                     0410   878 ; *
                                     0410   879 ; *  ARGUMENT UNDER TEST: 	TBLFLG_DLN13
                                     0410   880 ; *
                                     0410   881 ; *  INPUT CONDITIONS:
                                     0410   882 ; *	ILLEGAL TABLE NUMBER
                                     0410   883 ; *
                                     0410   884 ; *  EXPECTED RESULTS:
                                     0410   885 ; *	1) SYSTEM STATUS CODE:	IVLOGTAB
                                     0410   886 ; *	2) REGISTERS R2 THROUGH FP UNCHANGED
                                     0410   887 ; *
                                     0410   888 ; ******************************************************
                                     0410   889 ;--
                                     0410   890 ;
   000000AD'EF       2710 8F     32  0410   891 	CVTWL	#10000,TBLFLG_DLN13 ; ILLEGAL TABLE NUMBER
                                     0419   892 ;
                                     0419   893 	NEXT_TEST_CASE	SFDLN20
SATSSF03        - SATS SYSTEM SERVICE TESTS  (FAILING S.C.)      22-AUG-1978 03:40:12   VAX-11 MACRO X0.3-11               Page  36
1.0             SFDLN20                                                                                                          (1)

                                     0425   894 ;
                                     0425   895 ;++
                                     0425   896 ; ******************************************************
                                     0425   897 ; *
                                     0425   898 ; *  TEST CASE NAME:		SFDLN20
                                     0425   899 ; *
                                     0425   900 ; *  SYSTEM SERVICE:		DELLOG
                                     0425   901 ; *
                                     0425   902 ; *  ARGUMENT UNDER TEST: 	LOGNAM_DLN20
                                     0425   903 ; *
                                     0425   904 ; *  INPUT CONDITIONS:
                                     0425   905 ; *	LOGNAM STRING DESCRIPTOR LENGTH FIELD IN
                                     0425   906 ; *	  NON-ACCESSIBLE PSECT.
                                     0425   907 ; *
                                     0425   908 ; *  EXPECTED RESULTS:
                                     0425   909 ; *	1) SYSTEM STATUS CODE:	ACCVIO
                                     0425   910 ; *	2) REGISTERS R2 THROUGH FP UNCHANGED
                                     0425   911 ; *
                                     0425   912 ; ******************************************************
                                     0425   913 ;--
                                     0425   914 ;
                                     0425   915 ;
                                     0425   916 	NEXT_TEST_CASE	SFDLN21
SATSSF03        - SATS SYSTEM SERVICE TESTS  (FAILING S.C.)      22-AUG-1978 03:40:12   VAX-11 MACRO X0.3-11               Page  37
1.0             SFDLN21                                                                                                          (1)

                                     0431   917 ;
                                     0431   918 ;++
                                     0431   919 ; ******************************************************
                                     0431   920 ; *
                                     0431   921 ; *  TEST CASE NAME:		SFDLN21
                                     0431   922 ; *
                                     0431   923 ; *  SYSTEM SERVICE:		DELLOG
                                     0431   924 ; *
                                     0431   925 ; *  ARGUMENT UNDER TEST: 	LOGNAM_DLN21
                                     0431   926 ; *
                                     0431   927 ; *  INPUT CONDITIONS:
                                     0431   928 ; *	LOGNAM STRING DESCRIPTOR LENGTH FIELD BEGINS IN
                                     0431   929 ; *	  ACCESSIBLE PSECT, ENDS IN NON-ACCESSIBLE PSECT.
                                     0431   930 ; *
                                     0431   931 ; *  EXPECTED RESULTS:
                                     0431   932 ; *	1) SYSTEM STATUS CODE:	ACCVIO
                                     0431   933 ; *	2) REGISTERS R2 THROUGH FP UNCHANGED
                                     0431   934 ; *
                                     0431   935 ; ******************************************************
                                     0431   936 ;--
                                     0431   937 ;
                                     0431   938 ;
                                     0431   939 	NEXT_TEST_CASE	SFDLN22
SATSSF03        - SATS SYSTEM SERVICE TESTS  (FAILING S.C.)      22-AUG-1978 03:40:12   VAX-11 MACRO X0.3-11               Page  38
1.0             SFDLN22                                                                                                          (1)

                                     043D   940 ;
                                     043D   941 ;++
                                     043D   942 ; ******************************************************
                                     043D   943 ; *
                                     043D   944 ; *  TEST CASE NAME:		SFDLN22
                                     043D   945 ; *
                                     043D   946 ; *  SYSTEM SERVICE:		DELLOG
                                     043D   947 ; *
                                     043D   948 ; *  ARGUMENT UNDER TEST: 	LOGNAM_DLN22
                                     043D   949 ; *
                                     043D   950 ; *  INPUT CONDITIONS:
                                     043D   951 ; *	LOGNAM STRING DESCRIPTOR ADDRESS FIELD IN
                                     043D   952 ; *	  NON-ACCESSIBLE PSECT.
                                     043D   953 ; *
                                     043D   954 ; *  EXPECTED RESULTS:
                                     043D   955 ; *	1) SYSTEM STATUS CODE:	ACCVIO
                                     043D   956 ; *	2) REGISTERS R2 THROUGH FP UNCHANGED
                                     043D   957 ; *
                                     043D   958 ; ******************************************************
                                     043D   959 ;--
                                     043D   960 ;
   000001FC'EF            03     9A  043D   961 	MOVZBL	#3,LOGNAM_DLN22	; ESTABLISH STRING LENGTH
                                     0444   962 ;
                                     0444   963 	NEXT_TEST_CASE	SFDLN23
SATSSF03        - SATS SYSTEM SERVICE TESTS  (FAILING S.C.)      22-AUG-1978 03:40:12   VAX-11 MACRO X0.3-11               Page  39
1.0             SFDLN23                                                                                                          (1)

                                     0450   964 ;
                                     0450   965 ;++
                                     0450   966 ; ******************************************************
                                     0450   967 ; *
                                     0450   968 ; *  TEST CASE NAME:		SFDLN23
                                     0450   969 ; *
                                     0450   970 ; *  SYSTEM SERVICE:		DELLOG
                                     0450   971 ; *
                                     0450   972 ; *  ARGUMENT UNDER TEST: 	LOGNAM_DLN23
                                     0450   973 ; *
                                     0450   974 ; *  INPUT CONDITIONS:
                                     0450   975 ; *	LOGNAM STRING DESCRIPTOR ADDRESS FIELD BEGINS IN
                                     0450   976 ; *	  ACCESSIBLE PSECT, ENDS IN NON-ACCESSIBLE PSECT.
                                     0450   977 ; *
                                     0450   978 ; *  EXPECTED RESULTS:
                                     0450   979 ; *	1) SYSTEM STATUS CODE:	ACCVIO
                                     0450   980 ; *	2) REGISTERS R2 THROUGH FP UNCHANGED
                                     0450   981 ; *
                                     0450   982 ; ******************************************************
                                     0450   983 ;--
                                     0450   984 ;
   000001FB'EF            03     9A  0450   985 	MOVZBL	#3,LOGNAM_DLN23	; ESTABLISH STRING LENGTH
                                     0457   986 ;
                                     0457   987 	NEXT_TEST_CASE	SFDLN24
SATSSF03        - SATS SYSTEM SERVICE TESTS  (FAILING S.C.)      22-AUG-1978 03:40:12   VAX-11 MACRO X0.3-11               Page  40
1.0             SFDLN24                                                                                                          (1)

                                     0463   988 ;
                                     0463   989 ;++
                                     0463   990 ; ******************************************************
                                     0463   991 ; *
                                     0463   992 ; *  TEST CASE NAME:		SFDLN24
                                     0463   993 ; *
                                     0463   994 ; *  SYSTEM SERVICE:		DELLOG
                                     0463   995 ; *
                                     0463   996 ; *  ARGUMENT UNDER TEST: 	LOGNAM_DLN24
                                     0463   997 ; *
                                     0463   998 ; *  INPUT CONDITIONS:
                                     0463   999 ; *	LOGNAM STRING IN NON-ACCESSIBLE PSECT
                                     0463  1000 ; *
                                     0463  1001 ; *  EXPECTED RESULTS:
                                     0463  1002 ; *	1) SYSTEM STATUS CODE:	ACCVIO
                                     0463  1003 ; *	2) REGISTERS R2 THROUGH FP UNCHANGED
                                     0463  1004 ; *
                                     0463  1005 ; ******************************************************
                                     0463  1006 ;--
                                     0463  1007 ;
                                     0463  1008 ;
                                     0463  1009 	TCEND
SATSSF03        - SATS SYSTEM SERVICE TESTS  (FAILING S.C.)      22-AUG-1978 03:40:12   VAX-11 MACRO X0.3-11               Page  41
1.0                                                                                                                              (1)

                                     0464  1010 	TC_GROUP	DLN,2,TS4
                                     048B  1011 ;
                                     048B  1012 	NEXT_TEST_CASE	SFDLN25
SATSSF03        - SATS SYSTEM SERVICE TESTS  (FAILING S.C.)      22-AUG-1978 03:40:12   VAX-11 MACRO X0.3-11               Page  42
1.0             SFDLN25                                                                                                          (1)

                                     048B  1013 ;
                                     048B  1014 ;++
                                     048B  1015 ; ******************************************************
                                     048B  1016 ; *
                                     048B  1017 ; *  TEST CASE NAME:		SFDLN25
                                     048B  1018 ; *
                                     048B  1019 ; *  SYSTEM SERVICE:		DELLOG
                                     048B  1020 ; *
                                     048B  1021 ; *  ARGUMENT UNDER TEST: 	LOGNAM_DLN25
                                     048B  1022 ; *
                                     048B  1023 ; *  INPUT CONDITIONS:
                                     048B  1024 ; *	LOGNAM STRING BEGINS IN ACCESSIBLE PSECT,
                                     048B  1025 ; *	  ENDS IN NON-ACCESSIBLE PSECT.
                                     048B  1026 ; *
                                     048B  1027 ; *  EXPECTED RESULTS:
                                     048B  1028 ; *	1) SYSTEM STATUS CODE:	ACCVIO
                                     048B  1029 ; *	2) REGISTERS R2 THROUGH FP UNCHANGED
                                     048B  1030 ; *
                                     048B  1031 ; ******************************************************
                                     048B  1032 ;--
                                     048B  1033 ;
                                     048B  1034 ;
                                     048B  1035 	NEXT_TEST_CASE	SFDLN26
SATSSF03        - SATS SYSTEM SERVICE TESTS  (FAILING S.C.)      22-AUG-1978 03:40:12   VAX-11 MACRO X0.3-11               Page  43
1.0             SFDLN26                                                                                                          (1)

                                     0497  1036 ;
                                     0497  1037 ;++
                                     0497  1038 ; ******************************************************
                                     0497  1039 ; *
                                     0497  1040 ; *  TEST CASE NAME:		SFDLN26
                                     0497  1041 ; *
                                     0497  1042 ; *  SYSTEM SERVICE:		DELLOG
                                     0497  1043 ; *
                                     0497  1044 ; *  ARGUMENT UNDER TEST: 	LOGNAM_DLN26
                                     0497  1045 ; *
                                     0497  1046 ; *  INPUT CONDITIONS:
                                     0497  1047 ; *	LOGNAM STRING LONGER THAN 63 CHARACTERS
                                     0497  1048 ; *
                                     0497  1049 ; *  EXPECTED RESULTS:
                                     0497  1050 ; *	1) SYSTEM STATUS CODE:	IVLOGNAM
                                     0497  1051 ; *	2) REGISTERS R2 THROUGH FP UNCHANGED
                                     0497  1052 ; *
                                     0497  1053 ; ******************************************************
                                     0497  1054 ;--
                                     0497  1055 ;
                                     0497  1056 ;
                                     0497  1057 	NEXT_TEST_CASE	SFDLN27
SATSSF03        - SATS SYSTEM SERVICE TESTS  (FAILING S.C.)      22-AUG-1978 03:40:12   VAX-11 MACRO X0.3-11               Page  44
1.0             SFDLN27                                                                                                          (1)

                                     04A3  1058 ;
                                     04A3  1059 ;++
                                     04A3  1060 ; ******************************************************
                                     04A3  1061 ; *
                                     04A3  1062 ; *  TEST CASE NAME:		SFDLN27
                                     04A3  1063 ; *
                                     04A3  1064 ; *  SYSTEM SERVICE:		DELLOG
                                     04A3  1065 ; *
                                     04A3  1066 ; *  ARGUMENT UNDER TEST: 	LOGNAM_DLN27
                                     04A3  1067 ; *
                                     04A3  1068 ; *  INPUT CONDITIONS:
                                     04A3  1069 ; *	LOGNAM STRING OF LENGTH ZERO
                                     04A3  1070 ; *
                                     04A3  1071 ; *  EXPECTED RESULTS:
                                     04A3  1072 ; *	1) SYSTEM STATUS CODE:	IVLOGNAM
                                     04A3  1073 ; *	2) REGISTERS R2 THROUGH FP UNCHANGED
                                     04A3  1074 ; *
                                     04A3  1075 ; ******************************************************
                                     04A3  1076 ;--
                                     04A3  1077 ;
                                     04A3  1078 ;
                                     04A3  1079 	NEXT_TEST_CASE	SFDLN28
SATSSF03        - SATS SYSTEM SERVICE TESTS  (FAILING S.C.)      22-AUG-1978 03:40:12   VAX-11 MACRO X0.3-11               Page  45
1.0             SFDLN28                                                                                                          (1)

                                     04AF  1080 ;
                                     04AF  1081 ;++
                                     04AF  1082 ; ******************************************************
                                     04AF  1083 ; *
                                     04AF  1084 ; *  TEST CASE NAME:		SFDLN28
                                     04AF  1085 ; *
                                     04AF  1086 ; *  SYSTEM SERVICE:		DELLOG
                                     04AF  1087 ; *
                                     04AF  1088 ; *  ARGUMENT UNDER TEST: 	LOGNAM_DLN28
                                     04AF  1089 ; *
                                     04AF  1090 ; *  INPUT CONDITIONS:
                                     04AF  1091 ; *	LOGICAL NAME NEVER CREATED
                                     04AF  1092 ; *
                                     04AF  1093 ; *  EXPECTED RESULTS:
                                     04AF  1094 ; *	1) SYSTEM STATUS CODE:	NOLOGNAM
                                     04AF  1095 ; *	2) REGISTERS R2 THROUGH FP UNCHANGED
                                     04AF  1096 ; *
                                     04AF  1097 ; ******************************************************
                                     04AF  1098 ;--
                                     04AF  1099 ;
                                     04AF  1100 ;
                                     04AF  1101 	NEXT_TEST_CASE	SFDLN29
SATSSF03        - SATS SYSTEM SERVICE TESTS  (FAILING S.C.)      22-AUG-1978 03:40:12   VAX-11 MACRO X0.3-11               Page  46
1.0             SFDLN29                                                                                                          (1)

                                     04BB  1102 ;
                                     04BB  1103 ;++
                                     04BB  1104 ; ******************************************************
                                     04BB  1105 ; *
                                     04BB  1106 ; *  TEST CASE NAME:		SFDLN29
                                     04BB  1107 ; *
                                     04BB  1108 ; *  SYSTEM SERVICE:		DELLOG
                                     04BB  1109 ; *
                                     04BB  1110 ; *  ARGUMENT UNDER TEST: 	LOGNAM_DLN29
                                     04BB  1111 ; *
                                     04BB  1112 ; *  INPUT CONDITIONS:
                                     04BB  1113 ; *	LOGICAL NAME CREATED BY A MORE PRIVILEGED
                                     04BB  1114 ; *	  ACCESS MODE.
                                     04BB  1115 ; *
                                     04BB  1116 ; *  EXPECTED RESULTS:
                                     04BB  1117 ; *	1) SYSTEM STATUS CODE:	NOLOGNAM
                                     04BB  1118 ; *	2) REGISTERS R2 THROUGH FP UNCHANGED
                                     04BB  1119 ; *
                                     04BB  1120 ; ******************************************************
                                     04BB  1121 ;--
                                     04BB  1122 ;
                                     04BB  1123 ;
                                     04BB  1124 	TCEND
SATSSF03        - SATS SYSTEM SERVICE TESTS  (FAILING S.C.)      22-AUG-1978 03:40:12   VAX-11 MACRO X0.3-11               Page  47
1.0                                                                                                                              (1)

                                     04BC  1125 ;
                                     04BC  1126 	TC_GROUP	TLN,1,TS5
                                     04E3  1127 ;
                                     04E3  1128 	NEXT_TEST_CASE	SFTLN10
SATSSF03        - SATS SYSTEM SERVICE TESTS  (FAILING S.C.)      22-AUG-1978 03:40:12   VAX-11 MACRO X0.3-11               Page  48
1.0             SFTLN10                                                                                                          (1)

                                     04E3  1129 ;
                                     04E3  1130 ;++
                                     04E3  1131 ; ******************************************************
                                     04E3  1132 ; *
                                     04E3  1133 ; *  TEST CASE NAME:		SFTLN10
                                     04E3  1134 ; *
                                     04E3  1135 ; *  SYSTEM SERVICE:		TRNLOG
                                     04E3  1136 ; *
                                     04E3  1137 ; *  ARGUMENT UNDER TEST: 	LOGNAM_TLN10
                                     04E3  1138 ; *
                                     04E3  1139 ; *  INPUT CONDITIONS:
                                     04E3  1140 ; *	LOGNAM STRING DESCRIPTOR LENGTH FIELD IN
                                     04E3  1141 ; *	  NON-ACCESSIBLE PSECT.
                                     04E3  1142 ; *
                                     04E3  1143 ; *  EXPECTED RESULTS:
                                     04E3  1144 ; *	1) SYSTEM STATUS CODE:	ACCVIO
                                     04E3  1145 ; *	2) REGISTERS R2 THROUGH FP UNCHANGED
                                     04E3  1146 ; *
                                     04E3  1147 ; ******************************************************
                                     04E3  1148 ;--
                                     04E3  1149 ;
                                     04E3  1150 ;
                                     04E3  1151 	NEXT_TEST_CASE	SFTLN11
SATSSF03        - SATS SYSTEM SERVICE TESTS  (FAILING S.C.)      22-AUG-1978 03:40:12   VAX-11 MACRO X0.3-11               Page  49
1.0             SFTLN11                                                                                                          (1)

                                     04EF  1152 ;
                                     04EF  1153 ;++
                                     04EF  1154 ; ******************************************************
                                     04EF  1155 ; *
                                     04EF  1156 ; *  TEST CASE NAME:		SFTLN11
                                     04EF  1157 ; *
                                     04EF  1158 ; *  SYSTEM SERVICE:		TRNLOG
                                     04EF  1159 ; *
                                     04EF  1160 ; *  ARGUMENT UNDER TEST: 	LOGNAM_TLN11
                                     04EF  1161 ; *
                                     04EF  1162 ; *  INPUT CONDITIONS:
                                     04EF  1163 ; *	LOGNAM STRING DESCRIPTOR LENGTH FIELD BEGINS IN
                                     04EF  1164 ; *	  ACCESSIBLE PSECT, ENDS IN NON-ACCESSIBLE PSECT.
                                     04EF  1165 ; *
                                     04EF  1166 ; *  EXPECTED RESULTS:
                                     04EF  1167 ; *	1) SYSTEM STATUS CODE:	ACCVIO
                                     04EF  1168 ; *	2) REGISTERS R2 THROUGH FP UNCHANGED
                                     04EF  1169 ; *
                                     04EF  1170 ; ******************************************************
                                     04EF  1171 ;--
                                     04EF  1172 ;
                                     04EF  1173 ;
                                     04EF  1174 	NEXT_TEST_CASE	SFTLN12
SATSSF03        - SATS SYSTEM SERVICE TESTS  (FAILING S.C.)      22-AUG-1978 03:40:12   VAX-11 MACRO X0.3-11               Page  50
1.0             SFTLN12                                                                                                          (1)

                                     04FB  1175 ;
                                     04FB  1176 ;++
                                     04FB  1177 ; ******************************************************
                                     04FB  1178 ; *
                                     04FB  1179 ; *  TEST CASE NAME:		SFTLN12
                                     04FB  1180 ; *
                                     04FB  1181 ; *  SYSTEM SERVICE:		TRNLOG
                                     04FB  1182 ; *
                                     04FB  1183 ; *  ARGUMENT UNDER TEST: 	LOGNAM_TLN12
                                     04FB  1184 ; *
                                     04FB  1185 ; *  INPUT CONDITIONS:
                                     04FB  1186 ; *	LOGNAM STRING DESCRIPTOR ADDRESS FIELD IN
                                     04FB  1187 ; *	  NON-ACCESSIBLE PSECT.
                                     04FB  1188 ; *
                                     04FB  1189 ; *  EXPECTED RESULTS:
                                     04FB  1190 ; *	1) SYSTEM STATUS CODE:	ACCVIO
                                     04FB  1191 ; *	2) REGISTERS R2 THROUGH FP UNCHANGED
                                     04FB  1192 ; *
                                     04FB  1193 ; ******************************************************
                                     04FB  1194 ;--
                                     04FB  1195 ;
   000001FC'EF            03     9A  04FB  1196 	MOVZBL	#3,LOGNAM_TLN12	; ESTABLISH STRING LENGTH
                                     0502  1197 ;
                                     0502  1198 	NEXT_TEST_CASE	SFTLN13
SATSSF03        - SATS SYSTEM SERVICE TESTS  (FAILING S.C.)      22-AUG-1978 03:40:12   VAX-11 MACRO X0.3-11               Page  51
1.0             SFTLN13                                                                                                          (1)

                                     050E  1199 ;
                                     050E  1200 ;++
                                     050E  1201 ; ******************************************************
                                     050E  1202 ; *
                                     050E  1203 ; *  TEST CASE NAME:		SFTLN13
                                     050E  1204 ; *
                                     050E  1205 ; *  SYSTEM SERVICE:		TRNLOG
                                     050E  1206 ; *
                                     050E  1207 ; *  ARGUMENT UNDER TEST: 	LOGNAM_TLN13
                                     050E  1208 ; *
                                     050E  1209 ; *  INPUT CONDITIONS:
                                     050E  1210 ; *	LOGNAM STRING DESCRIPTOR ADDRESS FIELD BEGINS IN
                                     050E  1211 ; *	  ACCESSIBLE PSECT, ENDS IN NON-ACCESSIBLE PSECT.
                                     050E  1212 ; *
                                     050E  1213 ; *  EXPECTED RESULTS:
                                     050E  1214 ; *	1) SYSTEM STATUS CODE:	ACCVIO
                                     050E  1215 ; *	2) REGISTERS R2 THROUGH FP UNCHANGED
                                     050E  1216 ; *
                                     050E  1217 ; ******************************************************
                                     050E  1218 ;--
                                     050E  1219 ;
   000001FB'EF            03     9A  050E  1220 	MOVZBL	#3,LOGNAM_TLN13	; ESTABLISH STRING LENGTH
                                     0515  1221 ;
                                     0515  1222 	NEXT_TEST_CASE	SFTLN14
SATSSF03        - SATS SYSTEM SERVICE TESTS  (FAILING S.C.)      22-AUG-1978 03:40:12   VAX-11 MACRO X0.3-11               Page  52
1.0             SFTLN14                                                                                                          (1)

                                     0521  1223 ;
                                     0521  1224 ;++
                                     0521  1225 ; ******************************************************
                                     0521  1226 ; *
                                     0521  1227 ; *  TEST CASE NAME:		SFTLN14
                                     0521  1228 ; *
                                     0521  1229 ; *  SYSTEM SERVICE:		TRNLOG
                                     0521  1230 ; *
                                     0521  1231 ; *  ARGUMENT UNDER TEST: 	LOGNAM_TLN14
                                     0521  1232 ; *
                                     0521  1233 ; *  INPUT CONDITIONS:
                                     0521  1234 ; *	LOGNAM STRING IN NON-ACCESSIBLE PSECT
                                     0521  1235 ; *
                                     0521  1236 ; *  EXPECTED RESULTS:
                                     0521  1237 ; *	1) SYSTEM STATUS CODE:	ACCVIO
                                     0521  1238 ; *	2) REGISTERS R2 THROUGH FP UNCHANGED
                                     0521  1239 ; *
                                     0521  1240 ; ******************************************************
                                     0521  1241 ;--
                                     0521  1242 ;
                                     0521  1243 ;
                                     0521  1244 	NEXT_TEST_CASE	SFTLN20
SATSSF03        - SATS SYSTEM SERVICE TESTS  (FAILING S.C.)      22-AUG-1978 03:40:12   VAX-11 MACRO X0.3-11               Page  53
1.0             SFTLN20                                                                                                          (1)

                                     052D  1245 ;
                                     052D  1246 ;++
                                     052D  1247 ; ******************************************************
                                     052D  1248 ; *
                                     052D  1249 ; *  TEST CASE NAME:		SFTLN20
                                     052D  1250 ; *
                                     052D  1251 ; *  SYSTEM SERVICE:		TRNLOG
                                     052D  1252 ; *
                                     052D  1253 ; *  ARGUMENT UNDER TEST: 	RSLLEN_TLN20
                                     052D  1254 ; *
                                     052D  1255 ; *  INPUT CONDITIONS:
                                     052D  1256 ; *	LENGTH OUTPUT FIELD AT LOCATION 1
                                     052D  1257 ; *
                                     052D  1258 ; *  EXPECTED RESULTS:
                                     052D  1259 ; *	1) SYSTEM STATUS CODE:	ACCVIO
                                     052D  1260 ; *	2) REGISTERS R2 THROUGH FP UNCHANGED
                                     052D  1261 ; *
                                     052D  1262 ; ******************************************************
                                     052D  1263 ;--
                                     052D  1264 ;
                                     052D  1265 ;
                                     052D  1266 	NEXT_TEST_CASE	SFTLN21
SATSSF03        - SATS SYSTEM SERVICE TESTS  (FAILING S.C.)      22-AUG-1978 03:40:12   VAX-11 MACRO X0.3-11               Page  54
1.0             SFTLN21                                                                                                          (1)

                                     0539  1267 ;
                                     0539  1268 ;++
                                     0539  1269 ; ******************************************************
                                     0539  1270 ; *
                                     0539  1271 ; *  TEST CASE NAME:		SFTLN21
                                     0539  1272 ; *
                                     0539  1273 ; *  SYSTEM SERVICE:		TRNLOG
                                     0539  1274 ; *
                                     0539  1275 ; *  ARGUMENT UNDER TEST: 	RSLLEN_TLN21
                                     0539  1276 ; *
                                     0539  1277 ; *  INPUT CONDITIONS:
                                     0539  1278 ; *	LENGTH OUTPUT FIELD IN READ/ONLY PSECT
                                     0539  1279 ; *
                                     0539  1280 ; *  EXPECTED RESULTS:
                                     0539  1281 ; *	1) SYSTEM STATUS CODE:	ACCVIO
                                     0539  1282 ; *	2) REGISTERS R2 THROUGH FP UNCHANGED
                                     0539  1283 ; *
                                     0539  1284 ; ******************************************************
                                     0539  1285 ;--
                                     0539  1286 ;
                                     0539  1287 ;
                                     0539  1288 	NEXT_TEST_CASE	SFTLN22
SATSSF03        - SATS SYSTEM SERVICE TESTS  (FAILING S.C.)      22-AUG-1978 03:40:12   VAX-11 MACRO X0.3-11               Page  55
1.0             SFTLN22                                                                                                          (1)

                                     0545  1289 ;
                                     0545  1290 ;++
                                     0545  1291 ; ******************************************************
                                     0545  1292 ; *
                                     0545  1293 ; *  TEST CASE NAME:		SFTLN22
                                     0545  1294 ; *
                                     0545  1295 ; *  SYSTEM SERVICE:		TRNLOG
                                     0545  1296 ; *
                                     0545  1297 ; *  ARGUMENT UNDER TEST: 	RSLLEN_TLN22
                                     0545  1298 ; *
                                     0545  1299 ; *  INPUT CONDITIONS:
                                     0545  1300 ; *	LENGTH OUTPUT FIELD BEGINS IN ACCESSIBLE
                                     0545  1301 ; *	  PSECT, ENDS IN NON-ACCESSIBLE PSECT.
                                     0545  1302 ; *
                                     0545  1303 ; *  EXPECTED RESULTS:
                                     0545  1304 ; *	1) SYSTEM STATUS CODE:	ACCVIO
                                     0545  1305 ; *	2) REGISTERS R2 THROUGH FP UNCHANGED
                                     0545  1306 ; *
                                     0545  1307 ; ******************************************************
                                     0545  1308 ;--
                                     0545  1309 ;
                                     0545  1310 ;
                                     0545  1311 	NEXT_TEST_CASE	SFTLN30
SATSSF03        - SATS SYSTEM SERVICE TESTS  (FAILING S.C.)      22-AUG-1978 03:40:12   VAX-11 MACRO X0.3-11               Page  56
1.0             SFTLN30                                                                                                          (1)

                                     0551  1312 ;
                                     0551  1313 ;++
                                     0551  1314 ; ******************************************************
                                     0551  1315 ; *
                                     0551  1316 ; *  TEST CASE NAME:		SFTLN30
                                     0551  1317 ; *
                                     0551  1318 ; *  SYSTEM SERVICE:		TRNLOG
                                     0551  1319 ; *
                                     0551  1320 ; *  ARGUMENT UNDER TEST: 	RSLBUF_TLN30
                                     0551  1321 ; *
                                     0551  1322 ; *  INPUT CONDITIONS:
                                     0551  1323 ; *	RSLBUF STRING DESCRIPTOR LENGTH FIELD IN
                                     0551  1324 ; *	  NON-ACCESSIBLE PSECT.
                                     0551  1325 ; *
                                     0551  1326 ; *  EXPECTED RESULTS:
                                     0551  1327 ; *	1) SYSTEM STATUS CODE:	ACCVIO
                                     0551  1328 ; *	2) REGISTERS R2 THROUGH FP UNCHANGED
                                     0551  1329 ; *
                                     0551  1330 ; ******************************************************
                                     0551  1331 ;--
                                     0551  1332 ;
                                     0551  1333 ;
                                     0551  1334 	NEXT_TEST_CASE	SFTLN31
SATSSF03        - SATS SYSTEM SERVICE TESTS  (FAILING S.C.)      22-AUG-1978 03:40:12   VAX-11 MACRO X0.3-11               Page  57
1.0             SFTLN31                                                                                                          (1)

                                     055D  1335 ;
                                     055D  1336 ;++
                                     055D  1337 ; ******************************************************
                                     055D  1338 ; *
                                     055D  1339 ; *  TEST CASE NAME:		SFTLN31
                                     055D  1340 ; *
                                     055D  1341 ; *  SYSTEM SERVICE:		TRNLOG
                                     055D  1342 ; *
                                     055D  1343 ; *  ARGUMENT UNDER TEST: 	RSLBUF_TLN31
                                     055D  1344 ; *
                                     055D  1345 ; *  INPUT CONDITIONS:
                                     055D  1346 ; *	RSLBUF STRING DESCRIPTOR LENGTH FIELD BEGINS IN
                                     055D  1347 ; *	  ACCESSIBLE PSECT, ENDS IN NON-ACCESSIBLE PSECT.
                                     055D  1348 ; *
                                     055D  1349 ; *  EXPECTED RESULTS:
                                     055D  1350 ; *	1) SYSTEM STATUS CODE:	ACCVIO
                                     055D  1351 ; *	2) REGISTERS R2 THROUGH FP UNCHANGED
                                     055D  1352 ; *
                                     055D  1353 ; ******************************************************
                                     055D  1354 ;--
                                     055D  1355 ;
                                     055D  1356 ;
                                     055D  1357 	NEXT_TEST_CASE	SFTLN32
SATSSF03        - SATS SYSTEM SERVICE TESTS  (FAILING S.C.)      22-AUG-1978 03:40:12   VAX-11 MACRO X0.3-11               Page  58
1.0             SFTLN32                                                                                                          (1)

                                     0569  1358 ;
                                     0569  1359 ;++
                                     0569  1360 ; ******************************************************
                                     0569  1361 ; *
                                     0569  1362 ; *  TEST CASE NAME:		SFTLN32
                                     0569  1363 ; *
                                     0569  1364 ; *  SYSTEM SERVICE:		TRNLOG
                                     0569  1365 ; *
                                     0569  1366 ; *  ARGUMENT UNDER TEST: 	RSLBUF_TLN32
                                     0569  1367 ; *
                                     0569  1368 ; *  INPUT CONDITIONS:
                                     0569  1369 ; *	RSLBUF STRING DESCRIPTOR ADDRESS FIELD IN
                                     0569  1370 ; *	  NON-ACCESSIBLE PSECT.
                                     0569  1371 ; *
                                     0569  1372 ; *  EXPECTED RESULTS:
                                     0569  1373 ; *	1) SYSTEM STATUS CODE:	ACCVIO
                                     0569  1374 ; *	2) REGISTERS R2 THROUGH FP UNCHANGED
                                     0569  1375 ; *
                                     0569  1376 ; ******************************************************
                                     0569  1377 ;--
                                     0569  1378 ;
   000001FC'EF            03     9A  0569  1379 	MOVZBL	#3,RSLBUF_TLN32	; ESTABLISH STRING LENGTH
                                     0570  1380 ;
                                     0570  1381 	NEXT_TEST_CASE	SFTLN33
SATSSF03        - SATS SYSTEM SERVICE TESTS  (FAILING S.C.)      22-AUG-1978 03:40:12   VAX-11 MACRO X0.3-11               Page  59
1.0             SFTLN33                                                                                                          (1)

                                     057C  1382 ;
                                     057C  1383 ;++
                                     057C  1384 ; ******************************************************
                                     057C  1385 ; *
                                     057C  1386 ; *  TEST CASE NAME:		SFTLN33
                                     057C  1387 ; *
                                     057C  1388 ; *  SYSTEM SERVICE:		TRNLOG
                                     057C  1389 ; *
                                     057C  1390 ; *  ARGUMENT UNDER TEST: 	RSLBUF_TLN33
                                     057C  1391 ; *
                                     057C  1392 ; *  INPUT CONDITIONS:
                                     057C  1393 ; *	RSLBUF STRING DESCRIPTOR ADDRESS FIELD BEGINS IN
                                     057C  1394 ; *	  ACCESSIBLE PSECT, ENDS IN NON-ACCESSIBLE PSECT.
                                     057C  1395 ; *
                                     057C  1396 ; *  EXPECTED RESULTS:
                                     057C  1397 ; *	1) SYSTEM STATUS CODE:	ACCVIO
                                     057C  1398 ; *	2) REGISTERS R2 THROUGH FP UNCHANGED
                                     057C  1399 ; *
                                     057C  1400 ; ******************************************************
                                     057C  1401 ;--
                                     057C  1402 ;
   000001FB'EF            03     9A  057C  1403 	MOVZBL	#3,RSLBUF_TLN33	; ESTABLISH STRING LENGTH
                                     0583  1404 ;
                                     0583  1405 	NEXT_TEST_CASE	SFTLN34
SATSSF03        - SATS SYSTEM SERVICE TESTS  (FAILING S.C.)      22-AUG-1978 03:40:12   VAX-11 MACRO X0.3-11               Page  60
1.0             SFTLN34                                                                                                          (1)

                                     058F  1406 ;
                                     058F  1407 ;++
                                     058F  1408 ; ******************************************************
                                     058F  1409 ; *
                                     058F  1410 ; *  TEST CASE NAME:		SFTLN34
                                     058F  1411 ; *
                                     058F  1412 ; *  SYSTEM SERVICE:		TRNLOG
                                     058F  1413 ; *
                                     058F  1414 ; *  ARGUMENT UNDER TEST: 	RSLBUF_TLN34
                                     058F  1415 ; *
                                     058F  1416 ; *  INPUT CONDITIONS:
                                     058F  1417 ; *	RSLBUF STRING IN NON-ACCESSIBLE PSECT
                                     058F  1418 ; *
                                     058F  1419 ; *  EXPECTED RESULTS:
                                     058F  1420 ; *	1) SYSTEM STATUS CODE:	ACCVIO
                                     058F  1421 ; *	2) REGISTERS R2 THROUGH FP UNCHANGED
                                     058F  1422 ; *
                                     058F  1423 ; ******************************************************
                                     058F  1424 ;--
                                     058F  1425 ;
                                     058F  1426 ;
                                     058F  1427 	NEXT_TEST_CASE	SFTLN40
SATSSF03        - SATS SYSTEM SERVICE TESTS  (FAILING S.C.)      22-AUG-1978 03:40:12   VAX-11 MACRO X0.3-11               Page  61
1.0             SFTLN40                                                                                                          (1)

                                     059B  1428 ;
                                     059B  1429 ;++
                                     059B  1430 ; ******************************************************
                                     059B  1431 ; *
                                     059B  1432 ; *  TEST CASE NAME:		SFTLN40
                                     059B  1433 ; *
                                     059B  1434 ; *  SYSTEM SERVICE:		TRNLOG
                                     059B  1435 ; *
                                     059B  1436 ; *  ARGUMENT UNDER TEST: 	TABLE_TLN40
                                     059B  1437 ; *
                                     059B  1438 ; *  INPUT CONDITIONS:
                                     059B  1439 ; *	TABLE OUTPUT FIELD AT LOCATION 1
                                     059B  1440 ; *
                                     059B  1441 ; *  EXPECTED RESULTS:
                                     059B  1442 ; *	1) SYSTEM STATUS CODE:	ACCVIO
                                     059B  1443 ; *	2) REGISTERS R2 THROUGH FP UNCHANGED
                                     059B  1444 ; *
                                     059B  1445 ; ******************************************************
                                     059B  1446 ;--
                                     059B  1447 ;
                                     059B  1448 ;
                                     059B  1449 	NEXT_TEST_CASE	SFTLN41
SATSSF03        - SATS SYSTEM SERVICE TESTS  (FAILING S.C.)      22-AUG-1978 03:40:12   VAX-11 MACRO X0.3-11               Page  62
1.0             SFTLN41                                                                                                          (1)

                                     05A7  1450 ;
                                     05A7  1451 ;++
                                     05A7  1452 ; ******************************************************
                                     05A7  1453 ; *
                                     05A7  1454 ; *  TEST CASE NAME:		SFTLN41
                                     05A7  1455 ; *
                                     05A7  1456 ; *  SYSTEM SERVICE:		TRNLOG
                                     05A7  1457 ; *
                                     05A7  1458 ; *  ARGUMENT UNDER TEST: 	TABLE_TLN41
                                     05A7  1459 ; *
                                     05A7  1460 ; *  INPUT CONDITIONS:
                                     05A7  1461 ; *	TABLE OUTPUT FIELD IN READ/ONLY PSECT
                                     05A7  1462 ; *
                                     05A7  1463 ; *  EXPECTED RESULTS:
                                     05A7  1464 ; *	1) SYSTEM STATUS CODE:	ACCVIO
                                     05A7  1465 ; *	2) REGISTERS R2 THROUGH FP UNCHANGED
                                     05A7  1466 ; *
                                     05A7  1467 ; ******************************************************
                                     05A7  1468 ;--
                                     05A7  1469 ;
                                     05A7  1470 ;
                                     05A7  1471 	NEXT_TEST_CASE	SFTLN50
SATSSF03        - SATS SYSTEM SERVICE TESTS  (FAILING S.C.)      22-AUG-1978 03:40:12   VAX-11 MACRO X0.3-11               Page  63
1.0             SFTLN50                                                                                                          (1)

                                     05B3  1472 ;
                                     05B3  1473 ;++
                                     05B3  1474 ; ******************************************************
                                     05B3  1475 ; *
                                     05B3  1476 ; *  TEST CASE NAME:		SFTLN50
                                     05B3  1477 ; *
                                     05B3  1478 ; *  SYSTEM SERVICE:		TRNLOG
                                     05B3  1479 ; *
                                     05B3  1480 ; *  ARGUMENT UNDER TEST: 	ACMODE_TLN50
                                     05B3  1481 ; *
                                     05B3  1482 ; *  INPUT CONDITIONS:
                                     05B3  1483 ; *	ACMODE OUTPUT FIELD AT LOCATION 1
                                     05B3  1484 ; *
                                     05B3  1485 ; *  EXPECTED RESULTS:
                                     05B3  1486 ; *	1) SYSTEM STATUS CODE:	ACCVIO
                                     05B3  1487 ; *	2) REGISTERS R2 THROUGH FP UNCHANGED
                                     05B3  1488 ; *
                                     05B3  1489 ; ******************************************************
                                     05B3  1490 ;--
                                     05B3  1491 ;
                                     05B3  1492 ;
                                     05B3  1493 	NEXT_TEST_CASE	SFTLN51
SATSSF03        - SATS SYSTEM SERVICE TESTS  (FAILING S.C.)      22-AUG-1978 03:40:12   VAX-11 MACRO X0.3-11               Page  64
1.0             SFTLN51                                                                                                          (1)

                                     05BF  1494 ;
                                     05BF  1495 ;++
                                     05BF  1496 ; ******************************************************
                                     05BF  1497 ; *
                                     05BF  1498 ; *  TEST CASE NAME:		SFTLN51
                                     05BF  1499 ; *
                                     05BF  1500 ; *  SYSTEM SERVICE:		TRNLOG
                                     05BF  1501 ; *
                                     05BF  1502 ; *  ARGUMENT UNDER TEST: 	ACMODE_TLN51
                                     05BF  1503 ; *
                                     05BF  1504 ; *  INPUT CONDITIONS:
                                     05BF  1505 ; *	ACMODE OUTPUT FIELD IN READ/ONLY PSECT
                                     05BF  1506 ; *
                                     05BF  1507 ; *  EXPECTED RESULTS:
                                     05BF  1508 ; *	1) SYSTEM STATUS CODE:	ACCVIO
                                     05BF  1509 ; *	2) REGISTERS R2 THROUGH FP UNCHANGED
                                     05BF  1510 ; *
                                     05BF  1511 ; ******************************************************
                                     05BF  1512 ;--
                                     05BF  1513 ;
                                     05BF  1514 ;
                                     05BF  1515 	TCEND
SATSSF03        - SATS SYSTEM SERVICE TESTS  (FAILING S.C.)      22-AUG-1978 03:40:12   VAX-11 MACRO X0.3-11               Page  65
1.0                                                                                                                              (1)

                                     05C0  1516 	TC_GROUP	TLN,2,TS6
                                     05E7  1517 ;
                                     05E7  1518 	NEXT_TEST_CASE	SFTLN15
SATSSF03        - SATS SYSTEM SERVICE TESTS  (FAILING S.C.)      22-AUG-1978 03:40:12   VAX-11 MACRO X0.3-11               Page  66
1.0             SFTLN15                                                                                                          (1)

                                     05E7  1519 ;
                                     05E7  1520 ;++
                                     05E7  1521 ; ******************************************************
                                     05E7  1522 ; *
                                     05E7  1523 ; *  TEST CASE NAME:		SFTLN15
                                     05E7  1524 ; *
                                     05E7  1525 ; *  SYSTEM SERVICE:		TRNLOG
                                     05E7  1526 ; *
                                     05E7  1527 ; *  ARGUMENT UNDER TEST: 	LOGNAM_TLN15
                                     05E7  1528 ; *
                                     05E7  1529 ; *  INPUT CONDITIONS:
                                     05E7  1530 ; *	LOGNAM STRING BEGINS IN ACCESSIBLE PSECT,
                                     05E7  1531 ; *	  ENDS IN NON-ACCESSIBLE PSECT.
                                     05E7  1532 ; *
                                     05E7  1533 ; *  EXPECTED RESULTS:
                                     05E7  1534 ; *	1) SYSTEM STATUS CODE:	ACCVIO
                                     05E7  1535 ; *	2) REGISTERS R2 THROUGH FP UNCHANGED
                                     05E7  1536 ; *
                                     05E7  1537 ; ******************************************************
                                     05E7  1538 ;--
                                     05E7  1539 ;
                                     05E7  1540 ;
                                     05E7  1541 	NEXT_TEST_CASE	SFTLN16
SATSSF03        - SATS SYSTEM SERVICE TESTS  (FAILING S.C.)      22-AUG-1978 03:40:12   VAX-11 MACRO X0.3-11               Page  67
1.0             SFTLN16                                                                                                          (1)

                                     05F3  1542 ;
                                     05F3  1543 ;++
                                     05F3  1544 ; ******************************************************
                                     05F3  1545 ; *
                                     05F3  1546 ; *  TEST CASE NAME:		SFTLN16
                                     05F3  1547 ; *
                                     05F3  1548 ; *  SYSTEM SERVICE:		TRNLOG
                                     05F3  1549 ; *
                                     05F3  1550 ; *  ARGUMENT UNDER TEST: 	LOGNAM_TLN16
                                     05F3  1551 ; *
                                     05F3  1552 ; *  INPUT CONDITIONS:
                                     05F3  1553 ; *	LOGICAL NAME STRING TOO BIG TO
                                     05F3  1554 ; *	  FIT INTO RSLBUF.
                                     05F3  1555 ; *
                                     05F3  1556 ; *  EXPECTED RESULTS:
                                     05F3  1557 ; *	1) SYSTEM STATUS CODE:	RESULTOVF
                                     05F3  1558 ; *	2) REGISTERS R2 THROUGH FP UNCHANGED
                                     05F3  1559 ; *
                                     05F3  1560 ; ******************************************************
                                     05F3  1561 ;--
                                     05F3  1562 ;
                                     05F3  1563 ;
                                     05F3  1564 	NEXT_TEST_CASE	SFTLN35
SATSSF03        - SATS SYSTEM SERVICE TESTS  (FAILING S.C.)      22-AUG-1978 03:40:12   VAX-11 MACRO X0.3-11               Page  68
1.0             SFTLN35                                                                                                          (1)

                                     05FF  1565 ;
                                     05FF  1566 ;++
                                     05FF  1567 ; ******************************************************
                                     05FF  1568 ; *
                                     05FF  1569 ; *  TEST CASE NAME:		SFTLN35
                                     05FF  1570 ; *
                                     05FF  1571 ; *  SYSTEM SERVICE:		TRNLOG
                                     05FF  1572 ; *
                                     05FF  1573 ; *  ARGUMENT UNDER TEST: 	RSLBUF_TLN35
                                     05FF  1574 ; *
                                     05FF  1575 ; *  INPUT CONDITIONS:
                                     05FF  1576 ; *	RSLBUF STRING BEGINS IN ACCESSIBLE PSECT,
                                     05FF  1577 ; *	  ENDS IN NON-ACCESSIBLE PSECT.
                                     05FF  1578 ; *
                                     05FF  1579 ; *  EXPECTED RESULTS:
                                     05FF  1580 ; *	1) SYSTEM STATUS CODE:	ACCVIO
                                     05FF  1581 ; *	2) REGISTERS R2 THROUGH FP UNCHANGED
                                     05FF  1582 ; *
                                     05FF  1583 ; ******************************************************
                                     05FF  1584 ;--
                                     05FF  1585 ;
                                     05FF  1586 ;
                                     05FF  1587 	NEXT_TEST_CASE	SFTLN36
SATSSF03        - SATS SYSTEM SERVICE TESTS  (FAILING S.C.)      22-AUG-1978 03:40:12   VAX-11 MACRO X0.3-11               Page  69
1.0             SFTLN36                                                                                                          (1)

                                     060B  1588 ;
                                     060B  1589 ;++
                                     060B  1590 ; ******************************************************
                                     060B  1591 ; *
                                     060B  1592 ; *  TEST CASE NAME:		SFTLN36
                                     060B  1593 ; *
                                     060B  1594 ; *  SYSTEM SERVICE:		TRNLOG
                                     060B  1595 ; *
                                     060B  1596 ; *  ARGUMENT UNDER TEST: 	RSLBUF_TLN36
                                     060B  1597 ; *
                                     060B  1598 ; *  INPUT CONDITIONS:
                                     060B  1599 ; *	OUTPUT STRING BUFFER OF LENGTH ZERO
                                     060B  1600 ; *
                                     060B  1601 ; *  EXPECTED RESULTS:
                                     060B  1602 ; *	1) SYSTEM STATUS CODE:	RESULTOVF
                                     060B  1603 ; *	2) REGISTERS R2 THROUGH FP UNCHANGED
                                     060B  1604 ; *
                                     060B  1605 ; ******************************************************
                                     060B  1606 ;--
                                     060B  1607 ;
                                     060B  1608 ;
                                     060B  1609 	NEXT_TEST_CASE	SFTLN37
SATSSF03        - SATS SYSTEM SERVICE TESTS  (FAILING S.C.)      22-AUG-1978 03:40:12   VAX-11 MACRO X0.3-11               Page  70
1.0             SFTLN37                                                                                                          (1)

                                     0617  1610 ;
                                     0617  1611 ;++
                                     0617  1612 ; ******************************************************
                                     0617  1613 ; *
                                     0617  1614 ; *  TEST CASE NAME:		SFTLN37
                                     0617  1615 ; *
                                     0617  1616 ; *  SYSTEM SERVICE:		TRNLOG
                                     0617  1617 ; *
                                     0617  1618 ; *  ARGUMENT UNDER TEST: 	RSLBUF_TLN37
                                     0617  1619 ; *
                                     0617  1620 ; *  INPUT CONDITIONS:
                                     0617  1621 ; *	OUTPUT STRING BUFFER TOO SMALL TO
                                     0617  1622 ; *	  ACCOMMODATE LOGICAL NAME RETURNED.
                                     0617  1623 ; *
                                     0617  1624 ; *  EXPECTED RESULTS:
                                     0617  1625 ; *	1) SYSTEM STATUS CODE:	RESULTOVF
                                     0617  1626 ; *	2) REGISTERS R2 THROUGH FP UNCHANGED
                                     0617  1627 ; *
                                     0617  1628 ; ******************************************************
                                     0617  1629 ;--
                                     0617  1630 ;
                                     0617  1631 ;
                                     0617  1632 	TCEND
SATSSF03        - SATS SYSTEM SERVICE TESTS  (FAILING S.C.)      22-AUG-1978 03:40:12   VAX-11 MACRO X0.3-11               Page  71
1.0                                                                                                                              (1)

                                     0618  1633 TS1:
                                     0618  1634 	TESTSERV	CRELOG,ERR,SATS,				-
                                     0618  1635                                           				-
                                     0618  1636 	   <1,TBLFLG_CLN,						-
                                     0618  1637 	        	TBLFLG_CLN10,IVLOGTAB,	-  ; SFCLN10
                                     0618  1638 	        	TBLFLG_CLN11,IVLOGTAB,	-  ; SFCLN11
                                     0618  1639 	        	TBLFLG_CLN12,IVLOGTAB,	-  ; SFCLN12
                                     0618  1640 	        	TBLFLG_CLN13,IVLOGTAB,	-  ; SFCLN13
                                     0618  1641                                                   >,			-
                                     0618  1642                                           				-
                                     0618  1643 	   <1,LOGNAM_CLN,						-
                                     0618  1644 	        	LOGNAM_CLN20,ACCVIO,	-  ; SFCLN20
                                     0618  1645 	        	LOGNAM_CLN21,ACCVIO,	-  ; SFCLN21
                                     0618  1646 	        	LOGNAM_CLN22,ACCVIO,	-  ; SFCLN22
                                     0618  1647 	        	LOGNAM_CLN23,ACCVIO,	-  ; SFCLN23
                                     0618  1648 	        	LOGNAM_CLN24,ACCVIO,	-  ; SFCLN24
                                     0618  1649                                                   >,			-
                                     0618  1650                                           				-
                                     0618  1651 	   <1,EQLNAM_CLN,						-
                                     0618  1652 	        	EQLNAM_CLN30,ACCVIO,	-  ; SFCLN30
                                     0618  1653 	        	EQLNAM_CLN31,ACCVIO,	-  ; SFCLN31
                                     0618  1654 	        	EQLNAM_CLN32,ACCVIO,	-  ; SFCLN32
                                     0618  1655 	        	EQLNAM_CLN33,ACCVIO,	-  ; SFCLN33
                                     0618  1656 	        	EQLNAM_CLN34,ACCVIO,	-  ; SFCLN34
                                     0618  1657                                                   >,			-
                                     0618  1658                                           				-
                                     0618  1659 	   <1,ACMODE_CLN,						-
                                     0618  1660                                                   >,			-
                                     0618  1661
                                     08EE  1662 	TS_CLEANUP		; CLEAN UP & RETURN TO TEST_SERV_EXEC
SATSSF03        - SATS SYSTEM SERVICE TESTS  (FAILING S.C.)      22-AUG-1978 03:40:12   VAX-11 MACRO X0.3-11               Page  72
1.0                                                                                                                              (1)

                                     090E  1663 TS2:
                                     090E  1664 	TESTSERV	CRELOG,ERR,SATS,				-
                                     090E  1665                                           				-
                                     090E  1666 	   <1,TBLFLG_CLN,						-
                                     090E  1667                                                   >,			-
                                     090E  1668                                           				-
                                     090E  1669 	   <1,LOGNAM_CLN,						-
                                     090E  1670 	        	LOGNAM_CLN25,ACCVIO,	-  ; SFCLN25
                                     090E  1671 	        	LOGNAM_CLN26,IVLOGNAM,	-  ; SFCLN26
                                     090E  1672 	        	LOGNAM_CLN27,IVLOGNAM,	-  ; SFCLN27
                                     090E  1673                                                   >,			-
                                     090E  1674                                           				-
                                     090E  1675 	   <1,EQLNAM_CLN,						-
                                     090E  1676 	        	EQLNAM_CLN35,ACCVIO,	-  ; SFCLN35
                                     090E  1677 	        	EQLNAM_CLN36,IVLOGNAM,	-  ; SFCLN36
                                     090E  1678 	        	EQLNAM_CLN37,IVLOGNAM,	-  ; SFCLN37
                                     090E  1679                                                   >,			-
                                     090E  1680                                           				-
                                     090E  1681 	   <1,ACMODE_CLN,						-
                                     090E  1682                                                   >,			-
                                     090E  1683
                                     0BA4  1684 	TS_CLEANUP		; CLEAN UP & RETURN TO TEST_SERV_EXEC
SATSSF03        - SATS SYSTEM SERVICE TESTS  (FAILING S.C.)      22-AUG-1978 03:40:12   VAX-11 MACRO X0.3-11               Page  73
1.0                                                                                                                              (1)

                                     0BC4  1685 TS3:
                                     0BC4  1686 	TESTSERV	DELLOG,ERR,SATS,				-
                                     0BC4  1687                                           				-
                                     0BC4  1688 	   <1,TBLFLG_DLN,						-
                                     0BC4  1689 	        	TBLFLG_DLN10,IVLOGTAB,	-  ; SFDLN10
                                     0BC4  1690 	        	TBLFLG_DLN11,IVLOGTAB,	-  ; SFDLN11
                                     0BC4  1691 	        	TBLFLG_DLN12,IVLOGTAB,	-  ; SFDLN12
                                     0BC4  1692 	        	TBLFLG_DLN13,IVLOGTAB,	-  ; SFDLN13
                                     0BC4  1693                                                   >,			-
                                     0BC4  1694                                           				-
                                     0BC4  1695 	   <1,LOGNAM_DLN,						-
                                     0BC4  1696 	        	LOGNAM_DLN20,ACCVIO,	-  ; SFDLN20
                                     0BC4  1697 	        	LOGNAM_DLN21,ACCVIO,	-  ; SFDLN21
                                     0BC4  1698 	        	LOGNAM_DLN22,ACCVIO,	-  ; SFDLN22
                                     0BC4  1699 	        	LOGNAM_DLN23,ACCVIO,	-  ; SFDLN23
                                     0BC4  1700 	        	LOGNAM_DLN24,ACCVIO,	-  ; SFDLN24
                                     0BC4  1701                                                   >,			-
                                     0BC4  1702
                                     0D56  1703 	TS_CLEANUP		; CLEAN UP & RETURN TO TEST_SERV_EXEC
SATSSF03        - SATS SYSTEM SERVICE TESTS  (FAILING S.C.)      22-AUG-1978 03:40:12   VAX-11 MACRO X0.3-11               Page  74
1.0                                                                                                                              (1)

                                     0D76  1704 TS4:
                                     0D76  1705 	TESTSERV	DELLOG,ERR,SATS,				-
                                     0D76  1706                                           				-
                                     0D76  1707 	   <1,TBLFLG_DLN,						-
                                     0D76  1708                                                   >,			-
                                     0D76  1709                                           				-
                                     0D76  1710 	   <1,LOGNAM_DLN,						-
                                     0D76  1711 	        	LOGNAM_DLN25,ACCVIO,	-  ; SFDLN25
                                     0D76  1712 	        	LOGNAM_DLN26,IVLOGNAM,	-  ; SFDLN26
                                     0D76  1713 	        	LOGNAM_DLN27,IVLOGNAM,	-  ; SFDLN27
                                     0D76  1714 	        	LOGNAM_DLN28,NOLOGNAM,	-  ; SFDLN28
                                     0D76  1715 	        	LOGNAM_DLN29,NOLOGNAM,	-  ; SFDLN29
                                     0D76  1716                                                   >,			-
                                     0D76  1717
                                     0EE7  1718 	TS_CLEANUP		; CLEAN UP & RETURN TO TEST_SERV_EXEC
SATSSF03        - SATS SYSTEM SERVICE TESTS  (FAILING S.C.)      22-AUG-1978 03:40:12   VAX-11 MACRO X0.3-11               Page  75
1.0                                                                                                                              (1)

                                     0F07  1719 TS5:
                                     0F07  1720 	TESTSERV	TRNLOG,ERR,SATS,				-
                                     0F07  1721                                           				-
                                     0F07  1722 	   <1,LOGNAM_TLN,						-
                                     0F07  1723 	        	LOGNAM_TLN10,ACCVIO,	-  ; SFTLN10
                                     0F07  1724 	        	LOGNAM_TLN11,ACCVIO,	-  ; SFTLN11
                                     0F07  1725 	        	LOGNAM_TLN12,ACCVIO,	-  ; SFTLN12
                                     0F07  1726 	        	LOGNAM_TLN13,ACCVIO,	-  ; SFTLN13
                                     0F07  1727 	        	LOGNAM_TLN14,ACCVIO,	-  ; SFTLN14
                                     0F07  1728                                                   >,			-
                                     0F07  1729                                           				-
                                     0F07  1730 	   <1,RSLLEN_TLN,						-
                                     0F07  1731 	        	RSLLEN_TLN20,ACCVIO,	-  ; SFTLN20
                                     0F07  1732 	        	RSLLEN_TLN21,ACCVIO,	-  ; SFTLN21
                                     0F07  1733 	        	RSLLEN_TLN22,ACCVIO,	-  ; SFTLN22
                                     0F07  1734                                                   >,			-
                                     0F07  1735                                           				-
                                     0F07  1736 	   <1,RSLBUF_TLN,						-
                                     0F07  1737 	        	RSLBUF_TLN30,ACCVIO,	-  ; SFTLN30
                                     0F07  1738 	        	RSLBUF_TLN31,ACCVIO,	-  ; SFTLN31
                                     0F07  1739 	        	RSLBUF_TLN32,ACCVIO,	-  ; SFTLN32
                                     0F07  1740 	        	RSLBUF_TLN33,ACCVIO,	-  ; SFTLN33
                                     0F07  1741 	        	RSLBUF_TLN34,ACCVIO,	-  ; SFTLN34
                                     0F07  1742                                                   >,			-
                                     0F07  1743                                           				-
                                     0F07  1744 	   <1,TABLE_TLN,						-
                                     0F07  1745 	        	TABLE_TLN40,ACCVIO,	-  ; SFTLN40
                                     0F07  1746 	        	TABLE_TLN41,ACCVIO,	-  ; SFTLN41
                                     0F07  1747                                                   >,			-
                                     0F07  1748                                           				-
                                     0F07  1749 	   <1,ACMODE_TLN,						-
                                     0F07  1750 	        	ACMODE_TLN50,ACCVIO,	-  ; SFTLN50
                                     0F07  1751 	        	ACMODE_TLN51,ACCVIO,	-  ; SFTLN51
                                     0F07  1752                                                   >,			-
                                     0F07  1753
                                     1299  1754 	TS_CLEANUP		; CLEAN UP & RETURN TO TEST_SERV_EXEC
SATSSF03        - SATS SYSTEM SERVICE TESTS  (FAILING S.C.)      22-AUG-1978 03:40:12   VAX-11 MACRO X0.3-11               Page  76
1.0                                                                                                                              (1)

                                     12B9  1755 TS6:
                                     12B9  1756 	TESTSERV	TRNLOG,ERR,SATS,				-
                                     12B9  1757                                           				-
                                     12B9  1758 	   <1,LOGNAM_TLN,						-
                                     12B9  1759 	        	LOGNAM_TLN15,ACCVIO,	-  ; SFTLN15
                                     12B9  1760 	        	LOGNAM_TLN16,RESULTOVF,	-  ; SFTLN16
                                     12B9  1761                                                   >,			-
                                     12B9  1762                                           				-
                                     12B9  1763 	   <1,RSLLEN_TLN,						-
                                     12B9  1764                                                   >,			-
                                     12B9  1765                                           				-
                                     12B9  1766 	   <1,RSLBUF_TLN,						-
                                     12B9  1767 	        	RSLBUF_TLN35,ACCVIO,	-  ; SFTLN35
                                     12B9  1768 	        	RSLBUF_TLN36,RESULTOVF,	-  ; SFTLN36
                                     12B9  1769 	        	RSLBUF_TLN37,RESULTOVF,	-  ; SFTLN37
                                     12B9  1770                                                   >,			-
                                     12B9  1771                                           				-
                                     12B9  1772 	   <1,TABLE_TLN,						-
                                     12B9  1773                                                   >,			-
                                     12B9  1774                                           				-
                                     12B9  1775 	   <1,ACMODE_TLN,						-
                                     12B9  1776                                                   >,			-
                                     12B9  1777
                                     15EB  1778 	TS_CLEANUP		; CLEAN UP & RETURN TO TEST_SERV_EXEC
SATSSF03        - SATS SYSTEM SERVICE TESTS  (FAILING S.C.)      22-AUG-1978 03:40:12   VAX-11 MACRO X0.3-11               Page  77
1.0             EXECUTE & CLEANUP                                                                                                (1)

                                     160B  1779 	.SBTTL	EXECUTE & CLEANUP
                                     160B  1780 EXECUTE:
                                     160B  1781 	TEST_SERV_EXEC			; EXECUTE ALL T. CASES IN ALL GROUPS
                                     1647  1782 	.MDELETE (PRIV,TC_GROUP,NEXT_TEST_CASE, -
                           0000000D  1647  1783 		  TCEND,TESTSERV,TS_CLEANUP,TEST_SERV_EXEC)
                                     1647  1784 					; DELETE MACRO DEFINITIONS
                                     1647  1785 CLEANUP:
                          0138   30  1647  1786 	BSBW	MOD_MSG_PRINT		; PRINT TEST MODULE END MSG
            1C            01     F0  164A  1787 	INSV	#1,#STS$V_INHIB_MSG,#1,MOD_MSG_CODE
   00000044'EF            01         164D
                                     1653  1788 					; INHIBIT PRINTING
                                     1653  1789 	$EXIT_S	MOD_MSG_CODE		; EXIT TO OP SYS WITH MSG CODE
SATSSF03        - SATS SYSTEM SERVICE TESTS  (FAILING S.C.)      22-AUG-1978 03:40:12   VAX-11 MACRO X0.3-11               Page  78
1.0             TC_CONTROL                                                                                                       (1)

                                     1660  1791 	.SBTTL	TC_CONTROL
                                     1660  1792 ;++
                                     1660  1793 ; FUNCTIONAL DESCRIPTION:
                                     1660  1794 ;
                                     1660  1795 ;		THE TC_CONTROL SUBROUTINE IS CALLED BY THE TEST_SERV_EXEC
                                     1660  1796 ; MACRO TO EXECUTE A GROUP OF TEST CASES. A GROUP IS DEFINED BY A TC_GROUP
                                     1660  1797 ; MACRO. FOR EACH TC_GROUP MACRO, THERE IS A CORRESPONDING TESTSERV MACRO.
                                     1660  1798 ; TESTSERV CONTAINS CODE TO EXECUTE SYSTEM SERVICES AND CHECK THE RETURNED
                                     1660  1799 ; STATUS CODE VALUES. TESTSERV ARGUMENTS ARE CODED TO SPECIFY ALL THE SYSTEM
                                     1660  1800 ; SERVICE ARGUMENT VALUES AND THE EXPECTED STATUS CODE FOR EACH TEST CASE
                                     1660  1801 ; DEFINED BY A NEXT_TEST_CASE MACRO WITHIN THE GROUP. TC_CONTROL USES A
                                     1660  1802 ; CO-ROUTINE INTERFACE TO ENTER THE CODE OF THE APPROPRIATE TESTSERV MACRO
                                     1660  1803 ; IN VARIOUS PLACES. THE FIRST ENTRY OCCURS ONCE PER GROUP TO ALLOW TESTSERV
                                     1660  1804 ; TO DO SOME INITIALIZATION. THEN TWO ENTRIES ARE MADE FOR EACH TEST CASE IN
                                     1660  1805 ; THE GROUP. THE FIRST ALLOWS TESTSERV TO ISSUE THE SUBJECT SYSTEM SERVICE.
                                     1660  1806 ; THE SECOND ENTRY FOR THE TEST CASE CAUSES TESTSERV TO CHECK THE RETURNED
                                     1660  1807 ; STATUS CODE, PRINTING A FAILURE MESSAGE IF IT IS NOT THE EXPECTED CODE.
                                     1660  1808 ; IF THERE ARE NO MORE TEST CASES IN THE CURRENT GROUP, TESTSERV (NOT TC_CONTROL)
                                     1660  1809 ; RETURNS DIRECTLY TO TEST_SERV_EXEC (RSB ACTUALLY ISSUED IN TS_CLEANUP MACRO)
                                     1660  1810 ; FROM THIS SECOND ENTRY; OTHERWISE, CONTROL RETURNS TO TC_CONTROL WHICH
                                     1660  1811 ; IN TURN ENTERS TESTSERV AGAIN FOR THE NEXT TEST CASE. THE FAILURE OF A
                                     1660  1812 ; TEST CASE DOES NOT CAUSE TERMINATION OF THE TEST MODULE.
                                     1660  1813 ;
                                     1660  1814 ; CALLING SEQUENCE:
                                     1660  1815 ;
                                     1660  1816 ;	BSBW TC_CONTROL (ISSUED WITHIN THE TEST_SERV_EXEC MACRO)
                                     1660  1817 ;			(RSB IS ISSUED WITHIN THE TS_CLEANUP MACRO)
                                     1660  1818 ;
                                     1660  1819 ; INPUT PARAMETERS:
                                     1660  1820 ;
                                     1660  1821 ;	NONE
                                     1660  1822 ;
                                     1660  1823 ; IMPLICIT INPUTS:
                                     1660  1824 ;
                                     1660  1825 ;	ARGUMENTS SPECIFIED ON EACH TESTSERV MACRO MAY BE VIEWED AS
                                     1660  1826 ;	INPUTS, SINCE TC_CONTROL AND TESTSERV ACT AS CO-ROUTINES.
                                     1660  1827 ;
                                     1660  1828 ; OUTPUT PARAMETERS:
                                     1660  1829 ;
                                     1660  1830 ;	SEVERITY CODE FIELD OF MOD_MSG_CODE (BITS 0,1,2) IS SET TO ERROR
                                     1660  1831 ;	IF ANY TEST CASE IN THE CURRENT GROUP FAILS; OTHERWISE IT REMAINS
                                     1660  1832 ;	SET TO SUCCESSFUL.
                                     1660  1833 ;
                                     1660  1834 ; IMPLICIT OUTPUTS:
                                     1660  1835 ;
                                     1660  1836 ;	%UETP-I-TEXT,   ERROR MESSAGES ARE WRITTEN TO SYS$OUTPUT BY
                                     1660  1837 ;			THE TESTSERV MACRO (CO-ROUTINE WITH TC_CONTROL)
                                     1660  1838 ;
                                     1660  1839 ; COMPLETION CODES:
                                     1660  1840 ;
                                     1660  1841 ;	NONE
                                     1660  1842 ;
                                     1660  1843 ; SIDE EFFECTS:
                                     1660  1844 ;
                                     1660  1845 ;	NONE
                                     1660  1846 ;
                                     1660  1847 ;--
SATSSF03        - SATS SYSTEM SERVICE TESTS  (FAILING S.C.)      22-AUG-1978 03:40:12   VAX-11 MACRO X0.3-11               Page  79
1.0             TC_CONTROL                                                                                                       (1)

                                     1660  1848
                                     1660  1849
                                     1660  1850
                                     1660  1851 TC_CONTROL:
                 00000064'EF     DD  1660  1852 	PUSHL	TS_EP			; PUSH TESTSERV ENTRY POINT
                          9E     16  1666  1853 	JSB	@(SP)+			; ENTER TESTSERV INITIALIZATION
                                     1668  1854 10$:					; PROCESS NEXT TEST CASE
   00000056'EF            20     90  1668  1855 	MOVB	#^A/ /,$$TSTN$$+2 	; MAKE SURE T.C. NAME HAS A BLANK
                          002F   30  166F  1856 	BSBW	REG_SAVE		; SAVE REGISTERS
                 00000004'FF     16  1672  1857 	JSB	@CURRENT_TC		; JUMP TO CURRENT TEST CASE
                          0037   30  1678  1858 	BSBW	REG_REST		; RESTORE REGS FOR TESTSERV
                          9E     16  167B  1859 	JSB	@(SP)+			; LET TESTSERV ISSUE SYSTEM SERVICE
                          0042   30  167D  1860 	BSBW	REG_COMP		; COMPARE REGS TO SEE IF ...
                                     1680  1861 					; ... SYSTEM SERVICE CHANGED ANY
                          9E     16  1680  1862 	JSB	@(SP)+			; LET TESTSERV CHEK S.S. STATUS CODE
   00000056'EF            2A     91  1682  1863 	CMPB	#^A/*/,$$TSTN$$+2	; HAS TESTSERV INDICATED FAILURE ?
                          DD     12  1689  1864 	BNEQU	10$			; NO -- PROCESS NEXT TEST CASE
   00000060'EF   00000088'EF     DE  168B  1865 	MOVAL	TEST_MOD_FAIL,TMD_ADDR	; YES -- INDICATE FAILED IN END MSG
            00            02     F0  1696  1866 	INSV	#ERROR,#0,#3,MOD_MSG_CODE ; ADJUST STATUS CODE FOR ERROR
   00000044'EF            03         1699
                          C7     11  169F  1867 	BRB	10$			; LOOP BAK TO PROCESS NEXT TEST CASE
                                     16A1  1868 ;
                                     16A1  1869 ;   TC_CONTROL RETURNS TO TEST_SERV_EXEC VIA TESTSERV (IN TS_CLEANUP MACRO)
                                     16A1  1870 ;
SATSSF03        - SATS SYSTEM SERVICE TESTS  (FAILING S.C.)      22-AUG-1978 03:40:12   VAX-11 MACRO X0.3-11               Page  80
1.0             SUBROUTINES                                                                                                      (1)

                                     16A1  1872 	.SBTTL	SUBROUTINES
                                     16A1  1873 REG_SAVE:
                                     16A1  1874 ;
                                     16A1  1875 ;  *****************************************************************
                                     16A1  1876 ;  *                                                               *
                                     16A1  1877 ;  *  SAVES R0 THRU SP IN REG_SAVE_AREA                            *
                                     16A1  1878 ;  *                                                               *
                                     16A1  1879 ;  *****************************************************************
                                     16A1  1880 ;
                     7FFF 8F     BB  16A1  1881 	PUSHR	#R0_THRU_SP		; SAVE ALL REGS ON STACK
            6E            3C     28  16A5  1882 	MOVC3	#60,(SP),REG_SAVE_AREA	; SAVE REGS (BEFORE S.S.)
                 00000008'EF         16A8
                     7FFF 8F     BA  16AD  1883 	POPR	#R0_THRU_SP		; CLEAN UP STACK
                                 05  16B1  1884 	RSB				; .... AND RETURN
                                     16B2  1885 ;
                                     16B2  1886 ;
                                     16B2  1887 ;
                                     16B2  1888 ;
                                     16B2  1889 REG_REST:
                                     16B2  1890 ;
                                     16B2  1891 ;
                                     16B2  1892 ;  *****************************************************************
                                     16B2  1893 ;  *                                                               *
                                     16B2  1894 ;  *  RESTORES R0 THRU SP FROM REG_SAVE_AREA                       *
                                     16B2  1895 ;  *                                                               *
                                     16B2  1896 ;  *****************************************************************
                                     16B2  1897 ;
            5E            3C     C2  16B2  1898 	SUBL2	#60,SP			; MOVE SP TO MAKE ROOM FOR REGS
   00000008'EF            3C     28  16B5  1899 	MOVC3	#60,REG_SAVE_AREA,(SP)	; MOVE REGS ONTO STACK FOR POP
                          6E         16BC
                     7FFF 8F     BA  16BD  1900 	POPR	#R0_THRU_SP		; RESTORE ALL REGS FOR TESTSERV
                                 05  16C1  1901 	RSB				; ... AND RETURN
SATSSF03        - SATS SYSTEM SERVICE TESTS  (FAILING S.C.)      22-AUG-1978 03:40:12   VAX-11 MACRO X0.3-11               Page  81
1.0             SUBROUTINES                                                                                                      (1)

                                     16C2  1903 REG_COMP:
                                     16C2  1904 ;
                                     16C2  1905 ;  *****************************************************************
                                     16C2  1906 ;  *                                                               *
                                     16C2  1907 ;  *  1) PUSHES ALL REGS ONTO STACK                                *
                                     16C2  1908 ;  *  2) COMPARES REGISTER IMAGES FROM STACK WITH CORRESPONDING    *
                                     16C2  1909 ;  *       IMAGES FROM REG_SAVE_AREA FOR ALL REGISTERS SPECIFIED   *
                                     16C2  1910 ;  *       IN REG_COMP_MASK.                                       *
                                     16C2  1911 ;  *  3) FOR EACH UNEQUAL COMPARE, AN ERROR MESSAGE IS PRINTED     *
                                     16C2  1912 ;  *       (USING $FAO AND $OUTPUT SYSTEM SERVICES).               *
                                     16C2  1913 ;  *  4) POPS ALL REGS OFF OF STACK                                *
                                     16C2  1914 ;  *                                                               *
                                     16C2  1915 ;  *****************************************************************
                                     16C2  1916 ;
                     7FFF 8F     BB  16C2  1917 	PUSHR	#R0_THRU_SP		; SAVE ALL REGISTERS ON STACK
            56   00000008'EF     DE  16C6  1918 	MOVAL	REG_SAVE_AREA,R6 	; POINT R6 TO BEG OF ...
                                     16CD  1919 					; ... REGS (BEFORE S.S.)
            54            5E     D0  16CD  1920 	MOVL	SP,R4			; POINT R4 TO BEG OF
                                     16D0  1921 					; ... REGS (AFTER S.S.)
            53         FF 8F     98  16D0  1922 	CVTBL	#-1,R3			; INITIALIZE REG_COMP_MASK INDEX
                                     16D4  1923 REG_COMP_NEXT:
                          53     D6  16D4  1924 	INCL	R3			; POINT TO NEXT BIT IN MASK
            53            0F     91  16D6  1925 	CMPB	#15,R3			; END OF THE MASK ?
                          03     1A  16D9  1926 	BGTRU	REG_COMP_CONT		; NO -- CONTINUE
                          009F   31  16DB  1927 	BRW	REG_COMP_RSB		; YES -- GO TO COMMON RETURN
                                     16DE  1928 REG_COMP_CONT:
            84            86     D1  16DE  1929 	CMPL	(R6)+,(R4)+		; REG BEFORE = REG AFTER ?
                          F1     13  16E1  1930 	BEQLU	REG_COMP_NEXT		; YES -- LOOK FOR NEXT REG
   00000000'EF            53     E1  16E3  1931 	BBC	R3,REG_COMP_MASK,REG_COMP_NEXT
                          E9         16EA
                                     16EB  1932 					; NO -- GET NEXT IF BIT NOT SET
   00000048'EF            53     D0  16EB  1933 	MOVL	R3,CLOB_REG_NO		; NO -- GIVE REG NUMBER TO FAO
   0000004C'EF         FC A6     D0  16F2  1934 	MOVL	-4(R6),REG_BEFORE_SS 	; GIVE "BEFORE" CONTENTS TO FAO
   00000050'EF         FC A4     D0  16FA  1935 	MOVL	-4(R4),REG_AFTER_SS  	; GIVE "AFTER" CONTENTS TO FAO
   00000056'EF            2A     90  1702  1936 	MOVB	#^A/*/,$$TSTN$$+2 	; GIVE FAILURE INDIC'N IN ERROR MSG
                                     1709  1937 ;
                                     1709  1938 	$FAO_S	ERR_MSG_FAOCTL,OUTL,OUTD,$$SNAD$$,  -
                                     1709  1939 		$$ASEQ$$,$$PSEQ$$,CLOB_REG_NO,REG_BEFORE_SS,REG_AFTER_SS
                                     173C  1940 ;
       E9DA CF       E9A4 CF     B0  173C  1941 	MOVW	OUTL,OUTD		; ACTUAL OUTPUT LEN IN STRING DESC'R
                                     1743  1942 	PUTMSG	<#UETP$_TEXT,#1,#OUTD>	; PRINT THE MSG
       E9BE CF       0084 8F     B0  1758  1943 	MOVW	#OUTE-OUTB,OUTD		; GET MAX LEN BACK INTO DESCRIPTOR
   00000056'EF            20     90  175F  1944 	MOVB	#^A/ /,$$TSTN$$+2 	; REMOVE FAIL INDIC'N FOR NEXT MSG
   00000060'EF   00000088'EF     DE  1766  1945 	MOVAL	TEST_MOD_FAIL,TMD_ADDR	; INDICATE FAILED IN END MSG
            00            02     F0  1771  1946 	INSV	#ERROR,#0,#3,MOD_MSG_CODE ; ADJUST STATUS CODE FOR ERROR
   00000044'EF            03         1774
                          FF57   31  177A  1947 	BRW	REG_COMP_NEXT		; GO LOOK FOR NEXT REG TO COMPARE
                                     177D  1948 REG_COMP_RSB:
                     7FFF 8F     BA  177D  1949 	POPR	#R0_THRU_SP		; CLEAN UP STACK
                                 05  1781  1950 	RSB				; RETURN TO CALLER
SATSSF03        - SATS SYSTEM SERVICE TESTS  (FAILING S.C.)      22-AUG-1978 03:40:12   VAX-11 MACRO X0.3-11               Page  82
1.0             SUBROUTINES                                                                                                      (1)

                                     1782  1952 MOD_MSG_PRINT:
                                     1782  1953 ;
                                     1782  1954 ;  *****************************************************************
                                     1782  1955 ;  *                                                               *
                                     1782  1956 ;  *  PRINTS THE TEST MODULE BEGUN/SUCCESSFUL/FAILED MESSAGES      *
                                     1782  1957 ;  *	   (USING THE PUTMSG MACRO).                               *
                                     1782  1958 ;  *                                                               *
                                     1782  1959 ;  *****************************************************************
                                     1782  1960 ;
                                     1782  1961 	PUTMSG	<MOD_MSG_CODE,#2,TMN_ADDR,TMD_ADDR> ; PRINT MSG
                                 05  179D  1962 	RSB				; ... AND RETURN TO CALLER
                                     179E  1963 ;
                                     179E  1964 CHMRTN:
                                     179E  1965 ; **********************************************************
                                     179E  1966 ; *
                                     179E  1967 ; *	CHANGE MODE ROUTINE. THIS ROUTINE GETS CONTROL WHENEVER
                                     179E  1968 ; *	A CMKRNL, CMEXEC, OR CMSUP SYSTEM SERVICE IS ISSUED
                                     179E  1969 ; *	BY THE MODE MACRO ('TO' OPTION).  IT MERELY DOES
                                     179E  1970 ; *	A JUMP INDIRECT ON A FIELD SET UP BY MODE. IT HAS
                                     179E  1971 ; *	THE EFFECT OF RETURNING TO THE END OF THE MODE
                                     179E  1972 ; *	MACRO EXPANSION.
                                     179E  1973 ; *
                                     179E  1974 ; *************************************************************
                                     179E  1975 ;
                               0000  179E  1976 	.WORD	0			; ENTRY MASK
                 00000079'FF     17  17A0  1977 	JMP	@CHM_CONT		; RETURN TO MODE MACRO IN NEW MODE
                                     17A6  1978 ;
                                     17A6  1979 ; *	RET INSTR WILL BE ISSUED IN EXPANSION OF 'MODE FROM, ....' MACRO
                                     17A6  1980 ;
                                     17A6  1981 	.END	SATSSF03
SATSSF03        - SATS SYSTEM SERVICE TESTS  (FAILING S.C.)      22-AUG-1978 03:40:12   VAX-11 MACRO X0.3-11               Page  83
SYMBOL TABLE                                                                                                                     (1)

$$$CHARS       = 00000048            LOGNAM_DLN21   = 000001FF R     05   PRV$V_WORLD    = 00000010
$$$FIRSTTC$$$  = 00000000            LOGNAM_DLN22     000001FC R     05   PRVPRT           00000070 R     04
$$$STRINGS     = 00000000            LOGNAM_DLN23     000001FB R     05   R0_THRU_SP     = 00007FFF
$$ACT$$          000000FC R     07   LOGNAM_DLN24     000001AF R     03   REGS             0000007D R     04
$$ARG$$          00000104 R     07   LOGNAM_DLN25     000001F3 R     05   REG_AFTER_SS     00000050 R     04
$$ASEQ$$         000000F4 R     07   LOGNAM_DLN26     000001B7 R     03   REG_BEFORE_SS    0000004C R     04
$$CALL$$         000000E8 R     07   LOGNAM_DLN27     000001FF R     03   REG_COMP         000016C2 R     07
$$DISP$$         000001EF R     07   LOGNAM_DLN28     00000207 R     03   REG_COMP_CONT    000016DE R     07
$$ERR$$          000001A9 R     07   LOGNAM_DLN29     00000216 R     03   REG_COMP_MASK    00000000 R     03
$$EXP$$          00000100 R     07   LOGNAM_TLN       00000225 R     03   REG_COMP_NEXT    000016D4 R     07
$$INIT$$         000000EC R     07   LOGNAM_TLN10     00000035 R     06   REG_COMP_RSB     0000177D R     07
$$MAXP$$       = 00000005            LOGNAM_TLN11   = 000001FF R     05   REG_REST         000016B2 R     07
$$PSEQ$$         000000F8 R     07   LOGNAM_TLN12     000001FC R     05   REG_SAVE         000016A1 R     07
$$SNAD$$         000000F0 R     07   LOGNAM_TLN13     000001FB R     05   REG_SAVE_AREA    00000008 R     04
$$T1           = 00000004            LOGNAM_TLN14     00000237 R     03   RETADR           00000068 R     04
$$T2           = 00000009            LOGNAM_TLN15     000001F3 R     05   RSLBUF_TLN       000000B3 R     04
$$TSTN$$         00000054 R     04   LOGNAM_TLN16     0000023F R     03   RSLBUF_TLN30     00000044 R     06
ACMODE_CLN       00000195 R     03   MEXIT          = 00000000            RSLBUF_TLN31   = 000001FF R     05
ACMODE_TLN       000000DC R     04   MOD_MSG_CODE     00000044 R     04   RSLBUF_TLN32     000001FC R     05
ACMODE_TLN50   = 00000001            MOD_MSG_PRINT    00001782 R     07   RSLBUF_TLN33     000001FB R     05
ACMODE_TLN51     0000025F R     03   NARGS          = 0000000E            RSLBUF_TLN34     00000256 R     03
BIT...         = 00001258            NOACCESS         00000000 R     06   RSLBUF_TLN35     000001F3 R     05
CHMRTN           0000179E R     07   ONES             000000B5 R     03   RSLBUF_TLN36     000000C6 R     04
CHM_CONT         00000079 R     04   OUTB             00000125 R     07   RSLBUF_TLN37     000000CA R     04
CLEANUP          00001647 R     07   OUTD             0000011D R     07   RSLLEN_TLN       000000B1 R     04
CLOB_REG_NO      00000048 R     04   OUTE             000001A9 R     07   RSLLEN_TLN20   = 00000001
CTL$GL_PHD       ********   X   07   OUTL             000000E4 R     07   RSLLEN_TLN21     00000254 R     03
CURRENT_TC       00000004 R     04   PCB$L_UIC      = 00000020            RSLLEN_TLN22   = 000001FF R     05
EMPTY            00000000 R     05   PHD$Q_PRIVMSK  = 00000000            SATSSF03         00000000 R     07
EQLNAM_CLN       0000012B R     03   PRIVMASK         00000071 R     04   SEVERE         = 00000004
EQLNAM_CLN30     00000017 R     06   PROT             000000B1 R     03   SHR$K_SHRDEF   = 00000001
EQLNAM_CLN31   = 000001FF R     05   PRT$C_NA         ********   X   03   SHR$_ABEND     = 000010D8
EQLNAM_CLN32     000001FC R     05   PRV$V_ALLSPOOL = 00000004            SHR$_ABENDD    = 000010E0
EQLNAM_CLN33     000001FB R     05   PRV$V_BUGCHK   = 00000017            SHR$_ABENDT    = 000010E8
EQLNAM_CLN34     0000013D R     03   PRV$V_CMEXEC   = 00000001            SHR$_APPENDEDB = 00001000
EQLNAM_CLN35     000001F3 R     05   PRV$V_CMKRNL   = 00000000            SHR$_APPENDEDR = 00001008
EQLNAM_CLN36     00000145 R     03   PRV$V_DETACH   = 00000005            SHR$_ATPC      = 00001158
EQLNAM_CLN37     0000018D R     03   PRV$V_DIAGNOSE = 00000006            SHR$_BADBYTE   = 00001010
ERROR          = 00000002            PRV$V_EXQUOTA  = 00000013            SHR$_BADCOPIES = 00001160
ERR_MSG_FAOCTL   00000002 R     03   PRV$V_GROUP    = 00000008            SHR$_BADDELIM  = 00001118
EXECUTE          0000160B R     07   PRV$V_GRPNAM   = 00000003            SHR$_BADFIELD  = 00001018
GBL...         = 00000000            PRV$V_LOG_IO   = 00000007            SHR$_BADFORM   = 00001168
GRP_TOTAL      = 00000006            PRV$V_MOUNT    = 00000011            SHR$_BADJOBID  = 00001170
INADR            000000A9 R     03   PRV$V_NETMBX   = 00000014            SHR$_BADJOBNAME= 00001178
INFO           = 00000003            PRV$V_NOACNT   = 00000009            SHR$_BADKEY    = 00001108
LIB$SIGNAL       ********   X   07   PRV$V_OPER     = 00000012            SHR$_BADLOGIC  = 00001120
LOGNAM_CLN       000000C1 R     03   PRV$V_PHY_IO   = 00000016            SHR$_BADLOGICPC= 00001150
LOGNAM_CLN20     00000008 R     06   PRV$V_PRMCEB   = 0000000A            SHR$_BADLONG   = 00001020
LOGNAM_CLN21   = 000001FF R     05   PRV$V_PRMGBL   = 00000018            SHR$_BADPRTY   = 00001180
LOGNAM_CLN22     000001FC R     05   PRV$V_PRMMBX   = 0000000B            SHR$_BADQNAME  = 00001188
LOGNAM_CLN23     000001FB R     05   PRV$V_PSWAPM   = 0000000C            SHR$_BADTIME   = 00001190
LOGNAM_CLN24     000000D3 R     03   PRV$V_SETPRI   = 0000000D            SHR$_BADVALUE  = 00001110
LOGNAM_CLN25     000001F3 R     05   PRV$V_SETPRV   = 0000000E            SHR$_BADWORD   = 00001028
LOGNAM_CLN26     000000DB R     03   PRV$V_SYSGBL   = 00000019            SHR$_BEGIN     = 00001030
LOGNAM_CLN27     00000123 R     03   PRV$V_SYSNAM   = 00000002            SHR$_BEGIND    = 00001038
LOGNAM_DLN       0000019D R     03   PRV$V_TMPMBX   = 0000000F            SHR$_BEGINT    = 00001040
LOGNAM_DLN20     00000026 R     06   PRV$V_VOLPRO   = 00000015            SHR$_CLICB     = 00001048
SATSSF03        - SATS SYSTEM SERVICE TESTS  (FAILING S.C.)      22-AUG-1978 03:40:12   VAX-11 MACRO X0.3-11               Page  84
SYMBOL TABLE                                                                                                                     (1)

SHR$_CLOSEDEL  = 00001218            SYS$CRELOG       ********   X   07   UETP$_UCB      = 007480E9
SHR$_CLOSEIN   = 00001050            SYS$DELLOG       ********   X   07   UETP$_USER     = 0074833B
SHR$_CLOSEOUT  = 00001058            SYS$EXIT         ********   X   07   WARNING        = 00000000
SHR$_CONFDEL   = 000011F8            SYS$FAO          ********   X   07
SHR$_COPIEDB   = 00001060            SYS$FAOL         ********   X   07
SHR$_COPIEDR   = 00001068            SYS$HIBER        ********   X   07
SHR$_CREATED   = 00001070            SYS$SETPRN       ********   X   07
SHR$_DELETED   = 00001200            SYS$SETPRT       ********   X   07
SHR$_DELINTERR = 00001240            SYS$TRNLOG       ********   X   07
SHR$_DELVER    = 00001208            SYS$WAKE         ********   X   07
SHR$_DIRTOOBUS = 00001220            TABLE_TLN        000000DB R     04
SHR$_ENDED     = 00001078            TABLE_TLN40    = 00000001
SHR$_ENDEDD    = 00001080            TABLE_TLN41      0000025E R     03
SHR$_ENDEDT    = 00001088            TBLFLG_CLN       000000BD R     03
SHR$_FILNOTDEL = 000011F0            TBLFLG_CLN10     00000091 R     04
SHR$_FILNOTPUR = 00001230            TBLFLG_CLN11     00000095 R     04
SHR$_FILPURGED = 00001250            TBLFLG_CLN12     00000099 R     04
SHR$_HASHCONCAT= 000011D8            TBLFLG_CLN13     0000009D R     04
SHR$_HIGHVER   = 00001148            TBLFLG_DLN       00000199 R     03
SHR$_IDXCONCAT = 00001138            TBLFLG_DLN10     000000A1 R     04
SHR$_INCOMPAT  = 000011E0            TBLFLG_DLN11     000000A5 R     04
SHR$_NEWFILES  = 00001090            TBLFLG_DLN12     000000A9 R     04
SHR$_NOFILPURG = 00001228            TBLFLG_DLN13     000000AD R     04
SHR$_NOJOBID   = 000011A0            TC1              0000024A R     07
SHR$_NOJOBNAME = 000011A8            TC2              0000034A R     07
SHR$_NOQUEUE   = 00001198            TC3              000003AE R     07
SHR$_NOTCMPLT  = 000011C0            TC4              00000464 R     07
SHR$_NOTCOPIED = 000011B8            TC5              000004BC R     07
SHR$_NOVALUE   = 00001100            TC6              000005C0 R     07
SHR$_NOWILD    = 00001128            TCG_NO         = 00000006
SHR$_OPENIN    = 00001098            TC_CONTROL       00001660 R     07
SHR$_OPENOUT   = 000010A0            TEST_MOD_BEG     00000077 R     03
SHR$_OVERLAY   = 000010A8            TEST_MOD_FAIL    00000088 R     03
SHR$_PARSEFAIL = 00001248            TEST_MOD_NAME    0000006E R     03
SHR$_PURGEVER  = 00001210            TEST_MOD_NAME_D  0000008F R     03
SHR$_READERR   = 000010B0            TEST_MOD_SUCC    0000007D R     03
SHR$_RELCONCAT = 00001140            TMD_ADDR         00000060 R     04
SHR$_REPLACED  = 000010B8            TMN_ADDR         0000005C R     04
SHR$_RMSERROR  = 000011C8            TPID             00000000 R     04
SHR$_SEARCHFAIL= 00001238            TS1              00000618 R     07
SHR$_SYNTAX    = 000010F8            TS2              0000090E R     07
SHR$_SYSERROR  = 000011B0            TS3              00000BC4 R     07
SHR$_SYSERRORPC= 000010F0            TS4              00000D76 R     07
SHR$_TEXT      = 00001130            TS5              00000F07 R     07
SHR$_UNXPCTSTS = 000011D0            TS6              000012B9 R     07
SHR$_VALERR    = 000011E8            TS_EP            00000064 R     04
SHR$_WILDCONCAT= 000010C0            TTNAME           0000009F R     03
SHR$_WILDOUTVER= 000010C8            UETP$_ABORTC   = 0074832B
SHR$_WRITEERR  = 000010D0            UETP$_CONF     = 007480D1
SS$_ACCVIO       ********   X   07   UETP$_DATAER   = 00748010
SS$_IVLOGNAM     ********   X   07   UETP$_DDB      = 007480E1
SS$_IVLOGTAB     ********   X   07   UETP$_DENOSU   = 00748333
SS$_NOLOGNAM     ********   X   07   UETP$_DESTP    = 007481A2
SS$_RESULTOVF    ********   X   07   UETP$_DEUNUS   = 0074819A
STS$V_INHIB_MSG= 0000001C            UETP$_ERBOX    = 00748008
SUCCESS        = 00000001            UETP$_SATSMS   = 007480D9
SYS$CMKRNL       ********   X   07   UETP$_TEXT     = 00741133
SATSSF03        - SATS SYSTEM SERVICE TESTS  (FAILING S.C.)      22-AUG-1978 03:40:12   VAX-11 MACRO X0.3-11               Page  85
PROGRAM SECTION SYNOPSIS                                                                                                         (1)


PROGRAM SECTION SYNOPSIS

.  ABS  .        00000000      00     NOPIC   USR   CON   ABS   LCL NOSHR NOEXE NORD  NOWRT BYTE
. BLANK .        00000000      01     NOPIC   USR   CON   REL   LCL NOSHR   EXE   RD    WRT BYTE
$ABS$            00000000      02     NOPIC   USR   CON   ABS   LCL NOSHR   EXE   RD    WRT BYTE
RODATA           00000260      03     NOPIC   USR   CON   REL   LCL NOSHR NOEXE   RD  NOWRT LONG
RWDATA           000000DD      04     NOPIC   USR   CON   REL   LCL NOSHR NOEXE   RD    WRT BYTE
SATS_ACCVIO_1    00000200      05     NOPIC   USR   CON   REL   LCL NOSHR NOEXE   RD    WRT PAGE
SATS_ACCVIO_2    00000200      06     NOPIC   USR   CON   REL   LCL NOSHR NOEXE   RD    WRT PAGE
SATSSF03         000017A6      07     NOPIC   USR   CON   REL   LCL NOSHR   EXE   RD    WRT LONG


THERE WERE NO ERRORS OR WARNINGS.
5598. BYTES LEFT IN FREE MEMORY POOL.
3242. BYTES OF RECLAIMED MEMORY.
OBJ$:SATSSF03,LIS$:SATSSF03/-SP=EXECML$/ML,LIB$:SYSTST.MLB/ML,SRC$:SATSSF03
50 MLB DIR RDS - 892 GETS TO DEFINE 43 MACROS. 97 INTER. FILE WRITES.
