SATSUT07        SATS SYSTEM SERVICE TESTS                        22-AUG-1978 04:21:59   VAX-11 MACRO X0.3-11               Page   0
TABLE OF CONTENTS

   (1)       2  MACROS, DATA
   (1)      30  EXECUTABLE CODE
SATSUT07        SATS SYSTEM SERVICE TESTS                        22-AUG-1978 04:21:59   VAX-11 MACRO X0.3-11               Page   1
1.0                                                                                                                              (1)

                                     0000     1 	.TITLE	SATSUT07	SATS SYSTEM SERVICE TESTS
                                     0000     2 	.SBTTL	MACROS, DATA
                                     0000     3 	.IDENT	/1.0/
                                     0000     4 	$JPIDEF				; JOB/PROCESS CODE DEFINITIONS
SATSUT07        SATS SYSTEM SERVICE TESTS                        22-AUG-1978 04:21:59   VAX-11 MACRO X0.3-11               Page   2
1.0             MACROS, DATA                                                                                                     (1)

                                 00000000     6 	.PSECT	RWDATA,RD,WRT,NOEXE
                                     0000     7 ;
                                     0000     8 ; THIS IMAGE RUNS IN A PROCESS CREATED BY THE SATSSS61 PROCESS
                                     0000     9 ; FOR THE PURPOSE OF TESTING THE $SCHDWK AND $CANWAK SYSTEM
                                     0000    10 ; SERVICES. ITS BASIC JOB IS TO HIBERNATE. ADDITIONALLY, IT
                                     0000    11 ; INDICATES TO THE CREATOR WHEN IT HAS FALLEN THRU HIBERNATION
                                     0000    12 ; BY SETTING EVENT FLAG 64; IT ALSO WAITS ON EVENT FLAG 65
                                     0000    13 ; BEFORE EXITING (THIS IS REQUIRED TO KEEP THIS PROCESS FROM
                                     0000    14 ; DISAPPEARING WHILE THE CREATOR IS STILL REFERENCING IT
                                     0000    15 ; WITH SYSTEM SERVICES). WHEN THE CREATOR IS FINISHED WITH
                                     0000    16 ; THIS PROCESS, IT SETS EVENT FLAG 65 TO ALLOW IMAGE EXIT
                                     0000    17 ; AND PROCESS DELETION TO OCCUR. AFTER SETTING THE FLAG,
                                     0000    18 ; THE CREATOR READS THIS PROCESS' MAILBOX TO ENSURE THAT
                                     0000    19 ; IT IS, INDEED, DELETED.
                                     0000    20 ;
                                     0000    21 JPILIST:				; $GETJPI ITEM LIST
                               0004  0000    22 		.WORD	4		; PID BUFFER LENGTH
                               0319  0002    23 		.WORD	JPI$_PID	; JPI ITEM CODE FOR PID
                           00000010' 0004    24 		.ADDRESS CREPID		; ADDRESS OF PID BUFFER
                  00000000 00000000  0008    25 		.LONG	0,0		; NEGATE LENGTH RETURN + END OF LIST
                           00000014  0010    26 CREPID:		.BLKL	1		; PID FOR THIS (CREATED) PROCESS
                           00000004  0014    27 CLUSTER:	.LONG	4		; STRING DESCRIPTOR FOR ...
                           00000010' 0018    28 		.ADDRESS CREPID		; ... EVENT FLAG CLUSTER
SATSUT07        SATS SYSTEM SERVICE TESTS                        22-AUG-1978 04:21:59   VAX-11 MACRO X0.3-11               Page   3
1.0             EXECUTABLE CODE                                                                                                  (1)

                                     001C    30 	.SBTTL	EXECUTABLE CODE
                                 00000000    31 	.PSECT	SATSUT07,RD,WRT,EXE
                               0000  0000    32 START:	.WORD	0			; ENTRY MASK
                                     0002    33 SATSUT07:
                                     0002    34 	$GETJPI_S ITMLST=JPILIST	; GET PID FOR USE AS CLUSTER NAME
                                     0019    35 	$ASCEFC_S EFN=#64, NAME=CLUSTER	; ASSOC CLUSTER FOR COMMUNICATION W CREATOR
                                     0030    36 	$HIBER_S			; HIBERNATE ... EXPECT SCHEDULED WAKES
                                     0037    37 	$SETEF_S  EFN=#64		; LET CREATOR KNOW THAT HIBER IS SATISFIED
                                     0044    38 	$WAITFR_S EFN=#65		; HANG AROUND WHILE CREATOR MAKES REFERENCES
                                     0051    39 	$DACEFC_S EFN=#64		; CREATOR IS FINISHED ... CLEAN UP CLUSTER
                                 04  005E    40 	RET				; EXIT IMAGE
                                     005F    41 	.END	START
SATSUT07        SATS SYSTEM SERVICE TESTS                        22-AUG-1978 04:21:59   VAX-11 MACRO X0.3-11               Page   4
SYMBOL TABLE                                                                                                                     (1)

$$T1           = 00000001            JPI$_STATE     = 00000306
BIT...         = 00000103            JPI$_STS       = 00000305
CLUSTER          00000014 R     03   JPI$_TMBU      = 0000030B
CREPID           00000010 R     03   JPI$_TQCNT     = 00000315
GBL...         = 00000000            JPI$_TQLM      = 00000410
JPI$C_ADRTYPE  = 00000001            JPI$_UIC       = 00000304
JPI$C_CTLTYPE  = 00000002            JPI$_USERNAME  = 00000202
JPI$C_LISTEND  = 00000000            JPI$_VIRTPEAK  = 00000200
JPI$C_PCBTYPE  = 00000003            JPI$_VOLUMES   = 00000205
JPI$C_PHDTYPE  = 00000004            JPI$_WSAUTH    = 00000401
JPI$_ACCOUNT   = 00000203            JPI$_WSPEAK    = 00000201
JPI$_APTCNT    = 0000030A            JPI$_WSQUOTA   = 00000402
JPI$_ASTACT    = 00000300            JPI$_WSSIZE    = 00000411
JPI$_ASTCNT    = 0000030E            JPILIST          00000000 R     03
JPI$_ASTEN     = 00000301            SATSUT07         00000002 R     04
JPI$_ASTLM     = 00000409            START            00000000 R     04
JPI$_BIOCNT    = 0000030F            SYS$ASCEFC       ********   X   04
JPI$_BIOLM     = 00000310            SYS$DACEFC       ********   X   04
JPI$_BUFIO     = 0000040C            SYS$GETJPI       ********   X   04
JPI$_BYTCNT    = 00000311            SYS$HIBER        ********   X   04
JPI$_BYTLM     = 0000031A            SYS$SETEF        ********   X   04
JPI$_CPULIM    = 0000040D            SYS$WAITFR       ********   X   04
JPI$_CPUTIM    = 00000407
JPI$_CURPRIV   = 00000400
JPI$_DFPFC     = 00000406
JPI$_DFWSCNT   = 00000403
JPI$_DIOCNT    = 00000312
JPI$_DIOLM     = 00000313
JPI$_DIRIO     = 0000040B
JPI$_EFCS      = 00000317
JPI$_EFCU      = 00000318
JPI$_EFWM      = 00000316
JPI$_EXCVEC    = 00000100
JPI$_FILCNT    = 00000314
JPI$_FILLM     = 0000040F
JPI$_FINALEXC  = 00000101
JPI$_FREP0VA   = 00000404
JPI$_FREP1VA   = 00000405
JPI$_GPGCNT    = 0000030C
JPI$_GRP       = 00000308
JPI$_LASTADR   = 00000102
JPI$_LASTCTL   = 00000207
JPI$_LASTPCB   = 0000031D
JPI$_LASTPHD   = 00000412
JPI$_LOGINTIM  = 00000206
JPI$_MEM       = 00000307
JPI$_OWNER     = 00000303
JPI$_PAGEFLTS  = 0000040A
JPI$_PGFLQUOTA = 0000040E
JPI$_PID       = 00000319
JPI$_PPGCNT    = 0000030D
JPI$_PRCCNT    = 0000031B
JPI$_PRCLM     = 00000408
JPI$_PRCNAM    = 0000031C
JPI$_PRI       = 00000302
JPI$_PRIB      = 00000309
JPI$_PROCPRIV  = 00000204
SATSUT07        SATS SYSTEM SERVICE TESTS                        22-AUG-1978 04:21:59   VAX-11 MACRO X0.3-11               Page   5
PROGRAM SECTION SYNOPSIS                                                                                                         (1)


PROGRAM SECTION SYNOPSIS

.  ABS  .        00000000      00     NOPIC   USR   CON   ABS   LCL NOSHR NOEXE NORD  NOWRT BYTE
. BLANK .        00000000      01     NOPIC   USR   CON   REL   LCL NOSHR   EXE   RD    WRT BYTE
$ABS$            00000000      02     NOPIC   USR   CON   ABS   LCL NOSHR   EXE   RD    WRT BYTE
RWDATA           0000001C      03     NOPIC   USR   CON   REL   LCL NOSHR NOEXE   RD    WRT BYTE
SATSUT07         0000005F      04     NOPIC   USR   CON   REL   LCL NOSHR   EXE   RD    WRT BYTE


THERE WERE NO ERRORS OR WARNINGS.
23714. BYTES LEFT IN FREE MEMORY POOL.
1080. BYTES OF RECLAIMED MEMORY.
OBJ$:SATSUT07,LIS$:SATSUT07/-SP=EXECML$/ML,LIB$:SYSTST.MLB/ML,SRC$:SATSUT07
32 MLB DIR RDS - 187 GETS TO DEFINE 15 MACROS. 9 INTER. FILE WRITES.
