SATSSF12        - SATS SYSTEM SERVICE TESTS  (FAILING S.C.)      22-AUG-1978 03:51:52   VAX-11 MACRO X0.3-11               Page   0
TABLE OF CONTENTS

   (1)      46  DECLARATIONS
   (1)     210  SATSSF12
   (1)     297  SFERG10
   (1)     320  SFERG11
   (1)     343  SFERG12
   (1)     366  SFERG20
   (1)     388  SFERG21
   (1)     411  SFERG22
   (1)     435  SFERG23
   (1)     458  SFERG24
   (1)     481
   (1)     485  SFCRG10
   (1)     508  SFCRG11
   (1)     531  SFCRG12
   (1)     554  SFCRG13
   (1)     580  SFCRG20
   (1)     605  SFCRG21
   (1)     628  SFCRG22
   (1)     651  SFCRG23
   (1)     674  SFCRG24
   (1)     697
   (1)     701  SFSPT10
   (1)     728  SFSPT11
   (1)     753  SFSPT12
   (1)     776  SFSPT13
   (1)     798  SFSPT14
   (1)     820  SFSPT20
   (1)     842  SFSPT21
   (1)     864  SFSPT22
   (1)     887  SFSPT40
   (1)     909  SFSPT41
   (1)     931  SFSPT50
   (1)     953  SFSPT51
   (1)     975
   (1)     979  SFSSM10
   (1)    1003
   (1)    1092  EXECUTE & CLEANUP
   (1)    1104  TC_CONTROL
   (1)    1185  SUBROUTINES
SATSSF12        - SATS SYSTEM SERVICE TESTS  (FAILING S.C.)      22-AUG-1978 03:51:52   VAX-11 MACRO X0.3-11               Page   1
1.0                                                                                                                              (1)

                                     0000     1 	.TITLE	SATSSF12 - SATS SYSTEM SERVICE TESTS  (FAILING S.C.)
                                     0000     2 	.IDENT	/1.0/
                                     0000     3
                                     0000     4 ;
                                     0000     5 ;			  COPYRIGHT (c) 1977,1978 BY
                                     0000     6 ;	      DIGITAL EQUIPMENT CORPORATION, MAYNARD, MASS.
                                     0000     7 ;
                                     0000     8 ; THIS SOFTWARE IS FURNISHED UNDER A LICENSE AND MAY BE USED AND  COPIED
                                     0000     9 ; ONLY  IN  ACCORDANCE  WITH  THE  TERMS  OF  SUCH  LICENSE AND WITH THE
                                     0000    10 ; INCLUSION OF THE ABOVE COPYRIGHT NOTICE.  THIS SOFTWARE OR  ANY  OTHER
                                     0000    11 ; COPIES  THEREOF MAY NOT BE PROVIDED OR OTHERWISE MADE AVAILABLE TO ANY
                                     0000    12 ; OTHER PERSON.  NO TITLE TO AND OWNERSHIP OF  THE  SOFTWARE  IS  HEREBY
                                     0000    13 ; TRANSFERRED.
                                     0000    14 ;
                                     0000    15 ; THE INFORMATION IN THIS SOFTWARE IS SUBJECT TO CHANGE  WITHOUT  NOTICE
                                     0000    16 ; AND  SHOULD  NOT  BE  CONSTRUED  AS  A COMMITMENT BY DIGITAL EQUIPMENT
                                     0000    17 ; CORPORATION.
                                     0000    18 ;
                                     0000    19 ; DIGITAL ASSUMES NO RESPONSIBILITY FOR THE USE OR  RELIABILITY  OF  ITS
                                     0000    20 ; SOFTWARE ON EQUIPMENT WHICH IS NOT SUPPLIED BY DIGITAL.
                                     0000    21 ;
                                     0000    22
                                     0000    23 ;++
                                     0000    24 ; FACILITY:	SATS SYSTEM SERVICE TESTS
                                     0000    25 ;
                                     0000    26 ; ABSTRACT:	THE SATSSF12 MODULE TESTS THE EXECUTION OF CERTAIN
                                     0000    27 ; VMS SYSTEM SERVICES, INVOKED IN SUCH A WAY AS TO EXPECT FAILING
                                     0000    28 ; STATUS CODES. THE SYSTEM SERVICES TESTED AND THE STATUS CODES
                                     0000    29 ; EXPECTED ARE SUMMARIZED AS ARGUMENTS TO THE TESTSERV MACROS
                                     0000    30 ; WHICH APPEAR NEAR THE END OF THIS LISTING. SUCCESSFUL STATUS
                                     0000    31 ; CODES ARE TESTED IN OTHER MODULES.
                                     0000    32 ;
                                     0000    33 ;
                                     0000    34 ; ENVIRONMENT:	USER MODE IMAGE; NEEDS CMKRNL PRIVILEGE,
                                     0000    35 ;		DYNAMICALLY ACQUIRES OTHER PRIVILEGES, AS NEEDED.
                                     0000    36 ;
                                     0000    37 ; AUTHOR: THOMAS L. CAFARELLA,		CREATION DATE: MMM, 1978
                                     0000    38 ;	  PAUL D. FAY (DISPSERV & TESTSERV MACROS)
                                     0000    39 ;
                                     0000    40 ; MODIFIED BY:
                                     0000    41 ;
                                     0000    42 ;	, : VERSION
                                     0000    43 ; 01	-
                                     0000    44 ;--
SATSSF12        - SATS SYSTEM SERVICE TESTS  (FAILING S.C.)      22-AUG-1978 03:51:52   VAX-11 MACRO X0.3-11               Page   2
1.0             DECLARATIONS                                                                                                     (1)

                                     0000    46 	.SBTTL	DECLARATIONS
                                     0000    47 ;
                                     0000    48 ; INCLUDE FILES:
                                     0000    49 ;
                                     0000    50 	$PHDDEF				; PROCESS HEADER OFFSET SYMBOLS
                                     0000    51 	$PCBDEF				; PROCESS CONTROL BLOCK OFFSET SYMBS
                                     0000    52 	$STSDEF				; STATUS MESSAGE SYMBOLS
                           00000003  0000    53 	.MDELETE ($PHDDEF,$PCBDEF,$STSDEF) ; GET RID OF MACRO DEFINITIONS
                                     0000    54 	$PRVDEF				; SYMBOL DEFS FOR PRIVILEGES
                                     0000    55 	$UETPDEF			; UETP MSG CODE DEFINITIONS
                                     0000    56 	$SHR_MESSAGES UETP,116,<<TEXT,INFO>>
                                     0000    57 					; DEFINE UETP$_TEXT
                           00000004  0000    58 	.MDELETE ($PRVDEF,$UETPDEF,$SHR_MESSAGES,$SHRDEF)
                                     0000    59 					; GET RID OF MACRO DEFINITIONS
                                     0000    60 	$PSLDEF				; ACCESS MODE SYMBOLS
                                     0000    61 ;
                                     0000    62 ; MACROS:
                                     0000    63 ;
                                     0000    64 ;
                                     0000    65 ; EQUATED SYMBOLS:
                                     0000    66 ;
                           00000000  0000    67 WARNING		= 0			; WARNING SEVERITY VALUE FOR MSGS
                           00000001  0000    68 SUCCESS		= 1			; SUCCESS SEVERITY VALUE FOR MSGS
                           00000002  0000    69 ERROR		= 2			; ERROR SEVERITY VALUE FOR MSGS
                           00000003  0000    70 INFO		= 3			; INFORMATIONAL SEV VALUE FOR MSGS
                           00000004  0000    71 SEVERE		= 4			; SEVERE (FATAL) SEV VALUE FOR MSGS
                           00000000  0000    72 TCG_NO		=  0			; INITIALIZE TEST CASE GROUP NUMBER
                           00000000  0000    73 GRP_TOTAL	=  0			; INITIALIZE TEST CASE GROUP TOTAL
                           00007FFF  0000    74 R0_THRU_SP	= ^M<R0,R1,R2,R3,R4,R5,R6,R7,R8,R9,R10,R11,AP,FP,SP>
                           00000001  0000    75 RETADR_ERG20	= 1			; RETADR ARG FOR EXPREG (LOCATION 1)
                           00000001  0000    76 RETADR_CRG20	= 1			; RETADR ARG FOR CNTREG (LOCATION 1)
                           00000000  0000    77 INADR_SPT13	= 0			; INADR ARG FOR SETPRT (LOCATION 0)
                           00000001  0000    78 RETADR_SPT20	= 1			; RETADR ARG FOR SETPRT (LOCATION 1)
                           00000001  0000    79 PRVPRT_SPT50	= 1			; PRVPRT ARG FOR SETPRT (LOCATION 1)
                                     0000    80 ;
                                     0000    81 ; OWN STORAGE:
                                     0000    82 ;
SATSSF12        - SATS SYSTEM SERVICE TESTS  (FAILING S.C.)      22-AUG-1978 03:51:52   VAX-11 MACRO X0.3-11               Page   3
1.0             DECLARATIONS                                                                                                     (1)

                                 00000000    84 	.PSECT	RODATA,RD,NOWRT,NOEXE,LONG
                                     0000    85 REG_COMP_MASK:	.WORD	^M<R2,R3,R4,R5,R6,R7,R8,R9,R10,R11,AP,FP> ! ^X8000 -
                               BFFC  0000    86 					; REG COMPARE MASK (HIGH-ORDER ...
                                     0002    87 					; ... BIT MUST BE ON
                                     0002    88 ERR_MSG_FAOCTL:	STRING	I,<!/!AC!1ZB!1ZB: REGISTER !2UW CONTENTS ALTERED>, -
                                     0002    89 		<;  BEFORE SERVICE CALL: !8XL   AFTER SERVICE CALL: !8XL>
                                     006E    90 TEST_MOD_NAME:	STRING	C,<SATSSF12>	; TEST MODULE NAME
                                     0077    91 TEST_MOD_BEG:	STRING	C,<begun>	; DISPOSITION FIELD OF TEST MOD MSG
                                     007D    92 TEST_MOD_SUCC:	STRING	C,<successful>	; DISPOSITION FIELD OF TEST MOD MSG
                                     0088    93 TEST_MOD_FAIL:	STRING	C,<failed>	; DISPOSITION FIELD OF TEST MOD MSG
                                     008F    94 TEST_MOD_NAME_D: STRING	I,<SATSSF12>	; TEST MODULE NAME DESCRIPTOR
                                     009F    95 TTNAME:     	STRING  I,<TT>		; TERMINAL LOGICAL NAME
                  00000000'00000000' 00A9    96 INADR:		.LONG	NOACCESS,NOACCESS ; PAGE ADDRESS OF NOACCESS PSECT
                           00000000' 00B1    97 PROT:		.LONG	PRT$C_NA	; PROTECTION CODE FOR NOACCESS PSECT
                  FFFFFFFF FFFFFFFF  00B5    98 ONES:		.LONG	-1,-1		; A QUADWORD OF 1-BITS
                           00000002  00BD    99 PAGCNT_ERG:	.LONG	2		; PAGCNT ARGUMENT FOR EXPREG
                           000000C9  00C1   100 RETADR_ERG21:	.BLKL	2		; RETADR ARGUMENT FOR EXPREG
                                     00C9   101 ACMODE_ERG:				; ACMODE ARGUMENT FOR EXPREG
                                     00C9   102 ACMODE_CRG:				; ACMODE ARGUMENT FOR CNTREG
                                     00C9   103 ACMODE_SPT:				; ACMODE ARGUMENT FOR SETPRT
                           00000003  00C9   104 		.LONG	PSL$C_USER
                                     00CD   105 REGION_ERG:				; REGION ARG FOR EXPREG (PGM REGION)
                                     00CD   106 REGION_CRG:				; REGION ARG FOR CNTREG (PGM REGION)
                           00000000  00CD   107 		.LONG	0
                           00000001  00D1   108 PAGCNT_CRG:	.LONG	1		; PAGCNT ARGUMENT FOR CNTREG
                           00000001  00D5   109 PAGCNT_CRG13:	.LONG	1		; PAGCNT ARGUMENT FOR CNTREG
                           000000E1  00D9   110 RETADR_CRG21:	.BLKL	2		; RETADR ARGUMENT FOR CNTREG
                           80000000' 00E1   111 INADR_SPT11:	.ADDRESS ^X80000000	; INADR ARGUMENT FOR SETPRT
                           8F000000' 00E5   112 		.ADDRESS ^X8F000000	; .......
                           000000F1  00E9   113 RETADR_SPT21:	.BLKL	2		; RETADR ARGUMENT FOR SETPRT
                           00000000' 00F1   114 PROT_SPT:	.LONG	PRT$C_UW	; PROT ARGUMENT FOR SETPRT
                           00000000' 00F5   115 PROT_SPT40:	.LONG	PRT$C_RESERVED	; PROT ARG (CODE 1 -- NO ACCESS) FOR SETPRT
                           00000010  00F9   116 PROT_SPT41:	.LONG	16		; PROT ARGUMENT FOR SETPRT
                           000000FE  00FD   117 PRVPRT_SPT51:	.BLKB	1		; PRVPRT ARGUMENT FOR SETPRT
                           00000000  00FE   118 SWPFLG_SSM:	.LONG	0		; SWPFLG ARGUMENT FOR SETSWM
                           00000001  0102   119 SWPFLG_SSM10:	.LONG	1		; SWPFLG ARGUMENT FOR SETSWM
SATSSF12        - SATS SYSTEM SERVICE TESTS  (FAILING S.C.)      22-AUG-1978 03:51:52   VAX-11 MACRO X0.3-11               Page   4
1.0             DECLARATIONS                                                                                                     (1)

                                 00000000   121 	.PSECT	RWDATA,RD,WRT,NOEXE
                           00000004  0000   122 TPID:		.BLKL	1		; PROCESS ID FOR THIS PROCESS
                           00000008  0004   123 CURRENT_TC:	.BLKL	1 		; PTR TO CURRENT TEST CASE
                           00000044  0008   124 REG_SAVE_AREA:	.BLKL	15		; SAVE AREA FOR ALL REGS (SANS PC)
                           007480D9  0044   125 MOD_MSG_CODE:	.LONG	UETP$_SATSMS	; TEST MODULE MSG CODE FOR PUTMSG
                           0000004C  0048   126 CLOB_REG_NO:	.BLKL	1		; CLOBBERED REG NO (FOR FAO ERR MSG)
                           00000050  004C   127 REG_BEFORE_SS:	.BLKL	1		; REG CONTENTS BEFORE S.S.
                                     0050   128 					; ... (FOR FAO ERROR MSG)
                           00000054  0050   129 REG_AFTER_SS:	.BLKL	1		; REG CONTENTS AFTER S.S.
                                     0054   130 					; ... (FOR FAO ERROR MSG)
                                     0054   131 $$TSTN$$:	STRING	C,<  SF   >	; ASCII PORTION OF TEST CASE NAME
                           0000006E' 005C   132 TMN_ADDR:	.ADDRESS TEST_MOD_NAME	; ADDR OF TEST MOD NAME FOR FAO
                           00000077' 0060   133 TMD_ADDR:	.ADDRESS TEST_MOD_BEG	; ADDR OF T.M. DISP FIELD FOR FAO
                           00000068  0064   134 TS_EP:		.BLKL	1		; ENTRY PNT FOR CURR TESTSERV MACRO
                           00000070  0068   135 RETADR:		.BLKL	2		; RETURN LONGWORDS FOR SETPRT
                           00000071  0070   136 PRVPRT:		.BLKB	1		; PROT RETURN BYTE FOR SETPRT
                           00000079  0071   137 PRIVMASK:	.BLKQ	1		; ADDR OF PRIVILEGE MASK (IN PHD)
                           0000007D  0079   138 CHM_CONT:	.BLKL	1		; CHANGE MODE CONTINUE ADDRESS
                           00000091  007D   139 REGS:		.BLKL	5		; AREA FOR COND INDEX REGS (R2-R6)
                                     0091   140 PAGCNT_ERG10:				; PAGCNT ARGUMENT FOR EXPREG
                                     0091   141 PAGCNT_ERG11:				; PAGCNT ARGUMENT FOR EXPREG
                                     0091   142 PAGCNT_ERG12:				; PAGCNT ARGUMENT FOR EXPREG
                                     0091   143 PAGCNT_CRG10:				; PAGCNT ARGUMENT FOR CNTREG
                                     0091   144 PAGCNT_CRG11:				; PAGCNT ARGUMENT FOR CNTREG
                                     0091   145 PAGCNT_CRG12:				; PAGCNT ARGUMENT FOR CNTREG
                           00000095  0091   146 		.BLKL	1
                  00000000 00000000  0095   147 RETADR_ERG:	.LONG	0,0		; RETADR ARGUMENT FOR EXPREG
                  00000000 00000000  009D   148 RETADR_CRG:	.LONG	0,0		; RETADR ARGUMENT FOR CNTREG
                           000000AD  00A5   149 RETADR_CRG13:	.BLKL	2		; RETADR ARG FOR NON-SUBJECT EXPREG
                           000000B5  00AD   150 INADR_SPT:	.BLKL	2		; INADR ARGUMENT FOR SETPRT SERVICE
                           000000BD  00B5   151 INADR_SPT10:	.BLKL	2		; INADR ARGUMENT FOR SETPRT SERVICE
                           000000C5  00BD   152 EXP_RANGE:	.BLKQ	1		; EXPREG RANGE FOR SFPRT10
                           000000CD  00C5   153 INADR_SPT12:	.BLKL	2		; INADR ARGUMENT FOR SETPRT SERVICE
                           000000D5  00CD   154 RETADR_SPT:	.BLKL	2		; RETADR ARGUMENT FOR SETPRT SERVICE
                           000000D6  00D5   155 PRVPRT_SPT:	.BLKB	1		; PRVPRT ARGUMENT FOR SETPRT
SATSSF12        - SATS SYSTEM SERVICE TESTS  (FAILING S.C.)      22-AUG-1978 03:51:52   VAX-11 MACRO X0.3-11               Page   5
1.0             DECLARATIONS                                                                                                     (1)

                                 00000000   157 	.PSECT	SATS_ACCVIO_1,RD,WRT,NOEXE,PAGE
                           00000200  0000   158 EMPTY:		.BLKB	512	; RESERVE A PAGE OF SPACE
                                     0200   159 ;
                                     0200   160 ; +
                                     0200   161 ; ******************************************************************
                                     0200   162 ; *                                                                *
                                     0200   163 ; * 	THE ORDER OF STATEMENTS IN THIS PSECT IS CRITICAL.         *
                                     0200   164 ; *	DO NOT RE-ARRANGE THE VARIABLES. CONSULT SATS              *
                                     0200   165 ; *	FUNCTIONAL SPECIFICATION FOR A DESCRIPTION OF THE USE      *
                                     0200   166 ; *	OF THE EMPTY PSECT (AND ITS COMPANION PSECT, NOACCESS).    *
                                     0200   167 ; *                                                                *
                                     0200   168 ; ******************************************************************
                                     0200   169 ; -
                                     0200   170 ;
                                     0200   171 ; TYPE AAAAA_SSSX1 (TYPE AAAAA_SSSX2 IF NOT DESC) GO HERE:
                           000001FC  0200   172 RETADR_ERG22	= . - 4		; RETADR ARGUMENT FOR EXPREG
                           000001FF  0200   173 RETADR_ERG23	= . - 1		; RETADR ARG FOR EXPREG (LAST BYTE IN PAGE)
                           000001F9  0200   174 RETADR_ERG24	= . - 7		; RETADR ARGUMENT FOR EXPREG
                           000001FC  0200   175 RETADR_CRG22	= . - 4		; RETADR ARGUMENT FOR CNTREG
                           000001FF  0200   176 RETADR_CRG23	= . - 1		; RETADR ARG FOR CNTREG (LAST BYTE IN PAGE)
                           000001F9  0200   177 RETADR_CRG24	= . - 7		; RETADR ARGUMENT FOR CNTREG
                           000001F9  0200   178 RETADR_SPT22	= . - 7			; RETADR ARGUMENT FOR SETPRT
                           000001F3  0200   179 		. = . - 13	; ALLOW ROOM FOR STRING DESCRIPTOR
                                     01F3   180 ; TYPE AAAAA_SSSX5 GO HERE:
                           00000006  01F3   181 		.LONG	6	; STRING LENGTH (WILL CROSS PSECT BOUNDARY)
                           000001FB' 01F7   182 		.ADDRESS .+4	; STRING ADDRESS
                                     01FB   183 ; TYPE AAAAA_SSSX3 GO HERE:
                           000001FC  01FB   184 		.BLKB	1	; LOW-ORDER BYTE OF STRING LENGTH
                                     01FC   185 ; TYPE AAAAA_SSSX2 GO HERE:
                           00000200  01FC   186 		.BLKL	1	; STRING LENGTH
                                     0200   187 ;
                                     0200   188 ;
                                     0200   189 ;
                                     0200   190 ;
                                 00000000   191 	.PSECT	SATS_ACCVIO_2,RD,WRT,NOEXE,PAGE
                           00000200  0000   192 NOACCESS:	.BLKB	512	; RESERVE A PAGE OF SPACE
                           00000000  0200   193 		. = . - 512	; RETURN LOC CTR TO BEGINNING OF PSECT
                           00000000' 0000   194 		.ADDRESS EMPTY	; ADDRESS OF ACCESSIBLE STRING
                           00000000' 0004   195 		.ADDRESS EMPTY/^X100 ; ADDRESS OF ACCESSIBLE STRING
                                     0008   196 ;+
                                     0008   197 ; *** NOTE -- DO NOT CHANGE LOCATION OR SEQUENCE OF ABOVE STATEMENTS!
                                     0008   198 ; ***         THIS PSECT (NOACCESS) MUST APPEAR IN MEMORY IMMEDIATELY
                                     0008   199 ; ***         FOLLOWING THE EMPTY PSECT. PSECT NAMES AND OPTIONS WILL BE
                                     0008   200 ; ***         CHOSEN TO FORCE THE DESIRED PSECT ORDERING.
                                     0008   201 ;-
                                     0008   202 ;
                           00000010  0008   203 INADR_SPT14:	.BLKL	2		; INADR ARGUMENT FOR SETPRT
                                     0010   204 ;
                                     0010   205 ;
                                     0010   206 ;
                           00000001  0010   207 	.MDELETE (STRING)		; NO LONGER NEED MACRO DEFINITION
                                 00000000   208 	.PSECT	SATSSF12,RD,WRT,EXE,LONG
SATSSF12        - SATS SYSTEM SERVICE TESTS  (FAILING S.C.)      22-AUG-1978 03:51:52   VAX-11 MACRO X0.3-11               Page   6
1.0             SATSSF12                                                                                                         (1)

                                     0000   210 	.SBTTL	SATSSF12
                                     0000   211 ;++
                                     0000   212 ; FUNCTIONAL DESCRIPTION:
                                     0000   213 ;
                                     0000   214 ;		AFTER PERFORMING SOME INITIAL HOUSEKEEPING, SUCH AS
                                     0000   215 ; PRINTING THE MODULE BEGIN MESSAGE AND ACQUIRING ALL PRIVILEGES,
                                     0000   216 ; THE SATSSF12 ROUTINE EXECUTES THE TEST_SERV_EXEC MACRO TO RUN
                                     0000   217 ; ALL TEST CASES. WHEN THE MACRO COMPLETES ITS EXECUTION, SATSSF12
                                     0000   218 ; PRINTS A TEST MODULE SUCCESS OR FAIL MESSAGE AND EXITS TO THE
                                     0000   219 ; OPERATING SYSTEM. TEST_SERV_EXEC CALLS THE TC_CONTROL/TESTSERV
                                     0000   220 ; CO-ROUTINE PAIR ONCE PER TEST CASE GROUP TO EXECUTE ALL TEST
                                     0000   221 ; CASES IN THAT GROUP. EACH TEST CASE GROUP IS DEFINED BY BOUNDING
                                     0000   222 ; ITS TEST CASES WITH A TC_GROUP MACRO BEFORE THE FIRST TEST CASE
                                     0000   223 ; AND A TCEND MACRO AFTER THE LAST ONE. THE TEST CASES THEMSELVES
                                     0000   224 ; ARE DEFINED WITHIN THESE BOUNDS BY PRECEDING EACH WITH A
                                     0000   225 ; NEXT_TEST_CASE MACRO. TC_CONTROL/TESTSERV EXECUTES THE CODE
                                     0000   226 ; FOLLOWING EACH NEXT_TEST_CASE MACRO IMMEDIATELY BEFORE ISSUING
                                     0000   227 ; THE SYSTEM SERVICE AS REQUESTED IN THE TESTSERV MACRO. TC_CONTROL/
                                     0000   228 ; TESTSERV ALSO CHECKS THE RESULTS OF THE SERVICE WITH RESPECT
                                     0000   229 ; TO ITS EXPECTED STATUS CODE AND PRINTS ANY REQUIRED FAILURE
                                     0000   230 ; MESSAGES FOR THE TEST CASE. THE CODE APPEARING AFTER EACH
                                     0000   231 ; NEXT_TEST_CASE MACRO IS MERELY TO SET UP CONDITIONS REQUIRED
                                     0000   232 ; FOR THE SYSTEM SERVICE AND TO CLEAN UP ANY RESOURCES ACQUIRED
                                     0000   233 ; BY THE PREVIOUS TEST CASE.
                                     0000   234 ;
                                     0000   235 ; CALLING SEQUENCE:
                                     0000   236 ;
                                     0000   237 ;	$ RUN SATSSF12  ...  (DCL COMMAND)
                                     0000   238 ;
                                     0000   239 ; INPUT PARAMETERS:
                                     0000   240 ;
                                     0000   241 ;	NONE
                                     0000   242 ;
                                     0000   243 ; IMPLICIT INPUTS:
                                     0000   244 ;
                                     0000   245 ;	NONE
                                     0000   246 ;
                                     0000   247 ; OUTPUT PARAMETERS:
                                     0000   248 ;
                                     0000   249 ;	NONE
                                     0000   250 ;
                                     0000   251 ; IMPLICIT OUTPUTS:
                                     0000   252 ;
                                     0000   253 ;	MESSAGES TO SYS$OUTPUT ARE THE ONLY OUTPUT FROM SATSSF12.
                                     0000   254 ;	THEY ARE OF THE FORM:
                                     0000   255 ;
                                     0000   256 ;		%UETP-S-SATSMS, TEST MODULE SATSSF12 BEGUN ... (BEGIN MSG)
                                     0000   257 ;		%UETP-S-SATSMS, TEST MODULE SATSSF12 SUCCESSFUL ... (END MSG)
                                     0000   258 ;		%UETP-E-SATSMS, TEST MODULE SATSSF12 FAILED ... (END MSG)
                                     0000   259 ;		%UETP-I-TEXT, ... (VARIABLE INFORMATION ABOUT A TEST MODULE FAILURE)
                                     0000   260 ;
                                     0000   261 ; COMPLETION CODES:
                                     0000   262 ;
                                     0000   263 ;	THE SATSSF12 ROUTINE TERMINATES WITH A $EXIT TO THE
                                     0000   264 ;	OPERATING SYSTEM WITH A STATUS CODE DEFINED BY UETP$_SATSMS.
                                     0000   265 ;
                                     0000   266 ; SIDE EFFECTS:
SATSSF12        - SATS SYSTEM SERVICE TESTS  (FAILING S.C.)      22-AUG-1978 03:51:52   VAX-11 MACRO X0.3-11               Page   7
1.0             SATSSF12                                                                                                         (1)

                                     0000   267 ;
                                     0000   268 ;	NONE
                                     0000   269 ;
                                     0000   270 ;--
                                     0000   271
                                     0000   272
                                     0000   273
                                     0000   274 SATSSF12:
                               0FFC  0000   275 	.WORD	^M<R2,R3,R4,R5,R6,R7,R8,R9,R10,R11>
                                     0002   276 					; ENTRY MASK
                                     0002   277 	$WAKE_S  TPID			; GET PID OF THIS PROCESS
                                     0011   278 	$HIBER_S			; UNDO WAKE
                                     0018   279 	$SETPRN_S TEST_MOD_NAME_D 	; SET PROCESS NAME
                          1085   30  0025   280 	BSBW	MOD_MSG_PRINT		; PRINT TEST MODULE BEGIN MSG
   00000060'EF   0000007D'EF     DE  0028   281 	MOVAL	TEST_MOD_SUCC,TMD_ADDR	; ASSUME END MSG WILL SHOW SUCCESS
            00            01     F0  0033   282 	INSV	#SUCCESS,#0,#3,MOD_MSG_CODE ; ADJUST STATUS CODE FOR SUCCESS
   00000044'EF            03         0036
                                     003C   283 	MODE	TO,10$,KRNL,NOREGS 	; KERNEL MODE TO ACCESS PHD
            59   00000000'9F     D0  0059   284 	MOVL	@#CTL$GL_PHD,R9		; GET PROCESS HEADER ADDRESS
   00000071'EF            69     DE  0060   285 	MOVAL	PHD$Q_PRIVMSK(R9),PRIVMASK ; GET PRIV MASK ADDRESS
                                     0067   286 	MODE	FROM,10$		; GET BACK TO USER MODE
                                     0068   287 	PRIV	ADD,ALL			; GET ALL PRIVILEGES
                                     0091   288 	DISPSERV			; SET UP DISPLAY INFO FOR TESTSERV
                                     0226   289 	$SETPRT_S INADR=INADR, RETADR=RETADR, -
                                     0226   290 		  PROT=PROT, PRVPRT=PRVPRT
                                     0247   291 					; SET NOACCESS PSECT ...
                                     0247   292 					; ... FOR NO USER ACCESS
                          0D00   31  0247   293 	BRW	EXECUTE			; GO EXECUTE ALL TEST CASES
                                     024A   294 ;
                                     024A   295 	TC_GROUP	ERG,1,TS1
                                     0271   296 ;
                                     0271   297 	NEXT_TEST_CASE	SFERG10
SATSSF12        - SATS SYSTEM SERVICE TESTS  (FAILING S.C.)      22-AUG-1978 03:51:52   VAX-11 MACRO X0.3-11               Page   8
1.0             SFERG10                                                                                                          (1)

                                     0271   298 ;
                                     0271   299 ;++
                                     0271   300 ; ******************************************************
                                     0271   301 ; *
                                     0271   302 ; *  TEST CASE NAME:		SFERG10
                                     0271   303 ; *
                                     0271   304 ; *  SYSTEM SERVICE:		EXPREG
                                     0271   305 ; *
                                     0271   306 ; *  ARGUMENT UNDER TEST: 	PAGCNT_ERG10
                                     0271   307 ; *
                                     0271   308 ; *  INPUT CONDITIONS:
                                     0271   309 ; *	ILLEGAL PAGE COUNT (ZERO)
                                     0271   310 ; *
                                     0271   311 ; *  EXPECTED RESULTS:
                                     0271   312 ; *	1) SYSTEM STATUS CODE:	ILLPAGCNT
                                     0271   313 ; *	2) REGISTERS R2 THROUGH FP UNCHANGED
                                     0271   314 ; *
                                     0271   315 ; ******************************************************
                                     0271   316 ;--
                                     0271   317 ;
                 00000091'EF     D4  0271   318 	CLRL	PAGCNT_ERG10		; CLEAR PAGE COUNT
                                     0277   319 ;
                                     0277   320 	NEXT_TEST_CASE	SFERG11
SATSSF12        - SATS SYSTEM SERVICE TESTS  (FAILING S.C.)      22-AUG-1978 03:51:52   VAX-11 MACRO X0.3-11               Page   9
1.0             SFERG11                                                                                                          (1)

                                     0283   321 ;
                                     0283   322 ;++
                                     0283   323 ; ******************************************************
                                     0283   324 ; *
                                     0283   325 ; *  TEST CASE NAME:		SFERG11
                                     0283   326 ; *
                                     0283   327 ; *  SYSTEM SERVICE:		EXPREG
                                     0283   328 ; *
                                     0283   329 ; *  ARGUMENT UNDER TEST: 	PAGCNT_ERG11
                                     0283   330 ; *
                                     0283   331 ; *  INPUT CONDITIONS:
                                     0283   332 ; *	ILLEGAL PAGE COUNT (NEGATIVE)
                                     0283   333 ; *
                                     0283   334 ; *  EXPECTED RESULTS:
                                     0283   335 ; *	1) SYSTEM STATUS CODE:	ILLPAGCNT
                                     0283   336 ; *	2) REGISTERS R2 THROUGH FP UNCHANGED
                                     0283   337 ; *
                                     0283   338 ; ******************************************************
                                     0283   339 ;--
                                     0283   340 ;
   00000091'EF         FF 8F     98  0283   341 	CVTBL	#-1,PAGCNT_ERG11	; ASK FOR -1 PAGES
                                     028B   342 ;
                                     028B   343 	NEXT_TEST_CASE	SFERG12
SATSSF12        - SATS SYSTEM SERVICE TESTS  (FAILING S.C.)      22-AUG-1978 03:51:52   VAX-11 MACRO X0.3-11               Page  10
1.0             SFERG12                                                                                                          (1)

                                     0297   344 ;
                                     0297   345 ;++
                                     0297   346 ; ******************************************************
                                     0297   347 ; *
                                     0297   348 ; *  TEST CASE NAME:		SFERG12
                                     0297   349 ; *
                                     0297   350 ; *  SYSTEM SERVICE:		EXPREG
                                     0297   351 ; *
                                     0297   352 ; *  ARGUMENT UNDER TEST: 	PAGCNT_ERG12
                                     0297   353 ; *
                                     0297   354 ; *  INPUT CONDITIONS:
                                     0297   355 ; *	ILLEGAL PAGE COUNT (NEGATIVE)
                                     0297   356 ; *
                                     0297   357 ; *  EXPECTED RESULTS:
                                     0297   358 ; *	1) SYSTEM STATUS CODE:	ILLPAGCNT
                                     0297   359 ; *	2) REGISTERS R2 THROUGH FP UNCHANGED
                                     0297   360 ; *
                                     0297   361 ; ******************************************************
                                     0297   362 ;--
                                     0297   363 ;
   00000091'EF   FFFE7960 8F     D0  0297   364 	MOVL	#-100000,PAGCNT_ERG12	; ASK FOR LARGE NEG NUMBER OF PAGES
                                     02A2   365 ;
                                     02A2   366 	NEXT_TEST_CASE	SFERG20
SATSSF12        - SATS SYSTEM SERVICE TESTS  (FAILING S.C.)      22-AUG-1978 03:51:52   VAX-11 MACRO X0.3-11               Page  11
1.0             SFERG20                                                                                                          (1)

                                     02AE   367 ;
                                     02AE   368 ;++
                                     02AE   369 ; ******************************************************
                                     02AE   370 ; *
                                     02AE   371 ; *  TEST CASE NAME:		SFERG20
                                     02AE   372 ; *
                                     02AE   373 ; *  SYSTEM SERVICE:		EXPREG
                                     02AE   374 ; *
                                     02AE   375 ; *  ARGUMENT UNDER TEST: 	RETADR_ERG20
                                     02AE   376 ; *
                                     02AE   377 ; *  INPUT CONDITIONS:
                                     02AE   378 ; *	RETURN ADDRESS FIELD AT LOCATION 1.
                                     02AE   379 ; *
                                     02AE   380 ; *  EXPECTED RESULTS:
                                     02AE   381 ; *	1) SYSTEM STATUS CODE:	ACCVIO
                                     02AE   382 ; *	2) REGISTERS R2 THROUGH FP UNCHANGED
                                     02AE   383 ; *
                                     02AE   384 ; ******************************************************
                                     02AE   385 ;--
                                     02AE   386 ;
                                     02AE   387 ;
                                     02AE   388 	NEXT_TEST_CASE	SFERG21
SATSSF12        - SATS SYSTEM SERVICE TESTS  (FAILING S.C.)      22-AUG-1978 03:51:52   VAX-11 MACRO X0.3-11               Page  12
1.0             SFERG21                                                                                                          (1)

                                     02BA   389 ;
                                     02BA   390 ;++
                                     02BA   391 ; ******************************************************
                                     02BA   392 ; *
                                     02BA   393 ; *  TEST CASE NAME:		SFERG21
                                     02BA   394 ; *
                                     02BA   395 ; *  SYSTEM SERVICE:		EXPREG
                                     02BA   396 ; *
                                     02BA   397 ; *  ARGUMENT UNDER TEST: 	RETADR_ERG21
                                     02BA   398 ; *
                                     02BA   399 ; *  INPUT CONDITIONS:
                                     02BA   400 ; *	FIRST LONGWORD OF RETURN ADDRESS FIELD IN
                                     02BA   401 ; *	  NON-ACCESSIBLE PSECT.
                                     02BA   402 ; *
                                     02BA   403 ; *  EXPECTED RESULTS:
                                     02BA   404 ; *	1) SYSTEM STATUS CODE:	ACCVIO
                                     02BA   405 ; *	2) REGISTERS R2 THROUGH FP UNCHANGED
                                     02BA   406 ; *
                                     02BA   407 ; ******************************************************
                                     02BA   408 ;--
                                     02BA   409 ;
                                     02BA   410 ;
                                     02BA   411 	NEXT_TEST_CASE	SFERG22
SATSSF12        - SATS SYSTEM SERVICE TESTS  (FAILING S.C.)      22-AUG-1978 03:51:52   VAX-11 MACRO X0.3-11               Page  13
1.0             SFERG22                                                                                                          (1)

                                     02C6   412 ;
                                     02C6   413 ;++
                                     02C6   414 ; ******************************************************
                                     02C6   415 ; *
                                     02C6   416 ; *  TEST CASE NAME:		SFERG22
                                     02C6   417 ; *
                                     02C6   418 ; *  SYSTEM SERVICE:		EXPREG
                                     02C6   419 ; *
                                     02C6   420 ; *  ARGUMENT UNDER TEST: 	RETADR_ERG22
                                     02C6   421 ; *
                                     02C6   422 ; *  INPUT CONDITIONS:
                                     02C6   423 ; *	FIRST LONGWORD OF RETURN ADDRESS FIELD IN
                                     02C6   424 ; *	  ACCESSIBLE PSECT, SECOND LONGWORD IN
                                     02C6   425 ; *	  NON-ACCESSIBLE PSECT.
                                     02C6   426 ; *
                                     02C6   427 ; *  EXPECTED RESULTS:
                                     02C6   428 ; *	1) SYSTEM STATUS CODE:	ACCVIO
                                     02C6   429 ; *	2) REGISTERS R2 THROUGH FP UNCHANGED
                                     02C6   430 ; *
                                     02C6   431 ; ******************************************************
                                     02C6   432 ;--
                                     02C6   433 ;
                                     02C6   434 ;
                                     02C6   435 	NEXT_TEST_CASE	SFERG23
SATSSF12        - SATS SYSTEM SERVICE TESTS  (FAILING S.C.)      22-AUG-1978 03:51:52   VAX-11 MACRO X0.3-11               Page  14
1.0             SFERG23                                                                                                          (1)

                                     02D2   436 ;
                                     02D2   437 ;++
                                     02D2   438 ; ******************************************************
                                     02D2   439 ; *
                                     02D2   440 ; *  TEST CASE NAME:		SFERG23
                                     02D2   441 ; *
                                     02D2   442 ; *  SYSTEM SERVICE:		EXPREG
                                     02D2   443 ; *
                                     02D2   444 ; *  ARGUMENT UNDER TEST: 	RETADR_ERG23
                                     02D2   445 ; *
                                     02D2   446 ; *  INPUT CONDITIONS:
                                     02D2   447 ; *	FIRST LONGWORD OF RETURN ADDRESS FIELD BEGINS
                                     02D2   448 ; *	  IN ACCESSIBLE PSECT, ENDS IN NON-ACCESSIBLE PSECT.
                                     02D2   449 ; *
                                     02D2   450 ; *  EXPECTED RESULTS:
                                     02D2   451 ; *	1) SYSTEM STATUS CODE:	ACCVIO
                                     02D2   452 ; *	2) REGISTERS R2 THROUGH FP UNCHANGED
                                     02D2   453 ; *
                                     02D2   454 ; ******************************************************
                                     02D2   455 ;--
                                     02D2   456 ;
                                     02D2   457 ;
                                     02D2   458 	NEXT_TEST_CASE	SFERG24
SATSSF12        - SATS SYSTEM SERVICE TESTS  (FAILING S.C.)      22-AUG-1978 03:51:52   VAX-11 MACRO X0.3-11               Page  15
1.0             SFERG24                                                                                                          (1)

                                     02DE   459 ;
                                     02DE   460 ;++
                                     02DE   461 ; ******************************************************
                                     02DE   462 ; *
                                     02DE   463 ; *  TEST CASE NAME:		SFERG24
                                     02DE   464 ; *
                                     02DE   465 ; *  SYSTEM SERVICE:		EXPREG
                                     02DE   466 ; *
                                     02DE   467 ; *  ARGUMENT UNDER TEST: 	RETADR_ERG24
                                     02DE   468 ; *
                                     02DE   469 ; *  INPUT CONDITIONS:
                                     02DE   470 ; *	SECOND LONGWORD OF RETURN ADDRESS FIELD BEGINS
                                     02DE   471 ; *	IN ACCESSIBLE PSECT, ENDS IN NON-ACCESSIBLE PSECT.
                                     02DE   472 ; *
                                     02DE   473 ; *  EXPECTED RESULTS:
                                     02DE   474 ; *	1) SYSTEM STATUS CODE:	ACCVIO
                                     02DE   475 ; *	2) REGISTERS R2 THROUGH FP UNCHANGED
                                     02DE   476 ; *
                                     02DE   477 ; ******************************************************
                                     02DE   478 ;--
                                     02DE   479 ;
                                     02DE   480 ;
                                     02DE   481 	TCEND
SATSSF12        - SATS SYSTEM SERVICE TESTS  (FAILING S.C.)      22-AUG-1978 03:51:52   VAX-11 MACRO X0.3-11               Page  16
1.0                                                                                                                              (1)

                                     02DF   482 ;
                                     02DF   483 	TC_GROUP	CRG,1,TS2
                                     0306   484 ;
                                     0306   485 	NEXT_TEST_CASE	SFCRG10
SATSSF12        - SATS SYSTEM SERVICE TESTS  (FAILING S.C.)      22-AUG-1978 03:51:52   VAX-11 MACRO X0.3-11               Page  17
1.0             SFCRG10                                                                                                          (1)

                                     0306   486 ;
                                     0306   487 ;++
                                     0306   488 ; ******************************************************
                                     0306   489 ; *
                                     0306   490 ; *  TEST CASE NAME:		SFCRG10
                                     0306   491 ; *
                                     0306   492 ; *  SYSTEM SERVICE:		CNTREG
                                     0306   493 ; *
                                     0306   494 ; *  ARGUMENT UNDER TEST: 	PAGCNT_CRG10
                                     0306   495 ; *
                                     0306   496 ; *  INPUT CONDITIONS:
                                     0306   497 ; *	ILLEGAL PAGE COUNT (ZERO)
                                     0306   498 ; *
                                     0306   499 ; *  EXPECTED RESULTS:
                                     0306   500 ; *	1) SYSTEM STATUS CODE:	ILLPAGCNT
                                     0306   501 ; *	2) REGISTERS R2 THROUGH FP UNCHANGED
                                     0306   502 ; *
                                     0306   503 ; ******************************************************
                                     0306   504 ;--
                                     0306   505 ;
                 00000091'EF     D4  0306   506 	CLRL	PAGCNT_CRG10		; ZERO OUT REQUESTED PAGE COUNT
                                     030C   507 ;
                                     030C   508 	NEXT_TEST_CASE	SFCRG11
SATSSF12        - SATS SYSTEM SERVICE TESTS  (FAILING S.C.)      22-AUG-1978 03:51:52   VAX-11 MACRO X0.3-11               Page  18
1.0             SFCRG11                                                                                                          (1)

                                     0318   509 ;
                                     0318   510 ;++
                                     0318   511 ; ******************************************************
                                     0318   512 ; *
                                     0318   513 ; *  TEST CASE NAME:		SFCRG11
                                     0318   514 ; *
                                     0318   515 ; *  SYSTEM SERVICE:		CNTREG
                                     0318   516 ; *
                                     0318   517 ; *  ARGUMENT UNDER TEST: 	PAGCNT_CRG11
                                     0318   518 ; *
                                     0318   519 ; *  INPUT CONDITIONS:
                                     0318   520 ; *	ILLEGAL PAGE COUNT (NEGATIVE)
                                     0318   521 ; *
                                     0318   522 ; *  EXPECTED RESULTS:
                                     0318   523 ; *	1) SYSTEM STATUS CODE:	ILLPAGCNT
                                     0318   524 ; *	2) REGISTERS R2 THROUGH FP UNCHANGED
                                     0318   525 ; *
                                     0318   526 ; ******************************************************
                                     0318   527 ;--
                                     0318   528 ;
   00000091'EF         FF 8F     98  0318   529 	CVTBL	#-1,PAGCNT_CRG11	; REQUEST -1 PAGES
                                     0320   530 ;
                                     0320   531 	NEXT_TEST_CASE	SFCRG12
SATSSF12        - SATS SYSTEM SERVICE TESTS  (FAILING S.C.)      22-AUG-1978 03:51:52   VAX-11 MACRO X0.3-11               Page  19
1.0             SFCRG12                                                                                                          (1)

                                     032C   532 ;
                                     032C   533 ;++
                                     032C   534 ; ******************************************************
                                     032C   535 ; *
                                     032C   536 ; *  TEST CASE NAME:		SFCRG12
                                     032C   537 ; *
                                     032C   538 ; *  SYSTEM SERVICE:		CNTREG
                                     032C   539 ; *
                                     032C   540 ; *  ARGUMENT UNDER TEST: 	PAGCNT_CRG12
                                     032C   541 ; *
                                     032C   542 ; *  INPUT CONDITIONS:
                                     032C   543 ; *	ILLEGAL PAGE COUNT (NEGATIVE)
                                     032C   544 ; *
                                     032C   545 ; *  EXPECTED RESULTS:
                                     032C   546 ; *	1) SYSTEM STATUS CODE:	ILLPAGCNT
                                     032C   547 ; *	2) REGISTERS R2 THROUGH FP UNCHANGED
                                     032C   548 ; *
                                     032C   549 ; ******************************************************
                                     032C   550 ;--
                                     032C   551 ;
   00000091'EF   FFFE7960 8F     D0  032C   552 	MOVL	#-100000,PAGCNT_CRG12	; REQUEST LARGE NEG. PAGE COUNT
                                     0337   553 ;
                                     0337   554 	NEXT_TEST_CASE	SFCRG13
SATSSF12        - SATS SYSTEM SERVICE TESTS  (FAILING S.C.)      22-AUG-1978 03:51:52   VAX-11 MACRO X0.3-11               Page  20
1.0             SFCRG13                                                                                                          (1)

                                     0343   555 ;
                                     0343   556 ;++
                                     0343   557 ; ******************************************************
                                     0343   558 ; *
                                     0343   559 ; *  TEST CASE NAME:		SFCRG13
                                     0343   560 ; *
                                     0343   561 ; *  SYSTEM SERVICE:		CNTREG
                                     0343   562 ; *
                                     0343   563 ; *  ARGUMENT UNDER TEST: 	PAGCNT_CRG13
                                     0343   564 ; *
                                     0343   565 ; *  INPUT CONDITIONS:
                                     0343   566 ; *	TRY TO CONTRACT EXECUTIVE REGION
                                     0343   567 ; *
                                     0343   568 ; *  EXPECTED RESULTS:
                                     0343   569 ; *	1) SYSTEM STATUS CODE:	PAGOWNVIO
                                     0343   570 ; *	2) REGISTERS R2 THROUGH FP UNCHANGED
                                     0343   571 ; *
                                     0343   572 ; ******************************************************
                                     0343   573 ;--
                                     0343   574 ;
                                     0343   575 	MODE	TO,10$,EXEC,NOREGS	; GET TO EXEC MODE FOR $EXPREG
                                     0360   576 	$EXPREG_S PAGCNT=PAGCNT_CRG13, - ; EXPAND BY ONE PAGE
                                     0360   577 		  RETADR=RETADR_CRG13
                                     0377   578 	MODE	FROM,10$		; BACK TO USER MODE
                                     0378   579 ;
                                     0378   580 	NEXT_TEST_CASE	SFCRG20
SATSSF12        - SATS SYSTEM SERVICE TESTS  (FAILING S.C.)      22-AUG-1978 03:51:52   VAX-11 MACRO X0.3-11               Page  21
1.0             SFCRG20                                                                                                          (1)

                                     0384   581 ;
                                     0384   582 ;++
                                     0384   583 ; ******************************************************
                                     0384   584 ; *
                                     0384   585 ; *  TEST CASE NAME:		SFCRG20
                                     0384   586 ; *
                                     0384   587 ; *  SYSTEM SERVICE:		CNTREG
                                     0384   588 ; *
                                     0384   589 ; *  ARGUMENT UNDER TEST: 	RETADR_CRG20
                                     0384   590 ; *
                                     0384   591 ; *  INPUT CONDITIONS:
                                     0384   592 ; *	RETURN ADDRESS FIELD AT LOCATION 1.
                                     0384   593 ; *
                                     0384   594 ; *  EXPECTED RESULTS:
                                     0384   595 ; *	1) SYSTEM STATUS CODE:	ACCVIO
                                     0384   596 ; *	2) REGISTERS R2 THROUGH FP UNCHANGED
                                     0384   597 ; *
                                     0384   598 ; ******************************************************
                                     0384   599 ;--
                                     0384   600 ;
                                     0384   601 	MODE	TO,20$,EXEC,NOREGS	; EXEC MODE TO ISSUE $DELTVA
                                     03A1   602 	$DELTVA_S INADR=RETADR_CRG13	; DELETE PAGE ACQUIRED BY SFCRG13
                                     03B2   603 	MODE	FROM,20$		; ... BACK TO USER MODE
                                     03B3   604 ;
                                     03B3   605 	NEXT_TEST_CASE	SFCRG21
SATSSF12        - SATS SYSTEM SERVICE TESTS  (FAILING S.C.)      22-AUG-1978 03:51:52   VAX-11 MACRO X0.3-11               Page  22
1.0             SFCRG21                                                                                                          (1)

                                     03BF   606 ;
                                     03BF   607 ;++
                                     03BF   608 ; ******************************************************
                                     03BF   609 ; *
                                     03BF   610 ; *  TEST CASE NAME:		SFCRG21
                                     03BF   611 ; *
                                     03BF   612 ; *  SYSTEM SERVICE:		CNTREG
                                     03BF   613 ; *
                                     03BF   614 ; *  ARGUMENT UNDER TEST: 	RETADR_CRG21
                                     03BF   615 ; *
                                     03BF   616 ; *  INPUT CONDITIONS:
                                     03BF   617 ; *	FIRST LONGWORD OF RETURN ADDRESS FIELD IN
                                     03BF   618 ; *	  NON-ACCESSIBLE PSECT.
                                     03BF   619 ; *
                                     03BF   620 ; *  EXPECTED RESULTS:
                                     03BF   621 ; *	1) SYSTEM STATUS CODE:	ACCVIO
                                     03BF   622 ; *	2) REGISTERS R2 THROUGH FP UNCHANGED
                                     03BF   623 ; *
                                     03BF   624 ; ******************************************************
                                     03BF   625 ;--
                                     03BF   626 ;
                                     03BF   627 ;
                                     03BF   628 	NEXT_TEST_CASE	SFCRG22
SATSSF12        - SATS SYSTEM SERVICE TESTS  (FAILING S.C.)      22-AUG-1978 03:51:52   VAX-11 MACRO X0.3-11               Page  23
1.0             SFCRG22                                                                                                          (1)

                                     03CB   629 ;
                                     03CB   630 ;++
                                     03CB   631 ; ******************************************************
                                     03CB   632 ; *
                                     03CB   633 ; *  TEST CASE NAME:		SFCRG22
                                     03CB   634 ; *
                                     03CB   635 ; *  SYSTEM SERVICE:		CNTREG
                                     03CB   636 ; *
                                     03CB   637 ; *  ARGUMENT UNDER TEST: 	RETADR_CRG22
                                     03CB   638 ; *
                                     03CB   639 ; *  INPUT CONDITIONS:
                                     03CB   640 ; *	FIRST LONGWORD OF RETURN ADDRESS FIELD IN ACCESSIBLE
                                     03CB   641 ; *	  PSECT, SECOND LONGWORD IN NON-ACCESSIBLE PSECT.
                                     03CB   642 ; *
                                     03CB   643 ; *  EXPECTED RESULTS:
                                     03CB   644 ; *	1) SYSTEM STATUS CODE:	ACCVIO
                                     03CB   645 ; *	2) REGISTERS R2 THROUGH FP UNCHANGED
                                     03CB   646 ; *
                                     03CB   647 ; ******************************************************
                                     03CB   648 ;--
                                     03CB   649 ;
                                     03CB   650 ;
                                     03CB   651 	NEXT_TEST_CASE	SFCRG23
SATSSF12        - SATS SYSTEM SERVICE TESTS  (FAILING S.C.)      22-AUG-1978 03:51:52   VAX-11 MACRO X0.3-11               Page  24
1.0             SFCRG23                                                                                                          (1)

                                     03D7   652 ;
                                     03D7   653 ;++
                                     03D7   654 ; ******************************************************
                                     03D7   655 ; *
                                     03D7   656 ; *  TEST CASE NAME:		SFCRG23
                                     03D7   657 ; *
                                     03D7   658 ; *  SYSTEM SERVICE:		CNTREG
                                     03D7   659 ; *
                                     03D7   660 ; *  ARGUMENT UNDER TEST: 	RETADR_CRG23
                                     03D7   661 ; *
                                     03D7   662 ; *  INPUT CONDITIONS:
                                     03D7   663 ; *	FIRST LONGWORD OF RETURN ADDRESS FIELD BEGINS IN ACCESSIBLE
                                     03D7   664 ; *	  PSECT, ENDS IN NON-ACCESSIBLE PSECT.
                                     03D7   665 ; *
                                     03D7   666 ; *  EXPECTED RESULTS:
                                     03D7   667 ; *	1) SYSTEM STATUS CODE:	ACCVIO
                                     03D7   668 ; *	2) REGISTERS R2 THROUGH FP UNCHANGED
                                     03D7   669 ; *
                                     03D7   670 ; ******************************************************
                                     03D7   671 ;--
                                     03D7   672 ;
                                     03D7   673 ;
                                     03D7   674 	NEXT_TEST_CASE	SFCRG24
SATSSF12        - SATS SYSTEM SERVICE TESTS  (FAILING S.C.)      22-AUG-1978 03:51:52   VAX-11 MACRO X0.3-11               Page  25
1.0             SFCRG24                                                                                                          (1)

                                     03E3   675 ;
                                     03E3   676 ;++
                                     03E3   677 ; ******************************************************
                                     03E3   678 ; *
                                     03E3   679 ; *  TEST CASE NAME:		SFCRG24
                                     03E3   680 ; *
                                     03E3   681 ; *  SYSTEM SERVICE:		CNTREG
                                     03E3   682 ; *
                                     03E3   683 ; *  ARGUMENT UNDER TEST: 	RETADR_CRG24
                                     03E3   684 ; *
                                     03E3   685 ; *  INPUT CONDITIONS:
                                     03E3   686 ; *	SECOND LONGWORD OF RETURN ADDRESS FIELD BEGINS IN ACCESSIBLE
                                     03E3   687 ; *	  PSECT, ENDS IN NON-ACCESSIBLE PSECT.
                                     03E3   688 ; *
                                     03E3   689 ; *  EXPECTED RESULTS:
                                     03E3   690 ; *	1) SYSTEM STATUS CODE:	ACCVIO
                                     03E3   691 ; *	2) REGISTERS R2 THROUGH FP UNCHANGED
                                     03E3   692 ; *
                                     03E3   693 ; ******************************************************
                                     03E3   694 ;--
                                     03E3   695 ;
                                     03E3   696 ;
                                     03E3   697 	TCEND
SATSSF12        - SATS SYSTEM SERVICE TESTS  (FAILING S.C.)      22-AUG-1978 03:51:52   VAX-11 MACRO X0.3-11               Page  26
1.0                                                                                                                              (1)

                                     03E4   698 ;
                                     03E4   699 	TC_GROUP	SPT,1,TS3
                                     040B   700 ;
                                     040B   701 	NEXT_TEST_CASE	SFSPT10
SATSSF12        - SATS SYSTEM SERVICE TESTS  (FAILING S.C.)      22-AUG-1978 03:51:52   VAX-11 MACRO X0.3-11               Page  27
1.0             SFSPT10                                                                                                          (1)

                                     040B   702 ;
                                     040B   703 ;++
                                     040B   704 ; ******************************************************
                                     040B   705 ; *
                                     040B   706 ; *  TEST CASE NAME:		SFSPT10
                                     040B   707 ; *
                                     040B   708 ; *  SYSTEM SERVICE:		SETPRT
                                     040B   709 ; *
                                     040B   710 ; *  ARGUMENT UNDER TEST: 	INADR_SPT10
                                     040B   711 ; *
                                     040B   712 ; *  INPUT CONDITIONS:
                                     040B   713 ; *	SET PROTECTION FOR A PAGE OWNED BY EXEC MODE.
                                     040B   714 ; *
                                     040B   715 ; *  EXPECTED RESULTS:
                                     040B   716 ; *	1) SYSTEM STATUS CODE:	PAGOWNVIO
                                     040B   717 ; *	2) REGISTERS R2 THROUGH FP UNCHANGED
                                     040B   718 ; *
                                     040B   719 ; ******************************************************
                                     040B   720 ;--
                                     040B   721 ;
                                     040B   722 	MODE	TO,10$,EXEC,NOREGS	; GET INTO EXEC MODE FOR EXPREG
                                     0428   723 	$EXPREG_S PAGCNT=#1, RETADR=EXP_RANGE
                                     043B   724 					; GET A 1-PAGE REGION OWNED BY EXEC MODE
                                     043B   725 	MODE	FROM,10$		; BACK TO USER MODE
   000000B5'EF   000000BD'EF     7D  043C   726 	MOVQ	EXP_RANGE,INADR_SPT10	; POINT TO EXEC-OWNED RANGE
                                     0447   727 ;
                                     0447   728 	NEXT_TEST_CASE	SFSPT11
SATSSF12        - SATS SYSTEM SERVICE TESTS  (FAILING S.C.)      22-AUG-1978 03:51:52   VAX-11 MACRO X0.3-11               Page  28
1.0             SFSPT11                                                                                                          (1)

                                     0453   729 ;
                                     0453   730 ;++
                                     0453   731 ; ******************************************************
                                     0453   732 ; *
                                     0453   733 ; *  TEST CASE NAME:		SFSPT11
                                     0453   734 ; *
                                     0453   735 ; *  SYSTEM SERVICE:		SETPRT
                                     0453   736 ; *
                                     0453   737 ; *  ARGUMENT UNDER TEST: 	INADR_SPT11
                                     0453   738 ; *
                                     0453   739 ; *  INPUT CONDITIONS:
                                     0453   740 ; *	SET PROTECTION ON A RANGE OF PAGES IN SYSTEM SPACE.
                                     0453   741 ; *
                                     0453   742 ; *  EXPECTED RESULTS:
                                     0453   743 ; *	1) SYSTEM STATUS CODE:	NOPRIV
                                     0453   744 ; *	2) REGISTERS R2 THROUGH FP UNCHANGED
                                     0453   745 ; *
                                     0453   746 ; ******************************************************
                                     0453   747 ;--
                                     0453   748 ;
                                     0453   749 	MODE	TO,20$,EXEC,NOREGS	; INTO EXEC MODE FOR CNTREG
                                     0470   750 	$CNTREG_S PAGCNT=#1		; GIVE BACK PAGE ACQUIRED BY SFSPT10
                                     047F   751 	MODE	FROM,20$		; BACK TO USER MODE
                                     0480   752 ;
                                     0480   753 	NEXT_TEST_CASE	SFSPT12
SATSSF12        - SATS SYSTEM SERVICE TESTS  (FAILING S.C.)      22-AUG-1978 03:51:52   VAX-11 MACRO X0.3-11               Page  29
1.0             SFSPT12                                                                                                          (1)

                                     048C   754 ;
                                     048C   755 ;++
                                     048C   756 ; ******************************************************
                                     048C   757 ; *
                                     048C   758 ; *  TEST CASE NAME:		SFSPT12
                                     048C   759 ; *
                                     048C   760 ; *  SYSTEM SERVICE:		SETPRT
                                     048C   761 ; *
                                     048C   762 ; *  ARGUMENT UNDER TEST: 	INADR_SPT12
                                     048C   763 ; *
                                     048C   764 ; *  INPUT CONDITIONS:
                                     048C   765 ; *	SET PROTECTION ON A NON-EXISTENT PAGE.
                                     048C   766 ; *
                                     048C   767 ; *  EXPECTED RESULTS:
                                     048C   768 ; *	1) SYSTEM STATUS CODE:	LENVIO
                                     048C   769 ; *	2) REGISTERS R2 THROUGH FP UNCHANGED
                                     048C   770 ; *
                                     048C   771 ; ******************************************************
                                     048C   772 ;--
                                     048C   773 ;
   000000C5'EF   000000BD'EF     7D  048C   774 	MOVQ	EXP_RANGE,INADR_SPT12	; POINT TO NOW UNAVAILABLE RANGE
                                     0497   775 ;
                                     0497   776 	NEXT_TEST_CASE	SFSPT13
SATSSF12        - SATS SYSTEM SERVICE TESTS  (FAILING S.C.)      22-AUG-1978 03:51:52   VAX-11 MACRO X0.3-11               Page  30
1.0             SFSPT13                                                                                                          (1)

                                     04A3   777 ;
                                     04A3   778 ;++
                                     04A3   779 ; ******************************************************
                                     04A3   780 ; *
                                     04A3   781 ; *  TEST CASE NAME:		SFSPT13
                                     04A3   782 ; *
                                     04A3   783 ; *  SYSTEM SERVICE:		SETPRT
                                     04A3   784 ; *
                                     04A3   785 ; *  ARGUMENT UNDER TEST: 	INADR_SPT13
                                     04A3   786 ; *
                                     04A3   787 ; *  INPUT CONDITIONS:
                                     04A3   788 ; *	INPUT ADDRESS FIELD AT LOCATION 0.
                                     04A3   789 ; *
                                     04A3   790 ; *  EXPECTED RESULTS:
                                     04A3   791 ; *	1) SYSTEM STATUS CODE:	ACCVIO
                                     04A3   792 ; *	2) REGISTERS R2 THROUGH FP UNCHANGED
                                     04A3   793 ; *
                                     04A3   794 ; ******************************************************
                                     04A3   795 ;--
                                     04A3   796 ;
                                     04A3   797 ;
                                     04A3   798 	NEXT_TEST_CASE	SFSPT14
SATSSF12        - SATS SYSTEM SERVICE TESTS  (FAILING S.C.)      22-AUG-1978 03:51:52   VAX-11 MACRO X0.3-11               Page  31
1.0             SFSPT14                                                                                                          (1)

                                     04AF   799 ;
                                     04AF   800 ;++
                                     04AF   801 ; ******************************************************
                                     04AF   802 ; *
                                     04AF   803 ; *  TEST CASE NAME:		SFSPT14
                                     04AF   804 ; *
                                     04AF   805 ; *  SYSTEM SERVICE:		SETPRT
                                     04AF   806 ; *
                                     04AF   807 ; *  ARGUMENT UNDER TEST: 	INADR_SPT14
                                     04AF   808 ; *
                                     04AF   809 ; *  INPUT CONDITIONS:
                                     04AF   810 ; *	INPUT ADDRESS FIELD IN NON-ACCESSIBLE PSECT.
                                     04AF   811 ; *
                                     04AF   812 ; *  EXPECTED RESULTS:
                                     04AF   813 ; *	1) SYSTEM STATUS CODE:	ACCVIO
                                     04AF   814 ; *	2) REGISTERS R2 THROUGH FP UNCHANGED
                                     04AF   815 ; *
                                     04AF   816 ; ******************************************************
                                     04AF   817 ;--
                                     04AF   818 ;
                                     04AF   819 ;
                                     04AF   820 	NEXT_TEST_CASE	SFSPT20
SATSSF12        - SATS SYSTEM SERVICE TESTS  (FAILING S.C.)      22-AUG-1978 03:51:52   VAX-11 MACRO X0.3-11               Page  32
1.0             SFSPT20                                                                                                          (1)

                                     04BB   821 ;
                                     04BB   822 ;++
                                     04BB   823 ; ******************************************************
                                     04BB   824 ; *
                                     04BB   825 ; *  TEST CASE NAME:		SFSPT20
                                     04BB   826 ; *
                                     04BB   827 ; *  SYSTEM SERVICE:		SETPRT
                                     04BB   828 ; *
                                     04BB   829 ; *  ARGUMENT UNDER TEST: 	RETADR_SPT20
                                     04BB   830 ; *
                                     04BB   831 ; *  INPUT CONDITIONS:
                                     04BB   832 ; *	RETURN ADDRESS FIELD AT LOCATION 1.
                                     04BB   833 ; *
                                     04BB   834 ; *  EXPECTED RESULTS:
                                     04BB   835 ; *	1) SYSTEM STATUS CODE:	ACCVIO
                                     04BB   836 ; *	2) REGISTERS R2 THROUGH FP UNCHANGED
                                     04BB   837 ; *
                                     04BB   838 ; ******************************************************
                                     04BB   839 ;--
                                     04BB   840 ;
                                     04BB   841 ;
                                     04BB   842 	NEXT_TEST_CASE	SFSPT21
SATSSF12        - SATS SYSTEM SERVICE TESTS  (FAILING S.C.)      22-AUG-1978 03:51:52   VAX-11 MACRO X0.3-11               Page  33
1.0             SFSPT21                                                                                                          (1)

                                     04C7   843 ;
                                     04C7   844 ;++
                                     04C7   845 ; ******************************************************
                                     04C7   846 ; *
                                     04C7   847 ; *  TEST CASE NAME:		SFSPT21
                                     04C7   848 ; *
                                     04C7   849 ; *  SYSTEM SERVICE:		SETPRT
                                     04C7   850 ; *
                                     04C7   851 ; *  ARGUMENT UNDER TEST: 	RETADR_SPT21
                                     04C7   852 ; *
                                     04C7   853 ; *  INPUT CONDITIONS:
                                     04C7   854 ; *	RETURN ADDRESS FIELD IN READ-ONLY PSECT.
                                     04C7   855 ; *
                                     04C7   856 ; *  EXPECTED RESULTS:
                                     04C7   857 ; *	1) SYSTEM STATUS CODE:	ACCVIO
                                     04C7   858 ; *	2) REGISTERS R2 THROUGH FP UNCHANGED
                                     04C7   859 ; *
                                     04C7   860 ; ******************************************************
                                     04C7   861 ;--
                                     04C7   862 ;
                                     04C7   863 ;
                                     04C7   864 	NEXT_TEST_CASE	SFSPT22
SATSSF12        - SATS SYSTEM SERVICE TESTS  (FAILING S.C.)      22-AUG-1978 03:51:52   VAX-11 MACRO X0.3-11               Page  34
1.0             SFSPT22                                                                                                          (1)

                                     04D3   865 ;
                                     04D3   866 ;++
                                     04D3   867 ; ******************************************************
                                     04D3   868 ; *
                                     04D3   869 ; *  TEST CASE NAME:		SFSPT22
                                     04D3   870 ; *
                                     04D3   871 ; *  SYSTEM SERVICE:		SETPRT
                                     04D3   872 ; *
                                     04D3   873 ; *  ARGUMENT UNDER TEST: 	RETADR_SPT22
                                     04D3   874 ; *
                                     04D3   875 ; *  INPUT CONDITIONS:
                                     04D3   876 ; *	SECOND LONGWORD OF RETURN ADDRESS FIELD BEGINS IN
                                     04D3   877 ; *	  ACCESSIBLE PSECT, ENDS IN NON-ACCESSIBLE PSECT.
                                     04D3   878 ; *
                                     04D3   879 ; *  EXPECTED RESULTS:
                                     04D3   880 ; *	1) SYSTEM STATUS CODE:	ACCVIO
                                     04D3   881 ; *	2) REGISTERS R2 THROUGH FP UNCHANGED
                                     04D3   882 ; *
                                     04D3   883 ; ******************************************************
                                     04D3   884 ;--
                                     04D3   885 ;
                                     04D3   886 ;
                                     04D3   887 	NEXT_TEST_CASE	SFSPT40
SATSSF12        - SATS SYSTEM SERVICE TESTS  (FAILING S.C.)      22-AUG-1978 03:51:52   VAX-11 MACRO X0.3-11               Page  35
1.0             SFSPT40                                                                                                          (1)

                                     04DF   888 ;
                                     04DF   889 ;++
                                     04DF   890 ; ******************************************************
                                     04DF   891 ; *
                                     04DF   892 ; *  TEST CASE NAME:		SFSPT40
                                     04DF   893 ; *
                                     04DF   894 ; *  SYSTEM SERVICE:		SETPRT
                                     04DF   895 ; *
                                     04DF   896 ; *  ARGUMENT UNDER TEST: 	PROT_SPT40
                                     04DF   897 ; *
                                     04DF   898 ; *  INPUT CONDITIONS:
                                     04DF   899 ; *	PROTECTION CODE 1 SPECIFIED.
                                     04DF   900 ; *
                                     04DF   901 ; *  EXPECTED RESULTS:
                                     04DF   902 ; *	1) SYSTEM STATUS CODE:	IVPROTECT
                                     04DF   903 ; *	2) REGISTERS R2 THROUGH FP UNCHANGED
                                     04DF   904 ; *
                                     04DF   905 ; ******************************************************
                                     04DF   906 ;--
                                     04DF   907 ;
                                     04DF   908 ;
                                     04DF   909 	NEXT_TEST_CASE	SFSPT41
SATSSF12        - SATS SYSTEM SERVICE TESTS  (FAILING S.C.)      22-AUG-1978 03:51:52   VAX-11 MACRO X0.3-11               Page  36
1.0             SFSPT41                                                                                                          (1)

                                     04EB   910 ;
                                     04EB   911 ;++
                                     04EB   912 ; ******************************************************
                                     04EB   913 ; *
                                     04EB   914 ; *  TEST CASE NAME:		SFSPT41
                                     04EB   915 ; *
                                     04EB   916 ; *  SYSTEM SERVICE:		SETPRT
                                     04EB   917 ; *
                                     04EB   918 ; *  ARGUMENT UNDER TEST: 	PROT_SPT41
                                     04EB   919 ; *
                                     04EB   920 ; *  INPUT CONDITIONS:
                                     04EB   921 ; *	PROTECTION CODE 16 SPECIFIED.
                                     04EB   922 ; *
                                     04EB   923 ; *  EXPECTED RESULTS:
                                     04EB   924 ; *	1) SYSTEM STATUS CODE:	IVPROTECT
                                     04EB   925 ; *	2) REGISTERS R2 THROUGH FP UNCHANGED
                                     04EB   926 ; *
                                     04EB   927 ; ******************************************************
                                     04EB   928 ;--
                                     04EB   929 ;
                                     04EB   930 ;
                                     04EB   931 	NEXT_TEST_CASE	SFSPT50
SATSSF12        - SATS SYSTEM SERVICE TESTS  (FAILING S.C.)      22-AUG-1978 03:51:52   VAX-11 MACRO X0.3-11               Page  37
1.0             SFSPT50                                                                                                          (1)

                                     04F7   932 ;
                                     04F7   933 ;++
                                     04F7   934 ; ******************************************************
                                     04F7   935 ; *
                                     04F7   936 ; *  TEST CASE NAME:		SFSPT50
                                     04F7   937 ; *
                                     04F7   938 ; *  SYSTEM SERVICE:		SETPRT
                                     04F7   939 ; *
                                     04F7   940 ; *  ARGUMENT UNDER TEST: 	PRVPRT_SPT50
                                     04F7   941 ; *
                                     04F7   942 ; *  INPUT CONDITIONS:
                                     04F7   943 ; *	PREVIOUS PROTECTION FIELD AT LOCATION 1.
                                     04F7   944 ; *
                                     04F7   945 ; *  EXPECTED RESULTS:
                                     04F7   946 ; *	1) SYSTEM STATUS CODE:	ACCVIO
                                     04F7   947 ; *	2) REGISTERS R2 THROUGH FP UNCHANGED
                                     04F7   948 ; *
                                     04F7   949 ; ******************************************************
                                     04F7   950 ;--
                                     04F7   951 ;
                                     04F7   952 ;
                                     04F7   953 	NEXT_TEST_CASE	SFSPT51
SATSSF12        - SATS SYSTEM SERVICE TESTS  (FAILING S.C.)      22-AUG-1978 03:51:52   VAX-11 MACRO X0.3-11               Page  38
1.0             SFSPT51                                                                                                          (1)

                                     0503   954 ;
                                     0503   955 ;++
                                     0503   956 ; ******************************************************
                                     0503   957 ; *
                                     0503   958 ; *  TEST CASE NAME:		SFSPT51
                                     0503   959 ; *
                                     0503   960 ; *  SYSTEM SERVICE:		SETPRT
                                     0503   961 ; *
                                     0503   962 ; *  ARGUMENT UNDER TEST: 	PRVPRT_SPT51
                                     0503   963 ; *
                                     0503   964 ; *  INPUT CONDITIONS:
                                     0503   965 ; *	PREVIOUS PROTECTION FIELD IN READ-ONLY PSECT.
                                     0503   966 ; *
                                     0503   967 ; *  EXPECTED RESULTS:
                                     0503   968 ; *	1) SYSTEM STATUS CODE:	ACCVIO
                                     0503   969 ; *	2) REGISTERS R2 THROUGH FP UNCHANGED
                                     0503   970 ; *
                                     0503   971 ; ******************************************************
                                     0503   972 ;--
                                     0503   973 ;
                                     0503   974 ;
                                     0503   975 	TCEND
SATSSF12        - SATS SYSTEM SERVICE TESTS  (FAILING S.C.)      22-AUG-1978 03:51:52   VAX-11 MACRO X0.3-11               Page  39
1.0                                                                                                                              (1)

                                     0504   976 ;
                                     0504   977 	TC_GROUP	SSM,1,TS4
                                     052B   978 ;
                                     052B   979 	NEXT_TEST_CASE	SFSSM10
SATSSF12        - SATS SYSTEM SERVICE TESTS  (FAILING S.C.)      22-AUG-1978 03:51:52   VAX-11 MACRO X0.3-11               Page  40
1.0             SFSSM10                                                                                                          (1)

                                     052B   980 ;
                                     052B   981 ;++
                                     052B   982 ; ******************************************************
                                     052B   983 ; *
                                     052B   984 ; *  TEST CASE NAME:		SFSSM10
                                     052B   985 ; *
                                     052B   986 ; *  SYSTEM SERVICE:		SETSWM
                                     052B   987 ; *
                                     052B   988 ; *  ARGUMENT UNDER TEST: 	SWPFLG_SSM10
                                     052B   989 ; *
                                     052B   990 ; *  INPUT CONDITIONS:
                                     052B   991 ; *	USER DOES NOT HAVE THE PRIVILEGE TO ALTER
                                     052B   992 ; *	  PROCESS SWAP MODE.
                                     052B   993 ; *
                                     052B   994 ; *  EXPECTED RESULTS:
                                     052B   995 ; *	1) SYSTEM STATUS CODE:	NOPRIV
                                     052B   996 ; *	2) REGISTERS R2 THROUGH FP UNCHANGED
                                     052B   997 ; *
                                     052B   998 ; ******************************************************
                                     052B   999 ;--
                                     052B  1000 ;
                                     052B  1001 	PRIV	REM,PSWAPM		; REMOVE SWAP MODE PRIVILEGE
                                     0552  1002 ;
                                     0552  1003 	TCEND
SATSSF12        - SATS SYSTEM SERVICE TESTS  (FAILING S.C.)      22-AUG-1978 03:51:52   VAX-11 MACRO X0.3-11               Page  41
1.0                                                                                                                              (1)

                                     0553  1004 TS1:
                                     0553  1005 	TESTSERV	EXPREG,ERR,SATS,				-
                                     0553  1006                                           				-
                                     0553  1007 	   <1,PAGCNT_ERG,						-
                                     0553  1008 	        	PAGCNT_ERG10,ILLPAGCNT,	-  ; SFERG10
                                     0553  1009 	        	PAGCNT_ERG11,ILLPAGCNT,	-  ; SFERG11
                                     0553  1010 	        	PAGCNT_ERG12,ILLPAGCNT,	-  ; SFERG12
                                     0553  1011                                                   >,			-
                                     0553  1012                                           				-
                                     0553  1013 	   <1,RETADR_ERG,						-
                                     0553  1014 	        	RETADR_ERG20,ACCVIO,	-  ; SFERG20
                                     0553  1015 	        	RETADR_ERG21,ACCVIO,	-  ; SFERG21
                                     0553  1016 	        	RETADR_ERG22,ACCVIO,	-  ; SFERG22
                                     0553  1017 	        	RETADR_ERG23,ACCVIO,	-  ; SFERG23
                                     0553  1018 	        	RETADR_ERG24,ACCVIO,	-  ; SFERG24
                                     0553  1019                                                   >,			-
                                     0553  1020                                           				-
                                     0553  1021 	   <1,ACMODE_ERG,						-
                                     0553  1022                                                   >,			-
                                     0553  1023                                           				-
                                     0553  1024 	   <1,REGION_ERG,						-
                                     0553  1025                                                   >,			-
                                     0553  1026
                                     07F9  1027 	TS_CLEANUP		; CLEAN UP & RETURN TO TEST_SERV_EXEC
SATSSF12        - SATS SYSTEM SERVICE TESTS  (FAILING S.C.)      22-AUG-1978 03:51:52   VAX-11 MACRO X0.3-11               Page  42
1.0                                                                                                                              (1)

                                     0819  1028 TS2:
                                     0819  1029 	TESTSERV	CNTREG,ERR,SATS,				-
                                     0819  1030                                           				-
                                     0819  1031 	   <1,PAGCNT_CRG,						-
                                     0819  1032 	        	PAGCNT_CRG10,ILLPAGCNT,	-  ; SFCRG10
                                     0819  1033 	        	PAGCNT_CRG11,ILLPAGCNT,	-  ; SFCRG11
                                     0819  1034 	        	PAGCNT_CRG12,ILLPAGCNT,	-  ; SFCRG12
                                     0819  1035 	        	PAGCNT_CRG13,PAGOWNVIO,	-  ; SFCRG13
                                     0819  1036                                                   >,			-
                                     0819  1037                                           				-
                                     0819  1038 	   <1,RETADR_CRG,						-
                                     0819  1039 	        	RETADR_CRG20,ACCVIO,	-  ; SFCRG20
                                     0819  1040 	        	RETADR_CRG21,ACCVIO,	-  ; SFCRG21
                                     0819  1041 	        	RETADR_CRG22,ACCVIO,	-  ; SFCRG22
                                     0819  1042 	        	RETADR_CRG23,ACCVIO,	-  ; SFCRG23
                                     0819  1043 	        	RETADR_CRG24,ACCVIO,	-  ; SFCRG24
                                     0819  1044                                                   >,			-
                                     0819  1045                                           				-
                                     0819  1046 	   <1,ACMODE_CRG,						-
                                     0819  1047                                                   >,			-
                                     0819  1048                                           				-
                                     0819  1049 	   <1,REGION_CRG,						-
                                     0819  1050                                                   >,			-
                                     0819  1051
                                     0AC7  1052 	TS_CLEANUP		; CLEAN UP & RETURN TO TEST_SERV_EXEC
SATSSF12        - SATS SYSTEM SERVICE TESTS  (FAILING S.C.)      22-AUG-1978 03:51:52   VAX-11 MACRO X0.3-11               Page  43
1.0                                                                                                                              (1)

                                     0AE7  1053 TS3:
                                     0AE7  1054 	TESTSERV	SETPRT,ERR,SATS,				-
                                     0AE7  1055                                           				-
                                     0AE7  1056 	   <1,INADR_SPT,						-
                                     0AE7  1057 	        	INADR_SPT10,PAGOWNVIO,	-  ; SFSPT10
                                     0AE7  1058 	        	INADR_SPT11,NOPRIV,	-  ; SFSPT11
                                     0AE7  1059 	        	INADR_SPT12,LENVIO,	-  ; SFSPT12
                                     0AE7  1060 	        	INADR_SPT13,ACCVIO,	-  ; SFSPT13
                                     0AE7  1061 	        	INADR_SPT14,ACCVIO,	-  ; SFSPT14
                                     0AE7  1062                                                   >,			-
                                     0AE7  1063                                           				-
                                     0AE7  1064 	   <1,RETADR_SPT,						-
                                     0AE7  1065 	        	RETADR_SPT20,ACCVIO,	-  ; SFSPT20
                                     0AE7  1066 	        	RETADR_SPT21,ACCVIO,	-  ; SFSPT21
                                     0AE7  1067 	        	RETADR_SPT22,ACCVIO,	-  ; SFSPT22
                                     0AE7  1068                                                   >,			-
                                     0AE7  1069                                           				-
                                     0AE7  1070 	   <1,ACMODE_SPT,						-
                                     0AE7  1071                                                   >,			-
                                     0AE7  1072                                           				-
                                     0AE7  1073 	   <1,PROT_SPT,						-
                                     0AE7  1074 			PROT_SPT40,IVPROTECT,	-  ; SFSPT40
                                     0AE7  1075 			PROT_SPT41,IVPROTECT,	-  ; SFSPT41
                                     0AE7  1076                                                   >,			-
                                     0AE7  1077                                           				-
                                     0AE7  1078 	   <1,PRVPRT_SPT,						-
                                     0AE7  1079 	        	PRVPRT_SPT50,ACCVIO,	-  ; SFSPT50
                                     0AE7  1080 	        	PRVPRT_SPT51,ACCVIO,	-  ; SFSPT51
                                     0AE7  1081                                                   >,			-
                                     0AE7  1082
                                     0E47  1083 	TS_CLEANUP		; CLEAN UP & RETURN TO TEST_SERV_EXEC
SATSSF12        - SATS SYSTEM SERVICE TESTS  (FAILING S.C.)      22-AUG-1978 03:51:52   VAX-11 MACRO X0.3-11               Page  44
1.0                                                                                                                              (1)

                                     0E67  1084 TS4:
                                     0E67  1085 	TESTSERV	SETSWM,ERR,SATS,				-
                                     0E67  1086                                           				-
                                     0E67  1087 	   <1,SWPFLG_SSM,						-
                                     0E67  1088 	        	SWPFLG_SSM10,NOPRIV,	-  ; SFSSM10
                                     0E67  1089                                                   >,			-
                                     0E67  1090
                                     0F2A  1091 	TS_CLEANUP		; CLEAN UP & RETURN TO TEST_SERV_EXEC
SATSSF12        - SATS SYSTEM SERVICE TESTS  (FAILING S.C.)      22-AUG-1978 03:51:52   VAX-11 MACRO X0.3-11               Page  45
1.0             EXECUTE & CLEANUP                                                                                                (1)

                                     0F4A  1092 	.SBTTL	EXECUTE & CLEANUP
                                     0F4A  1093 EXECUTE:
                                     0F4A  1094 	TEST_SERV_EXEC			; EXECUTE ALL T. CASES IN ALL GROUPS
                                     0F72  1095 	.MDELETE (PRIV,TC_GROUP,NEXT_TEST_CASE, -
                           0000000D  0F72  1096 		  TCEND,TESTSERV,TS_CLEANUP,TEST_SERV_EXEC)
                                     0F72  1097 					; DELETE MACRO DEFINITIONS
                                     0F72  1098 CLEANUP:
                          0138   30  0F72  1099 	BSBW	MOD_MSG_PRINT		; PRINT TEST MODULE END MSG
            1C            01     F0  0F75  1100 	INSV	#1,#STS$V_INHIB_MSG,#1,MOD_MSG_CODE
   00000044'EF            01         0F78
                                     0F7E  1101 					; INHIBIT PRINTING
                                     0F7E  1102 	$EXIT_S	MOD_MSG_CODE		; EXIT TO OP SYS WITH MSG CODE
SATSSF12        - SATS SYSTEM SERVICE TESTS  (FAILING S.C.)      22-AUG-1978 03:51:52   VAX-11 MACRO X0.3-11               Page  46
1.0             TC_CONTROL                                                                                                       (1)

                                     0F8B  1104 	.SBTTL	TC_CONTROL
                                     0F8B  1105 ;++
                                     0F8B  1106 ; FUNCTIONAL DESCRIPTION:
                                     0F8B  1107 ;
                                     0F8B  1108 ;		THE TC_CONTROL SUBROUTINE IS CALLED BY THE TEST_SERV_EXEC
                                     0F8B  1109 ; MACRO TO EXECUTE A GROUP OF TEST CASES. A GROUP IS DEFINED BY A TC_GROUP
                                     0F8B  1110 ; MACRO. FOR EACH TC_GROUP MACRO, THERE IS A CORRESPONDING TESTSERV MACRO.
                                     0F8B  1111 ; TESTSERV CONTAINS CODE TO EXECUTE SYSTEM SERVICES AND CHECK THE RETURNED
                                     0F8B  1112 ; STATUS CODE VALUES. TESTSERV ARGUMENTS ARE CODED TO SPECIFY ALL THE SYSTEM
                                     0F8B  1113 ; SERVICE ARGUMENT VALUES AND THE EXPECTED STATUS CODE FOR EACH TEST CASE
                                     0F8B  1114 ; DEFINED BY A NEXT_TEST_CASE MACRO WITHIN THE GROUP. TC_CONTROL USES A
                                     0F8B  1115 ; CO-ROUTINE INTERFACE TO ENTER THE CODE OF THE APPROPRIATE TESTSERV MACRO
                                     0F8B  1116 ; IN VARIOUS PLACES. THE FIRST ENTRY OCCURS ONCE PER GROUP TO ALLOW TESTSERV
                                     0F8B  1117 ; TO DO SOME INITIALIZATION. THEN TWO ENTRIES ARE MADE FOR EACH TEST CASE IN
                                     0F8B  1118 ; THE GROUP. THE FIRST ALLOWS TESTSERV TO ISSUE THE SUBJECT SYSTEM SERVICE.
                                     0F8B  1119 ; THE SECOND ENTRY FOR THE TEST CASE CAUSES TESTSERV TO CHECK THE RETURNED
                                     0F8B  1120 ; STATUS CODE, PRINTING A FAILURE MESSAGE IF IT IS NOT THE EXPECTED CODE.
                                     0F8B  1121 ; IF THERE ARE NO MORE TEST CASES IN THE CURRENT GROUP, TESTSERV (NOT TC_CONTROL)
                                     0F8B  1122 ; RETURNS DIRECTLY TO TEST_SERV_EXEC (RSB ACTUALLY ISSUED IN TS_CLEANUP MACRO)
                                     0F8B  1123 ; FROM THIS SECOND ENTRY; OTHERWISE, CONTROL RETURNS TO TC_CONTROL WHICH
                                     0F8B  1124 ; IN TURN ENTERS TESTSERV AGAIN FOR THE NEXT TEST CASE. THE FAILURE OF A
                                     0F8B  1125 ; TEST CASE DOES NOT CAUSE TERMINATION OF THE TEST MODULE.
                                     0F8B  1126 ;
                                     0F8B  1127 ; CALLING SEQUENCE:
                                     0F8B  1128 ;
                                     0F8B  1129 ;	BSBW TC_CONTROL (ISSUED WITHIN THE TEST_SERV_EXEC MACRO)
                                     0F8B  1130 ;			(RSB IS ISSUED WITHIN THE TS_CLEANUP MACRO)
                                     0F8B  1131 ;
                                     0F8B  1132 ; INPUT PARAMETERS:
                                     0F8B  1133 ;
                                     0F8B  1134 ;	NONE
                                     0F8B  1135 ;
                                     0F8B  1136 ; IMPLICIT INPUTS:
                                     0F8B  1137 ;
                                     0F8B  1138 ;	ARGUMENTS SPECIFIED ON EACH TESTSERV MACRO MAY BE VIEWED AS
                                     0F8B  1139 ;	INPUTS, SINCE TC_CONTROL AND TESTSERV ACT AS CO-ROUTINES.
                                     0F8B  1140 ;
                                     0F8B  1141 ; OUTPUT PARAMETERS:
                                     0F8B  1142 ;
                                     0F8B  1143 ;	SEVERITY CODE FIELD OF MOD_MSG_CODE (BITS 0,1,2) IS SET TO ERROR
                                     0F8B  1144 ;	IF ANY TEST CASE IN THE CURRENT GROUP FAILS; OTHERWISE IT REMAINS
                                     0F8B  1145 ;	SET TO SUCCESSFUL.
                                     0F8B  1146 ;
                                     0F8B  1147 ; IMPLICIT OUTPUTS:
                                     0F8B  1148 ;
                                     0F8B  1149 ;	%UETP-I-TEXT,   ERROR MESSAGES ARE WRITTEN TO SYS$OUTPUT BY
                                     0F8B  1150 ;			THE TESTSERV MACRO (CO-ROUTINE WITH TC_CONTROL)
                                     0F8B  1151 ;
                                     0F8B  1152 ; COMPLETION CODES:
                                     0F8B  1153 ;
                                     0F8B  1154 ;	NONE
                                     0F8B  1155 ;
                                     0F8B  1156 ; SIDE EFFECTS:
                                     0F8B  1157 ;
                                     0F8B  1158 ;	NONE
                                     0F8B  1159 ;
                                     0F8B  1160 ;--
SATSSF12        - SATS SYSTEM SERVICE TESTS  (FAILING S.C.)      22-AUG-1978 03:51:52   VAX-11 MACRO X0.3-11               Page  47
1.0             TC_CONTROL                                                                                                       (1)

                                     0F8B  1161
                                     0F8B  1162
                                     0F8B  1163
                                     0F8B  1164 TC_CONTROL:
                 00000064'EF     DD  0F8B  1165 	PUSHL	TS_EP			; PUSH TESTSERV ENTRY POINT
                          9E     16  0F91  1166 	JSB	@(SP)+			; ENTER TESTSERV INITIALIZATION
                                     0F93  1167 10$:					; PROCESS NEXT TEST CASE
   00000056'EF            20     90  0F93  1168 	MOVB	#^A/ /,$$TSTN$$+2 	; MAKE SURE T.C. NAME HAS A BLANK
                          002F   30  0F9A  1169 	BSBW	REG_SAVE		; SAVE REGISTERS
                 00000004'FF     16  0F9D  1170 	JSB	@CURRENT_TC		; JUMP TO CURRENT TEST CASE
                          0037   30  0FA3  1171 	BSBW	REG_REST		; RESTORE REGS FOR TESTSERV
                          9E     16  0FA6  1172 	JSB	@(SP)+			; LET TESTSERV ISSUE SYSTEM SERVICE
                          0042   30  0FA8  1173 	BSBW	REG_COMP		; COMPARE REGS TO SEE IF ...
                                     0FAB  1174 					; ... SYSTEM SERVICE CHANGED ANY
                          9E     16  0FAB  1175 	JSB	@(SP)+			; LET TESTSERV CHEK S.S. STATUS CODE
   00000056'EF            2A     91  0FAD  1176 	CMPB	#^A/*/,$$TSTN$$+2	; HAS TESTSERV INDICATED FAILURE ?
                          DD     12  0FB4  1177 	BNEQU	10$			; NO -- PROCESS NEXT TEST CASE
   00000060'EF   00000088'EF     DE  0FB6  1178 	MOVAL	TEST_MOD_FAIL,TMD_ADDR	; YES -- INDICATE FAILED IN END MSG
            00            02     F0  0FC1  1179 	INSV	#ERROR,#0,#3,MOD_MSG_CODE ; ADJUST STATUS CODE FOR ERROR
   00000044'EF            03         0FC4
                          C7     11  0FCA  1180 	BRB	10$			; LOOP BAK TO PROCESS NEXT TEST CASE
                                     0FCC  1181 ;
                                     0FCC  1182 ;   TC_CONTROL RETURNS TO TEST_SERV_EXEC VIA TESTSERV (IN TS_CLEANUP MACRO)
                                     0FCC  1183 ;
SATSSF12        - SATS SYSTEM SERVICE TESTS  (FAILING S.C.)      22-AUG-1978 03:51:52   VAX-11 MACRO X0.3-11               Page  48
1.0             SUBROUTINES                                                                                                      (1)

                                     0FCC  1185 	.SBTTL	SUBROUTINES
                                     0FCC  1186 REG_SAVE:
                                     0FCC  1187 ;
                                     0FCC  1188 ;  *****************************************************************
                                     0FCC  1189 ;  *                                                               *
                                     0FCC  1190 ;  *  SAVES R0 THRU SP IN REG_SAVE_AREA                            *
                                     0FCC  1191 ;  *                                                               *
                                     0FCC  1192 ;  *****************************************************************
                                     0FCC  1193 ;
                     7FFF 8F     BB  0FCC  1194 	PUSHR	#R0_THRU_SP		; SAVE ALL REGS ON STACK
            6E            3C     28  0FD0  1195 	MOVC3	#60,(SP),REG_SAVE_AREA	; SAVE REGS (BEFORE S.S.)
                 00000008'EF         0FD3
                     7FFF 8F     BA  0FD8  1196 	POPR	#R0_THRU_SP		; CLEAN UP STACK
                                 05  0FDC  1197 	RSB				; .... AND RETURN
                                     0FDD  1198 ;
                                     0FDD  1199 ;
                                     0FDD  1200 ;
                                     0FDD  1201 ;
                                     0FDD  1202 REG_REST:
                                     0FDD  1203 ;
                                     0FDD  1204 ;
                                     0FDD  1205 ;  *****************************************************************
                                     0FDD  1206 ;  *                                                               *
                                     0FDD  1207 ;  *  RESTORES R0 THRU SP FROM REG_SAVE_AREA                       *
                                     0FDD  1208 ;  *                                                               *
                                     0FDD  1209 ;  *****************************************************************
                                     0FDD  1210 ;
            5E            3C     C2  0FDD  1211 	SUBL2	#60,SP			; MOVE SP TO MAKE ROOM FOR REGS
   00000008'EF            3C     28  0FE0  1212 	MOVC3	#60,REG_SAVE_AREA,(SP)	; MOVE REGS ONTO STACK FOR POP
                          6E         0FE7
                     7FFF 8F     BA  0FE8  1213 	POPR	#R0_THRU_SP		; RESTORE ALL REGS FOR TESTSERV
                                 05  0FEC  1214 	RSB				; ... AND RETURN
SATSSF12        - SATS SYSTEM SERVICE TESTS  (FAILING S.C.)      22-AUG-1978 03:51:52   VAX-11 MACRO X0.3-11               Page  49
1.0             SUBROUTINES                                                                                                      (1)

                                     0FED  1216 REG_COMP:
                                     0FED  1217 ;
                                     0FED  1218 ;  *****************************************************************
                                     0FED  1219 ;  *                                                               *
                                     0FED  1220 ;  *  1) PUSHES ALL REGS ONTO STACK                                *
                                     0FED  1221 ;  *  2) COMPARES REGISTER IMAGES FROM STACK WITH CORRESPONDING    *
                                     0FED  1222 ;  *       IMAGES FROM REG_SAVE_AREA FOR ALL REGISTERS SPECIFIED   *
                                     0FED  1223 ;  *       IN REG_COMP_MASK.                                       *
                                     0FED  1224 ;  *  3) FOR EACH UNEQUAL COMPARE, AN ERROR MESSAGE IS PRINTED     *
                                     0FED  1225 ;  *       (USING $FAO AND $OUTPUT SYSTEM SERVICES).               *
                                     0FED  1226 ;  *  4) POPS ALL REGS OFF OF STACK                                *
                                     0FED  1227 ;  *                                                               *
                                     0FED  1228 ;  *****************************************************************
                                     0FED  1229 ;
                     7FFF 8F     BB  0FED  1230 	PUSHR	#R0_THRU_SP		; SAVE ALL REGISTERS ON STACK
            56   00000008'EF     DE  0FF1  1231 	MOVAL	REG_SAVE_AREA,R6 	; POINT R6 TO BEG OF ...
                                     0FF8  1232 					; ... REGS (BEFORE S.S.)
            54            5E     D0  0FF8  1233 	MOVL	SP,R4			; POINT R4 TO BEG OF
                                     0FFB  1234 					; ... REGS (AFTER S.S.)
            53         FF 8F     98  0FFB  1235 	CVTBL	#-1,R3			; INITIALIZE REG_COMP_MASK INDEX
                                     0FFF  1236 REG_COMP_NEXT:
                          53     D6  0FFF  1237 	INCL	R3			; POINT TO NEXT BIT IN MASK
            53            0F     91  1001  1238 	CMPB	#15,R3			; END OF THE MASK ?
                          03     1A  1004  1239 	BGTRU	REG_COMP_CONT		; NO -- CONTINUE
                          009F   31  1006  1240 	BRW	REG_COMP_RSB		; YES -- GO TO COMMON RETURN
                                     1009  1241 REG_COMP_CONT:
            84            86     D1  1009  1242 	CMPL	(R6)+,(R4)+		; REG BEFORE = REG AFTER ?
                          F1     13  100C  1243 	BEQLU	REG_COMP_NEXT		; YES -- LOOK FOR NEXT REG
   00000000'EF            53     E1  100E  1244 	BBC	R3,REG_COMP_MASK,REG_COMP_NEXT
                          E9         1015
                                     1016  1245 					; NO -- GET NEXT IF BIT NOT SET
   00000048'EF            53     D0  1016  1246 	MOVL	R3,CLOB_REG_NO		; NO -- GIVE REG NUMBER TO FAO
   0000004C'EF         FC A6     D0  101D  1247 	MOVL	-4(R6),REG_BEFORE_SS 	; GIVE "BEFORE" CONTENTS TO FAO
   00000050'EF         FC A4     D0  1025  1248 	MOVL	-4(R4),REG_AFTER_SS  	; GIVE "AFTER" CONTENTS TO FAO
   00000056'EF            2A     90  102D  1249 	MOVB	#^A/*/,$$TSTN$$+2 	; GIVE FAILURE INDIC'N IN ERROR MSG
                                     1034  1250 ;
                                     1034  1251 	$FAO_S	ERR_MSG_FAOCTL,OUTL,OUTD,$$SNAD$$,  -
                                     1034  1252 		$$ASEQ$$,$$PSEQ$$,CLOB_REG_NO,REG_BEFORE_SS,REG_AFTER_SS
                                     1067  1253 ;
       F0AF CF       F079 CF     B0  1067  1254 	MOVW	OUTL,OUTD		; ACTUAL OUTPUT LEN IN STRING DESC'R
                                     106E  1255 	PUTMSG	<#UETP$_TEXT,#1,#OUTD>	; PRINT THE MSG
       F093 CF       0084 8F     B0  1083  1256 	MOVW	#OUTE-OUTB,OUTD		; GET MAX LEN BACK INTO DESCRIPTOR
   00000056'EF            20     90  108A  1257 	MOVB	#^A/ /,$$TSTN$$+2 	; REMOVE FAIL INDIC'N FOR NEXT MSG
   00000060'EF   00000088'EF     DE  1091  1258 	MOVAL	TEST_MOD_FAIL,TMD_ADDR	; INDICATE FAILED IN END MSG
            00            02     F0  109C  1259 	INSV	#ERROR,#0,#3,MOD_MSG_CODE ; ADJUST STATUS CODE FOR ERROR
   00000044'EF            03         109F
                          FF57   31  10A5  1260 	BRW	REG_COMP_NEXT		; GO LOOK FOR NEXT REG TO COMPARE
                                     10A8  1261 REG_COMP_RSB:
                     7FFF 8F     BA  10A8  1262 	POPR	#R0_THRU_SP		; CLEAN UP STACK
                                 05  10AC  1263 	RSB				; RETURN TO CALLER
SATSSF12        - SATS SYSTEM SERVICE TESTS  (FAILING S.C.)      22-AUG-1978 03:51:52   VAX-11 MACRO X0.3-11               Page  50
1.0             SUBROUTINES                                                                                                      (1)

                                     10AD  1265 MOD_MSG_PRINT:
                                     10AD  1266 ;
                                     10AD  1267 ;  *****************************************************************
                                     10AD  1268 ;  *                                                               *
                                     10AD  1269 ;  *  PRINTS THE TEST MODULE BEGUN/SUCCESSFUL/FAILED MESSAGES      *
                                     10AD  1270 ;  *	   (USING THE PUTMSG MACRO).                               *
                                     10AD  1271 ;  *                                                               *
                                     10AD  1272 ;  *****************************************************************
                                     10AD  1273 ;
                                     10AD  1274 	PUTMSG	<MOD_MSG_CODE,#2,TMN_ADDR,TMD_ADDR> ; PRINT MSG
                                 05  10C8  1275 	RSB				; ... AND RETURN TO CALLER
                                     10C9  1276 ;
                                     10C9  1277 CHMRTN:
                                     10C9  1278 ; **********************************************************
                                     10C9  1279 ; *
                                     10C9  1280 ; *	CHANGE MODE ROUTINE. THIS ROUTINE GETS CONTROL WHENEVER
                                     10C9  1281 ; *	A CMKRNL, CMEXEC, OR CMSUP SYSTEM SERVICE IS ISSUED
                                     10C9  1282 ; *	BY THE MODE MACRO ('TO' OPTION).  IT MERELY DOES
                                     10C9  1283 ; *	A JUMP INDIRECT ON A FIELD SET UP BY MODE. IT HAS
                                     10C9  1284 ; *	THE EFFECT OF RETURNING TO THE END OF THE MODE
                                     10C9  1285 ; *	MACRO EXPANSION.
                                     10C9  1286 ; *
                                     10C9  1287 ; *************************************************************
                                     10C9  1288 ;
                               0000  10C9  1289 	.WORD	0			; ENTRY MASK
                 00000079'FF     17  10CB  1290 	JMP	@CHM_CONT		; RETURN TO MODE MACRO IN NEW MODE
                                     10D1  1291 ;
                                     10D1  1292 ; *	RET INSTR WILL BE ISSUED IN EXPANSION OF 'MODE FROM, ....' MACRO
                                     10D1  1293 ;
                                     10D1  1294 	.END	SATSSF12
SATSSF12        - SATS SYSTEM SERVICE TESTS  (FAILING S.C.)      22-AUG-1978 03:51:52   VAX-11 MACRO X0.3-11               Page  51
SYMBOL TABLE                                                                                                                     (1)

$$$CHARS       = 00000048            PAGCNT_CRG13     000000D5 R     03   PCB$W_ASTCNT     0000003C
$$$FIRSTTC$$$  = 00000000            PAGCNT_ERG       000000BD R     03   PCB$W_BIOCNT     0000003E
$$$STRINGS     = 00000000            PAGCNT_ERG10     00000091 R     04   PCB$W_BIOLM      00000040
$$ACT$$          000000FC R     07   PAGCNT_ERG11     00000091 R     04   PCB$W_BYTCNT     00000042
$$ARG$$          00000104 R     07   PAGCNT_ERG12     00000091 R     04   PCB$W_BYTLM      00000068
$$ASEQ$$         000000F4 R     07   PCB$B_ASTACT     0000000C            PCB$W_DIOCNT     00000044
$$CALL$$         000000E8 R     07   PCB$B_ASTEN      0000000D            PCB$W_DIOLM      00000046
$$DISP$$         000001EF R     07   PCB$B_PRI        0000000B            PCB$W_FILCNT     00000048
$$ERR$$          000001A9 R     07   PCB$B_PRIB       00000033            PCB$W_GPGCNT     00000038
$$EXP$$          00000100 R     07   PCB$B_TYPE       0000000A            PCB$W_GRP        00000022
$$INIT$$         000000EC R     07   PCB$B_WEFC       00000032            PCB$W_MEM        00000020
$$MAXP$$       = 00000005            PCB$C_LENGTH     0000007C            PCB$W_MTXCNT     0000000E
$$PSEQ$$         000000F8 R     07   PCB$K_LENGTH     0000007C            PCB$W_PPGCNT     0000003A
$$SNAD$$         000000F0 R     07   PCB$L_ASTQBL     00000014            PCB$W_PRCCNT     0000006A
$$T1           = 00000004            PCB$L_ASTQFL     00000010            PCB$W_SIZE       00000008
$$T2           = 00000009            PCB$L_EFC2P      00000058            PCB$W_STATE      00000030
$$TSTN$$         00000054 R     04   PCB$L_EFC3P      0000005C            PCB$W_TMBU       00000036
ACMODE_CRG       000000C9 R     03   PCB$L_EFCS       00000050            PCB$W_TQCNT      0000004A
ACMODE_ERG       000000C9 R     03   PCB$L_EFCU       00000054            PHD$B_ASTLVL     000000CF
ACMODE_SPT       000000C9 R     03   PCB$L_EFWM       0000004C            PHD$B_DFPFC      00000038
BIT...         = 00000000            PCB$L_OWNER      0000001C            PHD$B_PAGFIL     0000001F
CHMRTN           000010C9 R     07   PCB$L_PHD        00000064            PHD$B_PGTBPFC    00000039
CHM_CONT         00000079 R     04   PCB$L_PHYPCB     00000018            PHD$C_LENGTH     00000118
CLEANUP          00000F72 R     07   PCB$L_PID        00000060            PHD$C_PHDPAGCTX= 00000008
CLOB_REG_NO      00000048 R     04   PCB$L_PQB        0000004C            PHD$K_LENGTH     00000118
CTL$GL_PHD       ********   X   07   PCB$L_SQBL       00000004            PHD$L_BIOCNT     00000054
CURRENT_TC       00000004 R     04   PCB$L_SQFL       00000000            PHD$L_CPULIM     00000058
EMPTY            00000000 R     05   PCB$L_STS        00000028            PHD$L_CPUTIM     0000003C
ERROR          = 00000002            PCB$L_UIC        00000020            PHD$L_DIOCNT     00000050
ERR_MSG_FAOCTL   00000002 R     03   PCB$L_WSSWP      00000024            PHD$L_ESP        0000007C
EXECUTE          00000F4A R     07   PCB$L_WTIME      0000002C            PHD$L_FREP0VA    00000028
EXP_RANGE        000000BD R     04   PCB$T_LNAME      0000006C            PHD$L_FREP1VA    00000030
GBL...         = 00000000            PCB$V_ASTPEN   = 00000011            PHD$L_FREPTECNT  0000002C
GRP_TOTAL      = 00000004            PCB$V_BATCH    = 0000000E            PHD$L_KSP        00000078
INADR            000000A9 R     03   PCB$V_DELPEN   = 00000001            PHD$L_P0BR       000000C8
INADR_SPT        000000AD R     04   PCB$V_FORCPEN  = 00000002            PHD$L_P0LRASTL   000000CC
INADR_SPT10      000000B5 R     04   PCB$V_HIBER    = 00000013            PHD$L_P1BR       000000D0
INADR_SPT11      000000E1 R     03   PCB$V_INQUAN   = 00000003            PHD$L_P1LR       000000D4
INADR_SPT12      000000C5 R     04   PCB$V_LOGIN    = 00000014            PHD$L_PAGEFLTS   0000004C
INADR_SPT13    = 00000000            PCB$V_NETWRK   = 00000015            PHD$L_PAGFIL     0000001C
INADR_SPT14      00000008 R     06   PCB$V_NOACNT   = 0000000F            PHD$L_PC         000000C0
INFO           = 00000003            PCB$V_NODELET  = 00000017            PHD$L_PCB        00000078
LIB$SIGNAL       ********   X   07   PCB$V_PHDRES   = 00000012            PHD$L_PGFLCNT    00000034
MEXIT          = 00000000            PCB$V_PSWAPM   = 00000004            PHD$L_PGFLQUOTA  0000005C
MOD_MSG_CODE     00000044 R     04   PCB$V_PWRAST   = 00000016            PHD$L_PSL        000000C4
MOD_MSG_PRINT    000010AD R     07   PCB$V_RES      = 00000000            PHD$L_PSTBASOFF  00000020
NARGS          = 00000010            PCB$V_RESPEN   = 00000005            PHD$L_PTWSLELCK  00000064
NOACCESS         00000000 R     06   PCB$V_SSFEXC   = 00000006            PHD$L_PTWSLEVAL  00000068
ONES             000000B5 R     03   PCB$V_SSFEXCE  = 00000007            PHD$L_R0         00000088
OUTB             00000125 R     07   PCB$V_SSFEXCS  = 00000008            PHD$L_R1         0000008C
OUTD             0000011D R     07   PCB$V_SSFEXCU  = 00000009            PHD$L_R10        000000B0
OUTE             000001A9 R     07   PCB$V_SSRWAIT  = 0000000A            PHD$L_R11        000000B4
OUTL             000000E4 R     07   PCB$V_SUSPEN   = 0000000B            PHD$L_R12        000000B8
PAGCNT_CRG       000000D1 R     03   PCB$V_SWPVBN   = 00000010            PHD$L_R13        000000BC
PAGCNT_CRG10     00000091 R     04   PCB$V_WAKEPEN  = 0000000C            PHD$L_R2         00000090
PAGCNT_CRG11     00000091 R     04   PCB$V_WALL     = 0000000D            PHD$L_R3         00000094
PAGCNT_CRG12     00000091 R     04   PCB$W_APTCNT     00000034            PHD$L_R4         00000098
SATSSF12        - SATS SYSTEM SERVICE TESTS  (FAILING S.C.)      22-AUG-1978 03:51:52   VAX-11 MACRO X0.3-11               Page  52
SYMBOL TABLE                                                                                                                     (1)

PHD$L_R5         0000009C            PRV$V_BUGCHK   = 00000017            PSL$V_TBIT     = 00000004
PHD$L_R6         000000A0            PRV$V_CMEXEC   = 00000001            PSL$V_TP       = 0000001E
PHD$L_R7         000000A4            PRV$V_CMKRNL   = 00000000            R0_THRU_SP     = 00007FFF
PHD$L_R8         000000A8            PRV$V_DETACH   = 00000005            REGION_CRG       000000CD R     03
PHD$L_R9         000000AC            PRV$V_DIAGNOSE = 00000006            REGION_ERG       000000CD R     03
PHD$L_REFERFLT   00000014            PRV$V_EXQUOTA  = 00000013            REGS             0000007D R     04
PHD$L_SSP        00000080            PRV$V_GROUP    = 00000008            REG_AFTER_SS     00000050 R     04
PHD$L_USP        00000084            PRV$V_GRPNAM   = 00000003            REG_BEFORE_SS    0000004C R     04
PHD$L_WSL        00000118            PRV$V_LOG_IO   = 00000007            REG_COMP         00000FED R     07
PHD$M_DALCSTX  = 00000002            PRV$V_MOUNT    = 00000011            REG_COMP_CONT    00001009 R     07
PHD$M_PFMFLG   = 00000001            PRV$V_NETMBX   = 00000014            REG_COMP_MASK    00000000 R     03
PHD$M_WSPEAKCHK= 00000004            PRV$V_NOACNT   = 00000009            REG_COMP_NEXT    00000FFF R     07
PHD$Q_PRIVMSK    00000000            PRV$V_OPER     = 00000012            REG_COMP_RSB     000010A8 R     07
PHD$S_ASTLVL   = 00000008            PRV$V_PHY_IO   = 00000016            REG_REST         00000FDD R     07
PHD$S_P0LR     = 00000018            PRV$V_PRMCEB   = 0000000A            REG_SAVE         00000FCC R     07
PHD$V_ASTLVL   = 00000018            PRV$V_PRMGBL   = 00000018            REG_SAVE_AREA    00000008 R     04
PHD$V_DALCSTX  = 00000001            PRV$V_PRMMBX   = 0000000B            RETADR           00000068 R     04
PHD$V_P0LR     = 00000000            PRV$V_PSWAPM   = 0000000C            RETADR_CRG       0000009D R     04
PHD$V_PFMFLG   = 00000000            PRV$V_SETPRI   = 0000000D            RETADR_CRG13     000000A5 R     04
PHD$V_WSPEAKCHK= 00000002            PRV$V_SETPRV   = 0000000E            RETADR_CRG20   = 00000001
PHD$W_ASTLM      00000044            PRV$V_SYSGBL   = 00000019            RETADR_CRG21     000000D9 R     03
PHD$W_BAK        00000048            PRV$V_SYSNAM   = 00000002            RETADR_CRG22   = 000001FC R     05
PHD$W_DFWSCNT    0000001A            PRV$V_TMPMBX   = 0000000F            RETADR_CRG23   = 000001FF R     05
PHD$W_EMPTPG     000000D8            PRV$V_VOLPRO   = 00000015            RETADR_CRG24   = 000001F9 R     05
PHD$W_EXTDYNWS   00000076            PRV$V_WORLD    = 00000010            RETADR_ERG       00000095 R     04
PHD$W_FILLM      00000060            PRVPRT           00000070 R     04   RETADR_ERG20   = 00000001
PHD$W_FLAGS      0000003A            PRVPRT_SPT       000000D5 R     04   RETADR_ERG21     000000C1 R     03
PHD$W_PHVINDEX   00000046            PRVPRT_SPT50   = 00000001            RETADR_ERG22   = 000001FC R     05
PHD$W_PRCLM      00000042            PRVPRT_SPT51     000000FD R     03   RETADR_ERG23   = 000001FF R     05
PHD$W_PST        00000020            PSL$C_EXEC     = 00000001            RETADR_ERG24   = 000001F9 R     05
PHD$W_PSTBASMAX  0000004A            PSL$C_KERNEL   = 00000000            RETADR_SPT       000000CD R     04
PHD$W_PSTFREE    00000026            PSL$C_SUPER    = 00000002            RETADR_SPT20   = 00000001
PHD$W_PSTLAST    00000024            PSL$C_USER     = 00000003            RETADR_SPT21     000000E9 R     03
PHD$W_PTCNTACT   00000070            PSL$M_CM       = 80000000            RETADR_SPT22   = 000001F9 R     05
PHD$W_PTCNTLCK   0000006C            PSL$M_CURMOD   = 03000000            SATSSF12         00000000 R     07
PHD$W_PTCNTMAX   00000072            PSL$M_DV       = 00000080            SEVERE         = 00000004
PHD$W_PTCNTVAL   0000006E            PSL$M_FPD      = 08000000            SHR$K_SHRDEF   = 00000001
PHD$W_QUANT      00000040            PSL$M_FU       = 00000040            SHR$_ABEND     = 000010D8
PHD$W_TQLM       00000062            PSL$M_IPL      = 001F0000            SHR$_ABENDD    = 000010E0
PHD$W_WSAUTH     0000000A            PSL$M_IS       = 04000000            SHR$_ABENDT    = 000010E8
PHD$W_WSDYN      0000000E            PSL$M_IV       = 00000020            SHR$_APPENDEDB = 00001000
PHD$W_WSFLUID    00000074            PSL$M_PRVMOD   = 00C00000            SHR$_APPENDEDR = 00001008
PHD$W_WSLAST     00000012            PSL$M_SAFBITS  = 000037FF            SHR$_ATPC      = 00001158
PHD$W_WSLIST     00000008            PSL$M_TBIT     = 00000010            SHR$_BADBYTE   = 00001010
PHD$W_WSLOCK     0000000C            PSL$M_TP       = 40000000            SHR$_BADCOPIES = 00001160
PHD$W_WSLX       0000004A            PSL$S_CURMOD   = 00000002            SHR$_BADDELIM  = 00001118
PHD$W_WSNEXT     00000010            PSL$S_IPL      = 00000005            SHR$_BADFIELD  = 00001018
PHD$W_WSQUOTA    00000018            PSL$S_PRVMOD   = 00000002            SHR$_BADFORM   = 00001168
PRIVMASK         00000071 R     04   PSL$V_CM       = 0000001F            SHR$_BADJOBID  = 00001170
PROT             000000B1 R     03   PSL$V_CURMOD   = 00000018            SHR$_BADJOBNAME= 00001178
PROT_SPT         000000F1 R     03   PSL$V_DV       = 00000007            SHR$_BADKEY    = 00001108
PROT_SPT40       000000F5 R     03   PSL$V_FPD      = 0000001B            SHR$_BADLOGIC  = 00001120
PROT_SPT41       000000F9 R     03   PSL$V_FU       = 00000006            SHR$_BADLOGICPC= 00001150
PRT$C_NA         ********   X   03   PSL$V_IPL      = 00000010            SHR$_BADLONG   = 00001020
PRT$C_RESERVED   ********   X   03   PSL$V_IS       = 0000001A            SHR$_BADPRTY   = 00001180
PRT$C_UW         ********   X   03   PSL$V_IV       = 00000005            SHR$_BADQNAME  = 00001188
PRV$V_ALLSPOOL = 00000004            PSL$V_PRVMOD   = 00000016            SHR$_BADTIME   = 00001190
SATSSF12        - SATS SYSTEM SERVICE TESTS  (FAILING S.C.)      22-AUG-1978 03:51:52   VAX-11 MACRO X0.3-11               Page  53
SYMBOL TABLE                                                                                                                     (1)

SHR$_BADVALUE  = 00001110            SS$_IVPROTECT    ********   X   07   TC3              000003E4 R     07
SHR$_BADWORD   = 00001028            SS$_LENVIO       ********   X   07   TC4              00000504 R     07
SHR$_BEGIN     = 00001030            SS$_NOPRIV       ********   X   07   TCG_NO         = 00000004
SHR$_BEGIND    = 00001038            SS$_PAGOWNVIO    ********   X   07   TC_CONTROL       00000F8B R     07
SHR$_BEGINT    = 00001040            STS$K_ERROR    = 00000002            TEST_MOD_BEG     00000077 R     03
SHR$_CLICB     = 00001048            STS$K_INFO     = 00000003            TEST_MOD_FAIL    00000088 R     03
SHR$_CLOSEDEL  = 00001218            STS$K_SEVERE   = 00000004            TEST_MOD_NAME    0000006E R     03
SHR$_CLOSEIN   = 00001050            STS$K_SUCCESS  = 00000001            TEST_MOD_NAME_D  0000008F R     03
SHR$_CLOSEOUT  = 00001058            STS$K_WARNING  = 00000000            TEST_MOD_SUCC    0000007D R     03
SHR$_CONFDEL   = 000011F8            STS$M_CODE     = 00007FF8            TMD_ADDR         00000060 R     04
SHR$_COPIEDB   = 00001060            STS$M_COND_ID  = 0FFFFFF8            TMN_ADDR         0000005C R     04
SHR$_COPIEDR   = 00001068            STS$M_CONTROL  = F0000000            TPID             00000000 R     04
SHR$_CREATED   = 00001070            STS$M_CUST_DEF = 08000000            TS1              00000553 R     07
SHR$_DELETED   = 00001200            STS$M_FAC_NO   = 0FFF0000            TS2              00000819 R     07
SHR$_DELINTERR = 00001240            STS$M_FAC_SP   = 00008000            TS3              00000AE7 R     07
SHR$_DELVER    = 00001208            STS$M_INHIB_MSG= 10000000            TS4              00000E67 R     07
SHR$_DIRTOOBUS = 00001220            STS$M_MSG_NO   = 0000FFF8            TS_EP            00000064 R     04
SHR$_ENDED     = 00001078            STS$M_SEVERITY = 00000007            TTNAME           0000009F R     03
SHR$_ENDEDD    = 00001080            STS$M_SUCCESS  = 00000001            UETP$_ABORTC   = 0074832B
SHR$_ENDEDT    = 00001088            STS$S_CODE     = 0000000C            UETP$_CONF     = 007480D1
SHR$_FILNOTDEL = 000011F0            STS$S_COND_ID  = 00000019            UETP$_DATAER   = 00748010
SHR$_FILNOTPUR = 00001230            STS$S_CONTROL  = 00000004            UETP$_DDB      = 007480E1
SHR$_FILPURGED = 00001250            STS$S_CUST_DEF = 00000001            UETP$_DENOSU   = 00748333
SHR$_HASHCONCAT= 000011D8            STS$S_FAC_NO   = 0000000C            UETP$_DESTP    = 007481A2
SHR$_HIGHVER   = 00001148            STS$S_FAC_SP   = 00000001            UETP$_DEUNUS   = 0074819A
SHR$_IDXCONCAT = 00001138            STS$S_INHIB_MSG= 00000001            UETP$_ERBOX    = 00748008
SHR$_INCOMPAT  = 000011E0            STS$S_MSG_NO   = 0000000D            UETP$_SATSMS   = 007480D9
SHR$_NEWFILES  = 00001090            STS$S_SEVERITY = 00000003            UETP$_TEXT     = 00741133
SHR$_NOFILPURG = 00001228            STS$S_SUCCESS  = 00000001            UETP$_UCB      = 007480E9
SHR$_NOJOBID   = 000011A0            STS$V_CODE     = 00000003            UETP$_USER     = 0074833B
SHR$_NOJOBNAME = 000011A8            STS$V_COND_ID  = 00000003            WARNING        = 00000000
SHR$_NOQUEUE   = 00001198            STS$V_CONTROL  = 0000001C
SHR$_NOTCMPLT  = 000011C0            STS$V_CUST_DEF = 0000001B
SHR$_NOTCOPIED = 000011B8            STS$V_FAC_NO   = 00000010
SHR$_NOVALUE   = 00001100            STS$V_FAC_SP   = 0000000F
SHR$_NOWILD    = 00001128            STS$V_INHIB_MSG= 0000001C
SHR$_OPENIN    = 00001098            STS$V_MSG_NO   = 00000003
SHR$_OPENOUT   = 000010A0            STS$V_SEVERITY = 00000000
SHR$_OVERLAY   = 000010A8            STS$V_SUCCESS  = 00000000
SHR$_PARSEFAIL = 00001248            SUCCESS        = 00000001
SHR$_PURGEVER  = 00001210            SWPFLG_SSM       000000FE R     03
SHR$_READERR   = 000010B0            SWPFLG_SSM10     00000102 R     03
SHR$_RELCONCAT = 00001140            SYS$CMEXEC       ********   X   07
SHR$_REPLACED  = 000010B8            SYS$CMKRNL       ********   X   07
SHR$_RMSERROR  = 000011C8            SYS$CNTREG       ********   X   07
SHR$_SEARCHFAIL= 00001238            SYS$DELTVA       ********   X   07
SHR$_SYNTAX    = 000010F8            SYS$EXIT         ********   X   07
SHR$_SYSERROR  = 000011B0            SYS$EXPREG       ********   X   07
SHR$_SYSERRORPC= 000010F0            SYS$FAO          ********   X   07
SHR$_TEXT      = 00001130            SYS$FAOL         ********   X   07
SHR$_UNXPCTSTS = 000011D0            SYS$HIBER        ********   X   07
SHR$_VALERR    = 000011E8            SYS$SETPRN       ********   X   07
SHR$_WILDCONCAT= 000010C0            SYS$SETPRT       ********   X   07
SHR$_WILDOUTVER= 000010C8            SYS$SETSWM       ********   X   07
SHR$_WRITEERR  = 000010D0            SYS$WAKE         ********   X   07
SS$_ACCVIO       ********   X   07   TC1              0000024A R     07
SS$_ILLPAGCNT    ********   X   07   TC2              000002DF R     07
SATSSF12        - SATS SYSTEM SERVICE TESTS  (FAILING S.C.)      22-AUG-1978 03:51:52   VAX-11 MACRO X0.3-11               Page  54
PROGRAM SECTION SYNOPSIS                                                                                                         (1)


PROGRAM SECTION SYNOPSIS

.  ABS  .        00000000      00     NOPIC   USR   CON   ABS   LCL NOSHR NOEXE NORD  NOWRT BYTE
. BLANK .        00000000      01     NOPIC   USR   CON   REL   LCL NOSHR   EXE   RD    WRT BYTE
$ABS$            0000011C      02     NOPIC   USR   CON   ABS   LCL NOSHR   EXE   RD    WRT BYTE
RODATA           00000106      03     NOPIC   USR   CON   REL   LCL NOSHR NOEXE   RD  NOWRT LONG
RWDATA           000000D6      04     NOPIC   USR   CON   REL   LCL NOSHR NOEXE   RD    WRT BYTE
SATS_ACCVIO_1    00000200      05     NOPIC   USR   CON   REL   LCL NOSHR NOEXE   RD    WRT PAGE
SATS_ACCVIO_2    00000200      06     NOPIC   USR   CON   REL   LCL NOSHR NOEXE   RD    WRT PAGE
SATSSF12         000010D1      07     NOPIC   USR   CON   REL   LCL NOSHR   EXE   RD    WRT LONG


THERE WERE NO ERRORS OR WARNINGS.
2458. BYTES LEFT IN FREE MEMORY POOL.
3112. BYTES OF RECLAIMED MEMORY.
OBJ$:SATSSF12,LIS$:SATSSF12/-SP=EXECML$/ML,LIB$:SYSTST.MLB/ML,SRC$:SATSSF12
70 MLB DIR RDS - 1268 GETS TO DEFINE 49 MACROS. 94 INTER. FILE WRITES.
