SATSSS71        SATS SYSTEM SERVICE TESTS  $CNTREG (SUCC S.C.)   22-AUG-1978 04:15:29   VAX-11 MACRO X0.3-11               Page   0
TABLE OF CONTENTS

   (1)      48  DECLARATIONS
   (1)      78  CONDITION TABLES
   (1)     115  TM_SETUP, TM_CLEANUP
   (1)     178  CONDITION SUBROUTINES - SETUP AND CLEANUP
   (1)     248  FORM_CONDS
   (1)     341  VERIFY
   (1)     471  VFY_CLEANUP
SATSSS71        SATS SYSTEM SERVICE TESTS  $CNTREG (SUCC S.C.)   22-AUG-1978 04:15:29   VAX-11 MACRO X0.3-11               Page   1
1.0                                                                                                                              (1)

                                     0000     1 	.TITLE	SATSSS71 SATS SYSTEM SERVICE TESTS  $CNTREG (SUCC S.C.)
                                     0000     2 	.IDENT	/1.0/
                                     0000     3
                                     0000     4 ;
                                     0000     5 ;			  COPYRIGHT (c) 1977,1978 BY
                                     0000     6 ;	      DIGITAL EQUIPMENT CORPORATION, MAYNARD, MASS.
                                     0000     7 ;
                                     0000     8 ; THIS SOFTWARE IS FURNISHED UNDER A LICENSE AND MAY BE USED AND  COPIED
                                     0000     9 ; ONLY  IN  ACCORDANCE  WITH  THE  TERMS  OF  SUCH  LICENSE AND WITH THE
                                     0000    10 ; INCLUSION OF THE ABOVE COPYRIGHT NOTICE.  THIS SOFTWARE OR  ANY  OTHER
                                     0000    11 ; COPIES  THEREOF MAY NOT BE PROVIDED OR OTHERWISE MADE AVAILABLE TO ANY
                                     0000    12 ; OTHER PERSON.  NO TITLE TO AND OWNERSHIP OF  THE  SOFTWARE  IS  HEREBY
                                     0000    13 ; TRANSFERRED.
                                     0000    14 ;
                                     0000    15 ; THE INFORMATION IN THIS SOFTWARE IS SUBJECT TO CHANGE  WITHOUT  NOTICE
                                     0000    16 ; AND  SHOULD  NOT  BE  CONSTRUED  AS  A COMMITMENT BY DIGITAL EQUIPMENT
                                     0000    17 ; CORPORATION.
                                     0000    18 ;
                                     0000    19 ; DIGITAL ASSUMES NO RESPONSIBILITY FOR THE USE OR  RELIABILITY  OF  ITS
                                     0000    20 ; SOFTWARE ON EQUIPMENT WHICH IS NOT SUPPLIED BY DIGITAL.
                                     0000    21 ;
                                     0000    22
                                     0000    23 ;++
                                     0000    24 ; FACILITY:	SYSTST (SATS SYSTEM SERVICE TESTS)
                                     0000    25 ;
                                     0000    26 ; ABSTRACT:
                                     0000    27 ;
                                     0000    28 ;		THIS MODULE CONTAINS SUBROUTINES WHICH, WHEN LINKED
                                     0000    29 ; WITH SUCCOMMON.OBJ, FORM TEST MODULE SATSSS71 TO TEST SUCCESSFUL
                                     0000    30 ; OPERATION OF THE $CNTREG SYSTEM SERVICE. THE SERVICE IS INVOKED
                                     0000    31 ; UNDER VARIOUS INPUT CONDITIONS WITH VARYING INPUT PARAMETERS. ONLY
                                     0000    32 ; SUCCESSFUL STATUS CODES ARE EXPECTED IN THIS TEST MODULE.  CORRECT
                                     0000    33 ; OPERATION OF THE SERVICE FOR EACH OF ITS ISSUANCES IS VERIFIED BY
                                     0000    34 ; CHECKING FOR AN SS$_NORMAL STATUS CODE, EXPECTED RETURN ARGUMENTS
                                     0000    35 ; AND EXPECTED FUNCTIONALITY PERFORMED.
                                     0000    36 ;
                                     0000    37 ; ENVIRONMENT:	USER MODE IMAGE; NEEDS CMKRNL PRIVILEGE,
                                     0000    38 ;		DYNAMICALLY ACQUIRES OTHER PRIVILEGES, AS NEEDED.
                                     0000    39 ;
                                     0000    40 ; AUTHOR: THOMAS L. CAFARELLA,		CREATION DATE: JUL, 1977
                                     0000    41 ;
                                     0000    42 ; MODIFIED BY:
                                     0000    43 ;
                                     0000    44 ;	, : VERSION
                                     0000    45 ; 01	-
                                     0000    46 ;--
SATSSS71        SATS SYSTEM SERVICE TESTS  $CNTREG (SUCC S.C.)   22-AUG-1978 04:15:29   VAX-11 MACRO X0.3-11               Page   2
1.0             DECLARATIONS                                                                                                     (1)

                                     0000    48 	.SBTTL	DECLARATIONS
                                     0000    49 ;
                                     0000    50 ; INCLUDE FILES:
                                     0000    51 ;
                                     0000    52 	$PRVDEF				; PRIVILEGE BIT DEFINITIONS
                                     0000    53 	$PHDDEF				; PROCESS HEADER OFFSETS
                                     0000    54 	$PSLDEF				; PROCESSOR STATUS LONGWORD DEFINITIONS
                                     0000    55 ;
                                     0000    56 ; MACROS:
                                     0000    57 ;
                                     0000    58 ;
                                     0000    59 ; EQUATED SYMBOLS:
                                     0000    60 ;
                                     0000    61 ;
                                     0000    62 ; OWN STORAGE:
                                     0000    63 ;
SATSSS71        SATS SYSTEM SERVICE TESTS  $CNTREG (SUCC S.C.)   22-AUG-1978 04:15:29   VAX-11 MACRO X0.3-11               Page   3
1.0             DECLARATIONS                                                                                                     (1)

                                 00000000    65 	.PSECT	RODATA,RD,NOWRT,NOEXE,LONG
                                     0000    66 TEST_MOD_NAME::	STRING	C,<SATSSS71>	; TEST MODULE NAME
                                     0009    67 TEST_MOD_NAME_D: STRING	I,<SATSSS71>	; TEST MODULE NAME DESCRIPTOR
                                     0019    68 MSG1_INP_CTL:	STRING	I,<  SSCRG!4ZW: CONDITIONS:>
                                     0039    69 					; FAO CTL STRING FOR MSG1 IN SUCCOMMON.MAR
                                     0039    70 MSG3_ERR_CTL::	STRING	I,< *SSCRG!4ZW: !AS>
                                     0051    71 					; FAO CTL STRING FOR MSG3 IN SUCCOMMON.MAR
SATSSS71        SATS SYSTEM SERVICE TESTS  $CNTREG (SUCC S.C.)   22-AUG-1978 04:15:29   VAX-11 MACRO X0.3-11               Page   4
1.0             DECLARATIONS                                                                                                     (1)

                                 00000000    73 	.PSECT	RWDATA,RD,WRT,NOEXE,LONG
                           00000008  0000    74 PRIVMASK:	.BLKQ	1		; ADDR OF PRIVILEGE MASK (IN PHD)
                           00000010  0008    75 RETADR:		.BLKQ	1		; RETADR ARGUMENT FOR SUBJECT CNTREG
                           00000018  0010    76 RETADR_ERG:	.BLKQ	1		; RETADR ARGUMENT FOR PRELIM EXPREG
SATSSS71        SATS SYSTEM SERVICE TESTS  $CNTREG (SUCC S.C.)   22-AUG-1978 04:15:29   VAX-11 MACRO X0.3-11               Page   5
1.0             CONDITION TABLES                                                                                                 (1)

                                     0018    78 	.SBTTL	CONDITION TABLES
                                     0018    79 ;
                                     0018    80 ;	***** CONDITION TABLES FOR CNTREG SYSTEM SERVICE *****
                                     0018    81 ;
                                     0018    82 	COND	1,LONG,<PAGCNT>,-
                                     0018    83 		  <SMALL COUNT>,-
                                     0018    84 		  <LARGE COUNT>,-
                                     0018    85
                           00000005  0040    86 		    .LONG	5
                           00000019  0044    87 		    .LONG	25
                                     0048    88 ;
                                     0048    89 	COND	2,LONG,<REGION>,-
                                     0048    90 		  <PROGRAM>,-
                                     0048    91 		  <CONTROL>,-
                                     0048    92
                           00000000  0068    93 		    .LONG	0	; PROGRAM
                           00000001  006C    94 		    .LONG	1	; CONTROL
                                     0070    95 ;
                                     0070    96 	COND	3,LONG,<ACMODE>,-
                                     0070    97 		  <KERNEL>,-
                                     0070    98 		  <EXEC>,-
                                     0070    99 		  <SUPER>,-
                                     0070   100 		  <USER>,-
                                     0070   101
                           00000000  009F   102 		    .LONG	PSL$C_KERNEL
                           00000001  00A3   103 		    .LONG	PSL$C_EXEC
                           00000002  00A7   104 		    .LONG	PSL$C_SUPER
                           00000003  00AB   105 		    .LONG	PSL$C_USER
                                     00AF   106 ;
                                     00AF   107 	COND	4,NOTARG,<PREVIOUS CONDITION OF CONTRACTED AREA>,-
                                     00AF   108 		  <PREVIOUSLY EXPANDED BY EXPREG>,-
                                     00AF   109 		  <PREVIOUSLY CREATED BY CRETVA>,-
                                     00AF   110
                                     0119   111 	COND	5,NULL
                                     011A   112
                                 00000000   113 	.PSECT	SATSSS71,RD,WRT,EXE
SATSSS71        SATS SYSTEM SERVICE TESTS  $CNTREG (SUCC S.C.)   22-AUG-1978 04:15:29   VAX-11 MACRO X0.3-11               Page   6
1.0             TM_SETUP, TM_CLEANUP                                                                                             (1)

                                     0000   115 	.SBTTL	TM_SETUP, TM_CLEANUP
                                     0000   116 ;++
                                     0000   117 ; FUNCTIONAL DESCRIPTION:
                                     0000   118 ;
                                     0000   119 ;		TM_SETUP AND TM_CLEANUP ARE CALLED TO PERFORM
                                     0000   120 ; REQUIRED HOUSEKEEPING AT THE BEGINNING AND END, RESPECTIVELY, OF
                                     0000   121 ; TEST MODULE EXECUTION.
                                     0000   122 ;
                                     0000   123 ; CALLING SEQUENCE:
                                     0000   124 ;
                                     0000   125 ;	BSBW TM_SETUP   BSBW TM_CLEANUP
                                     0000   126 ;
                                     0000   127 ; INPUT PARAMETERS:
                                     0000   128 ;
                                     0000   129 ;	NONE
                                     0000   130 ;
                                     0000   131 ; IMPLICIT INPUTS:
                                     0000   132 ;
                                     0000   133 ;	NONE
                                     0000   134 ;
                                     0000   135 ; OUTPUT PARAMETERS:
                                     0000   136 ;
                                     0000   137 ;	NONE
                                     0000   138 ;
                                     0000   139 ; IMPLICIT OUTPUTS:
                                     0000   140 ;
                                     0000   141 ;	TM_SETUP:  COND TABLE INDEX REGISTERS (R2,3,4,5,6) CLEARED;
                                     0000   142 ;		   ALL PRIVILEGES ACQUIRED.
                                     0000   143 ;
                                     0000   144 ; COMPLETION CODES:
                                     0000   145 ;
                                     0000   146 ;	EFLAG SET TO NON-ZERO IF ERROR ENCOUNTERED.
                                     0000   147 ;
                                     0000   148 ; SIDE EFFECTS:
                                     0000   149 ;
                                     0000   150 ;	SS_CHECK AND ERR_EXIT MACROS CAUSE PREMATURE EXIT
                                     0000   151 ;	(VIA RSB) IF ERROR ENCOUNTERED.
                                     0000   152 ;
                                     0000   153 ;--
                                     0000   154
                                     0000   155
                                     0000   156
                                     0000   157 TM_SETUP::
                          52     D4  0000   158 	CLRL	R2			; INITIALIZE
                          53     D4  0002   159 	CLRL	R3			; .. CONDITION
                          54     D4  0004   160 	CLRL	R4			; .... TABLE
                          55     D4  0006   161 	CLRL	R5			; ...... INDEX
                          56     D4  0008   162 	CLRL	R6			; ........ REGISTERS
                          FFF3'  30  000A   163 	BSBW	MOD_MSG_PRINT		; PRINT TEST MODULE BEGIN MSG
   00000000'EF   00000000'EF     DE  000D   164 	MOVAL	TEST_MOD_SUCC,TMD_ADDR	; ASSUME END MSG WILL SHOW SUCCESS
            00   00000000'8F     F0  0018   165 	INSV	#SUCCESS,#0,#3,MOD_MSG_CODE ; ADJUST STATUS CODE FOR SUCCESS
   00000000'EF            03         001F
                                     0025   166 	MODE	TO,5$,KRNL		; KERNEL MODE TO ACCESS PHD
            59   00000000'9F     D0  0048   167 	MOVL	@#CTL$GL_PHD,R9		; GET PROCESS HEADER ADDRESS
   00000000'EF            69     DE  004F   168 	MOVAL	PHD$Q_PRIVMSK(R9),PRIVMASK ; GET PRIV MASK ADDRESS
                                     0056   169 	MODE	FROM,5$	; BACK TO USER MODE
                                     0057   170 	PRIV	ADD,ALL			; GET ALL PRIVILEGES
SATSSS71        SATS SYSTEM SERVICE TESTS  $CNTREG (SUCC S.C.)   22-AUG-1978 04:15:29   VAX-11 MACRO X0.3-11               Page   7
1.0             TM_SETUP, TM_CLEANUP                                                                                             (1)

                                     0080   171 	$SETPRN_S TEST_MOD_NAME_D 	; SET PROCESS NAME
                                     008D   172 	SS_CHECK  NORMAL		; CHECK STATUS CODE RETURNED FROM SETPRN
                                 05  00BB   173 	RSB				; RETURN TO MAIN ROUTINE
                                     00BC   174 TM_CLEANUP::
                          FF41'  30  00BC   175 	BSBW	MOD_MSG_PRINT		; PRINT TEST MODULE END MSG
                                 05  00BF   176 	RSB				; RETURN TO MAIN ROUTINE
SATSSS71        SATS SYSTEM SERVICE TESTS  $CNTREG (SUCC S.C.)   22-AUG-1978 04:15:29   VAX-11 MACRO X0.3-11               Page   8
1.0             CONDITION SUBROUTINES - SETUP AND CLEANUP                                                                        (1)

                                     00C0   178 	.SBTTL	CONDITION SUBROUTINES - SETUP AND CLEANUP
                                     00C0   179 ;++
                                     00C0   180 ; FUNCTIONAL DESCRIPTION:
                                     00C0   181 ;
                                     00C0   182 ;		CONDX AND CONDX_CLEANUP ARE SUBROUTINES WHICH ARE EXECUTED
                                     00C0   183 ; BEFORE AND AFTER THE VERIFY SUBROUTINE, RESPECTIVELY, WHENEVER A NEW
                                     00C0   184 ; CONDITION X VALUE IS SELECTED (SEE FUNCTIONAL DESCRIPTION OF SUCCOMMON
                                     00C0   185 ; ROUTINE IN SUCCOMMON.MAR). ANY SETUP FUNCTION PARTICULAR TO THE
                                     00C0   186 ; CONDITION X TABLE IS INCLUDED IN THE CONDX SUBROUTINE AND CLEANED
                                     00C0   187 ; UP, IF NECESSARY, IN THE CONDX_CLEANUP SUBROUTINE. THIS INCLUDES,
                                     00C0   188 ; ESPECIALLY, CODE TO DETECT CONFLICTS AMONG CURRENT ENTRIES IN TWO
                                     00C0   189 ; OR MORE CONDITION TABLES. IF A CONFLICT IS DETECTED, A NON-ZERO
                                     00C0   190 ; VALUE IS STORED INTO CONFLICT, WHICH CAUSES THE CALLING ROUTINE
                                     00C0   191 ; (SUCCOMMON) TO SKIP THE CURRENT ENTRY IN THE CONDITION X TABLE.
                                     00C0   192 ;
                                     00C0   193 ; CALLING SEQUENCE:
                                     00C0   194 ;
                                     00C0   195 ;	BSBW CONDX   BSBW CONDX_CLEANUP
                                     00C0   196 ;	  WHERE X = 1,2,3,4,5
                                     00C0   197 ;
                                     00C0   198 ; INPUT PARAMETERS:
                                     00C0   199 ;
                                     00C0   200 ;	CONFLICT = 0
                                     00C0   201 ;
                                     00C0   202 ; IMPLICIT INPUTS:
                                     00C0   203 ;
                                     00C0   204 ;	R2,3,4,5,6 CONTAIN CURRENT CONDITION TABLE INDEX VALUES
                                     00C0   205 ;	  FOR COND TABLES 1,2,3,4,5, RESPECTIVELY.
                                     00C0   206 ;
                                     00C0   207 ; OUTPUT PARAMETERS:
                                     00C0   208 ;
                                     00C0   209 ;	CONFLICT SET TO NON-ZERO IF COND TABLE CONFLICT DETECTED.
                                     00C0   210 ;
                                     00C0   211 ; IMPLICIT OUTPUTS:
                                     00C0   212 ;
                                     00C0   213 ;	R2,3,4,5,6 PRESERVED
                                     00C0   214 ;
                                     00C0   215 ; COMPLETION CODES:
                                     00C0   216 ;
                                     00C0   217 ;	NONE
                                     00C0   218 ;
                                     00C0   219 ; SIDE EFFECTS:
                                     00C0   220 ;
                                     00C0   221 ;	NONE
                                     00C0   222 ;
                                     00C0   223 ;--
                                     00C0   224
                                     00C0   225
                                     00C0   226
                                     00C0   227 COND1::
                                 05  00C0   228 	RSB				; RETURN TO MAIN ROUTINE
                                     00C1   229 COND1_CLEANUP::
                                 05  00C1   230 	RSB				; RETURN TO MAIN ROUTINE
                                     00C2   231 COND2::
                                 05  00C2   232 	RSB				; RETURN TO MAIN ROUTINE
                                     00C3   233 COND2_CLEANUP::
                                 05  00C3   234 	RSB				; RETURN TO MAIN ROUTINE
SATSSS71        SATS SYSTEM SERVICE TESTS  $CNTREG (SUCC S.C.)   22-AUG-1978 04:15:29   VAX-11 MACRO X0.3-11               Page   9
1.0             CONDITION SUBROUTINES - SETUP AND CLEANUP                                                                        (1)

                                     00C4   235 COND3::
                                 05  00C4   236 	RSB				; RETURN TO MAIN ROUTINE
                                     00C5   237 COND3_CLEANUP::
                                 05  00C5   238 	RSB				; RETURN TO MAIN ROUTINE
                                     00C6   239 COND4::
                                 05  00C6   240 	RSB				; RETURN TO MAIN ROUTINE
                                     00C7   241 COND4_CLEANUP::
                                 05  00C7   242 	RSB				; RETURN TO MAIN ROUTINE
                                     00C8   243 COND5::
                                 05  00C8   244 	RSB				; RETURN TO MAIN ROUTINE
                                     00C9   245 COND5_CLEANUP::
                                 05  00C9   246 	RSB				; RETURN TO MAIN ROUTINE
SATSSS71        SATS SYSTEM SERVICE TESTS  $CNTREG (SUCC S.C.)   22-AUG-1978 04:15:29   VAX-11 MACRO X0.3-11               Page  10
1.0             FORM_CONDS                                                                                                       (1)

                                     00CA   248 	.SBTTL	FORM_CONDS
                                     00CA   249 ;++
                                     00CA   250 ; FUNCTIONAL DESCRIPTION:
                                     00CA   251 ;
                                     00CA   252 ; 		FORM_CONDS FORMATS AND PRINTS INFORMATION ABOUT
                                     00CA   253 ;  THE CURRENT ELEMENT IN EACH OF THE CONDITION TABLES.
                                     00CA   254 ;
                                     00CA   255 ; CALLING SEQUENCE:
                                     00CA   256 ;
                                     00CA   257 ;	BSBW FORM_CONDS
                                     00CA   258 ;
                                     00CA   259 ; INPUT PARAMETERS:
                                     00CA   260 ;
                                     00CA   261 ;	NONE
                                     00CA   262 ;
                                     00CA   263 ; IMPLICIT INPUTS:
                                     00CA   264 ;
                                     00CA   265 ;	R2,3,4,5,6 CONTAIN CURRENT CONDITION TABLE INDEX VALUES
                                     00CA   266 ;	  FOR COND TABLES 1,2,3,4,5, RESPECTIVELY.
                                     00CA   267 ;	FOR X = 1,2,3,4,5 :
                                     00CA   268 ;		CONDX_T - TITLE TEXT FOR CONDX TABLE
                                     00CA   269 ;		CONDX_TAB - ELEMENT TEXT FOR CONDX TABLE
                                     00CA   270 ;		CONDX_C - CONTEXT OF THE CONDX TABLE
                                     00CA   271 ;		CONDX_E - DATA ELEMENTS OF THE CONDX TABLE
                                     00CA   272 ;
                                     00CA   273 ; OUTPUT PARAMETERS:
                                     00CA   274 ;
                                     00CA   275 ;	NONE
                                     00CA   276 ;
                                     00CA   277 ; IMPLICIT OUTPUTS:
                                     00CA   278 ;
                                     00CA   279 ;	NONE
                                     00CA   280 ;
                                     00CA   281 ; COMPLETION CODES:
                                     00CA   282 ;
                                     00CA   283 ;	NONE
                                     00CA   284 ;
                                     00CA   285 ; SIDE EFFECTS:
                                     00CA   286 ;
                                     00CA   287 ;	NONE
                                     00CA   288 ;
                                     00CA   289 ;--
                                     00CA   290
                                     00CA   291
                                     00CA   292
                                     00CA   293 FORM_CONDS::
                                     00CA   294 	$FAO_S	MSG1_INP_CTL,FAO_LEN,FAO_DESC,TESTNUM
                                     00E9   295 					; FORMAT CONDITIONS HEADER MSG
                          FF14'  30  00E9   296 	BSBW	OUTPUT_MSG		; ... AND PRINT IT
            14            04     91  00EC   297 	CMPB	#COND1_C,#NULL		; IS CONDITION 1 NULL ?
                          03     12  00EF   298 	BNEQU	10$			; NO -- CONTINUE
                          00E3   31  00F1   299 	BRW	FORM_CONDSX		; YES -- SUBROUTINE IS FINISHED
                                     00F4   300 10$:
   00000000'EF   00000018'EF     DE  00F4   301 	MOVAL	COND1_T,MSG_A		; SAVE ADDRESS OF CONDITION 1 TITLE FOR FAO
   00000000'EF   00000020'EF42   D0  00FF   302 	MOVL	COND1_TAB[R2],MSG_B 	; SAVE ADDR OF COND 1 CURR TEXT ELT FOR FAO
   00000000'EF            04     90  010B   303 	MOVB	#COND1_C,MSG_CTXT 	; SAVE CONDITION 1 CONTEXT FOR FAO
                                     0112   304 	MOV_VAL	COND1_C,COND1_E[R2],MSG_DATA1 ; GIVE COND 1 DATA VALUE TO FAO
SATSSS71        SATS SYSTEM SERVICE TESTS  $CNTREG (SUCC S.C.)   22-AUG-1978 04:15:29   VAX-11 MACRO X0.3-11               Page  11
1.0             FORM_CONDS                                                                                                       (1)

                          FEDF'  30  011E   305 	BSBW	WRITE_MSG2		; FORMAT AND WRITE CONDITION 1 MSG
            14            04     91  0121   306 	CMPB	#COND2_C,#NULL		; IS CONDITION 2 NULL ?
                          03     12  0124   307 	BNEQU	20$			; NO -- CONTINUE
                          00AE   31  0126   308 	BRW	FORM_CONDSX		; YES -- SUBROUTINE IS FINISHED
                                     0129   309 20$:
   00000000'EF   00000048'EF     DE  0129   310 	MOVAL	COND2_T,MSG_A		; SAVE ADDRESS OF CONDITION 2 TITLE FOR FAO
   00000000'EF   00000050'EF43   D0  0134   311 	MOVL	COND2_TAB[R3],MSG_B 	; SAVE ADDR OF COND 2 CURR TEXT ELT FOR FAO
   00000000'EF            04     90  0140   312 	MOVB	#COND2_C,MSG_CTXT 	; SAVE CONDITION 2 CONTEXT FOR FAO
                                     0147   313 	MOV_VAL	COND2_C,COND2_E[R3],MSG_DATA1 ; GIVE COND 2 DATA VALUE TO FAO
                          FEAA'  30  0153   314 	BSBW	WRITE_MSG2		; FORMAT AND WRITE CONDITION 2 MSG
            14            04     91  0156   315 	CMPB	#COND3_C,#NULL		; IS CONDITION 3 NULL ?
                          03     12  0159   316 	BNEQU	30$			; NO -- CONTINUE
                          0079   31  015B   317 	BRW	FORM_CONDSX		; YES -- SUBROUTINE IS FINISHED
                                     015E   318 30$:
   00000000'EF   00000070'EF     DE  015E   319 	MOVAL	COND3_T,MSG_A		; SAVE ADDRESS OF CONDITION 3 TITLE FOR FAO
   00000000'EF   00000078'EF44   D0  0169   320 	MOVL	COND3_TAB[R4],MSG_B 	; SAVE ADDR OF COND 3 CURR TEXT ELT FOR FAO
   00000000'EF            04     90  0175   321 	MOVB	#COND3_C,MSG_CTXT 	; SAVE CONDITION 3 CONTEXT FOR FAO
                                     017C   322 	MOV_VAL	COND3_C,COND3_E[R4],MSG_DATA1 ; GIVE COND 3 DATA VALUE TO FAO
                          FE75'  30  0188   323 	BSBW	WRITE_MSG2		; FORMAT AND WRITE CONDITION 3 MSG
            14            00     91  018B   324 	CMPB	#COND4_C,#NULL		; IS CONDITION 4 NULL ?
                          47     13  018E   325 	BEQLU	FORM_CONDSX		; YES -- SUBROUTINE IS FINISHED
   00000000'EF   000000AF'EF     DE  0190   326 	MOVAL	COND4_T,MSG_A		; SAVE ADDRESS OF CONDITION 4 TITLE FOR FAO
   00000000'EF   000000D6'EF45   D0  019B   327 	MOVL	COND4_TAB[R5],MSG_B 	; SAVE ADDR OF COND 4 CURR TEXT ELT FOR FAO
   00000000'EF            00     90  01A7   328 	MOVB	#COND4_C,MSG_CTXT 	; SAVE CONDITION 4 CONTEXT FOR FAO
                                     01AE   329 	MOV_VAL	COND4_C,COND4_E[R5],MSG_DATA1 ; GIVE COND 4 DATA VALUE TO FAO
                          FE4F'  30  01AE   330 	BSBW	WRITE_MSG2		; FORMAT AND WRITE CONDITION 4 MSG
            14            14     91  01B1   331 	CMPB	#COND5_C,#NULL		; IS CONDITION 5 NULL ?
                          21     13  01B4   332 	BEQLU	FORM_CONDSX		; YES -- SUBROUTINE IS FINISHED
   00000000'EF   00000119'EF     DE  01B6   333 	MOVAL	COND5_T,MSG_A		; SAVE ADDRESS OF CONDITION 5 TITLE FOR FAO
   00000000'EF   00000119'EF46   D0  01C1   334 	MOVL	COND5_TAB[R6],MSG_B 	; SAVE ADDR OF COND 5 CURR TEXT ELT FOR FAO
   00000000'EF            14     90  01CD   335 	MOVB	#COND5_C,MSG_CTXT 	; SAVE CONDITION 5 CONTEXT FOR FAO
                                     01D4   336 	MOV_VAL	COND5_C,COND5_E[R6],MSG_DATA1 ; GIVE COND 5 DATA VALUE TO FAO
                          FE29'  30  01D4   337 	BSBW	WRITE_MSG2		; FORMAT AND WRITE CONDITION 5 MSG
                                     01D7   338 FORM_CONDSX:
                                 05  01D7   339 	RSB				; RETURN TO CALLER
SATSSS71        SATS SYSTEM SERVICE TESTS  $CNTREG (SUCC S.C.)   22-AUG-1978 04:15:29   VAX-11 MACRO X0.3-11               Page  12
1.0             VERIFY                                                                                                           (1)

                                     01D8   341 	.SBTTL	VERIFY
                                     01D8   342 ;++
                                     01D8   343 ; FUNCTIONAL DESCRIPTION:
                                     01D8   344 ;
                                     01D8   345 ;		VERIFY IS CALLED ONCE FOR EACH COMBINATION OF CONDITION
                                     01D8   346 ; TABLE VALUES (AS DETERMINED BY THE INDEX REGISTERS R2,3,4,5,6 FOR
                                     01D8   347 ; COND TABLES 1,2,3,4,5, RESPECTIVELY). VERIFY ESTABLISHES THE CONDITIONS
                                     01D8   348 ; SPECIFIED BY THE COND TABLES AND ISSUES THE SUBJECT SYSTEM SERVICE
                                     01D8   349 ; ($CNTREG). THEN, THE SUCCESSFUL OPERATION OF THE SERVICE IS VERIFIED
                                     01D8   350 ; BY EXAMINING THE STATUS CODE RETURNED, THE VALUES FOR RETURN ARGUMENTS
                                     01D8   351 ; AND THE FUNCTIONALITY PERFORMED. THE EXAMINATIONS TAKE THE FORM OF
                                     01D8   352 ; COMPARISONS AGAINST EXPECTED VALUES. ANY FAILING COMPARISON CAUSES AN
                                     01D8   353 ; ERR_EXIT MACRO TO BE EXECUTED (EITHER DIRECTLY, OR INDIRECTLY,
                                     01D8   354 ; THROUGH THE SS_CHECK MACRO); ERR_EXIT SETS EFLAG TO NON-ZERO,
                                     01D8   355 ; PRINTS ERROR MESSAGES AND CAUSES AN IMMEDIATE RSB TO CALLER.
                                     01D8   356 ; WHEN ERR_EXIT IS EXECUTED, FURTHER CALLS TO VERIFY ARE SUPPRESSED,
                                     01D8   357 ; AND, AFTER EXECUTING CLEANUP SUBROUTINES, THE IMAGE EXITS.
                                     01D8   358 ;
                                     01D8   359 ; CALLING SEQUENCE:
                                     01D8   360 ;
                                     01D8   361 ;	BSBW VERIFY
                                     01D8   362 ;
                                     01D8   363 ; INPUT PARAMETERS:
                                     01D8   364 ;
                                     01D8   365 ;	NONE
                                     01D8   366 ;
                                     01D8   367 ; IMPLICIT INPUTS:
                                     01D8   368 ;
                                     01D8   369 ;	R2,3,4,5,6 CONTAIN CURRENT CONDITION TABLE INDEX VALUES
                                     01D8   370 ;	  FOR COND TABLES 1,2,3,4,5, RESPECTIVELY.
                                     01D8   371 ;	FOR X = 1,2,3,4,5 :
                                     01D8   372 ;		CONDX_E - ADDRESS OF TABLE OF DATA VALUES FOR CONDX
                                     01D8   373 ;		  TABLE. IF THE CONTEXT OF TABLE X IS A SYSTEM SERVICE
                                     01D8   374 ;		  ARGUMENT, THE ARGUMENT NAME MAY BE USED AS A SYNONYM
                                     01D8   375 ;		  FOR CONDX_E.
                                     01D8   376 ;
                                     01D8   377 ; OUTPUT PARAMETERS:
                                     01D8   378 ;
                                     01D8   379 ;	NONE
                                     01D8   380 ;
                                     01D8   381 ; IMPLICIT OUTPUTS:
                                     01D8   382 ;
                                     01D8   383 ;	VERIFY HAS NO OUTPUT. SINCE ITS PURPOSE IS TO TEST FOR ERRORS,
                                     01D8   384 ;	IT MERELY RETURNS TO CALLER NORMALLY AFTER THE TESTS, PROVIDING
                                     01D8   385 ;	ALL WERE SUCCESSFUL; IF AN ERROR IS DISCOVERED, RETURN IS VIA
                                     01D8   386 ;	AN ERR_EXIT OR SS_CHECK MACRO, BOTH OF WHICH DOCUMENT DETECTED
                                     01D8   387 ;	ERRORS.
                                     01D8   388 ;
                                     01D8   389 ; COMPLETION CODES:
                                     01D8   390 ;
                                     01D8   391 ;	EFLAG SET TO NON-ZERO IF ERROR ENCOUNTERED.
                                     01D8   392 ;
                                     01D8   393 ; SIDE EFFECTS:
                                     01D8   394 ;
                                     01D8   395 ;	SS_CHECK AND ERR_EXIT MACROS CAUSE PREMATURE EXIT
                                     01D8   396 ;	(VIA RSB) IF ERROR ENCOUNTERED.
                                     01D8   397 ;
SATSSS71        SATS SYSTEM SERVICE TESTS  $CNTREG (SUCC S.C.)   22-AUG-1978 04:15:29   VAX-11 MACRO X0.3-11               Page  13
1.0             VERIFY                                                                                                           (1)

                                     01D8   398 ;--
                                     01D8   399
                                     01D8   400
                                     01D8   401
                                     01D8   402 VERIFY::
                 00000000'EF     95  01D8   403 	TSTB	CFLAG			; SHOULD CONDITIONS BE PRINTED ?
                          03     13  01DE   404 	BEQL	5$			; NO -- CONTINUE
                          FEE7   30  01E0   405 	BSBW	FORM_CONDS		; YES -- FMT & PRINT ALL CONDS FOR THIS T.C.
                                     01E3   406 5$:
                                     01E3   407 	MODE	TO,10$,KRNL		; TO KERNEL FOR PRELIM EXPREG
                                     0206   408 	$EXPREG_S PAGCNT[R2],RETADR_ERG, -
                                     0206   409 		  ACMODE[R4],REGION[R3]
                                     0228   410 	MODE	FROM,10$		; BACK TO USER
                                     0229   411 	SS_CHECK NORMAL			; CHECK FOR NORMAL RETURN
            01            55     91  0257   412 	CMPB	R5,#1			; 2ND CONDITION 4 ELEMENT ?
                          03     13  025A   413 	BEQLU	15$			; YES -- CONTRACT & ISSUE CRETVA
                          00D8   31  025C   414 	BRW	40$			; NO -- CONTINUE
                                     025F   415 15$:
                                     025F   416 	MODE	TO,20$,KRNL		; GET KERNEL MODE
                                     0282   417 	$CNTREG_S PAGCNT[R2],,ACMODE[R4],REGION[R3]
                                     02A0   418 	MODE	FROM,20$		; BACK TO USER MODE
                                     02A1   419 	SS_CHECK NORMAL			; CHECK FOR NORMAL RETURN
                                     02CF   420 	MODE	TO,30$,KRNL		; KERNEL MODE AGAIN
                                     02F2   421 	$CRETVA_S INADR=RETADR_ERG, ACMODE=ACMODE[R4]
                                     0308   422 	MODE	FROM,30$		; BACK TO USER AGAIN
                                     0309   423 	SS_CHECK NORMAL			; CHECK NORMAL RETURN
                                     0337   424 40$:
                                     0337   425 	MODE	TO,50$,KRNL		; YET ANOTHER CHANGE TO KERNEL
                                     035A   426 ;
                                     035A   427 ; ****** SYSTEM SERVICE CALL WHICH IS THE SUBJECT OF THIS TEST CASE ******
                                     035A   428 ;
                                     035A   429 	$CNTREG_S PAGCNT[R2],RETADR,ACMODE[R4],REGION[R3]
                                     037C   430 	MODE	FROM,50$		; USER MODE RETURNS
   00000000'8F            50     D1  037D   431 	CMPL	R0,#SS$_NORMAL		; CODE RECEIVED = CODE EXPECTED ?
                          61     13  0384   432 	BEQLU	55$			; YES -- DO SOME MORE VERIFYING
   00000000'EF   00000000'8F     D0  0386   433 	MOVL	#SS$_NORMAL,EXPV 	; LOAD UP EXPECTED AND ...
   00000000'EF            50     D0  0391   434 	MOVL	R0,EXPV			; ... RECEIVED VALUES, THEN EXIT
                                     0398   435 	ERR_EXIT LONG,<INCORRECT STATUS CODE RETURNED FROM CNTREG>
                                     03E7   436 55$:
   00000010'EF   00000008'EF     D1  03E7   437 	CMPL	RETADR,RETADR_ERG 	; DID CNTREG RETURN CORRECT RETADR ?
                          0F     12  03F2   438 	BNEQU	57$			; NO -- ERROR
   00000014'EF   0000000C'EF     D1  03F4   439 	CMPL	RETADR+4,RETADR_ERG+4 	; HOW ABOUT THE 2ND ADDRESS ?
                          02     12  03FF   440 	BNEQU	57$			; NO -- IT'S AN ERROR
                          67     11  0401   441 	BRB	58$			; OK -- GO CHECK MORE
                                     0403   442 57$:
   00000000'EF   00000010'EF     7D  0403   443 	MOVQ	RETADR_ERG,EXPV		; LOAD UP EXPECTED AND ...
   00000000'EF   00000008'EF     7D  040E   444 	MOVQ	RETADR,RECV		; ... RECEIVED VALUES, THEN EXIT
                                     0419   445 	ERR_EXIT QUAD,<UNEXPECTED VALUE FROM CNTREG FOR RETADR PAIR>
                                     046A   446 58$:
                                     046A   447 	MODE	TO,60$,KRNL		; GET INTO KERNEL MODE
                                     048D   448 	$EXPREG_S PAGCNT[R2],RETADR_ERG,ACMODE[R4],REGION[R3]
                                     04AF   449 	MODE	FROM,60$		; BACK TO USER MODE
                                     04B0   450 	SS_CHECK NORMAL			; CHECK NORMAL COMPLETION
   00000010'EF   00000008'EF     D1  04DE   451 	CMPL	RETADR,RETADR_ERG 	; DID EXPREG RETURN CORRECT RETADR ?
                          0F     12  04E9   452 	BNEQU	67$			; NO -- ERROR
   00000014'EF   0000000C'EF     D1  04EB   453 	CMPL	RETADR+4,RETADR_ERG+4 	; HOW ABOUT THE 2ND ADDRESS ?
                          02     12  04F6   454 	BNEQU	67$			; NO -- IT'S AN ERROR
SATSSS71        SATS SYSTEM SERVICE TESTS  $CNTREG (SUCC S.C.)   22-AUG-1978 04:15:29   VAX-11 MACRO X0.3-11               Page  14
1.0             VERIFY                                                                                                           (1)

                          66     11  04F8   455 	BRB	68$			; OK -- GO CLEAN UP
                                     04FA   456 67$:
   00000000'EF   00000008'EF     7D  04FA   457 	MOVQ	RETADR,EXPV		; LOAD UP EXPECTED AND ...
   00000000'EF   00000010'EF     7D  0505   458 	MOVQ	RETADR_ERG,RECV		; ... RECEIVED VALUES, THEN EXIT
                                     0510   459 	ERR_EXIT QUAD,<CONTRACTED AREA COULD NOT BE LATER EXPANDED>
                                     0560   460 68$:
                                     0560   461 	MODE	TO,70$,KRNL		; TO KERNEL MODE
                                     0583   462 	$CNTREG_S PAGCNT[R2],,ACMODE[R4],REGION[R3]
                                     05A1   463 	MODE	FROM,70$		; ... AND BACK TO USER MODE
                                     05A2   464 	SS_CHECK NORMAL			; CHECK FOR NORMAL RETURN
                                     05D0   465 ;
                                     05D0   466 ;	DO NOT INCLUDE THIS CNTREG IN VFY_CLEANUP, BECAUSE
                                     05D0   467 ;	OF POSSIBLE CONTRACTING OF THIS CODING.
                                     05D0   468 ;
                                 05  05D0   469 	RSB				; RETURN TO CALLER
SATSSS71        SATS SYSTEM SERVICE TESTS  $CNTREG (SUCC S.C.)   22-AUG-1978 04:15:29   VAX-11 MACRO X0.3-11               Page  15
1.0             VFY_CLEANUP                                                                                                      (1)

                                     05D1   471 	.SBTTL	VFY_CLEANUP
                                     05D1   472 ;++
                                     05D1   473 ; FUNCTIONAL DESCRIPTION:
                                     05D1   474 ;
                                     05D1   475 ;		VFY_CLEANUP EXECUTES SYSTEM SERVICES TO UNDO THE
                                     05D1   476 ; EFFECT OF THOSE ISSUED IN THE VERIFY SUBROUTINE. VFY_CLEANUP MUST
                                     05D1   477 ; ASSUME THAT VERIFY MAY NOT HAVE EXECUTED IN ITS ENTIRETY (IF AN
                                     05D1   478 ; ERROR IS FOUND). ALSO, VFY_CLEANUP MAY ISSUE SS_CHECK OR ERR_EXIT
                                     05D1   479 ; ONLY AFTER PERFORMING ALL OF ITS CLEANUP OPERATIONS; THIS IS REQUIRED
                                     05D1   480 ; IN THE EVENT THAT VFY_CLEANUP IS CALLED DURING ERROR PROCESSING,
                                     05D1   481 ; WHEN PERFORMING THE REQUIRED CLEANUP IS MORE IMPORTANT THAN
                                     05D1   482 ; POSSIBLY DISCOVERING A SECOND ERROR.
                                     05D1   483 ;
                                     05D1   484 ; CALLING SEQUENCE:
                                     05D1   485 ;
                                     05D1   486 ;	BSBW VFY_CLEANUP
                                     05D1   487 ;
                                     05D1   488 ; INPUT PARAMETERS:
                                     05D1   489 ;
                                     05D1   490 ;	NONE
                                     05D1   491 ;
                                     05D1   492 ; IMPLICIT INPUTS:
                                     05D1   493 ;
                                     05D1   494 ;	R2,3,4,5,6 CONTAIN CURRENT CONDITION TABLE INDEX VALUES
                                     05D1   495 ;	  FOR COND TABLES 1,2,3,4,5, RESPECTIVELY.
                                     05D1   496 ;	FOR X = 1,2,3,4,5 :
                                     05D1   497 ;		CONDX_E - ADDRESS OF TABLE OF DATA VALUES FOR CONDX
                                     05D1   498 ;		  TABLE. IF THE CONTEXT OF TABLE X IS A SYSTEM SERVICE
                                     05D1   499 ;		  ARGUMENT, THE ARGUMENT NAME MAY BE USED AS A SYNONYM
                                     05D1   500 ;		  FOR CONDX_E.
                                     05D1   501 ;
                                     05D1   502 ; OUTPUT PARAMETERS:
                                     05D1   503 ;
                                     05D1   504 ;	NONE
                                     05D1   505 ;
                                     05D1   506 ; IMPLICIT OUTPUTS:
                                     05D1   507 ;
                                     05D1   508 ;	NONE
                                     05D1   509 ;
                                     05D1   510 ; COMPLETION CODES:
                                     05D1   511 ;
                                     05D1   512 ;	EFLAG SET TO NON-ZERO IF ERROR ENCOUNTERED.
                                     05D1   513 ;
                                     05D1   514 ; SIDE EFFECTS:
                                     05D1   515 ;
                                     05D1   516 ;	SS_CHECK AND ERR_EXIT MACROS CAUSE PREMATURE EXIT
                                     05D1   517 ;	(VIA RSB) IF ERROR ENCOUNTERED.
                                     05D1   518 ;
                                     05D1   519 ;--
                                     05D1   520
                                     05D1   521
                                     05D1   522
                                     05D1   523 VFY_CLEANUP::
                                 05  05D1   524 	RSB				; RETURN TO CALLER
                                     05D2   525 	.END
SATSSS71        SATS SYSTEM SERVICE TESTS  $CNTREG (SUCC S.C.)   22-AUG-1978 04:15:29   VAX-11 MACRO X0.3-11               Page  16
SYMBOL TABLE                                                                                                                     (1)

$$$$           = 0000051A R     05   FAO_LEN          ********   X   05   PHD$L_R4         00000098
$$$CHARS       = 0000002B            FORM_CONDS       000000CA RG    05   PHD$L_R5         0000009C
$$$CHARS1      = 0000001D            FORM_CONDSX      000001D7 R     05   PHD$L_R6         000000A0
$$$CHARS2      = 0000001C            GBL...         = 00000000            PHD$L_R7         000000A4
$$$CHARS3      = 00000000            LONG           = 00000004  G         PHD$L_R8         000000A8
$$$CHARS4      = 00000000            MOD_MSG_CODE     ********   X   05   PHD$L_R9         000000AC
$$$CHARS5      = 00000000            MOD_MSG_PRINT    ********   X   05   PHD$L_REFERFLT   00000014
$$$COND_A      = 00000001            MSG1_INP_CTL     00000019 R     03   PHD$L_SSP        00000080
$$$STRINGS     = 00000001            MSG3_ERR_CTL     00000039 RG    03   PHD$L_USP        00000084
$$$STRINGS2    = 00000005            MSG_A            ********   X   05   PHD$L_WSL        00000118
$$T2           = 00000004            MSG_B            ********   X   05   PHD$M_DALCSTX  = 00000002
ACMODE           0000009F R     04   MSG_CTXT         ********   X   05   PHD$M_PFMFLG   = 00000001
BIT...         = 00000000            MSG_DATA1        ********   X   05   PHD$M_WSPEAKCHK= 00000004
BYTE           = 00000001  G         NOTARG         = 00000000  G         PHD$Q_PRIVMSK    00000000
CFLAG            ********   X   05   NULL           = 00000014  G         PHD$S_ASTLVL   = 00000008
CHMRTN           ********   X   05   ONES             ********   X   05   PHD$S_P0LR     = 00000018
CHM_CONT         ********   X   05   OUTPUT_MSG       ********   X   05   PHD$V_ASTLVL   = 00000018
COMP_SC          ********   X   05   PAGCNT           00000040 R     04   PHD$V_DALCSTX  = 00000001
COND1            000000C0 RG    05   PCV              ********   X   05   PHD$V_P0LR     = 00000000
COND1_C        = 00000004            PHD$B_ASTLVL     000000CF            PHD$V_PFMFLG   = 00000000
COND1_CLEANUP    000000C1 RG    05   PHD$B_DFPFC      00000038            PHD$V_WSPEAKCHK= 00000002
COND1_E          00000040 R     04   PHD$B_PAGFIL     0000001F            PHD$W_ASTLM      00000044
COND1_H          0000001F RG    04   PHD$B_PGTBPFC    00000039            PHD$W_BAK        00000048
COND1_T          00000018 R     04   PHD$C_LENGTH     00000118            PHD$W_DFWSCNT    0000001A
COND1_TAB        00000020 R     04   PHD$C_PHDPAGCTX= 00000008            PHD$W_EMPTPG     000000D8
COND2            000000C2 RG    05   PHD$K_LENGTH     00000118            PHD$W_EXTDYNWS   00000076
COND2_C        = 00000004            PHD$L_BIOCNT     00000054            PHD$W_FILLM      00000060
COND2_CLEANUP    000000C3 RG    05   PHD$L_CPULIM     00000058            PHD$W_FLAGS      0000003A
COND2_E          00000068 R     04   PHD$L_CPUTIM     0000003C            PHD$W_PHVINDEX   00000046
COND2_H          0000004F RG    04   PHD$L_DIOCNT     00000050            PHD$W_PRCLM      00000042
COND2_T          00000048 R     04   PHD$L_ESP        0000007C            PHD$W_PST        00000020
COND2_TAB        00000050 R     04   PHD$L_FREP0VA    00000028            PHD$W_PSTBASMAX  0000004A
COND3            000000C4 RG    05   PHD$L_FREP1VA    00000030            PHD$W_PSTFREE    00000026
COND3_C        = 00000004            PHD$L_FREPTECNT  0000002C            PHD$W_PSTLAST    00000024
COND3_CLEANUP    000000C5 RG    05   PHD$L_KSP        00000078            PHD$W_PTCNTACT   00000070
COND3_E          0000009F R     04   PHD$L_P0BR       000000C8            PHD$W_PTCNTLCK   0000006C
COND3_H          00000077 RG    04   PHD$L_P0LRASTL   000000CC            PHD$W_PTCNTMAX   00000072
COND3_T          00000070 R     04   PHD$L_P1BR       000000D0            PHD$W_PTCNTVAL   0000006E
COND3_TAB        00000078 R     04   PHD$L_P1LR       000000D4            PHD$W_QUANT      00000040
COND4            000000C6 RG    05   PHD$L_PAGEFLTS   0000004C            PHD$W_TQLM       00000062
COND4_C        = 00000000            PHD$L_PAGFIL     0000001C            PHD$W_WSAUTH     0000000A
COND4_CLEANUP    000000C7 RG    05   PHD$L_PC         000000C0            PHD$W_WSDYN      0000000E
COND4_E          00000119 R     04   PHD$L_PCB        00000078            PHD$W_WSFLUID    00000074
COND4_H          000000D5 RG    04   PHD$L_PGFLCNT    00000034            PHD$W_WSLAST     00000012
COND4_T          000000AF R     04   PHD$L_PGFLQUOTA  0000005C            PHD$W_WSLIST     00000008
COND4_TAB        000000D6 R     04   PHD$L_PSL        000000C4            PHD$W_WSLOCK     0000000C
COND5            000000C8 RG    05   PHD$L_PSTBASOFF  00000020            PHD$W_WSLX       0000004A
COND5_C        = 00000014            PHD$L_PTWSLELCK  00000064            PHD$W_WSNEXT     00000010
COND5_CLEANUP    000000C9 RG    05   PHD$L_PTWSLEVAL  00000068            PHD$W_WSQUOTA    00000018
COND5_H          00000119 RG    04   PHD$L_R0         00000088            PRIVMASK         00000000 R     04
COND5_T          00000119 R     04   PHD$L_R1         0000008C            PROCESS_ERR      ********   X   05
COND5_TAB        00000119 R     04   PHD$L_R10        000000B0            PRV$V_ALLSPOOL = 00000004
CTL$GL_PHD       ********   X   05   PHD$L_R11        000000B4            PRV$V_BUGCHK   = 00000017
DESC           = 00000010  G         PHD$L_R12        000000B8            PRV$V_CMEXEC   = 00000001
EFLAG            ********   X   05   PHD$L_R13        000000BC            PRV$V_CMKRNL   = 00000000
EXPV             ********   X   05   PHD$L_R2         00000090            PRV$V_DETACH   = 00000005
FAO_DESC         ********   X   05   PHD$L_R3         00000094            PRV$V_DIAGNOSE = 00000006
SATSSS71        SATS SYSTEM SERVICE TESTS  $CNTREG (SUCC S.C.)   22-AUG-1978 04:15:29   VAX-11 MACRO X0.3-11               Page  17
SYMBOL TABLE                                                                                                                     (1)

PRV$V_EXQUOTA  = 00000013            SS$_NORMAL       ********   X   05
PRV$V_GROUP    = 00000008            SUCCESS          ********   X   05
PRV$V_GRPNAM   = 00000003            SYS$CMKRNL       ********   X   05
PRV$V_LOG_IO   = 00000007            SYS$CNTREG       ********   X   05
PRV$V_MOUNT    = 00000011            SYS$CRETVA       ********   X   05
PRV$V_NETMBX   = 00000014            SYS$EXPREG       ********   X   05
PRV$V_NOACNT   = 00000009            SYS$FAO          ********   X   05
PRV$V_OPER     = 00000012            SYS$SETPRN       ********   X   05
PRV$V_PHY_IO   = 00000016            TESTNUM          ********   X   05
PRV$V_PRMCEB   = 0000000A            TEST_MOD_NAME    00000000 RG    03
PRV$V_PRMGBL   = 00000018            TEST_MOD_NAME_D  00000009 R     03
PRV$V_PRMMBX   = 0000000B            TEST_MOD_SUCC    ********   X   05
PRV$V_PSWAPM   = 0000000C            TMD_ADDR         ********   X   05
PRV$V_SETPRI   = 0000000D            TM_CLEANUP       000000BC RG    05
PRV$V_SETPRV   = 0000000E            TM_SETUP         00000000 RG    05
PRV$V_SYSGBL   = 00000019            VERIFY           000001D8 RG    05
PRV$V_SYSNAM   = 00000002            VFY_CLEANUP      000005D1 RG    05
PRV$V_TMPMBX   = 0000000F            WORD           = 00000002  G
PRV$V_VOLPRO   = 00000015            WRITE_MSG2       ********   X   05
PRV$V_WORLD    = 00000010
PSL$C_EXEC     = 00000001
PSL$C_KERNEL   = 00000000
PSL$C_SUPER    = 00000002
PSL$C_USER     = 00000003
PSL$M_CM       = 80000000
PSL$M_CURMOD   = 03000000
PSL$M_DV       = 00000080
PSL$M_FPD      = 08000000
PSL$M_FU       = 00000040
PSL$M_IPL      = 001F0000
PSL$M_IS       = 04000000
PSL$M_IV       = 00000020
PSL$M_PRVMOD   = 00C00000
PSL$M_SAFBITS  = 000037FF
PSL$M_TBIT     = 00000010
PSL$M_TP       = 40000000
PSL$S_CURMOD   = 00000002
PSL$S_IPL      = 00000005
PSL$S_PRVMOD   = 00000002
PSL$V_CM       = 0000001F
PSL$V_CURMOD   = 00000018
PSL$V_DV       = 00000007
PSL$V_FPD      = 0000001B
PSL$V_FU       = 00000006
PSL$V_IPL      = 00000010
PSL$V_IS       = 0000001A
PSL$V_IV       = 00000005
PSL$V_PRVMOD   = 00000016
PSL$V_TBIT     = 00000004
PSL$V_TP       = 0000001E
QUAD           = 00000008  G
RECV             ********   X   05
REGION           00000068 R     04
REST_REGS        ********   X   05
RETADR           00000008 R     04
RETADR_ERG       00000010 R     04
SAVE_REGS        ********   X   05
SATSSS71        SATS SYSTEM SERVICE TESTS  $CNTREG (SUCC S.C.)   22-AUG-1978 04:15:29   VAX-11 MACRO X0.3-11               Page  18
PROGRAM SECTION SYNOPSIS                                                                                                         (1)


PROGRAM SECTION SYNOPSIS

.  ABS  .        00000000      00     NOPIC   USR   CON   ABS   LCL NOSHR NOEXE NORD  NOWRT BYTE
. BLANK .        00000000      01     NOPIC   USR   CON   REL   LCL NOSHR   EXE   RD    WRT BYTE
$ABS$            0000011C      02     NOPIC   USR   CON   ABS   LCL NOSHR   EXE   RD    WRT BYTE
RODATA           00000051      03     NOPIC   USR   CON   REL   LCL NOSHR NOEXE   RD  NOWRT LONG
RWDATA           0000011A      04     NOPIC   USR   CON   REL   LCL NOSHR NOEXE   RD    WRT LONG
SATSSS71         000005D2      05     NOPIC   USR   CON   REL   LCL NOSHR   EXE   RD    WRT BYTE


THERE WERE NO ERRORS OR WARNINGS.
14536. BYTES LEFT IN FREE MEMORY POOL.
164. BYTES OF RECLAIMED MEMORY.
OBJ$:SATSSS71,LIS$:SATSSS71/-SP=EXECML$/ML,LIB$:SYSTST.MLB/ML,SRC$:SATSSS71
41 MLB DIR RDS - 665 GETS TO DEFINE 28 MACROS. 38 INTER. FILE WRITES.
