SATSSF13        - SATS SYSTEM SERVICE TESTS  (FAILING S.C.)      22-AUG-1978 03:53:08   VAX-11 MACRO X0.3-11               Page   0
TABLE OF CONTENTS

   (1)      46  DECLARATIONS
   (1)     192  SATSSF13
   (1)     279  SFCVA10
   (1)     302  SFCVA11
   (1)     328  SFCVA12
   (1)     353  SFCVA13
   (1)     375  SFCVA14
   (1)     398  SFCVA20
   (1)     420  SFCVA21
   (1)     442  SFCVA22
   (1)     465
   (1)     469  SFDVA10
   (1)     492  SFDVA11
   (1)     518  SFDVA12
   (1)     543  SFDVA13
   (1)     565  SFDVA14
   (1)     588  SFDVA20
   (1)     610  SFDVA21
   (1)     632  SFDVA22
   (1)     655
   (1)     659  SFPWS10
   (1)     681  SFPWS11
   (1)     703  SFPWS12
   (1)     726
   (1)     730  SFAWS20
   (1)     752  SFAWS21
   (1)     774  SFAWS22
   (1)     797
   (1)     863  EXECUTE & CLEANUP
   (1)     875  TC_CONTROL
   (1)     956  SUBROUTINES
SATSSF13        - SATS SYSTEM SERVICE TESTS  (FAILING S.C.)      22-AUG-1978 03:53:08   VAX-11 MACRO X0.3-11               Page   1
1.0                                                                                                                              (1)

                                     0000     1 	.TITLE	SATSSF13 - SATS SYSTEM SERVICE TESTS  (FAILING S.C.)
                                     0000     2 	.IDENT	/1.0/
                                     0000     3
                                     0000     4 ;
                                     0000     5 ;			  COPYRIGHT (c) 1977,1978 BY
                                     0000     6 ;	      DIGITAL EQUIPMENT CORPORATION, MAYNARD, MASS.
                                     0000     7 ;
                                     0000     8 ; THIS SOFTWARE IS FURNISHED UNDER A LICENSE AND MAY BE USED AND  COPIED
                                     0000     9 ; ONLY  IN  ACCORDANCE  WITH  THE  TERMS  OF  SUCH  LICENSE AND WITH THE
                                     0000    10 ; INCLUSION OF THE ABOVE COPYRIGHT NOTICE.  THIS SOFTWARE OR  ANY  OTHER
                                     0000    11 ; COPIES  THEREOF MAY NOT BE PROVIDED OR OTHERWISE MADE AVAILABLE TO ANY
                                     0000    12 ; OTHER PERSON.  NO TITLE TO AND OWNERSHIP OF  THE  SOFTWARE  IS  HEREBY
                                     0000    13 ; TRANSFERRED.
                                     0000    14 ;
                                     0000    15 ; THE INFORMATION IN THIS SOFTWARE IS SUBJECT TO CHANGE  WITHOUT  NOTICE
                                     0000    16 ; AND  SHOULD  NOT  BE  CONSTRUED  AS  A COMMITMENT BY DIGITAL EQUIPMENT
                                     0000    17 ; CORPORATION.
                                     0000    18 ;
                                     0000    19 ; DIGITAL ASSUMES NO RESPONSIBILITY FOR THE USE OR  RELIABILITY  OF  ITS
                                     0000    20 ; SOFTWARE ON EQUIPMENT WHICH IS NOT SUPPLIED BY DIGITAL.
                                     0000    21 ;
                                     0000    22
                                     0000    23 ;++
                                     0000    24 ; FACILITY:	SATS SYSTEM SERVICE TESTS
                                     0000    25 ;
                                     0000    26 ; ABSTRACT:	THE SATSSF13 MODULE TESTS THE EXECUTION OF CERTAIN
                                     0000    27 ; VMS SYSTEM SERVICES, INVOKED IN SUCH A WAY AS TO EXPECT FAILING
                                     0000    28 ; STATUS CODES. THE SYSTEM SERVICES TESTED AND THE STATUS CODES
                                     0000    29 ; EXPECTED ARE SUMMARIZED AS ARGUMENTS TO THE TESTSERV MACROS
                                     0000    30 ; WHICH APPEAR NEAR THE END OF THIS LISTING. SUCCESSFUL STATUS
                                     0000    31 ; CODES ARE TESTED IN OTHER MODULES.
                                     0000    32 ;
                                     0000    33 ;
                                     0000    34 ; ENVIRONMENT:	USER MODE IMAGE; NEEDS CMKRNL PRIVILEGE,
                                     0000    35 ;		DYNAMICALLY ACQUIRES OTHER PRIVILEGES, AS NEEDED.
                                     0000    36 ;
                                     0000    37 ; AUTHOR: THOMAS L. CAFARELLA,		CREATION DATE: MMM, 1978
                                     0000    38 ;	  PAUL D. FAY (DISPSERV & TESTSERV MACROS)
                                     0000    39 ;
                                     0000    40 ; MODIFIED BY:
                                     0000    41 ;
                                     0000    42 ;	, : VERSION
                                     0000    43 ; 01	-
                                     0000    44 ;--
SATSSF13        - SATS SYSTEM SERVICE TESTS  (FAILING S.C.)      22-AUG-1978 03:53:08   VAX-11 MACRO X0.3-11               Page   2
1.0             DECLARATIONS                                                                                                     (1)

                                     0000    46 	.SBTTL	DECLARATIONS
                                     0000    47 ;
                                     0000    48 ; INCLUDE FILES:
                                     0000    49 ;
                                     0000    50 	$PHDDEF				; PROCESS HEADER OFFSET SYMBOLS
                                     0000    51 	$PCBDEF				; PROCESS CONTROL BLOCK OFFSET SYMBS
                                     0000    52 	$STSDEF				; STATUS MESSAGE SYMBOLS
                           00000003  0000    53 	.MDELETE ($PHDDEF,$PCBDEF,$STSDEF) ; GET RID OF MACRO DEFINITIONS
                                     0000    54 	$PRVDEF				; SYMBOL DEFS FOR PRIVILEGES
                                     0000    55 	$UETPDEF			; UETP MSG CODE DEFINITIONS
                                     0000    56 	$SHR_MESSAGES UETP,116,<<TEXT,INFO>>
                                     0000    57 					; DEFINE UETP$_TEXT
                           00000004  0000    58 	.MDELETE ($PRVDEF,$UETPDEF,$SHR_MESSAGES,$SHRDEF)
                                     0000    59 					; GET RID OF MACRO DEFINITIONS
                                     0000    60 	$PSLDEF				; ACCESS MODE SYMBOLS
                                     0000    61 ;
                                     0000    62 ; MACROS:
                                     0000    63 ;
                                     0000    64 ;
                                     0000    65 ; EQUATED SYMBOLS:
                                     0000    66 ;
                           00000000  0000    67 WARNING		= 0			; WARNING SEVERITY VALUE FOR MSGS
                           00000001  0000    68 SUCCESS		= 1			; SUCCESS SEVERITY VALUE FOR MSGS
                           00000002  0000    69 ERROR		= 2			; ERROR SEVERITY VALUE FOR MSGS
                           00000003  0000    70 INFO		= 3			; INFORMATIONAL SEV VALUE FOR MSGS
                           00000004  0000    71 SEVERE		= 4			; SEVERE (FATAL) SEV VALUE FOR MSGS
                           00000000  0000    72 TCG_NO		=  0			; INITIALIZE TEST CASE GROUP NUMBER
                           00000000  0000    73 GRP_TOTAL	=  0			; INITIALIZE TEST CASE GROUP TOTAL
                           00007FFF  0000    74 R0_THRU_SP	= ^M<R0,R1,R2,R3,R4,R5,R6,R7,R8,R9,R10,R11,AP,FP,SP>
                           00000000  0000    75 INADR_CVA12	= 0			; INADR ARG FOR CRETVA (LOCATION 0)
                           00000001  0000    76 RETADR_CVA20	= 1			; RETADR ARG FOR CRETVA (LOCATION 1)
                           00000000  0000    77 INADR_DVA12	= 0			; INADR ARG FOR DELTVA (LOCATION 0)
                           00000001  0000    78 RETADR_DVA20	= 1			; RETADR ARG FOR DELTVA (LOCATION 1)
                           00000000  0000    79 INADR_PWS10	= 0			; INADR ARG FOR PURGWS (LOCATION 0)
                           00000001  0000    80 WSETLM_AWS20	= 1			; WSETLM ARG FOR ADJWSL (LOCATION 1)
                                     0000    81 ;
                                     0000    82 ; OWN STORAGE:
                                     0000    83 ;
SATSSF13        - SATS SYSTEM SERVICE TESTS  (FAILING S.C.)      22-AUG-1978 03:53:08   VAX-11 MACRO X0.3-11               Page   3
1.0             DECLARATIONS                                                                                                     (1)

                                 00000000    85 	.PSECT	RODATA,RD,NOWRT,NOEXE,LONG
                                     0000    86 REG_COMP_MASK:	.WORD	^M<R2,R3,R4,R5,R6,R7,R8,R9,R10,R11,AP,FP> ! ^X8000 -
                               BFFC  0000    87 					; REG COMPARE MASK (HIGH-ORDER ...
                                     0002    88 					; ... BIT MUST BE ON
                                     0002    89 ERR_MSG_FAOCTL:	STRING	I,<!/!AC!1ZB!1ZB: REGISTER !2UW CONTENTS ALTERED>, -
                                     0002    90 		<;  BEFORE SERVICE CALL: !8XL   AFTER SERVICE CALL: !8XL>
                                     006E    91 TEST_MOD_NAME:	STRING	C,<SATSSF13>	; TEST MODULE NAME
                                     0077    92 TEST_MOD_BEG:	STRING	C,<begun>	; DISPOSITION FIELD OF TEST MOD MSG
                                     007D    93 TEST_MOD_SUCC:	STRING	C,<successful>	; DISPOSITION FIELD OF TEST MOD MSG
                                     0088    94 TEST_MOD_FAIL:	STRING	C,<failed>	; DISPOSITION FIELD OF TEST MOD MSG
                                     008F    95 TEST_MOD_NAME_D: STRING	I,<SATSSF13>	; TEST MODULE NAME DESCRIPTOR
                                     009F    96 TTNAME:     	STRING  I,<TT>		; TERMINAL LOGICAL NAME
                  00000000'00000000' 00A9    97 INADR:		.LONG	NOACCESS,NOACCESS ; PAGE ADDRESS OF NOACCESS PSECT
                           00000000' 00B1    98 PROT:		.LONG	PRT$C_NA	; PROTECTION CODE FOR NOACCESS PSECT
                  FFFFFFFF FFFFFFFF  00B5    99 ONES:		.LONG	-1,-1		; A QUADWORD OF 1-BITS
                                     00BD   100 INADR_CVA10:				; INADR ARGUMENT FOR CRETVA
                                     00BD   101 INADR_DVA10:				; INADR ARGUMENT FOR DELTVA
                           80000000' 00BD   102 		.ADDRESS ^X80000000	; .......
                           8F000000' 00C1   103 		.ADDRESS ^X8F000000	; .......
                           000000CD  00C5   104 RETADR_CVA21:	.BLKL	2		; RETADR ARGUMENT FOR CRETVA
                           000000D5  00CD   105 RETADR_DVA21:	.BLKL	2		; RETADR ARGUMENT FOR DELTVA
                                     00D5   106 ACMODE_CVA:				; ACMODE ARGUMENT FOR CRETVA
                                     00D5   107 ACMODE_DVA:				; ACMODE ARGUMENT FOR DELTVA
                           00000003  00D5   108 		.LONG	PSL$C_USER
                  00000000'00000000' 00D9   109 INADR_PWS:	.ADDRESS 0,0		; INADR ARGUMENT FOR PURGWS
                           00000001  00E1   110 PAGCNT_AWS:	.LONG	1		; PAGCNT ARGUMENT FOR ADJWSL
                           000000E9  00E5   111 WSETLM_AWS21:	.BLKL	1		; WSETLM ARGUMENT FOR ADJWSL
SATSSF13        - SATS SYSTEM SERVICE TESTS  (FAILING S.C.)      22-AUG-1978 03:53:08   VAX-11 MACRO X0.3-11               Page   4
1.0             DECLARATIONS                                                                                                     (1)

                                 00000000   113 	.PSECT	RWDATA,RD,WRT,NOEXE
                           00000004  0000   114 TPID:		.BLKL	1		; PROCESS ID FOR THIS PROCESS
                           00000008  0004   115 CURRENT_TC:	.BLKL	1 		; PTR TO CURRENT TEST CASE
                           00000044  0008   116 REG_SAVE_AREA:	.BLKL	15		; SAVE AREA FOR ALL REGS (SANS PC)
                           007480D9  0044   117 MOD_MSG_CODE:	.LONG	UETP$_SATSMS	; TEST MODULE MSG CODE FOR PUTMSG
                           0000004C  0048   118 CLOB_REG_NO:	.BLKL	1		; CLOBBERED REG NO (FOR FAO ERR MSG)
                           00000050  004C   119 REG_BEFORE_SS:	.BLKL	1		; REG CONTENTS BEFORE S.S.
                                     0050   120 					; ... (FOR FAO ERROR MSG)
                           00000054  0050   121 REG_AFTER_SS:	.BLKL	1		; REG CONTENTS AFTER S.S.
                                     0054   122 					; ... (FOR FAO ERROR MSG)
                                     0054   123 $$TSTN$$:	STRING	C,<  SF   >	; ASCII PORTION OF TEST CASE NAME
                           0000006E' 005C   124 TMN_ADDR:	.ADDRESS TEST_MOD_NAME	; ADDR OF TEST MOD NAME FOR FAO
                           00000077' 0060   125 TMD_ADDR:	.ADDRESS TEST_MOD_BEG	; ADDR OF T.M. DISP FIELD FOR FAO
                           00000068  0064   126 TS_EP:		.BLKL	1		; ENTRY PNT FOR CURR TESTSERV MACRO
                           00000070  0068   127 RETADR:		.BLKL	2		; RETURN LONGWORDS FOR SETPRT
                           00000071  0070   128 PRVPRT:		.BLKB	1		; PROT RETURN BYTE FOR SETPRT
                           00000079  0071   129 PRIVMASK:	.BLKQ	1		; ADDR OF PRIVILEGE MASK (IN PHD)
                           0000007D  0079   130 CHM_CONT:	.BLKL	1		; CHANGE MODE CONTINUE ADDRESS
                           00000091  007D   131 REGS:		.BLKL	5		; AREA FOR COND INDEX REGS (R2-R6)
                           00000099  0091   132 INADR_CVA:	.BLKL	2		; INADR ARGUMENT FOR CRETVA SERVICE
                           000000A1  0099   133 INADR_CVA11:	.BLKL	2		; INADR ARGUMENT FOR CRETVA SERVICE
                           000000A9  00A1   134 RETADR_CVA:	.BLKL	2		; RETADR ARGUMENT FOR CRETVA SERVICE
                           000000B1  00A9   135 INADR_DVA:	.BLKL	2		; INADR ARGUMENT FOR DELTVA SERVICE
                           000000B9  00B1   136 INADR_DVA11:	.BLKL	2		; INADR ARGUMENT FOR DELTVA SERVICE
                           000000C1  00B9   137 RETADR_DVA:	.BLKL	2		; RETADR ARGUMENT FOR DELTVA SERVICE
                           000000C5  00C1   138 WSETLM_AWS:	.BLKL	1		; WSETLM ARGUMENT FOR ADJWSL SERVICE
SATSSF13        - SATS SYSTEM SERVICE TESTS  (FAILING S.C.)      22-AUG-1978 03:53:08   VAX-11 MACRO X0.3-11               Page   5
1.0             DECLARATIONS                                                                                                     (1)

                                 00000000   140 	.PSECT	SATS_ACCVIO_1,RD,WRT,NOEXE,PAGE
                           00000200  0000   141 EMPTY:		.BLKB	512		; RESERVE A PAGE OF SPACE
                                     0200   142 ;
                                     0200   143 ; +
                                     0200   144 ; ******************************************************************
                                     0200   145 ; *                                                                *
                                     0200   146 ; * 	THE ORDER OF STATEMENTS IN THIS PSECT IS CRITICAL.         *
                                     0200   147 ; *	DO NOT RE-ARRANGE THE VARIABLES. CONSULT SATS              *
                                     0200   148 ; *	FUNCTIONAL SPECIFICATION FOR A DESCRIPTION OF THE USE      *
                                     0200   149 ; *	OF THE EMPTY PSECT (AND ITS COMPANION PSECT, NOACCESS).    *
                                     0200   150 ; *                                                                *
                                     0200   151 ; ******************************************************************
                                     0200   152 ; -
                                     0200   153 ;
                                     0200   154 ; TYPE AAAAA_SSSX1 (TYPE AAAAA_SSSX2 IF NOT DESC) GO HERE:
                           000001F9  0200   155 INADR_CVA14	= . - 7			; INADR ARGUMENT FOR CRETVA
                           000001F9  0200   156 RETADR_CVA22	= . - 7			; RETADR ARGUMENT FOR CRETVA
                           000001F9  0200   157 INADR_DVA14	= . - 7			; INADR ARGUMENT FOR DELTVA
                           000001F9  0200   158 RETADR_DVA22	= . - 7			; RETADR ARGUMENT FOR DELTVA
                           000001F9  0200   159 INADR_PWS12	= . - 7			; INADR ARGUMENT FOR PURGWS
                           000001FF  0200   160 WSETLM_AWS22	= . - 1			; WSETLM ARG FOR ADJWSL (LAST BYTE IN PAGE)
                           000001F3  0200   161 		. = . - 13		; ALLOW ROOM FOR STRING DESCRIPTOR
                                     01F3   162 ; TYPE AAAAA_SSSX5 GO HERE:
                           00000006  01F3   163 		.LONG	6		; STRING LENGTH (WILL CROSS PSECT BOUNDARY)
                           000001FB' 01F7   164 		.ADDRESS .+4		; STRING ADDRESS
                                     01FB   165 ; TYPE AAAAA_SSSX3 GO HERE:
                           000001FC  01FB   166 		.BLKB	1		; LOW-ORDER BYTE OF STRING LENGTH
                                     01FC   167 ; TYPE AAAAA_SSSX2 GO HERE:
                           00000200  01FC   168 		.BLKL	1		; STRING LENGTH
                                     0200   169 ;
                                     0200   170 ;
                                     0200   171 ;
                                     0200   172 ;
                                 00000000   173 	.PSECT	SATS_ACCVIO_2,RD,WRT,NOEXE,PAGE
                           00000200  0000   174 NOACCESS:	.BLKB	512		; RESERVE A PAGE OF SPACE
                           00000000  0200   175 		. = . - 512		; RETURN LOC CTR TO BEGINNING OF PSECT
                           00000000' 0000   176 		.ADDRESS EMPTY		; ADDRESS OF ACCESSIBLE STRING
                           00000000' 0004   177 		.ADDRESS EMPTY/^X100 	; ADDRESS OF ACCESSIBLE STRING
                                     0008   178 ;+
                                     0008   179 ; *** NOTE -- DO NOT CHANGE LOCATION OR SEQUENCE OF ABOVE STATEMENTS!
                                     0008   180 ; ***         THIS PSECT (NOACCESS) MUST APPEAR IN MEMORY IMMEDIATELY
                                     0008   181 ; ***         FOLLOWING THE EMPTY PSECT. PSECT NAMES AND OPTIONS WILL BE
                                     0008   182 ; ***         CHOSEN TO FORCE THE DESIRED PSECT ORDERING.
                                     0008   183 ;-
                                     0008   184 ;
                                     0008   185 INADR_CVA13:				; INADR ARGUMENT FOR CRETVA
                                     0008   186 INADR_DVA13:				; INADR ARGUMENT FOR DELTVA
                                     0008   187 INADR_PWS11:				; INADR ARGUMENT FOR PURGWS
                           00000010  0008   188 		.BLKL	2
                           00000001  0010   189 	.MDELETE (STRING)		; NO LONGER NEED MACRO DEFINITION
                                 00000000   190 	.PSECT	SATSSF13,RD,WRT,EXE,LONG
SATSSF13        - SATS SYSTEM SERVICE TESTS  (FAILING S.C.)      22-AUG-1978 03:53:08   VAX-11 MACRO X0.3-11               Page   6
1.0             SATSSF13                                                                                                         (1)

                                     0000   192 	.SBTTL	SATSSF13
                                     0000   193 ;++
                                     0000   194 ; FUNCTIONAL DESCRIPTION:
                                     0000   195 ;
                                     0000   196 ;		AFTER PERFORMING SOME INITIAL HOUSEKEEPING, SUCH AS
                                     0000   197 ; PRINTING THE MODULE BEGIN MESSAGE AND ACQUIRING ALL PRIVILEGES,
                                     0000   198 ; THE SATSSF13 ROUTINE EXECUTES THE TEST_SERV_EXEC MACRO TO RUN
                                     0000   199 ; ALL TEST CASES. WHEN THE MACRO COMPLETES ITS EXECUTION, SATSSF13
                                     0000   200 ; PRINTS A TEST MODULE SUCCESS OR FAIL MESSAGE AND EXITS TO THE
                                     0000   201 ; OPERATING SYSTEM. TEST_SERV_EXEC CALLS THE TC_CONTROL/TESTSERV
                                     0000   202 ; CO-ROUTINE PAIR ONCE PER TEST CASE GROUP TO EXECUTE ALL TEST
                                     0000   203 ; CASES IN THAT GROUP. EACH TEST CASE GROUP IS DEFINED BY BOUNDING
                                     0000   204 ; ITS TEST CASES WITH A TC_GROUP MACRO BEFORE THE FIRST TEST CASE
                                     0000   205 ; AND A TCEND MACRO AFTER THE LAST ONE. THE TEST CASES THEMSELVES
                                     0000   206 ; ARE DEFINED WITHIN THESE BOUNDS BY PRECEDING EACH WITH A
                                     0000   207 ; NEXT_TEST_CASE MACRO. TC_CONTROL/TESTSERV EXECUTES THE CODE
                                     0000   208 ; FOLLOWING EACH NEXT_TEST_CASE MACRO IMMEDIATELY BEFORE ISSUING
                                     0000   209 ; THE SYSTEM SERVICE AS REQUESTED IN THE TESTSERV MACRO. TC_CONTROL/
                                     0000   210 ; TESTSERV ALSO CHECKS THE RESULTS OF THE SERVICE WITH RESPECT
                                     0000   211 ; TO ITS EXPECTED STATUS CODE AND PRINTS ANY REQUIRED FAILURE
                                     0000   212 ; MESSAGES FOR THE TEST CASE. THE CODE APPEARING AFTER EACH
                                     0000   213 ; NEXT_TEST_CASE MACRO IS MERELY TO SET UP CONDITIONS REQUIRED
                                     0000   214 ; FOR THE SYSTEM SERVICE AND TO CLEAN UP ANY RESOURCES ACQUIRED
                                     0000   215 ; BY THE PREVIOUS TEST CASE.
                                     0000   216 ;
                                     0000   217 ; CALLING SEQUENCE:
                                     0000   218 ;
                                     0000   219 ;	$ RUN SATSSF13  ...  (DCL COMMAND)
                                     0000   220 ;
                                     0000   221 ; INPUT PARAMETERS:
                                     0000   222 ;
                                     0000   223 ;	NONE
                                     0000   224 ;
                                     0000   225 ; IMPLICIT INPUTS:
                                     0000   226 ;
                                     0000   227 ;	NONE
                                     0000   228 ;
                                     0000   229 ; OUTPUT PARAMETERS:
                                     0000   230 ;
                                     0000   231 ;	NONE
                                     0000   232 ;
                                     0000   233 ; IMPLICIT OUTPUTS:
                                     0000   234 ;
                                     0000   235 ;	MESSAGES TO SYS$OUTPUT ARE THE ONLY OUTPUT FROM SATSSF13.
                                     0000   236 ;	THEY ARE OF THE FORM:
                                     0000   237 ;
                                     0000   238 ;		%UETP-S-SATSMS, TEST MODULE SATSSF13 BEGUN ... (BEGIN MSG)
                                     0000   239 ;		%UETP-S-SATSMS, TEST MODULE SATSSF13 SUCCESSFUL ... (END MSG)
                                     0000   240 ;		%UETP-E-SATSMS, TEST MODULE SATSSF13 FAILED ... (END MSG)
                                     0000   241 ;		%UETP-I-TEXT, ... (VARIABLE INFORMATION ABOUT A TEST MODULE FAILURE)
                                     0000   242 ;
                                     0000   243 ; COMPLETION CODES:
                                     0000   244 ;
                                     0000   245 ;	THE SATSSF13 ROUTINE TERMINATES WITH A $EXIT TO THE
                                     0000   246 ;	OPERATING SYSTEM WITH A STATUS CODE DEFINED BY UETP$_SATSMS.
                                     0000   247 ;
                                     0000   248 ; SIDE EFFECTS:
SATSSF13        - SATS SYSTEM SERVICE TESTS  (FAILING S.C.)      22-AUG-1978 03:53:08   VAX-11 MACRO X0.3-11               Page   7
1.0             SATSSF13                                                                                                         (1)

                                     0000   249 ;
                                     0000   250 ;	NONE
                                     0000   251 ;
                                     0000   252 ;--
                                     0000   253
                                     0000   254
                                     0000   255
                                     0000   256 SATSSF13:
                               0FFC  0000   257 	.WORD	^M<R2,R3,R4,R5,R6,R7,R8,R9,R10,R11>
                                     0002   258 					; ENTRY MASK
                                     0002   259 	$WAKE_S  TPID			; GET PID OF THIS PROCESS
                                     0011   260 	$HIBER_S			; UNDO WAKE
                                     0018   261 	$SETPRN_S TEST_MOD_NAME_D 	; SET PROCESS NAME
                          0C8B   30  0025   262 	BSBW	MOD_MSG_PRINT		; PRINT TEST MODULE BEGIN MSG
   00000060'EF   0000007D'EF     DE  0028   263 	MOVAL	TEST_MOD_SUCC,TMD_ADDR	; ASSUME END MSG WILL SHOW SUCCESS
            00            01     F0  0033   264 	INSV	#SUCCESS,#0,#3,MOD_MSG_CODE ; ADJUST STATUS CODE FOR SUCCESS
   00000044'EF            03         0036
                                     003C   265 	MODE	TO,10$,KRNL,NOREGS 	; KERNEL MODE TO ACCESS PHD
            59   00000000'9F     D0  0059   266 	MOVL	@#CTL$GL_PHD,R9		; GET PROCESS HEADER ADDRESS
   00000071'EF            69     DE  0060   267 	MOVAL	PHD$Q_PRIVMSK(R9),PRIVMASK ; GET PRIV MASK ADDRESS
                                     0067   268 	MODE	FROM,10$		; GET BACK TO USER MODE
                                     0068   269 	PRIV	ADD,ALL			; GET ALL PRIVILEGES
                                     0091   270 	DISPSERV			; SET UP DISPLAY INFO FOR TESTSERV
                                     0226   271 	$SETPRT_S INADR=INADR, RETADR=RETADR, -
                                     0226   272 		  PROT=PROT, PRVPRT=PRVPRT
                                     0247   273 					; SET NOACCESS PSECT ...
                                     0247   274 					; ... FOR NO USER ACCESS
                          0906   31  0247   275 	BRW	EXECUTE			; GO EXECUTE ALL TEST CASES
                                     024A   276 ;
                                     024A   277 	TC_GROUP	CVA,1,TS1
                                     0271   278 ;
                                     0271   279 	NEXT_TEST_CASE	SFCVA10
SATSSF13        - SATS SYSTEM SERVICE TESTS  (FAILING S.C.)      22-AUG-1978 03:53:08   VAX-11 MACRO X0.3-11               Page   8
1.0             SFCVA10                                                                                                          (1)

                                     0271   280 ;
                                     0271   281 ;++
                                     0271   282 ; ******************************************************
                                     0271   283 ; *
                                     0271   284 ; *  TEST CASE NAME:		SFCVA10
                                     0271   285 ; *
                                     0271   286 ; *  SYSTEM SERVICE:		CRETVA
                                     0271   287 ; *
                                     0271   288 ; *  ARGUMENT UNDER TEST: 	INADR_CVA10
                                     0271   289 ; *
                                     0271   290 ; *  INPUT CONDITIONS:
                                     0271   291 ; *	ISSUE CRETVA WITH RANGE OF ADDRESSES IN
                                     0271   292 ; *	  SYSTEM SPACE.
                                     0271   293 ; *
                                     0271   294 ; *  EXPECTED RESULTS:
                                     0271   295 ; *	1) SYSTEM STATUS CODE:	NOPRIV
                                     0271   296 ; *	2) REGISTERS R2 THROUGH FP UNCHANGED
                                     0271   297 ; *
                                     0271   298 ; ******************************************************
                                     0271   299 ;--
                                     0271   300 ;
                                     0271   301 ;
                                     0271   302 	NEXT_TEST_CASE	SFCVA11
SATSSF13        - SATS SYSTEM SERVICE TESTS  (FAILING S.C.)      22-AUG-1978 03:53:08   VAX-11 MACRO X0.3-11               Page   9
1.0             SFCVA11                                                                                                          (1)

                                     027D   303 ;
                                     027D   304 ;++
                                     027D   305 ; ******************************************************
                                     027D   306 ; *
                                     027D   307 ; *  TEST CASE NAME:		SFCVA11
                                     027D   308 ; *
                                     027D   309 ; *  SYSTEM SERVICE:		CRETVA
                                     027D   310 ; *
                                     027D   311 ; *  ARGUMENT UNDER TEST: 	INADR_CVA11
                                     027D   312 ; *
                                     027D   313 ; *  INPUT CONDITIONS:
                                     027D   314 ; *	CREATE A PAGE ALREADY OWNED BY EXEC MODE.
                                     027D   315 ; *
                                     027D   316 ; *  EXPECTED RESULTS:
                                     027D   317 ; *	1) SYSTEM STATUS CODE:	PAGOWNVIO
                                     027D   318 ; *	2) REGISTERS R2 THROUGH FP UNCHANGED
                                     027D   319 ; *
                                     027D   320 ; ******************************************************
                                     027D   321 ;--
                                     027D   322 ;
                                     027D   323 	MODE	TO,10$,EXEC,NOREGS	; GET INTO EXEC MODE FOR EXPREG
                                     029A   324 	$EXPREG_S PAGCNT=#1, RETADR=INADR_CVA11
                                     02AD   325 					; GET A 1-PAGE REGION OWNED BY EXEC MODE
                                     02AD   326 	MODE	FROM,10$		; BACK TO USER MODE
                                     02AE   327 ;
                                     02AE   328 	NEXT_TEST_CASE	SFCVA12
SATSSF13        - SATS SYSTEM SERVICE TESTS  (FAILING S.C.)      22-AUG-1978 03:53:08   VAX-11 MACRO X0.3-11               Page  10
1.0             SFCVA12                                                                                                          (1)

                                     02BA   329 ;
                                     02BA   330 ;++
                                     02BA   331 ; ******************************************************
                                     02BA   332 ; *
                                     02BA   333 ; *  TEST CASE NAME:		SFCVA12
                                     02BA   334 ; *
                                     02BA   335 ; *  SYSTEM SERVICE:		CRETVA
                                     02BA   336 ; *
                                     02BA   337 ; *  ARGUMENT UNDER TEST: 	INADR_CVA12
                                     02BA   338 ; *
                                     02BA   339 ; *  INPUT CONDITIONS:
                                     02BA   340 ; *	INPUT ADDRESS FIELD AT LOCATION 0.
                                     02BA   341 ; *
                                     02BA   342 ; *  EXPECTED RESULTS:
                                     02BA   343 ; *	1) SYSTEM STATUS CODE:	ACCVIO
                                     02BA   344 ; *	2) REGISTERS R2 THROUGH FP UNCHANGED
                                     02BA   345 ; *
                                     02BA   346 ; ******************************************************
                                     02BA   347 ;--
                                     02BA   348 ;
                                     02BA   349 	MODE	TO,20$,EXEC,NOREGS	; INTO EXEC MODE FOR CNTREG
                                     02D7   350 	$CNTREG_S PAGCNT=#1		; GIVE BACK PAGE ACQUIRED BY SFCVA11
                                     02E6   351 	MODE	FROM,20$		; BACK TO USER MODE
                                     02E7   352 ;
                                     02E7   353 	NEXT_TEST_CASE	SFCVA13
SATSSF13        - SATS SYSTEM SERVICE TESTS  (FAILING S.C.)      22-AUG-1978 03:53:08   VAX-11 MACRO X0.3-11               Page  11
1.0             SFCVA13                                                                                                          (1)

                                     02F3   354 ;
                                     02F3   355 ;++
                                     02F3   356 ; ******************************************************
                                     02F3   357 ; *
                                     02F3   358 ; *  TEST CASE NAME:		SFCVA13
                                     02F3   359 ; *
                                     02F3   360 ; *  SYSTEM SERVICE:		CRETVA
                                     02F3   361 ; *
                                     02F3   362 ; *  ARGUMENT UNDER TEST: 	INADR_CVA13
                                     02F3   363 ; *
                                     02F3   364 ; *  INPUT CONDITIONS:
                                     02F3   365 ; *	INPUT ADDRESS FIELD IN NON-ACCESSIBLE PSECT.
                                     02F3   366 ; *
                                     02F3   367 ; *  EXPECTED RESULTS:
                                     02F3   368 ; *	1) SYSTEM STATUS CODE:	ACCVIO
                                     02F3   369 ; *	2) REGISTERS R2 THROUGH FP UNCHANGED
                                     02F3   370 ; *
                                     02F3   371 ; ******************************************************
                                     02F3   372 ;--
                                     02F3   373 ;
                                     02F3   374 ;
                                     02F3   375 	NEXT_TEST_CASE	SFCVA14
SATSSF13        - SATS SYSTEM SERVICE TESTS  (FAILING S.C.)      22-AUG-1978 03:53:08   VAX-11 MACRO X0.3-11               Page  12
1.0             SFCVA14                                                                                                          (1)

                                     02FF   376 ;
                                     02FF   377 ;++
                                     02FF   378 ; ******************************************************
                                     02FF   379 ; *
                                     02FF   380 ; *  TEST CASE NAME:		SFCVA14
                                     02FF   381 ; *
                                     02FF   382 ; *  SYSTEM SERVICE:		CRETVA
                                     02FF   383 ; *
                                     02FF   384 ; *  ARGUMENT UNDER TEST: 	INADR_CVA14
                                     02FF   385 ; *
                                     02FF   386 ; *  INPUT CONDITIONS:
                                     02FF   387 ; *	SECOND LONGWORD OF INPUT ADDRESS FIELD BEGINS IN
                                     02FF   388 ; *	  ACCESSIBLE PSECT, ENDS IN NON-ACCESSIBLE PSECT.
                                     02FF   389 ; *
                                     02FF   390 ; *  EXPECTED RESULTS:
                                     02FF   391 ; *	1) SYSTEM STATUS CODE:	ACCVIO
                                     02FF   392 ; *	2) REGISTERS R2 THROUGH FP UNCHANGED
                                     02FF   393 ; *
                                     02FF   394 ; ******************************************************
                                     02FF   395 ;--
                                     02FF   396 ;
                                     02FF   397 ;
                                     02FF   398 	NEXT_TEST_CASE	SFCVA20
SATSSF13        - SATS SYSTEM SERVICE TESTS  (FAILING S.C.)      22-AUG-1978 03:53:08   VAX-11 MACRO X0.3-11               Page  13
1.0             SFCVA20                                                                                                          (1)

                                     030B   399 ;
                                     030B   400 ;++
                                     030B   401 ; ******************************************************
                                     030B   402 ; *
                                     030B   403 ; *  TEST CASE NAME:		SFCVA20
                                     030B   404 ; *
                                     030B   405 ; *  SYSTEM SERVICE:		CRETVA
                                     030B   406 ; *
                                     030B   407 ; *  ARGUMENT UNDER TEST: 	RETADR_CVA20
                                     030B   408 ; *
                                     030B   409 ; *  INPUT CONDITIONS:
                                     030B   410 ; *	RETURN ADDRESS FIELD AT LOCATION 1.
                                     030B   411 ; *
                                     030B   412 ; *  EXPECTED RESULTS:
                                     030B   413 ; *	1) SYSTEM STATUS CODE:	ACCVIO
                                     030B   414 ; *	2) REGISTERS R2 THROUGH FP UNCHANGED
                                     030B   415 ; *
                                     030B   416 ; ******************************************************
                                     030B   417 ;--
                                     030B   418 ;
                                     030B   419 ;
                                     030B   420 	NEXT_TEST_CASE	SFCVA21
SATSSF13        - SATS SYSTEM SERVICE TESTS  (FAILING S.C.)      22-AUG-1978 03:53:08   VAX-11 MACRO X0.3-11               Page  14
1.0             SFCVA21                                                                                                          (1)

                                     0317   421 ;
                                     0317   422 ;++
                                     0317   423 ; ******************************************************
                                     0317   424 ; *
                                     0317   425 ; *  TEST CASE NAME:		SFCVA21
                                     0317   426 ; *
                                     0317   427 ; *  SYSTEM SERVICE:		CRETVA
                                     0317   428 ; *
                                     0317   429 ; *  ARGUMENT UNDER TEST: 	RETADR_CVA21
                                     0317   430 ; *
                                     0317   431 ; *  INPUT CONDITIONS:
                                     0317   432 ; *	RETURN ADDRESS FIELD IN READ-ONLY PSECT.
                                     0317   433 ; *
                                     0317   434 ; *  EXPECTED RESULTS:
                                     0317   435 ; *	1) SYSTEM STATUS CODE:	ACCVIO
                                     0317   436 ; *	2) REGISTERS R2 THROUGH FP UNCHANGED
                                     0317   437 ; *
                                     0317   438 ; ******************************************************
                                     0317   439 ;--
                                     0317   440 ;
                                     0317   441 ;
                                     0317   442 	NEXT_TEST_CASE	SFCVA22
SATSSF13        - SATS SYSTEM SERVICE TESTS  (FAILING S.C.)      22-AUG-1978 03:53:08   VAX-11 MACRO X0.3-11               Page  15
1.0             SFCVA22                                                                                                          (1)

                                     0323   443 ;
                                     0323   444 ;++
                                     0323   445 ; ******************************************************
                                     0323   446 ; *
                                     0323   447 ; *  TEST CASE NAME:		SFCVA22
                                     0323   448 ; *
                                     0323   449 ; *  SYSTEM SERVICE:		CRETVA
                                     0323   450 ; *
                                     0323   451 ; *  ARGUMENT UNDER TEST: 	RETADR_CVA22
                                     0323   452 ; *
                                     0323   453 ; *  INPUT CONDITIONS:
                                     0323   454 ; *	SECOND LONGWORD OF RETURN ADDRESS FIELD BEGINS IN
                                     0323   455 ; *	  ACCESSIBLE PSECT, ENDS IN NON-ACCESSIBLE PSECT.
                                     0323   456 ; *
                                     0323   457 ; *  EXPECTED RESULTS:
                                     0323   458 ; *	1) SYSTEM STATUS CODE:	ACCVIO
                                     0323   459 ; *	2) REGISTERS R2 THROUGH FP UNCHANGED
                                     0323   460 ; *
                                     0323   461 ; ******************************************************
                                     0323   462 ;--
                                     0323   463 ;
                                     0323   464 ;
                                     0323   465 	TCEND
SATSSF13        - SATS SYSTEM SERVICE TESTS  (FAILING S.C.)      22-AUG-1978 03:53:08   VAX-11 MACRO X0.3-11               Page  16
1.0                                                                                                                              (1)

                                     0324   466 ;
                                     0324   467 	TC_GROUP	DVA,1,TS2
                                     034B   468 ;
                                     034B   469 	NEXT_TEST_CASE	SFDVA10
SATSSF13        - SATS SYSTEM SERVICE TESTS  (FAILING S.C.)      22-AUG-1978 03:53:08   VAX-11 MACRO X0.3-11               Page  17
1.0             SFDVA10                                                                                                          (1)

                                     034B   470 ;
                                     034B   471 ;++
                                     034B   472 ; ******************************************************
                                     034B   473 ; *
                                     034B   474 ; *  TEST CASE NAME:		SFDVA10
                                     034B   475 ; *
                                     034B   476 ; *  SYSTEM SERVICE:		DELTVA
                                     034B   477 ; *
                                     034B   478 ; *  ARGUMENT UNDER TEST: 	INADR_DVA10
                                     034B   479 ; *
                                     034B   480 ; *  INPUT CONDITIONS:
                                     034B   481 ; *	ISSUE DELTVA WITH RANGE OF ADDRESSES IN
                                     034B   482 ; *	  SYSTEM SPACE.
                                     034B   483 ; *
                                     034B   484 ; *  EXPECTED RESULTS:
                                     034B   485 ; *	1) SYSTEM STATUS CODE:	NOPRIV
                                     034B   486 ; *	2) REGISTERS R2 THROUGH FP UNCHANGED
                                     034B   487 ; *
                                     034B   488 ; ******************************************************
                                     034B   489 ;--
                                     034B   490 ;
                                     034B   491 ;
                                     034B   492 	NEXT_TEST_CASE	SFDVA11
SATSSF13        - SATS SYSTEM SERVICE TESTS  (FAILING S.C.)      22-AUG-1978 03:53:08   VAX-11 MACRO X0.3-11               Page  18
1.0             SFDVA11                                                                                                          (1)

                                     0357   493 ;
                                     0357   494 ;++
                                     0357   495 ; ******************************************************
                                     0357   496 ; *
                                     0357   497 ; *  TEST CASE NAME:		SFDVA11
                                     0357   498 ; *
                                     0357   499 ; *  SYSTEM SERVICE:		DELTVA
                                     0357   500 ; *
                                     0357   501 ; *  ARGUMENT UNDER TEST: 	INADR_DVA11
                                     0357   502 ; *
                                     0357   503 ; *  INPUT CONDITIONS:
                                     0357   504 ; *	DELETE A PAGE ALREADY OWNED BY EXEC MODE.
                                     0357   505 ; *
                                     0357   506 ; *  EXPECTED RESULTS:
                                     0357   507 ; *	1) SYSTEM STATUS CODE:	PAGOWNVIO
                                     0357   508 ; *	2) REGISTERS R2 THROUGH FP UNCHANGED
                                     0357   509 ; *
                                     0357   510 ; ******************************************************
                                     0357   511 ;--
                                     0357   512 ;
                                     0357   513 	MODE	TO,10$,EXEC,NOREGS	; GET INTO EXEC MODE FOR EXPREG
                                     0374   514 	$EXPREG_S PAGCNT=#1, RETADR=INADR_DVA11
                                     0387   515 					; GET A 1-PAGE REGION OWNED BY EXEC MODE
                                     0387   516 	MODE	FROM,10$		; BACK TO USER MODE
                                     0388   517 ;
                                     0388   518 	NEXT_TEST_CASE	SFDVA12
SATSSF13        - SATS SYSTEM SERVICE TESTS  (FAILING S.C.)      22-AUG-1978 03:53:08   VAX-11 MACRO X0.3-11               Page  19
1.0             SFDVA12                                                                                                          (1)

                                     0394   519 ;
                                     0394   520 ;++
                                     0394   521 ; ******************************************************
                                     0394   522 ; *
                                     0394   523 ; *  TEST CASE NAME:		SFDVA12
                                     0394   524 ; *
                                     0394   525 ; *  SYSTEM SERVICE:		DELTVA
                                     0394   526 ; *
                                     0394   527 ; *  ARGUMENT UNDER TEST: 	INADR_DVA12
                                     0394   528 ; *
                                     0394   529 ; *  INPUT CONDITIONS:
                                     0394   530 ; *	INPUT ADDRESS FIELD AT LOCATION 0.
                                     0394   531 ; *
                                     0394   532 ; *  EXPECTED RESULTS:
                                     0394   533 ; *	1) SYSTEM STATUS CODE:	ACCVIO
                                     0394   534 ; *	2) REGISTERS R2 THROUGH FP UNCHANGED
                                     0394   535 ; *
                                     0394   536 ; ******************************************************
                                     0394   537 ;--
                                     0394   538 ;
                                     0394   539 	MODE	TO,20$,EXEC,NOREGS	; INTO EXEC MODE FOR CNTREG
                                     03B1   540 	$CNTREG_S PAGCNT=#1		; GIVE BACK PAGE ACQUIRED BY SFDVA11
                                     03C0   541 	MODE	FROM,20$		; BACK TO USER MODE
                                     03C1   542 ;
                                     03C1   543 	NEXT_TEST_CASE	SFDVA13
SATSSF13        - SATS SYSTEM SERVICE TESTS  (FAILING S.C.)      22-AUG-1978 03:53:08   VAX-11 MACRO X0.3-11               Page  20
1.0             SFDVA13                                                                                                          (1)

                                     03CD   544 ;
                                     03CD   545 ;++
                                     03CD   546 ; ******************************************************
                                     03CD   547 ; *
                                     03CD   548 ; *  TEST CASE NAME:		SFDVA13
                                     03CD   549 ; *
                                     03CD   550 ; *  SYSTEM SERVICE:		DELTVA
                                     03CD   551 ; *
                                     03CD   552 ; *  ARGUMENT UNDER TEST: 	INADR_DVA13
                                     03CD   553 ; *
                                     03CD   554 ; *  INPUT CONDITIONS:
                                     03CD   555 ; *	INPUT ADDRESS FIELD IN NON-ACCESSIBLE PSECT.
                                     03CD   556 ; *
                                     03CD   557 ; *  EXPECTED RESULTS:
                                     03CD   558 ; *	1) SYSTEM STATUS CODE:	ACCVIO
                                     03CD   559 ; *	2) REGISTERS R2 THROUGH FP UNCHANGED
                                     03CD   560 ; *
                                     03CD   561 ; ******************************************************
                                     03CD   562 ;--
                                     03CD   563 ;
                                     03CD   564 ;
                                     03CD   565 	NEXT_TEST_CASE	SFDVA14
SATSSF13        - SATS SYSTEM SERVICE TESTS  (FAILING S.C.)      22-AUG-1978 03:53:08   VAX-11 MACRO X0.3-11               Page  21
1.0             SFDVA14                                                                                                          (1)

                                     03D9   566 ;
                                     03D9   567 ;++
                                     03D9   568 ; ******************************************************
                                     03D9   569 ; *
                                     03D9   570 ; *  TEST CASE NAME:		SFDVA14
                                     03D9   571 ; *
                                     03D9   572 ; *  SYSTEM SERVICE:		DELTVA
                                     03D9   573 ; *
                                     03D9   574 ; *  ARGUMENT UNDER TEST: 	INADR_DVA14
                                     03D9   575 ; *
                                     03D9   576 ; *  INPUT CONDITIONS:
                                     03D9   577 ; *	SECOND LONGWORD OF INPUT ADDRESS FIELD BEGINS IN
                                     03D9   578 ; *	  ACCESSIBLE PSECT, ENDS IN NON-ACCESSIBLE PSECT.
                                     03D9   579 ; *
                                     03D9   580 ; *  EXPECTED RESULTS:
                                     03D9   581 ; *	1) SYSTEM STATUS CODE:	ACCVIO
                                     03D9   582 ; *	2) REGISTERS R2 THROUGH FP UNCHANGED
                                     03D9   583 ; *
                                     03D9   584 ; ******************************************************
                                     03D9   585 ;--
                                     03D9   586 ;
                                     03D9   587 ;
                                     03D9   588 	NEXT_TEST_CASE	SFDVA20
SATSSF13        - SATS SYSTEM SERVICE TESTS  (FAILING S.C.)      22-AUG-1978 03:53:08   VAX-11 MACRO X0.3-11               Page  22
1.0             SFDVA20                                                                                                          (1)

                                     03E5   589 ;
                                     03E5   590 ;++
                                     03E5   591 ; ******************************************************
                                     03E5   592 ; *
                                     03E5   593 ; *  TEST CASE NAME:		SFDVA20
                                     03E5   594 ; *
                                     03E5   595 ; *  SYSTEM SERVICE:		DELTVA
                                     03E5   596 ; *
                                     03E5   597 ; *  ARGUMENT UNDER TEST: 	RETADR_DVA20
                                     03E5   598 ; *
                                     03E5   599 ; *  INPUT CONDITIONS:
                                     03E5   600 ; *	RETURN ADDRESS FIELD AT LOCATION 1.
                                     03E5   601 ; *
                                     03E5   602 ; *  EXPECTED RESULTS:
                                     03E5   603 ; *	1) SYSTEM STATUS CODE:	ACCVIO
                                     03E5   604 ; *	2) REGISTERS R2 THROUGH FP UNCHANGED
                                     03E5   605 ; *
                                     03E5   606 ; ******************************************************
                                     03E5   607 ;--
                                     03E5   608 ;
                                     03E5   609 ;
                                     03E5   610 	NEXT_TEST_CASE	SFDVA21
SATSSF13        - SATS SYSTEM SERVICE TESTS  (FAILING S.C.)      22-AUG-1978 03:53:08   VAX-11 MACRO X0.3-11               Page  23
1.0             SFDVA21                                                                                                          (1)

                                     03F1   611 ;
                                     03F1   612 ;++
                                     03F1   613 ; ******************************************************
                                     03F1   614 ; *
                                     03F1   615 ; *  TEST CASE NAME:		SFDVA21
                                     03F1   616 ; *
                                     03F1   617 ; *  SYSTEM SERVICE:		DELTVA
                                     03F1   618 ; *
                                     03F1   619 ; *  ARGUMENT UNDER TEST: 	RETADR_DVA21
                                     03F1   620 ; *
                                     03F1   621 ; *  INPUT CONDITIONS:
                                     03F1   622 ; *	RETURN ADDRESS FIELD IN READ-ONLY PSECT.
                                     03F1   623 ; *
                                     03F1   624 ; *  EXPECTED RESULTS:
                                     03F1   625 ; *	1) SYSTEM STATUS CODE:	ACCVIO
                                     03F1   626 ; *	2) REGISTERS R2 THROUGH FP UNCHANGED
                                     03F1   627 ; *
                                     03F1   628 ; ******************************************************
                                     03F1   629 ;--
                                     03F1   630 ;
                                     03F1   631 ;
                                     03F1   632 	NEXT_TEST_CASE	SFDVA22
SATSSF13        - SATS SYSTEM SERVICE TESTS  (FAILING S.C.)      22-AUG-1978 03:53:08   VAX-11 MACRO X0.3-11               Page  24
1.0             SFDVA22                                                                                                          (1)

                                     03FD   633 ;
                                     03FD   634 ;++
                                     03FD   635 ; ******************************************************
                                     03FD   636 ; *
                                     03FD   637 ; *  TEST CASE NAME:		SFDVA22
                                     03FD   638 ; *
                                     03FD   639 ; *  SYSTEM SERVICE:		DELTVA
                                     03FD   640 ; *
                                     03FD   641 ; *  ARGUMENT UNDER TEST: 	RETADR_DVA22
                                     03FD   642 ; *
                                     03FD   643 ; *  INPUT CONDITIONS:
                                     03FD   644 ; *	SECOND LONGWORD OF RETURN ADDRESS FIELD BEGINS IN
                                     03FD   645 ; *	  ACCESSIBLE PSECT, ENDS IN NON-ACCESSIBLE PSECT.
                                     03FD   646 ; *
                                     03FD   647 ; *  EXPECTED RESULTS:
                                     03FD   648 ; *	1) SYSTEM STATUS CODE:	ACCVIO
                                     03FD   649 ; *	2) REGISTERS R2 THROUGH FP UNCHANGED
                                     03FD   650 ; *
                                     03FD   651 ; ******************************************************
                                     03FD   652 ;--
                                     03FD   653 ;
                                     03FD   654 ;
                                     03FD   655 	TCEND
SATSSF13        - SATS SYSTEM SERVICE TESTS  (FAILING S.C.)      22-AUG-1978 03:53:08   VAX-11 MACRO X0.3-11               Page  25
1.0                                                                                                                              (1)

                                     03FE   656 ;
                                     03FE   657 	TC_GROUP	PWS,1,TS3
                                     0425   658 ;
                                     0425   659 	NEXT_TEST_CASE	SFPWS10
SATSSF13        - SATS SYSTEM SERVICE TESTS  (FAILING S.C.)      22-AUG-1978 03:53:08   VAX-11 MACRO X0.3-11               Page  26
1.0             SFPWS10                                                                                                          (1)

                                     0425   660 ;
                                     0425   661 ;++
                                     0425   662 ; ******************************************************
                                     0425   663 ; *
                                     0425   664 ; *  TEST CASE NAME:		SFPWS10
                                     0425   665 ; *
                                     0425   666 ; *  SYSTEM SERVICE:		PURGWS
                                     0425   667 ; *
                                     0425   668 ; *  ARGUMENT UNDER TEST: 	INADR_PWS10
                                     0425   669 ; *
                                     0425   670 ; *  INPUT CONDITIONS:
                                     0425   671 ; *	INPUT ADDRESS ARRAY AT LOCATION 0.
                                     0425   672 ; *
                                     0425   673 ; *  EXPECTED RESULTS:
                                     0425   674 ; *	1) SYSTEM STATUS CODE:	ACCVIO
                                     0425   675 ; *	2) REGISTERS R2 THROUGH FP UNCHANGED
                                     0425   676 ; *
                                     0425   677 ; ******************************************************
                                     0425   678 ;--
                                     0425   679 ;
                                     0425   680 ;
                                     0425   681 	NEXT_TEST_CASE	SFPWS11
SATSSF13        - SATS SYSTEM SERVICE TESTS  (FAILING S.C.)      22-AUG-1978 03:53:08   VAX-11 MACRO X0.3-11               Page  27
1.0             SFPWS11                                                                                                          (1)

                                     0431   682 ;
                                     0431   683 ;++
                                     0431   684 ; ******************************************************
                                     0431   685 ; *
                                     0431   686 ; *  TEST CASE NAME:		SFPWS11
                                     0431   687 ; *
                                     0431   688 ; *  SYSTEM SERVICE:		PURGWS
                                     0431   689 ; *
                                     0431   690 ; *  ARGUMENT UNDER TEST: 	INADR_PWS11
                                     0431   691 ; *
                                     0431   692 ; *  INPUT CONDITIONS:
                                     0431   693 ; *	INPUT ADDRESS ARRAY IN NON-ACCESSIBLE PSECT.
                                     0431   694 ; *
                                     0431   695 ; *  EXPECTED RESULTS:
                                     0431   696 ; *	1) SYSTEM STATUS CODE:	ACCVIO
                                     0431   697 ; *	2) REGISTERS R2 THROUGH FP UNCHANGED
                                     0431   698 ; *
                                     0431   699 ; ******************************************************
                                     0431   700 ;--
                                     0431   701 ;
                                     0431   702 ;
                                     0431   703 	NEXT_TEST_CASE	SFPWS12
SATSSF13        - SATS SYSTEM SERVICE TESTS  (FAILING S.C.)      22-AUG-1978 03:53:08   VAX-11 MACRO X0.3-11               Page  28
1.0             SFPWS12                                                                                                          (1)

                                     043D   704 ;
                                     043D   705 ;++
                                     043D   706 ; ******************************************************
                                     043D   707 ; *
                                     043D   708 ; *  TEST CASE NAME:		SFPWS12
                                     043D   709 ; *
                                     043D   710 ; *  SYSTEM SERVICE:		PURGWS
                                     043D   711 ; *
                                     043D   712 ; *  ARGUMENT UNDER TEST: 	INADR_PWS12
                                     043D   713 ; *
                                     043D   714 ; *  INPUT CONDITIONS:
                                     043D   715 ; *	INPUT ADDRESS ARRAY BEGINS IN ACCESSIBLE
                                     043D   716 ; *	  PSECT, ENDS IN NON-ACCESSIBLE PSECT.
                                     043D   717 ; *
                                     043D   718 ; *  EXPECTED RESULTS:
                                     043D   719 ; *	1) SYSTEM STATUS CODE:	ACCVIO
                                     043D   720 ; *	2) REGISTERS R2 THROUGH FP UNCHANGED
                                     043D   721 ; *
                                     043D   722 ; ******************************************************
                                     043D   723 ;--
                                     043D   724 ;
                                     043D   725 ;
                                     043D   726 	TCEND
SATSSF13        - SATS SYSTEM SERVICE TESTS  (FAILING S.C.)      22-AUG-1978 03:53:08   VAX-11 MACRO X0.3-11               Page  29
1.0                                                                                                                              (1)

                                     043E   727 ;
                                     043E   728 	TC_GROUP	AWS,1,TS4
                                     0465   729 ;
                                     0465   730 	NEXT_TEST_CASE	SFAWS20
SATSSF13        - SATS SYSTEM SERVICE TESTS  (FAILING S.C.)      22-AUG-1978 03:53:08   VAX-11 MACRO X0.3-11               Page  30
1.0             SFAWS20                                                                                                          (1)

                                     0465   731 ;
                                     0465   732 ;++
                                     0465   733 ; ******************************************************
                                     0465   734 ; *
                                     0465   735 ; *  TEST CASE NAME:		SFAWS20
                                     0465   736 ; *
                                     0465   737 ; *  SYSTEM SERVICE:		ADJWSL
                                     0465   738 ; *
                                     0465   739 ; *  ARGUMENT UNDER TEST: 	WSETLM_AWS20
                                     0465   740 ; *
                                     0465   741 ; *  INPUT CONDITIONS:
                                     0465   742 ; *	WORKING SET LIMIT FIELD AT LOCATION 1.
                                     0465   743 ; *
                                     0465   744 ; *  EXPECTED RESULTS:
                                     0465   745 ; *	1) SYSTEM STATUS CODE:	ACCVIO
                                     0465   746 ; *	2) REGISTERS R2 THROUGH FP UNCHANGED
                                     0465   747 ; *
                                     0465   748 ; ******************************************************
                                     0465   749 ;--
                                     0465   750 ;
                                     0465   751 ;
                                     0465   752 	NEXT_TEST_CASE	SFAWS21
SATSSF13        - SATS SYSTEM SERVICE TESTS  (FAILING S.C.)      22-AUG-1978 03:53:08   VAX-11 MACRO X0.3-11               Page  31
1.0             SFAWS21                                                                                                          (1)

                                     0471   753 ;
                                     0471   754 ;++
                                     0471   755 ; ******************************************************
                                     0471   756 ; *
                                     0471   757 ; *  TEST CASE NAME:		SFAWS21
                                     0471   758 ; *
                                     0471   759 ; *  SYSTEM SERVICE:		ADJWSL
                                     0471   760 ; *
                                     0471   761 ; *  ARGUMENT UNDER TEST: 	WSETLM_AWS21
                                     0471   762 ; *
                                     0471   763 ; *  INPUT CONDITIONS:
                                     0471   764 ; *	WORKING SET LIMIT FIELD IN READ-ONLY PSECT.
                                     0471   765 ; *
                                     0471   766 ; *  EXPECTED RESULTS:
                                     0471   767 ; *	1) SYSTEM STATUS CODE:	ACCVIO
                                     0471   768 ; *	2) REGISTERS R2 THROUGH FP UNCHANGED
                                     0471   769 ; *
                                     0471   770 ; ******************************************************
                                     0471   771 ;--
                                     0471   772 ;
                                     0471   773 ;
                                     0471   774 	NEXT_TEST_CASE	SFAWS22
SATSSF13        - SATS SYSTEM SERVICE TESTS  (FAILING S.C.)      22-AUG-1978 03:53:08   VAX-11 MACRO X0.3-11               Page  32
1.0             SFAWS22                                                                                                          (1)

                                     047D   775 ;
                                     047D   776 ;++
                                     047D   777 ; ******************************************************
                                     047D   778 ; *
                                     047D   779 ; *  TEST CASE NAME:		SFAWS22
                                     047D   780 ; *
                                     047D   781 ; *  SYSTEM SERVICE:		ADJWSL
                                     047D   782 ; *
                                     047D   783 ; *  ARGUMENT UNDER TEST: 	WSETLM_AWS22
                                     047D   784 ; *
                                     047D   785 ; *  INPUT CONDITIONS:
                                     047D   786 ; *	WORKING SET LIMIT FIELD BEGINS IN ACCESSIBLE
                                     047D   787 ; *	  PSECT, ENDS IN NON-ACCESSIBLE PSECT.
                                     047D   788 ; *
                                     047D   789 ; *  EXPECTED RESULTS:
                                     047D   790 ; *	1) SYSTEM STATUS CODE:	ACCVIO
                                     047D   791 ; *	2) REGISTERS R2 THROUGH FP UNCHANGED
                                     047D   792 ; *
                                     047D   793 ; ******************************************************
                                     047D   794 ;--
                                     047D   795 ;
                                     047D   796 ;
                                     047D   797 	TCEND
SATSSF13        - SATS SYSTEM SERVICE TESTS  (FAILING S.C.)      22-AUG-1978 03:53:08   VAX-11 MACRO X0.3-11               Page  33
1.0                                                                                                                              (1)

                                     047E   798 TS1:
                                     047E   799 	TESTSERV	CRETVA,ERR,SATS,				-
                                     047E   800                                           				-
                                     047E   801 	   <1,INADR_CVA,						-
                                     047E   802 	        	INADR_CVA10,NOPRIV,	-  ; SFCVA10
                                     047E   803 	        	INADR_CVA11,PAGOWNVIO,	-  ; SFCVA11
                                     047E   804 	        	INADR_CVA12,ACCVIO,	-  ; SFCVA12
                                     047E   805 	        	INADR_CVA13,ACCVIO,	-  ; SFCVA13
                                     047E   806 	        	INADR_CVA14,ACCVIO,	-  ; SFCVA14
                                     047E   807                                                   >,			-
                                     047E   808                                           				-
                                     047E   809 	   <1,RETADR_CVA,						-
                                     047E   810 	        	RETADR_CVA20,ACCVIO,	-  ; SFCVA20
                                     047E   811 	        	RETADR_CVA21,ACCVIO,	-  ; SFCVA21
                                     047E   812 	        	RETADR_CVA22,ACCVIO,	-  ; SFCVA22
                                     047E   813                                                   >,			-
                                     047E   814                                           				-
                                     047E   815 	   <1,ACMODE_CVA,						-
                                     047E   816                                                   >,			-
                                     047E   817
                                     0690   818 	TS_CLEANUP		; CLEAN UP & RETURN TO TEST_SERV_EXEC
SATSSF13        - SATS SYSTEM SERVICE TESTS  (FAILING S.C.)      22-AUG-1978 03:53:08   VAX-11 MACRO X0.3-11               Page  34
1.0                                                                                                                              (1)

                                     06B0   819 TS2:
                                     06B0   820 	TESTSERV	DELTVA,ERR,SATS,				-
                                     06B0   821                                           				-
                                     06B0   822 	   <1,INADR_DVA,						-
                                     06B0   823 	        	INADR_DVA10,NOPRIV,	-  ; SFDVA10
                                     06B0   824 	        	INADR_DVA11,PAGOWNVIO,	-  ; SFDVA11
                                     06B0   825 	        	INADR_DVA12,ACCVIO,	-  ; SFDVA12
                                     06B0   826 	        	INADR_DVA13,ACCVIO,	-  ; SFDVA13
                                     06B0   827 	        	INADR_DVA14,ACCVIO,	-  ; SFDVA14
                                     06B0   828                                                   >,			-
                                     06B0   829                                           				-
                                     06B0   830 	   <1,RETADR_DVA,						-
                                     06B0   831 	        	RETADR_DVA20,ACCVIO,	-  ; SFDVA20
                                     06B0   832 	        	RETADR_DVA21,ACCVIO,	-  ; SFDVA21
                                     06B0   833 	        	RETADR_DVA22,ACCVIO,	-  ; SFDVA22
                                     06B0   834                                                   >,			-
                                     06B0   835                                           				-
                                     06B0   836 	   <1,ACMODE_DVA,						-
                                     06B0   837                                                   >,			-
                                     06B0   838
                                     08C2   839 	TS_CLEANUP		; CLEAN UP & RETURN TO TEST_SERV_EXEC
SATSSF13        - SATS SYSTEM SERVICE TESTS  (FAILING S.C.)      22-AUG-1978 03:53:08   VAX-11 MACRO X0.3-11               Page  35
1.0                                                                                                                              (1)

                                     08E2   840 TS3:
                                     08E2   841 	TESTSERV	PURGWS,ERR,SATS,				-
                                     08E2   842                                           				-
                                     08E2   843 	   <1,INADR_PWS,						-
                                     08E2   844 	        	INADR_PWS10,ACCVIO,	-  ; SFPWS10
                                     08E2   845 	        	INADR_PWS11,ACCVIO,	-  ; SFPWS11
                                     08E2   846 	        	INADR_PWS12,ACCVIO,	-  ; SFPWS12
                                     08E2   847                                                   >,			-
                                     08E2   848
                                     09B5   849 	TS_CLEANUP		; CLEAN UP & RETURN TO TEST_SERV_EXEC
SATSSF13        - SATS SYSTEM SERVICE TESTS  (FAILING S.C.)      22-AUG-1978 03:53:08   VAX-11 MACRO X0.3-11               Page  36
1.0                                                                                                                              (1)

                                     09D5   850 TS4:
                                     09D5   851 	TESTSERV	ADJWSL,ERR,SATS,				-
                                     09D5   852                                           				-
                                     09D5   853 	   <1,PAGCNT_AWS,						-
                                     09D5   854                                                   >,			-
                                     09D5   855                                           				-
                                     09D5   856 	   <1,WSETLM_AWS,						-
                                     09D5   857 	        	WSETLM_AWS20,ACCVIO,	-  ; SFAWS20
                                     09D5   858 	        	WSETLM_AWS21,ACCVIO,	-  ; SFAWS21
                                     09D5   859 	        	WSETLM_AWS22,ACCVIO,	-  ; SFAWS22
                                     09D5   860                                                   >,			-
                                     09D5   861
                                     0B30   862 	TS_CLEANUP		; CLEAN UP & RETURN TO TEST_SERV_EXEC
SATSSF13        - SATS SYSTEM SERVICE TESTS  (FAILING S.C.)      22-AUG-1978 03:53:08   VAX-11 MACRO X0.3-11               Page  37
1.0             EXECUTE & CLEANUP                                                                                                (1)

                                     0B50   863 	.SBTTL	EXECUTE & CLEANUP
                                     0B50   864 EXECUTE:
                                     0B50   865 	TEST_SERV_EXEC			; EXECUTE ALL T. CASES IN ALL GROUPS
                                     0B78   866 	.MDELETE (PRIV,TC_GROUP,NEXT_TEST_CASE, -
                           0000000D  0B78   867 		  TCEND,TESTSERV,TS_CLEANUP,TEST_SERV_EXEC)
                                     0B78   868 					; DELETE MACRO DEFINITIONS
                                     0B78   869 CLEANUP:
                          0138   30  0B78   870 	BSBW	MOD_MSG_PRINT		; PRINT TEST MODULE END MSG
            1C            01     F0  0B7B   871 	INSV	#1,#STS$V_INHIB_MSG,#1,MOD_MSG_CODE
   00000044'EF            01         0B7E
                                     0B84   872 					; INHIBIT PRINTING
                                     0B84   873 	$EXIT_S	MOD_MSG_CODE		; EXIT TO OP SYS WITH MSG CODE
SATSSF13        - SATS SYSTEM SERVICE TESTS  (FAILING S.C.)      22-AUG-1978 03:53:08   VAX-11 MACRO X0.3-11               Page  38
1.0             TC_CONTROL                                                                                                       (1)

                                     0B91   875 	.SBTTL	TC_CONTROL
                                     0B91   876 ;++
                                     0B91   877 ; FUNCTIONAL DESCRIPTION:
                                     0B91   878 ;
                                     0B91   879 ;		THE TC_CONTROL SUBROUTINE IS CALLED BY THE TEST_SERV_EXEC
                                     0B91   880 ; MACRO TO EXECUTE A GROUP OF TEST CASES. A GROUP IS DEFINED BY A TC_GROUP
                                     0B91   881 ; MACRO. FOR EACH TC_GROUP MACRO, THERE IS A CORRESPONDING TESTSERV MACRO.
                                     0B91   882 ; TESTSERV CONTAINS CODE TO EXECUTE SYSTEM SERVICES AND CHECK THE RETURNED
                                     0B91   883 ; STATUS CODE VALUES. TESTSERV ARGUMENTS ARE CODED TO SPECIFY ALL THE SYSTEM
                                     0B91   884 ; SERVICE ARGUMENT VALUES AND THE EXPECTED STATUS CODE FOR EACH TEST CASE
                                     0B91   885 ; DEFINED BY A NEXT_TEST_CASE MACRO WITHIN THE GROUP. TC_CONTROL USES A
                                     0B91   886 ; CO-ROUTINE INTERFACE TO ENTER THE CODE OF THE APPROPRIATE TESTSERV MACRO
                                     0B91   887 ; IN VARIOUS PLACES. THE FIRST ENTRY OCCURS ONCE PER GROUP TO ALLOW TESTSERV
                                     0B91   888 ; TO DO SOME INITIALIZATION. THEN TWO ENTRIES ARE MADE FOR EACH TEST CASE IN
                                     0B91   889 ; THE GROUP. THE FIRST ALLOWS TESTSERV TO ISSUE THE SUBJECT SYSTEM SERVICE.
                                     0B91   890 ; THE SECOND ENTRY FOR THE TEST CASE CAUSES TESTSERV TO CHECK THE RETURNED
                                     0B91   891 ; STATUS CODE, PRINTING A FAILURE MESSAGE IF IT IS NOT THE EXPECTED CODE.
                                     0B91   892 ; IF THERE ARE NO MORE TEST CASES IN THE CURRENT GROUP, TESTSERV (NOT TC_CONTROL)
                                     0B91   893 ; RETURNS DIRECTLY TO TEST_SERV_EXEC (RSB ACTUALLY ISSUED IN TS_CLEANUP MACRO)
                                     0B91   894 ; FROM THIS SECOND ENTRY; OTHERWISE, CONTROL RETURNS TO TC_CONTROL WHICH
                                     0B91   895 ; IN TURN ENTERS TESTSERV AGAIN FOR THE NEXT TEST CASE. THE FAILURE OF A
                                     0B91   896 ; TEST CASE DOES NOT CAUSE TERMINATION OF THE TEST MODULE.
                                     0B91   897 ;
                                     0B91   898 ; CALLING SEQUENCE:
                                     0B91   899 ;
                                     0B91   900 ;	BSBW TC_CONTROL (ISSUED WITHIN THE TEST_SERV_EXEC MACRO)
                                     0B91   901 ;			(RSB IS ISSUED WITHIN THE TS_CLEANUP MACRO)
                                     0B91   902 ;
                                     0B91   903 ; INPUT PARAMETERS:
                                     0B91   904 ;
                                     0B91   905 ;	NONE
                                     0B91   906 ;
                                     0B91   907 ; IMPLICIT INPUTS:
                                     0B91   908 ;
                                     0B91   909 ;	ARGUMENTS SPECIFIED ON EACH TESTSERV MACRO MAY BE VIEWED AS
                                     0B91   910 ;	INPUTS, SINCE TC_CONTROL AND TESTSERV ACT AS CO-ROUTINES.
                                     0B91   911 ;
                                     0B91   912 ; OUTPUT PARAMETERS:
                                     0B91   913 ;
                                     0B91   914 ;	SEVERITY CODE FIELD OF MOD_MSG_CODE (BITS 0,1,2) IS SET TO ERROR
                                     0B91   915 ;	IF ANY TEST CASE IN THE CURRENT GROUP FAILS; OTHERWISE IT REMAINS
                                     0B91   916 ;	SET TO SUCCESSFUL.
                                     0B91   917 ;
                                     0B91   918 ; IMPLICIT OUTPUTS:
                                     0B91   919 ;
                                     0B91   920 ;	%UETP-I-TEXT,   ERROR MESSAGES ARE WRITTEN TO SYS$OUTPUT BY
                                     0B91   921 ;			THE TESTSERV MACRO (CO-ROUTINE WITH TC_CONTROL)
                                     0B91   922 ;
                                     0B91   923 ; COMPLETION CODES:
                                     0B91   924 ;
                                     0B91   925 ;	NONE
                                     0B91   926 ;
                                     0B91   927 ; SIDE EFFECTS:
                                     0B91   928 ;
                                     0B91   929 ;	NONE
                                     0B91   930 ;
                                     0B91   931 ;--
SATSSF13        - SATS SYSTEM SERVICE TESTS  (FAILING S.C.)      22-AUG-1978 03:53:08   VAX-11 MACRO X0.3-11               Page  39
1.0             TC_CONTROL                                                                                                       (1)

                                     0B91   932
                                     0B91   933
                                     0B91   934
                                     0B91   935 TC_CONTROL:
                 00000064'EF     DD  0B91   936 	PUSHL	TS_EP			; PUSH TESTSERV ENTRY POINT
                          9E     16  0B97   937 	JSB	@(SP)+			; ENTER TESTSERV INITIALIZATION
                                     0B99   938 10$:					; PROCESS NEXT TEST CASE
   00000056'EF            20     90  0B99   939 	MOVB	#^A/ /,$$TSTN$$+2 	; MAKE SURE T.C. NAME HAS A BLANK
                          002F   30  0BA0   940 	BSBW	REG_SAVE		; SAVE REGISTERS
                 00000004'FF     16  0BA3   941 	JSB	@CURRENT_TC		; JUMP TO CURRENT TEST CASE
                          0037   30  0BA9   942 	BSBW	REG_REST		; RESTORE REGS FOR TESTSERV
                          9E     16  0BAC   943 	JSB	@(SP)+			; LET TESTSERV ISSUE SYSTEM SERVICE
                          0042   30  0BAE   944 	BSBW	REG_COMP		; COMPARE REGS TO SEE IF ...
                                     0BB1   945 					; ... SYSTEM SERVICE CHANGED ANY
                          9E     16  0BB1   946 	JSB	@(SP)+			; LET TESTSERV CHEK S.S. STATUS CODE
   00000056'EF            2A     91  0BB3   947 	CMPB	#^A/*/,$$TSTN$$+2	; HAS TESTSERV INDICATED FAILURE ?
                          DD     12  0BBA   948 	BNEQU	10$			; NO -- PROCESS NEXT TEST CASE
   00000060'EF   00000088'EF     DE  0BBC   949 	MOVAL	TEST_MOD_FAIL,TMD_ADDR	; YES -- INDICATE FAILED IN END MSG
            00            02     F0  0BC7   950 	INSV	#ERROR,#0,#3,MOD_MSG_CODE ; ADJUST STATUS CODE FOR ERROR
   00000044'EF            03         0BCA
                          C7     11  0BD0   951 	BRB	10$			; LOOP BAK TO PROCESS NEXT TEST CASE
                                     0BD2   952 ;
                                     0BD2   953 ;   TC_CONTROL RETURNS TO TEST_SERV_EXEC VIA TESTSERV (IN TS_CLEANUP MACRO)
                                     0BD2   954 ;
SATSSF13        - SATS SYSTEM SERVICE TESTS  (FAILING S.C.)      22-AUG-1978 03:53:08   VAX-11 MACRO X0.3-11               Page  40
1.0             SUBROUTINES                                                                                                      (1)

                                     0BD2   956 	.SBTTL	SUBROUTINES
                                     0BD2   957 REG_SAVE:
                                     0BD2   958 ;
                                     0BD2   959 ;  *****************************************************************
                                     0BD2   960 ;  *                                                               *
                                     0BD2   961 ;  *  SAVES R0 THRU SP IN REG_SAVE_AREA                            *
                                     0BD2   962 ;  *                                                               *
                                     0BD2   963 ;  *****************************************************************
                                     0BD2   964 ;
                     7FFF 8F     BB  0BD2   965 	PUSHR	#R0_THRU_SP		; SAVE ALL REGS ON STACK
            6E            3C     28  0BD6   966 	MOVC3	#60,(SP),REG_SAVE_AREA	; SAVE REGS (BEFORE S.S.)
                 00000008'EF         0BD9
                     7FFF 8F     BA  0BDE   967 	POPR	#R0_THRU_SP		; CLEAN UP STACK
                                 05  0BE2   968 	RSB				; .... AND RETURN
                                     0BE3   969 ;
                                     0BE3   970 ;
                                     0BE3   971 ;
                                     0BE3   972 ;
                                     0BE3   973 REG_REST:
                                     0BE3   974 ;
                                     0BE3   975 ;
                                     0BE3   976 ;  *****************************************************************
                                     0BE3   977 ;  *                                                               *
                                     0BE3   978 ;  *  RESTORES R0 THRU SP FROM REG_SAVE_AREA                       *
                                     0BE3   979 ;  *                                                               *
                                     0BE3   980 ;  *****************************************************************
                                     0BE3   981 ;
            5E            3C     C2  0BE3   982 	SUBL2	#60,SP			; MOVE SP TO MAKE ROOM FOR REGS
   00000008'EF            3C     28  0BE6   983 	MOVC3	#60,REG_SAVE_AREA,(SP)	; MOVE REGS ONTO STACK FOR POP
                          6E         0BED
                     7FFF 8F     BA  0BEE   984 	POPR	#R0_THRU_SP		; RESTORE ALL REGS FOR TESTSERV
                                 05  0BF2   985 	RSB				; ... AND RETURN
SATSSF13        - SATS SYSTEM SERVICE TESTS  (FAILING S.C.)      22-AUG-1978 03:53:08   VAX-11 MACRO X0.3-11               Page  41
1.0             SUBROUTINES                                                                                                      (1)

                                     0BF3   987 REG_COMP:
                                     0BF3   988 ;
                                     0BF3   989 ;  *****************************************************************
                                     0BF3   990 ;  *                                                               *
                                     0BF3   991 ;  *  1) PUSHES ALL REGS ONTO STACK                                *
                                     0BF3   992 ;  *  2) COMPARES REGISTER IMAGES FROM STACK WITH CORRESPONDING    *
                                     0BF3   993 ;  *       IMAGES FROM REG_SAVE_AREA FOR ALL REGISTERS SPECIFIED   *
                                     0BF3   994 ;  *       IN REG_COMP_MASK.                                       *
                                     0BF3   995 ;  *  3) FOR EACH UNEQUAL COMPARE, AN ERROR MESSAGE IS PRINTED     *
                                     0BF3   996 ;  *       (USING $FAO AND $OUTPUT SYSTEM SERVICES).               *
                                     0BF3   997 ;  *  4) POPS ALL REGS OFF OF STACK                                *
                                     0BF3   998 ;  *                                                               *
                                     0BF3   999 ;  *****************************************************************
                                     0BF3  1000 ;
                     7FFF 8F     BB  0BF3  1001 	PUSHR	#R0_THRU_SP		; SAVE ALL REGISTERS ON STACK
            56   00000008'EF     DE  0BF7  1002 	MOVAL	REG_SAVE_AREA,R6 	; POINT R6 TO BEG OF ...
                                     0BFE  1003 					; ... REGS (BEFORE S.S.)
            54            5E     D0  0BFE  1004 	MOVL	SP,R4			; POINT R4 TO BEG OF
                                     0C01  1005 					; ... REGS (AFTER S.S.)
            53         FF 8F     98  0C01  1006 	CVTBL	#-1,R3			; INITIALIZE REG_COMP_MASK INDEX
                                     0C05  1007 REG_COMP_NEXT:
                          53     D6  0C05  1008 	INCL	R3			; POINT TO NEXT BIT IN MASK
            53            0F     91  0C07  1009 	CMPB	#15,R3			; END OF THE MASK ?
                          03     1A  0C0A  1010 	BGTRU	REG_COMP_CONT		; NO -- CONTINUE
                          009F   31  0C0C  1011 	BRW	REG_COMP_RSB		; YES -- GO TO COMMON RETURN
                                     0C0F  1012 REG_COMP_CONT:
            84            86     D1  0C0F  1013 	CMPL	(R6)+,(R4)+		; REG BEFORE = REG AFTER ?
                          F1     13  0C12  1014 	BEQLU	REG_COMP_NEXT		; YES -- LOOK FOR NEXT REG
   00000000'EF            53     E1  0C14  1015 	BBC	R3,REG_COMP_MASK,REG_COMP_NEXT
                          E9         0C1B
                                     0C1C  1016 					; NO -- GET NEXT IF BIT NOT SET
   00000048'EF            53     D0  0C1C  1017 	MOVL	R3,CLOB_REG_NO		; NO -- GIVE REG NUMBER TO FAO
   0000004C'EF         FC A6     D0  0C23  1018 	MOVL	-4(R6),REG_BEFORE_SS 	; GIVE "BEFORE" CONTENTS TO FAO
   00000050'EF         FC A4     D0  0C2B  1019 	MOVL	-4(R4),REG_AFTER_SS  	; GIVE "AFTER" CONTENTS TO FAO
   00000056'EF            2A     90  0C33  1020 	MOVB	#^A/*/,$$TSTN$$+2 	; GIVE FAILURE INDIC'N IN ERROR MSG
                                     0C3A  1021 ;
                                     0C3A  1022 	$FAO_S	ERR_MSG_FAOCTL,OUTL,OUTD,$$SNAD$$,  -
                                     0C3A  1023 		$$ASEQ$$,$$PSEQ$$,CLOB_REG_NO,REG_BEFORE_SS,REG_AFTER_SS
                                     0C6D  1024 ;
       F4A9 CF       F473 CF     B0  0C6D  1025 	MOVW	OUTL,OUTD		; ACTUAL OUTPUT LEN IN STRING DESC'R
                                     0C74  1026 	PUTMSG	<#UETP$_TEXT,#1,#OUTD>	; PRINT THE MSG
       F48D CF       0084 8F     B0  0C89  1027 	MOVW	#OUTE-OUTB,OUTD		; GET MAX LEN BACK INTO DESCRIPTOR
   00000056'EF            20     90  0C90  1028 	MOVB	#^A/ /,$$TSTN$$+2 	; REMOVE FAIL INDIC'N FOR NEXT MSG
   00000060'EF   00000088'EF     DE  0C97  1029 	MOVAL	TEST_MOD_FAIL,TMD_ADDR	; INDICATE FAILED IN END MSG
            00            02     F0  0CA2  1030 	INSV	#ERROR,#0,#3,MOD_MSG_CODE ; ADJUST STATUS CODE FOR ERROR
   00000044'EF            03         0CA5
                          FF57   31  0CAB  1031 	BRW	REG_COMP_NEXT		; GO LOOK FOR NEXT REG TO COMPARE
                                     0CAE  1032 REG_COMP_RSB:
                     7FFF 8F     BA  0CAE  1033 	POPR	#R0_THRU_SP		; CLEAN UP STACK
                                 05  0CB2  1034 	RSB				; RETURN TO CALLER
SATSSF13        - SATS SYSTEM SERVICE TESTS  (FAILING S.C.)      22-AUG-1978 03:53:08   VAX-11 MACRO X0.3-11               Page  42
1.0             SUBROUTINES                                                                                                      (1)

                                     0CB3  1036 MOD_MSG_PRINT:
                                     0CB3  1037 ;
                                     0CB3  1038 ;  *****************************************************************
                                     0CB3  1039 ;  *                                                               *
                                     0CB3  1040 ;  *  PRINTS THE TEST MODULE BEGUN/SUCCESSFUL/FAILED MESSAGES      *
                                     0CB3  1041 ;  *	   (USING THE PUTMSG MACRO).                               *
                                     0CB3  1042 ;  *                                                               *
                                     0CB3  1043 ;  *****************************************************************
                                     0CB3  1044 ;
                                     0CB3  1045 	PUTMSG	<MOD_MSG_CODE,#2,TMN_ADDR,TMD_ADDR> ; PRINT MSG
                                 05  0CCE  1046 	RSB				; ... AND RETURN TO CALLER
                                     0CCF  1047 ;
                                     0CCF  1048 CHMRTN:
                                     0CCF  1049 ; **********************************************************
                                     0CCF  1050 ; *
                                     0CCF  1051 ; *	CHANGE MODE ROUTINE. THIS ROUTINE GETS CONTROL WHENEVER
                                     0CCF  1052 ; *	A CMKRNL, CMEXEC, OR CMSUP SYSTEM SERVICE IS ISSUED
                                     0CCF  1053 ; *	BY THE MODE MACRO ('TO' OPTION).  IT MERELY DOES
                                     0CCF  1054 ; *	A JUMP INDIRECT ON A FIELD SET UP BY MODE. IT HAS
                                     0CCF  1055 ; *	THE EFFECT OF RETURNING TO THE END OF THE MODE
                                     0CCF  1056 ; *	MACRO EXPANSION.
                                     0CCF  1057 ; *
                                     0CCF  1058 ; *************************************************************
                                     0CCF  1059 ;
                               0000  0CCF  1060 	.WORD	0			; ENTRY MASK
                 00000079'FF     17  0CD1  1061 	JMP	@CHM_CONT		; RETURN TO MODE MACRO IN NEW MODE
                                     0CD7  1062 ;
                                     0CD7  1063 ; *	RET INSTR WILL BE ISSUED IN EXPANSION OF 'MODE FROM, ....' MACRO
                                     0CD7  1064 ;
                                     0CD7  1065 	.END	SATSSF13
SATSSF13        - SATS SYSTEM SERVICE TESTS  (FAILING S.C.)      22-AUG-1978 03:53:08   VAX-11 MACRO X0.3-11               Page  43
SYMBOL TABLE                                                                                                                     (1)

$$$CHARS       = 00000048            OUTB             00000125 R     07   PCB$W_ASTCNT     0000003C
$$$FIRSTTC$$$  = 00000000            OUTD             0000011D R     07   PCB$W_BIOCNT     0000003E
$$$STRINGS     = 00000000            OUTE             000001A9 R     07   PCB$W_BIOLM      00000040
$$ACT$$          000000FC R     07   OUTL             000000E4 R     07   PCB$W_BYTCNT     00000042
$$ARG$$          00000104 R     07   PAGCNT_AWS       000000E1 R     03   PCB$W_BYTLM      00000068
$$ASEQ$$         000000F4 R     07   PCB$B_ASTACT     0000000C            PCB$W_DIOCNT     00000044
$$CALL$$         000000E8 R     07   PCB$B_ASTEN      0000000D            PCB$W_DIOLM      00000046
$$DISP$$         000001EF R     07   PCB$B_PRI        0000000B            PCB$W_FILCNT     00000048
$$ERR$$          000001A9 R     07   PCB$B_PRIB       00000033            PCB$W_GPGCNT     00000038
$$EXP$$          00000100 R     07   PCB$B_TYPE       0000000A            PCB$W_GRP        00000022
$$INIT$$         000000EC R     07   PCB$B_WEFC       00000032            PCB$W_MEM        00000020
$$MAXP$$       = 00000005            PCB$C_LENGTH     0000007C            PCB$W_MTXCNT     0000000E
$$PSEQ$$         000000F8 R     07   PCB$K_LENGTH     0000007C            PCB$W_PPGCNT     0000003A
$$SNAD$$         000000F0 R     07   PCB$L_ASTQBL     00000014            PCB$W_PRCCNT     0000006A
$$T1           = 00000004            PCB$L_ASTQFL     00000010            PCB$W_SIZE       00000008
$$T2           = 00000009            PCB$L_EFC2P      00000058            PCB$W_STATE      00000030
$$TSTN$$         00000054 R     04   PCB$L_EFC3P      0000005C            PCB$W_TMBU       00000036
ACMODE_CVA       000000D5 R     03   PCB$L_EFCS       00000050            PCB$W_TQCNT      0000004A
ACMODE_DVA       000000D5 R     03   PCB$L_EFCU       00000054            PHD$B_ASTLVL     000000CF
BIT...         = 00000000            PCB$L_EFWM       0000004C            PHD$B_DFPFC      00000038
CHMRTN           00000CCF R     07   PCB$L_OWNER      0000001C            PHD$B_PAGFIL     0000001F
CHM_CONT         00000079 R     04   PCB$L_PHD        00000064            PHD$B_PGTBPFC    00000039
CLEANUP          00000B78 R     07   PCB$L_PHYPCB     00000018            PHD$C_LENGTH     00000118
CLOB_REG_NO      00000048 R     04   PCB$L_PID        00000060            PHD$C_PHDPAGCTX= 00000008
CTL$GL_PHD       ********   X   07   PCB$L_PQB        0000004C            PHD$K_LENGTH     00000118
CURRENT_TC       00000004 R     04   PCB$L_SQBL       00000004            PHD$L_BIOCNT     00000054
EMPTY            00000000 R     05   PCB$L_SQFL       00000000            PHD$L_CPULIM     00000058
ERROR          = 00000002            PCB$L_STS        00000028            PHD$L_CPUTIM     0000003C
ERR_MSG_FAOCTL   00000002 R     03   PCB$L_UIC        00000020            PHD$L_DIOCNT     00000050
EXECUTE          00000B50 R     07   PCB$L_WSSWP      00000024            PHD$L_ESP        0000007C
GBL...         = 00000000            PCB$L_WTIME      0000002C            PHD$L_FREP0VA    00000028
GRP_TOTAL      = 00000004            PCB$T_LNAME      0000006C            PHD$L_FREP1VA    00000030
INADR            000000A9 R     03   PCB$V_ASTPEN   = 00000011            PHD$L_FREPTECNT  0000002C
INADR_CVA        00000091 R     04   PCB$V_BATCH    = 0000000E            PHD$L_KSP        00000078
INADR_CVA10      000000BD R     03   PCB$V_DELPEN   = 00000001            PHD$L_P0BR       000000C8
INADR_CVA11      00000099 R     04   PCB$V_FORCPEN  = 00000002            PHD$L_P0LRASTL   000000CC
INADR_CVA12    = 00000000            PCB$V_HIBER    = 00000013            PHD$L_P1BR       000000D0
INADR_CVA13      00000008 R     06   PCB$V_INQUAN   = 00000003            PHD$L_P1LR       000000D4
INADR_CVA14    = 000001F9 R     05   PCB$V_LOGIN    = 00000014            PHD$L_PAGEFLTS   0000004C
INADR_DVA        000000A9 R     04   PCB$V_NETWRK   = 00000015            PHD$L_PAGFIL     0000001C
INADR_DVA10      000000BD R     03   PCB$V_NOACNT   = 0000000F            PHD$L_PC         000000C0
INADR_DVA11      000000B1 R     04   PCB$V_NODELET  = 00000017            PHD$L_PCB        00000078
INADR_DVA12    = 00000000            PCB$V_PHDRES   = 00000012            PHD$L_PGFLCNT    00000034
INADR_DVA13      00000008 R     06   PCB$V_PSWAPM   = 00000004            PHD$L_PGFLQUOTA  0000005C
INADR_DVA14    = 000001F9 R     05   PCB$V_PWRAST   = 00000016            PHD$L_PSL        000000C4
INADR_PWS        000000D9 R     03   PCB$V_RES      = 00000000            PHD$L_PSTBASOFF  00000020
INADR_PWS10    = 00000000            PCB$V_RESPEN   = 00000005            PHD$L_PTWSLELCK  00000064
INADR_PWS11      00000008 R     06   PCB$V_SSFEXC   = 00000006            PHD$L_PTWSLEVAL  00000068
INADR_PWS12    = 000001F9 R     05   PCB$V_SSFEXCE  = 00000007            PHD$L_R0         00000088
INFO           = 00000003            PCB$V_SSFEXCS  = 00000008            PHD$L_R1         0000008C
LIB$SIGNAL       ********   X   07   PCB$V_SSFEXCU  = 00000009            PHD$L_R10        000000B0
MEXIT          = 00000000            PCB$V_SSRWAIT  = 0000000A            PHD$L_R11        000000B4
MOD_MSG_CODE     00000044 R     04   PCB$V_SUSPEN   = 0000000B            PHD$L_R12        000000B8
MOD_MSG_PRINT    00000CB3 R     07   PCB$V_SWPVBN   = 00000010            PHD$L_R13        000000BC
NARGS          = 00000014            PCB$V_WAKEPEN  = 0000000C            PHD$L_R2         00000090
NOACCESS         00000000 R     06   PCB$V_WALL     = 0000000D            PHD$L_R3         00000094
ONES             000000B5 R     03   PCB$W_APTCNT     00000034            PHD$L_R4         00000098
SATSSF13        - SATS SYSTEM SERVICE TESTS  (FAILING S.C.)      22-AUG-1978 03:53:08   VAX-11 MACRO X0.3-11               Page  44
SYMBOL TABLE                                                                                                                     (1)

PHD$L_R5         0000009C            PRV$V_EXQUOTA  = 00000013            REG_COMP_MASK    00000000 R     03
PHD$L_R6         000000A0            PRV$V_GROUP    = 00000008            REG_COMP_NEXT    00000C05 R     07
PHD$L_R7         000000A4            PRV$V_GRPNAM   = 00000003            REG_COMP_RSB     00000CAE R     07
PHD$L_R8         000000A8            PRV$V_LOG_IO   = 00000007            REG_REST         00000BE3 R     07
PHD$L_R9         000000AC            PRV$V_MOUNT    = 00000011            REG_SAVE         00000BD2 R     07
PHD$L_REFERFLT   00000014            PRV$V_NETMBX   = 00000014            REG_SAVE_AREA    00000008 R     04
PHD$L_SSP        00000080            PRV$V_NOACNT   = 00000009            RETADR           00000068 R     04
PHD$L_USP        00000084            PRV$V_OPER     = 00000012            RETADR_CVA       000000A1 R     04
PHD$L_WSL        00000118            PRV$V_PHY_IO   = 00000016            RETADR_CVA20   = 00000001
PHD$M_DALCSTX  = 00000002            PRV$V_PRMCEB   = 0000000A            RETADR_CVA21     000000C5 R     03
PHD$M_PFMFLG   = 00000001            PRV$V_PRMGBL   = 00000018            RETADR_CVA22   = 000001F9 R     05
PHD$M_WSPEAKCHK= 00000004            PRV$V_PRMMBX   = 0000000B            RETADR_DVA       000000B9 R     04
PHD$Q_PRIVMSK    00000000            PRV$V_PSWAPM   = 0000000C            RETADR_DVA20   = 00000001
PHD$S_ASTLVL   = 00000008            PRV$V_SETPRI   = 0000000D            RETADR_DVA21     000000CD R     03
PHD$S_P0LR     = 00000018            PRV$V_SETPRV   = 0000000E            RETADR_DVA22   = 000001F9 R     05
PHD$V_ASTLVL   = 00000018            PRV$V_SYSGBL   = 00000019            SATSSF13         00000000 R     07
PHD$V_DALCSTX  = 00000001            PRV$V_SYSNAM   = 00000002            SEVERE         = 00000004
PHD$V_P0LR     = 00000000            PRV$V_TMPMBX   = 0000000F            SHR$K_SHRDEF   = 00000001
PHD$V_PFMFLG   = 00000000            PRV$V_VOLPRO   = 00000015            SHR$_ABEND     = 000010D8
PHD$V_WSPEAKCHK= 00000002            PRV$V_WORLD    = 00000010            SHR$_ABENDD    = 000010E0
PHD$W_ASTLM      00000044            PRVPRT           00000070 R     04   SHR$_ABENDT    = 000010E8
PHD$W_BAK        00000048            PSL$C_EXEC     = 00000001            SHR$_APPENDEDB = 00001000
PHD$W_DFWSCNT    0000001A            PSL$C_KERNEL   = 00000000            SHR$_APPENDEDR = 00001008
PHD$W_EMPTPG     000000D8            PSL$C_SUPER    = 00000002            SHR$_ATPC      = 00001158
PHD$W_EXTDYNWS   00000076            PSL$C_USER     = 00000003            SHR$_BADBYTE   = 00001010
PHD$W_FILLM      00000060            PSL$M_CM       = 80000000            SHR$_BADCOPIES = 00001160
PHD$W_FLAGS      0000003A            PSL$M_CURMOD   = 03000000            SHR$_BADDELIM  = 00001118
PHD$W_PHVINDEX   00000046            PSL$M_DV       = 00000080            SHR$_BADFIELD  = 00001018
PHD$W_PRCLM      00000042            PSL$M_FPD      = 08000000            SHR$_BADFORM   = 00001168
PHD$W_PST        00000020            PSL$M_FU       = 00000040            SHR$_BADJOBID  = 00001170
PHD$W_PSTBASMAX  0000004A            PSL$M_IPL      = 001F0000            SHR$_BADJOBNAME= 00001178
PHD$W_PSTFREE    00000026            PSL$M_IS       = 04000000            SHR$_BADKEY    = 00001108
PHD$W_PSTLAST    00000024            PSL$M_IV       = 00000020            SHR$_BADLOGIC  = 00001120
PHD$W_PTCNTACT   00000070            PSL$M_PRVMOD   = 00C00000            SHR$_BADLOGICPC= 00001150
PHD$W_PTCNTLCK   0000006C            PSL$M_SAFBITS  = 000037FF            SHR$_BADLONG   = 00001020
PHD$W_PTCNTMAX   00000072            PSL$M_TBIT     = 00000010            SHR$_BADPRTY   = 00001180
PHD$W_PTCNTVAL   0000006E            PSL$M_TP       = 40000000            SHR$_BADQNAME  = 00001188
PHD$W_QUANT      00000040            PSL$S_CURMOD   = 00000002            SHR$_BADTIME   = 00001190
PHD$W_TQLM       00000062            PSL$S_IPL      = 00000005            SHR$_BADVALUE  = 00001110
PHD$W_WSAUTH     0000000A            PSL$S_PRVMOD   = 00000002            SHR$_BADWORD   = 00001028
PHD$W_WSDYN      0000000E            PSL$V_CM       = 0000001F            SHR$_BEGIN     = 00001030
PHD$W_WSFLUID    00000074            PSL$V_CURMOD   = 00000018            SHR$_BEGIND    = 00001038
PHD$W_WSLAST     00000012            PSL$V_DV       = 00000007            SHR$_BEGINT    = 00001040
PHD$W_WSLIST     00000008            PSL$V_FPD      = 0000001B            SHR$_CLICB     = 00001048
PHD$W_WSLOCK     0000000C            PSL$V_FU       = 00000006            SHR$_CLOSEDEL  = 00001218
PHD$W_WSLX       0000004A            PSL$V_IPL      = 00000010            SHR$_CLOSEIN   = 00001050
PHD$W_WSNEXT     00000010            PSL$V_IS       = 0000001A            SHR$_CLOSEOUT  = 00001058
PHD$W_WSQUOTA    00000018            PSL$V_IV       = 00000005            SHR$_CONFDEL   = 000011F8
PRIVMASK         00000071 R     04   PSL$V_PRVMOD   = 00000016            SHR$_COPIEDB   = 00001060
PROT             000000B1 R     03   PSL$V_TBIT     = 00000004            SHR$_COPIEDR   = 00001068
PRT$C_NA         ********   X   03   PSL$V_TP       = 0000001E            SHR$_CREATED   = 00001070
PRV$V_ALLSPOOL = 00000004            R0_THRU_SP     = 00007FFF            SHR$_DELETED   = 00001200
PRV$V_BUGCHK   = 00000017            REGS             0000007D R     04   SHR$_DELINTERR = 00001240
PRV$V_CMEXEC   = 00000001            REG_AFTER_SS     00000050 R     04   SHR$_DELVER    = 00001208
PRV$V_CMKRNL   = 00000000            REG_BEFORE_SS    0000004C R     04   SHR$_DIRTOOBUS = 00001220
PRV$V_DETACH   = 00000005            REG_COMP         00000BF3 R     07   SHR$_ENDED     = 00001078
PRV$V_DIAGNOSE = 00000006            REG_COMP_CONT    00000C0F R     07   SHR$_ENDEDD    = 00001080
SATSSF13        - SATS SYSTEM SERVICE TESTS  (FAILING S.C.)      22-AUG-1978 03:53:08   VAX-11 MACRO X0.3-11               Page  45
SYMBOL TABLE                                                                                                                     (1)

SHR$_ENDEDT    = 00001088            STS$S_CUST_DEF = 00000001            UETP$_DENOSU   = 00748333
SHR$_FILNOTDEL = 000011F0            STS$S_FAC_NO   = 0000000C            UETP$_DESTP    = 007481A2
SHR$_FILNOTPUR = 00001230            STS$S_FAC_SP   = 00000001            UETP$_DEUNUS   = 0074819A
SHR$_FILPURGED = 00001250            STS$S_INHIB_MSG= 00000001            UETP$_ERBOX    = 00748008
SHR$_HASHCONCAT= 000011D8            STS$S_MSG_NO   = 0000000D            UETP$_SATSMS   = 007480D9
SHR$_HIGHVER   = 00001148            STS$S_SEVERITY = 00000003            UETP$_TEXT     = 00741133
SHR$_IDXCONCAT = 00001138            STS$S_SUCCESS  = 00000001            UETP$_UCB      = 007480E9
SHR$_INCOMPAT  = 000011E0            STS$V_CODE     = 00000003            UETP$_USER     = 0074833B
SHR$_NEWFILES  = 00001090            STS$V_COND_ID  = 00000003            WARNING        = 00000000
SHR$_NOFILPURG = 00001228            STS$V_CONTROL  = 0000001C            WSETLM_AWS       000000C1 R     04
SHR$_NOJOBID   = 000011A0            STS$V_CUST_DEF = 0000001B            WSETLM_AWS20   = 00000001
SHR$_NOJOBNAME = 000011A8            STS$V_FAC_NO   = 00000010            WSETLM_AWS21     000000E5 R     03
SHR$_NOQUEUE   = 00001198            STS$V_FAC_SP   = 0000000F            WSETLM_AWS22   = 000001FF R     05
SHR$_NOTCMPLT  = 000011C0            STS$V_INHIB_MSG= 0000001C
SHR$_NOTCOPIED = 000011B8            STS$V_MSG_NO   = 00000003
SHR$_NOVALUE   = 00001100            STS$V_SEVERITY = 00000000
SHR$_NOWILD    = 00001128            STS$V_SUCCESS  = 00000000
SHR$_OPENIN    = 00001098            SUCCESS        = 00000001
SHR$_OPENOUT   = 000010A0            SYS$ADJWSL       ********   X   07
SHR$_OVERLAY   = 000010A8            SYS$CMEXEC       ********   X   07
SHR$_PARSEFAIL = 00001248            SYS$CMKRNL       ********   X   07
SHR$_PURGEVER  = 00001210            SYS$CNTREG       ********   X   07
SHR$_READERR   = 000010B0            SYS$CRETVA       ********   X   07
SHR$_RELCONCAT = 00001140            SYS$DELTVA       ********   X   07
SHR$_REPLACED  = 000010B8            SYS$EXIT         ********   X   07
SHR$_RMSERROR  = 000011C8            SYS$EXPREG       ********   X   07
SHR$_SEARCHFAIL= 00001238            SYS$FAO          ********   X   07
SHR$_SYNTAX    = 000010F8            SYS$FAOL         ********   X   07
SHR$_SYSERROR  = 000011B0            SYS$HIBER        ********   X   07
SHR$_SYSERRORPC= 000010F0            SYS$PURGWS       ********   X   07
SHR$_TEXT      = 00001130            SYS$SETPRN       ********   X   07
SHR$_UNXPCTSTS = 000011D0            SYS$SETPRT       ********   X   07
SHR$_VALERR    = 000011E8            SYS$WAKE         ********   X   07
SHR$_WILDCONCAT= 000010C0            TC1              0000024A R     07
SHR$_WILDOUTVER= 000010C8            TC2              00000324 R     07
SHR$_WRITEERR  = 000010D0            TC3              000003FE R     07
SS$_ACCVIO       ********   X   07   TC4              0000043E R     07
SS$_NOPRIV       ********   X   07   TCG_NO         = 00000004
SS$_PAGOWNVIO    ********   X   07   TC_CONTROL       00000B91 R     07
STS$K_ERROR    = 00000002            TEST_MOD_BEG     00000077 R     03
STS$K_INFO     = 00000003            TEST_MOD_FAIL    00000088 R     03
STS$K_SEVERE   = 00000004            TEST_MOD_NAME    0000006E R     03
STS$K_SUCCESS  = 00000001            TEST_MOD_NAME_D  0000008F R     03
STS$K_WARNING  = 00000000            TEST_MOD_SUCC    0000007D R     03
STS$M_CODE     = 00007FF8            TMD_ADDR         00000060 R     04
STS$M_COND_ID  = 0FFFFFF8            TMN_ADDR         0000005C R     04
STS$M_CONTROL  = F0000000            TPID             00000000 R     04
STS$M_CUST_DEF = 08000000            TS1              0000047E R     07
STS$M_FAC_NO   = 0FFF0000            TS2              000006B0 R     07
STS$M_FAC_SP   = 00008000            TS3              000008E2 R     07
STS$M_INHIB_MSG= 10000000            TS4              000009D5 R     07
STS$M_MSG_NO   = 0000FFF8            TS_EP            00000064 R     04
STS$M_SEVERITY = 00000007            TTNAME           0000009F R     03
STS$M_SUCCESS  = 00000001            UETP$_ABORTC   = 0074832B
STS$S_CODE     = 0000000C            UETP$_CONF     = 007480D1
STS$S_COND_ID  = 00000019            UETP$_DATAER   = 00748010
STS$S_CONTROL  = 00000004            UETP$_DDB      = 007480E1
SATSSF13        - SATS SYSTEM SERVICE TESTS  (FAILING S.C.)      22-AUG-1978 03:53:08   VAX-11 MACRO X0.3-11               Page  46
PROGRAM SECTION SYNOPSIS                                                                                                         (1)


PROGRAM SECTION SYNOPSIS

.  ABS  .        00000000      00     NOPIC   USR   CON   ABS   LCL NOSHR NOEXE NORD  NOWRT BYTE
. BLANK .        00000000      01     NOPIC   USR   CON   REL   LCL NOSHR   EXE   RD    WRT BYTE
$ABS$            0000011C      02     NOPIC   USR   CON   ABS   LCL NOSHR   EXE   RD    WRT BYTE
RODATA           000000E9      03     NOPIC   USR   CON   REL   LCL NOSHR NOEXE   RD  NOWRT LONG
RWDATA           000000C5      04     NOPIC   USR   CON   REL   LCL NOSHR NOEXE   RD    WRT BYTE
SATS_ACCVIO_1    00000200      05     NOPIC   USR   CON   REL   LCL NOSHR NOEXE   RD    WRT PAGE
SATS_ACCVIO_2    00000200      06     NOPIC   USR   CON   REL   LCL NOSHR NOEXE   RD    WRT PAGE
SATSSF13         00000CD7      07     NOPIC   USR   CON   REL   LCL NOSHR   EXE   RD    WRT LONG


THERE WERE NO ERRORS OR WARNINGS.
3354. BYTES LEFT IN FREE MEMORY POOL.
2992. BYTES OF RECLAIMED MEMORY.
OBJ$:SATSSF13,LIS$:SATSSF13/-SP=EXECML$/ML,LIB$:SYSTST.MLB/ML,SRC$:SATSSF13
70 MLB DIR RDS - 1279 GETS TO DEFINE 51 MACROS. 82 INTER. FILE WRITES.
