SATSSF08        - SATS SYSTEM SERVICE TESTS  (FAILING S.C.)      22-AUG-1978 03:46:51   VAX-11 MACRO X0.3-11               Page   0
TABLE OF CONTENTS

   (1)      46  DECLARATIONS
   (1)     176  SATSSF08
   (1)     263  SFCME10
   (1)     287
   (1)     291  SFGTM10
   (1)     314  SFGTM30
   (1)     337  SFGTM31
   (1)     360
   (1)     394  EXECUTE & CLEANUP
   (1)     406  TC_CONTROL
   (1)     487  SUBROUTINES
SATSSF08        - SATS SYSTEM SERVICE TESTS  (FAILING S.C.)      22-AUG-1978 03:46:51   VAX-11 MACRO X0.3-11               Page   1
1.0                                                                                                                              (1)

                                     0000     1 	.TITLE	SATSSF08 - SATS SYSTEM SERVICE TESTS  (FAILING S.C.)
                                     0000     2 	.IDENT	/1.0/
                                     0000     3
                                     0000     4 ;
                                     0000     5 ;			  COPYRIGHT (c) 1977,1978 BY
                                     0000     6 ;	      DIGITAL EQUIPMENT CORPORATION, MAYNARD, MASS.
                                     0000     7 ;
                                     0000     8 ; THIS SOFTWARE IS FURNISHED UNDER A LICENSE AND MAY BE USED AND  COPIED
                                     0000     9 ; ONLY  IN  ACCORDANCE  WITH  THE  TERMS  OF  SUCH  LICENSE AND WITH THE
                                     0000    10 ; INCLUSION OF THE ABOVE COPYRIGHT NOTICE.  THIS SOFTWARE OR  ANY  OTHER
                                     0000    11 ; COPIES  THEREOF MAY NOT BE PROVIDED OR OTHERWISE MADE AVAILABLE TO ANY
                                     0000    12 ; OTHER PERSON.  NO TITLE TO AND OWNERSHIP OF  THE  SOFTWARE  IS  HEREBY
                                     0000    13 ; TRANSFERRED.
                                     0000    14 ;
                                     0000    15 ; THE INFORMATION IN THIS SOFTWARE IS SUBJECT TO CHANGE  WITHOUT  NOTICE
                                     0000    16 ; AND  SHOULD  NOT  BE  CONSTRUED  AS  A COMMITMENT BY DIGITAL EQUIPMENT
                                     0000    17 ; CORPORATION.
                                     0000    18 ;
                                     0000    19 ; DIGITAL ASSUMES NO RESPONSIBILITY FOR THE USE OR  RELIABILITY  OF  ITS
                                     0000    20 ; SOFTWARE ON EQUIPMENT WHICH IS NOT SUPPLIED BY DIGITAL.
                                     0000    21 ;
                                     0000    22
                                     0000    23 ;++
                                     0000    24 ; FACILITY:	SATS SYSTEM SERVICE TESTS
                                     0000    25 ;
                                     0000    26 ; ABSTRACT:	THE SATSSF08 MODULE TESTS THE EXECUTION OF CERTAIN
                                     0000    27 ; VMS SYSTEM SERVICES, INVOKED IN SUCH A WAY AS TO EXPECT FAILING
                                     0000    28 ; STATUS CODES. THE SYSTEM SERVICES TESTED AND THE STATUS CODES
                                     0000    29 ; EXPECTED ARE SUMMARIZED AS ARGUMENTS TO THE TESTSERV MACROS
                                     0000    30 ; WHICH APPEAR NEAR THE END OF THIS LISTING. SUCCESSFUL STATUS
                                     0000    31 ; CODES ARE TESTED IN OTHER MODULES.
                                     0000    32 ;
                                     0000    33 ;
                                     0000    34 ; ENVIRONMENT:	USER MODE IMAGE; NEEDS CMKRNL PRIVILEGE,
                                     0000    35 ;		DYNAMICALLY ACQUIRES OTHER PRIVILEGES, AS NEEDED.
                                     0000    36 ;
                                     0000    37 ; AUTHOR: THOMAS L. CAFARELLA,		CREATION DATE: MAY, 1977
                                     0000    38 ;	  PAUL D. FAY (DISPSERV & TESTSERV MACROS)
                                     0000    39 ;
                                     0000    40 ; MODIFIED BY:
                                     0000    41 ;
                                     0000    42 ;	, : VERSION
                                     0000    43 ; 01	-
                                     0000    44 ;--
SATSSF08        - SATS SYSTEM SERVICE TESTS  (FAILING S.C.)      22-AUG-1978 03:46:51   VAX-11 MACRO X0.3-11               Page   2
1.0             DECLARATIONS                                                                                                     (1)

                                     0000    46 	.SBTTL	DECLARATIONS
                                     0000    47 ;
                                     0000    48 ; INCLUDE FILES:
                                     0000    49 ;
                                     0000    50 	$PHDDEF				; PROCESS HEADER OFFSET SYMBOLS
                                     0000    51 	$PCBDEF				; PROCESS CONTROL BLOCK OFFSET SYMBS
                                     0000    52 	$STSDEF				; STATUS MESSAGE SYMBOLS
                           00000003  0000    53 	.MDELETE ($PHDDEF,$PCBDEF,$STSDEF) ; GET RID OF MACRO DEFINITIONS
                                     0000    54 	$PRVDEF				; SYMBOL DEFS FOR PRIVILEGES
                                     0000    55 	$UETPDEF			; UETP MSG CODE DEFINITIONS
                                     0000    56 	$SHR_MESSAGES UETP,116,<<TEXT,INFO>>
                                     0000    57 					; DEFINE UETP$_TEXT
                           00000004  0000    58 	.MDELETE ($PRVDEF,$UETPDEF,$SHR_MESSAGES,$SHRDEF)
                                     0000    59 					; GET RID OF MACRO DEFINITIONS
                                     0000    60 ;
                                     0000    61 ; MACROS:
                                     0000    62 ;
                                     0000    63 ;
                                     0000    64 ; EQUATED SYMBOLS:
                                     0000    65 ;
                           00000000  0000    66 WARNING		= 0			; WARNING SEVERITY VALUE FOR MSGS
                           00000001  0000    67 SUCCESS		= 1			; SUCCESS SEVERITY VALUE FOR MSGS
                           00000002  0000    68 ERROR		= 2			; ERROR SEVERITY VALUE FOR MSGS
                           00000003  0000    69 INFO		= 3			; INFORMATIONAL SEV VALUE FOR MSGS
                           00000004  0000    70 SEVERE		= 4			; SEVERE (FATAL) SEV VALUE FOR MSGS
                           00000000  0000    71 TCG_NO		=  0			; INITIALIZE TEST CASE GROUP NUMBER
                           00000000  0000    72 GRP_TOTAL	=  0			; INITIALIZE TEST CASE GROUP TOTAL
                           00007FFF  0000    73 R0_THRU_SP	= ^M<R0,R1,R2,R3,R4,R5,R6,R7,R8,R9,R10,R11,AP,FP,SP>
                           00000000  0000    74 ARGLST_CME	= 0			; ARGLST ARG FOR CMEXEC ...
                                     0000    75 					; ... (MISSING ARG LIST)
                                     0000    76 ;
                                     0000    77 ; OWN STORAGE:
                                     0000    78 ;
SATSSF08        - SATS SYSTEM SERVICE TESTS  (FAILING S.C.)      22-AUG-1978 03:46:51   VAX-11 MACRO X0.3-11               Page   3
1.0             DECLARATIONS                                                                                                     (1)

                                 00000000    80 	.PSECT	RODATA,RD,NOWRT,NOEXE,LONG
                                     0000    81 REG_COMP_MASK:	.WORD	^M<R2,R3,R4,R5,R6,R7,R8,R9,R10,R11,AP,FP> ! ^X8000 -
                               BFFC  0000    82 					; REG COMPARE MASK (HIGH-ORDER ...
                                     0002    83 					; ... BIT MUST BE ON
                                     0002    84 ERR_MSG_FAOCTL:	STRING	I,<!/!AC!1ZB!1ZB: REGISTER !2UW CONTENTS ALTERED>, -
                                     0002    85 		<;  BEFORE SERVICE CALL: !8XL   AFTER SERVICE CALL: !8XL>
                                     006E    86 TEST_MOD_NAME:	STRING	C,<SATSSF08>	; TEST MODULE NAME
                                     0077    87 TEST_MOD_BEG:	STRING	C,<begun>	; DISPOSITION FIELD OF TEST MOD MSG
                                     007D    88 TEST_MOD_SUCC:	STRING	C,<successful>	; DISPOSITION FIELD OF TEST MOD MSG
                                     0088    89 TEST_MOD_FAIL:	STRING	C,<failed>	; DISPOSITION FIELD OF TEST MOD MSG
                                     008F    90 TEST_MOD_NAME_D: STRING	I,<SATSSF08>	; TEST MODULE NAME DESCRIPTOR
                                     009F    91 TTNAME:     	STRING  I,<TT>		; TERMINAL LOGICAL NAME
                  00000000'00000000' 00A9    92 INADR:		.LONG	NOACCESS,NOACCESS ; PAGE ADDRESS OF NOACCESS PSECT
                           00000000' 00B1    93 PROT:		.LONG	PRT$C_NA	; PROTECTION CODE FOR NOACCESS PSECT
                  FFFFFFFF FFFFFFFF  00B5    94 ONES:		.LONG	-1,-1		; A QUADWORD OF 1-BITS
                                     00BD    95 ROUTIN_CME:				; ROUTIN ARGUMENT FOR CMEXEC
                                     00BD    96 ROUTIN_CME10:				; ROUTIN ARGUMENT FOR CMEXEC
                               0000  00BD    97 		.WORD	0		; ENTRY MASK FOR CHANGE MODE SERVS
            50         00'8F     9A  00BF    98 	MOVZBL	#SS$_NORMAL,R0		; R0 LOAD FOR CHANGE MODE SERVICES
                                 04  00C3    99 		RET			; RETURN INSTR FOR CHANGE MODE SERVS
                           00000000  00C4   100 MSGID_GTM:	.LONG	0		; MSGID ARGUMENT FOR GETMSG
                           0000000F  00C8   101 FLAGS_GTM:	.LONG	^B1111		; FLAGS ARGUMENT FOR GETMSG
                           0FFFFFF0  00CC   102 MSGID_GTM10:	.LONG	^X0FFFFFF0 	; MSGID ARGUMENT FOR GETMSG
SATSSF08        - SATS SYSTEM SERVICE TESTS  (FAILING S.C.)      22-AUG-1978 03:46:51   VAX-11 MACRO X0.3-11               Page   4
1.0             DECLARATIONS                                                                                                     (1)

                                 00000000   104 	.PSECT	RWDATA,RD,WRT,NOEXE
                           00000004  0000   105 TPID:		.BLKL	1		; PROCESS ID FOR THIS PROCESS
                           00000008  0004   106 CURRENT_TC:	.BLKL	1 		; PTR TO CURRENT TEST CASE
                           00000044  0008   107 REG_SAVE_AREA:	.BLKL	15		; SAVE AREA FOR ALL REGS (SANS PC)
                           007480D9  0044   108 MOD_MSG_CODE:	.LONG	UETP$_SATSMS	; TEST MODULE MSG CODE FOR PUTMSG
                           0000004C  0048   109 CLOB_REG_NO:	.BLKL	1		; CLOBBERED REG NO (FOR FAO ERR MSG)
                           00000050  004C   110 REG_BEFORE_SS:	.BLKL	1		; REG CONTENTS BEFORE S.S.
                                     0050   111 					; ... (FOR FAO ERROR MSG)
                           00000054  0050   112 REG_AFTER_SS:	.BLKL	1		; REG CONTENTS AFTER S.S.
                                     0054   113 					; ... (FOR FAO ERROR MSG)
                                     0054   114 $$TSTN$$:	STRING	C,<  SF   >	; ASCII PORTION OF TEST CASE NAME
                           0000006E' 005C   115 TMN_ADDR:	.ADDRESS TEST_MOD_NAME	; ADDR OF TEST MOD NAME FOR FAO
                           00000077' 0060   116 TMD_ADDR:	.ADDRESS TEST_MOD_BEG	; ADDR OF T.M. DISP FIELD FOR FAO
                           00000068  0064   117 TS_EP:		.BLKL	1		; ENTRY PNT FOR CURR TESTSERV MACRO
                           00000070  0068   118 RETADR:		.BLKL	2		; RETURN LONGWORDS FOR SETPRT
                           00000071  0070   119 PRVPRT:		.BLKB	1		; PROT RETURN BYTE FOR SETPRT
                           00000079  0071   120 PRIVMASK:	.BLKQ	1		; ADDR OF PRIVILEGE MASK (IN PHD)
                           0000007D  0079   121 CHM_CONT:	.BLKL	1		; CHANGE MODE CONTINUE ADDRESS
                           00000091  007D   122 REGS:		.BLKL	5		; AREA FOR COND INDEX REGS (R2-R6)
                           00000093  0091   123 MSGLEN_GTM:	.BLKW	1		; MSGLEN ARGUMENT FOR GETMSG
                                     0093   124 BUFADR_GTM:	STRING	O,256		; BUFADR ARGUMENT FOR GETMSG
                           0000019F  019B   125 OUTADR_GTM:	.BLKB	4		; OUTADR ARGUMENT FOR GETMSG
                                     019F   126 BUFADR_GTM30:				; BUFADR ARGUMENT FOR GETMSG
                           00000000  019F   127 		.LONG	0		; ZERO LENGTH STRING ...
                           000001A3' 01A3   128 		.ADDRESS .		; .... AT AN ACCESSIBLE LOCATION
                                     01A7   129 BUFADR_GTM31:	STRING	O,1		; BUFADR ARGUMENT FOR GETMSG
SATSSF08        - SATS SYSTEM SERVICE TESTS  (FAILING S.C.)      22-AUG-1978 03:46:51   VAX-11 MACRO X0.3-11               Page   5
1.0             DECLARATIONS                                                                                                     (1)

                                 00000000   131 	.PSECT	SATS_ACCVIO_1,RD,WRT,NOEXE,PAGE
                           00000200  0000   132 EMPTY:		.BLKB	512	; RESERVE A PAGE OF SPACE
                                     0200   133 ;
                                     0200   134 ; +
                                     0200   135 ; ******************************************************************
                                     0200   136 ; *                                                                *
                                     0200   137 ; * 	THE ORDER OF STATEMENTS IN THIS PSECT IS CRITICAL.         *
                                     0200   138 ; *	DO NOT RE-ARRANGE THE VARIABLES. CONSULT SATS              *
                                     0200   139 ; *	FUNCTIONAL SPECIFICATION FOR A DESCRIPTION OF THE USE      *
                                     0200   140 ; *	OF THE EMPTY PSECT (AND ITS COMPANION PSECT, NOACCESS).    *
                                     0200   141 ; *                                                                *
                                     0200   142 ; ******************************************************************
                                     0200   143 ; -
                                     0200   144 ;
                                     0200   145 ; TYPE AAAAA_SSSX1 (TYPE AAAAA_SSSX2 IF NOT DESC) GO HERE:
                           000001F3  0200   146 		. = . - 13	; ALLOW ROOM FOR STRING DESCRIPTOR
                                     01F3   147 ; TYPE AAAAA_SSSX5 GO HERE:
                           00000006  01F3   148 		.LONG	6	; STRING LENGTH (WILL CROSS PSECT BOUNDARY)
                           000001FB' 01F7   149 		.ADDRESS .+4	; STRING ADDRESS
                                     01FB   150 ; TYPE AAAAA_SSSX3 GO HERE:
                           000001FC  01FB   151 		.BLKB	1	; LOW-ORDER BYTE OF STRING LENGTH
                                     01FC   152 ; TYPE AAAAA_SSSX2 GO HERE:
                           00000200  01FC   153 		.BLKL	1	; STRING LENGTH
                                     0200   154 ;
                                     0200   155 ;
                                     0200   156 ;
                                     0200   157 ;
                                 00000000   158 	.PSECT	SATS_ACCVIO_2,RD,WRT,NOEXE,PAGE
                           00000200  0000   159 NOACCESS:	.BLKB	512	; RESERVE A PAGE OF SPACE
                           00000000  0200   160 		. = . - 512	; RETURN LOC CTR TO BEGINNING OF PSECT
                           00000000' 0000   161 		.ADDRESS EMPTY	; ADDRESS OF ACCESSIBLE STRING
                           00000000' 0004   162 		.ADDRESS EMPTY/^X100 ; ADDRESS OF ACCESSIBLE STRING
                                     0008   163 ;+
                                     0008   164 ; *** NOTE -- DO NOT CHANGE LOCATION OR SEQUENCE OF ABOVE STATEMENTS!
                                     0008   165 ; ***         THIS PSECT (NOACCESS) MUST APPEAR IN MEMORY IMMEDIATELY
                                     0008   166 ; ***         FOLLOWING THE EMPTY PSECT. PSECT NAMES AND OPTIONS WILL BE
                                     0008   167 ; ***         CHOSEN TO FORCE THE DESIRED PSECT ORDERING.
                                     0008   168 ;-
                                     0008   169 ;
                                     0008   170 ;
                                     0008   171 ;
                                     0008   172 ;
                           00000001  0008   173 	.MDELETE (STRING)		; NO LONGER NEED MACRO DEFINITION
                                 00000000   174 	.PSECT	SATSSF08,RD,WRT,EXE,LONG
SATSSF08        - SATS SYSTEM SERVICE TESTS  (FAILING S.C.)      22-AUG-1978 03:46:51   VAX-11 MACRO X0.3-11               Page   6
1.0             SATSSF08                                                                                                         (1)

                                     0000   176 	.SBTTL	SATSSF08
                                     0000   177 ;++
                                     0000   178 ; FUNCTIONAL DESCRIPTION:
                                     0000   179 ;
                                     0000   180 ;		AFTER PERFORMING SOME INITIAL HOUSEKEEPING, SUCH AS
                                     0000   181 ; PRINTING THE MODULE BEGIN MESSAGE AND ACQUIRING ALL PRIVILEGES,
                                     0000   182 ; THE SATSSF08 ROUTINE EXECUTES THE TEST_SERV_EXEC MACRO TO RUN
                                     0000   183 ; ALL TEST CASES. WHEN THE MACRO COMPLETES ITS EXECUTION, SATSSF08
                                     0000   184 ; PRINTS A TEST MODULE SUCCESS OR FAIL MESSAGE AND EXITS TO THE
                                     0000   185 ; OPERATING SYSTEM. TEST_SERV_EXEC CALLS THE TC_CONTROL/TESTSERV
                                     0000   186 ; CO-ROUTINE PAIR ONCE PER TEST CASE GROUP TO EXECUTE ALL TEST
                                     0000   187 ; CASES IN THAT GROUP. EACH TEST CASE GROUP IS DEFINED BY BOUNDING
                                     0000   188 ; ITS TEST CASES WITH A TC_GROUP MACRO BEFORE THE FIRST TEST CASE
                                     0000   189 ; AND A TCEND MACRO AFTER THE LAST ONE. THE TEST CASES THEMSELVES
                                     0000   190 ; ARE DEFINED WITHIN THESE BOUNDS BY PRECEDING EACH WITH A
                                     0000   191 ; NEXT_TEST_CASE MACRO. TC_CONTROL/TESTSERV EXECUTES THE CODE
                                     0000   192 ; FOLLOWING EACH NEXT_TEST_CASE MACRO IMMEDIATELY BEFORE ISSUING
                                     0000   193 ; THE SYSTEM SERVICE AS REQUESTED IN THE TESTSERV MACRO. TC_CONTROL/
                                     0000   194 ; TESTSERV ALSO CHECKS THE RESULTS OF THE SERVICE WITH RESPECT
                                     0000   195 ; TO ITS EXPECTED STATUS CODE AND PRINTS ANY REQUIRED FAILURE
                                     0000   196 ; MESSAGES FOR THE TEST CASE. THE CODE APPEARING AFTER EACH
                                     0000   197 ; NEXT_TEST_CASE MACRO IS MERELY TO SET UP CONDITIONS REQUIRED
                                     0000   198 ; FOR THE SYSTEM SERVICE AND TO CLEAN UP ANY RESOURCES ACQUIRED
                                     0000   199 ; BY THE PREVIOUS TEST CASE.
                                     0000   200 ;
                                     0000   201 ; CALLING SEQUENCE:
                                     0000   202 ;
                                     0000   203 ;	$ RUN SATSSF08  ...  (DCL COMMAND)
                                     0000   204 ;
                                     0000   205 ; INPUT PARAMETERS:
                                     0000   206 ;
                                     0000   207 ;	NONE
                                     0000   208 ;
                                     0000   209 ; IMPLICIT INPUTS:
                                     0000   210 ;
                                     0000   211 ;	NONE
                                     0000   212 ;
                                     0000   213 ; OUTPUT PARAMETERS:
                                     0000   214 ;
                                     0000   215 ;	NONE
                                     0000   216 ;
                                     0000   217 ; IMPLICIT OUTPUTS:
                                     0000   218 ;
                                     0000   219 ;	MESSAGES TO SYS$OUTPUT ARE THE ONLY OUTPUT FROM SATSSF08.
                                     0000   220 ;	THEY ARE OF THE FORM:
                                     0000   221 ;
                                     0000   222 ;		%UETP-S-SATSMS, TEST MODULE SATSSF08 BEGUN ... (BEGIN MSG)
                                     0000   223 ;		%UETP-S-SATSMS, TEST MODULE SATSSF08 SUCCESSFUL ... (END MSG)
                                     0000   224 ;		%UETP-E-SATSMS, TEST MODULE SATSSF08 FAILED ... (END MSG)
                                     0000   225 ;		%UETP-I-TEXT, ... (VARIABLE INFORMATION ABOUT A TEST MODULE FAILURE)
                                     0000   226 ;
                                     0000   227 ; COMPLETION CODES:
                                     0000   228 ;
                                     0000   229 ;	THE SATSSF08 ROUTINE TERMINATES WITH A $EXIT TO THE
                                     0000   230 ;	OPERATING SYSTEM WITH A STATUS CODE DEFINED BY UETP$_SATSMS.
                                     0000   231 ;
                                     0000   232 ; SIDE EFFECTS:
SATSSF08        - SATS SYSTEM SERVICE TESTS  (FAILING S.C.)      22-AUG-1978 03:46:51   VAX-11 MACRO X0.3-11               Page   7
1.0             SATSSF08                                                                                                         (1)

                                     0000   233 ;
                                     0000   234 ;	NONE
                                     0000   235 ;
                                     0000   236 ;--
                                     0000   237
                                     0000   238
                                     0000   239
                                     0000   240 SATSSF08:
                               0FFC  0000   241 	.WORD	^M<R2,R3,R4,R5,R6,R7,R8,R9,R10,R11>
                                     0002   242 					; ENTRY MASK
                                     0002   243 	$WAKE_S  TPID			; GET PID OF THIS PROCESS
                                     0011   244 	$HIBER_S			; UNDO WAKE
                                     0018   245 	$SETPRN_S TEST_MOD_NAME_D 	; SET PROCESS NAME
                          08CC   30  0025   246 	BSBW	MOD_MSG_PRINT		; PRINT TEST MODULE BEGIN MSG
   00000060'EF   0000007D'EF     DE  0028   247 	MOVAL	TEST_MOD_SUCC,TMD_ADDR	; ASSUME END MSG WILL SHOW SUCCESS
            00            01     F0  0033   248 	INSV	#SUCCESS,#0,#3,MOD_MSG_CODE ; ADJUST STATUS CODE FOR SUCCESS
   00000044'EF            03         0036
                                     003C   249 	MODE	TO,10$,KRNL,NOREGS 	; KERNEL MODE TO ACCESS PHD
            59   00000000'9F     D0  0059   250 	MOVL	@#CTL$GL_PHD,R9		; GET PROCESS HEADER ADDRESS
   00000071'EF            69     DE  0060   251 	MOVAL	PHD$Q_PRIVMSK(R9),PRIVMASK ; GET PRIV MASK ADDRESS
                                     0067   252 	MODE	FROM,10$		; GET BACK TO USER MODE
                                     0068   253 	PRIV	ADD,ALL			; GET ALL PRIVILEGES
                                     0091   254 	DISPSERV			; SET UP DISPLAY INFO FOR TESTSERV
                                     0226   255 	$SETPRT_S INADR=INADR, RETADR=RETADR, -
                                     0226   256 		  PROT=PROT, PRVPRT=PRVPRT
                                     0247   257 					; SET NOACCESS PSECT ...
                                     0247   258 					; ... FOR NO USER ACCESS
                          055B   31  0247   259 	BRW	EXECUTE			; GO EXECUTE ALL TEST CASES
                                     024A   260 ;
                                     024A   261 	TC_GROUP	CME,1,TS1
                                     0271   262 ;
                                     0271   263 	NEXT_TEST_CASE	SFCME10
SATSSF08        - SATS SYSTEM SERVICE TESTS  (FAILING S.C.)      22-AUG-1978 03:46:51   VAX-11 MACRO X0.3-11               Page   8
1.0             SFCME10                                                                                                          (1)

                                     0271   264 ;
                                     0271   265 ;++
                                     0271   266 ; ******************************************************
                                     0271   267 ; *
                                     0271   268 ; *  TEST CASE NAME:		SFCME10
                                     0271   269 ; *
                                     0271   270 ; *  SYSTEM SERVICE:		CMEXEC
                                     0271   271 ; *
                                     0271   272 ; *  ARGUMENT UNDER TEST: 	ROUTIN_CME10
                                     0271   273 ; *
                                     0271   274 ; *  INPUT CONDITIONS:
                                     0271   275 ; *	ISSUER OF CMEXEC SERVICE DOES NOT HAVE THE
                                     0271   276 ; *	  CHANGE MODE TO EXEC PRIVILEGE
                                     0271   277 ; *
                                     0271   278 ; *  EXPECTED RESULTS:
                                     0271   279 ; *	1) SYSTEM STATUS CODE:	NOPRIV
                                     0271   280 ; *	2) REGISTERS R2 THROUGH FP UNCHANGED
                                     0271   281 ; *
                                     0271   282 ; ******************************************************
                                     0271   283 ;--
                                     0271   284 ;
                                     0271   285 	PRIV	REM,CMEXEC	; REMOVE CHG MODE TO EXEC PRIVILEGE
                                     0298   286 ;
                                     0298   287 	TCEND
SATSSF08        - SATS SYSTEM SERVICE TESTS  (FAILING S.C.)      22-AUG-1978 03:46:51   VAX-11 MACRO X0.3-11               Page   9
1.0                                                                                                                              (1)

                                     0299   288 ;
                                     0299   289 	TC_GROUP	GTM,1,TS2
                                     02C0   290 ;
                                     02C0   291 	NEXT_TEST_CASE	SFGTM10
SATSSF08        - SATS SYSTEM SERVICE TESTS  (FAILING S.C.)      22-AUG-1978 03:46:51   VAX-11 MACRO X0.3-11               Page  10
1.0             SFGTM10                                                                                                          (1)

                                     02C0   292 ;
                                     02C0   293 ;++
                                     02C0   294 ; ******************************************************
                                     02C0   295 ; *
                                     02C0   296 ; *  TEST CASE NAME:		SFGTM10
                                     02C0   297 ; *
                                     02C0   298 ; *  SYSTEM SERVICE:		GETMSG
                                     02C0   299 ; *
                                     02C0   300 ; *  ARGUMENT UNDER TEST: 	MSGID_GTM10
                                     02C0   301 ; *
                                     02C0   302 ; *  INPUT CONDITIONS:
                                     02C0   303 ; *	MESSAGE IDENTIFICATION NOT IN USE BY SYSTEM
                                     02C0   304 ; *
                                     02C0   305 ; *  EXPECTED RESULTS:
                                     02C0   306 ; *	1) SYSTEM STATUS CODE:	MSGNOTFND
                                     02C0   307 ; *	2) REGISTERS R2 THROUGH FP UNCHANGED
                                     02C0   308 ; *
                                     02C0   309 ; ******************************************************
                                     02C0   310 ;--
                                     02C0   311 ;
                                     02C0   312 	PRIV	ADD,ALL		; GET BACK ANY PRIVS LOST BY LAST TEST CASE
                                     02E9   313 ;
                                     02E9   314 	NEXT_TEST_CASE	SFGTM30
SATSSF08        - SATS SYSTEM SERVICE TESTS  (FAILING S.C.)      22-AUG-1978 03:46:51   VAX-11 MACRO X0.3-11               Page  11
1.0             SFGTM30                                                                                                          (1)

                                     02F5   315 ;
                                     02F5   316 ;++
                                     02F5   317 ; ******************************************************
                                     02F5   318 ; *
                                     02F5   319 ; *  TEST CASE NAME:		SFGTM30
                                     02F5   320 ; *
                                     02F5   321 ; *  SYSTEM SERVICE:		GETMSG
                                     02F5   322 ; *
                                     02F5   323 ; *  ARGUMENT UNDER TEST: 	BUFADR_GTM30
                                     02F5   324 ; *
                                     02F5   325 ; *  INPUT CONDITIONS:
                                     02F5   326 ; *	MESSAGE BUFFER (LENGTH 0) NOT LARGE
                                     02F5   327 ; *	  ENOUGH TO CONTAIN MESSAGE.
                                     02F5   328 ; *
                                     02F5   329 ; *  EXPECTED RESULTS:
                                     02F5   330 ; *	1) SYSTEM STATUS CODE:	BUFFEROVF
                                     02F5   331 ; *	2) REGISTERS R2 THROUGH FP UNCHANGED
                                     02F5   332 ; *
                                     02F5   333 ; ******************************************************
                                     02F5   334 ;--
                                     02F5   335 ;
                                     02F5   336 ;
                                     02F5   337 	NEXT_TEST_CASE	SFGTM31
SATSSF08        - SATS SYSTEM SERVICE TESTS  (FAILING S.C.)      22-AUG-1978 03:46:51   VAX-11 MACRO X0.3-11               Page  12
1.0             SFGTM31                                                                                                          (1)

                                     0301   338 ;
                                     0301   339 ;++
                                     0301   340 ; ******************************************************
                                     0301   341 ; *
                                     0301   342 ; *  TEST CASE NAME:		SFGTM31
                                     0301   343 ; *
                                     0301   344 ; *  SYSTEM SERVICE:		GETMSG
                                     0301   345 ; *
                                     0301   346 ; *  ARGUMENT UNDER TEST: 	BUFADR_GTM31
                                     0301   347 ; *
                                     0301   348 ; *  INPUT CONDITIONS:
                                     0301   349 ; *	MESSAGE BUFFER (LENGTH 1) NOT LARGE
                                     0301   350 ; *	  ENOUGH TO CONTAIN MESSAGE.
                                     0301   351 ; *
                                     0301   352 ; *  EXPECTED RESULTS:
                                     0301   353 ; *	1) SYSTEM STATUS CODE:	BUFFEROVF
                                     0301   354 ; *	2) REGISTERS R2 THROUGH FP UNCHANGED
                                     0301   355 ; *
                                     0301   356 ; ******************************************************
                                     0301   357 ;--
                                     0301   358 ;
                                     0301   359 ;
                                     0301   360 	TCEND
SATSSF08        - SATS SYSTEM SERVICE TESTS  (FAILING S.C.)      22-AUG-1978 03:46:51   VAX-11 MACRO X0.3-11               Page  13
1.0                                                                                                                              (1)

                                     0302   361 TS1:
                                     0302   362 	TESTSERV	CMEXEC,ERR,SATS,				-
                                     0302   363                                           				-
                                     0302   364 	   <1,ROUTIN_CME,						-
                                     0302   365 	        	ROUTIN_CME10,NOPRIV,	-  ; SFCME10
                                     0302   366                                                   >,			-
                                     0302   367                                           				-
                                     0302   368 	   <1,ARGLST_CME,						-
                                     0302   369                                                   >,			-
                                     0302   370
                                     044D   371 	TS_CLEANUP		; CLEAN UP & RETURN TO TEST_SERV_EXEC
SATSSF08        - SATS SYSTEM SERVICE TESTS  (FAILING S.C.)      22-AUG-1978 03:46:51   VAX-11 MACRO X0.3-11               Page  14
1.0                                                                                                                              (1)

                                     046D   372 TS2:
                                     046D   373 	TESTSERV	GETMSG,ERR,SATS,				-
                                     046D   374                                           				-
                                     046D   375 	   <1,MSGID_GTM,						-
                                     046D   376 	        	MSGID_GTM10,MSGNOTFND,	-  ; SFGTM10
                                     046D   377                                                   >,			-
                                     046D   378                                           				-
                                     046D   379 	   <1,MSGLEN_GTM,						-
                                     046D   380                                                   >,			-
                                     046D   381                                           				-
                                     046D   382 	   <1,BUFADR_GTM,						-
                                     046D   383 	        	BUFADR_GTM30,BUFFEROVF,	-  ; SFGTM30
                                     046D   384 	        	BUFADR_GTM31,BUFFEROVF,	-  ; SFGTM31
                                     046D   385                                                   >,			-
                                     046D   386                                           				-
                                     046D   387 	   <1,FLAGS_GTM,						-
                                     046D   388                                                   >,			-
                                     046D   389                                           				-
                                     046D   390 	   <1,OUTADR_GTM,						-
                                     046D   391                                                   >,			-
                                     046D   392
                                     0785   393 	TS_CLEANUP		; CLEAN UP & RETURN TO TEST_SERV_EXEC
SATSSF08        - SATS SYSTEM SERVICE TESTS  (FAILING S.C.)      22-AUG-1978 03:46:51   VAX-11 MACRO X0.3-11               Page  15
1.0             EXECUTE & CLEANUP                                                                                                (1)

                                     07A5   394 	.SBTTL	EXECUTE & CLEANUP
                                     07A5   395 EXECUTE:
                                     07A5   396 	TEST_SERV_EXEC			; EXECUTE ALL T. CASES IN ALL GROUPS
                                     07B9   397 	.MDELETE (PRIV,TC_GROUP,NEXT_TEST_CASE, -
                           0000000D  07B9   398 		  TCEND,TESTSERV,TS_CLEANUP,TEST_SERV_EXEC)
                                     07B9   399 					; DELETE MACRO DEFINITIONS
                                     07B9   400 CLEANUP:
                          0138   30  07B9   401 	BSBW	MOD_MSG_PRINT		; PRINT TEST MODULE END MSG
            1C            01     F0  07BC   402 	INSV	#1,#STS$V_INHIB_MSG,#1,MOD_MSG_CODE
   00000044'EF            01         07BF
                                     07C5   403 					; INHIBIT PRINTING
                                     07C5   404 	$EXIT_S	MOD_MSG_CODE		; EXIT TO OP SYS WITH MSG CODE
SATSSF08        - SATS SYSTEM SERVICE TESTS  (FAILING S.C.)      22-AUG-1978 03:46:51   VAX-11 MACRO X0.3-11               Page  16
1.0             TC_CONTROL                                                                                                       (1)

                                     07D2   406 	.SBTTL	TC_CONTROL
                                     07D2   407 ;++
                                     07D2   408 ; FUNCTIONAL DESCRIPTION:
                                     07D2   409 ;
                                     07D2   410 ;		THE TC_CONTROL SUBROUTINE IS CALLED BY THE TEST_SERV_EXEC
                                     07D2   411 ; MACRO TO EXECUTE A GROUP OF TEST CASES. A GROUP IS DEFINED BY A TC_GROUP
                                     07D2   412 ; MACRO. FOR EACH TC_GROUP MACRO, THERE IS A CORRESPONDING TESTSERV MACRO.
                                     07D2   413 ; TESTSERV CONTAINS CODE TO EXECUTE SYSTEM SERVICES AND CHECK THE RETURNED
                                     07D2   414 ; STATUS CODE VALUES. TESTSERV ARGUMENTS ARE CODED TO SPECIFY ALL THE SYSTEM
                                     07D2   415 ; SERVICE ARGUMENT VALUES AND THE EXPECTED STATUS CODE FOR EACH TEST CASE
                                     07D2   416 ; DEFINED BY A NEXT_TEST_CASE MACRO WITHIN THE GROUP. TC_CONTROL USES A
                                     07D2   417 ; CO-ROUTINE INTERFACE TO ENTER THE CODE OF THE APPROPRIATE TESTSERV MACRO
                                     07D2   418 ; IN VARIOUS PLACES. THE FIRST ENTRY OCCURS ONCE PER GROUP TO ALLOW TESTSERV
                                     07D2   419 ; TO DO SOME INITIALIZATION. THEN TWO ENTRIES ARE MADE FOR EACH TEST CASE IN
                                     07D2   420 ; THE GROUP. THE FIRST ALLOWS TESTSERV TO ISSUE THE SUBJECT SYSTEM SERVICE.
                                     07D2   421 ; THE SECOND ENTRY FOR THE TEST CASE CAUSES TESTSERV TO CHECK THE RETURNED
                                     07D2   422 ; STATUS CODE, PRINTING A FAILURE MESSAGE IF IT IS NOT THE EXPECTED CODE.
                                     07D2   423 ; IF THERE ARE NO MORE TEST CASES IN THE CURRENT GROUP, TESTSERV (NOT TC_CONTROL)
                                     07D2   424 ; RETURNS DIRECTLY TO TEST_SERV_EXEC (RSB ACTUALLY ISSUED IN TS_CLEANUP MACRO)
                                     07D2   425 ; FROM THIS SECOND ENTRY; OTHERWISE, CONTROL RETURNS TO TC_CONTROL WHICH
                                     07D2   426 ; IN TURN ENTERS TESTSERV AGAIN FOR THE NEXT TEST CASE. THE FAILURE OF A
                                     07D2   427 ; TEST CASE DOES NOT CAUSE TERMINATION OF THE TEST MODULE.
                                     07D2   428 ;
                                     07D2   429 ; CALLING SEQUENCE:
                                     07D2   430 ;
                                     07D2   431 ;	BSBW TC_CONTROL (ISSUED WITHIN THE TEST_SERV_EXEC MACRO)
                                     07D2   432 ;			(RSB IS ISSUED WITHIN THE TS_CLEANUP MACRO)
                                     07D2   433 ;
                                     07D2   434 ; INPUT PARAMETERS:
                                     07D2   435 ;
                                     07D2   436 ;	NONE
                                     07D2   437 ;
                                     07D2   438 ; IMPLICIT INPUTS:
                                     07D2   439 ;
                                     07D2   440 ;	ARGUMENTS SPECIFIED ON EACH TESTSERV MACRO MAY BE VIEWED AS
                                     07D2   441 ;	INPUTS, SINCE TC_CONTROL AND TESTSERV ACT AS CO-ROUTINES.
                                     07D2   442 ;
                                     07D2   443 ; OUTPUT PARAMETERS:
                                     07D2   444 ;
                                     07D2   445 ;	SEVERITY CODE FIELD OF MOD_MSG_CODE (BITS 0,1,2) IS SET TO ERROR
                                     07D2   446 ;	IF ANY TEST CASE IN THE CURRENT GROUP FAILS; OTHERWISE IT REMAINS
                                     07D2   447 ;	SET TO SUCCESSFUL.
                                     07D2   448 ;
                                     07D2   449 ; IMPLICIT OUTPUTS:
                                     07D2   450 ;
                                     07D2   451 ;	%UETP-I-TEXT,   ERROR MESSAGES ARE WRITTEN TO SYS$OUTPUT BY
                                     07D2   452 ;			THE TESTSERV MACRO (CO-ROUTINE WITH TC_CONTROL)
                                     07D2   453 ;
                                     07D2   454 ; COMPLETION CODES:
                                     07D2   455 ;
                                     07D2   456 ;	NONE
                                     07D2   457 ;
                                     07D2   458 ; SIDE EFFECTS:
                                     07D2   459 ;
                                     07D2   460 ;	NONE
                                     07D2   461 ;
                                     07D2   462 ;--
SATSSF08        - SATS SYSTEM SERVICE TESTS  (FAILING S.C.)      22-AUG-1978 03:46:51   VAX-11 MACRO X0.3-11               Page  17
1.0             TC_CONTROL                                                                                                       (1)

                                     07D2   463
                                     07D2   464
                                     07D2   465
                                     07D2   466 TC_CONTROL:
                 00000064'EF     DD  07D2   467 	PUSHL	TS_EP			; PUSH TESTSERV ENTRY POINT
                          9E     16  07D8   468 	JSB	@(SP)+			; ENTER TESTSERV INITIALIZATION
                                     07DA   469 10$:					; PROCESS NEXT TEST CASE
   00000056'EF            20     90  07DA   470 	MOVB	#^A/ /,$$TSTN$$+2 	; MAKE SURE T.C. NAME HAS A BLANK
                          002F   30  07E1   471 	BSBW	REG_SAVE		; SAVE REGISTERS
                 00000004'FF     16  07E4   472 	JSB	@CURRENT_TC		; JUMP TO CURRENT TEST CASE
                          0037   30  07EA   473 	BSBW	REG_REST		; RESTORE REGS FOR TESTSERV
                          9E     16  07ED   474 	JSB	@(SP)+			; LET TESTSERV ISSUE SYSTEM SERVICE
                          0042   30  07EF   475 	BSBW	REG_COMP		; COMPARE REGS TO SEE IF ...
                                     07F2   476 					; ... SYSTEM SERVICE CHANGED ANY
                          9E     16  07F2   477 	JSB	@(SP)+			; LET TESTSERV CHEK S.S. STATUS CODE
   00000056'EF            2A     91  07F4   478 	CMPB	#^A/*/,$$TSTN$$+2	; HAS TESTSERV INDICATED FAILURE ?
                          DD     12  07FB   479 	BNEQU	10$			; NO -- PROCESS NEXT TEST CASE
   00000060'EF   00000088'EF     DE  07FD   480 	MOVAL	TEST_MOD_FAIL,TMD_ADDR	; YES -- INDICATE FAILED IN END MSG
            00            02     F0  0808   481 	INSV	#ERROR,#0,#3,MOD_MSG_CODE ; ADJUST STATUS CODE FOR ERROR
   00000044'EF            03         080B
                          C7     11  0811   482 	BRB	10$			; LOOP BAK TO PROCESS NEXT TEST CASE
                                     0813   483 ;
                                     0813   484 ;   TC_CONTROL RETURNS TO TEST_SERV_EXEC VIA TESTSERV (IN TS_CLEANUP MACRO)
                                     0813   485 ;
SATSSF08        - SATS SYSTEM SERVICE TESTS  (FAILING S.C.)      22-AUG-1978 03:46:51   VAX-11 MACRO X0.3-11               Page  18
1.0             SUBROUTINES                                                                                                      (1)

                                     0813   487 	.SBTTL	SUBROUTINES
                                     0813   488 REG_SAVE:
                                     0813   489 ;
                                     0813   490 ;  *****************************************************************
                                     0813   491 ;  *                                                               *
                                     0813   492 ;  *  SAVES R0 THRU SP IN REG_SAVE_AREA                            *
                                     0813   493 ;  *                                                               *
                                     0813   494 ;  *****************************************************************
                                     0813   495 ;
                     7FFF 8F     BB  0813   496 	PUSHR	#R0_THRU_SP		; SAVE ALL REGS ON STACK
            6E            3C     28  0817   497 	MOVC3	#60,(SP),REG_SAVE_AREA	; SAVE REGS (BEFORE S.S.)
                 00000008'EF         081A
                     7FFF 8F     BA  081F   498 	POPR	#R0_THRU_SP		; CLEAN UP STACK
                                 05  0823   499 	RSB				; .... AND RETURN
                                     0824   500 ;
                                     0824   501 ;
                                     0824   502 ;
                                     0824   503 ;
                                     0824   504 REG_REST:
                                     0824   505 ;
                                     0824   506 ;
                                     0824   507 ;  *****************************************************************
                                     0824   508 ;  *                                                               *
                                     0824   509 ;  *  RESTORES R0 THRU SP FROM REG_SAVE_AREA                       *
                                     0824   510 ;  *                                                               *
                                     0824   511 ;  *****************************************************************
                                     0824   512 ;
            5E            3C     C2  0824   513 	SUBL2	#60,SP			; MOVE SP TO MAKE ROOM FOR REGS
   00000008'EF            3C     28  0827   514 	MOVC3	#60,REG_SAVE_AREA,(SP)	; MOVE REGS ONTO STACK FOR POP
                          6E         082E
                     7FFF 8F     BA  082F   515 	POPR	#R0_THRU_SP		; RESTORE ALL REGS FOR TESTSERV
                                 05  0833   516 	RSB				; ... AND RETURN
SATSSF08        - SATS SYSTEM SERVICE TESTS  (FAILING S.C.)      22-AUG-1978 03:46:51   VAX-11 MACRO X0.3-11               Page  19
1.0             SUBROUTINES                                                                                                      (1)

                                     0834   518 REG_COMP:
                                     0834   519 ;
                                     0834   520 ;  *****************************************************************
                                     0834   521 ;  *                                                               *
                                     0834   522 ;  *  1) PUSHES ALL REGS ONTO STACK                                *
                                     0834   523 ;  *  2) COMPARES REGISTER IMAGES FROM STACK WITH CORRESPONDING    *
                                     0834   524 ;  *       IMAGES FROM REG_SAVE_AREA FOR ALL REGISTERS SPECIFIED   *
                                     0834   525 ;  *       IN REG_COMP_MASK.                                       *
                                     0834   526 ;  *  3) FOR EACH UNEQUAL COMPARE, AN ERROR MESSAGE IS PRINTED     *
                                     0834   527 ;  *       (USING $FAO AND $OUTPUT SYSTEM SERVICES).               *
                                     0834   528 ;  *  4) POPS ALL REGS OFF OF STACK                                *
                                     0834   529 ;  *                                                               *
                                     0834   530 ;  *****************************************************************
                                     0834   531 ;
                     7FFF 8F     BB  0834   532 	PUSHR	#R0_THRU_SP		; SAVE ALL REGISTERS ON STACK
            56   00000008'EF     DE  0838   533 	MOVAL	REG_SAVE_AREA,R6 	; POINT R6 TO BEG OF ...
                                     083F   534 					; ... REGS (BEFORE S.S.)
            54            5E     D0  083F   535 	MOVL	SP,R4			; POINT R4 TO BEG OF
                                     0842   536 					; ... REGS (AFTER S.S.)
            53         FF 8F     98  0842   537 	CVTBL	#-1,R3			; INITIALIZE REG_COMP_MASK INDEX
                                     0846   538 REG_COMP_NEXT:
                          53     D6  0846   539 	INCL	R3			; POINT TO NEXT BIT IN MASK
            53            0F     91  0848   540 	CMPB	#15,R3			; END OF THE MASK ?
                          03     1A  084B   541 	BGTRU	REG_COMP_CONT		; NO -- CONTINUE
                          009F   31  084D   542 	BRW	REG_COMP_RSB		; YES -- GO TO COMMON RETURN
                                     0850   543 REG_COMP_CONT:
            84            86     D1  0850   544 	CMPL	(R6)+,(R4)+		; REG BEFORE = REG AFTER ?
                          F1     13  0853   545 	BEQLU	REG_COMP_NEXT		; YES -- LOOK FOR NEXT REG
   00000000'EF            53     E1  0855   546 	BBC	R3,REG_COMP_MASK,REG_COMP_NEXT
                          E9         085C
                                     085D   547 					; NO -- GET NEXT IF BIT NOT SET
   00000048'EF            53     D0  085D   548 	MOVL	R3,CLOB_REG_NO		; NO -- GIVE REG NUMBER TO FAO
   0000004C'EF         FC A6     D0  0864   549 	MOVL	-4(R6),REG_BEFORE_SS 	; GIVE "BEFORE" CONTENTS TO FAO
   00000050'EF         FC A4     D0  086C   550 	MOVL	-4(R4),REG_AFTER_SS  	; GIVE "AFTER" CONTENTS TO FAO
   00000056'EF            2A     90  0874   551 	MOVB	#^A/*/,$$TSTN$$+2 	; GIVE FAILURE INDIC'N IN ERROR MSG
                                     087B   552 ;
                                     087B   553 	$FAO_S	ERR_MSG_FAOCTL,OUTL,OUTD,$$SNAD$$,  -
                                     087B   554 		$$ASEQ$$,$$PSEQ$$,CLOB_REG_NO,REG_BEFORE_SS,REG_AFTER_SS
                                     08AE   555 ;
       F868 CF       F832 CF     B0  08AE   556 	MOVW	OUTL,OUTD		; ACTUAL OUTPUT LEN IN STRING DESC'R
                                     08B5   557 	PUTMSG	<#UETP$_TEXT,#1,#OUTD>	; PRINT THE MSG
       F84C CF       0084 8F     B0  08CA   558 	MOVW	#OUTE-OUTB,OUTD		; GET MAX LEN BACK INTO DESCRIPTOR
   00000056'EF            20     90  08D1   559 	MOVB	#^A/ /,$$TSTN$$+2 	; REMOVE FAIL INDIC'N FOR NEXT MSG
   00000060'EF   00000088'EF     DE  08D8   560 	MOVAL	TEST_MOD_FAIL,TMD_ADDR	; INDICATE FAILED IN END MSG
            00            02     F0  08E3   561 	INSV	#ERROR,#0,#3,MOD_MSG_CODE ; ADJUST STATUS CODE FOR ERROR
   00000044'EF            03         08E6
                          FF57   31  08EC   562 	BRW	REG_COMP_NEXT		; GO LOOK FOR NEXT REG TO COMPARE
                                     08EF   563 REG_COMP_RSB:
                     7FFF 8F     BA  08EF   564 	POPR	#R0_THRU_SP		; CLEAN UP STACK
                                 05  08F3   565 	RSB				; RETURN TO CALLER
SATSSF08        - SATS SYSTEM SERVICE TESTS  (FAILING S.C.)      22-AUG-1978 03:46:51   VAX-11 MACRO X0.3-11               Page  20
1.0             SUBROUTINES                                                                                                      (1)

                                     08F4   567 MOD_MSG_PRINT:
                                     08F4   568 ;
                                     08F4   569 ;  *****************************************************************
                                     08F4   570 ;  *                                                               *
                                     08F4   571 ;  *  PRINTS THE TEST MODULE BEGUN/SUCCESSFUL/FAILED MESSAGES      *
                                     08F4   572 ;  *	   (USING THE PUTMSG MACRO).                               *
                                     08F4   573 ;  *                                                               *
                                     08F4   574 ;  *****************************************************************
                                     08F4   575 ;
                                     08F4   576 	PUTMSG	<MOD_MSG_CODE,#2,TMN_ADDR,TMD_ADDR> ; PRINT MSG
                                 05  090F   577 	RSB				; ... AND RETURN TO CALLER
                                     0910   578 ;
                                     0910   579 CHMRTN:
                                     0910   580 ; **********************************************************
                                     0910   581 ; *
                                     0910   582 ; *	CHANGE MODE ROUTINE. THIS ROUTINE GETS CONTROL WHENEVER
                                     0910   583 ; *	A CMKRNL, CMEXEC, OR CMSUP SYSTEM SERVICE IS ISSUED
                                     0910   584 ; *	BY THE MODE MACRO ('TO' OPTION).  IT MERELY DOES
                                     0910   585 ; *	A JUMP INDIRECT ON A FIELD SET UP BY MODE. IT HAS
                                     0910   586 ; *	THE EFFECT OF RETURNING TO THE END OF THE MODE
                                     0910   587 ; *	MACRO EXPANSION.
                                     0910   588 ; *
                                     0910   589 ; *************************************************************
                                     0910   590 ;
                               0000  0910   591 	.WORD	0			; ENTRY MASK
                 00000079'FF     17  0912   592 	JMP	@CHM_CONT		; RETURN TO MODE MACRO IN NEW MODE
                                     0918   593 ;
                                     0918   594 ; *	RET INSTR WILL BE ISSUED IN EXPANSION OF 'MODE FROM, ....' MACRO
                                     0918   595 ;
                                     0918   596 	.END	SATSSF08
SATSSF08        - SATS SYSTEM SERVICE TESTS  (FAILING S.C.)      22-AUG-1978 03:46:51   VAX-11 MACRO X0.3-11               Page  21
SYMBOL TABLE                                                                                                                     (1)

$$$CHARS       = 00000048            PCB$B_WEFC       00000032            PCB$W_MEM        00000020
$$$FIRSTTC$$$  = 00000000            PCB$C_LENGTH     0000007C            PCB$W_MTXCNT     0000000E
$$$STRINGS     = 00000000            PCB$K_LENGTH     0000007C            PCB$W_PPGCNT     0000003A
$$ACT$$          000000FC R     07   PCB$L_ASTQBL     00000014            PCB$W_PRCCNT     0000006A
$$ARG$$          00000104 R     07   PCB$L_ASTQFL     00000010            PCB$W_SIZE       00000008
$$ASEQ$$         000000F4 R     07   PCB$L_EFC2P      00000058            PCB$W_STATE      00000030
$$CALL$$         000000E8 R     07   PCB$L_EFC3P      0000005C            PCB$W_TMBU       00000036
$$DISP$$         000001EF R     07   PCB$L_EFCS       00000050            PCB$W_TQCNT      0000004A
$$ERR$$          000001A9 R     07   PCB$L_EFCU       00000054            PHD$B_ASTLVL     000000CF
$$EXP$$          00000100 R     07   PCB$L_EFWM       0000004C            PHD$B_DFPFC      00000038
$$INIT$$         000000EC R     07   PCB$L_OWNER      0000001C            PHD$B_PAGFIL     0000001F
$$MAXP$$       = 00000005            PCB$L_PHD        00000064            PHD$B_PGTBPFC    00000039
$$PSEQ$$         000000F8 R     07   PCB$L_PHYPCB     00000018            PHD$C_LENGTH     00000118
$$SNAD$$         000000F0 R     07   PCB$L_PID        00000060            PHD$C_PHDPAGCTX= 00000008
$$T1           = 00000004            PCB$L_PQB        0000004C            PHD$K_LENGTH     00000118
$$T2           = 00000009            PCB$L_SQBL       00000004            PHD$L_BIOCNT     00000054
$$TSTN$$         00000054 R     04   PCB$L_SQFL       00000000            PHD$L_CPULIM     00000058
ARGLST_CME     = 00000000            PCB$L_STS        00000028            PHD$L_CPUTIM     0000003C
BIT...         = 00001258            PCB$L_UIC        00000020            PHD$L_DIOCNT     00000050
BUFADR_GTM       00000093 R     04   PCB$L_WSSWP      00000024            PHD$L_ESP        0000007C
BUFADR_GTM30     0000019F R     04   PCB$L_WTIME      0000002C            PHD$L_FREP0VA    00000028
BUFADR_GTM31     000001A7 R     04   PCB$T_LNAME      0000006C            PHD$L_FREP1VA    00000030
CHMRTN           00000910 R     07   PCB$V_ASTPEN   = 00000011            PHD$L_FREPTECNT  0000002C
CHM_CONT         00000079 R     04   PCB$V_BATCH    = 0000000E            PHD$L_KSP        00000078
CLEANUP          000007B9 R     07   PCB$V_DELPEN   = 00000001            PHD$L_P0BR       000000C8
CLOB_REG_NO      00000048 R     04   PCB$V_FORCPEN  = 00000002            PHD$L_P0LRASTL   000000CC
CTL$GL_PHD       ********   X   07   PCB$V_HIBER    = 00000013            PHD$L_P1BR       000000D0
CURRENT_TC       00000004 R     04   PCB$V_INQUAN   = 00000003            PHD$L_P1LR       000000D4
EMPTY            00000000 R     05   PCB$V_LOGIN    = 00000014            PHD$L_PAGEFLTS   0000004C
ERROR          = 00000002            PCB$V_NETWRK   = 00000015            PHD$L_PAGFIL     0000001C
ERR_MSG_FAOCTL   00000002 R     03   PCB$V_NOACNT   = 0000000F            PHD$L_PC         000000C0
EXECUTE          000007A5 R     07   PCB$V_NODELET  = 00000017            PHD$L_PCB        00000078
FLAGS_GTM        000000C8 R     03   PCB$V_PHDRES   = 00000012            PHD$L_PGFLCNT    00000034
GBL...         = 00000000            PCB$V_PSWAPM   = 00000004            PHD$L_PGFLQUOTA  0000005C
GRP_TOTAL      = 00000002            PCB$V_PWRAST   = 00000016            PHD$L_PSL        000000C4
INADR            000000A9 R     03   PCB$V_RES      = 00000000            PHD$L_PSTBASOFF  00000020
INFO           = 00000003            PCB$V_RESPEN   = 00000005            PHD$L_PTWSLELCK  00000064
LIB$SIGNAL       ********   X   07   PCB$V_SSFEXC   = 00000006            PHD$L_PTWSLEVAL  00000068
MEXIT          = 00000000            PCB$V_SSFEXCE  = 00000007            PHD$L_R0         00000088
MOD_MSG_CODE     00000044 R     04   PCB$V_SSFEXCS  = 00000008            PHD$L_R1         0000008C
MOD_MSG_PRINT    000008F4 R     07   PCB$V_SSFEXCU  = 00000009            PHD$L_R10        000000B0
MSGID_GTM        000000C4 R     03   PCB$V_SSRWAIT  = 0000000A            PHD$L_R11        000000B4
MSGID_GTM10      000000CC R     03   PCB$V_SUSPEN   = 0000000B            PHD$L_R12        000000B8
MSGLEN_GTM       00000091 R     04   PCB$V_SWPVBN   = 00000010            PHD$L_R13        000000BC
NARGS          = 0000000E            PCB$V_WAKEPEN  = 0000000C            PHD$L_R2         00000090
NOACCESS         00000000 R     06   PCB$V_WALL     = 0000000D            PHD$L_R3         00000094
ONES             000000B5 R     03   PCB$W_APTCNT     00000034            PHD$L_R4         00000098
OUTADR_GTM       0000019B R     04   PCB$W_ASTCNT     0000003C            PHD$L_R5         0000009C
OUTB             00000125 R     07   PCB$W_BIOCNT     0000003E            PHD$L_R6         000000A0
OUTD             0000011D R     07   PCB$W_BIOLM      00000040            PHD$L_R7         000000A4
OUTE             000001A9 R     07   PCB$W_BYTCNT     00000042            PHD$L_R8         000000A8
OUTL             000000E4 R     07   PCB$W_BYTLM      00000068            PHD$L_R9         000000AC
PCB$B_ASTACT     0000000C            PCB$W_DIOCNT     00000044            PHD$L_REFERFLT   00000014
PCB$B_ASTEN      0000000D            PCB$W_DIOLM      00000046            PHD$L_SSP        00000080
PCB$B_PRI        0000000B            PCB$W_FILCNT     00000048            PHD$L_USP        00000084
PCB$B_PRIB       00000033            PCB$W_GPGCNT     00000038            PHD$L_WSL        00000118
PCB$B_TYPE       0000000A            PCB$W_GRP        00000022            PHD$M_DALCSTX  = 00000002
SATSSF08        - SATS SYSTEM SERVICE TESTS  (FAILING S.C.)      22-AUG-1978 03:46:51   VAX-11 MACRO X0.3-11               Page  22
SYMBOL TABLE                                                                                                                     (1)

PHD$M_PFMFLG   = 00000001            PRV$V_PRMGBL   = 00000018            SHR$_CLOSEOUT  = 00001058
PHD$M_WSPEAKCHK= 00000004            PRV$V_PRMMBX   = 0000000B            SHR$_CONFDEL   = 000011F8
PHD$Q_PRIVMSK    00000000            PRV$V_PSWAPM   = 0000000C            SHR$_COPIEDB   = 00001060
PHD$S_ASTLVL   = 00000008            PRV$V_SETPRI   = 0000000D            SHR$_COPIEDR   = 00001068
PHD$S_P0LR     = 00000018            PRV$V_SETPRV   = 0000000E            SHR$_CREATED   = 00001070
PHD$V_ASTLVL   = 00000018            PRV$V_SYSGBL   = 00000019            SHR$_DELETED   = 00001200
PHD$V_DALCSTX  = 00000001            PRV$V_SYSNAM   = 00000002            SHR$_DELINTERR = 00001240
PHD$V_P0LR     = 00000000            PRV$V_TMPMBX   = 0000000F            SHR$_DELVER    = 00001208
PHD$V_PFMFLG   = 00000000            PRV$V_VOLPRO   = 00000015            SHR$_DIRTOOBUS = 00001220
PHD$V_WSPEAKCHK= 00000002            PRV$V_WORLD    = 00000010            SHR$_ENDED     = 00001078
PHD$W_ASTLM      00000044            PRVPRT           00000070 R     04   SHR$_ENDEDD    = 00001080
PHD$W_BAK        00000048            R0_THRU_SP     = 00007FFF            SHR$_ENDEDT    = 00001088
PHD$W_DFWSCNT    0000001A            REGS             0000007D R     04   SHR$_FILNOTDEL = 000011F0
PHD$W_EMPTPG     000000D8            REG_AFTER_SS     00000050 R     04   SHR$_FILNOTPUR = 00001230
PHD$W_EXTDYNWS   00000076            REG_BEFORE_SS    0000004C R     04   SHR$_FILPURGED = 00001250
PHD$W_FILLM      00000060            REG_COMP         00000834 R     07   SHR$_HASHCONCAT= 000011D8
PHD$W_FLAGS      0000003A            REG_COMP_CONT    00000850 R     07   SHR$_HIGHVER   = 00001148
PHD$W_PHVINDEX   00000046            REG_COMP_MASK    00000000 R     03   SHR$_IDXCONCAT = 00001138
PHD$W_PRCLM      00000042            REG_COMP_NEXT    00000846 R     07   SHR$_INCOMPAT  = 000011E0
PHD$W_PST        00000020            REG_COMP_RSB     000008EF R     07   SHR$_NEWFILES  = 00001090
PHD$W_PSTBASMAX  0000004A            REG_REST         00000824 R     07   SHR$_NOFILPURG = 00001228
PHD$W_PSTFREE    00000026            REG_SAVE         00000813 R     07   SHR$_NOJOBID   = 000011A0
PHD$W_PSTLAST    00000024            REG_SAVE_AREA    00000008 R     04   SHR$_NOJOBNAME = 000011A8
PHD$W_PTCNTACT   00000070            RETADR           00000068 R     04   SHR$_NOQUEUE   = 00001198
PHD$W_PTCNTLCK   0000006C            ROUTIN_CME       000000BD R     03   SHR$_NOTCMPLT  = 000011C0
PHD$W_PTCNTMAX   00000072            ROUTIN_CME10     000000BD R     03   SHR$_NOTCOPIED = 000011B8
PHD$W_PTCNTVAL   0000006E            SATSSF08         00000000 R     07   SHR$_NOVALUE   = 00001100
PHD$W_QUANT      00000040            SEVERE         = 00000004            SHR$_NOWILD    = 00001128
PHD$W_TQLM       00000062            SHR$K_SHRDEF   = 00000001            SHR$_OPENIN    = 00001098
PHD$W_WSAUTH     0000000A            SHR$_ABEND     = 000010D8            SHR$_OPENOUT   = 000010A0
PHD$W_WSDYN      0000000E            SHR$_ABENDD    = 000010E0            SHR$_OVERLAY   = 000010A8
PHD$W_WSFLUID    00000074            SHR$_ABENDT    = 000010E8            SHR$_PARSEFAIL = 00001248
PHD$W_WSLAST     00000012            SHR$_APPENDEDB = 00001000            SHR$_PURGEVER  = 00001210
PHD$W_WSLIST     00000008            SHR$_APPENDEDR = 00001008            SHR$_READERR   = 000010B0
PHD$W_WSLOCK     0000000C            SHR$_ATPC      = 00001158            SHR$_RELCONCAT = 00001140
PHD$W_WSLX       0000004A            SHR$_BADBYTE   = 00001010            SHR$_REPLACED  = 000010B8
PHD$W_WSNEXT     00000010            SHR$_BADCOPIES = 00001160            SHR$_RMSERROR  = 000011C8
PHD$W_WSQUOTA    00000018            SHR$_BADDELIM  = 00001118            SHR$_SEARCHFAIL= 00001238
PRIVMASK         00000071 R     04   SHR$_BADFIELD  = 00001018            SHR$_SYNTAX    = 000010F8
PROT             000000B1 R     03   SHR$_BADFORM   = 00001168            SHR$_SYSERROR  = 000011B0
PRT$C_NA         ********   X   03   SHR$_BADJOBID  = 00001170            SHR$_SYSERRORPC= 000010F0
PRV$V_ALLSPOOL = 00000004            SHR$_BADJOBNAME= 00001178            SHR$_TEXT      = 00001130
PRV$V_BUGCHK   = 00000017            SHR$_BADKEY    = 00001108            SHR$_UNXPCTSTS = 000011D0
PRV$V_CMEXEC   = 00000001            SHR$_BADLOGIC  = 00001120            SHR$_VALERR    = 000011E8
PRV$V_CMKRNL   = 00000000            SHR$_BADLOGICPC= 00001150            SHR$_WILDCONCAT= 000010C0
PRV$V_DETACH   = 00000005            SHR$_BADLONG   = 00001020            SHR$_WILDOUTVER= 000010C8
PRV$V_DIAGNOSE = 00000006            SHR$_BADPRTY   = 00001180            SHR$_WRITEERR  = 000010D0
PRV$V_EXQUOTA  = 00000013            SHR$_BADQNAME  = 00001188            SS$_BUFFEROVF    ********   X   07
PRV$V_GROUP    = 00000008            SHR$_BADTIME   = 00001190            SS$_MSGNOTFND    ********   X   07
PRV$V_GRPNAM   = 00000003            SHR$_BADVALUE  = 00001110            SS$_NOPRIV       ********   X   07
PRV$V_LOG_IO   = 00000007            SHR$_BADWORD   = 00001028            SS$_NORMAL       ********   X   03
PRV$V_MOUNT    = 00000011            SHR$_BEGIN     = 00001030            STS$K_ERROR    = 00000002
PRV$V_NETMBX   = 00000014            SHR$_BEGIND    = 00001038            STS$K_INFO     = 00000003
PRV$V_NOACNT   = 00000009            SHR$_BEGINT    = 00001040            STS$K_SEVERE   = 00000004
PRV$V_OPER     = 00000012            SHR$_CLICB     = 00001048            STS$K_SUCCESS  = 00000001
PRV$V_PHY_IO   = 00000016            SHR$_CLOSEDEL  = 00001218            STS$K_WARNING  = 00000000
PRV$V_PRMCEB   = 0000000A            SHR$_CLOSEIN   = 00001050            STS$M_CODE     = 00007FF8
SATSSF08        - SATS SYSTEM SERVICE TESTS  (FAILING S.C.)      22-AUG-1978 03:46:51   VAX-11 MACRO X0.3-11               Page  23
SYMBOL TABLE                                                                                                                     (1)

STS$M_COND_ID  = 0FFFFFF8            UETP$_CONF     = 007480D1
STS$M_CONTROL  = F0000000            UETP$_DATAER   = 00748010
STS$M_CUST_DEF = 08000000            UETP$_DDB      = 007480E1
STS$M_FAC_NO   = 0FFF0000            UETP$_DENOSU   = 00748333
STS$M_FAC_SP   = 00008000            UETP$_DESTP    = 007481A2
STS$M_INHIB_MSG= 10000000            UETP$_DEUNUS   = 0074819A
STS$M_MSG_NO   = 0000FFF8            UETP$_ERBOX    = 00748008
STS$M_SEVERITY = 00000007            UETP$_SATSMS   = 007480D9
STS$M_SUCCESS  = 00000001            UETP$_TEXT     = 00741133
STS$S_CODE     = 0000000C            UETP$_UCB      = 007480E9
STS$S_COND_ID  = 00000019            UETP$_USER     = 0074833B
STS$S_CONTROL  = 00000004            WARNING        = 00000000
STS$S_CUST_DEF = 00000001
STS$S_FAC_NO   = 0000000C
STS$S_FAC_SP   = 00000001
STS$S_INHIB_MSG= 00000001
STS$S_MSG_NO   = 0000000D
STS$S_SEVERITY = 00000003
STS$S_SUCCESS  = 00000001
STS$V_CODE     = 00000003
STS$V_COND_ID  = 00000003
STS$V_CONTROL  = 0000001C
STS$V_CUST_DEF = 0000001B
STS$V_FAC_NO   = 00000010
STS$V_FAC_SP   = 0000000F
STS$V_INHIB_MSG= 0000001C
STS$V_MSG_NO   = 00000003
STS$V_SEVERITY = 00000000
STS$V_SUCCESS  = 00000000
SUCCESS        = 00000001
SYS$CMEXEC       ********   X   07
SYS$CMKRNL       ********   X   07
SYS$EXIT         ********   X   07
SYS$FAO          ********   X   07
SYS$FAOL         ********   X   07
SYS$GETMSG       ********   X   07
SYS$HIBER        ********   X   07
SYS$SETPRN       ********   X   07
SYS$SETPRT       ********   X   07
SYS$WAKE         ********   X   07
TC1              0000024A R     07
TC2              00000299 R     07
TCG_NO         = 00000002
TC_CONTROL       000007D2 R     07
TEST_MOD_BEG     00000077 R     03
TEST_MOD_FAIL    00000088 R     03
TEST_MOD_NAME    0000006E R     03
TEST_MOD_NAME_D  0000008F R     03
TEST_MOD_SUCC    0000007D R     03
TMD_ADDR         00000060 R     04
TMN_ADDR         0000005C R     04
TPID             00000000 R     04
TS1              00000302 R     07
TS2              0000046D R     07
TS_EP            00000064 R     04
TTNAME           0000009F R     03
UETP$_ABORTC   = 0074832B
SATSSF08        - SATS SYSTEM SERVICE TESTS  (FAILING S.C.)      22-AUG-1978 03:46:51   VAX-11 MACRO X0.3-11               Page  24
PROGRAM SECTION SYNOPSIS                                                                                                         (1)


PROGRAM SECTION SYNOPSIS

.  ABS  .        00000000      00     NOPIC   USR   CON   ABS   LCL NOSHR NOEXE NORD  NOWRT BYTE
. BLANK .        00000000      01     NOPIC   USR   CON   REL   LCL NOSHR   EXE   RD    WRT BYTE
$ABS$            0000011C      02     NOPIC   USR   CON   ABS   LCL NOSHR   EXE   RD    WRT BYTE
RODATA           000000D0      03     NOPIC   USR   CON   REL   LCL NOSHR NOEXE   RD  NOWRT LONG
RWDATA           000001B0      04     NOPIC   USR   CON   REL   LCL NOSHR NOEXE   RD    WRT BYTE
SATS_ACCVIO_1    00000200      05     NOPIC   USR   CON   REL   LCL NOSHR NOEXE   RD    WRT PAGE
SATS_ACCVIO_2    00000200      06     NOPIC   USR   CON   REL   LCL NOSHR NOEXE   RD    WRT PAGE
SATSSF08         00000918      07     NOPIC   USR   CON   REL   LCL NOSHR   EXE   RD    WRT LONG


THERE WERE NO ERRORS OR WARNINGS.
5498. BYTES LEFT IN FREE MEMORY POOL.
3434. BYTES OF RECLAIMED MEMORY.
OBJ$:SATSSF08,LIS$:SATSSF08/-SP=EXECML$/ML,LIB$:SYSTST.MLB/ML,SRC$:SATSSF08
55 MLB DIR RDS - 1222 GETS TO DEFINE 45 MACROS. 68 INTER. FILE WRITES.
