SATSSS72        SATS SYSTEM SERVICE TESTS  $CRETVA (SUCC S.C.)   22-AUG-1978 04:16:05   VAX-11 MACRO X0.3-11               Page   0
TABLE OF CONTENTS

   (1)      48  DECLARATIONS
   (1)      86  CONDITION TABLES
   (1)     129  TM_SETUP, TM_CLEANUP
   (1)     192  CONDITION SUBROUTINES - SETUP AND CLEANUP
   (1)     262  FORM_CONDS
   (1)     355  VERIFY
   (1)     554  VFY_CLEANUP
SATSSS72        SATS SYSTEM SERVICE TESTS  $CRETVA (SUCC S.C.)   22-AUG-1978 04:16:05   VAX-11 MACRO X0.3-11               Page   1
1.0                                                                                                                              (1)

                                     0000     1 	.TITLE	SATSSS72 SATS SYSTEM SERVICE TESTS  $CRETVA (SUCC S.C.)
                                     0000     2 	.IDENT	/1.0/
                                     0000     3
                                     0000     4 ;
                                     0000     5 ;			  COPYRIGHT (c) 1977,1978 BY
                                     0000     6 ;	      DIGITAL EQUIPMENT CORPORATION, MAYNARD, MASS.
                                     0000     7 ;
                                     0000     8 ; THIS SOFTWARE IS FURNISHED UNDER A LICENSE AND MAY BE USED AND  COPIED
                                     0000     9 ; ONLY  IN  ACCORDANCE  WITH  THE  TERMS  OF  SUCH  LICENSE AND WITH THE
                                     0000    10 ; INCLUSION OF THE ABOVE COPYRIGHT NOTICE.  THIS SOFTWARE OR  ANY  OTHER
                                     0000    11 ; COPIES  THEREOF MAY NOT BE PROVIDED OR OTHERWISE MADE AVAILABLE TO ANY
                                     0000    12 ; OTHER PERSON.  NO TITLE TO AND OWNERSHIP OF  THE  SOFTWARE  IS  HEREBY
                                     0000    13 ; TRANSFERRED.
                                     0000    14 ;
                                     0000    15 ; THE INFORMATION IN THIS SOFTWARE IS SUBJECT TO CHANGE  WITHOUT  NOTICE
                                     0000    16 ; AND  SHOULD  NOT  BE  CONSTRUED  AS  A COMMITMENT BY DIGITAL EQUIPMENT
                                     0000    17 ; CORPORATION.
                                     0000    18 ;
                                     0000    19 ; DIGITAL ASSUMES NO RESPONSIBILITY FOR THE USE OR  RELIABILITY  OF  ITS
                                     0000    20 ; SOFTWARE ON EQUIPMENT WHICH IS NOT SUPPLIED BY DIGITAL.
                                     0000    21 ;
                                     0000    22
                                     0000    23 ;++
                                     0000    24 ; FACILITY:	SYSTST (SATS SYSTEM SERVICE TESTS)
                                     0000    25 ;
                                     0000    26 ; ABSTRACT:
                                     0000    27 ;
                                     0000    28 ;		THIS MODULE CONTAINS SUBROUTINES WHICH, WHEN LINKED
                                     0000    29 ; WITH SUCCOMMON.OBJ, FORM TEST MODULE SATSSS72 TO TEST SUCCESSFUL
                                     0000    30 ; OPERATION OF THE $CRETVA SYSTEM SERVICE. THE SERVICE IS INVOKED
                                     0000    31 ; UNDER VARIOUS INPUT CONDITIONS WITH VARYING INPUT PARAMETERS. ONLY
                                     0000    32 ; SUCCESSFUL STATUS CODES ARE EXPECTED IN THIS TEST MODULE.  CORRECT
                                     0000    33 ; OPERATION OF THE SERVICE FOR EACH OF ITS ISSUANCES IS VERIFIED BY
                                     0000    34 ; CHECKING FOR AN SS$_NORMAL STATUS CODE, EXPECTED RETURN ARGUMENTS
                                     0000    35 ; AND EXPECTED FUNCTIONALITY PERFORMED.
                                     0000    36 ;
                                     0000    37 ; ENVIRONMENT:	USER MODE IMAGE; NEEDS CMKRNL PRIVILEGE,
                                     0000    38 ;		DYNAMICALLY ACQUIRES OTHER PRIVILEGES, AS NEEDED.
                                     0000    39 ;
                                     0000    40 ; AUTHOR: THOMAS L. CAFARELLA,		CREATION DATE: JUL, 1977
                                     0000    41 ;
                                     0000    42 ; MODIFIED BY:
                                     0000    43 ;
                                     0000    44 ;	, : VERSION
                                     0000    45 ; 01	-
                                     0000    46 ;--
SATSSS72        SATS SYSTEM SERVICE TESTS  $CRETVA (SUCC S.C.)   22-AUG-1978 04:16:05   VAX-11 MACRO X0.3-11               Page   2
1.0             DECLARATIONS                                                                                                     (1)

                                     0000    48 	.SBTTL	DECLARATIONS
                                     0000    49 ;
                                     0000    50 ; INCLUDE FILES:
                                     0000    51 ;
                                     0000    52 	$PRVDEF				; PRIVILEGE BIT DEFINITIONS
                                     0000    53 	$PHDDEF				; PROCESS HEADER OFFSETS
                                     0000    54 	$PSLDEF				; PROCESSOR STATUS LONGWORD DEFINITIONS
                                     0000    55 ;
                                     0000    56 ; MACROS:
                                     0000    57 ;
                                     0000    58 ;
                                     0000    59 ; EQUATED SYMBOLS:
                                     0000    60 ;
                                     0000    61 ;
                                     0000    62 ; OWN STORAGE:
                                     0000    63 ;
SATSSS72        SATS SYSTEM SERVICE TESTS  $CRETVA (SUCC S.C.)   22-AUG-1978 04:16:05   VAX-11 MACRO X0.3-11               Page   3
1.0             DECLARATIONS                                                                                                     (1)

                                 00000000    65 	.PSECT	RODATA,RD,NOWRT,NOEXE,LONG
                                     0000    66 TEST_MOD_NAME::	STRING	C,<SATSSS72>	; TEST MODULE NAME
                                     0009    67 TEST_MOD_NAME_D: STRING	I,<SATSSS72>	; TEST MODULE NAME DESCRIPTOR
                                     0019    68 MSG1_INP_CTL:	STRING	I,<  SSCVA!4ZW: CONDITIONS:>
                                     0039    69 					; FAO CTL STRING FOR MSG1 IN SUCCOMMON.MAR
                                     0039    70 MSG3_ERR_CTL::	STRING	I,< *SSCVA!4ZW: !AS>
                                     0051    71 					; FAO CTL STRING FOR MSG3 IN SUCCOMMON.MAR
                           00000200  0051    72 PAGESIZE:	.LONG	512		; PAGE SIZE IN BYTES
SATSSS72        SATS SYSTEM SERVICE TESTS  $CRETVA (SUCC S.C.)   22-AUG-1978 04:16:05   VAX-11 MACRO X0.3-11               Page   4
1.0             DECLARATIONS                                                                                                     (1)

                                 00000000    74 	.PSECT	RWDATA,RD,WRT,NOEXE,LONG
                           00000008  0000    75 PRIVMASK:	.BLKQ	1		; ADDR OF PRIVILEGE MASK (IN PHD)
                           0000000C  0008    76 PAGCNT_ERG:	.BLKL	1		; PAGCNT ARGUMENT FOR EXPREG
                           00000014  000C    77 RETADR_ERG:	.BLKQ	1		; RETADR ARGUMENT FOR EXPREG
                           0000001C  0014    78 INADR_CVA:	.BLKQ	1		; INADR ARGUMENT FOR PRELIM CRETVA
                           00000024  001C    79 INADR:		.BLKQ	1		; INADR ARGUMENT FOR SUBJECT CRETVA
                           0000002C  0024    80 RETADR:		.BLKQ	1		; RETADR ARGUMENT FOR SUBJECT CRETVA
                           00000030  002C    81 STARTADDR:	.BLKL	1		; STARTING ADDR OF CREATED AREA
                           00000034  0030    82 ENDADDR:	.BLKL	1		; ENDING ADDR OF CREATED AREA
                           00000038  0034    83 DISPL:		.BLKL	1		; NO. OF PAGES (DISPLACEMENT) TO CREATE
                           00000039  0038    84 NZERR:		.BLKB	1		; NON-ZERO ERROR FLAG: O MEANS NO N-Z ERROR
SATSSS72        SATS SYSTEM SERVICE TESTS  $CRETVA (SUCC S.C.)   22-AUG-1978 04:16:05   VAX-11 MACRO X0.3-11               Page   5
1.0             CONDITION TABLES                                                                                                 (1)

                                     0039    86 	.SBTTL	CONDITION TABLES
                                     0039    87 ;
                                     0039    88 ;	***** CONDITION TABLES FOR CRETVA SYSTEM SERVICE *****
                                     0039    89 ;
                                     0039    90 	COND	1,NOTARG,<PREVIOUS CONDITION OF CREATED PAGES>,-
                                     0039    91 		  <PREVIOUSLY CREATED BY CRETVA>,-
                                     0039    92 		  <PREVIOUSLY CREATED BY EXPREG>,-
                                     0039    93 		  <PREVIOUSLY NON-EXISTENT>,-
                                     0039    94
                                     00BC    95 	COND	2,NOTARG,<ORDERING OF INADR PAIR>,-
                                     00BC    96 		  <1ST ADDR LESS THAN OR EQUAL TO 2ND ADDR>,-
                                     00BC    97 		  <1ST ADDR GREATER THAN OR EQUAL TO 2ND ADDR>,-
                                     00BC    98
                                     012F    99 	COND	3,LONG,<ACMODE>,-
                                     012F   100 		  <KERNEL>,-
                                     012F   101 		  <EXEC>,-
                                     012F   102 		  <SUPER>,-
                                     012F   103 		  <USER>,-
                                     012F   104
                           00000000  015E   105 		    .LONG	PSL$C_KERNEL
                           00000001  0162   106 		    .LONG	PSL$C_EXEC
                           00000002  0166   107 		    .LONG	PSL$C_SUPER
                           00000003  016A   108 		    .LONG	PSL$C_USER
                                     016E   109 ;
                                     016E   110 	COND	4,NOTARG,<LOCATION OF CREATED PAGES>,-
                                     016E   111 		  <END OF PROGRAM REGION>,-
                                     016E   112 		  <END OF CONTROL REGION>,-
                                     016E   113 		  <MIDDLE OF PROGRAM REGION>,-
                                     016E   114 		  <MIDDLE OF CONTROL REGION>,-
                                     016E   115
00000003 00000002 00000001 00000000  01F7   116 		    .LONG	0,1,2,3
                                     0207   117 ;
                                     0207   118 	COND	5,NOTARG,<PAGE COUNT>,-
                                     0207   119 		  <ONE PAGE>,-
                                     0207   120 		  <SMALL COUNT>,-
                                     0207   121 		  <LARGE COUNT>,-
                                     0207   122
                           00000001  0240   123 		    .LONG	1
                           00000005  0244   124 		    .LONG	5
                           00000019  0248   125 		    .LONG	25
                                     024C   126 ;
                                 00000000   127 	.PSECT	SATSSS72,RD,WRT,EXE
SATSSS72        SATS SYSTEM SERVICE TESTS  $CRETVA (SUCC S.C.)   22-AUG-1978 04:16:05   VAX-11 MACRO X0.3-11               Page   6
1.0             TM_SETUP, TM_CLEANUP                                                                                             (1)

                                     0000   129 	.SBTTL	TM_SETUP, TM_CLEANUP
                                     0000   130 ;++
                                     0000   131 ; FUNCTIONAL DESCRIPTION:
                                     0000   132 ;
                                     0000   133 ;		TM_SETUP AND TM_CLEANUP ARE CALLED TO PERFORM
                                     0000   134 ; REQUIRED HOUSEKEEPING AT THE BEGINNING AND END, RESPECTIVELY, OF
                                     0000   135 ; TEST MODULE EXECUTION.
                                     0000   136 ;
                                     0000   137 ; CALLING SEQUENCE:
                                     0000   138 ;
                                     0000   139 ;	BSBW TM_SETUP   BSBW TM_CLEANUP
                                     0000   140 ;
                                     0000   141 ; INPUT PARAMETERS:
                                     0000   142 ;
                                     0000   143 ;	NONE
                                     0000   144 ;
                                     0000   145 ; IMPLICIT INPUTS:
                                     0000   146 ;
                                     0000   147 ;	NONE
                                     0000   148 ;
                                     0000   149 ; OUTPUT PARAMETERS:
                                     0000   150 ;
                                     0000   151 ;	NONE
                                     0000   152 ;
                                     0000   153 ; IMPLICIT OUTPUTS:
                                     0000   154 ;
                                     0000   155 ;	TM_SETUP:  COND TABLE INDEX REGISTERS (R2,3,4,5,6) CLEARED;
                                     0000   156 ;		   ALL PRIVILEGES ACQUIRED.
                                     0000   157 ;
                                     0000   158 ; COMPLETION CODES:
                                     0000   159 ;
                                     0000   160 ;	EFLAG SET TO NON-ZERO IF ERROR ENCOUNTERED.
                                     0000   161 ;
                                     0000   162 ; SIDE EFFECTS:
                                     0000   163 ;
                                     0000   164 ;	SS_CHECK AND ERR_EXIT MACROS CAUSE PREMATURE EXIT
                                     0000   165 ;	(VIA RSB) IF ERROR ENCOUNTERED.
                                     0000   166 ;
                                     0000   167 ;--
                                     0000   168
                                     0000   169
                                     0000   170
                                     0000   171 TM_SETUP::
                          52     D4  0000   172 	CLRL	R2			; INITIALIZE
                          53     D4  0002   173 	CLRL	R3			; .. CONDITION
                          54     D4  0004   174 	CLRL	R4			; .... TABLE
                          55     D4  0006   175 	CLRL	R5			; ...... INDEX
                          56     D4  0008   176 	CLRL	R6			; ........ REGISTERS
                          FFF3'  30  000A   177 	BSBW	MOD_MSG_PRINT		; PRINT TEST MODULE BEGIN MSG
   00000000'EF   00000000'EF     DE  000D   178 	MOVAL	TEST_MOD_SUCC,TMD_ADDR	; ASSUME END MSG WILL SHOW SUCCESS
            00   00000000'8F     F0  0018   179 	INSV	#SUCCESS,#0,#3,MOD_MSG_CODE ; ADJUST STATUS CODE FOR SUCCESS
   00000000'EF            03         001F
                                     0025   180 	MODE	TO,5$,KRNL		; KERNEL MODE TO ACCESS PHD
            59   00000000'9F     D0  0048   181 	MOVL	@#CTL$GL_PHD,R9		; GET PROCESS HEADER ADDRESS
   00000000'EF            69     DE  004F   182 	MOVAL	PHD$Q_PRIVMSK(R9),PRIVMASK ; GET PRIV MASK ADDRESS
                                     0056   183 	MODE	FROM,5$	; BACK TO USER MODE
                                     0057   184 	PRIV	ADD,ALL			; GET ALL PRIVILEGES
SATSSS72        SATS SYSTEM SERVICE TESTS  $CRETVA (SUCC S.C.)   22-AUG-1978 04:16:05   VAX-11 MACRO X0.3-11               Page   7
1.0             TM_SETUP, TM_CLEANUP                                                                                             (1)

                                     0080   185 	$SETPRN_S TEST_MOD_NAME_D 	; SET PROCESS NAME
                                     008D   186 	SS_CHECK  NORMAL		; CHECK STATUS CODE RETURNED FROM SETPRN
                                 05  00BB   187 	RSB				; RETURN TO MAIN ROUTINE
                                     00BC   188 TM_CLEANUP::
                          FF41'  30  00BC   189 	BSBW	MOD_MSG_PRINT		; PRINT TEST MODULE END MSG
                                 05  00BF   190 	RSB				; RETURN TO MAIN ROUTINE
SATSSS72        SATS SYSTEM SERVICE TESTS  $CRETVA (SUCC S.C.)   22-AUG-1978 04:16:05   VAX-11 MACRO X0.3-11               Page   8
1.0             CONDITION SUBROUTINES - SETUP AND CLEANUP                                                                        (1)

                                     00C0   192 	.SBTTL	CONDITION SUBROUTINES - SETUP AND CLEANUP
                                     00C0   193 ;++
                                     00C0   194 ; FUNCTIONAL DESCRIPTION:
                                     00C0   195 ;
                                     00C0   196 ;		CONDX AND CONDX_CLEANUP ARE SUBROUTINES WHICH ARE EXECUTED
                                     00C0   197 ; BEFORE AND AFTER THE VERIFY SUBROUTINE, RESPECTIVELY, WHENEVER A NEW
                                     00C0   198 ; CONDITION X VALUE IS SELECTED (SEE FUNCTIONAL DESCRIPTION OF SUCCOMMON
                                     00C0   199 ; ROUTINE IN SUCCOMMON.MAR). ANY SETUP FUNCTION PARTICULAR TO THE
                                     00C0   200 ; CONDITION X TABLE IS INCLUDED IN THE CONDX SUBROUTINE AND CLEANED
                                     00C0   201 ; UP, IF NECESSARY, IN THE CONDX_CLEANUP SUBROUTINE. THIS INCLUDES,
                                     00C0   202 ; ESPECIALLY, CODE TO DETECT CONFLICTS AMONG CURRENT ENTRIES IN TWO
                                     00C0   203 ; OR MORE CONDITION TABLES. IF A CONFLICT IS DETECTED, A NON-ZERO
                                     00C0   204 ; VALUE IS STORED INTO CONFLICT, WHICH CAUSES THE CALLING ROUTINE
                                     00C0   205 ; (SUCCOMMON) TO SKIP THE CURRENT ENTRY IN THE CONDITION X TABLE.
                                     00C0   206 ;
                                     00C0   207 ; CALLING SEQUENCE:
                                     00C0   208 ;
                                     00C0   209 ;	BSBW CONDX   BSBW CONDX_CLEANUP
                                     00C0   210 ;	  WHERE X = 1,2,3,4,5
                                     00C0   211 ;
                                     00C0   212 ; INPUT PARAMETERS:
                                     00C0   213 ;
                                     00C0   214 ;	CONFLICT = 0
                                     00C0   215 ;
                                     00C0   216 ; IMPLICIT INPUTS:
                                     00C0   217 ;
                                     00C0   218 ;	R2,3,4,5,6 CONTAIN CURRENT CONDITION TABLE INDEX VALUES
                                     00C0   219 ;	  FOR COND TABLES 1,2,3,4,5, RESPECTIVELY.
                                     00C0   220 ;
                                     00C0   221 ; OUTPUT PARAMETERS:
                                     00C0   222 ;
                                     00C0   223 ;	CONFLICT SET TO NON-ZERO IF COND TABLE CONFLICT DETECTED.
                                     00C0   224 ;
                                     00C0   225 ; IMPLICIT OUTPUTS:
                                     00C0   226 ;
                                     00C0   227 ;	R2,3,4,5,6 PRESERVED
                                     00C0   228 ;
                                     00C0   229 ; COMPLETION CODES:
                                     00C0   230 ;
                                     00C0   231 ;	NONE
                                     00C0   232 ;
                                     00C0   233 ; SIDE EFFECTS:
                                     00C0   234 ;
                                     00C0   235 ;	NONE
                                     00C0   236 ;
                                     00C0   237 ;--
                                     00C0   238
                                     00C0   239
                                     00C0   240
                                     00C0   241 COND1::
                                 05  00C0   242 	RSB				; RETURN TO MAIN ROUTINE
                                     00C1   243 COND1_CLEANUP::
                                 05  00C1   244 	RSB				; RETURN TO MAIN ROUTINE
                                     00C2   245 COND2::
                                 05  00C2   246 	RSB				; RETURN TO MAIN ROUTINE
                                     00C3   247 COND2_CLEANUP::
                                 05  00C3   248 	RSB				; RETURN TO MAIN ROUTINE
SATSSS72        SATS SYSTEM SERVICE TESTS  $CRETVA (SUCC S.C.)   22-AUG-1978 04:16:05   VAX-11 MACRO X0.3-11               Page   9
1.0             CONDITION SUBROUTINES - SETUP AND CLEANUP                                                                        (1)

                                     00C4   249 COND3::
                                 05  00C4   250 	RSB				; RETURN TO MAIN ROUTINE
                                     00C5   251 COND3_CLEANUP::
                                 05  00C5   252 	RSB				; RETURN TO MAIN ROUTINE
                                     00C6   253 COND4::
                                 05  00C6   254 	RSB				; RETURN TO MAIN ROUTINE
                                     00C7   255 COND4_CLEANUP::
                                 05  00C7   256 	RSB				; RETURN TO MAIN ROUTINE
                                     00C8   257 COND5::
                                 05  00C8   258 	RSB				; RETURN TO MAIN ROUTINE
                                     00C9   259 COND5_CLEANUP::
                                 05  00C9   260 	RSB				; RETURN TO MAIN ROUTINE
SATSSS72        SATS SYSTEM SERVICE TESTS  $CRETVA (SUCC S.C.)   22-AUG-1978 04:16:05   VAX-11 MACRO X0.3-11               Page  10
1.0             FORM_CONDS                                                                                                       (1)

                                     00CA   262 	.SBTTL	FORM_CONDS
                                     00CA   263 ;++
                                     00CA   264 ; FUNCTIONAL DESCRIPTION:
                                     00CA   265 ;
                                     00CA   266 ; 		FORM_CONDS FORMATS AND PRINTS INFORMATION ABOUT
                                     00CA   267 ;  THE CURRENT ELEMENT IN EACH OF THE CONDITION TABLES.
                                     00CA   268 ;
                                     00CA   269 ; CALLING SEQUENCE:
                                     00CA   270 ;
                                     00CA   271 ;	BSBW FORM_CONDS
                                     00CA   272 ;
                                     00CA   273 ; INPUT PARAMETERS:
                                     00CA   274 ;
                                     00CA   275 ;	NONE
                                     00CA   276 ;
                                     00CA   277 ; IMPLICIT INPUTS:
                                     00CA   278 ;
                                     00CA   279 ;	R2,3,4,5,6 CONTAIN CURRENT CONDITION TABLE INDEX VALUES
                                     00CA   280 ;	  FOR COND TABLES 1,2,3,4,5, RESPECTIVELY.
                                     00CA   281 ;	FOR X = 1,2,3,4,5 :
                                     00CA   282 ;		CONDX_T - TITLE TEXT FOR CONDX TABLE
                                     00CA   283 ;		CONDX_TAB - ELEMENT TEXT FOR CONDX TABLE
                                     00CA   284 ;		CONDX_C - CONTEXT OF THE CONDX TABLE
                                     00CA   285 ;		CONDX_E - DATA ELEMENTS OF THE CONDX TABLE
                                     00CA   286 ;
                                     00CA   287 ; OUTPUT PARAMETERS:
                                     00CA   288 ;
                                     00CA   289 ;	NONE
                                     00CA   290 ;
                                     00CA   291 ; IMPLICIT OUTPUTS:
                                     00CA   292 ;
                                     00CA   293 ;	NONE
                                     00CA   294 ;
                                     00CA   295 ; COMPLETION CODES:
                                     00CA   296 ;
                                     00CA   297 ;	NONE
                                     00CA   298 ;
                                     00CA   299 ; SIDE EFFECTS:
                                     00CA   300 ;
                                     00CA   301 ;	NONE
                                     00CA   302 ;
                                     00CA   303 ;--
                                     00CA   304
                                     00CA   305
                                     00CA   306
                                     00CA   307 FORM_CONDS::
                                     00CA   308 	$FAO_S	MSG1_INP_CTL,FAO_LEN,FAO_DESC,TESTNUM
                                     00E9   309 					; FORMAT CONDITIONS HEADER MSG
                          FF14'  30  00E9   310 	BSBW	OUTPUT_MSG		; ... AND PRINT IT
            14            00     91  00EC   311 	CMPB	#COND1_C,#NULL		; IS CONDITION 1 NULL ?
                          03     12  00EF   312 	BNEQU	10$			; NO -- CONTINUE
                          00CB   31  00F1   313 	BRW	FORM_CONDSX		; YES -- SUBROUTINE IS FINISHED
                                     00F4   314 10$:
   00000000'EF   00000039'EF     DE  00F4   315 	MOVAL	COND1_T,MSG_A		; SAVE ADDRESS OF CONDITION 1 TITLE FOR FAO
   00000000'EF   0000005E'EF42   D0  00FF   316 	MOVL	COND1_TAB[R2],MSG_B 	; SAVE ADDR OF COND 1 CURR TEXT ELT FOR FAO
   00000000'EF            00     90  010B   317 	MOVB	#COND1_C,MSG_CTXT 	; SAVE CONDITION 1 CONTEXT FOR FAO
                                     0112   318 	MOV_VAL	COND1_C,COND1_E[R2],MSG_DATA1 ; GIVE COND 1 DATA VALUE TO FAO
SATSSS72        SATS SYSTEM SERVICE TESTS  $CRETVA (SUCC S.C.)   22-AUG-1978 04:16:05   VAX-11 MACRO X0.3-11               Page  11
1.0             FORM_CONDS                                                                                                       (1)

                          FEEB'  30  0112   319 	BSBW	WRITE_MSG2		; FORMAT AND WRITE CONDITION 1 MSG
            14            00     91  0115   320 	CMPB	#COND2_C,#NULL		; IS CONDITION 2 NULL ?
                          03     12  0118   321 	BNEQU	20$			; NO -- CONTINUE
                          00A2   31  011A   322 	BRW	FORM_CONDSX		; YES -- SUBROUTINE IS FINISHED
                                     011D   323 20$:
   00000000'EF   000000BC'EF     DE  011D   324 	MOVAL	COND2_T,MSG_A		; SAVE ADDRESS OF CONDITION 2 TITLE FOR FAO
   00000000'EF   000000D4'EF43   D0  0128   325 	MOVL	COND2_TAB[R3],MSG_B 	; SAVE ADDR OF COND 2 CURR TEXT ELT FOR FAO
   00000000'EF            00     90  0134   326 	MOVB	#COND2_C,MSG_CTXT 	; SAVE CONDITION 2 CONTEXT FOR FAO
                                     013B   327 	MOV_VAL	COND2_C,COND2_E[R3],MSG_DATA1 ; GIVE COND 2 DATA VALUE TO FAO
                          FEC2'  30  013B   328 	BSBW	WRITE_MSG2		; FORMAT AND WRITE CONDITION 2 MSG
            14            04     91  013E   329 	CMPB	#COND3_C,#NULL		; IS CONDITION 3 NULL ?
                          03     12  0141   330 	BNEQU	30$			; NO -- CONTINUE
                          0079   31  0143   331 	BRW	FORM_CONDSX		; YES -- SUBROUTINE IS FINISHED
                                     0146   332 30$:
   00000000'EF   0000012F'EF     DE  0146   333 	MOVAL	COND3_T,MSG_A		; SAVE ADDRESS OF CONDITION 3 TITLE FOR FAO
   00000000'EF   00000137'EF44   D0  0151   334 	MOVL	COND3_TAB[R4],MSG_B 	; SAVE ADDR OF COND 3 CURR TEXT ELT FOR FAO
   00000000'EF            04     90  015D   335 	MOVB	#COND3_C,MSG_CTXT 	; SAVE CONDITION 3 CONTEXT FOR FAO
                                     0164   336 	MOV_VAL	COND3_C,COND3_E[R4],MSG_DATA1 ; GIVE COND 3 DATA VALUE TO FAO
                          FE8D'  30  0170   337 	BSBW	WRITE_MSG2		; FORMAT AND WRITE CONDITION 3 MSG
            14            00     91  0173   338 	CMPB	#COND4_C,#NULL		; IS CONDITION 4 NULL ?
                          47     13  0176   339 	BEQLU	FORM_CONDSX		; YES -- SUBROUTINE IS FINISHED
   00000000'EF   0000016E'EF     DE  0178   340 	MOVAL	COND4_T,MSG_A		; SAVE ADDRESS OF CONDITION 4 TITLE FOR FAO
   00000000'EF   00000189'EF45   D0  0183   341 	MOVL	COND4_TAB[R5],MSG_B 	; SAVE ADDR OF COND 4 CURR TEXT ELT FOR FAO
   00000000'EF            00     90  018F   342 	MOVB	#COND4_C,MSG_CTXT 	; SAVE CONDITION 4 CONTEXT FOR FAO
                                     0196   343 	MOV_VAL	COND4_C,COND4_E[R5],MSG_DATA1 ; GIVE COND 4 DATA VALUE TO FAO
                          FE67'  30  0196   344 	BSBW	WRITE_MSG2		; FORMAT AND WRITE CONDITION 4 MSG
            14            00     91  0199   345 	CMPB	#COND5_C,#NULL		; IS CONDITION 5 NULL ?
                          21     13  019C   346 	BEQLU	FORM_CONDSX		; YES -- SUBROUTINE IS FINISHED
   00000000'EF   00000207'EF     DE  019E   347 	MOVAL	COND5_T,MSG_A		; SAVE ADDRESS OF CONDITION 5 TITLE FOR FAO
   00000000'EF   00000213'EF46   D0  01A9   348 	MOVL	COND5_TAB[R6],MSG_B 	; SAVE ADDR OF COND 5 CURR TEXT ELT FOR FAO
   00000000'EF            00     90  01B5   349 	MOVB	#COND5_C,MSG_CTXT 	; SAVE CONDITION 5 CONTEXT FOR FAO
                                     01BC   350 	MOV_VAL	COND5_C,COND5_E[R6],MSG_DATA1 ; GIVE COND 5 DATA VALUE TO FAO
                          FE41'  30  01BC   351 	BSBW	WRITE_MSG2		; FORMAT AND WRITE CONDITION 5 MSG
                                     01BF   352 FORM_CONDSX:
                                 05  01BF   353 	RSB				; RETURN TO CALLER
SATSSS72        SATS SYSTEM SERVICE TESTS  $CRETVA (SUCC S.C.)   22-AUG-1978 04:16:05   VAX-11 MACRO X0.3-11               Page  12
1.0             VERIFY                                                                                                           (1)

                                     01C0   355 	.SBTTL	VERIFY
                                     01C0   356 ;++
                                     01C0   357 ; FUNCTIONAL DESCRIPTION:
                                     01C0   358 ;
                                     01C0   359 ;		VERIFY IS CALLED ONCE FOR EACH COMBINATION OF CONDITION
                                     01C0   360 ; TABLE VALUES (AS DETERMINED BY THE INDEX REGISTERS R2,3,4,5,6 FOR
                                     01C0   361 ; COND TABLES 1,2,3,4,5, RESPECTIVELY). VERIFY ESTABLISHES THE CONDITIONS
                                     01C0   362 ; SPECIFIED BY THE COND TABLES AND ISSUES THE SUBJECT SYSTEM SERVICE
                                     01C0   363 ; ($CRETVA). THEN, THE SUCCESSFUL OPERATION OF THE SERVICE IS VERIFIED
                                     01C0   364 ; BY EXAMINING THE STATUS CODE RETURNED, THE VALUES FOR RETURN ARGUMENTS
                                     01C0   365 ; AND THE FUNCTIONALITY PERFORMED. THE EXAMINATIONS TAKE THE FORM OF
                                     01C0   366 ; COMPARISONS AGAINST EXPECTED VALUES. ANY FAILING COMPARISON CAUSES AN
                                     01C0   367 ; ERR_EXIT MACRO TO BE EXECUTED (EITHER DIRECTLY, OR INDIRECTLY,
                                     01C0   368 ; THROUGH THE SS_CHECK MACRO); ERR_EXIT SETS EFLAG TO NON-ZERO,
                                     01C0   369 ; PRINTS ERROR MESSAGES AND CAUSES AN IMMEDIATE RSB TO CALLER.
                                     01C0   370 ; WHEN ERR_EXIT IS EXECUTED, FURTHER CALLS TO VERIFY ARE SUPPRESSED,
                                     01C0   371 ; AND, AFTER EXECUTING CLEANUP SUBROUTINES, THE IMAGE EXITS.
                                     01C0   372 ;
                                     01C0   373 ; CALLING SEQUENCE:
                                     01C0   374 ;
                                     01C0   375 ;	BSBW VERIFY
                                     01C0   376 ;
                                     01C0   377 ; INPUT PARAMETERS:
                                     01C0   378 ;
                                     01C0   379 ;	NONE
                                     01C0   380 ;
                                     01C0   381 ; IMPLICIT INPUTS:
                                     01C0   382 ;
                                     01C0   383 ;	R2,3,4,5,6 CONTAIN CURRENT CONDITION TABLE INDEX VALUES
                                     01C0   384 ;	  FOR COND TABLES 1,2,3,4,5, RESPECTIVELY.
                                     01C0   385 ;	FOR X = 1,2,3,4,5 :
                                     01C0   386 ;		CONDX_E - ADDRESS OF TABLE OF DATA VALUES FOR CONDX
                                     01C0   387 ;		  TABLE. IF THE CONTEXT OF TABLE X IS A SYSTEM SERVICE
                                     01C0   388 ;		  ARGUMENT, THE ARGUMENT NAME MAY BE USED AS A SYNONYM
                                     01C0   389 ;		  FOR CONDX_E.
                                     01C0   390 ;
                                     01C0   391 ; OUTPUT PARAMETERS:
                                     01C0   392 ;
                                     01C0   393 ;	NONE
                                     01C0   394 ;
                                     01C0   395 ; IMPLICIT OUTPUTS:
                                     01C0   396 ;
                                     01C0   397 ;	VERIFY HAS NO OUTPUT. SINCE ITS PURPOSE IS TO TEST FOR ERRORS,
                                     01C0   398 ;	IT MERELY RETURNS TO CALLER NORMALLY AFTER THE TESTS, PROVIDING
                                     01C0   399 ;	ALL WERE SUCCESSFUL; IF AN ERROR IS DISCOVERED, RETURN IS VIA
                                     01C0   400 ;	AN ERR_EXIT OR SS_CHECK MACRO, BOTH OF WHICH DOCUMENT DETECTED
                                     01C0   401 ;	ERRORS.
                                     01C0   402 ;
                                     01C0   403 ; COMPLETION CODES:
                                     01C0   404 ;
                                     01C0   405 ;	EFLAG SET TO NON-ZERO IF ERROR ENCOUNTERED.
                                     01C0   406 ;
                                     01C0   407 ; SIDE EFFECTS:
                                     01C0   408 ;
                                     01C0   409 ;	SS_CHECK AND ERR_EXIT MACROS CAUSE PREMATURE EXIT
                                     01C0   410 ;	(VIA RSB) IF ERROR ENCOUNTERED.
                                     01C0   411 ;
SATSSS72        SATS SYSTEM SERVICE TESTS  $CRETVA (SUCC S.C.)   22-AUG-1978 04:16:05   VAX-11 MACRO X0.3-11               Page  13
1.0             VERIFY                                                                                                           (1)

                                     01C0   412 ;--
                                     01C0   413
                                     01C0   414
                                     01C0   415
                                     01C0   416 VERIFY::
                 00000000'EF     95  01C0   417 	TSTB	CFLAG			; SHOULD CONDITIONS BE PRINTED ?
                          03     13  01C6   418 	BEQL	5$			; NO -- CONTINUE
                          FEFF   30  01C8   419 	BSBW	FORM_CONDS		; YES -- FMT & PRINT ALL CONDS FOR THIS T.C.
                                     01CB   420 5$:
                 0000002C'EF     D4  01CB   421 	CLRL	STARTADDR		; CLEAR STARTING ADDR OF AREA TO BE CREATED
   00000008'EF   00000240'EF46   D0  01D1   422 	MOVL	COND5_E[R6],PAGCNT_ERG 	; GET PAGE COUNT
   00000034'EF   00000008'EF     D0  01DD   423 	MOVL	PAGCNT_ERG,DISPL 	; ... AND REMEMBER IT FOR LATER
            01   000001F7'EF45   D1  01E8   424 	CMPL	COND4_E[R5],#1		; ARE PAGES IN MIDDLE OF A REGION ?
                          07     15  01F0   425 	BLEQ	10$			; NO -- PAGCNT_ERG IS OK
   00000008'EF            05     C0  01F2   426 	ADDL2	#5,PAGCNT_ERG		; YES -- ADD SOME PAGES
                                     01F9   427 10$:
                                     01F9   428 	MODE	TO,20$,KRNL		; GO TO KERNEL MODE TO ISSUE SERVICE
                                     021C   429 	$EXPREG_S PAGCNT_ERG,RETADR_ERG, -
                                     021C   430 		  ACMODE[R4],COND4_E[R5] ; ISSUE PRELIM S.S. TO GET SOME PAGES
                                     023D   431 	MODE	FROM,20$		; BACK TO USER MODE
                 0000000C'EF     D5  023E   432 	TSTL	RETADR_ERG		; DID EXPREG DO ANYTHING ?
                          6C     12  0244   433 	BNEQ	30$			; YES -- THAT'S FINE
   00000000'EF   00000000'8F     D0  0246   434 	MOVL	#SS$_NORMAL,EXPV 	; NO -- LOAD EXPECTED AND
   00000000'EF            50     D0  0251   435 	MOVL	R0,RECV			; ... RECEIVED VALUES, THEN EXIT
                                     0258   436 	ERR_EXIT LONG,<UNEXPECTED RETADR PAIR RETURNED BY NON-SUBJECT>,-
                                     0258   437 		      < EXPREG>
                                     02B2   438 30$:
   00000030'EF   00000010'EF     D0  02B2   439 	MOVL	RETADR_ERG+4,ENDADDR 	; GET ENDING ADDR OF AREA TO BE CREATED
   0000002C'EF   0000000C'EF     D0  02BD   440 	MOVL	RETADR_ERG,STARTADDR 	; GET TENTATIVE START ADDR OF AREA
   00000034'EF   00000008'EF     D1  02C8   441 	CMPL	PAGCNT_ERG,DISPL 	; WERE 5 PAGES ADDED TO DISPLACEMENT ?
                          1C     13  02D3   442 	BEQL	45$			; NO -- LEAVE STARTADDR ALONE
            59   00000051'EF     D0  02D5   443 	MOVL	PAGESIZE,R9		; YES -- STARTADDR TO BE MODIFIED
            03   000001F7'EF45   E9  02DC   444 	BLBC	COND4_E[R5],40$		; IF PROGRAM REGION, LEAVE R9 ALONE
            59            59     CE  02E4   445 	MNEGL	R9,R9			; PROGRAM REGION -- NEGATE R9
                                     02E7   446 40$:
            59            05     C4  02E7   447 	MULL2	#5,R9			; GET LENGTH OF 5 PAGES
   0000002C'EF            59     C0  02EA   448 	ADDL2	R9,STARTADDR		; COMPUTE START ADDR OF AREA TO BE CREATED
                                     02F1   449 45$:
                                     02F1   450 	MODE	TO,50$,KRNL		; INTO KERNEL TO DO A STORE
   00000030'FF   00000000'EF     90  0314   451 	MOVB	ONES,@ENDADDR		; INDICATE WE WERE HERE
                                     031F   452 	MODE	FROM,50$		; ... AND GET BACK TO USER
            01            52     91  0320   453 	CMPB	R2,#1			; 2ND CONDITION 1 ELEMENT ?
                          03     12  0323   454 	BNEQU	73$			; NO -- CONTINUE
                          015F   31  0325   455 	BRW	71$			; YES -- LEAVE EXPANDED REGION AS IS
                                     0328   456 73$:
            02            52     91  0328   457 	CMPB	R2,#2			; 3RD CONDITION 1 ELEMENT ?
                          03     12  032B   458 	BNEQU	74$			; NO -- CONTINUE
                          00E8   31  032D   459 	BRW	60$			; YES -- GO CONTRACT REGION
                                     0330   460 74$:
   00000014'EF   0000002C'EF     D0  0330   461 	MOVL	STARTADDR,INADR_CVA 	; MUST BE 1ST COND 1 ELEMENT
   00000018'EF   00000030'EF     D0  033B   462 	MOVL	ENDADDR,INADR_CVA+4 	; ... GET READY FOR DELTVA
                                     0346   463 	MODE	TO,69$,KRNL		; NEED KERNEL MODE
                                     0369   464 	$DELTVA_S INADR=INADR_CVA, -
                                     0369   465 		  ACMODE=ACMODE[R4]	; DELETE EXPANDED AREA
                                     037F   466 	MODE	FROM,69$		; BACK TO USER MODE
                                     0380   467 	SS_CHECK NORMAL			; DID IT GO OK ?
                                     03AE   468 	MODE	TO,70$,KRNL		; INTO KERNEL FOR A PRELIM CRETVA
SATSSS72        SATS SYSTEM SERVICE TESTS  $CRETVA (SUCC S.C.)   22-AUG-1978 04:16:05   VAX-11 MACRO X0.3-11               Page  14
1.0             VERIFY                                                                                                           (1)

                                     03D1   469 	$CRETVA_S INADR=INADR_CVA, ACMODE=ACMODE[R4]
                                     03E7   470 	MODE	FROM,70$		; USER MODE
                                     03E8   471 	SS_CHECK NORMAL			; CHECK FOR NORMAL RETURN
                          6F     11  0416   472 	BRB	71$			; ... AND GO DETERMINE ORDER OF  INADR PAIR
                                     0418   473 60$:
                                     0418   474 	MODE	TO,68$,KRNL		; KERNEL MODE FOR CNTREG
                                     043B   475 	$CNTREG_S DISPL,,ACMODE[R4],COND4_E[R5]
                                     0458   476 					; CONTRACT REQUESTED SIZE (NOT THE EXTRA 5)
                                     0458   477 	MODE	FROM,68$		; ... AND GET BACK TO USER MODE
                                     0459   478 	SS_CHECK NORMAL			; CHECK FOR NORMAL RETURN
                                     0487   479 71$:
   00000030'EF   0000002C'EF     D1  0487   480 	CMPL	STARTADDR,ENDADDR 	; FIND LARGER ADDRESS
                          10     1A  0492   481 	BGTRU	72$			; STARTADDR LARGER
            5A   0000002C'EF     D0  0494   482 	MOVL	STARTADDR,R10		; SMALLER VALUE IN R10,
            5B   00000030'EF     D0  049B   483 	MOVL	ENDADDR,R11		; ... LARGER IN R11
                          0E     11  04A2   484 	BRB	75$			; CONTINUE
                                     04A4   485 72$:
            5A   00000030'EF     D0  04A4   486 	MOVL	ENDADDR,R10		; SMALLER VALUE IN R10,
            5B   0000002C'EF     D0  04AB   487 	MOVL	STARTADDR,R11		; ... LARGER IN R11
                                     04B2   488 75$:
                          53     95  04B2   489 	TSTB	R3			; 1ST CONDITION 2 ELEMENT ?
                          10     13  04B4   490 	BEQL	77$			; YES -- LOWER ADDRESS GOES FIRST
   0000001C'EF            5B     D0  04B6   491 	MOVL	R11,INADR		; NO -- HIGHER ADDRESS GOES FIRST
   00000020'EF            5A     D0  04BD   492 	MOVL	R10,INADR+4		; .......
                          0E     11  04C4   493 	BRB	79$			; CONTINUE
                                     04C6   494 77$:
   0000001C'EF            5A     D0  04C6   495 	MOVL	R10,INADR		; LOWER ADDRESS GOES FIRST
   00000020'EF            5B     D0  04CD   496 	MOVL	R11,INADR+4		; ........
                                     04D4   497 79$:
                                     04D4   498 	MODE	TO,80$,KRNL		; INTO KERNEL MODE
                                     04F7   499 ;
                                     04F7   500 ; ****** SYSTEM SERVICE CALL WHICH IS THE SUBJECT OF THIS TEST CASE ******
                                     04F7   501 ;
                                     04F7   502 	$CRETVA_S INADR,RETADR,ACMODE[R4]
                                     0511   503 	MODE	FROM,80$		; BACK TO USER
   00000000'8F            50     D1  0512   504 	CMPL	R0,#SS$_NORMAL		; CODE RECEIVED = CODE EXPECTED ?
                          61     13  0519   505 	BEQLU	81$			; YES -- MORE VERIFYING
   00000000'EF   00000000'8F     D0  051B   506 	MOVL	#SS$_NORMAL,EXPV 	; NO -- LOAD UP EXPECTED AND
   00000000'EF            50     D0  0526   507 	MOVL	R0,RECV			; ... RECEIVED VALUES, THEN EXIT
                                     052D   508 	ERR_EXIT LONG,<INCORRECT STATUS CODE RETURNED FROM CRETVA>
                                     057C   509 81$:
   00000024'EF   0000001C'EF     D1  057C   510 	CMPL	INADR,RETADR		; DID CRETVA GIVE US THE 1ST PAGE ?
                          0F     12  0587   511 	BNEQU	82$			; NO -- ERROR
   00000028'EF   00000020'EF     D1  0589   512 	CMPL	INADR+4,RETADR+4 	; HOW ABOUT THE WHOLE RANGE ?
                          02     12  0594   513 	BNEQU	82$			; NO -- ERROR
                          67     11  0596   514 	BRB	83$			; CONTINUE
                                     0598   515 82$:
   00000000'EF   0000001C'EF     7D  0598   516 	MOVQ	INADR,EXPV		; LOAD UP EXPECTED AND
   00000000'EF   00000024'EF     7D  05A3   517 	MOVQ	RETADR,RECV		; ... RECEIVED VALUES, THEN EXIT
                                     05AE   518 	ERR_EXIT QUAD,<UNEXPECTED VALUE FROM CRETVA FOR>,-
                                     05AE   519 		      < RETADR PAIR>
                                     05FF   520 83$:
            03   0000015E'EF44   D1  05FF   521 	CMPL	ACMODE[R4],#PSL$C_USER 	; USER MODE PAGES REQUESTED ?
                          52     13  0607   522 	BEQLU	90$			; YES -- GO ON
            00   0000015E'EF44   D1  0609   523 	CMPL	ACMODE[R4],#PSL$C_KERNEL ; KERNEL MODE PAGES REQUESTED ?
                          25     13  0611   524 	BEQLU	84$			; YES -- GO CHG TO KERNEL MODE
                                     0613   525 	MODE	TO,85$,EXEC		; GET INTO EXEC MODE TO ACCESS NEW PAGES
SATSSS72        SATS SYSTEM SERVICE TESTS  $CRETVA (SUCC S.C.)   22-AUG-1978 04:16:05   VAX-11 MACRO X0.3-11               Page  15
1.0             VERIFY                                                                                                           (1)

                          23     11  0636   526 	BRB	90$			; ... AND CONTINUE
                                     0638   527 84$:
                                     0638   528 	MODE	TO,85$,KRNL		; GET INTO KERNEL MODE TO ACCESS NEW PAGES
                                     065B   529 90$:
                 00000038'EF     94  065B   530 	CLRB	NZERR			; INDICATE NO NON-ZERO ERROR
                                     0661   531 91$:
                          6A     95  0661   532 	TSTB	(R10)			; DOES THIS PAGE HAVE A ZERO BYTE ?
                          09     12  0663   533 	BNEQ	92$			; NO -- GO INDICATE ERROR
            6A   00000000'EF     90  0665   534 	MOVB	ONES,(R10)		; STORE INTO PAGE -- NO ACCVIO EXPECTED
                          1A     11  066C   535 	BRB	93$			; GO LOOP TO NEXT PAGE
                                     066E   536 92$:
   00000038'EF   00000000'EF     90  066E   537 	MOVB	ONES,NZERR		; INDICATE A NON-ZERO ERROR WAS FOUND
                 00000000'EF     94  0679   538 	CLRB	EXPV			; LOAD UP EXPECTED AND
   00000000'EF            6A     90  067F   539 	MOVB	(R10),RECV		; ... RECEIVED VALUES
                          0A     11  0686   540 	BRB	100$			; GO GET USER MODE BACK
                                     0688   541 93$:
   00000051'EF            5B     F1  0688   542 	ACBL	R11,PAGESIZE,R10,91$ 	; ADVANCE TO NEXT PAGE
            FFCF          5A         068F
                                     0692   543 100$:
            03   0000015E'EF44   D1  0692   544 	CMPL	ACMODE[R4],#PSL$C_USER 	; USER MODE PAGES ?
                          01     13  069A   545 	BEQLU	110$			; YES -- NO NEED TO CHG MODE
                                     069C   546 	MODE	FROM,85$		; GET BACK TO USER MODE
                                     069D   547 110$:
                 00000038'EF     95  069D   548 	TSTB	NZERR			; NON-ZERO ERROR FOUND ?
                          4B     13  06A3   549 	BEQL	VERIFYX			; NO -- EVERYTHING VERIFIES
                                     06A5   550 	ERR_EXIT BYTE,<A PAGE IN THE CREATED AREA IS NON-ZERO>
                                     06F0   551 VERIFYX:
                                 05  06F0   552 	RSB				; RETURN TO CALLER
SATSSS72        SATS SYSTEM SERVICE TESTS  $CRETVA (SUCC S.C.)   22-AUG-1978 04:16:05   VAX-11 MACRO X0.3-11               Page  16
1.0             VFY_CLEANUP                                                                                                      (1)

                                     06F1   554 	.SBTTL	VFY_CLEANUP
                                     06F1   555 ;++
                                     06F1   556 ; FUNCTIONAL DESCRIPTION:
                                     06F1   557 ;
                                     06F1   558 ;		VFY_CLEANUP EXECUTES SYSTEM SERVICES TO UNDO THE
                                     06F1   559 ; EFFECT OF THOSE ISSUED IN THE VERIFY SUBROUTINE. VFY_CLEANUP MUST
                                     06F1   560 ; ASSUME THAT VERIFY MAY NOT HAVE EXECUTED IN ITS ENTIRETY (IF AN
                                     06F1   561 ; ERROR IS FOUND). ALSO, VFY_CLEANUP MAY ISSUE SS_CHECK OR ERR_EXIT
                                     06F1   562 ; ONLY AFTER PERFORMING ALL OF ITS CLEANUP OPERATIONS; THIS IS REQUIRED
                                     06F1   563 ; IN THE EVENT THAT VFY_CLEANUP IS CALLED DURING ERROR PROCESSING,
                                     06F1   564 ; WHEN PERFORMING THE REQUIRED CLEANUP IS MORE IMPORTANT THAN
                                     06F1   565 ; POSSIBLY DISCOVERING A SECOND ERROR.
                                     06F1   566 ;
                                     06F1   567 ; CALLING SEQUENCE:
                                     06F1   568 ;
                                     06F1   569 ;	BSBW VFY_CLEANUP
                                     06F1   570 ;
                                     06F1   571 ; INPUT PARAMETERS:
                                     06F1   572 ;
                                     06F1   573 ;	NONE
                                     06F1   574 ;
                                     06F1   575 ; IMPLICIT INPUTS:
                                     06F1   576 ;
                                     06F1   577 ;	R2,3,4,5,6 CONTAIN CURRENT CONDITION TABLE INDEX VALUES
                                     06F1   578 ;	  FOR COND TABLES 1,2,3,4,5, RESPECTIVELY.
                                     06F1   579 ;	FOR X = 1,2,3,4,5 :
                                     06F1   580 ;		CONDX_E - ADDRESS OF TABLE OF DATA VALUES FOR CONDX
                                     06F1   581 ;		  TABLE. IF THE CONTEXT OF TABLE X IS A SYSTEM SERVICE
                                     06F1   582 ;		  ARGUMENT, THE ARGUMENT NAME MAY BE USED AS A SYNONYM
                                     06F1   583 ;		  FOR CONDX_E.
                                     06F1   584 ;
                                     06F1   585 ; OUTPUT PARAMETERS:
                                     06F1   586 ;
                                     06F1   587 ;	NONE
                                     06F1   588 ;
                                     06F1   589 ; IMPLICIT OUTPUTS:
                                     06F1   590 ;
                                     06F1   591 ;	NONE
                                     06F1   592 ;
                                     06F1   593 ; COMPLETION CODES:
                                     06F1   594 ;
                                     06F1   595 ;	EFLAG SET TO NON-ZERO IF ERROR ENCOUNTERED.
                                     06F1   596 ;
                                     06F1   597 ; SIDE EFFECTS:
                                     06F1   598 ;
                                     06F1   599 ;	SS_CHECK AND ERR_EXIT MACROS CAUSE PREMATURE EXIT
                                     06F1   600 ;	(VIA RSB) IF ERROR ENCOUNTERED.
                                     06F1   601 ;
                                     06F1   602 ;--
                                     06F1   603
                                     06F1   604
                                     06F1   605
                                     06F1   606 VFY_CLEANUP::
                 0000002C'EF     D5  06F1   607 	TSTL	STARTADDR		; DID REGION EVER GET ACQUIRED ?
                          03     12  06F7   608 	BNEQ	5$			; YES -- CONTINUE
                          00F3   31  06F9   609 	BRW	VFY_CLEANUPX		; NO -- JUST GET OUT NOW
                                     06FC   610 5$:
SATSSS72        SATS SYSTEM SERVICE TESTS  $CRETVA (SUCC S.C.)   22-AUG-1978 04:16:05   VAX-11 MACRO X0.3-11               Page  17
1.0             VFY_CLEANUP                                                                                                      (1)

   0000001C'EF   0000002C'EF     D0  06FC   611 	MOVL	STARTADDR,INADR		; GET READY FOR DELTVA
   00000020'EF   00000030'EF     D0  0707   612 	MOVL	ENDADDR,INADR+4		; ........
                                     0712   613 	MODE	TO,10$,KRNL		; KERNEL MODE FOR DELETE
                                     0735   614 	$DELTVA_S INADR=INADR, ACMODE=ACMODE[R4]
                                     074B   615 					; DELETE CREATED AREA
                                     074B   616 	MODE	FROM,10$		; BACK TO USER MODE
                                     074C   617 	SS_CHECK NORMAL			; CHECK FOR NORMAL RETURN
            01   000001F7'EF45   D1  077A   618 	CMPL	COND4_E[R5],#1		; WAS AREA IN "MIDDLE" OF A REGION ?
                          6B     1B  0782   619 	BLEQU	VFY_CLEANUPX		; NO -- TIME TO EXIT
                                     0784   620 	MODE	TO,20$,KRNL		; YES -- KERNEL MODE TO ISSUE CNTREG
                                     07A7   621 	$CNTREG_S #5,,ACMODE[R4],COND4_E[R5] ; GET RID OF THE EXTRA 5 PAGES
                                     07C0   622 	MODE	FROM,20$		; BACK TO USER MODE
                                     07C1   623 	SS_CHECK NORMAL			; CHECK FOR NORMAL RETURN
                                     07EF   624 VFY_CLEANUPX:
                                 05  07EF   625 	RSB				; RETURN TO CALLER
                                     07F0   626 	.END
SATSSS72        SATS SYSTEM SERVICE TESTS  $CRETVA (SUCC S.C.)   22-AUG-1978 04:16:05   VAX-11 MACRO X0.3-11               Page  18
SYMBOL TABLE                                                                                                                     (1)

$$$$           = 000006AF R     05   ENDADDR          00000030 R     04   PHD$L_R1         0000008C
$$$CHARS       = 00000026            EXPV             ********   X   05   PHD$L_R10        000000B0
$$$CHARS1      = 00000008            FAO_DESC         ********   X   05   PHD$L_R11        000000B4
$$$CHARS2      = 0000000B            FAO_LEN          ********   X   05   PHD$L_R12        000000B8
$$$CHARS3      = 0000000B            FORM_CONDS       000000CA RG    05   PHD$L_R13        000000BC
$$$CHARS4      = 00000000            FORM_CONDSX      000001BF R     05   PHD$L_R2         00000090
$$$CHARS5      = 00000000            GBL...         = 00000000            PHD$L_R3         00000094
$$$COND_A      = 00000002            INADR            0000001C R     04   PHD$L_R4         00000098
$$$STRINGS     = 00000001            INADR_CVA        00000014 R     04   PHD$L_R5         0000009C
$$$STRINGS2    = 00000005            LONG           = 00000004  G         PHD$L_R6         000000A0
$$T2           = 00000004            MOD_MSG_CODE     ********   X   05   PHD$L_R7         000000A4
ACMODE           0000015E R     04   MOD_MSG_PRINT    ********   X   05   PHD$L_R8         000000A8
BIT...         = 00000000            MSG1_INP_CTL     00000019 R     03   PHD$L_R9         000000AC
BYTE           = 00000001  G         MSG3_ERR_CTL     00000039 RG    03   PHD$L_REFERFLT   00000014
CFLAG            ********   X   05   MSG_A            ********   X   05   PHD$L_SSP        00000080
CHMRTN           ********   X   05   MSG_B            ********   X   05   PHD$L_USP        00000084
CHM_CONT         ********   X   05   MSG_CTXT         ********   X   05   PHD$L_WSL        00000118
COMP_SC          ********   X   05   MSG_DATA1        ********   X   05   PHD$M_DALCSTX  = 00000002
COND1            000000C0 RG    05   NOTARG         = 00000000  G         PHD$M_PFMFLG   = 00000001
COND1_C        = 00000000            NULL           = 00000014  G         PHD$M_WSPEAKCHK= 00000004
COND1_CLEANUP    000000C1 RG    05   NZERR            00000038 R     04   PHD$Q_PRIVMSK    00000000
COND1_E          000000BC R     04   ONES             ********   X   05   PHD$S_ASTLVL   = 00000008
COND1_H          0000005D RG    04   OUTPUT_MSG       ********   X   05   PHD$S_P0LR     = 00000018
COND1_T          00000039 R     04   PAGCNT_ERG       00000008 R     04   PHD$V_ASTLVL   = 00000018
COND1_TAB        0000005E R     04   PAGESIZE         00000051 R     03   PHD$V_DALCSTX  = 00000001
COND2            000000C2 RG    05   PCV              ********   X   05   PHD$V_P0LR     = 00000000
COND2_C        = 00000000            PHD$B_ASTLVL     000000CF            PHD$V_PFMFLG   = 00000000
COND2_CLEANUP    000000C3 RG    05   PHD$B_DFPFC      00000038            PHD$V_WSPEAKCHK= 00000002
COND2_E          0000012F R     04   PHD$B_PAGFIL     0000001F            PHD$W_ASTLM      00000044
COND2_H          000000D3 RG    04   PHD$B_PGTBPFC    00000039            PHD$W_BAK        00000048
COND2_T          000000BC R     04   PHD$C_LENGTH     00000118            PHD$W_DFWSCNT    0000001A
COND2_TAB        000000D4 R     04   PHD$C_PHDPAGCTX= 00000008            PHD$W_EMPTPG     000000D8
COND3            000000C4 RG    05   PHD$K_LENGTH     00000118            PHD$W_EXTDYNWS   00000076
COND3_C        = 00000004            PHD$L_BIOCNT     00000054            PHD$W_FILLM      00000060
COND3_CLEANUP    000000C5 RG    05   PHD$L_CPULIM     00000058            PHD$W_FLAGS      0000003A
COND3_E          0000015E R     04   PHD$L_CPUTIM     0000003C            PHD$W_PHVINDEX   00000046
COND3_H          00000136 RG    04   PHD$L_DIOCNT     00000050            PHD$W_PRCLM      00000042
COND3_T          0000012F R     04   PHD$L_ESP        0000007C            PHD$W_PST        00000020
COND3_TAB        00000137 R     04   PHD$L_FREP0VA    00000028            PHD$W_PSTBASMAX  0000004A
COND4            000000C6 RG    05   PHD$L_FREP1VA    00000030            PHD$W_PSTFREE    00000026
COND4_C        = 00000000            PHD$L_FREPTECNT  0000002C            PHD$W_PSTLAST    00000024
COND4_CLEANUP    000000C7 RG    05   PHD$L_KSP        00000078            PHD$W_PTCNTACT   00000070
COND4_E          000001F7 R     04   PHD$L_P0BR       000000C8            PHD$W_PTCNTLCK   0000006C
COND4_H          00000188 RG    04   PHD$L_P0LRASTL   000000CC            PHD$W_PTCNTMAX   00000072
COND4_T          0000016E R     04   PHD$L_P1BR       000000D0            PHD$W_PTCNTVAL   0000006E
COND4_TAB        00000189 R     04   PHD$L_P1LR       000000D4            PHD$W_QUANT      00000040
COND5            000000C8 RG    05   PHD$L_PAGEFLTS   0000004C            PHD$W_TQLM       00000062
COND5_C        = 00000000            PHD$L_PAGFIL     0000001C            PHD$W_WSAUTH     0000000A
COND5_CLEANUP    000000C9 RG    05   PHD$L_PC         000000C0            PHD$W_WSDYN      0000000E
COND5_E          00000240 R     04   PHD$L_PCB        00000078            PHD$W_WSFLUID    00000074
COND5_H          00000212 RG    04   PHD$L_PGFLCNT    00000034            PHD$W_WSLAST     00000012
COND5_T          00000207 R     04   PHD$L_PGFLQUOTA  0000005C            PHD$W_WSLIST     00000008
COND5_TAB        00000213 R     04   PHD$L_PSL        000000C4            PHD$W_WSLOCK     0000000C
CTL$GL_PHD       ********   X   05   PHD$L_PSTBASOFF  00000020            PHD$W_WSLX       0000004A
DESC           = 00000010  G         PHD$L_PTWSLELCK  00000064            PHD$W_WSNEXT     00000010
DISPL            00000034 R     04   PHD$L_PTWSLEVAL  00000068            PHD$W_WSQUOTA    00000018
EFLAG            ********   X   05   PHD$L_R0         00000088            PRIVMASK         00000000 R     04
SATSSS72        SATS SYSTEM SERVICE TESTS  $CRETVA (SUCC S.C.)   22-AUG-1978 04:16:05   VAX-11 MACRO X0.3-11               Page  19
SYMBOL TABLE                                                                                                                     (1)

PROCESS_ERR      ********   X   05   QUAD           = 00000008  G
PRV$V_ALLSPOOL = 00000004            RECV             ********   X   05
PRV$V_BUGCHK   = 00000017            REST_REGS        ********   X   05
PRV$V_CMEXEC   = 00000001            RETADR           00000024 R     04
PRV$V_CMKRNL   = 00000000            RETADR_ERG       0000000C R     04
PRV$V_DETACH   = 00000005            SAVE_REGS        ********   X   05
PRV$V_DIAGNOSE = 00000006            SS$_NORMAL       ********   X   05
PRV$V_EXQUOTA  = 00000013            STARTADDR        0000002C R     04
PRV$V_GROUP    = 00000008            SUCCESS          ********   X   05
PRV$V_GRPNAM   = 00000003            SYS$CMEXEC       ********   X   05
PRV$V_LOG_IO   = 00000007            SYS$CMKRNL       ********   X   05
PRV$V_MOUNT    = 00000011            SYS$CNTREG       ********   X   05
PRV$V_NETMBX   = 00000014            SYS$CRETVA       ********   X   05
PRV$V_NOACNT   = 00000009            SYS$DELTVA       ********   X   05
PRV$V_OPER     = 00000012            SYS$EXPREG       ********   X   05
PRV$V_PHY_IO   = 00000016            SYS$FAO          ********   X   05
PRV$V_PRMCEB   = 0000000A            SYS$SETPRN       ********   X   05
PRV$V_PRMGBL   = 00000018            TESTNUM          ********   X   05
PRV$V_PRMMBX   = 0000000B            TEST_MOD_NAME    00000000 RG    03
PRV$V_PSWAPM   = 0000000C            TEST_MOD_NAME_D  00000009 R     03
PRV$V_SETPRI   = 0000000D            TEST_MOD_SUCC    ********   X   05
PRV$V_SETPRV   = 0000000E            TMD_ADDR         ********   X   05
PRV$V_SYSGBL   = 00000019            TM_CLEANUP       000000BC RG    05
PRV$V_SYSNAM   = 00000002            TM_SETUP         00000000 RG    05
PRV$V_TMPMBX   = 0000000F            VERIFY           000001C0 RG    05
PRV$V_VOLPRO   = 00000015            VERIFYX          000006F0 R     05
PRV$V_WORLD    = 00000010            VFY_CLEANUP      000006F1 RG    05
PSL$C_EXEC     = 00000001            VFY_CLEANUPX     000007EF R     05
PSL$C_KERNEL   = 00000000            WORD           = 00000002  G
PSL$C_SUPER    = 00000002            WRITE_MSG2       ********   X   05
PSL$C_USER     = 00000003
PSL$M_CM       = 80000000
PSL$M_CURMOD   = 03000000
PSL$M_DV       = 00000080
PSL$M_FPD      = 08000000
PSL$M_FU       = 00000040
PSL$M_IPL      = 001F0000
PSL$M_IS       = 04000000
PSL$M_IV       = 00000020
PSL$M_PRVMOD   = 00C00000
PSL$M_SAFBITS  = 000037FF
PSL$M_TBIT     = 00000010
PSL$M_TP       = 40000000
PSL$S_CURMOD   = 00000002
PSL$S_IPL      = 00000005
PSL$S_PRVMOD   = 00000002
PSL$V_CM       = 0000001F
PSL$V_CURMOD   = 00000018
PSL$V_DV       = 00000007
PSL$V_FPD      = 0000001B
PSL$V_FU       = 00000006
PSL$V_IPL      = 00000010
PSL$V_IS       = 0000001A
PSL$V_IV       = 00000005
PSL$V_PRVMOD   = 00000016
PSL$V_TBIT     = 00000004
PSL$V_TP       = 0000001E
SATSSS72        SATS SYSTEM SERVICE TESTS  $CRETVA (SUCC S.C.)   22-AUG-1978 04:16:05   VAX-11 MACRO X0.3-11               Page  20
PROGRAM SECTION SYNOPSIS                                                                                                         (1)


PROGRAM SECTION SYNOPSIS

.  ABS  .        00000000      00     NOPIC   USR   CON   ABS   LCL NOSHR NOEXE NORD  NOWRT BYTE
. BLANK .        00000000      01     NOPIC   USR   CON   REL   LCL NOSHR   EXE   RD    WRT BYTE
$ABS$            0000011C      02     NOPIC   USR   CON   ABS   LCL NOSHR   EXE   RD    WRT BYTE
RODATA           00000055      03     NOPIC   USR   CON   REL   LCL NOSHR NOEXE   RD  NOWRT LONG
RWDATA           0000024C      04     NOPIC   USR   CON   REL   LCL NOSHR NOEXE   RD    WRT LONG
SATSSS72         000007F0      05     NOPIC   USR   CON   REL   LCL NOSHR   EXE   RD    WRT BYTE


THERE WERE NO ERRORS OR WARNINGS.
13752. BYTES LEFT IN FREE MEMORY POOL.
20. BYTES OF RECLAIMED MEMORY.
OBJ$:SATSSS72,LIS$:SATSSS72/-SP=EXECML$/ML,LIB$:SYSTST.MLB/ML,SRC$:SATSSS72
44 MLB DIR RDS - 676 GETS TO DEFINE 30 MACROS. 44 INTER. FILE WRITES.
