SATSSS60        SATS SYST SRV TESTS  TIME SERVS (SUCC S.C.)      22-AUG-1978 04:13:24   VAX-11 MACRO X0.3-11               Page   0
TABLE OF CONTENTS

   (1)      48  DECLARATIONS
   (1)     137  CONDITION TABLES
   (1)     173  TM_SETUP, TM_CLEANUP
   (1)     236  CONDITION SUBROUTINES - SETUP AND CLEANUP
   (1)     306  FORM_CONDS
   (1)     399  VERIFY
   (1)     583  VFY_CLEANUP
SATSSS60        SATS SYST SRV TESTS  TIME SERVS (SUCC S.C.)      22-AUG-1978 04:13:24   VAX-11 MACRO X0.3-11               Page   1
1.0                                                                                                                              (1)

                                     0000     1 	.TITLE	SATSSS60 SATS SYST SRV TESTS  TIME SERVS (SUCC S.C.)
                                     0000     2 	.IDENT	/1.0/
                                     0000     3
                                     0000     4 ;
                                     0000     5 ;			  COPYRIGHT (c) 1977,1978 BY
                                     0000     6 ;	      DIGITAL EQUIPMENT CORPORATION, MAYNARD, MASS.
                                     0000     7 ;
                                     0000     8 ; THIS SOFTWARE IS FURNISHED UNDER A LICENSE AND MAY BE USED AND  COPIED
                                     0000     9 ; ONLY  IN  ACCORDANCE  WITH  THE  TERMS  OF  SUCH  LICENSE AND WITH THE
                                     0000    10 ; INCLUSION OF THE ABOVE COPYRIGHT NOTICE.  THIS SOFTWARE OR  ANY  OTHER
                                     0000    11 ; COPIES  THEREOF MAY NOT BE PROVIDED OR OTHERWISE MADE AVAILABLE TO ANY
                                     0000    12 ; OTHER PERSON.  NO TITLE TO AND OWNERSHIP OF  THE  SOFTWARE  IS  HEREBY
                                     0000    13 ; TRANSFERRED.
                                     0000    14 ;
                                     0000    15 ; THE INFORMATION IN THIS SOFTWARE IS SUBJECT TO CHANGE  WITHOUT  NOTICE
                                     0000    16 ; AND  SHOULD  NOT  BE  CONSTRUED  AS  A COMMITMENT BY DIGITAL EQUIPMENT
                                     0000    17 ; CORPORATION.
                                     0000    18 ;
                                     0000    19 ; DIGITAL ASSUMES NO RESPONSIBILITY FOR THE USE OR  RELIABILITY  OF  ITS
                                     0000    20 ; SOFTWARE ON EQUIPMENT WHICH IS NOT SUPPLIED BY DIGITAL.
                                     0000    21 ;
                                     0000    22
                                     0000    23 ;++
                                     0000    24 ; FACILITY:	SYSTST (SATS SYSTEM SERVICE TESTS)
                                     0000    25 ;
                                     0000    26 ; ABSTRACT:
                                     0000    27 ;
                                     0000    28 ;		THIS MODULE CONTAINS SUBROUTINES WHICH, WHEN LINKED
                                     0000    29 ; WITH SUCCOMMON.OBJ, FORM TEST MODULE SATSSS60 TO TEST SUCCESSFUL
                                     0000    30 ; OPERATION OF THE TIME SYSTEM SERVICES. EACH SERVICE IS INVOKED
                                     0000    31 ; UNDER VARIOUS INPUT CONDITIONS WITH VARYING INPUT PARAMETERS. ONLY
                                     0000    32 ; SUCCESSFUL STATUS CODES ARE EXPECTED IN THIS TEST MODULE.  CORRECT
                                     0000    33 ; OPERATION OF THE SERVICE FOR EACH OF ITS ISSUANCES IS VERIFIED BY
                                     0000    34 ; CHECKING FOR AN SS$_NORMAL STATUS CODE, EXPECTED RETURN ARGUMENTS
                                     0000    35 ; AND EXPECTED FUNCTIONALITY PERFORMED.
                                     0000    36 ;
                                     0000    37 ; ENVIRONMENT:	USER MODE IMAGE; NEEDS CMKRNL PRIVILEGE,
                                     0000    38 ;		DYNAMICALLY ACQUIRES OTHER PRIVILEGES, AS NEEDED.
                                     0000    39 ;
                                     0000    40 ; AUTHOR: THOMAS L. CAFARELLA,		CREATION DATE: JUN, 1978
                                     0000    41 ;
                                     0000    42 ; MODIFIED BY:
                                     0000    43 ;
                                     0000    44 ;	, : VERSION
                                     0000    45 ; 01	-
                                     0000    46 ;--
SATSSS60        SATS SYST SRV TESTS  TIME SERVS (SUCC S.C.)      22-AUG-1978 04:13:24   VAX-11 MACRO X0.3-11               Page   2
1.0             DECLARATIONS                                                                                                     (1)

                                     0000    48 	.SBTTL	DECLARATIONS
                                     0000    49 ;
                                     0000    50 ; INCLUDE FILES:
                                     0000    51 ;
                                     0000    52 	$PRVDEF				; PRIVILEGE BIT DEFINITIONS
                                     0000    53 	$PHDDEF				; PROCESS HEADER OFFSETS
                                     0000    54 ;
                                     0000    55 ; MACROS:
                                     0000    56 ;
                                     0000    57 ;
                                     0000    58 ; EQUATED SYMBOLS:
                                     0000    59 ;
                           00000001  0000    60 SHORT_ASC	= 1			; INDICATOR FOR SHORT $ASCTIM OUTPUT
                           00000000  0000    61 LONG_ASC	= 0			; INDICATOR FOR LONG $ASCTIM OUTPUT
                                     0000    62 ;
                                     0000    63 ; OWN STORAGE:
                                     0000    64 ;
SATSSS60        SATS SYST SRV TESTS  TIME SERVS (SUCC S.C.)      22-AUG-1978 04:13:24   VAX-11 MACRO X0.3-11               Page   3
1.0             DECLARATIONS                                                                                                     (1)

                                 00000000    66 	.PSECT	RODATA,RD,NOWRT,NOEXE,LONG
                                     0000    67 TEST_MOD_NAME::	STRING	C,<SATSSS60>	; TEST MODULE NAME
                                     0009    68 TEST_MOD_NAME_D: STRING	I,<SATSSS60>	; TEST MODULE NAME DESCRIPTOR
                                     0019    69 MSG1_INP_CTL:	STRING	I,<  SSTIM!4ZW: CONDITIONS:>
                                     0039    70 					; FAO CTL STRING FOR MSG1 IN SUCCOMMON.MAR
                                     0039    71 MSG3_ERR_CTL::	STRING	I,< *SSTIM!4ZW: !AS>
                                     0051    72 					; FAO CTL STRING FOR MSG3 IN SUCCOMMON.MAR
                                     0051    73 ;
                                     0051    74 ; TABLE OF TIMBUF STRINGS FOR COND1 TABLE
                                     0051    75 ;
20 33 37 39 31 2D 43 45 44 2D 35 32  0051    76 C1_ELT1:	.ASCII	\25-DEC-1973 21:46:00.05\
   35 30 2E 30 30 3A 36 34 3A 31 32  005D
20 31 30 30 32 2D 47 55 41 2D 31 33  0068    77 C1_ELT2:	.ASCII	\31-AUG-2001  01:32:29.94\
34 39 2E 39 32 3A 32 33 3A 31 30 20  0074
3A 38 31 20 20 20 33 35 37 35 20 20  0080    78 C1_ELT3:	.ASCII	\  5753   18:56:01.13 \
         20 33 31 2E 31 30 3A 36 35  008C
                              2D 2D  0095    79 C1_ELT4:	.ASCII	\--\
                                     0097    80 ;
                                     0097    81 STD_TIMADR_BTM:				; TABLE OF STANDARD TIMADR ARGUMENT
                                     0097    82 					; ... VALUES OUTPUT BY $BINTIM
                                     0097    83 ;
                           A2C67D20  0097    84 		.LONG	^XA2C67D20	; LOW-ORDER LONGWORD ...  1ST COND 1 ELEMENT
                           00810CAC  009B    85 		.LONG	^X00810CAC	; HIGH-ORDER LONGWORD ... 1ST COND 1 ELEMENT
                           4347A340  009F    86 		.LONG	^X4347A340	; LOW-ORDER LONGWORD ...  2ND COND 1 ELEMENT
                           00A01545  00A3    87 		.LONG	^X00A01545	; HIGH-ORDER LONGWORD ... 2ND COND 1 ELEMENT
                           2A513360  00A7    88 		.LONG	^X2A513360	; LOW-ORDER LONGWORD ...  3RD COND 1 ELEMENT
                           FFEE56A7  00AB    89 		.LONG	^XFFEE56A7	; HIGH-ORDER LONGWORD ... 3RD COND 1 ELEMENT
                                     00AF    90 ;
                                     00AF    91 STD_TIMBUF_ATMS:			; TABLE OF STANDARD TIMBUF ARGUMENT
                                     00AF    92 					; ... VALUES OUTPUT BY $ASCTIM (SHORT)
                                     00AF    93 					; NOTE -- WILL SKIP CHECKING HUNDREDTHS
                                     00AF    94 					; ... OF A SECOND DUE TO ROUNDING ERROR
                                     00AF    95 ;
                  000000EB'0000000A  00AF    96 		.LONG	10,S_T_A_DATA+12 ; STRING DESCRIPTOR FOR 1ST COND 1 ELEMENT
                  00000101'0000000A  00B7    97 		.LONG	10,S_T_A_DATA+34 ; STRING DESCRIPTOR FOR 2ND COND 1 ELEMENT
                  00000110'0000000A  00BF    98 		.LONG	10,S_T_A_DATA+49 ; STRING DESCRIPTOR FOR 3RD COND 1 ELEMENT
                                     00C7    99 ;
                                     00C7   100 STD_TIMBUF_ATML:			; TABLE OF STANDARD TIMBUF ARGUMENT
                                     00C7   101 					; ... VALUES OUTPUT BY $ASCTIM (LONG)
                                     00C7   102 					; NOTE -- WILL SKIP CHECKING HUNDREDTHS
                                     00C7   103 					; ... OF A SECOND DUE TO ROUNDING ERROR
                                     00C7   104 ;
                  000000DF'00000016  00C7   105 		.LONG	22,S_T_A_DATA	 ; STRING DESCRIPTOR FOR 1ST COND 1 ELEMENT
                  000000F5'00000016  00CF   106 		.LONG	22,S_T_A_DATA+22 ; STRING DESCRIPTOR FOR 2ND COND 1 ELEMENT
                  0000010B'0000000F  00D7   107 		.LONG	15,S_T_A_DATA+44 ; STRING DESCRIPTOR FOR 3RD COND 1 ELEMENT
                                     00DF   108 ;
                                     00DF   109 S_T_A_DATA:				; TABLE OF STRINGS FOR THE STD_TIMBUF_ATM
                                     00DF   110 					; ... DESCRIPTORS ABOVE
                                     00DF   111 ;
20 33 37 39 31 2D 43 45 44 2D 35 32  00DF   112 		.ASCII	\25-DEC-1973 21:46:00.0\
      30 2E 30 30 3A 36 34 3A 31 32  00EB
20 31 30 30 32 2D 47 55 41 2D 31 33  00F5   113 		.ASCII	\31-AUG-2001 01:32:29.9\
      39 2E 39 32 3A 32 33 3A 31 30  0101
30 3A 36 35 3A 38 31 20 33 35 37 35  010B   114 		.ASCII	\5753 18:56:01.1\
                           31 2E 31  0117
                                     011A   115 ;
                                     011A   116 STD_TIMBUF_NMT:				; TABLE OF ADDRESSES FOR STANDARD TIMBUF
SATSSS60        SATS SYST SRV TESTS  TIME SERVS (SUCC S.C.)      22-AUG-1978 04:13:24   VAX-11 MACRO X0.3-11               Page   4
1.0             DECLARATIONS                                                                                                     (1)

                                     011A   117 					; ... ARGUMENT VALUES OUTPUT BY $NUMTIM
                                     011A   118 ;
                           00000126' 011A   119 		.ADDRESS S_T_N_DATA	; ADDRESS OF BUFFER FOR 1ST COND 1 ELEMENT
                           00000134' 011E   120 		.ADDRESS S_T_N_DATA+14	; ADDRESS OF BUFFER FOR 2ND COND 1 ELEMENT
                           00000142' 0122   121 		.ADDRESS S_T_N_DATA+28	; ADDRESS OF BUFFER FOR 3RD COND 1 ELEMENT
                                     0126   122 ;
                                     0126   123 S_T_N_DATA:				; TABLE OF 7-WORD BUFFERS POINTED TO BY
                                     0126   124 					; ... THE STD_TIMBUF_NMT ADDRESSES ABOVE
                                     0126   125 ;
 0005 0000 002E 0015 0019 000C 07B5  0126   126 		.WORD	1973,12,25,21,46,0,5
 005E 001D 0020 0001 001F 0008 07D1  0134   127 		.WORD	2001,8,31,1,32,29,94
 000D 0001 0038 0012 1679 0000 0000  0142   128 		.WORD	0,0,5753,18,56,1,13
SATSSS60        SATS SYST SRV TESTS  TIME SERVS (SUCC S.C.)      22-AUG-1978 04:13:24   VAX-11 MACRO X0.3-11               Page   5
1.0             DECLARATIONS                                                                                                     (1)

                                 00000000   130 	.PSECT	RWDATA,RD,WRT,NOEXE,LONG
                           00000008  0000   131 PRIVMASK:	.BLKQ	1		; ADDR OF PRIVILEGE MASK (IN PHD)
                           00000010  0008   132 TIMADR_BTM:	.BLKQ	1		; TIMADR ARGUMENT FOR $BINTIM
                                     0010   133 TIMBUF_ATM:	STRING	O,24		; TIMBUF ARGUMENT FOR $ASCTIM
                           00000032  0030   134 TIMLEN_ATM:	.BLKW	1		; TIMLEN ARGUMENT FOR $ASCTIM
                           00000040  0032   135 TIMBUF_NMT:	.BLKW	7		; TIMBUF ARGUMENT FOR $NUMTIM
SATSSS60        SATS SYST SRV TESTS  TIME SERVS (SUCC S.C.)      22-AUG-1978 04:13:24   VAX-11 MACRO X0.3-11               Page   6
1.0             CONDITION TABLES                                                                                                 (1)

                                     0040   137 	.SBTTL	CONDITION TABLES
                                     0040   138 ;
                                     0040   139 ;	***** CONDITION TABLES FOR TIME SYSTEM SERVICES *****
                                     0040   140 ;
                                     0040   141 	COND	1,DESC,<TIMBUF>,-
                                     0040   142 		  <DATE IN PAST (INPUT TO $BINTIM)>,-
                                     0040   143 		  <DATE IN FUTURE (INPUT TO $BINTIM)>,-
                                     0040   144 		  <DELTA TIME INTERVAL (INPUT TO $BINTIM)>,-
                                     0040   145 		  <CURRENT TIME (INPUT TO $BINTIM)>,-
                                     0040   146 		  <CURRENT TIME (FROM $GETTIM)>,-
                                     0040   147
                           00000017  0101   148 		    .LONG	23	; LENGTH OF STRING
                           00000051' 0105   149 		    .ADDRESS	C1_ELT1	; ADDRESS OF STRING
                           00000018  0109   150 		    .LONG	24	; LENGTH OF STRING
                           00000068' 010D   151 		    .ADDRESS	C1_ELT2	; ADDRESS OF STRING
                           00000015  0111   152 		    .LONG	21	; LENGTH OF STRING
                           00000080' 0115   153 		    .ADDRESS	C1_ELT3	; ADDRESS OF STRING
                           00000002  0119   154 		    .LONG	2	; LENGTH OF STRING
                           00000095' 011D   155 		    .ADDRESS	C1_ELT4	; ADDRESS OF STRING
                  00000000 00000000  0121   156 		    .LONG	0,0	; NO DESCRIPTOR FOR THIS TABLE ELEMENT
                                     0129   157 ;
                                     0129   158 	COND	2,LONG,<CVTFLG>,-
                                     0129   159 		  <SHORT FORM OF $ASCTIM OUTPUT>,-
                                     0129   160 		  <LONG FORM OF $ASCTIM OUTPUT>,-
                                     0129   161
                           00000001  0172   162 		    .LONG	SHORT_ASC ; THE SHORT AND ...
                           00000000  0176   163 		    .LONG	LONG_ASC  ; ... LONG OF IT
                                     017A   164 ;
                                     017A   165 	COND	3,NULL
                                     017B   166
                                     017B   167 	COND	4,NULL
                                     017C   168
                                     017C   169 	COND	5,NULL
                                     017D   170
                                 00000000   171 	.PSECT	SATSSS60,RD,WRT,EXE
SATSSS60        SATS SYST SRV TESTS  TIME SERVS (SUCC S.C.)      22-AUG-1978 04:13:24   VAX-11 MACRO X0.3-11               Page   7
1.0             TM_SETUP, TM_CLEANUP                                                                                             (1)

                                     0000   173 	.SBTTL	TM_SETUP, TM_CLEANUP
                                     0000   174 ;++
                                     0000   175 ; FUNCTIONAL DESCRIPTION:
                                     0000   176 ;
                                     0000   177 ;		TM_SETUP AND TM_CLEANUP ARE CALLED TO PERFORM
                                     0000   178 ; REQUIRED HOUSEKEEPING AT THE BEGINNING AND END, RESPECTIVELY, OF
                                     0000   179 ; TEST MODULE EXECUTION.
                                     0000   180 ;
                                     0000   181 ; CALLING SEQUENCE:
                                     0000   182 ;
                                     0000   183 ;	BSBW TM_SETUP   BSBW TM_CLEANUP
                                     0000   184 ;
                                     0000   185 ; INPUT PARAMETERS:
                                     0000   186 ;
                                     0000   187 ;	NONE
                                     0000   188 ;
                                     0000   189 ; IMPLICIT INPUTS:
                                     0000   190 ;
                                     0000   191 ;	NONE
                                     0000   192 ;
                                     0000   193 ; OUTPUT PARAMETERS:
                                     0000   194 ;
                                     0000   195 ;	NONE
                                     0000   196 ;
                                     0000   197 ; IMPLICIT OUTPUTS:
                                     0000   198 ;
                                     0000   199 ;	TM_SETUP:  COND TABLE INDEX REGISTERS (R2,3,4,5,6) CLEARED;
                                     0000   200 ;		   ALL PRIVILEGES ACQUIRED.
                                     0000   201 ;
                                     0000   202 ; COMPLETION CODES:
                                     0000   203 ;
                                     0000   204 ;	EFLAG SET TO NON-ZERO IF ERROR ENCOUNTERED.
                                     0000   205 ;
                                     0000   206 ; SIDE EFFECTS:
                                     0000   207 ;
                                     0000   208 ;	SS_CHECK AND ERR_EXIT MACROS CAUSE PREMATURE EXIT
                                     0000   209 ;	(VIA RSB) IF ERROR ENCOUNTERED.
                                     0000   210 ;
                                     0000   211 ;--
                                     0000   212
                                     0000   213
                                     0000   214
                                     0000   215 TM_SETUP::
                          52     D4  0000   216 	CLRL	R2			; INITIALIZE
                          53     D4  0002   217 	CLRL	R3			; .. CONDITION
                          54     D4  0004   218 	CLRL	R4			; .... TABLE
                          55     D4  0006   219 	CLRL	R5			; ...... INDEX
                          56     D4  0008   220 	CLRL	R6			; ........ REGISTERS
                          FFF3'  30  000A   221 	BSBW	MOD_MSG_PRINT		; PRINT TEST MODULE BEGIN MSG
   00000000'EF   00000000'EF     DE  000D   222 	MOVAL	TEST_MOD_SUCC,TMD_ADDR	; ASSUME END MSG WILL SHOW SUCCESS
            00   00000000'8F     F0  0018   223 	INSV	#SUCCESS,#0,#3,MOD_MSG_CODE ; ADJUST STATUS CODE FOR SUCCESS
   00000000'EF            03         001F
                                     0025   224 	MODE	TO,5$,KRNL		; KERNEL MODE TO ACCESS PHD
            59   00000000'9F     D0  0048   225 	MOVL	@#CTL$GL_PHD,R9		; GET PROCESS HEADER ADDRESS
   00000000'EF            69     DE  004F   226 	MOVAL	PHD$Q_PRIVMSK(R9),PRIVMASK ; GET PRIV MASK ADDRESS
                                     0056   227 	MODE	FROM,5$	; BACK TO USER MODE
                                     0057   228 	PRIV	ADD,ALL			; GET ALL PRIVILEGES
SATSSS60        SATS SYST SRV TESTS  TIME SERVS (SUCC S.C.)      22-AUG-1978 04:13:24   VAX-11 MACRO X0.3-11               Page   8
1.0             TM_SETUP, TM_CLEANUP                                                                                             (1)

                                     0080   229 	$SETPRN_S TEST_MOD_NAME_D 	; SET PROCESS NAME
                                     008D   230 	SS_CHECK  NORMAL		; CHECK STATUS CODE RETURNED FROM SETPRN
                                 05  00BB   231 	RSB				; RETURN TO MAIN ROUTINE
                                     00BC   232 TM_CLEANUP::
                          FF41'  30  00BC   233 	BSBW	MOD_MSG_PRINT		; PRINT TEST MODULE END MSG
                                 05  00BF   234 	RSB				; RETURN TO MAIN ROUTINE
SATSSS60        SATS SYST SRV TESTS  TIME SERVS (SUCC S.C.)      22-AUG-1978 04:13:24   VAX-11 MACRO X0.3-11               Page   9
1.0             CONDITION SUBROUTINES - SETUP AND CLEANUP                                                                        (1)

                                     00C0   236 	.SBTTL	CONDITION SUBROUTINES - SETUP AND CLEANUP
                                     00C0   237 ;++
                                     00C0   238 ; FUNCTIONAL DESCRIPTION:
                                     00C0   239 ;
                                     00C0   240 ;		CONDX AND CONDX_CLEANUP ARE SUBROUTINES WHICH ARE EXECUTED
                                     00C0   241 ; BEFORE AND AFTER THE VERIFY SUBROUTINE, RESPECTIVELY, WHENEVER A NEW
                                     00C0   242 ; CONDITION X VALUE IS SELECTED (SEE FUNCTIONAL DESCRIPTION OF SUCCOMMON
                                     00C0   243 ; ROUTINE IN SUCCOMMON.MAR). ANY SETUP FUNCTION PARTICULAR TO THE
                                     00C0   244 ; CONDITION X TABLE IS INCLUDED IN THE CONDX SUBROUTINE AND CLEANED
                                     00C0   245 ; UP, IF NECESSARY, IN THE CONDX_CLEANUP SUBROUTINE. THIS INCLUDES,
                                     00C0   246 ; ESPECIALLY, CODE TO DETECT CONFLICTS AMONG CURRENT ENTRIES IN TWO
                                     00C0   247 ; OR MORE CONDITION TABLES. IF A CONFLICT IS DETECTED, A NON-ZERO
                                     00C0   248 ; VALUE IS STORED INTO CONFLICT, WHICH CAUSES THE CALLING ROUTINE
                                     00C0   249 ; (SUCCOMMON) TO SKIP THE CURRENT ENTRY IN THE CONDITION X TABLE.
                                     00C0   250 ;
                                     00C0   251 ; CALLING SEQUENCE:
                                     00C0   252 ;
                                     00C0   253 ;	BSBW CONDX   BSBW CONDX_CLEANUP
                                     00C0   254 ;	  WHERE X = 1,2,3,4,5
                                     00C0   255 ;
                                     00C0   256 ; INPUT PARAMETERS:
                                     00C0   257 ;
                                     00C0   258 ;	CONFLICT = 0
                                     00C0   259 ;
                                     00C0   260 ; IMPLICIT INPUTS:
                                     00C0   261 ;
                                     00C0   262 ;	R2,3,4,5,6 CONTAIN CURRENT CONDITION TABLE INDEX VALUES
                                     00C0   263 ;	  FOR COND TABLES 1,2,3,4,5, RESPECTIVELY.
                                     00C0   264 ;
                                     00C0   265 ; OUTPUT PARAMETERS:
                                     00C0   266 ;
                                     00C0   267 ;	CONFLICT SET TO NON-ZERO IF COND TABLE CONFLICT DETECTED.
                                     00C0   268 ;
                                     00C0   269 ; IMPLICIT OUTPUTS:
                                     00C0   270 ;
                                     00C0   271 ;	R2,3,4,5,6 PRESERVED
                                     00C0   272 ;
                                     00C0   273 ; COMPLETION CODES:
                                     00C0   274 ;
                                     00C0   275 ;	NONE
                                     00C0   276 ;
                                     00C0   277 ; SIDE EFFECTS:
                                     00C0   278 ;
                                     00C0   279 ;	NONE
                                     00C0   280 ;
                                     00C0   281 ;--
                                     00C0   282
                                     00C0   283
                                     00C0   284
                                     00C0   285 COND1::
                                 05  00C0   286 	RSB				; RETURN TO MAIN ROUTINE
                                     00C1   287 COND1_CLEANUP::
                                 05  00C1   288 	RSB				; RETURN TO MAIN ROUTINE
                                     00C2   289 COND2::
                                 05  00C2   290 	RSB				; RETURN TO MAIN ROUTINE
                                     00C3   291 COND2_CLEANUP::
                                 05  00C3   292 	RSB				; RETURN TO MAIN ROUTINE
SATSSS60        SATS SYST SRV TESTS  TIME SERVS (SUCC S.C.)      22-AUG-1978 04:13:24   VAX-11 MACRO X0.3-11               Page  10
1.0             CONDITION SUBROUTINES - SETUP AND CLEANUP                                                                        (1)

                                     00C4   293 COND3::
                                 05  00C4   294 	RSB				; RETURN TO MAIN ROUTINE
                                     00C5   295 COND3_CLEANUP::
                                 05  00C5   296 	RSB				; RETURN TO MAIN ROUTINE
                                     00C6   297 COND4::
                                 05  00C6   298 	RSB				; RETURN TO MAIN ROUTINE
                                     00C7   299 COND4_CLEANUP::
                                 05  00C7   300 	RSB				; RETURN TO MAIN ROUTINE
                                     00C8   301 COND5::
                                 05  00C8   302 	RSB				; RETURN TO MAIN ROUTINE
                                     00C9   303 COND5_CLEANUP::
                                 05  00C9   304 	RSB				; RETURN TO MAIN ROUTINE
SATSSS60        SATS SYST SRV TESTS  TIME SERVS (SUCC S.C.)      22-AUG-1978 04:13:24   VAX-11 MACRO X0.3-11               Page  11
1.0             FORM_CONDS                                                                                                       (1)

                                     00CA   306 	.SBTTL	FORM_CONDS
                                     00CA   307 ;++
                                     00CA   308 ; FUNCTIONAL DESCRIPTION:
                                     00CA   309 ;
                                     00CA   310 ; 		FORM_CONDS FORMATS AND PRINTS INFORMATION ABOUT
                                     00CA   311 ;  THE CURRENT ELEMENT IN EACH OF THE CONDITION TABLES.
                                     00CA   312 ;
                                     00CA   313 ; CALLING SEQUENCE:
                                     00CA   314 ;
                                     00CA   315 ;	BSBW FORM_CONDS
                                     00CA   316 ;
                                     00CA   317 ; INPUT PARAMETERS:
                                     00CA   318 ;
                                     00CA   319 ;	NONE
                                     00CA   320 ;
                                     00CA   321 ; IMPLICIT INPUTS:
                                     00CA   322 ;
                                     00CA   323 ;	R2,3,4,5,6 CONTAIN CURRENT CONDITION TABLE INDEX VALUES
                                     00CA   324 ;	  FOR COND TABLES 1,2,3,4,5, RESPECTIVELY.
                                     00CA   325 ;	FOR X = 1,2,3,4,5 :
                                     00CA   326 ;		CONDX_T - TITLE TEXT FOR CONDX TABLE
                                     00CA   327 ;		CONDX_TAB - ELEMENT TEXT FOR CONDX TABLE
                                     00CA   328 ;		CONDX_C - CONTEXT OF THE CONDX TABLE
                                     00CA   329 ;		CONDX_E - DATA ELEMENTS OF THE CONDX TABLE
                                     00CA   330 ;
                                     00CA   331 ; OUTPUT PARAMETERS:
                                     00CA   332 ;
                                     00CA   333 ;	NONE
                                     00CA   334 ;
                                     00CA   335 ; IMPLICIT OUTPUTS:
                                     00CA   336 ;
                                     00CA   337 ;	NONE
                                     00CA   338 ;
                                     00CA   339 ; COMPLETION CODES:
                                     00CA   340 ;
                                     00CA   341 ;	NONE
                                     00CA   342 ;
                                     00CA   343 ; SIDE EFFECTS:
                                     00CA   344 ;
                                     00CA   345 ;	NONE
                                     00CA   346 ;
                                     00CA   347 ;--
                                     00CA   348
                                     00CA   349
                                     00CA   350
                                     00CA   351 FORM_CONDS::
                                     00CA   352 	$FAO_S	MSG1_INP_CTL,FAO_LEN,FAO_DESC,TESTNUM
                                     00E9   353 					; FORMAT CONDITIONS HEADER MSG
                          FF14'  30  00E9   354 	BSBW	OUTPUT_MSG		; ... AND PRINT IT
            14            10     91  00EC   355 	CMPB	#COND1_C,#NULL		; IS CONDITION 1 NULL ?
                          03     12  00EF   356 	BNEQU	10$			; NO -- CONTINUE
                          00D7   31  00F1   357 	BRW	FORM_CONDSX		; YES -- SUBROUTINE IS FINISHED
                                     00F4   358 10$:
   00000000'EF   00000040'EF     DE  00F4   359 	MOVAL	COND1_T,MSG_A		; SAVE ADDRESS OF CONDITION 1 TITLE FOR FAO
   00000000'EF   00000048'EF42   D0  00FF   360 	MOVL	COND1_TAB[R2],MSG_B 	; SAVE ADDR OF COND 1 CURR TEXT ELT FOR FAO
   00000000'EF            10     90  010B   361 	MOVB	#COND1_C,MSG_CTXT 	; SAVE CONDITION 1 CONTEXT FOR FAO
                                     0112   362 	MOV_VAL	COND1_C,COND1_E[R2],MSG_DATA1 ; GIVE COND 1 DATA VALUE TO FAO
SATSSS60        SATS SYST SRV TESTS  TIME SERVS (SUCC S.C.)      22-AUG-1978 04:13:24   VAX-11 MACRO X0.3-11               Page  12
1.0             FORM_CONDS                                                                                                       (1)

                          FEDF'  30  011E   363 	BSBW	WRITE_MSG2		; FORMAT AND WRITE CONDITION 1 MSG
            14            04     91  0121   364 	CMPB	#COND2_C,#NULL		; IS CONDITION 2 NULL ?
                          03     12  0124   365 	BNEQU	20$			; NO -- CONTINUE
                          00A2   31  0126   366 	BRW	FORM_CONDSX		; YES -- SUBROUTINE IS FINISHED
                                     0129   367 20$:
   00000000'EF   00000129'EF     DE  0129   368 	MOVAL	COND2_T,MSG_A		; SAVE ADDRESS OF CONDITION 2 TITLE FOR FAO
   00000000'EF   00000131'EF43   D0  0134   369 	MOVL	COND2_TAB[R3],MSG_B 	; SAVE ADDR OF COND 2 CURR TEXT ELT FOR FAO
   00000000'EF            04     90  0140   370 	MOVB	#COND2_C,MSG_CTXT 	; SAVE CONDITION 2 CONTEXT FOR FAO
                                     0147   371 	MOV_VAL	COND2_C,COND2_E[R3],MSG_DATA1 ; GIVE COND 2 DATA VALUE TO FAO
                          FEAA'  30  0153   372 	BSBW	WRITE_MSG2		; FORMAT AND WRITE CONDITION 2 MSG
            14            14     91  0156   373 	CMPB	#COND3_C,#NULL		; IS CONDITION 3 NULL ?
                          03     12  0159   374 	BNEQU	30$			; NO -- CONTINUE
                          006D   31  015B   375 	BRW	FORM_CONDSX		; YES -- SUBROUTINE IS FINISHED
                                     015E   376 30$:
   00000000'EF   0000017A'EF     DE  015E   377 	MOVAL	COND3_T,MSG_A		; SAVE ADDRESS OF CONDITION 3 TITLE FOR FAO
   00000000'EF   0000017A'EF44   D0  0169   378 	MOVL	COND3_TAB[R4],MSG_B 	; SAVE ADDR OF COND 3 CURR TEXT ELT FOR FAO
   00000000'EF            14     90  0175   379 	MOVB	#COND3_C,MSG_CTXT 	; SAVE CONDITION 3 CONTEXT FOR FAO
                                     017C   380 	MOV_VAL	COND3_C,COND3_E[R4],MSG_DATA1 ; GIVE COND 3 DATA VALUE TO FAO
                          FE81'  30  017C   381 	BSBW	WRITE_MSG2		; FORMAT AND WRITE CONDITION 3 MSG
            14            14     91  017F   382 	CMPB	#COND4_C,#NULL		; IS CONDITION 4 NULL ?
                          47     13  0182   383 	BEQLU	FORM_CONDSX		; YES -- SUBROUTINE IS FINISHED
   00000000'EF   0000017B'EF     DE  0184   384 	MOVAL	COND4_T,MSG_A		; SAVE ADDRESS OF CONDITION 4 TITLE FOR FAO
   00000000'EF   0000017B'EF45   D0  018F   385 	MOVL	COND4_TAB[R5],MSG_B 	; SAVE ADDR OF COND 4 CURR TEXT ELT FOR FAO
   00000000'EF            14     90  019B   386 	MOVB	#COND4_C,MSG_CTXT 	; SAVE CONDITION 4 CONTEXT FOR FAO
                                     01A2   387 	MOV_VAL	COND4_C,COND4_E[R5],MSG_DATA1 ; GIVE COND 4 DATA VALUE TO FAO
                          FE5B'  30  01A2   388 	BSBW	WRITE_MSG2		; FORMAT AND WRITE CONDITION 4 MSG
            14            14     91  01A5   389 	CMPB	#COND5_C,#NULL		; IS CONDITION 5 NULL ?
                          21     13  01A8   390 	BEQLU	FORM_CONDSX		; YES -- SUBROUTINE IS FINISHED
   00000000'EF   0000017C'EF     DE  01AA   391 	MOVAL	COND5_T,MSG_A		; SAVE ADDRESS OF CONDITION 5 TITLE FOR FAO
   00000000'EF   0000017C'EF46   D0  01B5   392 	MOVL	COND5_TAB[R6],MSG_B 	; SAVE ADDR OF COND 5 CURR TEXT ELT FOR FAO
   00000000'EF            14     90  01C1   393 	MOVB	#COND5_C,MSG_CTXT 	; SAVE CONDITION 5 CONTEXT FOR FAO
                                     01C8   394 	MOV_VAL	COND5_C,COND5_E[R6],MSG_DATA1 ; GIVE COND 5 DATA VALUE TO FAO
                          FE35'  30  01C8   395 	BSBW	WRITE_MSG2		; FORMAT AND WRITE CONDITION 5 MSG
                                     01CB   396 FORM_CONDSX:
                                 05  01CB   397 	RSB				; RETURN TO CALLER
SATSSS60        SATS SYST SRV TESTS  TIME SERVS (SUCC S.C.)      22-AUG-1978 04:13:24   VAX-11 MACRO X0.3-11               Page  13
1.0             VERIFY                                                                                                           (1)

                                     01CC   399 	.SBTTL	VERIFY
                                     01CC   400 ;++
                                     01CC   401 ; FUNCTIONAL DESCRIPTION:
                                     01CC   402 ;
                                     01CC   403 ;		VERIFY IS CALLED ONCE FOR EACH COMBINATION OF CONDITION
                                     01CC   404 ; TABLE VALUES (AS DETERMINED BY THE INDEX REGISTERS R2,3,4,5,6 FOR
                                     01CC   405 ; COND TABLES 1,2,3,4,5, RESPECTIVELY). VERIFY ESTABLISHES THE CONDITIONS
                                     01CC   406 ; SPECIFIED BY THE COND TABLES AND ISSUES THE SUBJECT SYSTEM SERVICE.
                                     01CC   407 ;  THEN, THE SUCCESSFUL OPERATION OF THE SERVICE IS VERIFIED
                                     01CC   408 ; BY EXAMINING THE STATUS CODE RETURNED, THE VALUES FOR RETURN ARGUMENTS
                                     01CC   409 ; AND THE FUNCTIONALITY PERFORMED. THE EXAMINATIONS TAKE THE FORM OF
                                     01CC   410 ; COMPARISONS AGAINST EXPECTED VALUES. ANY FAILING COMPARISON CAUSES AN
                                     01CC   411 ; ERR_EXIT MACRO TO BE EXECUTED (EITHER DIRECTLY, OR INDIRECTLY,
                                     01CC   412 ; THROUGH THE SS_CHECK MACRO); ERR_EXIT SETS EFLAG TO NON-ZERO,
                                     01CC   413 ; PRINTS ERROR MESSAGES AND CAUSES AN IMMEDIATE RSB TO CALLER.
                                     01CC   414 ; WHEN ERR_EXIT IS EXECUTED, FURTHER CALLS TO VERIFY ARE SUPPRESSED,
                                     01CC   415 ; AND, AFTER EXECUTING CLEANUP SUBROUTINES, THE IMAGE EXITS.
                                     01CC   416 ;
                                     01CC   417 ; CALLING SEQUENCE:
                                     01CC   418 ;
                                     01CC   419 ;	BSBW VERIFY
                                     01CC   420 ;
                                     01CC   421 ; INPUT PARAMETERS:
                                     01CC   422 ;
                                     01CC   423 ;	NONE
                                     01CC   424 ;
                                     01CC   425 ; IMPLICIT INPUTS:
                                     01CC   426 ;
                                     01CC   427 ;	R2,3,4,5,6 CONTAIN CURRENT CONDITION TABLE INDEX VALUES
                                     01CC   428 ;	  FOR COND TABLES 1,2,3,4,5, RESPECTIVELY.
                                     01CC   429 ;	FOR X = 1,2,3,4,5 :
                                     01CC   430 ;		CONDX_E - ADDRESS OF TABLE OF DATA VALUES FOR CONDX
                                     01CC   431 ;		  TABLE. IF THE CONTEXT OF TABLE X IS A SYSTEM SERVICE
                                     01CC   432 ;		  ARGUMENT, THE ARGUMENT NAME MAY BE USED AS A SYNONYM
                                     01CC   433 ;		  FOR CONDX_E.
                                     01CC   434 ;
                                     01CC   435 ; OUTPUT PARAMETERS:
                                     01CC   436 ;
                                     01CC   437 ;	NONE
                                     01CC   438 ;
                                     01CC   439 ; IMPLICIT OUTPUTS:
                                     01CC   440 ;
                                     01CC   441 ;	VERIFY HAS NO OUTPUT. SINCE ITS PURPOSE IS TO TEST FOR ERRORS,
                                     01CC   442 ;	IT MERELY RETURNS TO CALLER NORMALLY AFTER THE TESTS, PROVIDING
                                     01CC   443 ;	ALL WERE SUCCESSFUL; IF AN ERROR IS DISCOVERED, RETURN IS VIA
                                     01CC   444 ;	AN ERR_EXIT OR SS_CHECK MACRO, BOTH OF WHICH DOCUMENT DETECTED
                                     01CC   445 ;	ERRORS.
                                     01CC   446 ;
                                     01CC   447 ; COMPLETION CODES:
                                     01CC   448 ;
                                     01CC   449 ;	EFLAG SET TO NON-ZERO IF ERROR ENCOUNTERED.
                                     01CC   450 ;
                                     01CC   451 ; SIDE EFFECTS:
                                     01CC   452 ;
                                     01CC   453 ;	SS_CHECK AND ERR_EXIT MACROS CAUSE PREMATURE EXIT
                                     01CC   454 ;	(VIA RSB) IF ERROR ENCOUNTERED.
                                     01CC   455 ;
SATSSS60        SATS SYST SRV TESTS  TIME SERVS (SUCC S.C.)      22-AUG-1978 04:13:24   VAX-11 MACRO X0.3-11               Page  14
1.0             VERIFY                                                                                                           (1)

                                     01CC   456 ;--
                                     01CC   457
                                     01CC   458
                                     01CC   459
                                     01CC   460 VERIFY::
                 00000000'EF     95  01CC   461 	TSTB	CFLAG			; SHOULD CONDITIONS BE PRINTED ?
                          03     13  01D2   462 	BEQL	5$			; NO -- CONTINUE
                          FEF3   30  01D4   463 	BSBW	FORM_CONDS		; YES -- FMT & PRINT ALL CONDS FOR THIS T.C.
                                     01D7   464 5$:
            04            52     D1  01D7   465 	CMPL	R2,#4			; 5TH COND 1 ELEMENT ?
                          03     13  01DA   466 	BEQL	8$			; YES -- ISSUE $GETTIM INSTEAD OF $BINTIM
                          007A   31  01DC   467 	BRW	15$			; NO -- GO ISSUE $BINTIM
                                     01DF   468 8$:
                                     01DF   469 ;
                                     01DF   470 ; ****** SYSTEM SERVICE CALL WHICH IS THE SUBJECT OF THIS TEST CASE ******
                                     01DF   471 ;
                                     01DF   472 	$GETTIM_S TIMADR=TIMADR_BTM
   00000000'8F            50     D1  01EC   473 	CMPL	R0,#SS$_NORMAL		; CODE RECEIVED = CODE EXPECTED ?
                          03     12  01F3   474 	BNEQU	12$			; NO -- PROCESS ERROR
                          016E   31  01F5   475 	BRW	30$			; YES -- CONTINUE WITH $ASCTIM
                                     01F8   476 12$:
   00000000'EF   00000000'8F     D0  01F8   477 	MOVL	#SS$_NORMAL,EXPV 	; NO -- LOAD UP EXPECTED AND ...
   00000000'EF            50     D0  0203   478 	MOVL	R0,RECV			; ... RECEIVED VALUES, THEN EXIT
                                     020A   479 	ERR_EXIT LONG,<INCORRECT STATUS CODE RETURNED FROM GETTIM>
                                     0259   480 15$:
                                     0259   481 ;
                                     0259   482 ; ****** SYSTEM SERVICE CALL WHICH IS THE SUBJECT OF THIS TEST CASE ******
                                     0259   483 ;
                                     0259   484 	$BINTIM_S TIMBUF=TIMBUF[R2], -
                                     0259   485 		  TIMADR=TIMADR_BTM
   00000000'8F            50     D1  026D   486 	CMPL	R0,#SS$_NORMAL		; CODE RECEIVED = CODE EXPECTED ?
                          61     13  0274   487 	BEQLU	20$			; YES -- CONTINUE
   00000000'EF   00000000'8F     D0  0276   488 	MOVL	#SS$_NORMAL,EXPV 	; NO -- LOAD UP EXPECTED AND ...
   00000000'EF            50     D0  0281   489 	MOVL	R0,RECV			; ... RECEIVED VALUES, THEN EXIT
                                     0288   490 	ERR_EXIT LONG,<INCORRECT STATUS CODE RETURNED FROM BINTIM>
                                     02D7   491 20$:
            02            52     D1  02D7   492 	CMPL	R2,#2			; LOOKING AT CURRENT TIME ?
                          03     15  02DA   493 	BLEQ	25$			; NO -- COMPARE AGAINST STANDARDS
                          0087   31  02DC   494 	BRW	30$			; YES -- SKIP COMPARE
                                     02DF   495 25$:
            57   00000097'EF42   7E  02DF   496 	MOVAQ	STD_TIMADR_BTM[R2],R7	; AVOID INDEX MODE IN CMPC
                     0000'8F     BB  02E7   497 	PUSHR	#CMPC_SAV		; SAVE SOME REGS USED BY CMPC (R2 AND R3)
   00000008'EF            08     29  02EB   498 	CMPC	#8,TIMADR_BTM,(R7)	; DID $BINTIM PRODUCE EXPECTED RESULT ?
                          67         02F2
                     0000'8F     BA  02F3   499 	POPR	#CMPC_SAV		; RESTORE SOME REGS USED BY CMPC (R2 AND R3)
                          6D     13  02F7   500 	BEQLU	30$			; YES -- CONTINUE
   00000000'EF   00000097'EF42   7D  02F9   501 	MOVQ	STD_TIMADR_BTM[R2],EXPV	; NO -- LOAD UP EXPECTED AND
   00000000'EF   00000008'EF     7D  0305   502 	MOVQ	TIMADR_BTM,RECV		; ... RECEIVED VALUES, THEN EXIT
                                     0310   503 	ERR_EXIT QUAD,<UNEXPECTED VALUE FOR TIMADR ARGUMENT >, -
                                     0310   504 		      <FROM $BINTIM>
                                     0366   505 30$:
            00   00000172'EF43   D1  0366   506 	CMPL	CVTFLG[R3],#LONG_ASC	; LONG $ASCTIM OUTPUT INDICATED ?
                          11     13  036E   507 	BEQL	33$			; YES -- GO GET STD TABLE OF LONG VALUES
            59   000000AF'EF42   7E  0370   508 	MOVAQ	STD_TIMBUF_ATMS[R2],R9	; NO -- GET STD TABLE OF SHORT TIMBUF VALUES
                                     0378   509 					; (R9 USED LATER FOR CMPC INSTR)
   00000010'EF            0B     D0  0378   510 	MOVL	#11,TIMBUF_ATM		; ... AND USE A SHORT BUFFER
                          0F     11  037F   511 	BRB	37$			; GO ISSUE $ASCTIM
SATSSS60        SATS SYST SRV TESTS  TIME SERVS (SUCC S.C.)      22-AUG-1978 04:13:24   VAX-11 MACRO X0.3-11               Page  15
1.0             VERIFY                                                                                                           (1)

                                     0381   512 33$:
            59   000000C7'EF42   7E  0381   513 	MOVAQ	STD_TIMBUF_ATML[R2],R9	; GET STD TABLE OF LONG TIMBUF VALUES
   00000010'EF            18     D0  0389   514 	MOVL	#24,TIMBUF_ATM		; ... AND USE A LONG BUFFER
                                     0390   515 37$:
                                     0390   516 ;
                                     0390   517 ; ****** SYSTEM SERVICE CALL WHICH IS THE SUBJECT OF THIS TEST CASE ******
                                     0390   518 ;
                                     0390   519 	$ASCTIM_S TIMLEN=TIMLEN_ATM,	-
                                     0390   520 		  TIMBUF=TIMBUF_ATM,	-
                                     0390   521 		  TIMADR=TIMADR_BTM,	-
                                     0390   522 		  CVTFLG=CVTFLG[R3]
   00000000'8F            50     D1  03B0   523 	CMPL	R0,#SS$_NORMAL		; CODE RECEIVED = CODE EXPECTED ?
                          61     13  03B7   524 	BEQLU	40$			; YES -- CONTINUE
   00000000'EF   00000000'8F     D0  03B9   525 	MOVL	#SS$_NORMAL,EXPV 	; NO -- LOAD UP EXPECTED AND ...
   00000000'EF            50     D0  03C4   526 	MOVL	R0,RECV			; ... RECEIVED VALUES, THEN EXIT
                                     03CB   527 	ERR_EXIT LONG,<INCORRECT STATUS CODE RETURNED FROM ASCTIM>
                                     041A   528 40$:
            02            52     D1  041A   529 	CMPL	R2,#2			; LOOKING AT CURRENT TIME ?
                          03     15  041D   530 	BLEQ	45$			; NO -- COMPARE AGAINST STANDARDS
                          007B   31  041F   531 	BRW	50$			; YES -- SKIP COMPARE
                                     0422   532 45$:
                     0000'8F     BB  0422   533 	PUSHR	#CMPC_SAV		; SAVE R2 & R3 BEFORE CMPC
         04 B9            69     29  0426   534 	CMPC	(R9),@4(R9),@TIMBUF_ATM+4 ; DID $ASCTIM PRODUCE EXPECTED RESULT ?
                 00000014'FF         042A
                     0000'8F     BA  042F   535 	POPR	#CMPC_SAV		; RESTORE R2 & R3 AFTER CMPC
                          68     13  0433   536 	BEQLU	50$			; YES -- GO ON TO $NUMTIM
   00000000'EF            69     7D  0435   537 	MOVQ	(R9),EXPV		; NO -- LOAD UP EXPECTED AND
   00000000'EF   00000010'EF     7D  043C   538 	MOVQ	TIMBUF_ATM,RECV		; ... RECEIVED VALUES, THEN EXIT
                                     0447   539 	ERR_EXIT DESC,<UNEXPECTED VALUE FOR TIMBUF ARGUMENT >, -
                                     0447   540 		      <FROM $ASCTIM>
                                     049D   541 50$:
                                     049D   542 ;
                                     049D   543 ; ****** SYSTEM SERVICE CALL WHICH IS THE SUBJECT OF THIS TEST CASE ******
                                     049D   544 ;
                                     049D   545 	$NUMTIM_S TIMBUF=TIMBUF_NMT, -
                                     049D   546 		  TIMADR=TIMADR_BTM
   00000000'8F            50     D1  04B0   547 	CMPL	R0,#SS$_NORMAL		; CODE RECEIVED = CODE EXPECTED ?
                          61     13  04B7   548 	BEQLU	60$			; YES -- CONTINUE
   00000000'EF   00000000'8F     D0  04B9   549 	MOVL	#SS$_NORMAL,EXPV 	; NO -- LOAD UP EXPECTED AND ...
   00000000'EF            50     D0  04C4   550 	MOVL	R0,RECV			; ... RECEIVED VALUES, THEN EXIT
                                     04CB   551 	ERR_EXIT LONG,<INCORRECT STATUS CODE RETURNED FROM NUMTIM>
                                     051A   552 60$:
            02            52     D1  051A   553 	CMPL	R2,#2			; LOOKING AT CURRENT TIME ?
                          03     15  051D   554 	BLEQ	65$			; NO -- COMPARE AGAINST STANDARDS
                          017C   31  051F   555 	BRW	VERIFYX			; YES -- SKIP COMPARE
                                     0522   556 65$:
            57   0000011A'EF42   D0  0522   557 	MOVL	STD_TIMBUF_NMT[R2],R7	; GET READY FOR ...
            58   00000032'EF     DE  052A   558 	MOVAL	TIMBUF_NMT,R8		; ... SERIES OF COMPARES
            68            67     D1  0531   559 	CMPL	(R7),(R8)		; DO WORDS 1 & 2 OF TIMBUF MATCH STD ?
                          72     13  0534   560 	BEQLU	70$			; YES -- GO LOOK AT MORE OF TIMBUF
   00000000'EF            67     D0  0536   561 	MOVL	(R7),EXPV		; NO -- LOAD UP EXPECTED AND
   00000000'EF            68     D0  053D   562 	MOVL	(R8),RECV		; ... RECEIVED VALUES, THEN EXIT
                                     0544   563 	ERR_EXIT LONG,<UNEXPECTED VALUE FOR TIMBUF ARGUMENT >, -
                                     0544   564 		      <(WORDS 1 & 2) FROM $NUMTIM>
                                     05A8   565 70$:
         04 A8         04 A7     D1  05A8   566 	CMPL	4(R7),4(R8)		; DO WORDS 3 & 4 OF TIMBUF MATCH STD ?
                          74     13  05AD   567 	BEQLU	80$			; YES -- GO LOOK AT MORE OF TIMBUF
SATSSS60        SATS SYST SRV TESTS  TIME SERVS (SUCC S.C.)      22-AUG-1978 04:13:24   VAX-11 MACRO X0.3-11               Page  16
1.0             VERIFY                                                                                                           (1)

   00000000'EF         04 A7     D0  05AF   568 	MOVL	4(R7),EXPV		; NO -- LOAD UP EXPECTED AND
   00000000'EF         04 A8     D0  05B7   569 	MOVL	4(R8),RECV		; ... RECEIVED VALUES, THEN EXIT
                                     05BF   570 	ERR_EXIT LONG,<UNEXPECTED VALUE FOR TIMBUF ARGUMENT >, -
                                     05BF   571 		      <(WORDS 3 & 4) FROM $NUMTIM>
                                     0623   572 80$:
         08 A8         08 A7     D1  0623   573 	CMPL	8(R7),8(R8)		; DO WORDS 5 & 6 OF TIMBUF MATCH STD ?
                          74     13  0628   574 	BEQLU	VERIFYX			; YES -- DON'T LOOK AT WORD 7 ...
                                     062A   575 					; ... BECAUSE OF ROUNDING ERROR
   00000000'EF         08 A7     D0  062A   576 	MOVL	8(R7),EXPV		; NO -- LOAD UP EXPECTED AND
   00000000'EF         08 A8     D0  0632   577 	MOVL	8(R8),RECV		; ... RECEIVED VALUES, THEN EXIT
                                     063A   578 	ERR_EXIT LONG,<UNEXPECTED VALUE FOR TIMBUF ARGUMENT >, -
                                     063A   579 		      <(WORDS 5 & 6) FROM $NUMTIM>
                                     069E   580 VERIFYX:
                                 05  069E   581 	RSB				; RETURN TO CALLER
SATSSS60        SATS SYST SRV TESTS  TIME SERVS (SUCC S.C.)      22-AUG-1978 04:13:24   VAX-11 MACRO X0.3-11               Page  17
1.0             VFY_CLEANUP                                                                                                      (1)

                                     069F   583 	.SBTTL	VFY_CLEANUP
                                     069F   584 ;++
                                     069F   585 ; FUNCTIONAL DESCRIPTION:
                                     069F   586 ;
                                     069F   587 ;		VFY_CLEANUP EXECUTES SYSTEM SERVICES TO UNDO THE
                                     069F   588 ; EFFECT OF THOSE ISSUED IN THE VERIFY SUBROUTINE. VFY_CLEANUP MUST
                                     069F   589 ; ASSUME THAT VERIFY MAY NOT HAVE EXECUTED IN ITS ENTIRETY (IF AN
                                     069F   590 ; ERROR IS FOUND). ALSO, VFY_CLEANUP MAY ISSUE SS_CHECK OR ERR_EXIT
                                     069F   591 ; ONLY AFTER PERFORMING ALL OF ITS CLEANUP OPERATIONS; THIS IS REQUIRED
                                     069F   592 ; IN THE EVENT THAT VFY_CLEANUP IS CALLED DURING ERROR PROCESSING,
                                     069F   593 ; WHEN PERFORMING THE REQUIRED CLEANUP IS MORE IMPORTANT THAN
                                     069F   594 ; POSSIBLY DISCOVERING A SECOND ERROR.
                                     069F   595 ;
                                     069F   596 ; CALLING SEQUENCE:
                                     069F   597 ;
                                     069F   598 ;	BSBW VFY_CLEANUP
                                     069F   599 ;
                                     069F   600 ; INPUT PARAMETERS:
                                     069F   601 ;
                                     069F   602 ;	NONE
                                     069F   603 ;
                                     069F   604 ; IMPLICIT INPUTS:
                                     069F   605 ;
                                     069F   606 ;	R2,3,4,5,6 CONTAIN CURRENT CONDITION TABLE INDEX VALUES
                                     069F   607 ;	  FOR COND TABLES 1,2,3,4,5, RESPECTIVELY.
                                     069F   608 ;	FOR X = 1,2,3,4,5 :
                                     069F   609 ;		CONDX_E - ADDRESS OF TABLE OF DATA VALUES FOR CONDX
                                     069F   610 ;		  TABLE. IF THE CONTEXT OF TABLE X IS A SYSTEM SERVICE
                                     069F   611 ;		  ARGUMENT, THE ARGUMENT NAME MAY BE USED AS A SYNONYM
                                     069F   612 ;		  FOR CONDX_E.
                                     069F   613 ;
                                     069F   614 ; OUTPUT PARAMETERS:
                                     069F   615 ;
                                     069F   616 ;	NONE
                                     069F   617 ;
                                     069F   618 ; IMPLICIT OUTPUTS:
                                     069F   619 ;
                                     069F   620 ;	NONE
                                     069F   621 ;
                                     069F   622 ; COMPLETION CODES:
                                     069F   623 ;
                                     069F   624 ;	EFLAG SET TO NON-ZERO IF ERROR ENCOUNTERED.
                                     069F   625 ;
                                     069F   626 ; SIDE EFFECTS:
                                     069F   627 ;
                                     069F   628 ;	SS_CHECK AND ERR_EXIT MACROS CAUSE PREMATURE EXIT
                                     069F   629 ;	(VIA RSB) IF ERROR ENCOUNTERED.
                                     069F   630 ;
                                     069F   631 ;--
                                     069F   632
                                     069F   633
                                     069F   634
                                     069F   635 VFY_CLEANUP::
                                 05  069F   636 	RSB				; RETURN TO CALLER
                                     06A0   637 	.END
SATSSS60        SATS SYST SRV TESTS  TIME SERVS (SUCC S.C.)      22-AUG-1978 04:13:24   VAX-11 MACRO X0.3-11               Page  18
SYMBOL TABLE                                                                                                                     (1)

$$$$           = 00000644 R     05   EFLAG            ********   X   05   PHD$L_R13        000000BC
$$$CHARS       = 0000003F            EXPV             ********   X   05   PHD$L_R2         00000090
$$$CHARS1      = 0000001C            FAO_DESC         ********   X   05   PHD$L_R3         00000094
$$$CHARS2      = 0000001B            FAO_LEN          ********   X   05   PHD$L_R4         00000098
$$$CHARS3      = 00000000            FORM_CONDS       000000CA RG    05   PHD$L_R5         0000009C
$$$CHARS4      = 00000000            FORM_CONDSX      000001CB R     05   PHD$L_R6         000000A0
$$$CHARS5      = 00000000            GBL...         = 00000000            PHD$L_R7         000000A4
$$$COND_A      = 00000001            LONG           = 00000004  G         PHD$L_R8         000000A8
$$$STRINGS     = 00000001            LONG_ASC       = 00000000            PHD$L_R9         000000AC
$$$STRINGS2    = 00000005            MOD_MSG_CODE     ********   X   05   PHD$L_REFERFLT   00000014
$$T2           = 00000004            MOD_MSG_PRINT    ********   X   05   PHD$L_SSP        00000080
BIT...         = 00000020            MSG1_INP_CTL     00000019 R     03   PHD$L_USP        00000084
BYTE           = 00000001  G         MSG3_ERR_CTL     00000039 RG    03   PHD$L_WSL        00000118
C1_ELT1          00000051 R     03   MSG_A            ********   X   05   PHD$M_DALCSTX  = 00000002
C1_ELT2          00000068 R     03   MSG_B            ********   X   05   PHD$M_PFMFLG   = 00000001
C1_ELT3          00000080 R     03   MSG_CTXT         ********   X   05   PHD$M_WSPEAKCHK= 00000004
C1_ELT4          00000095 R     03   MSG_DATA1        ********   X   05   PHD$Q_PRIVMSK    00000000
CFLAG            ********   X   05   NOTARG         = 00000000  G         PHD$S_ASTLVL   = 00000008
CHMRTN           ********   X   05   NULL           = 00000014  G         PHD$S_P0LR     = 00000018
CHM_CONT         ********   X   05   ONES             ********   X   05   PHD$V_ASTLVL   = 00000018
CMPC_SAV         ********   X   05   OUTPUT_MSG       ********   X   05   PHD$V_DALCSTX  = 00000001
COMP_SC          ********   X   05   PCV              ********   X   05   PHD$V_P0LR     = 00000000
COND1            000000C0 RG    05   PHD$B_ASTLVL     000000CF            PHD$V_PFMFLG   = 00000000
COND1_C        = 00000010            PHD$B_DFPFC      00000038            PHD$V_WSPEAKCHK= 00000002
COND1_CLEANUP    000000C1 RG    05   PHD$B_PAGFIL     0000001F            PHD$W_ASTLM      00000044
COND1_E          00000101 R     04   PHD$B_PGTBPFC    00000039            PHD$W_BAK        00000048
COND1_H          00000047 RG    04   PHD$C_LENGTH     00000118            PHD$W_DFWSCNT    0000001A
COND1_T          00000040 R     04   PHD$C_PHDPAGCTX= 00000008            PHD$W_EMPTPG     000000D8
COND1_TAB        00000048 R     04   PHD$K_LENGTH     00000118            PHD$W_EXTDYNWS   00000076
COND2            000000C2 RG    05   PHD$L_BIOCNT     00000054            PHD$W_FILLM      00000060
COND2_C        = 00000004            PHD$L_CPULIM     00000058            PHD$W_FLAGS      0000003A
COND2_CLEANUP    000000C3 RG    05   PHD$L_CPUTIM     0000003C            PHD$W_PHVINDEX   00000046
COND2_E          00000172 R     04   PHD$L_DIOCNT     00000050            PHD$W_PRCLM      00000042
COND2_H          00000130 RG    04   PHD$L_ESP        0000007C            PHD$W_PST        00000020
COND2_T          00000129 R     04   PHD$L_FREP0VA    00000028            PHD$W_PSTBASMAX  0000004A
COND2_TAB        00000131 R     04   PHD$L_FREP1VA    00000030            PHD$W_PSTFREE    00000026
COND3            000000C4 RG    05   PHD$L_FREPTECNT  0000002C            PHD$W_PSTLAST    00000024
COND3_C        = 00000014            PHD$L_KSP        00000078            PHD$W_PTCNTACT   00000070
COND3_CLEANUP    000000C5 RG    05   PHD$L_P0BR       000000C8            PHD$W_PTCNTLCK   0000006C
COND3_H          0000017A RG    04   PHD$L_P0LRASTL   000000CC            PHD$W_PTCNTMAX   00000072
COND3_T          0000017A R     04   PHD$L_P1BR       000000D0            PHD$W_PTCNTVAL   0000006E
COND3_TAB        0000017A R     04   PHD$L_P1LR       000000D4            PHD$W_QUANT      00000040
COND4            000000C6 RG    05   PHD$L_PAGEFLTS   0000004C            PHD$W_TQLM       00000062
COND4_C        = 00000014            PHD$L_PAGFIL     0000001C            PHD$W_WSAUTH     0000000A
COND4_CLEANUP    000000C7 RG    05   PHD$L_PC         000000C0            PHD$W_WSDYN      0000000E
COND4_H          0000017B RG    04   PHD$L_PCB        00000078            PHD$W_WSFLUID    00000074
COND4_T          0000017B R     04   PHD$L_PGFLCNT    00000034            PHD$W_WSLAST     00000012
COND4_TAB        0000017B R     04   PHD$L_PGFLQUOTA  0000005C            PHD$W_WSLIST     00000008
COND5            000000C8 RG    05   PHD$L_PSL        000000C4            PHD$W_WSLOCK     0000000C
COND5_C        = 00000014            PHD$L_PSTBASOFF  00000020            PHD$W_WSLX       0000004A
COND5_CLEANUP    000000C9 RG    05   PHD$L_PTWSLELCK  00000064            PHD$W_WSNEXT     00000010
COND5_H          0000017C RG    04   PHD$L_PTWSLEVAL  00000068            PHD$W_WSQUOTA    00000018
COND5_T          0000017C R     04   PHD$L_R0         00000088            PRIVMASK         00000000 R     04
COND5_TAB        0000017C R     04   PHD$L_R1         0000008C            PROCESS_ERR      ********   X   05
CTL$GL_PHD       ********   X   05   PHD$L_R10        000000B0            PRV$V_ALLSPOOL = 00000004
CVTFLG           00000172 R     04   PHD$L_R11        000000B4            PRV$V_BUGCHK   = 00000017
DESC           = 00000010  G         PHD$L_R12        000000B8            PRV$V_CMEXEC   = 00000001
SATSSS60        SATS SYST SRV TESTS  TIME SERVS (SUCC S.C.)      22-AUG-1978 04:13:24   VAX-11 MACRO X0.3-11               Page  19
SYMBOL TABLE                                                                                                                     (1)

PRV$V_CMKRNL   = 00000000            VFY_CLEANUP      0000069F RG    05
PRV$V_DETACH   = 00000005            WORD           = 00000002  G
PRV$V_DIAGNOSE = 00000006            WRITE_MSG2       ********   X   05
PRV$V_EXQUOTA  = 00000013
PRV$V_GROUP    = 00000008
PRV$V_GRPNAM   = 00000003
PRV$V_LOG_IO   = 00000007
PRV$V_MOUNT    = 00000011
PRV$V_NETMBX   = 00000014
PRV$V_NOACNT   = 00000009
PRV$V_OPER     = 00000012
PRV$V_PHY_IO   = 00000016
PRV$V_PRMCEB   = 0000000A
PRV$V_PRMGBL   = 00000018
PRV$V_PRMMBX   = 0000000B
PRV$V_PSWAPM   = 0000000C
PRV$V_SETPRI   = 0000000D
PRV$V_SETPRV   = 0000000E
PRV$V_SYSGBL   = 00000019
PRV$V_SYSNAM   = 00000002
PRV$V_TMPMBX   = 0000000F
PRV$V_VOLPRO   = 00000015
PRV$V_WORLD    = 00000010
QUAD           = 00000008  G
RECV             ********   X   05
REST_REGS        ********   X   05
SAVE_REGS        ********   X   05
SHORT_ASC      = 00000001
SS$_NORMAL       ********   X   05
STD_TIMADR_BTM   00000097 R     03
STD_TIMBUF_ATML  000000C7 R     03
STD_TIMBUF_ATMS  000000AF R     03
STD_TIMBUF_NMT   0000011A R     03
SUCCESS          ********   X   05
SYS$ASCTIM       ********   X   05
SYS$BINTIM       ********   X   05
SYS$CMKRNL       ********   X   05
SYS$FAO          ********   X   05
SYS$GETTIM       ********   X   05
SYS$NUMTIM       ********   X   05
SYS$SETPRN       ********   X   05
S_T_A_DATA       000000DF R     03
S_T_N_DATA       00000126 R     03
TESTNUM          ********   X   05
TEST_MOD_NAME    00000000 RG    03
TEST_MOD_NAME_D  00000009 R     03
TEST_MOD_SUCC    ********   X   05
TIMADR_BTM       00000008 R     04
TIMBUF           00000101 R     04
TIMBUF_ATM       00000010 R     04
TIMBUF_NMT       00000032 R     04
TIMLEN_ATM       00000030 R     04
TMD_ADDR         ********   X   05
TM_CLEANUP       000000BC RG    05
TM_SETUP         00000000 RG    05
VERIFY           000001CC RG    05
VERIFYX          0000069E R     05
SATSSS60        SATS SYST SRV TESTS  TIME SERVS (SUCC S.C.)      22-AUG-1978 04:13:24   VAX-11 MACRO X0.3-11               Page  20
PROGRAM SECTION SYNOPSIS                                                                                                         (1)


PROGRAM SECTION SYNOPSIS

.  ABS  .        00000000      00     NOPIC   USR   CON   ABS   LCL NOSHR NOEXE NORD  NOWRT BYTE
. BLANK .        00000000      01     NOPIC   USR   CON   REL   LCL NOSHR   EXE   RD    WRT BYTE
$ABS$            0000011C      02     NOPIC   USR   CON   ABS   LCL NOSHR   EXE   RD    WRT BYTE
RODATA           00000150      03     NOPIC   USR   CON   REL   LCL NOSHR NOEXE   RD  NOWRT LONG
RWDATA           0000017D      04     NOPIC   USR   CON   REL   LCL NOSHR NOEXE   RD    WRT LONG
SATSSS60         000006A0      05     NOPIC   USR   CON   REL   LCL NOSHR   EXE   RD    WRT BYTE


THERE WERE NO ERRORS OR WARNINGS.
15372. BYTES LEFT IN FREE MEMORY POOL.
140. BYTES OF RECLAIMED MEMORY.
OBJ$:SATSSS60,LIS$:SATSSS60/-SP=EXECML$/ML,LIB$:SYSTST.MLB/ML,SRC$:SATSSS60
36 MLB DIR RDS - 621 GETS TO DEFINE 26 MACROS. 35 INTER. FILE WRITES.
