SATSUT10        SATS SYSTEM SERVICE TESTS                        22-AUG-1978 04:22:20   VAX-11 MACRO X0.3-11               Page   0
TABLE OF CONTENTS

   (1)       2  MACROS, DATA
   (1)      13  EXECUTABLE CODE
SATSUT10        SATS SYSTEM SERVICE TESTS                        22-AUG-1978 04:22:20   VAX-11 MACRO X0.3-11               Page   1
SATSUT10                                                                                                                         (1)

                                     0000     1 	.TITLE	SATSUT10	SATS SYSTEM SERVICE TESTS
                                     0000     2 	.SBTTL	MACROS, DATA
                                     0000     3 	.IDENT	/SATSUT10/
SATSUT10        SATS SYSTEM SERVICE TESTS                        22-AUG-1978 04:22:20   VAX-11 MACRO X0.3-11               Page   2
SATSUT10        MACROS, DATA                                                                                                     (1)

                                 00000000     5 	.PSECT	RODATA,RD,NOWRT,NOEXE
                                     0000     6 ; *
                                     0000     7 ; *	THIS ROUTINE RUNS IN A  PROCESS CREATED BY
                                     0000     8 ; *	A PROCESS RUNNING THE SATSSS52 IMAGE.
                                     0000     9 ; *
                                     0000    10 CLUS_NAME:	STRING	I,<SATSSS52_CLUS> ; SUBJECT CLUSTER NAME
                                     0015    11 CREATOR:	STRING	I,<SATSSS52>	; NAME OF CREATING PROCESS
SATSUT10        SATS SYSTEM SERVICE TESTS                        22-AUG-1978 04:22:20   VAX-11 MACRO X0.3-11               Page   3
SATSUT10        EXECUTABLE CODE                                                                                                  (1)

                                     0025    13 	.SBTTL	EXECUTABLE CODE
                                 00000000    14 	.PSECT	SATSUT10,RD,WRT,EXE
                               0000  0000    15 START:	.WORD	0	; ENTRY MASK
                                     0002    16 SATSUT10:
                                     0002    17 	$ASCEFC_S EFN=#64, NAME=CLUS_NAME
                                     0019    18 				; ASSOC. EVENT FLAG GROUP 2 WITH CLUSTER
                                     0019    19 	$ASCEFC_S EFN=#96, NAME=CLUS_NAME
                                     0030    20 				; ASSOC. EVENT FLAG GROUP 3 WITH CLUSTER
                                     0030    21 	$WAKE_S PRCNAM=CREATOR	; INFORM CREATING PROCESS THAT ASCEFC'S ARE DONE
                                     003F    22 	$HIBER_S		; DO NOTHING; LEAVE CLUSTER ASSOCIATED
                                     0046    23 	$DACEFC_S EFN=#64	; AWAKENED BY CREATOR; DISASSOCIATE
                                     0053    24 	$DACEFC_S EFN=#96	; ... THIS ONE TOO
                                 04  0060    25 	RET
                                     0061    26 	.END	START
SATSUT10        SATS SYSTEM SERVICE TESTS                        22-AUG-1978 04:22:20   VAX-11 MACRO X0.3-11               Page   4
SYMBOL TABLE                                                                                                                     (1)

$$$CHARS       = 00000008
$$$STRINGS     = 00000000
CLUS_NAME        00000000 R     02
CREATOR          00000015 R     02
SATSUT10         00000002 R     03
START            00000000 R     03
SYS$ASCEFC       ********   X   03
SYS$DACEFC       ********   X   03
SYS$HIBER        ********   X   03
SYS$WAKE         ********   X   03


PROGRAM SECTION SYNOPSIS

.  ABS  .        00000000      00     NOPIC   USR   CON   ABS   LCL NOSHR NOEXE NORD  NOWRT BYTE
. BLANK .        00000000      01     NOPIC   USR   CON   REL   LCL NOSHR   EXE   RD    WRT BYTE
RODATA           00000025      02     NOPIC   USR   CON   REL   LCL NOSHR NOEXE   RD  NOWRT BYTE
SATSUT10         00000061      03     NOPIC   USR   CON   REL   LCL NOSHR   EXE   RD    WRT BYTE


THERE WERE NO ERRORS OR WARNINGS.
27038. BYTES LEFT IN FREE MEMORY POOL.
OBJ$:SATSUT10,LIS$:SATSUT10/-SP=EXECML$/ML,LIB$:SYSTST.MLB/ML,SRC$:SATSUT10
12 MLB DIR RDS - 69 GETS TO DEFINE 6 MACROS. 2 INTER. FILE WRITES.
