SATSSS41        SATS SYSTEM SERVICE TESTS  $EXIT (SUCC S.C.)     22-AUG-1978 04:06:08   VAX-11 MACRO X0.3-11               Page   0
TABLE OF CONTENTS

   (1)      48  DECLARATIONS
   (1)      93  CONDITION TABLES
   (1)     118  TM_SETUP, TM_CLEANUP
   (1)     205  CONDITION SUBROUTINES - SETUP AND CLEANUP
   (1)     275  FORM_CONDS
   (1)     368  VERIFY
   (1)     452  VFY_CLEANUP
SATSSS41        SATS SYSTEM SERVICE TESTS  $EXIT (SUCC S.C.)     22-AUG-1978 04:06:08   VAX-11 MACRO X0.3-11               Page   1
1.0                                                                                                                              (1)

                                     0000     1 	.TITLE	SATSSS41 SATS SYSTEM SERVICE TESTS  $EXIT (SUCC S.C.)
                                     0000     2 	.IDENT	/1.0/
                                     0000     3
                                     0000     4 ;
                                     0000     5 ;			  COPYRIGHT (c) 1977,1978 BY
                                     0000     6 ;	      DIGITAL EQUIPMENT CORPORATION, MAYNARD, MASS.
                                     0000     7 ;
                                     0000     8 ; THIS SOFTWARE IS FURNISHED UNDER A LICENSE AND MAY BE USED AND  COPIED
                                     0000     9 ; ONLY  IN  ACCORDANCE  WITH  THE  TERMS  OF  SUCH  LICENSE AND WITH THE
                                     0000    10 ; INCLUSION OF THE ABOVE COPYRIGHT NOTICE.  THIS SOFTWARE OR  ANY  OTHER
                                     0000    11 ; COPIES  THEREOF MAY NOT BE PROVIDED OR OTHERWISE MADE AVAILABLE TO ANY
                                     0000    12 ; OTHER PERSON.  NO TITLE TO AND OWNERSHIP OF  THE  SOFTWARE  IS  HEREBY
                                     0000    13 ; TRANSFERRED.
                                     0000    14 ;
                                     0000    15 ; THE INFORMATION IN THIS SOFTWARE IS SUBJECT TO CHANGE  WITHOUT  NOTICE
                                     0000    16 ; AND  SHOULD  NOT  BE  CONSTRUED  AS  A COMMITMENT BY DIGITAL EQUIPMENT
                                     0000    17 ; CORPORATION.
                                     0000    18 ;
                                     0000    19 ; DIGITAL ASSUMES NO RESPONSIBILITY FOR THE USE OR  RELIABILITY  OF  ITS
                                     0000    20 ; SOFTWARE ON EQUIPMENT WHICH IS NOT SUPPLIED BY DIGITAL.
                                     0000    21 ;
                                     0000    22
                                     0000    23 ;++
                                     0000    24 ; FACILITY:	SYSTST (SATS SYSTEM SERVICE TESTS)
                                     0000    25 ;
                                     0000    26 ; ABSTRACT:
                                     0000    27 ;
                                     0000    28 ;		THIS MODULE CONTAINS SUBROUTINES WHICH, WHEN LINKED
                                     0000    29 ; WITH SUCCOMMON.OBJ, FORM TEST MODULE SATSSS41 TO TEST SUCCESSFUL
                                     0000    30 ; OPERATION OF THE $EXIT SYSTEM SERVICE. THE SERVICE IS INVOKED
                                     0000    31 ; UNDER VARIOUS INPUT CONDITIONS WITH VARYING INPUT PARAMETERS. ONLY
                                     0000    32 ; SUCCESSFUL STATUS CODES ARE EXPECTED IN THIS TEST MODULE.  CORRECT
                                     0000    33 ; OPERATION OF THE SERVICE FOR EACH OF ITS ISSUANCES IS VERIFIED BY
                                     0000    34 ; CHECKING FOR AN SS$_NORMAL STATUS CODE, EXPECTED RETURN ARGUMENTS
                                     0000    35 ; AND EXPECTED FUNCTIONALITY PERFORMED.
                                     0000    36 ;
                                     0000    37 ; ENVIRONMENT:	USER MODE IMAGE; NEEDS CMKRNL PRIVILEGE,
                                     0000    38 ;		DYNAMICALLY ACQUIRES OTHER PRIVILEGES, AS NEEDED.
                                     0000    39 ;
                                     0000    40 ; AUTHOR: THOMAS L. CAFARELLA,		CREATION DATE: OCT, 1977
                                     0000    41 ;
                                     0000    42 ; MODIFIED BY:
                                     0000    43 ;
                                     0000    44 ;	, : VERSION
                                     0000    45 ; 01	-
                                     0000    46 ;--
SATSSS41        SATS SYSTEM SERVICE TESTS  $EXIT (SUCC S.C.)     22-AUG-1978 04:06:08   VAX-11 MACRO X0.3-11               Page   2
1.0             DECLARATIONS                                                                                                     (1)

                                     0000    48 	.SBTTL	DECLARATIONS
                                     0000    49 ;
                                     0000    50 ; INCLUDE FILES:
                                     0000    51 ;
                                     0000    52 	$PRVDEF				; PRIVILEGE BIT DEFINITIONS
                                     0000    53 	$PHDDEF				; PROCESS HEADER OFFSETS
                                     0000    54 	$PQLDEF				; PROCESS QUOTA CODES
                                     0000    55 	$PCBDEF				; PCB LABELS
                                     0000    56 	$DIBDEF				; DEVICE INFO BLOCK OFFSETS
                                     0000    57 ;
                                     0000    58 ; MACROS:
                                     0000    59 ;
                                     0000    60 ;
                                     0000    61 ; EQUATED SYMBOLS:
                                     0000    62 ;
                                     0000    63 ;
                                     0000    64 ; OWN STORAGE:
                                     0000    65 ;
SATSSS41        SATS SYSTEM SERVICE TESTS  $EXIT (SUCC S.C.)     22-AUG-1978 04:06:08   VAX-11 MACRO X0.3-11               Page   3
1.0             DECLARATIONS                                                                                                     (1)

                                 00000000    67 	.PSECT	RODATA,RD,NOWRT,NOEXE,LONG
                                     0000    68 TEST_MOD_NAME::	STRING	C,<SATSSS41>	; TEST MODULE NAME
                                     0009    69 TEST_MOD_NAME_D: STRING	I,<SATSSS41>	; TEST MODULE NAME DESCRIPTOR
                                     0019    70 MSG1_INP_CTL:	STRING	I,<  SSEXI!4ZW: CONDITIONS:>
                                     0039    71 					; FAO CTL STRING FOR MSG1 IN SUCCOMMON.MAR
                                     0039    72 MSG3_ERR_CTL::	STRING	I,< *SSEXI!4ZW: !AS>
                                     0051    73 					; FAO CTL STRING FOR MSG3 IN SUCCOMMON.MAR
                                     0051    74 CRENAME:	STRING	I,<SATSSS41_CRE> ; PROCESS & MBX NAME FOR CREATED PROCESS
                                     0065    75 IMAGNAM:	STRING	I,<SYSTST$RES:SATSUT09.EXE>
                                     0084    76 					; IMAGE NAME FOR CREATED PROCESS
                                     0084    77 QUOTALIST:	$QUOTA	CPULM,0		; INFINITE CPU
                                     0089    78 		$QUOTA	BYTLM,512	; BYTE LIMIT FOR BUFFERED I/O
                                     008E    79 		$QUOTA	FILLM,2		; OPEN FILE COUNT LIMIT
                                     0093    80 		$QUOTA	PGFLQUOTA,10	; PAGING FILE QUOTA
                                     0098    81 		$QUOTA	PRCLM,2		; SUBPROCESS QUOTA
                                     009D    82 		$QUOTA	TQELM,3		; TIMER QUEUE ENTRY QUOTA
                                     00A2    83 		$QUOTA	LISTEND		; DEFINES END OF LIST
SATSSS41        SATS SYSTEM SERVICE TESTS  $EXIT (SUCC S.C.)     22-AUG-1978 04:06:08   VAX-11 MACRO X0.3-11               Page   4
1.0             DECLARATIONS                                                                                                     (1)

                                 00000000    85 	.PSECT	RWDATA,RD,WRT,NOEXE,LONG
                           00000008  0000    86 PRIVMASK:	.BLKQ	1		; ADDR OF PRIVILEGE MASK (IN PHD)
                           0000000C  0008    87 MBXCHAN:	.BLKL	1		; CHAN NO. FOR MAILBOX FOR CREATED PROCESS
                                     000C    88 MBXCHANINFO:	STRING O,75		; CHANNEL INFO RETURNED BY GETCHN
                           00000063  005F    89 MBXUNIT:	.BLKL	1		; SAVE AREA FOR MAILBOX UNIT NUMBER
                                     0063    90 MBXBUFF:	STRING	O,120		; MAILBOX BUFFER FOR CREATED PROCESS
                           000000E7  00E3    91 CREPID:		.BLKL	1		; PID OF CREATED PROCESS
SATSSS41        SATS SYSTEM SERVICE TESTS  $EXIT (SUCC S.C.)     22-AUG-1978 04:06:08   VAX-11 MACRO X0.3-11               Page   5
1.0             CONDITION TABLES                                                                                                 (1)

                                     00E7    93 	.SBTTL	CONDITION TABLES
                                     00E7    94 ;
                                     00E7    95 ;	***** CONDITION TABLES FOR EXIT SYSTEM SERVICE *****
                                     00E7    96 ;
                                     00E7    97 	COND	1,NOTARG,<PROCESS TYPE>,-
                                     00E7    98 		  <SUBPROCESS>,-
                                     00E7    99 		  <DETACHED, DIFFERENT GROUP>,-
                                     00E7   100 		  <DETACHED, SAME GROUP, SAME MEMBER>,-
                                     00E7   101 		  <DETACHED, SAME GROUP, DIFFERENT MEMBER>,-
                                     00E7   102
                           00000000  0173   103 		    .LONG	0	   ; PSEUDO-UIC
                           0000017B  0177   104 		    .BLKL	1	   ; UIC
                           0000017F  017B   105 		    .BLKL	1	   ; UIC
                           00000183  017F   106 		    .BLKL	1	   ; UIC
                                     0183   107 ;
                                     0183   108 	COND	2,NULL
                                     0184   109
                                     0184   110 	COND	3,NULL
                                     0185   111
                                     0185   112 	COND	4,NULL
                                     0186   113
                                     0186   114 	COND	5,NULL
                                     0187   115
                                 00000000   116 	.PSECT	SATSSS41,RD,WRT,EXE
SATSSS41        SATS SYSTEM SERVICE TESTS  $EXIT (SUCC S.C.)     22-AUG-1978 04:06:08   VAX-11 MACRO X0.3-11               Page   6
1.0             TM_SETUP, TM_CLEANUP                                                                                             (1)

                                     0000   118 	.SBTTL	TM_SETUP, TM_CLEANUP
                                     0000   119 ;++
                                     0000   120 ; FUNCTIONAL DESCRIPTION:
                                     0000   121 ;
                                     0000   122 ;		TM_SETUP AND TM_CLEANUP ARE CALLED TO PERFORM
                                     0000   123 ; REQUIRED HOUSEKEEPING AT THE BEGINNING AND END, RESPECTIVELY, OF
                                     0000   124 ; TEST MODULE EXECUTION.
                                     0000   125 ;
                                     0000   126 ; CALLING SEQUENCE:
                                     0000   127 ;
                                     0000   128 ;	BSBW TM_SETUP   BSBW TM_CLEANUP
                                     0000   129 ;
                                     0000   130 ; INPUT PARAMETERS:
                                     0000   131 ;
                                     0000   132 ;	NONE
                                     0000   133 ;
                                     0000   134 ; IMPLICIT INPUTS:
                                     0000   135 ;
                                     0000   136 ;	NONE
                                     0000   137 ;
                                     0000   138 ; OUTPUT PARAMETERS:
                                     0000   139 ;
                                     0000   140 ;	NONE
                                     0000   141 ;
                                     0000   142 ; IMPLICIT OUTPUTS:
                                     0000   143 ;
                                     0000   144 ;	TM_SETUP:  COND TABLE INDEX REGISTERS (R2,3,4,5,6) CLEARED;
                                     0000   145 ;		   ALL PRIVILEGES ACQUIRED.
                                     0000   146 ;
                                     0000   147 ; COMPLETION CODES:
                                     0000   148 ;
                                     0000   149 ;	EFLAG SET TO NON-ZERO IF ERROR ENCOUNTERED.
                                     0000   150 ;
                                     0000   151 ; SIDE EFFECTS:
                                     0000   152 ;
                                     0000   153 ;	SS_CHECK AND ERR_EXIT MACROS CAUSE PREMATURE EXIT
                                     0000   154 ;	(VIA RSB) IF ERROR ENCOUNTERED.
                                     0000   155 ;
                                     0000   156 ;--
                                     0000   157
                                     0000   158
                                     0000   159
                                     0000   160 TM_SETUP::
                          52     D4  0000   161 	CLRL	R2			; INITIALIZE
                          53     D4  0002   162 	CLRL	R3			; .. CONDITION
                          54     D4  0004   163 	CLRL	R4			; .... TABLE
                          55     D4  0006   164 	CLRL	R5			; ...... INDEX
                          56     D4  0008   165 	CLRL	R6			; ........ REGISTERS
                          FFF3'  30  000A   166 	BSBW	MOD_MSG_PRINT		; PRINT TEST MODULE BEGIN MSG
   00000000'EF   00000000'EF     DE  000D   167 	MOVAL	TEST_MOD_SUCC,TMD_ADDR	; ASSUME END MSG WILL SHOW SUCCESS
            00   00000000'8F     F0  0018   168 	INSV	#SUCCESS,#0,#3,MOD_MSG_CODE ; ADJUST STATUS CODE FOR SUCCESS
   00000000'EF            03         001F
                                     0025   169 	MODE	TO,5$,KRNL		; KERNEL MODE TO ACCESS PHD
            59   00000000'9F     D0  0048   170 	MOVL	@#CTL$GL_PHD,R9		; GET PROCESS HEADER ADDRESS
   00000000'EF            69     DE  004F   171 	MOVAL	PHD$Q_PRIVMSK(R9),PRIVMASK ; GET PRIV MASK ADDRESS
                                     0056   172 	MODE	FROM,5$	; BACK TO USER MODE
                                     0057   173 	PRIV	ADD,ALL			; GET ALL PRIVILEGES
SATSSS41        SATS SYSTEM SERVICE TESTS  $EXIT (SUCC S.C.)     22-AUG-1978 04:06:08   VAX-11 MACRO X0.3-11               Page   7
1.0             TM_SETUP, TM_CLEANUP                                                                                             (1)

                                     0080   174 	$SETPRN_S TEST_MOD_NAME_D 	; SET PROCESS NAME
                                     008D   175 	SS_CHECK  NORMAL		; CHECK STATUS CODE RETURNED FROM SETPRN
                                     00BB   176 ;
                                     00BB   177 ; THE FOLLOWING CODE ESTABLISHES UIC'S IN THE CONDITION 1 TABLE
                                     00BB   178 ;
                                     00BB   179 	MODE	TO,20$,KRNL		; KERNEL MODE TO ACCESS PCB
            59   00000000'9F     D0  00DE   180 	MOVL	@#SCH$GL_CURPCB,R9 	; GET CURRENT PCB ADDRESS
            59         20 A9     D0  00E5   181 	MOVL	PCB$L_UIC(R9),R9 	; PICK UP UIC FROM PCB
                                     00E9   182 	MODE	FROM,20$		; ... AND GET BACK TO USER MODE
                                     00EA   183 ;
                                     00EA   184 ; R9 NOW CONTAINS "MY" UIC
                                     00EA   185 ;
            5A            01     9A  00EA   186 	MOVZBL	#1,R10			; GET COND1 TABLE INDEX NUMBER INTO A REG
            59   00010000 8F     C1  00ED   187 	ADDL3	#^X10000,R9,COND1_E[R10] ; PUT DIFF GROUP UIC INTO 2ND TABLE ELT
                 00000173'EF4A       00F4
                          5A     D6  00FA   188 	INCL	R10			; POINT TO 3RD COND1 TABLE ELEMENT
   00000173'EF4A          59     D0  00FC   189 	MOVL	R9,COND1_E[R10]		; PUT MY UIC INTO TABLE
                          5A     D6  0104   190 	INCL	R10			; POINT TO 4TH COND1 TABLE ELEMENT
            59            01     C1  0106   191 	ADDL3	#1,R9,COND1_E[R10] 	; PUT DIFF MEMBER UIC INTO THE TABLE
                 00000173'EF4A       0109
                                     010F   192 	$CREMBX_S CHAN=MBXCHAN, LOGNAM=CRENAME, - ; GET MAILBOX FOR PROCESS
                                     010F   193 		  MAXMSG=#120, PROMSK=#0, BUFQUO=#240
                                     0132   194 	SS_CHECK NORMAL			; CHECK NORMAL COMPLETION
                                     0160   195 	$GETCHN_S CHAN=MBXCHAN, -	; GET CHAN INFO (UNIT NUMBER)
                                     0160   196 		  PRIBUF=MBXCHANINFO
                                     017A   197 	SS_CHECK NORMAL			; CHECK NORMAL COMPLETION
   0000005F'EF   00000020'EF     3C  01A8   198 	MOVZWL	MBXCHANINFO+8+DIB$W_UNIT,MBXUNIT ; SAVE MAILBOX UNIT NUMBER
                                 05  01B3   199 	RSB				; RETURN TO MAIN ROUTINE
                                     01B4   200 TM_CLEANUP::
                                     01B4   201 	$DELMBX_S  MBXCHAN		; DELETE TERMINATION MAILBOX
                          FE3B'  30  01C2   202 	BSBW	MOD_MSG_PRINT		; PRINT TEST MODULE END MSG
                                 05  01C5   203 	RSB				; RETURN TO MAIN ROUTINE
SATSSS41        SATS SYSTEM SERVICE TESTS  $EXIT (SUCC S.C.)     22-AUG-1978 04:06:08   VAX-11 MACRO X0.3-11               Page   8
1.0             CONDITION SUBROUTINES - SETUP AND CLEANUP                                                                        (1)

                                     01C6   205 	.SBTTL	CONDITION SUBROUTINES - SETUP AND CLEANUP
                                     01C6   206 ;++
                                     01C6   207 ; FUNCTIONAL DESCRIPTION:
                                     01C6   208 ;
                                     01C6   209 ;		CONDX AND CONDX_CLEANUP ARE SUBROUTINES WHICH ARE EXECUTED
                                     01C6   210 ; BEFORE AND AFTER THE VERIFY SUBROUTINE, RESPECTIVELY, WHENEVER A NEW
                                     01C6   211 ; CONDITION X VALUE IS SELECTED (SEE FUNCTIONAL DESCRIPTION OF SUCCOMMON
                                     01C6   212 ; ROUTINE IN SUCCOMMON.MAR). ANY SETUP FUNCTION PARTICULAR TO THE
                                     01C6   213 ; CONDITION X TABLE IS INCLUDED IN THE CONDX SUBROUTINE AND CLEANED
                                     01C6   214 ; UP, IF NECESSARY, IN THE CONDX_CLEANUP SUBROUTINE. THIS INCLUDES,
                                     01C6   215 ; ESPECIALLY, CODE TO DETECT CONFLICTS AMONG CURRENT ENTRIES IN TWO
                                     01C6   216 ; OR MORE CONDITION TABLES. IF A CONFLICT IS DETECTED, A NON-ZERO
                                     01C6   217 ; VALUE IS STORED INTO CONFLICT, WHICH CAUSES THE CALLING ROUTINE
                                     01C6   218 ; (SUCCOMMON) TO SKIP THE CURRENT ENTRY IN THE CONDITION X TABLE.
                                     01C6   219 ;
                                     01C6   220 ; CALLING SEQUENCE:
                                     01C6   221 ;
                                     01C6   222 ;	BSBW CONDX   BSBW CONDX_CLEANUP
                                     01C6   223 ;	  WHERE X = 1,2,3,4,5
                                     01C6   224 ;
                                     01C6   225 ; INPUT PARAMETERS:
                                     01C6   226 ;
                                     01C6   227 ;	CONFLICT = 0
                                     01C6   228 ;
                                     01C6   229 ; IMPLICIT INPUTS:
                                     01C6   230 ;
                                     01C6   231 ;	R2,3,4,5,6 CONTAIN CURRENT CONDITION TABLE INDEX VALUES
                                     01C6   232 ;	  FOR COND TABLES 1,2,3,4,5, RESPECTIVELY.
                                     01C6   233 ;
                                     01C6   234 ; OUTPUT PARAMETERS:
                                     01C6   235 ;
                                     01C6   236 ;	CONFLICT SET TO NON-ZERO IF COND TABLE CONFLICT DETECTED.
                                     01C6   237 ;
                                     01C6   238 ; IMPLICIT OUTPUTS:
                                     01C6   239 ;
                                     01C6   240 ;	R2,3,4,5,6 PRESERVED
                                     01C6   241 ;
                                     01C6   242 ; COMPLETION CODES:
                                     01C6   243 ;
                                     01C6   244 ;	NONE
                                     01C6   245 ;
                                     01C6   246 ; SIDE EFFECTS:
                                     01C6   247 ;
                                     01C6   248 ;	NONE
                                     01C6   249 ;
                                     01C6   250 ;--
                                     01C6   251
                                     01C6   252
                                     01C6   253
                                     01C6   254 COND1::
                                 05  01C6   255 	RSB				; RETURN TO MAIN ROUTINE
                                     01C7   256 COND1_CLEANUP::
                                 05  01C7   257 	RSB				; RETURN TO MAIN ROUTINE
                                     01C8   258 COND2::
                                 05  01C8   259 	RSB				; RETURN TO MAIN ROUTINE
                                     01C9   260 COND2_CLEANUP::
                                 05  01C9   261 	RSB				; RETURN TO MAIN ROUTINE
SATSSS41        SATS SYSTEM SERVICE TESTS  $EXIT (SUCC S.C.)     22-AUG-1978 04:06:08   VAX-11 MACRO X0.3-11               Page   9
1.0             CONDITION SUBROUTINES - SETUP AND CLEANUP                                                                        (1)

                                     01CA   262 COND3::
                                 05  01CA   263 	RSB				; RETURN TO MAIN ROUTINE
                                     01CB   264 COND3_CLEANUP::
                                 05  01CB   265 	RSB				; RETURN TO MAIN ROUTINE
                                     01CC   266 COND4::
                                 05  01CC   267 	RSB				; RETURN TO MAIN ROUTINE
                                     01CD   268 COND4_CLEANUP::
                                 05  01CD   269 	RSB				; RETURN TO MAIN ROUTINE
                                     01CE   270 COND5::
                                 05  01CE   271 	RSB				; RETURN TO MAIN ROUTINE
                                     01CF   272 COND5_CLEANUP::
                                 05  01CF   273 	RSB				; RETURN TO MAIN ROUTINE
SATSSS41        SATS SYSTEM SERVICE TESTS  $EXIT (SUCC S.C.)     22-AUG-1978 04:06:08   VAX-11 MACRO X0.3-11               Page  10
1.0             FORM_CONDS                                                                                                       (1)

                                     01D0   275 	.SBTTL	FORM_CONDS
                                     01D0   276 ;++
                                     01D0   277 ; FUNCTIONAL DESCRIPTION:
                                     01D0   278 ;
                                     01D0   279 ; 		FORM_CONDS FORMATS AND PRINTS INFORMATION ABOUT
                                     01D0   280 ;  THE CURRENT ELEMENT IN EACH OF THE CONDITION TABLES.
                                     01D0   281 ;
                                     01D0   282 ; CALLING SEQUENCE:
                                     01D0   283 ;
                                     01D0   284 ;	BSBW FORM_CONDS
                                     01D0   285 ;
                                     01D0   286 ; INPUT PARAMETERS:
                                     01D0   287 ;
                                     01D0   288 ;	NONE
                                     01D0   289 ;
                                     01D0   290 ; IMPLICIT INPUTS:
                                     01D0   291 ;
                                     01D0   292 ;	R2,3,4,5,6 CONTAIN CURRENT CONDITION TABLE INDEX VALUES
                                     01D0   293 ;	  FOR COND TABLES 1,2,3,4,5, RESPECTIVELY.
                                     01D0   294 ;	FOR X = 1,2,3,4,5 :
                                     01D0   295 ;		CONDX_T - TITLE TEXT FOR CONDX TABLE
                                     01D0   296 ;		CONDX_TAB - ELEMENT TEXT FOR CONDX TABLE
                                     01D0   297 ;		CONDX_C - CONTEXT OF THE CONDX TABLE
                                     01D0   298 ;		CONDX_E - DATA ELEMENTS OF THE CONDX TABLE
                                     01D0   299 ;
                                     01D0   300 ; OUTPUT PARAMETERS:
                                     01D0   301 ;
                                     01D0   302 ;	NONE
                                     01D0   303 ;
                                     01D0   304 ; IMPLICIT OUTPUTS:
                                     01D0   305 ;
                                     01D0   306 ;	NONE
                                     01D0   307 ;
                                     01D0   308 ; COMPLETION CODES:
                                     01D0   309 ;
                                     01D0   310 ;	NONE
                                     01D0   311 ;
                                     01D0   312 ; SIDE EFFECTS:
                                     01D0   313 ;
                                     01D0   314 ;	NONE
                                     01D0   315 ;
                                     01D0   316 ;--
                                     01D0   317
                                     01D0   318
                                     01D0   319
                                     01D0   320 FORM_CONDS::
                                     01D0   321 	$FAO_S	MSG1_INP_CTL,FAO_LEN,FAO_DESC,TESTNUM
                                     01EF   322 					; FORMAT CONDITIONS HEADER MSG
                          FE0E'  30  01EF   323 	BSBW	OUTPUT_MSG		; ... AND PRINT IT
            14            00     91  01F2   324 	CMPB	#COND1_C,#NULL		; IS CONDITION 1 NULL ?
                          03     12  01F5   325 	BNEQU	10$			; NO -- CONTINUE
                          00BF   31  01F7   326 	BRW	FORM_CONDSX		; YES -- SUBROUTINE IS FINISHED
                                     01FA   327 10$:
   00000000'EF   000000E7'EF     DE  01FA   328 	MOVAL	COND1_T,MSG_A		; SAVE ADDRESS OF CONDITION 1 TITLE FOR FAO
   00000000'EF   000000F5'EF42   D0  0205   329 	MOVL	COND1_TAB[R2],MSG_B 	; SAVE ADDR OF COND 1 CURR TEXT ELT FOR FAO
   00000000'EF            00     90  0211   330 	MOVB	#COND1_C,MSG_CTXT 	; SAVE CONDITION 1 CONTEXT FOR FAO
                                     0218   331 	MOV_VAL	COND1_C,COND1_E[R2],MSG_DATA1 ; GIVE COND 1 DATA VALUE TO FAO
SATSSS41        SATS SYSTEM SERVICE TESTS  $EXIT (SUCC S.C.)     22-AUG-1978 04:06:08   VAX-11 MACRO X0.3-11               Page  11
1.0             FORM_CONDS                                                                                                       (1)

                          FDE5'  30  0218   332 	BSBW	WRITE_MSG2		; FORMAT AND WRITE CONDITION 1 MSG
            14            14     91  021B   333 	CMPB	#COND2_C,#NULL		; IS CONDITION 2 NULL ?
                          03     12  021E   334 	BNEQU	20$			; NO -- CONTINUE
                          0096   31  0220   335 	BRW	FORM_CONDSX		; YES -- SUBROUTINE IS FINISHED
                                     0223   336 20$:
   00000000'EF   00000183'EF     DE  0223   337 	MOVAL	COND2_T,MSG_A		; SAVE ADDRESS OF CONDITION 2 TITLE FOR FAO
   00000000'EF   00000183'EF43   D0  022E   338 	MOVL	COND2_TAB[R3],MSG_B 	; SAVE ADDR OF COND 2 CURR TEXT ELT FOR FAO
   00000000'EF            14     90  023A   339 	MOVB	#COND2_C,MSG_CTXT 	; SAVE CONDITION 2 CONTEXT FOR FAO
                                     0241   340 	MOV_VAL	COND2_C,COND2_E[R3],MSG_DATA1 ; GIVE COND 2 DATA VALUE TO FAO
                          FDBC'  30  0241   341 	BSBW	WRITE_MSG2		; FORMAT AND WRITE CONDITION 2 MSG
            14            14     91  0244   342 	CMPB	#COND3_C,#NULL		; IS CONDITION 3 NULL ?
                          03     12  0247   343 	BNEQU	30$			; NO -- CONTINUE
                          006D   31  0249   344 	BRW	FORM_CONDSX		; YES -- SUBROUTINE IS FINISHED
                                     024C   345 30$:
   00000000'EF   00000184'EF     DE  024C   346 	MOVAL	COND3_T,MSG_A		; SAVE ADDRESS OF CONDITION 3 TITLE FOR FAO
   00000000'EF   00000184'EF44   D0  0257   347 	MOVL	COND3_TAB[R4],MSG_B 	; SAVE ADDR OF COND 3 CURR TEXT ELT FOR FAO
   00000000'EF            14     90  0263   348 	MOVB	#COND3_C,MSG_CTXT 	; SAVE CONDITION 3 CONTEXT FOR FAO
                                     026A   349 	MOV_VAL	COND3_C,COND3_E[R4],MSG_DATA1 ; GIVE COND 3 DATA VALUE TO FAO
                          FD93'  30  026A   350 	BSBW	WRITE_MSG2		; FORMAT AND WRITE CONDITION 3 MSG
            14            14     91  026D   351 	CMPB	#COND4_C,#NULL		; IS CONDITION 4 NULL ?
                          47     13  0270   352 	BEQLU	FORM_CONDSX		; YES -- SUBROUTINE IS FINISHED
   00000000'EF   00000185'EF     DE  0272   353 	MOVAL	COND4_T,MSG_A		; SAVE ADDRESS OF CONDITION 4 TITLE FOR FAO
   00000000'EF   00000185'EF45   D0  027D   354 	MOVL	COND4_TAB[R5],MSG_B 	; SAVE ADDR OF COND 4 CURR TEXT ELT FOR FAO
   00000000'EF            14     90  0289   355 	MOVB	#COND4_C,MSG_CTXT 	; SAVE CONDITION 4 CONTEXT FOR FAO
                                     0290   356 	MOV_VAL	COND4_C,COND4_E[R5],MSG_DATA1 ; GIVE COND 4 DATA VALUE TO FAO
                          FD6D'  30  0290   357 	BSBW	WRITE_MSG2		; FORMAT AND WRITE CONDITION 4 MSG
            14            14     91  0293   358 	CMPB	#COND5_C,#NULL		; IS CONDITION 5 NULL ?
                          21     13  0296   359 	BEQLU	FORM_CONDSX		; YES -- SUBROUTINE IS FINISHED
   00000000'EF   00000186'EF     DE  0298   360 	MOVAL	COND5_T,MSG_A		; SAVE ADDRESS OF CONDITION 5 TITLE FOR FAO
   00000000'EF   00000186'EF46   D0  02A3   361 	MOVL	COND5_TAB[R6],MSG_B 	; SAVE ADDR OF COND 5 CURR TEXT ELT FOR FAO
   00000000'EF            14     90  02AF   362 	MOVB	#COND5_C,MSG_CTXT 	; SAVE CONDITION 5 CONTEXT FOR FAO
                                     02B6   363 	MOV_VAL	COND5_C,COND5_E[R6],MSG_DATA1 ; GIVE COND 5 DATA VALUE TO FAO
                          FD47'  30  02B6   364 	BSBW	WRITE_MSG2		; FORMAT AND WRITE CONDITION 5 MSG
                                     02B9   365 FORM_CONDSX:
                                 05  02B9   366 	RSB				; RETURN TO CALLER
SATSSS41        SATS SYSTEM SERVICE TESTS  $EXIT (SUCC S.C.)     22-AUG-1978 04:06:08   VAX-11 MACRO X0.3-11               Page  12
1.0             VERIFY                                                                                                           (1)

                                     02BA   368 	.SBTTL	VERIFY
                                     02BA   369 ;++
                                     02BA   370 ; FUNCTIONAL DESCRIPTION:
                                     02BA   371 ;
                                     02BA   372 ;		VERIFY IS CALLED ONCE FOR EACH COMBINATION OF CONDITION
                                     02BA   373 ; TABLE VALUES (AS DETERMINED BY THE INDEX REGISTERS R2,3,4,5,6 FOR
                                     02BA   374 ; COND TABLES 1,2,3,4,5, RESPECTIVELY). VERIFY ESTABLISHES THE CONDITIONS
                                     02BA   375 ; SPECIFIED BY THE COND TABLES AND ISSUES THE SUBJECT SYSTEM SERVICE
                                     02BA   376 ; ($EXIT). THEN, THE SUCCESSFUL OPERATION OF THE SERVICE IS VERIFIED
                                     02BA   377 ; BY EXAMINING THE STATUS CODE RETURNED, THE VALUES FOR RETURN ARGUMENTS
                                     02BA   378 ; AND THE FUNCTIONALITY PERFORMED. THE EXAMINATIONS TAKE THE FORM OF
                                     02BA   379 ; COMPARISONS AGAINST EXPECTED VALUES. ANY FAILING COMPARISON CAUSES AN
                                     02BA   380 ; ERR_EXIT MACRO TO BE EXECUTED (EITHER DIRECTLY, OR INDIRECTLY,
                                     02BA   381 ; THROUGH THE SS_CHECK MACRO); ERR_EXIT SETS EFLAG TO NON-ZERO,
                                     02BA   382 ; PRINTS ERROR MESSAGES AND CAUSES AN IMMEDIATE RSB TO CALLER.
                                     02BA   383 ; WHEN ERR_EXIT IS EXECUTED, FURTHER CALLS TO VERIFY ARE SUPPRESSED,
                                     02BA   384 ; AND, AFTER EXECUTING CLEANUP SUBROUTINES, THE IMAGE EXITS.
                                     02BA   385 ;
                                     02BA   386 ; CALLING SEQUENCE:
                                     02BA   387 ;
                                     02BA   388 ;	BSBW VERIFY
                                     02BA   389 ;
                                     02BA   390 ; INPUT PARAMETERS:
                                     02BA   391 ;
                                     02BA   392 ;	NONE
                                     02BA   393 ;
                                     02BA   394 ; IMPLICIT INPUTS:
                                     02BA   395 ;
                                     02BA   396 ;	R2,3,4,5,6 CONTAIN CURRENT CONDITION TABLE INDEX VALUES
                                     02BA   397 ;	  FOR COND TABLES 1,2,3,4,5, RESPECTIVELY.
                                     02BA   398 ;	FOR X = 1,2,3,4,5 :
                                     02BA   399 ;		CONDX_E - ADDRESS OF TABLE OF DATA VALUES FOR CONDX
                                     02BA   400 ;		  TABLE. IF THE CONTEXT OF TABLE X IS A SYSTEM SERVICE
                                     02BA   401 ;		  ARGUMENT, THE ARGUMENT NAME MAY BE USED AS A SYNONYM
                                     02BA   402 ;		  FOR CONDX_E.
                                     02BA   403 ;
                                     02BA   404 ; OUTPUT PARAMETERS:
                                     02BA   405 ;
                                     02BA   406 ;	NONE
                                     02BA   407 ;
                                     02BA   408 ; IMPLICIT OUTPUTS:
                                     02BA   409 ;
                                     02BA   410 ;	VERIFY HAS NO OUTPUT. SINCE ITS PURPOSE IS TO TEST FOR ERRORS,
                                     02BA   411 ;	IT MERELY RETURNS TO CALLER NORMALLY AFTER THE TESTS, PROVIDING
                                     02BA   412 ;	ALL WERE SUCCESSFUL; IF AN ERROR IS DISCOVERED, RETURN IS VIA
                                     02BA   413 ;	AN ERR_EXIT OR SS_CHECK MACRO, BOTH OF WHICH DOCUMENT DETECTED
                                     02BA   414 ;	ERRORS.
                                     02BA   415 ;
                                     02BA   416 ; COMPLETION CODES:
                                     02BA   417 ;
                                     02BA   418 ;	EFLAG SET TO NON-ZERO IF ERROR ENCOUNTERED.
                                     02BA   419 ;
                                     02BA   420 ; SIDE EFFECTS:
                                     02BA   421 ;
                                     02BA   422 ;	SS_CHECK AND ERR_EXIT MACROS CAUSE PREMATURE EXIT
                                     02BA   423 ;	(VIA RSB) IF ERROR ENCOUNTERED.
                                     02BA   424 ;
SATSSS41        SATS SYSTEM SERVICE TESTS  $EXIT (SUCC S.C.)     22-AUG-1978 04:06:08   VAX-11 MACRO X0.3-11               Page  13
1.0             VERIFY                                                                                                           (1)

                                     02BA   425 ;--
                                     02BA   426
                                     02BA   427
                                     02BA   428
                                     02BA   429 VERIFY::
                 00000000'EF     95  02BA   430 	TSTB	CFLAG			; SHOULD CONDITIONS BE PRINTED ?
                          03     13  02C0   431 	BEQL	5$			; NO -- CONTINUE
                          FF0B   30  02C2   432 	BSBW	FORM_CONDS		; YES -- FMT & PRINT ALL CONDS FOR THIS T.C.
                                     02C5   433 5$:
                 000000E3'EF     D4  02C5   434 	CLRL	CREPID			; INDICATE CREATED PROCESS NOT YET CREATED
                                     02CB   435 	$CREPRC_S PIDADR=CREPID, PRCNAM=CRENAME, -
                                     02CB   436 		  UIC=COND1_E[R2], IMAGE=IMAGNAM, -
                                     02CB   437 		  MBXUNT=MBXUNIT, QUOTA=QUOTALIST
                                     0304   438 					; CREATE THE SUBJECT PROCESS
                                     0304   439 	SS_CHECK NORMAL			; ... AND MAKE SURE IT CREATED OK
                                     0332   440 	$QIOW_S	CHAN=MBXCHAN, FUNC=#IO$_READVBLK, -
                                     0332   441 		P1=MBXBUFF+8, P2=MBXBUFF
                                     035B   442 					; WAIT FOR CREATED PROCESS TO SEND MAIL
                                     035B   443 	SS_CHECK NORMAL			; CHECK FOR NORMAL STATUS CODE
   000000E3'EF   0000006F'EF     D1  0389   444 	CMPL	MBXBUFF+12,CREPID 	; DID CREATED PROC RETURN EXPECTED STATUS ?
                          69     13  0394   445 	BEQLU	VERIFYX			; YES -- ALL IS OK
   00000000'EF   000000E3'EF     D0  0396   446 	MOVL	CREPID,EXPV		; NO -- LOAD UP EXPECTED AND
   00000000'EF   0000006F'EF     D0  03A1   447 	MOVL	MBXBUFF+12,RECV		; ... RECEIVED VALUES, THEN EXIT
                                     03AC   448 	ERR_EXIT LONG,<INCORRECT EXIT STATUS CODE RETURNED IN MAILBOX>
                                     03FF   449 VERIFYX:
                                 05  03FF   450 	RSB				; RETURN TO CALLER
SATSSS41        SATS SYSTEM SERVICE TESTS  $EXIT (SUCC S.C.)     22-AUG-1978 04:06:08   VAX-11 MACRO X0.3-11               Page  14
1.0             VFY_CLEANUP                                                                                                      (1)

                                     0400   452 	.SBTTL	VFY_CLEANUP
                                     0400   453 ;++
                                     0400   454 ; FUNCTIONAL DESCRIPTION:
                                     0400   455 ;
                                     0400   456 ;		VFY_CLEANUP EXECUTES SYSTEM SERVICES TO UNDO THE
                                     0400   457 ; EFFECT OF THOSE ISSUED IN THE VERIFY SUBROUTINE. VFY_CLEANUP MUST
                                     0400   458 ; ASSUME THAT VERIFY MAY NOT HAVE EXECUTED IN ITS ENTIRETY (IF AN
                                     0400   459 ; ERROR IS FOUND). ALSO, VFY_CLEANUP MAY ISSUE SS_CHECK OR ERR_EXIT
                                     0400   460 ; ONLY AFTER PERFORMING ALL OF ITS CLEANUP OPERATIONS; THIS IS REQUIRED
                                     0400   461 ; IN THE EVENT THAT VFY_CLEANUP IS CALLED DURING ERROR PROCESSING,
                                     0400   462 ; WHEN PERFORMING THE REQUIRED CLEANUP IS MORE IMPORTANT THAN
                                     0400   463 ; POSSIBLY DISCOVERING A SECOND ERROR.
                                     0400   464 ;
                                     0400   465 ; CALLING SEQUENCE:
                                     0400   466 ;
                                     0400   467 ;	BSBW VFY_CLEANUP
                                     0400   468 ;
                                     0400   469 ; INPUT PARAMETERS:
                                     0400   470 ;
                                     0400   471 ;	NONE
                                     0400   472 ;
                                     0400   473 ; IMPLICIT INPUTS:
                                     0400   474 ;
                                     0400   475 ;	R2,3,4,5,6 CONTAIN CURRENT CONDITION TABLE INDEX VALUES
                                     0400   476 ;	  FOR COND TABLES 1,2,3,4,5, RESPECTIVELY.
                                     0400   477 ;	FOR X = 1,2,3,4,5 :
                                     0400   478 ;		CONDX_E - ADDRESS OF TABLE OF DATA VALUES FOR CONDX
                                     0400   479 ;		  TABLE. IF THE CONTEXT OF TABLE X IS A SYSTEM SERVICE
                                     0400   480 ;		  ARGUMENT, THE ARGUMENT NAME MAY BE USED AS A SYNONYM
                                     0400   481 ;		  FOR CONDX_E.
                                     0400   482 ;
                                     0400   483 ; OUTPUT PARAMETERS:
                                     0400   484 ;
                                     0400   485 ;	NONE
                                     0400   486 ;
                                     0400   487 ; IMPLICIT OUTPUTS:
                                     0400   488 ;
                                     0400   489 ;	NONE
                                     0400   490 ;
                                     0400   491 ; COMPLETION CODES:
                                     0400   492 ;
                                     0400   493 ;	EFLAG SET TO NON-ZERO IF ERROR ENCOUNTERED.
                                     0400   494 ;
                                     0400   495 ; SIDE EFFECTS:
                                     0400   496 ;
                                     0400   497 ;	SS_CHECK AND ERR_EXIT MACROS CAUSE PREMATURE EXIT
                                     0400   498 ;	(VIA RSB) IF ERROR ENCOUNTERED.
                                     0400   499 ;
                                     0400   500 ;--
                                     0400   501
                                     0400   502
                                     0400   503
                                     0400   504 VFY_CLEANUP::
                                 05  0400   505 	RSB				; RETURN TO CALLER
                                     0401   506 	.END
SATSSS41        SATS SYSTEM SERVICE TESTS  $EXIT (SUCC S.C.)     22-AUG-1978 04:06:08   VAX-11 MACRO X0.3-11               Page  15
SYMBOL TABLE                                                                                                                     (1)

$$$$           = 000003B6 R     05   DIB$L_DEVCHAR    00000000            PCB$L_SQBL       00000004
$$$CHARS       = 0000002E            DIB$L_DEVDEPEND  00000008            PCB$L_SQFL       00000000
$$$CHARS1      = 0000000A            DIB$L_OPCNT      0000001C            PCB$L_STS        00000028
$$$CHARS2      = 00000019            DIB$L_OWNUIC     00000014            PCB$L_UIC        00000020
$$$CHARS3      = 00000021            DIB$L_PID        00000010            PCB$L_WSSWP      00000024
$$$CHARS4      = 00000026            DIB$W_DEVBUFSIZ  00000006            PCB$L_WTIME      0000002C
$$$CHARS5      = 00000000            DIB$W_DEVNAMOFF  0000000E            PCB$T_LNAME      0000006C
$$$COND_A      = 00000003            DIB$W_ERRCNT     0000001A            PCB$V_ASTPEN   = 00000011
$$$STRINGS     = 00000001            DIB$W_RECSIZ     00000022            PCB$V_BATCH    = 0000000E
$$$STRINGS2    = 00000005            DIB$W_UNIT       0000000C            PCB$V_DELPEN   = 00000001
$$T1           = 00000001            DIB$W_VOLNAMOFF  00000020            PCB$V_FORCPEN  = 00000002
$$T2           = 00000004            DIB$W_VPROT      00000018            PCB$V_HIBER    = 00000013
BIT...         = 00000018            EFLAG            ********   X   05   PCB$V_INQUAN   = 00000003
BYTE           = 00000001  G         EXPV             ********   X   05   PCB$V_LOGIN    = 00000014
CFLAG            ********   X   05   FAO_DESC         ********   X   05   PCB$V_NETWRK   = 00000015
CHMRTN           ********   X   05   FAO_LEN          ********   X   05   PCB$V_NOACNT   = 0000000F
CHM_CONT         ********   X   05   FORM_CONDS       000001D0 RG    05   PCB$V_NODELET  = 00000017
COMP_SC          ********   X   05   FORM_CONDSX      000002B9 R     05   PCB$V_PHDRES   = 00000012
COND1            000001C6 RG    05   GBL...         = 00000000            PCB$V_PSWAPM   = 00000004
COND1_C        = 00000000            IMAGNAM          00000065 R     03   PCB$V_PWRAST   = 00000016
COND1_CLEANUP    000001C7 RG    05   IO$_READVBLK     ********   X   05   PCB$V_RES      = 00000000
COND1_E          00000173 R     04   LONG           = 00000004  G         PCB$V_RESPEN   = 00000005
COND1_H          000000F4 RG    04   MBXBUFF          00000063 R     04   PCB$V_SSFEXC   = 00000006
COND1_T          000000E7 R     04   MBXCHAN          00000008 R     04   PCB$V_SSFEXCE  = 00000007
COND1_TAB        000000F5 R     04   MBXCHANINFO      0000000C R     04   PCB$V_SSFEXCS  = 00000008
COND2            000001C8 RG    05   MBXUNIT          0000005F R     04   PCB$V_SSFEXCU  = 00000009
COND2_C        = 00000014            MOD_MSG_CODE     ********   X   05   PCB$V_SSRWAIT  = 0000000A
COND2_CLEANUP    000001C9 RG    05   MOD_MSG_PRINT    ********   X   05   PCB$V_SUSPEN   = 0000000B
COND2_H          00000183 RG    04   MSG1_INP_CTL     00000019 R     03   PCB$V_SWPVBN   = 00000010
COND2_T          00000183 R     04   MSG3_ERR_CTL     00000039 RG    03   PCB$V_WAKEPEN  = 0000000C
COND2_TAB        00000183 R     04   MSG_A            ********   X   05   PCB$V_WALL     = 0000000D
COND3            000001CA RG    05   MSG_B            ********   X   05   PCB$W_APTCNT     00000034
COND3_C        = 00000014            MSG_CTXT         ********   X   05   PCB$W_ASTCNT     0000003C
COND3_CLEANUP    000001CB RG    05   NOTARG         = 00000000  G         PCB$W_BIOCNT     0000003E
COND3_H          00000184 RG    04   NULL           = 00000014  G         PCB$W_BIOLM      00000040
COND3_T          00000184 R     04   ONES             ********   X   05   PCB$W_BYTCNT     00000042
COND3_TAB        00000184 R     04   OUTPUT_MSG       ********   X   05   PCB$W_BYTLM      00000068
COND4            000001CC RG    05   PCB$B_ASTACT     0000000C            PCB$W_DIOCNT     00000044
COND4_C        = 00000014            PCB$B_ASTEN      0000000D            PCB$W_DIOLM      00000046
COND4_CLEANUP    000001CD RG    05   PCB$B_PRI        0000000B            PCB$W_FILCNT     00000048
COND4_H          00000185 RG    04   PCB$B_PRIB       00000033            PCB$W_GPGCNT     00000038
COND4_T          00000185 R     04   PCB$B_TYPE       0000000A            PCB$W_GRP        00000022
COND4_TAB        00000185 R     04   PCB$B_WEFC       00000032            PCB$W_MEM        00000020
COND5            000001CE RG    05   PCB$C_LENGTH     0000007C            PCB$W_MTXCNT     0000000E
COND5_C        = 00000014            PCB$K_LENGTH     0000007C            PCB$W_PPGCNT     0000003A
COND5_CLEANUP    000001CF RG    05   PCB$L_ASTQBL     00000014            PCB$W_PRCCNT     0000006A
COND5_H          00000186 RG    04   PCB$L_ASTQFL     00000010            PCB$W_SIZE       00000008
COND5_T          00000186 R     04   PCB$L_EFC2P      00000058            PCB$W_STATE      00000030
COND5_TAB        00000186 R     04   PCB$L_EFC3P      0000005C            PCB$W_TMBU       00000036
CRENAME          00000051 R     03   PCB$L_EFCS       00000050            PCB$W_TQCNT      0000004A
CREPID           000000E3 R     04   PCB$L_EFCU       00000054            PCV              ********   X   05
CTL$GL_PHD       ********   X   05   PCB$L_EFWM       0000004C            PHD$B_ASTLVL     000000CF
DESC           = 00000010  G         PCB$L_OWNER      0000001C            PHD$B_DFPFC      00000038
DIB$B_DEVCLASS   00000004            PCB$L_PHD        00000064            PHD$B_PAGFIL     0000001F
DIB$B_DEVTYPE    00000005            PCB$L_PHYPCB     00000018            PHD$B_PGTBPFC    00000039
DIB$C_LENGTH     00000024            PCB$L_PID        00000060            PHD$C_LENGTH     00000118
DIB$K_LENGTH     00000024            PCB$L_PQB        0000004C            PHD$C_PHDPAGCTX= 00000008
SATSSS41        SATS SYSTEM SERVICE TESTS  $EXIT (SUCC S.C.)     22-AUG-1978 04:06:08   VAX-11 MACRO X0.3-11               Page  16
SYMBOL TABLE                                                                                                                     (1)

PHD$K_LENGTH     00000118            PHD$W_EXTDYNWS   00000076            PRV$V_PSWAPM   = 0000000C
PHD$L_BIOCNT     00000054            PHD$W_FILLM      00000060            PRV$V_SETPRI   = 0000000D
PHD$L_CPULIM     00000058            PHD$W_FLAGS      0000003A            PRV$V_SETPRV   = 0000000E
PHD$L_CPUTIM     0000003C            PHD$W_PHVINDEX   00000046            PRV$V_SYSGBL   = 00000019
PHD$L_DIOCNT     00000050            PHD$W_PRCLM      00000042            PRV$V_SYSNAM   = 00000002
PHD$L_ESP        0000007C            PHD$W_PST        00000020            PRV$V_TMPMBX   = 0000000F
PHD$L_FREP0VA    00000028            PHD$W_PSTBASMAX  0000004A            PRV$V_VOLPRO   = 00000015
PHD$L_FREP1VA    00000030            PHD$W_PSTFREE    00000026            PRV$V_WORLD    = 00000010
PHD$L_FREPTECNT  0000002C            PHD$W_PSTLAST    00000024            QUAD           = 00000008  G
PHD$L_KSP        00000078            PHD$W_PTCNTACT   00000070            QUOTALIST        00000084 R     03
PHD$L_P0BR       000000C8            PHD$W_PTCNTLCK   0000006C            RECV             ********   X   05
PHD$L_P0LRASTL   000000CC            PHD$W_PTCNTMAX   00000072            REST_REGS        ********   X   05
PHD$L_P1BR       000000D0            PHD$W_PTCNTVAL   0000006E            SAVE_REGS        ********   X   05
PHD$L_P1LR       000000D4            PHD$W_QUANT      00000040            SCH$GL_CURPCB    ********   X   05
PHD$L_PAGEFLTS   0000004C            PHD$W_TQLM       00000062            SS$_NORMAL       ********   X   05
PHD$L_PAGFIL     0000001C            PHD$W_WSAUTH     0000000A            SUCCESS          ********   X   05
PHD$L_PC         000000C0            PHD$W_WSDYN      0000000E            SYS$CMKRNL       ********   X   05
PHD$L_PCB        00000078            PHD$W_WSFLUID    00000074            SYS$CREMBX       ********   X   05
PHD$L_PGFLCNT    00000034            PHD$W_WSLAST     00000012            SYS$CREPRC       ********   X   05
PHD$L_PGFLQUOTA  0000005C            PHD$W_WSLIST     00000008            SYS$DELMBX       ********   X   05
PHD$L_PSL        000000C4            PHD$W_WSLOCK     0000000C            SYS$FAO          ********   X   05
PHD$L_PSTBASOFF  00000020            PHD$W_WSLX       0000004A            SYS$GETCHN       ********   X   05
PHD$L_PTWSLELCK  00000064            PHD$W_WSNEXT     00000010            SYS$QIOW         ********   X   05
PHD$L_PTWSLEVAL  00000068            PHD$W_WSQUOTA    00000018            SYS$SETPRN       ********   X   05
PHD$L_R0         00000088            PQL$_ASTLM     = 00000001            TESTNUM          ********   X   05
PHD$L_R1         0000008C            PQL$_BIOLM     = 00000002            TEST_MOD_NAME    00000000 RG    03
PHD$L_R10        000000B0            PQL$_BYTLM     = 00000003            TEST_MOD_NAME_D  00000009 R     03
PHD$L_R11        000000B4            PQL$_CPULM     = 00000004            TEST_MOD_SUCC    ********   X   05
PHD$L_R12        000000B8            PQL$_DIOLM     = 00000005            TMD_ADDR         ********   X   05
PHD$L_R13        000000BC            PQL$_FILLM     = 00000006            TM_CLEANUP       000001B4 RG    05
PHD$L_R2         00000090            PQL$_LENGTH    = 0000000C            TM_SETUP         00000000 RG    05
PHD$L_R3         00000094            PQL$_LISTEND   = 00000000            VERIFY           000002BA RG    05
PHD$L_R4         00000098            PQL$_PGFLQUOTA = 00000007            VERIFYX          000003FF R     05
PHD$L_R5         0000009C            PQL$_PRCLM     = 00000008            VFY_CLEANUP      00000400 RG    05
PHD$L_R6         000000A0            PQL$_TQELM     = 00000009            WORD           = 00000002  G
PHD$L_R7         000000A4            PQL$_WSDEFAULT = 0000000B            WRITE_MSG2       ********   X   05
PHD$L_R8         000000A8            PQL$_WSQUOTA   = 0000000A
PHD$L_R9         000000AC            PRIVMASK         00000000 R     04
PHD$L_REFERFLT   00000014            PROCESS_ERR      ********   X   05
PHD$L_SSP        00000080            PRV$V_ALLSPOOL = 00000004
PHD$L_USP        00000084            PRV$V_BUGCHK   = 00000017
PHD$L_WSL        00000118            PRV$V_CMEXEC   = 00000001
PHD$M_DALCSTX  = 00000002            PRV$V_CMKRNL   = 00000000
PHD$M_PFMFLG   = 00000001            PRV$V_DETACH   = 00000005
PHD$M_WSPEAKCHK= 00000004            PRV$V_DIAGNOSE = 00000006
PHD$Q_PRIVMSK    00000000            PRV$V_EXQUOTA  = 00000013
PHD$S_ASTLVL   = 00000008            PRV$V_GROUP    = 00000008
PHD$S_P0LR     = 00000018            PRV$V_GRPNAM   = 00000003
PHD$V_ASTLVL   = 00000018            PRV$V_LOG_IO   = 00000007
PHD$V_DALCSTX  = 00000001            PRV$V_MOUNT    = 00000011
PHD$V_P0LR     = 00000000            PRV$V_NETMBX   = 00000014
PHD$V_PFMFLG   = 00000000            PRV$V_NOACNT   = 00000009
PHD$V_WSPEAKCHK= 00000002            PRV$V_OPER     = 00000012
PHD$W_ASTLM      00000044            PRV$V_PHY_IO   = 00000016
PHD$W_BAK        00000048            PRV$V_PRMCEB   = 0000000A
PHD$W_DFWSCNT    0000001A            PRV$V_PRMGBL   = 00000018
PHD$W_EMPTPG     000000D8            PRV$V_PRMMBX   = 0000000B
SATSSS41        SATS SYSTEM SERVICE TESTS  $EXIT (SUCC S.C.)     22-AUG-1978 04:06:08   VAX-11 MACRO X0.3-11               Page  17
PROGRAM SECTION SYNOPSIS                                                                                                         (1)


PROGRAM SECTION SYNOPSIS

.  ABS  .        00000000      00     NOPIC   USR   CON   ABS   LCL NOSHR NOEXE NORD  NOWRT BYTE
. BLANK .        00000000      01     NOPIC   USR   CON   REL   LCL NOSHR   EXE   RD    WRT BYTE
$ABS$            0000011C      02     NOPIC   USR   CON   ABS   LCL NOSHR   EXE   RD    WRT BYTE
RODATA           000000A7      03     NOPIC   USR   CON   REL   LCL NOSHR NOEXE   RD  NOWRT LONG
RWDATA           00000187      04     NOPIC   USR   CON   REL   LCL NOSHR NOEXE   RD    WRT LONG
SATSSS41         00000401      05     NOPIC   USR   CON   REL   LCL NOSHR   EXE   RD    WRT BYTE


THERE WERE NO ERRORS OR WARNINGS.
10608. BYTES LEFT IN FREE MEMORY POOL.
1260. BYTES OF RECLAIMED MEMORY.
OBJ$:SATSSS41,LIS$:SATSSS41/-SP=EXECML$/ML,LIB$:SYSTST.MLB/ML,SRC$:SATSSS41
53 MLB DIR RDS - 868 GETS TO DEFINE 34 MACROS. 41 INTER. FILE WRITES.
