SATSSF09        - SATS SYSTEM SERVICE TESTS  (FAILING S.C.)      22-AUG-1978 03:47:45   VAX-11 MACRO X0.3-11               Page   0
TABLE OF CONTENTS

   (1)      46  DECLARATIONS
   (1)     230  SATSSF09
   (1)     317  SFGDV10
   (1)     339  SFGDV11
   (1)     361  SFGDV12
   (1)     383  SFGDV13
   (1)     405  SFGDV14
   (1)     427  SFGDV20
   (1)     450  SFGDV30
   (1)     473  SFGDV31
   (1)     495  SFGDV40
   (1)     518  SFGDV50
   (1)     541  SFGDV51
   (1)     563
   (1)     567  SFGCH10
   (1)     591  SFGCH11
   (1)     613  SFGCH12
   (1)     639  SFGCH20
   (1)     665  SFGCH30
   (1)     688  SFGCH31
   (1)     710  SFGCH40
   (1)     733  SFGCH50
   (1)     756  SFGCH51
   (1)     778
   (1)     782  SFASN10
   (1)     804  SFASN11
   (1)     826  SFASN12
   (1)     848  SFASN20
   (1)     870  SFASN40
   (1)     892  SFASN41
   (1)     914  SFASN42
   (1)     936  SFASN43
   (1)     958
   (1)     962  SFDAS10
   (1)     988  SFDAS11
   (1)    1013  SFDAS12
   (1)    1035
   (1)    1039  SFDMX10
   (1)    1065  SFDMX11
   (1)    1094  SFDMX12
   (1)    1118  SFDMX13
   (1)    1140  SFDMX14
   (1)    1164
   (1)    1269  EXECUTE & CLEANUP
   (1)    1281  TC_CONTROL
   (1)    1362  SUBROUTINES
SATSSF09        - SATS SYSTEM SERVICE TESTS  (FAILING S.C.)      22-AUG-1978 03:47:45   VAX-11 MACRO X0.3-11               Page   1
1.0                                                                                                                              (1)

                                     0000     1 	.TITLE	SATSSF09 - SATS SYSTEM SERVICE TESTS  (FAILING S.C.)
                                     0000     2 	.IDENT	/1.0/
                                     0000     3
                                     0000     4 ;
                                     0000     5 ;			  COPYRIGHT (c) 1977,1978 BY
                                     0000     6 ;	      DIGITAL EQUIPMENT CORPORATION, MAYNARD, MASS.
                                     0000     7 ;
                                     0000     8 ; THIS SOFTWARE IS FURNISHED UNDER A LICENSE AND MAY BE USED AND  COPIED
                                     0000     9 ; ONLY  IN  ACCORDANCE  WITH  THE  TERMS  OF  SUCH  LICENSE AND WITH THE
                                     0000    10 ; INCLUSION OF THE ABOVE COPYRIGHT NOTICE.  THIS SOFTWARE OR  ANY  OTHER
                                     0000    11 ; COPIES  THEREOF MAY NOT BE PROVIDED OR OTHERWISE MADE AVAILABLE TO ANY
                                     0000    12 ; OTHER PERSON.  NO TITLE TO AND OWNERSHIP OF  THE  SOFTWARE  IS  HEREBY
                                     0000    13 ; TRANSFERRED.
                                     0000    14 ;
                                     0000    15 ; THE INFORMATION IN THIS SOFTWARE IS SUBJECT TO CHANGE  WITHOUT  NOTICE
                                     0000    16 ; AND  SHOULD  NOT  BE  CONSTRUED  AS  A COMMITMENT BY DIGITAL EQUIPMENT
                                     0000    17 ; CORPORATION.
                                     0000    18 ;
                                     0000    19 ; DIGITAL ASSUMES NO RESPONSIBILITY FOR THE USE OR  RELIABILITY  OF  ITS
                                     0000    20 ; SOFTWARE ON EQUIPMENT WHICH IS NOT SUPPLIED BY DIGITAL.
                                     0000    21 ;
                                     0000    22
                                     0000    23 ;++
                                     0000    24 ; FACILITY:	SATS SYSTEM SERVICE TESTS
                                     0000    25 ;
                                     0000    26 ; ABSTRACT:	THE SATSSF09 MODULE TESTS THE EXECUTION OF CERTAIN
                                     0000    27 ; VMS SYSTEM SERVICES, INVOKED IN SUCH A WAY AS TO EXPECT FAILING
                                     0000    28 ; STATUS CODES. THE SYSTEM SERVICES TESTED AND THE STATUS CODES
                                     0000    29 ; EXPECTED ARE SUMMARIZED AS ARGUMENTS TO THE TESTSERV MACROS
                                     0000    30 ; WHICH APPEAR NEAR THE END OF THIS LISTING. SUCCESSFUL STATUS
                                     0000    31 ; CODES ARE TESTED IN OTHER MODULES.
                                     0000    32 ;
                                     0000    33 ;
                                     0000    34 ; ENVIRONMENT:	USER MODE IMAGE; NEEDS CMKRNL PRIVILEGE,
                                     0000    35 ;		DYNAMICALLY ACQUIRES OTHER PRIVILEGES, AS NEEDED.
                                     0000    36 ;
                                     0000    37 ; AUTHOR: THOMAS L. CAFARELLA,		CREATION DATE: MMM, 1978
                                     0000    38 ;	  PAUL D. FAY (DISPSERV & TESTSERV MACROS)
                                     0000    39 ;
                                     0000    40 ; MODIFIED BY:
                                     0000    41 ;
                                     0000    42 ;	, : VERSION
                                     0000    43 ; 01	-
                                     0000    44 ;--
SATSSF09        - SATS SYSTEM SERVICE TESTS  (FAILING S.C.)      22-AUG-1978 03:47:45   VAX-11 MACRO X0.3-11               Page   2
1.0             DECLARATIONS                                                                                                     (1)

                                     0000    46 	.SBTTL	DECLARATIONS
                                     0000    47 ;
                                     0000    48 ; INCLUDE FILES:
                                     0000    49 ;
                                     0000    50 	$PHDDEF				; PROCESS HEADER OFFSET SYMBOLS
                                     0000    51 	$PCBDEF				; PROCESS CONTROL BLOCK OFFSET SYMBS
                                     0000    52 	$STSDEF				; STATUS MESSAGE SYMBOLS
                           00000003  0000    53 	.MDELETE ($PHDDEF,$PCBDEF,$STSDEF) ; GET RID OF MACRO DEFINITIONS
                                     0000    54 	$PRVDEF				; SYMBOL DEFS FOR PRIVILEGES
                                     0000    55 	$UETPDEF			; UETP MSG CODE DEFINITIONS
                                     0000    56 	$SHR_MESSAGES UETP,116,<<TEXT,INFO>>
                                     0000    57 					; DEFINE UETP$_TEXT
                           00000004  0000    58 	.MDELETE ($PRVDEF,$UETPDEF,$SHR_MESSAGES,$SHRDEF)
                                     0000    59 					; GET RID OF MACRO DEFINITIONS
                                     0000    60 	$PSLDEF				; ACCESS MODE SYMBOLS
                                     0000    61 ;
                                     0000    62 ; MACROS:
                                     0000    63 ;
                                     0000    64 ;
                                     0000    65 ; EQUATED SYMBOLS:
                                     0000    66 ;
                           00000000  0000    67 WARNING		= 0			; WARNING SEVERITY VALUE FOR MSGS
                           00000001  0000    68 SUCCESS		= 1			; SUCCESS SEVERITY VALUE FOR MSGS
                           00000002  0000    69 ERROR		= 2			; ERROR SEVERITY VALUE FOR MSGS
                           00000003  0000    70 INFO		= 3			; INFORMATIONAL SEV VALUE FOR MSGS
                           00000004  0000    71 SEVERE		= 4			; SEVERE (FATAL) SEV VALUE FOR MSGS
                           00000000  0000    72 TCG_NO		=  0			; INITIALIZE TEST CASE GROUP NUMBER
                           00000000  0000    73 GRP_TOTAL	=  0			; INITIALIZE TEST CASE GROUP TOTAL
                           00007FFF  0000    74 R0_THRU_SP	= ^M<R0,R1,R2,R3,R4,R5,R6,R7,R8,R9,R10,R11,AP,FP,SP>
                           00000000  0000    75 MBXNAM_ASN	= 0		; MBXNAM ARG FOR $ASSIGN (MISSING ARG)
                                     0000    76 ;
                                     0000    77 ; OWN STORAGE:
                                     0000    78 ;
SATSSF09        - SATS SYSTEM SERVICE TESTS  (FAILING S.C.)      22-AUG-1978 03:47:45   VAX-11 MACRO X0.3-11               Page   3
1.0             DECLARATIONS                                                                                                     (1)

                                 00000000    80 	.PSECT	RODATA,RD,NOWRT,NOEXE,LONG
                                     0000    81 REG_COMP_MASK:	.WORD	^M<R2,R3,R4,R5,R6,R7,R8,R9,R10,R11,AP,FP> ! ^X8000 -
                               BFFC  0000    82 					; REG COMPARE MASK (HIGH-ORDER ...
                                     0002    83 					; ... BIT MUST BE ON
                                     0002    84 ERR_MSG_FAOCTL:	STRING	I,<!/!AC!1ZB!1ZB: REGISTER !2UW CONTENTS ALTERED>, -
                                     0002    85 		<;  BEFORE SERVICE CALL: !8XL   AFTER SERVICE CALL: !8XL>
                                     006E    86 TEST_MOD_NAME:	STRING	C,<SATSSF09>	; TEST MODULE NAME
                                     0077    87 TEST_MOD_BEG:	STRING	C,<begun>	; DISPOSITION FIELD OF TEST MOD MSG
                                     007D    88 TEST_MOD_SUCC:	STRING	C,<successful>	; DISPOSITION FIELD OF TEST MOD MSG
                                     0088    89 TEST_MOD_FAIL:	STRING	C,<failed>	; DISPOSITION FIELD OF TEST MOD MSG
                                     008F    90 TEST_MOD_NAME_D: STRING	I,<SATSSF09>	; TEST MODULE NAME DESCRIPTOR
                                     009F    91 TTNAME:     	STRING  I,<TT>		; TERMINAL LOGICAL NAME
                  00000000'00000000' 00A9    92 INADR:		.LONG	NOACCESS,NOACCESS ; PAGE ADDRESS OF NOACCESS PSECT
                           00000000' 00B1    93 PROT:		.LONG	PRT$C_NA	; PROTECTION CODE FOR NOACCESS PSECT
                  FFFFFFFF FFFFFFFF  00B5    94 ONES:		.LONG	-1,-1		; A QUADWORD OF 1-BITS
                                     00BD    95 DEVNAM_GDV:				; DEVNAM ARGUMENT FOR GETDEV
                                     00BD    96 DEVNAM_ASN:				; DEVNAM ARGUMENT FOR ASSIGN
                                     00BD    97 MBXNAM_ASN42:				; MBXNAM ARGUMENT FOR ASSIGN
                                     00BD    98 		STRING	I,<SYS$DISK>
                                     00CD    99 DEVNAM_GDV10:	STRING	I,<_$$>		; DEVNAM ARGUMENT FOR GETDEV
                                     00D8   100 DEVNAM_GDV11:				; DEVNAM ARGUMENT FOR GETDEV
                                     00D8   101 DEVNAM_ASN10:				; DEVNAM ARGUMENT FOR ASSIGN
                           00000000  00D8   102 		.LONG	0
                           000000DC' 00DC   103 		.ADDRESS .		; ...........
                                     00E0   104 DEVNAM_GDV12:				; DEVNAM ARGUMENT FOR GETDEV
                                     00E0   105 MBXNAM_ASN40:				; MBXNAM ARGUMENT FOR ASSIGN
                                     00E0   106 		STRING	I,   -
                                     00E0   107 		  <SIXTY-FOUR CHARACTERS>,  -
                                     00E0   108 		  <$$$$$$$$$$$$$$$$$$$$$$>, -
                                     00E0   109 		  <$$$$$$$$$$$$$$$$$$$$$>
                                     0128   110 DEVNAM_GDV13:				; DEVNAM ARGUMENT FOR GETDEV
                                     0128   111 DEVNAM_ASN11:				; DEVNAM ARGUMENT FOR ASSIGN
                                     0128   112 		STRING	I,<_ZZA0:>
                                     0136   113 PRILEN_GDV20:				; PRILEN ARGUMENT FOR GETDEV
                                     0136   114 SECLEN_GDV40:				; SECLEN ARGUMENT FOR GETDEV
                                     0136   115 PRILEN_GCH20:				; PRILEN ARGUMENT FOR GETCHN
                                     0136   116 SECLEN_GCH40:				; SECLEN ARGUMENT FOR GETCHN
                           00000138  0136   117 		.BLKW	1
                                     0138   118 PRIBUF_GDV31:				; PRIBUF ARGUMENT FOR GETDEV
                                     0138   119 SECBUF_GDV51:				; SECBUF ARGUMENT FOR GETDEV
                                     0138   120 PRIBUF_GCH31:				; PRIBUF ARGUMENT FOR GETCHN
                                     0138   121 SECBUF_GCH51:				; SECBUF ARGUMENT FOR GETCHN
                                     0138   122 		STRING	O,100
                                     01A4   123 MY_DISK:	STRING	I,<SYS$DISK>	; LOGICAL NAME FOR USER DISK
                                     01B4   124 CHAN_GCH10:				; CHAN ARGUMENT FOR GETCHN
                                     01B4   125 CHAN_DAS11:				; CHAN ARGUMENT FOR DASSGN
                                     01B4   126 CHAN_DMX12:				; CHAN ARGUMENT FOR DELMBX
                           00000000  01B4   127 		.LONG	0
                                     01B8   128 CHAN_GCH11:				; CHAN ARGUMENT FOR GETCHN
                                     01B8   129 CHAN_DAS12:				; CHAN ARGUMENT FOR DASSGN
                                     01B8   130 CHAN_DMX13:				; CHAN ARGUMENT FOR DELMBX
                           3B9ACA00  01B8   131 		.LONG	1000000000
                           000001C0  01BC   132 CHAN_ASN20:	.BLKL	1		; CHAN ARGUMENT FOR ASSIGN
                           00000003  01C0   133 ACMODE_ASN:	.LONG	PSL$C_USER	; ACMODE ARGUMENT FOR ASSIGN
                                     01C4   134 MBXNAM_ASN41:	STRING	I,<_??>		; MBXNAM ARGUMENT FOR ASSIGN
SATSSF09        - SATS SYSTEM SERVICE TESTS  (FAILING S.C.)      22-AUG-1978 03:47:45   VAX-11 MACRO X0.3-11               Page   4
1.0             DECLARATIONS                                                                                                     (1)

                                 00000000   136 	.PSECT	RWDATA,RD,WRT,NOEXE
                           00000004  0000   137 TPID:		.BLKL	1		; PROCESS ID FOR THIS PROCESS
                           00000008  0004   138 CURRENT_TC:	.BLKL	1 		; PTR TO CURRENT TEST CASE
                           00000044  0008   139 REG_SAVE_AREA:	.BLKL	15		; SAVE AREA FOR ALL REGS (SANS PC)
                           007480D9  0044   140 MOD_MSG_CODE:	.LONG	UETP$_SATSMS	; TEST MODULE MSG CODE FOR PUTMSG
                           0000004C  0048   141 CLOB_REG_NO:	.BLKL	1		; CLOBBERED REG NO (FOR FAO ERR MSG)
                           00000050  004C   142 REG_BEFORE_SS:	.BLKL	1		; REG CONTENTS BEFORE S.S.
                                     0050   143 					; ... (FOR FAO ERROR MSG)
                           00000054  0050   144 REG_AFTER_SS:	.BLKL	1		; REG CONTENTS AFTER S.S.
                                     0054   145 					; ... (FOR FAO ERROR MSG)
                                     0054   146 $$TSTN$$:	STRING	C,<  SF   >	; ASCII PORTION OF TEST CASE NAME
                           0000006E' 005C   147 TMN_ADDR:	.ADDRESS TEST_MOD_NAME	; ADDR OF TEST MOD NAME FOR FAO
                           00000077' 0060   148 TMD_ADDR:	.ADDRESS TEST_MOD_BEG	; ADDR OF T.M. DISP FIELD FOR FAO
                           00000068  0064   149 TS_EP:		.BLKL	1		; ENTRY PNT FOR CURR TESTSERV MACRO
                           00000070  0068   150 RETADR:		.BLKL	2		; RETURN LONGWORDS FOR SETPRT
                           00000071  0070   151 PRVPRT:		.BLKB	1		; PROT RETURN BYTE FOR SETPRT
                           00000079  0071   152 PRIVMASK:	.BLKQ	1		; ADDR OF PRIVILEGE MASK (IN PHD)
                           0000007D  0079   153 CHM_CONT:	.BLKL	1		; CHANGE MODE CONTINUE ADDRESS
                           00000091  007D   154 REGS:		.BLKL	5		; AREA FOR COND INDEX REGS (R2-R6)
                                     0091   155 PRILEN_GDV:				; PRILEN ARGUMENT FOR GETDEV
                                     0091   156 SECLEN_GDV:				; SECLEN ARGUMENT FOR GETDEV
                                     0091   157 PRILEN_GCH:				; PRILEN ARGUMENT FOR GETCHN
                                     0091   158 SECLEN_GCH:				; SECLEN ARGUMENT FOR GETCHN
                           00000093  0091   159 		.BLKW	1
                                     0093   160 PRIBUF_GDV:				; PRIBUF ARGUMENT FOR GETDEV
                                     0093   161 SECBUF_GDV:				; SECBUF ARGUMENT FOR GETDEV
                                     0093   162 PRIBUF_GCH:				; PRIBUF ARGUMENT FOR GETCHN
                                     0093   163 SECBUF_GCH:				; SECBUF ARGUMENT FOR GETCHN
                                     0093   164 		STRING	O,100
                                     00FF   165 PRIBUF_GDV30:				; PRIBUF ARGUMENT FOR GETDEV
                                     00FF   166 PRIBUF_GCH30:				; PRIBUF ARGUMENT FOR GETCHN
                                     00FF   167 		STRING	O,1
                                     0108   168 SECBUF_GDV50:				; SECBUF ARGUMENT FOR GETDEV
                                     0108   169 SECBUF_GCH50:				; SECBUF ARGUMENT FOR GETCHN
                           00000000  0108   170 		.LONG	0
                           0000010C' 010C   171 		.ADDRESS .		; .............
                           00000000  0110   172 CHAN_GCH:	.LONG	0		; CHAN ARGUMENT FOR GETCHN
                           00000000  0114   173 CHAN_GCH12:	.LONG	0		; CHAN ARGUMENT FOR GETCHN
                           0000011A  0118   174 CHAN_ASN:	.BLKW	1		; CHAN ARGUMENT FOR ASSIGN
                           00000000  011A   175 CHAN_DAS:	.LONG	0		; CHAN ARGUMENT FOR DASSGN
                           00000000  011E   176 CHAN_DAS10:	.LONG	0		; CHAN ARGUMENT FOR DASSGN
                           00000000  0122   177 CHAN_DMX:	.LONG	0		; CHAN ARGUMENT FOR DELMBX
                           00000000  0126   178 CHAN_DMX10:	.LONG	0		; CHAN ARGUMENT FOR DELMBX
                           00000000  012A   179 CHAN_DMX11:	.LONG	0		; CHAN ARGUMENT FOR DELMBX
                           00000000  012E   180 CHAN_DMX14:	.LONG	0		; CHAN ARGUMENT FOR DELMBX
SATSSF09        - SATS SYSTEM SERVICE TESTS  (FAILING S.C.)      22-AUG-1978 03:47:45   VAX-11 MACRO X0.3-11               Page   5
1.0             DECLARATIONS                                                                                                     (1)

                                 00000000   182 	.PSECT	SATS_ACCVIO_1,RD,WRT,NOEXE,PAGE
                           00000200  0000   183 EMPTY:		.BLKB	512		; RESERVE A PAGE OF SPACE
                                     0200   184 ;
                                     0200   185 ; +
                                     0200   186 ; ******************************************************************
                                     0200   187 ; *                                                                *
                                     0200   188 ; * 	THE ORDER OF STATEMENTS IN THIS PSECT IS CRITICAL.         *
                                     0200   189 ; *	DO NOT RE-ARRANGE THE VARIABLES. CONSULT SATS              *
                                     0200   190 ; *	FUNCTIONAL SPECIFICATION FOR A DESCRIPTION OF THE USE      *
                                     0200   191 ; *	OF THE EMPTY PSECT (AND ITS COMPANION PSECT, NOACCESS).    *
                                     0200   192 ; *                                                                *
                                     0200   193 ; ******************************************************************
                                     0200   194 ; -
                                     0200   195 ;
                                     0200   196 ; TYPE AAAAA_SSSX1 (TYPE AAAAA_SSSX2 IF NOT DESC) GO HERE:
                           000001F3  0200   197 		. = . - 13		; ALLOW ROOM FOR STRING DESCRIPTOR
                                     01F3   198 ; TYPE AAAAA_SSSX5 GO HERE:
                           00000006  01F3   199 		.LONG	6		; STRING LENGTH (WILL CROSS PSECT BOUNDARY)
                           000001FB' 01F7   200 		.ADDRESS .+4		; STRING ADDRESS
                                     01FB   201 ; TYPE AAAAA_SSSX3 GO HERE:
                           000001FC  01FB   202 		.BLKB	1		; LOW-ORDER BYTE OF STRING LENGTH
                                     01FC   203 ; TYPE AAAAA_SSSX2 GO HERE:
                           00000200  01FC   204 		.BLKL	1		; STRING LENGTH
                                     0200   205 ;
                                     0200   206 ;
                                     0200   207 ;
                                     0200   208 ;
                                 00000000   209 	.PSECT	SATS_ACCVIO_2,RD,WRT,NOEXE,PAGE
                           00000200  0000   210 NOACCESS:	.BLKB	512		; RESERVE A PAGE OF SPACE
                           00000000  0200   211 		. = . - 512		; RETURN LOC CTR TO BEGINNING OF PSECT
                           00000000' 0000   212 		.ADDRESS EMPTY		; ADDRESS OF ACCESSIBLE STRING
                           00000000' 0004   213 		.ADDRESS EMPTY/^X100 	; ADDRESS OF ACCESSIBLE STRING
                                     0008   214 ;+
                                     0008   215 ; *** NOTE -- DO NOT CHANGE LOCATION OR SEQUENCE OF ABOVE STATEMENTS!
                                     0008   216 ; ***         THIS PSECT (NOACCESS) MUST APPEAR IN MEMORY IMMEDIATELY
                                     0008   217 ; ***         FOLLOWING THE EMPTY PSECT. PSECT NAMES AND OPTIONS WILL BE
                                     0008   218 ; ***         CHOSEN TO FORCE THE DESIRED PSECT ORDERING.
                                     0008   219 ;-
                                     0008   220 ;
                                     0008   221 DEVNAM_GDV14:	STRING	I,<SYS$DISK>	; DEVNAM ARGUMENT FOR GETDEV
                                     0018   222 DEVNAM_ASN12:	STRING	I,<SYS$DISK>	; DEVNAM ARGUMENT FOR ASSIGN
                                     0028   223 MBXNAM_ASN43:	STRING	I,<_MB0:>	; MBXNAM ARGUMENT FOR ASSIGN
                                     0035   224 ;
                                     0035   225 ;
                                     0035   226 ;
                           00000001  0035   227 	.MDELETE (STRING)		; NO LONGER NEED MACRO DEFINITION
                                 00000000   228 	.PSECT	SATSSF09,RD,WRT,EXE,LONG
SATSSF09        - SATS SYSTEM SERVICE TESTS  (FAILING S.C.)      22-AUG-1978 03:47:45   VAX-11 MACRO X0.3-11               Page   6
1.0             SATSSF09                                                                                                         (1)

                                     0000   230 	.SBTTL	SATSSF09
                                     0000   231 ;++
                                     0000   232 ; FUNCTIONAL DESCRIPTION:
                                     0000   233 ;
                                     0000   234 ;		AFTER PERFORMING SOME INITIAL HOUSEKEEPING, SUCH AS
                                     0000   235 ; PRINTING THE MODULE BEGIN MESSAGE AND ACQUIRING ALL PRIVILEGES,
                                     0000   236 ; THE SATSSF09 ROUTINE EXECUTES THE TEST_SERV_EXEC MACRO TO RUN
                                     0000   237 ; ALL TEST CASES. WHEN THE MACRO COMPLETES ITS EXECUTION, SATSSF09
                                     0000   238 ; PRINTS A TEST MODULE SUCCESS OR FAIL MESSAGE AND EXITS TO THE
                                     0000   239 ; OPERATING SYSTEM. TEST_SERV_EXEC CALLS THE TC_CONTROL/TESTSERV
                                     0000   240 ; CO-ROUTINE PAIR ONCE PER TEST CASE GROUP TO EXECUTE ALL TEST
                                     0000   241 ; CASES IN THAT GROUP. EACH TEST CASE GROUP IS DEFINED BY BOUNDING
                                     0000   242 ; ITS TEST CASES WITH A TC_GROUP MACRO BEFORE THE FIRST TEST CASE
                                     0000   243 ; AND A TCEND MACRO AFTER THE LAST ONE. THE TEST CASES THEMSELVES
                                     0000   244 ; ARE DEFINED WITHIN THESE BOUNDS BY PRECEDING EACH WITH A
                                     0000   245 ; NEXT_TEST_CASE MACRO. TC_CONTROL/TESTSERV EXECUTES THE CODE
                                     0000   246 ; FOLLOWING EACH NEXT_TEST_CASE MACRO IMMEDIATELY BEFORE ISSUING
                                     0000   247 ; THE SYSTEM SERVICE AS REQUESTED IN THE TESTSERV MACRO. TC_CONTROL/
                                     0000   248 ; TESTSERV ALSO CHECKS THE RESULTS OF THE SERVICE WITH RESPECT
                                     0000   249 ; TO ITS EXPECTED STATUS CODE AND PRINTS ANY REQUIRED FAILURE
                                     0000   250 ; MESSAGES FOR THE TEST CASE. THE CODE APPEARING AFTER EACH
                                     0000   251 ; NEXT_TEST_CASE MACRO IS MERELY TO SET UP CONDITIONS REQUIRED
                                     0000   252 ; FOR THE SYSTEM SERVICE AND TO CLEAN UP ANY RESOURCES ACQUIRED
                                     0000   253 ; BY THE PREVIOUS TEST CASE.
                                     0000   254 ;
                                     0000   255 ; CALLING SEQUENCE:
                                     0000   256 ;
                                     0000   257 ;	$ RUN SATSSF09  ...  (DCL COMMAND)
                                     0000   258 ;
                                     0000   259 ; INPUT PARAMETERS:
                                     0000   260 ;
                                     0000   261 ;	NONE
                                     0000   262 ;
                                     0000   263 ; IMPLICIT INPUTS:
                                     0000   264 ;
                                     0000   265 ;	NONE
                                     0000   266 ;
                                     0000   267 ; OUTPUT PARAMETERS:
                                     0000   268 ;
                                     0000   269 ;	NONE
                                     0000   270 ;
                                     0000   271 ; IMPLICIT OUTPUTS:
                                     0000   272 ;
                                     0000   273 ;	MESSAGES TO SYS$OUTPUT ARE THE ONLY OUTPUT FROM SATSSF09.
                                     0000   274 ;	THEY ARE OF THE FORM:
                                     0000   275 ;
                                     0000   276 ;		%UETP-S-SATSMS, TEST MODULE SATSSF09 BEGUN ... (BEGIN MSG)
                                     0000   277 ;		%UETP-S-SATSMS, TEST MODULE SATSSF09 SUCCESSFUL ... (END MSG)
                                     0000   278 ;		%UETP-E-SATSMS, TEST MODULE SATSSF09 FAILED ... (END MSG)
                                     0000   279 ;		%UETP-I-TEXT, ... (VARIABLE INFORMATION ABOUT A TEST MODULE FAILURE)
                                     0000   280 ;
                                     0000   281 ; COMPLETION CODES:
                                     0000   282 ;
                                     0000   283 ;	THE SATSSF09 ROUTINE TERMINATES WITH A $EXIT TO THE
                                     0000   284 ;	OPERATING SYSTEM WITH A STATUS CODE DEFINED BY UETP$_SATSMS.
                                     0000   285 ;
                                     0000   286 ; SIDE EFFECTS:
SATSSF09        - SATS SYSTEM SERVICE TESTS  (FAILING S.C.)      22-AUG-1978 03:47:45   VAX-11 MACRO X0.3-11               Page   7
1.0             SATSSF09                                                                                                         (1)

                                     0000   287 ;
                                     0000   288 ;	NONE
                                     0000   289 ;
                                     0000   290 ;--
                                     0000   291
                                     0000   292
                                     0000   293
                                     0000   294 SATSSF09:
                               0FFC  0000   295 	.WORD	^M<R2,R3,R4,R5,R6,R7,R8,R9,R10,R11>
                                     0002   296 					; ENTRY MASK
                                     0002   297 	$WAKE_S  TPID			; GET PID OF THIS PROCESS
                                     0011   298 	$HIBER_S			; UNDO WAKE
                                     0018   299 	$SETPRN_S TEST_MOD_NAME_D 	; SET PROCESS NAME
                          1334   30  0025   300 	BSBW	MOD_MSG_PRINT		; PRINT TEST MODULE BEGIN MSG
   00000060'EF   0000007D'EF     DE  0028   301 	MOVAL	TEST_MOD_SUCC,TMD_ADDR	; ASSUME END MSG WILL SHOW SUCCESS
            00            01     F0  0033   302 	INSV	#SUCCESS,#0,#3,MOD_MSG_CODE ; ADJUST STATUS CODE FOR SUCCESS
   00000044'EF            03         0036
                                     003C   303 	MODE	TO,10$,KRNL,NOREGS 	; KERNEL MODE TO ACCESS PHD
            59   00000000'9F     D0  0059   304 	MOVL	@#CTL$GL_PHD,R9		; GET PROCESS HEADER ADDRESS
   00000071'EF            69     DE  0060   305 	MOVAL	PHD$Q_PRIVMSK(R9),PRIVMASK ; GET PRIV MASK ADDRESS
                                     0067   306 	MODE	FROM,10$		; GET BACK TO USER MODE
                                     0068   307 	PRIV	ADD,ALL			; GET ALL PRIVILEGES
                                     0091   308 	DISPSERV			; SET UP DISPLAY INFO FOR TESTSERV
                                     0226   309 	$SETPRT_S INADR=INADR, RETADR=RETADR, -
                                     0226   310 		  PROT=PROT, PRVPRT=PRVPRT
                                     0247   311 					; SET NOACCESS PSECT ...
                                     0247   312 					; ... FOR NO USER ACCESS
                          0FA5   31  0247   313 	BRW	EXECUTE			; GO EXECUTE ALL TEST CASES
                                     024A   314 ;
                                     024A   315 	TC_GROUP	GDV,1,TS1
                                     0271   316 ;
                                     0271   317 	NEXT_TEST_CASE	SFGDV10
SATSSF09        - SATS SYSTEM SERVICE TESTS  (FAILING S.C.)      22-AUG-1978 03:47:45   VAX-11 MACRO X0.3-11               Page   8
1.0             SFGDV10                                                                                                          (1)

                                     0271   318 ;
                                     0271   319 ;++
                                     0271   320 ; ******************************************************
                                     0271   321 ; *
                                     0271   322 ; *  TEST CASE NAME:		SFGDV10
                                     0271   323 ; *
                                     0271   324 ; *  SYSTEM SERVICE:		GETDEV
                                     0271   325 ; *
                                     0271   326 ; *  ARGUMENT UNDER TEST: 	DEVNAM_GDV10
                                     0271   327 ; *
                                     0271   328 ; *  INPUT CONDITIONS:
                                     0271   329 ; *	INVALID CHARACTERS IN DEVICE NAME
                                     0271   330 ; *
                                     0271   331 ; *  EXPECTED RESULTS:
                                     0271   332 ; *	1) SYSTEM STATUS CODE:	IVDEVNAM
                                     0271   333 ; *	2) REGISTERS R2 THROUGH FP UNCHANGED
                                     0271   334 ; *
                                     0271   335 ; ******************************************************
                                     0271   336 ;--
                                     0271   337 ;
                                     0271   338 ;
                                     0271   339 	NEXT_TEST_CASE	SFGDV11
SATSSF09        - SATS SYSTEM SERVICE TESTS  (FAILING S.C.)      22-AUG-1978 03:47:45   VAX-11 MACRO X0.3-11               Page   9
1.0             SFGDV11                                                                                                          (1)

                                     027D   340 ;
                                     027D   341 ;++
                                     027D   342 ; ******************************************************
                                     027D   343 ; *
                                     027D   344 ; *  TEST CASE NAME:		SFGDV11
                                     027D   345 ; *
                                     027D   346 ; *  SYSTEM SERVICE:		GETDEV
                                     027D   347 ; *
                                     027D   348 ; *  ARGUMENT UNDER TEST: 	DEVNAM_GDV11
                                     027D   349 ; *
                                     027D   350 ; *  INPUT CONDITIONS:
                                     027D   351 ; *	ZERO LENGTH DEVICE NAME
                                     027D   352 ; *
                                     027D   353 ; *  EXPECTED RESULTS:
                                     027D   354 ; *	1) SYSTEM STATUS CODE:	IVLOGNAM
                                     027D   355 ; *	2) REGISTERS R2 THROUGH FP UNCHANGED
                                     027D   356 ; *
                                     027D   357 ; ******************************************************
                                     027D   358 ;--
                                     027D   359 ;
                                     027D   360 ;
                                     027D   361 	NEXT_TEST_CASE	SFGDV12
SATSSF09        - SATS SYSTEM SERVICE TESTS  (FAILING S.C.)      22-AUG-1978 03:47:45   VAX-11 MACRO X0.3-11               Page  10
1.0             SFGDV12                                                                                                          (1)

                                     0289   362 ;
                                     0289   363 ;++
                                     0289   364 ; ******************************************************
                                     0289   365 ; *
                                     0289   366 ; *  TEST CASE NAME:		SFGDV12
                                     0289   367 ; *
                                     0289   368 ; *  SYSTEM SERVICE:		GETDEV
                                     0289   369 ; *
                                     0289   370 ; *  ARGUMENT UNDER TEST: 	DEVNAM_GDV12
                                     0289   371 ; *
                                     0289   372 ; *  INPUT CONDITIONS:
                                     0289   373 ; *	DEVICE NAME IS 64 CHARACTERS LONG.
                                     0289   374 ; *
                                     0289   375 ; *  EXPECTED RESULTS:
                                     0289   376 ; *	1) SYSTEM STATUS CODE:	IVLOGNAM
                                     0289   377 ; *	2) REGISTERS R2 THROUGH FP UNCHANGED
                                     0289   378 ; *
                                     0289   379 ; ******************************************************
                                     0289   380 ;--
                                     0289   381 ;
                                     0289   382 ;
                                     0289   383 	NEXT_TEST_CASE	SFGDV13
SATSSF09        - SATS SYSTEM SERVICE TESTS  (FAILING S.C.)      22-AUG-1978 03:47:45   VAX-11 MACRO X0.3-11               Page  11
1.0             SFGDV13                                                                                                          (1)

                                     0295   384 ;
                                     0295   385 ;++
                                     0295   386 ; ******************************************************
                                     0295   387 ; *
                                     0295   388 ; *  TEST CASE NAME:		SFGDV13
                                     0295   389 ; *
                                     0295   390 ; *  SYSTEM SERVICE:		GETDEV
                                     0295   391 ; *
                                     0295   392 ; *  ARGUMENT UNDER TEST: 	DEVNAM_GDV13
                                     0295   393 ; *
                                     0295   394 ; *  INPUT CONDITIONS:
                                     0295   395 ; *	VALID, NON-EXISTENT DEVICE
                                     0295   396 ; *
                                     0295   397 ; *  EXPECTED RESULTS:
                                     0295   398 ; *	1) SYSTEM STATUS CODE:	NOSUCHDEV
                                     0295   399 ; *	2) REGISTERS R2 THROUGH FP UNCHANGED
                                     0295   400 ; *
                                     0295   401 ; ******************************************************
                                     0295   402 ;--
                                     0295   403 ;
                                     0295   404 ;
                                     0295   405 	NEXT_TEST_CASE	SFGDV14
SATSSF09        - SATS SYSTEM SERVICE TESTS  (FAILING S.C.)      22-AUG-1978 03:47:45   VAX-11 MACRO X0.3-11               Page  12
1.0             SFGDV14                                                                                                          (1)

                                     02A1   406 ;
                                     02A1   407 ;++
                                     02A1   408 ; ******************************************************
                                     02A1   409 ; *
                                     02A1   410 ; *  TEST CASE NAME:		SFGDV14
                                     02A1   411 ; *
                                     02A1   412 ; *  SYSTEM SERVICE:		GETDEV
                                     02A1   413 ; *
                                     02A1   414 ; *  ARGUMENT UNDER TEST: 	DEVNAM_GDV14
                                     02A1   415 ; *
                                     02A1   416 ; *  INPUT CONDITIONS:
                                     02A1   417 ; *	DEVICE NAME IN NON-ACCESSIBLE PSECT.
                                     02A1   418 ; *
                                     02A1   419 ; *  EXPECTED RESULTS:
                                     02A1   420 ; *	1) SYSTEM STATUS CODE:	ACCVIO
                                     02A1   421 ; *	2) REGISTERS R2 THROUGH FP UNCHANGED
                                     02A1   422 ; *
                                     02A1   423 ; ******************************************************
                                     02A1   424 ;--
                                     02A1   425 ;
                                     02A1   426 ;
                                     02A1   427 	NEXT_TEST_CASE	SFGDV20
SATSSF09        - SATS SYSTEM SERVICE TESTS  (FAILING S.C.)      22-AUG-1978 03:47:45   VAX-11 MACRO X0.3-11               Page  13
1.0             SFGDV20                                                                                                          (1)

                                     02AD   428 ;
                                     02AD   429 ;++
                                     02AD   430 ; ******************************************************
                                     02AD   431 ; *
                                     02AD   432 ; *  TEST CASE NAME:		SFGDV20
                                     02AD   433 ; *
                                     02AD   434 ; *  SYSTEM SERVICE:		GETDEV
                                     02AD   435 ; *
                                     02AD   436 ; *  ARGUMENT UNDER TEST: 	PRILEN_GDV20
                                     02AD   437 ; *
                                     02AD   438 ; *  INPUT CONDITIONS:
                                     02AD   439 ; *	PRIMARY CHARACTERISTICS LENGTH FIELD IN
                                     02AD   440 ; *	  READ-ONLY PSECT.
                                     02AD   441 ; *
                                     02AD   442 ; *  EXPECTED RESULTS:
                                     02AD   443 ; *	1) SYSTEM STATUS CODE:	ACCVIO
                                     02AD   444 ; *	2) REGISTERS R2 THROUGH FP UNCHANGED
                                     02AD   445 ; *
                                     02AD   446 ; ******************************************************
                                     02AD   447 ;--
                                     02AD   448 ;
                                     02AD   449 ;
                                     02AD   450 	NEXT_TEST_CASE	SFGDV30
SATSSF09        - SATS SYSTEM SERVICE TESTS  (FAILING S.C.)      22-AUG-1978 03:47:45   VAX-11 MACRO X0.3-11               Page  14
1.0             SFGDV30                                                                                                          (1)

                                     02B9   451 ;
                                     02B9   452 ;++
                                     02B9   453 ; ******************************************************
                                     02B9   454 ; *
                                     02B9   455 ; *  TEST CASE NAME:		SFGDV30
                                     02B9   456 ; *
                                     02B9   457 ; *  SYSTEM SERVICE:		GETDEV
                                     02B9   458 ; *
                                     02B9   459 ; *  ARGUMENT UNDER TEST: 	PRIBUF_GDV30
                                     02B9   460 ; *
                                     02B9   461 ; *  INPUT CONDITIONS:
                                     02B9   462 ; *	PRIMARY CHARACTERISTICS BUFFER (LENGTH 1) IS
                                     02B9   463 ; *	  TOO SHORT FOR INCOMING DATA.
                                     02B9   464 ; *
                                     02B9   465 ; *  EXPECTED RESULTS:
                                     02B9   466 ; *	1) SYSTEM STATUS CODE:	BUFFEROVF
                                     02B9   467 ; *	2) REGISTERS R2 THROUGH FP UNCHANGED
                                     02B9   468 ; *
                                     02B9   469 ; ******************************************************
                                     02B9   470 ;--
                                     02B9   471 ;
                                     02B9   472 ;
                                     02B9   473 	NEXT_TEST_CASE	SFGDV31
SATSSF09        - SATS SYSTEM SERVICE TESTS  (FAILING S.C.)      22-AUG-1978 03:47:45   VAX-11 MACRO X0.3-11               Page  15
1.0             SFGDV31                                                                                                          (1)

                                     02C5   474 ;
                                     02C5   475 ;++
                                     02C5   476 ; ******************************************************
                                     02C5   477 ; *
                                     02C5   478 ; *  TEST CASE NAME:		SFGDV31
                                     02C5   479 ; *
                                     02C5   480 ; *  SYSTEM SERVICE:		GETDEV
                                     02C5   481 ; *
                                     02C5   482 ; *  ARGUMENT UNDER TEST: 	PRIBUF_GDV31
                                     02C5   483 ; *
                                     02C5   484 ; *  INPUT CONDITIONS:
                                     02C5   485 ; *	PRIMARY CHARACTERISTICS BUFFER IN READ-ONLY PSECT.
                                     02C5   486 ; *
                                     02C5   487 ; *  EXPECTED RESULTS:
                                     02C5   488 ; *	1) SYSTEM STATUS CODE:	ACCVIO
                                     02C5   489 ; *	2) REGISTERS R2 THROUGH FP UNCHANGED
                                     02C5   490 ; *
                                     02C5   491 ; ******************************************************
                                     02C5   492 ;--
                                     02C5   493 ;
                                     02C5   494 ;
                                     02C5   495 	NEXT_TEST_CASE	SFGDV40
SATSSF09        - SATS SYSTEM SERVICE TESTS  (FAILING S.C.)      22-AUG-1978 03:47:45   VAX-11 MACRO X0.3-11               Page  16
1.0             SFGDV40                                                                                                          (1)

                                     02D1   496 ;
                                     02D1   497 ;++
                                     02D1   498 ; ******************************************************
                                     02D1   499 ; *
                                     02D1   500 ; *  TEST CASE NAME:		SFGDV40
                                     02D1   501 ; *
                                     02D1   502 ; *  SYSTEM SERVICE:		GETDEV
                                     02D1   503 ; *
                                     02D1   504 ; *  ARGUMENT UNDER TEST: 	SECLEN_GDV40
                                     02D1   505 ; *
                                     02D1   506 ; *  INPUT CONDITIONS:
                                     02D1   507 ; *	SECONDARY CHARACTERISTICS LENGTH FIELD IN
                                     02D1   508 ; *	  READ-ONLY PSECT.
                                     02D1   509 ; *
                                     02D1   510 ; *  EXPECTED RESULTS:
                                     02D1   511 ; *	1) SYSTEM STATUS CODE:	ACCVIO
                                     02D1   512 ; *	2) REGISTERS R2 THROUGH FP UNCHANGED
                                     02D1   513 ; *
                                     02D1   514 ; ******************************************************
                                     02D1   515 ;--
                                     02D1   516 ;
                                     02D1   517 ;
                                     02D1   518 	NEXT_TEST_CASE	SFGDV50
SATSSF09        - SATS SYSTEM SERVICE TESTS  (FAILING S.C.)      22-AUG-1978 03:47:45   VAX-11 MACRO X0.3-11               Page  17
1.0             SFGDV50                                                                                                          (1)

                                     02DD   519 ;
                                     02DD   520 ;++
                                     02DD   521 ; ******************************************************
                                     02DD   522 ; *
                                     02DD   523 ; *  TEST CASE NAME:		SFGDV50
                                     02DD   524 ; *
                                     02DD   525 ; *  SYSTEM SERVICE:		GETDEV
                                     02DD   526 ; *
                                     02DD   527 ; *  ARGUMENT UNDER TEST: 	SECBUF_GDV50
                                     02DD   528 ; *
                                     02DD   529 ; *  INPUT CONDITIONS:
                                     02DD   530 ; *	SECONDARY CHARACTERISTICS BUFFER (LENGTH 0) IS
                                     02DD   531 ; *	  TOO SHORT FOR INCOMING DATA.
                                     02DD   532 ; *
                                     02DD   533 ; *  EXPECTED RESULTS:
                                     02DD   534 ; *	1) SYSTEM STATUS CODE:	BUFFEROVF
                                     02DD   535 ; *	2) REGISTERS R2 THROUGH FP UNCHANGED
                                     02DD   536 ; *
                                     02DD   537 ; ******************************************************
                                     02DD   538 ;--
                                     02DD   539 ;
                                     02DD   540 ;
                                     02DD   541 	NEXT_TEST_CASE	SFGDV51
SATSSF09        - SATS SYSTEM SERVICE TESTS  (FAILING S.C.)      22-AUG-1978 03:47:45   VAX-11 MACRO X0.3-11               Page  18
1.0             SFGDV51                                                                                                          (1)

                                     02E9   542 ;
                                     02E9   543 ;++
                                     02E9   544 ; ******************************************************
                                     02E9   545 ; *
                                     02E9   546 ; *  TEST CASE NAME:		SFGDV51
                                     02E9   547 ; *
                                     02E9   548 ; *  SYSTEM SERVICE:		GETDEV
                                     02E9   549 ; *
                                     02E9   550 ; *  ARGUMENT UNDER TEST: 	SECBUF_GDV51
                                     02E9   551 ; *
                                     02E9   552 ; *  INPUT CONDITIONS:
                                     02E9   553 ; *	SECONDARY CHARACTERISTICS BUFFER IN READ-ONLY PSECT.
                                     02E9   554 ; *
                                     02E9   555 ; *  EXPECTED RESULTS:
                                     02E9   556 ; *	1) SYSTEM STATUS CODE:	ACCVIO
                                     02E9   557 ; *	2) REGISTERS R2 THROUGH FP UNCHANGED
                                     02E9   558 ; *
                                     02E9   559 ; ******************************************************
                                     02E9   560 ;--
                                     02E9   561 ;
                                     02E9   562 ;
                                     02E9   563 	TCEND
SATSSF09        - SATS SYSTEM SERVICE TESTS  (FAILING S.C.)      22-AUG-1978 03:47:45   VAX-11 MACRO X0.3-11               Page  19
1.0                                                                                                                              (1)

                                     02EA   564 ;
                                     02EA   565 	TC_GROUP	GCH,1,TS2
                                     0311   566 ;
                                     0311   567 	NEXT_TEST_CASE	SFGCH10
SATSSF09        - SATS SYSTEM SERVICE TESTS  (FAILING S.C.)      22-AUG-1978 03:47:45   VAX-11 MACRO X0.3-11               Page  20
1.0             SFGCH10                                                                                                          (1)

                                     0311   568 ;
                                     0311   569 ;++
                                     0311   570 ; ******************************************************
                                     0311   571 ; *
                                     0311   572 ; *  TEST CASE NAME:		SFGCH10
                                     0311   573 ; *
                                     0311   574 ; *  SYSTEM SERVICE:		GETCHN
                                     0311   575 ; *
                                     0311   576 ; *  ARGUMENT UNDER TEST: 	CHAN_GCH10
                                     0311   577 ; *
                                     0311   578 ; *  INPUT CONDITIONS:
                                     0311   579 ; *	INVALID CHANNEL NUMBER (ZERO)
                                     0311   580 ; *
                                     0311   581 ; *  EXPECTED RESULTS:
                                     0311   582 ; *	1) SYSTEM STATUS CODE:	IVCHAN
                                     0311   583 ; *	2) REGISTERS R2 THROUGH FP UNCHANGED
                                     0311   584 ; *
                                     0311   585 ; ******************************************************
                                     0311   586 ;--
                                     0311   587 ;
                                     0311   588 	$ASSIGN_S DEVNAM=MY_DISK, -	; GET A VALID CHANNEL NUMBER ...
                                     0311   589 		  CHAN=CHAN_GCH		; ... FOR ALL TEST CASES
                                     0326   590 ;
                                     0326   591 	NEXT_TEST_CASE	SFGCH11
SATSSF09        - SATS SYSTEM SERVICE TESTS  (FAILING S.C.)      22-AUG-1978 03:47:45   VAX-11 MACRO X0.3-11               Page  21
1.0             SFGCH11                                                                                                          (1)

                                     0332   592 ;
                                     0332   593 ;++
                                     0332   594 ; ******************************************************
                                     0332   595 ; *
                                     0332   596 ; *  TEST CASE NAME:		SFGCH11
                                     0332   597 ; *
                                     0332   598 ; *  SYSTEM SERVICE:		GETCHN
                                     0332   599 ; *
                                     0332   600 ; *  ARGUMENT UNDER TEST: 	CHAN_GCH11
                                     0332   601 ; *
                                     0332   602 ; *  INPUT CONDITIONS:
                                     0332   603 ; *	INVALID CHANNEL NUMBER (1 BILLION)
                                     0332   604 ; *
                                     0332   605 ; *  EXPECTED RESULTS:
                                     0332   606 ; *	1) SYSTEM STATUS CODE:	IVCHAN
                                     0332   607 ; *	2) REGISTERS R2 THROUGH FP UNCHANGED
                                     0332   608 ; *
                                     0332   609 ; ******************************************************
                                     0332   610 ;--
                                     0332   611 ;
                                     0332   612 ;
                                     0332   613 	NEXT_TEST_CASE	SFGCH12
SATSSF09        - SATS SYSTEM SERVICE TESTS  (FAILING S.C.)      22-AUG-1978 03:47:45   VAX-11 MACRO X0.3-11               Page  22
1.0             SFGCH12                                                                                                          (1)

                                     033E   614 ;
                                     033E   615 ;++
                                     033E   616 ; ******************************************************
                                     033E   617 ; *
                                     033E   618 ; *  TEST CASE NAME:		SFGCH12
                                     033E   619 ; *
                                     033E   620 ; *  SYSTEM SERVICE:		GETCHN
                                     033E   621 ; *
                                     033E   622 ; *  ARGUMENT UNDER TEST: 	CHAN_GCH12
                                     033E   623 ; *
                                     033E   624 ; *  INPUT CONDITIONS:
                                     033E   625 ; *	GET CHARACTERISTICS FOR CHANNEL ASSIGNED IN EXEC MODE.
                                     033E   626 ; *
                                     033E   627 ; *  EXPECTED RESULTS:
                                     033E   628 ; *	1) SYSTEM STATUS CODE:	NOPRIV
                                     033E   629 ; *	2) REGISTERS R2 THROUGH FP UNCHANGED
                                     033E   630 ; *
                                     033E   631 ; ******************************************************
                                     033E   632 ;--
                                     033E   633 ;
                                     033E   634 	MODE	TO,10$,EXEC,NOREGS	; TO EXEC MODE FOR $ASSIGN
                                     035B   635 	$ASSIGN_S DEVNAM=MY_DISK, -	; ASSIGN A CHANNEL IN EXEC MODE
                                     035B   636 		  CHAN=CHAN_GCH12	;
                                     0370   637 	MODE	FROM,10$		; BACK TO USER MODE
                                     0371   638 ;
                                     0371   639 	NEXT_TEST_CASE	SFGCH20
SATSSF09        - SATS SYSTEM SERVICE TESTS  (FAILING S.C.)      22-AUG-1978 03:47:45   VAX-11 MACRO X0.3-11               Page  23
1.0             SFGCH20                                                                                                          (1)

                                     037D   640 ;
                                     037D   641 ;++
                                     037D   642 ; ******************************************************
                                     037D   643 ; *
                                     037D   644 ; *  TEST CASE NAME:		SFGCH20
                                     037D   645 ; *
                                     037D   646 ; *  SYSTEM SERVICE:		GETCHN
                                     037D   647 ; *
                                     037D   648 ; *  ARGUMENT UNDER TEST: 	PRILEN_GCH20
                                     037D   649 ; *
                                     037D   650 ; *  INPUT CONDITIONS:
                                     037D   651 ; *	PRIMARY CHARACTERISTICS LENGTH FIELD IN
                                     037D   652 ; *	  READ-ONLY PSECT.
                                     037D   653 ; *
                                     037D   654 ; *  EXPECTED RESULTS:
                                     037D   655 ; *	1) SYSTEM STATUS CODE:	ACCVIO
                                     037D   656 ; *	2) REGISTERS R2 THROUGH FP UNCHANGED
                                     037D   657 ; *
                                     037D   658 ; ******************************************************
                                     037D   659 ;--
                                     037D   660 ;
                                     037D   661 	MODE	TO,20$,EXEC,NOREGS	; TO EXEC MODE FOR $DASSGN
                                     039A   662 	$DASSGN_S CHAN=CHAN_GCH12	; DE-ASSIGN CHANNEL ASSIGNED IN SFGCH12
                                     03A8   663 	MODE	FROM,20$		; BACK TO USER MODE
                                     03A9   664 ;
                                     03A9   665 	NEXT_TEST_CASE	SFGCH30
SATSSF09        - SATS SYSTEM SERVICE TESTS  (FAILING S.C.)      22-AUG-1978 03:47:45   VAX-11 MACRO X0.3-11               Page  24
1.0             SFGCH30                                                                                                          (1)

                                     03B5   666 ;
                                     03B5   667 ;++
                                     03B5   668 ; ******************************************************
                                     03B5   669 ; *
                                     03B5   670 ; *  TEST CASE NAME:		SFGCH30
                                     03B5   671 ; *
                                     03B5   672 ; *  SYSTEM SERVICE:		GETCHN
                                     03B5   673 ; *
                                     03B5   674 ; *  ARGUMENT UNDER TEST: 	PRIBUF_GCH30
                                     03B5   675 ; *
                                     03B5   676 ; *  INPUT CONDITIONS:
                                     03B5   677 ; *	PRIMARY CHARACTERISTICS BUFFER (LENGTH 1) IS
                                     03B5   678 ; *	  TOO SHORT FOR INCOMING DATA.
                                     03B5   679 ; *
                                     03B5   680 ; *  EXPECTED RESULTS:
                                     03B5   681 ; *	1) SYSTEM STATUS CODE:	BUFFEROVF
                                     03B5   682 ; *	2) REGISTERS R2 THROUGH FP UNCHANGED
                                     03B5   683 ; *
                                     03B5   684 ; ******************************************************
                                     03B5   685 ;--
                                     03B5   686 ;
                                     03B5   687 ;
                                     03B5   688 	NEXT_TEST_CASE	SFGCH31
SATSSF09        - SATS SYSTEM SERVICE TESTS  (FAILING S.C.)      22-AUG-1978 03:47:45   VAX-11 MACRO X0.3-11               Page  25
1.0             SFGCH31                                                                                                          (1)

                                     03C1   689 ;
                                     03C1   690 ;++
                                     03C1   691 ; ******************************************************
                                     03C1   692 ; *
                                     03C1   693 ; *  TEST CASE NAME:		SFGCH31
                                     03C1   694 ; *
                                     03C1   695 ; *  SYSTEM SERVICE:		GETCHN
                                     03C1   696 ; *
                                     03C1   697 ; *  ARGUMENT UNDER TEST: 	PRIBUF_GCH31
                                     03C1   698 ; *
                                     03C1   699 ; *  INPUT CONDITIONS:
                                     03C1   700 ; *	PRIMARY CHARACTERISTICS BUFFER IN READ-ONLY PSECT.
                                     03C1   701 ; *
                                     03C1   702 ; *  EXPECTED RESULTS:
                                     03C1   703 ; *	1) SYSTEM STATUS CODE:	ACCVIO
                                     03C1   704 ; *	2) REGISTERS R2 THROUGH FP UNCHANGED
                                     03C1   705 ; *
                                     03C1   706 ; ******************************************************
                                     03C1   707 ;--
                                     03C1   708 ;
                                     03C1   709 ;
                                     03C1   710 	NEXT_TEST_CASE	SFGCH40
SATSSF09        - SATS SYSTEM SERVICE TESTS  (FAILING S.C.)      22-AUG-1978 03:47:45   VAX-11 MACRO X0.3-11               Page  26
1.0             SFGCH40                                                                                                          (1)

                                     03CD   711 ;
                                     03CD   712 ;++
                                     03CD   713 ; ******************************************************
                                     03CD   714 ; *
                                     03CD   715 ; *  TEST CASE NAME:		SFGCH40
                                     03CD   716 ; *
                                     03CD   717 ; *  SYSTEM SERVICE:		GETCHN
                                     03CD   718 ; *
                                     03CD   719 ; *  ARGUMENT UNDER TEST: 	SECLEN_GCH40
                                     03CD   720 ; *
                                     03CD   721 ; *  INPUT CONDITIONS:
                                     03CD   722 ; *	SECONDARY CHARACTERISTICS LENGTH FIELD IN
                                     03CD   723 ; *	  READ-ONLY PSECT.
                                     03CD   724 ; *
                                     03CD   725 ; *  EXPECTED RESULTS:
                                     03CD   726 ; *	1) SYSTEM STATUS CODE:	ACCVIO
                                     03CD   727 ; *	2) REGISTERS R2 THROUGH FP UNCHANGED
                                     03CD   728 ; *
                                     03CD   729 ; ******************************************************
                                     03CD   730 ;--
                                     03CD   731 ;
                                     03CD   732 ;
                                     03CD   733 	NEXT_TEST_CASE	SFGCH50
SATSSF09        - SATS SYSTEM SERVICE TESTS  (FAILING S.C.)      22-AUG-1978 03:47:45   VAX-11 MACRO X0.3-11               Page  27
1.0             SFGCH50                                                                                                          (1)

                                     03D9   734 ;
                                     03D9   735 ;++
                                     03D9   736 ; ******************************************************
                                     03D9   737 ; *
                                     03D9   738 ; *  TEST CASE NAME:		SFGCH50
                                     03D9   739 ; *
                                     03D9   740 ; *  SYSTEM SERVICE:		GETCHN
                                     03D9   741 ; *
                                     03D9   742 ; *  ARGUMENT UNDER TEST: 	SECBUF_GCH50
                                     03D9   743 ; *
                                     03D9   744 ; *  INPUT CONDITIONS:
                                     03D9   745 ; *	SECONDARY CHARACTERISTICS BUFFER (LENGTH 0) IS
                                     03D9   746 ; *	  TOO SHORT FOR INCOMING DATA.
                                     03D9   747 ; *
                                     03D9   748 ; *  EXPECTED RESULTS:
                                     03D9   749 ; *	1) SYSTEM STATUS CODE:	BUFFEROVF
                                     03D9   750 ; *	2) REGISTERS R2 THROUGH FP UNCHANGED
                                     03D9   751 ; *
                                     03D9   752 ; ******************************************************
                                     03D9   753 ;--
                                     03D9   754 ;
                                     03D9   755 ;
                                     03D9   756 	NEXT_TEST_CASE	SFGCH51
SATSSF09        - SATS SYSTEM SERVICE TESTS  (FAILING S.C.)      22-AUG-1978 03:47:45   VAX-11 MACRO X0.3-11               Page  28
1.0             SFGCH51                                                                                                          (1)

                                     03E5   757 ;
                                     03E5   758 ;++
                                     03E5   759 ; ******************************************************
                                     03E5   760 ; *
                                     03E5   761 ; *  TEST CASE NAME:		SFGCH51
                                     03E5   762 ; *
                                     03E5   763 ; *  SYSTEM SERVICE:		GETCHN
                                     03E5   764 ; *
                                     03E5   765 ; *  ARGUMENT UNDER TEST: 	SECBUF_GCH51
                                     03E5   766 ; *
                                     03E5   767 ; *  INPUT CONDITIONS:
                                     03E5   768 ; *	SECONDARY CHARACTERISTICS BUFFER IN READ-ONLY PSECT.
                                     03E5   769 ; *
                                     03E5   770 ; *  EXPECTED RESULTS:
                                     03E5   771 ; *	1) SYSTEM STATUS CODE:	ACCVIO
                                     03E5   772 ; *	2) REGISTERS R2 THROUGH FP UNCHANGED
                                     03E5   773 ; *
                                     03E5   774 ; ******************************************************
                                     03E5   775 ;--
                                     03E5   776 ;
                                     03E5   777 ;
                                     03E5   778 	TCEND
SATSSF09        - SATS SYSTEM SERVICE TESTS  (FAILING S.C.)      22-AUG-1978 03:47:45   VAX-11 MACRO X0.3-11               Page  29
1.0                                                                                                                              (1)

                                     03E6   779 ;
                                     03E6   780 	TC_GROUP	ASN,1,TS3
                                     040D   781 ;
                                     040D   782 	NEXT_TEST_CASE	SFASN10
SATSSF09        - SATS SYSTEM SERVICE TESTS  (FAILING S.C.)      22-AUG-1978 03:47:45   VAX-11 MACRO X0.3-11               Page  30
1.0             SFASN10                                                                                                          (1)

                                     040D   783 ;
                                     040D   784 ;++
                                     040D   785 ; ******************************************************
                                     040D   786 ; *
                                     040D   787 ; *  TEST CASE NAME:		SFASN10
                                     040D   788 ; *
                                     040D   789 ; *  SYSTEM SERVICE:		ASSIGN
                                     040D   790 ; *
                                     040D   791 ; *  ARGUMENT UNDER TEST: 	DEVNAM_ASN10
                                     040D   792 ; *
                                     040D   793 ; *  INPUT CONDITIONS:
                                     040D   794 ; *	ZERO LENGTH DEVICE NAME
                                     040D   795 ; *
                                     040D   796 ; *  EXPECTED RESULTS:
                                     040D   797 ; *	1) SYSTEM STATUS CODE:	IVLOGNAM
                                     040D   798 ; *	2) REGISTERS R2 THROUGH FP UNCHANGED
                                     040D   799 ; *
                                     040D   800 ; ******************************************************
                                     040D   801 ;--
                                     040D   802 ;
                                     040D   803 ;
                                     040D   804 	NEXT_TEST_CASE	SFASN11
SATSSF09        - SATS SYSTEM SERVICE TESTS  (FAILING S.C.)      22-AUG-1978 03:47:45   VAX-11 MACRO X0.3-11               Page  31
1.0             SFASN11                                                                                                          (1)

                                     0419   805 ;
                                     0419   806 ;++
                                     0419   807 ; ******************************************************
                                     0419   808 ; *
                                     0419   809 ; *  TEST CASE NAME:		SFASN11
                                     0419   810 ; *
                                     0419   811 ; *  SYSTEM SERVICE:		ASSIGN
                                     0419   812 ; *
                                     0419   813 ; *  ARGUMENT UNDER TEST: 	DEVNAM_ASN11
                                     0419   814 ; *
                                     0419   815 ; *  INPUT CONDITIONS:
                                     0419   816 ; *	VALID, NON-EXISTENT DEVICE
                                     0419   817 ; *
                                     0419   818 ; *  EXPECTED RESULTS:
                                     0419   819 ; *	1) SYSTEM STATUS CODE:	NOSUCHDEV
                                     0419   820 ; *	2) REGISTERS R2 THROUGH FP UNCHANGED
                                     0419   821 ; *
                                     0419   822 ; ******************************************************
                                     0419   823 ;--
                                     0419   824 ;
                                     0419   825 ;
                                     0419   826 	NEXT_TEST_CASE	SFASN12
SATSSF09        - SATS SYSTEM SERVICE TESTS  (FAILING S.C.)      22-AUG-1978 03:47:45   VAX-11 MACRO X0.3-11               Page  32
1.0             SFASN12                                                                                                          (1)

                                     0425   827 ;
                                     0425   828 ;++
                                     0425   829 ; ******************************************************
                                     0425   830 ; *
                                     0425   831 ; *  TEST CASE NAME:		SFASN12
                                     0425   832 ; *
                                     0425   833 ; *  SYSTEM SERVICE:		ASSIGN
                                     0425   834 ; *
                                     0425   835 ; *  ARGUMENT UNDER TEST: 	DEVNAM_ASN12
                                     0425   836 ; *
                                     0425   837 ; *  INPUT CONDITIONS:
                                     0425   838 ; *	DEVICE NAME IN NON-ACCESSIBLE PSECT.
                                     0425   839 ; *
                                     0425   840 ; *  EXPECTED RESULTS:
                                     0425   841 ; *	1) SYSTEM STATUS CODE:	ACCVIO
                                     0425   842 ; *	2) REGISTERS R2 THROUGH FP UNCHANGED
                                     0425   843 ; *
                                     0425   844 ; ******************************************************
                                     0425   845 ;--
                                     0425   846 ;
                                     0425   847 ;
                                     0425   848 	NEXT_TEST_CASE	SFASN20
SATSSF09        - SATS SYSTEM SERVICE TESTS  (FAILING S.C.)      22-AUG-1978 03:47:45   VAX-11 MACRO X0.3-11               Page  33
1.0             SFASN20                                                                                                          (1)

                                     0431   849 ;
                                     0431   850 ;++
                                     0431   851 ; ******************************************************
                                     0431   852 ; *
                                     0431   853 ; *  TEST CASE NAME:		SFASN20
                                     0431   854 ; *
                                     0431   855 ; *  SYSTEM SERVICE:		ASSIGN
                                     0431   856 ; *
                                     0431   857 ; *  ARGUMENT UNDER TEST: 	CHAN_ASN20
                                     0431   858 ; *
                                     0431   859 ; *  INPUT CONDITIONS:
                                     0431   860 ; *	CHANNEL BUFFER IN READ-ONLY PSECT.
                                     0431   861 ; *
                                     0431   862 ; *  EXPECTED RESULTS:
                                     0431   863 ; *	1) SYSTEM STATUS CODE:	ACCVIO
                                     0431   864 ; *	2) REGISTERS R2 THROUGH FP UNCHANGED
                                     0431   865 ; *
                                     0431   866 ; ******************************************************
                                     0431   867 ;--
                                     0431   868 ;
                                     0431   869 ;
                                     0431   870 	NEXT_TEST_CASE	SFASN40
SATSSF09        - SATS SYSTEM SERVICE TESTS  (FAILING S.C.)      22-AUG-1978 03:47:45   VAX-11 MACRO X0.3-11               Page  34
1.0             SFASN40                                                                                                          (1)

                                     043D   871 ;
                                     043D   872 ;++
                                     043D   873 ; ******************************************************
                                     043D   874 ; *
                                     043D   875 ; *  TEST CASE NAME:		SFASN40
                                     043D   876 ; *
                                     043D   877 ; *  SYSTEM SERVICE:		ASSIGN
                                     043D   878 ; *
                                     043D   879 ; *  ARGUMENT UNDER TEST: 	MBXNAM_ASN40
                                     043D   880 ; *
                                     043D   881 ; *  INPUT CONDITIONS:
                                     043D   882 ; *	MAILBOX NAME IS LENGTH 64
                                     043D   883 ; *
                                     043D   884 ; *  EXPECTED RESULTS:
                                     043D   885 ; *	1) SYSTEM STATUS CODE:	IVLOGNAM
                                     043D   886 ; *	2) REGISTERS R2 THROUGH FP UNCHANGED
                                     043D   887 ; *
                                     043D   888 ; ******************************************************
                                     043D   889 ;--
                                     043D   890 ;
                                     043D   891 ;
                                     043D   892 	NEXT_TEST_CASE	SFASN41
SATSSF09        - SATS SYSTEM SERVICE TESTS  (FAILING S.C.)      22-AUG-1978 03:47:45   VAX-11 MACRO X0.3-11               Page  35
1.0             SFASN41                                                                                                          (1)

                                     0449   893 ;
                                     0449   894 ;++
                                     0449   895 ; ******************************************************
                                     0449   896 ; *
                                     0449   897 ; *  TEST CASE NAME:		SFASN41
                                     0449   898 ; *
                                     0449   899 ; *  SYSTEM SERVICE:		ASSIGN
                                     0449   900 ; *
                                     0449   901 ; *  ARGUMENT UNDER TEST: 	MBXNAM_ASN41
                                     0449   902 ; *
                                     0449   903 ; *  INPUT CONDITIONS:
                                     0449   904 ; *	INVALID CHARACTERS IN MAILBOX NAME
                                     0449   905 ; *
                                     0449   906 ; *  EXPECTED RESULTS:
                                     0449   907 ; *	1) SYSTEM STATUS CODE:	IVDEVNAM
                                     0449   908 ; *	2) REGISTERS R2 THROUGH FP UNCHANGED
                                     0449   909 ; *
                                     0449   910 ; ******************************************************
                                     0449   911 ;--
                                     0449   912 ;
                                     0449   913 ;
                                     0449   914 	NEXT_TEST_CASE	SFASN42
SATSSF09        - SATS SYSTEM SERVICE TESTS  (FAILING S.C.)      22-AUG-1978 03:47:45   VAX-11 MACRO X0.3-11               Page  36
1.0             SFASN42                                                                                                          (1)

                                     0455   915 ;
                                     0455   916 ;++
                                     0455   917 ; ******************************************************
                                     0455   918 ; *
                                     0455   919 ; *  TEST CASE NAME:		SFASN42
                                     0455   920 ; *
                                     0455   921 ; *  SYSTEM SERVICE:		ASSIGN
                                     0455   922 ; *
                                     0455   923 ; *  ARGUMENT UNDER TEST: 	MBXNAM_ASN42
                                     0455   924 ; *
                                     0455   925 ; *  INPUT CONDITIONS:
                                     0455   926 ; *	MAILBOX SPECIFIED IS ACTUALLY A DISK.
                                     0455   927 ; *
                                     0455   928 ; *  EXPECTED RESULTS:
                                     0455   929 ; *	1) SYSTEM STATUS CODE:	DEVNOTMBX
                                     0455   930 ; *	2) REGISTERS R2 THROUGH FP UNCHANGED
                                     0455   931 ; *
                                     0455   932 ; ******************************************************
                                     0455   933 ;--
                                     0455   934 ;
                                     0455   935 ;
                                     0455   936 	NEXT_TEST_CASE	SFASN43
SATSSF09        - SATS SYSTEM SERVICE TESTS  (FAILING S.C.)      22-AUG-1978 03:47:45   VAX-11 MACRO X0.3-11               Page  37
1.0             SFASN43                                                                                                          (1)

                                     0461   937 ;
                                     0461   938 ;++
                                     0461   939 ; ******************************************************
                                     0461   940 ; *
                                     0461   941 ; *  TEST CASE NAME:		SFASN43
                                     0461   942 ; *
                                     0461   943 ; *  SYSTEM SERVICE:		ASSIGN
                                     0461   944 ; *
                                     0461   945 ; *  ARGUMENT UNDER TEST: 	MBXNAM_ASN43
                                     0461   946 ; *
                                     0461   947 ; *  INPUT CONDITIONS:
                                     0461   948 ; *	MAILBOX NAME IN NON-ACCESSIBLE PSECT.
                                     0461   949 ; *
                                     0461   950 ; *  EXPECTED RESULTS:
                                     0461   951 ; *	1) SYSTEM STATUS CODE:	ACCVIO
                                     0461   952 ; *	2) REGISTERS R2 THROUGH FP UNCHANGED
                                     0461   953 ; *
                                     0461   954 ; ******************************************************
                                     0461   955 ;--
                                     0461   956 ;
                                     0461   957 ;
                                     0461   958 	TCEND
SATSSF09        - SATS SYSTEM SERVICE TESTS  (FAILING S.C.)      22-AUG-1978 03:47:45   VAX-11 MACRO X0.3-11               Page  38
1.0                                                                                                                              (1)

                                     0462   959 ;
                                     0462   960 	TC_GROUP	DAS,1,TS4
                                     0489   961 ;
                                     0489   962 	NEXT_TEST_CASE	SFDAS10
SATSSF09        - SATS SYSTEM SERVICE TESTS  (FAILING S.C.)      22-AUG-1978 03:47:45   VAX-11 MACRO X0.3-11               Page  39
1.0             SFDAS10                                                                                                          (1)

                                     0489   963 ;
                                     0489   964 ;++
                                     0489   965 ; ******************************************************
                                     0489   966 ; *
                                     0489   967 ; *  TEST CASE NAME:		SFDAS10
                                     0489   968 ; *
                                     0489   969 ; *  SYSTEM SERVICE:		DASSGN
                                     0489   970 ; *
                                     0489   971 ; *  ARGUMENT UNDER TEST: 	CHAN_DAS10
                                     0489   972 ; *
                                     0489   973 ; *  INPUT CONDITIONS:
                                     0489   974 ; *	DE-ASSIGN CHANNEL ASSIGNED BY EXEC MODE.
                                     0489   975 ; *
                                     0489   976 ; *  EXPECTED RESULTS:
                                     0489   977 ; *	1) SYSTEM STATUS CODE:	NOPRIV
                                     0489   978 ; *	2) REGISTERS R2 THROUGH FP UNCHANGED
                                     0489   979 ; *
                                     0489   980 ; ******************************************************
                                     0489   981 ;--
                                     0489   982 ;
                                     0489   983 	MODE	TO,10$,EXEC,NOREGS	; GET EXEC MODE FOR $ASSIGN
                                     04A6   984 	$ASSIGN_S DEVNAM=MY_DISK, -	; ASSIGN A CHANNEL IN EXEC MODE
                                     04A6   985 		  CHAN=CHAN_DAS10
                                     04BB   986 	MODE	FROM,10$		; BACK TO USER MODE
                                     04BC   987 ;
                                     04BC   988 	NEXT_TEST_CASE	SFDAS11
SATSSF09        - SATS SYSTEM SERVICE TESTS  (FAILING S.C.)      22-AUG-1978 03:47:45   VAX-11 MACRO X0.3-11               Page  40
1.0             SFDAS11                                                                                                          (1)

                                     04C8   989 ;
                                     04C8   990 ;++
                                     04C8   991 ; ******************************************************
                                     04C8   992 ; *
                                     04C8   993 ; *  TEST CASE NAME:		SFDAS11
                                     04C8   994 ; *
                                     04C8   995 ; *  SYSTEM SERVICE:		DASSGN
                                     04C8   996 ; *
                                     04C8   997 ; *  ARGUMENT UNDER TEST: 	CHAN_DAS11
                                     04C8   998 ; *
                                     04C8   999 ; *  INPUT CONDITIONS:
                                     04C8  1000 ; *	INVALID CHANNEL NUMBER (ZERO)
                                     04C8  1001 ; *
                                     04C8  1002 ; *  EXPECTED RESULTS:
                                     04C8  1003 ; *	1) SYSTEM STATUS CODE:	IVCHAN
                                     04C8  1004 ; *	2) REGISTERS R2 THROUGH FP UNCHANGED
                                     04C8  1005 ; *
                                     04C8  1006 ; ******************************************************
                                     04C8  1007 ;--
                                     04C8  1008 ;
                                     04C8  1009 	MODE	TO,20$,EXEC,NOREGS	; EXEC MODE FOR $DASSGN
                                     04E5  1010 	$DASSGN_S CHAN=CHAN_DAS10	; DE-ASSIGN CHANNEL ASSIGNED IN SFDAS10
                                     04F3  1011 	MODE	FROM,20$		; BACK TO USER MODE
                                     04F4  1012 ;
                                     04F4  1013 	NEXT_TEST_CASE	SFDAS12
SATSSF09        - SATS SYSTEM SERVICE TESTS  (FAILING S.C.)      22-AUG-1978 03:47:45   VAX-11 MACRO X0.3-11               Page  41
1.0             SFDAS12                                                                                                          (1)

                                     0500  1014 ;
                                     0500  1015 ;++
                                     0500  1016 ; ******************************************************
                                     0500  1017 ; *
                                     0500  1018 ; *  TEST CASE NAME:		SFDAS12
                                     0500  1019 ; *
                                     0500  1020 ; *  SYSTEM SERVICE:		DASSGN
                                     0500  1021 ; *
                                     0500  1022 ; *  ARGUMENT UNDER TEST: 	CHAN_DAS12
                                     0500  1023 ; *
                                     0500  1024 ; *  INPUT CONDITIONS:
                                     0500  1025 ; *	INVALID CHANNEL NUMBER (1 BILLION)
                                     0500  1026 ; *
                                     0500  1027 ; *  EXPECTED RESULTS:
                                     0500  1028 ; *	1) SYSTEM STATUS CODE:	IVCHAN
                                     0500  1029 ; *	2) REGISTERS R2 THROUGH FP UNCHANGED
                                     0500  1030 ; *
                                     0500  1031 ; ******************************************************
                                     0500  1032 ;--
                                     0500  1033 ;
                                     0500  1034 ;
                                     0500  1035 	TCEND
SATSSF09        - SATS SYSTEM SERVICE TESTS  (FAILING S.C.)      22-AUG-1978 03:47:45   VAX-11 MACRO X0.3-11               Page  42
1.0                                                                                                                              (1)

                                     0501  1036 ;
                                     0501  1037 	TC_GROUP	DMX,1,TS5
                                     0528  1038 ;
                                     0528  1039 	NEXT_TEST_CASE	SFDMX10
SATSSF09        - SATS SYSTEM SERVICE TESTS  (FAILING S.C.)      22-AUG-1978 03:47:45   VAX-11 MACRO X0.3-11               Page  43
1.0             SFDMX10                                                                                                          (1)

                                     0528  1040 ;
                                     0528  1041 ;++
                                     0528  1042 ; ******************************************************
                                     0528  1043 ; *
                                     0528  1044 ; *  TEST CASE NAME:		SFDMX10
                                     0528  1045 ; *
                                     0528  1046 ; *  SYSTEM SERVICE:		DELMBX
                                     0528  1047 ; *
                                     0528  1048 ; *  ARGUMENT UNDER TEST: 	CHAN_DMX10
                                     0528  1049 ; *
                                     0528  1050 ; *  INPUT CONDITIONS:
                                     0528  1051 ; *	DELETE A MAILBOX CREATED BY EXEC MODE.
                                     0528  1052 ; *
                                     0528  1053 ; *  EXPECTED RESULTS:
                                     0528  1054 ; *	1) SYSTEM STATUS CODE:	NOPRIV
                                     0528  1055 ; *	2) REGISTERS R2 THROUGH FP UNCHANGED
                                     0528  1056 ; *
                                     0528  1057 ; ******************************************************
                                     0528  1058 ;--
                                     0528  1059 ;
                                     0528  1060 	MODE	TO,10$,EXEC,NOREGS	; GET EXEC MODE FOR $CREMBX
                                     0545  1061 	$CREMBX_S PRMFLG=#1, -		; CREATE A PERM MBOX AT EXEC MODE
                                     0545  1062 		  CHAN=CHAN_DMX10
                                     055A  1063 	MODE	FROM,10$		; BACK TO USER MODE
                                     055B  1064 ;
                                     055B  1065 	NEXT_TEST_CASE	SFDMX11
SATSSF09        - SATS SYSTEM SERVICE TESTS  (FAILING S.C.)      22-AUG-1978 03:47:45   VAX-11 MACRO X0.3-11               Page  44
1.0             SFDMX11                                                                                                          (1)

                                     0567  1066 ;
                                     0567  1067 ;++
                                     0567  1068 ; ******************************************************
                                     0567  1069 ; *
                                     0567  1070 ; *  TEST CASE NAME:		SFDMX11
                                     0567  1071 ; *
                                     0567  1072 ; *  SYSTEM SERVICE:		DELMBX
                                     0567  1073 ; *
                                     0567  1074 ; *  ARGUMENT UNDER TEST: 	CHAN_DMX11
                                     0567  1075 ; *
                                     0567  1076 ; *  INPUT CONDITIONS:
                                     0567  1077 ; *	DELETE A PERMANENT MAILBOX WITHOUT THE PRMMBX PRIVILEGE.
                                     0567  1078 ; *
                                     0567  1079 ; *  EXPECTED RESULTS:
                                     0567  1080 ; *	1) SYSTEM STATUS CODE:	NOPRIV
                                     0567  1081 ; *	2) REGISTERS R2 THROUGH FP UNCHANGED
                                     0567  1082 ; *
                                     0567  1083 ; ******************************************************
                                     0567  1084 ;--
                                     0567  1085 ;
                                     0567  1086 	MODE	TO,20$,EXEC,NOREGS	; EXEC MODE FOR $DELMBX
                                     0584  1087 	$DELMBX_S CHAN=CHAN_DMX10	; MARK FOR DELETION MBOX ACQUIRED IN SFDMX10
                                     0592  1088 	$DASSGN_S CHAN=CHAN_DMX10	; ... AND GET IT DELETED
                                     05A0  1089 	MODE	FROM,20$		; BACK TO USER MODE
                                     05A1  1090 	$CREMBX_S PRMFLG=#1, -		; CREATE A USER MODE MAILBOX
                                     05A1  1091 		  CHAN=CHAN_DMX11
                                     05B6  1092 	PRIV	REM,PRMMBX		; REMOVE PRMMBX PRIVILEGE
                                     05DD  1093 ;
                                     05DD  1094 	NEXT_TEST_CASE	SFDMX12
SATSSF09        - SATS SYSTEM SERVICE TESTS  (FAILING S.C.)      22-AUG-1978 03:47:45   VAX-11 MACRO X0.3-11               Page  45
1.0             SFDMX12                                                                                                          (1)

                                     05E9  1095 ;
                                     05E9  1096 ;++
                                     05E9  1097 ; ******************************************************
                                     05E9  1098 ; *
                                     05E9  1099 ; *  TEST CASE NAME:		SFDMX12
                                     05E9  1100 ; *
                                     05E9  1101 ; *  SYSTEM SERVICE:		DELMBX
                                     05E9  1102 ; *
                                     05E9  1103 ; *  ARGUMENT UNDER TEST: 	CHAN_DMX12
                                     05E9  1104 ; *
                                     05E9  1105 ; *  INPUT CONDITIONS:
                                     05E9  1106 ; *	INVALID CHANNEL NUMBER (ZERO).
                                     05E9  1107 ; *
                                     05E9  1108 ; *  EXPECTED RESULTS:
                                     05E9  1109 ; *	1) SYSTEM STATUS CODE:	IVCHAN
                                     05E9  1110 ; *	2) REGISTERS R2 THROUGH FP UNCHANGED
                                     05E9  1111 ; *
                                     05E9  1112 ; ******************************************************
                                     05E9  1113 ;--
                                     05E9  1114 ;
                                     05E9  1115 	PRIV	ADD,PRMMBX		; GET BACK PRIVILEGE REMOVED BY SFDMX11
                                     0610  1116 	$DELMBX_S CHAN=CHAN_DMX11	; MARK FOR DELETION MBOX ACQUIRED IN SFDMX11
                                     061E  1117 ;
                                     061E  1118 	NEXT_TEST_CASE	SFDMX13
SATSSF09        - SATS SYSTEM SERVICE TESTS  (FAILING S.C.)      22-AUG-1978 03:47:45   VAX-11 MACRO X0.3-11               Page  46
1.0             SFDMX13                                                                                                          (1)

                                     062A  1119 ;
                                     062A  1120 ;++
                                     062A  1121 ; ******************************************************
                                     062A  1122 ; *
                                     062A  1123 ; *  TEST CASE NAME:		SFDMX13
                                     062A  1124 ; *
                                     062A  1125 ; *  SYSTEM SERVICE:		DELMBX
                                     062A  1126 ; *
                                     062A  1127 ; *  ARGUMENT UNDER TEST: 	CHAN_DMX13
                                     062A  1128 ; *
                                     062A  1129 ; *  INPUT CONDITIONS:
                                     062A  1130 ; *	INVALID CHANNEL NUMBER (1 BILLION).
                                     062A  1131 ; *
                                     062A  1132 ; *  EXPECTED RESULTS:
                                     062A  1133 ; *	1) SYSTEM STATUS CODE:	IVCHAN
                                     062A  1134 ; *	2) REGISTERS R2 THROUGH FP UNCHANGED
                                     062A  1135 ; *
                                     062A  1136 ; ******************************************************
                                     062A  1137 ;--
                                     062A  1138 ;
                                     062A  1139 ;
                                     062A  1140 	NEXT_TEST_CASE	SFDMX14
SATSSF09        - SATS SYSTEM SERVICE TESTS  (FAILING S.C.)      22-AUG-1978 03:47:45   VAX-11 MACRO X0.3-11               Page  47
1.0             SFDMX14                                                                                                          (1)

                                     0636  1141 ;
                                     0636  1142 ;++
                                     0636  1143 ; ******************************************************
                                     0636  1144 ; *
                                     0636  1145 ; *  TEST CASE NAME:		SFDMX14
                                     0636  1146 ; *
                                     0636  1147 ; *  SYSTEM SERVICE:		DELMBX
                                     0636  1148 ; *
                                     0636  1149 ; *  ARGUMENT UNDER TEST: 	CHAN_DMX14
                                     0636  1150 ; *
                                     0636  1151 ; *  INPUT CONDITIONS:
                                     0636  1152 ; *	ISSUE $DELMBX FOR A DEVICE WHICH IS NOT A MAILBOX.
                                     0636  1153 ; *
                                     0636  1154 ; *  EXPECTED RESULTS:
                                     0636  1155 ; *	1) SYSTEM STATUS CODE:	DEVNOTMBX
                                     0636  1156 ; *	2) REGISTERS R2 THROUGH FP UNCHANGED
                                     0636  1157 ; *
                                     0636  1158 ; ******************************************************
                                     0636  1159 ;--
                                     0636  1160 ;
                                     0636  1161 	$ASSIGN_S DEVNAM=MY_DISK, CHAN=CHAN_DMX14
                                     064B  1162 					; ASSIGN A DEVICE WHICH IS NOT A MAILBOX
                                     064B  1163 ;
                                     064B  1164 	TCEND
SATSSF09        - SATS SYSTEM SERVICE TESTS  (FAILING S.C.)      22-AUG-1978 03:47:45   VAX-11 MACRO X0.3-11               Page  48
1.0                                                                                                                              (1)

                                     064C  1165 TS1:
                                     064C  1166 	TESTSERV	GETDEV,ERR,SATS,				-
                                     064C  1167                                           				-
                                     064C  1168 	   <1,DEVNAM_GDV,						-
                                     064C  1169 	        	DEVNAM_GDV10,IVDEVNAM,	-  ; SFGDV10
                                     064C  1170 	        	DEVNAM_GDV11,IVLOGNAM,	-  ; SFGDV11
                                     064C  1171 	        	DEVNAM_GDV12,IVLOGNAM,	-  ; SFGDV12
                                     064C  1172 	        	DEVNAM_GDV13,NOSUCHDEV,	-  ; SFGDV13
                                     064C  1173 	        	DEVNAM_GDV14,ACCVIO,	-  ; SFGDV14
                                     064C  1174                                                   >,			-
                                     064C  1175                                           				-
                                     064C  1176 	   <1,PRILEN_GDV,						-
                                     064C  1177 	        	PRILEN_GDV20,ACCVIO,	-  ; SFGDV20
                                     064C  1178                                                   >,			-
                                     064C  1179                                           				-
                                     064C  1180 	   <1,PRIBUF_GDV,						-
                                     064C  1181 	        	PRIBUF_GDV30,BUFFEROVF,	-  ; SFGDV30
                                     064C  1182 	        	PRIBUF_GDV31,ACCVIO,	-  ; SFGDV31
                                     064C  1183                                                   >,			-
                                     064C  1184                                           				-
                                     064C  1185 	   <1,SECLEN_GDV,						-
                                     064C  1186 	        	SECLEN_GDV40,ACCVIO,	-  ; SFGDV40
                                     064C  1187                                                   >,			-
                                     064C  1188                                           				-
                                     064C  1189 	   <1,SECBUF_GDV,						-
                                     064C  1190 	        	SECBUF_GDV50,BUFFEROVF,	-  ; SFGDV50
                                     064C  1191 	        	SECBUF_GDV51,ACCVIO,	-  ; SFGDV51
                                     064C  1192                                                   >,			-
                                     064C  1193
                                     09A4  1194 	TS_CLEANUP		; CLEAN UP & RETURN TO TEST_SERV_EXEC
SATSSF09        - SATS SYSTEM SERVICE TESTS  (FAILING S.C.)      22-AUG-1978 03:47:45   VAX-11 MACRO X0.3-11               Page  49
1.0                                                                                                                              (1)

                                     09C4  1195 TS2:
                                     09C4  1196 	TESTSERV	GETCHN,ERR,SATS,				-
                                     09C4  1197                                           				-
                                     09C4  1198 	   <1,CHAN_GCH,						-
                                     09C4  1199 	        	CHAN_GCH10,IVCHAN,	-  ; SFGCH10
                                     09C4  1200 	        	CHAN_GCH11,IVCHAN,	-  ; SFGCH11
                                     09C4  1201 	        	CHAN_GCH12,NOPRIV,	-  ; SFGCH12
                                     09C4  1202                                                   >,			-
                                     09C4  1203                                           				-
                                     09C4  1204 	   <1,PRILEN_GCH,						-
                                     09C4  1205 	        	PRILEN_GCH20,ACCVIO,	-  ; SFGCH20
                                     09C4  1206                                                   >,			-
                                     09C4  1207                                           				-
                                     09C4  1208 	   <1,PRIBUF_GCH,						-
                                     09C4  1209 	        	PRIBUF_GCH30,BUFFEROVF,	-  ; SFGCH30
                                     09C4  1210 	        	PRIBUF_GCH31,ACCVIO,	-  ; SFGCH31
                                     09C4  1211                                                   >,			-
                                     09C4  1212                                           				-
                                     09C4  1213 	   <1,SECLEN_GCH,						-
                                     09C4  1214 	        	SECLEN_GCH40,ACCVIO,	-  ; SFGCH40
                                     09C4  1215                                                   >,			-
                                     09C4  1216                                           				-
                                     09C4  1217 	   <1,SECBUF_GCH,						-
                                     09C4  1218 	        	SECBUF_GCH50,BUFFEROVF,	-  ; SFGCH50
                                     09C4  1219 	        	SECBUF_GCH51,ACCVIO,	-  ; SFGCH51
                                     09C4  1220                                                   >,			-
                                     09C4  1221
                                     0D11  1222 	TS_CLEANUP		; CLEAN UP & RETURN TO TEST_SERV_EXEC
SATSSF09        - SATS SYSTEM SERVICE TESTS  (FAILING S.C.)      22-AUG-1978 03:47:45   VAX-11 MACRO X0.3-11               Page  50
1.0                                                                                                                              (1)

                                     0D31  1223 TS3:
                                     0D31  1224 	TESTSERV	ASSIGN,ERR,SATS,				-
                                     0D31  1225                                           				-
                                     0D31  1226 	   <1,DEVNAM_ASN,						-
                                     0D31  1227 	        	DEVNAM_ASN10,IVLOGNAM,	-  ; SFASN10
                                     0D31  1228 	        	DEVNAM_ASN11,NOSUCHDEV,	-  ; SFASN11
                                     0D31  1229 	        	DEVNAM_ASN12,ACCVIO,	-  ; SFASN12
                                     0D31  1230                                                   >,			-
                                     0D31  1231                                           				-
                                     0D31  1232 	   <1,CHAN_ASN,						-
                                     0D31  1233 	        	CHAN_ASN20,ACCVIO,	-  ; SFASN20
                                     0D31  1234                                                   >,			-
                                     0D31  1235                                           				-
                                     0D31  1236 	   <1,ACMODE_ASN,						-
                                     0D31  1237                                                   >,			-
                                     0D31  1238                                           				-
                                     0D31  1239 	   <1,MBXNAM_ASN,						-
                                     0D31  1240 	        	MBXNAM_ASN40,IVLOGNAM,	-  ; SFASN40
                                     0D31  1241 	        	MBXNAM_ASN41,IVDEVNAM,	-  ; SFASN41
                                     0D31  1242 	        	MBXNAM_ASN42,DEVNOTMBX,	-  ; SFASN42
                                     0D31  1243 	        	MBXNAM_ASN43,ACCVIO,	-  ; SFASN43
                                     0D31  1244                                                   >,			-
                                     0D31  1245
                                     0FD7  1246 	TS_CLEANUP		; CLEAN UP & RETURN TO TEST_SERV_EXEC
SATSSF09        - SATS SYSTEM SERVICE TESTS  (FAILING S.C.)      22-AUG-1978 03:47:45   VAX-11 MACRO X0.3-11               Page  51
1.0                                                                                                                              (1)

                                     0FF7  1247 TS4:
                                     0FF7  1248 	TESTSERV	DASSGN,ERR,SATS,				-
                                     0FF7  1249                                           				-
                                     0FF7  1250 	   <1,CHAN_DAS,						-
                                     0FF7  1251 	        	CHAN_DAS10,NOPRIV,	-  ; SFDAS10
                                     0FF7  1252 	        	CHAN_DAS11,IVCHAN,	-  ; SFDAS11
                                     0FF7  1253 	        	CHAN_DAS12,IVCHAN,	-  ; SFDAS12
                                     0FF7  1254                                                   >,			-
                                     0FF7  1255
                                     10CB  1256 	TS_CLEANUP		; CLEAN UP & RETURN TO TEST_SERV_EXEC
SATSSF09        - SATS SYSTEM SERVICE TESTS  (FAILING S.C.)      22-AUG-1978 03:47:45   VAX-11 MACRO X0.3-11               Page  52
1.0                                                                                                                              (1)

                                     10EB  1257 TS5:
                                     10EB  1258 	TESTSERV	DELMBX,ERR,SATS,				-
                                     10EB  1259                                           				-
                                     10EB  1260 	   <1,CHAN_DMX,						-
                                     10EB  1261 	        	CHAN_DMX10,NOPRIV,	-  ; SFDMX10
                                     10EB  1262 	        	CHAN_DMX11,NOPRIV,	-  ; SFDMX11
                                     10EB  1263 	        	CHAN_DMX12,IVCHAN,	-  ; SFDMX12
                                     10EB  1264 	        	CHAN_DMX13,IVCHAN,	-  ; SFDMX13
                                     10EB  1265 	        	CHAN_DMX14,DEVNOTMBX,	-  ; SFDMX14
                                     10EB  1266                                                   >,			-
                                     10EB  1267
                                     11CF  1268 	TS_CLEANUP		; CLEAN UP & RETURN TO TEST_SERV_EXEC
SATSSF09        - SATS SYSTEM SERVICE TESTS  (FAILING S.C.)      22-AUG-1978 03:47:45   VAX-11 MACRO X0.3-11               Page  53
1.0             EXECUTE & CLEANUP                                                                                                (1)

                                     11EF  1269 	.SBTTL	EXECUTE & CLEANUP
                                     11EF  1270 EXECUTE:
                                     11EF  1271 	TEST_SERV_EXEC			; EXECUTE ALL T. CASES IN ALL GROUPS
                                     1221  1272 	.MDELETE (PRIV,TC_GROUP,NEXT_TEST_CASE, -
                           0000000D  1221  1273 		  TCEND,TESTSERV,TS_CLEANUP,TEST_SERV_EXEC)
                                     1221  1274 					; DELETE MACRO DEFINITIONS
                                     1221  1275 CLEANUP:
                          0138   30  1221  1276 	BSBW	MOD_MSG_PRINT		; PRINT TEST MODULE END MSG
            1C            01     F0  1224  1277 	INSV	#1,#STS$V_INHIB_MSG,#1,MOD_MSG_CODE
   00000044'EF            01         1227
                                     122D  1278 					; INHIBIT PRINTING
                                     122D  1279 	$EXIT_S	MOD_MSG_CODE		; EXIT TO OP SYS WITH MSG CODE
SATSSF09        - SATS SYSTEM SERVICE TESTS  (FAILING S.C.)      22-AUG-1978 03:47:45   VAX-11 MACRO X0.3-11               Page  54
1.0             TC_CONTROL                                                                                                       (1)

                                     123A  1281 	.SBTTL	TC_CONTROL
                                     123A  1282 ;++
                                     123A  1283 ; FUNCTIONAL DESCRIPTION:
                                     123A  1284 ;
                                     123A  1285 ;		THE TC_CONTROL SUBROUTINE IS CALLED BY THE TEST_SERV_EXEC
                                     123A  1286 ; MACRO TO EXECUTE A GROUP OF TEST CASES. A GROUP IS DEFINED BY A TC_GROUP
                                     123A  1287 ; MACRO. FOR EACH TC_GROUP MACRO, THERE IS A CORRESPONDING TESTSERV MACRO.
                                     123A  1288 ; TESTSERV CONTAINS CODE TO EXECUTE SYSTEM SERVICES AND CHECK THE RETURNED
                                     123A  1289 ; STATUS CODE VALUES. TESTSERV ARGUMENTS ARE CODED TO SPECIFY ALL THE SYSTEM
                                     123A  1290 ; SERVICE ARGUMENT VALUES AND THE EXPECTED STATUS CODE FOR EACH TEST CASE
                                     123A  1291 ; DEFINED BY A NEXT_TEST_CASE MACRO WITHIN THE GROUP. TC_CONTROL USES A
                                     123A  1292 ; CO-ROUTINE INTERFACE TO ENTER THE CODE OF THE APPROPRIATE TESTSERV MACRO
                                     123A  1293 ; IN VARIOUS PLACES. THE FIRST ENTRY OCCURS ONCE PER GROUP TO ALLOW TESTSERV
                                     123A  1294 ; TO DO SOME INITIALIZATION. THEN TWO ENTRIES ARE MADE FOR EACH TEST CASE IN
                                     123A  1295 ; THE GROUP. THE FIRST ALLOWS TESTSERV TO ISSUE THE SUBJECT SYSTEM SERVICE.
                                     123A  1296 ; THE SECOND ENTRY FOR THE TEST CASE CAUSES TESTSERV TO CHECK THE RETURNED
                                     123A  1297 ; STATUS CODE, PRINTING A FAILURE MESSAGE IF IT IS NOT THE EXPECTED CODE.
                                     123A  1298 ; IF THERE ARE NO MORE TEST CASES IN THE CURRENT GROUP, TESTSERV (NOT TC_CONTROL)
                                     123A  1299 ; RETURNS DIRECTLY TO TEST_SERV_EXEC (RSB ACTUALLY ISSUED IN TS_CLEANUP MACRO)
                                     123A  1300 ; FROM THIS SECOND ENTRY; OTHERWISE, CONTROL RETURNS TO TC_CONTROL WHICH
                                     123A  1301 ; IN TURN ENTERS TESTSERV AGAIN FOR THE NEXT TEST CASE. THE FAILURE OF A
                                     123A  1302 ; TEST CASE DOES NOT CAUSE TERMINATION OF THE TEST MODULE.
                                     123A  1303 ;
                                     123A  1304 ; CALLING SEQUENCE:
                                     123A  1305 ;
                                     123A  1306 ;	BSBW TC_CONTROL (ISSUED WITHIN THE TEST_SERV_EXEC MACRO)
                                     123A  1307 ;			(RSB IS ISSUED WITHIN THE TS_CLEANUP MACRO)
                                     123A  1308 ;
                                     123A  1309 ; INPUT PARAMETERS:
                                     123A  1310 ;
                                     123A  1311 ;	NONE
                                     123A  1312 ;
                                     123A  1313 ; IMPLICIT INPUTS:
                                     123A  1314 ;
                                     123A  1315 ;	ARGUMENTS SPECIFIED ON EACH TESTSERV MACRO MAY BE VIEWED AS
                                     123A  1316 ;	INPUTS, SINCE TC_CONTROL AND TESTSERV ACT AS CO-ROUTINES.
                                     123A  1317 ;
                                     123A  1318 ; OUTPUT PARAMETERS:
                                     123A  1319 ;
                                     123A  1320 ;	SEVERITY CODE FIELD OF MOD_MSG_CODE (BITS 0,1,2) IS SET TO ERROR
                                     123A  1321 ;	IF ANY TEST CASE IN THE CURRENT GROUP FAILS; OTHERWISE IT REMAINS
                                     123A  1322 ;	SET TO SUCCESSFUL.
                                     123A  1323 ;
                                     123A  1324 ; IMPLICIT OUTPUTS:
                                     123A  1325 ;
                                     123A  1326 ;	%UETP-I-TEXT,   ERROR MESSAGES ARE WRITTEN TO SYS$OUTPUT BY
                                     123A  1327 ;			THE TESTSERV MACRO (CO-ROUTINE WITH TC_CONTROL)
                                     123A  1328 ;
                                     123A  1329 ; COMPLETION CODES:
                                     123A  1330 ;
                                     123A  1331 ;	NONE
                                     123A  1332 ;
                                     123A  1333 ; SIDE EFFECTS:
                                     123A  1334 ;
                                     123A  1335 ;	NONE
                                     123A  1336 ;
                                     123A  1337 ;--
SATSSF09        - SATS SYSTEM SERVICE TESTS  (FAILING S.C.)      22-AUG-1978 03:47:45   VAX-11 MACRO X0.3-11               Page  55
1.0             TC_CONTROL                                                                                                       (1)

                                     123A  1338
                                     123A  1339
                                     123A  1340
                                     123A  1341 TC_CONTROL:
                 00000064'EF     DD  123A  1342 	PUSHL	TS_EP			; PUSH TESTSERV ENTRY POINT
                          9E     16  1240  1343 	JSB	@(SP)+			; ENTER TESTSERV INITIALIZATION
                                     1242  1344 10$:					; PROCESS NEXT TEST CASE
   00000056'EF            20     90  1242  1345 	MOVB	#^A/ /,$$TSTN$$+2 	; MAKE SURE T.C. NAME HAS A BLANK
                          002F   30  1249  1346 	BSBW	REG_SAVE		; SAVE REGISTERS
                 00000004'FF     16  124C  1347 	JSB	@CURRENT_TC		; JUMP TO CURRENT TEST CASE
                          0037   30  1252  1348 	BSBW	REG_REST		; RESTORE REGS FOR TESTSERV
                          9E     16  1255  1349 	JSB	@(SP)+			; LET TESTSERV ISSUE SYSTEM SERVICE
                          0042   30  1257  1350 	BSBW	REG_COMP		; COMPARE REGS TO SEE IF ...
                                     125A  1351 					; ... SYSTEM SERVICE CHANGED ANY
                          9E     16  125A  1352 	JSB	@(SP)+			; LET TESTSERV CHEK S.S. STATUS CODE
   00000056'EF            2A     91  125C  1353 	CMPB	#^A/*/,$$TSTN$$+2	; HAS TESTSERV INDICATED FAILURE ?
                          DD     12  1263  1354 	BNEQU	10$			; NO -- PROCESS NEXT TEST CASE
   00000060'EF   00000088'EF     DE  1265  1355 	MOVAL	TEST_MOD_FAIL,TMD_ADDR	; YES -- INDICATE FAILED IN END MSG
            00            02     F0  1270  1356 	INSV	#ERROR,#0,#3,MOD_MSG_CODE ; ADJUST STATUS CODE FOR ERROR
   00000044'EF            03         1273
                          C7     11  1279  1357 	BRB	10$			; LOOP BAK TO PROCESS NEXT TEST CASE
                                     127B  1358 ;
                                     127B  1359 ;   TC_CONTROL RETURNS TO TEST_SERV_EXEC VIA TESTSERV (IN TS_CLEANUP MACRO)
                                     127B  1360 ;
SATSSF09        - SATS SYSTEM SERVICE TESTS  (FAILING S.C.)      22-AUG-1978 03:47:45   VAX-11 MACRO X0.3-11               Page  56
1.0             SUBROUTINES                                                                                                      (1)

                                     127B  1362 	.SBTTL	SUBROUTINES
                                     127B  1363 REG_SAVE:
                                     127B  1364 ;
                                     127B  1365 ;  *****************************************************************
                                     127B  1366 ;  *                                                               *
                                     127B  1367 ;  *  SAVES R0 THRU SP IN REG_SAVE_AREA                            *
                                     127B  1368 ;  *                                                               *
                                     127B  1369 ;  *****************************************************************
                                     127B  1370 ;
                     7FFF 8F     BB  127B  1371 	PUSHR	#R0_THRU_SP		; SAVE ALL REGS ON STACK
            6E            3C     28  127F  1372 	MOVC3	#60,(SP),REG_SAVE_AREA	; SAVE REGS (BEFORE S.S.)
                 00000008'EF         1282
                     7FFF 8F     BA  1287  1373 	POPR	#R0_THRU_SP		; CLEAN UP STACK
                                 05  128B  1374 	RSB				; .... AND RETURN
                                     128C  1375 ;
                                     128C  1376 ;
                                     128C  1377 ;
                                     128C  1378 ;
                                     128C  1379 REG_REST:
                                     128C  1380 ;
                                     128C  1381 ;
                                     128C  1382 ;  *****************************************************************
                                     128C  1383 ;  *                                                               *
                                     128C  1384 ;  *  RESTORES R0 THRU SP FROM REG_SAVE_AREA                       *
                                     128C  1385 ;  *                                                               *
                                     128C  1386 ;  *****************************************************************
                                     128C  1387 ;
            5E            3C     C2  128C  1388 	SUBL2	#60,SP			; MOVE SP TO MAKE ROOM FOR REGS
   00000008'EF            3C     28  128F  1389 	MOVC3	#60,REG_SAVE_AREA,(SP)	; MOVE REGS ONTO STACK FOR POP
                          6E         1296
                     7FFF 8F     BA  1297  1390 	POPR	#R0_THRU_SP		; RESTORE ALL REGS FOR TESTSERV
                                 05  129B  1391 	RSB				; ... AND RETURN
SATSSF09        - SATS SYSTEM SERVICE TESTS  (FAILING S.C.)      22-AUG-1978 03:47:45   VAX-11 MACRO X0.3-11               Page  57
1.0             SUBROUTINES                                                                                                      (1)

                                     129C  1393 REG_COMP:
                                     129C  1394 ;
                                     129C  1395 ;  *****************************************************************
                                     129C  1396 ;  *                                                               *
                                     129C  1397 ;  *  1) PUSHES ALL REGS ONTO STACK                                *
                                     129C  1398 ;  *  2) COMPARES REGISTER IMAGES FROM STACK WITH CORRESPONDING    *
                                     129C  1399 ;  *       IMAGES FROM REG_SAVE_AREA FOR ALL REGISTERS SPECIFIED   *
                                     129C  1400 ;  *       IN REG_COMP_MASK.                                       *
                                     129C  1401 ;  *  3) FOR EACH UNEQUAL COMPARE, AN ERROR MESSAGE IS PRINTED     *
                                     129C  1402 ;  *       (USING $FAO AND $OUTPUT SYSTEM SERVICES).               *
                                     129C  1403 ;  *  4) POPS ALL REGS OFF OF STACK                                *
                                     129C  1404 ;  *                                                               *
                                     129C  1405 ;  *****************************************************************
                                     129C  1406 ;
                     7FFF 8F     BB  129C  1407 	PUSHR	#R0_THRU_SP		; SAVE ALL REGISTERS ON STACK
            56   00000008'EF     DE  12A0  1408 	MOVAL	REG_SAVE_AREA,R6 	; POINT R6 TO BEG OF ...
                                     12A7  1409 					; ... REGS (BEFORE S.S.)
            54            5E     D0  12A7  1410 	MOVL	SP,R4			; POINT R4 TO BEG OF
                                     12AA  1411 					; ... REGS (AFTER S.S.)
            53         FF 8F     98  12AA  1412 	CVTBL	#-1,R3			; INITIALIZE REG_COMP_MASK INDEX
                                     12AE  1413 REG_COMP_NEXT:
                          53     D6  12AE  1414 	INCL	R3			; POINT TO NEXT BIT IN MASK
            53            0F     91  12B0  1415 	CMPB	#15,R3			; END OF THE MASK ?
                          03     1A  12B3  1416 	BGTRU	REG_COMP_CONT		; NO -- CONTINUE
                          009F   31  12B5  1417 	BRW	REG_COMP_RSB		; YES -- GO TO COMMON RETURN
                                     12B8  1418 REG_COMP_CONT:
            84            86     D1  12B8  1419 	CMPL	(R6)+,(R4)+		; REG BEFORE = REG AFTER ?
                          F1     13  12BB  1420 	BEQLU	REG_COMP_NEXT		; YES -- LOOK FOR NEXT REG
   00000000'EF            53     E1  12BD  1421 	BBC	R3,REG_COMP_MASK,REG_COMP_NEXT
                          E9         12C4
                                     12C5  1422 					; NO -- GET NEXT IF BIT NOT SET
   00000048'EF            53     D0  12C5  1423 	MOVL	R3,CLOB_REG_NO		; NO -- GIVE REG NUMBER TO FAO
   0000004C'EF         FC A6     D0  12CC  1424 	MOVL	-4(R6),REG_BEFORE_SS 	; GIVE "BEFORE" CONTENTS TO FAO
   00000050'EF         FC A4     D0  12D4  1425 	MOVL	-4(R4),REG_AFTER_SS  	; GIVE "AFTER" CONTENTS TO FAO
   00000056'EF            2A     90  12DC  1426 	MOVB	#^A/*/,$$TSTN$$+2 	; GIVE FAILURE INDIC'N IN ERROR MSG
                                     12E3  1427 ;
                                     12E3  1428 	$FAO_S	ERR_MSG_FAOCTL,OUTL,OUTD,$$SNAD$$,  -
                                     12E3  1429 		$$ASEQ$$,$$PSEQ$$,CLOB_REG_NO,REG_BEFORE_SS,REG_AFTER_SS
                                     1316  1430 ;
       EE00 CF       EDCA CF     B0  1316  1431 	MOVW	OUTL,OUTD		; ACTUAL OUTPUT LEN IN STRING DESC'R
                                     131D  1432 	PUTMSG	<#UETP$_TEXT,#1,#OUTD>	; PRINT THE MSG
       EDE4 CF       0084 8F     B0  1332  1433 	MOVW	#OUTE-OUTB,OUTD		; GET MAX LEN BACK INTO DESCRIPTOR
   00000056'EF            20     90  1339  1434 	MOVB	#^A/ /,$$TSTN$$+2 	; REMOVE FAIL INDIC'N FOR NEXT MSG
   00000060'EF   00000088'EF     DE  1340  1435 	MOVAL	TEST_MOD_FAIL,TMD_ADDR	; INDICATE FAILED IN END MSG
            00            02     F0  134B  1436 	INSV	#ERROR,#0,#3,MOD_MSG_CODE ; ADJUST STATUS CODE FOR ERROR
   00000044'EF            03         134E
                          FF57   31  1354  1437 	BRW	REG_COMP_NEXT		; GO LOOK FOR NEXT REG TO COMPARE
                                     1357  1438 REG_COMP_RSB:
                     7FFF 8F     BA  1357  1439 	POPR	#R0_THRU_SP		; CLEAN UP STACK
                                 05  135B  1440 	RSB				; RETURN TO CALLER
SATSSF09        - SATS SYSTEM SERVICE TESTS  (FAILING S.C.)      22-AUG-1978 03:47:45   VAX-11 MACRO X0.3-11               Page  58
1.0             SUBROUTINES                                                                                                      (1)

                                     135C  1442 MOD_MSG_PRINT:
                                     135C  1443 ;
                                     135C  1444 ;  *****************************************************************
                                     135C  1445 ;  *                                                               *
                                     135C  1446 ;  *  PRINTS THE TEST MODULE BEGUN/SUCCESSFUL/FAILED MESSAGES      *
                                     135C  1447 ;  *	   (USING THE PUTMSG MACRO).                               *
                                     135C  1448 ;  *                                                               *
                                     135C  1449 ;  *****************************************************************
                                     135C  1450 ;
                                     135C  1451 	PUTMSG	<MOD_MSG_CODE,#2,TMN_ADDR,TMD_ADDR> ; PRINT MSG
                                 05  1377  1452 	RSB				; ... AND RETURN TO CALLER
                                     1378  1453 ;
                                     1378  1454 CHMRTN:
                                     1378  1455 ; **********************************************************
                                     1378  1456 ; *
                                     1378  1457 ; *	CHANGE MODE ROUTINE. THIS ROUTINE GETS CONTROL WHENEVER
                                     1378  1458 ; *	A CMKRNL, CMEXEC, OR CMSUP SYSTEM SERVICE IS ISSUED
                                     1378  1459 ; *	BY THE MODE MACRO ('TO' OPTION).  IT MERELY DOES
                                     1378  1460 ; *	A JUMP INDIRECT ON A FIELD SET UP BY MODE. IT HAS
                                     1378  1461 ; *	THE EFFECT OF RETURNING TO THE END OF THE MODE
                                     1378  1462 ; *	MACRO EXPANSION.
                                     1378  1463 ; *
                                     1378  1464 ; *************************************************************
                                     1378  1465 ;
                               0000  1378  1466 	.WORD	0			; ENTRY MASK
                 00000079'FF     17  137A  1467 	JMP	@CHM_CONT		; RETURN TO MODE MACRO IN NEW MODE
                                     1380  1468 ;
                                     1380  1469 ; *	RET INSTR WILL BE ISSUED IN EXPANSION OF 'MODE FROM, ....' MACRO
                                     1380  1470 ;
                                     1380  1471 	.END	SATSSF09
SATSSF09        - SATS SYSTEM SERVICE TESTS  (FAILING S.C.)      22-AUG-1978 03:47:45   VAX-11 MACRO X0.3-11               Page  59
SYMBOL TABLE                                                                                                                     (1)

$$$CHARS       = 00000048            INADR            000000A9 R     03   PCB$V_PSWAPM   = 00000004
$$$FIRSTTC$$$  = 00000000            INFO           = 00000003            PCB$V_PWRAST   = 00000016
$$$STRINGS     = 00000000            LIB$SIGNAL       ********   X   07   PCB$V_RES      = 00000000
$$ACT$$          000000FC R     07   MBXNAM_ASN     = 00000000            PCB$V_RESPEN   = 00000005
$$ARG$$          00000104 R     07   MBXNAM_ASN40     000000E0 R     03   PCB$V_SSFEXC   = 00000006
$$ASEQ$$         000000F4 R     07   MBXNAM_ASN41     000001C4 R     03   PCB$V_SSFEXCE  = 00000007
$$CALL$$         000000E8 R     07   MBXNAM_ASN42     000000BD R     03   PCB$V_SSFEXCS  = 00000008
$$DISP$$         000001EF R     07   MBXNAM_ASN43     00000028 R     06   PCB$V_SSFEXCU  = 00000009
$$ERR$$          000001A9 R     07   MEXIT          = 00000000            PCB$V_SSRWAIT  = 0000000A
$$EXP$$          00000100 R     07   MOD_MSG_CODE     00000044 R     04   PCB$V_SUSPEN   = 0000000B
$$INIT$$         000000EC R     07   MOD_MSG_PRINT    0000135C R     07   PCB$V_SWPVBN   = 00000010
$$MAXP$$       = 00000005            MY_DISK          000001A4 R     03   PCB$V_WAKEPEN  = 0000000C
$$PSEQ$$         000000F8 R     07   NARGS          = 00000018            PCB$V_WALL     = 0000000D
$$SNAD$$         000000F0 R     07   NOACCESS         00000000 R     06   PCB$W_APTCNT     00000034
$$T1           = 00000004            ONES             000000B5 R     03   PCB$W_ASTCNT     0000003C
$$T2           = 00000009            OUTB             00000125 R     07   PCB$W_BIOCNT     0000003E
$$TSTN$$         00000054 R     04   OUTD             0000011D R     07   PCB$W_BIOLM      00000040
ACMODE_ASN       000001C0 R     03   OUTE             000001A9 R     07   PCB$W_BYTCNT     00000042
BIT...         = 00000000            OUTL             000000E4 R     07   PCB$W_BYTLM      00000068
CHAN_ASN         00000118 R     04   PCB$B_ASTACT     0000000C            PCB$W_DIOCNT     00000044
CHAN_ASN20       000001BC R     03   PCB$B_ASTEN      0000000D            PCB$W_DIOLM      00000046
CHAN_DAS         0000011A R     04   PCB$B_PRI        0000000B            PCB$W_FILCNT     00000048
CHAN_DAS10       0000011E R     04   PCB$B_PRIB       00000033            PCB$W_GPGCNT     00000038
CHAN_DAS11       000001B4 R     03   PCB$B_TYPE       0000000A            PCB$W_GRP        00000022
CHAN_DAS12       000001B8 R     03   PCB$B_WEFC       00000032            PCB$W_MEM        00000020
CHAN_DMX         00000122 R     04   PCB$C_LENGTH     0000007C            PCB$W_MTXCNT     0000000E
CHAN_DMX10       00000126 R     04   PCB$K_LENGTH     0000007C            PCB$W_PPGCNT     0000003A
CHAN_DMX11       0000012A R     04   PCB$L_ASTQBL     00000014            PCB$W_PRCCNT     0000006A
CHAN_DMX12       000001B4 R     03   PCB$L_ASTQFL     00000010            PCB$W_SIZE       00000008
CHAN_DMX13       000001B8 R     03   PCB$L_EFC2P      00000058            PCB$W_STATE      00000030
CHAN_DMX14       0000012E R     04   PCB$L_EFC3P      0000005C            PCB$W_TMBU       00000036
CHAN_GCH         00000110 R     04   PCB$L_EFCS       00000050            PCB$W_TQCNT      0000004A
CHAN_GCH10       000001B4 R     03   PCB$L_EFCU       00000054            PHD$B_ASTLVL     000000CF
CHAN_GCH11       000001B8 R     03   PCB$L_EFWM       0000004C            PHD$B_DFPFC      00000038
CHAN_GCH12       00000114 R     04   PCB$L_OWNER      0000001C            PHD$B_PAGFIL     0000001F
CHMRTN           00001378 R     07   PCB$L_PHD        00000064            PHD$B_PGTBPFC    00000039
CHM_CONT         00000079 R     04   PCB$L_PHYPCB     00000018            PHD$C_LENGTH     00000118
CLEANUP          00001221 R     07   PCB$L_PID        00000060            PHD$C_PHDPAGCTX= 00000008
CLOB_REG_NO      00000048 R     04   PCB$L_PQB        0000004C            PHD$K_LENGTH     00000118
CTL$GL_PHD       ********   X   07   PCB$L_SQBL       00000004            PHD$L_BIOCNT     00000054
CURRENT_TC       00000004 R     04   PCB$L_SQFL       00000000            PHD$L_CPULIM     00000058
DEVNAM_ASN       000000BD R     03   PCB$L_STS        00000028            PHD$L_CPUTIM     0000003C
DEVNAM_ASN10     000000D8 R     03   PCB$L_UIC        00000020            PHD$L_DIOCNT     00000050
DEVNAM_ASN11     00000128 R     03   PCB$L_WSSWP      00000024            PHD$L_ESP        0000007C
DEVNAM_ASN12     00000018 R     06   PCB$L_WTIME      0000002C            PHD$L_FREP0VA    00000028
DEVNAM_GDV       000000BD R     03   PCB$T_LNAME      0000006C            PHD$L_FREP1VA    00000030
DEVNAM_GDV10     000000CD R     03   PCB$V_ASTPEN   = 00000011            PHD$L_FREPTECNT  0000002C
DEVNAM_GDV11     000000D8 R     03   PCB$V_BATCH    = 0000000E            PHD$L_KSP        00000078
DEVNAM_GDV12     000000E0 R     03   PCB$V_DELPEN   = 00000001            PHD$L_P0BR       000000C8
DEVNAM_GDV13     00000128 R     03   PCB$V_FORCPEN  = 00000002            PHD$L_P0LRASTL   000000CC
DEVNAM_GDV14     00000008 R     06   PCB$V_HIBER    = 00000013            PHD$L_P1BR       000000D0
EMPTY            00000000 R     05   PCB$V_INQUAN   = 00000003            PHD$L_P1LR       000000D4
ERROR          = 00000002            PCB$V_LOGIN    = 00000014            PHD$L_PAGEFLTS   0000004C
ERR_MSG_FAOCTL   00000002 R     03   PCB$V_NETWRK   = 00000015            PHD$L_PAGFIL     0000001C
EXECUTE          000011EF R     07   PCB$V_NOACNT   = 0000000F            PHD$L_PC         000000C0
GBL...         = 00000000            PCB$V_NODELET  = 00000017            PHD$L_PCB        00000078
GRP_TOTAL      = 00000005            PCB$V_PHDRES   = 00000012            PHD$L_PGFLCNT    00000034
SATSSF09        - SATS SYSTEM SERVICE TESTS  (FAILING S.C.)      22-AUG-1978 03:47:45   VAX-11 MACRO X0.3-11               Page  60
SYMBOL TABLE                                                                                                                     (1)

PHD$L_PGFLQUOTA  0000005C            PHD$W_WSLIST     00000008            PSL$M_PRVMOD   = 00C00000
PHD$L_PSL        000000C4            PHD$W_WSLOCK     0000000C            PSL$M_SAFBITS  = 000037FF
PHD$L_PSTBASOFF  00000020            PHD$W_WSLX       0000004A            PSL$M_TBIT     = 00000010
PHD$L_PTWSLELCK  00000064            PHD$W_WSNEXT     00000010            PSL$M_TP       = 40000000
PHD$L_PTWSLEVAL  00000068            PHD$W_WSQUOTA    00000018            PSL$S_CURMOD   = 00000002
PHD$L_R0         00000088            PRIBUF_GCH       00000093 R     04   PSL$S_IPL      = 00000005
PHD$L_R1         0000008C            PRIBUF_GCH30     000000FF R     04   PSL$S_PRVMOD   = 00000002
PHD$L_R10        000000B0            PRIBUF_GCH31     00000138 R     03   PSL$V_CM       = 0000001F
PHD$L_R11        000000B4            PRIBUF_GDV       00000093 R     04   PSL$V_CURMOD   = 00000018
PHD$L_R12        000000B8            PRIBUF_GDV30     000000FF R     04   PSL$V_DV       = 00000007
PHD$L_R13        000000BC            PRIBUF_GDV31     00000138 R     03   PSL$V_FPD      = 0000001B
PHD$L_R2         00000090            PRILEN_GCH       00000091 R     04   PSL$V_FU       = 00000006
PHD$L_R3         00000094            PRILEN_GCH20     00000136 R     03   PSL$V_IPL      = 00000010
PHD$L_R4         00000098            PRILEN_GDV       00000091 R     04   PSL$V_IS       = 0000001A
PHD$L_R5         0000009C            PRILEN_GDV20     00000136 R     03   PSL$V_IV       = 00000005
PHD$L_R6         000000A0            PRIVMASK         00000071 R     04   PSL$V_PRVMOD   = 00000016
PHD$L_R7         000000A4            PROT             000000B1 R     03   PSL$V_TBIT     = 00000004
PHD$L_R8         000000A8            PRT$C_NA         ********   X   03   PSL$V_TP       = 0000001E
PHD$L_R9         000000AC            PRV$V_ALLSPOOL = 00000004            R0_THRU_SP     = 00007FFF
PHD$L_REFERFLT   00000014            PRV$V_BUGCHK   = 00000017            REGS             0000007D R     04
PHD$L_SSP        00000080            PRV$V_CMEXEC   = 00000001            REG_AFTER_SS     00000050 R     04
PHD$L_USP        00000084            PRV$V_CMKRNL   = 00000000            REG_BEFORE_SS    0000004C R     04
PHD$L_WSL        00000118            PRV$V_DETACH   = 00000005            REG_COMP         0000129C R     07
PHD$M_DALCSTX  = 00000002            PRV$V_DIAGNOSE = 00000006            REG_COMP_CONT    000012B8 R     07
PHD$M_PFMFLG   = 00000001            PRV$V_EXQUOTA  = 00000013            REG_COMP_MASK    00000000 R     03
PHD$M_WSPEAKCHK= 00000004            PRV$V_GROUP    = 00000008            REG_COMP_NEXT    000012AE R     07
PHD$Q_PRIVMSK    00000000            PRV$V_GRPNAM   = 00000003            REG_COMP_RSB     00001357 R     07
PHD$S_ASTLVL   = 00000008            PRV$V_LOG_IO   = 00000007            REG_REST         0000128C R     07
PHD$S_P0LR     = 00000018            PRV$V_MOUNT    = 00000011            REG_SAVE         0000127B R     07
PHD$V_ASTLVL   = 00000018            PRV$V_NETMBX   = 00000014            REG_SAVE_AREA    00000008 R     04
PHD$V_DALCSTX  = 00000001            PRV$V_NOACNT   = 00000009            RETADR           00000068 R     04
PHD$V_P0LR     = 00000000            PRV$V_OPER     = 00000012            SATSSF09         00000000 R     07
PHD$V_PFMFLG   = 00000000            PRV$V_PHY_IO   = 00000016            SECBUF_GCH       00000093 R     04
PHD$V_WSPEAKCHK= 00000002            PRV$V_PRMCEB   = 0000000A            SECBUF_GCH50     00000108 R     04
PHD$W_ASTLM      00000044            PRV$V_PRMGBL   = 00000018            SECBUF_GCH51     00000138 R     03
PHD$W_BAK        00000048            PRV$V_PRMMBX   = 0000000B            SECBUF_GDV       00000093 R     04
PHD$W_DFWSCNT    0000001A            PRV$V_PSWAPM   = 0000000C            SECBUF_GDV50     00000108 R     04
PHD$W_EMPTPG     000000D8            PRV$V_SETPRI   = 0000000D            SECBUF_GDV51     00000138 R     03
PHD$W_EXTDYNWS   00000076            PRV$V_SETPRV   = 0000000E            SECLEN_GCH       00000091 R     04
PHD$W_FILLM      00000060            PRV$V_SYSGBL   = 00000019            SECLEN_GCH40     00000136 R     03
PHD$W_FLAGS      0000003A            PRV$V_SYSNAM   = 00000002            SECLEN_GDV       00000091 R     04
PHD$W_PHVINDEX   00000046            PRV$V_TMPMBX   = 0000000F            SECLEN_GDV40     00000136 R     03
PHD$W_PRCLM      00000042            PRV$V_VOLPRO   = 00000015            SEVERE         = 00000004
PHD$W_PST        00000020            PRV$V_WORLD    = 00000010            SHR$K_SHRDEF   = 00000001
PHD$W_PSTBASMAX  0000004A            PRVPRT           00000070 R     04   SHR$_ABEND     = 000010D8
PHD$W_PSTFREE    00000026            PSL$C_EXEC     = 00000001            SHR$_ABENDD    = 000010E0
PHD$W_PSTLAST    00000024            PSL$C_KERNEL   = 00000000            SHR$_ABENDT    = 000010E8
PHD$W_PTCNTACT   00000070            PSL$C_SUPER    = 00000002            SHR$_APPENDEDB = 00001000
PHD$W_PTCNTLCK   0000006C            PSL$C_USER     = 00000003            SHR$_APPENDEDR = 00001008
PHD$W_PTCNTMAX   00000072            PSL$M_CM       = 80000000            SHR$_ATPC      = 00001158
PHD$W_PTCNTVAL   0000006E            PSL$M_CURMOD   = 03000000            SHR$_BADBYTE   = 00001010
PHD$W_QUANT      00000040            PSL$M_DV       = 00000080            SHR$_BADCOPIES = 00001160
PHD$W_TQLM       00000062            PSL$M_FPD      = 08000000            SHR$_BADDELIM  = 00001118
PHD$W_WSAUTH     0000000A            PSL$M_FU       = 00000040            SHR$_BADFIELD  = 00001018
PHD$W_WSDYN      0000000E            PSL$M_IPL      = 001F0000            SHR$_BADFORM   = 00001168
PHD$W_WSFLUID    00000074            PSL$M_IS       = 04000000            SHR$_BADJOBID  = 00001170
PHD$W_WSLAST     00000012            PSL$M_IV       = 00000020            SHR$_BADJOBNAME= 00001178
SATSSF09        - SATS SYSTEM SERVICE TESTS  (FAILING S.C.)      22-AUG-1978 03:47:45   VAX-11 MACRO X0.3-11               Page  61
SYMBOL TABLE                                                                                                                     (1)

SHR$_BADKEY    = 00001108            SHR$_UNXPCTSTS = 000011D0            SYS$FAOL         ********   X   07
SHR$_BADLOGIC  = 00001120            SHR$_VALERR    = 000011E8            SYS$GETCHN       ********   X   07
SHR$_BADLOGICPC= 00001150            SHR$_WILDCONCAT= 000010C0            SYS$GETDEV       ********   X   07
SHR$_BADLONG   = 00001020            SHR$_WILDOUTVER= 000010C8            SYS$HIBER        ********   X   07
SHR$_BADPRTY   = 00001180            SHR$_WRITEERR  = 000010D0            SYS$SETPRN       ********   X   07
SHR$_BADQNAME  = 00001188            SS$_ACCVIO       ********   X   07   SYS$SETPRT       ********   X   07
SHR$_BADTIME   = 00001190            SS$_BUFFEROVF    ********   X   07   SYS$WAKE         ********   X   07
SHR$_BADVALUE  = 00001110            SS$_DEVNOTMBX    ********   X   07   TC1              0000024A R     07
SHR$_BADWORD   = 00001028            SS$_IVCHAN       ********   X   07   TC2              000002EA R     07
SHR$_BEGIN     = 00001030            SS$_IVDEVNAM     ********   X   07   TC3              000003E6 R     07
SHR$_BEGIND    = 00001038            SS$_IVLOGNAM     ********   X   07   TC4              00000462 R     07
SHR$_BEGINT    = 00001040            SS$_NOPRIV       ********   X   07   TC5              00000501 R     07
SHR$_CLICB     = 00001048            SS$_NOSUCHDEV    ********   X   07   TCG_NO         = 00000005
SHR$_CLOSEDEL  = 00001218            STS$K_ERROR    = 00000002            TC_CONTROL       0000123A R     07
SHR$_CLOSEIN   = 00001050            STS$K_INFO     = 00000003            TEST_MOD_BEG     00000077 R     03
SHR$_CLOSEOUT  = 00001058            STS$K_SEVERE   = 00000004            TEST_MOD_FAIL    00000088 R     03
SHR$_CONFDEL   = 000011F8            STS$K_SUCCESS  = 00000001            TEST_MOD_NAME    0000006E R     03
SHR$_COPIEDB   = 00001060            STS$K_WARNING  = 00000000            TEST_MOD_NAME_D  0000008F R     03
SHR$_COPIEDR   = 00001068            STS$M_CODE     = 00007FF8            TEST_MOD_SUCC    0000007D R     03
SHR$_CREATED   = 00001070            STS$M_COND_ID  = 0FFFFFF8            TMD_ADDR         00000060 R     04
SHR$_DELETED   = 00001200            STS$M_CONTROL  = F0000000            TMN_ADDR         0000005C R     04
SHR$_DELINTERR = 00001240            STS$M_CUST_DEF = 08000000            TPID             00000000 R     04
SHR$_DELVER    = 00001208            STS$M_FAC_NO   = 0FFF0000            TS1              0000064C R     07
SHR$_DIRTOOBUS = 00001220            STS$M_FAC_SP   = 00008000            TS2              000009C4 R     07
SHR$_ENDED     = 00001078            STS$M_INHIB_MSG= 10000000            TS3              00000D31 R     07
SHR$_ENDEDD    = 00001080            STS$M_MSG_NO   = 0000FFF8            TS4              00000FF7 R     07
SHR$_ENDEDT    = 00001088            STS$M_SEVERITY = 00000007            TS5              000010EB R     07
SHR$_FILNOTDEL = 000011F0            STS$M_SUCCESS  = 00000001            TS_EP            00000064 R     04
SHR$_FILNOTPUR = 00001230            STS$S_CODE     = 0000000C            TTNAME           0000009F R     03
SHR$_FILPURGED = 00001250            STS$S_COND_ID  = 00000019            UETP$_ABORTC   = 0074832B
SHR$_HASHCONCAT= 000011D8            STS$S_CONTROL  = 00000004            UETP$_CONF     = 007480D1
SHR$_HIGHVER   = 00001148            STS$S_CUST_DEF = 00000001            UETP$_DATAER   = 00748010
SHR$_IDXCONCAT = 00001138            STS$S_FAC_NO   = 0000000C            UETP$_DDB      = 007480E1
SHR$_INCOMPAT  = 000011E0            STS$S_FAC_SP   = 00000001            UETP$_DENOSU   = 00748333
SHR$_NEWFILES  = 00001090            STS$S_INHIB_MSG= 00000001            UETP$_DESTP    = 007481A2
SHR$_NOFILPURG = 00001228            STS$S_MSG_NO   = 0000000D            UETP$_DEUNUS   = 0074819A
SHR$_NOJOBID   = 000011A0            STS$S_SEVERITY = 00000003            UETP$_ERBOX    = 00748008
SHR$_NOJOBNAME = 000011A8            STS$S_SUCCESS  = 00000001            UETP$_SATSMS   = 007480D9
SHR$_NOQUEUE   = 00001198            STS$V_CODE     = 00000003            UETP$_TEXT     = 00741133
SHR$_NOTCMPLT  = 000011C0            STS$V_COND_ID  = 00000003            UETP$_UCB      = 007480E9
SHR$_NOTCOPIED = 000011B8            STS$V_CONTROL  = 0000001C            UETP$_USER     = 0074833B
SHR$_NOVALUE   = 00001100            STS$V_CUST_DEF = 0000001B            WARNING        = 00000000
SHR$_NOWILD    = 00001128            STS$V_FAC_NO   = 00000010
SHR$_OPENIN    = 00001098            STS$V_FAC_SP   = 0000000F
SHR$_OPENOUT   = 000010A0            STS$V_INHIB_MSG= 0000001C
SHR$_OVERLAY   = 000010A8            STS$V_MSG_NO   = 00000003
SHR$_PARSEFAIL = 00001248            STS$V_SEVERITY = 00000000
SHR$_PURGEVER  = 00001210            STS$V_SUCCESS  = 00000000
SHR$_READERR   = 000010B0            SUCCESS        = 00000001
SHR$_RELCONCAT = 00001140            SYS$ASSIGN       ********   X   07
SHR$_REPLACED  = 000010B8            SYS$CMEXEC       ********   X   07
SHR$_RMSERROR  = 000011C8            SYS$CMKRNL       ********   X   07
SHR$_SEARCHFAIL= 00001238            SYS$CREMBX       ********   X   07
SHR$_SYNTAX    = 000010F8            SYS$DASSGN       ********   X   07
SHR$_SYSERROR  = 000011B0            SYS$DELMBX       ********   X   07
SHR$_SYSERRORPC= 000010F0            SYS$EXIT         ********   X   07
SHR$_TEXT      = 00001130            SYS$FAO          ********   X   07
SATSSF09        - SATS SYSTEM SERVICE TESTS  (FAILING S.C.)      22-AUG-1978 03:47:45   VAX-11 MACRO X0.3-11               Page  62
PROGRAM SECTION SYNOPSIS                                                                                                         (1)


PROGRAM SECTION SYNOPSIS

.  ABS  .        00000000      00     NOPIC   USR   CON   ABS   LCL NOSHR NOEXE NORD  NOWRT BYTE
. BLANK .        00000000      01     NOPIC   USR   CON   REL   LCL NOSHR   EXE   RD    WRT BYTE
$ABS$            0000011C      02     NOPIC   USR   CON   ABS   LCL NOSHR   EXE   RD    WRT BYTE
RODATA           000001CF      03     NOPIC   USR   CON   REL   LCL NOSHR NOEXE   RD  NOWRT LONG
RWDATA           00000132      04     NOPIC   USR   CON   REL   LCL NOSHR NOEXE   RD    WRT BYTE
SATS_ACCVIO_1    00000200      05     NOPIC   USR   CON   REL   LCL NOSHR NOEXE   RD    WRT PAGE
SATS_ACCVIO_2    00000200      06     NOPIC   USR   CON   REL   LCL NOSHR NOEXE   RD    WRT PAGE
SATSSF09         00001380      07     NOPIC   USR   CON   REL   LCL NOSHR   EXE   RD    WRT LONG


THERE WERE NO ERRORS OR WARNINGS.
768. BYTES LEFT IN FREE MEMORY POOL.
3148. BYTES OF RECLAIMED MEMORY.
OBJ$:SATSSF09,LIS$:SATSSF09/-SP=EXECML$/ML,LIB$:SYSTST.MLB/ML,SRC$:SATSSF09
88 MLB DIR RDS - 1311 GETS TO DEFINE 53 MACROS. 108 INTER. FILE WRITES.
