SATSSF07        - SATS SYSTEM SERVICE TESTS  (FAILING S.C.)      22-AUG-1978 03:45:23   VAX-11 MACRO X0.3-11               Page   0
TABLE OF CONTENTS

   (1)      46  DECLARATIONS
   (1)     258  SATSSF07
   (1)     358  SFCWK10
   (1)     381  SFCWK11
   (1)     403  SFCWK12
   (1)     426  SFCWK13
   (1)     450  SFCWK14
   (1)     474  SFCWK20
   (1)     498  SFCWK21
   (1)     522  SFCWK22
   (1)     547  SFCWK23
   (1)     572  SFCWK24
   (1)     595
   (1)     598  SFCWK25
   (1)     622  SFCWK26
   (1)     645  SFCWK27
   (1)     668  SFCWK28
   (1)     691  SFCWK29
   (1)     718
   (1)     721  SFWAK10
   (1)     744  SFWAK11
   (1)     766  SFWAK12
   (1)     789  SFWAK13
   (1)     813  SFWAK14
   (1)     837  SFWAK20
   (1)     861  SFWAK21
   (1)     885  SFWAK22
   (1)     910  SFWAK23
   (1)     935  SFWAK24
   (1)     958
   (1)     961  SFWAK25
   (1)     985  SFWAK26
   (1)    1008  SFWAK27
   (1)    1031  SFWAK28
   (1)    1054  SFWAK29
   (1)    1081
   (1)    1084  SFDPC10
   (1)    1106  SFDPC11
   (1)    1128  SFDPC12
   (1)    1151  SFDPC13
   (1)    1175  SFDPC14
   (1)    1199  SFDPC20
   (1)    1223  SFDPC21
   (1)    1247  SFDPC22
   (1)    1272  SFDPC23
   (1)    1297  SFDPC24
   (1)    1320
   (1)    1323  SFDPC25
   (1)    1347  SFDPC26
   (1)    1370  SFDPC27
   (1)    1393  SFDPC28
   (1)    1416  SFDPC29
   (1)    1443
   (1)    1446  SFGJP20
   (1)    1468  SFGJP21
   (1)    1492  SFGJP22
   (1)    1516  SFGJP30
SATSSF07        - SATS SYSTEM SERVICE TESTS  (FAILING S.C.)      22-AUG-1978 03:45:23   VAX-11 MACRO X0.3-11               Page   0
TABLE OF CONTENTS

   (1)    1539  SFGJP31
   (1)    1562  SFGJP32
   (1)    1585  SFGJP33
   (1)    1608  SFGJP34
   (1)    1635  SFGJP40
   (1)    1659  SFGJP41
   (1)    1682
   (1)    1817  EXECUTE & CLEANUP
   (1)    1836  TC_CONTROL
   (1)    1917  SUBROUTINES
SATSSF07        - SATS SYSTEM SERVICE TESTS  (FAILING S.C.)      22-AUG-1978 03:45:23   VAX-11 MACRO X0.3-11               Page   1
1.0                                                                                                                              (1)

                                     0000     1 	.TITLE	SATSSF07 - SATS SYSTEM SERVICE TESTS  (FAILING S.C.)
                                     0000     2 	.IDENT	/1.0/
                                     0000     3
                                     0000     4 ;
                                     0000     5 ;			  COPYRIGHT (c) 1977,1978 BY
                                     0000     6 ;	      DIGITAL EQUIPMENT CORPORATION, MAYNARD, MASS.
                                     0000     7 ;
                                     0000     8 ; THIS SOFTWARE IS FURNISHED UNDER A LICENSE AND MAY BE USED AND  COPIED
                                     0000     9 ; ONLY  IN  ACCORDANCE  WITH  THE  TERMS  OF  SUCH  LICENSE AND WITH THE
                                     0000    10 ; INCLUSION OF THE ABOVE COPYRIGHT NOTICE.  THIS SOFTWARE OR  ANY  OTHER
                                     0000    11 ; COPIES  THEREOF MAY NOT BE PROVIDED OR OTHERWISE MADE AVAILABLE TO ANY
                                     0000    12 ; OTHER PERSON.  NO TITLE TO AND OWNERSHIP OF  THE  SOFTWARE  IS  HEREBY
                                     0000    13 ; TRANSFERRED.
                                     0000    14 ;
                                     0000    15 ; THE INFORMATION IN THIS SOFTWARE IS SUBJECT TO CHANGE  WITHOUT  NOTICE
                                     0000    16 ; AND  SHOULD  NOT  BE  CONSTRUED  AS  A COMMITMENT BY DIGITAL EQUIPMENT
                                     0000    17 ; CORPORATION.
                                     0000    18 ;
                                     0000    19 ; DIGITAL ASSUMES NO RESPONSIBILITY FOR THE USE OR  RELIABILITY  OF  ITS
                                     0000    20 ; SOFTWARE ON EQUIPMENT WHICH IS NOT SUPPLIED BY DIGITAL.
                                     0000    21 ;
                                     0000    22
                                     0000    23 ;++
                                     0000    24 ; FACILITY:	SATS SYSTEM SERVICE TESTS
                                     0000    25 ;
                                     0000    26 ; ABSTRACT:	THE SATSSF07 MODULE TESTS THE EXECUTION OF CERTAIN
                                     0000    27 ; VMS SYSTEM SERVICES, INVOKED IN SUCH A WAY AS TO EXPECT FAILING
                                     0000    28 ; STATUS CODES. THE SYSTEM SERVICES TESTED AND THE STATUS CODES
                                     0000    29 ; EXPECTED ARE SUMMARIZED AS ARGUMENTS TO THE TESTSERV MACROS
                                     0000    30 ; WHICH APPEAR NEAR THE END OF THIS LISTING. SUCCESSFUL STATUS
                                     0000    31 ; CODES ARE TESTED IN OTHER MODULES.
                                     0000    32 ;
                                     0000    33 ;
                                     0000    34 ; ENVIRONMENT:	USER MODE IMAGE; NEEDS CMKRNL PRIVILEGE,
                                     0000    35 ;		DYNAMICALLY ACQUIRES OTHER PRIVILEGES, AS NEEDED.
                                     0000    36 ;
                                     0000    37 ; AUTHOR: THOMAS L. CAFARELLA,		CREATION DATE: MMM, 1978
                                     0000    38 ;	  PAUL D. FAY (DISPSERV & TESTSERV MACROS)
                                     0000    39 ;
                                     0000    40 ; MODIFIED BY:
                                     0000    41 ;
                                     0000    42 ;	, : VERSION
                                     0000    43 ; 01	-
                                     0000    44 ;--
SATSSF07        - SATS SYSTEM SERVICE TESTS  (FAILING S.C.)      22-AUG-1978 03:45:23   VAX-11 MACRO X0.3-11               Page   2
1.0             DECLARATIONS                                                                                                     (1)

                                     0000    46 	.SBTTL	DECLARATIONS
                                     0000    47 ;
                                     0000    48 ; INCLUDE FILES:
                                     0000    49 ;
                                     0000    50 	$PRVDEF				; SYMBOL DEFS FOR PRIVILEGES
                                     0000    51 	$UETPDEF			; UETP MSG CODE DEFINITIONS
                                     0000    52 	$SHR_MESSAGES UETP,116,<<TEXT,INFO>>
                                     0000    53 					; DEFINE UETP$_TEXT
                           00000004  0000    54 	.MDELETE ($PRVDEF,$UETPDEF,$SHR_MESSAGES,$SHRDEF)
                                     0000    55 					; GET RID OF MACRO DEFINITIONS
                                     0000    56 	$DIBDEF				; DEFINE DEVICE INFO BLOCK OFFSETS
                                     0000    57 	$JPIDEF				; DEFINE $GETJPI IDENTIFIERS
                           00000002  0000    58 	.MDELETE ($DIBDEF,$JPIDEF)	; ... DELETE MACRO DEFINITIONS
                                     0000    59 ;
                                     0000    60 ; MACROS:
                                     0000    61 ;
                                     0000    62 ;
                                     0000    63 ; EQUATED SYMBOLS:
                                     0000    64 ;
                           00000000  0000    65 WARNING		= 0			; WARNING SEVERITY VALUE FOR MSGS
                           00000001  0000    66 SUCCESS		= 1			; SUCCESS SEVERITY VALUE FOR MSGS
                           00000002  0000    67 ERROR		= 2			; ERROR SEVERITY VALUE FOR MSGS
                           00000003  0000    68 INFO		= 3			; INFORMATIONAL SEV VALUE FOR MSGS
                           00000004  0000    69 SEVERE		= 4			; SEVERE (FATAL) SEV VALUE FOR MSGS
                           00000000  0000    70 TCG_NO		=  0			; INITIALIZE TEST CASE GROUP NUMBER
                           00000000  0000    71 GRP_TOTAL	=  0			; INITIALIZE TEST CASE GROUP TOTAL
                           00007FFF  0000    72 R0_THRU_SP	= ^M<R0,R1,R2,R3,R4,R5,R6,R7,R8,R9,R10,R11,AP,FP,SP>
                           00000040  0000    73 DETFLAG		= 64			; EVENT FLAG NO. FOR DETACHED PROC
                           00000001  0000    74 PIDADR_CWK10	= 1			; PIDADR ARG FOR CANWAK (LOCATION 1)
                           00000001  0000    75 PIDADR_WAK10	= 1			; PIDADR ARG FOR WAKE (LOCATION 1)
                           00000001  0000    76 PIDADR_DPC10	= 1			; PIDADR ARG FOR DELPRC (LOCATION 1)
                           00000001  0000    77 PIDADR_GJP20	= 1			; PIDADR ARG FOR GETJPI (LOCATION 1)
                           00000000  0000    78 UNKN2		= 0			; UNKN2 ARG FOR GETJPI (MISSING ARG)
                                     0000    79 ;
                                     0000    80 ; ****** THE FOLLOWING ASSIGNMENTS (IN PHD, PCB, STS) ARE BEING MADE
                                     0000    81 ; ****** WITHOUT REFERENCE TO $PHDDEF, $PCBDEF, $STSDEF BECAUSE OF
                                     0000    82 ; ****** SYMBOL TABLE OVERFLOW. FIX THIS WHEN MORE TABLE SPACE AVAILABLE.
                                     0000    83 ;
                           00000000  0000    84 PHD$Q_PRIVMSK	= 0			; PRIV MASK OFFSET INTO PHD
                           00000020  0000    85 PCB$L_UIC	= ^X20			; UIC OFFSET INTO PCB
                           0000001C  0000    86 STS$V_INHIB_MSG	= ^X1C			; INHIBIT_MSG BIT NUMBER IN MSG CODE
                                     0000    87 ;
                                     0000    88 ; OWN STORAGE:
                                     0000    89 ;
SATSSF07        - SATS SYSTEM SERVICE TESTS  (FAILING S.C.)      22-AUG-1978 03:45:23   VAX-11 MACRO X0.3-11               Page   3
1.0             DECLARATIONS                                                                                                     (1)

                                 00000000    91 	.PSECT	RODATA,RD,NOWRT,NOEXE,LONG
                                     0000    92 REG_COMP_MASK:	.WORD	^M<R2,R3,R4,R5,R6,R7,R8,R9,R10,R11,AP,FP> ! ^X8000 -
                               BFFC  0000    93 					; REG COMPARE MASK (HIGH-ORDER ...
                                     0002    94 					; ... BIT MUST BE ON
                                     0002    95 ERR_MSG_FAOCTL:	STRING	I,<!/!AC!1ZB!1ZB: REGISTER !2UW CONTENTS ALTERED>, -
                                     0002    96 		<;  BEFORE SERVICE CALL: !8XL   AFTER SERVICE CALL: !8XL>
                                     006E    97 TEST_MOD_NAME:	STRING	C,<SATSSF07>	; TEST MODULE NAME
                                     0077    98 TEST_MOD_BEG:	STRING	C,<begun>	; DISPOSITION FIELD OF TEST MOD MSG
                                     007D    99 TEST_MOD_SUCC:	STRING	C,<successful>	; DISPOSITION FIELD OF TEST MOD MSG
                                     0088   100 TEST_MOD_FAIL:	STRING	C,<failed>	; DISPOSITION FIELD OF TEST MOD MSG
                                     008F   101 TEST_MOD_NAME_D: STRING	I,<SATSSF07>	; TEST MODULE NAME DESCRIPTOR
                                     009F   102 TTNAME:     	STRING  I,<TT>		; TERMINAL LOGICAL NAME
                  00000000'00000000' 00A9   103 INADR:		.LONG	NOACCESS,NOACCESS ; PAGE ADDRESS OF NOACCESS PSECT
                           00000000' 00B1   104 PROT:		.LONG	PRT$C_NA	; PROTECTION CODE FOR NOACCESS PSECT
                  FFFFFFFF FFFFFFFF  00B5   105 ONES:		.LONG	-1,-1		; A QUADWORD OF 1-BITS
                                     00BD   106 DETIMAGE:	STRING	I,<SYSTST$RES:SATSUT01.EXE>
                                     00DC   107 					; IMAGE NAME FOR DETACHED PROCESS
                                     00DC   108 DETNAME:	STRING	I,<SATSSF07_DET> ; PRCNAM & MBOX NAME FOR DET PROC
                           000000DC  00F0   109 PRCNAM_CWK29	= DETNAME		; PRCNAM ARGUMENT FOR CANWAK
                           000000DC  00F0   110 PRCNAM_WAK29	= DETNAME		; PRCNAM ARGUMENT FOR WAKE
                           000000DC  00F0   111 PRCNAM_DPC29	= DETNAME		; PRCNAM ARGUMENT FOR DELPRC
                           000000DC  00F0   112 PRCNAM_GJP34	= DETNAME		; PRCNAM ARGUMENT FOR GETJPI
                                     00F0   113 PRCNAM_CWK:	STRING	I,<SATSSF07>	; PRCNAM ARGUMENT FOR CANWAK
                           00000001  0100   114 PRCNAM_CWK24:	.LONG	1		; PRCNAM ARGUMENT FOR CANWAK
                           00000000' 0104   115 		.ADDRESS NOACCESS	; ......
                                     0108   116 PRCNAM_CWK26:	STRING	I,<SFCWK26>	; PRCNAM ARGUMENT FOR CANWAK
                           00000000  0117   117 PRCNAM_CWK27:	.LONG	0		; PRCNAM ARGUMENT FOR CANWAK
                                     011B   118 PRCNAM_CWK28:	STRING	I,<SIXTEEN CHARS$$$>
                                     0133   119 					; PRCNAM ARGUMENT FOR CANWAK
                                     0133   120 PRCNAM_WAK:	STRING	I,<SATSSF07>	; PRCNAM ARGUMENT FOR WAKE
                           00000001  0143   121 PRCNAM_WAK24:	.LONG	1		; PRCNAM ARGUMENT FOR WAKE
                           00000000' 0147   122 		.ADDRESS NOACCESS	; ......
                                     014B   123 PRCNAM_WAK26:	STRING	I,<SFWAK26>	; PRCNAM ARGUMENT FOR WAKE
                           00000000  015A   124 PRCNAM_WAK27:	.LONG	0		; PRCNAM ARGUMENT FOR WAKE
                                     015E   125 PRCNAM_WAK28:	STRING	I,<SIXTEEN CHARS$$$>
                                     0176   126 					; PRCNAM ARGUMENT FOR WAKE
                                     0176   127 PRCNAM_DPC:	STRING	I,<SATSSF07>	; PRCNAM ARGUMENT FOR DELPRC
                           00000001  0186   128 PRCNAM_DPC24:	.LONG	1		; PRCNAM ARGUMENT FOR DELPRC
                           00000000' 018A   129 		.ADDRESS NOACCESS	; ......
                                     018E   130 PRCNAM_DPC26:	STRING	I,<SFDPC26>	; PRCNAM ARGUMENT FOR DELPRC
                           00000000  019D   131 PRCNAM_DPC27:	.LONG	0		; PRCNAM ARGUMENT FOR DELPRC
                                     01A1   132 PRCNAM_DPC28:	STRING	I,<SIXTEEN CHARS$$$>
                                     01B9   133 					; PRCNAM ARGUMENT FOR DELPRC
                                     01B9   134 PRCNAM_GJP:	STRING	I,<SATSSF07>	; PRCNAM ARGUMENT FOR GETJPI
                                     01C9   135 PRCNAM_GJP31:	STRING	I,<SFGJP31>	; PRCNAM ARGUMENT FOR GETJPI
                           00000000  01D8   136 PRCNAM_GJP32:	.LONG	0		; PRCNAM ARGUMENT FOR GETJPI
                                     01DC   137 PRCNAM_GJP33:	STRING	I,<SIXTEEN CHARS$$$>
                                     01F4   138 					; PRCNAM ARGUMENT FOR GETJPI
                           00000000  01F4   139 UNKN1_GJP:	.LONG	0		; UNKN1 ARGUMENT FOR GETJPI
                               0004  01F8   140 ITMLST_GJP:	.WORD	4	    	; ITMLST ARGUMENT FOR GETJPI
                               0319  01FA   141 		.WORD	JPI$_PID
                           000001A0' 01FC   142 		.LONG	JPIPID
                  00000000 00000000  0200   143 		.LONG	0,0
                               0004  0208   144 ITMLST_GJP41:	.WORD	4	    	; ITMLST ARGUMENT FOR GETJPI
                               FFFE  020A   145 		.WORD	^XFFFE
                           000001A0' 020C   146 		.LONG	JPIPID
                  00000000 00000000  0210   147 		.LONG	0,0
SATSSF07        - SATS SYSTEM SERVICE TESTS  (FAILING S.C.)      22-AUG-1978 03:45:23   VAX-11 MACRO X0.3-11               Page   4
1.0             DECLARATIONS                                                                                                     (1)

                                 00000000   149 	.PSECT	RWDATA,RD,WRT,NOEXE
                           00000004  0000   150 TPID:		.BLKL	1		; PROCESS ID FOR THIS PROCESS
                           00000008  0004   151 CURRENT_TC:	.BLKL	1 		; PTR TO CURRENT TEST CASE
                           00000044  0008   152 REG_SAVE_AREA:	.BLKL	15		; SAVE AREA FOR ALL REGS (SANS PC)
                           007480D9  0044   153 MOD_MSG_CODE:	.LONG	UETP$_SATSMS	; TEST MODULE MSG CODE FOR PUTMSG
                           0000004C  0048   154 CLOB_REG_NO:	.BLKL	1		; CLOBBERED REG NO (FOR FAO ERR MSG)
                           00000050  004C   155 REG_BEFORE_SS:	.BLKL	1		; REG CONTENTS BEFORE S.S.
                                     0050   156 					; ... (FOR FAO ERROR MSG)
                           00000054  0050   157 REG_AFTER_SS:	.BLKL	1		; REG CONTENTS AFTER S.S.
                                     0054   158 					; ... (FOR FAO ERROR MSG)
                                     0054   159 $$TSTN$$:	STRING	C,<  SF   >	; ASCII PORTION OF TEST CASE NAME
                           0000006E' 005C   160 TMN_ADDR:	.ADDRESS TEST_MOD_NAME	; ADDR OF TEST MOD NAME FOR FAO
                           00000077' 0060   161 TMD_ADDR:	.ADDRESS TEST_MOD_BEG	; ADDR OF T.M. DISP FIELD FOR FAO
                           00000068  0064   162 TS_EP:		.BLKL	1		; ENTRY PNT FOR CURR TESTSERV MACRO
                           00000070  0068   163 RETADR:		.BLKL	2		; RETURN LONGWORDS FOR SETPRT
                           00000071  0070   164 PRVPRT:		.BLKB	1		; PROT RETURN BYTE FOR SETPRT
                           00000079  0071   165 PRIVMASK:	.BLKQ	1		; ADDR OF PRIVILEGE MASK (IN PHD)
                           0000007D  0079   166 CHM_CONT:	.BLKL	1		; CHANGE MODE CONTINUE ADDRESS
                           00000091  007D   167 REGS:		.BLKL	5		; AREA FOR COND INDEX REGS (R2-R6)
                           00000095  0091   168 DETUIC:		.BLKL	1		; UIC FOR DETACHED PROCESS
                           00000099  0095   169 MBXCHAN:	.BLKL	1		; CHAN NO. FOR MBOX FOR CREATED PROC
                                     0099   170 MBXCHANINFO:	STRING	O,75		; CHANNEL INFO RETURNED BY GETCHN
                           000000F0  00EC   171 MBXUNIT:	.BLKL	1		; SAVE AREA FOR MAILBOX UNIT NUMBER
                                     00F0   172 MBXBUFF:	STRING	O,120		; MAILBOX BUFFER FOR CREATED PROCESS
                           00000174  0170   173 PIDADR_CWK:	.BLKL	1		; PIDADR ARGUMENT FOR CANWAK
                           00000178  0174   174 PIDADR_CWK13:	.BLKL	1		; PIDADR ARGUMENT FOR CANWAK
                           0000017C  0178   175 PIDADR_CWK14:	.BLKL	1		; PIDADR ARGUMENT FOR CANWAK
                           00000180  017C   176 PIDADR_WAK:	.BLKL	1		; PIDADR ARGUMENT FOR WAKE
                           00000184  0180   177 PIDADR_WAK13:	.BLKL	1		; PIDADR ARGUMENT FOR WAKE
                           00000188  0184   178 PIDADR_WAK14:	.BLKL	1		; PIDADR ARGUMENT FOR WAKE
                           0000018C  0188   179 PIDADR_DPC:	.BLKL	1		; PIDADR ARGUMENT FOR DELPRC
                           00000190  018C   180 PIDADR_DPC13:	.BLKL	1		; PIDADR ARGUMENT FOR DELPRC
                           00000194  0190   181 PIDADR_DPC14:	.BLKL	1		; PIDADR ARGUMENT FOR DELPRC
                           00000198  0194   182 PIDADR_GJP:	.BLKL	1		; PIDADR ARGUMENT FOR GETJPI
                           0000019C  0198   183 PIDADR_GJP21:	.BLKL	1		; PIDADR ARGUMENT FOR GETJPI
                           000001A0  019C   184 PIDADR_GJP22:	.BLKL	1		; PIDADR ARGUMENT FOR GETJPI
                           000001A4  01A0   185 JPIPID:		.BLKL	1		; USED BY GETJPI
SATSSF07        - SATS SYSTEM SERVICE TESTS  (FAILING S.C.)      22-AUG-1978 03:45:23   VAX-11 MACRO X0.3-11               Page   5
1.0             DECLARATIONS                                                                                                     (1)

                                 00000000   187 	.PSECT	SATS_ACCVIO_1,RD,WRT,NOEXE,PAGE
                           00000200  0000   188 EMPTY:		.BLKB	512	; RESERVE A PAGE OF SPACE
                                     0200   189 ;
                                     0200   190 ; +
                                     0200   191 ; ******************************************************************
                                     0200   192 ; *                                                                *
                                     0200   193 ; * 	THE ORDER OF STATEMENTS IN THIS PSECT IS CRITICAL.         *
                                     0200   194 ; *	DO NOT RE-ARRANGE THE VARIABLES. CONSULT SATS              *
                                     0200   195 ; *	FUNCTIONAL SPECIFICATION FOR A DESCRIPTION OF THE USE      *
                                     0200   196 ; *	OF THE EMPTY PSECT (AND ITS COMPANION PSECT, NOACCESS).    *
                                     0200   197 ; *                                                                *
                                     0200   198 ; ******************************************************************
                                     0200   199 ; -
                                     0200   200 ;
                                     0200   201 ; TYPE AAAAA_SSSX1 (TYPE AAAAA_SSSX2 IF NOT DESC) GO HERE:
                           000001FF  0200   202 PIDADR_CWK12	= . - 1		; PIDADR ARGUMENT FOR CANWAK (LAST BYTE IN PAGE)
                           000001FF  0200   203 PRCNAM_CWK21	= . - 1		; PRCNAM ARGUMENT FOR CANWAK (LAST BYTE IN PAGE)
                           000001FF  0200   204 PIDADR_WAK12	= . - 1		; PIDADR ARGUMENT FOR WAKE (LAST BYTE IN PAGE)
                           000001FF  0200   205 PRCNAM_WAK21	= . - 1		; PRCNAM ARGUMENT FOR WAKE (LAST BYTE IN PAGE)
                           000001FF  0200   206 PIDADR_DPC12	= . - 1		; PIDADR ARGUMENT FOR DELPRC (LAST BYTE IN PAGE)
                           000001FF  0200   207 PRCNAM_DPC21	= . - 1		; PRCNAM ARGUMENT FOR DELPRC (LAST BYTE IN PAGE)
                           000001F3  0200   208 		. = . - 13	; ALLOW ROOM FOR STRING DESCRIPTOR
                                     01F3   209 ; TYPE AAAAA_SSSX5 GO HERE:
                                     01F3   210 PRCNAM_CWK25:			; PRCNAM ARGUMENT FOR CANWAK
                                     01F3   211 PRCNAM_WAK25:			; PRCNAM ARGUMENT FOR WAKE
                                     01F3   212 PRCNAM_DPC25:			; PRCNAM ARGUMENT FOR DELPRC
                           00000006  01F3   213 		.LONG	6	; STRING LENGTH (WILL CROSS PSECT BOUNDARY)
                           000001FB' 01F7   214 		.ADDRESS .+4	; STRING ADDRESS
                                     01FB   215 ; TYPE AAAAA_SSSX3 GO HERE:
                                     01FB   216 PRCNAM_CWK23:			; PRCNAM ARGUMENT FOR CANWAK
                                     01FB   217 PRCNAM_WAK23:			; PRCNAM ARGUMENT FOR WAKE
                                     01FB   218 PRCNAM_DPC23:			; PRCNAM ARGUMENT FOR DELPRC
                           000001FC  01FB   219 		.BLKB	1	; LOW-ORDER BYTE OF STRING LENGTH
                                     01FC   220 ; TYPE AAAAA_SSSX2 GO HERE:
                                     01FC   221 PRCNAM_CWK22:			; PRCNAM ARGUMENT FOR CANWAK
                                     01FC   222 PRCNAM_WAK22:			; PRCNAM ARGUMENT FOR WAKE
                                     01FC   223 PRCNAM_DPC22:			; PRCNAM ARGUMENT FOR DELPRC
                           00000200  01FC   224 		.BLKL	1	; STRING LENGTH
                                     0200   225 ;
                                     0200   226 ;
                                     0200   227 ;
                                     0200   228 ;
                                 00000000   229 	.PSECT	SATS_ACCVIO_2,RD,WRT,NOEXE,PAGE
                           00000200  0000   230 NOACCESS:	.BLKB	512	; RESERVE A PAGE OF SPACE
                           00000000  0200   231 		. = . - 512	; RETURN LOC CTR TO BEGINNING OF PSECT
                           00000000' 0000   232 		.ADDRESS EMPTY	; ADDRESS OF ACCESSIBLE STRING
                           00000000' 0004   233 		.ADDRESS EMPTY/^X100 ; ADDRESS OF ACCESSIBLE STRING
                                     0008   234 ;+
                                     0008   235 ; *** NOTE -- DO NOT CHANGE LOCATION OR SEQUENCE OF ABOVE STATEMENTS!
                                     0008   236 ; ***         THIS PSECT (NOACCESS) MUST APPEAR IN MEMORY IMMEDIATELY
                                     0008   237 ; ***         FOLLOWING THE EMPTY PSECT. PSECT NAMES AND OPTIONS WILL BE
                                     0008   238 ; ***         CHOSEN TO FORCE THE DESIRED PSECT ORDERING.
                                     0008   239 ;-
                                     0008   240 ;
                                     0008   241 ;
                                     0008   242 ;
                                     0008   243 ;
SATSSF07        - SATS SYSTEM SERVICE TESTS  (FAILING S.C.)      22-AUG-1978 03:45:23   VAX-11 MACRO X0.3-11               Page   6
1.0             DECLARATIONS                                                                                                     (1)

                           00000000  0008   244 PIDADR_CWK11:	.LONG	0	; PIDADR ARGUMENT FOR CANWAK
                                     000C   245 PRCNAM_CWK20:	STRING	I,<SFCWK20> ; PRCNAM ARGUMENT FOR CANWAK
                           00000000  001B   246 PIDADR_WAK11:	.LONG	0	; PIDADR ARGUMENT FOR WAKE
                                     001F   247 PRCNAM_WAK20:	STRING	I,<SFWAK20> ; PRCNAM ARGUMENT FOR WAKE
                           00000000  002E   248 PIDADR_DPC11:	.LONG	0	; PIDADR ARGUMENT FOR DELPRC
                                     0032   249 PRCNAM_DPC20:	STRING	I,<SFDPC20> ; PRCNAM ARGUMENT FOR DELPRC
                                     0041   250 PRCNAM_GJP30:	STRING	I,<SFGJP30> ; PRCNAM ARGUMENT FOR GETJPI
                               0004  0050   251 ITMLST_GJP40:	.WORD	4	    ; ITMLST ARGUMENT FOR GETJPI
                               0319  0052   252 		.WORD	JPI$_PID
                           000001A0' 0054   253 		.LONG	JPIPID
                  00000000 00000000  0058   254 		.LONG	0,0
                           00000001  0060   255 	.MDELETE (STRING)		; NO LONGER NEED MACRO DEFINITION
                                 00000000   256 	.PSECT	SATSSF07,RD,WRT,EXE,LONG
SATSSF07        - SATS SYSTEM SERVICE TESTS  (FAILING S.C.)      22-AUG-1978 03:45:23   VAX-11 MACRO X0.3-11               Page   7
1.0             SATSSF07                                                                                                         (1)

                                     0000   258 	.SBTTL	SATSSF07
                                     0000   259 ;++
                                     0000   260 ; FUNCTIONAL DESCRIPTION:
                                     0000   261 ;
                                     0000   262 ;		AFTER PERFORMING SOME INITIAL HOUSEKEEPING, SUCH AS
                                     0000   263 ; PRINTING THE MODULE BEGIN MESSAGE AND ACQUIRING ALL PRIVILEGES,
                                     0000   264 ; THE SATSSF07 ROUTINE EXECUTES THE TEST_SERV_EXEC MACRO TO RUN
                                     0000   265 ; ALL TEST CASES. WHEN THE MACRO COMPLETES ITS EXECUTION, SATSSF07
                                     0000   266 ; PRINTS A TEST MODULE SUCCESS OR FAIL MESSAGE AND EXITS TO THE
                                     0000   267 ; OPERATING SYSTEM. TEST_SERV_EXEC CALLS THE TC_CONTROL/TESTSERV
                                     0000   268 ; CO-ROUTINE PAIR ONCE PER TEST CASE GROUP TO EXECUTE ALL TEST
                                     0000   269 ; CASES IN THAT GROUP. EACH TEST CASE GROUP IS DEFINED BY BOUNDING
                                     0000   270 ; ITS TEST CASES WITH A TC_GROUP MACRO BEFORE THE FIRST TEST CASE
                                     0000   271 ; AND A TCEND MACRO AFTER THE LAST ONE. THE TEST CASES THEMSELVES
                                     0000   272 ; ARE DEFINED WITHIN THESE BOUNDS BY PRECEDING EACH WITH A
                                     0000   273 ; NEXT_TEST_CASE MACRO. TC_CONTROL/TESTSERV EXECUTES THE CODE
                                     0000   274 ; FOLLOWING EACH NEXT_TEST_CASE MACRO IMMEDIATELY BEFORE ISSUING
                                     0000   275 ; THE SYSTEM SERVICE AS REQUESTED IN THE TESTSERV MACRO. TC_CONTROL/
                                     0000   276 ; TESTSERV ALSO CHECKS THE RESULTS OF THE SERVICE WITH RESPECT
                                     0000   277 ; TO ITS EXPECTED STATUS CODE AND PRINTS ANY REQUIRED FAILURE
                                     0000   278 ; MESSAGES FOR THE TEST CASE. THE CODE APPEARING AFTER EACH
                                     0000   279 ; NEXT_TEST_CASE MACRO IS MERELY TO SET UP CONDITIONS REQUIRED
                                     0000   280 ; FOR THE SYSTEM SERVICE AND TO CLEAN UP ANY RESOURCES ACQUIRED
                                     0000   281 ; BY THE PREVIOUS TEST CASE.
                                     0000   282 ;
                                     0000   283 ; CALLING SEQUENCE:
                                     0000   284 ;
                                     0000   285 ;	$ RUN SATSSF07  ...  (DCL COMMAND)
                                     0000   286 ;
                                     0000   287 ; INPUT PARAMETERS:
                                     0000   288 ;
                                     0000   289 ;	NONE
                                     0000   290 ;
                                     0000   291 ; IMPLICIT INPUTS:
                                     0000   292 ;
                                     0000   293 ;	NONE
                                     0000   294 ;
                                     0000   295 ; OUTPUT PARAMETERS:
                                     0000   296 ;
                                     0000   297 ;	NONE
                                     0000   298 ;
                                     0000   299 ; IMPLICIT OUTPUTS:
                                     0000   300 ;
                                     0000   301 ;	MESSAGES TO SYS$OUTPUT ARE THE ONLY OUTPUT FROM SATSSF07.
                                     0000   302 ;	THEY ARE OF THE FORM:
                                     0000   303 ;
                                     0000   304 ;		%UETP-S-SATSMS, TEST MODULE SATSSF07 BEGUN ... (BEGIN MSG)
                                     0000   305 ;		%UETP-S-SATSMS, TEST MODULE SATSSF07 SUCCESSFUL ... (END MSG)
                                     0000   306 ;		%UETP-E-SATSMS, TEST MODULE SATSSF07 FAILED ... (END MSG)
                                     0000   307 ;		%UETP-I-TEXT, ... (VARIABLE INFORMATION ABOUT A TEST MODULE FAILURE)
                                     0000   308 ;
                                     0000   309 ; COMPLETION CODES:
                                     0000   310 ;
                                     0000   311 ;	THE SATSSF07 ROUTINE TERMINATES WITH A $EXIT TO THE
                                     0000   312 ;	OPERATING SYSTEM WITH A STATUS CODE DEFINED BY UETP$_SATSMS.
                                     0000   313 ;
                                     0000   314 ; SIDE EFFECTS:
SATSSF07        - SATS SYSTEM SERVICE TESTS  (FAILING S.C.)      22-AUG-1978 03:45:23   VAX-11 MACRO X0.3-11               Page   8
1.0             SATSSF07                                                                                                         (1)

                                     0000   315 ;
                                     0000   316 ;	NONE
                                     0000   317 ;
                                     0000   318 ;--
                                     0000   319
                                     0000   320
                                     0000   321
                                     0000   322 SATSSF07:
                               0FFC  0000   323 	.WORD	^M<R2,R3,R4,R5,R6,R7,R8,R9,R10,R11>
                                     0002   324 					; ENTRY MASK
                                     0002   325 	$WAKE_S  TPID			; GET PID OF THIS PROCESS
                                     0011   326 	$HIBER_S			; UNDO WAKE
                                     0018   327 	$SETPRN_S TEST_MOD_NAME_D 	; SET PROCESS NAME
                          1899   30  0025   328 	BSBW	MOD_MSG_PRINT		; PRINT TEST MODULE BEGIN MSG
   00000060'EF   0000007D'EF     DE  0028   329 	MOVAL	TEST_MOD_SUCC,TMD_ADDR	; ASSUME END MSG WILL SHOW SUCCESS
            00            01     F0  0033   330 	INSV	#SUCCESS,#0,#3,MOD_MSG_CODE ; ADJUST STATUS CODE FOR SUCCESS
   00000044'EF            03         0036
                                     003C   331 	MODE	TO,10$,KRNL,NOREGS 	; KERNEL MODE TO ACCESS PHD
            59   00000000'9F     D0  0059   332 	MOVL	@#CTL$GL_PHD,R9		; GET PROCESS HEADER ADDRESS
   00000071'EF            69     DE  0060   333 	MOVAL	PHD$Q_PRIVMSK(R9),PRIVMASK ; GET PRIV MASK ADDRESS
                                     0067   334 	MODE	FROM,10$		; GET BACK TO USER MODE
                                     0068   335 	PRIV	ADD,ALL			; GET ALL PRIVILEGES
                                     0091   336 	$CREMBX_S CHAN=MBXCHAN, LOGNAM=DETNAME, -
                                     0091   337 		  MAXMSG=#120, PROMSK=#0, BUFQUO=#240
                                     00B4   338 					; GET MAILBOX FOR PROCESS
                                     00B4   339 	$GETCHN_S CHAN=MBXCHAN, PRIBUF=MBXCHANINFO
                                     00CE   340 					; GET CHAN INFO (UNIT NUMBER)
   000000EC'EF   000000AD'EF     3C  00CE   341 	MOVZWL	MBXCHANINFO+8+DIB$W_UNIT,MBXUNIT
                                     00D9   342 					; SAVE MAILBOX UNIT NUMBER
                                     00D9   343 	MODE	TO,20$,KRNL,NOREGS 	; KERNEL MODE TO ACCESS PCB
            59   00000000'9F     D0  00F6   344 	MOVL	@#SCH$GL_CURPCB,R9 	; GET CURRENT PCB ADDRESS
   00000091'EF         20 A9     D0  00FD   345 	MOVL	PCB$L_UIC(R9),DETUIC 	; PICK UP UIC FROM PCB
                                     0105   346 	MODE	FROM,20$		; ... AND GET BACK TO USER MODE
                                     0106   347 	$CREPRC_S IMAGE=DETIMAGE, PRCNAM=DETNAME, -
                                     0106   348 		  UIC=DETUIC, MBXUNT=MBXUNIT
                                     0136   349 					; CREATE DETACHED PROC WITH SAME UIC
                                     0136   350 	DISPSERV			; SET UP DISPLAY INFO FOR TESTSERV
                                     02CB   351 	$SETPRT_S INADR=INADR, RETADR=RETADR, -
                                     02CB   352 		  PROT=PROT, PRVPRT=PRVPRT
                                     02EC   353 					; SET NOACCESS PSECT ...
                                     02EC   354 					; ... FOR NO USER ACCESS
                          13E2   31  02EC   355 	BRW	EXECUTE			; GO EXECUTE ALL TEST CASES
                                     02EF   356 	TC_GROUP	CWK,1,TS1
                                     0316   357 ;
                                     0316   358 	NEXT_TEST_CASE	SFCWK10
SATSSF07        - SATS SYSTEM SERVICE TESTS  (FAILING S.C.)      22-AUG-1978 03:45:23   VAX-11 MACRO X0.3-11               Page   9
1.0             SFCWK10                                                                                                          (1)

                                     0316   359 ;
                                     0316   360 ;++
                                     0316   361 ; ******************************************************
                                     0316   362 ; *
                                     0316   363 ; *  TEST CASE NAME:		SFCWK10
                                     0316   364 ; *
                                     0316   365 ; *  SYSTEM SERVICE:		CANWAK
                                     0316   366 ; *
                                     0316   367 ; *  ARGUMENT UNDER TEST: 	PIDADR_CWK10
                                     0316   368 ; *
                                     0316   369 ; *  INPUT CONDITIONS:
                                     0316   370 ; *	PIDADR FIELD AT LOCATION 1
                                     0316   371 ; *
                                     0316   372 ; *  EXPECTED RESULTS:
                                     0316   373 ; *	1) SYSTEM STATUS CODE:	ACCVIO
                                     0316   374 ; *	2) REGISTERS R2 THROUGH FP UNCHANGED
                                     0316   375 ; *
                                     0316   376 ; ******************************************************
                                     0316   377 ;--
                                     0316   378 ;
                                     0316   379 	PRIV	ADD,ALL		; GET BACK SOME PRIVS REMOVED BY PRIOR T.C.
                                     033F   380 ;
                                     033F   381 	NEXT_TEST_CASE	SFCWK11
SATSSF07        - SATS SYSTEM SERVICE TESTS  (FAILING S.C.)      22-AUG-1978 03:45:23   VAX-11 MACRO X0.3-11               Page  10
1.0             SFCWK11                                                                                                          (1)

                                     034B   382 ;
                                     034B   383 ;++
                                     034B   384 ; ******************************************************
                                     034B   385 ; *
                                     034B   386 ; *  TEST CASE NAME:		SFCWK11
                                     034B   387 ; *
                                     034B   388 ; *  SYSTEM SERVICE:		CANWAK
                                     034B   389 ; *
                                     034B   390 ; *  ARGUMENT UNDER TEST: 	PIDADR_CWK11
                                     034B   391 ; *
                                     034B   392 ; *  INPUT CONDITIONS:
                                     034B   393 ; *	PIDADR FIELD IN NON-ACCESSIBLE PSECT
                                     034B   394 ; *
                                     034B   395 ; *  EXPECTED RESULTS:
                                     034B   396 ; *	1) SYSTEM STATUS CODE:	ACCVIO
                                     034B   397 ; *	2) REGISTERS R2 THROUGH FP UNCHANGED
                                     034B   398 ; *
                                     034B   399 ; ******************************************************
                                     034B   400 ;--
                                     034B   401 ;
                                     034B   402 ;
                                     034B   403 	NEXT_TEST_CASE	SFCWK12
SATSSF07        - SATS SYSTEM SERVICE TESTS  (FAILING S.C.)      22-AUG-1978 03:45:23   VAX-11 MACRO X0.3-11               Page  11
1.0             SFCWK12                                                                                                          (1)

                                     0357   404 ;
                                     0357   405 ;++
                                     0357   406 ; ******************************************************
                                     0357   407 ; *
                                     0357   408 ; *  TEST CASE NAME:		SFCWK12
                                     0357   409 ; *
                                     0357   410 ; *  SYSTEM SERVICE:		CANWAK
                                     0357   411 ; *
                                     0357   412 ; *  ARGUMENT UNDER TEST: 	PIDADR_CWK12
                                     0357   413 ; *
                                     0357   414 ; *  INPUT CONDITIONS:
                                     0357   415 ; *	PIDADR FIELD BEGINS IN ACCESSIBLE PSECT, ENDS
                                     0357   416 ; *	  IN NON-ACCESSIBLE PSECT.
                                     0357   417 ; *
                                     0357   418 ; *  EXPECTED RESULTS:
                                     0357   419 ; *	1) SYSTEM STATUS CODE:	ACCVIO
                                     0357   420 ; *	2) REGISTERS R2 THROUGH FP UNCHANGED
                                     0357   421 ; *
                                     0357   422 ; ******************************************************
                                     0357   423 ;--
                                     0357   424 ;
                                     0357   425 ;
                                     0357   426 	NEXT_TEST_CASE	SFCWK13
SATSSF07        - SATS SYSTEM SERVICE TESTS  (FAILING S.C.)      22-AUG-1978 03:45:23   VAX-11 MACRO X0.3-11               Page  12
1.0             SFCWK13                                                                                                          (1)

                                     0363   427 ;
                                     0363   428 ;++
                                     0363   429 ; ******************************************************
                                     0363   430 ; *
                                     0363   431 ; *  TEST CASE NAME:		SFCWK13
                                     0363   432 ; *
                                     0363   433 ; *  SYSTEM SERVICE:		CANWAK
                                     0363   434 ; *
                                     0363   435 ; *  ARGUMENT UNDER TEST: 	PIDADR_CWK13
                                     0363   436 ; *
                                     0363   437 ; *  INPUT CONDITIONS:
                                     0363   438 ; *	INVALID PROCESS ID
                                     0363   439 ; *
                                     0363   440 ; *  EXPECTED RESULTS:
                                     0363   441 ; *	1) SYSTEM STATUS CODE:	NONEXPR
                                     0363   442 ; *	2) REGISTERS R2 THROUGH FP UNCHANGED
                                     0363   443 ; *
                                     0363   444 ; ******************************************************
                                     0363   445 ;--
                                     0363   446 ;
   00000174'EF   00000000'EF     D0  0363   447 	MOVL	TPID,PIDADR_CWK13 ; GET A VALID PID
   00000174'EF         FF 8F     99  036E   448 	CVTBW	#-1,PIDADR_CWK13  ; MAKE IT INVALID
                                     0376   449 ;
                                     0376   450 	NEXT_TEST_CASE	SFCWK14
SATSSF07        - SATS SYSTEM SERVICE TESTS  (FAILING S.C.)      22-AUG-1978 03:45:23   VAX-11 MACRO X0.3-11               Page  13
1.0             SFCWK14                                                                                                          (1)

                                     0382   451 ;
                                     0382   452 ;++
                                     0382   453 ; ******************************************************
                                     0382   454 ; *
                                     0382   455 ; *  TEST CASE NAME:		SFCWK14
                                     0382   456 ; *
                                     0382   457 ; *  SYSTEM SERVICE:		CANWAK
                                     0382   458 ; *
                                     0382   459 ; *  ARGUMENT UNDER TEST: 	PIDADR_CWK14
                                     0382   460 ; *
                                     0382   461 ; *  INPUT CONDITIONS:
                                     0382   462 ; *	VALID, NON-EXISTENT PROCESS ID
                                     0382   463 ; *
                                     0382   464 ; *  EXPECTED RESULTS:
                                     0382   465 ; *	1) SYSTEM STATUS CODE:	NONEXPR
                                     0382   466 ; *	2) REGISTERS R2 THROUGH FP UNCHANGED
                                     0382   467 ; *
                                     0382   468 ; ******************************************************
                                     0382   469 ;--
                                     0382   470 ;
   00000178'EF   00000000'EF     D0  0382   471 	MOVL	TPID,PIDADR_CWK14 ; GET AN EXISTENT PID
   0000017A'EF       1770 8F     B0  038D   472 	MOVW	#6000,PIDADR_CWK14+2 ; MAKE IT NON-EXISTENT
                                     0396   473 ;
                                     0396   474 	NEXT_TEST_CASE	SFCWK20
SATSSF07        - SATS SYSTEM SERVICE TESTS  (FAILING S.C.)      22-AUG-1978 03:45:23   VAX-11 MACRO X0.3-11               Page  14
1.0             SFCWK20                                                                                                          (1)

                                     03A2   475 ;
                                     03A2   476 ;++
                                     03A2   477 ; ******************************************************
                                     03A2   478 ; *
                                     03A2   479 ; *  TEST CASE NAME:		SFCWK20
                                     03A2   480 ; *
                                     03A2   481 ; *  SYSTEM SERVICE:		CANWAK
                                     03A2   482 ; *
                                     03A2   483 ; *  ARGUMENT UNDER TEST: 	PRCNAM_CWK20
                                     03A2   484 ; *
                                     03A2   485 ; *  INPUT CONDITIONS:
                                     03A2   486 ; *	PRCNAM STRING DESCRIPTOR LENGTH FIELD IN
                                     03A2   487 ; *	  NON-ACCESSIBLE PSECT.
                                     03A2   488 ; *
                                     03A2   489 ; *  EXPECTED RESULTS:
                                     03A2   490 ; *	1) SYSTEM STATUS CODE:	ACCVIO
                                     03A2   491 ; *	2) REGISTERS R2 THROUGH FP UNCHANGED
                                     03A2   492 ; *
                                     03A2   493 ; ******************************************************
                                     03A2   494 ;--
                                     03A2   495 ;
                 00000170'EF     D4  03A2   496 	CLRL	PIDADR_CWK	; MAKE SURE PRCNAM IS USED BY CANWAK
                                     03A8   497 ;
                                     03A8   498 	NEXT_TEST_CASE	SFCWK21
SATSSF07        - SATS SYSTEM SERVICE TESTS  (FAILING S.C.)      22-AUG-1978 03:45:23   VAX-11 MACRO X0.3-11               Page  15
1.0             SFCWK21                                                                                                          (1)

                                     03B4   499 ;
                                     03B4   500 ;++
                                     03B4   501 ; ******************************************************
                                     03B4   502 ; *
                                     03B4   503 ; *  TEST CASE NAME:		SFCWK21
                                     03B4   504 ; *
                                     03B4   505 ; *  SYSTEM SERVICE:		CANWAK
                                     03B4   506 ; *
                                     03B4   507 ; *  ARGUMENT UNDER TEST: 	PRCNAM_CWK21
                                     03B4   508 ; *
                                     03B4   509 ; *  INPUT CONDITIONS:
                                     03B4   510 ; *	PRCNAM STRING DESCRIPTOR LENGTH FIELD BEGINS IN
                                     03B4   511 ; *	  ACCESSIBLE PSECT, ENDS IN NON-ACCESSIBLE PSECT.
                                     03B4   512 ; *
                                     03B4   513 ; *  EXPECTED RESULTS:
                                     03B4   514 ; *	1) SYSTEM STATUS CODE:	ACCVIO
                                     03B4   515 ; *	2) REGISTERS R2 THROUGH FP UNCHANGED
                                     03B4   516 ; *
                                     03B4   517 ; ******************************************************
                                     03B4   518 ;--
                                     03B4   519 ;
                 00000170'EF     D4  03B4   520 	CLRL	PIDADR_CWK	; MAKE SURE PRCNAM IS USED BY CANWAK
                                     03BA   521 ;
                                     03BA   522 	NEXT_TEST_CASE	SFCWK22
SATSSF07        - SATS SYSTEM SERVICE TESTS  (FAILING S.C.)      22-AUG-1978 03:45:23   VAX-11 MACRO X0.3-11               Page  16
1.0             SFCWK22                                                                                                          (1)

                                     03C6   523 ;
                                     03C6   524 ;++
                                     03C6   525 ; ******************************************************
                                     03C6   526 ; *
                                     03C6   527 ; *  TEST CASE NAME:		SFCWK22
                                     03C6   528 ; *
                                     03C6   529 ; *  SYSTEM SERVICE:		CANWAK
                                     03C6   530 ; *
                                     03C6   531 ; *  ARGUMENT UNDER TEST: 	PRCNAM_CWK22
                                     03C6   532 ; *
                                     03C6   533 ; *  INPUT CONDITIONS:
                                     03C6   534 ; *	PRCNAM STRING DESCRIPTOR ADDRESS FIELD IN
                                     03C6   535 ; *	  NON-ACCESSIBLE PSECT.
                                     03C6   536 ; *
                                     03C6   537 ; *  EXPECTED RESULTS:
                                     03C6   538 ; *	1) SYSTEM STATUS CODE:	ACCVIO
                                     03C6   539 ; *	2) REGISTERS R2 THROUGH FP UNCHANGED
                                     03C6   540 ; *
                                     03C6   541 ; ******************************************************
                                     03C6   542 ;--
                                     03C6   543 ;
                 00000170'EF     D4  03C6   544 	CLRL	PIDADR_CWK	; MAKE SURE PRCNAM IS USED BY CANWAK
   000001FC'EF            03     9A  03CC   545 	MOVZBL	#3,PRCNAM_CWK22	; ESTABLISH PRCNAM STRING LENGTH
                                     03D3   546 ;
                                     03D3   547 	NEXT_TEST_CASE	SFCWK23
SATSSF07        - SATS SYSTEM SERVICE TESTS  (FAILING S.C.)      22-AUG-1978 03:45:23   VAX-11 MACRO X0.3-11               Page  17
1.0             SFCWK23                                                                                                          (1)

                                     03DF   548 ;
                                     03DF   549 ;++
                                     03DF   550 ; ******************************************************
                                     03DF   551 ; *
                                     03DF   552 ; *  TEST CASE NAME:		SFCWK23
                                     03DF   553 ; *
                                     03DF   554 ; *  SYSTEM SERVICE:		CANWAK
                                     03DF   555 ; *
                                     03DF   556 ; *  ARGUMENT UNDER TEST: 	PRCNAM_CWK23
                                     03DF   557 ; *
                                     03DF   558 ; *  INPUT CONDITIONS:
                                     03DF   559 ; *	PRCNAM STRING DESCRIPTOR ADDRESS FIELD BEGINS IN
                                     03DF   560 ; *	  ACCESSIBLE PSECT, ENDS IN NON-ACCESSIBLE PSECT.
                                     03DF   561 ; *
                                     03DF   562 ; *  EXPECTED RESULTS:
                                     03DF   563 ; *	1) SYSTEM STATUS CODE:	ACCVIO
                                     03DF   564 ; *	2) REGISTERS R2 THROUGH FP UNCHANGED
                                     03DF   565 ; *
                                     03DF   566 ; ******************************************************
                                     03DF   567 ;--
                                     03DF   568 ;
                 00000170'EF     D4  03DF   569 	CLRL	PIDADR_CWK	; MAKE SURE PRCNAM IS USED BY CANWAK
   000001FB'EF            03     9A  03E5   570 	MOVZBL	#3,PRCNAM_CWK23	; ESTABLISH PRCNAM STRING LENGTH
                                     03EC   571 ;
                                     03EC   572 	NEXT_TEST_CASE	SFCWK24
SATSSF07        - SATS SYSTEM SERVICE TESTS  (FAILING S.C.)      22-AUG-1978 03:45:23   VAX-11 MACRO X0.3-11               Page  18
1.0             SFCWK24                                                                                                          (1)

                                     03F8   573 ;
                                     03F8   574 ;++
                                     03F8   575 ; ******************************************************
                                     03F8   576 ; *
                                     03F8   577 ; *  TEST CASE NAME:		SFCWK24
                                     03F8   578 ; *
                                     03F8   579 ; *  SYSTEM SERVICE:		CANWAK
                                     03F8   580 ; *
                                     03F8   581 ; *  ARGUMENT UNDER TEST: 	PRCNAM_CWK24
                                     03F8   582 ; *
                                     03F8   583 ; *  INPUT CONDITIONS:
                                     03F8   584 ; *	PRCNAM STRING IN NON-ACCESSIBLE PSECT
                                     03F8   585 ; *
                                     03F8   586 ; *  EXPECTED RESULTS:
                                     03F8   587 ; *	1) SYSTEM STATUS CODE:	ACCVIO
                                     03F8   588 ; *	2) REGISTERS R2 THROUGH FP UNCHANGED
                                     03F8   589 ; *
                                     03F8   590 ; ******************************************************
                                     03F8   591 ;--
                                     03F8   592 ;
                 00000170'EF     D4  03F8   593 	CLRL	PIDADR_CWK	; MAKE SURE PRCNAM IS USED BY CANWAK
                                     03FE   594 ;
                                     03FE   595 	TCEND
SATSSF07        - SATS SYSTEM SERVICE TESTS  (FAILING S.C.)      22-AUG-1978 03:45:23   VAX-11 MACRO X0.3-11               Page  19
1.0                                                                                                                              (1)

                                     03FF   596 	TC_GROUP	CWK,2,TS2
                                     0426   597 ;
                                     0426   598 	NEXT_TEST_CASE	SFCWK25
SATSSF07        - SATS SYSTEM SERVICE TESTS  (FAILING S.C.)      22-AUG-1978 03:45:23   VAX-11 MACRO X0.3-11               Page  20
1.0             SFCWK25                                                                                                          (1)

                                     0426   599 ;
                                     0426   600 ;++
                                     0426   601 ; ******************************************************
                                     0426   602 ; *
                                     0426   603 ; *  TEST CASE NAME:		SFCWK25
                                     0426   604 ; *
                                     0426   605 ; *  SYSTEM SERVICE:		CANWAK
                                     0426   606 ; *
                                     0426   607 ; *  ARGUMENT UNDER TEST: 	PRCNAM_CWK25
                                     0426   608 ; *
                                     0426   609 ; *  INPUT CONDITIONS:
                                     0426   610 ; *	PRCNAM STRING BEGINS IN ACCESSIBLE PSECT,
                                     0426   611 ; *	  ENDS IN NON-ACCESSIBLE PSECT.
                                     0426   612 ; *
                                     0426   613 ; *  EXPECTED RESULTS:
                                     0426   614 ; *	1) SYSTEM STATUS CODE:	ACCVIO
                                     0426   615 ; *	2) REGISTERS R2 THROUGH FP UNCHANGED
                                     0426   616 ; *
                                     0426   617 ; ******************************************************
                                     0426   618 ;--
                                     0426   619 ;
                 00000170'EF     D4  0426   620 	CLRL	PIDADR_CWK	; MAKE SURE PRCNAM IS USED BY CANWAK
                                     042C   621 ;
                                     042C   622 	NEXT_TEST_CASE	SFCWK26
SATSSF07        - SATS SYSTEM SERVICE TESTS  (FAILING S.C.)      22-AUG-1978 03:45:23   VAX-11 MACRO X0.3-11               Page  21
1.0             SFCWK26                                                                                                          (1)

                                     0438   623 ;
                                     0438   624 ;++
                                     0438   625 ; ******************************************************
                                     0438   626 ; *
                                     0438   627 ; *  TEST CASE NAME:		SFCWK26
                                     0438   628 ; *
                                     0438   629 ; *  SYSTEM SERVICE:		CANWAK
                                     0438   630 ; *
                                     0438   631 ; *  ARGUMENT UNDER TEST: 	PRCNAM_CWK26
                                     0438   632 ; *
                                     0438   633 ; *  INPUT CONDITIONS:
                                     0438   634 ; *	NON-EXISTENT PROCESS NAME
                                     0438   635 ; *
                                     0438   636 ; *  EXPECTED RESULTS:
                                     0438   637 ; *	1) SYSTEM STATUS CODE:	NONEXPR
                                     0438   638 ; *	2) REGISTERS R2 THROUGH FP UNCHANGED
                                     0438   639 ; *
                                     0438   640 ; ******************************************************
                                     0438   641 ;--
                                     0438   642 ;
                 00000170'EF     D4  0438   643 	CLRL	PIDADR_CWK	; MAKE SURE PRCNAM IS USED BY CANWAK
                                     043E   644 ;
                                     043E   645 	NEXT_TEST_CASE	SFCWK27
SATSSF07        - SATS SYSTEM SERVICE TESTS  (FAILING S.C.)      22-AUG-1978 03:45:23   VAX-11 MACRO X0.3-11               Page  22
1.0             SFCWK27                                                                                                          (1)

                                     044A   646 ;
                                     044A   647 ;++
                                     044A   648 ; ******************************************************
                                     044A   649 ; *
                                     044A   650 ; *  TEST CASE NAME:		SFCWK27
                                     044A   651 ; *
                                     044A   652 ; *  SYSTEM SERVICE:		CANWAK
                                     044A   653 ; *
                                     044A   654 ; *  ARGUMENT UNDER TEST: 	PRCNAM_CWK27
                                     044A   655 ; *
                                     044A   656 ; *  INPUT CONDITIONS:
                                     044A   657 ; *	INVALID PROCESS NAME (LENGTH 0)
                                     044A   658 ; *
                                     044A   659 ; *  EXPECTED RESULTS:
                                     044A   660 ; *	1) SYSTEM STATUS CODE:	IVLOGNAM
                                     044A   661 ; *	2) REGISTERS R2 THROUGH FP UNCHANGED
                                     044A   662 ; *
                                     044A   663 ; ******************************************************
                                     044A   664 ;--
                                     044A   665 ;
                 00000170'EF     D4  044A   666 	CLRL	PIDADR_CWK	; MAKE SURE PRCNAM IS USED BY CANWAK
                                     0450   667 ;
                                     0450   668 	NEXT_TEST_CASE	SFCWK28
SATSSF07        - SATS SYSTEM SERVICE TESTS  (FAILING S.C.)      22-AUG-1978 03:45:23   VAX-11 MACRO X0.3-11               Page  23
1.0             SFCWK28                                                                                                          (1)

                                     045C   669 ;
                                     045C   670 ;++
                                     045C   671 ; ******************************************************
                                     045C   672 ; *
                                     045C   673 ; *  TEST CASE NAME:		SFCWK28
                                     045C   674 ; *
                                     045C   675 ; *  SYSTEM SERVICE:		CANWAK
                                     045C   676 ; *
                                     045C   677 ; *  ARGUMENT UNDER TEST: 	PRCNAM_CWK28
                                     045C   678 ; *
                                     045C   679 ; *  INPUT CONDITIONS:
                                     045C   680 ; *	INVALID PROCESS NAME (LENGTH 16)
                                     045C   681 ; *
                                     045C   682 ; *  EXPECTED RESULTS:
                                     045C   683 ; *	1) SYSTEM STATUS CODE:	IVLOGNAM
                                     045C   684 ; *	2) REGISTERS R2 THROUGH FP UNCHANGED
                                     045C   685 ; *
                                     045C   686 ; ******************************************************
                                     045C   687 ;--
                                     045C   688 ;
                 00000170'EF     D4  045C   689 	CLRL	PIDADR_CWK	; MAKE SURE PRCNAM IS USED BY CANWAK
                                     0462   690 ;
                                     0462   691 	NEXT_TEST_CASE	SFCWK29
SATSSF07        - SATS SYSTEM SERVICE TESTS  (FAILING S.C.)      22-AUG-1978 03:45:23   VAX-11 MACRO X0.3-11               Page  24
1.0             SFCWK29                                                                                                          (1)

                                     046E   692 ;
                                     046E   693 ;++
                                     046E   694 ; ******************************************************
                                     046E   695 ; *
                                     046E   696 ; *  TEST CASE NAME:		SFCWK29
                                     046E   697 ; *
                                     046E   698 ; *  SYSTEM SERVICE:		CANWAK
                                     046E   699 ; *
                                     046E   700 ; *  ARGUMENT UNDER TEST: 	PRCNAM_CWK29
                                     046E   701 ; *
                                     046E   702 ; *  INPUT CONDITIONS:
                                     046E   703 ; *	CANWAK ISSUED FOR EXISTING PROCESS WHICH IS NOT A
                                     046E   704 ; *	  SUBPROCESS OF THIS PROCESS, AND THIS PROCESS HAS
                                     046E   705 ; *	  NO GROUP OR WORLD PRIVILEGE.
                                     046E   706 ; *
                                     046E   707 ; *  EXPECTED RESULTS:
                                     046E   708 ; *	1) SYSTEM STATUS CODE:	NOPRIV
                                     046E   709 ; *	2) REGISTERS R2 THROUGH FP UNCHANGED
                                     046E   710 ; *
                                     046E   711 ; ******************************************************
                                     046E   712 ;--
                                     046E   713 ;
                                     046E   714 	PRIV	REM,GROUP	; REMOVE GROUP PRIVILEGE
                                     0495   715 	PRIV	REM,WORLD	; REMOVE WORLD PRIVILEGE
                 00000170'EF     D4  04BC   716 	CLRL	PIDADR_CWK	; MAKE SURE PRCNAM IS USED BY CANWAK
                                     04C2   717 ;
                                     04C2   718 	TCEND
SATSSF07        - SATS SYSTEM SERVICE TESTS  (FAILING S.C.)      22-AUG-1978 03:45:23   VAX-11 MACRO X0.3-11               Page  25
1.0                                                                                                                              (1)

                                     04C3   719 	TC_GROUP	WAK,1,TS3
                                     04EA   720 ;
                                     04EA   721 	NEXT_TEST_CASE	SFWAK10
SATSSF07        - SATS SYSTEM SERVICE TESTS  (FAILING S.C.)      22-AUG-1978 03:45:23   VAX-11 MACRO X0.3-11               Page  26
1.0             SFWAK10                                                                                                          (1)

                                     04EA   722 ;
                                     04EA   723 ;++
                                     04EA   724 ; ******************************************************
                                     04EA   725 ; *
                                     04EA   726 ; *  TEST CASE NAME:		SFWAK10
                                     04EA   727 ; *
                                     04EA   728 ; *  SYSTEM SERVICE:		WAKE
                                     04EA   729 ; *
                                     04EA   730 ; *  ARGUMENT UNDER TEST: 	PIDADR_WAK10
                                     04EA   731 ; *
                                     04EA   732 ; *  INPUT CONDITIONS:
                                     04EA   733 ; *	PIDADR FIELD AT LOCATION 1
                                     04EA   734 ; *
                                     04EA   735 ; *  EXPECTED RESULTS:
                                     04EA   736 ; *	1) SYSTEM STATUS CODE:	ACCVIO
                                     04EA   737 ; *	2) REGISTERS R2 THROUGH FP UNCHANGED
                                     04EA   738 ; *
                                     04EA   739 ; ******************************************************
                                     04EA   740 ;--
                                     04EA   741 ;
                                     04EA   742 	PRIV	ADD,ALL		; GET BACK SOME PRIVS REMOVED BY PRIOR T.C.
                                     0513   743 ;
                                     0513   744 	NEXT_TEST_CASE	SFWAK11
SATSSF07        - SATS SYSTEM SERVICE TESTS  (FAILING S.C.)      22-AUG-1978 03:45:23   VAX-11 MACRO X0.3-11               Page  27
1.0             SFWAK11                                                                                                          (1)

                                     051F   745 ;
                                     051F   746 ;++
                                     051F   747 ; ******************************************************
                                     051F   748 ; *
                                     051F   749 ; *  TEST CASE NAME:		SFWAK11
                                     051F   750 ; *
                                     051F   751 ; *  SYSTEM SERVICE:		WAKE
                                     051F   752 ; *
                                     051F   753 ; *  ARGUMENT UNDER TEST: 	PIDADR_WAK11
                                     051F   754 ; *
                                     051F   755 ; *  INPUT CONDITIONS:
                                     051F   756 ; *	PIDADR FIELD IN NON-ACCESSIBLE PSECT
                                     051F   757 ; *
                                     051F   758 ; *  EXPECTED RESULTS:
                                     051F   759 ; *	1) SYSTEM STATUS CODE:	ACCVIO
                                     051F   760 ; *	2) REGISTERS R2 THROUGH FP UNCHANGED
                                     051F   761 ; *
                                     051F   762 ; ******************************************************
                                     051F   763 ;--
                                     051F   764 ;
                                     051F   765 ;
                                     051F   766 	NEXT_TEST_CASE	SFWAK12
SATSSF07        - SATS SYSTEM SERVICE TESTS  (FAILING S.C.)      22-AUG-1978 03:45:23   VAX-11 MACRO X0.3-11               Page  28
1.0             SFWAK12                                                                                                          (1)

                                     052B   767 ;
                                     052B   768 ;++
                                     052B   769 ; ******************************************************
                                     052B   770 ; *
                                     052B   771 ; *  TEST CASE NAME:		SFWAK12
                                     052B   772 ; *
                                     052B   773 ; *  SYSTEM SERVICE:		WAKE
                                     052B   774 ; *
                                     052B   775 ; *  ARGUMENT UNDER TEST: 	PIDADR_WAK12
                                     052B   776 ; *
                                     052B   777 ; *  INPUT CONDITIONS:
                                     052B   778 ; *	PIDADR FIELD BEGINS IN ACCESSIBLE PSECT, ENDS
                                     052B   779 ; *	  IN NON-ACCESSIBLE PSECT.
                                     052B   780 ; *
                                     052B   781 ; *  EXPECTED RESULTS:
                                     052B   782 ; *	1) SYSTEM STATUS CODE:	ACCVIO
                                     052B   783 ; *	2) REGISTERS R2 THROUGH FP UNCHANGED
                                     052B   784 ; *
                                     052B   785 ; ******************************************************
                                     052B   786 ;--
                                     052B   787 ;
                                     052B   788 ;
                                     052B   789 	NEXT_TEST_CASE	SFWAK13
SATSSF07        - SATS SYSTEM SERVICE TESTS  (FAILING S.C.)      22-AUG-1978 03:45:23   VAX-11 MACRO X0.3-11               Page  29
1.0             SFWAK13                                                                                                          (1)

                                     0537   790 ;
                                     0537   791 ;++
                                     0537   792 ; ******************************************************
                                     0537   793 ; *
                                     0537   794 ; *  TEST CASE NAME:		SFWAK13
                                     0537   795 ; *
                                     0537   796 ; *  SYSTEM SERVICE:		WAKE
                                     0537   797 ; *
                                     0537   798 ; *  ARGUMENT UNDER TEST: 	PIDADR_WAK13
                                     0537   799 ; *
                                     0537   800 ; *  INPUT CONDITIONS:
                                     0537   801 ; *	INVALID PROCESS ID
                                     0537   802 ; *
                                     0537   803 ; *  EXPECTED RESULTS:
                                     0537   804 ; *	1) SYSTEM STATUS CODE:	NONEXPR
                                     0537   805 ; *	2) REGISTERS R2 THROUGH FP UNCHANGED
                                     0537   806 ; *
                                     0537   807 ; ******************************************************
                                     0537   808 ;--
                                     0537   809 ;
   00000180'EF   00000000'EF     D0  0537   810 	MOVL	TPID,PIDADR_WAK13 ; GET A VALID PID
   00000180'EF         FF 8F     99  0542   811 	CVTBW	#-1,PIDADR_WAK13  ; MAKE IT INVALID
                                     054A   812 ;
                                     054A   813 	NEXT_TEST_CASE	SFWAK14
SATSSF07        - SATS SYSTEM SERVICE TESTS  (FAILING S.C.)      22-AUG-1978 03:45:23   VAX-11 MACRO X0.3-11               Page  30
1.0             SFWAK14                                                                                                          (1)

                                     0556   814 ;
                                     0556   815 ;++
                                     0556   816 ; ******************************************************
                                     0556   817 ; *
                                     0556   818 ; *  TEST CASE NAME:		SFWAK14
                                     0556   819 ; *
                                     0556   820 ; *  SYSTEM SERVICE:		WAKE
                                     0556   821 ; *
                                     0556   822 ; *  ARGUMENT UNDER TEST: 	PIDADR_WAK14
                                     0556   823 ; *
                                     0556   824 ; *  INPUT CONDITIONS:
                                     0556   825 ; *	VALID, NON-EXISTENT PROCESS ID
                                     0556   826 ; *
                                     0556   827 ; *  EXPECTED RESULTS:
                                     0556   828 ; *	1) SYSTEM STATUS CODE:	NONEXPR
                                     0556   829 ; *	2) REGISTERS R2 THROUGH FP UNCHANGED
                                     0556   830 ; *
                                     0556   831 ; ******************************************************
                                     0556   832 ;--
                                     0556   833 ;
   00000184'EF   00000000'EF     D0  0556   834 	MOVL	TPID,PIDADR_WAK14 ; GET AN EXISTENT PID
   00000186'EF       1770 8F     B0  0561   835 	MOVW	#6000,PIDADR_WAK14+2 ; MAKE IT NON-EXISTENT
                                     056A   836 ;
                                     056A   837 	NEXT_TEST_CASE	SFWAK20
SATSSF07        - SATS SYSTEM SERVICE TESTS  (FAILING S.C.)      22-AUG-1978 03:45:23   VAX-11 MACRO X0.3-11               Page  31
1.0             SFWAK20                                                                                                          (1)

                                     0576   838 ;
                                     0576   839 ;++
                                     0576   840 ; ******************************************************
                                     0576   841 ; *
                                     0576   842 ; *  TEST CASE NAME:		SFWAK20
                                     0576   843 ; *
                                     0576   844 ; *  SYSTEM SERVICE:		WAKE
                                     0576   845 ; *
                                     0576   846 ; *  ARGUMENT UNDER TEST: 	PRCNAM_WAK20
                                     0576   847 ; *
                                     0576   848 ; *  INPUT CONDITIONS:
                                     0576   849 ; *	PRCNAM STRING DESCRIPTOR LENGTH FIELD IN
                                     0576   850 ; *	  NON-ACCESSIBLE PSECT.
                                     0576   851 ; *
                                     0576   852 ; *  EXPECTED RESULTS:
                                     0576   853 ; *	1) SYSTEM STATUS CODE:	ACCVIO
                                     0576   854 ; *	2) REGISTERS R2 THROUGH FP UNCHANGED
                                     0576   855 ; *
                                     0576   856 ; ******************************************************
                                     0576   857 ;--
                                     0576   858 ;
                 0000017C'EF     D4  0576   859 	CLRL	PIDADR_WAK	; MAKE SURE PRCNAM IS USED BY WAKE
                                     057C   860 ;
                                     057C   861 	NEXT_TEST_CASE	SFWAK21
SATSSF07        - SATS SYSTEM SERVICE TESTS  (FAILING S.C.)      22-AUG-1978 03:45:23   VAX-11 MACRO X0.3-11               Page  32
1.0             SFWAK21                                                                                                          (1)

                                     0588   862 ;
                                     0588   863 ;++
                                     0588   864 ; ******************************************************
                                     0588   865 ; *
                                     0588   866 ; *  TEST CASE NAME:		SFWAK21
                                     0588   867 ; *
                                     0588   868 ; *  SYSTEM SERVICE:		WAKE
                                     0588   869 ; *
                                     0588   870 ; *  ARGUMENT UNDER TEST: 	PRCNAM_WAK21
                                     0588   871 ; *
                                     0588   872 ; *  INPUT CONDITIONS:
                                     0588   873 ; *	PRCNAM STRING DESCRIPTOR LENGTH FIELD BEGINS IN
                                     0588   874 ; *	  ACCESSIBLE PSECT, ENDS IN NON-ACCESSIBLE PSECT.
                                     0588   875 ; *
                                     0588   876 ; *  EXPECTED RESULTS:
                                     0588   877 ; *	1) SYSTEM STATUS CODE:	ACCVIO
                                     0588   878 ; *	2) REGISTERS R2 THROUGH FP UNCHANGED
                                     0588   879 ; *
                                     0588   880 ; ******************************************************
                                     0588   881 ;--
                                     0588   882 ;
                 0000017C'EF     D4  0588   883 	CLRL	PIDADR_WAK	; MAKE SURE PRCNAM IS USED BY WAKE
                                     058E   884 ;
                                     058E   885 	NEXT_TEST_CASE	SFWAK22
SATSSF07        - SATS SYSTEM SERVICE TESTS  (FAILING S.C.)      22-AUG-1978 03:45:23   VAX-11 MACRO X0.3-11               Page  33
1.0             SFWAK22                                                                                                          (1)

                                     059A   886 ;
                                     059A   887 ;++
                                     059A   888 ; ******************************************************
                                     059A   889 ; *
                                     059A   890 ; *  TEST CASE NAME:		SFWAK22
                                     059A   891 ; *
                                     059A   892 ; *  SYSTEM SERVICE:		WAKE
                                     059A   893 ; *
                                     059A   894 ; *  ARGUMENT UNDER TEST: 	PRCNAM_WAK22
                                     059A   895 ; *
                                     059A   896 ; *  INPUT CONDITIONS:
                                     059A   897 ; *	PRCNAM STRING DESCRIPTOR ADDRESS FIELD IN
                                     059A   898 ; *	  NON-ACCESSIBLE PSECT.
                                     059A   899 ; *
                                     059A   900 ; *  EXPECTED RESULTS:
                                     059A   901 ; *	1) SYSTEM STATUS CODE:	ACCVIO
                                     059A   902 ; *	2) REGISTERS R2 THROUGH FP UNCHANGED
                                     059A   903 ; *
                                     059A   904 ; ******************************************************
                                     059A   905 ;--
                                     059A   906 ;
                 0000017C'EF     D4  059A   907 	CLRL	PIDADR_WAK	; MAKE SURE PRCNAM IS USED BY WAKE
   000001FC'EF            03     9A  05A0   908 	MOVZBL	#3,PRCNAM_WAK22	; ESTABLISH PRCNAM STRING LENGTH
                                     05A7   909 ;
                                     05A7   910 	NEXT_TEST_CASE	SFWAK23
SATSSF07        - SATS SYSTEM SERVICE TESTS  (FAILING S.C.)      22-AUG-1978 03:45:23   VAX-11 MACRO X0.3-11               Page  34
1.0             SFWAK23                                                                                                          (1)

                                     05B3   911 ;
                                     05B3   912 ;++
                                     05B3   913 ; ******************************************************
                                     05B3   914 ; *
                                     05B3   915 ; *  TEST CASE NAME:		SFWAK23
                                     05B3   916 ; *
                                     05B3   917 ; *  SYSTEM SERVICE:		WAKE
                                     05B3   918 ; *
                                     05B3   919 ; *  ARGUMENT UNDER TEST: 	PRCNAM_WAK23
                                     05B3   920 ; *
                                     05B3   921 ; *  INPUT CONDITIONS:
                                     05B3   922 ; *	PRCNAM STRING DESCRIPTOR ADDRESS FIELD BEGINS IN
                                     05B3   923 ; *	  ACCESSIBLE PSECT, ENDS IN NON-ACCESSIBLE PSECT.
                                     05B3   924 ; *
                                     05B3   925 ; *  EXPECTED RESULTS:
                                     05B3   926 ; *	1) SYSTEM STATUS CODE:	ACCVIO
                                     05B3   927 ; *	2) REGISTERS R2 THROUGH FP UNCHANGED
                                     05B3   928 ; *
                                     05B3   929 ; ******************************************************
                                     05B3   930 ;--
                                     05B3   931 ;
                 0000017C'EF     D4  05B3   932 	CLRL	PIDADR_WAK	; MAKE SURE PRCNAM IS USED BY WAKE
   000001FB'EF            03     9A  05B9   933 	MOVZBL	#3,PRCNAM_WAK23	; ESTABLISH PRCNAM STRING LENGTH
                                     05C0   934 ;
                                     05C0   935 	NEXT_TEST_CASE	SFWAK24
SATSSF07        - SATS SYSTEM SERVICE TESTS  (FAILING S.C.)      22-AUG-1978 03:45:23   VAX-11 MACRO X0.3-11               Page  35
1.0             SFWAK24                                                                                                          (1)

                                     05CC   936 ;
                                     05CC   937 ;++
                                     05CC   938 ; ******************************************************
                                     05CC   939 ; *
                                     05CC   940 ; *  TEST CASE NAME:		SFWAK24
                                     05CC   941 ; *
                                     05CC   942 ; *  SYSTEM SERVICE:		WAKE
                                     05CC   943 ; *
                                     05CC   944 ; *  ARGUMENT UNDER TEST: 	PRCNAM_WAK24
                                     05CC   945 ; *
                                     05CC   946 ; *  INPUT CONDITIONS:
                                     05CC   947 ; *	PRCNAM STRING IN NON-ACCESSIBLE PSECT
                                     05CC   948 ; *
                                     05CC   949 ; *  EXPECTED RESULTS:
                                     05CC   950 ; *	1) SYSTEM STATUS CODE:	ACCVIO
                                     05CC   951 ; *	2) REGISTERS R2 THROUGH FP UNCHANGED
                                     05CC   952 ; *
                                     05CC   953 ; ******************************************************
                                     05CC   954 ;--
                                     05CC   955 ;
                 0000017C'EF     D4  05CC   956 	CLRL	PIDADR_WAK	; MAKE SURE PRCNAM IS USED BY WAKE
                                     05D2   957 ;
                                     05D2   958 	TCEND
SATSSF07        - SATS SYSTEM SERVICE TESTS  (FAILING S.C.)      22-AUG-1978 03:45:23   VAX-11 MACRO X0.3-11               Page  36
1.0                                                                                                                              (1)

                                     05D3   959 	TC_GROUP	WAK,2,TS4
                                     05FA   960 ;
                                     05FA   961 	NEXT_TEST_CASE	SFWAK25
SATSSF07        - SATS SYSTEM SERVICE TESTS  (FAILING S.C.)      22-AUG-1978 03:45:23   VAX-11 MACRO X0.3-11               Page  37
1.0             SFWAK25                                                                                                          (1)

                                     05FA   962 ;
                                     05FA   963 ;++
                                     05FA   964 ; ******************************************************
                                     05FA   965 ; *
                                     05FA   966 ; *  TEST CASE NAME:		SFWAK25
                                     05FA   967 ; *
                                     05FA   968 ; *  SYSTEM SERVICE:		WAKE
                                     05FA   969 ; *
                                     05FA   970 ; *  ARGUMENT UNDER TEST: 	PRCNAM_WAK25
                                     05FA   971 ; *
                                     05FA   972 ; *  INPUT CONDITIONS:
                                     05FA   973 ; *	PRCNAM STRING BEGINS IN ACCESSIBLE PSECT,
                                     05FA   974 ; *	  ENDS IN NON-ACCESSIBLE PSECT.
                                     05FA   975 ; *
                                     05FA   976 ; *  EXPECTED RESULTS:
                                     05FA   977 ; *	1) SYSTEM STATUS CODE:	ACCVIO
                                     05FA   978 ; *	2) REGISTERS R2 THROUGH FP UNCHANGED
                                     05FA   979 ; *
                                     05FA   980 ; ******************************************************
                                     05FA   981 ;--
                                     05FA   982 ;
                 0000017C'EF     D4  05FA   983 	CLRL	PIDADR_WAK	; MAKE SURE PRCNAM IS USED BY WAKE
                                     0600   984 ;
                                     0600   985 	NEXT_TEST_CASE	SFWAK26
SATSSF07        - SATS SYSTEM SERVICE TESTS  (FAILING S.C.)      22-AUG-1978 03:45:23   VAX-11 MACRO X0.3-11               Page  38
1.0             SFWAK26                                                                                                          (1)

                                     060C   986 ;
                                     060C   987 ;++
                                     060C   988 ; ******************************************************
                                     060C   989 ; *
                                     060C   990 ; *  TEST CASE NAME:		SFWAK26
                                     060C   991 ; *
                                     060C   992 ; *  SYSTEM SERVICE:		WAKE
                                     060C   993 ; *
                                     060C   994 ; *  ARGUMENT UNDER TEST: 	PRCNAM_WAK26
                                     060C   995 ; *
                                     060C   996 ; *  INPUT CONDITIONS:
                                     060C   997 ; *	NON-EXISTENT PROCESS NAME
                                     060C   998 ; *
                                     060C   999 ; *  EXPECTED RESULTS:
                                     060C  1000 ; *	1) SYSTEM STATUS CODE:	NONEXPR
                                     060C  1001 ; *	2) REGISTERS R2 THROUGH FP UNCHANGED
                                     060C  1002 ; *
                                     060C  1003 ; ******************************************************
                                     060C  1004 ;--
                                     060C  1005 ;
                 0000017C'EF     D4  060C  1006 	CLRL	PIDADR_WAK	; MAKE SURE PRCNAM IS USED BY WAKE
                                     0612  1007 ;
                                     0612  1008 	NEXT_TEST_CASE	SFWAK27
SATSSF07        - SATS SYSTEM SERVICE TESTS  (FAILING S.C.)      22-AUG-1978 03:45:23   VAX-11 MACRO X0.3-11               Page  39
1.0             SFWAK27                                                                                                          (1)

                                     061E  1009 ;
                                     061E  1010 ;++
                                     061E  1011 ; ******************************************************
                                     061E  1012 ; *
                                     061E  1013 ; *  TEST CASE NAME:		SFWAK27
                                     061E  1014 ; *
                                     061E  1015 ; *  SYSTEM SERVICE:		WAKE
                                     061E  1016 ; *
                                     061E  1017 ; *  ARGUMENT UNDER TEST: 	PRCNAM_WAK27
                                     061E  1018 ; *
                                     061E  1019 ; *  INPUT CONDITIONS:
                                     061E  1020 ; *	INVALID PROCESS NAME (LENGTH 0)
                                     061E  1021 ; *
                                     061E  1022 ; *  EXPECTED RESULTS:
                                     061E  1023 ; *	1) SYSTEM STATUS CODE:	IVLOGNAM
                                     061E  1024 ; *	2) REGISTERS R2 THROUGH FP UNCHANGED
                                     061E  1025 ; *
                                     061E  1026 ; ******************************************************
                                     061E  1027 ;--
                                     061E  1028 ;
                 0000017C'EF     D4  061E  1029 	CLRL	PIDADR_WAK	; MAKE SURE PRCNAM IS USED BY WAKE
                                     0624  1030 ;
                                     0624  1031 	NEXT_TEST_CASE	SFWAK28
SATSSF07        - SATS SYSTEM SERVICE TESTS  (FAILING S.C.)      22-AUG-1978 03:45:23   VAX-11 MACRO X0.3-11               Page  40
1.0             SFWAK28                                                                                                          (1)

                                     0630  1032 ;
                                     0630  1033 ;++
                                     0630  1034 ; ******************************************************
                                     0630  1035 ; *
                                     0630  1036 ; *  TEST CASE NAME:		SFWAK28
                                     0630  1037 ; *
                                     0630  1038 ; *  SYSTEM SERVICE:		WAKE
                                     0630  1039 ; *
                                     0630  1040 ; *  ARGUMENT UNDER TEST: 	PRCNAM_WAK28
                                     0630  1041 ; *
                                     0630  1042 ; *  INPUT CONDITIONS:
                                     0630  1043 ; *	INVALID PROCESS NAME (LENGTH 16)
                                     0630  1044 ; *
                                     0630  1045 ; *  EXPECTED RESULTS:
                                     0630  1046 ; *	1) SYSTEM STATUS CODE:	IVLOGNAM
                                     0630  1047 ; *	2) REGISTERS R2 THROUGH FP UNCHANGED
                                     0630  1048 ; *
                                     0630  1049 ; ******************************************************
                                     0630  1050 ;--
                                     0630  1051 ;
                 0000017C'EF     D4  0630  1052 	CLRL	PIDADR_WAK	; MAKE SURE PRCNAM IS USED BY WAKE
                                     0636  1053 ;
                                     0636  1054 	NEXT_TEST_CASE	SFWAK29
SATSSF07        - SATS SYSTEM SERVICE TESTS  (FAILING S.C.)      22-AUG-1978 03:45:23   VAX-11 MACRO X0.3-11               Page  41
1.0             SFWAK29                                                                                                          (1)

                                     0642  1055 ;
                                     0642  1056 ;++
                                     0642  1057 ; ******************************************************
                                     0642  1058 ; *
                                     0642  1059 ; *  TEST CASE NAME:		SFWAK29
                                     0642  1060 ; *
                                     0642  1061 ; *  SYSTEM SERVICE:		WAKE
                                     0642  1062 ; *
                                     0642  1063 ; *  ARGUMENT UNDER TEST: 	PRCNAM_WAK29
                                     0642  1064 ; *
                                     0642  1065 ; *  INPUT CONDITIONS:
                                     0642  1066 ; *	WAKE ISSUED FOR EXISTING PROCESS WHICH IS NOT A
                                     0642  1067 ; *	  SUBPROCESS OF THIS PROCESS, AND THIS PROCESS HAS
                                     0642  1068 ; *	  NO GROUP OR WORLD PRIVILEGE.
                                     0642  1069 ; *
                                     0642  1070 ; *  EXPECTED RESULTS:
                                     0642  1071 ; *	1) SYSTEM STATUS CODE:	NOPRIV
                                     0642  1072 ; *	2) REGISTERS R2 THROUGH FP UNCHANGED
                                     0642  1073 ; *
                                     0642  1074 ; ******************************************************
                                     0642  1075 ;--
                                     0642  1076 ;
                                     0642  1077 	PRIV	REM,GROUP	; REMOVE GROUP PRIVILEGE
                                     0669  1078 	PRIV	REM,WORLD	; REMOVE WORLD PRIVILEGE
                 0000017C'EF     D4  0690  1079 	CLRL	PIDADR_WAK	; MAKE SURE PRCNAM IS USED BY WAKE
                                     0696  1080 ;
                                     0696  1081 	TCEND
SATSSF07        - SATS SYSTEM SERVICE TESTS  (FAILING S.C.)      22-AUG-1978 03:45:23   VAX-11 MACRO X0.3-11               Page  42
1.0                                                                                                                              (1)

                                     0697  1082 	TC_GROUP	DPC,1,TS5
                                     06BE  1083 ;
                                     06BE  1084 	NEXT_TEST_CASE	SFDPC10
SATSSF07        - SATS SYSTEM SERVICE TESTS  (FAILING S.C.)      22-AUG-1978 03:45:23   VAX-11 MACRO X0.3-11               Page  43
1.0             SFDPC10                                                                                                          (1)

                                     06BE  1085 ;
                                     06BE  1086 ;++
                                     06BE  1087 ; ******************************************************
                                     06BE  1088 ; *
                                     06BE  1089 ; *  TEST CASE NAME:		SFDPC10
                                     06BE  1090 ; *
                                     06BE  1091 ; *  SYSTEM SERVICE:		DELPRC
                                     06BE  1092 ; *
                                     06BE  1093 ; *  ARGUMENT UNDER TEST: 	PIDADR_DPC10
                                     06BE  1094 ; *
                                     06BE  1095 ; *  INPUT CONDITIONS:
                                     06BE  1096 ; *	PIDADR FIELD AT LOCATION 1
                                     06BE  1097 ; *
                                     06BE  1098 ; *  EXPECTED RESULTS:
                                     06BE  1099 ; *	1) SYSTEM STATUS CODE:	ACCVIO
                                     06BE  1100 ; *	2) REGISTERS R2 THROUGH FP UNCHANGED
                                     06BE  1101 ; *
                                     06BE  1102 ; ******************************************************
                                     06BE  1103 ;--
                                     06BE  1104 ;
                                     06BE  1105 ;
                                     06BE  1106 	NEXT_TEST_CASE	SFDPC11
SATSSF07        - SATS SYSTEM SERVICE TESTS  (FAILING S.C.)      22-AUG-1978 03:45:23   VAX-11 MACRO X0.3-11               Page  44
1.0             SFDPC11                                                                                                          (1)

                                     06CA  1107 ;
                                     06CA  1108 ;++
                                     06CA  1109 ; ******************************************************
                                     06CA  1110 ; *
                                     06CA  1111 ; *  TEST CASE NAME:		SFDPC11
                                     06CA  1112 ; *
                                     06CA  1113 ; *  SYSTEM SERVICE:		DELPRC
                                     06CA  1114 ; *
                                     06CA  1115 ; *  ARGUMENT UNDER TEST: 	PIDADR_DPC11
                                     06CA  1116 ; *
                                     06CA  1117 ; *  INPUT CONDITIONS:
                                     06CA  1118 ; *	PIDADR FIELD IN NON-ACCESSIBLE PSECT
                                     06CA  1119 ; *
                                     06CA  1120 ; *  EXPECTED RESULTS:
                                     06CA  1121 ; *	1) SYSTEM STATUS CODE:	ACCVIO
                                     06CA  1122 ; *	2) REGISTERS R2 THROUGH FP UNCHANGED
                                     06CA  1123 ; *
                                     06CA  1124 ; ******************************************************
                                     06CA  1125 ;--
                                     06CA  1126 ;
                                     06CA  1127 ;
                                     06CA  1128 	NEXT_TEST_CASE	SFDPC12
SATSSF07        - SATS SYSTEM SERVICE TESTS  (FAILING S.C.)      22-AUG-1978 03:45:23   VAX-11 MACRO X0.3-11               Page  45
1.0             SFDPC12                                                                                                          (1)

                                     06D6  1129 ;
                                     06D6  1130 ;++
                                     06D6  1131 ; ******************************************************
                                     06D6  1132 ; *
                                     06D6  1133 ; *  TEST CASE NAME:		SFDPC12
                                     06D6  1134 ; *
                                     06D6  1135 ; *  SYSTEM SERVICE:		DELPRC
                                     06D6  1136 ; *
                                     06D6  1137 ; *  ARGUMENT UNDER TEST: 	PIDADR_DPC12
                                     06D6  1138 ; *
                                     06D6  1139 ; *  INPUT CONDITIONS:
                                     06D6  1140 ; *	PIDADR FIELD BEGINS IN ACCESSIBLE PSECT, ENDS
                                     06D6  1141 ; *	  IN NON-ACCESSIBLE PSECT.
                                     06D6  1142 ; *
                                     06D6  1143 ; *  EXPECTED RESULTS:
                                     06D6  1144 ; *	1) SYSTEM STATUS CODE:	ACCVIO
                                     06D6  1145 ; *	2) REGISTERS R2 THROUGH FP UNCHANGED
                                     06D6  1146 ; *
                                     06D6  1147 ; ******************************************************
                                     06D6  1148 ;--
                                     06D6  1149 ;
                                     06D6  1150 ;
                                     06D6  1151 	NEXT_TEST_CASE	SFDPC13
SATSSF07        - SATS SYSTEM SERVICE TESTS  (FAILING S.C.)      22-AUG-1978 03:45:23   VAX-11 MACRO X0.3-11               Page  46
1.0             SFDPC13                                                                                                          (1)

                                     06E2  1152 ;
                                     06E2  1153 ;++
                                     06E2  1154 ; ******************************************************
                                     06E2  1155 ; *
                                     06E2  1156 ; *  TEST CASE NAME:		SFDPC13
                                     06E2  1157 ; *
                                     06E2  1158 ; *  SYSTEM SERVICE:		DELPRC
                                     06E2  1159 ; *
                                     06E2  1160 ; *  ARGUMENT UNDER TEST: 	PIDADR_DPC13
                                     06E2  1161 ; *
                                     06E2  1162 ; *  INPUT CONDITIONS:
                                     06E2  1163 ; *	INVALID PROCESS ID
                                     06E2  1164 ; *
                                     06E2  1165 ; *  EXPECTED RESULTS:
                                     06E2  1166 ; *	1) SYSTEM STATUS CODE:	NONEXPR
                                     06E2  1167 ; *	2) REGISTERS R2 THROUGH FP UNCHANGED
                                     06E2  1168 ; *
                                     06E2  1169 ; ******************************************************
                                     06E2  1170 ;--
                                     06E2  1171 ;
   0000018C'EF   00000000'EF     D0  06E2  1172 	MOVL	TPID,PIDADR_DPC13 ; GET A VALID PID
   0000018C'EF         FF 8F     99  06ED  1173 	CVTBW	#-1,PIDADR_DPC13  ; MAKE IT INVALID
                                     06F5  1174 ;
                                     06F5  1175 	NEXT_TEST_CASE	SFDPC14
SATSSF07        - SATS SYSTEM SERVICE TESTS  (FAILING S.C.)      22-AUG-1978 03:45:23   VAX-11 MACRO X0.3-11               Page  47
1.0             SFDPC14                                                                                                          (1)

                                     0701  1176 ;
                                     0701  1177 ;++
                                     0701  1178 ; ******************************************************
                                     0701  1179 ; *
                                     0701  1180 ; *  TEST CASE NAME:		SFDPC14
                                     0701  1181 ; *
                                     0701  1182 ; *  SYSTEM SERVICE:		DELPRC
                                     0701  1183 ; *
                                     0701  1184 ; *  ARGUMENT UNDER TEST: 	PIDADR_DPC14
                                     0701  1185 ; *
                                     0701  1186 ; *  INPUT CONDITIONS:
                                     0701  1187 ; *	VALID, NON-EXISTENT PROCESS ID
                                     0701  1188 ; *
                                     0701  1189 ; *  EXPECTED RESULTS:
                                     0701  1190 ; *	1) SYSTEM STATUS CODE:	NONEXPR
                                     0701  1191 ; *	2) REGISTERS R2 THROUGH FP UNCHANGED
                                     0701  1192 ; *
                                     0701  1193 ; ******************************************************
                                     0701  1194 ;--
                                     0701  1195 ;
   00000190'EF   00000000'EF     D0  0701  1196 	MOVL	TPID,PIDADR_DPC14 ; GET AN EXISTENT PID
   00000192'EF       1770 8F     B0  070C  1197 	MOVW	#6000,PIDADR_DPC14+2 ; MAKE IT NON-EXISTENT
                                     0715  1198 ;
                                     0715  1199 	NEXT_TEST_CASE	SFDPC20
SATSSF07        - SATS SYSTEM SERVICE TESTS  (FAILING S.C.)      22-AUG-1978 03:45:23   VAX-11 MACRO X0.3-11               Page  48
1.0             SFDPC20                                                                                                          (1)

                                     0721  1200 ;
                                     0721  1201 ;++
                                     0721  1202 ; ******************************************************
                                     0721  1203 ; *
                                     0721  1204 ; *  TEST CASE NAME:		SFDPC20
                                     0721  1205 ; *
                                     0721  1206 ; *  SYSTEM SERVICE:		DELPRC
                                     0721  1207 ; *
                                     0721  1208 ; *  ARGUMENT UNDER TEST: 	PRCNAM_DPC20
                                     0721  1209 ; *
                                     0721  1210 ; *  INPUT CONDITIONS:
                                     0721  1211 ; *	PRCNAM STRING DESCRIPTOR LENGTH FIELD IN
                                     0721  1212 ; *	  NON-ACCESSIBLE PSECT.
                                     0721  1213 ; *
                                     0721  1214 ; *  EXPECTED RESULTS:
                                     0721  1215 ; *	1) SYSTEM STATUS CODE:	ACCVIO
                                     0721  1216 ; *	2) REGISTERS R2 THROUGH FP UNCHANGED
                                     0721  1217 ; *
                                     0721  1218 ; ******************************************************
                                     0721  1219 ;--
                                     0721  1220 ;
                 00000188'EF     D4  0721  1221 	CLRL	PIDADR_DPC	; MAKE SURE PRCNAM IS USED BY DELPRC
                                     0727  1222 ;
                                     0727  1223 	NEXT_TEST_CASE	SFDPC21
SATSSF07        - SATS SYSTEM SERVICE TESTS  (FAILING S.C.)      22-AUG-1978 03:45:23   VAX-11 MACRO X0.3-11               Page  49
1.0             SFDPC21                                                                                                          (1)

                                     0733  1224 ;
                                     0733  1225 ;++
                                     0733  1226 ; ******************************************************
                                     0733  1227 ; *
                                     0733  1228 ; *  TEST CASE NAME:		SFDPC21
                                     0733  1229 ; *
                                     0733  1230 ; *  SYSTEM SERVICE:		DELPRC
                                     0733  1231 ; *
                                     0733  1232 ; *  ARGUMENT UNDER TEST: 	PRCNAM_DPC21
                                     0733  1233 ; *
                                     0733  1234 ; *  INPUT CONDITIONS:
                                     0733  1235 ; *	PRCNAM STRING DESCRIPTOR LENGTH FIELD BEGINS IN
                                     0733  1236 ; *	  ACCESSIBLE PSECT, ENDS IN NON-ACCESSIBLE PSECT.
                                     0733  1237 ; *
                                     0733  1238 ; *  EXPECTED RESULTS:
                                     0733  1239 ; *	1) SYSTEM STATUS CODE:	ACCVIO
                                     0733  1240 ; *	2) REGISTERS R2 THROUGH FP UNCHANGED
                                     0733  1241 ; *
                                     0733  1242 ; ******************************************************
                                     0733  1243 ;--
                                     0733  1244 ;
                 00000188'EF     D4  0733  1245 	CLRL	PIDADR_DPC	; MAKE SURE PRCNAM IS USED BY DELPRC
                                     0739  1246 ;
                                     0739  1247 	NEXT_TEST_CASE	SFDPC22
SATSSF07        - SATS SYSTEM SERVICE TESTS  (FAILING S.C.)      22-AUG-1978 03:45:23   VAX-11 MACRO X0.3-11               Page  50
1.0             SFDPC22                                                                                                          (1)

                                     0745  1248 ;
                                     0745  1249 ;++
                                     0745  1250 ; ******************************************************
                                     0745  1251 ; *
                                     0745  1252 ; *  TEST CASE NAME:		SFDPC22
                                     0745  1253 ; *
                                     0745  1254 ; *  SYSTEM SERVICE:		DELPRC
                                     0745  1255 ; *
                                     0745  1256 ; *  ARGUMENT UNDER TEST: 	PRCNAM_DPC22
                                     0745  1257 ; *
                                     0745  1258 ; *  INPUT CONDITIONS:
                                     0745  1259 ; *	PRCNAM STRING DESCRIPTOR ADDRESS FIELD IN
                                     0745  1260 ; *	  NON-ACCESSIBLE PSECT.
                                     0745  1261 ; *
                                     0745  1262 ; *  EXPECTED RESULTS:
                                     0745  1263 ; *	1) SYSTEM STATUS CODE:	ACCVIO
                                     0745  1264 ; *	2) REGISTERS R2 THROUGH FP UNCHANGED
                                     0745  1265 ; *
                                     0745  1266 ; ******************************************************
                                     0745  1267 ;--
                                     0745  1268 ;
                 00000188'EF     D4  0745  1269 	CLRL	PIDADR_DPC	; MAKE SURE PRCNAM IS USED BY DELPRC
   000001FC'EF            03     9A  074B  1270 	MOVZBL	#3,PRCNAM_DPC22	; ESTABLISH PRCNAM STRING LENGTH
                                     0752  1271 ;
                                     0752  1272 	NEXT_TEST_CASE	SFDPC23
SATSSF07        - SATS SYSTEM SERVICE TESTS  (FAILING S.C.)      22-AUG-1978 03:45:23   VAX-11 MACRO X0.3-11               Page  51
1.0             SFDPC23                                                                                                          (1)

                                     075E  1273 ;
                                     075E  1274 ;++
                                     075E  1275 ; ******************************************************
                                     075E  1276 ; *
                                     075E  1277 ; *  TEST CASE NAME:		SFDPC23
                                     075E  1278 ; *
                                     075E  1279 ; *  SYSTEM SERVICE:		DELPRC
                                     075E  1280 ; *
                                     075E  1281 ; *  ARGUMENT UNDER TEST: 	PRCNAM_DPC23
                                     075E  1282 ; *
                                     075E  1283 ; *  INPUT CONDITIONS:
                                     075E  1284 ; *	PRCNAM STRING DESCRIPTOR ADDRESS FIELD BEGINS IN
                                     075E  1285 ; *	  ACCESSIBLE PSECT, ENDS IN NON-ACCESSIBLE PSECT.
                                     075E  1286 ; *
                                     075E  1287 ; *  EXPECTED RESULTS:
                                     075E  1288 ; *	1) SYSTEM STATUS CODE:	ACCVIO
                                     075E  1289 ; *	2) REGISTERS R2 THROUGH FP UNCHANGED
                                     075E  1290 ; *
                                     075E  1291 ; ******************************************************
                                     075E  1292 ;--
                                     075E  1293 ;
                 00000188'EF     D4  075E  1294 	CLRL	PIDADR_DPC	; MAKE SURE PRCNAM IS USED BY DELPRC
   000001FB'EF            03     9A  0764  1295 	MOVZBL	#3,PRCNAM_DPC23	; ESTABLISH PRCNAM STRING LENGTH
                                     076B  1296 ;
                                     076B  1297 	NEXT_TEST_CASE	SFDPC24
SATSSF07        - SATS SYSTEM SERVICE TESTS  (FAILING S.C.)      22-AUG-1978 03:45:23   VAX-11 MACRO X0.3-11               Page  52
1.0             SFDPC24                                                                                                          (1)

                                     0777  1298 ;
                                     0777  1299 ;++
                                     0777  1300 ; ******************************************************
                                     0777  1301 ; *
                                     0777  1302 ; *  TEST CASE NAME:		SFDPC24
                                     0777  1303 ; *
                                     0777  1304 ; *  SYSTEM SERVICE:		DELPRC
                                     0777  1305 ; *
                                     0777  1306 ; *  ARGUMENT UNDER TEST: 	PRCNAM_DPC24
                                     0777  1307 ; *
                                     0777  1308 ; *  INPUT CONDITIONS:
                                     0777  1309 ; *	PRCNAM STRING IN NON-ACCESSIBLE PSECT
                                     0777  1310 ; *
                                     0777  1311 ; *  EXPECTED RESULTS:
                                     0777  1312 ; *	1) SYSTEM STATUS CODE:	ACCVIO
                                     0777  1313 ; *	2) REGISTERS R2 THROUGH FP UNCHANGED
                                     0777  1314 ; *
                                     0777  1315 ; ******************************************************
                                     0777  1316 ;--
                                     0777  1317 ;
                 00000188'EF     D4  0777  1318 	CLRL	PIDADR_DPC	; MAKE SURE PRCNAM IS USED BY DELPRC
                                     077D  1319 ;
                                     077D  1320 	TCEND
SATSSF07        - SATS SYSTEM SERVICE TESTS  (FAILING S.C.)      22-AUG-1978 03:45:23   VAX-11 MACRO X0.3-11               Page  53
1.0                                                                                                                              (1)

                                     077E  1321 	TC_GROUP	DPC,2,TS6
                                     07A5  1322 ;
                                     07A5  1323 	NEXT_TEST_CASE	SFDPC25
SATSSF07        - SATS SYSTEM SERVICE TESTS  (FAILING S.C.)      22-AUG-1978 03:45:23   VAX-11 MACRO X0.3-11               Page  54
1.0             SFDPC25                                                                                                          (1)

                                     07A5  1324 ;
                                     07A5  1325 ;++
                                     07A5  1326 ; ******************************************************
                                     07A5  1327 ; *
                                     07A5  1328 ; *  TEST CASE NAME:		SFDPC25
                                     07A5  1329 ; *
                                     07A5  1330 ; *  SYSTEM SERVICE:		DELPRC
                                     07A5  1331 ; *
                                     07A5  1332 ; *  ARGUMENT UNDER TEST: 	PRCNAM_DPC25
                                     07A5  1333 ; *
                                     07A5  1334 ; *  INPUT CONDITIONS:
                                     07A5  1335 ; *	PRCNAM STRING BEGINS IN ACCESSIBLE PSECT,
                                     07A5  1336 ; *	  ENDS IN NON-ACCESSIBLE PSECT.
                                     07A5  1337 ; *
                                     07A5  1338 ; *  EXPECTED RESULTS:
                                     07A5  1339 ; *	1) SYSTEM STATUS CODE:	ACCVIO
                                     07A5  1340 ; *	2) REGISTERS R2 THROUGH FP UNCHANGED
                                     07A5  1341 ; *
                                     07A5  1342 ; ******************************************************
                                     07A5  1343 ;--
                                     07A5  1344 ;
                 00000188'EF     D4  07A5  1345 	CLRL	PIDADR_DPC	; MAKE SURE PRCNAM IS USED BY DELPRC
                                     07AB  1346 ;
                                     07AB  1347 	NEXT_TEST_CASE	SFDPC26
SATSSF07        - SATS SYSTEM SERVICE TESTS  (FAILING S.C.)      22-AUG-1978 03:45:23   VAX-11 MACRO X0.3-11               Page  55
1.0             SFDPC26                                                                                                          (1)

                                     07B7  1348 ;
                                     07B7  1349 ;++
                                     07B7  1350 ; ******************************************************
                                     07B7  1351 ; *
                                     07B7  1352 ; *  TEST CASE NAME:		SFDPC26
                                     07B7  1353 ; *
                                     07B7  1354 ; *  SYSTEM SERVICE:		DELPRC
                                     07B7  1355 ; *
                                     07B7  1356 ; *  ARGUMENT UNDER TEST: 	PRCNAM_DPC26
                                     07B7  1357 ; *
                                     07B7  1358 ; *  INPUT CONDITIONS:
                                     07B7  1359 ; *	NON-EXISTENT PROCESS NAME
                                     07B7  1360 ; *
                                     07B7  1361 ; *  EXPECTED RESULTS:
                                     07B7  1362 ; *	1) SYSTEM STATUS CODE:	NONEXPR
                                     07B7  1363 ; *	2) REGISTERS R2 THROUGH FP UNCHANGED
                                     07B7  1364 ; *
                                     07B7  1365 ; ******************************************************
                                     07B7  1366 ;--
                                     07B7  1367 ;
                 00000188'EF     D4  07B7  1368 	CLRL	PIDADR_DPC	; MAKE SURE PRCNAM IS USED BY DELPRC
                                     07BD  1369 ;
                                     07BD  1370 	NEXT_TEST_CASE	SFDPC27
SATSSF07        - SATS SYSTEM SERVICE TESTS  (FAILING S.C.)      22-AUG-1978 03:45:23   VAX-11 MACRO X0.3-11               Page  56
1.0             SFDPC27                                                                                                          (1)

                                     07C9  1371 ;
                                     07C9  1372 ;++
                                     07C9  1373 ; ******************************************************
                                     07C9  1374 ; *
                                     07C9  1375 ; *  TEST CASE NAME:		SFDPC27
                                     07C9  1376 ; *
                                     07C9  1377 ; *  SYSTEM SERVICE:		DELPRC
                                     07C9  1378 ; *
                                     07C9  1379 ; *  ARGUMENT UNDER TEST: 	PRCNAM_DPC27
                                     07C9  1380 ; *
                                     07C9  1381 ; *  INPUT CONDITIONS:
                                     07C9  1382 ; *	INVALID PROCESS NAME (LENGTH 0)
                                     07C9  1383 ; *
                                     07C9  1384 ; *  EXPECTED RESULTS:
                                     07C9  1385 ; *	1) SYSTEM STATUS CODE:	IVLOGNAM
                                     07C9  1386 ; *	2) REGISTERS R2 THROUGH FP UNCHANGED
                                     07C9  1387 ; *
                                     07C9  1388 ; ******************************************************
                                     07C9  1389 ;--
                                     07C9  1390 ;
                 00000188'EF     D4  07C9  1391 	CLRL	PIDADR_DPC	; MAKE SURE PRCNAM IS USED BY DELPRC
                                     07CF  1392 ;
                                     07CF  1393 	NEXT_TEST_CASE	SFDPC28
SATSSF07        - SATS SYSTEM SERVICE TESTS  (FAILING S.C.)      22-AUG-1978 03:45:23   VAX-11 MACRO X0.3-11               Page  57
1.0             SFDPC28                                                                                                          (1)

                                     07DB  1394 ;
                                     07DB  1395 ;++
                                     07DB  1396 ; ******************************************************
                                     07DB  1397 ; *
                                     07DB  1398 ; *  TEST CASE NAME:		SFDPC28
                                     07DB  1399 ; *
                                     07DB  1400 ; *  SYSTEM SERVICE:		DELPRC
                                     07DB  1401 ; *
                                     07DB  1402 ; *  ARGUMENT UNDER TEST: 	PRCNAM_DPC28
                                     07DB  1403 ; *
                                     07DB  1404 ; *  INPUT CONDITIONS:
                                     07DB  1405 ; *	INVALID PROCESS NAME (LENGTH 16)
                                     07DB  1406 ; *
                                     07DB  1407 ; *  EXPECTED RESULTS:
                                     07DB  1408 ; *	1) SYSTEM STATUS CODE:	IVLOGNAM
                                     07DB  1409 ; *	2) REGISTERS R2 THROUGH FP UNCHANGED
                                     07DB  1410 ; *
                                     07DB  1411 ; ******************************************************
                                     07DB  1412 ;--
                                     07DB  1413 ;
                 00000188'EF     D4  07DB  1414 	CLRL	PIDADR_DPC	; MAKE SURE PRCNAM IS USED BY DELPRC
                                     07E1  1415 ;
                                     07E1  1416 	NEXT_TEST_CASE	SFDPC29
SATSSF07        - SATS SYSTEM SERVICE TESTS  (FAILING S.C.)      22-AUG-1978 03:45:23   VAX-11 MACRO X0.3-11               Page  58
1.0             SFDPC29                                                                                                          (1)

                                     07ED  1417 ;
                                     07ED  1418 ;++
                                     07ED  1419 ; ******************************************************
                                     07ED  1420 ; *
                                     07ED  1421 ; *  TEST CASE NAME:		SFDPC29
                                     07ED  1422 ; *
                                     07ED  1423 ; *  SYSTEM SERVICE:		DELPRC
                                     07ED  1424 ; *
                                     07ED  1425 ; *  ARGUMENT UNDER TEST: 	PRCNAM_DPC29
                                     07ED  1426 ; *
                                     07ED  1427 ; *  INPUT CONDITIONS:
                                     07ED  1428 ; *	DELPRC ISSUED FOR EXISTING PROCESS WHICH IS NOT A
                                     07ED  1429 ; *	  SUBPROCESS OF THIS PROCESS, AND THIS PROCESS HAS
                                     07ED  1430 ; *	  NO GROUP OR WORLD PRIVILEGE.
                                     07ED  1431 ; *
                                     07ED  1432 ; *  EXPECTED RESULTS:
                                     07ED  1433 ; *	1) SYSTEM STATUS CODE:	NOPRIV
                                     07ED  1434 ; *	2) REGISTERS R2 THROUGH FP UNCHANGED
                                     07ED  1435 ; *
                                     07ED  1436 ; ******************************************************
                                     07ED  1437 ;--
                                     07ED  1438 ;
                                     07ED  1439 	PRIV	REM,GROUP	; REMOVE GROUP PRIVILEGE
                                     0814  1440 	PRIV	REM,WORLD	; REMOVE WORLD PRIVILEGE
                 00000188'EF     D4  083B  1441 	CLRL	PIDADR_DPC	; MAKE SURE PRCNAM IS USED BY DELPRC
                                     0841  1442 ;
                                     0841  1443 	TCEND
SATSSF07        - SATS SYSTEM SERVICE TESTS  (FAILING S.C.)      22-AUG-1978 03:45:23   VAX-11 MACRO X0.3-11               Page  59
1.0                                                                                                                              (1)

                                     0842  1444 	TC_GROUP	GJP,1,TS7
                                     0869  1445 ;
                                     0869  1446 	NEXT_TEST_CASE	SFGJP20
SATSSF07        - SATS SYSTEM SERVICE TESTS  (FAILING S.C.)      22-AUG-1978 03:45:23   VAX-11 MACRO X0.3-11               Page  60
1.0             SFGJP20                                                                                                          (1)

                                     0869  1447 ;
                                     0869  1448 ;++
                                     0869  1449 ; ******************************************************
                                     0869  1450 ; *
                                     0869  1451 ; *  TEST CASE NAME:		SFGJP20
                                     0869  1452 ; *
                                     0869  1453 ; *  SYSTEM SERVICE:		GETJPI
                                     0869  1454 ; *
                                     0869  1455 ; *  ARGUMENT UNDER TEST: 	PIDADR_GJP20
                                     0869  1456 ; *
                                     0869  1457 ; *  INPUT CONDITIONS:
                                     0869  1458 ; *	PIDADR FIELD AT LOCATION 1
                                     0869  1459 ; *
                                     0869  1460 ; *  EXPECTED RESULTS:
                                     0869  1461 ; *	1) SYSTEM STATUS CODE:	ACCVIO
                                     0869  1462 ; *	2) REGISTERS R2 THROUGH FP UNCHANGED
                                     0869  1463 ; *
                                     0869  1464 ; ******************************************************
                                     0869  1465 ;--
                                     0869  1466 ;
                                     0869  1467 ;
                                     0869  1468 	NEXT_TEST_CASE	SFGJP21
SATSSF07        - SATS SYSTEM SERVICE TESTS  (FAILING S.C.)      22-AUG-1978 03:45:23   VAX-11 MACRO X0.3-11               Page  61
1.0             SFGJP21                                                                                                          (1)

                                     0875  1469 ;
                                     0875  1470 ;++
                                     0875  1471 ; ******************************************************
                                     0875  1472 ; *
                                     0875  1473 ; *  TEST CASE NAME:		SFGJP21
                                     0875  1474 ; *
                                     0875  1475 ; *  SYSTEM SERVICE:		GETJPI
                                     0875  1476 ; *
                                     0875  1477 ; *  ARGUMENT UNDER TEST: 	PIDADR_GJP21
                                     0875  1478 ; *
                                     0875  1479 ; *  INPUT CONDITIONS:
                                     0875  1480 ; *	INVALID PROCESS ID
                                     0875  1481 ; *
                                     0875  1482 ; *  EXPECTED RESULTS:
                                     0875  1483 ; *	1) SYSTEM STATUS CODE:	NONEXPR
                                     0875  1484 ; *	2) REGISTERS R2 THROUGH FP UNCHANGED
                                     0875  1485 ; *
                                     0875  1486 ; ******************************************************
                                     0875  1487 ;--
                                     0875  1488 ;
   00000198'EF   00000000'EF     D0  0875  1489 	MOVL	TPID,PIDADR_GJP21 ; GET A VALID PID
   00000198'EF         FF 8F     99  0880  1490 	CVTBW	#-1,PIDADR_GJP21  ; MAKE IT INVALID
                                     0888  1491 ;
                                     0888  1492 	NEXT_TEST_CASE	SFGJP22
SATSSF07        - SATS SYSTEM SERVICE TESTS  (FAILING S.C.)      22-AUG-1978 03:45:23   VAX-11 MACRO X0.3-11               Page  62
1.0             SFGJP22                                                                                                          (1)

                                     0894  1493 ;
                                     0894  1494 ;++
                                     0894  1495 ; ******************************************************
                                     0894  1496 ; *
                                     0894  1497 ; *  TEST CASE NAME:		SFGJP22
                                     0894  1498 ; *
                                     0894  1499 ; *  SYSTEM SERVICE:		GETJPI
                                     0894  1500 ; *
                                     0894  1501 ; *  ARGUMENT UNDER TEST: 	PIDADR_GJP22
                                     0894  1502 ; *
                                     0894  1503 ; *  INPUT CONDITIONS:
                                     0894  1504 ; *	VALID, NON-EXISTENT PROCESS ID
                                     0894  1505 ; *
                                     0894  1506 ; *  EXPECTED RESULTS:
                                     0894  1507 ; *	1) SYSTEM STATUS CODE:	NONEXPR
                                     0894  1508 ; *	2) REGISTERS R2 THROUGH FP UNCHANGED
                                     0894  1509 ; *
                                     0894  1510 ; ******************************************************
                                     0894  1511 ;--
                                     0894  1512 ;
   0000019C'EF   00000000'EF     D0  0894  1513 	MOVL	TPID,PIDADR_GJP22 ; GET AN EXISTENT PID
   0000019E'EF       1770 8F     B0  089F  1514 	MOVW	#6000,PIDADR_GJP22+2 ; MAKE IT NON-EXISTENT
                                     08A8  1515 ;
                                     08A8  1516 	NEXT_TEST_CASE	SFGJP30
SATSSF07        - SATS SYSTEM SERVICE TESTS  (FAILING S.C.)      22-AUG-1978 03:45:23   VAX-11 MACRO X0.3-11               Page  63
1.0             SFGJP30                                                                                                          (1)

                                     08B4  1517 ;
                                     08B4  1518 ;++
                                     08B4  1519 ; ******************************************************
                                     08B4  1520 ; *
                                     08B4  1521 ; *  TEST CASE NAME:		SFGJP30
                                     08B4  1522 ; *
                                     08B4  1523 ; *  SYSTEM SERVICE:		GETJPI
                                     08B4  1524 ; *
                                     08B4  1525 ; *  ARGUMENT UNDER TEST: 	PRCNAM_GJP30
                                     08B4  1526 ; *
                                     08B4  1527 ; *  INPUT CONDITIONS:
                                     08B4  1528 ; *	PRCNAM IN NON-ACCESSIBLE PSECT.
                                     08B4  1529 ; *
                                     08B4  1530 ; *  EXPECTED RESULTS:
                                     08B4  1531 ; *	1) SYSTEM STATUS CODE:	ACCVIO
                                     08B4  1532 ; *	2) REGISTERS R2 THROUGH FP UNCHANGED
                                     08B4  1533 ; *
                                     08B4  1534 ; ******************************************************
                                     08B4  1535 ;--
                                     08B4  1536 ;
                 00000194'EF     D4  08B4  1537 	CLRL	PIDADR_GJP	; MAKE SURE PRCNAM IS USED BY GETJPI
                                     08BA  1538 ;
                                     08BA  1539 	NEXT_TEST_CASE	SFGJP31
SATSSF07        - SATS SYSTEM SERVICE TESTS  (FAILING S.C.)      22-AUG-1978 03:45:23   VAX-11 MACRO X0.3-11               Page  64
1.0             SFGJP31                                                                                                          (1)

                                     08C6  1540 ;
                                     08C6  1541 ;++
                                     08C6  1542 ; ******************************************************
                                     08C6  1543 ; *
                                     08C6  1544 ; *  TEST CASE NAME:		SFGJP31
                                     08C6  1545 ; *
                                     08C6  1546 ; *  SYSTEM SERVICE:		GETJPI
                                     08C6  1547 ; *
                                     08C6  1548 ; *  ARGUMENT UNDER TEST: 	PRCNAM_GJP31
                                     08C6  1549 ; *
                                     08C6  1550 ; *  INPUT CONDITIONS:
                                     08C6  1551 ; *	NON-EXISTENT PROCESS NAME
                                     08C6  1552 ; *
                                     08C6  1553 ; *  EXPECTED RESULTS:
                                     08C6  1554 ; *	1) SYSTEM STATUS CODE:	NONEXPR
                                     08C6  1555 ; *	2) REGISTERS R2 THROUGH FP UNCHANGED
                                     08C6  1556 ; *
                                     08C6  1557 ; ******************************************************
                                     08C6  1558 ;--
                                     08C6  1559 ;
                 00000194'EF     D4  08C6  1560 	CLRL	PIDADR_GJP	; MAKE SURE PRCNAM IS USED BY GETJPI
                                     08CC  1561 ;
                                     08CC  1562 	NEXT_TEST_CASE	SFGJP32
SATSSF07        - SATS SYSTEM SERVICE TESTS  (FAILING S.C.)      22-AUG-1978 03:45:23   VAX-11 MACRO X0.3-11               Page  65
1.0             SFGJP32                                                                                                          (1)

                                     08D8  1563 ;
                                     08D8  1564 ;++
                                     08D8  1565 ; ******************************************************
                                     08D8  1566 ; *
                                     08D8  1567 ; *  TEST CASE NAME:		SFGJP32
                                     08D8  1568 ; *
                                     08D8  1569 ; *  SYSTEM SERVICE:		GETJPI
                                     08D8  1570 ; *
                                     08D8  1571 ; *  ARGUMENT UNDER TEST: 	PRCNAM_GJP32
                                     08D8  1572 ; *
                                     08D8  1573 ; *  INPUT CONDITIONS:
                                     08D8  1574 ; *	INVALID PROCESS NAME (LENGTH 0)
                                     08D8  1575 ; *
                                     08D8  1576 ; *  EXPECTED RESULTS:
                                     08D8  1577 ; *	1) SYSTEM STATUS CODE:	IVLOGNAM
                                     08D8  1578 ; *	2) REGISTERS R2 THROUGH FP UNCHANGED
                                     08D8  1579 ; *
                                     08D8  1580 ; ******************************************************
                                     08D8  1581 ;--
                                     08D8  1582 ;
                 00000194'EF     D4  08D8  1583 	CLRL	PIDADR_GJP	; MAKE SURE PRCNAM IS USED BY GETJPI
                                     08DE  1584 ;
                                     08DE  1585 	NEXT_TEST_CASE	SFGJP33
SATSSF07        - SATS SYSTEM SERVICE TESTS  (FAILING S.C.)      22-AUG-1978 03:45:23   VAX-11 MACRO X0.3-11               Page  66
1.0             SFGJP33                                                                                                          (1)

                                     08EA  1586 ;
                                     08EA  1587 ;++
                                     08EA  1588 ; ******************************************************
                                     08EA  1589 ; *
                                     08EA  1590 ; *  TEST CASE NAME:		SFGJP33
                                     08EA  1591 ; *
                                     08EA  1592 ; *  SYSTEM SERVICE:		GETJPI
                                     08EA  1593 ; *
                                     08EA  1594 ; *  ARGUMENT UNDER TEST: 	PRCNAM_GJP33
                                     08EA  1595 ; *
                                     08EA  1596 ; *  INPUT CONDITIONS:
                                     08EA  1597 ; *	INVALID PROCESS NAME (LENGTH 16)
                                     08EA  1598 ; *
                                     08EA  1599 ; *  EXPECTED RESULTS:
                                     08EA  1600 ; *	1) SYSTEM STATUS CODE:	IVLOGNAM
                                     08EA  1601 ; *	2) REGISTERS R2 THROUGH FP UNCHANGED
                                     08EA  1602 ; *
                                     08EA  1603 ; ******************************************************
                                     08EA  1604 ;--
                                     08EA  1605 ;
                 00000194'EF     D4  08EA  1606 	CLRL	PIDADR_GJP	; MAKE SURE PRCNAM IS USED BY GETJPI
                                     08F0  1607 ;
                                     08F0  1608 	NEXT_TEST_CASE	SFGJP34
SATSSF07        - SATS SYSTEM SERVICE TESTS  (FAILING S.C.)      22-AUG-1978 03:45:23   VAX-11 MACRO X0.3-11               Page  67
1.0             SFGJP34                                                                                                          (1)

                                     08FC  1609 ;
                                     08FC  1610 ;++
                                     08FC  1611 ; ******************************************************
                                     08FC  1612 ; *
                                     08FC  1613 ; *  TEST CASE NAME:		SFGJP34
                                     08FC  1614 ; *
                                     08FC  1615 ; *  SYSTEM SERVICE:		GETJPI
                                     08FC  1616 ; *
                                     08FC  1617 ; *  ARGUMENT UNDER TEST: 	PRCNAM_GJP34
                                     08FC  1618 ; *
                                     08FC  1619 ; *  INPUT CONDITIONS:
                                     08FC  1620 ; *	GETJPI ISSUED FOR EXISTING PROCESS WHICH IS NOT A
                                     08FC  1621 ; *	  SUBPROCESS OF THIS PROCESS, AND THIS PROCESS HAS
                                     08FC  1622 ; *	  NO GROUP OR WORLD PRIVILEGE.
                                     08FC  1623 ; *
                                     08FC  1624 ; *  EXPECTED RESULTS:
                                     08FC  1625 ; *	1) SYSTEM STATUS CODE:	NOPRIV
                                     08FC  1626 ; *	2) REGISTERS R2 THROUGH FP UNCHANGED
                                     08FC  1627 ; *
                                     08FC  1628 ; ******************************************************
                                     08FC  1629 ;--
                                     08FC  1630 ;
                                     08FC  1631 	PRIV	REM,GROUP	; REMOVE GROUP PRIVILEGE
                                     0923  1632 	PRIV	REM,WORLD	; REMOVE WORLD PRIVILEGE
                 00000194'EF     D4  094A  1633 	CLRL	PIDADR_GJP	; MAKE SURE PRCNAM IS USED BY GETJPI
                                     0950  1634 ;
                                     0950  1635 	NEXT_TEST_CASE	SFGJP40
SATSSF07        - SATS SYSTEM SERVICE TESTS  (FAILING S.C.)      22-AUG-1978 03:45:23   VAX-11 MACRO X0.3-11               Page  68
1.0             SFGJP40                                                                                                          (1)

                                     095C  1636 ;
                                     095C  1637 ;++
                                     095C  1638 ; ******************************************************
                                     095C  1639 ; *
                                     095C  1640 ; *  TEST CASE NAME:		SFGJP40
                                     095C  1641 ; *
                                     095C  1642 ; *  SYSTEM SERVICE:		GETJPI
                                     095C  1643 ; *
                                     095C  1644 ; *  ARGUMENT UNDER TEST: 	ITMLST_GJP40
                                     095C  1645 ; *
                                     095C  1646 ; *  INPUT CONDITIONS:
                                     095C  1647 ; *	ITEM LIST IN NON-ACCESSIBLE PSECT.
                                     095C  1648 ; *
                                     095C  1649 ; *  EXPECTED RESULTS:
                                     095C  1650 ; *	1) SYSTEM STATUS CODE:	ACCVIO
                                     095C  1651 ; *	2) REGISTERS R2 THROUGH FP UNCHANGED
                                     095C  1652 ; *
                                     095C  1653 ; ******************************************************
                                     095C  1654 ;--
                                     095C  1655 ;
                                     095C  1656 	PRIV	ADD,ALL		; GET BACK ANY PRIVILEGES LOST BY PREV TEST CASE
                 00000194'EF     D4  0985  1657 	CLRL	PIDADR_GJP	; LET GETJPI USE PRCNAM
                                     098B  1658 ;
                                     098B  1659 	NEXT_TEST_CASE	SFGJP41
SATSSF07        - SATS SYSTEM SERVICE TESTS  (FAILING S.C.)      22-AUG-1978 03:45:23   VAX-11 MACRO X0.3-11               Page  69
1.0             SFGJP41                                                                                                          (1)

                                     0997  1660 ;
                                     0997  1661 ;++
                                     0997  1662 ; ******************************************************
                                     0997  1663 ; *
                                     0997  1664 ; *  TEST CASE NAME:		SFGJP41
                                     0997  1665 ; *
                                     0997  1666 ; *  SYSTEM SERVICE:		GETJPI
                                     0997  1667 ; *
                                     0997  1668 ; *  ARGUMENT UNDER TEST: 	ITMLST_GJP41
                                     0997  1669 ; *
                                     0997  1670 ; *  INPUT CONDITIONS:
                                     0997  1671 ; *	ITEM LIST CONTAINS AN INVALID IDENTIFIER.
                                     0997  1672 ; *
                                     0997  1673 ; *  EXPECTED RESULTS:
                                     0997  1674 ; *	1) SYSTEM STATUS CODE:	BADPARAM
                                     0997  1675 ; *	2) REGISTERS R2 THROUGH FP UNCHANGED
                                     0997  1676 ; *
                                     0997  1677 ; ******************************************************
                                     0997  1678 ;--
                                     0997  1679 ;
                 00000194'EF     D4  0997  1680 	CLRL	PIDADR_GJP	; LET GETJPI USE PRCNAM
                                     099D  1681 ;
                                     099D  1682 	TCEND
SATSSF07        - SATS SYSTEM SERVICE TESTS  (FAILING S.C.)      22-AUG-1978 03:45:23   VAX-11 MACRO X0.3-11               Page  70
1.0                                                                                                                              (1)

                                     099E  1683 TS1:
                                     099E  1684 	TESTSERV	CANWAK,ERR,SATS,				-
                                     099E  1685                                           				-
                                     099E  1686 	   <1,PIDADR_CWK,						-
                                     099E  1687 	        	PIDADR_CWK10,ACCVIO,	-  ; SFCWK10
                                     099E  1688 	        	PIDADR_CWK11,ACCVIO,	-  ; SFCWK11
                                     099E  1689 	        	PIDADR_CWK12,ACCVIO,	-  ; SFCWK12
                                     099E  1690 	        	PIDADR_CWK13,NONEXPR,	-  ; SFCWK13
                                     099E  1691 	        	PIDADR_CWK14,NONEXPR,	-  ; SFCWK14
                                     099E  1692                                                   >,			-
                                     099E  1693                                           				-
                                     099E  1694 	   <1,PRCNAM_CWK,						-
                                     099E  1695 	        	PRCNAM_CWK20,ACCVIO,	-  ; SFCWK20
                                     099E  1696 	        	PRCNAM_CWK21,ACCVIO,	-  ; SFCWK21
                                     099E  1697 	        	PRCNAM_CWK22,ACCVIO,	-  ; SFCWK22
                                     099E  1698 	        	PRCNAM_CWK23,ACCVIO,	-  ; SFCWK23
                                     099E  1699 	        	PRCNAM_CWK24,ACCVIO,	-  ; SFCWK24
                                     099E  1700                                                   >,			-
                                     099E  1701
                                     0B32  1702 	TS_CLEANUP		; CLEAN UP & RETURN TO TEST_SERV_EXEC
SATSSF07        - SATS SYSTEM SERVICE TESTS  (FAILING S.C.)      22-AUG-1978 03:45:23   VAX-11 MACRO X0.3-11               Page  71
1.0                                                                                                                              (1)

                                     0B52  1703 TS2:
                                     0B52  1704 	TESTSERV	CANWAK,ERR,SATS,				-
                                     0B52  1705                                           				-
                                     0B52  1706 	   <1,PIDADR_CWK,						-
                                     0B52  1707                                                   >,			-
                                     0B52  1708                                           				-
                                     0B52  1709 	   <1,PRCNAM_CWK,						-
                                     0B52  1710 	        	PRCNAM_CWK25,ACCVIO,	-  ; SFCWK25
                                     0B52  1711 	        	PRCNAM_CWK26,NONEXPR,	-  ; SFCWK26
                                     0B52  1712 	        	PRCNAM_CWK27,IVLOGNAM,	-  ; SFCWK27
                                     0B52  1713 	        	PRCNAM_CWK28,IVLOGNAM,	-  ; SFCWK28
                                     0B52  1714 	        	PRCNAM_CWK29,NOPRIV,	-  ; SFCWK29
                                     0B52  1715                                                   >,			-
                                     0B52  1716
                                     0CBD  1717 	TS_CLEANUP		; CLEAN UP & RETURN TO TEST_SERV_EXEC
SATSSF07        - SATS SYSTEM SERVICE TESTS  (FAILING S.C.)      22-AUG-1978 03:45:23   VAX-11 MACRO X0.3-11               Page  72
1.0                                                                                                                              (1)

                                     0CDD  1718 TS3:
                                     0CDD  1719 	TESTSERV	WAKE,ERR,SATS,				-
                                     0CDD  1720                                           				-
                                     0CDD  1721 	   <1,PIDADR_WAK,						-
                                     0CDD  1722 	        	PIDADR_WAK10,ACCVIO,	-  ; SFWAK10
                                     0CDD  1723 	        	PIDADR_WAK11,ACCVIO,	-  ; SFWAK11
                                     0CDD  1724 	        	PIDADR_WAK12,ACCVIO,	-  ; SFWAK12
                                     0CDD  1725 	        	PIDADR_WAK13,NONEXPR,	-  ; SFWAK13
                                     0CDD  1726 	        	PIDADR_WAK14,NONEXPR,	-  ; SFWAK14
                                     0CDD  1727                                                   >,			-
                                     0CDD  1728                                           				-
                                     0CDD  1729 	   <1,PRCNAM_WAK,						-
                                     0CDD  1730 	        	PRCNAM_WAK20,ACCVIO,	-  ; SFWAK20
                                     0CDD  1731 	        	PRCNAM_WAK21,ACCVIO,	-  ; SFWAK21
                                     0CDD  1732 	        	PRCNAM_WAK22,ACCVIO,	-  ; SFWAK22
                                     0CDD  1733 	        	PRCNAM_WAK23,ACCVIO,	-  ; SFWAK23
                                     0CDD  1734 	        	PRCNAM_WAK24,ACCVIO,	-  ; SFWAK24
                                     0CDD  1735                                                   >,			-
                                     0CDD  1736
                                     0E6F  1737 	TS_CLEANUP		; CLEAN UP & RETURN TO TEST_SERV_EXEC
SATSSF07        - SATS SYSTEM SERVICE TESTS  (FAILING S.C.)      22-AUG-1978 03:45:23   VAX-11 MACRO X0.3-11               Page  73
1.0                                                                                                                              (1)

                                     0E8F  1738 TS4:
                                     0E8F  1739 	TESTSERV	WAKE,ERR,SATS,				-
                                     0E8F  1740                                           				-
                                     0E8F  1741 	   <1,PIDADR_WAK,						-
                                     0E8F  1742                                                   >,			-
                                     0E8F  1743                                           				-
                                     0E8F  1744 	   <1,PRCNAM_WAK,						-
                                     0E8F  1745 	        	PRCNAM_WAK25,ACCVIO,	-  ; SFWAK25
                                     0E8F  1746 	        	PRCNAM_WAK26,NONEXPR,	-  ; SFWAK26
                                     0E8F  1747 	        	PRCNAM_WAK27,IVLOGNAM,	-  ; SFWAK27
                                     0E8F  1748 	        	PRCNAM_WAK28,IVLOGNAM,	-  ; SFWAK28
                                     0E8F  1749 	        	PRCNAM_WAK29,NOPRIV,	-  ; SFWAK29
                                     0E8F  1750                                                   >,			-
                                     0E8F  1751
                                     0FF8  1752 	TS_CLEANUP		; CLEAN UP & RETURN TO TEST_SERV_EXEC
SATSSF07        - SATS SYSTEM SERVICE TESTS  (FAILING S.C.)      22-AUG-1978 03:45:23   VAX-11 MACRO X0.3-11               Page  74
1.0                                                                                                                              (1)

                                     1018  1753 TS5:
                                     1018  1754 	TESTSERV	DELPRC,ERR,SATS,				-
                                     1018  1755                                           				-
                                     1018  1756 	   <1,PIDADR_DPC,						-
                                     1018  1757 	        	PIDADR_DPC10,ACCVIO,	-  ; SFDPC10
                                     1018  1758 	        	PIDADR_DPC11,ACCVIO,	-  ; SFDPC11
                                     1018  1759 	        	PIDADR_DPC12,ACCVIO,	-  ; SFDPC12
                                     1018  1760 	        	PIDADR_DPC13,NONEXPR,	-  ; SFDPC13
                                     1018  1761 	        	PIDADR_DPC14,NONEXPR,	-  ; SFDPC14
                                     1018  1762                                                   >,			-
                                     1018  1763                                           				-
                                     1018  1764 	   <1,PRCNAM_DPC,						-
                                     1018  1765 	        	PRCNAM_DPC20,ACCVIO,	-  ; SFDPC20
                                     1018  1766 	        	PRCNAM_DPC21,ACCVIO,	-  ; SFDPC21
                                     1018  1767 	        	PRCNAM_DPC22,ACCVIO,	-  ; SFDPC22
                                     1018  1768 	        	PRCNAM_DPC23,ACCVIO,	-  ; SFDPC23
                                     1018  1769 	        	PRCNAM_DPC24,ACCVIO,	-  ; SFDPC24
                                     1018  1770                                                   >,			-
                                     1018  1771
                                     11AC  1772 	TS_CLEANUP		; CLEAN UP & RETURN TO TEST_SERV_EXEC
SATSSF07        - SATS SYSTEM SERVICE TESTS  (FAILING S.C.)      22-AUG-1978 03:45:23   VAX-11 MACRO X0.3-11               Page  75
1.0                                                                                                                              (1)

                                     11CC  1773 TS6:
                                     11CC  1774 	TESTSERV	DELPRC,ERR,SATS,				-
                                     11CC  1775                                           				-
                                     11CC  1776 	   <1,PIDADR_DPC,						-
                                     11CC  1777                                                   >,			-
                                     11CC  1778                                           				-
                                     11CC  1779 	   <1,PRCNAM_DPC,						-
                                     11CC  1780 	        	PRCNAM_DPC25,ACCVIO,	-  ; SFDPC25
                                     11CC  1781 	        	PRCNAM_DPC26,NONEXPR,	-  ; SFDPC26
                                     11CC  1782 	        	PRCNAM_DPC27,IVLOGNAM,	-  ; SFDPC27
                                     11CC  1783 	        	PRCNAM_DPC28,IVLOGNAM,	-  ; SFDPC28
                                     11CC  1784 	        	PRCNAM_DPC29,NOPRIV,	-  ; SFDPC29
                                     11CC  1785                                                   >,			-
                                     11CC  1786
                                     1337  1787 	TS_CLEANUP		; CLEAN UP & RETURN TO TEST_SERV_EXEC
SATSSF07        - SATS SYSTEM SERVICE TESTS  (FAILING S.C.)      22-AUG-1978 03:45:23   VAX-11 MACRO X0.3-11               Page  76
1.0                                                                                                                              (1)

                                     1357  1788 TS7:
                                     1357  1789 	TESTSERV	GETJPI,ERR,SATS,				-
                                     1357  1790                                           				-
                                     1357  1791 	   <1,UNKN1_GJP,						-
                                     1357  1792                                                   >,			-
                                     1357  1793                                           				-
                                     1357  1794 	   <1,PIDADR_GJP,						-
                                     1357  1795 	        	PIDADR_GJP20,ACCVIO,	-  ; SFGJP20
                                     1357  1796 	        	PIDADR_GJP21,NONEXPR,	-  ; SFGJP21
                                     1357  1797 	        	PIDADR_GJP22,NONEXPR,	-  ; SFGJP22
                                     1357  1798                                                   >,			-
                                     1357  1799                                           				-
                                     1357  1800 	   <1,PRCNAM_GJP,						-
                                     1357  1801 	        	PRCNAM_GJP30,ACCVIO,	-  ; SFGJP30
                                     1357  1802 	        	PRCNAM_GJP31,NONEXPR,	-  ; SFGJP31
                                     1357  1803 	        	PRCNAM_GJP32,IVLOGNAM,	-  ; SFGJP32
                                     1357  1804 	        	PRCNAM_GJP33,IVLOGNAM,	-  ; SFGJP33
                                     1357  1805 	        	PRCNAM_GJP34,NOPRIV,	-  ; SFGJP34
                                     1357  1806                                                   >,			-
                                     1357  1807                                           				-
                                     1357  1808 	   <1,ITMLST_GJP,						-
                                     1357  1809 	        	ITMLST_GJP40,ACCVIO,	-  ; SFGJP40
                                     1357  1810 	        	ITMLST_GJP41,BADPARAM,	-  ; SFGJP41
                                     1357  1811                                                   >,			-
                                     1357  1812                                           				-
                                     1357  1813 	   <1,UNKN2_GJP,						-
                                     1357  1814                                                   >,			-
                                     1357  1815
                                     16B1  1816 	TS_CLEANUP		; CLEAN UP & RETURN TO TEST_SERV_EXEC
SATSSF07        - SATS SYSTEM SERVICE TESTS  (FAILING S.C.)      22-AUG-1978 03:45:23   VAX-11 MACRO X0.3-11               Page  77
1.0             EXECUTE & CLEANUP                                                                                                (1)

                                     16D1  1817 	.SBTTL	EXECUTE & CLEANUP
                                     16D1  1818 EXECUTE:
                                     16D1  1819 	TEST_SERV_EXEC			; EXECUTE ALL T. CASES IN ALL GROUPS
                                     1717  1820 	.MDELETE (PRIV,TC_GROUP,NEXT_TEST_CASE, -
                           0000000D  1717  1821 		  TCEND,TESTSERV,TS_CLEANUP,TEST_SERV_EXEC)
                                     1717  1822 					; DELETE MACRO DEFINITIONS
                                     1717  1823 CLEANUP:
                                     1717  1824 	PRIV	ADD,ALL			; ENSURE THAT ALL PRIVS ARE PRESENT
                                     1740  1825 	$WAKE_S	PRCNAM=DETNAME		; WAKE DETACHED PROCESS ...
                                     174F  1826 					; ... TO ALLOW HIS EXIT
                                     174F  1827 	$QIOW_S	CHAN=MBXCHAN, FUNC=#IO$_READVBLK, -
                                     174F  1828 		P1=MBXBUFF+8, P2=MBXBUFF
                                     1778  1829 					; ... AND WAIT 4 PROC TO BE DELETED
                                     1778  1830 	$DELMBX_S  MBXCHAN		; DELETE TERMINATION MAILBOX
                          0138   30  1786  1831 	BSBW	MOD_MSG_PRINT		; PRINT TEST MODULE END MSG
            1C            01     F0  1789  1832 	INSV	#1,#STS$V_INHIB_MSG,#1,MOD_MSG_CODE
   00000044'EF            01         178C
                                     1792  1833 					; INHIBIT PRINTING
                                     1792  1834 	$EXIT_S	MOD_MSG_CODE		; EXIT TO OP SYS WITH MSG CODE
SATSSF07        - SATS SYSTEM SERVICE TESTS  (FAILING S.C.)      22-AUG-1978 03:45:23   VAX-11 MACRO X0.3-11               Page  78
1.0             TC_CONTROL                                                                                                       (1)

                                     179F  1836 	.SBTTL	TC_CONTROL
                                     179F  1837 ;++
                                     179F  1838 ; FUNCTIONAL DESCRIPTION:
                                     179F  1839 ;
                                     179F  1840 ;		THE TC_CONTROL SUBROUTINE IS CALLED BY THE TEST_SERV_EXEC
                                     179F  1841 ; MACRO TO EXECUTE A GROUP OF TEST CASES. A GROUP IS DEFINED BY A TC_GROUP
                                     179F  1842 ; MACRO. FOR EACH TC_GROUP MACRO, THERE IS A CORRESPONDING TESTSERV MACRO.
                                     179F  1843 ; TESTSERV CONTAINS CODE TO EXECUTE SYSTEM SERVICES AND CHECK THE RETURNED
                                     179F  1844 ; STATUS CODE VALUES. TESTSERV ARGUMENTS ARE CODED TO SPECIFY ALL THE SYSTEM
                                     179F  1845 ; SERVICE ARGUMENT VALUES AND THE EXPECTED STATUS CODE FOR EACH TEST CASE
                                     179F  1846 ; DEFINED BY A NEXT_TEST_CASE MACRO WITHIN THE GROUP. TC_CONTROL USES A
                                     179F  1847 ; CO-ROUTINE INTERFACE TO ENTER THE CODE OF THE APPROPRIATE TESTSERV MACRO
                                     179F  1848 ; IN VARIOUS PLACES. THE FIRST ENTRY OCCURS ONCE PER GROUP TO ALLOW TESTSERV
                                     179F  1849 ; TO DO SOME INITIALIZATION. THEN TWO ENTRIES ARE MADE FOR EACH TEST CASE IN
                                     179F  1850 ; THE GROUP. THE FIRST ALLOWS TESTSERV TO ISSUE THE SUBJECT SYSTEM SERVICE.
                                     179F  1851 ; THE SECOND ENTRY FOR THE TEST CASE CAUSES TESTSERV TO CHECK THE RETURNED
                                     179F  1852 ; STATUS CODE, PRINTING A FAILURE MESSAGE IF IT IS NOT THE EXPECTED CODE.
                                     179F  1853 ; IF THERE ARE NO MORE TEST CASES IN THE CURRENT GROUP, TESTSERV (NOT TC_CONTROL)
                                     179F  1854 ; RETURNS DIRECTLY TO TEST_SERV_EXEC (RSB ACTUALLY ISSUED IN TS_CLEANUP MACRO)
                                     179F  1855 ; FROM THIS SECOND ENTRY; OTHERWISE, CONTROL RETURNS TO TC_CONTROL WHICH
                                     179F  1856 ; IN TURN ENTERS TESTSERV AGAIN FOR THE NEXT TEST CASE. THE FAILURE OF A
                                     179F  1857 ; TEST CASE DOES NOT CAUSE TERMINATION OF THE TEST MODULE.
                                     179F  1858 ;
                                     179F  1859 ; CALLING SEQUENCE:
                                     179F  1860 ;
                                     179F  1861 ;	BSBW TC_CONTROL (ISSUED WITHIN THE TEST_SERV_EXEC MACRO)
                                     179F  1862 ;			(RSB IS ISSUED WITHIN THE TS_CLEANUP MACRO)
                                     179F  1863 ;
                                     179F  1864 ; INPUT PARAMETERS:
                                     179F  1865 ;
                                     179F  1866 ;	NONE
                                     179F  1867 ;
                                     179F  1868 ; IMPLICIT INPUTS:
                                     179F  1869 ;
                                     179F  1870 ;	ARGUMENTS SPECIFIED ON EACH TESTSERV MACRO MAY BE VIEWED AS
                                     179F  1871 ;	INPUTS, SINCE TC_CONTROL AND TESTSERV ACT AS CO-ROUTINES.
                                     179F  1872 ;
                                     179F  1873 ; OUTPUT PARAMETERS:
                                     179F  1874 ;
                                     179F  1875 ;	SEVERITY CODE FIELD OF MOD_MSG_CODE (BITS 0,1,2) IS SET TO ERROR
                                     179F  1876 ;	IF ANY TEST CASE IN THE CURRENT GROUP FAILS; OTHERWISE IT REMAINS
                                     179F  1877 ;	SET TO SUCCESSFUL.
                                     179F  1878 ;
                                     179F  1879 ; IMPLICIT OUTPUTS:
                                     179F  1880 ;
                                     179F  1881 ;	%UETP-I-TEXT,   ERROR MESSAGES ARE WRITTEN TO SYS$OUTPUT BY
                                     179F  1882 ;			THE TESTSERV MACRO (CO-ROUTINE WITH TC_CONTROL)
                                     179F  1883 ;
                                     179F  1884 ; COMPLETION CODES:
                                     179F  1885 ;
                                     179F  1886 ;	NONE
                                     179F  1887 ;
                                     179F  1888 ; SIDE EFFECTS:
                                     179F  1889 ;
                                     179F  1890 ;	NONE
                                     179F  1891 ;
                                     179F  1892 ;--
SATSSF07        - SATS SYSTEM SERVICE TESTS  (FAILING S.C.)      22-AUG-1978 03:45:23   VAX-11 MACRO X0.3-11               Page  79
1.0             TC_CONTROL                                                                                                       (1)

                                     179F  1893
                                     179F  1894
                                     179F  1895
                                     179F  1896 TC_CONTROL:
                 00000064'EF     DD  179F  1897 	PUSHL	TS_EP			; PUSH TESTSERV ENTRY POINT
                          9E     16  17A5  1898 	JSB	@(SP)+			; ENTER TESTSERV INITIALIZATION
                                     17A7  1899 10$:					; PROCESS NEXT TEST CASE
   00000056'EF            20     90  17A7  1900 	MOVB	#^A/ /,$$TSTN$$+2 	; MAKE SURE T.C. NAME HAS A BLANK
                          002F   30  17AE  1901 	BSBW	REG_SAVE		; SAVE REGISTERS
                 00000004'FF     16  17B1  1902 	JSB	@CURRENT_TC		; JUMP TO CURRENT TEST CASE
                          0037   30  17B7  1903 	BSBW	REG_REST		; RESTORE REGS FOR TESTSERV
                          9E     16  17BA  1904 	JSB	@(SP)+			; LET TESTSERV ISSUE SYSTEM SERVICE
                          0042   30  17BC  1905 	BSBW	REG_COMP		; COMPARE REGS TO SEE IF ...
                                     17BF  1906 					; ... SYSTEM SERVICE CHANGED ANY
                          9E     16  17BF  1907 	JSB	@(SP)+			; LET TESTSERV CHEK S.S. STATUS CODE
   00000056'EF            2A     91  17C1  1908 	CMPB	#^A/*/,$$TSTN$$+2	; HAS TESTSERV INDICATED FAILURE ?
                          DD     12  17C8  1909 	BNEQU	10$			; NO -- PROCESS NEXT TEST CASE
   00000060'EF   00000088'EF     DE  17CA  1910 	MOVAL	TEST_MOD_FAIL,TMD_ADDR	; YES -- INDICATE FAILED IN END MSG
            00            02     F0  17D5  1911 	INSV	#ERROR,#0,#3,MOD_MSG_CODE ; ADJUST STATUS CODE FOR ERROR
   00000044'EF            03         17D8
                          C7     11  17DE  1912 	BRB	10$			; LOOP BAK TO PROCESS NEXT TEST CASE
                                     17E0  1913 ;
                                     17E0  1914 ;   TC_CONTROL RETURNS TO TEST_SERV_EXEC VIA TESTSERV (IN TS_CLEANUP MACRO)
                                     17E0  1915 ;
SATSSF07        - SATS SYSTEM SERVICE TESTS  (FAILING S.C.)      22-AUG-1978 03:45:23   VAX-11 MACRO X0.3-11               Page  80
1.0             SUBROUTINES                                                                                                      (1)

                                     17E0  1917 	.SBTTL	SUBROUTINES
                                     17E0  1918 REG_SAVE:
                                     17E0  1919 ;
                                     17E0  1920 ;  *****************************************************************
                                     17E0  1921 ;  *                                                               *
                                     17E0  1922 ;  *  SAVES R0 THRU SP IN REG_SAVE_AREA                            *
                                     17E0  1923 ;  *                                                               *
                                     17E0  1924 ;  *****************************************************************
                                     17E0  1925 ;
                     7FFF 8F     BB  17E0  1926 	PUSHR	#R0_THRU_SP		; SAVE ALL REGS ON STACK
            6E            3C     28  17E4  1927 	MOVC3	#60,(SP),REG_SAVE_AREA	; SAVE REGS (BEFORE S.S.)
                 00000008'EF         17E7
                     7FFF 8F     BA  17EC  1928 	POPR	#R0_THRU_SP		; CLEAN UP STACK
                                 05  17F0  1929 	RSB				; .... AND RETURN
                                     17F1  1930 ;
                                     17F1  1931 ;
                                     17F1  1932 ;
                                     17F1  1933 ;
                                     17F1  1934 REG_REST:
                                     17F1  1935 ;
                                     17F1  1936 ;
                                     17F1  1937 ;  *****************************************************************
                                     17F1  1938 ;  *                                                               *
                                     17F1  1939 ;  *  RESTORES R0 THRU SP FROM REG_SAVE_AREA                       *
                                     17F1  1940 ;  *                                                               *
                                     17F1  1941 ;  *****************************************************************
                                     17F1  1942 ;
            5E            3C     C2  17F1  1943 	SUBL2	#60,SP			; MOVE SP TO MAKE ROOM FOR REGS
   00000008'EF            3C     28  17F4  1944 	MOVC3	#60,REG_SAVE_AREA,(SP)	; MOVE REGS ONTO STACK FOR POP
                          6E         17FB
                     7FFF 8F     BA  17FC  1945 	POPR	#R0_THRU_SP		; RESTORE ALL REGS FOR TESTSERV
                                 05  1800  1946 	RSB				; ... AND RETURN
SATSSF07        - SATS SYSTEM SERVICE TESTS  (FAILING S.C.)      22-AUG-1978 03:45:23   VAX-11 MACRO X0.3-11               Page  81
1.0             SUBROUTINES                                                                                                      (1)

                                     1801  1948 REG_COMP:
                                     1801  1949 ;
                                     1801  1950 ;  *****************************************************************
                                     1801  1951 ;  *                                                               *
                                     1801  1952 ;  *  1) PUSHES ALL REGS ONTO STACK                                *
                                     1801  1953 ;  *  2) COMPARES REGISTER IMAGES FROM STACK WITH CORRESPONDING    *
                                     1801  1954 ;  *       IMAGES FROM REG_SAVE_AREA FOR ALL REGISTERS SPECIFIED   *
                                     1801  1955 ;  *       IN REG_COMP_MASK.                                       *
                                     1801  1956 ;  *  3) FOR EACH UNEQUAL COMPARE, AN ERROR MESSAGE IS PRINTED     *
                                     1801  1957 ;  *       (USING $FAO AND $OUTPUT SYSTEM SERVICES).               *
                                     1801  1958 ;  *  4) POPS ALL REGS OFF OF STACK                                *
                                     1801  1959 ;  *                                                               *
                                     1801  1960 ;  *****************************************************************
                                     1801  1961 ;
                     7FFF 8F     BB  1801  1962 	PUSHR	#R0_THRU_SP		; SAVE ALL REGISTERS ON STACK
            56   00000008'EF     DE  1805  1963 	MOVAL	REG_SAVE_AREA,R6 	; POINT R6 TO BEG OF ...
                                     180C  1964 					; ... REGS (BEFORE S.S.)
            54            5E     D0  180C  1965 	MOVL	SP,R4			; POINT R4 TO BEG OF
                                     180F  1966 					; ... REGS (AFTER S.S.)
            53         FF 8F     98  180F  1967 	CVTBL	#-1,R3			; INITIALIZE REG_COMP_MASK INDEX
                                     1813  1968 REG_COMP_NEXT:
                          53     D6  1813  1969 	INCL	R3			; POINT TO NEXT BIT IN MASK
            53            0F     91  1815  1970 	CMPB	#15,R3			; END OF THE MASK ?
                          03     1A  1818  1971 	BGTRU	REG_COMP_CONT		; NO -- CONTINUE
                          009F   31  181A  1972 	BRW	REG_COMP_RSB		; YES -- GO TO COMMON RETURN
                                     181D  1973 REG_COMP_CONT:
            84            86     D1  181D  1974 	CMPL	(R6)+,(R4)+		; REG BEFORE = REG AFTER ?
                          F1     13  1820  1975 	BEQLU	REG_COMP_NEXT		; YES -- LOOK FOR NEXT REG
   00000000'EF            53     E1  1822  1976 	BBC	R3,REG_COMP_MASK,REG_COMP_NEXT
                          E9         1829
                                     182A  1977 					; NO -- GET NEXT IF BIT NOT SET
   00000048'EF            53     D0  182A  1978 	MOVL	R3,CLOB_REG_NO		; NO -- GIVE REG NUMBER TO FAO
   0000004C'EF         FC A6     D0  1831  1979 	MOVL	-4(R6),REG_BEFORE_SS 	; GIVE "BEFORE" CONTENTS TO FAO
   00000050'EF         FC A4     D0  1839  1980 	MOVL	-4(R4),REG_AFTER_SS  	; GIVE "AFTER" CONTENTS TO FAO
   00000056'EF            2A     90  1841  1981 	MOVB	#^A/*/,$$TSTN$$+2 	; GIVE FAILURE INDIC'N IN ERROR MSG
                                     1848  1982 ;
                                     1848  1983 	$FAO_S	ERR_MSG_FAOCTL,OUTL,OUTD,$$SNAD$$,  -
                                     1848  1984 		$$ASEQ$$,$$PSEQ$$,CLOB_REG_NO,REG_BEFORE_SS,REG_AFTER_SS
                                     187B  1985 ;
       E940 CF       E90A CF     B0  187B  1986 	MOVW	OUTL,OUTD		; ACTUAL OUTPUT LEN IN STRING DESC'R
                                     1882  1987 	PUTMSG	<#UETP$_TEXT,#1,#OUTD>	; PRINT THE MSG
       E924 CF       0084 8F     B0  1897  1988 	MOVW	#OUTE-OUTB,OUTD		; GET MAX LEN BACK INTO DESCRIPTOR
   00000056'EF            20     90  189E  1989 	MOVB	#^A/ /,$$TSTN$$+2 	; REMOVE FAIL INDIC'N FOR NEXT MSG
   00000060'EF   00000088'EF     DE  18A5  1990 	MOVAL	TEST_MOD_FAIL,TMD_ADDR	; INDICATE FAILED IN END MSG
            00            02     F0  18B0  1991 	INSV	#ERROR,#0,#3,MOD_MSG_CODE ; ADJUST STATUS CODE FOR ERROR
   00000044'EF            03         18B3
                          FF57   31  18B9  1992 	BRW	REG_COMP_NEXT		; GO LOOK FOR NEXT REG TO COMPARE
                                     18BC  1993 REG_COMP_RSB:
                     7FFF 8F     BA  18BC  1994 	POPR	#R0_THRU_SP		; CLEAN UP STACK
                                 05  18C0  1995 	RSB				; RETURN TO CALLER
SATSSF07        - SATS SYSTEM SERVICE TESTS  (FAILING S.C.)      22-AUG-1978 03:45:23   VAX-11 MACRO X0.3-11               Page  82
1.0             SUBROUTINES                                                                                                      (1)

                                     18C1  1997 MOD_MSG_PRINT:
                                     18C1  1998 ;
                                     18C1  1999 ;  *****************************************************************
                                     18C1  2000 ;  *                                                               *
                                     18C1  2001 ;  *  PRINTS THE TEST MODULE BEGUN/SUCCESSFUL/FAILED MESSAGES      *
                                     18C1  2002 ;  *	   (USING THE PUTMSG MACRO).                               *
                                     18C1  2003 ;  *                                                               *
                                     18C1  2004 ;  *****************************************************************
                                     18C1  2005 ;
                                     18C1  2006 	PUTMSG	<MOD_MSG_CODE,#2,TMN_ADDR,TMD_ADDR> ; PRINT MSG
                                 05  18DC  2007 	RSB				; ... AND RETURN TO CALLER
                                     18DD  2008 ;
                                     18DD  2009 CHMRTN:
                                     18DD  2010 ; **********************************************************
                                     18DD  2011 ; *
                                     18DD  2012 ; *	CHANGE MODE ROUTINE. THIS ROUTINE GETS CONTROL WHENEVER
                                     18DD  2013 ; *	A CMKRNL, CMEXEC, OR CMSUP SYSTEM SERVICE IS ISSUED
                                     18DD  2014 ; *	BY THE MODE MACRO ('TO' OPTION).  IT MERELY DOES
                                     18DD  2015 ; *	A JUMP INDIRECT ON A FIELD SET UP BY MODE. IT HAS
                                     18DD  2016 ; *	THE EFFECT OF RETURNING TO THE END OF THE MODE
                                     18DD  2017 ; *	MACRO EXPANSION.
                                     18DD  2018 ; *
                                     18DD  2019 ; *************************************************************
                                     18DD  2020 ;
                               0000  18DD  2021 	.WORD	0			; ENTRY MASK
                 00000079'FF     17  18DF  2022 	JMP	@CHM_CONT		; RETURN TO MODE MACRO IN NEW MODE
                                     18E5  2023 ;
                                     18E5  2024 ; *	RET INSTR WILL BE ISSUED IN EXPANSION OF 'MODE FROM, ....' MACRO
                                     18E5  2025 ;
                                     18E5  2026 	.END	SATSSF07
SATSSF07        - SATS SYSTEM SERVICE TESTS  (FAILING S.C.)      22-AUG-1978 03:45:23   VAX-11 MACRO X0.3-11               Page  83
SYMBOL TABLE                                                                                                                     (1)

$$$CHARS       = 00000048            JPI$C_CTLTYPE  = 00000002            JPI$_USERNAME  = 00000202
$$$FIRSTTC$$$  = 00000000            JPI$C_LISTEND  = 00000000            JPI$_VIRTPEAK  = 00000200
$$$STRINGS     = 00000000            JPI$C_PCBTYPE  = 00000003            JPI$_VOLUMES   = 00000205
$$ACT$$          000001A1 R     07   JPI$C_PHDTYPE  = 00000004            JPI$_WSAUTH    = 00000401
$$ARG$$          000001A9 R     07   JPI$_ACCOUNT   = 00000203            JPI$_WSPEAK    = 00000201
$$ASEQ$$         00000199 R     07   JPI$_APTCNT    = 0000030A            JPI$_WSQUOTA   = 00000402
$$CALL$$         0000018D R     07   JPI$_ASTACT    = 00000300            JPI$_WSSIZE    = 00000411
$$DISP$$         00000294 R     07   JPI$_ASTCNT    = 0000030E            JPIPID           000001A0 R     04
$$ERR$$          0000024E R     07   JPI$_ASTEN     = 00000301            LIB$SIGNAL       ********   X   07
$$EXP$$          000001A5 R     07   JPI$_ASTLM     = 00000409            MBXBUFF          000000F0 R     04
$$INIT$$         00000191 R     07   JPI$_BIOCNT    = 0000030F            MBXCHAN          00000095 R     04
$$MAXP$$       = 00000005            JPI$_BIOLM     = 00000310            MBXCHANINFO      00000099 R     04
$$PSEQ$$         0000019D R     07   JPI$_BUFIO     = 0000040C            MBXUNIT          000000EC R     04
$$SNAD$$         00000195 R     07   JPI$_BYTCNT    = 00000311            MEXIT          = 00000000
$$T1           = 00000004            JPI$_BYTLM     = 0000031A            MOD_MSG_CODE     00000044 R     04
$$T2           = 00000009            JPI$_CPULIM    = 0000040D            MOD_MSG_PRINT    000018C1 R     07
$$TSTN$$         00000054 R     04   JPI$_CPUTIM    = 00000407            NARGS          = 0000000E
BIT...         = 00000103            JPI$_CURPRIV   = 00000400            NOACCESS         00000000 R     06
CHMRTN           000018DD R     07   JPI$_DFPFC     = 00000406            ONES             000000B5 R     03
CHM_CONT         00000079 R     04   JPI$_DFWSCNT   = 00000403            OUTB             000001CA R     07
CLEANUP          00001717 R     07   JPI$_DIOCNT    = 00000312            OUTD             000001C2 R     07
CLOB_REG_NO      00000048 R     04   JPI$_DIOLM     = 00000313            OUTE             0000024E R     07
CTL$GL_PHD       ********   X   07   JPI$_DIRIO     = 0000040B            OUTL             00000189 R     07
CURRENT_TC       00000004 R     04   JPI$_EFCS      = 00000317            PCB$L_UIC      = 00000020
DETFLAG        = 00000040            JPI$_EFCU      = 00000318            PHD$Q_PRIVMSK  = 00000000
DETIMAGE         000000BD R     03   JPI$_EFWM      = 00000316            PIDADR_CWK       00000170 R     04
DETNAME          000000DC R     03   JPI$_EXCVEC    = 00000100            PIDADR_CWK10   = 00000001
DETUIC           00000091 R     04   JPI$_FILCNT    = 00000314            PIDADR_CWK11     00000008 R     06
DIB$B_DEVCLASS   00000004            JPI$_FILLM     = 0000040F            PIDADR_CWK12   = 000001FF R     05
DIB$B_DEVTYPE    00000005            JPI$_FINALEXC  = 00000101            PIDADR_CWK13     00000174 R     04
DIB$C_LENGTH     00000024            JPI$_FREP0VA   = 00000404            PIDADR_CWK14     00000178 R     04
DIB$K_LENGTH     00000024            JPI$_FREP1VA   = 00000405            PIDADR_DPC       00000188 R     04
DIB$L_DEVCHAR    00000000            JPI$_GPGCNT    = 0000030C            PIDADR_DPC10   = 00000001
DIB$L_DEVDEPEND  00000008            JPI$_GRP       = 00000308            PIDADR_DPC11     0000002E R     06
DIB$L_OPCNT      0000001C            JPI$_LASTADR   = 00000102            PIDADR_DPC12   = 000001FF R     05
DIB$L_OWNUIC     00000014            JPI$_LASTCTL   = 00000207            PIDADR_DPC13     0000018C R     04
DIB$L_PID        00000010            JPI$_LASTPCB   = 0000031D            PIDADR_DPC14     00000190 R     04
DIB$W_DEVBUFSIZ  00000006            JPI$_LASTPHD   = 00000412            PIDADR_GJP       00000194 R     04
DIB$W_DEVNAMOFF  0000000E            JPI$_LOGINTIM  = 00000206            PIDADR_GJP20   = 00000001
DIB$W_ERRCNT     0000001A            JPI$_MEM       = 00000307            PIDADR_GJP21     00000198 R     04
DIB$W_RECSIZ     00000022            JPI$_OWNER     = 00000303            PIDADR_GJP22     0000019C R     04
DIB$W_UNIT       0000000C            JPI$_PAGEFLTS  = 0000040A            PIDADR_WAK       0000017C R     04
DIB$W_VOLNAMOFF  00000020            JPI$_PGFLQUOTA = 0000040E            PIDADR_WAK10   = 00000001
DIB$W_VPROT      00000018            JPI$_PID       = 00000319            PIDADR_WAK11     0000001B R     06
EMPTY            00000000 R     05   JPI$_PPGCNT    = 0000030D            PIDADR_WAK12   = 000001FF R     05
ERROR          = 00000002            JPI$_PRCCNT    = 0000031B            PIDADR_WAK13     00000180 R     04
ERR_MSG_FAOCTL   00000002 R     03   JPI$_PRCLM     = 00000408            PIDADR_WAK14     00000184 R     04
EXECUTE          000016D1 R     07   JPI$_PRCNAM    = 0000031C            PRCNAM_CWK       000000F0 R     03
GBL...         = 00000000            JPI$_PRI       = 00000302            PRCNAM_CWK20     0000000C R     06
GRP_TOTAL      = 00000007            JPI$_PRIB      = 00000309            PRCNAM_CWK21   = 000001FF R     05
INADR            000000A9 R     03   JPI$_PROCPRIV  = 00000204            PRCNAM_CWK22     000001FC R     05
INFO           = 00000003            JPI$_STATE     = 00000306            PRCNAM_CWK23     000001FB R     05
IO$_READVBLK     ********   X   07   JPI$_STS       = 00000305            PRCNAM_CWK24     00000100 R     03
ITMLST_GJP       000001F8 R     03   JPI$_TMBU      = 0000030B            PRCNAM_CWK25     000001F3 R     05
ITMLST_GJP40     00000050 R     06   JPI$_TQCNT     = 00000315            PRCNAM_CWK26     00000108 R     03
ITMLST_GJP41     00000208 R     03   JPI$_TQLM      = 00000410            PRCNAM_CWK27     00000117 R     03
JPI$C_ADRTYPE  = 00000001            JPI$_UIC       = 00000304            PRCNAM_CWK28     0000011B R     03
SATSSF07        - SATS SYSTEM SERVICE TESTS  (FAILING S.C.)      22-AUG-1978 03:45:23   VAX-11 MACRO X0.3-11               Page  84
SYMBOL TABLE                                                                                                                     (1)

PRCNAM_CWK29   = 000000DC R     03   PRV$V_WORLD    = 00000010            SHR$_ENDEDD    = 00001080
PRCNAM_DPC       00000176 R     03   PRVPRT           00000070 R     04   SHR$_ENDEDT    = 00001088
PRCNAM_DPC20     00000032 R     06   R0_THRU_SP     = 00007FFF            SHR$_FILNOTDEL = 000011F0
PRCNAM_DPC21   = 000001FF R     05   REGS             0000007D R     04   SHR$_FILNOTPUR = 00001230
PRCNAM_DPC22     000001FC R     05   REG_AFTER_SS     00000050 R     04   SHR$_FILPURGED = 00001250
PRCNAM_DPC23     000001FB R     05   REG_BEFORE_SS    0000004C R     04   SHR$_HASHCONCAT= 000011D8
PRCNAM_DPC24     00000186 R     03   REG_COMP         00001801 R     07   SHR$_HIGHVER   = 00001148
PRCNAM_DPC25     000001F3 R     05   REG_COMP_CONT    0000181D R     07   SHR$_IDXCONCAT = 00001138
PRCNAM_DPC26     0000018E R     03   REG_COMP_MASK    00000000 R     03   SHR$_INCOMPAT  = 000011E0
PRCNAM_DPC27     0000019D R     03   REG_COMP_NEXT    00001813 R     07   SHR$_NEWFILES  = 00001090
PRCNAM_DPC28     000001A1 R     03   REG_COMP_RSB     000018BC R     07   SHR$_NOFILPURG = 00001228
PRCNAM_DPC29   = 000000DC R     03   REG_REST         000017F1 R     07   SHR$_NOJOBID   = 000011A0
PRCNAM_GJP       000001B9 R     03   REG_SAVE         000017E0 R     07   SHR$_NOJOBNAME = 000011A8
PRCNAM_GJP30     00000041 R     06   REG_SAVE_AREA    00000008 R     04   SHR$_NOQUEUE   = 00001198
PRCNAM_GJP31     000001C9 R     03   RETADR           00000068 R     04   SHR$_NOTCMPLT  = 000011C0
PRCNAM_GJP32     000001D8 R     03   SATSSF07         00000000 R     07   SHR$_NOTCOPIED = 000011B8
PRCNAM_GJP33     000001DC R     03   SCH$GL_CURPCB    ********   X   07   SHR$_NOVALUE   = 00001100
PRCNAM_GJP34   = 000000DC R     03   SEVERE         = 00000004            SHR$_NOWILD    = 00001128
PRCNAM_WAK       00000133 R     03   SHR$K_SHRDEF   = 00000001            SHR$_OPENIN    = 00001098
PRCNAM_WAK20     0000001F R     06   SHR$_ABEND     = 000010D8            SHR$_OPENOUT   = 000010A0
PRCNAM_WAK21   = 000001FF R     05   SHR$_ABENDD    = 000010E0            SHR$_OVERLAY   = 000010A8
PRCNAM_WAK22     000001FC R     05   SHR$_ABENDT    = 000010E8            SHR$_PARSEFAIL = 00001248
PRCNAM_WAK23     000001FB R     05   SHR$_APPENDEDB = 00001000            SHR$_PURGEVER  = 00001210
PRCNAM_WAK24     00000143 R     03   SHR$_APPENDEDR = 00001008            SHR$_READERR   = 000010B0
PRCNAM_WAK25     000001F3 R     05   SHR$_ATPC      = 00001158            SHR$_RELCONCAT = 00001140
PRCNAM_WAK26     0000014B R     03   SHR$_BADBYTE   = 00001010            SHR$_REPLACED  = 000010B8
PRCNAM_WAK27     0000015A R     03   SHR$_BADCOPIES = 00001160            SHR$_RMSERROR  = 000011C8
PRCNAM_WAK28     0000015E R     03   SHR$_BADDELIM  = 00001118            SHR$_SEARCHFAIL= 00001238
PRCNAM_WAK29   = 000000DC R     03   SHR$_BADFIELD  = 00001018            SHR$_SYNTAX    = 000010F8
PRIVMASK         00000071 R     04   SHR$_BADFORM   = 00001168            SHR$_SYSERROR  = 000011B0
PROT             000000B1 R     03   SHR$_BADJOBID  = 00001170            SHR$_SYSERRORPC= 000010F0
PRT$C_NA         ********   X   03   SHR$_BADJOBNAME= 00001178            SHR$_TEXT      = 00001130
PRV$V_ALLSPOOL = 00000004            SHR$_BADKEY    = 00001108            SHR$_UNXPCTSTS = 000011D0
PRV$V_BUGCHK   = 00000017            SHR$_BADLOGIC  = 00001120            SHR$_VALERR    = 000011E8
PRV$V_CMEXEC   = 00000001            SHR$_BADLOGICPC= 00001150            SHR$_WILDCONCAT= 000010C0
PRV$V_CMKRNL   = 00000000            SHR$_BADLONG   = 00001020            SHR$_WILDOUTVER= 000010C8
PRV$V_DETACH   = 00000005            SHR$_BADPRTY   = 00001180            SHR$_WRITEERR  = 000010D0
PRV$V_DIAGNOSE = 00000006            SHR$_BADQNAME  = 00001188            SS$_ACCVIO       ********   X   07
PRV$V_EXQUOTA  = 00000013            SHR$_BADTIME   = 00001190            SS$_BADPARAM     ********   X   07
PRV$V_GROUP    = 00000008            SHR$_BADVALUE  = 00001110            SS$_IVLOGNAM     ********   X   07
PRV$V_GRPNAM   = 00000003            SHR$_BADWORD   = 00001028            SS$_NONEXPR      ********   X   07
PRV$V_LOG_IO   = 00000007            SHR$_BEGIN     = 00001030            SS$_NOPRIV       ********   X   07
PRV$V_MOUNT    = 00000011            SHR$_BEGIND    = 00001038            STS$V_INHIB_MSG= 0000001C
PRV$V_NETMBX   = 00000014            SHR$_BEGINT    = 00001040            SUCCESS        = 00000001
PRV$V_NOACNT   = 00000009            SHR$_CLICB     = 00001048            SYS$CANWAK       ********   X   07
PRV$V_OPER     = 00000012            SHR$_CLOSEDEL  = 00001218            SYS$CMKRNL       ********   X   07
PRV$V_PHY_IO   = 00000016            SHR$_CLOSEIN   = 00001050            SYS$CREMBX       ********   X   07
PRV$V_PRMCEB   = 0000000A            SHR$_CLOSEOUT  = 00001058            SYS$CREPRC       ********   X   07
PRV$V_PRMGBL   = 00000018            SHR$_CONFDEL   = 000011F8            SYS$DELMBX       ********   X   07
PRV$V_PRMMBX   = 0000000B            SHR$_COPIEDB   = 00001060            SYS$DELPRC       ********   X   07
PRV$V_PSWAPM   = 0000000C            SHR$_COPIEDR   = 00001068            SYS$EXIT         ********   X   07
PRV$V_SETPRI   = 0000000D            SHR$_CREATED   = 00001070            SYS$FAO          ********   X   07
PRV$V_SETPRV   = 0000000E            SHR$_DELETED   = 00001200            SYS$FAOL         ********   X   07
PRV$V_SYSGBL   = 00000019            SHR$_DELINTERR = 00001240            SYS$GETCHN       ********   X   07
PRV$V_SYSNAM   = 00000002            SHR$_DELVER    = 00001208            SYS$GETJPI       ********   X   07
PRV$V_TMPMBX   = 0000000F            SHR$_DIRTOOBUS = 00001220            SYS$HIBER        ********   X   07
PRV$V_VOLPRO   = 00000015            SHR$_ENDED     = 00001078            SYS$QIOW         ********   X   07
SATSSF07        - SATS SYSTEM SERVICE TESTS  (FAILING S.C.)      22-AUG-1978 03:45:23   VAX-11 MACRO X0.3-11               Page  85
SYMBOL TABLE                                                                                                                     (1)

SYS$SETPRN       ********   X   07
SYS$SETPRT       ********   X   07
SYS$WAKE         ********   X   07
TC1              000002EF R     07
TC2              000003FF R     07
TC3              000004C3 R     07
TC4              000005D3 R     07
TC5              00000697 R     07
TC6              0000077E R     07
TC7              00000842 R     07
TCG_NO         = 00000007
TC_CONTROL       0000179F R     07
TEST_MOD_BEG     00000077 R     03
TEST_MOD_FAIL    00000088 R     03
TEST_MOD_NAME    0000006E R     03
TEST_MOD_NAME_D  0000008F R     03
TEST_MOD_SUCC    0000007D R     03
TMD_ADDR         00000060 R     04
TMN_ADDR         0000005C R     04
TPID             00000000 R     04
TS1              0000099E R     07
TS2              00000B52 R     07
TS3              00000CDD R     07
TS4              00000E8F R     07
TS5              00001018 R     07
TS6              000011CC R     07
TS7              00001357 R     07
TS_EP            00000064 R     04
TTNAME           0000009F R     03
UETP$_ABORTC   = 0074832B
UETP$_CONF     = 007480D1
UETP$_DATAER   = 00748010
UETP$_DDB      = 007480E1
UETP$_DENOSU   = 00748333
UETP$_DESTP    = 007481A2
UETP$_DEUNUS   = 0074819A
UETP$_ERBOX    = 00748008
UETP$_SATSMS   = 007480D9
UETP$_TEXT     = 00741133
UETP$_UCB      = 007480E9
UETP$_USER     = 0074833B
UNKN1_GJP        000001F4 R     03
UNKN2          = 00000000
WARNING        = 00000000


PROGRAM SECTION SYNOPSIS

.  ABS  .        00000000      00     NOPIC   USR   CON   ABS   LCL NOSHR NOEXE NORD  NOWRT BYTE
. BLANK .        00000000      01     NOPIC   USR   CON   REL   LCL NOSHR   EXE   RD    WRT BYTE
$ABS$            00000024      02     NOPIC   USR   CON   ABS   LCL NOSHR   EXE   RD    WRT BYTE
RODATA           00000218      03     NOPIC   USR   CON   REL   LCL NOSHR NOEXE   RD  NOWRT LONG
RWDATA           000001A4      04     NOPIC   USR   CON   REL   LCL NOSHR NOEXE   RD    WRT BYTE
SATS_ACCVIO_1    00000200      05     NOPIC   USR   CON   REL   LCL NOSHR NOEXE   RD    WRT PAGE
SATS_ACCVIO_2    00000200      06     NOPIC   USR   CON   REL   LCL NOSHR NOEXE   RD    WRT PAGE
SATSSF07         000018E5      07     NOPIC   USR   CON   REL   LCL NOSHR   EXE   RD    WRT LONG

SATSSF07        - SATS SYSTEM SERVICE TESTS  (FAILING S.C.)      22-AUG-1978 03:45:23   VAX-11 MACRO X0.3-11               Page  86
PROGRAM SECTION SYNOPSIS                                                                                                         (1)


THERE WERE NO ERRORS OR WARNINGS.
1364. BYTES LEFT IN FREE MEMORY POOL.
3062. BYTES OF RECLAIMED MEMORY.
OBJ$:SATSSF07,LIS$:SATSSF07/-SP=EXECML$/ML,LIB$:SYSTST.MLB/ML,SRC$:SATSSF07
88 MLB DIR RDS - 1129 GETS TO DEFINE 53 MACROS. 106 INTER. FILE WRITES.
