SATSSF10        - SATS SYSTEM SERVICE TESTS  (FAILING S.C.)      22-AUG-1978 03:49:18   VAX-11 MACRO X0.3-11               Page   0
TABLE OF CONTENTS

   (1)      46  DECLARATIONS
   (1)     208  SATSSF10
   (1)     295  SFSNA10
   (1)     317  SFSNA11
   (1)     339  SFSNA12
   (1)     361  SFSNA20
   (1)     385  SFSNA21
   (1)     408  SFSNA22
   (1)     434  SFSNA23
   (1)     460  SFSNA24
   (1)     482
   (1)     486  SFSNO10
   (1)     508  SFSNO11
   (1)     530  SFSNO12
   (1)     552  SFSNO20
   (1)     576  SFSNO21
   (1)     599  SFSNO22
   (1)     625  SFSNO23
   (1)     651  SFSNO24
   (1)     673
   (1)     677  SFSNS10
   (1)     699  SFSNS11
   (1)     721  SFSNS12
   (1)     743  SFSNS20
   (1)     767  SFSNS21
   (1)     790  SFSNS22
   (1)     816  SFSNS23
   (1)     842  SFSNS24
   (1)     864
   (1)     919  EXECUTE & CLEANUP
   (1)     931  TC_CONTROL
   (1)    1012  SUBROUTINES
SATSSF10        - SATS SYSTEM SERVICE TESTS  (FAILING S.C.)      22-AUG-1978 03:49:18   VAX-11 MACRO X0.3-11               Page   1
1.0                                                                                                                              (1)

                                     0000     1 	.TITLE	SATSSF10 - SATS SYSTEM SERVICE TESTS  (FAILING S.C.)
                                     0000     2 	.IDENT	/1.0/
                                     0000     3
                                     0000     4 ;
                                     0000     5 ;			  COPYRIGHT (c) 1977,1978 BY
                                     0000     6 ;	      DIGITAL EQUIPMENT CORPORATION, MAYNARD, MASS.
                                     0000     7 ;
                                     0000     8 ; THIS SOFTWARE IS FURNISHED UNDER A LICENSE AND MAY BE USED AND  COPIED
                                     0000     9 ; ONLY  IN  ACCORDANCE  WITH  THE  TERMS  OF  SUCH  LICENSE AND WITH THE
                                     0000    10 ; INCLUSION OF THE ABOVE COPYRIGHT NOTICE.  THIS SOFTWARE OR  ANY  OTHER
                                     0000    11 ; COPIES  THEREOF MAY NOT BE PROVIDED OR OTHERWISE MADE AVAILABLE TO ANY
                                     0000    12 ; OTHER PERSON.  NO TITLE TO AND OWNERSHIP OF  THE  SOFTWARE  IS  HEREBY
                                     0000    13 ; TRANSFERRED.
                                     0000    14 ;
                                     0000    15 ; THE INFORMATION IN THIS SOFTWARE IS SUBJECT TO CHANGE  WITHOUT  NOTICE
                                     0000    16 ; AND  SHOULD  NOT  BE  CONSTRUED  AS  A COMMITMENT BY DIGITAL EQUIPMENT
                                     0000    17 ; CORPORATION.
                                     0000    18 ;
                                     0000    19 ; DIGITAL ASSUMES NO RESPONSIBILITY FOR THE USE OR  RELIABILITY  OF  ITS
                                     0000    20 ; SOFTWARE ON EQUIPMENT WHICH IS NOT SUPPLIED BY DIGITAL.
                                     0000    21 ;
                                     0000    22
                                     0000    23 ;++
                                     0000    24 ; FACILITY:	SATS SYSTEM SERVICE TESTS
                                     0000    25 ;
                                     0000    26 ; ABSTRACT:	THE SATSSF10 MODULE TESTS THE EXECUTION OF CERTAIN
                                     0000    27 ; VMS SYSTEM SERVICES, INVOKED IN SUCH A WAY AS TO EXPECT FAILING
                                     0000    28 ; STATUS CODES. THE SYSTEM SERVICES TESTED AND THE STATUS CODES
                                     0000    29 ; EXPECTED ARE SUMMARIZED AS ARGUMENTS TO THE TESTSERV MACROS
                                     0000    30 ; WHICH APPEAR NEAR THE END OF THIS LISTING. SUCCESSFUL STATUS
                                     0000    31 ; CODES ARE TESTED IN OTHER MODULES.
                                     0000    32 ;
                                     0000    33 ;
                                     0000    34 ; ENVIRONMENT:	USER MODE IMAGE; NEEDS CMKRNL PRIVILEGE,
                                     0000    35 ;		DYNAMICALLY ACQUIRES OTHER PRIVILEGES, AS NEEDED.
                                     0000    36 ;
                                     0000    37 ; AUTHOR: THOMAS L. CAFARELLA,		CREATION DATE: MMM, 1978
                                     0000    38 ;	  PAUL D. FAY (DISPSERV & TESTSERV MACROS)
                                     0000    39 ;
                                     0000    40 ; MODIFIED BY:
                                     0000    41 ;
                                     0000    42 ;	, : VERSION
                                     0000    43 ; 01	-
                                     0000    44 ;--
SATSSF10        - SATS SYSTEM SERVICE TESTS  (FAILING S.C.)      22-AUG-1978 03:49:18   VAX-11 MACRO X0.3-11               Page   2
1.0             DECLARATIONS                                                                                                     (1)

                                     0000    46 	.SBTTL	DECLARATIONS
                                     0000    47 ;
                                     0000    48 ; INCLUDE FILES:
                                     0000    49 ;
                                     0000    50 	$PHDDEF				; PROCESS HEADER OFFSET SYMBOLS
                                     0000    51 	$PCBDEF				; PROCESS CONTROL BLOCK OFFSET SYMBS
                                     0000    52 	$STSDEF				; STATUS MESSAGE SYMBOLS
                           00000003  0000    53 	.MDELETE ($PHDDEF,$PCBDEF,$STSDEF) ; GET RID OF MACRO DEFINITIONS
                                     0000    54 	$PRVDEF				; SYMBOL DEFS FOR PRIVILEGES
                                     0000    55 	$UETPDEF			; UETP MSG CODE DEFINITIONS
                                     0000    56 	$SHR_MESSAGES UETP,116,<<TEXT,INFO>>
                                     0000    57 					; DEFINE UETP$_TEXT
                           00000004  0000    58 	.MDELETE ($PRVDEF,$UETPDEF,$SHR_MESSAGES,$SHRDEF)
                                     0000    59 					; GET RID OF MACRO DEFINITIONS
                                     0000    60 	$OPCDEF				; OPERATOR MSG TYPES ($SNDOPR)
                                     0000    61 	$ACCDEF				; ACCOUNTING MSG TYPES ($SNDACC)
                                     0000    62 ;
                                     0000    63 ; MACROS:
                                     0000    64 ;
                                     0000    65 ;
                                     0000    66 ; EQUATED SYMBOLS:
                                     0000    67 ;
                           00000000  0000    68 WARNING		= 0			; WARNING SEVERITY VALUE FOR MSGS
                           00000001  0000    69 SUCCESS		= 1			; SUCCESS SEVERITY VALUE FOR MSGS
                           00000002  0000    70 ERROR		= 2			; ERROR SEVERITY VALUE FOR MSGS
                           00000003  0000    71 INFO		= 3			; INFORMATIONAL SEV VALUE FOR MSGS
                           00000004  0000    72 SEVERE		= 4			; SEVERE (FATAL) SEV VALUE FOR MSGS
                           00000000  0000    73 TCG_NO		=  0			; INITIALIZE TEST CASE GROUP NUMBER
                           00000000  0000    74 GRP_TOTAL	=  0			; INITIALIZE TEST CASE GROUP TOTAL
                           00007FFF  0000    75 R0_THRU_SP	= ^M<R0,R1,R2,R3,R4,R5,R6,R7,R8,R9,R10,R11,AP,FP,SP>
                                     0000    76 ;
                                     0000    77 ; OWN STORAGE:
                                     0000    78 ;
SATSSF10        - SATS SYSTEM SERVICE TESTS  (FAILING S.C.)      22-AUG-1978 03:49:18   VAX-11 MACRO X0.3-11               Page   3
1.0             DECLARATIONS                                                                                                     (1)

                                 00000000    80 	.PSECT	RODATA,RD,NOWRT,NOEXE,LONG
                                     0000    81 REG_COMP_MASK:	.WORD	^M<R2,R3,R4,R5,R6,R7,R8,R9,R10,R11,AP,FP> ! ^X8000 -
                               BFFC  0000    82 					; REG COMPARE MASK (HIGH-ORDER ...
                                     0002    83 					; ... BIT MUST BE ON
                                     0002    84 ERR_MSG_FAOCTL:	STRING	I,<!/!AC!1ZB!1ZB: REGISTER !2UW CONTENTS ALTERED>, -
                                     0002    85 		<;  BEFORE SERVICE CALL: !8XL   AFTER SERVICE CALL: !8XL>
                                     006E    86 TEST_MOD_NAME:	STRING	C,<SATSSF10>	; TEST MODULE NAME
                                     0077    87 TEST_MOD_BEG:	STRING	C,<begun>	; DISPOSITION FIELD OF TEST MOD MSG
                                     007D    88 TEST_MOD_SUCC:	STRING	C,<successful>	; DISPOSITION FIELD OF TEST MOD MSG
                                     0088    89 TEST_MOD_FAIL:	STRING	C,<failed>	; DISPOSITION FIELD OF TEST MOD MSG
                                     008F    90 TEST_MOD_NAME_D: STRING	I,<SATSSF10>	; TEST MODULE NAME DESCRIPTOR
                                     009F    91 TTNAME:     	STRING  I,<TT>		; TERMINAL LOGICAL NAME
                  00000000'00000000' 00A9    92 INADR:		.LONG	NOACCESS,NOACCESS ; PAGE ADDRESS OF NOACCESS PSECT
                           00000000' 00B1    93 PROT:		.LONG	PRT$C_NA	; PROTECTION CODE FOR NOACCESS PSECT
                  FFFFFFFF FFFFFFFF  00B5    94 ONES:		.LONG	-1,-1		; A QUADWORD OF 1-BITS
                           00000002  00BD    95 MSGBUF_SNA:	.LONG	2		; MSGBUF ARGUMENT FOR SNDACC
                           000000C5' 00C1    96 		.ADDRESS .+4
                               0003' 00C5    97 		.WORD	ACC$K_ENABACC
                           00000001  00C7    98 MSGBUF_SNO:	.LONG	1		; MSGBUF ARGUMENT FOR SNDOPR
                           000000CF' 00CB    99 		.ADDRESS .+4
                                 05' 00CF   100 		.BYTE	OPC$_RQ_CANCEL
                           00000004  00D0   101 MSGBUF_SNS:	.LONG	4		; MSGBUF ARGUMENT FOR SNDSMB
                           000000D8' 00D4   102 		.ADDRESS .+4
                           00000000  00D8   103 		.LONG	0
                                     00DC   104 MSGBUF_SNA11:				; MSGBUF ARGUMENT FOR SNDACC
                                     00DC   105 MSGBUF_SNO11:				; MSGBUF ARGUMENT FOR SNDOPR
                                     00DC   106 MSGBUF_SNS11:				; MSGBUF ARGUMENT FOR SNDSMB
                           00000000  00DC   107 		.LONG	0
                           000000E0' 00E0   108 		.ADDRESS .
                           000000FF  00E4   109 MSGBUF_SNA12:	.LONG	255		; MSGBUF ARGUMENT FOR SNDACC
                           000000E8' 00E8   110 		.ADDRESS .
                           FFFFFFFF  00EC   111 MSGBUF_SNO12:	.LONG	-1		; MSGBUF ARGUMENT FOR SNDOPR
                           000000F0' 00F0   112 		.ADDRESS .
                           000000C9  00F4   113 MSGBUF_SNS12:	.LONG	201		; MSGBUF ARGUMENT FOR SNDSMB
                           000000F8' 00F8   114 		.ADDRESS .
                           00000000  00FC   115 CHAN_SNA:	.LONG	0		; CHAN ARG FOR SNDACC (MISSING ARG)
                           00000000  0100   116 CHAN_SNO:	.LONG	0		; CHAN ARG FOR SNDOPR (MISSING ARG)
                           00000000  0104   117 CHAN_SNS:	.LONG	0		; CHAN ARG FOR SNDSMB (MISSING ARG)
                                     0108   118 CHAN_SNA21:				; CHAN ARGUMENT FOR SNDACC
                                     0108   119 CHAN_SNO21:				; CHAN ARGUMENT FOR SNDOPR
                                     0108   120 CHAN_SNS21:				; CHAN ARGUMENT FOR SNDSMB
                           C4653600  0108   121 		.LONG	-1000000000
                                     010C   122 CHAN_SNA23:				; CHAN ARGUMENT FOR SNDACC
                                     010C   123 CHAN_SNO23:				; CHAN ARGUMENT FOR SNDOPR
                                     010C   124 CHAN_SNS23:				; CHAN ARGUMENT FOR SNDSMB
                           FFFFFFFF  010C   125 		.LONG	-1
                                     0110   126 CHAN_SNA24:				; CHAN ARGUMENT FOR SNDACC
                                     0110   127 CHAN_SNO24:				; CHAN ARGUMENT FOR SNDOPR
                                     0110   128 CHAN_SNS24:				; CHAN ARGUMENT FOR SNDSMB
                           3B9ACA00  0110   129 		.LONG	1000000000
                                     0114   130 MY_DISK:	STRING	I,<SYS$DISK>	; LOGICAL NAME FOR USER DISK
SATSSF10        - SATS SYSTEM SERVICE TESTS  (FAILING S.C.)      22-AUG-1978 03:49:18   VAX-11 MACRO X0.3-11               Page   4
1.0             DECLARATIONS                                                                                                     (1)

                                 00000000   132 	.PSECT	RWDATA,RD,WRT,NOEXE
                           00000004  0000   133 TPID:		.BLKL	1		; PROCESS ID FOR THIS PROCESS
                           00000008  0004   134 CURRENT_TC:	.BLKL	1 		; PTR TO CURRENT TEST CASE
                           00000044  0008   135 REG_SAVE_AREA:	.BLKL	15		; SAVE AREA FOR ALL REGS (SANS PC)
                           007480D9  0044   136 MOD_MSG_CODE:	.LONG	UETP$_SATSMS	; TEST MODULE MSG CODE FOR PUTMSG
                           0000004C  0048   137 CLOB_REG_NO:	.BLKL	1		; CLOBBERED REG NO (FOR FAO ERR MSG)
                           00000050  004C   138 REG_BEFORE_SS:	.BLKL	1		; REG CONTENTS BEFORE S.S.
                                     0050   139 					; ... (FOR FAO ERROR MSG)
                           00000054  0050   140 REG_AFTER_SS:	.BLKL	1		; REG CONTENTS AFTER S.S.
                                     0054   141 					; ... (FOR FAO ERROR MSG)
                                     0054   142 $$TSTN$$:	STRING	C,<  SF   >	; ASCII PORTION OF TEST CASE NAME
                           0000006E' 005C   143 TMN_ADDR:	.ADDRESS TEST_MOD_NAME	; ADDR OF TEST MOD NAME FOR FAO
                           00000077' 0060   144 TMD_ADDR:	.ADDRESS TEST_MOD_BEG	; ADDR OF T.M. DISP FIELD FOR FAO
                           00000068  0064   145 TS_EP:		.BLKL	1		; ENTRY PNT FOR CURR TESTSERV MACRO
                           00000070  0068   146 RETADR:		.BLKL	2		; RETURN LONGWORDS FOR SETPRT
                           00000071  0070   147 PRVPRT:		.BLKB	1		; PROT RETURN BYTE FOR SETPRT
                           00000079  0071   148 PRIVMASK:	.BLKQ	1		; ADDR OF PRIVILEGE MASK (IN PHD)
                           0000007D  0079   149 CHM_CONT:	.BLKL	1		; CHANGE MODE CONTINUE ADDRESS
                           00000091  007D   150 REGS:		.BLKL	5		; AREA FOR COND INDEX REGS (R2-R6)
                                     0091   151 CHAN_SNA20:				; CHAN ARGUMENT FOR SNDACC
                                     0091   152 CHAN_SNO20:				; CHAN ARGUMENT FOR SNDOPR
                                     0091   153 CHAN_SNS20:				; CHAN ARGUMENT FOR SNDSMB
                           00000095  0091   154 		.BLKL	1
                                     0095   155 CHAN_SNA22:				; CHAN ARGUMENT FOR SNDACC
                                     0095   156 CHAN_SNO22:				; CHAN ARGUMENT FOR SNDOPR
                                     0095   157 CHAN_SNS22:				; CHAN ARGUMENT FOR SNDSMB
                           00000099  0095   158 		.BLKL	1
SATSSF10        - SATS SYSTEM SERVICE TESTS  (FAILING S.C.)      22-AUG-1978 03:49:18   VAX-11 MACRO X0.3-11               Page   5
1.0             DECLARATIONS                                                                                                     (1)

                                 00000000   160 	.PSECT	SATS_ACCVIO_1,RD,WRT,NOEXE,PAGE
                           00000200  0000   161 EMPTY:		.BLKB	512		; RESERVE A PAGE OF SPACE
                                     0200   162 ;
                                     0200   163 ; +
                                     0200   164 ; ******************************************************************
                                     0200   165 ; *                                                                *
                                     0200   166 ; * 	THE ORDER OF STATEMENTS IN THIS PSECT IS CRITICAL.         *
                                     0200   167 ; *	DO NOT RE-ARRANGE THE VARIABLES. CONSULT SATS              *
                                     0200   168 ; *	FUNCTIONAL SPECIFICATION FOR A DESCRIPTION OF THE USE      *
                                     0200   169 ; *	OF THE EMPTY PSECT (AND ITS COMPANION PSECT, NOACCESS).    *
                                     0200   170 ; *                                                                *
                                     0200   171 ; ******************************************************************
                                     0200   172 ; -
                                     0200   173 ;
                                     0200   174 ; TYPE AAAAA_SSSX1 (TYPE AAAAA_SSSX2 IF NOT DESC) GO HERE:
                           000001F3  0200   175 		. = . - 13		; ALLOW ROOM FOR STRING DESCRIPTOR
                                     01F3   176 ; TYPE AAAAA_SSSX5 GO HERE:
                           00000006  01F3   177 		.LONG	6		; STRING LENGTH (WILL CROSS PSECT BOUNDARY)
                           000001FB' 01F7   178 		.ADDRESS .+4		; STRING ADDRESS
                                     01FB   179 ; TYPE AAAAA_SSSX3 GO HERE:
                           000001FC  01FB   180 		.BLKB	1		; LOW-ORDER BYTE OF STRING LENGTH
                                     01FC   181 ; TYPE AAAAA_SSSX2 GO HERE:
                           00000200  01FC   182 		.BLKL	1		; STRING LENGTH
                                     0200   183 ;
                                     0200   184 ;
                                     0200   185 ;
                                     0200   186 ;
                                 00000000   187 	.PSECT	SATS_ACCVIO_2,RD,WRT,NOEXE,PAGE
                           00000200  0000   188 NOACCESS:	.BLKB	512		; RESERVE A PAGE OF SPACE
                           00000000  0200   189 		. = . - 512		; RETURN LOC CTR TO BEGINNING OF PSECT
                           00000000' 0000   190 		.ADDRESS EMPTY		; ADDRESS OF ACCESSIBLE STRING
                           00000000' 0004   191 		.ADDRESS EMPTY/^X100 	; ADDRESS OF ACCESSIBLE STRING
                                     0008   192 ;+
                                     0008   193 ; *** NOTE -- DO NOT CHANGE LOCATION OR SEQUENCE OF ABOVE STATEMENTS!
                                     0008   194 ; ***         THIS PSECT (NOACCESS) MUST APPEAR IN MEMORY IMMEDIATELY
                                     0008   195 ; ***         FOLLOWING THE EMPTY PSECT. PSECT NAMES AND OPTIONS WILL BE
                                     0008   196 ; ***         CHOSEN TO FORCE THE DESIRED PSECT ORDERING.
                                     0008   197 ;-
                                     0008   198 ;
                                     0008   199 MSGBUF_SNA10:	STRING	I,<SFSNA10>	; MSGBUF ARGUMENT FOR SNDACC
                                     0017   200 MSGBUF_SNO10:	STRING	I,<SFSNO10>	; MSGBUF ARGUMENT FOR SNDOPR
                                     0026   201 MSGBUF_SNS10:	STRING	I,<SFSNS10>	; MSGBUF ARGUMENT FOR SNDSMB
                                     0035   202 ;
                                     0035   203 ;
                                     0035   204 ;
                           00000001  0035   205 	.MDELETE (STRING)		; NO LONGER NEED MACRO DEFINITION
                                 00000000   206 	.PSECT	SATSSF10,RD,WRT,EXE,LONG
SATSSF10        - SATS SYSTEM SERVICE TESTS  (FAILING S.C.)      22-AUG-1978 03:49:18   VAX-11 MACRO X0.3-11               Page   6
1.0             SATSSF10                                                                                                         (1)

                                     0000   208 	.SBTTL	SATSSF10
                                     0000   209 ;++
                                     0000   210 ; FUNCTIONAL DESCRIPTION:
                                     0000   211 ;
                                     0000   212 ;		AFTER PERFORMING SOME INITIAL HOUSEKEEPING, SUCH AS
                                     0000   213 ; PRINTING THE MODULE BEGIN MESSAGE AND ACQUIRING ALL PRIVILEGES,
                                     0000   214 ; THE SATSSF10 ROUTINE EXECUTES THE TEST_SERV_EXEC MACRO TO RUN
                                     0000   215 ; ALL TEST CASES. WHEN THE MACRO COMPLETES ITS EXECUTION, SATSSF10
                                     0000   216 ; PRINTS A TEST MODULE SUCCESS OR FAIL MESSAGE AND EXITS TO THE
                                     0000   217 ; OPERATING SYSTEM. TEST_SERV_EXEC CALLS THE TC_CONTROL/TESTSERV
                                     0000   218 ; CO-ROUTINE PAIR ONCE PER TEST CASE GROUP TO EXECUTE ALL TEST
                                     0000   219 ; CASES IN THAT GROUP. EACH TEST CASE GROUP IS DEFINED BY BOUNDING
                                     0000   220 ; ITS TEST CASES WITH A TC_GROUP MACRO BEFORE THE FIRST TEST CASE
                                     0000   221 ; AND A TCEND MACRO AFTER THE LAST ONE. THE TEST CASES THEMSELVES
                                     0000   222 ; ARE DEFINED WITHIN THESE BOUNDS BY PRECEDING EACH WITH A
                                     0000   223 ; NEXT_TEST_CASE MACRO. TC_CONTROL/TESTSERV EXECUTES THE CODE
                                     0000   224 ; FOLLOWING EACH NEXT_TEST_CASE MACRO IMMEDIATELY BEFORE ISSUING
                                     0000   225 ; THE SYSTEM SERVICE AS REQUESTED IN THE TESTSERV MACRO. TC_CONTROL/
                                     0000   226 ; TESTSERV ALSO CHECKS THE RESULTS OF THE SERVICE WITH RESPECT
                                     0000   227 ; TO ITS EXPECTED STATUS CODE AND PRINTS ANY REQUIRED FAILURE
                                     0000   228 ; MESSAGES FOR THE TEST CASE. THE CODE APPEARING AFTER EACH
                                     0000   229 ; NEXT_TEST_CASE MACRO IS MERELY TO SET UP CONDITIONS REQUIRED
                                     0000   230 ; FOR THE SYSTEM SERVICE AND TO CLEAN UP ANY RESOURCES ACQUIRED
                                     0000   231 ; BY THE PREVIOUS TEST CASE.
                                     0000   232 ;
                                     0000   233 ; CALLING SEQUENCE:
                                     0000   234 ;
                                     0000   235 ;	$ RUN SATSSF10  ...  (DCL COMMAND)
                                     0000   236 ;
                                     0000   237 ; INPUT PARAMETERS:
                                     0000   238 ;
                                     0000   239 ;	NONE
                                     0000   240 ;
                                     0000   241 ; IMPLICIT INPUTS:
                                     0000   242 ;
                                     0000   243 ;	NONE
                                     0000   244 ;
                                     0000   245 ; OUTPUT PARAMETERS:
                                     0000   246 ;
                                     0000   247 ;	NONE
                                     0000   248 ;
                                     0000   249 ; IMPLICIT OUTPUTS:
                                     0000   250 ;
                                     0000   251 ;	MESSAGES TO SYS$OUTPUT ARE THE ONLY OUTPUT FROM SATSSF10.
                                     0000   252 ;	THEY ARE OF THE FORM:
                                     0000   253 ;
                                     0000   254 ;		%UETP-S-SATSMS, TEST MODULE SATSSF10 BEGUN ... (BEGIN MSG)
                                     0000   255 ;		%UETP-S-SATSMS, TEST MODULE SATSSF10 SUCCESSFUL ... (END MSG)
                                     0000   256 ;		%UETP-E-SATSMS, TEST MODULE SATSSF10 FAILED ... (END MSG)
                                     0000   257 ;		%UETP-I-TEXT, ... (VARIABLE INFORMATION ABOUT A TEST MODULE FAILURE)
                                     0000   258 ;
                                     0000   259 ; COMPLETION CODES:
                                     0000   260 ;
                                     0000   261 ;	THE SATSSF10 ROUTINE TERMINATES WITH A $EXIT TO THE
                                     0000   262 ;	OPERATING SYSTEM WITH A STATUS CODE DEFINED BY UETP$_SATSMS.
                                     0000   263 ;
                                     0000   264 ; SIDE EFFECTS:
SATSSF10        - SATS SYSTEM SERVICE TESTS  (FAILING S.C.)      22-AUG-1978 03:49:18   VAX-11 MACRO X0.3-11               Page   7
1.0             SATSSF10                                                                                                         (1)

                                     0000   265 ;
                                     0000   266 ;	NONE
                                     0000   267 ;
                                     0000   268 ;--
                                     0000   269
                                     0000   270
                                     0000   271
                                     0000   272 SATSSF10:
                               0FFC  0000   273 	.WORD	^M<R2,R3,R4,R5,R6,R7,R8,R9,R10,R11>
                                     0002   274 					; ENTRY MASK
                                     0002   275 	$WAKE_S  TPID			; GET PID OF THIS PROCESS
                                     0011   276 	$HIBER_S			; UNDO WAKE
                                     0018   277 	$SETPRN_S TEST_MOD_NAME_D 	; SET PROCESS NAME
                          0B91   30  0025   278 	BSBW	MOD_MSG_PRINT		; PRINT TEST MODULE BEGIN MSG
   00000060'EF   0000007D'EF     DE  0028   279 	MOVAL	TEST_MOD_SUCC,TMD_ADDR	; ASSUME END MSG WILL SHOW SUCCESS
            00            01     F0  0033   280 	INSV	#SUCCESS,#0,#3,MOD_MSG_CODE ; ADJUST STATUS CODE FOR SUCCESS
   00000044'EF            03         0036
                                     003C   281 	MODE	TO,10$,KRNL,NOREGS 	; KERNEL MODE TO ACCESS PHD
            59   00000000'9F     D0  0059   282 	MOVL	@#CTL$GL_PHD,R9		; GET PROCESS HEADER ADDRESS
   00000071'EF            69     DE  0060   283 	MOVAL	PHD$Q_PRIVMSK(R9),PRIVMASK ; GET PRIV MASK ADDRESS
                                     0067   284 	MODE	FROM,10$		; GET BACK TO USER MODE
                                     0068   285 	PRIV	ADD,ALL			; GET ALL PRIVILEGES
                                     0091   286 	DISPSERV			; SET UP DISPLAY INFO FOR TESTSERV
                                     0226   287 	$SETPRT_S INADR=INADR, RETADR=RETADR, -
                                     0226   288 		  PROT=PROT, PRVPRT=PRVPRT
                                     0247   289 					; SET NOACCESS PSECT ...
                                     0247   290 					; ... FOR NO USER ACCESS
                          0816   31  0247   291 	BRW	EXECUTE			; GO EXECUTE ALL TEST CASES
                                     024A   292 ;
                                     024A   293 	TC_GROUP	SNA,1,TS1
                                     0271   294 ;
                                     0271   295 	NEXT_TEST_CASE	SFSNA10
SATSSF10        - SATS SYSTEM SERVICE TESTS  (FAILING S.C.)      22-AUG-1978 03:49:18   VAX-11 MACRO X0.3-11               Page   8
1.0             SFSNA10                                                                                                          (1)

                                     0271   296 ;
                                     0271   297 ;++
                                     0271   298 ; ******************************************************
                                     0271   299 ; *
                                     0271   300 ; *  TEST CASE NAME:		SFSNA10
                                     0271   301 ; *
                                     0271   302 ; *  SYSTEM SERVICE:		SNDACC
                                     0271   303 ; *
                                     0271   304 ; *  ARGUMENT UNDER TEST: 	MSGBUF_SNA10
                                     0271   305 ; *
                                     0271   306 ; *  INPUT CONDITIONS:
                                     0271   307 ; *	MESSAGE BUFFER DESCRIPTOR IN NON-ACCESSIBLE PSECT.
                                     0271   308 ; *
                                     0271   309 ; *  EXPECTED RESULTS:
                                     0271   310 ; *	1) SYSTEM STATUS CODE:	ACCVIO
                                     0271   311 ; *	2) REGISTERS R2 THROUGH FP UNCHANGED
                                     0271   312 ; *
                                     0271   313 ; ******************************************************
                                     0271   314 ;--
                                     0271   315 ;
                                     0271   316 ;
                                     0271   317 	NEXT_TEST_CASE	SFSNA11
SATSSF10        - SATS SYSTEM SERVICE TESTS  (FAILING S.C.)      22-AUG-1978 03:49:18   VAX-11 MACRO X0.3-11               Page   9
1.0             SFSNA11                                                                                                          (1)

                                     027D   318 ;
                                     027D   319 ;++
                                     027D   320 ; ******************************************************
                                     027D   321 ; *
                                     027D   322 ; *  TEST CASE NAME:		SFSNA11
                                     027D   323 ; *
                                     027D   324 ; *  SYSTEM SERVICE:		SNDACC
                                     027D   325 ; *
                                     027D   326 ; *  ARGUMENT UNDER TEST: 	MSGBUF_SNA11
                                     027D   327 ; *
                                     027D   328 ; *  INPUT CONDITIONS:
                                     027D   329 ; *	INVALID MESSAGE LENGTH (ZERO)
                                     027D   330 ; *
                                     027D   331 ; *  EXPECTED RESULTS:
                                     027D   332 ; *	1) SYSTEM STATUS CODE:	BADPARAM
                                     027D   333 ; *	2) REGISTERS R2 THROUGH FP UNCHANGED
                                     027D   334 ; *
                                     027D   335 ; ******************************************************
                                     027D   336 ;--
                                     027D   337 ;
                                     027D   338 ;
                                     027D   339 	NEXT_TEST_CASE	SFSNA12
SATSSF10        - SATS SYSTEM SERVICE TESTS  (FAILING S.C.)      22-AUG-1978 03:49:18   VAX-11 MACRO X0.3-11               Page  10
1.0             SFSNA12                                                                                                          (1)

                                     0289   340 ;
                                     0289   341 ;++
                                     0289   342 ; ******************************************************
                                     0289   343 ; *
                                     0289   344 ; *  TEST CASE NAME:		SFSNA12
                                     0289   345 ; *
                                     0289   346 ; *  SYSTEM SERVICE:		SNDACC
                                     0289   347 ; *
                                     0289   348 ; *  ARGUMENT UNDER TEST: 	MSGBUF_SNA12
                                     0289   349 ; *
                                     0289   350 ; *  INPUT CONDITIONS:
                                     0289   351 ; *	INVALID MESSAGE LENGTH (255)
                                     0289   352 ; *
                                     0289   353 ; *  EXPECTED RESULTS:
                                     0289   354 ; *	1) SYSTEM STATUS CODE:	BADPARAM
                                     0289   355 ; *	2) REGISTERS R2 THROUGH FP UNCHANGED
                                     0289   356 ; *
                                     0289   357 ; ******************************************************
                                     0289   358 ;--
                                     0289   359 ;
                                     0289   360 ;
                                     0289   361 	NEXT_TEST_CASE	SFSNA20
SATSSF10        - SATS SYSTEM SERVICE TESTS  (FAILING S.C.)      22-AUG-1978 03:49:18   VAX-11 MACRO X0.3-11               Page  11
1.0             SFSNA20                                                                                                          (1)

                                     0295   362 ;
                                     0295   363 ;++
                                     0295   364 ; ******************************************************
                                     0295   365 ; *
                                     0295   366 ; *  TEST CASE NAME:		SFSNA20
                                     0295   367 ; *
                                     0295   368 ; *  SYSTEM SERVICE:		SNDACC
                                     0295   369 ; *
                                     0295   370 ; *  ARGUMENT UNDER TEST: 	CHAN_SNA20
                                     0295   371 ; *
                                     0295   372 ; *  INPUT CONDITIONS:
                                     0295   373 ; *	DEVICE IDENTIFIED BY CHAN ARGUMENT IS NOT A MAILBOX.
                                     0295   374 ; *
                                     0295   375 ; *  EXPECTED RESULTS:
                                     0295   376 ; *	1) SYSTEM STATUS CODE:	DEVNOTMBX
                                     0295   377 ; *	2) REGISTERS R2 THROUGH FP UNCHANGED
                                     0295   378 ; *
                                     0295   379 ; ******************************************************
                                     0295   380 ;--
                                     0295   381 ;
                                     0295   382 	$ASSIGN_S DEVNAM=MY_DISK, -	; ASSIGN A CHANNEL TO A REAL DEVICE
                                     0295   383 		  CHAN=CHAN_SNA20
                                     02AA   384 ;
                                     02AA   385 	NEXT_TEST_CASE	SFSNA21
SATSSF10        - SATS SYSTEM SERVICE TESTS  (FAILING S.C.)      22-AUG-1978 03:49:18   VAX-11 MACRO X0.3-11               Page  12
1.0             SFSNA21                                                                                                          (1)

                                     02B6   386 ;
                                     02B6   387 ;++
                                     02B6   388 ; ******************************************************
                                     02B6   389 ; *
                                     02B6   390 ; *  TEST CASE NAME:		SFSNA21
                                     02B6   391 ; *
                                     02B6   392 ; *  SYSTEM SERVICE:		SNDACC
                                     02B6   393 ; *
                                     02B6   394 ; *  ARGUMENT UNDER TEST: 	CHAN_SNA21
                                     02B6   395 ; *
                                     02B6   396 ; *  INPUT CONDITIONS:
                                     02B6   397 ; *	INVALID CHANNEL NUMBER (LARGE NEGATIVE)
                                     02B6   398 ; *
                                     02B6   399 ; *  EXPECTED RESULTS:
                                     02B6   400 ; *	1) SYSTEM STATUS CODE:	IVCHAN
                                     02B6   401 ; *	2) REGISTERS R2 THROUGH FP UNCHANGED
                                     02B6   402 ; *
                                     02B6   403 ; ******************************************************
                                     02B6   404 ;--
                                     02B6   405 ;
                                     02B6   406 	$DASSGN_S CHAN=CHAN_SNA20	; DE-ASSIGN CHANNEL ASSIGNED IN SFSNA20
                                     02C4   407 ;
                                     02C4   408 	NEXT_TEST_CASE	SFSNA22
SATSSF10        - SATS SYSTEM SERVICE TESTS  (FAILING S.C.)      22-AUG-1978 03:49:18   VAX-11 MACRO X0.3-11               Page  13
1.0             SFSNA22                                                                                                          (1)

                                     02D0   409 ;
                                     02D0   410 ;++
                                     02D0   411 ; ******************************************************
                                     02D0   412 ; *
                                     02D0   413 ; *  TEST CASE NAME:		SFSNA22
                                     02D0   414 ; *
                                     02D0   415 ; *  SYSTEM SERVICE:		SNDACC
                                     02D0   416 ; *
                                     02D0   417 ; *  ARGUMENT UNDER TEST: 	CHAN_SNA22
                                     02D0   418 ; *
                                     02D0   419 ; *  INPUT CONDITIONS:
                                     02D0   420 ; *	ISSUE $SNDACC WITH MAILBOX ASSIGNED FROM KERNEL MODE.
                                     02D0   421 ; *
                                     02D0   422 ; *  EXPECTED RESULTS:
                                     02D0   423 ; *	1) SYSTEM STATUS CODE:	NOPRIV
                                     02D0   424 ; *	2) REGISTERS R2 THROUGH FP UNCHANGED
                                     02D0   425 ; *
                                     02D0   426 ; ******************************************************
                                     02D0   427 ;--
                                     02D0   428 ;
                                     02D0   429 	MODE	TO,10$,KRNL,NOREGS	; KERNEL MODE FOR $CREMBX
                                     02ED   430 	$CREMBX_S PRMFLG=#1, -		; ASSIGN MAILBOX FROM KERNEL MODE
                                     02ED   431 		  CHAN=CHAN_SNA22
                                     0302   432 	MODE	FROM,10$		; BACK TO USER MODE
                                     0303   433 ;
                                     0303   434 	NEXT_TEST_CASE	SFSNA23
SATSSF10        - SATS SYSTEM SERVICE TESTS  (FAILING S.C.)      22-AUG-1978 03:49:18   VAX-11 MACRO X0.3-11               Page  14
1.0             SFSNA23                                                                                                          (1)

                                     030F   435 ;
                                     030F   436 ;++
                                     030F   437 ; ******************************************************
                                     030F   438 ; *
                                     030F   439 ; *  TEST CASE NAME:		SFSNA23
                                     030F   440 ; *
                                     030F   441 ; *  SYSTEM SERVICE:		SNDACC
                                     030F   442 ; *
                                     030F   443 ; *  ARGUMENT UNDER TEST: 	CHAN_SNA23
                                     030F   444 ; *
                                     030F   445 ; *  INPUT CONDITIONS:
                                     030F   446 ; *	INVALID CHANNEL NUMBER (-1)
                                     030F   447 ; *
                                     030F   448 ; *  EXPECTED RESULTS:
                                     030F   449 ; *	1) SYSTEM STATUS CODE:	IVCHAN
                                     030F   450 ; *	2) REGISTERS R2 THROUGH FP UNCHANGED
                                     030F   451 ; *
                                     030F   452 ; ******************************************************
                                     030F   453 ;--
                                     030F   454 ;
                                     030F   455 	MODE	TO,20$,KRNL,NOREGS	; KERNEL MODE FOR $DELMBX
                                     032C   456 	$DELMBX_S CHAN=CHAN_SNA22	; DELETE MAILBOX CREATED IN SFSNA22
                                     033A   457 	$DASSGN_S CHAN=CHAN_SNA22	; ........
                                     0348   458 	MODE	FROM,20$		; BACK TO USER MODE
                                     0349   459 ;
                                     0349   460 	NEXT_TEST_CASE	SFSNA24
SATSSF10        - SATS SYSTEM SERVICE TESTS  (FAILING S.C.)      22-AUG-1978 03:49:18   VAX-11 MACRO X0.3-11               Page  15
1.0             SFSNA24                                                                                                          (1)

                                     0355   461 ;
                                     0355   462 ;++
                                     0355   463 ; ******************************************************
                                     0355   464 ; *
                                     0355   465 ; *  TEST CASE NAME:		SFSNA24
                                     0355   466 ; *
                                     0355   467 ; *  SYSTEM SERVICE:		SNDACC
                                     0355   468 ; *
                                     0355   469 ; *  ARGUMENT UNDER TEST: 	CHAN_SNA24
                                     0355   470 ; *
                                     0355   471 ; *  INPUT CONDITIONS:
                                     0355   472 ; *	INVALID CHANNEL NUMBER (1 BILLION)
                                     0355   473 ; *
                                     0355   474 ; *  EXPECTED RESULTS:
                                     0355   475 ; *	1) SYSTEM STATUS CODE:	IVCHAN
                                     0355   476 ; *	2) REGISTERS R2 THROUGH FP UNCHANGED
                                     0355   477 ; *
                                     0355   478 ; ******************************************************
                                     0355   479 ;--
                                     0355   480 ;
                                     0355   481 ;
                                     0355   482 	TCEND
SATSSF10        - SATS SYSTEM SERVICE TESTS  (FAILING S.C.)      22-AUG-1978 03:49:18   VAX-11 MACRO X0.3-11               Page  16
1.0                                                                                                                              (1)

                                     0356   483 ;
                                     0356   484 	TC_GROUP	SNO,1,TS2
                                     037D   485 ;
                                     037D   486 	NEXT_TEST_CASE	SFSNO10
SATSSF10        - SATS SYSTEM SERVICE TESTS  (FAILING S.C.)      22-AUG-1978 03:49:18   VAX-11 MACRO X0.3-11               Page  17
1.0             SFSNO10                                                                                                          (1)

                                     037D   487 ;
                                     037D   488 ;++
                                     037D   489 ; ******************************************************
                                     037D   490 ; *
                                     037D   491 ; *  TEST CASE NAME:		SFSNO10
                                     037D   492 ; *
                                     037D   493 ; *  SYSTEM SERVICE:		SNDOPR
                                     037D   494 ; *
                                     037D   495 ; *  ARGUMENT UNDER TEST: 	MSGBUF_SNO10
                                     037D   496 ; *
                                     037D   497 ; *  INPUT CONDITIONS:
                                     037D   498 ; *	MESSAGE BUFFER DESCRIPTOR IN NON-ACCESSIBLE PSECT.
                                     037D   499 ; *
                                     037D   500 ; *  EXPECTED RESULTS:
                                     037D   501 ; *	1) SYSTEM STATUS CODE:	ACCVIO
                                     037D   502 ; *	2) REGISTERS R2 THROUGH FP UNCHANGED
                                     037D   503 ; *
                                     037D   504 ; ******************************************************
                                     037D   505 ;--
                                     037D   506 ;
                                     037D   507 ;
                                     037D   508 	NEXT_TEST_CASE	SFSNO11
SATSSF10        - SATS SYSTEM SERVICE TESTS  (FAILING S.C.)      22-AUG-1978 03:49:18   VAX-11 MACRO X0.3-11               Page  18
1.0             SFSNO11                                                                                                          (1)

                                     0389   509 ;
                                     0389   510 ;++
                                     0389   511 ; ******************************************************
                                     0389   512 ; *
                                     0389   513 ; *  TEST CASE NAME:		SFSNO11
                                     0389   514 ; *
                                     0389   515 ; *  SYSTEM SERVICE:		SNDOPR
                                     0389   516 ; *
                                     0389   517 ; *  ARGUMENT UNDER TEST: 	MSGBUF_SNO11
                                     0389   518 ; *
                                     0389   519 ; *  INPUT CONDITIONS:
                                     0389   520 ; *	INVALID MESSAGE LENGTH (ZERO)
                                     0389   521 ; *
                                     0389   522 ; *  EXPECTED RESULTS:
                                     0389   523 ; *	1) SYSTEM STATUS CODE:	BADPARAM
                                     0389   524 ; *	2) REGISTERS R2 THROUGH FP UNCHANGED
                                     0389   525 ; *
                                     0389   526 ; ******************************************************
                                     0389   527 ;--
                                     0389   528 ;
                                     0389   529 ;
                                     0389   530 	NEXT_TEST_CASE	SFSNO12
SATSSF10        - SATS SYSTEM SERVICE TESTS  (FAILING S.C.)      22-AUG-1978 03:49:18   VAX-11 MACRO X0.3-11               Page  19
1.0             SFSNO12                                                                                                          (1)

                                     0395   531 ;
                                     0395   532 ;++
                                     0395   533 ; ******************************************************
                                     0395   534 ; *
                                     0395   535 ; *  TEST CASE NAME:		SFSNO12
                                     0395   536 ; *
                                     0395   537 ; *  SYSTEM SERVICE:		SNDOPR
                                     0395   538 ; *
                                     0395   539 ; *  ARGUMENT UNDER TEST: 	MSGBUF_SNO12
                                     0395   540 ; *
                                     0395   541 ; *  INPUT CONDITIONS:
                                     0395   542 ; *	INVALID MESSAGE LENGTH (-1)
                                     0395   543 ; *
                                     0395   544 ; *  EXPECTED RESULTS:
                                     0395   545 ; *	1) SYSTEM STATUS CODE:	BADPARAM
                                     0395   546 ; *	2) REGISTERS R2 THROUGH FP UNCHANGED
                                     0395   547 ; *
                                     0395   548 ; ******************************************************
                                     0395   549 ;--
                                     0395   550 ;
                                     0395   551 ;
                                     0395   552 	NEXT_TEST_CASE	SFSNO20
SATSSF10        - SATS SYSTEM SERVICE TESTS  (FAILING S.C.)      22-AUG-1978 03:49:18   VAX-11 MACRO X0.3-11               Page  20
1.0             SFSNO20                                                                                                          (1)

                                     03A1   553 ;
                                     03A1   554 ;++
                                     03A1   555 ; ******************************************************
                                     03A1   556 ; *
                                     03A1   557 ; *  TEST CASE NAME:		SFSNO20
                                     03A1   558 ; *
                                     03A1   559 ; *  SYSTEM SERVICE:		SNDOPR
                                     03A1   560 ; *
                                     03A1   561 ; *  ARGUMENT UNDER TEST: 	CHAN_SNO20
                                     03A1   562 ; *
                                     03A1   563 ; *  INPUT CONDITIONS:
                                     03A1   564 ; *	DEVICE IDENTIFIED BY CHAN ARGUMENT IS NOT A MAILBOX.
                                     03A1   565 ; *
                                     03A1   566 ; *  EXPECTED RESULTS:
                                     03A1   567 ; *	1) SYSTEM STATUS CODE:	DEVNOTMBX
                                     03A1   568 ; *	2) REGISTERS R2 THROUGH FP UNCHANGED
                                     03A1   569 ; *
                                     03A1   570 ; ******************************************************
                                     03A1   571 ;--
                                     03A1   572 ;
                                     03A1   573 	$ASSIGN_S DEVNAM=MY_DISK, -	; ASSIGN A CHANNEL TO A REAL DEVICE
                                     03A1   574 		  CHAN=CHAN_SNO20
                                     03B6   575 ;
                                     03B6   576 	NEXT_TEST_CASE	SFSNO21
SATSSF10        - SATS SYSTEM SERVICE TESTS  (FAILING S.C.)      22-AUG-1978 03:49:18   VAX-11 MACRO X0.3-11               Page  21
1.0             SFSNO21                                                                                                          (1)

                                     03C2   577 ;
                                     03C2   578 ;++
                                     03C2   579 ; ******************************************************
                                     03C2   580 ; *
                                     03C2   581 ; *  TEST CASE NAME:		SFSNO21
                                     03C2   582 ; *
                                     03C2   583 ; *  SYSTEM SERVICE:		SNDOPR
                                     03C2   584 ; *
                                     03C2   585 ; *  ARGUMENT UNDER TEST: 	CHAN_SNO21
                                     03C2   586 ; *
                                     03C2   587 ; *  INPUT CONDITIONS:
                                     03C2   588 ; *	INVALID CHANNEL NUMBER (LARGE NEGATIVE)
                                     03C2   589 ; *
                                     03C2   590 ; *  EXPECTED RESULTS:
                                     03C2   591 ; *	1) SYSTEM STATUS CODE:	IVCHAN
                                     03C2   592 ; *	2) REGISTERS R2 THROUGH FP UNCHANGED
                                     03C2   593 ; *
                                     03C2   594 ; ******************************************************
                                     03C2   595 ;--
                                     03C2   596 ;
                                     03C2   597 	$DASSGN_S CHAN=CHAN_SNO20	; DE-ASSIGN CHANNEL ASSIGNED IN SFSNO20
                                     03D0   598 ;
                                     03D0   599 	NEXT_TEST_CASE	SFSNO22
SATSSF10        - SATS SYSTEM SERVICE TESTS  (FAILING S.C.)      22-AUG-1978 03:49:18   VAX-11 MACRO X0.3-11               Page  22
1.0             SFSNO22                                                                                                          (1)

                                     03DC   600 ;
                                     03DC   601 ;++
                                     03DC   602 ; ******************************************************
                                     03DC   603 ; *
                                     03DC   604 ; *  TEST CASE NAME:		SFSNO22
                                     03DC   605 ; *
                                     03DC   606 ; *  SYSTEM SERVICE:		SNDOPR
                                     03DC   607 ; *
                                     03DC   608 ; *  ARGUMENT UNDER TEST: 	CHAN_SNO22
                                     03DC   609 ; *
                                     03DC   610 ; *  INPUT CONDITIONS:
                                     03DC   611 ; *	ISSUE $SNDOPR WITH MAILBOX ASSIGNED FROM KERNEL MODE.
                                     03DC   612 ; *
                                     03DC   613 ; *  EXPECTED RESULTS:
                                     03DC   614 ; *	1) SYSTEM STATUS CODE:	NOPRIV
                                     03DC   615 ; *	2) REGISTERS R2 THROUGH FP UNCHANGED
                                     03DC   616 ; *
                                     03DC   617 ; ******************************************************
                                     03DC   618 ;--
                                     03DC   619 ;
                                     03DC   620 	MODE	TO,10$,KRNL,NOREGS	; KERNEL MODE FOR $CREMBX
                                     03F9   621 	$CREMBX_S PRMFLG=#1, -		; ASSIGN MAILBOX FROM KERNEL MODE
                                     03F9   622 		  CHAN=CHAN_SNO22
                                     040E   623 	MODE	FROM,10$		; BACK TO USER MODE
                                     040F   624 ;
                                     040F   625 	NEXT_TEST_CASE	SFSNO23
SATSSF10        - SATS SYSTEM SERVICE TESTS  (FAILING S.C.)      22-AUG-1978 03:49:18   VAX-11 MACRO X0.3-11               Page  23
1.0             SFSNO23                                                                                                          (1)

                                     041B   626 ;
                                     041B   627 ;++
                                     041B   628 ; ******************************************************
                                     041B   629 ; *
                                     041B   630 ; *  TEST CASE NAME:		SFSNO23
                                     041B   631 ; *
                                     041B   632 ; *  SYSTEM SERVICE:		SNDOPR
                                     041B   633 ; *
                                     041B   634 ; *  ARGUMENT UNDER TEST: 	CHAN_SNO23
                                     041B   635 ; *
                                     041B   636 ; *  INPUT CONDITIONS:
                                     041B   637 ; *	INVALID CHANNEL NUMBER (-1)
                                     041B   638 ; *
                                     041B   639 ; *  EXPECTED RESULTS:
                                     041B   640 ; *	1) SYSTEM STATUS CODE:	IVCHAN
                                     041B   641 ; *	2) REGISTERS R2 THROUGH FP UNCHANGED
                                     041B   642 ; *
                                     041B   643 ; ******************************************************
                                     041B   644 ;--
                                     041B   645 ;
                                     041B   646 	MODE	TO,20$,KRNL,NOREGS	; KERNEL MODE FOR $DELMBX
                                     0438   647 	$DELMBX_S CHAN=CHAN_SNO22	; DELETE MAILBOX CREATED IN SFSNO22
                                     0446   648 	$DASSGN_S CHAN=CHAN_SNO22	; ........
                                     0454   649 	MODE	FROM,20$		; BACK TO USER MODE
                                     0455   650 ;
                                     0455   651 	NEXT_TEST_CASE	SFSNO24
SATSSF10        - SATS SYSTEM SERVICE TESTS  (FAILING S.C.)      22-AUG-1978 03:49:18   VAX-11 MACRO X0.3-11               Page  24
1.0             SFSNO24                                                                                                          (1)

                                     0461   652 ;
                                     0461   653 ;++
                                     0461   654 ; ******************************************************
                                     0461   655 ; *
                                     0461   656 ; *  TEST CASE NAME:		SFSNO24
                                     0461   657 ; *
                                     0461   658 ; *  SYSTEM SERVICE:		SNDOPR
                                     0461   659 ; *
                                     0461   660 ; *  ARGUMENT UNDER TEST: 	CHAN_SNO24
                                     0461   661 ; *
                                     0461   662 ; *  INPUT CONDITIONS:
                                     0461   663 ; *	INVALID CHANNEL NUMBER (1 BILLION)
                                     0461   664 ; *
                                     0461   665 ; *  EXPECTED RESULTS:
                                     0461   666 ; *	1) SYSTEM STATUS CODE:	IVCHAN
                                     0461   667 ; *	2) REGISTERS R2 THROUGH FP UNCHANGED
                                     0461   668 ; *
                                     0461   669 ; ******************************************************
                                     0461   670 ;--
                                     0461   671 ;
                                     0461   672 ;
                                     0461   673 	TCEND
SATSSF10        - SATS SYSTEM SERVICE TESTS  (FAILING S.C.)      22-AUG-1978 03:49:18   VAX-11 MACRO X0.3-11               Page  25
1.0                                                                                                                              (1)

                                     0462   674 ;
                                     0462   675 	TC_GROUP	SNS,1,TS3
                                     0489   676 ;
                                     0489   677 	NEXT_TEST_CASE	SFSNS10
SATSSF10        - SATS SYSTEM SERVICE TESTS  (FAILING S.C.)      22-AUG-1978 03:49:18   VAX-11 MACRO X0.3-11               Page  26
1.0             SFSNS10                                                                                                          (1)

                                     0489   678 ;
                                     0489   679 ;++
                                     0489   680 ; ******************************************************
                                     0489   681 ; *
                                     0489   682 ; *  TEST CASE NAME:		SFSNS10
                                     0489   683 ; *
                                     0489   684 ; *  SYSTEM SERVICE:		SNDSMB
                                     0489   685 ; *
                                     0489   686 ; *  ARGUMENT UNDER TEST: 	MSGBUF_SNS10
                                     0489   687 ; *
                                     0489   688 ; *  INPUT CONDITIONS:
                                     0489   689 ; *	MESSAGE BUFFER DESCRIPTOR IN NON-ACCESSIBLE PSECT.
                                     0489   690 ; *
                                     0489   691 ; *  EXPECTED RESULTS:
                                     0489   692 ; *	1) SYSTEM STATUS CODE:	ACCVIO
                                     0489   693 ; *	2) REGISTERS R2 THROUGH FP UNCHANGED
                                     0489   694 ; *
                                     0489   695 ; ******************************************************
                                     0489   696 ;--
                                     0489   697 ;
                                     0489   698 ;
                                     0489   699 	NEXT_TEST_CASE	SFSNS11
SATSSF10        - SATS SYSTEM SERVICE TESTS  (FAILING S.C.)      22-AUG-1978 03:49:18   VAX-11 MACRO X0.3-11               Page  27
1.0             SFSNS11                                                                                                          (1)

                                     0495   700 ;
                                     0495   701 ;++
                                     0495   702 ; ******************************************************
                                     0495   703 ; *
                                     0495   704 ; *  TEST CASE NAME:		SFSNS11
                                     0495   705 ; *
                                     0495   706 ; *  SYSTEM SERVICE:		SNDSMB
                                     0495   707 ; *
                                     0495   708 ; *  ARGUMENT UNDER TEST: 	MSGBUF_SNS11
                                     0495   709 ; *
                                     0495   710 ; *  INPUT CONDITIONS:
                                     0495   711 ; *	INVALID MESSAGE LENGTH (ZERO)
                                     0495   712 ; *
                                     0495   713 ; *  EXPECTED RESULTS:
                                     0495   714 ; *	1) SYSTEM STATUS CODE:	BADPARAM
                                     0495   715 ; *	2) REGISTERS R2 THROUGH FP UNCHANGED
                                     0495   716 ; *
                                     0495   717 ; ******************************************************
                                     0495   718 ;--
                                     0495   719 ;
                                     0495   720 ;
                                     0495   721 	NEXT_TEST_CASE	SFSNS12
SATSSF10        - SATS SYSTEM SERVICE TESTS  (FAILING S.C.)      22-AUG-1978 03:49:18   VAX-11 MACRO X0.3-11               Page  28
1.0             SFSNS12                                                                                                          (1)

                                     04A1   722 ;
                                     04A1   723 ;++
                                     04A1   724 ; ******************************************************
                                     04A1   725 ; *
                                     04A1   726 ; *  TEST CASE NAME:		SFSNS12
                                     04A1   727 ; *
                                     04A1   728 ; *  SYSTEM SERVICE:		SNDSMB
                                     04A1   729 ; *
                                     04A1   730 ; *  ARGUMENT UNDER TEST: 	MSGBUF_SNS12
                                     04A1   731 ; *
                                     04A1   732 ; *  INPUT CONDITIONS:
                                     04A1   733 ; *	INVALID MESSAGE LENGTH (201)
                                     04A1   734 ; *
                                     04A1   735 ; *  EXPECTED RESULTS:
                                     04A1   736 ; *	1) SYSTEM STATUS CODE:	BADPARAM
                                     04A1   737 ; *	2) REGISTERS R2 THROUGH FP UNCHANGED
                                     04A1   738 ; *
                                     04A1   739 ; ******************************************************
                                     04A1   740 ;--
                                     04A1   741 ;
                                     04A1   742 ;
                                     04A1   743 	NEXT_TEST_CASE	SFSNS20
SATSSF10        - SATS SYSTEM SERVICE TESTS  (FAILING S.C.)      22-AUG-1978 03:49:18   VAX-11 MACRO X0.3-11               Page  29
1.0             SFSNS20                                                                                                          (1)

                                     04AD   744 ;
                                     04AD   745 ;++
                                     04AD   746 ; ******************************************************
                                     04AD   747 ; *
                                     04AD   748 ; *  TEST CASE NAME:		SFSNS20
                                     04AD   749 ; *
                                     04AD   750 ; *  SYSTEM SERVICE:		SNDSMB
                                     04AD   751 ; *
                                     04AD   752 ; *  ARGUMENT UNDER TEST: 	CHAN_SNS20
                                     04AD   753 ; *
                                     04AD   754 ; *  INPUT CONDITIONS:
                                     04AD   755 ; *	DEVICE IDENTIFIED BY CHAN ARGUMENT IS NOT A MAILBOX.
                                     04AD   756 ; *
                                     04AD   757 ; *  EXPECTED RESULTS:
                                     04AD   758 ; *	1) SYSTEM STATUS CODE:	DEVNOTMBX
                                     04AD   759 ; *	2) REGISTERS R2 THROUGH FP UNCHANGED
                                     04AD   760 ; *
                                     04AD   761 ; ******************************************************
                                     04AD   762 ;--
                                     04AD   763 ;
                                     04AD   764 	$ASSIGN_S DEVNAM=MY_DISK, -	; ASSIGN A CHANNEL TO A REAL DEVICE
                                     04AD   765 		  CHAN=CHAN_SNS20
                                     04C2   766 ;
                                     04C2   767 	NEXT_TEST_CASE	SFSNS21
SATSSF10        - SATS SYSTEM SERVICE TESTS  (FAILING S.C.)      22-AUG-1978 03:49:18   VAX-11 MACRO X0.3-11               Page  30
1.0             SFSNS21                                                                                                          (1)

                                     04CE   768 ;
                                     04CE   769 ;++
                                     04CE   770 ; ******************************************************
                                     04CE   771 ; *
                                     04CE   772 ; *  TEST CASE NAME:		SFSNS21
                                     04CE   773 ; *
                                     04CE   774 ; *  SYSTEM SERVICE:		SNDSMB
                                     04CE   775 ; *
                                     04CE   776 ; *  ARGUMENT UNDER TEST: 	CHAN_SNS21
                                     04CE   777 ; *
                                     04CE   778 ; *  INPUT CONDITIONS:
                                     04CE   779 ; *	INVALID CHANNEL NUMBER (LARGE NEGATIVE)
                                     04CE   780 ; *
                                     04CE   781 ; *  EXPECTED RESULTS:
                                     04CE   782 ; *	1) SYSTEM STATUS CODE:	IVCHAN
                                     04CE   783 ; *	2) REGISTERS R2 THROUGH FP UNCHANGED
                                     04CE   784 ; *
                                     04CE   785 ; ******************************************************
                                     04CE   786 ;--
                                     04CE   787 ;
                                     04CE   788 	$DASSGN_S CHAN=CHAN_SNS20	; DE-ASSIGN CHANNEL ASSIGNED IN SFSNS20
                                     04DC   789 ;
                                     04DC   790 	NEXT_TEST_CASE	SFSNS22
SATSSF10        - SATS SYSTEM SERVICE TESTS  (FAILING S.C.)      22-AUG-1978 03:49:18   VAX-11 MACRO X0.3-11               Page  31
1.0             SFSNS22                                                                                                          (1)

                                     04E8   791 ;
                                     04E8   792 ;++
                                     04E8   793 ; ******************************************************
                                     04E8   794 ; *
                                     04E8   795 ; *  TEST CASE NAME:		SFSNS22
                                     04E8   796 ; *
                                     04E8   797 ; *  SYSTEM SERVICE:		SNDSMB
                                     04E8   798 ; *
                                     04E8   799 ; *  ARGUMENT UNDER TEST: 	CHAN_SNS22
                                     04E8   800 ; *
                                     04E8   801 ; *  INPUT CONDITIONS:
                                     04E8   802 ; *	ISSUE $SNDSMB WITH MAILBOX ASSIGNED FROM KERNEL MODE.
                                     04E8   803 ; *
                                     04E8   804 ; *  EXPECTED RESULTS:
                                     04E8   805 ; *	1) SYSTEM STATUS CODE:	NOPRIV
                                     04E8   806 ; *	2) REGISTERS R2 THROUGH FP UNCHANGED
                                     04E8   807 ; *
                                     04E8   808 ; ******************************************************
                                     04E8   809 ;--
                                     04E8   810 ;
                                     04E8   811 	MODE	TO,10$,KRNL,NOREGS	; KERNEL MODE FOR $CREMBX
                                     0505   812 	$CREMBX_S PRMFLG=#1, -		; ASSIGN MAILBOX FROM KERNEL MODE
                                     0505   813 		  CHAN=CHAN_SNS22
                                     051A   814 	MODE	FROM,10$		; BACK TO USER MODE
                                     051B   815 ;
                                     051B   816 	NEXT_TEST_CASE	SFSNS23
SATSSF10        - SATS SYSTEM SERVICE TESTS  (FAILING S.C.)      22-AUG-1978 03:49:18   VAX-11 MACRO X0.3-11               Page  32
1.0             SFSNS23                                                                                                          (1)

                                     0527   817 ;
                                     0527   818 ;++
                                     0527   819 ; ******************************************************
                                     0527   820 ; *
                                     0527   821 ; *  TEST CASE NAME:		SFSNS23
                                     0527   822 ; *
                                     0527   823 ; *  SYSTEM SERVICE:		SNDSMB
                                     0527   824 ; *
                                     0527   825 ; *  ARGUMENT UNDER TEST: 	CHAN_SNS23
                                     0527   826 ; *
                                     0527   827 ; *  INPUT CONDITIONS:
                                     0527   828 ; *	INVALID CHANNEL NUMBER (-1)
                                     0527   829 ; *
                                     0527   830 ; *  EXPECTED RESULTS:
                                     0527   831 ; *	1) SYSTEM STATUS CODE:	IVCHAN
                                     0527   832 ; *	2) REGISTERS R2 THROUGH FP UNCHANGED
                                     0527   833 ; *
                                     0527   834 ; ******************************************************
                                     0527   835 ;--
                                     0527   836 ;
                                     0527   837 	MODE	TO,20$,KRNL,NOREGS	; KERNEL MODE FOR $DELMBX
                                     0544   838 	$DELMBX_S CHAN=CHAN_SNS22	; DELETE MAILBOX CREATED IN SFSNS22
                                     0552   839 	$DASSGN_S CHAN=CHAN_SNS22	; ........
                                     0560   840 	MODE	FROM,20$		; BACK TO USER MODE
                                     0561   841 ;
                                     0561   842 	NEXT_TEST_CASE	SFSNS24
SATSSF10        - SATS SYSTEM SERVICE TESTS  (FAILING S.C.)      22-AUG-1978 03:49:18   VAX-11 MACRO X0.3-11               Page  33
1.0             SFSNS24                                                                                                          (1)

                                     056D   843 ;
                                     056D   844 ;++
                                     056D   845 ; ******************************************************
                                     056D   846 ; *
                                     056D   847 ; *  TEST CASE NAME:		SFSNS24
                                     056D   848 ; *
                                     056D   849 ; *  SYSTEM SERVICE:		SNDSMB
                                     056D   850 ; *
                                     056D   851 ; *  ARGUMENT UNDER TEST: 	CHAN_SNS24
                                     056D   852 ; *
                                     056D   853 ; *  INPUT CONDITIONS:
                                     056D   854 ; *	INVALID CHANNEL NUMBER (1 BILLION)
                                     056D   855 ; *
                                     056D   856 ; *  EXPECTED RESULTS:
                                     056D   857 ; *	1) SYSTEM STATUS CODE:	IVCHAN
                                     056D   858 ; *	2) REGISTERS R2 THROUGH FP UNCHANGED
                                     056D   859 ; *
                                     056D   860 ; ******************************************************
                                     056D   861 ;--
                                     056D   862 ;
                                     056D   863 ;
                                     056D   864 	TCEND
SATSSF10        - SATS SYSTEM SERVICE TESTS  (FAILING S.C.)      22-AUG-1978 03:49:18   VAX-11 MACRO X0.3-11               Page  34
1.0                                                                                                                              (1)

                                     056E   865 TS1:
                                     056E   866 	TESTSERV	SNDACC,ERR,SATS,				-
                                     056E   867                                           				-
                                     056E   868 	   <1,MSGBUF_SNA,						-
                                     056E   869 	        	MSGBUF_SNA10,ACCVIO,	-  ; SFSNA10
                                     056E   870 	        	MSGBUF_SNA11,BADPARAM,	-  ; SFSNA11
                                     056E   871 	        	MSGBUF_SNA12,BADPARAM,	-  ; SFSNA12
                                     056E   872                                                   >,			-
                                     056E   873                                           				-
                                     056E   874 	   <1,CHAN_SNA,						-
                                     056E   875 	        	CHAN_SNA20,DEVNOTMBX,	-  ; SFSNA20
                                     056E   876 	        	CHAN_SNA21,IVCHAN,	-  ; SFSNA21
                                     056E   877 	        	CHAN_SNA22,NOPRIV,	-  ; SFSNA22
                                     056E   878 	        	CHAN_SNA23,IVCHAN,	-  ; SFSNA23
                                     056E   879 	        	CHAN_SNA24,IVCHAN,	-  ; SFSNA24
                                     056E   880                                                   >,			-
                                     056E   881
                                     06F4   882 	TS_CLEANUP		; CLEAN UP & RETURN TO TEST_SERV_EXEC
SATSSF10        - SATS SYSTEM SERVICE TESTS  (FAILING S.C.)      22-AUG-1978 03:49:18   VAX-11 MACRO X0.3-11               Page  35
1.0                                                                                                                              (1)

                                     0714   883 TS2:
                                     0714   884 	TESTSERV	SNDOPR,ERR,SATS,				-
                                     0714   885                                           				-
                                     0714   886 	   <1,MSGBUF_SNO,						-
                                     0714   887 	        	MSGBUF_SNO10,ACCVIO,	-  ; SFSNO10
                                     0714   888 	        	MSGBUF_SNO11,BADPARAM,	-  ; SFSNO11
                                     0714   889 	        	MSGBUF_SNO12,BADPARAM,	-  ; SFSNO12
                                     0714   890                                                   >,			-
                                     0714   891                                           				-
                                     0714   892 	   <1,CHAN_SNO,						-
                                     0714   893 	        	CHAN_SNO20,DEVNOTMBX,	-  ; SFSNO20
                                     0714   894 	        	CHAN_SNO21,IVCHAN,	-  ; SFSNO21
                                     0714   895 	        	CHAN_SNO22,NOPRIV,	-  ; SFSNO22
                                     0714   896 	        	CHAN_SNO23,IVCHAN,	-  ; SFSNO23
                                     0714   897 	        	CHAN_SNO24,IVCHAN,	-  ; SFSNO24
                                     0714   898                                                   >,			-
                                     0714   899
                                     089A   900 	TS_CLEANUP		; CLEAN UP & RETURN TO TEST_SERV_EXEC
SATSSF10        - SATS SYSTEM SERVICE TESTS  (FAILING S.C.)      22-AUG-1978 03:49:18   VAX-11 MACRO X0.3-11               Page  36
1.0                                                                                                                              (1)

                                     08BA   901 TS3:
                                     08BA   902 	TESTSERV	SNDSMB,ERR,SATS,				-
                                     08BA   903                                           				-
                                     08BA   904 	   <1,MSGBUF_SNS,						-
                                     08BA   905 	        	MSGBUF_SNS10,ACCVIO,	-  ; SFSNS10
                                     08BA   906 	        	MSGBUF_SNS11,BADPARAM,	-  ; SFSNS11
                                     08BA   907 	        	MSGBUF_SNS12,BADPARAM,	-  ; SFSNS12
                                     08BA   908                                                   >,			-
                                     08BA   909                                           				-
                                     08BA   910 	   <1,CHAN_SNS,						-
                                     08BA   911 	        	CHAN_SNS20,DEVNOTMBX,	-  ; SFSNS20
                                     08BA   912 	        	CHAN_SNS21,IVCHAN,	-  ; SFSNS21
                                     08BA   913 	        	CHAN_SNS22,NOPRIV,	-  ; SFSNS22
                                     08BA   914 	        	CHAN_SNS23,IVCHAN,	-  ; SFSNS23
                                     08BA   915 	        	CHAN_SNS24,IVCHAN,	-  ; SFSNS24
                                     08BA   916                                                   >,			-
                                     08BA   917
                                     0A40   918 	TS_CLEANUP		; CLEAN UP & RETURN TO TEST_SERV_EXEC
SATSSF10        - SATS SYSTEM SERVICE TESTS  (FAILING S.C.)      22-AUG-1978 03:49:18   VAX-11 MACRO X0.3-11               Page  37
1.0             EXECUTE & CLEANUP                                                                                                (1)

                                     0A60   919 	.SBTTL	EXECUTE & CLEANUP
                                     0A60   920 EXECUTE:
                                     0A60   921 	TEST_SERV_EXEC			; EXECUTE ALL T. CASES IN ALL GROUPS
                                     0A7E   922 	.MDELETE (PRIV,TC_GROUP,NEXT_TEST_CASE, -
                           0000000D  0A7E   923 		  TCEND,TESTSERV,TS_CLEANUP,TEST_SERV_EXEC)
                                     0A7E   924 					; DELETE MACRO DEFINITIONS
                                     0A7E   925 CLEANUP:
                          0138   30  0A7E   926 	BSBW	MOD_MSG_PRINT		; PRINT TEST MODULE END MSG
            1C            01     F0  0A81   927 	INSV	#1,#STS$V_INHIB_MSG,#1,MOD_MSG_CODE
   00000044'EF            01         0A84
                                     0A8A   928 					; INHIBIT PRINTING
                                     0A8A   929 	$EXIT_S	MOD_MSG_CODE		; EXIT TO OP SYS WITH MSG CODE
SATSSF10        - SATS SYSTEM SERVICE TESTS  (FAILING S.C.)      22-AUG-1978 03:49:18   VAX-11 MACRO X0.3-11               Page  38
1.0             TC_CONTROL                                                                                                       (1)

                                     0A97   931 	.SBTTL	TC_CONTROL
                                     0A97   932 ;++
                                     0A97   933 ; FUNCTIONAL DESCRIPTION:
                                     0A97   934 ;
                                     0A97   935 ;		THE TC_CONTROL SUBROUTINE IS CALLED BY THE TEST_SERV_EXEC
                                     0A97   936 ; MACRO TO EXECUTE A GROUP OF TEST CASES. A GROUP IS DEFINED BY A TC_GROUP
                                     0A97   937 ; MACRO. FOR EACH TC_GROUP MACRO, THERE IS A CORRESPONDING TESTSERV MACRO.
                                     0A97   938 ; TESTSERV CONTAINS CODE TO EXECUTE SYSTEM SERVICES AND CHECK THE RETURNED
                                     0A97   939 ; STATUS CODE VALUES. TESTSERV ARGUMENTS ARE CODED TO SPECIFY ALL THE SYSTEM
                                     0A97   940 ; SERVICE ARGUMENT VALUES AND THE EXPECTED STATUS CODE FOR EACH TEST CASE
                                     0A97   941 ; DEFINED BY A NEXT_TEST_CASE MACRO WITHIN THE GROUP. TC_CONTROL USES A
                                     0A97   942 ; CO-ROUTINE INTERFACE TO ENTER THE CODE OF THE APPROPRIATE TESTSERV MACRO
                                     0A97   943 ; IN VARIOUS PLACES. THE FIRST ENTRY OCCURS ONCE PER GROUP TO ALLOW TESTSERV
                                     0A97   944 ; TO DO SOME INITIALIZATION. THEN TWO ENTRIES ARE MADE FOR EACH TEST CASE IN
                                     0A97   945 ; THE GROUP. THE FIRST ALLOWS TESTSERV TO ISSUE THE SUBJECT SYSTEM SERVICE.
                                     0A97   946 ; THE SECOND ENTRY FOR THE TEST CASE CAUSES TESTSERV TO CHECK THE RETURNED
                                     0A97   947 ; STATUS CODE, PRINTING A FAILURE MESSAGE IF IT IS NOT THE EXPECTED CODE.
                                     0A97   948 ; IF THERE ARE NO MORE TEST CASES IN THE CURRENT GROUP, TESTSERV (NOT TC_CONTROL)
                                     0A97   949 ; RETURNS DIRECTLY TO TEST_SERV_EXEC (RSB ACTUALLY ISSUED IN TS_CLEANUP MACRO)
                                     0A97   950 ; FROM THIS SECOND ENTRY; OTHERWISE, CONTROL RETURNS TO TC_CONTROL WHICH
                                     0A97   951 ; IN TURN ENTERS TESTSERV AGAIN FOR THE NEXT TEST CASE. THE FAILURE OF A
                                     0A97   952 ; TEST CASE DOES NOT CAUSE TERMINATION OF THE TEST MODULE.
                                     0A97   953 ;
                                     0A97   954 ; CALLING SEQUENCE:
                                     0A97   955 ;
                                     0A97   956 ;	BSBW TC_CONTROL (ISSUED WITHIN THE TEST_SERV_EXEC MACRO)
                                     0A97   957 ;			(RSB IS ISSUED WITHIN THE TS_CLEANUP MACRO)
                                     0A97   958 ;
                                     0A97   959 ; INPUT PARAMETERS:
                                     0A97   960 ;
                                     0A97   961 ;	NONE
                                     0A97   962 ;
                                     0A97   963 ; IMPLICIT INPUTS:
                                     0A97   964 ;
                                     0A97   965 ;	ARGUMENTS SPECIFIED ON EACH TESTSERV MACRO MAY BE VIEWED AS
                                     0A97   966 ;	INPUTS, SINCE TC_CONTROL AND TESTSERV ACT AS CO-ROUTINES.
                                     0A97   967 ;
                                     0A97   968 ; OUTPUT PARAMETERS:
                                     0A97   969 ;
                                     0A97   970 ;	SEVERITY CODE FIELD OF MOD_MSG_CODE (BITS 0,1,2) IS SET TO ERROR
                                     0A97   971 ;	IF ANY TEST CASE IN THE CURRENT GROUP FAILS; OTHERWISE IT REMAINS
                                     0A97   972 ;	SET TO SUCCESSFUL.
                                     0A97   973 ;
                                     0A97   974 ; IMPLICIT OUTPUTS:
                                     0A97   975 ;
                                     0A97   976 ;	%UETP-I-TEXT,   ERROR MESSAGES ARE WRITTEN TO SYS$OUTPUT BY
                                     0A97   977 ;			THE TESTSERV MACRO (CO-ROUTINE WITH TC_CONTROL)
                                     0A97   978 ;
                                     0A97   979 ; COMPLETION CODES:
                                     0A97   980 ;
                                     0A97   981 ;	NONE
                                     0A97   982 ;
                                     0A97   983 ; SIDE EFFECTS:
                                     0A97   984 ;
                                     0A97   985 ;	NONE
                                     0A97   986 ;
                                     0A97   987 ;--
SATSSF10        - SATS SYSTEM SERVICE TESTS  (FAILING S.C.)      22-AUG-1978 03:49:18   VAX-11 MACRO X0.3-11               Page  39
1.0             TC_CONTROL                                                                                                       (1)

                                     0A97   988
                                     0A97   989
                                     0A97   990
                                     0A97   991 TC_CONTROL:
                 00000064'EF     DD  0A97   992 	PUSHL	TS_EP			; PUSH TESTSERV ENTRY POINT
                          9E     16  0A9D   993 	JSB	@(SP)+			; ENTER TESTSERV INITIALIZATION
                                     0A9F   994 10$:					; PROCESS NEXT TEST CASE
   00000056'EF            20     90  0A9F   995 	MOVB	#^A/ /,$$TSTN$$+2 	; MAKE SURE T.C. NAME HAS A BLANK
                          002F   30  0AA6   996 	BSBW	REG_SAVE		; SAVE REGISTERS
                 00000004'FF     16  0AA9   997 	JSB	@CURRENT_TC		; JUMP TO CURRENT TEST CASE
                          0037   30  0AAF   998 	BSBW	REG_REST		; RESTORE REGS FOR TESTSERV
                          9E     16  0AB2   999 	JSB	@(SP)+			; LET TESTSERV ISSUE SYSTEM SERVICE
                          0042   30  0AB4  1000 	BSBW	REG_COMP		; COMPARE REGS TO SEE IF ...
                                     0AB7  1001 					; ... SYSTEM SERVICE CHANGED ANY
                          9E     16  0AB7  1002 	JSB	@(SP)+			; LET TESTSERV CHEK S.S. STATUS CODE
   00000056'EF            2A     91  0AB9  1003 	CMPB	#^A/*/,$$TSTN$$+2	; HAS TESTSERV INDICATED FAILURE ?
                          DD     12  0AC0  1004 	BNEQU	10$			; NO -- PROCESS NEXT TEST CASE
   00000060'EF   00000088'EF     DE  0AC2  1005 	MOVAL	TEST_MOD_FAIL,TMD_ADDR	; YES -- INDICATE FAILED IN END MSG
            00            02     F0  0ACD  1006 	INSV	#ERROR,#0,#3,MOD_MSG_CODE ; ADJUST STATUS CODE FOR ERROR
   00000044'EF            03         0AD0
                          C7     11  0AD6  1007 	BRB	10$			; LOOP BAK TO PROCESS NEXT TEST CASE
                                     0AD8  1008 ;
                                     0AD8  1009 ;   TC_CONTROL RETURNS TO TEST_SERV_EXEC VIA TESTSERV (IN TS_CLEANUP MACRO)
                                     0AD8  1010 ;
SATSSF10        - SATS SYSTEM SERVICE TESTS  (FAILING S.C.)      22-AUG-1978 03:49:18   VAX-11 MACRO X0.3-11               Page  40
1.0             SUBROUTINES                                                                                                      (1)

                                     0AD8  1012 	.SBTTL	SUBROUTINES
                                     0AD8  1013 REG_SAVE:
                                     0AD8  1014 ;
                                     0AD8  1015 ;  *****************************************************************
                                     0AD8  1016 ;  *                                                               *
                                     0AD8  1017 ;  *  SAVES R0 THRU SP IN REG_SAVE_AREA                            *
                                     0AD8  1018 ;  *                                                               *
                                     0AD8  1019 ;  *****************************************************************
                                     0AD8  1020 ;
                     7FFF 8F     BB  0AD8  1021 	PUSHR	#R0_THRU_SP		; SAVE ALL REGS ON STACK
            6E            3C     28  0ADC  1022 	MOVC3	#60,(SP),REG_SAVE_AREA	; SAVE REGS (BEFORE S.S.)
                 00000008'EF         0ADF
                     7FFF 8F     BA  0AE4  1023 	POPR	#R0_THRU_SP		; CLEAN UP STACK
                                 05  0AE8  1024 	RSB				; .... AND RETURN
                                     0AE9  1025 ;
                                     0AE9  1026 ;
                                     0AE9  1027 ;
                                     0AE9  1028 ;
                                     0AE9  1029 REG_REST:
                                     0AE9  1030 ;
                                     0AE9  1031 ;
                                     0AE9  1032 ;  *****************************************************************
                                     0AE9  1033 ;  *                                                               *
                                     0AE9  1034 ;  *  RESTORES R0 THRU SP FROM REG_SAVE_AREA                       *
                                     0AE9  1035 ;  *                                                               *
                                     0AE9  1036 ;  *****************************************************************
                                     0AE9  1037 ;
            5E            3C     C2  0AE9  1038 	SUBL2	#60,SP			; MOVE SP TO MAKE ROOM FOR REGS
   00000008'EF            3C     28  0AEC  1039 	MOVC3	#60,REG_SAVE_AREA,(SP)	; MOVE REGS ONTO STACK FOR POP
                          6E         0AF3
                     7FFF 8F     BA  0AF4  1040 	POPR	#R0_THRU_SP		; RESTORE ALL REGS FOR TESTSERV
                                 05  0AF8  1041 	RSB				; ... AND RETURN
SATSSF10        - SATS SYSTEM SERVICE TESTS  (FAILING S.C.)      22-AUG-1978 03:49:18   VAX-11 MACRO X0.3-11               Page  41
1.0             SUBROUTINES                                                                                                      (1)

                                     0AF9  1043 REG_COMP:
                                     0AF9  1044 ;
                                     0AF9  1045 ;  *****************************************************************
                                     0AF9  1046 ;  *                                                               *
                                     0AF9  1047 ;  *  1) PUSHES ALL REGS ONTO STACK                                *
                                     0AF9  1048 ;  *  2) COMPARES REGISTER IMAGES FROM STACK WITH CORRESPONDING    *
                                     0AF9  1049 ;  *       IMAGES FROM REG_SAVE_AREA FOR ALL REGISTERS SPECIFIED   *
                                     0AF9  1050 ;  *       IN REG_COMP_MASK.                                       *
                                     0AF9  1051 ;  *  3) FOR EACH UNEQUAL COMPARE, AN ERROR MESSAGE IS PRINTED     *
                                     0AF9  1052 ;  *       (USING $FAO AND $OUTPUT SYSTEM SERVICES).               *
                                     0AF9  1053 ;  *  4) POPS ALL REGS OFF OF STACK                                *
                                     0AF9  1054 ;  *                                                               *
                                     0AF9  1055 ;  *****************************************************************
                                     0AF9  1056 ;
                     7FFF 8F     BB  0AF9  1057 	PUSHR	#R0_THRU_SP		; SAVE ALL REGISTERS ON STACK
            56   00000008'EF     DE  0AFD  1058 	MOVAL	REG_SAVE_AREA,R6 	; POINT R6 TO BEG OF ...
                                     0B04  1059 					; ... REGS (BEFORE S.S.)
            54            5E     D0  0B04  1060 	MOVL	SP,R4			; POINT R4 TO BEG OF
                                     0B07  1061 					; ... REGS (AFTER S.S.)
            53         FF 8F     98  0B07  1062 	CVTBL	#-1,R3			; INITIALIZE REG_COMP_MASK INDEX
                                     0B0B  1063 REG_COMP_NEXT:
                          53     D6  0B0B  1064 	INCL	R3			; POINT TO NEXT BIT IN MASK
            53            0F     91  0B0D  1065 	CMPB	#15,R3			; END OF THE MASK ?
                          03     1A  0B10  1066 	BGTRU	REG_COMP_CONT		; NO -- CONTINUE
                          009F   31  0B12  1067 	BRW	REG_COMP_RSB		; YES -- GO TO COMMON RETURN
                                     0B15  1068 REG_COMP_CONT:
            84            86     D1  0B15  1069 	CMPL	(R6)+,(R4)+		; REG BEFORE = REG AFTER ?
                          F1     13  0B18  1070 	BEQLU	REG_COMP_NEXT		; YES -- LOOK FOR NEXT REG
   00000000'EF            53     E1  0B1A  1071 	BBC	R3,REG_COMP_MASK,REG_COMP_NEXT
                          E9         0B21
                                     0B22  1072 					; NO -- GET NEXT IF BIT NOT SET
   00000048'EF            53     D0  0B22  1073 	MOVL	R3,CLOB_REG_NO		; NO -- GIVE REG NUMBER TO FAO
   0000004C'EF         FC A6     D0  0B29  1074 	MOVL	-4(R6),REG_BEFORE_SS 	; GIVE "BEFORE" CONTENTS TO FAO
   00000050'EF         FC A4     D0  0B31  1075 	MOVL	-4(R4),REG_AFTER_SS  	; GIVE "AFTER" CONTENTS TO FAO
   00000056'EF            2A     90  0B39  1076 	MOVB	#^A/*/,$$TSTN$$+2 	; GIVE FAILURE INDIC'N IN ERROR MSG
                                     0B40  1077 ;
                                     0B40  1078 	$FAO_S	ERR_MSG_FAOCTL,OUTL,OUTD,$$SNAD$$,  -
                                     0B40  1079 		$$ASEQ$$,$$PSEQ$$,CLOB_REG_NO,REG_BEFORE_SS,REG_AFTER_SS
                                     0B73  1080 ;
       F5A3 CF       F56D CF     B0  0B73  1081 	MOVW	OUTL,OUTD		; ACTUAL OUTPUT LEN IN STRING DESC'R
                                     0B7A  1082 	PUTMSG	<#UETP$_TEXT,#1,#OUTD>	; PRINT THE MSG
       F587 CF       0084 8F     B0  0B8F  1083 	MOVW	#OUTE-OUTB,OUTD		; GET MAX LEN BACK INTO DESCRIPTOR
   00000056'EF            20     90  0B96  1084 	MOVB	#^A/ /,$$TSTN$$+2 	; REMOVE FAIL INDIC'N FOR NEXT MSG
   00000060'EF   00000088'EF     DE  0B9D  1085 	MOVAL	TEST_MOD_FAIL,TMD_ADDR	; INDICATE FAILED IN END MSG
            00            02     F0  0BA8  1086 	INSV	#ERROR,#0,#3,MOD_MSG_CODE ; ADJUST STATUS CODE FOR ERROR
   00000044'EF            03         0BAB
                          FF57   31  0BB1  1087 	BRW	REG_COMP_NEXT		; GO LOOK FOR NEXT REG TO COMPARE
                                     0BB4  1088 REG_COMP_RSB:
                     7FFF 8F     BA  0BB4  1089 	POPR	#R0_THRU_SP		; CLEAN UP STACK
                                 05  0BB8  1090 	RSB				; RETURN TO CALLER
SATSSF10        - SATS SYSTEM SERVICE TESTS  (FAILING S.C.)      22-AUG-1978 03:49:18   VAX-11 MACRO X0.3-11               Page  42
1.0             SUBROUTINES                                                                                                      (1)

                                     0BB9  1092 MOD_MSG_PRINT:
                                     0BB9  1093 ;
                                     0BB9  1094 ;  *****************************************************************
                                     0BB9  1095 ;  *                                                               *
                                     0BB9  1096 ;  *  PRINTS THE TEST MODULE BEGUN/SUCCESSFUL/FAILED MESSAGES      *
                                     0BB9  1097 ;  *	   (USING THE PUTMSG MACRO).                               *
                                     0BB9  1098 ;  *                                                               *
                                     0BB9  1099 ;  *****************************************************************
                                     0BB9  1100 ;
                                     0BB9  1101 	PUTMSG	<MOD_MSG_CODE,#2,TMN_ADDR,TMD_ADDR> ; PRINT MSG
                                 05  0BD4  1102 	RSB				; ... AND RETURN TO CALLER
                                     0BD5  1103 ;
                                     0BD5  1104 CHMRTN:
                                     0BD5  1105 ; **********************************************************
                                     0BD5  1106 ; *
                                     0BD5  1107 ; *	CHANGE MODE ROUTINE. THIS ROUTINE GETS CONTROL WHENEVER
                                     0BD5  1108 ; *	A CMKRNL, CMEXEC, OR CMSUP SYSTEM SERVICE IS ISSUED
                                     0BD5  1109 ; *	BY THE MODE MACRO ('TO' OPTION).  IT MERELY DOES
                                     0BD5  1110 ; *	A JUMP INDIRECT ON A FIELD SET UP BY MODE. IT HAS
                                     0BD5  1111 ; *	THE EFFECT OF RETURNING TO THE END OF THE MODE
                                     0BD5  1112 ; *	MACRO EXPANSION.
                                     0BD5  1113 ; *
                                     0BD5  1114 ; *************************************************************
                                     0BD5  1115 ;
                               0000  0BD5  1116 	.WORD	0			; ENTRY MASK
                 00000079'FF     17  0BD7  1117 	JMP	@CHM_CONT		; RETURN TO MODE MACRO IN NEW MODE
                                     0BDD  1118 ;
                                     0BDD  1119 ; *	RET INSTR WILL BE ISSUED IN EXPANSION OF 'MODE FROM, ....' MACRO
                                     0BDD  1120 ;
                                     0BDD  1121 	.END	SATSSF10
SATSSF10        - SATS SYSTEM SERVICE TESTS  (FAILING S.C.)      22-AUG-1978 03:49:18   VAX-11 MACRO X0.3-11               Page  43
SYMBOL TABLE                                                                                                                     (1)

$$$CHARS       = 00000048            ACC$T_PRT_NAME   00000044            NOACCESS         00000000 R     06
$$$FIRSTTC$$$  = 00000000            ACC$T_PRT_QUE    0000004C            ONES             000000B5 R     03
$$$STRINGS     = 00000000            ACC$T_USERNAME   00000020            OPC$B_MS_ENAB    00000001
$$ACT$$          000000FC R     07   ACC$T_USER_DATA  0000002C            OPC$B_MS_TARGET  00000001
$$ARG$$          00000104 R     07   ACC$W_MSGSIZ     00000002            OPC$B_MS_TYPE    00000000
$$ASEQ$$         000000F4 R     07   ACC$W_MSGTYP     00000000            OPC$L_MS_MASK    00000004
$$CALL$$         000000E8 R     07   BIT...         = 00000007            OPC$L_MS_MAXSZ   0000009A
$$DISP$$         000001EF R     07   CHAN_SNA         000000FC R     03   OPC$L_MS_OTEXT   0000001A
$$ERR$$          000001A9 R     07   CHAN_SNA20       00000091 R     04   OPC$L_MS_RPLYID  00000004
$$EXP$$          00000100 R     07   CHAN_SNA21       00000108 R     03   OPC$L_MS_RQSTID  00000004
$$INIT$$         000000EC R     07   CHAN_SNA22       00000095 R     04   OPC$L_MS_TEXT    00000008
$$MAXP$$       = 00000005            CHAN_SNA23       0000010C R     03   OPC$M_NM_CARDS = 00000020
$$PSEQ$$         000000F8 R     07   CHAN_SNA24       00000110 R     03   OPC$M_NM_CENTRL= 00000001
$$SNAD$$         000000F0 R     07   CHAN_SNO         00000100 R     03   OPC$M_NM_DEVICE= 00000010
$$T1           = 00000004            CHAN_SNO20       00000091 R     04   OPC$M_NM_DISKS = 00000008
$$T2           = 00000009            CHAN_SNO21       00000108 R     03   OPC$M_NM_NTWORK= 00000040
$$TSTN$$         00000054 R     04   CHAN_SNO22       00000095 R     04   OPC$M_NM_OPER1 = 00001000
ACC$C_INS_LEN    000000B0            CHAN_SNO23       0000010C R     03   OPC$M_NM_OPER10= 00200000
ACC$C_JOB_LEN    0000006C            CHAN_SNO24       00000110 R     03   OPC$M_NM_OPER11= 00400000
ACC$C_PRT_LEN    00000058            CHAN_SNS         00000104 R     03   OPC$M_NM_OPER12= 00800000
ACC$C_TERMLEN    00000054            CHAN_SNS20       00000091 R     04   OPC$M_NM_OPER2 = 00002000
ACC$K_BATTRM   = 00000002            CHAN_SNS21       00000108 R     03   OPC$M_NM_OPER3 = 00004000
ACC$K_DISAACC  = 00000004            CHAN_SNS22       00000095 R     04   OPC$M_NM_OPER4 = 00008000
ACC$K_DISASEL  = 00000006            CHAN_SNS23       0000010C R     03   OPC$M_NM_OPER5 = 00010000
ACC$K_ENABACC  = 00000003            CHAN_SNS24       00000110 R     03   OPC$M_NM_OPER6 = 00020000
ACC$K_ENABSEL  = 00000005            CHMRTN           00000BD5 R     07   OPC$M_NM_OPER7 = 00040000
ACC$K_INSMESG  = 00000001            CHM_CONT         00000079 R     04   OPC$M_NM_OPER8 = 00080000
ACC$K_INSMSG   = 00000011            CLEANUP          00000A7E R     07   OPC$M_NM_OPER9 = 00100000
ACC$K_INS_LEN    000000B0            CLOB_REG_NO      00000048 R     04   OPC$M_NM_PRINT = 00000002
ACC$K_INTTRM   = 00000003            CTL$GL_PHD       ********   X   07   OPC$M_NM_TAPES = 00000004
ACC$K_JOB_LEN    0000006C            CURRENT_TC       00000004 R     04   OPC$T_MS_ONAME   0000000A
ACC$K_LOGTRM   = 00000004            EMPTY            00000000 R     05   OPC$V_NM_CARDS = 00000005
ACC$K_NEWFILE  = 00000002            ERROR          = 00000002            OPC$V_NM_CENTRL= 00000000
ACC$K_PRCTRM   = 00000001            ERR_MSG_FAOCTL   00000002 R     03   OPC$V_NM_DEVICE= 00000004
ACC$K_PRTJOB   = 00000010            EXECUTE          00000A60 R     07   OPC$V_NM_DISKS = 00000003
ACC$K_PRT_LEN    00000058            GBL...         = 00000000            OPC$V_NM_NTWORK= 00000006
ACC$K_TERMLEN    00000054            GRP_TOTAL      = 00000003            OPC$V_NM_OPER1 = 0000000C
ACC$L_BIOCNT     0000003C            INADR            000000A9 R     03   OPC$V_NM_OPER10= 00000015
ACC$L_CPUTIM     0000002C            INFO           = 00000003            OPC$V_NM_OPER11= 00000016
ACC$L_DIOCNT     00000040            LIB$SIGNAL       ********   X   07   OPC$V_NM_OPER12= 00000017
ACC$L_FINALSTS   00000004            MEXIT          = 00000000            OPC$V_NM_OPER2 = 0000000D
ACC$L_GETCNT     00000038            MOD_MSG_CODE     00000044 R     04   OPC$V_NM_OPER3 = 0000000E
ACC$L_JOBID      0000000C            MOD_MSG_PRINT    00000BB9 R     07   OPC$V_NM_OPER4 = 0000000F
ACC$L_OWNER      00000050            MSGBUF_SNA       000000BD R     03   OPC$V_NM_OPER5 = 00000010
ACC$L_PAGCNT     00000030            MSGBUF_SNA10     00000008 R     06   OPC$V_NM_OPER6 = 00000011
ACC$L_PAGEFLTS   00000030            MSGBUF_SNA11     000000DC R     03   OPC$V_NM_OPER7 = 00000012
ACC$L_PGFLPEAK   00000034            MSGBUF_SNA12     000000E4 R     03   OPC$V_NM_OPER8 = 00000013
ACC$L_PID        00000008            MSGBUF_SNO       000000C7 R     03   OPC$V_NM_OPER9 = 00000014
ACC$L_QIOCNT     00000034            MSGBUF_SNO10     00000017 R     06   OPC$V_NM_PRINT = 00000001
ACC$L_VOLUMES    00000044            MSGBUF_SNO11     000000DC R     03   OPC$V_NM_TAPES = 00000002
ACC$L_WSPEAK     00000038            MSGBUF_SNO12     000000EC R     03   OPC$W_MS_OUNIT   00000008
ACC$Q_LOGIN      00000048            MSGBUF_SNS       000000D0 R     03   OPC$W_MS_STATUS  00000002
ACC$Q_QUETIME    0000003C            MSGBUF_SNS10     00000026 R     06   OPC$_DEVNOTERM = 00058074
ACC$Q_TERMTIME   00000010            MSGBUF_SNS11     000000DC R     03   OPC$_DEVOFFLINE= 0005804C
ACC$T_ACCOUNT    00000018            MSGBUF_SNS12     000000F4 R     03   OPC$_DEVONLINE = 00058054
ACC$T_JOB_NAME   00000054            MY_DISK          00000114 R     03   OPC$_ILLRQST   = 0005807C
ACC$T_JOB_QUE    0000005C            NARGS          = 00000018            OPC$_LOGCLOS   = 000580A4
SATSSF10        - SATS SYSTEM SERVICE TESTS  (FAILING S.C.)      22-AUG-1978 03:49:18   VAX-11 MACRO X0.3-11               Page  44
SYMBOL TABLE                                                                                                                     (1)

OPC$_LOGFAIL   = 00058034            PCB$V_HIBER    = 00000013            PHD$L_P1BR       000000D0
OPC$_LOGINIT   = 00058009            PCB$V_INQUAN   = 00000003            PHD$L_P1LR       000000D4
OPC$_LOGTIME   = 00058099            PCB$V_LOGIN    = 00000014            PHD$L_PAGEFLTS   0000004C
OPC$_NOCLI     = 0005805C            PCB$V_NETWRK   = 00000015            PHD$L_PAGFIL     0000001C
OPC$_NOPERATOR = 00058061            PCB$V_NOACNT   = 0000000F            PHD$L_PC         000000C0
OPC$_NOSUCHRQST= 00058044            PCB$V_NODELET  = 00000017            PHD$L_PCB        00000078
OPC$_OPREPLY   = 00058091            PCB$V_PHDRES   = 00000012            PHD$L_PGFLCNT    00000034
OPC$_OPRNOTIF  = 00058089            PCB$V_PSWAPM   = 00000004            PHD$L_PGFLQUOTA  0000005C
OPC$_RQSTABORT = 0005801C            PCB$V_PWRAST   = 00000016            PHD$L_PSL        000000C4
OPC$_RQSTCAN   = 00058084            PCB$V_RES      = 00000000            PHD$L_PSTBASOFF  00000020
OPC$_RQSTCMPLTE= 00058029            PCB$V_RESPEN   = 00000005            PHD$L_PTWSLELCK  00000064
OPC$_RQSTPEND  = 00058021            PCB$V_SSFEXC   = 00000006            PHD$L_PTWSLEVAL  00000068
OPC$_RQ_CANCEL = 00000005            PCB$V_SSFEXCE  = 00000007            PHD$L_R0         00000088
OPC$_RQ_LOGI   = 00000002            PCB$V_SSFEXCS  = 00000008            PHD$L_R1         0000008C
OPC$_RQ_REPLY  = 00000004            PCB$V_SSFEXCU  = 00000009            PHD$L_R10        000000B0
OPC$_RQ_RQST   = 00000003            PCB$V_SSRWAIT  = 0000000A            PHD$L_R11        000000B4
OPC$_RQ_STATUS = 00000006            PCB$V_SUSPEN   = 0000000B            PHD$L_R12        000000B8
OPC$_RQ_TERME  = 00000001            PCB$V_SWPVBN   = 00000010            PHD$L_R13        000000BC
OPC$_TERMDSBL  = 00058011            PCB$V_WAKEPEN  = 0000000C            PHD$L_R2         00000090
OPC$_TERMENAB  = 00058001            PCB$V_WALL     = 0000000D            PHD$L_R3         00000094
OPC$_TERMFAIL  = 0005803C            PCB$W_APTCNT     00000034            PHD$L_R4         00000098
OPC$_UNKNOPR   = 0005806C            PCB$W_ASTCNT     0000003C            PHD$L_R5         0000009C
OUTB             00000125 R     07   PCB$W_BIOCNT     0000003E            PHD$L_R6         000000A0
OUTD             0000011D R     07   PCB$W_BIOLM      00000040            PHD$L_R7         000000A4
OUTE             000001A9 R     07   PCB$W_BYTCNT     00000042            PHD$L_R8         000000A8
OUTL             000000E4 R     07   PCB$W_BYTLM      00000068            PHD$L_R9         000000AC
PCB$B_ASTACT     0000000C            PCB$W_DIOCNT     00000044            PHD$L_REFERFLT   00000014
PCB$B_ASTEN      0000000D            PCB$W_DIOLM      00000046            PHD$L_SSP        00000080
PCB$B_PRI        0000000B            PCB$W_FILCNT     00000048            PHD$L_USP        00000084
PCB$B_PRIB       00000033            PCB$W_GPGCNT     00000038            PHD$L_WSL        00000118
PCB$B_TYPE       0000000A            PCB$W_GRP        00000022            PHD$M_DALCSTX  = 00000002
PCB$B_WEFC       00000032            PCB$W_MEM        00000020            PHD$M_PFMFLG   = 00000001
PCB$C_LENGTH     0000007C            PCB$W_MTXCNT     0000000E            PHD$M_WSPEAKCHK= 00000004
PCB$K_LENGTH     0000007C            PCB$W_PPGCNT     0000003A            PHD$Q_PRIVMSK    00000000
PCB$L_ASTQBL     00000014            PCB$W_PRCCNT     0000006A            PHD$S_ASTLVL   = 00000008
PCB$L_ASTQFL     00000010            PCB$W_SIZE       00000008            PHD$S_P0LR     = 00000018
PCB$L_EFC2P      00000058            PCB$W_STATE      00000030            PHD$V_ASTLVL   = 00000018
PCB$L_EFC3P      0000005C            PCB$W_TMBU       00000036            PHD$V_DALCSTX  = 00000001
PCB$L_EFCS       00000050            PCB$W_TQCNT      0000004A            PHD$V_P0LR     = 00000000
PCB$L_EFCU       00000054            PHD$B_ASTLVL     000000CF            PHD$V_PFMFLG   = 00000000
PCB$L_EFWM       0000004C            PHD$B_DFPFC      00000038            PHD$V_WSPEAKCHK= 00000002
PCB$L_OWNER      0000001C            PHD$B_PAGFIL     0000001F            PHD$W_ASTLM      00000044
PCB$L_PHD        00000064            PHD$B_PGTBPFC    00000039            PHD$W_BAK        00000048
PCB$L_PHYPCB     00000018            PHD$C_LENGTH     00000118            PHD$W_DFWSCNT    0000001A
PCB$L_PID        00000060            PHD$C_PHDPAGCTX= 00000008            PHD$W_EMPTPG     000000D8
PCB$L_PQB        0000004C            PHD$K_LENGTH     00000118            PHD$W_EXTDYNWS   00000076
PCB$L_SQBL       00000004            PHD$L_BIOCNT     00000054            PHD$W_FILLM      00000060
PCB$L_SQFL       00000000            PHD$L_CPULIM     00000058            PHD$W_FLAGS      0000003A
PCB$L_STS        00000028            PHD$L_CPUTIM     0000003C            PHD$W_PHVINDEX   00000046
PCB$L_UIC        00000020            PHD$L_DIOCNT     00000050            PHD$W_PRCLM      00000042
PCB$L_WSSWP      00000024            PHD$L_ESP        0000007C            PHD$W_PST        00000020
PCB$L_WTIME      0000002C            PHD$L_FREP0VA    00000028            PHD$W_PSTBASMAX  0000004A
PCB$T_LNAME      0000006C            PHD$L_FREP1VA    00000030            PHD$W_PSTFREE    00000026
PCB$V_ASTPEN   = 00000011            PHD$L_FREPTECNT  0000002C            PHD$W_PSTLAST    00000024
PCB$V_BATCH    = 0000000E            PHD$L_KSP        00000078            PHD$W_PTCNTACT   00000070
PCB$V_DELPEN   = 00000001            PHD$L_P0BR       000000C8            PHD$W_PTCNTLCK   0000006C
PCB$V_FORCPEN  = 00000002            PHD$L_P0LRASTL   000000CC            PHD$W_PTCNTMAX   00000072
SATSSF10        - SATS SYSTEM SERVICE TESTS  (FAILING S.C.)      22-AUG-1978 03:49:18   VAX-11 MACRO X0.3-11               Page  45
SYMBOL TABLE                                                                                                                     (1)

PHD$W_PTCNTVAL   0000006E            SHR$K_SHRDEF   = 00000001            SHR$_OPENIN    = 00001098
PHD$W_QUANT      00000040            SHR$_ABEND     = 000010D8            SHR$_OPENOUT   = 000010A0
PHD$W_TQLM       00000062            SHR$_ABENDD    = 000010E0            SHR$_OVERLAY   = 000010A8
PHD$W_WSAUTH     0000000A            SHR$_ABENDT    = 000010E8            SHR$_PARSEFAIL = 00001248
PHD$W_WSDYN      0000000E            SHR$_APPENDEDB = 00001000            SHR$_PURGEVER  = 00001210
PHD$W_WSFLUID    00000074            SHR$_APPENDEDR = 00001008            SHR$_READERR   = 000010B0
PHD$W_WSLAST     00000012            SHR$_ATPC      = 00001158            SHR$_RELCONCAT = 00001140
PHD$W_WSLIST     00000008            SHR$_BADBYTE   = 00001010            SHR$_REPLACED  = 000010B8
PHD$W_WSLOCK     0000000C            SHR$_BADCOPIES = 00001160            SHR$_RMSERROR  = 000011C8
PHD$W_WSLX       0000004A            SHR$_BADDELIM  = 00001118            SHR$_SEARCHFAIL= 00001238
PHD$W_WSNEXT     00000010            SHR$_BADFIELD  = 00001018            SHR$_SYNTAX    = 000010F8
PHD$W_WSQUOTA    00000018            SHR$_BADFORM   = 00001168            SHR$_SYSERROR  = 000011B0
PRIVMASK         00000071 R     04   SHR$_BADJOBID  = 00001170            SHR$_SYSERRORPC= 000010F0
PROT             000000B1 R     03   SHR$_BADJOBNAME= 00001178            SHR$_TEXT      = 00001130
PRT$C_NA         ********   X   03   SHR$_BADKEY    = 00001108            SHR$_UNXPCTSTS = 000011D0
PRV$V_ALLSPOOL = 00000004            SHR$_BADLOGIC  = 00001120            SHR$_VALERR    = 000011E8
PRV$V_BUGCHK   = 00000017            SHR$_BADLOGICPC= 00001150            SHR$_WILDCONCAT= 000010C0
PRV$V_CMEXEC   = 00000001            SHR$_BADLONG   = 00001020            SHR$_WILDOUTVER= 000010C8
PRV$V_CMKRNL   = 00000000            SHR$_BADPRTY   = 00001180            SHR$_WRITEERR  = 000010D0
PRV$V_DETACH   = 00000005            SHR$_BADQNAME  = 00001188            SS$_ACCVIO       ********   X   07
PRV$V_DIAGNOSE = 00000006            SHR$_BADTIME   = 00001190            SS$_BADPARAM     ********   X   07
PRV$V_EXQUOTA  = 00000013            SHR$_BADVALUE  = 00001110            SS$_DEVNOTMBX    ********   X   07
PRV$V_GROUP    = 00000008            SHR$_BADWORD   = 00001028            SS$_IVCHAN       ********   X   07
PRV$V_GRPNAM   = 00000003            SHR$_BEGIN     = 00001030            SS$_NOPRIV       ********   X   07
PRV$V_LOG_IO   = 00000007            SHR$_BEGIND    = 00001038            STS$K_ERROR    = 00000002
PRV$V_MOUNT    = 00000011            SHR$_BEGINT    = 00001040            STS$K_INFO     = 00000003
PRV$V_NETMBX   = 00000014            SHR$_CLICB     = 00001048            STS$K_SEVERE   = 00000004
PRV$V_NOACNT   = 00000009            SHR$_CLOSEDEL  = 00001218            STS$K_SUCCESS  = 00000001
PRV$V_OPER     = 00000012            SHR$_CLOSEIN   = 00001050            STS$K_WARNING  = 00000000
PRV$V_PHY_IO   = 00000016            SHR$_CLOSEOUT  = 00001058            STS$M_CODE     = 00007FF8
PRV$V_PRMCEB   = 0000000A            SHR$_CONFDEL   = 000011F8            STS$M_COND_ID  = 0FFFFFF8
PRV$V_PRMGBL   = 00000018            SHR$_COPIEDB   = 00001060            STS$M_CONTROL  = F0000000
PRV$V_PRMMBX   = 0000000B            SHR$_COPIEDR   = 00001068            STS$M_CUST_DEF = 08000000
PRV$V_PSWAPM   = 0000000C            SHR$_CREATED   = 00001070            STS$M_FAC_NO   = 0FFF0000
PRV$V_SETPRI   = 0000000D            SHR$_DELETED   = 00001200            STS$M_FAC_SP   = 00008000
PRV$V_SETPRV   = 0000000E            SHR$_DELINTERR = 00001240            STS$M_INHIB_MSG= 10000000
PRV$V_SYSGBL   = 00000019            SHR$_DELVER    = 00001208            STS$M_MSG_NO   = 0000FFF8
PRV$V_SYSNAM   = 00000002            SHR$_DIRTOOBUS = 00001220            STS$M_SEVERITY = 00000007
PRV$V_TMPMBX   = 0000000F            SHR$_ENDED     = 00001078            STS$M_SUCCESS  = 00000001
PRV$V_VOLPRO   = 00000015            SHR$_ENDEDD    = 00001080            STS$S_CODE     = 0000000C
PRV$V_WORLD    = 00000010            SHR$_ENDEDT    = 00001088            STS$S_COND_ID  = 00000019
PRVPRT           00000070 R     04   SHR$_FILNOTDEL = 000011F0            STS$S_CONTROL  = 00000004
R0_THRU_SP     = 00007FFF            SHR$_FILNOTPUR = 00001230            STS$S_CUST_DEF = 00000001
REGS             0000007D R     04   SHR$_FILPURGED = 00001250            STS$S_FAC_NO   = 0000000C
REG_AFTER_SS     00000050 R     04   SHR$_HASHCONCAT= 000011D8            STS$S_FAC_SP   = 00000001
REG_BEFORE_SS    0000004C R     04   SHR$_HIGHVER   = 00001148            STS$S_INHIB_MSG= 00000001
REG_COMP         00000AF9 R     07   SHR$_IDXCONCAT = 00001138            STS$S_MSG_NO   = 0000000D
REG_COMP_CONT    00000B15 R     07   SHR$_INCOMPAT  = 000011E0            STS$S_SEVERITY = 00000003
REG_COMP_MASK    00000000 R     03   SHR$_NEWFILES  = 00001090            STS$S_SUCCESS  = 00000001
REG_COMP_NEXT    00000B0B R     07   SHR$_NOFILPURG = 00001228            STS$V_CODE     = 00000003
REG_COMP_RSB     00000BB4 R     07   SHR$_NOJOBID   = 000011A0            STS$V_COND_ID  = 00000003
REG_REST         00000AE9 R     07   SHR$_NOJOBNAME = 000011A8            STS$V_CONTROL  = 0000001C
REG_SAVE         00000AD8 R     07   SHR$_NOQUEUE   = 00001198            STS$V_CUST_DEF = 0000001B
REG_SAVE_AREA    00000008 R     04   SHR$_NOTCMPLT  = 000011C0            STS$V_FAC_NO   = 00000010
RETADR           00000068 R     04   SHR$_NOTCOPIED = 000011B8            STS$V_FAC_SP   = 0000000F
SATSSF10         00000000 R     07   SHR$_NOVALUE   = 00001100            STS$V_INHIB_MSG= 0000001C
SEVERE         = 00000004            SHR$_NOWILD    = 00001128            STS$V_MSG_NO   = 00000003
SATSSF10        - SATS SYSTEM SERVICE TESTS  (FAILING S.C.)      22-AUG-1978 03:49:18   VAX-11 MACRO X0.3-11               Page  46
SYMBOL TABLE                                                                                                                     (1)

STS$V_SEVERITY = 00000000
STS$V_SUCCESS  = 00000000
SUCCESS        = 00000001
SYS$ASSIGN       ********   X   07
SYS$CMKRNL       ********   X   07
SYS$CREMBX       ********   X   07
SYS$DASSGN       ********   X   07
SYS$DELMBX       ********   X   07
SYS$EXIT         ********   X   07
SYS$FAO          ********   X   07
SYS$FAOL         ********   X   07
SYS$HIBER        ********   X   07
SYS$SETPRN       ********   X   07
SYS$SETPRT       ********   X   07
SYS$SNDACC       ********   X   07
SYS$SNDOPR       ********   X   07
SYS$SNDSMB       ********   X   07
SYS$WAKE         ********   X   07
TC1              0000024A R     07
TC2              00000356 R     07
TC3              00000462 R     07
TCG_NO         = 00000003
TC_CONTROL       00000A97 R     07
TEST_MOD_BEG     00000077 R     03
TEST_MOD_FAIL    00000088 R     03
TEST_MOD_NAME    0000006E R     03
TEST_MOD_NAME_D  0000008F R     03
TEST_MOD_SUCC    0000007D R     03
TMD_ADDR         00000060 R     04
TMN_ADDR         0000005C R     04
TPID             00000000 R     04
TS1              0000056E R     07
TS2              00000714 R     07
TS3              000008BA R     07
TS_EP            00000064 R     04
TTNAME           0000009F R     03
UETP$_ABORTC   = 0074832B
UETP$_CONF     = 007480D1
UETP$_DATAER   = 00748010
UETP$_DDB      = 007480E1
UETP$_DENOSU   = 00748333
UETP$_DESTP    = 007481A2
UETP$_DEUNUS   = 0074819A
UETP$_ERBOX    = 00748008
UETP$_SATSMS   = 007480D9
UETP$_TEXT     = 00741133
UETP$_UCB      = 007480E9
UETP$_USER     = 0074833B
WARNING        = 00000000


PROGRAM SECTION SYNOPSIS

.  ABS  .        00000000      00     NOPIC   USR   CON   ABS   LCL NOSHR NOEXE NORD  NOWRT BYTE
. BLANK .        00000000      01     NOPIC   USR   CON   REL   LCL NOSHR   EXE   RD    WRT BYTE
$ABS$            0000011C      02     NOPIC   USR   CON   ABS   LCL NOSHR   EXE   RD    WRT BYTE
RODATA           00000124      03     NOPIC   USR   CON   REL   LCL NOSHR NOEXE   RD  NOWRT LONG
SATSSF10        - SATS SYSTEM SERVICE TESTS  (FAILING S.C.)      22-AUG-1978 03:49:18   VAX-11 MACRO X0.3-11               Page  47
PROGRAM SECTION SYNOPSIS                                                                                                         (1)

RWDATA           00000099      04     NOPIC   USR   CON   REL   LCL NOSHR NOEXE   RD    WRT BYTE
SATS_ACCVIO_1    00000200      05     NOPIC   USR   CON   REL   LCL NOSHR NOEXE   RD    WRT PAGE
SATS_ACCVIO_2    00000200      06     NOPIC   USR   CON   REL   LCL NOSHR NOEXE   RD    WRT PAGE
SATSSF10         00000BDD      07     NOPIC   USR   CON   REL   LCL NOSHR   EXE   RD    WRT LONG


THERE WERE NO ERRORS OR WARNINGS.
930. BYTES LEFT IN FREE MEMORY POOL.
2960. BYTES OF RECLAIMED MEMORY.
OBJ$:SATSSF10,LIS$:SATSSF10/-SP=EXECML$/ML,LIB$:SYSTST.MLB/ML,SRC$:SATSSF10
109 MLB DIR RDS - 1442 GETS TO DEFINE 54 MACROS. 89 INTER. FILE WRITES.
