SUCCOMMON       SATS SYSTEM SERVICE TESTS   COMMON (SUCC S.C.)   22-AUG-1978 03:58:01   VAX-11 MACRO X0.3-11               Page   0
TABLE OF CONTENTS

   (1)      46  DECLARATIONS
   (1)     121  SUCCOMMON
   (1)     278  SUBROUTINES
SUCCOMMON       SATS SYSTEM SERVICE TESTS   COMMON (SUCC S.C.)   22-AUG-1978 03:58:01   VAX-11 MACRO X0.3-11               Page   1
1.0                                                                                                                              (1)

                                     0000     1 	.TITLE	SUCCOMMON SATS SYSTEM SERVICE TESTS   COMMON (SUCC S.C.)
                                     0000     2 	.IDENT	/1.0/
                                     0000     3
                                     0000     4 ;
                                     0000     5 ;			  COPYRIGHT (c) 1977,1978 BY
                                     0000     6 ;	      DIGITAL EQUIPMENT CORPORATION, MAYNARD, MASS.
                                     0000     7 ;
                                     0000     8 ; THIS SOFTWARE IS FURNISHED UNDER A LICENSE AND MAY BE USED AND  COPIED
                                     0000     9 ; ONLY  IN  ACCORDANCE  WITH  THE  TERMS  OF  SUCH  LICENSE AND WITH THE
                                     0000    10 ; INCLUSION OF THE ABOVE COPYRIGHT NOTICE.  THIS SOFTWARE OR  ANY  OTHER
                                     0000    11 ; COPIES  THEREOF MAY NOT BE PROVIDED OR OTHERWISE MADE AVAILABLE TO ANY
                                     0000    12 ; OTHER PERSON.  NO TITLE TO AND OWNERSHIP OF  THE  SOFTWARE  IS  HEREBY
                                     0000    13 ; TRANSFERRED.
                                     0000    14 ;
                                     0000    15 ; THE INFORMATION IN THIS SOFTWARE IS SUBJECT TO CHANGE  WITHOUT  NOTICE
                                     0000    16 ; AND  SHOULD  NOT  BE  CONSTRUED  AS  A COMMITMENT BY DIGITAL EQUIPMENT
                                     0000    17 ; CORPORATION.
                                     0000    18 ;
                                     0000    19 ; DIGITAL ASSUMES NO RESPONSIBILITY FOR THE USE OR  RELIABILITY  OF  ITS
                                     0000    20 ; SOFTWARE ON EQUIPMENT WHICH IS NOT SUPPLIED BY DIGITAL.
                                     0000    21 ;
                                     0000    22
                                     0000    23 ;++
                                     0000    24 ; FACILITY:	SYSTST (SATS SYSTEM SERVICE TESTS)
                                     0000    25 ;
                                     0000    26 ; ABSTRACT:
                                     0000    27 ;
                                     0000    28 ;		THE SUCCOMMON MODULE CONTAINS SUBROUTINES WHICH, WHEN
                                     0000    29 ; LINKED WITH EACH OF THE OBJECT MODULES SATSSS__.OBJ, FORM THE TEST
                                     0000    30 ; MODULES SATSSS__.EXE TO TEST SUCCESSFUL OPERATION OF THE VMS SYSTEM
                                     0000    31 ; SERVICES. THE SUCCOMMON MODULE CONTAINS SEVERAL COMMON SUBROUTINES
                                     0000    32 ; USED BY EACH OF THE SATSSS__ MODULES PLUS THE SUCCOMMON ROUTINE,
                                     0000    33 ; WHICH DISTRIBUTES CONTROL TO ALL SUBROUTINES.
                                     0000    34 ;
                                     0000    35 ; ENVIRONMENT:	USER MODE IMAGE; NEEDS CMKRNL PRIVILEGE,
                                     0000    36 ;		DYNAMICALLY ACQUIRES OTHER PRIVILEGES, AS NEEDED.
                                     0000    37 ;
                                     0000    38 ; AUTHOR: THOMAS L. CAFARELLA,		CREATION DATE: APR, 1977
                                     0000    39 ;
                                     0000    40 ; MODIFIED BY:
                                     0000    41 ;
                                     0000    42 ;	, : VERSION
                                     0000    43 ; 01	-
                                     0000    44 ;--
SUCCOMMON       SATS SYSTEM SERVICE TESTS   COMMON (SUCC S.C.)   22-AUG-1978 03:58:01   VAX-11 MACRO X0.3-11               Page   2
1.0             DECLARATIONS                                                                                                     (1)

                                     0000    46 	.SBTTL	DECLARATIONS
                                     0000    47 ;
                                     0000    48 ; INCLUDE FILES:
                                     0000    49 ;
                                     0000    50 	$STSDEF				; DEFINE MSG CODE SYMBOLS
                                     0000    51 	$UETPDEF			; GENERATE UETP MESSAGE DEFS
                                     0000    52 	$SHR_MESSAGES UETP,116,<<TEXT,INFO>> ; DEFINE UETP$_TEXT MSG
                                     0000    53 ;
                                     0000    54 ; MACROS:
                                     0000    55 ;
                                     0000    56 ;
                                     0000    57 ; EQUATED SYMBOLS:
                                     0000    58 ;
                           00000000  0000    59 WARNING		= 0			; WARNING SEVERITY VALUE
                           00000001  0000    60 SUCCESS		== 1			; SUCCESS SEVERITY VALUE
                           00000002  0000    61 ERROR		= 2			; ERROR SEVERITY VALUE
                           00000003  0000    62 INFO		= 3			; INFORMATIONAL SEVERITY VALUE
                           00000004  0000    63 SEVERE		= 4			; SEVERE (FATAL) SEVERITY VALUE
                           00000082  0000    64 BUFFL		= 130			; LENGTH OF FAO OUTPUT BUFFER
                           0000000C  0000    65 CMPC_SAV	== ^M<R2,R3>		; REGISTER SAVE MASK FOR CMPC INSTRUCTION
                           00007FFF  0000    66 R0_THRU_SP	== ^M<R0,R1,R2,R3,R4,R5,R6,R7,R8,R9,R10,R11,AP,FP,SP>
                                     0000    67 ;
                                     0000    68 ; OWN STORAGE:
                                     0000    69 ;
SUCCOMMON       SATS SYSTEM SERVICE TESTS   COMMON (SUCC S.C.)   22-AUG-1978 03:58:01   VAX-11 MACRO X0.3-11               Page   3
1.0             DECLARATIONS                                                                                                     (1)

                                 00000000    71 	.PSECT	ROD_COMM,RD,NOWRT,NOEXE,LONG
                  FFFFFFFF FFFFFFFF  0000    72 ONES::		.LONG	-1,-1		; A QUADWORD OF 1 BITS
                                     0008    73 TEST_MOD_BEG:	STRING	C,<begun>	; DISPOSITION FIELD OF TEST MOD MSG
                                     000E    74 TEST_MOD_SUCC::	STRING	C,<successful>	; DISPOSITION FIELD OF TEST MOD MSG
                                     0019    75 TEST_MOD_FAIL:	STRING	C,<failed>	; DISPOSITION FIELD OF TEST MOD MSG
                                     0020    76 MSG2_CND_CTL1:	STRING	I,<!15* !AC: !AC> ; FIRST FORM OF MSG2
                                     0035    77 MSG2_CND_CTL2:	STRING	I,<!15* !AC ARGUMENT; !AC: !AS>
                                     0058    78 					; SECOND FORM OF MSG2
                                     0058    79 MSG2_CND_CTL3:	STRING	I,<!15* !AC ARGUMENT; !AC: !#(#XL)>
                                     007F    80 					; THIRD FORM OF MSG2
                                     007F    81 					; NOTE MSG3_ERR_CTL IS IN A DIFF PSECT
                                     007F    82 MSG4_ERR_CTL1:	STRING	I,<!15* !AC VALUE: !AS>
                                     009A    83 					; FIRST FORM FOR MSG4
                                     009A    84 MSG4_ERR_CTL2:	STRING	I,<!15* !AC VALUE: !#(#XL)>
                                     00B9    85 					; 2ND FORM FOR MSG4
                                     00B9    86 EXP:		STRING	C,<EXPECTED>	; COUNTED STRING FOR MSG4
                                     00C2    87 REC:		STRING	C,<RECEIVED>	; COUNTED STRING FOR MSG4
                                     00CB    88 APC:		STRING	C,<APPROXIMATE PC> ; COUNTED STRING FOR MSG 4
SUCCOMMON       SATS SYSTEM SERVICE TESTS   COMMON (SUCC S.C.)   22-AUG-1978 03:58:01   VAX-11 MACRO X0.3-11               Page   4
1.0             DECLARATIONS                                                                                                     (1)

                                 00000000    90 	.PSECT	RWD_COMM,RD,WRT,NOEXE,LONG
                           0000003C  0000    91 REG_SAVE_AREA:	.BLKL	15		; SAVE AREA FOR ALL REGS (SANS PC)
                               0000  003C    92 TESTNUM::	.WORD	0		; SEQUENTIAL TEST NUMBER
                           00000042  003E    93 CHM_CONT::	.BLKL	1		; CHANGE MODE CONTINUE ADDRESS
                           007480D9  0042    94 MOD_MSG_CODE::	.LONG	UETP$_SATSMS	; TEST MODULE MSG CODE FOR PUTMSG
                           00000000' 0046    95 TMN_ADDR:	.ADDRESS TEST_MOD_NAME	; ADDR OF TEST MOD NAME FOR FAO
                           00000008' 004A    96 TMD_ADDR::	.ADDRESS TEST_MOD_BEG	; ADDR OF T.M. DISP FIELD FOR FAO
                           00000052  004E    97 FAO_LEN::	.BLKL	1		; ACTUAL LENGTH RETURNED BY FAO
                                     0052    98 FAO_DESC::	STRING	O,BUFFL		; BUFFER INTO WHICH FAO CREATES STRING
                           000000DD  00DC    99 MSG_CTXT::	.BLKB	1		; CONTEXT VALUE FOR ITEMS IN MESSAGES
                           000000E1  00DD   100 MSG_DATA1::	.BLKL	1		; INPUT PARAMETER FOR VARIOUS MSG WRITE RTNS
                           000000E5  00E1   101 MSG_A::		.BLKL	1		; LONGWORD PARAMETER USED BY FAO
                           000000E9  00E5   102 MSG_B::		.BLKL	1		; LONGWORD PARAMETER USED BY FAO
                           000000ED  00E9   103 MSG_C:		.BLKL	1		; LONGWORD PARAMETER USED BY FAO
                           000000F1  00ED   104 MSG_D:		.BLKL	1		; LONGWORD PARAMETER USED BY FAO
                                     00F1   105 ;
                                     00F1   106 ; NOTE -- FOLLOWING TWO PARAMETERS ARE INITIALIZED TO ENSURE
                                     00F1   107 ;         ACCESSIBILITY WHEN FAO SYSTEM SERVICE REFERENCES
                                     00F1   108 ;         THEIR CONTENTS.
                                     00F1   109 ;
                           000000F1' 00F1   110 MSG_E:		.ADDRESS MSG_E		; LONGWORD PARAMETER USED BY FAO
                           000000F5' 00F5   111 MSG_F:		.ADDRESS MSG_F		; LONGWORD PARAMETER USED BY FAO
                           00000101  00F9   112 EXPV::		.BLKQ	1		; EXPECTED VALUE FOR VERIFY ROUTINE
                           00000109  0101   113 RECV::		.BLKQ	1		; RECEIVED VALUE FOR VERIFY ROUTINE
                           0000010D  0109   114 PCV::		.BLKL	1		; SAVE AREA FOR PC VALUE
                                 00  010D   115 CFLAG::		.BYTE	0		; CONDITIONS FLAG: ZERO MEANS NO CONDS MSG
                                 00  010E   116 EFLAG::		.BYTE	0		; ERROR FLAG: ZERO MEANS NO ERRORS YET
                           00000110  010F   117 CONFLICT::	.BLKB	1		; CONFLICT INDICATOR ; 0 MEANS ...
                                     0110   118 					; ... NO CONDITION TABLE CONFLICT
                                 00000000   119 	.PSECT	SUCCOMMON,RD,WRT,EXE
SUCCOMMON       SATS SYSTEM SERVICE TESTS   COMMON (SUCC S.C.)   22-AUG-1978 03:58:01   VAX-11 MACRO X0.3-11               Page   5
1.0             SUCCOMMON                                                                                                        (1)

                                     0000   121 	.SBTTL	SUCCOMMON
                                     0000   122 ;++
                                     0000   123 ; FUNCTIONAL DESCRIPTION:
                                     0000   124 ;
                                     0000   125 ;		THE SUCCOMMON ROUTINE IS ENTERED WHENEVER A SATS TEST
                                     0000   126 ; MODULE IS RUN TO TEST ONE OR MORE SYSTEM SERVICE(S), EXPECTING SUCCESS
                                     0000   127 ; STATUS CODES. THE BASIC FUNCTION OF THE ROUTINE IS TO CAUSE MULTIPLE
                                     0000   128 ; INVOCATIONS OF THE VERIFY SUBROUTINE, WHICH ISSUES AND VERIFIES THE
                                     0000   129 ; SUBJECT SYSTEM SERVICE(S). FOLLOWING THE INVOCATIONS, THE ROUTINE EXITS
                                     0000   130 ; TO THE OPERATING SYSTEM WITH A STATUS CODE INDICATING SUCCESS OR FAILURE
                                     0000   131 ; OF THE TEST MODULE. VERIFY IS CALLED ONCE FOR EACH COMBINATION OF
                                     0000   132 ; VALUES IN THE CONDITION TABLES. THERE MAY BE FROM ONE TO FIVE CONDITION
                                     0000   133 ; TABLES, WITH FROM ONE TO FIVE ENTRIES EACH. THEREFORE VERIFY MAY BE
                                     0000   134 ; CALLED FROM 1 TO 3125 TIMES, DEPENDING ON THE QUANTITY AND SIZES OF
                                     0000   135 ; THE CONDITION TABLES. EACH TABLE REPRESENTS A VARIABLE IN SYSTEM
                                     0000   136 ; SERVICE SPECIFICATION OR SYSTEM ENVIRONMENT; A TYPICAL EXAMPLE OF
                                     0000   137 ; A VARIABLE IS ONE OF THE SYSTEM SERVICE INPUT ARGUMENTS. EACH TABLE
                                     0000   138 ; ENTRY (ELEMENT) REPRESENTS A VALUE FOR THE VARIABLE REPRESENTED BY
                                     0000   139 ; THE TABLE. THE CURRENTLY SELECTED ELEMENT FOR EACH TABLE IS REPRESENTED
                                     0000   140 ; BY A VALUE (FROM 1 TO 5) IN AN INDEX REGISTER (R2-R6 FOR CONDITION
                                     0000   141 ; TABLES 1-5, RESPECTIVELY). SUCCOMMON CONTAINS A CALL TO THE VERIFY
                                     0000   142 ; SUBROUTINE AT THE CENTER OF A GROUP OF NESTED LOOPS, ONE LOOP FOR EACH
                                     0000   143 ; TABLE. THEREFORE, UPON EACH ENTRY TO VERIFY, REGISTERS R2-R6 CONTAIN
                                     0000   144 ; VALUES REPRESENTING ONE COMBINATION OF CONDITION TABLE VALUES. AS A
                                     0000   145 ; NEW ENTRY IN EACH TABLE IS SELECTED, A CONDITION TABLE SETUP SUBROUTINE
                                     0000   146 ; IS CALLED (COND1,2,3,4,5) TO ALLOW TABLE-SPECIFIC SETUP CODE TO BE
                                     0000   147 ; EXECUTED; ALSO, BEFORE ENTERING THE LOOP, SUCCOMMON CALLS A SETUP
                                     0000   148 ; ROUTINE (TM_SETUP) TO EXECUTE TEST-MODULE-SPECIFIC SETUP CODE,
                                     0000   149 ; APPLICABLE ACROSS ALL CONDITION TABLES. EACH OF THE SETUP SUBROUTINES
                                     0000   150 ; AND THE VERIFY SUBROUTINE HAVE ASSOCIATED CLEANUP SUBROUTINES,
                                     0000   151 ; EACH OF WHICH IS EXECUTED FOLLOWING VERIFY, ONCE FOR EACH EXECUTION
                                     0000   152 ; OF ITS CORRESPONDING SETUP ROUTINE. THIS STRUCTURE GUARANTEES THAT
                                     0000   153 ; CLEANUP (OF ACQUIRED RESOURCES, FOR EXAMPLE) IS ALWAYS PERFORMED FOR
                                     0000   154 ; EACH SETUP, EVEN IN THE CASE WHERE AN ERROR PREMATURELY TERMINATES
                                     0000   155 ; EXECUTION OF THE TEST MODULE. THE FIRST CALL TO VERIFY WHICH FINDS
                                     0000   156 ; AN ERROR CAUSES TERMINATION OF THE TEST MODULE WITH A "TEST MODULE
                                     0000   157 ; FAILED" MESSAGE.
                                     0000   158 ;
                                     0000   159 ; CALLING SEQUENCE:
                                     0000   160 ;
                                     0000   161 ;	$ RUN SATSSS__  ...  (DCL COMMAND)
                                     0000   162 ;
                                     0000   163 ; INPUT PARAMETERS:
                                     0000   164 ;
                                     0000   165 ;	NONE
                                     0000   166 ;
                                     0000   167 ; IMPLICIT INPUTS:
                                     0000   168 ;
                                     0000   169 ;	NONE
                                     0000   170 ;
                                     0000   171 ; OUTPUT PARAMETERS:
                                     0000   172 ;
                                     0000   173 ;	NONE
                                     0000   174 ;
                                     0000   175 ; IMPLICIT OUTPUTS:
                                     0000   176 ;
                                     0000   177 ;	MESSAGES TO SYS$OUTPUT ARE THE ONLY OUTPUT FROM SUCCOMMON.
SUCCOMMON       SATS SYSTEM SERVICE TESTS   COMMON (SUCC S.C.)   22-AUG-1978 03:58:01   VAX-11 MACRO X0.3-11               Page   6
1.0             SUCCOMMON                                                                                                        (1)

                                     0000   178 ;	THEY ARE OF THE FORM:
                                     0000   179 ;
                                     0000   180 ;		%UETP-S-SATSMS, TEST MODULE SATSSS__ BEGUN ... (BEGIN MSG)
                                     0000   181 ;		%UETP-S-SATSMS, TEST MODULE SATSSS__ SUCCESSFUL ... (END MSG)
                                     0000   182 ;		%UETP-E-SATSMS, TEST MODULE SATSSS__ FAILED ... (END MSG)
                                     0000   183 ;		%UETP-I-TEXT, ... (VARIABLE INFORMATION ABOUT A TEST MODULE FAILURE)
                                     0000   184 ;
                                     0000   185 ; COMPLETION CODES:
                                     0000   186 ;
                                     0000   187 ;	THE SUCCOMMON ROUTINE TERMINATES WITH A $EXIT TO THE
                                     0000   188 ;	OPERATING SYSTEM WITH A STATUS CODE DEFINED BY UETP$_SATSMS.
                                     0000   189 ;
                                     0000   190 ; SIDE EFFECTS:
                                     0000   191 ;
                                     0000   192 ;	NONE
                                     0000   193 ;
                                     0000   194 ;--
                                     0000   195
                                     0000   196
                                     0000   197
                                     0000   198 SUCCOMMON:
                               0FFC  0000   199 	.WORD	^M<R2,R3,R4,R5,R6,R7,R8,R9,R10,R11>
                                     0002   200 					; ENTRY MASK
                          FFFB'  30  0002   201 	BSBW	TM_SETUP		; PERFORM TEST MODULE SETUP
                 0000010E'EF     95  0005   202 	TSTB	EFLAG			; IS ERROR BEING PROCESSED ?
                          03     13  000B   203 	BEQL	10$			; NO -- CONTINUE
                          00E0   31  000D   204 	BRW	TM_CU			; YES -- PERFORM TEST MODULE CLEANUP
                                     0010   205 10$:
                          52     D4  0010   206 	CLRL	R2			; POINT TO FIRST ELEMENT IN CONDITION 1 TAB
                                     0012   207 COND1_LOOP:
                 0000010F'EF     94  0012   208 	CLRB	CONFLICT		; INDICATE NO CONDITION TABLE CONFLICT
                          FFE5'  30  0018   209 	BSBW	COND1			; EXECUTE CONDITION 1 ROUTINE
                 0000010E'EF     95  001B   210 	TSTB	EFLAG			; IS AN ERROR BEING PROCESSED ?
                          03     13  0021   211 	BEQL	10$			; NO -- CONTINUE
                          00BD   31  0023   212 	BRW	COND1_CU		; YES -- PERFORM CONDITION 1 CLEANUP
                                     0026   213 10$:
                 0000010F'EF     95  0026   214 	TSTB	CONFLICT		; WAS THERE A CONDITION TABLE CONFLICT ?
                          03     13  002C   215 	BEQL	20$			; NO -- CONTINUE
                          00B2   31  002E   216 	BRW	COND1_CU		; YES -- SKIP THIS ELEMENT IN CONDIT 1 TABLE
                                     0031   217 20$:
                          53     D4  0031   218 	CLRL	R3			; POINT TO FIRST ELEMENT IN CONDITION 2 TAB
                                     0033   219 COND2_LOOP:
                 0000010F'EF     94  0033   220 	CLRB	CONFLICT		; INDICATE NO CONDITION TABLE CONFLICT
                          FFC4'  30  0039   221 	BSBW	COND2			; EXECUTE CONDITION 2 ROUTINE
                 0000010E'EF     95  003C   222 	TSTB	EFLAG			; IS AN ERROR BEING PROCESSED ?
                          03     13  0042   223 	BEQL	10$			; NO -- CONTINUE
                          008F   31  0044   224 	BRW	COND2_CU		; YES -- GO PERFORM CONDITION 2 CLEANUP
                                     0047   225 10$:
                 0000010F'EF     95  0047   226 	TSTB	CONFLICT		; WAS THERE A CONDITION TABLE CONFLICT ?
                          03     13  004D   227 	BEQL	20$			; NO -- CONTINUE
                          0084   31  004F   228 	BRW	COND2_CU		; YES -- SKIP THIS ELEMENT IN CONDIT 2 TABLE
                                     0052   229 20$:
                          54     D4  0052   230 	CLRL	R4			; POINT TO FIRST ELEMENT IN CONDITION 3 TAB
                                     0054   231 COND3_LOOP:
                 0000010F'EF     94  0054   232 	CLRB	CONFLICT		; INDICATE NO CONDITION TABLE CONFLICT
                          FFA3'  30  005A   233 	BSBW	COND3			; EXECUTE CONDITION 3 ROUTINE
                 0000010E'EF     95  005D   234 	TSTB	EFLAG			; IS AN ERROR BEING PROCESSED ?
SUCCOMMON       SATS SYSTEM SERVICE TESTS   COMMON (SUCC S.C.)   22-AUG-1978 03:58:01   VAX-11 MACRO X0.3-11               Page   7
1.0             SUCCOMMON                                                                                                        (1)

                          64     12  0063   235 	BNEQ	COND3_CU		; YES -- GO PERFORM CONDITION 3 CLEANUP
                 0000010F'EF     95  0065   236 	TSTB	CONFLICT		; WAS THERE A CONDITION TABLE CONFLICT ?
                          5C     12  006B   237 	BNEQ	COND3_CU		; YES -- SKIP THIS ELEMENT IN CONDIT 3 TABLE
                          55     D4  006D   238 	CLRL	R5			; POINT TO FIRST ELEMENT IN CONDITION 4 TAB
                                     006F   239 COND4_LOOP:
                 0000010F'EF     94  006F   240 	CLRB	CONFLICT		; INDICATE NO CONDITION TABLE CONFLICT
                          FF88'  30  0075   241 	BSBW	COND4			; EXECUTE CONDITION 4 ROUTINE
                 0000010E'EF     95  0078   242 	TSTB	EFLAG			; IS AN ERROR BEING PROCESSED ?
                          3C     12  007E   243 	BNEQ	COND4_CU		; YES -- GO PERFORM CONDITION 4 CLEANUP
                 0000010F'EF     95  0080   244 	TSTB	CONFLICT		; WAS THERE A CONDITION TABLE CONFLICT ?
                          34     12  0086   245 	BNEQ	COND4_CU		; YES -- SKIP THIS ELEMENT IN CONDIT 4 TABLE
                          56     D4  0088   246 	CLRL	R6			; POINT TO FIRST ELEMENT IN CONDITION 5 TAB
                                     008A   247 COND5_LOOP:
                 0000010F'EF     94  008A   248 	CLRB	CONFLICT		; INDICATE NO CONDITION TABLE CONFLICT
                          FF6D'  30  0090   249 	BSBW	COND5			; EXECUTE CONDITION 5 ROUTINE
                 0000010E'EF     95  0093   250 	TSTB	EFLAG			; IS AN ERROR BEING PROCESSED ?
                          14     12  0099   251 	BNEQ	COND5_CU		; YES -- GO PERFORM CONDITION 5 CLEANUP
                 0000010F'EF     95  009B   252 	TSTB	CONFLICT		; WAS THERE A CONDITION TABLE CONFLICT ?
                          0C     12  00A1   253 	BNEQ	COND5_CU		; YES -- SKIP THIS ELEMENT IN CONDIT 5 TABLE
                          FF5A'  30  00A3   254 	BSBW	VERIFY			; ISSUE SYSTEM SERVICE AND VERIFY IT
                          FF57'  30  00A6   255 	BSBW	VFY_CLEANUP		; PERFORM VERIFY CLEANUP
                 0000003C'EF     B6  00A9   256 	INCW	TESTNUM			; GET NEXT TEST CASE NUMBER
                                     00AF   257 COND5_CU:
                          FF4E'  30  00AF   258 	BSBW	COND5_CLEANUP		; PERFORM CONDITION 5 CLEANUP
            01   00000000'EF     9D  00B2   259 	ACBB	COND5_H,#1,R6,COND5_LOOP ; LOOP THRU CONDITION 5 TABLE
            FFCE          56         00B9
                                     00BC   260 COND4_CU:
                          FF41'  30  00BC   261 	BSBW	COND4_CLEANUP		; PERFORM CONDITION 4 CLEANUP
            01   00000000'EF     9D  00BF   262 	ACBB	COND4_H,#1,R5,COND4_LOOP ; LOOP THRU CONDITION 4 TABLE
            FFA6          55         00C6
                                     00C9   263 COND3_CU:
                          FF34'  30  00C9   264 	BSBW	COND3_CLEANUP		; PERFORM CONDITION 3 CLEANUP
            01   00000000'EF     9D  00CC   265 	ACBB	COND3_H,#1,R4,COND3_LOOP ; LOOP THRU CONDITION 3 TABLE
            FF7E          54         00D3
                                     00D6   266 COND2_CU:
                          FF27'  30  00D6   267 	BSBW	COND2_CLEANUP		; PERFORM CONDITION 2 CLEANUP
            01   00000000'EF     9D  00D9   268 	ACBB	COND2_H,#1,R3,COND2_LOOP ; LOOP THRU CONDITION 2 TABLE
            FF50          53         00E0
                                     00E3   269 COND1_CU:
                          FF1A'  30  00E3   270 	BSBW	COND1_CLEANUP		; PERFORM CONDITION 1 CLEANUP
            01   00000000'EF     9D  00E6   271 	ACBB	COND1_H,#1,R2,COND1_LOOP ; LOOP THRU CONDITION 1 TABLE
            FF22          52         00ED
                                     00F0   272 TM_CU:
                          FF0D'  30  00F0   273 	BSBW	TM_CLEANUP		; PERFORM TEST MODULE CLEANUP
            1C            01     F0  00F3   274 	INSV	#1,#STS$V_INHIB_MSG,#1,MOD_MSG_CODE
   00000042'EF            01         00F6
                                     00FC   275 					; INHIBIT PRINTING
                                     00FC   276 	$EXIT_S	MOD_MSG_CODE		; EXIT TO OPERATING SYSTEM WITH MSG CODE
SUCCOMMON       SATS SYSTEM SERVICE TESTS   COMMON (SUCC S.C.)   22-AUG-1978 03:58:01   VAX-11 MACRO X0.3-11               Page   8
1.0             SUBROUTINES                                                                                                      (1)

                                     0109   278 	.SBTTL	SUBROUTINES
                                     0109   279 WRITE_MSG2::
                                     0109   280 ;
                                     0109   281 ;++
                                     0109   282 ; **********************************************************
                                     0109   283 ; *
                                     0109   284 ; *	WRITE_MSG2 SUBROUTINE.  THIS ROUTINE FORMATS (USING FAO)
                                     0109   285 ; *	AND PRINTS (USING PUTMSG MACRO) INFORMATION ABOUT THE
                                     0109   286 ; *	CURRENT ELEMENT FOR A PARTICULAR CONDITION TABLE.
                                     0109   287 ; *
                                     0109   288 ; *	INPUTS:
                                     0109   289 ; *		MSG_A:		A LONGWORD FIELD CONTAINING
                                     0109   290 ; *				THE ADDRESS OF A COUNTED
                                     0109   291 ; *				STRING FOR THE TITLE OF THIS
                                     0109   292 ; *				CONDITION.
                                     0109   293 ; *
                                     0109   294 ; *		MSG_B:		A LONGWORD FIELD CONTAINING
                                     0109   295 ; *				THE ADDRESS OF A COUNTED
                                     0109   296 ; *				STRING FOR THE CURRENT TEXT
                                     0109   297 ; *				ELEMENT FOR THIS CONDITION.
                                     0109   298 ; *
                                     0109   299 ; *		MSG_CTXT:	A BYTE FIELD CONTAINING THE
                                     0109   300 ; *				CONTEXT FOR THIS CONDITION,
                                     0109   301 ; *				AS DEFINED IN ITS CONDITION
                                     0109   302 ; *				TABLE.
                                     0109   303 ; *
                                     0109   304 ; *		MSG_DATA1:	A LONGWORD FIELD CONTAINING
                                     0109   305 ; *				THE ADDRESS OF THE CURRENT
                                     0109   306 ; *				DATA ELEMENT FOR THIS CONDITION
                                     0109   307 ; *				(ONLY FOR CONDITIONS WHICH
                                     0109   308 ; *				ARE SYSTEM SERVICE ARGUMENTS).
                                     0109   309 ; *
                                     0109   310 ; *	OUTPUTS:
                                     0109   311 ; *		CONDITION MESSAGE IS PRINTED.
                                     0109   312 ; *
                                     0109   313 ; ***********************************************************
                                     0109   314 ;--
                                     0109   315 ;
         00'8F   000000DC'EF     91  0109   316 	CMPB	MSG_CTXT,#NOTARG 	; IS THIS CONDITION A S.S. ARGUMENT ?
                          28     12  0111   317 	BNEQU	10$			; YES -- CONTINUE
                                     0113   318 	$FAO_S	MSG2_CND_CTL1,FAO_LEN,FAO_DESC,MSG_A,MSG_B
                                     0138   319 					; NO -- SIMPLY FORMAT TEXT
                          00CE   31  0138   320 	BRW	WRITE_MSG2X		; ... WRITE MSG AND EXIT
                                     013B   321 10$:
         00'8F   000000DC'EF     91  013B   322 	CMPB	MSG_CTXT,#DESC		; IS THIS A STRING DESCRIPTOR ARGUMENT ?
                          39     12  0143   323 	BNEQU	20$			; NO -- CONTINUE
   000000E9'EF   000000DD'EF     D0  0145   324 	MOVL	MSG_DATA1,MSG_C		; YES -- GIVE DESCRIPTOR ADDRESS TO FAO
                                     0150   325 	$FAO_S	MSG2_CND_CTL2,FAO_LEN,FAO_DESC,MSG_A,MSG_B,MSG_C
                                     017B   326 					; FORMAT STRING ARGUMENT
                          008B   31  017B   327 	BRW	WRITE_MSG2X		; ... WRITE MSG AND EXIT
                                     017E   328 20$:
   000000F1'EF   000000DD'EF     D0  017E   329 	MOVL	MSG_DATA1,MSG_E		; GET DATA ADDRESS READY FOR FAO
         00'8F   000000DC'EF     91  0189   330 	CMPB	MSG_CTXT,#QUAD		; DOES THIS ARGUMENT HAVE QUAD CONTEXT ?
                          1C     12  0191   331 	BNEQU	30$			; NO -- GO PROCESS ALL OTHER CONTEXTS
   000000E9'EF            02     9A  0193   332 	MOVZBL	#2,MSG_C		; YES -- INDICATE 2 DATA ITEMS TO FORMAT
   000000ED'EF            09     9A  019A   333 	MOVZBL	#9,MSG_D		; ... EACH 8 BYTES LONG + A BLANK
   000000F1'EF            04     C1  01A1   334 	ADDL3	#4,MSG_E,MSG_F		; COMPUTE ADDR OF 2ND ITEM FOR FAO
SUCCOMMON       SATS SYSTEM SERVICE TESTS   COMMON (SUCC S.C.)   22-AUG-1978 03:58:01   VAX-11 MACRO X0.3-11               Page   9
1.0             SUBROUTINES                                                                                                      (1)

                 000000F5'EF         01A8
                          1D     11  01AD   335 	BRB	40$			; ... AND GO FORMAT MSG
                                     01AF   336 30$:
   000000E9'EF            01     9A  01AF   337 	MOVZBL	#1,MSG_C		; INDICATE JUST 1 DATA ITEM TO FORMAT
   000000ED'EF   000000DC'EF     9A  01B6   338 	MOVZBL	MSG_CTXT,MSG_D		; GET CONTEXT READY FOR FAO
   000000ED'EF   000000ED'EF     C0  01C1   339 	ADDL2	MSG_D,MSG_D		; ... DOUBLE IT FOR LENGTH OF PRINTABLE DATA
                                     01CC   340 40$:
                                     01CC   341 	$FAO_S	MSG2_CND_CTL3,FAO_LEN,FAO_DESC,MSG_A,	-
                                     01CC   342 		MSG_B,MSG_C,MSG_D,@MSG_E,@MSG_F
                                     0209   343 					; FORMAT NON-STRING ARGUMENT MSG
                                     0209   344 WRITE_MSG2X:
                          01F1   30  0209   345 	BSBW	OUTPUT_MSG		; WRITE FORMATTED CONDITION MSG
                                 05  020C   346 	RSB				; ... AND RETURN TO CALLER
SUCCOMMON       SATS SYSTEM SERVICE TESTS   COMMON (SUCC S.C.)   22-AUG-1978 03:58:01   VAX-11 MACRO X0.3-11               Page  10
1.0             SUBROUTINES                                                                                                      (1)

                                     020D   348 WRITE_MSG3:
                                     020D   349 ;
                                     020D   350 ;++
                                     020D   351 ; *********************************************************
                                     020D   352 ; *
                                     020D   353 ; *	WRITE_MSG3 SUBROUTINE.  THIS ROUTINE FORMATS AND
                                     020D   354 ; *	PRINTS A GENERAL ERROR MSG.  IT IS CALLED BY CODE
                                     020D   355 ; *	GENERATED IN THE EXPANSION OF THE ERR_EXIT MACRO.
                                     020D   356 ; *
                                     020D   357 ; *	INPUTS:
                                     020D   358 ; *		TESTNUM:	A WORD FIELD CONTAINING THE
                                     020D   359 ; *				CURRENT TEST CASE NUMBER.
                                     020D   360 ; *		MSG_A		A LONGWORD FIELD CONTAINING
                                     020D   361 ; *				THE ADDRESS OF A QUADWORD
                                     020D   362 ; *				STRING DESCRIPTOR WHICH HAS
                                     020D   363 ; *				TEXT DESCRIBING THE CURRENT
                                     020D   364 ; *				ERROR.
                                     020D   365 ; *
                                     020D   366 ; *	OUTPUTS:
                                     020D   367 ; *		ERROR MSG FORMATTED AND PRINTED.
                                     020D   368 ; *
                                     020D   369 ; **********************************************************
                                     020D   370 ;--
                                     020D   371 ;
                                     020D   372 	$FAO_S	MSG3_ERR_CTL,FAO_LEN,FAO_DESC,TESTNUM,MSG_A
                                     0232   373 					; FORMAT GENERAL ERROR MSG
                          01C8   30  0232   374 	BSBW	OUTPUT_MSG		; ... AND WRITE IT
                                 05  0235   375 	RSB				; RETURN TO CALLER
SUCCOMMON       SATS SYSTEM SERVICE TESTS   COMMON (SUCC S.C.)   22-AUG-1978 03:58:01   VAX-11 MACRO X0.3-11               Page  11
1.0             SUBROUTINES                                                                                                      (1)

                                     0236   377 WRITE_MSG4:
                                     0236   378 ;
                                     0236   379 ;++
                                     0236   380 ; *******************************************************
                                     0236   381 ; *
                                     0236   382 ; *	WRITE_MSG4 SUBROUTINE.  THIS ROUTINE FORMATS AND
                                     0236   383 ; *	PRINTS MESSAGES CONTAINING EXPECTED AND RECEIVED
                                     0236   384 ; *	VALUES FOR A DATA ITEM DISCOVERED TO BE IN ERROR
                                     0236   385 ; *	BY THE VERIFY SUBROUTINE.  A MESSAGE CONTAINING
                                     0236   386 ; *	THE APPROXIMATE VALUE OF PC AT THE TIME OF ERROR
                                     0236   387 ; *	IS ALSO FORMATTED AND PRINTED.
                                     0236   388 ; *
                                     0236   389 ; *	INPUTS:
                                     0236   390 ; *		MSG_CTXT:	A BYTE FIELD CONTAINING THE
                                     0236   391 ; *				CONTEXT FOR THE DATA ITEM
                                     0236   392 ; *				IN ERROR.
                                     0236   393 ; *
                                     0236   394 ; *		EXPV:		A QUADWORD FIELD CONTAINING
                                     0236   395 ; *				THE EXPECTED VALUE FOR THE
                                     0236   396 ; *				DATA ITEM IN ERROR.
                                     0236   397 ; *
                                     0236   398 ; *		RECV:		A QUADWORD FIELD CONTAINING
                                     0236   399 ; *				THE RECEIVED VALUE FOR THE
                                     0236   400 ; *				DATA ITEM IN ERROR.
                                     0236   401 ; *
                                     0236   402 ; *		PCV:		A LONGWORD FIELD CONTAINING
                                     0236   403 ; *				THE VALUE OF PC AT OR SOON
                                     0236   404 ; *				AFTER THE ERROR.
                                     0236   405 ; *
                                     0236   406 ; *	OUTPUTS:
                                     0236   407 ; *		EXPECTED/RECEIVED/PC MESSAGES FORMATTED AND PRINTED.
                                     0236   408 ; *
                                     0236   409 ; **************************************************************
                                     0236   410 ;--
                                     0236   411 ;
   000000E1'EF   000000B9'EF     DE  0236   412 	MOVAL	EXP,MSG_A		; READY "EXPECTED" TEXT FOR FAO
   000000ED'EF   000000F9'EF     DE  0241   413 	MOVAL	EXPV,MSG_D		; GET ADDR OF EXPECTED VALUE READY FOR FAO
         00'8F   000000DC'EF     91  024C   414 	CMPB	MSG_CTXT,#DESC		; IS FAILING DATA ITEM A STRING DESCRIPTOR ?
                          1E     12  0254   415 	BNEQU	10$			; NO -- CONTINUE
                          00AE   30  0256   416 	BSBW	WRITE_MSG4_1		; YES -- FORMAT & WRITE EXPECTED STRING
   000000E1'EF   000000C2'EF     DE  0259   417 	MOVAL	REC,MSG_A		; READY "RECEIVED" TEXT FOR FAO
   000000ED'EF   00000101'EF     DE  0264   418 	MOVAL	RECV,MSG_D		; GET ADDR OF RECEIVED VALUE READY FOR FAO
                          0095   30  026F   419 	BSBW	WRITE_MSG4_1		; FORMAT & WRITE RECEIVED STRING
                          6B     11  0272   420 	BRB	40$			; GO DO PC MESSAGE
                                     0274   421 10$:
         00'8F   000000DC'EF     91  0274   422 	CMPB	MSG_CTXT,#QUAD		; DOES FAILING DATA ITEM HAVE QUAD CONTEXT ?
                          1C     12  027C   423 	BNEQU	20$			; NO -- HANDLE ALL OTHER CONTEXTS
   000000E5'EF            02     9A  027E   424 	MOVZBL	#2,MSG_B		; YES -- INDICATE 2 DATA ITEMS TO FAO
   000000E9'EF            09     9A  0285   425 	MOVZBL	#9,MSG_C		; ... EACH ONE 8 BYTES LONG + A BLANK
   000000ED'EF            04     C1  028C   426 	ADDL3	#4,MSG_D,MSG_E		; GIVE ADDRESS OF 2ND ITEM TO FAO
                 000000F1'EF         0293
                          1D     11  0298   427 	BRB	30$			; ... AND GO FORMAT IT
                                     029A   428 20$:
   000000E5'EF            01     9A  029A   429 	MOVZBL	#1,MSG_B		; INDICATE JUST 1 DATA ITEM TO FAO
   000000E9'EF   000000DC'EF     9A  02A1   430 	MOVZBL	MSG_CTXT,MSG_C		; GET CONTEXT READY FOR FAO
   000000E9'EF   000000E9'EF     C0  02AC   431 	ADDL2	MSG_C,MSG_C		; ... DOUBLE CONTEXT TO GET PRINTABLE LENGTH
                                     02B7   432 30$:
SUCCOMMON       SATS SYSTEM SERVICE TESTS   COMMON (SUCC S.C.)   22-AUG-1978 03:58:01   VAX-11 MACRO X0.3-11               Page  12
1.0             SUBROUTINES                                                                                                      (1)

                          0076   30  02B7   433 	BSBW	WRITE_MSG4_2		; FORMAT & PRINT EXPECTED VALUE OF DATA
   000000E1'EF   000000C2'EF     DE  02BA   434 	MOVAL	REC,MSG_A		; GIVE ADDRESS OF "RECEIVED" TEXT TO FAO
   000000ED'EF   00000101'EF     DE  02C5   435 	MOVAL	RECV,MSG_D		; GIVE ADDR OF RECEIVED VALUE TO FAO
   000000ED'EF            04     C1  02D0   436 	ADDL3	#4,MSG_D,MSG_E		; GIVE ADDR OF 2ND HALF OF QUAD ITEM TO FAO
                 000000F1'EF         02D7
                          0051   30  02DC   437 	BSBW	WRITE_MSG4_2		; FORMAT & PRINT RECEIVED VALUE OF DATA
                                     02DF   438 40$:
   000000E1'EF   000000CB'EF     DE  02DF   439 	MOVAL	APC,MSG_A		; READY "APPROXIMATE PC" TEXT FOR FAO
   000000E5'EF            01     9A  02EA   440 	MOVZBL	#1,MSG_B		; INDICATE JUST 1 DATA ITEM TO FAO
   000000E9'EF            08     9A  02F1   441 	MOVZBL	#8,MSG_C		; ... USING 8 PRINTABLE BYTES
   000000ED'EF   00000109'EF     DE  02F8   442 	MOVAL	PCV,MSG_D		; GIVE ADDRESS OF PC VALUE TO FAO
                          002A   30  0303   443 	BSBW	WRITE_MSG4_2		; FORMAT & PRINT PC VALUE
                                     0306   444 WRITE_MSG4X:
                                 05  0306   445 	RSB				; RETURN TO CALLER
                                     0307   446 WRITE_MSG4_1:
                                     0307   447 	$FAO_S	MSG4_ERR_CTL1,FAO_LEN,FAO_DESC,MSG_A,MSG_D
                                     032C   448 					; FORMAT A STRING
                          00CE   30  032C   449 	BSBW	OUTPUT_MSG		; ... AND PRINT IT
                                 05  032F   450 	RSB				; RETURN TO CALLER
                                     0330   451 WRITE_MSG4_2:
                                     0330   452 	$FAO_S	MSG4_ERR_CTL2,FAO_LEN,FAO_DESC,MSG_A,	-
                                     0330   453 		MSG_B,MSG_C,@MSG_D,@MSG_E
                                     0367   454 					; FORMAT A NON-STRING DATA ITEM
                          0093   30  0367   455 	BSBW	OUTPUT_MSG		; ... AND PRINT IT
                                 05  036A   456 	RSB				; RETURN TO CALLER
SUCCOMMON       SATS SYSTEM SERVICE TESTS   COMMON (SUCC S.C.)   22-AUG-1978 03:58:01   VAX-11 MACRO X0.3-11               Page  13
1.0             SUBROUTINES                                                                                                      (1)

                                     036B   458 COMP_SC::
   00000101'EF   000000F9'EF     D1  036B   459 	CMPL	EXPV,RECV		; IS STATUS CODE THE ONE WE EXPECTED ?
                          54     13  0376   460 	BEQLU	COMP_SCX		; YES -- GO RETURN
                                     0378   461 	ERR_EXIT   LONG,   -
                                     0378   462 	  <UNEXPECTED STATUS CODE FROM NON-SUBJECT SYSTEM SERVICE>,,,PCV
                                     03CC   463 					; NO -- ISSUE ERR_EXIT WITH PCV PARAMETER
                                     03CC   464 COMP_SCX:
                                 05  03CC   465 	RSB				; RETURN TO CALLER (SS_CHECK MACRO)
                                     03CD   466 ;
                                     03CD   467 ;
                                     03CD   468 PROCESS_ERR::
   0000010E'EF            01     90  03CD   469 	MOVB	#1,EFLAG		; INDICATE AN ERROR HAS OCCURRED
                          007E   30  03D4   470 	BSBW	HALT_TC			; HALT FURTHER EXECUTION OF TEST CASES
   0000004A'EF   00000019'EF     DE  03D7   471 	MOVAL	TEST_MOD_FAIL,TMD_ADDR 	; INDICATE FAILED IN END MSG
            00            02     F0  03E2   472 	INSV	#ERROR,#0,#3,MOD_MSG_CODE ; ADJUST STATUS CODE FOR ERROR
   00000042'EF            03         03E5
                          FE1F   30  03EB   473 	BSBW	WRITE_MSG3		; FORMAT & WRITE ERROR MSG
                          FE45   30  03EE   474 	BSBW	WRITE_MSG4		; WRITE EXP/REC/PC MSGS
                 0000010D'EF     95  03F1   475 	TSTB	CFLAG			; HAVE CONDITIONS ALREADY BEEN PRINTED ?
                          03     12  03F7   476 	BNEQ	PROCESS_ERRX		; YES -- JUST GO RETURN
                          FC04'  30  03F9   477 	BSBW	FORM_CONDS		; NO -- PRINT THEM BEFORE RETURNING
                                     03FC   478 PROCESS_ERRX:
                                 05  03FC   479 	RSB				; ... AND RETURN TO CALLER (ERR_EXIT MACRO)
                                     03FD   480 OUTPUT_MSG::
                                     03FD   481 ;
                                     03FD   482 ;  PRINT A MESSAGE FORMATTED BY FAO AND RETURN TO CALLER
                                     03FD   483 ;
   00000052'EF   0000004E'EF     B0  03FD   484 	MOVW	FAO_LEN,FAO_DESC 	; SET UP ACTUAL LENGTH IN MSG BUFFER
                                     0408   485 	PUTMSG	<#UETP$_TEXT,#1,#FAO_DESC> ; PRINT THE MSG
   00000052'EF       0082 8F     B0  041D   486 	MOVW	#BUFFL,FAO_DESC		; ... AND RESTORE BUFFER TO MAX LENGTH
                                 05  0426   487 	RSB
                                     0427   488 SAVE_REGS::
                                     0427   489 ;
                                     0427   490 ;  SAVE CONTENTS OF REGS R2 THROUGH R6 FOR USE BY CHMRTN
                                     0427   491 ;
            51   00000000'EF     DE  0427   492 	MOVAL	REG_SAVE_AREA,R1 	; INITIALIZE R1 TO BEG OF AREA
            81            52     D0  042E   493 	MOVL	R2,(R1)+		; SAVE R2
            81            53     D0  0431   494 	MOVL	R3,(R1)+		; SAVE R3
            81            54     D0  0434   495 	MOVL	R4,(R1)+		; SAVE R4
            81            55     D0  0437   496 	MOVL	R5,(R1)+		; SAVE R5
            81            56     D0  043A   497 	MOVL	R6,(R1)+		; SAVE R6
                                 05  043D   498 	RSB				; RETURN TO CALLER
                                     043E   499 REST_REGS::
                                     043E   500 ;
                                     043E   501 ;  RESTORE REGS R2 THROUGH R6 ... USED IN CHMRTN AND IN MODE MACRO
                                     043E   502 ;
            51   00000000'EF     DE  043E   503 	MOVAL	REG_SAVE_AREA,R1 	; INITIALIZE R1 TO BEG OF AREA
            52            81     D0  0445   504 	MOVL	(R1)+,R2		; RESTORE R2
            53            81     D0  0448   505 	MOVL	(R1)+,R3		; RESTORE R3
            54            81     D0  044B   506 	MOVL	(R1)+,R4		; RESTORE R4
            55            81     D0  044E   507 	MOVL	(R1)+,R5		; RESTORE R5
            56            81     D0  0451   508 	MOVL	(R1)+,R6		; RESTORE R6
                                 05  0454   509 	RSB				; RETURN TO CALLER
SUCCOMMON       SATS SYSTEM SERVICE TESTS   COMMON (SUCC S.C.)   22-AUG-1978 03:58:01   VAX-11 MACRO X0.3-11               Page  14
1.0             SUBROUTINES                                                                                                      (1)

                                     0455   511 HALT_TC:
                                     0455   512 ;
                                     0455   513 ;	HALT FURTHER EXECUTION OF TEST CASES BY STORING CURRENT
                                     0455   514 ;	INDEX REGISTER VALUES INTO TABLE SIZE FIELDS FOR ALL
                                     0455   515 ;	CONDITIONS.
                                     0455   516 ;
   00000000'EF            52     90  0455   517 	MOVB	R2,COND1_H		; ALTER END OF COND 1 TABLE TO CURR ELEMENT
   00000000'EF            53     90  045C   518 	MOVB	R3,COND2_H		; ALTER END OF COND 2 TABLE TO CURR ELEMENT
   00000000'EF            54     90  0463   519 	MOVB	R4,COND3_H		; ALTER END OF COND 3 TABLE TO CURR ELEMENT
   00000000'EF            55     90  046A   520 	MOVB	R5,COND4_H		; ALTER END OF COND 4 TABLE TO CURR ELEMENT
   00000000'EF            56     90  0471   521 	MOVB	R6,COND5_H		; ALTER END OF COND 5 TABLE TO CURR ELEMENT
                                 05  0478   522 	RSB				; RETURN TO CALLER
                                     0479   523 MOD_MSG_PRINT::
                                     0479   524 ;
                                     0479   525 ;  *****************************************************************
                                     0479   526 ;  *                                                               *
                                     0479   527 ;  *  PRINTS THE TEST MODULE BEGUN/SUCCESSFUL/FAILED MESSAGES      *
                                     0479   528 ;  *	   (USING THE PUTMSG MACRO).                               *
                                     0479   529 ;  *                                                               *
                                     0479   530 ;  *****************************************************************
                                     0479   531 ;
                                     0479   532 	PUTMSG	<MOD_MSG_CODE,#2,TMN_ADDR,TMD_ADDR>
                                     0494   533 					; PRINT MSG ...
                                 05  0494   534 	RSB				; ... AND RETURN TO CALLER
                                     0495   535 ;
                                     0495   536 CHMRTN::
                                     0495   537 ; **********************************************************
                                     0495   538 ; *
                                     0495   539 ; *	CHANGE MODE ROUTINE. THIS ROUTINE GETS CONTROL WHENEVER
                                     0495   540 ; *	A CMKRNL OR CMEXEC SYSTEM SERVICE IS ISSUED
                                     0495   541 ; *	BY THE MODE MACRO ('TO' OPTION).  IT MERELY RESTORES
                                     0495   542 ; *	REGISTERS R2 THROUGH R6 AND DOES A JUMP INDIRECT
                                     0495   543 ; *	ON A FIELD SET UP BY MODE.  IT HAS THE EFFECT
                                     0495   544 ; *	OF RETURNING TO THE END OF THE MODE MACRO EXPANSION.
                                     0495   545 ; *
                                     0495   546 ; *************************************************************
                                     0495   547 ;
                               0000  0495   548 	.WORD	0			; ENTRY MASK
                          FFA4   30  0497   549 	BSBW	REST_REGS		; RESTORE REGS R2-R6
                 0000003E'FF     17  049A   550 	JMP	@CHM_CONT		; RETURN TO MODE MACRO IN NEW MODE
                                     04A0   551 ;
                                     04A0   552 ; *	RET INSTRUCTION WILL BE ISSUED IN EXPANSION OF 'MODE FROM, ....' MACRO
                                     04A0   553 ;
                                     04A0   554 	.END	SUCCOMMON
SUCCOMMON       SATS SYSTEM SERVICE TESTS   COMMON (SUCC S.C.)   22-AUG-1978 03:58:01   VAX-11 MACRO X0.3-11               Page  15
SYMBOL TABLE                                                                                                                     (1)

$$$$           = 0000037A R     05   MSG2_CND_CTL3    00000058 R     03   SHR$_COPIEDB   = 00001060
$$$CHARS       = 00000036            MSG3_ERR_CTL     ********   X   05   SHR$_COPIEDR   = 00001068
$$$STRINGS     = 00000001            MSG4_ERR_CTL1    0000007F R     03   SHR$_CREATED   = 00001070
$$T1           = 00000004            MSG4_ERR_CTL2    0000009A R     03   SHR$_DELETED   = 00001200
$$T2           = 00000008            MSG_A            000000E1 RG    04   SHR$_DELINTERR = 00001240
APC              000000CB R     03   MSG_B            000000E5 RG    04   SHR$_DELVER    = 00001208
BIT...         = 00001258            MSG_C            000000E9 R     04   SHR$_DIRTOOBUS = 00001220
BUFFL          = 00000082            MSG_CTXT         000000DC RG    04   SHR$_ENDED     = 00001078
CFLAG            0000010D RG    04   MSG_D            000000ED R     04   SHR$_ENDEDD    = 00001080
CHMRTN           00000495 RG    05   MSG_DATA1        000000DD RG    04   SHR$_ENDEDT    = 00001088
CHM_CONT         0000003E RG    04   MSG_E            000000F1 R     04   SHR$_FILNOTDEL = 000011F0
CMPC_SAV       = 0000000C  G         MSG_F            000000F5 R     04   SHR$_FILNOTPUR = 00001230
COMP_SC          0000036B RG    05   NOTARG           ********   X   05   SHR$_FILPURGED = 00001250
COMP_SCX         000003CC R     05   ONES             00000000 RG    03   SHR$_HASHCONCAT= 000011D8
COND1            ********   X   05   OUTPUT_MSG       000003FD RG    05   SHR$_HIGHVER   = 00001148
COND1_CLEANUP    ********   X   05   PCV              00000109 RG    04   SHR$_IDXCONCAT = 00001138
COND1_CU         000000E3 R     05   PROCESS_ERR      000003CD RG    05   SHR$_INCOMPAT  = 000011E0
COND1_H          ********   X   05   PROCESS_ERRX     000003FC R     05   SHR$_NEWFILES  = 00001090
COND1_LOOP       00000012 R     05   QUAD             ********   X   05   SHR$_NOFILPURG = 00001228
COND2            ********   X   05   R0_THRU_SP     = 00007FFF  G         SHR$_NOJOBID   = 000011A0
COND2_CLEANUP    ********   X   05   REC              000000C2 R     03   SHR$_NOJOBNAME = 000011A8
COND2_CU         000000D6 R     05   RECV             00000101 RG    04   SHR$_NOQUEUE   = 00001198
COND2_H          ********   X   05   REG_SAVE_AREA    00000000 R     04   SHR$_NOTCMPLT  = 000011C0
COND2_LOOP       00000033 R     05   REST_REGS        0000043E RG    05   SHR$_NOTCOPIED = 000011B8
COND3            ********   X   05   SAVE_REGS        00000427 RG    05   SHR$_NOVALUE   = 00001100
COND3_CLEANUP    ********   X   05   SEVERE         = 00000004            SHR$_NOWILD    = 00001128
COND3_CU         000000C9 R     05   SHR$K_SHRDEF   = 00000001            SHR$_OPENIN    = 00001098
COND3_H          ********   X   05   SHR$_ABEND     = 000010D8            SHR$_OPENOUT   = 000010A0
COND3_LOOP       00000054 R     05   SHR$_ABENDD    = 000010E0            SHR$_OVERLAY   = 000010A8
COND4            ********   X   05   SHR$_ABENDT    = 000010E8            SHR$_PARSEFAIL = 00001248
COND4_CLEANUP    ********   X   05   SHR$_APPENDEDB = 00001000            SHR$_PURGEVER  = 00001210
COND4_CU         000000BC R     05   SHR$_APPENDEDR = 00001008            SHR$_READERR   = 000010B0
COND4_H          ********   X   05   SHR$_ATPC      = 00001158            SHR$_RELCONCAT = 00001140
COND4_LOOP       0000006F R     05   SHR$_BADBYTE   = 00001010            SHR$_REPLACED  = 000010B8
COND5            ********   X   05   SHR$_BADCOPIES = 00001160            SHR$_RMSERROR  = 000011C8
COND5_CLEANUP    ********   X   05   SHR$_BADDELIM  = 00001118            SHR$_SEARCHFAIL= 00001238
COND5_CU         000000AF R     05   SHR$_BADFIELD  = 00001018            SHR$_SYNTAX    = 000010F8
COND5_H          ********   X   05   SHR$_BADFORM   = 00001168            SHR$_SYSERROR  = 000011B0
COND5_LOOP       0000008A R     05   SHR$_BADJOBID  = 00001170            SHR$_SYSERRORPC= 000010F0
CONFLICT         0000010F RG    04   SHR$_BADJOBNAME= 00001178            SHR$_TEXT      = 00001130
DESC             ********   X   05   SHR$_BADKEY    = 00001108            SHR$_UNXPCTSTS = 000011D0
EFLAG            0000010E RG    04   SHR$_BADLOGIC  = 00001120            SHR$_VALERR    = 000011E8
ERROR          = 00000002            SHR$_BADLOGICPC= 00001150            SHR$_WILDCONCAT= 000010C0
EXP              000000B9 R     03   SHR$_BADLONG   = 00001020            SHR$_WILDOUTVER= 000010C8
EXPV             000000F9 RG    04   SHR$_BADPRTY   = 00001180            SHR$_WRITEERR  = 000010D0
FAO_DESC         00000052 RG    04   SHR$_BADQNAME  = 00001188            STS$K_ERROR    = 00000002
FAO_LEN          0000004E RG    04   SHR$_BADTIME   = 00001190            STS$K_INFO     = 00000003
FORM_CONDS       ********   X   05   SHR$_BADVALUE  = 00001110            STS$K_SEVERE   = 00000004
GBL...         = 00000000            SHR$_BADWORD   = 00001028            STS$K_SUCCESS  = 00000001
HALT_TC          00000455 R     05   SHR$_BEGIN     = 00001030            STS$K_WARNING  = 00000000
INFO           = 00000003            SHR$_BEGIND    = 00001038            STS$M_CODE     = 00007FF8
LIB$SIGNAL       ********   X   05   SHR$_BEGINT    = 00001040            STS$M_COND_ID  = 0FFFFFF8
LONG             ********   X   05   SHR$_CLICB     = 00001048            STS$M_CONTROL  = F0000000
MOD_MSG_CODE     00000042 RG    04   SHR$_CLOSEDEL  = 00001218            STS$M_CUST_DEF = 08000000
MOD_MSG_PRINT    00000479 RG    05   SHR$_CLOSEIN   = 00001050            STS$M_FAC_NO   = 0FFF0000
MSG2_CND_CTL1    00000020 R     03   SHR$_CLOSEOUT  = 00001058            STS$M_FAC_SP   = 00008000
MSG2_CND_CTL2    00000035 R     03   SHR$_CONFDEL   = 000011F8            STS$M_INHIB_MSG= 10000000
SUCCOMMON       SATS SYSTEM SERVICE TESTS   COMMON (SUCC S.C.)   22-AUG-1978 03:58:01   VAX-11 MACRO X0.3-11               Page  16
SYMBOL TABLE                                                                                                                     (1)

STS$M_MSG_NO   = 0000FFF8            WRITE_MSG4_1     00000307 R     05
STS$M_SEVERITY = 00000007            WRITE_MSG4_2     00000330 R     05
STS$M_SUCCESS  = 00000001
STS$S_CODE     = 0000000C
STS$S_COND_ID  = 00000019
STS$S_CONTROL  = 00000004
STS$S_CUST_DEF = 00000001
STS$S_FAC_NO   = 0000000C
STS$S_FAC_SP   = 00000001
STS$S_INHIB_MSG= 00000001
STS$S_MSG_NO   = 0000000D
STS$S_SEVERITY = 00000003
STS$S_SUCCESS  = 00000001
STS$V_CODE     = 00000003
STS$V_COND_ID  = 00000003
STS$V_CONTROL  = 0000001C
STS$V_CUST_DEF = 0000001B
STS$V_FAC_NO   = 00000010
STS$V_FAC_SP   = 0000000F
STS$V_INHIB_MSG= 0000001C
STS$V_MSG_NO   = 00000003
STS$V_SEVERITY = 00000000
STS$V_SUCCESS  = 00000000
SUCCESS        = 00000001  G
SUCCOMMON        00000000 R     05
SYS$EXIT         ********   X   05
SYS$FAO          ********   X   05
TESTNUM          0000003C RG    04
TEST_MOD_BEG     00000008 R     03
TEST_MOD_FAIL    00000019 R     03
TEST_MOD_NAME    ********   X   04
TEST_MOD_SUCC    0000000E RG    03
TMD_ADDR         0000004A RG    04
TMN_ADDR         00000046 R     04
TM_CLEANUP       ********   X   05
TM_CU            000000F0 R     05
TM_SETUP         ********   X   05
UETP$_ABORTC   = 0074832B
UETP$_CONF     = 007480D1
UETP$_DATAER   = 00748010
UETP$_DDB      = 007480E1
UETP$_DENOSU   = 00748333
UETP$_DESTP    = 007481A2
UETP$_DEUNUS   = 0074819A
UETP$_ERBOX    = 00748008
UETP$_SATSMS   = 007480D9
UETP$_TEXT     = 00741133
UETP$_UCB      = 007480E9
UETP$_USER     = 0074833B
VERIFY           ********   X   05
VFY_CLEANUP      ********   X   05
WARNING        = 00000000
WRITE_MSG2       00000109 RG    05
WRITE_MSG2X      00000209 R     05
WRITE_MSG3       0000020D R     05
WRITE_MSG4       00000236 R     05
WRITE_MSG4X      00000306 R     05
SUCCOMMON       SATS SYSTEM SERVICE TESTS   COMMON (SUCC S.C.)   22-AUG-1978 03:58:01   VAX-11 MACRO X0.3-11               Page  17
PROGRAM SECTION SYNOPSIS                                                                                                         (1)


PROGRAM SECTION SYNOPSIS

.  ABS  .        00000000      00     NOPIC   USR   CON   ABS   LCL NOSHR NOEXE NORD  NOWRT BYTE
. BLANK .        00000000      01     NOPIC   USR   CON   REL   LCL NOSHR   EXE   RD    WRT BYTE
$ABS$            00000000      02     NOPIC   USR   CON   ABS   LCL NOSHR   EXE   RD    WRT BYTE
ROD_COMM         000000DA      03     NOPIC   USR   CON   REL   LCL NOSHR NOEXE   RD  NOWRT LONG
RWD_COMM         00000110      04     NOPIC   USR   CON   REL   LCL NOSHR NOEXE   RD    WRT LONG
SUCCOMMON        000004A0      05     NOPIC   USR   CON   REL   LCL NOSHR   EXE   RD    WRT BYTE


THERE WERE NO ERRORS OR WARNINGS.
18728. BYTES LEFT IN FREE MEMORY POOL.
4. BYTES OF RECLAIMED MEMORY.
OBJ$:SUCCOMMON,LIS$:SUCCOMMON/-SP=EXECML$/ML,LIB$:SYSTST.MLB/ML,SRC$:SUCCOMMON
29 MLB DIR RDS - 366 GETS TO DEFINE 20 MACROS. 31 INTER. FILE WRITES.
