FILMSG M0116, FILE HEADER TO AS	MACRO M1110  22-AUG-78 01:25
TABLE OF CONTENTS

     7-    1	**** FILMSG VERSION M0116 ****
FILMSG M0116, FILE HEADER TO AS	MACRO M1110  22-AUG-78 01:25  PAGE 7


      1						.TITLE	FILMSG M0116, FILE HEADER TO ASCII
						.SBTTL	**** FILMSG VERSION M0116 ****
						.IDENT	/M0116/
      2					; ALTERED THURSDAY 21-NOV-74 9:45
      3					;
      4					; COPYRIGHT 1975, DIGITAL EQUIPMENT CORP., MAYNARD MASS.
      5					; COPYRIGHT 1974, DIGITAL EQUIPMENT CORP., MAYNARD MASS.
      6
      7					; THIS SOFTWARE IS FURNISHED TO PURCHASER UNDER A LICENSE FOR USE
      8					; ON A SINGLE COMPUTER SYSTEM AND CAN BE COPIED (WITH INCLUSION
      9					; OF DEC'S COPYRIGHT NOTICE) ONLY FOR USE IN SUCH SYSTEM, EXCEPT
     10					; AS MAY OTHERWISE BE PROVIDED IN WRITING BY DEC.
     11
     12					; THE INFORMATION IN THIS DOCUMENT IS SUBJECT TO CHANGE WITHOUT
     13					; NOTICE AND SHOULD NOT BE CONSTRUED AS A COMMITMENT BY DIGITAL
     14					; EQUIPMENT CORPORATION.
     15
     16					; DEC ASSUMES NO RESPONSIBILITY FOR THE USE OR RELIABILITY
     17					; OF ITS SOFTWARE ON EQUIPMENT WHICH IS NOT SUPPLIED BY DEC.
     18					;
     19					; PETER H. LIPMAN 5-JUNE-73
     20					; ANDREW C. GOLDSTEIN  20-MAR-78  16:20
     21					;
     22						.MCALL	CALL,RETURN,FDOF$L
     23	000000					FDOF$L
     24					;
     25		000001 				HDFNAM=1		;IF SET IN R3, CONVERT THE FILE NAME
     26		000002 				HDLONG=2		;IF SET IN R3, LONG FORM CONVERSION
     27					;
     28	000000					PURE.D
     29					;
     30					; FIELD DEFINITION TABLES
     31	000000	   024 	   010 	   003 	$HDTB1::.BYTE	20.,8.,3.	;SHORT FORM
     32	000003	   024 	   020 	   016 	$HDTB2:	.BYTE	20.,16.,14.,3.,16.,2,9.,22.,24. ;LONG FORM
	000006	   003 	   020 	   002
	000011	   011 	   026 	   030
     33						.EVEN
FILMSG M0116, FILE HEADER TO AS	MACRO M1110  22-AUG-78 01:25  PAGE 8
**** FILMSG VERSION M0116 ****

     35					;
     36	000014					PURE.I
     37					;+
     38					; CONVERT FILE HEADER TO STRING
     39					; CALLING SEQUENCE:
     40					;	CALL	$FILMG
     41					; INPUTS
     42					;	R0=STRING ADDRESS TO PUT CHARACTERS IN
     43					;	R1=ATTRIBUTE BUFFER ADDRESS (DEFINED IN PIPMAC)
     44					;	R2=STATISTICS BLOCK ADDRESS
     45					;	R3=CONVERT CONTROL BITS (0-7)
     46					;		BIT 0 = 0 SKIP THE FILE NAME, TYPE, AND VERSION
     47					;		BIT 0 = 1 CONVERT THE FILE NAME, TYPE AND VERSION
     48					;		BIT 1 = 0 SHORT FORM CONVERSION
     49					;		BIT 1 = 1 LONG FORM CONVERSION
     50					;	R3 BITS 8-15 - LISTING WIDTH OF LINE, (>=132. FOR LONG 1 LINER)
     51					; OUTPUTS:
     52					;	R0=UPDATED STRING POINTER
     53					;	R1=TOTAL NUMBER OF BYTES CONVERTED
     54					;	R2-R5 PRESERVED
     55					;-
     56	000000	004567 	000000G		$FILMG::	JSR	R5,$SAVRG	;SAVE R3-R5
     57	000004	010046 				MOV	R0,-(SP)
     58	000006	010246 				MOV	R2,-(SP)
     59	000010	010346 				MOV	R3,-(SP)	;TOP OF STACK=CONTROL BITS
     60	000012	010103 				MOV	R1,R3		;R3=ADDRESS OF HEADER
     61	000014	010104 				MOV	R1,R4		;ANOTHER COPY OF BUFFER
     62	000016	012705 	000000'			MOV	#$HDTB1,R5
     63	000022	032716 	000002 			BIT	#HDLONG,@SP
     64	000026	001402 				BEQ	10$
     65	000030	012705 	000003'			MOV	#$HDTB2,R5	;R5=FIELD CONTROL TABLE
     66	000034	032716 	000001 		10$:	BIT	#HDFNAM,@SP	;CONVERT FILE NAME, TYPE, AND VERSION?
     67	000040	001412 				BEQ	20$		;BRANCH IF NO
     68					;
     69					; CONVERT THE FILE NAME, TYPE, AND VERSION
     70	000042	012701 	000000'			MOV	#HD01MG,R1
     71	000046	010402 				MOV	R4,R2
     72	000050	062702 	000006 			ADD	#AB.NAM,R2	;R2 POINTS AT RAD50 NAME, TYPE VER
     73	000054					CALL	$EDMSG
     74	000060					CALL	HDFILL		;FILL OUT THE FIELD WITH BLANK
     75	000064	000401 				BR	25$
     76	000066	005205 			20$:	INC	R5		;SKIP THE FILENAME FIELD
     77	000070	032716 	000002 		25$:	BIT	#HDLONG,@SP
     78	000074	001425 				BEQ	40$		;BRANCH IF SHORT FORM
     79					;
     80					; CONVERT THE FILE ID
     81	000076	010046 				MOV	R0,-(SP)
     82	000100	112720 	000050 			MOVB	#'(,(R0)+
     83	000104	016301 	000000 			MOV	AB.FNU(R3),R1
     84	000110	005002 				CLR	R2		;SUPPRESS LEADING ZEROS
     85	000112					CALL	$CBOMG		;CONVERT FILE NUMBER
     86	000116	112720 	000054 			MOVB	#',,(R0)+
     87	000122	016301 	000002 			MOV	AB.FSQ(R3),R1
     88	000126	005002 				CLR	R2
     89	000130					CALL	$CBOMG		;CONVERT FILE SEQUENCE NUMBER
     90	000134	112720 	000051 			MOVB	#'),(R0)+
     91	000140	010001 				MOV	R0,R1
FILMSG M0116, FILE HEADER TO AS	MACRO M1110  22-AUG-78 01:25  PAGE 8-1
**** FILMSG VERSION M0116 ****

     92	000142	162601 				SUB	(SP)+,R1
     93	000144					CALL	HDFILL
     94					; CONVERT THE NO. OF BLOCKS USED.
     95	000150	010301 			40$:	MOV	R3,R1
     96	000152	062701 	000020 			ADD	#AB.UAT,R1
     97	000156	016146 	000010 			MOV	F.EFBK(R1),-(SP) ;SAVE EFBK
     98	000162	016146 	000012 			MOV	F.EFBK+2(R1),-(SP)
     99	000166	011602 				MOV	@SP,R2
    100	000170	056602 	000002 			BIS	2(SP),R2
    101	000174	001011 				BNE	43$
    102					;
    103					; EFBK = 0 INDICATING THAT NO FCS END OF FILE INFO IS PRESENT
    104					; SAY THAT FILE SIZE IS THE ALLOCATED SPACE
    105	000176	016602 	000006 			MOV	6(SP),R2	;R2=STAT BLOCK ADDRESS
    106	000202	016261 	000004 	000010 		MOV	4(R2),F.EFBK(R1) ;USE ALLOCATED SPACE FOR SIZE USED
    107	000210	016261 	000006 	000012 		MOV	6(R2),F.EFBK+2(R1)
    108	000216	000410 				BR	45$
    109	000220	005761 	000014 		43$:	TST	F.FFBY(R1)	;IF FFBY=0
    110	000224	001005 				BNE	45$
    111	000226	162761 	000001 	000012 		SUB	#1,F.EFBK+2(R1)	;THEN EFBK IS 1 TOO BIG
    112	000234	005661 	000010 			SBC	F.EFBK(R1)
    113	000240	062701 	000010 		45$:	ADD	#F.EFBK,R1
    114	000244	005002 				CLR	R2		;ZERO SUPPRESS
    115	000246					CALL	CDDMG		;CONVERT DOUBLE PRECISION TO MAG DECIMAL
    116	000252	012663 	000032 			MOV	(SP)+,AB.UAT+F.EFBK+2(R3) ;RESTORE EFBK
    117	000256	012663 	000030 			MOV	(SP)+,AB.UAT+F.EFBK(R3)
    118	000262	032716 	000002 			BIT	#HDLONG,@SP
    119	000266	001414 				BEQ	60$		;BRANCH IF SHORT MODE
    120					; CONVERT NO. OF BLOCKS ALLOCATED
    121	000270	112720 	000057 			MOVB	#'/,(R0)+	;PUT IN "/"
    122	000274	005201 				INC	R1		;AND COUNT IT
    123	000276	010146 				MOV	R1,-(SP)	;SAVE THE COUNT
    124	000300	016601 	000004 			MOV	4(SP),R1	;R1=STATISTICS BLOCK ADDRESS
    125	000304	062701 	000004 			ADD	#4,R1		;R1=ADDRESS OF ALLOCATED SIZE
    126	000310	005002 				CLR	R2
    127	000312					CALL	CDDMG		;CONVERT DBL PRECISION TO DECIMAL MAGNITUDE
    128	000316	062601 				ADD	(SP)+,R1	;FORM COUNT FOR NNN/MMM
    129	000320				60$:	CALL	HDFILL		;BLANK FILL THE FIELD
    130					; PUT "C" FOR CONTIGUOUS AND "L" FOR LOCKED
    131	000324	112720 	000040 			MOVB	#' ,(R0)+
    132	000330	132763 	000000G	000064 		BITB	#HS.CON,AB.CHU(R3) ;IF CONTIGUOUS
    133	000336	001403 				BEQ	65$
    134	000340	112760 	000103 	177777 		MOVB	#'C,-1(R0)	;PUT A "C" IN STRING
    135	000346	112720 	000040 		65$:	MOVB	#' ,(R0)+
    136	000352	132763 	000000G	000064 		BITB	#HS.PHL,AB.CHU(R3) ;IF LOCKED
    137	000360	001403 				BEQ	70$
    138	000362	112760 	000114 	177777 		MOVB	#'L,-1(R0)	;PUT A "C" IN STRING
    139	000370	012701 	000002 		70$:	MOV	#2,R1		;NO. OF CHARACTERS
    140	000374					CALL	HDFILL
    141					; PUT CREATION DATE AND TIME IN STRING
    142	000400	010401 				MOV	R4,R1
    143	000402	062701 	000105 			ADD	#AB.CDT,R1
    144	000406					CALL	DATIM
    145	000412	032716 	000002 			BIT	#HDLONG,@SP
    146	000416	001573 				BEQ	FILMGX
    147	000420	122766 	000204 	000001 	FILMG1:	CMPB	#132.,1(SP)	;DON'T PUT IN ANOTHER LINE IF LONG LINE
    148	000426	101004 				BHI	5$
FILMSG M0116, FILE HEADER TO AS	MACRO M1110  22-AUG-78 01:25  PAGE 8-2
**** FILMSG VERSION M0116 ****

    149	000430					CALL	HDFILL
    150	000434	005205 				INC	R5		;SKIP INDENT
    151	000436	000410 				BR	10$
    152	000440	112720 	000015 		5$:	MOVB	#15,(R0)+	;NEXT LINE
    153	000444	112720 	000012 			MOVB	#12,(R0)+
    154	000450	005001 				CLR	R1
    155	000452	005205 				INC	R5		;SKIP FILL FIELD FOR CREATION DATE
    156	000454					CALL	HDFILL		;INDENT
    157					; STORE OWNER'S PROJECT PROGRAMMER NUMBER
    158	000460	012701 	000013'		10$:	MOV	#HD03MG,R1
    159	000464	005046 				CLR	-(SP)
    160	000466	116316 	000060 			MOVB	AB.PC(R3),@SP
    161	000472	005046 				CLR	-(SP)
    162	000474	116316 	000061 			MOVB	AB.GC(R3),@SP
    163	000500	010602 				MOV	SP,R2
    164	000502					CALL	$EDMSG
    165	000506	062706 	000004 			ADD	#4,SP
    166	000512					CALL	HDFILL
    167					; PUT PROTECTION CODE IN STRING
    168	000516	010046 				MOV	R0,-(SP)	;SAVE 50 CAN GET COUNT
    169	000520	112720 	000133 			MOVB	#'[,(R0)+
    170	000524	012702 	000004 			MOV	#4,R2
    171	000530	016301 	000062 			MOV	AB.FP(R3),R1
    172	000534	032701 	000000G		18$:	BIT	#HF.RDV,R1
    173	000540	001002 				BNE	20$
    174	000542	112720 	000122 			MOVB	#'R,(R0)+
    175	000546	032701 	000000G		20$:	BIT	#HF.WRV,R1
    176	000552	001002 				BNE	22$
    177	000554	112720 	000127 			MOVB	#'W,(R0)+
    178	000560	032701 	000000G		22$:	BIT	#HF.EXT,R1
    179	000564	001002 				BNE	24$
    180	000566	112720 	000105 			MOVB	#'E,(R0)+
    181	000572	032701 	000000G		24$:	BIT	#HF.DEL,R1
    182	000576	001002 				BNE	26$
    183	000600	112720 	000104 			MOVB	#'D,(R0)+
    184	000604	112720 	000054 		26$:	MOVB	#',,(R0)+
    185
    186						.IF	EQ,R$$EIS
    187		000004 				.REPT	4
    188						ASR	R1		;SHIFT RIGHT 4 BITS
    189						.ENDR
    190
    191						.IFF
    192						ASH	#-4,R1
    193						.ENDC
    194
    195	000620					SOB	R2,18$
    196	000624	112760 	000135 	177777 		MOVB	#'],-1(R0)	;"]" INSTEAD OF TRAILING ","
    197	000632	010001 				MOV	R0,R1
    198	000634	162601 				SUB	(SP)+,R1	;NEW POINTER -OLD=COUNT
    199	000636	105764 	000122 			TSTB	AB.EXP(R4)	;IF NO EXPIRATION DATE
    200					;***	BNE	30$		; TEMP UNTIL ODS2 REVISION DATES ARE FIXED
    201	000642	022764 	000001 	000066 		CMP	#1,AB.REV(R4)	;AND NO REVISION DATE TO PRINT
    202	000650	103056 				BHIS	FILMGX		;SKIP TO THE END
    203	000652				30$:	CALL	HDFILL
    204					; REVISION DATE
    205	000656	005001 				CLR	R1
FILMSG M0116, FILE HEADER TO AS	MACRO M1110  22-AUG-78 01:25  PAGE 8-3
**** FILMSG VERSION M0116 ****

    206	000660	022764 	000001 	000066 		CMP	#1,AB.REV(R4)	;IF REVISION NUMBER IS <=1
    207	000666	103021 				BHIS	40$		;DON'T BOTHER PRINTING THE REVISION INFO
    208	000670	010401 				MOV	R4,R1
    209	000672	062701 	000070 			ADD	#AB.RDT,R1
    210	000676					CALL	DATIM
    211	000702	010146 				MOV	R1,-(SP)
    212					; REVISION NUMBER
    213	000704	010402 				MOV	R4,R2
    214	000706	062702 	000066 			ADD	#AB.REV,R2
    215	000712	012701 	000023'			MOV	#HD04MG,R1
    216	000716					CALL	$EDMSG
    217	000722	062601 				ADD	(SP)+,R1	;ADD SAVED COUNT FROM REVISION DATE
    218	000724	105764 	000122 			TSTB	AB.EXP(R4)	;IF NULL EXPIRATION DATE
    219	000730	000426 				BR	FILMGX	;***	BEQ	FILMGX		;SKIP TO THE END
    220	000732	122766 	000204 	000001 	40$:	CMPB	#132.,1(SP)	;IF USING LONG LINE FORMAT
    221	000740	101007 				BHI	45$
    222	000742	112720 	000015 			MOVB	#15,(R0)+	;MUST GO TO NEW LINE NOW
    223	000746	112720 	000012 			MOVB	#12,(R0)+
    224	000752	112720 	000011 			MOVB	#11,(R0)+
    225	000756	000402 				BR	50$
    226	000760				45$:	CALL	HDFILL
    227					; EXPIRATION DATE
    228	000764	010401 			50$:	MOV	R4,R1
    229	000766	062701 	000122 			ADD	#AB.EXP,R1
    230	000772					CALL	DATIM
    231	000776	005701 				TST	R1		;ANY EXPIRATION DATE?
    232	001000	000402 				BR	FILMGX	;***	BEQ	FILMGX		;BRANCH IF NO
    233	001002	162700 	000006 			SUB	#6,R0		;SUBTRACT OFF THE TIME CHARACTERS
    234	001006	012603 			FILMGX:	MOV	(SP)+,R3
    235	001010	012602 				MOV	(SP)+,R2
    236	001012	010001 				MOV	R0,R1
    237	001014	162601 				SUB	(SP)+,R1
    238	001016	105010 				CLRB	@R0
    239	001020					RETURN
FILMSG M0116, FILE HEADER TO AS	MACRO M1110  22-AUG-78 01:25  PAGE 9
**** FILMSG VERSION M0116 ****

    241					;+
    242					; FILL IN FIELD WITH BLANKS
    243					; CALLING SEQUENCE:
    244					;	CALL	HDFILL
    245					; INPUTS
    246					;	R0=STRING ADDRESS
    247					;	R1=BYTES USED IN THIS FIELD
    248					;	R5=POINTS TO BYTE WHICH IS NO. OF SPACES TO USE IN THE FIELD
    249					; OUTPUTS:
    250					;	R0=UPDATED STRING POINTER
    251					;	R5=POINTS AT NEXT BYTE IN FIELD DEFINITION TABLE
    252					;	R1 ALTERED
    253					;	R2-R4 PRESERVED
    254					;-
    255	001022	010146 			$HDFIL::MOV	R1,-(SP)
    256	001024	112501 				MOVB	(R5)+,R1
    257	001026	162601 				SUB	(SP)+,R1
    258	001030	003404 				BLE	20$
    259	001032	112720 	000040 		10$:	MOVB	#' ,(R0)+
    260	001036					SOB	R1,10$
    261	001042				20$:	RETURN
    262					;
    263					; CONVERT FILE-11 DATE AND TIME FORMAT TO STRING
    264					; INPUTS
    265					;	R0=STRING ADDRES
    266					;	R1=DATE STRING ADDRESS
    267					; OUTPUTS
    268					;	R0 UPDATE
    269					;	R1=NO. OF BYTES
    270	001044	010046 			DATIM:	MOV	R0,-(SP)
    271	001046	105711 				TSTB	@R1
    272	001050	001423 				BEQ	20$
    273	001052	112120 				MOVB	(R1)+,(R0)+	;DATE DD
    274	001054	112120 				MOVB	(R1)+,(R0)+
    275	001056	112720 	000055 			MOVB	#'-,(R0)+
    276	001062	112120 				MOVB	(R1)+,(R0)+	;MONTH MMM
    277	001064	112120 				MOVB	(R1)+,(R0)+
    278	001066	112120 				MOVB	(R1)+,(R0)+
    279	001070	112720 	000055 			MOVB	#'-,(R0)+
    280	001074	112120 				MOVB	(R1)+,(R0)+	;YEAR YY
    281	001076	112120 				MOVB	(R1)+,(R0)+
    282	001100	112720 	000040 			MOVB	#' ,(R0)+
    283	001104	112120 				MOVB	(R1)+,(R0)+	;HOURS HH
    284	001106	112120 				MOVB	(R1)+,(R0)+
    285	001110	112720 	000072 			MOVB	#':,(R0)+
    286	001114	112120 				MOVB	(R1)+,(R0)+	;MINUTES MM
    287	001116	112120 				MOVB	(R1)+,(R0)+
    288	001120	010001 			20$:	MOV	R0,R1
    289	001122	162601 				SUB	(SP)+,R1
    290	001124					RETURN
    291					; CONVERT DOUBLE PRECISION BINARY TO MAGNITIDE DECIMAL
    292					; INPUTS
    293					;	R0=STRING ADDRESS
    294					;	R1=ADDRESS OF DOUBLE PRECISION NUMBER
    295					;	R2=R2 PARAM TO CBDMG
    296					; OUTPUTS
    297					;	R0=UPDATED STRING
FILMSG M0116, FILE HEADER TO AS	MACRO M1110  22-AUG-78 01:25  PAGE 9-1
**** FILMSG VERSION M0116 ****

    298					;	R1=SIZE
    299					;	R2 ALTERED, R3-R5 PRESERVED
    300	001126	010046 			CDDMG:	MOV	R0,-(SP)
    301	001130					CALL	$CDDMG
    302	001134	112720 	000056 			MOVB	#'.,(R0)+
    303	001140	010001 				MOV	R0,R1
    304	001142	162601 				SUB	(SP)+,R1
    305	001144					RETURN
    306					;
    307	000000					.CSECT
    308					;
    309					; HEADER CONVERSION STRINGS
    310	000000					MSGZ	HD01,<%X>
    311	000000					MSGZ	HD02,<(%P,%P)>
    312	000000					MSGZ	HD03,<[%O,%O]>
    313	000000					MSGZ	HD04,<(%D.)>
    314					;
    315					;
    316					;
    317		000001 				.END
FILMSG M0116, FILE HEADER TO AS	MACRO M1110  22-AUG-78 01:25  PAGE 9-2
SYMBOL TABLE

AB.CDT  000105   	F.BKEF= 000050   	F.MBFG= 000056   	HD02MG= 000003R     004	R$$DPB= 000001
AB.CHU  000064   	F.BKP1= 000051   	F.NRBD= 000024   	HD02SZ= 000010   	R$$DYM= 000001
AB.EXP  000122   	F.BKST= 000024   	F.NREC= 000030   	HD03MG= 000013R     004	R$$EIS= 000000
AB.FNU  000000   	F.BKVB= 000064   	F.OVBS= 000030   	HD03SZ= 000010   	R$$MSG= 000000
AB.FP   000062   	F.CHR = 000075   	F.RACC= 000016   	HD04MG= 000023R     004	R$$11M= 000001
AB.FSQ  000002   	F.CNTG= 000034   	F.RATT= 000001   	HD04SZ= 000006   	S.FATT= 000016
AB.GC   000061   	F.DFNB= 000046   	F.RCNM= 000034   	HF.DEL= ****** GX	S.FDB = 000140
AB.NAM  000006   	F.DSPT= 000044   	F.RCTL= 000017   	HF.EXT= ****** GX	S.FNAM= 000006
AB.PC   000060   	F.DVNM= 000134   	F.RSIZ= 000002   	HF.RDV= ****** GX	S.FNB = 000036
AB.RDT  000070   	F.EFBK= 000010   	F.RTYP= 000000   	HF.WRV= ****** GX	S.FNBW= 000017
AB.REV  000066   	F.EFN = 000050   	F.SEQN= 000100   	HS.CON= ****** GX	S.FNTY= 000004
AB.UAT  000020   	F.EOBB= 000032   	F.SPDV= 000072   	HS.PHL= ****** GX	S.FTYP= 000002
CDDMG   001126R     003	F.ERR = 000052   	F.SPUN= 000074   	NB.NXD= 020000   	S.NFEN= 000020
DATIM   001044R     003	F.FACC= 000043   	F.STBK= 000036   	NB.WLV= 010000   	$CBOMG= ****** GX
FILMGX  001006R     003	F.FFBY= 000014   	F.UNIT= 000136   	N.DID = 000024   	$CDDMG= ****** GX
FILMG1  000420R     003	F.FNAM= 000110   	F.URBD= 000020   	N.DVNM= 000032   	$EDMSG= ****** GX
F.ACTL= 000076   	F.FNB = 000102   	F.VBN = 000064   	N.FID = 000000   	$FILMG  000000RG    003
F.ALOC= 000040   	F.FTYP= 000116   	F.VBSZ= 000060   	N.FNAM= 000006   	$HDFIL  001022RG    003
F.BBFS= 000062   	F.FVER= 000120   	HDFILL= ****** GX	N.FTYP= 000014   	$HDTB1  000000RG    002
F.BDB = 000070   	F.HIBK= 000004   	HDFNAM= 000001   	N.FVER= 000016   	$HDTB2  000003R     002
F.BGBC= 000057   	F.LUN = 000042   	HDLONG= 000002   	N.NEXT= 000022   	$SAVRG= ****** GX
F.BKDN= 000026   	F.MBCT= 000054   	HD01MG= 000000R     004	N.STAT= 000020   	...TPC= 000140
F.BKDS= 000020   	F.MBC1= 000055   	HD01SZ= 000003   	N.UNIT= 000034

. ABS.	000131	   000
      	000000	   001
PURE$D	000014	   002
PURE$I	001146	   003
MSGSTR	000031	   004
ERRORS DETECTED:  0

VIRTUAL MEMORY USED:  3881 WORDS  ( 16 PAGES)
DYNAMIC MEMORY:  4884 WORDS  ( 18 PAGES)
ELAPSED TIME:  00:00:20
OBJ$:FILMSG,LIS$:FILMSG/-SP=SRC$:PIPMAC,FILMSG
