COBOL           - BACKTRANSLATOR FOR COBOL COMMAND               22-AUG-1978 05:23:44   VAX-11 MACRO X0.3-11               Page   1
HJ                                                                                                                               (1)

                                     0000     1 	.TITLE	COBOL - BACKTRANSLATOR FOR COBOL COMMAND
                                     0000     2 	.IDENT	/HJ/
                                     0000     3
                                     0000     4 ;
                                     0000     5 ; COPYRIGHT (C) 1977
                                     0000     6 ; DIGITAL EQUIPMENT CORPORATION, MAYNARD, MASS.
                                     0000     7 ;
                                     0000     8 ; THIS SOFTWARE IS FURNISHED UNDER  A LICENSE FOR USE ONLY  ON  A
                                     0000     9 ; SINGLE COMPUTER SYSTEM AND MAY BE  COPIED ONLY WITH  THE INCLU-
                                     0000    10 ; SION OF  THE  ABOVE  COPYRIGHT NOTICE.  THIS SOFTWARE,  OR  ANY
                                     0000    11 ; OTHER COPIES THEREOF, MAY NOT BE  PROVIDED  OR  OTHERWISE  MADE
                                     0000    12 ; AVAILABLE TO ANY OTHER PERSON EXCEPT  FOR  USE  ON  SUCH SYSTEM
                                     0000    13 ; AND TO  ONE WHO AGREES  TO  THESE LICENSE  TERMS.  TITLE TO AND
                                     0000    14 ; OWNERSHIP OF THE SOFTWARE SHALL AT ALL TIMES REMAIN IN DEC.
                                     0000    15 ;
                                     0000    16 ; THE INFORMATION IN THIS SOFTWARE  IS  SUBJECT TO CHANGE WITHOUT
                                     0000    17 ; NOTICE AND SHOULD NOT BE CONSTRUED  AS  A COMMITMENT BY DIGITAL
                                     0000    18 ; EQUIPMENT CORPORATION.
                                     0000    19 ;
                                     0000    20 ; DEC ASSUMES NO RESPONSIBILITY FOR THE USE OR RELIABILITY OF ITS
                                     0000    21 ; SOFTWARE ON EQUIPMENT WHICH IS NOT SUPPLIED BY DEC.
                                     0000    22 ;
                                     0000    23 ; H.J.	DECEMBER 1977
                                     0000    24 ;
                                     0000    25 ; BACKTRANSLATOR COBOL
                                     0000    26 ;
COBOL           - BACKTRANSLATOR FOR COBOL COMMAND               22-AUG-1978 05:23:44   VAX-11 MACRO X0.3-11               Page   2
HJ                                                                                                                               (2)

                                     0000    28 ;	.SBTTL INITIALIZE DATA DEFINITIONS
                                     0000    29 ;
                                     0000    30 ; MACRO LIBRARY CALLS
                                     0000    31 ;
                                     0000    32 	$BTDEFS				;DEFINE VALUES TO BE USED LOCALLY
                                     0000       	.SAVE
                                 00000000       	.PSECT	$ABS$,ABS
                                     0000       	.RESTORE
                                     0000    33 	$CLIDEF				;DEFINE CLI CODES AND VALUES
                                     0000       	.SAVE
                                 00000000       	.PSECT	$ABS$,ABS
                                     0000       CLI$L_INIARGCNT:
                           00000004  0000        			.BLKL	1
                                     0004       CLI$A_PROGXFER:
                           00000008  0004        			.BLKL	1
                                     0008       CLI$A_UTILSERV:
                           0000000C  0008        			.BLKL	1
                                     000C       CLI$A_IMGHDADR:
                           00000010  000C        			.BLKL	1
                                     0010       CLI$A_IMGFILED:
                           00000014  0010        			.BLKL	1
                                     0014       CLI$L_LINKFLAG:
                           00000018  0014        			.BLKL	1
                                     0018       CLI$L_CLIFLAG:
                           0000001C  0018        			.BLKL	1
                           00000000  001C        	. = 0
                                     0000       CLI$B_RQTYPE:
                           00000001  0000        			.BLKB	1
                                     0001       CLI$W_SERVCOD:
                                     0001       CLI$B_RQINDX:
                                     0001       CLI$B_BITNUM:
                           00000002  0001        			.BLKB	1
                                     0002       CLI$B_RQFLGS:
                           00000003  0002        			.BLKB	1
                                     0003       CLI$B_RQSTAT:
                           00000004  0003        			.BLKB	1
                                     0004       CLI$A_ERRACT:
                           00000008  0004        			.BLKL	1
                                     0008       CLI$Q_RQDESC:
                                     0008       CLI$W_RQSIZE:
                           0000000A  0008        			.BLKW	1
                           0000000C  000A        			.BLKW	1
                                     000C       CLI$L_RQVALU:
                                     000C       CLI$A_RQADDR:
                           00000010  000C        			.BLKL	1
                                     0010       CLI$A_PRSACT:
                           00000014  0010        			.BLKL	1
                                     0014       CLI$A_ABSACT:
                           00000018  0014        			.BLKL	1
                                     0018       CLI$A_QUALST:
                           0000001C  0018        			.BLKL	1
                                     001C       CLI$C_REQDESC:
                                     001C       CLI$K_REQDESC:
                           00000000  001C        	. = 0
                                     0000       CLI$B_QDBLKSIZ:
                           00000001  0000        			.BLKB	1
                                     0001       CLI$B_QDCODE:
COBOL           - BACKTRANSLATOR FOR COBOL COMMAND               22-AUG-1978 05:23:44   VAX-11 MACRO X0.3-11               Page   3
HJ                                                                                                                               (2)

                           00000002  0001        			.BLKB	1
                                     0002       CLI$B_QDFLGS:
                           00000003  0002        			.BLKB	1
                                     0003       CLI$B_QDSTAT:
                           00000004  0003        			.BLKB	1
                                     0004       CLI$Q_QDVALDESC:
                                     0004       CLI$W_QDVALSIZ:
                           00000006  0004        			.BLKW	1
                           00000008  0006        			.BLKW	1
                                     0008       CLI$A_QDVALADR:
                           0000000C  0008        			.BLKL	1
                                     000C       CLI$A_TRUACT:
                           00000010  000C        			.BLKL	1
                                     0010       CLI$A_FLSACT:
                           00000014  0010        			.BLKL	1
                                     0014       CLI$C_QUALDEF:
                                     0014       CLI$K_QUALDEF:
                                     0014       CLI$C_QDBITS:
                                     0014       CLI$K_QDBITS:
                                     0014       CLI$L_USRVAL:
                           00000018  0014        			.BLKL	1
                           00000000  0018        	. = 0
                                     0000       CLI$L_WORKAREA:
                           00000080  0000        			.BLKL	32
                                     0080       CLI$C_WORKAREA:
                                     0080       CLI$K_WORKAREA:
                                     0000       	.RESTORE
                                     0000    34 	$CLIDEFQUALCOBO			;DEFINE QUALIFIER CODES
                                     0000       	.SAVE
                                 00000080       	.PSECT	$ABS$,ABS
                           00000000  0080       	.=0
                                     0000       PRO_B_PROMPT:
                           00000001  0000       	.BLKB	1
                                     0001       PRO_B_FLAGS:
                           00000002  0001       	.BLKB	1
                                     0002       PRO_K_LENGTH:
                                     0000       	.RESTORE
                                     0000       	.SAVE
                                 00000080       	.PSECT	$ABS$,ABS
                           00000000  0080       	.=0
                                     0000       QUA_B_OFFSET:
                           00000001  0000       	.BLKB	1
                                     0001       QUA_B_INDEX:
                           00000002  0001       	.BLKB	1
                                     0002       QUA_B_DEFVAL:
                           00000003  0002       	.BLKB	1
                                     0003       QUA_W_FLAGS:
                           00000005  0003       	.BLKW	1
                                     0005       QUA_B_IMAGE:
                           00000006  0005       	.BLKB	1
                                     0006       QUA_G_CHNGLST:
                                     0006       QUA_W_QUALIST:
                           00000008  0006       	.BLKW	1
                                     0008       QUA_B_PARMCNT:
                           00000009  0008       	.BLKB	1
                                     0009       QUA_W_PROMPT:
                           0000000B  0009       	.BLKW	1
COBOL           - BACKTRANSLATOR FOR COBOL COMMAND               22-AUG-1978 05:23:44   VAX-11 MACRO X0.3-11               Page   4
HJ                                                                                                                               (2)

                                     0000       	.RESTORE
                                     0000    35
                                     0000    36 ;
                                     0000    37 ; LOCAL SYMBOLS
                                     0000    38 ;
                                     0000    39
                                     0000    40 ;
                                     0000    41 ; ARGUMENT LIST OFFSET DEFINITIONS
                                     0000    42 ;
                                     0000    43
                                     0000    44 ;
                                     0000    45 ; LOCAL DATA
                                     0000    46 ;
                                     0000    47 	IMPURE
                                 00000000       	.PSECT	IMPURE_	LONG,RD,WRT,NOEXE
                                     0000    48 ;
                                     0000    49 ;
                                     0000    50 ;
                                     0000    51 INPUT_ARGLIST:
                                     0000    52 	$ARGLST	3,-			;CREATE AN ARGUMENT LIST
                                     0000    53 		INPUT_DESC,-		;FOR FIRST INPUT PARAMETER
                                     0000    54 		CLIWORKAREA,-		;WORK AREA FOR CLI
                                     0000    55 		BITMAP			;BIT ARRAY
                           00000003  0000       		.LONG	3
                           00000010' 0004       		.LONG	INPUT_DESC
                           00000000' 0008       		.LONG	CLIWORKAREA
                           00000000' 000C       		.LONG	BITMAP
                                     0010    56
                                     0010    57 INPUT_DESC:
                                     0010    58 	$CLIREQDESC -			;CREATE A CLI REQUEST DESCRIPTOR
                                     0010    59 		RQTYPE=CLI$K_INPUT1,-	;FOR PRIMARY INPUT
                                     0010    60 		RQFLGS=CLI$V_PARMREQ	;PRIMARY INPUT IS REQUIRED
                           0000002C  0010       	.BLKB	CLI$C_REQDESC
                           00000010  002C       	. = $CLI.+CLI$B_RQTYPE
                                 10  0010       	  .BYTE	CLI$K_INPUT1
                           00000012  0011       	. = $CLI.+CLI$B_RQFLGS
                                 01  0012       	.BYTE	$$$.
                           0000002C  0013       	. = $CLI..
                                     002C    61
                                     002C    62 OBJECT_ARGLIST:
                                     002C    63 	$ARGLST	3,-			;CREATE AN ARGUMENT LIST
                                     002C    64 		OBJECT_DESC,-		;FOR PRIMARY OUTPUT
                                     002C    65 		CLIWORKAREA,-		;WORK AREA FOR CLI
                                     002C    66 		BITMAP			;BIT ARRAY
                           00000003  002C       		.LONG	3
                           0000003C' 0030       		.LONG	OBJECT_DESC
                           00000000' 0034       		.LONG	CLIWORKAREA
                           00000000' 0038       		.LONG	BITMAP
                                     003C    67
                                     003C    68 OBJECT_DESC:
                                     003C    69 	$CLIREQDESC -			;CREATE A CLI REQUEST DESCRIPTOR
                                     003C    70 		RQTYPE=CLI$K_OUTPUT1	;FOR PRIMARY OUTPUT
                           00000058  003C       	.BLKB	CLI$C_REQDESC
                           0000003C  0058       	. = $CLI.+CLI$B_RQTYPE
                                 20  003C       	  .BYTE	CLI$K_OUTPUT1
                           00000058  003D       	. = $CLI..
                                     0058    71
COBOL           - BACKTRANSLATOR FOR COBOL COMMAND               22-AUG-1978 05:23:44   VAX-11 MACRO X0.3-11               Page   5
HJ                                                                                                                               (2)

                                     0058    72 LIST_ARGLIST:
                                     0058    73 	$ARGLST	3,-			;CREATE AN ARGUMENT LIST
                                     0058    74 		LIST_DESC,-		;FOR SECONDARY OUTPUT
                                     0058    75 		CLIWORKAREA,-		;WORK AREA FOR CLI
                                     0058    76 		BITMAP			;BIT ARRAY
                           00000003  0058       		.LONG	3
                           00000068' 005C       		.LONG	LIST_DESC
                           00000000' 0060       		.LONG	CLIWORKAREA
                           00000000' 0064       		.LONG	BITMAP
                                     0068    77
                                     0068    78 LIST_DESC:
                                     0068    79 	$CLIREQDESC -			;CREATE A CLI REQUEST DESCRIPTOR
                                     0068    80 		RQTYPE=CLI$K_OUTPUT2	;FOR SECONDARY OUTPUT
                           00000084  0068       	.BLKB	CLI$C_REQDESC
                           00000068  0084       	. = $CLI.+CLI$B_RQTYPE
                                 21  0068       	  .BYTE	CLI$K_OUTPUT2
                           00000084  0069       	. = $CLI..
                                     0084    81
                                     0084    82
                                     0084    83 QUAL_ARGLIST:
                                     0084    84 	$ARGLST	3,-			;CREATE AN ARGUMENT LIST
                                     0084    85 		QUAL_DESC,-		;FOR COMMAND QUALIFIERS
                                     0084    86 		CLIWORKAREA,-		;WORK AREA FOR CLI
                                     0084    87 		BITMAP			;BIT ARRAY
                           00000003  0084       		.LONG	3
                           00000094' 0088       		.LONG	QUAL_DESC
                           00000000' 008C       		.LONG	CLIWORKAREA
                           00000000' 0090       		.LONG	BITMAP
                                     0094    88
                                     0094    89 QUAL_DESC:
                                     0094    90 	$CLIREQDESC -			;CREATE A CLI REQUEST DESCRIPTOR
                                     0094    91 		RQTYPE=CLI$K_GETQUAL,-	;FOR COMMAND QUALIFIERS
                                     0094    92 		QUALST=QUAL_LIST	;ADDRESS OF THE QUALIFIERS
                           000000B0  0094       	.BLKB	CLI$C_REQDESC
                           00000094  00B0       	. = $CLI.+CLI$B_RQTYPE
                                 02  0094       	  .BYTE	CLI$K_GETQUAL
                           000000AC  0095       	. = $CLI.+CLI$A_QUALST
                           0000001C' 00AC       	    .LONG	<QUAL_LIST-$CLI.>
                                     00B0    93
                                     00B0    94
                                     00B0    95 QUAL_LIST:
                                     00B0    96 	$CLIQUALDESC -			;DEFINE A QUALIFIER
                                     00B0    97 		QDCODE=CLI$K_COBO_ANSI,-;/ANSI
                                     00B0    98 		TRUACT=COBO_ANSI	;CALL QUALIFIER HANDLER
                           000000C4  00B0       	.BLKB	CLI$C_QUALDEF
                           000000B0  00C4       	. = $CLI.+CLI$B_QDBLKSIZ
                                 17' 00B0       	  .BYTE	30101$-.
                                 06  00B1       	  .BYTE	CLI$K_COBO_ANSI
                           000000BC  00B2       	. = $CLI.+CLI$A_TRUACT
                           FFFFFFAF' 00BC       	    .LONG	<COBO_ANSI-$CLI.>
                           000000C4  00C0       . = $CLI..
                                 00  00C4       	.BYTE	0
                                 00  00C5       	.BYTE	0
                                 00  00C6       	.BYTE	0
                                     00C7       30101$:
                                     00C7    99
                                     00C7   100 	$CLIQUALDESC -			;DEFINE A QUALIFIER
COBOL           - BACKTRANSLATOR FOR COBOL COMMAND               22-AUG-1978 05:23:44   VAX-11 MACRO X0.3-11               Page   6
HJ                                                                                                                               (2)

                                     00C7   101 		QDCODE=CLI$K_COBO_COPY,-;/COPY_LIST
                                     00C7   102 		FLSACT=COBO_NOCOPY	;CALL QUALIFIER HANDLER
                           000000DB  00C7       	.BLKB	CLI$C_QUALDEF
                           000000C7  00DB       	. = $CLI.+CLI$B_QDBLKSIZ
                                 17' 00C7       	  .BYTE	30105$-.
                                 07  00C8       	  .BYTE	CLI$K_COBO_COPY
                           000000D7  00C9       	. = $CLI.+CLI$A_FLSACT
                           FFFFFFA4' 00D7       	    .LONG	<COBO_NOCOPY-$CLI.>
                                 00  00DB       	.BYTE	0
                                 00  00DC       	.BYTE	0
                                 00  00DD       	.BYTE	0
                                     00DE       30105$:
                                     00DE   103
                                     00DE   104 	$CLIQUALDESC -			;DEFINE A QUALIFIER
                                     00DE   105 		QDCODE=CLI$K_COBO_CROS,-;/CROSS_REFERENCE
                                     00DE   106 		TRUACT=COBO_CROSS_REF	;CALL QUALIFIER HANDLER
                           000000F2  00DE       	.BLKB	CLI$C_QUALDEF
                           000000DE  00F2       	. = $CLI.+CLI$B_QDBLKSIZ
                                 17' 00DE       	  .BYTE	30109$-.
                                 05  00DF       	  .BYTE	CLI$K_COBO_CROS
                           000000EA  00E0       	. = $CLI.+CLI$A_TRUACT
                           FFFFFF98' 00EA       	    .LONG	<COBO_CROSS_REF-$CLI.>
                           000000F2  00EE       . = $CLI..
                                 00  00F2       	.BYTE	0
                                 00  00F3       	.BYTE	0
                                 00  00F4       	.BYTE	0
                                     00F5       30109$:
                                     00F5   107
                                     00F5   108 	$CLIQUALDESC -			;DEFINE A QUALIFIER
                                     00F5   109 		QDCODE=CLI$K_COBO_MAP,-	;/MAP
                                     00F5   110 		TRUACT=COBO_MAP		;CALL QUALIFIER HANDLER
                           00000109  00F5       	.BLKB	CLI$C_QUALDEF
                           000000F5  0109       	. = $CLI.+CLI$B_QDBLKSIZ
                                 17' 00F5       	  .BYTE	30113$-.
                                 04  00F6       	  .BYTE	CLI$K_COBO_MAP
                           00000101  00F7       	. = $CLI.+CLI$A_TRUACT
                           FFFFFF8E' 0101       	    .LONG	<COBO_MAP-$CLI.>
                           00000109  0105       . = $CLI..
                                 00  0109       	.BYTE	0
                                 00  010A       	.BYTE	0
                                 00  010B       	.BYTE	0
                                     010C       30113$:
                                     010C   111
                                     010C   112 	$CLIQUALDESC -			;DEFINE A QUALIFIER
                                     010C   113 		QDCODE=CLI$K_COBO_NAME,-;/NAME:XX
                                     010C   114 		TRUACT=COBO_NAME	;CALL QUALIFIER HANDLER
                           00000120  010C       	.BLKB	CLI$C_QUALDEF
                           0000010C  0120       	. = $CLI.+CLI$B_QDBLKSIZ
                                 17' 010C       	  .BYTE	30117$-.
                                 0B  010D       	  .BYTE	CLI$K_COBO_NAME
                           00000118  010E       	. = $CLI.+CLI$A_TRUACT
                           FFFFFF83' 0118       	    .LONG	<COBO_NAME-$CLI.>
                           00000120  011C       . = $CLI..
                                 00  0120       	.BYTE	0
                                 00  0121       	.BYTE	0
                                 00  0122       	.BYTE	0
                                     0123       30117$:
COBOL           - BACKTRANSLATOR FOR COBOL COMMAND               22-AUG-1978 05:23:44   VAX-11 MACRO X0.3-11               Page   7
HJ                                                                                                                               (2)

                                     0123   115
                                     0123   116 	$CLIQUALDESC -			;DEFINE A QUALIFIER
                                     0123   117 		QDCODE=CLI$K_COBO_NEST,-;/NEST:N
                                     0123   118 		TRUACT=COBO_NEST	;CALL QUALIFIER HANDLER
                           00000137  0123       	.BLKB	CLI$C_QUALDEF
                           00000123  0137       	. = $CLI.+CLI$B_QDBLKSIZ
                                 17' 0123       	  .BYTE	30121$-.
                                 09  0124       	  .BYTE	CLI$K_COBO_NEST
                           0000012F  0125       	. = $CLI.+CLI$A_TRUACT
                           FFFFFF79' 012F       	    .LONG	<COBO_NEST-$CLI.>
                           00000137  0133       . = $CLI..
                                 00  0137       	.BYTE	0
                                 00  0138       	.BYTE	0
                                 00  0139       	.BYTE	0
                                     013A       30121$:
                                     013A   119
                                     013A   120 	$CLIQUALDESC -			;DEFINE A QUALIFIER
                                     013A   121 		QDCODE=CLI$K_COBO_OVER,-;/OVERLAY
                                     013A   122 		TRUACT=COBO_OVERLAY	;CALL QUALIFIER HANDLER
                           0000014E  013A       	.BLKB	CLI$C_QUALDEF
                           0000013A  014E       	. = $CLI.+CLI$B_QDBLKSIZ
                                 17' 013A       	  .BYTE	30125$-.
                                 0D  013B       	  .BYTE	CLI$K_COBO_OVER
                           00000146  013C       	. = $CLI.+CLI$A_TRUACT
                           FFFFFF6E' 0146       	    .LONG	<COBO_OVERLAY-$CLI.>
                           0000014E  014A       . = $CLI..
                                 00  014E       	.BYTE	0
                                 00  014F       	.BYTE	0
                                 00  0150       	.BYTE	0
                                     0151       30125$:
                                     0151   123
                                     0151   124 	$CLIQUALDESC -			;DEFINE A QUALIFIER
                                     0151   125 		QDCODE=CLI$K_COBO_RSX1,-;/RSX11
                                     0151   126 		TRUACT=COBO_RSX11	;CALL QUALIFIER HANDLER
                           00000165  0151       	.BLKB	CLI$C_QUALDEF
                           00000151  0165       	. = $CLI.+CLI$B_QDBLKSIZ
                                 17' 0151       	  .BYTE	30129$-.
                                 03  0152       	  .BYTE	CLI$K_COBO_RSX1
                           0000015D  0153       	. = $CLI.+CLI$A_TRUACT
                           FFFFFF62' 015D       	    .LONG	<COBO_RSX11-$CLI.>
                           00000165  0161       . = $CLI..
                                 00  0165       	.BYTE	0
                                 00  0166       	.BYTE	0
                                 00  0167       	.BYTE	0
                                     0168       30129$:
                                     0168   127
                                     0168   128 	$CLIQUALDESC -			;DEFINE A QUALIFIER
                                     0168   129 		QDCODE=CLI$K_COBO_SEGM,-;/SEGMENT_SIZE:N
                                     0168   130 		TRUACT=COBO_SEGMENT	;CALL QUALIFIER HANDLER
                           0000017C  0168       	.BLKB	CLI$C_QUALDEF
                           00000168  017C       	. = $CLI.+CLI$B_QDBLKSIZ
                                 17' 0168       	  .BYTE	30133$-.
                                 0C  0169       	  .BYTE	CLI$K_COBO_SEGM
                           00000174  016A       	. = $CLI.+CLI$A_TRUACT
                           FFFFFF53' 0174       	    .LONG	<COBO_SEGMENT-$CLI.>
                           0000017C  0178       . = $CLI..
                                 00  017C       	.BYTE	0
COBOL           - BACKTRANSLATOR FOR COBOL COMMAND               22-AUG-1978 05:23:44   VAX-11 MACRO X0.3-11               Page   8
HJ                                                                                                                               (2)

                                 00  017D       	.BYTE	0
                                 00  017E       	.BYTE	0
                                     017F       30133$:
                                     017F   131
                                     017F   132 	$CLIQUALDESC -			;DEFINE A QUALIFIER
                                     017F   133 		QDCODE=CLI$K_COBO_VERB,-;/VERB_LOCATION
                                     017F   134 		TRUACT=COBO_VERB_LOC	;CALL QUALIFIER HANDLER
                           00000193  017F       	.BLKB	CLI$C_QUALDEF
                           0000017F  0193       	. = $CLI.+CLI$B_QDBLKSIZ
                                 17' 017F       	  .BYTE	30137$-.
                                 0A  0180       	  .BYTE	CLI$K_COBO_VERB
                           0000018B  0181       	. = $CLI.+CLI$A_TRUACT
                           FFFFFF49' 018B       	    .LONG	<COBO_VERB_LOC-$CLI.>
                           00000193  018F       . = $CLI..
                                 00  0193       	.BYTE	0
                                 00  0194       	.BYTE	0
                                 00  0195       	.BYTE	0
                                     0196       30137$:
                                     0196   135
                                     0196   136 	$CLIQUALDESC -			;DEFINE A QUALIFIER
                                     0196   137 		QDCODE=CLI$K_COBO_WARN,-;/WARNINGS
                                     0196   138 		FLSACT=COBO_NOWARNINGS	;CALL QUALIFIER HANDLER
                           000001AA  0196       	.BLKB	CLI$C_QUALDEF
                           00000196  01AA       	. = $CLI.+CLI$B_QDBLKSIZ
                                 17' 0196       	  .BYTE	30141$-.
                                 08  0197       	  .BYTE	CLI$K_COBO_WARN
                           000001A6  0198       	. = $CLI.+CLI$A_FLSACT
                           FFFFFF3E' 01A6       	    .LONG	<COBO_NOWARNINGS-$CLI.>
                                 00  01AA       	.BYTE	0
                                 00  01AB       	.BYTE	0
                                 00  01AC       	.BYTE	0
                                     01AD       30141$:
                                     01AD   139
                                     01AD   140
                                     01AD   141 	$CLIQUALDESC	END_LIST	;TERMINATE THE QUALIFIER LIST
                                 00  01AD       	.BYTE	0
COBOL           - BACKTRANSLATOR FOR COBOL COMMAND               22-AUG-1978 05:23:44   VAX-11 MACRO X0.3-11               Page   9
HJ                                                                                                                               (3)

                                     01AE   143 ;	.SBTTL COBOL
                                     01AE   144 ;+
                                     01AE   145 ; BACKTRANSLATOR COBOL
                                     01AE   146 ;
                                     01AE   147 ; CONVERTS DCL COMMAND TO COMPATIBILITY MODE IMAGE COMMAND
                                     01AE   148 ;
                                     01AE   149 ;
                                     01AE   150 ; INPUTS:
                                     01AE   151 ;  THE INPUTS ARE RETURNED FROM THE DCL RESULT PARSER AS RESPONSES
                                     01AE   152 ;  TO THE VARIOUS REQUEST DESCRIPTORS THAT ARE GIVEN TO IT.
                                     01AE   153 ;
                                     01AE   154 ;
                                     01AE   155 ; OUTPUTS:
                                     01AE   156 ;  THE OUTPUT CONSISTS OF TWO STRINGS OR AN ERROR MESSAGE AND ABORT.
                                     01AE   157 ;  THE CALLER OPENS THE IMAGE AND INVOKES THE COMPATIBILITY EMULATOR
                                     01AE   158 ;  IF NO ERROR OCCURS.
                                     01AE   159 ;
                                     01AE   160 ;  1- FILENAME STRING OF COMPATIBILITY MODE IMAGE TO BE ACTIVATED.
                                     01AE   161 ;
                                     01AE   162 ;  2- COMMAND LINE TO BE GIVEN TO THE IMAGE.
                                     01AE   163 ;
                                     01AE   164 ;-
                                     01AE   165
                                     01AE   166 	PURE
                                 00000000       	.PSECT	PURE_	BYTE,RD,EXE,NOWRT
                                     0000   167
                                     0000   168 COBO::
                                 FA  0000   169 	CALLG	W^OBJECT_ARGLIST,-	;PROCESS PRIMARY OUTPUT (/OBJECT:SPEC)
         08 BC       002C'CF         0001   170 		@CLI$A_UTILSERV(AP)
            59       0044'CF     7D  0006   171 	MOVQ	W^CLI$Q_RQDESC+OBJECT_DESC,R9 ;PICK UP STRING DESCRIPTOR
                          FFF2'  30  000B   172 	BSBW	INSERTARG		;SAVE IT AS PRIMARY OUTPUT
                     0000'CF     97  000E   173 	DECB	W^PARAMLOC		;SET UP FOR SECONDARY OUTPUT
                                 FA  0012   174 	CALLG	W^LIST_ARGLIST,-	;PROCESS SECONDARY OUTPUT (/LIST:SPEC)
         08 BC       0058'CF         0013   175 		@CLI$A_UTILSERV(AP)
            59       0070'CF     7D  0018   176 	MOVQ	W^CLI$Q_RQDESC+LIST_DESC,R9 ;PICK UP STRING DESCRIPTOR
                          FFE0'  30  001D   177 	BSBW	INSERTARG		;SAVE IT AS SECONDARY OUTPUT
       0000'CF         F6 8F     90  0020   178 	MOVB	#PRIM_INPUT,W^HOLDLOC	;CAUSE OPTIONS TO GO AT END OF INPUT
                                 FA  0026   179 	CALLG	W^QUAL_ARGLIST,-	;PROCESS COMMAND OPTIONS
         08 BC       0084'CF         0027   180 		@CLI$A_UTILSERV(AP)
       0000'CF         F7 8F     90  002C   181 	MOVB	#PRIM_INPUT+1,W^PARAMLOC;SET UP TO START ACCEPTING INPUTS
                     0000'CF     97  0032   182 10$:	DECB	W^PARAMLOC		;PUT NEXT INPUT IN NEXT POSITION
                                 FA  0036   183 	CALLG	W^INPUT_ARGLIST,-	;PROCESS THE PRIMARY INPUT
         08 BC       0000'CF         0037   184 		@CLI$A_UTILSERV(AP)
            59       0018'CF     7D  003C   185 	MOVQ	W^CLI$Q_RQDESC+INPUT_DESC,R9 ;PICK UP STRING DESCRIPTOR
                          FFBC'  30  0041   186 	BSBW	INSERTARG		;SAVE IT AS PRIMARY INPUT
                                 E0  0044   187 	BBS	#CLI$V_CONCATINP,-	;BRANCH IF MORE INPUTS TO GET THEM
       0013'CF            01         0045   188 		W^CLI$B_RQSTAT+INPUT_DESC,10$
                          E8         0049
                                     004A   189 	$SETSTRING	</SYM:4>,TYPE=<INLINE>
                          FFB3'  30  004A       	BSBW	SETSTRING
                                 01  004D       	.BYTE	$$$FLAGS
                                 00  004E       	.BYTE	0
                                 06  004F       	.BYTE	$$CNT
                  34 3A 4D 59 53 2F  0050       	.ASCII	\/SYM:4\
                                     0056   190 	DEFPROG	CBL,NOSTICK		;RETURN DEFAULT PROGRAM TO RUN
            50            08     D0  0056       	MOVL	#PROG_CBL,R0
       0000'CF            01     D0  0059       	MOVL	#1,W^STICKY_FLAG
COBOL           - BACKTRANSLATOR FOR COBOL COMMAND               22-AUG-1978 05:23:44   VAX-11 MACRO X0.3-11               Page  10
HJ                                                                                                                               (3)

                                 05  005E   191 	RSB				;RETURN TO GENERATE COMMAND TEXT
                                     005F   192
                                     005F   193
                                     005F   194 COBO_ANSI:
                                     005F   195 	$SETSTRING	</CVF>,CBL	;SET UP TO ACCEPT ANSI COBOL
                               0FFC  005F       	.WORD	SAVE_REG_MASK
                          FF9C'  30  0061       	BSBW	SETSTRING
                                 00  0064       	.BYTE	$$$FLAGS
                                 08  0065       	.BYTE	PROG_CBL
                                 04  0066       	.BYTE	$$CNT
                        46 56 43 2F  0067       	.ASCII	\/CVF\
                                     006B   196
                                     006B   197 COBO_NOCOPY:
                                     006B   198 	$SETSTRING	</NL>,FLAGS=<BTR$M_EXPLICIT> ;SET UP /NOCOPY_LIST
                               0FFC  006B       	.WORD	SAVE_REG_MASK
                          FF90'  30  006D       	BSBW	SETSTRING
                                 20  0070       	.BYTE	$$$FLAGS
                                 00  0071       	.BYTE	0
                                 03  0072       	.BYTE	$$CNT
                           4C 4E 2F  0073       	.ASCII	\/NL\
                                     0076   199
                                     0076   200 COBO_CROSS_REF:
                                     0076   201 	$SETSTRING	</CREF>		;SET UP CROSS REFERENCE OPTION
                               0FFC  0076       	.WORD	SAVE_REG_MASK
                          FF85'  30  0078       	BSBW	SETSTRING
                                 00  007B       	.BYTE	$$$FLAGS
                                 00  007C       	.BYTE	0
                                 05  007D       	.BYTE	$$CNT
                     46 45 52 43 2F  007E       	.ASCII	\/CREF\
                                     0083   202
                                     0083   203 COBO_MAP:
                                     0083   204 	$SETSTRING	</MAP>		;TURN ON MAP OPTION
                               0FFC  0083       	.WORD	SAVE_REG_MASK
                          FF78'  30  0085       	BSBW	SETSTRING
                                 00  0088       	.BYTE	$$$FLAGS
                                 00  0089       	.BYTE	0
                                 04  008A       	.BYTE	$$CNT
                        50 41 4D 2F  008B       	.ASCII	\/MAP\
                                     008F   205
                                     008F   206 COBO_NAME:
                                     008F   207 	$GETSTRING	</KER:>,CBL,FLAGS=<BTR$M_VALREQ> ;GET USER PSECT NAME
                               0FFC  008F       	.WORD	SAVE_REG_MASK
                          FF6C'  30  0091       	BSBW	GETSTRING
                                 08  0094       	.BYTE	$$$FLAGS
                                 08  0095       	.BYTE	PROG_CBL
                                 05  0096       	.BYTE	$$CNT
                     3A 52 45 4B 2F  0097       	.ASCII	\/KER:\
                                     009C   208
                                     009C   209 COBO_NEST:
                                     009C   210 	$GETDECNUM	</PFM>,CBL	;GET PERFORM STATEMENT NEST COUNT
                               0FFC  009C       	.WORD	SAVE_REG_MASK
                          FF5F'  30  009E       	BSBW	GETSTRING
                                 80  00A1       	.BYTE	$$$FLAGS
                                 08  00A2       	.BYTE	PROG_CBL
                                 04  00A3       	.BYTE	$$CNT
                        4D 46 50 2F  00A4       	.ASCII	\/PFM\
                                     00A8   211
COBOL           - BACKTRANSLATOR FOR COBOL COMMAND               22-AUG-1978 05:23:44   VAX-11 MACRO X0.3-11               Page  11
HJ                                                                                                                               (3)

                                     00A8   212 COBO_OVERLAY:
                                     00A8   213 	$SETSTRING	</OV>		;SET /OVERLAY OPTION
                               0FFC  00A8       	.WORD	SAVE_REG_MASK
                          FF53'  30  00AA       	BSBW	SETSTRING
                                 00  00AD       	.BYTE	$$$FLAGS
                                 00  00AE       	.BYTE	0
                                 03  00AF       	.BYTE	$$CNT
                           56 4F 2F  00B0       	.ASCII	\/OV\
                                     00B3   214
                                     00B3   215 COBO_RSX11:
                                     00B3   216 	$SETSTRING	<>,CBL,FLAGS=<BTR$M_FORCE> ;MAKE PROGRAM COBOL-11
                               0FFC  00B3       	.WORD	SAVE_REG_MASK
                          FF48'  30  00B5       	BSBW	SETSTRING
                                 02  00B8       	.BYTE	$$$FLAGS
                                 08  00B9       	.BYTE	PROG_CBL
                                 00  00BA       	.BYTE	$$CNT
                                     00BB   217
                                     00BB   218 COBO_SEGMENT:
                                     00BB   219 	$GETDECNUM	</CSEG>,CBL	;GET /SEGMENT_SIZE OPTION
                               0FFC  00BB       	.WORD	SAVE_REG_MASK
                          FF40'  30  00BD       	BSBW	GETSTRING
                                 80  00C0       	.BYTE	$$$FLAGS
                                 08  00C1       	.BYTE	PROG_CBL
                                 05  00C2       	.BYTE	$$CNT
                     47 45 53 43 2F  00C3       	.ASCII	\/CSEG\
                                     00C8   220
                                     00C8   221 COBO_VERB_LOC:
                                     00C8   222 	$SETSTRING	</OBJ>		;GET /VERB_LOCATION OPTION
                               0FFC  00C8       	.WORD	SAVE_REG_MASK
                          FF33'  30  00CA       	BSBW	SETSTRING
                                 00  00CD       	.BYTE	$$$FLAGS
                                 00  00CE       	.BYTE	0
                                 04  00CF       	.BYTE	$$CNT
                        4A 42 4F 2F  00D0       	.ASCII	\/OBJ\
                                     00D4   223
                                     00D4   224 COBO_NOWARNINGS:
                                     00D4   225 	$SETSTRING	</ERR:1>,FLAGS=<BTR$M_EXPLICIT>	;SET UP /NOWARNINGS
                               0FFC  00D4       	.WORD	SAVE_REG_MASK
                          FF27'  30  00D6       	BSBW	SETSTRING
                                 20  00D9       	.BYTE	$$$FLAGS
                                 00  00DA       	.BYTE	0
                                 06  00DB       	.BYTE	$$CNT
                  31 3A 52 52 45 2F  00DC       	.ASCII	\/ERR:1\
                                     00E2   226
                                     00E2   227
                                     00E2   228 	.END
COBOL           - BACKTRANSLATOR FOR COBOL COMMAND               22-AUG-1978 05:23:44   VAX-11 MACRO X0.3-11               Page  12
SYMBOL TABLE                                                                                                                     (3)

$$$            = 00000004            CLI$B_RQFLGS     00000002            CLI$K_PARDONE  = 00000003
$$$.           = 00000001            CLI$B_RQINDX     00000001            CLI$K_QDBITS     00000014
$$$FLAGS       = 00000020            CLI$B_RQSTAT     00000003            CLI$K_QUALDEF    00000014
$$$GBL         = 00000000            CLI$B_RQTYPE     00000000            CLI$K_REQDESC    0000001C
$$CNT          = 00000006            CLI$C_QDBITS     00000014            CLI$K_UTILOPR  = 00000000
$$T1           = 00000003            CLI$C_QUALDEF    00000014            CLI$K_VALCONV  = 00000004
$CLI.          = 00000196 R     03   CLI$C_REQDESC    0000001C            CLI$K_WORKAREA   00000080
$CLI..         = 000001AD R     03   CLI$C_WORKAREA   00000080            CLI$L_CLIFLAG    00000018
$QUALNUM$      = 0000001A            CLI$K_ASCIIVAL = 00000041            CLI$L_INIARGCNT  00000000
BIT...         = 00000008            CLI$K_CLISERV  = 00000005            CLI$L_LINKFLAG   00000014
BITMAP           ********   X   03   CLI$K_COBO_ANSI= 00000006            CLI$L_RQVALU     0000000C
BTR$M_DECIMAL  = 00000080            CLI$K_COBO_C74 = 0000000E            CLI$L_USRVAL     00000014
BTR$M_EXPLICIT = 00000020            CLI$K_COBO_C79 = 0000000F            CLI$L_WORKAREA   00000000
BTR$M_FORCE    = 00000002            CLI$K_COBO_CHEC= 00000018            CLI$M_ABSADR   = 00000002
BTR$M_LIST     = 00000040            CLI$K_COBO_COND= 00000016            CLI$M_ALLOCCUR = 00000001
BTR$M_MULTKEY  = 00000010            CLI$K_COBO_COPY= 00000007            CLI$M_BATCH    = 00000008
BTR$M_RETURN   = 00000001            CLI$K_COBO_CROS= 00000005            CLI$M_CONCATINP= 00000002
BTR$M_TEMPPOS  = 00000004            CLI$K_COBO_DATA= 00000011            CLI$M_DBGEXCP  = 00010000
BTR$M_VALREQ   = 00000008            CLI$K_COBO_DEBU= 00000017            CLI$M_DBGTRU   = 00000002
BTR$V_DECIMAL  = 00000007            CLI$K_COBO_LIST= 00000001            CLI$M_DEBUG    = 00000001
BTR$V_EXPLICIT = 00000005            CLI$K_COBO_MACH= 00000010            CLI$M_DUMMY    = 00000002
BTR$V_FORCE    = 00000001            CLI$K_COBO_MAP = 00000004            CLI$M_EXPNAM   = 00000004
BTR$V_LIST     = 00000006            CLI$K_COBO_NAME= 0000000B            CLI$M_INDIRECT = 00000010
BTR$V_MULTKEY  = 00000004            CLI$K_COBO_NEST= 00000009            CLI$M_KEYVALU  = 00000002
BTR$V_RETURN   = 00000000            CLI$K_COBO_OBJE= 00000002            CLI$M_LASTVAL  = 00000001
BTR$V_TEMPPOS  = 00000002            CLI$K_COBO_OVER= 0000000D            CLI$M_MOREINP  = 00000004
BTR$V_VALREQ   = 00000003            CLI$K_COBO_PROC= 00000012            CLI$M_MOREVALS = 00000001
BTR$_AMBIGKEYW = 00688030            CLI$K_COBO_RSX1= 00000003            CLI$M_PARMDEF  = 00000008
BTR$_ILLEGOPT  = 00688018            CLI$K_COBO_SEGM= 0000000C            CLI$M_PARMPRS  = 00000001
BTR$_IMGFNF    = 00688060            CLI$K_COBO_SEQU= 00000015            CLI$M_PARMREQ  = 00000001
BTR$_INTFAIL   = 00688048            CLI$K_COBO_TERM= 00000019            CLI$M_QDEXPA   = 00000004
BTR$_INVALKEYW = 00688028            CLI$K_COBO_TRUN= 00000014            CLI$M_QDUSRV   = 00000002
BTR$_KEYVALOVR = 00688038            CLI$K_COBO_VERB= 0000000A            CLI$M_QUALEXP  = 00000002
BTR$_MISSNGVAL = 00688008            CLI$K_COBO_WARN= 00000008            CLI$M_QUALTRU  = 00000001
BTR$_NOTIMPLEM = 00688020            CLI$K_COBO_WIDT= 00000013            CLI$M_TRMVRBLV = 00000300
BTR$_OPTVALOVR = 00688050            CLI$K_ENDPRM1  = 00000030            CLI$M_VERIFY   = 00000004
BTR$_STRINGOVR = 00688010            CLI$K_ENDPRM2  = 00000031            CLI$M_VFYINP   = 00000020
BTR$_TOOMANY   = 00688058            CLI$K_ENDPRM3  = 00000032            CLI$Q_QDVALDESC  00000004
BTR$_UNEXPLIST = 00688040            CLI$K_ENDPRM4  = 00000033            CLI$Q_RQDESC     00000008
BTRAN          = 00680000            CLI$K_FILSPEC  = 00000044            CLI$S_PRITYP   = 00000004
CLI$A_ABSACT     00000014            CLI$K_GETCMD   = 00000001            CLI$S_SUBTYP   = 00000004
CLI$A_ERRACT     00000004            CLI$K_GETOPT   = 00000003            CLI$S_TRMVRBLV = 00000002
CLI$A_FLSACT     00000010            CLI$K_GETQUAL  = 00000002            CLI$V_ABSADR   = 00000001
CLI$A_IMGFILED   00000010            CLI$K_INITPRS  = 00000000            CLI$V_ALLOCCUR = 00000000
CLI$A_IMGHDADR   0000000C            CLI$K_INPSPEC  = 00000001            CLI$V_BATCH    = 00000003
CLI$A_PROGXFER   00000004            CLI$K_INPUT1   = 00000010            CLI$V_CONCATINP= 00000001
CLI$A_PRSACT     00000010            CLI$K_INPUT2   = 00000011            CLI$V_DBGEXCP  = 00000010
CLI$A_QDVALADR   00000008            CLI$K_INPUT3   = 00000012            CLI$V_DBGTRU   = 00000001
CLI$A_QUALST     00000018            CLI$K_INPUT4   = 00000013            CLI$V_DEBUG    = 00000000
CLI$A_RQADDR     0000000C            CLI$K_KEYVAL   = 00000043            CLI$V_DUMMY    = 00000001
CLI$A_TRUACT     0000000C            CLI$K_KEYWORD  = 00000042            CLI$V_EXPNAM   = 00000002
CLI$A_UTILSERV   00000008            CLI$K_NUMERVAL = 00000040            CLI$V_INDIRECT = 00000004
CLI$B_BITNUM     00000001            CLI$K_OUTPUT1  = 00000020            CLI$V_KEYVALU  = 00000001
CLI$B_QDBLKSIZ   00000000            CLI$K_OUTPUT2  = 00000021            CLI$V_LASTVAL  = 00000000
CLI$B_QDCODE     00000001            CLI$K_OUTPUT3  = 00000022            CLI$V_MOREINP  = 00000002
CLI$B_QDFLGS     00000002            CLI$K_OUTPUT4  = 00000023            CLI$V_MOREVALS = 00000000
CLI$B_QDSTAT     00000003            CLI$K_OUTSPEC  = 00000002            CLI$V_PARMDEF  = 00000003
COBOL           - BACKTRANSLATOR FOR COBOL COMMAND               22-AUG-1978 05:23:44   VAX-11 MACRO X0.3-11               Page  13
SYMBOL TABLE                                                                                                                     (3)

CLI$V_PARMPRS  = 00000000            PROG_TKB       = 00000009            QUA_V_VAL      = 00000005
CLI$V_PARMREQ  = 00000000            PROG_UFD       = 0000000D            QUA_V_VALREQ   = 0000000C
CLI$V_PRITYP   = 00000004            PRO_B_FLAGS      00000001            QUA_V_VERB     = 00000003
CLI$V_QDEXPA   = 00000002            PRO_B_PROMPT     00000000            QUA_W_FLAGS      00000003
CLI$V_QDUSRV   = 00000001            PRO_K_LENGTH     00000002            QUA_W_PROMPT     00000009
CLI$V_QUALEXP  = 00000001            PRO_M_CONCAT   = 00000001            QUA_W_QUALIST    00000006
CLI$V_QUALTRU  = 00000000            PRO_M_IMPCAT   = 00000002            SAVE_REG_MASK  = 00000FFC
CLI$V_SUBTYP   = 00000000            PRO_M_LIST     = 00000004            SETSTRING        ********   X   04
CLI$V_TRMVRBLV = 00000008            PRO_M_OPTION   = 00000008            STICKY_FLAG      ********   X   04
CLI$V_VERIFY   = 00000002            PRO_M_REQ      = 00000010
CLI$V_VFYINP   = 00000005            PRO_M_STRING   = 00000020
CLI$W_QDVALSIZ   00000004            PRO_V_CONCAT   = 00000000
CLI$W_RQSIZE     00000008            PRO_V_IMPCAT   = 00000001
CLI$W_SERVCOD    00000001            PRO_V_LIST     = 00000002
CLIWORKAREA      ********   X   03   PRO_V_OPTION   = 00000003
COBO             00000000 RG    04   PRO_V_REQ      = 00000004
COBO_ANSI        0000005F R     04   PRO_V_STRING   = 00000005
COBO_CROSS_REF   00000076 R     04   QUAL_ARGLIST     00000084 R     03
COBO_MAP         00000083 R     04   QUAL_DESC        00000094 R     03
COBO_NAME        0000008F R     04   QUAL_LIST        000000B0 R     03
COBO_NEST        0000009C R     04   QUA_B_DEFVAL     00000002
COBO_NOCOPY      0000006B R     04   QUA_B_IMAGE      00000005
COBO_NOWARNINGS  000000D4 R     04   QUA_B_INDEX      00000001
COBO_OVERLAY     000000A8 R     04   QUA_B_OFFSET     00000000
COBO_RSX11       000000B3 R     04   QUA_B_PARMCNT    00000008
COBO_SEGMENT     000000BB R     04   QUA_G_CHNGLST    00000006
COBO_VERB_LOC    000000C8 R     04   QUA_M_BATDEF   = 00000100
FATAL          = 00000004            QUA_M_CHNGLIST = 00000001
GBL...         = 00000000            QUA_M_DEFTRUE  = 00000080
GETSTRING        ********   X   04   QUA_M_FILE     = 00000004
HOLDLOC          ********   X   04   QUA_M_IMAGE    = 00000400
INPUT_ARGLIST    00000000 R     03   QUA_M_INTDEF   = 00000200
INPUT_DESC       00000010 R     03   QUA_M_KEYVAL   = 00004000
INSERTARG        ********   X   04   QUA_M_LOCALKEY = 00000002
LAST_PARAM     = FFFFFFEC            QUA_M_NEG      = 00000040
LIST_ARGLIST     00000058 R     03   QUA_M_ONEVAL   = 00002000
LIST_DESC        00000068 R     03   QUA_M_OUTPUT   = 00000800
NONE           = 00000000            QUA_M_PARM     = 00000010
OBJECT_ARGLIST   0000002C R     03   QUA_M_VAL      = 00000020
OBJECT_DESC      0000003C R     03   QUA_M_VALREQ   = 00001000
PARAMLOC         ********   X   04   QUA_M_VERB     = 00000008
PRIM_INPUT     = FFFFFFF6            QUA_S_MAXPARM  = 00000004
PRIM_OUTPUT    = 00000000            QUA_S_MINPARM  = 00000004
PROG_BP2       = 0000000C            QUA_V_BATDEF   = 00000008
PROG_CBL       = 00000008            QUA_V_CHNGLIST = 00000000
PROG_CNT       = 0000000F            QUA_V_DEFTRUE  = 00000007
PROG_DIF       = 0000000F            QUA_V_FILE     = 00000002
PROG_DMP       = 00000007            QUA_V_IMAGE    = 0000000A
PROG_F4V       = 00000002            QUA_V_INTDEF   = 00000009
PROG_LBR       = 0000000B            QUA_V_KEYVAL   = 0000000E
PROG_LIB       = 0000000A            QUA_V_LOCALKEY = 00000001
PROG_MAC       = 00000004            QUA_V_MAXPARM  = 00000004
PROG_MAR       = 00000003            QUA_V_MINPARM  = 00000000
PROG_PIP       = 00000001            QUA_V_NEG      = 00000006
PROG_SLP       = 00000006            QUA_V_ONEVAL   = 0000000D
PROG_SOS       = 00000005            QUA_V_OUTPUT   = 0000000B
PROG_SRT       = 0000000E            QUA_V_PARM     = 00000004
COBOL           - BACKTRANSLATOR FOR COBOL COMMAND               22-AUG-1978 05:23:44   VAX-11 MACRO X0.3-11               Page  14
PROGRAM SECTION SYNOPSIS                                                                                                         (3)


PROGRAM SECTION SYNOPSIS

.  ABS  .        00000000      00     NOPIC   USR   CON   ABS   LCL NOSHR NOEXE NORD  NOWRT BYTE
. BLANK .        00000000      01     NOPIC   USR   CON   REL   LCL NOSHR   EXE   RD    WRT BYTE
$ABS$            00000080      02     NOPIC   USR   CON   ABS   LCL NOSHR   EXE   RD    WRT BYTE
IMPURE_          000001AE      03     NOPIC   USR   CON   REL   LCL NOSHR NOEXE   RD    WRT LONG
PURE_            000000E2      04     NOPIC   USR   CON   REL   LCL NOSHR   EXE   RD  NOWRT BYTE


THERE WERE NO ERRORS OR WARNINGS.
11938. BYTES LEFT IN FREE MEMORY POOL.
2046. BYTES OF RECLAIMED MEMORY.
OBJ$:COBOCMD,LIS$:COBOCMD/-SP/LI:MEB=EXECML$/ML,LIB$:B/ML,SRC$:COBOCMD
61 MLB DIR RDS - 639 GETS TO DEFINE 36 MACROS. 129 INTER. FILE WRITES.
