DISPAT          - COMMAND DISPATCHER FOR BACKTRANSLATORS         22-AUG-1978 05:15:51   VAX-11 MACRO X0.3-11               Page   1
HJ01                                                                                                                             (1)

                                     0000     1 	.TITLE	DISPAT - COMMAND DISPATCHER FOR BACKTRANSLATORS
                                     0000     2 	.IDENT	/HJ01/
                                     0000     3
                                     0000     4 ;
                                     0000     5 ; COPYRIGHT (C) 1977
                                     0000     6 ; DIGITAL EQUIPMENT CORPORATION, MAYNARD, MASS.
                                     0000     7 ;
                                     0000     8 ; THIS SOFTWARE IS FURNISHED UNDER  A LICENSE FOR USE ONLY  ON  A
                                     0000     9 ; SINGLE COMPUTER SYSTEM AND MAY BE  COPIED ONLY WITH  THE INCLU-
                                     0000    10 ; SION OF  THE  ABOVE  COPYRIGHT NOTICE.  THIS SOFTWARE,  OR  ANY
                                     0000    11 ; OTHER COPIES THEREOF, MAY NOT BE  PROVIDED  OR  OTHERWISE  MADE
                                     0000    12 ; AVAILABLE TO ANY OTHER PERSON EXCEPT  FOR  USE  ON  SUCH SYSTEM
                                     0000    13 ; AND TO  ONE WHO AGREES  TO  THESE LICENSE  TERMS.  TITLE TO AND
                                     0000    14 ; OWNERSHIP OF THE SOFTWARE SHALL AT ALL TIMES REMAIN IN DEC.
                                     0000    15 ;
                                     0000    16 ; THE INFORMATION IN THIS SOFTWARE  IS  SUBJECT TO CHANGE WITHOUT
                                     0000    17 ; NOTICE AND SHOULD NOT BE CONSTRUED  AS  A COMMITMENT BY DIGITAL
                                     0000    18 ; EQUIPMENT CORPORATION.
                                     0000    19 ;
                                     0000    20 ; DEC ASSUMES NO RESPONSIBILITY FOR THE USE OR RELIABILITY OF ITS
                                     0000    21 ; SOFTWARE ON EQUIPMENT WHICH IS NOT SUPPLIED BY DEC.
                                     0000    22 ;
                                     0000    23 ; H.J.	AUGUST 1977
                                     0000    24 ;
                                     0000    25 ; BACKTRANSLATOR DISPATCHER
                                     0000    26 ;
DISPAT          - COMMAND DISPATCHER FOR BACKTRANSLATORS         22-AUG-1978 05:15:51   VAX-11 MACRO X0.3-11               Page   2
HJ01                                                                                                                             (2)

                                     0000    28 ;
                                     0000    29 ; MACRO LIBRARY CALLS
                                     0000    30 ;
                                     0000    31 	$BTDEFS				;DEFINE LOCAL SYMBOLS
                                     0000       	.SAVE
                                 00000000       	.PSECT	$ABS$,ABS
                                     0000       	.RESTORE
                                     0000    32 	$CLIDEF				;DEFINE CLI SYMBOLS
                                     0000       	.SAVE
                                 00000000       	.PSECT	$ABS$,ABS
                                     0000       CLI$L_INIARGCNT:
                           00000004  0000        			.BLKL	1
                                     0004       CLI$A_PROGXFER:
                           00000008  0004        			.BLKL	1
                                     0008       CLI$A_UTILSERV:
                           0000000C  0008        			.BLKL	1
                                     000C       CLI$A_IMGHDADR:
                           00000010  000C        			.BLKL	1
                                     0010       CLI$A_IMGFILED:
                           00000014  0010        			.BLKL	1
                                     0014       CLI$L_LINKFLAG:
                           00000018  0014        			.BLKL	1
                                     0018       CLI$L_CLIFLAG:
                           0000001C  0018        			.BLKL	1
                           00000000  001C        	. = 0
                                     0000       CLI$B_RQTYPE:
                           00000001  0000        			.BLKB	1
                                     0001       CLI$W_SERVCOD:
                                     0001       CLI$B_RQINDX:
                                     0001       CLI$B_BITNUM:
                           00000002  0001        			.BLKB	1
                                     0002       CLI$B_RQFLGS:
                           00000003  0002        			.BLKB	1
                                     0003       CLI$B_RQSTAT:
                           00000004  0003        			.BLKB	1
                                     0004       CLI$A_ERRACT:
                           00000008  0004        			.BLKL	1
                                     0008       CLI$Q_RQDESC:
                                     0008       CLI$W_RQSIZE:
                           0000000A  0008        			.BLKW	1
                           0000000C  000A        			.BLKW	1
                                     000C       CLI$L_RQVALU:
                                     000C       CLI$A_RQADDR:
                           00000010  000C        			.BLKL	1
                                     0010       CLI$A_PRSACT:
                           00000014  0010        			.BLKL	1
                                     0014       CLI$A_ABSACT:
                           00000018  0014        			.BLKL	1
                                     0018       CLI$A_QUALST:
                           0000001C  0018        			.BLKL	1
                                     001C       CLI$C_REQDESC:
                                     001C       CLI$K_REQDESC:
                           00000000  001C        	. = 0
                                     0000       CLI$B_QDBLKSIZ:
                           00000001  0000        			.BLKB	1
                                     0001       CLI$B_QDCODE:
                           00000002  0001        			.BLKB	1
DISPAT          - COMMAND DISPATCHER FOR BACKTRANSLATORS         22-AUG-1978 05:15:51   VAX-11 MACRO X0.3-11               Page   3
HJ01                                                                                                                             (2)

                                     0002       CLI$B_QDFLGS:
                           00000003  0002        			.BLKB	1
                                     0003       CLI$B_QDSTAT:
                           00000004  0003        			.BLKB	1
                                     0004       CLI$Q_QDVALDESC:
                                     0004       CLI$W_QDVALSIZ:
                           00000006  0004        			.BLKW	1
                           00000008  0006        			.BLKW	1
                                     0008       CLI$A_QDVALADR:
                           0000000C  0008        			.BLKL	1
                                     000C       CLI$A_TRUACT:
                           00000010  000C        			.BLKL	1
                                     0010       CLI$A_FLSACT:
                           00000014  0010        			.BLKL	1
                                     0014       CLI$C_QUALDEF:
                                     0014       CLI$K_QUALDEF:
                                     0014       CLI$C_QDBITS:
                                     0014       CLI$K_QDBITS:
                                     0014       CLI$L_USRVAL:
                           00000018  0014        			.BLKL	1
                           00000000  0018        	. = 0
                                     0000       CLI$L_WORKAREA:
                           00000080  0000        			.BLKL	32
                                     0080       CLI$C_WORKAREA:
                                     0080       CLI$K_WORKAREA:
                                     0000       	.RESTORE
                                     0000    33 	$CLIVERBDEF			;DEFINE THE COMMAND VALUE SYMBOLS
                                     0000       	.SAVE
                                 00000080       	.PSECT	$ABS$,ABS
                           00000000  0080       	.=0
                                     0000       	.RESTORE
                                     0000    34
                                     0000    35 ;
                                     0000    36 ; LOCAL SYMBOLS
                                     0000    37 ;
                                     0000    38
                                     0000    39 ;
                                     0000    40 ; FLAG DEFINITIONS
                                     0000    41 ;
                                     0000    42
                                     0000    43 ;
                                     0000    44 ; ARGUMENT LIST OFFSET DEFINITIONS
                                     0000    45 ;
                                     0000    46
                                     0000    47 ;
                                     0000    48 ; LOCAL DATA
                                     0000    49 ;
                                     0000    50 	IMPURE
                                 00000000       	.PSECT	IMPURE_	LONG,RD,WRT,NOEXE
                                     0000    51 ;
                                     0000    52 ;
                                     0000    53 ;
                                     0000    54 STICKY_FLAG::
                           00000000  0000    55 	.LONG	0			;0 DEFAULT MEANS OUTPUT DEV:[DIR]
                                     0004    56 					;IS STICKY, 1 MEANS NO -- E.G.
                                     0004    57 					;FORTRAN SETS TO 1, BUT PURGE DOESN'T
                           00000000  0004    58 CLIAP:	.LONG	0			;SAVED CLI AP FOR CALLBACK USAGE
DISPAT          - COMMAND DISPATCHER FOR BACKTRANSLATORS         22-AUG-1978 05:15:51   VAX-11 MACRO X0.3-11               Page   4
HJ01                                                                                                                             (2)

                           00000000  0008    59 RSXDESC:.LONG	0			;SAVED RSX DESC ADDRESS FOR COMMAND
                                     000C    60
                                     000C    61 BITMAP::
                           0000000F  000C    62 	.BLKB	3			;ALLOCATE BIT ARRAY FOR CLI
                                     000F    63
                           00000000  000F    64 	$V_CMDRDY	= 0		;SET MEANS COMMAND LINE GENERATED
                           00000001  000F    65 	$V_CHANGEPROG	= 1		;SET MEANS WE NEED CONTROL AT TOP
                                     000F    66 					;LEVEL TO OPEN A NEW IMAGE
                                     000F    67 CMDRDYFLAG:
                                 00  000F    68 	.BYTE	0			;BITS IDENTIFY WHETHER COMMAND PARSED
                                     0010    69
                                     0010    70 	.ALIGN	LONG
                                     0010    71 CLIWORKAREA::
                           00000090  0010    72 	.BLKB	CLI$K_WORKAREA		;WORK AREA FOR THE CLI
                                     0090    73
                                     0090    74 INIT_ARGLIST:
                                     0090    75 	$ARGLST	3,-			;ARGLIST TO INITIALIZE THE CLI
                                     0090    76 		INIT_DESC,-		;POINTER TO REQUEST DESCRIPTOR
                                     0090    77 		CLIWORKAREA,-		;ADDRESS OF WORK AREA
                                     0090    78 		BITMAP			;ADDRESS OF CLI BITMAP
                           00000003  0090       		.LONG	3
                           000000A0' 0094       		.LONG	INIT_DESC
                           00000010' 0098       		.LONG	CLIWORKAREA
                           0000000C' 009C       		.LONG	BITMAP
                                     00A0    79
                                     00A0    80 INIT_DESC:
                                     00A0    81 	$CLIREQDESC -			;REQUEST DESCRIPTOR FOR INITIALIZATION
                                     00A0    82 		RQTYPE=CLI$K_INITPRS
                           000000BC  00A0       	.BLKB	CLI$C_REQDESC
                           000000A0  00BC       	. = $CLI.+CLI$B_RQTYPE
                                 00  00A0       	  .BYTE	CLI$K_INITPRS
                           000000BC  00A1       	. = $CLI..
                                     00BC    83
                                     00BC    84
                                     00BC    85 VERB_ARGLIST:
                                     00BC    86 	$ARGLST	3,-			;ARGLIST FOR VERB IDENTIFIER CALL
                                     00BC    87 		VERB_DESC,-		;POINTER TO REQUEST DESCRIPTOR
                                     00BC    88 		CLIWORKAREA,-		;ADDRESS OF WORK AREA
                                     00BC    89 		BITMAP			;ADDRESS OF CLI BITMAP
                           00000003  00BC       		.LONG	3
                           000000CC' 00C0       		.LONG	VERB_DESC
                           00000010' 00C4       		.LONG	CLIWORKAREA
                           0000000C' 00C8       		.LONG	BITMAP
                                     00CC    90
                                     00CC    91 VERB_DESC:
                                     00CC    92 	$CLIREQDESC -			;REQUEST DESCRIPTOR TO IDENTIFY VERB
                                     00CC    93 		RQTYPE=CLI$K_GETCMD	;RETURN VERB INDEX
                           000000E8  00CC       	.BLKB	CLI$C_REQDESC
                           000000CC  00E8       	. = $CLI.+CLI$B_RQTYPE
                                 01  00CC       	  .BYTE	CLI$K_GETCMD
                           000000E8  00CD       	. = $CLI..
                                     00E8    94
                                     00E8    95 END_ARGLIST:
                                     00E8    96 	$ARGLST	3,-			;ARGLIST FOR END IDENTIFIER CALL
                                     00E8    97 		END_DESC,-		;POINTER TO REQUEST DESCRIPTOR
                                     00E8    98 		CLIWORKAREA,-		;ADDRESS OF WORK AREA
                                     00E8    99 		BITMAP			;ADDRESS OF CLI BITMAP
DISPAT          - COMMAND DISPATCHER FOR BACKTRANSLATORS         22-AUG-1978 05:15:51   VAX-11 MACRO X0.3-11               Page   5
HJ01                                                                                                                             (2)

                           00000003  00E8       		.LONG	3
                           000000F8' 00EC       		.LONG	END_DESC
                           00000010' 00F0       		.LONG	CLIWORKAREA
                           0000000C' 00F4       		.LONG	BITMAP
                                     00F8   100
                                     00F8   101 END_DESC:
                                     00F8   102 	$CLIREQDESC -			;REQUEST DESCRIPTOR TO IDENTIFY VERB
                                     00F8   103 		RQTYPE=CLI$K_ENDPRM1	;SET UP NEXT PART OF ',' LIST
                           00000114  00F8       	.BLKB	CLI$C_REQDESC
                           000000F8  0114       	. = $CLI.+CLI$B_RQTYPE
                                 30  00F8       	  .BYTE	CLI$K_ENDPRM1
                           00000114  00F9       	. = $CLI..
                                     0114   104
                                     0114   105 ;
                                     0114   106 ; FAB FOR FILE OPEN
                                     0114   107 ;
                                     0114   108 	.ALIGN	LONG
                                     0114   109 FILEFAB:	$FAB	SHR=<GET>,-
                                     0114   110 			FOP=<UFO,KFO>,-
                                     0114   111 			NAM=<FILNAM>,-
                                     0114   112 			DNA=<DEFAULT>,-
                                     0114   113 			DNS=<DEFAULT_SIZE>
                                     0114       	.SAVE
                                 00000080       	.PSECT	$ABS$,ABS
                           00000000  0080       	.=0
                                     0000       FAB$B_BID:
                           00000001  0000        			.BLKB	1
                                     0001       FAB$B_BLN:
                           00000002  0001        			.BLKB	1
                                     0002       FAB$W_IFI:
                           00000004  0002        			.BLKW	1
                                     0004       FAB$L_FOP:
                           00000008  0004        			.BLKL	1
                                     0008       FAB$L_STS:
                           0000000C  0008        			.BLKL	1
                                     000C       FAB$L_STV:
                           00000010  000C        			.BLKL	1
                                     0010       FAB$L_ALQ:
                           00000014  0010        			.BLKL	1
                                     0014       FAB$W_DEQ:
                           00000016  0014        			.BLKW	1
                                     0016       FAB$B_FAC:
                           00000017  0016        			.BLKB	1
                                     0017       FAB$B_SHR:
                           00000018  0017        			.BLKB	1
                                     0018       FAB$L_CTX:
                           0000001C  0018        			.BLKL	1
                                     001C       FAB$B_RTV:
                           0000001D  001C        			.BLKB	1
                                     001D       FAB$B_ORG:
                           0000001E  001D        			.BLKB	1
                                     001E       FAB$B_RAT:
                           0000001F  001E        			.BLKB	1
                                     001F       FAB$B_RFM:
                           00000020  001F        			.BLKB	1
                                     0020       FAB$L_JNL:
                           00000024  0020        			.BLKL	1
DISPAT          - COMMAND DISPATCHER FOR BACKTRANSLATORS         22-AUG-1978 05:15:51   VAX-11 MACRO X0.3-11               Page   6
HJ01                                                                                                                             (2)

                                     0024       FAB$L_XAB:
                           00000028  0024        			.BLKL	1
                                     0028       FAB$L_NAM:
                           0000002C  0028        			.BLKL	1
                                     002C       FAB$L_FNA:
                           00000030  002C        			.BLKL	1
                                     0030       FAB$L_DNA:
                           00000034  0030        			.BLKL	1
                                     0034       FAB$B_FNS:
                           00000035  0034        			.BLKB	1
                                     0035       FAB$B_DNS:
                           00000036  0035        			.BLKB	1
                                     0036       FAB$W_MRS:
                           00000038  0036        			.BLKW	1
                                     0038       FAB$L_MRN:
                           0000003C  0038        			.BLKL	1
                                     003C       FAB$W_BLS:
                           0000003E  003C        			.BLKW	1
                                     003E       FAB$B_BKS:
                           0000003F  003E        			.BLKB	1
                                     003F       FAB$B_FSZ:
                           00000040  003F        			.BLKB	1
                                     0040       FAB$L_DEV:
                           00000044  0040        			.BLKL	1
                                     0044       FAB$L_SDC:
                           00000048  0044        			.BLKL	1
                           00000050  0048        			.BLKL	2
                                     0050       FAB$C_BLN:
                                     0050       FAB$K_BLN:
                                 00000114       	.RESTORE
                                 03  0114       					.BYTE FAB$C_BID
                                 50  0115       					.BYTE FAB$C_BLN
                           00000164  0116       					.BLKB FAB$C_BLN-2
                           0000012A  0164       					.=$$.TAB+FAB$B_FAC
                                 00  012A       					.BYTE	<$$.TMP>
                                 02  012B       					.BYTE	<$$.TMP>
                           00000140  012C       					.=$$.TAB+FAB$L_FNA
                           00000000  0140       					.LONG	<0>
                           00000148  0144       					.=$$.TAB+FAB$B_FNS
                                 00  0148       					.BYTE	<0>
                           00000144  0149       					.=$$.TAB+FAB$L_DNA
                           00000000' 0144       					.LONG	<DEFAULT>
                           00000149  0148       					.=$$.TAB+FAB$B_DNS
                                 0F' 0149       					.BYTE	<DEFAULT_SIZE>
                           00000130  014A       					.=$$.TAB+FAB$B_RTV
                                 00  0130       					.BYTE	<0>
                                 00  0131       					.BYTE	<FAB$C_SEQ>
                                 00  0132       					.BYTE	<$$.TMP>
                           00000118  0133       					.=$$.TAB+FAB$L_FOP
                           40020000  0118       					.LONG	<$$.TMP>
                           00000138  011C       					.=$$.TAB+FAB$L_XAB
                           00000000  0138       					.LONG	<0>
                           0000014A  013C       					.=$$.TAB+FAB$W_MRS
                               0000  014A       					.WORD	<0>
                           00000134  014C       					.=$$.TAB+FAB$L_JNL
                           00000000  0134       					.LONG	<0>
                           0000014C  0138       					.=$$.TAB+FAB$L_MRN
DISPAT          - COMMAND DISPATCHER FOR BACKTRANSLATORS         22-AUG-1978 05:15:51   VAX-11 MACRO X0.3-11               Page   7
HJ01                                                                                                                             (2)

                           00000000  014C       					.LONG	<0>
                           00000124  0150       					.=$$.TAB+FAB$L_ALQ
                           00000000  0124       					.LONG	<0>
                               0000  0128       					.WORD	<0>
                           00000150  012A       					.=$$.TAB+FAB$W_BLS
                               0000  0150       					.WORD	<0>
                           0000013C  0152       					.=$$.TAB+FAB$L_NAM
                           00000164' 013C       					.LONG	<FILNAM>
                           00000133  0140       					.=$$.TAB+FAB$B_RFM
                                 02  0133       					.BYTE	<FAB$C_VAR>
                           00000153  0134       					.=$$.TAB+FAB$B_FSZ
                                 00  0153       					.BYTE	<0>
                           00000152  0154       					.=$$.TAB+FAB$B_BKS
                                 00  0152       					.BYTE	<0>
                           0000012C  0153       					.=$$.TAB+FAB$L_CTX
                           00000000  012C       					.LONG	<0>
                           00000164  0130       					.=$$.TABEND
                                     0164   114
                                     0164   115 FILNAM:		$NAM
                                     0164       	.SAVE
                                 00000080       	.PSECT	$ABS$,ABS
                           00000000  0080       	.=0
                                     0000       NAM$B_BID:
                           00000001  0000        			.BLKB	1
                                     0001       NAM$B_BLN:
                           00000002  0001        			.BLKB	1
                                     0002       NAM$B_RSS:
                           00000003  0002        			.BLKB	1
                                     0003       NAM$B_RSL:
                           00000004  0003        			.BLKB	1
                                     0004       NAM$L_RSA:
                           00000008  0004        			.BLKL	1
                           0000000A  0008        			.BLKW	1
                                     000A       NAM$B_ESS:
                           0000000B  000A        			.BLKB	1
                                     000B       NAM$B_ESL:
                           0000000C  000B        			.BLKB	1
                                     000C       NAM$L_ESA:
                           00000010  000C        			.BLKL	1
                                     0010       NAM$L_RLF:
                           00000014  0010        			.BLKL	1
                                     0014       NAM$T_DVI:
                           00000024  0014        			.BLKB	16
                                     0024       NAM$W_FID:
                                     0024       NAM$W_FID_NUM:
                           00000026  0024        			.BLKW	1
                                     0026       NAM$W_FID_SEQ:
                           00000028  0026        			.BLKW	1
                                     0028       NAM$W_FID_RVN:
                           0000002A  0028        			.BLKW	1
                                     002A       NAM$W_DID:
                                     002A       NAM$W_DID_NUM:
                           0000002C  002A        			.BLKW	1
                                     002C       NAM$W_DID_SEQ:
                           0000002E  002C        			.BLKW	1
                                     002E       NAM$W_DID_RVN:
                           00000030  002E        			.BLKW	1
DISPAT          - COMMAND DISPATCHER FOR BACKTRANSLATORS         22-AUG-1978 05:15:51   VAX-11 MACRO X0.3-11               Page   8
HJ01                                                                                                                             (2)

                                     0030       NAM$L_WCC:
                           00000034  0030        			.BLKL	1
                                     0034       NAM$L_FNB:
                           00000038  0034        			.BLKL	1
                                     0038       NAM$C_BLN:
                                     0038       NAM$K_BLN:
                                     0038       NAM$L_DWC:
                                     0038       NAM$B_CURLVL:
                           00000039  0038        			.BLKB	1
                           0000003A  0039        			.BLKB	1
                                     003A       NAM$W_PRV_DID:
                           00000040  003A        			.BLKW	3
                                     0040       NAM$L_DIRWCC1:
                           00000044  0040        			.BLKL	1
                                     0044       NAM$L_DIRWCC2:
                           00000048  0044        			.BLKL	1
                                     0048       NAM$L_DIRWCC3:
                           0000004C  0048        			.BLKL	1
                                     004C       NAM$L_DIRWCC4:
                           00000050  004C        			.BLKL	1
                                     0050       NAM$C_BLN_DIRWC:
                                     0050       NAM$K_BLN_DIRWC:
                                 00000164       	.RESTORE
                                 02  0164       					.BYTE NAM$C_BID
                                 38  0165       					.BYTE NAM$C_BLN
                           0000019C  0166       					.BLKB NAM$C_BLN-2
                           00000168  019C       					.=$$.TAB+NAM$L_RSA
                           00000000  0168       					.LONG	<0>
                           00000166  016C       					.=$$.TAB+NAM$B_RSS
                                 00  0166       					.BYTE	<0>
                           00000170  0167       					.=$$.TAB+NAM$L_ESA
                           00000000  0170       					.LONG	<0>
                           0000016E  0174       					.=$$.TAB+NAM$B_ESS
                                 00  016E       					.BYTE	<0>
                           00000174  016F       					.=$$.TAB+NAM$L_RLF
                           00000000  0174       					.LONG	<0>
                           0000019C  0178       				.=$$.TABEND
                                     019C   116
                                     019C   117 	.IF DF	DEBUG
                                     019C   118 $DEBUG$FAB:	$FAB	FNM=<SYS$OUTPUT:>,-
                                     019C   119 			RAT=<CR>
                                     019C   120 $DEBUG$RAB:	$RAB	FAB=<$DEBUG$FAB>,-
                                     019C   121 			RAC=<SEQ>
                                     019C   122 	.ENDC
                                     019C   123
                                     019C   124 	PURE
                                 00000000       	.PSECT	PURE_	BYTE,RD,EXE,NOWRT
                                     0000   125
2E 3A 4D 45 54 53 59 53 24 53 59 53  0000   126 DEFAULT:	.ASCII	\SYS$SYSTEM:.EXE\
                           45 58 45  000C
                                     000F   127
                           0000000F  000F   128 DEFAULT_SIZE	= .-DEFAULT
                                     000F   129
                                     000F   130 	PURE	VALLIST
                                 00000000       	.PSECT	PURE_VALLIST	BYTE,RD,EXE,NOWRT
                                     0000   131 VALIST:
                                     0000   132 	PURE	DISPLIST
DISPAT          - COMMAND DISPATCHER FOR BACKTRANSLATORS         22-AUG-1978 05:15:51   VAX-11 MACRO X0.3-11               Page   9
HJ01                                                                                                                             (2)

                                 00000000       	.PSECT	PURE_DISPLIST	BYTE,RD,EXE,NOWRT
                                     0000   133 DISPLIST:
                                     0000   134
                                     0000   135 	COMMAND BASI
                                 00000000       	.PSECT	PURE_VALLIST	BYTE,RD,EXE,NOWRT
                                 04  0000       	.BYTE	CLI$K_VERB_BASI
                                 00000000       	.PSECT	PURE_DISPLIST	BYTE,RD,EXE,NOWRT
                               FF23' 0000       	.WORD	BASI-DSTART
                                     0002   136 	COMMAND	COBO
                                 00000001       	.PSECT	PURE_VALLIST	BYTE,RD,EXE,NOWRT
                                 06  0001       	.BYTE	CLI$K_VERB_COBO
                                 00000002       	.PSECT	PURE_DISPLIST	BYTE,RD,EXE,NOWRT
                               FF23' 0002       	.WORD	COBO-DSTART
                                     0004   137 	COMMAND	COPY
                                 00000002       	.PSECT	PURE_VALLIST	BYTE,RD,EXE,NOWRT
                                 08  0002       	.BYTE	CLI$K_VERB_COPY
                                 00000004       	.PSECT	PURE_DISPLIST	BYTE,RD,EXE,NOWRT
                               FF23' 0004       	.WORD	COPY-DSTART
                                     0006   138 	COMMAND	CREA
                                 00000003       	.PSECT	PURE_VALLIST	BYTE,RD,EXE,NOWRT
                                 09  0003       	.BYTE	CLI$K_VERB_CREA
                                 00000006       	.PSECT	PURE_DISPLIST	BYTE,RD,EXE,NOWRT
                               FF23' 0006       	.WORD	CREA-DSTART
                                     0008   139 	COMMAND	DELE
                                 00000004       	.PSECT	PURE_VALLIST	BYTE,RD,EXE,NOWRT
                                 0F  0004       	.BYTE	CLI$K_VERB_DELE
                                 00000008       	.PSECT	PURE_DISPLIST	BYTE,RD,EXE,NOWRT
                               FF23' 0008       	.WORD	DELE-DSTART
                                     000A   140 	COMMAND	DIFF
                                 00000005       	.PSECT	PURE_VALLIST	BYTE,RD,EXE,NOWRT
                                 11  0005       	.BYTE	CLI$K_VERB_DIFF
                                 0000000A       	.PSECT	PURE_DISPLIST	BYTE,RD,EXE,NOWRT
                               FF23' 000A       	.WORD	DIFF-DSTART
                                     000C   141 	COMMAND	DIRE
                                 00000006       	.PSECT	PURE_VALLIST	BYTE,RD,EXE,NOWRT
                                 12  0006       	.BYTE	CLI$K_VERB_DIRE
                                 0000000C       	.PSECT	PURE_DISPLIST	BYTE,RD,EXE,NOWRT
                               FF23' 000C       	.WORD	DIRE-DSTART
                                     000E   142 	COMMAND	DUMP
                                 00000007       	.PSECT	PURE_VALLIST	BYTE,RD,EXE,NOWRT
                                 30  0007       	.BYTE	CLI$K_VERB_DUMP
                                 0000000E       	.PSECT	PURE_DISPLIST	BYTE,RD,EXE,NOWRT
                               FF23' 000E       	.WORD	DUMP-DSTART
                                     0010   143 	COMMAND	EDIT
                                 00000008       	.PSECT	PURE_VALLIST	BYTE,RD,EXE,NOWRT
                                 14  0008       	.BYTE	CLI$K_VERB_EDIT
                                 00000010       	.PSECT	PURE_DISPLIST	BYTE,RD,EXE,NOWRT
                               FF23' 0010       	.WORD	EDIT-DSTART
                                     0012   144 	COMMAND	FORT
                                 00000009       	.PSECT	PURE_VALLIST	BYTE,RD,EXE,NOWRT
                                 18  0009       	.BYTE	CLI$K_VERB_FORT
                                 00000012       	.PSECT	PURE_DISPLIST	BYTE,RD,EXE,NOWRT
                               FF23' 0012       	.WORD	FORT-DSTART
                                     0014   145 	COMMAND	LIBR
                                 0000000A       	.PSECT	PURE_VALLIST	BYTE,RD,EXE,NOWRT
                                 34  000A       	.BYTE	CLI$K_VERB_LIBR
                                 00000014       	.PSECT	PURE_DISPLIST	BYTE,RD,EXE,NOWRT
DISPAT          - COMMAND DISPATCHER FOR BACKTRANSLATORS         22-AUG-1978 05:15:51   VAX-11 MACRO X0.3-11               Page  10
HJ01                                                                                                                             (2)

                               FF23' 0014       	.WORD	LIBR-DSTART
                                     0016   146 	COMMAND	LINK
                                 0000000B       	.PSECT	PURE_VALLIST	BYTE,RD,EXE,NOWRT
                                 1E  000B       	.BYTE	CLI$K_VERB_LINK
                                 00000016       	.PSECT	PURE_DISPLIST	BYTE,RD,EXE,NOWRT
                               FF23' 0016       	.WORD	LINK-DSTART
                                     0018   147 	COMMAND	MACR
                                 0000000C       	.PSECT	PURE_VALLIST	BYTE,RD,EXE,NOWRT
                                 20  000C       	.BYTE	CLI$K_VERB_MACR
                                 00000018       	.PSECT	PURE_DISPLIST	BYTE,RD,EXE,NOWRT
                               FF23' 0018       	.WORD	MACR-DSTART
                                     001A   148 	COMMAND	PURG
                                 0000000D       	.PSECT	PURE_VALLIST	BYTE,RD,EXE,NOWRT
                                 31  000D       	.BYTE	CLI$K_VERB_PURG
                                 0000001A       	.PSECT	PURE_DISPLIST	BYTE,RD,EXE,NOWRT
                               FF23' 001A       	.WORD	PURG-DSTART
                                     001C   149 	COMMAND	RENA
                                 0000000E       	.PSECT	PURE_VALLIST	BYTE,RD,EXE,NOWRT
                                 32  000E       	.BYTE	CLI$K_VERB_RENA
                                 0000001C       	.PSECT	PURE_DISPLIST	BYTE,RD,EXE,NOWRT
                               FF23' 001C       	.WORD	RENA-DSTART
                                     001E   150 	COMMAND	SET
                                 0000000F       	.PSECT	PURE_VALLIST	BYTE,RD,EXE,NOWRT
                                 25  000F       	.BYTE	CLI$K_VERB_SET
                                 0000001E       	.PSECT	PURE_DISPLIST	BYTE,RD,EXE,NOWRT
                               FF23' 001E       	.WORD	SET-DSTART
                                     0020   151 	COMMAND	SORT
                                 00000010       	.PSECT	PURE_VALLIST	BYTE,RD,EXE,NOWRT
                                 35  0010       	.BYTE	CLI$K_VERB_SORT
                                 00000020       	.PSECT	PURE_DISPLIST	BYTE,RD,EXE,NOWRT
                               FF23' 0020       	.WORD	SORT-DSTART
                                     0022   152 	COMMAND	UNLO
                                 00000011       	.PSECT	PURE_VALLIST	BYTE,RD,EXE,NOWRT
                                 2E  0011       	.BYTE	CLI$K_VERB_UNLO
                                 00000022       	.PSECT	PURE_DISPLIST	BYTE,RD,EXE,NOWRT
                               FF23' 0022       	.WORD	UNLO-DSTART
                                     0024   153
                                     0024   154 	PURE	VALLIST
                                 00000012       	.PSECT	PURE_VALLIST	BYTE,RD,EXE,NOWRT
                           00000012  0012   155 	SIZVALIST = .-VALIST
DISPAT          - COMMAND DISPATCHER FOR BACKTRANSLATORS         22-AUG-1978 05:15:51   VAX-11 MACRO X0.3-11               Page  11
HJ01                                                                                                                             (3)

                                     0012   157 ;	.SBTTL	DISPATCHER TO SUBCOMMANDS
                                     0012   158 	PURE
                                 0000000F       	.PSECT	PURE_	BYTE,RD,EXE,NOWRT
                                     000F   159 ;+
                                     000F   160 ; BACKTRANSLATOR DISPATCHER
                                     000F   161 ;
                                     000F   162 ;  THIS ROUTINE ACTS AS THE ENTRY POINT FOR ALL COMMANDS TO BE
                                     000F   163 ;  BACK TRANSLATED TO THEIR RSX-11 COMMAND LINE FORMAT.
                                     000F   164 ;  THIS IMAGE IS INVOKED AS A RESULT OF DCL IDENTIFYING THE COMMAND
                                     000F   165 ;  AS BEING EXECUTED BY A COMPATIBILITY MODE IMAGE
                                     000F   166 ;
                                     000F   167 ;
                                     000F   168 ; INPUTS:
                                     000F   169 ;   THE CLI TABLES AS GIVEN BY RESULT PARSING REQUESTS
                                     000F   170 ;
                                     000F   171 ;
                                     000F   172 ; OUTPUTS:
                                     000F   173 ;  THE OUTPUT CONSISTS OF TWO STRINGS OR AN ERROR MESSAGE AND ABORT.
                                     000F   174 ;  THE CALLER OPENS THE IMAGE AND INVOKES THE COMPATIBILITY EMULATOR
                                     000F   175 ;  IF NO ERROR OCCURS.
                                     000F   176 ;
                                     000F   177 ;  1- FILENAME STRING OF COMPATIBILITY MODE IMAGE TO BE ACTIVATED.
                                     000F   178 ;
                                     000F   179 ;  2- COMMAND LINE TO BE GIVEN TO THE IMAGE.
                                     000F   180 ;
                                     000F   181 ;-
                                     000F   182 	.ENABL	LSB
                                     000F   183
                                     000F   184 TRAN_START::
                               0000  000F   185 	.WORD	0			;ENTRY MASK FROM CLI
       0004'CF            5C     D0  0011   186 	MOVL	AP,W^CLIAP		;SAVE AP FOR USAGE AT CALLBACK LEVEL
         08 BC       0090'CF     FA  0016   187 	CALLG	W^INIT_ARGLIST, -	;CALL BACK TO INITIALIZE THE CLI
                                     001C   188 		@CLI$A_UTILSERV(AP)
                          008C   30  001C   189 	BSBW	COMMA_LIST		;PARSE AND GENERATE THE COMMAND
            53       0114'CF     9E  001F   190 	MOVAB	W^FILEFAB,R3		;SET ADDRESS OF IMAGE FILE FAB
         34 A3            03     90  0024   191 	MOVB	#3,FAB$B_FNS(R3)	;SET FILE NAME SIZE
         2C A3       0004'CF     D0  0028   192 	MOVL	W^PROG_DESC+4,FAB$L_FNA(R3) ;SET ADDRESS OF FILENAME
                       18 A3     D4  002E   193 	CLRL	FAB$L_CTX(R3)		;CLEAR ? IN FAB
                                     0031   194 	$OPEN	FAB=R3			;OPEN THE FILE
                          53     DD  0031       		PUSHL	R3
   00000000'9F            01     FB  0033       		CALLS	#$$.TMP1,@#SYS$OPEN
            10            50     E8  003A   195 	BLBS	R0,10$			;BRANCH IF NO ERROR
            50   00000000'8F     D1  003D   196 	CMPL	#RMS$_FNF,R0		;IS THIS A FILE NOT FOUND ERROR?
                          28     12  0044   197 	BNEQ	IMMED_EXIT		;BRANCH IF NOT, THE ERROR IS UNKNOWN
                                     0046   198 	ERROR	IMGFNF,FATAL		;ISSUE BETTER ERROR AND ABORT
            50         64 8F     9A  0046       	MOVZBL	#BTR$_IMGFNF+FATAL&^XFF,R0
                          0018   31  004A       	BRW	ERR_EXIT
                       18 A3     DD  004D   199 10$:	PUSHL	FAB$L_CTX(R3)		;SAVE ? FOR AME
                     0000'CF     DD  0050   200 	PUSHL	W^STICKY_FLAG		;TELL RSX EMULATOR OUTPUT STICKY FLAG
                     0077'CF     9F  0054   201 	PUSHAB	W^CALLBACK		;PROVIDE CALL BACK ADDRESS
                       0C A3     DD  0058   202 	PUSHL	FAB$L_STV(R3)		;INSERT CHANNEL NUMBER
   00000000'EF            04     FB  005B   203 	CALLS	#4,RSX$RUNIMAGE		;INVOKE THE PROGRAM
            09            50     E9  0062   204 	BLBC	R0,IMMED_EXIT		;BRANCH IF ANY ERRORS
                                     0065   205 ERR_EXIT::
            0F   000000D1 8F     F0  0065   206 	INSV	#BTRAN+<1@15>/<1@15>,#15,#17,R0	;INSERT OUR SUBSYSTEM CODE
            50            11         006C
                                     006E   207 IMMED_EXIT::
DISPAT          - COMMAND DISPATCHER FOR BACKTRANSLATORS         22-AUG-1978 05:15:51   VAX-11 MACRO X0.3-11               Page  12
HJ01                                                                                                                             (3)

                                     006E   208 	$EXIT_S	R0			;EXIT WITH STATUS CODE IN R0
                          50     DD  006E       		PUSHL	R0
   00000000'GF            01     FB  0070       		CALLS	#1,G^SYS$EXIT
                                     0077   209
                                     0077   210 CALLBACK:
                               0FFC  0077   211 	.WORD	SAVE_REG_MASK		;SAVE THE REGS WE USE
       0008'CF         04 AC     D0  0079   212 	MOVL	4(AP),W^RSXDESC		;SAVE ADDRESS FOR COMMAND DESCRIPTOR
            5C       0004'CF     D0  007F   213 	MOVL	W^CLIAP,AP		;RESET OUR AP TO TALK TO CLI
                          50     D4  0084   214 	CLRL	R0			;ASSUME NO MORE COMMANDS
       000F'CF            00     E0  0086   215 	BBS	#$V_CMDRDY,W^CMDRDYFLAG,20$ ;BRANCH IF COMMAND ALREADY PARSED
                          08         008B
                                 E1  008C   216 	BBC	#CLI$V_MOREINP,-	;BRANCH IF COMMAND FINISHED
       00FB'CF            02         008D   217 		W^CLI$B_RQSTAT+END_DESC,40$
                          12         0091
                          17     10  0092   218 	BSBB	COMMA_LIST		;BRANCH FOR UNPROCESSED FILE AFTER ','
       0008'DF       0000'CF     7D  0094   219 20$:	MOVQ	W^RESULT_DESC,@W^RSXDESC;SET UP DESC FOR RSX$RUNIMAGE
       000F'CF            00     E5  009B   220 	BBCC	#$V_CMDRDY,W^CMDRDYFLAG,30$ ;CLEAR COMMAND READY FLAG
                          00         00A0
            50            01     D0  00A1   221 30$:	MOVL	#1,R0			;WE ARE GIVING YOU ANOTHER COMMAND
                                 04  00A4   222 40$:	RET
                                     00A5   223
                                     00A5   224 	.DSABL	LSB
DISPAT          - COMMAND DISPATCHER FOR BACKTRANSLATORS         22-AUG-1978 05:15:51   VAX-11 MACRO X0.3-11               Page  13
HJ01                                                                                                                             (3)

                                     00A5   226 	.ENABL	LSB
                                     00A5   227
                                     00A5   228 10$:	ERROR	NOTIMPLEM,FATAL		;ISSUE ERROR AND ABORT
            50            24     9A  00A5       	MOVZBL	#BTR$_NOTIMPLEM+FATAL&^XFF,R0
                          FFBA   31  00A8       	BRW	ERR_EXIT
                                     00AB   229
                                     00AB   230 COMMA_LIST:
         08 BC       00BC'CF     FA  00AB   231 	CALLG	W^VERB_ARGLIST, -	;CALL CLI TO GET COMMAND INDEX
                                     00B1   232 		@CLI$A_UTILSERV(AP)
            52            12     B0  00B1   233 	MOVW	#SIZVALIST,R2		;GET SIZE OF INDEX TABLE
                                 3A  00B4   234 	LOCC	W^CLI$B_RQSTAT+VERB_DESC,-;FIND THE COMMAND TRANSLATOR TO CALL
            52       00CF'CF         00B5   235 		R2,W^VALIST
                     0000'CF         00B9
                          E7     13  00BC   236 	BEQL	10$			;BRANCH IF COMMAND NOT IN LIST
       0000'CF       0000'CF     9E  00BE   237 	MOVAB	W^ARGSLIST,W^ARGSLISTPTR;INITIALIZE FILE NAME LIST TO NULL
       0000'CF       0000'CF     9E  00C5   238 	MOVAB	W^OPTLIST,W^OPTLISTPTR	;INITIALIZE OPTION LIST TO NULL
                     0000'CF     94  00CC   239 	CLRB	W^PARAMLOC		;DEFAULT PARAMETERS TO PRIMARY OUTPUT
                     0000'CF     94  00D0   240 	CLRB	W^HOLDLOC		;DEFAULT OPTIONS TO PRIMARY OUTPUT
            52            50     C2  00D4   241 	SUBL	R0,R2			;FORM INDEX TO ENTRY
            50       0000'CF42   3C  00D7   242 	MOVZWL	W^DISPLIST[R2],R0	;GET OFFSET TO ROUTINE
                       FC AF40   16  00DD   243 DSTART:	JSB	DSTART[R0]		;CALL THE COMMAND TRANSLATOR
                          FF1C'  30  00E1   244 	BSBW	DEFAULTPROG		;DEFAULT THE PROGRAM IF NECCESSARY
                          FF19'  30  00E4   245 	BSBW	COMMAND_GEN		;CALL THE COMMAND GENERATOR
                                     00E7   246
                                     00E7   247 	.IF DF	DEBUG
                                     00E7   248 	PUSHR	#^M<R0,R1,R2>
                                     00E7   249 	$CREATE	FAB=W^$DEBUG$FAB
                                     00E7   250 	MOVAB	W^$DEBUG$RAB,R2
                                     00E7   251 	$CONNECT RAB=R2
                                     00E7   252 	$RAB_STORE RAB=R2,RSZ=W^PROG_DESC,RBF=@W^PROG_DESC+4
                                     00E7   253 	$PUT	RAB=R2
                                     00E7   254 	$RAB_STORE RAB=R2,RSZ=W^RESULT_DESC,RBF=@W^RESULT_DESC+4
                                     00E7   255 	$PUT	RAB=R2
                                     00E7   256 	$CLOSE	FAB=W^$DEBUG$FAB
                                     00E7   257 	POPR	#^M<R0,R1,R2>
                                     00E7   258 	.ENDC
                                     00E7   259
         08 BC       00E8'CF     FA  00E7   260 	CALLG	W^END_ARGLIST, -	;CALL TO END THE ARGUMENT LIST
                                     00ED   261 		@CLI$A_UTILSERV(AP)
            03            50     E8  00ED   262 	BLBS	R0,20$			;BRANCH IF NO ERRORS
                          FF7B   31  00F0   263 	BRW	IMMED_EXIT
       000F'CF            00     E3  00F3   264 20$:	BBCS	#$V_CMDRDY,W^CMDRDYFLAG,30$ ;SET COMMAND READY FLAG
                          00         00F8
                                 05  00F9   265 30$:	RSB
                                     00FA   266
                                     00FA   267 	.DSABL	LSB
                                     00FA   268
                                     00FA   269 	.END	TRAN_START
DISPAT          - COMMAND DISPATCHER FOR BACKTRANSLATORS         22-AUG-1978 05:15:51   VAX-11 MACRO X0.3-11               Page  14
SYMBOL TABLE                                                                                                                     (3)

$$.TAB         = 00000164 R     03   CLI$B_BITNUM     00000001            CLI$K_VERB_DEBU= 0000000D
$$.TABEND      = 0000019C R     03   CLI$B_QDBLKSIZ   00000000            CLI$K_VERB_DEFI= 0000000E
$$.TMP         = 40020000            CLI$B_QDCODE     00000001            CLI$K_VERB_DELE= 0000000F
$$.TMP1        = 00000001            CLI$B_QDFLGS     00000002            CLI$K_VERB_DEPO= 00000010
$$.TMP2        = 00000053            CLI$B_QDSTAT     00000003            CLI$K_VERB_DIFF= 00000011
$$T1           = 00000003            CLI$B_RQFLGS     00000002            CLI$K_VERB_DIRE= 00000012
$CLI.          = 000000F8 R     03   CLI$B_RQINDX     00000001            CLI$K_VERB_DISM= 00000013
$CLI..         = 00000114 R     03   CLI$B_RQSTAT     00000003            CLI$K_VERB_DUMP= 00000030
$V_CHANGEPROG  = 00000001            CLI$B_RQTYPE     00000000            CLI$K_VERB_EDIT= 00000014
$V_CMDRDY      = 00000000            CLI$C_QDBITS     00000014            CLI$K_VERB_EOD = 00000015
ARGSLIST         ********   X   04   CLI$C_QUALDEF    00000014            CLI$K_VERB_EXAM= 00000016
ARGSLISTPTR      ********   X   04   CLI$C_REQDESC    0000001C            CLI$K_VERB_EXIT= 00000017
BASI             ********   X   06   CLI$C_WORKAREA   00000080            CLI$K_VERB_FORE= 000000FF
BIT...         = 0000001A            CLI$K_ASCIIVAL = 00000041            CLI$K_VERB_FORT= 00000018
BITMAP           0000000C RG    03   CLI$K_CLISERV  = 00000005            CLI$K_VERB_GOTO= 00000019
BTR$M_DECIMAL  = 00000080            CLI$K_ENDPRM1  = 00000030            CLI$K_VERB_HELP= 0000001A
BTR$M_EXPLICIT = 00000020            CLI$K_ENDPRM2  = 00000031            CLI$K_VERB_IF  = 0000001B
BTR$M_FORCE    = 00000002            CLI$K_ENDPRM3  = 00000032            CLI$K_VERB_INIT= 0000001C
BTR$M_LIST     = 00000040            CLI$K_ENDPRM4  = 00000033            CLI$K_VERB_INQU= 0000001D
BTR$M_MULTKEY  = 00000010            CLI$K_FILSPEC  = 00000044            CLI$K_VERB_LIBR= 00000034
BTR$M_RETURN   = 00000001            CLI$K_GETCMD   = 00000001            CLI$K_VERB_LINK= 0000001E
BTR$M_TEMPPOS  = 00000004            CLI$K_GETOPT   = 00000003            CLI$K_VERB_LOGO= 0000001F
BTR$M_VALREQ   = 00000008            CLI$K_GETQUAL  = 00000002            CLI$K_VERB_MACR= 00000020
BTR$V_DECIMAL  = 00000007            CLI$K_INITPRS  = 00000000            CLI$K_VERB_MCR = 00000021
BTR$V_EXPLICIT = 00000005            CLI$K_INPSPEC  = 00000001            CLI$K_VERB_MOUN= 0000002B
BTR$V_FORCE    = 00000001            CLI$K_INPUT1   = 00000010            CLI$K_VERB_ON  = 00000022
BTR$V_LIST     = 00000006            CLI$K_INPUT2   = 00000011            CLI$K_VERB_PATC= 0000002C
BTR$V_MULTKEY  = 00000004            CLI$K_INPUT3   = 00000012            CLI$K_VERB_PRIN= 00000023
BTR$V_RETURN   = 00000000            CLI$K_INPUT4   = 00000013            CLI$K_VERB_PURG= 00000031
BTR$V_TEMPPOS  = 00000002            CLI$K_KEYVAL   = 00000043            CLI$K_VERB_RENA= 00000032
BTR$V_VALREQ   = 00000003            CLI$K_KEYWORD  = 00000042            CLI$K_VERB_REPL= 0000002D
BTR$_AMBIGKEYW = 00688030            CLI$K_NUMERVAL = 00000040            CLI$K_VERB_REQU= 00000036
BTR$_ILLEGOPT  = 00688018            CLI$K_OUTPUT1  = 00000020            CLI$K_VERB_RUN = 00000024
BTR$_IMGFNF    = 00688060            CLI$K_OUTPUT2  = 00000021            CLI$K_VERB_SET = 00000025
BTR$_INTFAIL   = 00688048            CLI$K_OUTPUT3  = 00000022            CLI$K_VERB_SHOW= 00000026
BTR$_INVALKEYW = 00688028            CLI$K_OUTPUT4  = 00000023            CLI$K_VERB_SORT= 00000035
BTR$_KEYVALOVR = 00688038            CLI$K_OUTSPEC  = 00000002            CLI$K_VERB_STAR= 00000027
BTR$_MISSNGVAL = 00688008            CLI$K_PARDONE  = 00000003            CLI$K_VERB_STOP= 00000028
BTR$_NOTIMPLEM = 00688020            CLI$K_QDBITS     00000014            CLI$K_VERB_SUBM= 00000029
BTR$_OPTVALOVR = 00688050            CLI$K_QUALDEF    00000014            CLI$K_VERB_SYNC= 00000037
BTR$_STRINGOVR = 00688010            CLI$K_REQDESC    0000001C            CLI$K_VERB_TYPE= 0000002A
BTR$_TOOMANY   = 00688058            CLI$K_UTILOPR  = 00000000            CLI$K_VERB_UNLO= 0000002E
BTR$_UNEXPLIST = 00688040            CLI$K_VALCONV  = 00000004            CLI$K_WORKAREA   00000080
BTRAN          = 00680000            CLI$K_VERB_ALLO= 00000001            CLI$L_CLIFLAG    00000018
CALLBACK         00000077 R     04   CLI$K_VERB_ANAL= 00000002            CLI$L_INIARGCNT  00000000
CLI$A_ABSACT     00000014            CLI$K_VERB_APPE= 0000002F            CLI$L_LINKFLAG   00000014
CLI$A_ERRACT     00000004            CLI$K_VERB_ASSI= 00000003            CLI$L_RQVALU     0000000C
CLI$A_FLSACT     00000010            CLI$K_VERB_BASI= 00000004            CLI$L_USRVAL     00000014
CLI$A_IMGFILED   00000010            CLI$K_VERB_BLIS= 00000005            CLI$L_WORKAREA   00000000
CLI$A_IMGHDADR   0000000C            CLI$K_VERB_CANC= 00000033            CLI$M_ABSADR   = 00000002
CLI$A_PROGXFER   00000004            CLI$K_VERB_COBO= 00000006            CLI$M_ALLOCCUR = 00000001
CLI$A_PRSACT     00000010            CLI$K_VERB_CONT= 00000007            CLI$M_BATCH    = 00000008
CLI$A_QDVALADR   00000008            CLI$K_VERB_COPY= 00000008            CLI$M_CONCATINP= 00000002
CLI$A_QUALST     00000018            CLI$K_VERB_CREA= 00000009            CLI$M_DBGEXCP  = 00010000
CLI$A_RQADDR     0000000C            CLI$K_VERB_DATA= 0000000A            CLI$M_DBGTRU   = 00000002
CLI$A_TRUACT     0000000C            CLI$K_VERB_DEAL= 0000000B            CLI$M_DEBUG    = 00000001
CLI$A_UTILSERV   00000008            CLI$K_VERB_DEAS= 0000000C            CLI$M_DUMMY    = 00000002
DISPAT          - COMMAND DISPATCHER FOR BACKTRANSLATORS         22-AUG-1978 05:15:51   VAX-11 MACRO X0.3-11               Page  15
SYMBOL TABLE                                                                                                                     (3)

CLI$M_EXPNAM   = 00000004            CREA             ********   X   06   FAB$M_CR       = 00000002
CLI$M_INDIRECT = 00000010            DEFAULT          00000000 R     04   FAB$M_CTG      = 00100000
CLI$M_KEYVALU  = 00000002            DEFAULTPROG      ********   X   04   FAB$M_DEL      = 00000004
CLI$M_LASTVAL  = 00000001            DEFAULT_SIZE   = 0000000F            FAB$M_DFW      = 00000020
CLI$M_MOREINP  = 00000004            DELE             ********   X   06   FAB$M_DLT      = 00008000
CLI$M_MOREVALS = 00000001            DIFF             ********   X   06   FAB$M_DMO      = 00001000
CLI$M_PARMDEF  = 00000008            DIRE             ********   X   06   FAB$M_ESC      = 08000000
CLI$M_PARMPRS  = 00000001            DISPLIST         00000000 R     06   FAB$M_EXE      = 00000080
CLI$M_PARMREQ  = 00000001            DSTART           000000DD R     04   FAB$M_FTN      = 00000001
CLI$M_QDEXPA   = 00000004            DUMP             ********   X   06   FAB$M_GET      = 00000002
CLI$M_QDUSRV   = 00000002            EDIT             ********   X   06   FAB$M_INP      = 00080000
CLI$M_QUALEXP  = 00000002            END_ARGLIST      000000E8 R     03   FAB$M_JNL      = 00400000
CLI$M_QUALTRU  = 00000001            END_DESC         000000F8 R     03   FAB$M_KFO      = 40000000
CLI$M_TRMVRBLV = 00000300            ERR_EXIT         00000065 RG    04   FAB$M_MSE      = 00000010
CLI$M_VERIFY   = 00000004            FAB$B_BID        00000000            FAB$M_MXV      = 00000002
CLI$M_VFYINP   = 00000020            FAB$B_BKS        0000003E            FAB$M_NAM      = 01000000
CLI$Q_QDVALDESC  00000004            FAB$B_BLN        00000001            FAB$M_NEF      = 00000400
CLI$Q_RQDESC     00000008            FAB$B_DNS        00000035            FAB$M_NFS      = 00010000
CLI$S_PRITYP   = 00000004            FAB$B_FAC        00000016            FAB$M_NIL      = 00000020
CLI$S_SUBTYP   = 00000004            FAB$B_FNS        00000034            FAB$M_OFP      = 20000000
CLI$S_TRMVRBLV = 00000002            FAB$B_FSZ        0000003F            FAB$M_POS      = 00000100
CLI$V_ABSADR   = 00000001            FAB$B_ORG        0000001D            FAB$M_PPF      = 00040000
CLI$V_ALLOCCUR = 00000000            FAB$B_RAT        0000001E            FAB$M_PPF_IND  = 00004000
CLI$V_BATCH    = 00000003            FAB$B_RFM        0000001F            FAB$M_PPF_RAT  = 00003FC0
CLI$V_CONCATINP= 00000001            FAB$B_RTV        0000001C            FAB$M_PRN      = 00000004
CLI$V_DBGEXCP  = 00000010            FAB$B_SHR        00000017            FAB$M_PUT      = 00000001
CLI$V_DBGTRU   = 00000001            FAB$C_BID      = 00000003            FAB$M_RCK      = 00800000
CLI$V_DEBUG    = 00000000            FAB$C_BLN        00000050            FAB$M_RWC      = 00000800
CLI$V_DUMMY    = 00000001            FAB$C_FIX      = 00000001            FAB$M_RWO      = 00000080
CLI$V_EXPNAM   = 00000002            FAB$C_HSH      = 00000030            FAB$M_SCF      = 00004000
CLI$V_INDIRECT = 00000004            FAB$C_IDX      = 00000020            FAB$M_SHRDEL   = 00000004
CLI$V_KEYVALU  = 00000001            FAB$C_MAXRFM   = 00000003            FAB$M_SHRGET   = 00000002
CLI$V_LASTVAL  = 00000000            FAB$C_REL      = 00000010            FAB$M_SHRPUT   = 00000001
CLI$V_MOREINP  = 00000002            FAB$C_RFM_DFLT = 00000002            FAB$M_SHRUPD   = 00000008
CLI$V_MOREVALS = 00000000            FAB$C_SEQ      = 00000000            FAB$M_SPL      = 00002000
CLI$V_PARMDEF  = 00000003            FAB$C_UDF      = 00000000            FAB$M_SQO      = 00000040
CLI$V_PARMPRS  = 00000000            FAB$C_VAR      = 00000002            FAB$M_SUP      = 00000004
CLI$V_PARMREQ  = 00000000            FAB$C_VFC      = 00000003            FAB$M_TEF      = 10000000
CLI$V_PRITYP   = 00000004            FAB$K_BLN        00000050            FAB$M_TMD      = 00000010
CLI$V_QDEXPA   = 00000002            FAB$L_ALQ        00000010            FAB$M_TMP      = 00000008
CLI$V_QDUSRV   = 00000001            FAB$L_CTX        00000018            FAB$M_TRN      = 00000010
CLI$V_QUALEXP  = 00000001            FAB$L_DEV        00000040            FAB$M_UFM      = 04000000
CLI$V_QUALTRU  = 00000000            FAB$L_DNA        00000030            FAB$M_UFO      = 00020000
CLI$V_SUBTYP   = 00000000            FAB$L_FNA        0000002C            FAB$M_UPD      = 00000008
CLI$V_TRMVRBLV = 00000008            FAB$L_FOP        00000004            FAB$M_UPI      = 00000040
CLI$V_VERIFY   = 00000002            FAB$L_JNL        00000020            FAB$M_WCK      = 00000200
CLI$V_VFYINP   = 00000005            FAB$L_MRN        00000038            FAB$S_ORG      = 00000004
CLI$W_QDVALSIZ   00000004            FAB$L_NAM        00000028            FAB$S_PPF_RAT  = 00000008
CLI$W_RQSIZE     00000008            FAB$L_SDC        00000044            FAB$V_BIO      = 00000005
CLI$W_SERVCOD    00000001            FAB$L_STS        00000008            FAB$V_BLK      = 00000003
CLIAP            00000004 R     03   FAB$L_STV        0000000C            FAB$V_BRO      = 00000006
CLIWORKAREA      00000010 RG    03   FAB$L_XAB        00000024            FAB$V_CBT      = 00000015
CMDRDYFLAG       0000000F R     03   FAB$M_BIO      = 00000020            FAB$V_CIF      = 00000019
COBO             ********   X   06   FAB$M_BLK      = 00000008            FAB$V_CR       = 00000001
COMMAND_GEN      ********   X   04   FAB$M_BRO      = 00000040            FAB$V_CTG      = 00000014
COMMA_LIST       000000AB R     04   FAB$M_CBT      = 00200000            FAB$V_DEL      = 00000002
COPY             ********   X   06   FAB$M_CIF      = 02000000            FAB$V_DFW      = 00000005
DISPAT          - COMMAND DISPATCHER FOR BACKTRANSLATORS         22-AUG-1978 05:15:51   VAX-11 MACRO X0.3-11               Page  16
SYMBOL TABLE                                                                                                                     (3)

FAB$V_DLT      = 0000000F            LIBR             ********   X   06   NAM$V_DIR_LVLS = 00000015
FAB$V_DMO      = 0000000C            LINK             ********   X   06   NAM$V_EXP_DEV  = 00000007
FAB$V_ESC      = 0000001B            MACR             ********   X   06   NAM$V_EXP_DIR  = 00000006
FAB$V_EXE      = 00000007            NAM$B_BID        00000000            NAM$V_EXP_NAME = 00000002
FAB$V_FTN      = 00000000            NAM$B_BLN        00000001            NAM$V_EXP_TYPE = 00000001
FAB$V_GET      = 00000001            NAM$B_CURLVL     00000038            NAM$V_EXP_VER  = 00000000
FAB$V_INP      = 00000013            NAM$B_ESL        0000000B            NAM$V_GRP_MBR  = 00000013
FAB$V_JNL      = 00000016            NAM$B_ESS        0000000A            NAM$V_HIGHVER  = 0000000F
FAB$V_KFO      = 0000001E            NAM$B_RSL        00000003            NAM$V_LOWVER   = 0000000E
FAB$V_MSE      = 00000004            NAM$B_RSS        00000002            NAM$V_NODE     = 00000011
FAB$V_MXV      = 00000001            NAM$C_BID      = 00000002            NAM$V_PPF      = 00000010
FAB$V_NAM      = 00000018            NAM$C_BLN        00000038            NAM$V_QUOTED   = 00000012
FAB$V_NEF      = 0000000A            NAM$C_BLN_DIRWC  00000050            NAM$V_WILDCARD = 00000008
FAB$V_NFS      = 00000010            NAM$C_DVI      = 00000010            NAM$V_WILD_DIR = 00000014
FAB$V_NIL      = 00000005            NAM$C_MAXRSS   = 00000080            NAM$V_WILD_GRP = 00000018
FAB$V_OFP      = 0000001D            NAM$C_MAXRSSLCL= 00000060            NAM$V_WILD_MBR = 00000019
FAB$V_ORG      = 00000004            NAM$K_BLN        00000038            NAM$V_WILD_NAME= 00000005
FAB$V_POS      = 00000008            NAM$K_BLN_DIRWC  00000050            NAM$V_WILD_SFD1= 00000019
FAB$V_PPF      = 00000012            NAM$L_DIRWCC1    00000040            NAM$V_WILD_SFD2= 0000001A
FAB$V_PPF_IND  = 0000000E            NAM$L_DIRWCC2    00000044            NAM$V_WILD_SFD3= 0000001B
FAB$V_PPF_RAT  = 00000006            NAM$L_DIRWCC3    00000048            NAM$V_WILD_SFD4= 0000001C
FAB$V_PRN      = 00000002            NAM$L_DIRWCC4    0000004C            NAM$V_WILD_SFD5= 0000001D
FAB$V_PUT      = 00000000            NAM$L_DWC        00000038            NAM$V_WILD_SFD6= 0000001E
FAB$V_RCK      = 00000017            NAM$L_ESA        0000000C            NAM$V_WILD_SFD7= 0000001F
FAB$V_RWC      = 0000000B            NAM$L_FNB        00000034            NAM$V_WILD_TYPE= 00000004
FAB$V_RWO      = 00000007            NAM$L_RLF        00000010            NAM$V_WILD_UFD = 00000018
FAB$V_SCF      = 0000000E            NAM$L_RSA        00000004            NAM$V_WILD_VER = 00000003
FAB$V_SHRDEL   = 00000002            NAM$L_WCC        00000030            NAM$W_DID        0000002A
FAB$V_SHRGET   = 00000001            NAM$M_DIR_LVLS = 00E00000            NAM$W_DID_NUM    0000002A
FAB$V_SHRPUT   = 00000000            NAM$M_EXP_DEV  = 00000080            NAM$W_DID_RVN    0000002E
FAB$V_SHRUPD   = 00000003            NAM$M_EXP_DIR  = 00000040            NAM$W_DID_SEQ    0000002C
FAB$V_SPL      = 0000000D            NAM$M_EXP_NAME = 00000004            NAM$W_FID        00000024
FAB$V_SQO      = 00000006            NAM$M_EXP_TYPE = 00000002            NAM$W_FID_NUM    00000024
FAB$V_SUP      = 00000002            NAM$M_EXP_VER  = 00000001            NAM$W_FID_RVN    00000028
FAB$V_TEF      = 0000001C            NAM$M_GRP_MBR  = 00080000            NAM$W_FID_SEQ    00000026
FAB$V_TMD      = 00000004            NAM$M_HIGHVER  = 00008000            NAM$W_PRV_DID    0000003A
FAB$V_TMP      = 00000003            NAM$M_LOWVER   = 00004000            NONE           = 00000000
FAB$V_TRN      = 00000004            NAM$M_NODE     = 00020000            OPTLIST          ********   X   04
FAB$V_UFM      = 0000001A            NAM$M_PPF      = 00010000            OPTLISTPTR       ********   X   04
FAB$V_UFO      = 00000011            NAM$M_QUOTED   = 00040000            PARAMLOC         ********   X   04
FAB$V_UPD      = 00000003            NAM$M_WILDCARD = 00000100            PRIM_INPUT     = FFFFFFF6
FAB$V_UPI      = 00000006            NAM$M_WILD_DIR = 00100000            PRIM_OUTPUT    = 00000000
FAB$V_WCK      = 00000009            NAM$M_WILD_GRP = 01000000            PROG_BP2       = 0000000C
FAB$W_BLS        0000003C            NAM$M_WILD_MBR = 02000000            PROG_CBL       = 00000008
FAB$W_DEQ        00000014            NAM$M_WILD_NAME= 00000020            PROG_CNT       = 0000000F
FAB$W_IFI        00000002            NAM$M_WILD_SFD1= 02000000            PROG_DESC        ********   X   04
FAB$W_MRS        00000036            NAM$M_WILD_SFD2= 04000000            PROG_DIF       = 0000000F
FATAL          = 00000004            NAM$M_WILD_SFD3= 08000000            PROG_DMP       = 00000007
FILEFAB          00000114 R     03   NAM$M_WILD_SFD4= 10000000            PROG_F4V       = 00000002
FILNAM           00000164 R     03   NAM$M_WILD_SFD5= 20000000            PROG_LBR       = 0000000B
FORT             ********   X   06   NAM$M_WILD_SFD6= 40000000            PROG_LIB       = 0000000A
GBL...         = 00000000            NAM$M_WILD_SFD7= 80000000            PROG_MAC       = 00000004
HOLDLOC          ********   X   04   NAM$M_WILD_TYPE= 00000010            PROG_MAR       = 00000003
IMMED_EXIT       0000006E RG    04   NAM$M_WILD_UFD = 01000000            PROG_PIP       = 00000001
INIT_ARGLIST     00000090 R     03   NAM$M_WILD_VER = 00000008            PROG_SLP       = 00000006
INIT_DESC        000000A0 R     03   NAM$S_DIR_LVLS = 00000003            PROG_SOS       = 00000005
LAST_PARAM     = FFFFFFEC            NAM$T_DVI        00000014            PROG_SRT       = 0000000E
DISPAT          - COMMAND DISPATCHER FOR BACKTRANSLATORS         22-AUG-1978 05:15:51   VAX-11 MACRO X0.3-11               Page  17
SYMBOL TABLE                                                                                                                     (3)

PROG_TKB       = 00000009
PROG_UFD       = 0000000D
PURG             ********   X   06
RENA             ********   X   06
RESULT_DESC      ********   X   04
RMS$_FNF         ********   X   04
RSX$RUNIMAGE     ********   X   04
RSXDESC          00000008 R     03
SAVE_REG_MASK  = 00000FFC
SET              ********   X   06
SIZVALIST      = 00000012
SORT             ********   X   06
STICKY_FLAG      00000000 RG    03
SYS$EXIT         ********   X   04
SYS$OPEN         ********  GX   04
TRAN_START       0000000F RG    04
UNLO             ********   X   06
VALIST           00000000 R     05
VERB_ARGLIST     000000BC R     03
VERB_DESC        000000CC R     03


PROGRAM SECTION SYNOPSIS

.  ABS  .        00000000      00     NOPIC   USR   CON   ABS   LCL NOSHR NOEXE NORD  NOWRT BYTE
. BLANK .        00000000      01     NOPIC   USR   CON   REL   LCL NOSHR   EXE   RD    WRT BYTE
$ABS$            00000080      02     NOPIC   USR   CON   ABS   LCL NOSHR   EXE   RD    WRT BYTE
IMPURE_          0000019C      03     NOPIC   USR   CON   REL   LCL NOSHR NOEXE   RD    WRT LONG
PURE_            000000FA      04     NOPIC   USR   CON   REL   LCL NOSHR   EXE   RD  NOWRT BYTE
PURE_VALLIST     00000012      05     NOPIC   USR   CON   REL   LCL NOSHR   EXE   RD  NOWRT BYTE
PURE_DISPLIST    00000024      06     NOPIC   USR   CON   REL   LCL NOSHR   EXE   RD  NOWRT BYTE


THERE WERE NO ERRORS OR WARNINGS.
7538. BYTES LEFT IN FREE MEMORY POOL.
934. BYTES OF RECLAIMED MEMORY.
OBJ$:DISPAT,LIS$:DISPAT/-SP/LI:MEB=EXECML$/ML,LIB$:B/ML,SRC$:DISPAT
71 MLB DIR RDS - 897 GETS TO DEFINE 38 MACROS. 159 INTER. FILE WRITES.
