DUMP            - BACKTRANSLATOR FOR DUMP COMMAND                22-AUG-1978 05:22:15   VAX-11 MACRO X0.3-11               Page   1
HJ01                                                                                                                             (1)

                                     0000     1 	.TITLE	DUMP - BACKTRANSLATOR FOR DUMP COMMAND
                                     0000     2 	.IDENT	/HJ01/
                                     0000     3
                                     0000     4 ;
                                     0000     5 ; COPYRIGHT (C) 1977
                                     0000     6 ; DIGITAL EQUIPMENT CORPORATION, MAYNARD, MASS.
                                     0000     7 ;
                                     0000     8 ; THIS SOFTWARE IS FURNISHED UNDER  A LICENSE FOR USE ONLY  ON  A
                                     0000     9 ; SINGLE COMPUTER SYSTEM AND MAY BE  COPIED ONLY WITH  THE INCLU-
                                     0000    10 ; SION OF  THE  ABOVE  COPYRIGHT NOTICE.  THIS SOFTWARE,  OR  ANY
                                     0000    11 ; OTHER COPIES THEREOF, MAY NOT BE  PROVIDED  OR  OTHERWISE  MADE
                                     0000    12 ; AVAILABLE TO ANY OTHER PERSON EXCEPT  FOR  USE  ON  SUCH SYSTEM
                                     0000    13 ; AND TO  ONE WHO AGREES  TO  THESE LICENSE  TERMS.  TITLE TO AND
                                     0000    14 ; OWNERSHIP OF THE SOFTWARE SHALL AT ALL TIMES REMAIN IN DEC.
                                     0000    15 ;
                                     0000    16 ; THE INFORMATION IN THIS SOFTWARE  IS  SUBJECT TO CHANGE WITHOUT
                                     0000    17 ; NOTICE AND SHOULD NOT BE CONSTRUED  AS  A COMMITMENT BY DIGITAL
                                     0000    18 ; EQUIPMENT CORPORATION.
                                     0000    19 ;
                                     0000    20 ; DEC ASSUMES NO RESPONSIBILITY FOR THE USE OR RELIABILITY OF ITS
                                     0000    21 ; SOFTWARE ON EQUIPMENT WHICH IS NOT SUPPLIED BY DEC.
                                     0000    22 ;
                                     0000    23 ; H.J.	OCTOBER 1977
                                     0000    24 ;
                                     0000    25 ; BACKTRANSLATOR DUMP
                                     0000    26 ;
DUMP            - BACKTRANSLATOR FOR DUMP COMMAND                22-AUG-1978 05:22:15   VAX-11 MACRO X0.3-11               Page   2
HJ01                                                                                                                             (2)

                                     0000    28 ;	.SBTTL INITIALIZE DATA DEFINITIONS
                                     0000    29 ;
                                     0000    30 ; MACRO LIBRARY CALLS
                                     0000    31 ;
                                     0000    32 	$BTDEFS				;DEFINE VALUES TO BE USED LOCALLY
                                     0000       	.SAVE
                                 00000000       	.PSECT	$ABS$,ABS
                                     0000       	.RESTORE
                                     0000    33 	$CLIDEF				;DEFINE CLI CODES AND VALUES
                                     0000       	.SAVE
                                 00000000       	.PSECT	$ABS$,ABS
                                     0000       CLI$L_INIARGCNT:
                           00000004  0000        			.BLKL	1
                                     0004       CLI$A_PROGXFER:
                           00000008  0004        			.BLKL	1
                                     0008       CLI$A_UTILSERV:
                           0000000C  0008        			.BLKL	1
                                     000C       CLI$A_IMGHDADR:
                           00000010  000C        			.BLKL	1
                                     0010       CLI$A_IMGFILED:
                           00000014  0010        			.BLKL	1
                                     0014       CLI$L_LINKFLAG:
                           00000018  0014        			.BLKL	1
                                     0018       CLI$L_CLIFLAG:
                           0000001C  0018        			.BLKL	1
                           00000000  001C        	. = 0
                                     0000       CLI$B_RQTYPE:
                           00000001  0000        			.BLKB	1
                                     0001       CLI$W_SERVCOD:
                                     0001       CLI$B_RQINDX:
                                     0001       CLI$B_BITNUM:
                           00000002  0001        			.BLKB	1
                                     0002       CLI$B_RQFLGS:
                           00000003  0002        			.BLKB	1
                                     0003       CLI$B_RQSTAT:
                           00000004  0003        			.BLKB	1
                                     0004       CLI$A_ERRACT:
                           00000008  0004        			.BLKL	1
                                     0008       CLI$Q_RQDESC:
                                     0008       CLI$W_RQSIZE:
                           0000000A  0008        			.BLKW	1
                           0000000C  000A        			.BLKW	1
                                     000C       CLI$L_RQVALU:
                                     000C       CLI$A_RQADDR:
                           00000010  000C        			.BLKL	1
                                     0010       CLI$A_PRSACT:
                           00000014  0010        			.BLKL	1
                                     0014       CLI$A_ABSACT:
                           00000018  0014        			.BLKL	1
                                     0018       CLI$A_QUALST:
                           0000001C  0018        			.BLKL	1
                                     001C       CLI$C_REQDESC:
                                     001C       CLI$K_REQDESC:
                           00000000  001C        	. = 0
                                     0000       CLI$B_QDBLKSIZ:
                           00000001  0000        			.BLKB	1
                                     0001       CLI$B_QDCODE:
DUMP            - BACKTRANSLATOR FOR DUMP COMMAND                22-AUG-1978 05:22:15   VAX-11 MACRO X0.3-11               Page   3
HJ01                                                                                                                             (2)

                           00000002  0001        			.BLKB	1
                                     0002       CLI$B_QDFLGS:
                           00000003  0002        			.BLKB	1
                                     0003       CLI$B_QDSTAT:
                           00000004  0003        			.BLKB	1
                                     0004       CLI$Q_QDVALDESC:
                                     0004       CLI$W_QDVALSIZ:
                           00000006  0004        			.BLKW	1
                           00000008  0006        			.BLKW	1
                                     0008       CLI$A_QDVALADR:
                           0000000C  0008        			.BLKL	1
                                     000C       CLI$A_TRUACT:
                           00000010  000C        			.BLKL	1
                                     0010       CLI$A_FLSACT:
                           00000014  0010        			.BLKL	1
                                     0014       CLI$C_QUALDEF:
                                     0014       CLI$K_QUALDEF:
                                     0014       CLI$C_QDBITS:
                                     0014       CLI$K_QDBITS:
                                     0014       CLI$L_USRVAL:
                           00000018  0014        			.BLKL	1
                           00000000  0018        	. = 0
                                     0000       CLI$L_WORKAREA:
                           00000080  0000        			.BLKL	32
                                     0080       CLI$C_WORKAREA:
                                     0080       CLI$K_WORKAREA:
                                     0000       	.RESTORE
                                     0000    34 	$CLIDEFQUALDUMP			;DEFINE QUALIFIER CODES
                                     0000       	.SAVE
                                 00000080       	.PSECT	$ABS$,ABS
                           00000000  0080       	.=0
                                     0000       PRO_B_PROMPT:
                           00000001  0000       	.BLKB	1
                                     0001       PRO_B_FLAGS:
                           00000002  0001       	.BLKB	1
                                     0002       PRO_K_LENGTH:
                                     0000       	.RESTORE
                                     0000       	.SAVE
                                 00000080       	.PSECT	$ABS$,ABS
                           00000000  0080       	.=0
                                     0000       QUA_B_OFFSET:
                           00000001  0000       	.BLKB	1
                                     0001       QUA_B_INDEX:
                           00000002  0001       	.BLKB	1
                                     0002       QUA_B_DEFVAL:
                           00000003  0002       	.BLKB	1
                                     0003       QUA_W_FLAGS:
                           00000005  0003       	.BLKW	1
                                     0005       QUA_B_IMAGE:
                           00000006  0005       	.BLKB	1
                                     0006       QUA_G_CHNGLST:
                                     0006       QUA_W_QUALIST:
                           00000008  0006       	.BLKW	1
                                     0008       QUA_B_PARMCNT:
                           00000009  0008       	.BLKB	1
                                     0009       QUA_W_PROMPT:
                           0000000B  0009       	.BLKW	1
DUMP            - BACKTRANSLATOR FOR DUMP COMMAND                22-AUG-1978 05:22:15   VAX-11 MACRO X0.3-11               Page   4
HJ01                                                                                                                             (2)

                                     0000       	.RESTORE
                                     0000    35
                                     0000    36 ;
                                     0000    37 ; LOCAL SYMBOLS
                                     0000    38 ;
                           0000000F  0000    39 	ASCBTS	= 15			;/ASCII SETS ALL 4 BITS
                           00000001  0000    40 	BYTEBTS	= 1			;/BYTE BIT 0
                           00000002  0000    41 	LONGBTS = 2			;/LONG BIT 1
                           00000004  0000    42 	OCTBTS	= 4			;/OCTAL BIT 2
                           00000008  0000    43 	DECBTS	= 8			;/DECIMAL BIT 3
                                     0000    44 ;
                                     0000    45 ; ARGUMENT LIST OFFSET DEFINITIONS
                                     0000    46 ;
                                     0000    47
                                     0000    48 ;
                                     0000    49 ; LOCAL DATA
                                     0000    50 ;
                                     0000    51 	IMPURE
                                 00000000       	.PSECT	IMPURE_	LONG,RD,WRT,NOEXE
                                     0000    52 ;
                                     0000    53 ;
                                     0000    54 ;
                                     0000    55 INPUT_ARGLIST:
                                     0000    56 	$ARGLST	3,-			;CREATE AN ARGUMENT LIST
                                     0000    57 		INPUT_DESC,-		;FOR FIRST INPUT PARAMETER
                                     0000    58 		CLIWORKAREA,-		;WORK AREA FOR CLI
                                     0000    59 		BITMAP			;BIT ARRAY
                           00000003  0000       		.LONG	3
                           00000010' 0004       		.LONG	INPUT_DESC
                           00000000' 0008       		.LONG	CLIWORKAREA
                           00000000' 000C       		.LONG	BITMAP
                                     0010    60
                                     0010    61 INPUT_DESC:
                                     0010    62 	$CLIREQDESC -			;CREATE A CLI REQUEST DESCRIPTOR
                                     0010    63 		RQTYPE=CLI$K_INPUT1	;FOR PRIMARY INPUT
                           0000002C  0010       	.BLKB	CLI$C_REQDESC
                           00000010  002C       	. = $CLI.+CLI$B_RQTYPE
                                 10  0010       	  .BYTE	CLI$K_INPUT1
                           0000002C  0011       	. = $CLI..
                           00000000  002C    64 		RQFLGS=CLI$V_PARMREQ	;MUST BE PRESENT
                                     002C    65
                                     002C    66 OUTPUT_ARGLIST:
                                     002C    67 	$ARGLST	3,-			;CREATE AN ARGUMENT LIST
                                     002C    68 		OUTPUT_DESC,-		;FOR PRIMARY AND ONLY OUTPUT
                                     002C    69 		CLIWORKAREA,-		;WORK AREA FOR CLI
                                     002C    70 		BITMAP			;BIT ARRAY
                           00000003  002C       		.LONG	3
                           0000003C' 0030       		.LONG	OUTPUT_DESC
                           00000000' 0034       		.LONG	CLIWORKAREA
                           00000000' 0038       		.LONG	BITMAP
                                     003C    71
                                     003C    72 OUTPUT_DESC:
                                     003C    73 	$CLIREQDESC -			;CREATE A CLI REQUEST DESCRIPTOR
                                     003C    74 		RQTYPE=CLI$K_OUTPUT1	;FOR PRIMARY OUTPUT
                           00000058  003C       	.BLKB	CLI$C_REQDESC
                           0000003C  0058       	. = $CLI.+CLI$B_RQTYPE
                                 20  003C       	  .BYTE	CLI$K_OUTPUT1
DUMP            - BACKTRANSLATOR FOR DUMP COMMAND                22-AUG-1978 05:22:15   VAX-11 MACRO X0.3-11               Page   5
HJ01                                                                                                                             (2)

                           00000058  003D       	. = $CLI..
                                     0058    75
                                     0058    76
                                     0058    77 QUAL_ARGLIST:
                                     0058    78 	$ARGLST	3,-			;CREATE AN ARGUMENT LIST
                                     0058    79 		QUAL_DESC,-		;FOR COMMAND QUALIFIERS
                                     0058    80 		CLIWORKAREA,-		;WORK AREA FOR CLI
                                     0058    81 		BITMAP			;BIT ARRAY
                           00000003  0058       		.LONG	3
                           00000068' 005C       		.LONG	QUAL_DESC
                           00000000' 0060       		.LONG	CLIWORKAREA
                           00000000' 0064       		.LONG	BITMAP
                                     0068    82
                                     0068    83 QUAL_DESC:
                                     0068    84 	$CLIREQDESC -			;CREATE A CLI REQUEST DESCRIPTOR
                                     0068    85 		RQTYPE=CLI$K_GETQUAL,-	;FOR COMMAND QUALIFIERS
                                     0068    86 		QUALST=QUAL_LIST	;ADDRESS OF THE QUALIFIERS
                           00000084  0068       	.BLKB	CLI$C_REQDESC
                           00000068  0084       	. = $CLI.+CLI$B_RQTYPE
                                 02  0068       	  .BYTE	CLI$K_GETQUAL
                           00000080  0069       	. = $CLI.+CLI$A_QUALST
                           0000001C' 0080       	    .LONG	<QUAL_LIST-$CLI.>
                                     0084    87
                                     0084    88
                                     0084    89 QUAL_LIST:
                                     0084    90 	$CLIQUALDESC -			;DEFINE A QUALIFIER
                                     0084    91 		QDCODE=CLI$K_DUMP_ASCI,-;/ASCII
                                     0084    92 		TRUACT=DUMP_ASCII	;CALL QUALIFIER HANDLER
                           00000098  0084       	.BLKB	CLI$C_QUALDEF
                           00000084  0098       	. = $CLI.+CLI$B_QDBLKSIZ
                                 17' 0084       	  .BYTE	30056$-.
                                 01  0085       	  .BYTE	CLI$K_DUMP_ASCI
                           00000090  0086       	. = $CLI.+CLI$A_TRUACT
                           00000018' 0090       	    .LONG	<DUMP_ASCII-$CLI.>
                           00000098  0094       . = $CLI..
                                 00  0098       	.BYTE	0
                                 00  0099       	.BYTE	0
                                 00  009A       	.BYTE	0
                                     009B       30056$:
                                     009B    93
                                     009B    94 	$CLIQUALDESC -			;DEFINE A QUALIFIER
                                     009B    95 		QDCODE=CLI$K_DUMP_BLOC,-;/BLOCK:(START=N,END=M)
                                     009B    96 		TRUACT=DUMP_BLOCK	;CALL QUALIFIER HANDLER
                           000000AF  009B       	.BLKB	CLI$C_QUALDEF
                           0000009B  00AF       	. = $CLI.+CLI$B_QDBLKSIZ
                                 17' 009B       	  .BYTE	30060$-.
                                 02  009C       	  .BYTE	CLI$K_DUMP_BLOC
                           000000A7  009D       	. = $CLI.+CLI$A_TRUACT
                           00000009' 00A7       	    .LONG	<DUMP_BLOCK-$CLI.>
                           000000AF  00AB       . = $CLI..
                                 00  00AF       	.BYTE	0
                                 00  00B0       	.BYTE	0
                                 00  00B1       	.BYTE	0
                                     00B2       30060$:
                                     00B2    97
                                     00B2    98 	$CLIQUALDESC -			;DEFINE A QUALIFIER
                                     00B2    99 		QDCODE=CLI$K_DUMP_BYTE,-;/BYTE
DUMP            - BACKTRANSLATOR FOR DUMP COMMAND                22-AUG-1978 05:22:15   VAX-11 MACRO X0.3-11               Page   6
HJ01                                                                                                                             (2)

                                     00B2   100 		TRUACT=DUMP_BYTE	;CALL QUALIFIER HANDLER
                           000000C6  00B2       	.BLKB	CLI$C_QUALDEF
                           000000B2  00C6       	. = $CLI.+CLI$B_QDBLKSIZ
                                 17' 00B2       	  .BYTE	30064$-.
                                 03  00B3       	  .BYTE	CLI$K_DUMP_BYTE
                           000000BE  00B4       	. = $CLI.+CLI$A_TRUACT
                           00000016' 00BE       	    .LONG	<DUMP_BYTE-$CLI.>
                           000000C6  00C2       . = $CLI..
                                 00  00C6       	.BYTE	0
                                 00  00C7       	.BYTE	0
                                 00  00C8       	.BYTE	0
                                     00C9       30064$:
                                     00C9   101
                                     00C9   102 	$CLIQUALDESC -			;DEFINE A QUALIFIER
                                     00C9   103 		QDCODE=CLI$K_DUMP_DECI,-;/DECIMAL
                                     00C9   104 		TRUACT=DUMP_DECIMAL	;CALL QUALIFIER HANDLER
                           000000DD  00C9       	.BLKB	CLI$C_QUALDEF
                           000000C9  00DD       	. = $CLI.+CLI$B_QDBLKSIZ
                                 17' 00C9       	  .BYTE	30068$-.
                                 04  00CA       	  .BYTE	CLI$K_DUMP_DECI
                           000000D5  00CB       	. = $CLI.+CLI$A_TRUACT
                           00000007' 00D5       	    .LONG	<DUMP_DECIMAL-$CLI.>
                           000000DD  00D9       . = $CLI..
                                 00  00DD       	.BYTE	0
                                 00  00DE       	.BYTE	0
                                 00  00DF       	.BYTE	0
                                     00E0       30068$:
                                     00E0   105
                                     00E0   106 	$CLIQUALDESC -			;DEFINE A QUALIFIER
                                     00E0   107 		QDCODE=CLI$K_DUMP_HEAD,-;/HEADER
                                     00E0   108 		TRUACT=DUMP_HEADER	;CALL QUALIFIER HANDLER
                           000000F4  00E0       	.BLKB	CLI$C_QUALDEF
                           000000E0  00F4       	. = $CLI.+CLI$B_QDBLKSIZ
                                 17' 00E0       	  .BYTE	30072$-.
                                 05  00E1       	  .BYTE	CLI$K_DUMP_HEAD
                           000000EC  00E2       	. = $CLI.+CLI$A_TRUACT
                           FFFFFFF8' 00EC       	    .LONG	<DUMP_HEADER-$CLI.>
                           000000F4  00F0       . = $CLI..
                                 00  00F4       	.BYTE	0
                                 00  00F5       	.BYTE	0
                                 00  00F6       	.BYTE	0
                                     00F7       30072$:
                                     00F7   109
                                     00F7   110 	$CLIQUALDESC -			;DEFINE A QUALIFIER
                                     00F7   111 		QDCODE=CLI$K_DUMP_HEXA	;/HEXADECIMAL
                           0000010B  00F7       	.BLKB	CLI$C_QUALDEF
                           000000F7  010B       	. = $CLI.+CLI$B_QDBLKSIZ
                                 17' 00F7       	  .BYTE	30076$-.
                                 06  00F8       	  .BYTE	CLI$K_DUMP_HEXA
                           0000010B  00F9       . = $CLI..
                                 00  010B       	.BYTE	0
                                 00  010C       	.BYTE	0
                                 00  010D       	.BYTE	0
                                     010E       30076$:
                                     010E   112
                                     010E   113 	$CLIQUALDESC -			;DEFINE A QUALIFIER
                                     010E   114 		QDCODE=CLI$K_DUMP_LONG,-;/LONG
DUMP            - BACKTRANSLATOR FOR DUMP COMMAND                22-AUG-1978 05:22:15   VAX-11 MACRO X0.3-11               Page   7
HJ01                                                                                                                             (2)

                                     010E   115 		TRUACT=DUMP_LONG	;CALL QUALIFIER HANDLER
                           00000122  010E       	.BLKB	CLI$C_QUALDEF
                           0000010E  0122       	. = $CLI.+CLI$B_QDBLKSIZ
                                 17' 010E       	  .BYTE	30080$-.
                                 07  010F       	  .BYTE	CLI$K_DUMP_LONG
                           0000011A  0110       	. = $CLI.+CLI$A_TRUACT
                           FFFFFFD5' 011A       	    .LONG	<DUMP_LONG-$CLI.>
                           00000122  011E       . = $CLI..
                                 00  0122       	.BYTE	0
                                 00  0123       	.BYTE	0
                                 00  0124       	.BYTE	0
                                     0125       30080$:
                                     0125   116
                                     0125   117 	$CLIQUALDESC -			;DEFINE A QUALIFIER
                                     0125   118 		QDCODE=CLI$K_DUMP_NUMB,-;/NUMBER
                                     0125   119 		TRUACT=DUMP_NUMBER	;CALL QUALIFIER HANDLER
                           00000139  0125       	.BLKB	CLI$C_QUALDEF
                           00000125  0139       	. = $CLI.+CLI$B_QDBLKSIZ
                                 17' 0125       	  .BYTE	30084$-.
                                 08  0126       	  .BYTE	CLI$K_DUMP_NUMB
                           00000131  0127       	. = $CLI.+CLI$A_TRUACT
                           FFFFFFC6' 0131       	    .LONG	<DUMP_NUMBER-$CLI.>
                           00000139  0135       . = $CLI..
                                 00  0139       	.BYTE	0
                                 00  013A       	.BYTE	0
                                 00  013B       	.BYTE	0
                                     013C       30084$:
                                     013C   120
                                     013C   121 	$CLIQUALDESC -			;DEFINE A QUALIFIER
                                     013C   122 		QDCODE=CLI$K_DUMP_OCTA,-;/OCTAL
                                     013C   123 		TRUACT=DUMP_OCTAL	;CALL QUALIFIER HANDLER
                           00000150  013C       	.BLKB	CLI$C_QUALDEF
                           0000013C  0150       	. = $CLI.+CLI$B_QDBLKSIZ
                                 17' 013C       	  .BYTE	30088$-.
                                 09  013D       	  .BYTE	CLI$K_DUMP_OCTA
                           00000148  013E       	. = $CLI.+CLI$A_TRUACT
                           FFFFFFBA' 0148       	    .LONG	<DUMP_OCTAL-$CLI.>
                           00000150  014C       . = $CLI..
                                 00  0150       	.BYTE	0
                                 00  0151       	.BYTE	0
                                 00  0152       	.BYTE	0
                                     0153       30088$:
                                     0153   124
                                     0153   125 	$CLIQUALDESC -			;DEFINE A QUALIFIER
                                     0153   126 		QDCODE=CLI$K_DUMP_PRIN,-;/PRINTER
                                     0153   127 		TRUACT=DUMP_PRINTER,-	;CALL QUALIFIER HANDLER
                                     0153   128 		SETLST=1		;FLAG QUALIFIER AS HAVING OCCURED
                           00000167  0153       	.BLKB	CLI$C_QUALDEF
                           00000153  0167       	. = $CLI.+CLI$B_QDBLKSIZ
                                 18' 0153       	  .BYTE	30092$-.
                                 0B  0154       	  .BYTE	CLI$K_DUMP_PRIN
                           0000015F  0155       	. = $CLI.+CLI$A_TRUACT
                           FFFFFFAB' 015F       	    .LONG	<DUMP_PRINTER-$CLI.>
                           00000167  0163       . = $CLI..
                                 00  0167       	.BYTE	0
                                 01' 0168       	.BYTE	30094$-.-1
                                 01  0169       	.BYTE	1
DUMP            - BACKTRANSLATOR FOR DUMP COMMAND                22-AUG-1978 05:22:15   VAX-11 MACRO X0.3-11               Page   8
HJ01                                                                                                                             (2)

                                     016A       30094$:
                                 00  016A       	.BYTE	0
                                     016B       30092$:
                                     016B   129
                                     016B   130 	$CLIQUALDESC -			;DEFINE A QUALIFIER
                                     016B   131 		QDCODE=CLI$K_DUMP_RECO,-;/RECORDS
                                     016B   132 		TRUACT=DUMP_RECORDS	;CALL QUALIFIER HANDLER
                           0000017F  016B       	.BLKB	CLI$C_QUALDEF
                           0000016B  017F       	. = $CLI.+CLI$B_QDBLKSIZ
                                 17' 016B       	  .BYTE	30096$-.
                                 0C  016C       	  .BYTE	CLI$K_DUMP_RECO
                           00000177  016D       	. = $CLI.+CLI$A_TRUACT
                           FFFFFF9F' 0177       	    .LONG	<DUMP_RECORDS-$CLI.>
                           0000017F  017B       . = $CLI..
                                 00  017F       	.BYTE	0
                                 00  0180       	.BYTE	0
                                 00  0181       	.BYTE	0
                                     0182       30096$:
                                     0182   133
                                     0182   134 	$CLIQUALDESC -			;DEFINE A QUALIFIER
                                     0182   135 		QDCODE=CLI$K_DUMP_TERM  ;/TERMINAL
                           00000196  0182       	.BLKB	CLI$C_QUALDEF
                           00000182  0196       	. = $CLI.+CLI$B_QDBLKSIZ
                                 17' 0182       	  .BYTE	30100$-.
                                 0D  0183       	  .BYTE	CLI$K_DUMP_TERM
                           00000196  0184       . = $CLI..
                                 00  0196       	.BYTE	0
                                 00  0197       	.BYTE	0
                                 00  0198       	.BYTE	0
                                     0199       30100$:
                                     0199   136
                                     0199   137 	$CLIQUALDESC -			;DEFINE A QUALIFIER
                                     0199   138 		QDCODE=CLI$K_DUMP_WORD	;/WORD
                           000001AD  0199       	.BLKB	CLI$C_QUALDEF
                           00000199  01AD       	. = $CLI.+CLI$B_QDBLKSIZ
                                 17' 0199       	  .BYTE	30104$-.
                                 0E  019A       	  .BYTE	CLI$K_DUMP_WORD
                           000001AD  019B       . = $CLI..
                                 00  01AD       	.BYTE	0
                                 00  01AE       	.BYTE	0
                                 00  01AF       	.BYTE	0
                                     01B0       30104$:
                                     01B0   139
                                     01B0   140
                                     01B0   141 	$CLIQUALDESC	END_LIST	;TERMINATE THE QUALIFIER LIST
                                 00  01B0       	.BYTE	0
                                     01B1   142
                                     01B1   143
                                 00  01B1   144 MODTYP:	.BYTE	0			;BYTE TO CONTAIN MODE AND TYPE FLAGS
                                     01B2   145 					;BITS 0,1 BYTE,WORD,LONG INDICATOR
                                     01B2   146 					;BITS 2,3 OCTAL,DECIMAL,HEX INDICATOR
                                     01B2   147
                                     01B2   148 	PURE
                                 00000000       	.PSECT	PURE_	BYTE,RD,EXE,NOWRT
                                     0000   149 OSTRNGS:
                           44 57 2F  0000   150 	.ASCII	'/WD'
                           58 48 2F  0003   151 	.ASCII	'/HX'
DUMP            - BACKTRANSLATOR FOR DUMP COMMAND                22-AUG-1978 05:22:15   VAX-11 MACRO X0.3-11               Page   9
HJ01                                                                                                                             (2)

                           57 4C 2F  0006   152 	.ASCII	'/LW'
                           5A 5A 2F  0009   153 	.ASCII	'/ZZ'
                           20 20 20  000C   154 	.ASCII	'   '
                           59 42 2F  000F   155 	.ASCII	'/BY'
                           5A 5A 2F  0012   156 	.ASCII	'/ZZ'
                           5A 5A 2F  0015   157 	.ASCII	'/ZZ'
                           43 44 2F  0018   158 	.ASCII	'/DC'
                           5A 5A 2F  001B   159 	.ASCII	'/ZZ'
                           5A 5A 2F  001E   160 	.ASCII	'/ZZ'
                           5A 5A 2F  0021   161 	.ASCII	'/ZZ'
                           5A 5A 2F  0024   162 	.ASCII	'/ZZ'
                           5A 5A 2F  0027   163 	.ASCII	'/ZZ'
                           5A 5A 2F  002A   164 	.ASCII	'/ZZ'
                           53 41 2F  002D   165 	.ASCII	'/AS'
DUMP            - BACKTRANSLATOR FOR DUMP COMMAND                22-AUG-1978 05:22:15   VAX-11 MACRO X0.3-11               Page  10
HJ01                                                                                                                             (3)

                                     0030   167 ;	.SBTTL DUMP
                                     0030   168 ;+
                                     0030   169 ; BACKTRANSLATOR DUMP
                                     0030   170 ;
                                     0030   171 ; CONVERTS DCL COMMAND TO COMPATIBILITY MODE IMAGE COMMAND
                                     0030   172 ;
                                     0030   173 ;
                                     0030   174 ; INPUTS:
                                     0030   175 ;  THE INPUTS ARE RETURNED FROM THE DCL RESULT PARSER AS RESPONSES
                                     0030   176 ;  TO THE VARIOUS REQUEST DESCRIPTORS THAT ARE GIVEN TO IT.
                                     0030   177 ;
                                     0030   178 ;
                                     0030   179 ; OUTPUTS:
                                     0030   180 ;  THE OUTPUT CONSISTS OF TWO STRINGS OR AN ERROR MESSAGE AND ABORT.
                                     0030   181 ;  THE CALLER OPENS THE IMAGE AND INVOKES THE COMPATIBILITY EMULATOR
                                     0030   182 ;  IF NO ERROR OCCURS.
                                     0030   183 ;
                                     0030   184 ;  1- FILENAME STRING OF COMPATIBILITY MODE IMAGE TO BE ACTIVATED.
                                     0030   185 ;
                                     0030   186 ;  2- COMMAND LINE TO BE GIVEN TO THE IMAGE.
                                     0030   187 ;
                                     0030   188 ;-
                                     0030   189
                                     0030   190 	PURE
                                 00000030       	.PSECT	PURE_	BYTE,RD,EXE,NOWRT
                                     0030   191
                                     0030   192 DUMP::
                                 FA  0030   193 	CALLG	W^OUTPUT_ARGLIST,-	;PROCESS PRIMARY OUTPUT (/OUTPUT:SPEC)
         08 BC       002C'CF         0031   194 		@CLI$A_UTILSERV(AP)
            59       0044'CF     7D  0036   195 	MOVQ	W^CLI$Q_RQDESC+OUTPUT_DESC,R9 ;PICK UP STRING DESCRIPTOR
                          FFC2'  30  003B   196 	BSBW	INSERTARG		;SAVE IT AS PRIMARY OUTPUT
       0000'CF         F6 8F     90  003E   197 	MOVB	#PRIM_INPUT,W^HOLDLOC	;CAUSE OPTIONS TO GO AT END OF INPUT
                                 FA  0044   198 	CALLG	W^QUAL_ARGLIST,-	;PROCESS COMMAND QUALIFIER OPTIONS
         08 BC       0058'CF         0045   199 		@CLI$A_UTILSERV(AP)
       0000'CF         F6 8F     90  004A   200 	MOVB	#PRIM_INPUT,W^PARAMLOC	;SET UP ACCEPT INPUT
                                 FA  0050   201 	CALLG	W^INPUT_ARGLIST,-	;PROCESS THE PRIMARY INPUT
         08 BC       0000'CF         0051   202 		@CLI$A_UTILSERV(AP)
            59       0018'CF     7D  0056   203 	MOVQ	W^CLI$Q_RQDESC+INPUT_DESC,R9 ;PICK UP STRING DESCRIPTOR
                          FFA2'  30  005B   204 	BSBW	INSERTARG		;SAVE IT AS PRIMARY INPUT
            5A       01B1'CF     9A  005E   205 	MOVZBL	W^MODTYP,R10		;GET MODE AND TYPE OF DUMP
            5A            03     C4  0063   206 	MULL	#3,R10			;GET OFFSET INTO TABLE
            5A         96 AF4A   9E  0066   207 	MOVAB	OSTRNGS[R10],R10	;GET ADDRESS OF OPTION TEXT TO GEN
            59            03     9A  006B   208 	MOVZBL	#3,R9			;SET LENGTH
       0000'CF         F6 8F     90  006E   209 	MOVB	#PRIM_INPUT,W^LOCATION	;PUT THIS TEXT AT THE END OF THE INPUT
                          FF89'  30  0074   210 	BSBW	INSERTSTR		;SET THE OPTION TEXT
                     0044'CF     B5  0077   211 	TSTW	W^CLI$W_RQSIZE+OUTPUT_DESC ;WAS A /OUTPUT QUALIFIER GIVEN?
                          10     12  007B   212 	BNEQ	10$			;BRANCH IF /OUTPUT GIVEN
       0000'CF            01     E0  007D   213 	BBS	#1,W^BITMAP,10$		;BRANCH IF /PRINTER GIVEN
                          0A         0082
                                     0083   214 	$SETSTRING	<TI:>,POS=PRIM_OUTPUT,- ;GENERATE OUTPUT TO TERMINAL
                                     0083   215 			TYPE=INLINE
                          FF7A'  30  0083       	BSBW	SETSTRING
                                 05  0086       	.BYTE	$$$FLAGS
                                 00  0087       	.BYTE	0
                                 00  0088       	.BYTE	PRIM_OUTPUT
                                 03  0089       	.BYTE	$$CNT
                           3A 49 54  008A       	.ASCII	\TI:\
DUMP            - BACKTRANSLATOR FOR DUMP COMMAND                22-AUG-1978 05:22:15   VAX-11 MACRO X0.3-11               Page  11
HJ01                                                                                                                             (3)

                                     008D   216 10$:	$SETSTRING	</-SP>,POS=PRIM_OUTPUT,-;SUPPRESS AUTOMATIC SPOOLING
                                     008D   217 			TYPE=INLINE
                          FF70'  30  008D       	BSBW	SETSTRING
                                 05  0090       	.BYTE	$$$FLAGS
                                 00  0091       	.BYTE	0
                                 00  0092       	.BYTE	PRIM_OUTPUT
                                 04  0093       	.BYTE	$$CNT
                        50 53 2D 2F  0094       	.ASCII	\/-SP\
                                     0098   218 	DEFPROG	DMP			;RETURN DEFAULT PROGRAM TO RUN
            50            07     D0  0098       	MOVL	#PROG_DMP,R0
                                 05  009B   219 	RSB				;RETURN TO GENERATE COMMAND TEXT
                                     009C   220
                                     009C   221
                                     009C   222
                                     009C   223 DUMP_ASCII:
                                     009C   224 	$INLINE
                               0FFC  009C       	.WORD	SAVE_REG_MASK
       01B1'CF            0F     88  009E   225 	BISB	#ASCBTS,W^MODTYP	;FLAG /ASCII OPTION
                                 04  00A3   226 	RET
                                     00A4   227
                                     00A4   228 DUMP_BLOCK:
                                     00A4   229 	$SETSTRING	</BL>,FLAGS=<BTR$M_RETURN> ;GENERATE /BL:N:M OPTION
                               0FFC  00A4       	.WORD	SAVE_REG_MASK
                          FF57'  30  00A6       	BSBW	SETSTRING
                                 01  00A9       	.BYTE	$$$FLAGS
                                 00  00AA       	.BYTE	0
                                 03  00AB       	.BYTE	$$CNT
                           4C 42 2F  00AC       	.ASCII	\/BL\
                                     00AF   230 10$:	$GETKEYWORD	LIST=<-		;HANDLE KEYWORD LIST ON /BLOCKS
                                     00AF   231 				START,-
                                     00AF   232 				END>
                          FF4E'  30  00AF       	BSBW	GETKEYWORD
                                 0B' 00B2       	.BYTE	30109$-30110$
                                     00B3       30110$:
                                 05' 00B3       	.BYTE	$$CNT
                     54 52 41 54 53  00B4       	.ASCII	\START\
                                 03' 00B9       	.BYTE	$$CNT
                           44 4E 45  00BA       	.ASCII	\END\
                                 00  00BD       	.BYTE	0
                                     00BE       30109$:
                          FF3F'  30  00BE   233 	BSBW	ORDERSUBVAL		;PUT THE NUMERIC PART INTO THE LIST
            EB            50     E8  00C1   234 	BLBS	R0,10$			;BRANCH TO CONTINUE VALUE SCANNING
            56            02     D0  00C4   235 	MOVL	#2,R6			;SET THE NUMBER OF VALUES TO PROCESS
                                 05  00C7   236 	RSB				;CO-ROUTINE RETURN TO GENERATE TEXT
                                     00C8   237
                                     00C8   238 DUMP_BYTE:
                                     00C8   239 	$INLINE
                               0FFC  00C8       	.WORD	SAVE_REG_MASK
       01B1'CF            01     88  00CA   240 	BISB	#BYTEBTS,W^MODTYP	;FLAG /BYTE OPTION
                                 04  00CF   241 	RET
                                     00D0   242
                                     00D0   243 DUMP_DECIMAL:
                                     00D0   244 	$INLINE
                               0FFC  00D0       	.WORD	SAVE_REG_MASK
       01B1'CF            08     88  00D2   245 	BISB	#DECBTS,W^MODTYP	;FLAG /DECIMAL OPTION
                                 04  00D7   246 	RET
                                     00D8   247
DUMP            - BACKTRANSLATOR FOR DUMP COMMAND                22-AUG-1978 05:22:15   VAX-11 MACRO X0.3-11               Page  12
HJ01                                                                                                                             (3)

                                     00D8   248 DUMP_HEADER:
                                     00D8   249 	$SETSTRING	</HD>		;SET /HD OPTION
                               0FFC  00D8       	.WORD	SAVE_REG_MASK
                          FF23'  30  00DA       	BSBW	SETSTRING
                                 00  00DD       	.BYTE	$$$FLAGS
                                 00  00DE       	.BYTE	0
                                 03  00DF       	.BYTE	$$CNT
                           44 48 2F  00E0       	.ASCII	\/HD\
                                     00E3   250
                                     00E3   251 DUMP_LONG:
                                     00E3   252 	$INLINE
                               0FFC  00E3       	.WORD	SAVE_REG_MASK
       01B1'CF            02     88  00E5   253 	BISB	#LONGBTS,W^MODTYP	;FLAG /LONG OPTION
                                 04  00EA   254 	RET
                                     00EB   255
                                     00EB   256 DUMP_NUMBER:
                                     00EB   257 	$GETDECNUM	</MD>		;SET /MEMORY DUMP OPTION
                               0FFC  00EB       	.WORD	SAVE_REG_MASK
                          FF10'  30  00ED       	BSBW	GETSTRING
                                 80  00F0       	.BYTE	$$$FLAGS
                                 00  00F1       	.BYTE	0
                                 03  00F2       	.BYTE	$$CNT
                           44 4D 2F  00F3       	.ASCII	\/MD\
                                     00F6   258
                                     00F6   259 DUMP_OCTAL:
                                     00F6   260 	$INLINE
                               0FFC  00F6       	.WORD	SAVE_REG_MASK
       01B1'CF            04     88  00F8   261 	BISB	#OCTBTS,W^MODTYP	;FLAG /OCTAL OPTION
                                 04  00FD   262 	RET
                                     00FE   263
                                     00FE   264 DUMP_PRINTER:
                                     00FE   265 	$SETSTRING	<LP:>,POS=PRIM_OUTPUT ;GENERATE OUTPUT TO LINEPRINTER
                               0FFC  00FE       	.WORD	SAVE_REG_MASK
                          FEFD'  30  0100       	BSBW	SETSTRING
                                 04  0103       	.BYTE	$$$FLAGS
                                 00  0104       	.BYTE	0
                                 00  0105       	.BYTE	PRIM_OUTPUT
                                 03  0106       	.BYTE	$$CNT
                           3A 50 4C  0107       	.ASCII	\LP:\
                                     010A   266
                                     010A   267 DUMP_RECORDS:
                                     010A   268 	$SETSTRING	</RC>		;SET /RC OPTION
                               0FFC  010A       	.WORD	SAVE_REG_MASK
                          FEF1'  30  010C       	BSBW	SETSTRING
                                 00  010F       	.BYTE	$$$FLAGS
                                 00  0110       	.BYTE	0
                                 03  0111       	.BYTE	$$CNT
                           43 52 2F  0112       	.ASCII	\/RC\
                                     0115   269
                                     0115   270
                                     0115   271 	.END
DUMP            - BACKTRANSLATOR FOR DUMP COMMAND                22-AUG-1978 05:22:15   VAX-11 MACRO X0.3-11               Page  13
SYMBOL TABLE                                                                                                                     (3)

$$$            = 00000004            CLI$B_QDSTAT     00000003            CLI$L_RQVALU     0000000C
$$$FLAGS       = 00000000            CLI$B_RQFLGS     00000002            CLI$L_USRVAL     00000014
$$$GBL         = 00000000            CLI$B_RQINDX     00000001            CLI$L_WORKAREA   00000000
$$CNT          = 00000003            CLI$B_RQSTAT     00000003            CLI$M_ABSADR   = 00000002
$$T1           = 00000003            CLI$B_RQTYPE     00000000            CLI$M_ALLOCCUR = 00000001
$CLI.          = 00000199 R     03   CLI$C_QDBITS     00000014            CLI$M_BATCH    = 00000008
$CLI..         = 000001B0 R     03   CLI$C_QUALDEF    00000014            CLI$M_CONCATINP= 00000002
$QUALNUM$      = 0000000F            CLI$C_REQDESC    0000001C            CLI$M_DBGEXCP  = 00010000
ASCBTS         = 0000000F            CLI$C_WORKAREA   00000080            CLI$M_DBGTRU   = 00000002
BIT...         = 00000008            CLI$K_ASCIIVAL = 00000041            CLI$M_DEBUG    = 00000001
BITMAP           ********   X   03   CLI$K_CLISERV  = 00000005            CLI$M_DUMMY    = 00000002
BTR$M_DECIMAL  = 00000080            CLI$K_DUMP_ASCI= 00000001            CLI$M_EXPNAM   = 00000004
BTR$M_EXPLICIT = 00000020            CLI$K_DUMP_BLOC= 00000002            CLI$M_INDIRECT = 00000010
BTR$M_FORCE    = 00000002            CLI$K_DUMP_BYTE= 00000003            CLI$M_KEYVALU  = 00000002
BTR$M_LIST     = 00000040            CLI$K_DUMP_DECI= 00000004            CLI$M_LASTVAL  = 00000001
BTR$M_MULTKEY  = 00000010            CLI$K_DUMP_HEAD= 00000005            CLI$M_MOREINP  = 00000004
BTR$M_RETURN   = 00000001            CLI$K_DUMP_HEXA= 00000006            CLI$M_MOREVALS = 00000001
BTR$M_TEMPPOS  = 00000004            CLI$K_DUMP_LONG= 00000007            CLI$M_PARMDEF  = 00000008
BTR$M_VALREQ   = 00000008            CLI$K_DUMP_NUMB= 00000008            CLI$M_PARMPRS  = 00000001
BTR$V_DECIMAL  = 00000007            CLI$K_DUMP_OCTA= 00000009            CLI$M_PARMREQ  = 00000001
BTR$V_EXPLICIT = 00000005            CLI$K_DUMP_OUTP= 0000000A            CLI$M_QDEXPA   = 00000004
BTR$V_FORCE    = 00000001            CLI$K_DUMP_PRIN= 0000000B            CLI$M_QDUSRV   = 00000002
BTR$V_LIST     = 00000006            CLI$K_DUMP_RECO= 0000000C            CLI$M_QUALEXP  = 00000002
BTR$V_MULTKEY  = 00000004            CLI$K_DUMP_TERM= 0000000D            CLI$M_QUALTRU  = 00000001
BTR$V_RETURN   = 00000000            CLI$K_DUMP_WORD= 0000000E            CLI$M_TRMVRBLV = 00000300
BTR$V_TEMPPOS  = 00000002            CLI$K_ENDPRM1  = 00000030            CLI$M_VERIFY   = 00000004
BTR$V_VALREQ   = 00000003            CLI$K_ENDPRM2  = 00000031            CLI$M_VFYINP   = 00000020
BTR$_AMBIGKEYW = 00688030            CLI$K_ENDPRM3  = 00000032            CLI$Q_QDVALDESC  00000004
BTR$_ILLEGOPT  = 00688018            CLI$K_ENDPRM4  = 00000033            CLI$Q_RQDESC     00000008
BTR$_IMGFNF    = 00688060            CLI$K_FILSPEC  = 00000044            CLI$S_PRITYP   = 00000004
BTR$_INTFAIL   = 00688048            CLI$K_GETCMD   = 00000001            CLI$S_SUBTYP   = 00000004
BTR$_INVALKEYW = 00688028            CLI$K_GETOPT   = 00000003            CLI$S_TRMVRBLV = 00000002
BTR$_KEYVALOVR = 00688038            CLI$K_GETQUAL  = 00000002            CLI$V_ABSADR   = 00000001
BTR$_MISSNGVAL = 00688008            CLI$K_INITPRS  = 00000000            CLI$V_ALLOCCUR = 00000000
BTR$_NOTIMPLEM = 00688020            CLI$K_INPSPEC  = 00000001            CLI$V_BATCH    = 00000003
BTR$_OPTVALOVR = 00688050            CLI$K_INPUT1   = 00000010            CLI$V_CONCATINP= 00000001
BTR$_STRINGOVR = 00688010            CLI$K_INPUT2   = 00000011            CLI$V_DBGEXCP  = 00000010
BTR$_TOOMANY   = 00688058            CLI$K_INPUT3   = 00000012            CLI$V_DBGTRU   = 00000001
BTR$_UNEXPLIST = 00688040            CLI$K_INPUT4   = 00000013            CLI$V_DEBUG    = 00000000
BTRAN          = 00680000            CLI$K_KEYVAL   = 00000043            CLI$V_DUMMY    = 00000001
BYTEBTS        = 00000001            CLI$K_KEYWORD  = 00000042            CLI$V_EXPNAM   = 00000002
CLI$A_ABSACT     00000014            CLI$K_NUMERVAL = 00000040            CLI$V_INDIRECT = 00000004
CLI$A_ERRACT     00000004            CLI$K_OUTPUT1  = 00000020            CLI$V_KEYVALU  = 00000001
CLI$A_FLSACT     00000010            CLI$K_OUTPUT2  = 00000021            CLI$V_LASTVAL  = 00000000
CLI$A_IMGFILED   00000010            CLI$K_OUTPUT3  = 00000022            CLI$V_MOREINP  = 00000002
CLI$A_IMGHDADR   0000000C            CLI$K_OUTPUT4  = 00000023            CLI$V_MOREVALS = 00000000
CLI$A_PROGXFER   00000004            CLI$K_OUTSPEC  = 00000002            CLI$V_PARMDEF  = 00000003
CLI$A_PRSACT     00000010            CLI$K_PARDONE  = 00000003            CLI$V_PARMPRS  = 00000000
CLI$A_QDVALADR   00000008            CLI$K_QDBITS     00000014            CLI$V_PARMREQ  = 00000000
CLI$A_QUALST     00000018            CLI$K_QUALDEF    00000014            CLI$V_PRITYP   = 00000004
CLI$A_RQADDR     0000000C            CLI$K_REQDESC    0000001C            CLI$V_QDEXPA   = 00000002
CLI$A_TRUACT     0000000C            CLI$K_UTILOPR  = 00000000            CLI$V_QDUSRV   = 00000001
CLI$A_UTILSERV   00000008            CLI$K_VALCONV  = 00000004            CLI$V_QUALEXP  = 00000001
CLI$B_BITNUM     00000001            CLI$K_WORKAREA   00000080            CLI$V_QUALTRU  = 00000000
CLI$B_QDBLKSIZ   00000000            CLI$L_CLIFLAG    00000018            CLI$V_SUBTYP   = 00000000
CLI$B_QDCODE     00000001            CLI$L_INIARGCNT  00000000            CLI$V_TRMVRBLV = 00000008
CLI$B_QDFLGS     00000002            CLI$L_LINKFLAG   00000014            CLI$V_VERIFY   = 00000002
DUMP            - BACKTRANSLATOR FOR DUMP COMMAND                22-AUG-1978 05:22:15   VAX-11 MACRO X0.3-11               Page  14
SYMBOL TABLE                                                                                                                     (3)

CLI$V_VFYINP   = 00000005            PRO_K_LENGTH     00000002            QUA_W_PROMPT     00000009
CLI$W_QDVALSIZ   00000004            PRO_M_CONCAT   = 00000001            QUA_W_QUALIST    00000006
CLI$W_RQSIZE     00000008            PRO_M_IMPCAT   = 00000002            RQFLGS         = 00000000
CLI$W_SERVCOD    00000001            PRO_M_LIST     = 00000004            SAVE_REG_MASK  = 00000FFC
CLIWORKAREA      ********   X   03   PRO_M_OPTION   = 00000008            SETSTRING        ********   X   04
DECBTS         = 00000008            PRO_M_REQ      = 00000010
DUMP             00000030 RG    04   PRO_M_STRING   = 00000020
DUMP_ASCII       0000009C R     04   PRO_V_CONCAT   = 00000000
DUMP_BLOCK       000000A4 R     04   PRO_V_IMPCAT   = 00000001
DUMP_BYTE        000000C8 R     04   PRO_V_LIST     = 00000002
DUMP_DECIMAL     000000D0 R     04   PRO_V_OPTION   = 00000003
DUMP_HEADER      000000D8 R     04   PRO_V_REQ      = 00000004
DUMP_LONG        000000E3 R     04   PRO_V_STRING   = 00000005
DUMP_NUMBER      000000EB R     04   QUAL_ARGLIST     00000058 R     03
DUMP_OCTAL       000000F6 R     04   QUAL_DESC        00000068 R     03
DUMP_PRINTER     000000FE R     04   QUAL_LIST        00000084 R     03
DUMP_RECORDS     0000010A R     04   QUA_B_DEFVAL     00000002
FATAL          = 00000004            QUA_B_IMAGE      00000005
GBL...         = 00000000            QUA_B_INDEX      00000001
GETKEYWORD       ********   X   04   QUA_B_OFFSET     00000000
GETSTRING        ********   X   04   QUA_B_PARMCNT    00000008
HOLDLOC          ********   X   04   QUA_G_CHNGLST    00000006
INPUT_ARGLIST    00000000 R     03   QUA_M_BATDEF   = 00000100
INPUT_DESC       00000010 R     03   QUA_M_CHNGLIST = 00000001
INSERTARG        ********   X   04   QUA_M_DEFTRUE  = 00000080
INSERTSTR        ********   X   04   QUA_M_FILE     = 00000004
LAST_PARAM     = FFFFFFEC            QUA_M_IMAGE    = 00000400
LOCATION         ********   X   04   QUA_M_INTDEF   = 00000200
LONGBTS        = 00000002            QUA_M_KEYVAL   = 00004000
MODTYP           000001B1 R     03   QUA_M_LOCALKEY = 00000002
NONE           = 00000000            QUA_M_NEG      = 00000040
OCTBTS         = 00000004            QUA_M_ONEVAL   = 00002000
ORDERSUBVAL      ********   X   04   QUA_M_OUTPUT   = 00000800
OSTRNGS          00000000 R     04   QUA_M_PARM     = 00000010
OUTPUT_ARGLIST   0000002C R     03   QUA_M_VAL      = 00000020
OUTPUT_DESC      0000003C R     03   QUA_M_VALREQ   = 00001000
PARAMLOC         ********   X   04   QUA_M_VERB     = 00000008
PRIM_INPUT     = FFFFFFF6            QUA_S_MAXPARM  = 00000004
PRIM_OUTPUT    = 00000000            QUA_S_MINPARM  = 00000004
PROG_BP2       = 0000000C            QUA_V_BATDEF   = 00000008
PROG_CBL       = 00000008            QUA_V_CHNGLIST = 00000000
PROG_CNT       = 0000000F            QUA_V_DEFTRUE  = 00000007
PROG_DIF       = 0000000F            QUA_V_FILE     = 00000002
PROG_DMP       = 00000007            QUA_V_IMAGE    = 0000000A
PROG_F4V       = 00000002            QUA_V_INTDEF   = 00000009
PROG_LBR       = 0000000B            QUA_V_KEYVAL   = 0000000E
PROG_LIB       = 0000000A            QUA_V_LOCALKEY = 00000001
PROG_MAC       = 00000004            QUA_V_MAXPARM  = 00000004
PROG_MAR       = 00000003            QUA_V_MINPARM  = 00000000
PROG_PIP       = 00000001            QUA_V_NEG      = 00000006
PROG_SLP       = 00000006            QUA_V_ONEVAL   = 0000000D
PROG_SOS       = 00000005            QUA_V_OUTPUT   = 0000000B
PROG_SRT       = 0000000E            QUA_V_PARM     = 00000004
PROG_TKB       = 00000009            QUA_V_VAL      = 00000005
PROG_UFD       = 0000000D            QUA_V_VALREQ   = 0000000C
PRO_B_FLAGS      00000001            QUA_V_VERB     = 00000003
PRO_B_PROMPT     00000000            QUA_W_FLAGS      00000003
DUMP            - BACKTRANSLATOR FOR DUMP COMMAND                22-AUG-1978 05:22:15   VAX-11 MACRO X0.3-11               Page  15
PROGRAM SECTION SYNOPSIS                                                                                                         (3)


PROGRAM SECTION SYNOPSIS

.  ABS  .        00000000      00     NOPIC   USR   CON   ABS   LCL NOSHR NOEXE NORD  NOWRT BYTE
. BLANK .        00000000      01     NOPIC   USR   CON   REL   LCL NOSHR   EXE   RD    WRT BYTE
$ABS$            00000080      02     NOPIC   USR   CON   ABS   LCL NOSHR   EXE   RD    WRT BYTE
IMPURE_          000001B2      03     NOPIC   USR   CON   REL   LCL NOSHR NOEXE   RD    WRT LONG
PURE_            00000115      04     NOPIC   USR   CON   REL   LCL NOSHR   EXE   RD  NOWRT BYTE


THERE WERE NO ERRORS OR WARNINGS.
12584. BYTES LEFT IN FREE MEMORY POOL.
1556. BYTES OF RECLAIMED MEMORY.
OBJ$:DUMPCMD,LIS$:DUMPCMD/-SP/LI:MEB=EXECML$/ML,LIB$:B/ML,SRC$:DUMPCMD
58 MLB DIR RDS - 631 GETS TO DEFINE 36 MACROS. 127 INTER. FILE WRITES.
