EDIT            - BACKTRANSLATOR FOR EDIT COMMAND                22-AUG-1978 05:22:56   VAX-11 MACRO X0.3-11               Page   1
HJ                                                                                                                               (1)

                                     0000     1 	.TITLE	EDIT - BACKTRANSLATOR FOR EDIT COMMAND
                                     0000     2 	.IDENT	/HJ/
                                     0000     3
                                     0000     4 ;
                                     0000     5 ; COPYRIGHT (C) 1977
                                     0000     6 ; DIGITAL EQUIPMENT CORPORATION, MAYNARD, MASS.
                                     0000     7 ;
                                     0000     8 ; THIS SOFTWARE IS FURNISHED UNDER  A LICENSE FOR USE ONLY  ON  A
                                     0000     9 ; SINGLE COMPUTER SYSTEM AND MAY BE  COPIED ONLY WITH  THE INCLU-
                                     0000    10 ; SION OF  THE  ABOVE  COPYRIGHT NOTICE.  THIS SOFTWARE,  OR  ANY
                                     0000    11 ; OTHER COPIES THEREOF, MAY NOT BE  PROVIDED  OR  OTHERWISE  MADE
                                     0000    12 ; AVAILABLE TO ANY OTHER PERSON EXCEPT  FOR  USE  ON  SUCH SYSTEM
                                     0000    13 ; AND TO  ONE WHO AGREES  TO  THESE LICENSE  TERMS.  TITLE TO AND
                                     0000    14 ; OWNERSHIP OF THE SOFTWARE SHALL AT ALL TIMES REMAIN IN DEC.
                                     0000    15 ;
                                     0000    16 ; THE INFORMATION IN THIS SOFTWARE  IS  SUBJECT TO CHANGE WITHOUT
                                     0000    17 ; NOTICE AND SHOULD NOT BE CONSTRUED  AS  A COMMITMENT BY DIGITAL
                                     0000    18 ; EQUIPMENT CORPORATION.
                                     0000    19 ;
                                     0000    20 ; DEC ASSUMES NO RESPONSIBILITY FOR THE USE OR RELIABILITY OF ITS
                                     0000    21 ; SOFTWARE ON EQUIPMENT WHICH IS NOT SUPPLIED BY DEC.
                                     0000    22 ;
                                     0000    23 ; H.J.	OCTOBER 1977
                                     0000    24 ;
                                     0000    25 ; BACKTRANSLATOR EDIT
                                     0000    26 ;
EDIT            - BACKTRANSLATOR FOR EDIT COMMAND                22-AUG-1978 05:22:56   VAX-11 MACRO X0.3-11               Page   2
HJ                                                                                                                               (2)

                                     0000    28 ;	.SBTTL INITIALIZE DATA DEFINITIONS
                                     0000    29 ;
                                     0000    30 ; MACRO LIBRARY CALLS
                                     0000    31 ;
                                     0000    32 	$BTDEFS				;DEFINE VALUES TO BE USED LOCALLY
                                     0000       	.SAVE
                                 00000000       	.PSECT	$ABS$,ABS
                                     0000       	.RESTORE
                                     0000    33 	$CLIDEF				;DEFINE CLI CODES AND VALUES
                                     0000       	.SAVE
                                 00000000       	.PSECT	$ABS$,ABS
                                     0000       CLI$L_INIARGCNT:
                           00000004  0000        			.BLKL	1
                                     0004       CLI$A_PROGXFER:
                           00000008  0004        			.BLKL	1
                                     0008       CLI$A_UTILSERV:
                           0000000C  0008        			.BLKL	1
                                     000C       CLI$A_IMGHDADR:
                           00000010  000C        			.BLKL	1
                                     0010       CLI$A_IMGFILED:
                           00000014  0010        			.BLKL	1
                                     0014       CLI$L_LINKFLAG:
                           00000018  0014        			.BLKL	1
                                     0018       CLI$L_CLIFLAG:
                           0000001C  0018        			.BLKL	1
                           00000000  001C        	. = 0
                                     0000       CLI$B_RQTYPE:
                           00000001  0000        			.BLKB	1
                                     0001       CLI$W_SERVCOD:
                                     0001       CLI$B_RQINDX:
                                     0001       CLI$B_BITNUM:
                           00000002  0001        			.BLKB	1
                                     0002       CLI$B_RQFLGS:
                           00000003  0002        			.BLKB	1
                                     0003       CLI$B_RQSTAT:
                           00000004  0003        			.BLKB	1
                                     0004       CLI$A_ERRACT:
                           00000008  0004        			.BLKL	1
                                     0008       CLI$Q_RQDESC:
                                     0008       CLI$W_RQSIZE:
                           0000000A  0008        			.BLKW	1
                           0000000C  000A        			.BLKW	1
                                     000C       CLI$L_RQVALU:
                                     000C       CLI$A_RQADDR:
                           00000010  000C        			.BLKL	1
                                     0010       CLI$A_PRSACT:
                           00000014  0010        			.BLKL	1
                                     0014       CLI$A_ABSACT:
                           00000018  0014        			.BLKL	1
                                     0018       CLI$A_QUALST:
                           0000001C  0018        			.BLKL	1
                                     001C       CLI$C_REQDESC:
                                     001C       CLI$K_REQDESC:
                           00000000  001C        	. = 0
                                     0000       CLI$B_QDBLKSIZ:
                           00000001  0000        			.BLKB	1
                                     0001       CLI$B_QDCODE:
EDIT            - BACKTRANSLATOR FOR EDIT COMMAND                22-AUG-1978 05:22:56   VAX-11 MACRO X0.3-11               Page   3
HJ                                                                                                                               (2)

                           00000002  0001        			.BLKB	1
                                     0002       CLI$B_QDFLGS:
                           00000003  0002        			.BLKB	1
                                     0003       CLI$B_QDSTAT:
                           00000004  0003        			.BLKB	1
                                     0004       CLI$Q_QDVALDESC:
                                     0004       CLI$W_QDVALSIZ:
                           00000006  0004        			.BLKW	1
                           00000008  0006        			.BLKW	1
                                     0008       CLI$A_QDVALADR:
                           0000000C  0008        			.BLKL	1
                                     000C       CLI$A_TRUACT:
                           00000010  000C        			.BLKL	1
                                     0010       CLI$A_FLSACT:
                           00000014  0010        			.BLKL	1
                                     0014       CLI$C_QUALDEF:
                                     0014       CLI$K_QUALDEF:
                                     0014       CLI$C_QDBITS:
                                     0014       CLI$K_QDBITS:
                                     0014       CLI$L_USRVAL:
                           00000018  0014        			.BLKL	1
                           00000000  0018        	. = 0
                                     0000       CLI$L_WORKAREA:
                           00000080  0000        			.BLKL	32
                                     0080       CLI$C_WORKAREA:
                                     0080       CLI$K_WORKAREA:
                                     0000       	.RESTORE
                                     0000    34 	$CLIDEFQUALEDIT			;DEFINE QUALIFIER CODES
                                     0000       	.SAVE
                                 00000080       	.PSECT	$ABS$,ABS
                           00000000  0080       	.=0
                                     0000       PRO_B_PROMPT:
                           00000001  0000       	.BLKB	1
                                     0001       PRO_B_FLAGS:
                           00000002  0001       	.BLKB	1
                                     0002       PRO_K_LENGTH:
                                     0000       	.RESTORE
                                     0000       	.SAVE
                                 00000080       	.PSECT	$ABS$,ABS
                           00000000  0080       	.=0
                                     0000       QUA_B_OFFSET:
                           00000001  0000       	.BLKB	1
                                     0001       QUA_B_INDEX:
                           00000002  0001       	.BLKB	1
                                     0002       QUA_B_DEFVAL:
                           00000003  0002       	.BLKB	1
                                     0003       QUA_W_FLAGS:
                           00000005  0003       	.BLKW	1
                                     0005       QUA_B_IMAGE:
                           00000006  0005       	.BLKB	1
                                     0006       QUA_G_CHNGLST:
                                     0006       QUA_W_QUALIST:
                           00000008  0006       	.BLKW	1
                                     0008       QUA_B_PARMCNT:
                           00000009  0008       	.BLKB	1
                                     0009       QUA_W_PROMPT:
                           0000000B  0009       	.BLKW	1
EDIT            - BACKTRANSLATOR FOR EDIT COMMAND                22-AUG-1978 05:22:56   VAX-11 MACRO X0.3-11               Page   4
HJ                                                                                                                               (2)

                                     0000       	.RESTORE
                                     0000    35
                                     0000    36 ;
                                     0000    37 ; LOCAL SYMBOLS
                                     0000    38 ;
                                     0000    39
                                     0000    40 ;
                                     0000    41 ; ARGUMENT LIST OFFSET DEFINITIONS
                                     0000    42 ;
                                     0000    43
                                     0000    44 ;
                                     0000    45 ; LOCAL DATA
                                     0000    46 ;
                                     0000    47 	IMPURE
                                 00000000       	.PSECT	IMPURE_	LONG,RD,WRT,NOEXE
                                     0000    48 ;
                                     0000    49 ;
                                     0000    50 ;
                                     0000    51 INPUT_ARGLIST:
                                     0000    52 	$ARGLST	3,-			;CREATE AN ARGUMENT LIST
                                     0000    53 		INPUT_DESC,-		;FOR FIRST INPUT PARAMETER
                                     0000    54 		CLIWORKAREA,-		;WORK AREA FOR CLI
                                     0000    55 		BITMAP			;BIT ARRAY
                           00000003  0000       		.LONG	3
                           00000010' 0004       		.LONG	INPUT_DESC
                           00000000' 0008       		.LONG	CLIWORKAREA
                           00000000' 000C       		.LONG	BITMAP
                                     0010    56
                                     0010    57 INPUT_DESC:
                                     0010    58 	$CLIREQDESC -			;CREATE A CLI REQUEST DESCRIPTOR
                                     0010    59 		RQTYPE=CLI$K_INPUT1	;FOR PRIMARY INPUT
                           0000002C  0010       	.BLKB	CLI$C_REQDESC
                           00000010  002C       	. = $CLI.+CLI$B_RQTYPE
                                 10  0010       	  .BYTE	CLI$K_INPUT1
                           0000002C  0011       	. = $CLI..
                                     002C    60
                                     002C    61 OUTPUT_ARGLIST:
                                     002C    62 	$ARGLST	3,-			;CREATE AN ARGUMENT LIST
                                     002C    63 		OUTPUT_DESC,-		;FOR PRIMARY OUTPUT
                                     002C    64 		CLIWORKAREA,-		;WORK AREA FOR CLI
                                     002C    65 		BITMAP			;BIT ARRAY
                           00000003  002C       		.LONG	3
                           0000003C' 0030       		.LONG	OUTPUT_DESC
                           00000000' 0034       		.LONG	CLIWORKAREA
                           00000000' 0038       		.LONG	BITMAP
                                     003C    66
                                     003C    67 OUTPUT_DESC:
                                     003C    68 	$CLIREQDESC -			;CREATE A CLI REQUEST DESCRIPTOR
                                     003C    69 		RQTYPE=CLI$K_OUTPUT1	;FOR PRIMARY OUTPUT
                           00000058  003C       	.BLKB	CLI$C_REQDESC
                           0000003C  0058       	. = $CLI.+CLI$B_RQTYPE
                                 20  003C       	  .BYTE	CLI$K_OUTPUT1
                           00000058  003D       	. = $CLI..
                                     0058    70
                                     0058    71 LIST_ARGLIST:
                                     0058    72 	$ARGLST	3,-			;CREATE AN ARGUMENT LIST
                                     0058    73 		LIST_DESC,-		;FOR SECONDARY OUTPUT
EDIT            - BACKTRANSLATOR FOR EDIT COMMAND                22-AUG-1978 05:22:56   VAX-11 MACRO X0.3-11               Page   5
HJ                                                                                                                               (2)

                                     0058    74 		CLIWORKAREA,-		;WORK AREA FOR CLI
                                     0058    75 		BITMAP			;BIT ARRAY
                           00000003  0058       		.LONG	3
                           00000068' 005C       		.LONG	LIST_DESC
                           00000000' 0060       		.LONG	CLIWORKAREA
                           00000000' 0064       		.LONG	BITMAP
                                     0068    76
                                     0068    77 LIST_DESC:
                                     0068    78 	$CLIREQDESC -			;CREATE A CLI REQUEST DESCRIPTOR
                                     0068    79 		RQTYPE=CLI$K_OUTPUT2	;FOR SECONDARY OUTPUT
                           00000084  0068       	.BLKB	CLI$C_REQDESC
                           00000068  0084       	. = $CLI.+CLI$B_RQTYPE
                                 21  0068       	  .BYTE	CLI$K_OUTPUT2
                           00000084  0069       	. = $CLI..
                                     0084    80
                                     0084    81
                                     0084    82 QUAL_ARGLIST:
                                     0084    83 	$ARGLST	3,-			;CREATE AN ARGUMENT LIST
                                     0084    84 		QUAL_DESC,-		;FOR COMMAND QUALIFIERS
                                     0084    85 		CLIWORKAREA,-		;WORK AREA FOR CLI
                                     0084    86 		BITMAP			;BIT ARRAY
                           00000003  0084       		.LONG	3
                           00000094' 0088       		.LONG	QUAL_DESC
                           00000000' 008C       		.LONG	CLIWORKAREA
                           00000000' 0090       		.LONG	BITMAP
                                     0094    87
                                     0094    88 QUAL_DESC:
                                     0094    89 	$CLIREQDESC -			;CREATE A CLI REQUEST DESCRIPTOR
                                     0094    90 		RQTYPE=CLI$K_GETQUAL,-	;FOR COMMAND QUALIFIERS
                                     0094    91 		QUALST=QUAL_LIST	;ADDRESS OF THE QUALIFIERS
                           000000B0  0094       	.BLKB	CLI$C_REQDESC
                           00000094  00B0       	. = $CLI.+CLI$B_RQTYPE
                                 02  0094       	  .BYTE	CLI$K_GETQUAL
                           000000AC  0095       	. = $CLI.+CLI$A_QUALST
                           0000001C' 00AC       	    .LONG	<QUAL_LIST-$CLI.>
                                     00B0    92
                                     00B0    93
                                     00B0    94 QUAL_LIST:
                                     00B0    95 	$CLIQUALDESC -			;DEFINE A QUALIFIER
                                     00B0    96 		QDCODE=CLI$K_EDIT_AUDI,-;/AUDIT:(POSITION=N,SIZE=M)
                                     00B0    97 		TRUACT=EDIT_AUDIT,-	;CALL QUALIFIER HANDLER
                                     00B0    98 		FLSACT=EDIT_NOAUDIT	;CALL FALSE QUALIFIER HANDLER
                           000000C4  00B0       	.BLKB	CLI$C_QUALDEF
                           000000B0  00C4       	. = $CLI.+CLI$B_QDBLKSIZ
                                 17' 00B0       	  .BYTE	30076$-.
                                 01  00B1       	  .BYTE	CLI$K_EDIT_AUDI
                           000000BC  00B2       	. = $CLI.+CLI$A_TRUACT
                           FFFFFFC0' 00BC       	    .LONG	<EDIT_AUDIT-$CLI.>
                           FFFFFFE8' 00C0       	    .LONG	<EDIT_NOAUDIT-$CLI.>
                                 00  00C4       	.BYTE	0
                                 00  00C5       	.BYTE	0
                                 00  00C6       	.BYTE	0
                                     00C7       30076$:
                                     00C7    99
                                     00C7   100 	$CLIQUALDESC -			;DEFINE A QUALIFIER
                                     00C7   101 		QDCODE=CLI$K_EDIT_DECI,-;/DECIDE
                                     00C7   102 		TRUACT=EDIT_DECIDE	;CALL QUALIFIER HANDLER
EDIT            - BACKTRANSLATOR FOR EDIT COMMAND                22-AUG-1978 05:22:56   VAX-11 MACRO X0.3-11               Page   6
HJ                                                                                                                               (2)

                           000000DB  00C7       	.BLKB	CLI$C_QUALDEF
                           000000C7  00DB       	. = $CLI.+CLI$B_QDBLKSIZ
                                 17' 00C7       	  .BYTE	30080$-.
                                 02  00C8       	  .BYTE	CLI$K_EDIT_DECI
                           000000D3  00C9       	. = $CLI.+CLI$A_TRUACT
                           FFFFFFDD' 00D3       	    .LONG	<EDIT_DECIDE-$CLI.>
                           000000DB  00D7       . = $CLI..
                                 00  00DB       	.BYTE	0
                                 00  00DC       	.BYTE	0
                                 00  00DD       	.BYTE	0
                                     00DE       30080$:
                                     00DE   103
                                     00DE   104 	$CLIQUALDESC -			;DEFINE A QUALIFIER
                                     00DE   105 		QDCODE=CLI$K_EDIT_EXAC,-;/EXACT
                                     00DE   106 		TRUACT=EDIT_EXACT	;CALL QUALIFIER HANDLER
                           000000F2  00DE       	.BLKB	CLI$C_QUALDEF
                           000000DE  00F2       	. = $CLI.+CLI$B_QDBLKSIZ
                                 17' 00DE       	  .BYTE	30084$-.
                                 03  00DF       	  .BYTE	CLI$K_EDIT_EXAC
                           000000EA  00E0       	. = $CLI.+CLI$A_TRUACT
                           FFFFFFD2' 00EA       	    .LONG	<EDIT_EXACT-$CLI.>
                           000000F2  00EE       . = $CLI..
                                 00  00F2       	.BYTE	0
                                 00  00F3       	.BYTE	0
                                 00  00F4       	.BYTE	0
                                     00F5       30084$:
                                     00F5   107
                                     00F5   108 	$CLIQUALDESC -			;DEFINE A QUALIFIER
                                     00F5   109 		QDCODE=CLI$K_EDIT_EXPE,-;/EXPERT
                                     00F5   110 		TRUACT=EDIT_EXPERT	;CALL QUALIFIER HANDLER
                           00000109  00F5       	.BLKB	CLI$C_QUALDEF
                           000000F5  0109       	. = $CLI.+CLI$B_QDBLKSIZ
                                 17' 00F5       	  .BYTE	30088$-.
                                 04  00F6       	  .BYTE	CLI$K_EDIT_EXPE
                           00000101  00F7       	. = $CLI.+CLI$A_TRUACT
                           FFFFFFC7' 0101       	    .LONG	<EDIT_EXPERT-$CLI.>
                           00000109  0105       . = $CLI..
                                 00  0109       	.BYTE	0
                                 00  010A       	.BYTE	0
                                 00  010B       	.BYTE	0
                                     010C       30088$:
                                     010C   111
                                     010C   112 	$CLIQUALDESC -			;DEFINE A QUALIFIER
                                     010C   113 		QDCODE=CLI$K_EDIT_INCR,-;/INCREMENT:N
                                     010C   114 		TRUACT=EDIT_INCREMENT	;CALL QUALIFIER HANDLER
                           00000120  010C       	.BLKB	CLI$C_QUALDEF
                           0000010C  0120       	. = $CLI.+CLI$B_QDBLKSIZ
                                 17' 010C       	  .BYTE	30092$-.
                                 05  010D       	  .BYTE	CLI$K_EDIT_INCR
                           00000118  010E       	. = $CLI.+CLI$A_TRUACT
                           FFFFFFBC' 0118       	    .LONG	<EDIT_INCREMENT-$CLI.>
                           00000120  011C       . = $CLI..
                                 00  0120       	.BYTE	0
                                 00  0121       	.BYTE	0
                                 00  0122       	.BYTE	0
                                     0123       30092$:
                                     0123   115
EDIT            - BACKTRANSLATOR FOR EDIT COMMAND                22-AUG-1978 05:22:56   VAX-11 MACRO X0.3-11               Page   7
HJ                                                                                                                               (2)

                                     0123   116 	$CLIQUALDESC -			;DEFINE A QUALIFIER
                                     0123   117 		QDCODE=CLI$K_EDIT_ISAV,-;/ISAVE:N
                                     0123   118 		TRUACT=EDIT_ISAVE	;CALL QUALIFIER HANDLER
                           00000137  0123       	.BLKB	CLI$C_QUALDEF
                           00000123  0137       	. = $CLI.+CLI$B_QDBLKSIZ
                                 17' 0123       	  .BYTE	30096$-.
                                 06  0124       	  .BYTE	CLI$K_EDIT_ISAV
                           0000012F  0125       	. = $CLI.+CLI$A_TRUACT
                           FFFFFFB1' 012F       	    .LONG	<EDIT_ISAVE-$CLI.>
                           00000137  0133       . = $CLI..
                                 00  0137       	.BYTE	0
                                 00  0138       	.BYTE	0
                                 00  0139       	.BYTE	0
                                     013A       30096$:
                                     013A   119
                                     013A   120 	$CLIQUALDESC -			;DEFINE A QUALIFIER
                                     013A   121 		QDCODE=CLI$K_EDIT_LINE,-;/[NO]LINE
                                     013A   122 		FLSACT=EDIT_NOLINE	;CALL QUALIFIER HANDLER
                           0000014E  013A       	.BLKB	CLI$C_QUALDEF
                           0000013A  014E       	. = $CLI.+CLI$B_QDBLKSIZ
                                 17' 013A       	  .BYTE	30100$-.
                                 07  013B       	  .BYTE	CLI$K_EDIT_LINE
                           0000014A  013C       	. = $CLI.+CLI$A_FLSACT
                           FFFFFFA6' 014A       	    .LONG	<EDIT_NOLINE-$CLI.>
                                 00  014E       	.BYTE	0
                                 00  014F       	.BYTE	0
                                 00  0150       	.BYTE	0
                                     0151       30100$:
                                     0151   123
                                     0151   124 	$CLIQUALDESC -			;DEFINE A QUALIFIER
                                     0151   125 		QDCODE=CLI$K_EDIT_LOWE,-;/[NO]LOWER
                                     0151   126 		FLSACT=EDIT_NOLOWER	;CALL QUALIFIER HANDLER
                           00000165  0151       	.BLKB	CLI$C_QUALDEF
                           00000151  0165       	. = $CLI.+CLI$B_QDBLKSIZ
                                 17' 0151       	  .BYTE	30104$-.
                                 09  0152       	  .BYTE	CLI$K_EDIT_LOWE
                           00000161  0153       	. = $CLI.+CLI$A_FLSACT
                           FFFFFF9D' 0161       	    .LONG	<EDIT_NOLOWER-$CLI.>
                                 00  0165       	.BYTE	0
                                 00  0166       	.BYTE	0
                                 00  0167       	.BYTE	0
                                     0168       30104$:
                                     0168   127
                                     0168   128 	$CLIQUALDESC -			;DEFINE A QUALIFIER
                                     0168   129 		QDCODE=CLI$K_EDIT_PLIN,-;/PLINES:N
                                     0168   130 		TRUACT=EDIT_PLINES	;CALL QUALIFIER HANDLER
                           0000017C  0168       	.BLKB	CLI$C_QUALDEF
                           00000168  017C       	. = $CLI.+CLI$B_QDBLKSIZ
                                 17' 0168       	  .BYTE	30108$-.
                                 0B  0169       	  .BYTE	CLI$K_EDIT_PLIN
                           00000174  016A       	. = $CLI.+CLI$A_TRUACT
                           FFFFFF94' 0174       	    .LONG	<EDIT_PLINES-$CLI.>
                           0000017C  0178       . = $CLI..
                                 00  017C       	.BYTE	0
                                 00  017D       	.BYTE	0
                                 00  017E       	.BYTE	0
                                     017F       30108$:
EDIT            - BACKTRANSLATOR FOR EDIT COMMAND                22-AUG-1978 05:22:56   VAX-11 MACRO X0.3-11               Page   8
HJ                                                                                                                               (2)

                                     017F   131
                                     017F   132 	$CLIQUALDESC -			;DEFINE A QUALIFIER
                                     017F   133 		QDCODE=CLI$K_EDIT_READ,-;/READ_ONLY
                                     017F   134 		TRUACT=EDIT_READONLY	;CALL QUALIFIER HANDLER
                           00000193  017F       	.BLKB	CLI$C_QUALDEF
                           0000017F  0193       	. = $CLI.+CLI$B_QDBLKSIZ
                                 17' 017F       	  .BYTE	30112$-.
                                 0C  0180       	  .BYTE	CLI$K_EDIT_READ
                           0000018B  0181       	. = $CLI.+CLI$A_TRUACT
                           FFFFFF89' 018B       	    .LONG	<EDIT_READONLY-$CLI.>
                           00000193  018F       . = $CLI..
                                 00  0193       	.BYTE	0
                                 00  0194       	.BYTE	0
                                 00  0195       	.BYTE	0
                                     0196       30112$:
                                     0196   135
                                     0196   136 	$CLIQUALDESC -			;DEFINE A QUALIFIER
                                     0196   137 		QDCODE=CLI$K_EDIT_SAVE,-;/SAVE:N
                                     0196   138 		TRUACT=EDIT_SAVE	;CALL QUALIFIER HANDLER
                           000001AA  0196       	.BLKB	CLI$C_QUALDEF
                           00000196  01AA       	. = $CLI.+CLI$B_QDBLKSIZ
                                 17' 0196       	  .BYTE	30116$-.
                                 0D  0197       	  .BYTE	CLI$K_EDIT_SAVE
                           000001A2  0198       	. = $CLI.+CLI$A_TRUACT
                           FFFFFF7E' 01A2       	    .LONG	<EDIT_SAVE-$CLI.>
                           000001AA  01A6       . = $CLI..
                                 00  01AA       	.BYTE	0
                                 00  01AB       	.BYTE	0
                                 00  01AC       	.BYTE	0
                                     01AD       30116$:
                                     01AD   139
                                     01AD   140 	$CLIQUALDESC -			;DEFINE A QUALIFIER
                                     01AD   141 		QDCODE=CLI$K_EDIT_SLP,- ;/SLP
                                     01AD   142 		TRUACT=EDIT_SLP		;CALL QUALIFIER HANDLER
                           000001C1  01AD       	.BLKB	CLI$C_QUALDEF
                           000001AD  01C1       	. = $CLI.+CLI$B_QDBLKSIZ
                                 17' 01AD       	  .BYTE	30120$-.
                                 0E  01AE       	  .BYTE	CLI$K_EDIT_SLP
                           000001B9  01AF       	. = $CLI.+CLI$A_TRUACT
                           FFFFFF73' 01B9       	    .LONG	<EDIT_SLP-$CLI.>
                           000001C1  01BD       . = $CLI..
                                 00  01C1       	.BYTE	0
                                 00  01C2       	.BYTE	0
                                 00  01C3       	.BYTE	0
                                     01C4       30120$:
                                     01C4   143
                                     01C4   144 	$CLIQUALDESC -			;DEFINE A QUALIFIER
                                     01C4   145 		QDCODE=CLI$K_EDIT_SOS,- ;/SOS
                                     01C4   146 		TRUACT=EDIT_SOS		;CALL QUALIFIER HANDLER
                           000001D8  01C4       	.BLKB	CLI$C_QUALDEF
                           000001C4  01D8       	. = $CLI.+CLI$B_QDBLKSIZ
                                 17' 01C4       	  .BYTE	30124$-.
                                 0F  01C5       	  .BYTE	CLI$K_EDIT_SOS
                           000001D0  01C6       	. = $CLI.+CLI$A_TRUACT
                           FFFFFF64' 01D0       	    .LONG	<EDIT_SOS-$CLI.>
                           000001D8  01D4       . = $CLI..
                                 00  01D8       	.BYTE	0
EDIT            - BACKTRANSLATOR FOR EDIT COMMAND                22-AUG-1978 05:22:56   VAX-11 MACRO X0.3-11               Page   9
HJ                                                                                                                               (2)

                                 00  01D9       	.BYTE	0
                                 00  01DA       	.BYTE	0
                                     01DB       30124$:
                                     01DB   147
                                     01DB   148 	$CLIQUALDESC -			;DEFINE A QUALIFIER
                                     01DB   149 		QDCODE=CLI$K_EDIT_STAR,-;/START:N
                                     01DB   150 		TRUACT=EDIT_START	;CALL QUALIFIER HANDLER
                           000001EF  01DB       	.BLKB	CLI$C_QUALDEF
                           000001DB  01EF       	. = $CLI.+CLI$B_QDBLKSIZ
                                 17' 01DB       	  .BYTE	30128$-.
                                 10  01DC       	  .BYTE	CLI$K_EDIT_STAR
                           000001E7  01DD       	. = $CLI.+CLI$A_TRUACT
                           FFFFFF55' 01E7       	    .LONG	<EDIT_START-$CLI.>
                           000001EF  01EB       . = $CLI..
                                 00  01EF       	.BYTE	0
                                 00  01F0       	.BYTE	0
                                 00  01F1       	.BYTE	0
                                     01F2       30128$:
                                     01F2   151
                                     01F2   152 	$CLIQUALDESC -			;DEFINE A QUALIFIER
                                     01F2   153 		QDCODE=CLI$K_EDIT_STEP,-;/STEP:N
                                     01F2   154 		TRUACT=EDIT_STEP	;CALL QUALIFIER HANDLER
                           00000206  01F2       	.BLKB	CLI$C_QUALDEF
                           000001F2  0206       	. = $CLI.+CLI$B_QDBLKSIZ
                                 17' 01F2       	  .BYTE	30132$-.
                                 11  01F3       	  .BYTE	CLI$K_EDIT_STEP
                           000001FE  01F4       	. = $CLI.+CLI$A_TRUACT
                           FFFFFF4A' 01FE       	    .LONG	<EDIT_STEP-$CLI.>
                           00000206  0202       . = $CLI..
                                 00  0206       	.BYTE	0
                                 00  0207       	.BYTE	0
                                 00  0208       	.BYTE	0
                                     0209       30132$:
                                     0209   155
                                     0209   156 	$CLIQUALDESC -			;DEFINE A QUALIFIER
                                     0209   157 		QDCODE=CLI$K_EDIT_TAB_,-;/[NO]TAB_FILL
                                     0209   158 		TRUACT=EDIT_TAB_FILL	;CALL QUALIFIER HANDLER
                           0000021D  0209       	.BLKB	CLI$C_QUALDEF
                           00000209  021D       	. = $CLI.+CLI$B_QDBLKSIZ
                                 17' 0209       	  .BYTE	30136$-.
                                 13  020A       	  .BYTE	CLI$K_EDIT_TAB_
                           00000215  020B       	. = $CLI.+CLI$A_TRUACT
                           FFFFFF3F' 0215       	    .LONG	<EDIT_TAB_FILL-$CLI.>
                           0000021D  0219       . = $CLI..
                                 00  021D       	.BYTE	0
                                 00  021E       	.BYTE	0
                                 00  021F       	.BYTE	0
                                     0220       30136$:
                                     0220   159
                                     0220   160 	$CLIQUALDESC -			;DEFINE A QUALIFIER
                                     0220   161 		QDCODE=CLI$K_EDIT_TRUN,-;/TRUNCATE:N
                                     0220   162 		TRUACT=EDIT_TRUNCATE	;CALL QUALIFIER HANDLER
                           00000234  0220       	.BLKB	CLI$C_QUALDEF
                           00000220  0234       	. = $CLI.+CLI$B_QDBLKSIZ
                                 17' 0220       	  .BYTE	30140$-.
                                 12  0221       	  .BYTE	CLI$K_EDIT_TRUN
                           0000022C  0222       	. = $CLI.+CLI$A_TRUACT
EDIT            - BACKTRANSLATOR FOR EDIT COMMAND                22-AUG-1978 05:22:56   VAX-11 MACRO X0.3-11               Page  10
HJ                                                                                                                               (2)

                           FFFFFF35' 022C       	    .LONG	<EDIT_TRUNCATE-$CLI.>
                           00000234  0230       . = $CLI..
                                 00  0234       	.BYTE	0
                                 00  0235       	.BYTE	0
                                 00  0236       	.BYTE	0
                                     0237       30140$:
                                     0237   163
                                     0237   164
                                     0237   165 	$CLIQUALDESC	END_LIST	;TERMINATE THE QUALIFIER LIST
                                 00  0237       	.BYTE	0
EDIT            - BACKTRANSLATOR FOR EDIT COMMAND                22-AUG-1978 05:22:56   VAX-11 MACRO X0.3-11               Page  11
HJ                                                                                                                               (3)

                                     0238   167 ;	.SBTTL EDIT
                                     0238   168 ;+
                                     0238   169 ; BACKTRANSLATOR EDIT
                                     0238   170 ;
                                     0238   171 ; CONVERTS DCL COMMAND TO COMPATIBILITY MODE IMAGE COMMAND
                                     0238   172 ;
                                     0238   173 ;
                                     0238   174 ; INPUTS:
                                     0238   175 ;  THE INPUTS ARE RETURNED FROM THE DCL RESULT PARSER AS RESPONSES
                                     0238   176 ;  TO THE VARIOUS REQUEST DESCRIPTORS THAT ARE GIVEN TO IT.
                                     0238   177 ;
                                     0238   178 ;
                                     0238   179 ; OUTPUTS:
                                     0238   180 ;  THE OUTPUT CONSISTS OF TWO STRINGS OR AN ERROR MESSAGE AND ABORT.
                                     0238   181 ;  THE CALLER OPENS THE IMAGE AND INVOKES THE COMPATIBILITY EMULATOR
                                     0238   182 ;  IF NO ERROR OCCURS.
                                     0238   183 ;
                                     0238   184 ;  1- FILENAME STRING OF COMPATIBILITY MODE IMAGE TO BE ACTIVATED.
                                     0238   185 ;
                                     0238   186 ;  2- COMMAND LINE TO BE GIVEN TO THE IMAGE.
                                     0238   187 ;
                                     0238   188 ;-
                                     0238   189
                                     0238   190 	PURE
                                 00000000       	.PSECT	PURE_	BYTE,RD,EXE,NOWRT
                                     0000   191
                                     0000   192 EDIT::
                                 FA  0000   193 	CALLG	W^QUAL_ARGLIST,-	;PROCESS COMMAND QUALIFIER OPTIONS
         08 BC       0084'CF         0001   194 		@CLI$A_UTILSERV(AP)
                                 FA  0006   195 	CALLG	W^OUTPUT_ARGLIST,-	;PROCESS PRIMARY OUTPUT (/OUTPUT:SPEC)
         08 BC       002C'CF         0007   196 		@CLI$A_UTILSERV(AP)
                                 FA  000C   197 	CALLG	W^INPUT_ARGLIST,-	;PROCESS THE PRIMARY INPUT
         08 BC       0000'CF         000D   198 		@CLI$A_UTILSERV(AP)
       0000'CF            06     91  0012   199 	CMPB	#PROG_SLP,W^PROGINDEX	;ARE WE GOING TO INVOKE SLP?
                          39     12  0017   200 	BNEQ	20$			;BRANCH IF SOS
       0000'CF         F6 8F     90  0019   201 	MOVB	#PRIM_INPUT,W^PARAMLOC	;SET UP TO START ACCEPTING INPUTS
            59       0018'CF     7D  001F   202 	MOVQ	W^CLI$Q_RQDESC+INPUT_DESC,R9 ;PICK UP STRING DESCRIPTOR
                          FFD9'  30  0024   203 	BSBW	INSERTARG		;SAVE IT AS PRIMARY INPUT
                     0000'CF     94  0027   204 	CLRB	W^PARAMLOC		;GET PRIMARY OUTPUT AS OUTPUT
            59       0018'CF     7D  002B   205 	MOVQ	W^CLI$Q_RQDESC+INPUT_DESC,R9 ;SET UP TO DEFAULT OUTPUT TO INPUT
                     0044'CF     B5  0030   206 	TSTW	W^CLI$W_RQSIZE+OUTPUT_DESC ;WAS AN EXPLICIT OUTPUT GIVEN?
                          05     13  0034   207 	BEQL	10$			;BRANCH IF NOT TO DEFAULT IT
            59       0044'CF     7D  0036   208 	MOVQ	W^CLI$Q_RQDESC+OUTPUT_DESC,R9 ;PICK UP STRING DESCRIPTOR
                          FFC2'  30  003B   209 10$:	BSBW	INSERTARG		;SAVE IT AS PRIMARY OUTPUT
                     0000'CF     97  003E   210 	DECB	W^PARAMLOC		;SET UP TO TAKE LIST FILE SPEC AS
                                     0042   211 					;SECONDARY OUTPUT
                                 FA  0042   212 	CALLG	W^LIST_ARGLIST,-	;PROCESS SECONDARY OUTPUT (/LIST:SPEC)
         08 BC       0058'CF         0043   213 		@CLI$A_UTILSERV(AP)
            59       0070'CF     7D  0048   214 	MOVQ	W^CLI$Q_RQDESC+LIST_DESC,R9 ;PICK UP STRING DESCRIPTOR
                          FFB0'  30  004D   215 	BSBW	INSERTARG		;SAVE I AS SECONDARY OUTPUT
                          1A     11  0050   216 	BRB	40$			;BRANCH TO EXIT
            59       0044'CF     7D  0052   217 20$:	MOVQ	W^CLI$Q_RQDESC+OUTPUT_DESC,R9 ;PICK UP STRING DESCRIPTOR
                          59     B5  0057   218 	TSTW	R9			;WAS AN EXPLICIT OUTPUT GIVEN?
                          09     13  0059   219 	BEQL	30$			;BRANCH IF NO EXPLICIT OUTPUT
                          FFA2'  30  005B   220 	BSBW	INSERTARG		;SAVE IT AS PRIMARY OUTPUT
       0000'CF         F6 8F     90  005E   221 	MOVB	#PRIM_INPUT,W^PARAMLOC	;SET UP TO START ACCEPTING INPUTS
            59       0018'CF     7D  0064   222 30$:	MOVQ	W^CLI$Q_RQDESC+INPUT_DESC,R9 ;PICK UP STRING DESCRIPTOR
EDIT            - BACKTRANSLATOR FOR EDIT COMMAND                22-AUG-1978 05:22:56   VAX-11 MACRO X0.3-11               Page  12
HJ                                                                                                                               (3)

                          FF94'  30  0069   223 	BSBW	INSERTARG		;SAVE IT AS PRIMARY INPUT
                                     006C   224 40$:	DEFPROG	SOS			;RETURN DEFAULT PROGRAM TO RUN
            50            05     D0  006C       	MOVL	#PROG_SOS,R0
                                 05  006F   225 	RSB				;RETURN TO GENERATE COMMAND TEXT
                                     0070   226
                                     0070   227
                                     0070   228
                                     0070   229 EDIT_AUDIT:
                                     0070   230 	$SETSTRING	</AU>,SLP,FLAGS=<BTR$M_RETURN> ;SET /AUDIT OPTION
                               0FFC  0070       	.WORD	SAVE_REG_MASK
                          FF8B'  30  0072       	BSBW	SETSTRING
                                 01  0075       	.BYTE	$$$FLAGS
                                 06  0076       	.BYTE	PROG_SLP
                                 03  0077       	.BYTE	$$CNT
                           55 41 2F  0078       	.ASCII	\/AU\
                                     007B   231 10$:	$GETKEYWORD	LIST=<-		;HANDLE KEYWORD LIST ON /AUDIT_TRAIL
                                     007B   232 				POSITION,-
                                     007B   233 				SIZE>
                          FF82'  30  007B       	BSBW	GETKEYWORD
                                 0F' 007E       	.BYTE	30145$-30146$
                                     007F       30146$:
                                 08' 007F       	.BYTE	$$CNT
            4E 4F 49 54 49 53 4F 50  0080       	.ASCII	\POSITION\
                                 04' 0088       	.BYTE	$$CNT
                        45 5A 49 53  0089       	.ASCII	\SIZE\
                                 00  008D       	.BYTE	0
                                     008E       30145$:
                          FF6F'  30  008E   234 	BSBW	ORDERSUBVAL		;PUT THE NUMERIC PART INTO THE LIST
            E7            50     E8  0091   235 	BLBS	R0,10$			;BRANCH TO CONTINUE VALUE SCANNING
            56            02     D0  0094   236 	MOVL	#2,R6			;SET THE NUMBER OF VALUES TO PROCESS
                                 05  0097   237 	RSB				;CO-ROUTINE RETURN TO GENERATE TEXT
                                     0098   238
                                     0098   239 EDIT_NOAUDIT:
                                     0098   240 	$SETSTRING	</-AU>,SLP,FLAGS=<BTR$M_EXPLICIT> ;GENERATE NO TRAIL
                               0FFC  0098       	.WORD	SAVE_REG_MASK
                          FF63'  30  009A       	BSBW	SETSTRING
                                 20  009D       	.BYTE	$$$FLAGS
                                 06  009E       	.BYTE	PROG_SLP
                                 04  009F       	.BYTE	$$CNT
                        55 41 2D 2F  00A0       	.ASCII	\/-AU\
                                     00A4   241
                                     00A4   242 EDIT_DECIDE:
                                     00A4   243 	$SETSTRING	</DEC>,SOS	;GENERATE /DECIDE OPTION
                               0FFC  00A4       	.WORD	SAVE_REG_MASK
                          FF57'  30  00A6       	BSBW	SETSTRING
                                 00  00A9       	.BYTE	$$$FLAGS
                                 05  00AA       	.BYTE	PROG_SOS
                                 04  00AB       	.BYTE	$$CNT
                        43 45 44 2F  00AC       	.ASCII	\/DEC\
                                     00B0   244
                                     00B0   245 EDIT_EXACT:
                                     00B0   246 	$SETSTRING	</EXA>,SOS	;GENERATE /EXACT OPTION
                               0FFC  00B0       	.WORD	SAVE_REG_MASK
                          FF4B'  30  00B2       	BSBW	SETSTRING
                                 00  00B5       	.BYTE	$$$FLAGS
                                 05  00B6       	.BYTE	PROG_SOS
                                 04  00B7       	.BYTE	$$CNT
EDIT            - BACKTRANSLATOR FOR EDIT COMMAND                22-AUG-1978 05:22:56   VAX-11 MACRO X0.3-11               Page  13
HJ                                                                                                                               (3)

                        41 58 45 2F  00B8       	.ASCII	\/EXA\
                                     00BC   247
                                     00BC   248 EDIT_EXPERT:
                                     00BC   249 	$SETSTRING	</EXP>,SOS	;GENERATE /EXPERT OPTION
                               0FFC  00BC       	.WORD	SAVE_REG_MASK
                          FF3F'  30  00BE       	BSBW	SETSTRING
                                 00  00C1       	.BYTE	$$$FLAGS
                                 05  00C2       	.BYTE	PROG_SOS
                                 04  00C3       	.BYTE	$$CNT
                        50 58 45 2F  00C4       	.ASCII	\/EXP\
                                     00C8   250
                                     00C8   251 EDIT_INCREMENT:
                                     00C8   252 	$GETDECNUM	</INC>,SOS	;GET THE INCREMENT
                               0FFC  00C8       	.WORD	SAVE_REG_MASK
                          FF33'  30  00CA       	BSBW	GETSTRING
                                 80  00CD       	.BYTE	$$$FLAGS
                                 05  00CE       	.BYTE	PROG_SOS
                                 04  00CF       	.BYTE	$$CNT
                        43 4E 49 2F  00D0       	.ASCII	\/INC\
                                     00D4   253
                                     00D4   254 EDIT_ISAVE:
                                     00D4   255 	$GETDECNUM	</ISA>,SOS	;GET THE ISAVE NUMBER
                               0FFC  00D4       	.WORD	SAVE_REG_MASK
                          FF27'  30  00D6       	BSBW	GETSTRING
                                 80  00D9       	.BYTE	$$$FLAGS
                                 05  00DA       	.BYTE	PROG_SOS
                                 04  00DB       	.BYTE	$$CNT
                        41 53 49 2F  00DC       	.ASCII	\/ISA\
                                     00E0   256
                                     00E0   257 EDIT_NOLINE:
                                     00E0   258 	$SETSTRING	</NOLIN>,SOS,FLAGS=<BTR$M_EXPLICIT> ;TURN OFF AUTOMATIC
                               0FFC  00E0       	.WORD	SAVE_REG_MASK
                          FF1B'  30  00E2       	BSBW	SETSTRING
                                 20  00E5       	.BYTE	$$$FLAGS
                                 05  00E6       	.BYTE	PROG_SOS
                                 06  00E7       	.BYTE	$$CNT
                  4E 49 4C 4F 4E 2F  00E8       	.ASCII	\/NOLIN\
                                     00EE   259 					;LINE NUMBERING
                                     00EE   260
                                     00EE   261 EDIT_NOLOWER:
                                     00EE   262 	$SETSTRING	</NOLOW>,SOS,FLAGS=<BTR$M_EXPLICIT> ;TURN OFF LOWER
                               0FFC  00EE       	.WORD	SAVE_REG_MASK
                          FF0D'  30  00F0       	BSBW	SETSTRING
                                 20  00F3       	.BYTE	$$$FLAGS
                                 05  00F4       	.BYTE	PROG_SOS
                                 06  00F5       	.BYTE	$$CNT
                  57 4F 4C 4F 4E 2F  00F6       	.ASCII	\/NOLOW\
                                     00FC   263 					;CASE INPUT
                                     00FC   264
                                     00FC   265 EDIT_PLINES:
                                     00FC   266 	$GETDECNUM	</PLI>,SOS	;ACCEPT NEW /PLINES NUMBER
                               0FFC  00FC       	.WORD	SAVE_REG_MASK
                          FEFF'  30  00FE       	BSBW	GETSTRING
                                 80  0101       	.BYTE	$$$FLAGS
                                 05  0102       	.BYTE	PROG_SOS
                                 04  0103       	.BYTE	$$CNT
                        49 4C 50 2F  0104       	.ASCII	\/PLI\
EDIT            - BACKTRANSLATOR FOR EDIT COMMAND                22-AUG-1978 05:22:56   VAX-11 MACRO X0.3-11               Page  14
HJ                                                                                                                               (3)

                                     0108   267
                                     0108   268 EDIT_READONLY:
                                     0108   269 	$SETSTRING	</REA>,SOS	;SET UP /READ_ONLY OPTION
                               0FFC  0108       	.WORD	SAVE_REG_MASK
                          FEF3'  30  010A       	BSBW	SETSTRING
                                 00  010D       	.BYTE	$$$FLAGS
                                 05  010E       	.BYTE	PROG_SOS
                                 04  010F       	.BYTE	$$CNT
                        41 45 52 2F  0110       	.ASCII	\/REA\
                                     0114   270
                                     0114   271 EDIT_SAVE:
                                     0114   272 	$GETDECNUM	</SAV>,SOS	;ACCEPT AN AUTOMATIC SAVE VALUE
                               0FFC  0114       	.WORD	SAVE_REG_MASK
                          FEE7'  30  0116       	BSBW	GETSTRING
                                 80  0119       	.BYTE	$$$FLAGS
                                 05  011A       	.BYTE	PROG_SOS
                                 04  011B       	.BYTE	$$CNT
                        56 41 53 2F  011C       	.ASCII	\/SAV\
                                     0120   273
                                     0120   274 EDIT_SLP:
                                     0120   275 	$SETSTRING	<>,SLP,FLAGS=<BTR$M_FORCE> ;SELECT SLP AS EDITOR
                               0FFC  0120       	.WORD	SAVE_REG_MASK
                          FEDB'  30  0122       	BSBW	SETSTRING
                                 02  0125       	.BYTE	$$$FLAGS
                                 06  0126       	.BYTE	PROG_SLP
                                 00  0127       	.BYTE	$$CNT
                                     0128   276
                                     0128   277 EDIT_SOS:
                                     0128   278 	$SETSTRING	<>,SOS,FLAGS=<BTR$M_FORCE> ;SELECT SOS AS EDITOR
                               0FFC  0128       	.WORD	SAVE_REG_MASK
                          FED3'  30  012A       	BSBW	SETSTRING
                                 02  012D       	.BYTE	$$$FLAGS
                                 05  012E       	.BYTE	PROG_SOS
                                 00  012F       	.BYTE	$$CNT
                                     0130   279
                                     0130   280 EDIT_START:
                                     0130   281 	$GETDECNUM	</STA>,SOS	;ACCEPT /START:LINENUMBER OPTION
                               0FFC  0130       	.WORD	SAVE_REG_MASK
                          FECB'  30  0132       	BSBW	GETSTRING
                                 80  0135       	.BYTE	$$$FLAGS
                                 05  0136       	.BYTE	PROG_SOS
                                 04  0137       	.BYTE	$$CNT
                        41 54 53 2F  0138       	.ASCII	\/STA\
                                     013C   282
                                     013C   283 EDIT_STEP:
                                     013C   284 	$GETDECNUM	</STE>,SOS	;ACCEPT /STEP:NUMBER OPTION
                               0FFC  013C       	.WORD	SAVE_REG_MASK
                          FEBF'  30  013E       	BSBW	GETSTRING
                                 80  0141       	.BYTE	$$$FLAGS
                                 05  0142       	.BYTE	PROG_SOS
                                 04  0143       	.BYTE	$$CNT
                        45 54 53 2F  0144       	.ASCII	\/STE\
                                     0148   285
                                     0148   286 EDIT_TAB_FILL:
                                     0148   287 	$SETSTRING	</NOBF>,SLP	;SET TO GENERATE TAB FILL
                               0FFC  0148       	.WORD	SAVE_REG_MASK
                          FEB3'  30  014A       	BSBW	SETSTRING
EDIT            - BACKTRANSLATOR FOR EDIT COMMAND                22-AUG-1978 05:22:56   VAX-11 MACRO X0.3-11               Page  15
HJ                                                                                                                               (3)

                                 00  014D       	.BYTE	$$$FLAGS
                                 06  014E       	.BYTE	PROG_SLP
                                 05  014F       	.BYTE	$$CNT
                     46 42 4F 4E 2F  0150       	.ASCII	\/NOBF\
                                     0155   288
                                     0155   289 EDIT_TRUNCATE:
                                     0155   290 	$GETDECNUM	</CM>,SLP	;SET TO CAUSE LINE TRUNCATION
                               0FFC  0155       	.WORD	SAVE_REG_MASK
                          FEA6'  30  0157       	BSBW	GETSTRING
                                 80  015A       	.BYTE	$$$FLAGS
                                 06  015B       	.BYTE	PROG_SLP
                                 03  015C       	.BYTE	$$CNT
                           4D 43 2F  015D       	.ASCII	\/CM\
                                     0160   291
                                     0160   292
                                     0160   293 	.END
EDIT            - BACKTRANSLATOR FOR EDIT COMMAND                22-AUG-1978 05:22:56   VAX-11 MACRO X0.3-11               Page  16
SYMBOL TABLE                                                                                                                     (3)

$$$            = 00000004            CLI$B_RQINDX     00000001            CLI$L_CLIFLAG    00000018
$$$FLAGS       = 00000080            CLI$B_RQSTAT     00000003            CLI$L_INIARGCNT  00000000
$$$GBL         = 00000000            CLI$B_RQTYPE     00000000            CLI$L_LINKFLAG   00000014
$$CNT          = 00000003            CLI$C_QDBITS     00000014            CLI$L_RQVALU     0000000C
$$T1           = 00000003            CLI$C_QUALDEF    00000014            CLI$L_USRVAL     00000014
$CLI.          = 00000220 R     03   CLI$C_REQDESC    0000001C            CLI$L_WORKAREA   00000000
$CLI..         = 00000237 R     03   CLI$C_WORKAREA   00000080            CLI$M_ABSADR   = 00000002
$QUALNUM$      = 00000014            CLI$K_ASCIIVAL = 00000041            CLI$M_ALLOCCUR = 00000001
BIT...         = 00000008            CLI$K_CLISERV  = 00000005            CLI$M_BATCH    = 00000008
BITMAP           ********   X   03   CLI$K_EDIT_AUDI= 00000001            CLI$M_CONCATINP= 00000002
BTR$M_DECIMAL  = 00000080            CLI$K_EDIT_DECI= 00000002            CLI$M_DBGEXCP  = 00010000
BTR$M_EXPLICIT = 00000020            CLI$K_EDIT_EXAC= 00000003            CLI$M_DBGTRU   = 00000002
BTR$M_FORCE    = 00000002            CLI$K_EDIT_EXPE= 00000004            CLI$M_DEBUG    = 00000001
BTR$M_LIST     = 00000040            CLI$K_EDIT_INCR= 00000005            CLI$M_DUMMY    = 00000002
BTR$M_MULTKEY  = 00000010            CLI$K_EDIT_ISAV= 00000006            CLI$M_EXPNAM   = 00000004
BTR$M_RETURN   = 00000001            CLI$K_EDIT_LINE= 00000007            CLI$M_INDIRECT = 00000010
BTR$M_TEMPPOS  = 00000004            CLI$K_EDIT_LIST= 00000008            CLI$M_KEYVALU  = 00000002
BTR$M_VALREQ   = 00000008            CLI$K_EDIT_LOWE= 00000009            CLI$M_LASTVAL  = 00000001
BTR$V_DECIMAL  = 00000007            CLI$K_EDIT_OUTP= 0000000A            CLI$M_MOREINP  = 00000004
BTR$V_EXPLICIT = 00000005            CLI$K_EDIT_PLIN= 0000000B            CLI$M_MOREVALS = 00000001
BTR$V_FORCE    = 00000001            CLI$K_EDIT_READ= 0000000C            CLI$M_PARMDEF  = 00000008
BTR$V_LIST     = 00000006            CLI$K_EDIT_SAVE= 0000000D            CLI$M_PARMPRS  = 00000001
BTR$V_MULTKEY  = 00000004            CLI$K_EDIT_SLP = 0000000E            CLI$M_PARMREQ  = 00000001
BTR$V_RETURN   = 00000000            CLI$K_EDIT_SOS = 0000000F            CLI$M_QDEXPA   = 00000004
BTR$V_TEMPPOS  = 00000002            CLI$K_EDIT_STAR= 00000010            CLI$M_QDUSRV   = 00000002
BTR$V_VALREQ   = 00000003            CLI$K_EDIT_STEP= 00000011            CLI$M_QUALEXP  = 00000002
BTR$_AMBIGKEYW = 00688030            CLI$K_EDIT_TAB_= 00000013            CLI$M_QUALTRU  = 00000001
BTR$_ILLEGOPT  = 00688018            CLI$K_EDIT_TRUN= 00000012            CLI$M_TRMVRBLV = 00000300
BTR$_IMGFNF    = 00688060            CLI$K_ENDPRM1  = 00000030            CLI$M_VERIFY   = 00000004
BTR$_INTFAIL   = 00688048            CLI$K_ENDPRM2  = 00000031            CLI$M_VFYINP   = 00000020
BTR$_INVALKEYW = 00688028            CLI$K_ENDPRM3  = 00000032            CLI$Q_QDVALDESC  00000004
BTR$_KEYVALOVR = 00688038            CLI$K_ENDPRM4  = 00000033            CLI$Q_RQDESC     00000008
BTR$_MISSNGVAL = 00688008            CLI$K_FILSPEC  = 00000044            CLI$S_PRITYP   = 00000004
BTR$_NOTIMPLEM = 00688020            CLI$K_GETCMD   = 00000001            CLI$S_SUBTYP   = 00000004
BTR$_OPTVALOVR = 00688050            CLI$K_GETOPT   = 00000003            CLI$S_TRMVRBLV = 00000002
BTR$_STRINGOVR = 00688010            CLI$K_GETQUAL  = 00000002            CLI$V_ABSADR   = 00000001
BTR$_TOOMANY   = 00688058            CLI$K_INITPRS  = 00000000            CLI$V_ALLOCCUR = 00000000
BTR$_UNEXPLIST = 00688040            CLI$K_INPSPEC  = 00000001            CLI$V_BATCH    = 00000003
BTRAN          = 00680000            CLI$K_INPUT1   = 00000010            CLI$V_CONCATINP= 00000001
CLI$A_ABSACT     00000014            CLI$K_INPUT2   = 00000011            CLI$V_DBGEXCP  = 00000010
CLI$A_ERRACT     00000004            CLI$K_INPUT3   = 00000012            CLI$V_DBGTRU   = 00000001
CLI$A_FLSACT     00000010            CLI$K_INPUT4   = 00000013            CLI$V_DEBUG    = 00000000
CLI$A_IMGFILED   00000010            CLI$K_KEYVAL   = 00000043            CLI$V_DUMMY    = 00000001
CLI$A_IMGHDADR   0000000C            CLI$K_KEYWORD  = 00000042            CLI$V_EXPNAM   = 00000002
CLI$A_PROGXFER   00000004            CLI$K_NUMERVAL = 00000040            CLI$V_INDIRECT = 00000004
CLI$A_PRSACT     00000010            CLI$K_OUTPUT1  = 00000020            CLI$V_KEYVALU  = 00000001
CLI$A_QDVALADR   00000008            CLI$K_OUTPUT2  = 00000021            CLI$V_LASTVAL  = 00000000
CLI$A_QUALST     00000018            CLI$K_OUTPUT3  = 00000022            CLI$V_MOREINP  = 00000002
CLI$A_RQADDR     0000000C            CLI$K_OUTPUT4  = 00000023            CLI$V_MOREVALS = 00000000
CLI$A_TRUACT     0000000C            CLI$K_OUTSPEC  = 00000002            CLI$V_PARMDEF  = 00000003
CLI$A_UTILSERV   00000008            CLI$K_PARDONE  = 00000003            CLI$V_PARMPRS  = 00000000
CLI$B_BITNUM     00000001            CLI$K_QDBITS     00000014            CLI$V_PARMREQ  = 00000000
CLI$B_QDBLKSIZ   00000000            CLI$K_QUALDEF    00000014            CLI$V_PRITYP   = 00000004
CLI$B_QDCODE     00000001            CLI$K_REQDESC    0000001C            CLI$V_QDEXPA   = 00000002
CLI$B_QDFLGS     00000002            CLI$K_UTILOPR  = 00000000            CLI$V_QDUSRV   = 00000001
CLI$B_QDSTAT     00000003            CLI$K_VALCONV  = 00000004            CLI$V_QUALEXP  = 00000001
CLI$B_RQFLGS     00000002            CLI$K_WORKAREA   00000080            CLI$V_QUALTRU  = 00000000
EDIT            - BACKTRANSLATOR FOR EDIT COMMAND                22-AUG-1978 05:22:56   VAX-11 MACRO X0.3-11               Page  17
SYMBOL TABLE                                                                                                                     (3)

CLI$V_SUBTYP   = 00000000            PROG_SOS       = 00000005            QUA_V_OUTPUT   = 0000000B
CLI$V_TRMVRBLV = 00000008            PROG_SRT       = 0000000E            QUA_V_PARM     = 00000004
CLI$V_VERIFY   = 00000002            PROG_TKB       = 00000009            QUA_V_VAL      = 00000005
CLI$V_VFYINP   = 00000005            PROG_UFD       = 0000000D            QUA_V_VALREQ   = 0000000C
CLI$W_QDVALSIZ   00000004            PRO_B_FLAGS      00000001            QUA_V_VERB     = 00000003
CLI$W_RQSIZE     00000008            PRO_B_PROMPT     00000000            QUA_W_FLAGS      00000003
CLI$W_SERVCOD    00000001            PRO_K_LENGTH     00000002            QUA_W_PROMPT     00000009
CLIWORKAREA      ********   X   03   PRO_M_CONCAT   = 00000001            QUA_W_QUALIST    00000006
EDIT             00000000 RG    04   PRO_M_IMPCAT   = 00000002            SAVE_REG_MASK  = 00000FFC
EDIT_AUDIT       00000070 R     04   PRO_M_LIST     = 00000004            SETSTRING        ********   X   04
EDIT_DECIDE      000000A4 R     04   PRO_M_OPTION   = 00000008
EDIT_EXACT       000000B0 R     04   PRO_M_REQ      = 00000010
EDIT_EXPERT      000000BC R     04   PRO_M_STRING   = 00000020
EDIT_INCREMENT   000000C8 R     04   PRO_V_CONCAT   = 00000000
EDIT_ISAVE       000000D4 R     04   PRO_V_IMPCAT   = 00000001
EDIT_NOAUDIT     00000098 R     04   PRO_V_LIST     = 00000002
EDIT_NOLINE      000000E0 R     04   PRO_V_OPTION   = 00000003
EDIT_NOLOWER     000000EE R     04   PRO_V_REQ      = 00000004
EDIT_PLINES      000000FC R     04   PRO_V_STRING   = 00000005
EDIT_READONLY    00000108 R     04   QUAL_ARGLIST     00000084 R     03
EDIT_SAVE        00000114 R     04   QUAL_DESC        00000094 R     03
EDIT_SLP         00000120 R     04   QUAL_LIST        000000B0 R     03
EDIT_SOS         00000128 R     04   QUA_B_DEFVAL     00000002
EDIT_START       00000130 R     04   QUA_B_IMAGE      00000005
EDIT_STEP        0000013C R     04   QUA_B_INDEX      00000001
EDIT_TAB_FILL    00000148 R     04   QUA_B_OFFSET     00000000
EDIT_TRUNCATE    00000155 R     04   QUA_B_PARMCNT    00000008
FATAL          = 00000004            QUA_G_CHNGLST    00000006
GBL...         = 00000000            QUA_M_BATDEF   = 00000100
GETKEYWORD       ********   X   04   QUA_M_CHNGLIST = 00000001
GETSTRING        ********   X   04   QUA_M_DEFTRUE  = 00000080
INPUT_ARGLIST    00000000 R     03   QUA_M_FILE     = 00000004
INPUT_DESC       00000010 R     03   QUA_M_IMAGE    = 00000400
INSERTARG        ********   X   04   QUA_M_INTDEF   = 00000200
LAST_PARAM     = FFFFFFEC            QUA_M_KEYVAL   = 00004000
LIST_ARGLIST     00000058 R     03   QUA_M_LOCALKEY = 00000002
LIST_DESC        00000068 R     03   QUA_M_NEG      = 00000040
NONE           = 00000000            QUA_M_ONEVAL   = 00002000
ORDERSUBVAL      ********   X   04   QUA_M_OUTPUT   = 00000800
OUTPUT_ARGLIST   0000002C R     03   QUA_M_PARM     = 00000010
OUTPUT_DESC      0000003C R     03   QUA_M_VAL      = 00000020
PARAMLOC         ********   X   04   QUA_M_VALREQ   = 00001000
PRIM_INPUT     = FFFFFFF6            QUA_M_VERB     = 00000008
PRIM_OUTPUT    = 00000000            QUA_S_MAXPARM  = 00000004
PROGINDEX        ********   X   04   QUA_S_MINPARM  = 00000004
PROG_BP2       = 0000000C            QUA_V_BATDEF   = 00000008
PROG_CBL       = 00000008            QUA_V_CHNGLIST = 00000000
PROG_CNT       = 0000000F            QUA_V_DEFTRUE  = 00000007
PROG_DIF       = 0000000F            QUA_V_FILE     = 00000002
PROG_DMP       = 00000007            QUA_V_IMAGE    = 0000000A
PROG_F4V       = 00000002            QUA_V_INTDEF   = 00000009
PROG_LBR       = 0000000B            QUA_V_KEYVAL   = 0000000E
PROG_LIB       = 0000000A            QUA_V_LOCALKEY = 00000001
PROG_MAC       = 00000004            QUA_V_MAXPARM  = 00000004
PROG_MAR       = 00000003            QUA_V_MINPARM  = 00000000
PROG_PIP       = 00000001            QUA_V_NEG      = 00000006
PROG_SLP       = 00000006            QUA_V_ONEVAL   = 0000000D
EDIT            - BACKTRANSLATOR FOR EDIT COMMAND                22-AUG-1978 05:22:56   VAX-11 MACRO X0.3-11               Page  18
PROGRAM SECTION SYNOPSIS                                                                                                         (3)


PROGRAM SECTION SYNOPSIS

.  ABS  .        00000000      00     NOPIC   USR   CON   ABS   LCL NOSHR NOEXE NORD  NOWRT BYTE
. BLANK .        00000000      01     NOPIC   USR   CON   REL   LCL NOSHR   EXE   RD    WRT BYTE
$ABS$            00000080      02     NOPIC   USR   CON   ABS   LCL NOSHR   EXE   RD    WRT BYTE
IMPURE_          00000238      03     NOPIC   USR   CON   REL   LCL NOSHR NOEXE   RD    WRT LONG
PURE_            00000160      04     NOPIC   USR   CON   REL   LCL NOSHR   EXE   RD  NOWRT BYTE


THERE WERE NO ERRORS OR WARNINGS.
12322. BYTES LEFT IN FREE MEMORY POOL.
1602. BYTES OF RECLAIMED MEMORY.
OBJ$:EDITCMD,LIS$:EDITCMD/-SP/LI:MEB=EXECML$/ML,LIB$:B/ML,SRC$:EDITCMD
58 MLB DIR RDS - 633 GETS TO DEFINE 35 MACROS. 150 INTER. FILE WRITES.
