LIBRARY         - BACKTRANSLATOR FOR LIBRARY COMMAND             22-AUG-1978 05:24:26   VAX-11 MACRO X0.3-11               Page   1
HJ01                                                                                                                             (1)

                                     0000     1 	.TITLE	LIBRARY - BACKTRANSLATOR FOR LIBRARY COMMAND
                                     0000     2 	.IDENT	/HJ01/
                                     0000     3
                                     0000     4 ;
                                     0000     5 ; COPYRIGHT (C) 1977
                                     0000     6 ; DIGITAL EQUIPMENT CORPORATION, MAYNARD, MASS.
                                     0000     7 ;
                                     0000     8 ; THIS SOFTWARE IS FURNISHED UNDER  A LICENSE FOR USE ONLY  ON  A
                                     0000     9 ; SINGLE COMPUTER SYSTEM AND MAY BE  COPIED ONLY WITH  THE INCLU-
                                     0000    10 ; SION OF  THE  ABOVE  COPYRIGHT NOTICE.  THIS SOFTWARE,  OR  ANY
                                     0000    11 ; OTHER COPIES THEREOF, MAY NOT BE  PROVIDED  OR  OTHERWISE  MADE
                                     0000    12 ; AVAILABLE TO ANY OTHER PERSON EXCEPT  FOR  USE  ON  SUCH SYSTEM
                                     0000    13 ; AND TO  ONE WHO AGREES  TO  THESE LICENSE  TERMS.  TITLE TO AND
                                     0000    14 ; OWNERSHIP OF THE SOFTWARE SHALL AT ALL TIMES REMAIN IN DEC.
                                     0000    15 ;
                                     0000    16 ; THE INFORMATION IN THIS SOFTWARE  IS  SUBJECT TO CHANGE WITHOUT
                                     0000    17 ; NOTICE AND SHOULD NOT BE CONSTRUED  AS  A COMMITMENT BY DIGITAL
                                     0000    18 ; EQUIPMENT CORPORATION.
                                     0000    19 ;
                                     0000    20 ; DEC ASSUMES NO RESPONSIBILITY FOR THE USE OR RELIABILITY OF ITS
                                     0000    21 ; SOFTWARE ON EQUIPMENT WHICH IS NOT SUPPLIED BY DEC.
                                     0000    22 ;
                                     0000    23 ; H.J.	NOVEMBER 1977
                                     0000    24 ;
                                     0000    25 ; BACKTRANSLATOR LIBRARY
                                     0000    26 ;
LIBRARY         - BACKTRANSLATOR FOR LIBRARY COMMAND             22-AUG-1978 05:24:26   VAX-11 MACRO X0.3-11               Page   2
HJ01                                                                                                                             (2)

                                     0000    28 ;	.SBTTL INITIALIZE DATA DEFINITIONS
                                     0000    29 ;
                                     0000    30 ; MACRO LIBRARY CALLS
                                     0000    31 ;
                                     0000    32 	$BTDEFS				;DEFINE VALUES TO BE USED LOCALLY
                                     0000       	.SAVE
                                 00000000       	.PSECT	$ABS$,ABS
                                     0000       	.RESTORE
                                     0000    33 	$CLIDEF				;DEFINE CLI CODES AND VALUES
                                     0000       	.SAVE
                                 00000000       	.PSECT	$ABS$,ABS
                                     0000       CLI$L_INIARGCNT:
                           00000004  0000        			.BLKL	1
                                     0004       CLI$A_PROGXFER:
                           00000008  0004        			.BLKL	1
                                     0008       CLI$A_UTILSERV:
                           0000000C  0008        			.BLKL	1
                                     000C       CLI$A_IMGHDADR:
                           00000010  000C        			.BLKL	1
                                     0010       CLI$A_IMGFILED:
                           00000014  0010        			.BLKL	1
                                     0014       CLI$L_LINKFLAG:
                           00000018  0014        			.BLKL	1
                                     0018       CLI$L_CLIFLAG:
                           0000001C  0018        			.BLKL	1
                           00000000  001C        	. = 0
                                     0000       CLI$B_RQTYPE:
                           00000001  0000        			.BLKB	1
                                     0001       CLI$W_SERVCOD:
                                     0001       CLI$B_RQINDX:
                                     0001       CLI$B_BITNUM:
                           00000002  0001        			.BLKB	1
                                     0002       CLI$B_RQFLGS:
                           00000003  0002        			.BLKB	1
                                     0003       CLI$B_RQSTAT:
                           00000004  0003        			.BLKB	1
                                     0004       CLI$A_ERRACT:
                           00000008  0004        			.BLKL	1
                                     0008       CLI$Q_RQDESC:
                                     0008       CLI$W_RQSIZE:
                           0000000A  0008        			.BLKW	1
                           0000000C  000A        			.BLKW	1
                                     000C       CLI$L_RQVALU:
                                     000C       CLI$A_RQADDR:
                           00000010  000C        			.BLKL	1
                                     0010       CLI$A_PRSACT:
                           00000014  0010        			.BLKL	1
                                     0014       CLI$A_ABSACT:
                           00000018  0014        			.BLKL	1
                                     0018       CLI$A_QUALST:
                           0000001C  0018        			.BLKL	1
                                     001C       CLI$C_REQDESC:
                                     001C       CLI$K_REQDESC:
                           00000000  001C        	. = 0
                                     0000       CLI$B_QDBLKSIZ:
                           00000001  0000        			.BLKB	1
                                     0001       CLI$B_QDCODE:
LIBRARY         - BACKTRANSLATOR FOR LIBRARY COMMAND             22-AUG-1978 05:24:26   VAX-11 MACRO X0.3-11               Page   3
HJ01                                                                                                                             (2)

                           00000002  0001        			.BLKB	1
                                     0002       CLI$B_QDFLGS:
                           00000003  0002        			.BLKB	1
                                     0003       CLI$B_QDSTAT:
                           00000004  0003        			.BLKB	1
                                     0004       CLI$Q_QDVALDESC:
                                     0004       CLI$W_QDVALSIZ:
                           00000006  0004        			.BLKW	1
                           00000008  0006        			.BLKW	1
                                     0008       CLI$A_QDVALADR:
                           0000000C  0008        			.BLKL	1
                                     000C       CLI$A_TRUACT:
                           00000010  000C        			.BLKL	1
                                     0010       CLI$A_FLSACT:
                           00000014  0010        			.BLKL	1
                                     0014       CLI$C_QUALDEF:
                                     0014       CLI$K_QUALDEF:
                                     0014       CLI$C_QDBITS:
                                     0014       CLI$K_QDBITS:
                                     0014       CLI$L_USRVAL:
                           00000018  0014        			.BLKL	1
                           00000000  0018        	. = 0
                                     0000       CLI$L_WORKAREA:
                           00000080  0000        			.BLKL	32
                                     0080       CLI$C_WORKAREA:
                                     0080       CLI$K_WORKAREA:
                                     0000       	.RESTORE
                                     0000    34 	$CLIDEFQUALLIBR			;DEFINE QUALIFIER CODES
                                     0000       	.SAVE
                                 00000080       	.PSECT	$ABS$,ABS
                           00000000  0080       	.=0
                                     0000       PRO_B_PROMPT:
                           00000001  0000       	.BLKB	1
                                     0001       PRO_B_FLAGS:
                           00000002  0001       	.BLKB	1
                                     0002       PRO_K_LENGTH:
                                     0000       	.RESTORE
                                     0000       	.SAVE
                                 00000080       	.PSECT	$ABS$,ABS
                           00000000  0080       	.=0
                                     0000       QUA_B_OFFSET:
                           00000001  0000       	.BLKB	1
                                     0001       QUA_B_INDEX:
                           00000002  0001       	.BLKB	1
                                     0002       QUA_B_DEFVAL:
                           00000003  0002       	.BLKB	1
                                     0003       QUA_W_FLAGS:
                           00000005  0003       	.BLKW	1
                                     0005       QUA_B_IMAGE:
                           00000006  0005       	.BLKB	1
                                     0006       QUA_G_CHNGLST:
                                     0006       QUA_W_QUALIST:
                           00000008  0006       	.BLKW	1
                                     0008       QUA_B_PARMCNT:
                           00000009  0008       	.BLKB	1
                                     0009       QUA_W_PROMPT:
                           0000000B  0009       	.BLKW	1
LIBRARY         - BACKTRANSLATOR FOR LIBRARY COMMAND             22-AUG-1978 05:24:26   VAX-11 MACRO X0.3-11               Page   4
HJ01                                                                                                                             (2)

                                     0000       	.RESTORE
                                     0000    35
                                     0000    36 ;
                                     0000    37 ; LOCAL SYMBOLS
                                     0000    38 ;
                           00000001  0000    39 	LIBR$M_OVRDEF	= 1		;FLAG SET TO OVERIDE /REPLACE DEFAULT
                           00000000  0000    40 	LIBR$V_OVRDEF	= 0		;...
                           00000002  0000    41 	LIBR$M_EXTRCOMP	= 2		;FLAG TO IDENTIFY /EXTRACT OPERATION
                           00000001  0000    42 	LIBR$V_EXTRCOMP	= 1		;OR /COMPRESS OPERATION
                           00000004  0000    43 	LIBR$M_INPUT	= 4		;FLAG TI INDICATE INPUT LIST OCCURRED
                           00000002  0000    44 	LIBR$V_INPUT	= 2		;...
                           00000008  0000    45 	LIBR$M_EXTRACT	= 8		;FLAG TO INDICATE /EXTRACT
                           00000003  0000    46 	LIBR$V_EXTRACT	= 3		;...
                                     0000    47
                                     0000    48 ;
                                     0000    49 ; ARGUMENT LIST OFFSET DEFINITIONS
                                     0000    50 ;
                                     0000    51
                                     0000    52 ;
                                     0000    53 ; LOCAL DATA
                                     0000    54 ;
                                     0000    55 	IMPURE
                                 00000000       	.PSECT	IMPURE_	LONG,RD,WRT,NOEXE
                                     0000    56 ;
                                     0000    57 ;
                                     0000    58 ;
                                     0000    59 INPUT_ARGLIST:
                                     0000    60 	$ARGLST	3,-			;CREATE AN ARGUMENT LIST
                                     0000    61 		INPUT_DESC,-		;FOR FIRST INPUT PARAMETER
                                     0000    62 		CLIWORKAREA,-		;WORK AREA FOR CLI
                                     0000    63 		BITMAP			;BIT ARRAY
                           00000003  0000       		.LONG	3
                           00000010' 0004       		.LONG	INPUT_DESC
                           00000000' 0008       		.LONG	CLIWORKAREA
                           00000000' 000C       		.LONG	BITMAP
                                     0010    64
                                     0010    65 INPUT_DESC:
                                     0010    66 	$CLIREQDESC -			;CREATE A CLI REQUEST DESCRIPTOR
                                     0010    67 		RQTYPE=CLI$K_INPUT1,-	;FOR PRIMARY INPUT
                                     0010    68 		RQFLGS=CLI$V_PARMREQ	;PRIMARY INPUT IS REQUIRED
                           0000002C  0010       	.BLKB	CLI$C_REQDESC
                           00000010  002C       	. = $CLI.+CLI$B_RQTYPE
                                 10  0010       	  .BYTE	CLI$K_INPUT1
                           00000012  0011       	. = $CLI.+CLI$B_RQFLGS
                                 01  0012       	.BYTE	$$$.
                           0000002C  0013       	. = $CLI..
                                     002C    69
                                     002C    70 INPUT2_ARGLIST:
                                     002C    71 	$ARGLST	3,-			;CREATE AN ARGUMENT LIST
                                     002C    72 		INPUT2_DESC,-		;FOR OPTIONAL SECONDARY INPUT
                                     002C    73 		CLIWORKAREA,-		;WORK AREA FOR CLI
                                     002C    74 		BITMAP			;BIT ARRAY
                           00000003  002C       		.LONG	3
                           0000003C' 0030       		.LONG	INPUT2_DESC
                           00000000' 0034       		.LONG	CLIWORKAREA
                           00000000' 0038       		.LONG	BITMAP
                                     003C    75
LIBRARY         - BACKTRANSLATOR FOR LIBRARY COMMAND             22-AUG-1978 05:24:26   VAX-11 MACRO X0.3-11               Page   5
HJ01                                                                                                                             (2)

                                     003C    76 INPUT2_DESC:
                                     003C    77 	$CLIREQDESC -			;CREATE A CLI REQUEST DESCRIPTOR
                                     003C    78 		RQTYPE=CLI$K_INPUT2,-	;FOR SECONDARY INPUT
                                     003C    79 		QUALST=INPUT2_QUALS	;QUALIFIERS NEEDED ON INPUTS
                           00000058  003C       	.BLKB	CLI$C_REQDESC
                           0000003C  0058       	. = $CLI.+CLI$B_RQTYPE
                                 11  003C       	  .BYTE	CLI$K_INPUT2
                           00000054  003D       	. = $CLI.+CLI$A_QUALST
                           0000001C' 0054       	    .LONG	<INPUT2_QUALS-$CLI.>
                                     0058    80
                                     0058    81 INPUT2_QUALS:
                                     0058    82 	$CLIQUALDESC -			;DEFINE A QUALIFIER
                                     0058    83 		QDCODE=CLI$K_LIBR_SELE,-;/SELECTIVE
                                     0058    84 		TRUACT=LIBR_SELECTIVE	;CALL QUALIFIER HANDLER
                           0000006C  0058       	.BLKB	CLI$C_QUALDEF
                           00000058  006C       	. = $CLI.+CLI$B_QDBLKSIZ
                                 17' 0058       	  .BYTE	30069$-.
                                 10  0059       	  .BYTE	CLI$K_LIBR_SELE
                           00000064  005A       	. = $CLI.+CLI$A_TRUACT
                           00000137' 0064       	    .LONG	<LIBR_SELECTIVE-$CLI.>
                           0000006C  0068       . = $CLI..
                                 00  006C       	.BYTE	0
                                 00  006D       	.BYTE	0
                                 00  006E       	.BYTE	0
                                     006F       30069$:
                                     006F    85
                                     006F    86 	$CLIQUALDESC	END_LIST	;TERMINATE THE QUALIFIER LIST
                                 00  006F       	.BYTE	0
                                     0070    87
                                     0070    88 OUTPUT_ARGLIST:
                                     0070    89 	$ARGLST	3,-			;CREATE AN ARGUMENT LIST
                                     0070    90 		OUTPUT_DESC,-		;FOR FIRST OUTPUT PARAMETER
                                     0070    91 		CLIWORKAREA,-		;WORK AREA FOR CLI
                                     0070    92 		BITMAP			;BIT ARRAY
                           00000003  0070       		.LONG	3
                           00000080' 0074       		.LONG	OUTPUT_DESC
                           00000000' 0078       		.LONG	CLIWORKAREA
                           00000000' 007C       		.LONG	BITMAP
                                     0080    93
                                     0080    94 OUTPUT_DESC:
                                     0080    95 	$CLIREQDESC -			;CREATE A CLI REQUEST DESCRIPTOR
                                     0080    96 		RQTYPE=CLI$K_OUTPUT1	;FOR PRIMARY OUTPUT
                           0000009C  0080       	.BLKB	CLI$C_REQDESC
                           00000080  009C       	. = $CLI.+CLI$B_RQTYPE
                                 20  0080       	  .BYTE	CLI$K_OUTPUT1
                           0000009C  0081       	. = $CLI..
                                     009C    97
                                     009C    98
                                     009C    99 QUAL_ARGLIST:
                                     009C   100 	$ARGLST	3,-			;CREATE AN ARGUMENT LIST
                                     009C   101 		QUAL_DESC,-		;FOR COMMAND QUALIFIERS
                                     009C   102 		CLIWORKAREA,-		;WORK AREA FOR CLI
                                     009C   103 		BITMAP			;BIT ARRAY
                           00000003  009C       		.LONG	3
                           000000AC' 00A0       		.LONG	QUAL_DESC
                           00000000' 00A4       		.LONG	CLIWORKAREA
                           00000000' 00A8       		.LONG	BITMAP
LIBRARY         - BACKTRANSLATOR FOR LIBRARY COMMAND             22-AUG-1978 05:24:26   VAX-11 MACRO X0.3-11               Page   6
HJ01                                                                                                                             (2)

                                     00AC   104
                                     00AC   105 QUAL_DESC:
                                     00AC   106 	$CLIREQDESC -			;CREATE A CLI REQUEST DESCRIPTOR
                                     00AC   107 		RQTYPE=CLI$K_GETQUAL,-	;FOR COMMAND QUALIFIERS
                                     00AC   108 		QUALST=QUAL_LIST	;ADDRESS OF THE QUALIFIERS
                           000000C8  00AC       	.BLKB	CLI$C_REQDESC
                           000000AC  00C8       	. = $CLI.+CLI$B_RQTYPE
                                 02  00AC       	  .BYTE	CLI$K_GETQUAL
                           000000C4  00AD       	. = $CLI.+CLI$A_QUALST
                           0000001C' 00C4       	    .LONG	<QUAL_LIST-$CLI.>
                                     00C8   109
                                     00C8   110
                                     00C8   111 QUAL_LIST:
                                     00C8   112 	$CLIQUALDESC -			;DEFINE A QUALIFIER
                                     00C8   113 		QDCODE=CLI$K_LIBR_COMP,-;/COMPRESS[:(BLOCKS=NNN,MODULES=MMM)]
                                     00C8   114 		TRUACT=LIBR_COMPRESS	;CALL QUALIFIER HANDLER
                           000000DC  00C8       	.BLKB	CLI$C_QUALDEF
                           000000C8  00DC       	. = $CLI.+CLI$B_QDBLKSIZ
                                 17' 00C8       	  .BYTE	30074$-.
                                 01  00C9       	  .BYTE	CLI$K_LIBR_COMP
                           000000D4  00CA       	. = $CLI.+CLI$A_TRUACT
                           FFFFFFC0' 00D4       	    .LONG	<LIBR_COMPRESS-$CLI.>
                           000000DC  00D8       . = $CLI..
                                 00  00DC       	.BYTE	0
                                 00  00DD       	.BYTE	0
                                 00  00DE       	.BYTE	0
                                     00DF       30074$:
                                     00DF   115
                                     00DF   116 	$CLIQUALDESC -			;DEFINE A QUALIFIER
                                     00DF   117 		QDCODE=CLI$K_LIBR_CREA,-;/CREATE[:(BLOCKS=NNN,MODULES=MMM)]
                                     00DF   118 		TRUACT=LIBR_CREATE	;CALL QUALIFIER HANDLER
                           000000F3  00DF       	.BLKB	CLI$C_QUALDEF
                           000000DF  00F3       	. = $CLI.+CLI$B_QDBLKSIZ
                                 17' 00DF       	  .BYTE	30078$-.
                                 02  00E0       	  .BYTE	CLI$K_LIBR_CREA
                           000000EB  00E1       	. = $CLI.+CLI$A_TRUACT
                           FFFFFFDF' 00EB       	    .LONG	<LIBR_CREATE-$CLI.>
                           000000F3  00EF       . = $CLI..
                                 00  00F3       	.BYTE	0
                                 00  00F4       	.BYTE	0
                                 00  00F5       	.BYTE	0
                                     00F6       30078$:
                                     00F6   119
                                     00F6   120 	$CLIQUALDESC -			;DEFINE A QUALIFIER
                                     00F6   121 		QDCODE=CLI$K_LIBR_DELE,-;/DELETE:(MODULE,MODULE,...)
                                     00F6   122 		TRUACT=LIBR_DELETE	;CALL QUALIFIER HANDLER
                           0000010A  00F6       	.BLKB	CLI$C_QUALDEF
                           000000F6  010A       	. = $CLI.+CLI$B_QDBLKSIZ
                                 17' 00F6       	  .BYTE	30082$-.
                                 03  00F7       	  .BYTE	CLI$K_LIBR_DELE
                           00000102  00F8       	. = $CLI.+CLI$A_TRUACT
                           FFFFFFDA' 0102       	    .LONG	<LIBR_DELETE-$CLI.>
                           0000010A  0106       . = $CLI..
                                 00  010A       	.BYTE	0
                                 00  010B       	.BYTE	0
                                 00  010C       	.BYTE	0
                                     010D       30082$:
LIBRARY         - BACKTRANSLATOR FOR LIBRARY COMMAND             22-AUG-1978 05:24:26   VAX-11 MACRO X0.3-11               Page   7
HJ01                                                                                                                             (2)

                                     010D   123
                                     010D   124 	$CLIQUALDESC -			;DEFINE A QUALIFIER
                                     010D   125 		QDCODE=CLI$K_LIBR_EXTR,-;/EXTRACT:MODULE
                                     010D   126 		TRUACT=LIBR_EXTRACT	;CALL QUALIFIER HANDLER
                           00000121  010D       	.BLKB	CLI$C_QUALDEF
                           0000010D  0121       	. = $CLI.+CLI$B_QDBLKSIZ
                                 17' 010D       	  .BYTE	30086$-.
                                 04  010E       	  .BYTE	CLI$K_LIBR_EXTR
                           00000119  010F       	. = $CLI.+CLI$A_TRUACT
                           FFFFFFCF' 0119       	    .LONG	<LIBR_EXTRACT-$CLI.>
                           00000121  011D       . = $CLI..
                                 00  0121       	.BYTE	0
                                 00  0122       	.BYTE	0
                                 00  0123       	.BYTE	0
                                     0124       30086$:
                                     0124   127
                                     0124   128 	$CLIQUALDESC -			;DEFINE A QUALIFIER
                                     0124   129 		QDCODE=CLI$K_LIBR_INSE,-;/INSERT
                                     0124   130 		TRUACT=LIBR_INSERT	;CALL QUALIFIER HANDLER
                           00000138  0124       	.BLKB	CLI$C_QUALDEF
                           00000124  0138       	. = $CLI.+CLI$B_QDBLKSIZ
                                 17' 0124       	  .BYTE	30090$-.
                                 05  0125       	  .BYTE	CLI$K_LIBR_INSE
                           00000130  0126       	. = $CLI.+CLI$A_TRUACT
                           FFFFFFCA' 0130       	    .LONG	<LIBR_INSERT-$CLI.>
                           00000138  0134       . = $CLI..
                                 00  0138       	.BYTE	0
                                 00  0139       	.BYTE	0
                                 00  013A       	.BYTE	0
                                     013B       30090$:
                                     013B   131
                                     013B   132 	$CLIQUALDESC -			;DEFINE A QUALIFIER
                                     013B   133 		QDCODE=CLI$K_LIBR_LIST,-;/LIST[:FILESPEC]
                                     013B   134 		TRUACT=LIBR_LIST	;CALL QUALIFIER HANDLER
                           0000014F  013B       	.BLKB	CLI$C_QUALDEF
                           0000013B  014F       	. = $CLI.+CLI$B_QDBLKSIZ
                                 17' 013B       	  .BYTE	30094$-.
                                 06  013C       	  .BYTE	CLI$K_LIBR_LIST
                           00000147  013D       	. = $CLI.+CLI$A_TRUACT
                           FFFFFFDB' 0147       	    .LONG	<LIBR_LIST-$CLI.>
                           0000014F  014B       . = $CLI..
                                 00  014F       	.BYTE	0
                                 00  0150       	.BYTE	0
                                 00  0151       	.BYTE	0
                                     0152       30094$:
                                     0152   135
                                     0152   136 	$CLIQUALDESC -			;DEFINE A QUALIFIER
                                     0152   137 		QDCODE=CLI$K_LIBR_REMO,-;/REMOVE:(GLOBAL,GLOBAL,...)
                                     0152   138 		TRUACT=LIBR_REMOVE	;CALL QUALIFIER HANDLER
                           00000166  0152       	.BLKB	CLI$C_QUALDEF
                           00000152  0166       	. = $CLI.+CLI$B_QDBLKSIZ
                                 17' 0152       	  .BYTE	30098$-.
                                 07  0153       	  .BYTE	CLI$K_LIBR_REMO
                           0000015E  0154       	. = $CLI.+CLI$A_TRUACT
                           FFFFFFAD' 015E       	    .LONG	<LIBR_REMOVE-$CLI.>
                           00000166  0162       . = $CLI..
                                 00  0166       	.BYTE	0
LIBRARY         - BACKTRANSLATOR FOR LIBRARY COMMAND             22-AUG-1978 05:24:26   VAX-11 MACRO X0.3-11               Page   8
HJ01                                                                                                                             (2)

                                 00  0167       	.BYTE	0
                                 00  0168       	.BYTE	0
                                     0169       30098$:
                                     0169   139
                                     0169   140 	$CLIQUALDESC -			;DEFINE A QUALIFIER
                                     0169   141 		QDCODE=CLI$K_LIBR_REPL	;/REPLACE
                           0000017D  0169       	.BLKB	CLI$C_QUALDEF
                           00000169  017D       	. = $CLI.+CLI$B_QDBLKSIZ
                                 17' 0169       	  .BYTE	30102$-.
                                 08  016A       	  .BYTE	CLI$K_LIBR_REPL
                           0000017D  016B       . = $CLI..
                                 00  017D       	.BYTE	0
                                 00  017E       	.BYTE	0
                                 00  017F       	.BYTE	0
                                     0180       30102$:
                                     0180   142
                                     0180   143 	$CLIQUALDESC -			;DEFINE A QUALIFIER
                                     0180   144 		QDCODE=CLI$K_LIBR_MACR,-;/MACRO
                                     0180   145 		TRUACT=LIBR_MACRO	;CALL QUALIFIER HANDLER
                           00000194  0180       	.BLKB	CLI$C_QUALDEF
                           00000180  0194       	. = $CLI.+CLI$B_QDBLKSIZ
                                 17' 0180       	  .BYTE	30106$-.
                                 09  0181       	  .BYTE	CLI$K_LIBR_MACR
                           0000018C  0182       	. = $CLI.+CLI$A_TRUACT
                           FFFFFFBE' 018C       	    .LONG	<LIBR_MACRO-$CLI.>
                           00000194  0190       . = $CLI..
                                 00  0194       	.BYTE	0
                                 00  0195       	.BYTE	0
                                 00  0196       	.BYTE	0
                                     0197       30106$:
                                     0197   146
                                     0197   147 	$CLIQUALDESC -			;DEFINE A QUALIFIER
                                     0197   148 		QDCODE=CLI$K_LIBR_OBJE	;/OBJECT
                           000001AB  0197       	.BLKB	CLI$C_QUALDEF
                           00000197  01AB       	. = $CLI.+CLI$B_QDBLKSIZ
                                 17' 0197       	  .BYTE	30110$-.
                                 0A  0198       	  .BYTE	CLI$K_LIBR_OBJE
                           000001AB  0199       . = $CLI..
                                 00  01AB       	.BYTE	0
                                 00  01AC       	.BYTE	0
                                 00  01AD       	.BYTE	0
                                     01AE       30110$:
                                     01AE   149
                                     01AE   150 	$CLIQUALDESC -			;DEFINE A QUALIFIER
                                     01AE   151 		QDCODE=CLI$K_LIBR_NAME,-;/NAMES
                                     01AE   152 		TRUACT=LIBR_NAMES	;CALL QUALIFIER HANDLER
                           000001C2  01AE       	.BLKB	CLI$C_QUALDEF
                           000001AE  01C2       	. = $CLI.+CLI$B_QDBLKSIZ
                                 17' 01AE       	  .BYTE	30114$-.
                                 0C  01AF       	  .BYTE	CLI$K_LIBR_NAME
                           000001BA  01B0       	. = $CLI.+CLI$A_TRUACT
                           FFFFFFB5' 01BA       	    .LONG	<LIBR_NAMES-$CLI.>
                           000001C2  01BE       . = $CLI..
                                 00  01C2       	.BYTE	0
                                 00  01C3       	.BYTE	0
                                 00  01C4       	.BYTE	0
                                     01C5       30114$:
LIBRARY         - BACKTRANSLATOR FOR LIBRARY COMMAND             22-AUG-1978 05:24:26   VAX-11 MACRO X0.3-11               Page   9
HJ01                                                                                                                             (2)

                                     01C5   153
                                     01C5   154 	$CLIQUALDESC -			;DEFINE A QUALIFIER
                                     01C5   155 		QDCODE=CLI$K_LIBR_FULL,-;/FULL
                                     01C5   156 		TRUACT=LIBR_FULL	;CALL QUALIFIER HANDLER
                           000001D9  01C5       	.BLKB	CLI$C_QUALDEF
                           000001C5  01D9       	. = $CLI.+CLI$B_QDBLKSIZ
                                 17' 01C5       	  .BYTE	30118$-.
                                 0D  01C6       	  .BYTE	CLI$K_LIBR_FULL
                           000001D1  01C7       	. = $CLI.+CLI$A_TRUACT
                           FFFFFFAA' 01D1       	    .LONG	<LIBR_FULL-$CLI.>
                           000001D9  01D5       . = $CLI..
                                 00  01D9       	.BYTE	0
                                 00  01DA       	.BYTE	0
                                 00  01DB       	.BYTE	0
                                     01DC       30118$:
                                     01DC   157
                                     01DC   158 	$CLIQUALDESC -			;DEFINE A QUALIFIER
                                     01DC   159 		QDCODE=CLI$K_LIBR_GLOB,-;/GLOBALS
                                     01DC   160 		FLSACT=LIBR_NOGLOBALS	;CALL QUALIFIER HANDLER
                           000001F0  01DC       	.BLKB	CLI$C_QUALDEF
                           000001DC  01F0       	. = $CLI.+CLI$B_QDBLKSIZ
                                 17' 01DC       	  .BYTE	30122$-.
                                 0E  01DD       	  .BYTE	CLI$K_LIBR_GLOB
                           000001EC  01DE       	. = $CLI.+CLI$A_FLSACT
                           FFFFFF9F' 01EC       	    .LONG	<LIBR_NOGLOBALS-$CLI.>
                                 00  01F0       	.BYTE	0
                                 00  01F1       	.BYTE	0
                                 00  01F2       	.BYTE	0
                                     01F3       30122$:
                                     01F3   161
                                     01F3   162 	$CLIQUALDESC -			;DEFINE A QUALIFIER
                                     01F3   163 		QDCODE=CLI$K_LIBR_RSX1,-;/RSX11
                                     01F3   164 		TRUACT=LIBR_RSX11	;CALL QUALIFIER HANDLER
                           00000207  01F3       	.BLKB	CLI$C_QUALDEF
                           000001F3  0207       	. = $CLI.+CLI$B_QDBLKSIZ
                                 17' 01F3       	  .BYTE	30126$-.
                                 0F  01F4       	  .BYTE	CLI$K_LIBR_RSX1
                           000001FF  01F5       	. = $CLI.+CLI$A_TRUACT
                           FFFFFF94' 01FF       	    .LONG	<LIBR_RSX11-$CLI.>
                           00000207  0203       . = $CLI..
                                 00  0207       	.BYTE	0
                                 00  0208       	.BYTE	0
                                 00  0209       	.BYTE	0
                                     020A       30126$:
                                     020A   165
                                     020A   166 	$CLIQUALDESC -			;DEFINE A QUALIFIER
                                     020A   167 		QDCODE=CLI$K_LIBR_SQUE,-;/SQUEEZE
                                     020A   168 		TRUACT=LIBR_SQUEEZE	;CALL QUALIFIER HANDLER
                           0000021E  020A       	.BLKB	CLI$C_QUALDEF
                           0000020A  021E       	. = $CLI.+CLI$B_QDBLKSIZ
                                 17' 020A       	  .BYTE	30130$-.
                                 11  020B       	  .BYTE	CLI$K_LIBR_SQUE
                           00000216  020C       	. = $CLI.+CLI$A_TRUACT
                           FFFFFF90' 0216       	    .LONG	<LIBR_SQUEEZE-$CLI.>
                           0000021E  021A       . = $CLI..
                                 00  021E       	.BYTE	0
                                 00  021F       	.BYTE	0
LIBRARY         - BACKTRANSLATOR FOR LIBRARY COMMAND             22-AUG-1978 05:24:26   VAX-11 MACRO X0.3-11               Page  10
HJ01                                                                                                                             (2)

                                 00  0220       	.BYTE	0
                                     0221       30130$:
                                     0221   169
                                     0221   170
                                     0221   171 	$CLIQUALDESC	END_LIST	;TERMINATE THE QUALIFIER LIST
                                 00  0221       	.BYTE	0
                                     0222   172
                                 00  0222   173 LIBFLAGS:	.BYTE	0		;LOCAL FLAGS FOR LIBRARY COMMAND
LIBRARY         - BACKTRANSLATOR FOR LIBRARY COMMAND             22-AUG-1978 05:24:26   VAX-11 MACRO X0.3-11               Page  11
HJ01                                                                                                                             (3)

                                     0223   175 ;	.SBTTL LIBRARY
                                     0223   176 ;+
                                     0223   177 ; BACKTRANSLATOR LIBRARY
                                     0223   178 ;
                                     0223   179 ; CONVERTS DCL COMMAND TO COMPATIBILITY MODE IMAGE COMMAND
                                     0223   180 ;
                                     0223   181 ;
                                     0223   182 ; INPUTS:
                                     0223   183 ;  THE INPUTS ARE RETURNED FROM THE DCL RESULT PARSER AS RESPONSES
                                     0223   184 ;  TO THE VARIOUS REQUEST DESCRIPTORS THAT ARE GIVEN TO IT.
                                     0223   185 ;
                                     0223   186 ;
                                     0223   187 ; OUTPUTS:
                                     0223   188 ;  THE OUTPUT CONSISTS OF TWO STRINGS OR AN ERROR MESSAGE AND ABORT.
                                     0223   189 ;  THE CALLER OPENS THE IMAGE AND INVOKES THE COMPATIBILITY EMULATOR
                                     0223   190 ;  IF NO ERROR OCCURS.
                                     0223   191 ;
                                     0223   192 ;  1- FILENAME STRING OF COMPATIBILITY MODE IMAGE TO BE ACTIVATED.
                                     0223   193 ;
                                     0223   194 ;  2- COMMAND LINE TO BE GIVEN TO THE IMAGE.
                                     0223   195 ;
                                     0223   196 ;-
                                     0223   197
                                     0223   198 	PURE
                                 00000000       	.PSECT	PURE_	BYTE,RD,EXE,NOWRT
                                     0000   199
                                     0000   200 LIBR::
                                 FA  0000   201 	CALLG	W^QUAL_ARGLIST,-	;PROCESS COMMAND QUALIFIER OPTIONS
         08 BC       009C'CF         0001   202 		@CLI$A_UTILSERV(AP)
                                 FA  0006   203 	CALLG	W^INPUT_ARGLIST,-	;PROCESS PRIMARY INPUT (LIBRARY NAME)
         08 BC       0000'CF         0007   204 		@CLI$A_UTILSERV(AP)
                                 FA  000C   205 	CALLG	W^OUTPUT_ARGLIST,-	;PROCESS OBJECT FILE OUTPUT ON EXTRACT
         08 BC       0070'CF         000D   206 		@CLI$A_UTILSERV(AP)	;(THIS QUALIFIER DEFAULTS TO ON)
       0222'CF            01     E1  0012   207 	BBC	#LIBR$V_EXTRCOMP,W^LIBFLAGS,10$ ;HANDLE /EXTRACT OR /COMPRESS
                          18         0017
            59       0088'CF     7D  0018   208 	MOVQ	W^CLI$Q_RQDESC+OUTPUT_DESC,R9 ;PICK UP STRING DESCRIPTOR
                          FFE0'  30  001D   209 	BSBW	INSERTARG		;SAVE IT AS PRIMARY OUTPUT
       0000'CF         F6 8F     90  0020   210 	MOVB	#PRIM_INPUT,W^PARAMLOC	;SET UP TO MAKE LIBRARY =INPUT
            59       0018'CF     7D  0026   211 	MOVQ	W^CLI$Q_RQDESC+INPUT_DESC,R9 ;PICK UP STRING DESCRIPTOR
                          FFD2'  30  002B   212 	BSBW	INSERTARG		;SAVE IT AS PRIMARY INPUT
                          4F     11  002E   213 	BRB	40$			;EXIT VIA COMMON CODE
            59       0018'CF     7D  0030   214 10$:	MOVQ	W^CLI$Q_RQDESC+INPUT_DESC,R9 ;PICK UP STRING DESCRIPTOR
                          FFC8'  30  0035   215 	BSBW	INSERTARG		;SAVE IT AS PRIMARY OUTPUT
       0000'CF         F7 8F     90  0038   216 	MOVB	#PRIM_INPUT+1,W^HOLDLOC	;SET UP TO ACCEPT OPTIONS ON FILESPEC
       0000'CF         F7 8F     90  003E   217 	MOVB	#PRIM_INPUT+1,W^PARAMLOC;SET UP TO START ACCEPTING INPUTS
                     0000'CF     97  0044   218 20$:	DECB	W^PARAMLOC		;PUT NEXT INPUT IN NEXT POSITION
                     0000'CF     97  0048   219 	DECB	W^HOLDLOC		;PUT NEXT OPTION IN NEXT POSITION
                                 FA  004C   220 	CALLG	W^INPUT2_ARGLIST,-	;PROCESS OPTIONAL SECONDARY INPUTS
         08 BC       002C'CF         004D   221 		@CLI$A_UTILSERV(AP)
            59       0044'CF     7D  0052   222 	MOVQ	W^CLI$Q_RQDESC+INPUT2_DESC,R9 ;PICK UP STRING DESCRIPTOR
                          59     B5  0057   223 	TSTW	R9			;IS THERE AN INPUT LIST?
                          05     13  0059   224 	BEQL	30$			;BRANCH IF NOT
       0222'CF            04     88  005B   225 	BISB	#LIBR$M_INPUT,W^LIBFLAGS;SET FLAG INDICATING INPUT LIST
                          FF9D'  30  0060   226 30$:	BSBW	INSERTARG		;SAVE IT AS PRIMARY INPUT
                                 E0  0063   227 	BBS	#CLI$V_CONCATINP,-	;BRANCH IF MORE INPUTS TO GET THEM
       003F'CF            01         0064   228 		W^CLI$B_RQSTAT+INPUT2_DESC,20$
                          DB         0068
LIBRARY         - BACKTRANSLATOR FOR LIBRARY COMMAND             22-AUG-1978 05:24:26   VAX-11 MACRO X0.3-11               Page  12
HJ01                                                                                                                             (3)

       0222'CF            02     E1  0069   229 	BBC	#LIBR$V_INPUT,W^LIBFLAGS,40$ ;BRANCH IF NO INPUT LIST
                          10         006E
       0222'CF            00     E0  006F   230 	BBS	#LIBR$V_OVRDEF,W^LIBFLAGS,40$ ;BRANCH IF OPERATION /INSERT
                          0A         0074
                                     0075   231 	$SETSTRING	</RP>,TYPE=INLINE,POS=<PRIM_OUTPUT>
                          FF88'  30  0075       	BSBW	SETSTRING
                                 05  0078       	.BYTE	$$$FLAGS
                                 00  0079       	.BYTE	0
                                 00  007A       	.BYTE	PRIM_OUTPUT
                                 03  007B       	.BYTE	$$CNT
                           50 52 2F  007C       	.ASCII	\/RP\
                                     007F   232 					;TURN ON /RP DEFAULT OPTION
                                     007F   233 40$:	DEFPROG	LIB,NOSTICK		;RETURN DEFAULT PROGRAM TO RUN
            50            0A     D0  007F       	MOVL	#PROG_LIB,R0
       0000'CF            01     D0  0082       	MOVL	#1,W^STICKY_FLAG
                                 05  0087   234 	RSB				;RETURN TO GENERATE COMMAND TEXT
                                     0088   235
                                     0088   236
                                     0088   237 LIBR_COMPRESS:
                                     0088   238 	$SETSTRING	</CO>,FLAGS=<BTR$M_RETURN> ;SET /COMPRESS OPTION
                               0FFC  0088       	.WORD	SAVE_REG_MASK
                          FF73'  30  008A       	BSBW	SETSTRING
                                 01  008D       	.BYTE	$$$FLAGS
                                 00  008E       	.BYTE	0
                                 03  008F       	.BYTE	$$CNT
                           4F 43 2F  0090       	.ASCII	\/CO\
       0222'CF            02     88  0093   239 	BISB	#LIBR$M_EXTRCOMP,W^LIBFLAGS ;INDICATE /COMPRESS PROCESSING
                                     0098   240 LIBR_SIZE:
                                     0098   241 	$GETKEYWORD	LIST=<-		;HANDLE KEYWORD LIST ON /CREATE,/COMPR
                                     0098   242 				BLOCKS,-
                                     0098   243 				GLOBALS,-
                                     0098   244 				MODULES>
                          FF65'  30  0098       	BSBW	GETKEYWORD
                                 18' 009B       	.BYTE	30135$-30136$
                                     009C       30136$:
                                 06' 009C       	.BYTE	$$CNT
                  53 4B 43 4F 4C 42  009D       	.ASCII	\BLOCKS\
                                 07' 00A3       	.BYTE	$$CNT
               53 4C 41 42 4F 4C 47  00A4       	.ASCII	\GLOBALS\
                                 07' 00AB       	.BYTE	$$CNT
               53 45 4C 55 44 4F 4D  00AC       	.ASCII	\MODULES\
                                 00  00B3       	.BYTE	0
                                     00B4       30135$:
                          FF49'  30  00B4   245 	BSBW	ORDERSUBVAL		;PUT THE NUMERIC PART INTO THE LIST
            DE            50     E8  00B7   246 	BLBS	R0,LIBR_SIZE		;BRANCH TO CONTINUE VALUE SCANNING
            56            03     D0  00BA   247 	MOVL	#3,R6			;SET THE NUMBER OF VALUES TO PROCESS
                                 05  00BD   248 	RSB				;CO-ROUTINE RETURN TO GENERATE TEXT
                                     00BE   249
                                     00BE   250 LIBR_CREATE:
                                     00BE   251 	$SETSTRING	</CR>,FLAGS=<BTR$M_RETURN> ;SET /CREATE SWITCH
                               0FFC  00BE       	.WORD	SAVE_REG_MASK
                          FF3D'  30  00C0       	BSBW	SETSTRING
                                 01  00C3       	.BYTE	$$$FLAGS
                                 00  00C4       	.BYTE	0
                                 03  00C5       	.BYTE	$$CNT
                           52 43 2F  00C6       	.ASCII	\/CR\
       0222'CF            01     88  00C9   252 	BISB	#LIBR$M_OVRDEF,W^LIBFLAGS ;OVERRIDE /REPLACE DEFAULT
LIBRARY         - BACKTRANSLATOR FOR LIBRARY COMMAND             22-AUG-1978 05:24:26   VAX-11 MACRO X0.3-11               Page  13
HJ01                                                                                                                             (3)

                          C8     11  00CE   253 	BRB	LIBR_SIZE		;HANDLE KEYWORD PROCESSING
                                     00D0   254
                                     00D0   255 LIBR_DELETE:
                                     00D0   256 	$GETSTRING	</DE:>,FLAGS=<BTR$M_LIST,BTR$M_VALREQ>
                               0FFC  00D0       	.WORD	SAVE_REG_MASK
                          FF2B'  30  00D2       	BSBW	GETSTRING
                                 48  00D5       	.BYTE	$$$FLAGS
                                 00  00D6       	.BYTE	0
                                 04  00D7       	.BYTE	$$CNT
                        3A 45 44 2F  00D8       	.ASCII	\/DE:\
                                     00DC   257 					;GENERATE /DELETE:MODULES-LIST
                                     00DC   258
                                     00DC   259 LIBR_EXTRACT:
                                     00DC   260 	$GETSTRING	</EX>,FLAGS=<BTR$M_RETURN,BTR$M_LIST>,POS=<PRIM_INPUT>
                               0FFC  00DC       	.WORD	SAVE_REG_MASK
                          FF1F'  30  00DE       	BSBW	GETSTRING
                                 45  00E1       	.BYTE	$$$FLAGS
                                 00  00E2       	.BYTE	0
                                 F6  00E3       	.BYTE	PRIM_INPUT
                                 03  00E4       	.BYTE	$$CNT
                           58 45 2F  00E5       	.ASCII	\/EX\
                                     00E8   261 					;GENERATE /EXTRACT:MODULES
       0222'CF            0A     88  00E8   262 	BISB	#LIBR$M_EXTRCOMP!LIBR$M_EXTRACT,W^LIBFLAGS
                                     00ED   263 					;INDICATE /EXTRACT PROCESSING
                                 04  00ED   264 	RET				;RETURN TO CLI PARSER
                                     00EE   265
                                     00EE   266 LIBR_INSERT:
                                     00EE   267 	$SETSTRING	</IN>,FLAGS=<BTR$M_RETURN> ;GENERATE /INSERT OPTION
                               0FFC  00EE       	.WORD	SAVE_REG_MASK
                          FF0D'  30  00F0       	BSBW	SETSTRING
                                 01  00F3       	.BYTE	$$$FLAGS
                                 00  00F4       	.BYTE	0
                                 03  00F5       	.BYTE	$$CNT
                           4E 49 2F  00F6       	.ASCII	\/IN\
       0222'CF            01     88  00F9   268 	BISB	#LIBR$M_OVRDEF,W^LIBFLAGS ;OVERRIDE /REPLACE DEFAULT
                                 04  00FE   269 	RET				;RETURN TO CLI PARSER
                                     00FF   270
                                     00FF   271 LIBR_REMOVE:
                                     00FF   272 	$GETSTRING	</DG:>,FLAGS=<BTR$M_LIST,BTR$M_VALREQ>
                               0FFC  00FF       	.WORD	SAVE_REG_MASK
                          FEFC'  30  0101       	BSBW	GETSTRING
                                 48  0104       	.BYTE	$$$FLAGS
                                 00  0105       	.BYTE	0
                                 04  0106       	.BYTE	$$CNT
                        3A 47 44 2F  0107       	.ASCII	\/DG:\
                                     010B   273 					;GENERATE /REMOVE:GLOBAL-LIST
                                     010B   274
                                     010B   275 LIBR_LISTDEF:
                           00000003' 010B   276 	.LONG	20$-10$			;SIZE OF STRING
                           00000113' 010F   277 	.LONG	10$			;ADDRESS OF STRING
                           3A 49 54  0113   278 10$:	.ASCII	\TI:\			;DEFAULT LISTING DEVICE
                                     0116   279 20$:
                                     0116   280
                                     0116   281 LIBR_LIST:
                                     0116   282 	$SETSTRING	</-SP>,FLAGS=<BTR$M_RETURN>,POS=<PRIM_OUTPUT-1>
                               0FFC  0116       	.WORD	SAVE_REG_MASK
                          FEE5'  30  0118       	BSBW	SETSTRING
LIBRARY         - BACKTRANSLATOR FOR LIBRARY COMMAND             22-AUG-1978 05:24:26   VAX-11 MACRO X0.3-11               Page  14
HJ01                                                                                                                             (3)

                                 05  011B       	.BYTE	$$$FLAGS
                                 00  011C       	.BYTE	0
                                 FF  011D       	.BYTE	PRIM_OUTPUT-1
                                 04  011E       	.BYTE	$$CNT
                        50 53 2D 2F  011F       	.ASCII	\/-SP\
                                     0123   283 					;TURN OFF SPOOLING
                          FEDA'  30  0123   284 	BSBW	GETSUBVAL		;IS IT /LIST OR /LIST:FILESPEC?
                     0000'CF     97  0126   285 	DECB	W^PARAMLOC		;SET UP FOR SECONDARY OUTPUT
            59         DE AF     7D  012A   286 	MOVQ	LIBR_LISTDEF,R9		;ASSUME OUTPUT TO TERMINAL
            05            50     E9  012E   287 	BLBC	R0,10$			;BRANCH IF /LIST
            59       0008'CF     7D  0131   288 	MOVQ	W^CLI$Q_RQDESC+VALUE_DESC,R9 ;GET DESCRIPTOR FOR FILESPEC
                          FEC7'  30  0136   289 10$:	BSBW	INSERTARG		;PUT IT INTO THE INPUT LIST
                     0000'CF     94  0139   290 	CLRB	W^PARAMLOC		;RETURN IT BACK TO PRIMARY OUTPUT
                                 04  013D   291 	RET				;RETURN TO CLI
                                     013E   292
                                     013E   293 LIBR_MACRO:
                                     013E   294 	$INLINE				;GET CONTROL TO SET FLAG FOR LATER
                               0FFC  013E       	.WORD	SAVE_REG_MASK
       0222'CF            03     E0  0140   295 	BBS	#LIBR$V_EXTRACT,W^LIBFLAGS,10$ ;BRANCH IF /EXTRACT CASE
                          0E         0145
                                     0146   296 	$SETSTRING </DF:MAC>,TYPE=INLINE;SET /MACRO SWITCH DEFAULT LIBRARY
                          FEB7'  30  0146       	BSBW	SETSTRING
                                 01  0149       	.BYTE	$$$FLAGS
                                 00  014A       	.BYTE	0
                                 07  014B       	.BYTE	$$CNT
               43 41 4D 3A 46 44 2F  014C       	.ASCII	\/DF:MAC\
                                 04  0153   297 	RET				;RETURN TO CLI
                                     0154   298 10$:	$SETSTRING </DF:MAC>,TYPE=INLINE,POS=<PRIM_INPUT>
                          FEA9'  30  0154       	BSBW	SETSTRING
                                 05  0157       	.BYTE	$$$FLAGS
                                 00  0158       	.BYTE	0
                                 F6  0159       	.BYTE	PRIM_INPUT
                                 07  015A       	.BYTE	$$CNT
               43 41 4D 3A 46 44 2F  015B       	.ASCII	\/DF:MAC\
                                     0162   299 					;SET /MACRO SWITCH ON LIBRARY INPUT
                                 04  0162   300 	RET				;RETURN TO CLI
                                     0163   301
                                     0163   302 LIBR_NAMES:
                                     0163   303 	$SETSTRING	</LE>,POS=<PRIM_OUTPUT-1> ;INCLUDE GLOBALS IN LISTING
                               0FFC  0163       	.WORD	SAVE_REG_MASK
                          FE98'  30  0165       	BSBW	SETSTRING
                                 04  0168       	.BYTE	$$$FLAGS
                                 00  0169       	.BYTE	0
                                 FF  016A       	.BYTE	PRIM_OUTPUT-1
                                 03  016B       	.BYTE	$$CNT
                           45 4C 2F  016C       	.ASCII	\/LE\
                                     016F   304
                                     016F   305 LIBR_FULL:
                                     016F   306 	$SETSTRING	</FU>,POS=<PRIM_OUTPUT-1> ;INCLUDE FULL DESCRIPTIONS
                               0FFC  016F       	.WORD	SAVE_REG_MASK
                          FE8C'  30  0171       	BSBW	SETSTRING
                                 04  0174       	.BYTE	$$$FLAGS
                                 00  0175       	.BYTE	0
                                 FF  0176       	.BYTE	PRIM_OUTPUT-1
                                 03  0177       	.BYTE	$$CNT
                           55 46 2F  0178       	.ASCII	\/FU\
                                     017B   307
LIBRARY         - BACKTRANSLATOR FOR LIBRARY COMMAND             22-AUG-1978 05:24:26   VAX-11 MACRO X0.3-11               Page  15
HJ01                                                                                                                             (3)

                                     017B   308 LIBR_NOGLOBALS:
                                     017B   309 	$SETSTRING	</-EP>,FLAGS=<BTR$M_EXPLICIT> ;SUPPRESS GLOBALS
                               0FFC  017B       	.WORD	SAVE_REG_MASK
                          FE80'  30  017D       	BSBW	SETSTRING
                                 20  0180       	.BYTE	$$$FLAGS
                                 00  0181       	.BYTE	0
                                 04  0182       	.BYTE	$$CNT
                        50 45 2D 2F  0183       	.ASCII	\/-EP\
                                     0187   310
                                     0187   311 LIBR_RSX11:
                                     0187   312 	$SETSTRING	<>,LBR,FLAGS=<BTR$M_FORCE>
                               0FFC  0187       	.WORD	SAVE_REG_MASK
                          FE74'  30  0189       	BSBW	SETSTRING
                                 02  018C       	.BYTE	$$$FLAGS
                                 0B  018D       	.BYTE	PROG_LBR
                                 00  018E       	.BYTE	$$CNT
                                     018F   313 					;INVOKE RSX LIBRARIAN
                                     018F   314
                                     018F   315 LIBR_SELECTIVE:
                                     018F   316 	$SETSTRING	</SS>		;GENERATE SELECTIVE SEARCH OPTION
                               0FFC  018F       	.WORD	SAVE_REG_MASK
                          FE6C'  30  0191       	BSBW	SETSTRING
                                 00  0194       	.BYTE	$$$FLAGS
                                 00  0195       	.BYTE	0
                                 03  0196       	.BYTE	$$CNT
                           53 53 2F  0197       	.ASCII	\/SS\
                                     019A   317
                                     019A   318 LIBR_SQUEEZE:
                                     019A   319 	$SETSTRING	</SZ>		;GENERATE MACRO SQUEEZE OPTION
                               0FFC  019A       	.WORD	SAVE_REG_MASK
                          FE61'  30  019C       	BSBW	SETSTRING
                                 00  019F       	.BYTE	$$$FLAGS
                                 00  01A0       	.BYTE	0
                                 03  01A1       	.BYTE	$$CNT
                           5A 53 2F  01A2       	.ASCII	\/SZ\
                                     01A5   320
                                     01A5   321 	.END
LIBRARY         - BACKTRANSLATOR FOR LIBRARY COMMAND             22-AUG-1978 05:24:26   VAX-11 MACRO X0.3-11               Page  16
SYMBOL TABLE                                                                                                                     (3)

$$$            = 00000004            CLI$B_RQFLGS     00000002            CLI$L_INIARGCNT  00000000
$$$.           = 00000001            CLI$B_RQINDX     00000001            CLI$L_LINKFLAG   00000014
$$$FLAGS       = 00000000            CLI$B_RQSTAT     00000003            CLI$L_RQVALU     0000000C
$$$GBL         = 00000000            CLI$B_RQTYPE     00000000            CLI$L_USRVAL     00000014
$$CNT          = 00000003            CLI$C_QDBITS     00000014            CLI$L_WORKAREA   00000000
$$T1           = 00000003            CLI$C_QUALDEF    00000014            CLI$M_ABSADR   = 00000002
$CLI.          = 0000020A R     03   CLI$C_REQDESC    0000001C            CLI$M_ALLOCCUR = 00000001
$CLI..         = 00000221 R     03   CLI$C_WORKAREA   00000080            CLI$M_BATCH    = 00000008
$QUALNUM$      = 00000012            CLI$K_ASCIIVAL = 00000041            CLI$M_CONCATINP= 00000002
BIT...         = 00000008            CLI$K_CLISERV  = 00000005            CLI$M_DBGEXCP  = 00010000
BITMAP           ********   X   03   CLI$K_ENDPRM1  = 00000030            CLI$M_DBGTRU   = 00000002
BTR$M_DECIMAL  = 00000080            CLI$K_ENDPRM2  = 00000031            CLI$M_DEBUG    = 00000001
BTR$M_EXPLICIT = 00000020            CLI$K_ENDPRM3  = 00000032            CLI$M_DUMMY    = 00000002
BTR$M_FORCE    = 00000002            CLI$K_ENDPRM4  = 00000033            CLI$M_EXPNAM   = 00000004
BTR$M_LIST     = 00000040            CLI$K_FILSPEC  = 00000044            CLI$M_INDIRECT = 00000010
BTR$M_MULTKEY  = 00000010            CLI$K_GETCMD   = 00000001            CLI$M_KEYVALU  = 00000002
BTR$M_RETURN   = 00000001            CLI$K_GETOPT   = 00000003            CLI$M_LASTVAL  = 00000001
BTR$M_TEMPPOS  = 00000004            CLI$K_GETQUAL  = 00000002            CLI$M_MOREINP  = 00000004
BTR$M_VALREQ   = 00000008            CLI$K_INITPRS  = 00000000            CLI$M_MOREVALS = 00000001
BTR$V_DECIMAL  = 00000007            CLI$K_INPSPEC  = 00000001            CLI$M_PARMDEF  = 00000008
BTR$V_EXPLICIT = 00000005            CLI$K_INPUT1   = 00000010            CLI$M_PARMPRS  = 00000001
BTR$V_FORCE    = 00000001            CLI$K_INPUT2   = 00000011            CLI$M_PARMREQ  = 00000001
BTR$V_LIST     = 00000006            CLI$K_INPUT3   = 00000012            CLI$M_QDEXPA   = 00000004
BTR$V_MULTKEY  = 00000004            CLI$K_INPUT4   = 00000013            CLI$M_QDUSRV   = 00000002
BTR$V_RETURN   = 00000000            CLI$K_KEYVAL   = 00000043            CLI$M_QUALEXP  = 00000002
BTR$V_TEMPPOS  = 00000002            CLI$K_KEYWORD  = 00000042            CLI$M_QUALTRU  = 00000001
BTR$V_VALREQ   = 00000003            CLI$K_LIBR_COMP= 00000001            CLI$M_TRMVRBLV = 00000300
BTR$_AMBIGKEYW = 00688030            CLI$K_LIBR_CREA= 00000002            CLI$M_VERIFY   = 00000004
BTR$_ILLEGOPT  = 00688018            CLI$K_LIBR_DELE= 00000003            CLI$M_VFYINP   = 00000020
BTR$_IMGFNF    = 00688060            CLI$K_LIBR_EXTR= 00000004            CLI$Q_QDVALDESC  00000004
BTR$_INTFAIL   = 00688048            CLI$K_LIBR_FULL= 0000000D            CLI$Q_RQDESC     00000008
BTR$_INVALKEYW = 00688028            CLI$K_LIBR_GLOB= 0000000E            CLI$S_PRITYP   = 00000004
BTR$_KEYVALOVR = 00688038            CLI$K_LIBR_INSE= 00000005            CLI$S_SUBTYP   = 00000004
BTR$_MISSNGVAL = 00688008            CLI$K_LIBR_LIST= 00000006            CLI$S_TRMVRBLV = 00000002
BTR$_NOTIMPLEM = 00688020            CLI$K_LIBR_MACR= 00000009            CLI$V_ABSADR   = 00000001
BTR$_OPTVALOVR = 00688050            CLI$K_LIBR_NAME= 0000000C            CLI$V_ALLOCCUR = 00000000
BTR$_STRINGOVR = 00688010            CLI$K_LIBR_OBJE= 0000000A            CLI$V_BATCH    = 00000003
BTR$_TOOMANY   = 00688058            CLI$K_LIBR_OUTP= 0000000B            CLI$V_CONCATINP= 00000001
BTR$_UNEXPLIST = 00688040            CLI$K_LIBR_REMO= 00000007            CLI$V_DBGEXCP  = 00000010
BTRAN          = 00680000            CLI$K_LIBR_REPL= 00000008            CLI$V_DBGTRU   = 00000001
CLI$A_ABSACT     00000014            CLI$K_LIBR_RSX1= 0000000F            CLI$V_DEBUG    = 00000000
CLI$A_ERRACT     00000004            CLI$K_LIBR_SELE= 00000010            CLI$V_DUMMY    = 00000001
CLI$A_FLSACT     00000010            CLI$K_LIBR_SQUE= 00000011            CLI$V_EXPNAM   = 00000002
CLI$A_IMGFILED   00000010            CLI$K_NUMERVAL = 00000040            CLI$V_INDIRECT = 00000004
CLI$A_IMGHDADR   0000000C            CLI$K_OUTPUT1  = 00000020            CLI$V_KEYVALU  = 00000001
CLI$A_PROGXFER   00000004            CLI$K_OUTPUT2  = 00000021            CLI$V_LASTVAL  = 00000000
CLI$A_PRSACT     00000010            CLI$K_OUTPUT3  = 00000022            CLI$V_MOREINP  = 00000002
CLI$A_QDVALADR   00000008            CLI$K_OUTPUT4  = 00000023            CLI$V_MOREVALS = 00000000
CLI$A_QUALST     00000018            CLI$K_OUTSPEC  = 00000002            CLI$V_PARMDEF  = 00000003
CLI$A_RQADDR     0000000C            CLI$K_PARDONE  = 00000003            CLI$V_PARMPRS  = 00000000
CLI$A_TRUACT     0000000C            CLI$K_QDBITS     00000014            CLI$V_PARMREQ  = 00000000
CLI$A_UTILSERV   00000008            CLI$K_QUALDEF    00000014            CLI$V_PRITYP   = 00000004
CLI$B_BITNUM     00000001            CLI$K_REQDESC    0000001C            CLI$V_QDEXPA   = 00000002
CLI$B_QDBLKSIZ   00000000            CLI$K_UTILOPR  = 00000000            CLI$V_QDUSRV   = 00000001
CLI$B_QDCODE     00000001            CLI$K_VALCONV  = 00000004            CLI$V_QUALEXP  = 00000001
CLI$B_QDFLGS     00000002            CLI$K_WORKAREA   00000080            CLI$V_QUALTRU  = 00000000
CLI$B_QDSTAT     00000003            CLI$L_CLIFLAG    00000018            CLI$V_SUBTYP   = 00000000
LIBRARY         - BACKTRANSLATOR FOR LIBRARY COMMAND             22-AUG-1978 05:24:26   VAX-11 MACRO X0.3-11               Page  17
SYMBOL TABLE                                                                                                                     (3)

CLI$V_TRMVRBLV = 00000008            PROG_DMP       = 00000007            QUA_V_IMAGE    = 0000000A
CLI$V_VERIFY   = 00000002            PROG_F4V       = 00000002            QUA_V_INTDEF   = 00000009
CLI$V_VFYINP   = 00000005            PROG_LBR       = 0000000B            QUA_V_KEYVAL   = 0000000E
CLI$W_QDVALSIZ   00000004            PROG_LIB       = 0000000A            QUA_V_LOCALKEY = 00000001
CLI$W_RQSIZE     00000008            PROG_MAC       = 00000004            QUA_V_MAXPARM  = 00000004
CLI$W_SERVCOD    00000001            PROG_MAR       = 00000003            QUA_V_MINPARM  = 00000000
CLIWORKAREA      ********   X   03   PROG_PIP       = 00000001            QUA_V_NEG      = 00000006
FATAL          = 00000004            PROG_SLP       = 00000006            QUA_V_ONEVAL   = 0000000D
GBL...         = 00000000            PROG_SOS       = 00000005            QUA_V_OUTPUT   = 0000000B
GETKEYWORD       ********   X   04   PROG_SRT       = 0000000E            QUA_V_PARM     = 00000004
GETSTRING        ********   X   04   PROG_TKB       = 00000009            QUA_V_VAL      = 00000005
GETSUBVAL        ********   X   04   PROG_UFD       = 0000000D            QUA_V_VALREQ   = 0000000C
HOLDLOC          ********   X   04   PRO_B_FLAGS      00000001            QUA_V_VERB     = 00000003
INPUT2_ARGLIST   0000002C R     03   PRO_B_PROMPT     00000000            QUA_W_FLAGS      00000003
INPUT2_DESC      0000003C R     03   PRO_K_LENGTH     00000002            QUA_W_PROMPT     00000009
INPUT2_QUALS     00000058 R     03   PRO_M_CONCAT   = 00000001            QUA_W_QUALIST    00000006
INPUT_ARGLIST    00000000 R     03   PRO_M_IMPCAT   = 00000002            SAVE_REG_MASK  = 00000FFC
INPUT_DESC       00000010 R     03   PRO_M_LIST     = 00000004            SETSTRING        ********   X   04
INSERTARG        ********   X   04   PRO_M_OPTION   = 00000008            STICKY_FLAG      ********   X   04
LAST_PARAM     = FFFFFFEC            PRO_M_REQ      = 00000010            VALUE_DESC       ********   X   04
LIBFLAGS         00000222 R     03   PRO_M_STRING   = 00000020
LIBR             00000000 RG    04   PRO_V_CONCAT   = 00000000
LIBR$M_EXTRACT = 00000008            PRO_V_IMPCAT   = 00000001
LIBR$M_EXTRCOMP= 00000002            PRO_V_LIST     = 00000002
LIBR$M_INPUT   = 00000004            PRO_V_OPTION   = 00000003
LIBR$M_OVRDEF  = 00000001            PRO_V_REQ      = 00000004
LIBR$V_EXTRACT = 00000003            PRO_V_STRING   = 00000005
LIBR$V_EXTRCOMP= 00000001            QUAL_ARGLIST     0000009C R     03
LIBR$V_INPUT   = 00000002            QUAL_DESC        000000AC R     03
LIBR$V_OVRDEF  = 00000000            QUAL_LIST        000000C8 R     03
LIBR_COMPRESS    00000088 R     04   QUA_B_DEFVAL     00000002
LIBR_CREATE      000000BE R     04   QUA_B_IMAGE      00000005
LIBR_DELETE      000000D0 R     04   QUA_B_INDEX      00000001
LIBR_EXTRACT     000000DC R     04   QUA_B_OFFSET     00000000
LIBR_FULL        0000016F R     04   QUA_B_PARMCNT    00000008
LIBR_INSERT      000000EE R     04   QUA_G_CHNGLST    00000006
LIBR_LIST        00000116 R     04   QUA_M_BATDEF   = 00000100
LIBR_LISTDEF     0000010B R     04   QUA_M_CHNGLIST = 00000001
LIBR_MACRO       0000013E R     04   QUA_M_DEFTRUE  = 00000080
LIBR_NAMES       00000163 R     04   QUA_M_FILE     = 00000004
LIBR_NOGLOBALS   0000017B R     04   QUA_M_IMAGE    = 00000400
LIBR_REMOVE      000000FF R     04   QUA_M_INTDEF   = 00000200
LIBR_RSX11       00000187 R     04   QUA_M_KEYVAL   = 00004000
LIBR_SELECTIVE   0000018F R     04   QUA_M_LOCALKEY = 00000002
LIBR_SIZE        00000098 R     04   QUA_M_NEG      = 00000040
LIBR_SQUEEZE     0000019A R     04   QUA_M_ONEVAL   = 00002000
NONE           = 00000000            QUA_M_OUTPUT   = 00000800
ORDERSUBVAL      ********   X   04   QUA_M_PARM     = 00000010
OUTPUT_ARGLIST   00000070 R     03   QUA_M_VAL      = 00000020
OUTPUT_DESC      00000080 R     03   QUA_M_VALREQ   = 00001000
PARAMLOC         ********   X   04   QUA_M_VERB     = 00000008
PRIM_INPUT     = FFFFFFF6            QUA_S_MAXPARM  = 00000004
PRIM_OUTPUT    = 00000000            QUA_S_MINPARM  = 00000004
PROG_BP2       = 0000000C            QUA_V_BATDEF   = 00000008
PROG_CBL       = 00000008            QUA_V_CHNGLIST = 00000000
PROG_CNT       = 0000000F            QUA_V_DEFTRUE  = 00000007
PROG_DIF       = 0000000F            QUA_V_FILE     = 00000002
LIBRARY         - BACKTRANSLATOR FOR LIBRARY COMMAND             22-AUG-1978 05:24:26   VAX-11 MACRO X0.3-11               Page  18
PROGRAM SECTION SYNOPSIS                                                                                                         (3)


PROGRAM SECTION SYNOPSIS

.  ABS  .        00000000      00     NOPIC   USR   CON   ABS   LCL NOSHR NOEXE NORD  NOWRT BYTE
. BLANK .        00000000      01     NOPIC   USR   CON   REL   LCL NOSHR   EXE   RD    WRT BYTE
$ABS$            00000080      02     NOPIC   USR   CON   ABS   LCL NOSHR   EXE   RD    WRT BYTE
IMPURE_          00000223      03     NOPIC   USR   CON   REL   LCL NOSHR NOEXE   RD    WRT LONG
PURE_            000001A5      04     NOPIC   USR   CON   REL   LCL NOSHR   EXE   RD  NOWRT BYTE


THERE WERE NO ERRORS OR WARNINGS.
11930. BYTES LEFT IN FREE MEMORY POOL.
1554. BYTES OF RECLAIMED MEMORY.
OBJ$:LIBRCMD,LIS$:LIBRCMD/-SP/LI:MEB=EXECML$/ML,LIB$:B/ML,SRC$:LIBRCMD
61 MLB DIR RDS - 653 GETS TO DEFINE 37 MACROS. 148 INTER. FILE WRITES.
