LINK2           /RSX - BACKTRANSLATOR FOR LINK/RSX COMMAND       22-AUG-1978 05:27:14   VAX-11 MACRO X0.3-11               Page   1
HJ                                                                                                                               (1)

                                     0000     1 	.TITLE	LINK2/RSX - BACKTRANSLATOR FOR LINK/RSX COMMAND
                                     0000     2 	.IDENT	/HJ/
                                     0000     3
                                     0000     4 ;
                                     0000     5 ; COPYRIGHT (C) 1977
                                     0000     6 ; DIGITAL EQUIPMENT CORPORATION, MAYNARD, MASS.
                                     0000     7 ;
                                     0000     8 ; THIS SOFTWARE IS FURNISHED UNDER  A LICENSE FOR USE ONLY  ON  A
                                     0000     9 ; SINGLE COMPUTER SYSTEM AND MAY BE  COPIED ONLY WITH  THE INCLU-
                                     0000    10 ; SION OF  THE  ABOVE  COPYRIGHT NOTICE.  THIS SOFTWARE,  OR  ANY
                                     0000    11 ; OTHER COPIES THEREOF, MAY NOT BE  PROVIDED  OR  OTHERWISE  MADE
                                     0000    12 ; AVAILABLE TO ANY OTHER PERSON EXCEPT  FOR  USE  ON  SUCH SYSTEM
                                     0000    13 ; AND TO  ONE WHO AGREES  TO  THESE LICENSE  TERMS.  TITLE TO AND
                                     0000    14 ; OWNERSHIP OF THE SOFTWARE SHALL AT ALL TIMES REMAIN IN DEC.
                                     0000    15 ;
                                     0000    16 ; THE INFORMATION IN THIS SOFTWARE  IS  SUBJECT TO CHANGE WITHOUT
                                     0000    17 ; NOTICE AND SHOULD NOT BE CONSTRUED  AS  A COMMITMENT BY DIGITAL
                                     0000    18 ; EQUIPMENT CORPORATION.
                                     0000    19 ;
                                     0000    20 ; DEC ASSUMES NO RESPONSIBILITY FOR THE USE OR RELIABILITY OF ITS
                                     0000    21 ; SOFTWARE ON EQUIPMENT WHICH IS NOT SUPPLIED BY DEC.
                                     0000    22 ;
                                     0000    23 ; H.J.	DECEMBER 1977
                                     0000    24 ;
                                     0000    25 ; BACKTRANSLATOR LINK/RSX11
                                     0000    26 ;
LINK2           /RSX - BACKTRANSLATOR FOR LINK/RSX COMMAND       22-AUG-1978 05:27:14   VAX-11 MACRO X0.3-11               Page   2
HJ                                                                                                                               (2)

                                     0000    28 ;	.SBTTL INITIALIZE DATA DEFINITIONS
                                     0000    29 ;
                                     0000    30 ; MACRO LIBRARY CALLS
                                     0000    31 ;
                                     0000    32 	$BTDEFS				;DEFINE VALUES TO BE USED LOCALLY
                                     0000       	.SAVE
                                 00000000       	.PSECT	$ABS$,ABS
                                     0000       	.RESTORE
                                     0000    33
                                     0000    34 ;
                                     0000    35 ; LOCAL SYMBOLS
                                     0000    36 ;
                           00000000  0000    37 	LINK$V_OVERLAY	= 0		;FLAG SET INDICATES /OVERLAY
                           00000001  0000    38 	LINK$M_OVERLAY	= 1
                           00000001  0000    39 	LINK$V_OPTIONS	= 1		;FLAG SET INDICATES /OPTIONS:FILESPEC
                           00000002  0000    40 	LINK$M_OPTIONS	= 2
                                     0000    41
                                     0000    42 ;
                                     0000    43 ; ARGUMENT LIST OFFSET DEFINITIONS
                                     0000    44 ;
                                     0000    45
                                     0000    46 ;
                                     0000    47 ; LOCAL DATA
                                     0000    48 ;
                                     0000    49 	IMPURE
                                 00000000       	.PSECT	IMPURE_	LONG,RD,WRT,NOEXE
                                     0000    50 ;
                                     0000    51 ; HERE LIES THE FAB AND RAB FOR CREATION OF THE INDIRECT FILE FOR TKB
                                     0000    52 ;
                                     0000    53 	.ALIGN	LONG
                                     0000    54 AFAB:	$FAB	FNM=<ATLNK.CMD;1>,FNS=<11>,FOP=<SUP>,RAT=<CR>
                                     0000       	.SAVE
                                 00000000       	.PSECT	$ABS$,ABS
                                     0000       FAB$B_BID:
                           00000001  0000        			.BLKB	1
                                     0001       FAB$B_BLN:
                           00000002  0001        			.BLKB	1
                                     0002       FAB$W_IFI:
                           00000004  0002        			.BLKW	1
                                     0004       FAB$L_FOP:
                           00000008  0004        			.BLKL	1
                                     0008       FAB$L_STS:
                           0000000C  0008        			.BLKL	1
                                     000C       FAB$L_STV:
                           00000010  000C        			.BLKL	1
                                     0010       FAB$L_ALQ:
                           00000014  0010        			.BLKL	1
                                     0014       FAB$W_DEQ:
                           00000016  0014        			.BLKW	1
                                     0016       FAB$B_FAC:
                           00000017  0016        			.BLKB	1
                                     0017       FAB$B_SHR:
                           00000018  0017        			.BLKB	1
                                     0018       FAB$L_CTX:
                           0000001C  0018        			.BLKL	1
                                     001C       FAB$B_RTV:
                           0000001D  001C        			.BLKB	1
LINK2           /RSX - BACKTRANSLATOR FOR LINK/RSX COMMAND       22-AUG-1978 05:27:14   VAX-11 MACRO X0.3-11               Page   3
HJ                                                                                                                               (2)

                                     001D       FAB$B_ORG:
                           0000001E  001D        			.BLKB	1
                                     001E       FAB$B_RAT:
                           0000001F  001E        			.BLKB	1
                                     001F       FAB$B_RFM:
                           00000020  001F        			.BLKB	1
                                     0020       FAB$L_JNL:
                           00000024  0020        			.BLKL	1
                                     0024       FAB$L_XAB:
                           00000028  0024        			.BLKL	1
                                     0028       FAB$L_NAM:
                           0000002C  0028        			.BLKL	1
                                     002C       FAB$L_FNA:
                           00000030  002C        			.BLKL	1
                                     0030       FAB$L_DNA:
                           00000034  0030        			.BLKL	1
                                     0034       FAB$B_FNS:
                           00000035  0034        			.BLKB	1
                                     0035       FAB$B_DNS:
                           00000036  0035        			.BLKB	1
                                     0036       FAB$W_MRS:
                           00000038  0036        			.BLKW	1
                                     0038       FAB$L_MRN:
                           0000003C  0038        			.BLKL	1
                                     003C       FAB$W_BLS:
                           0000003E  003C        			.BLKW	1
                                     003E       FAB$B_BKS:
                           0000003F  003E        			.BLKB	1
                                     003F       FAB$B_FSZ:
                           00000040  003F        			.BLKB	1
                                     0040       FAB$L_DEV:
                           00000044  0040        			.BLKL	1
                                     0044       FAB$L_SDC:
                           00000048  0044        			.BLKL	1
                           00000050  0048        			.BLKL	2
                                     0050       FAB$C_BLN:
                                     0050       FAB$K_BLN:
                                 00000000       	.RESTORE
                                 03  0000       					.BYTE FAB$C_BID
                                 50  0001       					.BYTE FAB$C_BLN
                           00000050  0002       					.BLKB FAB$C_BLN-2
                           00000016  0050       					.=$$.TAB+FAB$B_FAC
                                 00  0016       					.BYTE	<$$.TMP>
                                 00  0017       					.BYTE	<$$.TMP>
                           0000002C  0018       					.=$$.TAB+FAB$L_FNA
                           00000000  002C       					.LONG	<0>
                           00000034  0030       					.=$$.TAB+FAB$B_FNS
                                 0B  0034       					.BYTE	<11>
                           00000030  0035       					.=$$.TAB+FAB$L_DNA
                           00000000  0030       					.LONG	<0>
                           00000035  0034       					.=$$.TAB+FAB$B_DNS
                                 00  0035       					.BYTE	<0>
                           0000001C  0036       					.=$$.TAB+FAB$B_RTV
                                 00  001C       					.BYTE	<0>
                                 00  001D       					.BYTE	<FAB$C_SEQ>
                                 02  001E       					.BYTE	<$$.TMP>
                           00000004  001F       					.=$$.TAB+FAB$L_FOP
LINK2           /RSX - BACKTRANSLATOR FOR LINK/RSX COMMAND       22-AUG-1978 05:27:14   VAX-11 MACRO X0.3-11               Page   4
HJ                                                                                                                               (2)

                           00000004  0004       					.LONG	<$$.TMP>
                           00000024  0008       					.=$$.TAB+FAB$L_XAB
                           00000000  0024       					.LONG	<0>
                           00000036  0028       					.=$$.TAB+FAB$W_MRS
                               0000  0036       					.WORD	<0>
                           00000020  0038       					.=$$.TAB+FAB$L_JNL
                           00000000  0020       					.LONG	<0>
                           00000038  0024       					.=$$.TAB+FAB$L_MRN
                           00000000  0038       					.LONG	<0>
                           00000010  003C       					.=$$.TAB+FAB$L_ALQ
                           00000000  0010       					.LONG	<0>
                               0000  0014       					.WORD	<0>
                           0000003C  0016       					.=$$.TAB+FAB$W_BLS
                               0000  003C       					.WORD	<0>
                           00000028  003E       					.=$$.TAB+FAB$L_NAM
                           00000000  0028       					.LONG	<0>
                           0000001F  002C       					.=$$.TAB+FAB$B_RFM
                                 02  001F       					.BYTE	<FAB$C_VAR>
                           0000003F  0020       					.=$$.TAB+FAB$B_FSZ
                                 00  003F       					.BYTE	<0>
                           0000003E  0040       					.=$$.TAB+FAB$B_BKS
                                 00  003E       					.BYTE	<0>
                           00000018  003F       					.=$$.TAB+FAB$L_CTX
                           00000000  0018       					.LONG	<0>
                                     001C       						.SAVE
                                 00000000       					.PSECT $RMSNAM
   31 3B 44 4D 43 2E 4B 4E 4C 54 41  0000       					.ASCII %ATLNK.CMD;1%
                                 0000001C       						.RESTORE
                           0000002C  001C       					.=$$.TAB+FAB$L_FNA
                           00000000' 002C       					.LONG	<$$.TMPX>
                           00000034  0030       					.=$$.TAB+FAB$B_FNS
                                 0B  0034       					.BYTE	<$$.TMPX1>
                           00000050  0035       					.=$$.TABEND
                                     0050    55 ARAB:	$RAB	FAB=<AFAB>
                                     0050       	.SAVE
                                 00000050       	.PSECT	$ABS$,ABS
                           00000000  0050       	.=0
                                     0000       RAB$B_BID:
                           00000001  0000        			.BLKB	1
                                     0001       RAB$B_BLN:
                           00000002  0001        			.BLKB	1
                                     0002       RAB$W_ISI:
                           00000004  0002        			.BLKW	1
                                     0004       RAB$L_ROP:
                           00000005  0004        			.BLKB	1
                                     0005       RAB$B_ROP1:
                           00000006  0005        			.BLKB	1
                                     0006       RAB$B_ROP2:
                           00000007  0006        			.BLKB	1
                                     0007       RAB$B_ROP3:
                           00000008  0007        			.BLKB	1
                                     0008       RAB$L_STS:
                           0000000C  0008        			.BLKL	1
                                     000C       RAB$L_STV:
                           00000010  000C        			.BLKL	1
                                     0010       RAB$W_RFA:
                                     0010       RAB$L_RFA0:
LINK2           /RSX - BACKTRANSLATOR FOR LINK/RSX COMMAND       22-AUG-1978 05:27:14   VAX-11 MACRO X0.3-11               Page   5
HJ                                                                                                                               (2)

                           00000014  0010        			.BLKL	1
                                     0014       RAB$W_RFA4:
                           00000016  0014        			.BLKW	1
                           00000018  0016        			.BLKW	1
                                     0018       RAB$L_CTX:
                           0000001C  0018        			.BLKL	1
                           0000001E  001C        			.BLKW	1
                                     001E       RAB$B_RAC:
                           0000001F  001E        			.BLKB	1
                                     001F       RAB$B_TMO:
                           00000020  001F        			.BLKB	1
                                     0020       RAB$W_USZ:
                           00000022  0020        			.BLKW	1
                                     0022       RAB$W_RSZ:
                           00000024  0022        			.BLKW	1
                                     0024       RAB$L_UBF:
                           00000028  0024        			.BLKL	1
                                     0028       RAB$L_RBF:
                           0000002C  0028        			.BLKL	1
                                     002C       RAB$L_RHB:
                           00000030  002C        			.BLKL	1
                                     0030       RAB$L_KBF:
                                     0030       RAB$L_PBF:
                           00000034  0030        			.BLKL	1
                                     0034       RAB$B_KSZ:
                                     0034       RAB$B_PSZ:
                           00000035  0034        			.BLKB	1
                                     0035       RAB$B_KRF:
                           00000036  0035        			.BLKB	1
                                     0036       RAB$B_MBF:
                           00000037  0036        			.BLKB	1
                                     0037       RAB$B_MBC:
                           00000038  0037        			.BLKB	1
                                     0038       RAB$L_BKT:
                                     0038       RAB$L_DCT:
                           0000003C  0038        			.BLKL	1
                                     003C       RAB$L_FAB:
                           00000040  003C        			.BLKL	1
                           00000044  0040        			.BLKL	1
                                     0044       RAB$C_BLN:
                                     0044       RAB$K_BLN:
                                 00000050       	.RESTORE
                                 01  0050       					.BYTE RAB$C_BID
                                 44  0051       					.BYTE RAB$C_BLN
                           00000094  0052       					.BLKB RAB$C_BLN-2
                           0000006E  0094       					.=$$.TAB+RAB$B_RAC
                                 00  006E       					.BYTE	<RAB$C_SEQ>
                           00000054  006F       					.=$$.TAB+RAB$L_ROP
                           00000000  0054       					.LONG	<$$.TMP>
                           00000074  0058       					.=$$.TAB+RAB$L_UBF
                           00000000  0074       					.LONG	<0>
                           00000070  0078       					.=$$.TAB+RAB$W_USZ
                               0000  0070       					.WORD	<0>
                           00000078  0072       					.=$$.TAB+RAB$L_RBF
                           00000000  0078       					.LONG	<0>
                           00000072  007C       					.=$$.TAB+RAB$W_RSZ
                               0000  0072       					.WORD	<0>
LINK2           /RSX - BACKTRANSLATOR FOR LINK/RSX COMMAND       22-AUG-1978 05:27:14   VAX-11 MACRO X0.3-11               Page   6
HJ                                                                                                                               (2)

                           00000088  0074       					.=$$.TAB+RAB$L_BKT
                           00000000  0088       					.LONG	<0>
                           00000080  008C       					.=$$.TAB+RAB$L_KBF
                           00000000  0080       					.LONG	<0>
                                 00  0084       					.BYTE	<0>
                                 00  0085       					.BYTE	<0>
                           0000007C  0086       					.=$$.TAB+RAB$L_RHB
                           00000000  007C       					.LONG	<0>
                           0000008C  0080       					.=$$.TAB+RAB$L_FAB
                           00000000' 008C       					.LONG	<AFAB>
                           00000086  0090       					.=$$.TAB+RAB$B_MBF
                                 00  0086       					.BYTE	<0>
                                 00  0087       					.BYTE	<0>
                           0000006F  0088       					.=$$.TAB+RAB$B_TMO
                                 00  006F       					.BYTE	<0>
                           00000068  0070       					.=$$.TAB+RAB$L_CTX
                           00000000  0068       					.LONG	<0>
                           00000085  006C       					.=$$.TAB+RAB$B_KRF
                                 00  0085       					.BYTE	<0>
                           00000094  0086       				.=$$.TABEND
                                     0094    56
                                     0094    57 	PURE
                                 00000000       	.PSECT	PURE_	BYTE,RD,EXE,NOWRT
                              2F 2F  0000    58 SLASHES:	.ASCII	\//\		;SLASH CHARACTERS USED IN INDIRECT
                                     0002    59 					;FILE CONSTRUCTION
                  4B 4E 4C 54 41 40  0002    60 FNAME:		.ASCII	\@ATLNK\	;INDIRECT FILE NAME WE CREATE
LINK2           /RSX - BACKTRANSLATOR FOR LINK/RSX COMMAND       22-AUG-1978 05:27:14   VAX-11 MACRO X0.3-11               Page   7
HJ                                                                                                                               (3)

                                     0008    62 ;	.SBTTL LINK2/RSX
                                     0008    63 ;+
                                     0008    64 ; BACKTRANSLATOR LINK/RSX
                                     0008    65 ;
                                     0008    66 ; CONVERTS DCL COMMAND TO TKB INDIRECT COMMAND FILE
                                     0008    67 ;
                                     0008    68 ;
                                     0008    69 ; INPUTS:
                                     0008    70 ;  THE INPUTS ARE RETURNED FROM THE DCL RESULT PARSER AS RESPONSES
                                     0008    71 ;  TO THE VARIOUS REQUEST DESCRIPTORS THAT ARE GIVEN TO IT.
                                     0008    72 ;
                                     0008    73 ;
                                     0008    74 ; OUTPUTS:
                                     0008    75 ;  THE OUTPUT CONSISTS OF THE INDIRECT COMMAND FILE 'ATLNK.CMD;1'.
                                     0008    76 ;  THE FILE CONTAINS THE APPROPRIATE COMMANDS TO ACCOMPLISH THE LINK.
                                     0008    77 ;  THE CALLER OPENS THE IMAGE TKB AND INVOKES IT GIVING @ATLNK
                                     0008    78 ;  IF NO ERROR OCCURS.
                                     0008    79 ;
                                     0008    80 ;-
                                     0008    81
                                     0008    82 	PURE
                                 00000008       	.PSECT	PURE_	BYTE,RD,EXE,NOWRT
                                     0008    83
                                     0008    84 LINK2::
                          FFF5'  30  0008    85 	BSBW	COMMAND_GEN1		;GENERATE COMMAND LINE OF TKB FILE
                                     000B    86 	$CREATE	FAB=W^AFAB		;CREATE THE INDIRECT FILE 'ATLNK.CMD'
                     0000'CF     DF  000B       		PUSHAL	W^AFAB
   00000000'9F            01     FB  000F       		CALLS	#$$.TMP1,@#SYS$CREATE
            44            50     E9  0016    87 	BLBC	R0,40$			;BRANCH IF ERROR
            59       0050'CF     9E  0019    88 	MOVAB	W^ARAB,R9		;GET A POINTER TO THE RAB
                                     001E    89 	$CONNECT RAB=R9			;SET UP THE RAB
                          59     DD  001E       		PUSHL	R9
   00000000'9F            01     FB  0020       		CALLS	#$$.TMP1,@#SYS$CONNECT
            33            50     E9  0027    90 	BLBC	R0,40$			;BRANCH IF ERROR
                                     002A    91 	$RAB_STORE RAB=R9,RSZ=W^RESULT_DESC,RBF=@W^RESULT_DESC+4
         28 A9       0004'DF     DE  002A       				MOVAL @W^RESULT_DESC+4,RAB$L_RBF(R9)
         22 A9       0000'CF     B0  0030       				MOVW W^RESULT_DESC,RAB$W_RSZ(R9)
                                     0036    92 	$PUT	RAB=R9			;PUT THE COMMAND LINE INTO THE FILE
                          59     DD  0036       		PUSHL	R9
   00000000'9F            01     FB  0038       		CALLS	#$$.TMP1,@#SYS$PUT
            1B            50     E9  003F    93 	BLBC	R0,40$			;BRANCH IF ERROR
       0000'CF            00     E0  0042    94 	BBS	#LINK$V_OVERLAY,W^LINKFLAGS,20$ ;BRANCH IF /MP, DON'T WANT /
                          18         0047
                                     0048    95 	$RAB_STORE RAB=R9,RSZ=#1,RBF=SLASHES ;SET UP POINTER TO '/'
         28 A9         B5 AF     DE  0048       				MOVAL SLASHES,RAB$L_RBF(R9)
         22 A9            01     B0  004D       				MOVW #1,RAB$W_RSZ(R9)
                                     0051    96 	$PUT	RAB=R9			;CREATE A '/' RECORD
                          59     DD  0051       		PUSHL	R9
   00000000'9F            01     FB  0053       		CALLS	#$$.TMP1,@#SYS$PUT
            03            50     E8  005A    97 	BLBS	R0,20$			;BRANCH IF NO ERROR
                          FFA0'  31  005D    98 40$:	BRW	IMMED_EXIT		;TERMINATE NOW WITH RMS ERROR CODE
       0000'CF            01     E1  0060    99 20$:	BBC	#LINK$V_OPTIONS,W^LINKFLAGS,30$ ;BRANCH IF NO OPTION FILE LINE
                          18         0065
                                     0066   100 	$RAB_STORE RAB=R9,RSZ=W^OPTLINSIZ,RBF=W^OPTLINBUF ;SET UP @FILE RECORD
         28 A9       0000'CF     DE  0066       				MOVAL W^OPTLINBUF,RAB$L_RBF(R9)
         22 A9       0000'CF     B0  006C       				MOVW W^OPTLINSIZ,RAB$W_RSZ(R9)
                                     0072   101 	$PUT	RAB=R9			;OUTPUT THE @FILE LINE
LINK2           /RSX - BACKTRANSLATOR FOR LINK/RSX COMMAND       22-AUG-1978 05:27:14   VAX-11 MACRO X0.3-11               Page   8
HJ                                                                                                                               (3)

                          59     DD  0072       		PUSHL	R9
   00000000'9F            01     FB  0074       		CALLS	#$$.TMP1,@#SYS$PUT
            DF            50     E9  007B   102 	BLBC	R0,40$			;BRANCH IF ERROR
                                     007E   103 30$:	$RAB_STORE RAB=R9,RSZ=#2,RBF=SLASHES ;SET UP POINTER TO '//'
         28 A9       FF7E CF     DE  007E       				MOVAL SLASHES,RAB$L_RBF(R9)
         22 A9            02     B0  0084       				MOVW #2,RAB$W_RSZ(R9)
                                     0088   104 	$PUT	RAB=R9			;CREATE THE TERMINATING '//' RECORD
                          59     DD  0088       		PUSHL	R9
   00000000'9F            01     FB  008A       		CALLS	#$$.TMP1,@#SYS$PUT
            C9            50     E9  0091   105 	BLBC	R0,40$			;BRANCH IF ERROR
                                     0094   106 	$CLOSE	FAB=W^AFAB		;CLOSE THE FILE
                     0000'CF     DF  0094       		PUSHAL	W^AFAB
   00000000'9F            01     FB  0098       		CALLS	#$$.TMP1,@#SYS$CLOSE
            BB            50     E9  009F   107 	BLBC	R0,40$			;BRANCH IF ERROR
       0000'CF       0000'CF     9E  00A2   108 	MOVAB	W^OPTLIST,W^OPTLISTPTR	;RESET OPTION LIST POINTER TO NULL
            59       0000'CF     9E  00A9   109 	MOVAB	W^ARGSLIST,R9		;POINT TO ARGUMENT AREA
         00'A9         07 A9     9E  00AE   110 	MOVAB	7(R9),B^ARGSLISTPTR-ARGSLIST(R9) ;SET THE END ADDRESS OF TEXT
                          89     94  00B3   111 	CLRB	(R9)+			;SET THE FIRST BYTE TO PRIMARY OUTPUT
       FF48 CF            06     28  00B5   112 	MOVC3	#6,FNAME,(R9)		;SET THE INDIRECT FILE SPEC
                          69         00BA
                                     00BB   113 	DEFPROG	TKB,NOSTICK		;RETURN DEFAULT PROGRAM TO RUN
            50            09     D0  00BB       	MOVL	#PROG_TKB,R0
       0000'CF            01     D0  00BE       	MOVL	#1,W^STICKY_FLAG
                                 05  00C3   114 	RSB				;RETURN TO GENERATE COMMAND TEXT
                                     00C4   115
                                     00C4   116
                                     00C4   117 	.END
LINK2           /RSX - BACKTRANSLATOR FOR LINK/RSX COMMAND       22-AUG-1978 05:27:14   VAX-11 MACRO X0.3-11               Page   9
SYMBOL TABLE                                                                                                                     (3)

$$.TAB         = 00000050 R     03   FAB$B_SHR        00000017            FAB$M_PUT      = 00000001
$$.TABEND      = 00000094 R     03   FAB$C_BID      = 00000003            FAB$M_RCK      = 00800000
$$.TMP         = 00000000            FAB$C_BLN        00000050            FAB$M_RWC      = 00000800
$$.TMP1        = 00000001            FAB$C_FIX      = 00000001            FAB$M_RWO      = 00000080
$$.TMP2        = 000000CF            FAB$C_HSH      = 00000030            FAB$M_SCF      = 00004000
$$.TMPX        = 00000000 R     04   FAB$C_IDX      = 00000020            FAB$M_SHRDEL   = 00000004
$$.TMPX1       = 0000000B            FAB$C_MAXRFM   = 00000003            FAB$M_SHRGET   = 00000002
..AFLG         = 00000000            FAB$C_REL      = 00000010            FAB$M_SHRPUT   = 00000001
..FLG          = 00000002            FAB$C_RFM_DFLT = 00000002            FAB$M_SHRUPD   = 00000008
..TYP          = 00000059            FAB$C_SEQ      = 00000000            FAB$M_SPL      = 00002000
.LEN           = 00000002            FAB$C_UDF      = 00000000            FAB$M_SQO      = 00000040
AFAB             00000000 R     03   FAB$C_VAR      = 00000002            FAB$M_SUP      = 00000004
ARAB             00000050 R     03   FAB$C_VFC      = 00000003            FAB$M_TEF      = 10000000
ARGSLIST         ********   X   05   FAB$K_BLN        00000050            FAB$M_TMD      = 00000010
ARGSLISTPTR      ********   X   05   FAB$L_ALQ        00000010            FAB$M_TMP      = 00000008
BIT...         = 00000020            FAB$L_CTX        00000018            FAB$M_TRN      = 00000010
BTR$M_DECIMAL  = 00000080            FAB$L_DEV        00000040            FAB$M_UFM      = 04000000
BTR$M_EXPLICIT = 00000020            FAB$L_DNA        00000030            FAB$M_UFO      = 00020000
BTR$M_FORCE    = 00000002            FAB$L_FNA        0000002C            FAB$M_UPD      = 00000008
BTR$M_LIST     = 00000040            FAB$L_FOP        00000004            FAB$M_UPI      = 00000040
BTR$M_MULTKEY  = 00000010            FAB$L_JNL        00000020            FAB$M_WCK      = 00000200
BTR$M_RETURN   = 00000001            FAB$L_MRN        00000038            FAB$S_ORG      = 00000004
BTR$M_TEMPPOS  = 00000004            FAB$L_NAM        00000028            FAB$S_PPF_RAT  = 00000008
BTR$M_VALREQ   = 00000008            FAB$L_SDC        00000044            FAB$V_BIO      = 00000005
BTR$V_DECIMAL  = 00000007            FAB$L_STS        00000008            FAB$V_BLK      = 00000003
BTR$V_EXPLICIT = 00000005            FAB$L_STV        0000000C            FAB$V_BRO      = 00000006
BTR$V_FORCE    = 00000001            FAB$L_XAB        00000024            FAB$V_CBT      = 00000015
BTR$V_LIST     = 00000006            FAB$M_BIO      = 00000020            FAB$V_CIF      = 00000019
BTR$V_MULTKEY  = 00000004            FAB$M_BLK      = 00000008            FAB$V_CR       = 00000001
BTR$V_RETURN   = 00000000            FAB$M_BRO      = 00000040            FAB$V_CTG      = 00000014
BTR$V_TEMPPOS  = 00000002            FAB$M_CBT      = 00200000            FAB$V_DEL      = 00000002
BTR$V_VALREQ   = 00000003            FAB$M_CIF      = 02000000            FAB$V_DFW      = 00000005
BTR$_AMBIGKEYW = 00688030            FAB$M_CR       = 00000002            FAB$V_DLT      = 0000000F
BTR$_ILLEGOPT  = 00688018            FAB$M_CTG      = 00100000            FAB$V_DMO      = 0000000C
BTR$_IMGFNF    = 00688060            FAB$M_DEL      = 00000004            FAB$V_ESC      = 0000001B
BTR$_INTFAIL   = 00688048            FAB$M_DFW      = 00000020            FAB$V_EXE      = 00000007
BTR$_INVALKEYW = 00688028            FAB$M_DLT      = 00008000            FAB$V_FTN      = 00000000
BTR$_KEYVALOVR = 00688038            FAB$M_DMO      = 00001000            FAB$V_GET      = 00000001
BTR$_MISSNGVAL = 00688008            FAB$M_ESC      = 08000000            FAB$V_INP      = 00000013
BTR$_NOTIMPLEM = 00688020            FAB$M_EXE      = 00000080            FAB$V_JNL      = 00000016
BTR$_OPTVALOVR = 00688050            FAB$M_FTN      = 00000001            FAB$V_KFO      = 0000001E
BTR$_STRINGOVR = 00688010            FAB$M_GET      = 00000002            FAB$V_MSE      = 00000004
BTR$_TOOMANY   = 00688058            FAB$M_INP      = 00080000            FAB$V_MXV      = 00000001
BTR$_UNEXPLIST = 00688040            FAB$M_JNL      = 00400000            FAB$V_NAM      = 00000018
BTRAN          = 00680000            FAB$M_KFO      = 40000000            FAB$V_NEF      = 0000000A
COMMAND_GEN1     ********   X   05   FAB$M_MSE      = 00000010            FAB$V_NFS      = 00000010
FAB$B_BID        00000000            FAB$M_MXV      = 00000002            FAB$V_NIL      = 00000005
FAB$B_BKS        0000003E            FAB$M_NAM      = 01000000            FAB$V_OFP      = 0000001D
FAB$B_BLN        00000001            FAB$M_NEF      = 00000400            FAB$V_ORG      = 00000004
FAB$B_DNS        00000035            FAB$M_NFS      = 00010000            FAB$V_POS      = 00000008
FAB$B_FAC        00000016            FAB$M_NIL      = 00000020            FAB$V_PPF      = 00000012
FAB$B_FNS        00000034            FAB$M_OFP      = 20000000            FAB$V_PPF_IND  = 0000000E
FAB$B_FSZ        0000003F            FAB$M_POS      = 00000100            FAB$V_PPF_RAT  = 00000006
FAB$B_ORG        0000001D            FAB$M_PPF      = 00040000            FAB$V_PRN      = 00000002
FAB$B_RAT        0000001E            FAB$M_PPF_IND  = 00004000            FAB$V_PUT      = 00000000
FAB$B_RFM        0000001F            FAB$M_PPF_RAT  = 00003FC0            FAB$V_RCK      = 00000017
FAB$B_RTV        0000001C            FAB$M_PRN      = 00000004            FAB$V_RWC      = 0000000B
LINK2           /RSX - BACKTRANSLATOR FOR LINK/RSX COMMAND       22-AUG-1978 05:27:14   VAX-11 MACRO X0.3-11               Page  10
SYMBOL TABLE                                                                                                                     (3)

FAB$V_RWO      = 00000007            RAB$B_BLN        00000001            RAB$M_WAT      = 00020000
FAB$V_SCF      = 0000000E            RAB$B_KRF        00000035            RAB$M_WBH      = 00000400
FAB$V_SHRDEL   = 00000002            RAB$B_KSZ        00000034            RAB$S_PPF_RAT  = 00000008
FAB$V_SHRGET   = 00000001            RAB$B_MBC        00000037            RAB$V_ASY      = 00000000
FAB$V_SHRPUT   = 00000000            RAB$B_MBF        00000036            RAB$V_BIO      = 0000000B
FAB$V_SHRUPD   = 00000003            RAB$B_PSZ        00000034            RAB$V_CCO      = 0000001F
FAB$V_SPL      = 0000000D            RAB$B_RAC        0000001E            RAB$V_CVT      = 0000001A
FAB$V_SQO      = 00000006            RAB$B_ROP1       00000005            RAB$V_EOF      = 00000008
FAB$V_SUP      = 00000002            RAB$B_ROP2       00000006            RAB$V_FDL      = 00000006
FAB$V_TEF      = 0000001C            RAB$B_ROP3       00000007            RAB$V_HSH      = 00000007
FAB$V_TMD      = 00000004            RAB$B_TMO        0000001F            RAB$V_KGE      = 00000015
FAB$V_TMP      = 00000003            RAB$C_BID      = 00000001            RAB$V_KGT      = 00000016
FAB$V_TRN      = 00000004            RAB$C_BLN        00000044            RAB$V_LIM      = 0000000E
FAB$V_UFM      = 0000001A            RAB$C_KEY      = 00000001            RAB$V_LOA      = 0000000D
FAB$V_UFO      = 00000011            RAB$C_RFA      = 00000002            RAB$V_LOC      = 00000010
FAB$V_UPD      = 00000003            RAB$C_SEQ      = 00000000            RAB$V_MAS      = 00000005
FAB$V_UPI      = 00000006            RAB$K_BLN        00000044            RAB$V_NLK      = 00000014
FAB$V_WCK      = 00000009            RAB$L_BKT        00000038            RAB$V_NXR      = 00000017
FAB$W_BLS        0000003C            RAB$L_CTX        00000018            RAB$V_PMT      = 0000001E
FAB$W_DEQ        00000014            RAB$L_DCT        00000038            RAB$V_PPF_IND  = 0000000E
FAB$W_IFI        00000002            RAB$L_FAB        0000003C            RAB$V_PPF_RAT  = 00000006
FAB$W_MRS        00000036            RAB$L_KBF        00000030            RAB$V_PTA      = 0000001D
FATAL          = 00000004            RAB$L_PBF        00000030            RAB$V_RAH      = 00000009
FNAME            00000002 R     05   RAB$L_RBF        00000028            RAB$V_RLK      = 00000013
GBL...         = 00000000            RAB$L_RFA0       00000010            RAB$V_RNE      = 00000018
IMMED_EXIT       ********   X   05   RAB$L_RHB        0000002C            RAB$V_RNF      = 0000001B
LAST_PARAM     = FFFFFFEC            RAB$L_ROP        00000004            RAB$V_TMO      = 00000019
LINK$M_OPTIONS = 00000002            RAB$L_STS        00000008            RAB$V_TPT      = 00000001
LINK$M_OVERLAY = 00000001            RAB$L_STV        0000000C            RAB$V_UIF      = 00000004
LINK$V_OPTIONS = 00000001            RAB$L_UBF        00000024            RAB$V_ULK      = 00000012
LINK$V_OVERLAY = 00000000            RAB$M_ASY      = 00000001            RAB$V_WAT      = 00000011
LINK2            00000008 RG    05   RAB$M_BIO      = 00000800            RAB$V_WBH      = 0000000A
LINKFLAGS        ********   X   05   RAB$M_CCO      = 80000000            RAB$W_ISI        00000002
NONE           = 00000000            RAB$M_CVT      = 04000000            RAB$W_RFA        00000010
OPTLINBUF        ********   X   05   RAB$M_EOF      = 00000100            RAB$W_RFA4       00000014
OPTLINSIZ        ********   X   05   RAB$M_FDL      = 00000040            RAB$W_RSZ        00000022
OPTLIST          ********   X   05   RAB$M_HSH      = 00000080            RAB$W_USZ        00000020
OPTLISTPTR       ********   X   05   RAB$M_KGE      = 00200000            RESULT_DESC      ********   X   05
PRIM_INPUT     = FFFFFFF6            RAB$M_KGT      = 00400000            SAVE_REG_MASK  = 00000FFC
PRIM_OUTPUT    = 00000000            RAB$M_LIM      = 00004000            SLASHES          00000000 R     05
PROG_BP2       = 0000000C            RAB$M_LOA      = 00002000            STICKY_FLAG      ********   X   05
PROG_CBL       = 00000008            RAB$M_LOC      = 00010000            SYS$CLOSE        ********  GX   05
PROG_CNT       = 0000000F            RAB$M_MAS      = 00000020            SYS$CONNECT      ********  GX   05
PROG_DIF       = 0000000F            RAB$M_NLK      = 00100000            SYS$CREATE       ********  GX   05
PROG_DMP       = 00000007            RAB$M_NXR      = 00800000            SYS$PUT          ********  GX   05
PROG_F4V       = 00000002            RAB$M_PMT      = 40000000
PROG_LBR       = 0000000B            RAB$M_PPF_IND  = 00004000
PROG_LIB       = 0000000A            RAB$M_PPF_RAT  = 00003FC0
PROG_MAC       = 00000004            RAB$M_PTA      = 20000000
PROG_MAR       = 00000003            RAB$M_RAH      = 00000200
PROG_PIP       = 00000001            RAB$M_RLK      = 00080000
PROG_SLP       = 00000006            RAB$M_RNE      = 01000000
PROG_SOS       = 00000005            RAB$M_RNF      = 08000000
PROG_SRT       = 0000000E            RAB$M_TMO      = 02000000
PROG_TKB       = 00000009            RAB$M_TPT      = 00000002
PROG_UFD       = 0000000D            RAB$M_UIF      = 00000010
RAB$B_BID        00000000            RAB$M_ULK      = 00040000
LINK2           /RSX - BACKTRANSLATOR FOR LINK/RSX COMMAND       22-AUG-1978 05:27:14   VAX-11 MACRO X0.3-11               Page  11
PROGRAM SECTION SYNOPSIS                                                                                                         (3)


PROGRAM SECTION SYNOPSIS

.  ABS  .        00000000      00     NOPIC   USR   CON   ABS   LCL NOSHR NOEXE NORD  NOWRT BYTE
. BLANK .        00000000      01     NOPIC   USR   CON   REL   LCL NOSHR   EXE   RD    WRT BYTE
$ABS$            00000050      02     NOPIC   USR   CON   ABS   LCL NOSHR   EXE   RD    WRT BYTE
IMPURE_          00000094      03     NOPIC   USR   CON   REL   LCL NOSHR NOEXE   RD    WRT LONG
$RMSNAM          0000000B      04     NOPIC   USR   CON   REL   LCL NOSHR   EXE   RD    WRT BYTE
PURE_            000000C4      05     NOPIC   USR   CON   REL   LCL NOSHR   EXE   RD  NOWRT BYTE


THERE WERE NO ERRORS OR WARNINGS.
9110. BYTES LEFT IN FREE MEMORY POOL.
1400. BYTES OF RECLAIMED MEMORY.
OBJ$:LINK2,LIS$:LINK2/-SP/LI:MEB=EXECML$/ML,LIB$:B/ML,SRC$:LINK2
70 MLB DIR RDS - 753 GETS TO DEFINE 39 MACROS. 115 INTER. FILE WRITES.
