LINK            /RSX - BACKTRANSLATOR FOR LINK/RSX COMMAND       22-AUG-1978 05:26:25   VAX-11 MACRO X0.3-11               Page   1
HJ01                                                                                                                             (1)

                                     0000     1 	.TITLE	LINK/RSX - BACKTRANSLATOR FOR LINK/RSX COMMAND
                                     0000     2 	.IDENT	/HJ01/
                                     0000     3
                                     0000     4 ;
                                     0000     5 ; COPYRIGHT (C) 1977
                                     0000     6 ; DIGITAL EQUIPMENT CORPORATION, MAYNARD, MASS.
                                     0000     7 ;
                                     0000     8 ; THIS SOFTWARE IS FURNISHED UNDER  A LICENSE FOR USE ONLY  ON  A
                                     0000     9 ; SINGLE COMPUTER SYSTEM AND MAY BE  COPIED ONLY WITH  THE INCLU-
                                     0000    10 ; SION OF  THE  ABOVE  COPYRIGHT NOTICE.  THIS SOFTWARE,  OR  ANY
                                     0000    11 ; OTHER COPIES THEREOF, MAY NOT BE  PROVIDED  OR  OTHERWISE  MADE
                                     0000    12 ; AVAILABLE TO ANY OTHER PERSON EXCEPT  FOR  USE  ON  SUCH SYSTEM
                                     0000    13 ; AND TO  ONE WHO AGREES  TO  THESE LICENSE  TERMS.  TITLE TO AND
                                     0000    14 ; OWNERSHIP OF THE SOFTWARE SHALL AT ALL TIMES REMAIN IN DEC.
                                     0000    15 ;
                                     0000    16 ; THE INFORMATION IN THIS SOFTWARE  IS  SUBJECT TO CHANGE WITHOUT
                                     0000    17 ; NOTICE AND SHOULD NOT BE CONSTRUED  AS  A COMMITMENT BY DIGITAL
                                     0000    18 ; EQUIPMENT CORPORATION.
                                     0000    19 ;
                                     0000    20 ; DEC ASSUMES NO RESPONSIBILITY FOR THE USE OR RELIABILITY OF ITS
                                     0000    21 ; SOFTWARE ON EQUIPMENT WHICH IS NOT SUPPLIED BY DEC.
                                     0000    22 ;
                                     0000    23 ; H.J.	DECEMBER 1977
                                     0000    24 ;
                                     0000    25 ; BACKTRANSLATOR LINK/RSX11
                                     0000    26 ;
LINK            /RSX - BACKTRANSLATOR FOR LINK/RSX COMMAND       22-AUG-1978 05:26:25   VAX-11 MACRO X0.3-11               Page   2
HJ01                                                                                                                             (2)

                                     0000    28 ;	.SBTTL INITIALIZE DATA DEFINITIONS
                                     0000    29 ;
                                     0000    30 ; MACRO LIBRARY CALLS
                                     0000    31 ;
                                     0000    32 	$BTDEFS				;DEFINE VALUES TO BE USED LOCALLY
                                     0000       	.SAVE
                                 00000000       	.PSECT	$ABS$,ABS
                                     0000       	.RESTORE
                                     0000    33 	$CLIDEF				;DEFINE CLI CODES AND VALUES
                                     0000       	.SAVE
                                 00000000       	.PSECT	$ABS$,ABS
                                     0000       CLI$L_INIARGCNT:
                           00000004  0000        			.BLKL	1
                                     0004       CLI$A_PROGXFER:
                           00000008  0004        			.BLKL	1
                                     0008       CLI$A_UTILSERV:
                           0000000C  0008        			.BLKL	1
                                     000C       CLI$A_IMGHDADR:
                           00000010  000C        			.BLKL	1
                                     0010       CLI$A_IMGFILED:
                           00000014  0010        			.BLKL	1
                                     0014       CLI$L_LINKFLAG:
                           00000018  0014        			.BLKL	1
                                     0018       CLI$L_CLIFLAG:
                           0000001C  0018        			.BLKL	1
                           00000000  001C        	. = 0
                                     0000       CLI$B_RQTYPE:
                           00000001  0000        			.BLKB	1
                                     0001       CLI$W_SERVCOD:
                                     0001       CLI$B_RQINDX:
                                     0001       CLI$B_BITNUM:
                           00000002  0001        			.BLKB	1
                                     0002       CLI$B_RQFLGS:
                           00000003  0002        			.BLKB	1
                                     0003       CLI$B_RQSTAT:
                           00000004  0003        			.BLKB	1
                                     0004       CLI$A_ERRACT:
                           00000008  0004        			.BLKL	1
                                     0008       CLI$Q_RQDESC:
                                     0008       CLI$W_RQSIZE:
                           0000000A  0008        			.BLKW	1
                           0000000C  000A        			.BLKW	1
                                     000C       CLI$L_RQVALU:
                                     000C       CLI$A_RQADDR:
                           00000010  000C        			.BLKL	1
                                     0010       CLI$A_PRSACT:
                           00000014  0010        			.BLKL	1
                                     0014       CLI$A_ABSACT:
                           00000018  0014        			.BLKL	1
                                     0018       CLI$A_QUALST:
                           0000001C  0018        			.BLKL	1
                                     001C       CLI$C_REQDESC:
                                     001C       CLI$K_REQDESC:
                           00000000  001C        	. = 0
                                     0000       CLI$B_QDBLKSIZ:
                           00000001  0000        			.BLKB	1
                                     0001       CLI$B_QDCODE:
LINK            /RSX - BACKTRANSLATOR FOR LINK/RSX COMMAND       22-AUG-1978 05:26:25   VAX-11 MACRO X0.3-11               Page   3
HJ01                                                                                                                             (2)

                           00000002  0001        			.BLKB	1
                                     0002       CLI$B_QDFLGS:
                           00000003  0002        			.BLKB	1
                                     0003       CLI$B_QDSTAT:
                           00000004  0003        			.BLKB	1
                                     0004       CLI$Q_QDVALDESC:
                                     0004       CLI$W_QDVALSIZ:
                           00000006  0004        			.BLKW	1
                           00000008  0006        			.BLKW	1
                                     0008       CLI$A_QDVALADR:
                           0000000C  0008        			.BLKL	1
                                     000C       CLI$A_TRUACT:
                           00000010  000C        			.BLKL	1
                                     0010       CLI$A_FLSACT:
                           00000014  0010        			.BLKL	1
                                     0014       CLI$C_QUALDEF:
                                     0014       CLI$K_QUALDEF:
                                     0014       CLI$C_QDBITS:
                                     0014       CLI$K_QDBITS:
                                     0014       CLI$L_USRVAL:
                           00000018  0014        			.BLKL	1
                           00000000  0018        	. = 0
                                     0000       CLI$L_WORKAREA:
                           00000080  0000        			.BLKL	32
                                     0080       CLI$C_WORKAREA:
                                     0080       CLI$K_WORKAREA:
                                     0000       	.RESTORE
                                     0000    34 	$CLIDEFQUALLINK			;DEFINE QUALIFIER CODES
                                     0000       	.SAVE
                                 00000080       	.PSECT	$ABS$,ABS
                           00000000  0080       	.=0
                                     0000       PRO_B_PROMPT:
                           00000001  0000       	.BLKB	1
                                     0001       PRO_B_FLAGS:
                           00000002  0001       	.BLKB	1
                                     0002       PRO_K_LENGTH:
                                     0000       	.RESTORE
                                     0000       	.SAVE
                                 00000080       	.PSECT	$ABS$,ABS
                           00000000  0080       	.=0
                                     0000       QUA_B_OFFSET:
                           00000001  0000       	.BLKB	1
                                     0001       QUA_B_INDEX:
                           00000002  0001       	.BLKB	1
                                     0002       QUA_B_DEFVAL:
                           00000003  0002       	.BLKB	1
                                     0003       QUA_W_FLAGS:
                           00000005  0003       	.BLKW	1
                                     0005       QUA_B_IMAGE:
                           00000006  0005       	.BLKB	1
                                     0006       QUA_G_CHNGLST:
                                     0006       QUA_W_QUALIST:
                           00000008  0006       	.BLKW	1
                                     0008       QUA_B_PARMCNT:
                           00000009  0008       	.BLKB	1
                                     0009       QUA_W_PROMPT:
                           0000000B  0009       	.BLKW	1
LINK            /RSX - BACKTRANSLATOR FOR LINK/RSX COMMAND       22-AUG-1978 05:26:25   VAX-11 MACRO X0.3-11               Page   4
HJ01                                                                                                                             (2)

                                     0000       	.RESTORE
                                     0000    35
                                     0000    36 ;
                                     0000    37 ; LOCAL SYMBOLS
                                     0000    38 ;
                           00000000  0000    39 	LINK$V_OVERLAY	= 0		;FLAG SET INDICATES /OVERLAY
                           00000001  0000    40 	LINK$M_OVERLAY	= 1
                           00000001  0000    41 	LINK$V_OPTIONS	= 1		;FLAG SET INDICATES /OPTIONS:FILESPEC
                           00000002  0000    42 	LINK$M_OPTIONS	= 2
                                     0000    43
                                     0000    44 ;
                                     0000    45 ; ARGUMENT LIST OFFSET DEFINITIONS
                                     0000    46 ;
                                     0000    47
                                     0000    48 ;
                                     0000    49 ; LOCAL DATA
                                     0000    50 ;
                                     0000    51 	IMPURE
                                 00000000       	.PSECT	IMPURE_	LONG,RD,WRT,NOEXE
                                     0000    52 ;
                                     0000    53 ;
                                     0000    54 ;
                                     0000    55 INPUT_ARGLIST:
                                     0000    56 	$ARGLST	3,-			;CREATE AN ARGUMENT LIST
                                     0000    57 		INPUT_DESC,-		;FOR FIRST INPUT PARAMETER
                                     0000    58 		CLIWORKAREA,-		;WORK AREA FOR CLI
                                     0000    59 		BITMAP			;BIT ARRAY
                           00000003  0000       		.LONG	3
                           00000010' 0004       		.LONG	INPUT_DESC
                           00000000' 0008       		.LONG	CLIWORKAREA
                           00000000' 000C       		.LONG	BITMAP
                                     0010    60
                                     0010    61 INPUT_DESC:
                                     0010    62 	$CLIREQDESC -			;CREATE A CLI REQUEST DESCRIPTOR
                                     0010    63 		RQTYPE=CLI$K_INPUT1,-	;FOR PRIMARY INPUT
                                     0010    64 		RQFLGS=CLI$V_PARMREQ,-	;PRIMARY INPUT IS REQUIRED
                                     0010    65 		QUALST=INPUT_QUALS	;QUALIFIERS NEEDED ON INPUTS
                           0000002C  0010       	.BLKB	CLI$C_REQDESC
                           00000010  002C       	. = $CLI.+CLI$B_RQTYPE
                                 10  0010       	  .BYTE	CLI$K_INPUT1
                           00000012  0011       	. = $CLI.+CLI$B_RQFLGS
                                 01  0012       	.BYTE	$$$.
                           00000028  0013       	. = $CLI.+CLI$A_QUALST
                           0000001C' 0028       	    .LONG	<INPUT_QUALS-$CLI.>
                                     002C    66
                                     002C    67 INPUT_QUALS:
                                     002C    68 	$CLIQUALDESC -			;DEFINE A QUALIFIER
                                     002C    69 		QDCODE=CLI$K_LINK_CONC,-;/CONCATENATE
                                     002C    70 		FLSACT=LINK_NOCONCAT	;CALL QUALIFIER HANDLER
                           00000040  002C       	.BLKB	CLI$C_QUALDEF
                           0000002C  0040       	. = $CLI.+CLI$B_QDBLKSIZ
                                 17' 002C       	  .BYTE	30113$-.
                                 12  002D       	  .BYTE	CLI$K_LINK_CONC
                           0000003C  002E       	. = $CLI.+CLI$A_FLSACT
                           000000C8' 003C       	    .LONG	<LINK_NOCONCAT-$CLI.>
                                 00  0040       	.BYTE	0
                                 00  0041       	.BYTE	0
LINK            /RSX - BACKTRANSLATOR FOR LINK/RSX COMMAND       22-AUG-1978 05:26:25   VAX-11 MACRO X0.3-11               Page   5
HJ01                                                                                                                             (2)

                                 00  0042       	.BYTE	0
                                     0043       30113$:
                                     0043    71
                                     0043    72 	$CLIQUALDESC -			;DEFINE A QUALIFIER
                                     0043    73 		QDCODE=CLI$K_LINK_INCL,-;/INCLUDE:(MODULE-LIST)
                                     0043    74 		TRUACT=LINK_INCLUDE	;CALL QUALIFIER HANDLER
                           00000057  0043       	.BLKB	CLI$C_QUALDEF
                           00000043  0057       	. = $CLI.+CLI$B_QDBLKSIZ
                                 17' 0043       	  .BYTE	30117$-.
                                 05  0044       	  .BYTE	CLI$K_LINK_INCL
                           0000004F  0045       	. = $CLI.+CLI$A_TRUACT
                           0000009A' 004F       	    .LONG	<LINK_INCLUDE-$CLI.>
                           00000057  0053       . = $CLI..
                                 00  0057       	.BYTE	0
                                 00  0058       	.BYTE	0
                                 00  0059       	.BYTE	0
                                     005A       30117$:
                                     005A    75
                                     005A    76 	$CLIQUALDESC -			;DEFINE A QUALIFIER
                                     005A    77 		QDCODE=CLI$K_LINK_LIBR,-;/LIBRARY
                                     005A    78 		TRUACT=LINK_LIBRARY	;CALL QUALIFIER HANDLER
                           0000006E  005A       	.BLKB	CLI$C_QUALDEF
                           0000005A  006E       	. = $CLI.+CLI$B_QDBLKSIZ
                                 17' 005A       	  .BYTE	30121$-.
                                 06  005B       	  .BYTE	CLI$K_LINK_LIBR
                           00000066  005C       	. = $CLI.+CLI$A_TRUACT
                           0000008F' 0066       	    .LONG	<LINK_LIBRARY-$CLI.>
                           0000006E  006A       . = $CLI..
                                 00  006E       	.BYTE	0
                                 00  006F       	.BYTE	0
                                 00  0070       	.BYTE	0
                                     0071       30121$:
                                     0071    79
                                     0071    80 	$CLIQUALDESC -			;DEFINE A QUALIFIER
                                     0071    81 		QDCODE=CLI$K_LINK_SELE,-;/SELECTIVE
                                     0071    82 		TRUACT=LINK_SELECTIVE	;CALL QUALIFIER HANDLER
                           00000085  0071       	.BLKB	CLI$C_QUALDEF
                           00000071  0085       	. = $CLI.+CLI$B_QDBLKSIZ
                                 17' 0071       	  .BYTE	30125$-.
                                 0B  0072       	  .BYTE	CLI$K_LINK_SELE
                           0000007D  0073       	. = $CLI.+CLI$A_TRUACT
                           00000103' 007D       	    .LONG	<LINK_SELECTIVE-$CLI.>
                           00000085  0081       . = $CLI..
                                 00  0085       	.BYTE	0
                                 00  0086       	.BYTE	0
                                 00  0087       	.BYTE	0
                                     0088       30125$:
                                     0088    83
                                     0088    84 	$CLIQUALDESC	END_LIST	;TERMINATE THE QUALIFIER LIST
                                 00  0088       	.BYTE	0
                                     0089    85
                                     0089    86 OUTPUT_ARGLIST:
                                     0089    87 	$ARGLST	3,-			;CREATE AN ARGUMENT LIST
                                     0089    88 		OUTPUT_DESC,-		;FOR FIRST OUTPUT PARAMETER
                                     0089    89 		CLIWORKAREA,-		;WORK AREA FOR CLI
                                     0089    90 		BITMAP			;BIT ARRAY
                           00000003  0089       		.LONG	3
LINK            /RSX - BACKTRANSLATOR FOR LINK/RSX COMMAND       22-AUG-1978 05:26:25   VAX-11 MACRO X0.3-11               Page   6
HJ01                                                                                                                             (2)

                           00000099' 008D       		.LONG	OUTPUT_DESC
                           00000000' 0091       		.LONG	CLIWORKAREA
                           00000000' 0095       		.LONG	BITMAP
                                     0099    91
                                     0099    92 OUTPUT_DESC:
                                     0099    93 	$CLIREQDESC -			;CREATE A CLI REQUEST DESCRIPTOR
                                     0099    94 		RQTYPE=CLI$K_OUTPUT1	;FOR PRIMARY OUTPUT
                           000000B5  0099       	.BLKB	CLI$C_REQDESC
                           00000099  00B5       	. = $CLI.+CLI$B_RQTYPE
                                 20  0099       	  .BYTE	CLI$K_OUTPUT1
                           000000B5  009A       	. = $CLI..
                                     00B5    95
                                     00B5    96 OUTPUT2_ARGLIST:
                                     00B5    97 	$ARGLST	3,-			;CREATE AN ARGUMENT LIST
                                     00B5    98 		OUTPUT2_DESC,-		;FOR OPTIONAL SECONDARY OUTPUT
                                     00B5    99 		CLIWORKAREA,-		;WORK AREA FOR CLI
                                     00B5   100 		BITMAP			;BIT ARRAY
                           00000003  00B5       		.LONG	3
                           000000C5' 00B9       		.LONG	OUTPUT2_DESC
                           00000000' 00BD       		.LONG	CLIWORKAREA
                           00000000' 00C1       		.LONG	BITMAP
                                     00C5   101
                                     00C5   102 OUTPUT2_DESC:
                                     00C5   103 	$CLIREQDESC -			;CREATE A CLI REQUEST DESCRIPTOR
                                     00C5   104 		RQTYPE=CLI$K_OUTPUT2	;FOR SECONDARY OUTPUT
                           000000E1  00C5       	.BLKB	CLI$C_REQDESC
                           000000C5  00E1       	. = $CLI.+CLI$B_RQTYPE
                                 21  00C5       	  .BYTE	CLI$K_OUTPUT2
                           000000E1  00C6       	. = $CLI..
                                     00E1   105
                                     00E1   106 OUTPUT3_ARGLIST:
                                     00E1   107 	$ARGLST	3,-			;CREATE AN ARGUMENT LIST
                                     00E1   108 		OUTPUT3_DESC,-		;FOR OPTIONAL THIRD OUTPUT
                                     00E1   109 		CLIWORKAREA,-		;WORK AREA FOR CLI
                                     00E1   110 		BITMAP			;BIT ARRAY
                           00000003  00E1       		.LONG	3
                           000000F1' 00E5       		.LONG	OUTPUT3_DESC
                           00000000' 00E9       		.LONG	CLIWORKAREA
                           00000000' 00ED       		.LONG	BITMAP
                                     00F1   111
                                     00F1   112 OUTPUT3_DESC:
                                     00F1   113 	$CLIREQDESC -			;CREATE A CLI REQUEST DESCRIPTOR
                                     00F1   114 		RQTYPE=CLI$K_OUTPUT3	;FOR THIRD OUTPUT
                           0000010D  00F1       	.BLKB	CLI$C_REQDESC
                           000000F1  010D       	. = $CLI.+CLI$B_RQTYPE
                                 22  00F1       	  .BYTE	CLI$K_OUTPUT3
                           0000010D  00F2       	. = $CLI..
                                     010D   115
                                     010D   116 QUAL_ARGLIST:
                                     010D   117 	$ARGLST	3,-			;CREATE AN ARGUMENT LIST
                                     010D   118 		QUAL_DESC,-		;FOR COMMAND QUALIFIERS
                                     010D   119 		CLIWORKAREA,-		;WORK AREA FOR CLI
                                     010D   120 		BITMAP			;BIT ARRAY
                           00000003  010D       		.LONG	3
                           0000011D' 0111       		.LONG	QUAL_DESC
                           00000000' 0115       		.LONG	CLIWORKAREA
                           00000000' 0119       		.LONG	BITMAP
LINK            /RSX - BACKTRANSLATOR FOR LINK/RSX COMMAND       22-AUG-1978 05:26:25   VAX-11 MACRO X0.3-11               Page   7
HJ01                                                                                                                             (2)

                                     011D   121
                                     011D   122 QUAL_DESC:
                                     011D   123 	$CLIREQDESC -			;CREATE A CLI REQUEST DESCRIPTOR
                                     011D   124 		RQTYPE=CLI$K_GETQUAL,-	;FOR COMMAND QUALIFIERS
                                     011D   125 		QUALST=QUAL_LIST	;ADDRESS OF THE QUALIFIERS
                           00000139  011D       	.BLKB	CLI$C_REQDESC
                           0000011D  0139       	. = $CLI.+CLI$B_RQTYPE
                                 02  011D       	  .BYTE	CLI$K_GETQUAL
                           00000135  011E       	. = $CLI.+CLI$A_QUALST
                           0000001C' 0135       	    .LONG	<QUAL_LIST-$CLI.>
                                     0139   126
                                     0139   127
                                     0139   128 QUAL_LIST:
                                     0139   129 	$CLIQUALDESC -			;DEFINE A QUALIFIER
                                     0139   130 		QDCODE=CLI$K_LINK_BRIE	;/BRIEF
                           0000014D  0139       	.BLKB	CLI$C_QUALDEF
                           00000139  014D       	. = $CLI.+CLI$B_QDBLKSIZ
                                 17' 0139       	  .BYTE	30130$-.
                                 01  013A       	  .BYTE	CLI$K_LINK_BRIE
                           0000014D  013B       . = $CLI..
                                 00  014D       	.BYTE	0
                                 00  014E       	.BYTE	0
                                 00  014F       	.BYTE	0
                                     0150       30130$:
                                     0150   131
                                     0150   132 	$CLIQUALDESC -			;DEFINE A QUALIFIER
                                     0150   133 		QDCODE=CLI$K_LINK_CROS,-;/CROSS_REFERENCE
                                     0150   134 		TRUACT=LINK_CROSSREF	;CALL QUALIFIER HANDLER
                           00000164  0150       	.BLKB	CLI$C_QUALDEF
                           00000150  0164       	. = $CLI.+CLI$B_QDBLKSIZ
                                 17' 0150       	  .BYTE	30134$-.
                                 02  0151       	  .BYTE	CLI$K_LINK_CROS
                           0000015C  0152       	. = $CLI.+CLI$A_TRUACT
                           FFFFFF22' 015C       	    .LONG	<LINK_CROSSREF-$CLI.>
                           00000164  0160       . = $CLI..
                                 00  0164       	.BYTE	0
                                 00  0165       	.BYTE	0
                                 00  0166       	.BYTE	0
                                     0167       30134$:
                                     0167   135
                                     0167   136 	$CLIQUALDESC -			;DEFINE A QUALIFIER
                                     0167   137 		QDCODE=CLI$K_LINK_EXIT,-;/EXIT:N
                                     0167   138 		TRUACT=LINK_EXIT	;CALL QUALIFIER HANDLER
                           0000017B  0167       	.BLKB	CLI$C_QUALDEF
                           00000167  017B       	. = $CLI.+CLI$B_QDBLKSIZ
                                 17' 0167       	  .BYTE	30138$-.
                                 14  0168       	  .BYTE	CLI$K_LINK_EXIT
                           00000173  0169       	. = $CLI.+CLI$A_TRUACT
                           FFFFFF5E' 0173       	    .LONG	<LINK_EXIT-$CLI.>
                           0000017B  0177       . = $CLI..
                                 00  017B       	.BYTE	0
                                 00  017C       	.BYTE	0
                                 00  017D       	.BYTE	0
                                     017E       30138$:
                                     017E   139
                                     017E   140 	$CLIQUALDESC -			;DEFINE A QUALIFIER
                                     017E   141 		QDCODE=CLI$K_LINK_FULL,-;/FULL
LINK            /RSX - BACKTRANSLATOR FOR LINK/RSX COMMAND       22-AUG-1978 05:26:25   VAX-11 MACRO X0.3-11               Page   8
HJ01                                                                                                                             (2)

                                     017E   142 		TRUACT=LINK_FULL	;CALL QUALIFIER HANDLER
                           00000192  017E       	.BLKB	CLI$C_QUALDEF
                           0000017E  0192       	. = $CLI.+CLI$B_QDBLKSIZ
                                 17' 017E       	  .BYTE	30142$-.
                                 11  017F       	  .BYTE	CLI$K_LINK_FULL
                           0000018A  0180       	. = $CLI.+CLI$A_TRUACT
                           FFFFFF52' 018A       	    .LONG	<LINK_FULL-$CLI.>
                           00000192  018E       . = $CLI..
                                 00  0192       	.BYTE	0
                                 00  0193       	.BYTE	0
                                 00  0194       	.BYTE	0
                                     0195       30142$:
                                     0195   143
                                     0195   144 	$CLIQUALDESC -			;DEFINE A QUALIFIER
                                     0195   145 		QDCODE=CLI$K_LINK_HEAD,-;/HEADER
                                     0195   146 		FLSACT=LINK_NOHEADER	;CALL QUALIFIER HANDLER
                           000001A9  0195       	.BLKB	CLI$C_QUALDEF
                           00000195  01A9       	. = $CLI.+CLI$B_QDBLKSIZ
                                 17' 0195       	  .BYTE	30146$-.
                                 15  0196       	  .BYTE	CLI$K_LINK_HEAD
                           000001A5  0197       	. = $CLI.+CLI$A_FLSACT
                           FFFFFF6B' 01A5       	    .LONG	<LINK_NOHEADER-$CLI.>
                                 00  01A9       	.BYTE	0
                                 00  01AA       	.BYTE	0
                                 00  01AB       	.BYTE	0
                                     01AC       30146$:
                                     01AC   147
                                     01AC   148 	$CLIQUALDESC -			;DEFINE A QUALIFIER
                                     01AC   149 		QDCODE=CLI$K_LINK_TKB_,-;/OPTIONS:FILESPEC
                                     01AC   150 		TRUACT=LINK_OPTIONS	;CALL QUALIFIER HANDLER
                           000001C0  01AC       	.BLKB	CLI$C_QUALDEF
                           000001AC  01C0       	. = $CLI.+CLI$B_QDBLKSIZ
                                 17' 01AC       	  .BYTE	30150$-.
                                 1A  01AD       	  .BYTE	CLI$K_LINK_TKB_
                           000001B8  01AE       	. = $CLI.+CLI$A_TRUACT
                           FFFFFF6C' 01B8       	    .LONG	<LINK_OPTIONS-$CLI.>
                           000001C0  01BC       . = $CLI..
                                 00  01C0       	.BYTE	0
                                 00  01C1       	.BYTE	0
                                 00  01C2       	.BYTE	0
                                     01C3       30150$:
                                     01C3   151
                                     01C3   152 	$CLIQUALDESC -			;DEFINE A QUALIFIER
                                     01C3   153 		QDCODE=CLI$K_LINK_OVER,-;/OVERLAY
                                     01C3   154 		TRUACT=LINK_OVERLAY	;CALL QUALIFIER HANDLER
                           000001D7  01C3       	.BLKB	CLI$C_QUALDEF
                           000001C3  01D7       	. = $CLI.+CLI$B_QDBLKSIZ
                                 17' 01C3       	  .BYTE	30154$-.
                                 16  01C4       	  .BYTE	CLI$K_LINK_OVER
                           000001CF  01C5       	. = $CLI.+CLI$A_TRUACT
                           FFFFFF7E' 01CF       	    .LONG	<LINK_OVERLAY-$CLI.>
                           000001D7  01D3       . = $CLI..
                                 00  01D7       	.BYTE	0
                                 00  01D8       	.BYTE	0
                                 00  01D9       	.BYTE	0
                                     01DA       30154$:
                                     01DA   155
LINK            /RSX - BACKTRANSLATOR FOR LINK/RSX COMMAND       22-AUG-1978 05:26:25   VAX-11 MACRO X0.3-11               Page   9
HJ01                                                                                                                             (2)

                                     01DA   156 	$CLIQUALDESC -			;DEFINE A QUALIFIER
                                     01DA   157 		QDCODE=CLI$K_LINK_POSI,-;/POSITION_INDEPENDENT
                                     01DA   158 		TRUACT=LINK_POSITION	;CALL QUALIFIER HANDLER
                           000001EE  01DA       	.BLKB	CLI$C_QUALDEF
                           000001DA  01EE       	. = $CLI.+CLI$B_QDBLKSIZ
                                 17' 01DA       	  .BYTE	30158$-.
                                 17  01DB       	  .BYTE	CLI$K_LINK_POSI
                           000001E6  01DC       	. = $CLI.+CLI$A_TRUACT
                           FFFFFF79' 01E6       	    .LONG	<LINK_POSITION-$CLI.>
                           000001EE  01EA       . = $CLI..
                                 00  01EE       	.BYTE	0
                                 00  01EF       	.BYTE	0
                                 00  01F0       	.BYTE	0
                                     01F1       30158$:
                                     01F1   159
                                     01F1   160 	$CLIQUALDESC -			;DEFINE A QUALIFIER
                                     01F1   161 		QDCODE=CLI$K_LINK_POST,-;/POST_MORTEM
                                     01F1   162 		TRUACT=LINK_POST_MORT	;CALL QUALIFIER HANDLER
                           00000205  01F1       	.BLKB	CLI$C_QUALDEF
                           000001F1  0205       	. = $CLI.+CLI$B_QDBLKSIZ
                                 17' 01F1       	  .BYTE	30162$-.
                                 1B  01F2       	  .BYTE	CLI$K_LINK_POST
                           000001FD  01F3       	. = $CLI.+CLI$A_TRUACT
                           FFFFFF78' 01FD       	    .LONG	<LINK_POST_MORT-$CLI.>
                           00000205  0201       . = $CLI..
                                 00  0205       	.BYTE	0
                                 00  0206       	.BYTE	0
                                 00  0207       	.BYTE	0
                                     0208       30162$:
                                     0208   163
                                     0208   164 	$CLIQUALDESC -			;DEFINE A QUALIFIER
                                     0208   165 		QDCODE=CLI$K_LINK_SEQU,-;/SEQUENTIAL
                                     0208   166 		TRUACT=LINK_SEQUENTIAL	;CALL QUALIFIER HANDLER
                           0000021C  0208       	.BLKB	CLI$C_QUALDEF
                           00000208  021C       	. = $CLI.+CLI$B_QDBLKSIZ
                                 17' 0208       	  .BYTE	30166$-.
                                 18  0209       	  .BYTE	CLI$K_LINK_SEQU
                           00000214  020A       	. = $CLI.+CLI$A_TRUACT
                           FFFFFF77' 0214       	    .LONG	<LINK_SEQUENTIAL-$CLI.>
                           0000021C  0218       . = $CLI..
                                 00  021C       	.BYTE	0
                                 00  021D       	.BYTE	0
                                 00  021E       	.BYTE	0
                                     021F       30166$:
                                     021F   167
                                     021F   168 	$CLIQUALDESC -			;DEFINE A QUALIFIER
                                     021F   169 		QDCODE=CLI$K_LINK_RSX1,-;/RSX11
                                     021F   170 		TRUACT=LINK_RSX11	;CALL QUALIFIER HANDLER
                           00000233  021F       	.BLKB	CLI$C_QUALDEF
                           0000021F  0233       	. = $CLI.+CLI$B_QDBLKSIZ
                                 17' 021F       	  .BYTE	30170$-.
                                 10  0220       	  .BYTE	CLI$K_LINK_RSX1
                           0000022B  0221       	. = $CLI.+CLI$A_TRUACT
                           FFFFFF6B' 022B       	    .LONG	<LINK_RSX11-$CLI.>
                           00000233  022F       . = $CLI..
                                 00  0233       	.BYTE	0
                                 00  0234       	.BYTE	0
LINK            /RSX - BACKTRANSLATOR FOR LINK/RSX COMMAND       22-AUG-1978 05:26:25   VAX-11 MACRO X0.3-11               Page  10
HJ01                                                                                                                             (2)

                                 00  0235       	.BYTE	0
                                     0236       30170$:
                                     0236   171
                                     0236   172 	$CLIQUALDESC -			;DEFINE A QUALIFIER
                                     0236   173 		QDCODE=CLI$K_LINK_TRAC,-;/TRACE
                                     0236   174 		QDFLGS=CLI$V_QDEXPA,-	;QUALIFIER MUST BE EXPLICIT
                                     0236   175 		TRUACT=LINK_TRACE	;CALL QUALIFIER HANDLER
                           0000024A  0236       	.BLKB	CLI$C_QUALDEF
                           00000236  024A       	. = $CLI.+CLI$B_QDBLKSIZ
                                 17' 0236       	  .BYTE	30174$-.
                                 19  0237       	  .BYTE	CLI$K_LINK_TRAC
                                 04  0238       	.BYTE	$$$.
                           00000242  0239       	. = $CLI.+CLI$A_TRUACT
                           FFFFFF5C' 0242       	    .LONG	<LINK_TRACE-$CLI.>
                           0000024A  0246       . = $CLI..
                                 00  024A       	.BYTE	0
                                 00  024B       	.BYTE	0
                                 00  024C       	.BYTE	0
                                     024D       30174$:
                                     024D   176
                                     024D   177 ;	THE FOLLOWING TWO OPTIONS MUST OCCUR AT THE END OF THE LIST TO GET
                                     024D   178 ;	THE FILESPEC PLACEMENT CORECT
                                     024D   179
                                     024D   180 	$CLIQUALDESC -			;DEFINE A QUALIFIER
                                     024D   181 		QDCODE=CLI$K_LINK_DEBU,-;/DEBUG[:FILESPEC]
                                     024D   182 		TRUACT=LINK_DEBUG	;CALL QUALIFIER HANDLER
                           00000261  024D       	.BLKB	CLI$C_QUALDEF
                           0000024D  0261       	. = $CLI.+CLI$B_QDBLKSIZ
                                 17' 024D       	  .BYTE	30179$-.
                                 03  024E       	  .BYTE	CLI$K_LINK_DEBU
                           00000259  024F       	. = $CLI.+CLI$A_TRUACT
                           FFFFFE31' 0259       	    .LONG	<LINK_DEBUG-$CLI.>
                           00000261  025D       . = $CLI..
                                 00  0261       	.BYTE	0
                                 00  0262       	.BYTE	0
                                 00  0263       	.BYTE	0
                                     0264       30179$:
                                     0264   183
                                     0264   184 	$CLIQUALDESC -			;DEFINE A QUALIFIER
                                     0264   185 		QDCODE=CLI$K_LINK_DEFA,-;/DEFAULT_LIBRARY:FILESPEC
                                     0264   186 		TRUACT=LINK_DEFAULT	;CALL QUALIFIER HANDLER
                           00000278  0264       	.BLKB	CLI$C_QUALDEF
                           00000264  0278       	. = $CLI.+CLI$B_QDBLKSIZ
                                 17' 0264       	  .BYTE	30183$-.
                                 13  0265       	  .BYTE	CLI$K_LINK_DEFA
                           00000270  0266       	. = $CLI.+CLI$A_TRUACT
                           FFFFFE3F' 0270       	    .LONG	<LINK_DEFAULT-$CLI.>
                           00000278  0274       . = $CLI..
                                 00  0278       	.BYTE	0
                                 00  0279       	.BYTE	0
                                 00  027A       	.BYTE	0
                                     027B       30183$:
                                     027B   187
                                     027B   188
                                     027B   189 	$CLIQUALDESC	END_LIST	;TERMINATE THE QUALIFIER LIST
                                 00  027B       	.BYTE	0
                                     027C   190
LINK            /RSX - BACKTRANSLATOR FOR LINK/RSX COMMAND       22-AUG-1978 05:26:25   VAX-11 MACRO X0.3-11               Page  11
HJ01                                                                                                                             (2)

                                 00  027C   191 LINKFLAGS::	.BYTE	0		;LOCAL FLAGS FOR LINK/RSX COMMAND
                                     027D   192
                               0000  027D   193 OPTLINSIZ::	.WORD	0		;SIZE OF OPTIONS INDIRECT FILE SPEC
                           00000028  027F   194 OPTLINMAX	==40			;SIZE OF RECORD BUFFER
                                 40  027F   195 OPTLINBUF::	.ASCII	\@\		;FILE SPEC STARTS WITH '@'
                           000002A7  0280   196 		.BLKB	OPTLINMAX-1	;ROOM TO STORE RECORD
LINK            /RSX - BACKTRANSLATOR FOR LINK/RSX COMMAND       22-AUG-1978 05:26:25   VAX-11 MACRO X0.3-11               Page  12
HJ01                                                                                                                             (3)

                                     02A7   198 ;	.SBTTL LINK/RSX
                                     02A7   199 ;+
                                     02A7   200 ; BACKTRANSLATOR LINK/RSX
                                     02A7   201 ;
                                     02A7   202 ; CONVERTS DCL COMMAND TO COMPATIBILITY MODE IMAGE COMMAND
                                     02A7   203 ;
                                     02A7   204 ;
                                     02A7   205 ; INPUTS:
                                     02A7   206 ;  THE INPUTS ARE RETURNED FROM THE DCL RESULT PARSER AS RESPONSES
                                     02A7   207 ;  TO THE VARIOUS REQUEST DESCRIPTORS THAT ARE GIVEN TO IT.
                                     02A7   208 ;
                                     02A7   209 ;
                                     02A7   210 ; OUTPUTS:
                                     02A7   211 ;  THE OUTPUT CONSISTS OF THE APPROPRIATE TABLES TO CREATE THE
                                     02A7   212 ;  COMMAND LINE OF THE TKB INDIRECT FILE TO BE CREATED IN 'LINK2'.
                                     02A7   213 ;
                                     02A7   214 ;-
                                     02A7   215
                                     02A7   216 	PURE
                                 00000000       	.PSECT	PURE_	BYTE,RD,EXE,NOWRT
                                     0000   217
                                     0000   218 LINK::
                                 FA  0000   219 	CALLG	W^OUTPUT_ARGLIST,-	;PROCESS EXECUTE OPTION (.TKB FILE)
         08 BC       0089'CF         0001   220 		@CLI$A_UTILSERV(AP)
            59       00A1'CF     7D  0006   221 	MOVQ	W^CLI$Q_RQDESC+OUTPUT_DESC,R9 ;PICK UP STRING DESCRIPTOR
                          FFF2'  30  000B   222 	BSBW	INSERTARG		;SAVE IT AS PRIMARY OUTPUT
                     0000'CF     97  000E   223 	DECB	W^PARAMLOC		;SET UP FOR SECONDARY OUTPUT
                                 FA  0012   224 	CALLG	W^OUTPUT2_ARGLIST,-	;PROCESS MAP OPTION (.MAP FILE)
         08 BC       00B5'CF         0013   225 		@CLI$A_UTILSERV(AP)
            59       00CD'CF     7D  0018   226 	MOVQ	W^CLI$Q_RQDESC+OUTPUT2_DESC,R9 ;PICK UP STRING DESCRIPTOR
                          FFE0'  30  001D   227 	BSBW	INSERTARG		;SAVE IT AS SECONDARY OUTPUT
                                     0020   228 	$SETSTRING </-SP>,TYPE=INLINE,POS=<PRIM_OUTPUT-1>
                          FFDD'  30  0020       	BSBW	SETSTRING
                                 05  0023       	.BYTE	$$$FLAGS
                                 00  0024       	.BYTE	0
                                 FF  0025       	.BYTE	PRIM_OUTPUT-1
                                 04  0026       	.BYTE	$$CNT
                        50 53 2D 2F  0027       	.ASCII	\/-SP\
                                     002B   229 					;AVOID SPOOLING OF MAP
                     0000'CF     97  002B   230 	DECB	W^PARAMLOC		;SET UP FOR TERTIARY OUTPUT
                                 FA  002F   231 	CALLG	W^OUTPUT3_ARGLIST,-	;PROCESS SYMBOLS OPTION (.STB FILE)
         08 BC       00E1'CF         0030   232 		@CLI$A_UTILSERV(AP)
            59       00F9'CF     7D  0035   233 	MOVQ	W^CLI$Q_RQDESC+OUTPUT3_DESC,R9 ;PICK UP STRING DESCRIPTOR
                          FFC3'  30  003A   234 	BSBW	INSERTARG		;SAVE IT AS TERTIARY OUTPUT
       0000'CF         F6 8F     90  003D   235 	MOVB	#PRIM_INPUT,W^HOLDLOC	;SET UP TO ACCEPT OPTIONS ON FILESPEC
       0000'CF         F6 8F     90  0043   236 	MOVB	#PRIM_INPUT,W^PARAMLOC	;SET UP TO START ACCEPTING INPUTS
                                 FA  0049   237 10$:	CALLG	W^INPUT_ARGLIST,-	;PROCESS PRIMARY INPUT
         08 BC       0000'CF         004A   238 		@CLI$A_UTILSERV(AP)
            59       0018'CF     7D  004F   239 	MOVQ	W^CLI$Q_RQDESC+INPUT_DESC,R9 ;PICK UP STRING DESCRIPTOR
                          FFA9'  30  0054   240 	BSBW	INSERTARG		;SAVE IT AS PRIMARY INPUT
                     0000'CF     97  0057   241 	DECB	W^PARAMLOC		;PUT NEXT INPUT IN NEXT POSITION
                     0000'CF     97  005B   242 	DECB	W^HOLDLOC		;PUT NEXT OPTION IN NEXT POSITION
                                 E0  005F   243 	BBS	#CLI$V_CONCATINP,-	;BRANCH IF MORE INPUTS TO GET THEM
       0013'CF            01         0060   244 		W^CLI$B_RQSTAT+INPUT_DESC,10$
                          E4         0064
                     0000'CF     94  0065   245 	CLRB	W^HOLDLOC		;PUT DEFAULT QUALIFIERS ON .TSK FILE
                                 FA  0069   246 	CALLG	W^QUAL_ARGLIST,-	;PROCESS COMMAND QUALIFIER OPTIONS
LINK            /RSX - BACKTRANSLATOR FOR LINK/RSX COMMAND       22-AUG-1978 05:26:25   VAX-11 MACRO X0.3-11               Page  13
HJ01                                                                                                                             (3)

         08 BC       010D'CF         006A   247 		@CLI$A_UTILSERV(AP)
                                     006F   248
                          FF8E'  31  006F   249 	BRW	LINK2			;BRANCH TO REST OF LINK PROCESSING
                                     0072   250
                                     0072   251
                                     0072   252 LINK_CROSSREF:
                                     0072   253 	$SETSTRING	</CR>,POS=<PRIM_OUTPUT-1> ;INCLUDE CROSS REFERENCE
                               0FFC  0072       	.WORD	SAVE_REG_MASK
                          FF89'  30  0074       	BSBW	SETSTRING
                                 04  0077       	.BYTE	$$$FLAGS
                                 00  0078       	.BYTE	0
                                 FF  0079       	.BYTE	PRIM_OUTPUT-1
                                 03  007A       	.BYTE	$$CNT
                           52 43 2F  007B       	.ASCII	\/CR\
                                     007E   254
                                     007E   255 LINK_DEBUG:
                                     007E   256 	$INLINE				;THIS OPTION MUST BE CHECKED TO
                               0FFC  007E       	.WORD	SAVE_REG_MASK
                                     0080   257 					;DETERMINE IF IT GOES ON INPUT OR .TKB
                          FF7D'  30  0080   258 	BSBW	GETSUBVAL		;IS IT /DEBUG OR /DEBUG:FILESPEC?
            13            50     E9  0083   259 	BLBC	R0,10$			;BRANCH IF /DEBUG
       0000'CF       0000'CF     90  0086   260 	MOVB	W^PARAMLOC,W^HOLDLOC	;FORCE /DA TO OCCUR ON THIS INPUT
            59       0008'CF     7D  008D   261 	MOVQ	W^CLI$Q_RQDESC+VALUE_DESC,R9 ;GET DESCRIPTOR FOR FILESPEC
                          FF6B'  30  0092   262 	BSBW	INSERTARG		;PUT IT INTO THE INPUT LIST
                     0000'CF     97  0095   263 	DECB	W^PARAMLOC		;SET UP FOR NEXT POSSIBLE INPUT
                                     0099   264 10$:	$SETSTRING	</DA>,TYPE=INLINE ;PUT /DA OPTION ON CORRECT FILESPEC
                          FF64'  30  0099       	BSBW	SETSTRING
                                 01  009C       	.BYTE	$$$FLAGS
                                 00  009D       	.BYTE	0
                                 03  009E       	.BYTE	$$CNT
                           41 44 2F  009F       	.ASCII	\/DA\
                                 04  00A2   265 	RET				;RETURN TO CLI
                                     00A3   266
                                     00A3   267 LINK_DEFAULT:
                                     00A3   268 	$INLINE				;INLINE PROCESSING TO PUT /DL ON INPUT
                               0FFC  00A3       	.WORD	SAVE_REG_MASK
                          FF58'  30  00A5   269 	BSBW	GETSUBVAL		;GET FILESPEC, (CLI HAS 'VALREQ' SET)
       0000'CF       0000'CF     90  00A8   270 	MOVB	W^PARAMLOC,W^HOLDLOC	;FORCE THIS OPTION TO GO ON THIS INPUT
            59       0008'CF     7D  00AF   271 	MOVQ	W^CLI$Q_RQDESC+VALUE_DESC,R9 ;GET DESCRIPTOR FOR FILESPEC
                          FF49'  30  00B4   272 	BSBW	INSERTARG		;PUT IT INTO THE INPUT LIST
                     0000'CF     97  00B7   273 	DECB	W^PARAMLOC		;SET UP FOR NEXT POSSIBLE INPUT
                                     00BB   274 	$SETSTRING	</DL>,TYPE=INLINE ;PUT /DL OPTION ON FILESPEC
                          FF42'  30  00BB       	BSBW	SETSTRING
                                 01  00BE       	.BYTE	$$$FLAGS
                                 00  00BF       	.BYTE	0
                                 03  00C0       	.BYTE	$$CNT
                           4C 44 2F  00C1       	.ASCII	\/DL\
                                 04  00C4   275 	RET				;RETURN TO CLI
                                     00C5   276
                                     00C5   277
                                     00C5   278 LINK_EXIT:
                                     00C5   279 	$GETDECNUM	</XT>		;SET TKB EXIT OPTION
                               0FFC  00C5       	.WORD	SAVE_REG_MASK
                          FF36'  30  00C7       	BSBW	GETSTRING
                                 80  00CA       	.BYTE	$$$FLAGS
                                 00  00CB       	.BYTE	0
                                 03  00CC       	.BYTE	$$CNT
LINK            /RSX - BACKTRANSLATOR FOR LINK/RSX COMMAND       22-AUG-1978 05:26:25   VAX-11 MACRO X0.3-11               Page  14
HJ01                                                                                                                             (3)

                           54 58 2F  00CD       	.ASCII	\/XT\
                                     00D0   280
                                     00D0   281 LINK_FULL:
                                     00D0   282 	$SETSTRING	</-SH>,POS=<PRIM_OUTPUT-1> ;SET TO CAUSE FULL MAP
                               0FFC  00D0       	.WORD	SAVE_REG_MASK
                          FF2B'  30  00D2       	BSBW	SETSTRING
                                 04  00D5       	.BYTE	$$$FLAGS
                                 00  00D6       	.BYTE	0
                                 FF  00D7       	.BYTE	PRIM_OUTPUT-1
                                 04  00D8       	.BYTE	$$CNT
                        48 53 2D 2F  00D9       	.ASCII	\/-SH\
                                     00DD   283
                                     00DD   284 LINK_INCLUDE:
                                     00DD   285 	$GETSTRING	</LB:>,FLAGS=<BTR$M_LIST,BTR$M_VALREQ> ;ACCEPT INCLUDE
                               0FFC  00DD       	.WORD	SAVE_REG_MASK
                          FF1E'  30  00DF       	BSBW	GETSTRING
                                 48  00E2       	.BYTE	$$$FLAGS
                                 00  00E3       	.BYTE	0
                                 04  00E4       	.BYTE	$$CNT
                        3A 42 4C 2F  00E5       	.ASCII	\/LB:\
                                     00E9   286
                                     00E9   287 LINK_LIBRARY:
                                     00E9   288 	$SETSTRING	</LB>		;SET THE LIBRARY IDENTIFIER OPTION
                               0FFC  00E9       	.WORD	SAVE_REG_MASK
                          FF12'  30  00EB       	BSBW	SETSTRING
                                 00  00EE       	.BYTE	$$$FLAGS
                                 00  00EF       	.BYTE	0
                                 03  00F0       	.BYTE	$$CNT
                           42 4C 2F  00F1       	.ASCII	\/LB\
                                     00F4   289
                                     00F4   290 LINK_NOCONCAT:
                                     00F4   291 	$SETSTRING	</-CC>,FLAGS=<BTR$M_EXPLICIT> ;SET UP NOCONCAT
                               0FFC  00F4       	.WORD	SAVE_REG_MASK
                          FF07'  30  00F6       	BSBW	SETSTRING
                                 20  00F9       	.BYTE	$$$FLAGS
                                 00  00FA       	.BYTE	0
                                 04  00FB       	.BYTE	$$CNT
                        43 43 2D 2F  00FC       	.ASCII	\/-CC\
                                     0100   292
                                     0100   293 LINK_NOHEADER:
                                     0100   294 	$SETSTRING	</-HD>,FLAGS=<BTR$M_RETURN,BTR$M_EXPLICIT>
                               0FFC  0100       	.WORD	SAVE_REG_MASK
                          FEFB'  30  0102       	BSBW	SETSTRING
                                 21  0105       	.BYTE	$$$FLAGS
                                 00  0106       	.BYTE	0
                                 04  0107       	.BYTE	$$CNT
                        44 48 2D 2F  0108       	.ASCII	\/-HD\
                                     010C   295 					;SUPPRESS HEADER FROM .TSK
                                     010C   296 	$SETSTRING	</-HD>,POS=<PRIM_OUTPUT-2>,TYPE=INLINE
                          FEF1'  30  010C       	BSBW	SETSTRING
                                 05  010F       	.BYTE	$$$FLAGS
                                 00  0110       	.BYTE	0
                                 FE  0111       	.BYTE	PRIM_OUTPUT-2
                                 04  0112       	.BYTE	$$CNT
                        44 48 2D 2F  0113       	.ASCII	\/-HD\
                                     0117   297 					;AND FROM .STB FILE
                                 04  0117   298 	RET				;RETURN TO CLI
LINK            /RSX - BACKTRANSLATOR FOR LINK/RSX COMMAND       22-AUG-1978 05:26:25   VAX-11 MACRO X0.3-11               Page  15
HJ01                                                                                                                             (3)

                                     0118   299
                                     0118   300 LINK_OPTIONS:
                                     0118   301 	$INLINE				;THIS REQUIRES SPECIAL CODE
                               0FFC  0118       	.WORD	SAVE_REG_MASK
                          FEE3'  30  011A   302 	BSBW	GETSUBVAL		;GET THE VALUE, (CLI HAS 'VALREQ' SET)
            59       0008'CF     7D  011D   303 	MOVQ	W^CLI$Q_RQDESC+VALUE_DESC,R9 ;GET DESCRIPTOR FOR FILESPEC
            59            28     B1  0122   304 	CMPW	#OPTLINMAX,R9		;WILL FILE NAME FIT IN TEMP BUFFER?
                          13     15  0125   305 	BLEQ	10$			;BRANCH IF TOO LONG (HANDLES '@')
            6A            59     28  0127   306 	MOVC3	R9,(R10),W^OPTLINBUF+1	;PUT NAME AFTER '@'
                     0280'CF         012A
                          59     B6  012D   307 	INCW	R9			;ADJUST RECORD SIZE
       027D'CF            59     B0  012F   308 	MOVW	R9,W^OPTLINSIZ		;SAVE IT FOR LATER
       027C'CF            02     88  0134   309 	BISB	#LINK$M_OPTIONS,W^LINKFLAGS ;SET FLAG FOR LATER
                                 04  0139   310 	RET				;RETURN TO CLI
                                     013A   311
                                     013A   312 10$:	ERROR	OPTVALOVR,FATAL		;REPORT THE ERROR AND ABORT
            50         54 8F     9A  013A       	MOVZBL	#BTR$_OPTVALOVR+FATAL&^XFF,R0
                          FEBF'  31  013E       	BRW	ERR_EXIT
                                     0141   313
                                     0141   314
                                     0141   315 LINK_OVERLAY:
                                     0141   316 	$SETSTRING	</MP>,POS=<PRIM_INPUT>,FLAGS=<BTR$M_RETURN>
                               0FFC  0141       	.WORD	SAVE_REG_MASK
                          FEBA'  30  0143       	BSBW	SETSTRING
                                 05  0146       	.BYTE	$$$FLAGS
                                 00  0147       	.BYTE	0
                                 F6  0148       	.BYTE	PRIM_INPUT
                                 03  0149       	.BYTE	$$CNT
                           50 4D 2F  014A       	.ASCII	\/MP\
       027C'CF            01     88  014D   317 	BISB		#LINK$M_OVERLAY,W^LINKFLAGS ;INDICATE /OVERLAY OPTION
                                 04  0152   318 	RET				;RETURN TO CLI
                                     0153   319
                                     0153   320 LINK_POSITION:
                                     0153   321 	$SETSTRING	</PI>,FLAGS=<BTR$M_RETURN> ;INDICATE .TSK IS PIC
                               0FFC  0153       	.WORD	SAVE_REG_MASK
                          FEA8'  30  0155       	BSBW	SETSTRING
                                 01  0158       	.BYTE	$$$FLAGS
                                 00  0159       	.BYTE	0
                                 03  015A       	.BYTE	$$CNT
                           49 50 2F  015B       	.ASCII	\/PI\
                                     015E   322 	$SETSTRING	</PI>,POS=<PRIM_OUTPUT-2>,TYPE=INLINE ;AND SO IS .STB
                          FE9F'  30  015E       	BSBW	SETSTRING
                                 05  0161       	.BYTE	$$$FLAGS
                                 00  0162       	.BYTE	0
                                 FE  0163       	.BYTE	PRIM_OUTPUT-2
                                 03  0164       	.BYTE	$$CNT
                           49 50 2F  0165       	.ASCII	\/PI\
                                 04  0168   323 	RET				;RETURN TO CLI
                                     0169   324
                                     0169   325 LINK_POST_MORT:
                                     0169   326 	$SETSTRING	</PM>		;SET POST MORTEM DUMP OPTION
                               0FFC  0169       	.WORD	SAVE_REG_MASK
                          FE92'  30  016B       	BSBW	SETSTRING
                                 00  016E       	.BYTE	$$$FLAGS
                                 00  016F       	.BYTE	0
                                 03  0170       	.BYTE	$$CNT
                           4D 50 2F  0171       	.ASCII	\/PM\
LINK            /RSX - BACKTRANSLATOR FOR LINK/RSX COMMAND       22-AUG-1978 05:26:25   VAX-11 MACRO X0.3-11               Page  16
HJ01                                                                                                                             (3)

                                     0174   327
                                     0174   328 LINK_SELECTIVE:
                                     0174   329 	$SETSTRING	</SS>		;SET SELECTIVE SEARCH OPTION
                               0FFC  0174       	.WORD	SAVE_REG_MASK
                          FE87'  30  0176       	BSBW	SETSTRING
                                 00  0179       	.BYTE	$$$FLAGS
                                 00  017A       	.BYTE	0
                                 03  017B       	.BYTE	$$CNT
                           53 53 2F  017C       	.ASCII	\/SS\
                                     017F   330
                                     017F   331 LINK_SEQUENTIAL:
                                     017F   332 	$SETSTRING	</SQ>		;SET SEQUENTIAL PSECT ALLOCATE
                               0FFC  017F       	.WORD	SAVE_REG_MASK
                          FE7C'  30  0181       	BSBW	SETSTRING
                                 00  0184       	.BYTE	$$$FLAGS
                                 00  0185       	.BYTE	0
                                 03  0186       	.BYTE	$$CNT
                           51 53 2F  0187       	.ASCII	\/SQ\
                                     018A   333
                                     018A   334 LINK_RSX11:
                                     018A   335 	$SETSTRING	<>,TKB,FLAGS=<BTR$M_FORCE> ;INVOKE RSX TKB
                               0FFC  018A       	.WORD	SAVE_REG_MASK
                          FE71'  30  018C       	BSBW	SETSTRING
                                 02  018F       	.BYTE	$$$FLAGS
                                 09  0190       	.BYTE	PROG_TKB
                                 00  0191       	.BYTE	$$CNT
                                     0192   336
                                     0192   337 LINK_TRACE:
                                     0192   338 	$SETSTRING	</TR>		;SET TRACE OPTION
                               0FFC  0192       	.WORD	SAVE_REG_MASK
                          FE69'  30  0194       	BSBW	SETSTRING
                                 00  0197       	.BYTE	$$$FLAGS
                                 00  0198       	.BYTE	0
                                 03  0199       	.BYTE	$$CNT
                           52 54 2F  019A       	.ASCII	\/TR\
                                     019D   339
                                     019D   340
                                     019D   341 	.END
LINK            /RSX - BACKTRANSLATOR FOR LINK/RSX COMMAND       22-AUG-1978 05:26:25   VAX-11 MACRO X0.3-11               Page  17
SYMBOL TABLE                                                                                                                     (3)

$$$            = 00000004            CLI$B_RQFLGS     00000002            CLI$K_OUTPUT3  = 00000022
$$$.           = 00000004            CLI$B_RQINDX     00000001            CLI$K_OUTPUT4  = 00000023
$$$FLAGS       = 00000000            CLI$B_RQSTAT     00000003            CLI$K_OUTSPEC  = 00000002
$$$GBL         = 00000000            CLI$B_RQTYPE     00000000            CLI$K_PARDONE  = 00000003
$$CNT          = 00000003            CLI$C_QDBITS     00000014            CLI$K_QDBITS     00000014
$$T1           = 00000003            CLI$C_QUALDEF    00000014            CLI$K_QUALDEF    00000014
$CLI.          = 00000264 R     03   CLI$C_REQDESC    0000001C            CLI$K_REQDESC    0000001C
$CLI..         = 0000027B R     03   CLI$C_WORKAREA   00000080            CLI$K_UTILOPR  = 00000000
$QUALNUM$      = 0000001D            CLI$K_ASCIIVAL = 00000041            CLI$K_VALCONV  = 00000004
BIT...         = 00000008            CLI$K_CLISERV  = 00000005            CLI$K_WORKAREA   00000080
BITMAP           ********   X   03   CLI$K_ENDPRM1  = 00000030            CLI$L_CLIFLAG    00000018
BTR$M_DECIMAL  = 00000080            CLI$K_ENDPRM2  = 00000031            CLI$L_INIARGCNT  00000000
BTR$M_EXPLICIT = 00000020            CLI$K_ENDPRM3  = 00000032            CLI$L_LINKFLAG   00000014
BTR$M_FORCE    = 00000002            CLI$K_ENDPRM4  = 00000033            CLI$L_RQVALU     0000000C
BTR$M_LIST     = 00000040            CLI$K_FILSPEC  = 00000044            CLI$L_USRVAL     00000014
BTR$M_MULTKEY  = 00000010            CLI$K_GETCMD   = 00000001            CLI$L_WORKAREA   00000000
BTR$M_RETURN   = 00000001            CLI$K_GETOPT   = 00000003            CLI$M_ABSADR   = 00000002
BTR$M_TEMPPOS  = 00000004            CLI$K_GETQUAL  = 00000002            CLI$M_ALLOCCUR = 00000001
BTR$M_VALREQ   = 00000008            CLI$K_INITPRS  = 00000000            CLI$M_BATCH    = 00000008
BTR$V_DECIMAL  = 00000007            CLI$K_INPSPEC  = 00000001            CLI$M_CONCATINP= 00000002
BTR$V_EXPLICIT = 00000005            CLI$K_INPUT1   = 00000010            CLI$M_DBGEXCP  = 00010000
BTR$V_FORCE    = 00000001            CLI$K_INPUT2   = 00000011            CLI$M_DBGTRU   = 00000002
BTR$V_LIST     = 00000006            CLI$K_INPUT3   = 00000012            CLI$M_DEBUG    = 00000001
BTR$V_MULTKEY  = 00000004            CLI$K_INPUT4   = 00000013            CLI$M_DUMMY    = 00000002
BTR$V_RETURN   = 00000000            CLI$K_KEYVAL   = 00000043            CLI$M_EXPNAM   = 00000004
BTR$V_TEMPPOS  = 00000002            CLI$K_KEYWORD  = 00000042            CLI$M_INDIRECT = 00000010
BTR$V_VALREQ   = 00000003            CLI$K_LINK_BRIE= 00000001            CLI$M_KEYVALU  = 00000002
BTR$_AMBIGKEYW = 00688030            CLI$K_LINK_CONC= 00000012            CLI$M_LASTVAL  = 00000001
BTR$_ILLEGOPT  = 00688018            CLI$K_LINK_CONT= 00000008            CLI$M_MOREINP  = 00000004
BTR$_IMGFNF    = 00688060            CLI$K_LINK_CROS= 00000002            CLI$M_MOREVALS = 00000001
BTR$_INTFAIL   = 00688048            CLI$K_LINK_DEBU= 00000003            CLI$M_PARMDEF  = 00000008
BTR$_INVALKEYW = 00688028            CLI$K_LINK_DEFA= 00000013            CLI$M_PARMPRS  = 00000001
BTR$_KEYVALOVR = 00688038            CLI$K_LINK_EXEC= 00000004            CLI$M_PARMREQ  = 00000001
BTR$_MISSNGVAL = 00688008            CLI$K_LINK_EXIT= 00000014            CLI$M_QDEXPA   = 00000004
BTR$_NOTIMPLEM = 00688020            CLI$K_LINK_FULL= 00000011            CLI$M_QDUSRV   = 00000002
BTR$_OPTVALOVR = 00688050            CLI$K_LINK_HEAD= 00000015            CLI$M_QUALEXP  = 00000002
BTR$_STRINGOVR = 00688010            CLI$K_LINK_INCL= 00000005            CLI$M_QUALTRU  = 00000001
BTR$_TOOMANY   = 00688058            CLI$K_LINK_LIBR= 00000006            CLI$M_TRMVRBLV = 00000300
BTR$_UNEXPLIST = 00688040            CLI$K_LINK_MAP = 00000009            CLI$M_VERIFY   = 00000004
BTRAN          = 00680000            CLI$K_LINK_OPTI= 0000000A            CLI$M_VFYINP   = 00000020
CLI$A_ABSACT     00000014            CLI$K_LINK_OVER= 00000016            CLI$Q_QDVALDESC  00000004
CLI$A_ERRACT     00000004            CLI$K_LINK_POSI= 00000017            CLI$Q_RQDESC     00000008
CLI$A_FLSACT     00000010            CLI$K_LINK_POST= 0000001B            CLI$S_PRITYP   = 00000004
CLI$A_IMGFILED   00000010            CLI$K_LINK_RSX1= 00000010            CLI$S_SUBTYP   = 00000004
CLI$A_IMGHDADR   0000000C            CLI$K_LINK_SELE= 0000000B            CLI$S_TRMVRBLV = 00000002
CLI$A_PROGXFER   00000004            CLI$K_LINK_SEQU= 00000018            CLI$V_ABSADR   = 00000001
CLI$A_PRSACT     00000010            CLI$K_LINK_SHAR= 00000007            CLI$V_ALLOCCUR = 00000000
CLI$A_QDVALADR   00000008            CLI$K_LINK_SUPR= 0000000F            CLI$V_BATCH    = 00000003
CLI$A_QUALST     00000018            CLI$K_LINK_SYMB= 0000000C            CLI$V_CONCATINP= 00000001
CLI$A_RQADDR     0000000C            CLI$K_LINK_SYSL= 0000000D            CLI$V_DBGEXCP  = 00000010
CLI$A_TRUACT     0000000C            CLI$K_LINK_SYSS= 0000001C            CLI$V_DBGTRU   = 00000001
CLI$A_UTILSERV   00000008            CLI$K_LINK_SYST= 0000000E            CLI$V_DEBUG    = 00000000
CLI$B_BITNUM     00000001            CLI$K_LINK_TKB_= 0000001A            CLI$V_DUMMY    = 00000001
CLI$B_QDBLKSIZ   00000000            CLI$K_LINK_TRAC= 00000019            CLI$V_EXPNAM   = 00000002
CLI$B_QDCODE     00000001            CLI$K_NUMERVAL = 00000040            CLI$V_INDIRECT = 00000004
CLI$B_QDFLGS     00000002            CLI$K_OUTPUT1  = 00000020            CLI$V_KEYVALU  = 00000001
CLI$B_QDSTAT     00000003            CLI$K_OUTPUT2  = 00000021            CLI$V_LASTVAL  = 00000000
LINK            /RSX - BACKTRANSLATOR FOR LINK/RSX COMMAND       22-AUG-1978 05:26:25   VAX-11 MACRO X0.3-11               Page  18
SYMBOL TABLE                                                                                                                     (3)

CLI$V_MOREINP  = 00000002            OUTPUT2_ARGLIST  000000B5 R     03   QUA_M_NEG      = 00000040
CLI$V_MOREVALS = 00000000            OUTPUT2_DESC     000000C5 R     03   QUA_M_ONEVAL   = 00002000
CLI$V_PARMDEF  = 00000003            OUTPUT3_ARGLIST  000000E1 R     03   QUA_M_OUTPUT   = 00000800
CLI$V_PARMPRS  = 00000000            OUTPUT3_DESC     000000F1 R     03   QUA_M_PARM     = 00000010
CLI$V_PARMREQ  = 00000000            OUTPUT_ARGLIST   00000089 R     03   QUA_M_VAL      = 00000020
CLI$V_PRITYP   = 00000004            OUTPUT_DESC      00000099 R     03   QUA_M_VALREQ   = 00001000
CLI$V_QDEXPA   = 00000002            PARAMLOC         ********   X   04   QUA_M_VERB     = 00000008
CLI$V_QDUSRV   = 00000001            PRIM_INPUT     = FFFFFFF6            QUA_S_MAXPARM  = 00000004
CLI$V_QUALEXP  = 00000001            PRIM_OUTPUT    = 00000000            QUA_S_MINPARM  = 00000004
CLI$V_QUALTRU  = 00000000            PROG_BP2       = 0000000C            QUA_V_BATDEF   = 00000008
CLI$V_SUBTYP   = 00000000            PROG_CBL       = 00000008            QUA_V_CHNGLIST = 00000000
CLI$V_TRMVRBLV = 00000008            PROG_CNT       = 0000000F            QUA_V_DEFTRUE  = 00000007
CLI$V_VERIFY   = 00000002            PROG_DIF       = 0000000F            QUA_V_FILE     = 00000002
CLI$V_VFYINP   = 00000005            PROG_DMP       = 00000007            QUA_V_IMAGE    = 0000000A
CLI$W_QDVALSIZ   00000004            PROG_F4V       = 00000002            QUA_V_INTDEF   = 00000009
CLI$W_RQSIZE     00000008            PROG_LBR       = 0000000B            QUA_V_KEYVAL   = 0000000E
CLI$W_SERVCOD    00000001            PROG_LIB       = 0000000A            QUA_V_LOCALKEY = 00000001
CLIWORKAREA      ********   X   03   PROG_MAC       = 00000004            QUA_V_MAXPARM  = 00000004
ERR_EXIT         ********   X   04   PROG_MAR       = 00000003            QUA_V_MINPARM  = 00000000
FATAL          = 00000004            PROG_PIP       = 00000001            QUA_V_NEG      = 00000006
GBL...         = 00000000            PROG_SLP       = 00000006            QUA_V_ONEVAL   = 0000000D
GETSTRING        ********   X   04   PROG_SOS       = 00000005            QUA_V_OUTPUT   = 0000000B
GETSUBVAL        ********   X   04   PROG_SRT       = 0000000E            QUA_V_PARM     = 00000004
HOLDLOC          ********   X   04   PROG_TKB       = 00000009            QUA_V_VAL      = 00000005
INPUT_ARGLIST    00000000 R     03   PROG_UFD       = 0000000D            QUA_V_VALREQ   = 0000000C
INPUT_DESC       00000010 R     03   PRO_B_FLAGS      00000001            QUA_V_VERB     = 00000003
INPUT_QUALS      0000002C R     03   PRO_B_PROMPT     00000000            QUA_W_FLAGS      00000003
INSERTARG        ********   X   04   PRO_K_LENGTH     00000002            QUA_W_PROMPT     00000009
LAST_PARAM     = FFFFFFEC            PRO_M_CONCAT   = 00000001            QUA_W_QUALIST    00000006
LINK             00000000 RG    04   PRO_M_IMPCAT   = 00000002            SAVE_REG_MASK  = 00000FFC
LINK$M_OPTIONS = 00000002            PRO_M_LIST     = 00000004            SETSTRING        ********   X   04
LINK$M_OVERLAY = 00000001            PRO_M_OPTION   = 00000008            VALUE_DESC       ********   X   04
LINK$V_OPTIONS = 00000001            PRO_M_REQ      = 00000010
LINK$V_OVERLAY = 00000000            PRO_M_STRING   = 00000020
LINK2            ********   X   04   PRO_V_CONCAT   = 00000000
LINKFLAGS        0000027C RG    03   PRO_V_IMPCAT   = 00000001
LINK_CROSSREF    00000072 R     04   PRO_V_LIST     = 00000002
LINK_DEBUG       0000007E R     04   PRO_V_OPTION   = 00000003
LINK_DEFAULT     000000A3 R     04   PRO_V_REQ      = 00000004
LINK_EXIT        000000C5 R     04   PRO_V_STRING   = 00000005
LINK_FULL        000000D0 R     04   QUAL_ARGLIST     0000010D R     03
LINK_INCLUDE     000000DD R     04   QUAL_DESC        0000011D R     03
LINK_LIBRARY     000000E9 R     04   QUAL_LIST        00000139 R     03
LINK_NOCONCAT    000000F4 R     04   QUA_B_DEFVAL     00000002
LINK_NOHEADER    00000100 R     04   QUA_B_IMAGE      00000005
LINK_OPTIONS     00000118 R     04   QUA_B_INDEX      00000001
LINK_OVERLAY     00000141 R     04   QUA_B_OFFSET     00000000
LINK_POSITION    00000153 R     04   QUA_B_PARMCNT    00000008
LINK_POST_MORT   00000169 R     04   QUA_G_CHNGLST    00000006
LINK_RSX11       0000018A R     04   QUA_M_BATDEF   = 00000100
LINK_SELECTIVE   00000174 R     04   QUA_M_CHNGLIST = 00000001
LINK_SEQUENTIAL  0000017F R     04   QUA_M_DEFTRUE  = 00000080
LINK_TRACE       00000192 R     04   QUA_M_FILE     = 00000004
NONE           = 00000000            QUA_M_IMAGE    = 00000400
OPTLINBUF        0000027F RG    03   QUA_M_INTDEF   = 00000200
OPTLINMAX      = 00000028  G         QUA_M_KEYVAL   = 00004000
OPTLINSIZ        0000027D RG    03   QUA_M_LOCALKEY = 00000002
LINK            /RSX - BACKTRANSLATOR FOR LINK/RSX COMMAND       22-AUG-1978 05:26:25   VAX-11 MACRO X0.3-11               Page  19
PROGRAM SECTION SYNOPSIS                                                                                                         (3)


PROGRAM SECTION SYNOPSIS

.  ABS  .        00000000      00     NOPIC   USR   CON   ABS   LCL NOSHR NOEXE NORD  NOWRT BYTE
. BLANK .        00000000      01     NOPIC   USR   CON   REL   LCL NOSHR   EXE   RD    WRT BYTE
$ABS$            00000080      02     NOPIC   USR   CON   ABS   LCL NOSHR   EXE   RD    WRT BYTE
IMPURE_          000002A7      03     NOPIC   USR   CON   REL   LCL NOSHR NOEXE   RD    WRT LONG
PURE_            0000019D      04     NOPIC   USR   CON   REL   LCL NOSHR   EXE   RD  NOWRT BYTE


THERE WERE NO ERRORS OR WARNINGS.
11708. BYTES LEFT IN FREE MEMORY POOL.
1602. BYTES OF RECLAIMED MEMORY.
OBJ$:LINKCMD,LIS$:LINKCMD/-SP/LI:MEB=EXECML$/ML,LIB$:B/ML,SRC$:LINKCMD
61 MLB DIR RDS - 644 GETS TO DEFINE 37 MACROS. 162 INTER. FILE WRITES.
