FORMAT	MACRO M1110  22-AUG-78 02:14
TABLE OF CONTENTS

     1-  300	OBJECT LANGUAGE DEFS
FORMAT	MACRO M1110  22-AUG-78 02:14  PAGE 1


    100						.TITLE	FORMAT
    200						.IDENT	/X0300/
    300						.SBTTL	OBJECT LANGUAGE DEFS
FORMAT	MACRO M1110  22-AUG-78 02:14  PAGE 3


      1					; COPYRIGHT (C) 1976, 1977
      2					; DIGITAL EQUIPMENT CORPORATION, MAYNARD, MASS.
      3					;
      4					; THIS SOFTWARE IS FURNISHED UNDER  A LICENSE FOR USE ONLY  ON  A
      5					; SINGLE COMPUTER SYSTEM AND MAY BE  COPIED ONLY WITH  THE INCLU-
      6					; SION OF  THE  ABOVE  COPYRIGHT NOTICE.  THIS SOFTWARE,  OR  ANY
      7					; OTHER COPIES THEREOF, MAY NOT BE  PROVIDED  OR  OTHERWISE  MADE
      8					; AVAILABLE TO ANY OTHER PERSON EXCEPT  FOR  USE  ON  SUCH SYSTEM
      9					; AND TO  ONE WHO AGREES  TO  THESE LICENSE  TERMS.  TITLE TO AND
     10					; OWNERSHIP OF THE SOFTWARE SHALL AT ALL TIMES REMAIN IN DEC.
     11					;
     12					; THE INFORMATION IN THIS SOFTWARE  IS  SUBJECT TO CHANGE WITHOUT
     13					; NOTICE AND SHOULD NOT BE CONSTRUED  AS  A COMMITMENT BY DIGITAL
     14					; EQUIPMENT CORPORATION.
     15					;
     16					; DEC ASSUMES NO RESPONSIBILITY FOR THE USE OR RELIABILITY OF ITS
     17					; SOFTWARE ON EQUIPMENT WHICH IS NOT SUPPLIED BY DEC.
LIBRHD	MACRO M1110  22-AUG-78 02:14  PAGE 4


      1						.TITLE	LIBRHD
      2						.IDENT	/03/
      3
      4					; COPYRIGHT (C) 1976, 1977
      5					; DIGITAL EQUIPMENT CORPORATION, MAYNARD, MASS.
      6					;
      7					; THIS SOFTWARE IS FURNISHED UNDER  A LICENSE FOR USE ONLY  ON  A
      8					; SINGLE COMPUTER SYSTEM AND MAY BE  COPIED ONLY WITH  THE INCLU-
      9					; SION OF  THE  ABOVE  COPYRIGHT NOTICE.  THIS SOFTWARE,  OR  ANY
     10					; OTHER COPIES THEREOF, MAY NOT BE  PROVIDED  OR  OTHERWISE  MADE
     11					; AVAILABLE TO ANY OTHER PERSON EXCEPT  FOR  USE  ON  SUCH SYSTEM
     12					; AND TO  ONE WHO AGREES  TO  THESE LICENSE  TERMS.  TITLE TO AND
     13					; OWNERSHIP OF THE SOFTWARE SHALL AT ALL TIMES REMAIN IN DEC.
     14					;
     15					; THE INFORMATION IN THIS SOFTWARE  IS  SUBJECT TO CHANGE WITHOUT
     16					; NOTICE AND SHOULD NOT BE CONSTRUED  AS  A COMMITMENT BY DIGITAL
     17					; EQUIPMENT CORPORATION.
     18					;
     19					; DEC ASSUMES NO RESPONSIBILITY FOR THE USE OR RELIABILITY OF ITS
     20					; SOFTWARE ON EQUIPMENT WHICH IS NOT SUPPLIED BY DEC.
     21					;
     22					; VERSION 03
     23					;
     24					; WRITTEN BY:
     25					;	GEORGE W. BERRY
     26					;
     27					; MODIFIED BY:
     28					;	C.A. D'ELIA	08-MAY-74
     29					;	THOMAS J. MILLER 07-NOV-75	(CHANGE IN$COR TO $SWTCH+2)
     30					;
     31					;
     32
     33
     34					;+
     35					; **-$RDHD-READ LIBRARY HEADER, EPT AND MNT
     36					;
     37					; THIS ROUTINE READS THE LIBRARY HEADER, EPT AND MNT INTO AN AREA
     38					; BEGINNING AT L$BUF.
     39					;
     40					; INPUTS:
     41					;
     42					;	NONE
     43					;
     44					;
     45					; OUTPUTS:
     46					;
     47					;	$EPBLK AND $MNBLK ARE SET UP
     48					;
     49					;-
     50	000000				$RDHD::
     51	000000	032767 	000000G	000002G		BIT #IN$COR,$SWTCH+2	;IS HEADER, EPT, AND MNT ALREADY THERE?
     52	000006	001011 				BNE	10$		;EXIT IF SO
     53	000010					CALL	$RDLHD		;READ LIBRARY HEADER
     54	000014					CALL	$RDEP		;READ EPT
     55	000020					CALL	$RDMN		;READ MNT
     56	000024	052767 	000000G	000002G		BIS	#IN$COR,$SWTCH+2 ;INDICATE GOOD HEADER, EPT AND MNT IN CORE
     57	000032				10$:	RETURN
LIBRHD	MACRO M1110  22-AUG-78 02:14  PAGE 4-1


     58		000001 				.END
LIBRHD	MACRO M1110  22-AUG-78 02:14  PAGE 4-2
SYMBOL TABLE

CTLGRP= 000120   	MH$TTL= 000003   	PF$OVL= 000004   	SDF$MX= 000032   	S$SFL1  000004      007
EOM$MX= 000007   	MTC$MX= 000213   	PF$PIC= 000001   	SF$DEF= 000002   	S$$LIB= 000000
E$OMAD  000003      012	M$HDMS  000003      003	PF$RD = 000200   	SF$REL= 000010   	TIRMAX= 000121
E$OMER  000001      012	M$HDNM  000005      003	PF$REL= 000010   	SF$UNI= 000004   	T$CHAR= 000005
E$OMPS  000002      012	M$HDSL  000002      003	PF$SHR= 000040   	SF$VAL= 000020   	T$HEAD= 000000
GS$ARG= 000003   	M$HDST  000001      003	PF$UNI= 000002   	SF$WK = 000001   	T$SLEN= 000004
GS$EPM= 000002   	M$TCPN  000002      004	PF$WRT= 000001   	SRF$MX= 000025   	T$SMBL= 000004
GS$PSC= 000000   	OBJ$SL= 000000   	PF$XEQ= 000100   	STAGRP= 000000   	V$MEML= 000002
GS$SYM= 000001   	OB$DBG= 000004   	PSD$MX= 000031   	STOGRP= 000024   	$     = 000000      012
G$SDTY  000001      005	OB$EOM= 000003   	P$SALI  000002      006	S$DNAM  000013      011	$RDEP = ****** GX
IN$COR= ****** GX	OB$GSD= 000001   	P$SALO  000005      006	S$DNLN  000012      011	$RDHD   000000RG
MAXALI= 000011   	OB$HDR= 000000   	P$SFL0  000003      006	S$DPSI  000005      011	$RDLHD= ****** GX
MHD$MX= 000111   	OB$LNK= 000005   	P$SFL1  000004      006	S$DVAL  000006      011	$RDMN = ****** GX
MH$CPY= 000004   	OB$TIR= 000002   	P$SNAM  000012      006	S$MXLN= 000017   	$SWTCH= ****** GX
MH$GTX= 000006   	OPRGRP= 000062   	P$SNLN  000011      006	S$RNAM  000006      010	$$    = 000001
MH$LNM= 000001   	O$BJTY  000000      002	Q$$CMO= 000000   	S$RNLN  000005      010	$$S   = 000005
MH$MHD= 000000   	PAGALI= 000011   	R$MXLN= 001000   	S$SDTY  000002      007	$$0   = 000002
MH$MTC= 000005   	PF$GBL= 000020   	R$$11M= 000000   	S$SFL0  000003      007	$$1   = 000002
MH$SRC= 000002

. ABS.	000000	   000
      	000034	   001
OBJREC	000001	   002
MHDREC	000111	   003
MTCREC	000213	   004
GSDREC	000002	   005
PSDEF 	000031	   006
SYMBOL	000005	   007
SYMREF	000025	   010
SYMDEF	000032	   011
EOMREC	000007	   012
ERRORS DETECTED:  0

VIRTUAL MEMORY USED:  888 WORDS  ( 4 PAGES)
DYNAMIC MEMORY:  2772 WORDS  ( 10 PAGES)
ELAPSED TIME:  00:00:07
OBJ$:LIBRHD,LIS$:LIBRHD/-SP=SRC$:NEWFORMAT.,LIBPRE,LIBRHD
