FALERROR        - FAL ERROR PROCESSING                           22-AUG-1978 01:12:29   VAX-11 MACRO X0.3-11               Page   0
TABLE OF CONTENTS

   (2)      42  DECLARATIONS
   (3)      63  FAL$STATUS - RETURN DAP STATUS MESSAGE
FALERROR        - FAL ERROR PROCESSING                           22-AUG-1978 01:12:29   VAX-11 MACRO X0.3-11               Page   1
X0.1-5                                                                                                                           (1)

                                     0000     1 	.TITLE	FALERROR - FAL ERROR PROCESSING
                                     0000     2 	.IDENT	/X0.1-5/
                                     0000     3
                                     0000     4 ;
                                     0000     5 ;			  COPYRIGHT (c) 1977, 1978 BY
                                     0000     6 ;	      DIGITAL EQUIPMENT CORPORATION, MAYNARD, MASS.
                                     0000     7 ;
                                     0000     8 ; THIS SOFTWARE IS FURNISHED UNDER A LICENSE AND MAY BE USED AND  COPIED
                                     0000     9 ; ONLY  IN  ACCORDANCE  WITH  THE  TERMS  OF  SUCH  LICENSE AND WITH THE
                                     0000    10 ; INCLUSION OF THE ABOVE COPYRIGHT NOTICE.  THIS SOFTWARE OR  ANY  OTHER
                                     0000    11 ; COPIES  THEREOF MAY NOT BE PROVIDED OR OTHERWISE MADE AVAILABLE TO ANY
                                     0000    12 ; OTHER PERSON.  NO TITLE TO AND OWNERSHIP OF  THE  SOFTWARE  IS  HEREBY
                                     0000    13 ; TRANSFERRED.
                                     0000    14 ;
                                     0000    15 ; THE INFORMATION IN THIS SOFTWARE IS SUBJECT TO CHANGE  WITHOUT  NOTICE
                                     0000    16 ; AND  SHOULD  NOT  BE  CONSTRUED  AS  A COMMITMENT BY DIGITAL EQUIPMENT
                                     0000    17 ; CORPORATION.
                                     0000    18 ;
                                     0000    19 ; DIGITAL ASSUMES NO RESPONSIBILITY FOR THE USE OR  RELIABILITY  OF  ITS
                                     0000    20 ; SOFTWARE ON EQUIPMENT WHICH IS NOT SUPPLIED BY DIGITAL.
                                     0000    21 ;
                                     0000    22
                                     0000    23 ;++
                                     0000    24 ; FACILITY: DECNET FILE ACCESS LISTENER (FAL)
                                     0000    25 ;
                                     0000    26 ; ABSTRACT:
                                     0000    27 ;
                                     0000    28 ;	THIS MODULE IS RESPONSIBLE FOR PROCESSING ERROR CONDITIONS AND
                                     0000    29 ;	RETURNING DAP STATUS MESSAGES AS APPROPRIATE.
                                     0000    30 ;
                                     0000    31 ; ENVIRONMENT:
                                     0000    32 ;
                                     0000    33 ;	THE FAL IMAGE EXECUTES IN THE CONTEXT OF A PROCESS CREATED BY
                                     0000    34 ;	NETACP. IT RUNS IN USER MODE AND REQUIRES NETWORK PRIVILEGE.
                                     0000    35 ;
                                     0000    36 ; AUTHOR: JAMES A. KRYCKA,	CREATION DATE: 16-JUN-77
                                     0000    37 ;
                                     0000    38 ; MODIFICATIONS:
                                     0000    39 ;
                                     0000    40 ;--
FALERROR        - FAL ERROR PROCESSING                           22-AUG-1978 01:12:29   VAX-11 MACRO X0.3-11               Page   2
X0.1-5          DECLARATIONS                                                                                                     (2)

                                     0000    42 	.SBTTL	DECLARATIONS
                                     0000    43
                                     0000    44 ;
                                     0000    45 ; INCLUDE FILES:
                                     0000    46 ;
                                     0000    47 	$FALWRKDEF			; DEFINE FAL WORK AREA SYMBOLS
                                     0000    48 	$DAPDEF				; DEFINE DAP INTERNAL CTL BLOCK SYMBOLS
                                     0000    49 ;	.LIST	MEB
                                     0000    50 ;
                                     0000    51 ; MACROS:
                                     0000    52 ;
                                     0000    53 ;	NONE
                                     0000    54 ;
                                     0000    55 ; EQUATED SYMBOLS:
                                     0000    56 ;
                                     0000    57 ;	NONE
                                     0000    58 ;
                                     0000    59 ; OWN STORAGE:
                                     0000    60 ;
                                     0000    61 ;	NONE
FALERROR        - FAL ERROR PROCESSING                           22-AUG-1978 01:12:29   VAX-11 MACRO X0.3-11               Page   3
X0.1-5          FAL$STATUS - RETURN DAP STATUS MESSAGE                                                                           (3)

                                     0000    63 	.SBTTL	FAL$STATUS - RETURN DAP STATUS MESSAGE
                                 00000000    64 	.PSECT	FAL$CODE	NOSHR,EXE,RD,NOWRT,BYTE
                                     0000    65
                                     0000    66 ;++
                                     0000    67 ; FUNCTIONAL DESCRIPTION:
                                     0000    68 ;
                                     0000    69 ;	NONE
                                     0000    70 ;
                                     0000    71 ; CALLING SEQUENCE:
                                     0000    72 ;
                                     0000    73 ;	BSB/JSB	FAL$STATUS
                                     0000    74 ;
                                     0000    75 ; INPUT PARAMETERS:
                                     0000    76 ;
                                     0000    77 ;	R2	DAP MACCODE VALUE (IN BITS 0-3)
                                     0000    78 ;	R8	ADDRESS OF FAL WORK AREA
                                     0000    79 ;	R9	ADDRESS OF DAP CONTROL BLOCK
                                     0000    80 ;	R10	ADDRESS OF FAB CONTROL BLOCK
                                     0000    81 ;	R11	ADDRESS OF RAB CONTROL BLOCK
                                     0000    82 ;
                                     0000    83 ;	FOR FILE ACCESS ERRORS:
                                     0000    84 ;
                                     0000    85 ;	R0	RMS-32 COMPLETION CODE
                                     0000    86 ;	R1	UNDEFINED
                                     0000    87 ;
                                     0000    88 ;	FOR PROTOCOL ERRORS:
                                     0000    89 ;
                                     0000    90 ;	R0	DAP FIELD CODE (IN BITS 0-5)
                                     0000    91 ;	R1	DAP MESSAGE TYPE (IN BITS 0-5)
                                     0000    92 ;
                                     0000    93 ;	FOR MESSAGE SYNCHRONIZATION ERRORS:
                                     0000    94 ;
                                     0000    95 ;	R0	UNDEFINED
                                     0000    96 ;	R1	DAP MESSAGE TYPE (IN BITS 0-5)
                                     0000    97 ;
                                     0000    98 ; IMPLICIT INPUTS:
                                     0000    99 ;
                                     0000   100 ;	NONE
                                     0000   101 ;
                                     0000   102 ; OUTPUT PARAMETERS:
                                     0000   103 ;
                                     0000   104 ;	R0-R1	DESTROYED
                                     0000   105 ;
                                     0000   106 ; IMPLICIT OUTPUTS:
                                     0000   107 ;
                                     0000   108 ;	NONE
                                     0000   109 ;
                                     0000   110 ; COMPLETION CODES:
                                     0000   111 ;
                                     0000   112 ;	NONE
                                     0000   113 ;
                                     0000   114 ; SIDE EFFECTS:
                                     0000   115 ;
                                     0000   116 ;	A DAP STATUS MESSAGE IS TRANSMITTED TO THE PARTNER PROCESS.
                                     0000   117 ;
                                     0000   118 ;--
                                     0000   119
FALERROR        - FAL ERROR PROCESSING                           22-AUG-1978 01:12:29   VAX-11 MACRO X0.3-11               Page   4
X0.1-5          FAL$STATUS - RETURN DAP STATUS MESSAGE                                                                           (3)

                                     0000   120 FAL$STATUS::				; CONTROL POINT
                                     0000   121
                                     0000   122 ;
                                     0000   123 ; EXAMINE DAP MACCODE PARAMETER TO DETERMINE WHICH CLASS OF MESSAGE IT IS.
                                     0000   124 ;
                                     0000   125
                                     0000   126 	$CASEB	SELECTOR=R2,DISPL=<-	; STATUS:
                                     0000   127 		FILE_ACCESS-		;  FILE OPERATION PENDING
                                     0000   128 		FILE_ACCESS-		;  FILE OPERATION SUCCESSFUL
                                     0000   129 		PROTOCOL-		;  REQUEST NOT SUPPORTED
                                     0000   130 		BUG-			;  UNDEFINED VALUE
                                     0000   131 		FILE_ACCESS-		;  ERRORS RELATED TO OPENING A FILE
                                     0000   132 		FILE_ACCESS-		;  ERRORS RELATED TO FILE TRANSFER
                                     0000   133 		BUG-			;  UNDEFINED VALUE
                                     0000   134 		FILE_ACCESS-		;  ERRORS RELATED TO CLOSING A FILE
                                     0000   135 		PROTOCOL-		;  INCORRECT MESSAGE FORMAT
                                     0000   136 		PROTOCOL-		;  INVALID FIELD VALUE
                                     0000   137 		MSG_OUT_OF_SEQ-		;  UNEXPECTED MESSAGE FOR STATE
                                     0000   138 	>				;
                                 00  001A   139 BUG:	HALT				;
                                     001B   140
                                     001B   141 ;
                                     001B   142 ; PROCESS FILE ACCESS ERROR. PERFORM RMS-TO-DAP STATUS CODE LOOK-UP TO
                                     001B   143 ; TO OBTAIN DAP MICCODE VALUE.
                                     001B   144 ; NOTE: IF THE RMS CODE DOES NOT MATCH, A DAP MICCODE OF ZERO IS RETURNED
                                     001B   145 ; WHICH MEANS UNKNOWN TYPE OF ERROR.
                                     001B   146 ;
                                     001B   147
                                     001B   148 FILE_ACCESS:				;
            51       0000'CF     DE  001B   149 	MOVAL	W^FAL$RMS_TO_DAP,R1	; GET CONVERSION TABLE ADDRESS
            81            50     B1  0020   150 10$:	CMPW	R0,(R1)+		; DOES RMS CODE MATCH?
                          04     13  0023   151 	BEQL	20$			; YES, FINISH UP
                          81     B5  0025   152 	TSTW	(R1)+			; IS THIS END OF TABLE?
                          F7     12  0027   153 	BNEQ	10$			; NO, TRY AGAIN
            50            61     3C  0029   154 20$:	MOVZWL	(R1),R0			; STORE EQUIVALENT DAP STATUS CODE
                          0A     11  002C   155 	BRB	ADD_MACCODE		; CONTINUE
                                     002E   156
                                     002E   157 ;
                                     002E   158 ; FORM MICCODE VALUE FOR DAP PROTOCOL ERROR.
                                     002E   159 ;
                                     002E   160
                                     002E   161 PROTOCOL:				;
            06            51     F0  002E   162 	INSV	R1,#6,#6,R0		; ADD MESSAGE TYPE TO FIELD ID
            50            06         0031
                          03     11  0033   163 	BRB	ADD_MACCODE		; CONTINUE
                                     0035   164
                                     0035   165 ;
                                     0035   166 ; GET MICCODE VALUE FOR MESSAGE-OUT-OF-SEQUENCE ERROR.
                                     0035   167 ;
                                     0035   168
                                     0035   169 MSG_OUT_OF_SEQ:				;
            50            51     D0  0035   170 	MOVL	R1,R0			; MACCODE = MESSAGE TYPE VALUE
                                     0038   171
                                     0038   172 ;
                                     0038   173 ; COMBIME MACCODE VALUE WITH MICCODE VALUE TO FORM DAP STATUS CODE.
                                     0038   174 ;
                                     0038   175
FALERROR        - FAL ERROR PROCESSING                           22-AUG-1978 01:12:29   VAX-11 MACRO X0.3-11               Page   5
X0.1-5          FAL$STATUS - RETURN DAP STATUS MESSAGE                                                                           (3)

                                     0038   176 ADD_MACCODE:				;
            0C            52     F0  0038   177 	INSV	R2,#12,#4,R0		; DAP STSCODE IS ASSEMBLED
            50            04         003B
                                     003D   178
                                     003D   179 ;
                                     003D   180 ; BUILD DAP STATUS MESSAGE AND SEND IT TO REMOTE PARTNER.
                                     003D   181 ;
                                     003D   182
            51         48 A8     D0  003D   183 	MOVL	FAL$Q_XMT+4(R8),R1	; GET ADDRESS OF TRANSMIT BUFFER
            81            09     90  0041   184 	MOVB	#DAP$K_STS_MSG,(R1)+	; DAP MESSAGE TYPE FIELD
                          81     94  0044   185 	CLRB	(R1)+			; FLAGS FIELD
            81            50     B0  0046   186 	MOVW	R0,(R1)+		; STSCODE FIELD
         44 A8            04     D0  0049   187 	MOVL	#4,FAL$Q_XMT(R8)	; UPDATE MESSAGE SIZE
                          FFB0'  30  004D   188 	BSBW	FAL$TRANSMIT		; SEND THE MESSAGE
                                 05  0050   189 	RSB				; EXIT
                                     0051   190 	.END
FALERROR        - FAL ERROR PROCESSING                           22-AUG-1978 01:12:29   VAX-11 MACRO X0.3-11               Page   6
SYMBOL TABLE                                                                                                                     (3)

$$COUNT        = 0000000B            DAP$K_DISCON   = 00000004            DAP$M_BLS      = 00000010
ADD_MACCODE      00000038 R     03   DAP$K_ECONUM_V = 00000002            DAP$M_CBT      = 00800000
BIT...         = 00000000            DAP$K_ERASE    = 00000004            DAP$M_CIF      = 00010000
BUG              0000001A R     03   DAP$K_EXECUTE  = 00000008            DAP$M_CTG      = 00000080
DAP$B_ACCFUNC    00000060            DAP$K_FAC_I    = 00000040            DAP$M_DATATYPE = 00000001
DAP$B_ACCOPT     00000061            DAP$K_FIND     = 0000000E            DAP$M_DEQ      = 00000800
DAP$B_BKS        00000048            DAP$K_FIX      = 00000001            DAP$M_DEV      = 00004000
DAP$B_CMPFUNC    00000080            DAP$K_FLAGS_I  = 00000004            DAP$M_DLK      = 00000010
DAP$B_CONFUNC    0000007C            DAP$K_FOP_I    = 01020024            DAP$M_DLT      = 00400000
DAP$B_CTLFUNC    0000006C            DAP$K_GET_READ = 00000001            DAP$M_DMO      = 00002000
DAP$B_CTLMENU    0000006D            DAP$K_IDX      = 00000020            DAP$M_EMBEDDED = 00000010
DAP$B_DATATYPE   0000003C            DAP$K_KEY_ACC  = 00000001            DAP$M_FID      = 00001000
DAP$B_ECONUM     00000029            DAP$K_LSA      = 00000005            DAP$M_FOP      = 00001000
DAP$B_FAC        00000062            DAP$K_OPEN     = 00000001            DAP$M_FSZ      = 00000100
DAP$B_FIELD_ID   00000009            DAP$K_PURGE    = 00000003            DAP$M_GET      = 00000002
DAP$B_FILESYS    00000027            DAP$K_PUT_WRITE= 00000004            DAP$M_IMAGE    = 00000002
DAP$B_FLAGS      00000021            DAP$K_RAT_I    = 00000020            DAP$M_KEY      = 00000002
DAP$B_FSZ        00000049            DAP$K_REL      = 00000010            DAP$M_MRN      = 00000200
DAP$B_LENGTH     00000023            DAP$K_RESPONSE = 00000002            DAP$M_MRS      = 00000020
DAP$B_MAC_CODE   0000000B            DAP$K_RETRY    = 00000001            DAP$M_MXV      = 00080000
DAP$B_MSG_TYPE   0000000A            DAP$K_REWIND   = 00000006            DAP$M_NEF      = 00000200
DAP$B_ORG        0000003D            DAP$K_RFA_ACC  = 00000002            DAP$M_NIL      = 00000040
DAP$B_OSTYPE     00000026            DAP$K_RMS32    = 00000003            DAP$M_NONFATAL = 00000001
DAP$B_RAC        0000006E            DAP$K_ROP_I    = 00000802            DAP$M_ORG      = 00000002
DAP$B_RAT        0000003F            DAP$K_SEQ      = 00000000            DAP$M_POS      = 00000008
DAP$B_RFM        0000003E            DAP$K_SEQ_ACC  = 00000000            DAP$M_RAC      = 00000001
DAP$B_SHR        00000063            DAP$K_SEQ_FILE = 00000003            DAP$M_RAT      = 00000008
DAP$B_SOFTVER    0000002B            DAP$K_SHR_I    = 00000090            DAP$M_RCK      = 00008000
DAP$B_STREAMID   00000022            DAP$K_SKIP_REC = 00000002            DAP$M_RFM      = 00000004
DAP$B_TYPE       00000020            DAP$K_SOFTVER_V= 00000001            DAP$M_ROP      = 00000008
DAP$B_USRNUM     0000002A            DAP$K_SPACE    = 0000000B            DAP$M_RUNSYS   = 00000400
DAP$B_USRSOFT    0000002C            DAP$K_STM      = 00000004            DAP$M_RWC      = 00000002
DAP$B_VERNUM     00000028            DAP$K_STS_MSG  = 00000009            DAP$M_RWO      = 00000001
DAP$C_BLN        000000C0            DAP$K_SUBMIT   = 00000007            DAP$M_SCF      = 00200000
DAP$K_ABORT    = 00000003            DAP$K_SYSCAP_V = E00660E7            DAP$M_SPL      = 00100000
DAP$K_ACCOPT_I = 00000008            DAP$K_UDF      = 00000000            DAP$M_SQO      = 00040000
DAP$K_ACC_MSG  = 00000003            DAP$K_UPDATE   = 00000003            DAP$M_SUP      = 00000100
DAP$K_ACK_MSG  = 00000006            DAP$K_USRNUM_V = 00000000            DAP$M_TMD      = 00000800
DAP$K_ATTMENU_I= 0001A000            DAP$K_USRSOFT_V= 00000000            DAP$M_TMP      = 00000400
DAP$K_ATT_MSG  = 00000002            DAP$K_VAR      = 00000002            DAP$M_WCK      = 00004000
DAP$K_BLK_FILE = 00000005            DAP$K_VAXVMS   = 00000007            DAP$Q_DCODE_FLG  00000000
DAP$K_BLK_VBN  = 00000004            DAP$K_VERNUM_V = 00000004            DAP$Q_FILEDATA   00000090
DAP$K_BLN        000000C0            DAP$K_VFC      = 00000003            DAP$Q_FILESPEC   00000064
DAP$K_BLS_D    = 00000200            DAP$L_ALQ        00000044            DAP$Q_KEY        00000070
DAP$K_BUFSIZ_V = 00001100            DAP$L_ATTMENU    00000038            DAP$Q_MSG_BUF1   00000010
DAP$K_CLOSE    = 00000001            DAP$L_DCODE_STS  00000008            DAP$Q_MSG_BUF2   00000018
DAP$K_CMP_MSG  = 00000007            DAP$L_DEV        0000005C            DAP$Q_NUMBER     00000088
DAP$K_CNF_MSG  = 00000001            DAP$L_FOP        00000058            DAP$Q_RFA        0000009C
DAP$K_CONNECT  = 00000002            DAP$L_FOP2       00000084            DAP$Q_RUNSYS     00000050
DAP$K_CON_MSG  = 00000005            DAP$L_MRN        0000004C            DAP$Q_SYSCAP     00000030
DAP$K_CREATE   = 00000002            DAP$L_MSG_MASK   0000000C            DAP$Q_VERSION    00000028
DAP$K_CTLMENU_I= 00000054            DAP$L_OPERATOR   00000020            DAP$S_TMP1..   = 0000000A
DAP$K_CTL_MSG  = 00000004            DAP$L_RECNUM     000000A4            DAP$S_TMP2..   = 00000015
DAP$K_DATATYP_I= 00000084            DAP$L_ROP        00000078            DAP$S_TMP3..   = 00000002
DAP$K_DAT_MSG  = 00000008            DAP$L_STV        000000A8            DAP$S_TMP4..   = 00000008
DAP$K_DELETE   = 00000005            DAP$M_ALQ      = 00000040            DAP$V_AFTER_V41= 00000020
DAP$K_DEV_I    = 04000040            DAP$M_BKS      = 00000080            DAP$V_ALQ      = 00000006
FALERROR        - FAL ERROR PROCESSING                           22-AUG-1978 01:12:29   VAX-11 MACRO X0.3-11               Page   7
SYMBOL TABLE                                                                                                                     (3)

DAP$V_APPEND   = 0000000D            DAP$V_MRN      = 00000009            DAP$_UNSUPPORT = 00000002
DAP$V_ASCII    = 00000000            DAP$V_MRS      = 00000005            FAL$B_VALUE      00000010
DAP$V_BIO      = 00000005            DAP$V_MSGBLK   = 00000012            FAL$C_WRKBLN     00000400
DAP$V_BKS      = 00000007            DAP$V_MXV      = 00000013            FAL$K_BUFFERSIZ= 00000080
DAP$V_BLK      = 00000003            DAP$V_NEF      = 00000009            FAL$K_DAP      = 000000C0
DAP$V_BLS      = 00000004            DAP$V_NIL      = 00000006            FAL$K_FAB      = 00000050
DAP$V_CBT      = 00000017            DAP$V_NONFATAL = 00000000            FAL$K_MBXBUF   = 00000040
DAP$V_CIF      = 00000010            DAP$V_ORG      = 00000001            FAL$K_NAM      = 00000038
DAP$V_CR       = 00000001            DAP$V_POS      = 00000003            FAL$K_NCBBUF   = 00000040
DAP$V_CTG      = 00000007            DAP$V_PRIV     = 00000005            FAL$K_RAB      = 00000044
DAP$V_DATATYPE = 00000000            DAP$V_PRN      = 00000002            FAL$K_RESULTSIZ= 00000080
DAP$V_DEL      = 00000002            DAP$V_PUT      = 00000000            FAL$K_STB      = 00000020
DAP$V_DEQ      = 0000000B            DAP$V_RAC      = 00000000            FAL$K_WRKBLN     00000400
DAP$V_DEV      = 0000000E            DAP$V_RANREC   = 00000006            FAL$L_FAB        00000200
DAP$V_DEVALL   = 0000000C            DAP$V_RANVBN   = 00000007            FAL$L_NAM        00000294
DAP$V_DEVAVL   = 00000010            DAP$V_RAT      = 00000003            FAL$L_RAB        00000250
DAP$V_DEVCCL   = 00000001            DAP$V_RCK      = 0000000F            FAL$L_SPARE      0000004C
DAP$V_DEVDIR   = 00000003            DAP$V_RELORG   = 00000002            FAL$L_STB        000000C0
DAP$V_DEVDMT   = 0000000B            DAP$V_RFM      = 00000002            FAL$Q_BOUNDS     00000034
DAP$V_DEVELG   = 00000011            DAP$V_ROP      = 00000003            FAL$Q_FLG        00000000
DAP$V_DEVFOD   = 00000007            DAP$V_RUNSYS   = 0000000A            FAL$Q_LNKIOSB    0000001C
DAP$V_DEVFOR   = 00000017            DAP$V_RWC      = 00000001            FAL$Q_MBX        0000002C
DAP$V_DEVGEN   = 00000019            DAP$V_RWO      = 00000000            FAL$Q_MBXIOSB    00000024
DAP$V_DEVIDV   = 0000000D            DAP$V_SCF      = 00000015            FAL$Q_NCB        0000002C
DAP$V_DEVMBX   = 00000012            DAP$V_SEQORG   = 00000001            FAL$Q_RCV        0000003C
DAP$V_DEVMNT   = 0000000A            DAP$V_SEQREC   = 00000005            FAL$Q_STATE_CTX  00000008
DAP$V_DEVNET   = 00000018            DAP$V_SPL      = 00000014            FAL$Q_XMT        00000044
DAP$V_DEVODV   = 0000000E            DAP$V_SQO      = 00000012            FAL$RMS_TO_DAP   ********   X   03
DAP$V_DEVRCK   = 00000015            DAP$V_STREAMID = 00000000            FAL$STATUS       00000000 RG    03
DAP$V_DEVREC   = 00000000            DAP$V_STSRTN   = 00000011            FAL$TRANSMIT     ********   X   03
DAP$V_DEVRND   = 00000014            DAP$V_STS_RETRV= 00000002            FAL$T_BUFFER     00000380
DAP$V_DEVRTM   = 00000013            DAP$V_STS_STORE= 00000001            FAL$T_DAP        00000100
DAP$V_DEVSDI   = 00000004            DAP$V_SUBMIT   = 0000000E            FAL$T_MBXBUF     00000080
DAP$V_DEVSHR   = 00000008            DAP$V_SUP      = 00000008            FAL$T_NCBBUF     00000080
DAP$V_DEVSPL   = 00000009            DAP$V_TMD      = 0000000B            FAL$T_RESULTANT  00000300
DAP$V_DEVSQD   = 00000005            DAP$V_TMP      = 0000000A            FAL$V_ATT_MSG  = 00000001
DAP$V_DEVSWL   = 0000000F            DAP$V_TMP1..   = 00000001            FAL$V_BLOCK_IO = 00000009
DAP$V_DEVTRM   = 00000002            DAP$V_TMP2..   = 0000000B            FAL$V_CNF_MSG  = 00000000
DAP$V_DEVWCK   = 00000016            DAP$V_TMP3..   = 00000006            FAL$V_CONNECT  = 00000002
DAP$V_DLK      = 00000004            DAP$V_TMP4..   = 00000018            FAL$V_EOF      = 0000000A
DAP$V_DLT      = 00000016            DAP$V_TRN      = 00000004            FAL$V_FILE_MODE= 00000008
DAP$V_DMO      = 0000000D            DAP$V_UPD      = 00000003            FAL$V_MBXAST   = 00000012
DAP$V_EMBEDDED = 00000004            DAP$V_VAXVMS   = 00000021            FAL$V_RCVAST   = 00000010
DAP$V_EOF      = 00000000            DAP$V_WCK      = 0000000E            FAL$V_XMTAST   = 00000011
DAP$V_EXEC     = 00000004            DAP$W_BLS        00000040            FAL$W_ACTUALSIZ  00000016
DAP$V_FID      = 0000000C            DAP$W_BUFSIZ     00000024            FAL$W_LNKCHN     00000018
DAP$V_FILALL   = 00000000            DAP$W_DEQ        0000004A            FAL$W_MAXDAPSIZ  00000014
DAP$V_FOP      = 0000000C            DAP$W_MRS        00000042            FAL$W_MBXCHN     0000001A
DAP$V_FOPDLT   = 0000001F            DAP$W_STSCODE    00000098            FILE_ACCESS      0000001B R     03
DAP$V_FOPSCF   = 0000001E            DAP$_FILE_CLOS = 00000007            GBL...         = 00000000
DAP$V_FOPSPL   = 0000001D            DAP$_FILE_OPEN = 00000004            MSG_OUT_OF_SEQ   00000035 R     03
DAP$V_FSZ      = 00000008            DAP$_FILE_XFER = 00000005            PROTOCOL         0000002E R     03
DAP$V_FTN      = 00000000            DAP$_FORMAT    = 00000008
DAP$V_GET      = 00000001            DAP$_INVALID   = 00000009
DAP$V_IMAGE    = 00000001            DAP$_MSG_SYNC  = 0000000A
DAP$V_KEY      = 00000001            DAP$_PENDING   = 00000000
DAP$V_LENGTH   = 00000001            DAP$_SUCCESS   = 00000001
FALERROR        - FAL ERROR PROCESSING                           22-AUG-1978 01:12:29   VAX-11 MACRO X0.3-11               Page   8
PROGRAM SECTION SYNOPSIS                                                                                                         (3)


PROGRAM SECTION SYNOPSIS

.  ABS  .        00000000      00     NOPIC   USR   CON   ABS   LCL NOSHR NOEXE NORD  NOWRT BYTE
. BLANK .        00000000      01     NOPIC   USR   CON   REL   LCL NOSHR   EXE   RD    WRT BYTE
$ABS$            00000400      02     NOPIC   USR   CON   ABS   LCL NOSHR   EXE   RD    WRT BYTE
FAL$CODE         00000051      03     NOPIC   USR   CON   REL   LCL NOSHR   EXE   RD  NOWRT BYTE


THERE WERE NO ERRORS OR WARNINGS.
9698. BYTES LEFT IN FREE MEMORY POOL.
9356. BYTES OF RECLAIMED MEMORY.
OBJ$:FALERROR,LIS$:FALERROR/-SP=LIB$:FAL.MLB/ML,SRC$:FALERROR
21 MLB DIR RDS - 757 GETS TO DEFINE 13 MACROS. 50 INTER. FILE WRITES.
