FALRMSDAP       - RMS TO DAP ERROR CONVERSION                    22-AUG-1978 01:14:26   VAX-11 MACRO X0.3-11               Page   0
TABLE OF CONTENTS

   (2)      42  DECLARATIONS
   (3)      79  FAL$ERROR_TABLE - RMS TO DAP TABLE
FALRMSDAP       - RMS TO DAP ERROR CONVERSION                    22-AUG-1978 01:14:26   VAX-11 MACRO X0.3-11               Page   1
X0.1-4                                                                                                                           (1)

                                     0000     1 	.TITLE	FALRMSDAP - RMS TO DAP ERROR CONVERSION
                                     0000     2 	.IDENT	/X0.1-4/
                                     0000     3
                                     0000     4 ;
                                     0000     5 ;			  COPYRIGHT (c) 1977, 1978 BY
                                     0000     6 ;	      DIGITAL EQUIPMENT CORPORATION, MAYNARD, MASS.
                                     0000     7 ;
                                     0000     8 ; THIS SOFTWARE IS FURNISHED UNDER A LICENSE AND MAY BE USED AND  COPIED
                                     0000     9 ; ONLY  IN  ACCORDANCE  WITH  THE  TERMS  OF  SUCH  LICENSE AND WITH THE
                                     0000    10 ; INCLUSION OF THE ABOVE COPYRIGHT NOTICE.  THIS SOFTWARE OR  ANY  OTHER
                                     0000    11 ; COPIES  THEREOF MAY NOT BE PROVIDED OR OTHERWISE MADE AVAILABLE TO ANY
                                     0000    12 ; OTHER PERSON.  NO TITLE TO AND OWNERSHIP OF  THE  SOFTWARE  IS  HEREBY
                                     0000    13 ; TRANSFERRED.
                                     0000    14 ;
                                     0000    15 ; THE INFORMATION IN THIS SOFTWARE IS SUBJECT TO CHANGE  WITHOUT  NOTICE
                                     0000    16 ; AND  SHOULD  NOT  BE  CONSTRUED  AS  A COMMITMENT BY DIGITAL EQUIPMENT
                                     0000    17 ; CORPORATION.
                                     0000    18 ;
                                     0000    19 ; DIGITAL ASSUMES NO RESPONSIBILITY FOR THE USE OR  RELIABILITY  OF  ITS
                                     0000    20 ; SOFTWARE ON EQUIPMENT WHICH IS NOT SUPPLIED BY DIGITAL.
                                     0000    21 ;
                                     0000    22
                                     0000    23 ;++
                                     0000    24 ; FACILITY: DECNET FILE ACCESS LISTENER (FAL)
                                     0000    25 ;
                                     0000    26 ; ABSTRACT:
                                     0000    27 ;
                                     0000    28 ;	THIS MODULE CONTAINS RMS COMPLETION CODES AND THEIR CORRESPONDING
                                     0000    29 ;	DAP STATUS CODES.
                                     0000    30 ;
                                     0000    31 ; ENVIRONMENT:
                                     0000    32 ;
                                     0000    33 ;	THE FAL IMAGE EXECUTES IN THE CONTEXT OF A PROCESS CREATED BY
                                     0000    34 ;	NETACP. IT RUNS IN USER MODE AND REQUIRES NETWORK PRIVILEGE.
                                     0000    35 ;
                                     0000    36 ; AUTHOR: JAMES A. KRYCKA,	CREATION DATE: 16-JUN-77
                                     0000    37 ;
                                     0000    38 ; MODIFICATIONS:
                                     0000    39 ;
                                     0000    40 ;--
FALRMSDAP       - RMS TO DAP ERROR CONVERSION                    22-AUG-1978 01:14:26   VAX-11 MACRO X0.3-11               Page   2
X0.1-4          DECLARATIONS                                                                                                     (2)

                                     0000    42 	.SBTTL	DECLARATIONS
                                     0000    43
                                     0000    44 ;
                                     0000    45 ; INCLUDE FILES:
                                     0000    46 ;
                                     0000    47 	$RMSDEF				; DEFINE RMS COMPLETION CODES
                                     0000    48 ;	.LIST	MEB
                                     0000    49 ;
                                     0000    50 ; MACROS:
                                     0000    51 ;
                                     0000    52 ;++
                                     0000    53 ; RMSDAP DEFINES AN ENTRY IN THE RMS-TO-DAP STATUS CODE CONVERSION TABLE.
                                     0000    54 ; TO CONSERVE SPACE, THE TWO BYTE FACILITY CODE PORTION OF EACH RMS
                                     0000    55 ; COMPLETION CODE IS OVERLAID BY THE CORRESPONDING DAP STATUS CODE.
                                     0000    56 ;--
                                     0000    57
                                     0000    58 	.MACRO	RMSDAP,RMSERR,DAPERR
                                     0000    59 	.LONG	<DAPERR@16>+<RMS$_'RMSERR&^XFFFF>
                                     0000    60 	.ENDM	RMSDAP
                                     0000    61
                                     0000    62 ;++
                                     0000    63 ; RMSDAPEND SIGNALS THE END OF THE CONVERSION TABLE.
                                     0000    64 ;--
                                     0000    65
                                     0000    66 	.MACRO	RMSDAPEND
                                     0000    67 	.LONG	0
                                     0000    68 	.ENDM	RMSDAPEND
                                     0000    69
                                     0000    70 ;
                                     0000    71 ; EQUATED SYMBOLS:
                                     0000    72 ;
                                     0000    73 ;	NONE
                                     0000    74 ;
                                     0000    75 ; OWN STORAGE:
                                     0000    76 ;
                                     0000    77 ;	NONE
FALRMSDAP       - RMS TO DAP ERROR CONVERSION                    22-AUG-1978 01:14:26   VAX-11 MACRO X0.3-11               Page   3
X0.1-4          FAL$ERROR_TABLE - RMS TO DAP TABLE                                                                               (3)

                                     0000    79 	.SBTTL	FAL$ERROR_TABLE - RMS TO DAP TABLE
                                 00000000    80 	.PSECT	FAL$ERROR_TABLE	SHR,NOEXE,RD,NOWRT,PAGE
                                     0000    81
                                     0000    82 ;+
                                     0000    83 ; NOTE: THE DEFINITION OF THE SYMBOLIC RMS COMPLETION CODES ARE DOCUMENTED
                                     0000    84 ; IN THE RMS-32 SPECIFICATION AND IN THE VAX MANUAL SET; THEREFORE, THE
                                     0000    85 ; EXPLANATIONS WILL NOT BE DUPLICATED HERE.
                                     0000    86 ;-
                                     0000    87
                                     0000    88 FAL$RMS_TO_DAP::		; START OF CONVERSION TABLE
                                     0000    89
                                     0000    90 ;-
                                     0000    91 ; RMS-32 SUCCESS COMPLETION CODES:
                                     0000    92 ;+
                                     0000    93
                                     0000    94 	RMSDAP	SUC,149
                                     0004    95 	RMSDAP	NORMAL,135
                                     0008    96 	RMSDAP	PENDING,142
                                     000C    97 ;	RMSDAP	OK_DUP,136	; CURRENTLY UNUSED BY RMS-32
                                     000C    98 ;	RMSDAP	OK_IDX,137	; CURRENTLY UNUSED BY RMS-32
                                     000C    99 	RMSDAP	OK_RLK,138
                                     0010   100 ;	RMSDAP	OK_RRV,139	; CURRENTLY UNUSED BY RMS-32
                                     0010   101 	RMSDAP	KFF,132
                                     0014   102 	RMSDAP	OK_ALK,149	; NO DAP CODE FOR IT; RETURN SUCCESS
                                     0018   103 	RMSDAP	OK_DEL,149	; NO DAP CODE FOR IT; RETURN SUCCESS
                                     001C   104 	RMSDAP	OK_RNF,149	; NO DAP CODE FOR IT; RETURN SUCCESS
                                     0020   105 	RMSDAP	CONTROLC,149	; NO DAP CODE FOR IT; RETURN SUCCESS
                                     0024   106 	RMSDAP	CONTROLO,124
                                     0028   107 	RMSDAP	CONTROLY,125
                                     002C   108 	RMSDAP	CREATED,140
                                     0030   109 	RMSDAP	SUPERSEDE,150
                                     0034   110
                                     0034   111 ;+
                                     0034   112 ; RMS-32 WARNING COMPLETION CODES:
                                     0034   113 ;-
                                     0034   114
                                     0034   115 	RMSDAP	BOF,15
                                     0038   116 	RMSDAP	RNL,97
                                     003C   117 	RMSDAP	RTB,103
                                     0040   118 	RMSDAP	TMO,152
                                     0044   119
                                     0044   120 ;+
                                     0044   121 ; RMS-32 ERROR COMPLETION CODES:
                                     0044   122 ;-
                                     0044   123
                                     0044   124 	RMSDAP	ACT,3
                                     0048   125 	RMSDAP	DEL,28
                                     004C   126 	RMSDAP	DNF,32
                                     0050   127 	RMSDAP	DNR,33
                                     0054   128 	RMSDAP	EOF,39
                                     0058   129 	RMSDAP	FEX,45
                                     005C   130 	RMSDAP	FLK,48
                                     0060   131 	RMSDAP	FNF,50
                                     0064   132 	RMSDAP	PRV,85
                                     0068   133 	RMSDAP	REX,91
                                     006C   134 	RMSDAP	RLK,94
                                     0070   135 	RMSDAP	RNF,96
FALRMSDAP       - RMS TO DAP ERROR CONVERSION                    22-AUG-1978 01:14:26   VAX-11 MACRO X0.3-11               Page   4
X0.1-4          FAL$ERROR_TABLE - RMS TO DAP TABLE                                                                               (3)

                                     0074   136 	RMSDAP	WLK,116
                                     0078   137 	RMSDAP	EXP,41
                                     007C   138 	RMSDAP	NMF,199
                                     0080   139
                                     0080   140 ;+
                                     0080   141 ; RMS-32 ERROR COMPLETION CODES (AND STV HAS A SYSTEM ERROR CODE):
                                     0080   142 ;-
                                     0080   143
                                     0080   144 	RMSDAP	ACC,2
                                     0084   145 	RMSDAP	CRE,24
                                     0088   146 	RMSDAP	DAC,26
                                     008C   147 	RMSDAP	ENT,37
                                     0090   148 	RMSDAP	EXT,42
                                     0094   149 	RMSDAP	FND,49
                                     0098   150 	RMSDAP	MKD,72
                                     009C   151 	RMSDAP	DPE,34
                                     00A0   152
                                     00A0   153 ;+
                                     00A0   154 ; RMS-32 SEVERE ERROR COMPLETION CODES:
                                     00A0   155 ;-
                                     00A0   156
                                     00A0   157 ;	RMSDAP	ABO,1		; CURRENTLY UNUSED BY RMS-32
                                     00A0   158 	RMSDAP	AID,4
                                     00A4   159 	RMSDAP	ALN,5
                                     00A8   160 	RMSDAP	ALQ,6
                                     00AC   161 	RMSDAP	ANI,7
                                     00B0   162 	RMSDAP	AOP,8
                                     00B4   163 	RMSDAP	BKS,12
                                     00B8   164 	RMSDAP	BKZ,13
                                     00BC   165 	RMSDAP	BLN,14
                                     00C0   166 	RMSDAP	BUG,18
                                     00C4   167 	RMSDAP	BUG_DDI,119
                                     00C8   168 	RMSDAP	CAA,120
                                     00CC   169 	RMSDAP	CCR,19
                                     00D0   170 ;	RMSDAP	CHG,20		; CURRENTLY UNUSED BY RMS-32
                                     00D0   171 	RMSDAP	CHK,21
                                     00D4   172 	RMSDAP	COD,23
                                     00D8   173 	RMSDAP	CUR,25
                                     00DC   174 ;	RMSDAP	DAN,27		; CURRENTLY UNUSED BY RMS-32
                                     00DC   175 	RMSDAP	DEV,29
                                     00E0   176 	RMSDAP	DIR,30
                                     00E4   177 	RMSDAP	DME,31
                                     00E8   178 	RMSDAP	DNA,126
                                     00EC   179 ;	RMSDAP	DTP,35		; CURRENTLY UNUSED BY RMS-32
                                     00EC   180 ;	RMSDAP	DUP,36		; CURRENTLY UNUSED BY RMS-32
                                     00EC   181 	RMSDAP	DVI,127
                                     00F0   182 	RMSDAP	ESA,128
                                     00F4   183 	RMSDAP	ESS,40
                                     00F8   184 	RMSDAP	FAB,43
                                     00FC   185 	RMSDAP	FAC,44
                                     0100   186 ;	RMSDAP	FLG,47		; CURRENTLY UNUSED BY RMS-32
                                     0100   187 	RMSDAP	FNA,129
                                     0104   188 	RMSDAP	FNM,51
                                     0108   189 	RMSDAP	FSZ,130
                                     010C   190 	RMSDAP	FOP,52
                                     0110   191 	RMSDAP	FUL,53
                                     0114   192 	RMSDAP	IAL,131
FALRMSDAP       - RMS TO DAP ERROR CONVERSION                    22-AUG-1978 01:14:26   VAX-11 MACRO X0.3-11               Page   5
X0.1-4          FAL$ERROR_TABLE - RMS TO DAP TABLE                                                                               (3)

                                     0118   193 ;	RMSDAP	IAN,54		; CURRENTLY UNUSED BY RMS-32
                                     0118   194 ;	RMSDAP	IDX,???		; CURRENTLY UNUSED BY RMS-32
                                     0118   195 				; ALSO, NO DAP CODE FOR IT
                                     0118   196 	RMSDAP	IFI,55
                                     011C   197 	RMSDAP	IMX,56
                                     0120   198 	RMSDAP	IOP,58
                                     0124   199 	RMSDAP	IRC,59
                                     0128   200 	RMSDAP	ISI,60
                                     012C   201 	RMSDAP	KBF,61
                                     0130   202 	RMSDAP	KEY,62
                                     0134   203 ;	RMSDAP	KRF,63		; CURRENTLY UNUSED BY RMS-32
                                     0134   204 	RMSDAP	KSZ,64
                                     0138   205 ;	RMSDAP	LAN,65		; CURRENTLY UNUSED BY RMS-32
                                     0138   206 ;	RMSDAP	LBL,66		; CURRENTLY UNUSED BY RMS-32
                                     0138   207 	RMSDAP	LNE,133
                                     013C   208 ;	RMSDAP	LOC,70		; CURRENTLY UNUSED BY RMS-32
                                     013C   209 	RMSDAP	MRN,73
                                     0140   210 	RMSDAP	MRS,74
                                     0144   211 	RMSDAP	NAM,75
                                     0148   212 	RMSDAP	NEF,76
                                     014C   213 ;	RMSDAP	NID,77		; CURRENTLY UNUSED BY RMS-32
                                     014C   214 	RMSDAP	NOD,134
                                     0150   215 ;	RMSDAP	NPK,78		; CURRENTLY UNUSED BY RMS-32
                                     0150   216 ;	RMSDAP	ORD,80		; CURRENTLY UNUSED BY RMS-32
                                     0150   217 	RMSDAP	ORG,81
                                     0154   218 	RMSDAP	PBF,141
                                     0158   219 	RMSDAP	PLG,82
                                     015C   220 ;	RMSDAP	POS,83		; CURRENTLY UNUSED BY RMS-32
                                     015C   221 ;	RMSDAP	PRM,84		; CURRENTLY UNUSED BY RMS-32
                                     015C   222 	RMSDAP	QUO,143
                                     0160   223 	RMSDAP	RAB,86
                                     0164   224 	RMSDAP	RAC,87
                                     0168   225 	RMSDAP	RAT,88
                                     016C   226 	RMSDAP	RBF,89
                                     0170   227 	RMSDAP	RFA,92
                                     0174   228 	RMSDAP	RFM,93
                                     0178   229 	RMSDAP	RHB,144
                                     017C   230 	RMSDAP	RLF,145
                                     0180   231 ;	RMSDAP	ROP,98		; CURRENTLY UNUSED BY RMS-32
                                     0180   232 ;	RMSDAP	RRV,100		; CURRENTLY UNUSED BY RMS-32
                                     0180   233 	RMSDAP	RSA,101
                                     0184   234 	RMSDAP	RSS,146
                                     0188   235 	RMSDAP	RST,147
                                     018C   236 	RMSDAP	RSZ,102
                                     0190   237 ;	RMSDAP	SEQ,104		; CURRENTLY UNUSED BY RMS-32
                                     0190   238 	RMSDAP	SHR,105
                                     0194   239 ;	RMSDAP	SIZ,106		; CURRENTLY UNUSED BY RMS-32
                                     0194   240 	RMSDAP	SQO,148
                                     0198   241 ;	RMSDAP	STK,107		; CURRENTLY UNUSED BY RMS-32
                                     0198   242 	RMSDAP	SYN,151
                                     019C   243 ;	RMSDAP	TRE,109		; CURRENTLY UNUSED BY RMS-32
                                     019C   244 	RMSDAP	TYP,110
                                     01A0   245 	RMSDAP	UBF,111
                                     01A4   246 	RMSDAP	USZ,112
                                     01A8   247 	RMSDAP	VER,113
                                     01AC   248 ;	RMSDAP	VOL,114		; CURRENTLY UNUSED BY RMS-32
                                     01AC   249 	RMSDAP	XAB,118
FALRMSDAP       - RMS TO DAP ERROR CONVERSION                    22-AUG-1978 01:14:26   VAX-11 MACRO X0.3-11               Page   6
X0.1-4          FAL$ERROR_TABLE - RMS TO DAP TABLE                                                                               (3)

                                     01B0   250 ;	RMSDAP	ESL,???		; NO DAP CODE FOR IT
                                     01B0   251 ;	RMSDAP	WSF,???		; NO DAP CODE FOR IT
                                     01B0   252 	RMSDAP	ENV,38
                                     01B4   253 ;	RMSDAP	PLV,???		; NO DAP CODE FOR IT
                                     01B4   254 ;	RMSDAP	MBC,???		; NO DAP CODE FOR IT
                                     01B4   255 ;	RMSDAP	RSL,???		; NO DAP CODE FOR IT
                                     01B4   256
                                     01B4   257 ;+
                                     01B4   258 ; RMS-32 SEVERE COMPLETION CODES (AND STV ALSO CONTAINS AN ERROR CODE)
                                     01B4   259 ;-
                                     01B4   260
                                     01B4   261 	RMSDAP	ATR,10
                                     01B8   262 	RMSDAP	ATW,11
                                     01BC   263 ;	RMSDAP	CCF,121		; CURRENTLY UNUSED BY RMS-32
                                     01BC   264 	RMSDAP	CDA,122
                                     01C0   265 	RMSDAP	CHN,123
                                     01C4   266 	RMSDAP	RER,90
                                     01C8   267 	RMSDAP	RMV,95
                                     01CC   268 	RMSDAP	RPL,99
                                     01D0   269 	RMSDAP	SYS,108
                                     01D4   270 	RMSDAP	WER,115
                                     01D8   271 	RMSDAP	WPL,117
                                     01DC   272 ;	RMSDAP	IFA,???		; NO DAP CODE FOR IT
                                     01DC   273 	RMSDAPEND		; NO MATCH MAPS TO UNSPECIFIED ERROR
                                     01E0   274
                                     01E0   275 	.END
FALRMSDAP       - RMS TO DAP ERROR CONVERSION                    22-AUG-1978 01:14:26   VAX-11 MACRO X0.3-11               Page   7
SYMBOL TABLE                                                                                                                     (3)

BIT...         = 0001C134            RMS$_ENV       = 00018724            RMS$_OK_RRV    = 00018029
FAL$RMS_TO_DAP   00000000 RG    03   RMS$_EOF       = 0001827A            RMS$_ORD       = 00018604
GBL...         = 00000000            RMS$_ESA       = 000184FC            RMS$_ORG       = 0001860C
RMS$V_STVSTATUS= 0000000E            RMS$_ESL       = 00018714            RMS$_PBF       = 00018614
RMS$_ABO       = 000183EC            RMS$_ESS       = 00018504            RMS$_PENDING   = 00018009
RMS$_ACC       = 0001C002            RMS$_EXP       = 000182C2            RMS$_PLG       = 0001861C
RMS$_ACT       = 0001825A            RMS$_EXT       = 0001C022            RMS$_PLV       = 0001872C
RMS$_AID       = 000183F4            RMS$_FAB       = 0001850C            RMS$_POS       = 00018624
RMS$_ALN       = 000183FC            RMS$_FAC       = 00018514            RMS$_PRM       = 0001862C
RMS$_ALQ       = 00018404            RMS$_FEX       = 00018282            RMS$_PRV       = 0001829A
RMS$_ANI       = 0001840C            RMS$_FLG       = 0001851C            RMS$_QUO       = 00018634
RMS$_AOP       = 00018414            RMS$_FLK       = 0001828A            RMS$_RAB       = 0001863C
RMS$_ATR       = 0001C0CC            RMS$_FNA       = 00018524            RMS$_RAC       = 00018644
RMS$_ATW       = 0001C0D4            RMS$_FND       = 0001C02A            RMS$_RAT       = 0001864C
RMS$_BKS       = 0001841C            RMS$_FNF       = 00018292            RMS$_RBF       = 00018654
RMS$_BKZ       = 00018424            RMS$_FNM       = 0001852C            RMS$_RER       = 0001C0F4
RMS$_BLN       = 0001842C            RMS$_FOP       = 0001853C            RMS$_REX       = 000182A2
RMS$_BOF       = 00018198            RMS$_FSZ       = 00018534            RMS$_RFA       = 0001865C
RMS$_BUG       = 00018434            RMS$_FUL       = 00018544            RMS$_RFM       = 00018664
RMS$_BUG_DAP   = 00018444            RMS$_IAL       = 0001854C            RMS$_RHB       = 0001866C
RMS$_BUG_DDI   = 0001843C            RMS$_IAN       = 00018554            RMS$_RLF       = 00018674
RMS$_BUG_XX2   = 0001844C            RMS$_IBF       = 00018754            RMS$_RLK       = 000182AA
RMS$_BUG_XX3   = 00018454            RMS$_IDX       = 0001855C            RMS$_RMV       = 0001C0FC
RMS$_BUG_XX4   = 0001845C            RMS$_IFA       = 0001C124            RMS$_RNF       = 000182B2
RMS$_BUG_XX5   = 00018464            RMS$_IFI       = 00018564            RMS$_RNL       = 000181A0
RMS$_BUG_XX6   = 0001846C            RMS$_IMX       = 0001856C            RMS$_ROP       = 0001867C
RMS$_BUG_XX7   = 00018474            RMS$_IOP       = 00018574            RMS$_RPL       = 0001C104
RMS$_BUG_XX8   = 0001847C            RMS$_IRC       = 0001857C            RMS$_RRV       = 00018684
RMS$_BUG_XX9   = 00018484            RMS$_ISI       = 00018584            RMS$_RSA       = 000182DA
RMS$_CAA       = 0001848C            RMS$_KBF       = 0001858C            RMS$_RSL       = 0001873C
RMS$_CCF       = 0001C0DC            RMS$_KEY       = 00018594            RMS$_RSS       = 00018694
RMS$_CCR       = 00018494            RMS$_KFF       = 00018031            RMS$_RST       = 0001869C
RMS$_CDA       = 0001C0E4            RMS$_KRF       = 0001859C            RMS$_RSZ       = 000186A4
RMS$_CHG       = 0001849C            RMS$_KSZ       = 000185A4            RMS$_RTB       = 000181A8
RMS$_CHK       = 000184A4            RMS$_LAN       = 000185AC            RMS$_SEQ       = 000186AC
RMS$_CHN       = 0001C0EC            RMS$_LBL       = 000185B4            RMS$_SHR       = 000186B4
RMS$_COD       = 000184AC            RMS$_LNE       = 000185BC            RMS$_SIZ       = 000186BC
RMS$_CONTROLC  = 00010651            RMS$_LOC       = 000185C4            RMS$_SPL       = 0001C042
RMS$_CONTROLO  = 00010609            RMS$_MBC       = 00018734            RMS$_SQO       = 000186C4
RMS$_CONTROLY  = 00010611            RMS$_MKD       = 0001C032            RMS$_STALL     = 00018001
RMS$_CRE       = 0001C00A            RMS$_MRN       = 000185CC            RMS$_STK       = 000186CC
RMS$_CREATED   = 00010619            RMS$_MRS       = 000185D4            RMS$_SUC       = 00010001
RMS$_CUR       = 000184B4            RMS$_NAM       = 000185DC            RMS$_SUP       = 000182D2
RMS$_DAC       = 0001C012            RMS$_NEF       = 000185E4            RMS$_SUPERSEDE = 00010631
RMS$_DAN       = 000184BC            RMS$_NET       = 0001874C            RMS$_SYN       = 000186D4
RMS$_DEL       = 00018262            RMS$_NID       = 000185EC            RMS$_SYS       = 0001C10C
RMS$_DEV       = 000184C4            RMS$_NMF       = 000182CA            RMS$_TEMP1     = 0001826A
RMS$_DIR       = 000184CC            RMS$_NOD       = 000185F4            RMS$_TEMP2     = 0001868C
RMS$_DME       = 000184D4            RMS$_NORMAL    = 00010001            RMS$_TMO       = 000181B0
RMS$_DNA       = 000184DC            RMS$_NPK       = 000185FC            RMS$_TRE       = 000186DC
RMS$_DNF       = 0001C04A            RMS$_OK_ALK    = 00018039            RMS$_TYP       = 000186E4
RMS$_DNR       = 00018272            RMS$_OK_DEL    = 00018041            RMS$_UBF       = 000186EC
RMS$_DPE       = 0001C03A            RMS$_OK_DUP    = 00018011            RMS$_USZ       = 000186F4
RMS$_DTP       = 000184E4            RMS$_OK_IDX    = 00018019            RMS$_VER       = 000186FC
RMS$_DUP       = 000184EC            RMS$_OK_LIM    = 00018051            RMS$_VOL       = 00018704
RMS$_DVI       = 000184F4            RMS$_OK_RLK    = 00018021            RMS$_WBE       = 0001C12C
RMS$_ENT       = 0001C01A            RMS$_OK_RNF    = 00018049            RMS$_WER       = 0001C114
FALRMSDAP       - RMS TO DAP ERROR CONVERSION                    22-AUG-1978 01:14:26   VAX-11 MACRO X0.3-11               Page   8
SYMBOL TABLE                                                                                                                     (3)

RMS$_WLD       = 00018744
RMS$_WLK       = 000182BA
RMS$_WPL       = 0001C11C
RMS$_WSF       = 0001871C
RMS$_XAB       = 0001870C


PROGRAM SECTION SYNOPSIS

.  ABS  .        00000000      00     NOPIC   USR   CON   ABS   LCL NOSHR NOEXE NORD  NOWRT BYTE
. BLANK .        00000000      01     NOPIC   USR   CON   REL   LCL NOSHR   EXE   RD    WRT BYTE
$ABS$            00000000      02     NOPIC   USR   CON   ABS   LCL NOSHR   EXE   RD    WRT BYTE
FAL$ERROR_TABLE  000001E0      03     NOPIC   USR   CON   REL   LCL   SHR NOEXE   RD  NOWRT PAGE


THERE WERE NO ERRORS OR WARNINGS.
20466. BYTES LEFT IN FREE MEMORY POOL.
3146. BYTES OF RECLAIMED MEMORY.
OBJ$:FALRMSDAP,LIS$:FALRMSDAP/-SP=LIB$:FAL.MLB/ML,SRC$:FALRMSDAP
20 MLB DIR RDS - 345 GETS TO DEFINE 9 MACROS. 24 INTER. FILE WRITES.
